{
	"Qvoting.sol": {
		"Qvoting": {
			"abi": [
				{
					"anonymous": false,
					"inputs": [
						{
							"indexed": false,
							"internalType": "uint256",
							"name": "proposalId",
							"type": "uint256"
						},
						{
							"indexed": false,
							"internalType": "address[]",
							"name": "voters",
							"type": "address[]"
						},
						{
							"indexed": false,
							"internalType": "address",
							"name": "creator",
							"type": "address"
						},
						{
							"indexed": false,
							"internalType": "uint256",
							"name": "startTime",
							"type": "uint256"
						},
						{
							"indexed": false,
							"internalType": "uint256",
							"name": "expirationTime",
							"type": "uint256"
						},
						{
							"indexed": false,
							"internalType": "string",
							"name": "description",
							"type": "string"
						},
						{
							"indexed": false,
							"internalType": "string[]",
							"name": "_cand",
							"type": "string[]"
						}
					],
					"name": "ProposalCreated",
					"type": "event"
				},
				{
					"anonymous": false,
					"inputs": [
						{
							"indexed": false,
							"internalType": "address",
							"name": "voter",
							"type": "address"
						},
						{
							"indexed": false,
							"internalType": "uint256",
							"name": "ProposalID",
							"type": "uint256"
						},
						{
							"indexed": false,
							"internalType": "uint256[]",
							"name": "_tokens",
							"type": "uint256[]"
						}
					],
					"name": "VoteCasted",
					"type": "event"
				},
				{
					"anonymous": false,
					"inputs": [
						{
							"indexed": false,
							"internalType": "string",
							"name": "mintAndburn",
							"type": "string"
						},
						{
							"indexed": false,
							"internalType": "address",
							"name": "account",
							"type": "address"
						},
						{
							"indexed": false,
							"internalType": "uint256",
							"name": "amount",
							"type": "uint256"
						}
					],
					"name": "mintAndburn",
					"type": "event"
				},
				{
					"inputs": [
						{
							"internalType": "address",
							"name": "",
							"type": "address"
						},
						{
							"internalType": "uint256",
							"name": "",
							"type": "uint256"
						}
					],
					"name": "allVoters",
					"outputs": [
						{
							"internalType": "uint256",
							"name": "proposalId",
							"type": "uint256"
						},
						{
							"internalType": "address",
							"name": "voterAddress",
							"type": "address"
						},
						{
							"internalType": "bool",
							"name": "hasVoted",
							"type": "bool"
						},
						{
							"internalType": "uint256",
							"name": "voteNum",
							"type": "uint256"
						}
					],
					"stateMutability": "view",
					"type": "function"
				},
				{
					"inputs": [
						{
							"internalType": "address",
							"name": "account",
							"type": "address"
						}
					],
					"name": "balanceOf",
					"outputs": [
						{
							"internalType": "uint256",
							"name": "",
							"type": "uint256"
						}
					],
					"stateMutability": "view",
					"type": "function"
				},
				{
					"inputs": [
						{
							"internalType": "uint256",
							"name": "_proposalId",
							"type": "uint256"
						},
						{
							"internalType": "address",
							"name": "_voter",
							"type": "address"
						}
					],
					"name": "burnOwner",
					"outputs": [
						{
							"internalType": "bool",
							"name": "",
							"type": "bool"
						}
					],
					"stateMutability": "nonpayable",
					"type": "function"
				},
				{
					"inputs": [
						{
							"internalType": "uint8",
							"name": "_status",
							"type": "uint8"
						},
						{
							"internalType": "address[]",
							"name": "_voters",
							"type": "address[]"
						},
						{
							"internalType": "address",
							"name": "_creator",
							"type": "address"
						},
						{
							"internalType": "uint256",
							"name": "_startTime",
							"type": "uint256"
						},
						{
							"internalType": "uint256",
							"name": "_expirationTime",
							"type": "uint256"
						},
						{
							"internalType": "string",
							"name": "_disc",
							"type": "string"
						},
						{
							"internalType": "string[]",
							"name": "_cand",
							"type": "string[]"
						},
						{
							"internalType": "uint256",
							"name": "_voteRight",
							"type": "uint256"
						}
					],
					"name": "createProposal",
					"outputs": [],
					"stateMutability": "nonpayable",
					"type": "function"
				},
				{
					"inputs": [],
					"name": "decimals",
					"outputs": [
						{
							"internalType": "uint8",
							"name": "",
							"type": "uint8"
						}
					],
					"stateMutability": "view",
					"type": "function"
				},
				{
					"inputs": [],
					"name": "name",
					"outputs": [
						{
							"internalType": "string",
							"name": "",
							"type": "string"
						}
					],
					"stateMutability": "view",
					"type": "function"
				},
				{
					"inputs": [
						{
							"internalType": "uint256",
							"name": "",
							"type": "uint256"
						}
					],
					"name": "proposals",
					"outputs": [
						{
							"internalType": "address",
							"name": "creator",
							"type": "address"
						},
						{
							"internalType": "uint8",
							"name": "status",
							"type": "uint8"
						},
						{
							"internalType": "string",
							"name": "disc",
							"type": "string"
						},
						{
							"internalType": "uint256",
							"name": "startTime",
							"type": "uint256"
						},
						{
							"internalType": "uint256",
							"name": "expirationTime",
							"type": "uint256"
						},
						{
							"internalType": "uint16",
							"name": "numOfOptions",
							"type": "uint16"
						},
						{
							"internalType": "uint256",
							"name": "voteRight",
							"type": "uint256"
						}
					],
					"stateMutability": "view",
					"type": "function"
				},
				{
					"inputs": [
						{
							"internalType": "uint256",
							"name": "_proposalId",
							"type": "uint256"
						},
						{
							"internalType": "address",
							"name": "_voter",
							"type": "address"
						},
						{
							"internalType": "string[]",
							"name": "_hash",
							"type": "string[]"
						},
						{
							"internalType": "uint256[]",
							"name": "v",
							"type": "uint256[]"
						}
					],
					"name": "responseProposal",
					"outputs": [],
					"stateMutability": "nonpayable",
					"type": "function"
				},
				{
					"inputs": [
						{
							"internalType": "uint256",
							"name": "_proposalId",
							"type": "uint256"
						}
					],
					"name": "resultOfProposal",
					"outputs": [
						{
							"internalType": "uint256",
							"name": "",
							"type": "uint256"
						},
						{
							"internalType": "string",
							"name": "",
							"type": "string"
						}
					],
					"stateMutability": "view",
					"type": "function"
				},
				{
					"inputs": [],
					"name": "symbol",
					"outputs": [
						{
							"internalType": "string",
							"name": "",
							"type": "string"
						}
					],
					"stateMutability": "view",
					"type": "function"
				},
				{
					"inputs": [],
					"name": "totalSupply",
					"outputs": [
						{
							"internalType": "uint256",
							"name": "",
							"type": "uint256"
						}
					],
					"stateMutability": "view",
					"type": "function"
				},
				{
					"inputs": [
						{
							"internalType": "address",
							"name": "",
							"type": "address"
						}
					],
					"name": "userProposal",
					"outputs": [
						{
							"internalType": "uint128",
							"name": "proposalCount",
							"type": "uint128"
						},
						{
							"internalType": "uint128",
							"name": "responseCount",
							"type": "uint128"
						}
					],
					"stateMutability": "view",
					"type": "function"
				}
			],
			"devdoc": {
				"kind": "dev",
				"methods": {
					"balanceOf(address)": {
						"details": "See {IERC20-balanceOf}."
					},
					"decimals()": {
						"details": "Returns the number of decimals used to get its user representation. For example, if `decimals` equals `2`, a balance of `505` tokens should be displayed to a user as `5.05` (`505 / 10 ** 2`). Tokens usually opt for a value of 18, imitating the relationship between Ether and Wei. This is the value {ERC20} uses, unless this function is overridden; NOTE: This information is only used for _display_ purposes: it in no way affects any of the arithmetic of the contract, including {IERC20-balanceOf} and {IERC20-transfer}."
					},
					"name()": {
						"details": "Returns the name of the token."
					},
					"symbol()": {
						"details": "Returns the symbol of the token, usually a shorter version of the name."
					},
					"totalSupply()": {
						"details": "See {IERC20-totalSupply}."
					}
				},
				"version": 1
			},
			"evm": {
				"assembly": "    /* \"Qvoting.sol\":481:6044  contract Qvoting is proposalEvents, QVtoken{\r... */\n  mstore(0x40, 0x80)\n  callvalue\n  dup1\n  iszero\n  tag_1\n  jumpi\n  0x00\n  dup1\n  revert\ntag_1:\n  pop\n    /* \"QvToken/ERC20.sol\":2016:2132  constructor(string memory name_, string memory symbol_) {\r... */\n  mload(0x40)\n  dup1\n  0x40\n  add\n  0x40\n  mstore\n  dup1\n  0x0c\n  dup2\n  mstore\n  0x20\n  add\n  0x51566f74696e67546f6b656e0000000000000000000000000000000000000000\n  dup2\n  mstore\n  pop\n  mload(0x40)\n  dup1\n  0x40\n  add\n  0x40\n  mstore\n  dup1\n  0x02\n  dup2\n  mstore\n  0x20\n  add\n  0x5176000000000000000000000000000000000000000000000000000000000000\n  dup2\n  mstore\n  pop\n    /* \"QvToken/ERC20.sol\":2091:2096  name_ */\n  dup2\n    /* \"QvToken/ERC20.sol\":2083:2088  _name */\n  0x02\n    /* \"QvToken/ERC20.sol\":2083:2096  _name = name_ */\n  swap1\n  dup1\n  mload\n  swap1\n  0x20\n  add\n  swap1\n  tag_5\n  swap3\n  swap2\n  swap1\n  tag_6\n  jump\t// in\ntag_5:\n  pop\n    /* \"QvToken/ERC20.sol\":2117:2124  symbol_ */\n  dup1\n    /* \"QvToken/ERC20.sol\":2107:2114  _symbol */\n  0x03\n    /* \"QvToken/ERC20.sol\":2107:2124  _symbol = symbol_ */\n  swap1\n  dup1\n  mload\n  swap1\n  0x20\n  add\n  swap1\n  tag_7\n  swap3\n  swap2\n  swap1\n  tag_6\n  jump\t// in\ntag_7:\n  pop\n    /* \"QvToken/ERC20.sol\":2016:2132  constructor(string memory name_, string memory symbol_) {\r... */\n  pop\n  pop\n    /* \"QvToken/QvToken.sol\":280:290  msg.sender */\n  caller\n    /* \"QvToken/QvToken.sol\":272:277  owner */\n  0x04\n  0x00\n    /* \"QvToken/QvToken.sol\":272:290  owner = msg.sender */\n  0x0100\n  exp\n  dup2\n  sload\n  dup2\n  0xffffffffffffffffffffffffffffffffffffffff\n  mul\n  not\n  and\n  swap1\n  dup4\n  0xffffffffffffffffffffffffffffffffffffffff\n  and\n  mul\n  or\n  swap1\n  sstore\n  pop\n    /* \"Qvoting.sol\":481:6044  contract Qvoting is proposalEvents, QVtoken{\r... */\n  jump(tag_9)\ntag_6:\n  dup3\n  dup1\n  sload\n  tag_10\n  swap1\n  tag_11\n  jump\t// in\ntag_10:\n  swap1\n  0x00\n  mstore\n  keccak256(0x00, 0x20)\n  swap1\n  0x1f\n  add\n  0x20\n  swap1\n  div\n  dup2\n  add\n  swap3\n  dup3\n  tag_13\n  jumpi\n  0x00\n  dup6\n  sstore\n  jump(tag_12)\ntag_13:\n  dup3\n  0x1f\n  lt\n  tag_14\n  jumpi\n  dup1\n  mload\n  not(0xff)\n  and\n  dup4\n  dup1\n  add\n  or\n  dup6\n  sstore\n  jump(tag_12)\ntag_14:\n  dup3\n  dup1\n  add\n  0x01\n  add\n  dup6\n  sstore\n  dup3\n  iszero\n  tag_12\n  jumpi\n  swap2\n  dup3\n  add\ntag_15:\n  dup3\n  dup2\n  gt\n  iszero\n  tag_16\n  jumpi\n  dup3\n  mload\n  dup3\n  sstore\n  swap2\n  0x20\n  add\n  swap2\n  swap1\n  0x01\n  add\n  swap1\n  jump(tag_15)\ntag_16:\ntag_12:\n  pop\n  swap1\n  pop\n  tag_17\n  swap2\n  swap1\n  tag_18\n  jump\t// in\ntag_17:\n  pop\n  swap1\n  jump\t// out\ntag_18:\ntag_19:\n  dup1\n  dup3\n  gt\n  iszero\n  tag_20\n  jumpi\n  0x00\n  dup2\n  0x00\n  swap1\n  sstore\n  pop\n  0x01\n  add\n  jump(tag_19)\ntag_20:\n  pop\n  swap1\n  jump\t// out\n    /* \"#utility.yul\":7:327   */\ntag_11:\n    /* \"#utility.yul\":51:57   */\n  0x00\n    /* \"#utility.yul\":88:89   */\n  0x02\n    /* \"#utility.yul\":82:86   */\n  dup3\n    /* \"#utility.yul\":78:90   */\n  div\n    /* \"#utility.yul\":68:90   */\n  swap1\n  pop\n    /* \"#utility.yul\":135:136   */\n  0x01\n    /* \"#utility.yul\":129:133   */\n  dup3\n    /* \"#utility.yul\":125:137   */\n  and\n    /* \"#utility.yul\":156:174   */\n  dup1\n    /* \"#utility.yul\":146:227   */\n  tag_23\n  jumpi\n    /* \"#utility.yul\":212:216   */\n  0x7f\n    /* \"#utility.yul\":204:210   */\n  dup3\n    /* \"#utility.yul\":200:217   */\n  and\n    /* \"#utility.yul\":190:217   */\n  swap2\n  pop\n    /* \"#utility.yul\":146:227   */\ntag_23:\n    /* \"#utility.yul\":274:276   */\n  0x20\n    /* \"#utility.yul\":266:272   */\n  dup3\n    /* \"#utility.yul\":263:277   */\n  lt\n    /* \"#utility.yul\":243:261   */\n  dup2\n    /* \"#utility.yul\":240:278   */\n  eq\n    /* \"#utility.yul\":237:321   */\n  iszero\n  tag_24\n  jumpi\n    /* \"#utility.yul\":293:311   */\n  tag_25\n  tag_26\n  jump\t// in\ntag_25:\n    /* \"#utility.yul\":237:321   */\ntag_24:\n    /* \"#utility.yul\":58:327   */\n  pop\n    /* \"#utility.yul\":7:327   */\n  swap2\n  swap1\n  pop\n  jump\t// out\n    /* \"#utility.yul\":333:513   */\ntag_26:\n    /* \"#utility.yul\":381:458   */\n  0x4e487b7100000000000000000000000000000000000000000000000000000000\n    /* \"#utility.yul\":378:379   */\n  0x00\n    /* \"#utility.yul\":371:459   */\n  mstore\n    /* \"#utility.yul\":478:482   */\n  0x22\n    /* \"#utility.yul\":475:476   */\n  0x04\n    /* \"#utility.yul\":468:483   */\n  mstore\n    /* \"#utility.yul\":502:506   */\n  0x24\n    /* \"#utility.yul\":499:500   */\n  0x00\n    /* \"#utility.yul\":492:507   */\n  revert\n    /* \"Qvoting.sol\":481:6044  contract Qvoting is proposalEvents, QVtoken{\r... */\ntag_9:\n  dataSize(sub_0)\n  dup1\n  dataOffset(sub_0)\n  0x00\n  codecopy\n  0x00\n  return\nstop\n\nsub_0: assembly {\n        /* \"Qvoting.sol\":481:6044  contract Qvoting is proposalEvents, QVtoken{\r... */\n      mstore(0x40, 0x80)\n      callvalue\n      dup1\n      iszero\n      tag_1\n      jumpi\n      0x00\n      dup1\n      revert\n    tag_1:\n      pop\n      jumpi(tag_2, lt(calldatasize, 0x04))\n      shr(0xe0, calldataload(0x00))\n      dup1\n      0x6a232d1f\n      gt\n      tag_15\n      jumpi\n      dup1\n      0x6a232d1f\n      eq\n      tag_9\n      jumpi\n      dup1\n      0x70a08231\n      eq\n      tag_10\n      jumpi\n      dup1\n      0x95d89b41\n      eq\n      tag_11\n      jumpi\n      dup1\n      0x9d671564\n      eq\n      tag_12\n      jumpi\n      dup1\n      0xab9c70d4\n      eq\n      tag_13\n      jumpi\n      dup1\n      0xe745d68e\n      eq\n      tag_14\n      jumpi\n      jump(tag_2)\n    tag_15:\n      dup1\n      0x013cf08b\n      eq\n      tag_3\n      jumpi\n      dup1\n      0x06fdde03\n      eq\n      tag_4\n      jumpi\n      dup1\n      0x18160ddd\n      eq\n      tag_5\n      jumpi\n      dup1\n      0x313ce567\n      eq\n      tag_6\n      jumpi\n      dup1\n      0x4de77e48\n      eq\n      tag_7\n      jumpi\n      dup1\n      0x5c230eee\n      eq\n      tag_8\n      jumpi\n    tag_2:\n      0x00\n      dup1\n      revert\n        /* \"Qvoting.sol\":1304:1362  mapping(uint => proposalLibrary.proposal) public proposals */\n    tag_3:\n      tag_16\n      0x04\n      dup1\n      calldatasize\n      sub\n      dup2\n      add\n      swap1\n      tag_17\n      swap2\n      swap1\n      tag_18\n      jump\t// in\n    tag_17:\n      tag_19\n      jump\t// in\n    tag_16:\n      mload(0x40)\n      tag_20\n      swap8\n      swap7\n      swap6\n      swap5\n      swap4\n      swap3\n      swap2\n      swap1\n      tag_21\n      jump\t// in\n    tag_20:\n      mload(0x40)\n      dup1\n      swap2\n      sub\n      swap1\n      return\n        /* \"QvToken/ERC20.sol\":2202:2302  function name() public view virtual override returns (string memory) {\r... */\n    tag_4:\n      tag_22\n      tag_23\n      jump\t// in\n    tag_22:\n      mload(0x40)\n      tag_24\n      swap2\n      swap1\n      tag_25\n      jump\t// in\n    tag_24:\n      mload(0x40)\n      dup1\n      swap2\n      sub\n      swap1\n      return\n        /* \"QvToken/ERC20.sol\":3322:3430  function totalSupply() public view virtual override returns (uint256) {\r... */\n    tag_5:\n      tag_26\n      tag_27\n      jump\t// in\n    tag_26:\n      mload(0x40)\n      tag_28\n      swap2\n      swap1\n      tag_29\n      jump\t// in\n    tag_28:\n      mload(0x40)\n      dup1\n      swap2\n      sub\n      swap1\n      return\n        /* \"QvToken/ERC20.sol\":3164:3257  function decimals() public view virtual override returns (uint8) {\r... */\n    tag_6:\n      tag_30\n      tag_31\n      jump\t// in\n    tag_30:\n      mload(0x40)\n      tag_32\n      swap2\n      swap1\n      tag_33\n      jump\t// in\n    tag_32:\n      mload(0x40)\n      dup1\n      swap2\n      sub\n      swap1\n      return\n        /* \"Qvoting.sol\":1965:3262  function createProposal(uint8 _status, address[] memory _voters, address _creator,\r... */\n    tag_7:\n      tag_34\n      0x04\n      dup1\n      calldatasize\n      sub\n      dup2\n      add\n      swap1\n      tag_35\n      swap2\n      swap1\n      tag_36\n      jump\t// in\n    tag_35:\n      tag_37\n      jump\t// in\n    tag_34:\n      stop\n        /* \"Qvoting.sol\":3270:4519  function responseProposal(uint _proposalId, address _voter, string[] memory _hash, uint[] memory v) external {\r... */\n    tag_8:\n      tag_38\n      0x04\n      dup1\n      calldatasize\n      sub\n      dup2\n      add\n      swap1\n      tag_39\n      swap2\n      swap1\n      tag_40\n      jump\t// in\n    tag_39:\n      tag_41\n      jump\t// in\n    tag_38:\n      stop\n        /* \"Qvoting.sol\":5610:6037  function burnOwner(uint _proposalId, address _voter) external returns(bool){\r... */\n    tag_9:\n      tag_42\n      0x04\n      dup1\n      calldatasize\n      sub\n      dup2\n      add\n      swap1\n      tag_43\n      swap2\n      swap1\n      tag_44\n      jump\t// in\n    tag_43:\n      tag_45\n      jump\t// in\n    tag_42:\n      mload(0x40)\n      tag_46\n      swap2\n      swap1\n      tag_47\n      jump\t// in\n    tag_46:\n      mload(0x40)\n      dup1\n      swap2\n      sub\n      swap1\n      return\n        /* \"QvToken/ERC20.sol\":3493:3620  function balanceOf(address account) public view virtual override returns (uint256) {\r... */\n    tag_10:\n      tag_48\n      0x04\n      dup1\n      calldatasize\n      sub\n      dup2\n      add\n      swap1\n      tag_49\n      swap2\n      swap1\n      tag_50\n      jump\t// in\n    tag_49:\n      tag_51\n      jump\t// in\n    tag_48:\n      mload(0x40)\n      tag_52\n      swap2\n      swap1\n      tag_29\n      jump\t// in\n    tag_52:\n      mload(0x40)\n      dup1\n      swap2\n      sub\n      swap1\n      return\n        /* \"QvToken/ERC20.sol\":2421:2525  function symbol() public view virtual override returns (string memory) {\r... */\n    tag_11:\n      tag_53\n      tag_54\n      jump\t// in\n    tag_53:\n      mload(0x40)\n      tag_55\n      swap2\n      swap1\n      tag_25\n      jump\t// in\n    tag_55:\n      mload(0x40)\n      dup1\n      swap2\n      sub\n      swap1\n      return\n        /* \"Qvoting.sol\":4611:4965  function resultOfProposal(uint _proposalId) public view returns(uint, string memory){\r... */\n    tag_12:\n      tag_56\n      0x04\n      dup1\n      calldatasize\n      sub\n      dup2\n      add\n      swap1\n      tag_57\n      swap2\n      swap1\n      tag_18\n      jump\t// in\n    tag_57:\n      tag_58\n      jump\t// in\n    tag_56:\n      mload(0x40)\n      tag_59\n      swap3\n      swap2\n      swap1\n      tag_60\n      jump\t// in\n    tag_59:\n      mload(0x40)\n      dup1\n      swap2\n      sub\n      swap1\n      return\n        /* \"Qvoting.sol\":1400:1472  mapping(address => mapping(uint => voterLibrary.voter)) public allVoters */\n    tag_13:\n      tag_61\n      0x04\n      dup1\n      calldatasize\n      sub\n      dup2\n      add\n      swap1\n      tag_62\n      swap2\n      swap1\n      tag_63\n      jump\t// in\n    tag_62:\n      tag_64\n      jump\t// in\n    tag_61:\n      mload(0x40)\n      tag_65\n      swap5\n      swap4\n      swap3\n      swap2\n      swap1\n      tag_66\n      jump\t// in\n    tag_65:\n      mload(0x40)\n      dup1\n      swap2\n      sub\n      swap1\n      return\n        /* \"Qvoting.sol\":1201:1273  mapping(address => UserProposalLibrary.UserProposal) public userProposal */\n    tag_14:\n      tag_67\n      0x04\n      dup1\n      calldatasize\n      sub\n      dup2\n      add\n      swap1\n      tag_68\n      swap2\n      swap1\n      tag_50\n      jump\t// in\n    tag_68:\n      tag_69\n      jump\t// in\n    tag_67:\n      mload(0x40)\n      tag_70\n      swap3\n      swap2\n      swap1\n      tag_71\n      jump\t// in\n    tag_70:\n      mload(0x40)\n      dup1\n      swap2\n      sub\n      swap1\n      return\n        /* \"Qvoting.sol\":1304:1362  mapping(uint => proposalLibrary.proposal) public proposals */\n    tag_19:\n      mstore(0x20, 0x07)\n      dup1\n      0x00\n      mstore\n      keccak256(0x00, 0x40)\n      0x00\n      swap2\n      pop\n      swap1\n      pop\n      dup1\n      0x00\n      add\n      0x00\n      swap1\n      sload\n      swap1\n      0x0100\n      exp\n      swap1\n      div\n      0xffffffffffffffffffffffffffffffffffffffff\n      and\n      swap1\n      dup1\n      0x00\n      add\n      0x14\n      swap1\n      sload\n      swap1\n      0x0100\n      exp\n      swap1\n      div\n      0xff\n      and\n      swap1\n      dup1\n      0x01\n      add\n      dup1\n      sload\n      tag_72\n      swap1\n      tag_73\n      jump\t// in\n    tag_72:\n      dup1\n      0x1f\n      add\n      0x20\n      dup1\n      swap2\n      div\n      mul\n      0x20\n      add\n      mload(0x40)\n      swap1\n      dup2\n      add\n      0x40\n      mstore\n      dup1\n      swap3\n      swap2\n      swap1\n      dup2\n      dup2\n      mstore\n      0x20\n      add\n      dup3\n      dup1\n      sload\n      tag_74\n      swap1\n      tag_73\n      jump\t// in\n    tag_74:\n      dup1\n      iszero\n      tag_75\n      jumpi\n      dup1\n      0x1f\n      lt\n      tag_76\n      jumpi\n      0x0100\n      dup1\n      dup4\n      sload\n      div\n      mul\n      dup4\n      mstore\n      swap2\n      0x20\n      add\n      swap2\n      jump(tag_75)\n    tag_76:\n      dup3\n      add\n      swap2\n      swap1\n      0x00\n      mstore\n      keccak256(0x00, 0x20)\n      swap1\n    tag_77:\n      dup2\n      sload\n      dup2\n      mstore\n      swap1\n      0x01\n      add\n      swap1\n      0x20\n      add\n      dup1\n      dup4\n      gt\n      tag_77\n      jumpi\n      dup3\n      swap1\n      sub\n      0x1f\n      and\n      dup3\n      add\n      swap2\n    tag_75:\n      pop\n      pop\n      pop\n      pop\n      pop\n      swap1\n      dup1\n      0x02\n      add\n      sload\n      swap1\n      dup1\n      0x03\n      add\n      sload\n      swap1\n      dup1\n      0x04\n      add\n      0x00\n      swap1\n      sload\n      swap1\n      0x0100\n      exp\n      swap1\n      div\n      0xffff\n      and\n      swap1\n      dup1\n      0x05\n      add\n      sload\n      swap1\n      pop\n      dup8\n      jump\t// out\n        /* \"QvToken/ERC20.sol\":2202:2302  function name() public view virtual override returns (string memory) {\r... */\n    tag_23:\n        /* \"QvToken/ERC20.sol\":2256:2269  string memory */\n      0x60\n        /* \"QvToken/ERC20.sol\":2289:2294  _name */\n      0x02\n        /* \"QvToken/ERC20.sol\":2282:2294  return _name */\n      dup1\n      sload\n      tag_79\n      swap1\n      tag_73\n      jump\t// in\n    tag_79:\n      dup1\n      0x1f\n      add\n      0x20\n      dup1\n      swap2\n      div\n      mul\n      0x20\n      add\n      mload(0x40)\n      swap1\n      dup2\n      add\n      0x40\n      mstore\n      dup1\n      swap3\n      swap2\n      swap1\n      dup2\n      dup2\n      mstore\n      0x20\n      add\n      dup3\n      dup1\n      sload\n      tag_80\n      swap1\n      tag_73\n      jump\t// in\n    tag_80:\n      dup1\n      iszero\n      tag_81\n      jumpi\n      dup1\n      0x1f\n      lt\n      tag_82\n      jumpi\n      0x0100\n      dup1\n      dup4\n      sload\n      div\n      mul\n      dup4\n      mstore\n      swap2\n      0x20\n      add\n      swap2\n      jump(tag_81)\n    tag_82:\n      dup3\n      add\n      swap2\n      swap1\n      0x00\n      mstore\n      keccak256(0x00, 0x20)\n      swap1\n    tag_83:\n      dup2\n      sload\n      dup2\n      mstore\n      swap1\n      0x01\n      add\n      swap1\n      0x20\n      add\n      dup1\n      dup4\n      gt\n      tag_83\n      jumpi\n      dup3\n      swap1\n      sub\n      0x1f\n      and\n      dup3\n      add\n      swap2\n    tag_81:\n      pop\n      pop\n      pop\n      pop\n      pop\n      swap1\n      pop\n        /* \"QvToken/ERC20.sol\":2202:2302  function name() public view virtual override returns (string memory) {\r... */\n      swap1\n      jump\t// out\n        /* \"QvToken/ERC20.sol\":3322:3430  function totalSupply() public view virtual override returns (uint256) {\r... */\n    tag_27:\n        /* \"QvToken/ERC20.sol\":3383:3390  uint256 */\n      0x00\n        /* \"QvToken/ERC20.sol\":3410:3422  _totalSupply */\n      sload(0x01)\n        /* \"QvToken/ERC20.sol\":3403:3422  return _totalSupply */\n      swap1\n      pop\n        /* \"QvToken/ERC20.sol\":3322:3430  function totalSupply() public view virtual override returns (uint256) {\r... */\n      swap1\n      jump\t// out\n        /* \"QvToken/ERC20.sol\":3164:3257  function decimals() public view virtual override returns (uint8) {\r... */\n    tag_31:\n        /* \"QvToken/ERC20.sol\":3222:3227  uint8 */\n      0x00\n        /* \"QvToken/ERC20.sol\":3247:3249  18 */\n      0x12\n        /* \"QvToken/ERC20.sol\":3240:3249  return 18 */\n      swap1\n      pop\n        /* \"QvToken/ERC20.sol\":3164:3257  function decimals() public view virtual override returns (uint8) {\r... */\n      swap1\n      jump\t// out\n        /* \"Qvoting.sol\":1965:3262  function createProposal(uint8 _status, address[] memory _voters, address _creator,\r... */\n    tag_37:\n        /* \"Qvoting.sol\":2339:2349  _startTime */\n      dup6\n        /* \"Qvoting.sol\":2321:2336  block.timestamp */\n      timestamp\n        /* \"Qvoting.sol\":2321:2349  block.timestamp < _startTime */\n      lt\n        /* \"Qvoting.sol\":2313:2373  require(block.timestamp < _startTime,\"proposal not started\") */\n      tag_87\n      jumpi\n      mload(0x40)\n      0x08c379a000000000000000000000000000000000000000000000000000000000\n      dup2\n      mstore\n      0x04\n      add\n      tag_88\n      swap1\n      tag_89\n      jump\t// in\n    tag_88:\n      mload(0x40)\n      dup1\n      swap2\n      sub\n      swap1\n      revert\n    tag_87:\n        /* \"Qvoting.sol\":2410:2425  _expirationTime */\n      dup5\n        /* \"Qvoting.sol\":2392:2407  block.timestamp */\n      timestamp\n        /* \"Qvoting.sol\":2392:2425  block.timestamp < _expirationTime */\n      lt\n        /* \"Qvoting.sol\":2384:2473  require(block.timestamp < _expirationTime,\"End time should be greater than current time\") */\n      tag_90\n      jumpi\n      mload(0x40)\n      0x08c379a000000000000000000000000000000000000000000000000000000000\n      dup2\n      mstore\n      0x04\n      add\n      tag_91\n      swap1\n      tag_92\n      jump\t// in\n    tag_91:\n      mload(0x40)\n      dup1\n      swap2\n      sub\n      swap1\n      revert\n    tag_90:\n        /* \"Qvoting.sol\":2505:2520  _expirationTime */\n      dup5\n        /* \"Qvoting.sol\":2492:2502  _startTime */\n      dup7\n        /* \"Qvoting.sol\":2492:2520  _startTime < _expirationTime */\n      lt\n        /* \"Qvoting.sol\":2484:2566  require(_startTime < _expirationTime,\"End time should be greater than start time\") */\n      tag_93\n      jumpi\n      mload(0x40)\n      0x08c379a000000000000000000000000000000000000000000000000000000000\n      dup2\n      mstore\n      0x04\n      add\n      tag_94\n      swap1\n      tag_95\n      jump\t// in\n    tag_94:\n      mload(0x40)\n      dup1\n      swap2\n      sub\n      swap1\n      revert\n    tag_93:\n        /* \"Qvoting.sol\":2579:2589  proposalId */\n      0x05\n      0x00\n        /* \"Qvoting.sol\":2579:2591  proposalId++ */\n      dup2\n      sload\n      dup1\n      swap3\n      swap2\n      swap1\n      tag_96\n      swap1\n      tag_97\n      jump\t// in\n    tag_96:\n      swap2\n      swap1\n      pop\n      sstore\n      pop\n        /* \"Qvoting.sol\":2602:2714  proposals[proposalId].createProposal(_status,_voters,_creator,_startTime,_expirationTime,_disc,_voteRight,_cand) */\n      tag_98\n        /* \"Qvoting.sol\":2639:2646  _status */\n      dup10\n        /* \"Qvoting.sol\":2647:2654  _voters */\n      dup10\n        /* \"Qvoting.sol\":2655:2663  _creator */\n      dup10\n        /* \"Qvoting.sol\":2664:2674  _startTime */\n      dup10\n        /* \"Qvoting.sol\":2675:2690  _expirationTime */\n      dup10\n        /* \"Qvoting.sol\":2691:2696  _disc */\n      dup10\n        /* \"Qvoting.sol\":2697:2707  _voteRight */\n      dup8\n        /* \"Qvoting.sol\":2708:2713  _cand */\n      dup11\n      dup11\n        /* \"Qvoting.sol\":2602:2611  proposals */\n      0x07\n        /* \"Qvoting.sol\":2602:2623  proposals[proposalId] */\n      0x00\n        /* \"Qvoting.sol\":2612:2622  proposalId */\n      sload(0x05)\n        /* \"Qvoting.sol\":2602:2623  proposals[proposalId] */\n      dup2\n      mstore\n      0x20\n      add\n      swap1\n      dup2\n      mstore\n      0x20\n      add\n      0x00\n      keccak256\n        /* \"Qvoting.sol\":2602:2638  proposals[proposalId].createProposal */\n      tag_99\n      swap1\n        /* \"Qvoting.sol\":2602:2714  proposals[proposalId].createProposal(_status,_voters,_creator,_startTime,_expirationTime,_disc,_voteRight,_cand) */\n      swap10\n      swap9\n      swap8\n      swap7\n      swap6\n      swap5\n      swap4\n      swap3\n      swap2\n      swap1\n      0xffffffff\n      and\n      jump\t// in\n    tag_98:\n      pop\n        /* \"Qvoting.sol\":2730:2814  ProposalCreated(proposalId, _voters,_creator,_startTime,_expirationTime,_disc,_cand) */\n      0x239a8a71a7d1cb0d134f6cc072ad6390e36a88c8e78dff69013ee79528441e80\n        /* \"Qvoting.sol\":2746:2756  proposalId */\n      sload(0x05)\n        /* \"Qvoting.sol\":2758:2765  _voters */\n      dup10\n        /* \"Qvoting.sol\":2766:2774  _creator */\n      dup10\n        /* \"Qvoting.sol\":2775:2785  _startTime */\n      dup10\n        /* \"Qvoting.sol\":2786:2801  _expirationTime */\n      dup10\n        /* \"Qvoting.sol\":2802:2807  _disc */\n      dup10\n        /* \"Qvoting.sol\":2808:2813  _cand */\n      dup10\n      dup10\n        /* \"Qvoting.sol\":2730:2814  ProposalCreated(proposalId, _voters,_creator,_startTime,_expirationTime,_disc,_cand) */\n      mload(0x40)\n      tag_100\n      swap9\n      swap8\n      swap7\n      swap6\n      swap5\n      swap4\n      swap3\n      swap2\n      swap1\n      tag_101\n      jump\t// in\n    tag_100:\n      mload(0x40)\n      dup1\n      swap2\n      sub\n      swap1\n      log1\n        /* \"Qvoting.sol\":2854:2858  true */\n      0x01\n        /* \"Qvoting.sol\":2825:2839  validProposals */\n      0x09\n        /* \"Qvoting.sol\":2825:2851  validProposals[proposalId] */\n      0x00\n        /* \"Qvoting.sol\":2840:2850  proposalId */\n      sload(0x05)\n        /* \"Qvoting.sol\":2825:2851  validProposals[proposalId] */\n      dup2\n      mstore\n      0x20\n      add\n      swap1\n      dup2\n      mstore\n      0x20\n      add\n      0x00\n      keccak256\n      0x00\n        /* \"Qvoting.sol\":2825:2858  validProposals[proposalId] = true */\n      0x0100\n      exp\n      dup2\n      sload\n      dup2\n      0xff\n      mul\n      not\n      and\n      swap1\n      dup4\n      iszero\n      iszero\n      mul\n      or\n      swap1\n      sstore\n      pop\n        /* \"Qvoting.sol\":2930:2939  uint256 i */\n      0x00\n        /* \"Qvoting.sol\":2926:3185  for(uint256 i=0;i<_voters.length;i++){\r... */\n    tag_102:\n        /* \"Qvoting.sol\":2944:2951  _voters */\n      dup9\n        /* \"Qvoting.sol\":2944:2958  _voters.length */\n      mload\n        /* \"Qvoting.sol\":2942:2943  i */\n      dup2\n        /* \"Qvoting.sol\":2942:2958  i<_voters.length */\n      lt\n        /* \"Qvoting.sol\":2926:3185  for(uint256 i=0;i<_voters.length;i++){\r... */\n      iszero\n      tag_103\n      jumpi\n        /* \"Qvoting.sol\":2978:3005  mint(_voters[i],_voteRight) */\n      tag_105\n        /* \"Qvoting.sol\":2983:2990  _voters */\n      dup10\n        /* \"Qvoting.sol\":2991:2992  i */\n      dup3\n        /* \"Qvoting.sol\":2983:2993  _voters[i] */\n      dup2\n      mload\n      dup2\n      lt\n      tag_106\n      jumpi\n      tag_107\n      tag_108\n      jump\t// in\n    tag_107:\n    tag_106:\n      0x20\n      mul\n      0x20\n      add\n      add\n      mload\n        /* \"Qvoting.sol\":2994:3004  _voteRight */\n      dup4\n        /* \"Qvoting.sol\":2978:2982  mint */\n      tag_109\n        /* \"Qvoting.sol\":2978:3005  mint(_voters[i],_voteRight) */\n      jump\t// in\n    tag_105:\n        /* \"Qvoting.sol\":3020:3108  allVoters[_voters[i]][proposalId].createVoter(proposalId, _voters[i], false, _voteRight) */\n      tag_110\n        /* \"Qvoting.sol\":3066:3076  proposalId */\n      sload(0x05)\n        /* \"Qvoting.sol\":3078:3085  _voters */\n      dup11\n        /* \"Qvoting.sol\":3086:3087  i */\n      dup4\n        /* \"Qvoting.sol\":3078:3088  _voters[i] */\n      dup2\n      mload\n      dup2\n      lt\n      tag_111\n      jumpi\n      tag_112\n      tag_108\n      jump\t// in\n    tag_112:\n    tag_111:\n      0x20\n      mul\n      0x20\n      add\n      add\n      mload\n        /* \"Qvoting.sol\":3090:3095  false */\n      0x00\n        /* \"Qvoting.sol\":3097:3107  _voteRight */\n      dup6\n        /* \"Qvoting.sol\":3020:3029  allVoters */\n      0x08\n        /* \"Qvoting.sol\":3020:3041  allVoters[_voters[i]] */\n      0x00\n        /* \"Qvoting.sol\":3030:3037  _voters */\n      dup16\n        /* \"Qvoting.sol\":3038:3039  i */\n      dup9\n        /* \"Qvoting.sol\":3030:3040  _voters[i] */\n      dup2\n      mload\n      dup2\n      lt\n      tag_113\n      jumpi\n      tag_114\n      tag_108\n      jump\t// in\n    tag_114:\n    tag_113:\n      0x20\n      mul\n      0x20\n      add\n      add\n      mload\n        /* \"Qvoting.sol\":3020:3041  allVoters[_voters[i]] */\n      0xffffffffffffffffffffffffffffffffffffffff\n      and\n      0xffffffffffffffffffffffffffffffffffffffff\n      and\n      dup2\n      mstore\n      0x20\n      add\n      swap1\n      dup2\n      mstore\n      0x20\n      add\n      0x00\n      keccak256\n        /* \"Qvoting.sol\":3020:3053  allVoters[_voters[i]][proposalId] */\n      0x00\n        /* \"Qvoting.sol\":3042:3052  proposalId */\n      sload(0x05)\n        /* \"Qvoting.sol\":3020:3053  allVoters[_voters[i]][proposalId] */\n      dup2\n      mstore\n      0x20\n      add\n      swap1\n      dup2\n      mstore\n      0x20\n      add\n      0x00\n      keccak256\n        /* \"Qvoting.sol\":3020:3065  allVoters[_voters[i]][proposalId].createVoter */\n      tag_115\n      swap1\n        /* \"Qvoting.sol\":3020:3108  allVoters[_voters[i]][proposalId].createVoter(proposalId, _voters[i], false, _voteRight) */\n      swap5\n      swap4\n      swap3\n      swap2\n      swap1\n      0xffffffff\n      and\n      jump\t// in\n    tag_110:\n      pop\n        /* \"Qvoting.sol\":3128:3169  mintAndburn(\"mint\",_voters[i],_voteRight) */\n      0xabf5327be9f5825c40d58bda541dd07f09b62df3376bbd5ecdbaa8bd82a9d492\n        /* \"Qvoting.sol\":3147:3154  _voters */\n      dup10\n        /* \"Qvoting.sol\":3155:3156  i */\n      dup3\n        /* \"Qvoting.sol\":3147:3157  _voters[i] */\n      dup2\n      mload\n      dup2\n      lt\n      tag_116\n      jumpi\n      tag_117\n      tag_108\n      jump\t// in\n    tag_117:\n    tag_116:\n      0x20\n      mul\n      0x20\n      add\n      add\n      mload\n        /* \"Qvoting.sol\":3158:3168  _voteRight */\n      dup4\n        /* \"Qvoting.sol\":3128:3169  mintAndburn(\"mint\",_voters[i],_voteRight) */\n      mload(0x40)\n      tag_118\n      swap3\n      swap2\n      swap1\n      tag_119\n      jump\t// in\n    tag_118:\n      mload(0x40)\n      dup1\n      swap2\n      sub\n      swap1\n      log1\n        /* \"Qvoting.sol\":2959:2962  i++ */\n      dup1\n      dup1\n      tag_120\n      swap1\n      tag_97\n      jump\t// in\n    tag_120:\n      swap2\n      pop\n      pop\n        /* \"Qvoting.sol\":2926:3185  for(uint256 i=0;i<_voters.length;i++){\r... */\n      jump(tag_102)\n    tag_103:\n      pop\n        /* \"Qvoting.sol\":3197:3254  userProposal[_msgSender()].updateProposalList(proposalId) */\n      tag_121\n        /* \"Qvoting.sol\":3243:3253  proposalId */\n      sload(0x05)\n        /* \"Qvoting.sol\":3197:3209  userProposal */\n      0x06\n        /* \"Qvoting.sol\":3197:3223  userProposal[_msgSender()] */\n      0x00\n        /* \"Qvoting.sol\":3210:3222  _msgSender() */\n      tag_122\n        /* \"Qvoting.sol\":3210:3220  _msgSender */\n      tag_123\n        /* \"Qvoting.sol\":3210:3222  _msgSender() */\n      jump\t// in\n    tag_122:\n        /* \"Qvoting.sol\":3197:3223  userProposal[_msgSender()] */\n      0xffffffffffffffffffffffffffffffffffffffff\n      and\n      0xffffffffffffffffffffffffffffffffffffffff\n      and\n      dup2\n      mstore\n      0x20\n      add\n      swap1\n      dup2\n      mstore\n      0x20\n      add\n      0x00\n      keccak256\n        /* \"Qvoting.sol\":3197:3242  userProposal[_msgSender()].updateProposalList */\n      tag_124\n      swap1\n        /* \"Qvoting.sol\":3197:3254  userProposal[_msgSender()].updateProposalList(proposalId) */\n      swap2\n      swap1\n      0xffffffff\n      and\n      jump\t// in\n    tag_121:\n      pop\n        /* \"Qvoting.sol\":1965:3262  function createProposal(uint8 _status, address[] memory _voters, address _creator,\r... */\n      pop\n      pop\n      pop\n      pop\n      pop\n      pop\n      pop\n      pop\n      pop\n      jump\t// out\n        /* \"Qvoting.sol\":3270:4519  function responseProposal(uint _proposalId, address _voter, string[] memory _hash, uint[] memory v) external {\r... */\n    tag_41:\n        /* \"Qvoting.sol\":3493:3507  validProposals */\n      0x09\n        /* \"Qvoting.sol\":3493:3520  validProposals[_proposalId] */\n      0x00\n        /* \"Qvoting.sol\":3508:3519  _proposalId */\n      dup6\n        /* \"Qvoting.sol\":3493:3520  validProposals[_proposalId] */\n      dup2\n      mstore\n      0x20\n      add\n      swap1\n      dup2\n      mstore\n      0x20\n      add\n      0x00\n      keccak256\n      0x00\n      swap1\n      sload\n      swap1\n      0x0100\n      exp\n      swap1\n      div\n      0xff\n      and\n        /* \"Qvoting.sol\":3485:3542  require(validProposals[_proposalId],\"invalid proposalId\") */\n      tag_126\n      jumpi\n      mload(0x40)\n      0x08c379a000000000000000000000000000000000000000000000000000000000\n      dup2\n      mstore\n      0x04\n      add\n      tag_127\n      swap1\n      tag_128\n      jump\t// in\n    tag_127:\n      mload(0x40)\n      dup1\n      swap2\n      sub\n      swap1\n      revert\n    tag_126:\n        /* \"Qvoting.sol\":3606:3617  _proposalId */\n      dup4\n        /* \"Qvoting.sol\":3561:3570  allVoters */\n      0x08\n        /* \"Qvoting.sol\":3561:3578  allVoters[_voter] */\n      0x00\n        /* \"Qvoting.sol\":3571:3577  _voter */\n      dup6\n        /* \"Qvoting.sol\":3561:3578  allVoters[_voter] */\n      0xffffffffffffffffffffffffffffffffffffffff\n      and\n      0xffffffffffffffffffffffffffffffffffffffff\n      and\n      dup2\n      mstore\n      0x20\n      add\n      swap1\n      dup2\n      mstore\n      0x20\n      add\n      0x00\n      keccak256\n        /* \"Qvoting.sol\":3561:3591  allVoters[_voter][_proposalId] */\n      0x00\n        /* \"Qvoting.sol\":3579:3590  _proposalId */\n      dup7\n        /* \"Qvoting.sol\":3561:3591  allVoters[_voter][_proposalId] */\n      dup2\n      mstore\n      0x20\n      add\n      swap1\n      dup2\n      mstore\n      0x20\n      add\n      0x00\n      keccak256\n        /* \"Qvoting.sol\":3561:3602  allVoters[_voter][_proposalId].proposalId */\n      0x00\n      add\n      sload\n        /* \"Qvoting.sol\":3561:3617  allVoters[_voter][_proposalId].proposalId == _proposalId */\n      eq\n        /* \"Qvoting.sol\":3553:3657  require(allVoters[_voter][_proposalId].proposalId == _proposalId, \"not a valid voter for this proposal\") */\n      tag_129\n      jumpi\n      mload(0x40)\n      0x08c379a000000000000000000000000000000000000000000000000000000000\n      dup2\n      mstore\n      0x04\n      add\n      tag_130\n      swap1\n      tag_131\n      jump\t// in\n    tag_130:\n      mload(0x40)\n      dup1\n      swap2\n      sub\n      swap1\n      revert\n    tag_129:\n        /* \"Qvoting.sol\":3738:3747  allVoters */\n      0x08\n        /* \"Qvoting.sol\":3738:3755  allVoters[_voter] */\n      0x00\n        /* \"Qvoting.sol\":3748:3754  _voter */\n      dup5\n        /* \"Qvoting.sol\":3738:3755  allVoters[_voter] */\n      0xffffffffffffffffffffffffffffffffffffffff\n      and\n      0xffffffffffffffffffffffffffffffffffffffff\n      and\n      dup2\n      mstore\n      0x20\n      add\n      swap1\n      dup2\n      mstore\n      0x20\n      add\n      0x00\n      keccak256\n        /* \"Qvoting.sol\":3738:3768  allVoters[_voter][_proposalId] */\n      0x00\n        /* \"Qvoting.sol\":3756:3767  _proposalId */\n      dup6\n        /* \"Qvoting.sol\":3738:3768  allVoters[_voter][_proposalId] */\n      dup2\n      mstore\n      0x20\n      add\n      swap1\n      dup2\n      mstore\n      0x20\n      add\n      0x00\n      keccak256\n        /* \"Qvoting.sol\":3738:3777  allVoters[_voter][_proposalId].hasVoted */\n      0x01\n      add\n      0x14\n      swap1\n      sload\n      swap1\n      0x0100\n      exp\n      swap1\n      div\n      0xff\n      and\n        /* \"Qvoting.sol\":3737:3777  !allVoters[_voter][_proposalId].hasVoted */\n      iszero\n        /* \"Qvoting.sol\":3729:3795  require(!allVoters[_voter][_proposalId].hasVoted, \"already voted\") */\n      tag_132\n      jumpi\n      mload(0x40)\n      0x08c379a000000000000000000000000000000000000000000000000000000000\n      dup2\n      mstore\n      0x04\n      add\n      tag_133\n      swap1\n      tag_134\n      jump\t// in\n    tag_133:\n      mload(0x40)\n      dup1\n      swap2\n      sub\n      swap1\n      revert\n    tag_132:\n        /* \"Qvoting.sol\":3852:3857  _hash */\n      dup2\n        /* \"Qvoting.sol\":3852:3864  _hash.length */\n      mload\n        /* \"Qvoting.sol\":3814:3823  proposals */\n      0x07\n        /* \"Qvoting.sol\":3814:3836  proposals[_proposalId] */\n      0x00\n        /* \"Qvoting.sol\":3824:3835  _proposalId */\n      dup7\n        /* \"Qvoting.sol\":3814:3836  proposals[_proposalId] */\n      dup2\n      mstore\n      0x20\n      add\n      swap1\n      dup2\n      mstore\n      0x20\n      add\n      0x00\n      keccak256\n        /* \"Qvoting.sol\":3814:3849  proposals[_proposalId].numOfOptions */\n      0x04\n      add\n      0x00\n      swap1\n      sload\n      swap1\n      0x0100\n      exp\n      swap1\n      div\n      0xffff\n      and\n        /* \"Qvoting.sol\":3814:3864  proposals[_proposalId].numOfOptions ==_hash.length */\n      0xffff\n      and\n      eq\n        /* \"Qvoting.sol\":3806:3905  require(proposals[_proposalId].numOfOptions ==_hash.length, \"not a valid length of hash response!\") */\n      tag_135\n      jumpi\n      mload(0x40)\n      0x08c379a000000000000000000000000000000000000000000000000000000000\n      dup2\n      mstore\n      0x04\n      add\n      tag_136\n      swap1\n      tag_137\n      jump\t// in\n    tag_136:\n      mload(0x40)\n      dup1\n      swap2\n      sub\n      swap1\n      revert\n    tag_135:\n        /* \"Qvoting.sol\":3916:3924  uint sum */\n      0x00\n        /* \"Qvoting.sol\":3941:3947  uint i */\n      dup1\n        /* \"Qvoting.sol\":3937:4006  for(uint i=0;i<v.length;i++){\r... */\n    tag_138:\n        /* \"Qvoting.sol\":3952:3953  v */\n      dup3\n        /* \"Qvoting.sol\":3952:3960  v.length */\n      mload\n        /* \"Qvoting.sol\":3950:3951  i */\n      dup2\n        /* \"Qvoting.sol\":3950:3960  i<v.length */\n      lt\n        /* \"Qvoting.sol\":3937:4006  for(uint i=0;i<v.length;i++){\r... */\n      iszero\n      tag_139\n      jumpi\n        /* \"Qvoting.sol\":3990:3991  v */\n      dup3\n        /* \"Qvoting.sol\":3992:3993  i */\n      dup2\n        /* \"Qvoting.sol\":3990:3994  v[i] */\n      dup2\n      mload\n      dup2\n      lt\n      tag_141\n      jumpi\n      tag_142\n      tag_108\n      jump\t// in\n    tag_142:\n    tag_141:\n      0x20\n      mul\n      0x20\n      add\n      add\n      mload\n        /* \"Qvoting.sol\":3985:3986  v */\n      dup4\n        /* \"Qvoting.sol\":3987:3988  i */\n      dup3\n        /* \"Qvoting.sol\":3985:3989  v[i] */\n      dup2\n      mload\n      dup2\n      lt\n      tag_143\n      jumpi\n      tag_144\n      tag_108\n      jump\t// in\n    tag_144:\n    tag_143:\n      0x20\n      mul\n      0x20\n      add\n      add\n      mload\n        /* \"Qvoting.sol\":3985:3994  v[i]*v[i] */\n      tag_145\n      swap2\n      swap1\n      tag_146\n      jump\t// in\n    tag_145:\n        /* \"Qvoting.sol\":3980:3994  sum+=v[i]*v[i] */\n      dup3\n      tag_147\n      swap2\n      swap1\n      tag_148\n      jump\t// in\n    tag_147:\n      swap2\n      pop\n        /* \"Qvoting.sol\":3961:3964  i++ */\n      dup1\n      dup1\n      tag_149\n      swap1\n      tag_97\n      jump\t// in\n    tag_149:\n      swap2\n      pop\n      pop\n        /* \"Qvoting.sol\":3937:4006  for(uint i=0;i<v.length;i++){\r... */\n      jump(tag_138)\n    tag_139:\n      pop\n        /* \"Qvoting.sol\":4066:4069  sum */\n      dup1\n        /* \"Qvoting.sol\":4024:4033  allVoters */\n      0x08\n        /* \"Qvoting.sol\":4024:4041  allVoters[_voter] */\n      0x00\n        /* \"Qvoting.sol\":4034:4040  _voter */\n      dup7\n        /* \"Qvoting.sol\":4024:4041  allVoters[_voter] */\n      0xffffffffffffffffffffffffffffffffffffffff\n      and\n      0xffffffffffffffffffffffffffffffffffffffff\n      and\n      dup2\n      mstore\n      0x20\n      add\n      swap1\n      dup2\n      mstore\n      0x20\n      add\n      0x00\n      keccak256\n        /* \"Qvoting.sol\":4024:4054  allVoters[_voter][_proposalId] */\n      0x00\n        /* \"Qvoting.sol\":4042:4053  _proposalId */\n      dup8\n        /* \"Qvoting.sol\":4024:4054  allVoters[_voter][_proposalId] */\n      dup2\n      mstore\n      0x20\n      add\n      swap1\n      dup2\n      mstore\n      0x20\n      add\n      0x00\n      keccak256\n        /* \"Qvoting.sol\":4024:4062  allVoters[_voter][_proposalId].voteNum */\n      0x02\n      add\n      sload\n        /* \"Qvoting.sol\":4024:4069  allVoters[_voter][_proposalId].voteNum >= sum */\n      lt\n      iszero\n        /* \"Qvoting.sol\":4016:4109  require(allVoters[_voter][_proposalId].voteNum >= sum, \"not sufficient balance to cast vote\") */\n      tag_150\n      jumpi\n      mload(0x40)\n      0x08c379a000000000000000000000000000000000000000000000000000000000\n      dup2\n      mstore\n      0x04\n      add\n      tag_151\n      swap1\n      tag_152\n      jump\t// in\n    tag_151:\n      mload(0x40)\n      dup1\n      swap2\n      sub\n      swap1\n      revert\n    tag_150:\n        /* \"Qvoting.sol\":4122:4178  proposals[_proposalId].responseProposal(_voter,_hash, v) */\n      tag_153\n        /* \"Qvoting.sol\":4162:4168  _voter */\n      dup5\n        /* \"Qvoting.sol\":4169:4174  _hash */\n      dup5\n        /* \"Qvoting.sol\":4176:4177  v */\n      dup5\n        /* \"Qvoting.sol\":4122:4131  proposals */\n      0x07\n        /* \"Qvoting.sol\":4122:4144  proposals[_proposalId] */\n      0x00\n        /* \"Qvoting.sol\":4132:4143  _proposalId */\n      dup11\n        /* \"Qvoting.sol\":4122:4144  proposals[_proposalId] */\n      dup2\n      mstore\n      0x20\n      add\n      swap1\n      dup2\n      mstore\n      0x20\n      add\n      0x00\n      keccak256\n        /* \"Qvoting.sol\":4122:4161  proposals[_proposalId].responseProposal */\n      tag_154\n      swap1\n        /* \"Qvoting.sol\":4122:4178  proposals[_proposalId].responseProposal(_voter,_hash, v) */\n      swap4\n      swap3\n      swap2\n      swap1\n      0xffffffff\n      and\n      jump\t// in\n    tag_153:\n      pop\n        /* \"Qvoting.sol\":4189:4254  userProposal[_msgSender()].updateResponseList(_proposalId, _hash) */\n      tag_155\n        /* \"Qvoting.sol\":4235:4246  _proposalId */\n      dup6\n        /* \"Qvoting.sol\":4248:4253  _hash */\n      dup5\n        /* \"Qvoting.sol\":4189:4201  userProposal */\n      0x06\n        /* \"Qvoting.sol\":4189:4215  userProposal[_msgSender()] */\n      0x00\n        /* \"Qvoting.sol\":4202:4214  _msgSender() */\n      tag_156\n        /* \"Qvoting.sol\":4202:4212  _msgSender */\n      tag_123\n        /* \"Qvoting.sol\":4202:4214  _msgSender() */\n      jump\t// in\n    tag_156:\n        /* \"Qvoting.sol\":4189:4215  userProposal[_msgSender()] */\n      0xffffffffffffffffffffffffffffffffffffffff\n      and\n      0xffffffffffffffffffffffffffffffffffffffff\n      and\n      dup2\n      mstore\n      0x20\n      add\n      swap1\n      dup2\n      mstore\n      0x20\n      add\n      0x00\n      keccak256\n        /* \"Qvoting.sol\":4189:4234  userProposal[_msgSender()].updateResponseList */\n      tag_157\n      swap1\n        /* \"Qvoting.sol\":4189:4254  userProposal[_msgSender()].updateResponseList(_proposalId, _hash) */\n      swap3\n      swap2\n      swap1\n      0xffffffff\n      and\n      jump\t// in\n    tag_155:\n      pop\n        /* \"Qvoting.sol\":4267:4313  allVoters[_voter][_proposalId].updateVoteNum() */\n      tag_158\n        /* \"Qvoting.sol\":4267:4276  allVoters */\n      0x08\n        /* \"Qvoting.sol\":4267:4284  allVoters[_voter] */\n      0x00\n        /* \"Qvoting.sol\":4277:4283  _voter */\n      dup7\n        /* \"Qvoting.sol\":4267:4284  allVoters[_voter] */\n      0xffffffffffffffffffffffffffffffffffffffff\n      and\n      0xffffffffffffffffffffffffffffffffffffffff\n      and\n      dup2\n      mstore\n      0x20\n      add\n      swap1\n      dup2\n      mstore\n      0x20\n      add\n      0x00\n      keccak256\n        /* \"Qvoting.sol\":4267:4297  allVoters[_voter][_proposalId] */\n      0x00\n        /* \"Qvoting.sol\":4285:4296  _proposalId */\n      dup8\n        /* \"Qvoting.sol\":4267:4297  allVoters[_voter][_proposalId] */\n      dup2\n      mstore\n      0x20\n      add\n      swap1\n      dup2\n      mstore\n      0x20\n      add\n      0x00\n      keccak256\n        /* \"Qvoting.sol\":4267:4311  allVoters[_voter][_proposalId].updateVoteNum */\n      tag_159\n        /* \"Qvoting.sol\":4267:4313  allVoters[_voter][_proposalId].updateVoteNum() */\n      jump\t// in\n    tag_158:\n      pop\n        /* \"Qvoting.sol\":4366:4370  true */\n      0x01\n        /* \"Qvoting.sol\":4324:4333  allVoters */\n      0x08\n        /* \"Qvoting.sol\":4324:4341  allVoters[_voter] */\n      0x00\n        /* \"Qvoting.sol\":4334:4340  _voter */\n      dup7\n        /* \"Qvoting.sol\":4324:4341  allVoters[_voter] */\n      0xffffffffffffffffffffffffffffffffffffffff\n      and\n      0xffffffffffffffffffffffffffffffffffffffff\n      and\n      dup2\n      mstore\n      0x20\n      add\n      swap1\n      dup2\n      mstore\n      0x20\n      add\n      0x00\n      keccak256\n        /* \"Qvoting.sol\":4324:4354  allVoters[_voter][_proposalId] */\n      0x00\n        /* \"Qvoting.sol\":4342:4353  _proposalId */\n      dup8\n        /* \"Qvoting.sol\":4324:4354  allVoters[_voter][_proposalId] */\n      dup2\n      mstore\n      0x20\n      add\n      swap1\n      dup2\n      mstore\n      0x20\n      add\n      0x00\n      keccak256\n        /* \"Qvoting.sol\":4324:4363  allVoters[_voter][_proposalId].hasVoted */\n      0x01\n      add\n      0x14\n        /* \"Qvoting.sol\":4324:4370  allVoters[_voter][_proposalId].hasVoted = true */\n      0x0100\n      exp\n      dup2\n      sload\n      dup2\n      0xff\n      mul\n      not\n      and\n      swap1\n      dup4\n      iszero\n      iszero\n      mul\n      or\n      swap1\n      sstore\n      pop\n        /* \"Qvoting.sol\":4381:4425  burn(_voter,proposals[proposalId].voteRight) */\n      tag_160\n        /* \"Qvoting.sol\":4386:4392  _voter */\n      dup5\n        /* \"Qvoting.sol\":4393:4402  proposals */\n      0x07\n        /* \"Qvoting.sol\":4393:4414  proposals[proposalId] */\n      0x00\n        /* \"Qvoting.sol\":4403:4413  proposalId */\n      sload(0x05)\n        /* \"Qvoting.sol\":4393:4414  proposals[proposalId] */\n      dup2\n      mstore\n      0x20\n      add\n      swap1\n      dup2\n      mstore\n      0x20\n      add\n      0x00\n      keccak256\n        /* \"Qvoting.sol\":4393:4424  proposals[proposalId].voteRight */\n      0x05\n      add\n      sload\n        /* \"Qvoting.sol\":4381:4385  burn */\n      tag_161\n        /* \"Qvoting.sol\":4381:4425  burn(_voter,proposals[proposalId].voteRight) */\n      jump\t// in\n    tag_160:\n        /* \"Qvoting.sol\":4441:4501  mintAndburn(\"burn\", _voter, proposals[proposalId].voteRight) */\n      0xabf5327be9f5825c40d58bda541dd07f09b62df3376bbd5ecdbaa8bd82a9d492\n        /* \"Qvoting.sol\":4461:4467  _voter */\n      dup5\n        /* \"Qvoting.sol\":4469:4478  proposals */\n      0x07\n        /* \"Qvoting.sol\":4469:4490  proposals[proposalId] */\n      0x00\n        /* \"Qvoting.sol\":4479:4489  proposalId */\n      sload(0x05)\n        /* \"Qvoting.sol\":4469:4490  proposals[proposalId] */\n      dup2\n      mstore\n      0x20\n      add\n      swap1\n      dup2\n      mstore\n      0x20\n      add\n      0x00\n      keccak256\n        /* \"Qvoting.sol\":4469:4500  proposals[proposalId].voteRight */\n      0x05\n      add\n      sload\n        /* \"Qvoting.sol\":4441:4501  mintAndburn(\"burn\", _voter, proposals[proposalId].voteRight) */\n      mload(0x40)\n      tag_162\n      swap3\n      swap2\n      swap1\n      tag_163\n      jump\t// in\n    tag_162:\n      mload(0x40)\n      dup1\n      swap2\n      sub\n      swap1\n      log1\n        /* \"Qvoting.sol\":3379:4519  {\r... */\n      pop\n        /* \"Qvoting.sol\":3270:4519  function responseProposal(uint _proposalId, address _voter, string[] memory _hash, uint[] memory v) external {\r... */\n      pop\n      pop\n      pop\n      pop\n      jump\t// out\n        /* \"Qvoting.sol\":5610:6037  function burnOwner(uint _proposalId, address _voter) external returns(bool){\r... */\n    tag_45:\n        /* \"Qvoting.sol\":5680:5684  bool */\n      0x00\n        /* \"Qvoting.sol\":5704:5713  allVoters */\n      0x08\n        /* \"Qvoting.sol\":5704:5721  allVoters[_voter] */\n      0x00\n        /* \"Qvoting.sol\":5714:5720  _voter */\n      dup4\n        /* \"Qvoting.sol\":5704:5721  allVoters[_voter] */\n      0xffffffffffffffffffffffffffffffffffffffff\n      and\n      0xffffffffffffffffffffffffffffffffffffffff\n      and\n      dup2\n      mstore\n      0x20\n      add\n      swap1\n      dup2\n      mstore\n      0x20\n      add\n      0x00\n      keccak256\n        /* \"Qvoting.sol\":5704:5734  allVoters[_voter][_proposalId] */\n      0x00\n        /* \"Qvoting.sol\":5722:5733  _proposalId */\n      dup5\n        /* \"Qvoting.sol\":5704:5734  allVoters[_voter][_proposalId] */\n      dup2\n      mstore\n      0x20\n      add\n      swap1\n      dup2\n      mstore\n      0x20\n      add\n      0x00\n      keccak256\n        /* \"Qvoting.sol\":5704:5743  allVoters[_voter][_proposalId].hasVoted */\n      0x01\n      add\n      0x14\n      swap1\n      sload\n      swap1\n      0x0100\n      exp\n      swap1\n      div\n      0xff\n      and\n        /* \"Qvoting.sol\":5696:5761  require(allVoters[_voter][_proposalId].hasVoted, \"not voted yet\") */\n      tag_165\n      jumpi\n      mload(0x40)\n      0x08c379a000000000000000000000000000000000000000000000000000000000\n      dup2\n      mstore\n      0x04\n      add\n      tag_166\n      swap1\n      tag_167\n      jump\t// in\n    tag_166:\n      mload(0x40)\n      dup1\n      swap2\n      sub\n      swap1\n      revert\n    tag_165:\n        /* \"Qvoting.sol\":5825:5836  _proposalId */\n      dup3\n        /* \"Qvoting.sol\":5780:5789  allVoters */\n      0x08\n        /* \"Qvoting.sol\":5780:5797  allVoters[_voter] */\n      0x00\n        /* \"Qvoting.sol\":5790:5796  _voter */\n      dup5\n        /* \"Qvoting.sol\":5780:5797  allVoters[_voter] */\n      0xffffffffffffffffffffffffffffffffffffffff\n      and\n      0xffffffffffffffffffffffffffffffffffffffff\n      and\n      dup2\n      mstore\n      0x20\n      add\n      swap1\n      dup2\n      mstore\n      0x20\n      add\n      0x00\n      keccak256\n        /* \"Qvoting.sol\":5780:5810  allVoters[_voter][_proposalId] */\n      0x00\n        /* \"Qvoting.sol\":5798:5809  _proposalId */\n      dup6\n        /* \"Qvoting.sol\":5780:5810  allVoters[_voter][_proposalId] */\n      dup2\n      mstore\n      0x20\n      add\n      swap1\n      dup2\n      mstore\n      0x20\n      add\n      0x00\n      keccak256\n        /* \"Qvoting.sol\":5780:5821  allVoters[_voter][_proposalId].proposalId */\n      0x00\n      add\n      sload\n        /* \"Qvoting.sol\":5780:5836  allVoters[_voter][_proposalId].proposalId == _proposalId */\n      eq\n        /* \"Qvoting.sol\":5772:5876  require(allVoters[_voter][_proposalId].proposalId == _proposalId, \"not a valid voter for this proposal\") */\n      tag_168\n      jumpi\n      mload(0x40)\n      0x08c379a000000000000000000000000000000000000000000000000000000000\n      dup2\n      mstore\n      0x04\n      add\n      tag_169\n      swap1\n      tag_131\n      jump\t// in\n    tag_169:\n      mload(0x40)\n      dup1\n      swap2\n      sub\n      swap1\n      revert\n    tag_168:\n        /* \"Qvoting.sol\":5887:5931  burn(_voter,proposals[proposalId].voteRight) */\n      tag_170\n        /* \"Qvoting.sol\":5892:5898  _voter */\n      dup3\n        /* \"Qvoting.sol\":5899:5908  proposals */\n      0x07\n        /* \"Qvoting.sol\":5899:5920  proposals[proposalId] */\n      0x00\n        /* \"Qvoting.sol\":5909:5919  proposalId */\n      sload(0x05)\n        /* \"Qvoting.sol\":5899:5920  proposals[proposalId] */\n      dup2\n      mstore\n      0x20\n      add\n      swap1\n      dup2\n      mstore\n      0x20\n      add\n      0x00\n      keccak256\n        /* \"Qvoting.sol\":5899:5930  proposals[proposalId].voteRight */\n      0x05\n      add\n      sload\n        /* \"Qvoting.sol\":5887:5891  burn */\n      tag_161\n        /* \"Qvoting.sol\":5887:5931  burn(_voter,proposals[proposalId].voteRight) */\n      jump\t// in\n    tag_170:\n        /* \"Qvoting.sol\":5947:6007  mintAndburn(\"burn\", _voter, proposals[proposalId].voteRight) */\n      0xabf5327be9f5825c40d58bda541dd07f09b62df3376bbd5ecdbaa8bd82a9d492\n        /* \"Qvoting.sol\":5967:5973  _voter */\n      dup3\n        /* \"Qvoting.sol\":5975:5984  proposals */\n      0x07\n        /* \"Qvoting.sol\":5975:5996  proposals[proposalId] */\n      0x00\n        /* \"Qvoting.sol\":5985:5995  proposalId */\n      sload(0x05)\n        /* \"Qvoting.sol\":5975:5996  proposals[proposalId] */\n      dup2\n      mstore\n      0x20\n      add\n      swap1\n      dup2\n      mstore\n      0x20\n      add\n      0x00\n      keccak256\n        /* \"Qvoting.sol\":5975:6006  proposals[proposalId].voteRight */\n      0x05\n      add\n      sload\n        /* \"Qvoting.sol\":5947:6007  mintAndburn(\"burn\", _voter, proposals[proposalId].voteRight) */\n      mload(0x40)\n      tag_171\n      swap3\n      swap2\n      swap1\n      tag_163\n      jump\t// in\n    tag_171:\n      mload(0x40)\n      dup1\n      swap2\n      sub\n      swap1\n      log1\n        /* \"Qvoting.sol\":6025:6029  true */\n      0x01\n        /* \"Qvoting.sol\":6018:6029  return true */\n      swap1\n      pop\n        /* \"Qvoting.sol\":5610:6037  function burnOwner(uint _proposalId, address _voter) external returns(bool){\r... */\n      swap3\n      swap2\n      pop\n      pop\n      jump\t// out\n        /* \"QvToken/ERC20.sol\":3493:3620  function balanceOf(address account) public view virtual override returns (uint256) {\r... */\n    tag_51:\n        /* \"QvToken/ERC20.sol\":3567:3574  uint256 */\n      0x00\n        /* \"QvToken/ERC20.sol\":3594:3603  _balances */\n      dup1\n        /* \"QvToken/ERC20.sol\":3594:3612  _balances[account] */\n      0x00\n        /* \"QvToken/ERC20.sol\":3604:3611  account */\n      dup4\n        /* \"QvToken/ERC20.sol\":3594:3612  _balances[account] */\n      0xffffffffffffffffffffffffffffffffffffffff\n      and\n      0xffffffffffffffffffffffffffffffffffffffff\n      and\n      dup2\n      mstore\n      0x20\n      add\n      swap1\n      dup2\n      mstore\n      0x20\n      add\n      0x00\n      keccak256\n      sload\n        /* \"QvToken/ERC20.sol\":3587:3612  return _balances[account] */\n      swap1\n      pop\n        /* \"QvToken/ERC20.sol\":3493:3620  function balanceOf(address account) public view virtual override returns (uint256) {\r... */\n      swap2\n      swap1\n      pop\n      jump\t// out\n        /* \"QvToken/ERC20.sol\":2421:2525  function symbol() public view virtual override returns (string memory) {\r... */\n    tag_54:\n        /* \"QvToken/ERC20.sol\":2477:2490  string memory */\n      0x60\n        /* \"QvToken/ERC20.sol\":2510:2517  _symbol */\n      0x03\n        /* \"QvToken/ERC20.sol\":2503:2517  return _symbol */\n      dup1\n      sload\n      tag_174\n      swap1\n      tag_73\n      jump\t// in\n    tag_174:\n      dup1\n      0x1f\n      add\n      0x20\n      dup1\n      swap2\n      div\n      mul\n      0x20\n      add\n      mload(0x40)\n      swap1\n      dup2\n      add\n      0x40\n      mstore\n      dup1\n      swap3\n      swap2\n      swap1\n      dup2\n      dup2\n      mstore\n      0x20\n      add\n      dup3\n      dup1\n      sload\n      tag_175\n      swap1\n      tag_73\n      jump\t// in\n    tag_175:\n      dup1\n      iszero\n      tag_176\n      jumpi\n      dup1\n      0x1f\n      lt\n      tag_177\n      jumpi\n      0x0100\n      dup1\n      dup4\n      sload\n      div\n      mul\n      dup4\n      mstore\n      swap2\n      0x20\n      add\n      swap2\n      jump(tag_176)\n    tag_177:\n      dup3\n      add\n      swap2\n      swap1\n      0x00\n      mstore\n      keccak256(0x00, 0x20)\n      swap1\n    tag_178:\n      dup2\n      sload\n      dup2\n      mstore\n      swap1\n      0x01\n      add\n      swap1\n      0x20\n      add\n      dup1\n      dup4\n      gt\n      tag_178\n      jumpi\n      dup3\n      swap1\n      sub\n      0x1f\n      and\n      dup3\n      add\n      swap2\n    tag_176:\n      pop\n      pop\n      pop\n      pop\n      pop\n      swap1\n      pop\n        /* \"QvToken/ERC20.sol\":2421:2525  function symbol() public view virtual override returns (string memory) {\r... */\n      swap1\n      jump\t// out\n        /* \"Qvoting.sol\":4611:4965  function resultOfProposal(uint _proposalId) public view returns(uint, string memory){\r... */\n    tag_58:\n        /* \"Qvoting.sol\":4675:4679  uint */\n      0x00\n        /* \"Qvoting.sol\":4681:4694  string memory */\n      0x60\n        /* \"Qvoting.sol\":4714:4728  validProposals */\n      0x09\n        /* \"Qvoting.sol\":4714:4741  validProposals[_proposalId] */\n      0x00\n        /* \"Qvoting.sol\":4729:4740  _proposalId */\n      dup5\n        /* \"Qvoting.sol\":4714:4741  validProposals[_proposalId] */\n      dup2\n      mstore\n      0x20\n      add\n      swap1\n      dup2\n      mstore\n      0x20\n      add\n      0x00\n      keccak256\n      0x00\n      swap1\n      sload\n      swap1\n      0x0100\n      exp\n      swap1\n      div\n      0xff\n      and\n        /* \"Qvoting.sol\":4706:4765  require(validProposals[_proposalId],\"not a valid proposal\") */\n      tag_180\n      jumpi\n      mload(0x40)\n      0x08c379a000000000000000000000000000000000000000000000000000000000\n      dup2\n      mstore\n      0x04\n      add\n      tag_181\n      swap1\n      tag_182\n      jump\t// in\n    tag_181:\n      mload(0x40)\n      dup1\n      swap2\n      sub\n      swap1\n      revert\n    tag_180:\n        /* \"Qvoting.sol\":4859:4868  proposals */\n      0x07\n        /* \"Qvoting.sol\":4859:4881  proposals[_proposalId] */\n      0x00\n        /* \"Qvoting.sol\":4869:4880  _proposalId */\n      dup5\n        /* \"Qvoting.sol\":4859:4881  proposals[_proposalId] */\n      dup2\n      mstore\n      0x20\n      add\n      swap1\n      dup2\n      mstore\n      0x20\n      add\n      0x00\n      keccak256\n        /* \"Qvoting.sol\":4859:4887  proposals[_proposalId].votes */\n      0x0a\n      add\n        /* \"Qvoting.sol\":4888:4897  proposals */\n      0x07\n        /* \"Qvoting.sol\":4888:4910  proposals[_proposalId] */\n      0x00\n        /* \"Qvoting.sol\":4898:4909  _proposalId */\n      dup6\n        /* \"Qvoting.sol\":4888:4910  proposals[_proposalId] */\n      dup2\n      mstore\n      0x20\n      add\n      swap1\n      dup2\n      mstore\n      0x20\n      add\n      0x00\n      keccak256\n        /* \"Qvoting.sol\":4888:4917  proposals[_proposalId].result */\n      0x09\n      add\n        /* \"Qvoting.sol\":4888:4920  proposals[_proposalId].result[1] */\n      0x00\n        /* \"Qvoting.sol\":4918:4919  1 */\n      0x01\n        /* \"Qvoting.sol\":4888:4920  proposals[_proposalId].result[1] */\n      dup2\n      mstore\n      0x20\n      add\n      swap1\n      dup2\n      mstore\n      0x20\n      add\n      0x00\n      keccak256\n        /* \"Qvoting.sol\":4859:4921  proposals[_proposalId].votes[proposals[_proposalId].result[1]] */\n      mload(0x40)\n      tag_183\n      swap2\n      swap1\n      tag_184\n      jump\t// in\n    tag_183:\n      swap1\n      dup2\n      mstore\n      0x20\n      add\n      mload(0x40)\n      dup1\n      swap2\n      sub\n      swap1\n      keccak256\n      sload\n        /* \"Qvoting.sol\":4922:4931  proposals */\n      0x07\n        /* \"Qvoting.sol\":4922:4944  proposals[_proposalId] */\n      0x00\n        /* \"Qvoting.sol\":4932:4943  _proposalId */\n      dup6\n        /* \"Qvoting.sol\":4922:4944  proposals[_proposalId] */\n      dup2\n      mstore\n      0x20\n      add\n      swap1\n      dup2\n      mstore\n      0x20\n      add\n      0x00\n      keccak256\n        /* \"Qvoting.sol\":4922:4951  proposals[_proposalId].result */\n      0x09\n      add\n        /* \"Qvoting.sol\":4922:4954  proposals[_proposalId].result[1] */\n      0x00\n        /* \"Qvoting.sol\":4952:4953  1 */\n      0x01\n        /* \"Qvoting.sol\":4922:4954  proposals[_proposalId].result[1] */\n      dup2\n      mstore\n      0x20\n      add\n      swap1\n      dup2\n      mstore\n      0x20\n      add\n      0x00\n      keccak256\n        /* \"Qvoting.sol\":4851:4955  return (proposals[_proposalId].votes[proposals[_proposalId].result[1]],proposals[_proposalId].result[1]) */\n      dup1\n      dup1\n      sload\n      tag_185\n      swap1\n      tag_73\n      jump\t// in\n    tag_185:\n      dup1\n      0x1f\n      add\n      0x20\n      dup1\n      swap2\n      div\n      mul\n      0x20\n      add\n      mload(0x40)\n      swap1\n      dup2\n      add\n      0x40\n      mstore\n      dup1\n      swap3\n      swap2\n      swap1\n      dup2\n      dup2\n      mstore\n      0x20\n      add\n      dup3\n      dup1\n      sload\n      tag_186\n      swap1\n      tag_73\n      jump\t// in\n    tag_186:\n      dup1\n      iszero\n      tag_187\n      jumpi\n      dup1\n      0x1f\n      lt\n      tag_188\n      jumpi\n      0x0100\n      dup1\n      dup4\n      sload\n      div\n      mul\n      dup4\n      mstore\n      swap2\n      0x20\n      add\n      swap2\n      jump(tag_187)\n    tag_188:\n      dup3\n      add\n      swap2\n      swap1\n      0x00\n      mstore\n      keccak256(0x00, 0x20)\n      swap1\n    tag_189:\n      dup2\n      sload\n      dup2\n      mstore\n      swap1\n      0x01\n      add\n      swap1\n      0x20\n      add\n      dup1\n      dup4\n      gt\n      tag_189\n      jumpi\n      dup3\n      swap1\n      sub\n      0x1f\n      and\n      dup3\n      add\n      swap2\n    tag_187:\n      pop\n      pop\n      pop\n      pop\n      pop\n      swap1\n      pop\n      swap2\n      pop\n      swap2\n      pop\n        /* \"Qvoting.sol\":4611:4965  function resultOfProposal(uint _proposalId) public view returns(uint, string memory){\r... */\n      swap2\n      pop\n      swap2\n      jump\t// out\n        /* \"Qvoting.sol\":1400:1472  mapping(address => mapping(uint => voterLibrary.voter)) public allVoters */\n    tag_64:\n      mstore(0x20, 0x08)\n      dup2\n      0x00\n      mstore\n      mstore(0x20, keccak256(0x00, 0x40))\n      dup1\n      0x00\n      mstore\n      keccak256(0x00, 0x40)\n      0x00\n      swap2\n      pop\n      swap2\n      pop\n      pop\n      dup1\n      0x00\n      add\n      sload\n      swap1\n      dup1\n      0x01\n      add\n      0x00\n      swap1\n      sload\n      swap1\n      0x0100\n      exp\n      swap1\n      div\n      0xffffffffffffffffffffffffffffffffffffffff\n      and\n      swap1\n      dup1\n      0x01\n      add\n      0x14\n      swap1\n      sload\n      swap1\n      0x0100\n      exp\n      swap1\n      div\n      0xff\n      and\n      swap1\n      dup1\n      0x02\n      add\n      sload\n      swap1\n      pop\n      dup5\n      jump\t// out\n        /* \"Qvoting.sol\":1201:1273  mapping(address => UserProposalLibrary.UserProposal) public userProposal */\n    tag_69:\n      mstore(0x20, 0x06)\n      dup1\n      0x00\n      mstore\n      keccak256(0x00, 0x40)\n      0x00\n      swap2\n      pop\n      swap1\n      pop\n      dup1\n      0x00\n      add\n      0x00\n      swap1\n      sload\n      swap1\n      0x0100\n      exp\n      swap1\n      div\n      0xffffffffffffffffffffffffffffffff\n      and\n      swap1\n      dup1\n      0x00\n      add\n      0x10\n      swap1\n      sload\n      swap1\n      0x0100\n      exp\n      swap1\n      div\n      0xffffffffffffffffffffffffffffffff\n      and\n      swap1\n      pop\n      dup3\n      jump\t// out\n        /* \"Library/ProposalLibrary.sol\":806:1983  function createProposal(proposal storage self, uint8 _status, address[] memory _voters, address _creator,\r... */\n    tag_99:\n        /* \"Library/ProposalLibrary.sol\":1044:1048  bool */\n      0x00\n        /* \"Library/ProposalLibrary.sol\":1099:1107  _creator */\n      dup8\n        /* \"Library/ProposalLibrary.sol\":1084:1088  self */\n      dup12\n        /* \"Library/ProposalLibrary.sol\":1084:1096  self.creator */\n      0x00\n      add\n      0x00\n        /* \"Library/ProposalLibrary.sol\":1084:1107  self.creator = _creator */\n      0x0100\n      exp\n      dup2\n      sload\n      dup2\n      0xffffffffffffffffffffffffffffffffffffffff\n      mul\n      not\n      and\n      swap1\n      dup4\n      0xffffffffffffffffffffffffffffffffffffffff\n      and\n      mul\n      or\n      swap1\n      sstore\n      pop\n        /* \"Library/ProposalLibrary.sol\":1156:1163  _status */\n      dup10\n        /* \"Library/ProposalLibrary.sol\":1142:1146  self */\n      dup12\n        /* \"Library/ProposalLibrary.sol\":1142:1153  self.status */\n      0x00\n      add\n      0x14\n        /* \"Library/ProposalLibrary.sol\":1142:1163  self.status = _status */\n      0x0100\n      exp\n      dup2\n      sload\n      dup2\n      0xff\n      mul\n      not\n      and\n      swap1\n      dup4\n      0xff\n      and\n      mul\n      or\n      swap1\n      sstore\n      pop\n        /* \"Library/ProposalLibrary.sol\":1210:1215  _disc */\n      dup5\n        /* \"Library/ProposalLibrary.sol\":1198:1202  self */\n      dup12\n        /* \"Library/ProposalLibrary.sol\":1198:1207  self.disc */\n      0x01\n      add\n        /* \"Library/ProposalLibrary.sol\":1198:1215  self.disc = _disc */\n      swap1\n      dup1\n      mload\n      swap1\n      0x20\n      add\n      swap1\n      tag_191\n      swap3\n      swap2\n      swap1\n      tag_192\n      jump\t// in\n    tag_191:\n      pop\n        /* \"Library/ProposalLibrary.sol\":1267:1277  _startTime */\n      dup7\n        /* \"Library/ProposalLibrary.sol\":1250:1254  self */\n      dup12\n        /* \"Library/ProposalLibrary.sol\":1250:1264  self.startTime */\n      0x02\n      add\n        /* \"Library/ProposalLibrary.sol\":1250:1277  self.startTime = _startTime */\n      dup2\n      swap1\n      sstore\n      pop\n        /* \"Library/ProposalLibrary.sol\":1334:1349  _expirationTime */\n      dup6\n        /* \"Library/ProposalLibrary.sol\":1312:1316  self */\n      dup12\n        /* \"Library/ProposalLibrary.sol\":1312:1331  self.expirationTime */\n      0x03\n      add\n        /* \"Library/ProposalLibrary.sol\":1312:1349  self.expirationTime = _expirationTime */\n      dup2\n      swap1\n      sstore\n      pop\n        /* \"Library/ProposalLibrary.sol\":1411:1416  _cand */\n      dup3\n      dup3\n        /* \"Library/ProposalLibrary.sol\":1411:1423  _cand.length */\n      swap1\n      pop\n        /* \"Library/ProposalLibrary.sol\":1384:1388  self */\n      dup12\n        /* \"Library/ProposalLibrary.sol\":1384:1401  self.numOfOptions */\n      0x04\n      add\n      0x00\n        /* \"Library/ProposalLibrary.sol\":1384:1424  self.numOfOptions = uint16(_cand.length) */\n      0x0100\n      exp\n      dup2\n      sload\n      dup2\n      0xffff\n      mul\n      not\n      and\n      swap1\n      dup4\n      0xffff\n      and\n      mul\n      or\n      swap1\n      sstore\n      pop\n        /* \"Library/ProposalLibrary.sol\":1476:1486  _voteRight */\n      dup4\n        /* \"Library/ProposalLibrary.sol\":1459:1463  self */\n      dup12\n        /* \"Library/ProposalLibrary.sol\":1459:1473  self.voteRight */\n      0x05\n      add\n        /* \"Library/ProposalLibrary.sol\":1459:1486  self.voteRight = _voteRight */\n      dup2\n      swap1\n      sstore\n      pop\n        /* \"Library/ProposalLibrary.sol\":1525:1534  uint256 i */\n      0x00\n        /* \"Library/ProposalLibrary.sol\":1521:1726  for(uint256 i=0;i<_cand.length;i++){\r... */\n    tag_193:\n        /* \"Library/ProposalLibrary.sol\":1539:1544  _cand */\n      dup4\n      dup4\n        /* \"Library/ProposalLibrary.sol\":1539:1551  _cand.length */\n      swap1\n      pop\n        /* \"Library/ProposalLibrary.sol\":1537:1538  i */\n      dup2\n        /* \"Library/ProposalLibrary.sol\":1537:1551  i<_cand.length */\n      lt\n        /* \"Library/ProposalLibrary.sol\":1521:1726  for(uint256 i=0;i<_cand.length;i++){\r... */\n      iszero\n      tag_194\n      jumpi\n        /* \"Library/ProposalLibrary.sol\":1617:1621  true */\n      0x01\n        /* \"Library/ProposalLibrary.sol\":1595:1599  self */\n      dup13\n        /* \"Library/ProposalLibrary.sol\":1595:1604  self.cand */\n      0x07\n      add\n        /* \"Library/ProposalLibrary.sol\":1605:1610  _cand */\n      dup6\n      dup6\n        /* \"Library/ProposalLibrary.sol\":1611:1612  i */\n      dup5\n        /* \"Library/ProposalLibrary.sol\":1605:1613  _cand[i] */\n      dup2\n      dup2\n      lt\n      tag_196\n      jumpi\n      tag_197\n      tag_108\n      jump\t// in\n    tag_197:\n    tag_196:\n      swap1\n      pop\n      0x20\n      mul\n      dup2\n      add\n      swap1\n      tag_198\n      swap2\n      swap1\n      tag_199\n      jump\t// in\n    tag_198:\n        /* \"Library/ProposalLibrary.sol\":1595:1614  self.cand[_cand[i]] */\n      mload(0x40)\n      tag_200\n      swap3\n      swap2\n      swap1\n      tag_201\n      jump\t// in\n    tag_200:\n      swap1\n      dup2\n      mstore\n      0x20\n      add\n      mload(0x40)\n      dup1\n      swap2\n      sub\n      swap1\n      keccak256\n      0x00\n        /* \"Library/ProposalLibrary.sol\":1595:1621  self.cand[_cand[i]] = true */\n      0x0100\n      exp\n      dup2\n      sload\n      dup2\n      0xff\n      mul\n      not\n      and\n      swap1\n      dup4\n      iszero\n      iszero\n      mul\n      or\n      swap1\n      sstore\n      pop\n        /* \"Library/ProposalLibrary.sol\":1682:1687  _cand */\n      dup4\n      dup4\n        /* \"Library/ProposalLibrary.sol\":1688:1689  i */\n      dup3\n        /* \"Library/ProposalLibrary.sol\":1682:1690  _cand[i] */\n      dup2\n      dup2\n      lt\n      tag_202\n      jumpi\n      tag_203\n      tag_108\n      jump\t// in\n    tag_203:\n    tag_202:\n      swap1\n      pop\n      0x20\n      mul\n      dup2\n      add\n      swap1\n      tag_204\n      swap2\n      swap1\n      tag_199\n      jump\t// in\n    tag_204:\n        /* \"Library/ProposalLibrary.sol\":1660:1664  self */\n      dup14\n        /* \"Library/ProposalLibrary.sol\":1660:1673  self.candHash */\n      0x08\n      add\n        /* \"Library/ProposalLibrary.sol\":1660:1678  self.candHash[i+1] */\n      0x00\n        /* \"Library/ProposalLibrary.sol\":1676:1677  1 */\n      0x01\n        /* \"Library/ProposalLibrary.sol\":1674:1675  i */\n      dup6\n        /* \"Library/ProposalLibrary.sol\":1674:1677  i+1 */\n      tag_205\n      swap2\n      swap1\n      tag_148\n      jump\t// in\n    tag_205:\n        /* \"Library/ProposalLibrary.sol\":1660:1678  self.candHash[i+1] */\n      dup2\n      mstore\n      0x20\n      add\n      swap1\n      dup2\n      mstore\n      0x20\n      add\n      0x00\n      keccak256\n        /* \"Library/ProposalLibrary.sol\":1660:1690  self.candHash[i+1] =  _cand[i] */\n      swap2\n      swap1\n      tag_206\n      swap3\n      swap2\n      swap1\n      tag_207\n      jump\t// in\n    tag_206:\n      pop\n        /* \"Library/ProposalLibrary.sol\":1552:1555  i++ */\n      dup1\n      dup1\n      tag_208\n      swap1\n      tag_97\n      jump\t// in\n    tag_208:\n      swap2\n      pop\n      pop\n        /* \"Library/ProposalLibrary.sol\":1521:1726  for(uint256 i=0;i<_cand.length;i++){\r... */\n      jump(tag_193)\n    tag_194:\n      pop\n        /* \"Library/ProposalLibrary.sol\":1764:1773  uint256 i */\n      0x00\n        /* \"Library/ProposalLibrary.sol\":1760:1902  for(uint256 i=0;i<_voters.length;i++){\r... */\n    tag_209:\n        /* \"Library/ProposalLibrary.sol\":1778:1785  _voters */\n      dup10\n        /* \"Library/ProposalLibrary.sol\":1778:1792  _voters.length */\n      mload\n        /* \"Library/ProposalLibrary.sol\":1776:1777  i */\n      dup2\n        /* \"Library/ProposalLibrary.sol\":1776:1792  i<_voters.length */\n      lt\n        /* \"Library/ProposalLibrary.sol\":1760:1902  for(uint256 i=0;i<_voters.length;i++){\r... */\n      iszero\n      tag_210\n      jumpi\n        /* \"Library/ProposalLibrary.sol\":1862:1866  true */\n      0x01\n        /* \"Library/ProposalLibrary.sol\":1836:1840  self */\n      dup13\n        /* \"Library/ProposalLibrary.sol\":1836:1847  self.voters */\n      0x06\n      add\n        /* \"Library/ProposalLibrary.sol\":1836:1859  self.voters[_voters[i]] */\n      0x00\n        /* \"Library/ProposalLibrary.sol\":1848:1855  _voters */\n      dup13\n        /* \"Library/ProposalLibrary.sol\":1856:1857  i */\n      dup5\n        /* \"Library/ProposalLibrary.sol\":1848:1858  _voters[i] */\n      dup2\n      mload\n      dup2\n      lt\n      tag_212\n      jumpi\n      tag_213\n      tag_108\n      jump\t// in\n    tag_213:\n    tag_212:\n      0x20\n      mul\n      0x20\n      add\n      add\n      mload\n        /* \"Library/ProposalLibrary.sol\":1836:1859  self.voters[_voters[i]] */\n      0xffffffffffffffffffffffffffffffffffffffff\n      and\n      0xffffffffffffffffffffffffffffffffffffffff\n      and\n      dup2\n      mstore\n      0x20\n      add\n      swap1\n      dup2\n      mstore\n      0x20\n      add\n      0x00\n      keccak256\n      0x00\n        /* \"Library/ProposalLibrary.sol\":1836:1866  self.voters[_voters[i]] = true */\n      0x0100\n      exp\n      dup2\n      sload\n      dup2\n      0xff\n      mul\n      not\n      and\n      swap1\n      dup4\n      iszero\n      iszero\n      mul\n      or\n      swap1\n      sstore\n      pop\n        /* \"Library/ProposalLibrary.sol\":1793:1796  i++ */\n      dup1\n      dup1\n      tag_214\n      swap1\n      tag_97\n      jump\t// in\n    tag_214:\n      swap2\n      pop\n      pop\n        /* \"Library/ProposalLibrary.sol\":1760:1902  for(uint256 i=0;i<_voters.length;i++){\r... */\n      jump(tag_209)\n    tag_210:\n      pop\n        /* \"Library/ProposalLibrary.sol\":1945:1949  true */\n      0x01\n        /* \"Library/ProposalLibrary.sol\":1938:1949  return true */\n      swap1\n      pop\n        /* \"Library/ProposalLibrary.sol\":806:1983  function createProposal(proposal storage self, uint8 _status, address[] memory _voters, address _creator,\r... */\n      swap11\n      swap10\n      pop\n      pop\n      pop\n      pop\n      pop\n      pop\n      pop\n      pop\n      pop\n      pop\n      jump\t// out\n        /* \"QvToken/QvToken.sol\":398:502  function mint(address to , uint amount) onlyOwner(_msgSender()) internal {\r... */\n    tag_109:\n        /* \"QvToken/QvToken.sol\":448:460  _msgSender() */\n      tag_215\n        /* \"QvToken/QvToken.sol\":448:458  _msgSender */\n      tag_123\n        /* \"QvToken/QvToken.sol\":448:460  _msgSender() */\n      jump\t// in\n    tag_215:\n        /* \"QvToken/QvToken.sol\":366:375  msgSender */\n      dup1\n        /* \"QvToken/QvToken.sol\":357:375  owner == msgSender */\n      0xffffffffffffffffffffffffffffffffffffffff\n      and\n        /* \"QvToken/QvToken.sol\":357:362  owner */\n      0x04\n      0x00\n      swap1\n      sload\n      swap1\n      0x0100\n      exp\n      swap1\n      div\n      0xffffffffffffffffffffffffffffffffffffffff\n      and\n        /* \"QvToken/QvToken.sol\":357:375  owner == msgSender */\n      0xffffffffffffffffffffffffffffffffffffffff\n      and\n      eq\n        /* \"QvToken/QvToken.sol\":349:376  require(owner == msgSender) */\n      tag_217\n      jumpi\n      0x00\n      dup1\n      revert\n    tag_217:\n        /* \"QvToken/QvToken.sol\":478:494  _mint(to,amount) */\n      tag_219\n        /* \"QvToken/QvToken.sol\":484:486  to */\n      dup4\n        /* \"QvToken/QvToken.sol\":487:493  amount */\n      dup4\n        /* \"QvToken/QvToken.sol\":478:483  _mint */\n      tag_220\n        /* \"QvToken/QvToken.sol\":478:494  _mint(to,amount) */\n      jump\t// in\n    tag_219:\n        /* \"QvToken/QvToken.sol\":398:502  function mint(address to , uint amount) onlyOwner(_msgSender()) internal {\r... */\n      pop\n      pop\n      pop\n      jump\t// out\n        /* \"Library/VoterLibrary.sol\":1090:1525  function createVoter(voter storage self, uint _proposalId, address _voterAddress, bool _hasVoted, uint _voteNum) internal returns(bool){\r... */\n    tag_115:\n        /* \"Library/VoterLibrary.sol\":1220:1224  bool */\n      0x00\n        /* \"Library/VoterLibrary.sol\":1278:1289  _proposalId */\n      dup5\n        /* \"Library/VoterLibrary.sol\":1260:1264  self */\n      dup7\n        /* \"Library/VoterLibrary.sol\":1260:1275  self.proposalId */\n      0x00\n      add\n        /* \"Library/VoterLibrary.sol\":1260:1289  self.proposalId = _proposalId */\n      dup2\n      swap1\n      sstore\n      pop\n        /* \"Library/VoterLibrary.sol\":1344:1357  _voterAddress */\n      dup4\n        /* \"Library/VoterLibrary.sol\":1324:1328  self */\n      dup7\n        /* \"Library/VoterLibrary.sol\":1324:1341  self.voterAddress */\n      0x01\n      add\n      0x00\n        /* \"Library/VoterLibrary.sol\":1324:1357  self.voterAddress = _voterAddress */\n      0x0100\n      exp\n      dup2\n      sload\n      dup2\n      0xffffffffffffffffffffffffffffffffffffffff\n      mul\n      not\n      and\n      swap1\n      dup4\n      0xffffffffffffffffffffffffffffffffffffffff\n      and\n      mul\n      or\n      swap1\n      sstore\n      pop\n        /* \"Library/VoterLibrary.sol\":1408:1417  _hasVoted */\n      dup3\n        /* \"Library/VoterLibrary.sol\":1392:1396  self */\n      dup7\n        /* \"Library/VoterLibrary.sol\":1392:1405  self.hasVoted */\n      0x01\n      add\n      0x14\n        /* \"Library/VoterLibrary.sol\":1392:1417  self.hasVoted = _hasVoted */\n      0x0100\n      exp\n      dup2\n      sload\n      dup2\n      0xff\n      mul\n      not\n      and\n      swap1\n      dup4\n      iszero\n      iszero\n      mul\n      or\n      swap1\n      sstore\n      pop\n        /* \"Library/VoterLibrary.sol\":1467:1475  _voteNum */\n      dup2\n        /* \"Library/VoterLibrary.sol\":1452:1456  self */\n      dup7\n        /* \"Library/VoterLibrary.sol\":1452:1464  self.voteNum */\n      0x02\n      add\n        /* \"Library/VoterLibrary.sol\":1452:1475  self.voteNum = _voteNum */\n      dup2\n      swap1\n      sstore\n      pop\n        /* \"Library/VoterLibrary.sol\":1517:1521  true */\n      0x01\n        /* \"Library/VoterLibrary.sol\":1510:1521  return true */\n      swap1\n      pop\n        /* \"Library/VoterLibrary.sol\":1090:1525  function createVoter(voter storage self, uint _proposalId, address _voterAddress, bool _hasVoted, uint _voteNum) internal returns(bool){\r... */\n      swap6\n      swap5\n      pop\n      pop\n      pop\n      pop\n      pop\n      jump\t// out\n        /* \"QvToken/Context.sol\":656:754  function _msgSender() internal view virtual returns (address) {\r... */\n    tag_123:\n        /* \"QvToken/Context.sol\":709:716  address */\n      0x00\n        /* \"QvToken/Context.sol\":736:746  msg.sender */\n      caller\n        /* \"QvToken/Context.sol\":729:746  return msg.sender */\n      swap1\n      pop\n        /* \"QvToken/Context.sol\":656:754  function _msgSender() internal view virtual returns (address) {\r... */\n      swap1\n      jump\t// out\n        /* \"Library/UserProposalLibrary.sol\":573:794  function updateProposalList(UserProposal storage self, uint _proposalId) internal returns(bool){\r... */\n    tag_124:\n        /* \"Library/UserProposalLibrary.sol\":663:667  bool */\n      0x00\n        /* \"Library/UserProposalLibrary.sol\":679:683  self */\n      dup3\n        /* \"Library/UserProposalLibrary.sol\":679:697  self.proposalCount */\n      0x00\n      add\n      0x00\n        /* \"Library/UserProposalLibrary.sol\":679:699  self.proposalCount++ */\n      dup2\n      dup2\n      swap1\n      sload\n      swap1\n      0x0100\n      exp\n      swap1\n      div\n      0xffffffffffffffffffffffffffffffff\n      and\n      dup1\n      swap3\n      swap2\n      swap1\n      tag_224\n      swap1\n      tag_225\n      jump\t// in\n    tag_224:\n      swap2\n      swap1\n      0x0100\n      exp\n      dup2\n      sload\n      dup2\n      0xffffffffffffffffffffffffffffffff\n      mul\n      not\n      and\n      swap1\n      dup4\n      0xffffffffffffffffffffffffffffffff\n      and\n      mul\n      or\n      swap1\n      sstore\n      pop\n      pop\n        /* \"Library/UserProposalLibrary.sol\":753:764  _proposalId */\n      dup2\n        /* \"Library/UserProposalLibrary.sol\":710:714  self */\n      dup4\n        /* \"Library/UserProposalLibrary.sol\":710:730  self.proposalCreated */\n      0x01\n      add\n        /* \"Library/UserProposalLibrary.sol\":710:750  self.proposalCreated[self.proposalCount] */\n      0x00\n        /* \"Library/UserProposalLibrary.sol\":731:735  self */\n      dup6\n        /* \"Library/UserProposalLibrary.sol\":731:749  self.proposalCount */\n      0x00\n      add\n      0x00\n      swap1\n      sload\n      swap1\n      0x0100\n      exp\n      swap1\n      div\n      0xffffffffffffffffffffffffffffffff\n      and\n        /* \"Library/UserProposalLibrary.sol\":710:750  self.proposalCreated[self.proposalCount] */\n      0xffffffffffffffffffffffffffffffff\n      and\n      0xffffffffffffffffffffffffffffffff\n      and\n      dup2\n      mstore\n      0x20\n      add\n      swap1\n      dup2\n      mstore\n      0x20\n      add\n      0x00\n      keccak256\n        /* \"Library/UserProposalLibrary.sol\":710:764  self.proposalCreated[self.proposalCount] = _proposalId */\n      dup2\n      swap1\n      sstore\n      pop\n        /* \"Library/UserProposalLibrary.sol\":782:786  true */\n      0x01\n        /* \"Library/UserProposalLibrary.sol\":775:786  return true */\n      swap1\n      pop\n        /* \"Library/UserProposalLibrary.sol\":573:794  function updateProposalList(UserProposal storage self, uint _proposalId) internal returns(bool){\r... */\n      swap3\n      swap2\n      pop\n      pop\n      jump\t// out\n        /* \"Library/ProposalLibrary.sol\":2018:3370  function responseProposal(proposal storage self, address _voter, string[] memory _hash, uint[] memory v) internal returns(bool){\r... */\n    tag_154:\n        /* \"Library/ProposalLibrary.sol\":2140:2144  bool */\n      0x00\n        /* \"Library/ProposalLibrary.sol\":2179:2180  2 */\n      0x02\n        /* \"Library/ProposalLibrary.sol\":2164:2168  self */\n      dup6\n        /* \"Library/ProposalLibrary.sol\":2164:2175  self.status */\n      0x00\n      add\n      0x14\n      swap1\n      sload\n      swap1\n      0x0100\n      exp\n      swap1\n      div\n      0xff\n      and\n        /* \"Library/ProposalLibrary.sol\":2164:2180  self.status == 2 */\n      0xff\n      and\n      eq\n        /* \"Library/ProposalLibrary.sol\":2156:2203  require(self.status == 2, \"Proposal: inactive\") */\n      tag_227\n      jumpi\n      mload(0x40)\n      0x08c379a000000000000000000000000000000000000000000000000000000000\n      dup2\n      mstore\n      0x04\n      add\n      tag_228\n      swap1\n      tag_229\n      jump\t// in\n    tag_228:\n      mload(0x40)\n      dup1\n      swap2\n      sub\n      swap1\n      revert\n    tag_227:\n        /* \"Library/ProposalLibrary.sol\":2235:2239  self */\n      dup5\n        /* \"Library/ProposalLibrary.sol\":2235:2254  self.expirationTime */\n      0x03\n      add\n      sload\n        /* \"Library/ProposalLibrary.sol\":2217:2232  block.timestamp */\n      timestamp\n        /* \"Library/ProposalLibrary.sol\":2217:2254  block.timestamp > self.expirationTime */\n      gt\n        /* \"Library/ProposalLibrary.sol\":2214:3069  if(block.timestamp > self.expirationTime){\r... */\n      iszero\n      tag_230\n      jumpi\n        /* \"Library/ProposalLibrary.sol\":2324:2325  2 */\n      0x02\n        /* \"Library/ProposalLibrary.sol\":2310:2314  self */\n      dup6\n        /* \"Library/ProposalLibrary.sol\":2310:2321  self.status */\n      0x00\n      add\n      0x14\n        /* \"Library/ProposalLibrary.sol\":2310:2325  self.status = 2 */\n      0x0100\n      exp\n      dup2\n      sload\n      dup2\n      0xff\n      mul\n      not\n      and\n      swap1\n      dup4\n      0xff\n      and\n      mul\n      or\n      swap1\n      sstore\n      pop\n        /* \"Library/ProposalLibrary.sol\":2340:2357  uint largestCount */\n      0x00\n        /* \"Library/ProposalLibrary.sol\":2360:2364  self */\n      dup6\n        /* \"Library/ProposalLibrary.sol\":2360:2370  self.votes */\n      0x0a\n      add\n        /* \"Library/ProposalLibrary.sol\":2371:2375  self */\n      dup7\n        /* \"Library/ProposalLibrary.sol\":2371:2384  self.candHash */\n      0x08\n      add\n        /* \"Library/ProposalLibrary.sol\":2371:2387  self.candHash[1] */\n      0x00\n        /* \"Library/ProposalLibrary.sol\":2385:2386  1 */\n      0x01\n        /* \"Library/ProposalLibrary.sol\":2371:2387  self.candHash[1] */\n      dup2\n      mstore\n      0x20\n      add\n      swap1\n      dup2\n      mstore\n      0x20\n      add\n      0x00\n      keccak256\n        /* \"Library/ProposalLibrary.sol\":2360:2388  self.votes[self.candHash[1]] */\n      mload(0x40)\n      tag_231\n      swap2\n      swap1\n      tag_184\n      jump\t// in\n    tag_231:\n      swap1\n      dup2\n      mstore\n      0x20\n      add\n      mload(0x40)\n      dup1\n      swap2\n      sub\n      swap1\n      keccak256\n      sload\n        /* \"Library/ProposalLibrary.sol\":2340:2388  uint largestCount = self.votes[self.candHash[1]] */\n      swap1\n      pop\n        /* \"Library/ProposalLibrary.sol\":2403:2419  uint winnerCount */\n      0x00\n        /* \"Library/ProposalLibrary.sol\":2422:2423  1 */\n      0x01\n        /* \"Library/ProposalLibrary.sol\":2403:2423  uint winnerCount = 1 */\n      swap1\n      pop\n        /* \"Library/ProposalLibrary.sol\":2455:2459  self */\n      dup7\n        /* \"Library/ProposalLibrary.sol\":2455:2468  self.candHash */\n      0x08\n      add\n        /* \"Library/ProposalLibrary.sol\":2455:2471  self.candHash[1] */\n      0x00\n        /* \"Library/ProposalLibrary.sol\":2469:2470  1 */\n      0x01\n        /* \"Library/ProposalLibrary.sol\":2455:2471  self.candHash[1] */\n      dup2\n      mstore\n      0x20\n      add\n      swap1\n      dup2\n      mstore\n      0x20\n      add\n      0x00\n      keccak256\n        /* \"Library/ProposalLibrary.sol\":2438:2442  self */\n      dup8\n        /* \"Library/ProposalLibrary.sol\":2438:2449  self.result */\n      0x09\n      add\n        /* \"Library/ProposalLibrary.sol\":2438:2452  self.result[1] */\n      0x00\n        /* \"Library/ProposalLibrary.sol\":2450:2451  1 */\n      0x01\n        /* \"Library/ProposalLibrary.sol\":2438:2452  self.result[1] */\n      dup2\n      mstore\n      0x20\n      add\n      swap1\n      dup2\n      mstore\n      0x20\n      add\n      0x00\n      keccak256\n        /* \"Library/ProposalLibrary.sol\":2438:2471  self.result[1] = self.candHash[1] */\n      swap1\n      dup1\n      sload\n      tag_232\n      swap1\n      tag_73\n      jump\t// in\n    tag_232:\n      tag_233\n      swap3\n      swap2\n      swap1\n      tag_234\n      jump\t// in\n    tag_233:\n      pop\n        /* \"Library/ProposalLibrary.sol\":2553:2561  uint16 i */\n      0x00\n        /* \"Library/ProposalLibrary.sol\":2564:2565  2 */\n      0x02\n        /* \"Library/ProposalLibrary.sol\":2553:2565  uint16 i = 2 */\n      swap1\n      pop\n        /* \"Library/ProposalLibrary.sol\":2549:3031  for(uint16 i = 2; i <= self.numOfOptions; i++){\r... */\n    tag_235:\n        /* \"Library/ProposalLibrary.sol\":2572:2576  self */\n      dup8\n        /* \"Library/ProposalLibrary.sol\":2572:2589  self.numOfOptions */\n      0x04\n      add\n      0x00\n      swap1\n      sload\n      swap1\n      0x0100\n      exp\n      swap1\n      div\n      0xffff\n      and\n        /* \"Library/ProposalLibrary.sol\":2567:2589  i <= self.numOfOptions */\n      0xffff\n      and\n        /* \"Library/ProposalLibrary.sol\":2567:2568  i */\n      dup2\n        /* \"Library/ProposalLibrary.sol\":2567:2589  i <= self.numOfOptions */\n      0xffff\n      and\n      gt\n        /* \"Library/ProposalLibrary.sol\":2549:3031  for(uint16 i = 2; i <= self.numOfOptions; i++){\r... */\n      tag_236\n      jumpi\n        /* \"Library/ProposalLibrary.sol\":2648:2660  largestCount */\n      dup3\n        /* \"Library/ProposalLibrary.sol\":2617:2621  self */\n      dup9\n        /* \"Library/ProposalLibrary.sol\":2617:2627  self.votes */\n      0x0a\n      add\n        /* \"Library/ProposalLibrary.sol\":2628:2632  self */\n      dup10\n        /* \"Library/ProposalLibrary.sol\":2628:2641  self.candHash */\n      0x08\n      add\n        /* \"Library/ProposalLibrary.sol\":2628:2644  self.candHash[i] */\n      0x00\n        /* \"Library/ProposalLibrary.sol\":2642:2643  i */\n      dup5\n        /* \"Library/ProposalLibrary.sol\":2628:2644  self.candHash[i] */\n      0xffff\n      and\n      dup2\n      mstore\n      0x20\n      add\n      swap1\n      dup2\n      mstore\n      0x20\n      add\n      0x00\n      keccak256\n        /* \"Library/ProposalLibrary.sol\":2617:2645  self.votes[self.candHash[i]] */\n      mload(0x40)\n      tag_238\n      swap2\n      swap1\n      tag_184\n      jump\t// in\n    tag_238:\n      swap1\n      dup2\n      mstore\n      0x20\n      add\n      mload(0x40)\n      dup1\n      swap2\n      sub\n      swap1\n      keccak256\n      sload\n        /* \"Library/ProposalLibrary.sol\":2617:2660  self.votes[self.candHash[i]] > largestCount */\n      gt\n        /* \"Library/ProposalLibrary.sol\":2614:3016  if(self.votes[self.candHash[i]] > largestCount){\r... */\n      iszero\n      tag_239\n      jumpi\n        /* \"Library/ProposalLibrary.sol\":2699:2703  self */\n      dup8\n        /* \"Library/ProposalLibrary.sol\":2699:2709  self.votes */\n      0x0a\n      add\n        /* \"Library/ProposalLibrary.sol\":2710:2714  self */\n      dup9\n        /* \"Library/ProposalLibrary.sol\":2710:2723  self.candHash */\n      0x08\n      add\n        /* \"Library/ProposalLibrary.sol\":2710:2726  self.candHash[i] */\n      0x00\n        /* \"Library/ProposalLibrary.sol\":2724:2725  i */\n      dup4\n        /* \"Library/ProposalLibrary.sol\":2710:2726  self.candHash[i] */\n      0xffff\n      and\n      dup2\n      mstore\n      0x20\n      add\n      swap1\n      dup2\n      mstore\n      0x20\n      add\n      0x00\n      keccak256\n        /* \"Library/ProposalLibrary.sol\":2699:2727  self.votes[self.candHash[i]] */\n      mload(0x40)\n      tag_240\n      swap2\n      swap1\n      tag_184\n      jump\t// in\n    tag_240:\n      swap1\n      dup2\n      mstore\n      0x20\n      add\n      mload(0x40)\n      dup1\n      swap2\n      sub\n      swap1\n      keccak256\n      sload\n        /* \"Library/ProposalLibrary.sol\":2684:2727  largestCount = self.votes[self.candHash[i]] */\n      swap3\n      pop\n        /* \"Library/ProposalLibrary.sol\":2764:2765  1 */\n      0x01\n        /* \"Library/ProposalLibrary.sol\":2750:2765  winnerCount = 1 */\n      swap2\n      pop\n        /* \"Library/ProposalLibrary.sol\":2805:2809  self */\n      dup8\n        /* \"Library/ProposalLibrary.sol\":2805:2818  self.candHash */\n      0x08\n      add\n        /* \"Library/ProposalLibrary.sol\":2805:2821  self.candHash[i] */\n      0x00\n        /* \"Library/ProposalLibrary.sol\":2819:2820  i */\n      dup3\n        /* \"Library/ProposalLibrary.sol\":2805:2821  self.candHash[i] */\n      0xffff\n      and\n      dup2\n      mstore\n      0x20\n      add\n      swap1\n      dup2\n      mstore\n      0x20\n      add\n      0x00\n      keccak256\n        /* \"Library/ProposalLibrary.sol\":2788:2792  self */\n      dup9\n        /* \"Library/ProposalLibrary.sol\":2788:2799  self.result */\n      0x09\n      add\n        /* \"Library/ProposalLibrary.sol\":2788:2802  self.result[1] */\n      0x00\n        /* \"Library/ProposalLibrary.sol\":2800:2801  1 */\n      0x01\n        /* \"Library/ProposalLibrary.sol\":2788:2802  self.result[1] */\n      dup2\n      mstore\n      0x20\n      add\n      swap1\n      dup2\n      mstore\n      0x20\n      add\n      0x00\n      keccak256\n        /* \"Library/ProposalLibrary.sol\":2788:2821  self.result[1] = self.candHash[i] */\n      swap1\n      dup1\n      sload\n      tag_241\n      swap1\n      tag_73\n      jump\t// in\n    tag_241:\n      tag_242\n      swap3\n      swap2\n      swap1\n      tag_234\n      jump\t// in\n    tag_242:\n      pop\n        /* \"Library/ProposalLibrary.sol\":2614:3016  if(self.votes[self.candHash[i]] > largestCount){\r... */\n      jump(tag_243)\n    tag_239:\n        /* \"Library/ProposalLibrary.sol\":2881:2893  largestCount */\n      dup3\n        /* \"Library/ProposalLibrary.sol\":2849:2853  self */\n      dup9\n        /* \"Library/ProposalLibrary.sol\":2849:2859  self.votes */\n      0x0a\n      add\n        /* \"Library/ProposalLibrary.sol\":2860:2864  self */\n      dup10\n        /* \"Library/ProposalLibrary.sol\":2860:2873  self.candHash */\n      0x08\n      add\n        /* \"Library/ProposalLibrary.sol\":2860:2876  self.candHash[i] */\n      0x00\n        /* \"Library/ProposalLibrary.sol\":2874:2875  i */\n      dup5\n        /* \"Library/ProposalLibrary.sol\":2860:2876  self.candHash[i] */\n      0xffff\n      and\n      dup2\n      mstore\n      0x20\n      add\n      swap1\n      dup2\n      mstore\n      0x20\n      add\n      0x00\n      keccak256\n        /* \"Library/ProposalLibrary.sol\":2849:2877  self.votes[self.candHash[i]] */\n      mload(0x40)\n      tag_244\n      swap2\n      swap1\n      tag_184\n      jump\t// in\n    tag_244:\n      swap1\n      dup2\n      mstore\n      0x20\n      add\n      mload(0x40)\n      dup1\n      swap2\n      sub\n      swap1\n      keccak256\n      sload\n        /* \"Library/ProposalLibrary.sol\":2849:2893  self.votes[self.candHash[i]] == largestCount */\n      eq\n        /* \"Library/ProposalLibrary.sol\":2846:3016  if(self.votes[self.candHash[i]] == largestCount){\r... */\n      iszero\n      tag_245\n      jumpi\n        /* \"Library/ProposalLibrary.sol\":2917:2930  winnerCount++ */\n      dup2\n      dup1\n      tag_246\n      swap1\n      tag_97\n      jump\t// in\n    tag_246:\n      swap3\n      pop\n      pop\n        /* \"Library/ProposalLibrary.sol\":2980:2984  self */\n      dup8\n        /* \"Library/ProposalLibrary.sol\":2980:2993  self.candHash */\n      0x08\n      add\n        /* \"Library/ProposalLibrary.sol\":2980:2996  self.candHash[i] */\n      0x00\n        /* \"Library/ProposalLibrary.sol\":2994:2995  i */\n      dup3\n        /* \"Library/ProposalLibrary.sol\":2980:2996  self.candHash[i] */\n      0xffff\n      and\n      dup2\n      mstore\n      0x20\n      add\n      swap1\n      dup2\n      mstore\n      0x20\n      add\n      0x00\n      keccak256\n        /* \"Library/ProposalLibrary.sol\":2953:2957  self */\n      dup9\n        /* \"Library/ProposalLibrary.sol\":2953:2964  self.result */\n      0x09\n      add\n        /* \"Library/ProposalLibrary.sol\":2953:2977  self.result[winnerCount] */\n      0x00\n        /* \"Library/ProposalLibrary.sol\":2965:2976  winnerCount */\n      dup5\n        /* \"Library/ProposalLibrary.sol\":2953:2977  self.result[winnerCount] */\n      dup2\n      mstore\n      0x20\n      add\n      swap1\n      dup2\n      mstore\n      0x20\n      add\n      0x00\n      keccak256\n        /* \"Library/ProposalLibrary.sol\":2953:2996  self.result[winnerCount] = self.candHash[i] */\n      swap1\n      dup1\n      sload\n      tag_247\n      swap1\n      tag_73\n      jump\t// in\n    tag_247:\n      tag_248\n      swap3\n      swap2\n      swap1\n      tag_234\n      jump\t// in\n    tag_248:\n      pop\n        /* \"Library/ProposalLibrary.sol\":2846:3016  if(self.votes[self.candHash[i]] == largestCount){\r... */\n    tag_245:\n        /* \"Library/ProposalLibrary.sol\":2614:3016  if(self.votes[self.candHash[i]] > largestCount){\r... */\n    tag_243:\n        /* \"Library/ProposalLibrary.sol\":2591:2594  i++ */\n      dup1\n      dup1\n      tag_249\n      swap1\n      tag_250\n      jump\t// in\n    tag_249:\n      swap2\n      pop\n      pop\n        /* \"Library/ProposalLibrary.sol\":2549:3031  for(uint16 i = 2; i <= self.numOfOptions; i++){\r... */\n      jump(tag_235)\n    tag_236:\n      pop\n        /* \"Library/ProposalLibrary.sol\":3052:3057  false */\n      0x00\n        /* \"Library/ProposalLibrary.sol\":3045:3057  return false */\n      swap3\n      pop\n      pop\n      pop\n      jump(tag_226)\n        /* \"Library/ProposalLibrary.sol\":2214:3069  if(block.timestamp > self.expirationTime){\r... */\n    tag_230:\n        /* \"Library/ProposalLibrary.sol\":3112:3116  self */\n      dup5\n        /* \"Library/ProposalLibrary.sol\":3112:3123  self.voters */\n      0x06\n      add\n        /* \"Library/ProposalLibrary.sol\":3112:3131  self.voters[_voter] */\n      0x00\n        /* \"Library/ProposalLibrary.sol\":3124:3130  _voter */\n      dup6\n        /* \"Library/ProposalLibrary.sol\":3112:3131  self.voters[_voter] */\n      0xffffffffffffffffffffffffffffffffffffffff\n      and\n      0xffffffffffffffffffffffffffffffffffffffff\n      and\n      dup2\n      mstore\n      0x20\n      add\n      swap1\n      dup2\n      mstore\n      0x20\n      add\n      0x00\n      keccak256\n      0x00\n      swap1\n      sload\n      swap1\n      0x0100\n      exp\n      swap1\n      div\n      0xff\n      and\n        /* \"Library/ProposalLibrary.sol\":3104:3171  require(self.voters[_voter], \"Not a valid voter for this proposal\") */\n      tag_251\n      jumpi\n      mload(0x40)\n      0x08c379a000000000000000000000000000000000000000000000000000000000\n      dup2\n      mstore\n      0x04\n      add\n      tag_252\n      swap1\n      tag_253\n      jump\t// in\n    tag_252:\n      mload(0x40)\n      dup1\n      swap2\n      sub\n      swap1\n      revert\n    tag_251:\n        /* \"Library/ProposalLibrary.sol\":3188:3196  uint16 i */\n      0x00\n        /* \"Library/ProposalLibrary.sol\":3184:3341  for(uint16 i=0;i<self.numOfOptions;i++){\r... */\n    tag_254:\n        /* \"Library/ProposalLibrary.sol\":3201:3205  self */\n      dup6\n        /* \"Library/ProposalLibrary.sol\":3201:3218  self.numOfOptions */\n      0x04\n      add\n      0x00\n      swap1\n      sload\n      swap1\n      0x0100\n      exp\n      swap1\n      div\n      0xffff\n      and\n        /* \"Library/ProposalLibrary.sol\":3199:3218  i<self.numOfOptions */\n      0xffff\n      and\n        /* \"Library/ProposalLibrary.sol\":3199:3200  i */\n      dup2\n        /* \"Library/ProposalLibrary.sol\":3199:3218  i<self.numOfOptions */\n      0xffff\n      and\n      lt\n        /* \"Library/ProposalLibrary.sol\":3184:3341  for(uint16 i=0;i<self.numOfOptions;i++){\r... */\n      iszero\n      tag_255\n      jumpi\n        /* \"Library/ProposalLibrary.sol\":3242:3246  self */\n      dup6\n        /* \"Library/ProposalLibrary.sol\":3242:3251  self.cand */\n      0x07\n      add\n        /* \"Library/ProposalLibrary.sol\":3252:3257  _hash */\n      dup5\n        /* \"Library/ProposalLibrary.sol\":3258:3259  i */\n      dup3\n        /* \"Library/ProposalLibrary.sol\":3252:3260  _hash[i] */\n      0xffff\n      and\n      dup2\n      mload\n      dup2\n      lt\n      tag_257\n      jumpi\n      tag_258\n      tag_108\n      jump\t// in\n    tag_258:\n    tag_257:\n      0x20\n      mul\n      0x20\n      add\n      add\n      mload\n        /* \"Library/ProposalLibrary.sol\":3242:3261  self.cand[_hash[i]] */\n      mload(0x40)\n      tag_259\n      swap2\n      swap1\n      tag_260\n      jump\t// in\n    tag_259:\n      swap1\n      dup2\n      mstore\n      0x20\n      add\n      mload(0x40)\n      dup1\n      swap2\n      sub\n      swap1\n      keccak256\n      0x00\n      swap1\n      sload\n      swap1\n      0x0100\n      exp\n      swap1\n      div\n      0xff\n      and\n        /* \"Library/ProposalLibrary.sol\":3234:3293  require(self.cand[_hash[i]], \"Proposal: invalid candidate\") */\n      tag_261\n      jumpi\n      mload(0x40)\n      0x08c379a000000000000000000000000000000000000000000000000000000000\n      dup2\n      mstore\n      0x04\n      add\n      tag_262\n      swap1\n      tag_263\n      jump\t// in\n    tag_262:\n      mload(0x40)\n      dup1\n      swap2\n      sub\n      swap1\n      revert\n    tag_261:\n        /* \"Library/ProposalLibrary.sol\":3325:3326  v */\n      dup3\n        /* \"Library/ProposalLibrary.sol\":3327:3328  i */\n      dup2\n        /* \"Library/ProposalLibrary.sol\":3325:3329  v[i] */\n      0xffff\n      and\n      dup2\n      mload\n      dup2\n      lt\n      tag_264\n      jumpi\n      tag_265\n      tag_108\n      jump\t// in\n    tag_265:\n    tag_264:\n      0x20\n      mul\n      0x20\n      add\n      add\n      mload\n        /* \"Library/ProposalLibrary.sol\":3304:3308  self */\n      dup7\n        /* \"Library/ProposalLibrary.sol\":3304:3314  self.votes */\n      0x0a\n      add\n        /* \"Library/ProposalLibrary.sol\":3315:3320  _hash */\n      dup6\n        /* \"Library/ProposalLibrary.sol\":3321:3322  i */\n      dup4\n        /* \"Library/ProposalLibrary.sol\":3315:3323  _hash[i] */\n      0xffff\n      and\n      dup2\n      mload\n      dup2\n      lt\n      tag_266\n      jumpi\n      tag_267\n      tag_108\n      jump\t// in\n    tag_267:\n    tag_266:\n      0x20\n      mul\n      0x20\n      add\n      add\n      mload\n        /* \"Library/ProposalLibrary.sol\":3304:3324  self.votes[_hash[i]] */\n      mload(0x40)\n      tag_268\n      swap2\n      swap1\n      tag_260\n      jump\t// in\n    tag_268:\n      swap1\n      dup2\n      mstore\n      0x20\n      add\n      mload(0x40)\n      dup1\n      swap2\n      sub\n      swap1\n      keccak256\n        /* \"Library/ProposalLibrary.sol\":3304:3329  self.votes[_hash[i]]=v[i] */\n      dup2\n      swap1\n      sstore\n      pop\n        /* \"Library/ProposalLibrary.sol\":3219:3222  i++ */\n      dup1\n      dup1\n      tag_269\n      swap1\n      tag_250\n      jump\t// in\n    tag_269:\n      swap2\n      pop\n      pop\n        /* \"Library/ProposalLibrary.sol\":3184:3341  for(uint16 i=0;i<self.numOfOptions;i++){\r... */\n      jump(tag_254)\n    tag_255:\n      pop\n        /* \"Library/ProposalLibrary.sol\":3358:3362  true */\n      0x01\n        /* \"Library/ProposalLibrary.sol\":3351:3362  return true */\n      swap1\n      pop\n        /* \"Library/ProposalLibrary.sol\":2018:3370  function responseProposal(proposal storage self, address _voter, string[] memory _hash, uint[] memory v) internal returns(bool){\r... */\n    tag_226:\n      swap5\n      swap4\n      pop\n      pop\n      pop\n      pop\n      jump\t// out\n        /* \"Library/UserProposalLibrary.sol\":802:1377  function updateResponseList(UserProposal storage self, uint _proposalId, string[] memory _hash) internal returns(bool){\r... */\n    tag_157:\n        /* \"Library/UserProposalLibrary.sol\":915:919  bool */\n      0x00\n        /* \"Library/UserProposalLibrary.sol\":931:935  self */\n      dup4\n        /* \"Library/UserProposalLibrary.sol\":931:949  self.responseCount */\n      0x00\n      add\n      0x10\n        /* \"Library/UserProposalLibrary.sol\":931:951  self.responseCount++ */\n      dup2\n      dup2\n      swap1\n      sload\n      swap1\n      0x0100\n      exp\n      swap1\n      div\n      0xffffffffffffffffffffffffffffffff\n      and\n      dup1\n      swap3\n      swap2\n      swap1\n      tag_271\n      swap1\n      tag_225\n      jump\t// in\n    tag_271:\n      swap2\n      swap1\n      0x0100\n      exp\n      dup2\n      sload\n      dup2\n      0xffffffffffffffffffffffffffffffff\n      mul\n      not\n      and\n      swap1\n      dup4\n      0xffffffffffffffffffffffffffffffff\n      and\n      mul\n      or\n      swap1\n      sstore\n      pop\n      pop\n        /* \"Library/UserProposalLibrary.sol\":1009:1020  _proposalId */\n      dup3\n        /* \"Library/UserProposalLibrary.sol\":964:968  self */\n      dup5\n        /* \"Library/UserProposalLibrary.sol\":964:986  self.proposalResponsed */\n      0x02\n      add\n        /* \"Library/UserProposalLibrary.sol\":964:1006  self.proposalResponsed[self.responseCount] */\n      0x00\n        /* \"Library/UserProposalLibrary.sol\":987:991  self */\n      dup7\n        /* \"Library/UserProposalLibrary.sol\":987:1005  self.responseCount */\n      0x00\n      add\n      0x10\n      swap1\n      sload\n      swap1\n      0x0100\n      exp\n      swap1\n      div\n      0xffffffffffffffffffffffffffffffff\n      and\n        /* \"Library/UserProposalLibrary.sol\":964:1006  self.proposalResponsed[self.responseCount] */\n      0xffffffffffffffffffffffffffffffff\n      and\n      0xffffffffffffffffffffffffffffffff\n      and\n      dup2\n      mstore\n      0x20\n      add\n      swap1\n      dup2\n      mstore\n      0x20\n      add\n      0x00\n      keccak256\n        /* \"Library/UserProposalLibrary.sol\":964:1020  self.proposalResponsed[self.responseCount] = _proposalId */\n      dup2\n      swap1\n      sstore\n      pop\n        /* \"Library/UserProposalLibrary.sol\":1190:1198  uint16 i */\n      0x00\n        /* \"Library/UserProposalLibrary.sol\":1186:1295  for(uint16 i=0;i<_hash.length;i++){\r... */\n    tag_272:\n        /* \"Library/UserProposalLibrary.sol\":1203:1208  _hash */\n      dup3\n        /* \"Library/UserProposalLibrary.sol\":1203:1215  _hash.length */\n      mload\n        /* \"Library/UserProposalLibrary.sol\":1201:1202  i */\n      dup2\n        /* \"Library/UserProposalLibrary.sol\":1201:1215  i<_hash.length */\n      0xffff\n      and\n      lt\n        /* \"Library/UserProposalLibrary.sol\":1186:1295  for(uint16 i=0;i<_hash.length;i++){\r... */\n      iszero\n      tag_273\n      jumpi\n        /* \"Library/UserProposalLibrary.sol\":1275:1280  _hash */\n      dup3\n        /* \"Library/UserProposalLibrary.sol\":1281:1282  i */\n      dup2\n        /* \"Library/UserProposalLibrary.sol\":1275:1283  _hash[i] */\n      0xffff\n      and\n      dup2\n      mload\n      dup2\n      lt\n      tag_275\n      jumpi\n      tag_276\n      tag_108\n      jump\t// in\n    tag_276:\n    tag_275:\n      0x20\n      mul\n      0x20\n      add\n      add\n      mload\n        /* \"Library/UserProposalLibrary.sol\":1235:1239  self */\n      dup6\n        /* \"Library/UserProposalLibrary.sol\":1235:1254  self.proposalAnswer */\n      0x03\n      add\n        /* \"Library/UserProposalLibrary.sol\":1235:1267  self.proposalAnswer[_proposalId] */\n      0x00\n        /* \"Library/UserProposalLibrary.sol\":1255:1266  _proposalId */\n      dup7\n        /* \"Library/UserProposalLibrary.sol\":1235:1267  self.proposalAnswer[_proposalId] */\n      dup2\n      mstore\n      0x20\n      add\n      swap1\n      dup2\n      mstore\n      0x20\n      add\n      0x00\n      keccak256\n        /* \"Library/UserProposalLibrary.sol\":1235:1272  self.proposalAnswer[_proposalId][i+1] */\n      0x00\n        /* \"Library/UserProposalLibrary.sol\":1270:1271  1 */\n      0x01\n        /* \"Library/UserProposalLibrary.sol\":1268:1269  i */\n      dup5\n        /* \"Library/UserProposalLibrary.sol\":1268:1271  i+1 */\n      tag_277\n      swap2\n      swap1\n      tag_278\n      jump\t// in\n    tag_277:\n        /* \"Library/UserProposalLibrary.sol\":1235:1272  self.proposalAnswer[_proposalId][i+1] */\n      0xffff\n      and\n      dup2\n      mstore\n      0x20\n      add\n      swap1\n      dup2\n      mstore\n      0x20\n      add\n      0x00\n      keccak256\n        /* \"Library/UserProposalLibrary.sol\":1235:1283  self.proposalAnswer[_proposalId][i+1] = _hash[i] */\n      swap1\n      dup1\n      mload\n      swap1\n      0x20\n      add\n      swap1\n      tag_279\n      swap3\n      swap2\n      swap1\n      tag_192\n      jump\t// in\n    tag_279:\n      pop\n        /* \"Library/UserProposalLibrary.sol\":1216:1219  i++ */\n      dup1\n      dup1\n      tag_280\n      swap1\n      tag_250\n      jump\t// in\n    tag_280:\n      swap2\n      pop\n      pop\n        /* \"Library/UserProposalLibrary.sol\":1186:1295  for(uint16 i=0;i<_hash.length;i++){\r... */\n      jump(tag_272)\n    tag_273:\n      pop\n        /* \"Library/UserProposalLibrary.sol\":1343:1347  true */\n      0x01\n        /* \"Library/UserProposalLibrary.sol\":1305:1309  self */\n      dup5\n        /* \"Library/UserProposalLibrary.sol\":1305:1327  self.responsedProposal */\n      0x04\n      add\n        /* \"Library/UserProposalLibrary.sol\":1305:1340  self.responsedProposal[_proposalId] */\n      0x00\n        /* \"Library/UserProposalLibrary.sol\":1328:1339  _proposalId */\n      dup6\n        /* \"Library/UserProposalLibrary.sol\":1305:1340  self.responsedProposal[_proposalId] */\n      dup2\n      mstore\n      0x20\n      add\n      swap1\n      dup2\n      mstore\n      0x20\n      add\n      0x00\n      keccak256\n      0x00\n        /* \"Library/UserProposalLibrary.sol\":1305:1347  self.responsedProposal[_proposalId] = true */\n      0x0100\n      exp\n      dup2\n      sload\n      dup2\n      0xff\n      mul\n      not\n      and\n      swap1\n      dup4\n      iszero\n      iszero\n      mul\n      or\n      swap1\n      sstore\n      pop\n        /* \"Library/UserProposalLibrary.sol\":1365:1369  true */\n      0x01\n        /* \"Library/UserProposalLibrary.sol\":1358:1369  return true */\n      swap1\n      pop\n        /* \"Library/UserProposalLibrary.sol\":802:1377  function updateResponseList(UserProposal storage self, uint _proposalId, string[] memory _hash) internal returns(bool){\r... */\n      swap4\n      swap3\n      pop\n      pop\n      pop\n      jump\t// out\n        /* \"Library/VoterLibrary.sol\":832:1063  function updateVoteNum(voter storage self) internal returns(bool){\r... */\n    tag_159:\n        /* \"Library/VoterLibrary.sol\":892:896  bool */\n      0x00\n        /* \"Library/VoterLibrary.sol\":931:932  0 */\n      dup1\n        /* \"Library/VoterLibrary.sol\":914:918  self */\n      dup3\n        /* \"Library/VoterLibrary.sol\":914:929  self.proposalId */\n      0x00\n      add\n      sload\n        /* \"Library/VoterLibrary.sol\":914:932  self.proposalId!=0 */\n      eq\n      iszero\n        /* \"Library/VoterLibrary.sol\":906:965  require(self.proposalId!=0,\"Invalid voter for proposalId!\") */\n      tag_282\n      jumpi\n      mload(0x40)\n      0x08c379a000000000000000000000000000000000000000000000000000000000\n      dup2\n      mstore\n      0x04\n      add\n      tag_283\n      swap1\n      tag_284\n      jump\t// in\n    tag_283:\n      mload(0x40)\n      dup1\n      swap2\n      sub\n      swap1\n      revert\n    tag_282:\n        /* \"Library/VoterLibrary.sol\":983:987  self */\n      dup2\n        /* \"Library/VoterLibrary.sol\":983:996  self.hasVoted */\n      0x01\n      add\n      0x14\n      swap1\n      sload\n      swap1\n      0x0100\n      exp\n      swap1\n      div\n      0xff\n      and\n        /* \"Library/VoterLibrary.sol\":982:996  !self.hasVoted */\n      iszero\n        /* \"Library/VoterLibrary.sol\":974:1010  require(!self.hasVoted, \"not voted\") */\n      tag_285\n      jumpi\n      mload(0x40)\n      0x08c379a000000000000000000000000000000000000000000000000000000000\n      dup2\n      mstore\n      0x04\n      add\n      tag_286\n      swap1\n      tag_287\n      jump\t// in\n    tag_286:\n      mload(0x40)\n      dup1\n      swap2\n      sub\n      swap1\n      revert\n    tag_285:\n        /* \"Library/VoterLibrary.sol\":1034:1035  0 */\n      0x00\n        /* \"Library/VoterLibrary.sol\":1019:1023  self */\n      dup3\n        /* \"Library/VoterLibrary.sol\":1019:1031  self.voteNum */\n      0x02\n      add\n        /* \"Library/VoterLibrary.sol\":1019:1035  self.voteNum = 0 */\n      dup2\n      swap1\n      sstore\n      pop\n        /* \"Library/VoterLibrary.sol\":1051:1055  true */\n      0x01\n        /* \"Library/VoterLibrary.sol\":1044:1055  return true */\n      swap1\n      pop\n        /* \"Library/VoterLibrary.sol\":832:1063  function updateVoteNum(voter storage self) internal returns(bool){\r... */\n      swap2\n      swap1\n      pop\n      jump\t// out\n        /* \"QvToken/QvToken.sol\":510:613  function burn(address to,uint amount) onlyOwner(_msgSender()) internal {\r... */\n    tag_161:\n        /* \"QvToken/QvToken.sol\":558:570  _msgSender() */\n      tag_288\n        /* \"QvToken/QvToken.sol\":558:568  _msgSender */\n      tag_123\n        /* \"QvToken/QvToken.sol\":558:570  _msgSender() */\n      jump\t// in\n    tag_288:\n        /* \"QvToken/QvToken.sol\":366:375  msgSender */\n      dup1\n        /* \"QvToken/QvToken.sol\":357:375  owner == msgSender */\n      0xffffffffffffffffffffffffffffffffffffffff\n      and\n        /* \"QvToken/QvToken.sol\":357:362  owner */\n      0x04\n      0x00\n      swap1\n      sload\n      swap1\n      0x0100\n      exp\n      swap1\n      div\n      0xffffffffffffffffffffffffffffffffffffffff\n      and\n        /* \"QvToken/QvToken.sol\":357:375  owner == msgSender */\n      0xffffffffffffffffffffffffffffffffffffffff\n      and\n      eq\n        /* \"QvToken/QvToken.sol\":349:376  require(owner == msgSender) */\n      tag_290\n      jumpi\n      0x00\n      dup1\n      revert\n    tag_290:\n        /* \"QvToken/QvToken.sol\":588:605  _burn(to, amount) */\n      tag_292\n        /* \"QvToken/QvToken.sol\":594:596  to */\n      dup4\n        /* \"QvToken/QvToken.sol\":598:604  amount */\n      dup4\n        /* \"QvToken/QvToken.sol\":588:593  _burn */\n      tag_293\n        /* \"QvToken/QvToken.sol\":588:605  _burn(to, amount) */\n      jump\t// in\n    tag_292:\n        /* \"QvToken/QvToken.sol\":510:613  function burn(address to,uint amount) onlyOwner(_msgSender()) internal {\r... */\n      pop\n      pop\n      pop\n      jump\t// out\n        /* \"QvToken/ERC20.sol\":3630:4033  function _mint(address account, uint256 amount) internal virtual {\r... */\n    tag_220:\n        /* \"QvToken/ERC20.sol\":3733:3734  0 */\n      0x00\n        /* \"QvToken/ERC20.sol\":3714:3735  account != address(0) */\n      0xffffffffffffffffffffffffffffffffffffffff\n      and\n        /* \"QvToken/ERC20.sol\":3714:3721  account */\n      dup3\n        /* \"QvToken/ERC20.sol\":3714:3735  account != address(0) */\n      0xffffffffffffffffffffffffffffffffffffffff\n      and\n      eq\n      iszero\n        /* \"QvToken/ERC20.sol\":3706:3771  require(account != address(0), \"ERC20: mint to the zero address\") */\n      tag_295\n      jumpi\n      mload(0x40)\n      0x08c379a000000000000000000000000000000000000000000000000000000000\n      dup2\n      mstore\n      0x04\n      add\n      tag_296\n      swap1\n      tag_297\n      jump\t// in\n    tag_296:\n      mload(0x40)\n      dup1\n      swap2\n      sub\n      swap1\n      revert\n    tag_295:\n        /* \"QvToken/ERC20.sol\":3865:3871  amount */\n      dup1\n        /* \"QvToken/ERC20.sol\":3849:3861  _totalSupply */\n      0x01\n      0x00\n        /* \"QvToken/ERC20.sol\":3849:3871  _totalSupply += amount */\n      dup3\n      dup3\n      sload\n      tag_298\n      swap2\n      swap1\n      tag_148\n      jump\t// in\n    tag_298:\n      swap3\n      pop\n      pop\n      dup2\n      swap1\n      sstore\n      pop\n        /* \"QvToken/ERC20.sol\":3904:3910  amount */\n      dup1\n        /* \"QvToken/ERC20.sol\":3882:3891  _balances */\n      0x00\n        /* \"QvToken/ERC20.sol\":3882:3900  _balances[account] */\n      dup1\n        /* \"QvToken/ERC20.sol\":3892:3899  account */\n      dup5\n        /* \"QvToken/ERC20.sol\":3882:3900  _balances[account] */\n      0xffffffffffffffffffffffffffffffffffffffff\n      and\n      0xffffffffffffffffffffffffffffffffffffffff\n      and\n      dup2\n      mstore\n      0x20\n      add\n      swap1\n      dup2\n      mstore\n      0x20\n      add\n      0x00\n      keccak256\n      0x00\n        /* \"QvToken/ERC20.sol\":3882:3910  _balances[account] += amount */\n      dup3\n      dup3\n      sload\n      tag_299\n      swap2\n      swap1\n      tag_148\n      jump\t// in\n    tag_299:\n      swap3\n      pop\n      pop\n      dup2\n      swap1\n      sstore\n      pop\n        /* \"QvToken/ERC20.sol\":3926:3961  mintAndburn(\"mint\",account, amount) */\n      0xabf5327be9f5825c40d58bda541dd07f09b62df3376bbd5ecdbaa8bd82a9d492\n        /* \"QvToken/ERC20.sol\":3945:3952  account */\n      dup3\n        /* \"QvToken/ERC20.sol\":3954:3960  amount */\n      dup3\n        /* \"QvToken/ERC20.sol\":3926:3961  mintAndburn(\"mint\",account, amount) */\n      mload(0x40)\n      tag_300\n      swap3\n      swap2\n      swap1\n      tag_119\n      jump\t// in\n    tag_300:\n      mload(0x40)\n      dup1\n      swap2\n      sub\n      swap1\n      log1\n        /* \"QvToken/ERC20.sol\":3630:4033  function _mint(address account, uint256 amount) internal virtual {\r... */\n      pop\n      pop\n      jump\t// out\n        /* \"QvToken/ERC20.sol\":4045:4640  function _burn(address account, uint256 amount) internal virtual {\r... */\n    tag_293:\n        /* \"QvToken/ERC20.sol\":4148:4149  0 */\n      0x00\n        /* \"QvToken/ERC20.sol\":4129:4150  account != address(0) */\n      0xffffffffffffffffffffffffffffffffffffffff\n      and\n        /* \"QvToken/ERC20.sol\":4129:4136  account */\n      dup3\n        /* \"QvToken/ERC20.sol\":4129:4150  account != address(0) */\n      0xffffffffffffffffffffffffffffffffffffffff\n      and\n      eq\n      iszero\n        /* \"QvToken/ERC20.sol\":4121:4188  require(account != address(0), \"ERC20: burn from the zero address\") */\n      tag_302\n      jumpi\n      mload(0x40)\n      0x08c379a000000000000000000000000000000000000000000000000000000000\n      dup2\n      mstore\n      0x04\n      add\n      tag_303\n      swap1\n      tag_304\n      jump\t// in\n    tag_303:\n      mload(0x40)\n      dup1\n      swap2\n      sub\n      swap1\n      revert\n    tag_302:\n        /* \"QvToken/ERC20.sol\":4266:4288  uint256 accountBalance */\n      0x00\n        /* \"QvToken/ERC20.sol\":4291:4300  _balances */\n      dup1\n        /* \"QvToken/ERC20.sol\":4291:4309  _balances[account] */\n      0x00\n        /* \"QvToken/ERC20.sol\":4301:4308  account */\n      dup5\n        /* \"QvToken/ERC20.sol\":4291:4309  _balances[account] */\n      0xffffffffffffffffffffffffffffffffffffffff\n      and\n      0xffffffffffffffffffffffffffffffffffffffff\n      and\n      dup2\n      mstore\n      0x20\n      add\n      swap1\n      dup2\n      mstore\n      0x20\n      add\n      0x00\n      keccak256\n      sload\n        /* \"QvToken/ERC20.sol\":4266:4309  uint256 accountBalance = _balances[account] */\n      swap1\n      pop\n        /* \"QvToken/ERC20.sol\":4346:4352  amount */\n      dup2\n        /* \"QvToken/ERC20.sol\":4328:4342  accountBalance */\n      dup2\n        /* \"QvToken/ERC20.sol\":4328:4352  accountBalance >= amount */\n      lt\n      iszero\n        /* \"QvToken/ERC20.sol\":4320:4391  require(accountBalance >= amount, \"ERC20: burn amount exceeds balance\") */\n      tag_305\n      jumpi\n      mload(0x40)\n      0x08c379a000000000000000000000000000000000000000000000000000000000\n      dup2\n      mstore\n      0x04\n      add\n      tag_306\n      swap1\n      tag_307\n      jump\t// in\n    tag_306:\n      mload(0x40)\n      dup1\n      swap2\n      sub\n      swap1\n      revert\n    tag_305:\n        /* \"QvToken/ERC20.sol\":4465:4471  amount */\n      dup2\n        /* \"QvToken/ERC20.sol\":4448:4462  accountBalance */\n      dup2\n        /* \"QvToken/ERC20.sol\":4448:4471  accountBalance - amount */\n      sub\n        /* \"QvToken/ERC20.sol\":4427:4436  _balances */\n      0x00\n        /* \"QvToken/ERC20.sol\":4427:4445  _balances[account] */\n      dup1\n        /* \"QvToken/ERC20.sol\":4437:4444  account */\n      dup6\n        /* \"QvToken/ERC20.sol\":4427:4445  _balances[account] */\n      0xffffffffffffffffffffffffffffffffffffffff\n      and\n      0xffffffffffffffffffffffffffffffffffffffff\n      and\n      dup2\n      mstore\n      0x20\n      add\n      swap1\n      dup2\n      mstore\n      0x20\n      add\n      0x00\n      keccak256\n        /* \"QvToken/ERC20.sol\":4427:4471  _balances[account] = accountBalance - amount */\n      dup2\n      swap1\n      sstore\n      pop\n        /* \"QvToken/ERC20.sol\":4509:4515  amount */\n      dup2\n        /* \"QvToken/ERC20.sol\":4493:4505  _totalSupply */\n      0x01\n      0x00\n        /* \"QvToken/ERC20.sol\":4493:4515  _totalSupply -= amount */\n      dup3\n      dup3\n      sload\n      tag_308\n      swap2\n      swap1\n      tag_309\n      jump\t// in\n    tag_308:\n      swap3\n      pop\n      pop\n      dup2\n      swap1\n      sstore\n      pop\n        /* \"QvToken/ERC20.sol\":4533:4568  mintAndburn(\"burn\",account, amount) */\n      0xabf5327be9f5825c40d58bda541dd07f09b62df3376bbd5ecdbaa8bd82a9d492\n        /* \"QvToken/ERC20.sol\":4552:4559  account */\n      dup4\n        /* \"QvToken/ERC20.sol\":4561:4567  amount */\n      dup4\n        /* \"QvToken/ERC20.sol\":4533:4568  mintAndburn(\"burn\",account, amount) */\n      mload(0x40)\n      tag_310\n      swap3\n      swap2\n      swap1\n      tag_163\n      jump\t// in\n    tag_310:\n      mload(0x40)\n      dup1\n      swap2\n      sub\n      swap1\n      log1\n        /* \"QvToken/ERC20.sol\":4110:4640  {\r... */\n      pop\n        /* \"QvToken/ERC20.sol\":4045:4640  function _burn(address account, uint256 amount) internal virtual {\r... */\n      pop\n      pop\n      jump\t// out\n    tag_192:\n      dup3\n      dup1\n      sload\n      tag_311\n      swap1\n      tag_73\n      jump\t// in\n    tag_311:\n      swap1\n      0x00\n      mstore\n      keccak256(0x00, 0x20)\n      swap1\n      0x1f\n      add\n      0x20\n      swap1\n      div\n      dup2\n      add\n      swap3\n      dup3\n      tag_313\n      jumpi\n      0x00\n      dup6\n      sstore\n      jump(tag_312)\n    tag_313:\n      dup3\n      0x1f\n      lt\n      tag_314\n      jumpi\n      dup1\n      mload\n      not(0xff)\n      and\n      dup4\n      dup1\n      add\n      or\n      dup6\n      sstore\n      jump(tag_312)\n    tag_314:\n      dup3\n      dup1\n      add\n      0x01\n      add\n      dup6\n      sstore\n      dup3\n      iszero\n      tag_312\n      jumpi\n      swap2\n      dup3\n      add\n    tag_315:\n      dup3\n      dup2\n      gt\n      iszero\n      tag_316\n      jumpi\n      dup3\n      mload\n      dup3\n      sstore\n      swap2\n      0x20\n      add\n      swap2\n      swap1\n      0x01\n      add\n      swap1\n      jump(tag_315)\n    tag_316:\n    tag_312:\n      pop\n      swap1\n      pop\n      tag_317\n      swap2\n      swap1\n      tag_318\n      jump\t// in\n    tag_317:\n      pop\n      swap1\n      jump\t// out\n    tag_207:\n      dup3\n      dup1\n      sload\n      tag_319\n      swap1\n      tag_73\n      jump\t// in\n    tag_319:\n      swap1\n      0x00\n      mstore\n      keccak256(0x00, 0x20)\n      swap1\n      0x1f\n      add\n      0x20\n      swap1\n      div\n      dup2\n      add\n      swap3\n      dup3\n      tag_321\n      jumpi\n      0x00\n      dup6\n      sstore\n      jump(tag_320)\n    tag_321:\n      dup3\n      0x1f\n      lt\n      tag_322\n      jumpi\n      dup1\n      calldataload\n      not(0xff)\n      and\n      dup4\n      dup1\n      add\n      or\n      dup6\n      sstore\n      jump(tag_320)\n    tag_322:\n      dup3\n      dup1\n      add\n      0x01\n      add\n      dup6\n      sstore\n      dup3\n      iszero\n      tag_320\n      jumpi\n      swap2\n      dup3\n      add\n    tag_323:\n      dup3\n      dup2\n      gt\n      iszero\n      tag_324\n      jumpi\n      dup3\n      calldataload\n      dup3\n      sstore\n      swap2\n      0x20\n      add\n      swap2\n      swap1\n      0x01\n      add\n      swap1\n      jump(tag_323)\n    tag_324:\n    tag_320:\n      pop\n      swap1\n      pop\n      tag_325\n      swap2\n      swap1\n      tag_318\n      jump\t// in\n    tag_325:\n      pop\n      swap1\n      jump\t// out\n    tag_234:\n      dup3\n      dup1\n      sload\n      tag_326\n      swap1\n      tag_73\n      jump\t// in\n    tag_326:\n      swap1\n      0x00\n      mstore\n      keccak256(0x00, 0x20)\n      swap1\n      0x1f\n      add\n      0x20\n      swap1\n      div\n      dup2\n      add\n      swap3\n      dup3\n      tag_328\n      jumpi\n      0x00\n      dup6\n      sstore\n      jump(tag_327)\n    tag_328:\n      dup3\n      0x1f\n      lt\n      tag_329\n      jumpi\n      dup1\n      sload\n      dup6\n      sstore\n      jump(tag_327)\n    tag_329:\n      dup3\n      dup1\n      add\n      0x01\n      add\n      dup6\n      sstore\n      dup3\n      iszero\n      tag_327\n      jumpi\n      0x00\n      mstore\n      keccak256(0x00, 0x20)\n      swap2\n      0x1f\n      add\n      0x20\n      swap1\n      div\n      dup3\n      add\n    tag_330:\n      dup3\n      dup2\n      gt\n      iszero\n      tag_331\n      jumpi\n      dup3\n      sload\n      dup3\n      sstore\n      swap2\n      0x01\n      add\n      swap2\n      swap1\n      0x01\n      add\n      swap1\n      jump(tag_330)\n    tag_331:\n    tag_327:\n      pop\n      swap1\n      pop\n      tag_332\n      swap2\n      swap1\n      tag_318\n      jump\t// in\n    tag_332:\n      pop\n      swap1\n      jump\t// out\n    tag_318:\n    tag_333:\n      dup1\n      dup3\n      gt\n      iszero\n      tag_334\n      jumpi\n      0x00\n      dup2\n      0x00\n      swap1\n      sstore\n      pop\n      0x01\n      add\n      jump(tag_333)\n    tag_334:\n      pop\n      swap1\n      jump\t// out\n        /* \"#utility.yul\":24:746   */\n    tag_336:\n        /* \"#utility.yul\":120:125   */\n      0x00\n        /* \"#utility.yul\":145:226   */\n      tag_338\n        /* \"#utility.yul\":161:225   */\n      tag_339\n        /* \"#utility.yul\":218:224   */\n      dup5\n        /* \"#utility.yul\":161:225   */\n      tag_340\n      jump\t// in\n    tag_339:\n        /* \"#utility.yul\":145:226   */\n      tag_341\n      jump\t// in\n    tag_338:\n        /* \"#utility.yul\":136:226   */\n      swap1\n      pop\n        /* \"#utility.yul\":246:251   */\n      dup1\n        /* \"#utility.yul\":275:281   */\n      dup4\n        /* \"#utility.yul\":268:273   */\n      dup3\n        /* \"#utility.yul\":261:282   */\n      mstore\n        /* \"#utility.yul\":309:313   */\n      0x20\n        /* \"#utility.yul\":302:307   */\n      dup3\n        /* \"#utility.yul\":298:314   */\n      add\n        /* \"#utility.yul\":291:314   */\n      swap1\n      pop\n        /* \"#utility.yul\":335:341   */\n      dup3\n        /* \"#utility.yul\":385:388   */\n      dup6\n        /* \"#utility.yul\":377:381   */\n      0x20\n        /* \"#utility.yul\":369:375   */\n      dup7\n        /* \"#utility.yul\":365:382   */\n      mul\n        /* \"#utility.yul\":360:363   */\n      dup3\n        /* \"#utility.yul\":356:383   */\n      add\n        /* \"#utility.yul\":353:389   */\n      gt\n        /* \"#utility.yul\":350:493   */\n      iszero\n      tag_342\n      jumpi\n        /* \"#utility.yul\":404:483   */\n      tag_343\n      tag_344\n      jump\t// in\n    tag_343:\n        /* \"#utility.yul\":350:493   */\n    tag_342:\n        /* \"#utility.yul\":517:518   */\n      0x00\n        /* \"#utility.yul\":502:740   */\n    tag_345:\n        /* \"#utility.yul\":527:533   */\n      dup6\n        /* \"#utility.yul\":524:525   */\n      dup2\n        /* \"#utility.yul\":521:534   */\n      lt\n        /* \"#utility.yul\":502:740   */\n      iszero\n      tag_347\n      jumpi\n        /* \"#utility.yul\":595:598   */\n      dup2\n        /* \"#utility.yul\":624:661   */\n      tag_348\n        /* \"#utility.yul\":657:660   */\n      dup9\n        /* \"#utility.yul\":645:655   */\n      dup3\n        /* \"#utility.yul\":624:661   */\n      tag_349\n      jump\t// in\n    tag_348:\n        /* \"#utility.yul\":619:622   */\n      dup5\n        /* \"#utility.yul\":612:662   */\n      mstore\n        /* \"#utility.yul\":691:695   */\n      0x20\n        /* \"#utility.yul\":686:689   */\n      dup5\n        /* \"#utility.yul\":682:696   */\n      add\n        /* \"#utility.yul\":675:696   */\n      swap4\n      pop\n        /* \"#utility.yul\":725:729   */\n      0x20\n        /* \"#utility.yul\":720:723   */\n      dup4\n        /* \"#utility.yul\":716:730   */\n      add\n        /* \"#utility.yul\":709:730   */\n      swap3\n      pop\n        /* \"#utility.yul\":562:740   */\n      pop\n        /* \"#utility.yul\":549:550   */\n      0x01\n        /* \"#utility.yul\":546:547   */\n      dup2\n        /* \"#utility.yul\":542:551   */\n      add\n        /* \"#utility.yul\":537:551   */\n      swap1\n      pop\n        /* \"#utility.yul\":502:740   */\n      jump(tag_345)\n    tag_347:\n        /* \"#utility.yul\":506:520   */\n      pop\n        /* \"#utility.yul\":126:746   */\n      pop\n      pop\n        /* \"#utility.yul\":24:746   */\n      swap4\n      swap3\n      pop\n      pop\n      pop\n      jump\t// out\n        /* \"#utility.yul\":768:1725   */\n    tag_350:\n        /* \"#utility.yul\":874:879   */\n      0x00\n        /* \"#utility.yul\":899:990   */\n      tag_352\n        /* \"#utility.yul\":915:989   */\n      tag_353\n        /* \"#utility.yul\":982:988   */\n      dup5\n        /* \"#utility.yul\":915:989   */\n      tag_354\n      jump\t// in\n    tag_353:\n        /* \"#utility.yul\":899:990   */\n      tag_341\n      jump\t// in\n    tag_352:\n        /* \"#utility.yul\":890:990   */\n      swap1\n      pop\n        /* \"#utility.yul\":1010:1015   */\n      dup1\n        /* \"#utility.yul\":1039:1045   */\n      dup4\n        /* \"#utility.yul\":1032:1037   */\n      dup3\n        /* \"#utility.yul\":1025:1046   */\n      mstore\n        /* \"#utility.yul\":1073:1077   */\n      0x20\n        /* \"#utility.yul\":1066:1071   */\n      dup3\n        /* \"#utility.yul\":1062:1078   */\n      add\n        /* \"#utility.yul\":1055:1078   */\n      swap1\n      pop\n        /* \"#utility.yul\":1099:1105   */\n      dup3\n        /* \"#utility.yul\":1149:1152   */\n      dup6\n        /* \"#utility.yul\":1141:1145   */\n      0x20\n        /* \"#utility.yul\":1133:1139   */\n      dup7\n        /* \"#utility.yul\":1129:1146   */\n      mul\n        /* \"#utility.yul\":1124:1127   */\n      dup3\n        /* \"#utility.yul\":1120:1147   */\n      add\n        /* \"#utility.yul\":1117:1153   */\n      gt\n        /* \"#utility.yul\":1114:1257   */\n      iszero\n      tag_355\n      jumpi\n        /* \"#utility.yul\":1168:1247   */\n      tag_356\n      tag_344\n      jump\t// in\n    tag_356:\n        /* \"#utility.yul\":1114:1257   */\n    tag_355:\n        /* \"#utility.yul\":1281:1282   */\n      0x00\n        /* \"#utility.yul\":1266:1719   */\n    tag_357:\n        /* \"#utility.yul\":1291:1297   */\n      dup6\n        /* \"#utility.yul\":1288:1289   */\n      dup2\n        /* \"#utility.yul\":1285:1298   */\n      lt\n        /* \"#utility.yul\":1266:1719   */\n      iszero\n      tag_359\n      jumpi\n        /* \"#utility.yul\":1373:1376   */\n      dup2\n        /* \"#utility.yul\":1360:1377   */\n      calldataload\n        /* \"#utility.yul\":1409:1427   */\n      0xffffffffffffffff\n        /* \"#utility.yul\":1396:1407   */\n      dup2\n        /* \"#utility.yul\":1393:1428   */\n      gt\n        /* \"#utility.yul\":1390:1512   */\n      iszero\n      tag_360\n      jumpi\n        /* \"#utility.yul\":1431:1510   */\n      tag_361\n      tag_362\n      jump\t// in\n    tag_361:\n        /* \"#utility.yul\":1390:1512   */\n    tag_360:\n        /* \"#utility.yul\":1555:1566   */\n      dup1\n        /* \"#utility.yul\":1547:1553   */\n      dup7\n        /* \"#utility.yul\":1543:1567   */\n      add\n        /* \"#utility.yul\":1593:1640   */\n      tag_363\n        /* \"#utility.yul\":1636:1639   */\n      dup10\n        /* \"#utility.yul\":1624:1634   */\n      dup3\n        /* \"#utility.yul\":1593:1640   */\n      tag_364\n      jump\t// in\n    tag_363:\n        /* \"#utility.yul\":1588:1591   */\n      dup6\n        /* \"#utility.yul\":1581:1641   */\n      mstore\n        /* \"#utility.yul\":1670:1674   */\n      0x20\n        /* \"#utility.yul\":1665:1668   */\n      dup6\n        /* \"#utility.yul\":1661:1675   */\n      add\n        /* \"#utility.yul\":1654:1675   */\n      swap5\n      pop\n        /* \"#utility.yul\":1704:1708   */\n      0x20\n        /* \"#utility.yul\":1699:1702   */\n      dup5\n        /* \"#utility.yul\":1695:1709   */\n      add\n        /* \"#utility.yul\":1688:1709   */\n      swap4\n      pop\n        /* \"#utility.yul\":1326:1719   */\n      pop\n      pop\n        /* \"#utility.yul\":1313:1314   */\n      0x01\n        /* \"#utility.yul\":1310:1311   */\n      dup2\n        /* \"#utility.yul\":1306:1315   */\n      add\n        /* \"#utility.yul\":1301:1315   */\n      swap1\n      pop\n        /* \"#utility.yul\":1266:1719   */\n      jump(tag_357)\n    tag_359:\n        /* \"#utility.yul\":1270:1284   */\n      pop\n        /* \"#utility.yul\":880:1725   */\n      pop\n      pop\n        /* \"#utility.yul\":768:1725   */\n      swap4\n      swap3\n      pop\n      pop\n      pop\n      jump\t// out\n        /* \"#utility.yul\":1748:2470   */\n    tag_365:\n        /* \"#utility.yul\":1844:1849   */\n      0x00\n        /* \"#utility.yul\":1869:1950   */\n      tag_367\n        /* \"#utility.yul\":1885:1949   */\n      tag_368\n        /* \"#utility.yul\":1942:1948   */\n      dup5\n        /* \"#utility.yul\":1885:1949   */\n      tag_369\n      jump\t// in\n    tag_368:\n        /* \"#utility.yul\":1869:1950   */\n      tag_341\n      jump\t// in\n    tag_367:\n        /* \"#utility.yul\":1860:1950   */\n      swap1\n      pop\n        /* \"#utility.yul\":1970:1975   */\n      dup1\n        /* \"#utility.yul\":1999:2005   */\n      dup4\n        /* \"#utility.yul\":1992:1997   */\n      dup3\n        /* \"#utility.yul\":1985:2006   */\n      mstore\n        /* \"#utility.yul\":2033:2037   */\n      0x20\n        /* \"#utility.yul\":2026:2031   */\n      dup3\n        /* \"#utility.yul\":2022:2038   */\n      add\n        /* \"#utility.yul\":2015:2038   */\n      swap1\n      pop\n        /* \"#utility.yul\":2059:2065   */\n      dup3\n        /* \"#utility.yul\":2109:2112   */\n      dup6\n        /* \"#utility.yul\":2101:2105   */\n      0x20\n        /* \"#utility.yul\":2093:2099   */\n      dup7\n        /* \"#utility.yul\":2089:2106   */\n      mul\n        /* \"#utility.yul\":2084:2087   */\n      dup3\n        /* \"#utility.yul\":2080:2107   */\n      add\n        /* \"#utility.yul\":2077:2113   */\n      gt\n        /* \"#utility.yul\":2074:2217   */\n      iszero\n      tag_370\n      jumpi\n        /* \"#utility.yul\":2128:2207   */\n      tag_371\n      tag_344\n      jump\t// in\n    tag_371:\n        /* \"#utility.yul\":2074:2217   */\n    tag_370:\n        /* \"#utility.yul\":2241:2242   */\n      0x00\n        /* \"#utility.yul\":2226:2464   */\n    tag_372:\n        /* \"#utility.yul\":2251:2257   */\n      dup6\n        /* \"#utility.yul\":2248:2249   */\n      dup2\n        /* \"#utility.yul\":2245:2258   */\n      lt\n        /* \"#utility.yul\":2226:2464   */\n      iszero\n      tag_374\n      jumpi\n        /* \"#utility.yul\":2319:2322   */\n      dup2\n        /* \"#utility.yul\":2348:2385   */\n      tag_375\n        /* \"#utility.yul\":2381:2384   */\n      dup9\n        /* \"#utility.yul\":2369:2379   */\n      dup3\n        /* \"#utility.yul\":2348:2385   */\n      tag_376\n      jump\t// in\n    tag_375:\n        /* \"#utility.yul\":2343:2346   */\n      dup5\n        /* \"#utility.yul\":2336:2386   */\n      mstore\n        /* \"#utility.yul\":2415:2419   */\n      0x20\n        /* \"#utility.yul\":2410:2413   */\n      dup5\n        /* \"#utility.yul\":2406:2420   */\n      add\n        /* \"#utility.yul\":2399:2420   */\n      swap4\n      pop\n        /* \"#utility.yul\":2449:2453   */\n      0x20\n        /* \"#utility.yul\":2444:2447   */\n      dup4\n        /* \"#utility.yul\":2440:2454   */\n      add\n        /* \"#utility.yul\":2433:2454   */\n      swap3\n      pop\n        /* \"#utility.yul\":2286:2464   */\n      pop\n        /* \"#utility.yul\":2273:2274   */\n      0x01\n        /* \"#utility.yul\":2270:2271   */\n      dup2\n        /* \"#utility.yul\":2266:2275   */\n      add\n        /* \"#utility.yul\":2261:2275   */\n      swap1\n      pop\n        /* \"#utility.yul\":2226:2464   */\n      jump(tag_372)\n    tag_374:\n        /* \"#utility.yul\":2230:2244   */\n      pop\n        /* \"#utility.yul\":1850:2470   */\n      pop\n      pop\n        /* \"#utility.yul\":1748:2470   */\n      swap4\n      swap3\n      pop\n      pop\n      pop\n      jump\t// out\n        /* \"#utility.yul\":2476:2888   */\n    tag_377:\n        /* \"#utility.yul\":2554:2559   */\n      0x00\n        /* \"#utility.yul\":2579:2645   */\n      tag_379\n        /* \"#utility.yul\":2595:2644   */\n      tag_380\n        /* \"#utility.yul\":2637:2643   */\n      dup5\n        /* \"#utility.yul\":2595:2644   */\n      tag_381\n      jump\t// in\n    tag_380:\n        /* \"#utility.yul\":2579:2645   */\n      tag_341\n      jump\t// in\n    tag_379:\n        /* \"#utility.yul\":2570:2645   */\n      swap1\n      pop\n        /* \"#utility.yul\":2668:2674   */\n      dup3\n        /* \"#utility.yul\":2661:2666   */\n      dup2\n        /* \"#utility.yul\":2654:2675   */\n      mstore\n        /* \"#utility.yul\":2706:2710   */\n      0x20\n        /* \"#utility.yul\":2699:2704   */\n      dup2\n        /* \"#utility.yul\":2695:2711   */\n      add\n        /* \"#utility.yul\":2744:2747   */\n      dup5\n        /* \"#utility.yul\":2735:2741   */\n      dup5\n        /* \"#utility.yul\":2730:2733   */\n      dup5\n        /* \"#utility.yul\":2726:2742   */\n      add\n        /* \"#utility.yul\":2723:2748   */\n      gt\n        /* \"#utility.yul\":2720:2832   */\n      iszero\n      tag_382\n      jumpi\n        /* \"#utility.yul\":2751:2830   */\n      tag_383\n      tag_384\n      jump\t// in\n    tag_383:\n        /* \"#utility.yul\":2720:2832   */\n    tag_382:\n        /* \"#utility.yul\":2841:2882   */\n      tag_385\n        /* \"#utility.yul\":2875:2881   */\n      dup5\n        /* \"#utility.yul\":2870:2873   */\n      dup3\n        /* \"#utility.yul\":2865:2868   */\n      dup6\n        /* \"#utility.yul\":2841:2882   */\n      tag_386\n      jump\t// in\n    tag_385:\n        /* \"#utility.yul\":2560:2888   */\n      pop\n        /* \"#utility.yul\":2476:2888   */\n      swap4\n      swap3\n      pop\n      pop\n      pop\n      jump\t// out\n        /* \"#utility.yul\":2894:3033   */\n    tag_349:\n        /* \"#utility.yul\":2940:2945   */\n      0x00\n        /* \"#utility.yul\":2978:2984   */\n      dup2\n        /* \"#utility.yul\":2965:2985   */\n      calldataload\n        /* \"#utility.yul\":2956:2985   */\n      swap1\n      pop\n        /* \"#utility.yul\":2994:3027   */\n      tag_388\n        /* \"#utility.yul\":3021:3026   */\n      dup2\n        /* \"#utility.yul\":2994:3027   */\n      tag_389\n      jump\t// in\n    tag_388:\n        /* \"#utility.yul\":2894:3033   */\n      swap3\n      swap2\n      pop\n      pop\n      jump\t// out\n        /* \"#utility.yul\":3056:3426   */\n    tag_390:\n        /* \"#utility.yul\":3127:3132   */\n      0x00\n        /* \"#utility.yul\":3176:3179   */\n      dup3\n        /* \"#utility.yul\":3169:3173   */\n      0x1f\n        /* \"#utility.yul\":3161:3167   */\n      dup4\n        /* \"#utility.yul\":3157:3174   */\n      add\n        /* \"#utility.yul\":3153:3180   */\n      slt\n        /* \"#utility.yul\":3143:3265   */\n      tag_392\n      jumpi\n        /* \"#utility.yul\":3184:3263   */\n      tag_393\n      tag_362\n      jump\t// in\n    tag_393:\n        /* \"#utility.yul\":3143:3265   */\n    tag_392:\n        /* \"#utility.yul\":3301:3307   */\n      dup2\n        /* \"#utility.yul\":3288:3308   */\n      calldataload\n        /* \"#utility.yul\":3326:3420   */\n      tag_394\n        /* \"#utility.yul\":3416:3419   */\n      dup5\n        /* \"#utility.yul\":3408:3414   */\n      dup3\n        /* \"#utility.yul\":3401:3405   */\n      0x20\n        /* \"#utility.yul\":3393:3399   */\n      dup7\n        /* \"#utility.yul\":3389:3406   */\n      add\n        /* \"#utility.yul\":3326:3420   */\n      tag_336\n      jump\t// in\n    tag_394:\n        /* \"#utility.yul\":3317:3420   */\n      swap2\n      pop\n        /* \"#utility.yul\":3133:3426   */\n      pop\n        /* \"#utility.yul\":3056:3426   */\n      swap3\n      swap2\n      pop\n      pop\n      jump\t// out\n        /* \"#utility.yul\":3448:4028   */\n    tag_395:\n        /* \"#utility.yul\":3533:3541   */\n      0x00\n        /* \"#utility.yul\":3543:3549   */\n      dup1\n        /* \"#utility.yul\":3593:3596   */\n      dup4\n        /* \"#utility.yul\":3586:3590   */\n      0x1f\n        /* \"#utility.yul\":3578:3584   */\n      dup5\n        /* \"#utility.yul\":3574:3591   */\n      add\n        /* \"#utility.yul\":3570:3597   */\n      slt\n        /* \"#utility.yul\":3560:3682   */\n      tag_397\n      jumpi\n        /* \"#utility.yul\":3601:3680   */\n      tag_398\n      tag_362\n      jump\t// in\n    tag_398:\n        /* \"#utility.yul\":3560:3682   */\n    tag_397:\n        /* \"#utility.yul\":3714:3720   */\n      dup3\n        /* \"#utility.yul\":3701:3721   */\n      calldataload\n        /* \"#utility.yul\":3691:3721   */\n      swap1\n      pop\n        /* \"#utility.yul\":3744:3762   */\n      0xffffffffffffffff\n        /* \"#utility.yul\":3736:3742   */\n      dup2\n        /* \"#utility.yul\":3733:3763   */\n      gt\n        /* \"#utility.yul\":3730:3847   */\n      iszero\n      tag_399\n      jumpi\n        /* \"#utility.yul\":3766:3845   */\n      tag_400\n      tag_401\n      jump\t// in\n    tag_400:\n        /* \"#utility.yul\":3730:3847   */\n    tag_399:\n        /* \"#utility.yul\":3880:3884   */\n      0x20\n        /* \"#utility.yul\":3872:3878   */\n      dup4\n        /* \"#utility.yul\":3868:3885   */\n      add\n        /* \"#utility.yul\":3856:3885   */\n      swap2\n      pop\n        /* \"#utility.yul\":3934:3937   */\n      dup4\n        /* \"#utility.yul\":3926:3930   */\n      0x20\n        /* \"#utility.yul\":3918:3924   */\n      dup3\n        /* \"#utility.yul\":3914:3931   */\n      mul\n        /* \"#utility.yul\":3904:3912   */\n      dup4\n        /* \"#utility.yul\":3900:3932   */\n      add\n        /* \"#utility.yul\":3897:3938   */\n      gt\n        /* \"#utility.yul\":3894:4022   */\n      iszero\n      tag_402\n      jumpi\n        /* \"#utility.yul\":3941:4020   */\n      tag_403\n      tag_344\n      jump\t// in\n    tag_403:\n        /* \"#utility.yul\":3894:4022   */\n    tag_402:\n        /* \"#utility.yul\":3448:4028   */\n      swap3\n      pop\n      swap3\n      swap1\n      pop\n      jump\t// out\n        /* \"#utility.yul\":4050:4440   */\n    tag_404:\n        /* \"#utility.yul\":4131:4136   */\n      0x00\n        /* \"#utility.yul\":4180:4183   */\n      dup3\n        /* \"#utility.yul\":4173:4177   */\n      0x1f\n        /* \"#utility.yul\":4165:4171   */\n      dup4\n        /* \"#utility.yul\":4161:4178   */\n      add\n        /* \"#utility.yul\":4157:4184   */\n      slt\n        /* \"#utility.yul\":4147:4269   */\n      tag_406\n      jumpi\n        /* \"#utility.yul\":4188:4267   */\n      tag_407\n      tag_362\n      jump\t// in\n    tag_407:\n        /* \"#utility.yul\":4147:4269   */\n    tag_406:\n        /* \"#utility.yul\":4305:4311   */\n      dup2\n        /* \"#utility.yul\":4292:4312   */\n      calldataload\n        /* \"#utility.yul\":4330:4434   */\n      tag_408\n        /* \"#utility.yul\":4430:4433   */\n      dup5\n        /* \"#utility.yul\":4422:4428   */\n      dup3\n        /* \"#utility.yul\":4415:4419   */\n      0x20\n        /* \"#utility.yul\":4407:4413   */\n      dup7\n        /* \"#utility.yul\":4403:4420   */\n      add\n        /* \"#utility.yul\":4330:4434   */\n      tag_350\n      jump\t// in\n    tag_408:\n        /* \"#utility.yul\":4321:4434   */\n      swap2\n      pop\n        /* \"#utility.yul\":4137:4440   */\n      pop\n        /* \"#utility.yul\":4050:4440   */\n      swap3\n      swap2\n      pop\n      pop\n      jump\t// out\n        /* \"#utility.yul\":4463:4833   */\n    tag_409:\n        /* \"#utility.yul\":4534:4539   */\n      0x00\n        /* \"#utility.yul\":4583:4586   */\n      dup3\n        /* \"#utility.yul\":4576:4580   */\n      0x1f\n        /* \"#utility.yul\":4568:4574   */\n      dup4\n        /* \"#utility.yul\":4564:4581   */\n      add\n        /* \"#utility.yul\":4560:4587   */\n      slt\n        /* \"#utility.yul\":4550:4672   */\n      tag_411\n      jumpi\n        /* \"#utility.yul\":4591:4670   */\n      tag_412\n      tag_362\n      jump\t// in\n    tag_412:\n        /* \"#utility.yul\":4550:4672   */\n    tag_411:\n        /* \"#utility.yul\":4708:4714   */\n      dup2\n        /* \"#utility.yul\":4695:4715   */\n      calldataload\n        /* \"#utility.yul\":4733:4827   */\n      tag_413\n        /* \"#utility.yul\":4823:4826   */\n      dup5\n        /* \"#utility.yul\":4815:4821   */\n      dup3\n        /* \"#utility.yul\":4808:4812   */\n      0x20\n        /* \"#utility.yul\":4800:4806   */\n      dup7\n        /* \"#utility.yul\":4796:4813   */\n      add\n        /* \"#utility.yul\":4733:4827   */\n      tag_365\n      jump\t// in\n    tag_413:\n        /* \"#utility.yul\":4724:4827   */\n      swap2\n      pop\n        /* \"#utility.yul\":4540:4833   */\n      pop\n        /* \"#utility.yul\":4463:4833   */\n      swap3\n      swap2\n      pop\n      pop\n      jump\t// out\n        /* \"#utility.yul\":4853:5193   */\n    tag_364:\n        /* \"#utility.yul\":4909:4914   */\n      0x00\n        /* \"#utility.yul\":4958:4961   */\n      dup3\n        /* \"#utility.yul\":4951:4955   */\n      0x1f\n        /* \"#utility.yul\":4943:4949   */\n      dup4\n        /* \"#utility.yul\":4939:4956   */\n      add\n        /* \"#utility.yul\":4935:4962   */\n      slt\n        /* \"#utility.yul\":4925:5047   */\n      tag_415\n      jumpi\n        /* \"#utility.yul\":4966:5045   */\n      tag_416\n      tag_362\n      jump\t// in\n    tag_416:\n        /* \"#utility.yul\":4925:5047   */\n    tag_415:\n        /* \"#utility.yul\":5083:5089   */\n      dup2\n        /* \"#utility.yul\":5070:5090   */\n      calldataload\n        /* \"#utility.yul\":5108:5187   */\n      tag_417\n        /* \"#utility.yul\":5183:5186   */\n      dup5\n        /* \"#utility.yul\":5175:5181   */\n      dup3\n        /* \"#utility.yul\":5168:5172   */\n      0x20\n        /* \"#utility.yul\":5160:5166   */\n      dup7\n        /* \"#utility.yul\":5156:5173   */\n      add\n        /* \"#utility.yul\":5108:5187   */\n      tag_377\n      jump\t// in\n    tag_417:\n        /* \"#utility.yul\":5099:5187   */\n      swap2\n      pop\n        /* \"#utility.yul\":4915:5193   */\n      pop\n        /* \"#utility.yul\":4853:5193   */\n      swap3\n      swap2\n      pop\n      pop\n      jump\t// out\n        /* \"#utility.yul\":5199:5338   */\n    tag_376:\n        /* \"#utility.yul\":5245:5250   */\n      0x00\n        /* \"#utility.yul\":5283:5289   */\n      dup2\n        /* \"#utility.yul\":5270:5290   */\n      calldataload\n        /* \"#utility.yul\":5261:5290   */\n      swap1\n      pop\n        /* \"#utility.yul\":5299:5332   */\n      tag_419\n        /* \"#utility.yul\":5326:5331   */\n      dup2\n        /* \"#utility.yul\":5299:5332   */\n      tag_420\n      jump\t// in\n    tag_419:\n        /* \"#utility.yul\":5199:5338   */\n      swap3\n      swap2\n      pop\n      pop\n      jump\t// out\n        /* \"#utility.yul\":5344:5479   */\n    tag_421:\n        /* \"#utility.yul\":5388:5393   */\n      0x00\n        /* \"#utility.yul\":5426:5432   */\n      dup2\n        /* \"#utility.yul\":5413:5433   */\n      calldataload\n        /* \"#utility.yul\":5404:5433   */\n      swap1\n      pop\n        /* \"#utility.yul\":5442:5473   */\n      tag_423\n        /* \"#utility.yul\":5467:5472   */\n      dup2\n        /* \"#utility.yul\":5442:5473   */\n      tag_424\n      jump\t// in\n    tag_423:\n        /* \"#utility.yul\":5344:5479   */\n      swap3\n      swap2\n      pop\n      pop\n      jump\t// out\n        /* \"#utility.yul\":5485:5814   */\n    tag_50:\n        /* \"#utility.yul\":5544:5550   */\n      0x00\n        /* \"#utility.yul\":5593:5595   */\n      0x20\n        /* \"#utility.yul\":5581:5590   */\n      dup3\n        /* \"#utility.yul\":5572:5579   */\n      dup5\n        /* \"#utility.yul\":5568:5591   */\n      sub\n        /* \"#utility.yul\":5564:5596   */\n      slt\n        /* \"#utility.yul\":5561:5680   */\n      iszero\n      tag_426\n      jumpi\n        /* \"#utility.yul\":5599:5678   */\n      tag_427\n      tag_428\n      jump\t// in\n    tag_427:\n        /* \"#utility.yul\":5561:5680   */\n    tag_426:\n        /* \"#utility.yul\":5719:5720   */\n      0x00\n        /* \"#utility.yul\":5744:5797   */\n      tag_429\n        /* \"#utility.yul\":5789:5796   */\n      dup5\n        /* \"#utility.yul\":5780:5786   */\n      dup3\n        /* \"#utility.yul\":5769:5778   */\n      dup6\n        /* \"#utility.yul\":5765:5787   */\n      add\n        /* \"#utility.yul\":5744:5797   */\n      tag_349\n      jump\t// in\n    tag_429:\n        /* \"#utility.yul\":5734:5797   */\n      swap2\n      pop\n        /* \"#utility.yul\":5690:5807   */\n      pop\n        /* \"#utility.yul\":5485:5814   */\n      swap3\n      swap2\n      pop\n      pop\n      jump\t// out\n        /* \"#utility.yul\":5820:6294   */\n    tag_63:\n        /* \"#utility.yul\":5888:5894   */\n      0x00\n        /* \"#utility.yul\":5896:5902   */\n      dup1\n        /* \"#utility.yul\":5945:5947   */\n      0x40\n        /* \"#utility.yul\":5933:5942   */\n      dup4\n        /* \"#utility.yul\":5924:5931   */\n      dup6\n        /* \"#utility.yul\":5920:5943   */\n      sub\n        /* \"#utility.yul\":5916:5948   */\n      slt\n        /* \"#utility.yul\":5913:6032   */\n      iszero\n      tag_431\n      jumpi\n        /* \"#utility.yul\":5951:6030   */\n      tag_432\n      tag_428\n      jump\t// in\n    tag_432:\n        /* \"#utility.yul\":5913:6032   */\n    tag_431:\n        /* \"#utility.yul\":6071:6072   */\n      0x00\n        /* \"#utility.yul\":6096:6149   */\n      tag_433\n        /* \"#utility.yul\":6141:6148   */\n      dup6\n        /* \"#utility.yul\":6132:6138   */\n      dup3\n        /* \"#utility.yul\":6121:6130   */\n      dup7\n        /* \"#utility.yul\":6117:6139   */\n      add\n        /* \"#utility.yul\":6096:6149   */\n      tag_349\n      jump\t// in\n    tag_433:\n        /* \"#utility.yul\":6086:6149   */\n      swap3\n      pop\n        /* \"#utility.yul\":6042:6159   */\n      pop\n        /* \"#utility.yul\":6198:6200   */\n      0x20\n        /* \"#utility.yul\":6224:6277   */\n      tag_434\n        /* \"#utility.yul\":6269:6276   */\n      dup6\n        /* \"#utility.yul\":6260:6266   */\n      dup3\n        /* \"#utility.yul\":6249:6258   */\n      dup7\n        /* \"#utility.yul\":6245:6267   */\n      add\n        /* \"#utility.yul\":6224:6277   */\n      tag_376\n      jump\t// in\n    tag_434:\n        /* \"#utility.yul\":6214:6277   */\n      swap2\n      pop\n        /* \"#utility.yul\":6169:6287   */\n      pop\n        /* \"#utility.yul\":5820:6294   */\n      swap3\n      pop\n      swap3\n      swap1\n      pop\n      jump\t// out\n        /* \"#utility.yul\":6300:6629   */\n    tag_18:\n        /* \"#utility.yul\":6359:6365   */\n      0x00\n        /* \"#utility.yul\":6408:6410   */\n      0x20\n        /* \"#utility.yul\":6396:6405   */\n      dup3\n        /* \"#utility.yul\":6387:6394   */\n      dup5\n        /* \"#utility.yul\":6383:6406   */\n      sub\n        /* \"#utility.yul\":6379:6411   */\n      slt\n        /* \"#utility.yul\":6376:6495   */\n      iszero\n      tag_436\n      jumpi\n        /* \"#utility.yul\":6414:6493   */\n      tag_437\n      tag_428\n      jump\t// in\n    tag_437:\n        /* \"#utility.yul\":6376:6495   */\n    tag_436:\n        /* \"#utility.yul\":6534:6535   */\n      0x00\n        /* \"#utility.yul\":6559:6612   */\n      tag_438\n        /* \"#utility.yul\":6604:6611   */\n      dup5\n        /* \"#utility.yul\":6595:6601   */\n      dup3\n        /* \"#utility.yul\":6584:6593   */\n      dup6\n        /* \"#utility.yul\":6580:6602   */\n      add\n        /* \"#utility.yul\":6559:6612   */\n      tag_376\n      jump\t// in\n    tag_438:\n        /* \"#utility.yul\":6549:6612   */\n      swap2\n      pop\n        /* \"#utility.yul\":6505:6622   */\n      pop\n        /* \"#utility.yul\":6300:6629   */\n      swap3\n      swap2\n      pop\n      pop\n      jump\t// out\n        /* \"#utility.yul\":6635:7109   */\n    tag_44:\n        /* \"#utility.yul\":6703:6709   */\n      0x00\n        /* \"#utility.yul\":6711:6717   */\n      dup1\n        /* \"#utility.yul\":6760:6762   */\n      0x40\n        /* \"#utility.yul\":6748:6757   */\n      dup4\n        /* \"#utility.yul\":6739:6746   */\n      dup6\n        /* \"#utility.yul\":6735:6758   */\n      sub\n        /* \"#utility.yul\":6731:6763   */\n      slt\n        /* \"#utility.yul\":6728:6847   */\n      iszero\n      tag_440\n      jumpi\n        /* \"#utility.yul\":6766:6845   */\n      tag_441\n      tag_428\n      jump\t// in\n    tag_441:\n        /* \"#utility.yul\":6728:6847   */\n    tag_440:\n        /* \"#utility.yul\":6886:6887   */\n      0x00\n        /* \"#utility.yul\":6911:6964   */\n      tag_442\n        /* \"#utility.yul\":6956:6963   */\n      dup6\n        /* \"#utility.yul\":6947:6953   */\n      dup3\n        /* \"#utility.yul\":6936:6945   */\n      dup7\n        /* \"#utility.yul\":6932:6954   */\n      add\n        /* \"#utility.yul\":6911:6964   */\n      tag_376\n      jump\t// in\n    tag_442:\n        /* \"#utility.yul\":6901:6964   */\n      swap3\n      pop\n        /* \"#utility.yul\":6857:6974   */\n      pop\n        /* \"#utility.yul\":7013:7015   */\n      0x20\n        /* \"#utility.yul\":7039:7092   */\n      tag_443\n        /* \"#utility.yul\":7084:7091   */\n      dup6\n        /* \"#utility.yul\":7075:7081   */\n      dup3\n        /* \"#utility.yul\":7064:7073   */\n      dup7\n        /* \"#utility.yul\":7060:7082   */\n      add\n        /* \"#utility.yul\":7039:7092   */\n      tag_349\n      jump\t// in\n    tag_443:\n        /* \"#utility.yul\":7029:7092   */\n      swap2\n      pop\n        /* \"#utility.yul\":6984:7102   */\n      pop\n        /* \"#utility.yul\":6635:7109   */\n      swap3\n      pop\n      swap3\n      swap1\n      pop\n      jump\t// out\n        /* \"#utility.yul\":7115:8320   */\n    tag_40:\n        /* \"#utility.yul\":7261:7267   */\n      0x00\n        /* \"#utility.yul\":7269:7275   */\n      dup1\n        /* \"#utility.yul\":7277:7283   */\n      0x00\n        /* \"#utility.yul\":7285:7291   */\n      dup1\n        /* \"#utility.yul\":7334:7337   */\n      0x80\n        /* \"#utility.yul\":7322:7331   */\n      dup6\n        /* \"#utility.yul\":7313:7320   */\n      dup8\n        /* \"#utility.yul\":7309:7332   */\n      sub\n        /* \"#utility.yul\":7305:7338   */\n      slt\n        /* \"#utility.yul\":7302:7422   */\n      iszero\n      tag_445\n      jumpi\n        /* \"#utility.yul\":7341:7420   */\n      tag_446\n      tag_428\n      jump\t// in\n    tag_446:\n        /* \"#utility.yul\":7302:7422   */\n    tag_445:\n        /* \"#utility.yul\":7461:7462   */\n      0x00\n        /* \"#utility.yul\":7486:7539   */\n      tag_447\n        /* \"#utility.yul\":7531:7538   */\n      dup8\n        /* \"#utility.yul\":7522:7528   */\n      dup3\n        /* \"#utility.yul\":7511:7520   */\n      dup9\n        /* \"#utility.yul\":7507:7529   */\n      add\n        /* \"#utility.yul\":7486:7539   */\n      tag_376\n      jump\t// in\n    tag_447:\n        /* \"#utility.yul\":7476:7539   */\n      swap5\n      pop\n        /* \"#utility.yul\":7432:7549   */\n      pop\n        /* \"#utility.yul\":7588:7590   */\n      0x20\n        /* \"#utility.yul\":7614:7667   */\n      tag_448\n        /* \"#utility.yul\":7659:7666   */\n      dup8\n        /* \"#utility.yul\":7650:7656   */\n      dup3\n        /* \"#utility.yul\":7639:7648   */\n      dup9\n        /* \"#utility.yul\":7635:7657   */\n      add\n        /* \"#utility.yul\":7614:7667   */\n      tag_349\n      jump\t// in\n    tag_448:\n        /* \"#utility.yul\":7604:7667   */\n      swap4\n      pop\n        /* \"#utility.yul\":7559:7677   */\n      pop\n        /* \"#utility.yul\":7744:7746   */\n      0x40\n        /* \"#utility.yul\":7733:7742   */\n      dup6\n        /* \"#utility.yul\":7729:7747   */\n      add\n        /* \"#utility.yul\":7716:7748   */\n      calldataload\n        /* \"#utility.yul\":7775:7793   */\n      0xffffffffffffffff\n        /* \"#utility.yul\":7767:7773   */\n      dup2\n        /* \"#utility.yul\":7764:7794   */\n      gt\n        /* \"#utility.yul\":7761:7878   */\n      iszero\n      tag_449\n      jumpi\n        /* \"#utility.yul\":7797:7876   */\n      tag_450\n      tag_451\n      jump\t// in\n    tag_450:\n        /* \"#utility.yul\":7761:7878   */\n    tag_449:\n        /* \"#utility.yul\":7902:7990   */\n      tag_452\n        /* \"#utility.yul\":7982:7989   */\n      dup8\n        /* \"#utility.yul\":7973:7979   */\n      dup3\n        /* \"#utility.yul\":7962:7971   */\n      dup9\n        /* \"#utility.yul\":7958:7980   */\n      add\n        /* \"#utility.yul\":7902:7990   */\n      tag_404\n      jump\t// in\n    tag_452:\n        /* \"#utility.yul\":7892:7990   */\n      swap3\n      pop\n        /* \"#utility.yul\":7687:8000   */\n      pop\n        /* \"#utility.yul\":8067:8069   */\n      0x60\n        /* \"#utility.yul\":8056:8065   */\n      dup6\n        /* \"#utility.yul\":8052:8070   */\n      add\n        /* \"#utility.yul\":8039:8071   */\n      calldataload\n        /* \"#utility.yul\":8098:8116   */\n      0xffffffffffffffff\n        /* \"#utility.yul\":8090:8096   */\n      dup2\n        /* \"#utility.yul\":8087:8117   */\n      gt\n        /* \"#utility.yul\":8084:8201   */\n      iszero\n      tag_453\n      jumpi\n        /* \"#utility.yul\":8120:8199   */\n      tag_454\n      tag_451\n      jump\t// in\n    tag_454:\n        /* \"#utility.yul\":8084:8201   */\n    tag_453:\n        /* \"#utility.yul\":8225:8303   */\n      tag_455\n        /* \"#utility.yul\":8295:8302   */\n      dup8\n        /* \"#utility.yul\":8286:8292   */\n      dup3\n        /* \"#utility.yul\":8275:8284   */\n      dup9\n        /* \"#utility.yul\":8271:8293   */\n      add\n        /* \"#utility.yul\":8225:8303   */\n      tag_409\n      jump\t// in\n    tag_455:\n        /* \"#utility.yul\":8215:8303   */\n      swap2\n      pop\n        /* \"#utility.yul\":8010:8313   */\n      pop\n        /* \"#utility.yul\":7115:8320   */\n      swap3\n      swap6\n      swap2\n      swap5\n      pop\n      swap3\n      pop\n      jump\t// out\n        /* \"#utility.yul\":8326:10315   */\n    tag_36:\n        /* \"#utility.yul\":8520:8526   */\n      0x00\n        /* \"#utility.yul\":8528:8534   */\n      dup1\n        /* \"#utility.yul\":8536:8542   */\n      0x00\n        /* \"#utility.yul\":8544:8550   */\n      dup1\n        /* \"#utility.yul\":8552:8558   */\n      0x00\n        /* \"#utility.yul\":8560:8566   */\n      dup1\n        /* \"#utility.yul\":8568:8574   */\n      0x00\n        /* \"#utility.yul\":8576:8582   */\n      dup1\n        /* \"#utility.yul\":8584:8590   */\n      0x00\n        /* \"#utility.yul\":8633:8636   */\n      0x0100\n        /* \"#utility.yul\":8621:8630   */\n      dup11\n        /* \"#utility.yul\":8612:8619   */\n      dup13\n        /* \"#utility.yul\":8608:8631   */\n      sub\n        /* \"#utility.yul\":8604:8637   */\n      slt\n        /* \"#utility.yul\":8601:8721   */\n      iszero\n      tag_457\n      jumpi\n        /* \"#utility.yul\":8640:8719   */\n      tag_458\n      tag_428\n      jump\t// in\n    tag_458:\n        /* \"#utility.yul\":8601:8721   */\n    tag_457:\n        /* \"#utility.yul\":8760:8761   */\n      0x00\n        /* \"#utility.yul\":8785:8836   */\n      tag_459\n        /* \"#utility.yul\":8828:8835   */\n      dup13\n        /* \"#utility.yul\":8819:8825   */\n      dup3\n        /* \"#utility.yul\":8808:8817   */\n      dup14\n        /* \"#utility.yul\":8804:8826   */\n      add\n        /* \"#utility.yul\":8785:8836   */\n      tag_421\n      jump\t// in\n    tag_459:\n        /* \"#utility.yul\":8775:8836   */\n      swap10\n      pop\n        /* \"#utility.yul\":8731:8846   */\n      pop\n        /* \"#utility.yul\":8913:8915   */\n      0x20\n        /* \"#utility.yul\":8902:8911   */\n      dup11\n        /* \"#utility.yul\":8898:8916   */\n      add\n        /* \"#utility.yul\":8885:8917   */\n      calldataload\n        /* \"#utility.yul\":8944:8962   */\n      0xffffffffffffffff\n        /* \"#utility.yul\":8936:8942   */\n      dup2\n        /* \"#utility.yul\":8933:8963   */\n      gt\n        /* \"#utility.yul\":8930:9047   */\n      iszero\n      tag_460\n      jumpi\n        /* \"#utility.yul\":8966:9045   */\n      tag_461\n      tag_451\n      jump\t// in\n    tag_461:\n        /* \"#utility.yul\":8930:9047   */\n    tag_460:\n        /* \"#utility.yul\":9071:9149   */\n      tag_462\n        /* \"#utility.yul\":9141:9148   */\n      dup13\n        /* \"#utility.yul\":9132:9138   */\n      dup3\n        /* \"#utility.yul\":9121:9130   */\n      dup14\n        /* \"#utility.yul\":9117:9139   */\n      add\n        /* \"#utility.yul\":9071:9149   */\n      tag_390\n      jump\t// in\n    tag_462:\n        /* \"#utility.yul\":9061:9149   */\n      swap9\n      pop\n        /* \"#utility.yul\":8856:9159   */\n      pop\n        /* \"#utility.yul\":9198:9200   */\n      0x40\n        /* \"#utility.yul\":9224:9277   */\n      tag_463\n        /* \"#utility.yul\":9269:9276   */\n      dup13\n        /* \"#utility.yul\":9260:9266   */\n      dup3\n        /* \"#utility.yul\":9249:9258   */\n      dup14\n        /* \"#utility.yul\":9245:9267   */\n      add\n        /* \"#utility.yul\":9224:9277   */\n      tag_349\n      jump\t// in\n    tag_463:\n        /* \"#utility.yul\":9214:9277   */\n      swap8\n      pop\n        /* \"#utility.yul\":9169:9287   */\n      pop\n        /* \"#utility.yul\":9326:9328   */\n      0x60\n        /* \"#utility.yul\":9352:9405   */\n      tag_464\n        /* \"#utility.yul\":9397:9404   */\n      dup13\n        /* \"#utility.yul\":9388:9394   */\n      dup3\n        /* \"#utility.yul\":9377:9386   */\n      dup14\n        /* \"#utility.yul\":9373:9395   */\n      add\n        /* \"#utility.yul\":9352:9405   */\n      tag_376\n      jump\t// in\n    tag_464:\n        /* \"#utility.yul\":9342:9405   */\n      swap7\n      pop\n        /* \"#utility.yul\":9297:9415   */\n      pop\n        /* \"#utility.yul\":9454:9457   */\n      0x80\n        /* \"#utility.yul\":9481:9534   */\n      tag_465\n        /* \"#utility.yul\":9526:9533   */\n      dup13\n        /* \"#utility.yul\":9517:9523   */\n      dup3\n        /* \"#utility.yul\":9506:9515   */\n      dup14\n        /* \"#utility.yul\":9502:9524   */\n      add\n        /* \"#utility.yul\":9481:9534   */\n      tag_376\n      jump\t// in\n    tag_465:\n        /* \"#utility.yul\":9471:9534   */\n      swap6\n      pop\n        /* \"#utility.yul\":9425:9544   */\n      pop\n        /* \"#utility.yul\":9611:9614   */\n      0xa0\n        /* \"#utility.yul\":9600:9609   */\n      dup11\n        /* \"#utility.yul\":9596:9615   */\n      add\n        /* \"#utility.yul\":9583:9616   */\n      calldataload\n        /* \"#utility.yul\":9643:9661   */\n      0xffffffffffffffff\n        /* \"#utility.yul\":9635:9641   */\n      dup2\n        /* \"#utility.yul\":9632:9662   */\n      gt\n        /* \"#utility.yul\":9629:9746   */\n      iszero\n      tag_466\n      jumpi\n        /* \"#utility.yul\":9665:9744   */\n      tag_467\n      tag_451\n      jump\t// in\n    tag_467:\n        /* \"#utility.yul\":9629:9746   */\n    tag_466:\n        /* \"#utility.yul\":9770:9833   */\n      tag_468\n        /* \"#utility.yul\":9825:9832   */\n      dup13\n        /* \"#utility.yul\":9816:9822   */\n      dup3\n        /* \"#utility.yul\":9805:9814   */\n      dup14\n        /* \"#utility.yul\":9801:9823   */\n      add\n        /* \"#utility.yul\":9770:9833   */\n      tag_364\n      jump\t// in\n    tag_468:\n        /* \"#utility.yul\":9760:9833   */\n      swap5\n      pop\n        /* \"#utility.yul\":9554:9843   */\n      pop\n        /* \"#utility.yul\":9910:9913   */\n      0xc0\n        /* \"#utility.yul\":9899:9908   */\n      dup11\n        /* \"#utility.yul\":9895:9914   */\n      add\n        /* \"#utility.yul\":9882:9915   */\n      calldataload\n        /* \"#utility.yul\":9942:9960   */\n      0xffffffffffffffff\n        /* \"#utility.yul\":9934:9940   */\n      dup2\n        /* \"#utility.yul\":9931:9961   */\n      gt\n        /* \"#utility.yul\":9928:10045   */\n      iszero\n      tag_469\n      jumpi\n        /* \"#utility.yul\":9964:10043   */\n      tag_470\n      tag_451\n      jump\t// in\n    tag_470:\n        /* \"#utility.yul\":9928:10045   */\n    tag_469:\n        /* \"#utility.yul\":10077:10169   */\n      tag_471\n        /* \"#utility.yul\":10161:10168   */\n      dup13\n        /* \"#utility.yul\":10152:10158   */\n      dup3\n        /* \"#utility.yul\":10141:10150   */\n      dup14\n        /* \"#utility.yul\":10137:10159   */\n      add\n        /* \"#utility.yul\":10077:10169   */\n      tag_395\n      jump\t// in\n    tag_471:\n        /* \"#utility.yul\":10059:10169   */\n      swap4\n      pop\n      swap4\n      pop\n        /* \"#utility.yul\":9853:10179   */\n      pop\n        /* \"#utility.yul\":10218:10221   */\n      0xe0\n        /* \"#utility.yul\":10245:10298   */\n      tag_472\n        /* \"#utility.yul\":10290:10297   */\n      dup13\n        /* \"#utility.yul\":10281:10287   */\n      dup3\n        /* \"#utility.yul\":10270:10279   */\n      dup14\n        /* \"#utility.yul\":10266:10288   */\n      add\n        /* \"#utility.yul\":10245:10298   */\n      tag_376\n      jump\t// in\n    tag_472:\n        /* \"#utility.yul\":10235:10298   */\n      swap2\n      pop\n        /* \"#utility.yul\":10189:10308   */\n      pop\n        /* \"#utility.yul\":8326:10315   */\n      swap3\n      swap6\n      swap9\n      pop\n      swap3\n      swap6\n      swap9\n      pop\n      swap3\n      swap6\n      swap9\n      jump\t// out\n        /* \"#utility.yul\":10321:10500   */\n    tag_473:\n        /* \"#utility.yul\":10390:10400   */\n      0x00\n        /* \"#utility.yul\":10411:10457   */\n      tag_475\n        /* \"#utility.yul\":10453:10456   */\n      dup4\n        /* \"#utility.yul\":10445:10451   */\n      dup4\n        /* \"#utility.yul\":10411:10457   */\n      tag_476\n      jump\t// in\n    tag_475:\n        /* \"#utility.yul\":10489:10493   */\n      0x20\n        /* \"#utility.yul\":10484:10487   */\n      dup4\n        /* \"#utility.yul\":10480:10494   */\n      add\n        /* \"#utility.yul\":10466:10494   */\n      swap1\n      pop\n        /* \"#utility.yul\":10321:10500   */\n      swap3\n      swap2\n      pop\n      pop\n      jump\t// out\n        /* \"#utility.yul\":10506:10722   */\n    tag_477:\n        /* \"#utility.yul\":10605:10615   */\n      0x00\n        /* \"#utility.yul\":10640:10716   */\n      tag_479\n        /* \"#utility.yul\":10712:10715   */\n      dup5\n        /* \"#utility.yul\":10704:10710   */\n      dup5\n        /* \"#utility.yul\":10696:10702   */\n      dup5\n        /* \"#utility.yul\":10640:10716   */\n      tag_480\n      jump\t// in\n    tag_479:\n        /* \"#utility.yul\":10626:10716   */\n      swap1\n      pop\n        /* \"#utility.yul\":10506:10722   */\n      swap4\n      swap3\n      pop\n      pop\n      pop\n      jump\t// out\n        /* \"#utility.yul\":10728:10836   */\n    tag_476:\n        /* \"#utility.yul\":10805:10829   */\n      tag_482\n        /* \"#utility.yul\":10823:10828   */\n      dup2\n        /* \"#utility.yul\":10805:10829   */\n      tag_483\n      jump\t// in\n    tag_482:\n        /* \"#utility.yul\":10800:10803   */\n      dup3\n        /* \"#utility.yul\":10793:10830   */\n      mstore\n        /* \"#utility.yul\":10728:10836   */\n      pop\n      pop\n      jump\t// out\n        /* \"#utility.yul\":10842:10960   */\n    tag_484:\n        /* \"#utility.yul\":10929:10953   */\n      tag_486\n        /* \"#utility.yul\":10947:10952   */\n      dup2\n        /* \"#utility.yul\":10929:10953   */\n      tag_483\n      jump\t// in\n    tag_486:\n        /* \"#utility.yul\":10924:10927   */\n      dup3\n        /* \"#utility.yul\":10917:10954   */\n      mstore\n        /* \"#utility.yul\":10842:10960   */\n      pop\n      pop\n      jump\t// out\n        /* \"#utility.yul\":10996:11728   */\n    tag_487:\n        /* \"#utility.yul\":11115:11118   */\n      0x00\n        /* \"#utility.yul\":11144:11198   */\n      tag_489\n        /* \"#utility.yul\":11192:11197   */\n      dup3\n        /* \"#utility.yul\":11144:11198   */\n      tag_490\n      jump\t// in\n    tag_489:\n        /* \"#utility.yul\":11214:11300   */\n      tag_491\n        /* \"#utility.yul\":11293:11299   */\n      dup2\n        /* \"#utility.yul\":11288:11291   */\n      dup6\n        /* \"#utility.yul\":11214:11300   */\n      tag_492\n      jump\t// in\n    tag_491:\n        /* \"#utility.yul\":11207:11300   */\n      swap4\n      pop\n        /* \"#utility.yul\":11324:11380   */\n      tag_493\n        /* \"#utility.yul\":11374:11379   */\n      dup4\n        /* \"#utility.yul\":11324:11380   */\n      tag_494\n      jump\t// in\n    tag_493:\n        /* \"#utility.yul\":11403:11410   */\n      dup1\n        /* \"#utility.yul\":11434:11435   */\n      0x00\n        /* \"#utility.yul\":11419:11703   */\n    tag_495:\n        /* \"#utility.yul\":11444:11450   */\n      dup4\n        /* \"#utility.yul\":11441:11442   */\n      dup2\n        /* \"#utility.yul\":11438:11451   */\n      lt\n        /* \"#utility.yul\":11419:11703   */\n      iszero\n      tag_497\n      jumpi\n        /* \"#utility.yul\":11520:11526   */\n      dup2\n        /* \"#utility.yul\":11514:11527   */\n      mload\n        /* \"#utility.yul\":11547:11610   */\n      tag_498\n        /* \"#utility.yul\":11606:11609   */\n      dup9\n        /* \"#utility.yul\":11591:11604   */\n      dup3\n        /* \"#utility.yul\":11547:11610   */\n      tag_473\n      jump\t// in\n    tag_498:\n        /* \"#utility.yul\":11540:11610   */\n      swap8\n      pop\n        /* \"#utility.yul\":11633:11693   */\n      tag_499\n        /* \"#utility.yul\":11686:11692   */\n      dup4\n        /* \"#utility.yul\":11633:11693   */\n      tag_500\n      jump\t// in\n    tag_499:\n        /* \"#utility.yul\":11623:11693   */\n      swap3\n      pop\n        /* \"#utility.yul\":11479:11703   */\n      pop\n        /* \"#utility.yul\":11466:11467   */\n      0x01\n        /* \"#utility.yul\":11463:11464   */\n      dup2\n        /* \"#utility.yul\":11459:11468   */\n      add\n        /* \"#utility.yul\":11454:11468   */\n      swap1\n      pop\n        /* \"#utility.yul\":11419:11703   */\n      jump(tag_495)\n    tag_497:\n        /* \"#utility.yul\":11423:11437   */\n      pop\n        /* \"#utility.yul\":11719:11722   */\n      dup6\n        /* \"#utility.yul\":11712:11722   */\n      swap4\n      pop\n        /* \"#utility.yul\":11120:11728   */\n      pop\n      pop\n      pop\n        /* \"#utility.yul\":10996:11728   */\n      swap3\n      swap2\n      pop\n      pop\n      jump\t// out\n        /* \"#utility.yul\":11762:12760   */\n    tag_501:\n        /* \"#utility.yul\":11913:11916   */\n      0x00\n        /* \"#utility.yul\":11936:12032   */\n      tag_503\n        /* \"#utility.yul\":12025:12031   */\n      dup4\n        /* \"#utility.yul\":12020:12023   */\n      dup6\n        /* \"#utility.yul\":11936:12032   */\n      tag_504\n      jump\t// in\n    tag_503:\n        /* \"#utility.yul\":11929:12032   */\n      swap4\n      pop\n        /* \"#utility.yul\":12058:12061   */\n      dup4\n        /* \"#utility.yul\":12103:12107   */\n      0x20\n        /* \"#utility.yul\":12095:12101   */\n      dup5\n        /* \"#utility.yul\":12091:12108   */\n      mul\n        /* \"#utility.yul\":12086:12089   */\n      dup6\n        /* \"#utility.yul\":12082:12109   */\n      add\n        /* \"#utility.yul\":12133:12203   */\n      tag_505\n        /* \"#utility.yul\":12197:12202   */\n      dup5\n        /* \"#utility.yul\":12133:12203   */\n      tag_506\n      jump\t// in\n    tag_505:\n        /* \"#utility.yul\":12226:12233   */\n      dup1\n        /* \"#utility.yul\":12257:12258   */\n      0x00\n        /* \"#utility.yul\":12242:12715   */\n    tag_507:\n        /* \"#utility.yul\":12267:12273   */\n      dup8\n        /* \"#utility.yul\":12264:12265   */\n      dup2\n        /* \"#utility.yul\":12261:12274   */\n      lt\n        /* \"#utility.yul\":12242:12715   */\n      iszero\n      tag_509\n      jumpi\n        /* \"#utility.yul\":12338:12347   */\n      dup5\n        /* \"#utility.yul\":12332:12336   */\n      dup5\n        /* \"#utility.yul\":12328:12348   */\n      sub\n        /* \"#utility.yul\":12323:12326   */\n      dup10\n        /* \"#utility.yul\":12316:12349   */\n      mstore\n        /* \"#utility.yul\":12398:12452   */\n      tag_510\n        /* \"#utility.yul\":12445:12451   */\n      dup3\n        /* \"#utility.yul\":12436:12443   */\n      dup5\n        /* \"#utility.yul\":12398:12452   */\n      tag_511\n      jump\t// in\n    tag_510:\n        /* \"#utility.yul\":12473:12574   */\n      tag_512\n        /* \"#utility.yul\":12569:12573   */\n      dup7\n        /* \"#utility.yul\":12554:12567   */\n      dup3\n        /* \"#utility.yul\":12539:12552   */\n      dup5\n        /* \"#utility.yul\":12473:12574   */\n      tag_477\n      jump\t// in\n    tag_512:\n        /* \"#utility.yul\":12465:12574   */\n      swap6\n      pop\n        /* \"#utility.yul\":12597:12671   */\n      tag_513\n        /* \"#utility.yul\":12664:12670   */\n      dup5\n        /* \"#utility.yul\":12597:12671   */\n      tag_514\n      jump\t// in\n    tag_513:\n        /* \"#utility.yul\":12587:12671   */\n      swap4\n      pop\n        /* \"#utility.yul\":12700:12704   */\n      0x20\n        /* \"#utility.yul\":12695:12698   */\n      dup12\n        /* \"#utility.yul\":12691:12705   */\n      add\n        /* \"#utility.yul\":12684:12705   */\n      swap11\n      pop\n        /* \"#utility.yul\":12302:12715   */\n      pop\n      pop\n        /* \"#utility.yul\":12289:12290   */\n      0x01\n        /* \"#utility.yul\":12286:12287   */\n      dup2\n        /* \"#utility.yul\":12282:12291   */\n      add\n        /* \"#utility.yul\":12277:12291   */\n      swap1\n      pop\n        /* \"#utility.yul\":12242:12715   */\n      jump(tag_507)\n    tag_509:\n        /* \"#utility.yul\":12246:12260   */\n      pop\n        /* \"#utility.yul\":12731:12735   */\n      dup3\n        /* \"#utility.yul\":12724:12735   */\n      swap8\n      pop\n        /* \"#utility.yul\":12751:12754   */\n      dup8\n        /* \"#utility.yul\":12744:12754   */\n      swap5\n      pop\n        /* \"#utility.yul\":11918:12760   */\n      pop\n      pop\n      pop\n      pop\n        /* \"#utility.yul\":11762:12760   */\n      swap4\n      swap3\n      pop\n      pop\n      pop\n      jump\t// out\n        /* \"#utility.yul\":12766:12875   */\n    tag_515:\n        /* \"#utility.yul\":12847:12868   */\n      tag_517\n        /* \"#utility.yul\":12862:12867   */\n      dup2\n        /* \"#utility.yul\":12847:12868   */\n      tag_518\n      jump\t// in\n    tag_517:\n        /* \"#utility.yul\":12842:12845   */\n      dup3\n        /* \"#utility.yul\":12835:12869   */\n      mstore\n        /* \"#utility.yul\":12766:12875   */\n      pop\n      pop\n      jump\t// out\n        /* \"#utility.yul\":12905:13189   */\n    tag_480:\n        /* \"#utility.yul\":12993:12996   */\n      0x00\n        /* \"#utility.yul\":13014:13075   */\n      tag_520\n        /* \"#utility.yul\":13068:13074   */\n      dup4\n        /* \"#utility.yul\":13063:13066   */\n      dup6\n        /* \"#utility.yul\":13014:13075   */\n      tag_521\n      jump\t// in\n    tag_520:\n        /* \"#utility.yul\":13007:13075   */\n      swap4\n      pop\n        /* \"#utility.yul\":13085:13128   */\n      tag_522\n        /* \"#utility.yul\":13121:13127   */\n      dup4\n        /* \"#utility.yul\":13116:13119   */\n      dup6\n        /* \"#utility.yul\":13109:13114   */\n      dup5\n        /* \"#utility.yul\":13085:13128   */\n      tag_386\n      jump\t// in\n    tag_522:\n        /* \"#utility.yul\":13153:13182   */\n      tag_523\n        /* \"#utility.yul\":13175:13181   */\n      dup4\n        /* \"#utility.yul\":13153:13182   */\n      tag_524\n      jump\t// in\n    tag_523:\n        /* \"#utility.yul\":13148:13151   */\n      dup5\n        /* \"#utility.yul\":13144:13183   */\n      add\n        /* \"#utility.yul\":13137:13183   */\n      swap1\n      pop\n        /* \"#utility.yul\":12905:13189   */\n      swap4\n      swap3\n      pop\n      pop\n      pop\n      jump\t// out\n        /* \"#utility.yul\":13219:13536   */\n    tag_525:\n        /* \"#utility.yul\":13335:13338   */\n      0x00\n        /* \"#utility.yul\":13356:13445   */\n      tag_527\n        /* \"#utility.yul\":13438:13444   */\n      dup4\n        /* \"#utility.yul\":13433:13436   */\n      dup6\n        /* \"#utility.yul\":13356:13445   */\n      tag_528\n      jump\t// in\n    tag_527:\n        /* \"#utility.yul\":13349:13445   */\n      swap4\n      pop\n        /* \"#utility.yul\":13455:13498   */\n      tag_529\n        /* \"#utility.yul\":13491:13497   */\n      dup4\n        /* \"#utility.yul\":13486:13489   */\n      dup6\n        /* \"#utility.yul\":13479:13484   */\n      dup5\n        /* \"#utility.yul\":13455:13498   */\n      tag_386\n      jump\t// in\n    tag_529:\n        /* \"#utility.yul\":13523:13529   */\n      dup3\n        /* \"#utility.yul\":13518:13521   */\n      dup5\n        /* \"#utility.yul\":13514:13530   */\n      add\n        /* \"#utility.yul\":13507:13530   */\n      swap1\n      pop\n        /* \"#utility.yul\":13219:13536   */\n      swap4\n      swap3\n      pop\n      pop\n      pop\n      jump\t// out\n        /* \"#utility.yul\":13542:13906   */\n    tag_530:\n        /* \"#utility.yul\":13630:13633   */\n      0x00\n        /* \"#utility.yul\":13658:13697   */\n      tag_532\n        /* \"#utility.yul\":13691:13696   */\n      dup3\n        /* \"#utility.yul\":13658:13697   */\n      tag_533\n      jump\t// in\n    tag_532:\n        /* \"#utility.yul\":13713:13784   */\n      tag_534\n        /* \"#utility.yul\":13777:13783   */\n      dup2\n        /* \"#utility.yul\":13772:13775   */\n      dup6\n        /* \"#utility.yul\":13713:13784   */\n      tag_535\n      jump\t// in\n    tag_534:\n        /* \"#utility.yul\":13706:13784   */\n      swap4\n      pop\n        /* \"#utility.yul\":13793:13845   */\n      tag_536\n        /* \"#utility.yul\":13838:13844   */\n      dup2\n        /* \"#utility.yul\":13833:13836   */\n      dup6\n        /* \"#utility.yul\":13826:13830   */\n      0x20\n        /* \"#utility.yul\":13819:13824   */\n      dup7\n        /* \"#utility.yul\":13815:13831   */\n      add\n        /* \"#utility.yul\":13793:13845   */\n      tag_537\n      jump\t// in\n    tag_536:\n        /* \"#utility.yul\":13870:13899   */\n      tag_538\n        /* \"#utility.yul\":13892:13898   */\n      dup2\n        /* \"#utility.yul\":13870:13899   */\n      tag_524\n      jump\t// in\n    tag_538:\n        /* \"#utility.yul\":13865:13868   */\n      dup5\n        /* \"#utility.yul\":13861:13900   */\n      add\n        /* \"#utility.yul\":13854:13900   */\n      swap2\n      pop\n        /* \"#utility.yul\":13634:13906   */\n      pop\n        /* \"#utility.yul\":13542:13906   */\n      swap3\n      swap2\n      pop\n      pop\n      jump\t// out\n        /* \"#utility.yul\":13912:14289   */\n    tag_539:\n        /* \"#utility.yul\":14018:14021   */\n      0x00\n        /* \"#utility.yul\":14046:14085   */\n      tag_541\n        /* \"#utility.yul\":14079:14084   */\n      dup3\n        /* \"#utility.yul\":14046:14085   */\n      tag_533\n      jump\t// in\n    tag_541:\n        /* \"#utility.yul\":14101:14190   */\n      tag_542\n        /* \"#utility.yul\":14183:14189   */\n      dup2\n        /* \"#utility.yul\":14178:14181   */\n      dup6\n        /* \"#utility.yul\":14101:14190   */\n      tag_528\n      jump\t// in\n    tag_542:\n        /* \"#utility.yul\":14094:14190   */\n      swap4\n      pop\n        /* \"#utility.yul\":14199:14251   */\n      tag_543\n        /* \"#utility.yul\":14244:14250   */\n      dup2\n        /* \"#utility.yul\":14239:14242   */\n      dup6\n        /* \"#utility.yul\":14232:14236   */\n      0x20\n        /* \"#utility.yul\":14225:14230   */\n      dup7\n        /* \"#utility.yul\":14221:14237   */\n      add\n        /* \"#utility.yul\":14199:14251   */\n      tag_537\n      jump\t// in\n    tag_543:\n        /* \"#utility.yul\":14276:14282   */\n      dup1\n        /* \"#utility.yul\":14271:14274   */\n      dup5\n        /* \"#utility.yul\":14267:14283   */\n      add\n        /* \"#utility.yul\":14260:14283   */\n      swap2\n      pop\n        /* \"#utility.yul\":14022:14289   */\n      pop\n        /* \"#utility.yul\":13912:14289   */\n      swap3\n      swap2\n      pop\n      pop\n      jump\t// out\n        /* \"#utility.yul\":14319:15164   */\n    tag_544:\n        /* \"#utility.yul\":14422:14425   */\n      0x00\n        /* \"#utility.yul\":14459:14464   */\n      dup2\n        /* \"#utility.yul\":14453:14465   */\n      sload\n        /* \"#utility.yul\":14488:14524   */\n      tag_546\n        /* \"#utility.yul\":14514:14523   */\n      dup2\n        /* \"#utility.yul\":14488:14524   */\n      tag_73\n      jump\t// in\n    tag_546:\n        /* \"#utility.yul\":14540:14629   */\n      tag_547\n        /* \"#utility.yul\":14622:14628   */\n      dup2\n        /* \"#utility.yul\":14617:14620   */\n      dup7\n        /* \"#utility.yul\":14540:14629   */\n      tag_528\n      jump\t// in\n    tag_547:\n        /* \"#utility.yul\":14533:14629   */\n      swap5\n      pop\n        /* \"#utility.yul\":14660:14661   */\n      0x01\n        /* \"#utility.yul\":14649:14658   */\n      dup3\n        /* \"#utility.yul\":14645:14662   */\n      and\n        /* \"#utility.yul\":14676:14677   */\n      0x00\n        /* \"#utility.yul\":14671:14808   */\n      dup2\n      eq\n      tag_549\n      jumpi\n        /* \"#utility.yul\":14822:14823   */\n      0x01\n        /* \"#utility.yul\":14817:15158   */\n      dup2\n      eq\n      tag_550\n      jumpi\n        /* \"#utility.yul\":14638:15158   */\n      jump(tag_548)\n        /* \"#utility.yul\":14671:14808   */\n    tag_549:\n        /* \"#utility.yul\":14755:14759   */\n      0xff\n        /* \"#utility.yul\":14751:14760   */\n      not\n        /* \"#utility.yul\":14740:14749   */\n      dup4\n        /* \"#utility.yul\":14736:14761   */\n      and\n        /* \"#utility.yul\":14731:14734   */\n      dup7\n        /* \"#utility.yul\":14724:14762   */\n      mstore\n        /* \"#utility.yul\":14791:14797   */\n      dup2\n        /* \"#utility.yul\":14786:14789   */\n      dup7\n        /* \"#utility.yul\":14782:14798   */\n      add\n        /* \"#utility.yul\":14775:14798   */\n      swap4\n      pop\n        /* \"#utility.yul\":14671:14808   */\n      jump(tag_548)\n        /* \"#utility.yul\":14817:15158   */\n    tag_550:\n        /* \"#utility.yul\":14884:14922   */\n      tag_551\n        /* \"#utility.yul\":14916:14921   */\n      dup6\n        /* \"#utility.yul\":14884:14922   */\n      tag_552\n      jump\t// in\n    tag_551:\n        /* \"#utility.yul\":14944:14945   */\n      0x00\n        /* \"#utility.yul\":14958:15112   */\n    tag_553:\n        /* \"#utility.yul\":14972:14978   */\n      dup4\n        /* \"#utility.yul\":14969:14970   */\n      dup2\n        /* \"#utility.yul\":14966:14979   */\n      lt\n        /* \"#utility.yul\":14958:15112   */\n      iszero\n      tag_555\n      jumpi\n        /* \"#utility.yul\":15046:15053   */\n      dup2\n        /* \"#utility.yul\":15040:15054   */\n      sload\n        /* \"#utility.yul\":15036:15037   */\n      dup2\n        /* \"#utility.yul\":15031:15034   */\n      dup10\n        /* \"#utility.yul\":15027:15038   */\n      add\n        /* \"#utility.yul\":15020:15055   */\n      mstore\n        /* \"#utility.yul\":15096:15097   */\n      0x01\n        /* \"#utility.yul\":15087:15094   */\n      dup3\n        /* \"#utility.yul\":15083:15098   */\n      add\n        /* \"#utility.yul\":15072:15098   */\n      swap2\n      pop\n        /* \"#utility.yul\":14994:14998   */\n      0x20\n        /* \"#utility.yul\":14991:14992   */\n      dup2\n        /* \"#utility.yul\":14987:14999   */\n      add\n        /* \"#utility.yul\":14982:14999   */\n      swap1\n      pop\n        /* \"#utility.yul\":14958:15112   */\n      jump(tag_553)\n    tag_555:\n        /* \"#utility.yul\":15141:15147   */\n      dup4\n        /* \"#utility.yul\":15136:15139   */\n      dup9\n        /* \"#utility.yul\":15132:15148   */\n      add\n        /* \"#utility.yul\":15125:15148   */\n      swap6\n      pop\n        /* \"#utility.yul\":14824:15158   */\n      pop\n      pop\n        /* \"#utility.yul\":14638:15158   */\n    tag_548:\n      pop\n        /* \"#utility.yul\":14426:15164   */\n      pop\n      pop\n        /* \"#utility.yul\":14319:15164   */\n      swap3\n      swap2\n      pop\n      pop\n      jump\t// out\n        /* \"#utility.yul\":15170:15536   */\n    tag_556:\n        /* \"#utility.yul\":15312:15315   */\n      0x00\n        /* \"#utility.yul\":15333:15400   */\n      tag_558\n        /* \"#utility.yul\":15397:15399   */\n      0x12\n        /* \"#utility.yul\":15392:15395   */\n      dup4\n        /* \"#utility.yul\":15333:15400   */\n      tag_535\n      jump\t// in\n    tag_558:\n        /* \"#utility.yul\":15326:15400   */\n      swap2\n      pop\n        /* \"#utility.yul\":15409:15502   */\n      tag_559\n        /* \"#utility.yul\":15498:15501   */\n      dup3\n        /* \"#utility.yul\":15409:15502   */\n      tag_560\n      jump\t// in\n    tag_559:\n        /* \"#utility.yul\":15527:15529   */\n      0x20\n        /* \"#utility.yul\":15522:15525   */\n      dup3\n        /* \"#utility.yul\":15518:15530   */\n      add\n        /* \"#utility.yul\":15511:15530   */\n      swap1\n      pop\n        /* \"#utility.yul\":15170:15536   */\n      swap2\n      swap1\n      pop\n      jump\t// out\n        /* \"#utility.yul\":15542:15908   */\n    tag_561:\n        /* \"#utility.yul\":15684:15687   */\n      0x00\n        /* \"#utility.yul\":15705:15772   */\n      tag_563\n        /* \"#utility.yul\":15769:15771   */\n      0x2c\n        /* \"#utility.yul\":15764:15767   */\n      dup4\n        /* \"#utility.yul\":15705:15772   */\n      tag_535\n      jump\t// in\n    tag_563:\n        /* \"#utility.yul\":15698:15772   */\n      swap2\n      pop\n        /* \"#utility.yul\":15781:15874   */\n      tag_564\n        /* \"#utility.yul\":15870:15873   */\n      dup3\n        /* \"#utility.yul\":15781:15874   */\n      tag_565\n      jump\t// in\n    tag_564:\n        /* \"#utility.yul\":15899:15901   */\n      0x40\n        /* \"#utility.yul\":15894:15897   */\n      dup3\n        /* \"#utility.yul\":15890:15902   */\n      add\n        /* \"#utility.yul\":15883:15902   */\n      swap1\n      pop\n        /* \"#utility.yul\":15542:15908   */\n      swap2\n      swap1\n      pop\n      jump\t// out\n        /* \"#utility.yul\":15914:16280   */\n    tag_566:\n        /* \"#utility.yul\":16056:16059   */\n      0x00\n        /* \"#utility.yul\":16077:16144   */\n      tag_568\n        /* \"#utility.yul\":16141:16143   */\n      0x22\n        /* \"#utility.yul\":16136:16139   */\n      dup4\n        /* \"#utility.yul\":16077:16144   */\n      tag_535\n      jump\t// in\n    tag_568:\n        /* \"#utility.yul\":16070:16144   */\n      swap2\n      pop\n        /* \"#utility.yul\":16153:16246   */\n      tag_569\n        /* \"#utility.yul\":16242:16245   */\n      dup3\n        /* \"#utility.yul\":16153:16246   */\n      tag_570\n      jump\t// in\n    tag_569:\n        /* \"#utility.yul\":16271:16273   */\n      0x40\n        /* \"#utility.yul\":16266:16269   */\n      dup3\n        /* \"#utility.yul\":16262:16274   */\n      add\n        /* \"#utility.yul\":16255:16274   */\n      swap1\n      pop\n        /* \"#utility.yul\":15914:16280   */\n      swap2\n      swap1\n      pop\n      jump\t// out\n        /* \"#utility.yul\":16286:16652   */\n    tag_571:\n        /* \"#utility.yul\":16428:16431   */\n      0x00\n        /* \"#utility.yul\":16449:16516   */\n      tag_573\n        /* \"#utility.yul\":16513:16515   */\n      0x0d\n        /* \"#utility.yul\":16508:16511   */\n      dup4\n        /* \"#utility.yul\":16449:16516   */\n      tag_535\n      jump\t// in\n    tag_573:\n        /* \"#utility.yul\":16442:16516   */\n      swap2\n      pop\n        /* \"#utility.yul\":16525:16618   */\n      tag_574\n        /* \"#utility.yul\":16614:16617   */\n      dup3\n        /* \"#utility.yul\":16525:16618   */\n      tag_575\n      jump\t// in\n    tag_574:\n        /* \"#utility.yul\":16643:16645   */\n      0x20\n        /* \"#utility.yul\":16638:16641   */\n      dup3\n        /* \"#utility.yul\":16634:16646   */\n      add\n        /* \"#utility.yul\":16627:16646   */\n      swap1\n      pop\n        /* \"#utility.yul\":16286:16652   */\n      swap2\n      swap1\n      pop\n      jump\t// out\n        /* \"#utility.yul\":16658:17024   */\n    tag_576:\n        /* \"#utility.yul\":16800:16803   */\n      0x00\n        /* \"#utility.yul\":16821:16888   */\n      tag_578\n        /* \"#utility.yul\":16885:16887   */\n      0x1b\n        /* \"#utility.yul\":16880:16883   */\n      dup4\n        /* \"#utility.yul\":16821:16888   */\n      tag_535\n      jump\t// in\n    tag_578:\n        /* \"#utility.yul\":16814:16888   */\n      swap2\n      pop\n        /* \"#utility.yul\":16897:16990   */\n      tag_579\n        /* \"#utility.yul\":16986:16989   */\n      dup3\n        /* \"#utility.yul\":16897:16990   */\n      tag_580\n      jump\t// in\n    tag_579:\n        /* \"#utility.yul\":17015:17017   */\n      0x20\n        /* \"#utility.yul\":17010:17013   */\n      dup3\n        /* \"#utility.yul\":17006:17018   */\n      add\n        /* \"#utility.yul\":16999:17018   */\n      swap1\n      pop\n        /* \"#utility.yul\":16658:17024   */\n      swap2\n      swap1\n      pop\n      jump\t// out\n        /* \"#utility.yul\":17030:17396   */\n    tag_581:\n        /* \"#utility.yul\":17172:17175   */\n      0x00\n        /* \"#utility.yul\":17193:17260   */\n      tag_583\n        /* \"#utility.yul\":17257:17259   */\n      0x14\n        /* \"#utility.yul\":17252:17255   */\n      dup4\n        /* \"#utility.yul\":17193:17260   */\n      tag_535\n      jump\t// in\n    tag_583:\n        /* \"#utility.yul\":17186:17260   */\n      swap2\n      pop\n        /* \"#utility.yul\":17269:17362   */\n      tag_584\n        /* \"#utility.yul\":17358:17361   */\n      dup3\n        /* \"#utility.yul\":17269:17362   */\n      tag_585\n      jump\t// in\n    tag_584:\n        /* \"#utility.yul\":17387:17389   */\n      0x20\n        /* \"#utility.yul\":17382:17385   */\n      dup3\n        /* \"#utility.yul\":17378:17390   */\n      add\n        /* \"#utility.yul\":17371:17390   */\n      swap1\n      pop\n        /* \"#utility.yul\":17030:17396   */\n      swap2\n      swap1\n      pop\n      jump\t// out\n        /* \"#utility.yul\":17402:17768   */\n    tag_586:\n        /* \"#utility.yul\":17544:17547   */\n      0x00\n        /* \"#utility.yul\":17565:17632   */\n      tag_588\n        /* \"#utility.yul\":17629:17631   */\n      0x23\n        /* \"#utility.yul\":17624:17627   */\n      dup4\n        /* \"#utility.yul\":17565:17632   */\n      tag_535\n      jump\t// in\n    tag_588:\n        /* \"#utility.yul\":17558:17632   */\n      swap2\n      pop\n        /* \"#utility.yul\":17641:17734   */\n      tag_589\n        /* \"#utility.yul\":17730:17733   */\n      dup3\n        /* \"#utility.yul\":17641:17734   */\n      tag_590\n      jump\t// in\n    tag_589:\n        /* \"#utility.yul\":17759:17761   */\n      0x40\n        /* \"#utility.yul\":17754:17757   */\n      dup3\n        /* \"#utility.yul\":17750:17762   */\n      add\n        /* \"#utility.yul\":17743:17762   */\n      swap1\n      pop\n        /* \"#utility.yul\":17402:17768   */\n      swap2\n      swap1\n      pop\n      jump\t// out\n        /* \"#utility.yul\":17774:18140   */\n    tag_591:\n        /* \"#utility.yul\":17916:17919   */\n      0x00\n        /* \"#utility.yul\":17937:18004   */\n      tag_593\n        /* \"#utility.yul\":18001:18003   */\n      0x14\n        /* \"#utility.yul\":17996:17999   */\n      dup4\n        /* \"#utility.yul\":17937:18004   */\n      tag_535\n      jump\t// in\n    tag_593:\n        /* \"#utility.yul\":17930:18004   */\n      swap2\n      pop\n        /* \"#utility.yul\":18013:18106   */\n      tag_594\n        /* \"#utility.yul\":18102:18105   */\n      dup3\n        /* \"#utility.yul\":18013:18106   */\n      tag_595\n      jump\t// in\n    tag_594:\n        /* \"#utility.yul\":18131:18133   */\n      0x20\n        /* \"#utility.yul\":18126:18129   */\n      dup3\n        /* \"#utility.yul\":18122:18134   */\n      add\n        /* \"#utility.yul\":18115:18134   */\n      swap1\n      pop\n        /* \"#utility.yul\":17774:18140   */\n      swap2\n      swap1\n      pop\n      jump\t// out\n        /* \"#utility.yul\":18146:18512   */\n    tag_596:\n        /* \"#utility.yul\":18288:18291   */\n      0x00\n        /* \"#utility.yul\":18309:18376   */\n      tag_598\n        /* \"#utility.yul\":18373:18375   */\n      0x23\n        /* \"#utility.yul\":18368:18371   */\n      dup4\n        /* \"#utility.yul\":18309:18376   */\n      tag_535\n      jump\t// in\n    tag_598:\n        /* \"#utility.yul\":18302:18376   */\n      swap2\n      pop\n        /* \"#utility.yul\":18385:18478   */\n      tag_599\n        /* \"#utility.yul\":18474:18477   */\n      dup3\n        /* \"#utility.yul\":18385:18478   */\n      tag_600\n      jump\t// in\n    tag_599:\n        /* \"#utility.yul\":18503:18505   */\n      0x40\n        /* \"#utility.yul\":18498:18501   */\n      dup3\n        /* \"#utility.yul\":18494:18506   */\n      add\n        /* \"#utility.yul\":18487:18506   */\n      swap1\n      pop\n        /* \"#utility.yul\":18146:18512   */\n      swap2\n      swap1\n      pop\n      jump\t// out\n        /* \"#utility.yul\":18518:18884   */\n    tag_601:\n        /* \"#utility.yul\":18660:18663   */\n      0x00\n        /* \"#utility.yul\":18681:18748   */\n      tag_603\n        /* \"#utility.yul\":18745:18747   */\n      0x12\n        /* \"#utility.yul\":18740:18743   */\n      dup4\n        /* \"#utility.yul\":18681:18748   */\n      tag_535\n      jump\t// in\n    tag_603:\n        /* \"#utility.yul\":18674:18748   */\n      swap2\n      pop\n        /* \"#utility.yul\":18757:18850   */\n      tag_604\n        /* \"#utility.yul\":18846:18849   */\n      dup3\n        /* \"#utility.yul\":18757:18850   */\n      tag_605\n      jump\t// in\n    tag_604:\n        /* \"#utility.yul\":18875:18877   */\n      0x20\n        /* \"#utility.yul\":18870:18873   */\n      dup3\n        /* \"#utility.yul\":18866:18878   */\n      add\n        /* \"#utility.yul\":18859:18878   */\n      swap1\n      pop\n        /* \"#utility.yul\":18518:18884   */\n      swap2\n      swap1\n      pop\n      jump\t// out\n        /* \"#utility.yul\":18890:19256   */\n    tag_606:\n        /* \"#utility.yul\":19032:19035   */\n      0x00\n        /* \"#utility.yul\":19053:19120   */\n      tag_608\n        /* \"#utility.yul\":19117:19119   */\n      0x23\n        /* \"#utility.yul\":19112:19115   */\n      dup4\n        /* \"#utility.yul\":19053:19120   */\n      tag_535\n      jump\t// in\n    tag_608:\n        /* \"#utility.yul\":19046:19120   */\n      swap2\n      pop\n        /* \"#utility.yul\":19129:19222   */\n      tag_609\n        /* \"#utility.yul\":19218:19221   */\n      dup3\n        /* \"#utility.yul\":19129:19222   */\n      tag_610\n      jump\t// in\n    tag_609:\n        /* \"#utility.yul\":19247:19249   */\n      0x40\n        /* \"#utility.yul\":19242:19245   */\n      dup3\n        /* \"#utility.yul\":19238:19250   */\n      add\n        /* \"#utility.yul\":19231:19250   */\n      swap1\n      pop\n        /* \"#utility.yul\":18890:19256   */\n      swap2\n      swap1\n      pop\n      jump\t// out\n        /* \"#utility.yul\":19262:19628   */\n    tag_611:\n        /* \"#utility.yul\":19404:19407   */\n      0x00\n        /* \"#utility.yul\":19425:19492   */\n      tag_613\n        /* \"#utility.yul\":19489:19491   */\n      0x2a\n        /* \"#utility.yul\":19484:19487   */\n      dup4\n        /* \"#utility.yul\":19425:19492   */\n      tag_535\n      jump\t// in\n    tag_613:\n        /* \"#utility.yul\":19418:19492   */\n      swap2\n      pop\n        /* \"#utility.yul\":19501:19594   */\n      tag_614\n        /* \"#utility.yul\":19590:19593   */\n      dup3\n        /* \"#utility.yul\":19501:19594   */\n      tag_615\n      jump\t// in\n    tag_614:\n        /* \"#utility.yul\":19619:19621   */\n      0x40\n        /* \"#utility.yul\":19614:19617   */\n      dup3\n        /* \"#utility.yul\":19610:19622   */\n      add\n        /* \"#utility.yul\":19603:19622   */\n      swap1\n      pop\n        /* \"#utility.yul\":19262:19628   */\n      swap2\n      swap1\n      pop\n      jump\t// out\n        /* \"#utility.yul\":19634:20000   */\n    tag_616:\n        /* \"#utility.yul\":19776:19779   */\n      0x00\n        /* \"#utility.yul\":19797:19864   */\n      tag_618\n        /* \"#utility.yul\":19861:19863   */\n      0x21\n        /* \"#utility.yul\":19856:19859   */\n      dup4\n        /* \"#utility.yul\":19797:19864   */\n      tag_535\n      jump\t// in\n    tag_618:\n        /* \"#utility.yul\":19790:19864   */\n      swap2\n      pop\n        /* \"#utility.yul\":19873:19966   */\n      tag_619\n        /* \"#utility.yul\":19962:19965   */\n      dup3\n        /* \"#utility.yul\":19873:19966   */\n      tag_620\n      jump\t// in\n    tag_619:\n        /* \"#utility.yul\":19991:19993   */\n      0x40\n        /* \"#utility.yul\":19986:19989   */\n      dup3\n        /* \"#utility.yul\":19982:19994   */\n      add\n        /* \"#utility.yul\":19975:19994   */\n      swap1\n      pop\n        /* \"#utility.yul\":19634:20000   */\n      swap2\n      swap1\n      pop\n      jump\t// out\n        /* \"#utility.yul\":20006:20372   */\n    tag_621:\n        /* \"#utility.yul\":20148:20151   */\n      0x00\n        /* \"#utility.yul\":20169:20236   */\n      tag_623\n        /* \"#utility.yul\":20233:20235   */\n      0x24\n        /* \"#utility.yul\":20228:20231   */\n      dup4\n        /* \"#utility.yul\":20169:20236   */\n      tag_535\n      jump\t// in\n    tag_623:\n        /* \"#utility.yul\":20162:20236   */\n      swap2\n      pop\n        /* \"#utility.yul\":20245:20338   */\n      tag_624\n        /* \"#utility.yul\":20334:20337   */\n      dup3\n        /* \"#utility.yul\":20245:20338   */\n      tag_625\n      jump\t// in\n    tag_624:\n        /* \"#utility.yul\":20363:20365   */\n      0x40\n        /* \"#utility.yul\":20358:20361   */\n      dup3\n        /* \"#utility.yul\":20354:20366   */\n      add\n        /* \"#utility.yul\":20347:20366   */\n      swap1\n      pop\n        /* \"#utility.yul\":20006:20372   */\n      swap2\n      swap1\n      pop\n      jump\t// out\n        /* \"#utility.yul\":20378:20744   */\n    tag_626:\n        /* \"#utility.yul\":20520:20523   */\n      0x00\n        /* \"#utility.yul\":20541:20608   */\n      tag_628\n        /* \"#utility.yul\":20605:20607   */\n      0x0d\n        /* \"#utility.yul\":20600:20603   */\n      dup4\n        /* \"#utility.yul\":20541:20608   */\n      tag_535\n      jump\t// in\n    tag_628:\n        /* \"#utility.yul\":20534:20608   */\n      swap2\n      pop\n        /* \"#utility.yul\":20617:20710   */\n      tag_629\n        /* \"#utility.yul\":20706:20709   */\n      dup3\n        /* \"#utility.yul\":20617:20710   */\n      tag_630\n      jump\t// in\n    tag_629:\n        /* \"#utility.yul\":20735:20737   */\n      0x20\n        /* \"#utility.yul\":20730:20733   */\n      dup3\n        /* \"#utility.yul\":20726:20738   */\n      add\n        /* \"#utility.yul\":20719:20738   */\n      swap1\n      pop\n        /* \"#utility.yul\":20378:20744   */\n      swap2\n      swap1\n      pop\n      jump\t// out\n        /* \"#utility.yul\":20750:21115   */\n    tag_631:\n        /* \"#utility.yul\":20892:20895   */\n      0x00\n        /* \"#utility.yul\":20913:20979   */\n      tag_633\n        /* \"#utility.yul\":20977:20978   */\n      0x04\n        /* \"#utility.yul\":20972:20975   */\n      dup4\n        /* \"#utility.yul\":20913:20979   */\n      tag_535\n      jump\t// in\n    tag_633:\n        /* \"#utility.yul\":20906:20979   */\n      swap2\n      pop\n        /* \"#utility.yul\":20988:21081   */\n      tag_634\n        /* \"#utility.yul\":21077:21080   */\n      dup3\n        /* \"#utility.yul\":20988:21081   */\n      tag_635\n      jump\t// in\n    tag_634:\n        /* \"#utility.yul\":21106:21108   */\n      0x20\n        /* \"#utility.yul\":21101:21104   */\n      dup3\n        /* \"#utility.yul\":21097:21109   */\n      add\n        /* \"#utility.yul\":21090:21109   */\n      swap1\n      pop\n        /* \"#utility.yul\":20750:21115   */\n      swap2\n      swap1\n      pop\n      jump\t// out\n        /* \"#utility.yul\":21121:21487   */\n    tag_636:\n        /* \"#utility.yul\":21263:21266   */\n      0x00\n        /* \"#utility.yul\":21284:21351   */\n      tag_638\n        /* \"#utility.yul\":21348:21350   */\n      0x1d\n        /* \"#utility.yul\":21343:21346   */\n      dup4\n        /* \"#utility.yul\":21284:21351   */\n      tag_535\n      jump\t// in\n    tag_638:\n        /* \"#utility.yul\":21277:21351   */\n      swap2\n      pop\n        /* \"#utility.yul\":21360:21453   */\n      tag_639\n        /* \"#utility.yul\":21449:21452   */\n      dup3\n        /* \"#utility.yul\":21360:21453   */\n      tag_640\n      jump\t// in\n    tag_639:\n        /* \"#utility.yul\":21478:21480   */\n      0x20\n        /* \"#utility.yul\":21473:21476   */\n      dup3\n        /* \"#utility.yul\":21469:21481   */\n      add\n        /* \"#utility.yul\":21462:21481   */\n      swap1\n      pop\n        /* \"#utility.yul\":21121:21487   */\n      swap2\n      swap1\n      pop\n      jump\t// out\n        /* \"#utility.yul\":21493:21858   */\n    tag_641:\n        /* \"#utility.yul\":21635:21638   */\n      0x00\n        /* \"#utility.yul\":21656:21722   */\n      tag_643\n        /* \"#utility.yul\":21720:21721   */\n      0x04\n        /* \"#utility.yul\":21715:21718   */\n      dup4\n        /* \"#utility.yul\":21656:21722   */\n      tag_535\n      jump\t// in\n    tag_643:\n        /* \"#utility.yul\":21649:21722   */\n      swap2\n      pop\n        /* \"#utility.yul\":21731:21824   */\n      tag_644\n        /* \"#utility.yul\":21820:21823   */\n      dup3\n        /* \"#utility.yul\":21731:21824   */\n      tag_645\n      jump\t// in\n    tag_644:\n        /* \"#utility.yul\":21849:21851   */\n      0x20\n        /* \"#utility.yul\":21844:21847   */\n      dup3\n        /* \"#utility.yul\":21840:21852   */\n      add\n        /* \"#utility.yul\":21833:21852   */\n      swap1\n      pop\n        /* \"#utility.yul\":21493:21858   */\n      swap2\n      swap1\n      pop\n      jump\t// out\n        /* \"#utility.yul\":21864:22229   */\n    tag_646:\n        /* \"#utility.yul\":22006:22009   */\n      0x00\n        /* \"#utility.yul\":22027:22093   */\n      tag_648\n        /* \"#utility.yul\":22091:22092   */\n      0x09\n        /* \"#utility.yul\":22086:22089   */\n      dup4\n        /* \"#utility.yul\":22027:22093   */\n      tag_535\n      jump\t// in\n    tag_648:\n        /* \"#utility.yul\":22020:22093   */\n      swap2\n      pop\n        /* \"#utility.yul\":22102:22195   */\n      tag_649\n        /* \"#utility.yul\":22191:22194   */\n      dup3\n        /* \"#utility.yul\":22102:22195   */\n      tag_650\n      jump\t// in\n    tag_649:\n        /* \"#utility.yul\":22220:22222   */\n      0x20\n        /* \"#utility.yul\":22215:22218   */\n      dup3\n        /* \"#utility.yul\":22211:22223   */\n      add\n        /* \"#utility.yul\":22204:22223   */\n      swap1\n      pop\n        /* \"#utility.yul\":21864:22229   */\n      swap2\n      swap1\n      pop\n      jump\t// out\n        /* \"#utility.yul\":22235:22601   */\n    tag_651:\n        /* \"#utility.yul\":22377:22380   */\n      0x00\n        /* \"#utility.yul\":22398:22465   */\n      tag_653\n        /* \"#utility.yul\":22462:22464   */\n      0x1f\n        /* \"#utility.yul\":22457:22460   */\n      dup4\n        /* \"#utility.yul\":22398:22465   */\n      tag_535\n      jump\t// in\n    tag_653:\n        /* \"#utility.yul\":22391:22465   */\n      swap2\n      pop\n        /* \"#utility.yul\":22474:22567   */\n      tag_654\n        /* \"#utility.yul\":22563:22566   */\n      dup3\n        /* \"#utility.yul\":22474:22567   */\n      tag_655\n      jump\t// in\n    tag_654:\n        /* \"#utility.yul\":22592:22594   */\n      0x20\n        /* \"#utility.yul\":22587:22590   */\n      dup3\n        /* \"#utility.yul\":22583:22595   */\n      add\n        /* \"#utility.yul\":22576:22595   */\n      swap1\n      pop\n        /* \"#utility.yul\":22235:22601   */\n      swap2\n      swap1\n      pop\n      jump\t// out\n        /* \"#utility.yul\":22607:22725   */\n    tag_656:\n        /* \"#utility.yul\":22694:22718   */\n      tag_658\n        /* \"#utility.yul\":22712:22717   */\n      dup2\n        /* \"#utility.yul\":22694:22718   */\n      tag_659\n      jump\t// in\n    tag_658:\n        /* \"#utility.yul\":22689:22692   */\n      dup3\n        /* \"#utility.yul\":22682:22719   */\n      mstore\n        /* \"#utility.yul\":22607:22725   */\n      pop\n      pop\n      jump\t// out\n        /* \"#utility.yul\":22731:22846   */\n    tag_660:\n        /* \"#utility.yul\":22816:22839   */\n      tag_662\n        /* \"#utility.yul\":22833:22838   */\n      dup2\n        /* \"#utility.yul\":22816:22839   */\n      tag_663\n      jump\t// in\n    tag_662:\n        /* \"#utility.yul\":22811:22814   */\n      dup3\n        /* \"#utility.yul\":22804:22840   */\n      mstore\n        /* \"#utility.yul\":22731:22846   */\n      pop\n      pop\n      jump\t// out\n        /* \"#utility.yul\":22852:22970   */\n    tag_664:\n        /* \"#utility.yul\":22939:22963   */\n      tag_666\n        /* \"#utility.yul\":22957:22962   */\n      dup2\n        /* \"#utility.yul\":22939:22963   */\n      tag_667\n      jump\t// in\n    tag_666:\n        /* \"#utility.yul\":22934:22937   */\n      dup3\n        /* \"#utility.yul\":22927:22964   */\n      mstore\n        /* \"#utility.yul\":22852:22970   */\n      pop\n      pop\n      jump\t// out\n        /* \"#utility.yul\":22976:23088   */\n    tag_668:\n        /* \"#utility.yul\":23059:23081   */\n      tag_670\n        /* \"#utility.yul\":23075:23080   */\n      dup2\n        /* \"#utility.yul\":23059:23081   */\n      tag_671\n      jump\t// in\n    tag_670:\n        /* \"#utility.yul\":23054:23057   */\n      dup3\n        /* \"#utility.yul\":23047:23082   */\n      mstore\n        /* \"#utility.yul\":22976:23088   */\n      pop\n      pop\n      jump\t// out\n        /* \"#utility.yul\":23094:23389   */\n    tag_201:\n        /* \"#utility.yul\":23236:23239   */\n      0x00\n        /* \"#utility.yul\":23258:23363   */\n      tag_673\n        /* \"#utility.yul\":23359:23362   */\n      dup3\n        /* \"#utility.yul\":23350:23356   */\n      dup5\n        /* \"#utility.yul\":23342:23348   */\n      dup7\n        /* \"#utility.yul\":23258:23363   */\n      tag_525\n      jump\t// in\n    tag_673:\n        /* \"#utility.yul\":23251:23363   */\n      swap2\n      pop\n        /* \"#utility.yul\":23380:23383   */\n      dup2\n        /* \"#utility.yul\":23373:23383   */\n      swap1\n      pop\n        /* \"#utility.yul\":23094:23389   */\n      swap4\n      swap3\n      pop\n      pop\n      pop\n      jump\t// out\n        /* \"#utility.yul\":23395:23670   */\n    tag_260:\n        /* \"#utility.yul\":23527:23530   */\n      0x00\n        /* \"#utility.yul\":23549:23644   */\n      tag_675\n        /* \"#utility.yul\":23640:23643   */\n      dup3\n        /* \"#utility.yul\":23631:23637   */\n      dup5\n        /* \"#utility.yul\":23549:23644   */\n      tag_539\n      jump\t// in\n    tag_675:\n        /* \"#utility.yul\":23542:23644   */\n      swap2\n      pop\n        /* \"#utility.yul\":23661:23664   */\n      dup2\n        /* \"#utility.yul\":23654:23664   */\n      swap1\n      pop\n        /* \"#utility.yul\":23395:23670   */\n      swap3\n      swap2\n      pop\n      pop\n      jump\t// out\n        /* \"#utility.yul\":23676:23945   */\n    tag_184:\n        /* \"#utility.yul\":23805:23808   */\n      0x00\n        /* \"#utility.yul\":23827:23919   */\n      tag_677\n        /* \"#utility.yul\":23915:23918   */\n      dup3\n        /* \"#utility.yul\":23906:23912   */\n      dup5\n        /* \"#utility.yul\":23827:23919   */\n      tag_544\n      jump\t// in\n    tag_677:\n        /* \"#utility.yul\":23820:23919   */\n      swap2\n      pop\n        /* \"#utility.yul\":23936:23939   */\n      dup2\n        /* \"#utility.yul\":23929:23939   */\n      swap1\n      pop\n        /* \"#utility.yul\":23676:23945   */\n      swap3\n      swap2\n      pop\n      pop\n      jump\t// out\n        /* \"#utility.yul\":23951:24916   */\n    tag_21:\n        /* \"#utility.yul\":24226:24230   */\n      0x00\n        /* \"#utility.yul\":24264:24267   */\n      0xe0\n        /* \"#utility.yul\":24253:24262   */\n      dup3\n        /* \"#utility.yul\":24249:24268   */\n      add\n        /* \"#utility.yul\":24241:24268   */\n      swap1\n      pop\n        /* \"#utility.yul\":24278:24349   */\n      tag_679\n        /* \"#utility.yul\":24346:24347   */\n      0x00\n        /* \"#utility.yul\":24335:24344   */\n      dup4\n        /* \"#utility.yul\":24331:24348   */\n      add\n        /* \"#utility.yul\":24322:24328   */\n      dup11\n        /* \"#utility.yul\":24278:24349   */\n      tag_484\n      jump\t// in\n    tag_679:\n        /* \"#utility.yul\":24359:24427   */\n      tag_680\n        /* \"#utility.yul\":24423:24425   */\n      0x20\n        /* \"#utility.yul\":24412:24421   */\n      dup4\n        /* \"#utility.yul\":24408:24426   */\n      add\n        /* \"#utility.yul\":24399:24405   */\n      dup10\n        /* \"#utility.yul\":24359:24427   */\n      tag_668\n      jump\t// in\n    tag_680:\n        /* \"#utility.yul\":24474:24483   */\n      dup2\n        /* \"#utility.yul\":24468:24472   */\n      dup2\n        /* \"#utility.yul\":24464:24484   */\n      sub\n        /* \"#utility.yul\":24459:24461   */\n      0x40\n        /* \"#utility.yul\":24448:24457   */\n      dup4\n        /* \"#utility.yul\":24444:24462   */\n      add\n        /* \"#utility.yul\":24437:24485   */\n      mstore\n        /* \"#utility.yul\":24502:24580   */\n      tag_681\n        /* \"#utility.yul\":24575:24579   */\n      dup2\n        /* \"#utility.yul\":24566:24572   */\n      dup9\n        /* \"#utility.yul\":24502:24580   */\n      tag_530\n      jump\t// in\n    tag_681:\n        /* \"#utility.yul\":24494:24580   */\n      swap1\n      pop\n        /* \"#utility.yul\":24590:24662   */\n      tag_682\n        /* \"#utility.yul\":24658:24660   */\n      0x60\n        /* \"#utility.yul\":24647:24656   */\n      dup4\n        /* \"#utility.yul\":24643:24661   */\n      add\n        /* \"#utility.yul\":24634:24640   */\n      dup8\n        /* \"#utility.yul\":24590:24662   */\n      tag_664\n      jump\t// in\n    tag_682:\n        /* \"#utility.yul\":24672:24745   */\n      tag_683\n        /* \"#utility.yul\":24740:24743   */\n      0x80\n        /* \"#utility.yul\":24729:24738   */\n      dup4\n        /* \"#utility.yul\":24725:24744   */\n      add\n        /* \"#utility.yul\":24716:24722   */\n      dup7\n        /* \"#utility.yul\":24672:24745   */\n      tag_664\n      jump\t// in\n    tag_683:\n        /* \"#utility.yul\":24755:24826   */\n      tag_684\n        /* \"#utility.yul\":24821:24824   */\n      0xa0\n        /* \"#utility.yul\":24810:24819   */\n      dup4\n        /* \"#utility.yul\":24806:24825   */\n      add\n        /* \"#utility.yul\":24797:24803   */\n      dup6\n        /* \"#utility.yul\":24755:24826   */\n      tag_660\n      jump\t// in\n    tag_684:\n        /* \"#utility.yul\":24836:24909   */\n      tag_685\n        /* \"#utility.yul\":24904:24907   */\n      0xc0\n        /* \"#utility.yul\":24893:24902   */\n      dup4\n        /* \"#utility.yul\":24889:24908   */\n      add\n        /* \"#utility.yul\":24880:24886   */\n      dup5\n        /* \"#utility.yul\":24836:24909   */\n      tag_664\n      jump\t// in\n    tag_685:\n        /* \"#utility.yul\":23951:24916   */\n      swap9\n      swap8\n      pop\n      pop\n      pop\n      pop\n      pop\n      pop\n      pop\n      pop\n      jump\t// out\n        /* \"#utility.yul\":24922:25132   */\n    tag_47:\n        /* \"#utility.yul\":25009:25013   */\n      0x00\n        /* \"#utility.yul\":25047:25049   */\n      0x20\n        /* \"#utility.yul\":25036:25045   */\n      dup3\n        /* \"#utility.yul\":25032:25050   */\n      add\n        /* \"#utility.yul\":25024:25050   */\n      swap1\n      pop\n        /* \"#utility.yul\":25060:25125   */\n      tag_687\n        /* \"#utility.yul\":25122:25123   */\n      0x00\n        /* \"#utility.yul\":25111:25120   */\n      dup4\n        /* \"#utility.yul\":25107:25124   */\n      add\n        /* \"#utility.yul\":25098:25104   */\n      dup5\n        /* \"#utility.yul\":25060:25125   */\n      tag_515\n      jump\t// in\n    tag_687:\n        /* \"#utility.yul\":24922:25132   */\n      swap3\n      swap2\n      pop\n      pop\n      jump\t// out\n        /* \"#utility.yul\":25138:25451   */\n    tag_25:\n        /* \"#utility.yul\":25251:25255   */\n      0x00\n        /* \"#utility.yul\":25289:25291   */\n      0x20\n        /* \"#utility.yul\":25278:25287   */\n      dup3\n        /* \"#utility.yul\":25274:25292   */\n      add\n        /* \"#utility.yul\":25266:25292   */\n      swap1\n      pop\n        /* \"#utility.yul\":25338:25347   */\n      dup2\n        /* \"#utility.yul\":25332:25336   */\n      dup2\n        /* \"#utility.yul\":25328:25348   */\n      sub\n        /* \"#utility.yul\":25324:25325   */\n      0x00\n        /* \"#utility.yul\":25313:25322   */\n      dup4\n        /* \"#utility.yul\":25309:25326   */\n      add\n        /* \"#utility.yul\":25302:25349   */\n      mstore\n        /* \"#utility.yul\":25366:25444   */\n      tag_689\n        /* \"#utility.yul\":25439:25443   */\n      dup2\n        /* \"#utility.yul\":25430:25436   */\n      dup5\n        /* \"#utility.yul\":25366:25444   */\n      tag_530\n      jump\t// in\n    tag_689:\n        /* \"#utility.yul\":25358:25444   */\n      swap1\n      pop\n        /* \"#utility.yul\":25138:25451   */\n      swap3\n      swap2\n      pop\n      pop\n      jump\t// out\n        /* \"#utility.yul\":25457:25876   */\n    tag_229:\n        /* \"#utility.yul\":25623:25627   */\n      0x00\n        /* \"#utility.yul\":25661:25663   */\n      0x20\n        /* \"#utility.yul\":25650:25659   */\n      dup3\n        /* \"#utility.yul\":25646:25664   */\n      add\n        /* \"#utility.yul\":25638:25664   */\n      swap1\n      pop\n        /* \"#utility.yul\":25710:25719   */\n      dup2\n        /* \"#utility.yul\":25704:25708   */\n      dup2\n        /* \"#utility.yul\":25700:25720   */\n      sub\n        /* \"#utility.yul\":25696:25697   */\n      0x00\n        /* \"#utility.yul\":25685:25694   */\n      dup4\n        /* \"#utility.yul\":25681:25698   */\n      add\n        /* \"#utility.yul\":25674:25721   */\n      mstore\n        /* \"#utility.yul\":25738:25869   */\n      tag_691\n        /* \"#utility.yul\":25864:25868   */\n      dup2\n        /* \"#utility.yul\":25738:25869   */\n      tag_556\n      jump\t// in\n    tag_691:\n        /* \"#utility.yul\":25730:25869   */\n      swap1\n      pop\n        /* \"#utility.yul\":25457:25876   */\n      swap2\n      swap1\n      pop\n      jump\t// out\n        /* \"#utility.yul\":25882:26301   */\n    tag_92:\n        /* \"#utility.yul\":26048:26052   */\n      0x00\n        /* \"#utility.yul\":26086:26088   */\n      0x20\n        /* \"#utility.yul\":26075:26084   */\n      dup3\n        /* \"#utility.yul\":26071:26089   */\n      add\n        /* \"#utility.yul\":26063:26089   */\n      swap1\n      pop\n        /* \"#utility.yul\":26135:26144   */\n      dup2\n        /* \"#utility.yul\":26129:26133   */\n      dup2\n        /* \"#utility.yul\":26125:26145   */\n      sub\n        /* \"#utility.yul\":26121:26122   */\n      0x00\n        /* \"#utility.yul\":26110:26119   */\n      dup4\n        /* \"#utility.yul\":26106:26123   */\n      add\n        /* \"#utility.yul\":26099:26146   */\n      mstore\n        /* \"#utility.yul\":26163:26294   */\n      tag_693\n        /* \"#utility.yul\":26289:26293   */\n      dup2\n        /* \"#utility.yul\":26163:26294   */\n      tag_561\n      jump\t// in\n    tag_693:\n        /* \"#utility.yul\":26155:26294   */\n      swap1\n      pop\n        /* \"#utility.yul\":25882:26301   */\n      swap2\n      swap1\n      pop\n      jump\t// out\n        /* \"#utility.yul\":26307:26726   */\n    tag_307:\n        /* \"#utility.yul\":26473:26477   */\n      0x00\n        /* \"#utility.yul\":26511:26513   */\n      0x20\n        /* \"#utility.yul\":26500:26509   */\n      dup3\n        /* \"#utility.yul\":26496:26514   */\n      add\n        /* \"#utility.yul\":26488:26514   */\n      swap1\n      pop\n        /* \"#utility.yul\":26560:26569   */\n      dup2\n        /* \"#utility.yul\":26554:26558   */\n      dup2\n        /* \"#utility.yul\":26550:26570   */\n      sub\n        /* \"#utility.yul\":26546:26547   */\n      0x00\n        /* \"#utility.yul\":26535:26544   */\n      dup4\n        /* \"#utility.yul\":26531:26548   */\n      add\n        /* \"#utility.yul\":26524:26571   */\n      mstore\n        /* \"#utility.yul\":26588:26719   */\n      tag_695\n        /* \"#utility.yul\":26714:26718   */\n      dup2\n        /* \"#utility.yul\":26588:26719   */\n      tag_566\n      jump\t// in\n    tag_695:\n        /* \"#utility.yul\":26580:26719   */\n      swap1\n      pop\n        /* \"#utility.yul\":26307:26726   */\n      swap2\n      swap1\n      pop\n      jump\t// out\n        /* \"#utility.yul\":26732:27151   */\n    tag_134:\n        /* \"#utility.yul\":26898:26902   */\n      0x00\n        /* \"#utility.yul\":26936:26938   */\n      0x20\n        /* \"#utility.yul\":26925:26934   */\n      dup3\n        /* \"#utility.yul\":26921:26939   */\n      add\n        /* \"#utility.yul\":26913:26939   */\n      swap1\n      pop\n        /* \"#utility.yul\":26985:26994   */\n      dup2\n        /* \"#utility.yul\":26979:26983   */\n      dup2\n        /* \"#utility.yul\":26975:26995   */\n      sub\n        /* \"#utility.yul\":26971:26972   */\n      0x00\n        /* \"#utility.yul\":26960:26969   */\n      dup4\n        /* \"#utility.yul\":26956:26973   */\n      add\n        /* \"#utility.yul\":26949:26996   */\n      mstore\n        /* \"#utility.yul\":27013:27144   */\n      tag_697\n        /* \"#utility.yul\":27139:27143   */\n      dup2\n        /* \"#utility.yul\":27013:27144   */\n      tag_571\n      jump\t// in\n    tag_697:\n        /* \"#utility.yul\":27005:27144   */\n      swap1\n      pop\n        /* \"#utility.yul\":26732:27151   */\n      swap2\n      swap1\n      pop\n      jump\t// out\n        /* \"#utility.yul\":27157:27576   */\n    tag_263:\n        /* \"#utility.yul\":27323:27327   */\n      0x00\n        /* \"#utility.yul\":27361:27363   */\n      0x20\n        /* \"#utility.yul\":27350:27359   */\n      dup3\n        /* \"#utility.yul\":27346:27364   */\n      add\n        /* \"#utility.yul\":27338:27364   */\n      swap1\n      pop\n        /* \"#utility.yul\":27410:27419   */\n      dup2\n        /* \"#utility.yul\":27404:27408   */\n      dup2\n        /* \"#utility.yul\":27400:27420   */\n      sub\n        /* \"#utility.yul\":27396:27397   */\n      0x00\n        /* \"#utility.yul\":27385:27394   */\n      dup4\n        /* \"#utility.yul\":27381:27398   */\n      add\n        /* \"#utility.yul\":27374:27421   */\n      mstore\n        /* \"#utility.yul\":27438:27569   */\n      tag_699\n        /* \"#utility.yul\":27564:27568   */\n      dup2\n        /* \"#utility.yul\":27438:27569   */\n      tag_576\n      jump\t// in\n    tag_699:\n        /* \"#utility.yul\":27430:27569   */\n      swap1\n      pop\n        /* \"#utility.yul\":27157:27576   */\n      swap2\n      swap1\n      pop\n      jump\t// out\n        /* \"#utility.yul\":27582:28001   */\n    tag_182:\n        /* \"#utility.yul\":27748:27752   */\n      0x00\n        /* \"#utility.yul\":27786:27788   */\n      0x20\n        /* \"#utility.yul\":27775:27784   */\n      dup3\n        /* \"#utility.yul\":27771:27789   */\n      add\n        /* \"#utility.yul\":27763:27789   */\n      swap1\n      pop\n        /* \"#utility.yul\":27835:27844   */\n      dup2\n        /* \"#utility.yul\":27829:27833   */\n      dup2\n        /* \"#utility.yul\":27825:27845   */\n      sub\n        /* \"#utility.yul\":27821:27822   */\n      0x00\n        /* \"#utility.yul\":27810:27819   */\n      dup4\n        /* \"#utility.yul\":27806:27823   */\n      add\n        /* \"#utility.yul\":27799:27846   */\n      mstore\n        /* \"#utility.yul\":27863:27994   */\n      tag_701\n        /* \"#utility.yul\":27989:27993   */\n      dup2\n        /* \"#utility.yul\":27863:27994   */\n      tag_581\n      jump\t// in\n    tag_701:\n        /* \"#utility.yul\":27855:27994   */\n      swap1\n      pop\n        /* \"#utility.yul\":27582:28001   */\n      swap2\n      swap1\n      pop\n      jump\t// out\n        /* \"#utility.yul\":28007:28426   */\n    tag_131:\n        /* \"#utility.yul\":28173:28177   */\n      0x00\n        /* \"#utility.yul\":28211:28213   */\n      0x20\n        /* \"#utility.yul\":28200:28209   */\n      dup3\n        /* \"#utility.yul\":28196:28214   */\n      add\n        /* \"#utility.yul\":28188:28214   */\n      swap1\n      pop\n        /* \"#utility.yul\":28260:28269   */\n      dup2\n        /* \"#utility.yul\":28254:28258   */\n      dup2\n        /* \"#utility.yul\":28250:28270   */\n      sub\n        /* \"#utility.yul\":28246:28247   */\n      0x00\n        /* \"#utility.yul\":28235:28244   */\n      dup4\n        /* \"#utility.yul\":28231:28248   */\n      add\n        /* \"#utility.yul\":28224:28271   */\n      mstore\n        /* \"#utility.yul\":28288:28419   */\n      tag_703\n        /* \"#utility.yul\":28414:28418   */\n      dup2\n        /* \"#utility.yul\":28288:28419   */\n      tag_586\n      jump\t// in\n    tag_703:\n        /* \"#utility.yul\":28280:28419   */\n      swap1\n      pop\n        /* \"#utility.yul\":28007:28426   */\n      swap2\n      swap1\n      pop\n      jump\t// out\n        /* \"#utility.yul\":28432:28851   */\n    tag_89:\n        /* \"#utility.yul\":28598:28602   */\n      0x00\n        /* \"#utility.yul\":28636:28638   */\n      0x20\n        /* \"#utility.yul\":28625:28634   */\n      dup3\n        /* \"#utility.yul\":28621:28639   */\n      add\n        /* \"#utility.yul\":28613:28639   */\n      swap1\n      pop\n        /* \"#utility.yul\":28685:28694   */\n      dup2\n        /* \"#utility.yul\":28679:28683   */\n      dup2\n        /* \"#utility.yul\":28675:28695   */\n      sub\n        /* \"#utility.yul\":28671:28672   */\n      0x00\n        /* \"#utility.yul\":28660:28669   */\n      dup4\n        /* \"#utility.yul\":28656:28673   */\n      add\n        /* \"#utility.yul\":28649:28696   */\n      mstore\n        /* \"#utility.yul\":28713:28844   */\n      tag_705\n        /* \"#utility.yul\":28839:28843   */\n      dup2\n        /* \"#utility.yul\":28713:28844   */\n      tag_591\n      jump\t// in\n    tag_705:\n        /* \"#utility.yul\":28705:28844   */\n      swap1\n      pop\n        /* \"#utility.yul\":28432:28851   */\n      swap2\n      swap1\n      pop\n      jump\t// out\n        /* \"#utility.yul\":28857:29276   */\n    tag_253:\n        /* \"#utility.yul\":29023:29027   */\n      0x00\n        /* \"#utility.yul\":29061:29063   */\n      0x20\n        /* \"#utility.yul\":29050:29059   */\n      dup3\n        /* \"#utility.yul\":29046:29064   */\n      add\n        /* \"#utility.yul\":29038:29064   */\n      swap1\n      pop\n        /* \"#utility.yul\":29110:29119   */\n      dup2\n        /* \"#utility.yul\":29104:29108   */\n      dup2\n        /* \"#utility.yul\":29100:29120   */\n      sub\n        /* \"#utility.yul\":29096:29097   */\n      0x00\n        /* \"#utility.yul\":29085:29094   */\n      dup4\n        /* \"#utility.yul\":29081:29098   */\n      add\n        /* \"#utility.yul\":29074:29121   */\n      mstore\n        /* \"#utility.yul\":29138:29269   */\n      tag_707\n        /* \"#utility.yul\":29264:29268   */\n      dup2\n        /* \"#utility.yul\":29138:29269   */\n      tag_596\n      jump\t// in\n    tag_707:\n        /* \"#utility.yul\":29130:29269   */\n      swap1\n      pop\n        /* \"#utility.yul\":28857:29276   */\n      swap2\n      swap1\n      pop\n      jump\t// out\n        /* \"#utility.yul\":29282:29701   */\n    tag_128:\n        /* \"#utility.yul\":29448:29452   */\n      0x00\n        /* \"#utility.yul\":29486:29488   */\n      0x20\n        /* \"#utility.yul\":29475:29484   */\n      dup3\n        /* \"#utility.yul\":29471:29489   */\n      add\n        /* \"#utility.yul\":29463:29489   */\n      swap1\n      pop\n        /* \"#utility.yul\":29535:29544   */\n      dup2\n        /* \"#utility.yul\":29529:29533   */\n      dup2\n        /* \"#utility.yul\":29525:29545   */\n      sub\n        /* \"#utility.yul\":29521:29522   */\n      0x00\n        /* \"#utility.yul\":29510:29519   */\n      dup4\n        /* \"#utility.yul\":29506:29523   */\n      add\n        /* \"#utility.yul\":29499:29546   */\n      mstore\n        /* \"#utility.yul\":29563:29694   */\n      tag_709\n        /* \"#utility.yul\":29689:29693   */\n      dup2\n        /* \"#utility.yul\":29563:29694   */\n      tag_601\n      jump\t// in\n    tag_709:\n        /* \"#utility.yul\":29555:29694   */\n      swap1\n      pop\n        /* \"#utility.yul\":29282:29701   */\n      swap2\n      swap1\n      pop\n      jump\t// out\n        /* \"#utility.yul\":29707:30126   */\n    tag_152:\n        /* \"#utility.yul\":29873:29877   */\n      0x00\n        /* \"#utility.yul\":29911:29913   */\n      0x20\n        /* \"#utility.yul\":29900:29909   */\n      dup3\n        /* \"#utility.yul\":29896:29914   */\n      add\n        /* \"#utility.yul\":29888:29914   */\n      swap1\n      pop\n        /* \"#utility.yul\":29960:29969   */\n      dup2\n        /* \"#utility.yul\":29954:29958   */\n      dup2\n        /* \"#utility.yul\":29950:29970   */\n      sub\n        /* \"#utility.yul\":29946:29947   */\n      0x00\n        /* \"#utility.yul\":29935:29944   */\n      dup4\n        /* \"#utility.yul\":29931:29948   */\n      add\n        /* \"#utility.yul\":29924:29971   */\n      mstore\n        /* \"#utility.yul\":29988:30119   */\n      tag_711\n        /* \"#utility.yul\":30114:30118   */\n      dup2\n        /* \"#utility.yul\":29988:30119   */\n      tag_606\n      jump\t// in\n    tag_711:\n        /* \"#utility.yul\":29980:30119   */\n      swap1\n      pop\n        /* \"#utility.yul\":29707:30126   */\n      swap2\n      swap1\n      pop\n      jump\t// out\n        /* \"#utility.yul\":30132:30551   */\n    tag_95:\n        /* \"#utility.yul\":30298:30302   */\n      0x00\n        /* \"#utility.yul\":30336:30338   */\n      0x20\n        /* \"#utility.yul\":30325:30334   */\n      dup3\n        /* \"#utility.yul\":30321:30339   */\n      add\n        /* \"#utility.yul\":30313:30339   */\n      swap1\n      pop\n        /* \"#utility.yul\":30385:30394   */\n      dup2\n        /* \"#utility.yul\":30379:30383   */\n      dup2\n        /* \"#utility.yul\":30375:30395   */\n      sub\n        /* \"#utility.yul\":30371:30372   */\n      0x00\n        /* \"#utility.yul\":30360:30369   */\n      dup4\n        /* \"#utility.yul\":30356:30373   */\n      add\n        /* \"#utility.yul\":30349:30396   */\n      mstore\n        /* \"#utility.yul\":30413:30544   */\n      tag_713\n        /* \"#utility.yul\":30539:30543   */\n      dup2\n        /* \"#utility.yul\":30413:30544   */\n      tag_611\n      jump\t// in\n    tag_713:\n        /* \"#utility.yul\":30405:30544   */\n      swap1\n      pop\n        /* \"#utility.yul\":30132:30551   */\n      swap2\n      swap1\n      pop\n      jump\t// out\n        /* \"#utility.yul\":30557:30976   */\n    tag_304:\n        /* \"#utility.yul\":30723:30727   */\n      0x00\n        /* \"#utility.yul\":30761:30763   */\n      0x20\n        /* \"#utility.yul\":30750:30759   */\n      dup3\n        /* \"#utility.yul\":30746:30764   */\n      add\n        /* \"#utility.yul\":30738:30764   */\n      swap1\n      pop\n        /* \"#utility.yul\":30810:30819   */\n      dup2\n        /* \"#utility.yul\":30804:30808   */\n      dup2\n        /* \"#utility.yul\":30800:30820   */\n      sub\n        /* \"#utility.yul\":30796:30797   */\n      0x00\n        /* \"#utility.yul\":30785:30794   */\n      dup4\n        /* \"#utility.yul\":30781:30798   */\n      add\n        /* \"#utility.yul\":30774:30821   */\n      mstore\n        /* \"#utility.yul\":30838:30969   */\n      tag_715\n        /* \"#utility.yul\":30964:30968   */\n      dup2\n        /* \"#utility.yul\":30838:30969   */\n      tag_616\n      jump\t// in\n    tag_715:\n        /* \"#utility.yul\":30830:30969   */\n      swap1\n      pop\n        /* \"#utility.yul\":30557:30976   */\n      swap2\n      swap1\n      pop\n      jump\t// out\n        /* \"#utility.yul\":30982:31401   */\n    tag_137:\n        /* \"#utility.yul\":31148:31152   */\n      0x00\n        /* \"#utility.yul\":31186:31188   */\n      0x20\n        /* \"#utility.yul\":31175:31184   */\n      dup3\n        /* \"#utility.yul\":31171:31189   */\n      add\n        /* \"#utility.yul\":31163:31189   */\n      swap1\n      pop\n        /* \"#utility.yul\":31235:31244   */\n      dup2\n        /* \"#utility.yul\":31229:31233   */\n      dup2\n        /* \"#utility.yul\":31225:31245   */\n      sub\n        /* \"#utility.yul\":31221:31222   */\n      0x00\n        /* \"#utility.yul\":31210:31219   */\n      dup4\n        /* \"#utility.yul\":31206:31223   */\n      add\n        /* \"#utility.yul\":31199:31246   */\n      mstore\n        /* \"#utility.yul\":31263:31394   */\n      tag_717\n        /* \"#utility.yul\":31389:31393   */\n      dup2\n        /* \"#utility.yul\":31263:31394   */\n      tag_621\n      jump\t// in\n    tag_717:\n        /* \"#utility.yul\":31255:31394   */\n      swap1\n      pop\n        /* \"#utility.yul\":30982:31401   */\n      swap2\n      swap1\n      pop\n      jump\t// out\n        /* \"#utility.yul\":31407:31826   */\n    tag_167:\n        /* \"#utility.yul\":31573:31577   */\n      0x00\n        /* \"#utility.yul\":31611:31613   */\n      0x20\n        /* \"#utility.yul\":31600:31609   */\n      dup3\n        /* \"#utility.yul\":31596:31614   */\n      add\n        /* \"#utility.yul\":31588:31614   */\n      swap1\n      pop\n        /* \"#utility.yul\":31660:31669   */\n      dup2\n        /* \"#utility.yul\":31654:31658   */\n      dup2\n        /* \"#utility.yul\":31650:31670   */\n      sub\n        /* \"#utility.yul\":31646:31647   */\n      0x00\n        /* \"#utility.yul\":31635:31644   */\n      dup4\n        /* \"#utility.yul\":31631:31648   */\n      add\n        /* \"#utility.yul\":31624:31671   */\n      mstore\n        /* \"#utility.yul\":31688:31819   */\n      tag_719\n        /* \"#utility.yul\":31814:31818   */\n      dup2\n        /* \"#utility.yul\":31688:31819   */\n      tag_626\n      jump\t// in\n    tag_719:\n        /* \"#utility.yul\":31680:31819   */\n      swap1\n      pop\n        /* \"#utility.yul\":31407:31826   */\n      swap2\n      swap1\n      pop\n      jump\t// out\n        /* \"#utility.yul\":31832:32471   */\n    tag_119:\n        /* \"#utility.yul\":32054:32058   */\n      0x00\n        /* \"#utility.yul\":32092:32094   */\n      0x60\n        /* \"#utility.yul\":32081:32090   */\n      dup3\n        /* \"#utility.yul\":32077:32095   */\n      add\n        /* \"#utility.yul\":32069:32095   */\n      swap1\n      pop\n        /* \"#utility.yul\":32141:32150   */\n      dup2\n        /* \"#utility.yul\":32135:32139   */\n      dup2\n        /* \"#utility.yul\":32131:32151   */\n      sub\n        /* \"#utility.yul\":32127:32128   */\n      0x00\n        /* \"#utility.yul\":32116:32125   */\n      dup4\n        /* \"#utility.yul\":32112:32129   */\n      add\n        /* \"#utility.yul\":32105:32152   */\n      mstore\n        /* \"#utility.yul\":32169:32300   */\n      tag_721\n        /* \"#utility.yul\":32295:32299   */\n      dup2\n        /* \"#utility.yul\":32169:32300   */\n      tag_631\n      jump\t// in\n    tag_721:\n        /* \"#utility.yul\":32161:32300   */\n      swap1\n      pop\n        /* \"#utility.yul\":32310:32382   */\n      tag_722\n        /* \"#utility.yul\":32378:32380   */\n      0x20\n        /* \"#utility.yul\":32367:32376   */\n      dup4\n        /* \"#utility.yul\":32363:32381   */\n      add\n        /* \"#utility.yul\":32354:32360   */\n      dup6\n        /* \"#utility.yul\":32310:32382   */\n      tag_484\n      jump\t// in\n    tag_722:\n        /* \"#utility.yul\":32392:32464   */\n      tag_723\n        /* \"#utility.yul\":32460:32462   */\n      0x40\n        /* \"#utility.yul\":32449:32458   */\n      dup4\n        /* \"#utility.yul\":32445:32463   */\n      add\n        /* \"#utility.yul\":32436:32442   */\n      dup5\n        /* \"#utility.yul\":32392:32464   */\n      tag_664\n      jump\t// in\n    tag_723:\n        /* \"#utility.yul\":31832:32471   */\n      swap4\n      swap3\n      pop\n      pop\n      pop\n      jump\t// out\n        /* \"#utility.yul\":32477:32896   */\n    tag_284:\n        /* \"#utility.yul\":32643:32647   */\n      0x00\n        /* \"#utility.yul\":32681:32683   */\n      0x20\n        /* \"#utility.yul\":32670:32679   */\n      dup3\n        /* \"#utility.yul\":32666:32684   */\n      add\n        /* \"#utility.yul\":32658:32684   */\n      swap1\n      pop\n        /* \"#utility.yul\":32730:32739   */\n      dup2\n        /* \"#utility.yul\":32724:32728   */\n      dup2\n        /* \"#utility.yul\":32720:32740   */\n      sub\n        /* \"#utility.yul\":32716:32717   */\n      0x00\n        /* \"#utility.yul\":32705:32714   */\n      dup4\n        /* \"#utility.yul\":32701:32718   */\n      add\n        /* \"#utility.yul\":32694:32741   */\n      mstore\n        /* \"#utility.yul\":32758:32889   */\n      tag_725\n        /* \"#utility.yul\":32884:32888   */\n      dup2\n        /* \"#utility.yul\":32758:32889   */\n      tag_636\n      jump\t// in\n    tag_725:\n        /* \"#utility.yul\":32750:32889   */\n      swap1\n      pop\n        /* \"#utility.yul\":32477:32896   */\n      swap2\n      swap1\n      pop\n      jump\t// out\n        /* \"#utility.yul\":32902:33541   */\n    tag_163:\n        /* \"#utility.yul\":33124:33128   */\n      0x00\n        /* \"#utility.yul\":33162:33164   */\n      0x60\n        /* \"#utility.yul\":33151:33160   */\n      dup3\n        /* \"#utility.yul\":33147:33165   */\n      add\n        /* \"#utility.yul\":33139:33165   */\n      swap1\n      pop\n        /* \"#utility.yul\":33211:33220   */\n      dup2\n        /* \"#utility.yul\":33205:33209   */\n      dup2\n        /* \"#utility.yul\":33201:33221   */\n      sub\n        /* \"#utility.yul\":33197:33198   */\n      0x00\n        /* \"#utility.yul\":33186:33195   */\n      dup4\n        /* \"#utility.yul\":33182:33199   */\n      add\n        /* \"#utility.yul\":33175:33222   */\n      mstore\n        /* \"#utility.yul\":33239:33370   */\n      tag_727\n        /* \"#utility.yul\":33365:33369   */\n      dup2\n        /* \"#utility.yul\":33239:33370   */\n      tag_641\n      jump\t// in\n    tag_727:\n        /* \"#utility.yul\":33231:33370   */\n      swap1\n      pop\n        /* \"#utility.yul\":33380:33452   */\n      tag_728\n        /* \"#utility.yul\":33448:33450   */\n      0x20\n        /* \"#utility.yul\":33437:33446   */\n      dup4\n        /* \"#utility.yul\":33433:33451   */\n      add\n        /* \"#utility.yul\":33424:33430   */\n      dup6\n        /* \"#utility.yul\":33380:33452   */\n      tag_484\n      jump\t// in\n    tag_728:\n        /* \"#utility.yul\":33462:33534   */\n      tag_729\n        /* \"#utility.yul\":33530:33532   */\n      0x40\n        /* \"#utility.yul\":33519:33528   */\n      dup4\n        /* \"#utility.yul\":33515:33533   */\n      add\n        /* \"#utility.yul\":33506:33512   */\n      dup5\n        /* \"#utility.yul\":33462:33534   */\n      tag_664\n      jump\t// in\n    tag_729:\n        /* \"#utility.yul\":32902:33541   */\n      swap4\n      swap3\n      pop\n      pop\n      pop\n      jump\t// out\n        /* \"#utility.yul\":33547:33966   */\n    tag_287:\n        /* \"#utility.yul\":33713:33717   */\n      0x00\n        /* \"#utility.yul\":33751:33753   */\n      0x20\n        /* \"#utility.yul\":33740:33749   */\n      dup3\n        /* \"#utility.yul\":33736:33754   */\n      add\n        /* \"#utility.yul\":33728:33754   */\n      swap1\n      pop\n        /* \"#utility.yul\":33800:33809   */\n      dup2\n        /* \"#utility.yul\":33794:33798   */\n      dup2\n        /* \"#utility.yul\":33790:33810   */\n      sub\n        /* \"#utility.yul\":33786:33787   */\n      0x00\n        /* \"#utility.yul\":33775:33784   */\n      dup4\n        /* \"#utility.yul\":33771:33788   */\n      add\n        /* \"#utility.yul\":33764:33811   */\n      mstore\n        /* \"#utility.yul\":33828:33959   */\n      tag_731\n        /* \"#utility.yul\":33954:33958   */\n      dup2\n        /* \"#utility.yul\":33828:33959   */\n      tag_646\n      jump\t// in\n    tag_731:\n        /* \"#utility.yul\":33820:33959   */\n      swap1\n      pop\n        /* \"#utility.yul\":33547:33966   */\n      swap2\n      swap1\n      pop\n      jump\t// out\n        /* \"#utility.yul\":33972:34391   */\n    tag_297:\n        /* \"#utility.yul\":34138:34142   */\n      0x00\n        /* \"#utility.yul\":34176:34178   */\n      0x20\n        /* \"#utility.yul\":34165:34174   */\n      dup3\n        /* \"#utility.yul\":34161:34179   */\n      add\n        /* \"#utility.yul\":34153:34179   */\n      swap1\n      pop\n        /* \"#utility.yul\":34225:34234   */\n      dup2\n        /* \"#utility.yul\":34219:34223   */\n      dup2\n        /* \"#utility.yul\":34215:34235   */\n      sub\n        /* \"#utility.yul\":34211:34212   */\n      0x00\n        /* \"#utility.yul\":34200:34209   */\n      dup4\n        /* \"#utility.yul\":34196:34213   */\n      add\n        /* \"#utility.yul\":34189:34236   */\n      mstore\n        /* \"#utility.yul\":34253:34384   */\n      tag_733\n        /* \"#utility.yul\":34379:34383   */\n      dup2\n        /* \"#utility.yul\":34253:34384   */\n      tag_651\n      jump\t// in\n    tag_733:\n        /* \"#utility.yul\":34245:34384   */\n      swap1\n      pop\n        /* \"#utility.yul\":33972:34391   */\n      swap2\n      swap1\n      pop\n      jump\t// out\n        /* \"#utility.yul\":34397:34729   */\n    tag_71:\n        /* \"#utility.yul\":34518:34522   */\n      0x00\n        /* \"#utility.yul\":34556:34558   */\n      0x40\n        /* \"#utility.yul\":34545:34554   */\n      dup3\n        /* \"#utility.yul\":34541:34559   */\n      add\n        /* \"#utility.yul\":34533:34559   */\n      swap1\n      pop\n        /* \"#utility.yul\":34569:34640   */\n      tag_735\n        /* \"#utility.yul\":34637:34638   */\n      0x00\n        /* \"#utility.yul\":34626:34635   */\n      dup4\n        /* \"#utility.yul\":34622:34639   */\n      add\n        /* \"#utility.yul\":34613:34619   */\n      dup6\n        /* \"#utility.yul\":34569:34640   */\n      tag_656\n      jump\t// in\n    tag_735:\n        /* \"#utility.yul\":34650:34722   */\n      tag_736\n        /* \"#utility.yul\":34718:34720   */\n      0x20\n        /* \"#utility.yul\":34707:34716   */\n      dup4\n        /* \"#utility.yul\":34703:34721   */\n      add\n        /* \"#utility.yul\":34694:34700   */\n      dup5\n        /* \"#utility.yul\":34650:34722   */\n      tag_656\n      jump\t// in\n    tag_736:\n        /* \"#utility.yul\":34397:34729   */\n      swap4\n      swap3\n      pop\n      pop\n      pop\n      jump\t// out\n        /* \"#utility.yul\":34735:34957   */\n    tag_29:\n        /* \"#utility.yul\":34828:34832   */\n      0x00\n        /* \"#utility.yul\":34866:34868   */\n      0x20\n        /* \"#utility.yul\":34855:34864   */\n      dup3\n        /* \"#utility.yul\":34851:34869   */\n      add\n        /* \"#utility.yul\":34843:34869   */\n      swap1\n      pop\n        /* \"#utility.yul\":34879:34950   */\n      tag_738\n        /* \"#utility.yul\":34947:34948   */\n      0x00\n        /* \"#utility.yul\":34936:34945   */\n      dup4\n        /* \"#utility.yul\":34932:34949   */\n      add\n        /* \"#utility.yul\":34923:34929   */\n      dup5\n        /* \"#utility.yul\":34879:34950   */\n      tag_664\n      jump\t// in\n    tag_738:\n        /* \"#utility.yul\":34735:34957   */\n      swap3\n      swap2\n      pop\n      pop\n      jump\t// out\n        /* \"#utility.yul\":34963:35504   */\n    tag_66:\n        /* \"#utility.yul\":35134:35138   */\n      0x00\n        /* \"#utility.yul\":35172:35175   */\n      0x80\n        /* \"#utility.yul\":35161:35170   */\n      dup3\n        /* \"#utility.yul\":35157:35176   */\n      add\n        /* \"#utility.yul\":35149:35176   */\n      swap1\n      pop\n        /* \"#utility.yul\":35186:35257   */\n      tag_740\n        /* \"#utility.yul\":35254:35255   */\n      0x00\n        /* \"#utility.yul\":35243:35252   */\n      dup4\n        /* \"#utility.yul\":35239:35256   */\n      add\n        /* \"#utility.yul\":35230:35236   */\n      dup8\n        /* \"#utility.yul\":35186:35257   */\n      tag_664\n      jump\t// in\n    tag_740:\n        /* \"#utility.yul\":35267:35339   */\n      tag_741\n        /* \"#utility.yul\":35335:35337   */\n      0x20\n        /* \"#utility.yul\":35324:35333   */\n      dup4\n        /* \"#utility.yul\":35320:35338   */\n      add\n        /* \"#utility.yul\":35311:35317   */\n      dup7\n        /* \"#utility.yul\":35267:35339   */\n      tag_484\n      jump\t// in\n    tag_741:\n        /* \"#utility.yul\":35349:35415   */\n      tag_742\n        /* \"#utility.yul\":35411:35413   */\n      0x40\n        /* \"#utility.yul\":35400:35409   */\n      dup4\n        /* \"#utility.yul\":35396:35414   */\n      add\n        /* \"#utility.yul\":35387:35393   */\n      dup6\n        /* \"#utility.yul\":35349:35415   */\n      tag_515\n      jump\t// in\n    tag_742:\n        /* \"#utility.yul\":35425:35497   */\n      tag_743\n        /* \"#utility.yul\":35493:35495   */\n      0x60\n        /* \"#utility.yul\":35482:35491   */\n      dup4\n        /* \"#utility.yul\":35478:35496   */\n      add\n        /* \"#utility.yul\":35469:35475   */\n      dup5\n        /* \"#utility.yul\":35425:35497   */\n      tag_664\n      jump\t// in\n    tag_743:\n        /* \"#utility.yul\":34963:35504   */\n      swap6\n      swap5\n      pop\n      pop\n      pop\n      pop\n      pop\n      jump\t// out\n        /* \"#utility.yul\":35510:36853   */\n    tag_101:\n        /* \"#utility.yul\":35923:35927   */\n      0x00\n        /* \"#utility.yul\":35961:35964   */\n      0xe0\n        /* \"#utility.yul\":35950:35959   */\n      dup3\n        /* \"#utility.yul\":35946:35965   */\n      add\n        /* \"#utility.yul\":35938:35965   */\n      swap1\n      pop\n        /* \"#utility.yul\":35975:36046   */\n      tag_745\n        /* \"#utility.yul\":36043:36044   */\n      0x00\n        /* \"#utility.yul\":36032:36041   */\n      dup4\n        /* \"#utility.yul\":36028:36045   */\n      add\n        /* \"#utility.yul\":36019:36025   */\n      dup12\n        /* \"#utility.yul\":35975:36046   */\n      tag_664\n      jump\t// in\n    tag_745:\n        /* \"#utility.yul\":36093:36102   */\n      dup2\n        /* \"#utility.yul\":36087:36091   */\n      dup2\n        /* \"#utility.yul\":36083:36103   */\n      sub\n        /* \"#utility.yul\":36078:36080   */\n      0x20\n        /* \"#utility.yul\":36067:36076   */\n      dup4\n        /* \"#utility.yul\":36063:36081   */\n      add\n        /* \"#utility.yul\":36056:36104   */\n      mstore\n        /* \"#utility.yul\":36121:36229   */\n      tag_746\n        /* \"#utility.yul\":36224:36228   */\n      dup2\n        /* \"#utility.yul\":36215:36221   */\n      dup11\n        /* \"#utility.yul\":36121:36229   */\n      tag_487\n      jump\t// in\n    tag_746:\n        /* \"#utility.yul\":36113:36229   */\n      swap1\n      pop\n        /* \"#utility.yul\":36239:36311   */\n      tag_747\n        /* \"#utility.yul\":36307:36309   */\n      0x40\n        /* \"#utility.yul\":36296:36305   */\n      dup4\n        /* \"#utility.yul\":36292:36310   */\n      add\n        /* \"#utility.yul\":36283:36289   */\n      dup10\n        /* \"#utility.yul\":36239:36311   */\n      tag_484\n      jump\t// in\n    tag_747:\n        /* \"#utility.yul\":36321:36393   */\n      tag_748\n        /* \"#utility.yul\":36389:36391   */\n      0x60\n        /* \"#utility.yul\":36378:36387   */\n      dup4\n        /* \"#utility.yul\":36374:36392   */\n      add\n        /* \"#utility.yul\":36365:36371   */\n      dup9\n        /* \"#utility.yul\":36321:36393   */\n      tag_664\n      jump\t// in\n    tag_748:\n        /* \"#utility.yul\":36403:36476   */\n      tag_749\n        /* \"#utility.yul\":36471:36474   */\n      0x80\n        /* \"#utility.yul\":36460:36469   */\n      dup4\n        /* \"#utility.yul\":36456:36475   */\n      add\n        /* \"#utility.yul\":36447:36453   */\n      dup8\n        /* \"#utility.yul\":36403:36476   */\n      tag_664\n      jump\t// in\n    tag_749:\n        /* \"#utility.yul\":36524:36533   */\n      dup2\n        /* \"#utility.yul\":36518:36522   */\n      dup2\n        /* \"#utility.yul\":36514:36534   */\n      sub\n        /* \"#utility.yul\":36508:36511   */\n      0xa0\n        /* \"#utility.yul\":36497:36506   */\n      dup4\n        /* \"#utility.yul\":36493:36512   */\n      add\n        /* \"#utility.yul\":36486:36535   */\n      mstore\n        /* \"#utility.yul\":36552:36630   */\n      tag_750\n        /* \"#utility.yul\":36625:36629   */\n      dup2\n        /* \"#utility.yul\":36616:36622   */\n      dup7\n        /* \"#utility.yul\":36552:36630   */\n      tag_530\n      jump\t// in\n    tag_750:\n        /* \"#utility.yul\":36544:36630   */\n      swap1\n      pop\n        /* \"#utility.yul\":36678:36687   */\n      dup2\n        /* \"#utility.yul\":36672:36676   */\n      dup2\n        /* \"#utility.yul\":36668:36688   */\n      sub\n        /* \"#utility.yul\":36662:36665   */\n      0xc0\n        /* \"#utility.yul\":36651:36660   */\n      dup4\n        /* \"#utility.yul\":36647:36666   */\n      add\n        /* \"#utility.yul\":36640:36689   */\n      mstore\n        /* \"#utility.yul\":36706:36846   */\n      tag_751\n        /* \"#utility.yul\":36841:36845   */\n      dup2\n        /* \"#utility.yul\":36832:36838   */\n      dup5\n        /* \"#utility.yul\":36824:36830   */\n      dup7\n        /* \"#utility.yul\":36706:36846   */\n      tag_501\n      jump\t// in\n    tag_751:\n        /* \"#utility.yul\":36698:36846   */\n      swap1\n      pop\n        /* \"#utility.yul\":35510:36853   */\n      swap10\n      swap9\n      pop\n      pop\n      pop\n      pop\n      pop\n      pop\n      pop\n      pop\n      pop\n      jump\t// out\n        /* \"#utility.yul\":36859:37282   */\n    tag_60:\n        /* \"#utility.yul\":37000:37004   */\n      0x00\n        /* \"#utility.yul\":37038:37040   */\n      0x40\n        /* \"#utility.yul\":37027:37036   */\n      dup3\n        /* \"#utility.yul\":37023:37041   */\n      add\n        /* \"#utility.yul\":37015:37041   */\n      swap1\n      pop\n        /* \"#utility.yul\":37051:37122   */\n      tag_753\n        /* \"#utility.yul\":37119:37120   */\n      0x00\n        /* \"#utility.yul\":37108:37117   */\n      dup4\n        /* \"#utility.yul\":37104:37121   */\n      add\n        /* \"#utility.yul\":37095:37101   */\n      dup6\n        /* \"#utility.yul\":37051:37122   */\n      tag_664\n      jump\t// in\n    tag_753:\n        /* \"#utility.yul\":37169:37178   */\n      dup2\n        /* \"#utility.yul\":37163:37167   */\n      dup2\n        /* \"#utility.yul\":37159:37179   */\n      sub\n        /* \"#utility.yul\":37154:37156   */\n      0x20\n        /* \"#utility.yul\":37143:37152   */\n      dup4\n        /* \"#utility.yul\":37139:37157   */\n      add\n        /* \"#utility.yul\":37132:37180   */\n      mstore\n        /* \"#utility.yul\":37197:37275   */\n      tag_754\n        /* \"#utility.yul\":37270:37274   */\n      dup2\n        /* \"#utility.yul\":37261:37267   */\n      dup5\n        /* \"#utility.yul\":37197:37275   */\n      tag_530\n      jump\t// in\n    tag_754:\n        /* \"#utility.yul\":37189:37275   */\n      swap1\n      pop\n        /* \"#utility.yul\":36859:37282   */\n      swap4\n      swap3\n      pop\n      pop\n      pop\n      jump\t// out\n        /* \"#utility.yul\":37288:37502   */\n    tag_33:\n        /* \"#utility.yul\":37377:37381   */\n      0x00\n        /* \"#utility.yul\":37415:37417   */\n      0x20\n        /* \"#utility.yul\":37404:37413   */\n      dup3\n        /* \"#utility.yul\":37400:37418   */\n      add\n        /* \"#utility.yul\":37392:37418   */\n      swap1\n      pop\n        /* \"#utility.yul\":37428:37495   */\n      tag_756\n        /* \"#utility.yul\":37492:37493   */\n      0x00\n        /* \"#utility.yul\":37481:37490   */\n      dup4\n        /* \"#utility.yul\":37477:37494   */\n      add\n        /* \"#utility.yul\":37468:37474   */\n      dup5\n        /* \"#utility.yul\":37428:37495   */\n      tag_668\n      jump\t// in\n    tag_756:\n        /* \"#utility.yul\":37288:37502   */\n      swap3\n      swap2\n      pop\n      pop\n      jump\t// out\n        /* \"#utility.yul\":37508:38233   */\n    tag_199:\n        /* \"#utility.yul\":37586:37590   */\n      0x00\n        /* \"#utility.yul\":37592:37598   */\n      dup1\n        /* \"#utility.yul\":37648:37659   */\n      dup4\n        /* \"#utility.yul\":37635:37660   */\n      calldataload\n        /* \"#utility.yul\":37748:37749   */\n      0x01\n        /* \"#utility.yul\":37742:37746   */\n      0x20\n        /* \"#utility.yul\":37738:37750   */\n      sub\n        /* \"#utility.yul\":37727:37735   */\n      dup5\n        /* \"#utility.yul\":37711:37725   */\n      calldatasize\n        /* \"#utility.yul\":37707:37736   */\n      sub\n        /* \"#utility.yul\":37703:37751   */\n      sub\n        /* \"#utility.yul\":37683:37701   */\n      dup2\n        /* \"#utility.yul\":37679:37752   */\n      slt\n        /* \"#utility.yul\":37669:37837   */\n      tag_758\n      jumpi\n        /* \"#utility.yul\":37756:37835   */\n      tag_759\n      tag_760\n      jump\t// in\n    tag_759:\n        /* \"#utility.yul\":37669:37837   */\n    tag_758:\n        /* \"#utility.yul\":37868:37886   */\n      dup1\n        /* \"#utility.yul\":37858:37866   */\n      dup5\n        /* \"#utility.yul\":37854:37887   */\n      add\n        /* \"#utility.yul\":37846:37887   */\n      swap3\n      pop\n        /* \"#utility.yul\":37920:37924   */\n      dup3\n        /* \"#utility.yul\":37907:37925   */\n      calldataload\n        /* \"#utility.yul\":37897:37925   */\n      swap2\n      pop\n        /* \"#utility.yul\":37948:37966   */\n      0xffffffffffffffff\n        /* \"#utility.yul\":37940:37946   */\n      dup3\n        /* \"#utility.yul\":37937:37967   */\n      gt\n        /* \"#utility.yul\":37934:38051   */\n      iszero\n      tag_761\n      jumpi\n        /* \"#utility.yul\":37970:38049   */\n      tag_762\n      tag_763\n      jump\t// in\n    tag_762:\n        /* \"#utility.yul\":37934:38051   */\n    tag_761:\n        /* \"#utility.yul\":38078:38080   */\n      0x20\n        /* \"#utility.yul\":38072:38076   */\n      dup4\n        /* \"#utility.yul\":38068:38081   */\n      add\n        /* \"#utility.yul\":38060:38081   */\n      swap3\n      pop\n        /* \"#utility.yul\":38135:38139   */\n      0x01\n        /* \"#utility.yul\":38127:38133   */\n      dup3\n        /* \"#utility.yul\":38123:38140   */\n      mul\n        /* \"#utility.yul\":38107:38121   */\n      calldatasize\n        /* \"#utility.yul\":38103:38141   */\n      sub\n        /* \"#utility.yul\":38097:38101   */\n      dup4\n        /* \"#utility.yul\":38093:38142   */\n      sgt\n        /* \"#utility.yul\":38090:38226   */\n      iszero\n      tag_764\n      jumpi\n        /* \"#utility.yul\":38145:38224   */\n      tag_765\n      tag_766\n      jump\t// in\n    tag_765:\n        /* \"#utility.yul\":38090:38226   */\n    tag_764:\n        /* \"#utility.yul\":37599:38233   */\n      pop\n        /* \"#utility.yul\":37508:38233   */\n      swap3\n      pop\n      swap3\n      swap1\n      pop\n      jump\t// out\n        /* \"#utility.yul\":38239:38368   */\n    tag_341:\n        /* \"#utility.yul\":38273:38279   */\n      0x00\n        /* \"#utility.yul\":38300:38320   */\n      tag_768\n      tag_769\n      jump\t// in\n    tag_768:\n        /* \"#utility.yul\":38290:38320   */\n      swap1\n      pop\n        /* \"#utility.yul\":38329:38362   */\n      tag_770\n        /* \"#utility.yul\":38357:38361   */\n      dup3\n        /* \"#utility.yul\":38349:38355   */\n      dup3\n        /* \"#utility.yul\":38329:38362   */\n      tag_771\n      jump\t// in\n    tag_770:\n        /* \"#utility.yul\":38239:38368   */\n      swap2\n      swap1\n      pop\n      jump\t// out\n        /* \"#utility.yul\":38374:38449   */\n    tag_769:\n        /* \"#utility.yul\":38407:38413   */\n      0x00\n        /* \"#utility.yul\":38440:38442   */\n      0x40\n        /* \"#utility.yul\":38434:38443   */\n      mload\n        /* \"#utility.yul\":38424:38443   */\n      swap1\n      pop\n        /* \"#utility.yul\":38374:38449   */\n      swap1\n      jump\t// out\n        /* \"#utility.yul\":38455:38766   */\n    tag_340:\n        /* \"#utility.yul\":38532:38536   */\n      0x00\n        /* \"#utility.yul\":38622:38640   */\n      0xffffffffffffffff\n        /* \"#utility.yul\":38614:38620   */\n      dup3\n        /* \"#utility.yul\":38611:38641   */\n      gt\n        /* \"#utility.yul\":38608:38664   */\n      iszero\n      tag_774\n      jumpi\n        /* \"#utility.yul\":38644:38662   */\n      tag_775\n      tag_776\n      jump\t// in\n    tag_775:\n        /* \"#utility.yul\":38608:38664   */\n    tag_774:\n        /* \"#utility.yul\":38694:38698   */\n      0x20\n        /* \"#utility.yul\":38686:38692   */\n      dup3\n        /* \"#utility.yul\":38682:38699   */\n      mul\n        /* \"#utility.yul\":38674:38699   */\n      swap1\n      pop\n        /* \"#utility.yul\":38754:38758   */\n      0x20\n        /* \"#utility.yul\":38748:38752   */\n      dup2\n        /* \"#utility.yul\":38744:38759   */\n      add\n        /* \"#utility.yul\":38736:38759   */\n      swap1\n      pop\n        /* \"#utility.yul\":38455:38766   */\n      swap2\n      swap1\n      pop\n      jump\t// out\n        /* \"#utility.yul\":38772:39093   */\n    tag_354:\n        /* \"#utility.yul\":38859:38863   */\n      0x00\n        /* \"#utility.yul\":38949:38967   */\n      0xffffffffffffffff\n        /* \"#utility.yul\":38941:38947   */\n      dup3\n        /* \"#utility.yul\":38938:38968   */\n      gt\n        /* \"#utility.yul\":38935:38991   */\n      iszero\n      tag_778\n      jumpi\n        /* \"#utility.yul\":38971:38989   */\n      tag_779\n      tag_776\n      jump\t// in\n    tag_779:\n        /* \"#utility.yul\":38935:38991   */\n    tag_778:\n        /* \"#utility.yul\":39021:39025   */\n      0x20\n        /* \"#utility.yul\":39013:39019   */\n      dup3\n        /* \"#utility.yul\":39009:39026   */\n      mul\n        /* \"#utility.yul\":39001:39026   */\n      swap1\n      pop\n        /* \"#utility.yul\":39081:39085   */\n      0x20\n        /* \"#utility.yul\":39075:39079   */\n      dup2\n        /* \"#utility.yul\":39071:39086   */\n      add\n        /* \"#utility.yul\":39063:39086   */\n      swap1\n      pop\n        /* \"#utility.yul\":38772:39093   */\n      swap2\n      swap1\n      pop\n      jump\t// out\n        /* \"#utility.yul\":39099:39410   */\n    tag_369:\n        /* \"#utility.yul\":39176:39180   */\n      0x00\n        /* \"#utility.yul\":39266:39284   */\n      0xffffffffffffffff\n        /* \"#utility.yul\":39258:39264   */\n      dup3\n        /* \"#utility.yul\":39255:39285   */\n      gt\n        /* \"#utility.yul\":39252:39308   */\n      iszero\n      tag_781\n      jumpi\n        /* \"#utility.yul\":39288:39306   */\n      tag_782\n      tag_776\n      jump\t// in\n    tag_782:\n        /* \"#utility.yul\":39252:39308   */\n    tag_781:\n        /* \"#utility.yul\":39338:39342   */\n      0x20\n        /* \"#utility.yul\":39330:39336   */\n      dup3\n        /* \"#utility.yul\":39326:39343   */\n      mul\n        /* \"#utility.yul\":39318:39343   */\n      swap1\n      pop\n        /* \"#utility.yul\":39398:39402   */\n      0x20\n        /* \"#utility.yul\":39392:39396   */\n      dup2\n        /* \"#utility.yul\":39388:39403   */\n      add\n        /* \"#utility.yul\":39380:39403   */\n      swap1\n      pop\n        /* \"#utility.yul\":39099:39410   */\n      swap2\n      swap1\n      pop\n      jump\t// out\n        /* \"#utility.yul\":39416:39724   */\n    tag_381:\n        /* \"#utility.yul\":39478:39482   */\n      0x00\n        /* \"#utility.yul\":39568:39586   */\n      0xffffffffffffffff\n        /* \"#utility.yul\":39560:39566   */\n      dup3\n        /* \"#utility.yul\":39557:39587   */\n      gt\n        /* \"#utility.yul\":39554:39610   */\n      iszero\n      tag_784\n      jumpi\n        /* \"#utility.yul\":39590:39608   */\n      tag_785\n      tag_776\n      jump\t// in\n    tag_785:\n        /* \"#utility.yul\":39554:39610   */\n    tag_784:\n        /* \"#utility.yul\":39628:39657   */\n      tag_786\n        /* \"#utility.yul\":39650:39656   */\n      dup3\n        /* \"#utility.yul\":39628:39657   */\n      tag_524\n      jump\t// in\n    tag_786:\n        /* \"#utility.yul\":39620:39657   */\n      swap1\n      pop\n        /* \"#utility.yul\":39712:39716   */\n      0x20\n        /* \"#utility.yul\":39706:39710   */\n      dup2\n        /* \"#utility.yul\":39702:39717   */\n      add\n        /* \"#utility.yul\":39694:39717   */\n      swap1\n      pop\n        /* \"#utility.yul\":39416:39724   */\n      swap2\n      swap1\n      pop\n      jump\t// out\n        /* \"#utility.yul\":39730:39862   */\n    tag_494:\n        /* \"#utility.yul\":39797:39801   */\n      0x00\n        /* \"#utility.yul\":39820:39823   */\n      dup2\n        /* \"#utility.yul\":39812:39823   */\n      swap1\n      pop\n        /* \"#utility.yul\":39850:39854   */\n      0x20\n        /* \"#utility.yul\":39845:39848   */\n      dup3\n        /* \"#utility.yul\":39841:39855   */\n      add\n        /* \"#utility.yul\":39833:39855   */\n      swap1\n      pop\n        /* \"#utility.yul\":39730:39862   */\n      swap2\n      swap1\n      pop\n      jump\t// out\n        /* \"#utility.yul\":39868:39982   */\n    tag_506:\n        /* \"#utility.yul\":39949:39953   */\n      0x00\n        /* \"#utility.yul\":39972:39975   */\n      dup2\n        /* \"#utility.yul\":39964:39975   */\n      swap1\n      pop\n        /* \"#utility.yul\":39868:39982   */\n      swap2\n      swap1\n      pop\n      jump\t// out\n        /* \"#utility.yul\":39988:40129   */\n    tag_552:\n        /* \"#utility.yul\":40037:40041   */\n      0x00\n        /* \"#utility.yul\":40060:40063   */\n      dup2\n        /* \"#utility.yul\":40052:40063   */\n      swap1\n      pop\n        /* \"#utility.yul\":40083:40086   */\n      dup2\n        /* \"#utility.yul\":40080:40081   */\n      0x00\n        /* \"#utility.yul\":40073:40087   */\n      mstore\n        /* \"#utility.yul\":40117:40121   */\n      0x20\n        /* \"#utility.yul\":40114:40115   */\n      0x00\n        /* \"#utility.yul\":40104:40122   */\n      keccak256\n        /* \"#utility.yul\":40096:40122   */\n      swap1\n      pop\n        /* \"#utility.yul\":39988:40129   */\n      swap2\n      swap1\n      pop\n      jump\t// out\n        /* \"#utility.yul\":40135:40249   */\n    tag_490:\n        /* \"#utility.yul\":40202:40208   */\n      0x00\n        /* \"#utility.yul\":40236:40241   */\n      dup2\n        /* \"#utility.yul\":40230:40242   */\n      mload\n        /* \"#utility.yul\":40220:40242   */\n      swap1\n      pop\n        /* \"#utility.yul\":40135:40249   */\n      swap2\n      swap1\n      pop\n      jump\t// out\n        /* \"#utility.yul\":40255:40354   */\n    tag_533:\n        /* \"#utility.yul\":40307:40313   */\n      0x00\n        /* \"#utility.yul\":40341:40346   */\n      dup2\n        /* \"#utility.yul\":40335:40347   */\n      mload\n        /* \"#utility.yul\":40325:40347   */\n      swap1\n      pop\n        /* \"#utility.yul\":40255:40354   */\n      swap2\n      swap1\n      pop\n      jump\t// out\n        /* \"#utility.yul\":40360:40473   */\n    tag_500:\n        /* \"#utility.yul\":40430:40434   */\n      0x00\n        /* \"#utility.yul\":40462:40466   */\n      0x20\n        /* \"#utility.yul\":40457:40460   */\n      dup3\n        /* \"#utility.yul\":40453:40467   */\n      add\n        /* \"#utility.yul\":40445:40467   */\n      swap1\n      pop\n        /* \"#utility.yul\":40360:40473   */\n      swap2\n      swap1\n      pop\n      jump\t// out\n        /* \"#utility.yul\":40479:40606   */\n    tag_514:\n        /* \"#utility.yul\":40563:40567   */\n      0x00\n        /* \"#utility.yul\":40595:40599   */\n      0x20\n        /* \"#utility.yul\":40590:40593   */\n      dup3\n        /* \"#utility.yul\":40586:40600   */\n      add\n        /* \"#utility.yul\":40578:40600   */\n      swap1\n      pop\n        /* \"#utility.yul\":40479:40606   */\n      swap2\n      swap1\n      pop\n      jump\t// out\n        /* \"#utility.yul\":40612:40796   */\n    tag_492:\n        /* \"#utility.yul\":40711:40722   */\n      0x00\n        /* \"#utility.yul\":40745:40751   */\n      dup3\n        /* \"#utility.yul\":40740:40743   */\n      dup3\n        /* \"#utility.yul\":40733:40752   */\n      mstore\n        /* \"#utility.yul\":40785:40789   */\n      0x20\n        /* \"#utility.yul\":40780:40783   */\n      dup3\n        /* \"#utility.yul\":40776:40790   */\n      add\n        /* \"#utility.yul\":40761:40790   */\n      swap1\n      pop\n        /* \"#utility.yul\":40612:40796   */\n      swap3\n      swap2\n      pop\n      pop\n      jump\t// out\n        /* \"#utility.yul\":40802:40996   */\n    tag_504:\n        /* \"#utility.yul\":40911:40922   */\n      0x00\n        /* \"#utility.yul\":40945:40951   */\n      dup3\n        /* \"#utility.yul\":40940:40943   */\n      dup3\n        /* \"#utility.yul\":40933:40952   */\n      mstore\n        /* \"#utility.yul\":40985:40989   */\n      0x20\n        /* \"#utility.yul\":40980:40983   */\n      dup3\n        /* \"#utility.yul\":40976:40990   */\n      add\n        /* \"#utility.yul\":40961:40990   */\n      swap1\n      pop\n        /* \"#utility.yul\":40802:40996   */\n      swap3\n      swap2\n      pop\n      pop\n      jump\t// out\n        /* \"#utility.yul\":41002:41161   */\n    tag_521:\n        /* \"#utility.yul\":41076:41087   */\n      0x00\n        /* \"#utility.yul\":41110:41116   */\n      dup3\n        /* \"#utility.yul\":41105:41108   */\n      dup3\n        /* \"#utility.yul\":41098:41117   */\n      mstore\n        /* \"#utility.yul\":41150:41154   */\n      0x20\n        /* \"#utility.yul\":41145:41148   */\n      dup3\n        /* \"#utility.yul\":41141:41155   */\n      add\n        /* \"#utility.yul\":41126:41155   */\n      swap1\n      pop\n        /* \"#utility.yul\":41002:41161   */\n      swap3\n      swap2\n      pop\n      pop\n      jump\t// out\n        /* \"#utility.yul\":41167:41336   */\n    tag_535:\n        /* \"#utility.yul\":41251:41262   */\n      0x00\n        /* \"#utility.yul\":41285:41291   */\n      dup3\n        /* \"#utility.yul\":41280:41283   */\n      dup3\n        /* \"#utility.yul\":41273:41292   */\n      mstore\n        /* \"#utility.yul\":41325:41329   */\n      0x20\n        /* \"#utility.yul\":41320:41323   */\n      dup3\n        /* \"#utility.yul\":41316:41330   */\n      add\n        /* \"#utility.yul\":41301:41330   */\n      swap1\n      pop\n        /* \"#utility.yul\":41167:41336   */\n      swap3\n      swap2\n      pop\n      pop\n      jump\t// out\n        /* \"#utility.yul\":41342:41490   */\n    tag_528:\n        /* \"#utility.yul\":41444:41455   */\n      0x00\n        /* \"#utility.yul\":41481:41484   */\n      dup2\n        /* \"#utility.yul\":41466:41484   */\n      swap1\n      pop\n        /* \"#utility.yul\":41342:41490   */\n      swap3\n      swap2\n      pop\n      pop\n      jump\t// out\n        /* \"#utility.yul\":41496:42211   */\n    tag_511:\n        /* \"#utility.yul\":41561:41566   */\n      0x00\n        /* \"#utility.yul\":41568:41574   */\n      dup1\n        /* \"#utility.yul\":41624:41627   */\n      dup4\n        /* \"#utility.yul\":41611:41628   */\n      calldataload\n        /* \"#utility.yul\":41716:41717   */\n      0x01\n        /* \"#utility.yul\":41710:41714   */\n      0x20\n        /* \"#utility.yul\":41706:41718   */\n      sub\n        /* \"#utility.yul\":41695:41703   */\n      dup5\n        /* \"#utility.yul\":41679:41693   */\n      calldatasize\n        /* \"#utility.yul\":41675:41704   */\n      sub\n        /* \"#utility.yul\":41671:41719   */\n      sub\n        /* \"#utility.yul\":41651:41669   */\n      dup2\n        /* \"#utility.yul\":41647:41720   */\n      slt\n        /* \"#utility.yul\":41637:41805   */\n      tag_800\n      jumpi\n        /* \"#utility.yul\":41724:41803   */\n      tag_801\n      tag_802\n      jump\t// in\n    tag_801:\n        /* \"#utility.yul\":41637:41805   */\n    tag_800:\n        /* \"#utility.yul\":41847:41855   */\n      dup4\n        /* \"#utility.yul\":41827:41845   */\n      dup2\n        /* \"#utility.yul\":41823:41856   */\n      add\n        /* \"#utility.yul\":41814:41856   */\n      swap3\n      pop\n        /* \"#utility.yul\":41889:41894   */\n      dup3\n        /* \"#utility.yul\":41876:41895   */\n      calldataload\n        /* \"#utility.yul\":41866:41895   */\n      swap2\n      pop\n        /* \"#utility.yul\":41924:41928   */\n      0x20\n        /* \"#utility.yul\":41917:41922   */\n      dup4\n        /* \"#utility.yul\":41913:41929   */\n      add\n        /* \"#utility.yul\":41904:41929   */\n      swap3\n      pop\n        /* \"#utility.yul\":41952:41970   */\n      0xffffffffffffffff\n        /* \"#utility.yul\":41944:41950   */\n      dup3\n        /* \"#utility.yul\":41941:41971   */\n      gt\n        /* \"#utility.yul\":41938:42055   */\n      iszero\n      tag_803\n      jumpi\n        /* \"#utility.yul\":41974:42053   */\n      tag_804\n      tag_805\n      jump\t// in\n    tag_804:\n        /* \"#utility.yul\":41938:42055   */\n    tag_803:\n        /* \"#utility.yul\":42113:42117   */\n      0x01\n        /* \"#utility.yul\":42105:42111   */\n      dup3\n        /* \"#utility.yul\":42101:42118   */\n      mul\n        /* \"#utility.yul\":42085:42099   */\n      calldatasize\n        /* \"#utility.yul\":42081:42119   */\n      sub\n        /* \"#utility.yul\":42071:42079   */\n      dup5\n        /* \"#utility.yul\":42067:42120   */\n      sgt\n        /* \"#utility.yul\":42064:42204   */\n      iszero\n      tag_806\n      jumpi\n        /* \"#utility.yul\":42123:42202   */\n      tag_807\n      tag_808\n      jump\t// in\n    tag_807:\n        /* \"#utility.yul\":42064:42204   */\n    tag_806:\n        /* \"#utility.yul\":41575:42211   */\n      pop\n        /* \"#utility.yul\":41496:42211   */\n      swap3\n      pop\n      swap3\n      swap1\n      pop\n      jump\t// out\n        /* \"#utility.yul\":42217:42459   */\n    tag_278:\n        /* \"#utility.yul\":42256:42259   */\n      0x00\n        /* \"#utility.yul\":42275:42294   */\n      tag_810\n        /* \"#utility.yul\":42292:42293   */\n      dup3\n        /* \"#utility.yul\":42275:42294   */\n      tag_663\n      jump\t// in\n    tag_810:\n        /* \"#utility.yul\":42270:42294   */\n      swap2\n      pop\n        /* \"#utility.yul\":42308:42327   */\n      tag_811\n        /* \"#utility.yul\":42325:42326   */\n      dup4\n        /* \"#utility.yul\":42308:42327   */\n      tag_663\n      jump\t// in\n    tag_811:\n        /* \"#utility.yul\":42303:42327   */\n      swap3\n      pop\n        /* \"#utility.yul\":42401:42402   */\n      dup3\n        /* \"#utility.yul\":42393:42399   */\n      0xffff\n        /* \"#utility.yul\":42389:42403   */\n      sub\n        /* \"#utility.yul\":42386:42387   */\n      dup3\n        /* \"#utility.yul\":42383:42404   */\n      gt\n        /* \"#utility.yul\":42380:42427   */\n      iszero\n      tag_812\n      jumpi\n        /* \"#utility.yul\":42407:42425   */\n      tag_813\n      tag_814\n      jump\t// in\n    tag_813:\n        /* \"#utility.yul\":42380:42427   */\n    tag_812:\n        /* \"#utility.yul\":42451:42452   */\n      dup3\n        /* \"#utility.yul\":42448:42449   */\n      dup3\n        /* \"#utility.yul\":42444:42453   */\n      add\n        /* \"#utility.yul\":42437:42453   */\n      swap1\n      pop\n        /* \"#utility.yul\":42217:42459   */\n      swap3\n      swap2\n      pop\n      pop\n      jump\t// out\n        /* \"#utility.yul\":42465:42770   */\n    tag_148:\n        /* \"#utility.yul\":42505:42508   */\n      0x00\n        /* \"#utility.yul\":42524:42544   */\n      tag_816\n        /* \"#utility.yul\":42542:42543   */\n      dup3\n        /* \"#utility.yul\":42524:42544   */\n      tag_667\n      jump\t// in\n    tag_816:\n        /* \"#utility.yul\":42519:42544   */\n      swap2\n      pop\n        /* \"#utility.yul\":42558:42578   */\n      tag_817\n        /* \"#utility.yul\":42576:42577   */\n      dup4\n        /* \"#utility.yul\":42558:42578   */\n      tag_667\n      jump\t// in\n    tag_817:\n        /* \"#utility.yul\":42553:42578   */\n      swap3\n      pop\n        /* \"#utility.yul\":42712:42713   */\n      dup3\n        /* \"#utility.yul\":42644:42710   */\n      0xffffffffffffffffffffffffffffffffffffffffffffffffffffffffffffffff\n        /* \"#utility.yul\":42640:42714   */\n      sub\n        /* \"#utility.yul\":42637:42638   */\n      dup3\n        /* \"#utility.yul\":42634:42715   */\n      gt\n        /* \"#utility.yul\":42631:42738   */\n      iszero\n      tag_818\n      jumpi\n        /* \"#utility.yul\":42718:42736   */\n      tag_819\n      tag_814\n      jump\t// in\n    tag_819:\n        /* \"#utility.yul\":42631:42738   */\n    tag_818:\n        /* \"#utility.yul\":42762:42763   */\n      dup3\n        /* \"#utility.yul\":42759:42760   */\n      dup3\n        /* \"#utility.yul\":42755:42764   */\n      add\n        /* \"#utility.yul\":42748:42764   */\n      swap1\n      pop\n        /* \"#utility.yul\":42465:42770   */\n      swap3\n      swap2\n      pop\n      pop\n      jump\t// out\n        /* \"#utility.yul\":42776:43124   */\n    tag_146:\n        /* \"#utility.yul\":42816:42823   */\n      0x00\n        /* \"#utility.yul\":42839:42859   */\n      tag_821\n        /* \"#utility.yul\":42857:42858   */\n      dup3\n        /* \"#utility.yul\":42839:42859   */\n      tag_667\n      jump\t// in\n    tag_821:\n        /* \"#utility.yul\":42834:42859   */\n      swap2\n      pop\n        /* \"#utility.yul\":42873:42893   */\n      tag_822\n        /* \"#utility.yul\":42891:42892   */\n      dup4\n        /* \"#utility.yul\":42873:42893   */\n      tag_667\n      jump\t// in\n    tag_822:\n        /* \"#utility.yul\":42868:42893   */\n      swap3\n      pop\n        /* \"#utility.yul\":43061:43062   */\n      dup2\n        /* \"#utility.yul\":42993:43059   */\n      0xffffffffffffffffffffffffffffffffffffffffffffffffffffffffffffffff\n        /* \"#utility.yul\":42989:43063   */\n      div\n        /* \"#utility.yul\":42986:42987   */\n      dup4\n        /* \"#utility.yul\":42983:43064   */\n      gt\n        /* \"#utility.yul\":42978:42979   */\n      dup3\n        /* \"#utility.yul\":42971:42980   */\n      iszero\n        /* \"#utility.yul\":42964:42981   */\n      iszero\n        /* \"#utility.yul\":42960:43065   */\n      and\n        /* \"#utility.yul\":42957:43088   */\n      iszero\n      tag_823\n      jumpi\n        /* \"#utility.yul\":43068:43086   */\n      tag_824\n      tag_814\n      jump\t// in\n    tag_824:\n        /* \"#utility.yul\":42957:43088   */\n    tag_823:\n        /* \"#utility.yul\":43116:43117   */\n      dup3\n        /* \"#utility.yul\":43113:43114   */\n      dup3\n        /* \"#utility.yul\":43109:43118   */\n      mul\n        /* \"#utility.yul\":43098:43118   */\n      swap1\n      pop\n        /* \"#utility.yul\":42776:43124   */\n      swap3\n      swap2\n      pop\n      pop\n      jump\t// out\n        /* \"#utility.yul\":43130:43321   */\n    tag_309:\n        /* \"#utility.yul\":43170:43174   */\n      0x00\n        /* \"#utility.yul\":43190:43210   */\n      tag_826\n        /* \"#utility.yul\":43208:43209   */\n      dup3\n        /* \"#utility.yul\":43190:43210   */\n      tag_667\n      jump\t// in\n    tag_826:\n        /* \"#utility.yul\":43185:43210   */\n      swap2\n      pop\n        /* \"#utility.yul\":43224:43244   */\n      tag_827\n        /* \"#utility.yul\":43242:43243   */\n      dup4\n        /* \"#utility.yul\":43224:43244   */\n      tag_667\n      jump\t// in\n    tag_827:\n        /* \"#utility.yul\":43219:43244   */\n      swap3\n      pop\n        /* \"#utility.yul\":43263:43264   */\n      dup3\n        /* \"#utility.yul\":43260:43261   */\n      dup3\n        /* \"#utility.yul\":43257:43265   */\n      lt\n        /* \"#utility.yul\":43254:43288   */\n      iszero\n      tag_828\n      jumpi\n        /* \"#utility.yul\":43268:43286   */\n      tag_829\n      tag_814\n      jump\t// in\n    tag_829:\n        /* \"#utility.yul\":43254:43288   */\n    tag_828:\n        /* \"#utility.yul\":43313:43314   */\n      dup3\n        /* \"#utility.yul\":43310:43311   */\n      dup3\n        /* \"#utility.yul\":43306:43315   */\n      sub\n        /* \"#utility.yul\":43298:43315   */\n      swap1\n      pop\n        /* \"#utility.yul\":43130:43321   */\n      swap3\n      swap2\n      pop\n      pop\n      jump\t// out\n        /* \"#utility.yul\":43327:43423   */\n    tag_483:\n        /* \"#utility.yul\":43364:43371   */\n      0x00\n        /* \"#utility.yul\":43393:43417   */\n      tag_831\n        /* \"#utility.yul\":43411:43416   */\n      dup3\n        /* \"#utility.yul\":43393:43417   */\n      tag_832\n      jump\t// in\n    tag_831:\n        /* \"#utility.yul\":43382:43417   */\n      swap1\n      pop\n        /* \"#utility.yul\":43327:43423   */\n      swap2\n      swap1\n      pop\n      jump\t// out\n        /* \"#utility.yul\":43429:43519   */\n    tag_518:\n        /* \"#utility.yul\":43463:43470   */\n      0x00\n        /* \"#utility.yul\":43506:43511   */\n      dup2\n        /* \"#utility.yul\":43499:43512   */\n      iszero\n        /* \"#utility.yul\":43492:43513   */\n      iszero\n        /* \"#utility.yul\":43481:43513   */\n      swap1\n      pop\n        /* \"#utility.yul\":43429:43519   */\n      swap2\n      swap1\n      pop\n      jump\t// out\n        /* \"#utility.yul\":43525:43643   */\n    tag_659:\n        /* \"#utility.yul\":43562:43569   */\n      0x00\n        /* \"#utility.yul\":43602:43636   */\n      0xffffffffffffffffffffffffffffffff\n        /* \"#utility.yul\":43595:43600   */\n      dup3\n        /* \"#utility.yul\":43591:43637   */\n      and\n        /* \"#utility.yul\":43580:43637   */\n      swap1\n      pop\n        /* \"#utility.yul\":43525:43643   */\n      swap2\n      swap1\n      pop\n      jump\t// out\n        /* \"#utility.yul\":43649:43738   */\n    tag_663:\n        /* \"#utility.yul\":43685:43692   */\n      0x00\n        /* \"#utility.yul\":43725:43731   */\n      0xffff\n        /* \"#utility.yul\":43718:43723   */\n      dup3\n        /* \"#utility.yul\":43714:43732   */\n      and\n        /* \"#utility.yul\":43703:43732   */\n      swap1\n      pop\n        /* \"#utility.yul\":43649:43738   */\n      swap2\n      swap1\n      pop\n      jump\t// out\n        /* \"#utility.yul\":43744:43870   */\n    tag_832:\n        /* \"#utility.yul\":43781:43788   */\n      0x00\n        /* \"#utility.yul\":43821:43863   */\n      0xffffffffffffffffffffffffffffffffffffffff\n        /* \"#utility.yul\":43814:43819   */\n      dup3\n        /* \"#utility.yul\":43810:43864   */\n      and\n        /* \"#utility.yul\":43799:43864   */\n      swap1\n      pop\n        /* \"#utility.yul\":43744:43870   */\n      swap2\n      swap1\n      pop\n      jump\t// out\n        /* \"#utility.yul\":43876:43953   */\n    tag_667:\n        /* \"#utility.yul\":43913:43920   */\n      0x00\n        /* \"#utility.yul\":43942:43947   */\n      dup2\n        /* \"#utility.yul\":43931:43947   */\n      swap1\n      pop\n        /* \"#utility.yul\":43876:43953   */\n      swap2\n      swap1\n      pop\n      jump\t// out\n        /* \"#utility.yul\":43959:44045   */\n    tag_671:\n        /* \"#utility.yul\":43994:44001   */\n      0x00\n        /* \"#utility.yul\":44034:44038   */\n      0xff\n        /* \"#utility.yul\":44027:44032   */\n      dup3\n        /* \"#utility.yul\":44023:44039   */\n      and\n        /* \"#utility.yul\":44012:44039   */\n      swap1\n      pop\n        /* \"#utility.yul\":43959:44045   */\n      swap2\n      swap1\n      pop\n      jump\t// out\n        /* \"#utility.yul\":44051:44205   */\n    tag_386:\n        /* \"#utility.yul\":44135:44141   */\n      dup3\n        /* \"#utility.yul\":44130:44133   */\n      dup2\n        /* \"#utility.yul\":44125:44128   */\n      dup4\n        /* \"#utility.yul\":44112:44142   */\n      calldatacopy\n        /* \"#utility.yul\":44197:44198   */\n      0x00\n        /* \"#utility.yul\":44188:44194   */\n      dup4\n        /* \"#utility.yul\":44183:44186   */\n      dup4\n        /* \"#utility.yul\":44179:44195   */\n      add\n        /* \"#utility.yul\":44172:44199   */\n      mstore\n        /* \"#utility.yul\":44051:44205   */\n      pop\n      pop\n      pop\n      jump\t// out\n        /* \"#utility.yul\":44211:44518   */\n    tag_537:\n        /* \"#utility.yul\":44279:44280   */\n      0x00\n        /* \"#utility.yul\":44289:44402   */\n    tag_841:\n        /* \"#utility.yul\":44303:44309   */\n      dup4\n        /* \"#utility.yul\":44300:44301   */\n      dup2\n        /* \"#utility.yul\":44297:44310   */\n      lt\n        /* \"#utility.yul\":44289:44402   */\n      iszero\n      tag_843\n      jumpi\n        /* \"#utility.yul\":44388:44389   */\n      dup1\n        /* \"#utility.yul\":44383:44386   */\n      dup3\n        /* \"#utility.yul\":44379:44390   */\n      add\n        /* \"#utility.yul\":44373:44391   */\n      mload\n        /* \"#utility.yul\":44369:44370   */\n      dup2\n        /* \"#utility.yul\":44364:44367   */\n      dup5\n        /* \"#utility.yul\":44360:44371   */\n      add\n        /* \"#utility.yul\":44353:44392   */\n      mstore\n        /* \"#utility.yul\":44325:44327   */\n      0x20\n        /* \"#utility.yul\":44322:44323   */\n      dup2\n        /* \"#utility.yul\":44318:44328   */\n      add\n        /* \"#utility.yul\":44313:44328   */\n      swap1\n      pop\n        /* \"#utility.yul\":44289:44402   */\n      jump(tag_841)\n    tag_843:\n        /* \"#utility.yul\":44420:44426   */\n      dup4\n        /* \"#utility.yul\":44417:44418   */\n      dup2\n        /* \"#utility.yul\":44414:44427   */\n      gt\n        /* \"#utility.yul\":44411:44512   */\n      iszero\n      tag_844\n      jumpi\n        /* \"#utility.yul\":44500:44501   */\n      0x00\n        /* \"#utility.yul\":44491:44497   */\n      dup5\n        /* \"#utility.yul\":44486:44489   */\n      dup5\n        /* \"#utility.yul\":44482:44498   */\n      add\n        /* \"#utility.yul\":44475:44502   */\n      mstore\n        /* \"#utility.yul\":44411:44512   */\n    tag_844:\n        /* \"#utility.yul\":44260:44518   */\n      pop\n        /* \"#utility.yul\":44211:44518   */\n      pop\n      pop\n      pop\n      jump\t// out\n        /* \"#utility.yul\":44524:44844   */\n    tag_73:\n        /* \"#utility.yul\":44568:44574   */\n      0x00\n        /* \"#utility.yul\":44605:44606   */\n      0x02\n        /* \"#utility.yul\":44599:44603   */\n      dup3\n        /* \"#utility.yul\":44595:44607   */\n      div\n        /* \"#utility.yul\":44585:44607   */\n      swap1\n      pop\n        /* \"#utility.yul\":44652:44653   */\n      0x01\n        /* \"#utility.yul\":44646:44650   */\n      dup3\n        /* \"#utility.yul\":44642:44654   */\n      and\n        /* \"#utility.yul\":44673:44691   */\n      dup1\n        /* \"#utility.yul\":44663:44744   */\n      tag_846\n      jumpi\n        /* \"#utility.yul\":44729:44733   */\n      0x7f\n        /* \"#utility.yul\":44721:44727   */\n      dup3\n        /* \"#utility.yul\":44717:44734   */\n      and\n        /* \"#utility.yul\":44707:44734   */\n      swap2\n      pop\n        /* \"#utility.yul\":44663:44744   */\n    tag_846:\n        /* \"#utility.yul\":44791:44793   */\n      0x20\n        /* \"#utility.yul\":44783:44789   */\n      dup3\n        /* \"#utility.yul\":44780:44794   */\n      lt\n        /* \"#utility.yul\":44760:44778   */\n      dup2\n        /* \"#utility.yul\":44757:44795   */\n      eq\n        /* \"#utility.yul\":44754:44838   */\n      iszero\n      tag_847\n      jumpi\n        /* \"#utility.yul\":44810:44828   */\n      tag_848\n      tag_849\n      jump\t// in\n    tag_848:\n        /* \"#utility.yul\":44754:44838   */\n    tag_847:\n        /* \"#utility.yul\":44575:44844   */\n      pop\n        /* \"#utility.yul\":44524:44844   */\n      swap2\n      swap1\n      pop\n      jump\t// out\n        /* \"#utility.yul\":44850:45131   */\n    tag_771:\n        /* \"#utility.yul\":44933:44960   */\n      tag_851\n        /* \"#utility.yul\":44955:44959   */\n      dup3\n        /* \"#utility.yul\":44933:44960   */\n      tag_524\n      jump\t// in\n    tag_851:\n        /* \"#utility.yul\":44925:44931   */\n      dup2\n        /* \"#utility.yul\":44921:44961   */\n      add\n        /* \"#utility.yul\":45063:45069   */\n      dup2\n        /* \"#utility.yul\":45051:45061   */\n      dup2\n        /* \"#utility.yul\":45048:45070   */\n      lt\n        /* \"#utility.yul\":45027:45045   */\n      0xffffffffffffffff\n        /* \"#utility.yul\":45015:45025   */\n      dup3\n        /* \"#utility.yul\":45012:45046   */\n      gt\n        /* \"#utility.yul\":45009:45071   */\n      or\n        /* \"#utility.yul\":45006:45094   */\n      iszero\n      tag_852\n      jumpi\n        /* \"#utility.yul\":45074:45092   */\n      tag_853\n      tag_776\n      jump\t// in\n    tag_853:\n        /* \"#utility.yul\":45006:45094   */\n    tag_852:\n        /* \"#utility.yul\":45114:45124   */\n      dup1\n        /* \"#utility.yul\":45110:45112   */\n      0x40\n        /* \"#utility.yul\":45103:45125   */\n      mstore\n        /* \"#utility.yul\":44893:45131   */\n      pop\n        /* \"#utility.yul\":44850:45131   */\n      pop\n      pop\n      jump\t// out\n        /* \"#utility.yul\":45137:45338   */\n    tag_225:\n        /* \"#utility.yul\":45176:45179   */\n      0x00\n        /* \"#utility.yul\":45199:45223   */\n      tag_855\n        /* \"#utility.yul\":45217:45222   */\n      dup3\n        /* \"#utility.yul\":45199:45223   */\n      tag_659\n      jump\t// in\n    tag_855:\n        /* \"#utility.yul\":45190:45223   */\n      swap2\n      pop\n        /* \"#utility.yul\":45245:45279   */\n      0xffffffffffffffffffffffffffffffff\n        /* \"#utility.yul\":45238:45243   */\n      dup3\n        /* \"#utility.yul\":45235:45280   */\n      eq\n        /* \"#utility.yul\":45232:45303   */\n      iszero\n      tag_856\n      jumpi\n        /* \"#utility.yul\":45283:45301   */\n      tag_857\n      tag_814\n      jump\t// in\n    tag_857:\n        /* \"#utility.yul\":45232:45303   */\n    tag_856:\n        /* \"#utility.yul\":45330:45331   */\n      0x01\n        /* \"#utility.yul\":45323:45328   */\n      dup3\n        /* \"#utility.yul\":45319:45332   */\n      add\n        /* \"#utility.yul\":45312:45332   */\n      swap1\n      pop\n        /* \"#utility.yul\":45137:45338   */\n      swap2\n      swap1\n      pop\n      jump\t// out\n        /* \"#utility.yul\":45344:45515   */\n    tag_250:\n        /* \"#utility.yul\":45382:45385   */\n      0x00\n        /* \"#utility.yul\":45405:45428   */\n      tag_859\n        /* \"#utility.yul\":45422:45427   */\n      dup3\n        /* \"#utility.yul\":45405:45428   */\n      tag_663\n      jump\t// in\n    tag_859:\n        /* \"#utility.yul\":45396:45428   */\n      swap2\n      pop\n        /* \"#utility.yul\":45450:45456   */\n      0xffff\n        /* \"#utility.yul\":45443:45448   */\n      dup3\n        /* \"#utility.yul\":45440:45457   */\n      eq\n        /* \"#utility.yul\":45437:45480   */\n      iszero\n      tag_860\n      jumpi\n        /* \"#utility.yul\":45460:45478   */\n      tag_861\n      tag_814\n      jump\t// in\n    tag_861:\n        /* \"#utility.yul\":45437:45480   */\n    tag_860:\n        /* \"#utility.yul\":45507:45508   */\n      0x01\n        /* \"#utility.yul\":45500:45505   */\n      dup3\n        /* \"#utility.yul\":45496:45509   */\n      add\n        /* \"#utility.yul\":45489:45509   */\n      swap1\n      pop\n        /* \"#utility.yul\":45344:45515   */\n      swap2\n      swap1\n      pop\n      jump\t// out\n        /* \"#utility.yul\":45521:45754   */\n    tag_97:\n        /* \"#utility.yul\":45560:45563   */\n      0x00\n        /* \"#utility.yul\":45583:45607   */\n      tag_863\n        /* \"#utility.yul\":45601:45606   */\n      dup3\n        /* \"#utility.yul\":45583:45607   */\n      tag_667\n      jump\t// in\n    tag_863:\n        /* \"#utility.yul\":45574:45607   */\n      swap2\n      pop\n        /* \"#utility.yul\":45629:45695   */\n      0xffffffffffffffffffffffffffffffffffffffffffffffffffffffffffffffff\n        /* \"#utility.yul\":45622:45627   */\n      dup3\n        /* \"#utility.yul\":45619:45696   */\n      eq\n        /* \"#utility.yul\":45616:45719   */\n      iszero\n      tag_864\n      jumpi\n        /* \"#utility.yul\":45699:45717   */\n      tag_865\n      tag_814\n      jump\t// in\n    tag_865:\n        /* \"#utility.yul\":45616:45719   */\n    tag_864:\n        /* \"#utility.yul\":45746:45747   */\n      0x01\n        /* \"#utility.yul\":45739:45744   */\n      dup3\n        /* \"#utility.yul\":45735:45748   */\n      add\n        /* \"#utility.yul\":45728:45748   */\n      swap1\n      pop\n        /* \"#utility.yul\":45521:45754   */\n      swap2\n      swap1\n      pop\n      jump\t// out\n        /* \"#utility.yul\":45760:45940   */\n    tag_814:\n        /* \"#utility.yul\":45808:45885   */\n      0x4e487b7100000000000000000000000000000000000000000000000000000000\n        /* \"#utility.yul\":45805:45806   */\n      0x00\n        /* \"#utility.yul\":45798:45886   */\n      mstore\n        /* \"#utility.yul\":45905:45909   */\n      0x11\n        /* \"#utility.yul\":45902:45903   */\n      0x04\n        /* \"#utility.yul\":45895:45910   */\n      mstore\n        /* \"#utility.yul\":45929:45933   */\n      0x24\n        /* \"#utility.yul\":45926:45927   */\n      0x00\n        /* \"#utility.yul\":45919:45934   */\n      revert\n        /* \"#utility.yul\":45946:46126   */\n    tag_849:\n        /* \"#utility.yul\":45994:46071   */\n      0x4e487b7100000000000000000000000000000000000000000000000000000000\n        /* \"#utility.yul\":45991:45992   */\n      0x00\n        /* \"#utility.yul\":45984:46072   */\n      mstore\n        /* \"#utility.yul\":46091:46095   */\n      0x22\n        /* \"#utility.yul\":46088:46089   */\n      0x04\n        /* \"#utility.yul\":46081:46096   */\n      mstore\n        /* \"#utility.yul\":46115:46119   */\n      0x24\n        /* \"#utility.yul\":46112:46113   */\n      0x00\n        /* \"#utility.yul\":46105:46120   */\n      revert\n        /* \"#utility.yul\":46132:46312   */\n    tag_108:\n        /* \"#utility.yul\":46180:46257   */\n      0x4e487b7100000000000000000000000000000000000000000000000000000000\n        /* \"#utility.yul\":46177:46178   */\n      0x00\n        /* \"#utility.yul\":46170:46258   */\n      mstore\n        /* \"#utility.yul\":46277:46281   */\n      0x32\n        /* \"#utility.yul\":46274:46275   */\n      0x04\n        /* \"#utility.yul\":46267:46282   */\n      mstore\n        /* \"#utility.yul\":46301:46305   */\n      0x24\n        /* \"#utility.yul\":46298:46299   */\n      0x00\n        /* \"#utility.yul\":46291:46306   */\n      revert\n        /* \"#utility.yul\":46318:46498   */\n    tag_776:\n        /* \"#utility.yul\":46366:46443   */\n      0x4e487b7100000000000000000000000000000000000000000000000000000000\n        /* \"#utility.yul\":46363:46364   */\n      0x00\n        /* \"#utility.yul\":46356:46444   */\n      mstore\n        /* \"#utility.yul\":46463:46467   */\n      0x41\n        /* \"#utility.yul\":46460:46461   */\n      0x04\n        /* \"#utility.yul\":46453:46468   */\n      mstore\n        /* \"#utility.yul\":46487:46491   */\n      0x24\n        /* \"#utility.yul\":46484:46485   */\n      0x00\n        /* \"#utility.yul\":46477:46492   */\n      revert\n        /* \"#utility.yul\":46504:46621   */\n    tag_805:\n        /* \"#utility.yul\":46613:46614   */\n      0x00\n        /* \"#utility.yul\":46610:46611   */\n      dup1\n        /* \"#utility.yul\":46603:46615   */\n      revert\n        /* \"#utility.yul\":46627:46744   */\n    tag_401:\n        /* \"#utility.yul\":46736:46737   */\n      0x00\n        /* \"#utility.yul\":46733:46734   */\n      dup1\n        /* \"#utility.yul\":46726:46738   */\n      revert\n        /* \"#utility.yul\":46750:46867   */\n    tag_362:\n        /* \"#utility.yul\":46859:46860   */\n      0x00\n        /* \"#utility.yul\":46856:46857   */\n      dup1\n        /* \"#utility.yul\":46849:46861   */\n      revert\n        /* \"#utility.yul\":46873:46990   */\n    tag_763:\n        /* \"#utility.yul\":46982:46983   */\n      0x00\n        /* \"#utility.yul\":46979:46980   */\n      dup1\n        /* \"#utility.yul\":46972:46984   */\n      revert\n        /* \"#utility.yul\":46996:47113   */\n    tag_760:\n        /* \"#utility.yul\":47105:47106   */\n      0x00\n        /* \"#utility.yul\":47102:47103   */\n      dup1\n        /* \"#utility.yul\":47095:47107   */\n      revert\n        /* \"#utility.yul\":47119:47236   */\n    tag_808:\n        /* \"#utility.yul\":47228:47229   */\n      0x00\n        /* \"#utility.yul\":47225:47226   */\n      dup1\n        /* \"#utility.yul\":47218:47230   */\n      revert\n        /* \"#utility.yul\":47242:47359   */\n    tag_344:\n        /* \"#utility.yul\":47351:47352   */\n      0x00\n        /* \"#utility.yul\":47348:47349   */\n      dup1\n        /* \"#utility.yul\":47341:47353   */\n      revert\n        /* \"#utility.yul\":47365:47482   */\n    tag_766:\n        /* \"#utility.yul\":47474:47475   */\n      0x00\n        /* \"#utility.yul\":47471:47472   */\n      dup1\n        /* \"#utility.yul\":47464:47476   */\n      revert\n        /* \"#utility.yul\":47488:47605   */\n    tag_384:\n        /* \"#utility.yul\":47597:47598   */\n      0x00\n        /* \"#utility.yul\":47594:47595   */\n      dup1\n        /* \"#utility.yul\":47587:47599   */\n      revert\n        /* \"#utility.yul\":47611:47728   */\n    tag_451:\n        /* \"#utility.yul\":47720:47721   */\n      0x00\n        /* \"#utility.yul\":47717:47718   */\n      dup1\n        /* \"#utility.yul\":47710:47722   */\n      revert\n        /* \"#utility.yul\":47734:47851   */\n    tag_802:\n        /* \"#utility.yul\":47843:47844   */\n      0x00\n        /* \"#utility.yul\":47840:47841   */\n      dup1\n        /* \"#utility.yul\":47833:47845   */\n      revert\n        /* \"#utility.yul\":47857:47974   */\n    tag_428:\n        /* \"#utility.yul\":47966:47967   */\n      0x00\n        /* \"#utility.yul\":47963:47964   */\n      dup1\n        /* \"#utility.yul\":47956:47968   */\n      revert\n        /* \"#utility.yul\":47980:48082   */\n    tag_524:\n        /* \"#utility.yul\":48021:48027   */\n      0x00\n        /* \"#utility.yul\":48072:48074   */\n      0x1f\n        /* \"#utility.yul\":48068:48075   */\n      not\n        /* \"#utility.yul\":48063:48065   */\n      0x1f\n        /* \"#utility.yul\":48056:48061   */\n      dup4\n        /* \"#utility.yul\":48052:48066   */\n      add\n        /* \"#utility.yul\":48048:48076   */\n      and\n        /* \"#utility.yul\":48038:48076   */\n      swap1\n      pop\n        /* \"#utility.yul\":47980:48082   */\n      swap2\n      swap1\n      pop\n      jump\t// out\n        /* \"#utility.yul\":48088:48256   */\n    tag_560:\n        /* \"#utility.yul\":48228:48248   */\n      0x50726f706f73616c3a20696e6163746976650000000000000000000000000000\n        /* \"#utility.yul\":48224:48225   */\n      0x00\n        /* \"#utility.yul\":48216:48222   */\n      dup3\n        /* \"#utility.yul\":48212:48226   */\n      add\n        /* \"#utility.yul\":48205:48249   */\n      mstore\n        /* \"#utility.yul\":48088:48256   */\n      pop\n      jump\t// out\n        /* \"#utility.yul\":48262:48493   */\n    tag_565:\n        /* \"#utility.yul\":48402:48436   */\n      0x456e642074696d652073686f756c642062652067726561746572207468616e20\n        /* \"#utility.yul\":48398:48399   */\n      0x00\n        /* \"#utility.yul\":48390:48396   */\n      dup3\n        /* \"#utility.yul\":48386:48400   */\n      add\n        /* \"#utility.yul\":48379:48437   */\n      mstore\n        /* \"#utility.yul\":48471:48485   */\n      0x63757272656e742074696d650000000000000000000000000000000000000000\n        /* \"#utility.yul\":48466:48468   */\n      0x20\n        /* \"#utility.yul\":48458:48464   */\n      dup3\n        /* \"#utility.yul\":48454:48469   */\n      add\n        /* \"#utility.yul\":48447:48486   */\n      mstore\n        /* \"#utility.yul\":48262:48493   */\n      pop\n      jump\t// out\n        /* \"#utility.yul\":48499:48720   */\n    tag_570:\n        /* \"#utility.yul\":48639:48673   */\n      0x45524332303a206275726e20616d6f756e7420657863656564732062616c616e\n        /* \"#utility.yul\":48635:48636   */\n      0x00\n        /* \"#utility.yul\":48627:48633   */\n      dup3\n        /* \"#utility.yul\":48623:48637   */\n      add\n        /* \"#utility.yul\":48616:48674   */\n      mstore\n        /* \"#utility.yul\":48708:48712   */\n      0x6365000000000000000000000000000000000000000000000000000000000000\n        /* \"#utility.yul\":48703:48705   */\n      0x20\n        /* \"#utility.yul\":48695:48701   */\n      dup3\n        /* \"#utility.yul\":48691:48706   */\n      add\n        /* \"#utility.yul\":48684:48713   */\n      mstore\n        /* \"#utility.yul\":48499:48720   */\n      pop\n      jump\t// out\n        /* \"#utility.yul\":48726:48889   */\n    tag_575:\n        /* \"#utility.yul\":48866:48881   */\n      0x616c726561647920766f74656400000000000000000000000000000000000000\n        /* \"#utility.yul\":48862:48863   */\n      0x00\n        /* \"#utility.yul\":48854:48860   */\n      dup3\n        /* \"#utility.yul\":48850:48864   */\n      add\n        /* \"#utility.yul\":48843:48882   */\n      mstore\n        /* \"#utility.yul\":48726:48889   */\n      pop\n      jump\t// out\n        /* \"#utility.yul\":48895:49072   */\n    tag_580:\n        /* \"#utility.yul\":49035:49064   */\n      0x50726f706f73616c3a20696e76616c69642063616e6469646174650000000000\n        /* \"#utility.yul\":49031:49032   */\n      0x00\n        /* \"#utility.yul\":49023:49029   */\n      dup3\n        /* \"#utility.yul\":49019:49033   */\n      add\n        /* \"#utility.yul\":49012:49065   */\n      mstore\n        /* \"#utility.yul\":48895:49072   */\n      pop\n      jump\t// out\n        /* \"#utility.yul\":49078:49248   */\n    tag_585:\n        /* \"#utility.yul\":49218:49240   */\n      0x6e6f7420612076616c69642070726f706f73616c000000000000000000000000\n        /* \"#utility.yul\":49214:49215   */\n      0x00\n        /* \"#utility.yul\":49206:49212   */\n      dup3\n        /* \"#utility.yul\":49202:49216   */\n      add\n        /* \"#utility.yul\":49195:49241   */\n      mstore\n        /* \"#utility.yul\":49078:49248   */\n      pop\n      jump\t// out\n        /* \"#utility.yul\":49254:49476   */\n    tag_590:\n        /* \"#utility.yul\":49394:49428   */\n      0x6e6f7420612076616c696420766f74657220666f7220746869732070726f706f\n        /* \"#utility.yul\":49390:49391   */\n      0x00\n        /* \"#utility.yul\":49382:49388   */\n      dup3\n        /* \"#utility.yul\":49378:49392   */\n      add\n        /* \"#utility.yul\":49371:49429   */\n      mstore\n        /* \"#utility.yul\":49463:49468   */\n      0x73616c0000000000000000000000000000000000000000000000000000000000\n        /* \"#utility.yul\":49458:49460   */\n      0x20\n        /* \"#utility.yul\":49450:49456   */\n      dup3\n        /* \"#utility.yul\":49446:49461   */\n      add\n        /* \"#utility.yul\":49439:49469   */\n      mstore\n        /* \"#utility.yul\":49254:49476   */\n      pop\n      jump\t// out\n        /* \"#utility.yul\":49482:49652   */\n    tag_595:\n        /* \"#utility.yul\":49622:49644   */\n      0x70726f706f73616c206e6f742073746172746564000000000000000000000000\n        /* \"#utility.yul\":49618:49619   */\n      0x00\n        /* \"#utility.yul\":49610:49616   */\n      dup3\n        /* \"#utility.yul\":49606:49620   */\n      add\n        /* \"#utility.yul\":49599:49645   */\n      mstore\n        /* \"#utility.yul\":49482:49652   */\n      pop\n      jump\t// out\n        /* \"#utility.yul\":49658:49880   */\n    tag_600:\n        /* \"#utility.yul\":49798:49832   */\n      0x4e6f7420612076616c696420766f74657220666f7220746869732070726f706f\n        /* \"#utility.yul\":49794:49795   */\n      0x00\n        /* \"#utility.yul\":49786:49792   */\n      dup3\n        /* \"#utility.yul\":49782:49796   */\n      add\n        /* \"#utility.yul\":49775:49833   */\n      mstore\n        /* \"#utility.yul\":49867:49872   */\n      0x73616c0000000000000000000000000000000000000000000000000000000000\n        /* \"#utility.yul\":49862:49864   */\n      0x20\n        /* \"#utility.yul\":49854:49860   */\n      dup3\n        /* \"#utility.yul\":49850:49865   */\n      add\n        /* \"#utility.yul\":49843:49873   */\n      mstore\n        /* \"#utility.yul\":49658:49880   */\n      pop\n      jump\t// out\n        /* \"#utility.yul\":49886:50054   */\n    tag_605:\n        /* \"#utility.yul\":50026:50046   */\n      0x696e76616c69642070726f706f73616c49640000000000000000000000000000\n        /* \"#utility.yul\":50022:50023   */\n      0x00\n        /* \"#utility.yul\":50014:50020   */\n      dup3\n        /* \"#utility.yul\":50010:50024   */\n      add\n        /* \"#utility.yul\":50003:50047   */\n      mstore\n        /* \"#utility.yul\":49886:50054   */\n      pop\n      jump\t// out\n        /* \"#utility.yul\":50060:50282   */\n    tag_610:\n        /* \"#utility.yul\":50200:50234   */\n      0x6e6f742073756666696369656e742062616c616e636520746f20636173742076\n        /* \"#utility.yul\":50196:50197   */\n      0x00\n        /* \"#utility.yul\":50188:50194   */\n      dup3\n        /* \"#utility.yul\":50184:50198   */\n      add\n        /* \"#utility.yul\":50177:50235   */\n      mstore\n        /* \"#utility.yul\":50269:50274   */\n      0x6f74650000000000000000000000000000000000000000000000000000000000\n        /* \"#utility.yul\":50264:50266   */\n      0x20\n        /* \"#utility.yul\":50256:50262   */\n      dup3\n        /* \"#utility.yul\":50252:50267   */\n      add\n        /* \"#utility.yul\":50245:50275   */\n      mstore\n        /* \"#utility.yul\":50060:50282   */\n      pop\n      jump\t// out\n        /* \"#utility.yul\":50288:50517   */\n    tag_615:\n        /* \"#utility.yul\":50428:50462   */\n      0x456e642074696d652073686f756c642062652067726561746572207468616e20\n        /* \"#utility.yul\":50424:50425   */\n      0x00\n        /* \"#utility.yul\":50416:50422   */\n      dup3\n        /* \"#utility.yul\":50412:50426   */\n      add\n        /* \"#utility.yul\":50405:50463   */\n      mstore\n        /* \"#utility.yul\":50497:50509   */\n      0x73746172742074696d6500000000000000000000000000000000000000000000\n        /* \"#utility.yul\":50492:50494   */\n      0x20\n        /* \"#utility.yul\":50484:50490   */\n      dup3\n        /* \"#utility.yul\":50480:50495   */\n      add\n        /* \"#utility.yul\":50473:50510   */\n      mstore\n        /* \"#utility.yul\":50288:50517   */\n      pop\n      jump\t// out\n        /* \"#utility.yul\":50523:50743   */\n    tag_620:\n        /* \"#utility.yul\":50663:50697   */\n      0x45524332303a206275726e2066726f6d20746865207a65726f20616464726573\n        /* \"#utility.yul\":50659:50660   */\n      0x00\n        /* \"#utility.yul\":50651:50657   */\n      dup3\n        /* \"#utility.yul\":50647:50661   */\n      add\n        /* \"#utility.yul\":50640:50698   */\n      mstore\n        /* \"#utility.yul\":50732:50735   */\n      0x7300000000000000000000000000000000000000000000000000000000000000\n        /* \"#utility.yul\":50727:50729   */\n      0x20\n        /* \"#utility.yul\":50719:50725   */\n      dup3\n        /* \"#utility.yul\":50715:50730   */\n      add\n        /* \"#utility.yul\":50708:50736   */\n      mstore\n        /* \"#utility.yul\":50523:50743   */\n      pop\n      jump\t// out\n        /* \"#utility.yul\":50749:50972   */\n    tag_625:\n        /* \"#utility.yul\":50889:50923   */\n      0x6e6f7420612076616c6964206c656e677468206f66206861736820726573706f\n        /* \"#utility.yul\":50885:50886   */\n      0x00\n        /* \"#utility.yul\":50877:50883   */\n      dup3\n        /* \"#utility.yul\":50873:50887   */\n      add\n        /* \"#utility.yul\":50866:50924   */\n      mstore\n        /* \"#utility.yul\":50958:50964   */\n      0x6e73652100000000000000000000000000000000000000000000000000000000\n        /* \"#utility.yul\":50953:50955   */\n      0x20\n        /* \"#utility.yul\":50945:50951   */\n      dup3\n        /* \"#utility.yul\":50941:50956   */\n      add\n        /* \"#utility.yul\":50934:50965   */\n      mstore\n        /* \"#utility.yul\":50749:50972   */\n      pop\n      jump\t// out\n        /* \"#utility.yul\":50978:51141   */\n    tag_630:\n        /* \"#utility.yul\":51118:51133   */\n      0x6e6f7420766f7465642079657400000000000000000000000000000000000000\n        /* \"#utility.yul\":51114:51115   */\n      0x00\n        /* \"#utility.yul\":51106:51112   */\n      dup3\n        /* \"#utility.yul\":51102:51116   */\n      add\n        /* \"#utility.yul\":51095:51134   */\n      mstore\n        /* \"#utility.yul\":50978:51141   */\n      pop\n      jump\t// out\n        /* \"#utility.yul\":51147:51301   */\n    tag_635:\n        /* \"#utility.yul\":51287:51293   */\n      0x6d696e7400000000000000000000000000000000000000000000000000000000\n        /* \"#utility.yul\":51283:51284   */\n      0x00\n        /* \"#utility.yul\":51275:51281   */\n      dup3\n        /* \"#utility.yul\":51271:51285   */\n      add\n        /* \"#utility.yul\":51264:51294   */\n      mstore\n        /* \"#utility.yul\":51147:51301   */\n      pop\n      jump\t// out\n        /* \"#utility.yul\":51307:51486   */\n    tag_640:\n        /* \"#utility.yul\":51447:51478   */\n      0x496e76616c696420766f74657220666f722070726f706f73616c496421000000\n        /* \"#utility.yul\":51443:51444   */\n      0x00\n        /* \"#utility.yul\":51435:51441   */\n      dup3\n        /* \"#utility.yul\":51431:51445   */\n      add\n        /* \"#utility.yul\":51424:51479   */\n      mstore\n        /* \"#utility.yul\":51307:51486   */\n      pop\n      jump\t// out\n        /* \"#utility.yul\":51492:51646   */\n    tag_645:\n        /* \"#utility.yul\":51632:51638   */\n      0x6275726e00000000000000000000000000000000000000000000000000000000\n        /* \"#utility.yul\":51628:51629   */\n      0x00\n        /* \"#utility.yul\":51620:51626   */\n      dup3\n        /* \"#utility.yul\":51616:51630   */\n      add\n        /* \"#utility.yul\":51609:51639   */\n      mstore\n        /* \"#utility.yul\":51492:51646   */\n      pop\n      jump\t// out\n        /* \"#utility.yul\":51652:51811   */\n    tag_650:\n        /* \"#utility.yul\":51792:51803   */\n      0x6e6f7420766f7465640000000000000000000000000000000000000000000000\n        /* \"#utility.yul\":51788:51789   */\n      0x00\n        /* \"#utility.yul\":51780:51786   */\n      dup3\n        /* \"#utility.yul\":51776:51790   */\n      add\n        /* \"#utility.yul\":51769:51804   */\n      mstore\n        /* \"#utility.yul\":51652:51811   */\n      pop\n      jump\t// out\n        /* \"#utility.yul\":51817:51998   */\n    tag_655:\n        /* \"#utility.yul\":51957:51990   */\n      0x45524332303a206d696e7420746f20746865207a65726f206164647265737300\n        /* \"#utility.yul\":51953:51954   */\n      0x00\n        /* \"#utility.yul\":51945:51951   */\n      dup3\n        /* \"#utility.yul\":51941:51955   */\n      add\n        /* \"#utility.yul\":51934:51991   */\n      mstore\n        /* \"#utility.yul\":51817:51998   */\n      pop\n      jump\t// out\n        /* \"#utility.yul\":52004:52126   */\n    tag_389:\n        /* \"#utility.yul\":52077:52101   */\n      tag_904\n        /* \"#utility.yul\":52095:52100   */\n      dup2\n        /* \"#utility.yul\":52077:52101   */\n      tag_483\n      jump\t// in\n    tag_904:\n        /* \"#utility.yul\":52070:52075   */\n      dup2\n        /* \"#utility.yul\":52067:52102   */\n      eq\n        /* \"#utility.yul\":52057:52120   */\n      tag_905\n      jumpi\n        /* \"#utility.yul\":52116:52117   */\n      0x00\n        /* \"#utility.yul\":52113:52114   */\n      dup1\n        /* \"#utility.yul\":52106:52118   */\n      revert\n        /* \"#utility.yul\":52057:52120   */\n    tag_905:\n        /* \"#utility.yul\":52004:52126   */\n      pop\n      jump\t// out\n        /* \"#utility.yul\":52132:52254   */\n    tag_420:\n        /* \"#utility.yul\":52205:52229   */\n      tag_907\n        /* \"#utility.yul\":52223:52228   */\n      dup2\n        /* \"#utility.yul\":52205:52229   */\n      tag_667\n      jump\t// in\n    tag_907:\n        /* \"#utility.yul\":52198:52203   */\n      dup2\n        /* \"#utility.yul\":52195:52230   */\n      eq\n        /* \"#utility.yul\":52185:52248   */\n      tag_908\n      jumpi\n        /* \"#utility.yul\":52244:52245   */\n      0x00\n        /* \"#utility.yul\":52241:52242   */\n      dup1\n        /* \"#utility.yul\":52234:52246   */\n      revert\n        /* \"#utility.yul\":52185:52248   */\n    tag_908:\n        /* \"#utility.yul\":52132:52254   */\n      pop\n      jump\t// out\n        /* \"#utility.yul\":52260:52378   */\n    tag_424:\n        /* \"#utility.yul\":52331:52353   */\n      tag_910\n        /* \"#utility.yul\":52347:52352   */\n      dup2\n        /* \"#utility.yul\":52331:52353   */\n      tag_671\n      jump\t// in\n    tag_910:\n        /* \"#utility.yul\":52324:52329   */\n      dup2\n        /* \"#utility.yul\":52321:52354   */\n      eq\n        /* \"#utility.yul\":52311:52372   */\n      tag_911\n      jumpi\n        /* \"#utility.yul\":52368:52369   */\n      0x00\n        /* \"#utility.yul\":52365:52366   */\n      dup1\n        /* \"#utility.yul\":52358:52370   */\n      revert\n        /* \"#utility.yul\":52311:52372   */\n    tag_911:\n        /* \"#utility.yul\":52260:52378   */\n      pop\n      jump\t// out\n\n    auxdata: 0xa2646970667358221220c7fafe2b53b1cf3ca4d98242c3bfa0a722c75c90148840dedb3fc8fa2d3e42f964736f6c63430008070033\n}\n",
				"bytecode": {
					"linkReferences": {},
					"object": "60806040523480156200001157600080fd5b506040518060400160405280600c81526020017f51566f74696e67546f6b656e00000000000000000000000000000000000000008152506040518060400160405280600281526020017f5176000000000000000000000000000000000000000000000000000000000000815250816002908051906020019062000096929190620000f9565b508060039080519060200190620000af929190620000f9565b50505033600460006101000a81548173ffffffffffffffffffffffffffffffffffffffff021916908373ffffffffffffffffffffffffffffffffffffffff1602179055506200020e565b8280546200010790620001a9565b90600052602060002090601f0160209004810192826200012b576000855562000177565b82601f106200014657805160ff191683800117855562000177565b8280016001018555821562000177579182015b828111156200017657825182559160200191906001019062000159565b5b5090506200018691906200018a565b5090565b5b80821115620001a55760008160009055506001016200018b565b5090565b60006002820490506001821680620001c257607f821691505b60208210811415620001d957620001d8620001df565b5b50919050565b7f4e487b7100000000000000000000000000000000000000000000000000000000600052602260045260246000fd5b613b8f806200021e6000396000f3fe608060405234801561001057600080fd5b50600436106100b45760003560e01c80636a232d1f116100715780636a232d1f1461018157806370a08231146101b157806395d89b41146101e15780639d671564146101ff578063ab9c70d414610230578063e745d68e14610263576100b4565b8063013cf08b146100b957806306fdde03146100ef57806318160ddd1461010d578063313ce5671461012b5780634de77e48146101495780635c230eee14610165575b600080fd5b6100d360048036038101906100ce91906123e4565b610294565b6040516100e69796959493929190612ba7565b60405180910390f35b6100f7610399565b6040516101049190612c38565b60405180910390f35b61011561042b565b6040516101229190612f3b565b60405180910390f35b610133610435565b6040516101409190613051565b60405180910390f35b610163600480360381019061015e91906124f0565b61043e565b005b61017f600480360381019061017a9190612451565b610768565b005b61019b60048036038101906101969190612411565b610c31565b6040516101a89190612c1d565b60405180910390f35b6101cb60048036038101906101c69190612377565b610de5565b6040516101d89190612f3b565b60405180910390f35b6101e9610e2d565b6040516101f69190612c38565b60405180910390f35b610219600480360381019061021491906123e4565b610ebf565b604051610227929190613021565b60405180910390f35b61024a600480360381019061024591906123a4565b61103a565b60405161025a9493929190612f56565b60405180910390f35b61027d60048036038101906102789190612377565b6110a4565b60405161028b929190612f12565b60405180910390f35b60076020528060005260406000206000915090508060000160009054906101000a900473ffffffffffffffffffffffffffffffffffffffff16908060000160149054906101000a900460ff16908060010180546102f090613497565b80601f016020809104026020016040519081016040528092919081815260200182805461031c90613497565b80156103695780601f1061033e57610100808354040283529160200191610369565b820191906000526020600020905b81548152906001019060200180831161034c57829003601f168201915b5050505050908060020154908060030154908060040160009054906101000a900461ffff16908060050154905087565b6060600280546103a890613497565b80601f01602080910402602001604051908101604052809291908181526020018280546103d490613497565b80156104215780601f106103f657610100808354040283529160200191610421565b820191906000526020600020905b81548152906001019060200180831161040457829003601f168201915b5050505050905090565b6000600154905090565b60006012905090565b854210610480576040517f08c379a000000000000000000000000000000000000000000000000000000000815260040161047790612d3a565b60405180910390fd5b8442106104c2576040517f08c379a00000000000000000000000000000000000000000000000000000000081526004016104b990612c7a565b60405180910390fd5b848610610504576040517f08c379a00000000000000000000000000000000000000000000000000000000081526004016104fb90612dba565b60405180910390fd5b600560008154809291906105179061355e565b9190505550610553898989898989878a8a600760006005548152602001908152602001600020611100909998979695949392919063ffffffff16565b507f239a8a71a7d1cb0d134f6cc072ad6390e36a88c8e78dff69013ee79528441e8060055489898989898989604051610593989796959493929190612f9b565b60405180910390a1600160096000600554815260200190815260200160002060006101000a81548160ff02191690831515021790555060005b8851811015610701576105f98982815181106105eb576105ea613605565b5b602002602001015183611332565b61069a6005548a838151811061061257610611613605565b5b6020026020010151600085600860008f888151811061063457610633613605565b5b602002602001015173ffffffffffffffffffffffffffffffffffffffff1673ffffffffffffffffffffffffffffffffffffffff168152602001908152602001600020600060055481526020019081526020016000206113a390949392919063ffffffff16565b507fabf5327be9f5825c40d58bda541dd07f09b62df3376bbd5ecdbaa8bd82a9d4928982815181106106cf576106ce613605565b5b6020026020010151836040516106e6929190612e3a565b60405180910390a180806106f99061355e565b9150506105cc565b5061075c60055460066000610714611423565b73ffffffffffffffffffffffffffffffffffffffff1673ffffffffffffffffffffffffffffffffffffffff16815260200190815260200160002061142b90919063ffffffff16565b50505050505050505050565b6009600085815260200190815260200160002060009054906101000a900460ff166107c8576040517f08c379a00000000000000000000000000000000000000000000000000000000081526004016107bf90612d7a565b60405180910390fd5b83600860008573ffffffffffffffffffffffffffffffffffffffff1673ffffffffffffffffffffffffffffffffffffffff1681526020019081526020016000206000868152602001908152602001600020600001541461085d576040517f08c379a000000000000000000000000000000000000000000000000000000000815260040161085490612d1a565b60405180910390fd5b600860008473ffffffffffffffffffffffffffffffffffffffff1673ffffffffffffffffffffffffffffffffffffffff168152602001908152602001600020600085815260200190815260200160002060010160149054906101000a900460ff16156108fe576040517f08c379a00000000000000000000000000000000000000000000000000000000081526004016108f590612cba565b60405180910390fd5b81516007600086815260200190815260200160002060040160009054906101000a900461ffff1661ffff1614610969576040517f08c379a000000000000000000000000000000000000000000000000000000000815260040161096090612dfa565b60405180910390fd5b6000805b82518110156109d65782818151811061098957610988613605565b5b60200260200101518382815181106109a4576109a3613605565b5b60200260200101516109b69190613348565b826109c191906132f2565b915080806109ce9061355e565b91505061096d565b5080600860008673ffffffffffffffffffffffffffffffffffffffff1673ffffffffffffffffffffffffffffffffffffffff1681526020019081526020016000206000878152602001908152602001600020600201541015610a6d576040517f08c379a0000000000000000000000000000000000000000000000000000000008152600401610a6490612d9a565b60405180910390fd5b610a96848484600760008a81526020019081526020016000206114fc909392919063ffffffff16565b50610af1858460066000610aa8611423565b73ffffffffffffffffffffffffffffffffffffffff1673ffffffffffffffffffffffffffffffffffffffff16815260200190815260200160002061196b9092919063ffffffff16565b50610b4a600860008673ffffffffffffffffffffffffffffffffffffffff1673ffffffffffffffffffffffffffffffffffffffff1681526020019081526020016000206000878152602001908152602001600020611af8565b506001600860008673ffffffffffffffffffffffffffffffffffffffff1673ffffffffffffffffffffffffffffffffffffffff168152602001908152602001600020600087815260200190815260200160002060010160146101000a81548160ff021916908315150217905550610bd98460076000600554815260200190815260200160002060050154611ba6565b7fabf5327be9f5825c40d58bda541dd07f09b62df3376bbd5ecdbaa8bd82a9d4928460076000600554815260200190815260200160002060050154604051610c22929190612e96565b60405180910390a15050505050565b6000600860008373ffffffffffffffffffffffffffffffffffffffff1673ffffffffffffffffffffffffffffffffffffffff168152602001908152602001600020600084815260200190815260200160002060010160149054906101000a900460ff16610cd3576040517f08c379a0000000000000000000000000000000000000000000000000000000008152600401610cca90612e1a565b60405180910390fd5b82600860008473ffffffffffffffffffffffffffffffffffffffff1673ffffffffffffffffffffffffffffffffffffffff16815260200190815260200160002060008581526020019081526020016000206000015414610d68576040517f08c379a0000000000000000000000000000000000000000000000000000000008152600401610d5f90612d1a565b60405180910390fd5b610d8a8260076000600554815260200190815260200160002060050154611ba6565b7fabf5327be9f5825c40d58bda541dd07f09b62df3376bbd5ecdbaa8bd82a9d4928260076000600554815260200190815260200160002060050154604051610dd3929190612e96565b60405180910390a16001905092915050565b60008060008373ffffffffffffffffffffffffffffffffffffffff1673ffffffffffffffffffffffffffffffffffffffff168152602001908152602001600020549050919050565b606060038054610e3c90613497565b80601f0160208091040260200160405190810160405280929190818152602001828054610e6890613497565b8015610eb55780601f10610e8a57610100808354040283529160200191610eb5565b820191906000526020600020905b815481529060010190602001808311610e9857829003601f168201915b5050505050905090565b600060606009600084815260200190815260200160002060009054906101000a900460ff16610f23576040517f08c379a0000000000000000000000000000000000000000000000000000000008152600401610f1a90612cfa565b60405180910390fd5b60076000848152602001908152602001600020600a0160076000858152602001908152602001600020600901600060018152602001908152602001600020604051610f6e9190612b90565b90815260200160405180910390205460076000858152602001908152602001600020600901600060018152602001908152602001600020808054610fb190613497565b80601f0160208091040260200160405190810160405280929190818152602001828054610fdd90613497565b801561102a5780601f10610fff5761010080835404028352916020019161102a565b820191906000526020600020905b81548152906001019060200180831161100d57829003601f168201915b5050505050905091509150915091565b6008602052816000526040600020602052806000526040600020600091509150508060000154908060010160009054906101000a900473ffffffffffffffffffffffffffffffffffffffff16908060010160149054906101000a900460ff16908060020154905084565b60066020528060005260406000206000915090508060000160009054906101000a90046fffffffffffffffffffffffffffffffff16908060000160109054906101000a90046fffffffffffffffffffffffffffffffff16905082565b6000878b60000160006101000a81548173ffffffffffffffffffffffffffffffffffffffff021916908373ffffffffffffffffffffffffffffffffffffffff160217905550898b60000160146101000a81548160ff021916908360ff160217905550848b600101908051906020019061117a929190611ec4565b50868b60020181905550858b60030181905550828290508b60040160006101000a81548161ffff021916908361ffff160217905550838b6005018190555060005b8383905081101561128b5760018c6007018585848181106111df576111de613605565b5b90506020028101906111f1919061306c565b6040516111ff929190612b60565b908152602001604051809103902060006101000a81548160ff02191690831515021790555083838281811061123757611236613605565b5b9050602002810190611249919061306c565b8d600801600060018561125c91906132f2565b81526020019081526020016000209190611277929190611f4a565b5080806112839061355e565b9150506111bb565b5060005b895181101561131f5760018c60060160008c84815181106112b3576112b2613605565b5b602002602001015173ffffffffffffffffffffffffffffffffffffffff1673ffffffffffffffffffffffffffffffffffffffff16815260200190815260200160002060006101000a81548160ff02191690831515021790555080806113179061355e565b91505061128f565b50600190509a9950505050505050505050565b61133a611423565b8073ffffffffffffffffffffffffffffffffffffffff16600460009054906101000a900473ffffffffffffffffffffffffffffffffffffffff1673ffffffffffffffffffffffffffffffffffffffff161461139457600080fd5b61139e8383611c17565b505050565b6000848660000181905550838660010160006101000a81548173ffffffffffffffffffffffffffffffffffffffff021916908373ffffffffffffffffffffffffffffffffffffffff160217905550828660010160146101000a81548160ff0219169083151502179055508186600201819055506001905095945050505050565b600033905090565b600082600001600081819054906101000a90046fffffffffffffffffffffffffffffffff168092919061145d906134fa565b91906101000a8154816fffffffffffffffffffffffffffffffff02191690836fffffffffffffffffffffffffffffffff16021790555050818360010160008560000160009054906101000a90046fffffffffffffffffffffffffffffffff166fffffffffffffffffffffffffffffffff166fffffffffffffffffffffffffffffffff168152602001908152602001600020819055506001905092915050565b600060028560000160149054906101000a900460ff1660ff1614611555576040517f08c379a000000000000000000000000000000000000000000000000000000000815260040161154c90612c5a565b60405180910390fd5b84600301544211156117ab5760028560000160146101000a81548160ff021916908360ff160217905550600085600a01866008016000600181526020019081526020016000206040516115a89190612b90565b908152602001604051809103902054905060006001905086600801600060018152602001908152602001600020876009016000600181526020019081526020016000209080546115f790613497565b611602929190611fd0565b506000600290505b8760040160009054906101000a900461ffff1661ffff168161ffff161161179f578288600a018960080160008461ffff1681526020019081526020016000206040516116569190612b90565b90815260200160405180910390205411156116f65787600a018860080160008361ffff1681526020019081526020016000206040516116959190612b90565b9081526020016040518091039020549250600191508760080160008261ffff168152602001908152602001600020886009016000600181526020019081526020016000209080546116e590613497565b6116f0929190611fd0565b5061178c565b8288600a018960080160008461ffff1681526020019081526020016000206040516117219190612b90565b908152602001604051809103902054141561178b5781806117419061355e565b9250508760080160008261ffff16815260200190815260200160002088600901600084815260200190815260200160002090805461177e90613497565b611789929190611fd0565b505b5b808061179790613533565b91505061160a565b50600092505050611963565b8460060160008573ffffffffffffffffffffffffffffffffffffffff1673ffffffffffffffffffffffffffffffffffffffff16815260200190815260200160002060009054906101000a900460ff16611839576040517f08c379a000000000000000000000000000000000000000000000000000000000815260040161183090612d5a565b60405180910390fd5b60005b8560040160009054906101000a900461ffff1661ffff168161ffff16101561195d5785600701848261ffff168151811061187957611878613605565b5b602002602001015160405161188e9190612b79565b908152602001604051809103902060009054906101000a900460ff166118e9576040517f08c379a00000000000000000000000000000000000000000000000000000000081526004016118e090612cda565b60405180910390fd5b828161ffff1681518110611900576118ff613605565b5b602002602001015186600a01858361ffff168151811061192357611922613605565b5b60200260200101516040516119389190612b79565b908152602001604051809103902081905550808061195590613533565b91505061183c565b50600190505b949350505050565b600083600001601081819054906101000a90046fffffffffffffffffffffffffffffffff168092919061199d906134fa565b91906101000a8154816fffffffffffffffffffffffffffffffff02191690836fffffffffffffffffffffffffffffffff16021790555050828460020160008660000160109054906101000a90046fffffffffffffffffffffffffffffffff166fffffffffffffffffffffffffffffffff166fffffffffffffffffffffffffffffffff1681526020019081526020016000208190555060005b82518161ffff161015611abe57828161ffff1681518110611a5957611a58613605565b5b60200260200101518560030160008681526020019081526020016000206000600184611a8591906132ba565b61ffff1681526020019081526020016000209080519060200190611aaa929190611ec4565b508080611ab690613533565b915050611a35565b50600184600401600085815260200190815260200160002060006101000a81548160ff021916908315150217905550600190509392505050565b60008082600001541415611b41576040517f08c379a0000000000000000000000000000000000000000000000000000000008152600401611b3890612e76565b60405180910390fd5b8160010160149054906101000a900460ff1615611b93576040517f08c379a0000000000000000000000000000000000000000000000000000000008152600401611b8a90612ed2565b60405180910390fd5b6000826002018190555060019050919050565b611bae611423565b8073ffffffffffffffffffffffffffffffffffffffff16600460009054906101000a900473ffffffffffffffffffffffffffffffffffffffff1673ffffffffffffffffffffffffffffffffffffffff1614611c0857600080fd5b611c128383611d32565b505050565b600073ffffffffffffffffffffffffffffffffffffffff168273ffffffffffffffffffffffffffffffffffffffff161415611c87576040517f08c379a0000000000000000000000000000000000000000000000000000000008152600401611c7e90612ef2565b60405180910390fd5b8060016000828254611c9991906132f2565b92505081905550806000808473ffffffffffffffffffffffffffffffffffffffff1673ffffffffffffffffffffffffffffffffffffffff1681526020019081526020016000206000828254611cee91906132f2565b925050819055507fabf5327be9f5825c40d58bda541dd07f09b62df3376bbd5ecdbaa8bd82a9d4928282604051611d26929190612e3a565b60405180910390a15050565b600073ffffffffffffffffffffffffffffffffffffffff168273ffffffffffffffffffffffffffffffffffffffff161415611da2576040517f08c379a0000000000000000000000000000000000000000000000000000000008152600401611d9990612dda565b60405180910390fd5b60008060008473ffffffffffffffffffffffffffffffffffffffff1673ffffffffffffffffffffffffffffffffffffffff16815260200190815260200160002054905081811015611e28576040517f08c379a0000000000000000000000000000000000000000000000000000000008152600401611e1f90612c9a565b60405180910390fd5b8181036000808573ffffffffffffffffffffffffffffffffffffffff1673ffffffffffffffffffffffffffffffffffffffff168152602001908152602001600020819055508160016000828254611e7f91906133a2565b925050819055507fabf5327be9f5825c40d58bda541dd07f09b62df3376bbd5ecdbaa8bd82a9d4928383604051611eb7929190612e96565b60405180910390a1505050565b828054611ed090613497565b90600052602060002090601f016020900481019282611ef25760008555611f39565b82601f10611f0b57805160ff1916838001178555611f39565b82800160010185558215611f39579182015b82811115611f38578251825591602001919060010190611f1d565b5b509050611f46919061205d565b5090565b828054611f5690613497565b90600052602060002090601f016020900481019282611f785760008555611fbf565b82601f10611f9157803560ff1916838001178555611fbf565b82800160010185558215611fbf579182015b82811115611fbe578235825591602001919060010190611fa3565b5b509050611fcc919061205d565b5090565b828054611fdc90613497565b90600052602060002090601f016020900481019282611ffe576000855561204c565b82601f1061200f578054855561204c565b8280016001018555821561204c57600052602060002091601f016020900482015b8281111561204b578254825591600101919060010190612030565b5b509050612059919061205d565b5090565b5b8082111561207657600081600090555060010161205e565b5090565b600061208d612088846130f4565b6130cf565b905080838252602082019050828560208602820111156120b0576120af613681565b5b60005b858110156120e057816120c6888261222a565b8452602084019350602083019250506001810190506120b3565b5050509392505050565b60006120fd6120f884613120565b6130cf565b905080838252602082019050828560208602820111156121205761211f613681565b5b60005b8581101561216e57813567ffffffffffffffff8111156121465761214561366d565b5b808601612153898261231f565b85526020850194506020840193505050600181019050612123565b5050509392505050565b600061218b6121868461314c565b6130cf565b905080838252602082019050828560208602820111156121ae576121ad613681565b5b60005b858110156121de57816121c4888261234d565b8452602084019350602083019250506001810190506121b1565b5050509392505050565b60006121fb6121f684613178565b6130cf565b9050828152602081018484840111156122175761221661368b565b5b612222848285613455565b509392505050565b60008135905061223981613b14565b92915050565b600082601f8301126122545761225361366d565b5b813561226484826020860161207a565b91505092915050565b60008083601f8401126122835761228261366d565b5b8235905067ffffffffffffffff8111156122a05761229f613668565b5b6020830191508360208202830111156122bc576122bb613681565b5b9250929050565b600082601f8301126122d8576122d761366d565b5b81356122e88482602086016120ea565b91505092915050565b600082601f8301126123065761230561366d565b5b8135612316848260208601612178565b91505092915050565b600082601f8301126123345761233361366d565b5b81356123448482602086016121e8565b91505092915050565b60008135905061235c81613b2b565b92915050565b60008135905061237181613b42565b92915050565b60006020828403121561238d5761238c61369a565b5b600061239b8482850161222a565b91505092915050565b600080604083850312156123bb576123ba61369a565b5b60006123c98582860161222a565b92505060206123da8582860161234d565b9150509250929050565b6000602082840312156123fa576123f961369a565b5b60006124088482850161234d565b91505092915050565b600080604083850312156124285761242761369a565b5b60006124368582860161234d565b92505060206124478582860161222a565b9150509250929050565b6000806000806080858703121561246b5761246a61369a565b5b60006124798782880161234d565b945050602061248a8782880161222a565b935050604085013567ffffffffffffffff8111156124ab576124aa613690565b5b6124b7878288016122c3565b925050606085013567ffffffffffffffff8111156124d8576124d7613690565b5b6124e4878288016122f1565b91505092959194509250565b60008060008060008060008060006101008a8c0312156125135761251261369a565b5b60006125218c828d01612362565b99505060208a013567ffffffffffffffff81111561254257612541613690565b5b61254e8c828d0161223f565b985050604061255f8c828d0161222a565b97505060606125708c828d0161234d565b96505060806125818c828d0161234d565b95505060a08a013567ffffffffffffffff8111156125a2576125a1613690565b5b6125ae8c828d0161231f565b94505060c08a013567ffffffffffffffff8111156125cf576125ce613690565b5b6125db8c828d0161226d565b935093505060e06125ee8c828d0161234d565b9150509295985092959850929598565b600061260a838361262c565b60208301905092915050565b600061262384848461272d565b90509392505050565b612635816133d6565b82525050565b612644816133d6565b82525050565b6000612655826131d8565b61265f8185613208565b935061266a836131a9565b8060005b8381101561269b57815161268288826125fe565b975061268d836131ee565b92505060018101905061266e565b5085935050505092915050565b60006126b48385613219565b9350836020840285016126c6846131b9565b8060005b8781101561270c5784840389526126e18284613257565b6126ec868284612616565b95506126f7846131fb565b935060208b019a5050506001810190506126ca565b50829750879450505050509392505050565b612727816133e8565b82525050565b6000612739838561322a565b9350612746838584613455565b61274f8361369f565b840190509392505050565b6000612766838561324c565b9350612773838584613455565b82840190509392505050565b600061278a826131e3565b612794818561323b565b93506127a4818560208601613464565b6127ad8161369f565b840191505092915050565b60006127c3826131e3565b6127cd818561324c565b93506127dd818560208601613464565b80840191505092915050565b600081546127f681613497565b612800818661324c565b9450600182166000811461281b576001811461282c5761285f565b60ff1983168652818601935061285f565b612835856131c3565b60005b8381101561285757815481890152600182019150602081019050612838565b838801955050505b50505092915050565b600061287560128361323b565b9150612880826136b0565b602082019050919050565b6000612898602c8361323b565b91506128a3826136d9565b604082019050919050565b60006128bb60228361323b565b91506128c682613728565b604082019050919050565b60006128de600d8361323b565b91506128e982613777565b602082019050919050565b6000612901601b8361323b565b915061290c826137a0565b602082019050919050565b600061292460148361323b565b915061292f826137c9565b602082019050919050565b600061294760238361323b565b9150612952826137f2565b604082019050919050565b600061296a60148361323b565b915061297582613841565b602082019050919050565b600061298d60238361323b565b91506129988261386a565b604082019050919050565b60006129b060128361323b565b91506129bb826138b9565b602082019050919050565b60006129d360238361323b565b91506129de826138e2565b604082019050919050565b60006129f6602a8361323b565b9150612a0182613931565b604082019050919050565b6000612a1960218361323b565b9150612a2482613980565b604082019050919050565b6000612a3c60248361323b565b9150612a47826139cf565b604082019050919050565b6000612a5f600d8361323b565b9150612a6a82613a1e565b602082019050919050565b6000612a8260048361323b565b9150612a8d82613a47565b602082019050919050565b6000612aa5601d8361323b565b9150612ab082613a70565b602082019050919050565b6000612ac860048361323b565b9150612ad382613a99565b602082019050919050565b6000612aeb60098361323b565b9150612af682613ac2565b602082019050919050565b6000612b0e601f8361323b565b9150612b1982613aeb565b602082019050919050565b612b2d816133f4565b82525050565b612b3c81613410565b82525050565b612b4b8161343e565b82525050565b612b5a81613448565b82525050565b6000612b6d82848661275a565b91508190509392505050565b6000612b8582846127b8565b915081905092915050565b6000612b9c82846127e9565b915081905092915050565b600060e082019050612bbc600083018a61263b565b612bc96020830189612b51565b8181036040830152612bdb818861277f565b9050612bea6060830187612b42565b612bf76080830186612b42565b612c0460a0830185612b33565b612c1160c0830184612b42565b98975050505050505050565b6000602082019050612c32600083018461271e565b92915050565b60006020820190508181036000830152612c52818461277f565b905092915050565b60006020820190508181036000830152612c7381612868565b9050919050565b60006020820190508181036000830152612c938161288b565b9050919050565b60006020820190508181036000830152612cb3816128ae565b9050919050565b60006020820190508181036000830152612cd3816128d1565b9050919050565b60006020820190508181036000830152612cf3816128f4565b9050919050565b60006020820190508181036000830152612d1381612917565b9050919050565b60006020820190508181036000830152612d338161293a565b9050919050565b60006020820190508181036000830152612d538161295d565b9050919050565b60006020820190508181036000830152612d7381612980565b9050919050565b60006020820190508181036000830152612d93816129a3565b9050919050565b60006020820190508181036000830152612db3816129c6565b9050919050565b60006020820190508181036000830152612dd3816129e9565b9050919050565b60006020820190508181036000830152612df381612a0c565b9050919050565b60006020820190508181036000830152612e1381612a2f565b9050919050565b60006020820190508181036000830152612e3381612a52565b9050919050565b60006060820190508181036000830152612e5381612a75565b9050612e62602083018561263b565b612e6f6040830184612b42565b9392505050565b60006020820190508181036000830152612e8f81612a98565b9050919050565b60006060820190508181036000830152612eaf81612abb565b9050612ebe602083018561263b565b612ecb6040830184612b42565b9392505050565b60006020820190508181036000830152612eeb81612ade565b9050919050565b60006020820190508181036000830152612f0b81612b01565b9050919050565b6000604082019050612f276000830185612b24565b612f346020830184612b24565b9392505050565b6000602082019050612f506000830184612b42565b92915050565b6000608082019050612f6b6000830187612b42565b612f78602083018661263b565b612f85604083018561271e565b612f926060830184612b42565b95945050505050565b600060e082019050612fb0600083018b612b42565b8181036020830152612fc2818a61264a565b9050612fd1604083018961263b565b612fde6060830188612b42565b612feb6080830187612b42565b81810360a0830152612ffd818661277f565b905081810360c08301526130128184866126a8565b90509998505050505050505050565b60006040820190506130366000830185612b42565b8181036020830152613048818461277f565b90509392505050565b60006020820190506130666000830184612b51565b92915050565b6000808335600160200384360303811261308957613088613677565b5b80840192508235915067ffffffffffffffff8211156130ab576130aa613672565b5b6020830192506001820236038313156130c7576130c6613686565b5b509250929050565b60006130d96130ea565b90506130e582826134c9565b919050565b6000604051905090565b600067ffffffffffffffff82111561310f5761310e613634565b5b602082029050602081019050919050565b600067ffffffffffffffff82111561313b5761313a613634565b5b602082029050602081019050919050565b600067ffffffffffffffff82111561316757613166613634565b5b602082029050602081019050919050565b600067ffffffffffffffff82111561319357613192613634565b5b61319c8261369f565b9050602081019050919050565b6000819050602082019050919050565b6000819050919050565b60008190508160005260206000209050919050565b600081519050919050565b600081519050919050565b6000602082019050919050565b6000602082019050919050565b600082825260208201905092915050565b600082825260208201905092915050565b600082825260208201905092915050565b600082825260208201905092915050565b600081905092915050565b6000808335600160200384360303811261327457613273613695565b5b83810192508235915060208301925067ffffffffffffffff82111561329c5761329b613663565b5b6001820236038413156132b2576132b161367c565b5b509250929050565b60006132c582613410565b91506132d083613410565b92508261ffff038211156132e7576132e66135a7565b5b828201905092915050565b60006132fd8261343e565b91506133088361343e565b9250827fffffffffffffffffffffffffffffffffffffffffffffffffffffffffffffffff0382111561333d5761333c6135a7565b5b828201905092915050565b60006133538261343e565b915061335e8361343e565b9250817fffffffffffffffffffffffffffffffffffffffffffffffffffffffffffffffff0483118215151615613397576133966135a7565b5b828202905092915050565b60006133ad8261343e565b91506133b88361343e565b9250828210156133cb576133ca6135a7565b5b828203905092915050565b60006133e18261341e565b9050919050565b60008115159050919050565b60006fffffffffffffffffffffffffffffffff82169050919050565b600061ffff82169050919050565b600073ffffffffffffffffffffffffffffffffffffffff82169050919050565b6000819050919050565b600060ff82169050919050565b82818337600083830152505050565b60005b83811015613482578082015181840152602081019050613467565b83811115613491576000848401525b50505050565b600060028204905060018216806134af57607f821691505b602082108114156134c3576134c26135d6565b5b50919050565b6134d28261369f565b810181811067ffffffffffffffff821117156134f1576134f0613634565b5b80604052505050565b6000613505826133f4565b91506fffffffffffffffffffffffffffffffff821415613528576135276135a7565b5b600182019050919050565b600061353e82613410565b915061ffff821415613553576135526135a7565b5b600182019050919050565b60006135698261343e565b91507fffffffffffffffffffffffffffffffffffffffffffffffffffffffffffffffff82141561359c5761359b6135a7565b5b600182019050919050565b7f4e487b7100000000000000000000000000000000000000000000000000000000600052601160045260246000fd5b7f4e487b7100000000000000000000000000000000000000000000000000000000600052602260045260246000fd5b7f4e487b7100000000000000000000000000000000000000000000000000000000600052603260045260246000fd5b7f4e487b7100000000000000000000000000000000000000000000000000000000600052604160045260246000fd5b600080fd5b600080fd5b600080fd5b600080fd5b600080fd5b600080fd5b600080fd5b600080fd5b600080fd5b600080fd5b600080fd5b600080fd5b6000601f19601f8301169050919050565b7f50726f706f73616c3a20696e6163746976650000000000000000000000000000600082015250565b7f456e642074696d652073686f756c642062652067726561746572207468616e2060008201527f63757272656e742074696d650000000000000000000000000000000000000000602082015250565b7f45524332303a206275726e20616d6f756e7420657863656564732062616c616e60008201527f6365000000000000000000000000000000000000000000000000000000000000602082015250565b7f616c726561647920766f74656400000000000000000000000000000000000000600082015250565b7f50726f706f73616c3a20696e76616c69642063616e6469646174650000000000600082015250565b7f6e6f7420612076616c69642070726f706f73616c000000000000000000000000600082015250565b7f6e6f7420612076616c696420766f74657220666f7220746869732070726f706f60008201527f73616c0000000000000000000000000000000000000000000000000000000000602082015250565b7f70726f706f73616c206e6f742073746172746564000000000000000000000000600082015250565b7f4e6f7420612076616c696420766f74657220666f7220746869732070726f706f60008201527f73616c0000000000000000000000000000000000000000000000000000000000602082015250565b7f696e76616c69642070726f706f73616c49640000000000000000000000000000600082015250565b7f6e6f742073756666696369656e742062616c616e636520746f2063617374207660008201527f6f74650000000000000000000000000000000000000000000000000000000000602082015250565b7f456e642074696d652073686f756c642062652067726561746572207468616e2060008201527f73746172742074696d6500000000000000000000000000000000000000000000602082015250565b7f45524332303a206275726e2066726f6d20746865207a65726f2061646472657360008201527f7300000000000000000000000000000000000000000000000000000000000000602082015250565b7f6e6f7420612076616c6964206c656e677468206f66206861736820726573706f60008201527f6e73652100000000000000000000000000000000000000000000000000000000602082015250565b7f6e6f7420766f7465642079657400000000000000000000000000000000000000600082015250565b7f6d696e7400000000000000000000000000000000000000000000000000000000600082015250565b7f496e76616c696420766f74657220666f722070726f706f73616c496421000000600082015250565b7f6275726e00000000000000000000000000000000000000000000000000000000600082015250565b7f6e6f7420766f7465640000000000000000000000000000000000000000000000600082015250565b7f45524332303a206d696e7420746f20746865207a65726f206164647265737300600082015250565b613b1d816133d6565b8114613b2857600080fd5b50565b613b348161343e565b8114613b3f57600080fd5b50565b613b4b81613448565b8114613b5657600080fd5b5056fea2646970667358221220c7fafe2b53b1cf3ca4d98242c3bfa0a722c75c90148840dedb3fc8fa2d3e42f964736f6c63430008070033",
					"opcodes": "PUSH1 0x80 PUSH1 0x40 MSTORE CALLVALUE DUP1 ISZERO PUSH3 0x11 JUMPI PUSH1 0x0 DUP1 REVERT JUMPDEST POP PUSH1 0x40 MLOAD DUP1 PUSH1 0x40 ADD PUSH1 0x40 MSTORE DUP1 PUSH1 0xC DUP2 MSTORE PUSH1 0x20 ADD PUSH32 0x51566F74696E67546F6B656E0000000000000000000000000000000000000000 DUP2 MSTORE POP PUSH1 0x40 MLOAD DUP1 PUSH1 0x40 ADD PUSH1 0x40 MSTORE DUP1 PUSH1 0x2 DUP2 MSTORE PUSH1 0x20 ADD PUSH32 0x5176000000000000000000000000000000000000000000000000000000000000 DUP2 MSTORE POP DUP2 PUSH1 0x2 SWAP1 DUP1 MLOAD SWAP1 PUSH1 0x20 ADD SWAP1 PUSH3 0x96 SWAP3 SWAP2 SWAP1 PUSH3 0xF9 JUMP JUMPDEST POP DUP1 PUSH1 0x3 SWAP1 DUP1 MLOAD SWAP1 PUSH1 0x20 ADD SWAP1 PUSH3 0xAF SWAP3 SWAP2 SWAP1 PUSH3 0xF9 JUMP JUMPDEST POP POP POP CALLER PUSH1 0x4 PUSH1 0x0 PUSH2 0x100 EXP DUP2 SLOAD DUP2 PUSH20 0xFFFFFFFFFFFFFFFFFFFFFFFFFFFFFFFFFFFFFFFF MUL NOT AND SWAP1 DUP4 PUSH20 0xFFFFFFFFFFFFFFFFFFFFFFFFFFFFFFFFFFFFFFFF AND MUL OR SWAP1 SSTORE POP PUSH3 0x20E JUMP JUMPDEST DUP3 DUP1 SLOAD PUSH3 0x107 SWAP1 PUSH3 0x1A9 JUMP JUMPDEST SWAP1 PUSH1 0x0 MSTORE PUSH1 0x20 PUSH1 0x0 KECCAK256 SWAP1 PUSH1 0x1F ADD PUSH1 0x20 SWAP1 DIV DUP2 ADD SWAP3 DUP3 PUSH3 0x12B JUMPI PUSH1 0x0 DUP6 SSTORE PUSH3 0x177 JUMP JUMPDEST DUP3 PUSH1 0x1F LT PUSH3 0x146 JUMPI DUP1 MLOAD PUSH1 0xFF NOT AND DUP4 DUP1 ADD OR DUP6 SSTORE PUSH3 0x177 JUMP JUMPDEST DUP3 DUP1 ADD PUSH1 0x1 ADD DUP6 SSTORE DUP3 ISZERO PUSH3 0x177 JUMPI SWAP2 DUP3 ADD JUMPDEST DUP3 DUP2 GT ISZERO PUSH3 0x176 JUMPI DUP3 MLOAD DUP3 SSTORE SWAP2 PUSH1 0x20 ADD SWAP2 SWAP1 PUSH1 0x1 ADD SWAP1 PUSH3 0x159 JUMP JUMPDEST JUMPDEST POP SWAP1 POP PUSH3 0x186 SWAP2 SWAP1 PUSH3 0x18A JUMP JUMPDEST POP SWAP1 JUMP JUMPDEST JUMPDEST DUP1 DUP3 GT ISZERO PUSH3 0x1A5 JUMPI PUSH1 0x0 DUP2 PUSH1 0x0 SWAP1 SSTORE POP PUSH1 0x1 ADD PUSH3 0x18B JUMP JUMPDEST POP SWAP1 JUMP JUMPDEST PUSH1 0x0 PUSH1 0x2 DUP3 DIV SWAP1 POP PUSH1 0x1 DUP3 AND DUP1 PUSH3 0x1C2 JUMPI PUSH1 0x7F DUP3 AND SWAP2 POP JUMPDEST PUSH1 0x20 DUP3 LT DUP2 EQ ISZERO PUSH3 0x1D9 JUMPI PUSH3 0x1D8 PUSH3 0x1DF JUMP JUMPDEST JUMPDEST POP SWAP2 SWAP1 POP JUMP JUMPDEST PUSH32 0x4E487B7100000000000000000000000000000000000000000000000000000000 PUSH1 0x0 MSTORE PUSH1 0x22 PUSH1 0x4 MSTORE PUSH1 0x24 PUSH1 0x0 REVERT JUMPDEST PUSH2 0x3B8F DUP1 PUSH3 0x21E PUSH1 0x0 CODECOPY PUSH1 0x0 RETURN INVALID PUSH1 0x80 PUSH1 0x40 MSTORE CALLVALUE DUP1 ISZERO PUSH2 0x10 JUMPI PUSH1 0x0 DUP1 REVERT JUMPDEST POP PUSH1 0x4 CALLDATASIZE LT PUSH2 0xB4 JUMPI PUSH1 0x0 CALLDATALOAD PUSH1 0xE0 SHR DUP1 PUSH4 0x6A232D1F GT PUSH2 0x71 JUMPI DUP1 PUSH4 0x6A232D1F EQ PUSH2 0x181 JUMPI DUP1 PUSH4 0x70A08231 EQ PUSH2 0x1B1 JUMPI DUP1 PUSH4 0x95D89B41 EQ PUSH2 0x1E1 JUMPI DUP1 PUSH4 0x9D671564 EQ PUSH2 0x1FF JUMPI DUP1 PUSH4 0xAB9C70D4 EQ PUSH2 0x230 JUMPI DUP1 PUSH4 0xE745D68E EQ PUSH2 0x263 JUMPI PUSH2 0xB4 JUMP JUMPDEST DUP1 PUSH4 0x13CF08B EQ PUSH2 0xB9 JUMPI DUP1 PUSH4 0x6FDDE03 EQ PUSH2 0xEF JUMPI DUP1 PUSH4 0x18160DDD EQ PUSH2 0x10D JUMPI DUP1 PUSH4 0x313CE567 EQ PUSH2 0x12B JUMPI DUP1 PUSH4 0x4DE77E48 EQ PUSH2 0x149 JUMPI DUP1 PUSH4 0x5C230EEE EQ PUSH2 0x165 JUMPI JUMPDEST PUSH1 0x0 DUP1 REVERT JUMPDEST PUSH2 0xD3 PUSH1 0x4 DUP1 CALLDATASIZE SUB DUP2 ADD SWAP1 PUSH2 0xCE SWAP2 SWAP1 PUSH2 0x23E4 JUMP JUMPDEST PUSH2 0x294 JUMP JUMPDEST PUSH1 0x40 MLOAD PUSH2 0xE6 SWAP8 SWAP7 SWAP6 SWAP5 SWAP4 SWAP3 SWAP2 SWAP1 PUSH2 0x2BA7 JUMP JUMPDEST PUSH1 0x40 MLOAD DUP1 SWAP2 SUB SWAP1 RETURN JUMPDEST PUSH2 0xF7 PUSH2 0x399 JUMP JUMPDEST PUSH1 0x40 MLOAD PUSH2 0x104 SWAP2 SWAP1 PUSH2 0x2C38 JUMP JUMPDEST PUSH1 0x40 MLOAD DUP1 SWAP2 SUB SWAP1 RETURN JUMPDEST PUSH2 0x115 PUSH2 0x42B JUMP JUMPDEST PUSH1 0x40 MLOAD PUSH2 0x122 SWAP2 SWAP1 PUSH2 0x2F3B JUMP JUMPDEST PUSH1 0x40 MLOAD DUP1 SWAP2 SUB SWAP1 RETURN JUMPDEST PUSH2 0x133 PUSH2 0x435 JUMP JUMPDEST PUSH1 0x40 MLOAD PUSH2 0x140 SWAP2 SWAP1 PUSH2 0x3051 JUMP JUMPDEST PUSH1 0x40 MLOAD DUP1 SWAP2 SUB SWAP1 RETURN JUMPDEST PUSH2 0x163 PUSH1 0x4 DUP1 CALLDATASIZE SUB DUP2 ADD SWAP1 PUSH2 0x15E SWAP2 SWAP1 PUSH2 0x24F0 JUMP JUMPDEST PUSH2 0x43E JUMP JUMPDEST STOP JUMPDEST PUSH2 0x17F PUSH1 0x4 DUP1 CALLDATASIZE SUB DUP2 ADD SWAP1 PUSH2 0x17A SWAP2 SWAP1 PUSH2 0x2451 JUMP JUMPDEST PUSH2 0x768 JUMP JUMPDEST STOP JUMPDEST PUSH2 0x19B PUSH1 0x4 DUP1 CALLDATASIZE SUB DUP2 ADD SWAP1 PUSH2 0x196 SWAP2 SWAP1 PUSH2 0x2411 JUMP JUMPDEST PUSH2 0xC31 JUMP JUMPDEST PUSH1 0x40 MLOAD PUSH2 0x1A8 SWAP2 SWAP1 PUSH2 0x2C1D JUMP JUMPDEST PUSH1 0x40 MLOAD DUP1 SWAP2 SUB SWAP1 RETURN JUMPDEST PUSH2 0x1CB PUSH1 0x4 DUP1 CALLDATASIZE SUB DUP2 ADD SWAP1 PUSH2 0x1C6 SWAP2 SWAP1 PUSH2 0x2377 JUMP JUMPDEST PUSH2 0xDE5 JUMP JUMPDEST PUSH1 0x40 MLOAD PUSH2 0x1D8 SWAP2 SWAP1 PUSH2 0x2F3B JUMP JUMPDEST PUSH1 0x40 MLOAD DUP1 SWAP2 SUB SWAP1 RETURN JUMPDEST PUSH2 0x1E9 PUSH2 0xE2D JUMP JUMPDEST PUSH1 0x40 MLOAD PUSH2 0x1F6 SWAP2 SWAP1 PUSH2 0x2C38 JUMP JUMPDEST PUSH1 0x40 MLOAD DUP1 SWAP2 SUB SWAP1 RETURN JUMPDEST PUSH2 0x219 PUSH1 0x4 DUP1 CALLDATASIZE SUB DUP2 ADD SWAP1 PUSH2 0x214 SWAP2 SWAP1 PUSH2 0x23E4 JUMP JUMPDEST PUSH2 0xEBF JUMP JUMPDEST PUSH1 0x40 MLOAD PUSH2 0x227 SWAP3 SWAP2 SWAP1 PUSH2 0x3021 JUMP JUMPDEST PUSH1 0x40 MLOAD DUP1 SWAP2 SUB SWAP1 RETURN JUMPDEST PUSH2 0x24A PUSH1 0x4 DUP1 CALLDATASIZE SUB DUP2 ADD SWAP1 PUSH2 0x245 SWAP2 SWAP1 PUSH2 0x23A4 JUMP JUMPDEST PUSH2 0x103A JUMP JUMPDEST PUSH1 0x40 MLOAD PUSH2 0x25A SWAP5 SWAP4 SWAP3 SWAP2 SWAP1 PUSH2 0x2F56 JUMP JUMPDEST PUSH1 0x40 MLOAD DUP1 SWAP2 SUB SWAP1 RETURN JUMPDEST PUSH2 0x27D PUSH1 0x4 DUP1 CALLDATASIZE SUB DUP2 ADD SWAP1 PUSH2 0x278 SWAP2 SWAP1 PUSH2 0x2377 JUMP JUMPDEST PUSH2 0x10A4 JUMP JUMPDEST PUSH1 0x40 MLOAD PUSH2 0x28B SWAP3 SWAP2 SWAP1 PUSH2 0x2F12 JUMP JUMPDEST PUSH1 0x40 MLOAD DUP1 SWAP2 SUB SWAP1 RETURN JUMPDEST PUSH1 0x7 PUSH1 0x20 MSTORE DUP1 PUSH1 0x0 MSTORE PUSH1 0x40 PUSH1 0x0 KECCAK256 PUSH1 0x0 SWAP2 POP SWAP1 POP DUP1 PUSH1 0x0 ADD PUSH1 0x0 SWAP1 SLOAD SWAP1 PUSH2 0x100 EXP SWAP1 DIV PUSH20 0xFFFFFFFFFFFFFFFFFFFFFFFFFFFFFFFFFFFFFFFF AND SWAP1 DUP1 PUSH1 0x0 ADD PUSH1 0x14 SWAP1 SLOAD SWAP1 PUSH2 0x100 EXP SWAP1 DIV PUSH1 0xFF AND SWAP1 DUP1 PUSH1 0x1 ADD DUP1 SLOAD PUSH2 0x2F0 SWAP1 PUSH2 0x3497 JUMP JUMPDEST DUP1 PUSH1 0x1F ADD PUSH1 0x20 DUP1 SWAP2 DIV MUL PUSH1 0x20 ADD PUSH1 0x40 MLOAD SWAP1 DUP2 ADD PUSH1 0x40 MSTORE DUP1 SWAP3 SWAP2 SWAP1 DUP2 DUP2 MSTORE PUSH1 0x20 ADD DUP3 DUP1 SLOAD PUSH2 0x31C SWAP1 PUSH2 0x3497 JUMP JUMPDEST DUP1 ISZERO PUSH2 0x369 JUMPI DUP1 PUSH1 0x1F LT PUSH2 0x33E JUMPI PUSH2 0x100 DUP1 DUP4 SLOAD DIV MUL DUP4 MSTORE SWAP2 PUSH1 0x20 ADD SWAP2 PUSH2 0x369 JUMP JUMPDEST DUP3 ADD SWAP2 SWAP1 PUSH1 0x0 MSTORE PUSH1 0x20 PUSH1 0x0 KECCAK256 SWAP1 JUMPDEST DUP2 SLOAD DUP2 MSTORE SWAP1 PUSH1 0x1 ADD SWAP1 PUSH1 0x20 ADD DUP1 DUP4 GT PUSH2 0x34C JUMPI DUP3 SWAP1 SUB PUSH1 0x1F AND DUP3 ADD SWAP2 JUMPDEST POP POP POP POP POP SWAP1 DUP1 PUSH1 0x2 ADD SLOAD SWAP1 DUP1 PUSH1 0x3 ADD SLOAD SWAP1 DUP1 PUSH1 0x4 ADD PUSH1 0x0 SWAP1 SLOAD SWAP1 PUSH2 0x100 EXP SWAP1 DIV PUSH2 0xFFFF AND SWAP1 DUP1 PUSH1 0x5 ADD SLOAD SWAP1 POP DUP8 JUMP JUMPDEST PUSH1 0x60 PUSH1 0x2 DUP1 SLOAD PUSH2 0x3A8 SWAP1 PUSH2 0x3497 JUMP JUMPDEST DUP1 PUSH1 0x1F ADD PUSH1 0x20 DUP1 SWAP2 DIV MUL PUSH1 0x20 ADD PUSH1 0x40 MLOAD SWAP1 DUP2 ADD PUSH1 0x40 MSTORE DUP1 SWAP3 SWAP2 SWAP1 DUP2 DUP2 MSTORE PUSH1 0x20 ADD DUP3 DUP1 SLOAD PUSH2 0x3D4 SWAP1 PUSH2 0x3497 JUMP JUMPDEST DUP1 ISZERO PUSH2 0x421 JUMPI DUP1 PUSH1 0x1F LT PUSH2 0x3F6 JUMPI PUSH2 0x100 DUP1 DUP4 SLOAD DIV MUL DUP4 MSTORE SWAP2 PUSH1 0x20 ADD SWAP2 PUSH2 0x421 JUMP JUMPDEST DUP3 ADD SWAP2 SWAP1 PUSH1 0x0 MSTORE PUSH1 0x20 PUSH1 0x0 KECCAK256 SWAP1 JUMPDEST DUP2 SLOAD DUP2 MSTORE SWAP1 PUSH1 0x1 ADD SWAP1 PUSH1 0x20 ADD DUP1 DUP4 GT PUSH2 0x404 JUMPI DUP3 SWAP1 SUB PUSH1 0x1F AND DUP3 ADD SWAP2 JUMPDEST POP POP POP POP POP SWAP1 POP SWAP1 JUMP JUMPDEST PUSH1 0x0 PUSH1 0x1 SLOAD SWAP1 POP SWAP1 JUMP JUMPDEST PUSH1 0x0 PUSH1 0x12 SWAP1 POP SWAP1 JUMP JUMPDEST DUP6 TIMESTAMP LT PUSH2 0x480 JUMPI PUSH1 0x40 MLOAD PUSH32 0x8C379A000000000000000000000000000000000000000000000000000000000 DUP2 MSTORE PUSH1 0x4 ADD PUSH2 0x477 SWAP1 PUSH2 0x2D3A JUMP JUMPDEST PUSH1 0x40 MLOAD DUP1 SWAP2 SUB SWAP1 REVERT JUMPDEST DUP5 TIMESTAMP LT PUSH2 0x4C2 JUMPI PUSH1 0x40 MLOAD PUSH32 0x8C379A000000000000000000000000000000000000000000000000000000000 DUP2 MSTORE PUSH1 0x4 ADD PUSH2 0x4B9 SWAP1 PUSH2 0x2C7A JUMP JUMPDEST PUSH1 0x40 MLOAD DUP1 SWAP2 SUB SWAP1 REVERT JUMPDEST DUP5 DUP7 LT PUSH2 0x504 JUMPI PUSH1 0x40 MLOAD PUSH32 0x8C379A000000000000000000000000000000000000000000000000000000000 DUP2 MSTORE PUSH1 0x4 ADD PUSH2 0x4FB SWAP1 PUSH2 0x2DBA JUMP JUMPDEST PUSH1 0x40 MLOAD DUP1 SWAP2 SUB SWAP1 REVERT JUMPDEST PUSH1 0x5 PUSH1 0x0 DUP2 SLOAD DUP1 SWAP3 SWAP2 SWAP1 PUSH2 0x517 SWAP1 PUSH2 0x355E JUMP JUMPDEST SWAP2 SWAP1 POP SSTORE POP PUSH2 0x553 DUP10 DUP10 DUP10 DUP10 DUP10 DUP10 DUP8 DUP11 DUP11 PUSH1 0x7 PUSH1 0x0 PUSH1 0x5 SLOAD DUP2 MSTORE PUSH1 0x20 ADD SWAP1 DUP2 MSTORE PUSH1 0x20 ADD PUSH1 0x0 KECCAK256 PUSH2 0x1100 SWAP1 SWAP10 SWAP9 SWAP8 SWAP7 SWAP6 SWAP5 SWAP4 SWAP3 SWAP2 SWAP1 PUSH4 0xFFFFFFFF AND JUMP JUMPDEST POP PUSH32 0x239A8A71A7D1CB0D134F6CC072AD6390E36A88C8E78DFF69013EE79528441E80 PUSH1 0x5 SLOAD DUP10 DUP10 DUP10 DUP10 DUP10 DUP10 DUP10 PUSH1 0x40 MLOAD PUSH2 0x593 SWAP9 SWAP8 SWAP7 SWAP6 SWAP5 SWAP4 SWAP3 SWAP2 SWAP1 PUSH2 0x2F9B JUMP JUMPDEST PUSH1 0x40 MLOAD DUP1 SWAP2 SUB SWAP1 LOG1 PUSH1 0x1 PUSH1 0x9 PUSH1 0x0 PUSH1 0x5 SLOAD DUP2 MSTORE PUSH1 0x20 ADD SWAP1 DUP2 MSTORE PUSH1 0x20 ADD PUSH1 0x0 KECCAK256 PUSH1 0x0 PUSH2 0x100 EXP DUP2 SLOAD DUP2 PUSH1 0xFF MUL NOT AND SWAP1 DUP4 ISZERO ISZERO MUL OR SWAP1 SSTORE POP PUSH1 0x0 JUMPDEST DUP9 MLOAD DUP2 LT ISZERO PUSH2 0x701 JUMPI PUSH2 0x5F9 DUP10 DUP3 DUP2 MLOAD DUP2 LT PUSH2 0x5EB JUMPI PUSH2 0x5EA PUSH2 0x3605 JUMP JUMPDEST JUMPDEST PUSH1 0x20 MUL PUSH1 0x20 ADD ADD MLOAD DUP4 PUSH2 0x1332 JUMP JUMPDEST PUSH2 0x69A PUSH1 0x5 SLOAD DUP11 DUP4 DUP2 MLOAD DUP2 LT PUSH2 0x612 JUMPI PUSH2 0x611 PUSH2 0x3605 JUMP JUMPDEST JUMPDEST PUSH1 0x20 MUL PUSH1 0x20 ADD ADD MLOAD PUSH1 0x0 DUP6 PUSH1 0x8 PUSH1 0x0 DUP16 DUP9 DUP2 MLOAD DUP2 LT PUSH2 0x634 JUMPI PUSH2 0x633 PUSH2 0x3605 JUMP JUMPDEST JUMPDEST PUSH1 0x20 MUL PUSH1 0x20 ADD ADD MLOAD PUSH20 0xFFFFFFFFFFFFFFFFFFFFFFFFFFFFFFFFFFFFFFFF AND PUSH20 0xFFFFFFFFFFFFFFFFFFFFFFFFFFFFFFFFFFFFFFFF AND DUP2 MSTORE PUSH1 0x20 ADD SWAP1 DUP2 MSTORE PUSH1 0x20 ADD PUSH1 0x0 KECCAK256 PUSH1 0x0 PUSH1 0x5 SLOAD DUP2 MSTORE PUSH1 0x20 ADD SWAP1 DUP2 MSTORE PUSH1 0x20 ADD PUSH1 0x0 KECCAK256 PUSH2 0x13A3 SWAP1 SWAP5 SWAP4 SWAP3 SWAP2 SWAP1 PUSH4 0xFFFFFFFF AND JUMP JUMPDEST POP PUSH32 0xABF5327BE9F5825C40D58BDA541DD07F09B62DF3376BBD5ECDBAA8BD82A9D492 DUP10 DUP3 DUP2 MLOAD DUP2 LT PUSH2 0x6CF JUMPI PUSH2 0x6CE PUSH2 0x3605 JUMP JUMPDEST JUMPDEST PUSH1 0x20 MUL PUSH1 0x20 ADD ADD MLOAD DUP4 PUSH1 0x40 MLOAD PUSH2 0x6E6 SWAP3 SWAP2 SWAP1 PUSH2 0x2E3A JUMP JUMPDEST PUSH1 0x40 MLOAD DUP1 SWAP2 SUB SWAP1 LOG1 DUP1 DUP1 PUSH2 0x6F9 SWAP1 PUSH2 0x355E JUMP JUMPDEST SWAP2 POP POP PUSH2 0x5CC JUMP JUMPDEST POP PUSH2 0x75C PUSH1 0x5 SLOAD PUSH1 0x6 PUSH1 0x0 PUSH2 0x714 PUSH2 0x1423 JUMP JUMPDEST PUSH20 0xFFFFFFFFFFFFFFFFFFFFFFFFFFFFFFFFFFFFFFFF AND PUSH20 0xFFFFFFFFFFFFFFFFFFFFFFFFFFFFFFFFFFFFFFFF AND DUP2 MSTORE PUSH1 0x20 ADD SWAP1 DUP2 MSTORE PUSH1 0x20 ADD PUSH1 0x0 KECCAK256 PUSH2 0x142B SWAP1 SWAP2 SWAP1 PUSH4 0xFFFFFFFF AND JUMP JUMPDEST POP POP POP POP POP POP POP POP POP POP JUMP JUMPDEST PUSH1 0x9 PUSH1 0x0 DUP6 DUP2 MSTORE PUSH1 0x20 ADD SWAP1 DUP2 MSTORE PUSH1 0x20 ADD PUSH1 0x0 KECCAK256 PUSH1 0x0 SWAP1 SLOAD SWAP1 PUSH2 0x100 EXP SWAP1 DIV PUSH1 0xFF AND PUSH2 0x7C8 JUMPI PUSH1 0x40 MLOAD PUSH32 0x8C379A000000000000000000000000000000000000000000000000000000000 DUP2 MSTORE PUSH1 0x4 ADD PUSH2 0x7BF SWAP1 PUSH2 0x2D7A JUMP JUMPDEST PUSH1 0x40 MLOAD DUP1 SWAP2 SUB SWAP1 REVERT JUMPDEST DUP4 PUSH1 0x8 PUSH1 0x0 DUP6 PUSH20 0xFFFFFFFFFFFFFFFFFFFFFFFFFFFFFFFFFFFFFFFF AND PUSH20 0xFFFFFFFFFFFFFFFFFFFFFFFFFFFFFFFFFFFFFFFF AND DUP2 MSTORE PUSH1 0x20 ADD SWAP1 DUP2 MSTORE PUSH1 0x20 ADD PUSH1 0x0 KECCAK256 PUSH1 0x0 DUP7 DUP2 MSTORE PUSH1 0x20 ADD SWAP1 DUP2 MSTORE PUSH1 0x20 ADD PUSH1 0x0 KECCAK256 PUSH1 0x0 ADD SLOAD EQ PUSH2 0x85D JUMPI PUSH1 0x40 MLOAD PUSH32 0x8C379A000000000000000000000000000000000000000000000000000000000 DUP2 MSTORE PUSH1 0x4 ADD PUSH2 0x854 SWAP1 PUSH2 0x2D1A JUMP JUMPDEST PUSH1 0x40 MLOAD DUP1 SWAP2 SUB SWAP1 REVERT JUMPDEST PUSH1 0x8 PUSH1 0x0 DUP5 PUSH20 0xFFFFFFFFFFFFFFFFFFFFFFFFFFFFFFFFFFFFFFFF AND PUSH20 0xFFFFFFFFFFFFFFFFFFFFFFFFFFFFFFFFFFFFFFFF AND DUP2 MSTORE PUSH1 0x20 ADD SWAP1 DUP2 MSTORE PUSH1 0x20 ADD PUSH1 0x0 KECCAK256 PUSH1 0x0 DUP6 DUP2 MSTORE PUSH1 0x20 ADD SWAP1 DUP2 MSTORE PUSH1 0x20 ADD PUSH1 0x0 KECCAK256 PUSH1 0x1 ADD PUSH1 0x14 SWAP1 SLOAD SWAP1 PUSH2 0x100 EXP SWAP1 DIV PUSH1 0xFF AND ISZERO PUSH2 0x8FE JUMPI PUSH1 0x40 MLOAD PUSH32 0x8C379A000000000000000000000000000000000000000000000000000000000 DUP2 MSTORE PUSH1 0x4 ADD PUSH2 0x8F5 SWAP1 PUSH2 0x2CBA JUMP JUMPDEST PUSH1 0x40 MLOAD DUP1 SWAP2 SUB SWAP1 REVERT JUMPDEST DUP2 MLOAD PUSH1 0x7 PUSH1 0x0 DUP7 DUP2 MSTORE PUSH1 0x20 ADD SWAP1 DUP2 MSTORE PUSH1 0x20 ADD PUSH1 0x0 KECCAK256 PUSH1 0x4 ADD PUSH1 0x0 SWAP1 SLOAD SWAP1 PUSH2 0x100 EXP SWAP1 DIV PUSH2 0xFFFF AND PUSH2 0xFFFF AND EQ PUSH2 0x969 JUMPI PUSH1 0x40 MLOAD PUSH32 0x8C379A000000000000000000000000000000000000000000000000000000000 DUP2 MSTORE PUSH1 0x4 ADD PUSH2 0x960 SWAP1 PUSH2 0x2DFA JUMP JUMPDEST PUSH1 0x40 MLOAD DUP1 SWAP2 SUB SWAP1 REVERT JUMPDEST PUSH1 0x0 DUP1 JUMPDEST DUP3 MLOAD DUP2 LT ISZERO PUSH2 0x9D6 JUMPI DUP3 DUP2 DUP2 MLOAD DUP2 LT PUSH2 0x989 JUMPI PUSH2 0x988 PUSH2 0x3605 JUMP JUMPDEST JUMPDEST PUSH1 0x20 MUL PUSH1 0x20 ADD ADD MLOAD DUP4 DUP3 DUP2 MLOAD DUP2 LT PUSH2 0x9A4 JUMPI PUSH2 0x9A3 PUSH2 0x3605 JUMP JUMPDEST JUMPDEST PUSH1 0x20 MUL PUSH1 0x20 ADD ADD MLOAD PUSH2 0x9B6 SWAP2 SWAP1 PUSH2 0x3348 JUMP JUMPDEST DUP3 PUSH2 0x9C1 SWAP2 SWAP1 PUSH2 0x32F2 JUMP JUMPDEST SWAP2 POP DUP1 DUP1 PUSH2 0x9CE SWAP1 PUSH2 0x355E JUMP JUMPDEST SWAP2 POP POP PUSH2 0x96D JUMP JUMPDEST POP DUP1 PUSH1 0x8 PUSH1 0x0 DUP7 PUSH20 0xFFFFFFFFFFFFFFFFFFFFFFFFFFFFFFFFFFFFFFFF AND PUSH20 0xFFFFFFFFFFFFFFFFFFFFFFFFFFFFFFFFFFFFFFFF AND DUP2 MSTORE PUSH1 0x20 ADD SWAP1 DUP2 MSTORE PUSH1 0x20 ADD PUSH1 0x0 KECCAK256 PUSH1 0x0 DUP8 DUP2 MSTORE PUSH1 0x20 ADD SWAP1 DUP2 MSTORE PUSH1 0x20 ADD PUSH1 0x0 KECCAK256 PUSH1 0x2 ADD SLOAD LT ISZERO PUSH2 0xA6D JUMPI PUSH1 0x40 MLOAD PUSH32 0x8C379A000000000000000000000000000000000000000000000000000000000 DUP2 MSTORE PUSH1 0x4 ADD PUSH2 0xA64 SWAP1 PUSH2 0x2D9A JUMP JUMPDEST PUSH1 0x40 MLOAD DUP1 SWAP2 SUB SWAP1 REVERT JUMPDEST PUSH2 0xA96 DUP5 DUP5 DUP5 PUSH1 0x7 PUSH1 0x0 DUP11 DUP2 MSTORE PUSH1 0x20 ADD SWAP1 DUP2 MSTORE PUSH1 0x20 ADD PUSH1 0x0 KECCAK256 PUSH2 0x14FC SWAP1 SWAP4 SWAP3 SWAP2 SWAP1 PUSH4 0xFFFFFFFF AND JUMP JUMPDEST POP PUSH2 0xAF1 DUP6 DUP5 PUSH1 0x6 PUSH1 0x0 PUSH2 0xAA8 PUSH2 0x1423 JUMP JUMPDEST PUSH20 0xFFFFFFFFFFFFFFFFFFFFFFFFFFFFFFFFFFFFFFFF AND PUSH20 0xFFFFFFFFFFFFFFFFFFFFFFFFFFFFFFFFFFFFFFFF AND DUP2 MSTORE PUSH1 0x20 ADD SWAP1 DUP2 MSTORE PUSH1 0x20 ADD PUSH1 0x0 KECCAK256 PUSH2 0x196B SWAP1 SWAP3 SWAP2 SWAP1 PUSH4 0xFFFFFFFF AND JUMP JUMPDEST POP PUSH2 0xB4A PUSH1 0x8 PUSH1 0x0 DUP7 PUSH20 0xFFFFFFFFFFFFFFFFFFFFFFFFFFFFFFFFFFFFFFFF AND PUSH20 0xFFFFFFFFFFFFFFFFFFFFFFFFFFFFFFFFFFFFFFFF AND DUP2 MSTORE PUSH1 0x20 ADD SWAP1 DUP2 MSTORE PUSH1 0x20 ADD PUSH1 0x0 KECCAK256 PUSH1 0x0 DUP8 DUP2 MSTORE PUSH1 0x20 ADD SWAP1 DUP2 MSTORE PUSH1 0x20 ADD PUSH1 0x0 KECCAK256 PUSH2 0x1AF8 JUMP JUMPDEST POP PUSH1 0x1 PUSH1 0x8 PUSH1 0x0 DUP7 PUSH20 0xFFFFFFFFFFFFFFFFFFFFFFFFFFFFFFFFFFFFFFFF AND PUSH20 0xFFFFFFFFFFFFFFFFFFFFFFFFFFFFFFFFFFFFFFFF AND DUP2 MSTORE PUSH1 0x20 ADD SWAP1 DUP2 MSTORE PUSH1 0x20 ADD PUSH1 0x0 KECCAK256 PUSH1 0x0 DUP8 DUP2 MSTORE PUSH1 0x20 ADD SWAP1 DUP2 MSTORE PUSH1 0x20 ADD PUSH1 0x0 KECCAK256 PUSH1 0x1 ADD PUSH1 0x14 PUSH2 0x100 EXP DUP2 SLOAD DUP2 PUSH1 0xFF MUL NOT AND SWAP1 DUP4 ISZERO ISZERO MUL OR SWAP1 SSTORE POP PUSH2 0xBD9 DUP5 PUSH1 0x7 PUSH1 0x0 PUSH1 0x5 SLOAD DUP2 MSTORE PUSH1 0x20 ADD SWAP1 DUP2 MSTORE PUSH1 0x20 ADD PUSH1 0x0 KECCAK256 PUSH1 0x5 ADD SLOAD PUSH2 0x1BA6 JUMP JUMPDEST PUSH32 0xABF5327BE9F5825C40D58BDA541DD07F09B62DF3376BBD5ECDBAA8BD82A9D492 DUP5 PUSH1 0x7 PUSH1 0x0 PUSH1 0x5 SLOAD DUP2 MSTORE PUSH1 0x20 ADD SWAP1 DUP2 MSTORE PUSH1 0x20 ADD PUSH1 0x0 KECCAK256 PUSH1 0x5 ADD SLOAD PUSH1 0x40 MLOAD PUSH2 0xC22 SWAP3 SWAP2 SWAP1 PUSH2 0x2E96 JUMP JUMPDEST PUSH1 0x40 MLOAD DUP1 SWAP2 SUB SWAP1 LOG1 POP POP POP POP POP JUMP JUMPDEST PUSH1 0x0 PUSH1 0x8 PUSH1 0x0 DUP4 PUSH20 0xFFFFFFFFFFFFFFFFFFFFFFFFFFFFFFFFFFFFFFFF AND PUSH20 0xFFFFFFFFFFFFFFFFFFFFFFFFFFFFFFFFFFFFFFFF AND DUP2 MSTORE PUSH1 0x20 ADD SWAP1 DUP2 MSTORE PUSH1 0x20 ADD PUSH1 0x0 KECCAK256 PUSH1 0x0 DUP5 DUP2 MSTORE PUSH1 0x20 ADD SWAP1 DUP2 MSTORE PUSH1 0x20 ADD PUSH1 0x0 KECCAK256 PUSH1 0x1 ADD PUSH1 0x14 SWAP1 SLOAD SWAP1 PUSH2 0x100 EXP SWAP1 DIV PUSH1 0xFF AND PUSH2 0xCD3 JUMPI PUSH1 0x40 MLOAD PUSH32 0x8C379A000000000000000000000000000000000000000000000000000000000 DUP2 MSTORE PUSH1 0x4 ADD PUSH2 0xCCA SWAP1 PUSH2 0x2E1A JUMP JUMPDEST PUSH1 0x40 MLOAD DUP1 SWAP2 SUB SWAP1 REVERT JUMPDEST DUP3 PUSH1 0x8 PUSH1 0x0 DUP5 PUSH20 0xFFFFFFFFFFFFFFFFFFFFFFFFFFFFFFFFFFFFFFFF AND PUSH20 0xFFFFFFFFFFFFFFFFFFFFFFFFFFFFFFFFFFFFFFFF AND DUP2 MSTORE PUSH1 0x20 ADD SWAP1 DUP2 MSTORE PUSH1 0x20 ADD PUSH1 0x0 KECCAK256 PUSH1 0x0 DUP6 DUP2 MSTORE PUSH1 0x20 ADD SWAP1 DUP2 MSTORE PUSH1 0x20 ADD PUSH1 0x0 KECCAK256 PUSH1 0x0 ADD SLOAD EQ PUSH2 0xD68 JUMPI PUSH1 0x40 MLOAD PUSH32 0x8C379A000000000000000000000000000000000000000000000000000000000 DUP2 MSTORE PUSH1 0x4 ADD PUSH2 0xD5F SWAP1 PUSH2 0x2D1A JUMP JUMPDEST PUSH1 0x40 MLOAD DUP1 SWAP2 SUB SWAP1 REVERT JUMPDEST PUSH2 0xD8A DUP3 PUSH1 0x7 PUSH1 0x0 PUSH1 0x5 SLOAD DUP2 MSTORE PUSH1 0x20 ADD SWAP1 DUP2 MSTORE PUSH1 0x20 ADD PUSH1 0x0 KECCAK256 PUSH1 0x5 ADD SLOAD PUSH2 0x1BA6 JUMP JUMPDEST PUSH32 0xABF5327BE9F5825C40D58BDA541DD07F09B62DF3376BBD5ECDBAA8BD82A9D492 DUP3 PUSH1 0x7 PUSH1 0x0 PUSH1 0x5 SLOAD DUP2 MSTORE PUSH1 0x20 ADD SWAP1 DUP2 MSTORE PUSH1 0x20 ADD PUSH1 0x0 KECCAK256 PUSH1 0x5 ADD SLOAD PUSH1 0x40 MLOAD PUSH2 0xDD3 SWAP3 SWAP2 SWAP1 PUSH2 0x2E96 JUMP JUMPDEST PUSH1 0x40 MLOAD DUP1 SWAP2 SUB SWAP1 LOG1 PUSH1 0x1 SWAP1 POP SWAP3 SWAP2 POP POP JUMP JUMPDEST PUSH1 0x0 DUP1 PUSH1 0x0 DUP4 PUSH20 0xFFFFFFFFFFFFFFFFFFFFFFFFFFFFFFFFFFFFFFFF AND PUSH20 0xFFFFFFFFFFFFFFFFFFFFFFFFFFFFFFFFFFFFFFFF AND DUP2 MSTORE PUSH1 0x20 ADD SWAP1 DUP2 MSTORE PUSH1 0x20 ADD PUSH1 0x0 KECCAK256 SLOAD SWAP1 POP SWAP2 SWAP1 POP JUMP JUMPDEST PUSH1 0x60 PUSH1 0x3 DUP1 SLOAD PUSH2 0xE3C SWAP1 PUSH2 0x3497 JUMP JUMPDEST DUP1 PUSH1 0x1F ADD PUSH1 0x20 DUP1 SWAP2 DIV MUL PUSH1 0x20 ADD PUSH1 0x40 MLOAD SWAP1 DUP2 ADD PUSH1 0x40 MSTORE DUP1 SWAP3 SWAP2 SWAP1 DUP2 DUP2 MSTORE PUSH1 0x20 ADD DUP3 DUP1 SLOAD PUSH2 0xE68 SWAP1 PUSH2 0x3497 JUMP JUMPDEST DUP1 ISZERO PUSH2 0xEB5 JUMPI DUP1 PUSH1 0x1F LT PUSH2 0xE8A JUMPI PUSH2 0x100 DUP1 DUP4 SLOAD DIV MUL DUP4 MSTORE SWAP2 PUSH1 0x20 ADD SWAP2 PUSH2 0xEB5 JUMP JUMPDEST DUP3 ADD SWAP2 SWAP1 PUSH1 0x0 MSTORE PUSH1 0x20 PUSH1 0x0 KECCAK256 SWAP1 JUMPDEST DUP2 SLOAD DUP2 MSTORE SWAP1 PUSH1 0x1 ADD SWAP1 PUSH1 0x20 ADD DUP1 DUP4 GT PUSH2 0xE98 JUMPI DUP3 SWAP1 SUB PUSH1 0x1F AND DUP3 ADD SWAP2 JUMPDEST POP POP POP POP POP SWAP1 POP SWAP1 JUMP JUMPDEST PUSH1 0x0 PUSH1 0x60 PUSH1 0x9 PUSH1 0x0 DUP5 DUP2 MSTORE PUSH1 0x20 ADD SWAP1 DUP2 MSTORE PUSH1 0x20 ADD PUSH1 0x0 KECCAK256 PUSH1 0x0 SWAP1 SLOAD SWAP1 PUSH2 0x100 EXP SWAP1 DIV PUSH1 0xFF AND PUSH2 0xF23 JUMPI PUSH1 0x40 MLOAD PUSH32 0x8C379A000000000000000000000000000000000000000000000000000000000 DUP2 MSTORE PUSH1 0x4 ADD PUSH2 0xF1A SWAP1 PUSH2 0x2CFA JUMP JUMPDEST PUSH1 0x40 MLOAD DUP1 SWAP2 SUB SWAP1 REVERT JUMPDEST PUSH1 0x7 PUSH1 0x0 DUP5 DUP2 MSTORE PUSH1 0x20 ADD SWAP1 DUP2 MSTORE PUSH1 0x20 ADD PUSH1 0x0 KECCAK256 PUSH1 0xA ADD PUSH1 0x7 PUSH1 0x0 DUP6 DUP2 MSTORE PUSH1 0x20 ADD SWAP1 DUP2 MSTORE PUSH1 0x20 ADD PUSH1 0x0 KECCAK256 PUSH1 0x9 ADD PUSH1 0x0 PUSH1 0x1 DUP2 MSTORE PUSH1 0x20 ADD SWAP1 DUP2 MSTORE PUSH1 0x20 ADD PUSH1 0x0 KECCAK256 PUSH1 0x40 MLOAD PUSH2 0xF6E SWAP2 SWAP1 PUSH2 0x2B90 JUMP JUMPDEST SWAP1 DUP2 MSTORE PUSH1 0x20 ADD PUSH1 0x40 MLOAD DUP1 SWAP2 SUB SWAP1 KECCAK256 SLOAD PUSH1 0x7 PUSH1 0x0 DUP6 DUP2 MSTORE PUSH1 0x20 ADD SWAP1 DUP2 MSTORE PUSH1 0x20 ADD PUSH1 0x0 KECCAK256 PUSH1 0x9 ADD PUSH1 0x0 PUSH1 0x1 DUP2 MSTORE PUSH1 0x20 ADD SWAP1 DUP2 MSTORE PUSH1 0x20 ADD PUSH1 0x0 KECCAK256 DUP1 DUP1 SLOAD PUSH2 0xFB1 SWAP1 PUSH2 0x3497 JUMP JUMPDEST DUP1 PUSH1 0x1F ADD PUSH1 0x20 DUP1 SWAP2 DIV MUL PUSH1 0x20 ADD PUSH1 0x40 MLOAD SWAP1 DUP2 ADD PUSH1 0x40 MSTORE DUP1 SWAP3 SWAP2 SWAP1 DUP2 DUP2 MSTORE PUSH1 0x20 ADD DUP3 DUP1 SLOAD PUSH2 0xFDD SWAP1 PUSH2 0x3497 JUMP JUMPDEST DUP1 ISZERO PUSH2 0x102A JUMPI DUP1 PUSH1 0x1F LT PUSH2 0xFFF JUMPI PUSH2 0x100 DUP1 DUP4 SLOAD DIV MUL DUP4 MSTORE SWAP2 PUSH1 0x20 ADD SWAP2 PUSH2 0x102A JUMP JUMPDEST DUP3 ADD SWAP2 SWAP1 PUSH1 0x0 MSTORE PUSH1 0x20 PUSH1 0x0 KECCAK256 SWAP1 JUMPDEST DUP2 SLOAD DUP2 MSTORE SWAP1 PUSH1 0x1 ADD SWAP1 PUSH1 0x20 ADD DUP1 DUP4 GT PUSH2 0x100D JUMPI DUP3 SWAP1 SUB PUSH1 0x1F AND DUP3 ADD SWAP2 JUMPDEST POP POP POP POP POP SWAP1 POP SWAP2 POP SWAP2 POP SWAP2 POP SWAP2 JUMP JUMPDEST PUSH1 0x8 PUSH1 0x20 MSTORE DUP2 PUSH1 0x0 MSTORE PUSH1 0x40 PUSH1 0x0 KECCAK256 PUSH1 0x20 MSTORE DUP1 PUSH1 0x0 MSTORE PUSH1 0x40 PUSH1 0x0 KECCAK256 PUSH1 0x0 SWAP2 POP SWAP2 POP POP DUP1 PUSH1 0x0 ADD SLOAD SWAP1 DUP1 PUSH1 0x1 ADD PUSH1 0x0 SWAP1 SLOAD SWAP1 PUSH2 0x100 EXP SWAP1 DIV PUSH20 0xFFFFFFFFFFFFFFFFFFFFFFFFFFFFFFFFFFFFFFFF AND SWAP1 DUP1 PUSH1 0x1 ADD PUSH1 0x14 SWAP1 SLOAD SWAP1 PUSH2 0x100 EXP SWAP1 DIV PUSH1 0xFF AND SWAP1 DUP1 PUSH1 0x2 ADD SLOAD SWAP1 POP DUP5 JUMP JUMPDEST PUSH1 0x6 PUSH1 0x20 MSTORE DUP1 PUSH1 0x0 MSTORE PUSH1 0x40 PUSH1 0x0 KECCAK256 PUSH1 0x0 SWAP2 POP SWAP1 POP DUP1 PUSH1 0x0 ADD PUSH1 0x0 SWAP1 SLOAD SWAP1 PUSH2 0x100 EXP SWAP1 DIV PUSH16 0xFFFFFFFFFFFFFFFFFFFFFFFFFFFFFFFF AND SWAP1 DUP1 PUSH1 0x0 ADD PUSH1 0x10 SWAP1 SLOAD SWAP1 PUSH2 0x100 EXP SWAP1 DIV PUSH16 0xFFFFFFFFFFFFFFFFFFFFFFFFFFFFFFFF AND SWAP1 POP DUP3 JUMP JUMPDEST PUSH1 0x0 DUP8 DUP12 PUSH1 0x0 ADD PUSH1 0x0 PUSH2 0x100 EXP DUP2 SLOAD DUP2 PUSH20 0xFFFFFFFFFFFFFFFFFFFFFFFFFFFFFFFFFFFFFFFF MUL NOT AND SWAP1 DUP4 PUSH20 0xFFFFFFFFFFFFFFFFFFFFFFFFFFFFFFFFFFFFFFFF AND MUL OR SWAP1 SSTORE POP DUP10 DUP12 PUSH1 0x0 ADD PUSH1 0x14 PUSH2 0x100 EXP DUP2 SLOAD DUP2 PUSH1 0xFF MUL NOT AND SWAP1 DUP4 PUSH1 0xFF AND MUL OR SWAP1 SSTORE POP DUP5 DUP12 PUSH1 0x1 ADD SWAP1 DUP1 MLOAD SWAP1 PUSH1 0x20 ADD SWAP1 PUSH2 0x117A SWAP3 SWAP2 SWAP1 PUSH2 0x1EC4 JUMP JUMPDEST POP DUP7 DUP12 PUSH1 0x2 ADD DUP2 SWAP1 SSTORE POP DUP6 DUP12 PUSH1 0x3 ADD DUP2 SWAP1 SSTORE POP DUP3 DUP3 SWAP1 POP DUP12 PUSH1 0x4 ADD PUSH1 0x0 PUSH2 0x100 EXP DUP2 SLOAD DUP2 PUSH2 0xFFFF MUL NOT AND SWAP1 DUP4 PUSH2 0xFFFF AND MUL OR SWAP1 SSTORE POP DUP4 DUP12 PUSH1 0x5 ADD DUP2 SWAP1 SSTORE POP PUSH1 0x0 JUMPDEST DUP4 DUP4 SWAP1 POP DUP2 LT ISZERO PUSH2 0x128B JUMPI PUSH1 0x1 DUP13 PUSH1 0x7 ADD DUP6 DUP6 DUP5 DUP2 DUP2 LT PUSH2 0x11DF JUMPI PUSH2 0x11DE PUSH2 0x3605 JUMP JUMPDEST JUMPDEST SWAP1 POP PUSH1 0x20 MUL DUP2 ADD SWAP1 PUSH2 0x11F1 SWAP2 SWAP1 PUSH2 0x306C JUMP JUMPDEST PUSH1 0x40 MLOAD PUSH2 0x11FF SWAP3 SWAP2 SWAP1 PUSH2 0x2B60 JUMP JUMPDEST SWAP1 DUP2 MSTORE PUSH1 0x20 ADD PUSH1 0x40 MLOAD DUP1 SWAP2 SUB SWAP1 KECCAK256 PUSH1 0x0 PUSH2 0x100 EXP DUP2 SLOAD DUP2 PUSH1 0xFF MUL NOT AND SWAP1 DUP4 ISZERO ISZERO MUL OR SWAP1 SSTORE POP DUP4 DUP4 DUP3 DUP2 DUP2 LT PUSH2 0x1237 JUMPI PUSH2 0x1236 PUSH2 0x3605 JUMP JUMPDEST JUMPDEST SWAP1 POP PUSH1 0x20 MUL DUP2 ADD SWAP1 PUSH2 0x1249 SWAP2 SWAP1 PUSH2 0x306C JUMP JUMPDEST DUP14 PUSH1 0x8 ADD PUSH1 0x0 PUSH1 0x1 DUP6 PUSH2 0x125C SWAP2 SWAP1 PUSH2 0x32F2 JUMP JUMPDEST DUP2 MSTORE PUSH1 0x20 ADD SWAP1 DUP2 MSTORE PUSH1 0x20 ADD PUSH1 0x0 KECCAK256 SWAP2 SWAP1 PUSH2 0x1277 SWAP3 SWAP2 SWAP1 PUSH2 0x1F4A JUMP JUMPDEST POP DUP1 DUP1 PUSH2 0x1283 SWAP1 PUSH2 0x355E JUMP JUMPDEST SWAP2 POP POP PUSH2 0x11BB JUMP JUMPDEST POP PUSH1 0x0 JUMPDEST DUP10 MLOAD DUP2 LT ISZERO PUSH2 0x131F JUMPI PUSH1 0x1 DUP13 PUSH1 0x6 ADD PUSH1 0x0 DUP13 DUP5 DUP2 MLOAD DUP2 LT PUSH2 0x12B3 JUMPI PUSH2 0x12B2 PUSH2 0x3605 JUMP JUMPDEST JUMPDEST PUSH1 0x20 MUL PUSH1 0x20 ADD ADD MLOAD PUSH20 0xFFFFFFFFFFFFFFFFFFFFFFFFFFFFFFFFFFFFFFFF AND PUSH20 0xFFFFFFFFFFFFFFFFFFFFFFFFFFFFFFFFFFFFFFFF AND DUP2 MSTORE PUSH1 0x20 ADD SWAP1 DUP2 MSTORE PUSH1 0x20 ADD PUSH1 0x0 KECCAK256 PUSH1 0x0 PUSH2 0x100 EXP DUP2 SLOAD DUP2 PUSH1 0xFF MUL NOT AND SWAP1 DUP4 ISZERO ISZERO MUL OR SWAP1 SSTORE POP DUP1 DUP1 PUSH2 0x1317 SWAP1 PUSH2 0x355E JUMP JUMPDEST SWAP2 POP POP PUSH2 0x128F JUMP JUMPDEST POP PUSH1 0x1 SWAP1 POP SWAP11 SWAP10 POP POP POP POP POP POP POP POP POP POP JUMP JUMPDEST PUSH2 0x133A PUSH2 0x1423 JUMP JUMPDEST DUP1 PUSH20 0xFFFFFFFFFFFFFFFFFFFFFFFFFFFFFFFFFFFFFFFF AND PUSH1 0x4 PUSH1 0x0 SWAP1 SLOAD SWAP1 PUSH2 0x100 EXP SWAP1 DIV PUSH20 0xFFFFFFFFFFFFFFFFFFFFFFFFFFFFFFFFFFFFFFFF AND PUSH20 0xFFFFFFFFFFFFFFFFFFFFFFFFFFFFFFFFFFFFFFFF AND EQ PUSH2 0x1394 JUMPI PUSH1 0x0 DUP1 REVERT JUMPDEST PUSH2 0x139E DUP4 DUP4 PUSH2 0x1C17 JUMP JUMPDEST POP POP POP JUMP JUMPDEST PUSH1 0x0 DUP5 DUP7 PUSH1 0x0 ADD DUP2 SWAP1 SSTORE POP DUP4 DUP7 PUSH1 0x1 ADD PUSH1 0x0 PUSH2 0x100 EXP DUP2 SLOAD DUP2 PUSH20 0xFFFFFFFFFFFFFFFFFFFFFFFFFFFFFFFFFFFFFFFF MUL NOT AND SWAP1 DUP4 PUSH20 0xFFFFFFFFFFFFFFFFFFFFFFFFFFFFFFFFFFFFFFFF AND MUL OR SWAP1 SSTORE POP DUP3 DUP7 PUSH1 0x1 ADD PUSH1 0x14 PUSH2 0x100 EXP DUP2 SLOAD DUP2 PUSH1 0xFF MUL NOT AND SWAP1 DUP4 ISZERO ISZERO MUL OR SWAP1 SSTORE POP DUP2 DUP7 PUSH1 0x2 ADD DUP2 SWAP1 SSTORE POP PUSH1 0x1 SWAP1 POP SWAP6 SWAP5 POP POP POP POP POP JUMP JUMPDEST PUSH1 0x0 CALLER SWAP1 POP SWAP1 JUMP JUMPDEST PUSH1 0x0 DUP3 PUSH1 0x0 ADD PUSH1 0x0 DUP2 DUP2 SWAP1 SLOAD SWAP1 PUSH2 0x100 EXP SWAP1 DIV PUSH16 0xFFFFFFFFFFFFFFFFFFFFFFFFFFFFFFFF AND DUP1 SWAP3 SWAP2 SWAP1 PUSH2 0x145D SWAP1 PUSH2 0x34FA JUMP JUMPDEST SWAP2 SWAP1 PUSH2 0x100 EXP DUP2 SLOAD DUP2 PUSH16 0xFFFFFFFFFFFFFFFFFFFFFFFFFFFFFFFF MUL NOT AND SWAP1 DUP4 PUSH16 0xFFFFFFFFFFFFFFFFFFFFFFFFFFFFFFFF AND MUL OR SWAP1 SSTORE POP POP DUP2 DUP4 PUSH1 0x1 ADD PUSH1 0x0 DUP6 PUSH1 0x0 ADD PUSH1 0x0 SWAP1 SLOAD SWAP1 PUSH2 0x100 EXP SWAP1 DIV PUSH16 0xFFFFFFFFFFFFFFFFFFFFFFFFFFFFFFFF AND PUSH16 0xFFFFFFFFFFFFFFFFFFFFFFFFFFFFFFFF AND PUSH16 0xFFFFFFFFFFFFFFFFFFFFFFFFFFFFFFFF AND DUP2 MSTORE PUSH1 0x20 ADD SWAP1 DUP2 MSTORE PUSH1 0x20 ADD PUSH1 0x0 KECCAK256 DUP2 SWAP1 SSTORE POP PUSH1 0x1 SWAP1 POP SWAP3 SWAP2 POP POP JUMP JUMPDEST PUSH1 0x0 PUSH1 0x2 DUP6 PUSH1 0x0 ADD PUSH1 0x14 SWAP1 SLOAD SWAP1 PUSH2 0x100 EXP SWAP1 DIV PUSH1 0xFF AND PUSH1 0xFF AND EQ PUSH2 0x1555 JUMPI PUSH1 0x40 MLOAD PUSH32 0x8C379A000000000000000000000000000000000000000000000000000000000 DUP2 MSTORE PUSH1 0x4 ADD PUSH2 0x154C SWAP1 PUSH2 0x2C5A JUMP JUMPDEST PUSH1 0x40 MLOAD DUP1 SWAP2 SUB SWAP1 REVERT JUMPDEST DUP5 PUSH1 0x3 ADD SLOAD TIMESTAMP GT ISZERO PUSH2 0x17AB JUMPI PUSH1 0x2 DUP6 PUSH1 0x0 ADD PUSH1 0x14 PUSH2 0x100 EXP DUP2 SLOAD DUP2 PUSH1 0xFF MUL NOT AND SWAP1 DUP4 PUSH1 0xFF AND MUL OR SWAP1 SSTORE POP PUSH1 0x0 DUP6 PUSH1 0xA ADD DUP7 PUSH1 0x8 ADD PUSH1 0x0 PUSH1 0x1 DUP2 MSTORE PUSH1 0x20 ADD SWAP1 DUP2 MSTORE PUSH1 0x20 ADD PUSH1 0x0 KECCAK256 PUSH1 0x40 MLOAD PUSH2 0x15A8 SWAP2 SWAP1 PUSH2 0x2B90 JUMP JUMPDEST SWAP1 DUP2 MSTORE PUSH1 0x20 ADD PUSH1 0x40 MLOAD DUP1 SWAP2 SUB SWAP1 KECCAK256 SLOAD SWAP1 POP PUSH1 0x0 PUSH1 0x1 SWAP1 POP DUP7 PUSH1 0x8 ADD PUSH1 0x0 PUSH1 0x1 DUP2 MSTORE PUSH1 0x20 ADD SWAP1 DUP2 MSTORE PUSH1 0x20 ADD PUSH1 0x0 KECCAK256 DUP8 PUSH1 0x9 ADD PUSH1 0x0 PUSH1 0x1 DUP2 MSTORE PUSH1 0x20 ADD SWAP1 DUP2 MSTORE PUSH1 0x20 ADD PUSH1 0x0 KECCAK256 SWAP1 DUP1 SLOAD PUSH2 0x15F7 SWAP1 PUSH2 0x3497 JUMP JUMPDEST PUSH2 0x1602 SWAP3 SWAP2 SWAP1 PUSH2 0x1FD0 JUMP JUMPDEST POP PUSH1 0x0 PUSH1 0x2 SWAP1 POP JUMPDEST DUP8 PUSH1 0x4 ADD PUSH1 0x0 SWAP1 SLOAD SWAP1 PUSH2 0x100 EXP SWAP1 DIV PUSH2 0xFFFF AND PUSH2 0xFFFF AND DUP2 PUSH2 0xFFFF AND GT PUSH2 0x179F JUMPI DUP3 DUP9 PUSH1 0xA ADD DUP10 PUSH1 0x8 ADD PUSH1 0x0 DUP5 PUSH2 0xFFFF AND DUP2 MSTORE PUSH1 0x20 ADD SWAP1 DUP2 MSTORE PUSH1 0x20 ADD PUSH1 0x0 KECCAK256 PUSH1 0x40 MLOAD PUSH2 0x1656 SWAP2 SWAP1 PUSH2 0x2B90 JUMP JUMPDEST SWAP1 DUP2 MSTORE PUSH1 0x20 ADD PUSH1 0x40 MLOAD DUP1 SWAP2 SUB SWAP1 KECCAK256 SLOAD GT ISZERO PUSH2 0x16F6 JUMPI DUP8 PUSH1 0xA ADD DUP9 PUSH1 0x8 ADD PUSH1 0x0 DUP4 PUSH2 0xFFFF AND DUP2 MSTORE PUSH1 0x20 ADD SWAP1 DUP2 MSTORE PUSH1 0x20 ADD PUSH1 0x0 KECCAK256 PUSH1 0x40 MLOAD PUSH2 0x1695 SWAP2 SWAP1 PUSH2 0x2B90 JUMP JUMPDEST SWAP1 DUP2 MSTORE PUSH1 0x20 ADD PUSH1 0x40 MLOAD DUP1 SWAP2 SUB SWAP1 KECCAK256 SLOAD SWAP3 POP PUSH1 0x1 SWAP2 POP DUP8 PUSH1 0x8 ADD PUSH1 0x0 DUP3 PUSH2 0xFFFF AND DUP2 MSTORE PUSH1 0x20 ADD SWAP1 DUP2 MSTORE PUSH1 0x20 ADD PUSH1 0x0 KECCAK256 DUP9 PUSH1 0x9 ADD PUSH1 0x0 PUSH1 0x1 DUP2 MSTORE PUSH1 0x20 ADD SWAP1 DUP2 MSTORE PUSH1 0x20 ADD PUSH1 0x0 KECCAK256 SWAP1 DUP1 SLOAD PUSH2 0x16E5 SWAP1 PUSH2 0x3497 JUMP JUMPDEST PUSH2 0x16F0 SWAP3 SWAP2 SWAP1 PUSH2 0x1FD0 JUMP JUMPDEST POP PUSH2 0x178C JUMP JUMPDEST DUP3 DUP9 PUSH1 0xA ADD DUP10 PUSH1 0x8 ADD PUSH1 0x0 DUP5 PUSH2 0xFFFF AND DUP2 MSTORE PUSH1 0x20 ADD SWAP1 DUP2 MSTORE PUSH1 0x20 ADD PUSH1 0x0 KECCAK256 PUSH1 0x40 MLOAD PUSH2 0x1721 SWAP2 SWAP1 PUSH2 0x2B90 JUMP JUMPDEST SWAP1 DUP2 MSTORE PUSH1 0x20 ADD PUSH1 0x40 MLOAD DUP1 SWAP2 SUB SWAP1 KECCAK256 SLOAD EQ ISZERO PUSH2 0x178B JUMPI DUP2 DUP1 PUSH2 0x1741 SWAP1 PUSH2 0x355E JUMP JUMPDEST SWAP3 POP POP DUP8 PUSH1 0x8 ADD PUSH1 0x0 DUP3 PUSH2 0xFFFF AND DUP2 MSTORE PUSH1 0x20 ADD SWAP1 DUP2 MSTORE PUSH1 0x20 ADD PUSH1 0x0 KECCAK256 DUP9 PUSH1 0x9 ADD PUSH1 0x0 DUP5 DUP2 MSTORE PUSH1 0x20 ADD SWAP1 DUP2 MSTORE PUSH1 0x20 ADD PUSH1 0x0 KECCAK256 SWAP1 DUP1 SLOAD PUSH2 0x177E SWAP1 PUSH2 0x3497 JUMP JUMPDEST PUSH2 0x1789 SWAP3 SWAP2 SWAP1 PUSH2 0x1FD0 JUMP JUMPDEST POP JUMPDEST JUMPDEST DUP1 DUP1 PUSH2 0x1797 SWAP1 PUSH2 0x3533 JUMP JUMPDEST SWAP2 POP POP PUSH2 0x160A JUMP JUMPDEST POP PUSH1 0x0 SWAP3 POP POP POP PUSH2 0x1963 JUMP JUMPDEST DUP5 PUSH1 0x6 ADD PUSH1 0x0 DUP6 PUSH20 0xFFFFFFFFFFFFFFFFFFFFFFFFFFFFFFFFFFFFFFFF AND PUSH20 0xFFFFFFFFFFFFFFFFFFFFFFFFFFFFFFFFFFFFFFFF AND DUP2 MSTORE PUSH1 0x20 ADD SWAP1 DUP2 MSTORE PUSH1 0x20 ADD PUSH1 0x0 KECCAK256 PUSH1 0x0 SWAP1 SLOAD SWAP1 PUSH2 0x100 EXP SWAP1 DIV PUSH1 0xFF AND PUSH2 0x1839 JUMPI PUSH1 0x40 MLOAD PUSH32 0x8C379A000000000000000000000000000000000000000000000000000000000 DUP2 MSTORE PUSH1 0x4 ADD PUSH2 0x1830 SWAP1 PUSH2 0x2D5A JUMP JUMPDEST PUSH1 0x40 MLOAD DUP1 SWAP2 SUB SWAP1 REVERT JUMPDEST PUSH1 0x0 JUMPDEST DUP6 PUSH1 0x4 ADD PUSH1 0x0 SWAP1 SLOAD SWAP1 PUSH2 0x100 EXP SWAP1 DIV PUSH2 0xFFFF AND PUSH2 0xFFFF AND DUP2 PUSH2 0xFFFF AND LT ISZERO PUSH2 0x195D JUMPI DUP6 PUSH1 0x7 ADD DUP5 DUP3 PUSH2 0xFFFF AND DUP2 MLOAD DUP2 LT PUSH2 0x1879 JUMPI PUSH2 0x1878 PUSH2 0x3605 JUMP JUMPDEST JUMPDEST PUSH1 0x20 MUL PUSH1 0x20 ADD ADD MLOAD PUSH1 0x40 MLOAD PUSH2 0x188E SWAP2 SWAP1 PUSH2 0x2B79 JUMP JUMPDEST SWAP1 DUP2 MSTORE PUSH1 0x20 ADD PUSH1 0x40 MLOAD DUP1 SWAP2 SUB SWAP1 KECCAK256 PUSH1 0x0 SWAP1 SLOAD SWAP1 PUSH2 0x100 EXP SWAP1 DIV PUSH1 0xFF AND PUSH2 0x18E9 JUMPI PUSH1 0x40 MLOAD PUSH32 0x8C379A000000000000000000000000000000000000000000000000000000000 DUP2 MSTORE PUSH1 0x4 ADD PUSH2 0x18E0 SWAP1 PUSH2 0x2CDA JUMP JUMPDEST PUSH1 0x40 MLOAD DUP1 SWAP2 SUB SWAP1 REVERT JUMPDEST DUP3 DUP2 PUSH2 0xFFFF AND DUP2 MLOAD DUP2 LT PUSH2 0x1900 JUMPI PUSH2 0x18FF PUSH2 0x3605 JUMP JUMPDEST JUMPDEST PUSH1 0x20 MUL PUSH1 0x20 ADD ADD MLOAD DUP7 PUSH1 0xA ADD DUP6 DUP4 PUSH2 0xFFFF AND DUP2 MLOAD DUP2 LT PUSH2 0x1923 JUMPI PUSH2 0x1922 PUSH2 0x3605 JUMP JUMPDEST JUMPDEST PUSH1 0x20 MUL PUSH1 0x20 ADD ADD MLOAD PUSH1 0x40 MLOAD PUSH2 0x1938 SWAP2 SWAP1 PUSH2 0x2B79 JUMP JUMPDEST SWAP1 DUP2 MSTORE PUSH1 0x20 ADD PUSH1 0x40 MLOAD DUP1 SWAP2 SUB SWAP1 KECCAK256 DUP2 SWAP1 SSTORE POP DUP1 DUP1 PUSH2 0x1955 SWAP1 PUSH2 0x3533 JUMP JUMPDEST SWAP2 POP POP PUSH2 0x183C JUMP JUMPDEST POP PUSH1 0x1 SWAP1 POP JUMPDEST SWAP5 SWAP4 POP POP POP POP JUMP JUMPDEST PUSH1 0x0 DUP4 PUSH1 0x0 ADD PUSH1 0x10 DUP2 DUP2 SWAP1 SLOAD SWAP1 PUSH2 0x100 EXP SWAP1 DIV PUSH16 0xFFFFFFFFFFFFFFFFFFFFFFFFFFFFFFFF AND DUP1 SWAP3 SWAP2 SWAP1 PUSH2 0x199D SWAP1 PUSH2 0x34FA JUMP JUMPDEST SWAP2 SWAP1 PUSH2 0x100 EXP DUP2 SLOAD DUP2 PUSH16 0xFFFFFFFFFFFFFFFFFFFFFFFFFFFFFFFF MUL NOT AND SWAP1 DUP4 PUSH16 0xFFFFFFFFFFFFFFFFFFFFFFFFFFFFFFFF AND MUL OR SWAP1 SSTORE POP POP DUP3 DUP5 PUSH1 0x2 ADD PUSH1 0x0 DUP7 PUSH1 0x0 ADD PUSH1 0x10 SWAP1 SLOAD SWAP1 PUSH2 0x100 EXP SWAP1 DIV PUSH16 0xFFFFFFFFFFFFFFFFFFFFFFFFFFFFFFFF AND PUSH16 0xFFFFFFFFFFFFFFFFFFFFFFFFFFFFFFFF AND PUSH16 0xFFFFFFFFFFFFFFFFFFFFFFFFFFFFFFFF AND DUP2 MSTORE PUSH1 0x20 ADD SWAP1 DUP2 MSTORE PUSH1 0x20 ADD PUSH1 0x0 KECCAK256 DUP2 SWAP1 SSTORE POP PUSH1 0x0 JUMPDEST DUP3 MLOAD DUP2 PUSH2 0xFFFF AND LT ISZERO PUSH2 0x1ABE JUMPI DUP3 DUP2 PUSH2 0xFFFF AND DUP2 MLOAD DUP2 LT PUSH2 0x1A59 JUMPI PUSH2 0x1A58 PUSH2 0x3605 JUMP JUMPDEST JUMPDEST PUSH1 0x20 MUL PUSH1 0x20 ADD ADD MLOAD DUP6 PUSH1 0x3 ADD PUSH1 0x0 DUP7 DUP2 MSTORE PUSH1 0x20 ADD SWAP1 DUP2 MSTORE PUSH1 0x20 ADD PUSH1 0x0 KECCAK256 PUSH1 0x0 PUSH1 0x1 DUP5 PUSH2 0x1A85 SWAP2 SWAP1 PUSH2 0x32BA JUMP JUMPDEST PUSH2 0xFFFF AND DUP2 MSTORE PUSH1 0x20 ADD SWAP1 DUP2 MSTORE PUSH1 0x20 ADD PUSH1 0x0 KECCAK256 SWAP1 DUP1 MLOAD SWAP1 PUSH1 0x20 ADD SWAP1 PUSH2 0x1AAA SWAP3 SWAP2 SWAP1 PUSH2 0x1EC4 JUMP JUMPDEST POP DUP1 DUP1 PUSH2 0x1AB6 SWAP1 PUSH2 0x3533 JUMP JUMPDEST SWAP2 POP POP PUSH2 0x1A35 JUMP JUMPDEST POP PUSH1 0x1 DUP5 PUSH1 0x4 ADD PUSH1 0x0 DUP6 DUP2 MSTORE PUSH1 0x20 ADD SWAP1 DUP2 MSTORE PUSH1 0x20 ADD PUSH1 0x0 KECCAK256 PUSH1 0x0 PUSH2 0x100 EXP DUP2 SLOAD DUP2 PUSH1 0xFF MUL NOT AND SWAP1 DUP4 ISZERO ISZERO MUL OR SWAP1 SSTORE POP PUSH1 0x1 SWAP1 POP SWAP4 SWAP3 POP POP POP JUMP JUMPDEST PUSH1 0x0 DUP1 DUP3 PUSH1 0x0 ADD SLOAD EQ ISZERO PUSH2 0x1B41 JUMPI PUSH1 0x40 MLOAD PUSH32 0x8C379A000000000000000000000000000000000000000000000000000000000 DUP2 MSTORE PUSH1 0x4 ADD PUSH2 0x1B38 SWAP1 PUSH2 0x2E76 JUMP JUMPDEST PUSH1 0x40 MLOAD DUP1 SWAP2 SUB SWAP1 REVERT JUMPDEST DUP2 PUSH1 0x1 ADD PUSH1 0x14 SWAP1 SLOAD SWAP1 PUSH2 0x100 EXP SWAP1 DIV PUSH1 0xFF AND ISZERO PUSH2 0x1B93 JUMPI PUSH1 0x40 MLOAD PUSH32 0x8C379A000000000000000000000000000000000000000000000000000000000 DUP2 MSTORE PUSH1 0x4 ADD PUSH2 0x1B8A SWAP1 PUSH2 0x2ED2 JUMP JUMPDEST PUSH1 0x40 MLOAD DUP1 SWAP2 SUB SWAP1 REVERT JUMPDEST PUSH1 0x0 DUP3 PUSH1 0x2 ADD DUP2 SWAP1 SSTORE POP PUSH1 0x1 SWAP1 POP SWAP2 SWAP1 POP JUMP JUMPDEST PUSH2 0x1BAE PUSH2 0x1423 JUMP JUMPDEST DUP1 PUSH20 0xFFFFFFFFFFFFFFFFFFFFFFFFFFFFFFFFFFFFFFFF AND PUSH1 0x4 PUSH1 0x0 SWAP1 SLOAD SWAP1 PUSH2 0x100 EXP SWAP1 DIV PUSH20 0xFFFFFFFFFFFFFFFFFFFFFFFFFFFFFFFFFFFFFFFF AND PUSH20 0xFFFFFFFFFFFFFFFFFFFFFFFFFFFFFFFFFFFFFFFF AND EQ PUSH2 0x1C08 JUMPI PUSH1 0x0 DUP1 REVERT JUMPDEST PUSH2 0x1C12 DUP4 DUP4 PUSH2 0x1D32 JUMP JUMPDEST POP POP POP JUMP JUMPDEST PUSH1 0x0 PUSH20 0xFFFFFFFFFFFFFFFFFFFFFFFFFFFFFFFFFFFFFFFF AND DUP3 PUSH20 0xFFFFFFFFFFFFFFFFFFFFFFFFFFFFFFFFFFFFFFFF AND EQ ISZERO PUSH2 0x1C87 JUMPI PUSH1 0x40 MLOAD PUSH32 0x8C379A000000000000000000000000000000000000000000000000000000000 DUP2 MSTORE PUSH1 0x4 ADD PUSH2 0x1C7E SWAP1 PUSH2 0x2EF2 JUMP JUMPDEST PUSH1 0x40 MLOAD DUP1 SWAP2 SUB SWAP1 REVERT JUMPDEST DUP1 PUSH1 0x1 PUSH1 0x0 DUP3 DUP3 SLOAD PUSH2 0x1C99 SWAP2 SWAP1 PUSH2 0x32F2 JUMP JUMPDEST SWAP3 POP POP DUP2 SWAP1 SSTORE POP DUP1 PUSH1 0x0 DUP1 DUP5 PUSH20 0xFFFFFFFFFFFFFFFFFFFFFFFFFFFFFFFFFFFFFFFF AND PUSH20 0xFFFFFFFFFFFFFFFFFFFFFFFFFFFFFFFFFFFFFFFF AND DUP2 MSTORE PUSH1 0x20 ADD SWAP1 DUP2 MSTORE PUSH1 0x20 ADD PUSH1 0x0 KECCAK256 PUSH1 0x0 DUP3 DUP3 SLOAD PUSH2 0x1CEE SWAP2 SWAP1 PUSH2 0x32F2 JUMP JUMPDEST SWAP3 POP POP DUP2 SWAP1 SSTORE POP PUSH32 0xABF5327BE9F5825C40D58BDA541DD07F09B62DF3376BBD5ECDBAA8BD82A9D492 DUP3 DUP3 PUSH1 0x40 MLOAD PUSH2 0x1D26 SWAP3 SWAP2 SWAP1 PUSH2 0x2E3A JUMP JUMPDEST PUSH1 0x40 MLOAD DUP1 SWAP2 SUB SWAP1 LOG1 POP POP JUMP JUMPDEST PUSH1 0x0 PUSH20 0xFFFFFFFFFFFFFFFFFFFFFFFFFFFFFFFFFFFFFFFF AND DUP3 PUSH20 0xFFFFFFFFFFFFFFFFFFFFFFFFFFFFFFFFFFFFFFFF AND EQ ISZERO PUSH2 0x1DA2 JUMPI PUSH1 0x40 MLOAD PUSH32 0x8C379A000000000000000000000000000000000000000000000000000000000 DUP2 MSTORE PUSH1 0x4 ADD PUSH2 0x1D99 SWAP1 PUSH2 0x2DDA JUMP JUMPDEST PUSH1 0x40 MLOAD DUP1 SWAP2 SUB SWAP1 REVERT JUMPDEST PUSH1 0x0 DUP1 PUSH1 0x0 DUP5 PUSH20 0xFFFFFFFFFFFFFFFFFFFFFFFFFFFFFFFFFFFFFFFF AND PUSH20 0xFFFFFFFFFFFFFFFFFFFFFFFFFFFFFFFFFFFFFFFF AND DUP2 MSTORE PUSH1 0x20 ADD SWAP1 DUP2 MSTORE PUSH1 0x20 ADD PUSH1 0x0 KECCAK256 SLOAD SWAP1 POP DUP2 DUP2 LT ISZERO PUSH2 0x1E28 JUMPI PUSH1 0x40 MLOAD PUSH32 0x8C379A000000000000000000000000000000000000000000000000000000000 DUP2 MSTORE PUSH1 0x4 ADD PUSH2 0x1E1F SWAP1 PUSH2 0x2C9A JUMP JUMPDEST PUSH1 0x40 MLOAD DUP1 SWAP2 SUB SWAP1 REVERT JUMPDEST DUP2 DUP2 SUB PUSH1 0x0 DUP1 DUP6 PUSH20 0xFFFFFFFFFFFFFFFFFFFFFFFFFFFFFFFFFFFFFFFF AND PUSH20 0xFFFFFFFFFFFFFFFFFFFFFFFFFFFFFFFFFFFFFFFF AND DUP2 MSTORE PUSH1 0x20 ADD SWAP1 DUP2 MSTORE PUSH1 0x20 ADD PUSH1 0x0 KECCAK256 DUP2 SWAP1 SSTORE POP DUP2 PUSH1 0x1 PUSH1 0x0 DUP3 DUP3 SLOAD PUSH2 0x1E7F SWAP2 SWAP1 PUSH2 0x33A2 JUMP JUMPDEST SWAP3 POP POP DUP2 SWAP1 SSTORE POP PUSH32 0xABF5327BE9F5825C40D58BDA541DD07F09B62DF3376BBD5ECDBAA8BD82A9D492 DUP4 DUP4 PUSH1 0x40 MLOAD PUSH2 0x1EB7 SWAP3 SWAP2 SWAP1 PUSH2 0x2E96 JUMP JUMPDEST PUSH1 0x40 MLOAD DUP1 SWAP2 SUB SWAP1 LOG1 POP POP POP JUMP JUMPDEST DUP3 DUP1 SLOAD PUSH2 0x1ED0 SWAP1 PUSH2 0x3497 JUMP JUMPDEST SWAP1 PUSH1 0x0 MSTORE PUSH1 0x20 PUSH1 0x0 KECCAK256 SWAP1 PUSH1 0x1F ADD PUSH1 0x20 SWAP1 DIV DUP2 ADD SWAP3 DUP3 PUSH2 0x1EF2 JUMPI PUSH1 0x0 DUP6 SSTORE PUSH2 0x1F39 JUMP JUMPDEST DUP3 PUSH1 0x1F LT PUSH2 0x1F0B JUMPI DUP1 MLOAD PUSH1 0xFF NOT AND DUP4 DUP1 ADD OR DUP6 SSTORE PUSH2 0x1F39 JUMP JUMPDEST DUP3 DUP1 ADD PUSH1 0x1 ADD DUP6 SSTORE DUP3 ISZERO PUSH2 0x1F39 JUMPI SWAP2 DUP3 ADD JUMPDEST DUP3 DUP2 GT ISZERO PUSH2 0x1F38 JUMPI DUP3 MLOAD DUP3 SSTORE SWAP2 PUSH1 0x20 ADD SWAP2 SWAP1 PUSH1 0x1 ADD SWAP1 PUSH2 0x1F1D JUMP JUMPDEST JUMPDEST POP SWAP1 POP PUSH2 0x1F46 SWAP2 SWAP1 PUSH2 0x205D JUMP JUMPDEST POP SWAP1 JUMP JUMPDEST DUP3 DUP1 SLOAD PUSH2 0x1F56 SWAP1 PUSH2 0x3497 JUMP JUMPDEST SWAP1 PUSH1 0x0 MSTORE PUSH1 0x20 PUSH1 0x0 KECCAK256 SWAP1 PUSH1 0x1F ADD PUSH1 0x20 SWAP1 DIV DUP2 ADD SWAP3 DUP3 PUSH2 0x1F78 JUMPI PUSH1 0x0 DUP6 SSTORE PUSH2 0x1FBF JUMP JUMPDEST DUP3 PUSH1 0x1F LT PUSH2 0x1F91 JUMPI DUP1 CALLDATALOAD PUSH1 0xFF NOT AND DUP4 DUP1 ADD OR DUP6 SSTORE PUSH2 0x1FBF JUMP JUMPDEST DUP3 DUP1 ADD PUSH1 0x1 ADD DUP6 SSTORE DUP3 ISZERO PUSH2 0x1FBF JUMPI SWAP2 DUP3 ADD JUMPDEST DUP3 DUP2 GT ISZERO PUSH2 0x1FBE JUMPI DUP3 CALLDATALOAD DUP3 SSTORE SWAP2 PUSH1 0x20 ADD SWAP2 SWAP1 PUSH1 0x1 ADD SWAP1 PUSH2 0x1FA3 JUMP JUMPDEST JUMPDEST POP SWAP1 POP PUSH2 0x1FCC SWAP2 SWAP1 PUSH2 0x205D JUMP JUMPDEST POP SWAP1 JUMP JUMPDEST DUP3 DUP1 SLOAD PUSH2 0x1FDC SWAP1 PUSH2 0x3497 JUMP JUMPDEST SWAP1 PUSH1 0x0 MSTORE PUSH1 0x20 PUSH1 0x0 KECCAK256 SWAP1 PUSH1 0x1F ADD PUSH1 0x20 SWAP1 DIV DUP2 ADD SWAP3 DUP3 PUSH2 0x1FFE JUMPI PUSH1 0x0 DUP6 SSTORE PUSH2 0x204C JUMP JUMPDEST DUP3 PUSH1 0x1F LT PUSH2 0x200F JUMPI DUP1 SLOAD DUP6 SSTORE PUSH2 0x204C JUMP JUMPDEST DUP3 DUP1 ADD PUSH1 0x1 ADD DUP6 SSTORE DUP3 ISZERO PUSH2 0x204C JUMPI PUSH1 0x0 MSTORE PUSH1 0x20 PUSH1 0x0 KECCAK256 SWAP2 PUSH1 0x1F ADD PUSH1 0x20 SWAP1 DIV DUP3 ADD JUMPDEST DUP3 DUP2 GT ISZERO PUSH2 0x204B JUMPI DUP3 SLOAD DUP3 SSTORE SWAP2 PUSH1 0x1 ADD SWAP2 SWAP1 PUSH1 0x1 ADD SWAP1 PUSH2 0x2030 JUMP JUMPDEST JUMPDEST POP SWAP1 POP PUSH2 0x2059 SWAP2 SWAP1 PUSH2 0x205D JUMP JUMPDEST POP SWAP1 JUMP JUMPDEST JUMPDEST DUP1 DUP3 GT ISZERO PUSH2 0x2076 JUMPI PUSH1 0x0 DUP2 PUSH1 0x0 SWAP1 SSTORE POP PUSH1 0x1 ADD PUSH2 0x205E JUMP JUMPDEST POP SWAP1 JUMP JUMPDEST PUSH1 0x0 PUSH2 0x208D PUSH2 0x2088 DUP5 PUSH2 0x30F4 JUMP JUMPDEST PUSH2 0x30CF JUMP JUMPDEST SWAP1 POP DUP1 DUP4 DUP3 MSTORE PUSH1 0x20 DUP3 ADD SWAP1 POP DUP3 DUP6 PUSH1 0x20 DUP7 MUL DUP3 ADD GT ISZERO PUSH2 0x20B0 JUMPI PUSH2 0x20AF PUSH2 0x3681 JUMP JUMPDEST JUMPDEST PUSH1 0x0 JUMPDEST DUP6 DUP2 LT ISZERO PUSH2 0x20E0 JUMPI DUP2 PUSH2 0x20C6 DUP9 DUP3 PUSH2 0x222A JUMP JUMPDEST DUP5 MSTORE PUSH1 0x20 DUP5 ADD SWAP4 POP PUSH1 0x20 DUP4 ADD SWAP3 POP POP PUSH1 0x1 DUP2 ADD SWAP1 POP PUSH2 0x20B3 JUMP JUMPDEST POP POP POP SWAP4 SWAP3 POP POP POP JUMP JUMPDEST PUSH1 0x0 PUSH2 0x20FD PUSH2 0x20F8 DUP5 PUSH2 0x3120 JUMP JUMPDEST PUSH2 0x30CF JUMP JUMPDEST SWAP1 POP DUP1 DUP4 DUP3 MSTORE PUSH1 0x20 DUP3 ADD SWAP1 POP DUP3 DUP6 PUSH1 0x20 DUP7 MUL DUP3 ADD GT ISZERO PUSH2 0x2120 JUMPI PUSH2 0x211F PUSH2 0x3681 JUMP JUMPDEST JUMPDEST PUSH1 0x0 JUMPDEST DUP6 DUP2 LT ISZERO PUSH2 0x216E JUMPI DUP2 CALLDATALOAD PUSH8 0xFFFFFFFFFFFFFFFF DUP2 GT ISZERO PUSH2 0x2146 JUMPI PUSH2 0x2145 PUSH2 0x366D JUMP JUMPDEST JUMPDEST DUP1 DUP7 ADD PUSH2 0x2153 DUP10 DUP3 PUSH2 0x231F JUMP JUMPDEST DUP6 MSTORE PUSH1 0x20 DUP6 ADD SWAP5 POP PUSH1 0x20 DUP5 ADD SWAP4 POP POP POP PUSH1 0x1 DUP2 ADD SWAP1 POP PUSH2 0x2123 JUMP JUMPDEST POP POP POP SWAP4 SWAP3 POP POP POP JUMP JUMPDEST PUSH1 0x0 PUSH2 0x218B PUSH2 0x2186 DUP5 PUSH2 0x314C JUMP JUMPDEST PUSH2 0x30CF JUMP JUMPDEST SWAP1 POP DUP1 DUP4 DUP3 MSTORE PUSH1 0x20 DUP3 ADD SWAP1 POP DUP3 DUP6 PUSH1 0x20 DUP7 MUL DUP3 ADD GT ISZERO PUSH2 0x21AE JUMPI PUSH2 0x21AD PUSH2 0x3681 JUMP JUMPDEST JUMPDEST PUSH1 0x0 JUMPDEST DUP6 DUP2 LT ISZERO PUSH2 0x21DE JUMPI DUP2 PUSH2 0x21C4 DUP9 DUP3 PUSH2 0x234D JUMP JUMPDEST DUP5 MSTORE PUSH1 0x20 DUP5 ADD SWAP4 POP PUSH1 0x20 DUP4 ADD SWAP3 POP POP PUSH1 0x1 DUP2 ADD SWAP1 POP PUSH2 0x21B1 JUMP JUMPDEST POP POP POP SWAP4 SWAP3 POP POP POP JUMP JUMPDEST PUSH1 0x0 PUSH2 0x21FB PUSH2 0x21F6 DUP5 PUSH2 0x3178 JUMP JUMPDEST PUSH2 0x30CF JUMP JUMPDEST SWAP1 POP DUP3 DUP2 MSTORE PUSH1 0x20 DUP2 ADD DUP5 DUP5 DUP5 ADD GT ISZERO PUSH2 0x2217 JUMPI PUSH2 0x2216 PUSH2 0x368B JUMP JUMPDEST JUMPDEST PUSH2 0x2222 DUP5 DUP3 DUP6 PUSH2 0x3455 JUMP JUMPDEST POP SWAP4 SWAP3 POP POP POP JUMP JUMPDEST PUSH1 0x0 DUP2 CALLDATALOAD SWAP1 POP PUSH2 0x2239 DUP2 PUSH2 0x3B14 JUMP JUMPDEST SWAP3 SWAP2 POP POP JUMP JUMPDEST PUSH1 0x0 DUP3 PUSH1 0x1F DUP4 ADD SLT PUSH2 0x2254 JUMPI PUSH2 0x2253 PUSH2 0x366D JUMP JUMPDEST JUMPDEST DUP2 CALLDATALOAD PUSH2 0x2264 DUP5 DUP3 PUSH1 0x20 DUP7 ADD PUSH2 0x207A JUMP JUMPDEST SWAP2 POP POP SWAP3 SWAP2 POP POP JUMP JUMPDEST PUSH1 0x0 DUP1 DUP4 PUSH1 0x1F DUP5 ADD SLT PUSH2 0x2283 JUMPI PUSH2 0x2282 PUSH2 0x366D JUMP JUMPDEST JUMPDEST DUP3 CALLDATALOAD SWAP1 POP PUSH8 0xFFFFFFFFFFFFFFFF DUP2 GT ISZERO PUSH2 0x22A0 JUMPI PUSH2 0x229F PUSH2 0x3668 JUMP JUMPDEST JUMPDEST PUSH1 0x20 DUP4 ADD SWAP2 POP DUP4 PUSH1 0x20 DUP3 MUL DUP4 ADD GT ISZERO PUSH2 0x22BC JUMPI PUSH2 0x22BB PUSH2 0x3681 JUMP JUMPDEST JUMPDEST SWAP3 POP SWAP3 SWAP1 POP JUMP JUMPDEST PUSH1 0x0 DUP3 PUSH1 0x1F DUP4 ADD SLT PUSH2 0x22D8 JUMPI PUSH2 0x22D7 PUSH2 0x366D JUMP JUMPDEST JUMPDEST DUP2 CALLDATALOAD PUSH2 0x22E8 DUP5 DUP3 PUSH1 0x20 DUP7 ADD PUSH2 0x20EA JUMP JUMPDEST SWAP2 POP POP SWAP3 SWAP2 POP POP JUMP JUMPDEST PUSH1 0x0 DUP3 PUSH1 0x1F DUP4 ADD SLT PUSH2 0x2306 JUMPI PUSH2 0x2305 PUSH2 0x366D JUMP JUMPDEST JUMPDEST DUP2 CALLDATALOAD PUSH2 0x2316 DUP5 DUP3 PUSH1 0x20 DUP7 ADD PUSH2 0x2178 JUMP JUMPDEST SWAP2 POP POP SWAP3 SWAP2 POP POP JUMP JUMPDEST PUSH1 0x0 DUP3 PUSH1 0x1F DUP4 ADD SLT PUSH2 0x2334 JUMPI PUSH2 0x2333 PUSH2 0x366D JUMP JUMPDEST JUMPDEST DUP2 CALLDATALOAD PUSH2 0x2344 DUP5 DUP3 PUSH1 0x20 DUP7 ADD PUSH2 0x21E8 JUMP JUMPDEST SWAP2 POP POP SWAP3 SWAP2 POP POP JUMP JUMPDEST PUSH1 0x0 DUP2 CALLDATALOAD SWAP1 POP PUSH2 0x235C DUP2 PUSH2 0x3B2B JUMP JUMPDEST SWAP3 SWAP2 POP POP JUMP JUMPDEST PUSH1 0x0 DUP2 CALLDATALOAD SWAP1 POP PUSH2 0x2371 DUP2 PUSH2 0x3B42 JUMP JUMPDEST SWAP3 SWAP2 POP POP JUMP JUMPDEST PUSH1 0x0 PUSH1 0x20 DUP3 DUP5 SUB SLT ISZERO PUSH2 0x238D JUMPI PUSH2 0x238C PUSH2 0x369A JUMP JUMPDEST JUMPDEST PUSH1 0x0 PUSH2 0x239B DUP5 DUP3 DUP6 ADD PUSH2 0x222A JUMP JUMPDEST SWAP2 POP POP SWAP3 SWAP2 POP POP JUMP JUMPDEST PUSH1 0x0 DUP1 PUSH1 0x40 DUP4 DUP6 SUB SLT ISZERO PUSH2 0x23BB JUMPI PUSH2 0x23BA PUSH2 0x369A JUMP JUMPDEST JUMPDEST PUSH1 0x0 PUSH2 0x23C9 DUP6 DUP3 DUP7 ADD PUSH2 0x222A JUMP JUMPDEST SWAP3 POP POP PUSH1 0x20 PUSH2 0x23DA DUP6 DUP3 DUP7 ADD PUSH2 0x234D JUMP JUMPDEST SWAP2 POP POP SWAP3 POP SWAP3 SWAP1 POP JUMP JUMPDEST PUSH1 0x0 PUSH1 0x20 DUP3 DUP5 SUB SLT ISZERO PUSH2 0x23FA JUMPI PUSH2 0x23F9 PUSH2 0x369A JUMP JUMPDEST JUMPDEST PUSH1 0x0 PUSH2 0x2408 DUP5 DUP3 DUP6 ADD PUSH2 0x234D JUMP JUMPDEST SWAP2 POP POP SWAP3 SWAP2 POP POP JUMP JUMPDEST PUSH1 0x0 DUP1 PUSH1 0x40 DUP4 DUP6 SUB SLT ISZERO PUSH2 0x2428 JUMPI PUSH2 0x2427 PUSH2 0x369A JUMP JUMPDEST JUMPDEST PUSH1 0x0 PUSH2 0x2436 DUP6 DUP3 DUP7 ADD PUSH2 0x234D JUMP JUMPDEST SWAP3 POP POP PUSH1 0x20 PUSH2 0x2447 DUP6 DUP3 DUP7 ADD PUSH2 0x222A JUMP JUMPDEST SWAP2 POP POP SWAP3 POP SWAP3 SWAP1 POP JUMP JUMPDEST PUSH1 0x0 DUP1 PUSH1 0x0 DUP1 PUSH1 0x80 DUP6 DUP8 SUB SLT ISZERO PUSH2 0x246B JUMPI PUSH2 0x246A PUSH2 0x369A JUMP JUMPDEST JUMPDEST PUSH1 0x0 PUSH2 0x2479 DUP8 DUP3 DUP9 ADD PUSH2 0x234D JUMP JUMPDEST SWAP5 POP POP PUSH1 0x20 PUSH2 0x248A DUP8 DUP3 DUP9 ADD PUSH2 0x222A JUMP JUMPDEST SWAP4 POP POP PUSH1 0x40 DUP6 ADD CALLDATALOAD PUSH8 0xFFFFFFFFFFFFFFFF DUP2 GT ISZERO PUSH2 0x24AB JUMPI PUSH2 0x24AA PUSH2 0x3690 JUMP JUMPDEST JUMPDEST PUSH2 0x24B7 DUP8 DUP3 DUP9 ADD PUSH2 0x22C3 JUMP JUMPDEST SWAP3 POP POP PUSH1 0x60 DUP6 ADD CALLDATALOAD PUSH8 0xFFFFFFFFFFFFFFFF DUP2 GT ISZERO PUSH2 0x24D8 JUMPI PUSH2 0x24D7 PUSH2 0x3690 JUMP JUMPDEST JUMPDEST PUSH2 0x24E4 DUP8 DUP3 DUP9 ADD PUSH2 0x22F1 JUMP JUMPDEST SWAP2 POP POP SWAP3 SWAP6 SWAP2 SWAP5 POP SWAP3 POP JUMP JUMPDEST PUSH1 0x0 DUP1 PUSH1 0x0 DUP1 PUSH1 0x0 DUP1 PUSH1 0x0 DUP1 PUSH1 0x0 PUSH2 0x100 DUP11 DUP13 SUB SLT ISZERO PUSH2 0x2513 JUMPI PUSH2 0x2512 PUSH2 0x369A JUMP JUMPDEST JUMPDEST PUSH1 0x0 PUSH2 0x2521 DUP13 DUP3 DUP14 ADD PUSH2 0x2362 JUMP JUMPDEST SWAP10 POP POP PUSH1 0x20 DUP11 ADD CALLDATALOAD PUSH8 0xFFFFFFFFFFFFFFFF DUP2 GT ISZERO PUSH2 0x2542 JUMPI PUSH2 0x2541 PUSH2 0x3690 JUMP JUMPDEST JUMPDEST PUSH2 0x254E DUP13 DUP3 DUP14 ADD PUSH2 0x223F JUMP JUMPDEST SWAP9 POP POP PUSH1 0x40 PUSH2 0x255F DUP13 DUP3 DUP14 ADD PUSH2 0x222A JUMP JUMPDEST SWAP8 POP POP PUSH1 0x60 PUSH2 0x2570 DUP13 DUP3 DUP14 ADD PUSH2 0x234D JUMP JUMPDEST SWAP7 POP POP PUSH1 0x80 PUSH2 0x2581 DUP13 DUP3 DUP14 ADD PUSH2 0x234D JUMP JUMPDEST SWAP6 POP POP PUSH1 0xA0 DUP11 ADD CALLDATALOAD PUSH8 0xFFFFFFFFFFFFFFFF DUP2 GT ISZERO PUSH2 0x25A2 JUMPI PUSH2 0x25A1 PUSH2 0x3690 JUMP JUMPDEST JUMPDEST PUSH2 0x25AE DUP13 DUP3 DUP14 ADD PUSH2 0x231F JUMP JUMPDEST SWAP5 POP POP PUSH1 0xC0 DUP11 ADD CALLDATALOAD PUSH8 0xFFFFFFFFFFFFFFFF DUP2 GT ISZERO PUSH2 0x25CF JUMPI PUSH2 0x25CE PUSH2 0x3690 JUMP JUMPDEST JUMPDEST PUSH2 0x25DB DUP13 DUP3 DUP14 ADD PUSH2 0x226D JUMP JUMPDEST SWAP4 POP SWAP4 POP POP PUSH1 0xE0 PUSH2 0x25EE DUP13 DUP3 DUP14 ADD PUSH2 0x234D JUMP JUMPDEST SWAP2 POP POP SWAP3 SWAP6 SWAP9 POP SWAP3 SWAP6 SWAP9 POP SWAP3 SWAP6 SWAP9 JUMP JUMPDEST PUSH1 0x0 PUSH2 0x260A DUP4 DUP4 PUSH2 0x262C JUMP JUMPDEST PUSH1 0x20 DUP4 ADD SWAP1 POP SWAP3 SWAP2 POP POP JUMP JUMPDEST PUSH1 0x0 PUSH2 0x2623 DUP5 DUP5 DUP5 PUSH2 0x272D JUMP JUMPDEST SWAP1 POP SWAP4 SWAP3 POP POP POP JUMP JUMPDEST PUSH2 0x2635 DUP2 PUSH2 0x33D6 JUMP JUMPDEST DUP3 MSTORE POP POP JUMP JUMPDEST PUSH2 0x2644 DUP2 PUSH2 0x33D6 JUMP JUMPDEST DUP3 MSTORE POP POP JUMP JUMPDEST PUSH1 0x0 PUSH2 0x2655 DUP3 PUSH2 0x31D8 JUMP JUMPDEST PUSH2 0x265F DUP2 DUP6 PUSH2 0x3208 JUMP JUMPDEST SWAP4 POP PUSH2 0x266A DUP4 PUSH2 0x31A9 JUMP JUMPDEST DUP1 PUSH1 0x0 JUMPDEST DUP4 DUP2 LT ISZERO PUSH2 0x269B JUMPI DUP2 MLOAD PUSH2 0x2682 DUP9 DUP3 PUSH2 0x25FE JUMP JUMPDEST SWAP8 POP PUSH2 0x268D DUP4 PUSH2 0x31EE JUMP JUMPDEST SWAP3 POP POP PUSH1 0x1 DUP2 ADD SWAP1 POP PUSH2 0x266E JUMP JUMPDEST POP DUP6 SWAP4 POP POP POP POP SWAP3 SWAP2 POP POP JUMP JUMPDEST PUSH1 0x0 PUSH2 0x26B4 DUP4 DUP6 PUSH2 0x3219 JUMP JUMPDEST SWAP4 POP DUP4 PUSH1 0x20 DUP5 MUL DUP6 ADD PUSH2 0x26C6 DUP5 PUSH2 0x31B9 JUMP JUMPDEST DUP1 PUSH1 0x0 JUMPDEST DUP8 DUP2 LT ISZERO PUSH2 0x270C JUMPI DUP5 DUP5 SUB DUP10 MSTORE PUSH2 0x26E1 DUP3 DUP5 PUSH2 0x3257 JUMP JUMPDEST PUSH2 0x26EC DUP7 DUP3 DUP5 PUSH2 0x2616 JUMP JUMPDEST SWAP6 POP PUSH2 0x26F7 DUP5 PUSH2 0x31FB JUMP JUMPDEST SWAP4 POP PUSH1 0x20 DUP12 ADD SWAP11 POP POP POP PUSH1 0x1 DUP2 ADD SWAP1 POP PUSH2 0x26CA JUMP JUMPDEST POP DUP3 SWAP8 POP DUP8 SWAP5 POP POP POP POP POP SWAP4 SWAP3 POP POP POP JUMP JUMPDEST PUSH2 0x2727 DUP2 PUSH2 0x33E8 JUMP JUMPDEST DUP3 MSTORE POP POP JUMP JUMPDEST PUSH1 0x0 PUSH2 0x2739 DUP4 DUP6 PUSH2 0x322A JUMP JUMPDEST SWAP4 POP PUSH2 0x2746 DUP4 DUP6 DUP5 PUSH2 0x3455 JUMP JUMPDEST PUSH2 0x274F DUP4 PUSH2 0x369F JUMP JUMPDEST DUP5 ADD SWAP1 POP SWAP4 SWAP3 POP POP POP JUMP JUMPDEST PUSH1 0x0 PUSH2 0x2766 DUP4 DUP6 PUSH2 0x324C JUMP JUMPDEST SWAP4 POP PUSH2 0x2773 DUP4 DUP6 DUP5 PUSH2 0x3455 JUMP JUMPDEST DUP3 DUP5 ADD SWAP1 POP SWAP4 SWAP3 POP POP POP JUMP JUMPDEST PUSH1 0x0 PUSH2 0x278A DUP3 PUSH2 0x31E3 JUMP JUMPDEST PUSH2 0x2794 DUP2 DUP6 PUSH2 0x323B JUMP JUMPDEST SWAP4 POP PUSH2 0x27A4 DUP2 DUP6 PUSH1 0x20 DUP7 ADD PUSH2 0x3464 JUMP JUMPDEST PUSH2 0x27AD DUP2 PUSH2 0x369F JUMP JUMPDEST DUP5 ADD SWAP2 POP POP SWAP3 SWAP2 POP POP JUMP JUMPDEST PUSH1 0x0 PUSH2 0x27C3 DUP3 PUSH2 0x31E3 JUMP JUMPDEST PUSH2 0x27CD DUP2 DUP6 PUSH2 0x324C JUMP JUMPDEST SWAP4 POP PUSH2 0x27DD DUP2 DUP6 PUSH1 0x20 DUP7 ADD PUSH2 0x3464 JUMP JUMPDEST DUP1 DUP5 ADD SWAP2 POP POP SWAP3 SWAP2 POP POP JUMP JUMPDEST PUSH1 0x0 DUP2 SLOAD PUSH2 0x27F6 DUP2 PUSH2 0x3497 JUMP JUMPDEST PUSH2 0x2800 DUP2 DUP7 PUSH2 0x324C JUMP JUMPDEST SWAP5 POP PUSH1 0x1 DUP3 AND PUSH1 0x0 DUP2 EQ PUSH2 0x281B JUMPI PUSH1 0x1 DUP2 EQ PUSH2 0x282C JUMPI PUSH2 0x285F JUMP JUMPDEST PUSH1 0xFF NOT DUP4 AND DUP7 MSTORE DUP2 DUP7 ADD SWAP4 POP PUSH2 0x285F JUMP JUMPDEST PUSH2 0x2835 DUP6 PUSH2 0x31C3 JUMP JUMPDEST PUSH1 0x0 JUMPDEST DUP4 DUP2 LT ISZERO PUSH2 0x2857 JUMPI DUP2 SLOAD DUP2 DUP10 ADD MSTORE PUSH1 0x1 DUP3 ADD SWAP2 POP PUSH1 0x20 DUP2 ADD SWAP1 POP PUSH2 0x2838 JUMP JUMPDEST DUP4 DUP9 ADD SWAP6 POP POP POP JUMPDEST POP POP POP SWAP3 SWAP2 POP POP JUMP JUMPDEST PUSH1 0x0 PUSH2 0x2875 PUSH1 0x12 DUP4 PUSH2 0x323B JUMP JUMPDEST SWAP2 POP PUSH2 0x2880 DUP3 PUSH2 0x36B0 JUMP JUMPDEST PUSH1 0x20 DUP3 ADD SWAP1 POP SWAP2 SWAP1 POP JUMP JUMPDEST PUSH1 0x0 PUSH2 0x2898 PUSH1 0x2C DUP4 PUSH2 0x323B JUMP JUMPDEST SWAP2 POP PUSH2 0x28A3 DUP3 PUSH2 0x36D9 JUMP JUMPDEST PUSH1 0x40 DUP3 ADD SWAP1 POP SWAP2 SWAP1 POP JUMP JUMPDEST PUSH1 0x0 PUSH2 0x28BB PUSH1 0x22 DUP4 PUSH2 0x323B JUMP JUMPDEST SWAP2 POP PUSH2 0x28C6 DUP3 PUSH2 0x3728 JUMP JUMPDEST PUSH1 0x40 DUP3 ADD SWAP1 POP SWAP2 SWAP1 POP JUMP JUMPDEST PUSH1 0x0 PUSH2 0x28DE PUSH1 0xD DUP4 PUSH2 0x323B JUMP JUMPDEST SWAP2 POP PUSH2 0x28E9 DUP3 PUSH2 0x3777 JUMP JUMPDEST PUSH1 0x20 DUP3 ADD SWAP1 POP SWAP2 SWAP1 POP JUMP JUMPDEST PUSH1 0x0 PUSH2 0x2901 PUSH1 0x1B DUP4 PUSH2 0x323B JUMP JUMPDEST SWAP2 POP PUSH2 0x290C DUP3 PUSH2 0x37A0 JUMP JUMPDEST PUSH1 0x20 DUP3 ADD SWAP1 POP SWAP2 SWAP1 POP JUMP JUMPDEST PUSH1 0x0 PUSH2 0x2924 PUSH1 0x14 DUP4 PUSH2 0x323B JUMP JUMPDEST SWAP2 POP PUSH2 0x292F DUP3 PUSH2 0x37C9 JUMP JUMPDEST PUSH1 0x20 DUP3 ADD SWAP1 POP SWAP2 SWAP1 POP JUMP JUMPDEST PUSH1 0x0 PUSH2 0x2947 PUSH1 0x23 DUP4 PUSH2 0x323B JUMP JUMPDEST SWAP2 POP PUSH2 0x2952 DUP3 PUSH2 0x37F2 JUMP JUMPDEST PUSH1 0x40 DUP3 ADD SWAP1 POP SWAP2 SWAP1 POP JUMP JUMPDEST PUSH1 0x0 PUSH2 0x296A PUSH1 0x14 DUP4 PUSH2 0x323B JUMP JUMPDEST SWAP2 POP PUSH2 0x2975 DUP3 PUSH2 0x3841 JUMP JUMPDEST PUSH1 0x20 DUP3 ADD SWAP1 POP SWAP2 SWAP1 POP JUMP JUMPDEST PUSH1 0x0 PUSH2 0x298D PUSH1 0x23 DUP4 PUSH2 0x323B JUMP JUMPDEST SWAP2 POP PUSH2 0x2998 DUP3 PUSH2 0x386A JUMP JUMPDEST PUSH1 0x40 DUP3 ADD SWAP1 POP SWAP2 SWAP1 POP JUMP JUMPDEST PUSH1 0x0 PUSH2 0x29B0 PUSH1 0x12 DUP4 PUSH2 0x323B JUMP JUMPDEST SWAP2 POP PUSH2 0x29BB DUP3 PUSH2 0x38B9 JUMP JUMPDEST PUSH1 0x20 DUP3 ADD SWAP1 POP SWAP2 SWAP1 POP JUMP JUMPDEST PUSH1 0x0 PUSH2 0x29D3 PUSH1 0x23 DUP4 PUSH2 0x323B JUMP JUMPDEST SWAP2 POP PUSH2 0x29DE DUP3 PUSH2 0x38E2 JUMP JUMPDEST PUSH1 0x40 DUP3 ADD SWAP1 POP SWAP2 SWAP1 POP JUMP JUMPDEST PUSH1 0x0 PUSH2 0x29F6 PUSH1 0x2A DUP4 PUSH2 0x323B JUMP JUMPDEST SWAP2 POP PUSH2 0x2A01 DUP3 PUSH2 0x3931 JUMP JUMPDEST PUSH1 0x40 DUP3 ADD SWAP1 POP SWAP2 SWAP1 POP JUMP JUMPDEST PUSH1 0x0 PUSH2 0x2A19 PUSH1 0x21 DUP4 PUSH2 0x323B JUMP JUMPDEST SWAP2 POP PUSH2 0x2A24 DUP3 PUSH2 0x3980 JUMP JUMPDEST PUSH1 0x40 DUP3 ADD SWAP1 POP SWAP2 SWAP1 POP JUMP JUMPDEST PUSH1 0x0 PUSH2 0x2A3C PUSH1 0x24 DUP4 PUSH2 0x323B JUMP JUMPDEST SWAP2 POP PUSH2 0x2A47 DUP3 PUSH2 0x39CF JUMP JUMPDEST PUSH1 0x40 DUP3 ADD SWAP1 POP SWAP2 SWAP1 POP JUMP JUMPDEST PUSH1 0x0 PUSH2 0x2A5F PUSH1 0xD DUP4 PUSH2 0x323B JUMP JUMPDEST SWAP2 POP PUSH2 0x2A6A DUP3 PUSH2 0x3A1E JUMP JUMPDEST PUSH1 0x20 DUP3 ADD SWAP1 POP SWAP2 SWAP1 POP JUMP JUMPDEST PUSH1 0x0 PUSH2 0x2A82 PUSH1 0x4 DUP4 PUSH2 0x323B JUMP JUMPDEST SWAP2 POP PUSH2 0x2A8D DUP3 PUSH2 0x3A47 JUMP JUMPDEST PUSH1 0x20 DUP3 ADD SWAP1 POP SWAP2 SWAP1 POP JUMP JUMPDEST PUSH1 0x0 PUSH2 0x2AA5 PUSH1 0x1D DUP4 PUSH2 0x323B JUMP JUMPDEST SWAP2 POP PUSH2 0x2AB0 DUP3 PUSH2 0x3A70 JUMP JUMPDEST PUSH1 0x20 DUP3 ADD SWAP1 POP SWAP2 SWAP1 POP JUMP JUMPDEST PUSH1 0x0 PUSH2 0x2AC8 PUSH1 0x4 DUP4 PUSH2 0x323B JUMP JUMPDEST SWAP2 POP PUSH2 0x2AD3 DUP3 PUSH2 0x3A99 JUMP JUMPDEST PUSH1 0x20 DUP3 ADD SWAP1 POP SWAP2 SWAP1 POP JUMP JUMPDEST PUSH1 0x0 PUSH2 0x2AEB PUSH1 0x9 DUP4 PUSH2 0x323B JUMP JUMPDEST SWAP2 POP PUSH2 0x2AF6 DUP3 PUSH2 0x3AC2 JUMP JUMPDEST PUSH1 0x20 DUP3 ADD SWAP1 POP SWAP2 SWAP1 POP JUMP JUMPDEST PUSH1 0x0 PUSH2 0x2B0E PUSH1 0x1F DUP4 PUSH2 0x323B JUMP JUMPDEST SWAP2 POP PUSH2 0x2B19 DUP3 PUSH2 0x3AEB JUMP JUMPDEST PUSH1 0x20 DUP3 ADD SWAP1 POP SWAP2 SWAP1 POP JUMP JUMPDEST PUSH2 0x2B2D DUP2 PUSH2 0x33F4 JUMP JUMPDEST DUP3 MSTORE POP POP JUMP JUMPDEST PUSH2 0x2B3C DUP2 PUSH2 0x3410 JUMP JUMPDEST DUP3 MSTORE POP POP JUMP JUMPDEST PUSH2 0x2B4B DUP2 PUSH2 0x343E JUMP JUMPDEST DUP3 MSTORE POP POP JUMP JUMPDEST PUSH2 0x2B5A DUP2 PUSH2 0x3448 JUMP JUMPDEST DUP3 MSTORE POP POP JUMP JUMPDEST PUSH1 0x0 PUSH2 0x2B6D DUP3 DUP5 DUP7 PUSH2 0x275A JUMP JUMPDEST SWAP2 POP DUP2 SWAP1 POP SWAP4 SWAP3 POP POP POP JUMP JUMPDEST PUSH1 0x0 PUSH2 0x2B85 DUP3 DUP5 PUSH2 0x27B8 JUMP JUMPDEST SWAP2 POP DUP2 SWAP1 POP SWAP3 SWAP2 POP POP JUMP JUMPDEST PUSH1 0x0 PUSH2 0x2B9C DUP3 DUP5 PUSH2 0x27E9 JUMP JUMPDEST SWAP2 POP DUP2 SWAP1 POP SWAP3 SWAP2 POP POP JUMP JUMPDEST PUSH1 0x0 PUSH1 0xE0 DUP3 ADD SWAP1 POP PUSH2 0x2BBC PUSH1 0x0 DUP4 ADD DUP11 PUSH2 0x263B JUMP JUMPDEST PUSH2 0x2BC9 PUSH1 0x20 DUP4 ADD DUP10 PUSH2 0x2B51 JUMP JUMPDEST DUP2 DUP2 SUB PUSH1 0x40 DUP4 ADD MSTORE PUSH2 0x2BDB DUP2 DUP9 PUSH2 0x277F JUMP JUMPDEST SWAP1 POP PUSH2 0x2BEA PUSH1 0x60 DUP4 ADD DUP8 PUSH2 0x2B42 JUMP JUMPDEST PUSH2 0x2BF7 PUSH1 0x80 DUP4 ADD DUP7 PUSH2 0x2B42 JUMP JUMPDEST PUSH2 0x2C04 PUSH1 0xA0 DUP4 ADD DUP6 PUSH2 0x2B33 JUMP JUMPDEST PUSH2 0x2C11 PUSH1 0xC0 DUP4 ADD DUP5 PUSH2 0x2B42 JUMP JUMPDEST SWAP9 SWAP8 POP POP POP POP POP POP POP POP JUMP JUMPDEST PUSH1 0x0 PUSH1 0x20 DUP3 ADD SWAP1 POP PUSH2 0x2C32 PUSH1 0x0 DUP4 ADD DUP5 PUSH2 0x271E JUMP JUMPDEST SWAP3 SWAP2 POP POP JUMP JUMPDEST PUSH1 0x0 PUSH1 0x20 DUP3 ADD SWAP1 POP DUP2 DUP2 SUB PUSH1 0x0 DUP4 ADD MSTORE PUSH2 0x2C52 DUP2 DUP5 PUSH2 0x277F JUMP JUMPDEST SWAP1 POP SWAP3 SWAP2 POP POP JUMP JUMPDEST PUSH1 0x0 PUSH1 0x20 DUP3 ADD SWAP1 POP DUP2 DUP2 SUB PUSH1 0x0 DUP4 ADD MSTORE PUSH2 0x2C73 DUP2 PUSH2 0x2868 JUMP JUMPDEST SWAP1 POP SWAP2 SWAP1 POP JUMP JUMPDEST PUSH1 0x0 PUSH1 0x20 DUP3 ADD SWAP1 POP DUP2 DUP2 SUB PUSH1 0x0 DUP4 ADD MSTORE PUSH2 0x2C93 DUP2 PUSH2 0x288B JUMP JUMPDEST SWAP1 POP SWAP2 SWAP1 POP JUMP JUMPDEST PUSH1 0x0 PUSH1 0x20 DUP3 ADD SWAP1 POP DUP2 DUP2 SUB PUSH1 0x0 DUP4 ADD MSTORE PUSH2 0x2CB3 DUP2 PUSH2 0x28AE JUMP JUMPDEST SWAP1 POP SWAP2 SWAP1 POP JUMP JUMPDEST PUSH1 0x0 PUSH1 0x20 DUP3 ADD SWAP1 POP DUP2 DUP2 SUB PUSH1 0x0 DUP4 ADD MSTORE PUSH2 0x2CD3 DUP2 PUSH2 0x28D1 JUMP JUMPDEST SWAP1 POP SWAP2 SWAP1 POP JUMP JUMPDEST PUSH1 0x0 PUSH1 0x20 DUP3 ADD SWAP1 POP DUP2 DUP2 SUB PUSH1 0x0 DUP4 ADD MSTORE PUSH2 0x2CF3 DUP2 PUSH2 0x28F4 JUMP JUMPDEST SWAP1 POP SWAP2 SWAP1 POP JUMP JUMPDEST PUSH1 0x0 PUSH1 0x20 DUP3 ADD SWAP1 POP DUP2 DUP2 SUB PUSH1 0x0 DUP4 ADD MSTORE PUSH2 0x2D13 DUP2 PUSH2 0x2917 JUMP JUMPDEST SWAP1 POP SWAP2 SWAP1 POP JUMP JUMPDEST PUSH1 0x0 PUSH1 0x20 DUP3 ADD SWAP1 POP DUP2 DUP2 SUB PUSH1 0x0 DUP4 ADD MSTORE PUSH2 0x2D33 DUP2 PUSH2 0x293A JUMP JUMPDEST SWAP1 POP SWAP2 SWAP1 POP JUMP JUMPDEST PUSH1 0x0 PUSH1 0x20 DUP3 ADD SWAP1 POP DUP2 DUP2 SUB PUSH1 0x0 DUP4 ADD MSTORE PUSH2 0x2D53 DUP2 PUSH2 0x295D JUMP JUMPDEST SWAP1 POP SWAP2 SWAP1 POP JUMP JUMPDEST PUSH1 0x0 PUSH1 0x20 DUP3 ADD SWAP1 POP DUP2 DUP2 SUB PUSH1 0x0 DUP4 ADD MSTORE PUSH2 0x2D73 DUP2 PUSH2 0x2980 JUMP JUMPDEST SWAP1 POP SWAP2 SWAP1 POP JUMP JUMPDEST PUSH1 0x0 PUSH1 0x20 DUP3 ADD SWAP1 POP DUP2 DUP2 SUB PUSH1 0x0 DUP4 ADD MSTORE PUSH2 0x2D93 DUP2 PUSH2 0x29A3 JUMP JUMPDEST SWAP1 POP SWAP2 SWAP1 POP JUMP JUMPDEST PUSH1 0x0 PUSH1 0x20 DUP3 ADD SWAP1 POP DUP2 DUP2 SUB PUSH1 0x0 DUP4 ADD MSTORE PUSH2 0x2DB3 DUP2 PUSH2 0x29C6 JUMP JUMPDEST SWAP1 POP SWAP2 SWAP1 POP JUMP JUMPDEST PUSH1 0x0 PUSH1 0x20 DUP3 ADD SWAP1 POP DUP2 DUP2 SUB PUSH1 0x0 DUP4 ADD MSTORE PUSH2 0x2DD3 DUP2 PUSH2 0x29E9 JUMP JUMPDEST SWAP1 POP SWAP2 SWAP1 POP JUMP JUMPDEST PUSH1 0x0 PUSH1 0x20 DUP3 ADD SWAP1 POP DUP2 DUP2 SUB PUSH1 0x0 DUP4 ADD MSTORE PUSH2 0x2DF3 DUP2 PUSH2 0x2A0C JUMP JUMPDEST SWAP1 POP SWAP2 SWAP1 POP JUMP JUMPDEST PUSH1 0x0 PUSH1 0x20 DUP3 ADD SWAP1 POP DUP2 DUP2 SUB PUSH1 0x0 DUP4 ADD MSTORE PUSH2 0x2E13 DUP2 PUSH2 0x2A2F JUMP JUMPDEST SWAP1 POP SWAP2 SWAP1 POP JUMP JUMPDEST PUSH1 0x0 PUSH1 0x20 DUP3 ADD SWAP1 POP DUP2 DUP2 SUB PUSH1 0x0 DUP4 ADD MSTORE PUSH2 0x2E33 DUP2 PUSH2 0x2A52 JUMP JUMPDEST SWAP1 POP SWAP2 SWAP1 POP JUMP JUMPDEST PUSH1 0x0 PUSH1 0x60 DUP3 ADD SWAP1 POP DUP2 DUP2 SUB PUSH1 0x0 DUP4 ADD MSTORE PUSH2 0x2E53 DUP2 PUSH2 0x2A75 JUMP JUMPDEST SWAP1 POP PUSH2 0x2E62 PUSH1 0x20 DUP4 ADD DUP6 PUSH2 0x263B JUMP JUMPDEST PUSH2 0x2E6F PUSH1 0x40 DUP4 ADD DUP5 PUSH2 0x2B42 JUMP JUMPDEST SWAP4 SWAP3 POP POP POP JUMP JUMPDEST PUSH1 0x0 PUSH1 0x20 DUP3 ADD SWAP1 POP DUP2 DUP2 SUB PUSH1 0x0 DUP4 ADD MSTORE PUSH2 0x2E8F DUP2 PUSH2 0x2A98 JUMP JUMPDEST SWAP1 POP SWAP2 SWAP1 POP JUMP JUMPDEST PUSH1 0x0 PUSH1 0x60 DUP3 ADD SWAP1 POP DUP2 DUP2 SUB PUSH1 0x0 DUP4 ADD MSTORE PUSH2 0x2EAF DUP2 PUSH2 0x2ABB JUMP JUMPDEST SWAP1 POP PUSH2 0x2EBE PUSH1 0x20 DUP4 ADD DUP6 PUSH2 0x263B JUMP JUMPDEST PUSH2 0x2ECB PUSH1 0x40 DUP4 ADD DUP5 PUSH2 0x2B42 JUMP JUMPDEST SWAP4 SWAP3 POP POP POP JUMP JUMPDEST PUSH1 0x0 PUSH1 0x20 DUP3 ADD SWAP1 POP DUP2 DUP2 SUB PUSH1 0x0 DUP4 ADD MSTORE PUSH2 0x2EEB DUP2 PUSH2 0x2ADE JUMP JUMPDEST SWAP1 POP SWAP2 SWAP1 POP JUMP JUMPDEST PUSH1 0x0 PUSH1 0x20 DUP3 ADD SWAP1 POP DUP2 DUP2 SUB PUSH1 0x0 DUP4 ADD MSTORE PUSH2 0x2F0B DUP2 PUSH2 0x2B01 JUMP JUMPDEST SWAP1 POP SWAP2 SWAP1 POP JUMP JUMPDEST PUSH1 0x0 PUSH1 0x40 DUP3 ADD SWAP1 POP PUSH2 0x2F27 PUSH1 0x0 DUP4 ADD DUP6 PUSH2 0x2B24 JUMP JUMPDEST PUSH2 0x2F34 PUSH1 0x20 DUP4 ADD DUP5 PUSH2 0x2B24 JUMP JUMPDEST SWAP4 SWAP3 POP POP POP JUMP JUMPDEST PUSH1 0x0 PUSH1 0x20 DUP3 ADD SWAP1 POP PUSH2 0x2F50 PUSH1 0x0 DUP4 ADD DUP5 PUSH2 0x2B42 JUMP JUMPDEST SWAP3 SWAP2 POP POP JUMP JUMPDEST PUSH1 0x0 PUSH1 0x80 DUP3 ADD SWAP1 POP PUSH2 0x2F6B PUSH1 0x0 DUP4 ADD DUP8 PUSH2 0x2B42 JUMP JUMPDEST PUSH2 0x2F78 PUSH1 0x20 DUP4 ADD DUP7 PUSH2 0x263B JUMP JUMPDEST PUSH2 0x2F85 PUSH1 0x40 DUP4 ADD DUP6 PUSH2 0x271E JUMP JUMPDEST PUSH2 0x2F92 PUSH1 0x60 DUP4 ADD DUP5 PUSH2 0x2B42 JUMP JUMPDEST SWAP6 SWAP5 POP POP POP POP POP JUMP JUMPDEST PUSH1 0x0 PUSH1 0xE0 DUP3 ADD SWAP1 POP PUSH2 0x2FB0 PUSH1 0x0 DUP4 ADD DUP12 PUSH2 0x2B42 JUMP JUMPDEST DUP2 DUP2 SUB PUSH1 0x20 DUP4 ADD MSTORE PUSH2 0x2FC2 DUP2 DUP11 PUSH2 0x264A JUMP JUMPDEST SWAP1 POP PUSH2 0x2FD1 PUSH1 0x40 DUP4 ADD DUP10 PUSH2 0x263B JUMP JUMPDEST PUSH2 0x2FDE PUSH1 0x60 DUP4 ADD DUP9 PUSH2 0x2B42 JUMP JUMPDEST PUSH2 0x2FEB PUSH1 0x80 DUP4 ADD DUP8 PUSH2 0x2B42 JUMP JUMPDEST DUP2 DUP2 SUB PUSH1 0xA0 DUP4 ADD MSTORE PUSH2 0x2FFD DUP2 DUP7 PUSH2 0x277F JUMP JUMPDEST SWAP1 POP DUP2 DUP2 SUB PUSH1 0xC0 DUP4 ADD MSTORE PUSH2 0x3012 DUP2 DUP5 DUP7 PUSH2 0x26A8 JUMP JUMPDEST SWAP1 POP SWAP10 SWAP9 POP POP POP POP POP POP POP POP POP JUMP JUMPDEST PUSH1 0x0 PUSH1 0x40 DUP3 ADD SWAP1 POP PUSH2 0x3036 PUSH1 0x0 DUP4 ADD DUP6 PUSH2 0x2B42 JUMP JUMPDEST DUP2 DUP2 SUB PUSH1 0x20 DUP4 ADD MSTORE PUSH2 0x3048 DUP2 DUP5 PUSH2 0x277F JUMP JUMPDEST SWAP1 POP SWAP4 SWAP3 POP POP POP JUMP JUMPDEST PUSH1 0x0 PUSH1 0x20 DUP3 ADD SWAP1 POP PUSH2 0x3066 PUSH1 0x0 DUP4 ADD DUP5 PUSH2 0x2B51 JUMP JUMPDEST SWAP3 SWAP2 POP POP JUMP JUMPDEST PUSH1 0x0 DUP1 DUP4 CALLDATALOAD PUSH1 0x1 PUSH1 0x20 SUB DUP5 CALLDATASIZE SUB SUB DUP2 SLT PUSH2 0x3089 JUMPI PUSH2 0x3088 PUSH2 0x3677 JUMP JUMPDEST JUMPDEST DUP1 DUP5 ADD SWAP3 POP DUP3 CALLDATALOAD SWAP2 POP PUSH8 0xFFFFFFFFFFFFFFFF DUP3 GT ISZERO PUSH2 0x30AB JUMPI PUSH2 0x30AA PUSH2 0x3672 JUMP JUMPDEST JUMPDEST PUSH1 0x20 DUP4 ADD SWAP3 POP PUSH1 0x1 DUP3 MUL CALLDATASIZE SUB DUP4 SGT ISZERO PUSH2 0x30C7 JUMPI PUSH2 0x30C6 PUSH2 0x3686 JUMP JUMPDEST JUMPDEST POP SWAP3 POP SWAP3 SWAP1 POP JUMP JUMPDEST PUSH1 0x0 PUSH2 0x30D9 PUSH2 0x30EA JUMP JUMPDEST SWAP1 POP PUSH2 0x30E5 DUP3 DUP3 PUSH2 0x34C9 JUMP JUMPDEST SWAP2 SWAP1 POP JUMP JUMPDEST PUSH1 0x0 PUSH1 0x40 MLOAD SWAP1 POP SWAP1 JUMP JUMPDEST PUSH1 0x0 PUSH8 0xFFFFFFFFFFFFFFFF DUP3 GT ISZERO PUSH2 0x310F JUMPI PUSH2 0x310E PUSH2 0x3634 JUMP JUMPDEST JUMPDEST PUSH1 0x20 DUP3 MUL SWAP1 POP PUSH1 0x20 DUP2 ADD SWAP1 POP SWAP2 SWAP1 POP JUMP JUMPDEST PUSH1 0x0 PUSH8 0xFFFFFFFFFFFFFFFF DUP3 GT ISZERO PUSH2 0x313B JUMPI PUSH2 0x313A PUSH2 0x3634 JUMP JUMPDEST JUMPDEST PUSH1 0x20 DUP3 MUL SWAP1 POP PUSH1 0x20 DUP2 ADD SWAP1 POP SWAP2 SWAP1 POP JUMP JUMPDEST PUSH1 0x0 PUSH8 0xFFFFFFFFFFFFFFFF DUP3 GT ISZERO PUSH2 0x3167 JUMPI PUSH2 0x3166 PUSH2 0x3634 JUMP JUMPDEST JUMPDEST PUSH1 0x20 DUP3 MUL SWAP1 POP PUSH1 0x20 DUP2 ADD SWAP1 POP SWAP2 SWAP1 POP JUMP JUMPDEST PUSH1 0x0 PUSH8 0xFFFFFFFFFFFFFFFF DUP3 GT ISZERO PUSH2 0x3193 JUMPI PUSH2 0x3192 PUSH2 0x3634 JUMP JUMPDEST JUMPDEST PUSH2 0x319C DUP3 PUSH2 0x369F JUMP JUMPDEST SWAP1 POP PUSH1 0x20 DUP2 ADD SWAP1 POP SWAP2 SWAP1 POP JUMP JUMPDEST PUSH1 0x0 DUP2 SWAP1 POP PUSH1 0x20 DUP3 ADD SWAP1 POP SWAP2 SWAP1 POP JUMP JUMPDEST PUSH1 0x0 DUP2 SWAP1 POP SWAP2 SWAP1 POP JUMP JUMPDEST PUSH1 0x0 DUP2 SWAP1 POP DUP2 PUSH1 0x0 MSTORE PUSH1 0x20 PUSH1 0x0 KECCAK256 SWAP1 POP SWAP2 SWAP1 POP JUMP JUMPDEST PUSH1 0x0 DUP2 MLOAD SWAP1 POP SWAP2 SWAP1 POP JUMP JUMPDEST PUSH1 0x0 DUP2 MLOAD SWAP1 POP SWAP2 SWAP1 POP JUMP JUMPDEST PUSH1 0x0 PUSH1 0x20 DUP3 ADD SWAP1 POP SWAP2 SWAP1 POP JUMP JUMPDEST PUSH1 0x0 PUSH1 0x20 DUP3 ADD SWAP1 POP SWAP2 SWAP1 POP JUMP JUMPDEST PUSH1 0x0 DUP3 DUP3 MSTORE PUSH1 0x20 DUP3 ADD SWAP1 POP SWAP3 SWAP2 POP POP JUMP JUMPDEST PUSH1 0x0 DUP3 DUP3 MSTORE PUSH1 0x20 DUP3 ADD SWAP1 POP SWAP3 SWAP2 POP POP JUMP JUMPDEST PUSH1 0x0 DUP3 DUP3 MSTORE PUSH1 0x20 DUP3 ADD SWAP1 POP SWAP3 SWAP2 POP POP JUMP JUMPDEST PUSH1 0x0 DUP3 DUP3 MSTORE PUSH1 0x20 DUP3 ADD SWAP1 POP SWAP3 SWAP2 POP POP JUMP JUMPDEST PUSH1 0x0 DUP2 SWAP1 POP SWAP3 SWAP2 POP POP JUMP JUMPDEST PUSH1 0x0 DUP1 DUP4 CALLDATALOAD PUSH1 0x1 PUSH1 0x20 SUB DUP5 CALLDATASIZE SUB SUB DUP2 SLT PUSH2 0x3274 JUMPI PUSH2 0x3273 PUSH2 0x3695 JUMP JUMPDEST JUMPDEST DUP4 DUP2 ADD SWAP3 POP DUP3 CALLDATALOAD SWAP2 POP PUSH1 0x20 DUP4 ADD SWAP3 POP PUSH8 0xFFFFFFFFFFFFFFFF DUP3 GT ISZERO PUSH2 0x329C JUMPI PUSH2 0x329B PUSH2 0x3663 JUMP JUMPDEST JUMPDEST PUSH1 0x1 DUP3 MUL CALLDATASIZE SUB DUP5 SGT ISZERO PUSH2 0x32B2 JUMPI PUSH2 0x32B1 PUSH2 0x367C JUMP JUMPDEST JUMPDEST POP SWAP3 POP SWAP3 SWAP1 POP JUMP JUMPDEST PUSH1 0x0 PUSH2 0x32C5 DUP3 PUSH2 0x3410 JUMP JUMPDEST SWAP2 POP PUSH2 0x32D0 DUP4 PUSH2 0x3410 JUMP JUMPDEST SWAP3 POP DUP3 PUSH2 0xFFFF SUB DUP3 GT ISZERO PUSH2 0x32E7 JUMPI PUSH2 0x32E6 PUSH2 0x35A7 JUMP JUMPDEST JUMPDEST DUP3 DUP3 ADD SWAP1 POP SWAP3 SWAP2 POP POP JUMP JUMPDEST PUSH1 0x0 PUSH2 0x32FD DUP3 PUSH2 0x343E JUMP JUMPDEST SWAP2 POP PUSH2 0x3308 DUP4 PUSH2 0x343E JUMP JUMPDEST SWAP3 POP DUP3 PUSH32 0xFFFFFFFFFFFFFFFFFFFFFFFFFFFFFFFFFFFFFFFFFFFFFFFFFFFFFFFFFFFFFFFF SUB DUP3 GT ISZERO PUSH2 0x333D JUMPI PUSH2 0x333C PUSH2 0x35A7 JUMP JUMPDEST JUMPDEST DUP3 DUP3 ADD SWAP1 POP SWAP3 SWAP2 POP POP JUMP JUMPDEST PUSH1 0x0 PUSH2 0x3353 DUP3 PUSH2 0x343E JUMP JUMPDEST SWAP2 POP PUSH2 0x335E DUP4 PUSH2 0x343E JUMP JUMPDEST SWAP3 POP DUP2 PUSH32 0xFFFFFFFFFFFFFFFFFFFFFFFFFFFFFFFFFFFFFFFFFFFFFFFFFFFFFFFFFFFFFFFF DIV DUP4 GT DUP3 ISZERO ISZERO AND ISZERO PUSH2 0x3397 JUMPI PUSH2 0x3396 PUSH2 0x35A7 JUMP JUMPDEST JUMPDEST DUP3 DUP3 MUL SWAP1 POP SWAP3 SWAP2 POP POP JUMP JUMPDEST PUSH1 0x0 PUSH2 0x33AD DUP3 PUSH2 0x343E JUMP JUMPDEST SWAP2 POP PUSH2 0x33B8 DUP4 PUSH2 0x343E JUMP JUMPDEST SWAP3 POP DUP3 DUP3 LT ISZERO PUSH2 0x33CB JUMPI PUSH2 0x33CA PUSH2 0x35A7 JUMP JUMPDEST JUMPDEST DUP3 DUP3 SUB SWAP1 POP SWAP3 SWAP2 POP POP JUMP JUMPDEST PUSH1 0x0 PUSH2 0x33E1 DUP3 PUSH2 0x341E JUMP JUMPDEST SWAP1 POP SWAP2 SWAP1 POP JUMP JUMPDEST PUSH1 0x0 DUP2 ISZERO ISZERO SWAP1 POP SWAP2 SWAP1 POP JUMP JUMPDEST PUSH1 0x0 PUSH16 0xFFFFFFFFFFFFFFFFFFFFFFFFFFFFFFFF DUP3 AND SWAP1 POP SWAP2 SWAP1 POP JUMP JUMPDEST PUSH1 0x0 PUSH2 0xFFFF DUP3 AND SWAP1 POP SWAP2 SWAP1 POP JUMP JUMPDEST PUSH1 0x0 PUSH20 0xFFFFFFFFFFFFFFFFFFFFFFFFFFFFFFFFFFFFFFFF DUP3 AND SWAP1 POP SWAP2 SWAP1 POP JUMP JUMPDEST PUSH1 0x0 DUP2 SWAP1 POP SWAP2 SWAP1 POP JUMP JUMPDEST PUSH1 0x0 PUSH1 0xFF DUP3 AND SWAP1 POP SWAP2 SWAP1 POP JUMP JUMPDEST DUP3 DUP2 DUP4 CALLDATACOPY PUSH1 0x0 DUP4 DUP4 ADD MSTORE POP POP POP JUMP JUMPDEST PUSH1 0x0 JUMPDEST DUP4 DUP2 LT ISZERO PUSH2 0x3482 JUMPI DUP1 DUP3 ADD MLOAD DUP2 DUP5 ADD MSTORE PUSH1 0x20 DUP2 ADD SWAP1 POP PUSH2 0x3467 JUMP JUMPDEST DUP4 DUP2 GT ISZERO PUSH2 0x3491 JUMPI PUSH1 0x0 DUP5 DUP5 ADD MSTORE JUMPDEST POP POP POP POP JUMP JUMPDEST PUSH1 0x0 PUSH1 0x2 DUP3 DIV SWAP1 POP PUSH1 0x1 DUP3 AND DUP1 PUSH2 0x34AF JUMPI PUSH1 0x7F DUP3 AND SWAP2 POP JUMPDEST PUSH1 0x20 DUP3 LT DUP2 EQ ISZERO PUSH2 0x34C3 JUMPI PUSH2 0x34C2 PUSH2 0x35D6 JUMP JUMPDEST JUMPDEST POP SWAP2 SWAP1 POP JUMP JUMPDEST PUSH2 0x34D2 DUP3 PUSH2 0x369F JUMP JUMPDEST DUP2 ADD DUP2 DUP2 LT PUSH8 0xFFFFFFFFFFFFFFFF DUP3 GT OR ISZERO PUSH2 0x34F1 JUMPI PUSH2 0x34F0 PUSH2 0x3634 JUMP JUMPDEST JUMPDEST DUP1 PUSH1 0x40 MSTORE POP POP POP JUMP JUMPDEST PUSH1 0x0 PUSH2 0x3505 DUP3 PUSH2 0x33F4 JUMP JUMPDEST SWAP2 POP PUSH16 0xFFFFFFFFFFFFFFFFFFFFFFFFFFFFFFFF DUP3 EQ ISZERO PUSH2 0x3528 JUMPI PUSH2 0x3527 PUSH2 0x35A7 JUMP JUMPDEST JUMPDEST PUSH1 0x1 DUP3 ADD SWAP1 POP SWAP2 SWAP1 POP JUMP JUMPDEST PUSH1 0x0 PUSH2 0x353E DUP3 PUSH2 0x3410 JUMP JUMPDEST SWAP2 POP PUSH2 0xFFFF DUP3 EQ ISZERO PUSH2 0x3553 JUMPI PUSH2 0x3552 PUSH2 0x35A7 JUMP JUMPDEST JUMPDEST PUSH1 0x1 DUP3 ADD SWAP1 POP SWAP2 SWAP1 POP JUMP JUMPDEST PUSH1 0x0 PUSH2 0x3569 DUP3 PUSH2 0x343E JUMP JUMPDEST SWAP2 POP PUSH32 0xFFFFFFFFFFFFFFFFFFFFFFFFFFFFFFFFFFFFFFFFFFFFFFFFFFFFFFFFFFFFFFFF DUP3 EQ ISZERO PUSH2 0x359C JUMPI PUSH2 0x359B PUSH2 0x35A7 JUMP JUMPDEST JUMPDEST PUSH1 0x1 DUP3 ADD SWAP1 POP SWAP2 SWAP1 POP JUMP JUMPDEST PUSH32 0x4E487B7100000000000000000000000000000000000000000000000000000000 PUSH1 0x0 MSTORE PUSH1 0x11 PUSH1 0x4 MSTORE PUSH1 0x24 PUSH1 0x0 REVERT JUMPDEST PUSH32 0x4E487B7100000000000000000000000000000000000000000000000000000000 PUSH1 0x0 MSTORE PUSH1 0x22 PUSH1 0x4 MSTORE PUSH1 0x24 PUSH1 0x0 REVERT JUMPDEST PUSH32 0x4E487B7100000000000000000000000000000000000000000000000000000000 PUSH1 0x0 MSTORE PUSH1 0x32 PUSH1 0x4 MSTORE PUSH1 0x24 PUSH1 0x0 REVERT JUMPDEST PUSH32 0x4E487B7100000000000000000000000000000000000000000000000000000000 PUSH1 0x0 MSTORE PUSH1 0x41 PUSH1 0x4 MSTORE PUSH1 0x24 PUSH1 0x0 REVERT JUMPDEST PUSH1 0x0 DUP1 REVERT JUMPDEST PUSH1 0x0 DUP1 REVERT JUMPDEST PUSH1 0x0 DUP1 REVERT JUMPDEST PUSH1 0x0 DUP1 REVERT JUMPDEST PUSH1 0x0 DUP1 REVERT JUMPDEST PUSH1 0x0 DUP1 REVERT JUMPDEST PUSH1 0x0 DUP1 REVERT JUMPDEST PUSH1 0x0 DUP1 REVERT JUMPDEST PUSH1 0x0 DUP1 REVERT JUMPDEST PUSH1 0x0 DUP1 REVERT JUMPDEST PUSH1 0x0 DUP1 REVERT JUMPDEST PUSH1 0x0 DUP1 REVERT JUMPDEST PUSH1 0x0 PUSH1 0x1F NOT PUSH1 0x1F DUP4 ADD AND SWAP1 POP SWAP2 SWAP1 POP JUMP JUMPDEST PUSH32 0x50726F706F73616C3A20696E6163746976650000000000000000000000000000 PUSH1 0x0 DUP3 ADD MSTORE POP JUMP JUMPDEST PUSH32 0x456E642074696D652073686F756C642062652067726561746572207468616E20 PUSH1 0x0 DUP3 ADD MSTORE PUSH32 0x63757272656E742074696D650000000000000000000000000000000000000000 PUSH1 0x20 DUP3 ADD MSTORE POP JUMP JUMPDEST PUSH32 0x45524332303A206275726E20616D6F756E7420657863656564732062616C616E PUSH1 0x0 DUP3 ADD MSTORE PUSH32 0x6365000000000000000000000000000000000000000000000000000000000000 PUSH1 0x20 DUP3 ADD MSTORE POP JUMP JUMPDEST PUSH32 0x616C726561647920766F74656400000000000000000000000000000000000000 PUSH1 0x0 DUP3 ADD MSTORE POP JUMP JUMPDEST PUSH32 0x50726F706F73616C3A20696E76616C69642063616E6469646174650000000000 PUSH1 0x0 DUP3 ADD MSTORE POP JUMP JUMPDEST PUSH32 0x6E6F7420612076616C69642070726F706F73616C000000000000000000000000 PUSH1 0x0 DUP3 ADD MSTORE POP JUMP JUMPDEST PUSH32 0x6E6F7420612076616C696420766F74657220666F7220746869732070726F706F PUSH1 0x0 DUP3 ADD MSTORE PUSH32 0x73616C0000000000000000000000000000000000000000000000000000000000 PUSH1 0x20 DUP3 ADD MSTORE POP JUMP JUMPDEST PUSH32 0x70726F706F73616C206E6F742073746172746564000000000000000000000000 PUSH1 0x0 DUP3 ADD MSTORE POP JUMP JUMPDEST PUSH32 0x4E6F7420612076616C696420766F74657220666F7220746869732070726F706F PUSH1 0x0 DUP3 ADD MSTORE PUSH32 0x73616C0000000000000000000000000000000000000000000000000000000000 PUSH1 0x20 DUP3 ADD MSTORE POP JUMP JUMPDEST PUSH32 0x696E76616C69642070726F706F73616C49640000000000000000000000000000 PUSH1 0x0 DUP3 ADD MSTORE POP JUMP JUMPDEST PUSH32 0x6E6F742073756666696369656E742062616C616E636520746F20636173742076 PUSH1 0x0 DUP3 ADD MSTORE PUSH32 0x6F74650000000000000000000000000000000000000000000000000000000000 PUSH1 0x20 DUP3 ADD MSTORE POP JUMP JUMPDEST PUSH32 0x456E642074696D652073686F756C642062652067726561746572207468616E20 PUSH1 0x0 DUP3 ADD MSTORE PUSH32 0x73746172742074696D6500000000000000000000000000000000000000000000 PUSH1 0x20 DUP3 ADD MSTORE POP JUMP JUMPDEST PUSH32 0x45524332303A206275726E2066726F6D20746865207A65726F20616464726573 PUSH1 0x0 DUP3 ADD MSTORE PUSH32 0x7300000000000000000000000000000000000000000000000000000000000000 PUSH1 0x20 DUP3 ADD MSTORE POP JUMP JUMPDEST PUSH32 0x6E6F7420612076616C6964206C656E677468206F66206861736820726573706F PUSH1 0x0 DUP3 ADD MSTORE PUSH32 0x6E73652100000000000000000000000000000000000000000000000000000000 PUSH1 0x20 DUP3 ADD MSTORE POP JUMP JUMPDEST PUSH32 0x6E6F7420766F7465642079657400000000000000000000000000000000000000 PUSH1 0x0 DUP3 ADD MSTORE POP JUMP JUMPDEST PUSH32 0x6D696E7400000000000000000000000000000000000000000000000000000000 PUSH1 0x0 DUP3 ADD MSTORE POP JUMP JUMPDEST PUSH32 0x496E76616C696420766F74657220666F722070726F706F73616C496421000000 PUSH1 0x0 DUP3 ADD MSTORE POP JUMP JUMPDEST PUSH32 0x6275726E00000000000000000000000000000000000000000000000000000000 PUSH1 0x0 DUP3 ADD MSTORE POP JUMP JUMPDEST PUSH32 0x6E6F7420766F7465640000000000000000000000000000000000000000000000 PUSH1 0x0 DUP3 ADD MSTORE POP JUMP JUMPDEST PUSH32 0x45524332303A206D696E7420746F20746865207A65726F206164647265737300 PUSH1 0x0 DUP3 ADD MSTORE POP JUMP JUMPDEST PUSH2 0x3B1D DUP2 PUSH2 0x33D6 JUMP JUMPDEST DUP2 EQ PUSH2 0x3B28 JUMPI PUSH1 0x0 DUP1 REVERT JUMPDEST POP JUMP JUMPDEST PUSH2 0x3B34 DUP2 PUSH2 0x343E JUMP JUMPDEST DUP2 EQ PUSH2 0x3B3F JUMPI PUSH1 0x0 DUP1 REVERT JUMPDEST POP JUMP JUMPDEST PUSH2 0x3B4B DUP2 PUSH2 0x3448 JUMP JUMPDEST DUP2 EQ PUSH2 0x3B56 JUMPI PUSH1 0x0 DUP1 REVERT JUMPDEST POP JUMP INVALID LOG2 PUSH5 0x6970667358 0x22 SLT KECCAK256 0xC7 STATICCALL INVALID 0x2B MSTORE8 0xB1 0xCF EXTCODECOPY LOG4 0xD9 DUP3 TIMESTAMP 0xC3 0xBF LOG0 0xA7 0x22 0xC7 0x5C SWAP1 EQ DUP9 BLOCKHASH 0xDE 0xDB EXTCODEHASH 0xC8 STATICCALL 0x2D RETURNDATACOPY TIMESTAMP 0xF9 PUSH5 0x736F6C6343 STOP ADDMOD SMOD STOP CALLER "
				},
				"gasEstimates": {
					"creation": {
						"codeDepositCost": "3049400",
						"executionCost": "infinite",
						"totalCost": "infinite"
					},
					"external": {
						"allVoters(address,uint256)": "infinite",
						"balanceOf(address)": "2863",
						"burnOwner(uint256,address)": "infinite",
						"createProposal(uint8,address[],address,uint256,uint256,string,string[],uint256)": "infinite",
						"decimals()": "410",
						"name()": "infinite",
						"proposals(uint256)": "infinite",
						"responseProposal(uint256,address,string[],uint256[])": "infinite",
						"resultOfProposal(uint256)": "infinite",
						"symbol()": "infinite",
						"totalSupply()": "2482",
						"userProposal(address)": "infinite"
					}
				},
				"methodIdentifiers": {
					"allVoters(address,uint256)": "ab9c70d4",
					"balanceOf(address)": "70a08231",
					"burnOwner(uint256,address)": "6a232d1f",
					"createProposal(uint8,address[],address,uint256,uint256,string,string[],uint256)": "4de77e48",
					"decimals()": "313ce567",
					"name()": "06fdde03",
					"proposals(uint256)": "013cf08b",
					"responseProposal(uint256,address,string[],uint256[])": "5c230eee",
					"resultOfProposal(uint256)": "9d671564",
					"symbol()": "95d89b41",
					"totalSupply()": "18160ddd",
					"userProposal(address)": "e745d68e"
				}
			},
			"storageLayout": {
				"storage": [
					{
						"astId": 627,
						"contract": "Qvoting.sol:Qvoting",
						"label": "_balances",
						"offset": 0,
						"slot": "0",
						"type": "t_mapping(t_address,t_uint256)"
					},
					{
						"astId": 629,
						"contract": "Qvoting.sol:Qvoting",
						"label": "_totalSupply",
						"offset": 0,
						"slot": "1",
						"type": "t_uint256"
					},
					{
						"astId": 631,
						"contract": "Qvoting.sol:Qvoting",
						"label": "_name",
						"offset": 0,
						"slot": "2",
						"type": "t_string_storage"
					},
					{
						"astId": 633,
						"contract": "Qvoting.sol:Qvoting",
						"label": "_symbol",
						"offset": 0,
						"slot": "3",
						"type": "t_string_storage"
					},
					{
						"astId": 847,
						"contract": "Qvoting.sol:Qvoting",
						"label": "owner",
						"offset": 0,
						"slot": "4",
						"type": "t_address"
					},
					{
						"astId": 936,
						"contract": "Qvoting.sol:Qvoting",
						"label": "proposalId",
						"offset": 0,
						"slot": "5",
						"type": "t_uint256"
					},
					{
						"astId": 941,
						"contract": "Qvoting.sol:Qvoting",
						"label": "userProposal",
						"offset": 0,
						"slot": "6",
						"type": "t_mapping(t_address,t_struct(UserProposal)409_storage)"
					},
					{
						"astId": 946,
						"contract": "Qvoting.sol:Qvoting",
						"label": "proposals",
						"offset": 0,
						"slot": "7",
						"type": "t_mapping(t_uint256,t_struct(proposal)66_storage)"
					},
					{
						"astId": 953,
						"contract": "Qvoting.sol:Qvoting",
						"label": "allVoters",
						"offset": 0,
						"slot": "8",
						"type": "t_mapping(t_address,t_mapping(t_uint256,t_struct(voter)513_storage))"
					},
					{
						"astId": 957,
						"contract": "Qvoting.sol:Qvoting",
						"label": "validProposals",
						"offset": 0,
						"slot": "9",
						"type": "t_mapping(t_uint256,t_bool)"
					}
				],
				"types": {
					"t_address": {
						"encoding": "inplace",
						"label": "address",
						"numberOfBytes": "20"
					},
					"t_bool": {
						"encoding": "inplace",
						"label": "bool",
						"numberOfBytes": "1"
					},
					"t_mapping(t_address,t_bool)": {
						"encoding": "mapping",
						"key": "t_address",
						"label": "mapping(address => bool)",
						"numberOfBytes": "32",
						"value": "t_bool"
					},
					"t_mapping(t_address,t_mapping(t_uint256,t_struct(voter)513_storage))": {
						"encoding": "mapping",
						"key": "t_address",
						"label": "mapping(address => mapping(uint256 => struct voterLibrary.voter))",
						"numberOfBytes": "32",
						"value": "t_mapping(t_uint256,t_struct(voter)513_storage)"
					},
					"t_mapping(t_address,t_struct(UserProposal)409_storage)": {
						"encoding": "mapping",
						"key": "t_address",
						"label": "mapping(address => struct UserProposalLibrary.UserProposal)",
						"numberOfBytes": "32",
						"value": "t_struct(UserProposal)409_storage"
					},
					"t_mapping(t_address,t_uint256)": {
						"encoding": "mapping",
						"key": "t_address",
						"label": "mapping(address => uint256)",
						"numberOfBytes": "32",
						"value": "t_uint256"
					},
					"t_mapping(t_string_memory_ptr,t_bool)": {
						"encoding": "mapping",
						"key": "t_string_memory_ptr",
						"label": "mapping(string => bool)",
						"numberOfBytes": "32",
						"value": "t_bool"
					},
					"t_mapping(t_string_memory_ptr,t_uint256)": {
						"encoding": "mapping",
						"key": "t_string_memory_ptr",
						"label": "mapping(string => uint256)",
						"numberOfBytes": "32",
						"value": "t_uint256"
					},
					"t_mapping(t_uint128,t_uint256)": {
						"encoding": "mapping",
						"key": "t_uint128",
						"label": "mapping(uint128 => uint256)",
						"numberOfBytes": "32",
						"value": "t_uint256"
					},
					"t_mapping(t_uint256,t_bool)": {
						"encoding": "mapping",
						"key": "t_uint256",
						"label": "mapping(uint256 => bool)",
						"numberOfBytes": "32",
						"value": "t_bool"
					},
					"t_mapping(t_uint256,t_mapping(t_uint256,t_string_storage))": {
						"encoding": "mapping",
						"key": "t_uint256",
						"label": "mapping(uint256 => mapping(uint256 => string))",
						"numberOfBytes": "32",
						"value": "t_mapping(t_uint256,t_string_storage)"
					},
					"t_mapping(t_uint256,t_string_storage)": {
						"encoding": "mapping",
						"key": "t_uint256",
						"label": "mapping(uint256 => string)",
						"numberOfBytes": "32",
						"value": "t_string_storage"
					},
					"t_mapping(t_uint256,t_struct(proposal)66_storage)": {
						"encoding": "mapping",
						"key": "t_uint256",
						"label": "mapping(uint256 => struct proposalLibrary.proposal)",
						"numberOfBytes": "32",
						"value": "t_struct(proposal)66_storage"
					},
					"t_mapping(t_uint256,t_struct(voter)513_storage)": {
						"encoding": "mapping",
						"key": "t_uint256",
						"label": "mapping(uint256 => struct voterLibrary.voter)",
						"numberOfBytes": "32",
						"value": "t_struct(voter)513_storage"
					},
					"t_string_memory_ptr": {
						"encoding": "bytes",
						"label": "string",
						"numberOfBytes": "32"
					},
					"t_string_storage": {
						"encoding": "bytes",
						"label": "string",
						"numberOfBytes": "32"
					},
					"t_struct(UserProposal)409_storage": {
						"encoding": "inplace",
						"label": "struct UserProposalLibrary.UserProposal",
						"members": [
							{
								"astId": 388,
								"contract": "Qvoting.sol:Qvoting",
								"label": "proposalCount",
								"offset": 0,
								"slot": "0",
								"type": "t_uint128"
							},
							{
								"astId": 390,
								"contract": "Qvoting.sol:Qvoting",
								"label": "responseCount",
								"offset": 16,
								"slot": "0",
								"type": "t_uint128"
							},
							{
								"astId": 394,
								"contract": "Qvoting.sol:Qvoting",
								"label": "proposalCreated",
								"offset": 0,
								"slot": "1",
								"type": "t_mapping(t_uint128,t_uint256)"
							},
							{
								"astId": 398,
								"contract": "Qvoting.sol:Qvoting",
								"label": "proposalResponsed",
								"offset": 0,
								"slot": "2",
								"type": "t_mapping(t_uint128,t_uint256)"
							},
							{
								"astId": 404,
								"contract": "Qvoting.sol:Qvoting",
								"label": "proposalAnswer",
								"offset": 0,
								"slot": "3",
								"type": "t_mapping(t_uint256,t_mapping(t_uint256,t_string_storage))"
							},
							{
								"astId": 408,
								"contract": "Qvoting.sol:Qvoting",
								"label": "responsedProposal",
								"offset": 0,
								"slot": "4",
								"type": "t_mapping(t_uint256,t_bool)"
							}
						],
						"numberOfBytes": "160"
					},
					"t_struct(proposal)66_storage": {
						"encoding": "inplace",
						"label": "struct proposalLibrary.proposal",
						"members": [
							{
								"astId": 33,
								"contract": "Qvoting.sol:Qvoting",
								"label": "creator",
								"offset": 0,
								"slot": "0",
								"type": "t_address"
							},
							{
								"astId": 35,
								"contract": "Qvoting.sol:Qvoting",
								"label": "status",
								"offset": 20,
								"slot": "0",
								"type": "t_uint8"
							},
							{
								"astId": 37,
								"contract": "Qvoting.sol:Qvoting",
								"label": "disc",
								"offset": 0,
								"slot": "1",
								"type": "t_string_storage"
							},
							{
								"astId": 39,
								"contract": "Qvoting.sol:Qvoting",
								"label": "startTime",
								"offset": 0,
								"slot": "2",
								"type": "t_uint256"
							},
							{
								"astId": 41,
								"contract": "Qvoting.sol:Qvoting",
								"label": "expirationTime",
								"offset": 0,
								"slot": "3",
								"type": "t_uint256"
							},
							{
								"astId": 43,
								"contract": "Qvoting.sol:Qvoting",
								"label": "numOfOptions",
								"offset": 0,
								"slot": "4",
								"type": "t_uint16"
							},
							{
								"astId": 45,
								"contract": "Qvoting.sol:Qvoting",
								"label": "voteRight",
								"offset": 0,
								"slot": "5",
								"type": "t_uint256"
							},
							{
								"astId": 49,
								"contract": "Qvoting.sol:Qvoting",
								"label": "voters",
								"offset": 0,
								"slot": "6",
								"type": "t_mapping(t_address,t_bool)"
							},
							{
								"astId": 53,
								"contract": "Qvoting.sol:Qvoting",
								"label": "cand",
								"offset": 0,
								"slot": "7",
								"type": "t_mapping(t_string_memory_ptr,t_bool)"
							},
							{
								"astId": 57,
								"contract": "Qvoting.sol:Qvoting",
								"label": "candHash",
								"offset": 0,
								"slot": "8",
								"type": "t_mapping(t_uint256,t_string_storage)"
							},
							{
								"astId": 61,
								"contract": "Qvoting.sol:Qvoting",
								"label": "result",
								"offset": 0,
								"slot": "9",
								"type": "t_mapping(t_uint256,t_string_storage)"
							},
							{
								"astId": 65,
								"contract": "Qvoting.sol:Qvoting",
								"label": "votes",
								"offset": 0,
								"slot": "10",
								"type": "t_mapping(t_string_memory_ptr,t_uint256)"
							}
						],
						"numberOfBytes": "352"
					},
					"t_struct(voter)513_storage": {
						"encoding": "inplace",
						"label": "struct voterLibrary.voter",
						"members": [
							{
								"astId": 506,
								"contract": "Qvoting.sol:Qvoting",
								"label": "proposalId",
								"offset": 0,
								"slot": "0",
								"type": "t_uint256"
							},
							{
								"astId": 508,
								"contract": "Qvoting.sol:Qvoting",
								"label": "voterAddress",
								"offset": 0,
								"slot": "1",
								"type": "t_address"
							},
							{
								"astId": 510,
								"contract": "Qvoting.sol:Qvoting",
								"label": "hasVoted",
								"offset": 20,
								"slot": "1",
								"type": "t_bool"
							},
							{
								"astId": 512,
								"contract": "Qvoting.sol:Qvoting",
								"label": "voteNum",
								"offset": 0,
								"slot": "2",
								"type": "t_uint256"
							}
						],
						"numberOfBytes": "96"
					},
					"t_uint128": {
						"encoding": "inplace",
						"label": "uint128",
						"numberOfBytes": "16"
					},
					"t_uint16": {
						"encoding": "inplace",
						"label": "uint16",
						"numberOfBytes": "2"
					},
					"t_uint256": {
						"encoding": "inplace",
						"label": "uint256",
						"numberOfBytes": "32"
					},
					"t_uint8": {
						"encoding": "inplace",
						"label": "uint8",
						"numberOfBytes": "1"
					}
				}
			},
			"userdoc": {
				"kind": "user",
				"methods": {},
				"version": 1
			}
		}
	}
}