{
	"Qvoting.sol": {
		"Qvoting": {
			"abi": [
				{
					"anonymous": false,
					"inputs": [
						{
							"indexed": false,
							"internalType": "uint256",
							"name": "proposalId",
							"type": "uint256"
						},
						{
							"indexed": false,
							"internalType": "address[]",
							"name": "voters",
							"type": "address[]"
						},
						{
							"indexed": false,
							"internalType": "address",
							"name": "creator",
							"type": "address"
						},
						{
							"indexed": false,
							"internalType": "uint256",
							"name": "startTime",
							"type": "uint256"
						},
						{
							"indexed": false,
							"internalType": "uint256",
							"name": "expirationTime",
							"type": "uint256"
						},
						{
							"indexed": false,
							"internalType": "string",
							"name": "description",
							"type": "string"
						},
						{
							"indexed": false,
							"internalType": "string[]",
							"name": "_cand",
							"type": "string[]"
						}
					],
					"name": "ProposalCreated",
					"type": "event"
				},
				{
					"anonymous": false,
					"inputs": [
						{
							"indexed": false,
							"internalType": "address",
							"name": "voter",
							"type": "address"
						},
						{
							"indexed": false,
							"internalType": "uint256",
							"name": "ProposalID",
							"type": "uint256"
						},
						{
							"indexed": false,
							"internalType": "uint256[]",
							"name": "_tokens",
							"type": "uint256[]"
						}
					],
					"name": "VoteCasted",
					"type": "event"
				},
				{
					"anonymous": false,
					"inputs": [
						{
							"indexed": false,
							"internalType": "string",
							"name": "mintAndburn",
							"type": "string"
						},
						{
							"indexed": false,
							"internalType": "address",
							"name": "account",
							"type": "address"
						},
						{
							"indexed": false,
							"internalType": "uint256",
							"name": "amount",
							"type": "uint256"
						}
					],
					"name": "mintAndburn",
					"type": "event"
				},
				{
					"inputs": [
						{
							"internalType": "address",
							"name": "",
							"type": "address"
						},
						{
							"internalType": "uint256",
							"name": "",
							"type": "uint256"
						}
					],
					"name": "allVoters",
					"outputs": [
						{
							"internalType": "uint256",
							"name": "proposalId",
							"type": "uint256"
						},
						{
							"internalType": "address",
							"name": "voterAddress",
							"type": "address"
						},
						{
							"internalType": "bool",
							"name": "hasVoted",
							"type": "bool"
						},
						{
							"internalType": "uint256",
							"name": "voteNum",
							"type": "uint256"
						}
					],
					"stateMutability": "view",
					"type": "function"
				},
				{
					"inputs": [
						{
							"internalType": "address",
							"name": "account",
							"type": "address"
						}
					],
					"name": "balanceOf",
					"outputs": [
						{
							"internalType": "uint256",
							"name": "",
							"type": "uint256"
						}
					],
					"stateMutability": "view",
					"type": "function"
				},
				{
					"inputs": [
						{
							"internalType": "uint8",
							"name": "_status",
							"type": "uint8"
						},
						{
							"internalType": "address[]",
							"name": "_voters",
							"type": "address[]"
						},
						{
							"internalType": "address",
							"name": "_creator",
							"type": "address"
						},
						{
							"internalType": "uint256",
							"name": "_startTime",
							"type": "uint256"
						},
						{
							"internalType": "uint256",
							"name": "_expirationTime",
							"type": "uint256"
						},
						{
							"internalType": "string",
							"name": "_disc",
							"type": "string"
						},
						{
							"internalType": "string[]",
							"name": "_cand",
							"type": "string[]"
						},
						{
							"internalType": "uint256",
							"name": "_voteRight",
							"type": "uint256"
						}
					],
					"name": "createProposal",
					"outputs": [],
					"stateMutability": "nonpayable",
					"type": "function"
				},
				{
					"inputs": [],
					"name": "decimals",
					"outputs": [
						{
							"internalType": "uint8",
							"name": "",
							"type": "uint8"
						}
					],
					"stateMutability": "view",
					"type": "function"
				},
				{
					"inputs": [],
					"name": "name",
					"outputs": [
						{
							"internalType": "string",
							"name": "",
							"type": "string"
						}
					],
					"stateMutability": "view",
					"type": "function"
				},
				{
					"inputs": [
						{
							"internalType": "uint256",
							"name": "",
							"type": "uint256"
						}
					],
					"name": "proposals",
					"outputs": [
						{
							"internalType": "address",
							"name": "creator",
							"type": "address"
						},
						{
							"internalType": "uint8",
							"name": "status",
							"type": "uint8"
						},
						{
							"internalType": "string",
							"name": "disc",
							"type": "string"
						},
						{
							"internalType": "uint256",
							"name": "startTime",
							"type": "uint256"
						},
						{
							"internalType": "uint256",
							"name": "expirationTime",
							"type": "uint256"
						},
						{
							"internalType": "uint16",
							"name": "numOfOptions",
							"type": "uint16"
						},
						{
							"internalType": "uint256",
							"name": "voteRight",
							"type": "uint256"
						}
					],
					"stateMutability": "view",
					"type": "function"
				},
				{
					"inputs": [
						{
							"internalType": "uint256",
							"name": "_proposalId",
							"type": "uint256"
						},
						{
							"internalType": "address",
							"name": "_voter",
							"type": "address"
						},
						{
							"internalType": "string[]",
							"name": "_hash",
							"type": "string[]"
						},
						{
							"internalType": "uint256[]",
							"name": "v",
							"type": "uint256[]"
						}
					],
					"name": "responseProposal",
					"outputs": [],
					"stateMutability": "nonpayable",
					"type": "function"
				},
				{
					"inputs": [
						{
							"internalType": "uint256",
							"name": "_proposalId",
							"type": "uint256"
						}
					],
					"name": "resultOfProposal",
					"outputs": [
						{
							"internalType": "uint256",
							"name": "",
							"type": "uint256"
						},
						{
							"internalType": "string",
							"name": "",
							"type": "string"
						}
					],
					"stateMutability": "view",
					"type": "function"
				},
				{
					"inputs": [],
					"name": "symbol",
					"outputs": [
						{
							"internalType": "string",
							"name": "",
							"type": "string"
						}
					],
					"stateMutability": "view",
					"type": "function"
				},
				{
					"inputs": [],
					"name": "totalSupply",
					"outputs": [
						{
							"internalType": "uint256",
							"name": "",
							"type": "uint256"
						}
					],
					"stateMutability": "view",
					"type": "function"
				},
				{
					"inputs": [
						{
							"internalType": "address",
							"name": "",
							"type": "address"
						}
					],
					"name": "userProposal",
					"outputs": [
						{
							"internalType": "uint128",
							"name": "proposalCount",
							"type": "uint128"
						},
						{
							"internalType": "uint128",
							"name": "responseCount",
							"type": "uint128"
						}
					],
					"stateMutability": "view",
					"type": "function"
				}
			],
			"devdoc": {
				"kind": "dev",
				"methods": {
					"balanceOf(address)": {
						"details": "See {IERC20-balanceOf}."
					},
					"decimals()": {
						"details": "Returns the number of decimals used to get its user representation. For example, if `decimals` equals `2`, a balance of `505` tokens should be displayed to a user as `5.05` (`505 / 10 ** 2`). Tokens usually opt for a value of 18, imitating the relationship between Ether and Wei. This is the value {ERC20} uses, unless this function is overridden; NOTE: This information is only used for _display_ purposes: it in no way affects any of the arithmetic of the contract, including {IERC20-balanceOf} and {IERC20-transfer}."
					},
					"name()": {
						"details": "Returns the name of the token."
					},
					"symbol()": {
						"details": "Returns the symbol of the token, usually a shorter version of the name."
					},
					"totalSupply()": {
						"details": "See {IERC20-totalSupply}."
					}
				},
				"version": 1
			},
			"evm": {
				"assembly": "    /* \"Qvoting.sol\":481:6071  contract Qvoting is proposalEvents, QVtoken{\r... */\n  mstore(0x40, 0x80)\n  callvalue\n  dup1\n  iszero\n  tag_1\n  jumpi\n  0x00\n  dup1\n  revert\ntag_1:\n  pop\n    /* \"QvToken/ERC20.sol\":2016:2132  constructor(string memory name_, string memory symbol_) {\r... */\n  mload(0x40)\n  dup1\n  0x40\n  add\n  0x40\n  mstore\n  dup1\n  0x0c\n  dup2\n  mstore\n  0x20\n  add\n  0x51566f74696e67546f6b656e0000000000000000000000000000000000000000\n  dup2\n  mstore\n  pop\n  mload(0x40)\n  dup1\n  0x40\n  add\n  0x40\n  mstore\n  dup1\n  0x02\n  dup2\n  mstore\n  0x20\n  add\n  0x5176000000000000000000000000000000000000000000000000000000000000\n  dup2\n  mstore\n  pop\n    /* \"QvToken/ERC20.sol\":2091:2096  name_ */\n  dup2\n    /* \"QvToken/ERC20.sol\":2083:2088  _name */\n  0x02\n    /* \"QvToken/ERC20.sol\":2083:2096  _name = name_ */\n  swap1\n  dup1\n  mload\n  swap1\n  0x20\n  add\n  swap1\n  tag_5\n  swap3\n  swap2\n  swap1\n  tag_6\n  jump\t// in\ntag_5:\n  pop\n    /* \"QvToken/ERC20.sol\":2117:2124  symbol_ */\n  dup1\n    /* \"QvToken/ERC20.sol\":2107:2114  _symbol */\n  0x03\n    /* \"QvToken/ERC20.sol\":2107:2124  _symbol = symbol_ */\n  swap1\n  dup1\n  mload\n  swap1\n  0x20\n  add\n  swap1\n  tag_7\n  swap3\n  swap2\n  swap1\n  tag_6\n  jump\t// in\ntag_7:\n  pop\n    /* \"QvToken/ERC20.sol\":2016:2132  constructor(string memory name_, string memory symbol_) {\r... */\n  pop\n  pop\n    /* \"QvToken/QvToken.sol\":280:290  msg.sender */\n  caller\n    /* \"QvToken/QvToken.sol\":272:277  owner */\n  0x04\n  0x00\n    /* \"QvToken/QvToken.sol\":272:290  owner = msg.sender */\n  0x0100\n  exp\n  dup2\n  sload\n  dup2\n  0xffffffffffffffffffffffffffffffffffffffff\n  mul\n  not\n  and\n  swap1\n  dup4\n  0xffffffffffffffffffffffffffffffffffffffff\n  and\n  mul\n  or\n  swap1\n  sstore\n  pop\n    /* \"Qvoting.sol\":481:6071  contract Qvoting is proposalEvents, QVtoken{\r... */\n  jump(tag_9)\ntag_6:\n  dup3\n  dup1\n  sload\n  tag_10\n  swap1\n  tag_11\n  jump\t// in\ntag_10:\n  swap1\n  0x00\n  mstore\n  keccak256(0x00, 0x20)\n  swap1\n  0x1f\n  add\n  0x20\n  swap1\n  div\n  dup2\n  add\n  swap3\n  dup3\n  tag_13\n  jumpi\n  0x00\n  dup6\n  sstore\n  jump(tag_12)\ntag_13:\n  dup3\n  0x1f\n  lt\n  tag_14\n  jumpi\n  dup1\n  mload\n  not(0xff)\n  and\n  dup4\n  dup1\n  add\n  or\n  dup6\n  sstore\n  jump(tag_12)\ntag_14:\n  dup3\n  dup1\n  add\n  0x01\n  add\n  dup6\n  sstore\n  dup3\n  iszero\n  tag_12\n  jumpi\n  swap2\n  dup3\n  add\ntag_15:\n  dup3\n  dup2\n  gt\n  iszero\n  tag_16\n  jumpi\n  dup3\n  mload\n  dup3\n  sstore\n  swap2\n  0x20\n  add\n  swap2\n  swap1\n  0x01\n  add\n  swap1\n  jump(tag_15)\ntag_16:\ntag_12:\n  pop\n  swap1\n  pop\n  tag_17\n  swap2\n  swap1\n  tag_18\n  jump\t// in\ntag_17:\n  pop\n  swap1\n  jump\t// out\ntag_18:\ntag_19:\n  dup1\n  dup3\n  gt\n  iszero\n  tag_20\n  jumpi\n  0x00\n  dup2\n  0x00\n  swap1\n  sstore\n  pop\n  0x01\n  add\n  jump(tag_19)\ntag_20:\n  pop\n  swap1\n  jump\t// out\n    /* \"#utility.yul\":7:327   */\ntag_11:\n    /* \"#utility.yul\":51:57   */\n  0x00\n    /* \"#utility.yul\":88:89   */\n  0x02\n    /* \"#utility.yul\":82:86   */\n  dup3\n    /* \"#utility.yul\":78:90   */\n  div\n    /* \"#utility.yul\":68:90   */\n  swap1\n  pop\n    /* \"#utility.yul\":135:136   */\n  0x01\n    /* \"#utility.yul\":129:133   */\n  dup3\n    /* \"#utility.yul\":125:137   */\n  and\n    /* \"#utility.yul\":156:174   */\n  dup1\n    /* \"#utility.yul\":146:227   */\n  tag_23\n  jumpi\n    /* \"#utility.yul\":212:216   */\n  0x7f\n    /* \"#utility.yul\":204:210   */\n  dup3\n    /* \"#utility.yul\":200:217   */\n  and\n    /* \"#utility.yul\":190:217   */\n  swap2\n  pop\n    /* \"#utility.yul\":146:227   */\ntag_23:\n    /* \"#utility.yul\":274:276   */\n  0x20\n    /* \"#utility.yul\":266:272   */\n  dup3\n    /* \"#utility.yul\":263:277   */\n  lt\n    /* \"#utility.yul\":243:261   */\n  dup2\n    /* \"#utility.yul\":240:278   */\n  eq\n    /* \"#utility.yul\":237:321   */\n  iszero\n  tag_24\n  jumpi\n    /* \"#utility.yul\":293:311   */\n  tag_25\n  tag_26\n  jump\t// in\ntag_25:\n    /* \"#utility.yul\":237:321   */\ntag_24:\n    /* \"#utility.yul\":58:327   */\n  pop\n    /* \"#utility.yul\":7:327   */\n  swap2\n  swap1\n  pop\n  jump\t// out\n    /* \"#utility.yul\":333:513   */\ntag_26:\n    /* \"#utility.yul\":381:458   */\n  0x4e487b7100000000000000000000000000000000000000000000000000000000\n    /* \"#utility.yul\":378:379   */\n  0x00\n    /* \"#utility.yul\":371:459   */\n  mstore\n    /* \"#utility.yul\":478:482   */\n  0x22\n    /* \"#utility.yul\":475:476   */\n  0x04\n    /* \"#utility.yul\":468:483   */\n  mstore\n    /* \"#utility.yul\":502:506   */\n  0x24\n    /* \"#utility.yul\":499:500   */\n  0x00\n    /* \"#utility.yul\":492:507   */\n  revert\n    /* \"Qvoting.sol\":481:6071  contract Qvoting is proposalEvents, QVtoken{\r... */\ntag_9:\n  dataSize(sub_0)\n  dup1\n  dataOffset(sub_0)\n  0x00\n  codecopy\n  0x00\n  return\nstop\n\nsub_0: assembly {\n        /* \"Qvoting.sol\":481:6071  contract Qvoting is proposalEvents, QVtoken{\r... */\n      mstore(0x40, 0x80)\n      callvalue\n      dup1\n      iszero\n      tag_1\n      jumpi\n      0x00\n      dup1\n      revert\n    tag_1:\n      pop\n      jumpi(tag_2, lt(calldatasize, 0x04))\n      shr(0xe0, calldataload(0x00))\n      dup1\n      0x5c230eee\n      gt\n      tag_14\n      jumpi\n      dup1\n      0x5c230eee\n      eq\n      tag_8\n      jumpi\n      dup1\n      0x70a08231\n      eq\n      tag_9\n      jumpi\n      dup1\n      0x95d89b41\n      eq\n      tag_10\n      jumpi\n      dup1\n      0x9d671564\n      eq\n      tag_11\n      jumpi\n      dup1\n      0xab9c70d4\n      eq\n      tag_12\n      jumpi\n      dup1\n      0xe745d68e\n      eq\n      tag_13\n      jumpi\n      jump(tag_2)\n    tag_14:\n      dup1\n      0x013cf08b\n      eq\n      tag_3\n      jumpi\n      dup1\n      0x06fdde03\n      eq\n      tag_4\n      jumpi\n      dup1\n      0x18160ddd\n      eq\n      tag_5\n      jumpi\n      dup1\n      0x313ce567\n      eq\n      tag_6\n      jumpi\n      dup1\n      0x4de77e48\n      eq\n      tag_7\n      jumpi\n    tag_2:\n      0x00\n      dup1\n      revert\n        /* \"Qvoting.sol\":1304:1362  mapping(uint => proposalLibrary.proposal) public proposals */\n    tag_3:\n      tag_15\n      0x04\n      dup1\n      calldatasize\n      sub\n      dup2\n      add\n      swap1\n      tag_16\n      swap2\n      swap1\n      tag_17\n      jump\t// in\n    tag_16:\n      tag_18\n      jump\t// in\n    tag_15:\n      mload(0x40)\n      tag_19\n      swap8\n      swap7\n      swap6\n      swap5\n      swap4\n      swap3\n      swap2\n      swap1\n      tag_20\n      jump\t// in\n    tag_19:\n      mload(0x40)\n      dup1\n      swap2\n      sub\n      swap1\n      return\n        /* \"QvToken/ERC20.sol\":2202:2302  function name() public view virtual override returns (string memory) {\r... */\n    tag_4:\n      tag_21\n      tag_22\n      jump\t// in\n    tag_21:\n      mload(0x40)\n      tag_23\n      swap2\n      swap1\n      tag_24\n      jump\t// in\n    tag_23:\n      mload(0x40)\n      dup1\n      swap2\n      sub\n      swap1\n      return\n        /* \"QvToken/ERC20.sol\":3322:3430  function totalSupply() public view virtual override returns (uint256) {\r... */\n    tag_5:\n      tag_25\n      tag_26\n      jump\t// in\n    tag_25:\n      mload(0x40)\n      tag_27\n      swap2\n      swap1\n      tag_28\n      jump\t// in\n    tag_27:\n      mload(0x40)\n      dup1\n      swap2\n      sub\n      swap1\n      return\n        /* \"QvToken/ERC20.sol\":3164:3257  function decimals() public view virtual override returns (uint8) {\r... */\n    tag_6:\n      tag_29\n      tag_30\n      jump\t// in\n    tag_29:\n      mload(0x40)\n      tag_31\n      swap2\n      swap1\n      tag_32\n      jump\t// in\n    tag_31:\n      mload(0x40)\n      dup1\n      swap2\n      sub\n      swap1\n      return\n        /* \"Qvoting.sol\":1965:3262  function createProposal(uint8 _status, address[] memory _voters, address _creator,\r... */\n    tag_7:\n      tag_33\n      0x04\n      dup1\n      calldatasize\n      sub\n      dup2\n      add\n      swap1\n      tag_34\n      swap2\n      swap1\n      tag_35\n      jump\t// in\n    tag_34:\n      tag_36\n      jump\t// in\n    tag_33:\n      stop\n        /* \"Qvoting.sol\":3270:4519  function responseProposal(uint _proposalId, address _voter, string[] memory _hash, uint[] memory v) external {\r... */\n    tag_8:\n      tag_37\n      0x04\n      dup1\n      calldatasize\n      sub\n      dup2\n      add\n      swap1\n      tag_38\n      swap2\n      swap1\n      tag_39\n      jump\t// in\n    tag_38:\n      tag_40\n      jump\t// in\n    tag_37:\n      stop\n        /* \"QvToken/ERC20.sol\":3493:3620  function balanceOf(address account) public view virtual override returns (uint256) {\r... */\n    tag_9:\n      tag_41\n      0x04\n      dup1\n      calldatasize\n      sub\n      dup2\n      add\n      swap1\n      tag_42\n      swap2\n      swap1\n      tag_43\n      jump\t// in\n    tag_42:\n      tag_44\n      jump\t// in\n    tag_41:\n      mload(0x40)\n      tag_45\n      swap2\n      swap1\n      tag_28\n      jump\t// in\n    tag_45:\n      mload(0x40)\n      dup1\n      swap2\n      sub\n      swap1\n      return\n        /* \"QvToken/ERC20.sol\":2421:2525  function symbol() public view virtual override returns (string memory) {\r... */\n    tag_10:\n      tag_46\n      tag_47\n      jump\t// in\n    tag_46:\n      mload(0x40)\n      tag_48\n      swap2\n      swap1\n      tag_24\n      jump\t// in\n    tag_48:\n      mload(0x40)\n      dup1\n      swap2\n      sub\n      swap1\n      return\n        /* \"Qvoting.sol\":4611:4965  function resultOfProposal(uint _proposalId) public view returns(uint, string memory){\r... */\n    tag_11:\n      tag_49\n      0x04\n      dup1\n      calldatasize\n      sub\n      dup2\n      add\n      swap1\n      tag_50\n      swap2\n      swap1\n      tag_17\n      jump\t// in\n    tag_50:\n      tag_51\n      jump\t// in\n    tag_49:\n      mload(0x40)\n      tag_52\n      swap3\n      swap2\n      swap1\n      tag_53\n      jump\t// in\n    tag_52:\n      mload(0x40)\n      dup1\n      swap2\n      sub\n      swap1\n      return\n        /* \"Qvoting.sol\":1400:1472  mapping(address => mapping(uint => voterLibrary.voter)) public allVoters */\n    tag_12:\n      tag_54\n      0x04\n      dup1\n      calldatasize\n      sub\n      dup2\n      add\n      swap1\n      tag_55\n      swap2\n      swap1\n      tag_56\n      jump\t// in\n    tag_55:\n      tag_57\n      jump\t// in\n    tag_54:\n      mload(0x40)\n      tag_58\n      swap5\n      swap4\n      swap3\n      swap2\n      swap1\n      tag_59\n      jump\t// in\n    tag_58:\n      mload(0x40)\n      dup1\n      swap2\n      sub\n      swap1\n      return\n        /* \"Qvoting.sol\":1201:1273  mapping(address => UserProposalLibrary.UserProposal) public userProposal */\n    tag_13:\n      tag_60\n      0x04\n      dup1\n      calldatasize\n      sub\n      dup2\n      add\n      swap1\n      tag_61\n      swap2\n      swap1\n      tag_43\n      jump\t// in\n    tag_61:\n      tag_62\n      jump\t// in\n    tag_60:\n      mload(0x40)\n      tag_63\n      swap3\n      swap2\n      swap1\n      tag_64\n      jump\t// in\n    tag_63:\n      mload(0x40)\n      dup1\n      swap2\n      sub\n      swap1\n      return\n        /* \"Qvoting.sol\":1304:1362  mapping(uint => proposalLibrary.proposal) public proposals */\n    tag_18:\n      mstore(0x20, 0x07)\n      dup1\n      0x00\n      mstore\n      keccak256(0x00, 0x40)\n      0x00\n      swap2\n      pop\n      swap1\n      pop\n      dup1\n      0x00\n      add\n      0x00\n      swap1\n      sload\n      swap1\n      0x0100\n      exp\n      swap1\n      div\n      0xffffffffffffffffffffffffffffffffffffffff\n      and\n      swap1\n      dup1\n      0x00\n      add\n      0x14\n      swap1\n      sload\n      swap1\n      0x0100\n      exp\n      swap1\n      div\n      0xff\n      and\n      swap1\n      dup1\n      0x01\n      add\n      dup1\n      sload\n      tag_65\n      swap1\n      tag_66\n      jump\t// in\n    tag_65:\n      dup1\n      0x1f\n      add\n      0x20\n      dup1\n      swap2\n      div\n      mul\n      0x20\n      add\n      mload(0x40)\n      swap1\n      dup2\n      add\n      0x40\n      mstore\n      dup1\n      swap3\n      swap2\n      swap1\n      dup2\n      dup2\n      mstore\n      0x20\n      add\n      dup3\n      dup1\n      sload\n      tag_67\n      swap1\n      tag_66\n      jump\t// in\n    tag_67:\n      dup1\n      iszero\n      tag_68\n      jumpi\n      dup1\n      0x1f\n      lt\n      tag_69\n      jumpi\n      0x0100\n      dup1\n      dup4\n      sload\n      div\n      mul\n      dup4\n      mstore\n      swap2\n      0x20\n      add\n      swap2\n      jump(tag_68)\n    tag_69:\n      dup3\n      add\n      swap2\n      swap1\n      0x00\n      mstore\n      keccak256(0x00, 0x20)\n      swap1\n    tag_70:\n      dup2\n      sload\n      dup2\n      mstore\n      swap1\n      0x01\n      add\n      swap1\n      0x20\n      add\n      dup1\n      dup4\n      gt\n      tag_70\n      jumpi\n      dup3\n      swap1\n      sub\n      0x1f\n      and\n      dup3\n      add\n      swap2\n    tag_68:\n      pop\n      pop\n      pop\n      pop\n      pop\n      swap1\n      dup1\n      0x02\n      add\n      sload\n      swap1\n      dup1\n      0x03\n      add\n      sload\n      swap1\n      dup1\n      0x04\n      add\n      0x00\n      swap1\n      sload\n      swap1\n      0x0100\n      exp\n      swap1\n      div\n      0xffff\n      and\n      swap1\n      dup1\n      0x05\n      add\n      sload\n      swap1\n      pop\n      dup8\n      jump\t// out\n        /* \"QvToken/ERC20.sol\":2202:2302  function name() public view virtual override returns (string memory) {\r... */\n    tag_22:\n        /* \"QvToken/ERC20.sol\":2256:2269  string memory */\n      0x60\n        /* \"QvToken/ERC20.sol\":2289:2294  _name */\n      0x02\n        /* \"QvToken/ERC20.sol\":2282:2294  return _name */\n      dup1\n      sload\n      tag_72\n      swap1\n      tag_66\n      jump\t// in\n    tag_72:\n      dup1\n      0x1f\n      add\n      0x20\n      dup1\n      swap2\n      div\n      mul\n      0x20\n      add\n      mload(0x40)\n      swap1\n      dup2\n      add\n      0x40\n      mstore\n      dup1\n      swap3\n      swap2\n      swap1\n      dup2\n      dup2\n      mstore\n      0x20\n      add\n      dup3\n      dup1\n      sload\n      tag_73\n      swap1\n      tag_66\n      jump\t// in\n    tag_73:\n      dup1\n      iszero\n      tag_74\n      jumpi\n      dup1\n      0x1f\n      lt\n      tag_75\n      jumpi\n      0x0100\n      dup1\n      dup4\n      sload\n      div\n      mul\n      dup4\n      mstore\n      swap2\n      0x20\n      add\n      swap2\n      jump(tag_74)\n    tag_75:\n      dup3\n      add\n      swap2\n      swap1\n      0x00\n      mstore\n      keccak256(0x00, 0x20)\n      swap1\n    tag_76:\n      dup2\n      sload\n      dup2\n      mstore\n      swap1\n      0x01\n      add\n      swap1\n      0x20\n      add\n      dup1\n      dup4\n      gt\n      tag_76\n      jumpi\n      dup3\n      swap1\n      sub\n      0x1f\n      and\n      dup3\n      add\n      swap2\n    tag_74:\n      pop\n      pop\n      pop\n      pop\n      pop\n      swap1\n      pop\n        /* \"QvToken/ERC20.sol\":2202:2302  function name() public view virtual override returns (string memory) {\r... */\n      swap1\n      jump\t// out\n        /* \"QvToken/ERC20.sol\":3322:3430  function totalSupply() public view virtual override returns (uint256) {\r... */\n    tag_26:\n        /* \"QvToken/ERC20.sol\":3383:3390  uint256 */\n      0x00\n        /* \"QvToken/ERC20.sol\":3410:3422  _totalSupply */\n      sload(0x01)\n        /* \"QvToken/ERC20.sol\":3403:3422  return _totalSupply */\n      swap1\n      pop\n        /* \"QvToken/ERC20.sol\":3322:3430  function totalSupply() public view virtual override returns (uint256) {\r... */\n      swap1\n      jump\t// out\n        /* \"QvToken/ERC20.sol\":3164:3257  function decimals() public view virtual override returns (uint8) {\r... */\n    tag_30:\n        /* \"QvToken/ERC20.sol\":3222:3227  uint8 */\n      0x00\n        /* \"QvToken/ERC20.sol\":3247:3249  18 */\n      0x12\n        /* \"QvToken/ERC20.sol\":3240:3249  return 18 */\n      swap1\n      pop\n        /* \"QvToken/ERC20.sol\":3164:3257  function decimals() public view virtual override returns (uint8) {\r... */\n      swap1\n      jump\t// out\n        /* \"Qvoting.sol\":1965:3262  function createProposal(uint8 _status, address[] memory _voters, address _creator,\r... */\n    tag_36:\n        /* \"Qvoting.sol\":2339:2349  _startTime */\n      dup6\n        /* \"Qvoting.sol\":2321:2336  block.timestamp */\n      timestamp\n        /* \"Qvoting.sol\":2321:2349  block.timestamp < _startTime */\n      lt\n        /* \"Qvoting.sol\":2313:2373  require(block.timestamp < _startTime,\"proposal not started\") */\n      tag_80\n      jumpi\n      mload(0x40)\n      0x08c379a000000000000000000000000000000000000000000000000000000000\n      dup2\n      mstore\n      0x04\n      add\n      tag_81\n      swap1\n      tag_82\n      jump\t// in\n    tag_81:\n      mload(0x40)\n      dup1\n      swap2\n      sub\n      swap1\n      revert\n    tag_80:\n        /* \"Qvoting.sol\":2410:2425  _expirationTime */\n      dup5\n        /* \"Qvoting.sol\":2392:2407  block.timestamp */\n      timestamp\n        /* \"Qvoting.sol\":2392:2425  block.timestamp < _expirationTime */\n      lt\n        /* \"Qvoting.sol\":2384:2473  require(block.timestamp < _expirationTime,\"End time should be greater than current time\") */\n      tag_83\n      jumpi\n      mload(0x40)\n      0x08c379a000000000000000000000000000000000000000000000000000000000\n      dup2\n      mstore\n      0x04\n      add\n      tag_84\n      swap1\n      tag_85\n      jump\t// in\n    tag_84:\n      mload(0x40)\n      dup1\n      swap2\n      sub\n      swap1\n      revert\n    tag_83:\n        /* \"Qvoting.sol\":2505:2520  _expirationTime */\n      dup5\n        /* \"Qvoting.sol\":2492:2502  _startTime */\n      dup7\n        /* \"Qvoting.sol\":2492:2520  _startTime < _expirationTime */\n      lt\n        /* \"Qvoting.sol\":2484:2566  require(_startTime < _expirationTime,\"End time should be greater than start time\") */\n      tag_86\n      jumpi\n      mload(0x40)\n      0x08c379a000000000000000000000000000000000000000000000000000000000\n      dup2\n      mstore\n      0x04\n      add\n      tag_87\n      swap1\n      tag_88\n      jump\t// in\n    tag_87:\n      mload(0x40)\n      dup1\n      swap2\n      sub\n      swap1\n      revert\n    tag_86:\n        /* \"Qvoting.sol\":2579:2589  proposalId */\n      0x05\n      0x00\n        /* \"Qvoting.sol\":2579:2591  proposalId++ */\n      dup2\n      sload\n      dup1\n      swap3\n      swap2\n      swap1\n      tag_89\n      swap1\n      tag_90\n      jump\t// in\n    tag_89:\n      swap2\n      swap1\n      pop\n      sstore\n      pop\n        /* \"Qvoting.sol\":2602:2714  proposals[proposalId].createProposal(_status,_voters,_creator,_startTime,_expirationTime,_disc,_voteRight,_cand) */\n      tag_91\n        /* \"Qvoting.sol\":2639:2646  _status */\n      dup10\n        /* \"Qvoting.sol\":2647:2654  _voters */\n      dup10\n        /* \"Qvoting.sol\":2655:2663  _creator */\n      dup10\n        /* \"Qvoting.sol\":2664:2674  _startTime */\n      dup10\n        /* \"Qvoting.sol\":2675:2690  _expirationTime */\n      dup10\n        /* \"Qvoting.sol\":2691:2696  _disc */\n      dup10\n        /* \"Qvoting.sol\":2697:2707  _voteRight */\n      dup8\n        /* \"Qvoting.sol\":2708:2713  _cand */\n      dup11\n      dup11\n        /* \"Qvoting.sol\":2602:2611  proposals */\n      0x07\n        /* \"Qvoting.sol\":2602:2623  proposals[proposalId] */\n      0x00\n        /* \"Qvoting.sol\":2612:2622  proposalId */\n      sload(0x05)\n        /* \"Qvoting.sol\":2602:2623  proposals[proposalId] */\n      dup2\n      mstore\n      0x20\n      add\n      swap1\n      dup2\n      mstore\n      0x20\n      add\n      0x00\n      keccak256\n        /* \"Qvoting.sol\":2602:2638  proposals[proposalId].createProposal */\n      tag_92\n      swap1\n        /* \"Qvoting.sol\":2602:2714  proposals[proposalId].createProposal(_status,_voters,_creator,_startTime,_expirationTime,_disc,_voteRight,_cand) */\n      swap10\n      swap9\n      swap8\n      swap7\n      swap6\n      swap5\n      swap4\n      swap3\n      swap2\n      swap1\n      0xffffffff\n      and\n      jump\t// in\n    tag_91:\n      pop\n        /* \"Qvoting.sol\":2730:2814  ProposalCreated(proposalId, _voters,_creator,_startTime,_expirationTime,_disc,_cand) */\n      0x239a8a71a7d1cb0d134f6cc072ad6390e36a88c8e78dff69013ee79528441e80\n        /* \"Qvoting.sol\":2746:2756  proposalId */\n      sload(0x05)\n        /* \"Qvoting.sol\":2758:2765  _voters */\n      dup10\n        /* \"Qvoting.sol\":2766:2774  _creator */\n      dup10\n        /* \"Qvoting.sol\":2775:2785  _startTime */\n      dup10\n        /* \"Qvoting.sol\":2786:2801  _expirationTime */\n      dup10\n        /* \"Qvoting.sol\":2802:2807  _disc */\n      dup10\n        /* \"Qvoting.sol\":2808:2813  _cand */\n      dup10\n      dup10\n        /* \"Qvoting.sol\":2730:2814  ProposalCreated(proposalId, _voters,_creator,_startTime,_expirationTime,_disc,_cand) */\n      mload(0x40)\n      tag_93\n      swap9\n      swap8\n      swap7\n      swap6\n      swap5\n      swap4\n      swap3\n      swap2\n      swap1\n      tag_94\n      jump\t// in\n    tag_93:\n      mload(0x40)\n      dup1\n      swap2\n      sub\n      swap1\n      log1\n        /* \"Qvoting.sol\":2854:2858  true */\n      0x01\n        /* \"Qvoting.sol\":2825:2839  validProposals */\n      0x09\n        /* \"Qvoting.sol\":2825:2851  validProposals[proposalId] */\n      0x00\n        /* \"Qvoting.sol\":2840:2850  proposalId */\n      sload(0x05)\n        /* \"Qvoting.sol\":2825:2851  validProposals[proposalId] */\n      dup2\n      mstore\n      0x20\n      add\n      swap1\n      dup2\n      mstore\n      0x20\n      add\n      0x00\n      keccak256\n      0x00\n        /* \"Qvoting.sol\":2825:2858  validProposals[proposalId] = true */\n      0x0100\n      exp\n      dup2\n      sload\n      dup2\n      0xff\n      mul\n      not\n      and\n      swap1\n      dup4\n      iszero\n      iszero\n      mul\n      or\n      swap1\n      sstore\n      pop\n        /* \"Qvoting.sol\":2930:2939  uint256 i */\n      0x00\n        /* \"Qvoting.sol\":2926:3185  for(uint256 i=0;i<_voters.length;i++){\r... */\n    tag_95:\n        /* \"Qvoting.sol\":2944:2951  _voters */\n      dup9\n        /* \"Qvoting.sol\":2944:2958  _voters.length */\n      mload\n        /* \"Qvoting.sol\":2942:2943  i */\n      dup2\n        /* \"Qvoting.sol\":2942:2958  i<_voters.length */\n      lt\n        /* \"Qvoting.sol\":2926:3185  for(uint256 i=0;i<_voters.length;i++){\r... */\n      iszero\n      tag_96\n      jumpi\n        /* \"Qvoting.sol\":2978:3005  mint(_voters[i],_voteRight) */\n      tag_98\n        /* \"Qvoting.sol\":2983:2990  _voters */\n      dup10\n        /* \"Qvoting.sol\":2991:2992  i */\n      dup3\n        /* \"Qvoting.sol\":2983:2993  _voters[i] */\n      dup2\n      mload\n      dup2\n      lt\n      tag_99\n      jumpi\n      tag_100\n      tag_101\n      jump\t// in\n    tag_100:\n    tag_99:\n      0x20\n      mul\n      0x20\n      add\n      add\n      mload\n        /* \"Qvoting.sol\":2994:3004  _voteRight */\n      dup4\n        /* \"Qvoting.sol\":2978:2982  mint */\n      tag_102\n        /* \"Qvoting.sol\":2978:3005  mint(_voters[i],_voteRight) */\n      jump\t// in\n    tag_98:\n        /* \"Qvoting.sol\":3020:3108  allVoters[_voters[i]][proposalId].createVoter(proposalId, _voters[i], false, _voteRight) */\n      tag_103\n        /* \"Qvoting.sol\":3066:3076  proposalId */\n      sload(0x05)\n        /* \"Qvoting.sol\":3078:3085  _voters */\n      dup11\n        /* \"Qvoting.sol\":3086:3087  i */\n      dup4\n        /* \"Qvoting.sol\":3078:3088  _voters[i] */\n      dup2\n      mload\n      dup2\n      lt\n      tag_104\n      jumpi\n      tag_105\n      tag_101\n      jump\t// in\n    tag_105:\n    tag_104:\n      0x20\n      mul\n      0x20\n      add\n      add\n      mload\n        /* \"Qvoting.sol\":3090:3095  false */\n      0x00\n        /* \"Qvoting.sol\":3097:3107  _voteRight */\n      dup6\n        /* \"Qvoting.sol\":3020:3029  allVoters */\n      0x08\n        /* \"Qvoting.sol\":3020:3041  allVoters[_voters[i]] */\n      0x00\n        /* \"Qvoting.sol\":3030:3037  _voters */\n      dup16\n        /* \"Qvoting.sol\":3038:3039  i */\n      dup9\n        /* \"Qvoting.sol\":3030:3040  _voters[i] */\n      dup2\n      mload\n      dup2\n      lt\n      tag_106\n      jumpi\n      tag_107\n      tag_101\n      jump\t// in\n    tag_107:\n    tag_106:\n      0x20\n      mul\n      0x20\n      add\n      add\n      mload\n        /* \"Qvoting.sol\":3020:3041  allVoters[_voters[i]] */\n      0xffffffffffffffffffffffffffffffffffffffff\n      and\n      0xffffffffffffffffffffffffffffffffffffffff\n      and\n      dup2\n      mstore\n      0x20\n      add\n      swap1\n      dup2\n      mstore\n      0x20\n      add\n      0x00\n      keccak256\n        /* \"Qvoting.sol\":3020:3053  allVoters[_voters[i]][proposalId] */\n      0x00\n        /* \"Qvoting.sol\":3042:3052  proposalId */\n      sload(0x05)\n        /* \"Qvoting.sol\":3020:3053  allVoters[_voters[i]][proposalId] */\n      dup2\n      mstore\n      0x20\n      add\n      swap1\n      dup2\n      mstore\n      0x20\n      add\n      0x00\n      keccak256\n        /* \"Qvoting.sol\":3020:3065  allVoters[_voters[i]][proposalId].createVoter */\n      tag_108\n      swap1\n        /* \"Qvoting.sol\":3020:3108  allVoters[_voters[i]][proposalId].createVoter(proposalId, _voters[i], false, _voteRight) */\n      swap5\n      swap4\n      swap3\n      swap2\n      swap1\n      0xffffffff\n      and\n      jump\t// in\n    tag_103:\n      pop\n        /* \"Qvoting.sol\":3128:3169  mintAndburn(\"mint\",_voters[i],_voteRight) */\n      0xabf5327be9f5825c40d58bda541dd07f09b62df3376bbd5ecdbaa8bd82a9d492\n        /* \"Qvoting.sol\":3147:3154  _voters */\n      dup10\n        /* \"Qvoting.sol\":3155:3156  i */\n      dup3\n        /* \"Qvoting.sol\":3147:3157  _voters[i] */\n      dup2\n      mload\n      dup2\n      lt\n      tag_109\n      jumpi\n      tag_110\n      tag_101\n      jump\t// in\n    tag_110:\n    tag_109:\n      0x20\n      mul\n      0x20\n      add\n      add\n      mload\n        /* \"Qvoting.sol\":3158:3168  _voteRight */\n      dup4\n        /* \"Qvoting.sol\":3128:3169  mintAndburn(\"mint\",_voters[i],_voteRight) */\n      mload(0x40)\n      tag_111\n      swap3\n      swap2\n      swap1\n      tag_112\n      jump\t// in\n    tag_111:\n      mload(0x40)\n      dup1\n      swap2\n      sub\n      swap1\n      log1\n        /* \"Qvoting.sol\":2959:2962  i++ */\n      dup1\n      dup1\n      tag_113\n      swap1\n      tag_90\n      jump\t// in\n    tag_113:\n      swap2\n      pop\n      pop\n        /* \"Qvoting.sol\":2926:3185  for(uint256 i=0;i<_voters.length;i++){\r... */\n      jump(tag_95)\n    tag_96:\n      pop\n        /* \"Qvoting.sol\":3197:3254  userProposal[_msgSender()].updateProposalList(proposalId) */\n      tag_114\n        /* \"Qvoting.sol\":3243:3253  proposalId */\n      sload(0x05)\n        /* \"Qvoting.sol\":3197:3209  userProposal */\n      0x06\n        /* \"Qvoting.sol\":3197:3223  userProposal[_msgSender()] */\n      0x00\n        /* \"Qvoting.sol\":3210:3222  _msgSender() */\n      tag_115\n        /* \"Qvoting.sol\":3210:3220  _msgSender */\n      tag_116\n        /* \"Qvoting.sol\":3210:3222  _msgSender() */\n      jump\t// in\n    tag_115:\n        /* \"Qvoting.sol\":3197:3223  userProposal[_msgSender()] */\n      0xffffffffffffffffffffffffffffffffffffffff\n      and\n      0xffffffffffffffffffffffffffffffffffffffff\n      and\n      dup2\n      mstore\n      0x20\n      add\n      swap1\n      dup2\n      mstore\n      0x20\n      add\n      0x00\n      keccak256\n        /* \"Qvoting.sol\":3197:3242  userProposal[_msgSender()].updateProposalList */\n      tag_117\n      swap1\n        /* \"Qvoting.sol\":3197:3254  userProposal[_msgSender()].updateProposalList(proposalId) */\n      swap2\n      swap1\n      0xffffffff\n      and\n      jump\t// in\n    tag_114:\n      pop\n        /* \"Qvoting.sol\":1965:3262  function createProposal(uint8 _status, address[] memory _voters, address _creator,\r... */\n      pop\n      pop\n      pop\n      pop\n      pop\n      pop\n      pop\n      pop\n      pop\n      jump\t// out\n        /* \"Qvoting.sol\":3270:4519  function responseProposal(uint _proposalId, address _voter, string[] memory _hash, uint[] memory v) external {\r... */\n    tag_40:\n        /* \"Qvoting.sol\":3493:3507  validProposals */\n      0x09\n        /* \"Qvoting.sol\":3493:3520  validProposals[_proposalId] */\n      0x00\n        /* \"Qvoting.sol\":3508:3519  _proposalId */\n      dup6\n        /* \"Qvoting.sol\":3493:3520  validProposals[_proposalId] */\n      dup2\n      mstore\n      0x20\n      add\n      swap1\n      dup2\n      mstore\n      0x20\n      add\n      0x00\n      keccak256\n      0x00\n      swap1\n      sload\n      swap1\n      0x0100\n      exp\n      swap1\n      div\n      0xff\n      and\n        /* \"Qvoting.sol\":3485:3542  require(validProposals[_proposalId],\"invalid proposalId\") */\n      tag_119\n      jumpi\n      mload(0x40)\n      0x08c379a000000000000000000000000000000000000000000000000000000000\n      dup2\n      mstore\n      0x04\n      add\n      tag_120\n      swap1\n      tag_121\n      jump\t// in\n    tag_120:\n      mload(0x40)\n      dup1\n      swap2\n      sub\n      swap1\n      revert\n    tag_119:\n        /* \"Qvoting.sol\":3606:3617  _proposalId */\n      dup4\n        /* \"Qvoting.sol\":3561:3570  allVoters */\n      0x08\n        /* \"Qvoting.sol\":3561:3578  allVoters[_voter] */\n      0x00\n        /* \"Qvoting.sol\":3571:3577  _voter */\n      dup6\n        /* \"Qvoting.sol\":3561:3578  allVoters[_voter] */\n      0xffffffffffffffffffffffffffffffffffffffff\n      and\n      0xffffffffffffffffffffffffffffffffffffffff\n      and\n      dup2\n      mstore\n      0x20\n      add\n      swap1\n      dup2\n      mstore\n      0x20\n      add\n      0x00\n      keccak256\n        /* \"Qvoting.sol\":3561:3591  allVoters[_voter][_proposalId] */\n      0x00\n        /* \"Qvoting.sol\":3579:3590  _proposalId */\n      dup7\n        /* \"Qvoting.sol\":3561:3591  allVoters[_voter][_proposalId] */\n      dup2\n      mstore\n      0x20\n      add\n      swap1\n      dup2\n      mstore\n      0x20\n      add\n      0x00\n      keccak256\n        /* \"Qvoting.sol\":3561:3602  allVoters[_voter][_proposalId].proposalId */\n      0x00\n      add\n      sload\n        /* \"Qvoting.sol\":3561:3617  allVoters[_voter][_proposalId].proposalId == _proposalId */\n      eq\n        /* \"Qvoting.sol\":3553:3657  require(allVoters[_voter][_proposalId].proposalId == _proposalId, \"not a valid voter for this proposal\") */\n      tag_122\n      jumpi\n      mload(0x40)\n      0x08c379a000000000000000000000000000000000000000000000000000000000\n      dup2\n      mstore\n      0x04\n      add\n      tag_123\n      swap1\n      tag_124\n      jump\t// in\n    tag_123:\n      mload(0x40)\n      dup1\n      swap2\n      sub\n      swap1\n      revert\n    tag_122:\n        /* \"Qvoting.sol\":3738:3747  allVoters */\n      0x08\n        /* \"Qvoting.sol\":3738:3755  allVoters[_voter] */\n      0x00\n        /* \"Qvoting.sol\":3748:3754  _voter */\n      dup5\n        /* \"Qvoting.sol\":3738:3755  allVoters[_voter] */\n      0xffffffffffffffffffffffffffffffffffffffff\n      and\n      0xffffffffffffffffffffffffffffffffffffffff\n      and\n      dup2\n      mstore\n      0x20\n      add\n      swap1\n      dup2\n      mstore\n      0x20\n      add\n      0x00\n      keccak256\n        /* \"Qvoting.sol\":3738:3768  allVoters[_voter][_proposalId] */\n      0x00\n        /* \"Qvoting.sol\":3756:3767  _proposalId */\n      dup6\n        /* \"Qvoting.sol\":3738:3768  allVoters[_voter][_proposalId] */\n      dup2\n      mstore\n      0x20\n      add\n      swap1\n      dup2\n      mstore\n      0x20\n      add\n      0x00\n      keccak256\n        /* \"Qvoting.sol\":3738:3777  allVoters[_voter][_proposalId].hasVoted */\n      0x01\n      add\n      0x14\n      swap1\n      sload\n      swap1\n      0x0100\n      exp\n      swap1\n      div\n      0xff\n      and\n        /* \"Qvoting.sol\":3737:3777  !allVoters[_voter][_proposalId].hasVoted */\n      iszero\n        /* \"Qvoting.sol\":3729:3795  require(!allVoters[_voter][_proposalId].hasVoted, \"already voted\") */\n      tag_125\n      jumpi\n      mload(0x40)\n      0x08c379a000000000000000000000000000000000000000000000000000000000\n      dup2\n      mstore\n      0x04\n      add\n      tag_126\n      swap1\n      tag_127\n      jump\t// in\n    tag_126:\n      mload(0x40)\n      dup1\n      swap2\n      sub\n      swap1\n      revert\n    tag_125:\n        /* \"Qvoting.sol\":3852:3857  _hash */\n      dup2\n        /* \"Qvoting.sol\":3852:3864  _hash.length */\n      mload\n        /* \"Qvoting.sol\":3814:3823  proposals */\n      0x07\n        /* \"Qvoting.sol\":3814:3836  proposals[_proposalId] */\n      0x00\n        /* \"Qvoting.sol\":3824:3835  _proposalId */\n      dup7\n        /* \"Qvoting.sol\":3814:3836  proposals[_proposalId] */\n      dup2\n      mstore\n      0x20\n      add\n      swap1\n      dup2\n      mstore\n      0x20\n      add\n      0x00\n      keccak256\n        /* \"Qvoting.sol\":3814:3849  proposals[_proposalId].numOfOptions */\n      0x04\n      add\n      0x00\n      swap1\n      sload\n      swap1\n      0x0100\n      exp\n      swap1\n      div\n      0xffff\n      and\n        /* \"Qvoting.sol\":3814:3864  proposals[_proposalId].numOfOptions ==_hash.length */\n      0xffff\n      and\n      eq\n        /* \"Qvoting.sol\":3806:3905  require(proposals[_proposalId].numOfOptions ==_hash.length, \"not a valid length of hash response!\") */\n      tag_128\n      jumpi\n      mload(0x40)\n      0x08c379a000000000000000000000000000000000000000000000000000000000\n      dup2\n      mstore\n      0x04\n      add\n      tag_129\n      swap1\n      tag_130\n      jump\t// in\n    tag_129:\n      mload(0x40)\n      dup1\n      swap2\n      sub\n      swap1\n      revert\n    tag_128:\n        /* \"Qvoting.sol\":3916:3924  uint sum */\n      0x00\n        /* \"Qvoting.sol\":3941:3947  uint i */\n      dup1\n        /* \"Qvoting.sol\":3937:4006  for(uint i=0;i<v.length;i++){\r... */\n    tag_131:\n        /* \"Qvoting.sol\":3952:3953  v */\n      dup3\n        /* \"Qvoting.sol\":3952:3960  v.length */\n      mload\n        /* \"Qvoting.sol\":3950:3951  i */\n      dup2\n        /* \"Qvoting.sol\":3950:3960  i<v.length */\n      lt\n        /* \"Qvoting.sol\":3937:4006  for(uint i=0;i<v.length;i++){\r... */\n      iszero\n      tag_132\n      jumpi\n        /* \"Qvoting.sol\":3990:3991  v */\n      dup3\n        /* \"Qvoting.sol\":3992:3993  i */\n      dup2\n        /* \"Qvoting.sol\":3990:3994  v[i] */\n      dup2\n      mload\n      dup2\n      lt\n      tag_134\n      jumpi\n      tag_135\n      tag_101\n      jump\t// in\n    tag_135:\n    tag_134:\n      0x20\n      mul\n      0x20\n      add\n      add\n      mload\n        /* \"Qvoting.sol\":3985:3986  v */\n      dup4\n        /* \"Qvoting.sol\":3987:3988  i */\n      dup3\n        /* \"Qvoting.sol\":3985:3989  v[i] */\n      dup2\n      mload\n      dup2\n      lt\n      tag_136\n      jumpi\n      tag_137\n      tag_101\n      jump\t// in\n    tag_137:\n    tag_136:\n      0x20\n      mul\n      0x20\n      add\n      add\n      mload\n        /* \"Qvoting.sol\":3985:3994  v[i]*v[i] */\n      tag_138\n      swap2\n      swap1\n      tag_139\n      jump\t// in\n    tag_138:\n        /* \"Qvoting.sol\":3980:3994  sum+=v[i]*v[i] */\n      dup3\n      tag_140\n      swap2\n      swap1\n      tag_141\n      jump\t// in\n    tag_140:\n      swap2\n      pop\n        /* \"Qvoting.sol\":3961:3964  i++ */\n      dup1\n      dup1\n      tag_142\n      swap1\n      tag_90\n      jump\t// in\n    tag_142:\n      swap2\n      pop\n      pop\n        /* \"Qvoting.sol\":3937:4006  for(uint i=0;i<v.length;i++){\r... */\n      jump(tag_131)\n    tag_132:\n      pop\n        /* \"Qvoting.sol\":4066:4069  sum */\n      dup1\n        /* \"Qvoting.sol\":4024:4033  allVoters */\n      0x08\n        /* \"Qvoting.sol\":4024:4041  allVoters[_voter] */\n      0x00\n        /* \"Qvoting.sol\":4034:4040  _voter */\n      dup7\n        /* \"Qvoting.sol\":4024:4041  allVoters[_voter] */\n      0xffffffffffffffffffffffffffffffffffffffff\n      and\n      0xffffffffffffffffffffffffffffffffffffffff\n      and\n      dup2\n      mstore\n      0x20\n      add\n      swap1\n      dup2\n      mstore\n      0x20\n      add\n      0x00\n      keccak256\n        /* \"Qvoting.sol\":4024:4054  allVoters[_voter][_proposalId] */\n      0x00\n        /* \"Qvoting.sol\":4042:4053  _proposalId */\n      dup8\n        /* \"Qvoting.sol\":4024:4054  allVoters[_voter][_proposalId] */\n      dup2\n      mstore\n      0x20\n      add\n      swap1\n      dup2\n      mstore\n      0x20\n      add\n      0x00\n      keccak256\n        /* \"Qvoting.sol\":4024:4062  allVoters[_voter][_proposalId].voteNum */\n      0x02\n      add\n      sload\n        /* \"Qvoting.sol\":4024:4069  allVoters[_voter][_proposalId].voteNum >= sum */\n      lt\n      iszero\n        /* \"Qvoting.sol\":4016:4109  require(allVoters[_voter][_proposalId].voteNum >= sum, \"not sufficient balance to cast vote\") */\n      tag_143\n      jumpi\n      mload(0x40)\n      0x08c379a000000000000000000000000000000000000000000000000000000000\n      dup2\n      mstore\n      0x04\n      add\n      tag_144\n      swap1\n      tag_145\n      jump\t// in\n    tag_144:\n      mload(0x40)\n      dup1\n      swap2\n      sub\n      swap1\n      revert\n    tag_143:\n        /* \"Qvoting.sol\":4122:4178  proposals[_proposalId].responseProposal(_voter,_hash, v) */\n      tag_146\n        /* \"Qvoting.sol\":4162:4168  _voter */\n      dup5\n        /* \"Qvoting.sol\":4169:4174  _hash */\n      dup5\n        /* \"Qvoting.sol\":4176:4177  v */\n      dup5\n        /* \"Qvoting.sol\":4122:4131  proposals */\n      0x07\n        /* \"Qvoting.sol\":4122:4144  proposals[_proposalId] */\n      0x00\n        /* \"Qvoting.sol\":4132:4143  _proposalId */\n      dup11\n        /* \"Qvoting.sol\":4122:4144  proposals[_proposalId] */\n      dup2\n      mstore\n      0x20\n      add\n      swap1\n      dup2\n      mstore\n      0x20\n      add\n      0x00\n      keccak256\n        /* \"Qvoting.sol\":4122:4161  proposals[_proposalId].responseProposal */\n      tag_147\n      swap1\n        /* \"Qvoting.sol\":4122:4178  proposals[_proposalId].responseProposal(_voter,_hash, v) */\n      swap4\n      swap3\n      swap2\n      swap1\n      0xffffffff\n      and\n      jump\t// in\n    tag_146:\n      pop\n        /* \"Qvoting.sol\":4189:4254  userProposal[_msgSender()].updateResponseList(_proposalId, _hash) */\n      tag_148\n        /* \"Qvoting.sol\":4235:4246  _proposalId */\n      dup6\n        /* \"Qvoting.sol\":4248:4253  _hash */\n      dup5\n        /* \"Qvoting.sol\":4189:4201  userProposal */\n      0x06\n        /* \"Qvoting.sol\":4189:4215  userProposal[_msgSender()] */\n      0x00\n        /* \"Qvoting.sol\":4202:4214  _msgSender() */\n      tag_149\n        /* \"Qvoting.sol\":4202:4212  _msgSender */\n      tag_116\n        /* \"Qvoting.sol\":4202:4214  _msgSender() */\n      jump\t// in\n    tag_149:\n        /* \"Qvoting.sol\":4189:4215  userProposal[_msgSender()] */\n      0xffffffffffffffffffffffffffffffffffffffff\n      and\n      0xffffffffffffffffffffffffffffffffffffffff\n      and\n      dup2\n      mstore\n      0x20\n      add\n      swap1\n      dup2\n      mstore\n      0x20\n      add\n      0x00\n      keccak256\n        /* \"Qvoting.sol\":4189:4234  userProposal[_msgSender()].updateResponseList */\n      tag_150\n      swap1\n        /* \"Qvoting.sol\":4189:4254  userProposal[_msgSender()].updateResponseList(_proposalId, _hash) */\n      swap3\n      swap2\n      swap1\n      0xffffffff\n      and\n      jump\t// in\n    tag_148:\n      pop\n        /* \"Qvoting.sol\":4267:4313  allVoters[_voter][_proposalId].updateVoteNum() */\n      tag_151\n        /* \"Qvoting.sol\":4267:4276  allVoters */\n      0x08\n        /* \"Qvoting.sol\":4267:4284  allVoters[_voter] */\n      0x00\n        /* \"Qvoting.sol\":4277:4283  _voter */\n      dup7\n        /* \"Qvoting.sol\":4267:4284  allVoters[_voter] */\n      0xffffffffffffffffffffffffffffffffffffffff\n      and\n      0xffffffffffffffffffffffffffffffffffffffff\n      and\n      dup2\n      mstore\n      0x20\n      add\n      swap1\n      dup2\n      mstore\n      0x20\n      add\n      0x00\n      keccak256\n        /* \"Qvoting.sol\":4267:4297  allVoters[_voter][_proposalId] */\n      0x00\n        /* \"Qvoting.sol\":4285:4296  _proposalId */\n      dup8\n        /* \"Qvoting.sol\":4267:4297  allVoters[_voter][_proposalId] */\n      dup2\n      mstore\n      0x20\n      add\n      swap1\n      dup2\n      mstore\n      0x20\n      add\n      0x00\n      keccak256\n        /* \"Qvoting.sol\":4267:4311  allVoters[_voter][_proposalId].updateVoteNum */\n      tag_152\n        /* \"Qvoting.sol\":4267:4313  allVoters[_voter][_proposalId].updateVoteNum() */\n      jump\t// in\n    tag_151:\n      pop\n        /* \"Qvoting.sol\":4366:4370  true */\n      0x01\n        /* \"Qvoting.sol\":4324:4333  allVoters */\n      0x08\n        /* \"Qvoting.sol\":4324:4341  allVoters[_voter] */\n      0x00\n        /* \"Qvoting.sol\":4334:4340  _voter */\n      dup7\n        /* \"Qvoting.sol\":4324:4341  allVoters[_voter] */\n      0xffffffffffffffffffffffffffffffffffffffff\n      and\n      0xffffffffffffffffffffffffffffffffffffffff\n      and\n      dup2\n      mstore\n      0x20\n      add\n      swap1\n      dup2\n      mstore\n      0x20\n      add\n      0x00\n      keccak256\n        /* \"Qvoting.sol\":4324:4354  allVoters[_voter][_proposalId] */\n      0x00\n        /* \"Qvoting.sol\":4342:4353  _proposalId */\n      dup8\n        /* \"Qvoting.sol\":4324:4354  allVoters[_voter][_proposalId] */\n      dup2\n      mstore\n      0x20\n      add\n      swap1\n      dup2\n      mstore\n      0x20\n      add\n      0x00\n      keccak256\n        /* \"Qvoting.sol\":4324:4363  allVoters[_voter][_proposalId].hasVoted */\n      0x01\n      add\n      0x14\n        /* \"Qvoting.sol\":4324:4370  allVoters[_voter][_proposalId].hasVoted = true */\n      0x0100\n      exp\n      dup2\n      sload\n      dup2\n      0xff\n      mul\n      not\n      and\n      swap1\n      dup4\n      iszero\n      iszero\n      mul\n      or\n      swap1\n      sstore\n      pop\n        /* \"Qvoting.sol\":4381:4425  burn(_voter,proposals[proposalId].voteRight) */\n      tag_153\n        /* \"Qvoting.sol\":4386:4392  _voter */\n      dup5\n        /* \"Qvoting.sol\":4393:4402  proposals */\n      0x07\n        /* \"Qvoting.sol\":4393:4414  proposals[proposalId] */\n      0x00\n        /* \"Qvoting.sol\":4403:4413  proposalId */\n      sload(0x05)\n        /* \"Qvoting.sol\":4393:4414  proposals[proposalId] */\n      dup2\n      mstore\n      0x20\n      add\n      swap1\n      dup2\n      mstore\n      0x20\n      add\n      0x00\n      keccak256\n        /* \"Qvoting.sol\":4393:4424  proposals[proposalId].voteRight */\n      0x05\n      add\n      sload\n        /* \"Qvoting.sol\":4381:4385  burn */\n      tag_154\n        /* \"Qvoting.sol\":4381:4425  burn(_voter,proposals[proposalId].voteRight) */\n      jump\t// in\n    tag_153:\n        /* \"Qvoting.sol\":4441:4501  mintAndburn(\"burn\", _voter, proposals[proposalId].voteRight) */\n      0xabf5327be9f5825c40d58bda541dd07f09b62df3376bbd5ecdbaa8bd82a9d492\n        /* \"Qvoting.sol\":4461:4467  _voter */\n      dup5\n        /* \"Qvoting.sol\":4469:4478  proposals */\n      0x07\n        /* \"Qvoting.sol\":4469:4490  proposals[proposalId] */\n      0x00\n        /* \"Qvoting.sol\":4479:4489  proposalId */\n      sload(0x05)\n        /* \"Qvoting.sol\":4469:4490  proposals[proposalId] */\n      dup2\n      mstore\n      0x20\n      add\n      swap1\n      dup2\n      mstore\n      0x20\n      add\n      0x00\n      keccak256\n        /* \"Qvoting.sol\":4469:4500  proposals[proposalId].voteRight */\n      0x05\n      add\n      sload\n        /* \"Qvoting.sol\":4441:4501  mintAndburn(\"burn\", _voter, proposals[proposalId].voteRight) */\n      mload(0x40)\n      tag_155\n      swap3\n      swap2\n      swap1\n      tag_156\n      jump\t// in\n    tag_155:\n      mload(0x40)\n      dup1\n      swap2\n      sub\n      swap1\n      log1\n        /* \"Qvoting.sol\":3379:4519  {\r... */\n      pop\n        /* \"Qvoting.sol\":3270:4519  function responseProposal(uint _proposalId, address _voter, string[] memory _hash, uint[] memory v) external {\r... */\n      pop\n      pop\n      pop\n      pop\n      jump\t// out\n        /* \"QvToken/ERC20.sol\":3493:3620  function balanceOf(address account) public view virtual override returns (uint256) {\r... */\n    tag_44:\n        /* \"QvToken/ERC20.sol\":3567:3574  uint256 */\n      0x00\n        /* \"QvToken/ERC20.sol\":3594:3603  _balances */\n      dup1\n        /* \"QvToken/ERC20.sol\":3594:3612  _balances[account] */\n      0x00\n        /* \"QvToken/ERC20.sol\":3604:3611  account */\n      dup4\n        /* \"QvToken/ERC20.sol\":3594:3612  _balances[account] */\n      0xffffffffffffffffffffffffffffffffffffffff\n      and\n      0xffffffffffffffffffffffffffffffffffffffff\n      and\n      dup2\n      mstore\n      0x20\n      add\n      swap1\n      dup2\n      mstore\n      0x20\n      add\n      0x00\n      keccak256\n      sload\n        /* \"QvToken/ERC20.sol\":3587:3612  return _balances[account] */\n      swap1\n      pop\n        /* \"QvToken/ERC20.sol\":3493:3620  function balanceOf(address account) public view virtual override returns (uint256) {\r... */\n      swap2\n      swap1\n      pop\n      jump\t// out\n        /* \"QvToken/ERC20.sol\":2421:2525  function symbol() public view virtual override returns (string memory) {\r... */\n    tag_47:\n        /* \"QvToken/ERC20.sol\":2477:2490  string memory */\n      0x60\n        /* \"QvToken/ERC20.sol\":2510:2517  _symbol */\n      0x03\n        /* \"QvToken/ERC20.sol\":2503:2517  return _symbol */\n      dup1\n      sload\n      tag_159\n      swap1\n      tag_66\n      jump\t// in\n    tag_159:\n      dup1\n      0x1f\n      add\n      0x20\n      dup1\n      swap2\n      div\n      mul\n      0x20\n      add\n      mload(0x40)\n      swap1\n      dup2\n      add\n      0x40\n      mstore\n      dup1\n      swap3\n      swap2\n      swap1\n      dup2\n      dup2\n      mstore\n      0x20\n      add\n      dup3\n      dup1\n      sload\n      tag_160\n      swap1\n      tag_66\n      jump\t// in\n    tag_160:\n      dup1\n      iszero\n      tag_161\n      jumpi\n      dup1\n      0x1f\n      lt\n      tag_162\n      jumpi\n      0x0100\n      dup1\n      dup4\n      sload\n      div\n      mul\n      dup4\n      mstore\n      swap2\n      0x20\n      add\n      swap2\n      jump(tag_161)\n    tag_162:\n      dup3\n      add\n      swap2\n      swap1\n      0x00\n      mstore\n      keccak256(0x00, 0x20)\n      swap1\n    tag_163:\n      dup2\n      sload\n      dup2\n      mstore\n      swap1\n      0x01\n      add\n      swap1\n      0x20\n      add\n      dup1\n      dup4\n      gt\n      tag_163\n      jumpi\n      dup3\n      swap1\n      sub\n      0x1f\n      and\n      dup3\n      add\n      swap2\n    tag_161:\n      pop\n      pop\n      pop\n      pop\n      pop\n      swap1\n      pop\n        /* \"QvToken/ERC20.sol\":2421:2525  function symbol() public view virtual override returns (string memory) {\r... */\n      swap1\n      jump\t// out\n        /* \"Qvoting.sol\":4611:4965  function resultOfProposal(uint _proposalId) public view returns(uint, string memory){\r... */\n    tag_51:\n        /* \"Qvoting.sol\":4675:4679  uint */\n      0x00\n        /* \"Qvoting.sol\":4681:4694  string memory */\n      0x60\n        /* \"Qvoting.sol\":4714:4728  validProposals */\n      0x09\n        /* \"Qvoting.sol\":4714:4741  validProposals[_proposalId] */\n      0x00\n        /* \"Qvoting.sol\":4729:4740  _proposalId */\n      dup5\n        /* \"Qvoting.sol\":4714:4741  validProposals[_proposalId] */\n      dup2\n      mstore\n      0x20\n      add\n      swap1\n      dup2\n      mstore\n      0x20\n      add\n      0x00\n      keccak256\n      0x00\n      swap1\n      sload\n      swap1\n      0x0100\n      exp\n      swap1\n      div\n      0xff\n      and\n        /* \"Qvoting.sol\":4706:4765  require(validProposals[_proposalId],\"not a valid proposal\") */\n      tag_165\n      jumpi\n      mload(0x40)\n      0x08c379a000000000000000000000000000000000000000000000000000000000\n      dup2\n      mstore\n      0x04\n      add\n      tag_166\n      swap1\n      tag_167\n      jump\t// in\n    tag_166:\n      mload(0x40)\n      dup1\n      swap2\n      sub\n      swap1\n      revert\n    tag_165:\n        /* \"Qvoting.sol\":4859:4868  proposals */\n      0x07\n        /* \"Qvoting.sol\":4859:4881  proposals[_proposalId] */\n      0x00\n        /* \"Qvoting.sol\":4869:4880  _proposalId */\n      dup5\n        /* \"Qvoting.sol\":4859:4881  proposals[_proposalId] */\n      dup2\n      mstore\n      0x20\n      add\n      swap1\n      dup2\n      mstore\n      0x20\n      add\n      0x00\n      keccak256\n        /* \"Qvoting.sol\":4859:4887  proposals[_proposalId].votes */\n      0x0a\n      add\n        /* \"Qvoting.sol\":4888:4897  proposals */\n      0x07\n        /* \"Qvoting.sol\":4888:4910  proposals[_proposalId] */\n      0x00\n        /* \"Qvoting.sol\":4898:4909  _proposalId */\n      dup6\n        /* \"Qvoting.sol\":4888:4910  proposals[_proposalId] */\n      dup2\n      mstore\n      0x20\n      add\n      swap1\n      dup2\n      mstore\n      0x20\n      add\n      0x00\n      keccak256\n        /* \"Qvoting.sol\":4888:4917  proposals[_proposalId].result */\n      0x09\n      add\n        /* \"Qvoting.sol\":4888:4920  proposals[_proposalId].result[1] */\n      0x00\n        /* \"Qvoting.sol\":4918:4919  1 */\n      0x01\n        /* \"Qvoting.sol\":4888:4920  proposals[_proposalId].result[1] */\n      dup2\n      mstore\n      0x20\n      add\n      swap1\n      dup2\n      mstore\n      0x20\n      add\n      0x00\n      keccak256\n        /* \"Qvoting.sol\":4859:4921  proposals[_proposalId].votes[proposals[_proposalId].result[1]] */\n      mload(0x40)\n      tag_168\n      swap2\n      swap1\n      tag_169\n      jump\t// in\n    tag_168:\n      swap1\n      dup2\n      mstore\n      0x20\n      add\n      mload(0x40)\n      dup1\n      swap2\n      sub\n      swap1\n      keccak256\n      sload\n        /* \"Qvoting.sol\":4922:4931  proposals */\n      0x07\n        /* \"Qvoting.sol\":4922:4944  proposals[_proposalId] */\n      0x00\n        /* \"Qvoting.sol\":4932:4943  _proposalId */\n      dup6\n        /* \"Qvoting.sol\":4922:4944  proposals[_proposalId] */\n      dup2\n      mstore\n      0x20\n      add\n      swap1\n      dup2\n      mstore\n      0x20\n      add\n      0x00\n      keccak256\n        /* \"Qvoting.sol\":4922:4951  proposals[_proposalId].result */\n      0x09\n      add\n        /* \"Qvoting.sol\":4922:4954  proposals[_proposalId].result[1] */\n      0x00\n        /* \"Qvoting.sol\":4952:4953  1 */\n      0x01\n        /* \"Qvoting.sol\":4922:4954  proposals[_proposalId].result[1] */\n      dup2\n      mstore\n      0x20\n      add\n      swap1\n      dup2\n      mstore\n      0x20\n      add\n      0x00\n      keccak256\n        /* \"Qvoting.sol\":4851:4955  return (proposals[_proposalId].votes[proposals[_proposalId].result[1]],proposals[_proposalId].result[1]) */\n      dup1\n      dup1\n      sload\n      tag_170\n      swap1\n      tag_66\n      jump\t// in\n    tag_170:\n      dup1\n      0x1f\n      add\n      0x20\n      dup1\n      swap2\n      div\n      mul\n      0x20\n      add\n      mload(0x40)\n      swap1\n      dup2\n      add\n      0x40\n      mstore\n      dup1\n      swap3\n      swap2\n      swap1\n      dup2\n      dup2\n      mstore\n      0x20\n      add\n      dup3\n      dup1\n      sload\n      tag_171\n      swap1\n      tag_66\n      jump\t// in\n    tag_171:\n      dup1\n      iszero\n      tag_172\n      jumpi\n      dup1\n      0x1f\n      lt\n      tag_173\n      jumpi\n      0x0100\n      dup1\n      dup4\n      sload\n      div\n      mul\n      dup4\n      mstore\n      swap2\n      0x20\n      add\n      swap2\n      jump(tag_172)\n    tag_173:\n      dup3\n      add\n      swap2\n      swap1\n      0x00\n      mstore\n      keccak256(0x00, 0x20)\n      swap1\n    tag_174:\n      dup2\n      sload\n      dup2\n      mstore\n      swap1\n      0x01\n      add\n      swap1\n      0x20\n      add\n      dup1\n      dup4\n      gt\n      tag_174\n      jumpi\n      dup3\n      swap1\n      sub\n      0x1f\n      and\n      dup3\n      add\n      swap2\n    tag_172:\n      pop\n      pop\n      pop\n      pop\n      pop\n      swap1\n      pop\n      swap2\n      pop\n      swap2\n      pop\n        /* \"Qvoting.sol\":4611:4965  function resultOfProposal(uint _proposalId) public view returns(uint, string memory){\r... */\n      swap2\n      pop\n      swap2\n      jump\t// out\n        /* \"Qvoting.sol\":1400:1472  mapping(address => mapping(uint => voterLibrary.voter)) public allVoters */\n    tag_57:\n      mstore(0x20, 0x08)\n      dup2\n      0x00\n      mstore\n      mstore(0x20, keccak256(0x00, 0x40))\n      dup1\n      0x00\n      mstore\n      keccak256(0x00, 0x40)\n      0x00\n      swap2\n      pop\n      swap2\n      pop\n      pop\n      dup1\n      0x00\n      add\n      sload\n      swap1\n      dup1\n      0x01\n      add\n      0x00\n      swap1\n      sload\n      swap1\n      0x0100\n      exp\n      swap1\n      div\n      0xffffffffffffffffffffffffffffffffffffffff\n      and\n      swap1\n      dup1\n      0x01\n      add\n      0x14\n      swap1\n      sload\n      swap1\n      0x0100\n      exp\n      swap1\n      div\n      0xff\n      and\n      swap1\n      dup1\n      0x02\n      add\n      sload\n      swap1\n      pop\n      dup5\n      jump\t// out\n        /* \"Qvoting.sol\":1201:1273  mapping(address => UserProposalLibrary.UserProposal) public userProposal */\n    tag_62:\n      mstore(0x20, 0x06)\n      dup1\n      0x00\n      mstore\n      keccak256(0x00, 0x40)\n      0x00\n      swap2\n      pop\n      swap1\n      pop\n      dup1\n      0x00\n      add\n      0x00\n      swap1\n      sload\n      swap1\n      0x0100\n      exp\n      swap1\n      div\n      0xffffffffffffffffffffffffffffffff\n      and\n      swap1\n      dup1\n      0x00\n      add\n      0x10\n      swap1\n      sload\n      swap1\n      0x0100\n      exp\n      swap1\n      div\n      0xffffffffffffffffffffffffffffffff\n      and\n      swap1\n      pop\n      dup3\n      jump\t// out\n        /* \"Library/ProposalLibrary.sol\":806:1983  function createProposal(proposal storage self, uint8 _status, address[] memory _voters, address _creator,\r... */\n    tag_92:\n        /* \"Library/ProposalLibrary.sol\":1044:1048  bool */\n      0x00\n        /* \"Library/ProposalLibrary.sol\":1099:1107  _creator */\n      dup8\n        /* \"Library/ProposalLibrary.sol\":1084:1088  self */\n      dup12\n        /* \"Library/ProposalLibrary.sol\":1084:1096  self.creator */\n      0x00\n      add\n      0x00\n        /* \"Library/ProposalLibrary.sol\":1084:1107  self.creator = _creator */\n      0x0100\n      exp\n      dup2\n      sload\n      dup2\n      0xffffffffffffffffffffffffffffffffffffffff\n      mul\n      not\n      and\n      swap1\n      dup4\n      0xffffffffffffffffffffffffffffffffffffffff\n      and\n      mul\n      or\n      swap1\n      sstore\n      pop\n        /* \"Library/ProposalLibrary.sol\":1156:1163  _status */\n      dup10\n        /* \"Library/ProposalLibrary.sol\":1142:1146  self */\n      dup12\n        /* \"Library/ProposalLibrary.sol\":1142:1153  self.status */\n      0x00\n      add\n      0x14\n        /* \"Library/ProposalLibrary.sol\":1142:1163  self.status = _status */\n      0x0100\n      exp\n      dup2\n      sload\n      dup2\n      0xff\n      mul\n      not\n      and\n      swap1\n      dup4\n      0xff\n      and\n      mul\n      or\n      swap1\n      sstore\n      pop\n        /* \"Library/ProposalLibrary.sol\":1210:1215  _disc */\n      dup5\n        /* \"Library/ProposalLibrary.sol\":1198:1202  self */\n      dup12\n        /* \"Library/ProposalLibrary.sol\":1198:1207  self.disc */\n      0x01\n      add\n        /* \"Library/ProposalLibrary.sol\":1198:1215  self.disc = _disc */\n      swap1\n      dup1\n      mload\n      swap1\n      0x20\n      add\n      swap1\n      tag_176\n      swap3\n      swap2\n      swap1\n      tag_177\n      jump\t// in\n    tag_176:\n      pop\n        /* \"Library/ProposalLibrary.sol\":1267:1277  _startTime */\n      dup7\n        /* \"Library/ProposalLibrary.sol\":1250:1254  self */\n      dup12\n        /* \"Library/ProposalLibrary.sol\":1250:1264  self.startTime */\n      0x02\n      add\n        /* \"Library/ProposalLibrary.sol\":1250:1277  self.startTime = _startTime */\n      dup2\n      swap1\n      sstore\n      pop\n        /* \"Library/ProposalLibrary.sol\":1334:1349  _expirationTime */\n      dup6\n        /* \"Library/ProposalLibrary.sol\":1312:1316  self */\n      dup12\n        /* \"Library/ProposalLibrary.sol\":1312:1331  self.expirationTime */\n      0x03\n      add\n        /* \"Library/ProposalLibrary.sol\":1312:1349  self.expirationTime = _expirationTime */\n      dup2\n      swap1\n      sstore\n      pop\n        /* \"Library/ProposalLibrary.sol\":1411:1416  _cand */\n      dup3\n      dup3\n        /* \"Library/ProposalLibrary.sol\":1411:1423  _cand.length */\n      swap1\n      pop\n        /* \"Library/ProposalLibrary.sol\":1384:1388  self */\n      dup12\n        /* \"Library/ProposalLibrary.sol\":1384:1401  self.numOfOptions */\n      0x04\n      add\n      0x00\n        /* \"Library/ProposalLibrary.sol\":1384:1424  self.numOfOptions = uint16(_cand.length) */\n      0x0100\n      exp\n      dup2\n      sload\n      dup2\n      0xffff\n      mul\n      not\n      and\n      swap1\n      dup4\n      0xffff\n      and\n      mul\n      or\n      swap1\n      sstore\n      pop\n        /* \"Library/ProposalLibrary.sol\":1476:1486  _voteRight */\n      dup4\n        /* \"Library/ProposalLibrary.sol\":1459:1463  self */\n      dup12\n        /* \"Library/ProposalLibrary.sol\":1459:1473  self.voteRight */\n      0x05\n      add\n        /* \"Library/ProposalLibrary.sol\":1459:1486  self.voteRight = _voteRight */\n      dup2\n      swap1\n      sstore\n      pop\n        /* \"Library/ProposalLibrary.sol\":1525:1534  uint256 i */\n      0x00\n        /* \"Library/ProposalLibrary.sol\":1521:1726  for(uint256 i=0;i<_cand.length;i++){\r... */\n    tag_178:\n        /* \"Library/ProposalLibrary.sol\":1539:1544  _cand */\n      dup4\n      dup4\n        /* \"Library/ProposalLibrary.sol\":1539:1551  _cand.length */\n      swap1\n      pop\n        /* \"Library/ProposalLibrary.sol\":1537:1538  i */\n      dup2\n        /* \"Library/ProposalLibrary.sol\":1537:1551  i<_cand.length */\n      lt\n        /* \"Library/ProposalLibrary.sol\":1521:1726  for(uint256 i=0;i<_cand.length;i++){\r... */\n      iszero\n      tag_179\n      jumpi\n        /* \"Library/ProposalLibrary.sol\":1617:1621  true */\n      0x01\n        /* \"Library/ProposalLibrary.sol\":1595:1599  self */\n      dup13\n        /* \"Library/ProposalLibrary.sol\":1595:1604  self.cand */\n      0x07\n      add\n        /* \"Library/ProposalLibrary.sol\":1605:1610  _cand */\n      dup6\n      dup6\n        /* \"Library/ProposalLibrary.sol\":1611:1612  i */\n      dup5\n        /* \"Library/ProposalLibrary.sol\":1605:1613  _cand[i] */\n      dup2\n      dup2\n      lt\n      tag_181\n      jumpi\n      tag_182\n      tag_101\n      jump\t// in\n    tag_182:\n    tag_181:\n      swap1\n      pop\n      0x20\n      mul\n      dup2\n      add\n      swap1\n      tag_183\n      swap2\n      swap1\n      tag_184\n      jump\t// in\n    tag_183:\n        /* \"Library/ProposalLibrary.sol\":1595:1614  self.cand[_cand[i]] */\n      mload(0x40)\n      tag_185\n      swap3\n      swap2\n      swap1\n      tag_186\n      jump\t// in\n    tag_185:\n      swap1\n      dup2\n      mstore\n      0x20\n      add\n      mload(0x40)\n      dup1\n      swap2\n      sub\n      swap1\n      keccak256\n      0x00\n        /* \"Library/ProposalLibrary.sol\":1595:1621  self.cand[_cand[i]] = true */\n      0x0100\n      exp\n      dup2\n      sload\n      dup2\n      0xff\n      mul\n      not\n      and\n      swap1\n      dup4\n      iszero\n      iszero\n      mul\n      or\n      swap1\n      sstore\n      pop\n        /* \"Library/ProposalLibrary.sol\":1682:1687  _cand */\n      dup4\n      dup4\n        /* \"Library/ProposalLibrary.sol\":1688:1689  i */\n      dup3\n        /* \"Library/ProposalLibrary.sol\":1682:1690  _cand[i] */\n      dup2\n      dup2\n      lt\n      tag_187\n      jumpi\n      tag_188\n      tag_101\n      jump\t// in\n    tag_188:\n    tag_187:\n      swap1\n      pop\n      0x20\n      mul\n      dup2\n      add\n      swap1\n      tag_189\n      swap2\n      swap1\n      tag_184\n      jump\t// in\n    tag_189:\n        /* \"Library/ProposalLibrary.sol\":1660:1664  self */\n      dup14\n        /* \"Library/ProposalLibrary.sol\":1660:1673  self.candHash */\n      0x08\n      add\n        /* \"Library/ProposalLibrary.sol\":1660:1678  self.candHash[i+1] */\n      0x00\n        /* \"Library/ProposalLibrary.sol\":1676:1677  1 */\n      0x01\n        /* \"Library/ProposalLibrary.sol\":1674:1675  i */\n      dup6\n        /* \"Library/ProposalLibrary.sol\":1674:1677  i+1 */\n      tag_190\n      swap2\n      swap1\n      tag_141\n      jump\t// in\n    tag_190:\n        /* \"Library/ProposalLibrary.sol\":1660:1678  self.candHash[i+1] */\n      dup2\n      mstore\n      0x20\n      add\n      swap1\n      dup2\n      mstore\n      0x20\n      add\n      0x00\n      keccak256\n        /* \"Library/ProposalLibrary.sol\":1660:1690  self.candHash[i+1] =  _cand[i] */\n      swap2\n      swap1\n      tag_191\n      swap3\n      swap2\n      swap1\n      tag_192\n      jump\t// in\n    tag_191:\n      pop\n        /* \"Library/ProposalLibrary.sol\":1552:1555  i++ */\n      dup1\n      dup1\n      tag_193\n      swap1\n      tag_90\n      jump\t// in\n    tag_193:\n      swap2\n      pop\n      pop\n        /* \"Library/ProposalLibrary.sol\":1521:1726  for(uint256 i=0;i<_cand.length;i++){\r... */\n      jump(tag_178)\n    tag_179:\n      pop\n        /* \"Library/ProposalLibrary.sol\":1764:1773  uint256 i */\n      0x00\n        /* \"Library/ProposalLibrary.sol\":1760:1902  for(uint256 i=0;i<_voters.length;i++){\r... */\n    tag_194:\n        /* \"Library/ProposalLibrary.sol\":1778:1785  _voters */\n      dup10\n        /* \"Library/ProposalLibrary.sol\":1778:1792  _voters.length */\n      mload\n        /* \"Library/ProposalLibrary.sol\":1776:1777  i */\n      dup2\n        /* \"Library/ProposalLibrary.sol\":1776:1792  i<_voters.length */\n      lt\n        /* \"Library/ProposalLibrary.sol\":1760:1902  for(uint256 i=0;i<_voters.length;i++){\r... */\n      iszero\n      tag_195\n      jumpi\n        /* \"Library/ProposalLibrary.sol\":1862:1866  true */\n      0x01\n        /* \"Library/ProposalLibrary.sol\":1836:1840  self */\n      dup13\n        /* \"Library/ProposalLibrary.sol\":1836:1847  self.voters */\n      0x06\n      add\n        /* \"Library/ProposalLibrary.sol\":1836:1859  self.voters[_voters[i]] */\n      0x00\n        /* \"Library/ProposalLibrary.sol\":1848:1855  _voters */\n      dup13\n        /* \"Library/ProposalLibrary.sol\":1856:1857  i */\n      dup5\n        /* \"Library/ProposalLibrary.sol\":1848:1858  _voters[i] */\n      dup2\n      mload\n      dup2\n      lt\n      tag_197\n      jumpi\n      tag_198\n      tag_101\n      jump\t// in\n    tag_198:\n    tag_197:\n      0x20\n      mul\n      0x20\n      add\n      add\n      mload\n        /* \"Library/ProposalLibrary.sol\":1836:1859  self.voters[_voters[i]] */\n      0xffffffffffffffffffffffffffffffffffffffff\n      and\n      0xffffffffffffffffffffffffffffffffffffffff\n      and\n      dup2\n      mstore\n      0x20\n      add\n      swap1\n      dup2\n      mstore\n      0x20\n      add\n      0x00\n      keccak256\n      0x00\n        /* \"Library/ProposalLibrary.sol\":1836:1866  self.voters[_voters[i]] = true */\n      0x0100\n      exp\n      dup2\n      sload\n      dup2\n      0xff\n      mul\n      not\n      and\n      swap1\n      dup4\n      iszero\n      iszero\n      mul\n      or\n      swap1\n      sstore\n      pop\n        /* \"Library/ProposalLibrary.sol\":1793:1796  i++ */\n      dup1\n      dup1\n      tag_199\n      swap1\n      tag_90\n      jump\t// in\n    tag_199:\n      swap2\n      pop\n      pop\n        /* \"Library/ProposalLibrary.sol\":1760:1902  for(uint256 i=0;i<_voters.length;i++){\r... */\n      jump(tag_194)\n    tag_195:\n      pop\n        /* \"Library/ProposalLibrary.sol\":1945:1949  true */\n      0x01\n        /* \"Library/ProposalLibrary.sol\":1938:1949  return true */\n      swap1\n      pop\n        /* \"Library/ProposalLibrary.sol\":806:1983  function createProposal(proposal storage self, uint8 _status, address[] memory _voters, address _creator,\r... */\n      swap11\n      swap10\n      pop\n      pop\n      pop\n      pop\n      pop\n      pop\n      pop\n      pop\n      pop\n      pop\n      jump\t// out\n        /* \"QvToken/QvToken.sol\":398:502  function mint(address to , uint amount) onlyOwner(_msgSender()) internal {\r... */\n    tag_102:\n        /* \"QvToken/QvToken.sol\":448:460  _msgSender() */\n      tag_200\n        /* \"QvToken/QvToken.sol\":448:458  _msgSender */\n      tag_116\n        /* \"QvToken/QvToken.sol\":448:460  _msgSender() */\n      jump\t// in\n    tag_200:\n        /* \"QvToken/QvToken.sol\":366:375  msgSender */\n      dup1\n        /* \"QvToken/QvToken.sol\":357:375  owner == msgSender */\n      0xffffffffffffffffffffffffffffffffffffffff\n      and\n        /* \"QvToken/QvToken.sol\":357:362  owner */\n      0x04\n      0x00\n      swap1\n      sload\n      swap1\n      0x0100\n      exp\n      swap1\n      div\n      0xffffffffffffffffffffffffffffffffffffffff\n      and\n        /* \"QvToken/QvToken.sol\":357:375  owner == msgSender */\n      0xffffffffffffffffffffffffffffffffffffffff\n      and\n      eq\n        /* \"QvToken/QvToken.sol\":349:376  require(owner == msgSender) */\n      tag_202\n      jumpi\n      0x00\n      dup1\n      revert\n    tag_202:\n        /* \"QvToken/QvToken.sol\":478:494  _mint(to,amount) */\n      tag_204\n        /* \"QvToken/QvToken.sol\":484:486  to */\n      dup4\n        /* \"QvToken/QvToken.sol\":487:493  amount */\n      dup4\n        /* \"QvToken/QvToken.sol\":478:483  _mint */\n      tag_205\n        /* \"QvToken/QvToken.sol\":478:494  _mint(to,amount) */\n      jump\t// in\n    tag_204:\n        /* \"QvToken/QvToken.sol\":398:502  function mint(address to , uint amount) onlyOwner(_msgSender()) internal {\r... */\n      pop\n      pop\n      pop\n      jump\t// out\n        /* \"Library/VoterLibrary.sol\":1090:1525  function createVoter(voter storage self, uint _proposalId, address _voterAddress, bool _hasVoted, uint _voteNum) internal returns(bool){\r... */\n    tag_108:\n        /* \"Library/VoterLibrary.sol\":1220:1224  bool */\n      0x00\n        /* \"Library/VoterLibrary.sol\":1278:1289  _proposalId */\n      dup5\n        /* \"Library/VoterLibrary.sol\":1260:1264  self */\n      dup7\n        /* \"Library/VoterLibrary.sol\":1260:1275  self.proposalId */\n      0x00\n      add\n        /* \"Library/VoterLibrary.sol\":1260:1289  self.proposalId = _proposalId */\n      dup2\n      swap1\n      sstore\n      pop\n        /* \"Library/VoterLibrary.sol\":1344:1357  _voterAddress */\n      dup4\n        /* \"Library/VoterLibrary.sol\":1324:1328  self */\n      dup7\n        /* \"Library/VoterLibrary.sol\":1324:1341  self.voterAddress */\n      0x01\n      add\n      0x00\n        /* \"Library/VoterLibrary.sol\":1324:1357  self.voterAddress = _voterAddress */\n      0x0100\n      exp\n      dup2\n      sload\n      dup2\n      0xffffffffffffffffffffffffffffffffffffffff\n      mul\n      not\n      and\n      swap1\n      dup4\n      0xffffffffffffffffffffffffffffffffffffffff\n      and\n      mul\n      or\n      swap1\n      sstore\n      pop\n        /* \"Library/VoterLibrary.sol\":1408:1417  _hasVoted */\n      dup3\n        /* \"Library/VoterLibrary.sol\":1392:1396  self */\n      dup7\n        /* \"Library/VoterLibrary.sol\":1392:1405  self.hasVoted */\n      0x01\n      add\n      0x14\n        /* \"Library/VoterLibrary.sol\":1392:1417  self.hasVoted = _hasVoted */\n      0x0100\n      exp\n      dup2\n      sload\n      dup2\n      0xff\n      mul\n      not\n      and\n      swap1\n      dup4\n      iszero\n      iszero\n      mul\n      or\n      swap1\n      sstore\n      pop\n        /* \"Library/VoterLibrary.sol\":1467:1475  _voteNum */\n      dup2\n        /* \"Library/VoterLibrary.sol\":1452:1456  self */\n      dup7\n        /* \"Library/VoterLibrary.sol\":1452:1464  self.voteNum */\n      0x02\n      add\n        /* \"Library/VoterLibrary.sol\":1452:1475  self.voteNum = _voteNum */\n      dup2\n      swap1\n      sstore\n      pop\n        /* \"Library/VoterLibrary.sol\":1517:1521  true */\n      0x01\n        /* \"Library/VoterLibrary.sol\":1510:1521  return true */\n      swap1\n      pop\n        /* \"Library/VoterLibrary.sol\":1090:1525  function createVoter(voter storage self, uint _proposalId, address _voterAddress, bool _hasVoted, uint _voteNum) internal returns(bool){\r... */\n      swap6\n      swap5\n      pop\n      pop\n      pop\n      pop\n      pop\n      jump\t// out\n        /* \"QvToken/Context.sol\":656:754  function _msgSender() internal view virtual returns (address) {\r... */\n    tag_116:\n        /* \"QvToken/Context.sol\":709:716  address */\n      0x00\n        /* \"QvToken/Context.sol\":736:746  msg.sender */\n      caller\n        /* \"QvToken/Context.sol\":729:746  return msg.sender */\n      swap1\n      pop\n        /* \"QvToken/Context.sol\":656:754  function _msgSender() internal view virtual returns (address) {\r... */\n      swap1\n      jump\t// out\n        /* \"Library/UserProposalLibrary.sol\":573:794  function updateProposalList(UserProposal storage self, uint _proposalId) internal returns(bool){\r... */\n    tag_117:\n        /* \"Library/UserProposalLibrary.sol\":663:667  bool */\n      0x00\n        /* \"Library/UserProposalLibrary.sol\":679:683  self */\n      dup3\n        /* \"Library/UserProposalLibrary.sol\":679:697  self.proposalCount */\n      0x00\n      add\n      0x00\n        /* \"Library/UserProposalLibrary.sol\":679:699  self.proposalCount++ */\n      dup2\n      dup2\n      swap1\n      sload\n      swap1\n      0x0100\n      exp\n      swap1\n      div\n      0xffffffffffffffffffffffffffffffff\n      and\n      dup1\n      swap3\n      swap2\n      swap1\n      tag_209\n      swap1\n      tag_210\n      jump\t// in\n    tag_209:\n      swap2\n      swap1\n      0x0100\n      exp\n      dup2\n      sload\n      dup2\n      0xffffffffffffffffffffffffffffffff\n      mul\n      not\n      and\n      swap1\n      dup4\n      0xffffffffffffffffffffffffffffffff\n      and\n      mul\n      or\n      swap1\n      sstore\n      pop\n      pop\n        /* \"Library/UserProposalLibrary.sol\":753:764  _proposalId */\n      dup2\n        /* \"Library/UserProposalLibrary.sol\":710:714  self */\n      dup4\n        /* \"Library/UserProposalLibrary.sol\":710:730  self.proposalCreated */\n      0x01\n      add\n        /* \"Library/UserProposalLibrary.sol\":710:750  self.proposalCreated[self.proposalCount] */\n      0x00\n        /* \"Library/UserProposalLibrary.sol\":731:735  self */\n      dup6\n        /* \"Library/UserProposalLibrary.sol\":731:749  self.proposalCount */\n      0x00\n      add\n      0x00\n      swap1\n      sload\n      swap1\n      0x0100\n      exp\n      swap1\n      div\n      0xffffffffffffffffffffffffffffffff\n      and\n        /* \"Library/UserProposalLibrary.sol\":710:750  self.proposalCreated[self.proposalCount] */\n      0xffffffffffffffffffffffffffffffff\n      and\n      0xffffffffffffffffffffffffffffffff\n      and\n      dup2\n      mstore\n      0x20\n      add\n      swap1\n      dup2\n      mstore\n      0x20\n      add\n      0x00\n      keccak256\n        /* \"Library/UserProposalLibrary.sol\":710:764  self.proposalCreated[self.proposalCount] = _proposalId */\n      dup2\n      swap1\n      sstore\n      pop\n        /* \"Library/UserProposalLibrary.sol\":782:786  true */\n      0x01\n        /* \"Library/UserProposalLibrary.sol\":775:786  return true */\n      swap1\n      pop\n        /* \"Library/UserProposalLibrary.sol\":573:794  function updateProposalList(UserProposal storage self, uint _proposalId) internal returns(bool){\r... */\n      swap3\n      swap2\n      pop\n      pop\n      jump\t// out\n        /* \"Library/ProposalLibrary.sol\":2018:3446  function responseProposal(proposal storage self, address _voter, string[] memory _hash, uint[] memory v) internal returns(bool){\r... */\n    tag_147:\n        /* \"Library/ProposalLibrary.sol\":2140:2144  bool */\n      0x00\n        /* \"Library/ProposalLibrary.sol\":2179:2180  2 */\n      0x02\n        /* \"Library/ProposalLibrary.sol\":2164:2168  self */\n      dup6\n        /* \"Library/ProposalLibrary.sol\":2164:2175  self.status */\n      0x00\n      add\n      0x14\n      swap1\n      sload\n      swap1\n      0x0100\n      exp\n      swap1\n      div\n      0xff\n      and\n        /* \"Library/ProposalLibrary.sol\":2164:2180  self.status == 2 */\n      0xff\n      and\n      eq\n        /* \"Library/ProposalLibrary.sol\":2156:2203  require(self.status == 2, \"Proposal: inactive\") */\n      tag_212\n      jumpi\n      mload(0x40)\n      0x08c379a000000000000000000000000000000000000000000000000000000000\n      dup2\n      mstore\n      0x04\n      add\n      tag_213\n      swap1\n      tag_214\n      jump\t// in\n    tag_213:\n      mload(0x40)\n      dup1\n      swap2\n      sub\n      swap1\n      revert\n    tag_212:\n        /* \"Library/ProposalLibrary.sol\":2241:2245  self */\n      dup5\n        /* \"Library/ProposalLibrary.sol\":2241:2255  self.startTime */\n      0x02\n      add\n      sload\n        /* \"Library/ProposalLibrary.sol\":2222:2237  block.timestamp */\n      timestamp\n        /* \"Library/ProposalLibrary.sol\":2222:2255  block.timestamp >= self.startTime */\n      lt\n      iszero\n        /* \"Library/ProposalLibrary.sol\":2214:2284  require(block.timestamp >= self.startTime, \"proposal not started yet\") */\n      tag_215\n      jumpi\n      mload(0x40)\n      0x08c379a000000000000000000000000000000000000000000000000000000000\n      dup2\n      mstore\n      0x04\n      add\n      tag_216\n      swap1\n      tag_217\n      jump\t// in\n    tag_216:\n      mload(0x40)\n      dup1\n      swap2\n      sub\n      swap1\n      revert\n    tag_215:\n        /* \"Library/ProposalLibrary.sol\":2313:2317  self */\n      dup5\n        /* \"Library/ProposalLibrary.sol\":2313:2332  self.expirationTime */\n      0x03\n      add\n      sload\n        /* \"Library/ProposalLibrary.sol\":2295:2310  block.timestamp */\n      timestamp\n        /* \"Library/ProposalLibrary.sol\":2295:2332  block.timestamp > self.expirationTime */\n      gt\n        /* \"Library/ProposalLibrary.sol\":2292:3147  if(block.timestamp > self.expirationTime){\r... */\n      iszero\n      tag_218\n      jumpi\n        /* \"Library/ProposalLibrary.sol\":2402:2403  2 */\n      0x02\n        /* \"Library/ProposalLibrary.sol\":2388:2392  self */\n      dup6\n        /* \"Library/ProposalLibrary.sol\":2388:2399  self.status */\n      0x00\n      add\n      0x14\n        /* \"Library/ProposalLibrary.sol\":2388:2403  self.status = 2 */\n      0x0100\n      exp\n      dup2\n      sload\n      dup2\n      0xff\n      mul\n      not\n      and\n      swap1\n      dup4\n      0xff\n      and\n      mul\n      or\n      swap1\n      sstore\n      pop\n        /* \"Library/ProposalLibrary.sol\":2418:2435  uint largestCount */\n      0x00\n        /* \"Library/ProposalLibrary.sol\":2438:2442  self */\n      dup6\n        /* \"Library/ProposalLibrary.sol\":2438:2448  self.votes */\n      0x0a\n      add\n        /* \"Library/ProposalLibrary.sol\":2449:2453  self */\n      dup7\n        /* \"Library/ProposalLibrary.sol\":2449:2462  self.candHash */\n      0x08\n      add\n        /* \"Library/ProposalLibrary.sol\":2449:2465  self.candHash[1] */\n      0x00\n        /* \"Library/ProposalLibrary.sol\":2463:2464  1 */\n      0x01\n        /* \"Library/ProposalLibrary.sol\":2449:2465  self.candHash[1] */\n      dup2\n      mstore\n      0x20\n      add\n      swap1\n      dup2\n      mstore\n      0x20\n      add\n      0x00\n      keccak256\n        /* \"Library/ProposalLibrary.sol\":2438:2466  self.votes[self.candHash[1]] */\n      mload(0x40)\n      tag_219\n      swap2\n      swap1\n      tag_169\n      jump\t// in\n    tag_219:\n      swap1\n      dup2\n      mstore\n      0x20\n      add\n      mload(0x40)\n      dup1\n      swap2\n      sub\n      swap1\n      keccak256\n      sload\n        /* \"Library/ProposalLibrary.sol\":2418:2466  uint largestCount = self.votes[self.candHash[1]] */\n      swap1\n      pop\n        /* \"Library/ProposalLibrary.sol\":2481:2497  uint winnerCount */\n      0x00\n        /* \"Library/ProposalLibrary.sol\":2500:2501  1 */\n      0x01\n        /* \"Library/ProposalLibrary.sol\":2481:2501  uint winnerCount = 1 */\n      swap1\n      pop\n        /* \"Library/ProposalLibrary.sol\":2533:2537  self */\n      dup7\n        /* \"Library/ProposalLibrary.sol\":2533:2546  self.candHash */\n      0x08\n      add\n        /* \"Library/ProposalLibrary.sol\":2533:2549  self.candHash[1] */\n      0x00\n        /* \"Library/ProposalLibrary.sol\":2547:2548  1 */\n      0x01\n        /* \"Library/ProposalLibrary.sol\":2533:2549  self.candHash[1] */\n      dup2\n      mstore\n      0x20\n      add\n      swap1\n      dup2\n      mstore\n      0x20\n      add\n      0x00\n      keccak256\n        /* \"Library/ProposalLibrary.sol\":2516:2520  self */\n      dup8\n        /* \"Library/ProposalLibrary.sol\":2516:2527  self.result */\n      0x09\n      add\n        /* \"Library/ProposalLibrary.sol\":2516:2530  self.result[1] */\n      0x00\n        /* \"Library/ProposalLibrary.sol\":2528:2529  1 */\n      0x01\n        /* \"Library/ProposalLibrary.sol\":2516:2530  self.result[1] */\n      dup2\n      mstore\n      0x20\n      add\n      swap1\n      dup2\n      mstore\n      0x20\n      add\n      0x00\n      keccak256\n        /* \"Library/ProposalLibrary.sol\":2516:2549  self.result[1] = self.candHash[1] */\n      swap1\n      dup1\n      sload\n      tag_220\n      swap1\n      tag_66\n      jump\t// in\n    tag_220:\n      tag_221\n      swap3\n      swap2\n      swap1\n      tag_222\n      jump\t// in\n    tag_221:\n      pop\n        /* \"Library/ProposalLibrary.sol\":2631:2639  uint16 i */\n      0x00\n        /* \"Library/ProposalLibrary.sol\":2642:2643  2 */\n      0x02\n        /* \"Library/ProposalLibrary.sol\":2631:2643  uint16 i = 2 */\n      swap1\n      pop\n        /* \"Library/ProposalLibrary.sol\":2627:3109  for(uint16 i = 2; i <= self.numOfOptions; i++){\r... */\n    tag_223:\n        /* \"Library/ProposalLibrary.sol\":2650:2654  self */\n      dup8\n        /* \"Library/ProposalLibrary.sol\":2650:2667  self.numOfOptions */\n      0x04\n      add\n      0x00\n      swap1\n      sload\n      swap1\n      0x0100\n      exp\n      swap1\n      div\n      0xffff\n      and\n        /* \"Library/ProposalLibrary.sol\":2645:2667  i <= self.numOfOptions */\n      0xffff\n      and\n        /* \"Library/ProposalLibrary.sol\":2645:2646  i */\n      dup2\n        /* \"Library/ProposalLibrary.sol\":2645:2667  i <= self.numOfOptions */\n      0xffff\n      and\n      gt\n        /* \"Library/ProposalLibrary.sol\":2627:3109  for(uint16 i = 2; i <= self.numOfOptions; i++){\r... */\n      tag_224\n      jumpi\n        /* \"Library/ProposalLibrary.sol\":2726:2738  largestCount */\n      dup3\n        /* \"Library/ProposalLibrary.sol\":2695:2699  self */\n      dup9\n        /* \"Library/ProposalLibrary.sol\":2695:2705  self.votes */\n      0x0a\n      add\n        /* \"Library/ProposalLibrary.sol\":2706:2710  self */\n      dup10\n        /* \"Library/ProposalLibrary.sol\":2706:2719  self.candHash */\n      0x08\n      add\n        /* \"Library/ProposalLibrary.sol\":2706:2722  self.candHash[i] */\n      0x00\n        /* \"Library/ProposalLibrary.sol\":2720:2721  i */\n      dup5\n        /* \"Library/ProposalLibrary.sol\":2706:2722  self.candHash[i] */\n      0xffff\n      and\n      dup2\n      mstore\n      0x20\n      add\n      swap1\n      dup2\n      mstore\n      0x20\n      add\n      0x00\n      keccak256\n        /* \"Library/ProposalLibrary.sol\":2695:2723  self.votes[self.candHash[i]] */\n      mload(0x40)\n      tag_226\n      swap2\n      swap1\n      tag_169\n      jump\t// in\n    tag_226:\n      swap1\n      dup2\n      mstore\n      0x20\n      add\n      mload(0x40)\n      dup1\n      swap2\n      sub\n      swap1\n      keccak256\n      sload\n        /* \"Library/ProposalLibrary.sol\":2695:2738  self.votes[self.candHash[i]] > largestCount */\n      gt\n        /* \"Library/ProposalLibrary.sol\":2692:3094  if(self.votes[self.candHash[i]] > largestCount){\r... */\n      iszero\n      tag_227\n      jumpi\n        /* \"Library/ProposalLibrary.sol\":2777:2781  self */\n      dup8\n        /* \"Library/ProposalLibrary.sol\":2777:2787  self.votes */\n      0x0a\n      add\n        /* \"Library/ProposalLibrary.sol\":2788:2792  self */\n      dup9\n        /* \"Library/ProposalLibrary.sol\":2788:2801  self.candHash */\n      0x08\n      add\n        /* \"Library/ProposalLibrary.sol\":2788:2804  self.candHash[i] */\n      0x00\n        /* \"Library/ProposalLibrary.sol\":2802:2803  i */\n      dup4\n        /* \"Library/ProposalLibrary.sol\":2788:2804  self.candHash[i] */\n      0xffff\n      and\n      dup2\n      mstore\n      0x20\n      add\n      swap1\n      dup2\n      mstore\n      0x20\n      add\n      0x00\n      keccak256\n        /* \"Library/ProposalLibrary.sol\":2777:2805  self.votes[self.candHash[i]] */\n      mload(0x40)\n      tag_228\n      swap2\n      swap1\n      tag_169\n      jump\t// in\n    tag_228:\n      swap1\n      dup2\n      mstore\n      0x20\n      add\n      mload(0x40)\n      dup1\n      swap2\n      sub\n      swap1\n      keccak256\n      sload\n        /* \"Library/ProposalLibrary.sol\":2762:2805  largestCount = self.votes[self.candHash[i]] */\n      swap3\n      pop\n        /* \"Library/ProposalLibrary.sol\":2842:2843  1 */\n      0x01\n        /* \"Library/ProposalLibrary.sol\":2828:2843  winnerCount = 1 */\n      swap2\n      pop\n        /* \"Library/ProposalLibrary.sol\":2883:2887  self */\n      dup8\n        /* \"Library/ProposalLibrary.sol\":2883:2896  self.candHash */\n      0x08\n      add\n        /* \"Library/ProposalLibrary.sol\":2883:2899  self.candHash[i] */\n      0x00\n        /* \"Library/ProposalLibrary.sol\":2897:2898  i */\n      dup3\n        /* \"Library/ProposalLibrary.sol\":2883:2899  self.candHash[i] */\n      0xffff\n      and\n      dup2\n      mstore\n      0x20\n      add\n      swap1\n      dup2\n      mstore\n      0x20\n      add\n      0x00\n      keccak256\n        /* \"Library/ProposalLibrary.sol\":2866:2870  self */\n      dup9\n        /* \"Library/ProposalLibrary.sol\":2866:2877  self.result */\n      0x09\n      add\n        /* \"Library/ProposalLibrary.sol\":2866:2880  self.result[1] */\n      0x00\n        /* \"Library/ProposalLibrary.sol\":2878:2879  1 */\n      0x01\n        /* \"Library/ProposalLibrary.sol\":2866:2880  self.result[1] */\n      dup2\n      mstore\n      0x20\n      add\n      swap1\n      dup2\n      mstore\n      0x20\n      add\n      0x00\n      keccak256\n        /* \"Library/ProposalLibrary.sol\":2866:2899  self.result[1] = self.candHash[i] */\n      swap1\n      dup1\n      sload\n      tag_229\n      swap1\n      tag_66\n      jump\t// in\n    tag_229:\n      tag_230\n      swap3\n      swap2\n      swap1\n      tag_222\n      jump\t// in\n    tag_230:\n      pop\n        /* \"Library/ProposalLibrary.sol\":2692:3094  if(self.votes[self.candHash[i]] > largestCount){\r... */\n      jump(tag_231)\n    tag_227:\n        /* \"Library/ProposalLibrary.sol\":2959:2971  largestCount */\n      dup3\n        /* \"Library/ProposalLibrary.sol\":2927:2931  self */\n      dup9\n        /* \"Library/ProposalLibrary.sol\":2927:2937  self.votes */\n      0x0a\n      add\n        /* \"Library/ProposalLibrary.sol\":2938:2942  self */\n      dup10\n        /* \"Library/ProposalLibrary.sol\":2938:2951  self.candHash */\n      0x08\n      add\n        /* \"Library/ProposalLibrary.sol\":2938:2954  self.candHash[i] */\n      0x00\n        /* \"Library/ProposalLibrary.sol\":2952:2953  i */\n      dup5\n        /* \"Library/ProposalLibrary.sol\":2938:2954  self.candHash[i] */\n      0xffff\n      and\n      dup2\n      mstore\n      0x20\n      add\n      swap1\n      dup2\n      mstore\n      0x20\n      add\n      0x00\n      keccak256\n        /* \"Library/ProposalLibrary.sol\":2927:2955  self.votes[self.candHash[i]] */\n      mload(0x40)\n      tag_232\n      swap2\n      swap1\n      tag_169\n      jump\t// in\n    tag_232:\n      swap1\n      dup2\n      mstore\n      0x20\n      add\n      mload(0x40)\n      dup1\n      swap2\n      sub\n      swap1\n      keccak256\n      sload\n        /* \"Library/ProposalLibrary.sol\":2927:2971  self.votes[self.candHash[i]] == largestCount */\n      eq\n        /* \"Library/ProposalLibrary.sol\":2924:3094  if(self.votes[self.candHash[i]] == largestCount){\r... */\n      iszero\n      tag_233\n      jumpi\n        /* \"Library/ProposalLibrary.sol\":2995:3008  winnerCount++ */\n      dup2\n      dup1\n      tag_234\n      swap1\n      tag_90\n      jump\t// in\n    tag_234:\n      swap3\n      pop\n      pop\n        /* \"Library/ProposalLibrary.sol\":3058:3062  self */\n      dup8\n        /* \"Library/ProposalLibrary.sol\":3058:3071  self.candHash */\n      0x08\n      add\n        /* \"Library/ProposalLibrary.sol\":3058:3074  self.candHash[i] */\n      0x00\n        /* \"Library/ProposalLibrary.sol\":3072:3073  i */\n      dup3\n        /* \"Library/ProposalLibrary.sol\":3058:3074  self.candHash[i] */\n      0xffff\n      and\n      dup2\n      mstore\n      0x20\n      add\n      swap1\n      dup2\n      mstore\n      0x20\n      add\n      0x00\n      keccak256\n        /* \"Library/ProposalLibrary.sol\":3031:3035  self */\n      dup9\n        /* \"Library/ProposalLibrary.sol\":3031:3042  self.result */\n      0x09\n      add\n        /* \"Library/ProposalLibrary.sol\":3031:3055  self.result[winnerCount] */\n      0x00\n        /* \"Library/ProposalLibrary.sol\":3043:3054  winnerCount */\n      dup5\n        /* \"Library/ProposalLibrary.sol\":3031:3055  self.result[winnerCount] */\n      dup2\n      mstore\n      0x20\n      add\n      swap1\n      dup2\n      mstore\n      0x20\n      add\n      0x00\n      keccak256\n        /* \"Library/ProposalLibrary.sol\":3031:3074  self.result[winnerCount] = self.candHash[i] */\n      swap1\n      dup1\n      sload\n      tag_235\n      swap1\n      tag_66\n      jump\t// in\n    tag_235:\n      tag_236\n      swap3\n      swap2\n      swap1\n      tag_222\n      jump\t// in\n    tag_236:\n      pop\n        /* \"Library/ProposalLibrary.sol\":2924:3094  if(self.votes[self.candHash[i]] == largestCount){\r... */\n    tag_233:\n        /* \"Library/ProposalLibrary.sol\":2692:3094  if(self.votes[self.candHash[i]] > largestCount){\r... */\n    tag_231:\n        /* \"Library/ProposalLibrary.sol\":2669:2672  i++ */\n      dup1\n      dup1\n      tag_237\n      swap1\n      tag_238\n      jump\t// in\n    tag_237:\n      swap2\n      pop\n      pop\n        /* \"Library/ProposalLibrary.sol\":2627:3109  for(uint16 i = 2; i <= self.numOfOptions; i++){\r... */\n      jump(tag_223)\n    tag_224:\n      pop\n        /* \"Library/ProposalLibrary.sol\":3130:3135  false */\n      0x00\n        /* \"Library/ProposalLibrary.sol\":3123:3135  return false */\n      swap3\n      pop\n      pop\n      pop\n      jump(tag_211)\n        /* \"Library/ProposalLibrary.sol\":2292:3147  if(block.timestamp > self.expirationTime){\r... */\n    tag_218:\n        /* \"Library/ProposalLibrary.sol\":3190:3194  self */\n      dup5\n        /* \"Library/ProposalLibrary.sol\":3190:3201  self.voters */\n      0x06\n      add\n        /* \"Library/ProposalLibrary.sol\":3190:3209  self.voters[_voter] */\n      0x00\n        /* \"Library/ProposalLibrary.sol\":3202:3208  _voter */\n      dup6\n        /* \"Library/ProposalLibrary.sol\":3190:3209  self.voters[_voter] */\n      0xffffffffffffffffffffffffffffffffffffffff\n      and\n      0xffffffffffffffffffffffffffffffffffffffff\n      and\n      dup2\n      mstore\n      0x20\n      add\n      swap1\n      dup2\n      mstore\n      0x20\n      add\n      0x00\n      keccak256\n      0x00\n      swap1\n      sload\n      swap1\n      0x0100\n      exp\n      swap1\n      div\n      0xff\n      and\n        /* \"Library/ProposalLibrary.sol\":3182:3249  require(self.voters[_voter], \"Not a valid voter for this proposal\") */\n      tag_239\n      jumpi\n      mload(0x40)\n      0x08c379a000000000000000000000000000000000000000000000000000000000\n      dup2\n      mstore\n      0x04\n      add\n      tag_240\n      swap1\n      tag_241\n      jump\t// in\n    tag_240:\n      mload(0x40)\n      dup1\n      swap2\n      sub\n      swap1\n      revert\n    tag_239:\n        /* \"Library/ProposalLibrary.sol\":3264:3272  uint16 i */\n      0x00\n        /* \"Library/ProposalLibrary.sol\":3260:3417  for(uint16 i=0;i<self.numOfOptions;i++){\r... */\n    tag_242:\n        /* \"Library/ProposalLibrary.sol\":3277:3281  self */\n      dup6\n        /* \"Library/ProposalLibrary.sol\":3277:3294  self.numOfOptions */\n      0x04\n      add\n      0x00\n      swap1\n      sload\n      swap1\n      0x0100\n      exp\n      swap1\n      div\n      0xffff\n      and\n        /* \"Library/ProposalLibrary.sol\":3275:3294  i<self.numOfOptions */\n      0xffff\n      and\n        /* \"Library/ProposalLibrary.sol\":3275:3276  i */\n      dup2\n        /* \"Library/ProposalLibrary.sol\":3275:3294  i<self.numOfOptions */\n      0xffff\n      and\n      lt\n        /* \"Library/ProposalLibrary.sol\":3260:3417  for(uint16 i=0;i<self.numOfOptions;i++){\r... */\n      iszero\n      tag_243\n      jumpi\n        /* \"Library/ProposalLibrary.sol\":3318:3322  self */\n      dup6\n        /* \"Library/ProposalLibrary.sol\":3318:3327  self.cand */\n      0x07\n      add\n        /* \"Library/ProposalLibrary.sol\":3328:3333  _hash */\n      dup5\n        /* \"Library/ProposalLibrary.sol\":3334:3335  i */\n      dup3\n        /* \"Library/ProposalLibrary.sol\":3328:3336  _hash[i] */\n      0xffff\n      and\n      dup2\n      mload\n      dup2\n      lt\n      tag_245\n      jumpi\n      tag_246\n      tag_101\n      jump\t// in\n    tag_246:\n    tag_245:\n      0x20\n      mul\n      0x20\n      add\n      add\n      mload\n        /* \"Library/ProposalLibrary.sol\":3318:3337  self.cand[_hash[i]] */\n      mload(0x40)\n      tag_247\n      swap2\n      swap1\n      tag_248\n      jump\t// in\n    tag_247:\n      swap1\n      dup2\n      mstore\n      0x20\n      add\n      mload(0x40)\n      dup1\n      swap2\n      sub\n      swap1\n      keccak256\n      0x00\n      swap1\n      sload\n      swap1\n      0x0100\n      exp\n      swap1\n      div\n      0xff\n      and\n        /* \"Library/ProposalLibrary.sol\":3310:3369  require(self.cand[_hash[i]], \"Proposal: invalid candidate\") */\n      tag_249\n      jumpi\n      mload(0x40)\n      0x08c379a000000000000000000000000000000000000000000000000000000000\n      dup2\n      mstore\n      0x04\n      add\n      tag_250\n      swap1\n      tag_251\n      jump\t// in\n    tag_250:\n      mload(0x40)\n      dup1\n      swap2\n      sub\n      swap1\n      revert\n    tag_249:\n        /* \"Library/ProposalLibrary.sol\":3401:3402  v */\n      dup3\n        /* \"Library/ProposalLibrary.sol\":3403:3404  i */\n      dup2\n        /* \"Library/ProposalLibrary.sol\":3401:3405  v[i] */\n      0xffff\n      and\n      dup2\n      mload\n      dup2\n      lt\n      tag_252\n      jumpi\n      tag_253\n      tag_101\n      jump\t// in\n    tag_253:\n    tag_252:\n      0x20\n      mul\n      0x20\n      add\n      add\n      mload\n        /* \"Library/ProposalLibrary.sol\":3380:3384  self */\n      dup7\n        /* \"Library/ProposalLibrary.sol\":3380:3390  self.votes */\n      0x0a\n      add\n        /* \"Library/ProposalLibrary.sol\":3391:3396  _hash */\n      dup6\n        /* \"Library/ProposalLibrary.sol\":3397:3398  i */\n      dup4\n        /* \"Library/ProposalLibrary.sol\":3391:3399  _hash[i] */\n      0xffff\n      and\n      dup2\n      mload\n      dup2\n      lt\n      tag_254\n      jumpi\n      tag_255\n      tag_101\n      jump\t// in\n    tag_255:\n    tag_254:\n      0x20\n      mul\n      0x20\n      add\n      add\n      mload\n        /* \"Library/ProposalLibrary.sol\":3380:3400  self.votes[_hash[i]] */\n      mload(0x40)\n      tag_256\n      swap2\n      swap1\n      tag_248\n      jump\t// in\n    tag_256:\n      swap1\n      dup2\n      mstore\n      0x20\n      add\n      mload(0x40)\n      dup1\n      swap2\n      sub\n      swap1\n      keccak256\n        /* \"Library/ProposalLibrary.sol\":3380:3405  self.votes[_hash[i]]=v[i] */\n      dup2\n      swap1\n      sstore\n      pop\n        /* \"Library/ProposalLibrary.sol\":3295:3298  i++ */\n      dup1\n      dup1\n      tag_257\n      swap1\n      tag_238\n      jump\t// in\n    tag_257:\n      swap2\n      pop\n      pop\n        /* \"Library/ProposalLibrary.sol\":3260:3417  for(uint16 i=0;i<self.numOfOptions;i++){\r... */\n      jump(tag_242)\n    tag_243:\n      pop\n        /* \"Library/ProposalLibrary.sol\":3434:3438  true */\n      0x01\n        /* \"Library/ProposalLibrary.sol\":3427:3438  return true */\n      swap1\n      pop\n        /* \"Library/ProposalLibrary.sol\":2018:3446  function responseProposal(proposal storage self, address _voter, string[] memory _hash, uint[] memory v) internal returns(bool){\r... */\n    tag_211:\n      swap5\n      swap4\n      pop\n      pop\n      pop\n      pop\n      jump\t// out\n        /* \"Library/UserProposalLibrary.sol\":802:1377  function updateResponseList(UserProposal storage self, uint _proposalId, string[] memory _hash) internal returns(bool){\r... */\n    tag_150:\n        /* \"Library/UserProposalLibrary.sol\":915:919  bool */\n      0x00\n        /* \"Library/UserProposalLibrary.sol\":931:935  self */\n      dup4\n        /* \"Library/UserProposalLibrary.sol\":931:949  self.responseCount */\n      0x00\n      add\n      0x10\n        /* \"Library/UserProposalLibrary.sol\":931:951  self.responseCount++ */\n      dup2\n      dup2\n      swap1\n      sload\n      swap1\n      0x0100\n      exp\n      swap1\n      div\n      0xffffffffffffffffffffffffffffffff\n      and\n      dup1\n      swap3\n      swap2\n      swap1\n      tag_259\n      swap1\n      tag_210\n      jump\t// in\n    tag_259:\n      swap2\n      swap1\n      0x0100\n      exp\n      dup2\n      sload\n      dup2\n      0xffffffffffffffffffffffffffffffff\n      mul\n      not\n      and\n      swap1\n      dup4\n      0xffffffffffffffffffffffffffffffff\n      and\n      mul\n      or\n      swap1\n      sstore\n      pop\n      pop\n        /* \"Library/UserProposalLibrary.sol\":1009:1020  _proposalId */\n      dup3\n        /* \"Library/UserProposalLibrary.sol\":964:968  self */\n      dup5\n        /* \"Library/UserProposalLibrary.sol\":964:986  self.proposalResponsed */\n      0x02\n      add\n        /* \"Library/UserProposalLibrary.sol\":964:1006  self.proposalResponsed[self.responseCount] */\n      0x00\n        /* \"Library/UserProposalLibrary.sol\":987:991  self */\n      dup7\n        /* \"Library/UserProposalLibrary.sol\":987:1005  self.responseCount */\n      0x00\n      add\n      0x10\n      swap1\n      sload\n      swap1\n      0x0100\n      exp\n      swap1\n      div\n      0xffffffffffffffffffffffffffffffff\n      and\n        /* \"Library/UserProposalLibrary.sol\":964:1006  self.proposalResponsed[self.responseCount] */\n      0xffffffffffffffffffffffffffffffff\n      and\n      0xffffffffffffffffffffffffffffffff\n      and\n      dup2\n      mstore\n      0x20\n      add\n      swap1\n      dup2\n      mstore\n      0x20\n      add\n      0x00\n      keccak256\n        /* \"Library/UserProposalLibrary.sol\":964:1020  self.proposalResponsed[self.responseCount] = _proposalId */\n      dup2\n      swap1\n      sstore\n      pop\n        /* \"Library/UserProposalLibrary.sol\":1190:1198  uint16 i */\n      0x00\n        /* \"Library/UserProposalLibrary.sol\":1186:1295  for(uint16 i=0;i<_hash.length;i++){\r... */\n    tag_260:\n        /* \"Library/UserProposalLibrary.sol\":1203:1208  _hash */\n      dup3\n        /* \"Library/UserProposalLibrary.sol\":1203:1215  _hash.length */\n      mload\n        /* \"Library/UserProposalLibrary.sol\":1201:1202  i */\n      dup2\n        /* \"Library/UserProposalLibrary.sol\":1201:1215  i<_hash.length */\n      0xffff\n      and\n      lt\n        /* \"Library/UserProposalLibrary.sol\":1186:1295  for(uint16 i=0;i<_hash.length;i++){\r... */\n      iszero\n      tag_261\n      jumpi\n        /* \"Library/UserProposalLibrary.sol\":1275:1280  _hash */\n      dup3\n        /* \"Library/UserProposalLibrary.sol\":1281:1282  i */\n      dup2\n        /* \"Library/UserProposalLibrary.sol\":1275:1283  _hash[i] */\n      0xffff\n      and\n      dup2\n      mload\n      dup2\n      lt\n      tag_263\n      jumpi\n      tag_264\n      tag_101\n      jump\t// in\n    tag_264:\n    tag_263:\n      0x20\n      mul\n      0x20\n      add\n      add\n      mload\n        /* \"Library/UserProposalLibrary.sol\":1235:1239  self */\n      dup6\n        /* \"Library/UserProposalLibrary.sol\":1235:1254  self.proposalAnswer */\n      0x03\n      add\n        /* \"Library/UserProposalLibrary.sol\":1235:1267  self.proposalAnswer[_proposalId] */\n      0x00\n        /* \"Library/UserProposalLibrary.sol\":1255:1266  _proposalId */\n      dup7\n        /* \"Library/UserProposalLibrary.sol\":1235:1267  self.proposalAnswer[_proposalId] */\n      dup2\n      mstore\n      0x20\n      add\n      swap1\n      dup2\n      mstore\n      0x20\n      add\n      0x00\n      keccak256\n        /* \"Library/UserProposalLibrary.sol\":1235:1272  self.proposalAnswer[_proposalId][i+1] */\n      0x00\n        /* \"Library/UserProposalLibrary.sol\":1270:1271  1 */\n      0x01\n        /* \"Library/UserProposalLibrary.sol\":1268:1269  i */\n      dup5\n        /* \"Library/UserProposalLibrary.sol\":1268:1271  i+1 */\n      tag_265\n      swap2\n      swap1\n      tag_266\n      jump\t// in\n    tag_265:\n        /* \"Library/UserProposalLibrary.sol\":1235:1272  self.proposalAnswer[_proposalId][i+1] */\n      0xffff\n      and\n      dup2\n      mstore\n      0x20\n      add\n      swap1\n      dup2\n      mstore\n      0x20\n      add\n      0x00\n      keccak256\n        /* \"Library/UserProposalLibrary.sol\":1235:1283  self.proposalAnswer[_proposalId][i+1] = _hash[i] */\n      swap1\n      dup1\n      mload\n      swap1\n      0x20\n      add\n      swap1\n      tag_267\n      swap3\n      swap2\n      swap1\n      tag_177\n      jump\t// in\n    tag_267:\n      pop\n        /* \"Library/UserProposalLibrary.sol\":1216:1219  i++ */\n      dup1\n      dup1\n      tag_268\n      swap1\n      tag_238\n      jump\t// in\n    tag_268:\n      swap2\n      pop\n      pop\n        /* \"Library/UserProposalLibrary.sol\":1186:1295  for(uint16 i=0;i<_hash.length;i++){\r... */\n      jump(tag_260)\n    tag_261:\n      pop\n        /* \"Library/UserProposalLibrary.sol\":1343:1347  true */\n      0x01\n        /* \"Library/UserProposalLibrary.sol\":1305:1309  self */\n      dup5\n        /* \"Library/UserProposalLibrary.sol\":1305:1327  self.responsedProposal */\n      0x04\n      add\n        /* \"Library/UserProposalLibrary.sol\":1305:1340  self.responsedProposal[_proposalId] */\n      0x00\n        /* \"Library/UserProposalLibrary.sol\":1328:1339  _proposalId */\n      dup6\n        /* \"Library/UserProposalLibrary.sol\":1305:1340  self.responsedProposal[_proposalId] */\n      dup2\n      mstore\n      0x20\n      add\n      swap1\n      dup2\n      mstore\n      0x20\n      add\n      0x00\n      keccak256\n      0x00\n        /* \"Library/UserProposalLibrary.sol\":1305:1347  self.responsedProposal[_proposalId] = true */\n      0x0100\n      exp\n      dup2\n      sload\n      dup2\n      0xff\n      mul\n      not\n      and\n      swap1\n      dup4\n      iszero\n      iszero\n      mul\n      or\n      swap1\n      sstore\n      pop\n        /* \"Library/UserProposalLibrary.sol\":1365:1369  true */\n      0x01\n        /* \"Library/UserProposalLibrary.sol\":1358:1369  return true */\n      swap1\n      pop\n        /* \"Library/UserProposalLibrary.sol\":802:1377  function updateResponseList(UserProposal storage self, uint _proposalId, string[] memory _hash) internal returns(bool){\r... */\n      swap4\n      swap3\n      pop\n      pop\n      pop\n      jump\t// out\n        /* \"Library/VoterLibrary.sol\":832:1063  function updateVoteNum(voter storage self) internal returns(bool){\r... */\n    tag_152:\n        /* \"Library/VoterLibrary.sol\":892:896  bool */\n      0x00\n        /* \"Library/VoterLibrary.sol\":931:932  0 */\n      dup1\n        /* \"Library/VoterLibrary.sol\":914:918  self */\n      dup3\n        /* \"Library/VoterLibrary.sol\":914:929  self.proposalId */\n      0x00\n      add\n      sload\n        /* \"Library/VoterLibrary.sol\":914:932  self.proposalId!=0 */\n      eq\n      iszero\n        /* \"Library/VoterLibrary.sol\":906:965  require(self.proposalId!=0,\"Invalid voter for proposalId!\") */\n      tag_270\n      jumpi\n      mload(0x40)\n      0x08c379a000000000000000000000000000000000000000000000000000000000\n      dup2\n      mstore\n      0x04\n      add\n      tag_271\n      swap1\n      tag_272\n      jump\t// in\n    tag_271:\n      mload(0x40)\n      dup1\n      swap2\n      sub\n      swap1\n      revert\n    tag_270:\n        /* \"Library/VoterLibrary.sol\":983:987  self */\n      dup2\n        /* \"Library/VoterLibrary.sol\":983:996  self.hasVoted */\n      0x01\n      add\n      0x14\n      swap1\n      sload\n      swap1\n      0x0100\n      exp\n      swap1\n      div\n      0xff\n      and\n        /* \"Library/VoterLibrary.sol\":982:996  !self.hasVoted */\n      iszero\n        /* \"Library/VoterLibrary.sol\":974:1010  require(!self.hasVoted, \"not voted\") */\n      tag_273\n      jumpi\n      mload(0x40)\n      0x08c379a000000000000000000000000000000000000000000000000000000000\n      dup2\n      mstore\n      0x04\n      add\n      tag_274\n      swap1\n      tag_275\n      jump\t// in\n    tag_274:\n      mload(0x40)\n      dup1\n      swap2\n      sub\n      swap1\n      revert\n    tag_273:\n        /* \"Library/VoterLibrary.sol\":1034:1035  0 */\n      0x00\n        /* \"Library/VoterLibrary.sol\":1019:1023  self */\n      dup3\n        /* \"Library/VoterLibrary.sol\":1019:1031  self.voteNum */\n      0x02\n      add\n        /* \"Library/VoterLibrary.sol\":1019:1035  self.voteNum = 0 */\n      dup2\n      swap1\n      sstore\n      pop\n        /* \"Library/VoterLibrary.sol\":1051:1055  true */\n      0x01\n        /* \"Library/VoterLibrary.sol\":1044:1055  return true */\n      swap1\n      pop\n        /* \"Library/VoterLibrary.sol\":832:1063  function updateVoteNum(voter storage self) internal returns(bool){\r... */\n      swap2\n      swap1\n      pop\n      jump\t// out\n        /* \"QvToken/QvToken.sol\":510:613  function burn(address to,uint amount) onlyOwner(_msgSender()) internal {\r... */\n    tag_154:\n        /* \"QvToken/QvToken.sol\":558:570  _msgSender() */\n      tag_276\n        /* \"QvToken/QvToken.sol\":558:568  _msgSender */\n      tag_116\n        /* \"QvToken/QvToken.sol\":558:570  _msgSender() */\n      jump\t// in\n    tag_276:\n        /* \"QvToken/QvToken.sol\":366:375  msgSender */\n      dup1\n        /* \"QvToken/QvToken.sol\":357:375  owner == msgSender */\n      0xffffffffffffffffffffffffffffffffffffffff\n      and\n        /* \"QvToken/QvToken.sol\":357:362  owner */\n      0x04\n      0x00\n      swap1\n      sload\n      swap1\n      0x0100\n      exp\n      swap1\n      div\n      0xffffffffffffffffffffffffffffffffffffffff\n      and\n        /* \"QvToken/QvToken.sol\":357:375  owner == msgSender */\n      0xffffffffffffffffffffffffffffffffffffffff\n      and\n      eq\n        /* \"QvToken/QvToken.sol\":349:376  require(owner == msgSender) */\n      tag_278\n      jumpi\n      0x00\n      dup1\n      revert\n    tag_278:\n        /* \"QvToken/QvToken.sol\":588:605  _burn(to, amount) */\n      tag_280\n        /* \"QvToken/QvToken.sol\":594:596  to */\n      dup4\n        /* \"QvToken/QvToken.sol\":598:604  amount */\n      dup4\n        /* \"QvToken/QvToken.sol\":588:593  _burn */\n      tag_281\n        /* \"QvToken/QvToken.sol\":588:605  _burn(to, amount) */\n      jump\t// in\n    tag_280:\n        /* \"QvToken/QvToken.sol\":510:613  function burn(address to,uint amount) onlyOwner(_msgSender()) internal {\r... */\n      pop\n      pop\n      pop\n      jump\t// out\n        /* \"QvToken/ERC20.sol\":3630:4033  function _mint(address account, uint256 amount) internal virtual {\r... */\n    tag_205:\n        /* \"QvToken/ERC20.sol\":3733:3734  0 */\n      0x00\n        /* \"QvToken/ERC20.sol\":3714:3735  account != address(0) */\n      0xffffffffffffffffffffffffffffffffffffffff\n      and\n        /* \"QvToken/ERC20.sol\":3714:3721  account */\n      dup3\n        /* \"QvToken/ERC20.sol\":3714:3735  account != address(0) */\n      0xffffffffffffffffffffffffffffffffffffffff\n      and\n      eq\n      iszero\n        /* \"QvToken/ERC20.sol\":3706:3771  require(account != address(0), \"ERC20: mint to the zero address\") */\n      tag_283\n      jumpi\n      mload(0x40)\n      0x08c379a000000000000000000000000000000000000000000000000000000000\n      dup2\n      mstore\n      0x04\n      add\n      tag_284\n      swap1\n      tag_285\n      jump\t// in\n    tag_284:\n      mload(0x40)\n      dup1\n      swap2\n      sub\n      swap1\n      revert\n    tag_283:\n        /* \"QvToken/ERC20.sol\":3865:3871  amount */\n      dup1\n        /* \"QvToken/ERC20.sol\":3849:3861  _totalSupply */\n      0x01\n      0x00\n        /* \"QvToken/ERC20.sol\":3849:3871  _totalSupply += amount */\n      dup3\n      dup3\n      sload\n      tag_286\n      swap2\n      swap1\n      tag_141\n      jump\t// in\n    tag_286:\n      swap3\n      pop\n      pop\n      dup2\n      swap1\n      sstore\n      pop\n        /* \"QvToken/ERC20.sol\":3904:3910  amount */\n      dup1\n        /* \"QvToken/ERC20.sol\":3882:3891  _balances */\n      0x00\n        /* \"QvToken/ERC20.sol\":3882:3900  _balances[account] */\n      dup1\n        /* \"QvToken/ERC20.sol\":3892:3899  account */\n      dup5\n        /* \"QvToken/ERC20.sol\":3882:3900  _balances[account] */\n      0xffffffffffffffffffffffffffffffffffffffff\n      and\n      0xffffffffffffffffffffffffffffffffffffffff\n      and\n      dup2\n      mstore\n      0x20\n      add\n      swap1\n      dup2\n      mstore\n      0x20\n      add\n      0x00\n      keccak256\n      0x00\n        /* \"QvToken/ERC20.sol\":3882:3910  _balances[account] += amount */\n      dup3\n      dup3\n      sload\n      tag_287\n      swap2\n      swap1\n      tag_141\n      jump\t// in\n    tag_287:\n      swap3\n      pop\n      pop\n      dup2\n      swap1\n      sstore\n      pop\n        /* \"QvToken/ERC20.sol\":3926:3961  mintAndburn(\"mint\",account, amount) */\n      0xabf5327be9f5825c40d58bda541dd07f09b62df3376bbd5ecdbaa8bd82a9d492\n        /* \"QvToken/ERC20.sol\":3945:3952  account */\n      dup3\n        /* \"QvToken/ERC20.sol\":3954:3960  amount */\n      dup3\n        /* \"QvToken/ERC20.sol\":3926:3961  mintAndburn(\"mint\",account, amount) */\n      mload(0x40)\n      tag_288\n      swap3\n      swap2\n      swap1\n      tag_112\n      jump\t// in\n    tag_288:\n      mload(0x40)\n      dup1\n      swap2\n      sub\n      swap1\n      log1\n        /* \"QvToken/ERC20.sol\":3630:4033  function _mint(address account, uint256 amount) internal virtual {\r... */\n      pop\n      pop\n      jump\t// out\n        /* \"QvToken/ERC20.sol\":4045:4640  function _burn(address account, uint256 amount) internal virtual {\r... */\n    tag_281:\n        /* \"QvToken/ERC20.sol\":4148:4149  0 */\n      0x00\n        /* \"QvToken/ERC20.sol\":4129:4150  account != address(0) */\n      0xffffffffffffffffffffffffffffffffffffffff\n      and\n        /* \"QvToken/ERC20.sol\":4129:4136  account */\n      dup3\n        /* \"QvToken/ERC20.sol\":4129:4150  account != address(0) */\n      0xffffffffffffffffffffffffffffffffffffffff\n      and\n      eq\n      iszero\n        /* \"QvToken/ERC20.sol\":4121:4188  require(account != address(0), \"ERC20: burn from the zero address\") */\n      tag_290\n      jumpi\n      mload(0x40)\n      0x08c379a000000000000000000000000000000000000000000000000000000000\n      dup2\n      mstore\n      0x04\n      add\n      tag_291\n      swap1\n      tag_292\n      jump\t// in\n    tag_291:\n      mload(0x40)\n      dup1\n      swap2\n      sub\n      swap1\n      revert\n    tag_290:\n        /* \"QvToken/ERC20.sol\":4266:4288  uint256 accountBalance */\n      0x00\n        /* \"QvToken/ERC20.sol\":4291:4300  _balances */\n      dup1\n        /* \"QvToken/ERC20.sol\":4291:4309  _balances[account] */\n      0x00\n        /* \"QvToken/ERC20.sol\":4301:4308  account */\n      dup5\n        /* \"QvToken/ERC20.sol\":4291:4309  _balances[account] */\n      0xffffffffffffffffffffffffffffffffffffffff\n      and\n      0xffffffffffffffffffffffffffffffffffffffff\n      and\n      dup2\n      mstore\n      0x20\n      add\n      swap1\n      dup2\n      mstore\n      0x20\n      add\n      0x00\n      keccak256\n      sload\n        /* \"QvToken/ERC20.sol\":4266:4309  uint256 accountBalance = _balances[account] */\n      swap1\n      pop\n        /* \"QvToken/ERC20.sol\":4346:4352  amount */\n      dup2\n        /* \"QvToken/ERC20.sol\":4328:4342  accountBalance */\n      dup2\n        /* \"QvToken/ERC20.sol\":4328:4352  accountBalance >= amount */\n      lt\n      iszero\n        /* \"QvToken/ERC20.sol\":4320:4391  require(accountBalance >= amount, \"ERC20: burn amount exceeds balance\") */\n      tag_293\n      jumpi\n      mload(0x40)\n      0x08c379a000000000000000000000000000000000000000000000000000000000\n      dup2\n      mstore\n      0x04\n      add\n      tag_294\n      swap1\n      tag_295\n      jump\t// in\n    tag_294:\n      mload(0x40)\n      dup1\n      swap2\n      sub\n      swap1\n      revert\n    tag_293:\n        /* \"QvToken/ERC20.sol\":4465:4471  amount */\n      dup2\n        /* \"QvToken/ERC20.sol\":4448:4462  accountBalance */\n      dup2\n        /* \"QvToken/ERC20.sol\":4448:4471  accountBalance - amount */\n      sub\n        /* \"QvToken/ERC20.sol\":4427:4436  _balances */\n      0x00\n        /* \"QvToken/ERC20.sol\":4427:4445  _balances[account] */\n      dup1\n        /* \"QvToken/ERC20.sol\":4437:4444  account */\n      dup6\n        /* \"QvToken/ERC20.sol\":4427:4445  _balances[account] */\n      0xffffffffffffffffffffffffffffffffffffffff\n      and\n      0xffffffffffffffffffffffffffffffffffffffff\n      and\n      dup2\n      mstore\n      0x20\n      add\n      swap1\n      dup2\n      mstore\n      0x20\n      add\n      0x00\n      keccak256\n        /* \"QvToken/ERC20.sol\":4427:4471  _balances[account] = accountBalance - amount */\n      dup2\n      swap1\n      sstore\n      pop\n        /* \"QvToken/ERC20.sol\":4509:4515  amount */\n      dup2\n        /* \"QvToken/ERC20.sol\":4493:4505  _totalSupply */\n      0x01\n      0x00\n        /* \"QvToken/ERC20.sol\":4493:4515  _totalSupply -= amount */\n      dup3\n      dup3\n      sload\n      tag_296\n      swap2\n      swap1\n      tag_297\n      jump\t// in\n    tag_296:\n      swap3\n      pop\n      pop\n      dup2\n      swap1\n      sstore\n      pop\n        /* \"QvToken/ERC20.sol\":4533:4568  mintAndburn(\"burn\",account, amount) */\n      0xabf5327be9f5825c40d58bda541dd07f09b62df3376bbd5ecdbaa8bd82a9d492\n        /* \"QvToken/ERC20.sol\":4552:4559  account */\n      dup4\n        /* \"QvToken/ERC20.sol\":4561:4567  amount */\n      dup4\n        /* \"QvToken/ERC20.sol\":4533:4568  mintAndburn(\"burn\",account, amount) */\n      mload(0x40)\n      tag_298\n      swap3\n      swap2\n      swap1\n      tag_156\n      jump\t// in\n    tag_298:\n      mload(0x40)\n      dup1\n      swap2\n      sub\n      swap1\n      log1\n        /* \"QvToken/ERC20.sol\":4110:4640  {\r... */\n      pop\n        /* \"QvToken/ERC20.sol\":4045:4640  function _burn(address account, uint256 amount) internal virtual {\r... */\n      pop\n      pop\n      jump\t// out\n    tag_177:\n      dup3\n      dup1\n      sload\n      tag_299\n      swap1\n      tag_66\n      jump\t// in\n    tag_299:\n      swap1\n      0x00\n      mstore\n      keccak256(0x00, 0x20)\n      swap1\n      0x1f\n      add\n      0x20\n      swap1\n      div\n      dup2\n      add\n      swap3\n      dup3\n      tag_301\n      jumpi\n      0x00\n      dup6\n      sstore\n      jump(tag_300)\n    tag_301:\n      dup3\n      0x1f\n      lt\n      tag_302\n      jumpi\n      dup1\n      mload\n      not(0xff)\n      and\n      dup4\n      dup1\n      add\n      or\n      dup6\n      sstore\n      jump(tag_300)\n    tag_302:\n      dup3\n      dup1\n      add\n      0x01\n      add\n      dup6\n      sstore\n      dup3\n      iszero\n      tag_300\n      jumpi\n      swap2\n      dup3\n      add\n    tag_303:\n      dup3\n      dup2\n      gt\n      iszero\n      tag_304\n      jumpi\n      dup3\n      mload\n      dup3\n      sstore\n      swap2\n      0x20\n      add\n      swap2\n      swap1\n      0x01\n      add\n      swap1\n      jump(tag_303)\n    tag_304:\n    tag_300:\n      pop\n      swap1\n      pop\n      tag_305\n      swap2\n      swap1\n      tag_306\n      jump\t// in\n    tag_305:\n      pop\n      swap1\n      jump\t// out\n    tag_192:\n      dup3\n      dup1\n      sload\n      tag_307\n      swap1\n      tag_66\n      jump\t// in\n    tag_307:\n      swap1\n      0x00\n      mstore\n      keccak256(0x00, 0x20)\n      swap1\n      0x1f\n      add\n      0x20\n      swap1\n      div\n      dup2\n      add\n      swap3\n      dup3\n      tag_309\n      jumpi\n      0x00\n      dup6\n      sstore\n      jump(tag_308)\n    tag_309:\n      dup3\n      0x1f\n      lt\n      tag_310\n      jumpi\n      dup1\n      calldataload\n      not(0xff)\n      and\n      dup4\n      dup1\n      add\n      or\n      dup6\n      sstore\n      jump(tag_308)\n    tag_310:\n      dup3\n      dup1\n      add\n      0x01\n      add\n      dup6\n      sstore\n      dup3\n      iszero\n      tag_308\n      jumpi\n      swap2\n      dup3\n      add\n    tag_311:\n      dup3\n      dup2\n      gt\n      iszero\n      tag_312\n      jumpi\n      dup3\n      calldataload\n      dup3\n      sstore\n      swap2\n      0x20\n      add\n      swap2\n      swap1\n      0x01\n      add\n      swap1\n      jump(tag_311)\n    tag_312:\n    tag_308:\n      pop\n      swap1\n      pop\n      tag_313\n      swap2\n      swap1\n      tag_306\n      jump\t// in\n    tag_313:\n      pop\n      swap1\n      jump\t// out\n    tag_222:\n      dup3\n      dup1\n      sload\n      tag_314\n      swap1\n      tag_66\n      jump\t// in\n    tag_314:\n      swap1\n      0x00\n      mstore\n      keccak256(0x00, 0x20)\n      swap1\n      0x1f\n      add\n      0x20\n      swap1\n      div\n      dup2\n      add\n      swap3\n      dup3\n      tag_316\n      jumpi\n      0x00\n      dup6\n      sstore\n      jump(tag_315)\n    tag_316:\n      dup3\n      0x1f\n      lt\n      tag_317\n      jumpi\n      dup1\n      sload\n      dup6\n      sstore\n      jump(tag_315)\n    tag_317:\n      dup3\n      dup1\n      add\n      0x01\n      add\n      dup6\n      sstore\n      dup3\n      iszero\n      tag_315\n      jumpi\n      0x00\n      mstore\n      keccak256(0x00, 0x20)\n      swap2\n      0x1f\n      add\n      0x20\n      swap1\n      div\n      dup3\n      add\n    tag_318:\n      dup3\n      dup2\n      gt\n      iszero\n      tag_319\n      jumpi\n      dup3\n      sload\n      dup3\n      sstore\n      swap2\n      0x01\n      add\n      swap2\n      swap1\n      0x01\n      add\n      swap1\n      jump(tag_318)\n    tag_319:\n    tag_315:\n      pop\n      swap1\n      pop\n      tag_320\n      swap2\n      swap1\n      tag_306\n      jump\t// in\n    tag_320:\n      pop\n      swap1\n      jump\t// out\n    tag_306:\n    tag_321:\n      dup1\n      dup3\n      gt\n      iszero\n      tag_322\n      jumpi\n      0x00\n      dup2\n      0x00\n      swap1\n      sstore\n      pop\n      0x01\n      add\n      jump(tag_321)\n    tag_322:\n      pop\n      swap1\n      jump\t// out\n        /* \"#utility.yul\":24:746   */\n    tag_324:\n        /* \"#utility.yul\":120:125   */\n      0x00\n        /* \"#utility.yul\":145:226   */\n      tag_326\n        /* \"#utility.yul\":161:225   */\n      tag_327\n        /* \"#utility.yul\":218:224   */\n      dup5\n        /* \"#utility.yul\":161:225   */\n      tag_328\n      jump\t// in\n    tag_327:\n        /* \"#utility.yul\":145:226   */\n      tag_329\n      jump\t// in\n    tag_326:\n        /* \"#utility.yul\":136:226   */\n      swap1\n      pop\n        /* \"#utility.yul\":246:251   */\n      dup1\n        /* \"#utility.yul\":275:281   */\n      dup4\n        /* \"#utility.yul\":268:273   */\n      dup3\n        /* \"#utility.yul\":261:282   */\n      mstore\n        /* \"#utility.yul\":309:313   */\n      0x20\n        /* \"#utility.yul\":302:307   */\n      dup3\n        /* \"#utility.yul\":298:314   */\n      add\n        /* \"#utility.yul\":291:314   */\n      swap1\n      pop\n        /* \"#utility.yul\":335:341   */\n      dup3\n        /* \"#utility.yul\":385:388   */\n      dup6\n        /* \"#utility.yul\":377:381   */\n      0x20\n        /* \"#utility.yul\":369:375   */\n      dup7\n        /* \"#utility.yul\":365:382   */\n      mul\n        /* \"#utility.yul\":360:363   */\n      dup3\n        /* \"#utility.yul\":356:383   */\n      add\n        /* \"#utility.yul\":353:389   */\n      gt\n        /* \"#utility.yul\":350:493   */\n      iszero\n      tag_330\n      jumpi\n        /* \"#utility.yul\":404:483   */\n      tag_331\n      tag_332\n      jump\t// in\n    tag_331:\n        /* \"#utility.yul\":350:493   */\n    tag_330:\n        /* \"#utility.yul\":517:518   */\n      0x00\n        /* \"#utility.yul\":502:740   */\n    tag_333:\n        /* \"#utility.yul\":527:533   */\n      dup6\n        /* \"#utility.yul\":524:525   */\n      dup2\n        /* \"#utility.yul\":521:534   */\n      lt\n        /* \"#utility.yul\":502:740   */\n      iszero\n      tag_335\n      jumpi\n        /* \"#utility.yul\":595:598   */\n      dup2\n        /* \"#utility.yul\":624:661   */\n      tag_336\n        /* \"#utility.yul\":657:660   */\n      dup9\n        /* \"#utility.yul\":645:655   */\n      dup3\n        /* \"#utility.yul\":624:661   */\n      tag_337\n      jump\t// in\n    tag_336:\n        /* \"#utility.yul\":619:622   */\n      dup5\n        /* \"#utility.yul\":612:662   */\n      mstore\n        /* \"#utility.yul\":691:695   */\n      0x20\n        /* \"#utility.yul\":686:689   */\n      dup5\n        /* \"#utility.yul\":682:696   */\n      add\n        /* \"#utility.yul\":675:696   */\n      swap4\n      pop\n        /* \"#utility.yul\":725:729   */\n      0x20\n        /* \"#utility.yul\":720:723   */\n      dup4\n        /* \"#utility.yul\":716:730   */\n      add\n        /* \"#utility.yul\":709:730   */\n      swap3\n      pop\n        /* \"#utility.yul\":562:740   */\n      pop\n        /* \"#utility.yul\":549:550   */\n      0x01\n        /* \"#utility.yul\":546:547   */\n      dup2\n        /* \"#utility.yul\":542:551   */\n      add\n        /* \"#utility.yul\":537:551   */\n      swap1\n      pop\n        /* \"#utility.yul\":502:740   */\n      jump(tag_333)\n    tag_335:\n        /* \"#utility.yul\":506:520   */\n      pop\n        /* \"#utility.yul\":126:746   */\n      pop\n      pop\n        /* \"#utility.yul\":24:746   */\n      swap4\n      swap3\n      pop\n      pop\n      pop\n      jump\t// out\n        /* \"#utility.yul\":768:1725   */\n    tag_338:\n        /* \"#utility.yul\":874:879   */\n      0x00\n        /* \"#utility.yul\":899:990   */\n      tag_340\n        /* \"#utility.yul\":915:989   */\n      tag_341\n        /* \"#utility.yul\":982:988   */\n      dup5\n        /* \"#utility.yul\":915:989   */\n      tag_342\n      jump\t// in\n    tag_341:\n        /* \"#utility.yul\":899:990   */\n      tag_329\n      jump\t// in\n    tag_340:\n        /* \"#utility.yul\":890:990   */\n      swap1\n      pop\n        /* \"#utility.yul\":1010:1015   */\n      dup1\n        /* \"#utility.yul\":1039:1045   */\n      dup4\n        /* \"#utility.yul\":1032:1037   */\n      dup3\n        /* \"#utility.yul\":1025:1046   */\n      mstore\n        /* \"#utility.yul\":1073:1077   */\n      0x20\n        /* \"#utility.yul\":1066:1071   */\n      dup3\n        /* \"#utility.yul\":1062:1078   */\n      add\n        /* \"#utility.yul\":1055:1078   */\n      swap1\n      pop\n        /* \"#utility.yul\":1099:1105   */\n      dup3\n        /* \"#utility.yul\":1149:1152   */\n      dup6\n        /* \"#utility.yul\":1141:1145   */\n      0x20\n        /* \"#utility.yul\":1133:1139   */\n      dup7\n        /* \"#utility.yul\":1129:1146   */\n      mul\n        /* \"#utility.yul\":1124:1127   */\n      dup3\n        /* \"#utility.yul\":1120:1147   */\n      add\n        /* \"#utility.yul\":1117:1153   */\n      gt\n        /* \"#utility.yul\":1114:1257   */\n      iszero\n      tag_343\n      jumpi\n        /* \"#utility.yul\":1168:1247   */\n      tag_344\n      tag_332\n      jump\t// in\n    tag_344:\n        /* \"#utility.yul\":1114:1257   */\n    tag_343:\n        /* \"#utility.yul\":1281:1282   */\n      0x00\n        /* \"#utility.yul\":1266:1719   */\n    tag_345:\n        /* \"#utility.yul\":1291:1297   */\n      dup6\n        /* \"#utility.yul\":1288:1289   */\n      dup2\n        /* \"#utility.yul\":1285:1298   */\n      lt\n        /* \"#utility.yul\":1266:1719   */\n      iszero\n      tag_347\n      jumpi\n        /* \"#utility.yul\":1373:1376   */\n      dup2\n        /* \"#utility.yul\":1360:1377   */\n      calldataload\n        /* \"#utility.yul\":1409:1427   */\n      0xffffffffffffffff\n        /* \"#utility.yul\":1396:1407   */\n      dup2\n        /* \"#utility.yul\":1393:1428   */\n      gt\n        /* \"#utility.yul\":1390:1512   */\n      iszero\n      tag_348\n      jumpi\n        /* \"#utility.yul\":1431:1510   */\n      tag_349\n      tag_350\n      jump\t// in\n    tag_349:\n        /* \"#utility.yul\":1390:1512   */\n    tag_348:\n        /* \"#utility.yul\":1555:1566   */\n      dup1\n        /* \"#utility.yul\":1547:1553   */\n      dup7\n        /* \"#utility.yul\":1543:1567   */\n      add\n        /* \"#utility.yul\":1593:1640   */\n      tag_351\n        /* \"#utility.yul\":1636:1639   */\n      dup10\n        /* \"#utility.yul\":1624:1634   */\n      dup3\n        /* \"#utility.yul\":1593:1640   */\n      tag_352\n      jump\t// in\n    tag_351:\n        /* \"#utility.yul\":1588:1591   */\n      dup6\n        /* \"#utility.yul\":1581:1641   */\n      mstore\n        /* \"#utility.yul\":1670:1674   */\n      0x20\n        /* \"#utility.yul\":1665:1668   */\n      dup6\n        /* \"#utility.yul\":1661:1675   */\n      add\n        /* \"#utility.yul\":1654:1675   */\n      swap5\n      pop\n        /* \"#utility.yul\":1704:1708   */\n      0x20\n        /* \"#utility.yul\":1699:1702   */\n      dup5\n        /* \"#utility.yul\":1695:1709   */\n      add\n        /* \"#utility.yul\":1688:1709   */\n      swap4\n      pop\n        /* \"#utility.yul\":1326:1719   */\n      pop\n      pop\n        /* \"#utility.yul\":1313:1314   */\n      0x01\n        /* \"#utility.yul\":1310:1311   */\n      dup2\n        /* \"#utility.yul\":1306:1315   */\n      add\n        /* \"#utility.yul\":1301:1315   */\n      swap1\n      pop\n        /* \"#utility.yul\":1266:1719   */\n      jump(tag_345)\n    tag_347:\n        /* \"#utility.yul\":1270:1284   */\n      pop\n        /* \"#utility.yul\":880:1725   */\n      pop\n      pop\n        /* \"#utility.yul\":768:1725   */\n      swap4\n      swap3\n      pop\n      pop\n      pop\n      jump\t// out\n        /* \"#utility.yul\":1748:2470   */\n    tag_353:\n        /* \"#utility.yul\":1844:1849   */\n      0x00\n        /* \"#utility.yul\":1869:1950   */\n      tag_355\n        /* \"#utility.yul\":1885:1949   */\n      tag_356\n        /* \"#utility.yul\":1942:1948   */\n      dup5\n        /* \"#utility.yul\":1885:1949   */\n      tag_357\n      jump\t// in\n    tag_356:\n        /* \"#utility.yul\":1869:1950   */\n      tag_329\n      jump\t// in\n    tag_355:\n        /* \"#utility.yul\":1860:1950   */\n      swap1\n      pop\n        /* \"#utility.yul\":1970:1975   */\n      dup1\n        /* \"#utility.yul\":1999:2005   */\n      dup4\n        /* \"#utility.yul\":1992:1997   */\n      dup3\n        /* \"#utility.yul\":1985:2006   */\n      mstore\n        /* \"#utility.yul\":2033:2037   */\n      0x20\n        /* \"#utility.yul\":2026:2031   */\n      dup3\n        /* \"#utility.yul\":2022:2038   */\n      add\n        /* \"#utility.yul\":2015:2038   */\n      swap1\n      pop\n        /* \"#utility.yul\":2059:2065   */\n      dup3\n        /* \"#utility.yul\":2109:2112   */\n      dup6\n        /* \"#utility.yul\":2101:2105   */\n      0x20\n        /* \"#utility.yul\":2093:2099   */\n      dup7\n        /* \"#utility.yul\":2089:2106   */\n      mul\n        /* \"#utility.yul\":2084:2087   */\n      dup3\n        /* \"#utility.yul\":2080:2107   */\n      add\n        /* \"#utility.yul\":2077:2113   */\n      gt\n        /* \"#utility.yul\":2074:2217   */\n      iszero\n      tag_358\n      jumpi\n        /* \"#utility.yul\":2128:2207   */\n      tag_359\n      tag_332\n      jump\t// in\n    tag_359:\n        /* \"#utility.yul\":2074:2217   */\n    tag_358:\n        /* \"#utility.yul\":2241:2242   */\n      0x00\n        /* \"#utility.yul\":2226:2464   */\n    tag_360:\n        /* \"#utility.yul\":2251:2257   */\n      dup6\n        /* \"#utility.yul\":2248:2249   */\n      dup2\n        /* \"#utility.yul\":2245:2258   */\n      lt\n        /* \"#utility.yul\":2226:2464   */\n      iszero\n      tag_362\n      jumpi\n        /* \"#utility.yul\":2319:2322   */\n      dup2\n        /* \"#utility.yul\":2348:2385   */\n      tag_363\n        /* \"#utility.yul\":2381:2384   */\n      dup9\n        /* \"#utility.yul\":2369:2379   */\n      dup3\n        /* \"#utility.yul\":2348:2385   */\n      tag_364\n      jump\t// in\n    tag_363:\n        /* \"#utility.yul\":2343:2346   */\n      dup5\n        /* \"#utility.yul\":2336:2386   */\n      mstore\n        /* \"#utility.yul\":2415:2419   */\n      0x20\n        /* \"#utility.yul\":2410:2413   */\n      dup5\n        /* \"#utility.yul\":2406:2420   */\n      add\n        /* \"#utility.yul\":2399:2420   */\n      swap4\n      pop\n        /* \"#utility.yul\":2449:2453   */\n      0x20\n        /* \"#utility.yul\":2444:2447   */\n      dup4\n        /* \"#utility.yul\":2440:2454   */\n      add\n        /* \"#utility.yul\":2433:2454   */\n      swap3\n      pop\n        /* \"#utility.yul\":2286:2464   */\n      pop\n        /* \"#utility.yul\":2273:2274   */\n      0x01\n        /* \"#utility.yul\":2270:2271   */\n      dup2\n        /* \"#utility.yul\":2266:2275   */\n      add\n        /* \"#utility.yul\":2261:2275   */\n      swap1\n      pop\n        /* \"#utility.yul\":2226:2464   */\n      jump(tag_360)\n    tag_362:\n        /* \"#utility.yul\":2230:2244   */\n      pop\n        /* \"#utility.yul\":1850:2470   */\n      pop\n      pop\n        /* \"#utility.yul\":1748:2470   */\n      swap4\n      swap3\n      pop\n      pop\n      pop\n      jump\t// out\n        /* \"#utility.yul\":2476:2888   */\n    tag_365:\n        /* \"#utility.yul\":2554:2559   */\n      0x00\n        /* \"#utility.yul\":2579:2645   */\n      tag_367\n        /* \"#utility.yul\":2595:2644   */\n      tag_368\n        /* \"#utility.yul\":2637:2643   */\n      dup5\n        /* \"#utility.yul\":2595:2644   */\n      tag_369\n      jump\t// in\n    tag_368:\n        /* \"#utility.yul\":2579:2645   */\n      tag_329\n      jump\t// in\n    tag_367:\n        /* \"#utility.yul\":2570:2645   */\n      swap1\n      pop\n        /* \"#utility.yul\":2668:2674   */\n      dup3\n        /* \"#utility.yul\":2661:2666   */\n      dup2\n        /* \"#utility.yul\":2654:2675   */\n      mstore\n        /* \"#utility.yul\":2706:2710   */\n      0x20\n        /* \"#utility.yul\":2699:2704   */\n      dup2\n        /* \"#utility.yul\":2695:2711   */\n      add\n        /* \"#utility.yul\":2744:2747   */\n      dup5\n        /* \"#utility.yul\":2735:2741   */\n      dup5\n        /* \"#utility.yul\":2730:2733   */\n      dup5\n        /* \"#utility.yul\":2726:2742   */\n      add\n        /* \"#utility.yul\":2723:2748   */\n      gt\n        /* \"#utility.yul\":2720:2832   */\n      iszero\n      tag_370\n      jumpi\n        /* \"#utility.yul\":2751:2830   */\n      tag_371\n      tag_372\n      jump\t// in\n    tag_371:\n        /* \"#utility.yul\":2720:2832   */\n    tag_370:\n        /* \"#utility.yul\":2841:2882   */\n      tag_373\n        /* \"#utility.yul\":2875:2881   */\n      dup5\n        /* \"#utility.yul\":2870:2873   */\n      dup3\n        /* \"#utility.yul\":2865:2868   */\n      dup6\n        /* \"#utility.yul\":2841:2882   */\n      tag_374\n      jump\t// in\n    tag_373:\n        /* \"#utility.yul\":2560:2888   */\n      pop\n        /* \"#utility.yul\":2476:2888   */\n      swap4\n      swap3\n      pop\n      pop\n      pop\n      jump\t// out\n        /* \"#utility.yul\":2894:3033   */\n    tag_337:\n        /* \"#utility.yul\":2940:2945   */\n      0x00\n        /* \"#utility.yul\":2978:2984   */\n      dup2\n        /* \"#utility.yul\":2965:2985   */\n      calldataload\n        /* \"#utility.yul\":2956:2985   */\n      swap1\n      pop\n        /* \"#utility.yul\":2994:3027   */\n      tag_376\n        /* \"#utility.yul\":3021:3026   */\n      dup2\n        /* \"#utility.yul\":2994:3027   */\n      tag_377\n      jump\t// in\n    tag_376:\n        /* \"#utility.yul\":2894:3033   */\n      swap3\n      swap2\n      pop\n      pop\n      jump\t// out\n        /* \"#utility.yul\":3056:3426   */\n    tag_378:\n        /* \"#utility.yul\":3127:3132   */\n      0x00\n        /* \"#utility.yul\":3176:3179   */\n      dup3\n        /* \"#utility.yul\":3169:3173   */\n      0x1f\n        /* \"#utility.yul\":3161:3167   */\n      dup4\n        /* \"#utility.yul\":3157:3174   */\n      add\n        /* \"#utility.yul\":3153:3180   */\n      slt\n        /* \"#utility.yul\":3143:3265   */\n      tag_380\n      jumpi\n        /* \"#utility.yul\":3184:3263   */\n      tag_381\n      tag_350\n      jump\t// in\n    tag_381:\n        /* \"#utility.yul\":3143:3265   */\n    tag_380:\n        /* \"#utility.yul\":3301:3307   */\n      dup2\n        /* \"#utility.yul\":3288:3308   */\n      calldataload\n        /* \"#utility.yul\":3326:3420   */\n      tag_382\n        /* \"#utility.yul\":3416:3419   */\n      dup5\n        /* \"#utility.yul\":3408:3414   */\n      dup3\n        /* \"#utility.yul\":3401:3405   */\n      0x20\n        /* \"#utility.yul\":3393:3399   */\n      dup7\n        /* \"#utility.yul\":3389:3406   */\n      add\n        /* \"#utility.yul\":3326:3420   */\n      tag_324\n      jump\t// in\n    tag_382:\n        /* \"#utility.yul\":3317:3420   */\n      swap2\n      pop\n        /* \"#utility.yul\":3133:3426   */\n      pop\n        /* \"#utility.yul\":3056:3426   */\n      swap3\n      swap2\n      pop\n      pop\n      jump\t// out\n        /* \"#utility.yul\":3448:4028   */\n    tag_383:\n        /* \"#utility.yul\":3533:3541   */\n      0x00\n        /* \"#utility.yul\":3543:3549   */\n      dup1\n        /* \"#utility.yul\":3593:3596   */\n      dup4\n        /* \"#utility.yul\":3586:3590   */\n      0x1f\n        /* \"#utility.yul\":3578:3584   */\n      dup5\n        /* \"#utility.yul\":3574:3591   */\n      add\n        /* \"#utility.yul\":3570:3597   */\n      slt\n        /* \"#utility.yul\":3560:3682   */\n      tag_385\n      jumpi\n        /* \"#utility.yul\":3601:3680   */\n      tag_386\n      tag_350\n      jump\t// in\n    tag_386:\n        /* \"#utility.yul\":3560:3682   */\n    tag_385:\n        /* \"#utility.yul\":3714:3720   */\n      dup3\n        /* \"#utility.yul\":3701:3721   */\n      calldataload\n        /* \"#utility.yul\":3691:3721   */\n      swap1\n      pop\n        /* \"#utility.yul\":3744:3762   */\n      0xffffffffffffffff\n        /* \"#utility.yul\":3736:3742   */\n      dup2\n        /* \"#utility.yul\":3733:3763   */\n      gt\n        /* \"#utility.yul\":3730:3847   */\n      iszero\n      tag_387\n      jumpi\n        /* \"#utility.yul\":3766:3845   */\n      tag_388\n      tag_389\n      jump\t// in\n    tag_388:\n        /* \"#utility.yul\":3730:3847   */\n    tag_387:\n        /* \"#utility.yul\":3880:3884   */\n      0x20\n        /* \"#utility.yul\":3872:3878   */\n      dup4\n        /* \"#utility.yul\":3868:3885   */\n      add\n        /* \"#utility.yul\":3856:3885   */\n      swap2\n      pop\n        /* \"#utility.yul\":3934:3937   */\n      dup4\n        /* \"#utility.yul\":3926:3930   */\n      0x20\n        /* \"#utility.yul\":3918:3924   */\n      dup3\n        /* \"#utility.yul\":3914:3931   */\n      mul\n        /* \"#utility.yul\":3904:3912   */\n      dup4\n        /* \"#utility.yul\":3900:3932   */\n      add\n        /* \"#utility.yul\":3897:3938   */\n      gt\n        /* \"#utility.yul\":3894:4022   */\n      iszero\n      tag_390\n      jumpi\n        /* \"#utility.yul\":3941:4020   */\n      tag_391\n      tag_332\n      jump\t// in\n    tag_391:\n        /* \"#utility.yul\":3894:4022   */\n    tag_390:\n        /* \"#utility.yul\":3448:4028   */\n      swap3\n      pop\n      swap3\n      swap1\n      pop\n      jump\t// out\n        /* \"#utility.yul\":4050:4440   */\n    tag_392:\n        /* \"#utility.yul\":4131:4136   */\n      0x00\n        /* \"#utility.yul\":4180:4183   */\n      dup3\n        /* \"#utility.yul\":4173:4177   */\n      0x1f\n        /* \"#utility.yul\":4165:4171   */\n      dup4\n        /* \"#utility.yul\":4161:4178   */\n      add\n        /* \"#utility.yul\":4157:4184   */\n      slt\n        /* \"#utility.yul\":4147:4269   */\n      tag_394\n      jumpi\n        /* \"#utility.yul\":4188:4267   */\n      tag_395\n      tag_350\n      jump\t// in\n    tag_395:\n        /* \"#utility.yul\":4147:4269   */\n    tag_394:\n        /* \"#utility.yul\":4305:4311   */\n      dup2\n        /* \"#utility.yul\":4292:4312   */\n      calldataload\n        /* \"#utility.yul\":4330:4434   */\n      tag_396\n        /* \"#utility.yul\":4430:4433   */\n      dup5\n        /* \"#utility.yul\":4422:4428   */\n      dup3\n        /* \"#utility.yul\":4415:4419   */\n      0x20\n        /* \"#utility.yul\":4407:4413   */\n      dup7\n        /* \"#utility.yul\":4403:4420   */\n      add\n        /* \"#utility.yul\":4330:4434   */\n      tag_338\n      jump\t// in\n    tag_396:\n        /* \"#utility.yul\":4321:4434   */\n      swap2\n      pop\n        /* \"#utility.yul\":4137:4440   */\n      pop\n        /* \"#utility.yul\":4050:4440   */\n      swap3\n      swap2\n      pop\n      pop\n      jump\t// out\n        /* \"#utility.yul\":4463:4833   */\n    tag_397:\n        /* \"#utility.yul\":4534:4539   */\n      0x00\n        /* \"#utility.yul\":4583:4586   */\n      dup3\n        /* \"#utility.yul\":4576:4580   */\n      0x1f\n        /* \"#utility.yul\":4568:4574   */\n      dup4\n        /* \"#utility.yul\":4564:4581   */\n      add\n        /* \"#utility.yul\":4560:4587   */\n      slt\n        /* \"#utility.yul\":4550:4672   */\n      tag_399\n      jumpi\n        /* \"#utility.yul\":4591:4670   */\n      tag_400\n      tag_350\n      jump\t// in\n    tag_400:\n        /* \"#utility.yul\":4550:4672   */\n    tag_399:\n        /* \"#utility.yul\":4708:4714   */\n      dup2\n        /* \"#utility.yul\":4695:4715   */\n      calldataload\n        /* \"#utility.yul\":4733:4827   */\n      tag_401\n        /* \"#utility.yul\":4823:4826   */\n      dup5\n        /* \"#utility.yul\":4815:4821   */\n      dup3\n        /* \"#utility.yul\":4808:4812   */\n      0x20\n        /* \"#utility.yul\":4800:4806   */\n      dup7\n        /* \"#utility.yul\":4796:4813   */\n      add\n        /* \"#utility.yul\":4733:4827   */\n      tag_353\n      jump\t// in\n    tag_401:\n        /* \"#utility.yul\":4724:4827   */\n      swap2\n      pop\n        /* \"#utility.yul\":4540:4833   */\n      pop\n        /* \"#utility.yul\":4463:4833   */\n      swap3\n      swap2\n      pop\n      pop\n      jump\t// out\n        /* \"#utility.yul\":4853:5193   */\n    tag_352:\n        /* \"#utility.yul\":4909:4914   */\n      0x00\n        /* \"#utility.yul\":4958:4961   */\n      dup3\n        /* \"#utility.yul\":4951:4955   */\n      0x1f\n        /* \"#utility.yul\":4943:4949   */\n      dup4\n        /* \"#utility.yul\":4939:4956   */\n      add\n        /* \"#utility.yul\":4935:4962   */\n      slt\n        /* \"#utility.yul\":4925:5047   */\n      tag_403\n      jumpi\n        /* \"#utility.yul\":4966:5045   */\n      tag_404\n      tag_350\n      jump\t// in\n    tag_404:\n        /* \"#utility.yul\":4925:5047   */\n    tag_403:\n        /* \"#utility.yul\":5083:5089   */\n      dup2\n        /* \"#utility.yul\":5070:5090   */\n      calldataload\n        /* \"#utility.yul\":5108:5187   */\n      tag_405\n        /* \"#utility.yul\":5183:5186   */\n      dup5\n        /* \"#utility.yul\":5175:5181   */\n      dup3\n        /* \"#utility.yul\":5168:5172   */\n      0x20\n        /* \"#utility.yul\":5160:5166   */\n      dup7\n        /* \"#utility.yul\":5156:5173   */\n      add\n        /* \"#utility.yul\":5108:5187   */\n      tag_365\n      jump\t// in\n    tag_405:\n        /* \"#utility.yul\":5099:5187   */\n      swap2\n      pop\n        /* \"#utility.yul\":4915:5193   */\n      pop\n        /* \"#utility.yul\":4853:5193   */\n      swap3\n      swap2\n      pop\n      pop\n      jump\t// out\n        /* \"#utility.yul\":5199:5338   */\n    tag_364:\n        /* \"#utility.yul\":5245:5250   */\n      0x00\n        /* \"#utility.yul\":5283:5289   */\n      dup2\n        /* \"#utility.yul\":5270:5290   */\n      calldataload\n        /* \"#utility.yul\":5261:5290   */\n      swap1\n      pop\n        /* \"#utility.yul\":5299:5332   */\n      tag_407\n        /* \"#utility.yul\":5326:5331   */\n      dup2\n        /* \"#utility.yul\":5299:5332   */\n      tag_408\n      jump\t// in\n    tag_407:\n        /* \"#utility.yul\":5199:5338   */\n      swap3\n      swap2\n      pop\n      pop\n      jump\t// out\n        /* \"#utility.yul\":5344:5479   */\n    tag_409:\n        /* \"#utility.yul\":5388:5393   */\n      0x00\n        /* \"#utility.yul\":5426:5432   */\n      dup2\n        /* \"#utility.yul\":5413:5433   */\n      calldataload\n        /* \"#utility.yul\":5404:5433   */\n      swap1\n      pop\n        /* \"#utility.yul\":5442:5473   */\n      tag_411\n        /* \"#utility.yul\":5467:5472   */\n      dup2\n        /* \"#utility.yul\":5442:5473   */\n      tag_412\n      jump\t// in\n    tag_411:\n        /* \"#utility.yul\":5344:5479   */\n      swap3\n      swap2\n      pop\n      pop\n      jump\t// out\n        /* \"#utility.yul\":5485:5814   */\n    tag_43:\n        /* \"#utility.yul\":5544:5550   */\n      0x00\n        /* \"#utility.yul\":5593:5595   */\n      0x20\n        /* \"#utility.yul\":5581:5590   */\n      dup3\n        /* \"#utility.yul\":5572:5579   */\n      dup5\n        /* \"#utility.yul\":5568:5591   */\n      sub\n        /* \"#utility.yul\":5564:5596   */\n      slt\n        /* \"#utility.yul\":5561:5680   */\n      iszero\n      tag_414\n      jumpi\n        /* \"#utility.yul\":5599:5678   */\n      tag_415\n      tag_416\n      jump\t// in\n    tag_415:\n        /* \"#utility.yul\":5561:5680   */\n    tag_414:\n        /* \"#utility.yul\":5719:5720   */\n      0x00\n        /* \"#utility.yul\":5744:5797   */\n      tag_417\n        /* \"#utility.yul\":5789:5796   */\n      dup5\n        /* \"#utility.yul\":5780:5786   */\n      dup3\n        /* \"#utility.yul\":5769:5778   */\n      dup6\n        /* \"#utility.yul\":5765:5787   */\n      add\n        /* \"#utility.yul\":5744:5797   */\n      tag_337\n      jump\t// in\n    tag_417:\n        /* \"#utility.yul\":5734:5797   */\n      swap2\n      pop\n        /* \"#utility.yul\":5690:5807   */\n      pop\n        /* \"#utility.yul\":5485:5814   */\n      swap3\n      swap2\n      pop\n      pop\n      jump\t// out\n        /* \"#utility.yul\":5820:6294   */\n    tag_56:\n        /* \"#utility.yul\":5888:5894   */\n      0x00\n        /* \"#utility.yul\":5896:5902   */\n      dup1\n        /* \"#utility.yul\":5945:5947   */\n      0x40\n        /* \"#utility.yul\":5933:5942   */\n      dup4\n        /* \"#utility.yul\":5924:5931   */\n      dup6\n        /* \"#utility.yul\":5920:5943   */\n      sub\n        /* \"#utility.yul\":5916:5948   */\n      slt\n        /* \"#utility.yul\":5913:6032   */\n      iszero\n      tag_419\n      jumpi\n        /* \"#utility.yul\":5951:6030   */\n      tag_420\n      tag_416\n      jump\t// in\n    tag_420:\n        /* \"#utility.yul\":5913:6032   */\n    tag_419:\n        /* \"#utility.yul\":6071:6072   */\n      0x00\n        /* \"#utility.yul\":6096:6149   */\n      tag_421\n        /* \"#utility.yul\":6141:6148   */\n      dup6\n        /* \"#utility.yul\":6132:6138   */\n      dup3\n        /* \"#utility.yul\":6121:6130   */\n      dup7\n        /* \"#utility.yul\":6117:6139   */\n      add\n        /* \"#utility.yul\":6096:6149   */\n      tag_337\n      jump\t// in\n    tag_421:\n        /* \"#utility.yul\":6086:6149   */\n      swap3\n      pop\n        /* \"#utility.yul\":6042:6159   */\n      pop\n        /* \"#utility.yul\":6198:6200   */\n      0x20\n        /* \"#utility.yul\":6224:6277   */\n      tag_422\n        /* \"#utility.yul\":6269:6276   */\n      dup6\n        /* \"#utility.yul\":6260:6266   */\n      dup3\n        /* \"#utility.yul\":6249:6258   */\n      dup7\n        /* \"#utility.yul\":6245:6267   */\n      add\n        /* \"#utility.yul\":6224:6277   */\n      tag_364\n      jump\t// in\n    tag_422:\n        /* \"#utility.yul\":6214:6277   */\n      swap2\n      pop\n        /* \"#utility.yul\":6169:6287   */\n      pop\n        /* \"#utility.yul\":5820:6294   */\n      swap3\n      pop\n      swap3\n      swap1\n      pop\n      jump\t// out\n        /* \"#utility.yul\":6300:6629   */\n    tag_17:\n        /* \"#utility.yul\":6359:6365   */\n      0x00\n        /* \"#utility.yul\":6408:6410   */\n      0x20\n        /* \"#utility.yul\":6396:6405   */\n      dup3\n        /* \"#utility.yul\":6387:6394   */\n      dup5\n        /* \"#utility.yul\":6383:6406   */\n      sub\n        /* \"#utility.yul\":6379:6411   */\n      slt\n        /* \"#utility.yul\":6376:6495   */\n      iszero\n      tag_424\n      jumpi\n        /* \"#utility.yul\":6414:6493   */\n      tag_425\n      tag_416\n      jump\t// in\n    tag_425:\n        /* \"#utility.yul\":6376:6495   */\n    tag_424:\n        /* \"#utility.yul\":6534:6535   */\n      0x00\n        /* \"#utility.yul\":6559:6612   */\n      tag_426\n        /* \"#utility.yul\":6604:6611   */\n      dup5\n        /* \"#utility.yul\":6595:6601   */\n      dup3\n        /* \"#utility.yul\":6584:6593   */\n      dup6\n        /* \"#utility.yul\":6580:6602   */\n      add\n        /* \"#utility.yul\":6559:6612   */\n      tag_364\n      jump\t// in\n    tag_426:\n        /* \"#utility.yul\":6549:6612   */\n      swap2\n      pop\n        /* \"#utility.yul\":6505:6622   */\n      pop\n        /* \"#utility.yul\":6300:6629   */\n      swap3\n      swap2\n      pop\n      pop\n      jump\t// out\n        /* \"#utility.yul\":6635:7840   */\n    tag_39:\n        /* \"#utility.yul\":6781:6787   */\n      0x00\n        /* \"#utility.yul\":6789:6795   */\n      dup1\n        /* \"#utility.yul\":6797:6803   */\n      0x00\n        /* \"#utility.yul\":6805:6811   */\n      dup1\n        /* \"#utility.yul\":6854:6857   */\n      0x80\n        /* \"#utility.yul\":6842:6851   */\n      dup6\n        /* \"#utility.yul\":6833:6840   */\n      dup8\n        /* \"#utility.yul\":6829:6852   */\n      sub\n        /* \"#utility.yul\":6825:6858   */\n      slt\n        /* \"#utility.yul\":6822:6942   */\n      iszero\n      tag_428\n      jumpi\n        /* \"#utility.yul\":6861:6940   */\n      tag_429\n      tag_416\n      jump\t// in\n    tag_429:\n        /* \"#utility.yul\":6822:6942   */\n    tag_428:\n        /* \"#utility.yul\":6981:6982   */\n      0x00\n        /* \"#utility.yul\":7006:7059   */\n      tag_430\n        /* \"#utility.yul\":7051:7058   */\n      dup8\n        /* \"#utility.yul\":7042:7048   */\n      dup3\n        /* \"#utility.yul\":7031:7040   */\n      dup9\n        /* \"#utility.yul\":7027:7049   */\n      add\n        /* \"#utility.yul\":7006:7059   */\n      tag_364\n      jump\t// in\n    tag_430:\n        /* \"#utility.yul\":6996:7059   */\n      swap5\n      pop\n        /* \"#utility.yul\":6952:7069   */\n      pop\n        /* \"#utility.yul\":7108:7110   */\n      0x20\n        /* \"#utility.yul\":7134:7187   */\n      tag_431\n        /* \"#utility.yul\":7179:7186   */\n      dup8\n        /* \"#utility.yul\":7170:7176   */\n      dup3\n        /* \"#utility.yul\":7159:7168   */\n      dup9\n        /* \"#utility.yul\":7155:7177   */\n      add\n        /* \"#utility.yul\":7134:7187   */\n      tag_337\n      jump\t// in\n    tag_431:\n        /* \"#utility.yul\":7124:7187   */\n      swap4\n      pop\n        /* \"#utility.yul\":7079:7197   */\n      pop\n        /* \"#utility.yul\":7264:7266   */\n      0x40\n        /* \"#utility.yul\":7253:7262   */\n      dup6\n        /* \"#utility.yul\":7249:7267   */\n      add\n        /* \"#utility.yul\":7236:7268   */\n      calldataload\n        /* \"#utility.yul\":7295:7313   */\n      0xffffffffffffffff\n        /* \"#utility.yul\":7287:7293   */\n      dup2\n        /* \"#utility.yul\":7284:7314   */\n      gt\n        /* \"#utility.yul\":7281:7398   */\n      iszero\n      tag_432\n      jumpi\n        /* \"#utility.yul\":7317:7396   */\n      tag_433\n      tag_434\n      jump\t// in\n    tag_433:\n        /* \"#utility.yul\":7281:7398   */\n    tag_432:\n        /* \"#utility.yul\":7422:7510   */\n      tag_435\n        /* \"#utility.yul\":7502:7509   */\n      dup8\n        /* \"#utility.yul\":7493:7499   */\n      dup3\n        /* \"#utility.yul\":7482:7491   */\n      dup9\n        /* \"#utility.yul\":7478:7500   */\n      add\n        /* \"#utility.yul\":7422:7510   */\n      tag_392\n      jump\t// in\n    tag_435:\n        /* \"#utility.yul\":7412:7510   */\n      swap3\n      pop\n        /* \"#utility.yul\":7207:7520   */\n      pop\n        /* \"#utility.yul\":7587:7589   */\n      0x60\n        /* \"#utility.yul\":7576:7585   */\n      dup6\n        /* \"#utility.yul\":7572:7590   */\n      add\n        /* \"#utility.yul\":7559:7591   */\n      calldataload\n        /* \"#utility.yul\":7618:7636   */\n      0xffffffffffffffff\n        /* \"#utility.yul\":7610:7616   */\n      dup2\n        /* \"#utility.yul\":7607:7637   */\n      gt\n        /* \"#utility.yul\":7604:7721   */\n      iszero\n      tag_436\n      jumpi\n        /* \"#utility.yul\":7640:7719   */\n      tag_437\n      tag_434\n      jump\t// in\n    tag_437:\n        /* \"#utility.yul\":7604:7721   */\n    tag_436:\n        /* \"#utility.yul\":7745:7823   */\n      tag_438\n        /* \"#utility.yul\":7815:7822   */\n      dup8\n        /* \"#utility.yul\":7806:7812   */\n      dup3\n        /* \"#utility.yul\":7795:7804   */\n      dup9\n        /* \"#utility.yul\":7791:7813   */\n      add\n        /* \"#utility.yul\":7745:7823   */\n      tag_397\n      jump\t// in\n    tag_438:\n        /* \"#utility.yul\":7735:7823   */\n      swap2\n      pop\n        /* \"#utility.yul\":7530:7833   */\n      pop\n        /* \"#utility.yul\":6635:7840   */\n      swap3\n      swap6\n      swap2\n      swap5\n      pop\n      swap3\n      pop\n      jump\t// out\n        /* \"#utility.yul\":7846:9835   */\n    tag_35:\n        /* \"#utility.yul\":8040:8046   */\n      0x00\n        /* \"#utility.yul\":8048:8054   */\n      dup1\n        /* \"#utility.yul\":8056:8062   */\n      0x00\n        /* \"#utility.yul\":8064:8070   */\n      dup1\n        /* \"#utility.yul\":8072:8078   */\n      0x00\n        /* \"#utility.yul\":8080:8086   */\n      dup1\n        /* \"#utility.yul\":8088:8094   */\n      0x00\n        /* \"#utility.yul\":8096:8102   */\n      dup1\n        /* \"#utility.yul\":8104:8110   */\n      0x00\n        /* \"#utility.yul\":8153:8156   */\n      0x0100\n        /* \"#utility.yul\":8141:8150   */\n      dup11\n        /* \"#utility.yul\":8132:8139   */\n      dup13\n        /* \"#utility.yul\":8128:8151   */\n      sub\n        /* \"#utility.yul\":8124:8157   */\n      slt\n        /* \"#utility.yul\":8121:8241   */\n      iszero\n      tag_440\n      jumpi\n        /* \"#utility.yul\":8160:8239   */\n      tag_441\n      tag_416\n      jump\t// in\n    tag_441:\n        /* \"#utility.yul\":8121:8241   */\n    tag_440:\n        /* \"#utility.yul\":8280:8281   */\n      0x00\n        /* \"#utility.yul\":8305:8356   */\n      tag_442\n        /* \"#utility.yul\":8348:8355   */\n      dup13\n        /* \"#utility.yul\":8339:8345   */\n      dup3\n        /* \"#utility.yul\":8328:8337   */\n      dup14\n        /* \"#utility.yul\":8324:8346   */\n      add\n        /* \"#utility.yul\":8305:8356   */\n      tag_409\n      jump\t// in\n    tag_442:\n        /* \"#utility.yul\":8295:8356   */\n      swap10\n      pop\n        /* \"#utility.yul\":8251:8366   */\n      pop\n        /* \"#utility.yul\":8433:8435   */\n      0x20\n        /* \"#utility.yul\":8422:8431   */\n      dup11\n        /* \"#utility.yul\":8418:8436   */\n      add\n        /* \"#utility.yul\":8405:8437   */\n      calldataload\n        /* \"#utility.yul\":8464:8482   */\n      0xffffffffffffffff\n        /* \"#utility.yul\":8456:8462   */\n      dup2\n        /* \"#utility.yul\":8453:8483   */\n      gt\n        /* \"#utility.yul\":8450:8567   */\n      iszero\n      tag_443\n      jumpi\n        /* \"#utility.yul\":8486:8565   */\n      tag_444\n      tag_434\n      jump\t// in\n    tag_444:\n        /* \"#utility.yul\":8450:8567   */\n    tag_443:\n        /* \"#utility.yul\":8591:8669   */\n      tag_445\n        /* \"#utility.yul\":8661:8668   */\n      dup13\n        /* \"#utility.yul\":8652:8658   */\n      dup3\n        /* \"#utility.yul\":8641:8650   */\n      dup14\n        /* \"#utility.yul\":8637:8659   */\n      add\n        /* \"#utility.yul\":8591:8669   */\n      tag_378\n      jump\t// in\n    tag_445:\n        /* \"#utility.yul\":8581:8669   */\n      swap9\n      pop\n        /* \"#utility.yul\":8376:8679   */\n      pop\n        /* \"#utility.yul\":8718:8720   */\n      0x40\n        /* \"#utility.yul\":8744:8797   */\n      tag_446\n        /* \"#utility.yul\":8789:8796   */\n      dup13\n        /* \"#utility.yul\":8780:8786   */\n      dup3\n        /* \"#utility.yul\":8769:8778   */\n      dup14\n        /* \"#utility.yul\":8765:8787   */\n      add\n        /* \"#utility.yul\":8744:8797   */\n      tag_337\n      jump\t// in\n    tag_446:\n        /* \"#utility.yul\":8734:8797   */\n      swap8\n      pop\n        /* \"#utility.yul\":8689:8807   */\n      pop\n        /* \"#utility.yul\":8846:8848   */\n      0x60\n        /* \"#utility.yul\":8872:8925   */\n      tag_447\n        /* \"#utility.yul\":8917:8924   */\n      dup13\n        /* \"#utility.yul\":8908:8914   */\n      dup3\n        /* \"#utility.yul\":8897:8906   */\n      dup14\n        /* \"#utility.yul\":8893:8915   */\n      add\n        /* \"#utility.yul\":8872:8925   */\n      tag_364\n      jump\t// in\n    tag_447:\n        /* \"#utility.yul\":8862:8925   */\n      swap7\n      pop\n        /* \"#utility.yul\":8817:8935   */\n      pop\n        /* \"#utility.yul\":8974:8977   */\n      0x80\n        /* \"#utility.yul\":9001:9054   */\n      tag_448\n        /* \"#utility.yul\":9046:9053   */\n      dup13\n        /* \"#utility.yul\":9037:9043   */\n      dup3\n        /* \"#utility.yul\":9026:9035   */\n      dup14\n        /* \"#utility.yul\":9022:9044   */\n      add\n        /* \"#utility.yul\":9001:9054   */\n      tag_364\n      jump\t// in\n    tag_448:\n        /* \"#utility.yul\":8991:9054   */\n      swap6\n      pop\n        /* \"#utility.yul\":8945:9064   */\n      pop\n        /* \"#utility.yul\":9131:9134   */\n      0xa0\n        /* \"#utility.yul\":9120:9129   */\n      dup11\n        /* \"#utility.yul\":9116:9135   */\n      add\n        /* \"#utility.yul\":9103:9136   */\n      calldataload\n        /* \"#utility.yul\":9163:9181   */\n      0xffffffffffffffff\n        /* \"#utility.yul\":9155:9161   */\n      dup2\n        /* \"#utility.yul\":9152:9182   */\n      gt\n        /* \"#utility.yul\":9149:9266   */\n      iszero\n      tag_449\n      jumpi\n        /* \"#utility.yul\":9185:9264   */\n      tag_450\n      tag_434\n      jump\t// in\n    tag_450:\n        /* \"#utility.yul\":9149:9266   */\n    tag_449:\n        /* \"#utility.yul\":9290:9353   */\n      tag_451\n        /* \"#utility.yul\":9345:9352   */\n      dup13\n        /* \"#utility.yul\":9336:9342   */\n      dup3\n        /* \"#utility.yul\":9325:9334   */\n      dup14\n        /* \"#utility.yul\":9321:9343   */\n      add\n        /* \"#utility.yul\":9290:9353   */\n      tag_352\n      jump\t// in\n    tag_451:\n        /* \"#utility.yul\":9280:9353   */\n      swap5\n      pop\n        /* \"#utility.yul\":9074:9363   */\n      pop\n        /* \"#utility.yul\":9430:9433   */\n      0xc0\n        /* \"#utility.yul\":9419:9428   */\n      dup11\n        /* \"#utility.yul\":9415:9434   */\n      add\n        /* \"#utility.yul\":9402:9435   */\n      calldataload\n        /* \"#utility.yul\":9462:9480   */\n      0xffffffffffffffff\n        /* \"#utility.yul\":9454:9460   */\n      dup2\n        /* \"#utility.yul\":9451:9481   */\n      gt\n        /* \"#utility.yul\":9448:9565   */\n      iszero\n      tag_452\n      jumpi\n        /* \"#utility.yul\":9484:9563   */\n      tag_453\n      tag_434\n      jump\t// in\n    tag_453:\n        /* \"#utility.yul\":9448:9565   */\n    tag_452:\n        /* \"#utility.yul\":9597:9689   */\n      tag_454\n        /* \"#utility.yul\":9681:9688   */\n      dup13\n        /* \"#utility.yul\":9672:9678   */\n      dup3\n        /* \"#utility.yul\":9661:9670   */\n      dup14\n        /* \"#utility.yul\":9657:9679   */\n      add\n        /* \"#utility.yul\":9597:9689   */\n      tag_383\n      jump\t// in\n    tag_454:\n        /* \"#utility.yul\":9579:9689   */\n      swap4\n      pop\n      swap4\n      pop\n        /* \"#utility.yul\":9373:9699   */\n      pop\n        /* \"#utility.yul\":9738:9741   */\n      0xe0\n        /* \"#utility.yul\":9765:9818   */\n      tag_455\n        /* \"#utility.yul\":9810:9817   */\n      dup13\n        /* \"#utility.yul\":9801:9807   */\n      dup3\n        /* \"#utility.yul\":9790:9799   */\n      dup14\n        /* \"#utility.yul\":9786:9808   */\n      add\n        /* \"#utility.yul\":9765:9818   */\n      tag_364\n      jump\t// in\n    tag_455:\n        /* \"#utility.yul\":9755:9818   */\n      swap2\n      pop\n        /* \"#utility.yul\":9709:9828   */\n      pop\n        /* \"#utility.yul\":7846:9835   */\n      swap3\n      swap6\n      swap9\n      pop\n      swap3\n      swap6\n      swap9\n      pop\n      swap3\n      swap6\n      swap9\n      jump\t// out\n        /* \"#utility.yul\":9841:10020   */\n    tag_456:\n        /* \"#utility.yul\":9910:9920   */\n      0x00\n        /* \"#utility.yul\":9931:9977   */\n      tag_458\n        /* \"#utility.yul\":9973:9976   */\n      dup4\n        /* \"#utility.yul\":9965:9971   */\n      dup4\n        /* \"#utility.yul\":9931:9977   */\n      tag_459\n      jump\t// in\n    tag_458:\n        /* \"#utility.yul\":10009:10013   */\n      0x20\n        /* \"#utility.yul\":10004:10007   */\n      dup4\n        /* \"#utility.yul\":10000:10014   */\n      add\n        /* \"#utility.yul\":9986:10014   */\n      swap1\n      pop\n        /* \"#utility.yul\":9841:10020   */\n      swap3\n      swap2\n      pop\n      pop\n      jump\t// out\n        /* \"#utility.yul\":10026:10242   */\n    tag_460:\n        /* \"#utility.yul\":10125:10135   */\n      0x00\n        /* \"#utility.yul\":10160:10236   */\n      tag_462\n        /* \"#utility.yul\":10232:10235   */\n      dup5\n        /* \"#utility.yul\":10224:10230   */\n      dup5\n        /* \"#utility.yul\":10216:10222   */\n      dup5\n        /* \"#utility.yul\":10160:10236   */\n      tag_463\n      jump\t// in\n    tag_462:\n        /* \"#utility.yul\":10146:10236   */\n      swap1\n      pop\n        /* \"#utility.yul\":10026:10242   */\n      swap4\n      swap3\n      pop\n      pop\n      pop\n      jump\t// out\n        /* \"#utility.yul\":10248:10356   */\n    tag_459:\n        /* \"#utility.yul\":10325:10349   */\n      tag_465\n        /* \"#utility.yul\":10343:10348   */\n      dup2\n        /* \"#utility.yul\":10325:10349   */\n      tag_466\n      jump\t// in\n    tag_465:\n        /* \"#utility.yul\":10320:10323   */\n      dup3\n        /* \"#utility.yul\":10313:10350   */\n      mstore\n        /* \"#utility.yul\":10248:10356   */\n      pop\n      pop\n      jump\t// out\n        /* \"#utility.yul\":10362:10480   */\n    tag_467:\n        /* \"#utility.yul\":10449:10473   */\n      tag_469\n        /* \"#utility.yul\":10467:10472   */\n      dup2\n        /* \"#utility.yul\":10449:10473   */\n      tag_466\n      jump\t// in\n    tag_469:\n        /* \"#utility.yul\":10444:10447   */\n      dup3\n        /* \"#utility.yul\":10437:10474   */\n      mstore\n        /* \"#utility.yul\":10362:10480   */\n      pop\n      pop\n      jump\t// out\n        /* \"#utility.yul\":10516:11248   */\n    tag_470:\n        /* \"#utility.yul\":10635:10638   */\n      0x00\n        /* \"#utility.yul\":10664:10718   */\n      tag_472\n        /* \"#utility.yul\":10712:10717   */\n      dup3\n        /* \"#utility.yul\":10664:10718   */\n      tag_473\n      jump\t// in\n    tag_472:\n        /* \"#utility.yul\":10734:10820   */\n      tag_474\n        /* \"#utility.yul\":10813:10819   */\n      dup2\n        /* \"#utility.yul\":10808:10811   */\n      dup6\n        /* \"#utility.yul\":10734:10820   */\n      tag_475\n      jump\t// in\n    tag_474:\n        /* \"#utility.yul\":10727:10820   */\n      swap4\n      pop\n        /* \"#utility.yul\":10844:10900   */\n      tag_476\n        /* \"#utility.yul\":10894:10899   */\n      dup4\n        /* \"#utility.yul\":10844:10900   */\n      tag_477\n      jump\t// in\n    tag_476:\n        /* \"#utility.yul\":10923:10930   */\n      dup1\n        /* \"#utility.yul\":10954:10955   */\n      0x00\n        /* \"#utility.yul\":10939:11223   */\n    tag_478:\n        /* \"#utility.yul\":10964:10970   */\n      dup4\n        /* \"#utility.yul\":10961:10962   */\n      dup2\n        /* \"#utility.yul\":10958:10971   */\n      lt\n        /* \"#utility.yul\":10939:11223   */\n      iszero\n      tag_480\n      jumpi\n        /* \"#utility.yul\":11040:11046   */\n      dup2\n        /* \"#utility.yul\":11034:11047   */\n      mload\n        /* \"#utility.yul\":11067:11130   */\n      tag_481\n        /* \"#utility.yul\":11126:11129   */\n      dup9\n        /* \"#utility.yul\":11111:11124   */\n      dup3\n        /* \"#utility.yul\":11067:11130   */\n      tag_456\n      jump\t// in\n    tag_481:\n        /* \"#utility.yul\":11060:11130   */\n      swap8\n      pop\n        /* \"#utility.yul\":11153:11213   */\n      tag_482\n        /* \"#utility.yul\":11206:11212   */\n      dup4\n        /* \"#utility.yul\":11153:11213   */\n      tag_483\n      jump\t// in\n    tag_482:\n        /* \"#utility.yul\":11143:11213   */\n      swap3\n      pop\n        /* \"#utility.yul\":10999:11223   */\n      pop\n        /* \"#utility.yul\":10986:10987   */\n      0x01\n        /* \"#utility.yul\":10983:10984   */\n      dup2\n        /* \"#utility.yul\":10979:10988   */\n      add\n        /* \"#utility.yul\":10974:10988   */\n      swap1\n      pop\n        /* \"#utility.yul\":10939:11223   */\n      jump(tag_478)\n    tag_480:\n        /* \"#utility.yul\":10943:10957   */\n      pop\n        /* \"#utility.yul\":11239:11242   */\n      dup6\n        /* \"#utility.yul\":11232:11242   */\n      swap4\n      pop\n        /* \"#utility.yul\":10640:11248   */\n      pop\n      pop\n      pop\n        /* \"#utility.yul\":10516:11248   */\n      swap3\n      swap2\n      pop\n      pop\n      jump\t// out\n        /* \"#utility.yul\":11282:12280   */\n    tag_484:\n        /* \"#utility.yul\":11433:11436   */\n      0x00\n        /* \"#utility.yul\":11456:11552   */\n      tag_486\n        /* \"#utility.yul\":11545:11551   */\n      dup4\n        /* \"#utility.yul\":11540:11543   */\n      dup6\n        /* \"#utility.yul\":11456:11552   */\n      tag_487\n      jump\t// in\n    tag_486:\n        /* \"#utility.yul\":11449:11552   */\n      swap4\n      pop\n        /* \"#utility.yul\":11578:11581   */\n      dup4\n        /* \"#utility.yul\":11623:11627   */\n      0x20\n        /* \"#utility.yul\":11615:11621   */\n      dup5\n        /* \"#utility.yul\":11611:11628   */\n      mul\n        /* \"#utility.yul\":11606:11609   */\n      dup6\n        /* \"#utility.yul\":11602:11629   */\n      add\n        /* \"#utility.yul\":11653:11723   */\n      tag_488\n        /* \"#utility.yul\":11717:11722   */\n      dup5\n        /* \"#utility.yul\":11653:11723   */\n      tag_489\n      jump\t// in\n    tag_488:\n        /* \"#utility.yul\":11746:11753   */\n      dup1\n        /* \"#utility.yul\":11777:11778   */\n      0x00\n        /* \"#utility.yul\":11762:12235   */\n    tag_490:\n        /* \"#utility.yul\":11787:11793   */\n      dup8\n        /* \"#utility.yul\":11784:11785   */\n      dup2\n        /* \"#utility.yul\":11781:11794   */\n      lt\n        /* \"#utility.yul\":11762:12235   */\n      iszero\n      tag_492\n      jumpi\n        /* \"#utility.yul\":11858:11867   */\n      dup5\n        /* \"#utility.yul\":11852:11856   */\n      dup5\n        /* \"#utility.yul\":11848:11868   */\n      sub\n        /* \"#utility.yul\":11843:11846   */\n      dup10\n        /* \"#utility.yul\":11836:11869   */\n      mstore\n        /* \"#utility.yul\":11918:11972   */\n      tag_493\n        /* \"#utility.yul\":11965:11971   */\n      dup3\n        /* \"#utility.yul\":11956:11963   */\n      dup5\n        /* \"#utility.yul\":11918:11972   */\n      tag_494\n      jump\t// in\n    tag_493:\n        /* \"#utility.yul\":11993:12094   */\n      tag_495\n        /* \"#utility.yul\":12089:12093   */\n      dup7\n        /* \"#utility.yul\":12074:12087   */\n      dup3\n        /* \"#utility.yul\":12059:12072   */\n      dup5\n        /* \"#utility.yul\":11993:12094   */\n      tag_460\n      jump\t// in\n    tag_495:\n        /* \"#utility.yul\":11985:12094   */\n      swap6\n      pop\n        /* \"#utility.yul\":12117:12191   */\n      tag_496\n        /* \"#utility.yul\":12184:12190   */\n      dup5\n        /* \"#utility.yul\":12117:12191   */\n      tag_497\n      jump\t// in\n    tag_496:\n        /* \"#utility.yul\":12107:12191   */\n      swap4\n      pop\n        /* \"#utility.yul\":12220:12224   */\n      0x20\n        /* \"#utility.yul\":12215:12218   */\n      dup12\n        /* \"#utility.yul\":12211:12225   */\n      add\n        /* \"#utility.yul\":12204:12225   */\n      swap11\n      pop\n        /* \"#utility.yul\":11822:12235   */\n      pop\n      pop\n        /* \"#utility.yul\":11809:11810   */\n      0x01\n        /* \"#utility.yul\":11806:11807   */\n      dup2\n        /* \"#utility.yul\":11802:11811   */\n      add\n        /* \"#utility.yul\":11797:11811   */\n      swap1\n      pop\n        /* \"#utility.yul\":11762:12235   */\n      jump(tag_490)\n    tag_492:\n        /* \"#utility.yul\":11766:11780   */\n      pop\n        /* \"#utility.yul\":12251:12255   */\n      dup3\n        /* \"#utility.yul\":12244:12255   */\n      swap8\n      pop\n        /* \"#utility.yul\":12271:12274   */\n      dup8\n        /* \"#utility.yul\":12264:12274   */\n      swap5\n      pop\n        /* \"#utility.yul\":11438:12280   */\n      pop\n      pop\n      pop\n      pop\n        /* \"#utility.yul\":11282:12280   */\n      swap4\n      swap3\n      pop\n      pop\n      pop\n      jump\t// out\n        /* \"#utility.yul\":12286:12395   */\n    tag_498:\n        /* \"#utility.yul\":12367:12388   */\n      tag_500\n        /* \"#utility.yul\":12382:12387   */\n      dup2\n        /* \"#utility.yul\":12367:12388   */\n      tag_501\n      jump\t// in\n    tag_500:\n        /* \"#utility.yul\":12362:12365   */\n      dup3\n        /* \"#utility.yul\":12355:12389   */\n      mstore\n        /* \"#utility.yul\":12286:12395   */\n      pop\n      pop\n      jump\t// out\n        /* \"#utility.yul\":12425:12709   */\n    tag_463:\n        /* \"#utility.yul\":12513:12516   */\n      0x00\n        /* \"#utility.yul\":12534:12595   */\n      tag_503\n        /* \"#utility.yul\":12588:12594   */\n      dup4\n        /* \"#utility.yul\":12583:12586   */\n      dup6\n        /* \"#utility.yul\":12534:12595   */\n      tag_504\n      jump\t// in\n    tag_503:\n        /* \"#utility.yul\":12527:12595   */\n      swap4\n      pop\n        /* \"#utility.yul\":12605:12648   */\n      tag_505\n        /* \"#utility.yul\":12641:12647   */\n      dup4\n        /* \"#utility.yul\":12636:12639   */\n      dup6\n        /* \"#utility.yul\":12629:12634   */\n      dup5\n        /* \"#utility.yul\":12605:12648   */\n      tag_374\n      jump\t// in\n    tag_505:\n        /* \"#utility.yul\":12673:12702   */\n      tag_506\n        /* \"#utility.yul\":12695:12701   */\n      dup4\n        /* \"#utility.yul\":12673:12702   */\n      tag_507\n      jump\t// in\n    tag_506:\n        /* \"#utility.yul\":12668:12671   */\n      dup5\n        /* \"#utility.yul\":12664:12703   */\n      add\n        /* \"#utility.yul\":12657:12703   */\n      swap1\n      pop\n        /* \"#utility.yul\":12425:12709   */\n      swap4\n      swap3\n      pop\n      pop\n      pop\n      jump\t// out\n        /* \"#utility.yul\":12739:13056   */\n    tag_508:\n        /* \"#utility.yul\":12855:12858   */\n      0x00\n        /* \"#utility.yul\":12876:12965   */\n      tag_510\n        /* \"#utility.yul\":12958:12964   */\n      dup4\n        /* \"#utility.yul\":12953:12956   */\n      dup6\n        /* \"#utility.yul\":12876:12965   */\n      tag_511\n      jump\t// in\n    tag_510:\n        /* \"#utility.yul\":12869:12965   */\n      swap4\n      pop\n        /* \"#utility.yul\":12975:13018   */\n      tag_512\n        /* \"#utility.yul\":13011:13017   */\n      dup4\n        /* \"#utility.yul\":13006:13009   */\n      dup6\n        /* \"#utility.yul\":12999:13004   */\n      dup5\n        /* \"#utility.yul\":12975:13018   */\n      tag_374\n      jump\t// in\n    tag_512:\n        /* \"#utility.yul\":13043:13049   */\n      dup3\n        /* \"#utility.yul\":13038:13041   */\n      dup5\n        /* \"#utility.yul\":13034:13050   */\n      add\n        /* \"#utility.yul\":13027:13050   */\n      swap1\n      pop\n        /* \"#utility.yul\":12739:13056   */\n      swap4\n      swap3\n      pop\n      pop\n      pop\n      jump\t// out\n        /* \"#utility.yul\":13062:13426   */\n    tag_513:\n        /* \"#utility.yul\":13150:13153   */\n      0x00\n        /* \"#utility.yul\":13178:13217   */\n      tag_515\n        /* \"#utility.yul\":13211:13216   */\n      dup3\n        /* \"#utility.yul\":13178:13217   */\n      tag_516\n      jump\t// in\n    tag_515:\n        /* \"#utility.yul\":13233:13304   */\n      tag_517\n        /* \"#utility.yul\":13297:13303   */\n      dup2\n        /* \"#utility.yul\":13292:13295   */\n      dup6\n        /* \"#utility.yul\":13233:13304   */\n      tag_518\n      jump\t// in\n    tag_517:\n        /* \"#utility.yul\":13226:13304   */\n      swap4\n      pop\n        /* \"#utility.yul\":13313:13365   */\n      tag_519\n        /* \"#utility.yul\":13358:13364   */\n      dup2\n        /* \"#utility.yul\":13353:13356   */\n      dup6\n        /* \"#utility.yul\":13346:13350   */\n      0x20\n        /* \"#utility.yul\":13339:13344   */\n      dup7\n        /* \"#utility.yul\":13335:13351   */\n      add\n        /* \"#utility.yul\":13313:13365   */\n      tag_520\n      jump\t// in\n    tag_519:\n        /* \"#utility.yul\":13390:13419   */\n      tag_521\n        /* \"#utility.yul\":13412:13418   */\n      dup2\n        /* \"#utility.yul\":13390:13419   */\n      tag_507\n      jump\t// in\n    tag_521:\n        /* \"#utility.yul\":13385:13388   */\n      dup5\n        /* \"#utility.yul\":13381:13420   */\n      add\n        /* \"#utility.yul\":13374:13420   */\n      swap2\n      pop\n        /* \"#utility.yul\":13154:13426   */\n      pop\n        /* \"#utility.yul\":13062:13426   */\n      swap3\n      swap2\n      pop\n      pop\n      jump\t// out\n        /* \"#utility.yul\":13432:13809   */\n    tag_522:\n        /* \"#utility.yul\":13538:13541   */\n      0x00\n        /* \"#utility.yul\":13566:13605   */\n      tag_524\n        /* \"#utility.yul\":13599:13604   */\n      dup3\n        /* \"#utility.yul\":13566:13605   */\n      tag_516\n      jump\t// in\n    tag_524:\n        /* \"#utility.yul\":13621:13710   */\n      tag_525\n        /* \"#utility.yul\":13703:13709   */\n      dup2\n        /* \"#utility.yul\":13698:13701   */\n      dup6\n        /* \"#utility.yul\":13621:13710   */\n      tag_511\n      jump\t// in\n    tag_525:\n        /* \"#utility.yul\":13614:13710   */\n      swap4\n      pop\n        /* \"#utility.yul\":13719:13771   */\n      tag_526\n        /* \"#utility.yul\":13764:13770   */\n      dup2\n        /* \"#utility.yul\":13759:13762   */\n      dup6\n        /* \"#utility.yul\":13752:13756   */\n      0x20\n        /* \"#utility.yul\":13745:13750   */\n      dup7\n        /* \"#utility.yul\":13741:13757   */\n      add\n        /* \"#utility.yul\":13719:13771   */\n      tag_520\n      jump\t// in\n    tag_526:\n        /* \"#utility.yul\":13796:13802   */\n      dup1\n        /* \"#utility.yul\":13791:13794   */\n      dup5\n        /* \"#utility.yul\":13787:13803   */\n      add\n        /* \"#utility.yul\":13780:13803   */\n      swap2\n      pop\n        /* \"#utility.yul\":13542:13809   */\n      pop\n        /* \"#utility.yul\":13432:13809   */\n      swap3\n      swap2\n      pop\n      pop\n      jump\t// out\n        /* \"#utility.yul\":13839:14684   */\n    tag_527:\n        /* \"#utility.yul\":13942:13945   */\n      0x00\n        /* \"#utility.yul\":13979:13984   */\n      dup2\n        /* \"#utility.yul\":13973:13985   */\n      sload\n        /* \"#utility.yul\":14008:14044   */\n      tag_529\n        /* \"#utility.yul\":14034:14043   */\n      dup2\n        /* \"#utility.yul\":14008:14044   */\n      tag_66\n      jump\t// in\n    tag_529:\n        /* \"#utility.yul\":14060:14149   */\n      tag_530\n        /* \"#utility.yul\":14142:14148   */\n      dup2\n        /* \"#utility.yul\":14137:14140   */\n      dup7\n        /* \"#utility.yul\":14060:14149   */\n      tag_511\n      jump\t// in\n    tag_530:\n        /* \"#utility.yul\":14053:14149   */\n      swap5\n      pop\n        /* \"#utility.yul\":14180:14181   */\n      0x01\n        /* \"#utility.yul\":14169:14178   */\n      dup3\n        /* \"#utility.yul\":14165:14182   */\n      and\n        /* \"#utility.yul\":14196:14197   */\n      0x00\n        /* \"#utility.yul\":14191:14328   */\n      dup2\n      eq\n      tag_532\n      jumpi\n        /* \"#utility.yul\":14342:14343   */\n      0x01\n        /* \"#utility.yul\":14337:14678   */\n      dup2\n      eq\n      tag_533\n      jumpi\n        /* \"#utility.yul\":14158:14678   */\n      jump(tag_531)\n        /* \"#utility.yul\":14191:14328   */\n    tag_532:\n        /* \"#utility.yul\":14275:14279   */\n      0xff\n        /* \"#utility.yul\":14271:14280   */\n      not\n        /* \"#utility.yul\":14260:14269   */\n      dup4\n        /* \"#utility.yul\":14256:14281   */\n      and\n        /* \"#utility.yul\":14251:14254   */\n      dup7\n        /* \"#utility.yul\":14244:14282   */\n      mstore\n        /* \"#utility.yul\":14311:14317   */\n      dup2\n        /* \"#utility.yul\":14306:14309   */\n      dup7\n        /* \"#utility.yul\":14302:14318   */\n      add\n        /* \"#utility.yul\":14295:14318   */\n      swap4\n      pop\n        /* \"#utility.yul\":14191:14328   */\n      jump(tag_531)\n        /* \"#utility.yul\":14337:14678   */\n    tag_533:\n        /* \"#utility.yul\":14404:14442   */\n      tag_534\n        /* \"#utility.yul\":14436:14441   */\n      dup6\n        /* \"#utility.yul\":14404:14442   */\n      tag_535\n      jump\t// in\n    tag_534:\n        /* \"#utility.yul\":14464:14465   */\n      0x00\n        /* \"#utility.yul\":14478:14632   */\n    tag_536:\n        /* \"#utility.yul\":14492:14498   */\n      dup4\n        /* \"#utility.yul\":14489:14490   */\n      dup2\n        /* \"#utility.yul\":14486:14499   */\n      lt\n        /* \"#utility.yul\":14478:14632   */\n      iszero\n      tag_538\n      jumpi\n        /* \"#utility.yul\":14566:14573   */\n      dup2\n        /* \"#utility.yul\":14560:14574   */\n      sload\n        /* \"#utility.yul\":14556:14557   */\n      dup2\n        /* \"#utility.yul\":14551:14554   */\n      dup10\n        /* \"#utility.yul\":14547:14558   */\n      add\n        /* \"#utility.yul\":14540:14575   */\n      mstore\n        /* \"#utility.yul\":14616:14617   */\n      0x01\n        /* \"#utility.yul\":14607:14614   */\n      dup3\n        /* \"#utility.yul\":14603:14618   */\n      add\n        /* \"#utility.yul\":14592:14618   */\n      swap2\n      pop\n        /* \"#utility.yul\":14514:14518   */\n      0x20\n        /* \"#utility.yul\":14511:14512   */\n      dup2\n        /* \"#utility.yul\":14507:14519   */\n      add\n        /* \"#utility.yul\":14502:14519   */\n      swap1\n      pop\n        /* \"#utility.yul\":14478:14632   */\n      jump(tag_536)\n    tag_538:\n        /* \"#utility.yul\":14661:14667   */\n      dup4\n        /* \"#utility.yul\":14656:14659   */\n      dup9\n        /* \"#utility.yul\":14652:14668   */\n      add\n        /* \"#utility.yul\":14645:14668   */\n      swap6\n      pop\n        /* \"#utility.yul\":14344:14678   */\n      pop\n      pop\n        /* \"#utility.yul\":14158:14678   */\n    tag_531:\n      pop\n        /* \"#utility.yul\":13946:14684   */\n      pop\n      pop\n        /* \"#utility.yul\":13839:14684   */\n      swap3\n      swap2\n      pop\n      pop\n      jump\t// out\n        /* \"#utility.yul\":14690:15056   */\n    tag_539:\n        /* \"#utility.yul\":14832:14835   */\n      0x00\n        /* \"#utility.yul\":14853:14920   */\n      tag_541\n        /* \"#utility.yul\":14917:14919   */\n      0x12\n        /* \"#utility.yul\":14912:14915   */\n      dup4\n        /* \"#utility.yul\":14853:14920   */\n      tag_518\n      jump\t// in\n    tag_541:\n        /* \"#utility.yul\":14846:14920   */\n      swap2\n      pop\n        /* \"#utility.yul\":14929:15022   */\n      tag_542\n        /* \"#utility.yul\":15018:15021   */\n      dup3\n        /* \"#utility.yul\":14929:15022   */\n      tag_543\n      jump\t// in\n    tag_542:\n        /* \"#utility.yul\":15047:15049   */\n      0x20\n        /* \"#utility.yul\":15042:15045   */\n      dup3\n        /* \"#utility.yul\":15038:15050   */\n      add\n        /* \"#utility.yul\":15031:15050   */\n      swap1\n      pop\n        /* \"#utility.yul\":14690:15056   */\n      swap2\n      swap1\n      pop\n      jump\t// out\n        /* \"#utility.yul\":15062:15428   */\n    tag_544:\n        /* \"#utility.yul\":15204:15207   */\n      0x00\n        /* \"#utility.yul\":15225:15292   */\n      tag_546\n        /* \"#utility.yul\":15289:15291   */\n      0x2c\n        /* \"#utility.yul\":15284:15287   */\n      dup4\n        /* \"#utility.yul\":15225:15292   */\n      tag_518\n      jump\t// in\n    tag_546:\n        /* \"#utility.yul\":15218:15292   */\n      swap2\n      pop\n        /* \"#utility.yul\":15301:15394   */\n      tag_547\n        /* \"#utility.yul\":15390:15393   */\n      dup3\n        /* \"#utility.yul\":15301:15394   */\n      tag_548\n      jump\t// in\n    tag_547:\n        /* \"#utility.yul\":15419:15421   */\n      0x40\n        /* \"#utility.yul\":15414:15417   */\n      dup3\n        /* \"#utility.yul\":15410:15422   */\n      add\n        /* \"#utility.yul\":15403:15422   */\n      swap1\n      pop\n        /* \"#utility.yul\":15062:15428   */\n      swap2\n      swap1\n      pop\n      jump\t// out\n        /* \"#utility.yul\":15434:15800   */\n    tag_549:\n        /* \"#utility.yul\":15576:15579   */\n      0x00\n        /* \"#utility.yul\":15597:15664   */\n      tag_551\n        /* \"#utility.yul\":15661:15663   */\n      0x22\n        /* \"#utility.yul\":15656:15659   */\n      dup4\n        /* \"#utility.yul\":15597:15664   */\n      tag_518\n      jump\t// in\n    tag_551:\n        /* \"#utility.yul\":15590:15664   */\n      swap2\n      pop\n        /* \"#utility.yul\":15673:15766   */\n      tag_552\n        /* \"#utility.yul\":15762:15765   */\n      dup3\n        /* \"#utility.yul\":15673:15766   */\n      tag_553\n      jump\t// in\n    tag_552:\n        /* \"#utility.yul\":15791:15793   */\n      0x40\n        /* \"#utility.yul\":15786:15789   */\n      dup3\n        /* \"#utility.yul\":15782:15794   */\n      add\n        /* \"#utility.yul\":15775:15794   */\n      swap1\n      pop\n        /* \"#utility.yul\":15434:15800   */\n      swap2\n      swap1\n      pop\n      jump\t// out\n        /* \"#utility.yul\":15806:16172   */\n    tag_554:\n        /* \"#utility.yul\":15948:15951   */\n      0x00\n        /* \"#utility.yul\":15969:16036   */\n      tag_556\n        /* \"#utility.yul\":16033:16035   */\n      0x0d\n        /* \"#utility.yul\":16028:16031   */\n      dup4\n        /* \"#utility.yul\":15969:16036   */\n      tag_518\n      jump\t// in\n    tag_556:\n        /* \"#utility.yul\":15962:16036   */\n      swap2\n      pop\n        /* \"#utility.yul\":16045:16138   */\n      tag_557\n        /* \"#utility.yul\":16134:16137   */\n      dup3\n        /* \"#utility.yul\":16045:16138   */\n      tag_558\n      jump\t// in\n    tag_557:\n        /* \"#utility.yul\":16163:16165   */\n      0x20\n        /* \"#utility.yul\":16158:16161   */\n      dup3\n        /* \"#utility.yul\":16154:16166   */\n      add\n        /* \"#utility.yul\":16147:16166   */\n      swap1\n      pop\n        /* \"#utility.yul\":15806:16172   */\n      swap2\n      swap1\n      pop\n      jump\t// out\n        /* \"#utility.yul\":16178:16544   */\n    tag_559:\n        /* \"#utility.yul\":16320:16323   */\n      0x00\n        /* \"#utility.yul\":16341:16408   */\n      tag_561\n        /* \"#utility.yul\":16405:16407   */\n      0x1b\n        /* \"#utility.yul\":16400:16403   */\n      dup4\n        /* \"#utility.yul\":16341:16408   */\n      tag_518\n      jump\t// in\n    tag_561:\n        /* \"#utility.yul\":16334:16408   */\n      swap2\n      pop\n        /* \"#utility.yul\":16417:16510   */\n      tag_562\n        /* \"#utility.yul\":16506:16509   */\n      dup3\n        /* \"#utility.yul\":16417:16510   */\n      tag_563\n      jump\t// in\n    tag_562:\n        /* \"#utility.yul\":16535:16537   */\n      0x20\n        /* \"#utility.yul\":16530:16533   */\n      dup3\n        /* \"#utility.yul\":16526:16538   */\n      add\n        /* \"#utility.yul\":16519:16538   */\n      swap1\n      pop\n        /* \"#utility.yul\":16178:16544   */\n      swap2\n      swap1\n      pop\n      jump\t// out\n        /* \"#utility.yul\":16550:16916   */\n    tag_564:\n        /* \"#utility.yul\":16692:16695   */\n      0x00\n        /* \"#utility.yul\":16713:16780   */\n      tag_566\n        /* \"#utility.yul\":16777:16779   */\n      0x14\n        /* \"#utility.yul\":16772:16775   */\n      dup4\n        /* \"#utility.yul\":16713:16780   */\n      tag_518\n      jump\t// in\n    tag_566:\n        /* \"#utility.yul\":16706:16780   */\n      swap2\n      pop\n        /* \"#utility.yul\":16789:16882   */\n      tag_567\n        /* \"#utility.yul\":16878:16881   */\n      dup3\n        /* \"#utility.yul\":16789:16882   */\n      tag_568\n      jump\t// in\n    tag_567:\n        /* \"#utility.yul\":16907:16909   */\n      0x20\n        /* \"#utility.yul\":16902:16905   */\n      dup3\n        /* \"#utility.yul\":16898:16910   */\n      add\n        /* \"#utility.yul\":16891:16910   */\n      swap1\n      pop\n        /* \"#utility.yul\":16550:16916   */\n      swap2\n      swap1\n      pop\n      jump\t// out\n        /* \"#utility.yul\":16922:17288   */\n    tag_569:\n        /* \"#utility.yul\":17064:17067   */\n      0x00\n        /* \"#utility.yul\":17085:17152   */\n      tag_571\n        /* \"#utility.yul\":17149:17151   */\n      0x23\n        /* \"#utility.yul\":17144:17147   */\n      dup4\n        /* \"#utility.yul\":17085:17152   */\n      tag_518\n      jump\t// in\n    tag_571:\n        /* \"#utility.yul\":17078:17152   */\n      swap2\n      pop\n        /* \"#utility.yul\":17161:17254   */\n      tag_572\n        /* \"#utility.yul\":17250:17253   */\n      dup3\n        /* \"#utility.yul\":17161:17254   */\n      tag_573\n      jump\t// in\n    tag_572:\n        /* \"#utility.yul\":17279:17281   */\n      0x40\n        /* \"#utility.yul\":17274:17277   */\n      dup3\n        /* \"#utility.yul\":17270:17282   */\n      add\n        /* \"#utility.yul\":17263:17282   */\n      swap1\n      pop\n        /* \"#utility.yul\":16922:17288   */\n      swap2\n      swap1\n      pop\n      jump\t// out\n        /* \"#utility.yul\":17294:17660   */\n    tag_574:\n        /* \"#utility.yul\":17436:17439   */\n      0x00\n        /* \"#utility.yul\":17457:17524   */\n      tag_576\n        /* \"#utility.yul\":17521:17523   */\n      0x18\n        /* \"#utility.yul\":17516:17519   */\n      dup4\n        /* \"#utility.yul\":17457:17524   */\n      tag_518\n      jump\t// in\n    tag_576:\n        /* \"#utility.yul\":17450:17524   */\n      swap2\n      pop\n        /* \"#utility.yul\":17533:17626   */\n      tag_577\n        /* \"#utility.yul\":17622:17625   */\n      dup3\n        /* \"#utility.yul\":17533:17626   */\n      tag_578\n      jump\t// in\n    tag_577:\n        /* \"#utility.yul\":17651:17653   */\n      0x20\n        /* \"#utility.yul\":17646:17649   */\n      dup3\n        /* \"#utility.yul\":17642:17654   */\n      add\n        /* \"#utility.yul\":17635:17654   */\n      swap1\n      pop\n        /* \"#utility.yul\":17294:17660   */\n      swap2\n      swap1\n      pop\n      jump\t// out\n        /* \"#utility.yul\":17666:18032   */\n    tag_579:\n        /* \"#utility.yul\":17808:17811   */\n      0x00\n        /* \"#utility.yul\":17829:17896   */\n      tag_581\n        /* \"#utility.yul\":17893:17895   */\n      0x14\n        /* \"#utility.yul\":17888:17891   */\n      dup4\n        /* \"#utility.yul\":17829:17896   */\n      tag_518\n      jump\t// in\n    tag_581:\n        /* \"#utility.yul\":17822:17896   */\n      swap2\n      pop\n        /* \"#utility.yul\":17905:17998   */\n      tag_582\n        /* \"#utility.yul\":17994:17997   */\n      dup3\n        /* \"#utility.yul\":17905:17998   */\n      tag_583\n      jump\t// in\n    tag_582:\n        /* \"#utility.yul\":18023:18025   */\n      0x20\n        /* \"#utility.yul\":18018:18021   */\n      dup3\n        /* \"#utility.yul\":18014:18026   */\n      add\n        /* \"#utility.yul\":18007:18026   */\n      swap1\n      pop\n        /* \"#utility.yul\":17666:18032   */\n      swap2\n      swap1\n      pop\n      jump\t// out\n        /* \"#utility.yul\":18038:18404   */\n    tag_584:\n        /* \"#utility.yul\":18180:18183   */\n      0x00\n        /* \"#utility.yul\":18201:18268   */\n      tag_586\n        /* \"#utility.yul\":18265:18267   */\n      0x23\n        /* \"#utility.yul\":18260:18263   */\n      dup4\n        /* \"#utility.yul\":18201:18268   */\n      tag_518\n      jump\t// in\n    tag_586:\n        /* \"#utility.yul\":18194:18268   */\n      swap2\n      pop\n        /* \"#utility.yul\":18277:18370   */\n      tag_587\n        /* \"#utility.yul\":18366:18369   */\n      dup3\n        /* \"#utility.yul\":18277:18370   */\n      tag_588\n      jump\t// in\n    tag_587:\n        /* \"#utility.yul\":18395:18397   */\n      0x40\n        /* \"#utility.yul\":18390:18393   */\n      dup3\n        /* \"#utility.yul\":18386:18398   */\n      add\n        /* \"#utility.yul\":18379:18398   */\n      swap1\n      pop\n        /* \"#utility.yul\":18038:18404   */\n      swap2\n      swap1\n      pop\n      jump\t// out\n        /* \"#utility.yul\":18410:18776   */\n    tag_589:\n        /* \"#utility.yul\":18552:18555   */\n      0x00\n        /* \"#utility.yul\":18573:18640   */\n      tag_591\n        /* \"#utility.yul\":18637:18639   */\n      0x12\n        /* \"#utility.yul\":18632:18635   */\n      dup4\n        /* \"#utility.yul\":18573:18640   */\n      tag_518\n      jump\t// in\n    tag_591:\n        /* \"#utility.yul\":18566:18640   */\n      swap2\n      pop\n        /* \"#utility.yul\":18649:18742   */\n      tag_592\n        /* \"#utility.yul\":18738:18741   */\n      dup3\n        /* \"#utility.yul\":18649:18742   */\n      tag_593\n      jump\t// in\n    tag_592:\n        /* \"#utility.yul\":18767:18769   */\n      0x20\n        /* \"#utility.yul\":18762:18765   */\n      dup3\n        /* \"#utility.yul\":18758:18770   */\n      add\n        /* \"#utility.yul\":18751:18770   */\n      swap1\n      pop\n        /* \"#utility.yul\":18410:18776   */\n      swap2\n      swap1\n      pop\n      jump\t// out\n        /* \"#utility.yul\":18782:19148   */\n    tag_594:\n        /* \"#utility.yul\":18924:18927   */\n      0x00\n        /* \"#utility.yul\":18945:19012   */\n      tag_596\n        /* \"#utility.yul\":19009:19011   */\n      0x23\n        /* \"#utility.yul\":19004:19007   */\n      dup4\n        /* \"#utility.yul\":18945:19012   */\n      tag_518\n      jump\t// in\n    tag_596:\n        /* \"#utility.yul\":18938:19012   */\n      swap2\n      pop\n        /* \"#utility.yul\":19021:19114   */\n      tag_597\n        /* \"#utility.yul\":19110:19113   */\n      dup3\n        /* \"#utility.yul\":19021:19114   */\n      tag_598\n      jump\t// in\n    tag_597:\n        /* \"#utility.yul\":19139:19141   */\n      0x40\n        /* \"#utility.yul\":19134:19137   */\n      dup3\n        /* \"#utility.yul\":19130:19142   */\n      add\n        /* \"#utility.yul\":19123:19142   */\n      swap1\n      pop\n        /* \"#utility.yul\":18782:19148   */\n      swap2\n      swap1\n      pop\n      jump\t// out\n        /* \"#utility.yul\":19154:19520   */\n    tag_599:\n        /* \"#utility.yul\":19296:19299   */\n      0x00\n        /* \"#utility.yul\":19317:19384   */\n      tag_601\n        /* \"#utility.yul\":19381:19383   */\n      0x2a\n        /* \"#utility.yul\":19376:19379   */\n      dup4\n        /* \"#utility.yul\":19317:19384   */\n      tag_518\n      jump\t// in\n    tag_601:\n        /* \"#utility.yul\":19310:19384   */\n      swap2\n      pop\n        /* \"#utility.yul\":19393:19486   */\n      tag_602\n        /* \"#utility.yul\":19482:19485   */\n      dup3\n        /* \"#utility.yul\":19393:19486   */\n      tag_603\n      jump\t// in\n    tag_602:\n        /* \"#utility.yul\":19511:19513   */\n      0x40\n        /* \"#utility.yul\":19506:19509   */\n      dup3\n        /* \"#utility.yul\":19502:19514   */\n      add\n        /* \"#utility.yul\":19495:19514   */\n      swap1\n      pop\n        /* \"#utility.yul\":19154:19520   */\n      swap2\n      swap1\n      pop\n      jump\t// out\n        /* \"#utility.yul\":19526:19892   */\n    tag_604:\n        /* \"#utility.yul\":19668:19671   */\n      0x00\n        /* \"#utility.yul\":19689:19756   */\n      tag_606\n        /* \"#utility.yul\":19753:19755   */\n      0x21\n        /* \"#utility.yul\":19748:19751   */\n      dup4\n        /* \"#utility.yul\":19689:19756   */\n      tag_518\n      jump\t// in\n    tag_606:\n        /* \"#utility.yul\":19682:19756   */\n      swap2\n      pop\n        /* \"#utility.yul\":19765:19858   */\n      tag_607\n        /* \"#utility.yul\":19854:19857   */\n      dup3\n        /* \"#utility.yul\":19765:19858   */\n      tag_608\n      jump\t// in\n    tag_607:\n        /* \"#utility.yul\":19883:19885   */\n      0x40\n        /* \"#utility.yul\":19878:19881   */\n      dup3\n        /* \"#utility.yul\":19874:19886   */\n      add\n        /* \"#utility.yul\":19867:19886   */\n      swap1\n      pop\n        /* \"#utility.yul\":19526:19892   */\n      swap2\n      swap1\n      pop\n      jump\t// out\n        /* \"#utility.yul\":19898:20264   */\n    tag_609:\n        /* \"#utility.yul\":20040:20043   */\n      0x00\n        /* \"#utility.yul\":20061:20128   */\n      tag_611\n        /* \"#utility.yul\":20125:20127   */\n      0x24\n        /* \"#utility.yul\":20120:20123   */\n      dup4\n        /* \"#utility.yul\":20061:20128   */\n      tag_518\n      jump\t// in\n    tag_611:\n        /* \"#utility.yul\":20054:20128   */\n      swap2\n      pop\n        /* \"#utility.yul\":20137:20230   */\n      tag_612\n        /* \"#utility.yul\":20226:20229   */\n      dup3\n        /* \"#utility.yul\":20137:20230   */\n      tag_613\n      jump\t// in\n    tag_612:\n        /* \"#utility.yul\":20255:20257   */\n      0x40\n        /* \"#utility.yul\":20250:20253   */\n      dup3\n        /* \"#utility.yul\":20246:20258   */\n      add\n        /* \"#utility.yul\":20239:20258   */\n      swap1\n      pop\n        /* \"#utility.yul\":19898:20264   */\n      swap2\n      swap1\n      pop\n      jump\t// out\n        /* \"#utility.yul\":20270:20635   */\n    tag_614:\n        /* \"#utility.yul\":20412:20415   */\n      0x00\n        /* \"#utility.yul\":20433:20499   */\n      tag_616\n        /* \"#utility.yul\":20497:20498   */\n      0x04\n        /* \"#utility.yul\":20492:20495   */\n      dup4\n        /* \"#utility.yul\":20433:20499   */\n      tag_518\n      jump\t// in\n    tag_616:\n        /* \"#utility.yul\":20426:20499   */\n      swap2\n      pop\n        /* \"#utility.yul\":20508:20601   */\n      tag_617\n        /* \"#utility.yul\":20597:20600   */\n      dup3\n        /* \"#utility.yul\":20508:20601   */\n      tag_618\n      jump\t// in\n    tag_617:\n        /* \"#utility.yul\":20626:20628   */\n      0x20\n        /* \"#utility.yul\":20621:20624   */\n      dup3\n        /* \"#utility.yul\":20617:20629   */\n      add\n        /* \"#utility.yul\":20610:20629   */\n      swap1\n      pop\n        /* \"#utility.yul\":20270:20635   */\n      swap2\n      swap1\n      pop\n      jump\t// out\n        /* \"#utility.yul\":20641:21007   */\n    tag_619:\n        /* \"#utility.yul\":20783:20786   */\n      0x00\n        /* \"#utility.yul\":20804:20871   */\n      tag_621\n        /* \"#utility.yul\":20868:20870   */\n      0x1d\n        /* \"#utility.yul\":20863:20866   */\n      dup4\n        /* \"#utility.yul\":20804:20871   */\n      tag_518\n      jump\t// in\n    tag_621:\n        /* \"#utility.yul\":20797:20871   */\n      swap2\n      pop\n        /* \"#utility.yul\":20880:20973   */\n      tag_622\n        /* \"#utility.yul\":20969:20972   */\n      dup3\n        /* \"#utility.yul\":20880:20973   */\n      tag_623\n      jump\t// in\n    tag_622:\n        /* \"#utility.yul\":20998:21000   */\n      0x20\n        /* \"#utility.yul\":20993:20996   */\n      dup3\n        /* \"#utility.yul\":20989:21001   */\n      add\n        /* \"#utility.yul\":20982:21001   */\n      swap1\n      pop\n        /* \"#utility.yul\":20641:21007   */\n      swap2\n      swap1\n      pop\n      jump\t// out\n        /* \"#utility.yul\":21013:21378   */\n    tag_624:\n        /* \"#utility.yul\":21155:21158   */\n      0x00\n        /* \"#utility.yul\":21176:21242   */\n      tag_626\n        /* \"#utility.yul\":21240:21241   */\n      0x04\n        /* \"#utility.yul\":21235:21238   */\n      dup4\n        /* \"#utility.yul\":21176:21242   */\n      tag_518\n      jump\t// in\n    tag_626:\n        /* \"#utility.yul\":21169:21242   */\n      swap2\n      pop\n        /* \"#utility.yul\":21251:21344   */\n      tag_627\n        /* \"#utility.yul\":21340:21343   */\n      dup3\n        /* \"#utility.yul\":21251:21344   */\n      tag_628\n      jump\t// in\n    tag_627:\n        /* \"#utility.yul\":21369:21371   */\n      0x20\n        /* \"#utility.yul\":21364:21367   */\n      dup3\n        /* \"#utility.yul\":21360:21372   */\n      add\n        /* \"#utility.yul\":21353:21372   */\n      swap1\n      pop\n        /* \"#utility.yul\":21013:21378   */\n      swap2\n      swap1\n      pop\n      jump\t// out\n        /* \"#utility.yul\":21384:21749   */\n    tag_629:\n        /* \"#utility.yul\":21526:21529   */\n      0x00\n        /* \"#utility.yul\":21547:21613   */\n      tag_631\n        /* \"#utility.yul\":21611:21612   */\n      0x09\n        /* \"#utility.yul\":21606:21609   */\n      dup4\n        /* \"#utility.yul\":21547:21613   */\n      tag_518\n      jump\t// in\n    tag_631:\n        /* \"#utility.yul\":21540:21613   */\n      swap2\n      pop\n        /* \"#utility.yul\":21622:21715   */\n      tag_632\n        /* \"#utility.yul\":21711:21714   */\n      dup3\n        /* \"#utility.yul\":21622:21715   */\n      tag_633\n      jump\t// in\n    tag_632:\n        /* \"#utility.yul\":21740:21742   */\n      0x20\n        /* \"#utility.yul\":21735:21738   */\n      dup3\n        /* \"#utility.yul\":21731:21743   */\n      add\n        /* \"#utility.yul\":21724:21743   */\n      swap1\n      pop\n        /* \"#utility.yul\":21384:21749   */\n      swap2\n      swap1\n      pop\n      jump\t// out\n        /* \"#utility.yul\":21755:22121   */\n    tag_634:\n        /* \"#utility.yul\":21897:21900   */\n      0x00\n        /* \"#utility.yul\":21918:21985   */\n      tag_636\n        /* \"#utility.yul\":21982:21984   */\n      0x1f\n        /* \"#utility.yul\":21977:21980   */\n      dup4\n        /* \"#utility.yul\":21918:21985   */\n      tag_518\n      jump\t// in\n    tag_636:\n        /* \"#utility.yul\":21911:21985   */\n      swap2\n      pop\n        /* \"#utility.yul\":21994:22087   */\n      tag_637\n        /* \"#utility.yul\":22083:22086   */\n      dup3\n        /* \"#utility.yul\":21994:22087   */\n      tag_638\n      jump\t// in\n    tag_637:\n        /* \"#utility.yul\":22112:22114   */\n      0x20\n        /* \"#utility.yul\":22107:22110   */\n      dup3\n        /* \"#utility.yul\":22103:22115   */\n      add\n        /* \"#utility.yul\":22096:22115   */\n      swap1\n      pop\n        /* \"#utility.yul\":21755:22121   */\n      swap2\n      swap1\n      pop\n      jump\t// out\n        /* \"#utility.yul\":22127:22245   */\n    tag_639:\n        /* \"#utility.yul\":22214:22238   */\n      tag_641\n        /* \"#utility.yul\":22232:22237   */\n      dup2\n        /* \"#utility.yul\":22214:22238   */\n      tag_642\n      jump\t// in\n    tag_641:\n        /* \"#utility.yul\":22209:22212   */\n      dup3\n        /* \"#utility.yul\":22202:22239   */\n      mstore\n        /* \"#utility.yul\":22127:22245   */\n      pop\n      pop\n      jump\t// out\n        /* \"#utility.yul\":22251:22366   */\n    tag_643:\n        /* \"#utility.yul\":22336:22359   */\n      tag_645\n        /* \"#utility.yul\":22353:22358   */\n      dup2\n        /* \"#utility.yul\":22336:22359   */\n      tag_646\n      jump\t// in\n    tag_645:\n        /* \"#utility.yul\":22331:22334   */\n      dup3\n        /* \"#utility.yul\":22324:22360   */\n      mstore\n        /* \"#utility.yul\":22251:22366   */\n      pop\n      pop\n      jump\t// out\n        /* \"#utility.yul\":22372:22490   */\n    tag_647:\n        /* \"#utility.yul\":22459:22483   */\n      tag_649\n        /* \"#utility.yul\":22477:22482   */\n      dup2\n        /* \"#utility.yul\":22459:22483   */\n      tag_650\n      jump\t// in\n    tag_649:\n        /* \"#utility.yul\":22454:22457   */\n      dup3\n        /* \"#utility.yul\":22447:22484   */\n      mstore\n        /* \"#utility.yul\":22372:22490   */\n      pop\n      pop\n      jump\t// out\n        /* \"#utility.yul\":22496:22608   */\n    tag_651:\n        /* \"#utility.yul\":22579:22601   */\n      tag_653\n        /* \"#utility.yul\":22595:22600   */\n      dup2\n        /* \"#utility.yul\":22579:22601   */\n      tag_654\n      jump\t// in\n    tag_653:\n        /* \"#utility.yul\":22574:22577   */\n      dup3\n        /* \"#utility.yul\":22567:22602   */\n      mstore\n        /* \"#utility.yul\":22496:22608   */\n      pop\n      pop\n      jump\t// out\n        /* \"#utility.yul\":22614:22909   */\n    tag_186:\n        /* \"#utility.yul\":22756:22759   */\n      0x00\n        /* \"#utility.yul\":22778:22883   */\n      tag_656\n        /* \"#utility.yul\":22879:22882   */\n      dup3\n        /* \"#utility.yul\":22870:22876   */\n      dup5\n        /* \"#utility.yul\":22862:22868   */\n      dup7\n        /* \"#utility.yul\":22778:22883   */\n      tag_508\n      jump\t// in\n    tag_656:\n        /* \"#utility.yul\":22771:22883   */\n      swap2\n      pop\n        /* \"#utility.yul\":22900:22903   */\n      dup2\n        /* \"#utility.yul\":22893:22903   */\n      swap1\n      pop\n        /* \"#utility.yul\":22614:22909   */\n      swap4\n      swap3\n      pop\n      pop\n      pop\n      jump\t// out\n        /* \"#utility.yul\":22915:23190   */\n    tag_248:\n        /* \"#utility.yul\":23047:23050   */\n      0x00\n        /* \"#utility.yul\":23069:23164   */\n      tag_658\n        /* \"#utility.yul\":23160:23163   */\n      dup3\n        /* \"#utility.yul\":23151:23157   */\n      dup5\n        /* \"#utility.yul\":23069:23164   */\n      tag_522\n      jump\t// in\n    tag_658:\n        /* \"#utility.yul\":23062:23164   */\n      swap2\n      pop\n        /* \"#utility.yul\":23181:23184   */\n      dup2\n        /* \"#utility.yul\":23174:23184   */\n      swap1\n      pop\n        /* \"#utility.yul\":22915:23190   */\n      swap3\n      swap2\n      pop\n      pop\n      jump\t// out\n        /* \"#utility.yul\":23196:23465   */\n    tag_169:\n        /* \"#utility.yul\":23325:23328   */\n      0x00\n        /* \"#utility.yul\":23347:23439   */\n      tag_660\n        /* \"#utility.yul\":23435:23438   */\n      dup3\n        /* \"#utility.yul\":23426:23432   */\n      dup5\n        /* \"#utility.yul\":23347:23439   */\n      tag_527\n      jump\t// in\n    tag_660:\n        /* \"#utility.yul\":23340:23439   */\n      swap2\n      pop\n        /* \"#utility.yul\":23456:23459   */\n      dup2\n        /* \"#utility.yul\":23449:23459   */\n      swap1\n      pop\n        /* \"#utility.yul\":23196:23465   */\n      swap3\n      swap2\n      pop\n      pop\n      jump\t// out\n        /* \"#utility.yul\":23471:24436   */\n    tag_20:\n        /* \"#utility.yul\":23746:23750   */\n      0x00\n        /* \"#utility.yul\":23784:23787   */\n      0xe0\n        /* \"#utility.yul\":23773:23782   */\n      dup3\n        /* \"#utility.yul\":23769:23788   */\n      add\n        /* \"#utility.yul\":23761:23788   */\n      swap1\n      pop\n        /* \"#utility.yul\":23798:23869   */\n      tag_662\n        /* \"#utility.yul\":23866:23867   */\n      0x00\n        /* \"#utility.yul\":23855:23864   */\n      dup4\n        /* \"#utility.yul\":23851:23868   */\n      add\n        /* \"#utility.yul\":23842:23848   */\n      dup11\n        /* \"#utility.yul\":23798:23869   */\n      tag_467\n      jump\t// in\n    tag_662:\n        /* \"#utility.yul\":23879:23947   */\n      tag_663\n        /* \"#utility.yul\":23943:23945   */\n      0x20\n        /* \"#utility.yul\":23932:23941   */\n      dup4\n        /* \"#utility.yul\":23928:23946   */\n      add\n        /* \"#utility.yul\":23919:23925   */\n      dup10\n        /* \"#utility.yul\":23879:23947   */\n      tag_651\n      jump\t// in\n    tag_663:\n        /* \"#utility.yul\":23994:24003   */\n      dup2\n        /* \"#utility.yul\":23988:23992   */\n      dup2\n        /* \"#utility.yul\":23984:24004   */\n      sub\n        /* \"#utility.yul\":23979:23981   */\n      0x40\n        /* \"#utility.yul\":23968:23977   */\n      dup4\n        /* \"#utility.yul\":23964:23982   */\n      add\n        /* \"#utility.yul\":23957:24005   */\n      mstore\n        /* \"#utility.yul\":24022:24100   */\n      tag_664\n        /* \"#utility.yul\":24095:24099   */\n      dup2\n        /* \"#utility.yul\":24086:24092   */\n      dup9\n        /* \"#utility.yul\":24022:24100   */\n      tag_513\n      jump\t// in\n    tag_664:\n        /* \"#utility.yul\":24014:24100   */\n      swap1\n      pop\n        /* \"#utility.yul\":24110:24182   */\n      tag_665\n        /* \"#utility.yul\":24178:24180   */\n      0x60\n        /* \"#utility.yul\":24167:24176   */\n      dup4\n        /* \"#utility.yul\":24163:24181   */\n      add\n        /* \"#utility.yul\":24154:24160   */\n      dup8\n        /* \"#utility.yul\":24110:24182   */\n      tag_647\n      jump\t// in\n    tag_665:\n        /* \"#utility.yul\":24192:24265   */\n      tag_666\n        /* \"#utility.yul\":24260:24263   */\n      0x80\n        /* \"#utility.yul\":24249:24258   */\n      dup4\n        /* \"#utility.yul\":24245:24264   */\n      add\n        /* \"#utility.yul\":24236:24242   */\n      dup7\n        /* \"#utility.yul\":24192:24265   */\n      tag_647\n      jump\t// in\n    tag_666:\n        /* \"#utility.yul\":24275:24346   */\n      tag_667\n        /* \"#utility.yul\":24341:24344   */\n      0xa0\n        /* \"#utility.yul\":24330:24339   */\n      dup4\n        /* \"#utility.yul\":24326:24345   */\n      add\n        /* \"#utility.yul\":24317:24323   */\n      dup6\n        /* \"#utility.yul\":24275:24346   */\n      tag_643\n      jump\t// in\n    tag_667:\n        /* \"#utility.yul\":24356:24429   */\n      tag_668\n        /* \"#utility.yul\":24424:24427   */\n      0xc0\n        /* \"#utility.yul\":24413:24422   */\n      dup4\n        /* \"#utility.yul\":24409:24428   */\n      add\n        /* \"#utility.yul\":24400:24406   */\n      dup5\n        /* \"#utility.yul\":24356:24429   */\n      tag_647\n      jump\t// in\n    tag_668:\n        /* \"#utility.yul\":23471:24436   */\n      swap9\n      swap8\n      pop\n      pop\n      pop\n      pop\n      pop\n      pop\n      pop\n      pop\n      jump\t// out\n        /* \"#utility.yul\":24442:24755   */\n    tag_24:\n        /* \"#utility.yul\":24555:24559   */\n      0x00\n        /* \"#utility.yul\":24593:24595   */\n      0x20\n        /* \"#utility.yul\":24582:24591   */\n      dup3\n        /* \"#utility.yul\":24578:24596   */\n      add\n        /* \"#utility.yul\":24570:24596   */\n      swap1\n      pop\n        /* \"#utility.yul\":24642:24651   */\n      dup2\n        /* \"#utility.yul\":24636:24640   */\n      dup2\n        /* \"#utility.yul\":24632:24652   */\n      sub\n        /* \"#utility.yul\":24628:24629   */\n      0x00\n        /* \"#utility.yul\":24617:24626   */\n      dup4\n        /* \"#utility.yul\":24613:24630   */\n      add\n        /* \"#utility.yul\":24606:24653   */\n      mstore\n        /* \"#utility.yul\":24670:24748   */\n      tag_670\n        /* \"#utility.yul\":24743:24747   */\n      dup2\n        /* \"#utility.yul\":24734:24740   */\n      dup5\n        /* \"#utility.yul\":24670:24748   */\n      tag_513\n      jump\t// in\n    tag_670:\n        /* \"#utility.yul\":24662:24748   */\n      swap1\n      pop\n        /* \"#utility.yul\":24442:24755   */\n      swap3\n      swap2\n      pop\n      pop\n      jump\t// out\n        /* \"#utility.yul\":24761:25180   */\n    tag_214:\n        /* \"#utility.yul\":24927:24931   */\n      0x00\n        /* \"#utility.yul\":24965:24967   */\n      0x20\n        /* \"#utility.yul\":24954:24963   */\n      dup3\n        /* \"#utility.yul\":24950:24968   */\n      add\n        /* \"#utility.yul\":24942:24968   */\n      swap1\n      pop\n        /* \"#utility.yul\":25014:25023   */\n      dup2\n        /* \"#utility.yul\":25008:25012   */\n      dup2\n        /* \"#utility.yul\":25004:25024   */\n      sub\n        /* \"#utility.yul\":25000:25001   */\n      0x00\n        /* \"#utility.yul\":24989:24998   */\n      dup4\n        /* \"#utility.yul\":24985:25002   */\n      add\n        /* \"#utility.yul\":24978:25025   */\n      mstore\n        /* \"#utility.yul\":25042:25173   */\n      tag_672\n        /* \"#utility.yul\":25168:25172   */\n      dup2\n        /* \"#utility.yul\":25042:25173   */\n      tag_539\n      jump\t// in\n    tag_672:\n        /* \"#utility.yul\":25034:25173   */\n      swap1\n      pop\n        /* \"#utility.yul\":24761:25180   */\n      swap2\n      swap1\n      pop\n      jump\t// out\n        /* \"#utility.yul\":25186:25605   */\n    tag_85:\n        /* \"#utility.yul\":25352:25356   */\n      0x00\n        /* \"#utility.yul\":25390:25392   */\n      0x20\n        /* \"#utility.yul\":25379:25388   */\n      dup3\n        /* \"#utility.yul\":25375:25393   */\n      add\n        /* \"#utility.yul\":25367:25393   */\n      swap1\n      pop\n        /* \"#utility.yul\":25439:25448   */\n      dup2\n        /* \"#utility.yul\":25433:25437   */\n      dup2\n        /* \"#utility.yul\":25429:25449   */\n      sub\n        /* \"#utility.yul\":25425:25426   */\n      0x00\n        /* \"#utility.yul\":25414:25423   */\n      dup4\n        /* \"#utility.yul\":25410:25427   */\n      add\n        /* \"#utility.yul\":25403:25450   */\n      mstore\n        /* \"#utility.yul\":25467:25598   */\n      tag_674\n        /* \"#utility.yul\":25593:25597   */\n      dup2\n        /* \"#utility.yul\":25467:25598   */\n      tag_544\n      jump\t// in\n    tag_674:\n        /* \"#utility.yul\":25459:25598   */\n      swap1\n      pop\n        /* \"#utility.yul\":25186:25605   */\n      swap2\n      swap1\n      pop\n      jump\t// out\n        /* \"#utility.yul\":25611:26030   */\n    tag_295:\n        /* \"#utility.yul\":25777:25781   */\n      0x00\n        /* \"#utility.yul\":25815:25817   */\n      0x20\n        /* \"#utility.yul\":25804:25813   */\n      dup3\n        /* \"#utility.yul\":25800:25818   */\n      add\n        /* \"#utility.yul\":25792:25818   */\n      swap1\n      pop\n        /* \"#utility.yul\":25864:25873   */\n      dup2\n        /* \"#utility.yul\":25858:25862   */\n      dup2\n        /* \"#utility.yul\":25854:25874   */\n      sub\n        /* \"#utility.yul\":25850:25851   */\n      0x00\n        /* \"#utility.yul\":25839:25848   */\n      dup4\n        /* \"#utility.yul\":25835:25852   */\n      add\n        /* \"#utility.yul\":25828:25875   */\n      mstore\n        /* \"#utility.yul\":25892:26023   */\n      tag_676\n        /* \"#utility.yul\":26018:26022   */\n      dup2\n        /* \"#utility.yul\":25892:26023   */\n      tag_549\n      jump\t// in\n    tag_676:\n        /* \"#utility.yul\":25884:26023   */\n      swap1\n      pop\n        /* \"#utility.yul\":25611:26030   */\n      swap2\n      swap1\n      pop\n      jump\t// out\n        /* \"#utility.yul\":26036:26455   */\n    tag_127:\n        /* \"#utility.yul\":26202:26206   */\n      0x00\n        /* \"#utility.yul\":26240:26242   */\n      0x20\n        /* \"#utility.yul\":26229:26238   */\n      dup3\n        /* \"#utility.yul\":26225:26243   */\n      add\n        /* \"#utility.yul\":26217:26243   */\n      swap1\n      pop\n        /* \"#utility.yul\":26289:26298   */\n      dup2\n        /* \"#utility.yul\":26283:26287   */\n      dup2\n        /* \"#utility.yul\":26279:26299   */\n      sub\n        /* \"#utility.yul\":26275:26276   */\n      0x00\n        /* \"#utility.yul\":26264:26273   */\n      dup4\n        /* \"#utility.yul\":26260:26277   */\n      add\n        /* \"#utility.yul\":26253:26300   */\n      mstore\n        /* \"#utility.yul\":26317:26448   */\n      tag_678\n        /* \"#utility.yul\":26443:26447   */\n      dup2\n        /* \"#utility.yul\":26317:26448   */\n      tag_554\n      jump\t// in\n    tag_678:\n        /* \"#utility.yul\":26309:26448   */\n      swap1\n      pop\n        /* \"#utility.yul\":26036:26455   */\n      swap2\n      swap1\n      pop\n      jump\t// out\n        /* \"#utility.yul\":26461:26880   */\n    tag_251:\n        /* \"#utility.yul\":26627:26631   */\n      0x00\n        /* \"#utility.yul\":26665:26667   */\n      0x20\n        /* \"#utility.yul\":26654:26663   */\n      dup3\n        /* \"#utility.yul\":26650:26668   */\n      add\n        /* \"#utility.yul\":26642:26668   */\n      swap1\n      pop\n        /* \"#utility.yul\":26714:26723   */\n      dup2\n        /* \"#utility.yul\":26708:26712   */\n      dup2\n        /* \"#utility.yul\":26704:26724   */\n      sub\n        /* \"#utility.yul\":26700:26701   */\n      0x00\n        /* \"#utility.yul\":26689:26698   */\n      dup4\n        /* \"#utility.yul\":26685:26702   */\n      add\n        /* \"#utility.yul\":26678:26725   */\n      mstore\n        /* \"#utility.yul\":26742:26873   */\n      tag_680\n        /* \"#utility.yul\":26868:26872   */\n      dup2\n        /* \"#utility.yul\":26742:26873   */\n      tag_559\n      jump\t// in\n    tag_680:\n        /* \"#utility.yul\":26734:26873   */\n      swap1\n      pop\n        /* \"#utility.yul\":26461:26880   */\n      swap2\n      swap1\n      pop\n      jump\t// out\n        /* \"#utility.yul\":26886:27305   */\n    tag_167:\n        /* \"#utility.yul\":27052:27056   */\n      0x00\n        /* \"#utility.yul\":27090:27092   */\n      0x20\n        /* \"#utility.yul\":27079:27088   */\n      dup3\n        /* \"#utility.yul\":27075:27093   */\n      add\n        /* \"#utility.yul\":27067:27093   */\n      swap1\n      pop\n        /* \"#utility.yul\":27139:27148   */\n      dup2\n        /* \"#utility.yul\":27133:27137   */\n      dup2\n        /* \"#utility.yul\":27129:27149   */\n      sub\n        /* \"#utility.yul\":27125:27126   */\n      0x00\n        /* \"#utility.yul\":27114:27123   */\n      dup4\n        /* \"#utility.yul\":27110:27127   */\n      add\n        /* \"#utility.yul\":27103:27150   */\n      mstore\n        /* \"#utility.yul\":27167:27298   */\n      tag_682\n        /* \"#utility.yul\":27293:27297   */\n      dup2\n        /* \"#utility.yul\":27167:27298   */\n      tag_564\n      jump\t// in\n    tag_682:\n        /* \"#utility.yul\":27159:27298   */\n      swap1\n      pop\n        /* \"#utility.yul\":26886:27305   */\n      swap2\n      swap1\n      pop\n      jump\t// out\n        /* \"#utility.yul\":27311:27730   */\n    tag_124:\n        /* \"#utility.yul\":27477:27481   */\n      0x00\n        /* \"#utility.yul\":27515:27517   */\n      0x20\n        /* \"#utility.yul\":27504:27513   */\n      dup3\n        /* \"#utility.yul\":27500:27518   */\n      add\n        /* \"#utility.yul\":27492:27518   */\n      swap1\n      pop\n        /* \"#utility.yul\":27564:27573   */\n      dup2\n        /* \"#utility.yul\":27558:27562   */\n      dup2\n        /* \"#utility.yul\":27554:27574   */\n      sub\n        /* \"#utility.yul\":27550:27551   */\n      0x00\n        /* \"#utility.yul\":27539:27548   */\n      dup4\n        /* \"#utility.yul\":27535:27552   */\n      add\n        /* \"#utility.yul\":27528:27575   */\n      mstore\n        /* \"#utility.yul\":27592:27723   */\n      tag_684\n        /* \"#utility.yul\":27718:27722   */\n      dup2\n        /* \"#utility.yul\":27592:27723   */\n      tag_569\n      jump\t// in\n    tag_684:\n        /* \"#utility.yul\":27584:27723   */\n      swap1\n      pop\n        /* \"#utility.yul\":27311:27730   */\n      swap2\n      swap1\n      pop\n      jump\t// out\n        /* \"#utility.yul\":27736:28155   */\n    tag_217:\n        /* \"#utility.yul\":27902:27906   */\n      0x00\n        /* \"#utility.yul\":27940:27942   */\n      0x20\n        /* \"#utility.yul\":27929:27938   */\n      dup3\n        /* \"#utility.yul\":27925:27943   */\n      add\n        /* \"#utility.yul\":27917:27943   */\n      swap1\n      pop\n        /* \"#utility.yul\":27989:27998   */\n      dup2\n        /* \"#utility.yul\":27983:27987   */\n      dup2\n        /* \"#utility.yul\":27979:27999   */\n      sub\n        /* \"#utility.yul\":27975:27976   */\n      0x00\n        /* \"#utility.yul\":27964:27973   */\n      dup4\n        /* \"#utility.yul\":27960:27977   */\n      add\n        /* \"#utility.yul\":27953:28000   */\n      mstore\n        /* \"#utility.yul\":28017:28148   */\n      tag_686\n        /* \"#utility.yul\":28143:28147   */\n      dup2\n        /* \"#utility.yul\":28017:28148   */\n      tag_574\n      jump\t// in\n    tag_686:\n        /* \"#utility.yul\":28009:28148   */\n      swap1\n      pop\n        /* \"#utility.yul\":27736:28155   */\n      swap2\n      swap1\n      pop\n      jump\t// out\n        /* \"#utility.yul\":28161:28580   */\n    tag_82:\n        /* \"#utility.yul\":28327:28331   */\n      0x00\n        /* \"#utility.yul\":28365:28367   */\n      0x20\n        /* \"#utility.yul\":28354:28363   */\n      dup3\n        /* \"#utility.yul\":28350:28368   */\n      add\n        /* \"#utility.yul\":28342:28368   */\n      swap1\n      pop\n        /* \"#utility.yul\":28414:28423   */\n      dup2\n        /* \"#utility.yul\":28408:28412   */\n      dup2\n        /* \"#utility.yul\":28404:28424   */\n      sub\n        /* \"#utility.yul\":28400:28401   */\n      0x00\n        /* \"#utility.yul\":28389:28398   */\n      dup4\n        /* \"#utility.yul\":28385:28402   */\n      add\n        /* \"#utility.yul\":28378:28425   */\n      mstore\n        /* \"#utility.yul\":28442:28573   */\n      tag_688\n        /* \"#utility.yul\":28568:28572   */\n      dup2\n        /* \"#utility.yul\":28442:28573   */\n      tag_579\n      jump\t// in\n    tag_688:\n        /* \"#utility.yul\":28434:28573   */\n      swap1\n      pop\n        /* \"#utility.yul\":28161:28580   */\n      swap2\n      swap1\n      pop\n      jump\t// out\n        /* \"#utility.yul\":28586:29005   */\n    tag_241:\n        /* \"#utility.yul\":28752:28756   */\n      0x00\n        /* \"#utility.yul\":28790:28792   */\n      0x20\n        /* \"#utility.yul\":28779:28788   */\n      dup3\n        /* \"#utility.yul\":28775:28793   */\n      add\n        /* \"#utility.yul\":28767:28793   */\n      swap1\n      pop\n        /* \"#utility.yul\":28839:28848   */\n      dup2\n        /* \"#utility.yul\":28833:28837   */\n      dup2\n        /* \"#utility.yul\":28829:28849   */\n      sub\n        /* \"#utility.yul\":28825:28826   */\n      0x00\n        /* \"#utility.yul\":28814:28823   */\n      dup4\n        /* \"#utility.yul\":28810:28827   */\n      add\n        /* \"#utility.yul\":28803:28850   */\n      mstore\n        /* \"#utility.yul\":28867:28998   */\n      tag_690\n        /* \"#utility.yul\":28993:28997   */\n      dup2\n        /* \"#utility.yul\":28867:28998   */\n      tag_584\n      jump\t// in\n    tag_690:\n        /* \"#utility.yul\":28859:28998   */\n      swap1\n      pop\n        /* \"#utility.yul\":28586:29005   */\n      swap2\n      swap1\n      pop\n      jump\t// out\n        /* \"#utility.yul\":29011:29430   */\n    tag_121:\n        /* \"#utility.yul\":29177:29181   */\n      0x00\n        /* \"#utility.yul\":29215:29217   */\n      0x20\n        /* \"#utility.yul\":29204:29213   */\n      dup3\n        /* \"#utility.yul\":29200:29218   */\n      add\n        /* \"#utility.yul\":29192:29218   */\n      swap1\n      pop\n        /* \"#utility.yul\":29264:29273   */\n      dup2\n        /* \"#utility.yul\":29258:29262   */\n      dup2\n        /* \"#utility.yul\":29254:29274   */\n      sub\n        /* \"#utility.yul\":29250:29251   */\n      0x00\n        /* \"#utility.yul\":29239:29248   */\n      dup4\n        /* \"#utility.yul\":29235:29252   */\n      add\n        /* \"#utility.yul\":29228:29275   */\n      mstore\n        /* \"#utility.yul\":29292:29423   */\n      tag_692\n        /* \"#utility.yul\":29418:29422   */\n      dup2\n        /* \"#utility.yul\":29292:29423   */\n      tag_589\n      jump\t// in\n    tag_692:\n        /* \"#utility.yul\":29284:29423   */\n      swap1\n      pop\n        /* \"#utility.yul\":29011:29430   */\n      swap2\n      swap1\n      pop\n      jump\t// out\n        /* \"#utility.yul\":29436:29855   */\n    tag_145:\n        /* \"#utility.yul\":29602:29606   */\n      0x00\n        /* \"#utility.yul\":29640:29642   */\n      0x20\n        /* \"#utility.yul\":29629:29638   */\n      dup3\n        /* \"#utility.yul\":29625:29643   */\n      add\n        /* \"#utility.yul\":29617:29643   */\n      swap1\n      pop\n        /* \"#utility.yul\":29689:29698   */\n      dup2\n        /* \"#utility.yul\":29683:29687   */\n      dup2\n        /* \"#utility.yul\":29679:29699   */\n      sub\n        /* \"#utility.yul\":29675:29676   */\n      0x00\n        /* \"#utility.yul\":29664:29673   */\n      dup4\n        /* \"#utility.yul\":29660:29677   */\n      add\n        /* \"#utility.yul\":29653:29700   */\n      mstore\n        /* \"#utility.yul\":29717:29848   */\n      tag_694\n        /* \"#utility.yul\":29843:29847   */\n      dup2\n        /* \"#utility.yul\":29717:29848   */\n      tag_594\n      jump\t// in\n    tag_694:\n        /* \"#utility.yul\":29709:29848   */\n      swap1\n      pop\n        /* \"#utility.yul\":29436:29855   */\n      swap2\n      swap1\n      pop\n      jump\t// out\n        /* \"#utility.yul\":29861:30280   */\n    tag_88:\n        /* \"#utility.yul\":30027:30031   */\n      0x00\n        /* \"#utility.yul\":30065:30067   */\n      0x20\n        /* \"#utility.yul\":30054:30063   */\n      dup3\n        /* \"#utility.yul\":30050:30068   */\n      add\n        /* \"#utility.yul\":30042:30068   */\n      swap1\n      pop\n        /* \"#utility.yul\":30114:30123   */\n      dup2\n        /* \"#utility.yul\":30108:30112   */\n      dup2\n        /* \"#utility.yul\":30104:30124   */\n      sub\n        /* \"#utility.yul\":30100:30101   */\n      0x00\n        /* \"#utility.yul\":30089:30098   */\n      dup4\n        /* \"#utility.yul\":30085:30102   */\n      add\n        /* \"#utility.yul\":30078:30125   */\n      mstore\n        /* \"#utility.yul\":30142:30273   */\n      tag_696\n        /* \"#utility.yul\":30268:30272   */\n      dup2\n        /* \"#utility.yul\":30142:30273   */\n      tag_599\n      jump\t// in\n    tag_696:\n        /* \"#utility.yul\":30134:30273   */\n      swap1\n      pop\n        /* \"#utility.yul\":29861:30280   */\n      swap2\n      swap1\n      pop\n      jump\t// out\n        /* \"#utility.yul\":30286:30705   */\n    tag_292:\n        /* \"#utility.yul\":30452:30456   */\n      0x00\n        /* \"#utility.yul\":30490:30492   */\n      0x20\n        /* \"#utility.yul\":30479:30488   */\n      dup3\n        /* \"#utility.yul\":30475:30493   */\n      add\n        /* \"#utility.yul\":30467:30493   */\n      swap1\n      pop\n        /* \"#utility.yul\":30539:30548   */\n      dup2\n        /* \"#utility.yul\":30533:30537   */\n      dup2\n        /* \"#utility.yul\":30529:30549   */\n      sub\n        /* \"#utility.yul\":30525:30526   */\n      0x00\n        /* \"#utility.yul\":30514:30523   */\n      dup4\n        /* \"#utility.yul\":30510:30527   */\n      add\n        /* \"#utility.yul\":30503:30550   */\n      mstore\n        /* \"#utility.yul\":30567:30698   */\n      tag_698\n        /* \"#utility.yul\":30693:30697   */\n      dup2\n        /* \"#utility.yul\":30567:30698   */\n      tag_604\n      jump\t// in\n    tag_698:\n        /* \"#utility.yul\":30559:30698   */\n      swap1\n      pop\n        /* \"#utility.yul\":30286:30705   */\n      swap2\n      swap1\n      pop\n      jump\t// out\n        /* \"#utility.yul\":30711:31130   */\n    tag_130:\n        /* \"#utility.yul\":30877:30881   */\n      0x00\n        /* \"#utility.yul\":30915:30917   */\n      0x20\n        /* \"#utility.yul\":30904:30913   */\n      dup3\n        /* \"#utility.yul\":30900:30918   */\n      add\n        /* \"#utility.yul\":30892:30918   */\n      swap1\n      pop\n        /* \"#utility.yul\":30964:30973   */\n      dup2\n        /* \"#utility.yul\":30958:30962   */\n      dup2\n        /* \"#utility.yul\":30954:30974   */\n      sub\n        /* \"#utility.yul\":30950:30951   */\n      0x00\n        /* \"#utility.yul\":30939:30948   */\n      dup4\n        /* \"#utility.yul\":30935:30952   */\n      add\n        /* \"#utility.yul\":30928:30975   */\n      mstore\n        /* \"#utility.yul\":30992:31123   */\n      tag_700\n        /* \"#utility.yul\":31118:31122   */\n      dup2\n        /* \"#utility.yul\":30992:31123   */\n      tag_609\n      jump\t// in\n    tag_700:\n        /* \"#utility.yul\":30984:31123   */\n      swap1\n      pop\n        /* \"#utility.yul\":30711:31130   */\n      swap2\n      swap1\n      pop\n      jump\t// out\n        /* \"#utility.yul\":31136:31775   */\n    tag_112:\n        /* \"#utility.yul\":31358:31362   */\n      0x00\n        /* \"#utility.yul\":31396:31398   */\n      0x60\n        /* \"#utility.yul\":31385:31394   */\n      dup3\n        /* \"#utility.yul\":31381:31399   */\n      add\n        /* \"#utility.yul\":31373:31399   */\n      swap1\n      pop\n        /* \"#utility.yul\":31445:31454   */\n      dup2\n        /* \"#utility.yul\":31439:31443   */\n      dup2\n        /* \"#utility.yul\":31435:31455   */\n      sub\n        /* \"#utility.yul\":31431:31432   */\n      0x00\n        /* \"#utility.yul\":31420:31429   */\n      dup4\n        /* \"#utility.yul\":31416:31433   */\n      add\n        /* \"#utility.yul\":31409:31456   */\n      mstore\n        /* \"#utility.yul\":31473:31604   */\n      tag_702\n        /* \"#utility.yul\":31599:31603   */\n      dup2\n        /* \"#utility.yul\":31473:31604   */\n      tag_614\n      jump\t// in\n    tag_702:\n        /* \"#utility.yul\":31465:31604   */\n      swap1\n      pop\n        /* \"#utility.yul\":31614:31686   */\n      tag_703\n        /* \"#utility.yul\":31682:31684   */\n      0x20\n        /* \"#utility.yul\":31671:31680   */\n      dup4\n        /* \"#utility.yul\":31667:31685   */\n      add\n        /* \"#utility.yul\":31658:31664   */\n      dup6\n        /* \"#utility.yul\":31614:31686   */\n      tag_467\n      jump\t// in\n    tag_703:\n        /* \"#utility.yul\":31696:31768   */\n      tag_704\n        /* \"#utility.yul\":31764:31766   */\n      0x40\n        /* \"#utility.yul\":31753:31762   */\n      dup4\n        /* \"#utility.yul\":31749:31767   */\n      add\n        /* \"#utility.yul\":31740:31746   */\n      dup5\n        /* \"#utility.yul\":31696:31768   */\n      tag_647\n      jump\t// in\n    tag_704:\n        /* \"#utility.yul\":31136:31775   */\n      swap4\n      swap3\n      pop\n      pop\n      pop\n      jump\t// out\n        /* \"#utility.yul\":31781:32200   */\n    tag_272:\n        /* \"#utility.yul\":31947:31951   */\n      0x00\n        /* \"#utility.yul\":31985:31987   */\n      0x20\n        /* \"#utility.yul\":31974:31983   */\n      dup3\n        /* \"#utility.yul\":31970:31988   */\n      add\n        /* \"#utility.yul\":31962:31988   */\n      swap1\n      pop\n        /* \"#utility.yul\":32034:32043   */\n      dup2\n        /* \"#utility.yul\":32028:32032   */\n      dup2\n        /* \"#utility.yul\":32024:32044   */\n      sub\n        /* \"#utility.yul\":32020:32021   */\n      0x00\n        /* \"#utility.yul\":32009:32018   */\n      dup4\n        /* \"#utility.yul\":32005:32022   */\n      add\n        /* \"#utility.yul\":31998:32045   */\n      mstore\n        /* \"#utility.yul\":32062:32193   */\n      tag_706\n        /* \"#utility.yul\":32188:32192   */\n      dup2\n        /* \"#utility.yul\":32062:32193   */\n      tag_619\n      jump\t// in\n    tag_706:\n        /* \"#utility.yul\":32054:32193   */\n      swap1\n      pop\n        /* \"#utility.yul\":31781:32200   */\n      swap2\n      swap1\n      pop\n      jump\t// out\n        /* \"#utility.yul\":32206:32845   */\n    tag_156:\n        /* \"#utility.yul\":32428:32432   */\n      0x00\n        /* \"#utility.yul\":32466:32468   */\n      0x60\n        /* \"#utility.yul\":32455:32464   */\n      dup3\n        /* \"#utility.yul\":32451:32469   */\n      add\n        /* \"#utility.yul\":32443:32469   */\n      swap1\n      pop\n        /* \"#utility.yul\":32515:32524   */\n      dup2\n        /* \"#utility.yul\":32509:32513   */\n      dup2\n        /* \"#utility.yul\":32505:32525   */\n      sub\n        /* \"#utility.yul\":32501:32502   */\n      0x00\n        /* \"#utility.yul\":32490:32499   */\n      dup4\n        /* \"#utility.yul\":32486:32503   */\n      add\n        /* \"#utility.yul\":32479:32526   */\n      mstore\n        /* \"#utility.yul\":32543:32674   */\n      tag_708\n        /* \"#utility.yul\":32669:32673   */\n      dup2\n        /* \"#utility.yul\":32543:32674   */\n      tag_624\n      jump\t// in\n    tag_708:\n        /* \"#utility.yul\":32535:32674   */\n      swap1\n      pop\n        /* \"#utility.yul\":32684:32756   */\n      tag_709\n        /* \"#utility.yul\":32752:32754   */\n      0x20\n        /* \"#utility.yul\":32741:32750   */\n      dup4\n        /* \"#utility.yul\":32737:32755   */\n      add\n        /* \"#utility.yul\":32728:32734   */\n      dup6\n        /* \"#utility.yul\":32684:32756   */\n      tag_467\n      jump\t// in\n    tag_709:\n        /* \"#utility.yul\":32766:32838   */\n      tag_710\n        /* \"#utility.yul\":32834:32836   */\n      0x40\n        /* \"#utility.yul\":32823:32832   */\n      dup4\n        /* \"#utility.yul\":32819:32837   */\n      add\n        /* \"#utility.yul\":32810:32816   */\n      dup5\n        /* \"#utility.yul\":32766:32838   */\n      tag_647\n      jump\t// in\n    tag_710:\n        /* \"#utility.yul\":32206:32845   */\n      swap4\n      swap3\n      pop\n      pop\n      pop\n      jump\t// out\n        /* \"#utility.yul\":32851:33270   */\n    tag_275:\n        /* \"#utility.yul\":33017:33021   */\n      0x00\n        /* \"#utility.yul\":33055:33057   */\n      0x20\n        /* \"#utility.yul\":33044:33053   */\n      dup3\n        /* \"#utility.yul\":33040:33058   */\n      add\n        /* \"#utility.yul\":33032:33058   */\n      swap1\n      pop\n        /* \"#utility.yul\":33104:33113   */\n      dup2\n        /* \"#utility.yul\":33098:33102   */\n      dup2\n        /* \"#utility.yul\":33094:33114   */\n      sub\n        /* \"#utility.yul\":33090:33091   */\n      0x00\n        /* \"#utility.yul\":33079:33088   */\n      dup4\n        /* \"#utility.yul\":33075:33092   */\n      add\n        /* \"#utility.yul\":33068:33115   */\n      mstore\n        /* \"#utility.yul\":33132:33263   */\n      tag_712\n        /* \"#utility.yul\":33258:33262   */\n      dup2\n        /* \"#utility.yul\":33132:33263   */\n      tag_629\n      jump\t// in\n    tag_712:\n        /* \"#utility.yul\":33124:33263   */\n      swap1\n      pop\n        /* \"#utility.yul\":32851:33270   */\n      swap2\n      swap1\n      pop\n      jump\t// out\n        /* \"#utility.yul\":33276:33695   */\n    tag_285:\n        /* \"#utility.yul\":33442:33446   */\n      0x00\n        /* \"#utility.yul\":33480:33482   */\n      0x20\n        /* \"#utility.yul\":33469:33478   */\n      dup3\n        /* \"#utility.yul\":33465:33483   */\n      add\n        /* \"#utility.yul\":33457:33483   */\n      swap1\n      pop\n        /* \"#utility.yul\":33529:33538   */\n      dup2\n        /* \"#utility.yul\":33523:33527   */\n      dup2\n        /* \"#utility.yul\":33519:33539   */\n      sub\n        /* \"#utility.yul\":33515:33516   */\n      0x00\n        /* \"#utility.yul\":33504:33513   */\n      dup4\n        /* \"#utility.yul\":33500:33517   */\n      add\n        /* \"#utility.yul\":33493:33540   */\n      mstore\n        /* \"#utility.yul\":33557:33688   */\n      tag_714\n        /* \"#utility.yul\":33683:33687   */\n      dup2\n        /* \"#utility.yul\":33557:33688   */\n      tag_634\n      jump\t// in\n    tag_714:\n        /* \"#utility.yul\":33549:33688   */\n      swap1\n      pop\n        /* \"#utility.yul\":33276:33695   */\n      swap2\n      swap1\n      pop\n      jump\t// out\n        /* \"#utility.yul\":33701:34033   */\n    tag_64:\n        /* \"#utility.yul\":33822:33826   */\n      0x00\n        /* \"#utility.yul\":33860:33862   */\n      0x40\n        /* \"#utility.yul\":33849:33858   */\n      dup3\n        /* \"#utility.yul\":33845:33863   */\n      add\n        /* \"#utility.yul\":33837:33863   */\n      swap1\n      pop\n        /* \"#utility.yul\":33873:33944   */\n      tag_716\n        /* \"#utility.yul\":33941:33942   */\n      0x00\n        /* \"#utility.yul\":33930:33939   */\n      dup4\n        /* \"#utility.yul\":33926:33943   */\n      add\n        /* \"#utility.yul\":33917:33923   */\n      dup6\n        /* \"#utility.yul\":33873:33944   */\n      tag_639\n      jump\t// in\n    tag_716:\n        /* \"#utility.yul\":33954:34026   */\n      tag_717\n        /* \"#utility.yul\":34022:34024   */\n      0x20\n        /* \"#utility.yul\":34011:34020   */\n      dup4\n        /* \"#utility.yul\":34007:34025   */\n      add\n        /* \"#utility.yul\":33998:34004   */\n      dup5\n        /* \"#utility.yul\":33954:34026   */\n      tag_639\n      jump\t// in\n    tag_717:\n        /* \"#utility.yul\":33701:34033   */\n      swap4\n      swap3\n      pop\n      pop\n      pop\n      jump\t// out\n        /* \"#utility.yul\":34039:34261   */\n    tag_28:\n        /* \"#utility.yul\":34132:34136   */\n      0x00\n        /* \"#utility.yul\":34170:34172   */\n      0x20\n        /* \"#utility.yul\":34159:34168   */\n      dup3\n        /* \"#utility.yul\":34155:34173   */\n      add\n        /* \"#utility.yul\":34147:34173   */\n      swap1\n      pop\n        /* \"#utility.yul\":34183:34254   */\n      tag_719\n        /* \"#utility.yul\":34251:34252   */\n      0x00\n        /* \"#utility.yul\":34240:34249   */\n      dup4\n        /* \"#utility.yul\":34236:34253   */\n      add\n        /* \"#utility.yul\":34227:34233   */\n      dup5\n        /* \"#utility.yul\":34183:34254   */\n      tag_647\n      jump\t// in\n    tag_719:\n        /* \"#utility.yul\":34039:34261   */\n      swap3\n      swap2\n      pop\n      pop\n      jump\t// out\n        /* \"#utility.yul\":34267:34808   */\n    tag_59:\n        /* \"#utility.yul\":34438:34442   */\n      0x00\n        /* \"#utility.yul\":34476:34479   */\n      0x80\n        /* \"#utility.yul\":34465:34474   */\n      dup3\n        /* \"#utility.yul\":34461:34480   */\n      add\n        /* \"#utility.yul\":34453:34480   */\n      swap1\n      pop\n        /* \"#utility.yul\":34490:34561   */\n      tag_721\n        /* \"#utility.yul\":34558:34559   */\n      0x00\n        /* \"#utility.yul\":34547:34556   */\n      dup4\n        /* \"#utility.yul\":34543:34560   */\n      add\n        /* \"#utility.yul\":34534:34540   */\n      dup8\n        /* \"#utility.yul\":34490:34561   */\n      tag_647\n      jump\t// in\n    tag_721:\n        /* \"#utility.yul\":34571:34643   */\n      tag_722\n        /* \"#utility.yul\":34639:34641   */\n      0x20\n        /* \"#utility.yul\":34628:34637   */\n      dup4\n        /* \"#utility.yul\":34624:34642   */\n      add\n        /* \"#utility.yul\":34615:34621   */\n      dup7\n        /* \"#utility.yul\":34571:34643   */\n      tag_467\n      jump\t// in\n    tag_722:\n        /* \"#utility.yul\":34653:34719   */\n      tag_723\n        /* \"#utility.yul\":34715:34717   */\n      0x40\n        /* \"#utility.yul\":34704:34713   */\n      dup4\n        /* \"#utility.yul\":34700:34718   */\n      add\n        /* \"#utility.yul\":34691:34697   */\n      dup6\n        /* \"#utility.yul\":34653:34719   */\n      tag_498\n      jump\t// in\n    tag_723:\n        /* \"#utility.yul\":34729:34801   */\n      tag_724\n        /* \"#utility.yul\":34797:34799   */\n      0x60\n        /* \"#utility.yul\":34786:34795   */\n      dup4\n        /* \"#utility.yul\":34782:34800   */\n      add\n        /* \"#utility.yul\":34773:34779   */\n      dup5\n        /* \"#utility.yul\":34729:34801   */\n      tag_647\n      jump\t// in\n    tag_724:\n        /* \"#utility.yul\":34267:34808   */\n      swap6\n      swap5\n      pop\n      pop\n      pop\n      pop\n      pop\n      jump\t// out\n        /* \"#utility.yul\":34814:36157   */\n    tag_94:\n        /* \"#utility.yul\":35227:35231   */\n      0x00\n        /* \"#utility.yul\":35265:35268   */\n      0xe0\n        /* \"#utility.yul\":35254:35263   */\n      dup3\n        /* \"#utility.yul\":35250:35269   */\n      add\n        /* \"#utility.yul\":35242:35269   */\n      swap1\n      pop\n        /* \"#utility.yul\":35279:35350   */\n      tag_726\n        /* \"#utility.yul\":35347:35348   */\n      0x00\n        /* \"#utility.yul\":35336:35345   */\n      dup4\n        /* \"#utility.yul\":35332:35349   */\n      add\n        /* \"#utility.yul\":35323:35329   */\n      dup12\n        /* \"#utility.yul\":35279:35350   */\n      tag_647\n      jump\t// in\n    tag_726:\n        /* \"#utility.yul\":35397:35406   */\n      dup2\n        /* \"#utility.yul\":35391:35395   */\n      dup2\n        /* \"#utility.yul\":35387:35407   */\n      sub\n        /* \"#utility.yul\":35382:35384   */\n      0x20\n        /* \"#utility.yul\":35371:35380   */\n      dup4\n        /* \"#utility.yul\":35367:35385   */\n      add\n        /* \"#utility.yul\":35360:35408   */\n      mstore\n        /* \"#utility.yul\":35425:35533   */\n      tag_727\n        /* \"#utility.yul\":35528:35532   */\n      dup2\n        /* \"#utility.yul\":35519:35525   */\n      dup11\n        /* \"#utility.yul\":35425:35533   */\n      tag_470\n      jump\t// in\n    tag_727:\n        /* \"#utility.yul\":35417:35533   */\n      swap1\n      pop\n        /* \"#utility.yul\":35543:35615   */\n      tag_728\n        /* \"#utility.yul\":35611:35613   */\n      0x40\n        /* \"#utility.yul\":35600:35609   */\n      dup4\n        /* \"#utility.yul\":35596:35614   */\n      add\n        /* \"#utility.yul\":35587:35593   */\n      dup10\n        /* \"#utility.yul\":35543:35615   */\n      tag_467\n      jump\t// in\n    tag_728:\n        /* \"#utility.yul\":35625:35697   */\n      tag_729\n        /* \"#utility.yul\":35693:35695   */\n      0x60\n        /* \"#utility.yul\":35682:35691   */\n      dup4\n        /* \"#utility.yul\":35678:35696   */\n      add\n        /* \"#utility.yul\":35669:35675   */\n      dup9\n        /* \"#utility.yul\":35625:35697   */\n      tag_647\n      jump\t// in\n    tag_729:\n        /* \"#utility.yul\":35707:35780   */\n      tag_730\n        /* \"#utility.yul\":35775:35778   */\n      0x80\n        /* \"#utility.yul\":35764:35773   */\n      dup4\n        /* \"#utility.yul\":35760:35779   */\n      add\n        /* \"#utility.yul\":35751:35757   */\n      dup8\n        /* \"#utility.yul\":35707:35780   */\n      tag_647\n      jump\t// in\n    tag_730:\n        /* \"#utility.yul\":35828:35837   */\n      dup2\n        /* \"#utility.yul\":35822:35826   */\n      dup2\n        /* \"#utility.yul\":35818:35838   */\n      sub\n        /* \"#utility.yul\":35812:35815   */\n      0xa0\n        /* \"#utility.yul\":35801:35810   */\n      dup4\n        /* \"#utility.yul\":35797:35816   */\n      add\n        /* \"#utility.yul\":35790:35839   */\n      mstore\n        /* \"#utility.yul\":35856:35934   */\n      tag_731\n        /* \"#utility.yul\":35929:35933   */\n      dup2\n        /* \"#utility.yul\":35920:35926   */\n      dup7\n        /* \"#utility.yul\":35856:35934   */\n      tag_513\n      jump\t// in\n    tag_731:\n        /* \"#utility.yul\":35848:35934   */\n      swap1\n      pop\n        /* \"#utility.yul\":35982:35991   */\n      dup2\n        /* \"#utility.yul\":35976:35980   */\n      dup2\n        /* \"#utility.yul\":35972:35992   */\n      sub\n        /* \"#utility.yul\":35966:35969   */\n      0xc0\n        /* \"#utility.yul\":35955:35964   */\n      dup4\n        /* \"#utility.yul\":35951:35970   */\n      add\n        /* \"#utility.yul\":35944:35993   */\n      mstore\n        /* \"#utility.yul\":36010:36150   */\n      tag_732\n        /* \"#utility.yul\":36145:36149   */\n      dup2\n        /* \"#utility.yul\":36136:36142   */\n      dup5\n        /* \"#utility.yul\":36128:36134   */\n      dup7\n        /* \"#utility.yul\":36010:36150   */\n      tag_484\n      jump\t// in\n    tag_732:\n        /* \"#utility.yul\":36002:36150   */\n      swap1\n      pop\n        /* \"#utility.yul\":34814:36157   */\n      swap10\n      swap9\n      pop\n      pop\n      pop\n      pop\n      pop\n      pop\n      pop\n      pop\n      pop\n      jump\t// out\n        /* \"#utility.yul\":36163:36586   */\n    tag_53:\n        /* \"#utility.yul\":36304:36308   */\n      0x00\n        /* \"#utility.yul\":36342:36344   */\n      0x40\n        /* \"#utility.yul\":36331:36340   */\n      dup3\n        /* \"#utility.yul\":36327:36345   */\n      add\n        /* \"#utility.yul\":36319:36345   */\n      swap1\n      pop\n        /* \"#utility.yul\":36355:36426   */\n      tag_734\n        /* \"#utility.yul\":36423:36424   */\n      0x00\n        /* \"#utility.yul\":36412:36421   */\n      dup4\n        /* \"#utility.yul\":36408:36425   */\n      add\n        /* \"#utility.yul\":36399:36405   */\n      dup6\n        /* \"#utility.yul\":36355:36426   */\n      tag_647\n      jump\t// in\n    tag_734:\n        /* \"#utility.yul\":36473:36482   */\n      dup2\n        /* \"#utility.yul\":36467:36471   */\n      dup2\n        /* \"#utility.yul\":36463:36483   */\n      sub\n        /* \"#utility.yul\":36458:36460   */\n      0x20\n        /* \"#utility.yul\":36447:36456   */\n      dup4\n        /* \"#utility.yul\":36443:36461   */\n      add\n        /* \"#utility.yul\":36436:36484   */\n      mstore\n        /* \"#utility.yul\":36501:36579   */\n      tag_735\n        /* \"#utility.yul\":36574:36578   */\n      dup2\n        /* \"#utility.yul\":36565:36571   */\n      dup5\n        /* \"#utility.yul\":36501:36579   */\n      tag_513\n      jump\t// in\n    tag_735:\n        /* \"#utility.yul\":36493:36579   */\n      swap1\n      pop\n        /* \"#utility.yul\":36163:36586   */\n      swap4\n      swap3\n      pop\n      pop\n      pop\n      jump\t// out\n        /* \"#utility.yul\":36592:36806   */\n    tag_32:\n        /* \"#utility.yul\":36681:36685   */\n      0x00\n        /* \"#utility.yul\":36719:36721   */\n      0x20\n        /* \"#utility.yul\":36708:36717   */\n      dup3\n        /* \"#utility.yul\":36704:36722   */\n      add\n        /* \"#utility.yul\":36696:36722   */\n      swap1\n      pop\n        /* \"#utility.yul\":36732:36799   */\n      tag_737\n        /* \"#utility.yul\":36796:36797   */\n      0x00\n        /* \"#utility.yul\":36785:36794   */\n      dup4\n        /* \"#utility.yul\":36781:36798   */\n      add\n        /* \"#utility.yul\":36772:36778   */\n      dup5\n        /* \"#utility.yul\":36732:36799   */\n      tag_651\n      jump\t// in\n    tag_737:\n        /* \"#utility.yul\":36592:36806   */\n      swap3\n      swap2\n      pop\n      pop\n      jump\t// out\n        /* \"#utility.yul\":36812:37537   */\n    tag_184:\n        /* \"#utility.yul\":36890:36894   */\n      0x00\n        /* \"#utility.yul\":36896:36902   */\n      dup1\n        /* \"#utility.yul\":36952:36963   */\n      dup4\n        /* \"#utility.yul\":36939:36964   */\n      calldataload\n        /* \"#utility.yul\":37052:37053   */\n      0x01\n        /* \"#utility.yul\":37046:37050   */\n      0x20\n        /* \"#utility.yul\":37042:37054   */\n      sub\n        /* \"#utility.yul\":37031:37039   */\n      dup5\n        /* \"#utility.yul\":37015:37029   */\n      calldatasize\n        /* \"#utility.yul\":37011:37040   */\n      sub\n        /* \"#utility.yul\":37007:37055   */\n      sub\n        /* \"#utility.yul\":36987:37005   */\n      dup2\n        /* \"#utility.yul\":36983:37056   */\n      slt\n        /* \"#utility.yul\":36973:37141   */\n      tag_739\n      jumpi\n        /* \"#utility.yul\":37060:37139   */\n      tag_740\n      tag_741\n      jump\t// in\n    tag_740:\n        /* \"#utility.yul\":36973:37141   */\n    tag_739:\n        /* \"#utility.yul\":37172:37190   */\n      dup1\n        /* \"#utility.yul\":37162:37170   */\n      dup5\n        /* \"#utility.yul\":37158:37191   */\n      add\n        /* \"#utility.yul\":37150:37191   */\n      swap3\n      pop\n        /* \"#utility.yul\":37224:37228   */\n      dup3\n        /* \"#utility.yul\":37211:37229   */\n      calldataload\n        /* \"#utility.yul\":37201:37229   */\n      swap2\n      pop\n        /* \"#utility.yul\":37252:37270   */\n      0xffffffffffffffff\n        /* \"#utility.yul\":37244:37250   */\n      dup3\n        /* \"#utility.yul\":37241:37271   */\n      gt\n        /* \"#utility.yul\":37238:37355   */\n      iszero\n      tag_742\n      jumpi\n        /* \"#utility.yul\":37274:37353   */\n      tag_743\n      tag_744\n      jump\t// in\n    tag_743:\n        /* \"#utility.yul\":37238:37355   */\n    tag_742:\n        /* \"#utility.yul\":37382:37384   */\n      0x20\n        /* \"#utility.yul\":37376:37380   */\n      dup4\n        /* \"#utility.yul\":37372:37385   */\n      add\n        /* \"#utility.yul\":37364:37385   */\n      swap3\n      pop\n        /* \"#utility.yul\":37439:37443   */\n      0x01\n        /* \"#utility.yul\":37431:37437   */\n      dup3\n        /* \"#utility.yul\":37427:37444   */\n      mul\n        /* \"#utility.yul\":37411:37425   */\n      calldatasize\n        /* \"#utility.yul\":37407:37445   */\n      sub\n        /* \"#utility.yul\":37401:37405   */\n      dup4\n        /* \"#utility.yul\":37397:37446   */\n      sgt\n        /* \"#utility.yul\":37394:37530   */\n      iszero\n      tag_745\n      jumpi\n        /* \"#utility.yul\":37449:37528   */\n      tag_746\n      tag_747\n      jump\t// in\n    tag_746:\n        /* \"#utility.yul\":37394:37530   */\n    tag_745:\n        /* \"#utility.yul\":36903:37537   */\n      pop\n        /* \"#utility.yul\":36812:37537   */\n      swap3\n      pop\n      swap3\n      swap1\n      pop\n      jump\t// out\n        /* \"#utility.yul\":37543:37672   */\n    tag_329:\n        /* \"#utility.yul\":37577:37583   */\n      0x00\n        /* \"#utility.yul\":37604:37624   */\n      tag_749\n      tag_750\n      jump\t// in\n    tag_749:\n        /* \"#utility.yul\":37594:37624   */\n      swap1\n      pop\n        /* \"#utility.yul\":37633:37666   */\n      tag_751\n        /* \"#utility.yul\":37661:37665   */\n      dup3\n        /* \"#utility.yul\":37653:37659   */\n      dup3\n        /* \"#utility.yul\":37633:37666   */\n      tag_752\n      jump\t// in\n    tag_751:\n        /* \"#utility.yul\":37543:37672   */\n      swap2\n      swap1\n      pop\n      jump\t// out\n        /* \"#utility.yul\":37678:37753   */\n    tag_750:\n        /* \"#utility.yul\":37711:37717   */\n      0x00\n        /* \"#utility.yul\":37744:37746   */\n      0x40\n        /* \"#utility.yul\":37738:37747   */\n      mload\n        /* \"#utility.yul\":37728:37747   */\n      swap1\n      pop\n        /* \"#utility.yul\":37678:37753   */\n      swap1\n      jump\t// out\n        /* \"#utility.yul\":37759:38070   */\n    tag_328:\n        /* \"#utility.yul\":37836:37840   */\n      0x00\n        /* \"#utility.yul\":37926:37944   */\n      0xffffffffffffffff\n        /* \"#utility.yul\":37918:37924   */\n      dup3\n        /* \"#utility.yul\":37915:37945   */\n      gt\n        /* \"#utility.yul\":37912:37968   */\n      iszero\n      tag_755\n      jumpi\n        /* \"#utility.yul\":37948:37966   */\n      tag_756\n      tag_757\n      jump\t// in\n    tag_756:\n        /* \"#utility.yul\":37912:37968   */\n    tag_755:\n        /* \"#utility.yul\":37998:38002   */\n      0x20\n        /* \"#utility.yul\":37990:37996   */\n      dup3\n        /* \"#utility.yul\":37986:38003   */\n      mul\n        /* \"#utility.yul\":37978:38003   */\n      swap1\n      pop\n        /* \"#utility.yul\":38058:38062   */\n      0x20\n        /* \"#utility.yul\":38052:38056   */\n      dup2\n        /* \"#utility.yul\":38048:38063   */\n      add\n        /* \"#utility.yul\":38040:38063   */\n      swap1\n      pop\n        /* \"#utility.yul\":37759:38070   */\n      swap2\n      swap1\n      pop\n      jump\t// out\n        /* \"#utility.yul\":38076:38397   */\n    tag_342:\n        /* \"#utility.yul\":38163:38167   */\n      0x00\n        /* \"#utility.yul\":38253:38271   */\n      0xffffffffffffffff\n        /* \"#utility.yul\":38245:38251   */\n      dup3\n        /* \"#utility.yul\":38242:38272   */\n      gt\n        /* \"#utility.yul\":38239:38295   */\n      iszero\n      tag_759\n      jumpi\n        /* \"#utility.yul\":38275:38293   */\n      tag_760\n      tag_757\n      jump\t// in\n    tag_760:\n        /* \"#utility.yul\":38239:38295   */\n    tag_759:\n        /* \"#utility.yul\":38325:38329   */\n      0x20\n        /* \"#utility.yul\":38317:38323   */\n      dup3\n        /* \"#utility.yul\":38313:38330   */\n      mul\n        /* \"#utility.yul\":38305:38330   */\n      swap1\n      pop\n        /* \"#utility.yul\":38385:38389   */\n      0x20\n        /* \"#utility.yul\":38379:38383   */\n      dup2\n        /* \"#utility.yul\":38375:38390   */\n      add\n        /* \"#utility.yul\":38367:38390   */\n      swap1\n      pop\n        /* \"#utility.yul\":38076:38397   */\n      swap2\n      swap1\n      pop\n      jump\t// out\n        /* \"#utility.yul\":38403:38714   */\n    tag_357:\n        /* \"#utility.yul\":38480:38484   */\n      0x00\n        /* \"#utility.yul\":38570:38588   */\n      0xffffffffffffffff\n        /* \"#utility.yul\":38562:38568   */\n      dup3\n        /* \"#utility.yul\":38559:38589   */\n      gt\n        /* \"#utility.yul\":38556:38612   */\n      iszero\n      tag_762\n      jumpi\n        /* \"#utility.yul\":38592:38610   */\n      tag_763\n      tag_757\n      jump\t// in\n    tag_763:\n        /* \"#utility.yul\":38556:38612   */\n    tag_762:\n        /* \"#utility.yul\":38642:38646   */\n      0x20\n        /* \"#utility.yul\":38634:38640   */\n      dup3\n        /* \"#utility.yul\":38630:38647   */\n      mul\n        /* \"#utility.yul\":38622:38647   */\n      swap1\n      pop\n        /* \"#utility.yul\":38702:38706   */\n      0x20\n        /* \"#utility.yul\":38696:38700   */\n      dup2\n        /* \"#utility.yul\":38692:38707   */\n      add\n        /* \"#utility.yul\":38684:38707   */\n      swap1\n      pop\n        /* \"#utility.yul\":38403:38714   */\n      swap2\n      swap1\n      pop\n      jump\t// out\n        /* \"#utility.yul\":38720:39028   */\n    tag_369:\n        /* \"#utility.yul\":38782:38786   */\n      0x00\n        /* \"#utility.yul\":38872:38890   */\n      0xffffffffffffffff\n        /* \"#utility.yul\":38864:38870   */\n      dup3\n        /* \"#utility.yul\":38861:38891   */\n      gt\n        /* \"#utility.yul\":38858:38914   */\n      iszero\n      tag_765\n      jumpi\n        /* \"#utility.yul\":38894:38912   */\n      tag_766\n      tag_757\n      jump\t// in\n    tag_766:\n        /* \"#utility.yul\":38858:38914   */\n    tag_765:\n        /* \"#utility.yul\":38932:38961   */\n      tag_767\n        /* \"#utility.yul\":38954:38960   */\n      dup3\n        /* \"#utility.yul\":38932:38961   */\n      tag_507\n      jump\t// in\n    tag_767:\n        /* \"#utility.yul\":38924:38961   */\n      swap1\n      pop\n        /* \"#utility.yul\":39016:39020   */\n      0x20\n        /* \"#utility.yul\":39010:39014   */\n      dup2\n        /* \"#utility.yul\":39006:39021   */\n      add\n        /* \"#utility.yul\":38998:39021   */\n      swap1\n      pop\n        /* \"#utility.yul\":38720:39028   */\n      swap2\n      swap1\n      pop\n      jump\t// out\n        /* \"#utility.yul\":39034:39166   */\n    tag_477:\n        /* \"#utility.yul\":39101:39105   */\n      0x00\n        /* \"#utility.yul\":39124:39127   */\n      dup2\n        /* \"#utility.yul\":39116:39127   */\n      swap1\n      pop\n        /* \"#utility.yul\":39154:39158   */\n      0x20\n        /* \"#utility.yul\":39149:39152   */\n      dup3\n        /* \"#utility.yul\":39145:39159   */\n      add\n        /* \"#utility.yul\":39137:39159   */\n      swap1\n      pop\n        /* \"#utility.yul\":39034:39166   */\n      swap2\n      swap1\n      pop\n      jump\t// out\n        /* \"#utility.yul\":39172:39286   */\n    tag_489:\n        /* \"#utility.yul\":39253:39257   */\n      0x00\n        /* \"#utility.yul\":39276:39279   */\n      dup2\n        /* \"#utility.yul\":39268:39279   */\n      swap1\n      pop\n        /* \"#utility.yul\":39172:39286   */\n      swap2\n      swap1\n      pop\n      jump\t// out\n        /* \"#utility.yul\":39292:39433   */\n    tag_535:\n        /* \"#utility.yul\":39341:39345   */\n      0x00\n        /* \"#utility.yul\":39364:39367   */\n      dup2\n        /* \"#utility.yul\":39356:39367   */\n      swap1\n      pop\n        /* \"#utility.yul\":39387:39390   */\n      dup2\n        /* \"#utility.yul\":39384:39385   */\n      0x00\n        /* \"#utility.yul\":39377:39391   */\n      mstore\n        /* \"#utility.yul\":39421:39425   */\n      0x20\n        /* \"#utility.yul\":39418:39419   */\n      0x00\n        /* \"#utility.yul\":39408:39426   */\n      keccak256\n        /* \"#utility.yul\":39400:39426   */\n      swap1\n      pop\n        /* \"#utility.yul\":39292:39433   */\n      swap2\n      swap1\n      pop\n      jump\t// out\n        /* \"#utility.yul\":39439:39553   */\n    tag_473:\n        /* \"#utility.yul\":39506:39512   */\n      0x00\n        /* \"#utility.yul\":39540:39545   */\n      dup2\n        /* \"#utility.yul\":39534:39546   */\n      mload\n        /* \"#utility.yul\":39524:39546   */\n      swap1\n      pop\n        /* \"#utility.yul\":39439:39553   */\n      swap2\n      swap1\n      pop\n      jump\t// out\n        /* \"#utility.yul\":39559:39658   */\n    tag_516:\n        /* \"#utility.yul\":39611:39617   */\n      0x00\n        /* \"#utility.yul\":39645:39650   */\n      dup2\n        /* \"#utility.yul\":39639:39651   */\n      mload\n        /* \"#utility.yul\":39629:39651   */\n      swap1\n      pop\n        /* \"#utility.yul\":39559:39658   */\n      swap2\n      swap1\n      pop\n      jump\t// out\n        /* \"#utility.yul\":39664:39777   */\n    tag_483:\n        /* \"#utility.yul\":39734:39738   */\n      0x00\n        /* \"#utility.yul\":39766:39770   */\n      0x20\n        /* \"#utility.yul\":39761:39764   */\n      dup3\n        /* \"#utility.yul\":39757:39771   */\n      add\n        /* \"#utility.yul\":39749:39771   */\n      swap1\n      pop\n        /* \"#utility.yul\":39664:39777   */\n      swap2\n      swap1\n      pop\n      jump\t// out\n        /* \"#utility.yul\":39783:39910   */\n    tag_497:\n        /* \"#utility.yul\":39867:39871   */\n      0x00\n        /* \"#utility.yul\":39899:39903   */\n      0x20\n        /* \"#utility.yul\":39894:39897   */\n      dup3\n        /* \"#utility.yul\":39890:39904   */\n      add\n        /* \"#utility.yul\":39882:39904   */\n      swap1\n      pop\n        /* \"#utility.yul\":39783:39910   */\n      swap2\n      swap1\n      pop\n      jump\t// out\n        /* \"#utility.yul\":39916:40100   */\n    tag_475:\n        /* \"#utility.yul\":40015:40026   */\n      0x00\n        /* \"#utility.yul\":40049:40055   */\n      dup3\n        /* \"#utility.yul\":40044:40047   */\n      dup3\n        /* \"#utility.yul\":40037:40056   */\n      mstore\n        /* \"#utility.yul\":40089:40093   */\n      0x20\n        /* \"#utility.yul\":40084:40087   */\n      dup3\n        /* \"#utility.yul\":40080:40094   */\n      add\n        /* \"#utility.yul\":40065:40094   */\n      swap1\n      pop\n        /* \"#utility.yul\":39916:40100   */\n      swap3\n      swap2\n      pop\n      pop\n      jump\t// out\n        /* \"#utility.yul\":40106:40300   */\n    tag_487:\n        /* \"#utility.yul\":40215:40226   */\n      0x00\n        /* \"#utility.yul\":40249:40255   */\n      dup3\n        /* \"#utility.yul\":40244:40247   */\n      dup3\n        /* \"#utility.yul\":40237:40256   */\n      mstore\n        /* \"#utility.yul\":40289:40293   */\n      0x20\n        /* \"#utility.yul\":40284:40287   */\n      dup3\n        /* \"#utility.yul\":40280:40294   */\n      add\n        /* \"#utility.yul\":40265:40294   */\n      swap1\n      pop\n        /* \"#utility.yul\":40106:40300   */\n      swap3\n      swap2\n      pop\n      pop\n      jump\t// out\n        /* \"#utility.yul\":40306:40465   */\n    tag_504:\n        /* \"#utility.yul\":40380:40391   */\n      0x00\n        /* \"#utility.yul\":40414:40420   */\n      dup3\n        /* \"#utility.yul\":40409:40412   */\n      dup3\n        /* \"#utility.yul\":40402:40421   */\n      mstore\n        /* \"#utility.yul\":40454:40458   */\n      0x20\n        /* \"#utility.yul\":40449:40452   */\n      dup3\n        /* \"#utility.yul\":40445:40459   */\n      add\n        /* \"#utility.yul\":40430:40459   */\n      swap1\n      pop\n        /* \"#utility.yul\":40306:40465   */\n      swap3\n      swap2\n      pop\n      pop\n      jump\t// out\n        /* \"#utility.yul\":40471:40640   */\n    tag_518:\n        /* \"#utility.yul\":40555:40566   */\n      0x00\n        /* \"#utility.yul\":40589:40595   */\n      dup3\n        /* \"#utility.yul\":40584:40587   */\n      dup3\n        /* \"#utility.yul\":40577:40596   */\n      mstore\n        /* \"#utility.yul\":40629:40633   */\n      0x20\n        /* \"#utility.yul\":40624:40627   */\n      dup3\n        /* \"#utility.yul\":40620:40634   */\n      add\n        /* \"#utility.yul\":40605:40634   */\n      swap1\n      pop\n        /* \"#utility.yul\":40471:40640   */\n      swap3\n      swap2\n      pop\n      pop\n      jump\t// out\n        /* \"#utility.yul\":40646:40794   */\n    tag_511:\n        /* \"#utility.yul\":40748:40759   */\n      0x00\n        /* \"#utility.yul\":40785:40788   */\n      dup2\n        /* \"#utility.yul\":40770:40788   */\n      swap1\n      pop\n        /* \"#utility.yul\":40646:40794   */\n      swap3\n      swap2\n      pop\n      pop\n      jump\t// out\n        /* \"#utility.yul\":40800:41515   */\n    tag_494:\n        /* \"#utility.yul\":40865:40870   */\n      0x00\n        /* \"#utility.yul\":40872:40878   */\n      dup1\n        /* \"#utility.yul\":40928:40931   */\n      dup4\n        /* \"#utility.yul\":40915:40932   */\n      calldataload\n        /* \"#utility.yul\":41020:41021   */\n      0x01\n        /* \"#utility.yul\":41014:41018   */\n      0x20\n        /* \"#utility.yul\":41010:41022   */\n      sub\n        /* \"#utility.yul\":40999:41007   */\n      dup5\n        /* \"#utility.yul\":40983:40997   */\n      calldatasize\n        /* \"#utility.yul\":40979:41008   */\n      sub\n        /* \"#utility.yul\":40975:41023   */\n      sub\n        /* \"#utility.yul\":40955:40973   */\n      dup2\n        /* \"#utility.yul\":40951:41024   */\n      slt\n        /* \"#utility.yul\":40941:41109   */\n      tag_781\n      jumpi\n        /* \"#utility.yul\":41028:41107   */\n      tag_782\n      tag_783\n      jump\t// in\n    tag_782:\n        /* \"#utility.yul\":40941:41109   */\n    tag_781:\n        /* \"#utility.yul\":41151:41159   */\n      dup4\n        /* \"#utility.yul\":41131:41149   */\n      dup2\n        /* \"#utility.yul\":41127:41160   */\n      add\n        /* \"#utility.yul\":41118:41160   */\n      swap3\n      pop\n        /* \"#utility.yul\":41193:41198   */\n      dup3\n        /* \"#utility.yul\":41180:41199   */\n      calldataload\n        /* \"#utility.yul\":41170:41199   */\n      swap2\n      pop\n        /* \"#utility.yul\":41228:41232   */\n      0x20\n        /* \"#utility.yul\":41221:41226   */\n      dup4\n        /* \"#utility.yul\":41217:41233   */\n      add\n        /* \"#utility.yul\":41208:41233   */\n      swap3\n      pop\n        /* \"#utility.yul\":41256:41274   */\n      0xffffffffffffffff\n        /* \"#utility.yul\":41248:41254   */\n      dup3\n        /* \"#utility.yul\":41245:41275   */\n      gt\n        /* \"#utility.yul\":41242:41359   */\n      iszero\n      tag_784\n      jumpi\n        /* \"#utility.yul\":41278:41357   */\n      tag_785\n      tag_786\n      jump\t// in\n    tag_785:\n        /* \"#utility.yul\":41242:41359   */\n    tag_784:\n        /* \"#utility.yul\":41417:41421   */\n      0x01\n        /* \"#utility.yul\":41409:41415   */\n      dup3\n        /* \"#utility.yul\":41405:41422   */\n      mul\n        /* \"#utility.yul\":41389:41403   */\n      calldatasize\n        /* \"#utility.yul\":41385:41423   */\n      sub\n        /* \"#utility.yul\":41375:41383   */\n      dup5\n        /* \"#utility.yul\":41371:41424   */\n      sgt\n        /* \"#utility.yul\":41368:41508   */\n      iszero\n      tag_787\n      jumpi\n        /* \"#utility.yul\":41427:41506   */\n      tag_788\n      tag_789\n      jump\t// in\n    tag_788:\n        /* \"#utility.yul\":41368:41508   */\n    tag_787:\n        /* \"#utility.yul\":40879:41515   */\n      pop\n        /* \"#utility.yul\":40800:41515   */\n      swap3\n      pop\n      swap3\n      swap1\n      pop\n      jump\t// out\n        /* \"#utility.yul\":41521:41763   */\n    tag_266:\n        /* \"#utility.yul\":41560:41563   */\n      0x00\n        /* \"#utility.yul\":41579:41598   */\n      tag_791\n        /* \"#utility.yul\":41596:41597   */\n      dup3\n        /* \"#utility.yul\":41579:41598   */\n      tag_646\n      jump\t// in\n    tag_791:\n        /* \"#utility.yul\":41574:41598   */\n      swap2\n      pop\n        /* \"#utility.yul\":41612:41631   */\n      tag_792\n        /* \"#utility.yul\":41629:41630   */\n      dup4\n        /* \"#utility.yul\":41612:41631   */\n      tag_646\n      jump\t// in\n    tag_792:\n        /* \"#utility.yul\":41607:41631   */\n      swap3\n      pop\n        /* \"#utility.yul\":41705:41706   */\n      dup3\n        /* \"#utility.yul\":41697:41703   */\n      0xffff\n        /* \"#utility.yul\":41693:41707   */\n      sub\n        /* \"#utility.yul\":41690:41691   */\n      dup3\n        /* \"#utility.yul\":41687:41708   */\n      gt\n        /* \"#utility.yul\":41684:41731   */\n      iszero\n      tag_793\n      jumpi\n        /* \"#utility.yul\":41711:41729   */\n      tag_794\n      tag_795\n      jump\t// in\n    tag_794:\n        /* \"#utility.yul\":41684:41731   */\n    tag_793:\n        /* \"#utility.yul\":41755:41756   */\n      dup3\n        /* \"#utility.yul\":41752:41753   */\n      dup3\n        /* \"#utility.yul\":41748:41757   */\n      add\n        /* \"#utility.yul\":41741:41757   */\n      swap1\n      pop\n        /* \"#utility.yul\":41521:41763   */\n      swap3\n      swap2\n      pop\n      pop\n      jump\t// out\n        /* \"#utility.yul\":41769:42074   */\n    tag_141:\n        /* \"#utility.yul\":41809:41812   */\n      0x00\n        /* \"#utility.yul\":41828:41848   */\n      tag_797\n        /* \"#utility.yul\":41846:41847   */\n      dup3\n        /* \"#utility.yul\":41828:41848   */\n      tag_650\n      jump\t// in\n    tag_797:\n        /* \"#utility.yul\":41823:41848   */\n      swap2\n      pop\n        /* \"#utility.yul\":41862:41882   */\n      tag_798\n        /* \"#utility.yul\":41880:41881   */\n      dup4\n        /* \"#utility.yul\":41862:41882   */\n      tag_650\n      jump\t// in\n    tag_798:\n        /* \"#utility.yul\":41857:41882   */\n      swap3\n      pop\n        /* \"#utility.yul\":42016:42017   */\n      dup3\n        /* \"#utility.yul\":41948:42014   */\n      0xffffffffffffffffffffffffffffffffffffffffffffffffffffffffffffffff\n        /* \"#utility.yul\":41944:42018   */\n      sub\n        /* \"#utility.yul\":41941:41942   */\n      dup3\n        /* \"#utility.yul\":41938:42019   */\n      gt\n        /* \"#utility.yul\":41935:42042   */\n      iszero\n      tag_799\n      jumpi\n        /* \"#utility.yul\":42022:42040   */\n      tag_800\n      tag_795\n      jump\t// in\n    tag_800:\n        /* \"#utility.yul\":41935:42042   */\n    tag_799:\n        /* \"#utility.yul\":42066:42067   */\n      dup3\n        /* \"#utility.yul\":42063:42064   */\n      dup3\n        /* \"#utility.yul\":42059:42068   */\n      add\n        /* \"#utility.yul\":42052:42068   */\n      swap1\n      pop\n        /* \"#utility.yul\":41769:42074   */\n      swap3\n      swap2\n      pop\n      pop\n      jump\t// out\n        /* \"#utility.yul\":42080:42428   */\n    tag_139:\n        /* \"#utility.yul\":42120:42127   */\n      0x00\n        /* \"#utility.yul\":42143:42163   */\n      tag_802\n        /* \"#utility.yul\":42161:42162   */\n      dup3\n        /* \"#utility.yul\":42143:42163   */\n      tag_650\n      jump\t// in\n    tag_802:\n        /* \"#utility.yul\":42138:42163   */\n      swap2\n      pop\n        /* \"#utility.yul\":42177:42197   */\n      tag_803\n        /* \"#utility.yul\":42195:42196   */\n      dup4\n        /* \"#utility.yul\":42177:42197   */\n      tag_650\n      jump\t// in\n    tag_803:\n        /* \"#utility.yul\":42172:42197   */\n      swap3\n      pop\n        /* \"#utility.yul\":42365:42366   */\n      dup2\n        /* \"#utility.yul\":42297:42363   */\n      0xffffffffffffffffffffffffffffffffffffffffffffffffffffffffffffffff\n        /* \"#utility.yul\":42293:42367   */\n      div\n        /* \"#utility.yul\":42290:42291   */\n      dup4\n        /* \"#utility.yul\":42287:42368   */\n      gt\n        /* \"#utility.yul\":42282:42283   */\n      dup3\n        /* \"#utility.yul\":42275:42284   */\n      iszero\n        /* \"#utility.yul\":42268:42285   */\n      iszero\n        /* \"#utility.yul\":42264:42369   */\n      and\n        /* \"#utility.yul\":42261:42392   */\n      iszero\n      tag_804\n      jumpi\n        /* \"#utility.yul\":42372:42390   */\n      tag_805\n      tag_795\n      jump\t// in\n    tag_805:\n        /* \"#utility.yul\":42261:42392   */\n    tag_804:\n        /* \"#utility.yul\":42420:42421   */\n      dup3\n        /* \"#utility.yul\":42417:42418   */\n      dup3\n        /* \"#utility.yul\":42413:42422   */\n      mul\n        /* \"#utility.yul\":42402:42422   */\n      swap1\n      pop\n        /* \"#utility.yul\":42080:42428   */\n      swap3\n      swap2\n      pop\n      pop\n      jump\t// out\n        /* \"#utility.yul\":42434:42625   */\n    tag_297:\n        /* \"#utility.yul\":42474:42478   */\n      0x00\n        /* \"#utility.yul\":42494:42514   */\n      tag_807\n        /* \"#utility.yul\":42512:42513   */\n      dup3\n        /* \"#utility.yul\":42494:42514   */\n      tag_650\n      jump\t// in\n    tag_807:\n        /* \"#utility.yul\":42489:42514   */\n      swap2\n      pop\n        /* \"#utility.yul\":42528:42548   */\n      tag_808\n        /* \"#utility.yul\":42546:42547   */\n      dup4\n        /* \"#utility.yul\":42528:42548   */\n      tag_650\n      jump\t// in\n    tag_808:\n        /* \"#utility.yul\":42523:42548   */\n      swap3\n      pop\n        /* \"#utility.yul\":42567:42568   */\n      dup3\n        /* \"#utility.yul\":42564:42565   */\n      dup3\n        /* \"#utility.yul\":42561:42569   */\n      lt\n        /* \"#utility.yul\":42558:42592   */\n      iszero\n      tag_809\n      jumpi\n        /* \"#utility.yul\":42572:42590   */\n      tag_810\n      tag_795\n      jump\t// in\n    tag_810:\n        /* \"#utility.yul\":42558:42592   */\n    tag_809:\n        /* \"#utility.yul\":42617:42618   */\n      dup3\n        /* \"#utility.yul\":42614:42615   */\n      dup3\n        /* \"#utility.yul\":42610:42619   */\n      sub\n        /* \"#utility.yul\":42602:42619   */\n      swap1\n      pop\n        /* \"#utility.yul\":42434:42625   */\n      swap3\n      swap2\n      pop\n      pop\n      jump\t// out\n        /* \"#utility.yul\":42631:42727   */\n    tag_466:\n        /* \"#utility.yul\":42668:42675   */\n      0x00\n        /* \"#utility.yul\":42697:42721   */\n      tag_812\n        /* \"#utility.yul\":42715:42720   */\n      dup3\n        /* \"#utility.yul\":42697:42721   */\n      tag_813\n      jump\t// in\n    tag_812:\n        /* \"#utility.yul\":42686:42721   */\n      swap1\n      pop\n        /* \"#utility.yul\":42631:42727   */\n      swap2\n      swap1\n      pop\n      jump\t// out\n        /* \"#utility.yul\":42733:42823   */\n    tag_501:\n        /* \"#utility.yul\":42767:42774   */\n      0x00\n        /* \"#utility.yul\":42810:42815   */\n      dup2\n        /* \"#utility.yul\":42803:42816   */\n      iszero\n        /* \"#utility.yul\":42796:42817   */\n      iszero\n        /* \"#utility.yul\":42785:42817   */\n      swap1\n      pop\n        /* \"#utility.yul\":42733:42823   */\n      swap2\n      swap1\n      pop\n      jump\t// out\n        /* \"#utility.yul\":42829:42947   */\n    tag_642:\n        /* \"#utility.yul\":42866:42873   */\n      0x00\n        /* \"#utility.yul\":42906:42940   */\n      0xffffffffffffffffffffffffffffffff\n        /* \"#utility.yul\":42899:42904   */\n      dup3\n        /* \"#utility.yul\":42895:42941   */\n      and\n        /* \"#utility.yul\":42884:42941   */\n      swap1\n      pop\n        /* \"#utility.yul\":42829:42947   */\n      swap2\n      swap1\n      pop\n      jump\t// out\n        /* \"#utility.yul\":42953:43042   */\n    tag_646:\n        /* \"#utility.yul\":42989:42996   */\n      0x00\n        /* \"#utility.yul\":43029:43035   */\n      0xffff\n        /* \"#utility.yul\":43022:43027   */\n      dup3\n        /* \"#utility.yul\":43018:43036   */\n      and\n        /* \"#utility.yul\":43007:43036   */\n      swap1\n      pop\n        /* \"#utility.yul\":42953:43042   */\n      swap2\n      swap1\n      pop\n      jump\t// out\n        /* \"#utility.yul\":43048:43174   */\n    tag_813:\n        /* \"#utility.yul\":43085:43092   */\n      0x00\n        /* \"#utility.yul\":43125:43167   */\n      0xffffffffffffffffffffffffffffffffffffffff\n        /* \"#utility.yul\":43118:43123   */\n      dup3\n        /* \"#utility.yul\":43114:43168   */\n      and\n        /* \"#utility.yul\":43103:43168   */\n      swap1\n      pop\n        /* \"#utility.yul\":43048:43174   */\n      swap2\n      swap1\n      pop\n      jump\t// out\n        /* \"#utility.yul\":43180:43257   */\n    tag_650:\n        /* \"#utility.yul\":43217:43224   */\n      0x00\n        /* \"#utility.yul\":43246:43251   */\n      dup2\n        /* \"#utility.yul\":43235:43251   */\n      swap1\n      pop\n        /* \"#utility.yul\":43180:43257   */\n      swap2\n      swap1\n      pop\n      jump\t// out\n        /* \"#utility.yul\":43263:43349   */\n    tag_654:\n        /* \"#utility.yul\":43298:43305   */\n      0x00\n        /* \"#utility.yul\":43338:43342   */\n      0xff\n        /* \"#utility.yul\":43331:43336   */\n      dup3\n        /* \"#utility.yul\":43327:43343   */\n      and\n        /* \"#utility.yul\":43316:43343   */\n      swap1\n      pop\n        /* \"#utility.yul\":43263:43349   */\n      swap2\n      swap1\n      pop\n      jump\t// out\n        /* \"#utility.yul\":43355:43509   */\n    tag_374:\n        /* \"#utility.yul\":43439:43445   */\n      dup3\n        /* \"#utility.yul\":43434:43437   */\n      dup2\n        /* \"#utility.yul\":43429:43432   */\n      dup4\n        /* \"#utility.yul\":43416:43446   */\n      calldatacopy\n        /* \"#utility.yul\":43501:43502   */\n      0x00\n        /* \"#utility.yul\":43492:43498   */\n      dup4\n        /* \"#utility.yul\":43487:43490   */\n      dup4\n        /* \"#utility.yul\":43483:43499   */\n      add\n        /* \"#utility.yul\":43476:43503   */\n      mstore\n        /* \"#utility.yul\":43355:43509   */\n      pop\n      pop\n      pop\n      jump\t// out\n        /* \"#utility.yul\":43515:43822   */\n    tag_520:\n        /* \"#utility.yul\":43583:43584   */\n      0x00\n        /* \"#utility.yul\":43593:43706   */\n    tag_822:\n        /* \"#utility.yul\":43607:43613   */\n      dup4\n        /* \"#utility.yul\":43604:43605   */\n      dup2\n        /* \"#utility.yul\":43601:43614   */\n      lt\n        /* \"#utility.yul\":43593:43706   */\n      iszero\n      tag_824\n      jumpi\n        /* \"#utility.yul\":43692:43693   */\n      dup1\n        /* \"#utility.yul\":43687:43690   */\n      dup3\n        /* \"#utility.yul\":43683:43694   */\n      add\n        /* \"#utility.yul\":43677:43695   */\n      mload\n        /* \"#utility.yul\":43673:43674   */\n      dup2\n        /* \"#utility.yul\":43668:43671   */\n      dup5\n        /* \"#utility.yul\":43664:43675   */\n      add\n        /* \"#utility.yul\":43657:43696   */\n      mstore\n        /* \"#utility.yul\":43629:43631   */\n      0x20\n        /* \"#utility.yul\":43626:43627   */\n      dup2\n        /* \"#utility.yul\":43622:43632   */\n      add\n        /* \"#utility.yul\":43617:43632   */\n      swap1\n      pop\n        /* \"#utility.yul\":43593:43706   */\n      jump(tag_822)\n    tag_824:\n        /* \"#utility.yul\":43724:43730   */\n      dup4\n        /* \"#utility.yul\":43721:43722   */\n      dup2\n        /* \"#utility.yul\":43718:43731   */\n      gt\n        /* \"#utility.yul\":43715:43816   */\n      iszero\n      tag_825\n      jumpi\n        /* \"#utility.yul\":43804:43805   */\n      0x00\n        /* \"#utility.yul\":43795:43801   */\n      dup5\n        /* \"#utility.yul\":43790:43793   */\n      dup5\n        /* \"#utility.yul\":43786:43802   */\n      add\n        /* \"#utility.yul\":43779:43806   */\n      mstore\n        /* \"#utility.yul\":43715:43816   */\n    tag_825:\n        /* \"#utility.yul\":43564:43822   */\n      pop\n        /* \"#utility.yul\":43515:43822   */\n      pop\n      pop\n      pop\n      jump\t// out\n        /* \"#utility.yul\":43828:44148   */\n    tag_66:\n        /* \"#utility.yul\":43872:43878   */\n      0x00\n        /* \"#utility.yul\":43909:43910   */\n      0x02\n        /* \"#utility.yul\":43903:43907   */\n      dup3\n        /* \"#utility.yul\":43899:43911   */\n      div\n        /* \"#utility.yul\":43889:43911   */\n      swap1\n      pop\n        /* \"#utility.yul\":43956:43957   */\n      0x01\n        /* \"#utility.yul\":43950:43954   */\n      dup3\n        /* \"#utility.yul\":43946:43958   */\n      and\n        /* \"#utility.yul\":43977:43995   */\n      dup1\n        /* \"#utility.yul\":43967:44048   */\n      tag_827\n      jumpi\n        /* \"#utility.yul\":44033:44037   */\n      0x7f\n        /* \"#utility.yul\":44025:44031   */\n      dup3\n        /* \"#utility.yul\":44021:44038   */\n      and\n        /* \"#utility.yul\":44011:44038   */\n      swap2\n      pop\n        /* \"#utility.yul\":43967:44048   */\n    tag_827:\n        /* \"#utility.yul\":44095:44097   */\n      0x20\n        /* \"#utility.yul\":44087:44093   */\n      dup3\n        /* \"#utility.yul\":44084:44098   */\n      lt\n        /* \"#utility.yul\":44064:44082   */\n      dup2\n        /* \"#utility.yul\":44061:44099   */\n      eq\n        /* \"#utility.yul\":44058:44142   */\n      iszero\n      tag_828\n      jumpi\n        /* \"#utility.yul\":44114:44132   */\n      tag_829\n      tag_830\n      jump\t// in\n    tag_829:\n        /* \"#utility.yul\":44058:44142   */\n    tag_828:\n        /* \"#utility.yul\":43879:44148   */\n      pop\n        /* \"#utility.yul\":43828:44148   */\n      swap2\n      swap1\n      pop\n      jump\t// out\n        /* \"#utility.yul\":44154:44435   */\n    tag_752:\n        /* \"#utility.yul\":44237:44264   */\n      tag_832\n        /* \"#utility.yul\":44259:44263   */\n      dup3\n        /* \"#utility.yul\":44237:44264   */\n      tag_507\n      jump\t// in\n    tag_832:\n        /* \"#utility.yul\":44229:44235   */\n      dup2\n        /* \"#utility.yul\":44225:44265   */\n      add\n        /* \"#utility.yul\":44367:44373   */\n      dup2\n        /* \"#utility.yul\":44355:44365   */\n      dup2\n        /* \"#utility.yul\":44352:44374   */\n      lt\n        /* \"#utility.yul\":44331:44349   */\n      0xffffffffffffffff\n        /* \"#utility.yul\":44319:44329   */\n      dup3\n        /* \"#utility.yul\":44316:44350   */\n      gt\n        /* \"#utility.yul\":44313:44375   */\n      or\n        /* \"#utility.yul\":44310:44398   */\n      iszero\n      tag_833\n      jumpi\n        /* \"#utility.yul\":44378:44396   */\n      tag_834\n      tag_757\n      jump\t// in\n    tag_834:\n        /* \"#utility.yul\":44310:44398   */\n    tag_833:\n        /* \"#utility.yul\":44418:44428   */\n      dup1\n        /* \"#utility.yul\":44414:44416   */\n      0x40\n        /* \"#utility.yul\":44407:44429   */\n      mstore\n        /* \"#utility.yul\":44197:44435   */\n      pop\n        /* \"#utility.yul\":44154:44435   */\n      pop\n      pop\n      jump\t// out\n        /* \"#utility.yul\":44441:44642   */\n    tag_210:\n        /* \"#utility.yul\":44480:44483   */\n      0x00\n        /* \"#utility.yul\":44503:44527   */\n      tag_836\n        /* \"#utility.yul\":44521:44526   */\n      dup3\n        /* \"#utility.yul\":44503:44527   */\n      tag_642\n      jump\t// in\n    tag_836:\n        /* \"#utility.yul\":44494:44527   */\n      swap2\n      pop\n        /* \"#utility.yul\":44549:44583   */\n      0xffffffffffffffffffffffffffffffff\n        /* \"#utility.yul\":44542:44547   */\n      dup3\n        /* \"#utility.yul\":44539:44584   */\n      eq\n        /* \"#utility.yul\":44536:44607   */\n      iszero\n      tag_837\n      jumpi\n        /* \"#utility.yul\":44587:44605   */\n      tag_838\n      tag_795\n      jump\t// in\n    tag_838:\n        /* \"#utility.yul\":44536:44607   */\n    tag_837:\n        /* \"#utility.yul\":44634:44635   */\n      0x01\n        /* \"#utility.yul\":44627:44632   */\n      dup3\n        /* \"#utility.yul\":44623:44636   */\n      add\n        /* \"#utility.yul\":44616:44636   */\n      swap1\n      pop\n        /* \"#utility.yul\":44441:44642   */\n      swap2\n      swap1\n      pop\n      jump\t// out\n        /* \"#utility.yul\":44648:44819   */\n    tag_238:\n        /* \"#utility.yul\":44686:44689   */\n      0x00\n        /* \"#utility.yul\":44709:44732   */\n      tag_840\n        /* \"#utility.yul\":44726:44731   */\n      dup3\n        /* \"#utility.yul\":44709:44732   */\n      tag_646\n      jump\t// in\n    tag_840:\n        /* \"#utility.yul\":44700:44732   */\n      swap2\n      pop\n        /* \"#utility.yul\":44754:44760   */\n      0xffff\n        /* \"#utility.yul\":44747:44752   */\n      dup3\n        /* \"#utility.yul\":44744:44761   */\n      eq\n        /* \"#utility.yul\":44741:44784   */\n      iszero\n      tag_841\n      jumpi\n        /* \"#utility.yul\":44764:44782   */\n      tag_842\n      tag_795\n      jump\t// in\n    tag_842:\n        /* \"#utility.yul\":44741:44784   */\n    tag_841:\n        /* \"#utility.yul\":44811:44812   */\n      0x01\n        /* \"#utility.yul\":44804:44809   */\n      dup3\n        /* \"#utility.yul\":44800:44813   */\n      add\n        /* \"#utility.yul\":44793:44813   */\n      swap1\n      pop\n        /* \"#utility.yul\":44648:44819   */\n      swap2\n      swap1\n      pop\n      jump\t// out\n        /* \"#utility.yul\":44825:45058   */\n    tag_90:\n        /* \"#utility.yul\":44864:44867   */\n      0x00\n        /* \"#utility.yul\":44887:44911   */\n      tag_844\n        /* \"#utility.yul\":44905:44910   */\n      dup3\n        /* \"#utility.yul\":44887:44911   */\n      tag_650\n      jump\t// in\n    tag_844:\n        /* \"#utility.yul\":44878:44911   */\n      swap2\n      pop\n        /* \"#utility.yul\":44933:44999   */\n      0xffffffffffffffffffffffffffffffffffffffffffffffffffffffffffffffff\n        /* \"#utility.yul\":44926:44931   */\n      dup3\n        /* \"#utility.yul\":44923:45000   */\n      eq\n        /* \"#utility.yul\":44920:45023   */\n      iszero\n      tag_845\n      jumpi\n        /* \"#utility.yul\":45003:45021   */\n      tag_846\n      tag_795\n      jump\t// in\n    tag_846:\n        /* \"#utility.yul\":44920:45023   */\n    tag_845:\n        /* \"#utility.yul\":45050:45051   */\n      0x01\n        /* \"#utility.yul\":45043:45048   */\n      dup3\n        /* \"#utility.yul\":45039:45052   */\n      add\n        /* \"#utility.yul\":45032:45052   */\n      swap1\n      pop\n        /* \"#utility.yul\":44825:45058   */\n      swap2\n      swap1\n      pop\n      jump\t// out\n        /* \"#utility.yul\":45064:45244   */\n    tag_795:\n        /* \"#utility.yul\":45112:45189   */\n      0x4e487b7100000000000000000000000000000000000000000000000000000000\n        /* \"#utility.yul\":45109:45110   */\n      0x00\n        /* \"#utility.yul\":45102:45190   */\n      mstore\n        /* \"#utility.yul\":45209:45213   */\n      0x11\n        /* \"#utility.yul\":45206:45207   */\n      0x04\n        /* \"#utility.yul\":45199:45214   */\n      mstore\n        /* \"#utility.yul\":45233:45237   */\n      0x24\n        /* \"#utility.yul\":45230:45231   */\n      0x00\n        /* \"#utility.yul\":45223:45238   */\n      revert\n        /* \"#utility.yul\":45250:45430   */\n    tag_830:\n        /* \"#utility.yul\":45298:45375   */\n      0x4e487b7100000000000000000000000000000000000000000000000000000000\n        /* \"#utility.yul\":45295:45296   */\n      0x00\n        /* \"#utility.yul\":45288:45376   */\n      mstore\n        /* \"#utility.yul\":45395:45399   */\n      0x22\n        /* \"#utility.yul\":45392:45393   */\n      0x04\n        /* \"#utility.yul\":45385:45400   */\n      mstore\n        /* \"#utility.yul\":45419:45423   */\n      0x24\n        /* \"#utility.yul\":45416:45417   */\n      0x00\n        /* \"#utility.yul\":45409:45424   */\n      revert\n        /* \"#utility.yul\":45436:45616   */\n    tag_101:\n        /* \"#utility.yul\":45484:45561   */\n      0x4e487b7100000000000000000000000000000000000000000000000000000000\n        /* \"#utility.yul\":45481:45482   */\n      0x00\n        /* \"#utility.yul\":45474:45562   */\n      mstore\n        /* \"#utility.yul\":45581:45585   */\n      0x32\n        /* \"#utility.yul\":45578:45579   */\n      0x04\n        /* \"#utility.yul\":45571:45586   */\n      mstore\n        /* \"#utility.yul\":45605:45609   */\n      0x24\n        /* \"#utility.yul\":45602:45603   */\n      0x00\n        /* \"#utility.yul\":45595:45610   */\n      revert\n        /* \"#utility.yul\":45622:45802   */\n    tag_757:\n        /* \"#utility.yul\":45670:45747   */\n      0x4e487b7100000000000000000000000000000000000000000000000000000000\n        /* \"#utility.yul\":45667:45668   */\n      0x00\n        /* \"#utility.yul\":45660:45748   */\n      mstore\n        /* \"#utility.yul\":45767:45771   */\n      0x41\n        /* \"#utility.yul\":45764:45765   */\n      0x04\n        /* \"#utility.yul\":45757:45772   */\n      mstore\n        /* \"#utility.yul\":45791:45795   */\n      0x24\n        /* \"#utility.yul\":45788:45789   */\n      0x00\n        /* \"#utility.yul\":45781:45796   */\n      revert\n        /* \"#utility.yul\":45808:45925   */\n    tag_786:\n        /* \"#utility.yul\":45917:45918   */\n      0x00\n        /* \"#utility.yul\":45914:45915   */\n      dup1\n        /* \"#utility.yul\":45907:45919   */\n      revert\n        /* \"#utility.yul\":45931:46048   */\n    tag_389:\n        /* \"#utility.yul\":46040:46041   */\n      0x00\n        /* \"#utility.yul\":46037:46038   */\n      dup1\n        /* \"#utility.yul\":46030:46042   */\n      revert\n        /* \"#utility.yul\":46054:46171   */\n    tag_350:\n        /* \"#utility.yul\":46163:46164   */\n      0x00\n        /* \"#utility.yul\":46160:46161   */\n      dup1\n        /* \"#utility.yul\":46153:46165   */\n      revert\n        /* \"#utility.yul\":46177:46294   */\n    tag_744:\n        /* \"#utility.yul\":46286:46287   */\n      0x00\n        /* \"#utility.yul\":46283:46284   */\n      dup1\n        /* \"#utility.yul\":46276:46288   */\n      revert\n        /* \"#utility.yul\":46300:46417   */\n    tag_741:\n        /* \"#utility.yul\":46409:46410   */\n      0x00\n        /* \"#utility.yul\":46406:46407   */\n      dup1\n        /* \"#utility.yul\":46399:46411   */\n      revert\n        /* \"#utility.yul\":46423:46540   */\n    tag_789:\n        /* \"#utility.yul\":46532:46533   */\n      0x00\n        /* \"#utility.yul\":46529:46530   */\n      dup1\n        /* \"#utility.yul\":46522:46534   */\n      revert\n        /* \"#utility.yul\":46546:46663   */\n    tag_332:\n        /* \"#utility.yul\":46655:46656   */\n      0x00\n        /* \"#utility.yul\":46652:46653   */\n      dup1\n        /* \"#utility.yul\":46645:46657   */\n      revert\n        /* \"#utility.yul\":46669:46786   */\n    tag_747:\n        /* \"#utility.yul\":46778:46779   */\n      0x00\n        /* \"#utility.yul\":46775:46776   */\n      dup1\n        /* \"#utility.yul\":46768:46780   */\n      revert\n        /* \"#utility.yul\":46792:46909   */\n    tag_372:\n        /* \"#utility.yul\":46901:46902   */\n      0x00\n        /* \"#utility.yul\":46898:46899   */\n      dup1\n        /* \"#utility.yul\":46891:46903   */\n      revert\n        /* \"#utility.yul\":46915:47032   */\n    tag_434:\n        /* \"#utility.yul\":47024:47025   */\n      0x00\n        /* \"#utility.yul\":47021:47022   */\n      dup1\n        /* \"#utility.yul\":47014:47026   */\n      revert\n        /* \"#utility.yul\":47038:47155   */\n    tag_783:\n        /* \"#utility.yul\":47147:47148   */\n      0x00\n        /* \"#utility.yul\":47144:47145   */\n      dup1\n        /* \"#utility.yul\":47137:47149   */\n      revert\n        /* \"#utility.yul\":47161:47278   */\n    tag_416:\n        /* \"#utility.yul\":47270:47271   */\n      0x00\n        /* \"#utility.yul\":47267:47268   */\n      dup1\n        /* \"#utility.yul\":47260:47272   */\n      revert\n        /* \"#utility.yul\":47284:47386   */\n    tag_507:\n        /* \"#utility.yul\":47325:47331   */\n      0x00\n        /* \"#utility.yul\":47376:47378   */\n      0x1f\n        /* \"#utility.yul\":47372:47379   */\n      not\n        /* \"#utility.yul\":47367:47369   */\n      0x1f\n        /* \"#utility.yul\":47360:47365   */\n      dup4\n        /* \"#utility.yul\":47356:47370   */\n      add\n        /* \"#utility.yul\":47352:47380   */\n      and\n        /* \"#utility.yul\":47342:47380   */\n      swap1\n      pop\n        /* \"#utility.yul\":47284:47386   */\n      swap2\n      swap1\n      pop\n      jump\t// out\n        /* \"#utility.yul\":47392:47560   */\n    tag_543:\n        /* \"#utility.yul\":47532:47552   */\n      0x50726f706f73616c3a20696e6163746976650000000000000000000000000000\n        /* \"#utility.yul\":47528:47529   */\n      0x00\n        /* \"#utility.yul\":47520:47526   */\n      dup3\n        /* \"#utility.yul\":47516:47530   */\n      add\n        /* \"#utility.yul\":47509:47553   */\n      mstore\n        /* \"#utility.yul\":47392:47560   */\n      pop\n      jump\t// out\n        /* \"#utility.yul\":47566:47797   */\n    tag_548:\n        /* \"#utility.yul\":47706:47740   */\n      0x456e642074696d652073686f756c642062652067726561746572207468616e20\n        /* \"#utility.yul\":47702:47703   */\n      0x00\n        /* \"#utility.yul\":47694:47700   */\n      dup3\n        /* \"#utility.yul\":47690:47704   */\n      add\n        /* \"#utility.yul\":47683:47741   */\n      mstore\n        /* \"#utility.yul\":47775:47789   */\n      0x63757272656e742074696d650000000000000000000000000000000000000000\n        /* \"#utility.yul\":47770:47772   */\n      0x20\n        /* \"#utility.yul\":47762:47768   */\n      dup3\n        /* \"#utility.yul\":47758:47773   */\n      add\n        /* \"#utility.yul\":47751:47790   */\n      mstore\n        /* \"#utility.yul\":47566:47797   */\n      pop\n      jump\t// out\n        /* \"#utility.yul\":47803:48024   */\n    tag_553:\n        /* \"#utility.yul\":47943:47977   */\n      0x45524332303a206275726e20616d6f756e7420657863656564732062616c616e\n        /* \"#utility.yul\":47939:47940   */\n      0x00\n        /* \"#utility.yul\":47931:47937   */\n      dup3\n        /* \"#utility.yul\":47927:47941   */\n      add\n        /* \"#utility.yul\":47920:47978   */\n      mstore\n        /* \"#utility.yul\":48012:48016   */\n      0x6365000000000000000000000000000000000000000000000000000000000000\n        /* \"#utility.yul\":48007:48009   */\n      0x20\n        /* \"#utility.yul\":47999:48005   */\n      dup3\n        /* \"#utility.yul\":47995:48010   */\n      add\n        /* \"#utility.yul\":47988:48017   */\n      mstore\n        /* \"#utility.yul\":47803:48024   */\n      pop\n      jump\t// out\n        /* \"#utility.yul\":48030:48193   */\n    tag_558:\n        /* \"#utility.yul\":48170:48185   */\n      0x616c726561647920766f74656400000000000000000000000000000000000000\n        /* \"#utility.yul\":48166:48167   */\n      0x00\n        /* \"#utility.yul\":48158:48164   */\n      dup3\n        /* \"#utility.yul\":48154:48168   */\n      add\n        /* \"#utility.yul\":48147:48186   */\n      mstore\n        /* \"#utility.yul\":48030:48193   */\n      pop\n      jump\t// out\n        /* \"#utility.yul\":48199:48376   */\n    tag_563:\n        /* \"#utility.yul\":48339:48368   */\n      0x50726f706f73616c3a20696e76616c69642063616e6469646174650000000000\n        /* \"#utility.yul\":48335:48336   */\n      0x00\n        /* \"#utility.yul\":48327:48333   */\n      dup3\n        /* \"#utility.yul\":48323:48337   */\n      add\n        /* \"#utility.yul\":48316:48369   */\n      mstore\n        /* \"#utility.yul\":48199:48376   */\n      pop\n      jump\t// out\n        /* \"#utility.yul\":48382:48552   */\n    tag_568:\n        /* \"#utility.yul\":48522:48544   */\n      0x6e6f7420612076616c69642070726f706f73616c000000000000000000000000\n        /* \"#utility.yul\":48518:48519   */\n      0x00\n        /* \"#utility.yul\":48510:48516   */\n      dup3\n        /* \"#utility.yul\":48506:48520   */\n      add\n        /* \"#utility.yul\":48499:48545   */\n      mstore\n        /* \"#utility.yul\":48382:48552   */\n      pop\n      jump\t// out\n        /* \"#utility.yul\":48558:48780   */\n    tag_573:\n        /* \"#utility.yul\":48698:48732   */\n      0x6e6f7420612076616c696420766f74657220666f7220746869732070726f706f\n        /* \"#utility.yul\":48694:48695   */\n      0x00\n        /* \"#utility.yul\":48686:48692   */\n      dup3\n        /* \"#utility.yul\":48682:48696   */\n      add\n        /* \"#utility.yul\":48675:48733   */\n      mstore\n        /* \"#utility.yul\":48767:48772   */\n      0x73616c0000000000000000000000000000000000000000000000000000000000\n        /* \"#utility.yul\":48762:48764   */\n      0x20\n        /* \"#utility.yul\":48754:48760   */\n      dup3\n        /* \"#utility.yul\":48750:48765   */\n      add\n        /* \"#utility.yul\":48743:48773   */\n      mstore\n        /* \"#utility.yul\":48558:48780   */\n      pop\n      jump\t// out\n        /* \"#utility.yul\":48786:48960   */\n    tag_578:\n        /* \"#utility.yul\":48926:48952   */\n      0x70726f706f73616c206e6f742073746172746564207965740000000000000000\n        /* \"#utility.yul\":48922:48923   */\n      0x00\n        /* \"#utility.yul\":48914:48920   */\n      dup3\n        /* \"#utility.yul\":48910:48924   */\n      add\n        /* \"#utility.yul\":48903:48953   */\n      mstore\n        /* \"#utility.yul\":48786:48960   */\n      pop\n      jump\t// out\n        /* \"#utility.yul\":48966:49136   */\n    tag_583:\n        /* \"#utility.yul\":49106:49128   */\n      0x70726f706f73616c206e6f742073746172746564000000000000000000000000\n        /* \"#utility.yul\":49102:49103   */\n      0x00\n        /* \"#utility.yul\":49094:49100   */\n      dup3\n        /* \"#utility.yul\":49090:49104   */\n      add\n        /* \"#utility.yul\":49083:49129   */\n      mstore\n        /* \"#utility.yul\":48966:49136   */\n      pop\n      jump\t// out\n        /* \"#utility.yul\":49142:49364   */\n    tag_588:\n        /* \"#utility.yul\":49282:49316   */\n      0x4e6f7420612076616c696420766f74657220666f7220746869732070726f706f\n        /* \"#utility.yul\":49278:49279   */\n      0x00\n        /* \"#utility.yul\":49270:49276   */\n      dup3\n        /* \"#utility.yul\":49266:49280   */\n      add\n        /* \"#utility.yul\":49259:49317   */\n      mstore\n        /* \"#utility.yul\":49351:49356   */\n      0x73616c0000000000000000000000000000000000000000000000000000000000\n        /* \"#utility.yul\":49346:49348   */\n      0x20\n        /* \"#utility.yul\":49338:49344   */\n      dup3\n        /* \"#utility.yul\":49334:49349   */\n      add\n        /* \"#utility.yul\":49327:49357   */\n      mstore\n        /* \"#utility.yul\":49142:49364   */\n      pop\n      jump\t// out\n        /* \"#utility.yul\":49370:49538   */\n    tag_593:\n        /* \"#utility.yul\":49510:49530   */\n      0x696e76616c69642070726f706f73616c49640000000000000000000000000000\n        /* \"#utility.yul\":49506:49507   */\n      0x00\n        /* \"#utility.yul\":49498:49504   */\n      dup3\n        /* \"#utility.yul\":49494:49508   */\n      add\n        /* \"#utility.yul\":49487:49531   */\n      mstore\n        /* \"#utility.yul\":49370:49538   */\n      pop\n      jump\t// out\n        /* \"#utility.yul\":49544:49766   */\n    tag_598:\n        /* \"#utility.yul\":49684:49718   */\n      0x6e6f742073756666696369656e742062616c616e636520746f20636173742076\n        /* \"#utility.yul\":49680:49681   */\n      0x00\n        /* \"#utility.yul\":49672:49678   */\n      dup3\n        /* \"#utility.yul\":49668:49682   */\n      add\n        /* \"#utility.yul\":49661:49719   */\n      mstore\n        /* \"#utility.yul\":49753:49758   */\n      0x6f74650000000000000000000000000000000000000000000000000000000000\n        /* \"#utility.yul\":49748:49750   */\n      0x20\n        /* \"#utility.yul\":49740:49746   */\n      dup3\n        /* \"#utility.yul\":49736:49751   */\n      add\n        /* \"#utility.yul\":49729:49759   */\n      mstore\n        /* \"#utility.yul\":49544:49766   */\n      pop\n      jump\t// out\n        /* \"#utility.yul\":49772:50001   */\n    tag_603:\n        /* \"#utility.yul\":49912:49946   */\n      0x456e642074696d652073686f756c642062652067726561746572207468616e20\n        /* \"#utility.yul\":49908:49909   */\n      0x00\n        /* \"#utility.yul\":49900:49906   */\n      dup3\n        /* \"#utility.yul\":49896:49910   */\n      add\n        /* \"#utility.yul\":49889:49947   */\n      mstore\n        /* \"#utility.yul\":49981:49993   */\n      0x73746172742074696d6500000000000000000000000000000000000000000000\n        /* \"#utility.yul\":49976:49978   */\n      0x20\n        /* \"#utility.yul\":49968:49974   */\n      dup3\n        /* \"#utility.yul\":49964:49979   */\n      add\n        /* \"#utility.yul\":49957:49994   */\n      mstore\n        /* \"#utility.yul\":49772:50001   */\n      pop\n      jump\t// out\n        /* \"#utility.yul\":50007:50227   */\n    tag_608:\n        /* \"#utility.yul\":50147:50181   */\n      0x45524332303a206275726e2066726f6d20746865207a65726f20616464726573\n        /* \"#utility.yul\":50143:50144   */\n      0x00\n        /* \"#utility.yul\":50135:50141   */\n      dup3\n        /* \"#utility.yul\":50131:50145   */\n      add\n        /* \"#utility.yul\":50124:50182   */\n      mstore\n        /* \"#utility.yul\":50216:50219   */\n      0x7300000000000000000000000000000000000000000000000000000000000000\n        /* \"#utility.yul\":50211:50213   */\n      0x20\n        /* \"#utility.yul\":50203:50209   */\n      dup3\n        /* \"#utility.yul\":50199:50214   */\n      add\n        /* \"#utility.yul\":50192:50220   */\n      mstore\n        /* \"#utility.yul\":50007:50227   */\n      pop\n      jump\t// out\n        /* \"#utility.yul\":50233:50456   */\n    tag_613:\n        /* \"#utility.yul\":50373:50407   */\n      0x6e6f7420612076616c6964206c656e677468206f66206861736820726573706f\n        /* \"#utility.yul\":50369:50370   */\n      0x00\n        /* \"#utility.yul\":50361:50367   */\n      dup3\n        /* \"#utility.yul\":50357:50371   */\n      add\n        /* \"#utility.yul\":50350:50408   */\n      mstore\n        /* \"#utility.yul\":50442:50448   */\n      0x6e73652100000000000000000000000000000000000000000000000000000000\n        /* \"#utility.yul\":50437:50439   */\n      0x20\n        /* \"#utility.yul\":50429:50435   */\n      dup3\n        /* \"#utility.yul\":50425:50440   */\n      add\n        /* \"#utility.yul\":50418:50449   */\n      mstore\n        /* \"#utility.yul\":50233:50456   */\n      pop\n      jump\t// out\n        /* \"#utility.yul\":50462:50616   */\n    tag_618:\n        /* \"#utility.yul\":50602:50608   */\n      0x6d696e7400000000000000000000000000000000000000000000000000000000\n        /* \"#utility.yul\":50598:50599   */\n      0x00\n        /* \"#utility.yul\":50590:50596   */\n      dup3\n        /* \"#utility.yul\":50586:50600   */\n      add\n        /* \"#utility.yul\":50579:50609   */\n      mstore\n        /* \"#utility.yul\":50462:50616   */\n      pop\n      jump\t// out\n        /* \"#utility.yul\":50622:50801   */\n    tag_623:\n        /* \"#utility.yul\":50762:50793   */\n      0x496e76616c696420766f74657220666f722070726f706f73616c496421000000\n        /* \"#utility.yul\":50758:50759   */\n      0x00\n        /* \"#utility.yul\":50750:50756   */\n      dup3\n        /* \"#utility.yul\":50746:50760   */\n      add\n        /* \"#utility.yul\":50739:50794   */\n      mstore\n        /* \"#utility.yul\":50622:50801   */\n      pop\n      jump\t// out\n        /* \"#utility.yul\":50807:50961   */\n    tag_628:\n        /* \"#utility.yul\":50947:50953   */\n      0x6275726e00000000000000000000000000000000000000000000000000000000\n        /* \"#utility.yul\":50943:50944   */\n      0x00\n        /* \"#utility.yul\":50935:50941   */\n      dup3\n        /* \"#utility.yul\":50931:50945   */\n      add\n        /* \"#utility.yul\":50924:50954   */\n      mstore\n        /* \"#utility.yul\":50807:50961   */\n      pop\n      jump\t// out\n        /* \"#utility.yul\":50967:51126   */\n    tag_633:\n        /* \"#utility.yul\":51107:51118   */\n      0x6e6f7420766f7465640000000000000000000000000000000000000000000000\n        /* \"#utility.yul\":51103:51104   */\n      0x00\n        /* \"#utility.yul\":51095:51101   */\n      dup3\n        /* \"#utility.yul\":51091:51105   */\n      add\n        /* \"#utility.yul\":51084:51119   */\n      mstore\n        /* \"#utility.yul\":50967:51126   */\n      pop\n      jump\t// out\n        /* \"#utility.yul\":51132:51313   */\n    tag_638:\n        /* \"#utility.yul\":51272:51305   */\n      0x45524332303a206d696e7420746f20746865207a65726f206164647265737300\n        /* \"#utility.yul\":51268:51269   */\n      0x00\n        /* \"#utility.yul\":51260:51266   */\n      dup3\n        /* \"#utility.yul\":51256:51270   */\n      add\n        /* \"#utility.yul\":51249:51306   */\n      mstore\n        /* \"#utility.yul\":51132:51313   */\n      pop\n      jump\t// out\n        /* \"#utility.yul\":51319:51441   */\n    tag_377:\n        /* \"#utility.yul\":51392:51416   */\n      tag_885\n        /* \"#utility.yul\":51410:51415   */\n      dup2\n        /* \"#utility.yul\":51392:51416   */\n      tag_466\n      jump\t// in\n    tag_885:\n        /* \"#utility.yul\":51385:51390   */\n      dup2\n        /* \"#utility.yul\":51382:51417   */\n      eq\n        /* \"#utility.yul\":51372:51435   */\n      tag_886\n      jumpi\n        /* \"#utility.yul\":51431:51432   */\n      0x00\n        /* \"#utility.yul\":51428:51429   */\n      dup1\n        /* \"#utility.yul\":51421:51433   */\n      revert\n        /* \"#utility.yul\":51372:51435   */\n    tag_886:\n        /* \"#utility.yul\":51319:51441   */\n      pop\n      jump\t// out\n        /* \"#utility.yul\":51447:51569   */\n    tag_408:\n        /* \"#utility.yul\":51520:51544   */\n      tag_888\n        /* \"#utility.yul\":51538:51543   */\n      dup2\n        /* \"#utility.yul\":51520:51544   */\n      tag_650\n      jump\t// in\n    tag_888:\n        /* \"#utility.yul\":51513:51518   */\n      dup2\n        /* \"#utility.yul\":51510:51545   */\n      eq\n        /* \"#utility.yul\":51500:51563   */\n      tag_889\n      jumpi\n        /* \"#utility.yul\":51559:51560   */\n      0x00\n        /* \"#utility.yul\":51556:51557   */\n      dup1\n        /* \"#utility.yul\":51549:51561   */\n      revert\n        /* \"#utility.yul\":51500:51563   */\n    tag_889:\n        /* \"#utility.yul\":51447:51569   */\n      pop\n      jump\t// out\n        /* \"#utility.yul\":51575:51693   */\n    tag_412:\n        /* \"#utility.yul\":51646:51668   */\n      tag_891\n        /* \"#utility.yul\":51662:51667   */\n      dup2\n        /* \"#utility.yul\":51646:51668   */\n      tag_654\n      jump\t// in\n    tag_891:\n        /* \"#utility.yul\":51639:51644   */\n      dup2\n        /* \"#utility.yul\":51636:51669   */\n      eq\n        /* \"#utility.yul\":51626:51687   */\n      tag_892\n      jumpi\n        /* \"#utility.yul\":51683:51684   */\n      0x00\n        /* \"#utility.yul\":51680:51681   */\n      dup1\n        /* \"#utility.yul\":51673:51685   */\n      revert\n        /* \"#utility.yul\":51626:51687   */\n    tag_892:\n        /* \"#utility.yul\":51575:51693   */\n      pop\n      jump\t// out\n\n    auxdata: 0xa2646970667358221220391ef4a82e929e79d5f5e1ad94e20fa92233121d658cff782a84fdd8c22f90ab64736f6c63430008070033\n}\n",
				"bytecode": {
					"linkReferences": {},
					"object": "60806040523480156200001157600080fd5b506040518060400160405280600c81526020017f51566f74696e67546f6b656e00000000000000000000000000000000000000008152506040518060400160405280600281526020017f5176000000000000000000000000000000000000000000000000000000000000815250816002908051906020019062000096929190620000f9565b508060039080519060200190620000af929190620000f9565b50505033600460006101000a81548173ffffffffffffffffffffffffffffffffffffffff021916908373ffffffffffffffffffffffffffffffffffffffff1602179055506200020e565b8280546200010790620001a9565b90600052602060002090601f0160209004810192826200012b576000855562000177565b82601f106200014657805160ff191683800117855562000177565b8280016001018555821562000177579182015b828111156200017657825182559160200191906001019062000159565b5b5090506200018691906200018a565b5090565b5b80821115620001a55760008160009055506001016200018b565b5090565b60006002820490506001821680620001c257607f821691505b60208210811415620001d957620001d8620001df565b5b50919050565b7f4e487b7100000000000000000000000000000000000000000000000000000000600052602260045260246000fd5b61398c806200021e6000396000f3fe608060405234801561001057600080fd5b50600436106100a95760003560e01c80635c230eee116100715780635c230eee1461015a57806370a082311461017657806395d89b41146101a65780639d671564146101c4578063ab9c70d4146101f5578063e745d68e14610228576100a9565b8063013cf08b146100ae57806306fdde03146100e457806318160ddd14610102578063313ce567146101205780634de77e481461013e575b600080fd5b6100c860048036038101906100c3919061223c565b610259565b6040516100db97969594939291906129bf565b60405180910390f35b6100ec61035e565b6040516100f99190612a35565b60405180910390f35b61010a6103f0565b6040516101179190612d38565b60405180910390f35b6101286103fa565b6040516101359190612e4e565b60405180910390f35b61015860048036038101906101539190612308565b610403565b005b610174600480360381019061016f9190612269565b61072d565b005b610190600480360381019061018b91906121cf565b610bf6565b60405161019d9190612d38565b60405180910390f35b6101ae610c3e565b6040516101bb9190612a35565b60405180910390f35b6101de60048036038101906101d9919061223c565b610cd0565b6040516101ec929190612e1e565b60405180910390f35b61020f600480360381019061020a91906121fc565b610e4b565b60405161021f9493929190612d53565b60405180910390f35b610242600480360381019061023d91906121cf565b610eb5565b604051610250929190612d0f565b60405180910390f35b60076020528060005260406000206000915090508060000160009054906101000a900473ffffffffffffffffffffffffffffffffffffffff16908060000160149054906101000a900460ff16908060010180546102b590613294565b80601f01602080910402602001604051908101604052809291908181526020018280546102e190613294565b801561032e5780601f106103035761010080835404028352916020019161032e565b820191906000526020600020905b81548152906001019060200180831161031157829003601f168201915b5050505050908060020154908060030154908060040160009054906101000a900461ffff16908060050154905087565b60606002805461036d90613294565b80601f016020809104026020016040519081016040528092919081815260200182805461039990613294565b80156103e65780601f106103bb576101008083540402835291602001916103e6565b820191906000526020600020905b8154815290600101906020018083116103c957829003601f168201915b5050505050905090565b6000600154905090565b60006012905090565b854210610445576040517f08c379a000000000000000000000000000000000000000000000000000000000815260040161043c90612b57565b60405180910390fd5b844210610487576040517f08c379a000000000000000000000000000000000000000000000000000000000815260040161047e90612a77565b60405180910390fd5b8486106104c9576040517f08c379a00000000000000000000000000000000000000000000000000000000081526004016104c090612bd7565b60405180910390fd5b600560008154809291906104dc9061335b565b9190505550610518898989898989878a8a600760006005548152602001908152602001600020610f11909998979695949392919063ffffffff16565b507f239a8a71a7d1cb0d134f6cc072ad6390e36a88c8e78dff69013ee79528441e8060055489898989898989604051610558989796959493929190612d98565b60405180910390a1600160096000600554815260200190815260200160002060006101000a81548160ff02191690831515021790555060005b88518110156106c6576105be8982815181106105b0576105af613402565b5b602002602001015183611143565b61065f6005548a83815181106105d7576105d6613402565b5b6020026020010151600085600860008f88815181106105f9576105f8613402565b5b602002602001015173ffffffffffffffffffffffffffffffffffffffff1673ffffffffffffffffffffffffffffffffffffffff168152602001908152602001600020600060055481526020019081526020016000206111b490949392919063ffffffff16565b507fabf5327be9f5825c40d58bda541dd07f09b62df3376bbd5ecdbaa8bd82a9d49289828151811061069457610693613402565b5b6020026020010151836040516106ab929190612c37565b60405180910390a180806106be9061335b565b915050610591565b50610721600554600660006106d9611234565b73ffffffffffffffffffffffffffffffffffffffff1673ffffffffffffffffffffffffffffffffffffffff16815260200190815260200160002061123c90919063ffffffff16565b50505050505050505050565b6009600085815260200190815260200160002060009054906101000a900460ff1661078d576040517f08c379a000000000000000000000000000000000000000000000000000000000815260040161078490612b97565b60405180910390fd5b83600860008573ffffffffffffffffffffffffffffffffffffffff1673ffffffffffffffffffffffffffffffffffffffff16815260200190815260200160002060008681526020019081526020016000206000015414610822576040517f08c379a000000000000000000000000000000000000000000000000000000000815260040161081990612b17565b60405180910390fd5b600860008473ffffffffffffffffffffffffffffffffffffffff1673ffffffffffffffffffffffffffffffffffffffff168152602001908152602001600020600085815260200190815260200160002060010160149054906101000a900460ff16156108c3576040517f08c379a00000000000000000000000000000000000000000000000000000000081526004016108ba90612ab7565b60405180910390fd5b81516007600086815260200190815260200160002060040160009054906101000a900461ffff1661ffff161461092e576040517f08c379a000000000000000000000000000000000000000000000000000000000815260040161092590612c17565b60405180910390fd5b6000805b825181101561099b5782818151811061094e5761094d613402565b5b602002602001015183828151811061096957610968613402565b5b602002602001015161097b9190613145565b8261098691906130ef565b915080806109939061335b565b915050610932565b5080600860008673ffffffffffffffffffffffffffffffffffffffff1673ffffffffffffffffffffffffffffffffffffffff1681526020019081526020016000206000878152602001908152602001600020600201541015610a32576040517f08c379a0000000000000000000000000000000000000000000000000000000008152600401610a2990612bb7565b60405180910390fd5b610a5b848484600760008a815260200190815260200160002061130d909392919063ffffffff16565b50610ab6858460066000610a6d611234565b73ffffffffffffffffffffffffffffffffffffffff1673ffffffffffffffffffffffffffffffffffffffff1681526020019081526020016000206117c39092919063ffffffff16565b50610b0f600860008673ffffffffffffffffffffffffffffffffffffffff1673ffffffffffffffffffffffffffffffffffffffff1681526020019081526020016000206000878152602001908152602001600020611950565b506001600860008673ffffffffffffffffffffffffffffffffffffffff1673ffffffffffffffffffffffffffffffffffffffff168152602001908152602001600020600087815260200190815260200160002060010160146101000a81548160ff021916908315150217905550610b9e84600760006005548152602001908152602001600020600501546119fe565b7fabf5327be9f5825c40d58bda541dd07f09b62df3376bbd5ecdbaa8bd82a9d4928460076000600554815260200190815260200160002060050154604051610be7929190612c93565b60405180910390a15050505050565b60008060008373ffffffffffffffffffffffffffffffffffffffff1673ffffffffffffffffffffffffffffffffffffffff168152602001908152602001600020549050919050565b606060038054610c4d90613294565b80601f0160208091040260200160405190810160405280929190818152602001828054610c7990613294565b8015610cc65780601f10610c9b57610100808354040283529160200191610cc6565b820191906000526020600020905b815481529060010190602001808311610ca957829003601f168201915b5050505050905090565b600060606009600084815260200190815260200160002060009054906101000a900460ff16610d34576040517f08c379a0000000000000000000000000000000000000000000000000000000008152600401610d2b90612af7565b60405180910390fd5b60076000848152602001908152602001600020600a0160076000858152602001908152602001600020600901600060018152602001908152602001600020604051610d7f91906129a8565b90815260200160405180910390205460076000858152602001908152602001600020600901600060018152602001908152602001600020808054610dc290613294565b80601f0160208091040260200160405190810160405280929190818152602001828054610dee90613294565b8015610e3b5780601f10610e1057610100808354040283529160200191610e3b565b820191906000526020600020905b815481529060010190602001808311610e1e57829003601f168201915b5050505050905091509150915091565b6008602052816000526040600020602052806000526040600020600091509150508060000154908060010160009054906101000a900473ffffffffffffffffffffffffffffffffffffffff16908060010160149054906101000a900460ff16908060020154905084565b60066020528060005260406000206000915090508060000160009054906101000a90046fffffffffffffffffffffffffffffffff16908060000160109054906101000a90046fffffffffffffffffffffffffffffffff16905082565b6000878b60000160006101000a81548173ffffffffffffffffffffffffffffffffffffffff021916908373ffffffffffffffffffffffffffffffffffffffff160217905550898b60000160146101000a81548160ff021916908360ff160217905550848b6001019080519060200190610f8b929190611d1c565b50868b60020181905550858b60030181905550828290508b60040160006101000a81548161ffff021916908361ffff160217905550838b6005018190555060005b8383905081101561109c5760018c600701858584818110610ff057610fef613402565b5b90506020028101906110029190612e69565b604051611010929190612978565b908152602001604051809103902060006101000a81548160ff02191690831515021790555083838281811061104857611047613402565b5b905060200281019061105a9190612e69565b8d600801600060018561106d91906130ef565b81526020019081526020016000209190611088929190611da2565b5080806110949061335b565b915050610fcc565b5060005b89518110156111305760018c60060160008c84815181106110c4576110c3613402565b5b602002602001015173ffffffffffffffffffffffffffffffffffffffff1673ffffffffffffffffffffffffffffffffffffffff16815260200190815260200160002060006101000a81548160ff02191690831515021790555080806111289061335b565b9150506110a0565b50600190509a9950505050505050505050565b61114b611234565b8073ffffffffffffffffffffffffffffffffffffffff16600460009054906101000a900473ffffffffffffffffffffffffffffffffffffffff1673ffffffffffffffffffffffffffffffffffffffff16146111a557600080fd5b6111af8383611a6f565b505050565b6000848660000181905550838660010160006101000a81548173ffffffffffffffffffffffffffffffffffffffff021916908373ffffffffffffffffffffffffffffffffffffffff160217905550828660010160146101000a81548160ff0219169083151502179055508186600201819055506001905095945050505050565b600033905090565b600082600001600081819054906101000a90046fffffffffffffffffffffffffffffffff168092919061126e906132f7565b91906101000a8154816fffffffffffffffffffffffffffffffff02191690836fffffffffffffffffffffffffffffffff16021790555050818360010160008560000160009054906101000a90046fffffffffffffffffffffffffffffffff166fffffffffffffffffffffffffffffffff166fffffffffffffffffffffffffffffffff168152602001908152602001600020819055506001905092915050565b600060028560000160149054906101000a900460ff1660ff1614611366576040517f08c379a000000000000000000000000000000000000000000000000000000000815260040161135d90612a57565b60405180910390fd5b84600201544210156113ad576040517f08c379a00000000000000000000000000000000000000000000000000000000081526004016113a490612b37565b60405180910390fd5b84600301544211156116035760028560000160146101000a81548160ff021916908360ff160217905550600085600a018660080160006001815260200190815260200160002060405161140091906129a8565b9081526020016040518091039020549050600060019050866008016000600181526020019081526020016000208760090160006001815260200190815260200160002090805461144f90613294565b61145a929190611e28565b506000600290505b8760040160009054906101000a900461ffff1661ffff168161ffff16116115f7578288600a018960080160008461ffff1681526020019081526020016000206040516114ae91906129a8565b908152602001604051809103902054111561154e5787600a018860080160008361ffff1681526020019081526020016000206040516114ed91906129a8565b9081526020016040518091039020549250600191508760080160008261ffff1681526020019081526020016000208860090160006001815260200190815260200160002090805461153d90613294565b611548929190611e28565b506115e4565b8288600a018960080160008461ffff16815260200190815260200160002060405161157991906129a8565b90815260200160405180910390205414156115e35781806115999061335b565b9250508760080160008261ffff1681526020019081526020016000208860090160008481526020019081526020016000209080546115d690613294565b6115e1929190611e28565b505b5b80806115ef90613330565b915050611462565b506000925050506117bb565b8460060160008573ffffffffffffffffffffffffffffffffffffffff1673ffffffffffffffffffffffffffffffffffffffff16815260200190815260200160002060009054906101000a900460ff16611691576040517f08c379a000000000000000000000000000000000000000000000000000000000815260040161168890612b77565b60405180910390fd5b60005b8560040160009054906101000a900461ffff1661ffff168161ffff1610156117b55785600701848261ffff16815181106116d1576116d0613402565b5b60200260200101516040516116e69190612991565b908152602001604051809103902060009054906101000a900460ff16611741576040517f08c379a000000000000000000000000000000000000000000000000000000000815260040161173890612ad7565b60405180910390fd5b828161ffff168151811061175857611757613402565b5b602002602001015186600a01858361ffff168151811061177b5761177a613402565b5b60200260200101516040516117909190612991565b90815260200160405180910390208190555080806117ad90613330565b915050611694565b50600190505b949350505050565b600083600001601081819054906101000a90046fffffffffffffffffffffffffffffffff16809291906117f5906132f7565b91906101000a8154816fffffffffffffffffffffffffffffffff02191690836fffffffffffffffffffffffffffffffff16021790555050828460020160008660000160109054906101000a90046fffffffffffffffffffffffffffffffff166fffffffffffffffffffffffffffffffff166fffffffffffffffffffffffffffffffff1681526020019081526020016000208190555060005b82518161ffff16101561191657828161ffff16815181106118b1576118b0613402565b5b602002602001015185600301600086815260200190815260200160002060006001846118dd91906130b7565b61ffff1681526020019081526020016000209080519060200190611902929190611d1c565b50808061190e90613330565b91505061188d565b50600184600401600085815260200190815260200160002060006101000a81548160ff021916908315150217905550600190509392505050565b60008082600001541415611999576040517f08c379a000000000000000000000000000000000000000000000000000000000815260040161199090612c73565b60405180910390fd5b8160010160149054906101000a900460ff16156119eb576040517f08c379a00000000000000000000000000000000000000000000000000000000081526004016119e290612ccf565b60405180910390fd5b6000826002018190555060019050919050565b611a06611234565b8073ffffffffffffffffffffffffffffffffffffffff16600460009054906101000a900473ffffffffffffffffffffffffffffffffffffffff1673ffffffffffffffffffffffffffffffffffffffff1614611a6057600080fd5b611a6a8383611b8a565b505050565b600073ffffffffffffffffffffffffffffffffffffffff168273ffffffffffffffffffffffffffffffffffffffff161415611adf576040517f08c379a0000000000000000000000000000000000000000000000000000000008152600401611ad690612cef565b60405180910390fd5b8060016000828254611af191906130ef565b92505081905550806000808473ffffffffffffffffffffffffffffffffffffffff1673ffffffffffffffffffffffffffffffffffffffff1681526020019081526020016000206000828254611b4691906130ef565b925050819055507fabf5327be9f5825c40d58bda541dd07f09b62df3376bbd5ecdbaa8bd82a9d4928282604051611b7e929190612c37565b60405180910390a15050565b600073ffffffffffffffffffffffffffffffffffffffff168273ffffffffffffffffffffffffffffffffffffffff161415611bfa576040517f08c379a0000000000000000000000000000000000000000000000000000000008152600401611bf190612bf7565b60405180910390fd5b60008060008473ffffffffffffffffffffffffffffffffffffffff1673ffffffffffffffffffffffffffffffffffffffff16815260200190815260200160002054905081811015611c80576040517f08c379a0000000000000000000000000000000000000000000000000000000008152600401611c7790612a97565b60405180910390fd5b8181036000808573ffffffffffffffffffffffffffffffffffffffff1673ffffffffffffffffffffffffffffffffffffffff168152602001908152602001600020819055508160016000828254611cd7919061319f565b925050819055507fabf5327be9f5825c40d58bda541dd07f09b62df3376bbd5ecdbaa8bd82a9d4928383604051611d0f929190612c93565b60405180910390a1505050565b828054611d2890613294565b90600052602060002090601f016020900481019282611d4a5760008555611d91565b82601f10611d6357805160ff1916838001178555611d91565b82800160010185558215611d91579182015b82811115611d90578251825591602001919060010190611d75565b5b509050611d9e9190611eb5565b5090565b828054611dae90613294565b90600052602060002090601f016020900481019282611dd05760008555611e17565b82601f10611de957803560ff1916838001178555611e17565b82800160010185558215611e17579182015b82811115611e16578235825591602001919060010190611dfb565b5b509050611e249190611eb5565b5090565b828054611e3490613294565b90600052602060002090601f016020900481019282611e565760008555611ea4565b82601f10611e675780548555611ea4565b82800160010185558215611ea457600052602060002091601f016020900482015b82811115611ea3578254825591600101919060010190611e88565b5b509050611eb19190611eb5565b5090565b5b80821115611ece576000816000905550600101611eb6565b5090565b6000611ee5611ee084612ef1565b612ecc565b90508083825260208201905082856020860282011115611f0857611f0761347e565b5b60005b85811015611f385781611f1e8882612082565b845260208401935060208301925050600181019050611f0b565b5050509392505050565b6000611f55611f5084612f1d565b612ecc565b90508083825260208201905082856020860282011115611f7857611f7761347e565b5b60005b85811015611fc657813567ffffffffffffffff811115611f9e57611f9d61346a565b5b808601611fab8982612177565b85526020850194506020840193505050600181019050611f7b565b5050509392505050565b6000611fe3611fde84612f49565b612ecc565b905080838252602082019050828560208602820111156120065761200561347e565b5b60005b85811015612036578161201c88826121a5565b845260208401935060208301925050600181019050612009565b5050509392505050565b600061205361204e84612f75565b612ecc565b90508281526020810184848401111561206f5761206e613488565b5b61207a848285613252565b509392505050565b60008135905061209181613911565b92915050565b600082601f8301126120ac576120ab61346a565b5b81356120bc848260208601611ed2565b91505092915050565b60008083601f8401126120db576120da61346a565b5b8235905067ffffffffffffffff8111156120f8576120f7613465565b5b6020830191508360208202830111156121145761211361347e565b5b9250929050565b600082601f8301126121305761212f61346a565b5b8135612140848260208601611f42565b91505092915050565b600082601f83011261215e5761215d61346a565b5b813561216e848260208601611fd0565b91505092915050565b600082601f83011261218c5761218b61346a565b5b813561219c848260208601612040565b91505092915050565b6000813590506121b481613928565b92915050565b6000813590506121c98161393f565b92915050565b6000602082840312156121e5576121e4613497565b5b60006121f384828501612082565b91505092915050565b6000806040838503121561221357612212613497565b5b600061222185828601612082565b9250506020612232858286016121a5565b9150509250929050565b60006020828403121561225257612251613497565b5b6000612260848285016121a5565b91505092915050565b6000806000806080858703121561228357612282613497565b5b6000612291878288016121a5565b94505060206122a287828801612082565b935050604085013567ffffffffffffffff8111156122c3576122c261348d565b5b6122cf8782880161211b565b925050606085013567ffffffffffffffff8111156122f0576122ef61348d565b5b6122fc87828801612149565b91505092959194509250565b60008060008060008060008060006101008a8c03121561232b5761232a613497565b5b60006123398c828d016121ba565b99505060208a013567ffffffffffffffff81111561235a5761235961348d565b5b6123668c828d01612097565b98505060406123778c828d01612082565b97505060606123888c828d016121a5565b96505060806123998c828d016121a5565b95505060a08a013567ffffffffffffffff8111156123ba576123b961348d565b5b6123c68c828d01612177565b94505060c08a013567ffffffffffffffff8111156123e7576123e661348d565b5b6123f38c828d016120c5565b935093505060e06124068c828d016121a5565b9150509295985092959850929598565b60006124228383612444565b60208301905092915050565b600061243b848484612545565b90509392505050565b61244d816131d3565b82525050565b61245c816131d3565b82525050565b600061246d82612fd5565b6124778185613005565b935061248283612fa6565b8060005b838110156124b357815161249a8882612416565b97506124a583612feb565b925050600181019050612486565b5085935050505092915050565b60006124cc8385613016565b9350836020840285016124de84612fb6565b8060005b878110156125245784840389526124f98284613054565b61250486828461242e565b955061250f84612ff8565b935060208b019a5050506001810190506124e2565b50829750879450505050509392505050565b61253f816131e5565b82525050565b60006125518385613027565b935061255e838584613252565b6125678361349c565b840190509392505050565b600061257e8385613049565b935061258b838584613252565b82840190509392505050565b60006125a282612fe0565b6125ac8185613038565b93506125bc818560208601613261565b6125c58161349c565b840191505092915050565b60006125db82612fe0565b6125e58185613049565b93506125f5818560208601613261565b80840191505092915050565b6000815461260e81613294565b6126188186613049565b94506001821660008114612633576001811461264457612677565b60ff19831686528186019350612677565b61264d85612fc0565b60005b8381101561266f57815481890152600182019150602081019050612650565b838801955050505b50505092915050565b600061268d601283613038565b9150612698826134ad565b602082019050919050565b60006126b0602c83613038565b91506126bb826134d6565b604082019050919050565b60006126d3602283613038565b91506126de82613525565b604082019050919050565b60006126f6600d83613038565b915061270182613574565b602082019050919050565b6000612719601b83613038565b91506127248261359d565b602082019050919050565b600061273c601483613038565b9150612747826135c6565b602082019050919050565b600061275f602383613038565b915061276a826135ef565b604082019050919050565b6000612782601883613038565b915061278d8261363e565b602082019050919050565b60006127a5601483613038565b91506127b082613667565b602082019050919050565b60006127c8602383613038565b91506127d382613690565b604082019050919050565b60006127eb601283613038565b91506127f6826136df565b602082019050919050565b600061280e602383613038565b915061281982613708565b604082019050919050565b6000612831602a83613038565b915061283c82613757565b604082019050919050565b6000612854602183613038565b915061285f826137a6565b604082019050919050565b6000612877602483613038565b9150612882826137f5565b604082019050919050565b600061289a600483613038565b91506128a582613844565b602082019050919050565b60006128bd601d83613038565b91506128c88261386d565b602082019050919050565b60006128e0600483613038565b91506128eb82613896565b602082019050919050565b6000612903600983613038565b915061290e826138bf565b602082019050919050565b6000612926601f83613038565b9150612931826138e8565b602082019050919050565b612945816131f1565b82525050565b6129548161320d565b82525050565b6129638161323b565b82525050565b61297281613245565b82525050565b6000612985828486612572565b91508190509392505050565b600061299d82846125d0565b915081905092915050565b60006129b48284612601565b915081905092915050565b600060e0820190506129d4600083018a612453565b6129e16020830189612969565b81810360408301526129f38188612597565b9050612a02606083018761295a565b612a0f608083018661295a565b612a1c60a083018561294b565b612a2960c083018461295a565b98975050505050505050565b60006020820190508181036000830152612a4f8184612597565b905092915050565b60006020820190508181036000830152612a7081612680565b9050919050565b60006020820190508181036000830152612a90816126a3565b9050919050565b60006020820190508181036000830152612ab0816126c6565b9050919050565b60006020820190508181036000830152612ad0816126e9565b9050919050565b60006020820190508181036000830152612af08161270c565b9050919050565b60006020820190508181036000830152612b108161272f565b9050919050565b60006020820190508181036000830152612b3081612752565b9050919050565b60006020820190508181036000830152612b5081612775565b9050919050565b60006020820190508181036000830152612b7081612798565b9050919050565b60006020820190508181036000830152612b90816127bb565b9050919050565b60006020820190508181036000830152612bb0816127de565b9050919050565b60006020820190508181036000830152612bd081612801565b9050919050565b60006020820190508181036000830152612bf081612824565b9050919050565b60006020820190508181036000830152612c1081612847565b9050919050565b60006020820190508181036000830152612c308161286a565b9050919050565b60006060820190508181036000830152612c508161288d565b9050612c5f6020830185612453565b612c6c604083018461295a565b9392505050565b60006020820190508181036000830152612c8c816128b0565b9050919050565b60006060820190508181036000830152612cac816128d3565b9050612cbb6020830185612453565b612cc8604083018461295a565b9392505050565b60006020820190508181036000830152612ce8816128f6565b9050919050565b60006020820190508181036000830152612d0881612919565b9050919050565b6000604082019050612d24600083018561293c565b612d31602083018461293c565b9392505050565b6000602082019050612d4d600083018461295a565b92915050565b6000608082019050612d68600083018761295a565b612d756020830186612453565b612d826040830185612536565b612d8f606083018461295a565b95945050505050565b600060e082019050612dad600083018b61295a565b8181036020830152612dbf818a612462565b9050612dce6040830189612453565b612ddb606083018861295a565b612de8608083018761295a565b81810360a0830152612dfa8186612597565b905081810360c0830152612e0f8184866124c0565b90509998505050505050505050565b6000604082019050612e33600083018561295a565b8181036020830152612e458184612597565b90509392505050565b6000602082019050612e636000830184612969565b92915050565b60008083356001602003843603038112612e8657612e85613474565b5b80840192508235915067ffffffffffffffff821115612ea857612ea761346f565b5b602083019250600182023603831315612ec457612ec3613483565b5b509250929050565b6000612ed6612ee7565b9050612ee282826132c6565b919050565b6000604051905090565b600067ffffffffffffffff821115612f0c57612f0b613431565b5b602082029050602081019050919050565b600067ffffffffffffffff821115612f3857612f37613431565b5b602082029050602081019050919050565b600067ffffffffffffffff821115612f6457612f63613431565b5b602082029050602081019050919050565b600067ffffffffffffffff821115612f9057612f8f613431565b5b612f998261349c565b9050602081019050919050565b6000819050602082019050919050565b6000819050919050565b60008190508160005260206000209050919050565b600081519050919050565b600081519050919050565b6000602082019050919050565b6000602082019050919050565b600082825260208201905092915050565b600082825260208201905092915050565b600082825260208201905092915050565b600082825260208201905092915050565b600081905092915050565b6000808335600160200384360303811261307157613070613492565b5b83810192508235915060208301925067ffffffffffffffff82111561309957613098613460565b5b6001820236038413156130af576130ae613479565b5b509250929050565b60006130c28261320d565b91506130cd8361320d565b92508261ffff038211156130e4576130e36133a4565b5b828201905092915050565b60006130fa8261323b565b91506131058361323b565b9250827fffffffffffffffffffffffffffffffffffffffffffffffffffffffffffffffff0382111561313a576131396133a4565b5b828201905092915050565b60006131508261323b565b915061315b8361323b565b9250817fffffffffffffffffffffffffffffffffffffffffffffffffffffffffffffffff0483118215151615613194576131936133a4565b5b828202905092915050565b60006131aa8261323b565b91506131b58361323b565b9250828210156131c8576131c76133a4565b5b828203905092915050565b60006131de8261321b565b9050919050565b60008115159050919050565b60006fffffffffffffffffffffffffffffffff82169050919050565b600061ffff82169050919050565b600073ffffffffffffffffffffffffffffffffffffffff82169050919050565b6000819050919050565b600060ff82169050919050565b82818337600083830152505050565b60005b8381101561327f578082015181840152602081019050613264565b8381111561328e576000848401525b50505050565b600060028204905060018216806132ac57607f821691505b602082108114156132c0576132bf6133d3565b5b50919050565b6132cf8261349c565b810181811067ffffffffffffffff821117156132ee576132ed613431565b5b80604052505050565b6000613302826131f1565b91506fffffffffffffffffffffffffffffffff821415613325576133246133a4565b5b600182019050919050565b600061333b8261320d565b915061ffff8214156133505761334f6133a4565b5b600182019050919050565b60006133668261323b565b91507fffffffffffffffffffffffffffffffffffffffffffffffffffffffffffffffff821415613399576133986133a4565b5b600182019050919050565b7f4e487b7100000000000000000000000000000000000000000000000000000000600052601160045260246000fd5b7f4e487b7100000000000000000000000000000000000000000000000000000000600052602260045260246000fd5b7f4e487b7100000000000000000000000000000000000000000000000000000000600052603260045260246000fd5b7f4e487b7100000000000000000000000000000000000000000000000000000000600052604160045260246000fd5b600080fd5b600080fd5b600080fd5b600080fd5b600080fd5b600080fd5b600080fd5b600080fd5b600080fd5b600080fd5b600080fd5b600080fd5b6000601f19601f8301169050919050565b7f50726f706f73616c3a20696e6163746976650000000000000000000000000000600082015250565b7f456e642074696d652073686f756c642062652067726561746572207468616e2060008201527f63757272656e742074696d650000000000000000000000000000000000000000602082015250565b7f45524332303a206275726e20616d6f756e7420657863656564732062616c616e60008201527f6365000000000000000000000000000000000000000000000000000000000000602082015250565b7f616c726561647920766f74656400000000000000000000000000000000000000600082015250565b7f50726f706f73616c3a20696e76616c69642063616e6469646174650000000000600082015250565b7f6e6f7420612076616c69642070726f706f73616c000000000000000000000000600082015250565b7f6e6f7420612076616c696420766f74657220666f7220746869732070726f706f60008201527f73616c0000000000000000000000000000000000000000000000000000000000602082015250565b7f70726f706f73616c206e6f742073746172746564207965740000000000000000600082015250565b7f70726f706f73616c206e6f742073746172746564000000000000000000000000600082015250565b7f4e6f7420612076616c696420766f74657220666f7220746869732070726f706f60008201527f73616c0000000000000000000000000000000000000000000000000000000000602082015250565b7f696e76616c69642070726f706f73616c49640000000000000000000000000000600082015250565b7f6e6f742073756666696369656e742062616c616e636520746f2063617374207660008201527f6f74650000000000000000000000000000000000000000000000000000000000602082015250565b7f456e642074696d652073686f756c642062652067726561746572207468616e2060008201527f73746172742074696d6500000000000000000000000000000000000000000000602082015250565b7f45524332303a206275726e2066726f6d20746865207a65726f2061646472657360008201527f7300000000000000000000000000000000000000000000000000000000000000602082015250565b7f6e6f7420612076616c6964206c656e677468206f66206861736820726573706f60008201527f6e73652100000000000000000000000000000000000000000000000000000000602082015250565b7f6d696e7400000000000000000000000000000000000000000000000000000000600082015250565b7f496e76616c696420766f74657220666f722070726f706f73616c496421000000600082015250565b7f6275726e00000000000000000000000000000000000000000000000000000000600082015250565b7f6e6f7420766f7465640000000000000000000000000000000000000000000000600082015250565b7f45524332303a206d696e7420746f20746865207a65726f206164647265737300600082015250565b61391a816131d3565b811461392557600080fd5b50565b6139318161323b565b811461393c57600080fd5b50565b61394881613245565b811461395357600080fd5b5056fea2646970667358221220391ef4a82e929e79d5f5e1ad94e20fa92233121d658cff782a84fdd8c22f90ab64736f6c63430008070033",
					"opcodes": "PUSH1 0x80 PUSH1 0x40 MSTORE CALLVALUE DUP1 ISZERO PUSH3 0x11 JUMPI PUSH1 0x0 DUP1 REVERT JUMPDEST POP PUSH1 0x40 MLOAD DUP1 PUSH1 0x40 ADD PUSH1 0x40 MSTORE DUP1 PUSH1 0xC DUP2 MSTORE PUSH1 0x20 ADD PUSH32 0x51566F74696E67546F6B656E0000000000000000000000000000000000000000 DUP2 MSTORE POP PUSH1 0x40 MLOAD DUP1 PUSH1 0x40 ADD PUSH1 0x40 MSTORE DUP1 PUSH1 0x2 DUP2 MSTORE PUSH1 0x20 ADD PUSH32 0x5176000000000000000000000000000000000000000000000000000000000000 DUP2 MSTORE POP DUP2 PUSH1 0x2 SWAP1 DUP1 MLOAD SWAP1 PUSH1 0x20 ADD SWAP1 PUSH3 0x96 SWAP3 SWAP2 SWAP1 PUSH3 0xF9 JUMP JUMPDEST POP DUP1 PUSH1 0x3 SWAP1 DUP1 MLOAD SWAP1 PUSH1 0x20 ADD SWAP1 PUSH3 0xAF SWAP3 SWAP2 SWAP1 PUSH3 0xF9 JUMP JUMPDEST POP POP POP CALLER PUSH1 0x4 PUSH1 0x0 PUSH2 0x100 EXP DUP2 SLOAD DUP2 PUSH20 0xFFFFFFFFFFFFFFFFFFFFFFFFFFFFFFFFFFFFFFFF MUL NOT AND SWAP1 DUP4 PUSH20 0xFFFFFFFFFFFFFFFFFFFFFFFFFFFFFFFFFFFFFFFF AND MUL OR SWAP1 SSTORE POP PUSH3 0x20E JUMP JUMPDEST DUP3 DUP1 SLOAD PUSH3 0x107 SWAP1 PUSH3 0x1A9 JUMP JUMPDEST SWAP1 PUSH1 0x0 MSTORE PUSH1 0x20 PUSH1 0x0 KECCAK256 SWAP1 PUSH1 0x1F ADD PUSH1 0x20 SWAP1 DIV DUP2 ADD SWAP3 DUP3 PUSH3 0x12B JUMPI PUSH1 0x0 DUP6 SSTORE PUSH3 0x177 JUMP JUMPDEST DUP3 PUSH1 0x1F LT PUSH3 0x146 JUMPI DUP1 MLOAD PUSH1 0xFF NOT AND DUP4 DUP1 ADD OR DUP6 SSTORE PUSH3 0x177 JUMP JUMPDEST DUP3 DUP1 ADD PUSH1 0x1 ADD DUP6 SSTORE DUP3 ISZERO PUSH3 0x177 JUMPI SWAP2 DUP3 ADD JUMPDEST DUP3 DUP2 GT ISZERO PUSH3 0x176 JUMPI DUP3 MLOAD DUP3 SSTORE SWAP2 PUSH1 0x20 ADD SWAP2 SWAP1 PUSH1 0x1 ADD SWAP1 PUSH3 0x159 JUMP JUMPDEST JUMPDEST POP SWAP1 POP PUSH3 0x186 SWAP2 SWAP1 PUSH3 0x18A JUMP JUMPDEST POP SWAP1 JUMP JUMPDEST JUMPDEST DUP1 DUP3 GT ISZERO PUSH3 0x1A5 JUMPI PUSH1 0x0 DUP2 PUSH1 0x0 SWAP1 SSTORE POP PUSH1 0x1 ADD PUSH3 0x18B JUMP JUMPDEST POP SWAP1 JUMP JUMPDEST PUSH1 0x0 PUSH1 0x2 DUP3 DIV SWAP1 POP PUSH1 0x1 DUP3 AND DUP1 PUSH3 0x1C2 JUMPI PUSH1 0x7F DUP3 AND SWAP2 POP JUMPDEST PUSH1 0x20 DUP3 LT DUP2 EQ ISZERO PUSH3 0x1D9 JUMPI PUSH3 0x1D8 PUSH3 0x1DF JUMP JUMPDEST JUMPDEST POP SWAP2 SWAP1 POP JUMP JUMPDEST PUSH32 0x4E487B7100000000000000000000000000000000000000000000000000000000 PUSH1 0x0 MSTORE PUSH1 0x22 PUSH1 0x4 MSTORE PUSH1 0x24 PUSH1 0x0 REVERT JUMPDEST PUSH2 0x398C DUP1 PUSH3 0x21E PUSH1 0x0 CODECOPY PUSH1 0x0 RETURN INVALID PUSH1 0x80 PUSH1 0x40 MSTORE CALLVALUE DUP1 ISZERO PUSH2 0x10 JUMPI PUSH1 0x0 DUP1 REVERT JUMPDEST POP PUSH1 0x4 CALLDATASIZE LT PUSH2 0xA9 JUMPI PUSH1 0x0 CALLDATALOAD PUSH1 0xE0 SHR DUP1 PUSH4 0x5C230EEE GT PUSH2 0x71 JUMPI DUP1 PUSH4 0x5C230EEE EQ PUSH2 0x15A JUMPI DUP1 PUSH4 0x70A08231 EQ PUSH2 0x176 JUMPI DUP1 PUSH4 0x95D89B41 EQ PUSH2 0x1A6 JUMPI DUP1 PUSH4 0x9D671564 EQ PUSH2 0x1C4 JUMPI DUP1 PUSH4 0xAB9C70D4 EQ PUSH2 0x1F5 JUMPI DUP1 PUSH4 0xE745D68E EQ PUSH2 0x228 JUMPI PUSH2 0xA9 JUMP JUMPDEST DUP1 PUSH4 0x13CF08B EQ PUSH2 0xAE JUMPI DUP1 PUSH4 0x6FDDE03 EQ PUSH2 0xE4 JUMPI DUP1 PUSH4 0x18160DDD EQ PUSH2 0x102 JUMPI DUP1 PUSH4 0x313CE567 EQ PUSH2 0x120 JUMPI DUP1 PUSH4 0x4DE77E48 EQ PUSH2 0x13E JUMPI JUMPDEST PUSH1 0x0 DUP1 REVERT JUMPDEST PUSH2 0xC8 PUSH1 0x4 DUP1 CALLDATASIZE SUB DUP2 ADD SWAP1 PUSH2 0xC3 SWAP2 SWAP1 PUSH2 0x223C JUMP JUMPDEST PUSH2 0x259 JUMP JUMPDEST PUSH1 0x40 MLOAD PUSH2 0xDB SWAP8 SWAP7 SWAP6 SWAP5 SWAP4 SWAP3 SWAP2 SWAP1 PUSH2 0x29BF JUMP JUMPDEST PUSH1 0x40 MLOAD DUP1 SWAP2 SUB SWAP1 RETURN JUMPDEST PUSH2 0xEC PUSH2 0x35E JUMP JUMPDEST PUSH1 0x40 MLOAD PUSH2 0xF9 SWAP2 SWAP1 PUSH2 0x2A35 JUMP JUMPDEST PUSH1 0x40 MLOAD DUP1 SWAP2 SUB SWAP1 RETURN JUMPDEST PUSH2 0x10A PUSH2 0x3F0 JUMP JUMPDEST PUSH1 0x40 MLOAD PUSH2 0x117 SWAP2 SWAP1 PUSH2 0x2D38 JUMP JUMPDEST PUSH1 0x40 MLOAD DUP1 SWAP2 SUB SWAP1 RETURN JUMPDEST PUSH2 0x128 PUSH2 0x3FA JUMP JUMPDEST PUSH1 0x40 MLOAD PUSH2 0x135 SWAP2 SWAP1 PUSH2 0x2E4E JUMP JUMPDEST PUSH1 0x40 MLOAD DUP1 SWAP2 SUB SWAP1 RETURN JUMPDEST PUSH2 0x158 PUSH1 0x4 DUP1 CALLDATASIZE SUB DUP2 ADD SWAP1 PUSH2 0x153 SWAP2 SWAP1 PUSH2 0x2308 JUMP JUMPDEST PUSH2 0x403 JUMP JUMPDEST STOP JUMPDEST PUSH2 0x174 PUSH1 0x4 DUP1 CALLDATASIZE SUB DUP2 ADD SWAP1 PUSH2 0x16F SWAP2 SWAP1 PUSH2 0x2269 JUMP JUMPDEST PUSH2 0x72D JUMP JUMPDEST STOP JUMPDEST PUSH2 0x190 PUSH1 0x4 DUP1 CALLDATASIZE SUB DUP2 ADD SWAP1 PUSH2 0x18B SWAP2 SWAP1 PUSH2 0x21CF JUMP JUMPDEST PUSH2 0xBF6 JUMP JUMPDEST PUSH1 0x40 MLOAD PUSH2 0x19D SWAP2 SWAP1 PUSH2 0x2D38 JUMP JUMPDEST PUSH1 0x40 MLOAD DUP1 SWAP2 SUB SWAP1 RETURN JUMPDEST PUSH2 0x1AE PUSH2 0xC3E JUMP JUMPDEST PUSH1 0x40 MLOAD PUSH2 0x1BB SWAP2 SWAP1 PUSH2 0x2A35 JUMP JUMPDEST PUSH1 0x40 MLOAD DUP1 SWAP2 SUB SWAP1 RETURN JUMPDEST PUSH2 0x1DE PUSH1 0x4 DUP1 CALLDATASIZE SUB DUP2 ADD SWAP1 PUSH2 0x1D9 SWAP2 SWAP1 PUSH2 0x223C JUMP JUMPDEST PUSH2 0xCD0 JUMP JUMPDEST PUSH1 0x40 MLOAD PUSH2 0x1EC SWAP3 SWAP2 SWAP1 PUSH2 0x2E1E JUMP JUMPDEST PUSH1 0x40 MLOAD DUP1 SWAP2 SUB SWAP1 RETURN JUMPDEST PUSH2 0x20F PUSH1 0x4 DUP1 CALLDATASIZE SUB DUP2 ADD SWAP1 PUSH2 0x20A SWAP2 SWAP1 PUSH2 0x21FC JUMP JUMPDEST PUSH2 0xE4B JUMP JUMPDEST PUSH1 0x40 MLOAD PUSH2 0x21F SWAP5 SWAP4 SWAP3 SWAP2 SWAP1 PUSH2 0x2D53 JUMP JUMPDEST PUSH1 0x40 MLOAD DUP1 SWAP2 SUB SWAP1 RETURN JUMPDEST PUSH2 0x242 PUSH1 0x4 DUP1 CALLDATASIZE SUB DUP2 ADD SWAP1 PUSH2 0x23D SWAP2 SWAP1 PUSH2 0x21CF JUMP JUMPDEST PUSH2 0xEB5 JUMP JUMPDEST PUSH1 0x40 MLOAD PUSH2 0x250 SWAP3 SWAP2 SWAP1 PUSH2 0x2D0F JUMP JUMPDEST PUSH1 0x40 MLOAD DUP1 SWAP2 SUB SWAP1 RETURN JUMPDEST PUSH1 0x7 PUSH1 0x20 MSTORE DUP1 PUSH1 0x0 MSTORE PUSH1 0x40 PUSH1 0x0 KECCAK256 PUSH1 0x0 SWAP2 POP SWAP1 POP DUP1 PUSH1 0x0 ADD PUSH1 0x0 SWAP1 SLOAD SWAP1 PUSH2 0x100 EXP SWAP1 DIV PUSH20 0xFFFFFFFFFFFFFFFFFFFFFFFFFFFFFFFFFFFFFFFF AND SWAP1 DUP1 PUSH1 0x0 ADD PUSH1 0x14 SWAP1 SLOAD SWAP1 PUSH2 0x100 EXP SWAP1 DIV PUSH1 0xFF AND SWAP1 DUP1 PUSH1 0x1 ADD DUP1 SLOAD PUSH2 0x2B5 SWAP1 PUSH2 0x3294 JUMP JUMPDEST DUP1 PUSH1 0x1F ADD PUSH1 0x20 DUP1 SWAP2 DIV MUL PUSH1 0x20 ADD PUSH1 0x40 MLOAD SWAP1 DUP2 ADD PUSH1 0x40 MSTORE DUP1 SWAP3 SWAP2 SWAP1 DUP2 DUP2 MSTORE PUSH1 0x20 ADD DUP3 DUP1 SLOAD PUSH2 0x2E1 SWAP1 PUSH2 0x3294 JUMP JUMPDEST DUP1 ISZERO PUSH2 0x32E JUMPI DUP1 PUSH1 0x1F LT PUSH2 0x303 JUMPI PUSH2 0x100 DUP1 DUP4 SLOAD DIV MUL DUP4 MSTORE SWAP2 PUSH1 0x20 ADD SWAP2 PUSH2 0x32E JUMP JUMPDEST DUP3 ADD SWAP2 SWAP1 PUSH1 0x0 MSTORE PUSH1 0x20 PUSH1 0x0 KECCAK256 SWAP1 JUMPDEST DUP2 SLOAD DUP2 MSTORE SWAP1 PUSH1 0x1 ADD SWAP1 PUSH1 0x20 ADD DUP1 DUP4 GT PUSH2 0x311 JUMPI DUP3 SWAP1 SUB PUSH1 0x1F AND DUP3 ADD SWAP2 JUMPDEST POP POP POP POP POP SWAP1 DUP1 PUSH1 0x2 ADD SLOAD SWAP1 DUP1 PUSH1 0x3 ADD SLOAD SWAP1 DUP1 PUSH1 0x4 ADD PUSH1 0x0 SWAP1 SLOAD SWAP1 PUSH2 0x100 EXP SWAP1 DIV PUSH2 0xFFFF AND SWAP1 DUP1 PUSH1 0x5 ADD SLOAD SWAP1 POP DUP8 JUMP JUMPDEST PUSH1 0x60 PUSH1 0x2 DUP1 SLOAD PUSH2 0x36D SWAP1 PUSH2 0x3294 JUMP JUMPDEST DUP1 PUSH1 0x1F ADD PUSH1 0x20 DUP1 SWAP2 DIV MUL PUSH1 0x20 ADD PUSH1 0x40 MLOAD SWAP1 DUP2 ADD PUSH1 0x40 MSTORE DUP1 SWAP3 SWAP2 SWAP1 DUP2 DUP2 MSTORE PUSH1 0x20 ADD DUP3 DUP1 SLOAD PUSH2 0x399 SWAP1 PUSH2 0x3294 JUMP JUMPDEST DUP1 ISZERO PUSH2 0x3E6 JUMPI DUP1 PUSH1 0x1F LT PUSH2 0x3BB JUMPI PUSH2 0x100 DUP1 DUP4 SLOAD DIV MUL DUP4 MSTORE SWAP2 PUSH1 0x20 ADD SWAP2 PUSH2 0x3E6 JUMP JUMPDEST DUP3 ADD SWAP2 SWAP1 PUSH1 0x0 MSTORE PUSH1 0x20 PUSH1 0x0 KECCAK256 SWAP1 JUMPDEST DUP2 SLOAD DUP2 MSTORE SWAP1 PUSH1 0x1 ADD SWAP1 PUSH1 0x20 ADD DUP1 DUP4 GT PUSH2 0x3C9 JUMPI DUP3 SWAP1 SUB PUSH1 0x1F AND DUP3 ADD SWAP2 JUMPDEST POP POP POP POP POP SWAP1 POP SWAP1 JUMP JUMPDEST PUSH1 0x0 PUSH1 0x1 SLOAD SWAP1 POP SWAP1 JUMP JUMPDEST PUSH1 0x0 PUSH1 0x12 SWAP1 POP SWAP1 JUMP JUMPDEST DUP6 TIMESTAMP LT PUSH2 0x445 JUMPI PUSH1 0x40 MLOAD PUSH32 0x8C379A000000000000000000000000000000000000000000000000000000000 DUP2 MSTORE PUSH1 0x4 ADD PUSH2 0x43C SWAP1 PUSH2 0x2B57 JUMP JUMPDEST PUSH1 0x40 MLOAD DUP1 SWAP2 SUB SWAP1 REVERT JUMPDEST DUP5 TIMESTAMP LT PUSH2 0x487 JUMPI PUSH1 0x40 MLOAD PUSH32 0x8C379A000000000000000000000000000000000000000000000000000000000 DUP2 MSTORE PUSH1 0x4 ADD PUSH2 0x47E SWAP1 PUSH2 0x2A77 JUMP JUMPDEST PUSH1 0x40 MLOAD DUP1 SWAP2 SUB SWAP1 REVERT JUMPDEST DUP5 DUP7 LT PUSH2 0x4C9 JUMPI PUSH1 0x40 MLOAD PUSH32 0x8C379A000000000000000000000000000000000000000000000000000000000 DUP2 MSTORE PUSH1 0x4 ADD PUSH2 0x4C0 SWAP1 PUSH2 0x2BD7 JUMP JUMPDEST PUSH1 0x40 MLOAD DUP1 SWAP2 SUB SWAP1 REVERT JUMPDEST PUSH1 0x5 PUSH1 0x0 DUP2 SLOAD DUP1 SWAP3 SWAP2 SWAP1 PUSH2 0x4DC SWAP1 PUSH2 0x335B JUMP JUMPDEST SWAP2 SWAP1 POP SSTORE POP PUSH2 0x518 DUP10 DUP10 DUP10 DUP10 DUP10 DUP10 DUP8 DUP11 DUP11 PUSH1 0x7 PUSH1 0x0 PUSH1 0x5 SLOAD DUP2 MSTORE PUSH1 0x20 ADD SWAP1 DUP2 MSTORE PUSH1 0x20 ADD PUSH1 0x0 KECCAK256 PUSH2 0xF11 SWAP1 SWAP10 SWAP9 SWAP8 SWAP7 SWAP6 SWAP5 SWAP4 SWAP3 SWAP2 SWAP1 PUSH4 0xFFFFFFFF AND JUMP JUMPDEST POP PUSH32 0x239A8A71A7D1CB0D134F6CC072AD6390E36A88C8E78DFF69013EE79528441E80 PUSH1 0x5 SLOAD DUP10 DUP10 DUP10 DUP10 DUP10 DUP10 DUP10 PUSH1 0x40 MLOAD PUSH2 0x558 SWAP9 SWAP8 SWAP7 SWAP6 SWAP5 SWAP4 SWAP3 SWAP2 SWAP1 PUSH2 0x2D98 JUMP JUMPDEST PUSH1 0x40 MLOAD DUP1 SWAP2 SUB SWAP1 LOG1 PUSH1 0x1 PUSH1 0x9 PUSH1 0x0 PUSH1 0x5 SLOAD DUP2 MSTORE PUSH1 0x20 ADD SWAP1 DUP2 MSTORE PUSH1 0x20 ADD PUSH1 0x0 KECCAK256 PUSH1 0x0 PUSH2 0x100 EXP DUP2 SLOAD DUP2 PUSH1 0xFF MUL NOT AND SWAP1 DUP4 ISZERO ISZERO MUL OR SWAP1 SSTORE POP PUSH1 0x0 JUMPDEST DUP9 MLOAD DUP2 LT ISZERO PUSH2 0x6C6 JUMPI PUSH2 0x5BE DUP10 DUP3 DUP2 MLOAD DUP2 LT PUSH2 0x5B0 JUMPI PUSH2 0x5AF PUSH2 0x3402 JUMP JUMPDEST JUMPDEST PUSH1 0x20 MUL PUSH1 0x20 ADD ADD MLOAD DUP4 PUSH2 0x1143 JUMP JUMPDEST PUSH2 0x65F PUSH1 0x5 SLOAD DUP11 DUP4 DUP2 MLOAD DUP2 LT PUSH2 0x5D7 JUMPI PUSH2 0x5D6 PUSH2 0x3402 JUMP JUMPDEST JUMPDEST PUSH1 0x20 MUL PUSH1 0x20 ADD ADD MLOAD PUSH1 0x0 DUP6 PUSH1 0x8 PUSH1 0x0 DUP16 DUP9 DUP2 MLOAD DUP2 LT PUSH2 0x5F9 JUMPI PUSH2 0x5F8 PUSH2 0x3402 JUMP JUMPDEST JUMPDEST PUSH1 0x20 MUL PUSH1 0x20 ADD ADD MLOAD PUSH20 0xFFFFFFFFFFFFFFFFFFFFFFFFFFFFFFFFFFFFFFFF AND PUSH20 0xFFFFFFFFFFFFFFFFFFFFFFFFFFFFFFFFFFFFFFFF AND DUP2 MSTORE PUSH1 0x20 ADD SWAP1 DUP2 MSTORE PUSH1 0x20 ADD PUSH1 0x0 KECCAK256 PUSH1 0x0 PUSH1 0x5 SLOAD DUP2 MSTORE PUSH1 0x20 ADD SWAP1 DUP2 MSTORE PUSH1 0x20 ADD PUSH1 0x0 KECCAK256 PUSH2 0x11B4 SWAP1 SWAP5 SWAP4 SWAP3 SWAP2 SWAP1 PUSH4 0xFFFFFFFF AND JUMP JUMPDEST POP PUSH32 0xABF5327BE9F5825C40D58BDA541DD07F09B62DF3376BBD5ECDBAA8BD82A9D492 DUP10 DUP3 DUP2 MLOAD DUP2 LT PUSH2 0x694 JUMPI PUSH2 0x693 PUSH2 0x3402 JUMP JUMPDEST JUMPDEST PUSH1 0x20 MUL PUSH1 0x20 ADD ADD MLOAD DUP4 PUSH1 0x40 MLOAD PUSH2 0x6AB SWAP3 SWAP2 SWAP1 PUSH2 0x2C37 JUMP JUMPDEST PUSH1 0x40 MLOAD DUP1 SWAP2 SUB SWAP1 LOG1 DUP1 DUP1 PUSH2 0x6BE SWAP1 PUSH2 0x335B JUMP JUMPDEST SWAP2 POP POP PUSH2 0x591 JUMP JUMPDEST POP PUSH2 0x721 PUSH1 0x5 SLOAD PUSH1 0x6 PUSH1 0x0 PUSH2 0x6D9 PUSH2 0x1234 JUMP JUMPDEST PUSH20 0xFFFFFFFFFFFFFFFFFFFFFFFFFFFFFFFFFFFFFFFF AND PUSH20 0xFFFFFFFFFFFFFFFFFFFFFFFFFFFFFFFFFFFFFFFF AND DUP2 MSTORE PUSH1 0x20 ADD SWAP1 DUP2 MSTORE PUSH1 0x20 ADD PUSH1 0x0 KECCAK256 PUSH2 0x123C SWAP1 SWAP2 SWAP1 PUSH4 0xFFFFFFFF AND JUMP JUMPDEST POP POP POP POP POP POP POP POP POP POP JUMP JUMPDEST PUSH1 0x9 PUSH1 0x0 DUP6 DUP2 MSTORE PUSH1 0x20 ADD SWAP1 DUP2 MSTORE PUSH1 0x20 ADD PUSH1 0x0 KECCAK256 PUSH1 0x0 SWAP1 SLOAD SWAP1 PUSH2 0x100 EXP SWAP1 DIV PUSH1 0xFF AND PUSH2 0x78D JUMPI PUSH1 0x40 MLOAD PUSH32 0x8C379A000000000000000000000000000000000000000000000000000000000 DUP2 MSTORE PUSH1 0x4 ADD PUSH2 0x784 SWAP1 PUSH2 0x2B97 JUMP JUMPDEST PUSH1 0x40 MLOAD DUP1 SWAP2 SUB SWAP1 REVERT JUMPDEST DUP4 PUSH1 0x8 PUSH1 0x0 DUP6 PUSH20 0xFFFFFFFFFFFFFFFFFFFFFFFFFFFFFFFFFFFFFFFF AND PUSH20 0xFFFFFFFFFFFFFFFFFFFFFFFFFFFFFFFFFFFFFFFF AND DUP2 MSTORE PUSH1 0x20 ADD SWAP1 DUP2 MSTORE PUSH1 0x20 ADD PUSH1 0x0 KECCAK256 PUSH1 0x0 DUP7 DUP2 MSTORE PUSH1 0x20 ADD SWAP1 DUP2 MSTORE PUSH1 0x20 ADD PUSH1 0x0 KECCAK256 PUSH1 0x0 ADD SLOAD EQ PUSH2 0x822 JUMPI PUSH1 0x40 MLOAD PUSH32 0x8C379A000000000000000000000000000000000000000000000000000000000 DUP2 MSTORE PUSH1 0x4 ADD PUSH2 0x819 SWAP1 PUSH2 0x2B17 JUMP JUMPDEST PUSH1 0x40 MLOAD DUP1 SWAP2 SUB SWAP1 REVERT JUMPDEST PUSH1 0x8 PUSH1 0x0 DUP5 PUSH20 0xFFFFFFFFFFFFFFFFFFFFFFFFFFFFFFFFFFFFFFFF AND PUSH20 0xFFFFFFFFFFFFFFFFFFFFFFFFFFFFFFFFFFFFFFFF AND DUP2 MSTORE PUSH1 0x20 ADD SWAP1 DUP2 MSTORE PUSH1 0x20 ADD PUSH1 0x0 KECCAK256 PUSH1 0x0 DUP6 DUP2 MSTORE PUSH1 0x20 ADD SWAP1 DUP2 MSTORE PUSH1 0x20 ADD PUSH1 0x0 KECCAK256 PUSH1 0x1 ADD PUSH1 0x14 SWAP1 SLOAD SWAP1 PUSH2 0x100 EXP SWAP1 DIV PUSH1 0xFF AND ISZERO PUSH2 0x8C3 JUMPI PUSH1 0x40 MLOAD PUSH32 0x8C379A000000000000000000000000000000000000000000000000000000000 DUP2 MSTORE PUSH1 0x4 ADD PUSH2 0x8BA SWAP1 PUSH2 0x2AB7 JUMP JUMPDEST PUSH1 0x40 MLOAD DUP1 SWAP2 SUB SWAP1 REVERT JUMPDEST DUP2 MLOAD PUSH1 0x7 PUSH1 0x0 DUP7 DUP2 MSTORE PUSH1 0x20 ADD SWAP1 DUP2 MSTORE PUSH1 0x20 ADD PUSH1 0x0 KECCAK256 PUSH1 0x4 ADD PUSH1 0x0 SWAP1 SLOAD SWAP1 PUSH2 0x100 EXP SWAP1 DIV PUSH2 0xFFFF AND PUSH2 0xFFFF AND EQ PUSH2 0x92E JUMPI PUSH1 0x40 MLOAD PUSH32 0x8C379A000000000000000000000000000000000000000000000000000000000 DUP2 MSTORE PUSH1 0x4 ADD PUSH2 0x925 SWAP1 PUSH2 0x2C17 JUMP JUMPDEST PUSH1 0x40 MLOAD DUP1 SWAP2 SUB SWAP1 REVERT JUMPDEST PUSH1 0x0 DUP1 JUMPDEST DUP3 MLOAD DUP2 LT ISZERO PUSH2 0x99B JUMPI DUP3 DUP2 DUP2 MLOAD DUP2 LT PUSH2 0x94E JUMPI PUSH2 0x94D PUSH2 0x3402 JUMP JUMPDEST JUMPDEST PUSH1 0x20 MUL PUSH1 0x20 ADD ADD MLOAD DUP4 DUP3 DUP2 MLOAD DUP2 LT PUSH2 0x969 JUMPI PUSH2 0x968 PUSH2 0x3402 JUMP JUMPDEST JUMPDEST PUSH1 0x20 MUL PUSH1 0x20 ADD ADD MLOAD PUSH2 0x97B SWAP2 SWAP1 PUSH2 0x3145 JUMP JUMPDEST DUP3 PUSH2 0x986 SWAP2 SWAP1 PUSH2 0x30EF JUMP JUMPDEST SWAP2 POP DUP1 DUP1 PUSH2 0x993 SWAP1 PUSH2 0x335B JUMP JUMPDEST SWAP2 POP POP PUSH2 0x932 JUMP JUMPDEST POP DUP1 PUSH1 0x8 PUSH1 0x0 DUP7 PUSH20 0xFFFFFFFFFFFFFFFFFFFFFFFFFFFFFFFFFFFFFFFF AND PUSH20 0xFFFFFFFFFFFFFFFFFFFFFFFFFFFFFFFFFFFFFFFF AND DUP2 MSTORE PUSH1 0x20 ADD SWAP1 DUP2 MSTORE PUSH1 0x20 ADD PUSH1 0x0 KECCAK256 PUSH1 0x0 DUP8 DUP2 MSTORE PUSH1 0x20 ADD SWAP1 DUP2 MSTORE PUSH1 0x20 ADD PUSH1 0x0 KECCAK256 PUSH1 0x2 ADD SLOAD LT ISZERO PUSH2 0xA32 JUMPI PUSH1 0x40 MLOAD PUSH32 0x8C379A000000000000000000000000000000000000000000000000000000000 DUP2 MSTORE PUSH1 0x4 ADD PUSH2 0xA29 SWAP1 PUSH2 0x2BB7 JUMP JUMPDEST PUSH1 0x40 MLOAD DUP1 SWAP2 SUB SWAP1 REVERT JUMPDEST PUSH2 0xA5B DUP5 DUP5 DUP5 PUSH1 0x7 PUSH1 0x0 DUP11 DUP2 MSTORE PUSH1 0x20 ADD SWAP1 DUP2 MSTORE PUSH1 0x20 ADD PUSH1 0x0 KECCAK256 PUSH2 0x130D SWAP1 SWAP4 SWAP3 SWAP2 SWAP1 PUSH4 0xFFFFFFFF AND JUMP JUMPDEST POP PUSH2 0xAB6 DUP6 DUP5 PUSH1 0x6 PUSH1 0x0 PUSH2 0xA6D PUSH2 0x1234 JUMP JUMPDEST PUSH20 0xFFFFFFFFFFFFFFFFFFFFFFFFFFFFFFFFFFFFFFFF AND PUSH20 0xFFFFFFFFFFFFFFFFFFFFFFFFFFFFFFFFFFFFFFFF AND DUP2 MSTORE PUSH1 0x20 ADD SWAP1 DUP2 MSTORE PUSH1 0x20 ADD PUSH1 0x0 KECCAK256 PUSH2 0x17C3 SWAP1 SWAP3 SWAP2 SWAP1 PUSH4 0xFFFFFFFF AND JUMP JUMPDEST POP PUSH2 0xB0F PUSH1 0x8 PUSH1 0x0 DUP7 PUSH20 0xFFFFFFFFFFFFFFFFFFFFFFFFFFFFFFFFFFFFFFFF AND PUSH20 0xFFFFFFFFFFFFFFFFFFFFFFFFFFFFFFFFFFFFFFFF AND DUP2 MSTORE PUSH1 0x20 ADD SWAP1 DUP2 MSTORE PUSH1 0x20 ADD PUSH1 0x0 KECCAK256 PUSH1 0x0 DUP8 DUP2 MSTORE PUSH1 0x20 ADD SWAP1 DUP2 MSTORE PUSH1 0x20 ADD PUSH1 0x0 KECCAK256 PUSH2 0x1950 JUMP JUMPDEST POP PUSH1 0x1 PUSH1 0x8 PUSH1 0x0 DUP7 PUSH20 0xFFFFFFFFFFFFFFFFFFFFFFFFFFFFFFFFFFFFFFFF AND PUSH20 0xFFFFFFFFFFFFFFFFFFFFFFFFFFFFFFFFFFFFFFFF AND DUP2 MSTORE PUSH1 0x20 ADD SWAP1 DUP2 MSTORE PUSH1 0x20 ADD PUSH1 0x0 KECCAK256 PUSH1 0x0 DUP8 DUP2 MSTORE PUSH1 0x20 ADD SWAP1 DUP2 MSTORE PUSH1 0x20 ADD PUSH1 0x0 KECCAK256 PUSH1 0x1 ADD PUSH1 0x14 PUSH2 0x100 EXP DUP2 SLOAD DUP2 PUSH1 0xFF MUL NOT AND SWAP1 DUP4 ISZERO ISZERO MUL OR SWAP1 SSTORE POP PUSH2 0xB9E DUP5 PUSH1 0x7 PUSH1 0x0 PUSH1 0x5 SLOAD DUP2 MSTORE PUSH1 0x20 ADD SWAP1 DUP2 MSTORE PUSH1 0x20 ADD PUSH1 0x0 KECCAK256 PUSH1 0x5 ADD SLOAD PUSH2 0x19FE JUMP JUMPDEST PUSH32 0xABF5327BE9F5825C40D58BDA541DD07F09B62DF3376BBD5ECDBAA8BD82A9D492 DUP5 PUSH1 0x7 PUSH1 0x0 PUSH1 0x5 SLOAD DUP2 MSTORE PUSH1 0x20 ADD SWAP1 DUP2 MSTORE PUSH1 0x20 ADD PUSH1 0x0 KECCAK256 PUSH1 0x5 ADD SLOAD PUSH1 0x40 MLOAD PUSH2 0xBE7 SWAP3 SWAP2 SWAP1 PUSH2 0x2C93 JUMP JUMPDEST PUSH1 0x40 MLOAD DUP1 SWAP2 SUB SWAP1 LOG1 POP POP POP POP POP JUMP JUMPDEST PUSH1 0x0 DUP1 PUSH1 0x0 DUP4 PUSH20 0xFFFFFFFFFFFFFFFFFFFFFFFFFFFFFFFFFFFFFFFF AND PUSH20 0xFFFFFFFFFFFFFFFFFFFFFFFFFFFFFFFFFFFFFFFF AND DUP2 MSTORE PUSH1 0x20 ADD SWAP1 DUP2 MSTORE PUSH1 0x20 ADD PUSH1 0x0 KECCAK256 SLOAD SWAP1 POP SWAP2 SWAP1 POP JUMP JUMPDEST PUSH1 0x60 PUSH1 0x3 DUP1 SLOAD PUSH2 0xC4D SWAP1 PUSH2 0x3294 JUMP JUMPDEST DUP1 PUSH1 0x1F ADD PUSH1 0x20 DUP1 SWAP2 DIV MUL PUSH1 0x20 ADD PUSH1 0x40 MLOAD SWAP1 DUP2 ADD PUSH1 0x40 MSTORE DUP1 SWAP3 SWAP2 SWAP1 DUP2 DUP2 MSTORE PUSH1 0x20 ADD DUP3 DUP1 SLOAD PUSH2 0xC79 SWAP1 PUSH2 0x3294 JUMP JUMPDEST DUP1 ISZERO PUSH2 0xCC6 JUMPI DUP1 PUSH1 0x1F LT PUSH2 0xC9B JUMPI PUSH2 0x100 DUP1 DUP4 SLOAD DIV MUL DUP4 MSTORE SWAP2 PUSH1 0x20 ADD SWAP2 PUSH2 0xCC6 JUMP JUMPDEST DUP3 ADD SWAP2 SWAP1 PUSH1 0x0 MSTORE PUSH1 0x20 PUSH1 0x0 KECCAK256 SWAP1 JUMPDEST DUP2 SLOAD DUP2 MSTORE SWAP1 PUSH1 0x1 ADD SWAP1 PUSH1 0x20 ADD DUP1 DUP4 GT PUSH2 0xCA9 JUMPI DUP3 SWAP1 SUB PUSH1 0x1F AND DUP3 ADD SWAP2 JUMPDEST POP POP POP POP POP SWAP1 POP SWAP1 JUMP JUMPDEST PUSH1 0x0 PUSH1 0x60 PUSH1 0x9 PUSH1 0x0 DUP5 DUP2 MSTORE PUSH1 0x20 ADD SWAP1 DUP2 MSTORE PUSH1 0x20 ADD PUSH1 0x0 KECCAK256 PUSH1 0x0 SWAP1 SLOAD SWAP1 PUSH2 0x100 EXP SWAP1 DIV PUSH1 0xFF AND PUSH2 0xD34 JUMPI PUSH1 0x40 MLOAD PUSH32 0x8C379A000000000000000000000000000000000000000000000000000000000 DUP2 MSTORE PUSH1 0x4 ADD PUSH2 0xD2B SWAP1 PUSH2 0x2AF7 JUMP JUMPDEST PUSH1 0x40 MLOAD DUP1 SWAP2 SUB SWAP1 REVERT JUMPDEST PUSH1 0x7 PUSH1 0x0 DUP5 DUP2 MSTORE PUSH1 0x20 ADD SWAP1 DUP2 MSTORE PUSH1 0x20 ADD PUSH1 0x0 KECCAK256 PUSH1 0xA ADD PUSH1 0x7 PUSH1 0x0 DUP6 DUP2 MSTORE PUSH1 0x20 ADD SWAP1 DUP2 MSTORE PUSH1 0x20 ADD PUSH1 0x0 KECCAK256 PUSH1 0x9 ADD PUSH1 0x0 PUSH1 0x1 DUP2 MSTORE PUSH1 0x20 ADD SWAP1 DUP2 MSTORE PUSH1 0x20 ADD PUSH1 0x0 KECCAK256 PUSH1 0x40 MLOAD PUSH2 0xD7F SWAP2 SWAP1 PUSH2 0x29A8 JUMP JUMPDEST SWAP1 DUP2 MSTORE PUSH1 0x20 ADD PUSH1 0x40 MLOAD DUP1 SWAP2 SUB SWAP1 KECCAK256 SLOAD PUSH1 0x7 PUSH1 0x0 DUP6 DUP2 MSTORE PUSH1 0x20 ADD SWAP1 DUP2 MSTORE PUSH1 0x20 ADD PUSH1 0x0 KECCAK256 PUSH1 0x9 ADD PUSH1 0x0 PUSH1 0x1 DUP2 MSTORE PUSH1 0x20 ADD SWAP1 DUP2 MSTORE PUSH1 0x20 ADD PUSH1 0x0 KECCAK256 DUP1 DUP1 SLOAD PUSH2 0xDC2 SWAP1 PUSH2 0x3294 JUMP JUMPDEST DUP1 PUSH1 0x1F ADD PUSH1 0x20 DUP1 SWAP2 DIV MUL PUSH1 0x20 ADD PUSH1 0x40 MLOAD SWAP1 DUP2 ADD PUSH1 0x40 MSTORE DUP1 SWAP3 SWAP2 SWAP1 DUP2 DUP2 MSTORE PUSH1 0x20 ADD DUP3 DUP1 SLOAD PUSH2 0xDEE SWAP1 PUSH2 0x3294 JUMP JUMPDEST DUP1 ISZERO PUSH2 0xE3B JUMPI DUP1 PUSH1 0x1F LT PUSH2 0xE10 JUMPI PUSH2 0x100 DUP1 DUP4 SLOAD DIV MUL DUP4 MSTORE SWAP2 PUSH1 0x20 ADD SWAP2 PUSH2 0xE3B JUMP JUMPDEST DUP3 ADD SWAP2 SWAP1 PUSH1 0x0 MSTORE PUSH1 0x20 PUSH1 0x0 KECCAK256 SWAP1 JUMPDEST DUP2 SLOAD DUP2 MSTORE SWAP1 PUSH1 0x1 ADD SWAP1 PUSH1 0x20 ADD DUP1 DUP4 GT PUSH2 0xE1E JUMPI DUP3 SWAP1 SUB PUSH1 0x1F AND DUP3 ADD SWAP2 JUMPDEST POP POP POP POP POP SWAP1 POP SWAP2 POP SWAP2 POP SWAP2 POP SWAP2 JUMP JUMPDEST PUSH1 0x8 PUSH1 0x20 MSTORE DUP2 PUSH1 0x0 MSTORE PUSH1 0x40 PUSH1 0x0 KECCAK256 PUSH1 0x20 MSTORE DUP1 PUSH1 0x0 MSTORE PUSH1 0x40 PUSH1 0x0 KECCAK256 PUSH1 0x0 SWAP2 POP SWAP2 POP POP DUP1 PUSH1 0x0 ADD SLOAD SWAP1 DUP1 PUSH1 0x1 ADD PUSH1 0x0 SWAP1 SLOAD SWAP1 PUSH2 0x100 EXP SWAP1 DIV PUSH20 0xFFFFFFFFFFFFFFFFFFFFFFFFFFFFFFFFFFFFFFFF AND SWAP1 DUP1 PUSH1 0x1 ADD PUSH1 0x14 SWAP1 SLOAD SWAP1 PUSH2 0x100 EXP SWAP1 DIV PUSH1 0xFF AND SWAP1 DUP1 PUSH1 0x2 ADD SLOAD SWAP1 POP DUP5 JUMP JUMPDEST PUSH1 0x6 PUSH1 0x20 MSTORE DUP1 PUSH1 0x0 MSTORE PUSH1 0x40 PUSH1 0x0 KECCAK256 PUSH1 0x0 SWAP2 POP SWAP1 POP DUP1 PUSH1 0x0 ADD PUSH1 0x0 SWAP1 SLOAD SWAP1 PUSH2 0x100 EXP SWAP1 DIV PUSH16 0xFFFFFFFFFFFFFFFFFFFFFFFFFFFFFFFF AND SWAP1 DUP1 PUSH1 0x0 ADD PUSH1 0x10 SWAP1 SLOAD SWAP1 PUSH2 0x100 EXP SWAP1 DIV PUSH16 0xFFFFFFFFFFFFFFFFFFFFFFFFFFFFFFFF AND SWAP1 POP DUP3 JUMP JUMPDEST PUSH1 0x0 DUP8 DUP12 PUSH1 0x0 ADD PUSH1 0x0 PUSH2 0x100 EXP DUP2 SLOAD DUP2 PUSH20 0xFFFFFFFFFFFFFFFFFFFFFFFFFFFFFFFFFFFFFFFF MUL NOT AND SWAP1 DUP4 PUSH20 0xFFFFFFFFFFFFFFFFFFFFFFFFFFFFFFFFFFFFFFFF AND MUL OR SWAP1 SSTORE POP DUP10 DUP12 PUSH1 0x0 ADD PUSH1 0x14 PUSH2 0x100 EXP DUP2 SLOAD DUP2 PUSH1 0xFF MUL NOT AND SWAP1 DUP4 PUSH1 0xFF AND MUL OR SWAP1 SSTORE POP DUP5 DUP12 PUSH1 0x1 ADD SWAP1 DUP1 MLOAD SWAP1 PUSH1 0x20 ADD SWAP1 PUSH2 0xF8B SWAP3 SWAP2 SWAP1 PUSH2 0x1D1C JUMP JUMPDEST POP DUP7 DUP12 PUSH1 0x2 ADD DUP2 SWAP1 SSTORE POP DUP6 DUP12 PUSH1 0x3 ADD DUP2 SWAP1 SSTORE POP DUP3 DUP3 SWAP1 POP DUP12 PUSH1 0x4 ADD PUSH1 0x0 PUSH2 0x100 EXP DUP2 SLOAD DUP2 PUSH2 0xFFFF MUL NOT AND SWAP1 DUP4 PUSH2 0xFFFF AND MUL OR SWAP1 SSTORE POP DUP4 DUP12 PUSH1 0x5 ADD DUP2 SWAP1 SSTORE POP PUSH1 0x0 JUMPDEST DUP4 DUP4 SWAP1 POP DUP2 LT ISZERO PUSH2 0x109C JUMPI PUSH1 0x1 DUP13 PUSH1 0x7 ADD DUP6 DUP6 DUP5 DUP2 DUP2 LT PUSH2 0xFF0 JUMPI PUSH2 0xFEF PUSH2 0x3402 JUMP JUMPDEST JUMPDEST SWAP1 POP PUSH1 0x20 MUL DUP2 ADD SWAP1 PUSH2 0x1002 SWAP2 SWAP1 PUSH2 0x2E69 JUMP JUMPDEST PUSH1 0x40 MLOAD PUSH2 0x1010 SWAP3 SWAP2 SWAP1 PUSH2 0x2978 JUMP JUMPDEST SWAP1 DUP2 MSTORE PUSH1 0x20 ADD PUSH1 0x40 MLOAD DUP1 SWAP2 SUB SWAP1 KECCAK256 PUSH1 0x0 PUSH2 0x100 EXP DUP2 SLOAD DUP2 PUSH1 0xFF MUL NOT AND SWAP1 DUP4 ISZERO ISZERO MUL OR SWAP1 SSTORE POP DUP4 DUP4 DUP3 DUP2 DUP2 LT PUSH2 0x1048 JUMPI PUSH2 0x1047 PUSH2 0x3402 JUMP JUMPDEST JUMPDEST SWAP1 POP PUSH1 0x20 MUL DUP2 ADD SWAP1 PUSH2 0x105A SWAP2 SWAP1 PUSH2 0x2E69 JUMP JUMPDEST DUP14 PUSH1 0x8 ADD PUSH1 0x0 PUSH1 0x1 DUP6 PUSH2 0x106D SWAP2 SWAP1 PUSH2 0x30EF JUMP JUMPDEST DUP2 MSTORE PUSH1 0x20 ADD SWAP1 DUP2 MSTORE PUSH1 0x20 ADD PUSH1 0x0 KECCAK256 SWAP2 SWAP1 PUSH2 0x1088 SWAP3 SWAP2 SWAP1 PUSH2 0x1DA2 JUMP JUMPDEST POP DUP1 DUP1 PUSH2 0x1094 SWAP1 PUSH2 0x335B JUMP JUMPDEST SWAP2 POP POP PUSH2 0xFCC JUMP JUMPDEST POP PUSH1 0x0 JUMPDEST DUP10 MLOAD DUP2 LT ISZERO PUSH2 0x1130 JUMPI PUSH1 0x1 DUP13 PUSH1 0x6 ADD PUSH1 0x0 DUP13 DUP5 DUP2 MLOAD DUP2 LT PUSH2 0x10C4 JUMPI PUSH2 0x10C3 PUSH2 0x3402 JUMP JUMPDEST JUMPDEST PUSH1 0x20 MUL PUSH1 0x20 ADD ADD MLOAD PUSH20 0xFFFFFFFFFFFFFFFFFFFFFFFFFFFFFFFFFFFFFFFF AND PUSH20 0xFFFFFFFFFFFFFFFFFFFFFFFFFFFFFFFFFFFFFFFF AND DUP2 MSTORE PUSH1 0x20 ADD SWAP1 DUP2 MSTORE PUSH1 0x20 ADD PUSH1 0x0 KECCAK256 PUSH1 0x0 PUSH2 0x100 EXP DUP2 SLOAD DUP2 PUSH1 0xFF MUL NOT AND SWAP1 DUP4 ISZERO ISZERO MUL OR SWAP1 SSTORE POP DUP1 DUP1 PUSH2 0x1128 SWAP1 PUSH2 0x335B JUMP JUMPDEST SWAP2 POP POP PUSH2 0x10A0 JUMP JUMPDEST POP PUSH1 0x1 SWAP1 POP SWAP11 SWAP10 POP POP POP POP POP POP POP POP POP POP JUMP JUMPDEST PUSH2 0x114B PUSH2 0x1234 JUMP JUMPDEST DUP1 PUSH20 0xFFFFFFFFFFFFFFFFFFFFFFFFFFFFFFFFFFFFFFFF AND PUSH1 0x4 PUSH1 0x0 SWAP1 SLOAD SWAP1 PUSH2 0x100 EXP SWAP1 DIV PUSH20 0xFFFFFFFFFFFFFFFFFFFFFFFFFFFFFFFFFFFFFFFF AND PUSH20 0xFFFFFFFFFFFFFFFFFFFFFFFFFFFFFFFFFFFFFFFF AND EQ PUSH2 0x11A5 JUMPI PUSH1 0x0 DUP1 REVERT JUMPDEST PUSH2 0x11AF DUP4 DUP4 PUSH2 0x1A6F JUMP JUMPDEST POP POP POP JUMP JUMPDEST PUSH1 0x0 DUP5 DUP7 PUSH1 0x0 ADD DUP2 SWAP1 SSTORE POP DUP4 DUP7 PUSH1 0x1 ADD PUSH1 0x0 PUSH2 0x100 EXP DUP2 SLOAD DUP2 PUSH20 0xFFFFFFFFFFFFFFFFFFFFFFFFFFFFFFFFFFFFFFFF MUL NOT AND SWAP1 DUP4 PUSH20 0xFFFFFFFFFFFFFFFFFFFFFFFFFFFFFFFFFFFFFFFF AND MUL OR SWAP1 SSTORE POP DUP3 DUP7 PUSH1 0x1 ADD PUSH1 0x14 PUSH2 0x100 EXP DUP2 SLOAD DUP2 PUSH1 0xFF MUL NOT AND SWAP1 DUP4 ISZERO ISZERO MUL OR SWAP1 SSTORE POP DUP2 DUP7 PUSH1 0x2 ADD DUP2 SWAP1 SSTORE POP PUSH1 0x1 SWAP1 POP SWAP6 SWAP5 POP POP POP POP POP JUMP JUMPDEST PUSH1 0x0 CALLER SWAP1 POP SWAP1 JUMP JUMPDEST PUSH1 0x0 DUP3 PUSH1 0x0 ADD PUSH1 0x0 DUP2 DUP2 SWAP1 SLOAD SWAP1 PUSH2 0x100 EXP SWAP1 DIV PUSH16 0xFFFFFFFFFFFFFFFFFFFFFFFFFFFFFFFF AND DUP1 SWAP3 SWAP2 SWAP1 PUSH2 0x126E SWAP1 PUSH2 0x32F7 JUMP JUMPDEST SWAP2 SWAP1 PUSH2 0x100 EXP DUP2 SLOAD DUP2 PUSH16 0xFFFFFFFFFFFFFFFFFFFFFFFFFFFFFFFF MUL NOT AND SWAP1 DUP4 PUSH16 0xFFFFFFFFFFFFFFFFFFFFFFFFFFFFFFFF AND MUL OR SWAP1 SSTORE POP POP DUP2 DUP4 PUSH1 0x1 ADD PUSH1 0x0 DUP6 PUSH1 0x0 ADD PUSH1 0x0 SWAP1 SLOAD SWAP1 PUSH2 0x100 EXP SWAP1 DIV PUSH16 0xFFFFFFFFFFFFFFFFFFFFFFFFFFFFFFFF AND PUSH16 0xFFFFFFFFFFFFFFFFFFFFFFFFFFFFFFFF AND PUSH16 0xFFFFFFFFFFFFFFFFFFFFFFFFFFFFFFFF AND DUP2 MSTORE PUSH1 0x20 ADD SWAP1 DUP2 MSTORE PUSH1 0x20 ADD PUSH1 0x0 KECCAK256 DUP2 SWAP1 SSTORE POP PUSH1 0x1 SWAP1 POP SWAP3 SWAP2 POP POP JUMP JUMPDEST PUSH1 0x0 PUSH1 0x2 DUP6 PUSH1 0x0 ADD PUSH1 0x14 SWAP1 SLOAD SWAP1 PUSH2 0x100 EXP SWAP1 DIV PUSH1 0xFF AND PUSH1 0xFF AND EQ PUSH2 0x1366 JUMPI PUSH1 0x40 MLOAD PUSH32 0x8C379A000000000000000000000000000000000000000000000000000000000 DUP2 MSTORE PUSH1 0x4 ADD PUSH2 0x135D SWAP1 PUSH2 0x2A57 JUMP JUMPDEST PUSH1 0x40 MLOAD DUP1 SWAP2 SUB SWAP1 REVERT JUMPDEST DUP5 PUSH1 0x2 ADD SLOAD TIMESTAMP LT ISZERO PUSH2 0x13AD JUMPI PUSH1 0x40 MLOAD PUSH32 0x8C379A000000000000000000000000000000000000000000000000000000000 DUP2 MSTORE PUSH1 0x4 ADD PUSH2 0x13A4 SWAP1 PUSH2 0x2B37 JUMP JUMPDEST PUSH1 0x40 MLOAD DUP1 SWAP2 SUB SWAP1 REVERT JUMPDEST DUP5 PUSH1 0x3 ADD SLOAD TIMESTAMP GT ISZERO PUSH2 0x1603 JUMPI PUSH1 0x2 DUP6 PUSH1 0x0 ADD PUSH1 0x14 PUSH2 0x100 EXP DUP2 SLOAD DUP2 PUSH1 0xFF MUL NOT AND SWAP1 DUP4 PUSH1 0xFF AND MUL OR SWAP1 SSTORE POP PUSH1 0x0 DUP6 PUSH1 0xA ADD DUP7 PUSH1 0x8 ADD PUSH1 0x0 PUSH1 0x1 DUP2 MSTORE PUSH1 0x20 ADD SWAP1 DUP2 MSTORE PUSH1 0x20 ADD PUSH1 0x0 KECCAK256 PUSH1 0x40 MLOAD PUSH2 0x1400 SWAP2 SWAP1 PUSH2 0x29A8 JUMP JUMPDEST SWAP1 DUP2 MSTORE PUSH1 0x20 ADD PUSH1 0x40 MLOAD DUP1 SWAP2 SUB SWAP1 KECCAK256 SLOAD SWAP1 POP PUSH1 0x0 PUSH1 0x1 SWAP1 POP DUP7 PUSH1 0x8 ADD PUSH1 0x0 PUSH1 0x1 DUP2 MSTORE PUSH1 0x20 ADD SWAP1 DUP2 MSTORE PUSH1 0x20 ADD PUSH1 0x0 KECCAK256 DUP8 PUSH1 0x9 ADD PUSH1 0x0 PUSH1 0x1 DUP2 MSTORE PUSH1 0x20 ADD SWAP1 DUP2 MSTORE PUSH1 0x20 ADD PUSH1 0x0 KECCAK256 SWAP1 DUP1 SLOAD PUSH2 0x144F SWAP1 PUSH2 0x3294 JUMP JUMPDEST PUSH2 0x145A SWAP3 SWAP2 SWAP1 PUSH2 0x1E28 JUMP JUMPDEST POP PUSH1 0x0 PUSH1 0x2 SWAP1 POP JUMPDEST DUP8 PUSH1 0x4 ADD PUSH1 0x0 SWAP1 SLOAD SWAP1 PUSH2 0x100 EXP SWAP1 DIV PUSH2 0xFFFF AND PUSH2 0xFFFF AND DUP2 PUSH2 0xFFFF AND GT PUSH2 0x15F7 JUMPI DUP3 DUP9 PUSH1 0xA ADD DUP10 PUSH1 0x8 ADD PUSH1 0x0 DUP5 PUSH2 0xFFFF AND DUP2 MSTORE PUSH1 0x20 ADD SWAP1 DUP2 MSTORE PUSH1 0x20 ADD PUSH1 0x0 KECCAK256 PUSH1 0x40 MLOAD PUSH2 0x14AE SWAP2 SWAP1 PUSH2 0x29A8 JUMP JUMPDEST SWAP1 DUP2 MSTORE PUSH1 0x20 ADD PUSH1 0x40 MLOAD DUP1 SWAP2 SUB SWAP1 KECCAK256 SLOAD GT ISZERO PUSH2 0x154E JUMPI DUP8 PUSH1 0xA ADD DUP9 PUSH1 0x8 ADD PUSH1 0x0 DUP4 PUSH2 0xFFFF AND DUP2 MSTORE PUSH1 0x20 ADD SWAP1 DUP2 MSTORE PUSH1 0x20 ADD PUSH1 0x0 KECCAK256 PUSH1 0x40 MLOAD PUSH2 0x14ED SWAP2 SWAP1 PUSH2 0x29A8 JUMP JUMPDEST SWAP1 DUP2 MSTORE PUSH1 0x20 ADD PUSH1 0x40 MLOAD DUP1 SWAP2 SUB SWAP1 KECCAK256 SLOAD SWAP3 POP PUSH1 0x1 SWAP2 POP DUP8 PUSH1 0x8 ADD PUSH1 0x0 DUP3 PUSH2 0xFFFF AND DUP2 MSTORE PUSH1 0x20 ADD SWAP1 DUP2 MSTORE PUSH1 0x20 ADD PUSH1 0x0 KECCAK256 DUP9 PUSH1 0x9 ADD PUSH1 0x0 PUSH1 0x1 DUP2 MSTORE PUSH1 0x20 ADD SWAP1 DUP2 MSTORE PUSH1 0x20 ADD PUSH1 0x0 KECCAK256 SWAP1 DUP1 SLOAD PUSH2 0x153D SWAP1 PUSH2 0x3294 JUMP JUMPDEST PUSH2 0x1548 SWAP3 SWAP2 SWAP1 PUSH2 0x1E28 JUMP JUMPDEST POP PUSH2 0x15E4 JUMP JUMPDEST DUP3 DUP9 PUSH1 0xA ADD DUP10 PUSH1 0x8 ADD PUSH1 0x0 DUP5 PUSH2 0xFFFF AND DUP2 MSTORE PUSH1 0x20 ADD SWAP1 DUP2 MSTORE PUSH1 0x20 ADD PUSH1 0x0 KECCAK256 PUSH1 0x40 MLOAD PUSH2 0x1579 SWAP2 SWAP1 PUSH2 0x29A8 JUMP JUMPDEST SWAP1 DUP2 MSTORE PUSH1 0x20 ADD PUSH1 0x40 MLOAD DUP1 SWAP2 SUB SWAP1 KECCAK256 SLOAD EQ ISZERO PUSH2 0x15E3 JUMPI DUP2 DUP1 PUSH2 0x1599 SWAP1 PUSH2 0x335B JUMP JUMPDEST SWAP3 POP POP DUP8 PUSH1 0x8 ADD PUSH1 0x0 DUP3 PUSH2 0xFFFF AND DUP2 MSTORE PUSH1 0x20 ADD SWAP1 DUP2 MSTORE PUSH1 0x20 ADD PUSH1 0x0 KECCAK256 DUP9 PUSH1 0x9 ADD PUSH1 0x0 DUP5 DUP2 MSTORE PUSH1 0x20 ADD SWAP1 DUP2 MSTORE PUSH1 0x20 ADD PUSH1 0x0 KECCAK256 SWAP1 DUP1 SLOAD PUSH2 0x15D6 SWAP1 PUSH2 0x3294 JUMP JUMPDEST PUSH2 0x15E1 SWAP3 SWAP2 SWAP1 PUSH2 0x1E28 JUMP JUMPDEST POP JUMPDEST JUMPDEST DUP1 DUP1 PUSH2 0x15EF SWAP1 PUSH2 0x3330 JUMP JUMPDEST SWAP2 POP POP PUSH2 0x1462 JUMP JUMPDEST POP PUSH1 0x0 SWAP3 POP POP POP PUSH2 0x17BB JUMP JUMPDEST DUP5 PUSH1 0x6 ADD PUSH1 0x0 DUP6 PUSH20 0xFFFFFFFFFFFFFFFFFFFFFFFFFFFFFFFFFFFFFFFF AND PUSH20 0xFFFFFFFFFFFFFFFFFFFFFFFFFFFFFFFFFFFFFFFF AND DUP2 MSTORE PUSH1 0x20 ADD SWAP1 DUP2 MSTORE PUSH1 0x20 ADD PUSH1 0x0 KECCAK256 PUSH1 0x0 SWAP1 SLOAD SWAP1 PUSH2 0x100 EXP SWAP1 DIV PUSH1 0xFF AND PUSH2 0x1691 JUMPI PUSH1 0x40 MLOAD PUSH32 0x8C379A000000000000000000000000000000000000000000000000000000000 DUP2 MSTORE PUSH1 0x4 ADD PUSH2 0x1688 SWAP1 PUSH2 0x2B77 JUMP JUMPDEST PUSH1 0x40 MLOAD DUP1 SWAP2 SUB SWAP1 REVERT JUMPDEST PUSH1 0x0 JUMPDEST DUP6 PUSH1 0x4 ADD PUSH1 0x0 SWAP1 SLOAD SWAP1 PUSH2 0x100 EXP SWAP1 DIV PUSH2 0xFFFF AND PUSH2 0xFFFF AND DUP2 PUSH2 0xFFFF AND LT ISZERO PUSH2 0x17B5 JUMPI DUP6 PUSH1 0x7 ADD DUP5 DUP3 PUSH2 0xFFFF AND DUP2 MLOAD DUP2 LT PUSH2 0x16D1 JUMPI PUSH2 0x16D0 PUSH2 0x3402 JUMP JUMPDEST JUMPDEST PUSH1 0x20 MUL PUSH1 0x20 ADD ADD MLOAD PUSH1 0x40 MLOAD PUSH2 0x16E6 SWAP2 SWAP1 PUSH2 0x2991 JUMP JUMPDEST SWAP1 DUP2 MSTORE PUSH1 0x20 ADD PUSH1 0x40 MLOAD DUP1 SWAP2 SUB SWAP1 KECCAK256 PUSH1 0x0 SWAP1 SLOAD SWAP1 PUSH2 0x100 EXP SWAP1 DIV PUSH1 0xFF AND PUSH2 0x1741 JUMPI PUSH1 0x40 MLOAD PUSH32 0x8C379A000000000000000000000000000000000000000000000000000000000 DUP2 MSTORE PUSH1 0x4 ADD PUSH2 0x1738 SWAP1 PUSH2 0x2AD7 JUMP JUMPDEST PUSH1 0x40 MLOAD DUP1 SWAP2 SUB SWAP1 REVERT JUMPDEST DUP3 DUP2 PUSH2 0xFFFF AND DUP2 MLOAD DUP2 LT PUSH2 0x1758 JUMPI PUSH2 0x1757 PUSH2 0x3402 JUMP JUMPDEST JUMPDEST PUSH1 0x20 MUL PUSH1 0x20 ADD ADD MLOAD DUP7 PUSH1 0xA ADD DUP6 DUP4 PUSH2 0xFFFF AND DUP2 MLOAD DUP2 LT PUSH2 0x177B JUMPI PUSH2 0x177A PUSH2 0x3402 JUMP JUMPDEST JUMPDEST PUSH1 0x20 MUL PUSH1 0x20 ADD ADD MLOAD PUSH1 0x40 MLOAD PUSH2 0x1790 SWAP2 SWAP1 PUSH2 0x2991 JUMP JUMPDEST SWAP1 DUP2 MSTORE PUSH1 0x20 ADD PUSH1 0x40 MLOAD DUP1 SWAP2 SUB SWAP1 KECCAK256 DUP2 SWAP1 SSTORE POP DUP1 DUP1 PUSH2 0x17AD SWAP1 PUSH2 0x3330 JUMP JUMPDEST SWAP2 POP POP PUSH2 0x1694 JUMP JUMPDEST POP PUSH1 0x1 SWAP1 POP JUMPDEST SWAP5 SWAP4 POP POP POP POP JUMP JUMPDEST PUSH1 0x0 DUP4 PUSH1 0x0 ADD PUSH1 0x10 DUP2 DUP2 SWAP1 SLOAD SWAP1 PUSH2 0x100 EXP SWAP1 DIV PUSH16 0xFFFFFFFFFFFFFFFFFFFFFFFFFFFFFFFF AND DUP1 SWAP3 SWAP2 SWAP1 PUSH2 0x17F5 SWAP1 PUSH2 0x32F7 JUMP JUMPDEST SWAP2 SWAP1 PUSH2 0x100 EXP DUP2 SLOAD DUP2 PUSH16 0xFFFFFFFFFFFFFFFFFFFFFFFFFFFFFFFF MUL NOT AND SWAP1 DUP4 PUSH16 0xFFFFFFFFFFFFFFFFFFFFFFFFFFFFFFFF AND MUL OR SWAP1 SSTORE POP POP DUP3 DUP5 PUSH1 0x2 ADD PUSH1 0x0 DUP7 PUSH1 0x0 ADD PUSH1 0x10 SWAP1 SLOAD SWAP1 PUSH2 0x100 EXP SWAP1 DIV PUSH16 0xFFFFFFFFFFFFFFFFFFFFFFFFFFFFFFFF AND PUSH16 0xFFFFFFFFFFFFFFFFFFFFFFFFFFFFFFFF AND PUSH16 0xFFFFFFFFFFFFFFFFFFFFFFFFFFFFFFFF AND DUP2 MSTORE PUSH1 0x20 ADD SWAP1 DUP2 MSTORE PUSH1 0x20 ADD PUSH1 0x0 KECCAK256 DUP2 SWAP1 SSTORE POP PUSH1 0x0 JUMPDEST DUP3 MLOAD DUP2 PUSH2 0xFFFF AND LT ISZERO PUSH2 0x1916 JUMPI DUP3 DUP2 PUSH2 0xFFFF AND DUP2 MLOAD DUP2 LT PUSH2 0x18B1 JUMPI PUSH2 0x18B0 PUSH2 0x3402 JUMP JUMPDEST JUMPDEST PUSH1 0x20 MUL PUSH1 0x20 ADD ADD MLOAD DUP6 PUSH1 0x3 ADD PUSH1 0x0 DUP7 DUP2 MSTORE PUSH1 0x20 ADD SWAP1 DUP2 MSTORE PUSH1 0x20 ADD PUSH1 0x0 KECCAK256 PUSH1 0x0 PUSH1 0x1 DUP5 PUSH2 0x18DD SWAP2 SWAP1 PUSH2 0x30B7 JUMP JUMPDEST PUSH2 0xFFFF AND DUP2 MSTORE PUSH1 0x20 ADD SWAP1 DUP2 MSTORE PUSH1 0x20 ADD PUSH1 0x0 KECCAK256 SWAP1 DUP1 MLOAD SWAP1 PUSH1 0x20 ADD SWAP1 PUSH2 0x1902 SWAP3 SWAP2 SWAP1 PUSH2 0x1D1C JUMP JUMPDEST POP DUP1 DUP1 PUSH2 0x190E SWAP1 PUSH2 0x3330 JUMP JUMPDEST SWAP2 POP POP PUSH2 0x188D JUMP JUMPDEST POP PUSH1 0x1 DUP5 PUSH1 0x4 ADD PUSH1 0x0 DUP6 DUP2 MSTORE PUSH1 0x20 ADD SWAP1 DUP2 MSTORE PUSH1 0x20 ADD PUSH1 0x0 KECCAK256 PUSH1 0x0 PUSH2 0x100 EXP DUP2 SLOAD DUP2 PUSH1 0xFF MUL NOT AND SWAP1 DUP4 ISZERO ISZERO MUL OR SWAP1 SSTORE POP PUSH1 0x1 SWAP1 POP SWAP4 SWAP3 POP POP POP JUMP JUMPDEST PUSH1 0x0 DUP1 DUP3 PUSH1 0x0 ADD SLOAD EQ ISZERO PUSH2 0x1999 JUMPI PUSH1 0x40 MLOAD PUSH32 0x8C379A000000000000000000000000000000000000000000000000000000000 DUP2 MSTORE PUSH1 0x4 ADD PUSH2 0x1990 SWAP1 PUSH2 0x2C73 JUMP JUMPDEST PUSH1 0x40 MLOAD DUP1 SWAP2 SUB SWAP1 REVERT JUMPDEST DUP2 PUSH1 0x1 ADD PUSH1 0x14 SWAP1 SLOAD SWAP1 PUSH2 0x100 EXP SWAP1 DIV PUSH1 0xFF AND ISZERO PUSH2 0x19EB JUMPI PUSH1 0x40 MLOAD PUSH32 0x8C379A000000000000000000000000000000000000000000000000000000000 DUP2 MSTORE PUSH1 0x4 ADD PUSH2 0x19E2 SWAP1 PUSH2 0x2CCF JUMP JUMPDEST PUSH1 0x40 MLOAD DUP1 SWAP2 SUB SWAP1 REVERT JUMPDEST PUSH1 0x0 DUP3 PUSH1 0x2 ADD DUP2 SWAP1 SSTORE POP PUSH1 0x1 SWAP1 POP SWAP2 SWAP1 POP JUMP JUMPDEST PUSH2 0x1A06 PUSH2 0x1234 JUMP JUMPDEST DUP1 PUSH20 0xFFFFFFFFFFFFFFFFFFFFFFFFFFFFFFFFFFFFFFFF AND PUSH1 0x4 PUSH1 0x0 SWAP1 SLOAD SWAP1 PUSH2 0x100 EXP SWAP1 DIV PUSH20 0xFFFFFFFFFFFFFFFFFFFFFFFFFFFFFFFFFFFFFFFF AND PUSH20 0xFFFFFFFFFFFFFFFFFFFFFFFFFFFFFFFFFFFFFFFF AND EQ PUSH2 0x1A60 JUMPI PUSH1 0x0 DUP1 REVERT JUMPDEST PUSH2 0x1A6A DUP4 DUP4 PUSH2 0x1B8A JUMP JUMPDEST POP POP POP JUMP JUMPDEST PUSH1 0x0 PUSH20 0xFFFFFFFFFFFFFFFFFFFFFFFFFFFFFFFFFFFFFFFF AND DUP3 PUSH20 0xFFFFFFFFFFFFFFFFFFFFFFFFFFFFFFFFFFFFFFFF AND EQ ISZERO PUSH2 0x1ADF JUMPI PUSH1 0x40 MLOAD PUSH32 0x8C379A000000000000000000000000000000000000000000000000000000000 DUP2 MSTORE PUSH1 0x4 ADD PUSH2 0x1AD6 SWAP1 PUSH2 0x2CEF JUMP JUMPDEST PUSH1 0x40 MLOAD DUP1 SWAP2 SUB SWAP1 REVERT JUMPDEST DUP1 PUSH1 0x1 PUSH1 0x0 DUP3 DUP3 SLOAD PUSH2 0x1AF1 SWAP2 SWAP1 PUSH2 0x30EF JUMP JUMPDEST SWAP3 POP POP DUP2 SWAP1 SSTORE POP DUP1 PUSH1 0x0 DUP1 DUP5 PUSH20 0xFFFFFFFFFFFFFFFFFFFFFFFFFFFFFFFFFFFFFFFF AND PUSH20 0xFFFFFFFFFFFFFFFFFFFFFFFFFFFFFFFFFFFFFFFF AND DUP2 MSTORE PUSH1 0x20 ADD SWAP1 DUP2 MSTORE PUSH1 0x20 ADD PUSH1 0x0 KECCAK256 PUSH1 0x0 DUP3 DUP3 SLOAD PUSH2 0x1B46 SWAP2 SWAP1 PUSH2 0x30EF JUMP JUMPDEST SWAP3 POP POP DUP2 SWAP1 SSTORE POP PUSH32 0xABF5327BE9F5825C40D58BDA541DD07F09B62DF3376BBD5ECDBAA8BD82A9D492 DUP3 DUP3 PUSH1 0x40 MLOAD PUSH2 0x1B7E SWAP3 SWAP2 SWAP1 PUSH2 0x2C37 JUMP JUMPDEST PUSH1 0x40 MLOAD DUP1 SWAP2 SUB SWAP1 LOG1 POP POP JUMP JUMPDEST PUSH1 0x0 PUSH20 0xFFFFFFFFFFFFFFFFFFFFFFFFFFFFFFFFFFFFFFFF AND DUP3 PUSH20 0xFFFFFFFFFFFFFFFFFFFFFFFFFFFFFFFFFFFFFFFF AND EQ ISZERO PUSH2 0x1BFA JUMPI PUSH1 0x40 MLOAD PUSH32 0x8C379A000000000000000000000000000000000000000000000000000000000 DUP2 MSTORE PUSH1 0x4 ADD PUSH2 0x1BF1 SWAP1 PUSH2 0x2BF7 JUMP JUMPDEST PUSH1 0x40 MLOAD DUP1 SWAP2 SUB SWAP1 REVERT JUMPDEST PUSH1 0x0 DUP1 PUSH1 0x0 DUP5 PUSH20 0xFFFFFFFFFFFFFFFFFFFFFFFFFFFFFFFFFFFFFFFF AND PUSH20 0xFFFFFFFFFFFFFFFFFFFFFFFFFFFFFFFFFFFFFFFF AND DUP2 MSTORE PUSH1 0x20 ADD SWAP1 DUP2 MSTORE PUSH1 0x20 ADD PUSH1 0x0 KECCAK256 SLOAD SWAP1 POP DUP2 DUP2 LT ISZERO PUSH2 0x1C80 JUMPI PUSH1 0x40 MLOAD PUSH32 0x8C379A000000000000000000000000000000000000000000000000000000000 DUP2 MSTORE PUSH1 0x4 ADD PUSH2 0x1C77 SWAP1 PUSH2 0x2A97 JUMP JUMPDEST PUSH1 0x40 MLOAD DUP1 SWAP2 SUB SWAP1 REVERT JUMPDEST DUP2 DUP2 SUB PUSH1 0x0 DUP1 DUP6 PUSH20 0xFFFFFFFFFFFFFFFFFFFFFFFFFFFFFFFFFFFFFFFF AND PUSH20 0xFFFFFFFFFFFFFFFFFFFFFFFFFFFFFFFFFFFFFFFF AND DUP2 MSTORE PUSH1 0x20 ADD SWAP1 DUP2 MSTORE PUSH1 0x20 ADD PUSH1 0x0 KECCAK256 DUP2 SWAP1 SSTORE POP DUP2 PUSH1 0x1 PUSH1 0x0 DUP3 DUP3 SLOAD PUSH2 0x1CD7 SWAP2 SWAP1 PUSH2 0x319F JUMP JUMPDEST SWAP3 POP POP DUP2 SWAP1 SSTORE POP PUSH32 0xABF5327BE9F5825C40D58BDA541DD07F09B62DF3376BBD5ECDBAA8BD82A9D492 DUP4 DUP4 PUSH1 0x40 MLOAD PUSH2 0x1D0F SWAP3 SWAP2 SWAP1 PUSH2 0x2C93 JUMP JUMPDEST PUSH1 0x40 MLOAD DUP1 SWAP2 SUB SWAP1 LOG1 POP POP POP JUMP JUMPDEST DUP3 DUP1 SLOAD PUSH2 0x1D28 SWAP1 PUSH2 0x3294 JUMP JUMPDEST SWAP1 PUSH1 0x0 MSTORE PUSH1 0x20 PUSH1 0x0 KECCAK256 SWAP1 PUSH1 0x1F ADD PUSH1 0x20 SWAP1 DIV DUP2 ADD SWAP3 DUP3 PUSH2 0x1D4A JUMPI PUSH1 0x0 DUP6 SSTORE PUSH2 0x1D91 JUMP JUMPDEST DUP3 PUSH1 0x1F LT PUSH2 0x1D63 JUMPI DUP1 MLOAD PUSH1 0xFF NOT AND DUP4 DUP1 ADD OR DUP6 SSTORE PUSH2 0x1D91 JUMP JUMPDEST DUP3 DUP1 ADD PUSH1 0x1 ADD DUP6 SSTORE DUP3 ISZERO PUSH2 0x1D91 JUMPI SWAP2 DUP3 ADD JUMPDEST DUP3 DUP2 GT ISZERO PUSH2 0x1D90 JUMPI DUP3 MLOAD DUP3 SSTORE SWAP2 PUSH1 0x20 ADD SWAP2 SWAP1 PUSH1 0x1 ADD SWAP1 PUSH2 0x1D75 JUMP JUMPDEST JUMPDEST POP SWAP1 POP PUSH2 0x1D9E SWAP2 SWAP1 PUSH2 0x1EB5 JUMP JUMPDEST POP SWAP1 JUMP JUMPDEST DUP3 DUP1 SLOAD PUSH2 0x1DAE SWAP1 PUSH2 0x3294 JUMP JUMPDEST SWAP1 PUSH1 0x0 MSTORE PUSH1 0x20 PUSH1 0x0 KECCAK256 SWAP1 PUSH1 0x1F ADD PUSH1 0x20 SWAP1 DIV DUP2 ADD SWAP3 DUP3 PUSH2 0x1DD0 JUMPI PUSH1 0x0 DUP6 SSTORE PUSH2 0x1E17 JUMP JUMPDEST DUP3 PUSH1 0x1F LT PUSH2 0x1DE9 JUMPI DUP1 CALLDATALOAD PUSH1 0xFF NOT AND DUP4 DUP1 ADD OR DUP6 SSTORE PUSH2 0x1E17 JUMP JUMPDEST DUP3 DUP1 ADD PUSH1 0x1 ADD DUP6 SSTORE DUP3 ISZERO PUSH2 0x1E17 JUMPI SWAP2 DUP3 ADD JUMPDEST DUP3 DUP2 GT ISZERO PUSH2 0x1E16 JUMPI DUP3 CALLDATALOAD DUP3 SSTORE SWAP2 PUSH1 0x20 ADD SWAP2 SWAP1 PUSH1 0x1 ADD SWAP1 PUSH2 0x1DFB JUMP JUMPDEST JUMPDEST POP SWAP1 POP PUSH2 0x1E24 SWAP2 SWAP1 PUSH2 0x1EB5 JUMP JUMPDEST POP SWAP1 JUMP JUMPDEST DUP3 DUP1 SLOAD PUSH2 0x1E34 SWAP1 PUSH2 0x3294 JUMP JUMPDEST SWAP1 PUSH1 0x0 MSTORE PUSH1 0x20 PUSH1 0x0 KECCAK256 SWAP1 PUSH1 0x1F ADD PUSH1 0x20 SWAP1 DIV DUP2 ADD SWAP3 DUP3 PUSH2 0x1E56 JUMPI PUSH1 0x0 DUP6 SSTORE PUSH2 0x1EA4 JUMP JUMPDEST DUP3 PUSH1 0x1F LT PUSH2 0x1E67 JUMPI DUP1 SLOAD DUP6 SSTORE PUSH2 0x1EA4 JUMP JUMPDEST DUP3 DUP1 ADD PUSH1 0x1 ADD DUP6 SSTORE DUP3 ISZERO PUSH2 0x1EA4 JUMPI PUSH1 0x0 MSTORE PUSH1 0x20 PUSH1 0x0 KECCAK256 SWAP2 PUSH1 0x1F ADD PUSH1 0x20 SWAP1 DIV DUP3 ADD JUMPDEST DUP3 DUP2 GT ISZERO PUSH2 0x1EA3 JUMPI DUP3 SLOAD DUP3 SSTORE SWAP2 PUSH1 0x1 ADD SWAP2 SWAP1 PUSH1 0x1 ADD SWAP1 PUSH2 0x1E88 JUMP JUMPDEST JUMPDEST POP SWAP1 POP PUSH2 0x1EB1 SWAP2 SWAP1 PUSH2 0x1EB5 JUMP JUMPDEST POP SWAP1 JUMP JUMPDEST JUMPDEST DUP1 DUP3 GT ISZERO PUSH2 0x1ECE JUMPI PUSH1 0x0 DUP2 PUSH1 0x0 SWAP1 SSTORE POP PUSH1 0x1 ADD PUSH2 0x1EB6 JUMP JUMPDEST POP SWAP1 JUMP JUMPDEST PUSH1 0x0 PUSH2 0x1EE5 PUSH2 0x1EE0 DUP5 PUSH2 0x2EF1 JUMP JUMPDEST PUSH2 0x2ECC JUMP JUMPDEST SWAP1 POP DUP1 DUP4 DUP3 MSTORE PUSH1 0x20 DUP3 ADD SWAP1 POP DUP3 DUP6 PUSH1 0x20 DUP7 MUL DUP3 ADD GT ISZERO PUSH2 0x1F08 JUMPI PUSH2 0x1F07 PUSH2 0x347E JUMP JUMPDEST JUMPDEST PUSH1 0x0 JUMPDEST DUP6 DUP2 LT ISZERO PUSH2 0x1F38 JUMPI DUP2 PUSH2 0x1F1E DUP9 DUP3 PUSH2 0x2082 JUMP JUMPDEST DUP5 MSTORE PUSH1 0x20 DUP5 ADD SWAP4 POP PUSH1 0x20 DUP4 ADD SWAP3 POP POP PUSH1 0x1 DUP2 ADD SWAP1 POP PUSH2 0x1F0B JUMP JUMPDEST POP POP POP SWAP4 SWAP3 POP POP POP JUMP JUMPDEST PUSH1 0x0 PUSH2 0x1F55 PUSH2 0x1F50 DUP5 PUSH2 0x2F1D JUMP JUMPDEST PUSH2 0x2ECC JUMP JUMPDEST SWAP1 POP DUP1 DUP4 DUP3 MSTORE PUSH1 0x20 DUP3 ADD SWAP1 POP DUP3 DUP6 PUSH1 0x20 DUP7 MUL DUP3 ADD GT ISZERO PUSH2 0x1F78 JUMPI PUSH2 0x1F77 PUSH2 0x347E JUMP JUMPDEST JUMPDEST PUSH1 0x0 JUMPDEST DUP6 DUP2 LT ISZERO PUSH2 0x1FC6 JUMPI DUP2 CALLDATALOAD PUSH8 0xFFFFFFFFFFFFFFFF DUP2 GT ISZERO PUSH2 0x1F9E JUMPI PUSH2 0x1F9D PUSH2 0x346A JUMP JUMPDEST JUMPDEST DUP1 DUP7 ADD PUSH2 0x1FAB DUP10 DUP3 PUSH2 0x2177 JUMP JUMPDEST DUP6 MSTORE PUSH1 0x20 DUP6 ADD SWAP5 POP PUSH1 0x20 DUP5 ADD SWAP4 POP POP POP PUSH1 0x1 DUP2 ADD SWAP1 POP PUSH2 0x1F7B JUMP JUMPDEST POP POP POP SWAP4 SWAP3 POP POP POP JUMP JUMPDEST PUSH1 0x0 PUSH2 0x1FE3 PUSH2 0x1FDE DUP5 PUSH2 0x2F49 JUMP JUMPDEST PUSH2 0x2ECC JUMP JUMPDEST SWAP1 POP DUP1 DUP4 DUP3 MSTORE PUSH1 0x20 DUP3 ADD SWAP1 POP DUP3 DUP6 PUSH1 0x20 DUP7 MUL DUP3 ADD GT ISZERO PUSH2 0x2006 JUMPI PUSH2 0x2005 PUSH2 0x347E JUMP JUMPDEST JUMPDEST PUSH1 0x0 JUMPDEST DUP6 DUP2 LT ISZERO PUSH2 0x2036 JUMPI DUP2 PUSH2 0x201C DUP9 DUP3 PUSH2 0x21A5 JUMP JUMPDEST DUP5 MSTORE PUSH1 0x20 DUP5 ADD SWAP4 POP PUSH1 0x20 DUP4 ADD SWAP3 POP POP PUSH1 0x1 DUP2 ADD SWAP1 POP PUSH2 0x2009 JUMP JUMPDEST POP POP POP SWAP4 SWAP3 POP POP POP JUMP JUMPDEST PUSH1 0x0 PUSH2 0x2053 PUSH2 0x204E DUP5 PUSH2 0x2F75 JUMP JUMPDEST PUSH2 0x2ECC JUMP JUMPDEST SWAP1 POP DUP3 DUP2 MSTORE PUSH1 0x20 DUP2 ADD DUP5 DUP5 DUP5 ADD GT ISZERO PUSH2 0x206F JUMPI PUSH2 0x206E PUSH2 0x3488 JUMP JUMPDEST JUMPDEST PUSH2 0x207A DUP5 DUP3 DUP6 PUSH2 0x3252 JUMP JUMPDEST POP SWAP4 SWAP3 POP POP POP JUMP JUMPDEST PUSH1 0x0 DUP2 CALLDATALOAD SWAP1 POP PUSH2 0x2091 DUP2 PUSH2 0x3911 JUMP JUMPDEST SWAP3 SWAP2 POP POP JUMP JUMPDEST PUSH1 0x0 DUP3 PUSH1 0x1F DUP4 ADD SLT PUSH2 0x20AC JUMPI PUSH2 0x20AB PUSH2 0x346A JUMP JUMPDEST JUMPDEST DUP2 CALLDATALOAD PUSH2 0x20BC DUP5 DUP3 PUSH1 0x20 DUP7 ADD PUSH2 0x1ED2 JUMP JUMPDEST SWAP2 POP POP SWAP3 SWAP2 POP POP JUMP JUMPDEST PUSH1 0x0 DUP1 DUP4 PUSH1 0x1F DUP5 ADD SLT PUSH2 0x20DB JUMPI PUSH2 0x20DA PUSH2 0x346A JUMP JUMPDEST JUMPDEST DUP3 CALLDATALOAD SWAP1 POP PUSH8 0xFFFFFFFFFFFFFFFF DUP2 GT ISZERO PUSH2 0x20F8 JUMPI PUSH2 0x20F7 PUSH2 0x3465 JUMP JUMPDEST JUMPDEST PUSH1 0x20 DUP4 ADD SWAP2 POP DUP4 PUSH1 0x20 DUP3 MUL DUP4 ADD GT ISZERO PUSH2 0x2114 JUMPI PUSH2 0x2113 PUSH2 0x347E JUMP JUMPDEST JUMPDEST SWAP3 POP SWAP3 SWAP1 POP JUMP JUMPDEST PUSH1 0x0 DUP3 PUSH1 0x1F DUP4 ADD SLT PUSH2 0x2130 JUMPI PUSH2 0x212F PUSH2 0x346A JUMP JUMPDEST JUMPDEST DUP2 CALLDATALOAD PUSH2 0x2140 DUP5 DUP3 PUSH1 0x20 DUP7 ADD PUSH2 0x1F42 JUMP JUMPDEST SWAP2 POP POP SWAP3 SWAP2 POP POP JUMP JUMPDEST PUSH1 0x0 DUP3 PUSH1 0x1F DUP4 ADD SLT PUSH2 0x215E JUMPI PUSH2 0x215D PUSH2 0x346A JUMP JUMPDEST JUMPDEST DUP2 CALLDATALOAD PUSH2 0x216E DUP5 DUP3 PUSH1 0x20 DUP7 ADD PUSH2 0x1FD0 JUMP JUMPDEST SWAP2 POP POP SWAP3 SWAP2 POP POP JUMP JUMPDEST PUSH1 0x0 DUP3 PUSH1 0x1F DUP4 ADD SLT PUSH2 0x218C JUMPI PUSH2 0x218B PUSH2 0x346A JUMP JUMPDEST JUMPDEST DUP2 CALLDATALOAD PUSH2 0x219C DUP5 DUP3 PUSH1 0x20 DUP7 ADD PUSH2 0x2040 JUMP JUMPDEST SWAP2 POP POP SWAP3 SWAP2 POP POP JUMP JUMPDEST PUSH1 0x0 DUP2 CALLDATALOAD SWAP1 POP PUSH2 0x21B4 DUP2 PUSH2 0x3928 JUMP JUMPDEST SWAP3 SWAP2 POP POP JUMP JUMPDEST PUSH1 0x0 DUP2 CALLDATALOAD SWAP1 POP PUSH2 0x21C9 DUP2 PUSH2 0x393F JUMP JUMPDEST SWAP3 SWAP2 POP POP JUMP JUMPDEST PUSH1 0x0 PUSH1 0x20 DUP3 DUP5 SUB SLT ISZERO PUSH2 0x21E5 JUMPI PUSH2 0x21E4 PUSH2 0x3497 JUMP JUMPDEST JUMPDEST PUSH1 0x0 PUSH2 0x21F3 DUP5 DUP3 DUP6 ADD PUSH2 0x2082 JUMP JUMPDEST SWAP2 POP POP SWAP3 SWAP2 POP POP JUMP JUMPDEST PUSH1 0x0 DUP1 PUSH1 0x40 DUP4 DUP6 SUB SLT ISZERO PUSH2 0x2213 JUMPI PUSH2 0x2212 PUSH2 0x3497 JUMP JUMPDEST JUMPDEST PUSH1 0x0 PUSH2 0x2221 DUP6 DUP3 DUP7 ADD PUSH2 0x2082 JUMP JUMPDEST SWAP3 POP POP PUSH1 0x20 PUSH2 0x2232 DUP6 DUP3 DUP7 ADD PUSH2 0x21A5 JUMP JUMPDEST SWAP2 POP POP SWAP3 POP SWAP3 SWAP1 POP JUMP JUMPDEST PUSH1 0x0 PUSH1 0x20 DUP3 DUP5 SUB SLT ISZERO PUSH2 0x2252 JUMPI PUSH2 0x2251 PUSH2 0x3497 JUMP JUMPDEST JUMPDEST PUSH1 0x0 PUSH2 0x2260 DUP5 DUP3 DUP6 ADD PUSH2 0x21A5 JUMP JUMPDEST SWAP2 POP POP SWAP3 SWAP2 POP POP JUMP JUMPDEST PUSH1 0x0 DUP1 PUSH1 0x0 DUP1 PUSH1 0x80 DUP6 DUP8 SUB SLT ISZERO PUSH2 0x2283 JUMPI PUSH2 0x2282 PUSH2 0x3497 JUMP JUMPDEST JUMPDEST PUSH1 0x0 PUSH2 0x2291 DUP8 DUP3 DUP9 ADD PUSH2 0x21A5 JUMP JUMPDEST SWAP5 POP POP PUSH1 0x20 PUSH2 0x22A2 DUP8 DUP3 DUP9 ADD PUSH2 0x2082 JUMP JUMPDEST SWAP4 POP POP PUSH1 0x40 DUP6 ADD CALLDATALOAD PUSH8 0xFFFFFFFFFFFFFFFF DUP2 GT ISZERO PUSH2 0x22C3 JUMPI PUSH2 0x22C2 PUSH2 0x348D JUMP JUMPDEST JUMPDEST PUSH2 0x22CF DUP8 DUP3 DUP9 ADD PUSH2 0x211B JUMP JUMPDEST SWAP3 POP POP PUSH1 0x60 DUP6 ADD CALLDATALOAD PUSH8 0xFFFFFFFFFFFFFFFF DUP2 GT ISZERO PUSH2 0x22F0 JUMPI PUSH2 0x22EF PUSH2 0x348D JUMP JUMPDEST JUMPDEST PUSH2 0x22FC DUP8 DUP3 DUP9 ADD PUSH2 0x2149 JUMP JUMPDEST SWAP2 POP POP SWAP3 SWAP6 SWAP2 SWAP5 POP SWAP3 POP JUMP JUMPDEST PUSH1 0x0 DUP1 PUSH1 0x0 DUP1 PUSH1 0x0 DUP1 PUSH1 0x0 DUP1 PUSH1 0x0 PUSH2 0x100 DUP11 DUP13 SUB SLT ISZERO PUSH2 0x232B JUMPI PUSH2 0x232A PUSH2 0x3497 JUMP JUMPDEST JUMPDEST PUSH1 0x0 PUSH2 0x2339 DUP13 DUP3 DUP14 ADD PUSH2 0x21BA JUMP JUMPDEST SWAP10 POP POP PUSH1 0x20 DUP11 ADD CALLDATALOAD PUSH8 0xFFFFFFFFFFFFFFFF DUP2 GT ISZERO PUSH2 0x235A JUMPI PUSH2 0x2359 PUSH2 0x348D JUMP JUMPDEST JUMPDEST PUSH2 0x2366 DUP13 DUP3 DUP14 ADD PUSH2 0x2097 JUMP JUMPDEST SWAP9 POP POP PUSH1 0x40 PUSH2 0x2377 DUP13 DUP3 DUP14 ADD PUSH2 0x2082 JUMP JUMPDEST SWAP8 POP POP PUSH1 0x60 PUSH2 0x2388 DUP13 DUP3 DUP14 ADD PUSH2 0x21A5 JUMP JUMPDEST SWAP7 POP POP PUSH1 0x80 PUSH2 0x2399 DUP13 DUP3 DUP14 ADD PUSH2 0x21A5 JUMP JUMPDEST SWAP6 POP POP PUSH1 0xA0 DUP11 ADD CALLDATALOAD PUSH8 0xFFFFFFFFFFFFFFFF DUP2 GT ISZERO PUSH2 0x23BA JUMPI PUSH2 0x23B9 PUSH2 0x348D JUMP JUMPDEST JUMPDEST PUSH2 0x23C6 DUP13 DUP3 DUP14 ADD PUSH2 0x2177 JUMP JUMPDEST SWAP5 POP POP PUSH1 0xC0 DUP11 ADD CALLDATALOAD PUSH8 0xFFFFFFFFFFFFFFFF DUP2 GT ISZERO PUSH2 0x23E7 JUMPI PUSH2 0x23E6 PUSH2 0x348D JUMP JUMPDEST JUMPDEST PUSH2 0x23F3 DUP13 DUP3 DUP14 ADD PUSH2 0x20C5 JUMP JUMPDEST SWAP4 POP SWAP4 POP POP PUSH1 0xE0 PUSH2 0x2406 DUP13 DUP3 DUP14 ADD PUSH2 0x21A5 JUMP JUMPDEST SWAP2 POP POP SWAP3 SWAP6 SWAP9 POP SWAP3 SWAP6 SWAP9 POP SWAP3 SWAP6 SWAP9 JUMP JUMPDEST PUSH1 0x0 PUSH2 0x2422 DUP4 DUP4 PUSH2 0x2444 JUMP JUMPDEST PUSH1 0x20 DUP4 ADD SWAP1 POP SWAP3 SWAP2 POP POP JUMP JUMPDEST PUSH1 0x0 PUSH2 0x243B DUP5 DUP5 DUP5 PUSH2 0x2545 JUMP JUMPDEST SWAP1 POP SWAP4 SWAP3 POP POP POP JUMP JUMPDEST PUSH2 0x244D DUP2 PUSH2 0x31D3 JUMP JUMPDEST DUP3 MSTORE POP POP JUMP JUMPDEST PUSH2 0x245C DUP2 PUSH2 0x31D3 JUMP JUMPDEST DUP3 MSTORE POP POP JUMP JUMPDEST PUSH1 0x0 PUSH2 0x246D DUP3 PUSH2 0x2FD5 JUMP JUMPDEST PUSH2 0x2477 DUP2 DUP6 PUSH2 0x3005 JUMP JUMPDEST SWAP4 POP PUSH2 0x2482 DUP4 PUSH2 0x2FA6 JUMP JUMPDEST DUP1 PUSH1 0x0 JUMPDEST DUP4 DUP2 LT ISZERO PUSH2 0x24B3 JUMPI DUP2 MLOAD PUSH2 0x249A DUP9 DUP3 PUSH2 0x2416 JUMP JUMPDEST SWAP8 POP PUSH2 0x24A5 DUP4 PUSH2 0x2FEB JUMP JUMPDEST SWAP3 POP POP PUSH1 0x1 DUP2 ADD SWAP1 POP PUSH2 0x2486 JUMP JUMPDEST POP DUP6 SWAP4 POP POP POP POP SWAP3 SWAP2 POP POP JUMP JUMPDEST PUSH1 0x0 PUSH2 0x24CC DUP4 DUP6 PUSH2 0x3016 JUMP JUMPDEST SWAP4 POP DUP4 PUSH1 0x20 DUP5 MUL DUP6 ADD PUSH2 0x24DE DUP5 PUSH2 0x2FB6 JUMP JUMPDEST DUP1 PUSH1 0x0 JUMPDEST DUP8 DUP2 LT ISZERO PUSH2 0x2524 JUMPI DUP5 DUP5 SUB DUP10 MSTORE PUSH2 0x24F9 DUP3 DUP5 PUSH2 0x3054 JUMP JUMPDEST PUSH2 0x2504 DUP7 DUP3 DUP5 PUSH2 0x242E JUMP JUMPDEST SWAP6 POP PUSH2 0x250F DUP5 PUSH2 0x2FF8 JUMP JUMPDEST SWAP4 POP PUSH1 0x20 DUP12 ADD SWAP11 POP POP POP PUSH1 0x1 DUP2 ADD SWAP1 POP PUSH2 0x24E2 JUMP JUMPDEST POP DUP3 SWAP8 POP DUP8 SWAP5 POP POP POP POP POP SWAP4 SWAP3 POP POP POP JUMP JUMPDEST PUSH2 0x253F DUP2 PUSH2 0x31E5 JUMP JUMPDEST DUP3 MSTORE POP POP JUMP JUMPDEST PUSH1 0x0 PUSH2 0x2551 DUP4 DUP6 PUSH2 0x3027 JUMP JUMPDEST SWAP4 POP PUSH2 0x255E DUP4 DUP6 DUP5 PUSH2 0x3252 JUMP JUMPDEST PUSH2 0x2567 DUP4 PUSH2 0x349C JUMP JUMPDEST DUP5 ADD SWAP1 POP SWAP4 SWAP3 POP POP POP JUMP JUMPDEST PUSH1 0x0 PUSH2 0x257E DUP4 DUP6 PUSH2 0x3049 JUMP JUMPDEST SWAP4 POP PUSH2 0x258B DUP4 DUP6 DUP5 PUSH2 0x3252 JUMP JUMPDEST DUP3 DUP5 ADD SWAP1 POP SWAP4 SWAP3 POP POP POP JUMP JUMPDEST PUSH1 0x0 PUSH2 0x25A2 DUP3 PUSH2 0x2FE0 JUMP JUMPDEST PUSH2 0x25AC DUP2 DUP6 PUSH2 0x3038 JUMP JUMPDEST SWAP4 POP PUSH2 0x25BC DUP2 DUP6 PUSH1 0x20 DUP7 ADD PUSH2 0x3261 JUMP JUMPDEST PUSH2 0x25C5 DUP2 PUSH2 0x349C JUMP JUMPDEST DUP5 ADD SWAP2 POP POP SWAP3 SWAP2 POP POP JUMP JUMPDEST PUSH1 0x0 PUSH2 0x25DB DUP3 PUSH2 0x2FE0 JUMP JUMPDEST PUSH2 0x25E5 DUP2 DUP6 PUSH2 0x3049 JUMP JUMPDEST SWAP4 POP PUSH2 0x25F5 DUP2 DUP6 PUSH1 0x20 DUP7 ADD PUSH2 0x3261 JUMP JUMPDEST DUP1 DUP5 ADD SWAP2 POP POP SWAP3 SWAP2 POP POP JUMP JUMPDEST PUSH1 0x0 DUP2 SLOAD PUSH2 0x260E DUP2 PUSH2 0x3294 JUMP JUMPDEST PUSH2 0x2618 DUP2 DUP7 PUSH2 0x3049 JUMP JUMPDEST SWAP5 POP PUSH1 0x1 DUP3 AND PUSH1 0x0 DUP2 EQ PUSH2 0x2633 JUMPI PUSH1 0x1 DUP2 EQ PUSH2 0x2644 JUMPI PUSH2 0x2677 JUMP JUMPDEST PUSH1 0xFF NOT DUP4 AND DUP7 MSTORE DUP2 DUP7 ADD SWAP4 POP PUSH2 0x2677 JUMP JUMPDEST PUSH2 0x264D DUP6 PUSH2 0x2FC0 JUMP JUMPDEST PUSH1 0x0 JUMPDEST DUP4 DUP2 LT ISZERO PUSH2 0x266F JUMPI DUP2 SLOAD DUP2 DUP10 ADD MSTORE PUSH1 0x1 DUP3 ADD SWAP2 POP PUSH1 0x20 DUP2 ADD SWAP1 POP PUSH2 0x2650 JUMP JUMPDEST DUP4 DUP9 ADD SWAP6 POP POP POP JUMPDEST POP POP POP SWAP3 SWAP2 POP POP JUMP JUMPDEST PUSH1 0x0 PUSH2 0x268D PUSH1 0x12 DUP4 PUSH2 0x3038 JUMP JUMPDEST SWAP2 POP PUSH2 0x2698 DUP3 PUSH2 0x34AD JUMP JUMPDEST PUSH1 0x20 DUP3 ADD SWAP1 POP SWAP2 SWAP1 POP JUMP JUMPDEST PUSH1 0x0 PUSH2 0x26B0 PUSH1 0x2C DUP4 PUSH2 0x3038 JUMP JUMPDEST SWAP2 POP PUSH2 0x26BB DUP3 PUSH2 0x34D6 JUMP JUMPDEST PUSH1 0x40 DUP3 ADD SWAP1 POP SWAP2 SWAP1 POP JUMP JUMPDEST PUSH1 0x0 PUSH2 0x26D3 PUSH1 0x22 DUP4 PUSH2 0x3038 JUMP JUMPDEST SWAP2 POP PUSH2 0x26DE DUP3 PUSH2 0x3525 JUMP JUMPDEST PUSH1 0x40 DUP3 ADD SWAP1 POP SWAP2 SWAP1 POP JUMP JUMPDEST PUSH1 0x0 PUSH2 0x26F6 PUSH1 0xD DUP4 PUSH2 0x3038 JUMP JUMPDEST SWAP2 POP PUSH2 0x2701 DUP3 PUSH2 0x3574 JUMP JUMPDEST PUSH1 0x20 DUP3 ADD SWAP1 POP SWAP2 SWAP1 POP JUMP JUMPDEST PUSH1 0x0 PUSH2 0x2719 PUSH1 0x1B DUP4 PUSH2 0x3038 JUMP JUMPDEST SWAP2 POP PUSH2 0x2724 DUP3 PUSH2 0x359D JUMP JUMPDEST PUSH1 0x20 DUP3 ADD SWAP1 POP SWAP2 SWAP1 POP JUMP JUMPDEST PUSH1 0x0 PUSH2 0x273C PUSH1 0x14 DUP4 PUSH2 0x3038 JUMP JUMPDEST SWAP2 POP PUSH2 0x2747 DUP3 PUSH2 0x35C6 JUMP JUMPDEST PUSH1 0x20 DUP3 ADD SWAP1 POP SWAP2 SWAP1 POP JUMP JUMPDEST PUSH1 0x0 PUSH2 0x275F PUSH1 0x23 DUP4 PUSH2 0x3038 JUMP JUMPDEST SWAP2 POP PUSH2 0x276A DUP3 PUSH2 0x35EF JUMP JUMPDEST PUSH1 0x40 DUP3 ADD SWAP1 POP SWAP2 SWAP1 POP JUMP JUMPDEST PUSH1 0x0 PUSH2 0x2782 PUSH1 0x18 DUP4 PUSH2 0x3038 JUMP JUMPDEST SWAP2 POP PUSH2 0x278D DUP3 PUSH2 0x363E JUMP JUMPDEST PUSH1 0x20 DUP3 ADD SWAP1 POP SWAP2 SWAP1 POP JUMP JUMPDEST PUSH1 0x0 PUSH2 0x27A5 PUSH1 0x14 DUP4 PUSH2 0x3038 JUMP JUMPDEST SWAP2 POP PUSH2 0x27B0 DUP3 PUSH2 0x3667 JUMP JUMPDEST PUSH1 0x20 DUP3 ADD SWAP1 POP SWAP2 SWAP1 POP JUMP JUMPDEST PUSH1 0x0 PUSH2 0x27C8 PUSH1 0x23 DUP4 PUSH2 0x3038 JUMP JUMPDEST SWAP2 POP PUSH2 0x27D3 DUP3 PUSH2 0x3690 JUMP JUMPDEST PUSH1 0x40 DUP3 ADD SWAP1 POP SWAP2 SWAP1 POP JUMP JUMPDEST PUSH1 0x0 PUSH2 0x27EB PUSH1 0x12 DUP4 PUSH2 0x3038 JUMP JUMPDEST SWAP2 POP PUSH2 0x27F6 DUP3 PUSH2 0x36DF JUMP JUMPDEST PUSH1 0x20 DUP3 ADD SWAP1 POP SWAP2 SWAP1 POP JUMP JUMPDEST PUSH1 0x0 PUSH2 0x280E PUSH1 0x23 DUP4 PUSH2 0x3038 JUMP JUMPDEST SWAP2 POP PUSH2 0x2819 DUP3 PUSH2 0x3708 JUMP JUMPDEST PUSH1 0x40 DUP3 ADD SWAP1 POP SWAP2 SWAP1 POP JUMP JUMPDEST PUSH1 0x0 PUSH2 0x2831 PUSH1 0x2A DUP4 PUSH2 0x3038 JUMP JUMPDEST SWAP2 POP PUSH2 0x283C DUP3 PUSH2 0x3757 JUMP JUMPDEST PUSH1 0x40 DUP3 ADD SWAP1 POP SWAP2 SWAP1 POP JUMP JUMPDEST PUSH1 0x0 PUSH2 0x2854 PUSH1 0x21 DUP4 PUSH2 0x3038 JUMP JUMPDEST SWAP2 POP PUSH2 0x285F DUP3 PUSH2 0x37A6 JUMP JUMPDEST PUSH1 0x40 DUP3 ADD SWAP1 POP SWAP2 SWAP1 POP JUMP JUMPDEST PUSH1 0x0 PUSH2 0x2877 PUSH1 0x24 DUP4 PUSH2 0x3038 JUMP JUMPDEST SWAP2 POP PUSH2 0x2882 DUP3 PUSH2 0x37F5 JUMP JUMPDEST PUSH1 0x40 DUP3 ADD SWAP1 POP SWAP2 SWAP1 POP JUMP JUMPDEST PUSH1 0x0 PUSH2 0x289A PUSH1 0x4 DUP4 PUSH2 0x3038 JUMP JUMPDEST SWAP2 POP PUSH2 0x28A5 DUP3 PUSH2 0x3844 JUMP JUMPDEST PUSH1 0x20 DUP3 ADD SWAP1 POP SWAP2 SWAP1 POP JUMP JUMPDEST PUSH1 0x0 PUSH2 0x28BD PUSH1 0x1D DUP4 PUSH2 0x3038 JUMP JUMPDEST SWAP2 POP PUSH2 0x28C8 DUP3 PUSH2 0x386D JUMP JUMPDEST PUSH1 0x20 DUP3 ADD SWAP1 POP SWAP2 SWAP1 POP JUMP JUMPDEST PUSH1 0x0 PUSH2 0x28E0 PUSH1 0x4 DUP4 PUSH2 0x3038 JUMP JUMPDEST SWAP2 POP PUSH2 0x28EB DUP3 PUSH2 0x3896 JUMP JUMPDEST PUSH1 0x20 DUP3 ADD SWAP1 POP SWAP2 SWAP1 POP JUMP JUMPDEST PUSH1 0x0 PUSH2 0x2903 PUSH1 0x9 DUP4 PUSH2 0x3038 JUMP JUMPDEST SWAP2 POP PUSH2 0x290E DUP3 PUSH2 0x38BF JUMP JUMPDEST PUSH1 0x20 DUP3 ADD SWAP1 POP SWAP2 SWAP1 POP JUMP JUMPDEST PUSH1 0x0 PUSH2 0x2926 PUSH1 0x1F DUP4 PUSH2 0x3038 JUMP JUMPDEST SWAP2 POP PUSH2 0x2931 DUP3 PUSH2 0x38E8 JUMP JUMPDEST PUSH1 0x20 DUP3 ADD SWAP1 POP SWAP2 SWAP1 POP JUMP JUMPDEST PUSH2 0x2945 DUP2 PUSH2 0x31F1 JUMP JUMPDEST DUP3 MSTORE POP POP JUMP JUMPDEST PUSH2 0x2954 DUP2 PUSH2 0x320D JUMP JUMPDEST DUP3 MSTORE POP POP JUMP JUMPDEST PUSH2 0x2963 DUP2 PUSH2 0x323B JUMP JUMPDEST DUP3 MSTORE POP POP JUMP JUMPDEST PUSH2 0x2972 DUP2 PUSH2 0x3245 JUMP JUMPDEST DUP3 MSTORE POP POP JUMP JUMPDEST PUSH1 0x0 PUSH2 0x2985 DUP3 DUP5 DUP7 PUSH2 0x2572 JUMP JUMPDEST SWAP2 POP DUP2 SWAP1 POP SWAP4 SWAP3 POP POP POP JUMP JUMPDEST PUSH1 0x0 PUSH2 0x299D DUP3 DUP5 PUSH2 0x25D0 JUMP JUMPDEST SWAP2 POP DUP2 SWAP1 POP SWAP3 SWAP2 POP POP JUMP JUMPDEST PUSH1 0x0 PUSH2 0x29B4 DUP3 DUP5 PUSH2 0x2601 JUMP JUMPDEST SWAP2 POP DUP2 SWAP1 POP SWAP3 SWAP2 POP POP JUMP JUMPDEST PUSH1 0x0 PUSH1 0xE0 DUP3 ADD SWAP1 POP PUSH2 0x29D4 PUSH1 0x0 DUP4 ADD DUP11 PUSH2 0x2453 JUMP JUMPDEST PUSH2 0x29E1 PUSH1 0x20 DUP4 ADD DUP10 PUSH2 0x2969 JUMP JUMPDEST DUP2 DUP2 SUB PUSH1 0x40 DUP4 ADD MSTORE PUSH2 0x29F3 DUP2 DUP9 PUSH2 0x2597 JUMP JUMPDEST SWAP1 POP PUSH2 0x2A02 PUSH1 0x60 DUP4 ADD DUP8 PUSH2 0x295A JUMP JUMPDEST PUSH2 0x2A0F PUSH1 0x80 DUP4 ADD DUP7 PUSH2 0x295A JUMP JUMPDEST PUSH2 0x2A1C PUSH1 0xA0 DUP4 ADD DUP6 PUSH2 0x294B JUMP JUMPDEST PUSH2 0x2A29 PUSH1 0xC0 DUP4 ADD DUP5 PUSH2 0x295A JUMP JUMPDEST SWAP9 SWAP8 POP POP POP POP POP POP POP POP JUMP JUMPDEST PUSH1 0x0 PUSH1 0x20 DUP3 ADD SWAP1 POP DUP2 DUP2 SUB PUSH1 0x0 DUP4 ADD MSTORE PUSH2 0x2A4F DUP2 DUP5 PUSH2 0x2597 JUMP JUMPDEST SWAP1 POP SWAP3 SWAP2 POP POP JUMP JUMPDEST PUSH1 0x0 PUSH1 0x20 DUP3 ADD SWAP1 POP DUP2 DUP2 SUB PUSH1 0x0 DUP4 ADD MSTORE PUSH2 0x2A70 DUP2 PUSH2 0x2680 JUMP JUMPDEST SWAP1 POP SWAP2 SWAP1 POP JUMP JUMPDEST PUSH1 0x0 PUSH1 0x20 DUP3 ADD SWAP1 POP DUP2 DUP2 SUB PUSH1 0x0 DUP4 ADD MSTORE PUSH2 0x2A90 DUP2 PUSH2 0x26A3 JUMP JUMPDEST SWAP1 POP SWAP2 SWAP1 POP JUMP JUMPDEST PUSH1 0x0 PUSH1 0x20 DUP3 ADD SWAP1 POP DUP2 DUP2 SUB PUSH1 0x0 DUP4 ADD MSTORE PUSH2 0x2AB0 DUP2 PUSH2 0x26C6 JUMP JUMPDEST SWAP1 POP SWAP2 SWAP1 POP JUMP JUMPDEST PUSH1 0x0 PUSH1 0x20 DUP3 ADD SWAP1 POP DUP2 DUP2 SUB PUSH1 0x0 DUP4 ADD MSTORE PUSH2 0x2AD0 DUP2 PUSH2 0x26E9 JUMP JUMPDEST SWAP1 POP SWAP2 SWAP1 POP JUMP JUMPDEST PUSH1 0x0 PUSH1 0x20 DUP3 ADD SWAP1 POP DUP2 DUP2 SUB PUSH1 0x0 DUP4 ADD MSTORE PUSH2 0x2AF0 DUP2 PUSH2 0x270C JUMP JUMPDEST SWAP1 POP SWAP2 SWAP1 POP JUMP JUMPDEST PUSH1 0x0 PUSH1 0x20 DUP3 ADD SWAP1 POP DUP2 DUP2 SUB PUSH1 0x0 DUP4 ADD MSTORE PUSH2 0x2B10 DUP2 PUSH2 0x272F JUMP JUMPDEST SWAP1 POP SWAP2 SWAP1 POP JUMP JUMPDEST PUSH1 0x0 PUSH1 0x20 DUP3 ADD SWAP1 POP DUP2 DUP2 SUB PUSH1 0x0 DUP4 ADD MSTORE PUSH2 0x2B30 DUP2 PUSH2 0x2752 JUMP JUMPDEST SWAP1 POP SWAP2 SWAP1 POP JUMP JUMPDEST PUSH1 0x0 PUSH1 0x20 DUP3 ADD SWAP1 POP DUP2 DUP2 SUB PUSH1 0x0 DUP4 ADD MSTORE PUSH2 0x2B50 DUP2 PUSH2 0x2775 JUMP JUMPDEST SWAP1 POP SWAP2 SWAP1 POP JUMP JUMPDEST PUSH1 0x0 PUSH1 0x20 DUP3 ADD SWAP1 POP DUP2 DUP2 SUB PUSH1 0x0 DUP4 ADD MSTORE PUSH2 0x2B70 DUP2 PUSH2 0x2798 JUMP JUMPDEST SWAP1 POP SWAP2 SWAP1 POP JUMP JUMPDEST PUSH1 0x0 PUSH1 0x20 DUP3 ADD SWAP1 POP DUP2 DUP2 SUB PUSH1 0x0 DUP4 ADD MSTORE PUSH2 0x2B90 DUP2 PUSH2 0x27BB JUMP JUMPDEST SWAP1 POP SWAP2 SWAP1 POP JUMP JUMPDEST PUSH1 0x0 PUSH1 0x20 DUP3 ADD SWAP1 POP DUP2 DUP2 SUB PUSH1 0x0 DUP4 ADD MSTORE PUSH2 0x2BB0 DUP2 PUSH2 0x27DE JUMP JUMPDEST SWAP1 POP SWAP2 SWAP1 POP JUMP JUMPDEST PUSH1 0x0 PUSH1 0x20 DUP3 ADD SWAP1 POP DUP2 DUP2 SUB PUSH1 0x0 DUP4 ADD MSTORE PUSH2 0x2BD0 DUP2 PUSH2 0x2801 JUMP JUMPDEST SWAP1 POP SWAP2 SWAP1 POP JUMP JUMPDEST PUSH1 0x0 PUSH1 0x20 DUP3 ADD SWAP1 POP DUP2 DUP2 SUB PUSH1 0x0 DUP4 ADD MSTORE PUSH2 0x2BF0 DUP2 PUSH2 0x2824 JUMP JUMPDEST SWAP1 POP SWAP2 SWAP1 POP JUMP JUMPDEST PUSH1 0x0 PUSH1 0x20 DUP3 ADD SWAP1 POP DUP2 DUP2 SUB PUSH1 0x0 DUP4 ADD MSTORE PUSH2 0x2C10 DUP2 PUSH2 0x2847 JUMP JUMPDEST SWAP1 POP SWAP2 SWAP1 POP JUMP JUMPDEST PUSH1 0x0 PUSH1 0x20 DUP3 ADD SWAP1 POP DUP2 DUP2 SUB PUSH1 0x0 DUP4 ADD MSTORE PUSH2 0x2C30 DUP2 PUSH2 0x286A JUMP JUMPDEST SWAP1 POP SWAP2 SWAP1 POP JUMP JUMPDEST PUSH1 0x0 PUSH1 0x60 DUP3 ADD SWAP1 POP DUP2 DUP2 SUB PUSH1 0x0 DUP4 ADD MSTORE PUSH2 0x2C50 DUP2 PUSH2 0x288D JUMP JUMPDEST SWAP1 POP PUSH2 0x2C5F PUSH1 0x20 DUP4 ADD DUP6 PUSH2 0x2453 JUMP JUMPDEST PUSH2 0x2C6C PUSH1 0x40 DUP4 ADD DUP5 PUSH2 0x295A JUMP JUMPDEST SWAP4 SWAP3 POP POP POP JUMP JUMPDEST PUSH1 0x0 PUSH1 0x20 DUP3 ADD SWAP1 POP DUP2 DUP2 SUB PUSH1 0x0 DUP4 ADD MSTORE PUSH2 0x2C8C DUP2 PUSH2 0x28B0 JUMP JUMPDEST SWAP1 POP SWAP2 SWAP1 POP JUMP JUMPDEST PUSH1 0x0 PUSH1 0x60 DUP3 ADD SWAP1 POP DUP2 DUP2 SUB PUSH1 0x0 DUP4 ADD MSTORE PUSH2 0x2CAC DUP2 PUSH2 0x28D3 JUMP JUMPDEST SWAP1 POP PUSH2 0x2CBB PUSH1 0x20 DUP4 ADD DUP6 PUSH2 0x2453 JUMP JUMPDEST PUSH2 0x2CC8 PUSH1 0x40 DUP4 ADD DUP5 PUSH2 0x295A JUMP JUMPDEST SWAP4 SWAP3 POP POP POP JUMP JUMPDEST PUSH1 0x0 PUSH1 0x20 DUP3 ADD SWAP1 POP DUP2 DUP2 SUB PUSH1 0x0 DUP4 ADD MSTORE PUSH2 0x2CE8 DUP2 PUSH2 0x28F6 JUMP JUMPDEST SWAP1 POP SWAP2 SWAP1 POP JUMP JUMPDEST PUSH1 0x0 PUSH1 0x20 DUP3 ADD SWAP1 POP DUP2 DUP2 SUB PUSH1 0x0 DUP4 ADD MSTORE PUSH2 0x2D08 DUP2 PUSH2 0x2919 JUMP JUMPDEST SWAP1 POP SWAP2 SWAP1 POP JUMP JUMPDEST PUSH1 0x0 PUSH1 0x40 DUP3 ADD SWAP1 POP PUSH2 0x2D24 PUSH1 0x0 DUP4 ADD DUP6 PUSH2 0x293C JUMP JUMPDEST PUSH2 0x2D31 PUSH1 0x20 DUP4 ADD DUP5 PUSH2 0x293C JUMP JUMPDEST SWAP4 SWAP3 POP POP POP JUMP JUMPDEST PUSH1 0x0 PUSH1 0x20 DUP3 ADD SWAP1 POP PUSH2 0x2D4D PUSH1 0x0 DUP4 ADD DUP5 PUSH2 0x295A JUMP JUMPDEST SWAP3 SWAP2 POP POP JUMP JUMPDEST PUSH1 0x0 PUSH1 0x80 DUP3 ADD SWAP1 POP PUSH2 0x2D68 PUSH1 0x0 DUP4 ADD DUP8 PUSH2 0x295A JUMP JUMPDEST PUSH2 0x2D75 PUSH1 0x20 DUP4 ADD DUP7 PUSH2 0x2453 JUMP JUMPDEST PUSH2 0x2D82 PUSH1 0x40 DUP4 ADD DUP6 PUSH2 0x2536 JUMP JUMPDEST PUSH2 0x2D8F PUSH1 0x60 DUP4 ADD DUP5 PUSH2 0x295A JUMP JUMPDEST SWAP6 SWAP5 POP POP POP POP POP JUMP JUMPDEST PUSH1 0x0 PUSH1 0xE0 DUP3 ADD SWAP1 POP PUSH2 0x2DAD PUSH1 0x0 DUP4 ADD DUP12 PUSH2 0x295A JUMP JUMPDEST DUP2 DUP2 SUB PUSH1 0x20 DUP4 ADD MSTORE PUSH2 0x2DBF DUP2 DUP11 PUSH2 0x2462 JUMP JUMPDEST SWAP1 POP PUSH2 0x2DCE PUSH1 0x40 DUP4 ADD DUP10 PUSH2 0x2453 JUMP JUMPDEST PUSH2 0x2DDB PUSH1 0x60 DUP4 ADD DUP9 PUSH2 0x295A JUMP JUMPDEST PUSH2 0x2DE8 PUSH1 0x80 DUP4 ADD DUP8 PUSH2 0x295A JUMP JUMPDEST DUP2 DUP2 SUB PUSH1 0xA0 DUP4 ADD MSTORE PUSH2 0x2DFA DUP2 DUP7 PUSH2 0x2597 JUMP JUMPDEST SWAP1 POP DUP2 DUP2 SUB PUSH1 0xC0 DUP4 ADD MSTORE PUSH2 0x2E0F DUP2 DUP5 DUP7 PUSH2 0x24C0 JUMP JUMPDEST SWAP1 POP SWAP10 SWAP9 POP POP POP POP POP POP POP POP POP JUMP JUMPDEST PUSH1 0x0 PUSH1 0x40 DUP3 ADD SWAP1 POP PUSH2 0x2E33 PUSH1 0x0 DUP4 ADD DUP6 PUSH2 0x295A JUMP JUMPDEST DUP2 DUP2 SUB PUSH1 0x20 DUP4 ADD MSTORE PUSH2 0x2E45 DUP2 DUP5 PUSH2 0x2597 JUMP JUMPDEST SWAP1 POP SWAP4 SWAP3 POP POP POP JUMP JUMPDEST PUSH1 0x0 PUSH1 0x20 DUP3 ADD SWAP1 POP PUSH2 0x2E63 PUSH1 0x0 DUP4 ADD DUP5 PUSH2 0x2969 JUMP JUMPDEST SWAP3 SWAP2 POP POP JUMP JUMPDEST PUSH1 0x0 DUP1 DUP4 CALLDATALOAD PUSH1 0x1 PUSH1 0x20 SUB DUP5 CALLDATASIZE SUB SUB DUP2 SLT PUSH2 0x2E86 JUMPI PUSH2 0x2E85 PUSH2 0x3474 JUMP JUMPDEST JUMPDEST DUP1 DUP5 ADD SWAP3 POP DUP3 CALLDATALOAD SWAP2 POP PUSH8 0xFFFFFFFFFFFFFFFF DUP3 GT ISZERO PUSH2 0x2EA8 JUMPI PUSH2 0x2EA7 PUSH2 0x346F JUMP JUMPDEST JUMPDEST PUSH1 0x20 DUP4 ADD SWAP3 POP PUSH1 0x1 DUP3 MUL CALLDATASIZE SUB DUP4 SGT ISZERO PUSH2 0x2EC4 JUMPI PUSH2 0x2EC3 PUSH2 0x3483 JUMP JUMPDEST JUMPDEST POP SWAP3 POP SWAP3 SWAP1 POP JUMP JUMPDEST PUSH1 0x0 PUSH2 0x2ED6 PUSH2 0x2EE7 JUMP JUMPDEST SWAP1 POP PUSH2 0x2EE2 DUP3 DUP3 PUSH2 0x32C6 JUMP JUMPDEST SWAP2 SWAP1 POP JUMP JUMPDEST PUSH1 0x0 PUSH1 0x40 MLOAD SWAP1 POP SWAP1 JUMP JUMPDEST PUSH1 0x0 PUSH8 0xFFFFFFFFFFFFFFFF DUP3 GT ISZERO PUSH2 0x2F0C JUMPI PUSH2 0x2F0B PUSH2 0x3431 JUMP JUMPDEST JUMPDEST PUSH1 0x20 DUP3 MUL SWAP1 POP PUSH1 0x20 DUP2 ADD SWAP1 POP SWAP2 SWAP1 POP JUMP JUMPDEST PUSH1 0x0 PUSH8 0xFFFFFFFFFFFFFFFF DUP3 GT ISZERO PUSH2 0x2F38 JUMPI PUSH2 0x2F37 PUSH2 0x3431 JUMP JUMPDEST JUMPDEST PUSH1 0x20 DUP3 MUL SWAP1 POP PUSH1 0x20 DUP2 ADD SWAP1 POP SWAP2 SWAP1 POP JUMP JUMPDEST PUSH1 0x0 PUSH8 0xFFFFFFFFFFFFFFFF DUP3 GT ISZERO PUSH2 0x2F64 JUMPI PUSH2 0x2F63 PUSH2 0x3431 JUMP JUMPDEST JUMPDEST PUSH1 0x20 DUP3 MUL SWAP1 POP PUSH1 0x20 DUP2 ADD SWAP1 POP SWAP2 SWAP1 POP JUMP JUMPDEST PUSH1 0x0 PUSH8 0xFFFFFFFFFFFFFFFF DUP3 GT ISZERO PUSH2 0x2F90 JUMPI PUSH2 0x2F8F PUSH2 0x3431 JUMP JUMPDEST JUMPDEST PUSH2 0x2F99 DUP3 PUSH2 0x349C JUMP JUMPDEST SWAP1 POP PUSH1 0x20 DUP2 ADD SWAP1 POP SWAP2 SWAP1 POP JUMP JUMPDEST PUSH1 0x0 DUP2 SWAP1 POP PUSH1 0x20 DUP3 ADD SWAP1 POP SWAP2 SWAP1 POP JUMP JUMPDEST PUSH1 0x0 DUP2 SWAP1 POP SWAP2 SWAP1 POP JUMP JUMPDEST PUSH1 0x0 DUP2 SWAP1 POP DUP2 PUSH1 0x0 MSTORE PUSH1 0x20 PUSH1 0x0 KECCAK256 SWAP1 POP SWAP2 SWAP1 POP JUMP JUMPDEST PUSH1 0x0 DUP2 MLOAD SWAP1 POP SWAP2 SWAP1 POP JUMP JUMPDEST PUSH1 0x0 DUP2 MLOAD SWAP1 POP SWAP2 SWAP1 POP JUMP JUMPDEST PUSH1 0x0 PUSH1 0x20 DUP3 ADD SWAP1 POP SWAP2 SWAP1 POP JUMP JUMPDEST PUSH1 0x0 PUSH1 0x20 DUP3 ADD SWAP1 POP SWAP2 SWAP1 POP JUMP JUMPDEST PUSH1 0x0 DUP3 DUP3 MSTORE PUSH1 0x20 DUP3 ADD SWAP1 POP SWAP3 SWAP2 POP POP JUMP JUMPDEST PUSH1 0x0 DUP3 DUP3 MSTORE PUSH1 0x20 DUP3 ADD SWAP1 POP SWAP3 SWAP2 POP POP JUMP JUMPDEST PUSH1 0x0 DUP3 DUP3 MSTORE PUSH1 0x20 DUP3 ADD SWAP1 POP SWAP3 SWAP2 POP POP JUMP JUMPDEST PUSH1 0x0 DUP3 DUP3 MSTORE PUSH1 0x20 DUP3 ADD SWAP1 POP SWAP3 SWAP2 POP POP JUMP JUMPDEST PUSH1 0x0 DUP2 SWAP1 POP SWAP3 SWAP2 POP POP JUMP JUMPDEST PUSH1 0x0 DUP1 DUP4 CALLDATALOAD PUSH1 0x1 PUSH1 0x20 SUB DUP5 CALLDATASIZE SUB SUB DUP2 SLT PUSH2 0x3071 JUMPI PUSH2 0x3070 PUSH2 0x3492 JUMP JUMPDEST JUMPDEST DUP4 DUP2 ADD SWAP3 POP DUP3 CALLDATALOAD SWAP2 POP PUSH1 0x20 DUP4 ADD SWAP3 POP PUSH8 0xFFFFFFFFFFFFFFFF DUP3 GT ISZERO PUSH2 0x3099 JUMPI PUSH2 0x3098 PUSH2 0x3460 JUMP JUMPDEST JUMPDEST PUSH1 0x1 DUP3 MUL CALLDATASIZE SUB DUP5 SGT ISZERO PUSH2 0x30AF JUMPI PUSH2 0x30AE PUSH2 0x3479 JUMP JUMPDEST JUMPDEST POP SWAP3 POP SWAP3 SWAP1 POP JUMP JUMPDEST PUSH1 0x0 PUSH2 0x30C2 DUP3 PUSH2 0x320D JUMP JUMPDEST SWAP2 POP PUSH2 0x30CD DUP4 PUSH2 0x320D JUMP JUMPDEST SWAP3 POP DUP3 PUSH2 0xFFFF SUB DUP3 GT ISZERO PUSH2 0x30E4 JUMPI PUSH2 0x30E3 PUSH2 0x33A4 JUMP JUMPDEST JUMPDEST DUP3 DUP3 ADD SWAP1 POP SWAP3 SWAP2 POP POP JUMP JUMPDEST PUSH1 0x0 PUSH2 0x30FA DUP3 PUSH2 0x323B JUMP JUMPDEST SWAP2 POP PUSH2 0x3105 DUP4 PUSH2 0x323B JUMP JUMPDEST SWAP3 POP DUP3 PUSH32 0xFFFFFFFFFFFFFFFFFFFFFFFFFFFFFFFFFFFFFFFFFFFFFFFFFFFFFFFFFFFFFFFF SUB DUP3 GT ISZERO PUSH2 0x313A JUMPI PUSH2 0x3139 PUSH2 0x33A4 JUMP JUMPDEST JUMPDEST DUP3 DUP3 ADD SWAP1 POP SWAP3 SWAP2 POP POP JUMP JUMPDEST PUSH1 0x0 PUSH2 0x3150 DUP3 PUSH2 0x323B JUMP JUMPDEST SWAP2 POP PUSH2 0x315B DUP4 PUSH2 0x323B JUMP JUMPDEST SWAP3 POP DUP2 PUSH32 0xFFFFFFFFFFFFFFFFFFFFFFFFFFFFFFFFFFFFFFFFFFFFFFFFFFFFFFFFFFFFFFFF DIV DUP4 GT DUP3 ISZERO ISZERO AND ISZERO PUSH2 0x3194 JUMPI PUSH2 0x3193 PUSH2 0x33A4 JUMP JUMPDEST JUMPDEST DUP3 DUP3 MUL SWAP1 POP SWAP3 SWAP2 POP POP JUMP JUMPDEST PUSH1 0x0 PUSH2 0x31AA DUP3 PUSH2 0x323B JUMP JUMPDEST SWAP2 POP PUSH2 0x31B5 DUP4 PUSH2 0x323B JUMP JUMPDEST SWAP3 POP DUP3 DUP3 LT ISZERO PUSH2 0x31C8 JUMPI PUSH2 0x31C7 PUSH2 0x33A4 JUMP JUMPDEST JUMPDEST DUP3 DUP3 SUB SWAP1 POP SWAP3 SWAP2 POP POP JUMP JUMPDEST PUSH1 0x0 PUSH2 0x31DE DUP3 PUSH2 0x321B JUMP JUMPDEST SWAP1 POP SWAP2 SWAP1 POP JUMP JUMPDEST PUSH1 0x0 DUP2 ISZERO ISZERO SWAP1 POP SWAP2 SWAP1 POP JUMP JUMPDEST PUSH1 0x0 PUSH16 0xFFFFFFFFFFFFFFFFFFFFFFFFFFFFFFFF DUP3 AND SWAP1 POP SWAP2 SWAP1 POP JUMP JUMPDEST PUSH1 0x0 PUSH2 0xFFFF DUP3 AND SWAP1 POP SWAP2 SWAP1 POP JUMP JUMPDEST PUSH1 0x0 PUSH20 0xFFFFFFFFFFFFFFFFFFFFFFFFFFFFFFFFFFFFFFFF DUP3 AND SWAP1 POP SWAP2 SWAP1 POP JUMP JUMPDEST PUSH1 0x0 DUP2 SWAP1 POP SWAP2 SWAP1 POP JUMP JUMPDEST PUSH1 0x0 PUSH1 0xFF DUP3 AND SWAP1 POP SWAP2 SWAP1 POP JUMP JUMPDEST DUP3 DUP2 DUP4 CALLDATACOPY PUSH1 0x0 DUP4 DUP4 ADD MSTORE POP POP POP JUMP JUMPDEST PUSH1 0x0 JUMPDEST DUP4 DUP2 LT ISZERO PUSH2 0x327F JUMPI DUP1 DUP3 ADD MLOAD DUP2 DUP5 ADD MSTORE PUSH1 0x20 DUP2 ADD SWAP1 POP PUSH2 0x3264 JUMP JUMPDEST DUP4 DUP2 GT ISZERO PUSH2 0x328E JUMPI PUSH1 0x0 DUP5 DUP5 ADD MSTORE JUMPDEST POP POP POP POP JUMP JUMPDEST PUSH1 0x0 PUSH1 0x2 DUP3 DIV SWAP1 POP PUSH1 0x1 DUP3 AND DUP1 PUSH2 0x32AC JUMPI PUSH1 0x7F DUP3 AND SWAP2 POP JUMPDEST PUSH1 0x20 DUP3 LT DUP2 EQ ISZERO PUSH2 0x32C0 JUMPI PUSH2 0x32BF PUSH2 0x33D3 JUMP JUMPDEST JUMPDEST POP SWAP2 SWAP1 POP JUMP JUMPDEST PUSH2 0x32CF DUP3 PUSH2 0x349C JUMP JUMPDEST DUP2 ADD DUP2 DUP2 LT PUSH8 0xFFFFFFFFFFFFFFFF DUP3 GT OR ISZERO PUSH2 0x32EE JUMPI PUSH2 0x32ED PUSH2 0x3431 JUMP JUMPDEST JUMPDEST DUP1 PUSH1 0x40 MSTORE POP POP POP JUMP JUMPDEST PUSH1 0x0 PUSH2 0x3302 DUP3 PUSH2 0x31F1 JUMP JUMPDEST SWAP2 POP PUSH16 0xFFFFFFFFFFFFFFFFFFFFFFFFFFFFFFFF DUP3 EQ ISZERO PUSH2 0x3325 JUMPI PUSH2 0x3324 PUSH2 0x33A4 JUMP JUMPDEST JUMPDEST PUSH1 0x1 DUP3 ADD SWAP1 POP SWAP2 SWAP1 POP JUMP JUMPDEST PUSH1 0x0 PUSH2 0x333B DUP3 PUSH2 0x320D JUMP JUMPDEST SWAP2 POP PUSH2 0xFFFF DUP3 EQ ISZERO PUSH2 0x3350 JUMPI PUSH2 0x334F PUSH2 0x33A4 JUMP JUMPDEST JUMPDEST PUSH1 0x1 DUP3 ADD SWAP1 POP SWAP2 SWAP1 POP JUMP JUMPDEST PUSH1 0x0 PUSH2 0x3366 DUP3 PUSH2 0x323B JUMP JUMPDEST SWAP2 POP PUSH32 0xFFFFFFFFFFFFFFFFFFFFFFFFFFFFFFFFFFFFFFFFFFFFFFFFFFFFFFFFFFFFFFFF DUP3 EQ ISZERO PUSH2 0x3399 JUMPI PUSH2 0x3398 PUSH2 0x33A4 JUMP JUMPDEST JUMPDEST PUSH1 0x1 DUP3 ADD SWAP1 POP SWAP2 SWAP1 POP JUMP JUMPDEST PUSH32 0x4E487B7100000000000000000000000000000000000000000000000000000000 PUSH1 0x0 MSTORE PUSH1 0x11 PUSH1 0x4 MSTORE PUSH1 0x24 PUSH1 0x0 REVERT JUMPDEST PUSH32 0x4E487B7100000000000000000000000000000000000000000000000000000000 PUSH1 0x0 MSTORE PUSH1 0x22 PUSH1 0x4 MSTORE PUSH1 0x24 PUSH1 0x0 REVERT JUMPDEST PUSH32 0x4E487B7100000000000000000000000000000000000000000000000000000000 PUSH1 0x0 MSTORE PUSH1 0x32 PUSH1 0x4 MSTORE PUSH1 0x24 PUSH1 0x0 REVERT JUMPDEST PUSH32 0x4E487B7100000000000000000000000000000000000000000000000000000000 PUSH1 0x0 MSTORE PUSH1 0x41 PUSH1 0x4 MSTORE PUSH1 0x24 PUSH1 0x0 REVERT JUMPDEST PUSH1 0x0 DUP1 REVERT JUMPDEST PUSH1 0x0 DUP1 REVERT JUMPDEST PUSH1 0x0 DUP1 REVERT JUMPDEST PUSH1 0x0 DUP1 REVERT JUMPDEST PUSH1 0x0 DUP1 REVERT JUMPDEST PUSH1 0x0 DUP1 REVERT JUMPDEST PUSH1 0x0 DUP1 REVERT JUMPDEST PUSH1 0x0 DUP1 REVERT JUMPDEST PUSH1 0x0 DUP1 REVERT JUMPDEST PUSH1 0x0 DUP1 REVERT JUMPDEST PUSH1 0x0 DUP1 REVERT JUMPDEST PUSH1 0x0 DUP1 REVERT JUMPDEST PUSH1 0x0 PUSH1 0x1F NOT PUSH1 0x1F DUP4 ADD AND SWAP1 POP SWAP2 SWAP1 POP JUMP JUMPDEST PUSH32 0x50726F706F73616C3A20696E6163746976650000000000000000000000000000 PUSH1 0x0 DUP3 ADD MSTORE POP JUMP JUMPDEST PUSH32 0x456E642074696D652073686F756C642062652067726561746572207468616E20 PUSH1 0x0 DUP3 ADD MSTORE PUSH32 0x63757272656E742074696D650000000000000000000000000000000000000000 PUSH1 0x20 DUP3 ADD MSTORE POP JUMP JUMPDEST PUSH32 0x45524332303A206275726E20616D6F756E7420657863656564732062616C616E PUSH1 0x0 DUP3 ADD MSTORE PUSH32 0x6365000000000000000000000000000000000000000000000000000000000000 PUSH1 0x20 DUP3 ADD MSTORE POP JUMP JUMPDEST PUSH32 0x616C726561647920766F74656400000000000000000000000000000000000000 PUSH1 0x0 DUP3 ADD MSTORE POP JUMP JUMPDEST PUSH32 0x50726F706F73616C3A20696E76616C69642063616E6469646174650000000000 PUSH1 0x0 DUP3 ADD MSTORE POP JUMP JUMPDEST PUSH32 0x6E6F7420612076616C69642070726F706F73616C000000000000000000000000 PUSH1 0x0 DUP3 ADD MSTORE POP JUMP JUMPDEST PUSH32 0x6E6F7420612076616C696420766F74657220666F7220746869732070726F706F PUSH1 0x0 DUP3 ADD MSTORE PUSH32 0x73616C0000000000000000000000000000000000000000000000000000000000 PUSH1 0x20 DUP3 ADD MSTORE POP JUMP JUMPDEST PUSH32 0x70726F706F73616C206E6F742073746172746564207965740000000000000000 PUSH1 0x0 DUP3 ADD MSTORE POP JUMP JUMPDEST PUSH32 0x70726F706F73616C206E6F742073746172746564000000000000000000000000 PUSH1 0x0 DUP3 ADD MSTORE POP JUMP JUMPDEST PUSH32 0x4E6F7420612076616C696420766F74657220666F7220746869732070726F706F PUSH1 0x0 DUP3 ADD MSTORE PUSH32 0x73616C0000000000000000000000000000000000000000000000000000000000 PUSH1 0x20 DUP3 ADD MSTORE POP JUMP JUMPDEST PUSH32 0x696E76616C69642070726F706F73616C49640000000000000000000000000000 PUSH1 0x0 DUP3 ADD MSTORE POP JUMP JUMPDEST PUSH32 0x6E6F742073756666696369656E742062616C616E636520746F20636173742076 PUSH1 0x0 DUP3 ADD MSTORE PUSH32 0x6F74650000000000000000000000000000000000000000000000000000000000 PUSH1 0x20 DUP3 ADD MSTORE POP JUMP JUMPDEST PUSH32 0x456E642074696D652073686F756C642062652067726561746572207468616E20 PUSH1 0x0 DUP3 ADD MSTORE PUSH32 0x73746172742074696D6500000000000000000000000000000000000000000000 PUSH1 0x20 DUP3 ADD MSTORE POP JUMP JUMPDEST PUSH32 0x45524332303A206275726E2066726F6D20746865207A65726F20616464726573 PUSH1 0x0 DUP3 ADD MSTORE PUSH32 0x7300000000000000000000000000000000000000000000000000000000000000 PUSH1 0x20 DUP3 ADD MSTORE POP JUMP JUMPDEST PUSH32 0x6E6F7420612076616C6964206C656E677468206F66206861736820726573706F PUSH1 0x0 DUP3 ADD MSTORE PUSH32 0x6E73652100000000000000000000000000000000000000000000000000000000 PUSH1 0x20 DUP3 ADD MSTORE POP JUMP JUMPDEST PUSH32 0x6D696E7400000000000000000000000000000000000000000000000000000000 PUSH1 0x0 DUP3 ADD MSTORE POP JUMP JUMPDEST PUSH32 0x496E76616C696420766F74657220666F722070726F706F73616C496421000000 PUSH1 0x0 DUP3 ADD MSTORE POP JUMP JUMPDEST PUSH32 0x6275726E00000000000000000000000000000000000000000000000000000000 PUSH1 0x0 DUP3 ADD MSTORE POP JUMP JUMPDEST PUSH32 0x6E6F7420766F7465640000000000000000000000000000000000000000000000 PUSH1 0x0 DUP3 ADD MSTORE POP JUMP JUMPDEST PUSH32 0x45524332303A206D696E7420746F20746865207A65726F206164647265737300 PUSH1 0x0 DUP3 ADD MSTORE POP JUMP JUMPDEST PUSH2 0x391A DUP2 PUSH2 0x31D3 JUMP JUMPDEST DUP2 EQ PUSH2 0x3925 JUMPI PUSH1 0x0 DUP1 REVERT JUMPDEST POP JUMP JUMPDEST PUSH2 0x3931 DUP2 PUSH2 0x323B JUMP JUMPDEST DUP2 EQ PUSH2 0x393C JUMPI PUSH1 0x0 DUP1 REVERT JUMPDEST POP JUMP JUMPDEST PUSH2 0x3948 DUP2 PUSH2 0x3245 JUMP JUMPDEST DUP2 EQ PUSH2 0x3953 JUMPI PUSH1 0x0 DUP1 REVERT JUMPDEST POP JUMP INVALID LOG2 PUSH5 0x6970667358 0x22 SLT KECCAK256 CODECOPY 0x1E DELEGATECALL 0xA8 0x2E SWAP3 SWAP15 PUSH26 0xD5F5E1AD94E20FA92233121D658CFF782A84FDD8C22F90AB6473 PUSH16 0x6C634300080700330000000000000000 "
				},
				"gasEstimates": {
					"creation": {
						"codeDepositCost": "2946400",
						"executionCost": "infinite",
						"totalCost": "infinite"
					},
					"external": {
						"allVoters(address,uint256)": "infinite",
						"balanceOf(address)": "2863",
						"createProposal(uint8,address[],address,uint256,uint256,string,string[],uint256)": "infinite",
						"decimals()": "410",
						"name()": "infinite",
						"proposals(uint256)": "infinite",
						"responseProposal(uint256,address,string[],uint256[])": "infinite",
						"resultOfProposal(uint256)": "infinite",
						"symbol()": "infinite",
						"totalSupply()": "2482",
						"userProposal(address)": "infinite"
					}
				},
				"methodIdentifiers": {
					"allVoters(address,uint256)": "ab9c70d4",
					"balanceOf(address)": "70a08231",
					"createProposal(uint8,address[],address,uint256,uint256,string,string[],uint256)": "4de77e48",
					"decimals()": "313ce567",
					"name()": "06fdde03",
					"proposals(uint256)": "013cf08b",
					"responseProposal(uint256,address,string[],uint256[])": "5c230eee",
					"resultOfProposal(uint256)": "9d671564",
					"symbol()": "95d89b41",
					"totalSupply()": "18160ddd",
					"userProposal(address)": "e745d68e"
				}
			},
			"storageLayout": {
				"storage": [
					{
						"astId": 636,
						"contract": "Qvoting.sol:Qvoting",
						"label": "_balances",
						"offset": 0,
						"slot": "0",
						"type": "t_mapping(t_address,t_uint256)"
					},
					{
						"astId": 638,
						"contract": "Qvoting.sol:Qvoting",
						"label": "_totalSupply",
						"offset": 0,
						"slot": "1",
						"type": "t_uint256"
					},
					{
						"astId": 640,
						"contract": "Qvoting.sol:Qvoting",
						"label": "_name",
						"offset": 0,
						"slot": "2",
						"type": "t_string_storage"
					},
					{
						"astId": 642,
						"contract": "Qvoting.sol:Qvoting",
						"label": "_symbol",
						"offset": 0,
						"slot": "3",
						"type": "t_string_storage"
					},
					{
						"astId": 856,
						"contract": "Qvoting.sol:Qvoting",
						"label": "owner",
						"offset": 0,
						"slot": "4",
						"type": "t_address"
					},
					{
						"astId": 945,
						"contract": "Qvoting.sol:Qvoting",
						"label": "proposalId",
						"offset": 0,
						"slot": "5",
						"type": "t_uint256"
					},
					{
						"astId": 950,
						"contract": "Qvoting.sol:Qvoting",
						"label": "userProposal",
						"offset": 0,
						"slot": "6",
						"type": "t_mapping(t_address,t_struct(UserProposal)418_storage)"
					},
					{
						"astId": 955,
						"contract": "Qvoting.sol:Qvoting",
						"label": "proposals",
						"offset": 0,
						"slot": "7",
						"type": "t_mapping(t_uint256,t_struct(proposal)66_storage)"
					},
					{
						"astId": 962,
						"contract": "Qvoting.sol:Qvoting",
						"label": "allVoters",
						"offset": 0,
						"slot": "8",
						"type": "t_mapping(t_address,t_mapping(t_uint256,t_struct(voter)522_storage))"
					},
					{
						"astId": 966,
						"contract": "Qvoting.sol:Qvoting",
						"label": "validProposals",
						"offset": 0,
						"slot": "9",
						"type": "t_mapping(t_uint256,t_bool)"
					}
				],
				"types": {
					"t_address": {
						"encoding": "inplace",
						"label": "address",
						"numberOfBytes": "20"
					},
					"t_bool": {
						"encoding": "inplace",
						"label": "bool",
						"numberOfBytes": "1"
					},
					"t_mapping(t_address,t_bool)": {
						"encoding": "mapping",
						"key": "t_address",
						"label": "mapping(address => bool)",
						"numberOfBytes": "32",
						"value": "t_bool"
					},
					"t_mapping(t_address,t_mapping(t_uint256,t_struct(voter)522_storage))": {
						"encoding": "mapping",
						"key": "t_address",
						"label": "mapping(address => mapping(uint256 => struct voterLibrary.voter))",
						"numberOfBytes": "32",
						"value": "t_mapping(t_uint256,t_struct(voter)522_storage)"
					},
					"t_mapping(t_address,t_struct(UserProposal)418_storage)": {
						"encoding": "mapping",
						"key": "t_address",
						"label": "mapping(address => struct UserProposalLibrary.UserProposal)",
						"numberOfBytes": "32",
						"value": "t_struct(UserProposal)418_storage"
					},
					"t_mapping(t_address,t_uint256)": {
						"encoding": "mapping",
						"key": "t_address",
						"label": "mapping(address => uint256)",
						"numberOfBytes": "32",
						"value": "t_uint256"
					},
					"t_mapping(t_string_memory_ptr,t_bool)": {
						"encoding": "mapping",
						"key": "t_string_memory_ptr",
						"label": "mapping(string => bool)",
						"numberOfBytes": "32",
						"value": "t_bool"
					},
					"t_mapping(t_string_memory_ptr,t_uint256)": {
						"encoding": "mapping",
						"key": "t_string_memory_ptr",
						"label": "mapping(string => uint256)",
						"numberOfBytes": "32",
						"value": "t_uint256"
					},
					"t_mapping(t_uint128,t_uint256)": {
						"encoding": "mapping",
						"key": "t_uint128",
						"label": "mapping(uint128 => uint256)",
						"numberOfBytes": "32",
						"value": "t_uint256"
					},
					"t_mapping(t_uint256,t_bool)": {
						"encoding": "mapping",
						"key": "t_uint256",
						"label": "mapping(uint256 => bool)",
						"numberOfBytes": "32",
						"value": "t_bool"
					},
					"t_mapping(t_uint256,t_mapping(t_uint256,t_string_storage))": {
						"encoding": "mapping",
						"key": "t_uint256",
						"label": "mapping(uint256 => mapping(uint256 => string))",
						"numberOfBytes": "32",
						"value": "t_mapping(t_uint256,t_string_storage)"
					},
					"t_mapping(t_uint256,t_string_storage)": {
						"encoding": "mapping",
						"key": "t_uint256",
						"label": "mapping(uint256 => string)",
						"numberOfBytes": "32",
						"value": "t_string_storage"
					},
					"t_mapping(t_uint256,t_struct(proposal)66_storage)": {
						"encoding": "mapping",
						"key": "t_uint256",
						"label": "mapping(uint256 => struct proposalLibrary.proposal)",
						"numberOfBytes": "32",
						"value": "t_struct(proposal)66_storage"
					},
					"t_mapping(t_uint256,t_struct(voter)522_storage)": {
						"encoding": "mapping",
						"key": "t_uint256",
						"label": "mapping(uint256 => struct voterLibrary.voter)",
						"numberOfBytes": "32",
						"value": "t_struct(voter)522_storage"
					},
					"t_string_memory_ptr": {
						"encoding": "bytes",
						"label": "string",
						"numberOfBytes": "32"
					},
					"t_string_storage": {
						"encoding": "bytes",
						"label": "string",
						"numberOfBytes": "32"
					},
					"t_struct(UserProposal)418_storage": {
						"encoding": "inplace",
						"label": "struct UserProposalLibrary.UserProposal",
						"members": [
							{
								"astId": 397,
								"contract": "Qvoting.sol:Qvoting",
								"label": "proposalCount",
								"offset": 0,
								"slot": "0",
								"type": "t_uint128"
							},
							{
								"astId": 399,
								"contract": "Qvoting.sol:Qvoting",
								"label": "responseCount",
								"offset": 16,
								"slot": "0",
								"type": "t_uint128"
							},
							{
								"astId": 403,
								"contract": "Qvoting.sol:Qvoting",
								"label": "proposalCreated",
								"offset": 0,
								"slot": "1",
								"type": "t_mapping(t_uint128,t_uint256)"
							},
							{
								"astId": 407,
								"contract": "Qvoting.sol:Qvoting",
								"label": "proposalResponsed",
								"offset": 0,
								"slot": "2",
								"type": "t_mapping(t_uint128,t_uint256)"
							},
							{
								"astId": 413,
								"contract": "Qvoting.sol:Qvoting",
								"label": "proposalAnswer",
								"offset": 0,
								"slot": "3",
								"type": "t_mapping(t_uint256,t_mapping(t_uint256,t_string_storage))"
							},
							{
								"astId": 417,
								"contract": "Qvoting.sol:Qvoting",
								"label": "responsedProposal",
								"offset": 0,
								"slot": "4",
								"type": "t_mapping(t_uint256,t_bool)"
							}
						],
						"numberOfBytes": "160"
					},
					"t_struct(proposal)66_storage": {
						"encoding": "inplace",
						"label": "struct proposalLibrary.proposal",
						"members": [
							{
								"astId": 33,
								"contract": "Qvoting.sol:Qvoting",
								"label": "creator",
								"offset": 0,
								"slot": "0",
								"type": "t_address"
							},
							{
								"astId": 35,
								"contract": "Qvoting.sol:Qvoting",
								"label": "status",
								"offset": 20,
								"slot": "0",
								"type": "t_uint8"
							},
							{
								"astId": 37,
								"contract": "Qvoting.sol:Qvoting",
								"label": "disc",
								"offset": 0,
								"slot": "1",
								"type": "t_string_storage"
							},
							{
								"astId": 39,
								"contract": "Qvoting.sol:Qvoting",
								"label": "startTime",
								"offset": 0,
								"slot": "2",
								"type": "t_uint256"
							},
							{
								"astId": 41,
								"contract": "Qvoting.sol:Qvoting",
								"label": "expirationTime",
								"offset": 0,
								"slot": "3",
								"type": "t_uint256"
							},
							{
								"astId": 43,
								"contract": "Qvoting.sol:Qvoting",
								"label": "numOfOptions",
								"offset": 0,
								"slot": "4",
								"type": "t_uint16"
							},
							{
								"astId": 45,
								"contract": "Qvoting.sol:Qvoting",
								"label": "voteRight",
								"offset": 0,
								"slot": "5",
								"type": "t_uint256"
							},
							{
								"astId": 49,
								"contract": "Qvoting.sol:Qvoting",
								"label": "voters",
								"offset": 0,
								"slot": "6",
								"type": "t_mapping(t_address,t_bool)"
							},
							{
								"astId": 53,
								"contract": "Qvoting.sol:Qvoting",
								"label": "cand",
								"offset": 0,
								"slot": "7",
								"type": "t_mapping(t_string_memory_ptr,t_bool)"
							},
							{
								"astId": 57,
								"contract": "Qvoting.sol:Qvoting",
								"label": "candHash",
								"offset": 0,
								"slot": "8",
								"type": "t_mapping(t_uint256,t_string_storage)"
							},
							{
								"astId": 61,
								"contract": "Qvoting.sol:Qvoting",
								"label": "result",
								"offset": 0,
								"slot": "9",
								"type": "t_mapping(t_uint256,t_string_storage)"
							},
							{
								"astId": 65,
								"contract": "Qvoting.sol:Qvoting",
								"label": "votes",
								"offset": 0,
								"slot": "10",
								"type": "t_mapping(t_string_memory_ptr,t_uint256)"
							}
						],
						"numberOfBytes": "352"
					},
					"t_struct(voter)522_storage": {
						"encoding": "inplace",
						"label": "struct voterLibrary.voter",
						"members": [
							{
								"astId": 515,
								"contract": "Qvoting.sol:Qvoting",
								"label": "proposalId",
								"offset": 0,
								"slot": "0",
								"type": "t_uint256"
							},
							{
								"astId": 517,
								"contract": "Qvoting.sol:Qvoting",
								"label": "voterAddress",
								"offset": 0,
								"slot": "1",
								"type": "t_address"
							},
							{
								"astId": 519,
								"contract": "Qvoting.sol:Qvoting",
								"label": "hasVoted",
								"offset": 20,
								"slot": "1",
								"type": "t_bool"
							},
							{
								"astId": 521,
								"contract": "Qvoting.sol:Qvoting",
								"label": "voteNum",
								"offset": 0,
								"slot": "2",
								"type": "t_uint256"
							}
						],
						"numberOfBytes": "96"
					},
					"t_uint128": {
						"encoding": "inplace",
						"label": "uint128",
						"numberOfBytes": "16"
					},
					"t_uint16": {
						"encoding": "inplace",
						"label": "uint16",
						"numberOfBytes": "2"
					},
					"t_uint256": {
						"encoding": "inplace",
						"label": "uint256",
						"numberOfBytes": "32"
					},
					"t_uint8": {
						"encoding": "inplace",
						"label": "uint8",
						"numberOfBytes": "1"
					}
				}
			},
			"userdoc": {
				"kind": "user",
				"methods": {},
				"version": 1
			}
		}
	}
}