{
	"Qvoting.sol": {
		"Qvoting": {
			"abi": [
				{
					"anonymous": false,
					"inputs": [
						{
							"indexed": false,
							"internalType": "uint256",
							"name": "proposalId",
							"type": "uint256"
						},
						{
							"indexed": false,
							"internalType": "address[]",
							"name": "voters",
							"type": "address[]"
						},
						{
							"indexed": false,
							"internalType": "address",
							"name": "creator",
							"type": "address"
						},
						{
							"indexed": false,
							"internalType": "uint256",
							"name": "startTime",
							"type": "uint256"
						},
						{
							"indexed": false,
							"internalType": "uint256",
							"name": "expirationTime",
							"type": "uint256"
						},
						{
							"indexed": false,
							"internalType": "string",
							"name": "description",
							"type": "string"
						},
						{
							"indexed": false,
							"internalType": "string[]",
							"name": "_cand",
							"type": "string[]"
						}
					],
					"name": "ProposalCreated",
					"type": "event"
				},
				{
					"anonymous": false,
					"inputs": [
						{
							"indexed": false,
							"internalType": "address",
							"name": "voter",
							"type": "address"
						},
						{
							"indexed": false,
							"internalType": "uint256",
							"name": "ProposalID",
							"type": "uint256"
						},
						{
							"indexed": false,
							"internalType": "uint256[]",
							"name": "_tokens",
							"type": "uint256[]"
						}
					],
					"name": "VoteCasted",
					"type": "event"
				},
				{
					"anonymous": false,
					"inputs": [
						{
							"indexed": false,
							"internalType": "string",
							"name": "mintAndburn",
							"type": "string"
						},
						{
							"indexed": false,
							"internalType": "address",
							"name": "account",
							"type": "address"
						},
						{
							"indexed": false,
							"internalType": "uint256",
							"name": "amount",
							"type": "uint256"
						}
					],
					"name": "mintAndburn",
					"type": "event"
				},
				{
					"inputs": [
						{
							"internalType": "address",
							"name": "",
							"type": "address"
						},
						{
							"internalType": "uint256",
							"name": "",
							"type": "uint256"
						}
					],
					"name": "allVoters",
					"outputs": [
						{
							"internalType": "uint256",
							"name": "proposalId",
							"type": "uint256"
						},
						{
							"internalType": "address",
							"name": "voterAddress",
							"type": "address"
						},
						{
							"internalType": "bool",
							"name": "hasVoted",
							"type": "bool"
						},
						{
							"internalType": "uint256",
							"name": "voteNum",
							"type": "uint256"
						}
					],
					"stateMutability": "view",
					"type": "function"
				},
				{
					"inputs": [
						{
							"internalType": "address",
							"name": "account",
							"type": "address"
						}
					],
					"name": "balanceOf",
					"outputs": [
						{
							"internalType": "uint256",
							"name": "",
							"type": "uint256"
						}
					],
					"stateMutability": "view",
					"type": "function"
				},
				{
					"inputs": [
						{
							"internalType": "uint8",
							"name": "_status",
							"type": "uint8"
						},
						{
							"internalType": "address[]",
							"name": "_voters",
							"type": "address[]"
						},
						{
							"internalType": "address",
							"name": "_creator",
							"type": "address"
						},
						{
							"internalType": "uint256",
							"name": "_startTime",
							"type": "uint256"
						},
						{
							"internalType": "uint256",
							"name": "_expirationTime",
							"type": "uint256"
						},
						{
							"internalType": "string",
							"name": "_disc",
							"type": "string"
						},
						{
							"internalType": "string[]",
							"name": "_cand",
							"type": "string[]"
						},
						{
							"internalType": "uint256",
							"name": "_voteRight",
							"type": "uint256"
						}
					],
					"name": "createProposal",
					"outputs": [],
					"stateMutability": "nonpayable",
					"type": "function"
				},
				{
					"inputs": [],
					"name": "decimals",
					"outputs": [
						{
							"internalType": "uint8",
							"name": "",
							"type": "uint8"
						}
					],
					"stateMutability": "view",
					"type": "function"
				},
				{
					"inputs": [],
					"name": "name",
					"outputs": [
						{
							"internalType": "string",
							"name": "",
							"type": "string"
						}
					],
					"stateMutability": "view",
					"type": "function"
				},
				{
					"inputs": [
						{
							"internalType": "uint256",
							"name": "",
							"type": "uint256"
						}
					],
					"name": "proposals",
					"outputs": [
						{
							"internalType": "address",
							"name": "creator",
							"type": "address"
						},
						{
							"internalType": "uint8",
							"name": "status",
							"type": "uint8"
						},
						{
							"internalType": "string",
							"name": "disc",
							"type": "string"
						},
						{
							"internalType": "uint256",
							"name": "startTime",
							"type": "uint256"
						},
						{
							"internalType": "uint256",
							"name": "expirationTime",
							"type": "uint256"
						},
						{
							"internalType": "uint16",
							"name": "numOfOptions",
							"type": "uint16"
						},
						{
							"internalType": "uint256",
							"name": "voteRight",
							"type": "uint256"
						}
					],
					"stateMutability": "view",
					"type": "function"
				},
				{
					"inputs": [
						{
							"internalType": "uint256",
							"name": "_proposalId",
							"type": "uint256"
						},
						{
							"internalType": "address",
							"name": "_voter",
							"type": "address"
						},
						{
							"internalType": "string[]",
							"name": "_hash",
							"type": "string[]"
						},
						{
							"internalType": "uint256[]",
							"name": "v",
							"type": "uint256[]"
						}
					],
					"name": "responseProposal",
					"outputs": [],
					"stateMutability": "nonpayable",
					"type": "function"
				},
				{
					"inputs": [],
					"name": "symbol",
					"outputs": [
						{
							"internalType": "string",
							"name": "",
							"type": "string"
						}
					],
					"stateMutability": "view",
					"type": "function"
				},
				{
					"inputs": [],
					"name": "totalSupply",
					"outputs": [
						{
							"internalType": "uint256",
							"name": "",
							"type": "uint256"
						}
					],
					"stateMutability": "view",
					"type": "function"
				},
				{
					"inputs": [
						{
							"internalType": "address",
							"name": "",
							"type": "address"
						}
					],
					"name": "userProposal",
					"outputs": [
						{
							"internalType": "uint128",
							"name": "proposalCount",
							"type": "uint128"
						},
						{
							"internalType": "uint128",
							"name": "responseCount",
							"type": "uint128"
						}
					],
					"stateMutability": "view",
					"type": "function"
				}
			],
			"devdoc": {
				"kind": "dev",
				"methods": {
					"balanceOf(address)": {
						"details": "See {IERC20-balanceOf}."
					},
					"decimals()": {
						"details": "Returns the number of decimals used to get its user representation. For example, if `decimals` equals `2`, a balance of `505` tokens should be displayed to a user as `5.05` (`505 / 10 ** 2`). Tokens usually opt for a value of 18, imitating the relationship between Ether and Wei. This is the value {ERC20} uses, unless this function is overridden; NOTE: This information is only used for _display_ purposes: it in no way affects any of the arithmetic of the contract, including {IERC20-balanceOf} and {IERC20-transfer}."
					},
					"name()": {
						"details": "Returns the name of the token."
					},
					"symbol()": {
						"details": "Returns the symbol of the token, usually a shorter version of the name."
					},
					"totalSupply()": {
						"details": "See {IERC20-totalSupply}."
					}
				},
				"version": 1
			},
			"evm": {
				"assembly": "    /* \"Qvoting.sol\":481:4561  contract Qvoting is proposalEvents, QVtoken{\r... */\n  mstore(0x40, 0x80)\n  callvalue\n  dup1\n  iszero\n  tag_1\n  jumpi\n  0x00\n  dup1\n  revert\ntag_1:\n  pop\n    /* \"QvToken/ERC20.sol\":2016:2132  constructor(string memory name_, string memory symbol_) {\r... */\n  mload(0x40)\n  dup1\n  0x40\n  add\n  0x40\n  mstore\n  dup1\n  0x0c\n  dup2\n  mstore\n  0x20\n  add\n  0x51566f74696e67546f6b656e0000000000000000000000000000000000000000\n  dup2\n  mstore\n  pop\n  mload(0x40)\n  dup1\n  0x40\n  add\n  0x40\n  mstore\n  dup1\n  0x02\n  dup2\n  mstore\n  0x20\n  add\n  0x5176000000000000000000000000000000000000000000000000000000000000\n  dup2\n  mstore\n  pop\n    /* \"QvToken/ERC20.sol\":2091:2096  name_ */\n  dup2\n    /* \"QvToken/ERC20.sol\":2083:2088  _name */\n  0x02\n    /* \"QvToken/ERC20.sol\":2083:2096  _name = name_ */\n  swap1\n  dup1\n  mload\n  swap1\n  0x20\n  add\n  swap1\n  tag_5\n  swap3\n  swap2\n  swap1\n  tag_6\n  jump\t// in\ntag_5:\n  pop\n    /* \"QvToken/ERC20.sol\":2117:2124  symbol_ */\n  dup1\n    /* \"QvToken/ERC20.sol\":2107:2114  _symbol */\n  0x03\n    /* \"QvToken/ERC20.sol\":2107:2124  _symbol = symbol_ */\n  swap1\n  dup1\n  mload\n  swap1\n  0x20\n  add\n  swap1\n  tag_7\n  swap3\n  swap2\n  swap1\n  tag_6\n  jump\t// in\ntag_7:\n  pop\n    /* \"QvToken/ERC20.sol\":2016:2132  constructor(string memory name_, string memory symbol_) {\r... */\n  pop\n  pop\n    /* \"QvToken/QvToken.sol\":280:290  msg.sender */\n  caller\n    /* \"QvToken/QvToken.sol\":272:277  owner */\n  0x04\n  0x00\n    /* \"QvToken/QvToken.sol\":272:290  owner = msg.sender */\n  0x0100\n  exp\n  dup2\n  sload\n  dup2\n  0xffffffffffffffffffffffffffffffffffffffff\n  mul\n  not\n  and\n  swap1\n  dup4\n  0xffffffffffffffffffffffffffffffffffffffff\n  and\n  mul\n  or\n  swap1\n  sstore\n  pop\n    /* \"Qvoting.sol\":481:4561  contract Qvoting is proposalEvents, QVtoken{\r... */\n  jump(tag_9)\ntag_6:\n  dup3\n  dup1\n  sload\n  tag_10\n  swap1\n  tag_11\n  jump\t// in\ntag_10:\n  swap1\n  0x00\n  mstore\n  keccak256(0x00, 0x20)\n  swap1\n  0x1f\n  add\n  0x20\n  swap1\n  div\n  dup2\n  add\n  swap3\n  dup3\n  tag_13\n  jumpi\n  0x00\n  dup6\n  sstore\n  jump(tag_12)\ntag_13:\n  dup3\n  0x1f\n  lt\n  tag_14\n  jumpi\n  dup1\n  mload\n  not(0xff)\n  and\n  dup4\n  dup1\n  add\n  or\n  dup6\n  sstore\n  jump(tag_12)\ntag_14:\n  dup3\n  dup1\n  add\n  0x01\n  add\n  dup6\n  sstore\n  dup3\n  iszero\n  tag_12\n  jumpi\n  swap2\n  dup3\n  add\ntag_15:\n  dup3\n  dup2\n  gt\n  iszero\n  tag_16\n  jumpi\n  dup3\n  mload\n  dup3\n  sstore\n  swap2\n  0x20\n  add\n  swap2\n  swap1\n  0x01\n  add\n  swap1\n  jump(tag_15)\ntag_16:\ntag_12:\n  pop\n  swap1\n  pop\n  tag_17\n  swap2\n  swap1\n  tag_18\n  jump\t// in\ntag_17:\n  pop\n  swap1\n  jump\t// out\ntag_18:\ntag_19:\n  dup1\n  dup3\n  gt\n  iszero\n  tag_20\n  jumpi\n  0x00\n  dup2\n  0x00\n  swap1\n  sstore\n  pop\n  0x01\n  add\n  jump(tag_19)\ntag_20:\n  pop\n  swap1\n  jump\t// out\n    /* \"#utility.yul\":7:327   */\ntag_11:\n    /* \"#utility.yul\":51:57   */\n  0x00\n    /* \"#utility.yul\":88:89   */\n  0x02\n    /* \"#utility.yul\":82:86   */\n  dup3\n    /* \"#utility.yul\":78:90   */\n  div\n    /* \"#utility.yul\":68:90   */\n  swap1\n  pop\n    /* \"#utility.yul\":135:136   */\n  0x01\n    /* \"#utility.yul\":129:133   */\n  dup3\n    /* \"#utility.yul\":125:137   */\n  and\n    /* \"#utility.yul\":156:174   */\n  dup1\n    /* \"#utility.yul\":146:227   */\n  tag_23\n  jumpi\n    /* \"#utility.yul\":212:216   */\n  0x7f\n    /* \"#utility.yul\":204:210   */\n  dup3\n    /* \"#utility.yul\":200:217   */\n  and\n    /* \"#utility.yul\":190:217   */\n  swap2\n  pop\n    /* \"#utility.yul\":146:227   */\ntag_23:\n    /* \"#utility.yul\":274:276   */\n  0x20\n    /* \"#utility.yul\":266:272   */\n  dup3\n    /* \"#utility.yul\":263:277   */\n  lt\n    /* \"#utility.yul\":243:261   */\n  dup2\n    /* \"#utility.yul\":240:278   */\n  eq\n    /* \"#utility.yul\":237:321   */\n  iszero\n  tag_24\n  jumpi\n    /* \"#utility.yul\":293:311   */\n  tag_25\n  tag_26\n  jump\t// in\ntag_25:\n    /* \"#utility.yul\":237:321   */\ntag_24:\n    /* \"#utility.yul\":58:327   */\n  pop\n    /* \"#utility.yul\":7:327   */\n  swap2\n  swap1\n  pop\n  jump\t// out\n    /* \"#utility.yul\":333:513   */\ntag_26:\n    /* \"#utility.yul\":381:458   */\n  0x4e487b7100000000000000000000000000000000000000000000000000000000\n    /* \"#utility.yul\":378:379   */\n  0x00\n    /* \"#utility.yul\":371:459   */\n  mstore\n    /* \"#utility.yul\":478:482   */\n  0x22\n    /* \"#utility.yul\":475:476   */\n  0x04\n    /* \"#utility.yul\":468:483   */\n  mstore\n    /* \"#utility.yul\":502:506   */\n  0x24\n    /* \"#utility.yul\":499:500   */\n  0x00\n    /* \"#utility.yul\":492:507   */\n  revert\n    /* \"Qvoting.sol\":481:4561  contract Qvoting is proposalEvents, QVtoken{\r... */\ntag_9:\n  dataSize(sub_0)\n  dup1\n  dataOffset(sub_0)\n  0x00\n  codecopy\n  0x00\n  return\nstop\n\nsub_0: assembly {\n        /* \"Qvoting.sol\":481:4561  contract Qvoting is proposalEvents, QVtoken{\r... */\n      mstore(0x40, 0x80)\n      callvalue\n      dup1\n      iszero\n      tag_1\n      jumpi\n      0x00\n      dup1\n      revert\n    tag_1:\n      pop\n      jumpi(tag_2, lt(calldatasize, 0x04))\n      shr(0xe0, calldataload(0x00))\n      dup1\n      0x5c230eee\n      gt\n      tag_13\n      jumpi\n      dup1\n      0x5c230eee\n      eq\n      tag_8\n      jumpi\n      dup1\n      0x70a08231\n      eq\n      tag_9\n      jumpi\n      dup1\n      0x95d89b41\n      eq\n      tag_10\n      jumpi\n      dup1\n      0xab9c70d4\n      eq\n      tag_11\n      jumpi\n      dup1\n      0xe745d68e\n      eq\n      tag_12\n      jumpi\n      jump(tag_2)\n    tag_13:\n      dup1\n      0x013cf08b\n      eq\n      tag_3\n      jumpi\n      dup1\n      0x06fdde03\n      eq\n      tag_4\n      jumpi\n      dup1\n      0x18160ddd\n      eq\n      tag_5\n      jumpi\n      dup1\n      0x313ce567\n      eq\n      tag_6\n      jumpi\n      dup1\n      0x4de77e48\n      eq\n      tag_7\n      jumpi\n    tag_2:\n      0x00\n      dup1\n      revert\n        /* \"Qvoting.sol\":1304:1362  mapping(uint => proposalLibrary.proposal) public proposals */\n    tag_3:\n      tag_14\n      0x04\n      dup1\n      calldatasize\n      sub\n      dup2\n      add\n      swap1\n      tag_15\n      swap2\n      swap1\n      tag_16\n      jump\t// in\n    tag_15:\n      tag_17\n      jump\t// in\n    tag_14:\n      mload(0x40)\n      tag_18\n      swap8\n      swap7\n      swap6\n      swap5\n      swap4\n      swap3\n      swap2\n      swap1\n      tag_19\n      jump\t// in\n    tag_18:\n      mload(0x40)\n      dup1\n      swap2\n      sub\n      swap1\n      return\n        /* \"QvToken/ERC20.sol\":2202:2302  function name() public view virtual override returns (string memory) {\r... */\n    tag_4:\n      tag_20\n      tag_21\n      jump\t// in\n    tag_20:\n      mload(0x40)\n      tag_22\n      swap2\n      swap1\n      tag_23\n      jump\t// in\n    tag_22:\n      mload(0x40)\n      dup1\n      swap2\n      sub\n      swap1\n      return\n        /* \"QvToken/ERC20.sol\":3322:3430  function totalSupply() public view virtual override returns (uint256) {\r... */\n    tag_5:\n      tag_24\n      tag_25\n      jump\t// in\n    tag_24:\n      mload(0x40)\n      tag_26\n      swap2\n      swap1\n      tag_27\n      jump\t// in\n    tag_26:\n      mload(0x40)\n      dup1\n      swap2\n      sub\n      swap1\n      return\n        /* \"QvToken/ERC20.sol\":3164:3257  function decimals() public view virtual override returns (uint8) {\r... */\n    tag_6:\n      tag_28\n      tag_29\n      jump\t// in\n    tag_28:\n      mload(0x40)\n      tag_30\n      swap2\n      swap1\n      tag_31\n      jump\t// in\n    tag_30:\n      mload(0x40)\n      dup1\n      swap2\n      sub\n      swap1\n      return\n        /* \"Qvoting.sol\":1965:3262  function createProposal(uint8 _status, address[] memory _voters, address _creator,\r... */\n    tag_7:\n      tag_32\n      0x04\n      dup1\n      calldatasize\n      sub\n      dup2\n      add\n      swap1\n      tag_33\n      swap2\n      swap1\n      tag_34\n      jump\t// in\n    tag_33:\n      tag_35\n      jump\t// in\n    tag_32:\n      stop\n        /* \"Qvoting.sol\":3270:4519  function responseProposal(uint _proposalId, address _voter, string[] memory _hash, uint[] memory v) external {\r... */\n    tag_8:\n      tag_36\n      0x04\n      dup1\n      calldatasize\n      sub\n      dup2\n      add\n      swap1\n      tag_37\n      swap2\n      swap1\n      tag_38\n      jump\t// in\n    tag_37:\n      tag_39\n      jump\t// in\n    tag_36:\n      stop\n        /* \"QvToken/ERC20.sol\":3493:3620  function balanceOf(address account) public view virtual override returns (uint256) {\r... */\n    tag_9:\n      tag_40\n      0x04\n      dup1\n      calldatasize\n      sub\n      dup2\n      add\n      swap1\n      tag_41\n      swap2\n      swap1\n      tag_42\n      jump\t// in\n    tag_41:\n      tag_43\n      jump\t// in\n    tag_40:\n      mload(0x40)\n      tag_44\n      swap2\n      swap1\n      tag_27\n      jump\t// in\n    tag_44:\n      mload(0x40)\n      dup1\n      swap2\n      sub\n      swap1\n      return\n        /* \"QvToken/ERC20.sol\":2421:2525  function symbol() public view virtual override returns (string memory) {\r... */\n    tag_10:\n      tag_45\n      tag_46\n      jump\t// in\n    tag_45:\n      mload(0x40)\n      tag_47\n      swap2\n      swap1\n      tag_23\n      jump\t// in\n    tag_47:\n      mload(0x40)\n      dup1\n      swap2\n      sub\n      swap1\n      return\n        /* \"Qvoting.sol\":1400:1472  mapping(address => mapping(uint => voterLibrary.voter)) public allVoters */\n    tag_11:\n      tag_48\n      0x04\n      dup1\n      calldatasize\n      sub\n      dup2\n      add\n      swap1\n      tag_49\n      swap2\n      swap1\n      tag_50\n      jump\t// in\n    tag_49:\n      tag_51\n      jump\t// in\n    tag_48:\n      mload(0x40)\n      tag_52\n      swap5\n      swap4\n      swap3\n      swap2\n      swap1\n      tag_53\n      jump\t// in\n    tag_52:\n      mload(0x40)\n      dup1\n      swap2\n      sub\n      swap1\n      return\n        /* \"Qvoting.sol\":1201:1273  mapping(address => UserProposalLibrary.UserProposal) public userProposal */\n    tag_12:\n      tag_54\n      0x04\n      dup1\n      calldatasize\n      sub\n      dup2\n      add\n      swap1\n      tag_55\n      swap2\n      swap1\n      tag_42\n      jump\t// in\n    tag_55:\n      tag_56\n      jump\t// in\n    tag_54:\n      mload(0x40)\n      tag_57\n      swap3\n      swap2\n      swap1\n      tag_58\n      jump\t// in\n    tag_57:\n      mload(0x40)\n      dup1\n      swap2\n      sub\n      swap1\n      return\n        /* \"Qvoting.sol\":1304:1362  mapping(uint => proposalLibrary.proposal) public proposals */\n    tag_17:\n      mstore(0x20, 0x07)\n      dup1\n      0x00\n      mstore\n      keccak256(0x00, 0x40)\n      0x00\n      swap2\n      pop\n      swap1\n      pop\n      dup1\n      0x00\n      add\n      0x00\n      swap1\n      sload\n      swap1\n      0x0100\n      exp\n      swap1\n      div\n      0xffffffffffffffffffffffffffffffffffffffff\n      and\n      swap1\n      dup1\n      0x00\n      add\n      0x14\n      swap1\n      sload\n      swap1\n      0x0100\n      exp\n      swap1\n      div\n      0xff\n      and\n      swap1\n      dup1\n      0x01\n      add\n      dup1\n      sload\n      tag_59\n      swap1\n      tag_60\n      jump\t// in\n    tag_59:\n      dup1\n      0x1f\n      add\n      0x20\n      dup1\n      swap2\n      div\n      mul\n      0x20\n      add\n      mload(0x40)\n      swap1\n      dup2\n      add\n      0x40\n      mstore\n      dup1\n      swap3\n      swap2\n      swap1\n      dup2\n      dup2\n      mstore\n      0x20\n      add\n      dup3\n      dup1\n      sload\n      tag_61\n      swap1\n      tag_60\n      jump\t// in\n    tag_61:\n      dup1\n      iszero\n      tag_62\n      jumpi\n      dup1\n      0x1f\n      lt\n      tag_63\n      jumpi\n      0x0100\n      dup1\n      dup4\n      sload\n      div\n      mul\n      dup4\n      mstore\n      swap2\n      0x20\n      add\n      swap2\n      jump(tag_62)\n    tag_63:\n      dup3\n      add\n      swap2\n      swap1\n      0x00\n      mstore\n      keccak256(0x00, 0x20)\n      swap1\n    tag_64:\n      dup2\n      sload\n      dup2\n      mstore\n      swap1\n      0x01\n      add\n      swap1\n      0x20\n      add\n      dup1\n      dup4\n      gt\n      tag_64\n      jumpi\n      dup3\n      swap1\n      sub\n      0x1f\n      and\n      dup3\n      add\n      swap2\n    tag_62:\n      pop\n      pop\n      pop\n      pop\n      pop\n      swap1\n      dup1\n      0x02\n      add\n      sload\n      swap1\n      dup1\n      0x03\n      add\n      sload\n      swap1\n      dup1\n      0x04\n      add\n      0x00\n      swap1\n      sload\n      swap1\n      0x0100\n      exp\n      swap1\n      div\n      0xffff\n      and\n      swap1\n      dup1\n      0x05\n      add\n      sload\n      swap1\n      pop\n      dup8\n      jump\t// out\n        /* \"QvToken/ERC20.sol\":2202:2302  function name() public view virtual override returns (string memory) {\r... */\n    tag_21:\n        /* \"QvToken/ERC20.sol\":2256:2269  string memory */\n      0x60\n        /* \"QvToken/ERC20.sol\":2289:2294  _name */\n      0x02\n        /* \"QvToken/ERC20.sol\":2282:2294  return _name */\n      dup1\n      sload\n      tag_66\n      swap1\n      tag_60\n      jump\t// in\n    tag_66:\n      dup1\n      0x1f\n      add\n      0x20\n      dup1\n      swap2\n      div\n      mul\n      0x20\n      add\n      mload(0x40)\n      swap1\n      dup2\n      add\n      0x40\n      mstore\n      dup1\n      swap3\n      swap2\n      swap1\n      dup2\n      dup2\n      mstore\n      0x20\n      add\n      dup3\n      dup1\n      sload\n      tag_67\n      swap1\n      tag_60\n      jump\t// in\n    tag_67:\n      dup1\n      iszero\n      tag_68\n      jumpi\n      dup1\n      0x1f\n      lt\n      tag_69\n      jumpi\n      0x0100\n      dup1\n      dup4\n      sload\n      div\n      mul\n      dup4\n      mstore\n      swap2\n      0x20\n      add\n      swap2\n      jump(tag_68)\n    tag_69:\n      dup3\n      add\n      swap2\n      swap1\n      0x00\n      mstore\n      keccak256(0x00, 0x20)\n      swap1\n    tag_70:\n      dup2\n      sload\n      dup2\n      mstore\n      swap1\n      0x01\n      add\n      swap1\n      0x20\n      add\n      dup1\n      dup4\n      gt\n      tag_70\n      jumpi\n      dup3\n      swap1\n      sub\n      0x1f\n      and\n      dup3\n      add\n      swap2\n    tag_68:\n      pop\n      pop\n      pop\n      pop\n      pop\n      swap1\n      pop\n        /* \"QvToken/ERC20.sol\":2202:2302  function name() public view virtual override returns (string memory) {\r... */\n      swap1\n      jump\t// out\n        /* \"QvToken/ERC20.sol\":3322:3430  function totalSupply() public view virtual override returns (uint256) {\r... */\n    tag_25:\n        /* \"QvToken/ERC20.sol\":3383:3390  uint256 */\n      0x00\n        /* \"QvToken/ERC20.sol\":3410:3422  _totalSupply */\n      sload(0x01)\n        /* \"QvToken/ERC20.sol\":3403:3422  return _totalSupply */\n      swap1\n      pop\n        /* \"QvToken/ERC20.sol\":3322:3430  function totalSupply() public view virtual override returns (uint256) {\r... */\n      swap1\n      jump\t// out\n        /* \"QvToken/ERC20.sol\":3164:3257  function decimals() public view virtual override returns (uint8) {\r... */\n    tag_29:\n        /* \"QvToken/ERC20.sol\":3222:3227  uint8 */\n      0x00\n        /* \"QvToken/ERC20.sol\":3247:3249  18 */\n      0x12\n        /* \"QvToken/ERC20.sol\":3240:3249  return 18 */\n      swap1\n      pop\n        /* \"QvToken/ERC20.sol\":3164:3257  function decimals() public view virtual override returns (uint8) {\r... */\n      swap1\n      jump\t// out\n        /* \"Qvoting.sol\":1965:3262  function createProposal(uint8 _status, address[] memory _voters, address _creator,\r... */\n    tag_35:\n        /* \"Qvoting.sol\":2339:2349  _startTime */\n      dup6\n        /* \"Qvoting.sol\":2321:2336  block.timestamp */\n      timestamp\n        /* \"Qvoting.sol\":2321:2349  block.timestamp < _startTime */\n      lt\n        /* \"Qvoting.sol\":2313:2373  require(block.timestamp < _startTime,\"proposal not started\") */\n      tag_74\n      jumpi\n      mload(0x40)\n      0x08c379a000000000000000000000000000000000000000000000000000000000\n      dup2\n      mstore\n      0x04\n      add\n      tag_75\n      swap1\n      tag_76\n      jump\t// in\n    tag_75:\n      mload(0x40)\n      dup1\n      swap2\n      sub\n      swap1\n      revert\n    tag_74:\n        /* \"Qvoting.sol\":2410:2425  _expirationTime */\n      dup5\n        /* \"Qvoting.sol\":2392:2407  block.timestamp */\n      timestamp\n        /* \"Qvoting.sol\":2392:2425  block.timestamp < _expirationTime */\n      lt\n        /* \"Qvoting.sol\":2384:2473  require(block.timestamp < _expirationTime,\"End time should be greater than current time\") */\n      tag_77\n      jumpi\n      mload(0x40)\n      0x08c379a000000000000000000000000000000000000000000000000000000000\n      dup2\n      mstore\n      0x04\n      add\n      tag_78\n      swap1\n      tag_79\n      jump\t// in\n    tag_78:\n      mload(0x40)\n      dup1\n      swap2\n      sub\n      swap1\n      revert\n    tag_77:\n        /* \"Qvoting.sol\":2505:2520  _expirationTime */\n      dup5\n        /* \"Qvoting.sol\":2492:2502  _startTime */\n      dup7\n        /* \"Qvoting.sol\":2492:2520  _startTime < _expirationTime */\n      lt\n        /* \"Qvoting.sol\":2484:2566  require(_startTime < _expirationTime,\"End time should be greater than start time\") */\n      tag_80\n      jumpi\n      mload(0x40)\n      0x08c379a000000000000000000000000000000000000000000000000000000000\n      dup2\n      mstore\n      0x04\n      add\n      tag_81\n      swap1\n      tag_82\n      jump\t// in\n    tag_81:\n      mload(0x40)\n      dup1\n      swap2\n      sub\n      swap1\n      revert\n    tag_80:\n        /* \"Qvoting.sol\":2579:2589  proposalId */\n      0x05\n      0x00\n        /* \"Qvoting.sol\":2579:2591  proposalId++ */\n      dup2\n      sload\n      dup1\n      swap3\n      swap2\n      swap1\n      tag_83\n      swap1\n      tag_84\n      jump\t// in\n    tag_83:\n      swap2\n      swap1\n      pop\n      sstore\n      pop\n        /* \"Qvoting.sol\":2602:2714  proposals[proposalId].createProposal(_status,_voters,_creator,_startTime,_expirationTime,_disc,_voteRight,_cand) */\n      tag_85\n        /* \"Qvoting.sol\":2639:2646  _status */\n      dup10\n        /* \"Qvoting.sol\":2647:2654  _voters */\n      dup10\n        /* \"Qvoting.sol\":2655:2663  _creator */\n      dup10\n        /* \"Qvoting.sol\":2664:2674  _startTime */\n      dup10\n        /* \"Qvoting.sol\":2675:2690  _expirationTime */\n      dup10\n        /* \"Qvoting.sol\":2691:2696  _disc */\n      dup10\n        /* \"Qvoting.sol\":2697:2707  _voteRight */\n      dup8\n        /* \"Qvoting.sol\":2708:2713  _cand */\n      dup11\n      dup11\n        /* \"Qvoting.sol\":2602:2611  proposals */\n      0x07\n        /* \"Qvoting.sol\":2602:2623  proposals[proposalId] */\n      0x00\n        /* \"Qvoting.sol\":2612:2622  proposalId */\n      sload(0x05)\n        /* \"Qvoting.sol\":2602:2623  proposals[proposalId] */\n      dup2\n      mstore\n      0x20\n      add\n      swap1\n      dup2\n      mstore\n      0x20\n      add\n      0x00\n      keccak256\n        /* \"Qvoting.sol\":2602:2638  proposals[proposalId].createProposal */\n      tag_86\n      swap1\n        /* \"Qvoting.sol\":2602:2714  proposals[proposalId].createProposal(_status,_voters,_creator,_startTime,_expirationTime,_disc,_voteRight,_cand) */\n      swap10\n      swap9\n      swap8\n      swap7\n      swap6\n      swap5\n      swap4\n      swap3\n      swap2\n      swap1\n      0xffffffff\n      and\n      jump\t// in\n    tag_85:\n      pop\n        /* \"Qvoting.sol\":2730:2814  ProposalCreated(proposalId, _voters,_creator,_startTime,_expirationTime,_disc,_cand) */\n      0x239a8a71a7d1cb0d134f6cc072ad6390e36a88c8e78dff69013ee79528441e80\n        /* \"Qvoting.sol\":2746:2756  proposalId */\n      sload(0x05)\n        /* \"Qvoting.sol\":2758:2765  _voters */\n      dup10\n        /* \"Qvoting.sol\":2766:2774  _creator */\n      dup10\n        /* \"Qvoting.sol\":2775:2785  _startTime */\n      dup10\n        /* \"Qvoting.sol\":2786:2801  _expirationTime */\n      dup10\n        /* \"Qvoting.sol\":2802:2807  _disc */\n      dup10\n        /* \"Qvoting.sol\":2808:2813  _cand */\n      dup10\n      dup10\n        /* \"Qvoting.sol\":2730:2814  ProposalCreated(proposalId, _voters,_creator,_startTime,_expirationTime,_disc,_cand) */\n      mload(0x40)\n      tag_87\n      swap9\n      swap8\n      swap7\n      swap6\n      swap5\n      swap4\n      swap3\n      swap2\n      swap1\n      tag_88\n      jump\t// in\n    tag_87:\n      mload(0x40)\n      dup1\n      swap2\n      sub\n      swap1\n      log1\n        /* \"Qvoting.sol\":2854:2858  true */\n      0x01\n        /* \"Qvoting.sol\":2825:2839  validProposals */\n      0x09\n        /* \"Qvoting.sol\":2825:2851  validProposals[proposalId] */\n      0x00\n        /* \"Qvoting.sol\":2840:2850  proposalId */\n      sload(0x05)\n        /* \"Qvoting.sol\":2825:2851  validProposals[proposalId] */\n      dup2\n      mstore\n      0x20\n      add\n      swap1\n      dup2\n      mstore\n      0x20\n      add\n      0x00\n      keccak256\n      0x00\n        /* \"Qvoting.sol\":2825:2858  validProposals[proposalId] = true */\n      0x0100\n      exp\n      dup2\n      sload\n      dup2\n      0xff\n      mul\n      not\n      and\n      swap1\n      dup4\n      iszero\n      iszero\n      mul\n      or\n      swap1\n      sstore\n      pop\n        /* \"Qvoting.sol\":2930:2939  uint256 i */\n      0x00\n        /* \"Qvoting.sol\":2926:3185  for(uint256 i=0;i<_voters.length;i++){\r... */\n    tag_89:\n        /* \"Qvoting.sol\":2944:2951  _voters */\n      dup9\n        /* \"Qvoting.sol\":2944:2958  _voters.length */\n      mload\n        /* \"Qvoting.sol\":2942:2943  i */\n      dup2\n        /* \"Qvoting.sol\":2942:2958  i<_voters.length */\n      lt\n        /* \"Qvoting.sol\":2926:3185  for(uint256 i=0;i<_voters.length;i++){\r... */\n      iszero\n      tag_90\n      jumpi\n        /* \"Qvoting.sol\":2978:3005  mint(_voters[i],_voteRight) */\n      tag_92\n        /* \"Qvoting.sol\":2983:2990  _voters */\n      dup10\n        /* \"Qvoting.sol\":2991:2992  i */\n      dup3\n        /* \"Qvoting.sol\":2983:2993  _voters[i] */\n      dup2\n      mload\n      dup2\n      lt\n      tag_93\n      jumpi\n      tag_94\n      tag_95\n      jump\t// in\n    tag_94:\n    tag_93:\n      0x20\n      mul\n      0x20\n      add\n      add\n      mload\n        /* \"Qvoting.sol\":2994:3004  _voteRight */\n      dup4\n        /* \"Qvoting.sol\":2978:2982  mint */\n      tag_96\n        /* \"Qvoting.sol\":2978:3005  mint(_voters[i],_voteRight) */\n      jump\t// in\n    tag_92:\n        /* \"Qvoting.sol\":3020:3108  allVoters[_voters[i]][proposalId].createVoter(proposalId, _voters[i], false, _voteRight) */\n      tag_97\n        /* \"Qvoting.sol\":3066:3076  proposalId */\n      sload(0x05)\n        /* \"Qvoting.sol\":3078:3085  _voters */\n      dup11\n        /* \"Qvoting.sol\":3086:3087  i */\n      dup4\n        /* \"Qvoting.sol\":3078:3088  _voters[i] */\n      dup2\n      mload\n      dup2\n      lt\n      tag_98\n      jumpi\n      tag_99\n      tag_95\n      jump\t// in\n    tag_99:\n    tag_98:\n      0x20\n      mul\n      0x20\n      add\n      add\n      mload\n        /* \"Qvoting.sol\":3090:3095  false */\n      0x00\n        /* \"Qvoting.sol\":3097:3107  _voteRight */\n      dup6\n        /* \"Qvoting.sol\":3020:3029  allVoters */\n      0x08\n        /* \"Qvoting.sol\":3020:3041  allVoters[_voters[i]] */\n      0x00\n        /* \"Qvoting.sol\":3030:3037  _voters */\n      dup16\n        /* \"Qvoting.sol\":3038:3039  i */\n      dup9\n        /* \"Qvoting.sol\":3030:3040  _voters[i] */\n      dup2\n      mload\n      dup2\n      lt\n      tag_100\n      jumpi\n      tag_101\n      tag_95\n      jump\t// in\n    tag_101:\n    tag_100:\n      0x20\n      mul\n      0x20\n      add\n      add\n      mload\n        /* \"Qvoting.sol\":3020:3041  allVoters[_voters[i]] */\n      0xffffffffffffffffffffffffffffffffffffffff\n      and\n      0xffffffffffffffffffffffffffffffffffffffff\n      and\n      dup2\n      mstore\n      0x20\n      add\n      swap1\n      dup2\n      mstore\n      0x20\n      add\n      0x00\n      keccak256\n        /* \"Qvoting.sol\":3020:3053  allVoters[_voters[i]][proposalId] */\n      0x00\n        /* \"Qvoting.sol\":3042:3052  proposalId */\n      sload(0x05)\n        /* \"Qvoting.sol\":3020:3053  allVoters[_voters[i]][proposalId] */\n      dup2\n      mstore\n      0x20\n      add\n      swap1\n      dup2\n      mstore\n      0x20\n      add\n      0x00\n      keccak256\n        /* \"Qvoting.sol\":3020:3065  allVoters[_voters[i]][proposalId].createVoter */\n      tag_102\n      swap1\n        /* \"Qvoting.sol\":3020:3108  allVoters[_voters[i]][proposalId].createVoter(proposalId, _voters[i], false, _voteRight) */\n      swap5\n      swap4\n      swap3\n      swap2\n      swap1\n      0xffffffff\n      and\n      jump\t// in\n    tag_97:\n      pop\n        /* \"Qvoting.sol\":3128:3169  mintAndburn(\"mint\",_voters[i],_voteRight) */\n      0xabf5327be9f5825c40d58bda541dd07f09b62df3376bbd5ecdbaa8bd82a9d492\n        /* \"Qvoting.sol\":3147:3154  _voters */\n      dup10\n        /* \"Qvoting.sol\":3155:3156  i */\n      dup3\n        /* \"Qvoting.sol\":3147:3157  _voters[i] */\n      dup2\n      mload\n      dup2\n      lt\n      tag_103\n      jumpi\n      tag_104\n      tag_95\n      jump\t// in\n    tag_104:\n    tag_103:\n      0x20\n      mul\n      0x20\n      add\n      add\n      mload\n        /* \"Qvoting.sol\":3158:3168  _voteRight */\n      dup4\n        /* \"Qvoting.sol\":3128:3169  mintAndburn(\"mint\",_voters[i],_voteRight) */\n      mload(0x40)\n      tag_105\n      swap3\n      swap2\n      swap1\n      tag_106\n      jump\t// in\n    tag_105:\n      mload(0x40)\n      dup1\n      swap2\n      sub\n      swap1\n      log1\n        /* \"Qvoting.sol\":2959:2962  i++ */\n      dup1\n      dup1\n      tag_107\n      swap1\n      tag_84\n      jump\t// in\n    tag_107:\n      swap2\n      pop\n      pop\n        /* \"Qvoting.sol\":2926:3185  for(uint256 i=0;i<_voters.length;i++){\r... */\n      jump(tag_89)\n    tag_90:\n      pop\n        /* \"Qvoting.sol\":3197:3254  userProposal[_msgSender()].updateProposalList(proposalId) */\n      tag_108\n        /* \"Qvoting.sol\":3243:3253  proposalId */\n      sload(0x05)\n        /* \"Qvoting.sol\":3197:3209  userProposal */\n      0x06\n        /* \"Qvoting.sol\":3197:3223  userProposal[_msgSender()] */\n      0x00\n        /* \"Qvoting.sol\":3210:3222  _msgSender() */\n      tag_109\n        /* \"Qvoting.sol\":3210:3220  _msgSender */\n      tag_110\n        /* \"Qvoting.sol\":3210:3222  _msgSender() */\n      jump\t// in\n    tag_109:\n        /* \"Qvoting.sol\":3197:3223  userProposal[_msgSender()] */\n      0xffffffffffffffffffffffffffffffffffffffff\n      and\n      0xffffffffffffffffffffffffffffffffffffffff\n      and\n      dup2\n      mstore\n      0x20\n      add\n      swap1\n      dup2\n      mstore\n      0x20\n      add\n      0x00\n      keccak256\n        /* \"Qvoting.sol\":3197:3242  userProposal[_msgSender()].updateProposalList */\n      tag_111\n      swap1\n        /* \"Qvoting.sol\":3197:3254  userProposal[_msgSender()].updateProposalList(proposalId) */\n      swap2\n      swap1\n      0xffffffff\n      and\n      jump\t// in\n    tag_108:\n      pop\n        /* \"Qvoting.sol\":1965:3262  function createProposal(uint8 _status, address[] memory _voters, address _creator,\r... */\n      pop\n      pop\n      pop\n      pop\n      pop\n      pop\n      pop\n      pop\n      pop\n      jump\t// out\n        /* \"Qvoting.sol\":3270:4519  function responseProposal(uint _proposalId, address _voter, string[] memory _hash, uint[] memory v) external {\r... */\n    tag_39:\n        /* \"Qvoting.sol\":3493:3507  validProposals */\n      0x09\n        /* \"Qvoting.sol\":3493:3520  validProposals[_proposalId] */\n      0x00\n        /* \"Qvoting.sol\":3508:3519  _proposalId */\n      dup6\n        /* \"Qvoting.sol\":3493:3520  validProposals[_proposalId] */\n      dup2\n      mstore\n      0x20\n      add\n      swap1\n      dup2\n      mstore\n      0x20\n      add\n      0x00\n      keccak256\n      0x00\n      swap1\n      sload\n      swap1\n      0x0100\n      exp\n      swap1\n      div\n      0xff\n      and\n        /* \"Qvoting.sol\":3485:3542  require(validProposals[_proposalId],\"invalid proposalId\") */\n      tag_113\n      jumpi\n      mload(0x40)\n      0x08c379a000000000000000000000000000000000000000000000000000000000\n      dup2\n      mstore\n      0x04\n      add\n      tag_114\n      swap1\n      tag_115\n      jump\t// in\n    tag_114:\n      mload(0x40)\n      dup1\n      swap2\n      sub\n      swap1\n      revert\n    tag_113:\n        /* \"Qvoting.sol\":3606:3617  _proposalId */\n      dup4\n        /* \"Qvoting.sol\":3561:3570  allVoters */\n      0x08\n        /* \"Qvoting.sol\":3561:3578  allVoters[_voter] */\n      0x00\n        /* \"Qvoting.sol\":3571:3577  _voter */\n      dup6\n        /* \"Qvoting.sol\":3561:3578  allVoters[_voter] */\n      0xffffffffffffffffffffffffffffffffffffffff\n      and\n      0xffffffffffffffffffffffffffffffffffffffff\n      and\n      dup2\n      mstore\n      0x20\n      add\n      swap1\n      dup2\n      mstore\n      0x20\n      add\n      0x00\n      keccak256\n        /* \"Qvoting.sol\":3561:3591  allVoters[_voter][_proposalId] */\n      0x00\n        /* \"Qvoting.sol\":3579:3590  _proposalId */\n      dup7\n        /* \"Qvoting.sol\":3561:3591  allVoters[_voter][_proposalId] */\n      dup2\n      mstore\n      0x20\n      add\n      swap1\n      dup2\n      mstore\n      0x20\n      add\n      0x00\n      keccak256\n        /* \"Qvoting.sol\":3561:3602  allVoters[_voter][_proposalId].proposalId */\n      0x00\n      add\n      sload\n        /* \"Qvoting.sol\":3561:3617  allVoters[_voter][_proposalId].proposalId == _proposalId */\n      eq\n        /* \"Qvoting.sol\":3553:3657  require(allVoters[_voter][_proposalId].proposalId == _proposalId, \"not a valid voter for this proposal\") */\n      tag_116\n      jumpi\n      mload(0x40)\n      0x08c379a000000000000000000000000000000000000000000000000000000000\n      dup2\n      mstore\n      0x04\n      add\n      tag_117\n      swap1\n      tag_118\n      jump\t// in\n    tag_117:\n      mload(0x40)\n      dup1\n      swap2\n      sub\n      swap1\n      revert\n    tag_116:\n        /* \"Qvoting.sol\":3738:3747  allVoters */\n      0x08\n        /* \"Qvoting.sol\":3738:3755  allVoters[_voter] */\n      0x00\n        /* \"Qvoting.sol\":3748:3754  _voter */\n      dup5\n        /* \"Qvoting.sol\":3738:3755  allVoters[_voter] */\n      0xffffffffffffffffffffffffffffffffffffffff\n      and\n      0xffffffffffffffffffffffffffffffffffffffff\n      and\n      dup2\n      mstore\n      0x20\n      add\n      swap1\n      dup2\n      mstore\n      0x20\n      add\n      0x00\n      keccak256\n        /* \"Qvoting.sol\":3738:3768  allVoters[_voter][_proposalId] */\n      0x00\n        /* \"Qvoting.sol\":3756:3767  _proposalId */\n      dup6\n        /* \"Qvoting.sol\":3738:3768  allVoters[_voter][_proposalId] */\n      dup2\n      mstore\n      0x20\n      add\n      swap1\n      dup2\n      mstore\n      0x20\n      add\n      0x00\n      keccak256\n        /* \"Qvoting.sol\":3738:3777  allVoters[_voter][_proposalId].hasVoted */\n      0x01\n      add\n      0x14\n      swap1\n      sload\n      swap1\n      0x0100\n      exp\n      swap1\n      div\n      0xff\n      and\n        /* \"Qvoting.sol\":3737:3777  !allVoters[_voter][_proposalId].hasVoted */\n      iszero\n        /* \"Qvoting.sol\":3729:3795  require(!allVoters[_voter][_proposalId].hasVoted, \"already voted\") */\n      tag_119\n      jumpi\n      mload(0x40)\n      0x08c379a000000000000000000000000000000000000000000000000000000000\n      dup2\n      mstore\n      0x04\n      add\n      tag_120\n      swap1\n      tag_121\n      jump\t// in\n    tag_120:\n      mload(0x40)\n      dup1\n      swap2\n      sub\n      swap1\n      revert\n    tag_119:\n        /* \"Qvoting.sol\":3852:3857  _hash */\n      dup2\n        /* \"Qvoting.sol\":3852:3864  _hash.length */\n      mload\n        /* \"Qvoting.sol\":3814:3823  proposals */\n      0x07\n        /* \"Qvoting.sol\":3814:3836  proposals[_proposalId] */\n      0x00\n        /* \"Qvoting.sol\":3824:3835  _proposalId */\n      dup7\n        /* \"Qvoting.sol\":3814:3836  proposals[_proposalId] */\n      dup2\n      mstore\n      0x20\n      add\n      swap1\n      dup2\n      mstore\n      0x20\n      add\n      0x00\n      keccak256\n        /* \"Qvoting.sol\":3814:3849  proposals[_proposalId].numOfOptions */\n      0x04\n      add\n      0x00\n      swap1\n      sload\n      swap1\n      0x0100\n      exp\n      swap1\n      div\n      0xffff\n      and\n        /* \"Qvoting.sol\":3814:3864  proposals[_proposalId].numOfOptions ==_hash.length */\n      0xffff\n      and\n      eq\n        /* \"Qvoting.sol\":3806:3905  require(proposals[_proposalId].numOfOptions ==_hash.length, \"not a valid length of hash response!\") */\n      tag_122\n      jumpi\n      mload(0x40)\n      0x08c379a000000000000000000000000000000000000000000000000000000000\n      dup2\n      mstore\n      0x04\n      add\n      tag_123\n      swap1\n      tag_124\n      jump\t// in\n    tag_123:\n      mload(0x40)\n      dup1\n      swap2\n      sub\n      swap1\n      revert\n    tag_122:\n        /* \"Qvoting.sol\":3916:3924  uint sum */\n      0x00\n        /* \"Qvoting.sol\":3941:3947  uint i */\n      dup1\n        /* \"Qvoting.sol\":3937:4006  for(uint i=0;i<v.length;i++){\r... */\n    tag_125:\n        /* \"Qvoting.sol\":3952:3953  v */\n      dup3\n        /* \"Qvoting.sol\":3952:3960  v.length */\n      mload\n        /* \"Qvoting.sol\":3950:3951  i */\n      dup2\n        /* \"Qvoting.sol\":3950:3960  i<v.length */\n      lt\n        /* \"Qvoting.sol\":3937:4006  for(uint i=0;i<v.length;i++){\r... */\n      iszero\n      tag_126\n      jumpi\n        /* \"Qvoting.sol\":3990:3991  v */\n      dup3\n        /* \"Qvoting.sol\":3992:3993  i */\n      dup2\n        /* \"Qvoting.sol\":3990:3994  v[i] */\n      dup2\n      mload\n      dup2\n      lt\n      tag_128\n      jumpi\n      tag_129\n      tag_95\n      jump\t// in\n    tag_129:\n    tag_128:\n      0x20\n      mul\n      0x20\n      add\n      add\n      mload\n        /* \"Qvoting.sol\":3985:3986  v */\n      dup4\n        /* \"Qvoting.sol\":3987:3988  i */\n      dup3\n        /* \"Qvoting.sol\":3985:3989  v[i] */\n      dup2\n      mload\n      dup2\n      lt\n      tag_130\n      jumpi\n      tag_131\n      tag_95\n      jump\t// in\n    tag_131:\n    tag_130:\n      0x20\n      mul\n      0x20\n      add\n      add\n      mload\n        /* \"Qvoting.sol\":3985:3994  v[i]*v[i] */\n      tag_132\n      swap2\n      swap1\n      tag_133\n      jump\t// in\n    tag_132:\n        /* \"Qvoting.sol\":3980:3994  sum+=v[i]*v[i] */\n      dup3\n      tag_134\n      swap2\n      swap1\n      tag_135\n      jump\t// in\n    tag_134:\n      swap2\n      pop\n        /* \"Qvoting.sol\":3961:3964  i++ */\n      dup1\n      dup1\n      tag_136\n      swap1\n      tag_84\n      jump\t// in\n    tag_136:\n      swap2\n      pop\n      pop\n        /* \"Qvoting.sol\":3937:4006  for(uint i=0;i<v.length;i++){\r... */\n      jump(tag_125)\n    tag_126:\n      pop\n        /* \"Qvoting.sol\":4066:4069  sum */\n      dup1\n        /* \"Qvoting.sol\":4024:4033  allVoters */\n      0x08\n        /* \"Qvoting.sol\":4024:4041  allVoters[_voter] */\n      0x00\n        /* \"Qvoting.sol\":4034:4040  _voter */\n      dup7\n        /* \"Qvoting.sol\":4024:4041  allVoters[_voter] */\n      0xffffffffffffffffffffffffffffffffffffffff\n      and\n      0xffffffffffffffffffffffffffffffffffffffff\n      and\n      dup2\n      mstore\n      0x20\n      add\n      swap1\n      dup2\n      mstore\n      0x20\n      add\n      0x00\n      keccak256\n        /* \"Qvoting.sol\":4024:4054  allVoters[_voter][_proposalId] */\n      0x00\n        /* \"Qvoting.sol\":4042:4053  _proposalId */\n      dup8\n        /* \"Qvoting.sol\":4024:4054  allVoters[_voter][_proposalId] */\n      dup2\n      mstore\n      0x20\n      add\n      swap1\n      dup2\n      mstore\n      0x20\n      add\n      0x00\n      keccak256\n        /* \"Qvoting.sol\":4024:4062  allVoters[_voter][_proposalId].voteNum */\n      0x02\n      add\n      sload\n        /* \"Qvoting.sol\":4024:4069  allVoters[_voter][_proposalId].voteNum >= sum */\n      lt\n      iszero\n        /* \"Qvoting.sol\":4016:4109  require(allVoters[_voter][_proposalId].voteNum >= sum, \"not sufficient balance to cast vote\") */\n      tag_137\n      jumpi\n      mload(0x40)\n      0x08c379a000000000000000000000000000000000000000000000000000000000\n      dup2\n      mstore\n      0x04\n      add\n      tag_138\n      swap1\n      tag_139\n      jump\t// in\n    tag_138:\n      mload(0x40)\n      dup1\n      swap2\n      sub\n      swap1\n      revert\n    tag_137:\n        /* \"Qvoting.sol\":4122:4178  proposals[_proposalId].responseProposal(_voter,_hash, v) */\n      tag_140\n        /* \"Qvoting.sol\":4162:4168  _voter */\n      dup5\n        /* \"Qvoting.sol\":4169:4174  _hash */\n      dup5\n        /* \"Qvoting.sol\":4176:4177  v */\n      dup5\n        /* \"Qvoting.sol\":4122:4131  proposals */\n      0x07\n        /* \"Qvoting.sol\":4122:4144  proposals[_proposalId] */\n      0x00\n        /* \"Qvoting.sol\":4132:4143  _proposalId */\n      dup11\n        /* \"Qvoting.sol\":4122:4144  proposals[_proposalId] */\n      dup2\n      mstore\n      0x20\n      add\n      swap1\n      dup2\n      mstore\n      0x20\n      add\n      0x00\n      keccak256\n        /* \"Qvoting.sol\":4122:4161  proposals[_proposalId].responseProposal */\n      tag_141\n      swap1\n        /* \"Qvoting.sol\":4122:4178  proposals[_proposalId].responseProposal(_voter,_hash, v) */\n      swap4\n      swap3\n      swap2\n      swap1\n      0xffffffff\n      and\n      jump\t// in\n    tag_140:\n      pop\n        /* \"Qvoting.sol\":4189:4254  userProposal[_msgSender()].updateResponseList(_proposalId, _hash) */\n      tag_142\n        /* \"Qvoting.sol\":4235:4246  _proposalId */\n      dup6\n        /* \"Qvoting.sol\":4248:4253  _hash */\n      dup5\n        /* \"Qvoting.sol\":4189:4201  userProposal */\n      0x06\n        /* \"Qvoting.sol\":4189:4215  userProposal[_msgSender()] */\n      0x00\n        /* \"Qvoting.sol\":4202:4214  _msgSender() */\n      tag_143\n        /* \"Qvoting.sol\":4202:4212  _msgSender */\n      tag_110\n        /* \"Qvoting.sol\":4202:4214  _msgSender() */\n      jump\t// in\n    tag_143:\n        /* \"Qvoting.sol\":4189:4215  userProposal[_msgSender()] */\n      0xffffffffffffffffffffffffffffffffffffffff\n      and\n      0xffffffffffffffffffffffffffffffffffffffff\n      and\n      dup2\n      mstore\n      0x20\n      add\n      swap1\n      dup2\n      mstore\n      0x20\n      add\n      0x00\n      keccak256\n        /* \"Qvoting.sol\":4189:4234  userProposal[_msgSender()].updateResponseList */\n      tag_144\n      swap1\n        /* \"Qvoting.sol\":4189:4254  userProposal[_msgSender()].updateResponseList(_proposalId, _hash) */\n      swap3\n      swap2\n      swap1\n      0xffffffff\n      and\n      jump\t// in\n    tag_142:\n      pop\n        /* \"Qvoting.sol\":4267:4313  allVoters[_voter][_proposalId].updateVoteNum() */\n      tag_145\n        /* \"Qvoting.sol\":4267:4276  allVoters */\n      0x08\n        /* \"Qvoting.sol\":4267:4284  allVoters[_voter] */\n      0x00\n        /* \"Qvoting.sol\":4277:4283  _voter */\n      dup7\n        /* \"Qvoting.sol\":4267:4284  allVoters[_voter] */\n      0xffffffffffffffffffffffffffffffffffffffff\n      and\n      0xffffffffffffffffffffffffffffffffffffffff\n      and\n      dup2\n      mstore\n      0x20\n      add\n      swap1\n      dup2\n      mstore\n      0x20\n      add\n      0x00\n      keccak256\n        /* \"Qvoting.sol\":4267:4297  allVoters[_voter][_proposalId] */\n      0x00\n        /* \"Qvoting.sol\":4285:4296  _proposalId */\n      dup8\n        /* \"Qvoting.sol\":4267:4297  allVoters[_voter][_proposalId] */\n      dup2\n      mstore\n      0x20\n      add\n      swap1\n      dup2\n      mstore\n      0x20\n      add\n      0x00\n      keccak256\n        /* \"Qvoting.sol\":4267:4311  allVoters[_voter][_proposalId].updateVoteNum */\n      tag_146\n        /* \"Qvoting.sol\":4267:4313  allVoters[_voter][_proposalId].updateVoteNum() */\n      jump\t// in\n    tag_145:\n      pop\n        /* \"Qvoting.sol\":4366:4370  true */\n      0x01\n        /* \"Qvoting.sol\":4324:4333  allVoters */\n      0x08\n        /* \"Qvoting.sol\":4324:4341  allVoters[_voter] */\n      0x00\n        /* \"Qvoting.sol\":4334:4340  _voter */\n      dup7\n        /* \"Qvoting.sol\":4324:4341  allVoters[_voter] */\n      0xffffffffffffffffffffffffffffffffffffffff\n      and\n      0xffffffffffffffffffffffffffffffffffffffff\n      and\n      dup2\n      mstore\n      0x20\n      add\n      swap1\n      dup2\n      mstore\n      0x20\n      add\n      0x00\n      keccak256\n        /* \"Qvoting.sol\":4324:4354  allVoters[_voter][_proposalId] */\n      0x00\n        /* \"Qvoting.sol\":4342:4353  _proposalId */\n      dup8\n        /* \"Qvoting.sol\":4324:4354  allVoters[_voter][_proposalId] */\n      dup2\n      mstore\n      0x20\n      add\n      swap1\n      dup2\n      mstore\n      0x20\n      add\n      0x00\n      keccak256\n        /* \"Qvoting.sol\":4324:4363  allVoters[_voter][_proposalId].hasVoted */\n      0x01\n      add\n      0x14\n        /* \"Qvoting.sol\":4324:4370  allVoters[_voter][_proposalId].hasVoted = true */\n      0x0100\n      exp\n      dup2\n      sload\n      dup2\n      0xff\n      mul\n      not\n      and\n      swap1\n      dup4\n      iszero\n      iszero\n      mul\n      or\n      swap1\n      sstore\n      pop\n        /* \"Qvoting.sol\":4381:4425  burn(_voter,proposals[proposalId].voteRight) */\n      tag_147\n        /* \"Qvoting.sol\":4386:4392  _voter */\n      dup5\n        /* \"Qvoting.sol\":4393:4402  proposals */\n      0x07\n        /* \"Qvoting.sol\":4393:4414  proposals[proposalId] */\n      0x00\n        /* \"Qvoting.sol\":4403:4413  proposalId */\n      sload(0x05)\n        /* \"Qvoting.sol\":4393:4414  proposals[proposalId] */\n      dup2\n      mstore\n      0x20\n      add\n      swap1\n      dup2\n      mstore\n      0x20\n      add\n      0x00\n      keccak256\n        /* \"Qvoting.sol\":4393:4424  proposals[proposalId].voteRight */\n      0x05\n      add\n      sload\n        /* \"Qvoting.sol\":4381:4385  burn */\n      tag_148\n        /* \"Qvoting.sol\":4381:4425  burn(_voter,proposals[proposalId].voteRight) */\n      jump\t// in\n    tag_147:\n        /* \"Qvoting.sol\":4441:4501  mintAndburn(\"burn\", _voter, proposals[proposalId].voteRight) */\n      0xabf5327be9f5825c40d58bda541dd07f09b62df3376bbd5ecdbaa8bd82a9d492\n        /* \"Qvoting.sol\":4461:4467  _voter */\n      dup5\n        /* \"Qvoting.sol\":4469:4478  proposals */\n      0x07\n        /* \"Qvoting.sol\":4469:4490  proposals[proposalId] */\n      0x00\n        /* \"Qvoting.sol\":4479:4489  proposalId */\n      sload(0x05)\n        /* \"Qvoting.sol\":4469:4490  proposals[proposalId] */\n      dup2\n      mstore\n      0x20\n      add\n      swap1\n      dup2\n      mstore\n      0x20\n      add\n      0x00\n      keccak256\n        /* \"Qvoting.sol\":4469:4500  proposals[proposalId].voteRight */\n      0x05\n      add\n      sload\n        /* \"Qvoting.sol\":4441:4501  mintAndburn(\"burn\", _voter, proposals[proposalId].voteRight) */\n      mload(0x40)\n      tag_149\n      swap3\n      swap2\n      swap1\n      tag_150\n      jump\t// in\n    tag_149:\n      mload(0x40)\n      dup1\n      swap2\n      sub\n      swap1\n      log1\n        /* \"Qvoting.sol\":3379:4519  {\r... */\n      pop\n        /* \"Qvoting.sol\":3270:4519  function responseProposal(uint _proposalId, address _voter, string[] memory _hash, uint[] memory v) external {\r... */\n      pop\n      pop\n      pop\n      pop\n      jump\t// out\n        /* \"QvToken/ERC20.sol\":3493:3620  function balanceOf(address account) public view virtual override returns (uint256) {\r... */\n    tag_43:\n        /* \"QvToken/ERC20.sol\":3567:3574  uint256 */\n      0x00\n        /* \"QvToken/ERC20.sol\":3594:3603  _balances */\n      dup1\n        /* \"QvToken/ERC20.sol\":3594:3612  _balances[account] */\n      0x00\n        /* \"QvToken/ERC20.sol\":3604:3611  account */\n      dup4\n        /* \"QvToken/ERC20.sol\":3594:3612  _balances[account] */\n      0xffffffffffffffffffffffffffffffffffffffff\n      and\n      0xffffffffffffffffffffffffffffffffffffffff\n      and\n      dup2\n      mstore\n      0x20\n      add\n      swap1\n      dup2\n      mstore\n      0x20\n      add\n      0x00\n      keccak256\n      sload\n        /* \"QvToken/ERC20.sol\":3587:3612  return _balances[account] */\n      swap1\n      pop\n        /* \"QvToken/ERC20.sol\":3493:3620  function balanceOf(address account) public view virtual override returns (uint256) {\r... */\n      swap2\n      swap1\n      pop\n      jump\t// out\n        /* \"QvToken/ERC20.sol\":2421:2525  function symbol() public view virtual override returns (string memory) {\r... */\n    tag_46:\n        /* \"QvToken/ERC20.sol\":2477:2490  string memory */\n      0x60\n        /* \"QvToken/ERC20.sol\":2510:2517  _symbol */\n      0x03\n        /* \"QvToken/ERC20.sol\":2503:2517  return _symbol */\n      dup1\n      sload\n      tag_153\n      swap1\n      tag_60\n      jump\t// in\n    tag_153:\n      dup1\n      0x1f\n      add\n      0x20\n      dup1\n      swap2\n      div\n      mul\n      0x20\n      add\n      mload(0x40)\n      swap1\n      dup2\n      add\n      0x40\n      mstore\n      dup1\n      swap3\n      swap2\n      swap1\n      dup2\n      dup2\n      mstore\n      0x20\n      add\n      dup3\n      dup1\n      sload\n      tag_154\n      swap1\n      tag_60\n      jump\t// in\n    tag_154:\n      dup1\n      iszero\n      tag_155\n      jumpi\n      dup1\n      0x1f\n      lt\n      tag_156\n      jumpi\n      0x0100\n      dup1\n      dup4\n      sload\n      div\n      mul\n      dup4\n      mstore\n      swap2\n      0x20\n      add\n      swap2\n      jump(tag_155)\n    tag_156:\n      dup3\n      add\n      swap2\n      swap1\n      0x00\n      mstore\n      keccak256(0x00, 0x20)\n      swap1\n    tag_157:\n      dup2\n      sload\n      dup2\n      mstore\n      swap1\n      0x01\n      add\n      swap1\n      0x20\n      add\n      dup1\n      dup4\n      gt\n      tag_157\n      jumpi\n      dup3\n      swap1\n      sub\n      0x1f\n      and\n      dup3\n      add\n      swap2\n    tag_155:\n      pop\n      pop\n      pop\n      pop\n      pop\n      swap1\n      pop\n        /* \"QvToken/ERC20.sol\":2421:2525  function symbol() public view virtual override returns (string memory) {\r... */\n      swap1\n      jump\t// out\n        /* \"Qvoting.sol\":1400:1472  mapping(address => mapping(uint => voterLibrary.voter)) public allVoters */\n    tag_51:\n      mstore(0x20, 0x08)\n      dup2\n      0x00\n      mstore\n      mstore(0x20, keccak256(0x00, 0x40))\n      dup1\n      0x00\n      mstore\n      keccak256(0x00, 0x40)\n      0x00\n      swap2\n      pop\n      swap2\n      pop\n      pop\n      dup1\n      0x00\n      add\n      sload\n      swap1\n      dup1\n      0x01\n      add\n      0x00\n      swap1\n      sload\n      swap1\n      0x0100\n      exp\n      swap1\n      div\n      0xffffffffffffffffffffffffffffffffffffffff\n      and\n      swap1\n      dup1\n      0x01\n      add\n      0x14\n      swap1\n      sload\n      swap1\n      0x0100\n      exp\n      swap1\n      div\n      0xff\n      and\n      swap1\n      dup1\n      0x02\n      add\n      sload\n      swap1\n      pop\n      dup5\n      jump\t// out\n        /* \"Qvoting.sol\":1201:1273  mapping(address => UserProposalLibrary.UserProposal) public userProposal */\n    tag_56:\n      mstore(0x20, 0x06)\n      dup1\n      0x00\n      mstore\n      keccak256(0x00, 0x40)\n      0x00\n      swap2\n      pop\n      swap1\n      pop\n      dup1\n      0x00\n      add\n      0x00\n      swap1\n      sload\n      swap1\n      0x0100\n      exp\n      swap1\n      div\n      0xffffffffffffffffffffffffffffffff\n      and\n      swap1\n      dup1\n      0x00\n      add\n      0x10\n      swap1\n      sload\n      swap1\n      0x0100\n      exp\n      swap1\n      div\n      0xffffffffffffffffffffffffffffffff\n      and\n      swap1\n      pop\n      dup3\n      jump\t// out\n        /* \"Library/ProposalLibrary.sol\":806:1983  function createProposal(proposal storage self, uint8 _status, address[] memory _voters, address _creator,\r... */\n    tag_86:\n        /* \"Library/ProposalLibrary.sol\":1044:1048  bool */\n      0x00\n        /* \"Library/ProposalLibrary.sol\":1099:1107  _creator */\n      dup8\n        /* \"Library/ProposalLibrary.sol\":1084:1088  self */\n      dup12\n        /* \"Library/ProposalLibrary.sol\":1084:1096  self.creator */\n      0x00\n      add\n      0x00\n        /* \"Library/ProposalLibrary.sol\":1084:1107  self.creator = _creator */\n      0x0100\n      exp\n      dup2\n      sload\n      dup2\n      0xffffffffffffffffffffffffffffffffffffffff\n      mul\n      not\n      and\n      swap1\n      dup4\n      0xffffffffffffffffffffffffffffffffffffffff\n      and\n      mul\n      or\n      swap1\n      sstore\n      pop\n        /* \"Library/ProposalLibrary.sol\":1156:1163  _status */\n      dup10\n        /* \"Library/ProposalLibrary.sol\":1142:1146  self */\n      dup12\n        /* \"Library/ProposalLibrary.sol\":1142:1153  self.status */\n      0x00\n      add\n      0x14\n        /* \"Library/ProposalLibrary.sol\":1142:1163  self.status = _status */\n      0x0100\n      exp\n      dup2\n      sload\n      dup2\n      0xff\n      mul\n      not\n      and\n      swap1\n      dup4\n      0xff\n      and\n      mul\n      or\n      swap1\n      sstore\n      pop\n        /* \"Library/ProposalLibrary.sol\":1210:1215  _disc */\n      dup5\n        /* \"Library/ProposalLibrary.sol\":1198:1202  self */\n      dup12\n        /* \"Library/ProposalLibrary.sol\":1198:1207  self.disc */\n      0x01\n      add\n        /* \"Library/ProposalLibrary.sol\":1198:1215  self.disc = _disc */\n      swap1\n      dup1\n      mload\n      swap1\n      0x20\n      add\n      swap1\n      tag_159\n      swap3\n      swap2\n      swap1\n      tag_160\n      jump\t// in\n    tag_159:\n      pop\n        /* \"Library/ProposalLibrary.sol\":1267:1277  _startTime */\n      dup7\n        /* \"Library/ProposalLibrary.sol\":1250:1254  self */\n      dup12\n        /* \"Library/ProposalLibrary.sol\":1250:1264  self.startTime */\n      0x02\n      add\n        /* \"Library/ProposalLibrary.sol\":1250:1277  self.startTime = _startTime */\n      dup2\n      swap1\n      sstore\n      pop\n        /* \"Library/ProposalLibrary.sol\":1334:1349  _expirationTime */\n      dup6\n        /* \"Library/ProposalLibrary.sol\":1312:1316  self */\n      dup12\n        /* \"Library/ProposalLibrary.sol\":1312:1331  self.expirationTime */\n      0x03\n      add\n        /* \"Library/ProposalLibrary.sol\":1312:1349  self.expirationTime = _expirationTime */\n      dup2\n      swap1\n      sstore\n      pop\n        /* \"Library/ProposalLibrary.sol\":1411:1416  _cand */\n      dup3\n      dup3\n        /* \"Library/ProposalLibrary.sol\":1411:1423  _cand.length */\n      swap1\n      pop\n        /* \"Library/ProposalLibrary.sol\":1384:1388  self */\n      dup12\n        /* \"Library/ProposalLibrary.sol\":1384:1401  self.numOfOptions */\n      0x04\n      add\n      0x00\n        /* \"Library/ProposalLibrary.sol\":1384:1424  self.numOfOptions = uint16(_cand.length) */\n      0x0100\n      exp\n      dup2\n      sload\n      dup2\n      0xffff\n      mul\n      not\n      and\n      swap1\n      dup4\n      0xffff\n      and\n      mul\n      or\n      swap1\n      sstore\n      pop\n        /* \"Library/ProposalLibrary.sol\":1476:1486  _voteRight */\n      dup4\n        /* \"Library/ProposalLibrary.sol\":1459:1463  self */\n      dup12\n        /* \"Library/ProposalLibrary.sol\":1459:1473  self.voteRight */\n      0x05\n      add\n        /* \"Library/ProposalLibrary.sol\":1459:1486  self.voteRight = _voteRight */\n      dup2\n      swap1\n      sstore\n      pop\n        /* \"Library/ProposalLibrary.sol\":1525:1534  uint256 i */\n      0x00\n        /* \"Library/ProposalLibrary.sol\":1521:1726  for(uint256 i=0;i<_cand.length;i++){\r... */\n    tag_161:\n        /* \"Library/ProposalLibrary.sol\":1539:1544  _cand */\n      dup4\n      dup4\n        /* \"Library/ProposalLibrary.sol\":1539:1551  _cand.length */\n      swap1\n      pop\n        /* \"Library/ProposalLibrary.sol\":1537:1538  i */\n      dup2\n        /* \"Library/ProposalLibrary.sol\":1537:1551  i<_cand.length */\n      lt\n        /* \"Library/ProposalLibrary.sol\":1521:1726  for(uint256 i=0;i<_cand.length;i++){\r... */\n      iszero\n      tag_162\n      jumpi\n        /* \"Library/ProposalLibrary.sol\":1617:1621  true */\n      0x01\n        /* \"Library/ProposalLibrary.sol\":1595:1599  self */\n      dup13\n        /* \"Library/ProposalLibrary.sol\":1595:1604  self.cand */\n      0x07\n      add\n        /* \"Library/ProposalLibrary.sol\":1605:1610  _cand */\n      dup6\n      dup6\n        /* \"Library/ProposalLibrary.sol\":1611:1612  i */\n      dup5\n        /* \"Library/ProposalLibrary.sol\":1605:1613  _cand[i] */\n      dup2\n      dup2\n      lt\n      tag_164\n      jumpi\n      tag_165\n      tag_95\n      jump\t// in\n    tag_165:\n    tag_164:\n      swap1\n      pop\n      0x20\n      mul\n      dup2\n      add\n      swap1\n      tag_166\n      swap2\n      swap1\n      tag_167\n      jump\t// in\n    tag_166:\n        /* \"Library/ProposalLibrary.sol\":1595:1614  self.cand[_cand[i]] */\n      mload(0x40)\n      tag_168\n      swap3\n      swap2\n      swap1\n      tag_169\n      jump\t// in\n    tag_168:\n      swap1\n      dup2\n      mstore\n      0x20\n      add\n      mload(0x40)\n      dup1\n      swap2\n      sub\n      swap1\n      keccak256\n      0x00\n        /* \"Library/ProposalLibrary.sol\":1595:1621  self.cand[_cand[i]] = true */\n      0x0100\n      exp\n      dup2\n      sload\n      dup2\n      0xff\n      mul\n      not\n      and\n      swap1\n      dup4\n      iszero\n      iszero\n      mul\n      or\n      swap1\n      sstore\n      pop\n        /* \"Library/ProposalLibrary.sol\":1682:1687  _cand */\n      dup4\n      dup4\n        /* \"Library/ProposalLibrary.sol\":1688:1689  i */\n      dup3\n        /* \"Library/ProposalLibrary.sol\":1682:1690  _cand[i] */\n      dup2\n      dup2\n      lt\n      tag_170\n      jumpi\n      tag_171\n      tag_95\n      jump\t// in\n    tag_171:\n    tag_170:\n      swap1\n      pop\n      0x20\n      mul\n      dup2\n      add\n      swap1\n      tag_172\n      swap2\n      swap1\n      tag_167\n      jump\t// in\n    tag_172:\n        /* \"Library/ProposalLibrary.sol\":1660:1664  self */\n      dup14\n        /* \"Library/ProposalLibrary.sol\":1660:1673  self.candHash */\n      0x08\n      add\n        /* \"Library/ProposalLibrary.sol\":1660:1678  self.candHash[i+1] */\n      0x00\n        /* \"Library/ProposalLibrary.sol\":1676:1677  1 */\n      0x01\n        /* \"Library/ProposalLibrary.sol\":1674:1675  i */\n      dup6\n        /* \"Library/ProposalLibrary.sol\":1674:1677  i+1 */\n      tag_173\n      swap2\n      swap1\n      tag_135\n      jump\t// in\n    tag_173:\n        /* \"Library/ProposalLibrary.sol\":1660:1678  self.candHash[i+1] */\n      dup2\n      mstore\n      0x20\n      add\n      swap1\n      dup2\n      mstore\n      0x20\n      add\n      0x00\n      keccak256\n        /* \"Library/ProposalLibrary.sol\":1660:1690  self.candHash[i+1] =  _cand[i] */\n      swap2\n      swap1\n      tag_174\n      swap3\n      swap2\n      swap1\n      tag_175\n      jump\t// in\n    tag_174:\n      pop\n        /* \"Library/ProposalLibrary.sol\":1552:1555  i++ */\n      dup1\n      dup1\n      tag_176\n      swap1\n      tag_84\n      jump\t// in\n    tag_176:\n      swap2\n      pop\n      pop\n        /* \"Library/ProposalLibrary.sol\":1521:1726  for(uint256 i=0;i<_cand.length;i++){\r... */\n      jump(tag_161)\n    tag_162:\n      pop\n        /* \"Library/ProposalLibrary.sol\":1764:1773  uint256 i */\n      0x00\n        /* \"Library/ProposalLibrary.sol\":1760:1902  for(uint256 i=0;i<_voters.length;i++){\r... */\n    tag_177:\n        /* \"Library/ProposalLibrary.sol\":1778:1785  _voters */\n      dup10\n        /* \"Library/ProposalLibrary.sol\":1778:1792  _voters.length */\n      mload\n        /* \"Library/ProposalLibrary.sol\":1776:1777  i */\n      dup2\n        /* \"Library/ProposalLibrary.sol\":1776:1792  i<_voters.length */\n      lt\n        /* \"Library/ProposalLibrary.sol\":1760:1902  for(uint256 i=0;i<_voters.length;i++){\r... */\n      iszero\n      tag_178\n      jumpi\n        /* \"Library/ProposalLibrary.sol\":1862:1866  true */\n      0x01\n        /* \"Library/ProposalLibrary.sol\":1836:1840  self */\n      dup13\n        /* \"Library/ProposalLibrary.sol\":1836:1847  self.voters */\n      0x06\n      add\n        /* \"Library/ProposalLibrary.sol\":1836:1859  self.voters[_voters[i]] */\n      0x00\n        /* \"Library/ProposalLibrary.sol\":1848:1855  _voters */\n      dup13\n        /* \"Library/ProposalLibrary.sol\":1856:1857  i */\n      dup5\n        /* \"Library/ProposalLibrary.sol\":1848:1858  _voters[i] */\n      dup2\n      mload\n      dup2\n      lt\n      tag_180\n      jumpi\n      tag_181\n      tag_95\n      jump\t// in\n    tag_181:\n    tag_180:\n      0x20\n      mul\n      0x20\n      add\n      add\n      mload\n        /* \"Library/ProposalLibrary.sol\":1836:1859  self.voters[_voters[i]] */\n      0xffffffffffffffffffffffffffffffffffffffff\n      and\n      0xffffffffffffffffffffffffffffffffffffffff\n      and\n      dup2\n      mstore\n      0x20\n      add\n      swap1\n      dup2\n      mstore\n      0x20\n      add\n      0x00\n      keccak256\n      0x00\n        /* \"Library/ProposalLibrary.sol\":1836:1866  self.voters[_voters[i]] = true */\n      0x0100\n      exp\n      dup2\n      sload\n      dup2\n      0xff\n      mul\n      not\n      and\n      swap1\n      dup4\n      iszero\n      iszero\n      mul\n      or\n      swap1\n      sstore\n      pop\n        /* \"Library/ProposalLibrary.sol\":1793:1796  i++ */\n      dup1\n      dup1\n      tag_182\n      swap1\n      tag_84\n      jump\t// in\n    tag_182:\n      swap2\n      pop\n      pop\n        /* \"Library/ProposalLibrary.sol\":1760:1902  for(uint256 i=0;i<_voters.length;i++){\r... */\n      jump(tag_177)\n    tag_178:\n      pop\n        /* \"Library/ProposalLibrary.sol\":1945:1949  true */\n      0x01\n        /* \"Library/ProposalLibrary.sol\":1938:1949  return true */\n      swap1\n      pop\n        /* \"Library/ProposalLibrary.sol\":806:1983  function createProposal(proposal storage self, uint8 _status, address[] memory _voters, address _creator,\r... */\n      swap11\n      swap10\n      pop\n      pop\n      pop\n      pop\n      pop\n      pop\n      pop\n      pop\n      pop\n      pop\n      jump\t// out\n        /* \"QvToken/QvToken.sol\":398:502  function mint(address to , uint amount) onlyOwner(_msgSender()) internal {\r... */\n    tag_96:\n        /* \"QvToken/QvToken.sol\":448:460  _msgSender() */\n      tag_183\n        /* \"QvToken/QvToken.sol\":448:458  _msgSender */\n      tag_110\n        /* \"QvToken/QvToken.sol\":448:460  _msgSender() */\n      jump\t// in\n    tag_183:\n        /* \"QvToken/QvToken.sol\":366:375  msgSender */\n      dup1\n        /* \"QvToken/QvToken.sol\":357:375  owner == msgSender */\n      0xffffffffffffffffffffffffffffffffffffffff\n      and\n        /* \"QvToken/QvToken.sol\":357:362  owner */\n      0x04\n      0x00\n      swap1\n      sload\n      swap1\n      0x0100\n      exp\n      swap1\n      div\n      0xffffffffffffffffffffffffffffffffffffffff\n      and\n        /* \"QvToken/QvToken.sol\":357:375  owner == msgSender */\n      0xffffffffffffffffffffffffffffffffffffffff\n      and\n      eq\n        /* \"QvToken/QvToken.sol\":349:376  require(owner == msgSender) */\n      tag_185\n      jumpi\n      0x00\n      dup1\n      revert\n    tag_185:\n        /* \"QvToken/QvToken.sol\":478:494  _mint(to,amount) */\n      tag_187\n        /* \"QvToken/QvToken.sol\":484:486  to */\n      dup4\n        /* \"QvToken/QvToken.sol\":487:493  amount */\n      dup4\n        /* \"QvToken/QvToken.sol\":478:483  _mint */\n      tag_188\n        /* \"QvToken/QvToken.sol\":478:494  _mint(to,amount) */\n      jump\t// in\n    tag_187:\n        /* \"QvToken/QvToken.sol\":398:502  function mint(address to , uint amount) onlyOwner(_msgSender()) internal {\r... */\n      pop\n      pop\n      pop\n      jump\t// out\n        /* \"Library/VoterLibrary.sol\":1090:1525  function createVoter(voter storage self, uint _proposalId, address _voterAddress, bool _hasVoted, uint _voteNum) internal returns(bool){\r... */\n    tag_102:\n        /* \"Library/VoterLibrary.sol\":1220:1224  bool */\n      0x00\n        /* \"Library/VoterLibrary.sol\":1278:1289  _proposalId */\n      dup5\n        /* \"Library/VoterLibrary.sol\":1260:1264  self */\n      dup7\n        /* \"Library/VoterLibrary.sol\":1260:1275  self.proposalId */\n      0x00\n      add\n        /* \"Library/VoterLibrary.sol\":1260:1289  self.proposalId = _proposalId */\n      dup2\n      swap1\n      sstore\n      pop\n        /* \"Library/VoterLibrary.sol\":1344:1357  _voterAddress */\n      dup4\n        /* \"Library/VoterLibrary.sol\":1324:1328  self */\n      dup7\n        /* \"Library/VoterLibrary.sol\":1324:1341  self.voterAddress */\n      0x01\n      add\n      0x00\n        /* \"Library/VoterLibrary.sol\":1324:1357  self.voterAddress = _voterAddress */\n      0x0100\n      exp\n      dup2\n      sload\n      dup2\n      0xffffffffffffffffffffffffffffffffffffffff\n      mul\n      not\n      and\n      swap1\n      dup4\n      0xffffffffffffffffffffffffffffffffffffffff\n      and\n      mul\n      or\n      swap1\n      sstore\n      pop\n        /* \"Library/VoterLibrary.sol\":1408:1417  _hasVoted */\n      dup3\n        /* \"Library/VoterLibrary.sol\":1392:1396  self */\n      dup7\n        /* \"Library/VoterLibrary.sol\":1392:1405  self.hasVoted */\n      0x01\n      add\n      0x14\n        /* \"Library/VoterLibrary.sol\":1392:1417  self.hasVoted = _hasVoted */\n      0x0100\n      exp\n      dup2\n      sload\n      dup2\n      0xff\n      mul\n      not\n      and\n      swap1\n      dup4\n      iszero\n      iszero\n      mul\n      or\n      swap1\n      sstore\n      pop\n        /* \"Library/VoterLibrary.sol\":1467:1475  _voteNum */\n      dup2\n        /* \"Library/VoterLibrary.sol\":1452:1456  self */\n      dup7\n        /* \"Library/VoterLibrary.sol\":1452:1464  self.voteNum */\n      0x02\n      add\n        /* \"Library/VoterLibrary.sol\":1452:1475  self.voteNum = _voteNum */\n      dup2\n      swap1\n      sstore\n      pop\n        /* \"Library/VoterLibrary.sol\":1517:1521  true */\n      0x01\n        /* \"Library/VoterLibrary.sol\":1510:1521  return true */\n      swap1\n      pop\n        /* \"Library/VoterLibrary.sol\":1090:1525  function createVoter(voter storage self, uint _proposalId, address _voterAddress, bool _hasVoted, uint _voteNum) internal returns(bool){\r... */\n      swap6\n      swap5\n      pop\n      pop\n      pop\n      pop\n      pop\n      jump\t// out\n        /* \"QvToken/Context.sol\":656:754  function _msgSender() internal view virtual returns (address) {\r... */\n    tag_110:\n        /* \"QvToken/Context.sol\":709:716  address */\n      0x00\n        /* \"QvToken/Context.sol\":736:746  msg.sender */\n      caller\n        /* \"QvToken/Context.sol\":729:746  return msg.sender */\n      swap1\n      pop\n        /* \"QvToken/Context.sol\":656:754  function _msgSender() internal view virtual returns (address) {\r... */\n      swap1\n      jump\t// out\n        /* \"Library/UserProposalLibrary.sol\":573:794  function updateProposalList(UserProposal storage self, uint _proposalId) internal returns(bool){\r... */\n    tag_111:\n        /* \"Library/UserProposalLibrary.sol\":663:667  bool */\n      0x00\n        /* \"Library/UserProposalLibrary.sol\":679:683  self */\n      dup3\n        /* \"Library/UserProposalLibrary.sol\":679:697  self.proposalCount */\n      0x00\n      add\n      0x00\n        /* \"Library/UserProposalLibrary.sol\":679:699  self.proposalCount++ */\n      dup2\n      dup2\n      swap1\n      sload\n      swap1\n      0x0100\n      exp\n      swap1\n      div\n      0xffffffffffffffffffffffffffffffff\n      and\n      dup1\n      swap3\n      swap2\n      swap1\n      tag_192\n      swap1\n      tag_193\n      jump\t// in\n    tag_192:\n      swap2\n      swap1\n      0x0100\n      exp\n      dup2\n      sload\n      dup2\n      0xffffffffffffffffffffffffffffffff\n      mul\n      not\n      and\n      swap1\n      dup4\n      0xffffffffffffffffffffffffffffffff\n      and\n      mul\n      or\n      swap1\n      sstore\n      pop\n      pop\n        /* \"Library/UserProposalLibrary.sol\":753:764  _proposalId */\n      dup2\n        /* \"Library/UserProposalLibrary.sol\":710:714  self */\n      dup4\n        /* \"Library/UserProposalLibrary.sol\":710:730  self.proposalCreated */\n      0x01\n      add\n        /* \"Library/UserProposalLibrary.sol\":710:750  self.proposalCreated[self.proposalCount] */\n      0x00\n        /* \"Library/UserProposalLibrary.sol\":731:735  self */\n      dup6\n        /* \"Library/UserProposalLibrary.sol\":731:749  self.proposalCount */\n      0x00\n      add\n      0x00\n      swap1\n      sload\n      swap1\n      0x0100\n      exp\n      swap1\n      div\n      0xffffffffffffffffffffffffffffffff\n      and\n        /* \"Library/UserProposalLibrary.sol\":710:750  self.proposalCreated[self.proposalCount] */\n      0xffffffffffffffffffffffffffffffff\n      and\n      0xffffffffffffffffffffffffffffffff\n      and\n      dup2\n      mstore\n      0x20\n      add\n      swap1\n      dup2\n      mstore\n      0x20\n      add\n      0x00\n      keccak256\n        /* \"Library/UserProposalLibrary.sol\":710:764  self.proposalCreated[self.proposalCount] = _proposalId */\n      dup2\n      swap1\n      sstore\n      pop\n        /* \"Library/UserProposalLibrary.sol\":782:786  true */\n      0x01\n        /* \"Library/UserProposalLibrary.sol\":775:786  return true */\n      swap1\n      pop\n        /* \"Library/UserProposalLibrary.sol\":573:794  function updateProposalList(UserProposal storage self, uint _proposalId) internal returns(bool){\r... */\n      swap3\n      swap2\n      pop\n      pop\n      jump\t// out\n        /* \"Library/ProposalLibrary.sol\":2018:3370  function responseProposal(proposal storage self, address _voter, string[] memory _hash, uint[] memory v) internal returns(bool){\r... */\n    tag_141:\n        /* \"Library/ProposalLibrary.sol\":2140:2144  bool */\n      0x00\n        /* \"Library/ProposalLibrary.sol\":2179:2180  2 */\n      0x02\n        /* \"Library/ProposalLibrary.sol\":2164:2168  self */\n      dup6\n        /* \"Library/ProposalLibrary.sol\":2164:2175  self.status */\n      0x00\n      add\n      0x14\n      swap1\n      sload\n      swap1\n      0x0100\n      exp\n      swap1\n      div\n      0xff\n      and\n        /* \"Library/ProposalLibrary.sol\":2164:2180  self.status == 2 */\n      0xff\n      and\n      eq\n        /* \"Library/ProposalLibrary.sol\":2156:2203  require(self.status == 2, \"Proposal: inactive\") */\n      tag_195\n      jumpi\n      mload(0x40)\n      0x08c379a000000000000000000000000000000000000000000000000000000000\n      dup2\n      mstore\n      0x04\n      add\n      tag_196\n      swap1\n      tag_197\n      jump\t// in\n    tag_196:\n      mload(0x40)\n      dup1\n      swap2\n      sub\n      swap1\n      revert\n    tag_195:\n        /* \"Library/ProposalLibrary.sol\":2235:2239  self */\n      dup5\n        /* \"Library/ProposalLibrary.sol\":2235:2254  self.expirationTime */\n      0x03\n      add\n      sload\n        /* \"Library/ProposalLibrary.sol\":2217:2232  block.timestamp */\n      timestamp\n        /* \"Library/ProposalLibrary.sol\":2217:2254  block.timestamp > self.expirationTime */\n      gt\n        /* \"Library/ProposalLibrary.sol\":2214:3069  if(block.timestamp > self.expirationTime){\r... */\n      iszero\n      tag_198\n      jumpi\n        /* \"Library/ProposalLibrary.sol\":2324:2325  2 */\n      0x02\n        /* \"Library/ProposalLibrary.sol\":2310:2314  self */\n      dup6\n        /* \"Library/ProposalLibrary.sol\":2310:2321  self.status */\n      0x00\n      add\n      0x14\n        /* \"Library/ProposalLibrary.sol\":2310:2325  self.status = 2 */\n      0x0100\n      exp\n      dup2\n      sload\n      dup2\n      0xff\n      mul\n      not\n      and\n      swap1\n      dup4\n      0xff\n      and\n      mul\n      or\n      swap1\n      sstore\n      pop\n        /* \"Library/ProposalLibrary.sol\":2340:2357  uint largestCount */\n      0x00\n        /* \"Library/ProposalLibrary.sol\":2360:2364  self */\n      dup6\n        /* \"Library/ProposalLibrary.sol\":2360:2370  self.votes */\n      0x0a\n      add\n        /* \"Library/ProposalLibrary.sol\":2371:2375  self */\n      dup7\n        /* \"Library/ProposalLibrary.sol\":2371:2384  self.candHash */\n      0x08\n      add\n        /* \"Library/ProposalLibrary.sol\":2371:2387  self.candHash[1] */\n      0x00\n        /* \"Library/ProposalLibrary.sol\":2385:2386  1 */\n      0x01\n        /* \"Library/ProposalLibrary.sol\":2371:2387  self.candHash[1] */\n      dup2\n      mstore\n      0x20\n      add\n      swap1\n      dup2\n      mstore\n      0x20\n      add\n      0x00\n      keccak256\n        /* \"Library/ProposalLibrary.sol\":2360:2388  self.votes[self.candHash[1]] */\n      mload(0x40)\n      tag_199\n      swap2\n      swap1\n      tag_200\n      jump\t// in\n    tag_199:\n      swap1\n      dup2\n      mstore\n      0x20\n      add\n      mload(0x40)\n      dup1\n      swap2\n      sub\n      swap1\n      keccak256\n      sload\n        /* \"Library/ProposalLibrary.sol\":2340:2388  uint largestCount = self.votes[self.candHash[1]] */\n      swap1\n      pop\n        /* \"Library/ProposalLibrary.sol\":2403:2419  uint winnerCount */\n      0x00\n        /* \"Library/ProposalLibrary.sol\":2422:2423  1 */\n      0x01\n        /* \"Library/ProposalLibrary.sol\":2403:2423  uint winnerCount = 1 */\n      swap1\n      pop\n        /* \"Library/ProposalLibrary.sol\":2455:2459  self */\n      dup7\n        /* \"Library/ProposalLibrary.sol\":2455:2468  self.candHash */\n      0x08\n      add\n        /* \"Library/ProposalLibrary.sol\":2455:2471  self.candHash[1] */\n      0x00\n        /* \"Library/ProposalLibrary.sol\":2469:2470  1 */\n      0x01\n        /* \"Library/ProposalLibrary.sol\":2455:2471  self.candHash[1] */\n      dup2\n      mstore\n      0x20\n      add\n      swap1\n      dup2\n      mstore\n      0x20\n      add\n      0x00\n      keccak256\n        /* \"Library/ProposalLibrary.sol\":2438:2442  self */\n      dup8\n        /* \"Library/ProposalLibrary.sol\":2438:2449  self.result */\n      0x09\n      add\n        /* \"Library/ProposalLibrary.sol\":2438:2452  self.result[1] */\n      0x00\n        /* \"Library/ProposalLibrary.sol\":2450:2451  1 */\n      0x01\n        /* \"Library/ProposalLibrary.sol\":2438:2452  self.result[1] */\n      dup2\n      mstore\n      0x20\n      add\n      swap1\n      dup2\n      mstore\n      0x20\n      add\n      0x00\n      keccak256\n        /* \"Library/ProposalLibrary.sol\":2438:2471  self.result[1] = self.candHash[1] */\n      swap1\n      dup1\n      sload\n      tag_201\n      swap1\n      tag_60\n      jump\t// in\n    tag_201:\n      tag_202\n      swap3\n      swap2\n      swap1\n      tag_203\n      jump\t// in\n    tag_202:\n      pop\n        /* \"Library/ProposalLibrary.sol\":2553:2561  uint16 i */\n      0x00\n        /* \"Library/ProposalLibrary.sol\":2564:2565  2 */\n      0x02\n        /* \"Library/ProposalLibrary.sol\":2553:2565  uint16 i = 2 */\n      swap1\n      pop\n        /* \"Library/ProposalLibrary.sol\":2549:3031  for(uint16 i = 2; i <= self.numOfOptions; i++){\r... */\n    tag_204:\n        /* \"Library/ProposalLibrary.sol\":2572:2576  self */\n      dup8\n        /* \"Library/ProposalLibrary.sol\":2572:2589  self.numOfOptions */\n      0x04\n      add\n      0x00\n      swap1\n      sload\n      swap1\n      0x0100\n      exp\n      swap1\n      div\n      0xffff\n      and\n        /* \"Library/ProposalLibrary.sol\":2567:2589  i <= self.numOfOptions */\n      0xffff\n      and\n        /* \"Library/ProposalLibrary.sol\":2567:2568  i */\n      dup2\n        /* \"Library/ProposalLibrary.sol\":2567:2589  i <= self.numOfOptions */\n      0xffff\n      and\n      gt\n        /* \"Library/ProposalLibrary.sol\":2549:3031  for(uint16 i = 2; i <= self.numOfOptions; i++){\r... */\n      tag_205\n      jumpi\n        /* \"Library/ProposalLibrary.sol\":2648:2660  largestCount */\n      dup3\n        /* \"Library/ProposalLibrary.sol\":2617:2621  self */\n      dup9\n        /* \"Library/ProposalLibrary.sol\":2617:2627  self.votes */\n      0x0a\n      add\n        /* \"Library/ProposalLibrary.sol\":2628:2632  self */\n      dup10\n        /* \"Library/ProposalLibrary.sol\":2628:2641  self.candHash */\n      0x08\n      add\n        /* \"Library/ProposalLibrary.sol\":2628:2644  self.candHash[i] */\n      0x00\n        /* \"Library/ProposalLibrary.sol\":2642:2643  i */\n      dup5\n        /* \"Library/ProposalLibrary.sol\":2628:2644  self.candHash[i] */\n      0xffff\n      and\n      dup2\n      mstore\n      0x20\n      add\n      swap1\n      dup2\n      mstore\n      0x20\n      add\n      0x00\n      keccak256\n        /* \"Library/ProposalLibrary.sol\":2617:2645  self.votes[self.candHash[i]] */\n      mload(0x40)\n      tag_207\n      swap2\n      swap1\n      tag_200\n      jump\t// in\n    tag_207:\n      swap1\n      dup2\n      mstore\n      0x20\n      add\n      mload(0x40)\n      dup1\n      swap2\n      sub\n      swap1\n      keccak256\n      sload\n        /* \"Library/ProposalLibrary.sol\":2617:2660  self.votes[self.candHash[i]] > largestCount */\n      gt\n        /* \"Library/ProposalLibrary.sol\":2614:3016  if(self.votes[self.candHash[i]] > largestCount){\r... */\n      iszero\n      tag_208\n      jumpi\n        /* \"Library/ProposalLibrary.sol\":2699:2703  self */\n      dup8\n        /* \"Library/ProposalLibrary.sol\":2699:2709  self.votes */\n      0x0a\n      add\n        /* \"Library/ProposalLibrary.sol\":2710:2714  self */\n      dup9\n        /* \"Library/ProposalLibrary.sol\":2710:2723  self.candHash */\n      0x08\n      add\n        /* \"Library/ProposalLibrary.sol\":2710:2726  self.candHash[i] */\n      0x00\n        /* \"Library/ProposalLibrary.sol\":2724:2725  i */\n      dup4\n        /* \"Library/ProposalLibrary.sol\":2710:2726  self.candHash[i] */\n      0xffff\n      and\n      dup2\n      mstore\n      0x20\n      add\n      swap1\n      dup2\n      mstore\n      0x20\n      add\n      0x00\n      keccak256\n        /* \"Library/ProposalLibrary.sol\":2699:2727  self.votes[self.candHash[i]] */\n      mload(0x40)\n      tag_209\n      swap2\n      swap1\n      tag_200\n      jump\t// in\n    tag_209:\n      swap1\n      dup2\n      mstore\n      0x20\n      add\n      mload(0x40)\n      dup1\n      swap2\n      sub\n      swap1\n      keccak256\n      sload\n        /* \"Library/ProposalLibrary.sol\":2684:2727  largestCount = self.votes[self.candHash[i]] */\n      swap3\n      pop\n        /* \"Library/ProposalLibrary.sol\":2764:2765  1 */\n      0x01\n        /* \"Library/ProposalLibrary.sol\":2750:2765  winnerCount = 1 */\n      swap2\n      pop\n        /* \"Library/ProposalLibrary.sol\":2805:2809  self */\n      dup8\n        /* \"Library/ProposalLibrary.sol\":2805:2818  self.candHash */\n      0x08\n      add\n        /* \"Library/ProposalLibrary.sol\":2805:2821  self.candHash[i] */\n      0x00\n        /* \"Library/ProposalLibrary.sol\":2819:2820  i */\n      dup3\n        /* \"Library/ProposalLibrary.sol\":2805:2821  self.candHash[i] */\n      0xffff\n      and\n      dup2\n      mstore\n      0x20\n      add\n      swap1\n      dup2\n      mstore\n      0x20\n      add\n      0x00\n      keccak256\n        /* \"Library/ProposalLibrary.sol\":2788:2792  self */\n      dup9\n        /* \"Library/ProposalLibrary.sol\":2788:2799  self.result */\n      0x09\n      add\n        /* \"Library/ProposalLibrary.sol\":2788:2802  self.result[1] */\n      0x00\n        /* \"Library/ProposalLibrary.sol\":2800:2801  1 */\n      0x01\n        /* \"Library/ProposalLibrary.sol\":2788:2802  self.result[1] */\n      dup2\n      mstore\n      0x20\n      add\n      swap1\n      dup2\n      mstore\n      0x20\n      add\n      0x00\n      keccak256\n        /* \"Library/ProposalLibrary.sol\":2788:2821  self.result[1] = self.candHash[i] */\n      swap1\n      dup1\n      sload\n      tag_210\n      swap1\n      tag_60\n      jump\t// in\n    tag_210:\n      tag_211\n      swap3\n      swap2\n      swap1\n      tag_203\n      jump\t// in\n    tag_211:\n      pop\n        /* \"Library/ProposalLibrary.sol\":2614:3016  if(self.votes[self.candHash[i]] > largestCount){\r... */\n      jump(tag_212)\n    tag_208:\n        /* \"Library/ProposalLibrary.sol\":2881:2893  largestCount */\n      dup3\n        /* \"Library/ProposalLibrary.sol\":2849:2853  self */\n      dup9\n        /* \"Library/ProposalLibrary.sol\":2849:2859  self.votes */\n      0x0a\n      add\n        /* \"Library/ProposalLibrary.sol\":2860:2864  self */\n      dup10\n        /* \"Library/ProposalLibrary.sol\":2860:2873  self.candHash */\n      0x08\n      add\n        /* \"Library/ProposalLibrary.sol\":2860:2876  self.candHash[i] */\n      0x00\n        /* \"Library/ProposalLibrary.sol\":2874:2875  i */\n      dup5\n        /* \"Library/ProposalLibrary.sol\":2860:2876  self.candHash[i] */\n      0xffff\n      and\n      dup2\n      mstore\n      0x20\n      add\n      swap1\n      dup2\n      mstore\n      0x20\n      add\n      0x00\n      keccak256\n        /* \"Library/ProposalLibrary.sol\":2849:2877  self.votes[self.candHash[i]] */\n      mload(0x40)\n      tag_213\n      swap2\n      swap1\n      tag_200\n      jump\t// in\n    tag_213:\n      swap1\n      dup2\n      mstore\n      0x20\n      add\n      mload(0x40)\n      dup1\n      swap2\n      sub\n      swap1\n      keccak256\n      sload\n        /* \"Library/ProposalLibrary.sol\":2849:2893  self.votes[self.candHash[i]] == largestCount */\n      eq\n        /* \"Library/ProposalLibrary.sol\":2846:3016  if(self.votes[self.candHash[i]] == largestCount){\r... */\n      iszero\n      tag_214\n      jumpi\n        /* \"Library/ProposalLibrary.sol\":2917:2930  winnerCount++ */\n      dup2\n      dup1\n      tag_215\n      swap1\n      tag_84\n      jump\t// in\n    tag_215:\n      swap3\n      pop\n      pop\n        /* \"Library/ProposalLibrary.sol\":2980:2984  self */\n      dup8\n        /* \"Library/ProposalLibrary.sol\":2980:2993  self.candHash */\n      0x08\n      add\n        /* \"Library/ProposalLibrary.sol\":2980:2996  self.candHash[i] */\n      0x00\n        /* \"Library/ProposalLibrary.sol\":2994:2995  i */\n      dup3\n        /* \"Library/ProposalLibrary.sol\":2980:2996  self.candHash[i] */\n      0xffff\n      and\n      dup2\n      mstore\n      0x20\n      add\n      swap1\n      dup2\n      mstore\n      0x20\n      add\n      0x00\n      keccak256\n        /* \"Library/ProposalLibrary.sol\":2953:2957  self */\n      dup9\n        /* \"Library/ProposalLibrary.sol\":2953:2964  self.result */\n      0x09\n      add\n        /* \"Library/ProposalLibrary.sol\":2953:2977  self.result[winnerCount] */\n      0x00\n        /* \"Library/ProposalLibrary.sol\":2965:2976  winnerCount */\n      dup5\n        /* \"Library/ProposalLibrary.sol\":2953:2977  self.result[winnerCount] */\n      dup2\n      mstore\n      0x20\n      add\n      swap1\n      dup2\n      mstore\n      0x20\n      add\n      0x00\n      keccak256\n        /* \"Library/ProposalLibrary.sol\":2953:2996  self.result[winnerCount] = self.candHash[i] */\n      swap1\n      dup1\n      sload\n      tag_216\n      swap1\n      tag_60\n      jump\t// in\n    tag_216:\n      tag_217\n      swap3\n      swap2\n      swap1\n      tag_203\n      jump\t// in\n    tag_217:\n      pop\n        /* \"Library/ProposalLibrary.sol\":2846:3016  if(self.votes[self.candHash[i]] == largestCount){\r... */\n    tag_214:\n        /* \"Library/ProposalLibrary.sol\":2614:3016  if(self.votes[self.candHash[i]] > largestCount){\r... */\n    tag_212:\n        /* \"Library/ProposalLibrary.sol\":2591:2594  i++ */\n      dup1\n      dup1\n      tag_218\n      swap1\n      tag_219\n      jump\t// in\n    tag_218:\n      swap2\n      pop\n      pop\n        /* \"Library/ProposalLibrary.sol\":2549:3031  for(uint16 i = 2; i <= self.numOfOptions; i++){\r... */\n      jump(tag_204)\n    tag_205:\n      pop\n        /* \"Library/ProposalLibrary.sol\":3052:3057  false */\n      0x00\n        /* \"Library/ProposalLibrary.sol\":3045:3057  return false */\n      swap3\n      pop\n      pop\n      pop\n      jump(tag_194)\n        /* \"Library/ProposalLibrary.sol\":2214:3069  if(block.timestamp > self.expirationTime){\r... */\n    tag_198:\n        /* \"Library/ProposalLibrary.sol\":3112:3116  self */\n      dup5\n        /* \"Library/ProposalLibrary.sol\":3112:3123  self.voters */\n      0x06\n      add\n        /* \"Library/ProposalLibrary.sol\":3112:3131  self.voters[_voter] */\n      0x00\n        /* \"Library/ProposalLibrary.sol\":3124:3130  _voter */\n      dup6\n        /* \"Library/ProposalLibrary.sol\":3112:3131  self.voters[_voter] */\n      0xffffffffffffffffffffffffffffffffffffffff\n      and\n      0xffffffffffffffffffffffffffffffffffffffff\n      and\n      dup2\n      mstore\n      0x20\n      add\n      swap1\n      dup2\n      mstore\n      0x20\n      add\n      0x00\n      keccak256\n      0x00\n      swap1\n      sload\n      swap1\n      0x0100\n      exp\n      swap1\n      div\n      0xff\n      and\n        /* \"Library/ProposalLibrary.sol\":3104:3171  require(self.voters[_voter], \"Not a valid voter for this proposal\") */\n      tag_220\n      jumpi\n      mload(0x40)\n      0x08c379a000000000000000000000000000000000000000000000000000000000\n      dup2\n      mstore\n      0x04\n      add\n      tag_221\n      swap1\n      tag_222\n      jump\t// in\n    tag_221:\n      mload(0x40)\n      dup1\n      swap2\n      sub\n      swap1\n      revert\n    tag_220:\n        /* \"Library/ProposalLibrary.sol\":3188:3196  uint16 i */\n      0x00\n        /* \"Library/ProposalLibrary.sol\":3184:3341  for(uint16 i=0;i<self.numOfOptions;i++){\r... */\n    tag_223:\n        /* \"Library/ProposalLibrary.sol\":3201:3205  self */\n      dup6\n        /* \"Library/ProposalLibrary.sol\":3201:3218  self.numOfOptions */\n      0x04\n      add\n      0x00\n      swap1\n      sload\n      swap1\n      0x0100\n      exp\n      swap1\n      div\n      0xffff\n      and\n        /* \"Library/ProposalLibrary.sol\":3199:3218  i<self.numOfOptions */\n      0xffff\n      and\n        /* \"Library/ProposalLibrary.sol\":3199:3200  i */\n      dup2\n        /* \"Library/ProposalLibrary.sol\":3199:3218  i<self.numOfOptions */\n      0xffff\n      and\n      lt\n        /* \"Library/ProposalLibrary.sol\":3184:3341  for(uint16 i=0;i<self.numOfOptions;i++){\r... */\n      iszero\n      tag_224\n      jumpi\n        /* \"Library/ProposalLibrary.sol\":3242:3246  self */\n      dup6\n        /* \"Library/ProposalLibrary.sol\":3242:3251  self.cand */\n      0x07\n      add\n        /* \"Library/ProposalLibrary.sol\":3252:3257  _hash */\n      dup5\n        /* \"Library/ProposalLibrary.sol\":3258:3259  i */\n      dup3\n        /* \"Library/ProposalLibrary.sol\":3252:3260  _hash[i] */\n      0xffff\n      and\n      dup2\n      mload\n      dup2\n      lt\n      tag_226\n      jumpi\n      tag_227\n      tag_95\n      jump\t// in\n    tag_227:\n    tag_226:\n      0x20\n      mul\n      0x20\n      add\n      add\n      mload\n        /* \"Library/ProposalLibrary.sol\":3242:3261  self.cand[_hash[i]] */\n      mload(0x40)\n      tag_228\n      swap2\n      swap1\n      tag_229\n      jump\t// in\n    tag_228:\n      swap1\n      dup2\n      mstore\n      0x20\n      add\n      mload(0x40)\n      dup1\n      swap2\n      sub\n      swap1\n      keccak256\n      0x00\n      swap1\n      sload\n      swap1\n      0x0100\n      exp\n      swap1\n      div\n      0xff\n      and\n        /* \"Library/ProposalLibrary.sol\":3234:3293  require(self.cand[_hash[i]], \"Proposal: invalid candidate\") */\n      tag_230\n      jumpi\n      mload(0x40)\n      0x08c379a000000000000000000000000000000000000000000000000000000000\n      dup2\n      mstore\n      0x04\n      add\n      tag_231\n      swap1\n      tag_232\n      jump\t// in\n    tag_231:\n      mload(0x40)\n      dup1\n      swap2\n      sub\n      swap1\n      revert\n    tag_230:\n        /* \"Library/ProposalLibrary.sol\":3325:3326  v */\n      dup3\n        /* \"Library/ProposalLibrary.sol\":3327:3328  i */\n      dup2\n        /* \"Library/ProposalLibrary.sol\":3325:3329  v[i] */\n      0xffff\n      and\n      dup2\n      mload\n      dup2\n      lt\n      tag_233\n      jumpi\n      tag_234\n      tag_95\n      jump\t// in\n    tag_234:\n    tag_233:\n      0x20\n      mul\n      0x20\n      add\n      add\n      mload\n        /* \"Library/ProposalLibrary.sol\":3304:3308  self */\n      dup7\n        /* \"Library/ProposalLibrary.sol\":3304:3314  self.votes */\n      0x0a\n      add\n        /* \"Library/ProposalLibrary.sol\":3315:3320  _hash */\n      dup6\n        /* \"Library/ProposalLibrary.sol\":3321:3322  i */\n      dup4\n        /* \"Library/ProposalLibrary.sol\":3315:3323  _hash[i] */\n      0xffff\n      and\n      dup2\n      mload\n      dup2\n      lt\n      tag_235\n      jumpi\n      tag_236\n      tag_95\n      jump\t// in\n    tag_236:\n    tag_235:\n      0x20\n      mul\n      0x20\n      add\n      add\n      mload\n        /* \"Library/ProposalLibrary.sol\":3304:3324  self.votes[_hash[i]] */\n      mload(0x40)\n      tag_237\n      swap2\n      swap1\n      tag_229\n      jump\t// in\n    tag_237:\n      swap1\n      dup2\n      mstore\n      0x20\n      add\n      mload(0x40)\n      dup1\n      swap2\n      sub\n      swap1\n      keccak256\n        /* \"Library/ProposalLibrary.sol\":3304:3329  self.votes[_hash[i]]=v[i] */\n      dup2\n      swap1\n      sstore\n      pop\n        /* \"Library/ProposalLibrary.sol\":3219:3222  i++ */\n      dup1\n      dup1\n      tag_238\n      swap1\n      tag_219\n      jump\t// in\n    tag_238:\n      swap2\n      pop\n      pop\n        /* \"Library/ProposalLibrary.sol\":3184:3341  for(uint16 i=0;i<self.numOfOptions;i++){\r... */\n      jump(tag_223)\n    tag_224:\n      pop\n        /* \"Library/ProposalLibrary.sol\":3358:3362  true */\n      0x01\n        /* \"Library/ProposalLibrary.sol\":3351:3362  return true */\n      swap1\n      pop\n        /* \"Library/ProposalLibrary.sol\":2018:3370  function responseProposal(proposal storage self, address _voter, string[] memory _hash, uint[] memory v) internal returns(bool){\r... */\n    tag_194:\n      swap5\n      swap4\n      pop\n      pop\n      pop\n      pop\n      jump\t// out\n        /* \"Library/UserProposalLibrary.sol\":802:1377  function updateResponseList(UserProposal storage self, uint _proposalId, string[] memory _hash) internal returns(bool){\r... */\n    tag_144:\n        /* \"Library/UserProposalLibrary.sol\":915:919  bool */\n      0x00\n        /* \"Library/UserProposalLibrary.sol\":931:935  self */\n      dup4\n        /* \"Library/UserProposalLibrary.sol\":931:949  self.responseCount */\n      0x00\n      add\n      0x10\n        /* \"Library/UserProposalLibrary.sol\":931:951  self.responseCount++ */\n      dup2\n      dup2\n      swap1\n      sload\n      swap1\n      0x0100\n      exp\n      swap1\n      div\n      0xffffffffffffffffffffffffffffffff\n      and\n      dup1\n      swap3\n      swap2\n      swap1\n      tag_240\n      swap1\n      tag_193\n      jump\t// in\n    tag_240:\n      swap2\n      swap1\n      0x0100\n      exp\n      dup2\n      sload\n      dup2\n      0xffffffffffffffffffffffffffffffff\n      mul\n      not\n      and\n      swap1\n      dup4\n      0xffffffffffffffffffffffffffffffff\n      and\n      mul\n      or\n      swap1\n      sstore\n      pop\n      pop\n        /* \"Library/UserProposalLibrary.sol\":1009:1020  _proposalId */\n      dup3\n        /* \"Library/UserProposalLibrary.sol\":964:968  self */\n      dup5\n        /* \"Library/UserProposalLibrary.sol\":964:986  self.proposalResponsed */\n      0x02\n      add\n        /* \"Library/UserProposalLibrary.sol\":964:1006  self.proposalResponsed[self.responseCount] */\n      0x00\n        /* \"Library/UserProposalLibrary.sol\":987:991  self */\n      dup7\n        /* \"Library/UserProposalLibrary.sol\":987:1005  self.responseCount */\n      0x00\n      add\n      0x10\n      swap1\n      sload\n      swap1\n      0x0100\n      exp\n      swap1\n      div\n      0xffffffffffffffffffffffffffffffff\n      and\n        /* \"Library/UserProposalLibrary.sol\":964:1006  self.proposalResponsed[self.responseCount] */\n      0xffffffffffffffffffffffffffffffff\n      and\n      0xffffffffffffffffffffffffffffffff\n      and\n      dup2\n      mstore\n      0x20\n      add\n      swap1\n      dup2\n      mstore\n      0x20\n      add\n      0x00\n      keccak256\n        /* \"Library/UserProposalLibrary.sol\":964:1020  self.proposalResponsed[self.responseCount] = _proposalId */\n      dup2\n      swap1\n      sstore\n      pop\n        /* \"Library/UserProposalLibrary.sol\":1190:1198  uint16 i */\n      0x00\n        /* \"Library/UserProposalLibrary.sol\":1186:1295  for(uint16 i=0;i<_hash.length;i++){\r... */\n    tag_241:\n        /* \"Library/UserProposalLibrary.sol\":1203:1208  _hash */\n      dup3\n        /* \"Library/UserProposalLibrary.sol\":1203:1215  _hash.length */\n      mload\n        /* \"Library/UserProposalLibrary.sol\":1201:1202  i */\n      dup2\n        /* \"Library/UserProposalLibrary.sol\":1201:1215  i<_hash.length */\n      0xffff\n      and\n      lt\n        /* \"Library/UserProposalLibrary.sol\":1186:1295  for(uint16 i=0;i<_hash.length;i++){\r... */\n      iszero\n      tag_242\n      jumpi\n        /* \"Library/UserProposalLibrary.sol\":1275:1280  _hash */\n      dup3\n        /* \"Library/UserProposalLibrary.sol\":1281:1282  i */\n      dup2\n        /* \"Library/UserProposalLibrary.sol\":1275:1283  _hash[i] */\n      0xffff\n      and\n      dup2\n      mload\n      dup2\n      lt\n      tag_244\n      jumpi\n      tag_245\n      tag_95\n      jump\t// in\n    tag_245:\n    tag_244:\n      0x20\n      mul\n      0x20\n      add\n      add\n      mload\n        /* \"Library/UserProposalLibrary.sol\":1235:1239  self */\n      dup6\n        /* \"Library/UserProposalLibrary.sol\":1235:1254  self.proposalAnswer */\n      0x03\n      add\n        /* \"Library/UserProposalLibrary.sol\":1235:1267  self.proposalAnswer[_proposalId] */\n      0x00\n        /* \"Library/UserProposalLibrary.sol\":1255:1266  _proposalId */\n      dup7\n        /* \"Library/UserProposalLibrary.sol\":1235:1267  self.proposalAnswer[_proposalId] */\n      dup2\n      mstore\n      0x20\n      add\n      swap1\n      dup2\n      mstore\n      0x20\n      add\n      0x00\n      keccak256\n        /* \"Library/UserProposalLibrary.sol\":1235:1272  self.proposalAnswer[_proposalId][i+1] */\n      0x00\n        /* \"Library/UserProposalLibrary.sol\":1270:1271  1 */\n      0x01\n        /* \"Library/UserProposalLibrary.sol\":1268:1269  i */\n      dup5\n        /* \"Library/UserProposalLibrary.sol\":1268:1271  i+1 */\n      tag_246\n      swap2\n      swap1\n      tag_247\n      jump\t// in\n    tag_246:\n        /* \"Library/UserProposalLibrary.sol\":1235:1272  self.proposalAnswer[_proposalId][i+1] */\n      0xffff\n      and\n      dup2\n      mstore\n      0x20\n      add\n      swap1\n      dup2\n      mstore\n      0x20\n      add\n      0x00\n      keccak256\n        /* \"Library/UserProposalLibrary.sol\":1235:1283  self.proposalAnswer[_proposalId][i+1] = _hash[i] */\n      swap1\n      dup1\n      mload\n      swap1\n      0x20\n      add\n      swap1\n      tag_248\n      swap3\n      swap2\n      swap1\n      tag_160\n      jump\t// in\n    tag_248:\n      pop\n        /* \"Library/UserProposalLibrary.sol\":1216:1219  i++ */\n      dup1\n      dup1\n      tag_249\n      swap1\n      tag_219\n      jump\t// in\n    tag_249:\n      swap2\n      pop\n      pop\n        /* \"Library/UserProposalLibrary.sol\":1186:1295  for(uint16 i=0;i<_hash.length;i++){\r... */\n      jump(tag_241)\n    tag_242:\n      pop\n        /* \"Library/UserProposalLibrary.sol\":1343:1347  true */\n      0x01\n        /* \"Library/UserProposalLibrary.sol\":1305:1309  self */\n      dup5\n        /* \"Library/UserProposalLibrary.sol\":1305:1327  self.responsedProposal */\n      0x04\n      add\n        /* \"Library/UserProposalLibrary.sol\":1305:1340  self.responsedProposal[_proposalId] */\n      0x00\n        /* \"Library/UserProposalLibrary.sol\":1328:1339  _proposalId */\n      dup6\n        /* \"Library/UserProposalLibrary.sol\":1305:1340  self.responsedProposal[_proposalId] */\n      dup2\n      mstore\n      0x20\n      add\n      swap1\n      dup2\n      mstore\n      0x20\n      add\n      0x00\n      keccak256\n      0x00\n        /* \"Library/UserProposalLibrary.sol\":1305:1347  self.responsedProposal[_proposalId] = true */\n      0x0100\n      exp\n      dup2\n      sload\n      dup2\n      0xff\n      mul\n      not\n      and\n      swap1\n      dup4\n      iszero\n      iszero\n      mul\n      or\n      swap1\n      sstore\n      pop\n        /* \"Library/UserProposalLibrary.sol\":1365:1369  true */\n      0x01\n        /* \"Library/UserProposalLibrary.sol\":1358:1369  return true */\n      swap1\n      pop\n        /* \"Library/UserProposalLibrary.sol\":802:1377  function updateResponseList(UserProposal storage self, uint _proposalId, string[] memory _hash) internal returns(bool){\r... */\n      swap4\n      swap3\n      pop\n      pop\n      pop\n      jump\t// out\n        /* \"Library/VoterLibrary.sol\":832:1063  function updateVoteNum(voter storage self) internal returns(bool){\r... */\n    tag_146:\n        /* \"Library/VoterLibrary.sol\":892:896  bool */\n      0x00\n        /* \"Library/VoterLibrary.sol\":931:932  0 */\n      dup1\n        /* \"Library/VoterLibrary.sol\":914:918  self */\n      dup3\n        /* \"Library/VoterLibrary.sol\":914:929  self.proposalId */\n      0x00\n      add\n      sload\n        /* \"Library/VoterLibrary.sol\":914:932  self.proposalId!=0 */\n      eq\n      iszero\n        /* \"Library/VoterLibrary.sol\":906:965  require(self.proposalId!=0,\"Invalid voter for proposalId!\") */\n      tag_251\n      jumpi\n      mload(0x40)\n      0x08c379a000000000000000000000000000000000000000000000000000000000\n      dup2\n      mstore\n      0x04\n      add\n      tag_252\n      swap1\n      tag_253\n      jump\t// in\n    tag_252:\n      mload(0x40)\n      dup1\n      swap2\n      sub\n      swap1\n      revert\n    tag_251:\n        /* \"Library/VoterLibrary.sol\":983:987  self */\n      dup2\n        /* \"Library/VoterLibrary.sol\":983:996  self.hasVoted */\n      0x01\n      add\n      0x14\n      swap1\n      sload\n      swap1\n      0x0100\n      exp\n      swap1\n      div\n      0xff\n      and\n        /* \"Library/VoterLibrary.sol\":982:996  !self.hasVoted */\n      iszero\n        /* \"Library/VoterLibrary.sol\":974:1010  require(!self.hasVoted, \"not voted\") */\n      tag_254\n      jumpi\n      mload(0x40)\n      0x08c379a000000000000000000000000000000000000000000000000000000000\n      dup2\n      mstore\n      0x04\n      add\n      tag_255\n      swap1\n      tag_256\n      jump\t// in\n    tag_255:\n      mload(0x40)\n      dup1\n      swap2\n      sub\n      swap1\n      revert\n    tag_254:\n        /* \"Library/VoterLibrary.sol\":1034:1035  0 */\n      0x00\n        /* \"Library/VoterLibrary.sol\":1019:1023  self */\n      dup3\n        /* \"Library/VoterLibrary.sol\":1019:1031  self.voteNum */\n      0x02\n      add\n        /* \"Library/VoterLibrary.sol\":1019:1035  self.voteNum = 0 */\n      dup2\n      swap1\n      sstore\n      pop\n        /* \"Library/VoterLibrary.sol\":1051:1055  true */\n      0x01\n        /* \"Library/VoterLibrary.sol\":1044:1055  return true */\n      swap1\n      pop\n        /* \"Library/VoterLibrary.sol\":832:1063  function updateVoteNum(voter storage self) internal returns(bool){\r... */\n      swap2\n      swap1\n      pop\n      jump\t// out\n        /* \"QvToken/QvToken.sol\":510:613  function burn(address to,uint amount) onlyOwner(_msgSender()) internal {\r... */\n    tag_148:\n        /* \"QvToken/QvToken.sol\":558:570  _msgSender() */\n      tag_257\n        /* \"QvToken/QvToken.sol\":558:568  _msgSender */\n      tag_110\n        /* \"QvToken/QvToken.sol\":558:570  _msgSender() */\n      jump\t// in\n    tag_257:\n        /* \"QvToken/QvToken.sol\":366:375  msgSender */\n      dup1\n        /* \"QvToken/QvToken.sol\":357:375  owner == msgSender */\n      0xffffffffffffffffffffffffffffffffffffffff\n      and\n        /* \"QvToken/QvToken.sol\":357:362  owner */\n      0x04\n      0x00\n      swap1\n      sload\n      swap1\n      0x0100\n      exp\n      swap1\n      div\n      0xffffffffffffffffffffffffffffffffffffffff\n      and\n        /* \"QvToken/QvToken.sol\":357:375  owner == msgSender */\n      0xffffffffffffffffffffffffffffffffffffffff\n      and\n      eq\n        /* \"QvToken/QvToken.sol\":349:376  require(owner == msgSender) */\n      tag_259\n      jumpi\n      0x00\n      dup1\n      revert\n    tag_259:\n        /* \"QvToken/QvToken.sol\":588:605  _burn(to, amount) */\n      tag_261\n        /* \"QvToken/QvToken.sol\":594:596  to */\n      dup4\n        /* \"QvToken/QvToken.sol\":598:604  amount */\n      dup4\n        /* \"QvToken/QvToken.sol\":588:593  _burn */\n      tag_262\n        /* \"QvToken/QvToken.sol\":588:605  _burn(to, amount) */\n      jump\t// in\n    tag_261:\n        /* \"QvToken/QvToken.sol\":510:613  function burn(address to,uint amount) onlyOwner(_msgSender()) internal {\r... */\n      pop\n      pop\n      pop\n      jump\t// out\n        /* \"QvToken/ERC20.sol\":3630:4033  function _mint(address account, uint256 amount) internal virtual {\r... */\n    tag_188:\n        /* \"QvToken/ERC20.sol\":3733:3734  0 */\n      0x00\n        /* \"QvToken/ERC20.sol\":3714:3735  account != address(0) */\n      0xffffffffffffffffffffffffffffffffffffffff\n      and\n        /* \"QvToken/ERC20.sol\":3714:3721  account */\n      dup3\n        /* \"QvToken/ERC20.sol\":3714:3735  account != address(0) */\n      0xffffffffffffffffffffffffffffffffffffffff\n      and\n      eq\n      iszero\n        /* \"QvToken/ERC20.sol\":3706:3771  require(account != address(0), \"ERC20: mint to the zero address\") */\n      tag_264\n      jumpi\n      mload(0x40)\n      0x08c379a000000000000000000000000000000000000000000000000000000000\n      dup2\n      mstore\n      0x04\n      add\n      tag_265\n      swap1\n      tag_266\n      jump\t// in\n    tag_265:\n      mload(0x40)\n      dup1\n      swap2\n      sub\n      swap1\n      revert\n    tag_264:\n        /* \"QvToken/ERC20.sol\":3865:3871  amount */\n      dup1\n        /* \"QvToken/ERC20.sol\":3849:3861  _totalSupply */\n      0x01\n      0x00\n        /* \"QvToken/ERC20.sol\":3849:3871  _totalSupply += amount */\n      dup3\n      dup3\n      sload\n      tag_267\n      swap2\n      swap1\n      tag_135\n      jump\t// in\n    tag_267:\n      swap3\n      pop\n      pop\n      dup2\n      swap1\n      sstore\n      pop\n        /* \"QvToken/ERC20.sol\":3904:3910  amount */\n      dup1\n        /* \"QvToken/ERC20.sol\":3882:3891  _balances */\n      0x00\n        /* \"QvToken/ERC20.sol\":3882:3900  _balances[account] */\n      dup1\n        /* \"QvToken/ERC20.sol\":3892:3899  account */\n      dup5\n        /* \"QvToken/ERC20.sol\":3882:3900  _balances[account] */\n      0xffffffffffffffffffffffffffffffffffffffff\n      and\n      0xffffffffffffffffffffffffffffffffffffffff\n      and\n      dup2\n      mstore\n      0x20\n      add\n      swap1\n      dup2\n      mstore\n      0x20\n      add\n      0x00\n      keccak256\n      0x00\n        /* \"QvToken/ERC20.sol\":3882:3910  _balances[account] += amount */\n      dup3\n      dup3\n      sload\n      tag_268\n      swap2\n      swap1\n      tag_135\n      jump\t// in\n    tag_268:\n      swap3\n      pop\n      pop\n      dup2\n      swap1\n      sstore\n      pop\n        /* \"QvToken/ERC20.sol\":3926:3961  mintAndburn(\"mint\",account, amount) */\n      0xabf5327be9f5825c40d58bda541dd07f09b62df3376bbd5ecdbaa8bd82a9d492\n        /* \"QvToken/ERC20.sol\":3945:3952  account */\n      dup3\n        /* \"QvToken/ERC20.sol\":3954:3960  amount */\n      dup3\n        /* \"QvToken/ERC20.sol\":3926:3961  mintAndburn(\"mint\",account, amount) */\n      mload(0x40)\n      tag_269\n      swap3\n      swap2\n      swap1\n      tag_106\n      jump\t// in\n    tag_269:\n      mload(0x40)\n      dup1\n      swap2\n      sub\n      swap1\n      log1\n        /* \"QvToken/ERC20.sol\":3630:4033  function _mint(address account, uint256 amount) internal virtual {\r... */\n      pop\n      pop\n      jump\t// out\n        /* \"QvToken/ERC20.sol\":4045:4640  function _burn(address account, uint256 amount) internal virtual {\r... */\n    tag_262:\n        /* \"QvToken/ERC20.sol\":4148:4149  0 */\n      0x00\n        /* \"QvToken/ERC20.sol\":4129:4150  account != address(0) */\n      0xffffffffffffffffffffffffffffffffffffffff\n      and\n        /* \"QvToken/ERC20.sol\":4129:4136  account */\n      dup3\n        /* \"QvToken/ERC20.sol\":4129:4150  account != address(0) */\n      0xffffffffffffffffffffffffffffffffffffffff\n      and\n      eq\n      iszero\n        /* \"QvToken/ERC20.sol\":4121:4188  require(account != address(0), \"ERC20: burn from the zero address\") */\n      tag_271\n      jumpi\n      mload(0x40)\n      0x08c379a000000000000000000000000000000000000000000000000000000000\n      dup2\n      mstore\n      0x04\n      add\n      tag_272\n      swap1\n      tag_273\n      jump\t// in\n    tag_272:\n      mload(0x40)\n      dup1\n      swap2\n      sub\n      swap1\n      revert\n    tag_271:\n        /* \"QvToken/ERC20.sol\":4266:4288  uint256 accountBalance */\n      0x00\n        /* \"QvToken/ERC20.sol\":4291:4300  _balances */\n      dup1\n        /* \"QvToken/ERC20.sol\":4291:4309  _balances[account] */\n      0x00\n        /* \"QvToken/ERC20.sol\":4301:4308  account */\n      dup5\n        /* \"QvToken/ERC20.sol\":4291:4309  _balances[account] */\n      0xffffffffffffffffffffffffffffffffffffffff\n      and\n      0xffffffffffffffffffffffffffffffffffffffff\n      and\n      dup2\n      mstore\n      0x20\n      add\n      swap1\n      dup2\n      mstore\n      0x20\n      add\n      0x00\n      keccak256\n      sload\n        /* \"QvToken/ERC20.sol\":4266:4309  uint256 accountBalance = _balances[account] */\n      swap1\n      pop\n        /* \"QvToken/ERC20.sol\":4346:4352  amount */\n      dup2\n        /* \"QvToken/ERC20.sol\":4328:4342  accountBalance */\n      dup2\n        /* \"QvToken/ERC20.sol\":4328:4352  accountBalance >= amount */\n      lt\n      iszero\n        /* \"QvToken/ERC20.sol\":4320:4391  require(accountBalance >= amount, \"ERC20: burn amount exceeds balance\") */\n      tag_274\n      jumpi\n      mload(0x40)\n      0x08c379a000000000000000000000000000000000000000000000000000000000\n      dup2\n      mstore\n      0x04\n      add\n      tag_275\n      swap1\n      tag_276\n      jump\t// in\n    tag_275:\n      mload(0x40)\n      dup1\n      swap2\n      sub\n      swap1\n      revert\n    tag_274:\n        /* \"QvToken/ERC20.sol\":4465:4471  amount */\n      dup2\n        /* \"QvToken/ERC20.sol\":4448:4462  accountBalance */\n      dup2\n        /* \"QvToken/ERC20.sol\":4448:4471  accountBalance - amount */\n      sub\n        /* \"QvToken/ERC20.sol\":4427:4436  _balances */\n      0x00\n        /* \"QvToken/ERC20.sol\":4427:4445  _balances[account] */\n      dup1\n        /* \"QvToken/ERC20.sol\":4437:4444  account */\n      dup6\n        /* \"QvToken/ERC20.sol\":4427:4445  _balances[account] */\n      0xffffffffffffffffffffffffffffffffffffffff\n      and\n      0xffffffffffffffffffffffffffffffffffffffff\n      and\n      dup2\n      mstore\n      0x20\n      add\n      swap1\n      dup2\n      mstore\n      0x20\n      add\n      0x00\n      keccak256\n        /* \"QvToken/ERC20.sol\":4427:4471  _balances[account] = accountBalance - amount */\n      dup2\n      swap1\n      sstore\n      pop\n        /* \"QvToken/ERC20.sol\":4509:4515  amount */\n      dup2\n        /* \"QvToken/ERC20.sol\":4493:4505  _totalSupply */\n      0x01\n      0x00\n        /* \"QvToken/ERC20.sol\":4493:4515  _totalSupply -= amount */\n      dup3\n      dup3\n      sload\n      tag_277\n      swap2\n      swap1\n      tag_278\n      jump\t// in\n    tag_277:\n      swap3\n      pop\n      pop\n      dup2\n      swap1\n      sstore\n      pop\n        /* \"QvToken/ERC20.sol\":4533:4568  mintAndburn(\"burn\",account, amount) */\n      0xabf5327be9f5825c40d58bda541dd07f09b62df3376bbd5ecdbaa8bd82a9d492\n        /* \"QvToken/ERC20.sol\":4552:4559  account */\n      dup4\n        /* \"QvToken/ERC20.sol\":4561:4567  amount */\n      dup4\n        /* \"QvToken/ERC20.sol\":4533:4568  mintAndburn(\"burn\",account, amount) */\n      mload(0x40)\n      tag_279\n      swap3\n      swap2\n      swap1\n      tag_150\n      jump\t// in\n    tag_279:\n      mload(0x40)\n      dup1\n      swap2\n      sub\n      swap1\n      log1\n        /* \"QvToken/ERC20.sol\":4110:4640  {\r... */\n      pop\n        /* \"QvToken/ERC20.sol\":4045:4640  function _burn(address account, uint256 amount) internal virtual {\r... */\n      pop\n      pop\n      jump\t// out\n    tag_160:\n      dup3\n      dup1\n      sload\n      tag_280\n      swap1\n      tag_60\n      jump\t// in\n    tag_280:\n      swap1\n      0x00\n      mstore\n      keccak256(0x00, 0x20)\n      swap1\n      0x1f\n      add\n      0x20\n      swap1\n      div\n      dup2\n      add\n      swap3\n      dup3\n      tag_282\n      jumpi\n      0x00\n      dup6\n      sstore\n      jump(tag_281)\n    tag_282:\n      dup3\n      0x1f\n      lt\n      tag_283\n      jumpi\n      dup1\n      mload\n      not(0xff)\n      and\n      dup4\n      dup1\n      add\n      or\n      dup6\n      sstore\n      jump(tag_281)\n    tag_283:\n      dup3\n      dup1\n      add\n      0x01\n      add\n      dup6\n      sstore\n      dup3\n      iszero\n      tag_281\n      jumpi\n      swap2\n      dup3\n      add\n    tag_284:\n      dup3\n      dup2\n      gt\n      iszero\n      tag_285\n      jumpi\n      dup3\n      mload\n      dup3\n      sstore\n      swap2\n      0x20\n      add\n      swap2\n      swap1\n      0x01\n      add\n      swap1\n      jump(tag_284)\n    tag_285:\n    tag_281:\n      pop\n      swap1\n      pop\n      tag_286\n      swap2\n      swap1\n      tag_287\n      jump\t// in\n    tag_286:\n      pop\n      swap1\n      jump\t// out\n    tag_175:\n      dup3\n      dup1\n      sload\n      tag_288\n      swap1\n      tag_60\n      jump\t// in\n    tag_288:\n      swap1\n      0x00\n      mstore\n      keccak256(0x00, 0x20)\n      swap1\n      0x1f\n      add\n      0x20\n      swap1\n      div\n      dup2\n      add\n      swap3\n      dup3\n      tag_290\n      jumpi\n      0x00\n      dup6\n      sstore\n      jump(tag_289)\n    tag_290:\n      dup3\n      0x1f\n      lt\n      tag_291\n      jumpi\n      dup1\n      calldataload\n      not(0xff)\n      and\n      dup4\n      dup1\n      add\n      or\n      dup6\n      sstore\n      jump(tag_289)\n    tag_291:\n      dup3\n      dup1\n      add\n      0x01\n      add\n      dup6\n      sstore\n      dup3\n      iszero\n      tag_289\n      jumpi\n      swap2\n      dup3\n      add\n    tag_292:\n      dup3\n      dup2\n      gt\n      iszero\n      tag_293\n      jumpi\n      dup3\n      calldataload\n      dup3\n      sstore\n      swap2\n      0x20\n      add\n      swap2\n      swap1\n      0x01\n      add\n      swap1\n      jump(tag_292)\n    tag_293:\n    tag_289:\n      pop\n      swap1\n      pop\n      tag_294\n      swap2\n      swap1\n      tag_287\n      jump\t// in\n    tag_294:\n      pop\n      swap1\n      jump\t// out\n    tag_203:\n      dup3\n      dup1\n      sload\n      tag_295\n      swap1\n      tag_60\n      jump\t// in\n    tag_295:\n      swap1\n      0x00\n      mstore\n      keccak256(0x00, 0x20)\n      swap1\n      0x1f\n      add\n      0x20\n      swap1\n      div\n      dup2\n      add\n      swap3\n      dup3\n      tag_297\n      jumpi\n      0x00\n      dup6\n      sstore\n      jump(tag_296)\n    tag_297:\n      dup3\n      0x1f\n      lt\n      tag_298\n      jumpi\n      dup1\n      sload\n      dup6\n      sstore\n      jump(tag_296)\n    tag_298:\n      dup3\n      dup1\n      add\n      0x01\n      add\n      dup6\n      sstore\n      dup3\n      iszero\n      tag_296\n      jumpi\n      0x00\n      mstore\n      keccak256(0x00, 0x20)\n      swap2\n      0x1f\n      add\n      0x20\n      swap1\n      div\n      dup3\n      add\n    tag_299:\n      dup3\n      dup2\n      gt\n      iszero\n      tag_300\n      jumpi\n      dup3\n      sload\n      dup3\n      sstore\n      swap2\n      0x01\n      add\n      swap2\n      swap1\n      0x01\n      add\n      swap1\n      jump(tag_299)\n    tag_300:\n    tag_296:\n      pop\n      swap1\n      pop\n      tag_301\n      swap2\n      swap1\n      tag_287\n      jump\t// in\n    tag_301:\n      pop\n      swap1\n      jump\t// out\n    tag_287:\n    tag_302:\n      dup1\n      dup3\n      gt\n      iszero\n      tag_303\n      jumpi\n      0x00\n      dup2\n      0x00\n      swap1\n      sstore\n      pop\n      0x01\n      add\n      jump(tag_302)\n    tag_303:\n      pop\n      swap1\n      jump\t// out\n        /* \"#utility.yul\":24:746   */\n    tag_305:\n        /* \"#utility.yul\":120:125   */\n      0x00\n        /* \"#utility.yul\":145:226   */\n      tag_307\n        /* \"#utility.yul\":161:225   */\n      tag_308\n        /* \"#utility.yul\":218:224   */\n      dup5\n        /* \"#utility.yul\":161:225   */\n      tag_309\n      jump\t// in\n    tag_308:\n        /* \"#utility.yul\":145:226   */\n      tag_310\n      jump\t// in\n    tag_307:\n        /* \"#utility.yul\":136:226   */\n      swap1\n      pop\n        /* \"#utility.yul\":246:251   */\n      dup1\n        /* \"#utility.yul\":275:281   */\n      dup4\n        /* \"#utility.yul\":268:273   */\n      dup3\n        /* \"#utility.yul\":261:282   */\n      mstore\n        /* \"#utility.yul\":309:313   */\n      0x20\n        /* \"#utility.yul\":302:307   */\n      dup3\n        /* \"#utility.yul\":298:314   */\n      add\n        /* \"#utility.yul\":291:314   */\n      swap1\n      pop\n        /* \"#utility.yul\":335:341   */\n      dup3\n        /* \"#utility.yul\":385:388   */\n      dup6\n        /* \"#utility.yul\":377:381   */\n      0x20\n        /* \"#utility.yul\":369:375   */\n      dup7\n        /* \"#utility.yul\":365:382   */\n      mul\n        /* \"#utility.yul\":360:363   */\n      dup3\n        /* \"#utility.yul\":356:383   */\n      add\n        /* \"#utility.yul\":353:389   */\n      gt\n        /* \"#utility.yul\":350:493   */\n      iszero\n      tag_311\n      jumpi\n        /* \"#utility.yul\":404:483   */\n      tag_312\n      tag_313\n      jump\t// in\n    tag_312:\n        /* \"#utility.yul\":350:493   */\n    tag_311:\n        /* \"#utility.yul\":517:518   */\n      0x00\n        /* \"#utility.yul\":502:740   */\n    tag_314:\n        /* \"#utility.yul\":527:533   */\n      dup6\n        /* \"#utility.yul\":524:525   */\n      dup2\n        /* \"#utility.yul\":521:534   */\n      lt\n        /* \"#utility.yul\":502:740   */\n      iszero\n      tag_316\n      jumpi\n        /* \"#utility.yul\":595:598   */\n      dup2\n        /* \"#utility.yul\":624:661   */\n      tag_317\n        /* \"#utility.yul\":657:660   */\n      dup9\n        /* \"#utility.yul\":645:655   */\n      dup3\n        /* \"#utility.yul\":624:661   */\n      tag_318\n      jump\t// in\n    tag_317:\n        /* \"#utility.yul\":619:622   */\n      dup5\n        /* \"#utility.yul\":612:662   */\n      mstore\n        /* \"#utility.yul\":691:695   */\n      0x20\n        /* \"#utility.yul\":686:689   */\n      dup5\n        /* \"#utility.yul\":682:696   */\n      add\n        /* \"#utility.yul\":675:696   */\n      swap4\n      pop\n        /* \"#utility.yul\":725:729   */\n      0x20\n        /* \"#utility.yul\":720:723   */\n      dup4\n        /* \"#utility.yul\":716:730   */\n      add\n        /* \"#utility.yul\":709:730   */\n      swap3\n      pop\n        /* \"#utility.yul\":562:740   */\n      pop\n        /* \"#utility.yul\":549:550   */\n      0x01\n        /* \"#utility.yul\":546:547   */\n      dup2\n        /* \"#utility.yul\":542:551   */\n      add\n        /* \"#utility.yul\":537:551   */\n      swap1\n      pop\n        /* \"#utility.yul\":502:740   */\n      jump(tag_314)\n    tag_316:\n        /* \"#utility.yul\":506:520   */\n      pop\n        /* \"#utility.yul\":126:746   */\n      pop\n      pop\n        /* \"#utility.yul\":24:746   */\n      swap4\n      swap3\n      pop\n      pop\n      pop\n      jump\t// out\n        /* \"#utility.yul\":768:1725   */\n    tag_319:\n        /* \"#utility.yul\":874:879   */\n      0x00\n        /* \"#utility.yul\":899:990   */\n      tag_321\n        /* \"#utility.yul\":915:989   */\n      tag_322\n        /* \"#utility.yul\":982:988   */\n      dup5\n        /* \"#utility.yul\":915:989   */\n      tag_323\n      jump\t// in\n    tag_322:\n        /* \"#utility.yul\":899:990   */\n      tag_310\n      jump\t// in\n    tag_321:\n        /* \"#utility.yul\":890:990   */\n      swap1\n      pop\n        /* \"#utility.yul\":1010:1015   */\n      dup1\n        /* \"#utility.yul\":1039:1045   */\n      dup4\n        /* \"#utility.yul\":1032:1037   */\n      dup3\n        /* \"#utility.yul\":1025:1046   */\n      mstore\n        /* \"#utility.yul\":1073:1077   */\n      0x20\n        /* \"#utility.yul\":1066:1071   */\n      dup3\n        /* \"#utility.yul\":1062:1078   */\n      add\n        /* \"#utility.yul\":1055:1078   */\n      swap1\n      pop\n        /* \"#utility.yul\":1099:1105   */\n      dup3\n        /* \"#utility.yul\":1149:1152   */\n      dup6\n        /* \"#utility.yul\":1141:1145   */\n      0x20\n        /* \"#utility.yul\":1133:1139   */\n      dup7\n        /* \"#utility.yul\":1129:1146   */\n      mul\n        /* \"#utility.yul\":1124:1127   */\n      dup3\n        /* \"#utility.yul\":1120:1147   */\n      add\n        /* \"#utility.yul\":1117:1153   */\n      gt\n        /* \"#utility.yul\":1114:1257   */\n      iszero\n      tag_324\n      jumpi\n        /* \"#utility.yul\":1168:1247   */\n      tag_325\n      tag_313\n      jump\t// in\n    tag_325:\n        /* \"#utility.yul\":1114:1257   */\n    tag_324:\n        /* \"#utility.yul\":1281:1282   */\n      0x00\n        /* \"#utility.yul\":1266:1719   */\n    tag_326:\n        /* \"#utility.yul\":1291:1297   */\n      dup6\n        /* \"#utility.yul\":1288:1289   */\n      dup2\n        /* \"#utility.yul\":1285:1298   */\n      lt\n        /* \"#utility.yul\":1266:1719   */\n      iszero\n      tag_328\n      jumpi\n        /* \"#utility.yul\":1373:1376   */\n      dup2\n        /* \"#utility.yul\":1360:1377   */\n      calldataload\n        /* \"#utility.yul\":1409:1427   */\n      0xffffffffffffffff\n        /* \"#utility.yul\":1396:1407   */\n      dup2\n        /* \"#utility.yul\":1393:1428   */\n      gt\n        /* \"#utility.yul\":1390:1512   */\n      iszero\n      tag_329\n      jumpi\n        /* \"#utility.yul\":1431:1510   */\n      tag_330\n      tag_331\n      jump\t// in\n    tag_330:\n        /* \"#utility.yul\":1390:1512   */\n    tag_329:\n        /* \"#utility.yul\":1555:1566   */\n      dup1\n        /* \"#utility.yul\":1547:1553   */\n      dup7\n        /* \"#utility.yul\":1543:1567   */\n      add\n        /* \"#utility.yul\":1593:1640   */\n      tag_332\n        /* \"#utility.yul\":1636:1639   */\n      dup10\n        /* \"#utility.yul\":1624:1634   */\n      dup3\n        /* \"#utility.yul\":1593:1640   */\n      tag_333\n      jump\t// in\n    tag_332:\n        /* \"#utility.yul\":1588:1591   */\n      dup6\n        /* \"#utility.yul\":1581:1641   */\n      mstore\n        /* \"#utility.yul\":1670:1674   */\n      0x20\n        /* \"#utility.yul\":1665:1668   */\n      dup6\n        /* \"#utility.yul\":1661:1675   */\n      add\n        /* \"#utility.yul\":1654:1675   */\n      swap5\n      pop\n        /* \"#utility.yul\":1704:1708   */\n      0x20\n        /* \"#utility.yul\":1699:1702   */\n      dup5\n        /* \"#utility.yul\":1695:1709   */\n      add\n        /* \"#utility.yul\":1688:1709   */\n      swap4\n      pop\n        /* \"#utility.yul\":1326:1719   */\n      pop\n      pop\n        /* \"#utility.yul\":1313:1314   */\n      0x01\n        /* \"#utility.yul\":1310:1311   */\n      dup2\n        /* \"#utility.yul\":1306:1315   */\n      add\n        /* \"#utility.yul\":1301:1315   */\n      swap1\n      pop\n        /* \"#utility.yul\":1266:1719   */\n      jump(tag_326)\n    tag_328:\n        /* \"#utility.yul\":1270:1284   */\n      pop\n        /* \"#utility.yul\":880:1725   */\n      pop\n      pop\n        /* \"#utility.yul\":768:1725   */\n      swap4\n      swap3\n      pop\n      pop\n      pop\n      jump\t// out\n        /* \"#utility.yul\":1748:2470   */\n    tag_334:\n        /* \"#utility.yul\":1844:1849   */\n      0x00\n        /* \"#utility.yul\":1869:1950   */\n      tag_336\n        /* \"#utility.yul\":1885:1949   */\n      tag_337\n        /* \"#utility.yul\":1942:1948   */\n      dup5\n        /* \"#utility.yul\":1885:1949   */\n      tag_338\n      jump\t// in\n    tag_337:\n        /* \"#utility.yul\":1869:1950   */\n      tag_310\n      jump\t// in\n    tag_336:\n        /* \"#utility.yul\":1860:1950   */\n      swap1\n      pop\n        /* \"#utility.yul\":1970:1975   */\n      dup1\n        /* \"#utility.yul\":1999:2005   */\n      dup4\n        /* \"#utility.yul\":1992:1997   */\n      dup3\n        /* \"#utility.yul\":1985:2006   */\n      mstore\n        /* \"#utility.yul\":2033:2037   */\n      0x20\n        /* \"#utility.yul\":2026:2031   */\n      dup3\n        /* \"#utility.yul\":2022:2038   */\n      add\n        /* \"#utility.yul\":2015:2038   */\n      swap1\n      pop\n        /* \"#utility.yul\":2059:2065   */\n      dup3\n        /* \"#utility.yul\":2109:2112   */\n      dup6\n        /* \"#utility.yul\":2101:2105   */\n      0x20\n        /* \"#utility.yul\":2093:2099   */\n      dup7\n        /* \"#utility.yul\":2089:2106   */\n      mul\n        /* \"#utility.yul\":2084:2087   */\n      dup3\n        /* \"#utility.yul\":2080:2107   */\n      add\n        /* \"#utility.yul\":2077:2113   */\n      gt\n        /* \"#utility.yul\":2074:2217   */\n      iszero\n      tag_339\n      jumpi\n        /* \"#utility.yul\":2128:2207   */\n      tag_340\n      tag_313\n      jump\t// in\n    tag_340:\n        /* \"#utility.yul\":2074:2217   */\n    tag_339:\n        /* \"#utility.yul\":2241:2242   */\n      0x00\n        /* \"#utility.yul\":2226:2464   */\n    tag_341:\n        /* \"#utility.yul\":2251:2257   */\n      dup6\n        /* \"#utility.yul\":2248:2249   */\n      dup2\n        /* \"#utility.yul\":2245:2258   */\n      lt\n        /* \"#utility.yul\":2226:2464   */\n      iszero\n      tag_343\n      jumpi\n        /* \"#utility.yul\":2319:2322   */\n      dup2\n        /* \"#utility.yul\":2348:2385   */\n      tag_344\n        /* \"#utility.yul\":2381:2384   */\n      dup9\n        /* \"#utility.yul\":2369:2379   */\n      dup3\n        /* \"#utility.yul\":2348:2385   */\n      tag_345\n      jump\t// in\n    tag_344:\n        /* \"#utility.yul\":2343:2346   */\n      dup5\n        /* \"#utility.yul\":2336:2386   */\n      mstore\n        /* \"#utility.yul\":2415:2419   */\n      0x20\n        /* \"#utility.yul\":2410:2413   */\n      dup5\n        /* \"#utility.yul\":2406:2420   */\n      add\n        /* \"#utility.yul\":2399:2420   */\n      swap4\n      pop\n        /* \"#utility.yul\":2449:2453   */\n      0x20\n        /* \"#utility.yul\":2444:2447   */\n      dup4\n        /* \"#utility.yul\":2440:2454   */\n      add\n        /* \"#utility.yul\":2433:2454   */\n      swap3\n      pop\n        /* \"#utility.yul\":2286:2464   */\n      pop\n        /* \"#utility.yul\":2273:2274   */\n      0x01\n        /* \"#utility.yul\":2270:2271   */\n      dup2\n        /* \"#utility.yul\":2266:2275   */\n      add\n        /* \"#utility.yul\":2261:2275   */\n      swap1\n      pop\n        /* \"#utility.yul\":2226:2464   */\n      jump(tag_341)\n    tag_343:\n        /* \"#utility.yul\":2230:2244   */\n      pop\n        /* \"#utility.yul\":1850:2470   */\n      pop\n      pop\n        /* \"#utility.yul\":1748:2470   */\n      swap4\n      swap3\n      pop\n      pop\n      pop\n      jump\t// out\n        /* \"#utility.yul\":2476:2888   */\n    tag_346:\n        /* \"#utility.yul\":2554:2559   */\n      0x00\n        /* \"#utility.yul\":2579:2645   */\n      tag_348\n        /* \"#utility.yul\":2595:2644   */\n      tag_349\n        /* \"#utility.yul\":2637:2643   */\n      dup5\n        /* \"#utility.yul\":2595:2644   */\n      tag_350\n      jump\t// in\n    tag_349:\n        /* \"#utility.yul\":2579:2645   */\n      tag_310\n      jump\t// in\n    tag_348:\n        /* \"#utility.yul\":2570:2645   */\n      swap1\n      pop\n        /* \"#utility.yul\":2668:2674   */\n      dup3\n        /* \"#utility.yul\":2661:2666   */\n      dup2\n        /* \"#utility.yul\":2654:2675   */\n      mstore\n        /* \"#utility.yul\":2706:2710   */\n      0x20\n        /* \"#utility.yul\":2699:2704   */\n      dup2\n        /* \"#utility.yul\":2695:2711   */\n      add\n        /* \"#utility.yul\":2744:2747   */\n      dup5\n        /* \"#utility.yul\":2735:2741   */\n      dup5\n        /* \"#utility.yul\":2730:2733   */\n      dup5\n        /* \"#utility.yul\":2726:2742   */\n      add\n        /* \"#utility.yul\":2723:2748   */\n      gt\n        /* \"#utility.yul\":2720:2832   */\n      iszero\n      tag_351\n      jumpi\n        /* \"#utility.yul\":2751:2830   */\n      tag_352\n      tag_353\n      jump\t// in\n    tag_352:\n        /* \"#utility.yul\":2720:2832   */\n    tag_351:\n        /* \"#utility.yul\":2841:2882   */\n      tag_354\n        /* \"#utility.yul\":2875:2881   */\n      dup5\n        /* \"#utility.yul\":2870:2873   */\n      dup3\n        /* \"#utility.yul\":2865:2868   */\n      dup6\n        /* \"#utility.yul\":2841:2882   */\n      tag_355\n      jump\t// in\n    tag_354:\n        /* \"#utility.yul\":2560:2888   */\n      pop\n        /* \"#utility.yul\":2476:2888   */\n      swap4\n      swap3\n      pop\n      pop\n      pop\n      jump\t// out\n        /* \"#utility.yul\":2894:3033   */\n    tag_318:\n        /* \"#utility.yul\":2940:2945   */\n      0x00\n        /* \"#utility.yul\":2978:2984   */\n      dup2\n        /* \"#utility.yul\":2965:2985   */\n      calldataload\n        /* \"#utility.yul\":2956:2985   */\n      swap1\n      pop\n        /* \"#utility.yul\":2994:3027   */\n      tag_357\n        /* \"#utility.yul\":3021:3026   */\n      dup2\n        /* \"#utility.yul\":2994:3027   */\n      tag_358\n      jump\t// in\n    tag_357:\n        /* \"#utility.yul\":2894:3033   */\n      swap3\n      swap2\n      pop\n      pop\n      jump\t// out\n        /* \"#utility.yul\":3056:3426   */\n    tag_359:\n        /* \"#utility.yul\":3127:3132   */\n      0x00\n        /* \"#utility.yul\":3176:3179   */\n      dup3\n        /* \"#utility.yul\":3169:3173   */\n      0x1f\n        /* \"#utility.yul\":3161:3167   */\n      dup4\n        /* \"#utility.yul\":3157:3174   */\n      add\n        /* \"#utility.yul\":3153:3180   */\n      slt\n        /* \"#utility.yul\":3143:3265   */\n      tag_361\n      jumpi\n        /* \"#utility.yul\":3184:3263   */\n      tag_362\n      tag_331\n      jump\t// in\n    tag_362:\n        /* \"#utility.yul\":3143:3265   */\n    tag_361:\n        /* \"#utility.yul\":3301:3307   */\n      dup2\n        /* \"#utility.yul\":3288:3308   */\n      calldataload\n        /* \"#utility.yul\":3326:3420   */\n      tag_363\n        /* \"#utility.yul\":3416:3419   */\n      dup5\n        /* \"#utility.yul\":3408:3414   */\n      dup3\n        /* \"#utility.yul\":3401:3405   */\n      0x20\n        /* \"#utility.yul\":3393:3399   */\n      dup7\n        /* \"#utility.yul\":3389:3406   */\n      add\n        /* \"#utility.yul\":3326:3420   */\n      tag_305\n      jump\t// in\n    tag_363:\n        /* \"#utility.yul\":3317:3420   */\n      swap2\n      pop\n        /* \"#utility.yul\":3133:3426   */\n      pop\n        /* \"#utility.yul\":3056:3426   */\n      swap3\n      swap2\n      pop\n      pop\n      jump\t// out\n        /* \"#utility.yul\":3448:4028   */\n    tag_364:\n        /* \"#utility.yul\":3533:3541   */\n      0x00\n        /* \"#utility.yul\":3543:3549   */\n      dup1\n        /* \"#utility.yul\":3593:3596   */\n      dup4\n        /* \"#utility.yul\":3586:3590   */\n      0x1f\n        /* \"#utility.yul\":3578:3584   */\n      dup5\n        /* \"#utility.yul\":3574:3591   */\n      add\n        /* \"#utility.yul\":3570:3597   */\n      slt\n        /* \"#utility.yul\":3560:3682   */\n      tag_366\n      jumpi\n        /* \"#utility.yul\":3601:3680   */\n      tag_367\n      tag_331\n      jump\t// in\n    tag_367:\n        /* \"#utility.yul\":3560:3682   */\n    tag_366:\n        /* \"#utility.yul\":3714:3720   */\n      dup3\n        /* \"#utility.yul\":3701:3721   */\n      calldataload\n        /* \"#utility.yul\":3691:3721   */\n      swap1\n      pop\n        /* \"#utility.yul\":3744:3762   */\n      0xffffffffffffffff\n        /* \"#utility.yul\":3736:3742   */\n      dup2\n        /* \"#utility.yul\":3733:3763   */\n      gt\n        /* \"#utility.yul\":3730:3847   */\n      iszero\n      tag_368\n      jumpi\n        /* \"#utility.yul\":3766:3845   */\n      tag_369\n      tag_370\n      jump\t// in\n    tag_369:\n        /* \"#utility.yul\":3730:3847   */\n    tag_368:\n        /* \"#utility.yul\":3880:3884   */\n      0x20\n        /* \"#utility.yul\":3872:3878   */\n      dup4\n        /* \"#utility.yul\":3868:3885   */\n      add\n        /* \"#utility.yul\":3856:3885   */\n      swap2\n      pop\n        /* \"#utility.yul\":3934:3937   */\n      dup4\n        /* \"#utility.yul\":3926:3930   */\n      0x20\n        /* \"#utility.yul\":3918:3924   */\n      dup3\n        /* \"#utility.yul\":3914:3931   */\n      mul\n        /* \"#utility.yul\":3904:3912   */\n      dup4\n        /* \"#utility.yul\":3900:3932   */\n      add\n        /* \"#utility.yul\":3897:3938   */\n      gt\n        /* \"#utility.yul\":3894:4022   */\n      iszero\n      tag_371\n      jumpi\n        /* \"#utility.yul\":3941:4020   */\n      tag_372\n      tag_313\n      jump\t// in\n    tag_372:\n        /* \"#utility.yul\":3894:4022   */\n    tag_371:\n        /* \"#utility.yul\":3448:4028   */\n      swap3\n      pop\n      swap3\n      swap1\n      pop\n      jump\t// out\n        /* \"#utility.yul\":4050:4440   */\n    tag_373:\n        /* \"#utility.yul\":4131:4136   */\n      0x00\n        /* \"#utility.yul\":4180:4183   */\n      dup3\n        /* \"#utility.yul\":4173:4177   */\n      0x1f\n        /* \"#utility.yul\":4165:4171   */\n      dup4\n        /* \"#utility.yul\":4161:4178   */\n      add\n        /* \"#utility.yul\":4157:4184   */\n      slt\n        /* \"#utility.yul\":4147:4269   */\n      tag_375\n      jumpi\n        /* \"#utility.yul\":4188:4267   */\n      tag_376\n      tag_331\n      jump\t// in\n    tag_376:\n        /* \"#utility.yul\":4147:4269   */\n    tag_375:\n        /* \"#utility.yul\":4305:4311   */\n      dup2\n        /* \"#utility.yul\":4292:4312   */\n      calldataload\n        /* \"#utility.yul\":4330:4434   */\n      tag_377\n        /* \"#utility.yul\":4430:4433   */\n      dup5\n        /* \"#utility.yul\":4422:4428   */\n      dup3\n        /* \"#utility.yul\":4415:4419   */\n      0x20\n        /* \"#utility.yul\":4407:4413   */\n      dup7\n        /* \"#utility.yul\":4403:4420   */\n      add\n        /* \"#utility.yul\":4330:4434   */\n      tag_319\n      jump\t// in\n    tag_377:\n        /* \"#utility.yul\":4321:4434   */\n      swap2\n      pop\n        /* \"#utility.yul\":4137:4440   */\n      pop\n        /* \"#utility.yul\":4050:4440   */\n      swap3\n      swap2\n      pop\n      pop\n      jump\t// out\n        /* \"#utility.yul\":4463:4833   */\n    tag_378:\n        /* \"#utility.yul\":4534:4539   */\n      0x00\n        /* \"#utility.yul\":4583:4586   */\n      dup3\n        /* \"#utility.yul\":4576:4580   */\n      0x1f\n        /* \"#utility.yul\":4568:4574   */\n      dup4\n        /* \"#utility.yul\":4564:4581   */\n      add\n        /* \"#utility.yul\":4560:4587   */\n      slt\n        /* \"#utility.yul\":4550:4672   */\n      tag_380\n      jumpi\n        /* \"#utility.yul\":4591:4670   */\n      tag_381\n      tag_331\n      jump\t// in\n    tag_381:\n        /* \"#utility.yul\":4550:4672   */\n    tag_380:\n        /* \"#utility.yul\":4708:4714   */\n      dup2\n        /* \"#utility.yul\":4695:4715   */\n      calldataload\n        /* \"#utility.yul\":4733:4827   */\n      tag_382\n        /* \"#utility.yul\":4823:4826   */\n      dup5\n        /* \"#utility.yul\":4815:4821   */\n      dup3\n        /* \"#utility.yul\":4808:4812   */\n      0x20\n        /* \"#utility.yul\":4800:4806   */\n      dup7\n        /* \"#utility.yul\":4796:4813   */\n      add\n        /* \"#utility.yul\":4733:4827   */\n      tag_334\n      jump\t// in\n    tag_382:\n        /* \"#utility.yul\":4724:4827   */\n      swap2\n      pop\n        /* \"#utility.yul\":4540:4833   */\n      pop\n        /* \"#utility.yul\":4463:4833   */\n      swap3\n      swap2\n      pop\n      pop\n      jump\t// out\n        /* \"#utility.yul\":4853:5193   */\n    tag_333:\n        /* \"#utility.yul\":4909:4914   */\n      0x00\n        /* \"#utility.yul\":4958:4961   */\n      dup3\n        /* \"#utility.yul\":4951:4955   */\n      0x1f\n        /* \"#utility.yul\":4943:4949   */\n      dup4\n        /* \"#utility.yul\":4939:4956   */\n      add\n        /* \"#utility.yul\":4935:4962   */\n      slt\n        /* \"#utility.yul\":4925:5047   */\n      tag_384\n      jumpi\n        /* \"#utility.yul\":4966:5045   */\n      tag_385\n      tag_331\n      jump\t// in\n    tag_385:\n        /* \"#utility.yul\":4925:5047   */\n    tag_384:\n        /* \"#utility.yul\":5083:5089   */\n      dup2\n        /* \"#utility.yul\":5070:5090   */\n      calldataload\n        /* \"#utility.yul\":5108:5187   */\n      tag_386\n        /* \"#utility.yul\":5183:5186   */\n      dup5\n        /* \"#utility.yul\":5175:5181   */\n      dup3\n        /* \"#utility.yul\":5168:5172   */\n      0x20\n        /* \"#utility.yul\":5160:5166   */\n      dup7\n        /* \"#utility.yul\":5156:5173   */\n      add\n        /* \"#utility.yul\":5108:5187   */\n      tag_346\n      jump\t// in\n    tag_386:\n        /* \"#utility.yul\":5099:5187   */\n      swap2\n      pop\n        /* \"#utility.yul\":4915:5193   */\n      pop\n        /* \"#utility.yul\":4853:5193   */\n      swap3\n      swap2\n      pop\n      pop\n      jump\t// out\n        /* \"#utility.yul\":5199:5338   */\n    tag_345:\n        /* \"#utility.yul\":5245:5250   */\n      0x00\n        /* \"#utility.yul\":5283:5289   */\n      dup2\n        /* \"#utility.yul\":5270:5290   */\n      calldataload\n        /* \"#utility.yul\":5261:5290   */\n      swap1\n      pop\n        /* \"#utility.yul\":5299:5332   */\n      tag_388\n        /* \"#utility.yul\":5326:5331   */\n      dup2\n        /* \"#utility.yul\":5299:5332   */\n      tag_389\n      jump\t// in\n    tag_388:\n        /* \"#utility.yul\":5199:5338   */\n      swap3\n      swap2\n      pop\n      pop\n      jump\t// out\n        /* \"#utility.yul\":5344:5479   */\n    tag_390:\n        /* \"#utility.yul\":5388:5393   */\n      0x00\n        /* \"#utility.yul\":5426:5432   */\n      dup2\n        /* \"#utility.yul\":5413:5433   */\n      calldataload\n        /* \"#utility.yul\":5404:5433   */\n      swap1\n      pop\n        /* \"#utility.yul\":5442:5473   */\n      tag_392\n        /* \"#utility.yul\":5467:5472   */\n      dup2\n        /* \"#utility.yul\":5442:5473   */\n      tag_393\n      jump\t// in\n    tag_392:\n        /* \"#utility.yul\":5344:5479   */\n      swap3\n      swap2\n      pop\n      pop\n      jump\t// out\n        /* \"#utility.yul\":5485:5814   */\n    tag_42:\n        /* \"#utility.yul\":5544:5550   */\n      0x00\n        /* \"#utility.yul\":5593:5595   */\n      0x20\n        /* \"#utility.yul\":5581:5590   */\n      dup3\n        /* \"#utility.yul\":5572:5579   */\n      dup5\n        /* \"#utility.yul\":5568:5591   */\n      sub\n        /* \"#utility.yul\":5564:5596   */\n      slt\n        /* \"#utility.yul\":5561:5680   */\n      iszero\n      tag_395\n      jumpi\n        /* \"#utility.yul\":5599:5678   */\n      tag_396\n      tag_397\n      jump\t// in\n    tag_396:\n        /* \"#utility.yul\":5561:5680   */\n    tag_395:\n        /* \"#utility.yul\":5719:5720   */\n      0x00\n        /* \"#utility.yul\":5744:5797   */\n      tag_398\n        /* \"#utility.yul\":5789:5796   */\n      dup5\n        /* \"#utility.yul\":5780:5786   */\n      dup3\n        /* \"#utility.yul\":5769:5778   */\n      dup6\n        /* \"#utility.yul\":5765:5787   */\n      add\n        /* \"#utility.yul\":5744:5797   */\n      tag_318\n      jump\t// in\n    tag_398:\n        /* \"#utility.yul\":5734:5797   */\n      swap2\n      pop\n        /* \"#utility.yul\":5690:5807   */\n      pop\n        /* \"#utility.yul\":5485:5814   */\n      swap3\n      swap2\n      pop\n      pop\n      jump\t// out\n        /* \"#utility.yul\":5820:6294   */\n    tag_50:\n        /* \"#utility.yul\":5888:5894   */\n      0x00\n        /* \"#utility.yul\":5896:5902   */\n      dup1\n        /* \"#utility.yul\":5945:5947   */\n      0x40\n        /* \"#utility.yul\":5933:5942   */\n      dup4\n        /* \"#utility.yul\":5924:5931   */\n      dup6\n        /* \"#utility.yul\":5920:5943   */\n      sub\n        /* \"#utility.yul\":5916:5948   */\n      slt\n        /* \"#utility.yul\":5913:6032   */\n      iszero\n      tag_400\n      jumpi\n        /* \"#utility.yul\":5951:6030   */\n      tag_401\n      tag_397\n      jump\t// in\n    tag_401:\n        /* \"#utility.yul\":5913:6032   */\n    tag_400:\n        /* \"#utility.yul\":6071:6072   */\n      0x00\n        /* \"#utility.yul\":6096:6149   */\n      tag_402\n        /* \"#utility.yul\":6141:6148   */\n      dup6\n        /* \"#utility.yul\":6132:6138   */\n      dup3\n        /* \"#utility.yul\":6121:6130   */\n      dup7\n        /* \"#utility.yul\":6117:6139   */\n      add\n        /* \"#utility.yul\":6096:6149   */\n      tag_318\n      jump\t// in\n    tag_402:\n        /* \"#utility.yul\":6086:6149   */\n      swap3\n      pop\n        /* \"#utility.yul\":6042:6159   */\n      pop\n        /* \"#utility.yul\":6198:6200   */\n      0x20\n        /* \"#utility.yul\":6224:6277   */\n      tag_403\n        /* \"#utility.yul\":6269:6276   */\n      dup6\n        /* \"#utility.yul\":6260:6266   */\n      dup3\n        /* \"#utility.yul\":6249:6258   */\n      dup7\n        /* \"#utility.yul\":6245:6267   */\n      add\n        /* \"#utility.yul\":6224:6277   */\n      tag_345\n      jump\t// in\n    tag_403:\n        /* \"#utility.yul\":6214:6277   */\n      swap2\n      pop\n        /* \"#utility.yul\":6169:6287   */\n      pop\n        /* \"#utility.yul\":5820:6294   */\n      swap3\n      pop\n      swap3\n      swap1\n      pop\n      jump\t// out\n        /* \"#utility.yul\":6300:6629   */\n    tag_16:\n        /* \"#utility.yul\":6359:6365   */\n      0x00\n        /* \"#utility.yul\":6408:6410   */\n      0x20\n        /* \"#utility.yul\":6396:6405   */\n      dup3\n        /* \"#utility.yul\":6387:6394   */\n      dup5\n        /* \"#utility.yul\":6383:6406   */\n      sub\n        /* \"#utility.yul\":6379:6411   */\n      slt\n        /* \"#utility.yul\":6376:6495   */\n      iszero\n      tag_405\n      jumpi\n        /* \"#utility.yul\":6414:6493   */\n      tag_406\n      tag_397\n      jump\t// in\n    tag_406:\n        /* \"#utility.yul\":6376:6495   */\n    tag_405:\n        /* \"#utility.yul\":6534:6535   */\n      0x00\n        /* \"#utility.yul\":6559:6612   */\n      tag_407\n        /* \"#utility.yul\":6604:6611   */\n      dup5\n        /* \"#utility.yul\":6595:6601   */\n      dup3\n        /* \"#utility.yul\":6584:6593   */\n      dup6\n        /* \"#utility.yul\":6580:6602   */\n      add\n        /* \"#utility.yul\":6559:6612   */\n      tag_345\n      jump\t// in\n    tag_407:\n        /* \"#utility.yul\":6549:6612   */\n      swap2\n      pop\n        /* \"#utility.yul\":6505:6622   */\n      pop\n        /* \"#utility.yul\":6300:6629   */\n      swap3\n      swap2\n      pop\n      pop\n      jump\t// out\n        /* \"#utility.yul\":6635:7840   */\n    tag_38:\n        /* \"#utility.yul\":6781:6787   */\n      0x00\n        /* \"#utility.yul\":6789:6795   */\n      dup1\n        /* \"#utility.yul\":6797:6803   */\n      0x00\n        /* \"#utility.yul\":6805:6811   */\n      dup1\n        /* \"#utility.yul\":6854:6857   */\n      0x80\n        /* \"#utility.yul\":6842:6851   */\n      dup6\n        /* \"#utility.yul\":6833:6840   */\n      dup8\n        /* \"#utility.yul\":6829:6852   */\n      sub\n        /* \"#utility.yul\":6825:6858   */\n      slt\n        /* \"#utility.yul\":6822:6942   */\n      iszero\n      tag_409\n      jumpi\n        /* \"#utility.yul\":6861:6940   */\n      tag_410\n      tag_397\n      jump\t// in\n    tag_410:\n        /* \"#utility.yul\":6822:6942   */\n    tag_409:\n        /* \"#utility.yul\":6981:6982   */\n      0x00\n        /* \"#utility.yul\":7006:7059   */\n      tag_411\n        /* \"#utility.yul\":7051:7058   */\n      dup8\n        /* \"#utility.yul\":7042:7048   */\n      dup3\n        /* \"#utility.yul\":7031:7040   */\n      dup9\n        /* \"#utility.yul\":7027:7049   */\n      add\n        /* \"#utility.yul\":7006:7059   */\n      tag_345\n      jump\t// in\n    tag_411:\n        /* \"#utility.yul\":6996:7059   */\n      swap5\n      pop\n        /* \"#utility.yul\":6952:7069   */\n      pop\n        /* \"#utility.yul\":7108:7110   */\n      0x20\n        /* \"#utility.yul\":7134:7187   */\n      tag_412\n        /* \"#utility.yul\":7179:7186   */\n      dup8\n        /* \"#utility.yul\":7170:7176   */\n      dup3\n        /* \"#utility.yul\":7159:7168   */\n      dup9\n        /* \"#utility.yul\":7155:7177   */\n      add\n        /* \"#utility.yul\":7134:7187   */\n      tag_318\n      jump\t// in\n    tag_412:\n        /* \"#utility.yul\":7124:7187   */\n      swap4\n      pop\n        /* \"#utility.yul\":7079:7197   */\n      pop\n        /* \"#utility.yul\":7264:7266   */\n      0x40\n        /* \"#utility.yul\":7253:7262   */\n      dup6\n        /* \"#utility.yul\":7249:7267   */\n      add\n        /* \"#utility.yul\":7236:7268   */\n      calldataload\n        /* \"#utility.yul\":7295:7313   */\n      0xffffffffffffffff\n        /* \"#utility.yul\":7287:7293   */\n      dup2\n        /* \"#utility.yul\":7284:7314   */\n      gt\n        /* \"#utility.yul\":7281:7398   */\n      iszero\n      tag_413\n      jumpi\n        /* \"#utility.yul\":7317:7396   */\n      tag_414\n      tag_415\n      jump\t// in\n    tag_414:\n        /* \"#utility.yul\":7281:7398   */\n    tag_413:\n        /* \"#utility.yul\":7422:7510   */\n      tag_416\n        /* \"#utility.yul\":7502:7509   */\n      dup8\n        /* \"#utility.yul\":7493:7499   */\n      dup3\n        /* \"#utility.yul\":7482:7491   */\n      dup9\n        /* \"#utility.yul\":7478:7500   */\n      add\n        /* \"#utility.yul\":7422:7510   */\n      tag_373\n      jump\t// in\n    tag_416:\n        /* \"#utility.yul\":7412:7510   */\n      swap3\n      pop\n        /* \"#utility.yul\":7207:7520   */\n      pop\n        /* \"#utility.yul\":7587:7589   */\n      0x60\n        /* \"#utility.yul\":7576:7585   */\n      dup6\n        /* \"#utility.yul\":7572:7590   */\n      add\n        /* \"#utility.yul\":7559:7591   */\n      calldataload\n        /* \"#utility.yul\":7618:7636   */\n      0xffffffffffffffff\n        /* \"#utility.yul\":7610:7616   */\n      dup2\n        /* \"#utility.yul\":7607:7637   */\n      gt\n        /* \"#utility.yul\":7604:7721   */\n      iszero\n      tag_417\n      jumpi\n        /* \"#utility.yul\":7640:7719   */\n      tag_418\n      tag_415\n      jump\t// in\n    tag_418:\n        /* \"#utility.yul\":7604:7721   */\n    tag_417:\n        /* \"#utility.yul\":7745:7823   */\n      tag_419\n        /* \"#utility.yul\":7815:7822   */\n      dup8\n        /* \"#utility.yul\":7806:7812   */\n      dup3\n        /* \"#utility.yul\":7795:7804   */\n      dup9\n        /* \"#utility.yul\":7791:7813   */\n      add\n        /* \"#utility.yul\":7745:7823   */\n      tag_378\n      jump\t// in\n    tag_419:\n        /* \"#utility.yul\":7735:7823   */\n      swap2\n      pop\n        /* \"#utility.yul\":7530:7833   */\n      pop\n        /* \"#utility.yul\":6635:7840   */\n      swap3\n      swap6\n      swap2\n      swap5\n      pop\n      swap3\n      pop\n      jump\t// out\n        /* \"#utility.yul\":7846:9835   */\n    tag_34:\n        /* \"#utility.yul\":8040:8046   */\n      0x00\n        /* \"#utility.yul\":8048:8054   */\n      dup1\n        /* \"#utility.yul\":8056:8062   */\n      0x00\n        /* \"#utility.yul\":8064:8070   */\n      dup1\n        /* \"#utility.yul\":8072:8078   */\n      0x00\n        /* \"#utility.yul\":8080:8086   */\n      dup1\n        /* \"#utility.yul\":8088:8094   */\n      0x00\n        /* \"#utility.yul\":8096:8102   */\n      dup1\n        /* \"#utility.yul\":8104:8110   */\n      0x00\n        /* \"#utility.yul\":8153:8156   */\n      0x0100\n        /* \"#utility.yul\":8141:8150   */\n      dup11\n        /* \"#utility.yul\":8132:8139   */\n      dup13\n        /* \"#utility.yul\":8128:8151   */\n      sub\n        /* \"#utility.yul\":8124:8157   */\n      slt\n        /* \"#utility.yul\":8121:8241   */\n      iszero\n      tag_421\n      jumpi\n        /* \"#utility.yul\":8160:8239   */\n      tag_422\n      tag_397\n      jump\t// in\n    tag_422:\n        /* \"#utility.yul\":8121:8241   */\n    tag_421:\n        /* \"#utility.yul\":8280:8281   */\n      0x00\n        /* \"#utility.yul\":8305:8356   */\n      tag_423\n        /* \"#utility.yul\":8348:8355   */\n      dup13\n        /* \"#utility.yul\":8339:8345   */\n      dup3\n        /* \"#utility.yul\":8328:8337   */\n      dup14\n        /* \"#utility.yul\":8324:8346   */\n      add\n        /* \"#utility.yul\":8305:8356   */\n      tag_390\n      jump\t// in\n    tag_423:\n        /* \"#utility.yul\":8295:8356   */\n      swap10\n      pop\n        /* \"#utility.yul\":8251:8366   */\n      pop\n        /* \"#utility.yul\":8433:8435   */\n      0x20\n        /* \"#utility.yul\":8422:8431   */\n      dup11\n        /* \"#utility.yul\":8418:8436   */\n      add\n        /* \"#utility.yul\":8405:8437   */\n      calldataload\n        /* \"#utility.yul\":8464:8482   */\n      0xffffffffffffffff\n        /* \"#utility.yul\":8456:8462   */\n      dup2\n        /* \"#utility.yul\":8453:8483   */\n      gt\n        /* \"#utility.yul\":8450:8567   */\n      iszero\n      tag_424\n      jumpi\n        /* \"#utility.yul\":8486:8565   */\n      tag_425\n      tag_415\n      jump\t// in\n    tag_425:\n        /* \"#utility.yul\":8450:8567   */\n    tag_424:\n        /* \"#utility.yul\":8591:8669   */\n      tag_426\n        /* \"#utility.yul\":8661:8668   */\n      dup13\n        /* \"#utility.yul\":8652:8658   */\n      dup3\n        /* \"#utility.yul\":8641:8650   */\n      dup14\n        /* \"#utility.yul\":8637:8659   */\n      add\n        /* \"#utility.yul\":8591:8669   */\n      tag_359\n      jump\t// in\n    tag_426:\n        /* \"#utility.yul\":8581:8669   */\n      swap9\n      pop\n        /* \"#utility.yul\":8376:8679   */\n      pop\n        /* \"#utility.yul\":8718:8720   */\n      0x40\n        /* \"#utility.yul\":8744:8797   */\n      tag_427\n        /* \"#utility.yul\":8789:8796   */\n      dup13\n        /* \"#utility.yul\":8780:8786   */\n      dup3\n        /* \"#utility.yul\":8769:8778   */\n      dup14\n        /* \"#utility.yul\":8765:8787   */\n      add\n        /* \"#utility.yul\":8744:8797   */\n      tag_318\n      jump\t// in\n    tag_427:\n        /* \"#utility.yul\":8734:8797   */\n      swap8\n      pop\n        /* \"#utility.yul\":8689:8807   */\n      pop\n        /* \"#utility.yul\":8846:8848   */\n      0x60\n        /* \"#utility.yul\":8872:8925   */\n      tag_428\n        /* \"#utility.yul\":8917:8924   */\n      dup13\n        /* \"#utility.yul\":8908:8914   */\n      dup3\n        /* \"#utility.yul\":8897:8906   */\n      dup14\n        /* \"#utility.yul\":8893:8915   */\n      add\n        /* \"#utility.yul\":8872:8925   */\n      tag_345\n      jump\t// in\n    tag_428:\n        /* \"#utility.yul\":8862:8925   */\n      swap7\n      pop\n        /* \"#utility.yul\":8817:8935   */\n      pop\n        /* \"#utility.yul\":8974:8977   */\n      0x80\n        /* \"#utility.yul\":9001:9054   */\n      tag_429\n        /* \"#utility.yul\":9046:9053   */\n      dup13\n        /* \"#utility.yul\":9037:9043   */\n      dup3\n        /* \"#utility.yul\":9026:9035   */\n      dup14\n        /* \"#utility.yul\":9022:9044   */\n      add\n        /* \"#utility.yul\":9001:9054   */\n      tag_345\n      jump\t// in\n    tag_429:\n        /* \"#utility.yul\":8991:9054   */\n      swap6\n      pop\n        /* \"#utility.yul\":8945:9064   */\n      pop\n        /* \"#utility.yul\":9131:9134   */\n      0xa0\n        /* \"#utility.yul\":9120:9129   */\n      dup11\n        /* \"#utility.yul\":9116:9135   */\n      add\n        /* \"#utility.yul\":9103:9136   */\n      calldataload\n        /* \"#utility.yul\":9163:9181   */\n      0xffffffffffffffff\n        /* \"#utility.yul\":9155:9161   */\n      dup2\n        /* \"#utility.yul\":9152:9182   */\n      gt\n        /* \"#utility.yul\":9149:9266   */\n      iszero\n      tag_430\n      jumpi\n        /* \"#utility.yul\":9185:9264   */\n      tag_431\n      tag_415\n      jump\t// in\n    tag_431:\n        /* \"#utility.yul\":9149:9266   */\n    tag_430:\n        /* \"#utility.yul\":9290:9353   */\n      tag_432\n        /* \"#utility.yul\":9345:9352   */\n      dup13\n        /* \"#utility.yul\":9336:9342   */\n      dup3\n        /* \"#utility.yul\":9325:9334   */\n      dup14\n        /* \"#utility.yul\":9321:9343   */\n      add\n        /* \"#utility.yul\":9290:9353   */\n      tag_333\n      jump\t// in\n    tag_432:\n        /* \"#utility.yul\":9280:9353   */\n      swap5\n      pop\n        /* \"#utility.yul\":9074:9363   */\n      pop\n        /* \"#utility.yul\":9430:9433   */\n      0xc0\n        /* \"#utility.yul\":9419:9428   */\n      dup11\n        /* \"#utility.yul\":9415:9434   */\n      add\n        /* \"#utility.yul\":9402:9435   */\n      calldataload\n        /* \"#utility.yul\":9462:9480   */\n      0xffffffffffffffff\n        /* \"#utility.yul\":9454:9460   */\n      dup2\n        /* \"#utility.yul\":9451:9481   */\n      gt\n        /* \"#utility.yul\":9448:9565   */\n      iszero\n      tag_433\n      jumpi\n        /* \"#utility.yul\":9484:9563   */\n      tag_434\n      tag_415\n      jump\t// in\n    tag_434:\n        /* \"#utility.yul\":9448:9565   */\n    tag_433:\n        /* \"#utility.yul\":9597:9689   */\n      tag_435\n        /* \"#utility.yul\":9681:9688   */\n      dup13\n        /* \"#utility.yul\":9672:9678   */\n      dup3\n        /* \"#utility.yul\":9661:9670   */\n      dup14\n        /* \"#utility.yul\":9657:9679   */\n      add\n        /* \"#utility.yul\":9597:9689   */\n      tag_364\n      jump\t// in\n    tag_435:\n        /* \"#utility.yul\":9579:9689   */\n      swap4\n      pop\n      swap4\n      pop\n        /* \"#utility.yul\":9373:9699   */\n      pop\n        /* \"#utility.yul\":9738:9741   */\n      0xe0\n        /* \"#utility.yul\":9765:9818   */\n      tag_436\n        /* \"#utility.yul\":9810:9817   */\n      dup13\n        /* \"#utility.yul\":9801:9807   */\n      dup3\n        /* \"#utility.yul\":9790:9799   */\n      dup14\n        /* \"#utility.yul\":9786:9808   */\n      add\n        /* \"#utility.yul\":9765:9818   */\n      tag_345\n      jump\t// in\n    tag_436:\n        /* \"#utility.yul\":9755:9818   */\n      swap2\n      pop\n        /* \"#utility.yul\":9709:9828   */\n      pop\n        /* \"#utility.yul\":7846:9835   */\n      swap3\n      swap6\n      swap9\n      pop\n      swap3\n      swap6\n      swap9\n      pop\n      swap3\n      swap6\n      swap9\n      jump\t// out\n        /* \"#utility.yul\":9841:10020   */\n    tag_437:\n        /* \"#utility.yul\":9910:9920   */\n      0x00\n        /* \"#utility.yul\":9931:9977   */\n      tag_439\n        /* \"#utility.yul\":9973:9976   */\n      dup4\n        /* \"#utility.yul\":9965:9971   */\n      dup4\n        /* \"#utility.yul\":9931:9977   */\n      tag_440\n      jump\t// in\n    tag_439:\n        /* \"#utility.yul\":10009:10013   */\n      0x20\n        /* \"#utility.yul\":10004:10007   */\n      dup4\n        /* \"#utility.yul\":10000:10014   */\n      add\n        /* \"#utility.yul\":9986:10014   */\n      swap1\n      pop\n        /* \"#utility.yul\":9841:10020   */\n      swap3\n      swap2\n      pop\n      pop\n      jump\t// out\n        /* \"#utility.yul\":10026:10242   */\n    tag_441:\n        /* \"#utility.yul\":10125:10135   */\n      0x00\n        /* \"#utility.yul\":10160:10236   */\n      tag_443\n        /* \"#utility.yul\":10232:10235   */\n      dup5\n        /* \"#utility.yul\":10224:10230   */\n      dup5\n        /* \"#utility.yul\":10216:10222   */\n      dup5\n        /* \"#utility.yul\":10160:10236   */\n      tag_444\n      jump\t// in\n    tag_443:\n        /* \"#utility.yul\":10146:10236   */\n      swap1\n      pop\n        /* \"#utility.yul\":10026:10242   */\n      swap4\n      swap3\n      pop\n      pop\n      pop\n      jump\t// out\n        /* \"#utility.yul\":10248:10356   */\n    tag_440:\n        /* \"#utility.yul\":10325:10349   */\n      tag_446\n        /* \"#utility.yul\":10343:10348   */\n      dup2\n        /* \"#utility.yul\":10325:10349   */\n      tag_447\n      jump\t// in\n    tag_446:\n        /* \"#utility.yul\":10320:10323   */\n      dup3\n        /* \"#utility.yul\":10313:10350   */\n      mstore\n        /* \"#utility.yul\":10248:10356   */\n      pop\n      pop\n      jump\t// out\n        /* \"#utility.yul\":10362:10480   */\n    tag_448:\n        /* \"#utility.yul\":10449:10473   */\n      tag_450\n        /* \"#utility.yul\":10467:10472   */\n      dup2\n        /* \"#utility.yul\":10449:10473   */\n      tag_447\n      jump\t// in\n    tag_450:\n        /* \"#utility.yul\":10444:10447   */\n      dup3\n        /* \"#utility.yul\":10437:10474   */\n      mstore\n        /* \"#utility.yul\":10362:10480   */\n      pop\n      pop\n      jump\t// out\n        /* \"#utility.yul\":10516:11248   */\n    tag_451:\n        /* \"#utility.yul\":10635:10638   */\n      0x00\n        /* \"#utility.yul\":10664:10718   */\n      tag_453\n        /* \"#utility.yul\":10712:10717   */\n      dup3\n        /* \"#utility.yul\":10664:10718   */\n      tag_454\n      jump\t// in\n    tag_453:\n        /* \"#utility.yul\":10734:10820   */\n      tag_455\n        /* \"#utility.yul\":10813:10819   */\n      dup2\n        /* \"#utility.yul\":10808:10811   */\n      dup6\n        /* \"#utility.yul\":10734:10820   */\n      tag_456\n      jump\t// in\n    tag_455:\n        /* \"#utility.yul\":10727:10820   */\n      swap4\n      pop\n        /* \"#utility.yul\":10844:10900   */\n      tag_457\n        /* \"#utility.yul\":10894:10899   */\n      dup4\n        /* \"#utility.yul\":10844:10900   */\n      tag_458\n      jump\t// in\n    tag_457:\n        /* \"#utility.yul\":10923:10930   */\n      dup1\n        /* \"#utility.yul\":10954:10955   */\n      0x00\n        /* \"#utility.yul\":10939:11223   */\n    tag_459:\n        /* \"#utility.yul\":10964:10970   */\n      dup4\n        /* \"#utility.yul\":10961:10962   */\n      dup2\n        /* \"#utility.yul\":10958:10971   */\n      lt\n        /* \"#utility.yul\":10939:11223   */\n      iszero\n      tag_461\n      jumpi\n        /* \"#utility.yul\":11040:11046   */\n      dup2\n        /* \"#utility.yul\":11034:11047   */\n      mload\n        /* \"#utility.yul\":11067:11130   */\n      tag_462\n        /* \"#utility.yul\":11126:11129   */\n      dup9\n        /* \"#utility.yul\":11111:11124   */\n      dup3\n        /* \"#utility.yul\":11067:11130   */\n      tag_437\n      jump\t// in\n    tag_462:\n        /* \"#utility.yul\":11060:11130   */\n      swap8\n      pop\n        /* \"#utility.yul\":11153:11213   */\n      tag_463\n        /* \"#utility.yul\":11206:11212   */\n      dup4\n        /* \"#utility.yul\":11153:11213   */\n      tag_464\n      jump\t// in\n    tag_463:\n        /* \"#utility.yul\":11143:11213   */\n      swap3\n      pop\n        /* \"#utility.yul\":10999:11223   */\n      pop\n        /* \"#utility.yul\":10986:10987   */\n      0x01\n        /* \"#utility.yul\":10983:10984   */\n      dup2\n        /* \"#utility.yul\":10979:10988   */\n      add\n        /* \"#utility.yul\":10974:10988   */\n      swap1\n      pop\n        /* \"#utility.yul\":10939:11223   */\n      jump(tag_459)\n    tag_461:\n        /* \"#utility.yul\":10943:10957   */\n      pop\n        /* \"#utility.yul\":11239:11242   */\n      dup6\n        /* \"#utility.yul\":11232:11242   */\n      swap4\n      pop\n        /* \"#utility.yul\":10640:11248   */\n      pop\n      pop\n      pop\n        /* \"#utility.yul\":10516:11248   */\n      swap3\n      swap2\n      pop\n      pop\n      jump\t// out\n        /* \"#utility.yul\":11282:12280   */\n    tag_465:\n        /* \"#utility.yul\":11433:11436   */\n      0x00\n        /* \"#utility.yul\":11456:11552   */\n      tag_467\n        /* \"#utility.yul\":11545:11551   */\n      dup4\n        /* \"#utility.yul\":11540:11543   */\n      dup6\n        /* \"#utility.yul\":11456:11552   */\n      tag_468\n      jump\t// in\n    tag_467:\n        /* \"#utility.yul\":11449:11552   */\n      swap4\n      pop\n        /* \"#utility.yul\":11578:11581   */\n      dup4\n        /* \"#utility.yul\":11623:11627   */\n      0x20\n        /* \"#utility.yul\":11615:11621   */\n      dup5\n        /* \"#utility.yul\":11611:11628   */\n      mul\n        /* \"#utility.yul\":11606:11609   */\n      dup6\n        /* \"#utility.yul\":11602:11629   */\n      add\n        /* \"#utility.yul\":11653:11723   */\n      tag_469\n        /* \"#utility.yul\":11717:11722   */\n      dup5\n        /* \"#utility.yul\":11653:11723   */\n      tag_470\n      jump\t// in\n    tag_469:\n        /* \"#utility.yul\":11746:11753   */\n      dup1\n        /* \"#utility.yul\":11777:11778   */\n      0x00\n        /* \"#utility.yul\":11762:12235   */\n    tag_471:\n        /* \"#utility.yul\":11787:11793   */\n      dup8\n        /* \"#utility.yul\":11784:11785   */\n      dup2\n        /* \"#utility.yul\":11781:11794   */\n      lt\n        /* \"#utility.yul\":11762:12235   */\n      iszero\n      tag_473\n      jumpi\n        /* \"#utility.yul\":11858:11867   */\n      dup5\n        /* \"#utility.yul\":11852:11856   */\n      dup5\n        /* \"#utility.yul\":11848:11868   */\n      sub\n        /* \"#utility.yul\":11843:11846   */\n      dup10\n        /* \"#utility.yul\":11836:11869   */\n      mstore\n        /* \"#utility.yul\":11918:11972   */\n      tag_474\n        /* \"#utility.yul\":11965:11971   */\n      dup3\n        /* \"#utility.yul\":11956:11963   */\n      dup5\n        /* \"#utility.yul\":11918:11972   */\n      tag_475\n      jump\t// in\n    tag_474:\n        /* \"#utility.yul\":11993:12094   */\n      tag_476\n        /* \"#utility.yul\":12089:12093   */\n      dup7\n        /* \"#utility.yul\":12074:12087   */\n      dup3\n        /* \"#utility.yul\":12059:12072   */\n      dup5\n        /* \"#utility.yul\":11993:12094   */\n      tag_441\n      jump\t// in\n    tag_476:\n        /* \"#utility.yul\":11985:12094   */\n      swap6\n      pop\n        /* \"#utility.yul\":12117:12191   */\n      tag_477\n        /* \"#utility.yul\":12184:12190   */\n      dup5\n        /* \"#utility.yul\":12117:12191   */\n      tag_478\n      jump\t// in\n    tag_477:\n        /* \"#utility.yul\":12107:12191   */\n      swap4\n      pop\n        /* \"#utility.yul\":12220:12224   */\n      0x20\n        /* \"#utility.yul\":12215:12218   */\n      dup12\n        /* \"#utility.yul\":12211:12225   */\n      add\n        /* \"#utility.yul\":12204:12225   */\n      swap11\n      pop\n        /* \"#utility.yul\":11822:12235   */\n      pop\n      pop\n        /* \"#utility.yul\":11809:11810   */\n      0x01\n        /* \"#utility.yul\":11806:11807   */\n      dup2\n        /* \"#utility.yul\":11802:11811   */\n      add\n        /* \"#utility.yul\":11797:11811   */\n      swap1\n      pop\n        /* \"#utility.yul\":11762:12235   */\n      jump(tag_471)\n    tag_473:\n        /* \"#utility.yul\":11766:11780   */\n      pop\n        /* \"#utility.yul\":12251:12255   */\n      dup3\n        /* \"#utility.yul\":12244:12255   */\n      swap8\n      pop\n        /* \"#utility.yul\":12271:12274   */\n      dup8\n        /* \"#utility.yul\":12264:12274   */\n      swap5\n      pop\n        /* \"#utility.yul\":11438:12280   */\n      pop\n      pop\n      pop\n      pop\n        /* \"#utility.yul\":11282:12280   */\n      swap4\n      swap3\n      pop\n      pop\n      pop\n      jump\t// out\n        /* \"#utility.yul\":12286:12395   */\n    tag_479:\n        /* \"#utility.yul\":12367:12388   */\n      tag_481\n        /* \"#utility.yul\":12382:12387   */\n      dup2\n        /* \"#utility.yul\":12367:12388   */\n      tag_482\n      jump\t// in\n    tag_481:\n        /* \"#utility.yul\":12362:12365   */\n      dup3\n        /* \"#utility.yul\":12355:12389   */\n      mstore\n        /* \"#utility.yul\":12286:12395   */\n      pop\n      pop\n      jump\t// out\n        /* \"#utility.yul\":12425:12709   */\n    tag_444:\n        /* \"#utility.yul\":12513:12516   */\n      0x00\n        /* \"#utility.yul\":12534:12595   */\n      tag_484\n        /* \"#utility.yul\":12588:12594   */\n      dup4\n        /* \"#utility.yul\":12583:12586   */\n      dup6\n        /* \"#utility.yul\":12534:12595   */\n      tag_485\n      jump\t// in\n    tag_484:\n        /* \"#utility.yul\":12527:12595   */\n      swap4\n      pop\n        /* \"#utility.yul\":12605:12648   */\n      tag_486\n        /* \"#utility.yul\":12641:12647   */\n      dup4\n        /* \"#utility.yul\":12636:12639   */\n      dup6\n        /* \"#utility.yul\":12629:12634   */\n      dup5\n        /* \"#utility.yul\":12605:12648   */\n      tag_355\n      jump\t// in\n    tag_486:\n        /* \"#utility.yul\":12673:12702   */\n      tag_487\n        /* \"#utility.yul\":12695:12701   */\n      dup4\n        /* \"#utility.yul\":12673:12702   */\n      tag_488\n      jump\t// in\n    tag_487:\n        /* \"#utility.yul\":12668:12671   */\n      dup5\n        /* \"#utility.yul\":12664:12703   */\n      add\n        /* \"#utility.yul\":12657:12703   */\n      swap1\n      pop\n        /* \"#utility.yul\":12425:12709   */\n      swap4\n      swap3\n      pop\n      pop\n      pop\n      jump\t// out\n        /* \"#utility.yul\":12739:13056   */\n    tag_489:\n        /* \"#utility.yul\":12855:12858   */\n      0x00\n        /* \"#utility.yul\":12876:12965   */\n      tag_491\n        /* \"#utility.yul\":12958:12964   */\n      dup4\n        /* \"#utility.yul\":12953:12956   */\n      dup6\n        /* \"#utility.yul\":12876:12965   */\n      tag_492\n      jump\t// in\n    tag_491:\n        /* \"#utility.yul\":12869:12965   */\n      swap4\n      pop\n        /* \"#utility.yul\":12975:13018   */\n      tag_493\n        /* \"#utility.yul\":13011:13017   */\n      dup4\n        /* \"#utility.yul\":13006:13009   */\n      dup6\n        /* \"#utility.yul\":12999:13004   */\n      dup5\n        /* \"#utility.yul\":12975:13018   */\n      tag_355\n      jump\t// in\n    tag_493:\n        /* \"#utility.yul\":13043:13049   */\n      dup3\n        /* \"#utility.yul\":13038:13041   */\n      dup5\n        /* \"#utility.yul\":13034:13050   */\n      add\n        /* \"#utility.yul\":13027:13050   */\n      swap1\n      pop\n        /* \"#utility.yul\":12739:13056   */\n      swap4\n      swap3\n      pop\n      pop\n      pop\n      jump\t// out\n        /* \"#utility.yul\":13062:13426   */\n    tag_494:\n        /* \"#utility.yul\":13150:13153   */\n      0x00\n        /* \"#utility.yul\":13178:13217   */\n      tag_496\n        /* \"#utility.yul\":13211:13216   */\n      dup3\n        /* \"#utility.yul\":13178:13217   */\n      tag_497\n      jump\t// in\n    tag_496:\n        /* \"#utility.yul\":13233:13304   */\n      tag_498\n        /* \"#utility.yul\":13297:13303   */\n      dup2\n        /* \"#utility.yul\":13292:13295   */\n      dup6\n        /* \"#utility.yul\":13233:13304   */\n      tag_499\n      jump\t// in\n    tag_498:\n        /* \"#utility.yul\":13226:13304   */\n      swap4\n      pop\n        /* \"#utility.yul\":13313:13365   */\n      tag_500\n        /* \"#utility.yul\":13358:13364   */\n      dup2\n        /* \"#utility.yul\":13353:13356   */\n      dup6\n        /* \"#utility.yul\":13346:13350   */\n      0x20\n        /* \"#utility.yul\":13339:13344   */\n      dup7\n        /* \"#utility.yul\":13335:13351   */\n      add\n        /* \"#utility.yul\":13313:13365   */\n      tag_501\n      jump\t// in\n    tag_500:\n        /* \"#utility.yul\":13390:13419   */\n      tag_502\n        /* \"#utility.yul\":13412:13418   */\n      dup2\n        /* \"#utility.yul\":13390:13419   */\n      tag_488\n      jump\t// in\n    tag_502:\n        /* \"#utility.yul\":13385:13388   */\n      dup5\n        /* \"#utility.yul\":13381:13420   */\n      add\n        /* \"#utility.yul\":13374:13420   */\n      swap2\n      pop\n        /* \"#utility.yul\":13154:13426   */\n      pop\n        /* \"#utility.yul\":13062:13426   */\n      swap3\n      swap2\n      pop\n      pop\n      jump\t// out\n        /* \"#utility.yul\":13432:13809   */\n    tag_503:\n        /* \"#utility.yul\":13538:13541   */\n      0x00\n        /* \"#utility.yul\":13566:13605   */\n      tag_505\n        /* \"#utility.yul\":13599:13604   */\n      dup3\n        /* \"#utility.yul\":13566:13605   */\n      tag_497\n      jump\t// in\n    tag_505:\n        /* \"#utility.yul\":13621:13710   */\n      tag_506\n        /* \"#utility.yul\":13703:13709   */\n      dup2\n        /* \"#utility.yul\":13698:13701   */\n      dup6\n        /* \"#utility.yul\":13621:13710   */\n      tag_492\n      jump\t// in\n    tag_506:\n        /* \"#utility.yul\":13614:13710   */\n      swap4\n      pop\n        /* \"#utility.yul\":13719:13771   */\n      tag_507\n        /* \"#utility.yul\":13764:13770   */\n      dup2\n        /* \"#utility.yul\":13759:13762   */\n      dup6\n        /* \"#utility.yul\":13752:13756   */\n      0x20\n        /* \"#utility.yul\":13745:13750   */\n      dup7\n        /* \"#utility.yul\":13741:13757   */\n      add\n        /* \"#utility.yul\":13719:13771   */\n      tag_501\n      jump\t// in\n    tag_507:\n        /* \"#utility.yul\":13796:13802   */\n      dup1\n        /* \"#utility.yul\":13791:13794   */\n      dup5\n        /* \"#utility.yul\":13787:13803   */\n      add\n        /* \"#utility.yul\":13780:13803   */\n      swap2\n      pop\n        /* \"#utility.yul\":13542:13809   */\n      pop\n        /* \"#utility.yul\":13432:13809   */\n      swap3\n      swap2\n      pop\n      pop\n      jump\t// out\n        /* \"#utility.yul\":13839:14684   */\n    tag_508:\n        /* \"#utility.yul\":13942:13945   */\n      0x00\n        /* \"#utility.yul\":13979:13984   */\n      dup2\n        /* \"#utility.yul\":13973:13985   */\n      sload\n        /* \"#utility.yul\":14008:14044   */\n      tag_510\n        /* \"#utility.yul\":14034:14043   */\n      dup2\n        /* \"#utility.yul\":14008:14044   */\n      tag_60\n      jump\t// in\n    tag_510:\n        /* \"#utility.yul\":14060:14149   */\n      tag_511\n        /* \"#utility.yul\":14142:14148   */\n      dup2\n        /* \"#utility.yul\":14137:14140   */\n      dup7\n        /* \"#utility.yul\":14060:14149   */\n      tag_492\n      jump\t// in\n    tag_511:\n        /* \"#utility.yul\":14053:14149   */\n      swap5\n      pop\n        /* \"#utility.yul\":14180:14181   */\n      0x01\n        /* \"#utility.yul\":14169:14178   */\n      dup3\n        /* \"#utility.yul\":14165:14182   */\n      and\n        /* \"#utility.yul\":14196:14197   */\n      0x00\n        /* \"#utility.yul\":14191:14328   */\n      dup2\n      eq\n      tag_513\n      jumpi\n        /* \"#utility.yul\":14342:14343   */\n      0x01\n        /* \"#utility.yul\":14337:14678   */\n      dup2\n      eq\n      tag_514\n      jumpi\n        /* \"#utility.yul\":14158:14678   */\n      jump(tag_512)\n        /* \"#utility.yul\":14191:14328   */\n    tag_513:\n        /* \"#utility.yul\":14275:14279   */\n      0xff\n        /* \"#utility.yul\":14271:14280   */\n      not\n        /* \"#utility.yul\":14260:14269   */\n      dup4\n        /* \"#utility.yul\":14256:14281   */\n      and\n        /* \"#utility.yul\":14251:14254   */\n      dup7\n        /* \"#utility.yul\":14244:14282   */\n      mstore\n        /* \"#utility.yul\":14311:14317   */\n      dup2\n        /* \"#utility.yul\":14306:14309   */\n      dup7\n        /* \"#utility.yul\":14302:14318   */\n      add\n        /* \"#utility.yul\":14295:14318   */\n      swap4\n      pop\n        /* \"#utility.yul\":14191:14328   */\n      jump(tag_512)\n        /* \"#utility.yul\":14337:14678   */\n    tag_514:\n        /* \"#utility.yul\":14404:14442   */\n      tag_515\n        /* \"#utility.yul\":14436:14441   */\n      dup6\n        /* \"#utility.yul\":14404:14442   */\n      tag_516\n      jump\t// in\n    tag_515:\n        /* \"#utility.yul\":14464:14465   */\n      0x00\n        /* \"#utility.yul\":14478:14632   */\n    tag_517:\n        /* \"#utility.yul\":14492:14498   */\n      dup4\n        /* \"#utility.yul\":14489:14490   */\n      dup2\n        /* \"#utility.yul\":14486:14499   */\n      lt\n        /* \"#utility.yul\":14478:14632   */\n      iszero\n      tag_519\n      jumpi\n        /* \"#utility.yul\":14566:14573   */\n      dup2\n        /* \"#utility.yul\":14560:14574   */\n      sload\n        /* \"#utility.yul\":14556:14557   */\n      dup2\n        /* \"#utility.yul\":14551:14554   */\n      dup10\n        /* \"#utility.yul\":14547:14558   */\n      add\n        /* \"#utility.yul\":14540:14575   */\n      mstore\n        /* \"#utility.yul\":14616:14617   */\n      0x01\n        /* \"#utility.yul\":14607:14614   */\n      dup3\n        /* \"#utility.yul\":14603:14618   */\n      add\n        /* \"#utility.yul\":14592:14618   */\n      swap2\n      pop\n        /* \"#utility.yul\":14514:14518   */\n      0x20\n        /* \"#utility.yul\":14511:14512   */\n      dup2\n        /* \"#utility.yul\":14507:14519   */\n      add\n        /* \"#utility.yul\":14502:14519   */\n      swap1\n      pop\n        /* \"#utility.yul\":14478:14632   */\n      jump(tag_517)\n    tag_519:\n        /* \"#utility.yul\":14661:14667   */\n      dup4\n        /* \"#utility.yul\":14656:14659   */\n      dup9\n        /* \"#utility.yul\":14652:14668   */\n      add\n        /* \"#utility.yul\":14645:14668   */\n      swap6\n      pop\n        /* \"#utility.yul\":14344:14678   */\n      pop\n      pop\n        /* \"#utility.yul\":14158:14678   */\n    tag_512:\n      pop\n        /* \"#utility.yul\":13946:14684   */\n      pop\n      pop\n        /* \"#utility.yul\":13839:14684   */\n      swap3\n      swap2\n      pop\n      pop\n      jump\t// out\n        /* \"#utility.yul\":14690:15056   */\n    tag_520:\n        /* \"#utility.yul\":14832:14835   */\n      0x00\n        /* \"#utility.yul\":14853:14920   */\n      tag_522\n        /* \"#utility.yul\":14917:14919   */\n      0x12\n        /* \"#utility.yul\":14912:14915   */\n      dup4\n        /* \"#utility.yul\":14853:14920   */\n      tag_499\n      jump\t// in\n    tag_522:\n        /* \"#utility.yul\":14846:14920   */\n      swap2\n      pop\n        /* \"#utility.yul\":14929:15022   */\n      tag_523\n        /* \"#utility.yul\":15018:15021   */\n      dup3\n        /* \"#utility.yul\":14929:15022   */\n      tag_524\n      jump\t// in\n    tag_523:\n        /* \"#utility.yul\":15047:15049   */\n      0x20\n        /* \"#utility.yul\":15042:15045   */\n      dup3\n        /* \"#utility.yul\":15038:15050   */\n      add\n        /* \"#utility.yul\":15031:15050   */\n      swap1\n      pop\n        /* \"#utility.yul\":14690:15056   */\n      swap2\n      swap1\n      pop\n      jump\t// out\n        /* \"#utility.yul\":15062:15428   */\n    tag_525:\n        /* \"#utility.yul\":15204:15207   */\n      0x00\n        /* \"#utility.yul\":15225:15292   */\n      tag_527\n        /* \"#utility.yul\":15289:15291   */\n      0x2c\n        /* \"#utility.yul\":15284:15287   */\n      dup4\n        /* \"#utility.yul\":15225:15292   */\n      tag_499\n      jump\t// in\n    tag_527:\n        /* \"#utility.yul\":15218:15292   */\n      swap2\n      pop\n        /* \"#utility.yul\":15301:15394   */\n      tag_528\n        /* \"#utility.yul\":15390:15393   */\n      dup3\n        /* \"#utility.yul\":15301:15394   */\n      tag_529\n      jump\t// in\n    tag_528:\n        /* \"#utility.yul\":15419:15421   */\n      0x40\n        /* \"#utility.yul\":15414:15417   */\n      dup3\n        /* \"#utility.yul\":15410:15422   */\n      add\n        /* \"#utility.yul\":15403:15422   */\n      swap1\n      pop\n        /* \"#utility.yul\":15062:15428   */\n      swap2\n      swap1\n      pop\n      jump\t// out\n        /* \"#utility.yul\":15434:15800   */\n    tag_530:\n        /* \"#utility.yul\":15576:15579   */\n      0x00\n        /* \"#utility.yul\":15597:15664   */\n      tag_532\n        /* \"#utility.yul\":15661:15663   */\n      0x22\n        /* \"#utility.yul\":15656:15659   */\n      dup4\n        /* \"#utility.yul\":15597:15664   */\n      tag_499\n      jump\t// in\n    tag_532:\n        /* \"#utility.yul\":15590:15664   */\n      swap2\n      pop\n        /* \"#utility.yul\":15673:15766   */\n      tag_533\n        /* \"#utility.yul\":15762:15765   */\n      dup3\n        /* \"#utility.yul\":15673:15766   */\n      tag_534\n      jump\t// in\n    tag_533:\n        /* \"#utility.yul\":15791:15793   */\n      0x40\n        /* \"#utility.yul\":15786:15789   */\n      dup3\n        /* \"#utility.yul\":15782:15794   */\n      add\n        /* \"#utility.yul\":15775:15794   */\n      swap1\n      pop\n        /* \"#utility.yul\":15434:15800   */\n      swap2\n      swap1\n      pop\n      jump\t// out\n        /* \"#utility.yul\":15806:16172   */\n    tag_535:\n        /* \"#utility.yul\":15948:15951   */\n      0x00\n        /* \"#utility.yul\":15969:16036   */\n      tag_537\n        /* \"#utility.yul\":16033:16035   */\n      0x0d\n        /* \"#utility.yul\":16028:16031   */\n      dup4\n        /* \"#utility.yul\":15969:16036   */\n      tag_499\n      jump\t// in\n    tag_537:\n        /* \"#utility.yul\":15962:16036   */\n      swap2\n      pop\n        /* \"#utility.yul\":16045:16138   */\n      tag_538\n        /* \"#utility.yul\":16134:16137   */\n      dup3\n        /* \"#utility.yul\":16045:16138   */\n      tag_539\n      jump\t// in\n    tag_538:\n        /* \"#utility.yul\":16163:16165   */\n      0x20\n        /* \"#utility.yul\":16158:16161   */\n      dup3\n        /* \"#utility.yul\":16154:16166   */\n      add\n        /* \"#utility.yul\":16147:16166   */\n      swap1\n      pop\n        /* \"#utility.yul\":15806:16172   */\n      swap2\n      swap1\n      pop\n      jump\t// out\n        /* \"#utility.yul\":16178:16544   */\n    tag_540:\n        /* \"#utility.yul\":16320:16323   */\n      0x00\n        /* \"#utility.yul\":16341:16408   */\n      tag_542\n        /* \"#utility.yul\":16405:16407   */\n      0x1b\n        /* \"#utility.yul\":16400:16403   */\n      dup4\n        /* \"#utility.yul\":16341:16408   */\n      tag_499\n      jump\t// in\n    tag_542:\n        /* \"#utility.yul\":16334:16408   */\n      swap2\n      pop\n        /* \"#utility.yul\":16417:16510   */\n      tag_543\n        /* \"#utility.yul\":16506:16509   */\n      dup3\n        /* \"#utility.yul\":16417:16510   */\n      tag_544\n      jump\t// in\n    tag_543:\n        /* \"#utility.yul\":16535:16537   */\n      0x20\n        /* \"#utility.yul\":16530:16533   */\n      dup3\n        /* \"#utility.yul\":16526:16538   */\n      add\n        /* \"#utility.yul\":16519:16538   */\n      swap1\n      pop\n        /* \"#utility.yul\":16178:16544   */\n      swap2\n      swap1\n      pop\n      jump\t// out\n        /* \"#utility.yul\":16550:16916   */\n    tag_545:\n        /* \"#utility.yul\":16692:16695   */\n      0x00\n        /* \"#utility.yul\":16713:16780   */\n      tag_547\n        /* \"#utility.yul\":16777:16779   */\n      0x23\n        /* \"#utility.yul\":16772:16775   */\n      dup4\n        /* \"#utility.yul\":16713:16780   */\n      tag_499\n      jump\t// in\n    tag_547:\n        /* \"#utility.yul\":16706:16780   */\n      swap2\n      pop\n        /* \"#utility.yul\":16789:16882   */\n      tag_548\n        /* \"#utility.yul\":16878:16881   */\n      dup3\n        /* \"#utility.yul\":16789:16882   */\n      tag_549\n      jump\t// in\n    tag_548:\n        /* \"#utility.yul\":16907:16909   */\n      0x40\n        /* \"#utility.yul\":16902:16905   */\n      dup3\n        /* \"#utility.yul\":16898:16910   */\n      add\n        /* \"#utility.yul\":16891:16910   */\n      swap1\n      pop\n        /* \"#utility.yul\":16550:16916   */\n      swap2\n      swap1\n      pop\n      jump\t// out\n        /* \"#utility.yul\":16922:17288   */\n    tag_550:\n        /* \"#utility.yul\":17064:17067   */\n      0x00\n        /* \"#utility.yul\":17085:17152   */\n      tag_552\n        /* \"#utility.yul\":17149:17151   */\n      0x14\n        /* \"#utility.yul\":17144:17147   */\n      dup4\n        /* \"#utility.yul\":17085:17152   */\n      tag_499\n      jump\t// in\n    tag_552:\n        /* \"#utility.yul\":17078:17152   */\n      swap2\n      pop\n        /* \"#utility.yul\":17161:17254   */\n      tag_553\n        /* \"#utility.yul\":17250:17253   */\n      dup3\n        /* \"#utility.yul\":17161:17254   */\n      tag_554\n      jump\t// in\n    tag_553:\n        /* \"#utility.yul\":17279:17281   */\n      0x20\n        /* \"#utility.yul\":17274:17277   */\n      dup3\n        /* \"#utility.yul\":17270:17282   */\n      add\n        /* \"#utility.yul\":17263:17282   */\n      swap1\n      pop\n        /* \"#utility.yul\":16922:17288   */\n      swap2\n      swap1\n      pop\n      jump\t// out\n        /* \"#utility.yul\":17294:17660   */\n    tag_555:\n        /* \"#utility.yul\":17436:17439   */\n      0x00\n        /* \"#utility.yul\":17457:17524   */\n      tag_557\n        /* \"#utility.yul\":17521:17523   */\n      0x23\n        /* \"#utility.yul\":17516:17519   */\n      dup4\n        /* \"#utility.yul\":17457:17524   */\n      tag_499\n      jump\t// in\n    tag_557:\n        /* \"#utility.yul\":17450:17524   */\n      swap2\n      pop\n        /* \"#utility.yul\":17533:17626   */\n      tag_558\n        /* \"#utility.yul\":17622:17625   */\n      dup3\n        /* \"#utility.yul\":17533:17626   */\n      tag_559\n      jump\t// in\n    tag_558:\n        /* \"#utility.yul\":17651:17653   */\n      0x40\n        /* \"#utility.yul\":17646:17649   */\n      dup3\n        /* \"#utility.yul\":17642:17654   */\n      add\n        /* \"#utility.yul\":17635:17654   */\n      swap1\n      pop\n        /* \"#utility.yul\":17294:17660   */\n      swap2\n      swap1\n      pop\n      jump\t// out\n        /* \"#utility.yul\":17666:18032   */\n    tag_560:\n        /* \"#utility.yul\":17808:17811   */\n      0x00\n        /* \"#utility.yul\":17829:17896   */\n      tag_562\n        /* \"#utility.yul\":17893:17895   */\n      0x12\n        /* \"#utility.yul\":17888:17891   */\n      dup4\n        /* \"#utility.yul\":17829:17896   */\n      tag_499\n      jump\t// in\n    tag_562:\n        /* \"#utility.yul\":17822:17896   */\n      swap2\n      pop\n        /* \"#utility.yul\":17905:17998   */\n      tag_563\n        /* \"#utility.yul\":17994:17997   */\n      dup3\n        /* \"#utility.yul\":17905:17998   */\n      tag_564\n      jump\t// in\n    tag_563:\n        /* \"#utility.yul\":18023:18025   */\n      0x20\n        /* \"#utility.yul\":18018:18021   */\n      dup3\n        /* \"#utility.yul\":18014:18026   */\n      add\n        /* \"#utility.yul\":18007:18026   */\n      swap1\n      pop\n        /* \"#utility.yul\":17666:18032   */\n      swap2\n      swap1\n      pop\n      jump\t// out\n        /* \"#utility.yul\":18038:18404   */\n    tag_565:\n        /* \"#utility.yul\":18180:18183   */\n      0x00\n        /* \"#utility.yul\":18201:18268   */\n      tag_567\n        /* \"#utility.yul\":18265:18267   */\n      0x23\n        /* \"#utility.yul\":18260:18263   */\n      dup4\n        /* \"#utility.yul\":18201:18268   */\n      tag_499\n      jump\t// in\n    tag_567:\n        /* \"#utility.yul\":18194:18268   */\n      swap2\n      pop\n        /* \"#utility.yul\":18277:18370   */\n      tag_568\n        /* \"#utility.yul\":18366:18369   */\n      dup3\n        /* \"#utility.yul\":18277:18370   */\n      tag_569\n      jump\t// in\n    tag_568:\n        /* \"#utility.yul\":18395:18397   */\n      0x40\n        /* \"#utility.yul\":18390:18393   */\n      dup3\n        /* \"#utility.yul\":18386:18398   */\n      add\n        /* \"#utility.yul\":18379:18398   */\n      swap1\n      pop\n        /* \"#utility.yul\":18038:18404   */\n      swap2\n      swap1\n      pop\n      jump\t// out\n        /* \"#utility.yul\":18410:18776   */\n    tag_570:\n        /* \"#utility.yul\":18552:18555   */\n      0x00\n        /* \"#utility.yul\":18573:18640   */\n      tag_572\n        /* \"#utility.yul\":18637:18639   */\n      0x2a\n        /* \"#utility.yul\":18632:18635   */\n      dup4\n        /* \"#utility.yul\":18573:18640   */\n      tag_499\n      jump\t// in\n    tag_572:\n        /* \"#utility.yul\":18566:18640   */\n      swap2\n      pop\n        /* \"#utility.yul\":18649:18742   */\n      tag_573\n        /* \"#utility.yul\":18738:18741   */\n      dup3\n        /* \"#utility.yul\":18649:18742   */\n      tag_574\n      jump\t// in\n    tag_573:\n        /* \"#utility.yul\":18767:18769   */\n      0x40\n        /* \"#utility.yul\":18762:18765   */\n      dup3\n        /* \"#utility.yul\":18758:18770   */\n      add\n        /* \"#utility.yul\":18751:18770   */\n      swap1\n      pop\n        /* \"#utility.yul\":18410:18776   */\n      swap2\n      swap1\n      pop\n      jump\t// out\n        /* \"#utility.yul\":18782:19148   */\n    tag_575:\n        /* \"#utility.yul\":18924:18927   */\n      0x00\n        /* \"#utility.yul\":18945:19012   */\n      tag_577\n        /* \"#utility.yul\":19009:19011   */\n      0x21\n        /* \"#utility.yul\":19004:19007   */\n      dup4\n        /* \"#utility.yul\":18945:19012   */\n      tag_499\n      jump\t// in\n    tag_577:\n        /* \"#utility.yul\":18938:19012   */\n      swap2\n      pop\n        /* \"#utility.yul\":19021:19114   */\n      tag_578\n        /* \"#utility.yul\":19110:19113   */\n      dup3\n        /* \"#utility.yul\":19021:19114   */\n      tag_579\n      jump\t// in\n    tag_578:\n        /* \"#utility.yul\":19139:19141   */\n      0x40\n        /* \"#utility.yul\":19134:19137   */\n      dup3\n        /* \"#utility.yul\":19130:19142   */\n      add\n        /* \"#utility.yul\":19123:19142   */\n      swap1\n      pop\n        /* \"#utility.yul\":18782:19148   */\n      swap2\n      swap1\n      pop\n      jump\t// out\n        /* \"#utility.yul\":19154:19520   */\n    tag_580:\n        /* \"#utility.yul\":19296:19299   */\n      0x00\n        /* \"#utility.yul\":19317:19384   */\n      tag_582\n        /* \"#utility.yul\":19381:19383   */\n      0x24\n        /* \"#utility.yul\":19376:19379   */\n      dup4\n        /* \"#utility.yul\":19317:19384   */\n      tag_499\n      jump\t// in\n    tag_582:\n        /* \"#utility.yul\":19310:19384   */\n      swap2\n      pop\n        /* \"#utility.yul\":19393:19486   */\n      tag_583\n        /* \"#utility.yul\":19482:19485   */\n      dup3\n        /* \"#utility.yul\":19393:19486   */\n      tag_584\n      jump\t// in\n    tag_583:\n        /* \"#utility.yul\":19511:19513   */\n      0x40\n        /* \"#utility.yul\":19506:19509   */\n      dup3\n        /* \"#utility.yul\":19502:19514   */\n      add\n        /* \"#utility.yul\":19495:19514   */\n      swap1\n      pop\n        /* \"#utility.yul\":19154:19520   */\n      swap2\n      swap1\n      pop\n      jump\t// out\n        /* \"#utility.yul\":19526:19891   */\n    tag_585:\n        /* \"#utility.yul\":19668:19671   */\n      0x00\n        /* \"#utility.yul\":19689:19755   */\n      tag_587\n        /* \"#utility.yul\":19753:19754   */\n      0x04\n        /* \"#utility.yul\":19748:19751   */\n      dup4\n        /* \"#utility.yul\":19689:19755   */\n      tag_499\n      jump\t// in\n    tag_587:\n        /* \"#utility.yul\":19682:19755   */\n      swap2\n      pop\n        /* \"#utility.yul\":19764:19857   */\n      tag_588\n        /* \"#utility.yul\":19853:19856   */\n      dup3\n        /* \"#utility.yul\":19764:19857   */\n      tag_589\n      jump\t// in\n    tag_588:\n        /* \"#utility.yul\":19882:19884   */\n      0x20\n        /* \"#utility.yul\":19877:19880   */\n      dup3\n        /* \"#utility.yul\":19873:19885   */\n      add\n        /* \"#utility.yul\":19866:19885   */\n      swap1\n      pop\n        /* \"#utility.yul\":19526:19891   */\n      swap2\n      swap1\n      pop\n      jump\t// out\n        /* \"#utility.yul\":19897:20263   */\n    tag_590:\n        /* \"#utility.yul\":20039:20042   */\n      0x00\n        /* \"#utility.yul\":20060:20127   */\n      tag_592\n        /* \"#utility.yul\":20124:20126   */\n      0x1d\n        /* \"#utility.yul\":20119:20122   */\n      dup4\n        /* \"#utility.yul\":20060:20127   */\n      tag_499\n      jump\t// in\n    tag_592:\n        /* \"#utility.yul\":20053:20127   */\n      swap2\n      pop\n        /* \"#utility.yul\":20136:20229   */\n      tag_593\n        /* \"#utility.yul\":20225:20228   */\n      dup3\n        /* \"#utility.yul\":20136:20229   */\n      tag_594\n      jump\t// in\n    tag_593:\n        /* \"#utility.yul\":20254:20256   */\n      0x20\n        /* \"#utility.yul\":20249:20252   */\n      dup3\n        /* \"#utility.yul\":20245:20257   */\n      add\n        /* \"#utility.yul\":20238:20257   */\n      swap1\n      pop\n        /* \"#utility.yul\":19897:20263   */\n      swap2\n      swap1\n      pop\n      jump\t// out\n        /* \"#utility.yul\":20269:20634   */\n    tag_595:\n        /* \"#utility.yul\":20411:20414   */\n      0x00\n        /* \"#utility.yul\":20432:20498   */\n      tag_597\n        /* \"#utility.yul\":20496:20497   */\n      0x04\n        /* \"#utility.yul\":20491:20494   */\n      dup4\n        /* \"#utility.yul\":20432:20498   */\n      tag_499\n      jump\t// in\n    tag_597:\n        /* \"#utility.yul\":20425:20498   */\n      swap2\n      pop\n        /* \"#utility.yul\":20507:20600   */\n      tag_598\n        /* \"#utility.yul\":20596:20599   */\n      dup3\n        /* \"#utility.yul\":20507:20600   */\n      tag_599\n      jump\t// in\n    tag_598:\n        /* \"#utility.yul\":20625:20627   */\n      0x20\n        /* \"#utility.yul\":20620:20623   */\n      dup3\n        /* \"#utility.yul\":20616:20628   */\n      add\n        /* \"#utility.yul\":20609:20628   */\n      swap1\n      pop\n        /* \"#utility.yul\":20269:20634   */\n      swap2\n      swap1\n      pop\n      jump\t// out\n        /* \"#utility.yul\":20640:21005   */\n    tag_600:\n        /* \"#utility.yul\":20782:20785   */\n      0x00\n        /* \"#utility.yul\":20803:20869   */\n      tag_602\n        /* \"#utility.yul\":20867:20868   */\n      0x09\n        /* \"#utility.yul\":20862:20865   */\n      dup4\n        /* \"#utility.yul\":20803:20869   */\n      tag_499\n      jump\t// in\n    tag_602:\n        /* \"#utility.yul\":20796:20869   */\n      swap2\n      pop\n        /* \"#utility.yul\":20878:20971   */\n      tag_603\n        /* \"#utility.yul\":20967:20970   */\n      dup3\n        /* \"#utility.yul\":20878:20971   */\n      tag_604\n      jump\t// in\n    tag_603:\n        /* \"#utility.yul\":20996:20998   */\n      0x20\n        /* \"#utility.yul\":20991:20994   */\n      dup3\n        /* \"#utility.yul\":20987:20999   */\n      add\n        /* \"#utility.yul\":20980:20999   */\n      swap1\n      pop\n        /* \"#utility.yul\":20640:21005   */\n      swap2\n      swap1\n      pop\n      jump\t// out\n        /* \"#utility.yul\":21011:21377   */\n    tag_605:\n        /* \"#utility.yul\":21153:21156   */\n      0x00\n        /* \"#utility.yul\":21174:21241   */\n      tag_607\n        /* \"#utility.yul\":21238:21240   */\n      0x1f\n        /* \"#utility.yul\":21233:21236   */\n      dup4\n        /* \"#utility.yul\":21174:21241   */\n      tag_499\n      jump\t// in\n    tag_607:\n        /* \"#utility.yul\":21167:21241   */\n      swap2\n      pop\n        /* \"#utility.yul\":21250:21343   */\n      tag_608\n        /* \"#utility.yul\":21339:21342   */\n      dup3\n        /* \"#utility.yul\":21250:21343   */\n      tag_609\n      jump\t// in\n    tag_608:\n        /* \"#utility.yul\":21368:21370   */\n      0x20\n        /* \"#utility.yul\":21363:21366   */\n      dup3\n        /* \"#utility.yul\":21359:21371   */\n      add\n        /* \"#utility.yul\":21352:21371   */\n      swap1\n      pop\n        /* \"#utility.yul\":21011:21377   */\n      swap2\n      swap1\n      pop\n      jump\t// out\n        /* \"#utility.yul\":21383:21501   */\n    tag_610:\n        /* \"#utility.yul\":21470:21494   */\n      tag_612\n        /* \"#utility.yul\":21488:21493   */\n      dup2\n        /* \"#utility.yul\":21470:21494   */\n      tag_613\n      jump\t// in\n    tag_612:\n        /* \"#utility.yul\":21465:21468   */\n      dup3\n        /* \"#utility.yul\":21458:21495   */\n      mstore\n        /* \"#utility.yul\":21383:21501   */\n      pop\n      pop\n      jump\t// out\n        /* \"#utility.yul\":21507:21622   */\n    tag_614:\n        /* \"#utility.yul\":21592:21615   */\n      tag_616\n        /* \"#utility.yul\":21609:21614   */\n      dup2\n        /* \"#utility.yul\":21592:21615   */\n      tag_617\n      jump\t// in\n    tag_616:\n        /* \"#utility.yul\":21587:21590   */\n      dup3\n        /* \"#utility.yul\":21580:21616   */\n      mstore\n        /* \"#utility.yul\":21507:21622   */\n      pop\n      pop\n      jump\t// out\n        /* \"#utility.yul\":21628:21746   */\n    tag_618:\n        /* \"#utility.yul\":21715:21739   */\n      tag_620\n        /* \"#utility.yul\":21733:21738   */\n      dup2\n        /* \"#utility.yul\":21715:21739   */\n      tag_621\n      jump\t// in\n    tag_620:\n        /* \"#utility.yul\":21710:21713   */\n      dup3\n        /* \"#utility.yul\":21703:21740   */\n      mstore\n        /* \"#utility.yul\":21628:21746   */\n      pop\n      pop\n      jump\t// out\n        /* \"#utility.yul\":21752:21864   */\n    tag_622:\n        /* \"#utility.yul\":21835:21857   */\n      tag_624\n        /* \"#utility.yul\":21851:21856   */\n      dup2\n        /* \"#utility.yul\":21835:21857   */\n      tag_625\n      jump\t// in\n    tag_624:\n        /* \"#utility.yul\":21830:21833   */\n      dup3\n        /* \"#utility.yul\":21823:21858   */\n      mstore\n        /* \"#utility.yul\":21752:21864   */\n      pop\n      pop\n      jump\t// out\n        /* \"#utility.yul\":21870:22165   */\n    tag_169:\n        /* \"#utility.yul\":22012:22015   */\n      0x00\n        /* \"#utility.yul\":22034:22139   */\n      tag_627\n        /* \"#utility.yul\":22135:22138   */\n      dup3\n        /* \"#utility.yul\":22126:22132   */\n      dup5\n        /* \"#utility.yul\":22118:22124   */\n      dup7\n        /* \"#utility.yul\":22034:22139   */\n      tag_489\n      jump\t// in\n    tag_627:\n        /* \"#utility.yul\":22027:22139   */\n      swap2\n      pop\n        /* \"#utility.yul\":22156:22159   */\n      dup2\n        /* \"#utility.yul\":22149:22159   */\n      swap1\n      pop\n        /* \"#utility.yul\":21870:22165   */\n      swap4\n      swap3\n      pop\n      pop\n      pop\n      jump\t// out\n        /* \"#utility.yul\":22171:22446   */\n    tag_229:\n        /* \"#utility.yul\":22303:22306   */\n      0x00\n        /* \"#utility.yul\":22325:22420   */\n      tag_629\n        /* \"#utility.yul\":22416:22419   */\n      dup3\n        /* \"#utility.yul\":22407:22413   */\n      dup5\n        /* \"#utility.yul\":22325:22420   */\n      tag_503\n      jump\t// in\n    tag_629:\n        /* \"#utility.yul\":22318:22420   */\n      swap2\n      pop\n        /* \"#utility.yul\":22437:22440   */\n      dup2\n        /* \"#utility.yul\":22430:22440   */\n      swap1\n      pop\n        /* \"#utility.yul\":22171:22446   */\n      swap3\n      swap2\n      pop\n      pop\n      jump\t// out\n        /* \"#utility.yul\":22452:22721   */\n    tag_200:\n        /* \"#utility.yul\":22581:22584   */\n      0x00\n        /* \"#utility.yul\":22603:22695   */\n      tag_631\n        /* \"#utility.yul\":22691:22694   */\n      dup3\n        /* \"#utility.yul\":22682:22688   */\n      dup5\n        /* \"#utility.yul\":22603:22695   */\n      tag_508\n      jump\t// in\n    tag_631:\n        /* \"#utility.yul\":22596:22695   */\n      swap2\n      pop\n        /* \"#utility.yul\":22712:22715   */\n      dup2\n        /* \"#utility.yul\":22705:22715   */\n      swap1\n      pop\n        /* \"#utility.yul\":22452:22721   */\n      swap3\n      swap2\n      pop\n      pop\n      jump\t// out\n        /* \"#utility.yul\":22727:23692   */\n    tag_19:\n        /* \"#utility.yul\":23002:23006   */\n      0x00\n        /* \"#utility.yul\":23040:23043   */\n      0xe0\n        /* \"#utility.yul\":23029:23038   */\n      dup3\n        /* \"#utility.yul\":23025:23044   */\n      add\n        /* \"#utility.yul\":23017:23044   */\n      swap1\n      pop\n        /* \"#utility.yul\":23054:23125   */\n      tag_633\n        /* \"#utility.yul\":23122:23123   */\n      0x00\n        /* \"#utility.yul\":23111:23120   */\n      dup4\n        /* \"#utility.yul\":23107:23124   */\n      add\n        /* \"#utility.yul\":23098:23104   */\n      dup11\n        /* \"#utility.yul\":23054:23125   */\n      tag_448\n      jump\t// in\n    tag_633:\n        /* \"#utility.yul\":23135:23203   */\n      tag_634\n        /* \"#utility.yul\":23199:23201   */\n      0x20\n        /* \"#utility.yul\":23188:23197   */\n      dup4\n        /* \"#utility.yul\":23184:23202   */\n      add\n        /* \"#utility.yul\":23175:23181   */\n      dup10\n        /* \"#utility.yul\":23135:23203   */\n      tag_622\n      jump\t// in\n    tag_634:\n        /* \"#utility.yul\":23250:23259   */\n      dup2\n        /* \"#utility.yul\":23244:23248   */\n      dup2\n        /* \"#utility.yul\":23240:23260   */\n      sub\n        /* \"#utility.yul\":23235:23237   */\n      0x40\n        /* \"#utility.yul\":23224:23233   */\n      dup4\n        /* \"#utility.yul\":23220:23238   */\n      add\n        /* \"#utility.yul\":23213:23261   */\n      mstore\n        /* \"#utility.yul\":23278:23356   */\n      tag_635\n        /* \"#utility.yul\":23351:23355   */\n      dup2\n        /* \"#utility.yul\":23342:23348   */\n      dup9\n        /* \"#utility.yul\":23278:23356   */\n      tag_494\n      jump\t// in\n    tag_635:\n        /* \"#utility.yul\":23270:23356   */\n      swap1\n      pop\n        /* \"#utility.yul\":23366:23438   */\n      tag_636\n        /* \"#utility.yul\":23434:23436   */\n      0x60\n        /* \"#utility.yul\":23423:23432   */\n      dup4\n        /* \"#utility.yul\":23419:23437   */\n      add\n        /* \"#utility.yul\":23410:23416   */\n      dup8\n        /* \"#utility.yul\":23366:23438   */\n      tag_618\n      jump\t// in\n    tag_636:\n        /* \"#utility.yul\":23448:23521   */\n      tag_637\n        /* \"#utility.yul\":23516:23519   */\n      0x80\n        /* \"#utility.yul\":23505:23514   */\n      dup4\n        /* \"#utility.yul\":23501:23520   */\n      add\n        /* \"#utility.yul\":23492:23498   */\n      dup7\n        /* \"#utility.yul\":23448:23521   */\n      tag_618\n      jump\t// in\n    tag_637:\n        /* \"#utility.yul\":23531:23602   */\n      tag_638\n        /* \"#utility.yul\":23597:23600   */\n      0xa0\n        /* \"#utility.yul\":23586:23595   */\n      dup4\n        /* \"#utility.yul\":23582:23601   */\n      add\n        /* \"#utility.yul\":23573:23579   */\n      dup6\n        /* \"#utility.yul\":23531:23602   */\n      tag_614\n      jump\t// in\n    tag_638:\n        /* \"#utility.yul\":23612:23685   */\n      tag_639\n        /* \"#utility.yul\":23680:23683   */\n      0xc0\n        /* \"#utility.yul\":23669:23678   */\n      dup4\n        /* \"#utility.yul\":23665:23684   */\n      add\n        /* \"#utility.yul\":23656:23662   */\n      dup5\n        /* \"#utility.yul\":23612:23685   */\n      tag_618\n      jump\t// in\n    tag_639:\n        /* \"#utility.yul\":22727:23692   */\n      swap9\n      swap8\n      pop\n      pop\n      pop\n      pop\n      pop\n      pop\n      pop\n      pop\n      jump\t// out\n        /* \"#utility.yul\":23698:24011   */\n    tag_23:\n        /* \"#utility.yul\":23811:23815   */\n      0x00\n        /* \"#utility.yul\":23849:23851   */\n      0x20\n        /* \"#utility.yul\":23838:23847   */\n      dup3\n        /* \"#utility.yul\":23834:23852   */\n      add\n        /* \"#utility.yul\":23826:23852   */\n      swap1\n      pop\n        /* \"#utility.yul\":23898:23907   */\n      dup2\n        /* \"#utility.yul\":23892:23896   */\n      dup2\n        /* \"#utility.yul\":23888:23908   */\n      sub\n        /* \"#utility.yul\":23884:23885   */\n      0x00\n        /* \"#utility.yul\":23873:23882   */\n      dup4\n        /* \"#utility.yul\":23869:23886   */\n      add\n        /* \"#utility.yul\":23862:23909   */\n      mstore\n        /* \"#utility.yul\":23926:24004   */\n      tag_641\n        /* \"#utility.yul\":23999:24003   */\n      dup2\n        /* \"#utility.yul\":23990:23996   */\n      dup5\n        /* \"#utility.yul\":23926:24004   */\n      tag_494\n      jump\t// in\n    tag_641:\n        /* \"#utility.yul\":23918:24004   */\n      swap1\n      pop\n        /* \"#utility.yul\":23698:24011   */\n      swap3\n      swap2\n      pop\n      pop\n      jump\t// out\n        /* \"#utility.yul\":24017:24436   */\n    tag_197:\n        /* \"#utility.yul\":24183:24187   */\n      0x00\n        /* \"#utility.yul\":24221:24223   */\n      0x20\n        /* \"#utility.yul\":24210:24219   */\n      dup3\n        /* \"#utility.yul\":24206:24224   */\n      add\n        /* \"#utility.yul\":24198:24224   */\n      swap1\n      pop\n        /* \"#utility.yul\":24270:24279   */\n      dup2\n        /* \"#utility.yul\":24264:24268   */\n      dup2\n        /* \"#utility.yul\":24260:24280   */\n      sub\n        /* \"#utility.yul\":24256:24257   */\n      0x00\n        /* \"#utility.yul\":24245:24254   */\n      dup4\n        /* \"#utility.yul\":24241:24258   */\n      add\n        /* \"#utility.yul\":24234:24281   */\n      mstore\n        /* \"#utility.yul\":24298:24429   */\n      tag_643\n        /* \"#utility.yul\":24424:24428   */\n      dup2\n        /* \"#utility.yul\":24298:24429   */\n      tag_520\n      jump\t// in\n    tag_643:\n        /* \"#utility.yul\":24290:24429   */\n      swap1\n      pop\n        /* \"#utility.yul\":24017:24436   */\n      swap2\n      swap1\n      pop\n      jump\t// out\n        /* \"#utility.yul\":24442:24861   */\n    tag_79:\n        /* \"#utility.yul\":24608:24612   */\n      0x00\n        /* \"#utility.yul\":24646:24648   */\n      0x20\n        /* \"#utility.yul\":24635:24644   */\n      dup3\n        /* \"#utility.yul\":24631:24649   */\n      add\n        /* \"#utility.yul\":24623:24649   */\n      swap1\n      pop\n        /* \"#utility.yul\":24695:24704   */\n      dup2\n        /* \"#utility.yul\":24689:24693   */\n      dup2\n        /* \"#utility.yul\":24685:24705   */\n      sub\n        /* \"#utility.yul\":24681:24682   */\n      0x00\n        /* \"#utility.yul\":24670:24679   */\n      dup4\n        /* \"#utility.yul\":24666:24683   */\n      add\n        /* \"#utility.yul\":24659:24706   */\n      mstore\n        /* \"#utility.yul\":24723:24854   */\n      tag_645\n        /* \"#utility.yul\":24849:24853   */\n      dup2\n        /* \"#utility.yul\":24723:24854   */\n      tag_525\n      jump\t// in\n    tag_645:\n        /* \"#utility.yul\":24715:24854   */\n      swap1\n      pop\n        /* \"#utility.yul\":24442:24861   */\n      swap2\n      swap1\n      pop\n      jump\t// out\n        /* \"#utility.yul\":24867:25286   */\n    tag_276:\n        /* \"#utility.yul\":25033:25037   */\n      0x00\n        /* \"#utility.yul\":25071:25073   */\n      0x20\n        /* \"#utility.yul\":25060:25069   */\n      dup3\n        /* \"#utility.yul\":25056:25074   */\n      add\n        /* \"#utility.yul\":25048:25074   */\n      swap1\n      pop\n        /* \"#utility.yul\":25120:25129   */\n      dup2\n        /* \"#utility.yul\":25114:25118   */\n      dup2\n        /* \"#utility.yul\":25110:25130   */\n      sub\n        /* \"#utility.yul\":25106:25107   */\n      0x00\n        /* \"#utility.yul\":25095:25104   */\n      dup4\n        /* \"#utility.yul\":25091:25108   */\n      add\n        /* \"#utility.yul\":25084:25131   */\n      mstore\n        /* \"#utility.yul\":25148:25279   */\n      tag_647\n        /* \"#utility.yul\":25274:25278   */\n      dup2\n        /* \"#utility.yul\":25148:25279   */\n      tag_530\n      jump\t// in\n    tag_647:\n        /* \"#utility.yul\":25140:25279   */\n      swap1\n      pop\n        /* \"#utility.yul\":24867:25286   */\n      swap2\n      swap1\n      pop\n      jump\t// out\n        /* \"#utility.yul\":25292:25711   */\n    tag_121:\n        /* \"#utility.yul\":25458:25462   */\n      0x00\n        /* \"#utility.yul\":25496:25498   */\n      0x20\n        /* \"#utility.yul\":25485:25494   */\n      dup3\n        /* \"#utility.yul\":25481:25499   */\n      add\n        /* \"#utility.yul\":25473:25499   */\n      swap1\n      pop\n        /* \"#utility.yul\":25545:25554   */\n      dup2\n        /* \"#utility.yul\":25539:25543   */\n      dup2\n        /* \"#utility.yul\":25535:25555   */\n      sub\n        /* \"#utility.yul\":25531:25532   */\n      0x00\n        /* \"#utility.yul\":25520:25529   */\n      dup4\n        /* \"#utility.yul\":25516:25533   */\n      add\n        /* \"#utility.yul\":25509:25556   */\n      mstore\n        /* \"#utility.yul\":25573:25704   */\n      tag_649\n        /* \"#utility.yul\":25699:25703   */\n      dup2\n        /* \"#utility.yul\":25573:25704   */\n      tag_535\n      jump\t// in\n    tag_649:\n        /* \"#utility.yul\":25565:25704   */\n      swap1\n      pop\n        /* \"#utility.yul\":25292:25711   */\n      swap2\n      swap1\n      pop\n      jump\t// out\n        /* \"#utility.yul\":25717:26136   */\n    tag_232:\n        /* \"#utility.yul\":25883:25887   */\n      0x00\n        /* \"#utility.yul\":25921:25923   */\n      0x20\n        /* \"#utility.yul\":25910:25919   */\n      dup3\n        /* \"#utility.yul\":25906:25924   */\n      add\n        /* \"#utility.yul\":25898:25924   */\n      swap1\n      pop\n        /* \"#utility.yul\":25970:25979   */\n      dup2\n        /* \"#utility.yul\":25964:25968   */\n      dup2\n        /* \"#utility.yul\":25960:25980   */\n      sub\n        /* \"#utility.yul\":25956:25957   */\n      0x00\n        /* \"#utility.yul\":25945:25954   */\n      dup4\n        /* \"#utility.yul\":25941:25958   */\n      add\n        /* \"#utility.yul\":25934:25981   */\n      mstore\n        /* \"#utility.yul\":25998:26129   */\n      tag_651\n        /* \"#utility.yul\":26124:26128   */\n      dup2\n        /* \"#utility.yul\":25998:26129   */\n      tag_540\n      jump\t// in\n    tag_651:\n        /* \"#utility.yul\":25990:26129   */\n      swap1\n      pop\n        /* \"#utility.yul\":25717:26136   */\n      swap2\n      swap1\n      pop\n      jump\t// out\n        /* \"#utility.yul\":26142:26561   */\n    tag_118:\n        /* \"#utility.yul\":26308:26312   */\n      0x00\n        /* \"#utility.yul\":26346:26348   */\n      0x20\n        /* \"#utility.yul\":26335:26344   */\n      dup3\n        /* \"#utility.yul\":26331:26349   */\n      add\n        /* \"#utility.yul\":26323:26349   */\n      swap1\n      pop\n        /* \"#utility.yul\":26395:26404   */\n      dup2\n        /* \"#utility.yul\":26389:26393   */\n      dup2\n        /* \"#utility.yul\":26385:26405   */\n      sub\n        /* \"#utility.yul\":26381:26382   */\n      0x00\n        /* \"#utility.yul\":26370:26379   */\n      dup4\n        /* \"#utility.yul\":26366:26383   */\n      add\n        /* \"#utility.yul\":26359:26406   */\n      mstore\n        /* \"#utility.yul\":26423:26554   */\n      tag_653\n        /* \"#utility.yul\":26549:26553   */\n      dup2\n        /* \"#utility.yul\":26423:26554   */\n      tag_545\n      jump\t// in\n    tag_653:\n        /* \"#utility.yul\":26415:26554   */\n      swap1\n      pop\n        /* \"#utility.yul\":26142:26561   */\n      swap2\n      swap1\n      pop\n      jump\t// out\n        /* \"#utility.yul\":26567:26986   */\n    tag_76:\n        /* \"#utility.yul\":26733:26737   */\n      0x00\n        /* \"#utility.yul\":26771:26773   */\n      0x20\n        /* \"#utility.yul\":26760:26769   */\n      dup3\n        /* \"#utility.yul\":26756:26774   */\n      add\n        /* \"#utility.yul\":26748:26774   */\n      swap1\n      pop\n        /* \"#utility.yul\":26820:26829   */\n      dup2\n        /* \"#utility.yul\":26814:26818   */\n      dup2\n        /* \"#utility.yul\":26810:26830   */\n      sub\n        /* \"#utility.yul\":26806:26807   */\n      0x00\n        /* \"#utility.yul\":26795:26804   */\n      dup4\n        /* \"#utility.yul\":26791:26808   */\n      add\n        /* \"#utility.yul\":26784:26831   */\n      mstore\n        /* \"#utility.yul\":26848:26979   */\n      tag_655\n        /* \"#utility.yul\":26974:26978   */\n      dup2\n        /* \"#utility.yul\":26848:26979   */\n      tag_550\n      jump\t// in\n    tag_655:\n        /* \"#utility.yul\":26840:26979   */\n      swap1\n      pop\n        /* \"#utility.yul\":26567:26986   */\n      swap2\n      swap1\n      pop\n      jump\t// out\n        /* \"#utility.yul\":26992:27411   */\n    tag_222:\n        /* \"#utility.yul\":27158:27162   */\n      0x00\n        /* \"#utility.yul\":27196:27198   */\n      0x20\n        /* \"#utility.yul\":27185:27194   */\n      dup3\n        /* \"#utility.yul\":27181:27199   */\n      add\n        /* \"#utility.yul\":27173:27199   */\n      swap1\n      pop\n        /* \"#utility.yul\":27245:27254   */\n      dup2\n        /* \"#utility.yul\":27239:27243   */\n      dup2\n        /* \"#utility.yul\":27235:27255   */\n      sub\n        /* \"#utility.yul\":27231:27232   */\n      0x00\n        /* \"#utility.yul\":27220:27229   */\n      dup4\n        /* \"#utility.yul\":27216:27233   */\n      add\n        /* \"#utility.yul\":27209:27256   */\n      mstore\n        /* \"#utility.yul\":27273:27404   */\n      tag_657\n        /* \"#utility.yul\":27399:27403   */\n      dup2\n        /* \"#utility.yul\":27273:27404   */\n      tag_555\n      jump\t// in\n    tag_657:\n        /* \"#utility.yul\":27265:27404   */\n      swap1\n      pop\n        /* \"#utility.yul\":26992:27411   */\n      swap2\n      swap1\n      pop\n      jump\t// out\n        /* \"#utility.yul\":27417:27836   */\n    tag_115:\n        /* \"#utility.yul\":27583:27587   */\n      0x00\n        /* \"#utility.yul\":27621:27623   */\n      0x20\n        /* \"#utility.yul\":27610:27619   */\n      dup3\n        /* \"#utility.yul\":27606:27624   */\n      add\n        /* \"#utility.yul\":27598:27624   */\n      swap1\n      pop\n        /* \"#utility.yul\":27670:27679   */\n      dup2\n        /* \"#utility.yul\":27664:27668   */\n      dup2\n        /* \"#utility.yul\":27660:27680   */\n      sub\n        /* \"#utility.yul\":27656:27657   */\n      0x00\n        /* \"#utility.yul\":27645:27654   */\n      dup4\n        /* \"#utility.yul\":27641:27658   */\n      add\n        /* \"#utility.yul\":27634:27681   */\n      mstore\n        /* \"#utility.yul\":27698:27829   */\n      tag_659\n        /* \"#utility.yul\":27824:27828   */\n      dup2\n        /* \"#utility.yul\":27698:27829   */\n      tag_560\n      jump\t// in\n    tag_659:\n        /* \"#utility.yul\":27690:27829   */\n      swap1\n      pop\n        /* \"#utility.yul\":27417:27836   */\n      swap2\n      swap1\n      pop\n      jump\t// out\n        /* \"#utility.yul\":27842:28261   */\n    tag_139:\n        /* \"#utility.yul\":28008:28012   */\n      0x00\n        /* \"#utility.yul\":28046:28048   */\n      0x20\n        /* \"#utility.yul\":28035:28044   */\n      dup3\n        /* \"#utility.yul\":28031:28049   */\n      add\n        /* \"#utility.yul\":28023:28049   */\n      swap1\n      pop\n        /* \"#utility.yul\":28095:28104   */\n      dup2\n        /* \"#utility.yul\":28089:28093   */\n      dup2\n        /* \"#utility.yul\":28085:28105   */\n      sub\n        /* \"#utility.yul\":28081:28082   */\n      0x00\n        /* \"#utility.yul\":28070:28079   */\n      dup4\n        /* \"#utility.yul\":28066:28083   */\n      add\n        /* \"#utility.yul\":28059:28106   */\n      mstore\n        /* \"#utility.yul\":28123:28254   */\n      tag_661\n        /* \"#utility.yul\":28249:28253   */\n      dup2\n        /* \"#utility.yul\":28123:28254   */\n      tag_565\n      jump\t// in\n    tag_661:\n        /* \"#utility.yul\":28115:28254   */\n      swap1\n      pop\n        /* \"#utility.yul\":27842:28261   */\n      swap2\n      swap1\n      pop\n      jump\t// out\n        /* \"#utility.yul\":28267:28686   */\n    tag_82:\n        /* \"#utility.yul\":28433:28437   */\n      0x00\n        /* \"#utility.yul\":28471:28473   */\n      0x20\n        /* \"#utility.yul\":28460:28469   */\n      dup3\n        /* \"#utility.yul\":28456:28474   */\n      add\n        /* \"#utility.yul\":28448:28474   */\n      swap1\n      pop\n        /* \"#utility.yul\":28520:28529   */\n      dup2\n        /* \"#utility.yul\":28514:28518   */\n      dup2\n        /* \"#utility.yul\":28510:28530   */\n      sub\n        /* \"#utility.yul\":28506:28507   */\n      0x00\n        /* \"#utility.yul\":28495:28504   */\n      dup4\n        /* \"#utility.yul\":28491:28508   */\n      add\n        /* \"#utility.yul\":28484:28531   */\n      mstore\n        /* \"#utility.yul\":28548:28679   */\n      tag_663\n        /* \"#utility.yul\":28674:28678   */\n      dup2\n        /* \"#utility.yul\":28548:28679   */\n      tag_570\n      jump\t// in\n    tag_663:\n        /* \"#utility.yul\":28540:28679   */\n      swap1\n      pop\n        /* \"#utility.yul\":28267:28686   */\n      swap2\n      swap1\n      pop\n      jump\t// out\n        /* \"#utility.yul\":28692:29111   */\n    tag_273:\n        /* \"#utility.yul\":28858:28862   */\n      0x00\n        /* \"#utility.yul\":28896:28898   */\n      0x20\n        /* \"#utility.yul\":28885:28894   */\n      dup3\n        /* \"#utility.yul\":28881:28899   */\n      add\n        /* \"#utility.yul\":28873:28899   */\n      swap1\n      pop\n        /* \"#utility.yul\":28945:28954   */\n      dup2\n        /* \"#utility.yul\":28939:28943   */\n      dup2\n        /* \"#utility.yul\":28935:28955   */\n      sub\n        /* \"#utility.yul\":28931:28932   */\n      0x00\n        /* \"#utility.yul\":28920:28929   */\n      dup4\n        /* \"#utility.yul\":28916:28933   */\n      add\n        /* \"#utility.yul\":28909:28956   */\n      mstore\n        /* \"#utility.yul\":28973:29104   */\n      tag_665\n        /* \"#utility.yul\":29099:29103   */\n      dup2\n        /* \"#utility.yul\":28973:29104   */\n      tag_575\n      jump\t// in\n    tag_665:\n        /* \"#utility.yul\":28965:29104   */\n      swap1\n      pop\n        /* \"#utility.yul\":28692:29111   */\n      swap2\n      swap1\n      pop\n      jump\t// out\n        /* \"#utility.yul\":29117:29536   */\n    tag_124:\n        /* \"#utility.yul\":29283:29287   */\n      0x00\n        /* \"#utility.yul\":29321:29323   */\n      0x20\n        /* \"#utility.yul\":29310:29319   */\n      dup3\n        /* \"#utility.yul\":29306:29324   */\n      add\n        /* \"#utility.yul\":29298:29324   */\n      swap1\n      pop\n        /* \"#utility.yul\":29370:29379   */\n      dup2\n        /* \"#utility.yul\":29364:29368   */\n      dup2\n        /* \"#utility.yul\":29360:29380   */\n      sub\n        /* \"#utility.yul\":29356:29357   */\n      0x00\n        /* \"#utility.yul\":29345:29354   */\n      dup4\n        /* \"#utility.yul\":29341:29358   */\n      add\n        /* \"#utility.yul\":29334:29381   */\n      mstore\n        /* \"#utility.yul\":29398:29529   */\n      tag_667\n        /* \"#utility.yul\":29524:29528   */\n      dup2\n        /* \"#utility.yul\":29398:29529   */\n      tag_580\n      jump\t// in\n    tag_667:\n        /* \"#utility.yul\":29390:29529   */\n      swap1\n      pop\n        /* \"#utility.yul\":29117:29536   */\n      swap2\n      swap1\n      pop\n      jump\t// out\n        /* \"#utility.yul\":29542:30181   */\n    tag_106:\n        /* \"#utility.yul\":29764:29768   */\n      0x00\n        /* \"#utility.yul\":29802:29804   */\n      0x60\n        /* \"#utility.yul\":29791:29800   */\n      dup3\n        /* \"#utility.yul\":29787:29805   */\n      add\n        /* \"#utility.yul\":29779:29805   */\n      swap1\n      pop\n        /* \"#utility.yul\":29851:29860   */\n      dup2\n        /* \"#utility.yul\":29845:29849   */\n      dup2\n        /* \"#utility.yul\":29841:29861   */\n      sub\n        /* \"#utility.yul\":29837:29838   */\n      0x00\n        /* \"#utility.yul\":29826:29835   */\n      dup4\n        /* \"#utility.yul\":29822:29839   */\n      add\n        /* \"#utility.yul\":29815:29862   */\n      mstore\n        /* \"#utility.yul\":29879:30010   */\n      tag_669\n        /* \"#utility.yul\":30005:30009   */\n      dup2\n        /* \"#utility.yul\":29879:30010   */\n      tag_585\n      jump\t// in\n    tag_669:\n        /* \"#utility.yul\":29871:30010   */\n      swap1\n      pop\n        /* \"#utility.yul\":30020:30092   */\n      tag_670\n        /* \"#utility.yul\":30088:30090   */\n      0x20\n        /* \"#utility.yul\":30077:30086   */\n      dup4\n        /* \"#utility.yul\":30073:30091   */\n      add\n        /* \"#utility.yul\":30064:30070   */\n      dup6\n        /* \"#utility.yul\":30020:30092   */\n      tag_448\n      jump\t// in\n    tag_670:\n        /* \"#utility.yul\":30102:30174   */\n      tag_671\n        /* \"#utility.yul\":30170:30172   */\n      0x40\n        /* \"#utility.yul\":30159:30168   */\n      dup4\n        /* \"#utility.yul\":30155:30173   */\n      add\n        /* \"#utility.yul\":30146:30152   */\n      dup5\n        /* \"#utility.yul\":30102:30174   */\n      tag_618\n      jump\t// in\n    tag_671:\n        /* \"#utility.yul\":29542:30181   */\n      swap4\n      swap3\n      pop\n      pop\n      pop\n      jump\t// out\n        /* \"#utility.yul\":30187:30606   */\n    tag_253:\n        /* \"#utility.yul\":30353:30357   */\n      0x00\n        /* \"#utility.yul\":30391:30393   */\n      0x20\n        /* \"#utility.yul\":30380:30389   */\n      dup3\n        /* \"#utility.yul\":30376:30394   */\n      add\n        /* \"#utility.yul\":30368:30394   */\n      swap1\n      pop\n        /* \"#utility.yul\":30440:30449   */\n      dup2\n        /* \"#utility.yul\":30434:30438   */\n      dup2\n        /* \"#utility.yul\":30430:30450   */\n      sub\n        /* \"#utility.yul\":30426:30427   */\n      0x00\n        /* \"#utility.yul\":30415:30424   */\n      dup4\n        /* \"#utility.yul\":30411:30428   */\n      add\n        /* \"#utility.yul\":30404:30451   */\n      mstore\n        /* \"#utility.yul\":30468:30599   */\n      tag_673\n        /* \"#utility.yul\":30594:30598   */\n      dup2\n        /* \"#utility.yul\":30468:30599   */\n      tag_590\n      jump\t// in\n    tag_673:\n        /* \"#utility.yul\":30460:30599   */\n      swap1\n      pop\n        /* \"#utility.yul\":30187:30606   */\n      swap2\n      swap1\n      pop\n      jump\t// out\n        /* \"#utility.yul\":30612:31251   */\n    tag_150:\n        /* \"#utility.yul\":30834:30838   */\n      0x00\n        /* \"#utility.yul\":30872:30874   */\n      0x60\n        /* \"#utility.yul\":30861:30870   */\n      dup3\n        /* \"#utility.yul\":30857:30875   */\n      add\n        /* \"#utility.yul\":30849:30875   */\n      swap1\n      pop\n        /* \"#utility.yul\":30921:30930   */\n      dup2\n        /* \"#utility.yul\":30915:30919   */\n      dup2\n        /* \"#utility.yul\":30911:30931   */\n      sub\n        /* \"#utility.yul\":30907:30908   */\n      0x00\n        /* \"#utility.yul\":30896:30905   */\n      dup4\n        /* \"#utility.yul\":30892:30909   */\n      add\n        /* \"#utility.yul\":30885:30932   */\n      mstore\n        /* \"#utility.yul\":30949:31080   */\n      tag_675\n        /* \"#utility.yul\":31075:31079   */\n      dup2\n        /* \"#utility.yul\":30949:31080   */\n      tag_595\n      jump\t// in\n    tag_675:\n        /* \"#utility.yul\":30941:31080   */\n      swap1\n      pop\n        /* \"#utility.yul\":31090:31162   */\n      tag_676\n        /* \"#utility.yul\":31158:31160   */\n      0x20\n        /* \"#utility.yul\":31147:31156   */\n      dup4\n        /* \"#utility.yul\":31143:31161   */\n      add\n        /* \"#utility.yul\":31134:31140   */\n      dup6\n        /* \"#utility.yul\":31090:31162   */\n      tag_448\n      jump\t// in\n    tag_676:\n        /* \"#utility.yul\":31172:31244   */\n      tag_677\n        /* \"#utility.yul\":31240:31242   */\n      0x40\n        /* \"#utility.yul\":31229:31238   */\n      dup4\n        /* \"#utility.yul\":31225:31243   */\n      add\n        /* \"#utility.yul\":31216:31222   */\n      dup5\n        /* \"#utility.yul\":31172:31244   */\n      tag_618\n      jump\t// in\n    tag_677:\n        /* \"#utility.yul\":30612:31251   */\n      swap4\n      swap3\n      pop\n      pop\n      pop\n      jump\t// out\n        /* \"#utility.yul\":31257:31676   */\n    tag_256:\n        /* \"#utility.yul\":31423:31427   */\n      0x00\n        /* \"#utility.yul\":31461:31463   */\n      0x20\n        /* \"#utility.yul\":31450:31459   */\n      dup3\n        /* \"#utility.yul\":31446:31464   */\n      add\n        /* \"#utility.yul\":31438:31464   */\n      swap1\n      pop\n        /* \"#utility.yul\":31510:31519   */\n      dup2\n        /* \"#utility.yul\":31504:31508   */\n      dup2\n        /* \"#utility.yul\":31500:31520   */\n      sub\n        /* \"#utility.yul\":31496:31497   */\n      0x00\n        /* \"#utility.yul\":31485:31494   */\n      dup4\n        /* \"#utility.yul\":31481:31498   */\n      add\n        /* \"#utility.yul\":31474:31521   */\n      mstore\n        /* \"#utility.yul\":31538:31669   */\n      tag_679\n        /* \"#utility.yul\":31664:31668   */\n      dup2\n        /* \"#utility.yul\":31538:31669   */\n      tag_600\n      jump\t// in\n    tag_679:\n        /* \"#utility.yul\":31530:31669   */\n      swap1\n      pop\n        /* \"#utility.yul\":31257:31676   */\n      swap2\n      swap1\n      pop\n      jump\t// out\n        /* \"#utility.yul\":31682:32101   */\n    tag_266:\n        /* \"#utility.yul\":31848:31852   */\n      0x00\n        /* \"#utility.yul\":31886:31888   */\n      0x20\n        /* \"#utility.yul\":31875:31884   */\n      dup3\n        /* \"#utility.yul\":31871:31889   */\n      add\n        /* \"#utility.yul\":31863:31889   */\n      swap1\n      pop\n        /* \"#utility.yul\":31935:31944   */\n      dup2\n        /* \"#utility.yul\":31929:31933   */\n      dup2\n        /* \"#utility.yul\":31925:31945   */\n      sub\n        /* \"#utility.yul\":31921:31922   */\n      0x00\n        /* \"#utility.yul\":31910:31919   */\n      dup4\n        /* \"#utility.yul\":31906:31923   */\n      add\n        /* \"#utility.yul\":31899:31946   */\n      mstore\n        /* \"#utility.yul\":31963:32094   */\n      tag_681\n        /* \"#utility.yul\":32089:32093   */\n      dup2\n        /* \"#utility.yul\":31963:32094   */\n      tag_605\n      jump\t// in\n    tag_681:\n        /* \"#utility.yul\":31955:32094   */\n      swap1\n      pop\n        /* \"#utility.yul\":31682:32101   */\n      swap2\n      swap1\n      pop\n      jump\t// out\n        /* \"#utility.yul\":32107:32439   */\n    tag_58:\n        /* \"#utility.yul\":32228:32232   */\n      0x00\n        /* \"#utility.yul\":32266:32268   */\n      0x40\n        /* \"#utility.yul\":32255:32264   */\n      dup3\n        /* \"#utility.yul\":32251:32269   */\n      add\n        /* \"#utility.yul\":32243:32269   */\n      swap1\n      pop\n        /* \"#utility.yul\":32279:32350   */\n      tag_683\n        /* \"#utility.yul\":32347:32348   */\n      0x00\n        /* \"#utility.yul\":32336:32345   */\n      dup4\n        /* \"#utility.yul\":32332:32349   */\n      add\n        /* \"#utility.yul\":32323:32329   */\n      dup6\n        /* \"#utility.yul\":32279:32350   */\n      tag_610\n      jump\t// in\n    tag_683:\n        /* \"#utility.yul\":32360:32432   */\n      tag_684\n        /* \"#utility.yul\":32428:32430   */\n      0x20\n        /* \"#utility.yul\":32417:32426   */\n      dup4\n        /* \"#utility.yul\":32413:32431   */\n      add\n        /* \"#utility.yul\":32404:32410   */\n      dup5\n        /* \"#utility.yul\":32360:32432   */\n      tag_610\n      jump\t// in\n    tag_684:\n        /* \"#utility.yul\":32107:32439   */\n      swap4\n      swap3\n      pop\n      pop\n      pop\n      jump\t// out\n        /* \"#utility.yul\":32445:32667   */\n    tag_27:\n        /* \"#utility.yul\":32538:32542   */\n      0x00\n        /* \"#utility.yul\":32576:32578   */\n      0x20\n        /* \"#utility.yul\":32565:32574   */\n      dup3\n        /* \"#utility.yul\":32561:32579   */\n      add\n        /* \"#utility.yul\":32553:32579   */\n      swap1\n      pop\n        /* \"#utility.yul\":32589:32660   */\n      tag_686\n        /* \"#utility.yul\":32657:32658   */\n      0x00\n        /* \"#utility.yul\":32646:32655   */\n      dup4\n        /* \"#utility.yul\":32642:32659   */\n      add\n        /* \"#utility.yul\":32633:32639   */\n      dup5\n        /* \"#utility.yul\":32589:32660   */\n      tag_618\n      jump\t// in\n    tag_686:\n        /* \"#utility.yul\":32445:32667   */\n      swap3\n      swap2\n      pop\n      pop\n      jump\t// out\n        /* \"#utility.yul\":32673:33214   */\n    tag_53:\n        /* \"#utility.yul\":32844:32848   */\n      0x00\n        /* \"#utility.yul\":32882:32885   */\n      0x80\n        /* \"#utility.yul\":32871:32880   */\n      dup3\n        /* \"#utility.yul\":32867:32886   */\n      add\n        /* \"#utility.yul\":32859:32886   */\n      swap1\n      pop\n        /* \"#utility.yul\":32896:32967   */\n      tag_688\n        /* \"#utility.yul\":32964:32965   */\n      0x00\n        /* \"#utility.yul\":32953:32962   */\n      dup4\n        /* \"#utility.yul\":32949:32966   */\n      add\n        /* \"#utility.yul\":32940:32946   */\n      dup8\n        /* \"#utility.yul\":32896:32967   */\n      tag_618\n      jump\t// in\n    tag_688:\n        /* \"#utility.yul\":32977:33049   */\n      tag_689\n        /* \"#utility.yul\":33045:33047   */\n      0x20\n        /* \"#utility.yul\":33034:33043   */\n      dup4\n        /* \"#utility.yul\":33030:33048   */\n      add\n        /* \"#utility.yul\":33021:33027   */\n      dup7\n        /* \"#utility.yul\":32977:33049   */\n      tag_448\n      jump\t// in\n    tag_689:\n        /* \"#utility.yul\":33059:33125   */\n      tag_690\n        /* \"#utility.yul\":33121:33123   */\n      0x40\n        /* \"#utility.yul\":33110:33119   */\n      dup4\n        /* \"#utility.yul\":33106:33124   */\n      add\n        /* \"#utility.yul\":33097:33103   */\n      dup6\n        /* \"#utility.yul\":33059:33125   */\n      tag_479\n      jump\t// in\n    tag_690:\n        /* \"#utility.yul\":33135:33207   */\n      tag_691\n        /* \"#utility.yul\":33203:33205   */\n      0x60\n        /* \"#utility.yul\":33192:33201   */\n      dup4\n        /* \"#utility.yul\":33188:33206   */\n      add\n        /* \"#utility.yul\":33179:33185   */\n      dup5\n        /* \"#utility.yul\":33135:33207   */\n      tag_618\n      jump\t// in\n    tag_691:\n        /* \"#utility.yul\":32673:33214   */\n      swap6\n      swap5\n      pop\n      pop\n      pop\n      pop\n      pop\n      jump\t// out\n        /* \"#utility.yul\":33220:34563   */\n    tag_88:\n        /* \"#utility.yul\":33633:33637   */\n      0x00\n        /* \"#utility.yul\":33671:33674   */\n      0xe0\n        /* \"#utility.yul\":33660:33669   */\n      dup3\n        /* \"#utility.yul\":33656:33675   */\n      add\n        /* \"#utility.yul\":33648:33675   */\n      swap1\n      pop\n        /* \"#utility.yul\":33685:33756   */\n      tag_693\n        /* \"#utility.yul\":33753:33754   */\n      0x00\n        /* \"#utility.yul\":33742:33751   */\n      dup4\n        /* \"#utility.yul\":33738:33755   */\n      add\n        /* \"#utility.yul\":33729:33735   */\n      dup12\n        /* \"#utility.yul\":33685:33756   */\n      tag_618\n      jump\t// in\n    tag_693:\n        /* \"#utility.yul\":33803:33812   */\n      dup2\n        /* \"#utility.yul\":33797:33801   */\n      dup2\n        /* \"#utility.yul\":33793:33813   */\n      sub\n        /* \"#utility.yul\":33788:33790   */\n      0x20\n        /* \"#utility.yul\":33777:33786   */\n      dup4\n        /* \"#utility.yul\":33773:33791   */\n      add\n        /* \"#utility.yul\":33766:33814   */\n      mstore\n        /* \"#utility.yul\":33831:33939   */\n      tag_694\n        /* \"#utility.yul\":33934:33938   */\n      dup2\n        /* \"#utility.yul\":33925:33931   */\n      dup11\n        /* \"#utility.yul\":33831:33939   */\n      tag_451\n      jump\t// in\n    tag_694:\n        /* \"#utility.yul\":33823:33939   */\n      swap1\n      pop\n        /* \"#utility.yul\":33949:34021   */\n      tag_695\n        /* \"#utility.yul\":34017:34019   */\n      0x40\n        /* \"#utility.yul\":34006:34015   */\n      dup4\n        /* \"#utility.yul\":34002:34020   */\n      add\n        /* \"#utility.yul\":33993:33999   */\n      dup10\n        /* \"#utility.yul\":33949:34021   */\n      tag_448\n      jump\t// in\n    tag_695:\n        /* \"#utility.yul\":34031:34103   */\n      tag_696\n        /* \"#utility.yul\":34099:34101   */\n      0x60\n        /* \"#utility.yul\":34088:34097   */\n      dup4\n        /* \"#utility.yul\":34084:34102   */\n      add\n        /* \"#utility.yul\":34075:34081   */\n      dup9\n        /* \"#utility.yul\":34031:34103   */\n      tag_618\n      jump\t// in\n    tag_696:\n        /* \"#utility.yul\":34113:34186   */\n      tag_697\n        /* \"#utility.yul\":34181:34184   */\n      0x80\n        /* \"#utility.yul\":34170:34179   */\n      dup4\n        /* \"#utility.yul\":34166:34185   */\n      add\n        /* \"#utility.yul\":34157:34163   */\n      dup8\n        /* \"#utility.yul\":34113:34186   */\n      tag_618\n      jump\t// in\n    tag_697:\n        /* \"#utility.yul\":34234:34243   */\n      dup2\n        /* \"#utility.yul\":34228:34232   */\n      dup2\n        /* \"#utility.yul\":34224:34244   */\n      sub\n        /* \"#utility.yul\":34218:34221   */\n      0xa0\n        /* \"#utility.yul\":34207:34216   */\n      dup4\n        /* \"#utility.yul\":34203:34222   */\n      add\n        /* \"#utility.yul\":34196:34245   */\n      mstore\n        /* \"#utility.yul\":34262:34340   */\n      tag_698\n        /* \"#utility.yul\":34335:34339   */\n      dup2\n        /* \"#utility.yul\":34326:34332   */\n      dup7\n        /* \"#utility.yul\":34262:34340   */\n      tag_494\n      jump\t// in\n    tag_698:\n        /* \"#utility.yul\":34254:34340   */\n      swap1\n      pop\n        /* \"#utility.yul\":34388:34397   */\n      dup2\n        /* \"#utility.yul\":34382:34386   */\n      dup2\n        /* \"#utility.yul\":34378:34398   */\n      sub\n        /* \"#utility.yul\":34372:34375   */\n      0xc0\n        /* \"#utility.yul\":34361:34370   */\n      dup4\n        /* \"#utility.yul\":34357:34376   */\n      add\n        /* \"#utility.yul\":34350:34399   */\n      mstore\n        /* \"#utility.yul\":34416:34556   */\n      tag_699\n        /* \"#utility.yul\":34551:34555   */\n      dup2\n        /* \"#utility.yul\":34542:34548   */\n      dup5\n        /* \"#utility.yul\":34534:34540   */\n      dup7\n        /* \"#utility.yul\":34416:34556   */\n      tag_465\n      jump\t// in\n    tag_699:\n        /* \"#utility.yul\":34408:34556   */\n      swap1\n      pop\n        /* \"#utility.yul\":33220:34563   */\n      swap10\n      swap9\n      pop\n      pop\n      pop\n      pop\n      pop\n      pop\n      pop\n      pop\n      pop\n      jump\t// out\n        /* \"#utility.yul\":34569:34783   */\n    tag_31:\n        /* \"#utility.yul\":34658:34662   */\n      0x00\n        /* \"#utility.yul\":34696:34698   */\n      0x20\n        /* \"#utility.yul\":34685:34694   */\n      dup3\n        /* \"#utility.yul\":34681:34699   */\n      add\n        /* \"#utility.yul\":34673:34699   */\n      swap1\n      pop\n        /* \"#utility.yul\":34709:34776   */\n      tag_701\n        /* \"#utility.yul\":34773:34774   */\n      0x00\n        /* \"#utility.yul\":34762:34771   */\n      dup4\n        /* \"#utility.yul\":34758:34775   */\n      add\n        /* \"#utility.yul\":34749:34755   */\n      dup5\n        /* \"#utility.yul\":34709:34776   */\n      tag_622\n      jump\t// in\n    tag_701:\n        /* \"#utility.yul\":34569:34783   */\n      swap3\n      swap2\n      pop\n      pop\n      jump\t// out\n        /* \"#utility.yul\":34789:35514   */\n    tag_167:\n        /* \"#utility.yul\":34867:34871   */\n      0x00\n        /* \"#utility.yul\":34873:34879   */\n      dup1\n        /* \"#utility.yul\":34929:34940   */\n      dup4\n        /* \"#utility.yul\":34916:34941   */\n      calldataload\n        /* \"#utility.yul\":35029:35030   */\n      0x01\n        /* \"#utility.yul\":35023:35027   */\n      0x20\n        /* \"#utility.yul\":35019:35031   */\n      sub\n        /* \"#utility.yul\":35008:35016   */\n      dup5\n        /* \"#utility.yul\":34992:35006   */\n      calldatasize\n        /* \"#utility.yul\":34988:35017   */\n      sub\n        /* \"#utility.yul\":34984:35032   */\n      sub\n        /* \"#utility.yul\":34964:34982   */\n      dup2\n        /* \"#utility.yul\":34960:35033   */\n      slt\n        /* \"#utility.yul\":34950:35118   */\n      tag_703\n      jumpi\n        /* \"#utility.yul\":35037:35116   */\n      tag_704\n      tag_705\n      jump\t// in\n    tag_704:\n        /* \"#utility.yul\":34950:35118   */\n    tag_703:\n        /* \"#utility.yul\":35149:35167   */\n      dup1\n        /* \"#utility.yul\":35139:35147   */\n      dup5\n        /* \"#utility.yul\":35135:35168   */\n      add\n        /* \"#utility.yul\":35127:35168   */\n      swap3\n      pop\n        /* \"#utility.yul\":35201:35205   */\n      dup3\n        /* \"#utility.yul\":35188:35206   */\n      calldataload\n        /* \"#utility.yul\":35178:35206   */\n      swap2\n      pop\n        /* \"#utility.yul\":35229:35247   */\n      0xffffffffffffffff\n        /* \"#utility.yul\":35221:35227   */\n      dup3\n        /* \"#utility.yul\":35218:35248   */\n      gt\n        /* \"#utility.yul\":35215:35332   */\n      iszero\n      tag_706\n      jumpi\n        /* \"#utility.yul\":35251:35330   */\n      tag_707\n      tag_708\n      jump\t// in\n    tag_707:\n        /* \"#utility.yul\":35215:35332   */\n    tag_706:\n        /* \"#utility.yul\":35359:35361   */\n      0x20\n        /* \"#utility.yul\":35353:35357   */\n      dup4\n        /* \"#utility.yul\":35349:35362   */\n      add\n        /* \"#utility.yul\":35341:35362   */\n      swap3\n      pop\n        /* \"#utility.yul\":35416:35420   */\n      0x01\n        /* \"#utility.yul\":35408:35414   */\n      dup3\n        /* \"#utility.yul\":35404:35421   */\n      mul\n        /* \"#utility.yul\":35388:35402   */\n      calldatasize\n        /* \"#utility.yul\":35384:35422   */\n      sub\n        /* \"#utility.yul\":35378:35382   */\n      dup4\n        /* \"#utility.yul\":35374:35423   */\n      sgt\n        /* \"#utility.yul\":35371:35507   */\n      iszero\n      tag_709\n      jumpi\n        /* \"#utility.yul\":35426:35505   */\n      tag_710\n      tag_711\n      jump\t// in\n    tag_710:\n        /* \"#utility.yul\":35371:35507   */\n    tag_709:\n        /* \"#utility.yul\":34880:35514   */\n      pop\n        /* \"#utility.yul\":34789:35514   */\n      swap3\n      pop\n      swap3\n      swap1\n      pop\n      jump\t// out\n        /* \"#utility.yul\":35520:35649   */\n    tag_310:\n        /* \"#utility.yul\":35554:35560   */\n      0x00\n        /* \"#utility.yul\":35581:35601   */\n      tag_713\n      tag_714\n      jump\t// in\n    tag_713:\n        /* \"#utility.yul\":35571:35601   */\n      swap1\n      pop\n        /* \"#utility.yul\":35610:35643   */\n      tag_715\n        /* \"#utility.yul\":35638:35642   */\n      dup3\n        /* \"#utility.yul\":35630:35636   */\n      dup3\n        /* \"#utility.yul\":35610:35643   */\n      tag_716\n      jump\t// in\n    tag_715:\n        /* \"#utility.yul\":35520:35649   */\n      swap2\n      swap1\n      pop\n      jump\t// out\n        /* \"#utility.yul\":35655:35730   */\n    tag_714:\n        /* \"#utility.yul\":35688:35694   */\n      0x00\n        /* \"#utility.yul\":35721:35723   */\n      0x40\n        /* \"#utility.yul\":35715:35724   */\n      mload\n        /* \"#utility.yul\":35705:35724   */\n      swap1\n      pop\n        /* \"#utility.yul\":35655:35730   */\n      swap1\n      jump\t// out\n        /* \"#utility.yul\":35736:36047   */\n    tag_309:\n        /* \"#utility.yul\":35813:35817   */\n      0x00\n        /* \"#utility.yul\":35903:35921   */\n      0xffffffffffffffff\n        /* \"#utility.yul\":35895:35901   */\n      dup3\n        /* \"#utility.yul\":35892:35922   */\n      gt\n        /* \"#utility.yul\":35889:35945   */\n      iszero\n      tag_719\n      jumpi\n        /* \"#utility.yul\":35925:35943   */\n      tag_720\n      tag_721\n      jump\t// in\n    tag_720:\n        /* \"#utility.yul\":35889:35945   */\n    tag_719:\n        /* \"#utility.yul\":35975:35979   */\n      0x20\n        /* \"#utility.yul\":35967:35973   */\n      dup3\n        /* \"#utility.yul\":35963:35980   */\n      mul\n        /* \"#utility.yul\":35955:35980   */\n      swap1\n      pop\n        /* \"#utility.yul\":36035:36039   */\n      0x20\n        /* \"#utility.yul\":36029:36033   */\n      dup2\n        /* \"#utility.yul\":36025:36040   */\n      add\n        /* \"#utility.yul\":36017:36040   */\n      swap1\n      pop\n        /* \"#utility.yul\":35736:36047   */\n      swap2\n      swap1\n      pop\n      jump\t// out\n        /* \"#utility.yul\":36053:36374   */\n    tag_323:\n        /* \"#utility.yul\":36140:36144   */\n      0x00\n        /* \"#utility.yul\":36230:36248   */\n      0xffffffffffffffff\n        /* \"#utility.yul\":36222:36228   */\n      dup3\n        /* \"#utility.yul\":36219:36249   */\n      gt\n        /* \"#utility.yul\":36216:36272   */\n      iszero\n      tag_723\n      jumpi\n        /* \"#utility.yul\":36252:36270   */\n      tag_724\n      tag_721\n      jump\t// in\n    tag_724:\n        /* \"#utility.yul\":36216:36272   */\n    tag_723:\n        /* \"#utility.yul\":36302:36306   */\n      0x20\n        /* \"#utility.yul\":36294:36300   */\n      dup3\n        /* \"#utility.yul\":36290:36307   */\n      mul\n        /* \"#utility.yul\":36282:36307   */\n      swap1\n      pop\n        /* \"#utility.yul\":36362:36366   */\n      0x20\n        /* \"#utility.yul\":36356:36360   */\n      dup2\n        /* \"#utility.yul\":36352:36367   */\n      add\n        /* \"#utility.yul\":36344:36367   */\n      swap1\n      pop\n        /* \"#utility.yul\":36053:36374   */\n      swap2\n      swap1\n      pop\n      jump\t// out\n        /* \"#utility.yul\":36380:36691   */\n    tag_338:\n        /* \"#utility.yul\":36457:36461   */\n      0x00\n        /* \"#utility.yul\":36547:36565   */\n      0xffffffffffffffff\n        /* \"#utility.yul\":36539:36545   */\n      dup3\n        /* \"#utility.yul\":36536:36566   */\n      gt\n        /* \"#utility.yul\":36533:36589   */\n      iszero\n      tag_726\n      jumpi\n        /* \"#utility.yul\":36569:36587   */\n      tag_727\n      tag_721\n      jump\t// in\n    tag_727:\n        /* \"#utility.yul\":36533:36589   */\n    tag_726:\n        /* \"#utility.yul\":36619:36623   */\n      0x20\n        /* \"#utility.yul\":36611:36617   */\n      dup3\n        /* \"#utility.yul\":36607:36624   */\n      mul\n        /* \"#utility.yul\":36599:36624   */\n      swap1\n      pop\n        /* \"#utility.yul\":36679:36683   */\n      0x20\n        /* \"#utility.yul\":36673:36677   */\n      dup2\n        /* \"#utility.yul\":36669:36684   */\n      add\n        /* \"#utility.yul\":36661:36684   */\n      swap1\n      pop\n        /* \"#utility.yul\":36380:36691   */\n      swap2\n      swap1\n      pop\n      jump\t// out\n        /* \"#utility.yul\":36697:37005   */\n    tag_350:\n        /* \"#utility.yul\":36759:36763   */\n      0x00\n        /* \"#utility.yul\":36849:36867   */\n      0xffffffffffffffff\n        /* \"#utility.yul\":36841:36847   */\n      dup3\n        /* \"#utility.yul\":36838:36868   */\n      gt\n        /* \"#utility.yul\":36835:36891   */\n      iszero\n      tag_729\n      jumpi\n        /* \"#utility.yul\":36871:36889   */\n      tag_730\n      tag_721\n      jump\t// in\n    tag_730:\n        /* \"#utility.yul\":36835:36891   */\n    tag_729:\n        /* \"#utility.yul\":36909:36938   */\n      tag_731\n        /* \"#utility.yul\":36931:36937   */\n      dup3\n        /* \"#utility.yul\":36909:36938   */\n      tag_488\n      jump\t// in\n    tag_731:\n        /* \"#utility.yul\":36901:36938   */\n      swap1\n      pop\n        /* \"#utility.yul\":36993:36997   */\n      0x20\n        /* \"#utility.yul\":36987:36991   */\n      dup2\n        /* \"#utility.yul\":36983:36998   */\n      add\n        /* \"#utility.yul\":36975:36998   */\n      swap1\n      pop\n        /* \"#utility.yul\":36697:37005   */\n      swap2\n      swap1\n      pop\n      jump\t// out\n        /* \"#utility.yul\":37011:37143   */\n    tag_458:\n        /* \"#utility.yul\":37078:37082   */\n      0x00\n        /* \"#utility.yul\":37101:37104   */\n      dup2\n        /* \"#utility.yul\":37093:37104   */\n      swap1\n      pop\n        /* \"#utility.yul\":37131:37135   */\n      0x20\n        /* \"#utility.yul\":37126:37129   */\n      dup3\n        /* \"#utility.yul\":37122:37136   */\n      add\n        /* \"#utility.yul\":37114:37136   */\n      swap1\n      pop\n        /* \"#utility.yul\":37011:37143   */\n      swap2\n      swap1\n      pop\n      jump\t// out\n        /* \"#utility.yul\":37149:37263   */\n    tag_470:\n        /* \"#utility.yul\":37230:37234   */\n      0x00\n        /* \"#utility.yul\":37253:37256   */\n      dup2\n        /* \"#utility.yul\":37245:37256   */\n      swap1\n      pop\n        /* \"#utility.yul\":37149:37263   */\n      swap2\n      swap1\n      pop\n      jump\t// out\n        /* \"#utility.yul\":37269:37410   */\n    tag_516:\n        /* \"#utility.yul\":37318:37322   */\n      0x00\n        /* \"#utility.yul\":37341:37344   */\n      dup2\n        /* \"#utility.yul\":37333:37344   */\n      swap1\n      pop\n        /* \"#utility.yul\":37364:37367   */\n      dup2\n        /* \"#utility.yul\":37361:37362   */\n      0x00\n        /* \"#utility.yul\":37354:37368   */\n      mstore\n        /* \"#utility.yul\":37398:37402   */\n      0x20\n        /* \"#utility.yul\":37395:37396   */\n      0x00\n        /* \"#utility.yul\":37385:37403   */\n      keccak256\n        /* \"#utility.yul\":37377:37403   */\n      swap1\n      pop\n        /* \"#utility.yul\":37269:37410   */\n      swap2\n      swap1\n      pop\n      jump\t// out\n        /* \"#utility.yul\":37416:37530   */\n    tag_454:\n        /* \"#utility.yul\":37483:37489   */\n      0x00\n        /* \"#utility.yul\":37517:37522   */\n      dup2\n        /* \"#utility.yul\":37511:37523   */\n      mload\n        /* \"#utility.yul\":37501:37523   */\n      swap1\n      pop\n        /* \"#utility.yul\":37416:37530   */\n      swap2\n      swap1\n      pop\n      jump\t// out\n        /* \"#utility.yul\":37536:37635   */\n    tag_497:\n        /* \"#utility.yul\":37588:37594   */\n      0x00\n        /* \"#utility.yul\":37622:37627   */\n      dup2\n        /* \"#utility.yul\":37616:37628   */\n      mload\n        /* \"#utility.yul\":37606:37628   */\n      swap1\n      pop\n        /* \"#utility.yul\":37536:37635   */\n      swap2\n      swap1\n      pop\n      jump\t// out\n        /* \"#utility.yul\":37641:37754   */\n    tag_464:\n        /* \"#utility.yul\":37711:37715   */\n      0x00\n        /* \"#utility.yul\":37743:37747   */\n      0x20\n        /* \"#utility.yul\":37738:37741   */\n      dup3\n        /* \"#utility.yul\":37734:37748   */\n      add\n        /* \"#utility.yul\":37726:37748   */\n      swap1\n      pop\n        /* \"#utility.yul\":37641:37754   */\n      swap2\n      swap1\n      pop\n      jump\t// out\n        /* \"#utility.yul\":37760:37887   */\n    tag_478:\n        /* \"#utility.yul\":37844:37848   */\n      0x00\n        /* \"#utility.yul\":37876:37880   */\n      0x20\n        /* \"#utility.yul\":37871:37874   */\n      dup3\n        /* \"#utility.yul\":37867:37881   */\n      add\n        /* \"#utility.yul\":37859:37881   */\n      swap1\n      pop\n        /* \"#utility.yul\":37760:37887   */\n      swap2\n      swap1\n      pop\n      jump\t// out\n        /* \"#utility.yul\":37893:38077   */\n    tag_456:\n        /* \"#utility.yul\":37992:38003   */\n      0x00\n        /* \"#utility.yul\":38026:38032   */\n      dup3\n        /* \"#utility.yul\":38021:38024   */\n      dup3\n        /* \"#utility.yul\":38014:38033   */\n      mstore\n        /* \"#utility.yul\":38066:38070   */\n      0x20\n        /* \"#utility.yul\":38061:38064   */\n      dup3\n        /* \"#utility.yul\":38057:38071   */\n      add\n        /* \"#utility.yul\":38042:38071   */\n      swap1\n      pop\n        /* \"#utility.yul\":37893:38077   */\n      swap3\n      swap2\n      pop\n      pop\n      jump\t// out\n        /* \"#utility.yul\":38083:38277   */\n    tag_468:\n        /* \"#utility.yul\":38192:38203   */\n      0x00\n        /* \"#utility.yul\":38226:38232   */\n      dup3\n        /* \"#utility.yul\":38221:38224   */\n      dup3\n        /* \"#utility.yul\":38214:38233   */\n      mstore\n        /* \"#utility.yul\":38266:38270   */\n      0x20\n        /* \"#utility.yul\":38261:38264   */\n      dup3\n        /* \"#utility.yul\":38257:38271   */\n      add\n        /* \"#utility.yul\":38242:38271   */\n      swap1\n      pop\n        /* \"#utility.yul\":38083:38277   */\n      swap3\n      swap2\n      pop\n      pop\n      jump\t// out\n        /* \"#utility.yul\":38283:38442   */\n    tag_485:\n        /* \"#utility.yul\":38357:38368   */\n      0x00\n        /* \"#utility.yul\":38391:38397   */\n      dup3\n        /* \"#utility.yul\":38386:38389   */\n      dup3\n        /* \"#utility.yul\":38379:38398   */\n      mstore\n        /* \"#utility.yul\":38431:38435   */\n      0x20\n        /* \"#utility.yul\":38426:38429   */\n      dup3\n        /* \"#utility.yul\":38422:38436   */\n      add\n        /* \"#utility.yul\":38407:38436   */\n      swap1\n      pop\n        /* \"#utility.yul\":38283:38442   */\n      swap3\n      swap2\n      pop\n      pop\n      jump\t// out\n        /* \"#utility.yul\":38448:38617   */\n    tag_499:\n        /* \"#utility.yul\":38532:38543   */\n      0x00\n        /* \"#utility.yul\":38566:38572   */\n      dup3\n        /* \"#utility.yul\":38561:38564   */\n      dup3\n        /* \"#utility.yul\":38554:38573   */\n      mstore\n        /* \"#utility.yul\":38606:38610   */\n      0x20\n        /* \"#utility.yul\":38601:38604   */\n      dup3\n        /* \"#utility.yul\":38597:38611   */\n      add\n        /* \"#utility.yul\":38582:38611   */\n      swap1\n      pop\n        /* \"#utility.yul\":38448:38617   */\n      swap3\n      swap2\n      pop\n      pop\n      jump\t// out\n        /* \"#utility.yul\":38623:38771   */\n    tag_492:\n        /* \"#utility.yul\":38725:38736   */\n      0x00\n        /* \"#utility.yul\":38762:38765   */\n      dup2\n        /* \"#utility.yul\":38747:38765   */\n      swap1\n      pop\n        /* \"#utility.yul\":38623:38771   */\n      swap3\n      swap2\n      pop\n      pop\n      jump\t// out\n        /* \"#utility.yul\":38777:39492   */\n    tag_475:\n        /* \"#utility.yul\":38842:38847   */\n      0x00\n        /* \"#utility.yul\":38849:38855   */\n      dup1\n        /* \"#utility.yul\":38905:38908   */\n      dup4\n        /* \"#utility.yul\":38892:38909   */\n      calldataload\n        /* \"#utility.yul\":38997:38998   */\n      0x01\n        /* \"#utility.yul\":38991:38995   */\n      0x20\n        /* \"#utility.yul\":38987:38999   */\n      sub\n        /* \"#utility.yul\":38976:38984   */\n      dup5\n        /* \"#utility.yul\":38960:38974   */\n      calldatasize\n        /* \"#utility.yul\":38956:38985   */\n      sub\n        /* \"#utility.yul\":38952:39000   */\n      sub\n        /* \"#utility.yul\":38932:38950   */\n      dup2\n        /* \"#utility.yul\":38928:39001   */\n      slt\n        /* \"#utility.yul\":38918:39086   */\n      tag_745\n      jumpi\n        /* \"#utility.yul\":39005:39084   */\n      tag_746\n      tag_747\n      jump\t// in\n    tag_746:\n        /* \"#utility.yul\":38918:39086   */\n    tag_745:\n        /* \"#utility.yul\":39128:39136   */\n      dup4\n        /* \"#utility.yul\":39108:39126   */\n      dup2\n        /* \"#utility.yul\":39104:39137   */\n      add\n        /* \"#utility.yul\":39095:39137   */\n      swap3\n      pop\n        /* \"#utility.yul\":39170:39175   */\n      dup3\n        /* \"#utility.yul\":39157:39176   */\n      calldataload\n        /* \"#utility.yul\":39147:39176   */\n      swap2\n      pop\n        /* \"#utility.yul\":39205:39209   */\n      0x20\n        /* \"#utility.yul\":39198:39203   */\n      dup4\n        /* \"#utility.yul\":39194:39210   */\n      add\n        /* \"#utility.yul\":39185:39210   */\n      swap3\n      pop\n        /* \"#utility.yul\":39233:39251   */\n      0xffffffffffffffff\n        /* \"#utility.yul\":39225:39231   */\n      dup3\n        /* \"#utility.yul\":39222:39252   */\n      gt\n        /* \"#utility.yul\":39219:39336   */\n      iszero\n      tag_748\n      jumpi\n        /* \"#utility.yul\":39255:39334   */\n      tag_749\n      tag_750\n      jump\t// in\n    tag_749:\n        /* \"#utility.yul\":39219:39336   */\n    tag_748:\n        /* \"#utility.yul\":39394:39398   */\n      0x01\n        /* \"#utility.yul\":39386:39392   */\n      dup3\n        /* \"#utility.yul\":39382:39399   */\n      mul\n        /* \"#utility.yul\":39366:39380   */\n      calldatasize\n        /* \"#utility.yul\":39362:39400   */\n      sub\n        /* \"#utility.yul\":39352:39360   */\n      dup5\n        /* \"#utility.yul\":39348:39401   */\n      sgt\n        /* \"#utility.yul\":39345:39485   */\n      iszero\n      tag_751\n      jumpi\n        /* \"#utility.yul\":39404:39483   */\n      tag_752\n      tag_753\n      jump\t// in\n    tag_752:\n        /* \"#utility.yul\":39345:39485   */\n    tag_751:\n        /* \"#utility.yul\":38856:39492   */\n      pop\n        /* \"#utility.yul\":38777:39492   */\n      swap3\n      pop\n      swap3\n      swap1\n      pop\n      jump\t// out\n        /* \"#utility.yul\":39498:39740   */\n    tag_247:\n        /* \"#utility.yul\":39537:39540   */\n      0x00\n        /* \"#utility.yul\":39556:39575   */\n      tag_755\n        /* \"#utility.yul\":39573:39574   */\n      dup3\n        /* \"#utility.yul\":39556:39575   */\n      tag_617\n      jump\t// in\n    tag_755:\n        /* \"#utility.yul\":39551:39575   */\n      swap2\n      pop\n        /* \"#utility.yul\":39589:39608   */\n      tag_756\n        /* \"#utility.yul\":39606:39607   */\n      dup4\n        /* \"#utility.yul\":39589:39608   */\n      tag_617\n      jump\t// in\n    tag_756:\n        /* \"#utility.yul\":39584:39608   */\n      swap3\n      pop\n        /* \"#utility.yul\":39682:39683   */\n      dup3\n        /* \"#utility.yul\":39674:39680   */\n      0xffff\n        /* \"#utility.yul\":39670:39684   */\n      sub\n        /* \"#utility.yul\":39667:39668   */\n      dup3\n        /* \"#utility.yul\":39664:39685   */\n      gt\n        /* \"#utility.yul\":39661:39708   */\n      iszero\n      tag_757\n      jumpi\n        /* \"#utility.yul\":39688:39706   */\n      tag_758\n      tag_759\n      jump\t// in\n    tag_758:\n        /* \"#utility.yul\":39661:39708   */\n    tag_757:\n        /* \"#utility.yul\":39732:39733   */\n      dup3\n        /* \"#utility.yul\":39729:39730   */\n      dup3\n        /* \"#utility.yul\":39725:39734   */\n      add\n        /* \"#utility.yul\":39718:39734   */\n      swap1\n      pop\n        /* \"#utility.yul\":39498:39740   */\n      swap3\n      swap2\n      pop\n      pop\n      jump\t// out\n        /* \"#utility.yul\":39746:40051   */\n    tag_135:\n        /* \"#utility.yul\":39786:39789   */\n      0x00\n        /* \"#utility.yul\":39805:39825   */\n      tag_761\n        /* \"#utility.yul\":39823:39824   */\n      dup3\n        /* \"#utility.yul\":39805:39825   */\n      tag_621\n      jump\t// in\n    tag_761:\n        /* \"#utility.yul\":39800:39825   */\n      swap2\n      pop\n        /* \"#utility.yul\":39839:39859   */\n      tag_762\n        /* \"#utility.yul\":39857:39858   */\n      dup4\n        /* \"#utility.yul\":39839:39859   */\n      tag_621\n      jump\t// in\n    tag_762:\n        /* \"#utility.yul\":39834:39859   */\n      swap3\n      pop\n        /* \"#utility.yul\":39993:39994   */\n      dup3\n        /* \"#utility.yul\":39925:39991   */\n      0xffffffffffffffffffffffffffffffffffffffffffffffffffffffffffffffff\n        /* \"#utility.yul\":39921:39995   */\n      sub\n        /* \"#utility.yul\":39918:39919   */\n      dup3\n        /* \"#utility.yul\":39915:39996   */\n      gt\n        /* \"#utility.yul\":39912:40019   */\n      iszero\n      tag_763\n      jumpi\n        /* \"#utility.yul\":39999:40017   */\n      tag_764\n      tag_759\n      jump\t// in\n    tag_764:\n        /* \"#utility.yul\":39912:40019   */\n    tag_763:\n        /* \"#utility.yul\":40043:40044   */\n      dup3\n        /* \"#utility.yul\":40040:40041   */\n      dup3\n        /* \"#utility.yul\":40036:40045   */\n      add\n        /* \"#utility.yul\":40029:40045   */\n      swap1\n      pop\n        /* \"#utility.yul\":39746:40051   */\n      swap3\n      swap2\n      pop\n      pop\n      jump\t// out\n        /* \"#utility.yul\":40057:40405   */\n    tag_133:\n        /* \"#utility.yul\":40097:40104   */\n      0x00\n        /* \"#utility.yul\":40120:40140   */\n      tag_766\n        /* \"#utility.yul\":40138:40139   */\n      dup3\n        /* \"#utility.yul\":40120:40140   */\n      tag_621\n      jump\t// in\n    tag_766:\n        /* \"#utility.yul\":40115:40140   */\n      swap2\n      pop\n        /* \"#utility.yul\":40154:40174   */\n      tag_767\n        /* \"#utility.yul\":40172:40173   */\n      dup4\n        /* \"#utility.yul\":40154:40174   */\n      tag_621\n      jump\t// in\n    tag_767:\n        /* \"#utility.yul\":40149:40174   */\n      swap3\n      pop\n        /* \"#utility.yul\":40342:40343   */\n      dup2\n        /* \"#utility.yul\":40274:40340   */\n      0xffffffffffffffffffffffffffffffffffffffffffffffffffffffffffffffff\n        /* \"#utility.yul\":40270:40344   */\n      div\n        /* \"#utility.yul\":40267:40268   */\n      dup4\n        /* \"#utility.yul\":40264:40345   */\n      gt\n        /* \"#utility.yul\":40259:40260   */\n      dup3\n        /* \"#utility.yul\":40252:40261   */\n      iszero\n        /* \"#utility.yul\":40245:40262   */\n      iszero\n        /* \"#utility.yul\":40241:40346   */\n      and\n        /* \"#utility.yul\":40238:40369   */\n      iszero\n      tag_768\n      jumpi\n        /* \"#utility.yul\":40349:40367   */\n      tag_769\n      tag_759\n      jump\t// in\n    tag_769:\n        /* \"#utility.yul\":40238:40369   */\n    tag_768:\n        /* \"#utility.yul\":40397:40398   */\n      dup3\n        /* \"#utility.yul\":40394:40395   */\n      dup3\n        /* \"#utility.yul\":40390:40399   */\n      mul\n        /* \"#utility.yul\":40379:40399   */\n      swap1\n      pop\n        /* \"#utility.yul\":40057:40405   */\n      swap3\n      swap2\n      pop\n      pop\n      jump\t// out\n        /* \"#utility.yul\":40411:40602   */\n    tag_278:\n        /* \"#utility.yul\":40451:40455   */\n      0x00\n        /* \"#utility.yul\":40471:40491   */\n      tag_771\n        /* \"#utility.yul\":40489:40490   */\n      dup3\n        /* \"#utility.yul\":40471:40491   */\n      tag_621\n      jump\t// in\n    tag_771:\n        /* \"#utility.yul\":40466:40491   */\n      swap2\n      pop\n        /* \"#utility.yul\":40505:40525   */\n      tag_772\n        /* \"#utility.yul\":40523:40524   */\n      dup4\n        /* \"#utility.yul\":40505:40525   */\n      tag_621\n      jump\t// in\n    tag_772:\n        /* \"#utility.yul\":40500:40525   */\n      swap3\n      pop\n        /* \"#utility.yul\":40544:40545   */\n      dup3\n        /* \"#utility.yul\":40541:40542   */\n      dup3\n        /* \"#utility.yul\":40538:40546   */\n      lt\n        /* \"#utility.yul\":40535:40569   */\n      iszero\n      tag_773\n      jumpi\n        /* \"#utility.yul\":40549:40567   */\n      tag_774\n      tag_759\n      jump\t// in\n    tag_774:\n        /* \"#utility.yul\":40535:40569   */\n    tag_773:\n        /* \"#utility.yul\":40594:40595   */\n      dup3\n        /* \"#utility.yul\":40591:40592   */\n      dup3\n        /* \"#utility.yul\":40587:40596   */\n      sub\n        /* \"#utility.yul\":40579:40596   */\n      swap1\n      pop\n        /* \"#utility.yul\":40411:40602   */\n      swap3\n      swap2\n      pop\n      pop\n      jump\t// out\n        /* \"#utility.yul\":40608:40704   */\n    tag_447:\n        /* \"#utility.yul\":40645:40652   */\n      0x00\n        /* \"#utility.yul\":40674:40698   */\n      tag_776\n        /* \"#utility.yul\":40692:40697   */\n      dup3\n        /* \"#utility.yul\":40674:40698   */\n      tag_777\n      jump\t// in\n    tag_776:\n        /* \"#utility.yul\":40663:40698   */\n      swap1\n      pop\n        /* \"#utility.yul\":40608:40704   */\n      swap2\n      swap1\n      pop\n      jump\t// out\n        /* \"#utility.yul\":40710:40800   */\n    tag_482:\n        /* \"#utility.yul\":40744:40751   */\n      0x00\n        /* \"#utility.yul\":40787:40792   */\n      dup2\n        /* \"#utility.yul\":40780:40793   */\n      iszero\n        /* \"#utility.yul\":40773:40794   */\n      iszero\n        /* \"#utility.yul\":40762:40794   */\n      swap1\n      pop\n        /* \"#utility.yul\":40710:40800   */\n      swap2\n      swap1\n      pop\n      jump\t// out\n        /* \"#utility.yul\":40806:40924   */\n    tag_613:\n        /* \"#utility.yul\":40843:40850   */\n      0x00\n        /* \"#utility.yul\":40883:40917   */\n      0xffffffffffffffffffffffffffffffff\n        /* \"#utility.yul\":40876:40881   */\n      dup3\n        /* \"#utility.yul\":40872:40918   */\n      and\n        /* \"#utility.yul\":40861:40918   */\n      swap1\n      pop\n        /* \"#utility.yul\":40806:40924   */\n      swap2\n      swap1\n      pop\n      jump\t// out\n        /* \"#utility.yul\":40930:41019   */\n    tag_617:\n        /* \"#utility.yul\":40966:40973   */\n      0x00\n        /* \"#utility.yul\":41006:41012   */\n      0xffff\n        /* \"#utility.yul\":40999:41004   */\n      dup3\n        /* \"#utility.yul\":40995:41013   */\n      and\n        /* \"#utility.yul\":40984:41013   */\n      swap1\n      pop\n        /* \"#utility.yul\":40930:41019   */\n      swap2\n      swap1\n      pop\n      jump\t// out\n        /* \"#utility.yul\":41025:41151   */\n    tag_777:\n        /* \"#utility.yul\":41062:41069   */\n      0x00\n        /* \"#utility.yul\":41102:41144   */\n      0xffffffffffffffffffffffffffffffffffffffff\n        /* \"#utility.yul\":41095:41100   */\n      dup3\n        /* \"#utility.yul\":41091:41145   */\n      and\n        /* \"#utility.yul\":41080:41145   */\n      swap1\n      pop\n        /* \"#utility.yul\":41025:41151   */\n      swap2\n      swap1\n      pop\n      jump\t// out\n        /* \"#utility.yul\":41157:41234   */\n    tag_621:\n        /* \"#utility.yul\":41194:41201   */\n      0x00\n        /* \"#utility.yul\":41223:41228   */\n      dup2\n        /* \"#utility.yul\":41212:41228   */\n      swap1\n      pop\n        /* \"#utility.yul\":41157:41234   */\n      swap2\n      swap1\n      pop\n      jump\t// out\n        /* \"#utility.yul\":41240:41326   */\n    tag_625:\n        /* \"#utility.yul\":41275:41282   */\n      0x00\n        /* \"#utility.yul\":41315:41319   */\n      0xff\n        /* \"#utility.yul\":41308:41313   */\n      dup3\n        /* \"#utility.yul\":41304:41320   */\n      and\n        /* \"#utility.yul\":41293:41320   */\n      swap1\n      pop\n        /* \"#utility.yul\":41240:41326   */\n      swap2\n      swap1\n      pop\n      jump\t// out\n        /* \"#utility.yul\":41332:41486   */\n    tag_355:\n        /* \"#utility.yul\":41416:41422   */\n      dup3\n        /* \"#utility.yul\":41411:41414   */\n      dup2\n        /* \"#utility.yul\":41406:41409   */\n      dup4\n        /* \"#utility.yul\":41393:41423   */\n      calldatacopy\n        /* \"#utility.yul\":41478:41479   */\n      0x00\n        /* \"#utility.yul\":41469:41475   */\n      dup4\n        /* \"#utility.yul\":41464:41467   */\n      dup4\n        /* \"#utility.yul\":41460:41476   */\n      add\n        /* \"#utility.yul\":41453:41480   */\n      mstore\n        /* \"#utility.yul\":41332:41486   */\n      pop\n      pop\n      pop\n      jump\t// out\n        /* \"#utility.yul\":41492:41799   */\n    tag_501:\n        /* \"#utility.yul\":41560:41561   */\n      0x00\n        /* \"#utility.yul\":41570:41683   */\n    tag_786:\n        /* \"#utility.yul\":41584:41590   */\n      dup4\n        /* \"#utility.yul\":41581:41582   */\n      dup2\n        /* \"#utility.yul\":41578:41591   */\n      lt\n        /* \"#utility.yul\":41570:41683   */\n      iszero\n      tag_788\n      jumpi\n        /* \"#utility.yul\":41669:41670   */\n      dup1\n        /* \"#utility.yul\":41664:41667   */\n      dup3\n        /* \"#utility.yul\":41660:41671   */\n      add\n        /* \"#utility.yul\":41654:41672   */\n      mload\n        /* \"#utility.yul\":41650:41651   */\n      dup2\n        /* \"#utility.yul\":41645:41648   */\n      dup5\n        /* \"#utility.yul\":41641:41652   */\n      add\n        /* \"#utility.yul\":41634:41673   */\n      mstore\n        /* \"#utility.yul\":41606:41608   */\n      0x20\n        /* \"#utility.yul\":41603:41604   */\n      dup2\n        /* \"#utility.yul\":41599:41609   */\n      add\n        /* \"#utility.yul\":41594:41609   */\n      swap1\n      pop\n        /* \"#utility.yul\":41570:41683   */\n      jump(tag_786)\n    tag_788:\n        /* \"#utility.yul\":41701:41707   */\n      dup4\n        /* \"#utility.yul\":41698:41699   */\n      dup2\n        /* \"#utility.yul\":41695:41708   */\n      gt\n        /* \"#utility.yul\":41692:41793   */\n      iszero\n      tag_789\n      jumpi\n        /* \"#utility.yul\":41781:41782   */\n      0x00\n        /* \"#utility.yul\":41772:41778   */\n      dup5\n        /* \"#utility.yul\":41767:41770   */\n      dup5\n        /* \"#utility.yul\":41763:41779   */\n      add\n        /* \"#utility.yul\":41756:41783   */\n      mstore\n        /* \"#utility.yul\":41692:41793   */\n    tag_789:\n        /* \"#utility.yul\":41541:41799   */\n      pop\n        /* \"#utility.yul\":41492:41799   */\n      pop\n      pop\n      pop\n      jump\t// out\n        /* \"#utility.yul\":41805:42125   */\n    tag_60:\n        /* \"#utility.yul\":41849:41855   */\n      0x00\n        /* \"#utility.yul\":41886:41887   */\n      0x02\n        /* \"#utility.yul\":41880:41884   */\n      dup3\n        /* \"#utility.yul\":41876:41888   */\n      div\n        /* \"#utility.yul\":41866:41888   */\n      swap1\n      pop\n        /* \"#utility.yul\":41933:41934   */\n      0x01\n        /* \"#utility.yul\":41927:41931   */\n      dup3\n        /* \"#utility.yul\":41923:41935   */\n      and\n        /* \"#utility.yul\":41954:41972   */\n      dup1\n        /* \"#utility.yul\":41944:42025   */\n      tag_791\n      jumpi\n        /* \"#utility.yul\":42010:42014   */\n      0x7f\n        /* \"#utility.yul\":42002:42008   */\n      dup3\n        /* \"#utility.yul\":41998:42015   */\n      and\n        /* \"#utility.yul\":41988:42015   */\n      swap2\n      pop\n        /* \"#utility.yul\":41944:42025   */\n    tag_791:\n        /* \"#utility.yul\":42072:42074   */\n      0x20\n        /* \"#utility.yul\":42064:42070   */\n      dup3\n        /* \"#utility.yul\":42061:42075   */\n      lt\n        /* \"#utility.yul\":42041:42059   */\n      dup2\n        /* \"#utility.yul\":42038:42076   */\n      eq\n        /* \"#utility.yul\":42035:42119   */\n      iszero\n      tag_792\n      jumpi\n        /* \"#utility.yul\":42091:42109   */\n      tag_793\n      tag_794\n      jump\t// in\n    tag_793:\n        /* \"#utility.yul\":42035:42119   */\n    tag_792:\n        /* \"#utility.yul\":41856:42125   */\n      pop\n        /* \"#utility.yul\":41805:42125   */\n      swap2\n      swap1\n      pop\n      jump\t// out\n        /* \"#utility.yul\":42131:42412   */\n    tag_716:\n        /* \"#utility.yul\":42214:42241   */\n      tag_796\n        /* \"#utility.yul\":42236:42240   */\n      dup3\n        /* \"#utility.yul\":42214:42241   */\n      tag_488\n      jump\t// in\n    tag_796:\n        /* \"#utility.yul\":42206:42212   */\n      dup2\n        /* \"#utility.yul\":42202:42242   */\n      add\n        /* \"#utility.yul\":42344:42350   */\n      dup2\n        /* \"#utility.yul\":42332:42342   */\n      dup2\n        /* \"#utility.yul\":42329:42351   */\n      lt\n        /* \"#utility.yul\":42308:42326   */\n      0xffffffffffffffff\n        /* \"#utility.yul\":42296:42306   */\n      dup3\n        /* \"#utility.yul\":42293:42327   */\n      gt\n        /* \"#utility.yul\":42290:42352   */\n      or\n        /* \"#utility.yul\":42287:42375   */\n      iszero\n      tag_797\n      jumpi\n        /* \"#utility.yul\":42355:42373   */\n      tag_798\n      tag_721\n      jump\t// in\n    tag_798:\n        /* \"#utility.yul\":42287:42375   */\n    tag_797:\n        /* \"#utility.yul\":42395:42405   */\n      dup1\n        /* \"#utility.yul\":42391:42393   */\n      0x40\n        /* \"#utility.yul\":42384:42406   */\n      mstore\n        /* \"#utility.yul\":42174:42412   */\n      pop\n        /* \"#utility.yul\":42131:42412   */\n      pop\n      pop\n      jump\t// out\n        /* \"#utility.yul\":42418:42619   */\n    tag_193:\n        /* \"#utility.yul\":42457:42460   */\n      0x00\n        /* \"#utility.yul\":42480:42504   */\n      tag_800\n        /* \"#utility.yul\":42498:42503   */\n      dup3\n        /* \"#utility.yul\":42480:42504   */\n      tag_613\n      jump\t// in\n    tag_800:\n        /* \"#utility.yul\":42471:42504   */\n      swap2\n      pop\n        /* \"#utility.yul\":42526:42560   */\n      0xffffffffffffffffffffffffffffffff\n        /* \"#utility.yul\":42519:42524   */\n      dup3\n        /* \"#utility.yul\":42516:42561   */\n      eq\n        /* \"#utility.yul\":42513:42584   */\n      iszero\n      tag_801\n      jumpi\n        /* \"#utility.yul\":42564:42582   */\n      tag_802\n      tag_759\n      jump\t// in\n    tag_802:\n        /* \"#utility.yul\":42513:42584   */\n    tag_801:\n        /* \"#utility.yul\":42611:42612   */\n      0x01\n        /* \"#utility.yul\":42604:42609   */\n      dup3\n        /* \"#utility.yul\":42600:42613   */\n      add\n        /* \"#utility.yul\":42593:42613   */\n      swap1\n      pop\n        /* \"#utility.yul\":42418:42619   */\n      swap2\n      swap1\n      pop\n      jump\t// out\n        /* \"#utility.yul\":42625:42796   */\n    tag_219:\n        /* \"#utility.yul\":42663:42666   */\n      0x00\n        /* \"#utility.yul\":42686:42709   */\n      tag_804\n        /* \"#utility.yul\":42703:42708   */\n      dup3\n        /* \"#utility.yul\":42686:42709   */\n      tag_617\n      jump\t// in\n    tag_804:\n        /* \"#utility.yul\":42677:42709   */\n      swap2\n      pop\n        /* \"#utility.yul\":42731:42737   */\n      0xffff\n        /* \"#utility.yul\":42724:42729   */\n      dup3\n        /* \"#utility.yul\":42721:42738   */\n      eq\n        /* \"#utility.yul\":42718:42761   */\n      iszero\n      tag_805\n      jumpi\n        /* \"#utility.yul\":42741:42759   */\n      tag_806\n      tag_759\n      jump\t// in\n    tag_806:\n        /* \"#utility.yul\":42718:42761   */\n    tag_805:\n        /* \"#utility.yul\":42788:42789   */\n      0x01\n        /* \"#utility.yul\":42781:42786   */\n      dup3\n        /* \"#utility.yul\":42777:42790   */\n      add\n        /* \"#utility.yul\":42770:42790   */\n      swap1\n      pop\n        /* \"#utility.yul\":42625:42796   */\n      swap2\n      swap1\n      pop\n      jump\t// out\n        /* \"#utility.yul\":42802:43035   */\n    tag_84:\n        /* \"#utility.yul\":42841:42844   */\n      0x00\n        /* \"#utility.yul\":42864:42888   */\n      tag_808\n        /* \"#utility.yul\":42882:42887   */\n      dup3\n        /* \"#utility.yul\":42864:42888   */\n      tag_621\n      jump\t// in\n    tag_808:\n        /* \"#utility.yul\":42855:42888   */\n      swap2\n      pop\n        /* \"#utility.yul\":42910:42976   */\n      0xffffffffffffffffffffffffffffffffffffffffffffffffffffffffffffffff\n        /* \"#utility.yul\":42903:42908   */\n      dup3\n        /* \"#utility.yul\":42900:42977   */\n      eq\n        /* \"#utility.yul\":42897:43000   */\n      iszero\n      tag_809\n      jumpi\n        /* \"#utility.yul\":42980:42998   */\n      tag_810\n      tag_759\n      jump\t// in\n    tag_810:\n        /* \"#utility.yul\":42897:43000   */\n    tag_809:\n        /* \"#utility.yul\":43027:43028   */\n      0x01\n        /* \"#utility.yul\":43020:43025   */\n      dup3\n        /* \"#utility.yul\":43016:43029   */\n      add\n        /* \"#utility.yul\":43009:43029   */\n      swap1\n      pop\n        /* \"#utility.yul\":42802:43035   */\n      swap2\n      swap1\n      pop\n      jump\t// out\n        /* \"#utility.yul\":43041:43221   */\n    tag_759:\n        /* \"#utility.yul\":43089:43166   */\n      0x4e487b7100000000000000000000000000000000000000000000000000000000\n        /* \"#utility.yul\":43086:43087   */\n      0x00\n        /* \"#utility.yul\":43079:43167   */\n      mstore\n        /* \"#utility.yul\":43186:43190   */\n      0x11\n        /* \"#utility.yul\":43183:43184   */\n      0x04\n        /* \"#utility.yul\":43176:43191   */\n      mstore\n        /* \"#utility.yul\":43210:43214   */\n      0x24\n        /* \"#utility.yul\":43207:43208   */\n      0x00\n        /* \"#utility.yul\":43200:43215   */\n      revert\n        /* \"#utility.yul\":43227:43407   */\n    tag_794:\n        /* \"#utility.yul\":43275:43352   */\n      0x4e487b7100000000000000000000000000000000000000000000000000000000\n        /* \"#utility.yul\":43272:43273   */\n      0x00\n        /* \"#utility.yul\":43265:43353   */\n      mstore\n        /* \"#utility.yul\":43372:43376   */\n      0x22\n        /* \"#utility.yul\":43369:43370   */\n      0x04\n        /* \"#utility.yul\":43362:43377   */\n      mstore\n        /* \"#utility.yul\":43396:43400   */\n      0x24\n        /* \"#utility.yul\":43393:43394   */\n      0x00\n        /* \"#utility.yul\":43386:43401   */\n      revert\n        /* \"#utility.yul\":43413:43593   */\n    tag_95:\n        /* \"#utility.yul\":43461:43538   */\n      0x4e487b7100000000000000000000000000000000000000000000000000000000\n        /* \"#utility.yul\":43458:43459   */\n      0x00\n        /* \"#utility.yul\":43451:43539   */\n      mstore\n        /* \"#utility.yul\":43558:43562   */\n      0x32\n        /* \"#utility.yul\":43555:43556   */\n      0x04\n        /* \"#utility.yul\":43548:43563   */\n      mstore\n        /* \"#utility.yul\":43582:43586   */\n      0x24\n        /* \"#utility.yul\":43579:43580   */\n      0x00\n        /* \"#utility.yul\":43572:43587   */\n      revert\n        /* \"#utility.yul\":43599:43779   */\n    tag_721:\n        /* \"#utility.yul\":43647:43724   */\n      0x4e487b7100000000000000000000000000000000000000000000000000000000\n        /* \"#utility.yul\":43644:43645   */\n      0x00\n        /* \"#utility.yul\":43637:43725   */\n      mstore\n        /* \"#utility.yul\":43744:43748   */\n      0x41\n        /* \"#utility.yul\":43741:43742   */\n      0x04\n        /* \"#utility.yul\":43734:43749   */\n      mstore\n        /* \"#utility.yul\":43768:43772   */\n      0x24\n        /* \"#utility.yul\":43765:43766   */\n      0x00\n        /* \"#utility.yul\":43758:43773   */\n      revert\n        /* \"#utility.yul\":43785:43902   */\n    tag_750:\n        /* \"#utility.yul\":43894:43895   */\n      0x00\n        /* \"#utility.yul\":43891:43892   */\n      dup1\n        /* \"#utility.yul\":43884:43896   */\n      revert\n        /* \"#utility.yul\":43908:44025   */\n    tag_370:\n        /* \"#utility.yul\":44017:44018   */\n      0x00\n        /* \"#utility.yul\":44014:44015   */\n      dup1\n        /* \"#utility.yul\":44007:44019   */\n      revert\n        /* \"#utility.yul\":44031:44148   */\n    tag_331:\n        /* \"#utility.yul\":44140:44141   */\n      0x00\n        /* \"#utility.yul\":44137:44138   */\n      dup1\n        /* \"#utility.yul\":44130:44142   */\n      revert\n        /* \"#utility.yul\":44154:44271   */\n    tag_708:\n        /* \"#utility.yul\":44263:44264   */\n      0x00\n        /* \"#utility.yul\":44260:44261   */\n      dup1\n        /* \"#utility.yul\":44253:44265   */\n      revert\n        /* \"#utility.yul\":44277:44394   */\n    tag_705:\n        /* \"#utility.yul\":44386:44387   */\n      0x00\n        /* \"#utility.yul\":44383:44384   */\n      dup1\n        /* \"#utility.yul\":44376:44388   */\n      revert\n        /* \"#utility.yul\":44400:44517   */\n    tag_753:\n        /* \"#utility.yul\":44509:44510   */\n      0x00\n        /* \"#utility.yul\":44506:44507   */\n      dup1\n        /* \"#utility.yul\":44499:44511   */\n      revert\n        /* \"#utility.yul\":44523:44640   */\n    tag_313:\n        /* \"#utility.yul\":44632:44633   */\n      0x00\n        /* \"#utility.yul\":44629:44630   */\n      dup1\n        /* \"#utility.yul\":44622:44634   */\n      revert\n        /* \"#utility.yul\":44646:44763   */\n    tag_711:\n        /* \"#utility.yul\":44755:44756   */\n      0x00\n        /* \"#utility.yul\":44752:44753   */\n      dup1\n        /* \"#utility.yul\":44745:44757   */\n      revert\n        /* \"#utility.yul\":44769:44886   */\n    tag_353:\n        /* \"#utility.yul\":44878:44879   */\n      0x00\n        /* \"#utility.yul\":44875:44876   */\n      dup1\n        /* \"#utility.yul\":44868:44880   */\n      revert\n        /* \"#utility.yul\":44892:45009   */\n    tag_415:\n        /* \"#utility.yul\":45001:45002   */\n      0x00\n        /* \"#utility.yul\":44998:44999   */\n      dup1\n        /* \"#utility.yul\":44991:45003   */\n      revert\n        /* \"#utility.yul\":45015:45132   */\n    tag_747:\n        /* \"#utility.yul\":45124:45125   */\n      0x00\n        /* \"#utility.yul\":45121:45122   */\n      dup1\n        /* \"#utility.yul\":45114:45126   */\n      revert\n        /* \"#utility.yul\":45138:45255   */\n    tag_397:\n        /* \"#utility.yul\":45247:45248   */\n      0x00\n        /* \"#utility.yul\":45244:45245   */\n      dup1\n        /* \"#utility.yul\":45237:45249   */\n      revert\n        /* \"#utility.yul\":45261:45363   */\n    tag_488:\n        /* \"#utility.yul\":45302:45308   */\n      0x00\n        /* \"#utility.yul\":45353:45355   */\n      0x1f\n        /* \"#utility.yul\":45349:45356   */\n      not\n        /* \"#utility.yul\":45344:45346   */\n      0x1f\n        /* \"#utility.yul\":45337:45342   */\n      dup4\n        /* \"#utility.yul\":45333:45347   */\n      add\n        /* \"#utility.yul\":45329:45357   */\n      and\n        /* \"#utility.yul\":45319:45357   */\n      swap1\n      pop\n        /* \"#utility.yul\":45261:45363   */\n      swap2\n      swap1\n      pop\n      jump\t// out\n        /* \"#utility.yul\":45369:45537   */\n    tag_524:\n        /* \"#utility.yul\":45509:45529   */\n      0x50726f706f73616c3a20696e6163746976650000000000000000000000000000\n        /* \"#utility.yul\":45505:45506   */\n      0x00\n        /* \"#utility.yul\":45497:45503   */\n      dup3\n        /* \"#utility.yul\":45493:45507   */\n      add\n        /* \"#utility.yul\":45486:45530   */\n      mstore\n        /* \"#utility.yul\":45369:45537   */\n      pop\n      jump\t// out\n        /* \"#utility.yul\":45543:45774   */\n    tag_529:\n        /* \"#utility.yul\":45683:45717   */\n      0x456e642074696d652073686f756c642062652067726561746572207468616e20\n        /* \"#utility.yul\":45679:45680   */\n      0x00\n        /* \"#utility.yul\":45671:45677   */\n      dup3\n        /* \"#utility.yul\":45667:45681   */\n      add\n        /* \"#utility.yul\":45660:45718   */\n      mstore\n        /* \"#utility.yul\":45752:45766   */\n      0x63757272656e742074696d650000000000000000000000000000000000000000\n        /* \"#utility.yul\":45747:45749   */\n      0x20\n        /* \"#utility.yul\":45739:45745   */\n      dup3\n        /* \"#utility.yul\":45735:45750   */\n      add\n        /* \"#utility.yul\":45728:45767   */\n      mstore\n        /* \"#utility.yul\":45543:45774   */\n      pop\n      jump\t// out\n        /* \"#utility.yul\":45780:46001   */\n    tag_534:\n        /* \"#utility.yul\":45920:45954   */\n      0x45524332303a206275726e20616d6f756e7420657863656564732062616c616e\n        /* \"#utility.yul\":45916:45917   */\n      0x00\n        /* \"#utility.yul\":45908:45914   */\n      dup3\n        /* \"#utility.yul\":45904:45918   */\n      add\n        /* \"#utility.yul\":45897:45955   */\n      mstore\n        /* \"#utility.yul\":45989:45993   */\n      0x6365000000000000000000000000000000000000000000000000000000000000\n        /* \"#utility.yul\":45984:45986   */\n      0x20\n        /* \"#utility.yul\":45976:45982   */\n      dup3\n        /* \"#utility.yul\":45972:45987   */\n      add\n        /* \"#utility.yul\":45965:45994   */\n      mstore\n        /* \"#utility.yul\":45780:46001   */\n      pop\n      jump\t// out\n        /* \"#utility.yul\":46007:46170   */\n    tag_539:\n        /* \"#utility.yul\":46147:46162   */\n      0x616c726561647920766f74656400000000000000000000000000000000000000\n        /* \"#utility.yul\":46143:46144   */\n      0x00\n        /* \"#utility.yul\":46135:46141   */\n      dup3\n        /* \"#utility.yul\":46131:46145   */\n      add\n        /* \"#utility.yul\":46124:46163   */\n      mstore\n        /* \"#utility.yul\":46007:46170   */\n      pop\n      jump\t// out\n        /* \"#utility.yul\":46176:46353   */\n    tag_544:\n        /* \"#utility.yul\":46316:46345   */\n      0x50726f706f73616c3a20696e76616c69642063616e6469646174650000000000\n        /* \"#utility.yul\":46312:46313   */\n      0x00\n        /* \"#utility.yul\":46304:46310   */\n      dup3\n        /* \"#utility.yul\":46300:46314   */\n      add\n        /* \"#utility.yul\":46293:46346   */\n      mstore\n        /* \"#utility.yul\":46176:46353   */\n      pop\n      jump\t// out\n        /* \"#utility.yul\":46359:46581   */\n    tag_549:\n        /* \"#utility.yul\":46499:46533   */\n      0x6e6f7420612076616c696420766f74657220666f7220746869732070726f706f\n        /* \"#utility.yul\":46495:46496   */\n      0x00\n        /* \"#utility.yul\":46487:46493   */\n      dup3\n        /* \"#utility.yul\":46483:46497   */\n      add\n        /* \"#utility.yul\":46476:46534   */\n      mstore\n        /* \"#utility.yul\":46568:46573   */\n      0x73616c0000000000000000000000000000000000000000000000000000000000\n        /* \"#utility.yul\":46563:46565   */\n      0x20\n        /* \"#utility.yul\":46555:46561   */\n      dup3\n        /* \"#utility.yul\":46551:46566   */\n      add\n        /* \"#utility.yul\":46544:46574   */\n      mstore\n        /* \"#utility.yul\":46359:46581   */\n      pop\n      jump\t// out\n        /* \"#utility.yul\":46587:46757   */\n    tag_554:\n        /* \"#utility.yul\":46727:46749   */\n      0x70726f706f73616c206e6f742073746172746564000000000000000000000000\n        /* \"#utility.yul\":46723:46724   */\n      0x00\n        /* \"#utility.yul\":46715:46721   */\n      dup3\n        /* \"#utility.yul\":46711:46725   */\n      add\n        /* \"#utility.yul\":46704:46750   */\n      mstore\n        /* \"#utility.yul\":46587:46757   */\n      pop\n      jump\t// out\n        /* \"#utility.yul\":46763:46985   */\n    tag_559:\n        /* \"#utility.yul\":46903:46937   */\n      0x4e6f7420612076616c696420766f74657220666f7220746869732070726f706f\n        /* \"#utility.yul\":46899:46900   */\n      0x00\n        /* \"#utility.yul\":46891:46897   */\n      dup3\n        /* \"#utility.yul\":46887:46901   */\n      add\n        /* \"#utility.yul\":46880:46938   */\n      mstore\n        /* \"#utility.yul\":46972:46977   */\n      0x73616c0000000000000000000000000000000000000000000000000000000000\n        /* \"#utility.yul\":46967:46969   */\n      0x20\n        /* \"#utility.yul\":46959:46965   */\n      dup3\n        /* \"#utility.yul\":46955:46970   */\n      add\n        /* \"#utility.yul\":46948:46978   */\n      mstore\n        /* \"#utility.yul\":46763:46985   */\n      pop\n      jump\t// out\n        /* \"#utility.yul\":46991:47159   */\n    tag_564:\n        /* \"#utility.yul\":47131:47151   */\n      0x696e76616c69642070726f706f73616c49640000000000000000000000000000\n        /* \"#utility.yul\":47127:47128   */\n      0x00\n        /* \"#utility.yul\":47119:47125   */\n      dup3\n        /* \"#utility.yul\":47115:47129   */\n      add\n        /* \"#utility.yul\":47108:47152   */\n      mstore\n        /* \"#utility.yul\":46991:47159   */\n      pop\n      jump\t// out\n        /* \"#utility.yul\":47165:47387   */\n    tag_569:\n        /* \"#utility.yul\":47305:47339   */\n      0x6e6f742073756666696369656e742062616c616e636520746f20636173742076\n        /* \"#utility.yul\":47301:47302   */\n      0x00\n        /* \"#utility.yul\":47293:47299   */\n      dup3\n        /* \"#utility.yul\":47289:47303   */\n      add\n        /* \"#utility.yul\":47282:47340   */\n      mstore\n        /* \"#utility.yul\":47374:47379   */\n      0x6f74650000000000000000000000000000000000000000000000000000000000\n        /* \"#utility.yul\":47369:47371   */\n      0x20\n        /* \"#utility.yul\":47361:47367   */\n      dup3\n        /* \"#utility.yul\":47357:47372   */\n      add\n        /* \"#utility.yul\":47350:47380   */\n      mstore\n        /* \"#utility.yul\":47165:47387   */\n      pop\n      jump\t// out\n        /* \"#utility.yul\":47393:47622   */\n    tag_574:\n        /* \"#utility.yul\":47533:47567   */\n      0x456e642074696d652073686f756c642062652067726561746572207468616e20\n        /* \"#utility.yul\":47529:47530   */\n      0x00\n        /* \"#utility.yul\":47521:47527   */\n      dup3\n        /* \"#utility.yul\":47517:47531   */\n      add\n        /* \"#utility.yul\":47510:47568   */\n      mstore\n        /* \"#utility.yul\":47602:47614   */\n      0x73746172742074696d6500000000000000000000000000000000000000000000\n        /* \"#utility.yul\":47597:47599   */\n      0x20\n        /* \"#utility.yul\":47589:47595   */\n      dup3\n        /* \"#utility.yul\":47585:47600   */\n      add\n        /* \"#utility.yul\":47578:47615   */\n      mstore\n        /* \"#utility.yul\":47393:47622   */\n      pop\n      jump\t// out\n        /* \"#utility.yul\":47628:47848   */\n    tag_579:\n        /* \"#utility.yul\":47768:47802   */\n      0x45524332303a206275726e2066726f6d20746865207a65726f20616464726573\n        /* \"#utility.yul\":47764:47765   */\n      0x00\n        /* \"#utility.yul\":47756:47762   */\n      dup3\n        /* \"#utility.yul\":47752:47766   */\n      add\n        /* \"#utility.yul\":47745:47803   */\n      mstore\n        /* \"#utility.yul\":47837:47840   */\n      0x7300000000000000000000000000000000000000000000000000000000000000\n        /* \"#utility.yul\":47832:47834   */\n      0x20\n        /* \"#utility.yul\":47824:47830   */\n      dup3\n        /* \"#utility.yul\":47820:47835   */\n      add\n        /* \"#utility.yul\":47813:47841   */\n      mstore\n        /* \"#utility.yul\":47628:47848   */\n      pop\n      jump\t// out\n        /* \"#utility.yul\":47854:48077   */\n    tag_584:\n        /* \"#utility.yul\":47994:48028   */\n      0x6e6f7420612076616c6964206c656e677468206f66206861736820726573706f\n        /* \"#utility.yul\":47990:47991   */\n      0x00\n        /* \"#utility.yul\":47982:47988   */\n      dup3\n        /* \"#utility.yul\":47978:47992   */\n      add\n        /* \"#utility.yul\":47971:48029   */\n      mstore\n        /* \"#utility.yul\":48063:48069   */\n      0x6e73652100000000000000000000000000000000000000000000000000000000\n        /* \"#utility.yul\":48058:48060   */\n      0x20\n        /* \"#utility.yul\":48050:48056   */\n      dup3\n        /* \"#utility.yul\":48046:48061   */\n      add\n        /* \"#utility.yul\":48039:48070   */\n      mstore\n        /* \"#utility.yul\":47854:48077   */\n      pop\n      jump\t// out\n        /* \"#utility.yul\":48083:48237   */\n    tag_589:\n        /* \"#utility.yul\":48223:48229   */\n      0x6d696e7400000000000000000000000000000000000000000000000000000000\n        /* \"#utility.yul\":48219:48220   */\n      0x00\n        /* \"#utility.yul\":48211:48217   */\n      dup3\n        /* \"#utility.yul\":48207:48221   */\n      add\n        /* \"#utility.yul\":48200:48230   */\n      mstore\n        /* \"#utility.yul\":48083:48237   */\n      pop\n      jump\t// out\n        /* \"#utility.yul\":48243:48422   */\n    tag_594:\n        /* \"#utility.yul\":48383:48414   */\n      0x496e76616c696420766f74657220666f722070726f706f73616c496421000000\n        /* \"#utility.yul\":48379:48380   */\n      0x00\n        /* \"#utility.yul\":48371:48377   */\n      dup3\n        /* \"#utility.yul\":48367:48381   */\n      add\n        /* \"#utility.yul\":48360:48415   */\n      mstore\n        /* \"#utility.yul\":48243:48422   */\n      pop\n      jump\t// out\n        /* \"#utility.yul\":48428:48582   */\n    tag_599:\n        /* \"#utility.yul\":48568:48574   */\n      0x6275726e00000000000000000000000000000000000000000000000000000000\n        /* \"#utility.yul\":48564:48565   */\n      0x00\n        /* \"#utility.yul\":48556:48562   */\n      dup3\n        /* \"#utility.yul\":48552:48566   */\n      add\n        /* \"#utility.yul\":48545:48575   */\n      mstore\n        /* \"#utility.yul\":48428:48582   */\n      pop\n      jump\t// out\n        /* \"#utility.yul\":48588:48747   */\n    tag_604:\n        /* \"#utility.yul\":48728:48739   */\n      0x6e6f7420766f7465640000000000000000000000000000000000000000000000\n        /* \"#utility.yul\":48724:48725   */\n      0x00\n        /* \"#utility.yul\":48716:48722   */\n      dup3\n        /* \"#utility.yul\":48712:48726   */\n      add\n        /* \"#utility.yul\":48705:48740   */\n      mstore\n        /* \"#utility.yul\":48588:48747   */\n      pop\n      jump\t// out\n        /* \"#utility.yul\":48753:48934   */\n    tag_609:\n        /* \"#utility.yul\":48893:48926   */\n      0x45524332303a206d696e7420746f20746865207a65726f206164647265737300\n        /* \"#utility.yul\":48889:48890   */\n      0x00\n        /* \"#utility.yul\":48881:48887   */\n      dup3\n        /* \"#utility.yul\":48877:48891   */\n      add\n        /* \"#utility.yul\":48870:48927   */\n      mstore\n        /* \"#utility.yul\":48753:48934   */\n      pop\n      jump\t// out\n        /* \"#utility.yul\":48940:49062   */\n    tag_358:\n        /* \"#utility.yul\":49013:49037   */\n      tag_847\n        /* \"#utility.yul\":49031:49036   */\n      dup2\n        /* \"#utility.yul\":49013:49037   */\n      tag_447\n      jump\t// in\n    tag_847:\n        /* \"#utility.yul\":49006:49011   */\n      dup2\n        /* \"#utility.yul\":49003:49038   */\n      eq\n        /* \"#utility.yul\":48993:49056   */\n      tag_848\n      jumpi\n        /* \"#utility.yul\":49052:49053   */\n      0x00\n        /* \"#utility.yul\":49049:49050   */\n      dup1\n        /* \"#utility.yul\":49042:49054   */\n      revert\n        /* \"#utility.yul\":48993:49056   */\n    tag_848:\n        /* \"#utility.yul\":48940:49062   */\n      pop\n      jump\t// out\n        /* \"#utility.yul\":49068:49190   */\n    tag_389:\n        /* \"#utility.yul\":49141:49165   */\n      tag_850\n        /* \"#utility.yul\":49159:49164   */\n      dup2\n        /* \"#utility.yul\":49141:49165   */\n      tag_621\n      jump\t// in\n    tag_850:\n        /* \"#utility.yul\":49134:49139   */\n      dup2\n        /* \"#utility.yul\":49131:49166   */\n      eq\n        /* \"#utility.yul\":49121:49184   */\n      tag_851\n      jumpi\n        /* \"#utility.yul\":49180:49181   */\n      0x00\n        /* \"#utility.yul\":49177:49178   */\n      dup1\n        /* \"#utility.yul\":49170:49182   */\n      revert\n        /* \"#utility.yul\":49121:49184   */\n    tag_851:\n        /* \"#utility.yul\":49068:49190   */\n      pop\n      jump\t// out\n        /* \"#utility.yul\":49196:49314   */\n    tag_393:\n        /* \"#utility.yul\":49267:49289   */\n      tag_853\n        /* \"#utility.yul\":49283:49288   */\n      dup2\n        /* \"#utility.yul\":49267:49289   */\n      tag_625\n      jump\t// in\n    tag_853:\n        /* \"#utility.yul\":49260:49265   */\n      dup2\n        /* \"#utility.yul\":49257:49290   */\n      eq\n        /* \"#utility.yul\":49247:49308   */\n      tag_854\n      jumpi\n        /* \"#utility.yul\":49304:49305   */\n      0x00\n        /* \"#utility.yul\":49301:49302   */\n      dup1\n        /* \"#utility.yul\":49294:49306   */\n      revert\n        /* \"#utility.yul\":49247:49308   */\n    tag_854:\n        /* \"#utility.yul\":49196:49314   */\n      pop\n      jump\t// out\n\n    auxdata: 0xa2646970667358221220acde94dc2be50bd9ac89ca6f15b3e7962b8774469b46be63d55bf0cf980f407464736f6c63430008070033\n}\n",
				"bytecode": {
					"linkReferences": {},
					"object": "60806040523480156200001157600080fd5b506040518060400160405280600c81526020017f51566f74696e67546f6b656e00000000000000000000000000000000000000008152506040518060400160405280600281526020017f5176000000000000000000000000000000000000000000000000000000000000815250816002908051906020019062000096929190620000f9565b508060039080519060200190620000af929190620000f9565b50505033600460006101000a81548173ffffffffffffffffffffffffffffffffffffffff021916908373ffffffffffffffffffffffffffffffffffffffff1602179055506200020e565b8280546200010790620001a9565b90600052602060002090601f0160209004810192826200012b576000855562000177565b82601f106200014657805160ff191683800117855562000177565b8280016001018555821562000177579182015b828111156200017657825182559160200191906001019062000159565b5b5090506200018691906200018a565b5090565b5b80821115620001a55760008160009055506001016200018b565b5090565b60006002820490506001821680620001c257607f821691505b60208210811415620001d957620001d8620001df565b5b50919050565b7f4e487b7100000000000000000000000000000000000000000000000000000000600052602260045260246000fd5b613686806200021e6000396000f3fe608060405234801561001057600080fd5b506004361061009e5760003560e01c80635c230eee116100665780635c230eee1461014f57806370a082311461016b57806395d89b411461019b578063ab9c70d4146101b9578063e745d68e146101ec5761009e565b8063013cf08b146100a357806306fdde03146100d957806318160ddd146100f7578063313ce567146101155780634de77e4814610133575b600080fd5b6100bd60048036038101906100b8919061203e565b61021d565b6040516100d0979695949392919061277b565b60405180910390f35b6100e1610322565b6040516100ee91906127f1565b60405180910390f35b6100ff6103b4565b60405161010c9190612ab4565b60405180910390f35b61011d6103be565b60405161012a9190612b9a565b60405180910390f35b61014d6004803603810190610148919061210a565b6103c7565b005b6101696004803603810190610164919061206b565b6106f1565b005b61018560048036038101906101809190611fd1565b610bba565b6040516101929190612ab4565b60405180910390f35b6101a3610c02565b6040516101b091906127f1565b60405180910390f35b6101d360048036038101906101ce9190611ffe565b610c94565b6040516101e39493929190612acf565b60405180910390f35b61020660048036038101906102019190611fd1565b610cfe565b604051610214929190612a8b565b60405180910390f35b60076020528060005260406000206000915090508060000160009054906101000a900473ffffffffffffffffffffffffffffffffffffffff16908060000160149054906101000a900460ff169080600101805461027990612fe0565b80601f01602080910402602001604051908101604052809291908181526020018280546102a590612fe0565b80156102f25780601f106102c7576101008083540402835291602001916102f2565b820191906000526020600020905b8154815290600101906020018083116102d557829003601f168201915b5050505050908060020154908060030154908060040160009054906101000a900461ffff16908060050154905087565b60606002805461033190612fe0565b80601f016020809104026020016040519081016040528092919081815260200182805461035d90612fe0565b80156103aa5780601f1061037f576101008083540402835291602001916103aa565b820191906000526020600020905b81548152906001019060200180831161038d57829003601f168201915b5050505050905090565b6000600154905090565b60006012905090565b854210610409576040517f08c379a0000000000000000000000000000000000000000000000000000000008152600401610400906128d3565b60405180910390fd5b84421061044b576040517f08c379a000000000000000000000000000000000000000000000000000000000815260040161044290612833565b60405180910390fd5b84861061048d576040517f08c379a000000000000000000000000000000000000000000000000000000000815260040161048490612953565b60405180910390fd5b600560008154809291906104a0906130a7565b91905055506104dc898989898989878a8a600760006005548152602001908152602001600020610d5a909998979695949392919063ffffffff16565b507f239a8a71a7d1cb0d134f6cc072ad6390e36a88c8e78dff69013ee79528441e806005548989898989898960405161051c989796959493929190612b14565b60405180910390a1600160096000600554815260200190815260200160002060006101000a81548160ff02191690831515021790555060005b885181101561068a576105828982815181106105745761057361314e565b5b602002602001015183610f8c565b6106236005548a838151811061059b5761059a61314e565b5b6020026020010151600085600860008f88815181106105bd576105bc61314e565b5b602002602001015173ffffffffffffffffffffffffffffffffffffffff1673ffffffffffffffffffffffffffffffffffffffff16815260200190815260200160002060006005548152602001908152602001600020610ffd90949392919063ffffffff16565b507fabf5327be9f5825c40d58bda541dd07f09b62df3376bbd5ecdbaa8bd82a9d4928982815181106106585761065761314e565b5b60200260200101518360405161066f9291906129b3565b60405180910390a18080610682906130a7565b915050610555565b506106e56005546006600061069d61107d565b73ffffffffffffffffffffffffffffffffffffffff1673ffffffffffffffffffffffffffffffffffffffff16815260200190815260200160002061108590919063ffffffff16565b50505050505050505050565b6009600085815260200190815260200160002060009054906101000a900460ff16610751576040517f08c379a000000000000000000000000000000000000000000000000000000000815260040161074890612913565b60405180910390fd5b83600860008573ffffffffffffffffffffffffffffffffffffffff1673ffffffffffffffffffffffffffffffffffffffff168152602001908152602001600020600086815260200190815260200160002060000154146107e6576040517f08c379a00000000000000000000000000000000000000000000000000000000081526004016107dd906128b3565b60405180910390fd5b600860008473ffffffffffffffffffffffffffffffffffffffff1673ffffffffffffffffffffffffffffffffffffffff168152602001908152602001600020600085815260200190815260200160002060010160149054906101000a900460ff1615610887576040517f08c379a000000000000000000000000000000000000000000000000000000000815260040161087e90612873565b60405180910390fd5b81516007600086815260200190815260200160002060040160009054906101000a900461ffff1661ffff16146108f2576040517f08c379a00000000000000000000000000000000000000000000000000000000081526004016108e990612993565b60405180910390fd5b6000805b825181101561095f578281815181106109125761091161314e565b5b602002602001015183828151811061092d5761092c61314e565b5b602002602001015161093f9190612e91565b8261094a9190612e3b565b91508080610957906130a7565b9150506108f6565b5080600860008673ffffffffffffffffffffffffffffffffffffffff1673ffffffffffffffffffffffffffffffffffffffff16815260200190815260200160002060008781526020019081526020016000206002015410156109f6576040517f08c379a00000000000000000000000000000000000000000000000000000000081526004016109ed90612933565b60405180910390fd5b610a1f848484600760008a8152602001908152602001600020611156909392919063ffffffff16565b50610a7a858460066000610a3161107d565b73ffffffffffffffffffffffffffffffffffffffff1673ffffffffffffffffffffffffffffffffffffffff1681526020019081526020016000206115c59092919063ffffffff16565b50610ad3600860008673ffffffffffffffffffffffffffffffffffffffff1673ffffffffffffffffffffffffffffffffffffffff1681526020019081526020016000206000878152602001908152602001600020611752565b506001600860008673ffffffffffffffffffffffffffffffffffffffff1673ffffffffffffffffffffffffffffffffffffffff168152602001908152602001600020600087815260200190815260200160002060010160146101000a81548160ff021916908315150217905550610b628460076000600554815260200190815260200160002060050154611800565b7fabf5327be9f5825c40d58bda541dd07f09b62df3376bbd5ecdbaa8bd82a9d4928460076000600554815260200190815260200160002060050154604051610bab929190612a0f565b60405180910390a15050505050565b60008060008373ffffffffffffffffffffffffffffffffffffffff1673ffffffffffffffffffffffffffffffffffffffff168152602001908152602001600020549050919050565b606060038054610c1190612fe0565b80601f0160208091040260200160405190810160405280929190818152602001828054610c3d90612fe0565b8015610c8a5780601f10610c5f57610100808354040283529160200191610c8a565b820191906000526020600020905b815481529060010190602001808311610c6d57829003601f168201915b5050505050905090565b6008602052816000526040600020602052806000526040600020600091509150508060000154908060010160009054906101000a900473ffffffffffffffffffffffffffffffffffffffff16908060010160149054906101000a900460ff16908060020154905084565b60066020528060005260406000206000915090508060000160009054906101000a90046fffffffffffffffffffffffffffffffff16908060000160109054906101000a90046fffffffffffffffffffffffffffffffff16905082565b6000878b60000160006101000a81548173ffffffffffffffffffffffffffffffffffffffff021916908373ffffffffffffffffffffffffffffffffffffffff160217905550898b60000160146101000a81548160ff021916908360ff160217905550848b6001019080519060200190610dd4929190611b1e565b50868b60020181905550858b60030181905550828290508b60040160006101000a81548161ffff021916908361ffff160217905550838b6005018190555060005b83839050811015610ee55760018c600701858584818110610e3957610e3861314e565b5b9050602002810190610e4b9190612bb5565b604051610e59929190612734565b908152602001604051809103902060006101000a81548160ff021916908315150217905550838382818110610e9157610e9061314e565b5b9050602002810190610ea39190612bb5565b8d6008016000600185610eb69190612e3b565b81526020019081526020016000209190610ed1929190611ba4565b508080610edd906130a7565b915050610e15565b5060005b8951811015610f795760018c60060160008c8481518110610f0d57610f0c61314e565b5b602002602001015173ffffffffffffffffffffffffffffffffffffffff1673ffffffffffffffffffffffffffffffffffffffff16815260200190815260200160002060006101000a81548160ff0219169083151502179055508080610f71906130a7565b915050610ee9565b50600190509a9950505050505050505050565b610f9461107d565b8073ffffffffffffffffffffffffffffffffffffffff16600460009054906101000a900473ffffffffffffffffffffffffffffffffffffffff1673ffffffffffffffffffffffffffffffffffffffff1614610fee57600080fd5b610ff88383611871565b505050565b6000848660000181905550838660010160006101000a81548173ffffffffffffffffffffffffffffffffffffffff021916908373ffffffffffffffffffffffffffffffffffffffff160217905550828660010160146101000a81548160ff0219169083151502179055508186600201819055506001905095945050505050565b600033905090565b600082600001600081819054906101000a90046fffffffffffffffffffffffffffffffff16809291906110b790613043565b91906101000a8154816fffffffffffffffffffffffffffffffff02191690836fffffffffffffffffffffffffffffffff16021790555050818360010160008560000160009054906101000a90046fffffffffffffffffffffffffffffffff166fffffffffffffffffffffffffffffffff166fffffffffffffffffffffffffffffffff168152602001908152602001600020819055506001905092915050565b600060028560000160149054906101000a900460ff1660ff16146111af576040517f08c379a00000000000000000000000000000000000000000000000000000000081526004016111a690612813565b60405180910390fd5b84600301544211156114055760028560000160146101000a81548160ff021916908360ff160217905550600085600a01866008016000600181526020019081526020016000206040516112029190612764565b9081526020016040518091039020549050600060019050866008016000600181526020019081526020016000208760090160006001815260200190815260200160002090805461125190612fe0565b61125c929190611c2a565b506000600290505b8760040160009054906101000a900461ffff1661ffff168161ffff16116113f9578288600a018960080160008461ffff1681526020019081526020016000206040516112b09190612764565b90815260200160405180910390205411156113505787600a018860080160008361ffff1681526020019081526020016000206040516112ef9190612764565b9081526020016040518091039020549250600191508760080160008261ffff1681526020019081526020016000208860090160006001815260200190815260200160002090805461133f90612fe0565b61134a929190611c2a565b506113e6565b8288600a018960080160008461ffff16815260200190815260200160002060405161137b9190612764565b90815260200160405180910390205414156113e557818061139b906130a7565b9250508760080160008261ffff1681526020019081526020016000208860090160008481526020019081526020016000209080546113d890612fe0565b6113e3929190611c2a565b505b5b80806113f19061307c565b915050611264565b506000925050506115bd565b8460060160008573ffffffffffffffffffffffffffffffffffffffff1673ffffffffffffffffffffffffffffffffffffffff16815260200190815260200160002060009054906101000a900460ff16611493576040517f08c379a000000000000000000000000000000000000000000000000000000000815260040161148a906128f3565b60405180910390fd5b60005b8560040160009054906101000a900461ffff1661ffff168161ffff1610156115b75785600701848261ffff16815181106114d3576114d261314e565b5b60200260200101516040516114e8919061274d565b908152602001604051809103902060009054906101000a900460ff16611543576040517f08c379a000000000000000000000000000000000000000000000000000000000815260040161153a90612893565b60405180910390fd5b828161ffff168151811061155a5761155961314e565b5b602002602001015186600a01858361ffff168151811061157d5761157c61314e565b5b6020026020010151604051611592919061274d565b90815260200160405180910390208190555080806115af9061307c565b915050611496565b50600190505b949350505050565b600083600001601081819054906101000a90046fffffffffffffffffffffffffffffffff16809291906115f790613043565b91906101000a8154816fffffffffffffffffffffffffffffffff02191690836fffffffffffffffffffffffffffffffff16021790555050828460020160008660000160109054906101000a90046fffffffffffffffffffffffffffffffff166fffffffffffffffffffffffffffffffff166fffffffffffffffffffffffffffffffff1681526020019081526020016000208190555060005b82518161ffff16101561171857828161ffff16815181106116b3576116b261314e565b5b602002602001015185600301600086815260200190815260200160002060006001846116df9190612e03565b61ffff1681526020019081526020016000209080519060200190611704929190611b1e565b5080806117109061307c565b91505061168f565b50600184600401600085815260200190815260200160002060006101000a81548160ff021916908315150217905550600190509392505050565b6000808260000154141561179b576040517f08c379a0000000000000000000000000000000000000000000000000000000008152600401611792906129ef565b60405180910390fd5b8160010160149054906101000a900460ff16156117ed576040517f08c379a00000000000000000000000000000000000000000000000000000000081526004016117e490612a4b565b60405180910390fd5b6000826002018190555060019050919050565b61180861107d565b8073ffffffffffffffffffffffffffffffffffffffff16600460009054906101000a900473ffffffffffffffffffffffffffffffffffffffff1673ffffffffffffffffffffffffffffffffffffffff161461186257600080fd5b61186c838361198c565b505050565b600073ffffffffffffffffffffffffffffffffffffffff168273ffffffffffffffffffffffffffffffffffffffff1614156118e1576040517f08c379a00000000000000000000000000000000000000000000000000000000081526004016118d890612a6b565b60405180910390fd5b80600160008282546118f39190612e3b565b92505081905550806000808473ffffffffffffffffffffffffffffffffffffffff1673ffffffffffffffffffffffffffffffffffffffff16815260200190815260200160002060008282546119489190612e3b565b925050819055507fabf5327be9f5825c40d58bda541dd07f09b62df3376bbd5ecdbaa8bd82a9d49282826040516119809291906129b3565b60405180910390a15050565b600073ffffffffffffffffffffffffffffffffffffffff168273ffffffffffffffffffffffffffffffffffffffff1614156119fc576040517f08c379a00000000000000000000000000000000000000000000000000000000081526004016119f390612973565b60405180910390fd5b60008060008473ffffffffffffffffffffffffffffffffffffffff1673ffffffffffffffffffffffffffffffffffffffff16815260200190815260200160002054905081811015611a82576040517f08c379a0000000000000000000000000000000000000000000000000000000008152600401611a7990612853565b60405180910390fd5b8181036000808573ffffffffffffffffffffffffffffffffffffffff1673ffffffffffffffffffffffffffffffffffffffff168152602001908152602001600020819055508160016000828254611ad99190612eeb565b925050819055507fabf5327be9f5825c40d58bda541dd07f09b62df3376bbd5ecdbaa8bd82a9d4928383604051611b11929190612a0f565b60405180910390a1505050565b828054611b2a90612fe0565b90600052602060002090601f016020900481019282611b4c5760008555611b93565b82601f10611b6557805160ff1916838001178555611b93565b82800160010185558215611b93579182015b82811115611b92578251825591602001919060010190611b77565b5b509050611ba09190611cb7565b5090565b828054611bb090612fe0565b90600052602060002090601f016020900481019282611bd25760008555611c19565b82601f10611beb57803560ff1916838001178555611c19565b82800160010185558215611c19579182015b82811115611c18578235825591602001919060010190611bfd565b5b509050611c269190611cb7565b5090565b828054611c3690612fe0565b90600052602060002090601f016020900481019282611c585760008555611ca6565b82601f10611c695780548555611ca6565b82800160010185558215611ca657600052602060002091601f016020900482015b82811115611ca5578254825591600101919060010190611c8a565b5b509050611cb39190611cb7565b5090565b5b80821115611cd0576000816000905550600101611cb8565b5090565b6000611ce7611ce284612c3d565b612c18565b90508083825260208201905082856020860282011115611d0a57611d096131ca565b5b60005b85811015611d3a5781611d208882611e84565b845260208401935060208301925050600181019050611d0d565b5050509392505050565b6000611d57611d5284612c69565b612c18565b90508083825260208201905082856020860282011115611d7a57611d796131ca565b5b60005b85811015611dc857813567ffffffffffffffff811115611da057611d9f6131b6565b5b808601611dad8982611f79565b85526020850194506020840193505050600181019050611d7d565b5050509392505050565b6000611de5611de084612c95565b612c18565b90508083825260208201905082856020860282011115611e0857611e076131ca565b5b60005b85811015611e385781611e1e8882611fa7565b845260208401935060208301925050600181019050611e0b565b5050509392505050565b6000611e55611e5084612cc1565b612c18565b905082815260208101848484011115611e7157611e706131d4565b5b611e7c848285612f9e565b509392505050565b600081359050611e938161360b565b92915050565b600082601f830112611eae57611ead6131b6565b5b8135611ebe848260208601611cd4565b91505092915050565b60008083601f840112611edd57611edc6131b6565b5b8235905067ffffffffffffffff811115611efa57611ef96131b1565b5b602083019150836020820283011115611f1657611f156131ca565b5b9250929050565b600082601f830112611f3257611f316131b6565b5b8135611f42848260208601611d44565b91505092915050565b600082601f830112611f6057611f5f6131b6565b5b8135611f70848260208601611dd2565b91505092915050565b600082601f830112611f8e57611f8d6131b6565b5b8135611f9e848260208601611e42565b91505092915050565b600081359050611fb681613622565b92915050565b600081359050611fcb81613639565b92915050565b600060208284031215611fe757611fe66131e3565b5b6000611ff584828501611e84565b91505092915050565b60008060408385031215612015576120146131e3565b5b600061202385828601611e84565b925050602061203485828601611fa7565b9150509250929050565b600060208284031215612054576120536131e3565b5b600061206284828501611fa7565b91505092915050565b60008060008060808587031215612085576120846131e3565b5b600061209387828801611fa7565b94505060206120a487828801611e84565b935050604085013567ffffffffffffffff8111156120c5576120c46131d9565b5b6120d187828801611f1d565b925050606085013567ffffffffffffffff8111156120f2576120f16131d9565b5b6120fe87828801611f4b565b91505092959194509250565b60008060008060008060008060006101008a8c03121561212d5761212c6131e3565b5b600061213b8c828d01611fbc565b99505060208a013567ffffffffffffffff81111561215c5761215b6131d9565b5b6121688c828d01611e99565b98505060406121798c828d01611e84565b975050606061218a8c828d01611fa7565b965050608061219b8c828d01611fa7565b95505060a08a013567ffffffffffffffff8111156121bc576121bb6131d9565b5b6121c88c828d01611f79565b94505060c08a013567ffffffffffffffff8111156121e9576121e86131d9565b5b6121f58c828d01611ec7565b935093505060e06122088c828d01611fa7565b9150509295985092959850929598565b60006122248383612246565b60208301905092915050565b600061223d848484612347565b90509392505050565b61224f81612f1f565b82525050565b61225e81612f1f565b82525050565b600061226f82612d21565b6122798185612d51565b935061228483612cf2565b8060005b838110156122b557815161229c8882612218565b97506122a783612d37565b925050600181019050612288565b5085935050505092915050565b60006122ce8385612d62565b9350836020840285016122e084612d02565b8060005b878110156123265784840389526122fb8284612da0565b612306868284612230565b955061231184612d44565b935060208b019a5050506001810190506122e4565b50829750879450505050509392505050565b61234181612f31565b82525050565b60006123538385612d73565b9350612360838584612f9e565b612369836131e8565b840190509392505050565b60006123808385612d95565b935061238d838584612f9e565b82840190509392505050565b60006123a482612d2c565b6123ae8185612d84565b93506123be818560208601612fad565b6123c7816131e8565b840191505092915050565b60006123dd82612d2c565b6123e78185612d95565b93506123f7818560208601612fad565b80840191505092915050565b6000815461241081612fe0565b61241a8186612d95565b94506001821660008114612435576001811461244657612479565b60ff19831686528186019350612479565b61244f85612d0c565b60005b8381101561247157815481890152600182019150602081019050612452565b838801955050505b50505092915050565b600061248f601283612d84565b915061249a826131f9565b602082019050919050565b60006124b2602c83612d84565b91506124bd82613222565b604082019050919050565b60006124d5602283612d84565b91506124e082613271565b604082019050919050565b60006124f8600d83612d84565b9150612503826132c0565b602082019050919050565b600061251b601b83612d84565b9150612526826132e9565b602082019050919050565b600061253e602383612d84565b915061254982613312565b604082019050919050565b6000612561601483612d84565b915061256c82613361565b602082019050919050565b6000612584602383612d84565b915061258f8261338a565b604082019050919050565b60006125a7601283612d84565b91506125b2826133d9565b602082019050919050565b60006125ca602383612d84565b91506125d582613402565b604082019050919050565b60006125ed602a83612d84565b91506125f882613451565b604082019050919050565b6000612610602183612d84565b915061261b826134a0565b604082019050919050565b6000612633602483612d84565b915061263e826134ef565b604082019050919050565b6000612656600483612d84565b91506126618261353e565b602082019050919050565b6000612679601d83612d84565b915061268482613567565b602082019050919050565b600061269c600483612d84565b91506126a782613590565b602082019050919050565b60006126bf600983612d84565b91506126ca826135b9565b602082019050919050565b60006126e2601f83612d84565b91506126ed826135e2565b602082019050919050565b61270181612f3d565b82525050565b61271081612f59565b82525050565b61271f81612f87565b82525050565b61272e81612f91565b82525050565b6000612741828486612374565b91508190509392505050565b600061275982846123d2565b915081905092915050565b60006127708284612403565b915081905092915050565b600060e082019050612790600083018a612255565b61279d6020830189612725565b81810360408301526127af8188612399565b90506127be6060830187612716565b6127cb6080830186612716565b6127d860a0830185612707565b6127e560c0830184612716565b98975050505050505050565b6000602082019050818103600083015261280b8184612399565b905092915050565b6000602082019050818103600083015261282c81612482565b9050919050565b6000602082019050818103600083015261284c816124a5565b9050919050565b6000602082019050818103600083015261286c816124c8565b9050919050565b6000602082019050818103600083015261288c816124eb565b9050919050565b600060208201905081810360008301526128ac8161250e565b9050919050565b600060208201905081810360008301526128cc81612531565b9050919050565b600060208201905081810360008301526128ec81612554565b9050919050565b6000602082019050818103600083015261290c81612577565b9050919050565b6000602082019050818103600083015261292c8161259a565b9050919050565b6000602082019050818103600083015261294c816125bd565b9050919050565b6000602082019050818103600083015261296c816125e0565b9050919050565b6000602082019050818103600083015261298c81612603565b9050919050565b600060208201905081810360008301526129ac81612626565b9050919050565b600060608201905081810360008301526129cc81612649565b90506129db6020830185612255565b6129e86040830184612716565b9392505050565b60006020820190508181036000830152612a088161266c565b9050919050565b60006060820190508181036000830152612a288161268f565b9050612a376020830185612255565b612a446040830184612716565b9392505050565b60006020820190508181036000830152612a64816126b2565b9050919050565b60006020820190508181036000830152612a84816126d5565b9050919050565b6000604082019050612aa060008301856126f8565b612aad60208301846126f8565b9392505050565b6000602082019050612ac96000830184612716565b92915050565b6000608082019050612ae46000830187612716565b612af16020830186612255565b612afe6040830185612338565b612b0b6060830184612716565b95945050505050565b600060e082019050612b29600083018b612716565b8181036020830152612b3b818a612264565b9050612b4a6040830189612255565b612b576060830188612716565b612b646080830187612716565b81810360a0830152612b768186612399565b905081810360c0830152612b8b8184866122c2565b90509998505050505050505050565b6000602082019050612baf6000830184612725565b92915050565b60008083356001602003843603038112612bd257612bd16131c0565b5b80840192508235915067ffffffffffffffff821115612bf457612bf36131bb565b5b602083019250600182023603831315612c1057612c0f6131cf565b5b509250929050565b6000612c22612c33565b9050612c2e8282613012565b919050565b6000604051905090565b600067ffffffffffffffff821115612c5857612c5761317d565b5b602082029050602081019050919050565b600067ffffffffffffffff821115612c8457612c8361317d565b5b602082029050602081019050919050565b600067ffffffffffffffff821115612cb057612caf61317d565b5b602082029050602081019050919050565b600067ffffffffffffffff821115612cdc57612cdb61317d565b5b612ce5826131e8565b9050602081019050919050565b6000819050602082019050919050565b6000819050919050565b60008190508160005260206000209050919050565b600081519050919050565b600081519050919050565b6000602082019050919050565b6000602082019050919050565b600082825260208201905092915050565b600082825260208201905092915050565b600082825260208201905092915050565b600082825260208201905092915050565b600081905092915050565b60008083356001602003843603038112612dbd57612dbc6131de565b5b83810192508235915060208301925067ffffffffffffffff821115612de557612de46131ac565b5b600182023603841315612dfb57612dfa6131c5565b5b509250929050565b6000612e0e82612f59565b9150612e1983612f59565b92508261ffff03821115612e3057612e2f6130f0565b5b828201905092915050565b6000612e4682612f87565b9150612e5183612f87565b9250827fffffffffffffffffffffffffffffffffffffffffffffffffffffffffffffffff03821115612e8657612e856130f0565b5b828201905092915050565b6000612e9c82612f87565b9150612ea783612f87565b9250817fffffffffffffffffffffffffffffffffffffffffffffffffffffffffffffffff0483118215151615612ee057612edf6130f0565b5b828202905092915050565b6000612ef682612f87565b9150612f0183612f87565b925082821015612f1457612f136130f0565b5b828203905092915050565b6000612f2a82612f67565b9050919050565b60008115159050919050565b60006fffffffffffffffffffffffffffffffff82169050919050565b600061ffff82169050919050565b600073ffffffffffffffffffffffffffffffffffffffff82169050919050565b6000819050919050565b600060ff82169050919050565b82818337600083830152505050565b60005b83811015612fcb578082015181840152602081019050612fb0565b83811115612fda576000848401525b50505050565b60006002820490506001821680612ff857607f821691505b6020821081141561300c5761300b61311f565b5b50919050565b61301b826131e8565b810181811067ffffffffffffffff8211171561303a5761303961317d565b5b80604052505050565b600061304e82612f3d565b91506fffffffffffffffffffffffffffffffff821415613071576130706130f0565b5b600182019050919050565b600061308782612f59565b915061ffff82141561309c5761309b6130f0565b5b600182019050919050565b60006130b282612f87565b91507fffffffffffffffffffffffffffffffffffffffffffffffffffffffffffffffff8214156130e5576130e46130f0565b5b600182019050919050565b7f4e487b7100000000000000000000000000000000000000000000000000000000600052601160045260246000fd5b7f4e487b7100000000000000000000000000000000000000000000000000000000600052602260045260246000fd5b7f4e487b7100000000000000000000000000000000000000000000000000000000600052603260045260246000fd5b7f4e487b7100000000000000000000000000000000000000000000000000000000600052604160045260246000fd5b600080fd5b600080fd5b600080fd5b600080fd5b600080fd5b600080fd5b600080fd5b600080fd5b600080fd5b600080fd5b600080fd5b600080fd5b6000601f19601f8301169050919050565b7f50726f706f73616c3a20696e6163746976650000000000000000000000000000600082015250565b7f456e642074696d652073686f756c642062652067726561746572207468616e2060008201527f63757272656e742074696d650000000000000000000000000000000000000000602082015250565b7f45524332303a206275726e20616d6f756e7420657863656564732062616c616e60008201527f6365000000000000000000000000000000000000000000000000000000000000602082015250565b7f616c726561647920766f74656400000000000000000000000000000000000000600082015250565b7f50726f706f73616c3a20696e76616c69642063616e6469646174650000000000600082015250565b7f6e6f7420612076616c696420766f74657220666f7220746869732070726f706f60008201527f73616c0000000000000000000000000000000000000000000000000000000000602082015250565b7f70726f706f73616c206e6f742073746172746564000000000000000000000000600082015250565b7f4e6f7420612076616c696420766f74657220666f7220746869732070726f706f60008201527f73616c0000000000000000000000000000000000000000000000000000000000602082015250565b7f696e76616c69642070726f706f73616c49640000000000000000000000000000600082015250565b7f6e6f742073756666696369656e742062616c616e636520746f2063617374207660008201527f6f74650000000000000000000000000000000000000000000000000000000000602082015250565b7f456e642074696d652073686f756c642062652067726561746572207468616e2060008201527f73746172742074696d6500000000000000000000000000000000000000000000602082015250565b7f45524332303a206275726e2066726f6d20746865207a65726f2061646472657360008201527f7300000000000000000000000000000000000000000000000000000000000000602082015250565b7f6e6f7420612076616c6964206c656e677468206f66206861736820726573706f60008201527f6e73652100000000000000000000000000000000000000000000000000000000602082015250565b7f6d696e7400000000000000000000000000000000000000000000000000000000600082015250565b7f496e76616c696420766f74657220666f722070726f706f73616c496421000000600082015250565b7f6275726e00000000000000000000000000000000000000000000000000000000600082015250565b7f6e6f7420766f7465640000000000000000000000000000000000000000000000600082015250565b7f45524332303a206d696e7420746f20746865207a65726f206164647265737300600082015250565b61361481612f1f565b811461361f57600080fd5b50565b61362b81612f87565b811461363657600080fd5b50565b61364281612f91565b811461364d57600080fd5b5056fea2646970667358221220acde94dc2be50bd9ac89ca6f15b3e7962b8774469b46be63d55bf0cf980f407464736f6c63430008070033",
					"opcodes": "PUSH1 0x80 PUSH1 0x40 MSTORE CALLVALUE DUP1 ISZERO PUSH3 0x11 JUMPI PUSH1 0x0 DUP1 REVERT JUMPDEST POP PUSH1 0x40 MLOAD DUP1 PUSH1 0x40 ADD PUSH1 0x40 MSTORE DUP1 PUSH1 0xC DUP2 MSTORE PUSH1 0x20 ADD PUSH32 0x51566F74696E67546F6B656E0000000000000000000000000000000000000000 DUP2 MSTORE POP PUSH1 0x40 MLOAD DUP1 PUSH1 0x40 ADD PUSH1 0x40 MSTORE DUP1 PUSH1 0x2 DUP2 MSTORE PUSH1 0x20 ADD PUSH32 0x5176000000000000000000000000000000000000000000000000000000000000 DUP2 MSTORE POP DUP2 PUSH1 0x2 SWAP1 DUP1 MLOAD SWAP1 PUSH1 0x20 ADD SWAP1 PUSH3 0x96 SWAP3 SWAP2 SWAP1 PUSH3 0xF9 JUMP JUMPDEST POP DUP1 PUSH1 0x3 SWAP1 DUP1 MLOAD SWAP1 PUSH1 0x20 ADD SWAP1 PUSH3 0xAF SWAP3 SWAP2 SWAP1 PUSH3 0xF9 JUMP JUMPDEST POP POP POP CALLER PUSH1 0x4 PUSH1 0x0 PUSH2 0x100 EXP DUP2 SLOAD DUP2 PUSH20 0xFFFFFFFFFFFFFFFFFFFFFFFFFFFFFFFFFFFFFFFF MUL NOT AND SWAP1 DUP4 PUSH20 0xFFFFFFFFFFFFFFFFFFFFFFFFFFFFFFFFFFFFFFFF AND MUL OR SWAP1 SSTORE POP PUSH3 0x20E JUMP JUMPDEST DUP3 DUP1 SLOAD PUSH3 0x107 SWAP1 PUSH3 0x1A9 JUMP JUMPDEST SWAP1 PUSH1 0x0 MSTORE PUSH1 0x20 PUSH1 0x0 KECCAK256 SWAP1 PUSH1 0x1F ADD PUSH1 0x20 SWAP1 DIV DUP2 ADD SWAP3 DUP3 PUSH3 0x12B JUMPI PUSH1 0x0 DUP6 SSTORE PUSH3 0x177 JUMP JUMPDEST DUP3 PUSH1 0x1F LT PUSH3 0x146 JUMPI DUP1 MLOAD PUSH1 0xFF NOT AND DUP4 DUP1 ADD OR DUP6 SSTORE PUSH3 0x177 JUMP JUMPDEST DUP3 DUP1 ADD PUSH1 0x1 ADD DUP6 SSTORE DUP3 ISZERO PUSH3 0x177 JUMPI SWAP2 DUP3 ADD JUMPDEST DUP3 DUP2 GT ISZERO PUSH3 0x176 JUMPI DUP3 MLOAD DUP3 SSTORE SWAP2 PUSH1 0x20 ADD SWAP2 SWAP1 PUSH1 0x1 ADD SWAP1 PUSH3 0x159 JUMP JUMPDEST JUMPDEST POP SWAP1 POP PUSH3 0x186 SWAP2 SWAP1 PUSH3 0x18A JUMP JUMPDEST POP SWAP1 JUMP JUMPDEST JUMPDEST DUP1 DUP3 GT ISZERO PUSH3 0x1A5 JUMPI PUSH1 0x0 DUP2 PUSH1 0x0 SWAP1 SSTORE POP PUSH1 0x1 ADD PUSH3 0x18B JUMP JUMPDEST POP SWAP1 JUMP JUMPDEST PUSH1 0x0 PUSH1 0x2 DUP3 DIV SWAP1 POP PUSH1 0x1 DUP3 AND DUP1 PUSH3 0x1C2 JUMPI PUSH1 0x7F DUP3 AND SWAP2 POP JUMPDEST PUSH1 0x20 DUP3 LT DUP2 EQ ISZERO PUSH3 0x1D9 JUMPI PUSH3 0x1D8 PUSH3 0x1DF JUMP JUMPDEST JUMPDEST POP SWAP2 SWAP1 POP JUMP JUMPDEST PUSH32 0x4E487B7100000000000000000000000000000000000000000000000000000000 PUSH1 0x0 MSTORE PUSH1 0x22 PUSH1 0x4 MSTORE PUSH1 0x24 PUSH1 0x0 REVERT JUMPDEST PUSH2 0x3686 DUP1 PUSH3 0x21E PUSH1 0x0 CODECOPY PUSH1 0x0 RETURN INVALID PUSH1 0x80 PUSH1 0x40 MSTORE CALLVALUE DUP1 ISZERO PUSH2 0x10 JUMPI PUSH1 0x0 DUP1 REVERT JUMPDEST POP PUSH1 0x4 CALLDATASIZE LT PUSH2 0x9E JUMPI PUSH1 0x0 CALLDATALOAD PUSH1 0xE0 SHR DUP1 PUSH4 0x5C230EEE GT PUSH2 0x66 JUMPI DUP1 PUSH4 0x5C230EEE EQ PUSH2 0x14F JUMPI DUP1 PUSH4 0x70A08231 EQ PUSH2 0x16B JUMPI DUP1 PUSH4 0x95D89B41 EQ PUSH2 0x19B JUMPI DUP1 PUSH4 0xAB9C70D4 EQ PUSH2 0x1B9 JUMPI DUP1 PUSH4 0xE745D68E EQ PUSH2 0x1EC JUMPI PUSH2 0x9E JUMP JUMPDEST DUP1 PUSH4 0x13CF08B EQ PUSH2 0xA3 JUMPI DUP1 PUSH4 0x6FDDE03 EQ PUSH2 0xD9 JUMPI DUP1 PUSH4 0x18160DDD EQ PUSH2 0xF7 JUMPI DUP1 PUSH4 0x313CE567 EQ PUSH2 0x115 JUMPI DUP1 PUSH4 0x4DE77E48 EQ PUSH2 0x133 JUMPI JUMPDEST PUSH1 0x0 DUP1 REVERT JUMPDEST PUSH2 0xBD PUSH1 0x4 DUP1 CALLDATASIZE SUB DUP2 ADD SWAP1 PUSH2 0xB8 SWAP2 SWAP1 PUSH2 0x203E JUMP JUMPDEST PUSH2 0x21D JUMP JUMPDEST PUSH1 0x40 MLOAD PUSH2 0xD0 SWAP8 SWAP7 SWAP6 SWAP5 SWAP4 SWAP3 SWAP2 SWAP1 PUSH2 0x277B JUMP JUMPDEST PUSH1 0x40 MLOAD DUP1 SWAP2 SUB SWAP1 RETURN JUMPDEST PUSH2 0xE1 PUSH2 0x322 JUMP JUMPDEST PUSH1 0x40 MLOAD PUSH2 0xEE SWAP2 SWAP1 PUSH2 0x27F1 JUMP JUMPDEST PUSH1 0x40 MLOAD DUP1 SWAP2 SUB SWAP1 RETURN JUMPDEST PUSH2 0xFF PUSH2 0x3B4 JUMP JUMPDEST PUSH1 0x40 MLOAD PUSH2 0x10C SWAP2 SWAP1 PUSH2 0x2AB4 JUMP JUMPDEST PUSH1 0x40 MLOAD DUP1 SWAP2 SUB SWAP1 RETURN JUMPDEST PUSH2 0x11D PUSH2 0x3BE JUMP JUMPDEST PUSH1 0x40 MLOAD PUSH2 0x12A SWAP2 SWAP1 PUSH2 0x2B9A JUMP JUMPDEST PUSH1 0x40 MLOAD DUP1 SWAP2 SUB SWAP1 RETURN JUMPDEST PUSH2 0x14D PUSH1 0x4 DUP1 CALLDATASIZE SUB DUP2 ADD SWAP1 PUSH2 0x148 SWAP2 SWAP1 PUSH2 0x210A JUMP JUMPDEST PUSH2 0x3C7 JUMP JUMPDEST STOP JUMPDEST PUSH2 0x169 PUSH1 0x4 DUP1 CALLDATASIZE SUB DUP2 ADD SWAP1 PUSH2 0x164 SWAP2 SWAP1 PUSH2 0x206B JUMP JUMPDEST PUSH2 0x6F1 JUMP JUMPDEST STOP JUMPDEST PUSH2 0x185 PUSH1 0x4 DUP1 CALLDATASIZE SUB DUP2 ADD SWAP1 PUSH2 0x180 SWAP2 SWAP1 PUSH2 0x1FD1 JUMP JUMPDEST PUSH2 0xBBA JUMP JUMPDEST PUSH1 0x40 MLOAD PUSH2 0x192 SWAP2 SWAP1 PUSH2 0x2AB4 JUMP JUMPDEST PUSH1 0x40 MLOAD DUP1 SWAP2 SUB SWAP1 RETURN JUMPDEST PUSH2 0x1A3 PUSH2 0xC02 JUMP JUMPDEST PUSH1 0x40 MLOAD PUSH2 0x1B0 SWAP2 SWAP1 PUSH2 0x27F1 JUMP JUMPDEST PUSH1 0x40 MLOAD DUP1 SWAP2 SUB SWAP1 RETURN JUMPDEST PUSH2 0x1D3 PUSH1 0x4 DUP1 CALLDATASIZE SUB DUP2 ADD SWAP1 PUSH2 0x1CE SWAP2 SWAP1 PUSH2 0x1FFE JUMP JUMPDEST PUSH2 0xC94 JUMP JUMPDEST PUSH1 0x40 MLOAD PUSH2 0x1E3 SWAP5 SWAP4 SWAP3 SWAP2 SWAP1 PUSH2 0x2ACF JUMP JUMPDEST PUSH1 0x40 MLOAD DUP1 SWAP2 SUB SWAP1 RETURN JUMPDEST PUSH2 0x206 PUSH1 0x4 DUP1 CALLDATASIZE SUB DUP2 ADD SWAP1 PUSH2 0x201 SWAP2 SWAP1 PUSH2 0x1FD1 JUMP JUMPDEST PUSH2 0xCFE JUMP JUMPDEST PUSH1 0x40 MLOAD PUSH2 0x214 SWAP3 SWAP2 SWAP1 PUSH2 0x2A8B JUMP JUMPDEST PUSH1 0x40 MLOAD DUP1 SWAP2 SUB SWAP1 RETURN JUMPDEST PUSH1 0x7 PUSH1 0x20 MSTORE DUP1 PUSH1 0x0 MSTORE PUSH1 0x40 PUSH1 0x0 KECCAK256 PUSH1 0x0 SWAP2 POP SWAP1 POP DUP1 PUSH1 0x0 ADD PUSH1 0x0 SWAP1 SLOAD SWAP1 PUSH2 0x100 EXP SWAP1 DIV PUSH20 0xFFFFFFFFFFFFFFFFFFFFFFFFFFFFFFFFFFFFFFFF AND SWAP1 DUP1 PUSH1 0x0 ADD PUSH1 0x14 SWAP1 SLOAD SWAP1 PUSH2 0x100 EXP SWAP1 DIV PUSH1 0xFF AND SWAP1 DUP1 PUSH1 0x1 ADD DUP1 SLOAD PUSH2 0x279 SWAP1 PUSH2 0x2FE0 JUMP JUMPDEST DUP1 PUSH1 0x1F ADD PUSH1 0x20 DUP1 SWAP2 DIV MUL PUSH1 0x20 ADD PUSH1 0x40 MLOAD SWAP1 DUP2 ADD PUSH1 0x40 MSTORE DUP1 SWAP3 SWAP2 SWAP1 DUP2 DUP2 MSTORE PUSH1 0x20 ADD DUP3 DUP1 SLOAD PUSH2 0x2A5 SWAP1 PUSH2 0x2FE0 JUMP JUMPDEST DUP1 ISZERO PUSH2 0x2F2 JUMPI DUP1 PUSH1 0x1F LT PUSH2 0x2C7 JUMPI PUSH2 0x100 DUP1 DUP4 SLOAD DIV MUL DUP4 MSTORE SWAP2 PUSH1 0x20 ADD SWAP2 PUSH2 0x2F2 JUMP JUMPDEST DUP3 ADD SWAP2 SWAP1 PUSH1 0x0 MSTORE PUSH1 0x20 PUSH1 0x0 KECCAK256 SWAP1 JUMPDEST DUP2 SLOAD DUP2 MSTORE SWAP1 PUSH1 0x1 ADD SWAP1 PUSH1 0x20 ADD DUP1 DUP4 GT PUSH2 0x2D5 JUMPI DUP3 SWAP1 SUB PUSH1 0x1F AND DUP3 ADD SWAP2 JUMPDEST POP POP POP POP POP SWAP1 DUP1 PUSH1 0x2 ADD SLOAD SWAP1 DUP1 PUSH1 0x3 ADD SLOAD SWAP1 DUP1 PUSH1 0x4 ADD PUSH1 0x0 SWAP1 SLOAD SWAP1 PUSH2 0x100 EXP SWAP1 DIV PUSH2 0xFFFF AND SWAP1 DUP1 PUSH1 0x5 ADD SLOAD SWAP1 POP DUP8 JUMP JUMPDEST PUSH1 0x60 PUSH1 0x2 DUP1 SLOAD PUSH2 0x331 SWAP1 PUSH2 0x2FE0 JUMP JUMPDEST DUP1 PUSH1 0x1F ADD PUSH1 0x20 DUP1 SWAP2 DIV MUL PUSH1 0x20 ADD PUSH1 0x40 MLOAD SWAP1 DUP2 ADD PUSH1 0x40 MSTORE DUP1 SWAP3 SWAP2 SWAP1 DUP2 DUP2 MSTORE PUSH1 0x20 ADD DUP3 DUP1 SLOAD PUSH2 0x35D SWAP1 PUSH2 0x2FE0 JUMP JUMPDEST DUP1 ISZERO PUSH2 0x3AA JUMPI DUP1 PUSH1 0x1F LT PUSH2 0x37F JUMPI PUSH2 0x100 DUP1 DUP4 SLOAD DIV MUL DUP4 MSTORE SWAP2 PUSH1 0x20 ADD SWAP2 PUSH2 0x3AA JUMP JUMPDEST DUP3 ADD SWAP2 SWAP1 PUSH1 0x0 MSTORE PUSH1 0x20 PUSH1 0x0 KECCAK256 SWAP1 JUMPDEST DUP2 SLOAD DUP2 MSTORE SWAP1 PUSH1 0x1 ADD SWAP1 PUSH1 0x20 ADD DUP1 DUP4 GT PUSH2 0x38D JUMPI DUP3 SWAP1 SUB PUSH1 0x1F AND DUP3 ADD SWAP2 JUMPDEST POP POP POP POP POP SWAP1 POP SWAP1 JUMP JUMPDEST PUSH1 0x0 PUSH1 0x1 SLOAD SWAP1 POP SWAP1 JUMP JUMPDEST PUSH1 0x0 PUSH1 0x12 SWAP1 POP SWAP1 JUMP JUMPDEST DUP6 TIMESTAMP LT PUSH2 0x409 JUMPI PUSH1 0x40 MLOAD PUSH32 0x8C379A000000000000000000000000000000000000000000000000000000000 DUP2 MSTORE PUSH1 0x4 ADD PUSH2 0x400 SWAP1 PUSH2 0x28D3 JUMP JUMPDEST PUSH1 0x40 MLOAD DUP1 SWAP2 SUB SWAP1 REVERT JUMPDEST DUP5 TIMESTAMP LT PUSH2 0x44B JUMPI PUSH1 0x40 MLOAD PUSH32 0x8C379A000000000000000000000000000000000000000000000000000000000 DUP2 MSTORE PUSH1 0x4 ADD PUSH2 0x442 SWAP1 PUSH2 0x2833 JUMP JUMPDEST PUSH1 0x40 MLOAD DUP1 SWAP2 SUB SWAP1 REVERT JUMPDEST DUP5 DUP7 LT PUSH2 0x48D JUMPI PUSH1 0x40 MLOAD PUSH32 0x8C379A000000000000000000000000000000000000000000000000000000000 DUP2 MSTORE PUSH1 0x4 ADD PUSH2 0x484 SWAP1 PUSH2 0x2953 JUMP JUMPDEST PUSH1 0x40 MLOAD DUP1 SWAP2 SUB SWAP1 REVERT JUMPDEST PUSH1 0x5 PUSH1 0x0 DUP2 SLOAD DUP1 SWAP3 SWAP2 SWAP1 PUSH2 0x4A0 SWAP1 PUSH2 0x30A7 JUMP JUMPDEST SWAP2 SWAP1 POP SSTORE POP PUSH2 0x4DC DUP10 DUP10 DUP10 DUP10 DUP10 DUP10 DUP8 DUP11 DUP11 PUSH1 0x7 PUSH1 0x0 PUSH1 0x5 SLOAD DUP2 MSTORE PUSH1 0x20 ADD SWAP1 DUP2 MSTORE PUSH1 0x20 ADD PUSH1 0x0 KECCAK256 PUSH2 0xD5A SWAP1 SWAP10 SWAP9 SWAP8 SWAP7 SWAP6 SWAP5 SWAP4 SWAP3 SWAP2 SWAP1 PUSH4 0xFFFFFFFF AND JUMP JUMPDEST POP PUSH32 0x239A8A71A7D1CB0D134F6CC072AD6390E36A88C8E78DFF69013EE79528441E80 PUSH1 0x5 SLOAD DUP10 DUP10 DUP10 DUP10 DUP10 DUP10 DUP10 PUSH1 0x40 MLOAD PUSH2 0x51C SWAP9 SWAP8 SWAP7 SWAP6 SWAP5 SWAP4 SWAP3 SWAP2 SWAP1 PUSH2 0x2B14 JUMP JUMPDEST PUSH1 0x40 MLOAD DUP1 SWAP2 SUB SWAP1 LOG1 PUSH1 0x1 PUSH1 0x9 PUSH1 0x0 PUSH1 0x5 SLOAD DUP2 MSTORE PUSH1 0x20 ADD SWAP1 DUP2 MSTORE PUSH1 0x20 ADD PUSH1 0x0 KECCAK256 PUSH1 0x0 PUSH2 0x100 EXP DUP2 SLOAD DUP2 PUSH1 0xFF MUL NOT AND SWAP1 DUP4 ISZERO ISZERO MUL OR SWAP1 SSTORE POP PUSH1 0x0 JUMPDEST DUP9 MLOAD DUP2 LT ISZERO PUSH2 0x68A JUMPI PUSH2 0x582 DUP10 DUP3 DUP2 MLOAD DUP2 LT PUSH2 0x574 JUMPI PUSH2 0x573 PUSH2 0x314E JUMP JUMPDEST JUMPDEST PUSH1 0x20 MUL PUSH1 0x20 ADD ADD MLOAD DUP4 PUSH2 0xF8C JUMP JUMPDEST PUSH2 0x623 PUSH1 0x5 SLOAD DUP11 DUP4 DUP2 MLOAD DUP2 LT PUSH2 0x59B JUMPI PUSH2 0x59A PUSH2 0x314E JUMP JUMPDEST JUMPDEST PUSH1 0x20 MUL PUSH1 0x20 ADD ADD MLOAD PUSH1 0x0 DUP6 PUSH1 0x8 PUSH1 0x0 DUP16 DUP9 DUP2 MLOAD DUP2 LT PUSH2 0x5BD JUMPI PUSH2 0x5BC PUSH2 0x314E JUMP JUMPDEST JUMPDEST PUSH1 0x20 MUL PUSH1 0x20 ADD ADD MLOAD PUSH20 0xFFFFFFFFFFFFFFFFFFFFFFFFFFFFFFFFFFFFFFFF AND PUSH20 0xFFFFFFFFFFFFFFFFFFFFFFFFFFFFFFFFFFFFFFFF AND DUP2 MSTORE PUSH1 0x20 ADD SWAP1 DUP2 MSTORE PUSH1 0x20 ADD PUSH1 0x0 KECCAK256 PUSH1 0x0 PUSH1 0x5 SLOAD DUP2 MSTORE PUSH1 0x20 ADD SWAP1 DUP2 MSTORE PUSH1 0x20 ADD PUSH1 0x0 KECCAK256 PUSH2 0xFFD SWAP1 SWAP5 SWAP4 SWAP3 SWAP2 SWAP1 PUSH4 0xFFFFFFFF AND JUMP JUMPDEST POP PUSH32 0xABF5327BE9F5825C40D58BDA541DD07F09B62DF3376BBD5ECDBAA8BD82A9D492 DUP10 DUP3 DUP2 MLOAD DUP2 LT PUSH2 0x658 JUMPI PUSH2 0x657 PUSH2 0x314E JUMP JUMPDEST JUMPDEST PUSH1 0x20 MUL PUSH1 0x20 ADD ADD MLOAD DUP4 PUSH1 0x40 MLOAD PUSH2 0x66F SWAP3 SWAP2 SWAP1 PUSH2 0x29B3 JUMP JUMPDEST PUSH1 0x40 MLOAD DUP1 SWAP2 SUB SWAP1 LOG1 DUP1 DUP1 PUSH2 0x682 SWAP1 PUSH2 0x30A7 JUMP JUMPDEST SWAP2 POP POP PUSH2 0x555 JUMP JUMPDEST POP PUSH2 0x6E5 PUSH1 0x5 SLOAD PUSH1 0x6 PUSH1 0x0 PUSH2 0x69D PUSH2 0x107D JUMP JUMPDEST PUSH20 0xFFFFFFFFFFFFFFFFFFFFFFFFFFFFFFFFFFFFFFFF AND PUSH20 0xFFFFFFFFFFFFFFFFFFFFFFFFFFFFFFFFFFFFFFFF AND DUP2 MSTORE PUSH1 0x20 ADD SWAP1 DUP2 MSTORE PUSH1 0x20 ADD PUSH1 0x0 KECCAK256 PUSH2 0x1085 SWAP1 SWAP2 SWAP1 PUSH4 0xFFFFFFFF AND JUMP JUMPDEST POP POP POP POP POP POP POP POP POP POP JUMP JUMPDEST PUSH1 0x9 PUSH1 0x0 DUP6 DUP2 MSTORE PUSH1 0x20 ADD SWAP1 DUP2 MSTORE PUSH1 0x20 ADD PUSH1 0x0 KECCAK256 PUSH1 0x0 SWAP1 SLOAD SWAP1 PUSH2 0x100 EXP SWAP1 DIV PUSH1 0xFF AND PUSH2 0x751 JUMPI PUSH1 0x40 MLOAD PUSH32 0x8C379A000000000000000000000000000000000000000000000000000000000 DUP2 MSTORE PUSH1 0x4 ADD PUSH2 0x748 SWAP1 PUSH2 0x2913 JUMP JUMPDEST PUSH1 0x40 MLOAD DUP1 SWAP2 SUB SWAP1 REVERT JUMPDEST DUP4 PUSH1 0x8 PUSH1 0x0 DUP6 PUSH20 0xFFFFFFFFFFFFFFFFFFFFFFFFFFFFFFFFFFFFFFFF AND PUSH20 0xFFFFFFFFFFFFFFFFFFFFFFFFFFFFFFFFFFFFFFFF AND DUP2 MSTORE PUSH1 0x20 ADD SWAP1 DUP2 MSTORE PUSH1 0x20 ADD PUSH1 0x0 KECCAK256 PUSH1 0x0 DUP7 DUP2 MSTORE PUSH1 0x20 ADD SWAP1 DUP2 MSTORE PUSH1 0x20 ADD PUSH1 0x0 KECCAK256 PUSH1 0x0 ADD SLOAD EQ PUSH2 0x7E6 JUMPI PUSH1 0x40 MLOAD PUSH32 0x8C379A000000000000000000000000000000000000000000000000000000000 DUP2 MSTORE PUSH1 0x4 ADD PUSH2 0x7DD SWAP1 PUSH2 0x28B3 JUMP JUMPDEST PUSH1 0x40 MLOAD DUP1 SWAP2 SUB SWAP1 REVERT JUMPDEST PUSH1 0x8 PUSH1 0x0 DUP5 PUSH20 0xFFFFFFFFFFFFFFFFFFFFFFFFFFFFFFFFFFFFFFFF AND PUSH20 0xFFFFFFFFFFFFFFFFFFFFFFFFFFFFFFFFFFFFFFFF AND DUP2 MSTORE PUSH1 0x20 ADD SWAP1 DUP2 MSTORE PUSH1 0x20 ADD PUSH1 0x0 KECCAK256 PUSH1 0x0 DUP6 DUP2 MSTORE PUSH1 0x20 ADD SWAP1 DUP2 MSTORE PUSH1 0x20 ADD PUSH1 0x0 KECCAK256 PUSH1 0x1 ADD PUSH1 0x14 SWAP1 SLOAD SWAP1 PUSH2 0x100 EXP SWAP1 DIV PUSH1 0xFF AND ISZERO PUSH2 0x887 JUMPI PUSH1 0x40 MLOAD PUSH32 0x8C379A000000000000000000000000000000000000000000000000000000000 DUP2 MSTORE PUSH1 0x4 ADD PUSH2 0x87E SWAP1 PUSH2 0x2873 JUMP JUMPDEST PUSH1 0x40 MLOAD DUP1 SWAP2 SUB SWAP1 REVERT JUMPDEST DUP2 MLOAD PUSH1 0x7 PUSH1 0x0 DUP7 DUP2 MSTORE PUSH1 0x20 ADD SWAP1 DUP2 MSTORE PUSH1 0x20 ADD PUSH1 0x0 KECCAK256 PUSH1 0x4 ADD PUSH1 0x0 SWAP1 SLOAD SWAP1 PUSH2 0x100 EXP SWAP1 DIV PUSH2 0xFFFF AND PUSH2 0xFFFF AND EQ PUSH2 0x8F2 JUMPI PUSH1 0x40 MLOAD PUSH32 0x8C379A000000000000000000000000000000000000000000000000000000000 DUP2 MSTORE PUSH1 0x4 ADD PUSH2 0x8E9 SWAP1 PUSH2 0x2993 JUMP JUMPDEST PUSH1 0x40 MLOAD DUP1 SWAP2 SUB SWAP1 REVERT JUMPDEST PUSH1 0x0 DUP1 JUMPDEST DUP3 MLOAD DUP2 LT ISZERO PUSH2 0x95F JUMPI DUP3 DUP2 DUP2 MLOAD DUP2 LT PUSH2 0x912 JUMPI PUSH2 0x911 PUSH2 0x314E JUMP JUMPDEST JUMPDEST PUSH1 0x20 MUL PUSH1 0x20 ADD ADD MLOAD DUP4 DUP3 DUP2 MLOAD DUP2 LT PUSH2 0x92D JUMPI PUSH2 0x92C PUSH2 0x314E JUMP JUMPDEST JUMPDEST PUSH1 0x20 MUL PUSH1 0x20 ADD ADD MLOAD PUSH2 0x93F SWAP2 SWAP1 PUSH2 0x2E91 JUMP JUMPDEST DUP3 PUSH2 0x94A SWAP2 SWAP1 PUSH2 0x2E3B JUMP JUMPDEST SWAP2 POP DUP1 DUP1 PUSH2 0x957 SWAP1 PUSH2 0x30A7 JUMP JUMPDEST SWAP2 POP POP PUSH2 0x8F6 JUMP JUMPDEST POP DUP1 PUSH1 0x8 PUSH1 0x0 DUP7 PUSH20 0xFFFFFFFFFFFFFFFFFFFFFFFFFFFFFFFFFFFFFFFF AND PUSH20 0xFFFFFFFFFFFFFFFFFFFFFFFFFFFFFFFFFFFFFFFF AND DUP2 MSTORE PUSH1 0x20 ADD SWAP1 DUP2 MSTORE PUSH1 0x20 ADD PUSH1 0x0 KECCAK256 PUSH1 0x0 DUP8 DUP2 MSTORE PUSH1 0x20 ADD SWAP1 DUP2 MSTORE PUSH1 0x20 ADD PUSH1 0x0 KECCAK256 PUSH1 0x2 ADD SLOAD LT ISZERO PUSH2 0x9F6 JUMPI PUSH1 0x40 MLOAD PUSH32 0x8C379A000000000000000000000000000000000000000000000000000000000 DUP2 MSTORE PUSH1 0x4 ADD PUSH2 0x9ED SWAP1 PUSH2 0x2933 JUMP JUMPDEST PUSH1 0x40 MLOAD DUP1 SWAP2 SUB SWAP1 REVERT JUMPDEST PUSH2 0xA1F DUP5 DUP5 DUP5 PUSH1 0x7 PUSH1 0x0 DUP11 DUP2 MSTORE PUSH1 0x20 ADD SWAP1 DUP2 MSTORE PUSH1 0x20 ADD PUSH1 0x0 KECCAK256 PUSH2 0x1156 SWAP1 SWAP4 SWAP3 SWAP2 SWAP1 PUSH4 0xFFFFFFFF AND JUMP JUMPDEST POP PUSH2 0xA7A DUP6 DUP5 PUSH1 0x6 PUSH1 0x0 PUSH2 0xA31 PUSH2 0x107D JUMP JUMPDEST PUSH20 0xFFFFFFFFFFFFFFFFFFFFFFFFFFFFFFFFFFFFFFFF AND PUSH20 0xFFFFFFFFFFFFFFFFFFFFFFFFFFFFFFFFFFFFFFFF AND DUP2 MSTORE PUSH1 0x20 ADD SWAP1 DUP2 MSTORE PUSH1 0x20 ADD PUSH1 0x0 KECCAK256 PUSH2 0x15C5 SWAP1 SWAP3 SWAP2 SWAP1 PUSH4 0xFFFFFFFF AND JUMP JUMPDEST POP PUSH2 0xAD3 PUSH1 0x8 PUSH1 0x0 DUP7 PUSH20 0xFFFFFFFFFFFFFFFFFFFFFFFFFFFFFFFFFFFFFFFF AND PUSH20 0xFFFFFFFFFFFFFFFFFFFFFFFFFFFFFFFFFFFFFFFF AND DUP2 MSTORE PUSH1 0x20 ADD SWAP1 DUP2 MSTORE PUSH1 0x20 ADD PUSH1 0x0 KECCAK256 PUSH1 0x0 DUP8 DUP2 MSTORE PUSH1 0x20 ADD SWAP1 DUP2 MSTORE PUSH1 0x20 ADD PUSH1 0x0 KECCAK256 PUSH2 0x1752 JUMP JUMPDEST POP PUSH1 0x1 PUSH1 0x8 PUSH1 0x0 DUP7 PUSH20 0xFFFFFFFFFFFFFFFFFFFFFFFFFFFFFFFFFFFFFFFF AND PUSH20 0xFFFFFFFFFFFFFFFFFFFFFFFFFFFFFFFFFFFFFFFF AND DUP2 MSTORE PUSH1 0x20 ADD SWAP1 DUP2 MSTORE PUSH1 0x20 ADD PUSH1 0x0 KECCAK256 PUSH1 0x0 DUP8 DUP2 MSTORE PUSH1 0x20 ADD SWAP1 DUP2 MSTORE PUSH1 0x20 ADD PUSH1 0x0 KECCAK256 PUSH1 0x1 ADD PUSH1 0x14 PUSH2 0x100 EXP DUP2 SLOAD DUP2 PUSH1 0xFF MUL NOT AND SWAP1 DUP4 ISZERO ISZERO MUL OR SWAP1 SSTORE POP PUSH2 0xB62 DUP5 PUSH1 0x7 PUSH1 0x0 PUSH1 0x5 SLOAD DUP2 MSTORE PUSH1 0x20 ADD SWAP1 DUP2 MSTORE PUSH1 0x20 ADD PUSH1 0x0 KECCAK256 PUSH1 0x5 ADD SLOAD PUSH2 0x1800 JUMP JUMPDEST PUSH32 0xABF5327BE9F5825C40D58BDA541DD07F09B62DF3376BBD5ECDBAA8BD82A9D492 DUP5 PUSH1 0x7 PUSH1 0x0 PUSH1 0x5 SLOAD DUP2 MSTORE PUSH1 0x20 ADD SWAP1 DUP2 MSTORE PUSH1 0x20 ADD PUSH1 0x0 KECCAK256 PUSH1 0x5 ADD SLOAD PUSH1 0x40 MLOAD PUSH2 0xBAB SWAP3 SWAP2 SWAP1 PUSH2 0x2A0F JUMP JUMPDEST PUSH1 0x40 MLOAD DUP1 SWAP2 SUB SWAP1 LOG1 POP POP POP POP POP JUMP JUMPDEST PUSH1 0x0 DUP1 PUSH1 0x0 DUP4 PUSH20 0xFFFFFFFFFFFFFFFFFFFFFFFFFFFFFFFFFFFFFFFF AND PUSH20 0xFFFFFFFFFFFFFFFFFFFFFFFFFFFFFFFFFFFFFFFF AND DUP2 MSTORE PUSH1 0x20 ADD SWAP1 DUP2 MSTORE PUSH1 0x20 ADD PUSH1 0x0 KECCAK256 SLOAD SWAP1 POP SWAP2 SWAP1 POP JUMP JUMPDEST PUSH1 0x60 PUSH1 0x3 DUP1 SLOAD PUSH2 0xC11 SWAP1 PUSH2 0x2FE0 JUMP JUMPDEST DUP1 PUSH1 0x1F ADD PUSH1 0x20 DUP1 SWAP2 DIV MUL PUSH1 0x20 ADD PUSH1 0x40 MLOAD SWAP1 DUP2 ADD PUSH1 0x40 MSTORE DUP1 SWAP3 SWAP2 SWAP1 DUP2 DUP2 MSTORE PUSH1 0x20 ADD DUP3 DUP1 SLOAD PUSH2 0xC3D SWAP1 PUSH2 0x2FE0 JUMP JUMPDEST DUP1 ISZERO PUSH2 0xC8A JUMPI DUP1 PUSH1 0x1F LT PUSH2 0xC5F JUMPI PUSH2 0x100 DUP1 DUP4 SLOAD DIV MUL DUP4 MSTORE SWAP2 PUSH1 0x20 ADD SWAP2 PUSH2 0xC8A JUMP JUMPDEST DUP3 ADD SWAP2 SWAP1 PUSH1 0x0 MSTORE PUSH1 0x20 PUSH1 0x0 KECCAK256 SWAP1 JUMPDEST DUP2 SLOAD DUP2 MSTORE SWAP1 PUSH1 0x1 ADD SWAP1 PUSH1 0x20 ADD DUP1 DUP4 GT PUSH2 0xC6D JUMPI DUP3 SWAP1 SUB PUSH1 0x1F AND DUP3 ADD SWAP2 JUMPDEST POP POP POP POP POP SWAP1 POP SWAP1 JUMP JUMPDEST PUSH1 0x8 PUSH1 0x20 MSTORE DUP2 PUSH1 0x0 MSTORE PUSH1 0x40 PUSH1 0x0 KECCAK256 PUSH1 0x20 MSTORE DUP1 PUSH1 0x0 MSTORE PUSH1 0x40 PUSH1 0x0 KECCAK256 PUSH1 0x0 SWAP2 POP SWAP2 POP POP DUP1 PUSH1 0x0 ADD SLOAD SWAP1 DUP1 PUSH1 0x1 ADD PUSH1 0x0 SWAP1 SLOAD SWAP1 PUSH2 0x100 EXP SWAP1 DIV PUSH20 0xFFFFFFFFFFFFFFFFFFFFFFFFFFFFFFFFFFFFFFFF AND SWAP1 DUP1 PUSH1 0x1 ADD PUSH1 0x14 SWAP1 SLOAD SWAP1 PUSH2 0x100 EXP SWAP1 DIV PUSH1 0xFF AND SWAP1 DUP1 PUSH1 0x2 ADD SLOAD SWAP1 POP DUP5 JUMP JUMPDEST PUSH1 0x6 PUSH1 0x20 MSTORE DUP1 PUSH1 0x0 MSTORE PUSH1 0x40 PUSH1 0x0 KECCAK256 PUSH1 0x0 SWAP2 POP SWAP1 POP DUP1 PUSH1 0x0 ADD PUSH1 0x0 SWAP1 SLOAD SWAP1 PUSH2 0x100 EXP SWAP1 DIV PUSH16 0xFFFFFFFFFFFFFFFFFFFFFFFFFFFFFFFF AND SWAP1 DUP1 PUSH1 0x0 ADD PUSH1 0x10 SWAP1 SLOAD SWAP1 PUSH2 0x100 EXP SWAP1 DIV PUSH16 0xFFFFFFFFFFFFFFFFFFFFFFFFFFFFFFFF AND SWAP1 POP DUP3 JUMP JUMPDEST PUSH1 0x0 DUP8 DUP12 PUSH1 0x0 ADD PUSH1 0x0 PUSH2 0x100 EXP DUP2 SLOAD DUP2 PUSH20 0xFFFFFFFFFFFFFFFFFFFFFFFFFFFFFFFFFFFFFFFF MUL NOT AND SWAP1 DUP4 PUSH20 0xFFFFFFFFFFFFFFFFFFFFFFFFFFFFFFFFFFFFFFFF AND MUL OR SWAP1 SSTORE POP DUP10 DUP12 PUSH1 0x0 ADD PUSH1 0x14 PUSH2 0x100 EXP DUP2 SLOAD DUP2 PUSH1 0xFF MUL NOT AND SWAP1 DUP4 PUSH1 0xFF AND MUL OR SWAP1 SSTORE POP DUP5 DUP12 PUSH1 0x1 ADD SWAP1 DUP1 MLOAD SWAP1 PUSH1 0x20 ADD SWAP1 PUSH2 0xDD4 SWAP3 SWAP2 SWAP1 PUSH2 0x1B1E JUMP JUMPDEST POP DUP7 DUP12 PUSH1 0x2 ADD DUP2 SWAP1 SSTORE POP DUP6 DUP12 PUSH1 0x3 ADD DUP2 SWAP1 SSTORE POP DUP3 DUP3 SWAP1 POP DUP12 PUSH1 0x4 ADD PUSH1 0x0 PUSH2 0x100 EXP DUP2 SLOAD DUP2 PUSH2 0xFFFF MUL NOT AND SWAP1 DUP4 PUSH2 0xFFFF AND MUL OR SWAP1 SSTORE POP DUP4 DUP12 PUSH1 0x5 ADD DUP2 SWAP1 SSTORE POP PUSH1 0x0 JUMPDEST DUP4 DUP4 SWAP1 POP DUP2 LT ISZERO PUSH2 0xEE5 JUMPI PUSH1 0x1 DUP13 PUSH1 0x7 ADD DUP6 DUP6 DUP5 DUP2 DUP2 LT PUSH2 0xE39 JUMPI PUSH2 0xE38 PUSH2 0x314E JUMP JUMPDEST JUMPDEST SWAP1 POP PUSH1 0x20 MUL DUP2 ADD SWAP1 PUSH2 0xE4B SWAP2 SWAP1 PUSH2 0x2BB5 JUMP JUMPDEST PUSH1 0x40 MLOAD PUSH2 0xE59 SWAP3 SWAP2 SWAP1 PUSH2 0x2734 JUMP JUMPDEST SWAP1 DUP2 MSTORE PUSH1 0x20 ADD PUSH1 0x40 MLOAD DUP1 SWAP2 SUB SWAP1 KECCAK256 PUSH1 0x0 PUSH2 0x100 EXP DUP2 SLOAD DUP2 PUSH1 0xFF MUL NOT AND SWAP1 DUP4 ISZERO ISZERO MUL OR SWAP1 SSTORE POP DUP4 DUP4 DUP3 DUP2 DUP2 LT PUSH2 0xE91 JUMPI PUSH2 0xE90 PUSH2 0x314E JUMP JUMPDEST JUMPDEST SWAP1 POP PUSH1 0x20 MUL DUP2 ADD SWAP1 PUSH2 0xEA3 SWAP2 SWAP1 PUSH2 0x2BB5 JUMP JUMPDEST DUP14 PUSH1 0x8 ADD PUSH1 0x0 PUSH1 0x1 DUP6 PUSH2 0xEB6 SWAP2 SWAP1 PUSH2 0x2E3B JUMP JUMPDEST DUP2 MSTORE PUSH1 0x20 ADD SWAP1 DUP2 MSTORE PUSH1 0x20 ADD PUSH1 0x0 KECCAK256 SWAP2 SWAP1 PUSH2 0xED1 SWAP3 SWAP2 SWAP1 PUSH2 0x1BA4 JUMP JUMPDEST POP DUP1 DUP1 PUSH2 0xEDD SWAP1 PUSH2 0x30A7 JUMP JUMPDEST SWAP2 POP POP PUSH2 0xE15 JUMP JUMPDEST POP PUSH1 0x0 JUMPDEST DUP10 MLOAD DUP2 LT ISZERO PUSH2 0xF79 JUMPI PUSH1 0x1 DUP13 PUSH1 0x6 ADD PUSH1 0x0 DUP13 DUP5 DUP2 MLOAD DUP2 LT PUSH2 0xF0D JUMPI PUSH2 0xF0C PUSH2 0x314E JUMP JUMPDEST JUMPDEST PUSH1 0x20 MUL PUSH1 0x20 ADD ADD MLOAD PUSH20 0xFFFFFFFFFFFFFFFFFFFFFFFFFFFFFFFFFFFFFFFF AND PUSH20 0xFFFFFFFFFFFFFFFFFFFFFFFFFFFFFFFFFFFFFFFF AND DUP2 MSTORE PUSH1 0x20 ADD SWAP1 DUP2 MSTORE PUSH1 0x20 ADD PUSH1 0x0 KECCAK256 PUSH1 0x0 PUSH2 0x100 EXP DUP2 SLOAD DUP2 PUSH1 0xFF MUL NOT AND SWAP1 DUP4 ISZERO ISZERO MUL OR SWAP1 SSTORE POP DUP1 DUP1 PUSH2 0xF71 SWAP1 PUSH2 0x30A7 JUMP JUMPDEST SWAP2 POP POP PUSH2 0xEE9 JUMP JUMPDEST POP PUSH1 0x1 SWAP1 POP SWAP11 SWAP10 POP POP POP POP POP POP POP POP POP POP JUMP JUMPDEST PUSH2 0xF94 PUSH2 0x107D JUMP JUMPDEST DUP1 PUSH20 0xFFFFFFFFFFFFFFFFFFFFFFFFFFFFFFFFFFFFFFFF AND PUSH1 0x4 PUSH1 0x0 SWAP1 SLOAD SWAP1 PUSH2 0x100 EXP SWAP1 DIV PUSH20 0xFFFFFFFFFFFFFFFFFFFFFFFFFFFFFFFFFFFFFFFF AND PUSH20 0xFFFFFFFFFFFFFFFFFFFFFFFFFFFFFFFFFFFFFFFF AND EQ PUSH2 0xFEE JUMPI PUSH1 0x0 DUP1 REVERT JUMPDEST PUSH2 0xFF8 DUP4 DUP4 PUSH2 0x1871 JUMP JUMPDEST POP POP POP JUMP JUMPDEST PUSH1 0x0 DUP5 DUP7 PUSH1 0x0 ADD DUP2 SWAP1 SSTORE POP DUP4 DUP7 PUSH1 0x1 ADD PUSH1 0x0 PUSH2 0x100 EXP DUP2 SLOAD DUP2 PUSH20 0xFFFFFFFFFFFFFFFFFFFFFFFFFFFFFFFFFFFFFFFF MUL NOT AND SWAP1 DUP4 PUSH20 0xFFFFFFFFFFFFFFFFFFFFFFFFFFFFFFFFFFFFFFFF AND MUL OR SWAP1 SSTORE POP DUP3 DUP7 PUSH1 0x1 ADD PUSH1 0x14 PUSH2 0x100 EXP DUP2 SLOAD DUP2 PUSH1 0xFF MUL NOT AND SWAP1 DUP4 ISZERO ISZERO MUL OR SWAP1 SSTORE POP DUP2 DUP7 PUSH1 0x2 ADD DUP2 SWAP1 SSTORE POP PUSH1 0x1 SWAP1 POP SWAP6 SWAP5 POP POP POP POP POP JUMP JUMPDEST PUSH1 0x0 CALLER SWAP1 POP SWAP1 JUMP JUMPDEST PUSH1 0x0 DUP3 PUSH1 0x0 ADD PUSH1 0x0 DUP2 DUP2 SWAP1 SLOAD SWAP1 PUSH2 0x100 EXP SWAP1 DIV PUSH16 0xFFFFFFFFFFFFFFFFFFFFFFFFFFFFFFFF AND DUP1 SWAP3 SWAP2 SWAP1 PUSH2 0x10B7 SWAP1 PUSH2 0x3043 JUMP JUMPDEST SWAP2 SWAP1 PUSH2 0x100 EXP DUP2 SLOAD DUP2 PUSH16 0xFFFFFFFFFFFFFFFFFFFFFFFFFFFFFFFF MUL NOT AND SWAP1 DUP4 PUSH16 0xFFFFFFFFFFFFFFFFFFFFFFFFFFFFFFFF AND MUL OR SWAP1 SSTORE POP POP DUP2 DUP4 PUSH1 0x1 ADD PUSH1 0x0 DUP6 PUSH1 0x0 ADD PUSH1 0x0 SWAP1 SLOAD SWAP1 PUSH2 0x100 EXP SWAP1 DIV PUSH16 0xFFFFFFFFFFFFFFFFFFFFFFFFFFFFFFFF AND PUSH16 0xFFFFFFFFFFFFFFFFFFFFFFFFFFFFFFFF AND PUSH16 0xFFFFFFFFFFFFFFFFFFFFFFFFFFFFFFFF AND DUP2 MSTORE PUSH1 0x20 ADD SWAP1 DUP2 MSTORE PUSH1 0x20 ADD PUSH1 0x0 KECCAK256 DUP2 SWAP1 SSTORE POP PUSH1 0x1 SWAP1 POP SWAP3 SWAP2 POP POP JUMP JUMPDEST PUSH1 0x0 PUSH1 0x2 DUP6 PUSH1 0x0 ADD PUSH1 0x14 SWAP1 SLOAD SWAP1 PUSH2 0x100 EXP SWAP1 DIV PUSH1 0xFF AND PUSH1 0xFF AND EQ PUSH2 0x11AF JUMPI PUSH1 0x40 MLOAD PUSH32 0x8C379A000000000000000000000000000000000000000000000000000000000 DUP2 MSTORE PUSH1 0x4 ADD PUSH2 0x11A6 SWAP1 PUSH2 0x2813 JUMP JUMPDEST PUSH1 0x40 MLOAD DUP1 SWAP2 SUB SWAP1 REVERT JUMPDEST DUP5 PUSH1 0x3 ADD SLOAD TIMESTAMP GT ISZERO PUSH2 0x1405 JUMPI PUSH1 0x2 DUP6 PUSH1 0x0 ADD PUSH1 0x14 PUSH2 0x100 EXP DUP2 SLOAD DUP2 PUSH1 0xFF MUL NOT AND SWAP1 DUP4 PUSH1 0xFF AND MUL OR SWAP1 SSTORE POP PUSH1 0x0 DUP6 PUSH1 0xA ADD DUP7 PUSH1 0x8 ADD PUSH1 0x0 PUSH1 0x1 DUP2 MSTORE PUSH1 0x20 ADD SWAP1 DUP2 MSTORE PUSH1 0x20 ADD PUSH1 0x0 KECCAK256 PUSH1 0x40 MLOAD PUSH2 0x1202 SWAP2 SWAP1 PUSH2 0x2764 JUMP JUMPDEST SWAP1 DUP2 MSTORE PUSH1 0x20 ADD PUSH1 0x40 MLOAD DUP1 SWAP2 SUB SWAP1 KECCAK256 SLOAD SWAP1 POP PUSH1 0x0 PUSH1 0x1 SWAP1 POP DUP7 PUSH1 0x8 ADD PUSH1 0x0 PUSH1 0x1 DUP2 MSTORE PUSH1 0x20 ADD SWAP1 DUP2 MSTORE PUSH1 0x20 ADD PUSH1 0x0 KECCAK256 DUP8 PUSH1 0x9 ADD PUSH1 0x0 PUSH1 0x1 DUP2 MSTORE PUSH1 0x20 ADD SWAP1 DUP2 MSTORE PUSH1 0x20 ADD PUSH1 0x0 KECCAK256 SWAP1 DUP1 SLOAD PUSH2 0x1251 SWAP1 PUSH2 0x2FE0 JUMP JUMPDEST PUSH2 0x125C SWAP3 SWAP2 SWAP1 PUSH2 0x1C2A JUMP JUMPDEST POP PUSH1 0x0 PUSH1 0x2 SWAP1 POP JUMPDEST DUP8 PUSH1 0x4 ADD PUSH1 0x0 SWAP1 SLOAD SWAP1 PUSH2 0x100 EXP SWAP1 DIV PUSH2 0xFFFF AND PUSH2 0xFFFF AND DUP2 PUSH2 0xFFFF AND GT PUSH2 0x13F9 JUMPI DUP3 DUP9 PUSH1 0xA ADD DUP10 PUSH1 0x8 ADD PUSH1 0x0 DUP5 PUSH2 0xFFFF AND DUP2 MSTORE PUSH1 0x20 ADD SWAP1 DUP2 MSTORE PUSH1 0x20 ADD PUSH1 0x0 KECCAK256 PUSH1 0x40 MLOAD PUSH2 0x12B0 SWAP2 SWAP1 PUSH2 0x2764 JUMP JUMPDEST SWAP1 DUP2 MSTORE PUSH1 0x20 ADD PUSH1 0x40 MLOAD DUP1 SWAP2 SUB SWAP1 KECCAK256 SLOAD GT ISZERO PUSH2 0x1350 JUMPI DUP8 PUSH1 0xA ADD DUP9 PUSH1 0x8 ADD PUSH1 0x0 DUP4 PUSH2 0xFFFF AND DUP2 MSTORE PUSH1 0x20 ADD SWAP1 DUP2 MSTORE PUSH1 0x20 ADD PUSH1 0x0 KECCAK256 PUSH1 0x40 MLOAD PUSH2 0x12EF SWAP2 SWAP1 PUSH2 0x2764 JUMP JUMPDEST SWAP1 DUP2 MSTORE PUSH1 0x20 ADD PUSH1 0x40 MLOAD DUP1 SWAP2 SUB SWAP1 KECCAK256 SLOAD SWAP3 POP PUSH1 0x1 SWAP2 POP DUP8 PUSH1 0x8 ADD PUSH1 0x0 DUP3 PUSH2 0xFFFF AND DUP2 MSTORE PUSH1 0x20 ADD SWAP1 DUP2 MSTORE PUSH1 0x20 ADD PUSH1 0x0 KECCAK256 DUP9 PUSH1 0x9 ADD PUSH1 0x0 PUSH1 0x1 DUP2 MSTORE PUSH1 0x20 ADD SWAP1 DUP2 MSTORE PUSH1 0x20 ADD PUSH1 0x0 KECCAK256 SWAP1 DUP1 SLOAD PUSH2 0x133F SWAP1 PUSH2 0x2FE0 JUMP JUMPDEST PUSH2 0x134A SWAP3 SWAP2 SWAP1 PUSH2 0x1C2A JUMP JUMPDEST POP PUSH2 0x13E6 JUMP JUMPDEST DUP3 DUP9 PUSH1 0xA ADD DUP10 PUSH1 0x8 ADD PUSH1 0x0 DUP5 PUSH2 0xFFFF AND DUP2 MSTORE PUSH1 0x20 ADD SWAP1 DUP2 MSTORE PUSH1 0x20 ADD PUSH1 0x0 KECCAK256 PUSH1 0x40 MLOAD PUSH2 0x137B SWAP2 SWAP1 PUSH2 0x2764 JUMP JUMPDEST SWAP1 DUP2 MSTORE PUSH1 0x20 ADD PUSH1 0x40 MLOAD DUP1 SWAP2 SUB SWAP1 KECCAK256 SLOAD EQ ISZERO PUSH2 0x13E5 JUMPI DUP2 DUP1 PUSH2 0x139B SWAP1 PUSH2 0x30A7 JUMP JUMPDEST SWAP3 POP POP DUP8 PUSH1 0x8 ADD PUSH1 0x0 DUP3 PUSH2 0xFFFF AND DUP2 MSTORE PUSH1 0x20 ADD SWAP1 DUP2 MSTORE PUSH1 0x20 ADD PUSH1 0x0 KECCAK256 DUP9 PUSH1 0x9 ADD PUSH1 0x0 DUP5 DUP2 MSTORE PUSH1 0x20 ADD SWAP1 DUP2 MSTORE PUSH1 0x20 ADD PUSH1 0x0 KECCAK256 SWAP1 DUP1 SLOAD PUSH2 0x13D8 SWAP1 PUSH2 0x2FE0 JUMP JUMPDEST PUSH2 0x13E3 SWAP3 SWAP2 SWAP1 PUSH2 0x1C2A JUMP JUMPDEST POP JUMPDEST JUMPDEST DUP1 DUP1 PUSH2 0x13F1 SWAP1 PUSH2 0x307C JUMP JUMPDEST SWAP2 POP POP PUSH2 0x1264 JUMP JUMPDEST POP PUSH1 0x0 SWAP3 POP POP POP PUSH2 0x15BD JUMP JUMPDEST DUP5 PUSH1 0x6 ADD PUSH1 0x0 DUP6 PUSH20 0xFFFFFFFFFFFFFFFFFFFFFFFFFFFFFFFFFFFFFFFF AND PUSH20 0xFFFFFFFFFFFFFFFFFFFFFFFFFFFFFFFFFFFFFFFF AND DUP2 MSTORE PUSH1 0x20 ADD SWAP1 DUP2 MSTORE PUSH1 0x20 ADD PUSH1 0x0 KECCAK256 PUSH1 0x0 SWAP1 SLOAD SWAP1 PUSH2 0x100 EXP SWAP1 DIV PUSH1 0xFF AND PUSH2 0x1493 JUMPI PUSH1 0x40 MLOAD PUSH32 0x8C379A000000000000000000000000000000000000000000000000000000000 DUP2 MSTORE PUSH1 0x4 ADD PUSH2 0x148A SWAP1 PUSH2 0x28F3 JUMP JUMPDEST PUSH1 0x40 MLOAD DUP1 SWAP2 SUB SWAP1 REVERT JUMPDEST PUSH1 0x0 JUMPDEST DUP6 PUSH1 0x4 ADD PUSH1 0x0 SWAP1 SLOAD SWAP1 PUSH2 0x100 EXP SWAP1 DIV PUSH2 0xFFFF AND PUSH2 0xFFFF AND DUP2 PUSH2 0xFFFF AND LT ISZERO PUSH2 0x15B7 JUMPI DUP6 PUSH1 0x7 ADD DUP5 DUP3 PUSH2 0xFFFF AND DUP2 MLOAD DUP2 LT PUSH2 0x14D3 JUMPI PUSH2 0x14D2 PUSH2 0x314E JUMP JUMPDEST JUMPDEST PUSH1 0x20 MUL PUSH1 0x20 ADD ADD MLOAD PUSH1 0x40 MLOAD PUSH2 0x14E8 SWAP2 SWAP1 PUSH2 0x274D JUMP JUMPDEST SWAP1 DUP2 MSTORE PUSH1 0x20 ADD PUSH1 0x40 MLOAD DUP1 SWAP2 SUB SWAP1 KECCAK256 PUSH1 0x0 SWAP1 SLOAD SWAP1 PUSH2 0x100 EXP SWAP1 DIV PUSH1 0xFF AND PUSH2 0x1543 JUMPI PUSH1 0x40 MLOAD PUSH32 0x8C379A000000000000000000000000000000000000000000000000000000000 DUP2 MSTORE PUSH1 0x4 ADD PUSH2 0x153A SWAP1 PUSH2 0x2893 JUMP JUMPDEST PUSH1 0x40 MLOAD DUP1 SWAP2 SUB SWAP1 REVERT JUMPDEST DUP3 DUP2 PUSH2 0xFFFF AND DUP2 MLOAD DUP2 LT PUSH2 0x155A JUMPI PUSH2 0x1559 PUSH2 0x314E JUMP JUMPDEST JUMPDEST PUSH1 0x20 MUL PUSH1 0x20 ADD ADD MLOAD DUP7 PUSH1 0xA ADD DUP6 DUP4 PUSH2 0xFFFF AND DUP2 MLOAD DUP2 LT PUSH2 0x157D JUMPI PUSH2 0x157C PUSH2 0x314E JUMP JUMPDEST JUMPDEST PUSH1 0x20 MUL PUSH1 0x20 ADD ADD MLOAD PUSH1 0x40 MLOAD PUSH2 0x1592 SWAP2 SWAP1 PUSH2 0x274D JUMP JUMPDEST SWAP1 DUP2 MSTORE PUSH1 0x20 ADD PUSH1 0x40 MLOAD DUP1 SWAP2 SUB SWAP1 KECCAK256 DUP2 SWAP1 SSTORE POP DUP1 DUP1 PUSH2 0x15AF SWAP1 PUSH2 0x307C JUMP JUMPDEST SWAP2 POP POP PUSH2 0x1496 JUMP JUMPDEST POP PUSH1 0x1 SWAP1 POP JUMPDEST SWAP5 SWAP4 POP POP POP POP JUMP JUMPDEST PUSH1 0x0 DUP4 PUSH1 0x0 ADD PUSH1 0x10 DUP2 DUP2 SWAP1 SLOAD SWAP1 PUSH2 0x100 EXP SWAP1 DIV PUSH16 0xFFFFFFFFFFFFFFFFFFFFFFFFFFFFFFFF AND DUP1 SWAP3 SWAP2 SWAP1 PUSH2 0x15F7 SWAP1 PUSH2 0x3043 JUMP JUMPDEST SWAP2 SWAP1 PUSH2 0x100 EXP DUP2 SLOAD DUP2 PUSH16 0xFFFFFFFFFFFFFFFFFFFFFFFFFFFFFFFF MUL NOT AND SWAP1 DUP4 PUSH16 0xFFFFFFFFFFFFFFFFFFFFFFFFFFFFFFFF AND MUL OR SWAP1 SSTORE POP POP DUP3 DUP5 PUSH1 0x2 ADD PUSH1 0x0 DUP7 PUSH1 0x0 ADD PUSH1 0x10 SWAP1 SLOAD SWAP1 PUSH2 0x100 EXP SWAP1 DIV PUSH16 0xFFFFFFFFFFFFFFFFFFFFFFFFFFFFFFFF AND PUSH16 0xFFFFFFFFFFFFFFFFFFFFFFFFFFFFFFFF AND PUSH16 0xFFFFFFFFFFFFFFFFFFFFFFFFFFFFFFFF AND DUP2 MSTORE PUSH1 0x20 ADD SWAP1 DUP2 MSTORE PUSH1 0x20 ADD PUSH1 0x0 KECCAK256 DUP2 SWAP1 SSTORE POP PUSH1 0x0 JUMPDEST DUP3 MLOAD DUP2 PUSH2 0xFFFF AND LT ISZERO PUSH2 0x1718 JUMPI DUP3 DUP2 PUSH2 0xFFFF AND DUP2 MLOAD DUP2 LT PUSH2 0x16B3 JUMPI PUSH2 0x16B2 PUSH2 0x314E JUMP JUMPDEST JUMPDEST PUSH1 0x20 MUL PUSH1 0x20 ADD ADD MLOAD DUP6 PUSH1 0x3 ADD PUSH1 0x0 DUP7 DUP2 MSTORE PUSH1 0x20 ADD SWAP1 DUP2 MSTORE PUSH1 0x20 ADD PUSH1 0x0 KECCAK256 PUSH1 0x0 PUSH1 0x1 DUP5 PUSH2 0x16DF SWAP2 SWAP1 PUSH2 0x2E03 JUMP JUMPDEST PUSH2 0xFFFF AND DUP2 MSTORE PUSH1 0x20 ADD SWAP1 DUP2 MSTORE PUSH1 0x20 ADD PUSH1 0x0 KECCAK256 SWAP1 DUP1 MLOAD SWAP1 PUSH1 0x20 ADD SWAP1 PUSH2 0x1704 SWAP3 SWAP2 SWAP1 PUSH2 0x1B1E JUMP JUMPDEST POP DUP1 DUP1 PUSH2 0x1710 SWAP1 PUSH2 0x307C JUMP JUMPDEST SWAP2 POP POP PUSH2 0x168F JUMP JUMPDEST POP PUSH1 0x1 DUP5 PUSH1 0x4 ADD PUSH1 0x0 DUP6 DUP2 MSTORE PUSH1 0x20 ADD SWAP1 DUP2 MSTORE PUSH1 0x20 ADD PUSH1 0x0 KECCAK256 PUSH1 0x0 PUSH2 0x100 EXP DUP2 SLOAD DUP2 PUSH1 0xFF MUL NOT AND SWAP1 DUP4 ISZERO ISZERO MUL OR SWAP1 SSTORE POP PUSH1 0x1 SWAP1 POP SWAP4 SWAP3 POP POP POP JUMP JUMPDEST PUSH1 0x0 DUP1 DUP3 PUSH1 0x0 ADD SLOAD EQ ISZERO PUSH2 0x179B JUMPI PUSH1 0x40 MLOAD PUSH32 0x8C379A000000000000000000000000000000000000000000000000000000000 DUP2 MSTORE PUSH1 0x4 ADD PUSH2 0x1792 SWAP1 PUSH2 0x29EF JUMP JUMPDEST PUSH1 0x40 MLOAD DUP1 SWAP2 SUB SWAP1 REVERT JUMPDEST DUP2 PUSH1 0x1 ADD PUSH1 0x14 SWAP1 SLOAD SWAP1 PUSH2 0x100 EXP SWAP1 DIV PUSH1 0xFF AND ISZERO PUSH2 0x17ED JUMPI PUSH1 0x40 MLOAD PUSH32 0x8C379A000000000000000000000000000000000000000000000000000000000 DUP2 MSTORE PUSH1 0x4 ADD PUSH2 0x17E4 SWAP1 PUSH2 0x2A4B JUMP JUMPDEST PUSH1 0x40 MLOAD DUP1 SWAP2 SUB SWAP1 REVERT JUMPDEST PUSH1 0x0 DUP3 PUSH1 0x2 ADD DUP2 SWAP1 SSTORE POP PUSH1 0x1 SWAP1 POP SWAP2 SWAP1 POP JUMP JUMPDEST PUSH2 0x1808 PUSH2 0x107D JUMP JUMPDEST DUP1 PUSH20 0xFFFFFFFFFFFFFFFFFFFFFFFFFFFFFFFFFFFFFFFF AND PUSH1 0x4 PUSH1 0x0 SWAP1 SLOAD SWAP1 PUSH2 0x100 EXP SWAP1 DIV PUSH20 0xFFFFFFFFFFFFFFFFFFFFFFFFFFFFFFFFFFFFFFFF AND PUSH20 0xFFFFFFFFFFFFFFFFFFFFFFFFFFFFFFFFFFFFFFFF AND EQ PUSH2 0x1862 JUMPI PUSH1 0x0 DUP1 REVERT JUMPDEST PUSH2 0x186C DUP4 DUP4 PUSH2 0x198C JUMP JUMPDEST POP POP POP JUMP JUMPDEST PUSH1 0x0 PUSH20 0xFFFFFFFFFFFFFFFFFFFFFFFFFFFFFFFFFFFFFFFF AND DUP3 PUSH20 0xFFFFFFFFFFFFFFFFFFFFFFFFFFFFFFFFFFFFFFFF AND EQ ISZERO PUSH2 0x18E1 JUMPI PUSH1 0x40 MLOAD PUSH32 0x8C379A000000000000000000000000000000000000000000000000000000000 DUP2 MSTORE PUSH1 0x4 ADD PUSH2 0x18D8 SWAP1 PUSH2 0x2A6B JUMP JUMPDEST PUSH1 0x40 MLOAD DUP1 SWAP2 SUB SWAP1 REVERT JUMPDEST DUP1 PUSH1 0x1 PUSH1 0x0 DUP3 DUP3 SLOAD PUSH2 0x18F3 SWAP2 SWAP1 PUSH2 0x2E3B JUMP JUMPDEST SWAP3 POP POP DUP2 SWAP1 SSTORE POP DUP1 PUSH1 0x0 DUP1 DUP5 PUSH20 0xFFFFFFFFFFFFFFFFFFFFFFFFFFFFFFFFFFFFFFFF AND PUSH20 0xFFFFFFFFFFFFFFFFFFFFFFFFFFFFFFFFFFFFFFFF AND DUP2 MSTORE PUSH1 0x20 ADD SWAP1 DUP2 MSTORE PUSH1 0x20 ADD PUSH1 0x0 KECCAK256 PUSH1 0x0 DUP3 DUP3 SLOAD PUSH2 0x1948 SWAP2 SWAP1 PUSH2 0x2E3B JUMP JUMPDEST SWAP3 POP POP DUP2 SWAP1 SSTORE POP PUSH32 0xABF5327BE9F5825C40D58BDA541DD07F09B62DF3376BBD5ECDBAA8BD82A9D492 DUP3 DUP3 PUSH1 0x40 MLOAD PUSH2 0x1980 SWAP3 SWAP2 SWAP1 PUSH2 0x29B3 JUMP JUMPDEST PUSH1 0x40 MLOAD DUP1 SWAP2 SUB SWAP1 LOG1 POP POP JUMP JUMPDEST PUSH1 0x0 PUSH20 0xFFFFFFFFFFFFFFFFFFFFFFFFFFFFFFFFFFFFFFFF AND DUP3 PUSH20 0xFFFFFFFFFFFFFFFFFFFFFFFFFFFFFFFFFFFFFFFF AND EQ ISZERO PUSH2 0x19FC JUMPI PUSH1 0x40 MLOAD PUSH32 0x8C379A000000000000000000000000000000000000000000000000000000000 DUP2 MSTORE PUSH1 0x4 ADD PUSH2 0x19F3 SWAP1 PUSH2 0x2973 JUMP JUMPDEST PUSH1 0x40 MLOAD DUP1 SWAP2 SUB SWAP1 REVERT JUMPDEST PUSH1 0x0 DUP1 PUSH1 0x0 DUP5 PUSH20 0xFFFFFFFFFFFFFFFFFFFFFFFFFFFFFFFFFFFFFFFF AND PUSH20 0xFFFFFFFFFFFFFFFFFFFFFFFFFFFFFFFFFFFFFFFF AND DUP2 MSTORE PUSH1 0x20 ADD SWAP1 DUP2 MSTORE PUSH1 0x20 ADD PUSH1 0x0 KECCAK256 SLOAD SWAP1 POP DUP2 DUP2 LT ISZERO PUSH2 0x1A82 JUMPI PUSH1 0x40 MLOAD PUSH32 0x8C379A000000000000000000000000000000000000000000000000000000000 DUP2 MSTORE PUSH1 0x4 ADD PUSH2 0x1A79 SWAP1 PUSH2 0x2853 JUMP JUMPDEST PUSH1 0x40 MLOAD DUP1 SWAP2 SUB SWAP1 REVERT JUMPDEST DUP2 DUP2 SUB PUSH1 0x0 DUP1 DUP6 PUSH20 0xFFFFFFFFFFFFFFFFFFFFFFFFFFFFFFFFFFFFFFFF AND PUSH20 0xFFFFFFFFFFFFFFFFFFFFFFFFFFFFFFFFFFFFFFFF AND DUP2 MSTORE PUSH1 0x20 ADD SWAP1 DUP2 MSTORE PUSH1 0x20 ADD PUSH1 0x0 KECCAK256 DUP2 SWAP1 SSTORE POP DUP2 PUSH1 0x1 PUSH1 0x0 DUP3 DUP3 SLOAD PUSH2 0x1AD9 SWAP2 SWAP1 PUSH2 0x2EEB JUMP JUMPDEST SWAP3 POP POP DUP2 SWAP1 SSTORE POP PUSH32 0xABF5327BE9F5825C40D58BDA541DD07F09B62DF3376BBD5ECDBAA8BD82A9D492 DUP4 DUP4 PUSH1 0x40 MLOAD PUSH2 0x1B11 SWAP3 SWAP2 SWAP1 PUSH2 0x2A0F JUMP JUMPDEST PUSH1 0x40 MLOAD DUP1 SWAP2 SUB SWAP1 LOG1 POP POP POP JUMP JUMPDEST DUP3 DUP1 SLOAD PUSH2 0x1B2A SWAP1 PUSH2 0x2FE0 JUMP JUMPDEST SWAP1 PUSH1 0x0 MSTORE PUSH1 0x20 PUSH1 0x0 KECCAK256 SWAP1 PUSH1 0x1F ADD PUSH1 0x20 SWAP1 DIV DUP2 ADD SWAP3 DUP3 PUSH2 0x1B4C JUMPI PUSH1 0x0 DUP6 SSTORE PUSH2 0x1B93 JUMP JUMPDEST DUP3 PUSH1 0x1F LT PUSH2 0x1B65 JUMPI DUP1 MLOAD PUSH1 0xFF NOT AND DUP4 DUP1 ADD OR DUP6 SSTORE PUSH2 0x1B93 JUMP JUMPDEST DUP3 DUP1 ADD PUSH1 0x1 ADD DUP6 SSTORE DUP3 ISZERO PUSH2 0x1B93 JUMPI SWAP2 DUP3 ADD JUMPDEST DUP3 DUP2 GT ISZERO PUSH2 0x1B92 JUMPI DUP3 MLOAD DUP3 SSTORE SWAP2 PUSH1 0x20 ADD SWAP2 SWAP1 PUSH1 0x1 ADD SWAP1 PUSH2 0x1B77 JUMP JUMPDEST JUMPDEST POP SWAP1 POP PUSH2 0x1BA0 SWAP2 SWAP1 PUSH2 0x1CB7 JUMP JUMPDEST POP SWAP1 JUMP JUMPDEST DUP3 DUP1 SLOAD PUSH2 0x1BB0 SWAP1 PUSH2 0x2FE0 JUMP JUMPDEST SWAP1 PUSH1 0x0 MSTORE PUSH1 0x20 PUSH1 0x0 KECCAK256 SWAP1 PUSH1 0x1F ADD PUSH1 0x20 SWAP1 DIV DUP2 ADD SWAP3 DUP3 PUSH2 0x1BD2 JUMPI PUSH1 0x0 DUP6 SSTORE PUSH2 0x1C19 JUMP JUMPDEST DUP3 PUSH1 0x1F LT PUSH2 0x1BEB JUMPI DUP1 CALLDATALOAD PUSH1 0xFF NOT AND DUP4 DUP1 ADD OR DUP6 SSTORE PUSH2 0x1C19 JUMP JUMPDEST DUP3 DUP1 ADD PUSH1 0x1 ADD DUP6 SSTORE DUP3 ISZERO PUSH2 0x1C19 JUMPI SWAP2 DUP3 ADD JUMPDEST DUP3 DUP2 GT ISZERO PUSH2 0x1C18 JUMPI DUP3 CALLDATALOAD DUP3 SSTORE SWAP2 PUSH1 0x20 ADD SWAP2 SWAP1 PUSH1 0x1 ADD SWAP1 PUSH2 0x1BFD JUMP JUMPDEST JUMPDEST POP SWAP1 POP PUSH2 0x1C26 SWAP2 SWAP1 PUSH2 0x1CB7 JUMP JUMPDEST POP SWAP1 JUMP JUMPDEST DUP3 DUP1 SLOAD PUSH2 0x1C36 SWAP1 PUSH2 0x2FE0 JUMP JUMPDEST SWAP1 PUSH1 0x0 MSTORE PUSH1 0x20 PUSH1 0x0 KECCAK256 SWAP1 PUSH1 0x1F ADD PUSH1 0x20 SWAP1 DIV DUP2 ADD SWAP3 DUP3 PUSH2 0x1C58 JUMPI PUSH1 0x0 DUP6 SSTORE PUSH2 0x1CA6 JUMP JUMPDEST DUP3 PUSH1 0x1F LT PUSH2 0x1C69 JUMPI DUP1 SLOAD DUP6 SSTORE PUSH2 0x1CA6 JUMP JUMPDEST DUP3 DUP1 ADD PUSH1 0x1 ADD DUP6 SSTORE DUP3 ISZERO PUSH2 0x1CA6 JUMPI PUSH1 0x0 MSTORE PUSH1 0x20 PUSH1 0x0 KECCAK256 SWAP2 PUSH1 0x1F ADD PUSH1 0x20 SWAP1 DIV DUP3 ADD JUMPDEST DUP3 DUP2 GT ISZERO PUSH2 0x1CA5 JUMPI DUP3 SLOAD DUP3 SSTORE SWAP2 PUSH1 0x1 ADD SWAP2 SWAP1 PUSH1 0x1 ADD SWAP1 PUSH2 0x1C8A JUMP JUMPDEST JUMPDEST POP SWAP1 POP PUSH2 0x1CB3 SWAP2 SWAP1 PUSH2 0x1CB7 JUMP JUMPDEST POP SWAP1 JUMP JUMPDEST JUMPDEST DUP1 DUP3 GT ISZERO PUSH2 0x1CD0 JUMPI PUSH1 0x0 DUP2 PUSH1 0x0 SWAP1 SSTORE POP PUSH1 0x1 ADD PUSH2 0x1CB8 JUMP JUMPDEST POP SWAP1 JUMP JUMPDEST PUSH1 0x0 PUSH2 0x1CE7 PUSH2 0x1CE2 DUP5 PUSH2 0x2C3D JUMP JUMPDEST PUSH2 0x2C18 JUMP JUMPDEST SWAP1 POP DUP1 DUP4 DUP3 MSTORE PUSH1 0x20 DUP3 ADD SWAP1 POP DUP3 DUP6 PUSH1 0x20 DUP7 MUL DUP3 ADD GT ISZERO PUSH2 0x1D0A JUMPI PUSH2 0x1D09 PUSH2 0x31CA JUMP JUMPDEST JUMPDEST PUSH1 0x0 JUMPDEST DUP6 DUP2 LT ISZERO PUSH2 0x1D3A JUMPI DUP2 PUSH2 0x1D20 DUP9 DUP3 PUSH2 0x1E84 JUMP JUMPDEST DUP5 MSTORE PUSH1 0x20 DUP5 ADD SWAP4 POP PUSH1 0x20 DUP4 ADD SWAP3 POP POP PUSH1 0x1 DUP2 ADD SWAP1 POP PUSH2 0x1D0D JUMP JUMPDEST POP POP POP SWAP4 SWAP3 POP POP POP JUMP JUMPDEST PUSH1 0x0 PUSH2 0x1D57 PUSH2 0x1D52 DUP5 PUSH2 0x2C69 JUMP JUMPDEST PUSH2 0x2C18 JUMP JUMPDEST SWAP1 POP DUP1 DUP4 DUP3 MSTORE PUSH1 0x20 DUP3 ADD SWAP1 POP DUP3 DUP6 PUSH1 0x20 DUP7 MUL DUP3 ADD GT ISZERO PUSH2 0x1D7A JUMPI PUSH2 0x1D79 PUSH2 0x31CA JUMP JUMPDEST JUMPDEST PUSH1 0x0 JUMPDEST DUP6 DUP2 LT ISZERO PUSH2 0x1DC8 JUMPI DUP2 CALLDATALOAD PUSH8 0xFFFFFFFFFFFFFFFF DUP2 GT ISZERO PUSH2 0x1DA0 JUMPI PUSH2 0x1D9F PUSH2 0x31B6 JUMP JUMPDEST JUMPDEST DUP1 DUP7 ADD PUSH2 0x1DAD DUP10 DUP3 PUSH2 0x1F79 JUMP JUMPDEST DUP6 MSTORE PUSH1 0x20 DUP6 ADD SWAP5 POP PUSH1 0x20 DUP5 ADD SWAP4 POP POP POP PUSH1 0x1 DUP2 ADD SWAP1 POP PUSH2 0x1D7D JUMP JUMPDEST POP POP POP SWAP4 SWAP3 POP POP POP JUMP JUMPDEST PUSH1 0x0 PUSH2 0x1DE5 PUSH2 0x1DE0 DUP5 PUSH2 0x2C95 JUMP JUMPDEST PUSH2 0x2C18 JUMP JUMPDEST SWAP1 POP DUP1 DUP4 DUP3 MSTORE PUSH1 0x20 DUP3 ADD SWAP1 POP DUP3 DUP6 PUSH1 0x20 DUP7 MUL DUP3 ADD GT ISZERO PUSH2 0x1E08 JUMPI PUSH2 0x1E07 PUSH2 0x31CA JUMP JUMPDEST JUMPDEST PUSH1 0x0 JUMPDEST DUP6 DUP2 LT ISZERO PUSH2 0x1E38 JUMPI DUP2 PUSH2 0x1E1E DUP9 DUP3 PUSH2 0x1FA7 JUMP JUMPDEST DUP5 MSTORE PUSH1 0x20 DUP5 ADD SWAP4 POP PUSH1 0x20 DUP4 ADD SWAP3 POP POP PUSH1 0x1 DUP2 ADD SWAP1 POP PUSH2 0x1E0B JUMP JUMPDEST POP POP POP SWAP4 SWAP3 POP POP POP JUMP JUMPDEST PUSH1 0x0 PUSH2 0x1E55 PUSH2 0x1E50 DUP5 PUSH2 0x2CC1 JUMP JUMPDEST PUSH2 0x2C18 JUMP JUMPDEST SWAP1 POP DUP3 DUP2 MSTORE PUSH1 0x20 DUP2 ADD DUP5 DUP5 DUP5 ADD GT ISZERO PUSH2 0x1E71 JUMPI PUSH2 0x1E70 PUSH2 0x31D4 JUMP JUMPDEST JUMPDEST PUSH2 0x1E7C DUP5 DUP3 DUP6 PUSH2 0x2F9E JUMP JUMPDEST POP SWAP4 SWAP3 POP POP POP JUMP JUMPDEST PUSH1 0x0 DUP2 CALLDATALOAD SWAP1 POP PUSH2 0x1E93 DUP2 PUSH2 0x360B JUMP JUMPDEST SWAP3 SWAP2 POP POP JUMP JUMPDEST PUSH1 0x0 DUP3 PUSH1 0x1F DUP4 ADD SLT PUSH2 0x1EAE JUMPI PUSH2 0x1EAD PUSH2 0x31B6 JUMP JUMPDEST JUMPDEST DUP2 CALLDATALOAD PUSH2 0x1EBE DUP5 DUP3 PUSH1 0x20 DUP7 ADD PUSH2 0x1CD4 JUMP JUMPDEST SWAP2 POP POP SWAP3 SWAP2 POP POP JUMP JUMPDEST PUSH1 0x0 DUP1 DUP4 PUSH1 0x1F DUP5 ADD SLT PUSH2 0x1EDD JUMPI PUSH2 0x1EDC PUSH2 0x31B6 JUMP JUMPDEST JUMPDEST DUP3 CALLDATALOAD SWAP1 POP PUSH8 0xFFFFFFFFFFFFFFFF DUP2 GT ISZERO PUSH2 0x1EFA JUMPI PUSH2 0x1EF9 PUSH2 0x31B1 JUMP JUMPDEST JUMPDEST PUSH1 0x20 DUP4 ADD SWAP2 POP DUP4 PUSH1 0x20 DUP3 MUL DUP4 ADD GT ISZERO PUSH2 0x1F16 JUMPI PUSH2 0x1F15 PUSH2 0x31CA JUMP JUMPDEST JUMPDEST SWAP3 POP SWAP3 SWAP1 POP JUMP JUMPDEST PUSH1 0x0 DUP3 PUSH1 0x1F DUP4 ADD SLT PUSH2 0x1F32 JUMPI PUSH2 0x1F31 PUSH2 0x31B6 JUMP JUMPDEST JUMPDEST DUP2 CALLDATALOAD PUSH2 0x1F42 DUP5 DUP3 PUSH1 0x20 DUP7 ADD PUSH2 0x1D44 JUMP JUMPDEST SWAP2 POP POP SWAP3 SWAP2 POP POP JUMP JUMPDEST PUSH1 0x0 DUP3 PUSH1 0x1F DUP4 ADD SLT PUSH2 0x1F60 JUMPI PUSH2 0x1F5F PUSH2 0x31B6 JUMP JUMPDEST JUMPDEST DUP2 CALLDATALOAD PUSH2 0x1F70 DUP5 DUP3 PUSH1 0x20 DUP7 ADD PUSH2 0x1DD2 JUMP JUMPDEST SWAP2 POP POP SWAP3 SWAP2 POP POP JUMP JUMPDEST PUSH1 0x0 DUP3 PUSH1 0x1F DUP4 ADD SLT PUSH2 0x1F8E JUMPI PUSH2 0x1F8D PUSH2 0x31B6 JUMP JUMPDEST JUMPDEST DUP2 CALLDATALOAD PUSH2 0x1F9E DUP5 DUP3 PUSH1 0x20 DUP7 ADD PUSH2 0x1E42 JUMP JUMPDEST SWAP2 POP POP SWAP3 SWAP2 POP POP JUMP JUMPDEST PUSH1 0x0 DUP2 CALLDATALOAD SWAP1 POP PUSH2 0x1FB6 DUP2 PUSH2 0x3622 JUMP JUMPDEST SWAP3 SWAP2 POP POP JUMP JUMPDEST PUSH1 0x0 DUP2 CALLDATALOAD SWAP1 POP PUSH2 0x1FCB DUP2 PUSH2 0x3639 JUMP JUMPDEST SWAP3 SWAP2 POP POP JUMP JUMPDEST PUSH1 0x0 PUSH1 0x20 DUP3 DUP5 SUB SLT ISZERO PUSH2 0x1FE7 JUMPI PUSH2 0x1FE6 PUSH2 0x31E3 JUMP JUMPDEST JUMPDEST PUSH1 0x0 PUSH2 0x1FF5 DUP5 DUP3 DUP6 ADD PUSH2 0x1E84 JUMP JUMPDEST SWAP2 POP POP SWAP3 SWAP2 POP POP JUMP JUMPDEST PUSH1 0x0 DUP1 PUSH1 0x40 DUP4 DUP6 SUB SLT ISZERO PUSH2 0x2015 JUMPI PUSH2 0x2014 PUSH2 0x31E3 JUMP JUMPDEST JUMPDEST PUSH1 0x0 PUSH2 0x2023 DUP6 DUP3 DUP7 ADD PUSH2 0x1E84 JUMP JUMPDEST SWAP3 POP POP PUSH1 0x20 PUSH2 0x2034 DUP6 DUP3 DUP7 ADD PUSH2 0x1FA7 JUMP JUMPDEST SWAP2 POP POP SWAP3 POP SWAP3 SWAP1 POP JUMP JUMPDEST PUSH1 0x0 PUSH1 0x20 DUP3 DUP5 SUB SLT ISZERO PUSH2 0x2054 JUMPI PUSH2 0x2053 PUSH2 0x31E3 JUMP JUMPDEST JUMPDEST PUSH1 0x0 PUSH2 0x2062 DUP5 DUP3 DUP6 ADD PUSH2 0x1FA7 JUMP JUMPDEST SWAP2 POP POP SWAP3 SWAP2 POP POP JUMP JUMPDEST PUSH1 0x0 DUP1 PUSH1 0x0 DUP1 PUSH1 0x80 DUP6 DUP8 SUB SLT ISZERO PUSH2 0x2085 JUMPI PUSH2 0x2084 PUSH2 0x31E3 JUMP JUMPDEST JUMPDEST PUSH1 0x0 PUSH2 0x2093 DUP8 DUP3 DUP9 ADD PUSH2 0x1FA7 JUMP JUMPDEST SWAP5 POP POP PUSH1 0x20 PUSH2 0x20A4 DUP8 DUP3 DUP9 ADD PUSH2 0x1E84 JUMP JUMPDEST SWAP4 POP POP PUSH1 0x40 DUP6 ADD CALLDATALOAD PUSH8 0xFFFFFFFFFFFFFFFF DUP2 GT ISZERO PUSH2 0x20C5 JUMPI PUSH2 0x20C4 PUSH2 0x31D9 JUMP JUMPDEST JUMPDEST PUSH2 0x20D1 DUP8 DUP3 DUP9 ADD PUSH2 0x1F1D JUMP JUMPDEST SWAP3 POP POP PUSH1 0x60 DUP6 ADD CALLDATALOAD PUSH8 0xFFFFFFFFFFFFFFFF DUP2 GT ISZERO PUSH2 0x20F2 JUMPI PUSH2 0x20F1 PUSH2 0x31D9 JUMP JUMPDEST JUMPDEST PUSH2 0x20FE DUP8 DUP3 DUP9 ADD PUSH2 0x1F4B JUMP JUMPDEST SWAP2 POP POP SWAP3 SWAP6 SWAP2 SWAP5 POP SWAP3 POP JUMP JUMPDEST PUSH1 0x0 DUP1 PUSH1 0x0 DUP1 PUSH1 0x0 DUP1 PUSH1 0x0 DUP1 PUSH1 0x0 PUSH2 0x100 DUP11 DUP13 SUB SLT ISZERO PUSH2 0x212D JUMPI PUSH2 0x212C PUSH2 0x31E3 JUMP JUMPDEST JUMPDEST PUSH1 0x0 PUSH2 0x213B DUP13 DUP3 DUP14 ADD PUSH2 0x1FBC JUMP JUMPDEST SWAP10 POP POP PUSH1 0x20 DUP11 ADD CALLDATALOAD PUSH8 0xFFFFFFFFFFFFFFFF DUP2 GT ISZERO PUSH2 0x215C JUMPI PUSH2 0x215B PUSH2 0x31D9 JUMP JUMPDEST JUMPDEST PUSH2 0x2168 DUP13 DUP3 DUP14 ADD PUSH2 0x1E99 JUMP JUMPDEST SWAP9 POP POP PUSH1 0x40 PUSH2 0x2179 DUP13 DUP3 DUP14 ADD PUSH2 0x1E84 JUMP JUMPDEST SWAP8 POP POP PUSH1 0x60 PUSH2 0x218A DUP13 DUP3 DUP14 ADD PUSH2 0x1FA7 JUMP JUMPDEST SWAP7 POP POP PUSH1 0x80 PUSH2 0x219B DUP13 DUP3 DUP14 ADD PUSH2 0x1FA7 JUMP JUMPDEST SWAP6 POP POP PUSH1 0xA0 DUP11 ADD CALLDATALOAD PUSH8 0xFFFFFFFFFFFFFFFF DUP2 GT ISZERO PUSH2 0x21BC JUMPI PUSH2 0x21BB PUSH2 0x31D9 JUMP JUMPDEST JUMPDEST PUSH2 0x21C8 DUP13 DUP3 DUP14 ADD PUSH2 0x1F79 JUMP JUMPDEST SWAP5 POP POP PUSH1 0xC0 DUP11 ADD CALLDATALOAD PUSH8 0xFFFFFFFFFFFFFFFF DUP2 GT ISZERO PUSH2 0x21E9 JUMPI PUSH2 0x21E8 PUSH2 0x31D9 JUMP JUMPDEST JUMPDEST PUSH2 0x21F5 DUP13 DUP3 DUP14 ADD PUSH2 0x1EC7 JUMP JUMPDEST SWAP4 POP SWAP4 POP POP PUSH1 0xE0 PUSH2 0x2208 DUP13 DUP3 DUP14 ADD PUSH2 0x1FA7 JUMP JUMPDEST SWAP2 POP POP SWAP3 SWAP6 SWAP9 POP SWAP3 SWAP6 SWAP9 POP SWAP3 SWAP6 SWAP9 JUMP JUMPDEST PUSH1 0x0 PUSH2 0x2224 DUP4 DUP4 PUSH2 0x2246 JUMP JUMPDEST PUSH1 0x20 DUP4 ADD SWAP1 POP SWAP3 SWAP2 POP POP JUMP JUMPDEST PUSH1 0x0 PUSH2 0x223D DUP5 DUP5 DUP5 PUSH2 0x2347 JUMP JUMPDEST SWAP1 POP SWAP4 SWAP3 POP POP POP JUMP JUMPDEST PUSH2 0x224F DUP2 PUSH2 0x2F1F JUMP JUMPDEST DUP3 MSTORE POP POP JUMP JUMPDEST PUSH2 0x225E DUP2 PUSH2 0x2F1F JUMP JUMPDEST DUP3 MSTORE POP POP JUMP JUMPDEST PUSH1 0x0 PUSH2 0x226F DUP3 PUSH2 0x2D21 JUMP JUMPDEST PUSH2 0x2279 DUP2 DUP6 PUSH2 0x2D51 JUMP JUMPDEST SWAP4 POP PUSH2 0x2284 DUP4 PUSH2 0x2CF2 JUMP JUMPDEST DUP1 PUSH1 0x0 JUMPDEST DUP4 DUP2 LT ISZERO PUSH2 0x22B5 JUMPI DUP2 MLOAD PUSH2 0x229C DUP9 DUP3 PUSH2 0x2218 JUMP JUMPDEST SWAP8 POP PUSH2 0x22A7 DUP4 PUSH2 0x2D37 JUMP JUMPDEST SWAP3 POP POP PUSH1 0x1 DUP2 ADD SWAP1 POP PUSH2 0x2288 JUMP JUMPDEST POP DUP6 SWAP4 POP POP POP POP SWAP3 SWAP2 POP POP JUMP JUMPDEST PUSH1 0x0 PUSH2 0x22CE DUP4 DUP6 PUSH2 0x2D62 JUMP JUMPDEST SWAP4 POP DUP4 PUSH1 0x20 DUP5 MUL DUP6 ADD PUSH2 0x22E0 DUP5 PUSH2 0x2D02 JUMP JUMPDEST DUP1 PUSH1 0x0 JUMPDEST DUP8 DUP2 LT ISZERO PUSH2 0x2326 JUMPI DUP5 DUP5 SUB DUP10 MSTORE PUSH2 0x22FB DUP3 DUP5 PUSH2 0x2DA0 JUMP JUMPDEST PUSH2 0x2306 DUP7 DUP3 DUP5 PUSH2 0x2230 JUMP JUMPDEST SWAP6 POP PUSH2 0x2311 DUP5 PUSH2 0x2D44 JUMP JUMPDEST SWAP4 POP PUSH1 0x20 DUP12 ADD SWAP11 POP POP POP PUSH1 0x1 DUP2 ADD SWAP1 POP PUSH2 0x22E4 JUMP JUMPDEST POP DUP3 SWAP8 POP DUP8 SWAP5 POP POP POP POP POP SWAP4 SWAP3 POP POP POP JUMP JUMPDEST PUSH2 0x2341 DUP2 PUSH2 0x2F31 JUMP JUMPDEST DUP3 MSTORE POP POP JUMP JUMPDEST PUSH1 0x0 PUSH2 0x2353 DUP4 DUP6 PUSH2 0x2D73 JUMP JUMPDEST SWAP4 POP PUSH2 0x2360 DUP4 DUP6 DUP5 PUSH2 0x2F9E JUMP JUMPDEST PUSH2 0x2369 DUP4 PUSH2 0x31E8 JUMP JUMPDEST DUP5 ADD SWAP1 POP SWAP4 SWAP3 POP POP POP JUMP JUMPDEST PUSH1 0x0 PUSH2 0x2380 DUP4 DUP6 PUSH2 0x2D95 JUMP JUMPDEST SWAP4 POP PUSH2 0x238D DUP4 DUP6 DUP5 PUSH2 0x2F9E JUMP JUMPDEST DUP3 DUP5 ADD SWAP1 POP SWAP4 SWAP3 POP POP POP JUMP JUMPDEST PUSH1 0x0 PUSH2 0x23A4 DUP3 PUSH2 0x2D2C JUMP JUMPDEST PUSH2 0x23AE DUP2 DUP6 PUSH2 0x2D84 JUMP JUMPDEST SWAP4 POP PUSH2 0x23BE DUP2 DUP6 PUSH1 0x20 DUP7 ADD PUSH2 0x2FAD JUMP JUMPDEST PUSH2 0x23C7 DUP2 PUSH2 0x31E8 JUMP JUMPDEST DUP5 ADD SWAP2 POP POP SWAP3 SWAP2 POP POP JUMP JUMPDEST PUSH1 0x0 PUSH2 0x23DD DUP3 PUSH2 0x2D2C JUMP JUMPDEST PUSH2 0x23E7 DUP2 DUP6 PUSH2 0x2D95 JUMP JUMPDEST SWAP4 POP PUSH2 0x23F7 DUP2 DUP6 PUSH1 0x20 DUP7 ADD PUSH2 0x2FAD JUMP JUMPDEST DUP1 DUP5 ADD SWAP2 POP POP SWAP3 SWAP2 POP POP JUMP JUMPDEST PUSH1 0x0 DUP2 SLOAD PUSH2 0x2410 DUP2 PUSH2 0x2FE0 JUMP JUMPDEST PUSH2 0x241A DUP2 DUP7 PUSH2 0x2D95 JUMP JUMPDEST SWAP5 POP PUSH1 0x1 DUP3 AND PUSH1 0x0 DUP2 EQ PUSH2 0x2435 JUMPI PUSH1 0x1 DUP2 EQ PUSH2 0x2446 JUMPI PUSH2 0x2479 JUMP JUMPDEST PUSH1 0xFF NOT DUP4 AND DUP7 MSTORE DUP2 DUP7 ADD SWAP4 POP PUSH2 0x2479 JUMP JUMPDEST PUSH2 0x244F DUP6 PUSH2 0x2D0C JUMP JUMPDEST PUSH1 0x0 JUMPDEST DUP4 DUP2 LT ISZERO PUSH2 0x2471 JUMPI DUP2 SLOAD DUP2 DUP10 ADD MSTORE PUSH1 0x1 DUP3 ADD SWAP2 POP PUSH1 0x20 DUP2 ADD SWAP1 POP PUSH2 0x2452 JUMP JUMPDEST DUP4 DUP9 ADD SWAP6 POP POP POP JUMPDEST POP POP POP SWAP3 SWAP2 POP POP JUMP JUMPDEST PUSH1 0x0 PUSH2 0x248F PUSH1 0x12 DUP4 PUSH2 0x2D84 JUMP JUMPDEST SWAP2 POP PUSH2 0x249A DUP3 PUSH2 0x31F9 JUMP JUMPDEST PUSH1 0x20 DUP3 ADD SWAP1 POP SWAP2 SWAP1 POP JUMP JUMPDEST PUSH1 0x0 PUSH2 0x24B2 PUSH1 0x2C DUP4 PUSH2 0x2D84 JUMP JUMPDEST SWAP2 POP PUSH2 0x24BD DUP3 PUSH2 0x3222 JUMP JUMPDEST PUSH1 0x40 DUP3 ADD SWAP1 POP SWAP2 SWAP1 POP JUMP JUMPDEST PUSH1 0x0 PUSH2 0x24D5 PUSH1 0x22 DUP4 PUSH2 0x2D84 JUMP JUMPDEST SWAP2 POP PUSH2 0x24E0 DUP3 PUSH2 0x3271 JUMP JUMPDEST PUSH1 0x40 DUP3 ADD SWAP1 POP SWAP2 SWAP1 POP JUMP JUMPDEST PUSH1 0x0 PUSH2 0x24F8 PUSH1 0xD DUP4 PUSH2 0x2D84 JUMP JUMPDEST SWAP2 POP PUSH2 0x2503 DUP3 PUSH2 0x32C0 JUMP JUMPDEST PUSH1 0x20 DUP3 ADD SWAP1 POP SWAP2 SWAP1 POP JUMP JUMPDEST PUSH1 0x0 PUSH2 0x251B PUSH1 0x1B DUP4 PUSH2 0x2D84 JUMP JUMPDEST SWAP2 POP PUSH2 0x2526 DUP3 PUSH2 0x32E9 JUMP JUMPDEST PUSH1 0x20 DUP3 ADD SWAP1 POP SWAP2 SWAP1 POP JUMP JUMPDEST PUSH1 0x0 PUSH2 0x253E PUSH1 0x23 DUP4 PUSH2 0x2D84 JUMP JUMPDEST SWAP2 POP PUSH2 0x2549 DUP3 PUSH2 0x3312 JUMP JUMPDEST PUSH1 0x40 DUP3 ADD SWAP1 POP SWAP2 SWAP1 POP JUMP JUMPDEST PUSH1 0x0 PUSH2 0x2561 PUSH1 0x14 DUP4 PUSH2 0x2D84 JUMP JUMPDEST SWAP2 POP PUSH2 0x256C DUP3 PUSH2 0x3361 JUMP JUMPDEST PUSH1 0x20 DUP3 ADD SWAP1 POP SWAP2 SWAP1 POP JUMP JUMPDEST PUSH1 0x0 PUSH2 0x2584 PUSH1 0x23 DUP4 PUSH2 0x2D84 JUMP JUMPDEST SWAP2 POP PUSH2 0x258F DUP3 PUSH2 0x338A JUMP JUMPDEST PUSH1 0x40 DUP3 ADD SWAP1 POP SWAP2 SWAP1 POP JUMP JUMPDEST PUSH1 0x0 PUSH2 0x25A7 PUSH1 0x12 DUP4 PUSH2 0x2D84 JUMP JUMPDEST SWAP2 POP PUSH2 0x25B2 DUP3 PUSH2 0x33D9 JUMP JUMPDEST PUSH1 0x20 DUP3 ADD SWAP1 POP SWAP2 SWAP1 POP JUMP JUMPDEST PUSH1 0x0 PUSH2 0x25CA PUSH1 0x23 DUP4 PUSH2 0x2D84 JUMP JUMPDEST SWAP2 POP PUSH2 0x25D5 DUP3 PUSH2 0x3402 JUMP JUMPDEST PUSH1 0x40 DUP3 ADD SWAP1 POP SWAP2 SWAP1 POP JUMP JUMPDEST PUSH1 0x0 PUSH2 0x25ED PUSH1 0x2A DUP4 PUSH2 0x2D84 JUMP JUMPDEST SWAP2 POP PUSH2 0x25F8 DUP3 PUSH2 0x3451 JUMP JUMPDEST PUSH1 0x40 DUP3 ADD SWAP1 POP SWAP2 SWAP1 POP JUMP JUMPDEST PUSH1 0x0 PUSH2 0x2610 PUSH1 0x21 DUP4 PUSH2 0x2D84 JUMP JUMPDEST SWAP2 POP PUSH2 0x261B DUP3 PUSH2 0x34A0 JUMP JUMPDEST PUSH1 0x40 DUP3 ADD SWAP1 POP SWAP2 SWAP1 POP JUMP JUMPDEST PUSH1 0x0 PUSH2 0x2633 PUSH1 0x24 DUP4 PUSH2 0x2D84 JUMP JUMPDEST SWAP2 POP PUSH2 0x263E DUP3 PUSH2 0x34EF JUMP JUMPDEST PUSH1 0x40 DUP3 ADD SWAP1 POP SWAP2 SWAP1 POP JUMP JUMPDEST PUSH1 0x0 PUSH2 0x2656 PUSH1 0x4 DUP4 PUSH2 0x2D84 JUMP JUMPDEST SWAP2 POP PUSH2 0x2661 DUP3 PUSH2 0x353E JUMP JUMPDEST PUSH1 0x20 DUP3 ADD SWAP1 POP SWAP2 SWAP1 POP JUMP JUMPDEST PUSH1 0x0 PUSH2 0x2679 PUSH1 0x1D DUP4 PUSH2 0x2D84 JUMP JUMPDEST SWAP2 POP PUSH2 0x2684 DUP3 PUSH2 0x3567 JUMP JUMPDEST PUSH1 0x20 DUP3 ADD SWAP1 POP SWAP2 SWAP1 POP JUMP JUMPDEST PUSH1 0x0 PUSH2 0x269C PUSH1 0x4 DUP4 PUSH2 0x2D84 JUMP JUMPDEST SWAP2 POP PUSH2 0x26A7 DUP3 PUSH2 0x3590 JUMP JUMPDEST PUSH1 0x20 DUP3 ADD SWAP1 POP SWAP2 SWAP1 POP JUMP JUMPDEST PUSH1 0x0 PUSH2 0x26BF PUSH1 0x9 DUP4 PUSH2 0x2D84 JUMP JUMPDEST SWAP2 POP PUSH2 0x26CA DUP3 PUSH2 0x35B9 JUMP JUMPDEST PUSH1 0x20 DUP3 ADD SWAP1 POP SWAP2 SWAP1 POP JUMP JUMPDEST PUSH1 0x0 PUSH2 0x26E2 PUSH1 0x1F DUP4 PUSH2 0x2D84 JUMP JUMPDEST SWAP2 POP PUSH2 0x26ED DUP3 PUSH2 0x35E2 JUMP JUMPDEST PUSH1 0x20 DUP3 ADD SWAP1 POP SWAP2 SWAP1 POP JUMP JUMPDEST PUSH2 0x2701 DUP2 PUSH2 0x2F3D JUMP JUMPDEST DUP3 MSTORE POP POP JUMP JUMPDEST PUSH2 0x2710 DUP2 PUSH2 0x2F59 JUMP JUMPDEST DUP3 MSTORE POP POP JUMP JUMPDEST PUSH2 0x271F DUP2 PUSH2 0x2F87 JUMP JUMPDEST DUP3 MSTORE POP POP JUMP JUMPDEST PUSH2 0x272E DUP2 PUSH2 0x2F91 JUMP JUMPDEST DUP3 MSTORE POP POP JUMP JUMPDEST PUSH1 0x0 PUSH2 0x2741 DUP3 DUP5 DUP7 PUSH2 0x2374 JUMP JUMPDEST SWAP2 POP DUP2 SWAP1 POP SWAP4 SWAP3 POP POP POP JUMP JUMPDEST PUSH1 0x0 PUSH2 0x2759 DUP3 DUP5 PUSH2 0x23D2 JUMP JUMPDEST SWAP2 POP DUP2 SWAP1 POP SWAP3 SWAP2 POP POP JUMP JUMPDEST PUSH1 0x0 PUSH2 0x2770 DUP3 DUP5 PUSH2 0x2403 JUMP JUMPDEST SWAP2 POP DUP2 SWAP1 POP SWAP3 SWAP2 POP POP JUMP JUMPDEST PUSH1 0x0 PUSH1 0xE0 DUP3 ADD SWAP1 POP PUSH2 0x2790 PUSH1 0x0 DUP4 ADD DUP11 PUSH2 0x2255 JUMP JUMPDEST PUSH2 0x279D PUSH1 0x20 DUP4 ADD DUP10 PUSH2 0x2725 JUMP JUMPDEST DUP2 DUP2 SUB PUSH1 0x40 DUP4 ADD MSTORE PUSH2 0x27AF DUP2 DUP9 PUSH2 0x2399 JUMP JUMPDEST SWAP1 POP PUSH2 0x27BE PUSH1 0x60 DUP4 ADD DUP8 PUSH2 0x2716 JUMP JUMPDEST PUSH2 0x27CB PUSH1 0x80 DUP4 ADD DUP7 PUSH2 0x2716 JUMP JUMPDEST PUSH2 0x27D8 PUSH1 0xA0 DUP4 ADD DUP6 PUSH2 0x2707 JUMP JUMPDEST PUSH2 0x27E5 PUSH1 0xC0 DUP4 ADD DUP5 PUSH2 0x2716 JUMP JUMPDEST SWAP9 SWAP8 POP POP POP POP POP POP POP POP JUMP JUMPDEST PUSH1 0x0 PUSH1 0x20 DUP3 ADD SWAP1 POP DUP2 DUP2 SUB PUSH1 0x0 DUP4 ADD MSTORE PUSH2 0x280B DUP2 DUP5 PUSH2 0x2399 JUMP JUMPDEST SWAP1 POP SWAP3 SWAP2 POP POP JUMP JUMPDEST PUSH1 0x0 PUSH1 0x20 DUP3 ADD SWAP1 POP DUP2 DUP2 SUB PUSH1 0x0 DUP4 ADD MSTORE PUSH2 0x282C DUP2 PUSH2 0x2482 JUMP JUMPDEST SWAP1 POP SWAP2 SWAP1 POP JUMP JUMPDEST PUSH1 0x0 PUSH1 0x20 DUP3 ADD SWAP1 POP DUP2 DUP2 SUB PUSH1 0x0 DUP4 ADD MSTORE PUSH2 0x284C DUP2 PUSH2 0x24A5 JUMP JUMPDEST SWAP1 POP SWAP2 SWAP1 POP JUMP JUMPDEST PUSH1 0x0 PUSH1 0x20 DUP3 ADD SWAP1 POP DUP2 DUP2 SUB PUSH1 0x0 DUP4 ADD MSTORE PUSH2 0x286C DUP2 PUSH2 0x24C8 JUMP JUMPDEST SWAP1 POP SWAP2 SWAP1 POP JUMP JUMPDEST PUSH1 0x0 PUSH1 0x20 DUP3 ADD SWAP1 POP DUP2 DUP2 SUB PUSH1 0x0 DUP4 ADD MSTORE PUSH2 0x288C DUP2 PUSH2 0x24EB JUMP JUMPDEST SWAP1 POP SWAP2 SWAP1 POP JUMP JUMPDEST PUSH1 0x0 PUSH1 0x20 DUP3 ADD SWAP1 POP DUP2 DUP2 SUB PUSH1 0x0 DUP4 ADD MSTORE PUSH2 0x28AC DUP2 PUSH2 0x250E JUMP JUMPDEST SWAP1 POP SWAP2 SWAP1 POP JUMP JUMPDEST PUSH1 0x0 PUSH1 0x20 DUP3 ADD SWAP1 POP DUP2 DUP2 SUB PUSH1 0x0 DUP4 ADD MSTORE PUSH2 0x28CC DUP2 PUSH2 0x2531 JUMP JUMPDEST SWAP1 POP SWAP2 SWAP1 POP JUMP JUMPDEST PUSH1 0x0 PUSH1 0x20 DUP3 ADD SWAP1 POP DUP2 DUP2 SUB PUSH1 0x0 DUP4 ADD MSTORE PUSH2 0x28EC DUP2 PUSH2 0x2554 JUMP JUMPDEST SWAP1 POP SWAP2 SWAP1 POP JUMP JUMPDEST PUSH1 0x0 PUSH1 0x20 DUP3 ADD SWAP1 POP DUP2 DUP2 SUB PUSH1 0x0 DUP4 ADD MSTORE PUSH2 0x290C DUP2 PUSH2 0x2577 JUMP JUMPDEST SWAP1 POP SWAP2 SWAP1 POP JUMP JUMPDEST PUSH1 0x0 PUSH1 0x20 DUP3 ADD SWAP1 POP DUP2 DUP2 SUB PUSH1 0x0 DUP4 ADD MSTORE PUSH2 0x292C DUP2 PUSH2 0x259A JUMP JUMPDEST SWAP1 POP SWAP2 SWAP1 POP JUMP JUMPDEST PUSH1 0x0 PUSH1 0x20 DUP3 ADD SWAP1 POP DUP2 DUP2 SUB PUSH1 0x0 DUP4 ADD MSTORE PUSH2 0x294C DUP2 PUSH2 0x25BD JUMP JUMPDEST SWAP1 POP SWAP2 SWAP1 POP JUMP JUMPDEST PUSH1 0x0 PUSH1 0x20 DUP3 ADD SWAP1 POP DUP2 DUP2 SUB PUSH1 0x0 DUP4 ADD MSTORE PUSH2 0x296C DUP2 PUSH2 0x25E0 JUMP JUMPDEST SWAP1 POP SWAP2 SWAP1 POP JUMP JUMPDEST PUSH1 0x0 PUSH1 0x20 DUP3 ADD SWAP1 POP DUP2 DUP2 SUB PUSH1 0x0 DUP4 ADD MSTORE PUSH2 0x298C DUP2 PUSH2 0x2603 JUMP JUMPDEST SWAP1 POP SWAP2 SWAP1 POP JUMP JUMPDEST PUSH1 0x0 PUSH1 0x20 DUP3 ADD SWAP1 POP DUP2 DUP2 SUB PUSH1 0x0 DUP4 ADD MSTORE PUSH2 0x29AC DUP2 PUSH2 0x2626 JUMP JUMPDEST SWAP1 POP SWAP2 SWAP1 POP JUMP JUMPDEST PUSH1 0x0 PUSH1 0x60 DUP3 ADD SWAP1 POP DUP2 DUP2 SUB PUSH1 0x0 DUP4 ADD MSTORE PUSH2 0x29CC DUP2 PUSH2 0x2649 JUMP JUMPDEST SWAP1 POP PUSH2 0x29DB PUSH1 0x20 DUP4 ADD DUP6 PUSH2 0x2255 JUMP JUMPDEST PUSH2 0x29E8 PUSH1 0x40 DUP4 ADD DUP5 PUSH2 0x2716 JUMP JUMPDEST SWAP4 SWAP3 POP POP POP JUMP JUMPDEST PUSH1 0x0 PUSH1 0x20 DUP3 ADD SWAP1 POP DUP2 DUP2 SUB PUSH1 0x0 DUP4 ADD MSTORE PUSH2 0x2A08 DUP2 PUSH2 0x266C JUMP JUMPDEST SWAP1 POP SWAP2 SWAP1 POP JUMP JUMPDEST PUSH1 0x0 PUSH1 0x60 DUP3 ADD SWAP1 POP DUP2 DUP2 SUB PUSH1 0x0 DUP4 ADD MSTORE PUSH2 0x2A28 DUP2 PUSH2 0x268F JUMP JUMPDEST SWAP1 POP PUSH2 0x2A37 PUSH1 0x20 DUP4 ADD DUP6 PUSH2 0x2255 JUMP JUMPDEST PUSH2 0x2A44 PUSH1 0x40 DUP4 ADD DUP5 PUSH2 0x2716 JUMP JUMPDEST SWAP4 SWAP3 POP POP POP JUMP JUMPDEST PUSH1 0x0 PUSH1 0x20 DUP3 ADD SWAP1 POP DUP2 DUP2 SUB PUSH1 0x0 DUP4 ADD MSTORE PUSH2 0x2A64 DUP2 PUSH2 0x26B2 JUMP JUMPDEST SWAP1 POP SWAP2 SWAP1 POP JUMP JUMPDEST PUSH1 0x0 PUSH1 0x20 DUP3 ADD SWAP1 POP DUP2 DUP2 SUB PUSH1 0x0 DUP4 ADD MSTORE PUSH2 0x2A84 DUP2 PUSH2 0x26D5 JUMP JUMPDEST SWAP1 POP SWAP2 SWAP1 POP JUMP JUMPDEST PUSH1 0x0 PUSH1 0x40 DUP3 ADD SWAP1 POP PUSH2 0x2AA0 PUSH1 0x0 DUP4 ADD DUP6 PUSH2 0x26F8 JUMP JUMPDEST PUSH2 0x2AAD PUSH1 0x20 DUP4 ADD DUP5 PUSH2 0x26F8 JUMP JUMPDEST SWAP4 SWAP3 POP POP POP JUMP JUMPDEST PUSH1 0x0 PUSH1 0x20 DUP3 ADD SWAP1 POP PUSH2 0x2AC9 PUSH1 0x0 DUP4 ADD DUP5 PUSH2 0x2716 JUMP JUMPDEST SWAP3 SWAP2 POP POP JUMP JUMPDEST PUSH1 0x0 PUSH1 0x80 DUP3 ADD SWAP1 POP PUSH2 0x2AE4 PUSH1 0x0 DUP4 ADD DUP8 PUSH2 0x2716 JUMP JUMPDEST PUSH2 0x2AF1 PUSH1 0x20 DUP4 ADD DUP7 PUSH2 0x2255 JUMP JUMPDEST PUSH2 0x2AFE PUSH1 0x40 DUP4 ADD DUP6 PUSH2 0x2338 JUMP JUMPDEST PUSH2 0x2B0B PUSH1 0x60 DUP4 ADD DUP5 PUSH2 0x2716 JUMP JUMPDEST SWAP6 SWAP5 POP POP POP POP POP JUMP JUMPDEST PUSH1 0x0 PUSH1 0xE0 DUP3 ADD SWAP1 POP PUSH2 0x2B29 PUSH1 0x0 DUP4 ADD DUP12 PUSH2 0x2716 JUMP JUMPDEST DUP2 DUP2 SUB PUSH1 0x20 DUP4 ADD MSTORE PUSH2 0x2B3B DUP2 DUP11 PUSH2 0x2264 JUMP JUMPDEST SWAP1 POP PUSH2 0x2B4A PUSH1 0x40 DUP4 ADD DUP10 PUSH2 0x2255 JUMP JUMPDEST PUSH2 0x2B57 PUSH1 0x60 DUP4 ADD DUP9 PUSH2 0x2716 JUMP JUMPDEST PUSH2 0x2B64 PUSH1 0x80 DUP4 ADD DUP8 PUSH2 0x2716 JUMP JUMPDEST DUP2 DUP2 SUB PUSH1 0xA0 DUP4 ADD MSTORE PUSH2 0x2B76 DUP2 DUP7 PUSH2 0x2399 JUMP JUMPDEST SWAP1 POP DUP2 DUP2 SUB PUSH1 0xC0 DUP4 ADD MSTORE PUSH2 0x2B8B DUP2 DUP5 DUP7 PUSH2 0x22C2 JUMP JUMPDEST SWAP1 POP SWAP10 SWAP9 POP POP POP POP POP POP POP POP POP JUMP JUMPDEST PUSH1 0x0 PUSH1 0x20 DUP3 ADD SWAP1 POP PUSH2 0x2BAF PUSH1 0x0 DUP4 ADD DUP5 PUSH2 0x2725 JUMP JUMPDEST SWAP3 SWAP2 POP POP JUMP JUMPDEST PUSH1 0x0 DUP1 DUP4 CALLDATALOAD PUSH1 0x1 PUSH1 0x20 SUB DUP5 CALLDATASIZE SUB SUB DUP2 SLT PUSH2 0x2BD2 JUMPI PUSH2 0x2BD1 PUSH2 0x31C0 JUMP JUMPDEST JUMPDEST DUP1 DUP5 ADD SWAP3 POP DUP3 CALLDATALOAD SWAP2 POP PUSH8 0xFFFFFFFFFFFFFFFF DUP3 GT ISZERO PUSH2 0x2BF4 JUMPI PUSH2 0x2BF3 PUSH2 0x31BB JUMP JUMPDEST JUMPDEST PUSH1 0x20 DUP4 ADD SWAP3 POP PUSH1 0x1 DUP3 MUL CALLDATASIZE SUB DUP4 SGT ISZERO PUSH2 0x2C10 JUMPI PUSH2 0x2C0F PUSH2 0x31CF JUMP JUMPDEST JUMPDEST POP SWAP3 POP SWAP3 SWAP1 POP JUMP JUMPDEST PUSH1 0x0 PUSH2 0x2C22 PUSH2 0x2C33 JUMP JUMPDEST SWAP1 POP PUSH2 0x2C2E DUP3 DUP3 PUSH2 0x3012 JUMP JUMPDEST SWAP2 SWAP1 POP JUMP JUMPDEST PUSH1 0x0 PUSH1 0x40 MLOAD SWAP1 POP SWAP1 JUMP JUMPDEST PUSH1 0x0 PUSH8 0xFFFFFFFFFFFFFFFF DUP3 GT ISZERO PUSH2 0x2C58 JUMPI PUSH2 0x2C57 PUSH2 0x317D JUMP JUMPDEST JUMPDEST PUSH1 0x20 DUP3 MUL SWAP1 POP PUSH1 0x20 DUP2 ADD SWAP1 POP SWAP2 SWAP1 POP JUMP JUMPDEST PUSH1 0x0 PUSH8 0xFFFFFFFFFFFFFFFF DUP3 GT ISZERO PUSH2 0x2C84 JUMPI PUSH2 0x2C83 PUSH2 0x317D JUMP JUMPDEST JUMPDEST PUSH1 0x20 DUP3 MUL SWAP1 POP PUSH1 0x20 DUP2 ADD SWAP1 POP SWAP2 SWAP1 POP JUMP JUMPDEST PUSH1 0x0 PUSH8 0xFFFFFFFFFFFFFFFF DUP3 GT ISZERO PUSH2 0x2CB0 JUMPI PUSH2 0x2CAF PUSH2 0x317D JUMP JUMPDEST JUMPDEST PUSH1 0x20 DUP3 MUL SWAP1 POP PUSH1 0x20 DUP2 ADD SWAP1 POP SWAP2 SWAP1 POP JUMP JUMPDEST PUSH1 0x0 PUSH8 0xFFFFFFFFFFFFFFFF DUP3 GT ISZERO PUSH2 0x2CDC JUMPI PUSH2 0x2CDB PUSH2 0x317D JUMP JUMPDEST JUMPDEST PUSH2 0x2CE5 DUP3 PUSH2 0x31E8 JUMP JUMPDEST SWAP1 POP PUSH1 0x20 DUP2 ADD SWAP1 POP SWAP2 SWAP1 POP JUMP JUMPDEST PUSH1 0x0 DUP2 SWAP1 POP PUSH1 0x20 DUP3 ADD SWAP1 POP SWAP2 SWAP1 POP JUMP JUMPDEST PUSH1 0x0 DUP2 SWAP1 POP SWAP2 SWAP1 POP JUMP JUMPDEST PUSH1 0x0 DUP2 SWAP1 POP DUP2 PUSH1 0x0 MSTORE PUSH1 0x20 PUSH1 0x0 KECCAK256 SWAP1 POP SWAP2 SWAP1 POP JUMP JUMPDEST PUSH1 0x0 DUP2 MLOAD SWAP1 POP SWAP2 SWAP1 POP JUMP JUMPDEST PUSH1 0x0 DUP2 MLOAD SWAP1 POP SWAP2 SWAP1 POP JUMP JUMPDEST PUSH1 0x0 PUSH1 0x20 DUP3 ADD SWAP1 POP SWAP2 SWAP1 POP JUMP JUMPDEST PUSH1 0x0 PUSH1 0x20 DUP3 ADD SWAP1 POP SWAP2 SWAP1 POP JUMP JUMPDEST PUSH1 0x0 DUP3 DUP3 MSTORE PUSH1 0x20 DUP3 ADD SWAP1 POP SWAP3 SWAP2 POP POP JUMP JUMPDEST PUSH1 0x0 DUP3 DUP3 MSTORE PUSH1 0x20 DUP3 ADD SWAP1 POP SWAP3 SWAP2 POP POP JUMP JUMPDEST PUSH1 0x0 DUP3 DUP3 MSTORE PUSH1 0x20 DUP3 ADD SWAP1 POP SWAP3 SWAP2 POP POP JUMP JUMPDEST PUSH1 0x0 DUP3 DUP3 MSTORE PUSH1 0x20 DUP3 ADD SWAP1 POP SWAP3 SWAP2 POP POP JUMP JUMPDEST PUSH1 0x0 DUP2 SWAP1 POP SWAP3 SWAP2 POP POP JUMP JUMPDEST PUSH1 0x0 DUP1 DUP4 CALLDATALOAD PUSH1 0x1 PUSH1 0x20 SUB DUP5 CALLDATASIZE SUB SUB DUP2 SLT PUSH2 0x2DBD JUMPI PUSH2 0x2DBC PUSH2 0x31DE JUMP JUMPDEST JUMPDEST DUP4 DUP2 ADD SWAP3 POP DUP3 CALLDATALOAD SWAP2 POP PUSH1 0x20 DUP4 ADD SWAP3 POP PUSH8 0xFFFFFFFFFFFFFFFF DUP3 GT ISZERO PUSH2 0x2DE5 JUMPI PUSH2 0x2DE4 PUSH2 0x31AC JUMP JUMPDEST JUMPDEST PUSH1 0x1 DUP3 MUL CALLDATASIZE SUB DUP5 SGT ISZERO PUSH2 0x2DFB JUMPI PUSH2 0x2DFA PUSH2 0x31C5 JUMP JUMPDEST JUMPDEST POP SWAP3 POP SWAP3 SWAP1 POP JUMP JUMPDEST PUSH1 0x0 PUSH2 0x2E0E DUP3 PUSH2 0x2F59 JUMP JUMPDEST SWAP2 POP PUSH2 0x2E19 DUP4 PUSH2 0x2F59 JUMP JUMPDEST SWAP3 POP DUP3 PUSH2 0xFFFF SUB DUP3 GT ISZERO PUSH2 0x2E30 JUMPI PUSH2 0x2E2F PUSH2 0x30F0 JUMP JUMPDEST JUMPDEST DUP3 DUP3 ADD SWAP1 POP SWAP3 SWAP2 POP POP JUMP JUMPDEST PUSH1 0x0 PUSH2 0x2E46 DUP3 PUSH2 0x2F87 JUMP JUMPDEST SWAP2 POP PUSH2 0x2E51 DUP4 PUSH2 0x2F87 JUMP JUMPDEST SWAP3 POP DUP3 PUSH32 0xFFFFFFFFFFFFFFFFFFFFFFFFFFFFFFFFFFFFFFFFFFFFFFFFFFFFFFFFFFFFFFFF SUB DUP3 GT ISZERO PUSH2 0x2E86 JUMPI PUSH2 0x2E85 PUSH2 0x30F0 JUMP JUMPDEST JUMPDEST DUP3 DUP3 ADD SWAP1 POP SWAP3 SWAP2 POP POP JUMP JUMPDEST PUSH1 0x0 PUSH2 0x2E9C DUP3 PUSH2 0x2F87 JUMP JUMPDEST SWAP2 POP PUSH2 0x2EA7 DUP4 PUSH2 0x2F87 JUMP JUMPDEST SWAP3 POP DUP2 PUSH32 0xFFFFFFFFFFFFFFFFFFFFFFFFFFFFFFFFFFFFFFFFFFFFFFFFFFFFFFFFFFFFFFFF DIV DUP4 GT DUP3 ISZERO ISZERO AND ISZERO PUSH2 0x2EE0 JUMPI PUSH2 0x2EDF PUSH2 0x30F0 JUMP JUMPDEST JUMPDEST DUP3 DUP3 MUL SWAP1 POP SWAP3 SWAP2 POP POP JUMP JUMPDEST PUSH1 0x0 PUSH2 0x2EF6 DUP3 PUSH2 0x2F87 JUMP JUMPDEST SWAP2 POP PUSH2 0x2F01 DUP4 PUSH2 0x2F87 JUMP JUMPDEST SWAP3 POP DUP3 DUP3 LT ISZERO PUSH2 0x2F14 JUMPI PUSH2 0x2F13 PUSH2 0x30F0 JUMP JUMPDEST JUMPDEST DUP3 DUP3 SUB SWAP1 POP SWAP3 SWAP2 POP POP JUMP JUMPDEST PUSH1 0x0 PUSH2 0x2F2A DUP3 PUSH2 0x2F67 JUMP JUMPDEST SWAP1 POP SWAP2 SWAP1 POP JUMP JUMPDEST PUSH1 0x0 DUP2 ISZERO ISZERO SWAP1 POP SWAP2 SWAP1 POP JUMP JUMPDEST PUSH1 0x0 PUSH16 0xFFFFFFFFFFFFFFFFFFFFFFFFFFFFFFFF DUP3 AND SWAP1 POP SWAP2 SWAP1 POP JUMP JUMPDEST PUSH1 0x0 PUSH2 0xFFFF DUP3 AND SWAP1 POP SWAP2 SWAP1 POP JUMP JUMPDEST PUSH1 0x0 PUSH20 0xFFFFFFFFFFFFFFFFFFFFFFFFFFFFFFFFFFFFFFFF DUP3 AND SWAP1 POP SWAP2 SWAP1 POP JUMP JUMPDEST PUSH1 0x0 DUP2 SWAP1 POP SWAP2 SWAP1 POP JUMP JUMPDEST PUSH1 0x0 PUSH1 0xFF DUP3 AND SWAP1 POP SWAP2 SWAP1 POP JUMP JUMPDEST DUP3 DUP2 DUP4 CALLDATACOPY PUSH1 0x0 DUP4 DUP4 ADD MSTORE POP POP POP JUMP JUMPDEST PUSH1 0x0 JUMPDEST DUP4 DUP2 LT ISZERO PUSH2 0x2FCB JUMPI DUP1 DUP3 ADD MLOAD DUP2 DUP5 ADD MSTORE PUSH1 0x20 DUP2 ADD SWAP1 POP PUSH2 0x2FB0 JUMP JUMPDEST DUP4 DUP2 GT ISZERO PUSH2 0x2FDA JUMPI PUSH1 0x0 DUP5 DUP5 ADD MSTORE JUMPDEST POP POP POP POP JUMP JUMPDEST PUSH1 0x0 PUSH1 0x2 DUP3 DIV SWAP1 POP PUSH1 0x1 DUP3 AND DUP1 PUSH2 0x2FF8 JUMPI PUSH1 0x7F DUP3 AND SWAP2 POP JUMPDEST PUSH1 0x20 DUP3 LT DUP2 EQ ISZERO PUSH2 0x300C JUMPI PUSH2 0x300B PUSH2 0x311F JUMP JUMPDEST JUMPDEST POP SWAP2 SWAP1 POP JUMP JUMPDEST PUSH2 0x301B DUP3 PUSH2 0x31E8 JUMP JUMPDEST DUP2 ADD DUP2 DUP2 LT PUSH8 0xFFFFFFFFFFFFFFFF DUP3 GT OR ISZERO PUSH2 0x303A JUMPI PUSH2 0x3039 PUSH2 0x317D JUMP JUMPDEST JUMPDEST DUP1 PUSH1 0x40 MSTORE POP POP POP JUMP JUMPDEST PUSH1 0x0 PUSH2 0x304E DUP3 PUSH2 0x2F3D JUMP JUMPDEST SWAP2 POP PUSH16 0xFFFFFFFFFFFFFFFFFFFFFFFFFFFFFFFF DUP3 EQ ISZERO PUSH2 0x3071 JUMPI PUSH2 0x3070 PUSH2 0x30F0 JUMP JUMPDEST JUMPDEST PUSH1 0x1 DUP3 ADD SWAP1 POP SWAP2 SWAP1 POP JUMP JUMPDEST PUSH1 0x0 PUSH2 0x3087 DUP3 PUSH2 0x2F59 JUMP JUMPDEST SWAP2 POP PUSH2 0xFFFF DUP3 EQ ISZERO PUSH2 0x309C JUMPI PUSH2 0x309B PUSH2 0x30F0 JUMP JUMPDEST JUMPDEST PUSH1 0x1 DUP3 ADD SWAP1 POP SWAP2 SWAP1 POP JUMP JUMPDEST PUSH1 0x0 PUSH2 0x30B2 DUP3 PUSH2 0x2F87 JUMP JUMPDEST SWAP2 POP PUSH32 0xFFFFFFFFFFFFFFFFFFFFFFFFFFFFFFFFFFFFFFFFFFFFFFFFFFFFFFFFFFFFFFFF DUP3 EQ ISZERO PUSH2 0x30E5 JUMPI PUSH2 0x30E4 PUSH2 0x30F0 JUMP JUMPDEST JUMPDEST PUSH1 0x1 DUP3 ADD SWAP1 POP SWAP2 SWAP1 POP JUMP JUMPDEST PUSH32 0x4E487B7100000000000000000000000000000000000000000000000000000000 PUSH1 0x0 MSTORE PUSH1 0x11 PUSH1 0x4 MSTORE PUSH1 0x24 PUSH1 0x0 REVERT JUMPDEST PUSH32 0x4E487B7100000000000000000000000000000000000000000000000000000000 PUSH1 0x0 MSTORE PUSH1 0x22 PUSH1 0x4 MSTORE PUSH1 0x24 PUSH1 0x0 REVERT JUMPDEST PUSH32 0x4E487B7100000000000000000000000000000000000000000000000000000000 PUSH1 0x0 MSTORE PUSH1 0x32 PUSH1 0x4 MSTORE PUSH1 0x24 PUSH1 0x0 REVERT JUMPDEST PUSH32 0x4E487B7100000000000000000000000000000000000000000000000000000000 PUSH1 0x0 MSTORE PUSH1 0x41 PUSH1 0x4 MSTORE PUSH1 0x24 PUSH1 0x0 REVERT JUMPDEST PUSH1 0x0 DUP1 REVERT JUMPDEST PUSH1 0x0 DUP1 REVERT JUMPDEST PUSH1 0x0 DUP1 REVERT JUMPDEST PUSH1 0x0 DUP1 REVERT JUMPDEST PUSH1 0x0 DUP1 REVERT JUMPDEST PUSH1 0x0 DUP1 REVERT JUMPDEST PUSH1 0x0 DUP1 REVERT JUMPDEST PUSH1 0x0 DUP1 REVERT JUMPDEST PUSH1 0x0 DUP1 REVERT JUMPDEST PUSH1 0x0 DUP1 REVERT JUMPDEST PUSH1 0x0 DUP1 REVERT JUMPDEST PUSH1 0x0 DUP1 REVERT JUMPDEST PUSH1 0x0 PUSH1 0x1F NOT PUSH1 0x1F DUP4 ADD AND SWAP1 POP SWAP2 SWAP1 POP JUMP JUMPDEST PUSH32 0x50726F706F73616C3A20696E6163746976650000000000000000000000000000 PUSH1 0x0 DUP3 ADD MSTORE POP JUMP JUMPDEST PUSH32 0x456E642074696D652073686F756C642062652067726561746572207468616E20 PUSH1 0x0 DUP3 ADD MSTORE PUSH32 0x63757272656E742074696D650000000000000000000000000000000000000000 PUSH1 0x20 DUP3 ADD MSTORE POP JUMP JUMPDEST PUSH32 0x45524332303A206275726E20616D6F756E7420657863656564732062616C616E PUSH1 0x0 DUP3 ADD MSTORE PUSH32 0x6365000000000000000000000000000000000000000000000000000000000000 PUSH1 0x20 DUP3 ADD MSTORE POP JUMP JUMPDEST PUSH32 0x616C726561647920766F74656400000000000000000000000000000000000000 PUSH1 0x0 DUP3 ADD MSTORE POP JUMP JUMPDEST PUSH32 0x50726F706F73616C3A20696E76616C69642063616E6469646174650000000000 PUSH1 0x0 DUP3 ADD MSTORE POP JUMP JUMPDEST PUSH32 0x6E6F7420612076616C696420766F74657220666F7220746869732070726F706F PUSH1 0x0 DUP3 ADD MSTORE PUSH32 0x73616C0000000000000000000000000000000000000000000000000000000000 PUSH1 0x20 DUP3 ADD MSTORE POP JUMP JUMPDEST PUSH32 0x70726F706F73616C206E6F742073746172746564000000000000000000000000 PUSH1 0x0 DUP3 ADD MSTORE POP JUMP JUMPDEST PUSH32 0x4E6F7420612076616C696420766F74657220666F7220746869732070726F706F PUSH1 0x0 DUP3 ADD MSTORE PUSH32 0x73616C0000000000000000000000000000000000000000000000000000000000 PUSH1 0x20 DUP3 ADD MSTORE POP JUMP JUMPDEST PUSH32 0x696E76616C69642070726F706F73616C49640000000000000000000000000000 PUSH1 0x0 DUP3 ADD MSTORE POP JUMP JUMPDEST PUSH32 0x6E6F742073756666696369656E742062616C616E636520746F20636173742076 PUSH1 0x0 DUP3 ADD MSTORE PUSH32 0x6F74650000000000000000000000000000000000000000000000000000000000 PUSH1 0x20 DUP3 ADD MSTORE POP JUMP JUMPDEST PUSH32 0x456E642074696D652073686F756C642062652067726561746572207468616E20 PUSH1 0x0 DUP3 ADD MSTORE PUSH32 0x73746172742074696D6500000000000000000000000000000000000000000000 PUSH1 0x20 DUP3 ADD MSTORE POP JUMP JUMPDEST PUSH32 0x45524332303A206275726E2066726F6D20746865207A65726F20616464726573 PUSH1 0x0 DUP3 ADD MSTORE PUSH32 0x7300000000000000000000000000000000000000000000000000000000000000 PUSH1 0x20 DUP3 ADD MSTORE POP JUMP JUMPDEST PUSH32 0x6E6F7420612076616C6964206C656E677468206F66206861736820726573706F PUSH1 0x0 DUP3 ADD MSTORE PUSH32 0x6E73652100000000000000000000000000000000000000000000000000000000 PUSH1 0x20 DUP3 ADD MSTORE POP JUMP JUMPDEST PUSH32 0x6D696E7400000000000000000000000000000000000000000000000000000000 PUSH1 0x0 DUP3 ADD MSTORE POP JUMP JUMPDEST PUSH32 0x496E76616C696420766F74657220666F722070726F706F73616C496421000000 PUSH1 0x0 DUP3 ADD MSTORE POP JUMP JUMPDEST PUSH32 0x6275726E00000000000000000000000000000000000000000000000000000000 PUSH1 0x0 DUP3 ADD MSTORE POP JUMP JUMPDEST PUSH32 0x6E6F7420766F7465640000000000000000000000000000000000000000000000 PUSH1 0x0 DUP3 ADD MSTORE POP JUMP JUMPDEST PUSH32 0x45524332303A206D696E7420746F20746865207A65726F206164647265737300 PUSH1 0x0 DUP3 ADD MSTORE POP JUMP JUMPDEST PUSH2 0x3614 DUP2 PUSH2 0x2F1F JUMP JUMPDEST DUP2 EQ PUSH2 0x361F JUMPI PUSH1 0x0 DUP1 REVERT JUMPDEST POP JUMP JUMPDEST PUSH2 0x362B DUP2 PUSH2 0x2F87 JUMP JUMPDEST DUP2 EQ PUSH2 0x3636 JUMPI PUSH1 0x0 DUP1 REVERT JUMPDEST POP JUMP JUMPDEST PUSH2 0x3642 DUP2 PUSH2 0x2F91 JUMP JUMPDEST DUP2 EQ PUSH2 0x364D JUMPI PUSH1 0x0 DUP1 REVERT JUMPDEST POP JUMP INVALID LOG2 PUSH5 0x6970667358 0x22 SLT KECCAK256 0xAC 0xDE SWAP5 0xDC 0x2B 0xE5 SIGNEXTEND 0xD9 0xAC DUP10 0xCA PUSH16 0x15B3E7962B8774469B46BE63D55BF0CF SWAP9 0xF BLOCKHASH PUSH21 0x64736F6C6343000807003300000000000000000000 "
				},
				"gasEstimates": {
					"creation": {
						"codeDepositCost": "2791600",
						"executionCost": "infinite",
						"totalCost": "infinite"
					},
					"external": {
						"allVoters(address,uint256)": "infinite",
						"balanceOf(address)": "2863",
						"createProposal(uint8,address[],address,uint256,uint256,string,string[],uint256)": "infinite",
						"decimals()": "410",
						"name()": "infinite",
						"proposals(uint256)": "infinite",
						"responseProposal(uint256,address,string[],uint256[])": "infinite",
						"symbol()": "infinite",
						"totalSupply()": "2482",
						"userProposal(address)": "infinite"
					}
				},
				"methodIdentifiers": {
					"allVoters(address,uint256)": "ab9c70d4",
					"balanceOf(address)": "70a08231",
					"createProposal(uint8,address[],address,uint256,uint256,string,string[],uint256)": "4de77e48",
					"decimals()": "313ce567",
					"name()": "06fdde03",
					"proposals(uint256)": "013cf08b",
					"responseProposal(uint256,address,string[],uint256[])": "5c230eee",
					"symbol()": "95d89b41",
					"totalSupply()": "18160ddd",
					"userProposal(address)": "e745d68e"
				}
			},
			"storageLayout": {
				"storage": [
					{
						"astId": 627,
						"contract": "Qvoting.sol:Qvoting",
						"label": "_balances",
						"offset": 0,
						"slot": "0",
						"type": "t_mapping(t_address,t_uint256)"
					},
					{
						"astId": 629,
						"contract": "Qvoting.sol:Qvoting",
						"label": "_totalSupply",
						"offset": 0,
						"slot": "1",
						"type": "t_uint256"
					},
					{
						"astId": 631,
						"contract": "Qvoting.sol:Qvoting",
						"label": "_name",
						"offset": 0,
						"slot": "2",
						"type": "t_string_storage"
					},
					{
						"astId": 633,
						"contract": "Qvoting.sol:Qvoting",
						"label": "_symbol",
						"offset": 0,
						"slot": "3",
						"type": "t_string_storage"
					},
					{
						"astId": 847,
						"contract": "Qvoting.sol:Qvoting",
						"label": "owner",
						"offset": 0,
						"slot": "4",
						"type": "t_address"
					},
					{
						"astId": 936,
						"contract": "Qvoting.sol:Qvoting",
						"label": "proposalId",
						"offset": 0,
						"slot": "5",
						"type": "t_uint256"
					},
					{
						"astId": 941,
						"contract": "Qvoting.sol:Qvoting",
						"label": "userProposal",
						"offset": 0,
						"slot": "6",
						"type": "t_mapping(t_address,t_struct(UserProposal)409_storage)"
					},
					{
						"astId": 946,
						"contract": "Qvoting.sol:Qvoting",
						"label": "proposals",
						"offset": 0,
						"slot": "7",
						"type": "t_mapping(t_uint256,t_struct(proposal)66_storage)"
					},
					{
						"astId": 953,
						"contract": "Qvoting.sol:Qvoting",
						"label": "allVoters",
						"offset": 0,
						"slot": "8",
						"type": "t_mapping(t_address,t_mapping(t_uint256,t_struct(voter)513_storage))"
					},
					{
						"astId": 957,
						"contract": "Qvoting.sol:Qvoting",
						"label": "validProposals",
						"offset": 0,
						"slot": "9",
						"type": "t_mapping(t_uint256,t_bool)"
					}
				],
				"types": {
					"t_address": {
						"encoding": "inplace",
						"label": "address",
						"numberOfBytes": "20"
					},
					"t_bool": {
						"encoding": "inplace",
						"label": "bool",
						"numberOfBytes": "1"
					},
					"t_mapping(t_address,t_bool)": {
						"encoding": "mapping",
						"key": "t_address",
						"label": "mapping(address => bool)",
						"numberOfBytes": "32",
						"value": "t_bool"
					},
					"t_mapping(t_address,t_mapping(t_uint256,t_struct(voter)513_storage))": {
						"encoding": "mapping",
						"key": "t_address",
						"label": "mapping(address => mapping(uint256 => struct voterLibrary.voter))",
						"numberOfBytes": "32",
						"value": "t_mapping(t_uint256,t_struct(voter)513_storage)"
					},
					"t_mapping(t_address,t_struct(UserProposal)409_storage)": {
						"encoding": "mapping",
						"key": "t_address",
						"label": "mapping(address => struct UserProposalLibrary.UserProposal)",
						"numberOfBytes": "32",
						"value": "t_struct(UserProposal)409_storage"
					},
					"t_mapping(t_address,t_uint256)": {
						"encoding": "mapping",
						"key": "t_address",
						"label": "mapping(address => uint256)",
						"numberOfBytes": "32",
						"value": "t_uint256"
					},
					"t_mapping(t_string_memory_ptr,t_bool)": {
						"encoding": "mapping",
						"key": "t_string_memory_ptr",
						"label": "mapping(string => bool)",
						"numberOfBytes": "32",
						"value": "t_bool"
					},
					"t_mapping(t_string_memory_ptr,t_uint256)": {
						"encoding": "mapping",
						"key": "t_string_memory_ptr",
						"label": "mapping(string => uint256)",
						"numberOfBytes": "32",
						"value": "t_uint256"
					},
					"t_mapping(t_uint128,t_uint256)": {
						"encoding": "mapping",
						"key": "t_uint128",
						"label": "mapping(uint128 => uint256)",
						"numberOfBytes": "32",
						"value": "t_uint256"
					},
					"t_mapping(t_uint256,t_bool)": {
						"encoding": "mapping",
						"key": "t_uint256",
						"label": "mapping(uint256 => bool)",
						"numberOfBytes": "32",
						"value": "t_bool"
					},
					"t_mapping(t_uint256,t_mapping(t_uint256,t_string_storage))": {
						"encoding": "mapping",
						"key": "t_uint256",
						"label": "mapping(uint256 => mapping(uint256 => string))",
						"numberOfBytes": "32",
						"value": "t_mapping(t_uint256,t_string_storage)"
					},
					"t_mapping(t_uint256,t_string_storage)": {
						"encoding": "mapping",
						"key": "t_uint256",
						"label": "mapping(uint256 => string)",
						"numberOfBytes": "32",
						"value": "t_string_storage"
					},
					"t_mapping(t_uint256,t_struct(proposal)66_storage)": {
						"encoding": "mapping",
						"key": "t_uint256",
						"label": "mapping(uint256 => struct proposalLibrary.proposal)",
						"numberOfBytes": "32",
						"value": "t_struct(proposal)66_storage"
					},
					"t_mapping(t_uint256,t_struct(voter)513_storage)": {
						"encoding": "mapping",
						"key": "t_uint256",
						"label": "mapping(uint256 => struct voterLibrary.voter)",
						"numberOfBytes": "32",
						"value": "t_struct(voter)513_storage"
					},
					"t_string_memory_ptr": {
						"encoding": "bytes",
						"label": "string",
						"numberOfBytes": "32"
					},
					"t_string_storage": {
						"encoding": "bytes",
						"label": "string",
						"numberOfBytes": "32"
					},
					"t_struct(UserProposal)409_storage": {
						"encoding": "inplace",
						"label": "struct UserProposalLibrary.UserProposal",
						"members": [
							{
								"astId": 388,
								"contract": "Qvoting.sol:Qvoting",
								"label": "proposalCount",
								"offset": 0,
								"slot": "0",
								"type": "t_uint128"
							},
							{
								"astId": 390,
								"contract": "Qvoting.sol:Qvoting",
								"label": "responseCount",
								"offset": 16,
								"slot": "0",
								"type": "t_uint128"
							},
							{
								"astId": 394,
								"contract": "Qvoting.sol:Qvoting",
								"label": "proposalCreated",
								"offset": 0,
								"slot": "1",
								"type": "t_mapping(t_uint128,t_uint256)"
							},
							{
								"astId": 398,
								"contract": "Qvoting.sol:Qvoting",
								"label": "proposalResponsed",
								"offset": 0,
								"slot": "2",
								"type": "t_mapping(t_uint128,t_uint256)"
							},
							{
								"astId": 404,
								"contract": "Qvoting.sol:Qvoting",
								"label": "proposalAnswer",
								"offset": 0,
								"slot": "3",
								"type": "t_mapping(t_uint256,t_mapping(t_uint256,t_string_storage))"
							},
							{
								"astId": 408,
								"contract": "Qvoting.sol:Qvoting",
								"label": "responsedProposal",
								"offset": 0,
								"slot": "4",
								"type": "t_mapping(t_uint256,t_bool)"
							}
						],
						"numberOfBytes": "160"
					},
					"t_struct(proposal)66_storage": {
						"encoding": "inplace",
						"label": "struct proposalLibrary.proposal",
						"members": [
							{
								"astId": 33,
								"contract": "Qvoting.sol:Qvoting",
								"label": "creator",
								"offset": 0,
								"slot": "0",
								"type": "t_address"
							},
							{
								"astId": 35,
								"contract": "Qvoting.sol:Qvoting",
								"label": "status",
								"offset": 20,
								"slot": "0",
								"type": "t_uint8"
							},
							{
								"astId": 37,
								"contract": "Qvoting.sol:Qvoting",
								"label": "disc",
								"offset": 0,
								"slot": "1",
								"type": "t_string_storage"
							},
							{
								"astId": 39,
								"contract": "Qvoting.sol:Qvoting",
								"label": "startTime",
								"offset": 0,
								"slot": "2",
								"type": "t_uint256"
							},
							{
								"astId": 41,
								"contract": "Qvoting.sol:Qvoting",
								"label": "expirationTime",
								"offset": 0,
								"slot": "3",
								"type": "t_uint256"
							},
							{
								"astId": 43,
								"contract": "Qvoting.sol:Qvoting",
								"label": "numOfOptions",
								"offset": 0,
								"slot": "4",
								"type": "t_uint16"
							},
							{
								"astId": 45,
								"contract": "Qvoting.sol:Qvoting",
								"label": "voteRight",
								"offset": 0,
								"slot": "5",
								"type": "t_uint256"
							},
							{
								"astId": 49,
								"contract": "Qvoting.sol:Qvoting",
								"label": "voters",
								"offset": 0,
								"slot": "6",
								"type": "t_mapping(t_address,t_bool)"
							},
							{
								"astId": 53,
								"contract": "Qvoting.sol:Qvoting",
								"label": "cand",
								"offset": 0,
								"slot": "7",
								"type": "t_mapping(t_string_memory_ptr,t_bool)"
							},
							{
								"astId": 57,
								"contract": "Qvoting.sol:Qvoting",
								"label": "candHash",
								"offset": 0,
								"slot": "8",
								"type": "t_mapping(t_uint256,t_string_storage)"
							},
							{
								"astId": 61,
								"contract": "Qvoting.sol:Qvoting",
								"label": "result",
								"offset": 0,
								"slot": "9",
								"type": "t_mapping(t_uint256,t_string_storage)"
							},
							{
								"astId": 65,
								"contract": "Qvoting.sol:Qvoting",
								"label": "votes",
								"offset": 0,
								"slot": "10",
								"type": "t_mapping(t_string_memory_ptr,t_uint256)"
							}
						],
						"numberOfBytes": "352"
					},
					"t_struct(voter)513_storage": {
						"encoding": "inplace",
						"label": "struct voterLibrary.voter",
						"members": [
							{
								"astId": 506,
								"contract": "Qvoting.sol:Qvoting",
								"label": "proposalId",
								"offset": 0,
								"slot": "0",
								"type": "t_uint256"
							},
							{
								"astId": 508,
								"contract": "Qvoting.sol:Qvoting",
								"label": "voterAddress",
								"offset": 0,
								"slot": "1",
								"type": "t_address"
							},
							{
								"astId": 510,
								"contract": "Qvoting.sol:Qvoting",
								"label": "hasVoted",
								"offset": 20,
								"slot": "1",
								"type": "t_bool"
							},
							{
								"astId": 512,
								"contract": "Qvoting.sol:Qvoting",
								"label": "voteNum",
								"offset": 0,
								"slot": "2",
								"type": "t_uint256"
							}
						],
						"numberOfBytes": "96"
					},
					"t_uint128": {
						"encoding": "inplace",
						"label": "uint128",
						"numberOfBytes": "16"
					},
					"t_uint16": {
						"encoding": "inplace",
						"label": "uint16",
						"numberOfBytes": "2"
					},
					"t_uint256": {
						"encoding": "inplace",
						"label": "uint256",
						"numberOfBytes": "32"
					},
					"t_uint8": {
						"encoding": "inplace",
						"label": "uint8",
						"numberOfBytes": "1"
					}
				}
			},
			"userdoc": {
				"kind": "user",
				"methods": {},
				"version": 1
			}
		}
	}
}