{
	"Qvoting.sol": {
		"Qvoting": {
			"abi": [
				{
					"anonymous": false,
					"inputs": [
						{
							"indexed": false,
							"internalType": "uint256",
							"name": "proposalId",
							"type": "uint256"
						},
						{
							"indexed": false,
							"internalType": "address[]",
							"name": "voters",
							"type": "address[]"
						},
						{
							"indexed": false,
							"internalType": "address",
							"name": "creator",
							"type": "address"
						},
						{
							"indexed": false,
							"internalType": "uint256",
							"name": "startTime",
							"type": "uint256"
						},
						{
							"indexed": false,
							"internalType": "uint256",
							"name": "expirationTime",
							"type": "uint256"
						},
						{
							"indexed": false,
							"internalType": "string",
							"name": "description",
							"type": "string"
						},
						{
							"indexed": false,
							"internalType": "string[]",
							"name": "_cand",
							"type": "string[]"
						}
					],
					"name": "ProposalCreated",
					"type": "event"
				},
				{
					"anonymous": false,
					"inputs": [
						{
							"indexed": false,
							"internalType": "address",
							"name": "voter",
							"type": "address"
						},
						{
							"indexed": false,
							"internalType": "uint256",
							"name": "ProposalID",
							"type": "uint256"
						},
						{
							"indexed": false,
							"internalType": "uint256[]",
							"name": "_tokens",
							"type": "uint256[]"
						}
					],
					"name": "VoteCasted",
					"type": "event"
				},
				{
					"anonymous": false,
					"inputs": [
						{
							"indexed": false,
							"internalType": "string",
							"name": "mintAndburn",
							"type": "string"
						},
						{
							"indexed": false,
							"internalType": "address",
							"name": "account",
							"type": "address"
						},
						{
							"indexed": false,
							"internalType": "uint256",
							"name": "amount",
							"type": "uint256"
						}
					],
					"name": "mintAndburn",
					"type": "event"
				},
				{
					"inputs": [
						{
							"internalType": "address",
							"name": "",
							"type": "address"
						}
					],
					"name": "allVoters",
					"outputs": [
						{
							"internalType": "uint256",
							"name": "proposalId",
							"type": "uint256"
						},
						{
							"internalType": "address",
							"name": "voterAddress",
							"type": "address"
						},
						{
							"internalType": "bool",
							"name": "hasVoted",
							"type": "bool"
						},
						{
							"internalType": "uint256",
							"name": "voteNum",
							"type": "uint256"
						}
					],
					"stateMutability": "view",
					"type": "function"
				},
				{
					"inputs": [
						{
							"internalType": "address",
							"name": "account",
							"type": "address"
						}
					],
					"name": "balanceOf",
					"outputs": [
						{
							"internalType": "uint256",
							"name": "",
							"type": "uint256"
						}
					],
					"stateMutability": "view",
					"type": "function"
				},
				{
					"inputs": [
						{
							"internalType": "uint8",
							"name": "_status",
							"type": "uint8"
						},
						{
							"internalType": "address[]",
							"name": "_voters",
							"type": "address[]"
						},
						{
							"internalType": "address",
							"name": "_creator",
							"type": "address"
						},
						{
							"internalType": "uint256",
							"name": "_startTime",
							"type": "uint256"
						},
						{
							"internalType": "uint256",
							"name": "_expirationTime",
							"type": "uint256"
						},
						{
							"internalType": "string",
							"name": "_disc",
							"type": "string"
						},
						{
							"internalType": "string[]",
							"name": "_cand",
							"type": "string[]"
						},
						{
							"internalType": "uint256",
							"name": "_voteRight",
							"type": "uint256"
						}
					],
					"name": "createProposal",
					"outputs": [],
					"stateMutability": "nonpayable",
					"type": "function"
				},
				{
					"inputs": [],
					"name": "decimals",
					"outputs": [
						{
							"internalType": "uint8",
							"name": "",
							"type": "uint8"
						}
					],
					"stateMutability": "view",
					"type": "function"
				},
				{
					"inputs": [],
					"name": "name",
					"outputs": [
						{
							"internalType": "string",
							"name": "",
							"type": "string"
						}
					],
					"stateMutability": "view",
					"type": "function"
				},
				{
					"inputs": [
						{
							"internalType": "uint256",
							"name": "",
							"type": "uint256"
						}
					],
					"name": "proposals",
					"outputs": [
						{
							"internalType": "address",
							"name": "creator",
							"type": "address"
						},
						{
							"internalType": "uint8",
							"name": "status",
							"type": "uint8"
						},
						{
							"internalType": "string",
							"name": "disc",
							"type": "string"
						},
						{
							"internalType": "uint256",
							"name": "startTime",
							"type": "uint256"
						},
						{
							"internalType": "uint256",
							"name": "expirationTime",
							"type": "uint256"
						},
						{
							"internalType": "uint16",
							"name": "numOfOptions",
							"type": "uint16"
						},
						{
							"internalType": "uint256",
							"name": "voteRight",
							"type": "uint256"
						}
					],
					"stateMutability": "view",
					"type": "function"
				},
				{
					"inputs": [
						{
							"internalType": "uint256",
							"name": "_proposalId",
							"type": "uint256"
						},
						{
							"internalType": "address",
							"name": "_voter",
							"type": "address"
						},
						{
							"internalType": "string[]",
							"name": "_hash",
							"type": "string[]"
						},
						{
							"internalType": "uint256[]",
							"name": "v",
							"type": "uint256[]"
						}
					],
					"name": "responseProposal",
					"outputs": [],
					"stateMutability": "nonpayable",
					"type": "function"
				},
				{
					"inputs": [],
					"name": "symbol",
					"outputs": [
						{
							"internalType": "string",
							"name": "",
							"type": "string"
						}
					],
					"stateMutability": "view",
					"type": "function"
				},
				{
					"inputs": [],
					"name": "totalSupply",
					"outputs": [
						{
							"internalType": "uint256",
							"name": "",
							"type": "uint256"
						}
					],
					"stateMutability": "view",
					"type": "function"
				},
				{
					"inputs": [
						{
							"internalType": "address",
							"name": "",
							"type": "address"
						}
					],
					"name": "userProposal",
					"outputs": [
						{
							"internalType": "uint128",
							"name": "proposalCount",
							"type": "uint128"
						},
						{
							"internalType": "uint128",
							"name": "responseCount",
							"type": "uint128"
						}
					],
					"stateMutability": "view",
					"type": "function"
				}
			],
			"devdoc": {
				"kind": "dev",
				"methods": {
					"balanceOf(address)": {
						"details": "See {IERC20-balanceOf}."
					},
					"decimals()": {
						"details": "Returns the number of decimals used to get its user representation. For example, if `decimals` equals `2`, a balance of `505` tokens should be displayed to a user as `5.05` (`505 / 10 ** 2`). Tokens usually opt for a value of 18, imitating the relationship between Ether and Wei. This is the value {ERC20} uses, unless this function is overridden; NOTE: This information is only used for _display_ purposes: it in no way affects any of the arithmetic of the contract, including {IERC20-balanceOf} and {IERC20-transfer}."
					},
					"name()": {
						"details": "Returns the name of the token."
					},
					"symbol()": {
						"details": "Returns the symbol of the token, usually a shorter version of the name."
					},
					"totalSupply()": {
						"details": "See {IERC20-totalSupply}."
					}
				},
				"version": 1
			},
			"evm": {
				"assembly": "    /* \"Qvoting.sol\":481:4386  contract Qvoting is proposalEvents, QVtoken{\r... */\n  mstore(0x40, 0x80)\n  callvalue\n  dup1\n  iszero\n  tag_1\n  jumpi\n  0x00\n  dup1\n  revert\ntag_1:\n  pop\n    /* \"QvToken/ERC20.sol\":2016:2132  constructor(string memory name_, string memory symbol_) {\r... */\n  mload(0x40)\n  dup1\n  0x40\n  add\n  0x40\n  mstore\n  dup1\n  0x0c\n  dup2\n  mstore\n  0x20\n  add\n  0x51566f74696e67546f6b656e0000000000000000000000000000000000000000\n  dup2\n  mstore\n  pop\n  mload(0x40)\n  dup1\n  0x40\n  add\n  0x40\n  mstore\n  dup1\n  0x02\n  dup2\n  mstore\n  0x20\n  add\n  0x5176000000000000000000000000000000000000000000000000000000000000\n  dup2\n  mstore\n  pop\n    /* \"QvToken/ERC20.sol\":2091:2096  name_ */\n  dup2\n    /* \"QvToken/ERC20.sol\":2083:2088  _name */\n  0x02\n    /* \"QvToken/ERC20.sol\":2083:2096  _name = name_ */\n  swap1\n  dup1\n  mload\n  swap1\n  0x20\n  add\n  swap1\n  tag_5\n  swap3\n  swap2\n  swap1\n  tag_6\n  jump\t// in\ntag_5:\n  pop\n    /* \"QvToken/ERC20.sol\":2117:2124  symbol_ */\n  dup1\n    /* \"QvToken/ERC20.sol\":2107:2114  _symbol */\n  0x03\n    /* \"QvToken/ERC20.sol\":2107:2124  _symbol = symbol_ */\n  swap1\n  dup1\n  mload\n  swap1\n  0x20\n  add\n  swap1\n  tag_7\n  swap3\n  swap2\n  swap1\n  tag_6\n  jump\t// in\ntag_7:\n  pop\n    /* \"QvToken/ERC20.sol\":2016:2132  constructor(string memory name_, string memory symbol_) {\r... */\n  pop\n  pop\n    /* \"QvToken/QvToken.sol\":280:290  msg.sender */\n  caller\n    /* \"QvToken/QvToken.sol\":272:277  owner */\n  0x04\n  0x00\n    /* \"QvToken/QvToken.sol\":272:290  owner = msg.sender */\n  0x0100\n  exp\n  dup2\n  sload\n  dup2\n  0xffffffffffffffffffffffffffffffffffffffff\n  mul\n  not\n  and\n  swap1\n  dup4\n  0xffffffffffffffffffffffffffffffffffffffff\n  and\n  mul\n  or\n  swap1\n  sstore\n  pop\n    /* \"Qvoting.sol\":481:4386  contract Qvoting is proposalEvents, QVtoken{\r... */\n  jump(tag_9)\ntag_6:\n  dup3\n  dup1\n  sload\n  tag_10\n  swap1\n  tag_11\n  jump\t// in\ntag_10:\n  swap1\n  0x00\n  mstore\n  keccak256(0x00, 0x20)\n  swap1\n  0x1f\n  add\n  0x20\n  swap1\n  div\n  dup2\n  add\n  swap3\n  dup3\n  tag_13\n  jumpi\n  0x00\n  dup6\n  sstore\n  jump(tag_12)\ntag_13:\n  dup3\n  0x1f\n  lt\n  tag_14\n  jumpi\n  dup1\n  mload\n  not(0xff)\n  and\n  dup4\n  dup1\n  add\n  or\n  dup6\n  sstore\n  jump(tag_12)\ntag_14:\n  dup3\n  dup1\n  add\n  0x01\n  add\n  dup6\n  sstore\n  dup3\n  iszero\n  tag_12\n  jumpi\n  swap2\n  dup3\n  add\ntag_15:\n  dup3\n  dup2\n  gt\n  iszero\n  tag_16\n  jumpi\n  dup3\n  mload\n  dup3\n  sstore\n  swap2\n  0x20\n  add\n  swap2\n  swap1\n  0x01\n  add\n  swap1\n  jump(tag_15)\ntag_16:\ntag_12:\n  pop\n  swap1\n  pop\n  tag_17\n  swap2\n  swap1\n  tag_18\n  jump\t// in\ntag_17:\n  pop\n  swap1\n  jump\t// out\ntag_18:\ntag_19:\n  dup1\n  dup3\n  gt\n  iszero\n  tag_20\n  jumpi\n  0x00\n  dup2\n  0x00\n  swap1\n  sstore\n  pop\n  0x01\n  add\n  jump(tag_19)\ntag_20:\n  pop\n  swap1\n  jump\t// out\n    /* \"#utility.yul\":7:327   */\ntag_11:\n    /* \"#utility.yul\":51:57   */\n  0x00\n    /* \"#utility.yul\":88:89   */\n  0x02\n    /* \"#utility.yul\":82:86   */\n  dup3\n    /* \"#utility.yul\":78:90   */\n  div\n    /* \"#utility.yul\":68:90   */\n  swap1\n  pop\n    /* \"#utility.yul\":135:136   */\n  0x01\n    /* \"#utility.yul\":129:133   */\n  dup3\n    /* \"#utility.yul\":125:137   */\n  and\n    /* \"#utility.yul\":156:174   */\n  dup1\n    /* \"#utility.yul\":146:227   */\n  tag_23\n  jumpi\n    /* \"#utility.yul\":212:216   */\n  0x7f\n    /* \"#utility.yul\":204:210   */\n  dup3\n    /* \"#utility.yul\":200:217   */\n  and\n    /* \"#utility.yul\":190:217   */\n  swap2\n  pop\n    /* \"#utility.yul\":146:227   */\ntag_23:\n    /* \"#utility.yul\":274:276   */\n  0x20\n    /* \"#utility.yul\":266:272   */\n  dup3\n    /* \"#utility.yul\":263:277   */\n  lt\n    /* \"#utility.yul\":243:261   */\n  dup2\n    /* \"#utility.yul\":240:278   */\n  eq\n    /* \"#utility.yul\":237:321   */\n  iszero\n  tag_24\n  jumpi\n    /* \"#utility.yul\":293:311   */\n  tag_25\n  tag_26\n  jump\t// in\ntag_25:\n    /* \"#utility.yul\":237:321   */\ntag_24:\n    /* \"#utility.yul\":58:327   */\n  pop\n    /* \"#utility.yul\":7:327   */\n  swap2\n  swap1\n  pop\n  jump\t// out\n    /* \"#utility.yul\":333:513   */\ntag_26:\n    /* \"#utility.yul\":381:458   */\n  0x4e487b7100000000000000000000000000000000000000000000000000000000\n    /* \"#utility.yul\":378:379   */\n  0x00\n    /* \"#utility.yul\":371:459   */\n  mstore\n    /* \"#utility.yul\":478:482   */\n  0x22\n    /* \"#utility.yul\":475:476   */\n  0x04\n    /* \"#utility.yul\":468:483   */\n  mstore\n    /* \"#utility.yul\":502:506   */\n  0x24\n    /* \"#utility.yul\":499:500   */\n  0x00\n    /* \"#utility.yul\":492:507   */\n  revert\n    /* \"Qvoting.sol\":481:4386  contract Qvoting is proposalEvents, QVtoken{\r... */\ntag_9:\n  dataSize(sub_0)\n  dup1\n  dataOffset(sub_0)\n  0x00\n  codecopy\n  0x00\n  return\nstop\n\nsub_0: assembly {\n        /* \"Qvoting.sol\":481:4386  contract Qvoting is proposalEvents, QVtoken{\r... */\n      mstore(0x40, 0x80)\n      callvalue\n      dup1\n      iszero\n      tag_1\n      jumpi\n      0x00\n      dup1\n      revert\n    tag_1:\n      pop\n      jumpi(tag_2, lt(calldatasize, 0x04))\n      shr(0xe0, calldataload(0x00))\n      dup1\n      0x5c230eee\n      gt\n      tag_13\n      jumpi\n      dup1\n      0x5c230eee\n      eq\n      tag_8\n      jumpi\n      dup1\n      0x70a08231\n      eq\n      tag_9\n      jumpi\n      dup1\n      0x95d89b41\n      eq\n      tag_10\n      jumpi\n      dup1\n      0xc3703048\n      eq\n      tag_11\n      jumpi\n      dup1\n      0xe745d68e\n      eq\n      tag_12\n      jumpi\n      jump(tag_2)\n    tag_13:\n      dup1\n      0x013cf08b\n      eq\n      tag_3\n      jumpi\n      dup1\n      0x06fdde03\n      eq\n      tag_4\n      jumpi\n      dup1\n      0x18160ddd\n      eq\n      tag_5\n      jumpi\n      dup1\n      0x313ce567\n      eq\n      tag_6\n      jumpi\n      dup1\n      0x4de77e48\n      eq\n      tag_7\n      jumpi\n    tag_2:\n      0x00\n      dup1\n      revert\n        /* \"Qvoting.sol\":1304:1362  mapping(uint => proposalLibrary.proposal) public proposals */\n    tag_3:\n      tag_14\n      0x04\n      dup1\n      calldatasize\n      sub\n      dup2\n      add\n      swap1\n      tag_15\n      swap2\n      swap1\n      tag_16\n      jump\t// in\n    tag_15:\n      tag_17\n      jump\t// in\n    tag_14:\n      mload(0x40)\n      tag_18\n      swap8\n      swap7\n      swap6\n      swap5\n      swap4\n      swap3\n      swap2\n      swap1\n      tag_19\n      jump\t// in\n    tag_18:\n      mload(0x40)\n      dup1\n      swap2\n      sub\n      swap1\n      return\n        /* \"QvToken/ERC20.sol\":2202:2302  function name() public view virtual override returns (string memory) {\r... */\n    tag_4:\n      tag_20\n      tag_21\n      jump\t// in\n    tag_20:\n      mload(0x40)\n      tag_22\n      swap2\n      swap1\n      tag_23\n      jump\t// in\n    tag_22:\n      mload(0x40)\n      dup1\n      swap2\n      sub\n      swap1\n      return\n        /* \"QvToken/ERC20.sol\":3322:3430  function totalSupply() public view virtual override returns (uint256) {\r... */\n    tag_5:\n      tag_24\n      tag_25\n      jump\t// in\n    tag_24:\n      mload(0x40)\n      tag_26\n      swap2\n      swap1\n      tag_27\n      jump\t// in\n    tag_26:\n      mload(0x40)\n      dup1\n      swap2\n      sub\n      swap1\n      return\n        /* \"QvToken/ERC20.sol\":3164:3257  function decimals() public view virtual override returns (uint8) {\r... */\n    tag_6:\n      tag_28\n      tag_29\n      jump\t// in\n    tag_28:\n      mload(0x40)\n      tag_30\n      swap2\n      swap1\n      tag_31\n      jump\t// in\n    tag_30:\n      mload(0x40)\n      dup1\n      swap2\n      sub\n      swap1\n      return\n        /* \"Qvoting.sol\":1948:3233  function createProposal(uint8 _status, address[] memory _voters, address _creator,\r... */\n    tag_7:\n      tag_32\n      0x04\n      dup1\n      calldatasize\n      sub\n      dup2\n      add\n      swap1\n      tag_33\n      swap2\n      swap1\n      tag_34\n      jump\t// in\n    tag_33:\n      tag_35\n      jump\t// in\n    tag_32:\n      stop\n        /* \"Qvoting.sol\":3241:4381  function responseProposal(uint _proposalId, address _voter, string[] memory _hash, uint[] memory v) external {\r... */\n    tag_8:\n      tag_36\n      0x04\n      dup1\n      calldatasize\n      sub\n      dup2\n      add\n      swap1\n      tag_37\n      swap2\n      swap1\n      tag_38\n      jump\t// in\n    tag_37:\n      tag_39\n      jump\t// in\n    tag_36:\n      stop\n        /* \"QvToken/ERC20.sol\":3493:3620  function balanceOf(address account) public view virtual override returns (uint256) {\r... */\n    tag_9:\n      tag_40\n      0x04\n      dup1\n      calldatasize\n      sub\n      dup2\n      add\n      swap1\n      tag_41\n      swap2\n      swap1\n      tag_42\n      jump\t// in\n    tag_41:\n      tag_43\n      jump\t// in\n    tag_40:\n      mload(0x40)\n      tag_44\n      swap2\n      swap1\n      tag_27\n      jump\t// in\n    tag_44:\n      mload(0x40)\n      dup1\n      swap2\n      sub\n      swap1\n      return\n        /* \"QvToken/ERC20.sol\":2421:2525  function symbol() public view virtual override returns (string memory) {\r... */\n    tag_10:\n      tag_45\n      tag_46\n      jump\t// in\n    tag_45:\n      mload(0x40)\n      tag_47\n      swap2\n      swap1\n      tag_23\n      jump\t// in\n    tag_47:\n      mload(0x40)\n      dup1\n      swap2\n      sub\n      swap1\n      return\n        /* \"Qvoting.sol\":1400:1455  mapping(address => voterLibrary.voter) public allVoters */\n    tag_11:\n      tag_48\n      0x04\n      dup1\n      calldatasize\n      sub\n      dup2\n      add\n      swap1\n      tag_49\n      swap2\n      swap1\n      tag_42\n      jump\t// in\n    tag_49:\n      tag_50\n      jump\t// in\n    tag_48:\n      mload(0x40)\n      tag_51\n      swap5\n      swap4\n      swap3\n      swap2\n      swap1\n      tag_52\n      jump\t// in\n    tag_51:\n      mload(0x40)\n      dup1\n      swap2\n      sub\n      swap1\n      return\n        /* \"Qvoting.sol\":1201:1273  mapping(address => UserProposalLibrary.UserProposal) public userProposal */\n    tag_12:\n      tag_53\n      0x04\n      dup1\n      calldatasize\n      sub\n      dup2\n      add\n      swap1\n      tag_54\n      swap2\n      swap1\n      tag_42\n      jump\t// in\n    tag_54:\n      tag_55\n      jump\t// in\n    tag_53:\n      mload(0x40)\n      tag_56\n      swap3\n      swap2\n      swap1\n      tag_57\n      jump\t// in\n    tag_56:\n      mload(0x40)\n      dup1\n      swap2\n      sub\n      swap1\n      return\n        /* \"Qvoting.sol\":1304:1362  mapping(uint => proposalLibrary.proposal) public proposals */\n    tag_17:\n      mstore(0x20, 0x07)\n      dup1\n      0x00\n      mstore\n      keccak256(0x00, 0x40)\n      0x00\n      swap2\n      pop\n      swap1\n      pop\n      dup1\n      0x00\n      add\n      0x00\n      swap1\n      sload\n      swap1\n      0x0100\n      exp\n      swap1\n      div\n      0xffffffffffffffffffffffffffffffffffffffff\n      and\n      swap1\n      dup1\n      0x00\n      add\n      0x14\n      swap1\n      sload\n      swap1\n      0x0100\n      exp\n      swap1\n      div\n      0xff\n      and\n      swap1\n      dup1\n      0x01\n      add\n      dup1\n      sload\n      tag_58\n      swap1\n      tag_59\n      jump\t// in\n    tag_58:\n      dup1\n      0x1f\n      add\n      0x20\n      dup1\n      swap2\n      div\n      mul\n      0x20\n      add\n      mload(0x40)\n      swap1\n      dup2\n      add\n      0x40\n      mstore\n      dup1\n      swap3\n      swap2\n      swap1\n      dup2\n      dup2\n      mstore\n      0x20\n      add\n      dup3\n      dup1\n      sload\n      tag_60\n      swap1\n      tag_59\n      jump\t// in\n    tag_60:\n      dup1\n      iszero\n      tag_61\n      jumpi\n      dup1\n      0x1f\n      lt\n      tag_62\n      jumpi\n      0x0100\n      dup1\n      dup4\n      sload\n      div\n      mul\n      dup4\n      mstore\n      swap2\n      0x20\n      add\n      swap2\n      jump(tag_61)\n    tag_62:\n      dup3\n      add\n      swap2\n      swap1\n      0x00\n      mstore\n      keccak256(0x00, 0x20)\n      swap1\n    tag_63:\n      dup2\n      sload\n      dup2\n      mstore\n      swap1\n      0x01\n      add\n      swap1\n      0x20\n      add\n      dup1\n      dup4\n      gt\n      tag_63\n      jumpi\n      dup3\n      swap1\n      sub\n      0x1f\n      and\n      dup3\n      add\n      swap2\n    tag_61:\n      pop\n      pop\n      pop\n      pop\n      pop\n      swap1\n      dup1\n      0x02\n      add\n      sload\n      swap1\n      dup1\n      0x03\n      add\n      sload\n      swap1\n      dup1\n      0x04\n      add\n      0x00\n      swap1\n      sload\n      swap1\n      0x0100\n      exp\n      swap1\n      div\n      0xffff\n      and\n      swap1\n      dup1\n      0x05\n      add\n      sload\n      swap1\n      pop\n      dup8\n      jump\t// out\n        /* \"QvToken/ERC20.sol\":2202:2302  function name() public view virtual override returns (string memory) {\r... */\n    tag_21:\n        /* \"QvToken/ERC20.sol\":2256:2269  string memory */\n      0x60\n        /* \"QvToken/ERC20.sol\":2289:2294  _name */\n      0x02\n        /* \"QvToken/ERC20.sol\":2282:2294  return _name */\n      dup1\n      sload\n      tag_65\n      swap1\n      tag_59\n      jump\t// in\n    tag_65:\n      dup1\n      0x1f\n      add\n      0x20\n      dup1\n      swap2\n      div\n      mul\n      0x20\n      add\n      mload(0x40)\n      swap1\n      dup2\n      add\n      0x40\n      mstore\n      dup1\n      swap3\n      swap2\n      swap1\n      dup2\n      dup2\n      mstore\n      0x20\n      add\n      dup3\n      dup1\n      sload\n      tag_66\n      swap1\n      tag_59\n      jump\t// in\n    tag_66:\n      dup1\n      iszero\n      tag_67\n      jumpi\n      dup1\n      0x1f\n      lt\n      tag_68\n      jumpi\n      0x0100\n      dup1\n      dup4\n      sload\n      div\n      mul\n      dup4\n      mstore\n      swap2\n      0x20\n      add\n      swap2\n      jump(tag_67)\n    tag_68:\n      dup3\n      add\n      swap2\n      swap1\n      0x00\n      mstore\n      keccak256(0x00, 0x20)\n      swap1\n    tag_69:\n      dup2\n      sload\n      dup2\n      mstore\n      swap1\n      0x01\n      add\n      swap1\n      0x20\n      add\n      dup1\n      dup4\n      gt\n      tag_69\n      jumpi\n      dup3\n      swap1\n      sub\n      0x1f\n      and\n      dup3\n      add\n      swap2\n    tag_67:\n      pop\n      pop\n      pop\n      pop\n      pop\n      swap1\n      pop\n        /* \"QvToken/ERC20.sol\":2202:2302  function name() public view virtual override returns (string memory) {\r... */\n      swap1\n      jump\t// out\n        /* \"QvToken/ERC20.sol\":3322:3430  function totalSupply() public view virtual override returns (uint256) {\r... */\n    tag_25:\n        /* \"QvToken/ERC20.sol\":3383:3390  uint256 */\n      0x00\n        /* \"QvToken/ERC20.sol\":3410:3422  _totalSupply */\n      sload(0x01)\n        /* \"QvToken/ERC20.sol\":3403:3422  return _totalSupply */\n      swap1\n      pop\n        /* \"QvToken/ERC20.sol\":3322:3430  function totalSupply() public view virtual override returns (uint256) {\r... */\n      swap1\n      jump\t// out\n        /* \"QvToken/ERC20.sol\":3164:3257  function decimals() public view virtual override returns (uint8) {\r... */\n    tag_29:\n        /* \"QvToken/ERC20.sol\":3222:3227  uint8 */\n      0x00\n        /* \"QvToken/ERC20.sol\":3247:3249  18 */\n      0x12\n        /* \"QvToken/ERC20.sol\":3240:3249  return 18 */\n      swap1\n      pop\n        /* \"QvToken/ERC20.sol\":3164:3257  function decimals() public view virtual override returns (uint8) {\r... */\n      swap1\n      jump\t// out\n        /* \"Qvoting.sol\":1948:3233  function createProposal(uint8 _status, address[] memory _voters, address _creator,\r... */\n    tag_35:\n        /* \"Qvoting.sol\":2322:2332  _startTime */\n      dup6\n        /* \"Qvoting.sol\":2304:2319  block.timestamp */\n      timestamp\n        /* \"Qvoting.sol\":2304:2332  block.timestamp < _startTime */\n      lt\n        /* \"Qvoting.sol\":2296:2356  require(block.timestamp < _startTime,\"proposal not started\") */\n      tag_73\n      jumpi\n      mload(0x40)\n      0x08c379a000000000000000000000000000000000000000000000000000000000\n      dup2\n      mstore\n      0x04\n      add\n      tag_74\n      swap1\n      tag_75\n      jump\t// in\n    tag_74:\n      mload(0x40)\n      dup1\n      swap2\n      sub\n      swap1\n      revert\n    tag_73:\n        /* \"Qvoting.sol\":2393:2408  _expirationTime */\n      dup5\n        /* \"Qvoting.sol\":2375:2390  block.timestamp */\n      timestamp\n        /* \"Qvoting.sol\":2375:2408  block.timestamp < _expirationTime */\n      lt\n        /* \"Qvoting.sol\":2367:2456  require(block.timestamp < _expirationTime,\"End time should be greater than current time\") */\n      tag_76\n      jumpi\n      mload(0x40)\n      0x08c379a000000000000000000000000000000000000000000000000000000000\n      dup2\n      mstore\n      0x04\n      add\n      tag_77\n      swap1\n      tag_78\n      jump\t// in\n    tag_77:\n      mload(0x40)\n      dup1\n      swap2\n      sub\n      swap1\n      revert\n    tag_76:\n        /* \"Qvoting.sol\":2488:2503  _expirationTime */\n      dup5\n        /* \"Qvoting.sol\":2475:2485  _startTime */\n      dup7\n        /* \"Qvoting.sol\":2475:2503  _startTime < _expirationTime */\n      lt\n        /* \"Qvoting.sol\":2467:2549  require(_startTime < _expirationTime,\"End time should be greater than start time\") */\n      tag_79\n      jumpi\n      mload(0x40)\n      0x08c379a000000000000000000000000000000000000000000000000000000000\n      dup2\n      mstore\n      0x04\n      add\n      tag_80\n      swap1\n      tag_81\n      jump\t// in\n    tag_80:\n      mload(0x40)\n      dup1\n      swap2\n      sub\n      swap1\n      revert\n    tag_79:\n        /* \"Qvoting.sol\":2562:2572  proposalId */\n      0x05\n      0x00\n        /* \"Qvoting.sol\":2562:2574  proposalId++ */\n      dup2\n      sload\n      dup1\n      swap3\n      swap2\n      swap1\n      tag_82\n      swap1\n      tag_83\n      jump\t// in\n    tag_82:\n      swap2\n      swap1\n      pop\n      sstore\n      pop\n        /* \"Qvoting.sol\":2585:2697  proposals[proposalId].createProposal(_status,_voters,_creator,_startTime,_expirationTime,_disc,_voteRight,_cand) */\n      tag_84\n        /* \"Qvoting.sol\":2622:2629  _status */\n      dup10\n        /* \"Qvoting.sol\":2630:2637  _voters */\n      dup10\n        /* \"Qvoting.sol\":2638:2646  _creator */\n      dup10\n        /* \"Qvoting.sol\":2647:2657  _startTime */\n      dup10\n        /* \"Qvoting.sol\":2658:2673  _expirationTime */\n      dup10\n        /* \"Qvoting.sol\":2674:2679  _disc */\n      dup10\n        /* \"Qvoting.sol\":2680:2690  _voteRight */\n      dup8\n        /* \"Qvoting.sol\":2691:2696  _cand */\n      dup11\n      dup11\n        /* \"Qvoting.sol\":2585:2594  proposals */\n      0x07\n        /* \"Qvoting.sol\":2585:2606  proposals[proposalId] */\n      0x00\n        /* \"Qvoting.sol\":2595:2605  proposalId */\n      sload(0x05)\n        /* \"Qvoting.sol\":2585:2606  proposals[proposalId] */\n      dup2\n      mstore\n      0x20\n      add\n      swap1\n      dup2\n      mstore\n      0x20\n      add\n      0x00\n      keccak256\n        /* \"Qvoting.sol\":2585:2621  proposals[proposalId].createProposal */\n      tag_85\n      swap1\n        /* \"Qvoting.sol\":2585:2697  proposals[proposalId].createProposal(_status,_voters,_creator,_startTime,_expirationTime,_disc,_voteRight,_cand) */\n      swap10\n      swap9\n      swap8\n      swap7\n      swap6\n      swap5\n      swap4\n      swap3\n      swap2\n      swap1\n      0xffffffff\n      and\n      jump\t// in\n    tag_84:\n      pop\n        /* \"Qvoting.sol\":2713:2797  ProposalCreated(proposalId, _voters,_creator,_startTime,_expirationTime,_disc,_cand) */\n      0x239a8a71a7d1cb0d134f6cc072ad6390e36a88c8e78dff69013ee79528441e80\n        /* \"Qvoting.sol\":2729:2739  proposalId */\n      sload(0x05)\n        /* \"Qvoting.sol\":2741:2748  _voters */\n      dup10\n        /* \"Qvoting.sol\":2749:2757  _creator */\n      dup10\n        /* \"Qvoting.sol\":2758:2768  _startTime */\n      dup10\n        /* \"Qvoting.sol\":2769:2784  _expirationTime */\n      dup10\n        /* \"Qvoting.sol\":2785:2790  _disc */\n      dup10\n        /* \"Qvoting.sol\":2791:2796  _cand */\n      dup10\n      dup10\n        /* \"Qvoting.sol\":2713:2797  ProposalCreated(proposalId, _voters,_creator,_startTime,_expirationTime,_disc,_cand) */\n      mload(0x40)\n      tag_86\n      swap9\n      swap8\n      swap7\n      swap6\n      swap5\n      swap4\n      swap3\n      swap2\n      swap1\n      tag_87\n      jump\t// in\n    tag_86:\n      mload(0x40)\n      dup1\n      swap2\n      sub\n      swap1\n      log1\n        /* \"Qvoting.sol\":2837:2841  true */\n      0x01\n        /* \"Qvoting.sol\":2808:2822  validProposals */\n      0x09\n        /* \"Qvoting.sol\":2808:2834  validProposals[proposalId] */\n      0x00\n        /* \"Qvoting.sol\":2823:2833  proposalId */\n      sload(0x05)\n        /* \"Qvoting.sol\":2808:2834  validProposals[proposalId] */\n      dup2\n      mstore\n      0x20\n      add\n      swap1\n      dup2\n      mstore\n      0x20\n      add\n      0x00\n      keccak256\n      0x00\n        /* \"Qvoting.sol\":2808:2841  validProposals[proposalId] = true */\n      0x0100\n      exp\n      dup2\n      sload\n      dup2\n      0xff\n      mul\n      not\n      and\n      swap1\n      dup4\n      iszero\n      iszero\n      mul\n      or\n      swap1\n      sstore\n      pop\n        /* \"Qvoting.sol\":2913:2922  uint256 i */\n      0x00\n        /* \"Qvoting.sol\":2909:3156  for(uint256 i=0;i<_voters.length;i++){\r... */\n    tag_88:\n        /* \"Qvoting.sol\":2927:2934  _voters */\n      dup9\n        /* \"Qvoting.sol\":2927:2941  _voters.length */\n      mload\n        /* \"Qvoting.sol\":2925:2926  i */\n      dup2\n        /* \"Qvoting.sol\":2925:2941  i<_voters.length */\n      lt\n        /* \"Qvoting.sol\":2909:3156  for(uint256 i=0;i<_voters.length;i++){\r... */\n      iszero\n      tag_89\n      jumpi\n        /* \"Qvoting.sol\":2961:2988  mint(_voters[i],_voteRight) */\n      tag_91\n        /* \"Qvoting.sol\":2966:2973  _voters */\n      dup10\n        /* \"Qvoting.sol\":2974:2975  i */\n      dup3\n        /* \"Qvoting.sol\":2966:2976  _voters[i] */\n      dup2\n      mload\n      dup2\n      lt\n      tag_92\n      jumpi\n      tag_93\n      tag_94\n      jump\t// in\n    tag_93:\n    tag_92:\n      0x20\n      mul\n      0x20\n      add\n      add\n      mload\n        /* \"Qvoting.sol\":2977:2987  _voteRight */\n      dup4\n        /* \"Qvoting.sol\":2961:2965  mint */\n      tag_95\n        /* \"Qvoting.sol\":2961:2988  mint(_voters[i],_voteRight) */\n      jump\t// in\n    tag_91:\n        /* \"Qvoting.sol\":3003:3079  allVoters[_voters[i]].createVoter(proposalId, _voters[i], false, _voteRight) */\n      tag_96\n        /* \"Qvoting.sol\":3037:3047  proposalId */\n      sload(0x05)\n        /* \"Qvoting.sol\":3049:3056  _voters */\n      dup11\n        /* \"Qvoting.sol\":3057:3058  i */\n      dup4\n        /* \"Qvoting.sol\":3049:3059  _voters[i] */\n      dup2\n      mload\n      dup2\n      lt\n      tag_97\n      jumpi\n      tag_98\n      tag_94\n      jump\t// in\n    tag_98:\n    tag_97:\n      0x20\n      mul\n      0x20\n      add\n      add\n      mload\n        /* \"Qvoting.sol\":3061:3066  false */\n      0x00\n        /* \"Qvoting.sol\":3068:3078  _voteRight */\n      dup6\n        /* \"Qvoting.sol\":3003:3012  allVoters */\n      0x08\n        /* \"Qvoting.sol\":3003:3024  allVoters[_voters[i]] */\n      0x00\n        /* \"Qvoting.sol\":3013:3020  _voters */\n      dup16\n        /* \"Qvoting.sol\":3021:3022  i */\n      dup9\n        /* \"Qvoting.sol\":3013:3023  _voters[i] */\n      dup2\n      mload\n      dup2\n      lt\n      tag_99\n      jumpi\n      tag_100\n      tag_94\n      jump\t// in\n    tag_100:\n    tag_99:\n      0x20\n      mul\n      0x20\n      add\n      add\n      mload\n        /* \"Qvoting.sol\":3003:3024  allVoters[_voters[i]] */\n      0xffffffffffffffffffffffffffffffffffffffff\n      and\n      0xffffffffffffffffffffffffffffffffffffffff\n      and\n      dup2\n      mstore\n      0x20\n      add\n      swap1\n      dup2\n      mstore\n      0x20\n      add\n      0x00\n      keccak256\n        /* \"Qvoting.sol\":3003:3036  allVoters[_voters[i]].createVoter */\n      tag_101\n      swap1\n        /* \"Qvoting.sol\":3003:3079  allVoters[_voters[i]].createVoter(proposalId, _voters[i], false, _voteRight) */\n      swap5\n      swap4\n      swap3\n      swap2\n      swap1\n      0xffffffff\n      and\n      jump\t// in\n    tag_96:\n      pop\n        /* \"Qvoting.sol\":3099:3140  mintAndburn(\"mint\",_voters[i],_voteRight) */\n      0xabf5327be9f5825c40d58bda541dd07f09b62df3376bbd5ecdbaa8bd82a9d492\n        /* \"Qvoting.sol\":3118:3125  _voters */\n      dup10\n        /* \"Qvoting.sol\":3126:3127  i */\n      dup3\n        /* \"Qvoting.sol\":3118:3128  _voters[i] */\n      dup2\n      mload\n      dup2\n      lt\n      tag_102\n      jumpi\n      tag_103\n      tag_94\n      jump\t// in\n    tag_103:\n    tag_102:\n      0x20\n      mul\n      0x20\n      add\n      add\n      mload\n        /* \"Qvoting.sol\":3129:3139  _voteRight */\n      dup4\n        /* \"Qvoting.sol\":3099:3140  mintAndburn(\"mint\",_voters[i],_voteRight) */\n      mload(0x40)\n      tag_104\n      swap3\n      swap2\n      swap1\n      tag_105\n      jump\t// in\n    tag_104:\n      mload(0x40)\n      dup1\n      swap2\n      sub\n      swap1\n      log1\n        /* \"Qvoting.sol\":2942:2945  i++ */\n      dup1\n      dup1\n      tag_106\n      swap1\n      tag_83\n      jump\t// in\n    tag_106:\n      swap2\n      pop\n      pop\n        /* \"Qvoting.sol\":2909:3156  for(uint256 i=0;i<_voters.length;i++){\r... */\n      jump(tag_88)\n    tag_89:\n      pop\n        /* \"Qvoting.sol\":3168:3225  userProposal[_msgSender()].updateProposalList(proposalId) */\n      tag_107\n        /* \"Qvoting.sol\":3214:3224  proposalId */\n      sload(0x05)\n        /* \"Qvoting.sol\":3168:3180  userProposal */\n      0x06\n        /* \"Qvoting.sol\":3168:3194  userProposal[_msgSender()] */\n      0x00\n        /* \"Qvoting.sol\":3181:3193  _msgSender() */\n      tag_108\n        /* \"Qvoting.sol\":3181:3191  _msgSender */\n      tag_109\n        /* \"Qvoting.sol\":3181:3193  _msgSender() */\n      jump\t// in\n    tag_108:\n        /* \"Qvoting.sol\":3168:3194  userProposal[_msgSender()] */\n      0xffffffffffffffffffffffffffffffffffffffff\n      and\n      0xffffffffffffffffffffffffffffffffffffffff\n      and\n      dup2\n      mstore\n      0x20\n      add\n      swap1\n      dup2\n      mstore\n      0x20\n      add\n      0x00\n      keccak256\n        /* \"Qvoting.sol\":3168:3213  userProposal[_msgSender()].updateProposalList */\n      tag_110\n      swap1\n        /* \"Qvoting.sol\":3168:3225  userProposal[_msgSender()].updateProposalList(proposalId) */\n      swap2\n      swap1\n      0xffffffff\n      and\n      jump\t// in\n    tag_107:\n      pop\n        /* \"Qvoting.sol\":1948:3233  function createProposal(uint8 _status, address[] memory _voters, address _creator,\r... */\n      pop\n      pop\n      pop\n      pop\n      pop\n      pop\n      pop\n      pop\n      pop\n      jump\t// out\n        /* \"Qvoting.sol\":3241:4381  function responseProposal(uint _proposalId, address _voter, string[] memory _hash, uint[] memory v) external {\r... */\n    tag_39:\n        /* \"Qvoting.sol\":3464:3478  validProposals */\n      0x09\n        /* \"Qvoting.sol\":3464:3491  validProposals[_proposalId] */\n      0x00\n        /* \"Qvoting.sol\":3479:3490  _proposalId */\n      dup6\n        /* \"Qvoting.sol\":3464:3491  validProposals[_proposalId] */\n      dup2\n      mstore\n      0x20\n      add\n      swap1\n      dup2\n      mstore\n      0x20\n      add\n      0x00\n      keccak256\n      0x00\n      swap1\n      sload\n      swap1\n      0x0100\n      exp\n      swap1\n      div\n      0xff\n      and\n        /* \"Qvoting.sol\":3456:3513  require(validProposals[_proposalId],\"invalid proposalId\") */\n      tag_112\n      jumpi\n      mload(0x40)\n      0x08c379a000000000000000000000000000000000000000000000000000000000\n      dup2\n      mstore\n      0x04\n      add\n      tag_113\n      swap1\n      tag_114\n      jump\t// in\n    tag_113:\n      mload(0x40)\n      dup1\n      swap2\n      sub\n      swap1\n      revert\n    tag_112:\n        /* \"Qvoting.sol\":3564:3575  _proposalId */\n      dup4\n        /* \"Qvoting.sol\":3532:3541  allVoters */\n      0x08\n        /* \"Qvoting.sol\":3532:3549  allVoters[_voter] */\n      0x00\n        /* \"Qvoting.sol\":3542:3548  _voter */\n      dup6\n        /* \"Qvoting.sol\":3532:3549  allVoters[_voter] */\n      0xffffffffffffffffffffffffffffffffffffffff\n      and\n      0xffffffffffffffffffffffffffffffffffffffff\n      and\n      dup2\n      mstore\n      0x20\n      add\n      swap1\n      dup2\n      mstore\n      0x20\n      add\n      0x00\n      keccak256\n        /* \"Qvoting.sol\":3532:3560  allVoters[_voter].proposalId */\n      0x00\n      add\n      sload\n        /* \"Qvoting.sol\":3532:3575  allVoters[_voter].proposalId == _proposalId */\n      eq\n        /* \"Qvoting.sol\":3524:3615  require(allVoters[_voter].proposalId == _proposalId, \"not a valid voter for this proposal\") */\n      tag_115\n      jumpi\n      mload(0x40)\n      0x08c379a000000000000000000000000000000000000000000000000000000000\n      dup2\n      mstore\n      0x04\n      add\n      tag_116\n      swap1\n      tag_117\n      jump\t// in\n    tag_116:\n      mload(0x40)\n      dup1\n      swap2\n      sub\n      swap1\n      revert\n    tag_115:\n        /* \"Qvoting.sol\":3696:3705  allVoters */\n      0x08\n        /* \"Qvoting.sol\":3696:3713  allVoters[_voter] */\n      0x00\n        /* \"Qvoting.sol\":3706:3712  _voter */\n      dup5\n        /* \"Qvoting.sol\":3696:3713  allVoters[_voter] */\n      0xffffffffffffffffffffffffffffffffffffffff\n      and\n      0xffffffffffffffffffffffffffffffffffffffff\n      and\n      dup2\n      mstore\n      0x20\n      add\n      swap1\n      dup2\n      mstore\n      0x20\n      add\n      0x00\n      keccak256\n        /* \"Qvoting.sol\":3696:3722  allVoters[_voter].hasVoted */\n      0x01\n      add\n      0x14\n      swap1\n      sload\n      swap1\n      0x0100\n      exp\n      swap1\n      div\n      0xff\n      and\n        /* \"Qvoting.sol\":3695:3722  !allVoters[_voter].hasVoted */\n      iszero\n        /* \"Qvoting.sol\":3687:3740  require(!allVoters[_voter].hasVoted, \"already voted\") */\n      tag_118\n      jumpi\n      mload(0x40)\n      0x08c379a000000000000000000000000000000000000000000000000000000000\n      dup2\n      mstore\n      0x04\n      add\n      tag_119\n      swap1\n      tag_120\n      jump\t// in\n    tag_119:\n      mload(0x40)\n      dup1\n      swap2\n      sub\n      swap1\n      revert\n    tag_118:\n        /* \"Qvoting.sol\":3797:3802  _hash */\n      dup2\n        /* \"Qvoting.sol\":3797:3809  _hash.length */\n      mload\n        /* \"Qvoting.sol\":3759:3768  proposals */\n      0x07\n        /* \"Qvoting.sol\":3759:3781  proposals[_proposalId] */\n      0x00\n        /* \"Qvoting.sol\":3769:3780  _proposalId */\n      dup7\n        /* \"Qvoting.sol\":3759:3781  proposals[_proposalId] */\n      dup2\n      mstore\n      0x20\n      add\n      swap1\n      dup2\n      mstore\n      0x20\n      add\n      0x00\n      keccak256\n        /* \"Qvoting.sol\":3759:3794  proposals[_proposalId].numOfOptions */\n      0x04\n      add\n      0x00\n      swap1\n      sload\n      swap1\n      0x0100\n      exp\n      swap1\n      div\n      0xffff\n      and\n        /* \"Qvoting.sol\":3759:3809  proposals[_proposalId].numOfOptions ==_hash.length */\n      0xffff\n      and\n      eq\n        /* \"Qvoting.sol\":3751:3850  require(proposals[_proposalId].numOfOptions ==_hash.length, \"not a valid length of hash response!\") */\n      tag_121\n      jumpi\n      mload(0x40)\n      0x08c379a000000000000000000000000000000000000000000000000000000000\n      dup2\n      mstore\n      0x04\n      add\n      tag_122\n      swap1\n      tag_123\n      jump\t// in\n    tag_122:\n      mload(0x40)\n      dup1\n      swap2\n      sub\n      swap1\n      revert\n    tag_121:\n        /* \"Qvoting.sol\":3861:3869  uint sum */\n      0x00\n        /* \"Qvoting.sol\":3886:3892  uint i */\n      dup1\n        /* \"Qvoting.sol\":3882:3951  for(uint i=0;i<v.length;i++){\r... */\n    tag_124:\n        /* \"Qvoting.sol\":3897:3898  v */\n      dup3\n        /* \"Qvoting.sol\":3897:3905  v.length */\n      mload\n        /* \"Qvoting.sol\":3895:3896  i */\n      dup2\n        /* \"Qvoting.sol\":3895:3905  i<v.length */\n      lt\n        /* \"Qvoting.sol\":3882:3951  for(uint i=0;i<v.length;i++){\r... */\n      iszero\n      tag_125\n      jumpi\n        /* \"Qvoting.sol\":3935:3936  v */\n      dup3\n        /* \"Qvoting.sol\":3937:3938  i */\n      dup2\n        /* \"Qvoting.sol\":3935:3939  v[i] */\n      dup2\n      mload\n      dup2\n      lt\n      tag_127\n      jumpi\n      tag_128\n      tag_94\n      jump\t// in\n    tag_128:\n    tag_127:\n      0x20\n      mul\n      0x20\n      add\n      add\n      mload\n        /* \"Qvoting.sol\":3930:3931  v */\n      dup4\n        /* \"Qvoting.sol\":3932:3933  i */\n      dup3\n        /* \"Qvoting.sol\":3930:3934  v[i] */\n      dup2\n      mload\n      dup2\n      lt\n      tag_129\n      jumpi\n      tag_130\n      tag_94\n      jump\t// in\n    tag_130:\n    tag_129:\n      0x20\n      mul\n      0x20\n      add\n      add\n      mload\n        /* \"Qvoting.sol\":3930:3939  v[i]*v[i] */\n      tag_131\n      swap2\n      swap1\n      tag_132\n      jump\t// in\n    tag_131:\n        /* \"Qvoting.sol\":3925:3939  sum+=v[i]*v[i] */\n      dup3\n      tag_133\n      swap2\n      swap1\n      tag_134\n      jump\t// in\n    tag_133:\n      swap2\n      pop\n        /* \"Qvoting.sol\":3906:3909  i++ */\n      dup1\n      dup1\n      tag_135\n      swap1\n      tag_83\n      jump\t// in\n    tag_135:\n      swap2\n      pop\n      pop\n        /* \"Qvoting.sol\":3882:3951  for(uint i=0;i<v.length;i++){\r... */\n      jump(tag_124)\n    tag_125:\n      pop\n        /* \"Qvoting.sol\":3998:4001  sum */\n      dup1\n        /* \"Qvoting.sol\":3969:3978  allVoters */\n      0x08\n        /* \"Qvoting.sol\":3969:3986  allVoters[_voter] */\n      0x00\n        /* \"Qvoting.sol\":3979:3985  _voter */\n      dup7\n        /* \"Qvoting.sol\":3969:3986  allVoters[_voter] */\n      0xffffffffffffffffffffffffffffffffffffffff\n      and\n      0xffffffffffffffffffffffffffffffffffffffff\n      and\n      dup2\n      mstore\n      0x20\n      add\n      swap1\n      dup2\n      mstore\n      0x20\n      add\n      0x00\n      keccak256\n        /* \"Qvoting.sol\":3969:3994  allVoters[_voter].voteNum */\n      0x02\n      add\n      sload\n        /* \"Qvoting.sol\":3969:4001  allVoters[_voter].voteNum >= sum */\n      lt\n      iszero\n        /* \"Qvoting.sol\":3961:4041  require(allVoters[_voter].voteNum >= sum, \"not sufficient balance to cast vote\") */\n      tag_136\n      jumpi\n      mload(0x40)\n      0x08c379a000000000000000000000000000000000000000000000000000000000\n      dup2\n      mstore\n      0x04\n      add\n      tag_137\n      swap1\n      tag_138\n      jump\t// in\n    tag_137:\n      mload(0x40)\n      dup1\n      swap2\n      sub\n      swap1\n      revert\n    tag_136:\n        /* \"Qvoting.sol\":4054:4110  proposals[_proposalId].responseProposal(_voter,_hash, v) */\n      tag_139\n        /* \"Qvoting.sol\":4094:4100  _voter */\n      dup5\n        /* \"Qvoting.sol\":4101:4106  _hash */\n      dup5\n        /* \"Qvoting.sol\":4108:4109  v */\n      dup5\n        /* \"Qvoting.sol\":4054:4063  proposals */\n      0x07\n        /* \"Qvoting.sol\":4054:4076  proposals[_proposalId] */\n      0x00\n        /* \"Qvoting.sol\":4064:4075  _proposalId */\n      dup11\n        /* \"Qvoting.sol\":4054:4076  proposals[_proposalId] */\n      dup2\n      mstore\n      0x20\n      add\n      swap1\n      dup2\n      mstore\n      0x20\n      add\n      0x00\n      keccak256\n        /* \"Qvoting.sol\":4054:4093  proposals[_proposalId].responseProposal */\n      tag_140\n      swap1\n        /* \"Qvoting.sol\":4054:4110  proposals[_proposalId].responseProposal(_voter,_hash, v) */\n      swap4\n      swap3\n      swap2\n      swap1\n      0xffffffff\n      and\n      jump\t// in\n    tag_139:\n      pop\n        /* \"Qvoting.sol\":4121:4186  userProposal[_msgSender()].updateResponseList(_proposalId, _hash) */\n      tag_141\n        /* \"Qvoting.sol\":4167:4178  _proposalId */\n      dup6\n        /* \"Qvoting.sol\":4180:4185  _hash */\n      dup5\n        /* \"Qvoting.sol\":4121:4133  userProposal */\n      0x06\n        /* \"Qvoting.sol\":4121:4147  userProposal[_msgSender()] */\n      0x00\n        /* \"Qvoting.sol\":4134:4146  _msgSender() */\n      tag_142\n        /* \"Qvoting.sol\":4134:4144  _msgSender */\n      tag_109\n        /* \"Qvoting.sol\":4134:4146  _msgSender() */\n      jump\t// in\n    tag_142:\n        /* \"Qvoting.sol\":4121:4147  userProposal[_msgSender()] */\n      0xffffffffffffffffffffffffffffffffffffffff\n      and\n      0xffffffffffffffffffffffffffffffffffffffff\n      and\n      dup2\n      mstore\n      0x20\n      add\n      swap1\n      dup2\n      mstore\n      0x20\n      add\n      0x00\n      keccak256\n        /* \"Qvoting.sol\":4121:4166  userProposal[_msgSender()].updateResponseList */\n      tag_143\n      swap1\n        /* \"Qvoting.sol\":4121:4186  userProposal[_msgSender()].updateResponseList(_proposalId, _hash) */\n      swap3\n      swap2\n      swap1\n      0xffffffff\n      and\n      jump\t// in\n    tag_141:\n      pop\n        /* \"Qvoting.sol\":4199:4232  allVoters[_voter].updateVoteNum() */\n      tag_144\n        /* \"Qvoting.sol\":4199:4208  allVoters */\n      0x08\n        /* \"Qvoting.sol\":4199:4216  allVoters[_voter] */\n      0x00\n        /* \"Qvoting.sol\":4209:4215  _voter */\n      dup7\n        /* \"Qvoting.sol\":4199:4216  allVoters[_voter] */\n      0xffffffffffffffffffffffffffffffffffffffff\n      and\n      0xffffffffffffffffffffffffffffffffffffffff\n      and\n      dup2\n      mstore\n      0x20\n      add\n      swap1\n      dup2\n      mstore\n      0x20\n      add\n      0x00\n      keccak256\n        /* \"Qvoting.sol\":4199:4230  allVoters[_voter].updateVoteNum */\n      tag_145\n        /* \"Qvoting.sol\":4199:4232  allVoters[_voter].updateVoteNum() */\n      jump\t// in\n    tag_144:\n      pop\n        /* \"Qvoting.sol\":4243:4287  burn(_voter,proposals[proposalId].voteRight) */\n      tag_146\n        /* \"Qvoting.sol\":4248:4254  _voter */\n      dup5\n        /* \"Qvoting.sol\":4255:4264  proposals */\n      0x07\n        /* \"Qvoting.sol\":4255:4276  proposals[proposalId] */\n      0x00\n        /* \"Qvoting.sol\":4265:4275  proposalId */\n      sload(0x05)\n        /* \"Qvoting.sol\":4255:4276  proposals[proposalId] */\n      dup2\n      mstore\n      0x20\n      add\n      swap1\n      dup2\n      mstore\n      0x20\n      add\n      0x00\n      keccak256\n        /* \"Qvoting.sol\":4255:4286  proposals[proposalId].voteRight */\n      0x05\n      add\n      sload\n        /* \"Qvoting.sol\":4243:4247  burn */\n      tag_147\n        /* \"Qvoting.sol\":4243:4287  burn(_voter,proposals[proposalId].voteRight) */\n      jump\t// in\n    tag_146:\n        /* \"Qvoting.sol\":4303:4363  mintAndburn(\"burn\", _voter, proposals[proposalId].voteRight) */\n      0xabf5327be9f5825c40d58bda541dd07f09b62df3376bbd5ecdbaa8bd82a9d492\n        /* \"Qvoting.sol\":4323:4329  _voter */\n      dup5\n        /* \"Qvoting.sol\":4331:4340  proposals */\n      0x07\n        /* \"Qvoting.sol\":4331:4352  proposals[proposalId] */\n      0x00\n        /* \"Qvoting.sol\":4341:4351  proposalId */\n      sload(0x05)\n        /* \"Qvoting.sol\":4331:4352  proposals[proposalId] */\n      dup2\n      mstore\n      0x20\n      add\n      swap1\n      dup2\n      mstore\n      0x20\n      add\n      0x00\n      keccak256\n        /* \"Qvoting.sol\":4331:4362  proposals[proposalId].voteRight */\n      0x05\n      add\n      sload\n        /* \"Qvoting.sol\":4303:4363  mintAndburn(\"burn\", _voter, proposals[proposalId].voteRight) */\n      mload(0x40)\n      tag_148\n      swap3\n      swap2\n      swap1\n      tag_149\n      jump\t// in\n    tag_148:\n      mload(0x40)\n      dup1\n      swap2\n      sub\n      swap1\n      log1\n        /* \"Qvoting.sol\":3350:4381  {\r... */\n      pop\n        /* \"Qvoting.sol\":3241:4381  function responseProposal(uint _proposalId, address _voter, string[] memory _hash, uint[] memory v) external {\r... */\n      pop\n      pop\n      pop\n      pop\n      jump\t// out\n        /* \"QvToken/ERC20.sol\":3493:3620  function balanceOf(address account) public view virtual override returns (uint256) {\r... */\n    tag_43:\n        /* \"QvToken/ERC20.sol\":3567:3574  uint256 */\n      0x00\n        /* \"QvToken/ERC20.sol\":3594:3603  _balances */\n      dup1\n        /* \"QvToken/ERC20.sol\":3594:3612  _balances[account] */\n      0x00\n        /* \"QvToken/ERC20.sol\":3604:3611  account */\n      dup4\n        /* \"QvToken/ERC20.sol\":3594:3612  _balances[account] */\n      0xffffffffffffffffffffffffffffffffffffffff\n      and\n      0xffffffffffffffffffffffffffffffffffffffff\n      and\n      dup2\n      mstore\n      0x20\n      add\n      swap1\n      dup2\n      mstore\n      0x20\n      add\n      0x00\n      keccak256\n      sload\n        /* \"QvToken/ERC20.sol\":3587:3612  return _balances[account] */\n      swap1\n      pop\n        /* \"QvToken/ERC20.sol\":3493:3620  function balanceOf(address account) public view virtual override returns (uint256) {\r... */\n      swap2\n      swap1\n      pop\n      jump\t// out\n        /* \"QvToken/ERC20.sol\":2421:2525  function symbol() public view virtual override returns (string memory) {\r... */\n    tag_46:\n        /* \"QvToken/ERC20.sol\":2477:2490  string memory */\n      0x60\n        /* \"QvToken/ERC20.sol\":2510:2517  _symbol */\n      0x03\n        /* \"QvToken/ERC20.sol\":2503:2517  return _symbol */\n      dup1\n      sload\n      tag_152\n      swap1\n      tag_59\n      jump\t// in\n    tag_152:\n      dup1\n      0x1f\n      add\n      0x20\n      dup1\n      swap2\n      div\n      mul\n      0x20\n      add\n      mload(0x40)\n      swap1\n      dup2\n      add\n      0x40\n      mstore\n      dup1\n      swap3\n      swap2\n      swap1\n      dup2\n      dup2\n      mstore\n      0x20\n      add\n      dup3\n      dup1\n      sload\n      tag_153\n      swap1\n      tag_59\n      jump\t// in\n    tag_153:\n      dup1\n      iszero\n      tag_154\n      jumpi\n      dup1\n      0x1f\n      lt\n      tag_155\n      jumpi\n      0x0100\n      dup1\n      dup4\n      sload\n      div\n      mul\n      dup4\n      mstore\n      swap2\n      0x20\n      add\n      swap2\n      jump(tag_154)\n    tag_155:\n      dup3\n      add\n      swap2\n      swap1\n      0x00\n      mstore\n      keccak256(0x00, 0x20)\n      swap1\n    tag_156:\n      dup2\n      sload\n      dup2\n      mstore\n      swap1\n      0x01\n      add\n      swap1\n      0x20\n      add\n      dup1\n      dup4\n      gt\n      tag_156\n      jumpi\n      dup3\n      swap1\n      sub\n      0x1f\n      and\n      dup3\n      add\n      swap2\n    tag_154:\n      pop\n      pop\n      pop\n      pop\n      pop\n      swap1\n      pop\n        /* \"QvToken/ERC20.sol\":2421:2525  function symbol() public view virtual override returns (string memory) {\r... */\n      swap1\n      jump\t// out\n        /* \"Qvoting.sol\":1400:1455  mapping(address => voterLibrary.voter) public allVoters */\n    tag_50:\n      mstore(0x20, 0x08)\n      dup1\n      0x00\n      mstore\n      keccak256(0x00, 0x40)\n      0x00\n      swap2\n      pop\n      swap1\n      pop\n      dup1\n      0x00\n      add\n      sload\n      swap1\n      dup1\n      0x01\n      add\n      0x00\n      swap1\n      sload\n      swap1\n      0x0100\n      exp\n      swap1\n      div\n      0xffffffffffffffffffffffffffffffffffffffff\n      and\n      swap1\n      dup1\n      0x01\n      add\n      0x14\n      swap1\n      sload\n      swap1\n      0x0100\n      exp\n      swap1\n      div\n      0xff\n      and\n      swap1\n      dup1\n      0x02\n      add\n      sload\n      swap1\n      pop\n      dup5\n      jump\t// out\n        /* \"Qvoting.sol\":1201:1273  mapping(address => UserProposalLibrary.UserProposal) public userProposal */\n    tag_55:\n      mstore(0x20, 0x06)\n      dup1\n      0x00\n      mstore\n      keccak256(0x00, 0x40)\n      0x00\n      swap2\n      pop\n      swap1\n      pop\n      dup1\n      0x00\n      add\n      0x00\n      swap1\n      sload\n      swap1\n      0x0100\n      exp\n      swap1\n      div\n      0xffffffffffffffffffffffffffffffff\n      and\n      swap1\n      dup1\n      0x00\n      add\n      0x10\n      swap1\n      sload\n      swap1\n      0x0100\n      exp\n      swap1\n      div\n      0xffffffffffffffffffffffffffffffff\n      and\n      swap1\n      pop\n      dup3\n      jump\t// out\n        /* \"Library/ProposalLibrary.sol\":806:1983  function createProposal(proposal storage self, uint8 _status, address[] memory _voters, address _creator,\r... */\n    tag_85:\n        /* \"Library/ProposalLibrary.sol\":1044:1048  bool */\n      0x00\n        /* \"Library/ProposalLibrary.sol\":1099:1107  _creator */\n      dup8\n        /* \"Library/ProposalLibrary.sol\":1084:1088  self */\n      dup12\n        /* \"Library/ProposalLibrary.sol\":1084:1096  self.creator */\n      0x00\n      add\n      0x00\n        /* \"Library/ProposalLibrary.sol\":1084:1107  self.creator = _creator */\n      0x0100\n      exp\n      dup2\n      sload\n      dup2\n      0xffffffffffffffffffffffffffffffffffffffff\n      mul\n      not\n      and\n      swap1\n      dup4\n      0xffffffffffffffffffffffffffffffffffffffff\n      and\n      mul\n      or\n      swap1\n      sstore\n      pop\n        /* \"Library/ProposalLibrary.sol\":1156:1163  _status */\n      dup10\n        /* \"Library/ProposalLibrary.sol\":1142:1146  self */\n      dup12\n        /* \"Library/ProposalLibrary.sol\":1142:1153  self.status */\n      0x00\n      add\n      0x14\n        /* \"Library/ProposalLibrary.sol\":1142:1163  self.status = _status */\n      0x0100\n      exp\n      dup2\n      sload\n      dup2\n      0xff\n      mul\n      not\n      and\n      swap1\n      dup4\n      0xff\n      and\n      mul\n      or\n      swap1\n      sstore\n      pop\n        /* \"Library/ProposalLibrary.sol\":1210:1215  _disc */\n      dup5\n        /* \"Library/ProposalLibrary.sol\":1198:1202  self */\n      dup12\n        /* \"Library/ProposalLibrary.sol\":1198:1207  self.disc */\n      0x01\n      add\n        /* \"Library/ProposalLibrary.sol\":1198:1215  self.disc = _disc */\n      swap1\n      dup1\n      mload\n      swap1\n      0x20\n      add\n      swap1\n      tag_158\n      swap3\n      swap2\n      swap1\n      tag_159\n      jump\t// in\n    tag_158:\n      pop\n        /* \"Library/ProposalLibrary.sol\":1267:1277  _startTime */\n      dup7\n        /* \"Library/ProposalLibrary.sol\":1250:1254  self */\n      dup12\n        /* \"Library/ProposalLibrary.sol\":1250:1264  self.startTime */\n      0x02\n      add\n        /* \"Library/ProposalLibrary.sol\":1250:1277  self.startTime = _startTime */\n      dup2\n      swap1\n      sstore\n      pop\n        /* \"Library/ProposalLibrary.sol\":1334:1349  _expirationTime */\n      dup6\n        /* \"Library/ProposalLibrary.sol\":1312:1316  self */\n      dup12\n        /* \"Library/ProposalLibrary.sol\":1312:1331  self.expirationTime */\n      0x03\n      add\n        /* \"Library/ProposalLibrary.sol\":1312:1349  self.expirationTime = _expirationTime */\n      dup2\n      swap1\n      sstore\n      pop\n        /* \"Library/ProposalLibrary.sol\":1411:1416  _cand */\n      dup3\n      dup3\n        /* \"Library/ProposalLibrary.sol\":1411:1423  _cand.length */\n      swap1\n      pop\n        /* \"Library/ProposalLibrary.sol\":1384:1388  self */\n      dup12\n        /* \"Library/ProposalLibrary.sol\":1384:1401  self.numOfOptions */\n      0x04\n      add\n      0x00\n        /* \"Library/ProposalLibrary.sol\":1384:1424  self.numOfOptions = uint16(_cand.length) */\n      0x0100\n      exp\n      dup2\n      sload\n      dup2\n      0xffff\n      mul\n      not\n      and\n      swap1\n      dup4\n      0xffff\n      and\n      mul\n      or\n      swap1\n      sstore\n      pop\n        /* \"Library/ProposalLibrary.sol\":1476:1486  _voteRight */\n      dup4\n        /* \"Library/ProposalLibrary.sol\":1459:1463  self */\n      dup12\n        /* \"Library/ProposalLibrary.sol\":1459:1473  self.voteRight */\n      0x05\n      add\n        /* \"Library/ProposalLibrary.sol\":1459:1486  self.voteRight = _voteRight */\n      dup2\n      swap1\n      sstore\n      pop\n        /* \"Library/ProposalLibrary.sol\":1525:1534  uint256 i */\n      0x00\n        /* \"Library/ProposalLibrary.sol\":1521:1726  for(uint256 i=0;i<_cand.length;i++){\r... */\n    tag_160:\n        /* \"Library/ProposalLibrary.sol\":1539:1544  _cand */\n      dup4\n      dup4\n        /* \"Library/ProposalLibrary.sol\":1539:1551  _cand.length */\n      swap1\n      pop\n        /* \"Library/ProposalLibrary.sol\":1537:1538  i */\n      dup2\n        /* \"Library/ProposalLibrary.sol\":1537:1551  i<_cand.length */\n      lt\n        /* \"Library/ProposalLibrary.sol\":1521:1726  for(uint256 i=0;i<_cand.length;i++){\r... */\n      iszero\n      tag_161\n      jumpi\n        /* \"Library/ProposalLibrary.sol\":1617:1621  true */\n      0x01\n        /* \"Library/ProposalLibrary.sol\":1595:1599  self */\n      dup13\n        /* \"Library/ProposalLibrary.sol\":1595:1604  self.cand */\n      0x07\n      add\n        /* \"Library/ProposalLibrary.sol\":1605:1610  _cand */\n      dup6\n      dup6\n        /* \"Library/ProposalLibrary.sol\":1611:1612  i */\n      dup5\n        /* \"Library/ProposalLibrary.sol\":1605:1613  _cand[i] */\n      dup2\n      dup2\n      lt\n      tag_163\n      jumpi\n      tag_164\n      tag_94\n      jump\t// in\n    tag_164:\n    tag_163:\n      swap1\n      pop\n      0x20\n      mul\n      dup2\n      add\n      swap1\n      tag_165\n      swap2\n      swap1\n      tag_166\n      jump\t// in\n    tag_165:\n        /* \"Library/ProposalLibrary.sol\":1595:1614  self.cand[_cand[i]] */\n      mload(0x40)\n      tag_167\n      swap3\n      swap2\n      swap1\n      tag_168\n      jump\t// in\n    tag_167:\n      swap1\n      dup2\n      mstore\n      0x20\n      add\n      mload(0x40)\n      dup1\n      swap2\n      sub\n      swap1\n      keccak256\n      0x00\n        /* \"Library/ProposalLibrary.sol\":1595:1621  self.cand[_cand[i]] = true */\n      0x0100\n      exp\n      dup2\n      sload\n      dup2\n      0xff\n      mul\n      not\n      and\n      swap1\n      dup4\n      iszero\n      iszero\n      mul\n      or\n      swap1\n      sstore\n      pop\n        /* \"Library/ProposalLibrary.sol\":1682:1687  _cand */\n      dup4\n      dup4\n        /* \"Library/ProposalLibrary.sol\":1688:1689  i */\n      dup3\n        /* \"Library/ProposalLibrary.sol\":1682:1690  _cand[i] */\n      dup2\n      dup2\n      lt\n      tag_169\n      jumpi\n      tag_170\n      tag_94\n      jump\t// in\n    tag_170:\n    tag_169:\n      swap1\n      pop\n      0x20\n      mul\n      dup2\n      add\n      swap1\n      tag_171\n      swap2\n      swap1\n      tag_166\n      jump\t// in\n    tag_171:\n        /* \"Library/ProposalLibrary.sol\":1660:1664  self */\n      dup14\n        /* \"Library/ProposalLibrary.sol\":1660:1673  self.candHash */\n      0x08\n      add\n        /* \"Library/ProposalLibrary.sol\":1660:1678  self.candHash[i+1] */\n      0x00\n        /* \"Library/ProposalLibrary.sol\":1676:1677  1 */\n      0x01\n        /* \"Library/ProposalLibrary.sol\":1674:1675  i */\n      dup6\n        /* \"Library/ProposalLibrary.sol\":1674:1677  i+1 */\n      tag_172\n      swap2\n      swap1\n      tag_134\n      jump\t// in\n    tag_172:\n        /* \"Library/ProposalLibrary.sol\":1660:1678  self.candHash[i+1] */\n      dup2\n      mstore\n      0x20\n      add\n      swap1\n      dup2\n      mstore\n      0x20\n      add\n      0x00\n      keccak256\n        /* \"Library/ProposalLibrary.sol\":1660:1690  self.candHash[i+1] =  _cand[i] */\n      swap2\n      swap1\n      tag_173\n      swap3\n      swap2\n      swap1\n      tag_174\n      jump\t// in\n    tag_173:\n      pop\n        /* \"Library/ProposalLibrary.sol\":1552:1555  i++ */\n      dup1\n      dup1\n      tag_175\n      swap1\n      tag_83\n      jump\t// in\n    tag_175:\n      swap2\n      pop\n      pop\n        /* \"Library/ProposalLibrary.sol\":1521:1726  for(uint256 i=0;i<_cand.length;i++){\r... */\n      jump(tag_160)\n    tag_161:\n      pop\n        /* \"Library/ProposalLibrary.sol\":1764:1773  uint256 i */\n      0x00\n        /* \"Library/ProposalLibrary.sol\":1760:1902  for(uint256 i=0;i<_voters.length;i++){\r... */\n    tag_176:\n        /* \"Library/ProposalLibrary.sol\":1778:1785  _voters */\n      dup10\n        /* \"Library/ProposalLibrary.sol\":1778:1792  _voters.length */\n      mload\n        /* \"Library/ProposalLibrary.sol\":1776:1777  i */\n      dup2\n        /* \"Library/ProposalLibrary.sol\":1776:1792  i<_voters.length */\n      lt\n        /* \"Library/ProposalLibrary.sol\":1760:1902  for(uint256 i=0;i<_voters.length;i++){\r... */\n      iszero\n      tag_177\n      jumpi\n        /* \"Library/ProposalLibrary.sol\":1862:1866  true */\n      0x01\n        /* \"Library/ProposalLibrary.sol\":1836:1840  self */\n      dup13\n        /* \"Library/ProposalLibrary.sol\":1836:1847  self.voters */\n      0x06\n      add\n        /* \"Library/ProposalLibrary.sol\":1836:1859  self.voters[_voters[i]] */\n      0x00\n        /* \"Library/ProposalLibrary.sol\":1848:1855  _voters */\n      dup13\n        /* \"Library/ProposalLibrary.sol\":1856:1857  i */\n      dup5\n        /* \"Library/ProposalLibrary.sol\":1848:1858  _voters[i] */\n      dup2\n      mload\n      dup2\n      lt\n      tag_179\n      jumpi\n      tag_180\n      tag_94\n      jump\t// in\n    tag_180:\n    tag_179:\n      0x20\n      mul\n      0x20\n      add\n      add\n      mload\n        /* \"Library/ProposalLibrary.sol\":1836:1859  self.voters[_voters[i]] */\n      0xffffffffffffffffffffffffffffffffffffffff\n      and\n      0xffffffffffffffffffffffffffffffffffffffff\n      and\n      dup2\n      mstore\n      0x20\n      add\n      swap1\n      dup2\n      mstore\n      0x20\n      add\n      0x00\n      keccak256\n      0x00\n        /* \"Library/ProposalLibrary.sol\":1836:1866  self.voters[_voters[i]] = true */\n      0x0100\n      exp\n      dup2\n      sload\n      dup2\n      0xff\n      mul\n      not\n      and\n      swap1\n      dup4\n      iszero\n      iszero\n      mul\n      or\n      swap1\n      sstore\n      pop\n        /* \"Library/ProposalLibrary.sol\":1793:1796  i++ */\n      dup1\n      dup1\n      tag_181\n      swap1\n      tag_83\n      jump\t// in\n    tag_181:\n      swap2\n      pop\n      pop\n        /* \"Library/ProposalLibrary.sol\":1760:1902  for(uint256 i=0;i<_voters.length;i++){\r... */\n      jump(tag_176)\n    tag_177:\n      pop\n        /* \"Library/ProposalLibrary.sol\":1945:1949  true */\n      0x01\n        /* \"Library/ProposalLibrary.sol\":1938:1949  return true */\n      swap1\n      pop\n        /* \"Library/ProposalLibrary.sol\":806:1983  function createProposal(proposal storage self, uint8 _status, address[] memory _voters, address _creator,\r... */\n      swap11\n      swap10\n      pop\n      pop\n      pop\n      pop\n      pop\n      pop\n      pop\n      pop\n      pop\n      pop\n      jump\t// out\n        /* \"QvToken/QvToken.sol\":398:502  function mint(address to , uint amount) onlyOwner(_msgSender()) internal {\r... */\n    tag_95:\n        /* \"QvToken/QvToken.sol\":448:460  _msgSender() */\n      tag_182\n        /* \"QvToken/QvToken.sol\":448:458  _msgSender */\n      tag_109\n        /* \"QvToken/QvToken.sol\":448:460  _msgSender() */\n      jump\t// in\n    tag_182:\n        /* \"QvToken/QvToken.sol\":366:375  msgSender */\n      dup1\n        /* \"QvToken/QvToken.sol\":357:375  owner == msgSender */\n      0xffffffffffffffffffffffffffffffffffffffff\n      and\n        /* \"QvToken/QvToken.sol\":357:362  owner */\n      0x04\n      0x00\n      swap1\n      sload\n      swap1\n      0x0100\n      exp\n      swap1\n      div\n      0xffffffffffffffffffffffffffffffffffffffff\n      and\n        /* \"QvToken/QvToken.sol\":357:375  owner == msgSender */\n      0xffffffffffffffffffffffffffffffffffffffff\n      and\n      eq\n        /* \"QvToken/QvToken.sol\":349:376  require(owner == msgSender) */\n      tag_184\n      jumpi\n      0x00\n      dup1\n      revert\n    tag_184:\n        /* \"QvToken/QvToken.sol\":478:494  _mint(to,amount) */\n      tag_186\n        /* \"QvToken/QvToken.sol\":484:486  to */\n      dup4\n        /* \"QvToken/QvToken.sol\":487:493  amount */\n      dup4\n        /* \"QvToken/QvToken.sol\":478:483  _mint */\n      tag_187\n        /* \"QvToken/QvToken.sol\":478:494  _mint(to,amount) */\n      jump\t// in\n    tag_186:\n        /* \"QvToken/QvToken.sol\":398:502  function mint(address to , uint amount) onlyOwner(_msgSender()) internal {\r... */\n      pop\n      pop\n      pop\n      jump\t// out\n        /* \"Library/VoterLibrary.sol\":1090:1525  function createVoter(voter storage self, uint _proposalId, address _voterAddress, bool _hasVoted, uint _voteNum) internal returns(bool){\r... */\n    tag_101:\n        /* \"Library/VoterLibrary.sol\":1220:1224  bool */\n      0x00\n        /* \"Library/VoterLibrary.sol\":1278:1289  _proposalId */\n      dup5\n        /* \"Library/VoterLibrary.sol\":1260:1264  self */\n      dup7\n        /* \"Library/VoterLibrary.sol\":1260:1275  self.proposalId */\n      0x00\n      add\n        /* \"Library/VoterLibrary.sol\":1260:1289  self.proposalId = _proposalId */\n      dup2\n      swap1\n      sstore\n      pop\n        /* \"Library/VoterLibrary.sol\":1344:1357  _voterAddress */\n      dup4\n        /* \"Library/VoterLibrary.sol\":1324:1328  self */\n      dup7\n        /* \"Library/VoterLibrary.sol\":1324:1341  self.voterAddress */\n      0x01\n      add\n      0x00\n        /* \"Library/VoterLibrary.sol\":1324:1357  self.voterAddress = _voterAddress */\n      0x0100\n      exp\n      dup2\n      sload\n      dup2\n      0xffffffffffffffffffffffffffffffffffffffff\n      mul\n      not\n      and\n      swap1\n      dup4\n      0xffffffffffffffffffffffffffffffffffffffff\n      and\n      mul\n      or\n      swap1\n      sstore\n      pop\n        /* \"Library/VoterLibrary.sol\":1408:1417  _hasVoted */\n      dup3\n        /* \"Library/VoterLibrary.sol\":1392:1396  self */\n      dup7\n        /* \"Library/VoterLibrary.sol\":1392:1405  self.hasVoted */\n      0x01\n      add\n      0x14\n        /* \"Library/VoterLibrary.sol\":1392:1417  self.hasVoted = _hasVoted */\n      0x0100\n      exp\n      dup2\n      sload\n      dup2\n      0xff\n      mul\n      not\n      and\n      swap1\n      dup4\n      iszero\n      iszero\n      mul\n      or\n      swap1\n      sstore\n      pop\n        /* \"Library/VoterLibrary.sol\":1467:1475  _voteNum */\n      dup2\n        /* \"Library/VoterLibrary.sol\":1452:1456  self */\n      dup7\n        /* \"Library/VoterLibrary.sol\":1452:1464  self.voteNum */\n      0x02\n      add\n        /* \"Library/VoterLibrary.sol\":1452:1475  self.voteNum = _voteNum */\n      dup2\n      swap1\n      sstore\n      pop\n        /* \"Library/VoterLibrary.sol\":1517:1521  true */\n      0x01\n        /* \"Library/VoterLibrary.sol\":1510:1521  return true */\n      swap1\n      pop\n        /* \"Library/VoterLibrary.sol\":1090:1525  function createVoter(voter storage self, uint _proposalId, address _voterAddress, bool _hasVoted, uint _voteNum) internal returns(bool){\r... */\n      swap6\n      swap5\n      pop\n      pop\n      pop\n      pop\n      pop\n      jump\t// out\n        /* \"QvToken/Context.sol\":656:754  function _msgSender() internal view virtual returns (address) {\r... */\n    tag_109:\n        /* \"QvToken/Context.sol\":709:716  address */\n      0x00\n        /* \"QvToken/Context.sol\":736:746  msg.sender */\n      caller\n        /* \"QvToken/Context.sol\":729:746  return msg.sender */\n      swap1\n      pop\n        /* \"QvToken/Context.sol\":656:754  function _msgSender() internal view virtual returns (address) {\r... */\n      swap1\n      jump\t// out\n        /* \"Library/UserProposalLibrary.sol\":573:794  function updateProposalList(UserProposal storage self, uint _proposalId) internal returns(bool){\r... */\n    tag_110:\n        /* \"Library/UserProposalLibrary.sol\":663:667  bool */\n      0x00\n        /* \"Library/UserProposalLibrary.sol\":679:683  self */\n      dup3\n        /* \"Library/UserProposalLibrary.sol\":679:697  self.proposalCount */\n      0x00\n      add\n      0x00\n        /* \"Library/UserProposalLibrary.sol\":679:699  self.proposalCount++ */\n      dup2\n      dup2\n      swap1\n      sload\n      swap1\n      0x0100\n      exp\n      swap1\n      div\n      0xffffffffffffffffffffffffffffffff\n      and\n      dup1\n      swap3\n      swap2\n      swap1\n      tag_191\n      swap1\n      tag_192\n      jump\t// in\n    tag_191:\n      swap2\n      swap1\n      0x0100\n      exp\n      dup2\n      sload\n      dup2\n      0xffffffffffffffffffffffffffffffff\n      mul\n      not\n      and\n      swap1\n      dup4\n      0xffffffffffffffffffffffffffffffff\n      and\n      mul\n      or\n      swap1\n      sstore\n      pop\n      pop\n        /* \"Library/UserProposalLibrary.sol\":753:764  _proposalId */\n      dup2\n        /* \"Library/UserProposalLibrary.sol\":710:714  self */\n      dup4\n        /* \"Library/UserProposalLibrary.sol\":710:730  self.proposalCreated */\n      0x01\n      add\n        /* \"Library/UserProposalLibrary.sol\":710:750  self.proposalCreated[self.proposalCount] */\n      0x00\n        /* \"Library/UserProposalLibrary.sol\":731:735  self */\n      dup6\n        /* \"Library/UserProposalLibrary.sol\":731:749  self.proposalCount */\n      0x00\n      add\n      0x00\n      swap1\n      sload\n      swap1\n      0x0100\n      exp\n      swap1\n      div\n      0xffffffffffffffffffffffffffffffff\n      and\n        /* \"Library/UserProposalLibrary.sol\":710:750  self.proposalCreated[self.proposalCount] */\n      0xffffffffffffffffffffffffffffffff\n      and\n      0xffffffffffffffffffffffffffffffff\n      and\n      dup2\n      mstore\n      0x20\n      add\n      swap1\n      dup2\n      mstore\n      0x20\n      add\n      0x00\n      keccak256\n        /* \"Library/UserProposalLibrary.sol\":710:764  self.proposalCreated[self.proposalCount] = _proposalId */\n      dup2\n      swap1\n      sstore\n      pop\n        /* \"Library/UserProposalLibrary.sol\":782:786  true */\n      0x01\n        /* \"Library/UserProposalLibrary.sol\":775:786  return true */\n      swap1\n      pop\n        /* \"Library/UserProposalLibrary.sol\":573:794  function updateProposalList(UserProposal storage self, uint _proposalId) internal returns(bool){\r... */\n      swap3\n      swap2\n      pop\n      pop\n      jump\t// out\n        /* \"Library/ProposalLibrary.sol\":2018:3370  function responseProposal(proposal storage self, address _voter, string[] memory _hash, uint[] memory v) internal returns(bool){\r... */\n    tag_140:\n        /* \"Library/ProposalLibrary.sol\":2140:2144  bool */\n      0x00\n        /* \"Library/ProposalLibrary.sol\":2179:2180  2 */\n      0x02\n        /* \"Library/ProposalLibrary.sol\":2164:2168  self */\n      dup6\n        /* \"Library/ProposalLibrary.sol\":2164:2175  self.status */\n      0x00\n      add\n      0x14\n      swap1\n      sload\n      swap1\n      0x0100\n      exp\n      swap1\n      div\n      0xff\n      and\n        /* \"Library/ProposalLibrary.sol\":2164:2180  self.status == 2 */\n      0xff\n      and\n      eq\n        /* \"Library/ProposalLibrary.sol\":2156:2203  require(self.status == 2, \"Proposal: inactive\") */\n      tag_194\n      jumpi\n      mload(0x40)\n      0x08c379a000000000000000000000000000000000000000000000000000000000\n      dup2\n      mstore\n      0x04\n      add\n      tag_195\n      swap1\n      tag_196\n      jump\t// in\n    tag_195:\n      mload(0x40)\n      dup1\n      swap2\n      sub\n      swap1\n      revert\n    tag_194:\n        /* \"Library/ProposalLibrary.sol\":2235:2239  self */\n      dup5\n        /* \"Library/ProposalLibrary.sol\":2235:2254  self.expirationTime */\n      0x03\n      add\n      sload\n        /* \"Library/ProposalLibrary.sol\":2217:2232  block.timestamp */\n      timestamp\n        /* \"Library/ProposalLibrary.sol\":2217:2254  block.timestamp > self.expirationTime */\n      gt\n        /* \"Library/ProposalLibrary.sol\":2214:3069  if(block.timestamp > self.expirationTime){\r... */\n      iszero\n      tag_197\n      jumpi\n        /* \"Library/ProposalLibrary.sol\":2324:2325  2 */\n      0x02\n        /* \"Library/ProposalLibrary.sol\":2310:2314  self */\n      dup6\n        /* \"Library/ProposalLibrary.sol\":2310:2321  self.status */\n      0x00\n      add\n      0x14\n        /* \"Library/ProposalLibrary.sol\":2310:2325  self.status = 2 */\n      0x0100\n      exp\n      dup2\n      sload\n      dup2\n      0xff\n      mul\n      not\n      and\n      swap1\n      dup4\n      0xff\n      and\n      mul\n      or\n      swap1\n      sstore\n      pop\n        /* \"Library/ProposalLibrary.sol\":2340:2357  uint largestCount */\n      0x00\n        /* \"Library/ProposalLibrary.sol\":2360:2364  self */\n      dup6\n        /* \"Library/ProposalLibrary.sol\":2360:2370  self.votes */\n      0x0a\n      add\n        /* \"Library/ProposalLibrary.sol\":2371:2375  self */\n      dup7\n        /* \"Library/ProposalLibrary.sol\":2371:2384  self.candHash */\n      0x08\n      add\n        /* \"Library/ProposalLibrary.sol\":2371:2387  self.candHash[1] */\n      0x00\n        /* \"Library/ProposalLibrary.sol\":2385:2386  1 */\n      0x01\n        /* \"Library/ProposalLibrary.sol\":2371:2387  self.candHash[1] */\n      dup2\n      mstore\n      0x20\n      add\n      swap1\n      dup2\n      mstore\n      0x20\n      add\n      0x00\n      keccak256\n        /* \"Library/ProposalLibrary.sol\":2360:2388  self.votes[self.candHash[1]] */\n      mload(0x40)\n      tag_198\n      swap2\n      swap1\n      tag_199\n      jump\t// in\n    tag_198:\n      swap1\n      dup2\n      mstore\n      0x20\n      add\n      mload(0x40)\n      dup1\n      swap2\n      sub\n      swap1\n      keccak256\n      sload\n        /* \"Library/ProposalLibrary.sol\":2340:2388  uint largestCount = self.votes[self.candHash[1]] */\n      swap1\n      pop\n        /* \"Library/ProposalLibrary.sol\":2403:2419  uint winnerCount */\n      0x00\n        /* \"Library/ProposalLibrary.sol\":2422:2423  1 */\n      0x01\n        /* \"Library/ProposalLibrary.sol\":2403:2423  uint winnerCount = 1 */\n      swap1\n      pop\n        /* \"Library/ProposalLibrary.sol\":2455:2459  self */\n      dup7\n        /* \"Library/ProposalLibrary.sol\":2455:2468  self.candHash */\n      0x08\n      add\n        /* \"Library/ProposalLibrary.sol\":2455:2471  self.candHash[1] */\n      0x00\n        /* \"Library/ProposalLibrary.sol\":2469:2470  1 */\n      0x01\n        /* \"Library/ProposalLibrary.sol\":2455:2471  self.candHash[1] */\n      dup2\n      mstore\n      0x20\n      add\n      swap1\n      dup2\n      mstore\n      0x20\n      add\n      0x00\n      keccak256\n        /* \"Library/ProposalLibrary.sol\":2438:2442  self */\n      dup8\n        /* \"Library/ProposalLibrary.sol\":2438:2449  self.result */\n      0x09\n      add\n        /* \"Library/ProposalLibrary.sol\":2438:2452  self.result[1] */\n      0x00\n        /* \"Library/ProposalLibrary.sol\":2450:2451  1 */\n      0x01\n        /* \"Library/ProposalLibrary.sol\":2438:2452  self.result[1] */\n      dup2\n      mstore\n      0x20\n      add\n      swap1\n      dup2\n      mstore\n      0x20\n      add\n      0x00\n      keccak256\n        /* \"Library/ProposalLibrary.sol\":2438:2471  self.result[1] = self.candHash[1] */\n      swap1\n      dup1\n      sload\n      tag_200\n      swap1\n      tag_59\n      jump\t// in\n    tag_200:\n      tag_201\n      swap3\n      swap2\n      swap1\n      tag_202\n      jump\t// in\n    tag_201:\n      pop\n        /* \"Library/ProposalLibrary.sol\":2553:2561  uint16 i */\n      0x00\n        /* \"Library/ProposalLibrary.sol\":2564:2565  2 */\n      0x02\n        /* \"Library/ProposalLibrary.sol\":2553:2565  uint16 i = 2 */\n      swap1\n      pop\n        /* \"Library/ProposalLibrary.sol\":2549:3031  for(uint16 i = 2; i <= self.numOfOptions; i++){\r... */\n    tag_203:\n        /* \"Library/ProposalLibrary.sol\":2572:2576  self */\n      dup8\n        /* \"Library/ProposalLibrary.sol\":2572:2589  self.numOfOptions */\n      0x04\n      add\n      0x00\n      swap1\n      sload\n      swap1\n      0x0100\n      exp\n      swap1\n      div\n      0xffff\n      and\n        /* \"Library/ProposalLibrary.sol\":2567:2589  i <= self.numOfOptions */\n      0xffff\n      and\n        /* \"Library/ProposalLibrary.sol\":2567:2568  i */\n      dup2\n        /* \"Library/ProposalLibrary.sol\":2567:2589  i <= self.numOfOptions */\n      0xffff\n      and\n      gt\n        /* \"Library/ProposalLibrary.sol\":2549:3031  for(uint16 i = 2; i <= self.numOfOptions; i++){\r... */\n      tag_204\n      jumpi\n        /* \"Library/ProposalLibrary.sol\":2648:2660  largestCount */\n      dup3\n        /* \"Library/ProposalLibrary.sol\":2617:2621  self */\n      dup9\n        /* \"Library/ProposalLibrary.sol\":2617:2627  self.votes */\n      0x0a\n      add\n        /* \"Library/ProposalLibrary.sol\":2628:2632  self */\n      dup10\n        /* \"Library/ProposalLibrary.sol\":2628:2641  self.candHash */\n      0x08\n      add\n        /* \"Library/ProposalLibrary.sol\":2628:2644  self.candHash[i] */\n      0x00\n        /* \"Library/ProposalLibrary.sol\":2642:2643  i */\n      dup5\n        /* \"Library/ProposalLibrary.sol\":2628:2644  self.candHash[i] */\n      0xffff\n      and\n      dup2\n      mstore\n      0x20\n      add\n      swap1\n      dup2\n      mstore\n      0x20\n      add\n      0x00\n      keccak256\n        /* \"Library/ProposalLibrary.sol\":2617:2645  self.votes[self.candHash[i]] */\n      mload(0x40)\n      tag_206\n      swap2\n      swap1\n      tag_199\n      jump\t// in\n    tag_206:\n      swap1\n      dup2\n      mstore\n      0x20\n      add\n      mload(0x40)\n      dup1\n      swap2\n      sub\n      swap1\n      keccak256\n      sload\n        /* \"Library/ProposalLibrary.sol\":2617:2660  self.votes[self.candHash[i]] > largestCount */\n      gt\n        /* \"Library/ProposalLibrary.sol\":2614:3016  if(self.votes[self.candHash[i]] > largestCount){\r... */\n      iszero\n      tag_207\n      jumpi\n        /* \"Library/ProposalLibrary.sol\":2699:2703  self */\n      dup8\n        /* \"Library/ProposalLibrary.sol\":2699:2709  self.votes */\n      0x0a\n      add\n        /* \"Library/ProposalLibrary.sol\":2710:2714  self */\n      dup9\n        /* \"Library/ProposalLibrary.sol\":2710:2723  self.candHash */\n      0x08\n      add\n        /* \"Library/ProposalLibrary.sol\":2710:2726  self.candHash[i] */\n      0x00\n        /* \"Library/ProposalLibrary.sol\":2724:2725  i */\n      dup4\n        /* \"Library/ProposalLibrary.sol\":2710:2726  self.candHash[i] */\n      0xffff\n      and\n      dup2\n      mstore\n      0x20\n      add\n      swap1\n      dup2\n      mstore\n      0x20\n      add\n      0x00\n      keccak256\n        /* \"Library/ProposalLibrary.sol\":2699:2727  self.votes[self.candHash[i]] */\n      mload(0x40)\n      tag_208\n      swap2\n      swap1\n      tag_199\n      jump\t// in\n    tag_208:\n      swap1\n      dup2\n      mstore\n      0x20\n      add\n      mload(0x40)\n      dup1\n      swap2\n      sub\n      swap1\n      keccak256\n      sload\n        /* \"Library/ProposalLibrary.sol\":2684:2727  largestCount = self.votes[self.candHash[i]] */\n      swap3\n      pop\n        /* \"Library/ProposalLibrary.sol\":2764:2765  1 */\n      0x01\n        /* \"Library/ProposalLibrary.sol\":2750:2765  winnerCount = 1 */\n      swap2\n      pop\n        /* \"Library/ProposalLibrary.sol\":2805:2809  self */\n      dup8\n        /* \"Library/ProposalLibrary.sol\":2805:2818  self.candHash */\n      0x08\n      add\n        /* \"Library/ProposalLibrary.sol\":2805:2821  self.candHash[i] */\n      0x00\n        /* \"Library/ProposalLibrary.sol\":2819:2820  i */\n      dup3\n        /* \"Library/ProposalLibrary.sol\":2805:2821  self.candHash[i] */\n      0xffff\n      and\n      dup2\n      mstore\n      0x20\n      add\n      swap1\n      dup2\n      mstore\n      0x20\n      add\n      0x00\n      keccak256\n        /* \"Library/ProposalLibrary.sol\":2788:2792  self */\n      dup9\n        /* \"Library/ProposalLibrary.sol\":2788:2799  self.result */\n      0x09\n      add\n        /* \"Library/ProposalLibrary.sol\":2788:2802  self.result[1] */\n      0x00\n        /* \"Library/ProposalLibrary.sol\":2800:2801  1 */\n      0x01\n        /* \"Library/ProposalLibrary.sol\":2788:2802  self.result[1] */\n      dup2\n      mstore\n      0x20\n      add\n      swap1\n      dup2\n      mstore\n      0x20\n      add\n      0x00\n      keccak256\n        /* \"Library/ProposalLibrary.sol\":2788:2821  self.result[1] = self.candHash[i] */\n      swap1\n      dup1\n      sload\n      tag_209\n      swap1\n      tag_59\n      jump\t// in\n    tag_209:\n      tag_210\n      swap3\n      swap2\n      swap1\n      tag_202\n      jump\t// in\n    tag_210:\n      pop\n        /* \"Library/ProposalLibrary.sol\":2614:3016  if(self.votes[self.candHash[i]] > largestCount){\r... */\n      jump(tag_211)\n    tag_207:\n        /* \"Library/ProposalLibrary.sol\":2881:2893  largestCount */\n      dup3\n        /* \"Library/ProposalLibrary.sol\":2849:2853  self */\n      dup9\n        /* \"Library/ProposalLibrary.sol\":2849:2859  self.votes */\n      0x0a\n      add\n        /* \"Library/ProposalLibrary.sol\":2860:2864  self */\n      dup10\n        /* \"Library/ProposalLibrary.sol\":2860:2873  self.candHash */\n      0x08\n      add\n        /* \"Library/ProposalLibrary.sol\":2860:2876  self.candHash[i] */\n      0x00\n        /* \"Library/ProposalLibrary.sol\":2874:2875  i */\n      dup5\n        /* \"Library/ProposalLibrary.sol\":2860:2876  self.candHash[i] */\n      0xffff\n      and\n      dup2\n      mstore\n      0x20\n      add\n      swap1\n      dup2\n      mstore\n      0x20\n      add\n      0x00\n      keccak256\n        /* \"Library/ProposalLibrary.sol\":2849:2877  self.votes[self.candHash[i]] */\n      mload(0x40)\n      tag_212\n      swap2\n      swap1\n      tag_199\n      jump\t// in\n    tag_212:\n      swap1\n      dup2\n      mstore\n      0x20\n      add\n      mload(0x40)\n      dup1\n      swap2\n      sub\n      swap1\n      keccak256\n      sload\n        /* \"Library/ProposalLibrary.sol\":2849:2893  self.votes[self.candHash[i]] == largestCount */\n      eq\n        /* \"Library/ProposalLibrary.sol\":2846:3016  if(self.votes[self.candHash[i]] == largestCount){\r... */\n      iszero\n      tag_213\n      jumpi\n        /* \"Library/ProposalLibrary.sol\":2917:2930  winnerCount++ */\n      dup2\n      dup1\n      tag_214\n      swap1\n      tag_83\n      jump\t// in\n    tag_214:\n      swap3\n      pop\n      pop\n        /* \"Library/ProposalLibrary.sol\":2980:2984  self */\n      dup8\n        /* \"Library/ProposalLibrary.sol\":2980:2993  self.candHash */\n      0x08\n      add\n        /* \"Library/ProposalLibrary.sol\":2980:2996  self.candHash[i] */\n      0x00\n        /* \"Library/ProposalLibrary.sol\":2994:2995  i */\n      dup3\n        /* \"Library/ProposalLibrary.sol\":2980:2996  self.candHash[i] */\n      0xffff\n      and\n      dup2\n      mstore\n      0x20\n      add\n      swap1\n      dup2\n      mstore\n      0x20\n      add\n      0x00\n      keccak256\n        /* \"Library/ProposalLibrary.sol\":2953:2957  self */\n      dup9\n        /* \"Library/ProposalLibrary.sol\":2953:2964  self.result */\n      0x09\n      add\n        /* \"Library/ProposalLibrary.sol\":2953:2977  self.result[winnerCount] */\n      0x00\n        /* \"Library/ProposalLibrary.sol\":2965:2976  winnerCount */\n      dup5\n        /* \"Library/ProposalLibrary.sol\":2953:2977  self.result[winnerCount] */\n      dup2\n      mstore\n      0x20\n      add\n      swap1\n      dup2\n      mstore\n      0x20\n      add\n      0x00\n      keccak256\n        /* \"Library/ProposalLibrary.sol\":2953:2996  self.result[winnerCount] = self.candHash[i] */\n      swap1\n      dup1\n      sload\n      tag_215\n      swap1\n      tag_59\n      jump\t// in\n    tag_215:\n      tag_216\n      swap3\n      swap2\n      swap1\n      tag_202\n      jump\t// in\n    tag_216:\n      pop\n        /* \"Library/ProposalLibrary.sol\":2846:3016  if(self.votes[self.candHash[i]] == largestCount){\r... */\n    tag_213:\n        /* \"Library/ProposalLibrary.sol\":2614:3016  if(self.votes[self.candHash[i]] > largestCount){\r... */\n    tag_211:\n        /* \"Library/ProposalLibrary.sol\":2591:2594  i++ */\n      dup1\n      dup1\n      tag_217\n      swap1\n      tag_218\n      jump\t// in\n    tag_217:\n      swap2\n      pop\n      pop\n        /* \"Library/ProposalLibrary.sol\":2549:3031  for(uint16 i = 2; i <= self.numOfOptions; i++){\r... */\n      jump(tag_203)\n    tag_204:\n      pop\n        /* \"Library/ProposalLibrary.sol\":3052:3057  false */\n      0x00\n        /* \"Library/ProposalLibrary.sol\":3045:3057  return false */\n      swap3\n      pop\n      pop\n      pop\n      jump(tag_193)\n        /* \"Library/ProposalLibrary.sol\":2214:3069  if(block.timestamp > self.expirationTime){\r... */\n    tag_197:\n        /* \"Library/ProposalLibrary.sol\":3112:3116  self */\n      dup5\n        /* \"Library/ProposalLibrary.sol\":3112:3123  self.voters */\n      0x06\n      add\n        /* \"Library/ProposalLibrary.sol\":3112:3131  self.voters[_voter] */\n      0x00\n        /* \"Library/ProposalLibrary.sol\":3124:3130  _voter */\n      dup6\n        /* \"Library/ProposalLibrary.sol\":3112:3131  self.voters[_voter] */\n      0xffffffffffffffffffffffffffffffffffffffff\n      and\n      0xffffffffffffffffffffffffffffffffffffffff\n      and\n      dup2\n      mstore\n      0x20\n      add\n      swap1\n      dup2\n      mstore\n      0x20\n      add\n      0x00\n      keccak256\n      0x00\n      swap1\n      sload\n      swap1\n      0x0100\n      exp\n      swap1\n      div\n      0xff\n      and\n        /* \"Library/ProposalLibrary.sol\":3104:3171  require(self.voters[_voter], \"Not a valid voter for this proposal\") */\n      tag_219\n      jumpi\n      mload(0x40)\n      0x08c379a000000000000000000000000000000000000000000000000000000000\n      dup2\n      mstore\n      0x04\n      add\n      tag_220\n      swap1\n      tag_221\n      jump\t// in\n    tag_220:\n      mload(0x40)\n      dup1\n      swap2\n      sub\n      swap1\n      revert\n    tag_219:\n        /* \"Library/ProposalLibrary.sol\":3188:3196  uint16 i */\n      0x00\n        /* \"Library/ProposalLibrary.sol\":3184:3341  for(uint16 i=0;i<self.numOfOptions;i++){\r... */\n    tag_222:\n        /* \"Library/ProposalLibrary.sol\":3201:3205  self */\n      dup6\n        /* \"Library/ProposalLibrary.sol\":3201:3218  self.numOfOptions */\n      0x04\n      add\n      0x00\n      swap1\n      sload\n      swap1\n      0x0100\n      exp\n      swap1\n      div\n      0xffff\n      and\n        /* \"Library/ProposalLibrary.sol\":3199:3218  i<self.numOfOptions */\n      0xffff\n      and\n        /* \"Library/ProposalLibrary.sol\":3199:3200  i */\n      dup2\n        /* \"Library/ProposalLibrary.sol\":3199:3218  i<self.numOfOptions */\n      0xffff\n      and\n      lt\n        /* \"Library/ProposalLibrary.sol\":3184:3341  for(uint16 i=0;i<self.numOfOptions;i++){\r... */\n      iszero\n      tag_223\n      jumpi\n        /* \"Library/ProposalLibrary.sol\":3242:3246  self */\n      dup6\n        /* \"Library/ProposalLibrary.sol\":3242:3251  self.cand */\n      0x07\n      add\n        /* \"Library/ProposalLibrary.sol\":3252:3257  _hash */\n      dup5\n        /* \"Library/ProposalLibrary.sol\":3258:3259  i */\n      dup3\n        /* \"Library/ProposalLibrary.sol\":3252:3260  _hash[i] */\n      0xffff\n      and\n      dup2\n      mload\n      dup2\n      lt\n      tag_225\n      jumpi\n      tag_226\n      tag_94\n      jump\t// in\n    tag_226:\n    tag_225:\n      0x20\n      mul\n      0x20\n      add\n      add\n      mload\n        /* \"Library/ProposalLibrary.sol\":3242:3261  self.cand[_hash[i]] */\n      mload(0x40)\n      tag_227\n      swap2\n      swap1\n      tag_228\n      jump\t// in\n    tag_227:\n      swap1\n      dup2\n      mstore\n      0x20\n      add\n      mload(0x40)\n      dup1\n      swap2\n      sub\n      swap1\n      keccak256\n      0x00\n      swap1\n      sload\n      swap1\n      0x0100\n      exp\n      swap1\n      div\n      0xff\n      and\n        /* \"Library/ProposalLibrary.sol\":3234:3293  require(self.cand[_hash[i]], \"Proposal: invalid candidate\") */\n      tag_229\n      jumpi\n      mload(0x40)\n      0x08c379a000000000000000000000000000000000000000000000000000000000\n      dup2\n      mstore\n      0x04\n      add\n      tag_230\n      swap1\n      tag_231\n      jump\t// in\n    tag_230:\n      mload(0x40)\n      dup1\n      swap2\n      sub\n      swap1\n      revert\n    tag_229:\n        /* \"Library/ProposalLibrary.sol\":3325:3326  v */\n      dup3\n        /* \"Library/ProposalLibrary.sol\":3327:3328  i */\n      dup2\n        /* \"Library/ProposalLibrary.sol\":3325:3329  v[i] */\n      0xffff\n      and\n      dup2\n      mload\n      dup2\n      lt\n      tag_232\n      jumpi\n      tag_233\n      tag_94\n      jump\t// in\n    tag_233:\n    tag_232:\n      0x20\n      mul\n      0x20\n      add\n      add\n      mload\n        /* \"Library/ProposalLibrary.sol\":3304:3308  self */\n      dup7\n        /* \"Library/ProposalLibrary.sol\":3304:3314  self.votes */\n      0x0a\n      add\n        /* \"Library/ProposalLibrary.sol\":3315:3320  _hash */\n      dup6\n        /* \"Library/ProposalLibrary.sol\":3321:3322  i */\n      dup4\n        /* \"Library/ProposalLibrary.sol\":3315:3323  _hash[i] */\n      0xffff\n      and\n      dup2\n      mload\n      dup2\n      lt\n      tag_234\n      jumpi\n      tag_235\n      tag_94\n      jump\t// in\n    tag_235:\n    tag_234:\n      0x20\n      mul\n      0x20\n      add\n      add\n      mload\n        /* \"Library/ProposalLibrary.sol\":3304:3324  self.votes[_hash[i]] */\n      mload(0x40)\n      tag_236\n      swap2\n      swap1\n      tag_228\n      jump\t// in\n    tag_236:\n      swap1\n      dup2\n      mstore\n      0x20\n      add\n      mload(0x40)\n      dup1\n      swap2\n      sub\n      swap1\n      keccak256\n        /* \"Library/ProposalLibrary.sol\":3304:3329  self.votes[_hash[i]]=v[i] */\n      dup2\n      swap1\n      sstore\n      pop\n        /* \"Library/ProposalLibrary.sol\":3219:3222  i++ */\n      dup1\n      dup1\n      tag_237\n      swap1\n      tag_218\n      jump\t// in\n    tag_237:\n      swap2\n      pop\n      pop\n        /* \"Library/ProposalLibrary.sol\":3184:3341  for(uint16 i=0;i<self.numOfOptions;i++){\r... */\n      jump(tag_222)\n    tag_223:\n      pop\n        /* \"Library/ProposalLibrary.sol\":3358:3362  true */\n      0x01\n        /* \"Library/ProposalLibrary.sol\":3351:3362  return true */\n      swap1\n      pop\n        /* \"Library/ProposalLibrary.sol\":2018:3370  function responseProposal(proposal storage self, address _voter, string[] memory _hash, uint[] memory v) internal returns(bool){\r... */\n    tag_193:\n      swap5\n      swap4\n      pop\n      pop\n      pop\n      pop\n      jump\t// out\n        /* \"Library/UserProposalLibrary.sol\":802:1377  function updateResponseList(UserProposal storage self, uint _proposalId, string[] memory _hash) internal returns(bool){\r... */\n    tag_143:\n        /* \"Library/UserProposalLibrary.sol\":915:919  bool */\n      0x00\n        /* \"Library/UserProposalLibrary.sol\":931:935  self */\n      dup4\n        /* \"Library/UserProposalLibrary.sol\":931:949  self.responseCount */\n      0x00\n      add\n      0x10\n        /* \"Library/UserProposalLibrary.sol\":931:951  self.responseCount++ */\n      dup2\n      dup2\n      swap1\n      sload\n      swap1\n      0x0100\n      exp\n      swap1\n      div\n      0xffffffffffffffffffffffffffffffff\n      and\n      dup1\n      swap3\n      swap2\n      swap1\n      tag_239\n      swap1\n      tag_192\n      jump\t// in\n    tag_239:\n      swap2\n      swap1\n      0x0100\n      exp\n      dup2\n      sload\n      dup2\n      0xffffffffffffffffffffffffffffffff\n      mul\n      not\n      and\n      swap1\n      dup4\n      0xffffffffffffffffffffffffffffffff\n      and\n      mul\n      or\n      swap1\n      sstore\n      pop\n      pop\n        /* \"Library/UserProposalLibrary.sol\":1009:1020  _proposalId */\n      dup3\n        /* \"Library/UserProposalLibrary.sol\":964:968  self */\n      dup5\n        /* \"Library/UserProposalLibrary.sol\":964:986  self.proposalResponsed */\n      0x02\n      add\n        /* \"Library/UserProposalLibrary.sol\":964:1006  self.proposalResponsed[self.responseCount] */\n      0x00\n        /* \"Library/UserProposalLibrary.sol\":987:991  self */\n      dup7\n        /* \"Library/UserProposalLibrary.sol\":987:1005  self.responseCount */\n      0x00\n      add\n      0x10\n      swap1\n      sload\n      swap1\n      0x0100\n      exp\n      swap1\n      div\n      0xffffffffffffffffffffffffffffffff\n      and\n        /* \"Library/UserProposalLibrary.sol\":964:1006  self.proposalResponsed[self.responseCount] */\n      0xffffffffffffffffffffffffffffffff\n      and\n      0xffffffffffffffffffffffffffffffff\n      and\n      dup2\n      mstore\n      0x20\n      add\n      swap1\n      dup2\n      mstore\n      0x20\n      add\n      0x00\n      keccak256\n        /* \"Library/UserProposalLibrary.sol\":964:1020  self.proposalResponsed[self.responseCount] = _proposalId */\n      dup2\n      swap1\n      sstore\n      pop\n        /* \"Library/UserProposalLibrary.sol\":1190:1198  uint16 i */\n      0x00\n        /* \"Library/UserProposalLibrary.sol\":1186:1295  for(uint16 i=0;i<_hash.length;i++){\r... */\n    tag_240:\n        /* \"Library/UserProposalLibrary.sol\":1203:1208  _hash */\n      dup3\n        /* \"Library/UserProposalLibrary.sol\":1203:1215  _hash.length */\n      mload\n        /* \"Library/UserProposalLibrary.sol\":1201:1202  i */\n      dup2\n        /* \"Library/UserProposalLibrary.sol\":1201:1215  i<_hash.length */\n      0xffff\n      and\n      lt\n        /* \"Library/UserProposalLibrary.sol\":1186:1295  for(uint16 i=0;i<_hash.length;i++){\r... */\n      iszero\n      tag_241\n      jumpi\n        /* \"Library/UserProposalLibrary.sol\":1275:1280  _hash */\n      dup3\n        /* \"Library/UserProposalLibrary.sol\":1281:1282  i */\n      dup2\n        /* \"Library/UserProposalLibrary.sol\":1275:1283  _hash[i] */\n      0xffff\n      and\n      dup2\n      mload\n      dup2\n      lt\n      tag_243\n      jumpi\n      tag_244\n      tag_94\n      jump\t// in\n    tag_244:\n    tag_243:\n      0x20\n      mul\n      0x20\n      add\n      add\n      mload\n        /* \"Library/UserProposalLibrary.sol\":1235:1239  self */\n      dup6\n        /* \"Library/UserProposalLibrary.sol\":1235:1254  self.proposalAnswer */\n      0x03\n      add\n        /* \"Library/UserProposalLibrary.sol\":1235:1267  self.proposalAnswer[_proposalId] */\n      0x00\n        /* \"Library/UserProposalLibrary.sol\":1255:1266  _proposalId */\n      dup7\n        /* \"Library/UserProposalLibrary.sol\":1235:1267  self.proposalAnswer[_proposalId] */\n      dup2\n      mstore\n      0x20\n      add\n      swap1\n      dup2\n      mstore\n      0x20\n      add\n      0x00\n      keccak256\n        /* \"Library/UserProposalLibrary.sol\":1235:1272  self.proposalAnswer[_proposalId][i+1] */\n      0x00\n        /* \"Library/UserProposalLibrary.sol\":1270:1271  1 */\n      0x01\n        /* \"Library/UserProposalLibrary.sol\":1268:1269  i */\n      dup5\n        /* \"Library/UserProposalLibrary.sol\":1268:1271  i+1 */\n      tag_245\n      swap2\n      swap1\n      tag_246\n      jump\t// in\n    tag_245:\n        /* \"Library/UserProposalLibrary.sol\":1235:1272  self.proposalAnswer[_proposalId][i+1] */\n      0xffff\n      and\n      dup2\n      mstore\n      0x20\n      add\n      swap1\n      dup2\n      mstore\n      0x20\n      add\n      0x00\n      keccak256\n        /* \"Library/UserProposalLibrary.sol\":1235:1283  self.proposalAnswer[_proposalId][i+1] = _hash[i] */\n      swap1\n      dup1\n      mload\n      swap1\n      0x20\n      add\n      swap1\n      tag_247\n      swap3\n      swap2\n      swap1\n      tag_159\n      jump\t// in\n    tag_247:\n      pop\n        /* \"Library/UserProposalLibrary.sol\":1216:1219  i++ */\n      dup1\n      dup1\n      tag_248\n      swap1\n      tag_218\n      jump\t// in\n    tag_248:\n      swap2\n      pop\n      pop\n        /* \"Library/UserProposalLibrary.sol\":1186:1295  for(uint16 i=0;i<_hash.length;i++){\r... */\n      jump(tag_240)\n    tag_241:\n      pop\n        /* \"Library/UserProposalLibrary.sol\":1343:1347  true */\n      0x01\n        /* \"Library/UserProposalLibrary.sol\":1305:1309  self */\n      dup5\n        /* \"Library/UserProposalLibrary.sol\":1305:1327  self.responsedProposal */\n      0x04\n      add\n        /* \"Library/UserProposalLibrary.sol\":1305:1340  self.responsedProposal[_proposalId] */\n      0x00\n        /* \"Library/UserProposalLibrary.sol\":1328:1339  _proposalId */\n      dup6\n        /* \"Library/UserProposalLibrary.sol\":1305:1340  self.responsedProposal[_proposalId] */\n      dup2\n      mstore\n      0x20\n      add\n      swap1\n      dup2\n      mstore\n      0x20\n      add\n      0x00\n      keccak256\n      0x00\n        /* \"Library/UserProposalLibrary.sol\":1305:1347  self.responsedProposal[_proposalId] = true */\n      0x0100\n      exp\n      dup2\n      sload\n      dup2\n      0xff\n      mul\n      not\n      and\n      swap1\n      dup4\n      iszero\n      iszero\n      mul\n      or\n      swap1\n      sstore\n      pop\n        /* \"Library/UserProposalLibrary.sol\":1365:1369  true */\n      0x01\n        /* \"Library/UserProposalLibrary.sol\":1358:1369  return true */\n      swap1\n      pop\n        /* \"Library/UserProposalLibrary.sol\":802:1377  function updateResponseList(UserProposal storage self, uint _proposalId, string[] memory _hash) internal returns(bool){\r... */\n      swap4\n      swap3\n      pop\n      pop\n      pop\n      jump\t// out\n        /* \"Library/VoterLibrary.sol\":832:1063  function updateVoteNum(voter storage self) internal returns(bool){\r... */\n    tag_145:\n        /* \"Library/VoterLibrary.sol\":892:896  bool */\n      0x00\n        /* \"Library/VoterLibrary.sol\":931:932  0 */\n      dup1\n        /* \"Library/VoterLibrary.sol\":914:918  self */\n      dup3\n        /* \"Library/VoterLibrary.sol\":914:929  self.proposalId */\n      0x00\n      add\n      sload\n        /* \"Library/VoterLibrary.sol\":914:932  self.proposalId!=0 */\n      eq\n      iszero\n        /* \"Library/VoterLibrary.sol\":906:965  require(self.proposalId!=0,\"Invalid voter for proposalId!\") */\n      tag_250\n      jumpi\n      mload(0x40)\n      0x08c379a000000000000000000000000000000000000000000000000000000000\n      dup2\n      mstore\n      0x04\n      add\n      tag_251\n      swap1\n      tag_252\n      jump\t// in\n    tag_251:\n      mload(0x40)\n      dup1\n      swap2\n      sub\n      swap1\n      revert\n    tag_250:\n        /* \"Library/VoterLibrary.sol\":983:987  self */\n      dup2\n        /* \"Library/VoterLibrary.sol\":983:996  self.hasVoted */\n      0x01\n      add\n      0x14\n      swap1\n      sload\n      swap1\n      0x0100\n      exp\n      swap1\n      div\n      0xff\n      and\n        /* \"Library/VoterLibrary.sol\":982:996  !self.hasVoted */\n      iszero\n        /* \"Library/VoterLibrary.sol\":974:1010  require(!self.hasVoted, \"not voted\") */\n      tag_253\n      jumpi\n      mload(0x40)\n      0x08c379a000000000000000000000000000000000000000000000000000000000\n      dup2\n      mstore\n      0x04\n      add\n      tag_254\n      swap1\n      tag_255\n      jump\t// in\n    tag_254:\n      mload(0x40)\n      dup1\n      swap2\n      sub\n      swap1\n      revert\n    tag_253:\n        /* \"Library/VoterLibrary.sol\":1034:1035  0 */\n      0x00\n        /* \"Library/VoterLibrary.sol\":1019:1023  self */\n      dup3\n        /* \"Library/VoterLibrary.sol\":1019:1031  self.voteNum */\n      0x02\n      add\n        /* \"Library/VoterLibrary.sol\":1019:1035  self.voteNum = 0 */\n      dup2\n      swap1\n      sstore\n      pop\n        /* \"Library/VoterLibrary.sol\":1051:1055  true */\n      0x01\n        /* \"Library/VoterLibrary.sol\":1044:1055  return true */\n      swap1\n      pop\n        /* \"Library/VoterLibrary.sol\":832:1063  function updateVoteNum(voter storage self) internal returns(bool){\r... */\n      swap2\n      swap1\n      pop\n      jump\t// out\n        /* \"QvToken/QvToken.sol\":510:613  function burn(address to,uint amount) onlyOwner(_msgSender()) internal {\r... */\n    tag_147:\n        /* \"QvToken/QvToken.sol\":558:570  _msgSender() */\n      tag_256\n        /* \"QvToken/QvToken.sol\":558:568  _msgSender */\n      tag_109\n        /* \"QvToken/QvToken.sol\":558:570  _msgSender() */\n      jump\t// in\n    tag_256:\n        /* \"QvToken/QvToken.sol\":366:375  msgSender */\n      dup1\n        /* \"QvToken/QvToken.sol\":357:375  owner == msgSender */\n      0xffffffffffffffffffffffffffffffffffffffff\n      and\n        /* \"QvToken/QvToken.sol\":357:362  owner */\n      0x04\n      0x00\n      swap1\n      sload\n      swap1\n      0x0100\n      exp\n      swap1\n      div\n      0xffffffffffffffffffffffffffffffffffffffff\n      and\n        /* \"QvToken/QvToken.sol\":357:375  owner == msgSender */\n      0xffffffffffffffffffffffffffffffffffffffff\n      and\n      eq\n        /* \"QvToken/QvToken.sol\":349:376  require(owner == msgSender) */\n      tag_258\n      jumpi\n      0x00\n      dup1\n      revert\n    tag_258:\n        /* \"QvToken/QvToken.sol\":588:605  _burn(to, amount) */\n      tag_260\n        /* \"QvToken/QvToken.sol\":594:596  to */\n      dup4\n        /* \"QvToken/QvToken.sol\":598:604  amount */\n      dup4\n        /* \"QvToken/QvToken.sol\":588:593  _burn */\n      tag_261\n        /* \"QvToken/QvToken.sol\":588:605  _burn(to, amount) */\n      jump\t// in\n    tag_260:\n        /* \"QvToken/QvToken.sol\":510:613  function burn(address to,uint amount) onlyOwner(_msgSender()) internal {\r... */\n      pop\n      pop\n      pop\n      jump\t// out\n        /* \"QvToken/ERC20.sol\":3630:4033  function _mint(address account, uint256 amount) internal virtual {\r... */\n    tag_187:\n        /* \"QvToken/ERC20.sol\":3733:3734  0 */\n      0x00\n        /* \"QvToken/ERC20.sol\":3714:3735  account != address(0) */\n      0xffffffffffffffffffffffffffffffffffffffff\n      and\n        /* \"QvToken/ERC20.sol\":3714:3721  account */\n      dup3\n        /* \"QvToken/ERC20.sol\":3714:3735  account != address(0) */\n      0xffffffffffffffffffffffffffffffffffffffff\n      and\n      eq\n      iszero\n        /* \"QvToken/ERC20.sol\":3706:3771  require(account != address(0), \"ERC20: mint to the zero address\") */\n      tag_263\n      jumpi\n      mload(0x40)\n      0x08c379a000000000000000000000000000000000000000000000000000000000\n      dup2\n      mstore\n      0x04\n      add\n      tag_264\n      swap1\n      tag_265\n      jump\t// in\n    tag_264:\n      mload(0x40)\n      dup1\n      swap2\n      sub\n      swap1\n      revert\n    tag_263:\n        /* \"QvToken/ERC20.sol\":3865:3871  amount */\n      dup1\n        /* \"QvToken/ERC20.sol\":3849:3861  _totalSupply */\n      0x01\n      0x00\n        /* \"QvToken/ERC20.sol\":3849:3871  _totalSupply += amount */\n      dup3\n      dup3\n      sload\n      tag_266\n      swap2\n      swap1\n      tag_134\n      jump\t// in\n    tag_266:\n      swap3\n      pop\n      pop\n      dup2\n      swap1\n      sstore\n      pop\n        /* \"QvToken/ERC20.sol\":3904:3910  amount */\n      dup1\n        /* \"QvToken/ERC20.sol\":3882:3891  _balances */\n      0x00\n        /* \"QvToken/ERC20.sol\":3882:3900  _balances[account] */\n      dup1\n        /* \"QvToken/ERC20.sol\":3892:3899  account */\n      dup5\n        /* \"QvToken/ERC20.sol\":3882:3900  _balances[account] */\n      0xffffffffffffffffffffffffffffffffffffffff\n      and\n      0xffffffffffffffffffffffffffffffffffffffff\n      and\n      dup2\n      mstore\n      0x20\n      add\n      swap1\n      dup2\n      mstore\n      0x20\n      add\n      0x00\n      keccak256\n      0x00\n        /* \"QvToken/ERC20.sol\":3882:3910  _balances[account] += amount */\n      dup3\n      dup3\n      sload\n      tag_267\n      swap2\n      swap1\n      tag_134\n      jump\t// in\n    tag_267:\n      swap3\n      pop\n      pop\n      dup2\n      swap1\n      sstore\n      pop\n        /* \"QvToken/ERC20.sol\":3926:3961  mintAndburn(\"mint\",account, amount) */\n      0xabf5327be9f5825c40d58bda541dd07f09b62df3376bbd5ecdbaa8bd82a9d492\n        /* \"QvToken/ERC20.sol\":3945:3952  account */\n      dup3\n        /* \"QvToken/ERC20.sol\":3954:3960  amount */\n      dup3\n        /* \"QvToken/ERC20.sol\":3926:3961  mintAndburn(\"mint\",account, amount) */\n      mload(0x40)\n      tag_268\n      swap3\n      swap2\n      swap1\n      tag_105\n      jump\t// in\n    tag_268:\n      mload(0x40)\n      dup1\n      swap2\n      sub\n      swap1\n      log1\n        /* \"QvToken/ERC20.sol\":3630:4033  function _mint(address account, uint256 amount) internal virtual {\r... */\n      pop\n      pop\n      jump\t// out\n        /* \"QvToken/ERC20.sol\":4045:4640  function _burn(address account, uint256 amount) internal virtual {\r... */\n    tag_261:\n        /* \"QvToken/ERC20.sol\":4148:4149  0 */\n      0x00\n        /* \"QvToken/ERC20.sol\":4129:4150  account != address(0) */\n      0xffffffffffffffffffffffffffffffffffffffff\n      and\n        /* \"QvToken/ERC20.sol\":4129:4136  account */\n      dup3\n        /* \"QvToken/ERC20.sol\":4129:4150  account != address(0) */\n      0xffffffffffffffffffffffffffffffffffffffff\n      and\n      eq\n      iszero\n        /* \"QvToken/ERC20.sol\":4121:4188  require(account != address(0), \"ERC20: burn from the zero address\") */\n      tag_270\n      jumpi\n      mload(0x40)\n      0x08c379a000000000000000000000000000000000000000000000000000000000\n      dup2\n      mstore\n      0x04\n      add\n      tag_271\n      swap1\n      tag_272\n      jump\t// in\n    tag_271:\n      mload(0x40)\n      dup1\n      swap2\n      sub\n      swap1\n      revert\n    tag_270:\n        /* \"QvToken/ERC20.sol\":4266:4288  uint256 accountBalance */\n      0x00\n        /* \"QvToken/ERC20.sol\":4291:4300  _balances */\n      dup1\n        /* \"QvToken/ERC20.sol\":4291:4309  _balances[account] */\n      0x00\n        /* \"QvToken/ERC20.sol\":4301:4308  account */\n      dup5\n        /* \"QvToken/ERC20.sol\":4291:4309  _balances[account] */\n      0xffffffffffffffffffffffffffffffffffffffff\n      and\n      0xffffffffffffffffffffffffffffffffffffffff\n      and\n      dup2\n      mstore\n      0x20\n      add\n      swap1\n      dup2\n      mstore\n      0x20\n      add\n      0x00\n      keccak256\n      sload\n        /* \"QvToken/ERC20.sol\":4266:4309  uint256 accountBalance = _balances[account] */\n      swap1\n      pop\n        /* \"QvToken/ERC20.sol\":4346:4352  amount */\n      dup2\n        /* \"QvToken/ERC20.sol\":4328:4342  accountBalance */\n      dup2\n        /* \"QvToken/ERC20.sol\":4328:4352  accountBalance >= amount */\n      lt\n      iszero\n        /* \"QvToken/ERC20.sol\":4320:4391  require(accountBalance >= amount, \"ERC20: burn amount exceeds balance\") */\n      tag_273\n      jumpi\n      mload(0x40)\n      0x08c379a000000000000000000000000000000000000000000000000000000000\n      dup2\n      mstore\n      0x04\n      add\n      tag_274\n      swap1\n      tag_275\n      jump\t// in\n    tag_274:\n      mload(0x40)\n      dup1\n      swap2\n      sub\n      swap1\n      revert\n    tag_273:\n        /* \"QvToken/ERC20.sol\":4465:4471  amount */\n      dup2\n        /* \"QvToken/ERC20.sol\":4448:4462  accountBalance */\n      dup2\n        /* \"QvToken/ERC20.sol\":4448:4471  accountBalance - amount */\n      sub\n        /* \"QvToken/ERC20.sol\":4427:4436  _balances */\n      0x00\n        /* \"QvToken/ERC20.sol\":4427:4445  _balances[account] */\n      dup1\n        /* \"QvToken/ERC20.sol\":4437:4444  account */\n      dup6\n        /* \"QvToken/ERC20.sol\":4427:4445  _balances[account] */\n      0xffffffffffffffffffffffffffffffffffffffff\n      and\n      0xffffffffffffffffffffffffffffffffffffffff\n      and\n      dup2\n      mstore\n      0x20\n      add\n      swap1\n      dup2\n      mstore\n      0x20\n      add\n      0x00\n      keccak256\n        /* \"QvToken/ERC20.sol\":4427:4471  _balances[account] = accountBalance - amount */\n      dup2\n      swap1\n      sstore\n      pop\n        /* \"QvToken/ERC20.sol\":4509:4515  amount */\n      dup2\n        /* \"QvToken/ERC20.sol\":4493:4505  _totalSupply */\n      0x01\n      0x00\n        /* \"QvToken/ERC20.sol\":4493:4515  _totalSupply -= amount */\n      dup3\n      dup3\n      sload\n      tag_276\n      swap2\n      swap1\n      tag_277\n      jump\t// in\n    tag_276:\n      swap3\n      pop\n      pop\n      dup2\n      swap1\n      sstore\n      pop\n        /* \"QvToken/ERC20.sol\":4533:4568  mintAndburn(\"burn\",account, amount) */\n      0xabf5327be9f5825c40d58bda541dd07f09b62df3376bbd5ecdbaa8bd82a9d492\n        /* \"QvToken/ERC20.sol\":4552:4559  account */\n      dup4\n        /* \"QvToken/ERC20.sol\":4561:4567  amount */\n      dup4\n        /* \"QvToken/ERC20.sol\":4533:4568  mintAndburn(\"burn\",account, amount) */\n      mload(0x40)\n      tag_278\n      swap3\n      swap2\n      swap1\n      tag_149\n      jump\t// in\n    tag_278:\n      mload(0x40)\n      dup1\n      swap2\n      sub\n      swap1\n      log1\n        /* \"QvToken/ERC20.sol\":4110:4640  {\r... */\n      pop\n        /* \"QvToken/ERC20.sol\":4045:4640  function _burn(address account, uint256 amount) internal virtual {\r... */\n      pop\n      pop\n      jump\t// out\n    tag_159:\n      dup3\n      dup1\n      sload\n      tag_279\n      swap1\n      tag_59\n      jump\t// in\n    tag_279:\n      swap1\n      0x00\n      mstore\n      keccak256(0x00, 0x20)\n      swap1\n      0x1f\n      add\n      0x20\n      swap1\n      div\n      dup2\n      add\n      swap3\n      dup3\n      tag_281\n      jumpi\n      0x00\n      dup6\n      sstore\n      jump(tag_280)\n    tag_281:\n      dup3\n      0x1f\n      lt\n      tag_282\n      jumpi\n      dup1\n      mload\n      not(0xff)\n      and\n      dup4\n      dup1\n      add\n      or\n      dup6\n      sstore\n      jump(tag_280)\n    tag_282:\n      dup3\n      dup1\n      add\n      0x01\n      add\n      dup6\n      sstore\n      dup3\n      iszero\n      tag_280\n      jumpi\n      swap2\n      dup3\n      add\n    tag_283:\n      dup3\n      dup2\n      gt\n      iszero\n      tag_284\n      jumpi\n      dup3\n      mload\n      dup3\n      sstore\n      swap2\n      0x20\n      add\n      swap2\n      swap1\n      0x01\n      add\n      swap1\n      jump(tag_283)\n    tag_284:\n    tag_280:\n      pop\n      swap1\n      pop\n      tag_285\n      swap2\n      swap1\n      tag_286\n      jump\t// in\n    tag_285:\n      pop\n      swap1\n      jump\t// out\n    tag_174:\n      dup3\n      dup1\n      sload\n      tag_287\n      swap1\n      tag_59\n      jump\t// in\n    tag_287:\n      swap1\n      0x00\n      mstore\n      keccak256(0x00, 0x20)\n      swap1\n      0x1f\n      add\n      0x20\n      swap1\n      div\n      dup2\n      add\n      swap3\n      dup3\n      tag_289\n      jumpi\n      0x00\n      dup6\n      sstore\n      jump(tag_288)\n    tag_289:\n      dup3\n      0x1f\n      lt\n      tag_290\n      jumpi\n      dup1\n      calldataload\n      not(0xff)\n      and\n      dup4\n      dup1\n      add\n      or\n      dup6\n      sstore\n      jump(tag_288)\n    tag_290:\n      dup3\n      dup1\n      add\n      0x01\n      add\n      dup6\n      sstore\n      dup3\n      iszero\n      tag_288\n      jumpi\n      swap2\n      dup3\n      add\n    tag_291:\n      dup3\n      dup2\n      gt\n      iszero\n      tag_292\n      jumpi\n      dup3\n      calldataload\n      dup3\n      sstore\n      swap2\n      0x20\n      add\n      swap2\n      swap1\n      0x01\n      add\n      swap1\n      jump(tag_291)\n    tag_292:\n    tag_288:\n      pop\n      swap1\n      pop\n      tag_293\n      swap2\n      swap1\n      tag_286\n      jump\t// in\n    tag_293:\n      pop\n      swap1\n      jump\t// out\n    tag_202:\n      dup3\n      dup1\n      sload\n      tag_294\n      swap1\n      tag_59\n      jump\t// in\n    tag_294:\n      swap1\n      0x00\n      mstore\n      keccak256(0x00, 0x20)\n      swap1\n      0x1f\n      add\n      0x20\n      swap1\n      div\n      dup2\n      add\n      swap3\n      dup3\n      tag_296\n      jumpi\n      0x00\n      dup6\n      sstore\n      jump(tag_295)\n    tag_296:\n      dup3\n      0x1f\n      lt\n      tag_297\n      jumpi\n      dup1\n      sload\n      dup6\n      sstore\n      jump(tag_295)\n    tag_297:\n      dup3\n      dup1\n      add\n      0x01\n      add\n      dup6\n      sstore\n      dup3\n      iszero\n      tag_295\n      jumpi\n      0x00\n      mstore\n      keccak256(0x00, 0x20)\n      swap2\n      0x1f\n      add\n      0x20\n      swap1\n      div\n      dup3\n      add\n    tag_298:\n      dup3\n      dup2\n      gt\n      iszero\n      tag_299\n      jumpi\n      dup3\n      sload\n      dup3\n      sstore\n      swap2\n      0x01\n      add\n      swap2\n      swap1\n      0x01\n      add\n      swap1\n      jump(tag_298)\n    tag_299:\n    tag_295:\n      pop\n      swap1\n      pop\n      tag_300\n      swap2\n      swap1\n      tag_286\n      jump\t// in\n    tag_300:\n      pop\n      swap1\n      jump\t// out\n    tag_286:\n    tag_301:\n      dup1\n      dup3\n      gt\n      iszero\n      tag_302\n      jumpi\n      0x00\n      dup2\n      0x00\n      swap1\n      sstore\n      pop\n      0x01\n      add\n      jump(tag_301)\n    tag_302:\n      pop\n      swap1\n      jump\t// out\n        /* \"#utility.yul\":24:746   */\n    tag_304:\n        /* \"#utility.yul\":120:125   */\n      0x00\n        /* \"#utility.yul\":145:226   */\n      tag_306\n        /* \"#utility.yul\":161:225   */\n      tag_307\n        /* \"#utility.yul\":218:224   */\n      dup5\n        /* \"#utility.yul\":161:225   */\n      tag_308\n      jump\t// in\n    tag_307:\n        /* \"#utility.yul\":145:226   */\n      tag_309\n      jump\t// in\n    tag_306:\n        /* \"#utility.yul\":136:226   */\n      swap1\n      pop\n        /* \"#utility.yul\":246:251   */\n      dup1\n        /* \"#utility.yul\":275:281   */\n      dup4\n        /* \"#utility.yul\":268:273   */\n      dup3\n        /* \"#utility.yul\":261:282   */\n      mstore\n        /* \"#utility.yul\":309:313   */\n      0x20\n        /* \"#utility.yul\":302:307   */\n      dup3\n        /* \"#utility.yul\":298:314   */\n      add\n        /* \"#utility.yul\":291:314   */\n      swap1\n      pop\n        /* \"#utility.yul\":335:341   */\n      dup3\n        /* \"#utility.yul\":385:388   */\n      dup6\n        /* \"#utility.yul\":377:381   */\n      0x20\n        /* \"#utility.yul\":369:375   */\n      dup7\n        /* \"#utility.yul\":365:382   */\n      mul\n        /* \"#utility.yul\":360:363   */\n      dup3\n        /* \"#utility.yul\":356:383   */\n      add\n        /* \"#utility.yul\":353:389   */\n      gt\n        /* \"#utility.yul\":350:493   */\n      iszero\n      tag_310\n      jumpi\n        /* \"#utility.yul\":404:483   */\n      tag_311\n      tag_312\n      jump\t// in\n    tag_311:\n        /* \"#utility.yul\":350:493   */\n    tag_310:\n        /* \"#utility.yul\":517:518   */\n      0x00\n        /* \"#utility.yul\":502:740   */\n    tag_313:\n        /* \"#utility.yul\":527:533   */\n      dup6\n        /* \"#utility.yul\":524:525   */\n      dup2\n        /* \"#utility.yul\":521:534   */\n      lt\n        /* \"#utility.yul\":502:740   */\n      iszero\n      tag_315\n      jumpi\n        /* \"#utility.yul\":595:598   */\n      dup2\n        /* \"#utility.yul\":624:661   */\n      tag_316\n        /* \"#utility.yul\":657:660   */\n      dup9\n        /* \"#utility.yul\":645:655   */\n      dup3\n        /* \"#utility.yul\":624:661   */\n      tag_317\n      jump\t// in\n    tag_316:\n        /* \"#utility.yul\":619:622   */\n      dup5\n        /* \"#utility.yul\":612:662   */\n      mstore\n        /* \"#utility.yul\":691:695   */\n      0x20\n        /* \"#utility.yul\":686:689   */\n      dup5\n        /* \"#utility.yul\":682:696   */\n      add\n        /* \"#utility.yul\":675:696   */\n      swap4\n      pop\n        /* \"#utility.yul\":725:729   */\n      0x20\n        /* \"#utility.yul\":720:723   */\n      dup4\n        /* \"#utility.yul\":716:730   */\n      add\n        /* \"#utility.yul\":709:730   */\n      swap3\n      pop\n        /* \"#utility.yul\":562:740   */\n      pop\n        /* \"#utility.yul\":549:550   */\n      0x01\n        /* \"#utility.yul\":546:547   */\n      dup2\n        /* \"#utility.yul\":542:551   */\n      add\n        /* \"#utility.yul\":537:551   */\n      swap1\n      pop\n        /* \"#utility.yul\":502:740   */\n      jump(tag_313)\n    tag_315:\n        /* \"#utility.yul\":506:520   */\n      pop\n        /* \"#utility.yul\":126:746   */\n      pop\n      pop\n        /* \"#utility.yul\":24:746   */\n      swap4\n      swap3\n      pop\n      pop\n      pop\n      jump\t// out\n        /* \"#utility.yul\":768:1725   */\n    tag_318:\n        /* \"#utility.yul\":874:879   */\n      0x00\n        /* \"#utility.yul\":899:990   */\n      tag_320\n        /* \"#utility.yul\":915:989   */\n      tag_321\n        /* \"#utility.yul\":982:988   */\n      dup5\n        /* \"#utility.yul\":915:989   */\n      tag_322\n      jump\t// in\n    tag_321:\n        /* \"#utility.yul\":899:990   */\n      tag_309\n      jump\t// in\n    tag_320:\n        /* \"#utility.yul\":890:990   */\n      swap1\n      pop\n        /* \"#utility.yul\":1010:1015   */\n      dup1\n        /* \"#utility.yul\":1039:1045   */\n      dup4\n        /* \"#utility.yul\":1032:1037   */\n      dup3\n        /* \"#utility.yul\":1025:1046   */\n      mstore\n        /* \"#utility.yul\":1073:1077   */\n      0x20\n        /* \"#utility.yul\":1066:1071   */\n      dup3\n        /* \"#utility.yul\":1062:1078   */\n      add\n        /* \"#utility.yul\":1055:1078   */\n      swap1\n      pop\n        /* \"#utility.yul\":1099:1105   */\n      dup3\n        /* \"#utility.yul\":1149:1152   */\n      dup6\n        /* \"#utility.yul\":1141:1145   */\n      0x20\n        /* \"#utility.yul\":1133:1139   */\n      dup7\n        /* \"#utility.yul\":1129:1146   */\n      mul\n        /* \"#utility.yul\":1124:1127   */\n      dup3\n        /* \"#utility.yul\":1120:1147   */\n      add\n        /* \"#utility.yul\":1117:1153   */\n      gt\n        /* \"#utility.yul\":1114:1257   */\n      iszero\n      tag_323\n      jumpi\n        /* \"#utility.yul\":1168:1247   */\n      tag_324\n      tag_312\n      jump\t// in\n    tag_324:\n        /* \"#utility.yul\":1114:1257   */\n    tag_323:\n        /* \"#utility.yul\":1281:1282   */\n      0x00\n        /* \"#utility.yul\":1266:1719   */\n    tag_325:\n        /* \"#utility.yul\":1291:1297   */\n      dup6\n        /* \"#utility.yul\":1288:1289   */\n      dup2\n        /* \"#utility.yul\":1285:1298   */\n      lt\n        /* \"#utility.yul\":1266:1719   */\n      iszero\n      tag_327\n      jumpi\n        /* \"#utility.yul\":1373:1376   */\n      dup2\n        /* \"#utility.yul\":1360:1377   */\n      calldataload\n        /* \"#utility.yul\":1409:1427   */\n      0xffffffffffffffff\n        /* \"#utility.yul\":1396:1407   */\n      dup2\n        /* \"#utility.yul\":1393:1428   */\n      gt\n        /* \"#utility.yul\":1390:1512   */\n      iszero\n      tag_328\n      jumpi\n        /* \"#utility.yul\":1431:1510   */\n      tag_329\n      tag_330\n      jump\t// in\n    tag_329:\n        /* \"#utility.yul\":1390:1512   */\n    tag_328:\n        /* \"#utility.yul\":1555:1566   */\n      dup1\n        /* \"#utility.yul\":1547:1553   */\n      dup7\n        /* \"#utility.yul\":1543:1567   */\n      add\n        /* \"#utility.yul\":1593:1640   */\n      tag_331\n        /* \"#utility.yul\":1636:1639   */\n      dup10\n        /* \"#utility.yul\":1624:1634   */\n      dup3\n        /* \"#utility.yul\":1593:1640   */\n      tag_332\n      jump\t// in\n    tag_331:\n        /* \"#utility.yul\":1588:1591   */\n      dup6\n        /* \"#utility.yul\":1581:1641   */\n      mstore\n        /* \"#utility.yul\":1670:1674   */\n      0x20\n        /* \"#utility.yul\":1665:1668   */\n      dup6\n        /* \"#utility.yul\":1661:1675   */\n      add\n        /* \"#utility.yul\":1654:1675   */\n      swap5\n      pop\n        /* \"#utility.yul\":1704:1708   */\n      0x20\n        /* \"#utility.yul\":1699:1702   */\n      dup5\n        /* \"#utility.yul\":1695:1709   */\n      add\n        /* \"#utility.yul\":1688:1709   */\n      swap4\n      pop\n        /* \"#utility.yul\":1326:1719   */\n      pop\n      pop\n        /* \"#utility.yul\":1313:1314   */\n      0x01\n        /* \"#utility.yul\":1310:1311   */\n      dup2\n        /* \"#utility.yul\":1306:1315   */\n      add\n        /* \"#utility.yul\":1301:1315   */\n      swap1\n      pop\n        /* \"#utility.yul\":1266:1719   */\n      jump(tag_325)\n    tag_327:\n        /* \"#utility.yul\":1270:1284   */\n      pop\n        /* \"#utility.yul\":880:1725   */\n      pop\n      pop\n        /* \"#utility.yul\":768:1725   */\n      swap4\n      swap3\n      pop\n      pop\n      pop\n      jump\t// out\n        /* \"#utility.yul\":1748:2470   */\n    tag_333:\n        /* \"#utility.yul\":1844:1849   */\n      0x00\n        /* \"#utility.yul\":1869:1950   */\n      tag_335\n        /* \"#utility.yul\":1885:1949   */\n      tag_336\n        /* \"#utility.yul\":1942:1948   */\n      dup5\n        /* \"#utility.yul\":1885:1949   */\n      tag_337\n      jump\t// in\n    tag_336:\n        /* \"#utility.yul\":1869:1950   */\n      tag_309\n      jump\t// in\n    tag_335:\n        /* \"#utility.yul\":1860:1950   */\n      swap1\n      pop\n        /* \"#utility.yul\":1970:1975   */\n      dup1\n        /* \"#utility.yul\":1999:2005   */\n      dup4\n        /* \"#utility.yul\":1992:1997   */\n      dup3\n        /* \"#utility.yul\":1985:2006   */\n      mstore\n        /* \"#utility.yul\":2033:2037   */\n      0x20\n        /* \"#utility.yul\":2026:2031   */\n      dup3\n        /* \"#utility.yul\":2022:2038   */\n      add\n        /* \"#utility.yul\":2015:2038   */\n      swap1\n      pop\n        /* \"#utility.yul\":2059:2065   */\n      dup3\n        /* \"#utility.yul\":2109:2112   */\n      dup6\n        /* \"#utility.yul\":2101:2105   */\n      0x20\n        /* \"#utility.yul\":2093:2099   */\n      dup7\n        /* \"#utility.yul\":2089:2106   */\n      mul\n        /* \"#utility.yul\":2084:2087   */\n      dup3\n        /* \"#utility.yul\":2080:2107   */\n      add\n        /* \"#utility.yul\":2077:2113   */\n      gt\n        /* \"#utility.yul\":2074:2217   */\n      iszero\n      tag_338\n      jumpi\n        /* \"#utility.yul\":2128:2207   */\n      tag_339\n      tag_312\n      jump\t// in\n    tag_339:\n        /* \"#utility.yul\":2074:2217   */\n    tag_338:\n        /* \"#utility.yul\":2241:2242   */\n      0x00\n        /* \"#utility.yul\":2226:2464   */\n    tag_340:\n        /* \"#utility.yul\":2251:2257   */\n      dup6\n        /* \"#utility.yul\":2248:2249   */\n      dup2\n        /* \"#utility.yul\":2245:2258   */\n      lt\n        /* \"#utility.yul\":2226:2464   */\n      iszero\n      tag_342\n      jumpi\n        /* \"#utility.yul\":2319:2322   */\n      dup2\n        /* \"#utility.yul\":2348:2385   */\n      tag_343\n        /* \"#utility.yul\":2381:2384   */\n      dup9\n        /* \"#utility.yul\":2369:2379   */\n      dup3\n        /* \"#utility.yul\":2348:2385   */\n      tag_344\n      jump\t// in\n    tag_343:\n        /* \"#utility.yul\":2343:2346   */\n      dup5\n        /* \"#utility.yul\":2336:2386   */\n      mstore\n        /* \"#utility.yul\":2415:2419   */\n      0x20\n        /* \"#utility.yul\":2410:2413   */\n      dup5\n        /* \"#utility.yul\":2406:2420   */\n      add\n        /* \"#utility.yul\":2399:2420   */\n      swap4\n      pop\n        /* \"#utility.yul\":2449:2453   */\n      0x20\n        /* \"#utility.yul\":2444:2447   */\n      dup4\n        /* \"#utility.yul\":2440:2454   */\n      add\n        /* \"#utility.yul\":2433:2454   */\n      swap3\n      pop\n        /* \"#utility.yul\":2286:2464   */\n      pop\n        /* \"#utility.yul\":2273:2274   */\n      0x01\n        /* \"#utility.yul\":2270:2271   */\n      dup2\n        /* \"#utility.yul\":2266:2275   */\n      add\n        /* \"#utility.yul\":2261:2275   */\n      swap1\n      pop\n        /* \"#utility.yul\":2226:2464   */\n      jump(tag_340)\n    tag_342:\n        /* \"#utility.yul\":2230:2244   */\n      pop\n        /* \"#utility.yul\":1850:2470   */\n      pop\n      pop\n        /* \"#utility.yul\":1748:2470   */\n      swap4\n      swap3\n      pop\n      pop\n      pop\n      jump\t// out\n        /* \"#utility.yul\":2476:2888   */\n    tag_345:\n        /* \"#utility.yul\":2554:2559   */\n      0x00\n        /* \"#utility.yul\":2579:2645   */\n      tag_347\n        /* \"#utility.yul\":2595:2644   */\n      tag_348\n        /* \"#utility.yul\":2637:2643   */\n      dup5\n        /* \"#utility.yul\":2595:2644   */\n      tag_349\n      jump\t// in\n    tag_348:\n        /* \"#utility.yul\":2579:2645   */\n      tag_309\n      jump\t// in\n    tag_347:\n        /* \"#utility.yul\":2570:2645   */\n      swap1\n      pop\n        /* \"#utility.yul\":2668:2674   */\n      dup3\n        /* \"#utility.yul\":2661:2666   */\n      dup2\n        /* \"#utility.yul\":2654:2675   */\n      mstore\n        /* \"#utility.yul\":2706:2710   */\n      0x20\n        /* \"#utility.yul\":2699:2704   */\n      dup2\n        /* \"#utility.yul\":2695:2711   */\n      add\n        /* \"#utility.yul\":2744:2747   */\n      dup5\n        /* \"#utility.yul\":2735:2741   */\n      dup5\n        /* \"#utility.yul\":2730:2733   */\n      dup5\n        /* \"#utility.yul\":2726:2742   */\n      add\n        /* \"#utility.yul\":2723:2748   */\n      gt\n        /* \"#utility.yul\":2720:2832   */\n      iszero\n      tag_350\n      jumpi\n        /* \"#utility.yul\":2751:2830   */\n      tag_351\n      tag_352\n      jump\t// in\n    tag_351:\n        /* \"#utility.yul\":2720:2832   */\n    tag_350:\n        /* \"#utility.yul\":2841:2882   */\n      tag_353\n        /* \"#utility.yul\":2875:2881   */\n      dup5\n        /* \"#utility.yul\":2870:2873   */\n      dup3\n        /* \"#utility.yul\":2865:2868   */\n      dup6\n        /* \"#utility.yul\":2841:2882   */\n      tag_354\n      jump\t// in\n    tag_353:\n        /* \"#utility.yul\":2560:2888   */\n      pop\n        /* \"#utility.yul\":2476:2888   */\n      swap4\n      swap3\n      pop\n      pop\n      pop\n      jump\t// out\n        /* \"#utility.yul\":2894:3033   */\n    tag_317:\n        /* \"#utility.yul\":2940:2945   */\n      0x00\n        /* \"#utility.yul\":2978:2984   */\n      dup2\n        /* \"#utility.yul\":2965:2985   */\n      calldataload\n        /* \"#utility.yul\":2956:2985   */\n      swap1\n      pop\n        /* \"#utility.yul\":2994:3027   */\n      tag_356\n        /* \"#utility.yul\":3021:3026   */\n      dup2\n        /* \"#utility.yul\":2994:3027   */\n      tag_357\n      jump\t// in\n    tag_356:\n        /* \"#utility.yul\":2894:3033   */\n      swap3\n      swap2\n      pop\n      pop\n      jump\t// out\n        /* \"#utility.yul\":3056:3426   */\n    tag_358:\n        /* \"#utility.yul\":3127:3132   */\n      0x00\n        /* \"#utility.yul\":3176:3179   */\n      dup3\n        /* \"#utility.yul\":3169:3173   */\n      0x1f\n        /* \"#utility.yul\":3161:3167   */\n      dup4\n        /* \"#utility.yul\":3157:3174   */\n      add\n        /* \"#utility.yul\":3153:3180   */\n      slt\n        /* \"#utility.yul\":3143:3265   */\n      tag_360\n      jumpi\n        /* \"#utility.yul\":3184:3263   */\n      tag_361\n      tag_330\n      jump\t// in\n    tag_361:\n        /* \"#utility.yul\":3143:3265   */\n    tag_360:\n        /* \"#utility.yul\":3301:3307   */\n      dup2\n        /* \"#utility.yul\":3288:3308   */\n      calldataload\n        /* \"#utility.yul\":3326:3420   */\n      tag_362\n        /* \"#utility.yul\":3416:3419   */\n      dup5\n        /* \"#utility.yul\":3408:3414   */\n      dup3\n        /* \"#utility.yul\":3401:3405   */\n      0x20\n        /* \"#utility.yul\":3393:3399   */\n      dup7\n        /* \"#utility.yul\":3389:3406   */\n      add\n        /* \"#utility.yul\":3326:3420   */\n      tag_304\n      jump\t// in\n    tag_362:\n        /* \"#utility.yul\":3317:3420   */\n      swap2\n      pop\n        /* \"#utility.yul\":3133:3426   */\n      pop\n        /* \"#utility.yul\":3056:3426   */\n      swap3\n      swap2\n      pop\n      pop\n      jump\t// out\n        /* \"#utility.yul\":3448:4028   */\n    tag_363:\n        /* \"#utility.yul\":3533:3541   */\n      0x00\n        /* \"#utility.yul\":3543:3549   */\n      dup1\n        /* \"#utility.yul\":3593:3596   */\n      dup4\n        /* \"#utility.yul\":3586:3590   */\n      0x1f\n        /* \"#utility.yul\":3578:3584   */\n      dup5\n        /* \"#utility.yul\":3574:3591   */\n      add\n        /* \"#utility.yul\":3570:3597   */\n      slt\n        /* \"#utility.yul\":3560:3682   */\n      tag_365\n      jumpi\n        /* \"#utility.yul\":3601:3680   */\n      tag_366\n      tag_330\n      jump\t// in\n    tag_366:\n        /* \"#utility.yul\":3560:3682   */\n    tag_365:\n        /* \"#utility.yul\":3714:3720   */\n      dup3\n        /* \"#utility.yul\":3701:3721   */\n      calldataload\n        /* \"#utility.yul\":3691:3721   */\n      swap1\n      pop\n        /* \"#utility.yul\":3744:3762   */\n      0xffffffffffffffff\n        /* \"#utility.yul\":3736:3742   */\n      dup2\n        /* \"#utility.yul\":3733:3763   */\n      gt\n        /* \"#utility.yul\":3730:3847   */\n      iszero\n      tag_367\n      jumpi\n        /* \"#utility.yul\":3766:3845   */\n      tag_368\n      tag_369\n      jump\t// in\n    tag_368:\n        /* \"#utility.yul\":3730:3847   */\n    tag_367:\n        /* \"#utility.yul\":3880:3884   */\n      0x20\n        /* \"#utility.yul\":3872:3878   */\n      dup4\n        /* \"#utility.yul\":3868:3885   */\n      add\n        /* \"#utility.yul\":3856:3885   */\n      swap2\n      pop\n        /* \"#utility.yul\":3934:3937   */\n      dup4\n        /* \"#utility.yul\":3926:3930   */\n      0x20\n        /* \"#utility.yul\":3918:3924   */\n      dup3\n        /* \"#utility.yul\":3914:3931   */\n      mul\n        /* \"#utility.yul\":3904:3912   */\n      dup4\n        /* \"#utility.yul\":3900:3932   */\n      add\n        /* \"#utility.yul\":3897:3938   */\n      gt\n        /* \"#utility.yul\":3894:4022   */\n      iszero\n      tag_370\n      jumpi\n        /* \"#utility.yul\":3941:4020   */\n      tag_371\n      tag_312\n      jump\t// in\n    tag_371:\n        /* \"#utility.yul\":3894:4022   */\n    tag_370:\n        /* \"#utility.yul\":3448:4028   */\n      swap3\n      pop\n      swap3\n      swap1\n      pop\n      jump\t// out\n        /* \"#utility.yul\":4050:4440   */\n    tag_372:\n        /* \"#utility.yul\":4131:4136   */\n      0x00\n        /* \"#utility.yul\":4180:4183   */\n      dup3\n        /* \"#utility.yul\":4173:4177   */\n      0x1f\n        /* \"#utility.yul\":4165:4171   */\n      dup4\n        /* \"#utility.yul\":4161:4178   */\n      add\n        /* \"#utility.yul\":4157:4184   */\n      slt\n        /* \"#utility.yul\":4147:4269   */\n      tag_374\n      jumpi\n        /* \"#utility.yul\":4188:4267   */\n      tag_375\n      tag_330\n      jump\t// in\n    tag_375:\n        /* \"#utility.yul\":4147:4269   */\n    tag_374:\n        /* \"#utility.yul\":4305:4311   */\n      dup2\n        /* \"#utility.yul\":4292:4312   */\n      calldataload\n        /* \"#utility.yul\":4330:4434   */\n      tag_376\n        /* \"#utility.yul\":4430:4433   */\n      dup5\n        /* \"#utility.yul\":4422:4428   */\n      dup3\n        /* \"#utility.yul\":4415:4419   */\n      0x20\n        /* \"#utility.yul\":4407:4413   */\n      dup7\n        /* \"#utility.yul\":4403:4420   */\n      add\n        /* \"#utility.yul\":4330:4434   */\n      tag_318\n      jump\t// in\n    tag_376:\n        /* \"#utility.yul\":4321:4434   */\n      swap2\n      pop\n        /* \"#utility.yul\":4137:4440   */\n      pop\n        /* \"#utility.yul\":4050:4440   */\n      swap3\n      swap2\n      pop\n      pop\n      jump\t// out\n        /* \"#utility.yul\":4463:4833   */\n    tag_377:\n        /* \"#utility.yul\":4534:4539   */\n      0x00\n        /* \"#utility.yul\":4583:4586   */\n      dup3\n        /* \"#utility.yul\":4576:4580   */\n      0x1f\n        /* \"#utility.yul\":4568:4574   */\n      dup4\n        /* \"#utility.yul\":4564:4581   */\n      add\n        /* \"#utility.yul\":4560:4587   */\n      slt\n        /* \"#utility.yul\":4550:4672   */\n      tag_379\n      jumpi\n        /* \"#utility.yul\":4591:4670   */\n      tag_380\n      tag_330\n      jump\t// in\n    tag_380:\n        /* \"#utility.yul\":4550:4672   */\n    tag_379:\n        /* \"#utility.yul\":4708:4714   */\n      dup2\n        /* \"#utility.yul\":4695:4715   */\n      calldataload\n        /* \"#utility.yul\":4733:4827   */\n      tag_381\n        /* \"#utility.yul\":4823:4826   */\n      dup5\n        /* \"#utility.yul\":4815:4821   */\n      dup3\n        /* \"#utility.yul\":4808:4812   */\n      0x20\n        /* \"#utility.yul\":4800:4806   */\n      dup7\n        /* \"#utility.yul\":4796:4813   */\n      add\n        /* \"#utility.yul\":4733:4827   */\n      tag_333\n      jump\t// in\n    tag_381:\n        /* \"#utility.yul\":4724:4827   */\n      swap2\n      pop\n        /* \"#utility.yul\":4540:4833   */\n      pop\n        /* \"#utility.yul\":4463:4833   */\n      swap3\n      swap2\n      pop\n      pop\n      jump\t// out\n        /* \"#utility.yul\":4853:5193   */\n    tag_332:\n        /* \"#utility.yul\":4909:4914   */\n      0x00\n        /* \"#utility.yul\":4958:4961   */\n      dup3\n        /* \"#utility.yul\":4951:4955   */\n      0x1f\n        /* \"#utility.yul\":4943:4949   */\n      dup4\n        /* \"#utility.yul\":4939:4956   */\n      add\n        /* \"#utility.yul\":4935:4962   */\n      slt\n        /* \"#utility.yul\":4925:5047   */\n      tag_383\n      jumpi\n        /* \"#utility.yul\":4966:5045   */\n      tag_384\n      tag_330\n      jump\t// in\n    tag_384:\n        /* \"#utility.yul\":4925:5047   */\n    tag_383:\n        /* \"#utility.yul\":5083:5089   */\n      dup2\n        /* \"#utility.yul\":5070:5090   */\n      calldataload\n        /* \"#utility.yul\":5108:5187   */\n      tag_385\n        /* \"#utility.yul\":5183:5186   */\n      dup5\n        /* \"#utility.yul\":5175:5181   */\n      dup3\n        /* \"#utility.yul\":5168:5172   */\n      0x20\n        /* \"#utility.yul\":5160:5166   */\n      dup7\n        /* \"#utility.yul\":5156:5173   */\n      add\n        /* \"#utility.yul\":5108:5187   */\n      tag_345\n      jump\t// in\n    tag_385:\n        /* \"#utility.yul\":5099:5187   */\n      swap2\n      pop\n        /* \"#utility.yul\":4915:5193   */\n      pop\n        /* \"#utility.yul\":4853:5193   */\n      swap3\n      swap2\n      pop\n      pop\n      jump\t// out\n        /* \"#utility.yul\":5199:5338   */\n    tag_344:\n        /* \"#utility.yul\":5245:5250   */\n      0x00\n        /* \"#utility.yul\":5283:5289   */\n      dup2\n        /* \"#utility.yul\":5270:5290   */\n      calldataload\n        /* \"#utility.yul\":5261:5290   */\n      swap1\n      pop\n        /* \"#utility.yul\":5299:5332   */\n      tag_387\n        /* \"#utility.yul\":5326:5331   */\n      dup2\n        /* \"#utility.yul\":5299:5332   */\n      tag_388\n      jump\t// in\n    tag_387:\n        /* \"#utility.yul\":5199:5338   */\n      swap3\n      swap2\n      pop\n      pop\n      jump\t// out\n        /* \"#utility.yul\":5344:5479   */\n    tag_389:\n        /* \"#utility.yul\":5388:5393   */\n      0x00\n        /* \"#utility.yul\":5426:5432   */\n      dup2\n        /* \"#utility.yul\":5413:5433   */\n      calldataload\n        /* \"#utility.yul\":5404:5433   */\n      swap1\n      pop\n        /* \"#utility.yul\":5442:5473   */\n      tag_391\n        /* \"#utility.yul\":5467:5472   */\n      dup2\n        /* \"#utility.yul\":5442:5473   */\n      tag_392\n      jump\t// in\n    tag_391:\n        /* \"#utility.yul\":5344:5479   */\n      swap3\n      swap2\n      pop\n      pop\n      jump\t// out\n        /* \"#utility.yul\":5485:5814   */\n    tag_42:\n        /* \"#utility.yul\":5544:5550   */\n      0x00\n        /* \"#utility.yul\":5593:5595   */\n      0x20\n        /* \"#utility.yul\":5581:5590   */\n      dup3\n        /* \"#utility.yul\":5572:5579   */\n      dup5\n        /* \"#utility.yul\":5568:5591   */\n      sub\n        /* \"#utility.yul\":5564:5596   */\n      slt\n        /* \"#utility.yul\":5561:5680   */\n      iszero\n      tag_394\n      jumpi\n        /* \"#utility.yul\":5599:5678   */\n      tag_395\n      tag_396\n      jump\t// in\n    tag_395:\n        /* \"#utility.yul\":5561:5680   */\n    tag_394:\n        /* \"#utility.yul\":5719:5720   */\n      0x00\n        /* \"#utility.yul\":5744:5797   */\n      tag_397\n        /* \"#utility.yul\":5789:5796   */\n      dup5\n        /* \"#utility.yul\":5780:5786   */\n      dup3\n        /* \"#utility.yul\":5769:5778   */\n      dup6\n        /* \"#utility.yul\":5765:5787   */\n      add\n        /* \"#utility.yul\":5744:5797   */\n      tag_317\n      jump\t// in\n    tag_397:\n        /* \"#utility.yul\":5734:5797   */\n      swap2\n      pop\n        /* \"#utility.yul\":5690:5807   */\n      pop\n        /* \"#utility.yul\":5485:5814   */\n      swap3\n      swap2\n      pop\n      pop\n      jump\t// out\n        /* \"#utility.yul\":5820:6149   */\n    tag_16:\n        /* \"#utility.yul\":5879:5885   */\n      0x00\n        /* \"#utility.yul\":5928:5930   */\n      0x20\n        /* \"#utility.yul\":5916:5925   */\n      dup3\n        /* \"#utility.yul\":5907:5914   */\n      dup5\n        /* \"#utility.yul\":5903:5926   */\n      sub\n        /* \"#utility.yul\":5899:5931   */\n      slt\n        /* \"#utility.yul\":5896:6015   */\n      iszero\n      tag_399\n      jumpi\n        /* \"#utility.yul\":5934:6013   */\n      tag_400\n      tag_396\n      jump\t// in\n    tag_400:\n        /* \"#utility.yul\":5896:6015   */\n    tag_399:\n        /* \"#utility.yul\":6054:6055   */\n      0x00\n        /* \"#utility.yul\":6079:6132   */\n      tag_401\n        /* \"#utility.yul\":6124:6131   */\n      dup5\n        /* \"#utility.yul\":6115:6121   */\n      dup3\n        /* \"#utility.yul\":6104:6113   */\n      dup6\n        /* \"#utility.yul\":6100:6122   */\n      add\n        /* \"#utility.yul\":6079:6132   */\n      tag_344\n      jump\t// in\n    tag_401:\n        /* \"#utility.yul\":6069:6132   */\n      swap2\n      pop\n        /* \"#utility.yul\":6025:6142   */\n      pop\n        /* \"#utility.yul\":5820:6149   */\n      swap3\n      swap2\n      pop\n      pop\n      jump\t// out\n        /* \"#utility.yul\":6155:7360   */\n    tag_38:\n        /* \"#utility.yul\":6301:6307   */\n      0x00\n        /* \"#utility.yul\":6309:6315   */\n      dup1\n        /* \"#utility.yul\":6317:6323   */\n      0x00\n        /* \"#utility.yul\":6325:6331   */\n      dup1\n        /* \"#utility.yul\":6374:6377   */\n      0x80\n        /* \"#utility.yul\":6362:6371   */\n      dup6\n        /* \"#utility.yul\":6353:6360   */\n      dup8\n        /* \"#utility.yul\":6349:6372   */\n      sub\n        /* \"#utility.yul\":6345:6378   */\n      slt\n        /* \"#utility.yul\":6342:6462   */\n      iszero\n      tag_403\n      jumpi\n        /* \"#utility.yul\":6381:6460   */\n      tag_404\n      tag_396\n      jump\t// in\n    tag_404:\n        /* \"#utility.yul\":6342:6462   */\n    tag_403:\n        /* \"#utility.yul\":6501:6502   */\n      0x00\n        /* \"#utility.yul\":6526:6579   */\n      tag_405\n        /* \"#utility.yul\":6571:6578   */\n      dup8\n        /* \"#utility.yul\":6562:6568   */\n      dup3\n        /* \"#utility.yul\":6551:6560   */\n      dup9\n        /* \"#utility.yul\":6547:6569   */\n      add\n        /* \"#utility.yul\":6526:6579   */\n      tag_344\n      jump\t// in\n    tag_405:\n        /* \"#utility.yul\":6516:6579   */\n      swap5\n      pop\n        /* \"#utility.yul\":6472:6589   */\n      pop\n        /* \"#utility.yul\":6628:6630   */\n      0x20\n        /* \"#utility.yul\":6654:6707   */\n      tag_406\n        /* \"#utility.yul\":6699:6706   */\n      dup8\n        /* \"#utility.yul\":6690:6696   */\n      dup3\n        /* \"#utility.yul\":6679:6688   */\n      dup9\n        /* \"#utility.yul\":6675:6697   */\n      add\n        /* \"#utility.yul\":6654:6707   */\n      tag_317\n      jump\t// in\n    tag_406:\n        /* \"#utility.yul\":6644:6707   */\n      swap4\n      pop\n        /* \"#utility.yul\":6599:6717   */\n      pop\n        /* \"#utility.yul\":6784:6786   */\n      0x40\n        /* \"#utility.yul\":6773:6782   */\n      dup6\n        /* \"#utility.yul\":6769:6787   */\n      add\n        /* \"#utility.yul\":6756:6788   */\n      calldataload\n        /* \"#utility.yul\":6815:6833   */\n      0xffffffffffffffff\n        /* \"#utility.yul\":6807:6813   */\n      dup2\n        /* \"#utility.yul\":6804:6834   */\n      gt\n        /* \"#utility.yul\":6801:6918   */\n      iszero\n      tag_407\n      jumpi\n        /* \"#utility.yul\":6837:6916   */\n      tag_408\n      tag_409\n      jump\t// in\n    tag_408:\n        /* \"#utility.yul\":6801:6918   */\n    tag_407:\n        /* \"#utility.yul\":6942:7030   */\n      tag_410\n        /* \"#utility.yul\":7022:7029   */\n      dup8\n        /* \"#utility.yul\":7013:7019   */\n      dup3\n        /* \"#utility.yul\":7002:7011   */\n      dup9\n        /* \"#utility.yul\":6998:7020   */\n      add\n        /* \"#utility.yul\":6942:7030   */\n      tag_372\n      jump\t// in\n    tag_410:\n        /* \"#utility.yul\":6932:7030   */\n      swap3\n      pop\n        /* \"#utility.yul\":6727:7040   */\n      pop\n        /* \"#utility.yul\":7107:7109   */\n      0x60\n        /* \"#utility.yul\":7096:7105   */\n      dup6\n        /* \"#utility.yul\":7092:7110   */\n      add\n        /* \"#utility.yul\":7079:7111   */\n      calldataload\n        /* \"#utility.yul\":7138:7156   */\n      0xffffffffffffffff\n        /* \"#utility.yul\":7130:7136   */\n      dup2\n        /* \"#utility.yul\":7127:7157   */\n      gt\n        /* \"#utility.yul\":7124:7241   */\n      iszero\n      tag_411\n      jumpi\n        /* \"#utility.yul\":7160:7239   */\n      tag_412\n      tag_409\n      jump\t// in\n    tag_412:\n        /* \"#utility.yul\":7124:7241   */\n    tag_411:\n        /* \"#utility.yul\":7265:7343   */\n      tag_413\n        /* \"#utility.yul\":7335:7342   */\n      dup8\n        /* \"#utility.yul\":7326:7332   */\n      dup3\n        /* \"#utility.yul\":7315:7324   */\n      dup9\n        /* \"#utility.yul\":7311:7333   */\n      add\n        /* \"#utility.yul\":7265:7343   */\n      tag_377\n      jump\t// in\n    tag_413:\n        /* \"#utility.yul\":7255:7343   */\n      swap2\n      pop\n        /* \"#utility.yul\":7050:7353   */\n      pop\n        /* \"#utility.yul\":6155:7360   */\n      swap3\n      swap6\n      swap2\n      swap5\n      pop\n      swap3\n      pop\n      jump\t// out\n        /* \"#utility.yul\":7366:9355   */\n    tag_34:\n        /* \"#utility.yul\":7560:7566   */\n      0x00\n        /* \"#utility.yul\":7568:7574   */\n      dup1\n        /* \"#utility.yul\":7576:7582   */\n      0x00\n        /* \"#utility.yul\":7584:7590   */\n      dup1\n        /* \"#utility.yul\":7592:7598   */\n      0x00\n        /* \"#utility.yul\":7600:7606   */\n      dup1\n        /* \"#utility.yul\":7608:7614   */\n      0x00\n        /* \"#utility.yul\":7616:7622   */\n      dup1\n        /* \"#utility.yul\":7624:7630   */\n      0x00\n        /* \"#utility.yul\":7673:7676   */\n      0x0100\n        /* \"#utility.yul\":7661:7670   */\n      dup11\n        /* \"#utility.yul\":7652:7659   */\n      dup13\n        /* \"#utility.yul\":7648:7671   */\n      sub\n        /* \"#utility.yul\":7644:7677   */\n      slt\n        /* \"#utility.yul\":7641:7761   */\n      iszero\n      tag_415\n      jumpi\n        /* \"#utility.yul\":7680:7759   */\n      tag_416\n      tag_396\n      jump\t// in\n    tag_416:\n        /* \"#utility.yul\":7641:7761   */\n    tag_415:\n        /* \"#utility.yul\":7800:7801   */\n      0x00\n        /* \"#utility.yul\":7825:7876   */\n      tag_417\n        /* \"#utility.yul\":7868:7875   */\n      dup13\n        /* \"#utility.yul\":7859:7865   */\n      dup3\n        /* \"#utility.yul\":7848:7857   */\n      dup14\n        /* \"#utility.yul\":7844:7866   */\n      add\n        /* \"#utility.yul\":7825:7876   */\n      tag_389\n      jump\t// in\n    tag_417:\n        /* \"#utility.yul\":7815:7876   */\n      swap10\n      pop\n        /* \"#utility.yul\":7771:7886   */\n      pop\n        /* \"#utility.yul\":7953:7955   */\n      0x20\n        /* \"#utility.yul\":7942:7951   */\n      dup11\n        /* \"#utility.yul\":7938:7956   */\n      add\n        /* \"#utility.yul\":7925:7957   */\n      calldataload\n        /* \"#utility.yul\":7984:8002   */\n      0xffffffffffffffff\n        /* \"#utility.yul\":7976:7982   */\n      dup2\n        /* \"#utility.yul\":7973:8003   */\n      gt\n        /* \"#utility.yul\":7970:8087   */\n      iszero\n      tag_418\n      jumpi\n        /* \"#utility.yul\":8006:8085   */\n      tag_419\n      tag_409\n      jump\t// in\n    tag_419:\n        /* \"#utility.yul\":7970:8087   */\n    tag_418:\n        /* \"#utility.yul\":8111:8189   */\n      tag_420\n        /* \"#utility.yul\":8181:8188   */\n      dup13\n        /* \"#utility.yul\":8172:8178   */\n      dup3\n        /* \"#utility.yul\":8161:8170   */\n      dup14\n        /* \"#utility.yul\":8157:8179   */\n      add\n        /* \"#utility.yul\":8111:8189   */\n      tag_358\n      jump\t// in\n    tag_420:\n        /* \"#utility.yul\":8101:8189   */\n      swap9\n      pop\n        /* \"#utility.yul\":7896:8199   */\n      pop\n        /* \"#utility.yul\":8238:8240   */\n      0x40\n        /* \"#utility.yul\":8264:8317   */\n      tag_421\n        /* \"#utility.yul\":8309:8316   */\n      dup13\n        /* \"#utility.yul\":8300:8306   */\n      dup3\n        /* \"#utility.yul\":8289:8298   */\n      dup14\n        /* \"#utility.yul\":8285:8307   */\n      add\n        /* \"#utility.yul\":8264:8317   */\n      tag_317\n      jump\t// in\n    tag_421:\n        /* \"#utility.yul\":8254:8317   */\n      swap8\n      pop\n        /* \"#utility.yul\":8209:8327   */\n      pop\n        /* \"#utility.yul\":8366:8368   */\n      0x60\n        /* \"#utility.yul\":8392:8445   */\n      tag_422\n        /* \"#utility.yul\":8437:8444   */\n      dup13\n        /* \"#utility.yul\":8428:8434   */\n      dup3\n        /* \"#utility.yul\":8417:8426   */\n      dup14\n        /* \"#utility.yul\":8413:8435   */\n      add\n        /* \"#utility.yul\":8392:8445   */\n      tag_344\n      jump\t// in\n    tag_422:\n        /* \"#utility.yul\":8382:8445   */\n      swap7\n      pop\n        /* \"#utility.yul\":8337:8455   */\n      pop\n        /* \"#utility.yul\":8494:8497   */\n      0x80\n        /* \"#utility.yul\":8521:8574   */\n      tag_423\n        /* \"#utility.yul\":8566:8573   */\n      dup13\n        /* \"#utility.yul\":8557:8563   */\n      dup3\n        /* \"#utility.yul\":8546:8555   */\n      dup14\n        /* \"#utility.yul\":8542:8564   */\n      add\n        /* \"#utility.yul\":8521:8574   */\n      tag_344\n      jump\t// in\n    tag_423:\n        /* \"#utility.yul\":8511:8574   */\n      swap6\n      pop\n        /* \"#utility.yul\":8465:8584   */\n      pop\n        /* \"#utility.yul\":8651:8654   */\n      0xa0\n        /* \"#utility.yul\":8640:8649   */\n      dup11\n        /* \"#utility.yul\":8636:8655   */\n      add\n        /* \"#utility.yul\":8623:8656   */\n      calldataload\n        /* \"#utility.yul\":8683:8701   */\n      0xffffffffffffffff\n        /* \"#utility.yul\":8675:8681   */\n      dup2\n        /* \"#utility.yul\":8672:8702   */\n      gt\n        /* \"#utility.yul\":8669:8786   */\n      iszero\n      tag_424\n      jumpi\n        /* \"#utility.yul\":8705:8784   */\n      tag_425\n      tag_409\n      jump\t// in\n    tag_425:\n        /* \"#utility.yul\":8669:8786   */\n    tag_424:\n        /* \"#utility.yul\":8810:8873   */\n      tag_426\n        /* \"#utility.yul\":8865:8872   */\n      dup13\n        /* \"#utility.yul\":8856:8862   */\n      dup3\n        /* \"#utility.yul\":8845:8854   */\n      dup14\n        /* \"#utility.yul\":8841:8863   */\n      add\n        /* \"#utility.yul\":8810:8873   */\n      tag_332\n      jump\t// in\n    tag_426:\n        /* \"#utility.yul\":8800:8873   */\n      swap5\n      pop\n        /* \"#utility.yul\":8594:8883   */\n      pop\n        /* \"#utility.yul\":8950:8953   */\n      0xc0\n        /* \"#utility.yul\":8939:8948   */\n      dup11\n        /* \"#utility.yul\":8935:8954   */\n      add\n        /* \"#utility.yul\":8922:8955   */\n      calldataload\n        /* \"#utility.yul\":8982:9000   */\n      0xffffffffffffffff\n        /* \"#utility.yul\":8974:8980   */\n      dup2\n        /* \"#utility.yul\":8971:9001   */\n      gt\n        /* \"#utility.yul\":8968:9085   */\n      iszero\n      tag_427\n      jumpi\n        /* \"#utility.yul\":9004:9083   */\n      tag_428\n      tag_409\n      jump\t// in\n    tag_428:\n        /* \"#utility.yul\":8968:9085   */\n    tag_427:\n        /* \"#utility.yul\":9117:9209   */\n      tag_429\n        /* \"#utility.yul\":9201:9208   */\n      dup13\n        /* \"#utility.yul\":9192:9198   */\n      dup3\n        /* \"#utility.yul\":9181:9190   */\n      dup14\n        /* \"#utility.yul\":9177:9199   */\n      add\n        /* \"#utility.yul\":9117:9209   */\n      tag_363\n      jump\t// in\n    tag_429:\n        /* \"#utility.yul\":9099:9209   */\n      swap4\n      pop\n      swap4\n      pop\n        /* \"#utility.yul\":8893:9219   */\n      pop\n        /* \"#utility.yul\":9258:9261   */\n      0xe0\n        /* \"#utility.yul\":9285:9338   */\n      tag_430\n        /* \"#utility.yul\":9330:9337   */\n      dup13\n        /* \"#utility.yul\":9321:9327   */\n      dup3\n        /* \"#utility.yul\":9310:9319   */\n      dup14\n        /* \"#utility.yul\":9306:9328   */\n      add\n        /* \"#utility.yul\":9285:9338   */\n      tag_344\n      jump\t// in\n    tag_430:\n        /* \"#utility.yul\":9275:9338   */\n      swap2\n      pop\n        /* \"#utility.yul\":9229:9348   */\n      pop\n        /* \"#utility.yul\":7366:9355   */\n      swap3\n      swap6\n      swap9\n      pop\n      swap3\n      swap6\n      swap9\n      pop\n      swap3\n      swap6\n      swap9\n      jump\t// out\n        /* \"#utility.yul\":9361:9540   */\n    tag_431:\n        /* \"#utility.yul\":9430:9440   */\n      0x00\n        /* \"#utility.yul\":9451:9497   */\n      tag_433\n        /* \"#utility.yul\":9493:9496   */\n      dup4\n        /* \"#utility.yul\":9485:9491   */\n      dup4\n        /* \"#utility.yul\":9451:9497   */\n      tag_434\n      jump\t// in\n    tag_433:\n        /* \"#utility.yul\":9529:9533   */\n      0x20\n        /* \"#utility.yul\":9524:9527   */\n      dup4\n        /* \"#utility.yul\":9520:9534   */\n      add\n        /* \"#utility.yul\":9506:9534   */\n      swap1\n      pop\n        /* \"#utility.yul\":9361:9540   */\n      swap3\n      swap2\n      pop\n      pop\n      jump\t// out\n        /* \"#utility.yul\":9546:9762   */\n    tag_435:\n        /* \"#utility.yul\":9645:9655   */\n      0x00\n        /* \"#utility.yul\":9680:9756   */\n      tag_437\n        /* \"#utility.yul\":9752:9755   */\n      dup5\n        /* \"#utility.yul\":9744:9750   */\n      dup5\n        /* \"#utility.yul\":9736:9742   */\n      dup5\n        /* \"#utility.yul\":9680:9756   */\n      tag_438\n      jump\t// in\n    tag_437:\n        /* \"#utility.yul\":9666:9756   */\n      swap1\n      pop\n        /* \"#utility.yul\":9546:9762   */\n      swap4\n      swap3\n      pop\n      pop\n      pop\n      jump\t// out\n        /* \"#utility.yul\":9768:9876   */\n    tag_434:\n        /* \"#utility.yul\":9845:9869   */\n      tag_440\n        /* \"#utility.yul\":9863:9868   */\n      dup2\n        /* \"#utility.yul\":9845:9869   */\n      tag_441\n      jump\t// in\n    tag_440:\n        /* \"#utility.yul\":9840:9843   */\n      dup3\n        /* \"#utility.yul\":9833:9870   */\n      mstore\n        /* \"#utility.yul\":9768:9876   */\n      pop\n      pop\n      jump\t// out\n        /* \"#utility.yul\":9882:10000   */\n    tag_442:\n        /* \"#utility.yul\":9969:9993   */\n      tag_444\n        /* \"#utility.yul\":9987:9992   */\n      dup2\n        /* \"#utility.yul\":9969:9993   */\n      tag_441\n      jump\t// in\n    tag_444:\n        /* \"#utility.yul\":9964:9967   */\n      dup3\n        /* \"#utility.yul\":9957:9994   */\n      mstore\n        /* \"#utility.yul\":9882:10000   */\n      pop\n      pop\n      jump\t// out\n        /* \"#utility.yul\":10036:10768   */\n    tag_445:\n        /* \"#utility.yul\":10155:10158   */\n      0x00\n        /* \"#utility.yul\":10184:10238   */\n      tag_447\n        /* \"#utility.yul\":10232:10237   */\n      dup3\n        /* \"#utility.yul\":10184:10238   */\n      tag_448\n      jump\t// in\n    tag_447:\n        /* \"#utility.yul\":10254:10340   */\n      tag_449\n        /* \"#utility.yul\":10333:10339   */\n      dup2\n        /* \"#utility.yul\":10328:10331   */\n      dup6\n        /* \"#utility.yul\":10254:10340   */\n      tag_450\n      jump\t// in\n    tag_449:\n        /* \"#utility.yul\":10247:10340   */\n      swap4\n      pop\n        /* \"#utility.yul\":10364:10420   */\n      tag_451\n        /* \"#utility.yul\":10414:10419   */\n      dup4\n        /* \"#utility.yul\":10364:10420   */\n      tag_452\n      jump\t// in\n    tag_451:\n        /* \"#utility.yul\":10443:10450   */\n      dup1\n        /* \"#utility.yul\":10474:10475   */\n      0x00\n        /* \"#utility.yul\":10459:10743   */\n    tag_453:\n        /* \"#utility.yul\":10484:10490   */\n      dup4\n        /* \"#utility.yul\":10481:10482   */\n      dup2\n        /* \"#utility.yul\":10478:10491   */\n      lt\n        /* \"#utility.yul\":10459:10743   */\n      iszero\n      tag_455\n      jumpi\n        /* \"#utility.yul\":10560:10566   */\n      dup2\n        /* \"#utility.yul\":10554:10567   */\n      mload\n        /* \"#utility.yul\":10587:10650   */\n      tag_456\n        /* \"#utility.yul\":10646:10649   */\n      dup9\n        /* \"#utility.yul\":10631:10644   */\n      dup3\n        /* \"#utility.yul\":10587:10650   */\n      tag_431\n      jump\t// in\n    tag_456:\n        /* \"#utility.yul\":10580:10650   */\n      swap8\n      pop\n        /* \"#utility.yul\":10673:10733   */\n      tag_457\n        /* \"#utility.yul\":10726:10732   */\n      dup4\n        /* \"#utility.yul\":10673:10733   */\n      tag_458\n      jump\t// in\n    tag_457:\n        /* \"#utility.yul\":10663:10733   */\n      swap3\n      pop\n        /* \"#utility.yul\":10519:10743   */\n      pop\n        /* \"#utility.yul\":10506:10507   */\n      0x01\n        /* \"#utility.yul\":10503:10504   */\n      dup2\n        /* \"#utility.yul\":10499:10508   */\n      add\n        /* \"#utility.yul\":10494:10508   */\n      swap1\n      pop\n        /* \"#utility.yul\":10459:10743   */\n      jump(tag_453)\n    tag_455:\n        /* \"#utility.yul\":10463:10477   */\n      pop\n        /* \"#utility.yul\":10759:10762   */\n      dup6\n        /* \"#utility.yul\":10752:10762   */\n      swap4\n      pop\n        /* \"#utility.yul\":10160:10768   */\n      pop\n      pop\n      pop\n        /* \"#utility.yul\":10036:10768   */\n      swap3\n      swap2\n      pop\n      pop\n      jump\t// out\n        /* \"#utility.yul\":10802:11800   */\n    tag_459:\n        /* \"#utility.yul\":10953:10956   */\n      0x00\n        /* \"#utility.yul\":10976:11072   */\n      tag_461\n        /* \"#utility.yul\":11065:11071   */\n      dup4\n        /* \"#utility.yul\":11060:11063   */\n      dup6\n        /* \"#utility.yul\":10976:11072   */\n      tag_462\n      jump\t// in\n    tag_461:\n        /* \"#utility.yul\":10969:11072   */\n      swap4\n      pop\n        /* \"#utility.yul\":11098:11101   */\n      dup4\n        /* \"#utility.yul\":11143:11147   */\n      0x20\n        /* \"#utility.yul\":11135:11141   */\n      dup5\n        /* \"#utility.yul\":11131:11148   */\n      mul\n        /* \"#utility.yul\":11126:11129   */\n      dup6\n        /* \"#utility.yul\":11122:11149   */\n      add\n        /* \"#utility.yul\":11173:11243   */\n      tag_463\n        /* \"#utility.yul\":11237:11242   */\n      dup5\n        /* \"#utility.yul\":11173:11243   */\n      tag_464\n      jump\t// in\n    tag_463:\n        /* \"#utility.yul\":11266:11273   */\n      dup1\n        /* \"#utility.yul\":11297:11298   */\n      0x00\n        /* \"#utility.yul\":11282:11755   */\n    tag_465:\n        /* \"#utility.yul\":11307:11313   */\n      dup8\n        /* \"#utility.yul\":11304:11305   */\n      dup2\n        /* \"#utility.yul\":11301:11314   */\n      lt\n        /* \"#utility.yul\":11282:11755   */\n      iszero\n      tag_467\n      jumpi\n        /* \"#utility.yul\":11378:11387   */\n      dup5\n        /* \"#utility.yul\":11372:11376   */\n      dup5\n        /* \"#utility.yul\":11368:11388   */\n      sub\n        /* \"#utility.yul\":11363:11366   */\n      dup10\n        /* \"#utility.yul\":11356:11389   */\n      mstore\n        /* \"#utility.yul\":11438:11492   */\n      tag_468\n        /* \"#utility.yul\":11485:11491   */\n      dup3\n        /* \"#utility.yul\":11476:11483   */\n      dup5\n        /* \"#utility.yul\":11438:11492   */\n      tag_469\n      jump\t// in\n    tag_468:\n        /* \"#utility.yul\":11513:11614   */\n      tag_470\n        /* \"#utility.yul\":11609:11613   */\n      dup7\n        /* \"#utility.yul\":11594:11607   */\n      dup3\n        /* \"#utility.yul\":11579:11592   */\n      dup5\n        /* \"#utility.yul\":11513:11614   */\n      tag_435\n      jump\t// in\n    tag_470:\n        /* \"#utility.yul\":11505:11614   */\n      swap6\n      pop\n        /* \"#utility.yul\":11637:11711   */\n      tag_471\n        /* \"#utility.yul\":11704:11710   */\n      dup5\n        /* \"#utility.yul\":11637:11711   */\n      tag_472\n      jump\t// in\n    tag_471:\n        /* \"#utility.yul\":11627:11711   */\n      swap4\n      pop\n        /* \"#utility.yul\":11740:11744   */\n      0x20\n        /* \"#utility.yul\":11735:11738   */\n      dup12\n        /* \"#utility.yul\":11731:11745   */\n      add\n        /* \"#utility.yul\":11724:11745   */\n      swap11\n      pop\n        /* \"#utility.yul\":11342:11755   */\n      pop\n      pop\n        /* \"#utility.yul\":11329:11330   */\n      0x01\n        /* \"#utility.yul\":11326:11327   */\n      dup2\n        /* \"#utility.yul\":11322:11331   */\n      add\n        /* \"#utility.yul\":11317:11331   */\n      swap1\n      pop\n        /* \"#utility.yul\":11282:11755   */\n      jump(tag_465)\n    tag_467:\n        /* \"#utility.yul\":11286:11300   */\n      pop\n        /* \"#utility.yul\":11771:11775   */\n      dup3\n        /* \"#utility.yul\":11764:11775   */\n      swap8\n      pop\n        /* \"#utility.yul\":11791:11794   */\n      dup8\n        /* \"#utility.yul\":11784:11794   */\n      swap5\n      pop\n        /* \"#utility.yul\":10958:11800   */\n      pop\n      pop\n      pop\n      pop\n        /* \"#utility.yul\":10802:11800   */\n      swap4\n      swap3\n      pop\n      pop\n      pop\n      jump\t// out\n        /* \"#utility.yul\":11806:11915   */\n    tag_473:\n        /* \"#utility.yul\":11887:11908   */\n      tag_475\n        /* \"#utility.yul\":11902:11907   */\n      dup2\n        /* \"#utility.yul\":11887:11908   */\n      tag_476\n      jump\t// in\n    tag_475:\n        /* \"#utility.yul\":11882:11885   */\n      dup3\n        /* \"#utility.yul\":11875:11909   */\n      mstore\n        /* \"#utility.yul\":11806:11915   */\n      pop\n      pop\n      jump\t// out\n        /* \"#utility.yul\":11945:12229   */\n    tag_438:\n        /* \"#utility.yul\":12033:12036   */\n      0x00\n        /* \"#utility.yul\":12054:12115   */\n      tag_478\n        /* \"#utility.yul\":12108:12114   */\n      dup4\n        /* \"#utility.yul\":12103:12106   */\n      dup6\n        /* \"#utility.yul\":12054:12115   */\n      tag_479\n      jump\t// in\n    tag_478:\n        /* \"#utility.yul\":12047:12115   */\n      swap4\n      pop\n        /* \"#utility.yul\":12125:12168   */\n      tag_480\n        /* \"#utility.yul\":12161:12167   */\n      dup4\n        /* \"#utility.yul\":12156:12159   */\n      dup6\n        /* \"#utility.yul\":12149:12154   */\n      dup5\n        /* \"#utility.yul\":12125:12168   */\n      tag_354\n      jump\t// in\n    tag_480:\n        /* \"#utility.yul\":12193:12222   */\n      tag_481\n        /* \"#utility.yul\":12215:12221   */\n      dup4\n        /* \"#utility.yul\":12193:12222   */\n      tag_482\n      jump\t// in\n    tag_481:\n        /* \"#utility.yul\":12188:12191   */\n      dup5\n        /* \"#utility.yul\":12184:12223   */\n      add\n        /* \"#utility.yul\":12177:12223   */\n      swap1\n      pop\n        /* \"#utility.yul\":11945:12229   */\n      swap4\n      swap3\n      pop\n      pop\n      pop\n      jump\t// out\n        /* \"#utility.yul\":12259:12576   */\n    tag_483:\n        /* \"#utility.yul\":12375:12378   */\n      0x00\n        /* \"#utility.yul\":12396:12485   */\n      tag_485\n        /* \"#utility.yul\":12478:12484   */\n      dup4\n        /* \"#utility.yul\":12473:12476   */\n      dup6\n        /* \"#utility.yul\":12396:12485   */\n      tag_486\n      jump\t// in\n    tag_485:\n        /* \"#utility.yul\":12389:12485   */\n      swap4\n      pop\n        /* \"#utility.yul\":12495:12538   */\n      tag_487\n        /* \"#utility.yul\":12531:12537   */\n      dup4\n        /* \"#utility.yul\":12526:12529   */\n      dup6\n        /* \"#utility.yul\":12519:12524   */\n      dup5\n        /* \"#utility.yul\":12495:12538   */\n      tag_354\n      jump\t// in\n    tag_487:\n        /* \"#utility.yul\":12563:12569   */\n      dup3\n        /* \"#utility.yul\":12558:12561   */\n      dup5\n        /* \"#utility.yul\":12554:12570   */\n      add\n        /* \"#utility.yul\":12547:12570   */\n      swap1\n      pop\n        /* \"#utility.yul\":12259:12576   */\n      swap4\n      swap3\n      pop\n      pop\n      pop\n      jump\t// out\n        /* \"#utility.yul\":12582:12946   */\n    tag_488:\n        /* \"#utility.yul\":12670:12673   */\n      0x00\n        /* \"#utility.yul\":12698:12737   */\n      tag_490\n        /* \"#utility.yul\":12731:12736   */\n      dup3\n        /* \"#utility.yul\":12698:12737   */\n      tag_491\n      jump\t// in\n    tag_490:\n        /* \"#utility.yul\":12753:12824   */\n      tag_492\n        /* \"#utility.yul\":12817:12823   */\n      dup2\n        /* \"#utility.yul\":12812:12815   */\n      dup6\n        /* \"#utility.yul\":12753:12824   */\n      tag_493\n      jump\t// in\n    tag_492:\n        /* \"#utility.yul\":12746:12824   */\n      swap4\n      pop\n        /* \"#utility.yul\":12833:12885   */\n      tag_494\n        /* \"#utility.yul\":12878:12884   */\n      dup2\n        /* \"#utility.yul\":12873:12876   */\n      dup6\n        /* \"#utility.yul\":12866:12870   */\n      0x20\n        /* \"#utility.yul\":12859:12864   */\n      dup7\n        /* \"#utility.yul\":12855:12871   */\n      add\n        /* \"#utility.yul\":12833:12885   */\n      tag_495\n      jump\t// in\n    tag_494:\n        /* \"#utility.yul\":12910:12939   */\n      tag_496\n        /* \"#utility.yul\":12932:12938   */\n      dup2\n        /* \"#utility.yul\":12910:12939   */\n      tag_482\n      jump\t// in\n    tag_496:\n        /* \"#utility.yul\":12905:12908   */\n      dup5\n        /* \"#utility.yul\":12901:12940   */\n      add\n        /* \"#utility.yul\":12894:12940   */\n      swap2\n      pop\n        /* \"#utility.yul\":12674:12946   */\n      pop\n        /* \"#utility.yul\":12582:12946   */\n      swap3\n      swap2\n      pop\n      pop\n      jump\t// out\n        /* \"#utility.yul\":12952:13329   */\n    tag_497:\n        /* \"#utility.yul\":13058:13061   */\n      0x00\n        /* \"#utility.yul\":13086:13125   */\n      tag_499\n        /* \"#utility.yul\":13119:13124   */\n      dup3\n        /* \"#utility.yul\":13086:13125   */\n      tag_491\n      jump\t// in\n    tag_499:\n        /* \"#utility.yul\":13141:13230   */\n      tag_500\n        /* \"#utility.yul\":13223:13229   */\n      dup2\n        /* \"#utility.yul\":13218:13221   */\n      dup6\n        /* \"#utility.yul\":13141:13230   */\n      tag_486\n      jump\t// in\n    tag_500:\n        /* \"#utility.yul\":13134:13230   */\n      swap4\n      pop\n        /* \"#utility.yul\":13239:13291   */\n      tag_501\n        /* \"#utility.yul\":13284:13290   */\n      dup2\n        /* \"#utility.yul\":13279:13282   */\n      dup6\n        /* \"#utility.yul\":13272:13276   */\n      0x20\n        /* \"#utility.yul\":13265:13270   */\n      dup7\n        /* \"#utility.yul\":13261:13277   */\n      add\n        /* \"#utility.yul\":13239:13291   */\n      tag_495\n      jump\t// in\n    tag_501:\n        /* \"#utility.yul\":13316:13322   */\n      dup1\n        /* \"#utility.yul\":13311:13314   */\n      dup5\n        /* \"#utility.yul\":13307:13323   */\n      add\n        /* \"#utility.yul\":13300:13323   */\n      swap2\n      pop\n        /* \"#utility.yul\":13062:13329   */\n      pop\n        /* \"#utility.yul\":12952:13329   */\n      swap3\n      swap2\n      pop\n      pop\n      jump\t// out\n        /* \"#utility.yul\":13359:14204   */\n    tag_502:\n        /* \"#utility.yul\":13462:13465   */\n      0x00\n        /* \"#utility.yul\":13499:13504   */\n      dup2\n        /* \"#utility.yul\":13493:13505   */\n      sload\n        /* \"#utility.yul\":13528:13564   */\n      tag_504\n        /* \"#utility.yul\":13554:13563   */\n      dup2\n        /* \"#utility.yul\":13528:13564   */\n      tag_59\n      jump\t// in\n    tag_504:\n        /* \"#utility.yul\":13580:13669   */\n      tag_505\n        /* \"#utility.yul\":13662:13668   */\n      dup2\n        /* \"#utility.yul\":13657:13660   */\n      dup7\n        /* \"#utility.yul\":13580:13669   */\n      tag_486\n      jump\t// in\n    tag_505:\n        /* \"#utility.yul\":13573:13669   */\n      swap5\n      pop\n        /* \"#utility.yul\":13700:13701   */\n      0x01\n        /* \"#utility.yul\":13689:13698   */\n      dup3\n        /* \"#utility.yul\":13685:13702   */\n      and\n        /* \"#utility.yul\":13716:13717   */\n      0x00\n        /* \"#utility.yul\":13711:13848   */\n      dup2\n      eq\n      tag_507\n      jumpi\n        /* \"#utility.yul\":13862:13863   */\n      0x01\n        /* \"#utility.yul\":13857:14198   */\n      dup2\n      eq\n      tag_508\n      jumpi\n        /* \"#utility.yul\":13678:14198   */\n      jump(tag_506)\n        /* \"#utility.yul\":13711:13848   */\n    tag_507:\n        /* \"#utility.yul\":13795:13799   */\n      0xff\n        /* \"#utility.yul\":13791:13800   */\n      not\n        /* \"#utility.yul\":13780:13789   */\n      dup4\n        /* \"#utility.yul\":13776:13801   */\n      and\n        /* \"#utility.yul\":13771:13774   */\n      dup7\n        /* \"#utility.yul\":13764:13802   */\n      mstore\n        /* \"#utility.yul\":13831:13837   */\n      dup2\n        /* \"#utility.yul\":13826:13829   */\n      dup7\n        /* \"#utility.yul\":13822:13838   */\n      add\n        /* \"#utility.yul\":13815:13838   */\n      swap4\n      pop\n        /* \"#utility.yul\":13711:13848   */\n      jump(tag_506)\n        /* \"#utility.yul\":13857:14198   */\n    tag_508:\n        /* \"#utility.yul\":13924:13962   */\n      tag_509\n        /* \"#utility.yul\":13956:13961   */\n      dup6\n        /* \"#utility.yul\":13924:13962   */\n      tag_510\n      jump\t// in\n    tag_509:\n        /* \"#utility.yul\":13984:13985   */\n      0x00\n        /* \"#utility.yul\":13998:14152   */\n    tag_511:\n        /* \"#utility.yul\":14012:14018   */\n      dup4\n        /* \"#utility.yul\":14009:14010   */\n      dup2\n        /* \"#utility.yul\":14006:14019   */\n      lt\n        /* \"#utility.yul\":13998:14152   */\n      iszero\n      tag_513\n      jumpi\n        /* \"#utility.yul\":14086:14093   */\n      dup2\n        /* \"#utility.yul\":14080:14094   */\n      sload\n        /* \"#utility.yul\":14076:14077   */\n      dup2\n        /* \"#utility.yul\":14071:14074   */\n      dup10\n        /* \"#utility.yul\":14067:14078   */\n      add\n        /* \"#utility.yul\":14060:14095   */\n      mstore\n        /* \"#utility.yul\":14136:14137   */\n      0x01\n        /* \"#utility.yul\":14127:14134   */\n      dup3\n        /* \"#utility.yul\":14123:14138   */\n      add\n        /* \"#utility.yul\":14112:14138   */\n      swap2\n      pop\n        /* \"#utility.yul\":14034:14038   */\n      0x20\n        /* \"#utility.yul\":14031:14032   */\n      dup2\n        /* \"#utility.yul\":14027:14039   */\n      add\n        /* \"#utility.yul\":14022:14039   */\n      swap1\n      pop\n        /* \"#utility.yul\":13998:14152   */\n      jump(tag_511)\n    tag_513:\n        /* \"#utility.yul\":14181:14187   */\n      dup4\n        /* \"#utility.yul\":14176:14179   */\n      dup9\n        /* \"#utility.yul\":14172:14188   */\n      add\n        /* \"#utility.yul\":14165:14188   */\n      swap6\n      pop\n        /* \"#utility.yul\":13864:14198   */\n      pop\n      pop\n        /* \"#utility.yul\":13678:14198   */\n    tag_506:\n      pop\n        /* \"#utility.yul\":13466:14204   */\n      pop\n      pop\n        /* \"#utility.yul\":13359:14204   */\n      swap3\n      swap2\n      pop\n      pop\n      jump\t// out\n        /* \"#utility.yul\":14210:14576   */\n    tag_514:\n        /* \"#utility.yul\":14352:14355   */\n      0x00\n        /* \"#utility.yul\":14373:14440   */\n      tag_516\n        /* \"#utility.yul\":14437:14439   */\n      0x12\n        /* \"#utility.yul\":14432:14435   */\n      dup4\n        /* \"#utility.yul\":14373:14440   */\n      tag_493\n      jump\t// in\n    tag_516:\n        /* \"#utility.yul\":14366:14440   */\n      swap2\n      pop\n        /* \"#utility.yul\":14449:14542   */\n      tag_517\n        /* \"#utility.yul\":14538:14541   */\n      dup3\n        /* \"#utility.yul\":14449:14542   */\n      tag_518\n      jump\t// in\n    tag_517:\n        /* \"#utility.yul\":14567:14569   */\n      0x20\n        /* \"#utility.yul\":14562:14565   */\n      dup3\n        /* \"#utility.yul\":14558:14570   */\n      add\n        /* \"#utility.yul\":14551:14570   */\n      swap1\n      pop\n        /* \"#utility.yul\":14210:14576   */\n      swap2\n      swap1\n      pop\n      jump\t// out\n        /* \"#utility.yul\":14582:14948   */\n    tag_519:\n        /* \"#utility.yul\":14724:14727   */\n      0x00\n        /* \"#utility.yul\":14745:14812   */\n      tag_521\n        /* \"#utility.yul\":14809:14811   */\n      0x2c\n        /* \"#utility.yul\":14804:14807   */\n      dup4\n        /* \"#utility.yul\":14745:14812   */\n      tag_493\n      jump\t// in\n    tag_521:\n        /* \"#utility.yul\":14738:14812   */\n      swap2\n      pop\n        /* \"#utility.yul\":14821:14914   */\n      tag_522\n        /* \"#utility.yul\":14910:14913   */\n      dup3\n        /* \"#utility.yul\":14821:14914   */\n      tag_523\n      jump\t// in\n    tag_522:\n        /* \"#utility.yul\":14939:14941   */\n      0x40\n        /* \"#utility.yul\":14934:14937   */\n      dup3\n        /* \"#utility.yul\":14930:14942   */\n      add\n        /* \"#utility.yul\":14923:14942   */\n      swap1\n      pop\n        /* \"#utility.yul\":14582:14948   */\n      swap2\n      swap1\n      pop\n      jump\t// out\n        /* \"#utility.yul\":14954:15320   */\n    tag_524:\n        /* \"#utility.yul\":15096:15099   */\n      0x00\n        /* \"#utility.yul\":15117:15184   */\n      tag_526\n        /* \"#utility.yul\":15181:15183   */\n      0x22\n        /* \"#utility.yul\":15176:15179   */\n      dup4\n        /* \"#utility.yul\":15117:15184   */\n      tag_493\n      jump\t// in\n    tag_526:\n        /* \"#utility.yul\":15110:15184   */\n      swap2\n      pop\n        /* \"#utility.yul\":15193:15286   */\n      tag_527\n        /* \"#utility.yul\":15282:15285   */\n      dup3\n        /* \"#utility.yul\":15193:15286   */\n      tag_528\n      jump\t// in\n    tag_527:\n        /* \"#utility.yul\":15311:15313   */\n      0x40\n        /* \"#utility.yul\":15306:15309   */\n      dup3\n        /* \"#utility.yul\":15302:15314   */\n      add\n        /* \"#utility.yul\":15295:15314   */\n      swap1\n      pop\n        /* \"#utility.yul\":14954:15320   */\n      swap2\n      swap1\n      pop\n      jump\t// out\n        /* \"#utility.yul\":15326:15692   */\n    tag_529:\n        /* \"#utility.yul\":15468:15471   */\n      0x00\n        /* \"#utility.yul\":15489:15556   */\n      tag_531\n        /* \"#utility.yul\":15553:15555   */\n      0x0d\n        /* \"#utility.yul\":15548:15551   */\n      dup4\n        /* \"#utility.yul\":15489:15556   */\n      tag_493\n      jump\t// in\n    tag_531:\n        /* \"#utility.yul\":15482:15556   */\n      swap2\n      pop\n        /* \"#utility.yul\":15565:15658   */\n      tag_532\n        /* \"#utility.yul\":15654:15657   */\n      dup3\n        /* \"#utility.yul\":15565:15658   */\n      tag_533\n      jump\t// in\n    tag_532:\n        /* \"#utility.yul\":15683:15685   */\n      0x20\n        /* \"#utility.yul\":15678:15681   */\n      dup3\n        /* \"#utility.yul\":15674:15686   */\n      add\n        /* \"#utility.yul\":15667:15686   */\n      swap1\n      pop\n        /* \"#utility.yul\":15326:15692   */\n      swap2\n      swap1\n      pop\n      jump\t// out\n        /* \"#utility.yul\":15698:16064   */\n    tag_534:\n        /* \"#utility.yul\":15840:15843   */\n      0x00\n        /* \"#utility.yul\":15861:15928   */\n      tag_536\n        /* \"#utility.yul\":15925:15927   */\n      0x1b\n        /* \"#utility.yul\":15920:15923   */\n      dup4\n        /* \"#utility.yul\":15861:15928   */\n      tag_493\n      jump\t// in\n    tag_536:\n        /* \"#utility.yul\":15854:15928   */\n      swap2\n      pop\n        /* \"#utility.yul\":15937:16030   */\n      tag_537\n        /* \"#utility.yul\":16026:16029   */\n      dup3\n        /* \"#utility.yul\":15937:16030   */\n      tag_538\n      jump\t// in\n    tag_537:\n        /* \"#utility.yul\":16055:16057   */\n      0x20\n        /* \"#utility.yul\":16050:16053   */\n      dup3\n        /* \"#utility.yul\":16046:16058   */\n      add\n        /* \"#utility.yul\":16039:16058   */\n      swap1\n      pop\n        /* \"#utility.yul\":15698:16064   */\n      swap2\n      swap1\n      pop\n      jump\t// out\n        /* \"#utility.yul\":16070:16436   */\n    tag_539:\n        /* \"#utility.yul\":16212:16215   */\n      0x00\n        /* \"#utility.yul\":16233:16300   */\n      tag_541\n        /* \"#utility.yul\":16297:16299   */\n      0x23\n        /* \"#utility.yul\":16292:16295   */\n      dup4\n        /* \"#utility.yul\":16233:16300   */\n      tag_493\n      jump\t// in\n    tag_541:\n        /* \"#utility.yul\":16226:16300   */\n      swap2\n      pop\n        /* \"#utility.yul\":16309:16402   */\n      tag_542\n        /* \"#utility.yul\":16398:16401   */\n      dup3\n        /* \"#utility.yul\":16309:16402   */\n      tag_543\n      jump\t// in\n    tag_542:\n        /* \"#utility.yul\":16427:16429   */\n      0x40\n        /* \"#utility.yul\":16422:16425   */\n      dup3\n        /* \"#utility.yul\":16418:16430   */\n      add\n        /* \"#utility.yul\":16411:16430   */\n      swap1\n      pop\n        /* \"#utility.yul\":16070:16436   */\n      swap2\n      swap1\n      pop\n      jump\t// out\n        /* \"#utility.yul\":16442:16808   */\n    tag_544:\n        /* \"#utility.yul\":16584:16587   */\n      0x00\n        /* \"#utility.yul\":16605:16672   */\n      tag_546\n        /* \"#utility.yul\":16669:16671   */\n      0x14\n        /* \"#utility.yul\":16664:16667   */\n      dup4\n        /* \"#utility.yul\":16605:16672   */\n      tag_493\n      jump\t// in\n    tag_546:\n        /* \"#utility.yul\":16598:16672   */\n      swap2\n      pop\n        /* \"#utility.yul\":16681:16774   */\n      tag_547\n        /* \"#utility.yul\":16770:16773   */\n      dup3\n        /* \"#utility.yul\":16681:16774   */\n      tag_548\n      jump\t// in\n    tag_547:\n        /* \"#utility.yul\":16799:16801   */\n      0x20\n        /* \"#utility.yul\":16794:16797   */\n      dup3\n        /* \"#utility.yul\":16790:16802   */\n      add\n        /* \"#utility.yul\":16783:16802   */\n      swap1\n      pop\n        /* \"#utility.yul\":16442:16808   */\n      swap2\n      swap1\n      pop\n      jump\t// out\n        /* \"#utility.yul\":16814:17180   */\n    tag_549:\n        /* \"#utility.yul\":16956:16959   */\n      0x00\n        /* \"#utility.yul\":16977:17044   */\n      tag_551\n        /* \"#utility.yul\":17041:17043   */\n      0x23\n        /* \"#utility.yul\":17036:17039   */\n      dup4\n        /* \"#utility.yul\":16977:17044   */\n      tag_493\n      jump\t// in\n    tag_551:\n        /* \"#utility.yul\":16970:17044   */\n      swap2\n      pop\n        /* \"#utility.yul\":17053:17146   */\n      tag_552\n        /* \"#utility.yul\":17142:17145   */\n      dup3\n        /* \"#utility.yul\":17053:17146   */\n      tag_553\n      jump\t// in\n    tag_552:\n        /* \"#utility.yul\":17171:17173   */\n      0x40\n        /* \"#utility.yul\":17166:17169   */\n      dup3\n        /* \"#utility.yul\":17162:17174   */\n      add\n        /* \"#utility.yul\":17155:17174   */\n      swap1\n      pop\n        /* \"#utility.yul\":16814:17180   */\n      swap2\n      swap1\n      pop\n      jump\t// out\n        /* \"#utility.yul\":17186:17552   */\n    tag_554:\n        /* \"#utility.yul\":17328:17331   */\n      0x00\n        /* \"#utility.yul\":17349:17416   */\n      tag_556\n        /* \"#utility.yul\":17413:17415   */\n      0x12\n        /* \"#utility.yul\":17408:17411   */\n      dup4\n        /* \"#utility.yul\":17349:17416   */\n      tag_493\n      jump\t// in\n    tag_556:\n        /* \"#utility.yul\":17342:17416   */\n      swap2\n      pop\n        /* \"#utility.yul\":17425:17518   */\n      tag_557\n        /* \"#utility.yul\":17514:17517   */\n      dup3\n        /* \"#utility.yul\":17425:17518   */\n      tag_558\n      jump\t// in\n    tag_557:\n        /* \"#utility.yul\":17543:17545   */\n      0x20\n        /* \"#utility.yul\":17538:17541   */\n      dup3\n        /* \"#utility.yul\":17534:17546   */\n      add\n        /* \"#utility.yul\":17527:17546   */\n      swap1\n      pop\n        /* \"#utility.yul\":17186:17552   */\n      swap2\n      swap1\n      pop\n      jump\t// out\n        /* \"#utility.yul\":17558:17924   */\n    tag_559:\n        /* \"#utility.yul\":17700:17703   */\n      0x00\n        /* \"#utility.yul\":17721:17788   */\n      tag_561\n        /* \"#utility.yul\":17785:17787   */\n      0x23\n        /* \"#utility.yul\":17780:17783   */\n      dup4\n        /* \"#utility.yul\":17721:17788   */\n      tag_493\n      jump\t// in\n    tag_561:\n        /* \"#utility.yul\":17714:17788   */\n      swap2\n      pop\n        /* \"#utility.yul\":17797:17890   */\n      tag_562\n        /* \"#utility.yul\":17886:17889   */\n      dup3\n        /* \"#utility.yul\":17797:17890   */\n      tag_563\n      jump\t// in\n    tag_562:\n        /* \"#utility.yul\":17915:17917   */\n      0x40\n        /* \"#utility.yul\":17910:17913   */\n      dup3\n        /* \"#utility.yul\":17906:17918   */\n      add\n        /* \"#utility.yul\":17899:17918   */\n      swap1\n      pop\n        /* \"#utility.yul\":17558:17924   */\n      swap2\n      swap1\n      pop\n      jump\t// out\n        /* \"#utility.yul\":17930:18296   */\n    tag_564:\n        /* \"#utility.yul\":18072:18075   */\n      0x00\n        /* \"#utility.yul\":18093:18160   */\n      tag_566\n        /* \"#utility.yul\":18157:18159   */\n      0x2a\n        /* \"#utility.yul\":18152:18155   */\n      dup4\n        /* \"#utility.yul\":18093:18160   */\n      tag_493\n      jump\t// in\n    tag_566:\n        /* \"#utility.yul\":18086:18160   */\n      swap2\n      pop\n        /* \"#utility.yul\":18169:18262   */\n      tag_567\n        /* \"#utility.yul\":18258:18261   */\n      dup3\n        /* \"#utility.yul\":18169:18262   */\n      tag_568\n      jump\t// in\n    tag_567:\n        /* \"#utility.yul\":18287:18289   */\n      0x40\n        /* \"#utility.yul\":18282:18285   */\n      dup3\n        /* \"#utility.yul\":18278:18290   */\n      add\n        /* \"#utility.yul\":18271:18290   */\n      swap1\n      pop\n        /* \"#utility.yul\":17930:18296   */\n      swap2\n      swap1\n      pop\n      jump\t// out\n        /* \"#utility.yul\":18302:18668   */\n    tag_569:\n        /* \"#utility.yul\":18444:18447   */\n      0x00\n        /* \"#utility.yul\":18465:18532   */\n      tag_571\n        /* \"#utility.yul\":18529:18531   */\n      0x21\n        /* \"#utility.yul\":18524:18527   */\n      dup4\n        /* \"#utility.yul\":18465:18532   */\n      tag_493\n      jump\t// in\n    tag_571:\n        /* \"#utility.yul\":18458:18532   */\n      swap2\n      pop\n        /* \"#utility.yul\":18541:18634   */\n      tag_572\n        /* \"#utility.yul\":18630:18633   */\n      dup3\n        /* \"#utility.yul\":18541:18634   */\n      tag_573\n      jump\t// in\n    tag_572:\n        /* \"#utility.yul\":18659:18661   */\n      0x40\n        /* \"#utility.yul\":18654:18657   */\n      dup3\n        /* \"#utility.yul\":18650:18662   */\n      add\n        /* \"#utility.yul\":18643:18662   */\n      swap1\n      pop\n        /* \"#utility.yul\":18302:18668   */\n      swap2\n      swap1\n      pop\n      jump\t// out\n        /* \"#utility.yul\":18674:19040   */\n    tag_574:\n        /* \"#utility.yul\":18816:18819   */\n      0x00\n        /* \"#utility.yul\":18837:18904   */\n      tag_576\n        /* \"#utility.yul\":18901:18903   */\n      0x24\n        /* \"#utility.yul\":18896:18899   */\n      dup4\n        /* \"#utility.yul\":18837:18904   */\n      tag_493\n      jump\t// in\n    tag_576:\n        /* \"#utility.yul\":18830:18904   */\n      swap2\n      pop\n        /* \"#utility.yul\":18913:19006   */\n      tag_577\n        /* \"#utility.yul\":19002:19005   */\n      dup3\n        /* \"#utility.yul\":18913:19006   */\n      tag_578\n      jump\t// in\n    tag_577:\n        /* \"#utility.yul\":19031:19033   */\n      0x40\n        /* \"#utility.yul\":19026:19029   */\n      dup3\n        /* \"#utility.yul\":19022:19034   */\n      add\n        /* \"#utility.yul\":19015:19034   */\n      swap1\n      pop\n        /* \"#utility.yul\":18674:19040   */\n      swap2\n      swap1\n      pop\n      jump\t// out\n        /* \"#utility.yul\":19046:19411   */\n    tag_579:\n        /* \"#utility.yul\":19188:19191   */\n      0x00\n        /* \"#utility.yul\":19209:19275   */\n      tag_581\n        /* \"#utility.yul\":19273:19274   */\n      0x04\n        /* \"#utility.yul\":19268:19271   */\n      dup4\n        /* \"#utility.yul\":19209:19275   */\n      tag_493\n      jump\t// in\n    tag_581:\n        /* \"#utility.yul\":19202:19275   */\n      swap2\n      pop\n        /* \"#utility.yul\":19284:19377   */\n      tag_582\n        /* \"#utility.yul\":19373:19376   */\n      dup3\n        /* \"#utility.yul\":19284:19377   */\n      tag_583\n      jump\t// in\n    tag_582:\n        /* \"#utility.yul\":19402:19404   */\n      0x20\n        /* \"#utility.yul\":19397:19400   */\n      dup3\n        /* \"#utility.yul\":19393:19405   */\n      add\n        /* \"#utility.yul\":19386:19405   */\n      swap1\n      pop\n        /* \"#utility.yul\":19046:19411   */\n      swap2\n      swap1\n      pop\n      jump\t// out\n        /* \"#utility.yul\":19417:19783   */\n    tag_584:\n        /* \"#utility.yul\":19559:19562   */\n      0x00\n        /* \"#utility.yul\":19580:19647   */\n      tag_586\n        /* \"#utility.yul\":19644:19646   */\n      0x1d\n        /* \"#utility.yul\":19639:19642   */\n      dup4\n        /* \"#utility.yul\":19580:19647   */\n      tag_493\n      jump\t// in\n    tag_586:\n        /* \"#utility.yul\":19573:19647   */\n      swap2\n      pop\n        /* \"#utility.yul\":19656:19749   */\n      tag_587\n        /* \"#utility.yul\":19745:19748   */\n      dup3\n        /* \"#utility.yul\":19656:19749   */\n      tag_588\n      jump\t// in\n    tag_587:\n        /* \"#utility.yul\":19774:19776   */\n      0x20\n        /* \"#utility.yul\":19769:19772   */\n      dup3\n        /* \"#utility.yul\":19765:19777   */\n      add\n        /* \"#utility.yul\":19758:19777   */\n      swap1\n      pop\n        /* \"#utility.yul\":19417:19783   */\n      swap2\n      swap1\n      pop\n      jump\t// out\n        /* \"#utility.yul\":19789:20154   */\n    tag_589:\n        /* \"#utility.yul\":19931:19934   */\n      0x00\n        /* \"#utility.yul\":19952:20018   */\n      tag_591\n        /* \"#utility.yul\":20016:20017   */\n      0x04\n        /* \"#utility.yul\":20011:20014   */\n      dup4\n        /* \"#utility.yul\":19952:20018   */\n      tag_493\n      jump\t// in\n    tag_591:\n        /* \"#utility.yul\":19945:20018   */\n      swap2\n      pop\n        /* \"#utility.yul\":20027:20120   */\n      tag_592\n        /* \"#utility.yul\":20116:20119   */\n      dup3\n        /* \"#utility.yul\":20027:20120   */\n      tag_593\n      jump\t// in\n    tag_592:\n        /* \"#utility.yul\":20145:20147   */\n      0x20\n        /* \"#utility.yul\":20140:20143   */\n      dup3\n        /* \"#utility.yul\":20136:20148   */\n      add\n        /* \"#utility.yul\":20129:20148   */\n      swap1\n      pop\n        /* \"#utility.yul\":19789:20154   */\n      swap2\n      swap1\n      pop\n      jump\t// out\n        /* \"#utility.yul\":20160:20525   */\n    tag_594:\n        /* \"#utility.yul\":20302:20305   */\n      0x00\n        /* \"#utility.yul\":20323:20389   */\n      tag_596\n        /* \"#utility.yul\":20387:20388   */\n      0x09\n        /* \"#utility.yul\":20382:20385   */\n      dup4\n        /* \"#utility.yul\":20323:20389   */\n      tag_493\n      jump\t// in\n    tag_596:\n        /* \"#utility.yul\":20316:20389   */\n      swap2\n      pop\n        /* \"#utility.yul\":20398:20491   */\n      tag_597\n        /* \"#utility.yul\":20487:20490   */\n      dup3\n        /* \"#utility.yul\":20398:20491   */\n      tag_598\n      jump\t// in\n    tag_597:\n        /* \"#utility.yul\":20516:20518   */\n      0x20\n        /* \"#utility.yul\":20511:20514   */\n      dup3\n        /* \"#utility.yul\":20507:20519   */\n      add\n        /* \"#utility.yul\":20500:20519   */\n      swap1\n      pop\n        /* \"#utility.yul\":20160:20525   */\n      swap2\n      swap1\n      pop\n      jump\t// out\n        /* \"#utility.yul\":20531:20897   */\n    tag_599:\n        /* \"#utility.yul\":20673:20676   */\n      0x00\n        /* \"#utility.yul\":20694:20761   */\n      tag_601\n        /* \"#utility.yul\":20758:20760   */\n      0x1f\n        /* \"#utility.yul\":20753:20756   */\n      dup4\n        /* \"#utility.yul\":20694:20761   */\n      tag_493\n      jump\t// in\n    tag_601:\n        /* \"#utility.yul\":20687:20761   */\n      swap2\n      pop\n        /* \"#utility.yul\":20770:20863   */\n      tag_602\n        /* \"#utility.yul\":20859:20862   */\n      dup3\n        /* \"#utility.yul\":20770:20863   */\n      tag_603\n      jump\t// in\n    tag_602:\n        /* \"#utility.yul\":20888:20890   */\n      0x20\n        /* \"#utility.yul\":20883:20886   */\n      dup3\n        /* \"#utility.yul\":20879:20891   */\n      add\n        /* \"#utility.yul\":20872:20891   */\n      swap1\n      pop\n        /* \"#utility.yul\":20531:20897   */\n      swap2\n      swap1\n      pop\n      jump\t// out\n        /* \"#utility.yul\":20903:21021   */\n    tag_604:\n        /* \"#utility.yul\":20990:21014   */\n      tag_606\n        /* \"#utility.yul\":21008:21013   */\n      dup2\n        /* \"#utility.yul\":20990:21014   */\n      tag_607\n      jump\t// in\n    tag_606:\n        /* \"#utility.yul\":20985:20988   */\n      dup3\n        /* \"#utility.yul\":20978:21015   */\n      mstore\n        /* \"#utility.yul\":20903:21021   */\n      pop\n      pop\n      jump\t// out\n        /* \"#utility.yul\":21027:21142   */\n    tag_608:\n        /* \"#utility.yul\":21112:21135   */\n      tag_610\n        /* \"#utility.yul\":21129:21134   */\n      dup2\n        /* \"#utility.yul\":21112:21135   */\n      tag_611\n      jump\t// in\n    tag_610:\n        /* \"#utility.yul\":21107:21110   */\n      dup3\n        /* \"#utility.yul\":21100:21136   */\n      mstore\n        /* \"#utility.yul\":21027:21142   */\n      pop\n      pop\n      jump\t// out\n        /* \"#utility.yul\":21148:21266   */\n    tag_612:\n        /* \"#utility.yul\":21235:21259   */\n      tag_614\n        /* \"#utility.yul\":21253:21258   */\n      dup2\n        /* \"#utility.yul\":21235:21259   */\n      tag_615\n      jump\t// in\n    tag_614:\n        /* \"#utility.yul\":21230:21233   */\n      dup3\n        /* \"#utility.yul\":21223:21260   */\n      mstore\n        /* \"#utility.yul\":21148:21266   */\n      pop\n      pop\n      jump\t// out\n        /* \"#utility.yul\":21272:21384   */\n    tag_616:\n        /* \"#utility.yul\":21355:21377   */\n      tag_618\n        /* \"#utility.yul\":21371:21376   */\n      dup2\n        /* \"#utility.yul\":21355:21377   */\n      tag_619\n      jump\t// in\n    tag_618:\n        /* \"#utility.yul\":21350:21353   */\n      dup3\n        /* \"#utility.yul\":21343:21378   */\n      mstore\n        /* \"#utility.yul\":21272:21384   */\n      pop\n      pop\n      jump\t// out\n        /* \"#utility.yul\":21390:21685   */\n    tag_168:\n        /* \"#utility.yul\":21532:21535   */\n      0x00\n        /* \"#utility.yul\":21554:21659   */\n      tag_621\n        /* \"#utility.yul\":21655:21658   */\n      dup3\n        /* \"#utility.yul\":21646:21652   */\n      dup5\n        /* \"#utility.yul\":21638:21644   */\n      dup7\n        /* \"#utility.yul\":21554:21659   */\n      tag_483\n      jump\t// in\n    tag_621:\n        /* \"#utility.yul\":21547:21659   */\n      swap2\n      pop\n        /* \"#utility.yul\":21676:21679   */\n      dup2\n        /* \"#utility.yul\":21669:21679   */\n      swap1\n      pop\n        /* \"#utility.yul\":21390:21685   */\n      swap4\n      swap3\n      pop\n      pop\n      pop\n      jump\t// out\n        /* \"#utility.yul\":21691:21966   */\n    tag_228:\n        /* \"#utility.yul\":21823:21826   */\n      0x00\n        /* \"#utility.yul\":21845:21940   */\n      tag_623\n        /* \"#utility.yul\":21936:21939   */\n      dup3\n        /* \"#utility.yul\":21927:21933   */\n      dup5\n        /* \"#utility.yul\":21845:21940   */\n      tag_497\n      jump\t// in\n    tag_623:\n        /* \"#utility.yul\":21838:21940   */\n      swap2\n      pop\n        /* \"#utility.yul\":21957:21960   */\n      dup2\n        /* \"#utility.yul\":21950:21960   */\n      swap1\n      pop\n        /* \"#utility.yul\":21691:21966   */\n      swap3\n      swap2\n      pop\n      pop\n      jump\t// out\n        /* \"#utility.yul\":21972:22241   */\n    tag_199:\n        /* \"#utility.yul\":22101:22104   */\n      0x00\n        /* \"#utility.yul\":22123:22215   */\n      tag_625\n        /* \"#utility.yul\":22211:22214   */\n      dup3\n        /* \"#utility.yul\":22202:22208   */\n      dup5\n        /* \"#utility.yul\":22123:22215   */\n      tag_502\n      jump\t// in\n    tag_625:\n        /* \"#utility.yul\":22116:22215   */\n      swap2\n      pop\n        /* \"#utility.yul\":22232:22235   */\n      dup2\n        /* \"#utility.yul\":22225:22235   */\n      swap1\n      pop\n        /* \"#utility.yul\":21972:22241   */\n      swap3\n      swap2\n      pop\n      pop\n      jump\t// out\n        /* \"#utility.yul\":22247:23212   */\n    tag_19:\n        /* \"#utility.yul\":22522:22526   */\n      0x00\n        /* \"#utility.yul\":22560:22563   */\n      0xe0\n        /* \"#utility.yul\":22549:22558   */\n      dup3\n        /* \"#utility.yul\":22545:22564   */\n      add\n        /* \"#utility.yul\":22537:22564   */\n      swap1\n      pop\n        /* \"#utility.yul\":22574:22645   */\n      tag_627\n        /* \"#utility.yul\":22642:22643   */\n      0x00\n        /* \"#utility.yul\":22631:22640   */\n      dup4\n        /* \"#utility.yul\":22627:22644   */\n      add\n        /* \"#utility.yul\":22618:22624   */\n      dup11\n        /* \"#utility.yul\":22574:22645   */\n      tag_442\n      jump\t// in\n    tag_627:\n        /* \"#utility.yul\":22655:22723   */\n      tag_628\n        /* \"#utility.yul\":22719:22721   */\n      0x20\n        /* \"#utility.yul\":22708:22717   */\n      dup4\n        /* \"#utility.yul\":22704:22722   */\n      add\n        /* \"#utility.yul\":22695:22701   */\n      dup10\n        /* \"#utility.yul\":22655:22723   */\n      tag_616\n      jump\t// in\n    tag_628:\n        /* \"#utility.yul\":22770:22779   */\n      dup2\n        /* \"#utility.yul\":22764:22768   */\n      dup2\n        /* \"#utility.yul\":22760:22780   */\n      sub\n        /* \"#utility.yul\":22755:22757   */\n      0x40\n        /* \"#utility.yul\":22744:22753   */\n      dup4\n        /* \"#utility.yul\":22740:22758   */\n      add\n        /* \"#utility.yul\":22733:22781   */\n      mstore\n        /* \"#utility.yul\":22798:22876   */\n      tag_629\n        /* \"#utility.yul\":22871:22875   */\n      dup2\n        /* \"#utility.yul\":22862:22868   */\n      dup9\n        /* \"#utility.yul\":22798:22876   */\n      tag_488\n      jump\t// in\n    tag_629:\n        /* \"#utility.yul\":22790:22876   */\n      swap1\n      pop\n        /* \"#utility.yul\":22886:22958   */\n      tag_630\n        /* \"#utility.yul\":22954:22956   */\n      0x60\n        /* \"#utility.yul\":22943:22952   */\n      dup4\n        /* \"#utility.yul\":22939:22957   */\n      add\n        /* \"#utility.yul\":22930:22936   */\n      dup8\n        /* \"#utility.yul\":22886:22958   */\n      tag_612\n      jump\t// in\n    tag_630:\n        /* \"#utility.yul\":22968:23041   */\n      tag_631\n        /* \"#utility.yul\":23036:23039   */\n      0x80\n        /* \"#utility.yul\":23025:23034   */\n      dup4\n        /* \"#utility.yul\":23021:23040   */\n      add\n        /* \"#utility.yul\":23012:23018   */\n      dup7\n        /* \"#utility.yul\":22968:23041   */\n      tag_612\n      jump\t// in\n    tag_631:\n        /* \"#utility.yul\":23051:23122   */\n      tag_632\n        /* \"#utility.yul\":23117:23120   */\n      0xa0\n        /* \"#utility.yul\":23106:23115   */\n      dup4\n        /* \"#utility.yul\":23102:23121   */\n      add\n        /* \"#utility.yul\":23093:23099   */\n      dup6\n        /* \"#utility.yul\":23051:23122   */\n      tag_608\n      jump\t// in\n    tag_632:\n        /* \"#utility.yul\":23132:23205   */\n      tag_633\n        /* \"#utility.yul\":23200:23203   */\n      0xc0\n        /* \"#utility.yul\":23189:23198   */\n      dup4\n        /* \"#utility.yul\":23185:23204   */\n      add\n        /* \"#utility.yul\":23176:23182   */\n      dup5\n        /* \"#utility.yul\":23132:23205   */\n      tag_612\n      jump\t// in\n    tag_633:\n        /* \"#utility.yul\":22247:23212   */\n      swap9\n      swap8\n      pop\n      pop\n      pop\n      pop\n      pop\n      pop\n      pop\n      pop\n      jump\t// out\n        /* \"#utility.yul\":23218:23531   */\n    tag_23:\n        /* \"#utility.yul\":23331:23335   */\n      0x00\n        /* \"#utility.yul\":23369:23371   */\n      0x20\n        /* \"#utility.yul\":23358:23367   */\n      dup3\n        /* \"#utility.yul\":23354:23372   */\n      add\n        /* \"#utility.yul\":23346:23372   */\n      swap1\n      pop\n        /* \"#utility.yul\":23418:23427   */\n      dup2\n        /* \"#utility.yul\":23412:23416   */\n      dup2\n        /* \"#utility.yul\":23408:23428   */\n      sub\n        /* \"#utility.yul\":23404:23405   */\n      0x00\n        /* \"#utility.yul\":23393:23402   */\n      dup4\n        /* \"#utility.yul\":23389:23406   */\n      add\n        /* \"#utility.yul\":23382:23429   */\n      mstore\n        /* \"#utility.yul\":23446:23524   */\n      tag_635\n        /* \"#utility.yul\":23519:23523   */\n      dup2\n        /* \"#utility.yul\":23510:23516   */\n      dup5\n        /* \"#utility.yul\":23446:23524   */\n      tag_488\n      jump\t// in\n    tag_635:\n        /* \"#utility.yul\":23438:23524   */\n      swap1\n      pop\n        /* \"#utility.yul\":23218:23531   */\n      swap3\n      swap2\n      pop\n      pop\n      jump\t// out\n        /* \"#utility.yul\":23537:23956   */\n    tag_196:\n        /* \"#utility.yul\":23703:23707   */\n      0x00\n        /* \"#utility.yul\":23741:23743   */\n      0x20\n        /* \"#utility.yul\":23730:23739   */\n      dup3\n        /* \"#utility.yul\":23726:23744   */\n      add\n        /* \"#utility.yul\":23718:23744   */\n      swap1\n      pop\n        /* \"#utility.yul\":23790:23799   */\n      dup2\n        /* \"#utility.yul\":23784:23788   */\n      dup2\n        /* \"#utility.yul\":23780:23800   */\n      sub\n        /* \"#utility.yul\":23776:23777   */\n      0x00\n        /* \"#utility.yul\":23765:23774   */\n      dup4\n        /* \"#utility.yul\":23761:23778   */\n      add\n        /* \"#utility.yul\":23754:23801   */\n      mstore\n        /* \"#utility.yul\":23818:23949   */\n      tag_637\n        /* \"#utility.yul\":23944:23948   */\n      dup2\n        /* \"#utility.yul\":23818:23949   */\n      tag_514\n      jump\t// in\n    tag_637:\n        /* \"#utility.yul\":23810:23949   */\n      swap1\n      pop\n        /* \"#utility.yul\":23537:23956   */\n      swap2\n      swap1\n      pop\n      jump\t// out\n        /* \"#utility.yul\":23962:24381   */\n    tag_78:\n        /* \"#utility.yul\":24128:24132   */\n      0x00\n        /* \"#utility.yul\":24166:24168   */\n      0x20\n        /* \"#utility.yul\":24155:24164   */\n      dup3\n        /* \"#utility.yul\":24151:24169   */\n      add\n        /* \"#utility.yul\":24143:24169   */\n      swap1\n      pop\n        /* \"#utility.yul\":24215:24224   */\n      dup2\n        /* \"#utility.yul\":24209:24213   */\n      dup2\n        /* \"#utility.yul\":24205:24225   */\n      sub\n        /* \"#utility.yul\":24201:24202   */\n      0x00\n        /* \"#utility.yul\":24190:24199   */\n      dup4\n        /* \"#utility.yul\":24186:24203   */\n      add\n        /* \"#utility.yul\":24179:24226   */\n      mstore\n        /* \"#utility.yul\":24243:24374   */\n      tag_639\n        /* \"#utility.yul\":24369:24373   */\n      dup2\n        /* \"#utility.yul\":24243:24374   */\n      tag_519\n      jump\t// in\n    tag_639:\n        /* \"#utility.yul\":24235:24374   */\n      swap1\n      pop\n        /* \"#utility.yul\":23962:24381   */\n      swap2\n      swap1\n      pop\n      jump\t// out\n        /* \"#utility.yul\":24387:24806   */\n    tag_275:\n        /* \"#utility.yul\":24553:24557   */\n      0x00\n        /* \"#utility.yul\":24591:24593   */\n      0x20\n        /* \"#utility.yul\":24580:24589   */\n      dup3\n        /* \"#utility.yul\":24576:24594   */\n      add\n        /* \"#utility.yul\":24568:24594   */\n      swap1\n      pop\n        /* \"#utility.yul\":24640:24649   */\n      dup2\n        /* \"#utility.yul\":24634:24638   */\n      dup2\n        /* \"#utility.yul\":24630:24650   */\n      sub\n        /* \"#utility.yul\":24626:24627   */\n      0x00\n        /* \"#utility.yul\":24615:24624   */\n      dup4\n        /* \"#utility.yul\":24611:24628   */\n      add\n        /* \"#utility.yul\":24604:24651   */\n      mstore\n        /* \"#utility.yul\":24668:24799   */\n      tag_641\n        /* \"#utility.yul\":24794:24798   */\n      dup2\n        /* \"#utility.yul\":24668:24799   */\n      tag_524\n      jump\t// in\n    tag_641:\n        /* \"#utility.yul\":24660:24799   */\n      swap1\n      pop\n        /* \"#utility.yul\":24387:24806   */\n      swap2\n      swap1\n      pop\n      jump\t// out\n        /* \"#utility.yul\":24812:25231   */\n    tag_120:\n        /* \"#utility.yul\":24978:24982   */\n      0x00\n        /* \"#utility.yul\":25016:25018   */\n      0x20\n        /* \"#utility.yul\":25005:25014   */\n      dup3\n        /* \"#utility.yul\":25001:25019   */\n      add\n        /* \"#utility.yul\":24993:25019   */\n      swap1\n      pop\n        /* \"#utility.yul\":25065:25074   */\n      dup2\n        /* \"#utility.yul\":25059:25063   */\n      dup2\n        /* \"#utility.yul\":25055:25075   */\n      sub\n        /* \"#utility.yul\":25051:25052   */\n      0x00\n        /* \"#utility.yul\":25040:25049   */\n      dup4\n        /* \"#utility.yul\":25036:25053   */\n      add\n        /* \"#utility.yul\":25029:25076   */\n      mstore\n        /* \"#utility.yul\":25093:25224   */\n      tag_643\n        /* \"#utility.yul\":25219:25223   */\n      dup2\n        /* \"#utility.yul\":25093:25224   */\n      tag_529\n      jump\t// in\n    tag_643:\n        /* \"#utility.yul\":25085:25224   */\n      swap1\n      pop\n        /* \"#utility.yul\":24812:25231   */\n      swap2\n      swap1\n      pop\n      jump\t// out\n        /* \"#utility.yul\":25237:25656   */\n    tag_231:\n        /* \"#utility.yul\":25403:25407   */\n      0x00\n        /* \"#utility.yul\":25441:25443   */\n      0x20\n        /* \"#utility.yul\":25430:25439   */\n      dup3\n        /* \"#utility.yul\":25426:25444   */\n      add\n        /* \"#utility.yul\":25418:25444   */\n      swap1\n      pop\n        /* \"#utility.yul\":25490:25499   */\n      dup2\n        /* \"#utility.yul\":25484:25488   */\n      dup2\n        /* \"#utility.yul\":25480:25500   */\n      sub\n        /* \"#utility.yul\":25476:25477   */\n      0x00\n        /* \"#utility.yul\":25465:25474   */\n      dup4\n        /* \"#utility.yul\":25461:25478   */\n      add\n        /* \"#utility.yul\":25454:25501   */\n      mstore\n        /* \"#utility.yul\":25518:25649   */\n      tag_645\n        /* \"#utility.yul\":25644:25648   */\n      dup2\n        /* \"#utility.yul\":25518:25649   */\n      tag_534\n      jump\t// in\n    tag_645:\n        /* \"#utility.yul\":25510:25649   */\n      swap1\n      pop\n        /* \"#utility.yul\":25237:25656   */\n      swap2\n      swap1\n      pop\n      jump\t// out\n        /* \"#utility.yul\":25662:26081   */\n    tag_117:\n        /* \"#utility.yul\":25828:25832   */\n      0x00\n        /* \"#utility.yul\":25866:25868   */\n      0x20\n        /* \"#utility.yul\":25855:25864   */\n      dup3\n        /* \"#utility.yul\":25851:25869   */\n      add\n        /* \"#utility.yul\":25843:25869   */\n      swap1\n      pop\n        /* \"#utility.yul\":25915:25924   */\n      dup2\n        /* \"#utility.yul\":25909:25913   */\n      dup2\n        /* \"#utility.yul\":25905:25925   */\n      sub\n        /* \"#utility.yul\":25901:25902   */\n      0x00\n        /* \"#utility.yul\":25890:25899   */\n      dup4\n        /* \"#utility.yul\":25886:25903   */\n      add\n        /* \"#utility.yul\":25879:25926   */\n      mstore\n        /* \"#utility.yul\":25943:26074   */\n      tag_647\n        /* \"#utility.yul\":26069:26073   */\n      dup2\n        /* \"#utility.yul\":25943:26074   */\n      tag_539\n      jump\t// in\n    tag_647:\n        /* \"#utility.yul\":25935:26074   */\n      swap1\n      pop\n        /* \"#utility.yul\":25662:26081   */\n      swap2\n      swap1\n      pop\n      jump\t// out\n        /* \"#utility.yul\":26087:26506   */\n    tag_75:\n        /* \"#utility.yul\":26253:26257   */\n      0x00\n        /* \"#utility.yul\":26291:26293   */\n      0x20\n        /* \"#utility.yul\":26280:26289   */\n      dup3\n        /* \"#utility.yul\":26276:26294   */\n      add\n        /* \"#utility.yul\":26268:26294   */\n      swap1\n      pop\n        /* \"#utility.yul\":26340:26349   */\n      dup2\n        /* \"#utility.yul\":26334:26338   */\n      dup2\n        /* \"#utility.yul\":26330:26350   */\n      sub\n        /* \"#utility.yul\":26326:26327   */\n      0x00\n        /* \"#utility.yul\":26315:26324   */\n      dup4\n        /* \"#utility.yul\":26311:26328   */\n      add\n        /* \"#utility.yul\":26304:26351   */\n      mstore\n        /* \"#utility.yul\":26368:26499   */\n      tag_649\n        /* \"#utility.yul\":26494:26498   */\n      dup2\n        /* \"#utility.yul\":26368:26499   */\n      tag_544\n      jump\t// in\n    tag_649:\n        /* \"#utility.yul\":26360:26499   */\n      swap1\n      pop\n        /* \"#utility.yul\":26087:26506   */\n      swap2\n      swap1\n      pop\n      jump\t// out\n        /* \"#utility.yul\":26512:26931   */\n    tag_221:\n        /* \"#utility.yul\":26678:26682   */\n      0x00\n        /* \"#utility.yul\":26716:26718   */\n      0x20\n        /* \"#utility.yul\":26705:26714   */\n      dup3\n        /* \"#utility.yul\":26701:26719   */\n      add\n        /* \"#utility.yul\":26693:26719   */\n      swap1\n      pop\n        /* \"#utility.yul\":26765:26774   */\n      dup2\n        /* \"#utility.yul\":26759:26763   */\n      dup2\n        /* \"#utility.yul\":26755:26775   */\n      sub\n        /* \"#utility.yul\":26751:26752   */\n      0x00\n        /* \"#utility.yul\":26740:26749   */\n      dup4\n        /* \"#utility.yul\":26736:26753   */\n      add\n        /* \"#utility.yul\":26729:26776   */\n      mstore\n        /* \"#utility.yul\":26793:26924   */\n      tag_651\n        /* \"#utility.yul\":26919:26923   */\n      dup2\n        /* \"#utility.yul\":26793:26924   */\n      tag_549\n      jump\t// in\n    tag_651:\n        /* \"#utility.yul\":26785:26924   */\n      swap1\n      pop\n        /* \"#utility.yul\":26512:26931   */\n      swap2\n      swap1\n      pop\n      jump\t// out\n        /* \"#utility.yul\":26937:27356   */\n    tag_114:\n        /* \"#utility.yul\":27103:27107   */\n      0x00\n        /* \"#utility.yul\":27141:27143   */\n      0x20\n        /* \"#utility.yul\":27130:27139   */\n      dup3\n        /* \"#utility.yul\":27126:27144   */\n      add\n        /* \"#utility.yul\":27118:27144   */\n      swap1\n      pop\n        /* \"#utility.yul\":27190:27199   */\n      dup2\n        /* \"#utility.yul\":27184:27188   */\n      dup2\n        /* \"#utility.yul\":27180:27200   */\n      sub\n        /* \"#utility.yul\":27176:27177   */\n      0x00\n        /* \"#utility.yul\":27165:27174   */\n      dup4\n        /* \"#utility.yul\":27161:27178   */\n      add\n        /* \"#utility.yul\":27154:27201   */\n      mstore\n        /* \"#utility.yul\":27218:27349   */\n      tag_653\n        /* \"#utility.yul\":27344:27348   */\n      dup2\n        /* \"#utility.yul\":27218:27349   */\n      tag_554\n      jump\t// in\n    tag_653:\n        /* \"#utility.yul\":27210:27349   */\n      swap1\n      pop\n        /* \"#utility.yul\":26937:27356   */\n      swap2\n      swap1\n      pop\n      jump\t// out\n        /* \"#utility.yul\":27362:27781   */\n    tag_138:\n        /* \"#utility.yul\":27528:27532   */\n      0x00\n        /* \"#utility.yul\":27566:27568   */\n      0x20\n        /* \"#utility.yul\":27555:27564   */\n      dup3\n        /* \"#utility.yul\":27551:27569   */\n      add\n        /* \"#utility.yul\":27543:27569   */\n      swap1\n      pop\n        /* \"#utility.yul\":27615:27624   */\n      dup2\n        /* \"#utility.yul\":27609:27613   */\n      dup2\n        /* \"#utility.yul\":27605:27625   */\n      sub\n        /* \"#utility.yul\":27601:27602   */\n      0x00\n        /* \"#utility.yul\":27590:27599   */\n      dup4\n        /* \"#utility.yul\":27586:27603   */\n      add\n        /* \"#utility.yul\":27579:27626   */\n      mstore\n        /* \"#utility.yul\":27643:27774   */\n      tag_655\n        /* \"#utility.yul\":27769:27773   */\n      dup2\n        /* \"#utility.yul\":27643:27774   */\n      tag_559\n      jump\t// in\n    tag_655:\n        /* \"#utility.yul\":27635:27774   */\n      swap1\n      pop\n        /* \"#utility.yul\":27362:27781   */\n      swap2\n      swap1\n      pop\n      jump\t// out\n        /* \"#utility.yul\":27787:28206   */\n    tag_81:\n        /* \"#utility.yul\":27953:27957   */\n      0x00\n        /* \"#utility.yul\":27991:27993   */\n      0x20\n        /* \"#utility.yul\":27980:27989   */\n      dup3\n        /* \"#utility.yul\":27976:27994   */\n      add\n        /* \"#utility.yul\":27968:27994   */\n      swap1\n      pop\n        /* \"#utility.yul\":28040:28049   */\n      dup2\n        /* \"#utility.yul\":28034:28038   */\n      dup2\n        /* \"#utility.yul\":28030:28050   */\n      sub\n        /* \"#utility.yul\":28026:28027   */\n      0x00\n        /* \"#utility.yul\":28015:28024   */\n      dup4\n        /* \"#utility.yul\":28011:28028   */\n      add\n        /* \"#utility.yul\":28004:28051   */\n      mstore\n        /* \"#utility.yul\":28068:28199   */\n      tag_657\n        /* \"#utility.yul\":28194:28198   */\n      dup2\n        /* \"#utility.yul\":28068:28199   */\n      tag_564\n      jump\t// in\n    tag_657:\n        /* \"#utility.yul\":28060:28199   */\n      swap1\n      pop\n        /* \"#utility.yul\":27787:28206   */\n      swap2\n      swap1\n      pop\n      jump\t// out\n        /* \"#utility.yul\":28212:28631   */\n    tag_272:\n        /* \"#utility.yul\":28378:28382   */\n      0x00\n        /* \"#utility.yul\":28416:28418   */\n      0x20\n        /* \"#utility.yul\":28405:28414   */\n      dup3\n        /* \"#utility.yul\":28401:28419   */\n      add\n        /* \"#utility.yul\":28393:28419   */\n      swap1\n      pop\n        /* \"#utility.yul\":28465:28474   */\n      dup2\n        /* \"#utility.yul\":28459:28463   */\n      dup2\n        /* \"#utility.yul\":28455:28475   */\n      sub\n        /* \"#utility.yul\":28451:28452   */\n      0x00\n        /* \"#utility.yul\":28440:28449   */\n      dup4\n        /* \"#utility.yul\":28436:28453   */\n      add\n        /* \"#utility.yul\":28429:28476   */\n      mstore\n        /* \"#utility.yul\":28493:28624   */\n      tag_659\n        /* \"#utility.yul\":28619:28623   */\n      dup2\n        /* \"#utility.yul\":28493:28624   */\n      tag_569\n      jump\t// in\n    tag_659:\n        /* \"#utility.yul\":28485:28624   */\n      swap1\n      pop\n        /* \"#utility.yul\":28212:28631   */\n      swap2\n      swap1\n      pop\n      jump\t// out\n        /* \"#utility.yul\":28637:29056   */\n    tag_123:\n        /* \"#utility.yul\":28803:28807   */\n      0x00\n        /* \"#utility.yul\":28841:28843   */\n      0x20\n        /* \"#utility.yul\":28830:28839   */\n      dup3\n        /* \"#utility.yul\":28826:28844   */\n      add\n        /* \"#utility.yul\":28818:28844   */\n      swap1\n      pop\n        /* \"#utility.yul\":28890:28899   */\n      dup2\n        /* \"#utility.yul\":28884:28888   */\n      dup2\n        /* \"#utility.yul\":28880:28900   */\n      sub\n        /* \"#utility.yul\":28876:28877   */\n      0x00\n        /* \"#utility.yul\":28865:28874   */\n      dup4\n        /* \"#utility.yul\":28861:28878   */\n      add\n        /* \"#utility.yul\":28854:28901   */\n      mstore\n        /* \"#utility.yul\":28918:29049   */\n      tag_661\n        /* \"#utility.yul\":29044:29048   */\n      dup2\n        /* \"#utility.yul\":28918:29049   */\n      tag_574\n      jump\t// in\n    tag_661:\n        /* \"#utility.yul\":28910:29049   */\n      swap1\n      pop\n        /* \"#utility.yul\":28637:29056   */\n      swap2\n      swap1\n      pop\n      jump\t// out\n        /* \"#utility.yul\":29062:29701   */\n    tag_105:\n        /* \"#utility.yul\":29284:29288   */\n      0x00\n        /* \"#utility.yul\":29322:29324   */\n      0x60\n        /* \"#utility.yul\":29311:29320   */\n      dup3\n        /* \"#utility.yul\":29307:29325   */\n      add\n        /* \"#utility.yul\":29299:29325   */\n      swap1\n      pop\n        /* \"#utility.yul\":29371:29380   */\n      dup2\n        /* \"#utility.yul\":29365:29369   */\n      dup2\n        /* \"#utility.yul\":29361:29381   */\n      sub\n        /* \"#utility.yul\":29357:29358   */\n      0x00\n        /* \"#utility.yul\":29346:29355   */\n      dup4\n        /* \"#utility.yul\":29342:29359   */\n      add\n        /* \"#utility.yul\":29335:29382   */\n      mstore\n        /* \"#utility.yul\":29399:29530   */\n      tag_663\n        /* \"#utility.yul\":29525:29529   */\n      dup2\n        /* \"#utility.yul\":29399:29530   */\n      tag_579\n      jump\t// in\n    tag_663:\n        /* \"#utility.yul\":29391:29530   */\n      swap1\n      pop\n        /* \"#utility.yul\":29540:29612   */\n      tag_664\n        /* \"#utility.yul\":29608:29610   */\n      0x20\n        /* \"#utility.yul\":29597:29606   */\n      dup4\n        /* \"#utility.yul\":29593:29611   */\n      add\n        /* \"#utility.yul\":29584:29590   */\n      dup6\n        /* \"#utility.yul\":29540:29612   */\n      tag_442\n      jump\t// in\n    tag_664:\n        /* \"#utility.yul\":29622:29694   */\n      tag_665\n        /* \"#utility.yul\":29690:29692   */\n      0x40\n        /* \"#utility.yul\":29679:29688   */\n      dup4\n        /* \"#utility.yul\":29675:29693   */\n      add\n        /* \"#utility.yul\":29666:29672   */\n      dup5\n        /* \"#utility.yul\":29622:29694   */\n      tag_612\n      jump\t// in\n    tag_665:\n        /* \"#utility.yul\":29062:29701   */\n      swap4\n      swap3\n      pop\n      pop\n      pop\n      jump\t// out\n        /* \"#utility.yul\":29707:30126   */\n    tag_252:\n        /* \"#utility.yul\":29873:29877   */\n      0x00\n        /* \"#utility.yul\":29911:29913   */\n      0x20\n        /* \"#utility.yul\":29900:29909   */\n      dup3\n        /* \"#utility.yul\":29896:29914   */\n      add\n        /* \"#utility.yul\":29888:29914   */\n      swap1\n      pop\n        /* \"#utility.yul\":29960:29969   */\n      dup2\n        /* \"#utility.yul\":29954:29958   */\n      dup2\n        /* \"#utility.yul\":29950:29970   */\n      sub\n        /* \"#utility.yul\":29946:29947   */\n      0x00\n        /* \"#utility.yul\":29935:29944   */\n      dup4\n        /* \"#utility.yul\":29931:29948   */\n      add\n        /* \"#utility.yul\":29924:29971   */\n      mstore\n        /* \"#utility.yul\":29988:30119   */\n      tag_667\n        /* \"#utility.yul\":30114:30118   */\n      dup2\n        /* \"#utility.yul\":29988:30119   */\n      tag_584\n      jump\t// in\n    tag_667:\n        /* \"#utility.yul\":29980:30119   */\n      swap1\n      pop\n        /* \"#utility.yul\":29707:30126   */\n      swap2\n      swap1\n      pop\n      jump\t// out\n        /* \"#utility.yul\":30132:30771   */\n    tag_149:\n        /* \"#utility.yul\":30354:30358   */\n      0x00\n        /* \"#utility.yul\":30392:30394   */\n      0x60\n        /* \"#utility.yul\":30381:30390   */\n      dup3\n        /* \"#utility.yul\":30377:30395   */\n      add\n        /* \"#utility.yul\":30369:30395   */\n      swap1\n      pop\n        /* \"#utility.yul\":30441:30450   */\n      dup2\n        /* \"#utility.yul\":30435:30439   */\n      dup2\n        /* \"#utility.yul\":30431:30451   */\n      sub\n        /* \"#utility.yul\":30427:30428   */\n      0x00\n        /* \"#utility.yul\":30416:30425   */\n      dup4\n        /* \"#utility.yul\":30412:30429   */\n      add\n        /* \"#utility.yul\":30405:30452   */\n      mstore\n        /* \"#utility.yul\":30469:30600   */\n      tag_669\n        /* \"#utility.yul\":30595:30599   */\n      dup2\n        /* \"#utility.yul\":30469:30600   */\n      tag_589\n      jump\t// in\n    tag_669:\n        /* \"#utility.yul\":30461:30600   */\n      swap1\n      pop\n        /* \"#utility.yul\":30610:30682   */\n      tag_670\n        /* \"#utility.yul\":30678:30680   */\n      0x20\n        /* \"#utility.yul\":30667:30676   */\n      dup4\n        /* \"#utility.yul\":30663:30681   */\n      add\n        /* \"#utility.yul\":30654:30660   */\n      dup6\n        /* \"#utility.yul\":30610:30682   */\n      tag_442\n      jump\t// in\n    tag_670:\n        /* \"#utility.yul\":30692:30764   */\n      tag_671\n        /* \"#utility.yul\":30760:30762   */\n      0x40\n        /* \"#utility.yul\":30749:30758   */\n      dup4\n        /* \"#utility.yul\":30745:30763   */\n      add\n        /* \"#utility.yul\":30736:30742   */\n      dup5\n        /* \"#utility.yul\":30692:30764   */\n      tag_612\n      jump\t// in\n    tag_671:\n        /* \"#utility.yul\":30132:30771   */\n      swap4\n      swap3\n      pop\n      pop\n      pop\n      jump\t// out\n        /* \"#utility.yul\":30777:31196   */\n    tag_255:\n        /* \"#utility.yul\":30943:30947   */\n      0x00\n        /* \"#utility.yul\":30981:30983   */\n      0x20\n        /* \"#utility.yul\":30970:30979   */\n      dup3\n        /* \"#utility.yul\":30966:30984   */\n      add\n        /* \"#utility.yul\":30958:30984   */\n      swap1\n      pop\n        /* \"#utility.yul\":31030:31039   */\n      dup2\n        /* \"#utility.yul\":31024:31028   */\n      dup2\n        /* \"#utility.yul\":31020:31040   */\n      sub\n        /* \"#utility.yul\":31016:31017   */\n      0x00\n        /* \"#utility.yul\":31005:31014   */\n      dup4\n        /* \"#utility.yul\":31001:31018   */\n      add\n        /* \"#utility.yul\":30994:31041   */\n      mstore\n        /* \"#utility.yul\":31058:31189   */\n      tag_673\n        /* \"#utility.yul\":31184:31188   */\n      dup2\n        /* \"#utility.yul\":31058:31189   */\n      tag_594\n      jump\t// in\n    tag_673:\n        /* \"#utility.yul\":31050:31189   */\n      swap1\n      pop\n        /* \"#utility.yul\":30777:31196   */\n      swap2\n      swap1\n      pop\n      jump\t// out\n        /* \"#utility.yul\":31202:31621   */\n    tag_265:\n        /* \"#utility.yul\":31368:31372   */\n      0x00\n        /* \"#utility.yul\":31406:31408   */\n      0x20\n        /* \"#utility.yul\":31395:31404   */\n      dup3\n        /* \"#utility.yul\":31391:31409   */\n      add\n        /* \"#utility.yul\":31383:31409   */\n      swap1\n      pop\n        /* \"#utility.yul\":31455:31464   */\n      dup2\n        /* \"#utility.yul\":31449:31453   */\n      dup2\n        /* \"#utility.yul\":31445:31465   */\n      sub\n        /* \"#utility.yul\":31441:31442   */\n      0x00\n        /* \"#utility.yul\":31430:31439   */\n      dup4\n        /* \"#utility.yul\":31426:31443   */\n      add\n        /* \"#utility.yul\":31419:31466   */\n      mstore\n        /* \"#utility.yul\":31483:31614   */\n      tag_675\n        /* \"#utility.yul\":31609:31613   */\n      dup2\n        /* \"#utility.yul\":31483:31614   */\n      tag_599\n      jump\t// in\n    tag_675:\n        /* \"#utility.yul\":31475:31614   */\n      swap1\n      pop\n        /* \"#utility.yul\":31202:31621   */\n      swap2\n      swap1\n      pop\n      jump\t// out\n        /* \"#utility.yul\":31627:31959   */\n    tag_57:\n        /* \"#utility.yul\":31748:31752   */\n      0x00\n        /* \"#utility.yul\":31786:31788   */\n      0x40\n        /* \"#utility.yul\":31775:31784   */\n      dup3\n        /* \"#utility.yul\":31771:31789   */\n      add\n        /* \"#utility.yul\":31763:31789   */\n      swap1\n      pop\n        /* \"#utility.yul\":31799:31870   */\n      tag_677\n        /* \"#utility.yul\":31867:31868   */\n      0x00\n        /* \"#utility.yul\":31856:31865   */\n      dup4\n        /* \"#utility.yul\":31852:31869   */\n      add\n        /* \"#utility.yul\":31843:31849   */\n      dup6\n        /* \"#utility.yul\":31799:31870   */\n      tag_604\n      jump\t// in\n    tag_677:\n        /* \"#utility.yul\":31880:31952   */\n      tag_678\n        /* \"#utility.yul\":31948:31950   */\n      0x20\n        /* \"#utility.yul\":31937:31946   */\n      dup4\n        /* \"#utility.yul\":31933:31951   */\n      add\n        /* \"#utility.yul\":31924:31930   */\n      dup5\n        /* \"#utility.yul\":31880:31952   */\n      tag_604\n      jump\t// in\n    tag_678:\n        /* \"#utility.yul\":31627:31959   */\n      swap4\n      swap3\n      pop\n      pop\n      pop\n      jump\t// out\n        /* \"#utility.yul\":31965:32187   */\n    tag_27:\n        /* \"#utility.yul\":32058:32062   */\n      0x00\n        /* \"#utility.yul\":32096:32098   */\n      0x20\n        /* \"#utility.yul\":32085:32094   */\n      dup3\n        /* \"#utility.yul\":32081:32099   */\n      add\n        /* \"#utility.yul\":32073:32099   */\n      swap1\n      pop\n        /* \"#utility.yul\":32109:32180   */\n      tag_680\n        /* \"#utility.yul\":32177:32178   */\n      0x00\n        /* \"#utility.yul\":32166:32175   */\n      dup4\n        /* \"#utility.yul\":32162:32179   */\n      add\n        /* \"#utility.yul\":32153:32159   */\n      dup5\n        /* \"#utility.yul\":32109:32180   */\n      tag_612\n      jump\t// in\n    tag_680:\n        /* \"#utility.yul\":31965:32187   */\n      swap3\n      swap2\n      pop\n      pop\n      jump\t// out\n        /* \"#utility.yul\":32193:32734   */\n    tag_52:\n        /* \"#utility.yul\":32364:32368   */\n      0x00\n        /* \"#utility.yul\":32402:32405   */\n      0x80\n        /* \"#utility.yul\":32391:32400   */\n      dup3\n        /* \"#utility.yul\":32387:32406   */\n      add\n        /* \"#utility.yul\":32379:32406   */\n      swap1\n      pop\n        /* \"#utility.yul\":32416:32487   */\n      tag_682\n        /* \"#utility.yul\":32484:32485   */\n      0x00\n        /* \"#utility.yul\":32473:32482   */\n      dup4\n        /* \"#utility.yul\":32469:32486   */\n      add\n        /* \"#utility.yul\":32460:32466   */\n      dup8\n        /* \"#utility.yul\":32416:32487   */\n      tag_612\n      jump\t// in\n    tag_682:\n        /* \"#utility.yul\":32497:32569   */\n      tag_683\n        /* \"#utility.yul\":32565:32567   */\n      0x20\n        /* \"#utility.yul\":32554:32563   */\n      dup4\n        /* \"#utility.yul\":32550:32568   */\n      add\n        /* \"#utility.yul\":32541:32547   */\n      dup7\n        /* \"#utility.yul\":32497:32569   */\n      tag_442\n      jump\t// in\n    tag_683:\n        /* \"#utility.yul\":32579:32645   */\n      tag_684\n        /* \"#utility.yul\":32641:32643   */\n      0x40\n        /* \"#utility.yul\":32630:32639   */\n      dup4\n        /* \"#utility.yul\":32626:32644   */\n      add\n        /* \"#utility.yul\":32617:32623   */\n      dup6\n        /* \"#utility.yul\":32579:32645   */\n      tag_473\n      jump\t// in\n    tag_684:\n        /* \"#utility.yul\":32655:32727   */\n      tag_685\n        /* \"#utility.yul\":32723:32725   */\n      0x60\n        /* \"#utility.yul\":32712:32721   */\n      dup4\n        /* \"#utility.yul\":32708:32726   */\n      add\n        /* \"#utility.yul\":32699:32705   */\n      dup5\n        /* \"#utility.yul\":32655:32727   */\n      tag_612\n      jump\t// in\n    tag_685:\n        /* \"#utility.yul\":32193:32734   */\n      swap6\n      swap5\n      pop\n      pop\n      pop\n      pop\n      pop\n      jump\t// out\n        /* \"#utility.yul\":32740:34083   */\n    tag_87:\n        /* \"#utility.yul\":33153:33157   */\n      0x00\n        /* \"#utility.yul\":33191:33194   */\n      0xe0\n        /* \"#utility.yul\":33180:33189   */\n      dup3\n        /* \"#utility.yul\":33176:33195   */\n      add\n        /* \"#utility.yul\":33168:33195   */\n      swap1\n      pop\n        /* \"#utility.yul\":33205:33276   */\n      tag_687\n        /* \"#utility.yul\":33273:33274   */\n      0x00\n        /* \"#utility.yul\":33262:33271   */\n      dup4\n        /* \"#utility.yul\":33258:33275   */\n      add\n        /* \"#utility.yul\":33249:33255   */\n      dup12\n        /* \"#utility.yul\":33205:33276   */\n      tag_612\n      jump\t// in\n    tag_687:\n        /* \"#utility.yul\":33323:33332   */\n      dup2\n        /* \"#utility.yul\":33317:33321   */\n      dup2\n        /* \"#utility.yul\":33313:33333   */\n      sub\n        /* \"#utility.yul\":33308:33310   */\n      0x20\n        /* \"#utility.yul\":33297:33306   */\n      dup4\n        /* \"#utility.yul\":33293:33311   */\n      add\n        /* \"#utility.yul\":33286:33334   */\n      mstore\n        /* \"#utility.yul\":33351:33459   */\n      tag_688\n        /* \"#utility.yul\":33454:33458   */\n      dup2\n        /* \"#utility.yul\":33445:33451   */\n      dup11\n        /* \"#utility.yul\":33351:33459   */\n      tag_445\n      jump\t// in\n    tag_688:\n        /* \"#utility.yul\":33343:33459   */\n      swap1\n      pop\n        /* \"#utility.yul\":33469:33541   */\n      tag_689\n        /* \"#utility.yul\":33537:33539   */\n      0x40\n        /* \"#utility.yul\":33526:33535   */\n      dup4\n        /* \"#utility.yul\":33522:33540   */\n      add\n        /* \"#utility.yul\":33513:33519   */\n      dup10\n        /* \"#utility.yul\":33469:33541   */\n      tag_442\n      jump\t// in\n    tag_689:\n        /* \"#utility.yul\":33551:33623   */\n      tag_690\n        /* \"#utility.yul\":33619:33621   */\n      0x60\n        /* \"#utility.yul\":33608:33617   */\n      dup4\n        /* \"#utility.yul\":33604:33622   */\n      add\n        /* \"#utility.yul\":33595:33601   */\n      dup9\n        /* \"#utility.yul\":33551:33623   */\n      tag_612\n      jump\t// in\n    tag_690:\n        /* \"#utility.yul\":33633:33706   */\n      tag_691\n        /* \"#utility.yul\":33701:33704   */\n      0x80\n        /* \"#utility.yul\":33690:33699   */\n      dup4\n        /* \"#utility.yul\":33686:33705   */\n      add\n        /* \"#utility.yul\":33677:33683   */\n      dup8\n        /* \"#utility.yul\":33633:33706   */\n      tag_612\n      jump\t// in\n    tag_691:\n        /* \"#utility.yul\":33754:33763   */\n      dup2\n        /* \"#utility.yul\":33748:33752   */\n      dup2\n        /* \"#utility.yul\":33744:33764   */\n      sub\n        /* \"#utility.yul\":33738:33741   */\n      0xa0\n        /* \"#utility.yul\":33727:33736   */\n      dup4\n        /* \"#utility.yul\":33723:33742   */\n      add\n        /* \"#utility.yul\":33716:33765   */\n      mstore\n        /* \"#utility.yul\":33782:33860   */\n      tag_692\n        /* \"#utility.yul\":33855:33859   */\n      dup2\n        /* \"#utility.yul\":33846:33852   */\n      dup7\n        /* \"#utility.yul\":33782:33860   */\n      tag_488\n      jump\t// in\n    tag_692:\n        /* \"#utility.yul\":33774:33860   */\n      swap1\n      pop\n        /* \"#utility.yul\":33908:33917   */\n      dup2\n        /* \"#utility.yul\":33902:33906   */\n      dup2\n        /* \"#utility.yul\":33898:33918   */\n      sub\n        /* \"#utility.yul\":33892:33895   */\n      0xc0\n        /* \"#utility.yul\":33881:33890   */\n      dup4\n        /* \"#utility.yul\":33877:33896   */\n      add\n        /* \"#utility.yul\":33870:33919   */\n      mstore\n        /* \"#utility.yul\":33936:34076   */\n      tag_693\n        /* \"#utility.yul\":34071:34075   */\n      dup2\n        /* \"#utility.yul\":34062:34068   */\n      dup5\n        /* \"#utility.yul\":34054:34060   */\n      dup7\n        /* \"#utility.yul\":33936:34076   */\n      tag_459\n      jump\t// in\n    tag_693:\n        /* \"#utility.yul\":33928:34076   */\n      swap1\n      pop\n        /* \"#utility.yul\":32740:34083   */\n      swap10\n      swap9\n      pop\n      pop\n      pop\n      pop\n      pop\n      pop\n      pop\n      pop\n      pop\n      jump\t// out\n        /* \"#utility.yul\":34089:34303   */\n    tag_31:\n        /* \"#utility.yul\":34178:34182   */\n      0x00\n        /* \"#utility.yul\":34216:34218   */\n      0x20\n        /* \"#utility.yul\":34205:34214   */\n      dup3\n        /* \"#utility.yul\":34201:34219   */\n      add\n        /* \"#utility.yul\":34193:34219   */\n      swap1\n      pop\n        /* \"#utility.yul\":34229:34296   */\n      tag_695\n        /* \"#utility.yul\":34293:34294   */\n      0x00\n        /* \"#utility.yul\":34282:34291   */\n      dup4\n        /* \"#utility.yul\":34278:34295   */\n      add\n        /* \"#utility.yul\":34269:34275   */\n      dup5\n        /* \"#utility.yul\":34229:34296   */\n      tag_616\n      jump\t// in\n    tag_695:\n        /* \"#utility.yul\":34089:34303   */\n      swap3\n      swap2\n      pop\n      pop\n      jump\t// out\n        /* \"#utility.yul\":34309:35034   */\n    tag_166:\n        /* \"#utility.yul\":34387:34391   */\n      0x00\n        /* \"#utility.yul\":34393:34399   */\n      dup1\n        /* \"#utility.yul\":34449:34460   */\n      dup4\n        /* \"#utility.yul\":34436:34461   */\n      calldataload\n        /* \"#utility.yul\":34549:34550   */\n      0x01\n        /* \"#utility.yul\":34543:34547   */\n      0x20\n        /* \"#utility.yul\":34539:34551   */\n      sub\n        /* \"#utility.yul\":34528:34536   */\n      dup5\n        /* \"#utility.yul\":34512:34526   */\n      calldatasize\n        /* \"#utility.yul\":34508:34537   */\n      sub\n        /* \"#utility.yul\":34504:34552   */\n      sub\n        /* \"#utility.yul\":34484:34502   */\n      dup2\n        /* \"#utility.yul\":34480:34553   */\n      slt\n        /* \"#utility.yul\":34470:34638   */\n      tag_697\n      jumpi\n        /* \"#utility.yul\":34557:34636   */\n      tag_698\n      tag_699\n      jump\t// in\n    tag_698:\n        /* \"#utility.yul\":34470:34638   */\n    tag_697:\n        /* \"#utility.yul\":34669:34687   */\n      dup1\n        /* \"#utility.yul\":34659:34667   */\n      dup5\n        /* \"#utility.yul\":34655:34688   */\n      add\n        /* \"#utility.yul\":34647:34688   */\n      swap3\n      pop\n        /* \"#utility.yul\":34721:34725   */\n      dup3\n        /* \"#utility.yul\":34708:34726   */\n      calldataload\n        /* \"#utility.yul\":34698:34726   */\n      swap2\n      pop\n        /* \"#utility.yul\":34749:34767   */\n      0xffffffffffffffff\n        /* \"#utility.yul\":34741:34747   */\n      dup3\n        /* \"#utility.yul\":34738:34768   */\n      gt\n        /* \"#utility.yul\":34735:34852   */\n      iszero\n      tag_700\n      jumpi\n        /* \"#utility.yul\":34771:34850   */\n      tag_701\n      tag_702\n      jump\t// in\n    tag_701:\n        /* \"#utility.yul\":34735:34852   */\n    tag_700:\n        /* \"#utility.yul\":34879:34881   */\n      0x20\n        /* \"#utility.yul\":34873:34877   */\n      dup4\n        /* \"#utility.yul\":34869:34882   */\n      add\n        /* \"#utility.yul\":34861:34882   */\n      swap3\n      pop\n        /* \"#utility.yul\":34936:34940   */\n      0x01\n        /* \"#utility.yul\":34928:34934   */\n      dup3\n        /* \"#utility.yul\":34924:34941   */\n      mul\n        /* \"#utility.yul\":34908:34922   */\n      calldatasize\n        /* \"#utility.yul\":34904:34942   */\n      sub\n        /* \"#utility.yul\":34898:34902   */\n      dup4\n        /* \"#utility.yul\":34894:34943   */\n      sgt\n        /* \"#utility.yul\":34891:35027   */\n      iszero\n      tag_703\n      jumpi\n        /* \"#utility.yul\":34946:35025   */\n      tag_704\n      tag_705\n      jump\t// in\n    tag_704:\n        /* \"#utility.yul\":34891:35027   */\n    tag_703:\n        /* \"#utility.yul\":34400:35034   */\n      pop\n        /* \"#utility.yul\":34309:35034   */\n      swap3\n      pop\n      swap3\n      swap1\n      pop\n      jump\t// out\n        /* \"#utility.yul\":35040:35169   */\n    tag_309:\n        /* \"#utility.yul\":35074:35080   */\n      0x00\n        /* \"#utility.yul\":35101:35121   */\n      tag_707\n      tag_708\n      jump\t// in\n    tag_707:\n        /* \"#utility.yul\":35091:35121   */\n      swap1\n      pop\n        /* \"#utility.yul\":35130:35163   */\n      tag_709\n        /* \"#utility.yul\":35158:35162   */\n      dup3\n        /* \"#utility.yul\":35150:35156   */\n      dup3\n        /* \"#utility.yul\":35130:35163   */\n      tag_710\n      jump\t// in\n    tag_709:\n        /* \"#utility.yul\":35040:35169   */\n      swap2\n      swap1\n      pop\n      jump\t// out\n        /* \"#utility.yul\":35175:35250   */\n    tag_708:\n        /* \"#utility.yul\":35208:35214   */\n      0x00\n        /* \"#utility.yul\":35241:35243   */\n      0x40\n        /* \"#utility.yul\":35235:35244   */\n      mload\n        /* \"#utility.yul\":35225:35244   */\n      swap1\n      pop\n        /* \"#utility.yul\":35175:35250   */\n      swap1\n      jump\t// out\n        /* \"#utility.yul\":35256:35567   */\n    tag_308:\n        /* \"#utility.yul\":35333:35337   */\n      0x00\n        /* \"#utility.yul\":35423:35441   */\n      0xffffffffffffffff\n        /* \"#utility.yul\":35415:35421   */\n      dup3\n        /* \"#utility.yul\":35412:35442   */\n      gt\n        /* \"#utility.yul\":35409:35465   */\n      iszero\n      tag_713\n      jumpi\n        /* \"#utility.yul\":35445:35463   */\n      tag_714\n      tag_715\n      jump\t// in\n    tag_714:\n        /* \"#utility.yul\":35409:35465   */\n    tag_713:\n        /* \"#utility.yul\":35495:35499   */\n      0x20\n        /* \"#utility.yul\":35487:35493   */\n      dup3\n        /* \"#utility.yul\":35483:35500   */\n      mul\n        /* \"#utility.yul\":35475:35500   */\n      swap1\n      pop\n        /* \"#utility.yul\":35555:35559   */\n      0x20\n        /* \"#utility.yul\":35549:35553   */\n      dup2\n        /* \"#utility.yul\":35545:35560   */\n      add\n        /* \"#utility.yul\":35537:35560   */\n      swap1\n      pop\n        /* \"#utility.yul\":35256:35567   */\n      swap2\n      swap1\n      pop\n      jump\t// out\n        /* \"#utility.yul\":35573:35894   */\n    tag_322:\n        /* \"#utility.yul\":35660:35664   */\n      0x00\n        /* \"#utility.yul\":35750:35768   */\n      0xffffffffffffffff\n        /* \"#utility.yul\":35742:35748   */\n      dup3\n        /* \"#utility.yul\":35739:35769   */\n      gt\n        /* \"#utility.yul\":35736:35792   */\n      iszero\n      tag_717\n      jumpi\n        /* \"#utility.yul\":35772:35790   */\n      tag_718\n      tag_715\n      jump\t// in\n    tag_718:\n        /* \"#utility.yul\":35736:35792   */\n    tag_717:\n        /* \"#utility.yul\":35822:35826   */\n      0x20\n        /* \"#utility.yul\":35814:35820   */\n      dup3\n        /* \"#utility.yul\":35810:35827   */\n      mul\n        /* \"#utility.yul\":35802:35827   */\n      swap1\n      pop\n        /* \"#utility.yul\":35882:35886   */\n      0x20\n        /* \"#utility.yul\":35876:35880   */\n      dup2\n        /* \"#utility.yul\":35872:35887   */\n      add\n        /* \"#utility.yul\":35864:35887   */\n      swap1\n      pop\n        /* \"#utility.yul\":35573:35894   */\n      swap2\n      swap1\n      pop\n      jump\t// out\n        /* \"#utility.yul\":35900:36211   */\n    tag_337:\n        /* \"#utility.yul\":35977:35981   */\n      0x00\n        /* \"#utility.yul\":36067:36085   */\n      0xffffffffffffffff\n        /* \"#utility.yul\":36059:36065   */\n      dup3\n        /* \"#utility.yul\":36056:36086   */\n      gt\n        /* \"#utility.yul\":36053:36109   */\n      iszero\n      tag_720\n      jumpi\n        /* \"#utility.yul\":36089:36107   */\n      tag_721\n      tag_715\n      jump\t// in\n    tag_721:\n        /* \"#utility.yul\":36053:36109   */\n    tag_720:\n        /* \"#utility.yul\":36139:36143   */\n      0x20\n        /* \"#utility.yul\":36131:36137   */\n      dup3\n        /* \"#utility.yul\":36127:36144   */\n      mul\n        /* \"#utility.yul\":36119:36144   */\n      swap1\n      pop\n        /* \"#utility.yul\":36199:36203   */\n      0x20\n        /* \"#utility.yul\":36193:36197   */\n      dup2\n        /* \"#utility.yul\":36189:36204   */\n      add\n        /* \"#utility.yul\":36181:36204   */\n      swap1\n      pop\n        /* \"#utility.yul\":35900:36211   */\n      swap2\n      swap1\n      pop\n      jump\t// out\n        /* \"#utility.yul\":36217:36525   */\n    tag_349:\n        /* \"#utility.yul\":36279:36283   */\n      0x00\n        /* \"#utility.yul\":36369:36387   */\n      0xffffffffffffffff\n        /* \"#utility.yul\":36361:36367   */\n      dup3\n        /* \"#utility.yul\":36358:36388   */\n      gt\n        /* \"#utility.yul\":36355:36411   */\n      iszero\n      tag_723\n      jumpi\n        /* \"#utility.yul\":36391:36409   */\n      tag_724\n      tag_715\n      jump\t// in\n    tag_724:\n        /* \"#utility.yul\":36355:36411   */\n    tag_723:\n        /* \"#utility.yul\":36429:36458   */\n      tag_725\n        /* \"#utility.yul\":36451:36457   */\n      dup3\n        /* \"#utility.yul\":36429:36458   */\n      tag_482\n      jump\t// in\n    tag_725:\n        /* \"#utility.yul\":36421:36458   */\n      swap1\n      pop\n        /* \"#utility.yul\":36513:36517   */\n      0x20\n        /* \"#utility.yul\":36507:36511   */\n      dup2\n        /* \"#utility.yul\":36503:36518   */\n      add\n        /* \"#utility.yul\":36495:36518   */\n      swap1\n      pop\n        /* \"#utility.yul\":36217:36525   */\n      swap2\n      swap1\n      pop\n      jump\t// out\n        /* \"#utility.yul\":36531:36663   */\n    tag_452:\n        /* \"#utility.yul\":36598:36602   */\n      0x00\n        /* \"#utility.yul\":36621:36624   */\n      dup2\n        /* \"#utility.yul\":36613:36624   */\n      swap1\n      pop\n        /* \"#utility.yul\":36651:36655   */\n      0x20\n        /* \"#utility.yul\":36646:36649   */\n      dup3\n        /* \"#utility.yul\":36642:36656   */\n      add\n        /* \"#utility.yul\":36634:36656   */\n      swap1\n      pop\n        /* \"#utility.yul\":36531:36663   */\n      swap2\n      swap1\n      pop\n      jump\t// out\n        /* \"#utility.yul\":36669:36783   */\n    tag_464:\n        /* \"#utility.yul\":36750:36754   */\n      0x00\n        /* \"#utility.yul\":36773:36776   */\n      dup2\n        /* \"#utility.yul\":36765:36776   */\n      swap1\n      pop\n        /* \"#utility.yul\":36669:36783   */\n      swap2\n      swap1\n      pop\n      jump\t// out\n        /* \"#utility.yul\":36789:36930   */\n    tag_510:\n        /* \"#utility.yul\":36838:36842   */\n      0x00\n        /* \"#utility.yul\":36861:36864   */\n      dup2\n        /* \"#utility.yul\":36853:36864   */\n      swap1\n      pop\n        /* \"#utility.yul\":36884:36887   */\n      dup2\n        /* \"#utility.yul\":36881:36882   */\n      0x00\n        /* \"#utility.yul\":36874:36888   */\n      mstore\n        /* \"#utility.yul\":36918:36922   */\n      0x20\n        /* \"#utility.yul\":36915:36916   */\n      0x00\n        /* \"#utility.yul\":36905:36923   */\n      keccak256\n        /* \"#utility.yul\":36897:36923   */\n      swap1\n      pop\n        /* \"#utility.yul\":36789:36930   */\n      swap2\n      swap1\n      pop\n      jump\t// out\n        /* \"#utility.yul\":36936:37050   */\n    tag_448:\n        /* \"#utility.yul\":37003:37009   */\n      0x00\n        /* \"#utility.yul\":37037:37042   */\n      dup2\n        /* \"#utility.yul\":37031:37043   */\n      mload\n        /* \"#utility.yul\":37021:37043   */\n      swap1\n      pop\n        /* \"#utility.yul\":36936:37050   */\n      swap2\n      swap1\n      pop\n      jump\t// out\n        /* \"#utility.yul\":37056:37155   */\n    tag_491:\n        /* \"#utility.yul\":37108:37114   */\n      0x00\n        /* \"#utility.yul\":37142:37147   */\n      dup2\n        /* \"#utility.yul\":37136:37148   */\n      mload\n        /* \"#utility.yul\":37126:37148   */\n      swap1\n      pop\n        /* \"#utility.yul\":37056:37155   */\n      swap2\n      swap1\n      pop\n      jump\t// out\n        /* \"#utility.yul\":37161:37274   */\n    tag_458:\n        /* \"#utility.yul\":37231:37235   */\n      0x00\n        /* \"#utility.yul\":37263:37267   */\n      0x20\n        /* \"#utility.yul\":37258:37261   */\n      dup3\n        /* \"#utility.yul\":37254:37268   */\n      add\n        /* \"#utility.yul\":37246:37268   */\n      swap1\n      pop\n        /* \"#utility.yul\":37161:37274   */\n      swap2\n      swap1\n      pop\n      jump\t// out\n        /* \"#utility.yul\":37280:37407   */\n    tag_472:\n        /* \"#utility.yul\":37364:37368   */\n      0x00\n        /* \"#utility.yul\":37396:37400   */\n      0x20\n        /* \"#utility.yul\":37391:37394   */\n      dup3\n        /* \"#utility.yul\":37387:37401   */\n      add\n        /* \"#utility.yul\":37379:37401   */\n      swap1\n      pop\n        /* \"#utility.yul\":37280:37407   */\n      swap2\n      swap1\n      pop\n      jump\t// out\n        /* \"#utility.yul\":37413:37597   */\n    tag_450:\n        /* \"#utility.yul\":37512:37523   */\n      0x00\n        /* \"#utility.yul\":37546:37552   */\n      dup3\n        /* \"#utility.yul\":37541:37544   */\n      dup3\n        /* \"#utility.yul\":37534:37553   */\n      mstore\n        /* \"#utility.yul\":37586:37590   */\n      0x20\n        /* \"#utility.yul\":37581:37584   */\n      dup3\n        /* \"#utility.yul\":37577:37591   */\n      add\n        /* \"#utility.yul\":37562:37591   */\n      swap1\n      pop\n        /* \"#utility.yul\":37413:37597   */\n      swap3\n      swap2\n      pop\n      pop\n      jump\t// out\n        /* \"#utility.yul\":37603:37797   */\n    tag_462:\n        /* \"#utility.yul\":37712:37723   */\n      0x00\n        /* \"#utility.yul\":37746:37752   */\n      dup3\n        /* \"#utility.yul\":37741:37744   */\n      dup3\n        /* \"#utility.yul\":37734:37753   */\n      mstore\n        /* \"#utility.yul\":37786:37790   */\n      0x20\n        /* \"#utility.yul\":37781:37784   */\n      dup3\n        /* \"#utility.yul\":37777:37791   */\n      add\n        /* \"#utility.yul\":37762:37791   */\n      swap1\n      pop\n        /* \"#utility.yul\":37603:37797   */\n      swap3\n      swap2\n      pop\n      pop\n      jump\t// out\n        /* \"#utility.yul\":37803:37962   */\n    tag_479:\n        /* \"#utility.yul\":37877:37888   */\n      0x00\n        /* \"#utility.yul\":37911:37917   */\n      dup3\n        /* \"#utility.yul\":37906:37909   */\n      dup3\n        /* \"#utility.yul\":37899:37918   */\n      mstore\n        /* \"#utility.yul\":37951:37955   */\n      0x20\n        /* \"#utility.yul\":37946:37949   */\n      dup3\n        /* \"#utility.yul\":37942:37956   */\n      add\n        /* \"#utility.yul\":37927:37956   */\n      swap1\n      pop\n        /* \"#utility.yul\":37803:37962   */\n      swap3\n      swap2\n      pop\n      pop\n      jump\t// out\n        /* \"#utility.yul\":37968:38137   */\n    tag_493:\n        /* \"#utility.yul\":38052:38063   */\n      0x00\n        /* \"#utility.yul\":38086:38092   */\n      dup3\n        /* \"#utility.yul\":38081:38084   */\n      dup3\n        /* \"#utility.yul\":38074:38093   */\n      mstore\n        /* \"#utility.yul\":38126:38130   */\n      0x20\n        /* \"#utility.yul\":38121:38124   */\n      dup3\n        /* \"#utility.yul\":38117:38131   */\n      add\n        /* \"#utility.yul\":38102:38131   */\n      swap1\n      pop\n        /* \"#utility.yul\":37968:38137   */\n      swap3\n      swap2\n      pop\n      pop\n      jump\t// out\n        /* \"#utility.yul\":38143:38291   */\n    tag_486:\n        /* \"#utility.yul\":38245:38256   */\n      0x00\n        /* \"#utility.yul\":38282:38285   */\n      dup2\n        /* \"#utility.yul\":38267:38285   */\n      swap1\n      pop\n        /* \"#utility.yul\":38143:38291   */\n      swap3\n      swap2\n      pop\n      pop\n      jump\t// out\n        /* \"#utility.yul\":38297:39012   */\n    tag_469:\n        /* \"#utility.yul\":38362:38367   */\n      0x00\n        /* \"#utility.yul\":38369:38375   */\n      dup1\n        /* \"#utility.yul\":38425:38428   */\n      dup4\n        /* \"#utility.yul\":38412:38429   */\n      calldataload\n        /* \"#utility.yul\":38517:38518   */\n      0x01\n        /* \"#utility.yul\":38511:38515   */\n      0x20\n        /* \"#utility.yul\":38507:38519   */\n      sub\n        /* \"#utility.yul\":38496:38504   */\n      dup5\n        /* \"#utility.yul\":38480:38494   */\n      calldatasize\n        /* \"#utility.yul\":38476:38505   */\n      sub\n        /* \"#utility.yul\":38472:38520   */\n      sub\n        /* \"#utility.yul\":38452:38470   */\n      dup2\n        /* \"#utility.yul\":38448:38521   */\n      slt\n        /* \"#utility.yul\":38438:38606   */\n      tag_739\n      jumpi\n        /* \"#utility.yul\":38525:38604   */\n      tag_740\n      tag_741\n      jump\t// in\n    tag_740:\n        /* \"#utility.yul\":38438:38606   */\n    tag_739:\n        /* \"#utility.yul\":38648:38656   */\n      dup4\n        /* \"#utility.yul\":38628:38646   */\n      dup2\n        /* \"#utility.yul\":38624:38657   */\n      add\n        /* \"#utility.yul\":38615:38657   */\n      swap3\n      pop\n        /* \"#utility.yul\":38690:38695   */\n      dup3\n        /* \"#utility.yul\":38677:38696   */\n      calldataload\n        /* \"#utility.yul\":38667:38696   */\n      swap2\n      pop\n        /* \"#utility.yul\":38725:38729   */\n      0x20\n        /* \"#utility.yul\":38718:38723   */\n      dup4\n        /* \"#utility.yul\":38714:38730   */\n      add\n        /* \"#utility.yul\":38705:38730   */\n      swap3\n      pop\n        /* \"#utility.yul\":38753:38771   */\n      0xffffffffffffffff\n        /* \"#utility.yul\":38745:38751   */\n      dup3\n        /* \"#utility.yul\":38742:38772   */\n      gt\n        /* \"#utility.yul\":38739:38856   */\n      iszero\n      tag_742\n      jumpi\n        /* \"#utility.yul\":38775:38854   */\n      tag_743\n      tag_744\n      jump\t// in\n    tag_743:\n        /* \"#utility.yul\":38739:38856   */\n    tag_742:\n        /* \"#utility.yul\":38914:38918   */\n      0x01\n        /* \"#utility.yul\":38906:38912   */\n      dup3\n        /* \"#utility.yul\":38902:38919   */\n      mul\n        /* \"#utility.yul\":38886:38900   */\n      calldatasize\n        /* \"#utility.yul\":38882:38920   */\n      sub\n        /* \"#utility.yul\":38872:38880   */\n      dup5\n        /* \"#utility.yul\":38868:38921   */\n      sgt\n        /* \"#utility.yul\":38865:39005   */\n      iszero\n      tag_745\n      jumpi\n        /* \"#utility.yul\":38924:39003   */\n      tag_746\n      tag_747\n      jump\t// in\n    tag_746:\n        /* \"#utility.yul\":38865:39005   */\n    tag_745:\n        /* \"#utility.yul\":38376:39012   */\n      pop\n        /* \"#utility.yul\":38297:39012   */\n      swap3\n      pop\n      swap3\n      swap1\n      pop\n      jump\t// out\n        /* \"#utility.yul\":39018:39260   */\n    tag_246:\n        /* \"#utility.yul\":39057:39060   */\n      0x00\n        /* \"#utility.yul\":39076:39095   */\n      tag_749\n        /* \"#utility.yul\":39093:39094   */\n      dup3\n        /* \"#utility.yul\":39076:39095   */\n      tag_611\n      jump\t// in\n    tag_749:\n        /* \"#utility.yul\":39071:39095   */\n      swap2\n      pop\n        /* \"#utility.yul\":39109:39128   */\n      tag_750\n        /* \"#utility.yul\":39126:39127   */\n      dup4\n        /* \"#utility.yul\":39109:39128   */\n      tag_611\n      jump\t// in\n    tag_750:\n        /* \"#utility.yul\":39104:39128   */\n      swap3\n      pop\n        /* \"#utility.yul\":39202:39203   */\n      dup3\n        /* \"#utility.yul\":39194:39200   */\n      0xffff\n        /* \"#utility.yul\":39190:39204   */\n      sub\n        /* \"#utility.yul\":39187:39188   */\n      dup3\n        /* \"#utility.yul\":39184:39205   */\n      gt\n        /* \"#utility.yul\":39181:39228   */\n      iszero\n      tag_751\n      jumpi\n        /* \"#utility.yul\":39208:39226   */\n      tag_752\n      tag_753\n      jump\t// in\n    tag_752:\n        /* \"#utility.yul\":39181:39228   */\n    tag_751:\n        /* \"#utility.yul\":39252:39253   */\n      dup3\n        /* \"#utility.yul\":39249:39250   */\n      dup3\n        /* \"#utility.yul\":39245:39254   */\n      add\n        /* \"#utility.yul\":39238:39254   */\n      swap1\n      pop\n        /* \"#utility.yul\":39018:39260   */\n      swap3\n      swap2\n      pop\n      pop\n      jump\t// out\n        /* \"#utility.yul\":39266:39571   */\n    tag_134:\n        /* \"#utility.yul\":39306:39309   */\n      0x00\n        /* \"#utility.yul\":39325:39345   */\n      tag_755\n        /* \"#utility.yul\":39343:39344   */\n      dup3\n        /* \"#utility.yul\":39325:39345   */\n      tag_615\n      jump\t// in\n    tag_755:\n        /* \"#utility.yul\":39320:39345   */\n      swap2\n      pop\n        /* \"#utility.yul\":39359:39379   */\n      tag_756\n        /* \"#utility.yul\":39377:39378   */\n      dup4\n        /* \"#utility.yul\":39359:39379   */\n      tag_615\n      jump\t// in\n    tag_756:\n        /* \"#utility.yul\":39354:39379   */\n      swap3\n      pop\n        /* \"#utility.yul\":39513:39514   */\n      dup3\n        /* \"#utility.yul\":39445:39511   */\n      0xffffffffffffffffffffffffffffffffffffffffffffffffffffffffffffffff\n        /* \"#utility.yul\":39441:39515   */\n      sub\n        /* \"#utility.yul\":39438:39439   */\n      dup3\n        /* \"#utility.yul\":39435:39516   */\n      gt\n        /* \"#utility.yul\":39432:39539   */\n      iszero\n      tag_757\n      jumpi\n        /* \"#utility.yul\":39519:39537   */\n      tag_758\n      tag_753\n      jump\t// in\n    tag_758:\n        /* \"#utility.yul\":39432:39539   */\n    tag_757:\n        /* \"#utility.yul\":39563:39564   */\n      dup3\n        /* \"#utility.yul\":39560:39561   */\n      dup3\n        /* \"#utility.yul\":39556:39565   */\n      add\n        /* \"#utility.yul\":39549:39565   */\n      swap1\n      pop\n        /* \"#utility.yul\":39266:39571   */\n      swap3\n      swap2\n      pop\n      pop\n      jump\t// out\n        /* \"#utility.yul\":39577:39925   */\n    tag_132:\n        /* \"#utility.yul\":39617:39624   */\n      0x00\n        /* \"#utility.yul\":39640:39660   */\n      tag_760\n        /* \"#utility.yul\":39658:39659   */\n      dup3\n        /* \"#utility.yul\":39640:39660   */\n      tag_615\n      jump\t// in\n    tag_760:\n        /* \"#utility.yul\":39635:39660   */\n      swap2\n      pop\n        /* \"#utility.yul\":39674:39694   */\n      tag_761\n        /* \"#utility.yul\":39692:39693   */\n      dup4\n        /* \"#utility.yul\":39674:39694   */\n      tag_615\n      jump\t// in\n    tag_761:\n        /* \"#utility.yul\":39669:39694   */\n      swap3\n      pop\n        /* \"#utility.yul\":39862:39863   */\n      dup2\n        /* \"#utility.yul\":39794:39860   */\n      0xffffffffffffffffffffffffffffffffffffffffffffffffffffffffffffffff\n        /* \"#utility.yul\":39790:39864   */\n      div\n        /* \"#utility.yul\":39787:39788   */\n      dup4\n        /* \"#utility.yul\":39784:39865   */\n      gt\n        /* \"#utility.yul\":39779:39780   */\n      dup3\n        /* \"#utility.yul\":39772:39781   */\n      iszero\n        /* \"#utility.yul\":39765:39782   */\n      iszero\n        /* \"#utility.yul\":39761:39866   */\n      and\n        /* \"#utility.yul\":39758:39889   */\n      iszero\n      tag_762\n      jumpi\n        /* \"#utility.yul\":39869:39887   */\n      tag_763\n      tag_753\n      jump\t// in\n    tag_763:\n        /* \"#utility.yul\":39758:39889   */\n    tag_762:\n        /* \"#utility.yul\":39917:39918   */\n      dup3\n        /* \"#utility.yul\":39914:39915   */\n      dup3\n        /* \"#utility.yul\":39910:39919   */\n      mul\n        /* \"#utility.yul\":39899:39919   */\n      swap1\n      pop\n        /* \"#utility.yul\":39577:39925   */\n      swap3\n      swap2\n      pop\n      pop\n      jump\t// out\n        /* \"#utility.yul\":39931:40122   */\n    tag_277:\n        /* \"#utility.yul\":39971:39975   */\n      0x00\n        /* \"#utility.yul\":39991:40011   */\n      tag_765\n        /* \"#utility.yul\":40009:40010   */\n      dup3\n        /* \"#utility.yul\":39991:40011   */\n      tag_615\n      jump\t// in\n    tag_765:\n        /* \"#utility.yul\":39986:40011   */\n      swap2\n      pop\n        /* \"#utility.yul\":40025:40045   */\n      tag_766\n        /* \"#utility.yul\":40043:40044   */\n      dup4\n        /* \"#utility.yul\":40025:40045   */\n      tag_615\n      jump\t// in\n    tag_766:\n        /* \"#utility.yul\":40020:40045   */\n      swap3\n      pop\n        /* \"#utility.yul\":40064:40065   */\n      dup3\n        /* \"#utility.yul\":40061:40062   */\n      dup3\n        /* \"#utility.yul\":40058:40066   */\n      lt\n        /* \"#utility.yul\":40055:40089   */\n      iszero\n      tag_767\n      jumpi\n        /* \"#utility.yul\":40069:40087   */\n      tag_768\n      tag_753\n      jump\t// in\n    tag_768:\n        /* \"#utility.yul\":40055:40089   */\n    tag_767:\n        /* \"#utility.yul\":40114:40115   */\n      dup3\n        /* \"#utility.yul\":40111:40112   */\n      dup3\n        /* \"#utility.yul\":40107:40116   */\n      sub\n        /* \"#utility.yul\":40099:40116   */\n      swap1\n      pop\n        /* \"#utility.yul\":39931:40122   */\n      swap3\n      swap2\n      pop\n      pop\n      jump\t// out\n        /* \"#utility.yul\":40128:40224   */\n    tag_441:\n        /* \"#utility.yul\":40165:40172   */\n      0x00\n        /* \"#utility.yul\":40194:40218   */\n      tag_770\n        /* \"#utility.yul\":40212:40217   */\n      dup3\n        /* \"#utility.yul\":40194:40218   */\n      tag_771\n      jump\t// in\n    tag_770:\n        /* \"#utility.yul\":40183:40218   */\n      swap1\n      pop\n        /* \"#utility.yul\":40128:40224   */\n      swap2\n      swap1\n      pop\n      jump\t// out\n        /* \"#utility.yul\":40230:40320   */\n    tag_476:\n        /* \"#utility.yul\":40264:40271   */\n      0x00\n        /* \"#utility.yul\":40307:40312   */\n      dup2\n        /* \"#utility.yul\":40300:40313   */\n      iszero\n        /* \"#utility.yul\":40293:40314   */\n      iszero\n        /* \"#utility.yul\":40282:40314   */\n      swap1\n      pop\n        /* \"#utility.yul\":40230:40320   */\n      swap2\n      swap1\n      pop\n      jump\t// out\n        /* \"#utility.yul\":40326:40444   */\n    tag_607:\n        /* \"#utility.yul\":40363:40370   */\n      0x00\n        /* \"#utility.yul\":40403:40437   */\n      0xffffffffffffffffffffffffffffffff\n        /* \"#utility.yul\":40396:40401   */\n      dup3\n        /* \"#utility.yul\":40392:40438   */\n      and\n        /* \"#utility.yul\":40381:40438   */\n      swap1\n      pop\n        /* \"#utility.yul\":40326:40444   */\n      swap2\n      swap1\n      pop\n      jump\t// out\n        /* \"#utility.yul\":40450:40539   */\n    tag_611:\n        /* \"#utility.yul\":40486:40493   */\n      0x00\n        /* \"#utility.yul\":40526:40532   */\n      0xffff\n        /* \"#utility.yul\":40519:40524   */\n      dup3\n        /* \"#utility.yul\":40515:40533   */\n      and\n        /* \"#utility.yul\":40504:40533   */\n      swap1\n      pop\n        /* \"#utility.yul\":40450:40539   */\n      swap2\n      swap1\n      pop\n      jump\t// out\n        /* \"#utility.yul\":40545:40671   */\n    tag_771:\n        /* \"#utility.yul\":40582:40589   */\n      0x00\n        /* \"#utility.yul\":40622:40664   */\n      0xffffffffffffffffffffffffffffffffffffffff\n        /* \"#utility.yul\":40615:40620   */\n      dup3\n        /* \"#utility.yul\":40611:40665   */\n      and\n        /* \"#utility.yul\":40600:40665   */\n      swap1\n      pop\n        /* \"#utility.yul\":40545:40671   */\n      swap2\n      swap1\n      pop\n      jump\t// out\n        /* \"#utility.yul\":40677:40754   */\n    tag_615:\n        /* \"#utility.yul\":40714:40721   */\n      0x00\n        /* \"#utility.yul\":40743:40748   */\n      dup2\n        /* \"#utility.yul\":40732:40748   */\n      swap1\n      pop\n        /* \"#utility.yul\":40677:40754   */\n      swap2\n      swap1\n      pop\n      jump\t// out\n        /* \"#utility.yul\":40760:40846   */\n    tag_619:\n        /* \"#utility.yul\":40795:40802   */\n      0x00\n        /* \"#utility.yul\":40835:40839   */\n      0xff\n        /* \"#utility.yul\":40828:40833   */\n      dup3\n        /* \"#utility.yul\":40824:40840   */\n      and\n        /* \"#utility.yul\":40813:40840   */\n      swap1\n      pop\n        /* \"#utility.yul\":40760:40846   */\n      swap2\n      swap1\n      pop\n      jump\t// out\n        /* \"#utility.yul\":40852:41006   */\n    tag_354:\n        /* \"#utility.yul\":40936:40942   */\n      dup3\n        /* \"#utility.yul\":40931:40934   */\n      dup2\n        /* \"#utility.yul\":40926:40929   */\n      dup4\n        /* \"#utility.yul\":40913:40943   */\n      calldatacopy\n        /* \"#utility.yul\":40998:40999   */\n      0x00\n        /* \"#utility.yul\":40989:40995   */\n      dup4\n        /* \"#utility.yul\":40984:40987   */\n      dup4\n        /* \"#utility.yul\":40980:40996   */\n      add\n        /* \"#utility.yul\":40973:41000   */\n      mstore\n        /* \"#utility.yul\":40852:41006   */\n      pop\n      pop\n      pop\n      jump\t// out\n        /* \"#utility.yul\":41012:41319   */\n    tag_495:\n        /* \"#utility.yul\":41080:41081   */\n      0x00\n        /* \"#utility.yul\":41090:41203   */\n    tag_780:\n        /* \"#utility.yul\":41104:41110   */\n      dup4\n        /* \"#utility.yul\":41101:41102   */\n      dup2\n        /* \"#utility.yul\":41098:41111   */\n      lt\n        /* \"#utility.yul\":41090:41203   */\n      iszero\n      tag_782\n      jumpi\n        /* \"#utility.yul\":41189:41190   */\n      dup1\n        /* \"#utility.yul\":41184:41187   */\n      dup3\n        /* \"#utility.yul\":41180:41191   */\n      add\n        /* \"#utility.yul\":41174:41192   */\n      mload\n        /* \"#utility.yul\":41170:41171   */\n      dup2\n        /* \"#utility.yul\":41165:41168   */\n      dup5\n        /* \"#utility.yul\":41161:41172   */\n      add\n        /* \"#utility.yul\":41154:41193   */\n      mstore\n        /* \"#utility.yul\":41126:41128   */\n      0x20\n        /* \"#utility.yul\":41123:41124   */\n      dup2\n        /* \"#utility.yul\":41119:41129   */\n      add\n        /* \"#utility.yul\":41114:41129   */\n      swap1\n      pop\n        /* \"#utility.yul\":41090:41203   */\n      jump(tag_780)\n    tag_782:\n        /* \"#utility.yul\":41221:41227   */\n      dup4\n        /* \"#utility.yul\":41218:41219   */\n      dup2\n        /* \"#utility.yul\":41215:41228   */\n      gt\n        /* \"#utility.yul\":41212:41313   */\n      iszero\n      tag_783\n      jumpi\n        /* \"#utility.yul\":41301:41302   */\n      0x00\n        /* \"#utility.yul\":41292:41298   */\n      dup5\n        /* \"#utility.yul\":41287:41290   */\n      dup5\n        /* \"#utility.yul\":41283:41299   */\n      add\n        /* \"#utility.yul\":41276:41303   */\n      mstore\n        /* \"#utility.yul\":41212:41313   */\n    tag_783:\n        /* \"#utility.yul\":41061:41319   */\n      pop\n        /* \"#utility.yul\":41012:41319   */\n      pop\n      pop\n      pop\n      jump\t// out\n        /* \"#utility.yul\":41325:41645   */\n    tag_59:\n        /* \"#utility.yul\":41369:41375   */\n      0x00\n        /* \"#utility.yul\":41406:41407   */\n      0x02\n        /* \"#utility.yul\":41400:41404   */\n      dup3\n        /* \"#utility.yul\":41396:41408   */\n      div\n        /* \"#utility.yul\":41386:41408   */\n      swap1\n      pop\n        /* \"#utility.yul\":41453:41454   */\n      0x01\n        /* \"#utility.yul\":41447:41451   */\n      dup3\n        /* \"#utility.yul\":41443:41455   */\n      and\n        /* \"#utility.yul\":41474:41492   */\n      dup1\n        /* \"#utility.yul\":41464:41545   */\n      tag_785\n      jumpi\n        /* \"#utility.yul\":41530:41534   */\n      0x7f\n        /* \"#utility.yul\":41522:41528   */\n      dup3\n        /* \"#utility.yul\":41518:41535   */\n      and\n        /* \"#utility.yul\":41508:41535   */\n      swap2\n      pop\n        /* \"#utility.yul\":41464:41545   */\n    tag_785:\n        /* \"#utility.yul\":41592:41594   */\n      0x20\n        /* \"#utility.yul\":41584:41590   */\n      dup3\n        /* \"#utility.yul\":41581:41595   */\n      lt\n        /* \"#utility.yul\":41561:41579   */\n      dup2\n        /* \"#utility.yul\":41558:41596   */\n      eq\n        /* \"#utility.yul\":41555:41639   */\n      iszero\n      tag_786\n      jumpi\n        /* \"#utility.yul\":41611:41629   */\n      tag_787\n      tag_788\n      jump\t// in\n    tag_787:\n        /* \"#utility.yul\":41555:41639   */\n    tag_786:\n        /* \"#utility.yul\":41376:41645   */\n      pop\n        /* \"#utility.yul\":41325:41645   */\n      swap2\n      swap1\n      pop\n      jump\t// out\n        /* \"#utility.yul\":41651:41932   */\n    tag_710:\n        /* \"#utility.yul\":41734:41761   */\n      tag_790\n        /* \"#utility.yul\":41756:41760   */\n      dup3\n        /* \"#utility.yul\":41734:41761   */\n      tag_482\n      jump\t// in\n    tag_790:\n        /* \"#utility.yul\":41726:41732   */\n      dup2\n        /* \"#utility.yul\":41722:41762   */\n      add\n        /* \"#utility.yul\":41864:41870   */\n      dup2\n        /* \"#utility.yul\":41852:41862   */\n      dup2\n        /* \"#utility.yul\":41849:41871   */\n      lt\n        /* \"#utility.yul\":41828:41846   */\n      0xffffffffffffffff\n        /* \"#utility.yul\":41816:41826   */\n      dup3\n        /* \"#utility.yul\":41813:41847   */\n      gt\n        /* \"#utility.yul\":41810:41872   */\n      or\n        /* \"#utility.yul\":41807:41895   */\n      iszero\n      tag_791\n      jumpi\n        /* \"#utility.yul\":41875:41893   */\n      tag_792\n      tag_715\n      jump\t// in\n    tag_792:\n        /* \"#utility.yul\":41807:41895   */\n    tag_791:\n        /* \"#utility.yul\":41915:41925   */\n      dup1\n        /* \"#utility.yul\":41911:41913   */\n      0x40\n        /* \"#utility.yul\":41904:41926   */\n      mstore\n        /* \"#utility.yul\":41694:41932   */\n      pop\n        /* \"#utility.yul\":41651:41932   */\n      pop\n      pop\n      jump\t// out\n        /* \"#utility.yul\":41938:42139   */\n    tag_192:\n        /* \"#utility.yul\":41977:41980   */\n      0x00\n        /* \"#utility.yul\":42000:42024   */\n      tag_794\n        /* \"#utility.yul\":42018:42023   */\n      dup3\n        /* \"#utility.yul\":42000:42024   */\n      tag_607\n      jump\t// in\n    tag_794:\n        /* \"#utility.yul\":41991:42024   */\n      swap2\n      pop\n        /* \"#utility.yul\":42046:42080   */\n      0xffffffffffffffffffffffffffffffff\n        /* \"#utility.yul\":42039:42044   */\n      dup3\n        /* \"#utility.yul\":42036:42081   */\n      eq\n        /* \"#utility.yul\":42033:42104   */\n      iszero\n      tag_795\n      jumpi\n        /* \"#utility.yul\":42084:42102   */\n      tag_796\n      tag_753\n      jump\t// in\n    tag_796:\n        /* \"#utility.yul\":42033:42104   */\n    tag_795:\n        /* \"#utility.yul\":42131:42132   */\n      0x01\n        /* \"#utility.yul\":42124:42129   */\n      dup3\n        /* \"#utility.yul\":42120:42133   */\n      add\n        /* \"#utility.yul\":42113:42133   */\n      swap1\n      pop\n        /* \"#utility.yul\":41938:42139   */\n      swap2\n      swap1\n      pop\n      jump\t// out\n        /* \"#utility.yul\":42145:42316   */\n    tag_218:\n        /* \"#utility.yul\":42183:42186   */\n      0x00\n        /* \"#utility.yul\":42206:42229   */\n      tag_798\n        /* \"#utility.yul\":42223:42228   */\n      dup3\n        /* \"#utility.yul\":42206:42229   */\n      tag_611\n      jump\t// in\n    tag_798:\n        /* \"#utility.yul\":42197:42229   */\n      swap2\n      pop\n        /* \"#utility.yul\":42251:42257   */\n      0xffff\n        /* \"#utility.yul\":42244:42249   */\n      dup3\n        /* \"#utility.yul\":42241:42258   */\n      eq\n        /* \"#utility.yul\":42238:42281   */\n      iszero\n      tag_799\n      jumpi\n        /* \"#utility.yul\":42261:42279   */\n      tag_800\n      tag_753\n      jump\t// in\n    tag_800:\n        /* \"#utility.yul\":42238:42281   */\n    tag_799:\n        /* \"#utility.yul\":42308:42309   */\n      0x01\n        /* \"#utility.yul\":42301:42306   */\n      dup3\n        /* \"#utility.yul\":42297:42310   */\n      add\n        /* \"#utility.yul\":42290:42310   */\n      swap1\n      pop\n        /* \"#utility.yul\":42145:42316   */\n      swap2\n      swap1\n      pop\n      jump\t// out\n        /* \"#utility.yul\":42322:42555   */\n    tag_83:\n        /* \"#utility.yul\":42361:42364   */\n      0x00\n        /* \"#utility.yul\":42384:42408   */\n      tag_802\n        /* \"#utility.yul\":42402:42407   */\n      dup3\n        /* \"#utility.yul\":42384:42408   */\n      tag_615\n      jump\t// in\n    tag_802:\n        /* \"#utility.yul\":42375:42408   */\n      swap2\n      pop\n        /* \"#utility.yul\":42430:42496   */\n      0xffffffffffffffffffffffffffffffffffffffffffffffffffffffffffffffff\n        /* \"#utility.yul\":42423:42428   */\n      dup3\n        /* \"#utility.yul\":42420:42497   */\n      eq\n        /* \"#utility.yul\":42417:42520   */\n      iszero\n      tag_803\n      jumpi\n        /* \"#utility.yul\":42500:42518   */\n      tag_804\n      tag_753\n      jump\t// in\n    tag_804:\n        /* \"#utility.yul\":42417:42520   */\n    tag_803:\n        /* \"#utility.yul\":42547:42548   */\n      0x01\n        /* \"#utility.yul\":42540:42545   */\n      dup3\n        /* \"#utility.yul\":42536:42549   */\n      add\n        /* \"#utility.yul\":42529:42549   */\n      swap1\n      pop\n        /* \"#utility.yul\":42322:42555   */\n      swap2\n      swap1\n      pop\n      jump\t// out\n        /* \"#utility.yul\":42561:42741   */\n    tag_753:\n        /* \"#utility.yul\":42609:42686   */\n      0x4e487b7100000000000000000000000000000000000000000000000000000000\n        /* \"#utility.yul\":42606:42607   */\n      0x00\n        /* \"#utility.yul\":42599:42687   */\n      mstore\n        /* \"#utility.yul\":42706:42710   */\n      0x11\n        /* \"#utility.yul\":42703:42704   */\n      0x04\n        /* \"#utility.yul\":42696:42711   */\n      mstore\n        /* \"#utility.yul\":42730:42734   */\n      0x24\n        /* \"#utility.yul\":42727:42728   */\n      0x00\n        /* \"#utility.yul\":42720:42735   */\n      revert\n        /* \"#utility.yul\":42747:42927   */\n    tag_788:\n        /* \"#utility.yul\":42795:42872   */\n      0x4e487b7100000000000000000000000000000000000000000000000000000000\n        /* \"#utility.yul\":42792:42793   */\n      0x00\n        /* \"#utility.yul\":42785:42873   */\n      mstore\n        /* \"#utility.yul\":42892:42896   */\n      0x22\n        /* \"#utility.yul\":42889:42890   */\n      0x04\n        /* \"#utility.yul\":42882:42897   */\n      mstore\n        /* \"#utility.yul\":42916:42920   */\n      0x24\n        /* \"#utility.yul\":42913:42914   */\n      0x00\n        /* \"#utility.yul\":42906:42921   */\n      revert\n        /* \"#utility.yul\":42933:43113   */\n    tag_94:\n        /* \"#utility.yul\":42981:43058   */\n      0x4e487b7100000000000000000000000000000000000000000000000000000000\n        /* \"#utility.yul\":42978:42979   */\n      0x00\n        /* \"#utility.yul\":42971:43059   */\n      mstore\n        /* \"#utility.yul\":43078:43082   */\n      0x32\n        /* \"#utility.yul\":43075:43076   */\n      0x04\n        /* \"#utility.yul\":43068:43083   */\n      mstore\n        /* \"#utility.yul\":43102:43106   */\n      0x24\n        /* \"#utility.yul\":43099:43100   */\n      0x00\n        /* \"#utility.yul\":43092:43107   */\n      revert\n        /* \"#utility.yul\":43119:43299   */\n    tag_715:\n        /* \"#utility.yul\":43167:43244   */\n      0x4e487b7100000000000000000000000000000000000000000000000000000000\n        /* \"#utility.yul\":43164:43165   */\n      0x00\n        /* \"#utility.yul\":43157:43245   */\n      mstore\n        /* \"#utility.yul\":43264:43268   */\n      0x41\n        /* \"#utility.yul\":43261:43262   */\n      0x04\n        /* \"#utility.yul\":43254:43269   */\n      mstore\n        /* \"#utility.yul\":43288:43292   */\n      0x24\n        /* \"#utility.yul\":43285:43286   */\n      0x00\n        /* \"#utility.yul\":43278:43293   */\n      revert\n        /* \"#utility.yul\":43305:43422   */\n    tag_744:\n        /* \"#utility.yul\":43414:43415   */\n      0x00\n        /* \"#utility.yul\":43411:43412   */\n      dup1\n        /* \"#utility.yul\":43404:43416   */\n      revert\n        /* \"#utility.yul\":43428:43545   */\n    tag_369:\n        /* \"#utility.yul\":43537:43538   */\n      0x00\n        /* \"#utility.yul\":43534:43535   */\n      dup1\n        /* \"#utility.yul\":43527:43539   */\n      revert\n        /* \"#utility.yul\":43551:43668   */\n    tag_330:\n        /* \"#utility.yul\":43660:43661   */\n      0x00\n        /* \"#utility.yul\":43657:43658   */\n      dup1\n        /* \"#utility.yul\":43650:43662   */\n      revert\n        /* \"#utility.yul\":43674:43791   */\n    tag_702:\n        /* \"#utility.yul\":43783:43784   */\n      0x00\n        /* \"#utility.yul\":43780:43781   */\n      dup1\n        /* \"#utility.yul\":43773:43785   */\n      revert\n        /* \"#utility.yul\":43797:43914   */\n    tag_699:\n        /* \"#utility.yul\":43906:43907   */\n      0x00\n        /* \"#utility.yul\":43903:43904   */\n      dup1\n        /* \"#utility.yul\":43896:43908   */\n      revert\n        /* \"#utility.yul\":43920:44037   */\n    tag_747:\n        /* \"#utility.yul\":44029:44030   */\n      0x00\n        /* \"#utility.yul\":44026:44027   */\n      dup1\n        /* \"#utility.yul\":44019:44031   */\n      revert\n        /* \"#utility.yul\":44043:44160   */\n    tag_312:\n        /* \"#utility.yul\":44152:44153   */\n      0x00\n        /* \"#utility.yul\":44149:44150   */\n      dup1\n        /* \"#utility.yul\":44142:44154   */\n      revert\n        /* \"#utility.yul\":44166:44283   */\n    tag_705:\n        /* \"#utility.yul\":44275:44276   */\n      0x00\n        /* \"#utility.yul\":44272:44273   */\n      dup1\n        /* \"#utility.yul\":44265:44277   */\n      revert\n        /* \"#utility.yul\":44289:44406   */\n    tag_352:\n        /* \"#utility.yul\":44398:44399   */\n      0x00\n        /* \"#utility.yul\":44395:44396   */\n      dup1\n        /* \"#utility.yul\":44388:44400   */\n      revert\n        /* \"#utility.yul\":44412:44529   */\n    tag_409:\n        /* \"#utility.yul\":44521:44522   */\n      0x00\n        /* \"#utility.yul\":44518:44519   */\n      dup1\n        /* \"#utility.yul\":44511:44523   */\n      revert\n        /* \"#utility.yul\":44535:44652   */\n    tag_741:\n        /* \"#utility.yul\":44644:44645   */\n      0x00\n        /* \"#utility.yul\":44641:44642   */\n      dup1\n        /* \"#utility.yul\":44634:44646   */\n      revert\n        /* \"#utility.yul\":44658:44775   */\n    tag_396:\n        /* \"#utility.yul\":44767:44768   */\n      0x00\n        /* \"#utility.yul\":44764:44765   */\n      dup1\n        /* \"#utility.yul\":44757:44769   */\n      revert\n        /* \"#utility.yul\":44781:44883   */\n    tag_482:\n        /* \"#utility.yul\":44822:44828   */\n      0x00\n        /* \"#utility.yul\":44873:44875   */\n      0x1f\n        /* \"#utility.yul\":44869:44876   */\n      not\n        /* \"#utility.yul\":44864:44866   */\n      0x1f\n        /* \"#utility.yul\":44857:44862   */\n      dup4\n        /* \"#utility.yul\":44853:44867   */\n      add\n        /* \"#utility.yul\":44849:44877   */\n      and\n        /* \"#utility.yul\":44839:44877   */\n      swap1\n      pop\n        /* \"#utility.yul\":44781:44883   */\n      swap2\n      swap1\n      pop\n      jump\t// out\n        /* \"#utility.yul\":44889:45057   */\n    tag_518:\n        /* \"#utility.yul\":45029:45049   */\n      0x50726f706f73616c3a20696e6163746976650000000000000000000000000000\n        /* \"#utility.yul\":45025:45026   */\n      0x00\n        /* \"#utility.yul\":45017:45023   */\n      dup3\n        /* \"#utility.yul\":45013:45027   */\n      add\n        /* \"#utility.yul\":45006:45050   */\n      mstore\n        /* \"#utility.yul\":44889:45057   */\n      pop\n      jump\t// out\n        /* \"#utility.yul\":45063:45294   */\n    tag_523:\n        /* \"#utility.yul\":45203:45237   */\n      0x456e642074696d652073686f756c642062652067726561746572207468616e20\n        /* \"#utility.yul\":45199:45200   */\n      0x00\n        /* \"#utility.yul\":45191:45197   */\n      dup3\n        /* \"#utility.yul\":45187:45201   */\n      add\n        /* \"#utility.yul\":45180:45238   */\n      mstore\n        /* \"#utility.yul\":45272:45286   */\n      0x63757272656e742074696d650000000000000000000000000000000000000000\n        /* \"#utility.yul\":45267:45269   */\n      0x20\n        /* \"#utility.yul\":45259:45265   */\n      dup3\n        /* \"#utility.yul\":45255:45270   */\n      add\n        /* \"#utility.yul\":45248:45287   */\n      mstore\n        /* \"#utility.yul\":45063:45294   */\n      pop\n      jump\t// out\n        /* \"#utility.yul\":45300:45521   */\n    tag_528:\n        /* \"#utility.yul\":45440:45474   */\n      0x45524332303a206275726e20616d6f756e7420657863656564732062616c616e\n        /* \"#utility.yul\":45436:45437   */\n      0x00\n        /* \"#utility.yul\":45428:45434   */\n      dup3\n        /* \"#utility.yul\":45424:45438   */\n      add\n        /* \"#utility.yul\":45417:45475   */\n      mstore\n        /* \"#utility.yul\":45509:45513   */\n      0x6365000000000000000000000000000000000000000000000000000000000000\n        /* \"#utility.yul\":45504:45506   */\n      0x20\n        /* \"#utility.yul\":45496:45502   */\n      dup3\n        /* \"#utility.yul\":45492:45507   */\n      add\n        /* \"#utility.yul\":45485:45514   */\n      mstore\n        /* \"#utility.yul\":45300:45521   */\n      pop\n      jump\t// out\n        /* \"#utility.yul\":45527:45690   */\n    tag_533:\n        /* \"#utility.yul\":45667:45682   */\n      0x616c726561647920766f74656400000000000000000000000000000000000000\n        /* \"#utility.yul\":45663:45664   */\n      0x00\n        /* \"#utility.yul\":45655:45661   */\n      dup3\n        /* \"#utility.yul\":45651:45665   */\n      add\n        /* \"#utility.yul\":45644:45683   */\n      mstore\n        /* \"#utility.yul\":45527:45690   */\n      pop\n      jump\t// out\n        /* \"#utility.yul\":45696:45873   */\n    tag_538:\n        /* \"#utility.yul\":45836:45865   */\n      0x50726f706f73616c3a20696e76616c69642063616e6469646174650000000000\n        /* \"#utility.yul\":45832:45833   */\n      0x00\n        /* \"#utility.yul\":45824:45830   */\n      dup3\n        /* \"#utility.yul\":45820:45834   */\n      add\n        /* \"#utility.yul\":45813:45866   */\n      mstore\n        /* \"#utility.yul\":45696:45873   */\n      pop\n      jump\t// out\n        /* \"#utility.yul\":45879:46101   */\n    tag_543:\n        /* \"#utility.yul\":46019:46053   */\n      0x6e6f7420612076616c696420766f74657220666f7220746869732070726f706f\n        /* \"#utility.yul\":46015:46016   */\n      0x00\n        /* \"#utility.yul\":46007:46013   */\n      dup3\n        /* \"#utility.yul\":46003:46017   */\n      add\n        /* \"#utility.yul\":45996:46054   */\n      mstore\n        /* \"#utility.yul\":46088:46093   */\n      0x73616c0000000000000000000000000000000000000000000000000000000000\n        /* \"#utility.yul\":46083:46085   */\n      0x20\n        /* \"#utility.yul\":46075:46081   */\n      dup3\n        /* \"#utility.yul\":46071:46086   */\n      add\n        /* \"#utility.yul\":46064:46094   */\n      mstore\n        /* \"#utility.yul\":45879:46101   */\n      pop\n      jump\t// out\n        /* \"#utility.yul\":46107:46277   */\n    tag_548:\n        /* \"#utility.yul\":46247:46269   */\n      0x70726f706f73616c206e6f742073746172746564000000000000000000000000\n        /* \"#utility.yul\":46243:46244   */\n      0x00\n        /* \"#utility.yul\":46235:46241   */\n      dup3\n        /* \"#utility.yul\":46231:46245   */\n      add\n        /* \"#utility.yul\":46224:46270   */\n      mstore\n        /* \"#utility.yul\":46107:46277   */\n      pop\n      jump\t// out\n        /* \"#utility.yul\":46283:46505   */\n    tag_553:\n        /* \"#utility.yul\":46423:46457   */\n      0x4e6f7420612076616c696420766f74657220666f7220746869732070726f706f\n        /* \"#utility.yul\":46419:46420   */\n      0x00\n        /* \"#utility.yul\":46411:46417   */\n      dup3\n        /* \"#utility.yul\":46407:46421   */\n      add\n        /* \"#utility.yul\":46400:46458   */\n      mstore\n        /* \"#utility.yul\":46492:46497   */\n      0x73616c0000000000000000000000000000000000000000000000000000000000\n        /* \"#utility.yul\":46487:46489   */\n      0x20\n        /* \"#utility.yul\":46479:46485   */\n      dup3\n        /* \"#utility.yul\":46475:46490   */\n      add\n        /* \"#utility.yul\":46468:46498   */\n      mstore\n        /* \"#utility.yul\":46283:46505   */\n      pop\n      jump\t// out\n        /* \"#utility.yul\":46511:46679   */\n    tag_558:\n        /* \"#utility.yul\":46651:46671   */\n      0x696e76616c69642070726f706f73616c49640000000000000000000000000000\n        /* \"#utility.yul\":46647:46648   */\n      0x00\n        /* \"#utility.yul\":46639:46645   */\n      dup3\n        /* \"#utility.yul\":46635:46649   */\n      add\n        /* \"#utility.yul\":46628:46672   */\n      mstore\n        /* \"#utility.yul\":46511:46679   */\n      pop\n      jump\t// out\n        /* \"#utility.yul\":46685:46907   */\n    tag_563:\n        /* \"#utility.yul\":46825:46859   */\n      0x6e6f742073756666696369656e742062616c616e636520746f20636173742076\n        /* \"#utility.yul\":46821:46822   */\n      0x00\n        /* \"#utility.yul\":46813:46819   */\n      dup3\n        /* \"#utility.yul\":46809:46823   */\n      add\n        /* \"#utility.yul\":46802:46860   */\n      mstore\n        /* \"#utility.yul\":46894:46899   */\n      0x6f74650000000000000000000000000000000000000000000000000000000000\n        /* \"#utility.yul\":46889:46891   */\n      0x20\n        /* \"#utility.yul\":46881:46887   */\n      dup3\n        /* \"#utility.yul\":46877:46892   */\n      add\n        /* \"#utility.yul\":46870:46900   */\n      mstore\n        /* \"#utility.yul\":46685:46907   */\n      pop\n      jump\t// out\n        /* \"#utility.yul\":46913:47142   */\n    tag_568:\n        /* \"#utility.yul\":47053:47087   */\n      0x456e642074696d652073686f756c642062652067726561746572207468616e20\n        /* \"#utility.yul\":47049:47050   */\n      0x00\n        /* \"#utility.yul\":47041:47047   */\n      dup3\n        /* \"#utility.yul\":47037:47051   */\n      add\n        /* \"#utility.yul\":47030:47088   */\n      mstore\n        /* \"#utility.yul\":47122:47134   */\n      0x73746172742074696d6500000000000000000000000000000000000000000000\n        /* \"#utility.yul\":47117:47119   */\n      0x20\n        /* \"#utility.yul\":47109:47115   */\n      dup3\n        /* \"#utility.yul\":47105:47120   */\n      add\n        /* \"#utility.yul\":47098:47135   */\n      mstore\n        /* \"#utility.yul\":46913:47142   */\n      pop\n      jump\t// out\n        /* \"#utility.yul\":47148:47368   */\n    tag_573:\n        /* \"#utility.yul\":47288:47322   */\n      0x45524332303a206275726e2066726f6d20746865207a65726f20616464726573\n        /* \"#utility.yul\":47284:47285   */\n      0x00\n        /* \"#utility.yul\":47276:47282   */\n      dup3\n        /* \"#utility.yul\":47272:47286   */\n      add\n        /* \"#utility.yul\":47265:47323   */\n      mstore\n        /* \"#utility.yul\":47357:47360   */\n      0x7300000000000000000000000000000000000000000000000000000000000000\n        /* \"#utility.yul\":47352:47354   */\n      0x20\n        /* \"#utility.yul\":47344:47350   */\n      dup3\n        /* \"#utility.yul\":47340:47355   */\n      add\n        /* \"#utility.yul\":47333:47361   */\n      mstore\n        /* \"#utility.yul\":47148:47368   */\n      pop\n      jump\t// out\n        /* \"#utility.yul\":47374:47597   */\n    tag_578:\n        /* \"#utility.yul\":47514:47548   */\n      0x6e6f7420612076616c6964206c656e677468206f66206861736820726573706f\n        /* \"#utility.yul\":47510:47511   */\n      0x00\n        /* \"#utility.yul\":47502:47508   */\n      dup3\n        /* \"#utility.yul\":47498:47512   */\n      add\n        /* \"#utility.yul\":47491:47549   */\n      mstore\n        /* \"#utility.yul\":47583:47589   */\n      0x6e73652100000000000000000000000000000000000000000000000000000000\n        /* \"#utility.yul\":47578:47580   */\n      0x20\n        /* \"#utility.yul\":47570:47576   */\n      dup3\n        /* \"#utility.yul\":47566:47581   */\n      add\n        /* \"#utility.yul\":47559:47590   */\n      mstore\n        /* \"#utility.yul\":47374:47597   */\n      pop\n      jump\t// out\n        /* \"#utility.yul\":47603:47757   */\n    tag_583:\n        /* \"#utility.yul\":47743:47749   */\n      0x6d696e7400000000000000000000000000000000000000000000000000000000\n        /* \"#utility.yul\":47739:47740   */\n      0x00\n        /* \"#utility.yul\":47731:47737   */\n      dup3\n        /* \"#utility.yul\":47727:47741   */\n      add\n        /* \"#utility.yul\":47720:47750   */\n      mstore\n        /* \"#utility.yul\":47603:47757   */\n      pop\n      jump\t// out\n        /* \"#utility.yul\":47763:47942   */\n    tag_588:\n        /* \"#utility.yul\":47903:47934   */\n      0x496e76616c696420766f74657220666f722070726f706f73616c496421000000\n        /* \"#utility.yul\":47899:47900   */\n      0x00\n        /* \"#utility.yul\":47891:47897   */\n      dup3\n        /* \"#utility.yul\":47887:47901   */\n      add\n        /* \"#utility.yul\":47880:47935   */\n      mstore\n        /* \"#utility.yul\":47763:47942   */\n      pop\n      jump\t// out\n        /* \"#utility.yul\":47948:48102   */\n    tag_593:\n        /* \"#utility.yul\":48088:48094   */\n      0x6275726e00000000000000000000000000000000000000000000000000000000\n        /* \"#utility.yul\":48084:48085   */\n      0x00\n        /* \"#utility.yul\":48076:48082   */\n      dup3\n        /* \"#utility.yul\":48072:48086   */\n      add\n        /* \"#utility.yul\":48065:48095   */\n      mstore\n        /* \"#utility.yul\":47948:48102   */\n      pop\n      jump\t// out\n        /* \"#utility.yul\":48108:48267   */\n    tag_598:\n        /* \"#utility.yul\":48248:48259   */\n      0x6e6f7420766f7465640000000000000000000000000000000000000000000000\n        /* \"#utility.yul\":48244:48245   */\n      0x00\n        /* \"#utility.yul\":48236:48242   */\n      dup3\n        /* \"#utility.yul\":48232:48246   */\n      add\n        /* \"#utility.yul\":48225:48260   */\n      mstore\n        /* \"#utility.yul\":48108:48267   */\n      pop\n      jump\t// out\n        /* \"#utility.yul\":48273:48454   */\n    tag_603:\n        /* \"#utility.yul\":48413:48446   */\n      0x45524332303a206d696e7420746f20746865207a65726f206164647265737300\n        /* \"#utility.yul\":48409:48410   */\n      0x00\n        /* \"#utility.yul\":48401:48407   */\n      dup3\n        /* \"#utility.yul\":48397:48411   */\n      add\n        /* \"#utility.yul\":48390:48447   */\n      mstore\n        /* \"#utility.yul\":48273:48454   */\n      pop\n      jump\t// out\n        /* \"#utility.yul\":48460:48582   */\n    tag_357:\n        /* \"#utility.yul\":48533:48557   */\n      tag_841\n        /* \"#utility.yul\":48551:48556   */\n      dup2\n        /* \"#utility.yul\":48533:48557   */\n      tag_441\n      jump\t// in\n    tag_841:\n        /* \"#utility.yul\":48526:48531   */\n      dup2\n        /* \"#utility.yul\":48523:48558   */\n      eq\n        /* \"#utility.yul\":48513:48576   */\n      tag_842\n      jumpi\n        /* \"#utility.yul\":48572:48573   */\n      0x00\n        /* \"#utility.yul\":48569:48570   */\n      dup1\n        /* \"#utility.yul\":48562:48574   */\n      revert\n        /* \"#utility.yul\":48513:48576   */\n    tag_842:\n        /* \"#utility.yul\":48460:48582   */\n      pop\n      jump\t// out\n        /* \"#utility.yul\":48588:48710   */\n    tag_388:\n        /* \"#utility.yul\":48661:48685   */\n      tag_844\n        /* \"#utility.yul\":48679:48684   */\n      dup2\n        /* \"#utility.yul\":48661:48685   */\n      tag_615\n      jump\t// in\n    tag_844:\n        /* \"#utility.yul\":48654:48659   */\n      dup2\n        /* \"#utility.yul\":48651:48686   */\n      eq\n        /* \"#utility.yul\":48641:48704   */\n      tag_845\n      jumpi\n        /* \"#utility.yul\":48700:48701   */\n      0x00\n        /* \"#utility.yul\":48697:48698   */\n      dup1\n        /* \"#utility.yul\":48690:48702   */\n      revert\n        /* \"#utility.yul\":48641:48704   */\n    tag_845:\n        /* \"#utility.yul\":48588:48710   */\n      pop\n      jump\t// out\n        /* \"#utility.yul\":48716:48834   */\n    tag_392:\n        /* \"#utility.yul\":48787:48809   */\n      tag_847\n        /* \"#utility.yul\":48803:48808   */\n      dup2\n        /* \"#utility.yul\":48787:48809   */\n      tag_619\n      jump\t// in\n    tag_847:\n        /* \"#utility.yul\":48780:48785   */\n      dup2\n        /* \"#utility.yul\":48777:48810   */\n      eq\n        /* \"#utility.yul\":48767:48828   */\n      tag_848\n      jumpi\n        /* \"#utility.yul\":48824:48825   */\n      0x00\n        /* \"#utility.yul\":48821:48822   */\n      dup1\n        /* \"#utility.yul\":48814:48826   */\n      revert\n        /* \"#utility.yul\":48767:48828   */\n    tag_848:\n        /* \"#utility.yul\":48716:48834   */\n      pop\n      jump\t// out\n\n    auxdata: 0xa2646970667358221220efc37676cd367f978874b3d1bda5a397fb1e6abfc05007ad054100eafb95ede064736f6c63430008070033\n}\n",
				"bytecode": {
					"linkReferences": {},
					"object": "60806040523480156200001157600080fd5b506040518060400160405280600c81526020017f51566f74696e67546f6b656e00000000000000000000000000000000000000008152506040518060400160405280600281526020017f5176000000000000000000000000000000000000000000000000000000000000815250816002908051906020019062000096929190620000f9565b508060039080519060200190620000af929190620000f9565b50505033600460006101000a81548173ffffffffffffffffffffffffffffffffffffffff021916908373ffffffffffffffffffffffffffffffffffffffff1602179055506200020e565b8280546200010790620001a9565b90600052602060002090601f0160209004810192826200012b576000855562000177565b82601f106200014657805160ff191683800117855562000177565b8280016001018555821562000177579182015b828111156200017657825182559160200191906001019062000159565b5b5090506200018691906200018a565b5090565b5b80821115620001a55760008160009055506001016200018b565b5090565b60006002820490506001821680620001c257607f821691505b60208210811415620001d957620001d8620001df565b5b50919050565b7f4e487b7100000000000000000000000000000000000000000000000000000000600052602260045260246000fd5b613576806200021e6000396000f3fe608060405234801561001057600080fd5b506004361061009e5760003560e01c80635c230eee116100665780635c230eee1461014f57806370a082311461016b57806395d89b411461019b578063c3703048146101b9578063e745d68e146101ec5761009e565b8063013cf08b146100a357806306fdde03146100d957806318160ddd146100f7578063313ce567146101155780634de77e4814610133575b600080fd5b6100bd60048036038101906100b89190611f2e565b61021d565b6040516100d0979695949392919061266b565b60405180910390f35b6100e1610322565b6040516100ee91906126e1565b60405180910390f35b6100ff6103b4565b60405161010c91906129a4565b60405180910390f35b61011d6103be565b60405161012a9190612a8a565b60405180910390f35b61014d60048036038101906101489190611ffa565b6103c7565b005b61016960048036038101906101649190611f5b565b6106de565b005b61018560048036038101906101809190611f01565b610af7565b60405161019291906129a4565b60405180910390f35b6101a3610b3f565b6040516101b091906126e1565b60405180910390f35b6101d360048036038101906101ce9190611f01565b610bd1565b6040516101e394939291906129bf565b60405180910390f35b61020660048036038101906102019190611f01565b610c2e565b60405161021492919061297b565b60405180910390f35b60076020528060005260406000206000915090508060000160009054906101000a900473ffffffffffffffffffffffffffffffffffffffff16908060000160149054906101000a900460ff169080600101805461027990612ed0565b80601f01602080910402602001604051908101604052809291908181526020018280546102a590612ed0565b80156102f25780601f106102c7576101008083540402835291602001916102f2565b820191906000526020600020905b8154815290600101906020018083116102d557829003601f168201915b5050505050908060020154908060030154908060040160009054906101000a900461ffff16908060050154905087565b60606002805461033190612ed0565b80601f016020809104026020016040519081016040528092919081815260200182805461035d90612ed0565b80156103aa5780601f1061037f576101008083540402835291602001916103aa565b820191906000526020600020905b81548152906001019060200180831161038d57829003601f168201915b5050505050905090565b6000600154905090565b60006012905090565b854210610409576040517f08c379a0000000000000000000000000000000000000000000000000000000008152600401610400906127c3565b60405180910390fd5b84421061044b576040517f08c379a000000000000000000000000000000000000000000000000000000000815260040161044290612723565b60405180910390fd5b84861061048d576040517f08c379a000000000000000000000000000000000000000000000000000000000815260040161048490612843565b60405180910390fd5b600560008154809291906104a090612f97565b91905055506104dc898989898989878a8a600760006005548152602001908152602001600020610c8a909998979695949392919063ffffffff16565b507f239a8a71a7d1cb0d134f6cc072ad6390e36a88c8e78dff69013ee79528441e806005548989898989898960405161051c989796959493929190612a04565b60405180910390a1600160096000600554815260200190815260200160002060006101000a81548160ff02191690831515021790555060005b8851811015610677576105828982815181106105745761057361303e565b5b602002602001015183610ebc565b6106106005548a838151811061059b5761059a61303e565b5b6020026020010151600085600860008f88815181106105bd576105bc61303e565b5b602002602001015173ffffffffffffffffffffffffffffffffffffffff1673ffffffffffffffffffffffffffffffffffffffff168152602001908152602001600020610f2d90949392919063ffffffff16565b507fabf5327be9f5825c40d58bda541dd07f09b62df3376bbd5ecdbaa8bd82a9d4928982815181106106455761064461303e565b5b60200260200101518360405161065c9291906128a3565b60405180910390a1808061066f90612f97565b915050610555565b506106d26005546006600061068a610fad565b73ffffffffffffffffffffffffffffffffffffffff1673ffffffffffffffffffffffffffffffffffffffff168152602001908152602001600020610fb590919063ffffffff16565b50505050505050505050565b6009600085815260200190815260200160002060009054906101000a900460ff1661073e576040517f08c379a000000000000000000000000000000000000000000000000000000000815260040161073590612803565b60405180910390fd5b83600860008573ffffffffffffffffffffffffffffffffffffffff1673ffffffffffffffffffffffffffffffffffffffff16815260200190815260200160002060000154146107c2576040517f08c379a00000000000000000000000000000000000000000000000000000000081526004016107b9906127a3565b60405180910390fd5b600860008473ffffffffffffffffffffffffffffffffffffffff1673ffffffffffffffffffffffffffffffffffffffff16815260200190815260200160002060010160149054906101000a900460ff1615610852576040517f08c379a000000000000000000000000000000000000000000000000000000000815260040161084990612763565b60405180910390fd5b81516007600086815260200190815260200160002060040160009054906101000a900461ffff1661ffff16146108bd576040517f08c379a00000000000000000000000000000000000000000000000000000000081526004016108b490612883565b60405180910390fd5b6000805b825181101561092a578281815181106108dd576108dc61303e565b5b60200260200101518382815181106108f8576108f761303e565b5b602002602001015161090a9190612d81565b826109159190612d2b565b9150808061092290612f97565b9150506108c1565b5080600860008673ffffffffffffffffffffffffffffffffffffffff1673ffffffffffffffffffffffffffffffffffffffff1681526020019081526020016000206002015410156109b0576040517f08c379a00000000000000000000000000000000000000000000000000000000081526004016109a790612823565b60405180910390fd5b6109d9848484600760008a8152602001908152602001600020611086909392919063ffffffff16565b50610a348584600660006109eb610fad565b73ffffffffffffffffffffffffffffffffffffffff1673ffffffffffffffffffffffffffffffffffffffff1681526020019081526020016000206114f59092919063ffffffff16565b50610a7c600860008673ffffffffffffffffffffffffffffffffffffffff1673ffffffffffffffffffffffffffffffffffffffff168152602001908152602001600020611682565b50610a9f8460076000600554815260200190815260200160002060050154611730565b7fabf5327be9f5825c40d58bda541dd07f09b62df3376bbd5ecdbaa8bd82a9d4928460076000600554815260200190815260200160002060050154604051610ae89291906128ff565b60405180910390a15050505050565b60008060008373ffffffffffffffffffffffffffffffffffffffff1673ffffffffffffffffffffffffffffffffffffffff168152602001908152602001600020549050919050565b606060038054610b4e90612ed0565b80601f0160208091040260200160405190810160405280929190818152602001828054610b7a90612ed0565b8015610bc75780601f10610b9c57610100808354040283529160200191610bc7565b820191906000526020600020905b815481529060010190602001808311610baa57829003601f168201915b5050505050905090565b60086020528060005260406000206000915090508060000154908060010160009054906101000a900473ffffffffffffffffffffffffffffffffffffffff16908060010160149054906101000a900460ff16908060020154905084565b60066020528060005260406000206000915090508060000160009054906101000a90046fffffffffffffffffffffffffffffffff16908060000160109054906101000a90046fffffffffffffffffffffffffffffffff16905082565b6000878b60000160006101000a81548173ffffffffffffffffffffffffffffffffffffffff021916908373ffffffffffffffffffffffffffffffffffffffff160217905550898b60000160146101000a81548160ff021916908360ff160217905550848b6001019080519060200190610d04929190611a4e565b50868b60020181905550858b60030181905550828290508b60040160006101000a81548161ffff021916908361ffff160217905550838b6005018190555060005b83839050811015610e155760018c600701858584818110610d6957610d6861303e565b5b9050602002810190610d7b9190612aa5565b604051610d89929190612624565b908152602001604051809103902060006101000a81548160ff021916908315150217905550838382818110610dc157610dc061303e565b5b9050602002810190610dd39190612aa5565b8d6008016000600185610de69190612d2b565b81526020019081526020016000209190610e01929190611ad4565b508080610e0d90612f97565b915050610d45565b5060005b8951811015610ea95760018c60060160008c8481518110610e3d57610e3c61303e565b5b602002602001015173ffffffffffffffffffffffffffffffffffffffff1673ffffffffffffffffffffffffffffffffffffffff16815260200190815260200160002060006101000a81548160ff0219169083151502179055508080610ea190612f97565b915050610e19565b50600190509a9950505050505050505050565b610ec4610fad565b8073ffffffffffffffffffffffffffffffffffffffff16600460009054906101000a900473ffffffffffffffffffffffffffffffffffffffff1673ffffffffffffffffffffffffffffffffffffffff1614610f1e57600080fd5b610f2883836117a1565b505050565b6000848660000181905550838660010160006101000a81548173ffffffffffffffffffffffffffffffffffffffff021916908373ffffffffffffffffffffffffffffffffffffffff160217905550828660010160146101000a81548160ff0219169083151502179055508186600201819055506001905095945050505050565b600033905090565b600082600001600081819054906101000a90046fffffffffffffffffffffffffffffffff1680929190610fe790612f33565b91906101000a8154816fffffffffffffffffffffffffffffffff02191690836fffffffffffffffffffffffffffffffff16021790555050818360010160008560000160009054906101000a90046fffffffffffffffffffffffffffffffff166fffffffffffffffffffffffffffffffff166fffffffffffffffffffffffffffffffff168152602001908152602001600020819055506001905092915050565b600060028560000160149054906101000a900460ff1660ff16146110df576040517f08c379a00000000000000000000000000000000000000000000000000000000081526004016110d690612703565b60405180910390fd5b84600301544211156113355760028560000160146101000a81548160ff021916908360ff160217905550600085600a01866008016000600181526020019081526020016000206040516111329190612654565b9081526020016040518091039020549050600060019050866008016000600181526020019081526020016000208760090160006001815260200190815260200160002090805461118190612ed0565b61118c929190611b5a565b506000600290505b8760040160009054906101000a900461ffff1661ffff168161ffff1611611329578288600a018960080160008461ffff1681526020019081526020016000206040516111e09190612654565b90815260200160405180910390205411156112805787600a018860080160008361ffff16815260200190815260200160002060405161121f9190612654565b9081526020016040518091039020549250600191508760080160008261ffff1681526020019081526020016000208860090160006001815260200190815260200160002090805461126f90612ed0565b61127a929190611b5a565b50611316565b8288600a018960080160008461ffff1681526020019081526020016000206040516112ab9190612654565b90815260200160405180910390205414156113155781806112cb90612f97565b9250508760080160008261ffff16815260200190815260200160002088600901600084815260200190815260200160002090805461130890612ed0565b611313929190611b5a565b505b5b808061132190612f6c565b915050611194565b506000925050506114ed565b8460060160008573ffffffffffffffffffffffffffffffffffffffff1673ffffffffffffffffffffffffffffffffffffffff16815260200190815260200160002060009054906101000a900460ff166113c3576040517f08c379a00000000000000000000000000000000000000000000000000000000081526004016113ba906127e3565b60405180910390fd5b60005b8560040160009054906101000a900461ffff1661ffff168161ffff1610156114e75785600701848261ffff16815181106114035761140261303e565b5b6020026020010151604051611418919061263d565b908152602001604051809103902060009054906101000a900460ff16611473576040517f08c379a000000000000000000000000000000000000000000000000000000000815260040161146a90612783565b60405180910390fd5b828161ffff168151811061148a5761148961303e565b5b602002602001015186600a01858361ffff16815181106114ad576114ac61303e565b5b60200260200101516040516114c2919061263d565b90815260200160405180910390208190555080806114df90612f6c565b9150506113c6565b50600190505b949350505050565b600083600001601081819054906101000a90046fffffffffffffffffffffffffffffffff168092919061152790612f33565b91906101000a8154816fffffffffffffffffffffffffffffffff02191690836fffffffffffffffffffffffffffffffff16021790555050828460020160008660000160109054906101000a90046fffffffffffffffffffffffffffffffff166fffffffffffffffffffffffffffffffff166fffffffffffffffffffffffffffffffff1681526020019081526020016000208190555060005b82518161ffff16101561164857828161ffff16815181106115e3576115e261303e565b5b6020026020010151856003016000868152602001908152602001600020600060018461160f9190612cf3565b61ffff1681526020019081526020016000209080519060200190611634929190611a4e565b50808061164090612f6c565b9150506115bf565b50600184600401600085815260200190815260200160002060006101000a81548160ff021916908315150217905550600190509392505050565b600080826000015414156116cb576040517f08c379a00000000000000000000000000000000000000000000000000000000081526004016116c2906128df565b60405180910390fd5b8160010160149054906101000a900460ff161561171d576040517f08c379a00000000000000000000000000000000000000000000000000000000081526004016117149061293b565b60405180910390fd5b6000826002018190555060019050919050565b611738610fad565b8073ffffffffffffffffffffffffffffffffffffffff16600460009054906101000a900473ffffffffffffffffffffffffffffffffffffffff1673ffffffffffffffffffffffffffffffffffffffff161461179257600080fd5b61179c83836118bc565b505050565b600073ffffffffffffffffffffffffffffffffffffffff168273ffffffffffffffffffffffffffffffffffffffff161415611811576040517f08c379a00000000000000000000000000000000000000000000000000000000081526004016118089061295b565b60405180910390fd5b80600160008282546118239190612d2b565b92505081905550806000808473ffffffffffffffffffffffffffffffffffffffff1673ffffffffffffffffffffffffffffffffffffffff16815260200190815260200160002060008282546118789190612d2b565b925050819055507fabf5327be9f5825c40d58bda541dd07f09b62df3376bbd5ecdbaa8bd82a9d49282826040516118b09291906128a3565b60405180910390a15050565b600073ffffffffffffffffffffffffffffffffffffffff168273ffffffffffffffffffffffffffffffffffffffff16141561192c576040517f08c379a000000000000000000000000000000000000000000000000000000000815260040161192390612863565b60405180910390fd5b60008060008473ffffffffffffffffffffffffffffffffffffffff1673ffffffffffffffffffffffffffffffffffffffff168152602001908152602001600020549050818110156119b2576040517f08c379a00000000000000000000000000000000000000000000000000000000081526004016119a990612743565b60405180910390fd5b8181036000808573ffffffffffffffffffffffffffffffffffffffff1673ffffffffffffffffffffffffffffffffffffffff168152602001908152602001600020819055508160016000828254611a099190612ddb565b925050819055507fabf5327be9f5825c40d58bda541dd07f09b62df3376bbd5ecdbaa8bd82a9d4928383604051611a419291906128ff565b60405180910390a1505050565b828054611a5a90612ed0565b90600052602060002090601f016020900481019282611a7c5760008555611ac3565b82601f10611a9557805160ff1916838001178555611ac3565b82800160010185558215611ac3579182015b82811115611ac2578251825591602001919060010190611aa7565b5b509050611ad09190611be7565b5090565b828054611ae090612ed0565b90600052602060002090601f016020900481019282611b025760008555611b49565b82601f10611b1b57803560ff1916838001178555611b49565b82800160010185558215611b49579182015b82811115611b48578235825591602001919060010190611b2d565b5b509050611b569190611be7565b5090565b828054611b6690612ed0565b90600052602060002090601f016020900481019282611b885760008555611bd6565b82601f10611b995780548555611bd6565b82800160010185558215611bd657600052602060002091601f016020900482015b82811115611bd5578254825591600101919060010190611bba565b5b509050611be39190611be7565b5090565b5b80821115611c00576000816000905550600101611be8565b5090565b6000611c17611c1284612b2d565b612b08565b90508083825260208201905082856020860282011115611c3a57611c396130ba565b5b60005b85811015611c6a5781611c508882611db4565b845260208401935060208301925050600181019050611c3d565b5050509392505050565b6000611c87611c8284612b59565b612b08565b90508083825260208201905082856020860282011115611caa57611ca96130ba565b5b60005b85811015611cf857813567ffffffffffffffff811115611cd057611ccf6130a6565b5b808601611cdd8982611ea9565b85526020850194506020840193505050600181019050611cad565b5050509392505050565b6000611d15611d1084612b85565b612b08565b90508083825260208201905082856020860282011115611d3857611d376130ba565b5b60005b85811015611d685781611d4e8882611ed7565b845260208401935060208301925050600181019050611d3b565b5050509392505050565b6000611d85611d8084612bb1565b612b08565b905082815260208101848484011115611da157611da06130c4565b5b611dac848285612e8e565b509392505050565b600081359050611dc3816134fb565b92915050565b600082601f830112611dde57611ddd6130a6565b5b8135611dee848260208601611c04565b91505092915050565b60008083601f840112611e0d57611e0c6130a6565b5b8235905067ffffffffffffffff811115611e2a57611e296130a1565b5b602083019150836020820283011115611e4657611e456130ba565b5b9250929050565b600082601f830112611e6257611e616130a6565b5b8135611e72848260208601611c74565b91505092915050565b600082601f830112611e9057611e8f6130a6565b5b8135611ea0848260208601611d02565b91505092915050565b600082601f830112611ebe57611ebd6130a6565b5b8135611ece848260208601611d72565b91505092915050565b600081359050611ee681613512565b92915050565b600081359050611efb81613529565b92915050565b600060208284031215611f1757611f166130d3565b5b6000611f2584828501611db4565b91505092915050565b600060208284031215611f4457611f436130d3565b5b6000611f5284828501611ed7565b91505092915050565b60008060008060808587031215611f7557611f746130d3565b5b6000611f8387828801611ed7565b9450506020611f9487828801611db4565b935050604085013567ffffffffffffffff811115611fb557611fb46130c9565b5b611fc187828801611e4d565b925050606085013567ffffffffffffffff811115611fe257611fe16130c9565b5b611fee87828801611e7b565b91505092959194509250565b60008060008060008060008060006101008a8c03121561201d5761201c6130d3565b5b600061202b8c828d01611eec565b99505060208a013567ffffffffffffffff81111561204c5761204b6130c9565b5b6120588c828d01611dc9565b98505060406120698c828d01611db4565b975050606061207a8c828d01611ed7565b965050608061208b8c828d01611ed7565b95505060a08a013567ffffffffffffffff8111156120ac576120ab6130c9565b5b6120b88c828d01611ea9565b94505060c08a013567ffffffffffffffff8111156120d9576120d86130c9565b5b6120e58c828d01611df7565b935093505060e06120f88c828d01611ed7565b9150509295985092959850929598565b60006121148383612136565b60208301905092915050565b600061212d848484612237565b90509392505050565b61213f81612e0f565b82525050565b61214e81612e0f565b82525050565b600061215f82612c11565b6121698185612c41565b935061217483612be2565b8060005b838110156121a557815161218c8882612108565b975061219783612c27565b925050600181019050612178565b5085935050505092915050565b60006121be8385612c52565b9350836020840285016121d084612bf2565b8060005b878110156122165784840389526121eb8284612c90565b6121f6868284612120565b955061220184612c34565b935060208b019a5050506001810190506121d4565b50829750879450505050509392505050565b61223181612e21565b82525050565b60006122438385612c63565b9350612250838584612e8e565b612259836130d8565b840190509392505050565b60006122708385612c85565b935061227d838584612e8e565b82840190509392505050565b600061229482612c1c565b61229e8185612c74565b93506122ae818560208601612e9d565b6122b7816130d8565b840191505092915050565b60006122cd82612c1c565b6122d78185612c85565b93506122e7818560208601612e9d565b80840191505092915050565b6000815461230081612ed0565b61230a8186612c85565b94506001821660008114612325576001811461233657612369565b60ff19831686528186019350612369565b61233f85612bfc565b60005b8381101561236157815481890152600182019150602081019050612342565b838801955050505b50505092915050565b600061237f601283612c74565b915061238a826130e9565b602082019050919050565b60006123a2602c83612c74565b91506123ad82613112565b604082019050919050565b60006123c5602283612c74565b91506123d082613161565b604082019050919050565b60006123e8600d83612c74565b91506123f3826131b0565b602082019050919050565b600061240b601b83612c74565b9150612416826131d9565b602082019050919050565b600061242e602383612c74565b915061243982613202565b604082019050919050565b6000612451601483612c74565b915061245c82613251565b602082019050919050565b6000612474602383612c74565b915061247f8261327a565b604082019050919050565b6000612497601283612c74565b91506124a2826132c9565b602082019050919050565b60006124ba602383612c74565b91506124c5826132f2565b604082019050919050565b60006124dd602a83612c74565b91506124e882613341565b604082019050919050565b6000612500602183612c74565b915061250b82613390565b604082019050919050565b6000612523602483612c74565b915061252e826133df565b604082019050919050565b6000612546600483612c74565b91506125518261342e565b602082019050919050565b6000612569601d83612c74565b915061257482613457565b602082019050919050565b600061258c600483612c74565b915061259782613480565b602082019050919050565b60006125af600983612c74565b91506125ba826134a9565b602082019050919050565b60006125d2601f83612c74565b91506125dd826134d2565b602082019050919050565b6125f181612e2d565b82525050565b61260081612e49565b82525050565b61260f81612e77565b82525050565b61261e81612e81565b82525050565b6000612631828486612264565b91508190509392505050565b600061264982846122c2565b915081905092915050565b600061266082846122f3565b915081905092915050565b600060e082019050612680600083018a612145565b61268d6020830189612615565b818103604083015261269f8188612289565b90506126ae6060830187612606565b6126bb6080830186612606565b6126c860a08301856125f7565b6126d560c0830184612606565b98975050505050505050565b600060208201905081810360008301526126fb8184612289565b905092915050565b6000602082019050818103600083015261271c81612372565b9050919050565b6000602082019050818103600083015261273c81612395565b9050919050565b6000602082019050818103600083015261275c816123b8565b9050919050565b6000602082019050818103600083015261277c816123db565b9050919050565b6000602082019050818103600083015261279c816123fe565b9050919050565b600060208201905081810360008301526127bc81612421565b9050919050565b600060208201905081810360008301526127dc81612444565b9050919050565b600060208201905081810360008301526127fc81612467565b9050919050565b6000602082019050818103600083015261281c8161248a565b9050919050565b6000602082019050818103600083015261283c816124ad565b9050919050565b6000602082019050818103600083015261285c816124d0565b9050919050565b6000602082019050818103600083015261287c816124f3565b9050919050565b6000602082019050818103600083015261289c81612516565b9050919050565b600060608201905081810360008301526128bc81612539565b90506128cb6020830185612145565b6128d86040830184612606565b9392505050565b600060208201905081810360008301526128f88161255c565b9050919050565b600060608201905081810360008301526129188161257f565b90506129276020830185612145565b6129346040830184612606565b9392505050565b60006020820190508181036000830152612954816125a2565b9050919050565b60006020820190508181036000830152612974816125c5565b9050919050565b600060408201905061299060008301856125e8565b61299d60208301846125e8565b9392505050565b60006020820190506129b96000830184612606565b92915050565b60006080820190506129d46000830187612606565b6129e16020830186612145565b6129ee6040830185612228565b6129fb6060830184612606565b95945050505050565b600060e082019050612a19600083018b612606565b8181036020830152612a2b818a612154565b9050612a3a6040830189612145565b612a476060830188612606565b612a546080830187612606565b81810360a0830152612a668186612289565b905081810360c0830152612a7b8184866121b2565b90509998505050505050505050565b6000602082019050612a9f6000830184612615565b92915050565b60008083356001602003843603038112612ac257612ac16130b0565b5b80840192508235915067ffffffffffffffff821115612ae457612ae36130ab565b5b602083019250600182023603831315612b0057612aff6130bf565b5b509250929050565b6000612b12612b23565b9050612b1e8282612f02565b919050565b6000604051905090565b600067ffffffffffffffff821115612b4857612b4761306d565b5b602082029050602081019050919050565b600067ffffffffffffffff821115612b7457612b7361306d565b5b602082029050602081019050919050565b600067ffffffffffffffff821115612ba057612b9f61306d565b5b602082029050602081019050919050565b600067ffffffffffffffff821115612bcc57612bcb61306d565b5b612bd5826130d8565b9050602081019050919050565b6000819050602082019050919050565b6000819050919050565b60008190508160005260206000209050919050565b600081519050919050565b600081519050919050565b6000602082019050919050565b6000602082019050919050565b600082825260208201905092915050565b600082825260208201905092915050565b600082825260208201905092915050565b600082825260208201905092915050565b600081905092915050565b60008083356001602003843603038112612cad57612cac6130ce565b5b83810192508235915060208301925067ffffffffffffffff821115612cd557612cd461309c565b5b600182023603841315612ceb57612cea6130b5565b5b509250929050565b6000612cfe82612e49565b9150612d0983612e49565b92508261ffff03821115612d2057612d1f612fe0565b5b828201905092915050565b6000612d3682612e77565b9150612d4183612e77565b9250827fffffffffffffffffffffffffffffffffffffffffffffffffffffffffffffffff03821115612d7657612d75612fe0565b5b828201905092915050565b6000612d8c82612e77565b9150612d9783612e77565b9250817fffffffffffffffffffffffffffffffffffffffffffffffffffffffffffffffff0483118215151615612dd057612dcf612fe0565b5b828202905092915050565b6000612de682612e77565b9150612df183612e77565b925082821015612e0457612e03612fe0565b5b828203905092915050565b6000612e1a82612e57565b9050919050565b60008115159050919050565b60006fffffffffffffffffffffffffffffffff82169050919050565b600061ffff82169050919050565b600073ffffffffffffffffffffffffffffffffffffffff82169050919050565b6000819050919050565b600060ff82169050919050565b82818337600083830152505050565b60005b83811015612ebb578082015181840152602081019050612ea0565b83811115612eca576000848401525b50505050565b60006002820490506001821680612ee857607f821691505b60208210811415612efc57612efb61300f565b5b50919050565b612f0b826130d8565b810181811067ffffffffffffffff82111715612f2a57612f2961306d565b5b80604052505050565b6000612f3e82612e2d565b91506fffffffffffffffffffffffffffffffff821415612f6157612f60612fe0565b5b600182019050919050565b6000612f7782612e49565b915061ffff821415612f8c57612f8b612fe0565b5b600182019050919050565b6000612fa282612e77565b91507fffffffffffffffffffffffffffffffffffffffffffffffffffffffffffffffff821415612fd557612fd4612fe0565b5b600182019050919050565b7f4e487b7100000000000000000000000000000000000000000000000000000000600052601160045260246000fd5b7f4e487b7100000000000000000000000000000000000000000000000000000000600052602260045260246000fd5b7f4e487b7100000000000000000000000000000000000000000000000000000000600052603260045260246000fd5b7f4e487b7100000000000000000000000000000000000000000000000000000000600052604160045260246000fd5b600080fd5b600080fd5b600080fd5b600080fd5b600080fd5b600080fd5b600080fd5b600080fd5b600080fd5b600080fd5b600080fd5b600080fd5b6000601f19601f8301169050919050565b7f50726f706f73616c3a20696e6163746976650000000000000000000000000000600082015250565b7f456e642074696d652073686f756c642062652067726561746572207468616e2060008201527f63757272656e742074696d650000000000000000000000000000000000000000602082015250565b7f45524332303a206275726e20616d6f756e7420657863656564732062616c616e60008201527f6365000000000000000000000000000000000000000000000000000000000000602082015250565b7f616c726561647920766f74656400000000000000000000000000000000000000600082015250565b7f50726f706f73616c3a20696e76616c69642063616e6469646174650000000000600082015250565b7f6e6f7420612076616c696420766f74657220666f7220746869732070726f706f60008201527f73616c0000000000000000000000000000000000000000000000000000000000602082015250565b7f70726f706f73616c206e6f742073746172746564000000000000000000000000600082015250565b7f4e6f7420612076616c696420766f74657220666f7220746869732070726f706f60008201527f73616c0000000000000000000000000000000000000000000000000000000000602082015250565b7f696e76616c69642070726f706f73616c49640000000000000000000000000000600082015250565b7f6e6f742073756666696369656e742062616c616e636520746f2063617374207660008201527f6f74650000000000000000000000000000000000000000000000000000000000602082015250565b7f456e642074696d652073686f756c642062652067726561746572207468616e2060008201527f73746172742074696d6500000000000000000000000000000000000000000000602082015250565b7f45524332303a206275726e2066726f6d20746865207a65726f2061646472657360008201527f7300000000000000000000000000000000000000000000000000000000000000602082015250565b7f6e6f7420612076616c6964206c656e677468206f66206861736820726573706f60008201527f6e73652100000000000000000000000000000000000000000000000000000000602082015250565b7f6d696e7400000000000000000000000000000000000000000000000000000000600082015250565b7f496e76616c696420766f74657220666f722070726f706f73616c496421000000600082015250565b7f6275726e00000000000000000000000000000000000000000000000000000000600082015250565b7f6e6f7420766f7465640000000000000000000000000000000000000000000000600082015250565b7f45524332303a206d696e7420746f20746865207a65726f206164647265737300600082015250565b61350481612e0f565b811461350f57600080fd5b50565b61351b81612e77565b811461352657600080fd5b50565b61353281612e81565b811461353d57600080fd5b5056fea2646970667358221220efc37676cd367f978874b3d1bda5a397fb1e6abfc05007ad054100eafb95ede064736f6c63430008070033",
					"opcodes": "PUSH1 0x80 PUSH1 0x40 MSTORE CALLVALUE DUP1 ISZERO PUSH3 0x11 JUMPI PUSH1 0x0 DUP1 REVERT JUMPDEST POP PUSH1 0x40 MLOAD DUP1 PUSH1 0x40 ADD PUSH1 0x40 MSTORE DUP1 PUSH1 0xC DUP2 MSTORE PUSH1 0x20 ADD PUSH32 0x51566F74696E67546F6B656E0000000000000000000000000000000000000000 DUP2 MSTORE POP PUSH1 0x40 MLOAD DUP1 PUSH1 0x40 ADD PUSH1 0x40 MSTORE DUP1 PUSH1 0x2 DUP2 MSTORE PUSH1 0x20 ADD PUSH32 0x5176000000000000000000000000000000000000000000000000000000000000 DUP2 MSTORE POP DUP2 PUSH1 0x2 SWAP1 DUP1 MLOAD SWAP1 PUSH1 0x20 ADD SWAP1 PUSH3 0x96 SWAP3 SWAP2 SWAP1 PUSH3 0xF9 JUMP JUMPDEST POP DUP1 PUSH1 0x3 SWAP1 DUP1 MLOAD SWAP1 PUSH1 0x20 ADD SWAP1 PUSH3 0xAF SWAP3 SWAP2 SWAP1 PUSH3 0xF9 JUMP JUMPDEST POP POP POP CALLER PUSH1 0x4 PUSH1 0x0 PUSH2 0x100 EXP DUP2 SLOAD DUP2 PUSH20 0xFFFFFFFFFFFFFFFFFFFFFFFFFFFFFFFFFFFFFFFF MUL NOT AND SWAP1 DUP4 PUSH20 0xFFFFFFFFFFFFFFFFFFFFFFFFFFFFFFFFFFFFFFFF AND MUL OR SWAP1 SSTORE POP PUSH3 0x20E JUMP JUMPDEST DUP3 DUP1 SLOAD PUSH3 0x107 SWAP1 PUSH3 0x1A9 JUMP JUMPDEST SWAP1 PUSH1 0x0 MSTORE PUSH1 0x20 PUSH1 0x0 KECCAK256 SWAP1 PUSH1 0x1F ADD PUSH1 0x20 SWAP1 DIV DUP2 ADD SWAP3 DUP3 PUSH3 0x12B JUMPI PUSH1 0x0 DUP6 SSTORE PUSH3 0x177 JUMP JUMPDEST DUP3 PUSH1 0x1F LT PUSH3 0x146 JUMPI DUP1 MLOAD PUSH1 0xFF NOT AND DUP4 DUP1 ADD OR DUP6 SSTORE PUSH3 0x177 JUMP JUMPDEST DUP3 DUP1 ADD PUSH1 0x1 ADD DUP6 SSTORE DUP3 ISZERO PUSH3 0x177 JUMPI SWAP2 DUP3 ADD JUMPDEST DUP3 DUP2 GT ISZERO PUSH3 0x176 JUMPI DUP3 MLOAD DUP3 SSTORE SWAP2 PUSH1 0x20 ADD SWAP2 SWAP1 PUSH1 0x1 ADD SWAP1 PUSH3 0x159 JUMP JUMPDEST JUMPDEST POP SWAP1 POP PUSH3 0x186 SWAP2 SWAP1 PUSH3 0x18A JUMP JUMPDEST POP SWAP1 JUMP JUMPDEST JUMPDEST DUP1 DUP3 GT ISZERO PUSH3 0x1A5 JUMPI PUSH1 0x0 DUP2 PUSH1 0x0 SWAP1 SSTORE POP PUSH1 0x1 ADD PUSH3 0x18B JUMP JUMPDEST POP SWAP1 JUMP JUMPDEST PUSH1 0x0 PUSH1 0x2 DUP3 DIV SWAP1 POP PUSH1 0x1 DUP3 AND DUP1 PUSH3 0x1C2 JUMPI PUSH1 0x7F DUP3 AND SWAP2 POP JUMPDEST PUSH1 0x20 DUP3 LT DUP2 EQ ISZERO PUSH3 0x1D9 JUMPI PUSH3 0x1D8 PUSH3 0x1DF JUMP JUMPDEST JUMPDEST POP SWAP2 SWAP1 POP JUMP JUMPDEST PUSH32 0x4E487B7100000000000000000000000000000000000000000000000000000000 PUSH1 0x0 MSTORE PUSH1 0x22 PUSH1 0x4 MSTORE PUSH1 0x24 PUSH1 0x0 REVERT JUMPDEST PUSH2 0x3576 DUP1 PUSH3 0x21E PUSH1 0x0 CODECOPY PUSH1 0x0 RETURN INVALID PUSH1 0x80 PUSH1 0x40 MSTORE CALLVALUE DUP1 ISZERO PUSH2 0x10 JUMPI PUSH1 0x0 DUP1 REVERT JUMPDEST POP PUSH1 0x4 CALLDATASIZE LT PUSH2 0x9E JUMPI PUSH1 0x0 CALLDATALOAD PUSH1 0xE0 SHR DUP1 PUSH4 0x5C230EEE GT PUSH2 0x66 JUMPI DUP1 PUSH4 0x5C230EEE EQ PUSH2 0x14F JUMPI DUP1 PUSH4 0x70A08231 EQ PUSH2 0x16B JUMPI DUP1 PUSH4 0x95D89B41 EQ PUSH2 0x19B JUMPI DUP1 PUSH4 0xC3703048 EQ PUSH2 0x1B9 JUMPI DUP1 PUSH4 0xE745D68E EQ PUSH2 0x1EC JUMPI PUSH2 0x9E JUMP JUMPDEST DUP1 PUSH4 0x13CF08B EQ PUSH2 0xA3 JUMPI DUP1 PUSH4 0x6FDDE03 EQ PUSH2 0xD9 JUMPI DUP1 PUSH4 0x18160DDD EQ PUSH2 0xF7 JUMPI DUP1 PUSH4 0x313CE567 EQ PUSH2 0x115 JUMPI DUP1 PUSH4 0x4DE77E48 EQ PUSH2 0x133 JUMPI JUMPDEST PUSH1 0x0 DUP1 REVERT JUMPDEST PUSH2 0xBD PUSH1 0x4 DUP1 CALLDATASIZE SUB DUP2 ADD SWAP1 PUSH2 0xB8 SWAP2 SWAP1 PUSH2 0x1F2E JUMP JUMPDEST PUSH2 0x21D JUMP JUMPDEST PUSH1 0x40 MLOAD PUSH2 0xD0 SWAP8 SWAP7 SWAP6 SWAP5 SWAP4 SWAP3 SWAP2 SWAP1 PUSH2 0x266B JUMP JUMPDEST PUSH1 0x40 MLOAD DUP1 SWAP2 SUB SWAP1 RETURN JUMPDEST PUSH2 0xE1 PUSH2 0x322 JUMP JUMPDEST PUSH1 0x40 MLOAD PUSH2 0xEE SWAP2 SWAP1 PUSH2 0x26E1 JUMP JUMPDEST PUSH1 0x40 MLOAD DUP1 SWAP2 SUB SWAP1 RETURN JUMPDEST PUSH2 0xFF PUSH2 0x3B4 JUMP JUMPDEST PUSH1 0x40 MLOAD PUSH2 0x10C SWAP2 SWAP1 PUSH2 0x29A4 JUMP JUMPDEST PUSH1 0x40 MLOAD DUP1 SWAP2 SUB SWAP1 RETURN JUMPDEST PUSH2 0x11D PUSH2 0x3BE JUMP JUMPDEST PUSH1 0x40 MLOAD PUSH2 0x12A SWAP2 SWAP1 PUSH2 0x2A8A JUMP JUMPDEST PUSH1 0x40 MLOAD DUP1 SWAP2 SUB SWAP1 RETURN JUMPDEST PUSH2 0x14D PUSH1 0x4 DUP1 CALLDATASIZE SUB DUP2 ADD SWAP1 PUSH2 0x148 SWAP2 SWAP1 PUSH2 0x1FFA JUMP JUMPDEST PUSH2 0x3C7 JUMP JUMPDEST STOP JUMPDEST PUSH2 0x169 PUSH1 0x4 DUP1 CALLDATASIZE SUB DUP2 ADD SWAP1 PUSH2 0x164 SWAP2 SWAP1 PUSH2 0x1F5B JUMP JUMPDEST PUSH2 0x6DE JUMP JUMPDEST STOP JUMPDEST PUSH2 0x185 PUSH1 0x4 DUP1 CALLDATASIZE SUB DUP2 ADD SWAP1 PUSH2 0x180 SWAP2 SWAP1 PUSH2 0x1F01 JUMP JUMPDEST PUSH2 0xAF7 JUMP JUMPDEST PUSH1 0x40 MLOAD PUSH2 0x192 SWAP2 SWAP1 PUSH2 0x29A4 JUMP JUMPDEST PUSH1 0x40 MLOAD DUP1 SWAP2 SUB SWAP1 RETURN JUMPDEST PUSH2 0x1A3 PUSH2 0xB3F JUMP JUMPDEST PUSH1 0x40 MLOAD PUSH2 0x1B0 SWAP2 SWAP1 PUSH2 0x26E1 JUMP JUMPDEST PUSH1 0x40 MLOAD DUP1 SWAP2 SUB SWAP1 RETURN JUMPDEST PUSH2 0x1D3 PUSH1 0x4 DUP1 CALLDATASIZE SUB DUP2 ADD SWAP1 PUSH2 0x1CE SWAP2 SWAP1 PUSH2 0x1F01 JUMP JUMPDEST PUSH2 0xBD1 JUMP JUMPDEST PUSH1 0x40 MLOAD PUSH2 0x1E3 SWAP5 SWAP4 SWAP3 SWAP2 SWAP1 PUSH2 0x29BF JUMP JUMPDEST PUSH1 0x40 MLOAD DUP1 SWAP2 SUB SWAP1 RETURN JUMPDEST PUSH2 0x206 PUSH1 0x4 DUP1 CALLDATASIZE SUB DUP2 ADD SWAP1 PUSH2 0x201 SWAP2 SWAP1 PUSH2 0x1F01 JUMP JUMPDEST PUSH2 0xC2E JUMP JUMPDEST PUSH1 0x40 MLOAD PUSH2 0x214 SWAP3 SWAP2 SWAP1 PUSH2 0x297B JUMP JUMPDEST PUSH1 0x40 MLOAD DUP1 SWAP2 SUB SWAP1 RETURN JUMPDEST PUSH1 0x7 PUSH1 0x20 MSTORE DUP1 PUSH1 0x0 MSTORE PUSH1 0x40 PUSH1 0x0 KECCAK256 PUSH1 0x0 SWAP2 POP SWAP1 POP DUP1 PUSH1 0x0 ADD PUSH1 0x0 SWAP1 SLOAD SWAP1 PUSH2 0x100 EXP SWAP1 DIV PUSH20 0xFFFFFFFFFFFFFFFFFFFFFFFFFFFFFFFFFFFFFFFF AND SWAP1 DUP1 PUSH1 0x0 ADD PUSH1 0x14 SWAP1 SLOAD SWAP1 PUSH2 0x100 EXP SWAP1 DIV PUSH1 0xFF AND SWAP1 DUP1 PUSH1 0x1 ADD DUP1 SLOAD PUSH2 0x279 SWAP1 PUSH2 0x2ED0 JUMP JUMPDEST DUP1 PUSH1 0x1F ADD PUSH1 0x20 DUP1 SWAP2 DIV MUL PUSH1 0x20 ADD PUSH1 0x40 MLOAD SWAP1 DUP2 ADD PUSH1 0x40 MSTORE DUP1 SWAP3 SWAP2 SWAP1 DUP2 DUP2 MSTORE PUSH1 0x20 ADD DUP3 DUP1 SLOAD PUSH2 0x2A5 SWAP1 PUSH2 0x2ED0 JUMP JUMPDEST DUP1 ISZERO PUSH2 0x2F2 JUMPI DUP1 PUSH1 0x1F LT PUSH2 0x2C7 JUMPI PUSH2 0x100 DUP1 DUP4 SLOAD DIV MUL DUP4 MSTORE SWAP2 PUSH1 0x20 ADD SWAP2 PUSH2 0x2F2 JUMP JUMPDEST DUP3 ADD SWAP2 SWAP1 PUSH1 0x0 MSTORE PUSH1 0x20 PUSH1 0x0 KECCAK256 SWAP1 JUMPDEST DUP2 SLOAD DUP2 MSTORE SWAP1 PUSH1 0x1 ADD SWAP1 PUSH1 0x20 ADD DUP1 DUP4 GT PUSH2 0x2D5 JUMPI DUP3 SWAP1 SUB PUSH1 0x1F AND DUP3 ADD SWAP2 JUMPDEST POP POP POP POP POP SWAP1 DUP1 PUSH1 0x2 ADD SLOAD SWAP1 DUP1 PUSH1 0x3 ADD SLOAD SWAP1 DUP1 PUSH1 0x4 ADD PUSH1 0x0 SWAP1 SLOAD SWAP1 PUSH2 0x100 EXP SWAP1 DIV PUSH2 0xFFFF AND SWAP1 DUP1 PUSH1 0x5 ADD SLOAD SWAP1 POP DUP8 JUMP JUMPDEST PUSH1 0x60 PUSH1 0x2 DUP1 SLOAD PUSH2 0x331 SWAP1 PUSH2 0x2ED0 JUMP JUMPDEST DUP1 PUSH1 0x1F ADD PUSH1 0x20 DUP1 SWAP2 DIV MUL PUSH1 0x20 ADD PUSH1 0x40 MLOAD SWAP1 DUP2 ADD PUSH1 0x40 MSTORE DUP1 SWAP3 SWAP2 SWAP1 DUP2 DUP2 MSTORE PUSH1 0x20 ADD DUP3 DUP1 SLOAD PUSH2 0x35D SWAP1 PUSH2 0x2ED0 JUMP JUMPDEST DUP1 ISZERO PUSH2 0x3AA JUMPI DUP1 PUSH1 0x1F LT PUSH2 0x37F JUMPI PUSH2 0x100 DUP1 DUP4 SLOAD DIV MUL DUP4 MSTORE SWAP2 PUSH1 0x20 ADD SWAP2 PUSH2 0x3AA JUMP JUMPDEST DUP3 ADD SWAP2 SWAP1 PUSH1 0x0 MSTORE PUSH1 0x20 PUSH1 0x0 KECCAK256 SWAP1 JUMPDEST DUP2 SLOAD DUP2 MSTORE SWAP1 PUSH1 0x1 ADD SWAP1 PUSH1 0x20 ADD DUP1 DUP4 GT PUSH2 0x38D JUMPI DUP3 SWAP1 SUB PUSH1 0x1F AND DUP3 ADD SWAP2 JUMPDEST POP POP POP POP POP SWAP1 POP SWAP1 JUMP JUMPDEST PUSH1 0x0 PUSH1 0x1 SLOAD SWAP1 POP SWAP1 JUMP JUMPDEST PUSH1 0x0 PUSH1 0x12 SWAP1 POP SWAP1 JUMP JUMPDEST DUP6 TIMESTAMP LT PUSH2 0x409 JUMPI PUSH1 0x40 MLOAD PUSH32 0x8C379A000000000000000000000000000000000000000000000000000000000 DUP2 MSTORE PUSH1 0x4 ADD PUSH2 0x400 SWAP1 PUSH2 0x27C3 JUMP JUMPDEST PUSH1 0x40 MLOAD DUP1 SWAP2 SUB SWAP1 REVERT JUMPDEST DUP5 TIMESTAMP LT PUSH2 0x44B JUMPI PUSH1 0x40 MLOAD PUSH32 0x8C379A000000000000000000000000000000000000000000000000000000000 DUP2 MSTORE PUSH1 0x4 ADD PUSH2 0x442 SWAP1 PUSH2 0x2723 JUMP JUMPDEST PUSH1 0x40 MLOAD DUP1 SWAP2 SUB SWAP1 REVERT JUMPDEST DUP5 DUP7 LT PUSH2 0x48D JUMPI PUSH1 0x40 MLOAD PUSH32 0x8C379A000000000000000000000000000000000000000000000000000000000 DUP2 MSTORE PUSH1 0x4 ADD PUSH2 0x484 SWAP1 PUSH2 0x2843 JUMP JUMPDEST PUSH1 0x40 MLOAD DUP1 SWAP2 SUB SWAP1 REVERT JUMPDEST PUSH1 0x5 PUSH1 0x0 DUP2 SLOAD DUP1 SWAP3 SWAP2 SWAP1 PUSH2 0x4A0 SWAP1 PUSH2 0x2F97 JUMP JUMPDEST SWAP2 SWAP1 POP SSTORE POP PUSH2 0x4DC DUP10 DUP10 DUP10 DUP10 DUP10 DUP10 DUP8 DUP11 DUP11 PUSH1 0x7 PUSH1 0x0 PUSH1 0x5 SLOAD DUP2 MSTORE PUSH1 0x20 ADD SWAP1 DUP2 MSTORE PUSH1 0x20 ADD PUSH1 0x0 KECCAK256 PUSH2 0xC8A SWAP1 SWAP10 SWAP9 SWAP8 SWAP7 SWAP6 SWAP5 SWAP4 SWAP3 SWAP2 SWAP1 PUSH4 0xFFFFFFFF AND JUMP JUMPDEST POP PUSH32 0x239A8A71A7D1CB0D134F6CC072AD6390E36A88C8E78DFF69013EE79528441E80 PUSH1 0x5 SLOAD DUP10 DUP10 DUP10 DUP10 DUP10 DUP10 DUP10 PUSH1 0x40 MLOAD PUSH2 0x51C SWAP9 SWAP8 SWAP7 SWAP6 SWAP5 SWAP4 SWAP3 SWAP2 SWAP1 PUSH2 0x2A04 JUMP JUMPDEST PUSH1 0x40 MLOAD DUP1 SWAP2 SUB SWAP1 LOG1 PUSH1 0x1 PUSH1 0x9 PUSH1 0x0 PUSH1 0x5 SLOAD DUP2 MSTORE PUSH1 0x20 ADD SWAP1 DUP2 MSTORE PUSH1 0x20 ADD PUSH1 0x0 KECCAK256 PUSH1 0x0 PUSH2 0x100 EXP DUP2 SLOAD DUP2 PUSH1 0xFF MUL NOT AND SWAP1 DUP4 ISZERO ISZERO MUL OR SWAP1 SSTORE POP PUSH1 0x0 JUMPDEST DUP9 MLOAD DUP2 LT ISZERO PUSH2 0x677 JUMPI PUSH2 0x582 DUP10 DUP3 DUP2 MLOAD DUP2 LT PUSH2 0x574 JUMPI PUSH2 0x573 PUSH2 0x303E JUMP JUMPDEST JUMPDEST PUSH1 0x20 MUL PUSH1 0x20 ADD ADD MLOAD DUP4 PUSH2 0xEBC JUMP JUMPDEST PUSH2 0x610 PUSH1 0x5 SLOAD DUP11 DUP4 DUP2 MLOAD DUP2 LT PUSH2 0x59B JUMPI PUSH2 0x59A PUSH2 0x303E JUMP JUMPDEST JUMPDEST PUSH1 0x20 MUL PUSH1 0x20 ADD ADD MLOAD PUSH1 0x0 DUP6 PUSH1 0x8 PUSH1 0x0 DUP16 DUP9 DUP2 MLOAD DUP2 LT PUSH2 0x5BD JUMPI PUSH2 0x5BC PUSH2 0x303E JUMP JUMPDEST JUMPDEST PUSH1 0x20 MUL PUSH1 0x20 ADD ADD MLOAD PUSH20 0xFFFFFFFFFFFFFFFFFFFFFFFFFFFFFFFFFFFFFFFF AND PUSH20 0xFFFFFFFFFFFFFFFFFFFFFFFFFFFFFFFFFFFFFFFF AND DUP2 MSTORE PUSH1 0x20 ADD SWAP1 DUP2 MSTORE PUSH1 0x20 ADD PUSH1 0x0 KECCAK256 PUSH2 0xF2D SWAP1 SWAP5 SWAP4 SWAP3 SWAP2 SWAP1 PUSH4 0xFFFFFFFF AND JUMP JUMPDEST POP PUSH32 0xABF5327BE9F5825C40D58BDA541DD07F09B62DF3376BBD5ECDBAA8BD82A9D492 DUP10 DUP3 DUP2 MLOAD DUP2 LT PUSH2 0x645 JUMPI PUSH2 0x644 PUSH2 0x303E JUMP JUMPDEST JUMPDEST PUSH1 0x20 MUL PUSH1 0x20 ADD ADD MLOAD DUP4 PUSH1 0x40 MLOAD PUSH2 0x65C SWAP3 SWAP2 SWAP1 PUSH2 0x28A3 JUMP JUMPDEST PUSH1 0x40 MLOAD DUP1 SWAP2 SUB SWAP1 LOG1 DUP1 DUP1 PUSH2 0x66F SWAP1 PUSH2 0x2F97 JUMP JUMPDEST SWAP2 POP POP PUSH2 0x555 JUMP JUMPDEST POP PUSH2 0x6D2 PUSH1 0x5 SLOAD PUSH1 0x6 PUSH1 0x0 PUSH2 0x68A PUSH2 0xFAD JUMP JUMPDEST PUSH20 0xFFFFFFFFFFFFFFFFFFFFFFFFFFFFFFFFFFFFFFFF AND PUSH20 0xFFFFFFFFFFFFFFFFFFFFFFFFFFFFFFFFFFFFFFFF AND DUP2 MSTORE PUSH1 0x20 ADD SWAP1 DUP2 MSTORE PUSH1 0x20 ADD PUSH1 0x0 KECCAK256 PUSH2 0xFB5 SWAP1 SWAP2 SWAP1 PUSH4 0xFFFFFFFF AND JUMP JUMPDEST POP POP POP POP POP POP POP POP POP POP JUMP JUMPDEST PUSH1 0x9 PUSH1 0x0 DUP6 DUP2 MSTORE PUSH1 0x20 ADD SWAP1 DUP2 MSTORE PUSH1 0x20 ADD PUSH1 0x0 KECCAK256 PUSH1 0x0 SWAP1 SLOAD SWAP1 PUSH2 0x100 EXP SWAP1 DIV PUSH1 0xFF AND PUSH2 0x73E JUMPI PUSH1 0x40 MLOAD PUSH32 0x8C379A000000000000000000000000000000000000000000000000000000000 DUP2 MSTORE PUSH1 0x4 ADD PUSH2 0x735 SWAP1 PUSH2 0x2803 JUMP JUMPDEST PUSH1 0x40 MLOAD DUP1 SWAP2 SUB SWAP1 REVERT JUMPDEST DUP4 PUSH1 0x8 PUSH1 0x0 DUP6 PUSH20 0xFFFFFFFFFFFFFFFFFFFFFFFFFFFFFFFFFFFFFFFF AND PUSH20 0xFFFFFFFFFFFFFFFFFFFFFFFFFFFFFFFFFFFFFFFF AND DUP2 MSTORE PUSH1 0x20 ADD SWAP1 DUP2 MSTORE PUSH1 0x20 ADD PUSH1 0x0 KECCAK256 PUSH1 0x0 ADD SLOAD EQ PUSH2 0x7C2 JUMPI PUSH1 0x40 MLOAD PUSH32 0x8C379A000000000000000000000000000000000000000000000000000000000 DUP2 MSTORE PUSH1 0x4 ADD PUSH2 0x7B9 SWAP1 PUSH2 0x27A3 JUMP JUMPDEST PUSH1 0x40 MLOAD DUP1 SWAP2 SUB SWAP1 REVERT JUMPDEST PUSH1 0x8 PUSH1 0x0 DUP5 PUSH20 0xFFFFFFFFFFFFFFFFFFFFFFFFFFFFFFFFFFFFFFFF AND PUSH20 0xFFFFFFFFFFFFFFFFFFFFFFFFFFFFFFFFFFFFFFFF AND DUP2 MSTORE PUSH1 0x20 ADD SWAP1 DUP2 MSTORE PUSH1 0x20 ADD PUSH1 0x0 KECCAK256 PUSH1 0x1 ADD PUSH1 0x14 SWAP1 SLOAD SWAP1 PUSH2 0x100 EXP SWAP1 DIV PUSH1 0xFF AND ISZERO PUSH2 0x852 JUMPI PUSH1 0x40 MLOAD PUSH32 0x8C379A000000000000000000000000000000000000000000000000000000000 DUP2 MSTORE PUSH1 0x4 ADD PUSH2 0x849 SWAP1 PUSH2 0x2763 JUMP JUMPDEST PUSH1 0x40 MLOAD DUP1 SWAP2 SUB SWAP1 REVERT JUMPDEST DUP2 MLOAD PUSH1 0x7 PUSH1 0x0 DUP7 DUP2 MSTORE PUSH1 0x20 ADD SWAP1 DUP2 MSTORE PUSH1 0x20 ADD PUSH1 0x0 KECCAK256 PUSH1 0x4 ADD PUSH1 0x0 SWAP1 SLOAD SWAP1 PUSH2 0x100 EXP SWAP1 DIV PUSH2 0xFFFF AND PUSH2 0xFFFF AND EQ PUSH2 0x8BD JUMPI PUSH1 0x40 MLOAD PUSH32 0x8C379A000000000000000000000000000000000000000000000000000000000 DUP2 MSTORE PUSH1 0x4 ADD PUSH2 0x8B4 SWAP1 PUSH2 0x2883 JUMP JUMPDEST PUSH1 0x40 MLOAD DUP1 SWAP2 SUB SWAP1 REVERT JUMPDEST PUSH1 0x0 DUP1 JUMPDEST DUP3 MLOAD DUP2 LT ISZERO PUSH2 0x92A JUMPI DUP3 DUP2 DUP2 MLOAD DUP2 LT PUSH2 0x8DD JUMPI PUSH2 0x8DC PUSH2 0x303E JUMP JUMPDEST JUMPDEST PUSH1 0x20 MUL PUSH1 0x20 ADD ADD MLOAD DUP4 DUP3 DUP2 MLOAD DUP2 LT PUSH2 0x8F8 JUMPI PUSH2 0x8F7 PUSH2 0x303E JUMP JUMPDEST JUMPDEST PUSH1 0x20 MUL PUSH1 0x20 ADD ADD MLOAD PUSH2 0x90A SWAP2 SWAP1 PUSH2 0x2D81 JUMP JUMPDEST DUP3 PUSH2 0x915 SWAP2 SWAP1 PUSH2 0x2D2B JUMP JUMPDEST SWAP2 POP DUP1 DUP1 PUSH2 0x922 SWAP1 PUSH2 0x2F97 JUMP JUMPDEST SWAP2 POP POP PUSH2 0x8C1 JUMP JUMPDEST POP DUP1 PUSH1 0x8 PUSH1 0x0 DUP7 PUSH20 0xFFFFFFFFFFFFFFFFFFFFFFFFFFFFFFFFFFFFFFFF AND PUSH20 0xFFFFFFFFFFFFFFFFFFFFFFFFFFFFFFFFFFFFFFFF AND DUP2 MSTORE PUSH1 0x20 ADD SWAP1 DUP2 MSTORE PUSH1 0x20 ADD PUSH1 0x0 KECCAK256 PUSH1 0x2 ADD SLOAD LT ISZERO PUSH2 0x9B0 JUMPI PUSH1 0x40 MLOAD PUSH32 0x8C379A000000000000000000000000000000000000000000000000000000000 DUP2 MSTORE PUSH1 0x4 ADD PUSH2 0x9A7 SWAP1 PUSH2 0x2823 JUMP JUMPDEST PUSH1 0x40 MLOAD DUP1 SWAP2 SUB SWAP1 REVERT JUMPDEST PUSH2 0x9D9 DUP5 DUP5 DUP5 PUSH1 0x7 PUSH1 0x0 DUP11 DUP2 MSTORE PUSH1 0x20 ADD SWAP1 DUP2 MSTORE PUSH1 0x20 ADD PUSH1 0x0 KECCAK256 PUSH2 0x1086 SWAP1 SWAP4 SWAP3 SWAP2 SWAP1 PUSH4 0xFFFFFFFF AND JUMP JUMPDEST POP PUSH2 0xA34 DUP6 DUP5 PUSH1 0x6 PUSH1 0x0 PUSH2 0x9EB PUSH2 0xFAD JUMP JUMPDEST PUSH20 0xFFFFFFFFFFFFFFFFFFFFFFFFFFFFFFFFFFFFFFFF AND PUSH20 0xFFFFFFFFFFFFFFFFFFFFFFFFFFFFFFFFFFFFFFFF AND DUP2 MSTORE PUSH1 0x20 ADD SWAP1 DUP2 MSTORE PUSH1 0x20 ADD PUSH1 0x0 KECCAK256 PUSH2 0x14F5 SWAP1 SWAP3 SWAP2 SWAP1 PUSH4 0xFFFFFFFF AND JUMP JUMPDEST POP PUSH2 0xA7C PUSH1 0x8 PUSH1 0x0 DUP7 PUSH20 0xFFFFFFFFFFFFFFFFFFFFFFFFFFFFFFFFFFFFFFFF AND PUSH20 0xFFFFFFFFFFFFFFFFFFFFFFFFFFFFFFFFFFFFFFFF AND DUP2 MSTORE PUSH1 0x20 ADD SWAP1 DUP2 MSTORE PUSH1 0x20 ADD PUSH1 0x0 KECCAK256 PUSH2 0x1682 JUMP JUMPDEST POP PUSH2 0xA9F DUP5 PUSH1 0x7 PUSH1 0x0 PUSH1 0x5 SLOAD DUP2 MSTORE PUSH1 0x20 ADD SWAP1 DUP2 MSTORE PUSH1 0x20 ADD PUSH1 0x0 KECCAK256 PUSH1 0x5 ADD SLOAD PUSH2 0x1730 JUMP JUMPDEST PUSH32 0xABF5327BE9F5825C40D58BDA541DD07F09B62DF3376BBD5ECDBAA8BD82A9D492 DUP5 PUSH1 0x7 PUSH1 0x0 PUSH1 0x5 SLOAD DUP2 MSTORE PUSH1 0x20 ADD SWAP1 DUP2 MSTORE PUSH1 0x20 ADD PUSH1 0x0 KECCAK256 PUSH1 0x5 ADD SLOAD PUSH1 0x40 MLOAD PUSH2 0xAE8 SWAP3 SWAP2 SWAP1 PUSH2 0x28FF JUMP JUMPDEST PUSH1 0x40 MLOAD DUP1 SWAP2 SUB SWAP1 LOG1 POP POP POP POP POP JUMP JUMPDEST PUSH1 0x0 DUP1 PUSH1 0x0 DUP4 PUSH20 0xFFFFFFFFFFFFFFFFFFFFFFFFFFFFFFFFFFFFFFFF AND PUSH20 0xFFFFFFFFFFFFFFFFFFFFFFFFFFFFFFFFFFFFFFFF AND DUP2 MSTORE PUSH1 0x20 ADD SWAP1 DUP2 MSTORE PUSH1 0x20 ADD PUSH1 0x0 KECCAK256 SLOAD SWAP1 POP SWAP2 SWAP1 POP JUMP JUMPDEST PUSH1 0x60 PUSH1 0x3 DUP1 SLOAD PUSH2 0xB4E SWAP1 PUSH2 0x2ED0 JUMP JUMPDEST DUP1 PUSH1 0x1F ADD PUSH1 0x20 DUP1 SWAP2 DIV MUL PUSH1 0x20 ADD PUSH1 0x40 MLOAD SWAP1 DUP2 ADD PUSH1 0x40 MSTORE DUP1 SWAP3 SWAP2 SWAP1 DUP2 DUP2 MSTORE PUSH1 0x20 ADD DUP3 DUP1 SLOAD PUSH2 0xB7A SWAP1 PUSH2 0x2ED0 JUMP JUMPDEST DUP1 ISZERO PUSH2 0xBC7 JUMPI DUP1 PUSH1 0x1F LT PUSH2 0xB9C JUMPI PUSH2 0x100 DUP1 DUP4 SLOAD DIV MUL DUP4 MSTORE SWAP2 PUSH1 0x20 ADD SWAP2 PUSH2 0xBC7 JUMP JUMPDEST DUP3 ADD SWAP2 SWAP1 PUSH1 0x0 MSTORE PUSH1 0x20 PUSH1 0x0 KECCAK256 SWAP1 JUMPDEST DUP2 SLOAD DUP2 MSTORE SWAP1 PUSH1 0x1 ADD SWAP1 PUSH1 0x20 ADD DUP1 DUP4 GT PUSH2 0xBAA JUMPI DUP3 SWAP1 SUB PUSH1 0x1F AND DUP3 ADD SWAP2 JUMPDEST POP POP POP POP POP SWAP1 POP SWAP1 JUMP JUMPDEST PUSH1 0x8 PUSH1 0x20 MSTORE DUP1 PUSH1 0x0 MSTORE PUSH1 0x40 PUSH1 0x0 KECCAK256 PUSH1 0x0 SWAP2 POP SWAP1 POP DUP1 PUSH1 0x0 ADD SLOAD SWAP1 DUP1 PUSH1 0x1 ADD PUSH1 0x0 SWAP1 SLOAD SWAP1 PUSH2 0x100 EXP SWAP1 DIV PUSH20 0xFFFFFFFFFFFFFFFFFFFFFFFFFFFFFFFFFFFFFFFF AND SWAP1 DUP1 PUSH1 0x1 ADD PUSH1 0x14 SWAP1 SLOAD SWAP1 PUSH2 0x100 EXP SWAP1 DIV PUSH1 0xFF AND SWAP1 DUP1 PUSH1 0x2 ADD SLOAD SWAP1 POP DUP5 JUMP JUMPDEST PUSH1 0x6 PUSH1 0x20 MSTORE DUP1 PUSH1 0x0 MSTORE PUSH1 0x40 PUSH1 0x0 KECCAK256 PUSH1 0x0 SWAP2 POP SWAP1 POP DUP1 PUSH1 0x0 ADD PUSH1 0x0 SWAP1 SLOAD SWAP1 PUSH2 0x100 EXP SWAP1 DIV PUSH16 0xFFFFFFFFFFFFFFFFFFFFFFFFFFFFFFFF AND SWAP1 DUP1 PUSH1 0x0 ADD PUSH1 0x10 SWAP1 SLOAD SWAP1 PUSH2 0x100 EXP SWAP1 DIV PUSH16 0xFFFFFFFFFFFFFFFFFFFFFFFFFFFFFFFF AND SWAP1 POP DUP3 JUMP JUMPDEST PUSH1 0x0 DUP8 DUP12 PUSH1 0x0 ADD PUSH1 0x0 PUSH2 0x100 EXP DUP2 SLOAD DUP2 PUSH20 0xFFFFFFFFFFFFFFFFFFFFFFFFFFFFFFFFFFFFFFFF MUL NOT AND SWAP1 DUP4 PUSH20 0xFFFFFFFFFFFFFFFFFFFFFFFFFFFFFFFFFFFFFFFF AND MUL OR SWAP1 SSTORE POP DUP10 DUP12 PUSH1 0x0 ADD PUSH1 0x14 PUSH2 0x100 EXP DUP2 SLOAD DUP2 PUSH1 0xFF MUL NOT AND SWAP1 DUP4 PUSH1 0xFF AND MUL OR SWAP1 SSTORE POP DUP5 DUP12 PUSH1 0x1 ADD SWAP1 DUP1 MLOAD SWAP1 PUSH1 0x20 ADD SWAP1 PUSH2 0xD04 SWAP3 SWAP2 SWAP1 PUSH2 0x1A4E JUMP JUMPDEST POP DUP7 DUP12 PUSH1 0x2 ADD DUP2 SWAP1 SSTORE POP DUP6 DUP12 PUSH1 0x3 ADD DUP2 SWAP1 SSTORE POP DUP3 DUP3 SWAP1 POP DUP12 PUSH1 0x4 ADD PUSH1 0x0 PUSH2 0x100 EXP DUP2 SLOAD DUP2 PUSH2 0xFFFF MUL NOT AND SWAP1 DUP4 PUSH2 0xFFFF AND MUL OR SWAP1 SSTORE POP DUP4 DUP12 PUSH1 0x5 ADD DUP2 SWAP1 SSTORE POP PUSH1 0x0 JUMPDEST DUP4 DUP4 SWAP1 POP DUP2 LT ISZERO PUSH2 0xE15 JUMPI PUSH1 0x1 DUP13 PUSH1 0x7 ADD DUP6 DUP6 DUP5 DUP2 DUP2 LT PUSH2 0xD69 JUMPI PUSH2 0xD68 PUSH2 0x303E JUMP JUMPDEST JUMPDEST SWAP1 POP PUSH1 0x20 MUL DUP2 ADD SWAP1 PUSH2 0xD7B SWAP2 SWAP1 PUSH2 0x2AA5 JUMP JUMPDEST PUSH1 0x40 MLOAD PUSH2 0xD89 SWAP3 SWAP2 SWAP1 PUSH2 0x2624 JUMP JUMPDEST SWAP1 DUP2 MSTORE PUSH1 0x20 ADD PUSH1 0x40 MLOAD DUP1 SWAP2 SUB SWAP1 KECCAK256 PUSH1 0x0 PUSH2 0x100 EXP DUP2 SLOAD DUP2 PUSH1 0xFF MUL NOT AND SWAP1 DUP4 ISZERO ISZERO MUL OR SWAP1 SSTORE POP DUP4 DUP4 DUP3 DUP2 DUP2 LT PUSH2 0xDC1 JUMPI PUSH2 0xDC0 PUSH2 0x303E JUMP JUMPDEST JUMPDEST SWAP1 POP PUSH1 0x20 MUL DUP2 ADD SWAP1 PUSH2 0xDD3 SWAP2 SWAP1 PUSH2 0x2AA5 JUMP JUMPDEST DUP14 PUSH1 0x8 ADD PUSH1 0x0 PUSH1 0x1 DUP6 PUSH2 0xDE6 SWAP2 SWAP1 PUSH2 0x2D2B JUMP JUMPDEST DUP2 MSTORE PUSH1 0x20 ADD SWAP1 DUP2 MSTORE PUSH1 0x20 ADD PUSH1 0x0 KECCAK256 SWAP2 SWAP1 PUSH2 0xE01 SWAP3 SWAP2 SWAP1 PUSH2 0x1AD4 JUMP JUMPDEST POP DUP1 DUP1 PUSH2 0xE0D SWAP1 PUSH2 0x2F97 JUMP JUMPDEST SWAP2 POP POP PUSH2 0xD45 JUMP JUMPDEST POP PUSH1 0x0 JUMPDEST DUP10 MLOAD DUP2 LT ISZERO PUSH2 0xEA9 JUMPI PUSH1 0x1 DUP13 PUSH1 0x6 ADD PUSH1 0x0 DUP13 DUP5 DUP2 MLOAD DUP2 LT PUSH2 0xE3D JUMPI PUSH2 0xE3C PUSH2 0x303E JUMP JUMPDEST JUMPDEST PUSH1 0x20 MUL PUSH1 0x20 ADD ADD MLOAD PUSH20 0xFFFFFFFFFFFFFFFFFFFFFFFFFFFFFFFFFFFFFFFF AND PUSH20 0xFFFFFFFFFFFFFFFFFFFFFFFFFFFFFFFFFFFFFFFF AND DUP2 MSTORE PUSH1 0x20 ADD SWAP1 DUP2 MSTORE PUSH1 0x20 ADD PUSH1 0x0 KECCAK256 PUSH1 0x0 PUSH2 0x100 EXP DUP2 SLOAD DUP2 PUSH1 0xFF MUL NOT AND SWAP1 DUP4 ISZERO ISZERO MUL OR SWAP1 SSTORE POP DUP1 DUP1 PUSH2 0xEA1 SWAP1 PUSH2 0x2F97 JUMP JUMPDEST SWAP2 POP POP PUSH2 0xE19 JUMP JUMPDEST POP PUSH1 0x1 SWAP1 POP SWAP11 SWAP10 POP POP POP POP POP POP POP POP POP POP JUMP JUMPDEST PUSH2 0xEC4 PUSH2 0xFAD JUMP JUMPDEST DUP1 PUSH20 0xFFFFFFFFFFFFFFFFFFFFFFFFFFFFFFFFFFFFFFFF AND PUSH1 0x4 PUSH1 0x0 SWAP1 SLOAD SWAP1 PUSH2 0x100 EXP SWAP1 DIV PUSH20 0xFFFFFFFFFFFFFFFFFFFFFFFFFFFFFFFFFFFFFFFF AND PUSH20 0xFFFFFFFFFFFFFFFFFFFFFFFFFFFFFFFFFFFFFFFF AND EQ PUSH2 0xF1E JUMPI PUSH1 0x0 DUP1 REVERT JUMPDEST PUSH2 0xF28 DUP4 DUP4 PUSH2 0x17A1 JUMP JUMPDEST POP POP POP JUMP JUMPDEST PUSH1 0x0 DUP5 DUP7 PUSH1 0x0 ADD DUP2 SWAP1 SSTORE POP DUP4 DUP7 PUSH1 0x1 ADD PUSH1 0x0 PUSH2 0x100 EXP DUP2 SLOAD DUP2 PUSH20 0xFFFFFFFFFFFFFFFFFFFFFFFFFFFFFFFFFFFFFFFF MUL NOT AND SWAP1 DUP4 PUSH20 0xFFFFFFFFFFFFFFFFFFFFFFFFFFFFFFFFFFFFFFFF AND MUL OR SWAP1 SSTORE POP DUP3 DUP7 PUSH1 0x1 ADD PUSH1 0x14 PUSH2 0x100 EXP DUP2 SLOAD DUP2 PUSH1 0xFF MUL NOT AND SWAP1 DUP4 ISZERO ISZERO MUL OR SWAP1 SSTORE POP DUP2 DUP7 PUSH1 0x2 ADD DUP2 SWAP1 SSTORE POP PUSH1 0x1 SWAP1 POP SWAP6 SWAP5 POP POP POP POP POP JUMP JUMPDEST PUSH1 0x0 CALLER SWAP1 POP SWAP1 JUMP JUMPDEST PUSH1 0x0 DUP3 PUSH1 0x0 ADD PUSH1 0x0 DUP2 DUP2 SWAP1 SLOAD SWAP1 PUSH2 0x100 EXP SWAP1 DIV PUSH16 0xFFFFFFFFFFFFFFFFFFFFFFFFFFFFFFFF AND DUP1 SWAP3 SWAP2 SWAP1 PUSH2 0xFE7 SWAP1 PUSH2 0x2F33 JUMP JUMPDEST SWAP2 SWAP1 PUSH2 0x100 EXP DUP2 SLOAD DUP2 PUSH16 0xFFFFFFFFFFFFFFFFFFFFFFFFFFFFFFFF MUL NOT AND SWAP1 DUP4 PUSH16 0xFFFFFFFFFFFFFFFFFFFFFFFFFFFFFFFF AND MUL OR SWAP1 SSTORE POP POP DUP2 DUP4 PUSH1 0x1 ADD PUSH1 0x0 DUP6 PUSH1 0x0 ADD PUSH1 0x0 SWAP1 SLOAD SWAP1 PUSH2 0x100 EXP SWAP1 DIV PUSH16 0xFFFFFFFFFFFFFFFFFFFFFFFFFFFFFFFF AND PUSH16 0xFFFFFFFFFFFFFFFFFFFFFFFFFFFFFFFF AND PUSH16 0xFFFFFFFFFFFFFFFFFFFFFFFFFFFFFFFF AND DUP2 MSTORE PUSH1 0x20 ADD SWAP1 DUP2 MSTORE PUSH1 0x20 ADD PUSH1 0x0 KECCAK256 DUP2 SWAP1 SSTORE POP PUSH1 0x1 SWAP1 POP SWAP3 SWAP2 POP POP JUMP JUMPDEST PUSH1 0x0 PUSH1 0x2 DUP6 PUSH1 0x0 ADD PUSH1 0x14 SWAP1 SLOAD SWAP1 PUSH2 0x100 EXP SWAP1 DIV PUSH1 0xFF AND PUSH1 0xFF AND EQ PUSH2 0x10DF JUMPI PUSH1 0x40 MLOAD PUSH32 0x8C379A000000000000000000000000000000000000000000000000000000000 DUP2 MSTORE PUSH1 0x4 ADD PUSH2 0x10D6 SWAP1 PUSH2 0x2703 JUMP JUMPDEST PUSH1 0x40 MLOAD DUP1 SWAP2 SUB SWAP1 REVERT JUMPDEST DUP5 PUSH1 0x3 ADD SLOAD TIMESTAMP GT ISZERO PUSH2 0x1335 JUMPI PUSH1 0x2 DUP6 PUSH1 0x0 ADD PUSH1 0x14 PUSH2 0x100 EXP DUP2 SLOAD DUP2 PUSH1 0xFF MUL NOT AND SWAP1 DUP4 PUSH1 0xFF AND MUL OR SWAP1 SSTORE POP PUSH1 0x0 DUP6 PUSH1 0xA ADD DUP7 PUSH1 0x8 ADD PUSH1 0x0 PUSH1 0x1 DUP2 MSTORE PUSH1 0x20 ADD SWAP1 DUP2 MSTORE PUSH1 0x20 ADD PUSH1 0x0 KECCAK256 PUSH1 0x40 MLOAD PUSH2 0x1132 SWAP2 SWAP1 PUSH2 0x2654 JUMP JUMPDEST SWAP1 DUP2 MSTORE PUSH1 0x20 ADD PUSH1 0x40 MLOAD DUP1 SWAP2 SUB SWAP1 KECCAK256 SLOAD SWAP1 POP PUSH1 0x0 PUSH1 0x1 SWAP1 POP DUP7 PUSH1 0x8 ADD PUSH1 0x0 PUSH1 0x1 DUP2 MSTORE PUSH1 0x20 ADD SWAP1 DUP2 MSTORE PUSH1 0x20 ADD PUSH1 0x0 KECCAK256 DUP8 PUSH1 0x9 ADD PUSH1 0x0 PUSH1 0x1 DUP2 MSTORE PUSH1 0x20 ADD SWAP1 DUP2 MSTORE PUSH1 0x20 ADD PUSH1 0x0 KECCAK256 SWAP1 DUP1 SLOAD PUSH2 0x1181 SWAP1 PUSH2 0x2ED0 JUMP JUMPDEST PUSH2 0x118C SWAP3 SWAP2 SWAP1 PUSH2 0x1B5A JUMP JUMPDEST POP PUSH1 0x0 PUSH1 0x2 SWAP1 POP JUMPDEST DUP8 PUSH1 0x4 ADD PUSH1 0x0 SWAP1 SLOAD SWAP1 PUSH2 0x100 EXP SWAP1 DIV PUSH2 0xFFFF AND PUSH2 0xFFFF AND DUP2 PUSH2 0xFFFF AND GT PUSH2 0x1329 JUMPI DUP3 DUP9 PUSH1 0xA ADD DUP10 PUSH1 0x8 ADD PUSH1 0x0 DUP5 PUSH2 0xFFFF AND DUP2 MSTORE PUSH1 0x20 ADD SWAP1 DUP2 MSTORE PUSH1 0x20 ADD PUSH1 0x0 KECCAK256 PUSH1 0x40 MLOAD PUSH2 0x11E0 SWAP2 SWAP1 PUSH2 0x2654 JUMP JUMPDEST SWAP1 DUP2 MSTORE PUSH1 0x20 ADD PUSH1 0x40 MLOAD DUP1 SWAP2 SUB SWAP1 KECCAK256 SLOAD GT ISZERO PUSH2 0x1280 JUMPI DUP8 PUSH1 0xA ADD DUP9 PUSH1 0x8 ADD PUSH1 0x0 DUP4 PUSH2 0xFFFF AND DUP2 MSTORE PUSH1 0x20 ADD SWAP1 DUP2 MSTORE PUSH1 0x20 ADD PUSH1 0x0 KECCAK256 PUSH1 0x40 MLOAD PUSH2 0x121F SWAP2 SWAP1 PUSH2 0x2654 JUMP JUMPDEST SWAP1 DUP2 MSTORE PUSH1 0x20 ADD PUSH1 0x40 MLOAD DUP1 SWAP2 SUB SWAP1 KECCAK256 SLOAD SWAP3 POP PUSH1 0x1 SWAP2 POP DUP8 PUSH1 0x8 ADD PUSH1 0x0 DUP3 PUSH2 0xFFFF AND DUP2 MSTORE PUSH1 0x20 ADD SWAP1 DUP2 MSTORE PUSH1 0x20 ADD PUSH1 0x0 KECCAK256 DUP9 PUSH1 0x9 ADD PUSH1 0x0 PUSH1 0x1 DUP2 MSTORE PUSH1 0x20 ADD SWAP1 DUP2 MSTORE PUSH1 0x20 ADD PUSH1 0x0 KECCAK256 SWAP1 DUP1 SLOAD PUSH2 0x126F SWAP1 PUSH2 0x2ED0 JUMP JUMPDEST PUSH2 0x127A SWAP3 SWAP2 SWAP1 PUSH2 0x1B5A JUMP JUMPDEST POP PUSH2 0x1316 JUMP JUMPDEST DUP3 DUP9 PUSH1 0xA ADD DUP10 PUSH1 0x8 ADD PUSH1 0x0 DUP5 PUSH2 0xFFFF AND DUP2 MSTORE PUSH1 0x20 ADD SWAP1 DUP2 MSTORE PUSH1 0x20 ADD PUSH1 0x0 KECCAK256 PUSH1 0x40 MLOAD PUSH2 0x12AB SWAP2 SWAP1 PUSH2 0x2654 JUMP JUMPDEST SWAP1 DUP2 MSTORE PUSH1 0x20 ADD PUSH1 0x40 MLOAD DUP1 SWAP2 SUB SWAP1 KECCAK256 SLOAD EQ ISZERO PUSH2 0x1315 JUMPI DUP2 DUP1 PUSH2 0x12CB SWAP1 PUSH2 0x2F97 JUMP JUMPDEST SWAP3 POP POP DUP8 PUSH1 0x8 ADD PUSH1 0x0 DUP3 PUSH2 0xFFFF AND DUP2 MSTORE PUSH1 0x20 ADD SWAP1 DUP2 MSTORE PUSH1 0x20 ADD PUSH1 0x0 KECCAK256 DUP9 PUSH1 0x9 ADD PUSH1 0x0 DUP5 DUP2 MSTORE PUSH1 0x20 ADD SWAP1 DUP2 MSTORE PUSH1 0x20 ADD PUSH1 0x0 KECCAK256 SWAP1 DUP1 SLOAD PUSH2 0x1308 SWAP1 PUSH2 0x2ED0 JUMP JUMPDEST PUSH2 0x1313 SWAP3 SWAP2 SWAP1 PUSH2 0x1B5A JUMP JUMPDEST POP JUMPDEST JUMPDEST DUP1 DUP1 PUSH2 0x1321 SWAP1 PUSH2 0x2F6C JUMP JUMPDEST SWAP2 POP POP PUSH2 0x1194 JUMP JUMPDEST POP PUSH1 0x0 SWAP3 POP POP POP PUSH2 0x14ED JUMP JUMPDEST DUP5 PUSH1 0x6 ADD PUSH1 0x0 DUP6 PUSH20 0xFFFFFFFFFFFFFFFFFFFFFFFFFFFFFFFFFFFFFFFF AND PUSH20 0xFFFFFFFFFFFFFFFFFFFFFFFFFFFFFFFFFFFFFFFF AND DUP2 MSTORE PUSH1 0x20 ADD SWAP1 DUP2 MSTORE PUSH1 0x20 ADD PUSH1 0x0 KECCAK256 PUSH1 0x0 SWAP1 SLOAD SWAP1 PUSH2 0x100 EXP SWAP1 DIV PUSH1 0xFF AND PUSH2 0x13C3 JUMPI PUSH1 0x40 MLOAD PUSH32 0x8C379A000000000000000000000000000000000000000000000000000000000 DUP2 MSTORE PUSH1 0x4 ADD PUSH2 0x13BA SWAP1 PUSH2 0x27E3 JUMP JUMPDEST PUSH1 0x40 MLOAD DUP1 SWAP2 SUB SWAP1 REVERT JUMPDEST PUSH1 0x0 JUMPDEST DUP6 PUSH1 0x4 ADD PUSH1 0x0 SWAP1 SLOAD SWAP1 PUSH2 0x100 EXP SWAP1 DIV PUSH2 0xFFFF AND PUSH2 0xFFFF AND DUP2 PUSH2 0xFFFF AND LT ISZERO PUSH2 0x14E7 JUMPI DUP6 PUSH1 0x7 ADD DUP5 DUP3 PUSH2 0xFFFF AND DUP2 MLOAD DUP2 LT PUSH2 0x1403 JUMPI PUSH2 0x1402 PUSH2 0x303E JUMP JUMPDEST JUMPDEST PUSH1 0x20 MUL PUSH1 0x20 ADD ADD MLOAD PUSH1 0x40 MLOAD PUSH2 0x1418 SWAP2 SWAP1 PUSH2 0x263D JUMP JUMPDEST SWAP1 DUP2 MSTORE PUSH1 0x20 ADD PUSH1 0x40 MLOAD DUP1 SWAP2 SUB SWAP1 KECCAK256 PUSH1 0x0 SWAP1 SLOAD SWAP1 PUSH2 0x100 EXP SWAP1 DIV PUSH1 0xFF AND PUSH2 0x1473 JUMPI PUSH1 0x40 MLOAD PUSH32 0x8C379A000000000000000000000000000000000000000000000000000000000 DUP2 MSTORE PUSH1 0x4 ADD PUSH2 0x146A SWAP1 PUSH2 0x2783 JUMP JUMPDEST PUSH1 0x40 MLOAD DUP1 SWAP2 SUB SWAP1 REVERT JUMPDEST DUP3 DUP2 PUSH2 0xFFFF AND DUP2 MLOAD DUP2 LT PUSH2 0x148A JUMPI PUSH2 0x1489 PUSH2 0x303E JUMP JUMPDEST JUMPDEST PUSH1 0x20 MUL PUSH1 0x20 ADD ADD MLOAD DUP7 PUSH1 0xA ADD DUP6 DUP4 PUSH2 0xFFFF AND DUP2 MLOAD DUP2 LT PUSH2 0x14AD JUMPI PUSH2 0x14AC PUSH2 0x303E JUMP JUMPDEST JUMPDEST PUSH1 0x20 MUL PUSH1 0x20 ADD ADD MLOAD PUSH1 0x40 MLOAD PUSH2 0x14C2 SWAP2 SWAP1 PUSH2 0x263D JUMP JUMPDEST SWAP1 DUP2 MSTORE PUSH1 0x20 ADD PUSH1 0x40 MLOAD DUP1 SWAP2 SUB SWAP1 KECCAK256 DUP2 SWAP1 SSTORE POP DUP1 DUP1 PUSH2 0x14DF SWAP1 PUSH2 0x2F6C JUMP JUMPDEST SWAP2 POP POP PUSH2 0x13C6 JUMP JUMPDEST POP PUSH1 0x1 SWAP1 POP JUMPDEST SWAP5 SWAP4 POP POP POP POP JUMP JUMPDEST PUSH1 0x0 DUP4 PUSH1 0x0 ADD PUSH1 0x10 DUP2 DUP2 SWAP1 SLOAD SWAP1 PUSH2 0x100 EXP SWAP1 DIV PUSH16 0xFFFFFFFFFFFFFFFFFFFFFFFFFFFFFFFF AND DUP1 SWAP3 SWAP2 SWAP1 PUSH2 0x1527 SWAP1 PUSH2 0x2F33 JUMP JUMPDEST SWAP2 SWAP1 PUSH2 0x100 EXP DUP2 SLOAD DUP2 PUSH16 0xFFFFFFFFFFFFFFFFFFFFFFFFFFFFFFFF MUL NOT AND SWAP1 DUP4 PUSH16 0xFFFFFFFFFFFFFFFFFFFFFFFFFFFFFFFF AND MUL OR SWAP1 SSTORE POP POP DUP3 DUP5 PUSH1 0x2 ADD PUSH1 0x0 DUP7 PUSH1 0x0 ADD PUSH1 0x10 SWAP1 SLOAD SWAP1 PUSH2 0x100 EXP SWAP1 DIV PUSH16 0xFFFFFFFFFFFFFFFFFFFFFFFFFFFFFFFF AND PUSH16 0xFFFFFFFFFFFFFFFFFFFFFFFFFFFFFFFF AND PUSH16 0xFFFFFFFFFFFFFFFFFFFFFFFFFFFFFFFF AND DUP2 MSTORE PUSH1 0x20 ADD SWAP1 DUP2 MSTORE PUSH1 0x20 ADD PUSH1 0x0 KECCAK256 DUP2 SWAP1 SSTORE POP PUSH1 0x0 JUMPDEST DUP3 MLOAD DUP2 PUSH2 0xFFFF AND LT ISZERO PUSH2 0x1648 JUMPI DUP3 DUP2 PUSH2 0xFFFF AND DUP2 MLOAD DUP2 LT PUSH2 0x15E3 JUMPI PUSH2 0x15E2 PUSH2 0x303E JUMP JUMPDEST JUMPDEST PUSH1 0x20 MUL PUSH1 0x20 ADD ADD MLOAD DUP6 PUSH1 0x3 ADD PUSH1 0x0 DUP7 DUP2 MSTORE PUSH1 0x20 ADD SWAP1 DUP2 MSTORE PUSH1 0x20 ADD PUSH1 0x0 KECCAK256 PUSH1 0x0 PUSH1 0x1 DUP5 PUSH2 0x160F SWAP2 SWAP1 PUSH2 0x2CF3 JUMP JUMPDEST PUSH2 0xFFFF AND DUP2 MSTORE PUSH1 0x20 ADD SWAP1 DUP2 MSTORE PUSH1 0x20 ADD PUSH1 0x0 KECCAK256 SWAP1 DUP1 MLOAD SWAP1 PUSH1 0x20 ADD SWAP1 PUSH2 0x1634 SWAP3 SWAP2 SWAP1 PUSH2 0x1A4E JUMP JUMPDEST POP DUP1 DUP1 PUSH2 0x1640 SWAP1 PUSH2 0x2F6C JUMP JUMPDEST SWAP2 POP POP PUSH2 0x15BF JUMP JUMPDEST POP PUSH1 0x1 DUP5 PUSH1 0x4 ADD PUSH1 0x0 DUP6 DUP2 MSTORE PUSH1 0x20 ADD SWAP1 DUP2 MSTORE PUSH1 0x20 ADD PUSH1 0x0 KECCAK256 PUSH1 0x0 PUSH2 0x100 EXP DUP2 SLOAD DUP2 PUSH1 0xFF MUL NOT AND SWAP1 DUP4 ISZERO ISZERO MUL OR SWAP1 SSTORE POP PUSH1 0x1 SWAP1 POP SWAP4 SWAP3 POP POP POP JUMP JUMPDEST PUSH1 0x0 DUP1 DUP3 PUSH1 0x0 ADD SLOAD EQ ISZERO PUSH2 0x16CB JUMPI PUSH1 0x40 MLOAD PUSH32 0x8C379A000000000000000000000000000000000000000000000000000000000 DUP2 MSTORE PUSH1 0x4 ADD PUSH2 0x16C2 SWAP1 PUSH2 0x28DF JUMP JUMPDEST PUSH1 0x40 MLOAD DUP1 SWAP2 SUB SWAP1 REVERT JUMPDEST DUP2 PUSH1 0x1 ADD PUSH1 0x14 SWAP1 SLOAD SWAP1 PUSH2 0x100 EXP SWAP1 DIV PUSH1 0xFF AND ISZERO PUSH2 0x171D JUMPI PUSH1 0x40 MLOAD PUSH32 0x8C379A000000000000000000000000000000000000000000000000000000000 DUP2 MSTORE PUSH1 0x4 ADD PUSH2 0x1714 SWAP1 PUSH2 0x293B JUMP JUMPDEST PUSH1 0x40 MLOAD DUP1 SWAP2 SUB SWAP1 REVERT JUMPDEST PUSH1 0x0 DUP3 PUSH1 0x2 ADD DUP2 SWAP1 SSTORE POP PUSH1 0x1 SWAP1 POP SWAP2 SWAP1 POP JUMP JUMPDEST PUSH2 0x1738 PUSH2 0xFAD JUMP JUMPDEST DUP1 PUSH20 0xFFFFFFFFFFFFFFFFFFFFFFFFFFFFFFFFFFFFFFFF AND PUSH1 0x4 PUSH1 0x0 SWAP1 SLOAD SWAP1 PUSH2 0x100 EXP SWAP1 DIV PUSH20 0xFFFFFFFFFFFFFFFFFFFFFFFFFFFFFFFFFFFFFFFF AND PUSH20 0xFFFFFFFFFFFFFFFFFFFFFFFFFFFFFFFFFFFFFFFF AND EQ PUSH2 0x1792 JUMPI PUSH1 0x0 DUP1 REVERT JUMPDEST PUSH2 0x179C DUP4 DUP4 PUSH2 0x18BC JUMP JUMPDEST POP POP POP JUMP JUMPDEST PUSH1 0x0 PUSH20 0xFFFFFFFFFFFFFFFFFFFFFFFFFFFFFFFFFFFFFFFF AND DUP3 PUSH20 0xFFFFFFFFFFFFFFFFFFFFFFFFFFFFFFFFFFFFFFFF AND EQ ISZERO PUSH2 0x1811 JUMPI PUSH1 0x40 MLOAD PUSH32 0x8C379A000000000000000000000000000000000000000000000000000000000 DUP2 MSTORE PUSH1 0x4 ADD PUSH2 0x1808 SWAP1 PUSH2 0x295B JUMP JUMPDEST PUSH1 0x40 MLOAD DUP1 SWAP2 SUB SWAP1 REVERT JUMPDEST DUP1 PUSH1 0x1 PUSH1 0x0 DUP3 DUP3 SLOAD PUSH2 0x1823 SWAP2 SWAP1 PUSH2 0x2D2B JUMP JUMPDEST SWAP3 POP POP DUP2 SWAP1 SSTORE POP DUP1 PUSH1 0x0 DUP1 DUP5 PUSH20 0xFFFFFFFFFFFFFFFFFFFFFFFFFFFFFFFFFFFFFFFF AND PUSH20 0xFFFFFFFFFFFFFFFFFFFFFFFFFFFFFFFFFFFFFFFF AND DUP2 MSTORE PUSH1 0x20 ADD SWAP1 DUP2 MSTORE PUSH1 0x20 ADD PUSH1 0x0 KECCAK256 PUSH1 0x0 DUP3 DUP3 SLOAD PUSH2 0x1878 SWAP2 SWAP1 PUSH2 0x2D2B JUMP JUMPDEST SWAP3 POP POP DUP2 SWAP1 SSTORE POP PUSH32 0xABF5327BE9F5825C40D58BDA541DD07F09B62DF3376BBD5ECDBAA8BD82A9D492 DUP3 DUP3 PUSH1 0x40 MLOAD PUSH2 0x18B0 SWAP3 SWAP2 SWAP1 PUSH2 0x28A3 JUMP JUMPDEST PUSH1 0x40 MLOAD DUP1 SWAP2 SUB SWAP1 LOG1 POP POP JUMP JUMPDEST PUSH1 0x0 PUSH20 0xFFFFFFFFFFFFFFFFFFFFFFFFFFFFFFFFFFFFFFFF AND DUP3 PUSH20 0xFFFFFFFFFFFFFFFFFFFFFFFFFFFFFFFFFFFFFFFF AND EQ ISZERO PUSH2 0x192C JUMPI PUSH1 0x40 MLOAD PUSH32 0x8C379A000000000000000000000000000000000000000000000000000000000 DUP2 MSTORE PUSH1 0x4 ADD PUSH2 0x1923 SWAP1 PUSH2 0x2863 JUMP JUMPDEST PUSH1 0x40 MLOAD DUP1 SWAP2 SUB SWAP1 REVERT JUMPDEST PUSH1 0x0 DUP1 PUSH1 0x0 DUP5 PUSH20 0xFFFFFFFFFFFFFFFFFFFFFFFFFFFFFFFFFFFFFFFF AND PUSH20 0xFFFFFFFFFFFFFFFFFFFFFFFFFFFFFFFFFFFFFFFF AND DUP2 MSTORE PUSH1 0x20 ADD SWAP1 DUP2 MSTORE PUSH1 0x20 ADD PUSH1 0x0 KECCAK256 SLOAD SWAP1 POP DUP2 DUP2 LT ISZERO PUSH2 0x19B2 JUMPI PUSH1 0x40 MLOAD PUSH32 0x8C379A000000000000000000000000000000000000000000000000000000000 DUP2 MSTORE PUSH1 0x4 ADD PUSH2 0x19A9 SWAP1 PUSH2 0x2743 JUMP JUMPDEST PUSH1 0x40 MLOAD DUP1 SWAP2 SUB SWAP1 REVERT JUMPDEST DUP2 DUP2 SUB PUSH1 0x0 DUP1 DUP6 PUSH20 0xFFFFFFFFFFFFFFFFFFFFFFFFFFFFFFFFFFFFFFFF AND PUSH20 0xFFFFFFFFFFFFFFFFFFFFFFFFFFFFFFFFFFFFFFFF AND DUP2 MSTORE PUSH1 0x20 ADD SWAP1 DUP2 MSTORE PUSH1 0x20 ADD PUSH1 0x0 KECCAK256 DUP2 SWAP1 SSTORE POP DUP2 PUSH1 0x1 PUSH1 0x0 DUP3 DUP3 SLOAD PUSH2 0x1A09 SWAP2 SWAP1 PUSH2 0x2DDB JUMP JUMPDEST SWAP3 POP POP DUP2 SWAP1 SSTORE POP PUSH32 0xABF5327BE9F5825C40D58BDA541DD07F09B62DF3376BBD5ECDBAA8BD82A9D492 DUP4 DUP4 PUSH1 0x40 MLOAD PUSH2 0x1A41 SWAP3 SWAP2 SWAP1 PUSH2 0x28FF JUMP JUMPDEST PUSH1 0x40 MLOAD DUP1 SWAP2 SUB SWAP1 LOG1 POP POP POP JUMP JUMPDEST DUP3 DUP1 SLOAD PUSH2 0x1A5A SWAP1 PUSH2 0x2ED0 JUMP JUMPDEST SWAP1 PUSH1 0x0 MSTORE PUSH1 0x20 PUSH1 0x0 KECCAK256 SWAP1 PUSH1 0x1F ADD PUSH1 0x20 SWAP1 DIV DUP2 ADD SWAP3 DUP3 PUSH2 0x1A7C JUMPI PUSH1 0x0 DUP6 SSTORE PUSH2 0x1AC3 JUMP JUMPDEST DUP3 PUSH1 0x1F LT PUSH2 0x1A95 JUMPI DUP1 MLOAD PUSH1 0xFF NOT AND DUP4 DUP1 ADD OR DUP6 SSTORE PUSH2 0x1AC3 JUMP JUMPDEST DUP3 DUP1 ADD PUSH1 0x1 ADD DUP6 SSTORE DUP3 ISZERO PUSH2 0x1AC3 JUMPI SWAP2 DUP3 ADD JUMPDEST DUP3 DUP2 GT ISZERO PUSH2 0x1AC2 JUMPI DUP3 MLOAD DUP3 SSTORE SWAP2 PUSH1 0x20 ADD SWAP2 SWAP1 PUSH1 0x1 ADD SWAP1 PUSH2 0x1AA7 JUMP JUMPDEST JUMPDEST POP SWAP1 POP PUSH2 0x1AD0 SWAP2 SWAP1 PUSH2 0x1BE7 JUMP JUMPDEST POP SWAP1 JUMP JUMPDEST DUP3 DUP1 SLOAD PUSH2 0x1AE0 SWAP1 PUSH2 0x2ED0 JUMP JUMPDEST SWAP1 PUSH1 0x0 MSTORE PUSH1 0x20 PUSH1 0x0 KECCAK256 SWAP1 PUSH1 0x1F ADD PUSH1 0x20 SWAP1 DIV DUP2 ADD SWAP3 DUP3 PUSH2 0x1B02 JUMPI PUSH1 0x0 DUP6 SSTORE PUSH2 0x1B49 JUMP JUMPDEST DUP3 PUSH1 0x1F LT PUSH2 0x1B1B JUMPI DUP1 CALLDATALOAD PUSH1 0xFF NOT AND DUP4 DUP1 ADD OR DUP6 SSTORE PUSH2 0x1B49 JUMP JUMPDEST DUP3 DUP1 ADD PUSH1 0x1 ADD DUP6 SSTORE DUP3 ISZERO PUSH2 0x1B49 JUMPI SWAP2 DUP3 ADD JUMPDEST DUP3 DUP2 GT ISZERO PUSH2 0x1B48 JUMPI DUP3 CALLDATALOAD DUP3 SSTORE SWAP2 PUSH1 0x20 ADD SWAP2 SWAP1 PUSH1 0x1 ADD SWAP1 PUSH2 0x1B2D JUMP JUMPDEST JUMPDEST POP SWAP1 POP PUSH2 0x1B56 SWAP2 SWAP1 PUSH2 0x1BE7 JUMP JUMPDEST POP SWAP1 JUMP JUMPDEST DUP3 DUP1 SLOAD PUSH2 0x1B66 SWAP1 PUSH2 0x2ED0 JUMP JUMPDEST SWAP1 PUSH1 0x0 MSTORE PUSH1 0x20 PUSH1 0x0 KECCAK256 SWAP1 PUSH1 0x1F ADD PUSH1 0x20 SWAP1 DIV DUP2 ADD SWAP3 DUP3 PUSH2 0x1B88 JUMPI PUSH1 0x0 DUP6 SSTORE PUSH2 0x1BD6 JUMP JUMPDEST DUP3 PUSH1 0x1F LT PUSH2 0x1B99 JUMPI DUP1 SLOAD DUP6 SSTORE PUSH2 0x1BD6 JUMP JUMPDEST DUP3 DUP1 ADD PUSH1 0x1 ADD DUP6 SSTORE DUP3 ISZERO PUSH2 0x1BD6 JUMPI PUSH1 0x0 MSTORE PUSH1 0x20 PUSH1 0x0 KECCAK256 SWAP2 PUSH1 0x1F ADD PUSH1 0x20 SWAP1 DIV DUP3 ADD JUMPDEST DUP3 DUP2 GT ISZERO PUSH2 0x1BD5 JUMPI DUP3 SLOAD DUP3 SSTORE SWAP2 PUSH1 0x1 ADD SWAP2 SWAP1 PUSH1 0x1 ADD SWAP1 PUSH2 0x1BBA JUMP JUMPDEST JUMPDEST POP SWAP1 POP PUSH2 0x1BE3 SWAP2 SWAP1 PUSH2 0x1BE7 JUMP JUMPDEST POP SWAP1 JUMP JUMPDEST JUMPDEST DUP1 DUP3 GT ISZERO PUSH2 0x1C00 JUMPI PUSH1 0x0 DUP2 PUSH1 0x0 SWAP1 SSTORE POP PUSH1 0x1 ADD PUSH2 0x1BE8 JUMP JUMPDEST POP SWAP1 JUMP JUMPDEST PUSH1 0x0 PUSH2 0x1C17 PUSH2 0x1C12 DUP5 PUSH2 0x2B2D JUMP JUMPDEST PUSH2 0x2B08 JUMP JUMPDEST SWAP1 POP DUP1 DUP4 DUP3 MSTORE PUSH1 0x20 DUP3 ADD SWAP1 POP DUP3 DUP6 PUSH1 0x20 DUP7 MUL DUP3 ADD GT ISZERO PUSH2 0x1C3A JUMPI PUSH2 0x1C39 PUSH2 0x30BA JUMP JUMPDEST JUMPDEST PUSH1 0x0 JUMPDEST DUP6 DUP2 LT ISZERO PUSH2 0x1C6A JUMPI DUP2 PUSH2 0x1C50 DUP9 DUP3 PUSH2 0x1DB4 JUMP JUMPDEST DUP5 MSTORE PUSH1 0x20 DUP5 ADD SWAP4 POP PUSH1 0x20 DUP4 ADD SWAP3 POP POP PUSH1 0x1 DUP2 ADD SWAP1 POP PUSH2 0x1C3D JUMP JUMPDEST POP POP POP SWAP4 SWAP3 POP POP POP JUMP JUMPDEST PUSH1 0x0 PUSH2 0x1C87 PUSH2 0x1C82 DUP5 PUSH2 0x2B59 JUMP JUMPDEST PUSH2 0x2B08 JUMP JUMPDEST SWAP1 POP DUP1 DUP4 DUP3 MSTORE PUSH1 0x20 DUP3 ADD SWAP1 POP DUP3 DUP6 PUSH1 0x20 DUP7 MUL DUP3 ADD GT ISZERO PUSH2 0x1CAA JUMPI PUSH2 0x1CA9 PUSH2 0x30BA JUMP JUMPDEST JUMPDEST PUSH1 0x0 JUMPDEST DUP6 DUP2 LT ISZERO PUSH2 0x1CF8 JUMPI DUP2 CALLDATALOAD PUSH8 0xFFFFFFFFFFFFFFFF DUP2 GT ISZERO PUSH2 0x1CD0 JUMPI PUSH2 0x1CCF PUSH2 0x30A6 JUMP JUMPDEST JUMPDEST DUP1 DUP7 ADD PUSH2 0x1CDD DUP10 DUP3 PUSH2 0x1EA9 JUMP JUMPDEST DUP6 MSTORE PUSH1 0x20 DUP6 ADD SWAP5 POP PUSH1 0x20 DUP5 ADD SWAP4 POP POP POP PUSH1 0x1 DUP2 ADD SWAP1 POP PUSH2 0x1CAD JUMP JUMPDEST POP POP POP SWAP4 SWAP3 POP POP POP JUMP JUMPDEST PUSH1 0x0 PUSH2 0x1D15 PUSH2 0x1D10 DUP5 PUSH2 0x2B85 JUMP JUMPDEST PUSH2 0x2B08 JUMP JUMPDEST SWAP1 POP DUP1 DUP4 DUP3 MSTORE PUSH1 0x20 DUP3 ADD SWAP1 POP DUP3 DUP6 PUSH1 0x20 DUP7 MUL DUP3 ADD GT ISZERO PUSH2 0x1D38 JUMPI PUSH2 0x1D37 PUSH2 0x30BA JUMP JUMPDEST JUMPDEST PUSH1 0x0 JUMPDEST DUP6 DUP2 LT ISZERO PUSH2 0x1D68 JUMPI DUP2 PUSH2 0x1D4E DUP9 DUP3 PUSH2 0x1ED7 JUMP JUMPDEST DUP5 MSTORE PUSH1 0x20 DUP5 ADD SWAP4 POP PUSH1 0x20 DUP4 ADD SWAP3 POP POP PUSH1 0x1 DUP2 ADD SWAP1 POP PUSH2 0x1D3B JUMP JUMPDEST POP POP POP SWAP4 SWAP3 POP POP POP JUMP JUMPDEST PUSH1 0x0 PUSH2 0x1D85 PUSH2 0x1D80 DUP5 PUSH2 0x2BB1 JUMP JUMPDEST PUSH2 0x2B08 JUMP JUMPDEST SWAP1 POP DUP3 DUP2 MSTORE PUSH1 0x20 DUP2 ADD DUP5 DUP5 DUP5 ADD GT ISZERO PUSH2 0x1DA1 JUMPI PUSH2 0x1DA0 PUSH2 0x30C4 JUMP JUMPDEST JUMPDEST PUSH2 0x1DAC DUP5 DUP3 DUP6 PUSH2 0x2E8E JUMP JUMPDEST POP SWAP4 SWAP3 POP POP POP JUMP JUMPDEST PUSH1 0x0 DUP2 CALLDATALOAD SWAP1 POP PUSH2 0x1DC3 DUP2 PUSH2 0x34FB JUMP JUMPDEST SWAP3 SWAP2 POP POP JUMP JUMPDEST PUSH1 0x0 DUP3 PUSH1 0x1F DUP4 ADD SLT PUSH2 0x1DDE JUMPI PUSH2 0x1DDD PUSH2 0x30A6 JUMP JUMPDEST JUMPDEST DUP2 CALLDATALOAD PUSH2 0x1DEE DUP5 DUP3 PUSH1 0x20 DUP7 ADD PUSH2 0x1C04 JUMP JUMPDEST SWAP2 POP POP SWAP3 SWAP2 POP POP JUMP JUMPDEST PUSH1 0x0 DUP1 DUP4 PUSH1 0x1F DUP5 ADD SLT PUSH2 0x1E0D JUMPI PUSH2 0x1E0C PUSH2 0x30A6 JUMP JUMPDEST JUMPDEST DUP3 CALLDATALOAD SWAP1 POP PUSH8 0xFFFFFFFFFFFFFFFF DUP2 GT ISZERO PUSH2 0x1E2A JUMPI PUSH2 0x1E29 PUSH2 0x30A1 JUMP JUMPDEST JUMPDEST PUSH1 0x20 DUP4 ADD SWAP2 POP DUP4 PUSH1 0x20 DUP3 MUL DUP4 ADD GT ISZERO PUSH2 0x1E46 JUMPI PUSH2 0x1E45 PUSH2 0x30BA JUMP JUMPDEST JUMPDEST SWAP3 POP SWAP3 SWAP1 POP JUMP JUMPDEST PUSH1 0x0 DUP3 PUSH1 0x1F DUP4 ADD SLT PUSH2 0x1E62 JUMPI PUSH2 0x1E61 PUSH2 0x30A6 JUMP JUMPDEST JUMPDEST DUP2 CALLDATALOAD PUSH2 0x1E72 DUP5 DUP3 PUSH1 0x20 DUP7 ADD PUSH2 0x1C74 JUMP JUMPDEST SWAP2 POP POP SWAP3 SWAP2 POP POP JUMP JUMPDEST PUSH1 0x0 DUP3 PUSH1 0x1F DUP4 ADD SLT PUSH2 0x1E90 JUMPI PUSH2 0x1E8F PUSH2 0x30A6 JUMP JUMPDEST JUMPDEST DUP2 CALLDATALOAD PUSH2 0x1EA0 DUP5 DUP3 PUSH1 0x20 DUP7 ADD PUSH2 0x1D02 JUMP JUMPDEST SWAP2 POP POP SWAP3 SWAP2 POP POP JUMP JUMPDEST PUSH1 0x0 DUP3 PUSH1 0x1F DUP4 ADD SLT PUSH2 0x1EBE JUMPI PUSH2 0x1EBD PUSH2 0x30A6 JUMP JUMPDEST JUMPDEST DUP2 CALLDATALOAD PUSH2 0x1ECE DUP5 DUP3 PUSH1 0x20 DUP7 ADD PUSH2 0x1D72 JUMP JUMPDEST SWAP2 POP POP SWAP3 SWAP2 POP POP JUMP JUMPDEST PUSH1 0x0 DUP2 CALLDATALOAD SWAP1 POP PUSH2 0x1EE6 DUP2 PUSH2 0x3512 JUMP JUMPDEST SWAP3 SWAP2 POP POP JUMP JUMPDEST PUSH1 0x0 DUP2 CALLDATALOAD SWAP1 POP PUSH2 0x1EFB DUP2 PUSH2 0x3529 JUMP JUMPDEST SWAP3 SWAP2 POP POP JUMP JUMPDEST PUSH1 0x0 PUSH1 0x20 DUP3 DUP5 SUB SLT ISZERO PUSH2 0x1F17 JUMPI PUSH2 0x1F16 PUSH2 0x30D3 JUMP JUMPDEST JUMPDEST PUSH1 0x0 PUSH2 0x1F25 DUP5 DUP3 DUP6 ADD PUSH2 0x1DB4 JUMP JUMPDEST SWAP2 POP POP SWAP3 SWAP2 POP POP JUMP JUMPDEST PUSH1 0x0 PUSH1 0x20 DUP3 DUP5 SUB SLT ISZERO PUSH2 0x1F44 JUMPI PUSH2 0x1F43 PUSH2 0x30D3 JUMP JUMPDEST JUMPDEST PUSH1 0x0 PUSH2 0x1F52 DUP5 DUP3 DUP6 ADD PUSH2 0x1ED7 JUMP JUMPDEST SWAP2 POP POP SWAP3 SWAP2 POP POP JUMP JUMPDEST PUSH1 0x0 DUP1 PUSH1 0x0 DUP1 PUSH1 0x80 DUP6 DUP8 SUB SLT ISZERO PUSH2 0x1F75 JUMPI PUSH2 0x1F74 PUSH2 0x30D3 JUMP JUMPDEST JUMPDEST PUSH1 0x0 PUSH2 0x1F83 DUP8 DUP3 DUP9 ADD PUSH2 0x1ED7 JUMP JUMPDEST SWAP5 POP POP PUSH1 0x20 PUSH2 0x1F94 DUP8 DUP3 DUP9 ADD PUSH2 0x1DB4 JUMP JUMPDEST SWAP4 POP POP PUSH1 0x40 DUP6 ADD CALLDATALOAD PUSH8 0xFFFFFFFFFFFFFFFF DUP2 GT ISZERO PUSH2 0x1FB5 JUMPI PUSH2 0x1FB4 PUSH2 0x30C9 JUMP JUMPDEST JUMPDEST PUSH2 0x1FC1 DUP8 DUP3 DUP9 ADD PUSH2 0x1E4D JUMP JUMPDEST SWAP3 POP POP PUSH1 0x60 DUP6 ADD CALLDATALOAD PUSH8 0xFFFFFFFFFFFFFFFF DUP2 GT ISZERO PUSH2 0x1FE2 JUMPI PUSH2 0x1FE1 PUSH2 0x30C9 JUMP JUMPDEST JUMPDEST PUSH2 0x1FEE DUP8 DUP3 DUP9 ADD PUSH2 0x1E7B JUMP JUMPDEST SWAP2 POP POP SWAP3 SWAP6 SWAP2 SWAP5 POP SWAP3 POP JUMP JUMPDEST PUSH1 0x0 DUP1 PUSH1 0x0 DUP1 PUSH1 0x0 DUP1 PUSH1 0x0 DUP1 PUSH1 0x0 PUSH2 0x100 DUP11 DUP13 SUB SLT ISZERO PUSH2 0x201D JUMPI PUSH2 0x201C PUSH2 0x30D3 JUMP JUMPDEST JUMPDEST PUSH1 0x0 PUSH2 0x202B DUP13 DUP3 DUP14 ADD PUSH2 0x1EEC JUMP JUMPDEST SWAP10 POP POP PUSH1 0x20 DUP11 ADD CALLDATALOAD PUSH8 0xFFFFFFFFFFFFFFFF DUP2 GT ISZERO PUSH2 0x204C JUMPI PUSH2 0x204B PUSH2 0x30C9 JUMP JUMPDEST JUMPDEST PUSH2 0x2058 DUP13 DUP3 DUP14 ADD PUSH2 0x1DC9 JUMP JUMPDEST SWAP9 POP POP PUSH1 0x40 PUSH2 0x2069 DUP13 DUP3 DUP14 ADD PUSH2 0x1DB4 JUMP JUMPDEST SWAP8 POP POP PUSH1 0x60 PUSH2 0x207A DUP13 DUP3 DUP14 ADD PUSH2 0x1ED7 JUMP JUMPDEST SWAP7 POP POP PUSH1 0x80 PUSH2 0x208B DUP13 DUP3 DUP14 ADD PUSH2 0x1ED7 JUMP JUMPDEST SWAP6 POP POP PUSH1 0xA0 DUP11 ADD CALLDATALOAD PUSH8 0xFFFFFFFFFFFFFFFF DUP2 GT ISZERO PUSH2 0x20AC JUMPI PUSH2 0x20AB PUSH2 0x30C9 JUMP JUMPDEST JUMPDEST PUSH2 0x20B8 DUP13 DUP3 DUP14 ADD PUSH2 0x1EA9 JUMP JUMPDEST SWAP5 POP POP PUSH1 0xC0 DUP11 ADD CALLDATALOAD PUSH8 0xFFFFFFFFFFFFFFFF DUP2 GT ISZERO PUSH2 0x20D9 JUMPI PUSH2 0x20D8 PUSH2 0x30C9 JUMP JUMPDEST JUMPDEST PUSH2 0x20E5 DUP13 DUP3 DUP14 ADD PUSH2 0x1DF7 JUMP JUMPDEST SWAP4 POP SWAP4 POP POP PUSH1 0xE0 PUSH2 0x20F8 DUP13 DUP3 DUP14 ADD PUSH2 0x1ED7 JUMP JUMPDEST SWAP2 POP POP SWAP3 SWAP6 SWAP9 POP SWAP3 SWAP6 SWAP9 POP SWAP3 SWAP6 SWAP9 JUMP JUMPDEST PUSH1 0x0 PUSH2 0x2114 DUP4 DUP4 PUSH2 0x2136 JUMP JUMPDEST PUSH1 0x20 DUP4 ADD SWAP1 POP SWAP3 SWAP2 POP POP JUMP JUMPDEST PUSH1 0x0 PUSH2 0x212D DUP5 DUP5 DUP5 PUSH2 0x2237 JUMP JUMPDEST SWAP1 POP SWAP4 SWAP3 POP POP POP JUMP JUMPDEST PUSH2 0x213F DUP2 PUSH2 0x2E0F JUMP JUMPDEST DUP3 MSTORE POP POP JUMP JUMPDEST PUSH2 0x214E DUP2 PUSH2 0x2E0F JUMP JUMPDEST DUP3 MSTORE POP POP JUMP JUMPDEST PUSH1 0x0 PUSH2 0x215F DUP3 PUSH2 0x2C11 JUMP JUMPDEST PUSH2 0x2169 DUP2 DUP6 PUSH2 0x2C41 JUMP JUMPDEST SWAP4 POP PUSH2 0x2174 DUP4 PUSH2 0x2BE2 JUMP JUMPDEST DUP1 PUSH1 0x0 JUMPDEST DUP4 DUP2 LT ISZERO PUSH2 0x21A5 JUMPI DUP2 MLOAD PUSH2 0x218C DUP9 DUP3 PUSH2 0x2108 JUMP JUMPDEST SWAP8 POP PUSH2 0x2197 DUP4 PUSH2 0x2C27 JUMP JUMPDEST SWAP3 POP POP PUSH1 0x1 DUP2 ADD SWAP1 POP PUSH2 0x2178 JUMP JUMPDEST POP DUP6 SWAP4 POP POP POP POP SWAP3 SWAP2 POP POP JUMP JUMPDEST PUSH1 0x0 PUSH2 0x21BE DUP4 DUP6 PUSH2 0x2C52 JUMP JUMPDEST SWAP4 POP DUP4 PUSH1 0x20 DUP5 MUL DUP6 ADD PUSH2 0x21D0 DUP5 PUSH2 0x2BF2 JUMP JUMPDEST DUP1 PUSH1 0x0 JUMPDEST DUP8 DUP2 LT ISZERO PUSH2 0x2216 JUMPI DUP5 DUP5 SUB DUP10 MSTORE PUSH2 0x21EB DUP3 DUP5 PUSH2 0x2C90 JUMP JUMPDEST PUSH2 0x21F6 DUP7 DUP3 DUP5 PUSH2 0x2120 JUMP JUMPDEST SWAP6 POP PUSH2 0x2201 DUP5 PUSH2 0x2C34 JUMP JUMPDEST SWAP4 POP PUSH1 0x20 DUP12 ADD SWAP11 POP POP POP PUSH1 0x1 DUP2 ADD SWAP1 POP PUSH2 0x21D4 JUMP JUMPDEST POP DUP3 SWAP8 POP DUP8 SWAP5 POP POP POP POP POP SWAP4 SWAP3 POP POP POP JUMP JUMPDEST PUSH2 0x2231 DUP2 PUSH2 0x2E21 JUMP JUMPDEST DUP3 MSTORE POP POP JUMP JUMPDEST PUSH1 0x0 PUSH2 0x2243 DUP4 DUP6 PUSH2 0x2C63 JUMP JUMPDEST SWAP4 POP PUSH2 0x2250 DUP4 DUP6 DUP5 PUSH2 0x2E8E JUMP JUMPDEST PUSH2 0x2259 DUP4 PUSH2 0x30D8 JUMP JUMPDEST DUP5 ADD SWAP1 POP SWAP4 SWAP3 POP POP POP JUMP JUMPDEST PUSH1 0x0 PUSH2 0x2270 DUP4 DUP6 PUSH2 0x2C85 JUMP JUMPDEST SWAP4 POP PUSH2 0x227D DUP4 DUP6 DUP5 PUSH2 0x2E8E JUMP JUMPDEST DUP3 DUP5 ADD SWAP1 POP SWAP4 SWAP3 POP POP POP JUMP JUMPDEST PUSH1 0x0 PUSH2 0x2294 DUP3 PUSH2 0x2C1C JUMP JUMPDEST PUSH2 0x229E DUP2 DUP6 PUSH2 0x2C74 JUMP JUMPDEST SWAP4 POP PUSH2 0x22AE DUP2 DUP6 PUSH1 0x20 DUP7 ADD PUSH2 0x2E9D JUMP JUMPDEST PUSH2 0x22B7 DUP2 PUSH2 0x30D8 JUMP JUMPDEST DUP5 ADD SWAP2 POP POP SWAP3 SWAP2 POP POP JUMP JUMPDEST PUSH1 0x0 PUSH2 0x22CD DUP3 PUSH2 0x2C1C JUMP JUMPDEST PUSH2 0x22D7 DUP2 DUP6 PUSH2 0x2C85 JUMP JUMPDEST SWAP4 POP PUSH2 0x22E7 DUP2 DUP6 PUSH1 0x20 DUP7 ADD PUSH2 0x2E9D JUMP JUMPDEST DUP1 DUP5 ADD SWAP2 POP POP SWAP3 SWAP2 POP POP JUMP JUMPDEST PUSH1 0x0 DUP2 SLOAD PUSH2 0x2300 DUP2 PUSH2 0x2ED0 JUMP JUMPDEST PUSH2 0x230A DUP2 DUP7 PUSH2 0x2C85 JUMP JUMPDEST SWAP5 POP PUSH1 0x1 DUP3 AND PUSH1 0x0 DUP2 EQ PUSH2 0x2325 JUMPI PUSH1 0x1 DUP2 EQ PUSH2 0x2336 JUMPI PUSH2 0x2369 JUMP JUMPDEST PUSH1 0xFF NOT DUP4 AND DUP7 MSTORE DUP2 DUP7 ADD SWAP4 POP PUSH2 0x2369 JUMP JUMPDEST PUSH2 0x233F DUP6 PUSH2 0x2BFC JUMP JUMPDEST PUSH1 0x0 JUMPDEST DUP4 DUP2 LT ISZERO PUSH2 0x2361 JUMPI DUP2 SLOAD DUP2 DUP10 ADD MSTORE PUSH1 0x1 DUP3 ADD SWAP2 POP PUSH1 0x20 DUP2 ADD SWAP1 POP PUSH2 0x2342 JUMP JUMPDEST DUP4 DUP9 ADD SWAP6 POP POP POP JUMPDEST POP POP POP SWAP3 SWAP2 POP POP JUMP JUMPDEST PUSH1 0x0 PUSH2 0x237F PUSH1 0x12 DUP4 PUSH2 0x2C74 JUMP JUMPDEST SWAP2 POP PUSH2 0x238A DUP3 PUSH2 0x30E9 JUMP JUMPDEST PUSH1 0x20 DUP3 ADD SWAP1 POP SWAP2 SWAP1 POP JUMP JUMPDEST PUSH1 0x0 PUSH2 0x23A2 PUSH1 0x2C DUP4 PUSH2 0x2C74 JUMP JUMPDEST SWAP2 POP PUSH2 0x23AD DUP3 PUSH2 0x3112 JUMP JUMPDEST PUSH1 0x40 DUP3 ADD SWAP1 POP SWAP2 SWAP1 POP JUMP JUMPDEST PUSH1 0x0 PUSH2 0x23C5 PUSH1 0x22 DUP4 PUSH2 0x2C74 JUMP JUMPDEST SWAP2 POP PUSH2 0x23D0 DUP3 PUSH2 0x3161 JUMP JUMPDEST PUSH1 0x40 DUP3 ADD SWAP1 POP SWAP2 SWAP1 POP JUMP JUMPDEST PUSH1 0x0 PUSH2 0x23E8 PUSH1 0xD DUP4 PUSH2 0x2C74 JUMP JUMPDEST SWAP2 POP PUSH2 0x23F3 DUP3 PUSH2 0x31B0 JUMP JUMPDEST PUSH1 0x20 DUP3 ADD SWAP1 POP SWAP2 SWAP1 POP JUMP JUMPDEST PUSH1 0x0 PUSH2 0x240B PUSH1 0x1B DUP4 PUSH2 0x2C74 JUMP JUMPDEST SWAP2 POP PUSH2 0x2416 DUP3 PUSH2 0x31D9 JUMP JUMPDEST PUSH1 0x20 DUP3 ADD SWAP1 POP SWAP2 SWAP1 POP JUMP JUMPDEST PUSH1 0x0 PUSH2 0x242E PUSH1 0x23 DUP4 PUSH2 0x2C74 JUMP JUMPDEST SWAP2 POP PUSH2 0x2439 DUP3 PUSH2 0x3202 JUMP JUMPDEST PUSH1 0x40 DUP3 ADD SWAP1 POP SWAP2 SWAP1 POP JUMP JUMPDEST PUSH1 0x0 PUSH2 0x2451 PUSH1 0x14 DUP4 PUSH2 0x2C74 JUMP JUMPDEST SWAP2 POP PUSH2 0x245C DUP3 PUSH2 0x3251 JUMP JUMPDEST PUSH1 0x20 DUP3 ADD SWAP1 POP SWAP2 SWAP1 POP JUMP JUMPDEST PUSH1 0x0 PUSH2 0x2474 PUSH1 0x23 DUP4 PUSH2 0x2C74 JUMP JUMPDEST SWAP2 POP PUSH2 0x247F DUP3 PUSH2 0x327A JUMP JUMPDEST PUSH1 0x40 DUP3 ADD SWAP1 POP SWAP2 SWAP1 POP JUMP JUMPDEST PUSH1 0x0 PUSH2 0x2497 PUSH1 0x12 DUP4 PUSH2 0x2C74 JUMP JUMPDEST SWAP2 POP PUSH2 0x24A2 DUP3 PUSH2 0x32C9 JUMP JUMPDEST PUSH1 0x20 DUP3 ADD SWAP1 POP SWAP2 SWAP1 POP JUMP JUMPDEST PUSH1 0x0 PUSH2 0x24BA PUSH1 0x23 DUP4 PUSH2 0x2C74 JUMP JUMPDEST SWAP2 POP PUSH2 0x24C5 DUP3 PUSH2 0x32F2 JUMP JUMPDEST PUSH1 0x40 DUP3 ADD SWAP1 POP SWAP2 SWAP1 POP JUMP JUMPDEST PUSH1 0x0 PUSH2 0x24DD PUSH1 0x2A DUP4 PUSH2 0x2C74 JUMP JUMPDEST SWAP2 POP PUSH2 0x24E8 DUP3 PUSH2 0x3341 JUMP JUMPDEST PUSH1 0x40 DUP3 ADD SWAP1 POP SWAP2 SWAP1 POP JUMP JUMPDEST PUSH1 0x0 PUSH2 0x2500 PUSH1 0x21 DUP4 PUSH2 0x2C74 JUMP JUMPDEST SWAP2 POP PUSH2 0x250B DUP3 PUSH2 0x3390 JUMP JUMPDEST PUSH1 0x40 DUP3 ADD SWAP1 POP SWAP2 SWAP1 POP JUMP JUMPDEST PUSH1 0x0 PUSH2 0x2523 PUSH1 0x24 DUP4 PUSH2 0x2C74 JUMP JUMPDEST SWAP2 POP PUSH2 0x252E DUP3 PUSH2 0x33DF JUMP JUMPDEST PUSH1 0x40 DUP3 ADD SWAP1 POP SWAP2 SWAP1 POP JUMP JUMPDEST PUSH1 0x0 PUSH2 0x2546 PUSH1 0x4 DUP4 PUSH2 0x2C74 JUMP JUMPDEST SWAP2 POP PUSH2 0x2551 DUP3 PUSH2 0x342E JUMP JUMPDEST PUSH1 0x20 DUP3 ADD SWAP1 POP SWAP2 SWAP1 POP JUMP JUMPDEST PUSH1 0x0 PUSH2 0x2569 PUSH1 0x1D DUP4 PUSH2 0x2C74 JUMP JUMPDEST SWAP2 POP PUSH2 0x2574 DUP3 PUSH2 0x3457 JUMP JUMPDEST PUSH1 0x20 DUP3 ADD SWAP1 POP SWAP2 SWAP1 POP JUMP JUMPDEST PUSH1 0x0 PUSH2 0x258C PUSH1 0x4 DUP4 PUSH2 0x2C74 JUMP JUMPDEST SWAP2 POP PUSH2 0x2597 DUP3 PUSH2 0x3480 JUMP JUMPDEST PUSH1 0x20 DUP3 ADD SWAP1 POP SWAP2 SWAP1 POP JUMP JUMPDEST PUSH1 0x0 PUSH2 0x25AF PUSH1 0x9 DUP4 PUSH2 0x2C74 JUMP JUMPDEST SWAP2 POP PUSH2 0x25BA DUP3 PUSH2 0x34A9 JUMP JUMPDEST PUSH1 0x20 DUP3 ADD SWAP1 POP SWAP2 SWAP1 POP JUMP JUMPDEST PUSH1 0x0 PUSH2 0x25D2 PUSH1 0x1F DUP4 PUSH2 0x2C74 JUMP JUMPDEST SWAP2 POP PUSH2 0x25DD DUP3 PUSH2 0x34D2 JUMP JUMPDEST PUSH1 0x20 DUP3 ADD SWAP1 POP SWAP2 SWAP1 POP JUMP JUMPDEST PUSH2 0x25F1 DUP2 PUSH2 0x2E2D JUMP JUMPDEST DUP3 MSTORE POP POP JUMP JUMPDEST PUSH2 0x2600 DUP2 PUSH2 0x2E49 JUMP JUMPDEST DUP3 MSTORE POP POP JUMP JUMPDEST PUSH2 0x260F DUP2 PUSH2 0x2E77 JUMP JUMPDEST DUP3 MSTORE POP POP JUMP JUMPDEST PUSH2 0x261E DUP2 PUSH2 0x2E81 JUMP JUMPDEST DUP3 MSTORE POP POP JUMP JUMPDEST PUSH1 0x0 PUSH2 0x2631 DUP3 DUP5 DUP7 PUSH2 0x2264 JUMP JUMPDEST SWAP2 POP DUP2 SWAP1 POP SWAP4 SWAP3 POP POP POP JUMP JUMPDEST PUSH1 0x0 PUSH2 0x2649 DUP3 DUP5 PUSH2 0x22C2 JUMP JUMPDEST SWAP2 POP DUP2 SWAP1 POP SWAP3 SWAP2 POP POP JUMP JUMPDEST PUSH1 0x0 PUSH2 0x2660 DUP3 DUP5 PUSH2 0x22F3 JUMP JUMPDEST SWAP2 POP DUP2 SWAP1 POP SWAP3 SWAP2 POP POP JUMP JUMPDEST PUSH1 0x0 PUSH1 0xE0 DUP3 ADD SWAP1 POP PUSH2 0x2680 PUSH1 0x0 DUP4 ADD DUP11 PUSH2 0x2145 JUMP JUMPDEST PUSH2 0x268D PUSH1 0x20 DUP4 ADD DUP10 PUSH2 0x2615 JUMP JUMPDEST DUP2 DUP2 SUB PUSH1 0x40 DUP4 ADD MSTORE PUSH2 0x269F DUP2 DUP9 PUSH2 0x2289 JUMP JUMPDEST SWAP1 POP PUSH2 0x26AE PUSH1 0x60 DUP4 ADD DUP8 PUSH2 0x2606 JUMP JUMPDEST PUSH2 0x26BB PUSH1 0x80 DUP4 ADD DUP7 PUSH2 0x2606 JUMP JUMPDEST PUSH2 0x26C8 PUSH1 0xA0 DUP4 ADD DUP6 PUSH2 0x25F7 JUMP JUMPDEST PUSH2 0x26D5 PUSH1 0xC0 DUP4 ADD DUP5 PUSH2 0x2606 JUMP JUMPDEST SWAP9 SWAP8 POP POP POP POP POP POP POP POP JUMP JUMPDEST PUSH1 0x0 PUSH1 0x20 DUP3 ADD SWAP1 POP DUP2 DUP2 SUB PUSH1 0x0 DUP4 ADD MSTORE PUSH2 0x26FB DUP2 DUP5 PUSH2 0x2289 JUMP JUMPDEST SWAP1 POP SWAP3 SWAP2 POP POP JUMP JUMPDEST PUSH1 0x0 PUSH1 0x20 DUP3 ADD SWAP1 POP DUP2 DUP2 SUB PUSH1 0x0 DUP4 ADD MSTORE PUSH2 0x271C DUP2 PUSH2 0x2372 JUMP JUMPDEST SWAP1 POP SWAP2 SWAP1 POP JUMP JUMPDEST PUSH1 0x0 PUSH1 0x20 DUP3 ADD SWAP1 POP DUP2 DUP2 SUB PUSH1 0x0 DUP4 ADD MSTORE PUSH2 0x273C DUP2 PUSH2 0x2395 JUMP JUMPDEST SWAP1 POP SWAP2 SWAP1 POP JUMP JUMPDEST PUSH1 0x0 PUSH1 0x20 DUP3 ADD SWAP1 POP DUP2 DUP2 SUB PUSH1 0x0 DUP4 ADD MSTORE PUSH2 0x275C DUP2 PUSH2 0x23B8 JUMP JUMPDEST SWAP1 POP SWAP2 SWAP1 POP JUMP JUMPDEST PUSH1 0x0 PUSH1 0x20 DUP3 ADD SWAP1 POP DUP2 DUP2 SUB PUSH1 0x0 DUP4 ADD MSTORE PUSH2 0x277C DUP2 PUSH2 0x23DB JUMP JUMPDEST SWAP1 POP SWAP2 SWAP1 POP JUMP JUMPDEST PUSH1 0x0 PUSH1 0x20 DUP3 ADD SWAP1 POP DUP2 DUP2 SUB PUSH1 0x0 DUP4 ADD MSTORE PUSH2 0x279C DUP2 PUSH2 0x23FE JUMP JUMPDEST SWAP1 POP SWAP2 SWAP1 POP JUMP JUMPDEST PUSH1 0x0 PUSH1 0x20 DUP3 ADD SWAP1 POP DUP2 DUP2 SUB PUSH1 0x0 DUP4 ADD MSTORE PUSH2 0x27BC DUP2 PUSH2 0x2421 JUMP JUMPDEST SWAP1 POP SWAP2 SWAP1 POP JUMP JUMPDEST PUSH1 0x0 PUSH1 0x20 DUP3 ADD SWAP1 POP DUP2 DUP2 SUB PUSH1 0x0 DUP4 ADD MSTORE PUSH2 0x27DC DUP2 PUSH2 0x2444 JUMP JUMPDEST SWAP1 POP SWAP2 SWAP1 POP JUMP JUMPDEST PUSH1 0x0 PUSH1 0x20 DUP3 ADD SWAP1 POP DUP2 DUP2 SUB PUSH1 0x0 DUP4 ADD MSTORE PUSH2 0x27FC DUP2 PUSH2 0x2467 JUMP JUMPDEST SWAP1 POP SWAP2 SWAP1 POP JUMP JUMPDEST PUSH1 0x0 PUSH1 0x20 DUP3 ADD SWAP1 POP DUP2 DUP2 SUB PUSH1 0x0 DUP4 ADD MSTORE PUSH2 0x281C DUP2 PUSH2 0x248A JUMP JUMPDEST SWAP1 POP SWAP2 SWAP1 POP JUMP JUMPDEST PUSH1 0x0 PUSH1 0x20 DUP3 ADD SWAP1 POP DUP2 DUP2 SUB PUSH1 0x0 DUP4 ADD MSTORE PUSH2 0x283C DUP2 PUSH2 0x24AD JUMP JUMPDEST SWAP1 POP SWAP2 SWAP1 POP JUMP JUMPDEST PUSH1 0x0 PUSH1 0x20 DUP3 ADD SWAP1 POP DUP2 DUP2 SUB PUSH1 0x0 DUP4 ADD MSTORE PUSH2 0x285C DUP2 PUSH2 0x24D0 JUMP JUMPDEST SWAP1 POP SWAP2 SWAP1 POP JUMP JUMPDEST PUSH1 0x0 PUSH1 0x20 DUP3 ADD SWAP1 POP DUP2 DUP2 SUB PUSH1 0x0 DUP4 ADD MSTORE PUSH2 0x287C DUP2 PUSH2 0x24F3 JUMP JUMPDEST SWAP1 POP SWAP2 SWAP1 POP JUMP JUMPDEST PUSH1 0x0 PUSH1 0x20 DUP3 ADD SWAP1 POP DUP2 DUP2 SUB PUSH1 0x0 DUP4 ADD MSTORE PUSH2 0x289C DUP2 PUSH2 0x2516 JUMP JUMPDEST SWAP1 POP SWAP2 SWAP1 POP JUMP JUMPDEST PUSH1 0x0 PUSH1 0x60 DUP3 ADD SWAP1 POP DUP2 DUP2 SUB PUSH1 0x0 DUP4 ADD MSTORE PUSH2 0x28BC DUP2 PUSH2 0x2539 JUMP JUMPDEST SWAP1 POP PUSH2 0x28CB PUSH1 0x20 DUP4 ADD DUP6 PUSH2 0x2145 JUMP JUMPDEST PUSH2 0x28D8 PUSH1 0x40 DUP4 ADD DUP5 PUSH2 0x2606 JUMP JUMPDEST SWAP4 SWAP3 POP POP POP JUMP JUMPDEST PUSH1 0x0 PUSH1 0x20 DUP3 ADD SWAP1 POP DUP2 DUP2 SUB PUSH1 0x0 DUP4 ADD MSTORE PUSH2 0x28F8 DUP2 PUSH2 0x255C JUMP JUMPDEST SWAP1 POP SWAP2 SWAP1 POP JUMP JUMPDEST PUSH1 0x0 PUSH1 0x60 DUP3 ADD SWAP1 POP DUP2 DUP2 SUB PUSH1 0x0 DUP4 ADD MSTORE PUSH2 0x2918 DUP2 PUSH2 0x257F JUMP JUMPDEST SWAP1 POP PUSH2 0x2927 PUSH1 0x20 DUP4 ADD DUP6 PUSH2 0x2145 JUMP JUMPDEST PUSH2 0x2934 PUSH1 0x40 DUP4 ADD DUP5 PUSH2 0x2606 JUMP JUMPDEST SWAP4 SWAP3 POP POP POP JUMP JUMPDEST PUSH1 0x0 PUSH1 0x20 DUP3 ADD SWAP1 POP DUP2 DUP2 SUB PUSH1 0x0 DUP4 ADD MSTORE PUSH2 0x2954 DUP2 PUSH2 0x25A2 JUMP JUMPDEST SWAP1 POP SWAP2 SWAP1 POP JUMP JUMPDEST PUSH1 0x0 PUSH1 0x20 DUP3 ADD SWAP1 POP DUP2 DUP2 SUB PUSH1 0x0 DUP4 ADD MSTORE PUSH2 0x2974 DUP2 PUSH2 0x25C5 JUMP JUMPDEST SWAP1 POP SWAP2 SWAP1 POP JUMP JUMPDEST PUSH1 0x0 PUSH1 0x40 DUP3 ADD SWAP1 POP PUSH2 0x2990 PUSH1 0x0 DUP4 ADD DUP6 PUSH2 0x25E8 JUMP JUMPDEST PUSH2 0x299D PUSH1 0x20 DUP4 ADD DUP5 PUSH2 0x25E8 JUMP JUMPDEST SWAP4 SWAP3 POP POP POP JUMP JUMPDEST PUSH1 0x0 PUSH1 0x20 DUP3 ADD SWAP1 POP PUSH2 0x29B9 PUSH1 0x0 DUP4 ADD DUP5 PUSH2 0x2606 JUMP JUMPDEST SWAP3 SWAP2 POP POP JUMP JUMPDEST PUSH1 0x0 PUSH1 0x80 DUP3 ADD SWAP1 POP PUSH2 0x29D4 PUSH1 0x0 DUP4 ADD DUP8 PUSH2 0x2606 JUMP JUMPDEST PUSH2 0x29E1 PUSH1 0x20 DUP4 ADD DUP7 PUSH2 0x2145 JUMP JUMPDEST PUSH2 0x29EE PUSH1 0x40 DUP4 ADD DUP6 PUSH2 0x2228 JUMP JUMPDEST PUSH2 0x29FB PUSH1 0x60 DUP4 ADD DUP5 PUSH2 0x2606 JUMP JUMPDEST SWAP6 SWAP5 POP POP POP POP POP JUMP JUMPDEST PUSH1 0x0 PUSH1 0xE0 DUP3 ADD SWAP1 POP PUSH2 0x2A19 PUSH1 0x0 DUP4 ADD DUP12 PUSH2 0x2606 JUMP JUMPDEST DUP2 DUP2 SUB PUSH1 0x20 DUP4 ADD MSTORE PUSH2 0x2A2B DUP2 DUP11 PUSH2 0x2154 JUMP JUMPDEST SWAP1 POP PUSH2 0x2A3A PUSH1 0x40 DUP4 ADD DUP10 PUSH2 0x2145 JUMP JUMPDEST PUSH2 0x2A47 PUSH1 0x60 DUP4 ADD DUP9 PUSH2 0x2606 JUMP JUMPDEST PUSH2 0x2A54 PUSH1 0x80 DUP4 ADD DUP8 PUSH2 0x2606 JUMP JUMPDEST DUP2 DUP2 SUB PUSH1 0xA0 DUP4 ADD MSTORE PUSH2 0x2A66 DUP2 DUP7 PUSH2 0x2289 JUMP JUMPDEST SWAP1 POP DUP2 DUP2 SUB PUSH1 0xC0 DUP4 ADD MSTORE PUSH2 0x2A7B DUP2 DUP5 DUP7 PUSH2 0x21B2 JUMP JUMPDEST SWAP1 POP SWAP10 SWAP9 POP POP POP POP POP POP POP POP POP JUMP JUMPDEST PUSH1 0x0 PUSH1 0x20 DUP3 ADD SWAP1 POP PUSH2 0x2A9F PUSH1 0x0 DUP4 ADD DUP5 PUSH2 0x2615 JUMP JUMPDEST SWAP3 SWAP2 POP POP JUMP JUMPDEST PUSH1 0x0 DUP1 DUP4 CALLDATALOAD PUSH1 0x1 PUSH1 0x20 SUB DUP5 CALLDATASIZE SUB SUB DUP2 SLT PUSH2 0x2AC2 JUMPI PUSH2 0x2AC1 PUSH2 0x30B0 JUMP JUMPDEST JUMPDEST DUP1 DUP5 ADD SWAP3 POP DUP3 CALLDATALOAD SWAP2 POP PUSH8 0xFFFFFFFFFFFFFFFF DUP3 GT ISZERO PUSH2 0x2AE4 JUMPI PUSH2 0x2AE3 PUSH2 0x30AB JUMP JUMPDEST JUMPDEST PUSH1 0x20 DUP4 ADD SWAP3 POP PUSH1 0x1 DUP3 MUL CALLDATASIZE SUB DUP4 SGT ISZERO PUSH2 0x2B00 JUMPI PUSH2 0x2AFF PUSH2 0x30BF JUMP JUMPDEST JUMPDEST POP SWAP3 POP SWAP3 SWAP1 POP JUMP JUMPDEST PUSH1 0x0 PUSH2 0x2B12 PUSH2 0x2B23 JUMP JUMPDEST SWAP1 POP PUSH2 0x2B1E DUP3 DUP3 PUSH2 0x2F02 JUMP JUMPDEST SWAP2 SWAP1 POP JUMP JUMPDEST PUSH1 0x0 PUSH1 0x40 MLOAD SWAP1 POP SWAP1 JUMP JUMPDEST PUSH1 0x0 PUSH8 0xFFFFFFFFFFFFFFFF DUP3 GT ISZERO PUSH2 0x2B48 JUMPI PUSH2 0x2B47 PUSH2 0x306D JUMP JUMPDEST JUMPDEST PUSH1 0x20 DUP3 MUL SWAP1 POP PUSH1 0x20 DUP2 ADD SWAP1 POP SWAP2 SWAP1 POP JUMP JUMPDEST PUSH1 0x0 PUSH8 0xFFFFFFFFFFFFFFFF DUP3 GT ISZERO PUSH2 0x2B74 JUMPI PUSH2 0x2B73 PUSH2 0x306D JUMP JUMPDEST JUMPDEST PUSH1 0x20 DUP3 MUL SWAP1 POP PUSH1 0x20 DUP2 ADD SWAP1 POP SWAP2 SWAP1 POP JUMP JUMPDEST PUSH1 0x0 PUSH8 0xFFFFFFFFFFFFFFFF DUP3 GT ISZERO PUSH2 0x2BA0 JUMPI PUSH2 0x2B9F PUSH2 0x306D JUMP JUMPDEST JUMPDEST PUSH1 0x20 DUP3 MUL SWAP1 POP PUSH1 0x20 DUP2 ADD SWAP1 POP SWAP2 SWAP1 POP JUMP JUMPDEST PUSH1 0x0 PUSH8 0xFFFFFFFFFFFFFFFF DUP3 GT ISZERO PUSH2 0x2BCC JUMPI PUSH2 0x2BCB PUSH2 0x306D JUMP JUMPDEST JUMPDEST PUSH2 0x2BD5 DUP3 PUSH2 0x30D8 JUMP JUMPDEST SWAP1 POP PUSH1 0x20 DUP2 ADD SWAP1 POP SWAP2 SWAP1 POP JUMP JUMPDEST PUSH1 0x0 DUP2 SWAP1 POP PUSH1 0x20 DUP3 ADD SWAP1 POP SWAP2 SWAP1 POP JUMP JUMPDEST PUSH1 0x0 DUP2 SWAP1 POP SWAP2 SWAP1 POP JUMP JUMPDEST PUSH1 0x0 DUP2 SWAP1 POP DUP2 PUSH1 0x0 MSTORE PUSH1 0x20 PUSH1 0x0 KECCAK256 SWAP1 POP SWAP2 SWAP1 POP JUMP JUMPDEST PUSH1 0x0 DUP2 MLOAD SWAP1 POP SWAP2 SWAP1 POP JUMP JUMPDEST PUSH1 0x0 DUP2 MLOAD SWAP1 POP SWAP2 SWAP1 POP JUMP JUMPDEST PUSH1 0x0 PUSH1 0x20 DUP3 ADD SWAP1 POP SWAP2 SWAP1 POP JUMP JUMPDEST PUSH1 0x0 PUSH1 0x20 DUP3 ADD SWAP1 POP SWAP2 SWAP1 POP JUMP JUMPDEST PUSH1 0x0 DUP3 DUP3 MSTORE PUSH1 0x20 DUP3 ADD SWAP1 POP SWAP3 SWAP2 POP POP JUMP JUMPDEST PUSH1 0x0 DUP3 DUP3 MSTORE PUSH1 0x20 DUP3 ADD SWAP1 POP SWAP3 SWAP2 POP POP JUMP JUMPDEST PUSH1 0x0 DUP3 DUP3 MSTORE PUSH1 0x20 DUP3 ADD SWAP1 POP SWAP3 SWAP2 POP POP JUMP JUMPDEST PUSH1 0x0 DUP3 DUP3 MSTORE PUSH1 0x20 DUP3 ADD SWAP1 POP SWAP3 SWAP2 POP POP JUMP JUMPDEST PUSH1 0x0 DUP2 SWAP1 POP SWAP3 SWAP2 POP POP JUMP JUMPDEST PUSH1 0x0 DUP1 DUP4 CALLDATALOAD PUSH1 0x1 PUSH1 0x20 SUB DUP5 CALLDATASIZE SUB SUB DUP2 SLT PUSH2 0x2CAD JUMPI PUSH2 0x2CAC PUSH2 0x30CE JUMP JUMPDEST JUMPDEST DUP4 DUP2 ADD SWAP3 POP DUP3 CALLDATALOAD SWAP2 POP PUSH1 0x20 DUP4 ADD SWAP3 POP PUSH8 0xFFFFFFFFFFFFFFFF DUP3 GT ISZERO PUSH2 0x2CD5 JUMPI PUSH2 0x2CD4 PUSH2 0x309C JUMP JUMPDEST JUMPDEST PUSH1 0x1 DUP3 MUL CALLDATASIZE SUB DUP5 SGT ISZERO PUSH2 0x2CEB JUMPI PUSH2 0x2CEA PUSH2 0x30B5 JUMP JUMPDEST JUMPDEST POP SWAP3 POP SWAP3 SWAP1 POP JUMP JUMPDEST PUSH1 0x0 PUSH2 0x2CFE DUP3 PUSH2 0x2E49 JUMP JUMPDEST SWAP2 POP PUSH2 0x2D09 DUP4 PUSH2 0x2E49 JUMP JUMPDEST SWAP3 POP DUP3 PUSH2 0xFFFF SUB DUP3 GT ISZERO PUSH2 0x2D20 JUMPI PUSH2 0x2D1F PUSH2 0x2FE0 JUMP JUMPDEST JUMPDEST DUP3 DUP3 ADD SWAP1 POP SWAP3 SWAP2 POP POP JUMP JUMPDEST PUSH1 0x0 PUSH2 0x2D36 DUP3 PUSH2 0x2E77 JUMP JUMPDEST SWAP2 POP PUSH2 0x2D41 DUP4 PUSH2 0x2E77 JUMP JUMPDEST SWAP3 POP DUP3 PUSH32 0xFFFFFFFFFFFFFFFFFFFFFFFFFFFFFFFFFFFFFFFFFFFFFFFFFFFFFFFFFFFFFFFF SUB DUP3 GT ISZERO PUSH2 0x2D76 JUMPI PUSH2 0x2D75 PUSH2 0x2FE0 JUMP JUMPDEST JUMPDEST DUP3 DUP3 ADD SWAP1 POP SWAP3 SWAP2 POP POP JUMP JUMPDEST PUSH1 0x0 PUSH2 0x2D8C DUP3 PUSH2 0x2E77 JUMP JUMPDEST SWAP2 POP PUSH2 0x2D97 DUP4 PUSH2 0x2E77 JUMP JUMPDEST SWAP3 POP DUP2 PUSH32 0xFFFFFFFFFFFFFFFFFFFFFFFFFFFFFFFFFFFFFFFFFFFFFFFFFFFFFFFFFFFFFFFF DIV DUP4 GT DUP3 ISZERO ISZERO AND ISZERO PUSH2 0x2DD0 JUMPI PUSH2 0x2DCF PUSH2 0x2FE0 JUMP JUMPDEST JUMPDEST DUP3 DUP3 MUL SWAP1 POP SWAP3 SWAP2 POP POP JUMP JUMPDEST PUSH1 0x0 PUSH2 0x2DE6 DUP3 PUSH2 0x2E77 JUMP JUMPDEST SWAP2 POP PUSH2 0x2DF1 DUP4 PUSH2 0x2E77 JUMP JUMPDEST SWAP3 POP DUP3 DUP3 LT ISZERO PUSH2 0x2E04 JUMPI PUSH2 0x2E03 PUSH2 0x2FE0 JUMP JUMPDEST JUMPDEST DUP3 DUP3 SUB SWAP1 POP SWAP3 SWAP2 POP POP JUMP JUMPDEST PUSH1 0x0 PUSH2 0x2E1A DUP3 PUSH2 0x2E57 JUMP JUMPDEST SWAP1 POP SWAP2 SWAP1 POP JUMP JUMPDEST PUSH1 0x0 DUP2 ISZERO ISZERO SWAP1 POP SWAP2 SWAP1 POP JUMP JUMPDEST PUSH1 0x0 PUSH16 0xFFFFFFFFFFFFFFFFFFFFFFFFFFFFFFFF DUP3 AND SWAP1 POP SWAP2 SWAP1 POP JUMP JUMPDEST PUSH1 0x0 PUSH2 0xFFFF DUP3 AND SWAP1 POP SWAP2 SWAP1 POP JUMP JUMPDEST PUSH1 0x0 PUSH20 0xFFFFFFFFFFFFFFFFFFFFFFFFFFFFFFFFFFFFFFFF DUP3 AND SWAP1 POP SWAP2 SWAP1 POP JUMP JUMPDEST PUSH1 0x0 DUP2 SWAP1 POP SWAP2 SWAP1 POP JUMP JUMPDEST PUSH1 0x0 PUSH1 0xFF DUP3 AND SWAP1 POP SWAP2 SWAP1 POP JUMP JUMPDEST DUP3 DUP2 DUP4 CALLDATACOPY PUSH1 0x0 DUP4 DUP4 ADD MSTORE POP POP POP JUMP JUMPDEST PUSH1 0x0 JUMPDEST DUP4 DUP2 LT ISZERO PUSH2 0x2EBB JUMPI DUP1 DUP3 ADD MLOAD DUP2 DUP5 ADD MSTORE PUSH1 0x20 DUP2 ADD SWAP1 POP PUSH2 0x2EA0 JUMP JUMPDEST DUP4 DUP2 GT ISZERO PUSH2 0x2ECA JUMPI PUSH1 0x0 DUP5 DUP5 ADD MSTORE JUMPDEST POP POP POP POP JUMP JUMPDEST PUSH1 0x0 PUSH1 0x2 DUP3 DIV SWAP1 POP PUSH1 0x1 DUP3 AND DUP1 PUSH2 0x2EE8 JUMPI PUSH1 0x7F DUP3 AND SWAP2 POP JUMPDEST PUSH1 0x20 DUP3 LT DUP2 EQ ISZERO PUSH2 0x2EFC JUMPI PUSH2 0x2EFB PUSH2 0x300F JUMP JUMPDEST JUMPDEST POP SWAP2 SWAP1 POP JUMP JUMPDEST PUSH2 0x2F0B DUP3 PUSH2 0x30D8 JUMP JUMPDEST DUP2 ADD DUP2 DUP2 LT PUSH8 0xFFFFFFFFFFFFFFFF DUP3 GT OR ISZERO PUSH2 0x2F2A JUMPI PUSH2 0x2F29 PUSH2 0x306D JUMP JUMPDEST JUMPDEST DUP1 PUSH1 0x40 MSTORE POP POP POP JUMP JUMPDEST PUSH1 0x0 PUSH2 0x2F3E DUP3 PUSH2 0x2E2D JUMP JUMPDEST SWAP2 POP PUSH16 0xFFFFFFFFFFFFFFFFFFFFFFFFFFFFFFFF DUP3 EQ ISZERO PUSH2 0x2F61 JUMPI PUSH2 0x2F60 PUSH2 0x2FE0 JUMP JUMPDEST JUMPDEST PUSH1 0x1 DUP3 ADD SWAP1 POP SWAP2 SWAP1 POP JUMP JUMPDEST PUSH1 0x0 PUSH2 0x2F77 DUP3 PUSH2 0x2E49 JUMP JUMPDEST SWAP2 POP PUSH2 0xFFFF DUP3 EQ ISZERO PUSH2 0x2F8C JUMPI PUSH2 0x2F8B PUSH2 0x2FE0 JUMP JUMPDEST JUMPDEST PUSH1 0x1 DUP3 ADD SWAP1 POP SWAP2 SWAP1 POP JUMP JUMPDEST PUSH1 0x0 PUSH2 0x2FA2 DUP3 PUSH2 0x2E77 JUMP JUMPDEST SWAP2 POP PUSH32 0xFFFFFFFFFFFFFFFFFFFFFFFFFFFFFFFFFFFFFFFFFFFFFFFFFFFFFFFFFFFFFFFF DUP3 EQ ISZERO PUSH2 0x2FD5 JUMPI PUSH2 0x2FD4 PUSH2 0x2FE0 JUMP JUMPDEST JUMPDEST PUSH1 0x1 DUP3 ADD SWAP1 POP SWAP2 SWAP1 POP JUMP JUMPDEST PUSH32 0x4E487B7100000000000000000000000000000000000000000000000000000000 PUSH1 0x0 MSTORE PUSH1 0x11 PUSH1 0x4 MSTORE PUSH1 0x24 PUSH1 0x0 REVERT JUMPDEST PUSH32 0x4E487B7100000000000000000000000000000000000000000000000000000000 PUSH1 0x0 MSTORE PUSH1 0x22 PUSH1 0x4 MSTORE PUSH1 0x24 PUSH1 0x0 REVERT JUMPDEST PUSH32 0x4E487B7100000000000000000000000000000000000000000000000000000000 PUSH1 0x0 MSTORE PUSH1 0x32 PUSH1 0x4 MSTORE PUSH1 0x24 PUSH1 0x0 REVERT JUMPDEST PUSH32 0x4E487B7100000000000000000000000000000000000000000000000000000000 PUSH1 0x0 MSTORE PUSH1 0x41 PUSH1 0x4 MSTORE PUSH1 0x24 PUSH1 0x0 REVERT JUMPDEST PUSH1 0x0 DUP1 REVERT JUMPDEST PUSH1 0x0 DUP1 REVERT JUMPDEST PUSH1 0x0 DUP1 REVERT JUMPDEST PUSH1 0x0 DUP1 REVERT JUMPDEST PUSH1 0x0 DUP1 REVERT JUMPDEST PUSH1 0x0 DUP1 REVERT JUMPDEST PUSH1 0x0 DUP1 REVERT JUMPDEST PUSH1 0x0 DUP1 REVERT JUMPDEST PUSH1 0x0 DUP1 REVERT JUMPDEST PUSH1 0x0 DUP1 REVERT JUMPDEST PUSH1 0x0 DUP1 REVERT JUMPDEST PUSH1 0x0 DUP1 REVERT JUMPDEST PUSH1 0x0 PUSH1 0x1F NOT PUSH1 0x1F DUP4 ADD AND SWAP1 POP SWAP2 SWAP1 POP JUMP JUMPDEST PUSH32 0x50726F706F73616C3A20696E6163746976650000000000000000000000000000 PUSH1 0x0 DUP3 ADD MSTORE POP JUMP JUMPDEST PUSH32 0x456E642074696D652073686F756C642062652067726561746572207468616E20 PUSH1 0x0 DUP3 ADD MSTORE PUSH32 0x63757272656E742074696D650000000000000000000000000000000000000000 PUSH1 0x20 DUP3 ADD MSTORE POP JUMP JUMPDEST PUSH32 0x45524332303A206275726E20616D6F756E7420657863656564732062616C616E PUSH1 0x0 DUP3 ADD MSTORE PUSH32 0x6365000000000000000000000000000000000000000000000000000000000000 PUSH1 0x20 DUP3 ADD MSTORE POP JUMP JUMPDEST PUSH32 0x616C726561647920766F74656400000000000000000000000000000000000000 PUSH1 0x0 DUP3 ADD MSTORE POP JUMP JUMPDEST PUSH32 0x50726F706F73616C3A20696E76616C69642063616E6469646174650000000000 PUSH1 0x0 DUP3 ADD MSTORE POP JUMP JUMPDEST PUSH32 0x6E6F7420612076616C696420766F74657220666F7220746869732070726F706F PUSH1 0x0 DUP3 ADD MSTORE PUSH32 0x73616C0000000000000000000000000000000000000000000000000000000000 PUSH1 0x20 DUP3 ADD MSTORE POP JUMP JUMPDEST PUSH32 0x70726F706F73616C206E6F742073746172746564000000000000000000000000 PUSH1 0x0 DUP3 ADD MSTORE POP JUMP JUMPDEST PUSH32 0x4E6F7420612076616C696420766F74657220666F7220746869732070726F706F PUSH1 0x0 DUP3 ADD MSTORE PUSH32 0x73616C0000000000000000000000000000000000000000000000000000000000 PUSH1 0x20 DUP3 ADD MSTORE POP JUMP JUMPDEST PUSH32 0x696E76616C69642070726F706F73616C49640000000000000000000000000000 PUSH1 0x0 DUP3 ADD MSTORE POP JUMP JUMPDEST PUSH32 0x6E6F742073756666696369656E742062616C616E636520746F20636173742076 PUSH1 0x0 DUP3 ADD MSTORE PUSH32 0x6F74650000000000000000000000000000000000000000000000000000000000 PUSH1 0x20 DUP3 ADD MSTORE POP JUMP JUMPDEST PUSH32 0x456E642074696D652073686F756C642062652067726561746572207468616E20 PUSH1 0x0 DUP3 ADD MSTORE PUSH32 0x73746172742074696D6500000000000000000000000000000000000000000000 PUSH1 0x20 DUP3 ADD MSTORE POP JUMP JUMPDEST PUSH32 0x45524332303A206275726E2066726F6D20746865207A65726F20616464726573 PUSH1 0x0 DUP3 ADD MSTORE PUSH32 0x7300000000000000000000000000000000000000000000000000000000000000 PUSH1 0x20 DUP3 ADD MSTORE POP JUMP JUMPDEST PUSH32 0x6E6F7420612076616C6964206C656E677468206F66206861736820726573706F PUSH1 0x0 DUP3 ADD MSTORE PUSH32 0x6E73652100000000000000000000000000000000000000000000000000000000 PUSH1 0x20 DUP3 ADD MSTORE POP JUMP JUMPDEST PUSH32 0x6D696E7400000000000000000000000000000000000000000000000000000000 PUSH1 0x0 DUP3 ADD MSTORE POP JUMP JUMPDEST PUSH32 0x496E76616C696420766F74657220666F722070726F706F73616C496421000000 PUSH1 0x0 DUP3 ADD MSTORE POP JUMP JUMPDEST PUSH32 0x6275726E00000000000000000000000000000000000000000000000000000000 PUSH1 0x0 DUP3 ADD MSTORE POP JUMP JUMPDEST PUSH32 0x6E6F7420766F7465640000000000000000000000000000000000000000000000 PUSH1 0x0 DUP3 ADD MSTORE POP JUMP JUMPDEST PUSH32 0x45524332303A206D696E7420746F20746865207A65726F206164647265737300 PUSH1 0x0 DUP3 ADD MSTORE POP JUMP JUMPDEST PUSH2 0x3504 DUP2 PUSH2 0x2E0F JUMP JUMPDEST DUP2 EQ PUSH2 0x350F JUMPI PUSH1 0x0 DUP1 REVERT JUMPDEST POP JUMP JUMPDEST PUSH2 0x351B DUP2 PUSH2 0x2E77 JUMP JUMPDEST DUP2 EQ PUSH2 0x3526 JUMPI PUSH1 0x0 DUP1 REVERT JUMPDEST POP JUMP JUMPDEST PUSH2 0x3532 DUP2 PUSH2 0x2E81 JUMP JUMPDEST DUP2 EQ PUSH2 0x353D JUMPI PUSH1 0x0 DUP1 REVERT JUMPDEST POP JUMP INVALID LOG2 PUSH5 0x6970667358 0x22 SLT KECCAK256 0xEF 0xC3 PUSH23 0x76CD367F978874B3D1BDA5A397FB1E6ABFC05007AD0541 STOP 0xEA 0xFB SWAP6 0xED 0xE0 PUSH5 0x736F6C6343 STOP ADDMOD SMOD STOP CALLER "
				},
				"gasEstimates": {
					"creation": {
						"codeDepositCost": "2737200",
						"executionCost": "infinite",
						"totalCost": "infinite"
					},
					"external": {
						"allVoters(address)": "infinite",
						"balanceOf(address)": "2863",
						"createProposal(uint8,address[],address,uint256,uint256,string,string[],uint256)": "infinite",
						"decimals()": "410",
						"name()": "infinite",
						"proposals(uint256)": "infinite",
						"responseProposal(uint256,address,string[],uint256[])": "infinite",
						"symbol()": "infinite",
						"totalSupply()": "2482",
						"userProposal(address)": "infinite"
					}
				},
				"methodIdentifiers": {
					"allVoters(address)": "c3703048",
					"balanceOf(address)": "70a08231",
					"createProposal(uint8,address[],address,uint256,uint256,string,string[],uint256)": "4de77e48",
					"decimals()": "313ce567",
					"name()": "06fdde03",
					"proposals(uint256)": "013cf08b",
					"responseProposal(uint256,address,string[],uint256[])": "5c230eee",
					"symbol()": "95d89b41",
					"totalSupply()": "18160ddd",
					"userProposal(address)": "e745d68e"
				}
			},
			"storageLayout": {
				"storage": [
					{
						"astId": 627,
						"contract": "Qvoting.sol:Qvoting",
						"label": "_balances",
						"offset": 0,
						"slot": "0",
						"type": "t_mapping(t_address,t_uint256)"
					},
					{
						"astId": 629,
						"contract": "Qvoting.sol:Qvoting",
						"label": "_totalSupply",
						"offset": 0,
						"slot": "1",
						"type": "t_uint256"
					},
					{
						"astId": 631,
						"contract": "Qvoting.sol:Qvoting",
						"label": "_name",
						"offset": 0,
						"slot": "2",
						"type": "t_string_storage"
					},
					{
						"astId": 633,
						"contract": "Qvoting.sol:Qvoting",
						"label": "_symbol",
						"offset": 0,
						"slot": "3",
						"type": "t_string_storage"
					},
					{
						"astId": 847,
						"contract": "Qvoting.sol:Qvoting",
						"label": "owner",
						"offset": 0,
						"slot": "4",
						"type": "t_address"
					},
					{
						"astId": 936,
						"contract": "Qvoting.sol:Qvoting",
						"label": "proposalId",
						"offset": 0,
						"slot": "5",
						"type": "t_uint256"
					},
					{
						"astId": 941,
						"contract": "Qvoting.sol:Qvoting",
						"label": "userProposal",
						"offset": 0,
						"slot": "6",
						"type": "t_mapping(t_address,t_struct(UserProposal)409_storage)"
					},
					{
						"astId": 946,
						"contract": "Qvoting.sol:Qvoting",
						"label": "proposals",
						"offset": 0,
						"slot": "7",
						"type": "t_mapping(t_uint256,t_struct(proposal)66_storage)"
					},
					{
						"astId": 951,
						"contract": "Qvoting.sol:Qvoting",
						"label": "allVoters",
						"offset": 0,
						"slot": "8",
						"type": "t_mapping(t_address,t_struct(voter)513_storage)"
					},
					{
						"astId": 955,
						"contract": "Qvoting.sol:Qvoting",
						"label": "validProposals",
						"offset": 0,
						"slot": "9",
						"type": "t_mapping(t_uint256,t_bool)"
					}
				],
				"types": {
					"t_address": {
						"encoding": "inplace",
						"label": "address",
						"numberOfBytes": "20"
					},
					"t_bool": {
						"encoding": "inplace",
						"label": "bool",
						"numberOfBytes": "1"
					},
					"t_mapping(t_address,t_bool)": {
						"encoding": "mapping",
						"key": "t_address",
						"label": "mapping(address => bool)",
						"numberOfBytes": "32",
						"value": "t_bool"
					},
					"t_mapping(t_address,t_struct(UserProposal)409_storage)": {
						"encoding": "mapping",
						"key": "t_address",
						"label": "mapping(address => struct UserProposalLibrary.UserProposal)",
						"numberOfBytes": "32",
						"value": "t_struct(UserProposal)409_storage"
					},
					"t_mapping(t_address,t_struct(voter)513_storage)": {
						"encoding": "mapping",
						"key": "t_address",
						"label": "mapping(address => struct voterLibrary.voter)",
						"numberOfBytes": "32",
						"value": "t_struct(voter)513_storage"
					},
					"t_mapping(t_address,t_uint256)": {
						"encoding": "mapping",
						"key": "t_address",
						"label": "mapping(address => uint256)",
						"numberOfBytes": "32",
						"value": "t_uint256"
					},
					"t_mapping(t_string_memory_ptr,t_bool)": {
						"encoding": "mapping",
						"key": "t_string_memory_ptr",
						"label": "mapping(string => bool)",
						"numberOfBytes": "32",
						"value": "t_bool"
					},
					"t_mapping(t_string_memory_ptr,t_uint256)": {
						"encoding": "mapping",
						"key": "t_string_memory_ptr",
						"label": "mapping(string => uint256)",
						"numberOfBytes": "32",
						"value": "t_uint256"
					},
					"t_mapping(t_uint128,t_uint256)": {
						"encoding": "mapping",
						"key": "t_uint128",
						"label": "mapping(uint128 => uint256)",
						"numberOfBytes": "32",
						"value": "t_uint256"
					},
					"t_mapping(t_uint256,t_bool)": {
						"encoding": "mapping",
						"key": "t_uint256",
						"label": "mapping(uint256 => bool)",
						"numberOfBytes": "32",
						"value": "t_bool"
					},
					"t_mapping(t_uint256,t_mapping(t_uint256,t_string_storage))": {
						"encoding": "mapping",
						"key": "t_uint256",
						"label": "mapping(uint256 => mapping(uint256 => string))",
						"numberOfBytes": "32",
						"value": "t_mapping(t_uint256,t_string_storage)"
					},
					"t_mapping(t_uint256,t_string_storage)": {
						"encoding": "mapping",
						"key": "t_uint256",
						"label": "mapping(uint256 => string)",
						"numberOfBytes": "32",
						"value": "t_string_storage"
					},
					"t_mapping(t_uint256,t_struct(proposal)66_storage)": {
						"encoding": "mapping",
						"key": "t_uint256",
						"label": "mapping(uint256 => struct proposalLibrary.proposal)",
						"numberOfBytes": "32",
						"value": "t_struct(proposal)66_storage"
					},
					"t_string_memory_ptr": {
						"encoding": "bytes",
						"label": "string",
						"numberOfBytes": "32"
					},
					"t_string_storage": {
						"encoding": "bytes",
						"label": "string",
						"numberOfBytes": "32"
					},
					"t_struct(UserProposal)409_storage": {
						"encoding": "inplace",
						"label": "struct UserProposalLibrary.UserProposal",
						"members": [
							{
								"astId": 388,
								"contract": "Qvoting.sol:Qvoting",
								"label": "proposalCount",
								"offset": 0,
								"slot": "0",
								"type": "t_uint128"
							},
							{
								"astId": 390,
								"contract": "Qvoting.sol:Qvoting",
								"label": "responseCount",
								"offset": 16,
								"slot": "0",
								"type": "t_uint128"
							},
							{
								"astId": 394,
								"contract": "Qvoting.sol:Qvoting",
								"label": "proposalCreated",
								"offset": 0,
								"slot": "1",
								"type": "t_mapping(t_uint128,t_uint256)"
							},
							{
								"astId": 398,
								"contract": "Qvoting.sol:Qvoting",
								"label": "proposalResponsed",
								"offset": 0,
								"slot": "2",
								"type": "t_mapping(t_uint128,t_uint256)"
							},
							{
								"astId": 404,
								"contract": "Qvoting.sol:Qvoting",
								"label": "proposalAnswer",
								"offset": 0,
								"slot": "3",
								"type": "t_mapping(t_uint256,t_mapping(t_uint256,t_string_storage))"
							},
							{
								"astId": 408,
								"contract": "Qvoting.sol:Qvoting",
								"label": "responsedProposal",
								"offset": 0,
								"slot": "4",
								"type": "t_mapping(t_uint256,t_bool)"
							}
						],
						"numberOfBytes": "160"
					},
					"t_struct(proposal)66_storage": {
						"encoding": "inplace",
						"label": "struct proposalLibrary.proposal",
						"members": [
							{
								"astId": 33,
								"contract": "Qvoting.sol:Qvoting",
								"label": "creator",
								"offset": 0,
								"slot": "0",
								"type": "t_address"
							},
							{
								"astId": 35,
								"contract": "Qvoting.sol:Qvoting",
								"label": "status",
								"offset": 20,
								"slot": "0",
								"type": "t_uint8"
							},
							{
								"astId": 37,
								"contract": "Qvoting.sol:Qvoting",
								"label": "disc",
								"offset": 0,
								"slot": "1",
								"type": "t_string_storage"
							},
							{
								"astId": 39,
								"contract": "Qvoting.sol:Qvoting",
								"label": "startTime",
								"offset": 0,
								"slot": "2",
								"type": "t_uint256"
							},
							{
								"astId": 41,
								"contract": "Qvoting.sol:Qvoting",
								"label": "expirationTime",
								"offset": 0,
								"slot": "3",
								"type": "t_uint256"
							},
							{
								"astId": 43,
								"contract": "Qvoting.sol:Qvoting",
								"label": "numOfOptions",
								"offset": 0,
								"slot": "4",
								"type": "t_uint16"
							},
							{
								"astId": 45,
								"contract": "Qvoting.sol:Qvoting",
								"label": "voteRight",
								"offset": 0,
								"slot": "5",
								"type": "t_uint256"
							},
							{
								"astId": 49,
								"contract": "Qvoting.sol:Qvoting",
								"label": "voters",
								"offset": 0,
								"slot": "6",
								"type": "t_mapping(t_address,t_bool)"
							},
							{
								"astId": 53,
								"contract": "Qvoting.sol:Qvoting",
								"label": "cand",
								"offset": 0,
								"slot": "7",
								"type": "t_mapping(t_string_memory_ptr,t_bool)"
							},
							{
								"astId": 57,
								"contract": "Qvoting.sol:Qvoting",
								"label": "candHash",
								"offset": 0,
								"slot": "8",
								"type": "t_mapping(t_uint256,t_string_storage)"
							},
							{
								"astId": 61,
								"contract": "Qvoting.sol:Qvoting",
								"label": "result",
								"offset": 0,
								"slot": "9",
								"type": "t_mapping(t_uint256,t_string_storage)"
							},
							{
								"astId": 65,
								"contract": "Qvoting.sol:Qvoting",
								"label": "votes",
								"offset": 0,
								"slot": "10",
								"type": "t_mapping(t_string_memory_ptr,t_uint256)"
							}
						],
						"numberOfBytes": "352"
					},
					"t_struct(voter)513_storage": {
						"encoding": "inplace",
						"label": "struct voterLibrary.voter",
						"members": [
							{
								"astId": 506,
								"contract": "Qvoting.sol:Qvoting",
								"label": "proposalId",
								"offset": 0,
								"slot": "0",
								"type": "t_uint256"
							},
							{
								"astId": 508,
								"contract": "Qvoting.sol:Qvoting",
								"label": "voterAddress",
								"offset": 0,
								"slot": "1",
								"type": "t_address"
							},
							{
								"astId": 510,
								"contract": "Qvoting.sol:Qvoting",
								"label": "hasVoted",
								"offset": 20,
								"slot": "1",
								"type": "t_bool"
							},
							{
								"astId": 512,
								"contract": "Qvoting.sol:Qvoting",
								"label": "voteNum",
								"offset": 0,
								"slot": "2",
								"type": "t_uint256"
							}
						],
						"numberOfBytes": "96"
					},
					"t_uint128": {
						"encoding": "inplace",
						"label": "uint128",
						"numberOfBytes": "16"
					},
					"t_uint16": {
						"encoding": "inplace",
						"label": "uint16",
						"numberOfBytes": "2"
					},
					"t_uint256": {
						"encoding": "inplace",
						"label": "uint256",
						"numberOfBytes": "32"
					},
					"t_uint8": {
						"encoding": "inplace",
						"label": "uint8",
						"numberOfBytes": "1"
					}
				}
			},
			"userdoc": {
				"kind": "user",
				"methods": {},
				"version": 1
			}
		}
	}
}