{
	"QvToken/QvToken.sol": {
		"QVtoken": {
			"abi": [
				{
					"inputs": [],
					"stateMutability": "nonpayable",
					"type": "constructor"
				},
				{
					"anonymous": false,
					"inputs": [
						{
							"indexed": false,
							"internalType": "string",
							"name": "mintAndburn",
							"type": "string"
						},
						{
							"indexed": false,
							"internalType": "address",
							"name": "account",
							"type": "address"
						},
						{
							"indexed": false,
							"internalType": "uint256",
							"name": "amount",
							"type": "uint256"
						}
					],
					"name": "mintAndburn",
					"type": "event"
				},
				{
					"inputs": [
						{
							"internalType": "address",
							"name": "account",
							"type": "address"
						}
					],
					"name": "balanceOf",
					"outputs": [
						{
							"internalType": "uint256",
							"name": "",
							"type": "uint256"
						}
					],
					"stateMutability": "view",
					"type": "function"
				},
				{
					"inputs": [
						{
							"internalType": "uint256",
							"name": "amount",
							"type": "uint256"
						}
					],
					"name": "burn",
					"outputs": [],
					"stateMutability": "nonpayable",
					"type": "function"
				},
				{
					"inputs": [],
					"name": "decimals",
					"outputs": [
						{
							"internalType": "uint8",
							"name": "",
							"type": "uint8"
						}
					],
					"stateMutability": "view",
					"type": "function"
				},
				{
					"inputs": [
						{
							"internalType": "address",
							"name": "to",
							"type": "address"
						},
						{
							"internalType": "uint256",
							"name": "amount",
							"type": "uint256"
						}
					],
					"name": "mint",
					"outputs": [],
					"stateMutability": "nonpayable",
					"type": "function"
				},
				{
					"inputs": [],
					"name": "name",
					"outputs": [
						{
							"internalType": "string",
							"name": "",
							"type": "string"
						}
					],
					"stateMutability": "view",
					"type": "function"
				},
				{
					"inputs": [],
					"name": "symbol",
					"outputs": [
						{
							"internalType": "string",
							"name": "",
							"type": "string"
						}
					],
					"stateMutability": "view",
					"type": "function"
				},
				{
					"inputs": [],
					"name": "totalSupply",
					"outputs": [
						{
							"internalType": "uint256",
							"name": "",
							"type": "uint256"
						}
					],
					"stateMutability": "view",
					"type": "function"
				}
			],
			"devdoc": {
				"kind": "dev",
				"methods": {
					"balanceOf(address)": {
						"details": "See {IERC20-balanceOf}."
					},
					"decimals()": {
						"details": "Returns the number of decimals used to get its user representation. For example, if `decimals` equals `2`, a balance of `505` tokens should be displayed to a user as `5.05` (`505 / 10 ** 2`). Tokens usually opt for a value of 18, imitating the relationship between Ether and Wei. This is the value {ERC20} uses, unless this function is overridden; NOTE: This information is only used for _display_ purposes: it in no way affects any of the arithmetic of the contract, including {IERC20-balanceOf} and {IERC20-transfer}."
					},
					"name()": {
						"details": "Returns the name of the token."
					},
					"symbol()": {
						"details": "Returns the symbol of the token, usually a shorter version of the name."
					},
					"totalSupply()": {
						"details": "See {IERC20-totalSupply}."
					}
				},
				"version": 1
			},
			"evm": {
				"assembly": "    /* \"QvToken/QvToken.sol\":160:614  contract QVtoken is ERC20{\r... */\n  mstore(0x40, 0x80)\n    /* \"QvToken/QvToken.sol\":220:298  constructor()  ERC20(\"QVotingToken\",\"Qv\"){\r... */\n  callvalue\n  dup1\n  iszero\n  tag_1\n  jumpi\n  0x00\n  dup1\n  revert\ntag_1:\n  pop\n    /* \"QvToken/ERC20.sol\":2016:2132  constructor(string memory name_, string memory symbol_) {\r... */\n  mload(0x40)\n  dup1\n  0x40\n  add\n  0x40\n  mstore\n  dup1\n  0x0c\n  dup2\n  mstore\n  0x20\n  add\n  0x51566f74696e67546f6b656e0000000000000000000000000000000000000000\n  dup2\n  mstore\n  pop\n  mload(0x40)\n  dup1\n  0x40\n  add\n  0x40\n  mstore\n  dup1\n  0x02\n  dup2\n  mstore\n  0x20\n  add\n  0x5176000000000000000000000000000000000000000000000000000000000000\n  dup2\n  mstore\n  pop\n    /* \"QvToken/ERC20.sol\":2091:2096  name_ */\n  dup2\n    /* \"QvToken/ERC20.sol\":2083:2088  _name */\n  0x02\n    /* \"QvToken/ERC20.sol\":2083:2096  _name = name_ */\n  swap1\n  dup1\n  mload\n  swap1\n  0x20\n  add\n  swap1\n  tag_5\n  swap3\n  swap2\n  swap1\n  tag_6\n  jump\t// in\ntag_5:\n  pop\n    /* \"QvToken/ERC20.sol\":2117:2124  symbol_ */\n  dup1\n    /* \"QvToken/ERC20.sol\":2107:2114  _symbol */\n  0x03\n    /* \"QvToken/ERC20.sol\":2107:2124  _symbol = symbol_ */\n  swap1\n  dup1\n  mload\n  swap1\n  0x20\n  add\n  swap1\n  tag_7\n  swap3\n  swap2\n  swap1\n  tag_6\n  jump\t// in\ntag_7:\n  pop\n    /* \"QvToken/ERC20.sol\":2016:2132  constructor(string memory name_, string memory symbol_) {\r... */\n  pop\n  pop\n    /* \"QvToken/QvToken.sol\":280:290  msg.sender */\n  caller\n    /* \"QvToken/QvToken.sol\":272:277  owner */\n  0x04\n  0x00\n    /* \"QvToken/QvToken.sol\":272:290  owner = msg.sender */\n  0x0100\n  exp\n  dup2\n  sload\n  dup2\n  0xffffffffffffffffffffffffffffffffffffffff\n  mul\n  not\n  and\n  swap1\n  dup4\n  0xffffffffffffffffffffffffffffffffffffffff\n  and\n  mul\n  or\n  swap1\n  sstore\n  pop\n    /* \"QvToken/QvToken.sol\":160:614  contract QVtoken is ERC20{\r... */\n  jump(tag_9)\ntag_6:\n  dup3\n  dup1\n  sload\n  tag_10\n  swap1\n  tag_11\n  jump\t// in\ntag_10:\n  swap1\n  0x00\n  mstore\n  keccak256(0x00, 0x20)\n  swap1\n  0x1f\n  add\n  0x20\n  swap1\n  div\n  dup2\n  add\n  swap3\n  dup3\n  tag_13\n  jumpi\n  0x00\n  dup6\n  sstore\n  jump(tag_12)\ntag_13:\n  dup3\n  0x1f\n  lt\n  tag_14\n  jumpi\n  dup1\n  mload\n  not(0xff)\n  and\n  dup4\n  dup1\n  add\n  or\n  dup6\n  sstore\n  jump(tag_12)\ntag_14:\n  dup3\n  dup1\n  add\n  0x01\n  add\n  dup6\n  sstore\n  dup3\n  iszero\n  tag_12\n  jumpi\n  swap2\n  dup3\n  add\ntag_15:\n  dup3\n  dup2\n  gt\n  iszero\n  tag_16\n  jumpi\n  dup3\n  mload\n  dup3\n  sstore\n  swap2\n  0x20\n  add\n  swap2\n  swap1\n  0x01\n  add\n  swap1\n  jump(tag_15)\ntag_16:\ntag_12:\n  pop\n  swap1\n  pop\n  tag_17\n  swap2\n  swap1\n  tag_18\n  jump\t// in\ntag_17:\n  pop\n  swap1\n  jump\t// out\ntag_18:\ntag_19:\n  dup1\n  dup3\n  gt\n  iszero\n  tag_20\n  jumpi\n  0x00\n  dup2\n  0x00\n  swap1\n  sstore\n  pop\n  0x01\n  add\n  jump(tag_19)\ntag_20:\n  pop\n  swap1\n  jump\t// out\n    /* \"#utility.yul\":7:327   */\ntag_11:\n    /* \"#utility.yul\":51:57   */\n  0x00\n    /* \"#utility.yul\":88:89   */\n  0x02\n    /* \"#utility.yul\":82:86   */\n  dup3\n    /* \"#utility.yul\":78:90   */\n  div\n    /* \"#utility.yul\":68:90   */\n  swap1\n  pop\n    /* \"#utility.yul\":135:136   */\n  0x01\n    /* \"#utility.yul\":129:133   */\n  dup3\n    /* \"#utility.yul\":125:137   */\n  and\n    /* \"#utility.yul\":156:174   */\n  dup1\n    /* \"#utility.yul\":146:227   */\n  tag_23\n  jumpi\n    /* \"#utility.yul\":212:216   */\n  0x7f\n    /* \"#utility.yul\":204:210   */\n  dup3\n    /* \"#utility.yul\":200:217   */\n  and\n    /* \"#utility.yul\":190:217   */\n  swap2\n  pop\n    /* \"#utility.yul\":146:227   */\ntag_23:\n    /* \"#utility.yul\":274:276   */\n  0x20\n    /* \"#utility.yul\":266:272   */\n  dup3\n    /* \"#utility.yul\":263:277   */\n  lt\n    /* \"#utility.yul\":243:261   */\n  dup2\n    /* \"#utility.yul\":240:278   */\n  eq\n    /* \"#utility.yul\":237:321   */\n  iszero\n  tag_24\n  jumpi\n    /* \"#utility.yul\":293:311   */\n  tag_25\n  tag_26\n  jump\t// in\ntag_25:\n    /* \"#utility.yul\":237:321   */\ntag_24:\n    /* \"#utility.yul\":58:327   */\n  pop\n    /* \"#utility.yul\":7:327   */\n  swap2\n  swap1\n  pop\n  jump\t// out\n    /* \"#utility.yul\":333:513   */\ntag_26:\n    /* \"#utility.yul\":381:458   */\n  0x4e487b7100000000000000000000000000000000000000000000000000000000\n    /* \"#utility.yul\":378:379   */\n  0x00\n    /* \"#utility.yul\":371:459   */\n  mstore\n    /* \"#utility.yul\":478:482   */\n  0x22\n    /* \"#utility.yul\":475:476   */\n  0x04\n    /* \"#utility.yul\":468:483   */\n  mstore\n    /* \"#utility.yul\":502:506   */\n  0x24\n    /* \"#utility.yul\":499:500   */\n  0x00\n    /* \"#utility.yul\":492:507   */\n  revert\n    /* \"QvToken/QvToken.sol\":160:614  contract QVtoken is ERC20{\r... */\ntag_9:\n  dataSize(sub_0)\n  dup1\n  dataOffset(sub_0)\n  0x00\n  codecopy\n  0x00\n  return\nstop\n\nsub_0: assembly {\n        /* \"QvToken/QvToken.sol\":160:614  contract QVtoken is ERC20{\r... */\n      mstore(0x40, 0x80)\n      callvalue\n      dup1\n      iszero\n      tag_1\n      jumpi\n      0x00\n      dup1\n      revert\n    tag_1:\n      pop\n      jumpi(tag_2, lt(calldatasize, 0x04))\n      shr(0xe0, calldataload(0x00))\n      dup1\n      0x40c10f19\n      gt\n      tag_10\n      jumpi\n      dup1\n      0x40c10f19\n      eq\n      tag_6\n      jumpi\n      dup1\n      0x42966c68\n      eq\n      tag_7\n      jumpi\n      dup1\n      0x70a08231\n      eq\n      tag_8\n      jumpi\n      dup1\n      0x95d89b41\n      eq\n      tag_9\n      jumpi\n      jump(tag_2)\n    tag_10:\n      dup1\n      0x06fdde03\n      eq\n      tag_3\n      jumpi\n      dup1\n      0x18160ddd\n      eq\n      tag_4\n      jumpi\n      dup1\n      0x313ce567\n      eq\n      tag_5\n      jumpi\n    tag_2:\n      0x00\n      dup1\n      revert\n        /* \"QvToken/ERC20.sol\":2202:2302  function name() public view virtual override returns (string memory) {\r... */\n    tag_3:\n      tag_11\n      tag_12\n      jump\t// in\n    tag_11:\n      mload(0x40)\n      tag_13\n      swap2\n      swap1\n      tag_14\n      jump\t// in\n    tag_13:\n      mload(0x40)\n      dup1\n      swap2\n      sub\n      swap1\n      return\n        /* \"QvToken/ERC20.sol\":3322:3430  function totalSupply() public view virtual override returns (uint256) {\r... */\n    tag_4:\n      tag_15\n      tag_16\n      jump\t// in\n    tag_15:\n      mload(0x40)\n      tag_17\n      swap2\n      swap1\n      tag_18\n      jump\t// in\n    tag_17:\n      mload(0x40)\n      dup1\n      swap2\n      sub\n      swap1\n      return\n        /* \"QvToken/ERC20.sol\":3164:3257  function decimals() public view virtual override returns (uint8) {\r... */\n    tag_5:\n      tag_19\n      tag_20\n      jump\t// in\n    tag_19:\n      mload(0x40)\n      tag_21\n      swap2\n      swap1\n      tag_22\n      jump\t// in\n    tag_21:\n      mload(0x40)\n      dup1\n      swap2\n      sub\n      swap1\n      return\n        /* \"QvToken/QvToken.sol\":398:502  function mint(address to , uint amount) onlyOwner(_msgSender()) external {\r... */\n    tag_6:\n      tag_23\n      0x04\n      dup1\n      calldatasize\n      sub\n      dup2\n      add\n      swap1\n      tag_24\n      swap2\n      swap1\n      tag_25\n      jump\t// in\n    tag_24:\n      tag_26\n      jump\t// in\n    tag_23:\n      stop\n        /* \"QvToken/QvToken.sol\":510:611  function burn(uint amount ) onlyOwner(_msgSender()) external{\r... */\n    tag_7:\n      tag_27\n      0x04\n      dup1\n      calldatasize\n      sub\n      dup2\n      add\n      swap1\n      tag_28\n      swap2\n      swap1\n      tag_29\n      jump\t// in\n    tag_28:\n      tag_30\n      jump\t// in\n    tag_27:\n      stop\n        /* \"QvToken/ERC20.sol\":3493:3620  function balanceOf(address account) public view virtual override returns (uint256) {\r... */\n    tag_8:\n      tag_31\n      0x04\n      dup1\n      calldatasize\n      sub\n      dup2\n      add\n      swap1\n      tag_32\n      swap2\n      swap1\n      tag_33\n      jump\t// in\n    tag_32:\n      tag_34\n      jump\t// in\n    tag_31:\n      mload(0x40)\n      tag_35\n      swap2\n      swap1\n      tag_18\n      jump\t// in\n    tag_35:\n      mload(0x40)\n      dup1\n      swap2\n      sub\n      swap1\n      return\n        /* \"QvToken/ERC20.sol\":2421:2525  function symbol() public view virtual override returns (string memory) {\r... */\n    tag_9:\n      tag_36\n      tag_37\n      jump\t// in\n    tag_36:\n      mload(0x40)\n      tag_38\n      swap2\n      swap1\n      tag_14\n      jump\t// in\n    tag_38:\n      mload(0x40)\n      dup1\n      swap2\n      sub\n      swap1\n      return\n        /* \"QvToken/ERC20.sol\":2202:2302  function name() public view virtual override returns (string memory) {\r... */\n    tag_12:\n        /* \"QvToken/ERC20.sol\":2256:2269  string memory */\n      0x60\n        /* \"QvToken/ERC20.sol\":2289:2294  _name */\n      0x02\n        /* \"QvToken/ERC20.sol\":2282:2294  return _name */\n      dup1\n      sload\n      tag_40\n      swap1\n      tag_41\n      jump\t// in\n    tag_40:\n      dup1\n      0x1f\n      add\n      0x20\n      dup1\n      swap2\n      div\n      mul\n      0x20\n      add\n      mload(0x40)\n      swap1\n      dup2\n      add\n      0x40\n      mstore\n      dup1\n      swap3\n      swap2\n      swap1\n      dup2\n      dup2\n      mstore\n      0x20\n      add\n      dup3\n      dup1\n      sload\n      tag_42\n      swap1\n      tag_41\n      jump\t// in\n    tag_42:\n      dup1\n      iszero\n      tag_43\n      jumpi\n      dup1\n      0x1f\n      lt\n      tag_44\n      jumpi\n      0x0100\n      dup1\n      dup4\n      sload\n      div\n      mul\n      dup4\n      mstore\n      swap2\n      0x20\n      add\n      swap2\n      jump(tag_43)\n    tag_44:\n      dup3\n      add\n      swap2\n      swap1\n      0x00\n      mstore\n      keccak256(0x00, 0x20)\n      swap1\n    tag_45:\n      dup2\n      sload\n      dup2\n      mstore\n      swap1\n      0x01\n      add\n      swap1\n      0x20\n      add\n      dup1\n      dup4\n      gt\n      tag_45\n      jumpi\n      dup3\n      swap1\n      sub\n      0x1f\n      and\n      dup3\n      add\n      swap2\n    tag_43:\n      pop\n      pop\n      pop\n      pop\n      pop\n      swap1\n      pop\n        /* \"QvToken/ERC20.sol\":2202:2302  function name() public view virtual override returns (string memory) {\r... */\n      swap1\n      jump\t// out\n        /* \"QvToken/ERC20.sol\":3322:3430  function totalSupply() public view virtual override returns (uint256) {\r... */\n    tag_16:\n        /* \"QvToken/ERC20.sol\":3383:3390  uint256 */\n      0x00\n        /* \"QvToken/ERC20.sol\":3410:3422  _totalSupply */\n      sload(0x01)\n        /* \"QvToken/ERC20.sol\":3403:3422  return _totalSupply */\n      swap1\n      pop\n        /* \"QvToken/ERC20.sol\":3322:3430  function totalSupply() public view virtual override returns (uint256) {\r... */\n      swap1\n      jump\t// out\n        /* \"QvToken/ERC20.sol\":3164:3257  function decimals() public view virtual override returns (uint8) {\r... */\n    tag_20:\n        /* \"QvToken/ERC20.sol\":3222:3227  uint8 */\n      0x00\n        /* \"QvToken/ERC20.sol\":3247:3249  18 */\n      0x12\n        /* \"QvToken/ERC20.sol\":3240:3249  return 18 */\n      swap1\n      pop\n        /* \"QvToken/ERC20.sol\":3164:3257  function decimals() public view virtual override returns (uint8) {\r... */\n      swap1\n      jump\t// out\n        /* \"QvToken/QvToken.sol\":398:502  function mint(address to , uint amount) onlyOwner(_msgSender()) external {\r... */\n    tag_26:\n        /* \"QvToken/QvToken.sol\":448:460  _msgSender() */\n      tag_48\n        /* \"QvToken/QvToken.sol\":448:458  _msgSender */\n      tag_49\n        /* \"QvToken/QvToken.sol\":448:460  _msgSender() */\n      jump\t// in\n    tag_48:\n        /* \"QvToken/QvToken.sol\":366:375  msgSender */\n      dup1\n        /* \"QvToken/QvToken.sol\":357:375  owner == msgSender */\n      0xffffffffffffffffffffffffffffffffffffffff\n      and\n        /* \"QvToken/QvToken.sol\":357:362  owner */\n      0x04\n      0x00\n      swap1\n      sload\n      swap1\n      0x0100\n      exp\n      swap1\n      div\n      0xffffffffffffffffffffffffffffffffffffffff\n      and\n        /* \"QvToken/QvToken.sol\":357:375  owner == msgSender */\n      0xffffffffffffffffffffffffffffffffffffffff\n      and\n      eq\n        /* \"QvToken/QvToken.sol\":349:376  require(owner == msgSender) */\n      tag_51\n      jumpi\n      0x00\n      dup1\n      revert\n    tag_51:\n        /* \"QvToken/QvToken.sol\":478:494  _mint(to,amount) */\n      tag_53\n        /* \"QvToken/QvToken.sol\":484:486  to */\n      dup4\n        /* \"QvToken/QvToken.sol\":487:493  amount */\n      dup4\n        /* \"QvToken/QvToken.sol\":478:483  _mint */\n      tag_54\n        /* \"QvToken/QvToken.sol\":478:494  _mint(to,amount) */\n      jump\t// in\n    tag_53:\n        /* \"QvToken/QvToken.sol\":398:502  function mint(address to , uint amount) onlyOwner(_msgSender()) external {\r... */\n      pop\n      pop\n      pop\n      jump\t// out\n        /* \"QvToken/QvToken.sol\":510:611  function burn(uint amount ) onlyOwner(_msgSender()) external{\r... */\n    tag_30:\n        /* \"QvToken/QvToken.sol\":548:560  _msgSender() */\n      tag_55\n        /* \"QvToken/QvToken.sol\":548:558  _msgSender */\n      tag_49\n        /* \"QvToken/QvToken.sol\":548:560  _msgSender() */\n      jump\t// in\n    tag_55:\n        /* \"QvToken/QvToken.sol\":366:375  msgSender */\n      dup1\n        /* \"QvToken/QvToken.sol\":357:375  owner == msgSender */\n      0xffffffffffffffffffffffffffffffffffffffff\n      and\n        /* \"QvToken/QvToken.sol\":357:362  owner */\n      0x04\n      0x00\n      swap1\n      sload\n      swap1\n      0x0100\n      exp\n      swap1\n      div\n      0xffffffffffffffffffffffffffffffffffffffff\n      and\n        /* \"QvToken/QvToken.sol\":357:375  owner == msgSender */\n      0xffffffffffffffffffffffffffffffffffffffff\n      and\n      eq\n        /* \"QvToken/QvToken.sol\":349:376  require(owner == msgSender) */\n      tag_57\n      jumpi\n      0x00\n      dup1\n      revert\n    tag_57:\n        /* \"QvToken/QvToken.sol\":577:603  _burn(msg.sender , amount) */\n      tag_59\n        /* \"QvToken/QvToken.sol\":583:593  msg.sender */\n      caller\n        /* \"QvToken/QvToken.sol\":596:602  amount */\n      dup4\n        /* \"QvToken/QvToken.sol\":577:582  _burn */\n      tag_60\n        /* \"QvToken/QvToken.sol\":577:603  _burn(msg.sender , amount) */\n      jump\t// in\n    tag_59:\n        /* \"QvToken/QvToken.sol\":510:611  function burn(uint amount ) onlyOwner(_msgSender()) external{\r... */\n      pop\n      pop\n      jump\t// out\n        /* \"QvToken/ERC20.sol\":3493:3620  function balanceOf(address account) public view virtual override returns (uint256) {\r... */\n    tag_34:\n        /* \"QvToken/ERC20.sol\":3567:3574  uint256 */\n      0x00\n        /* \"QvToken/ERC20.sol\":3594:3603  _balances */\n      dup1\n        /* \"QvToken/ERC20.sol\":3594:3612  _balances[account] */\n      0x00\n        /* \"QvToken/ERC20.sol\":3604:3611  account */\n      dup4\n        /* \"QvToken/ERC20.sol\":3594:3612  _balances[account] */\n      0xffffffffffffffffffffffffffffffffffffffff\n      and\n      0xffffffffffffffffffffffffffffffffffffffff\n      and\n      dup2\n      mstore\n      0x20\n      add\n      swap1\n      dup2\n      mstore\n      0x20\n      add\n      0x00\n      keccak256\n      sload\n        /* \"QvToken/ERC20.sol\":3587:3612  return _balances[account] */\n      swap1\n      pop\n        /* \"QvToken/ERC20.sol\":3493:3620  function balanceOf(address account) public view virtual override returns (uint256) {\r... */\n      swap2\n      swap1\n      pop\n      jump\t// out\n        /* \"QvToken/ERC20.sol\":2421:2525  function symbol() public view virtual override returns (string memory) {\r... */\n    tag_37:\n        /* \"QvToken/ERC20.sol\":2477:2490  string memory */\n      0x60\n        /* \"QvToken/ERC20.sol\":2510:2517  _symbol */\n      0x03\n        /* \"QvToken/ERC20.sol\":2503:2517  return _symbol */\n      dup1\n      sload\n      tag_63\n      swap1\n      tag_41\n      jump\t// in\n    tag_63:\n      dup1\n      0x1f\n      add\n      0x20\n      dup1\n      swap2\n      div\n      mul\n      0x20\n      add\n      mload(0x40)\n      swap1\n      dup2\n      add\n      0x40\n      mstore\n      dup1\n      swap3\n      swap2\n      swap1\n      dup2\n      dup2\n      mstore\n      0x20\n      add\n      dup3\n      dup1\n      sload\n      tag_64\n      swap1\n      tag_41\n      jump\t// in\n    tag_64:\n      dup1\n      iszero\n      tag_65\n      jumpi\n      dup1\n      0x1f\n      lt\n      tag_66\n      jumpi\n      0x0100\n      dup1\n      dup4\n      sload\n      div\n      mul\n      dup4\n      mstore\n      swap2\n      0x20\n      add\n      swap2\n      jump(tag_65)\n    tag_66:\n      dup3\n      add\n      swap2\n      swap1\n      0x00\n      mstore\n      keccak256(0x00, 0x20)\n      swap1\n    tag_67:\n      dup2\n      sload\n      dup2\n      mstore\n      swap1\n      0x01\n      add\n      swap1\n      0x20\n      add\n      dup1\n      dup4\n      gt\n      tag_67\n      jumpi\n      dup3\n      swap1\n      sub\n      0x1f\n      and\n      dup3\n      add\n      swap2\n    tag_65:\n      pop\n      pop\n      pop\n      pop\n      pop\n      swap1\n      pop\n        /* \"QvToken/ERC20.sol\":2421:2525  function symbol() public view virtual override returns (string memory) {\r... */\n      swap1\n      jump\t// out\n        /* \"QvToken/Context.sol\":656:754  function _msgSender() internal view virtual returns (address) {\r... */\n    tag_49:\n        /* \"QvToken/Context.sol\":709:716  address */\n      0x00\n        /* \"QvToken/Context.sol\":736:746  msg.sender */\n      caller\n        /* \"QvToken/Context.sol\":729:746  return msg.sender */\n      swap1\n      pop\n        /* \"QvToken/Context.sol\":656:754  function _msgSender() internal view virtual returns (address) {\r... */\n      swap1\n      jump\t// out\n        /* \"QvToken/ERC20.sol\":3630:4033  function _mint(address account, uint256 amount) internal virtual {\r... */\n    tag_54:\n        /* \"QvToken/ERC20.sol\":3733:3734  0 */\n      0x00\n        /* \"QvToken/ERC20.sol\":3714:3735  account != address(0) */\n      0xffffffffffffffffffffffffffffffffffffffff\n      and\n        /* \"QvToken/ERC20.sol\":3714:3721  account */\n      dup3\n        /* \"QvToken/ERC20.sol\":3714:3735  account != address(0) */\n      0xffffffffffffffffffffffffffffffffffffffff\n      and\n      eq\n      iszero\n        /* \"QvToken/ERC20.sol\":3706:3771  require(account != address(0), \"ERC20: mint to the zero address\") */\n      tag_70\n      jumpi\n      mload(0x40)\n      0x08c379a000000000000000000000000000000000000000000000000000000000\n      dup2\n      mstore\n      0x04\n      add\n      tag_71\n      swap1\n      tag_72\n      jump\t// in\n    tag_71:\n      mload(0x40)\n      dup1\n      swap2\n      sub\n      swap1\n      revert\n    tag_70:\n        /* \"QvToken/ERC20.sol\":3865:3871  amount */\n      dup1\n        /* \"QvToken/ERC20.sol\":3849:3861  _totalSupply */\n      0x01\n      0x00\n        /* \"QvToken/ERC20.sol\":3849:3871  _totalSupply += amount */\n      dup3\n      dup3\n      sload\n      tag_73\n      swap2\n      swap1\n      tag_74\n      jump\t// in\n    tag_73:\n      swap3\n      pop\n      pop\n      dup2\n      swap1\n      sstore\n      pop\n        /* \"QvToken/ERC20.sol\":3904:3910  amount */\n      dup1\n        /* \"QvToken/ERC20.sol\":3882:3891  _balances */\n      0x00\n        /* \"QvToken/ERC20.sol\":3882:3900  _balances[account] */\n      dup1\n        /* \"QvToken/ERC20.sol\":3892:3899  account */\n      dup5\n        /* \"QvToken/ERC20.sol\":3882:3900  _balances[account] */\n      0xffffffffffffffffffffffffffffffffffffffff\n      and\n      0xffffffffffffffffffffffffffffffffffffffff\n      and\n      dup2\n      mstore\n      0x20\n      add\n      swap1\n      dup2\n      mstore\n      0x20\n      add\n      0x00\n      keccak256\n      0x00\n        /* \"QvToken/ERC20.sol\":3882:3910  _balances[account] += amount */\n      dup3\n      dup3\n      sload\n      tag_75\n      swap2\n      swap1\n      tag_74\n      jump\t// in\n    tag_75:\n      swap3\n      pop\n      pop\n      dup2\n      swap1\n      sstore\n      pop\n        /* \"QvToken/ERC20.sol\":3926:3961  mintAndburn(\"mint\",account, amount) */\n      0xabf5327be9f5825c40d58bda541dd07f09b62df3376bbd5ecdbaa8bd82a9d492\n        /* \"QvToken/ERC20.sol\":3945:3952  account */\n      dup3\n        /* \"QvToken/ERC20.sol\":3954:3960  amount */\n      dup3\n        /* \"QvToken/ERC20.sol\":3926:3961  mintAndburn(\"mint\",account, amount) */\n      mload(0x40)\n      tag_76\n      swap3\n      swap2\n      swap1\n      tag_77\n      jump\t// in\n    tag_76:\n      mload(0x40)\n      dup1\n      swap2\n      sub\n      swap1\n      log1\n        /* \"QvToken/ERC20.sol\":3630:4033  function _mint(address account, uint256 amount) internal virtual {\r... */\n      pop\n      pop\n      jump\t// out\n        /* \"QvToken/ERC20.sol\":4045:4640  function _burn(address account, uint256 amount) internal virtual {\r... */\n    tag_60:\n        /* \"QvToken/ERC20.sol\":4148:4149  0 */\n      0x00\n        /* \"QvToken/ERC20.sol\":4129:4150  account != address(0) */\n      0xffffffffffffffffffffffffffffffffffffffff\n      and\n        /* \"QvToken/ERC20.sol\":4129:4136  account */\n      dup3\n        /* \"QvToken/ERC20.sol\":4129:4150  account != address(0) */\n      0xffffffffffffffffffffffffffffffffffffffff\n      and\n      eq\n      iszero\n        /* \"QvToken/ERC20.sol\":4121:4188  require(account != address(0), \"ERC20: burn from the zero address\") */\n      tag_79\n      jumpi\n      mload(0x40)\n      0x08c379a000000000000000000000000000000000000000000000000000000000\n      dup2\n      mstore\n      0x04\n      add\n      tag_80\n      swap1\n      tag_81\n      jump\t// in\n    tag_80:\n      mload(0x40)\n      dup1\n      swap2\n      sub\n      swap1\n      revert\n    tag_79:\n        /* \"QvToken/ERC20.sol\":4266:4288  uint256 accountBalance */\n      0x00\n        /* \"QvToken/ERC20.sol\":4291:4300  _balances */\n      dup1\n        /* \"QvToken/ERC20.sol\":4291:4309  _balances[account] */\n      0x00\n        /* \"QvToken/ERC20.sol\":4301:4308  account */\n      dup5\n        /* \"QvToken/ERC20.sol\":4291:4309  _balances[account] */\n      0xffffffffffffffffffffffffffffffffffffffff\n      and\n      0xffffffffffffffffffffffffffffffffffffffff\n      and\n      dup2\n      mstore\n      0x20\n      add\n      swap1\n      dup2\n      mstore\n      0x20\n      add\n      0x00\n      keccak256\n      sload\n        /* \"QvToken/ERC20.sol\":4266:4309  uint256 accountBalance = _balances[account] */\n      swap1\n      pop\n        /* \"QvToken/ERC20.sol\":4346:4352  amount */\n      dup2\n        /* \"QvToken/ERC20.sol\":4328:4342  accountBalance */\n      dup2\n        /* \"QvToken/ERC20.sol\":4328:4352  accountBalance >= amount */\n      lt\n      iszero\n        /* \"QvToken/ERC20.sol\":4320:4391  require(accountBalance >= amount, \"ERC20: burn amount exceeds balance\") */\n      tag_82\n      jumpi\n      mload(0x40)\n      0x08c379a000000000000000000000000000000000000000000000000000000000\n      dup2\n      mstore\n      0x04\n      add\n      tag_83\n      swap1\n      tag_84\n      jump\t// in\n    tag_83:\n      mload(0x40)\n      dup1\n      swap2\n      sub\n      swap1\n      revert\n    tag_82:\n        /* \"QvToken/ERC20.sol\":4465:4471  amount */\n      dup2\n        /* \"QvToken/ERC20.sol\":4448:4462  accountBalance */\n      dup2\n        /* \"QvToken/ERC20.sol\":4448:4471  accountBalance - amount */\n      sub\n        /* \"QvToken/ERC20.sol\":4427:4436  _balances */\n      0x00\n        /* \"QvToken/ERC20.sol\":4427:4445  _balances[account] */\n      dup1\n        /* \"QvToken/ERC20.sol\":4437:4444  account */\n      dup6\n        /* \"QvToken/ERC20.sol\":4427:4445  _balances[account] */\n      0xffffffffffffffffffffffffffffffffffffffff\n      and\n      0xffffffffffffffffffffffffffffffffffffffff\n      and\n      dup2\n      mstore\n      0x20\n      add\n      swap1\n      dup2\n      mstore\n      0x20\n      add\n      0x00\n      keccak256\n        /* \"QvToken/ERC20.sol\":4427:4471  _balances[account] = accountBalance - amount */\n      dup2\n      swap1\n      sstore\n      pop\n        /* \"QvToken/ERC20.sol\":4509:4515  amount */\n      dup2\n        /* \"QvToken/ERC20.sol\":4493:4505  _totalSupply */\n      0x01\n      0x00\n        /* \"QvToken/ERC20.sol\":4493:4515  _totalSupply -= amount */\n      dup3\n      dup3\n      sload\n      tag_85\n      swap2\n      swap1\n      tag_86\n      jump\t// in\n    tag_85:\n      swap3\n      pop\n      pop\n      dup2\n      swap1\n      sstore\n      pop\n        /* \"QvToken/ERC20.sol\":4533:4568  mintAndburn(\"burn\",account, amount) */\n      0xabf5327be9f5825c40d58bda541dd07f09b62df3376bbd5ecdbaa8bd82a9d492\n        /* \"QvToken/ERC20.sol\":4552:4559  account */\n      dup4\n        /* \"QvToken/ERC20.sol\":4561:4567  amount */\n      dup4\n        /* \"QvToken/ERC20.sol\":4533:4568  mintAndburn(\"burn\",account, amount) */\n      mload(0x40)\n      tag_87\n      swap3\n      swap2\n      swap1\n      tag_88\n      jump\t// in\n    tag_87:\n      mload(0x40)\n      dup1\n      swap2\n      sub\n      swap1\n      log1\n        /* \"QvToken/ERC20.sol\":4110:4640  {\r... */\n      pop\n        /* \"QvToken/ERC20.sol\":4045:4640  function _burn(address account, uint256 amount) internal virtual {\r... */\n      pop\n      pop\n      jump\t// out\n        /* \"#utility.yul\":7:146   */\n    tag_90:\n        /* \"#utility.yul\":53:58   */\n      0x00\n        /* \"#utility.yul\":91:97   */\n      dup2\n        /* \"#utility.yul\":78:98   */\n      calldataload\n        /* \"#utility.yul\":69:98   */\n      swap1\n      pop\n        /* \"#utility.yul\":107:140   */\n      tag_92\n        /* \"#utility.yul\":134:139   */\n      dup2\n        /* \"#utility.yul\":107:140   */\n      tag_93\n      jump\t// in\n    tag_92:\n        /* \"#utility.yul\":7:146   */\n      swap3\n      swap2\n      pop\n      pop\n      jump\t// out\n        /* \"#utility.yul\":152:291   */\n    tag_94:\n        /* \"#utility.yul\":198:203   */\n      0x00\n        /* \"#utility.yul\":236:242   */\n      dup2\n        /* \"#utility.yul\":223:243   */\n      calldataload\n        /* \"#utility.yul\":214:243   */\n      swap1\n      pop\n        /* \"#utility.yul\":252:285   */\n      tag_96\n        /* \"#utility.yul\":279:284   */\n      dup2\n        /* \"#utility.yul\":252:285   */\n      tag_97\n      jump\t// in\n    tag_96:\n        /* \"#utility.yul\":152:291   */\n      swap3\n      swap2\n      pop\n      pop\n      jump\t// out\n        /* \"#utility.yul\":297:626   */\n    tag_33:\n        /* \"#utility.yul\":356:362   */\n      0x00\n        /* \"#utility.yul\":405:407   */\n      0x20\n        /* \"#utility.yul\":393:402   */\n      dup3\n        /* \"#utility.yul\":384:391   */\n      dup5\n        /* \"#utility.yul\":380:403   */\n      sub\n        /* \"#utility.yul\":376:408   */\n      slt\n        /* \"#utility.yul\":373:492   */\n      iszero\n      tag_99\n      jumpi\n        /* \"#utility.yul\":411:490   */\n      tag_100\n      tag_101\n      jump\t// in\n    tag_100:\n        /* \"#utility.yul\":373:492   */\n    tag_99:\n        /* \"#utility.yul\":531:532   */\n      0x00\n        /* \"#utility.yul\":556:609   */\n      tag_102\n        /* \"#utility.yul\":601:608   */\n      dup5\n        /* \"#utility.yul\":592:598   */\n      dup3\n        /* \"#utility.yul\":581:590   */\n      dup6\n        /* \"#utility.yul\":577:599   */\n      add\n        /* \"#utility.yul\":556:609   */\n      tag_90\n      jump\t// in\n    tag_102:\n        /* \"#utility.yul\":546:609   */\n      swap2\n      pop\n        /* \"#utility.yul\":502:619   */\n      pop\n        /* \"#utility.yul\":297:626   */\n      swap3\n      swap2\n      pop\n      pop\n      jump\t// out\n        /* \"#utility.yul\":632:1106   */\n    tag_25:\n        /* \"#utility.yul\":700:706   */\n      0x00\n        /* \"#utility.yul\":708:714   */\n      dup1\n        /* \"#utility.yul\":757:759   */\n      0x40\n        /* \"#utility.yul\":745:754   */\n      dup4\n        /* \"#utility.yul\":736:743   */\n      dup6\n        /* \"#utility.yul\":732:755   */\n      sub\n        /* \"#utility.yul\":728:760   */\n      slt\n        /* \"#utility.yul\":725:844   */\n      iszero\n      tag_104\n      jumpi\n        /* \"#utility.yul\":763:842   */\n      tag_105\n      tag_101\n      jump\t// in\n    tag_105:\n        /* \"#utility.yul\":725:844   */\n    tag_104:\n        /* \"#utility.yul\":883:884   */\n      0x00\n        /* \"#utility.yul\":908:961   */\n      tag_106\n        /* \"#utility.yul\":953:960   */\n      dup6\n        /* \"#utility.yul\":944:950   */\n      dup3\n        /* \"#utility.yul\":933:942   */\n      dup7\n        /* \"#utility.yul\":929:951   */\n      add\n        /* \"#utility.yul\":908:961   */\n      tag_90\n      jump\t// in\n    tag_106:\n        /* \"#utility.yul\":898:961   */\n      swap3\n      pop\n        /* \"#utility.yul\":854:971   */\n      pop\n        /* \"#utility.yul\":1010:1012   */\n      0x20\n        /* \"#utility.yul\":1036:1089   */\n      tag_107\n        /* \"#utility.yul\":1081:1088   */\n      dup6\n        /* \"#utility.yul\":1072:1078   */\n      dup3\n        /* \"#utility.yul\":1061:1070   */\n      dup7\n        /* \"#utility.yul\":1057:1079   */\n      add\n        /* \"#utility.yul\":1036:1089   */\n      tag_94\n      jump\t// in\n    tag_107:\n        /* \"#utility.yul\":1026:1089   */\n      swap2\n      pop\n        /* \"#utility.yul\":981:1099   */\n      pop\n        /* \"#utility.yul\":632:1106   */\n      swap3\n      pop\n      swap3\n      swap1\n      pop\n      jump\t// out\n        /* \"#utility.yul\":1112:1441   */\n    tag_29:\n        /* \"#utility.yul\":1171:1177   */\n      0x00\n        /* \"#utility.yul\":1220:1222   */\n      0x20\n        /* \"#utility.yul\":1208:1217   */\n      dup3\n        /* \"#utility.yul\":1199:1206   */\n      dup5\n        /* \"#utility.yul\":1195:1218   */\n      sub\n        /* \"#utility.yul\":1191:1223   */\n      slt\n        /* \"#utility.yul\":1188:1307   */\n      iszero\n      tag_109\n      jumpi\n        /* \"#utility.yul\":1226:1305   */\n      tag_110\n      tag_101\n      jump\t// in\n    tag_110:\n        /* \"#utility.yul\":1188:1307   */\n    tag_109:\n        /* \"#utility.yul\":1346:1347   */\n      0x00\n        /* \"#utility.yul\":1371:1424   */\n      tag_111\n        /* \"#utility.yul\":1416:1423   */\n      dup5\n        /* \"#utility.yul\":1407:1413   */\n      dup3\n        /* \"#utility.yul\":1396:1405   */\n      dup6\n        /* \"#utility.yul\":1392:1414   */\n      add\n        /* \"#utility.yul\":1371:1424   */\n      tag_94\n      jump\t// in\n    tag_111:\n        /* \"#utility.yul\":1361:1424   */\n      swap2\n      pop\n        /* \"#utility.yul\":1317:1434   */\n      pop\n        /* \"#utility.yul\":1112:1441   */\n      swap3\n      swap2\n      pop\n      pop\n      jump\t// out\n        /* \"#utility.yul\":1447:1565   */\n    tag_112:\n        /* \"#utility.yul\":1534:1558   */\n      tag_114\n        /* \"#utility.yul\":1552:1557   */\n      dup2\n        /* \"#utility.yul\":1534:1558   */\n      tag_115\n      jump\t// in\n    tag_114:\n        /* \"#utility.yul\":1529:1532   */\n      dup3\n        /* \"#utility.yul\":1522:1559   */\n      mstore\n        /* \"#utility.yul\":1447:1565   */\n      pop\n      pop\n      jump\t// out\n        /* \"#utility.yul\":1571:1935   */\n    tag_116:\n        /* \"#utility.yul\":1659:1662   */\n      0x00\n        /* \"#utility.yul\":1687:1726   */\n      tag_118\n        /* \"#utility.yul\":1720:1725   */\n      dup3\n        /* \"#utility.yul\":1687:1726   */\n      tag_119\n      jump\t// in\n    tag_118:\n        /* \"#utility.yul\":1742:1813   */\n      tag_120\n        /* \"#utility.yul\":1806:1812   */\n      dup2\n        /* \"#utility.yul\":1801:1804   */\n      dup6\n        /* \"#utility.yul\":1742:1813   */\n      tag_121\n      jump\t// in\n    tag_120:\n        /* \"#utility.yul\":1735:1813   */\n      swap4\n      pop\n        /* \"#utility.yul\":1822:1874   */\n      tag_122\n        /* \"#utility.yul\":1867:1873   */\n      dup2\n        /* \"#utility.yul\":1862:1865   */\n      dup6\n        /* \"#utility.yul\":1855:1859   */\n      0x20\n        /* \"#utility.yul\":1848:1853   */\n      dup7\n        /* \"#utility.yul\":1844:1860   */\n      add\n        /* \"#utility.yul\":1822:1874   */\n      tag_123\n      jump\t// in\n    tag_122:\n        /* \"#utility.yul\":1899:1928   */\n      tag_124\n        /* \"#utility.yul\":1921:1927   */\n      dup2\n        /* \"#utility.yul\":1899:1928   */\n      tag_125\n      jump\t// in\n    tag_124:\n        /* \"#utility.yul\":1894:1897   */\n      dup5\n        /* \"#utility.yul\":1890:1929   */\n      add\n        /* \"#utility.yul\":1883:1929   */\n      swap2\n      pop\n        /* \"#utility.yul\":1663:1935   */\n      pop\n        /* \"#utility.yul\":1571:1935   */\n      swap3\n      swap2\n      pop\n      pop\n      jump\t// out\n        /* \"#utility.yul\":1941:2307   */\n    tag_126:\n        /* \"#utility.yul\":2083:2086   */\n      0x00\n        /* \"#utility.yul\":2104:2171   */\n      tag_128\n        /* \"#utility.yul\":2168:2170   */\n      0x22\n        /* \"#utility.yul\":2163:2166   */\n      dup4\n        /* \"#utility.yul\":2104:2171   */\n      tag_121\n      jump\t// in\n    tag_128:\n        /* \"#utility.yul\":2097:2171   */\n      swap2\n      pop\n        /* \"#utility.yul\":2180:2273   */\n      tag_129\n        /* \"#utility.yul\":2269:2272   */\n      dup3\n        /* \"#utility.yul\":2180:2273   */\n      tag_130\n      jump\t// in\n    tag_129:\n        /* \"#utility.yul\":2298:2300   */\n      0x40\n        /* \"#utility.yul\":2293:2296   */\n      dup3\n        /* \"#utility.yul\":2289:2301   */\n      add\n        /* \"#utility.yul\":2282:2301   */\n      swap1\n      pop\n        /* \"#utility.yul\":1941:2307   */\n      swap2\n      swap1\n      pop\n      jump\t// out\n        /* \"#utility.yul\":2313:2679   */\n    tag_131:\n        /* \"#utility.yul\":2455:2458   */\n      0x00\n        /* \"#utility.yul\":2476:2543   */\n      tag_133\n        /* \"#utility.yul\":2540:2542   */\n      0x21\n        /* \"#utility.yul\":2535:2538   */\n      dup4\n        /* \"#utility.yul\":2476:2543   */\n      tag_121\n      jump\t// in\n    tag_133:\n        /* \"#utility.yul\":2469:2543   */\n      swap2\n      pop\n        /* \"#utility.yul\":2552:2645   */\n      tag_134\n        /* \"#utility.yul\":2641:2644   */\n      dup3\n        /* \"#utility.yul\":2552:2645   */\n      tag_135\n      jump\t// in\n    tag_134:\n        /* \"#utility.yul\":2670:2672   */\n      0x40\n        /* \"#utility.yul\":2665:2668   */\n      dup3\n        /* \"#utility.yul\":2661:2673   */\n      add\n        /* \"#utility.yul\":2654:2673   */\n      swap1\n      pop\n        /* \"#utility.yul\":2313:2679   */\n      swap2\n      swap1\n      pop\n      jump\t// out\n        /* \"#utility.yul\":2685:3050   */\n    tag_136:\n        /* \"#utility.yul\":2827:2830   */\n      0x00\n        /* \"#utility.yul\":2848:2914   */\n      tag_138\n        /* \"#utility.yul\":2912:2913   */\n      0x04\n        /* \"#utility.yul\":2907:2910   */\n      dup4\n        /* \"#utility.yul\":2848:2914   */\n      tag_121\n      jump\t// in\n    tag_138:\n        /* \"#utility.yul\":2841:2914   */\n      swap2\n      pop\n        /* \"#utility.yul\":2923:3016   */\n      tag_139\n        /* \"#utility.yul\":3012:3015   */\n      dup3\n        /* \"#utility.yul\":2923:3016   */\n      tag_140\n      jump\t// in\n    tag_139:\n        /* \"#utility.yul\":3041:3043   */\n      0x20\n        /* \"#utility.yul\":3036:3039   */\n      dup3\n        /* \"#utility.yul\":3032:3044   */\n      add\n        /* \"#utility.yul\":3025:3044   */\n      swap1\n      pop\n        /* \"#utility.yul\":2685:3050   */\n      swap2\n      swap1\n      pop\n      jump\t// out\n        /* \"#utility.yul\":3056:3421   */\n    tag_141:\n        /* \"#utility.yul\":3198:3201   */\n      0x00\n        /* \"#utility.yul\":3219:3285   */\n      tag_143\n        /* \"#utility.yul\":3283:3284   */\n      0x04\n        /* \"#utility.yul\":3278:3281   */\n      dup4\n        /* \"#utility.yul\":3219:3285   */\n      tag_121\n      jump\t// in\n    tag_143:\n        /* \"#utility.yul\":3212:3285   */\n      swap2\n      pop\n        /* \"#utility.yul\":3294:3387   */\n      tag_144\n        /* \"#utility.yul\":3383:3386   */\n      dup3\n        /* \"#utility.yul\":3294:3387   */\n      tag_145\n      jump\t// in\n    tag_144:\n        /* \"#utility.yul\":3412:3414   */\n      0x20\n        /* \"#utility.yul\":3407:3410   */\n      dup3\n        /* \"#utility.yul\":3403:3415   */\n      add\n        /* \"#utility.yul\":3396:3415   */\n      swap1\n      pop\n        /* \"#utility.yul\":3056:3421   */\n      swap2\n      swap1\n      pop\n      jump\t// out\n        /* \"#utility.yul\":3427:3793   */\n    tag_146:\n        /* \"#utility.yul\":3569:3572   */\n      0x00\n        /* \"#utility.yul\":3590:3657   */\n      tag_148\n        /* \"#utility.yul\":3654:3656   */\n      0x1f\n        /* \"#utility.yul\":3649:3652   */\n      dup4\n        /* \"#utility.yul\":3590:3657   */\n      tag_121\n      jump\t// in\n    tag_148:\n        /* \"#utility.yul\":3583:3657   */\n      swap2\n      pop\n        /* \"#utility.yul\":3666:3759   */\n      tag_149\n        /* \"#utility.yul\":3755:3758   */\n      dup3\n        /* \"#utility.yul\":3666:3759   */\n      tag_150\n      jump\t// in\n    tag_149:\n        /* \"#utility.yul\":3784:3786   */\n      0x20\n        /* \"#utility.yul\":3779:3782   */\n      dup3\n        /* \"#utility.yul\":3775:3787   */\n      add\n        /* \"#utility.yul\":3768:3787   */\n      swap1\n      pop\n        /* \"#utility.yul\":3427:3793   */\n      swap2\n      swap1\n      pop\n      jump\t// out\n        /* \"#utility.yul\":3799:3917   */\n    tag_151:\n        /* \"#utility.yul\":3886:3910   */\n      tag_153\n        /* \"#utility.yul\":3904:3909   */\n      dup2\n        /* \"#utility.yul\":3886:3910   */\n      tag_154\n      jump\t// in\n    tag_153:\n        /* \"#utility.yul\":3881:3884   */\n      dup3\n        /* \"#utility.yul\":3874:3911   */\n      mstore\n        /* \"#utility.yul\":3799:3917   */\n      pop\n      pop\n      jump\t// out\n        /* \"#utility.yul\":3923:4035   */\n    tag_155:\n        /* \"#utility.yul\":4006:4028   */\n      tag_157\n        /* \"#utility.yul\":4022:4027   */\n      dup2\n        /* \"#utility.yul\":4006:4028   */\n      tag_158\n      jump\t// in\n    tag_157:\n        /* \"#utility.yul\":4001:4004   */\n      dup3\n        /* \"#utility.yul\":3994:4029   */\n      mstore\n        /* \"#utility.yul\":3923:4035   */\n      pop\n      pop\n      jump\t// out\n        /* \"#utility.yul\":4041:4354   */\n    tag_14:\n        /* \"#utility.yul\":4154:4158   */\n      0x00\n        /* \"#utility.yul\":4192:4194   */\n      0x20\n        /* \"#utility.yul\":4181:4190   */\n      dup3\n        /* \"#utility.yul\":4177:4195   */\n      add\n        /* \"#utility.yul\":4169:4195   */\n      swap1\n      pop\n        /* \"#utility.yul\":4241:4250   */\n      dup2\n        /* \"#utility.yul\":4235:4239   */\n      dup2\n        /* \"#utility.yul\":4231:4251   */\n      sub\n        /* \"#utility.yul\":4227:4228   */\n      0x00\n        /* \"#utility.yul\":4216:4225   */\n      dup4\n        /* \"#utility.yul\":4212:4229   */\n      add\n        /* \"#utility.yul\":4205:4252   */\n      mstore\n        /* \"#utility.yul\":4269:4347   */\n      tag_160\n        /* \"#utility.yul\":4342:4346   */\n      dup2\n        /* \"#utility.yul\":4333:4339   */\n      dup5\n        /* \"#utility.yul\":4269:4347   */\n      tag_116\n      jump\t// in\n    tag_160:\n        /* \"#utility.yul\":4261:4347   */\n      swap1\n      pop\n        /* \"#utility.yul\":4041:4354   */\n      swap3\n      swap2\n      pop\n      pop\n      jump\t// out\n        /* \"#utility.yul\":4360:4779   */\n    tag_84:\n        /* \"#utility.yul\":4526:4530   */\n      0x00\n        /* \"#utility.yul\":4564:4566   */\n      0x20\n        /* \"#utility.yul\":4553:4562   */\n      dup3\n        /* \"#utility.yul\":4549:4567   */\n      add\n        /* \"#utility.yul\":4541:4567   */\n      swap1\n      pop\n        /* \"#utility.yul\":4613:4622   */\n      dup2\n        /* \"#utility.yul\":4607:4611   */\n      dup2\n        /* \"#utility.yul\":4603:4623   */\n      sub\n        /* \"#utility.yul\":4599:4600   */\n      0x00\n        /* \"#utility.yul\":4588:4597   */\n      dup4\n        /* \"#utility.yul\":4584:4601   */\n      add\n        /* \"#utility.yul\":4577:4624   */\n      mstore\n        /* \"#utility.yul\":4641:4772   */\n      tag_162\n        /* \"#utility.yul\":4767:4771   */\n      dup2\n        /* \"#utility.yul\":4641:4772   */\n      tag_126\n      jump\t// in\n    tag_162:\n        /* \"#utility.yul\":4633:4772   */\n      swap1\n      pop\n        /* \"#utility.yul\":4360:4779   */\n      swap2\n      swap1\n      pop\n      jump\t// out\n        /* \"#utility.yul\":4785:5204   */\n    tag_81:\n        /* \"#utility.yul\":4951:4955   */\n      0x00\n        /* \"#utility.yul\":4989:4991   */\n      0x20\n        /* \"#utility.yul\":4978:4987   */\n      dup3\n        /* \"#utility.yul\":4974:4992   */\n      add\n        /* \"#utility.yul\":4966:4992   */\n      swap1\n      pop\n        /* \"#utility.yul\":5038:5047   */\n      dup2\n        /* \"#utility.yul\":5032:5036   */\n      dup2\n        /* \"#utility.yul\":5028:5048   */\n      sub\n        /* \"#utility.yul\":5024:5025   */\n      0x00\n        /* \"#utility.yul\":5013:5022   */\n      dup4\n        /* \"#utility.yul\":5009:5026   */\n      add\n        /* \"#utility.yul\":5002:5049   */\n      mstore\n        /* \"#utility.yul\":5066:5197   */\n      tag_164\n        /* \"#utility.yul\":5192:5196   */\n      dup2\n        /* \"#utility.yul\":5066:5197   */\n      tag_131\n      jump\t// in\n    tag_164:\n        /* \"#utility.yul\":5058:5197   */\n      swap1\n      pop\n        /* \"#utility.yul\":4785:5204   */\n      swap2\n      swap1\n      pop\n      jump\t// out\n        /* \"#utility.yul\":5210:5849   */\n    tag_77:\n        /* \"#utility.yul\":5432:5436   */\n      0x00\n        /* \"#utility.yul\":5470:5472   */\n      0x60\n        /* \"#utility.yul\":5459:5468   */\n      dup3\n        /* \"#utility.yul\":5455:5473   */\n      add\n        /* \"#utility.yul\":5447:5473   */\n      swap1\n      pop\n        /* \"#utility.yul\":5519:5528   */\n      dup2\n        /* \"#utility.yul\":5513:5517   */\n      dup2\n        /* \"#utility.yul\":5509:5529   */\n      sub\n        /* \"#utility.yul\":5505:5506   */\n      0x00\n        /* \"#utility.yul\":5494:5503   */\n      dup4\n        /* \"#utility.yul\":5490:5507   */\n      add\n        /* \"#utility.yul\":5483:5530   */\n      mstore\n        /* \"#utility.yul\":5547:5678   */\n      tag_166\n        /* \"#utility.yul\":5673:5677   */\n      dup2\n        /* \"#utility.yul\":5547:5678   */\n      tag_136\n      jump\t// in\n    tag_166:\n        /* \"#utility.yul\":5539:5678   */\n      swap1\n      pop\n        /* \"#utility.yul\":5688:5760   */\n      tag_167\n        /* \"#utility.yul\":5756:5758   */\n      0x20\n        /* \"#utility.yul\":5745:5754   */\n      dup4\n        /* \"#utility.yul\":5741:5759   */\n      add\n        /* \"#utility.yul\":5732:5738   */\n      dup6\n        /* \"#utility.yul\":5688:5760   */\n      tag_112\n      jump\t// in\n    tag_167:\n        /* \"#utility.yul\":5770:5842   */\n      tag_168\n        /* \"#utility.yul\":5838:5840   */\n      0x40\n        /* \"#utility.yul\":5827:5836   */\n      dup4\n        /* \"#utility.yul\":5823:5841   */\n      add\n        /* \"#utility.yul\":5814:5820   */\n      dup5\n        /* \"#utility.yul\":5770:5842   */\n      tag_151\n      jump\t// in\n    tag_168:\n        /* \"#utility.yul\":5210:5849   */\n      swap4\n      swap3\n      pop\n      pop\n      pop\n      jump\t// out\n        /* \"#utility.yul\":5855:6494   */\n    tag_88:\n        /* \"#utility.yul\":6077:6081   */\n      0x00\n        /* \"#utility.yul\":6115:6117   */\n      0x60\n        /* \"#utility.yul\":6104:6113   */\n      dup3\n        /* \"#utility.yul\":6100:6118   */\n      add\n        /* \"#utility.yul\":6092:6118   */\n      swap1\n      pop\n        /* \"#utility.yul\":6164:6173   */\n      dup2\n        /* \"#utility.yul\":6158:6162   */\n      dup2\n        /* \"#utility.yul\":6154:6174   */\n      sub\n        /* \"#utility.yul\":6150:6151   */\n      0x00\n        /* \"#utility.yul\":6139:6148   */\n      dup4\n        /* \"#utility.yul\":6135:6152   */\n      add\n        /* \"#utility.yul\":6128:6175   */\n      mstore\n        /* \"#utility.yul\":6192:6323   */\n      tag_170\n        /* \"#utility.yul\":6318:6322   */\n      dup2\n        /* \"#utility.yul\":6192:6323   */\n      tag_141\n      jump\t// in\n    tag_170:\n        /* \"#utility.yul\":6184:6323   */\n      swap1\n      pop\n        /* \"#utility.yul\":6333:6405   */\n      tag_171\n        /* \"#utility.yul\":6401:6403   */\n      0x20\n        /* \"#utility.yul\":6390:6399   */\n      dup4\n        /* \"#utility.yul\":6386:6404   */\n      add\n        /* \"#utility.yul\":6377:6383   */\n      dup6\n        /* \"#utility.yul\":6333:6405   */\n      tag_112\n      jump\t// in\n    tag_171:\n        /* \"#utility.yul\":6415:6487   */\n      tag_172\n        /* \"#utility.yul\":6483:6485   */\n      0x40\n        /* \"#utility.yul\":6472:6481   */\n      dup4\n        /* \"#utility.yul\":6468:6486   */\n      add\n        /* \"#utility.yul\":6459:6465   */\n      dup5\n        /* \"#utility.yul\":6415:6487   */\n      tag_151\n      jump\t// in\n    tag_172:\n        /* \"#utility.yul\":5855:6494   */\n      swap4\n      swap3\n      pop\n      pop\n      pop\n      jump\t// out\n        /* \"#utility.yul\":6500:6919   */\n    tag_72:\n        /* \"#utility.yul\":6666:6670   */\n      0x00\n        /* \"#utility.yul\":6704:6706   */\n      0x20\n        /* \"#utility.yul\":6693:6702   */\n      dup3\n        /* \"#utility.yul\":6689:6707   */\n      add\n        /* \"#utility.yul\":6681:6707   */\n      swap1\n      pop\n        /* \"#utility.yul\":6753:6762   */\n      dup2\n        /* \"#utility.yul\":6747:6751   */\n      dup2\n        /* \"#utility.yul\":6743:6763   */\n      sub\n        /* \"#utility.yul\":6739:6740   */\n      0x00\n        /* \"#utility.yul\":6728:6737   */\n      dup4\n        /* \"#utility.yul\":6724:6741   */\n      add\n        /* \"#utility.yul\":6717:6764   */\n      mstore\n        /* \"#utility.yul\":6781:6912   */\n      tag_174\n        /* \"#utility.yul\":6907:6911   */\n      dup2\n        /* \"#utility.yul\":6781:6912   */\n      tag_146\n      jump\t// in\n    tag_174:\n        /* \"#utility.yul\":6773:6912   */\n      swap1\n      pop\n        /* \"#utility.yul\":6500:6919   */\n      swap2\n      swap1\n      pop\n      jump\t// out\n        /* \"#utility.yul\":6925:7147   */\n    tag_18:\n        /* \"#utility.yul\":7018:7022   */\n      0x00\n        /* \"#utility.yul\":7056:7058   */\n      0x20\n        /* \"#utility.yul\":7045:7054   */\n      dup3\n        /* \"#utility.yul\":7041:7059   */\n      add\n        /* \"#utility.yul\":7033:7059   */\n      swap1\n      pop\n        /* \"#utility.yul\":7069:7140   */\n      tag_176\n        /* \"#utility.yul\":7137:7138   */\n      0x00\n        /* \"#utility.yul\":7126:7135   */\n      dup4\n        /* \"#utility.yul\":7122:7139   */\n      add\n        /* \"#utility.yul\":7113:7119   */\n      dup5\n        /* \"#utility.yul\":7069:7140   */\n      tag_151\n      jump\t// in\n    tag_176:\n        /* \"#utility.yul\":6925:7147   */\n      swap3\n      swap2\n      pop\n      pop\n      jump\t// out\n        /* \"#utility.yul\":7153:7367   */\n    tag_22:\n        /* \"#utility.yul\":7242:7246   */\n      0x00\n        /* \"#utility.yul\":7280:7282   */\n      0x20\n        /* \"#utility.yul\":7269:7278   */\n      dup3\n        /* \"#utility.yul\":7265:7283   */\n      add\n        /* \"#utility.yul\":7257:7283   */\n      swap1\n      pop\n        /* \"#utility.yul\":7293:7360   */\n      tag_178\n        /* \"#utility.yul\":7357:7358   */\n      0x00\n        /* \"#utility.yul\":7346:7355   */\n      dup4\n        /* \"#utility.yul\":7342:7359   */\n      add\n        /* \"#utility.yul\":7333:7339   */\n      dup5\n        /* \"#utility.yul\":7293:7360   */\n      tag_155\n      jump\t// in\n    tag_178:\n        /* \"#utility.yul\":7153:7367   */\n      swap3\n      swap2\n      pop\n      pop\n      jump\t// out\n        /* \"#utility.yul\":7454:7553   */\n    tag_119:\n        /* \"#utility.yul\":7506:7512   */\n      0x00\n        /* \"#utility.yul\":7540:7545   */\n      dup2\n        /* \"#utility.yul\":7534:7546   */\n      mload\n        /* \"#utility.yul\":7524:7546   */\n      swap1\n      pop\n        /* \"#utility.yul\":7454:7553   */\n      swap2\n      swap1\n      pop\n      jump\t// out\n        /* \"#utility.yul\":7559:7728   */\n    tag_121:\n        /* \"#utility.yul\":7643:7654   */\n      0x00\n        /* \"#utility.yul\":7677:7683   */\n      dup3\n        /* \"#utility.yul\":7672:7675   */\n      dup3\n        /* \"#utility.yul\":7665:7684   */\n      mstore\n        /* \"#utility.yul\":7717:7721   */\n      0x20\n        /* \"#utility.yul\":7712:7715   */\n      dup3\n        /* \"#utility.yul\":7708:7722   */\n      add\n        /* \"#utility.yul\":7693:7722   */\n      swap1\n      pop\n        /* \"#utility.yul\":7559:7728   */\n      swap3\n      swap2\n      pop\n      pop\n      jump\t// out\n        /* \"#utility.yul\":7734:8039   */\n    tag_74:\n        /* \"#utility.yul\":7774:7777   */\n      0x00\n        /* \"#utility.yul\":7793:7813   */\n      tag_184\n        /* \"#utility.yul\":7811:7812   */\n      dup3\n        /* \"#utility.yul\":7793:7813   */\n      tag_154\n      jump\t// in\n    tag_184:\n        /* \"#utility.yul\":7788:7813   */\n      swap2\n      pop\n        /* \"#utility.yul\":7827:7847   */\n      tag_185\n        /* \"#utility.yul\":7845:7846   */\n      dup4\n        /* \"#utility.yul\":7827:7847   */\n      tag_154\n      jump\t// in\n    tag_185:\n        /* \"#utility.yul\":7822:7847   */\n      swap3\n      pop\n        /* \"#utility.yul\":7981:7982   */\n      dup3\n        /* \"#utility.yul\":7913:7979   */\n      0xffffffffffffffffffffffffffffffffffffffffffffffffffffffffffffffff\n        /* \"#utility.yul\":7909:7983   */\n      sub\n        /* \"#utility.yul\":7906:7907   */\n      dup3\n        /* \"#utility.yul\":7903:7984   */\n      gt\n        /* \"#utility.yul\":7900:8007   */\n      iszero\n      tag_186\n      jumpi\n        /* \"#utility.yul\":7987:8005   */\n      tag_187\n      tag_188\n      jump\t// in\n    tag_187:\n        /* \"#utility.yul\":7900:8007   */\n    tag_186:\n        /* \"#utility.yul\":8031:8032   */\n      dup3\n        /* \"#utility.yul\":8028:8029   */\n      dup3\n        /* \"#utility.yul\":8024:8033   */\n      add\n        /* \"#utility.yul\":8017:8033   */\n      swap1\n      pop\n        /* \"#utility.yul\":7734:8039   */\n      swap3\n      swap2\n      pop\n      pop\n      jump\t// out\n        /* \"#utility.yul\":8045:8236   */\n    tag_86:\n        /* \"#utility.yul\":8085:8089   */\n      0x00\n        /* \"#utility.yul\":8105:8125   */\n      tag_190\n        /* \"#utility.yul\":8123:8124   */\n      dup3\n        /* \"#utility.yul\":8105:8125   */\n      tag_154\n      jump\t// in\n    tag_190:\n        /* \"#utility.yul\":8100:8125   */\n      swap2\n      pop\n        /* \"#utility.yul\":8139:8159   */\n      tag_191\n        /* \"#utility.yul\":8157:8158   */\n      dup4\n        /* \"#utility.yul\":8139:8159   */\n      tag_154\n      jump\t// in\n    tag_191:\n        /* \"#utility.yul\":8134:8159   */\n      swap3\n      pop\n        /* \"#utility.yul\":8178:8179   */\n      dup3\n        /* \"#utility.yul\":8175:8176   */\n      dup3\n        /* \"#utility.yul\":8172:8180   */\n      lt\n        /* \"#utility.yul\":8169:8203   */\n      iszero\n      tag_192\n      jumpi\n        /* \"#utility.yul\":8183:8201   */\n      tag_193\n      tag_188\n      jump\t// in\n    tag_193:\n        /* \"#utility.yul\":8169:8203   */\n    tag_192:\n        /* \"#utility.yul\":8228:8229   */\n      dup3\n        /* \"#utility.yul\":8225:8226   */\n      dup3\n        /* \"#utility.yul\":8221:8230   */\n      sub\n        /* \"#utility.yul\":8213:8230   */\n      swap1\n      pop\n        /* \"#utility.yul\":8045:8236   */\n      swap3\n      swap2\n      pop\n      pop\n      jump\t// out\n        /* \"#utility.yul\":8242:8338   */\n    tag_115:\n        /* \"#utility.yul\":8279:8286   */\n      0x00\n        /* \"#utility.yul\":8308:8332   */\n      tag_195\n        /* \"#utility.yul\":8326:8331   */\n      dup3\n        /* \"#utility.yul\":8308:8332   */\n      tag_196\n      jump\t// in\n    tag_195:\n        /* \"#utility.yul\":8297:8332   */\n      swap1\n      pop\n        /* \"#utility.yul\":8242:8338   */\n      swap2\n      swap1\n      pop\n      jump\t// out\n        /* \"#utility.yul\":8344:8470   */\n    tag_196:\n        /* \"#utility.yul\":8381:8388   */\n      0x00\n        /* \"#utility.yul\":8421:8463   */\n      0xffffffffffffffffffffffffffffffffffffffff\n        /* \"#utility.yul\":8414:8419   */\n      dup3\n        /* \"#utility.yul\":8410:8464   */\n      and\n        /* \"#utility.yul\":8399:8464   */\n      swap1\n      pop\n        /* \"#utility.yul\":8344:8470   */\n      swap2\n      swap1\n      pop\n      jump\t// out\n        /* \"#utility.yul\":8476:8553   */\n    tag_154:\n        /* \"#utility.yul\":8513:8520   */\n      0x00\n        /* \"#utility.yul\":8542:8547   */\n      dup2\n        /* \"#utility.yul\":8531:8547   */\n      swap1\n      pop\n        /* \"#utility.yul\":8476:8553   */\n      swap2\n      swap1\n      pop\n      jump\t// out\n        /* \"#utility.yul\":8559:8645   */\n    tag_158:\n        /* \"#utility.yul\":8594:8601   */\n      0x00\n        /* \"#utility.yul\":8634:8638   */\n      0xff\n        /* \"#utility.yul\":8627:8632   */\n      dup3\n        /* \"#utility.yul\":8623:8639   */\n      and\n        /* \"#utility.yul\":8612:8639   */\n      swap1\n      pop\n        /* \"#utility.yul\":8559:8645   */\n      swap2\n      swap1\n      pop\n      jump\t// out\n        /* \"#utility.yul\":8651:8958   */\n    tag_123:\n        /* \"#utility.yul\":8719:8720   */\n      0x00\n        /* \"#utility.yul\":8729:8842   */\n    tag_201:\n        /* \"#utility.yul\":8743:8749   */\n      dup4\n        /* \"#utility.yul\":8740:8741   */\n      dup2\n        /* \"#utility.yul\":8737:8750   */\n      lt\n        /* \"#utility.yul\":8729:8842   */\n      iszero\n      tag_203\n      jumpi\n        /* \"#utility.yul\":8828:8829   */\n      dup1\n        /* \"#utility.yul\":8823:8826   */\n      dup3\n        /* \"#utility.yul\":8819:8830   */\n      add\n        /* \"#utility.yul\":8813:8831   */\n      mload\n        /* \"#utility.yul\":8809:8810   */\n      dup2\n        /* \"#utility.yul\":8804:8807   */\n      dup5\n        /* \"#utility.yul\":8800:8811   */\n      add\n        /* \"#utility.yul\":8793:8832   */\n      mstore\n        /* \"#utility.yul\":8765:8767   */\n      0x20\n        /* \"#utility.yul\":8762:8763   */\n      dup2\n        /* \"#utility.yul\":8758:8768   */\n      add\n        /* \"#utility.yul\":8753:8768   */\n      swap1\n      pop\n        /* \"#utility.yul\":8729:8842   */\n      jump(tag_201)\n    tag_203:\n        /* \"#utility.yul\":8860:8866   */\n      dup4\n        /* \"#utility.yul\":8857:8858   */\n      dup2\n        /* \"#utility.yul\":8854:8867   */\n      gt\n        /* \"#utility.yul\":8851:8952   */\n      iszero\n      tag_204\n      jumpi\n        /* \"#utility.yul\":8940:8941   */\n      0x00\n        /* \"#utility.yul\":8931:8937   */\n      dup5\n        /* \"#utility.yul\":8926:8929   */\n      dup5\n        /* \"#utility.yul\":8922:8938   */\n      add\n        /* \"#utility.yul\":8915:8942   */\n      mstore\n        /* \"#utility.yul\":8851:8952   */\n    tag_204:\n        /* \"#utility.yul\":8700:8958   */\n      pop\n        /* \"#utility.yul\":8651:8958   */\n      pop\n      pop\n      pop\n      jump\t// out\n        /* \"#utility.yul\":8964:9284   */\n    tag_41:\n        /* \"#utility.yul\":9008:9014   */\n      0x00\n        /* \"#utility.yul\":9045:9046   */\n      0x02\n        /* \"#utility.yul\":9039:9043   */\n      dup3\n        /* \"#utility.yul\":9035:9047   */\n      div\n        /* \"#utility.yul\":9025:9047   */\n      swap1\n      pop\n        /* \"#utility.yul\":9092:9093   */\n      0x01\n        /* \"#utility.yul\":9086:9090   */\n      dup3\n        /* \"#utility.yul\":9082:9094   */\n      and\n        /* \"#utility.yul\":9113:9131   */\n      dup1\n        /* \"#utility.yul\":9103:9184   */\n      tag_206\n      jumpi\n        /* \"#utility.yul\":9169:9173   */\n      0x7f\n        /* \"#utility.yul\":9161:9167   */\n      dup3\n        /* \"#utility.yul\":9157:9174   */\n      and\n        /* \"#utility.yul\":9147:9174   */\n      swap2\n      pop\n        /* \"#utility.yul\":9103:9184   */\n    tag_206:\n        /* \"#utility.yul\":9231:9233   */\n      0x20\n        /* \"#utility.yul\":9223:9229   */\n      dup3\n        /* \"#utility.yul\":9220:9234   */\n      lt\n        /* \"#utility.yul\":9200:9218   */\n      dup2\n        /* \"#utility.yul\":9197:9235   */\n      eq\n        /* \"#utility.yul\":9194:9278   */\n      iszero\n      tag_207\n      jumpi\n        /* \"#utility.yul\":9250:9268   */\n      tag_208\n      tag_209\n      jump\t// in\n    tag_208:\n        /* \"#utility.yul\":9194:9278   */\n    tag_207:\n        /* \"#utility.yul\":9015:9284   */\n      pop\n        /* \"#utility.yul\":8964:9284   */\n      swap2\n      swap1\n      pop\n      jump\t// out\n        /* \"#utility.yul\":9290:9470   */\n    tag_188:\n        /* \"#utility.yul\":9338:9415   */\n      0x4e487b7100000000000000000000000000000000000000000000000000000000\n        /* \"#utility.yul\":9335:9336   */\n      0x00\n        /* \"#utility.yul\":9328:9416   */\n      mstore\n        /* \"#utility.yul\":9435:9439   */\n      0x11\n        /* \"#utility.yul\":9432:9433   */\n      0x04\n        /* \"#utility.yul\":9425:9440   */\n      mstore\n        /* \"#utility.yul\":9459:9463   */\n      0x24\n        /* \"#utility.yul\":9456:9457   */\n      0x00\n        /* \"#utility.yul\":9449:9464   */\n      revert\n        /* \"#utility.yul\":9476:9656   */\n    tag_209:\n        /* \"#utility.yul\":9524:9601   */\n      0x4e487b7100000000000000000000000000000000000000000000000000000000\n        /* \"#utility.yul\":9521:9522   */\n      0x00\n        /* \"#utility.yul\":9514:9602   */\n      mstore\n        /* \"#utility.yul\":9621:9625   */\n      0x22\n        /* \"#utility.yul\":9618:9619   */\n      0x04\n        /* \"#utility.yul\":9611:9626   */\n      mstore\n        /* \"#utility.yul\":9645:9649   */\n      0x24\n        /* \"#utility.yul\":9642:9643   */\n      0x00\n        /* \"#utility.yul\":9635:9650   */\n      revert\n        /* \"#utility.yul\":9785:9902   */\n    tag_101:\n        /* \"#utility.yul\":9894:9895   */\n      0x00\n        /* \"#utility.yul\":9891:9892   */\n      dup1\n        /* \"#utility.yul\":9884:9896   */\n      revert\n        /* \"#utility.yul\":9908:10010   */\n    tag_125:\n        /* \"#utility.yul\":9949:9955   */\n      0x00\n        /* \"#utility.yul\":10000:10002   */\n      0x1f\n        /* \"#utility.yul\":9996:10003   */\n      not\n        /* \"#utility.yul\":9991:9993   */\n      0x1f\n        /* \"#utility.yul\":9984:9989   */\n      dup4\n        /* \"#utility.yul\":9980:9994   */\n      add\n        /* \"#utility.yul\":9976:10004   */\n      and\n        /* \"#utility.yul\":9966:10004   */\n      swap1\n      pop\n        /* \"#utility.yul\":9908:10010   */\n      swap2\n      swap1\n      pop\n      jump\t// out\n        /* \"#utility.yul\":10016:10237   */\n    tag_130:\n        /* \"#utility.yul\":10156:10190   */\n      0x45524332303a206275726e20616d6f756e7420657863656564732062616c616e\n        /* \"#utility.yul\":10152:10153   */\n      0x00\n        /* \"#utility.yul\":10144:10150   */\n      dup3\n        /* \"#utility.yul\":10140:10154   */\n      add\n        /* \"#utility.yul\":10133:10191   */\n      mstore\n        /* \"#utility.yul\":10225:10229   */\n      0x6365000000000000000000000000000000000000000000000000000000000000\n        /* \"#utility.yul\":10220:10222   */\n      0x20\n        /* \"#utility.yul\":10212:10218   */\n      dup3\n        /* \"#utility.yul\":10208:10223   */\n      add\n        /* \"#utility.yul\":10201:10230   */\n      mstore\n        /* \"#utility.yul\":10016:10237   */\n      pop\n      jump\t// out\n        /* \"#utility.yul\":10243:10463   */\n    tag_135:\n        /* \"#utility.yul\":10383:10417   */\n      0x45524332303a206275726e2066726f6d20746865207a65726f20616464726573\n        /* \"#utility.yul\":10379:10380   */\n      0x00\n        /* \"#utility.yul\":10371:10377   */\n      dup3\n        /* \"#utility.yul\":10367:10381   */\n      add\n        /* \"#utility.yul\":10360:10418   */\n      mstore\n        /* \"#utility.yul\":10452:10455   */\n      0x7300000000000000000000000000000000000000000000000000000000000000\n        /* \"#utility.yul\":10447:10449   */\n      0x20\n        /* \"#utility.yul\":10439:10445   */\n      dup3\n        /* \"#utility.yul\":10435:10450   */\n      add\n        /* \"#utility.yul\":10428:10456   */\n      mstore\n        /* \"#utility.yul\":10243:10463   */\n      pop\n      jump\t// out\n        /* \"#utility.yul\":10469:10623   */\n    tag_140:\n        /* \"#utility.yul\":10609:10615   */\n      0x6d696e7400000000000000000000000000000000000000000000000000000000\n        /* \"#utility.yul\":10605:10606   */\n      0x00\n        /* \"#utility.yul\":10597:10603   */\n      dup3\n        /* \"#utility.yul\":10593:10607   */\n      add\n        /* \"#utility.yul\":10586:10616   */\n      mstore\n        /* \"#utility.yul\":10469:10623   */\n      pop\n      jump\t// out\n        /* \"#utility.yul\":10629:10783   */\n    tag_145:\n        /* \"#utility.yul\":10769:10775   */\n      0x6275726e00000000000000000000000000000000000000000000000000000000\n        /* \"#utility.yul\":10765:10766   */\n      0x00\n        /* \"#utility.yul\":10757:10763   */\n      dup3\n        /* \"#utility.yul\":10753:10767   */\n      add\n        /* \"#utility.yul\":10746:10776   */\n      mstore\n        /* \"#utility.yul\":10629:10783   */\n      pop\n      jump\t// out\n        /* \"#utility.yul\":10789:10970   */\n    tag_150:\n        /* \"#utility.yul\":10929:10962   */\n      0x45524332303a206d696e7420746f20746865207a65726f206164647265737300\n        /* \"#utility.yul\":10925:10926   */\n      0x00\n        /* \"#utility.yul\":10917:10923   */\n      dup3\n        /* \"#utility.yul\":10913:10927   */\n      add\n        /* \"#utility.yul\":10906:10963   */\n      mstore\n        /* \"#utility.yul\":10789:10970   */\n      pop\n      jump\t// out\n        /* \"#utility.yul\":10976:11098   */\n    tag_93:\n        /* \"#utility.yul\":11049:11073   */\n      tag_222\n        /* \"#utility.yul\":11067:11072   */\n      dup2\n        /* \"#utility.yul\":11049:11073   */\n      tag_115\n      jump\t// in\n    tag_222:\n        /* \"#utility.yul\":11042:11047   */\n      dup2\n        /* \"#utility.yul\":11039:11074   */\n      eq\n        /* \"#utility.yul\":11029:11092   */\n      tag_223\n      jumpi\n        /* \"#utility.yul\":11088:11089   */\n      0x00\n        /* \"#utility.yul\":11085:11086   */\n      dup1\n        /* \"#utility.yul\":11078:11090   */\n      revert\n        /* \"#utility.yul\":11029:11092   */\n    tag_223:\n        /* \"#utility.yul\":10976:11098   */\n      pop\n      jump\t// out\n        /* \"#utility.yul\":11104:11226   */\n    tag_97:\n        /* \"#utility.yul\":11177:11201   */\n      tag_225\n        /* \"#utility.yul\":11195:11200   */\n      dup2\n        /* \"#utility.yul\":11177:11201   */\n      tag_154\n      jump\t// in\n    tag_225:\n        /* \"#utility.yul\":11170:11175   */\n      dup2\n        /* \"#utility.yul\":11167:11202   */\n      eq\n        /* \"#utility.yul\":11157:11220   */\n      tag_226\n      jumpi\n        /* \"#utility.yul\":11216:11217   */\n      0x00\n        /* \"#utility.yul\":11213:11214   */\n      dup1\n        /* \"#utility.yul\":11206:11218   */\n      revert\n        /* \"#utility.yul\":11157:11220   */\n    tag_226:\n        /* \"#utility.yul\":11104:11226   */\n      pop\n      jump\t// out\n\n    auxdata: 0xa264697066735822122069d7753fe13d55e525d525e06bf2ad71bb32ef12ea11e8edb0da4ab8949344e364736f6c63430008070033\n}\n",
				"bytecode": {
					"linkReferences": {},
					"object": "60806040523480156200001157600080fd5b506040518060400160405280600c81526020017f51566f74696e67546f6b656e00000000000000000000000000000000000000008152506040518060400160405280600281526020017f5176000000000000000000000000000000000000000000000000000000000000815250816002908051906020019062000096929190620000f9565b508060039080519060200190620000af929190620000f9565b50505033600460006101000a81548173ffffffffffffffffffffffffffffffffffffffff021916908373ffffffffffffffffffffffffffffffffffffffff1602179055506200020e565b8280546200010790620001a9565b90600052602060002090601f0160209004810192826200012b576000855562000177565b82601f106200014657805160ff191683800117855562000177565b8280016001018555821562000177579182015b828111156200017657825182559160200191906001019062000159565b5b5090506200018691906200018a565b5090565b5b80821115620001a55760008160009055506001016200018b565b5090565b60006002820490506001821680620001c257607f821691505b60208210811415620001d957620001d8620001df565b5b50919050565b7f4e487b7100000000000000000000000000000000000000000000000000000000600052602260045260246000fd5b610cc5806200021e6000396000f3fe608060405234801561001057600080fd5b506004361061007d5760003560e01c806340c10f191161005b57806340c10f19146100dc57806342966c68146100f857806370a082311461011457806395d89b41146101445761007d565b806306fdde031461008257806318160ddd146100a0578063313ce567146100be575b600080fd5b61008a610162565b6040516100979190610850565b60405180910390f35b6100a86101f4565b6040516100b5919061094a565b60405180910390f35b6100c66101fe565b6040516100d39190610965565b60405180910390f35b6100f660048036038101906100f191906106ce565b610207565b005b610112600480360381019061010d919061070e565b610278565b005b61012e600480360381019061012991906106a1565b6102e8565b60405161013b919061094a565b60405180910390f35b61014c610330565b6040516101599190610850565b60405180910390f35b60606002805461017190610aa2565b80601f016020809104026020016040519081016040528092919081815260200182805461019d90610aa2565b80156101ea5780601f106101bf576101008083540402835291602001916101ea565b820191906000526020600020905b8154815290600101906020018083116101cd57829003601f168201915b5050505050905090565b6000600154905090565b60006012905090565b61020f6103c2565b8073ffffffffffffffffffffffffffffffffffffffff16600460009054906101000a900473ffffffffffffffffffffffffffffffffffffffff1673ffffffffffffffffffffffffffffffffffffffff161461026957600080fd5b61027383836103ca565b505050565b6102806103c2565b8073ffffffffffffffffffffffffffffffffffffffff16600460009054906101000a900473ffffffffffffffffffffffffffffffffffffffff1673ffffffffffffffffffffffffffffffffffffffff16146102da57600080fd5b6102e433836104e5565b5050565b60008060008373ffffffffffffffffffffffffffffffffffffffff1673ffffffffffffffffffffffffffffffffffffffff168152602001908152602001600020549050919050565b60606003805461033f90610aa2565b80601f016020809104026020016040519081016040528092919081815260200182805461036b90610aa2565b80156103b85780601f1061038d576101008083540402835291602001916103b8565b820191906000526020600020905b81548152906001019060200180831161039b57829003601f168201915b5050505050905090565b600033905090565b600073ffffffffffffffffffffffffffffffffffffffff168273ffffffffffffffffffffffffffffffffffffffff16141561043a576040517f08c379a00000000000000000000000000000000000000000000000000000000081526004016104319061092a565b60405180910390fd5b806001600082825461044c919061099c565b92505081905550806000808473ffffffffffffffffffffffffffffffffffffffff1673ffffffffffffffffffffffffffffffffffffffff16815260200190815260200160002060008282546104a1919061099c565b925050819055507fabf5327be9f5825c40d58bda541dd07f09b62df3376bbd5ecdbaa8bd82a9d49282826040516104d99291906108b2565b60405180910390a15050565b600073ffffffffffffffffffffffffffffffffffffffff168273ffffffffffffffffffffffffffffffffffffffff161415610555576040517f08c379a000000000000000000000000000000000000000000000000000000000815260040161054c90610892565b60405180910390fd5b60008060008473ffffffffffffffffffffffffffffffffffffffff1673ffffffffffffffffffffffffffffffffffffffff168152602001908152602001600020549050818110156105db576040517f08c379a00000000000000000000000000000000000000000000000000000000081526004016105d290610872565b60405180910390fd5b8181036000808573ffffffffffffffffffffffffffffffffffffffff1673ffffffffffffffffffffffffffffffffffffffff16815260200190815260200160002081905550816001600082825461063291906109f2565b925050819055507fabf5327be9f5825c40d58bda541dd07f09b62df3376bbd5ecdbaa8bd82a9d492838360405161066a9291906108ee565b60405180910390a1505050565b60008135905061068681610c61565b92915050565b60008135905061069b81610c78565b92915050565b6000602082840312156106b7576106b6610b32565b5b60006106c584828501610677565b91505092915050565b600080604083850312156106e5576106e4610b32565b5b60006106f385828601610677565b92505060206107048582860161068c565b9150509250929050565b60006020828403121561072457610723610b32565b5b60006107328482850161068c565b91505092915050565b61074481610a26565b82525050565b600061075582610980565b61075f818561098b565b935061076f818560208601610a6f565b61077881610b37565b840191505092915050565b600061079060228361098b565b915061079b82610b48565b604082019050919050565b60006107b360218361098b565b91506107be82610b97565b604082019050919050565b60006107d660048361098b565b91506107e182610be6565b602082019050919050565b60006107f960048361098b565b915061080482610c0f565b602082019050919050565b600061081c601f8361098b565b915061082782610c38565b602082019050919050565b61083b81610a58565b82525050565b61084a81610a62565b82525050565b6000602082019050818103600083015261086a818461074a565b905092915050565b6000602082019050818103600083015261088b81610783565b9050919050565b600060208201905081810360008301526108ab816107a6565b9050919050565b600060608201905081810360008301526108cb816107c9565b90506108da602083018561073b565b6108e76040830184610832565b9392505050565b60006060820190508181036000830152610907816107ec565b9050610916602083018561073b565b6109236040830184610832565b9392505050565b600060208201905081810360008301526109438161080f565b9050919050565b600060208201905061095f6000830184610832565b92915050565b600060208201905061097a6000830184610841565b92915050565b600081519050919050565b600082825260208201905092915050565b60006109a782610a58565b91506109b283610a58565b9250827fffffffffffffffffffffffffffffffffffffffffffffffffffffffffffffffff038211156109e7576109e6610ad4565b5b828201905092915050565b60006109fd82610a58565b9150610a0883610a58565b925082821015610a1b57610a1a610ad4565b5b828203905092915050565b6000610a3182610a38565b9050919050565b600073ffffffffffffffffffffffffffffffffffffffff82169050919050565b6000819050919050565b600060ff82169050919050565b60005b83811015610a8d578082015181840152602081019050610a72565b83811115610a9c576000848401525b50505050565b60006002820490506001821680610aba57607f821691505b60208210811415610ace57610acd610b03565b5b50919050565b7f4e487b7100000000000000000000000000000000000000000000000000000000600052601160045260246000fd5b7f4e487b7100000000000000000000000000000000000000000000000000000000600052602260045260246000fd5b600080fd5b6000601f19601f8301169050919050565b7f45524332303a206275726e20616d6f756e7420657863656564732062616c616e60008201527f6365000000000000000000000000000000000000000000000000000000000000602082015250565b7f45524332303a206275726e2066726f6d20746865207a65726f2061646472657360008201527f7300000000000000000000000000000000000000000000000000000000000000602082015250565b7f6d696e7400000000000000000000000000000000000000000000000000000000600082015250565b7f6275726e00000000000000000000000000000000000000000000000000000000600082015250565b7f45524332303a206d696e7420746f20746865207a65726f206164647265737300600082015250565b610c6a81610a26565b8114610c7557600080fd5b50565b610c8181610a58565b8114610c8c57600080fd5b5056fea264697066735822122069d7753fe13d55e525d525e06bf2ad71bb32ef12ea11e8edb0da4ab8949344e364736f6c63430008070033",
					"opcodes": "PUSH1 0x80 PUSH1 0x40 MSTORE CALLVALUE DUP1 ISZERO PUSH3 0x11 JUMPI PUSH1 0x0 DUP1 REVERT JUMPDEST POP PUSH1 0x40 MLOAD DUP1 PUSH1 0x40 ADD PUSH1 0x40 MSTORE DUP1 PUSH1 0xC DUP2 MSTORE PUSH1 0x20 ADD PUSH32 0x51566F74696E67546F6B656E0000000000000000000000000000000000000000 DUP2 MSTORE POP PUSH1 0x40 MLOAD DUP1 PUSH1 0x40 ADD PUSH1 0x40 MSTORE DUP1 PUSH1 0x2 DUP2 MSTORE PUSH1 0x20 ADD PUSH32 0x5176000000000000000000000000000000000000000000000000000000000000 DUP2 MSTORE POP DUP2 PUSH1 0x2 SWAP1 DUP1 MLOAD SWAP1 PUSH1 0x20 ADD SWAP1 PUSH3 0x96 SWAP3 SWAP2 SWAP1 PUSH3 0xF9 JUMP JUMPDEST POP DUP1 PUSH1 0x3 SWAP1 DUP1 MLOAD SWAP1 PUSH1 0x20 ADD SWAP1 PUSH3 0xAF SWAP3 SWAP2 SWAP1 PUSH3 0xF9 JUMP JUMPDEST POP POP POP CALLER PUSH1 0x4 PUSH1 0x0 PUSH2 0x100 EXP DUP2 SLOAD DUP2 PUSH20 0xFFFFFFFFFFFFFFFFFFFFFFFFFFFFFFFFFFFFFFFF MUL NOT AND SWAP1 DUP4 PUSH20 0xFFFFFFFFFFFFFFFFFFFFFFFFFFFFFFFFFFFFFFFF AND MUL OR SWAP1 SSTORE POP PUSH3 0x20E JUMP JUMPDEST DUP3 DUP1 SLOAD PUSH3 0x107 SWAP1 PUSH3 0x1A9 JUMP JUMPDEST SWAP1 PUSH1 0x0 MSTORE PUSH1 0x20 PUSH1 0x0 KECCAK256 SWAP1 PUSH1 0x1F ADD PUSH1 0x20 SWAP1 DIV DUP2 ADD SWAP3 DUP3 PUSH3 0x12B JUMPI PUSH1 0x0 DUP6 SSTORE PUSH3 0x177 JUMP JUMPDEST DUP3 PUSH1 0x1F LT PUSH3 0x146 JUMPI DUP1 MLOAD PUSH1 0xFF NOT AND DUP4 DUP1 ADD OR DUP6 SSTORE PUSH3 0x177 JUMP JUMPDEST DUP3 DUP1 ADD PUSH1 0x1 ADD DUP6 SSTORE DUP3 ISZERO PUSH3 0x177 JUMPI SWAP2 DUP3 ADD JUMPDEST DUP3 DUP2 GT ISZERO PUSH3 0x176 JUMPI DUP3 MLOAD DUP3 SSTORE SWAP2 PUSH1 0x20 ADD SWAP2 SWAP1 PUSH1 0x1 ADD SWAP1 PUSH3 0x159 JUMP JUMPDEST JUMPDEST POP SWAP1 POP PUSH3 0x186 SWAP2 SWAP1 PUSH3 0x18A JUMP JUMPDEST POP SWAP1 JUMP JUMPDEST JUMPDEST DUP1 DUP3 GT ISZERO PUSH3 0x1A5 JUMPI PUSH1 0x0 DUP2 PUSH1 0x0 SWAP1 SSTORE POP PUSH1 0x1 ADD PUSH3 0x18B JUMP JUMPDEST POP SWAP1 JUMP JUMPDEST PUSH1 0x0 PUSH1 0x2 DUP3 DIV SWAP1 POP PUSH1 0x1 DUP3 AND DUP1 PUSH3 0x1C2 JUMPI PUSH1 0x7F DUP3 AND SWAP2 POP JUMPDEST PUSH1 0x20 DUP3 LT DUP2 EQ ISZERO PUSH3 0x1D9 JUMPI PUSH3 0x1D8 PUSH3 0x1DF JUMP JUMPDEST JUMPDEST POP SWAP2 SWAP1 POP JUMP JUMPDEST PUSH32 0x4E487B7100000000000000000000000000000000000000000000000000000000 PUSH1 0x0 MSTORE PUSH1 0x22 PUSH1 0x4 MSTORE PUSH1 0x24 PUSH1 0x0 REVERT JUMPDEST PUSH2 0xCC5 DUP1 PUSH3 0x21E PUSH1 0x0 CODECOPY PUSH1 0x0 RETURN INVALID PUSH1 0x80 PUSH1 0x40 MSTORE CALLVALUE DUP1 ISZERO PUSH2 0x10 JUMPI PUSH1 0x0 DUP1 REVERT JUMPDEST POP PUSH1 0x4 CALLDATASIZE LT PUSH2 0x7D JUMPI PUSH1 0x0 CALLDATALOAD PUSH1 0xE0 SHR DUP1 PUSH4 0x40C10F19 GT PUSH2 0x5B JUMPI DUP1 PUSH4 0x40C10F19 EQ PUSH2 0xDC JUMPI DUP1 PUSH4 0x42966C68 EQ PUSH2 0xF8 JUMPI DUP1 PUSH4 0x70A08231 EQ PUSH2 0x114 JUMPI DUP1 PUSH4 0x95D89B41 EQ PUSH2 0x144 JUMPI PUSH2 0x7D JUMP JUMPDEST DUP1 PUSH4 0x6FDDE03 EQ PUSH2 0x82 JUMPI DUP1 PUSH4 0x18160DDD EQ PUSH2 0xA0 JUMPI DUP1 PUSH4 0x313CE567 EQ PUSH2 0xBE JUMPI JUMPDEST PUSH1 0x0 DUP1 REVERT JUMPDEST PUSH2 0x8A PUSH2 0x162 JUMP JUMPDEST PUSH1 0x40 MLOAD PUSH2 0x97 SWAP2 SWAP1 PUSH2 0x850 JUMP JUMPDEST PUSH1 0x40 MLOAD DUP1 SWAP2 SUB SWAP1 RETURN JUMPDEST PUSH2 0xA8 PUSH2 0x1F4 JUMP JUMPDEST PUSH1 0x40 MLOAD PUSH2 0xB5 SWAP2 SWAP1 PUSH2 0x94A JUMP JUMPDEST PUSH1 0x40 MLOAD DUP1 SWAP2 SUB SWAP1 RETURN JUMPDEST PUSH2 0xC6 PUSH2 0x1FE JUMP JUMPDEST PUSH1 0x40 MLOAD PUSH2 0xD3 SWAP2 SWAP1 PUSH2 0x965 JUMP JUMPDEST PUSH1 0x40 MLOAD DUP1 SWAP2 SUB SWAP1 RETURN JUMPDEST PUSH2 0xF6 PUSH1 0x4 DUP1 CALLDATASIZE SUB DUP2 ADD SWAP1 PUSH2 0xF1 SWAP2 SWAP1 PUSH2 0x6CE JUMP JUMPDEST PUSH2 0x207 JUMP JUMPDEST STOP JUMPDEST PUSH2 0x112 PUSH1 0x4 DUP1 CALLDATASIZE SUB DUP2 ADD SWAP1 PUSH2 0x10D SWAP2 SWAP1 PUSH2 0x70E JUMP JUMPDEST PUSH2 0x278 JUMP JUMPDEST STOP JUMPDEST PUSH2 0x12E PUSH1 0x4 DUP1 CALLDATASIZE SUB DUP2 ADD SWAP1 PUSH2 0x129 SWAP2 SWAP1 PUSH2 0x6A1 JUMP JUMPDEST PUSH2 0x2E8 JUMP JUMPDEST PUSH1 0x40 MLOAD PUSH2 0x13B SWAP2 SWAP1 PUSH2 0x94A JUMP JUMPDEST PUSH1 0x40 MLOAD DUP1 SWAP2 SUB SWAP1 RETURN JUMPDEST PUSH2 0x14C PUSH2 0x330 JUMP JUMPDEST PUSH1 0x40 MLOAD PUSH2 0x159 SWAP2 SWAP1 PUSH2 0x850 JUMP JUMPDEST PUSH1 0x40 MLOAD DUP1 SWAP2 SUB SWAP1 RETURN JUMPDEST PUSH1 0x60 PUSH1 0x2 DUP1 SLOAD PUSH2 0x171 SWAP1 PUSH2 0xAA2 JUMP JUMPDEST DUP1 PUSH1 0x1F ADD PUSH1 0x20 DUP1 SWAP2 DIV MUL PUSH1 0x20 ADD PUSH1 0x40 MLOAD SWAP1 DUP2 ADD PUSH1 0x40 MSTORE DUP1 SWAP3 SWAP2 SWAP1 DUP2 DUP2 MSTORE PUSH1 0x20 ADD DUP3 DUP1 SLOAD PUSH2 0x19D SWAP1 PUSH2 0xAA2 JUMP JUMPDEST DUP1 ISZERO PUSH2 0x1EA JUMPI DUP1 PUSH1 0x1F LT PUSH2 0x1BF JUMPI PUSH2 0x100 DUP1 DUP4 SLOAD DIV MUL DUP4 MSTORE SWAP2 PUSH1 0x20 ADD SWAP2 PUSH2 0x1EA JUMP JUMPDEST DUP3 ADD SWAP2 SWAP1 PUSH1 0x0 MSTORE PUSH1 0x20 PUSH1 0x0 KECCAK256 SWAP1 JUMPDEST DUP2 SLOAD DUP2 MSTORE SWAP1 PUSH1 0x1 ADD SWAP1 PUSH1 0x20 ADD DUP1 DUP4 GT PUSH2 0x1CD JUMPI DUP3 SWAP1 SUB PUSH1 0x1F AND DUP3 ADD SWAP2 JUMPDEST POP POP POP POP POP SWAP1 POP SWAP1 JUMP JUMPDEST PUSH1 0x0 PUSH1 0x1 SLOAD SWAP1 POP SWAP1 JUMP JUMPDEST PUSH1 0x0 PUSH1 0x12 SWAP1 POP SWAP1 JUMP JUMPDEST PUSH2 0x20F PUSH2 0x3C2 JUMP JUMPDEST DUP1 PUSH20 0xFFFFFFFFFFFFFFFFFFFFFFFFFFFFFFFFFFFFFFFF AND PUSH1 0x4 PUSH1 0x0 SWAP1 SLOAD SWAP1 PUSH2 0x100 EXP SWAP1 DIV PUSH20 0xFFFFFFFFFFFFFFFFFFFFFFFFFFFFFFFFFFFFFFFF AND PUSH20 0xFFFFFFFFFFFFFFFFFFFFFFFFFFFFFFFFFFFFFFFF AND EQ PUSH2 0x269 JUMPI PUSH1 0x0 DUP1 REVERT JUMPDEST PUSH2 0x273 DUP4 DUP4 PUSH2 0x3CA JUMP JUMPDEST POP POP POP JUMP JUMPDEST PUSH2 0x280 PUSH2 0x3C2 JUMP JUMPDEST DUP1 PUSH20 0xFFFFFFFFFFFFFFFFFFFFFFFFFFFFFFFFFFFFFFFF AND PUSH1 0x4 PUSH1 0x0 SWAP1 SLOAD SWAP1 PUSH2 0x100 EXP SWAP1 DIV PUSH20 0xFFFFFFFFFFFFFFFFFFFFFFFFFFFFFFFFFFFFFFFF AND PUSH20 0xFFFFFFFFFFFFFFFFFFFFFFFFFFFFFFFFFFFFFFFF AND EQ PUSH2 0x2DA JUMPI PUSH1 0x0 DUP1 REVERT JUMPDEST PUSH2 0x2E4 CALLER DUP4 PUSH2 0x4E5 JUMP JUMPDEST POP POP JUMP JUMPDEST PUSH1 0x0 DUP1 PUSH1 0x0 DUP4 PUSH20 0xFFFFFFFFFFFFFFFFFFFFFFFFFFFFFFFFFFFFFFFF AND PUSH20 0xFFFFFFFFFFFFFFFFFFFFFFFFFFFFFFFFFFFFFFFF AND DUP2 MSTORE PUSH1 0x20 ADD SWAP1 DUP2 MSTORE PUSH1 0x20 ADD PUSH1 0x0 KECCAK256 SLOAD SWAP1 POP SWAP2 SWAP1 POP JUMP JUMPDEST PUSH1 0x60 PUSH1 0x3 DUP1 SLOAD PUSH2 0x33F SWAP1 PUSH2 0xAA2 JUMP JUMPDEST DUP1 PUSH1 0x1F ADD PUSH1 0x20 DUP1 SWAP2 DIV MUL PUSH1 0x20 ADD PUSH1 0x40 MLOAD SWAP1 DUP2 ADD PUSH1 0x40 MSTORE DUP1 SWAP3 SWAP2 SWAP1 DUP2 DUP2 MSTORE PUSH1 0x20 ADD DUP3 DUP1 SLOAD PUSH2 0x36B SWAP1 PUSH2 0xAA2 JUMP JUMPDEST DUP1 ISZERO PUSH2 0x3B8 JUMPI DUP1 PUSH1 0x1F LT PUSH2 0x38D JUMPI PUSH2 0x100 DUP1 DUP4 SLOAD DIV MUL DUP4 MSTORE SWAP2 PUSH1 0x20 ADD SWAP2 PUSH2 0x3B8 JUMP JUMPDEST DUP3 ADD SWAP2 SWAP1 PUSH1 0x0 MSTORE PUSH1 0x20 PUSH1 0x0 KECCAK256 SWAP1 JUMPDEST DUP2 SLOAD DUP2 MSTORE SWAP1 PUSH1 0x1 ADD SWAP1 PUSH1 0x20 ADD DUP1 DUP4 GT PUSH2 0x39B JUMPI DUP3 SWAP1 SUB PUSH1 0x1F AND DUP3 ADD SWAP2 JUMPDEST POP POP POP POP POP SWAP1 POP SWAP1 JUMP JUMPDEST PUSH1 0x0 CALLER SWAP1 POP SWAP1 JUMP JUMPDEST PUSH1 0x0 PUSH20 0xFFFFFFFFFFFFFFFFFFFFFFFFFFFFFFFFFFFFFFFF AND DUP3 PUSH20 0xFFFFFFFFFFFFFFFFFFFFFFFFFFFFFFFFFFFFFFFF AND EQ ISZERO PUSH2 0x43A JUMPI PUSH1 0x40 MLOAD PUSH32 0x8C379A000000000000000000000000000000000000000000000000000000000 DUP2 MSTORE PUSH1 0x4 ADD PUSH2 0x431 SWAP1 PUSH2 0x92A JUMP JUMPDEST PUSH1 0x40 MLOAD DUP1 SWAP2 SUB SWAP1 REVERT JUMPDEST DUP1 PUSH1 0x1 PUSH1 0x0 DUP3 DUP3 SLOAD PUSH2 0x44C SWAP2 SWAP1 PUSH2 0x99C JUMP JUMPDEST SWAP3 POP POP DUP2 SWAP1 SSTORE POP DUP1 PUSH1 0x0 DUP1 DUP5 PUSH20 0xFFFFFFFFFFFFFFFFFFFFFFFFFFFFFFFFFFFFFFFF AND PUSH20 0xFFFFFFFFFFFFFFFFFFFFFFFFFFFFFFFFFFFFFFFF AND DUP2 MSTORE PUSH1 0x20 ADD SWAP1 DUP2 MSTORE PUSH1 0x20 ADD PUSH1 0x0 KECCAK256 PUSH1 0x0 DUP3 DUP3 SLOAD PUSH2 0x4A1 SWAP2 SWAP1 PUSH2 0x99C JUMP JUMPDEST SWAP3 POP POP DUP2 SWAP1 SSTORE POP PUSH32 0xABF5327BE9F5825C40D58BDA541DD07F09B62DF3376BBD5ECDBAA8BD82A9D492 DUP3 DUP3 PUSH1 0x40 MLOAD PUSH2 0x4D9 SWAP3 SWAP2 SWAP1 PUSH2 0x8B2 JUMP JUMPDEST PUSH1 0x40 MLOAD DUP1 SWAP2 SUB SWAP1 LOG1 POP POP JUMP JUMPDEST PUSH1 0x0 PUSH20 0xFFFFFFFFFFFFFFFFFFFFFFFFFFFFFFFFFFFFFFFF AND DUP3 PUSH20 0xFFFFFFFFFFFFFFFFFFFFFFFFFFFFFFFFFFFFFFFF AND EQ ISZERO PUSH2 0x555 JUMPI PUSH1 0x40 MLOAD PUSH32 0x8C379A000000000000000000000000000000000000000000000000000000000 DUP2 MSTORE PUSH1 0x4 ADD PUSH2 0x54C SWAP1 PUSH2 0x892 JUMP JUMPDEST PUSH1 0x40 MLOAD DUP1 SWAP2 SUB SWAP1 REVERT JUMPDEST PUSH1 0x0 DUP1 PUSH1 0x0 DUP5 PUSH20 0xFFFFFFFFFFFFFFFFFFFFFFFFFFFFFFFFFFFFFFFF AND PUSH20 0xFFFFFFFFFFFFFFFFFFFFFFFFFFFFFFFFFFFFFFFF AND DUP2 MSTORE PUSH1 0x20 ADD SWAP1 DUP2 MSTORE PUSH1 0x20 ADD PUSH1 0x0 KECCAK256 SLOAD SWAP1 POP DUP2 DUP2 LT ISZERO PUSH2 0x5DB JUMPI PUSH1 0x40 MLOAD PUSH32 0x8C379A000000000000000000000000000000000000000000000000000000000 DUP2 MSTORE PUSH1 0x4 ADD PUSH2 0x5D2 SWAP1 PUSH2 0x872 JUMP JUMPDEST PUSH1 0x40 MLOAD DUP1 SWAP2 SUB SWAP1 REVERT JUMPDEST DUP2 DUP2 SUB PUSH1 0x0 DUP1 DUP6 PUSH20 0xFFFFFFFFFFFFFFFFFFFFFFFFFFFFFFFFFFFFFFFF AND PUSH20 0xFFFFFFFFFFFFFFFFFFFFFFFFFFFFFFFFFFFFFFFF AND DUP2 MSTORE PUSH1 0x20 ADD SWAP1 DUP2 MSTORE PUSH1 0x20 ADD PUSH1 0x0 KECCAK256 DUP2 SWAP1 SSTORE POP DUP2 PUSH1 0x1 PUSH1 0x0 DUP3 DUP3 SLOAD PUSH2 0x632 SWAP2 SWAP1 PUSH2 0x9F2 JUMP JUMPDEST SWAP3 POP POP DUP2 SWAP1 SSTORE POP PUSH32 0xABF5327BE9F5825C40D58BDA541DD07F09B62DF3376BBD5ECDBAA8BD82A9D492 DUP4 DUP4 PUSH1 0x40 MLOAD PUSH2 0x66A SWAP3 SWAP2 SWAP1 PUSH2 0x8EE JUMP JUMPDEST PUSH1 0x40 MLOAD DUP1 SWAP2 SUB SWAP1 LOG1 POP POP POP JUMP JUMPDEST PUSH1 0x0 DUP2 CALLDATALOAD SWAP1 POP PUSH2 0x686 DUP2 PUSH2 0xC61 JUMP JUMPDEST SWAP3 SWAP2 POP POP JUMP JUMPDEST PUSH1 0x0 DUP2 CALLDATALOAD SWAP1 POP PUSH2 0x69B DUP2 PUSH2 0xC78 JUMP JUMPDEST SWAP3 SWAP2 POP POP JUMP JUMPDEST PUSH1 0x0 PUSH1 0x20 DUP3 DUP5 SUB SLT ISZERO PUSH2 0x6B7 JUMPI PUSH2 0x6B6 PUSH2 0xB32 JUMP JUMPDEST JUMPDEST PUSH1 0x0 PUSH2 0x6C5 DUP5 DUP3 DUP6 ADD PUSH2 0x677 JUMP JUMPDEST SWAP2 POP POP SWAP3 SWAP2 POP POP JUMP JUMPDEST PUSH1 0x0 DUP1 PUSH1 0x40 DUP4 DUP6 SUB SLT ISZERO PUSH2 0x6E5 JUMPI PUSH2 0x6E4 PUSH2 0xB32 JUMP JUMPDEST JUMPDEST PUSH1 0x0 PUSH2 0x6F3 DUP6 DUP3 DUP7 ADD PUSH2 0x677 JUMP JUMPDEST SWAP3 POP POP PUSH1 0x20 PUSH2 0x704 DUP6 DUP3 DUP7 ADD PUSH2 0x68C JUMP JUMPDEST SWAP2 POP POP SWAP3 POP SWAP3 SWAP1 POP JUMP JUMPDEST PUSH1 0x0 PUSH1 0x20 DUP3 DUP5 SUB SLT ISZERO PUSH2 0x724 JUMPI PUSH2 0x723 PUSH2 0xB32 JUMP JUMPDEST JUMPDEST PUSH1 0x0 PUSH2 0x732 DUP5 DUP3 DUP6 ADD PUSH2 0x68C JUMP JUMPDEST SWAP2 POP POP SWAP3 SWAP2 POP POP JUMP JUMPDEST PUSH2 0x744 DUP2 PUSH2 0xA26 JUMP JUMPDEST DUP3 MSTORE POP POP JUMP JUMPDEST PUSH1 0x0 PUSH2 0x755 DUP3 PUSH2 0x980 JUMP JUMPDEST PUSH2 0x75F DUP2 DUP6 PUSH2 0x98B JUMP JUMPDEST SWAP4 POP PUSH2 0x76F DUP2 DUP6 PUSH1 0x20 DUP7 ADD PUSH2 0xA6F JUMP JUMPDEST PUSH2 0x778 DUP2 PUSH2 0xB37 JUMP JUMPDEST DUP5 ADD SWAP2 POP POP SWAP3 SWAP2 POP POP JUMP JUMPDEST PUSH1 0x0 PUSH2 0x790 PUSH1 0x22 DUP4 PUSH2 0x98B JUMP JUMPDEST SWAP2 POP PUSH2 0x79B DUP3 PUSH2 0xB48 JUMP JUMPDEST PUSH1 0x40 DUP3 ADD SWAP1 POP SWAP2 SWAP1 POP JUMP JUMPDEST PUSH1 0x0 PUSH2 0x7B3 PUSH1 0x21 DUP4 PUSH2 0x98B JUMP JUMPDEST SWAP2 POP PUSH2 0x7BE DUP3 PUSH2 0xB97 JUMP JUMPDEST PUSH1 0x40 DUP3 ADD SWAP1 POP SWAP2 SWAP1 POP JUMP JUMPDEST PUSH1 0x0 PUSH2 0x7D6 PUSH1 0x4 DUP4 PUSH2 0x98B JUMP JUMPDEST SWAP2 POP PUSH2 0x7E1 DUP3 PUSH2 0xBE6 JUMP JUMPDEST PUSH1 0x20 DUP3 ADD SWAP1 POP SWAP2 SWAP1 POP JUMP JUMPDEST PUSH1 0x0 PUSH2 0x7F9 PUSH1 0x4 DUP4 PUSH2 0x98B JUMP JUMPDEST SWAP2 POP PUSH2 0x804 DUP3 PUSH2 0xC0F JUMP JUMPDEST PUSH1 0x20 DUP3 ADD SWAP1 POP SWAP2 SWAP1 POP JUMP JUMPDEST PUSH1 0x0 PUSH2 0x81C PUSH1 0x1F DUP4 PUSH2 0x98B JUMP JUMPDEST SWAP2 POP PUSH2 0x827 DUP3 PUSH2 0xC38 JUMP JUMPDEST PUSH1 0x20 DUP3 ADD SWAP1 POP SWAP2 SWAP1 POP JUMP JUMPDEST PUSH2 0x83B DUP2 PUSH2 0xA58 JUMP JUMPDEST DUP3 MSTORE POP POP JUMP JUMPDEST PUSH2 0x84A DUP2 PUSH2 0xA62 JUMP JUMPDEST DUP3 MSTORE POP POP JUMP JUMPDEST PUSH1 0x0 PUSH1 0x20 DUP3 ADD SWAP1 POP DUP2 DUP2 SUB PUSH1 0x0 DUP4 ADD MSTORE PUSH2 0x86A DUP2 DUP5 PUSH2 0x74A JUMP JUMPDEST SWAP1 POP SWAP3 SWAP2 POP POP JUMP JUMPDEST PUSH1 0x0 PUSH1 0x20 DUP3 ADD SWAP1 POP DUP2 DUP2 SUB PUSH1 0x0 DUP4 ADD MSTORE PUSH2 0x88B DUP2 PUSH2 0x783 JUMP JUMPDEST SWAP1 POP SWAP2 SWAP1 POP JUMP JUMPDEST PUSH1 0x0 PUSH1 0x20 DUP3 ADD SWAP1 POP DUP2 DUP2 SUB PUSH1 0x0 DUP4 ADD MSTORE PUSH2 0x8AB DUP2 PUSH2 0x7A6 JUMP JUMPDEST SWAP1 POP SWAP2 SWAP1 POP JUMP JUMPDEST PUSH1 0x0 PUSH1 0x60 DUP3 ADD SWAP1 POP DUP2 DUP2 SUB PUSH1 0x0 DUP4 ADD MSTORE PUSH2 0x8CB DUP2 PUSH2 0x7C9 JUMP JUMPDEST SWAP1 POP PUSH2 0x8DA PUSH1 0x20 DUP4 ADD DUP6 PUSH2 0x73B JUMP JUMPDEST PUSH2 0x8E7 PUSH1 0x40 DUP4 ADD DUP5 PUSH2 0x832 JUMP JUMPDEST SWAP4 SWAP3 POP POP POP JUMP JUMPDEST PUSH1 0x0 PUSH1 0x60 DUP3 ADD SWAP1 POP DUP2 DUP2 SUB PUSH1 0x0 DUP4 ADD MSTORE PUSH2 0x907 DUP2 PUSH2 0x7EC JUMP JUMPDEST SWAP1 POP PUSH2 0x916 PUSH1 0x20 DUP4 ADD DUP6 PUSH2 0x73B JUMP JUMPDEST PUSH2 0x923 PUSH1 0x40 DUP4 ADD DUP5 PUSH2 0x832 JUMP JUMPDEST SWAP4 SWAP3 POP POP POP JUMP JUMPDEST PUSH1 0x0 PUSH1 0x20 DUP3 ADD SWAP1 POP DUP2 DUP2 SUB PUSH1 0x0 DUP4 ADD MSTORE PUSH2 0x943 DUP2 PUSH2 0x80F JUMP JUMPDEST SWAP1 POP SWAP2 SWAP1 POP JUMP JUMPDEST PUSH1 0x0 PUSH1 0x20 DUP3 ADD SWAP1 POP PUSH2 0x95F PUSH1 0x0 DUP4 ADD DUP5 PUSH2 0x832 JUMP JUMPDEST SWAP3 SWAP2 POP POP JUMP JUMPDEST PUSH1 0x0 PUSH1 0x20 DUP3 ADD SWAP1 POP PUSH2 0x97A PUSH1 0x0 DUP4 ADD DUP5 PUSH2 0x841 JUMP JUMPDEST SWAP3 SWAP2 POP POP JUMP JUMPDEST PUSH1 0x0 DUP2 MLOAD SWAP1 POP SWAP2 SWAP1 POP JUMP JUMPDEST PUSH1 0x0 DUP3 DUP3 MSTORE PUSH1 0x20 DUP3 ADD SWAP1 POP SWAP3 SWAP2 POP POP JUMP JUMPDEST PUSH1 0x0 PUSH2 0x9A7 DUP3 PUSH2 0xA58 JUMP JUMPDEST SWAP2 POP PUSH2 0x9B2 DUP4 PUSH2 0xA58 JUMP JUMPDEST SWAP3 POP DUP3 PUSH32 0xFFFFFFFFFFFFFFFFFFFFFFFFFFFFFFFFFFFFFFFFFFFFFFFFFFFFFFFFFFFFFFFF SUB DUP3 GT ISZERO PUSH2 0x9E7 JUMPI PUSH2 0x9E6 PUSH2 0xAD4 JUMP JUMPDEST JUMPDEST DUP3 DUP3 ADD SWAP1 POP SWAP3 SWAP2 POP POP JUMP JUMPDEST PUSH1 0x0 PUSH2 0x9FD DUP3 PUSH2 0xA58 JUMP JUMPDEST SWAP2 POP PUSH2 0xA08 DUP4 PUSH2 0xA58 JUMP JUMPDEST SWAP3 POP DUP3 DUP3 LT ISZERO PUSH2 0xA1B JUMPI PUSH2 0xA1A PUSH2 0xAD4 JUMP JUMPDEST JUMPDEST DUP3 DUP3 SUB SWAP1 POP SWAP3 SWAP2 POP POP JUMP JUMPDEST PUSH1 0x0 PUSH2 0xA31 DUP3 PUSH2 0xA38 JUMP JUMPDEST SWAP1 POP SWAP2 SWAP1 POP JUMP JUMPDEST PUSH1 0x0 PUSH20 0xFFFFFFFFFFFFFFFFFFFFFFFFFFFFFFFFFFFFFFFF DUP3 AND SWAP1 POP SWAP2 SWAP1 POP JUMP JUMPDEST PUSH1 0x0 DUP2 SWAP1 POP SWAP2 SWAP1 POP JUMP JUMPDEST PUSH1 0x0 PUSH1 0xFF DUP3 AND SWAP1 POP SWAP2 SWAP1 POP JUMP JUMPDEST PUSH1 0x0 JUMPDEST DUP4 DUP2 LT ISZERO PUSH2 0xA8D JUMPI DUP1 DUP3 ADD MLOAD DUP2 DUP5 ADD MSTORE PUSH1 0x20 DUP2 ADD SWAP1 POP PUSH2 0xA72 JUMP JUMPDEST DUP4 DUP2 GT ISZERO PUSH2 0xA9C JUMPI PUSH1 0x0 DUP5 DUP5 ADD MSTORE JUMPDEST POP POP POP POP JUMP JUMPDEST PUSH1 0x0 PUSH1 0x2 DUP3 DIV SWAP1 POP PUSH1 0x1 DUP3 AND DUP1 PUSH2 0xABA JUMPI PUSH1 0x7F DUP3 AND SWAP2 POP JUMPDEST PUSH1 0x20 DUP3 LT DUP2 EQ ISZERO PUSH2 0xACE JUMPI PUSH2 0xACD PUSH2 0xB03 JUMP JUMPDEST JUMPDEST POP SWAP2 SWAP1 POP JUMP JUMPDEST PUSH32 0x4E487B7100000000000000000000000000000000000000000000000000000000 PUSH1 0x0 MSTORE PUSH1 0x11 PUSH1 0x4 MSTORE PUSH1 0x24 PUSH1 0x0 REVERT JUMPDEST PUSH32 0x4E487B7100000000000000000000000000000000000000000000000000000000 PUSH1 0x0 MSTORE PUSH1 0x22 PUSH1 0x4 MSTORE PUSH1 0x24 PUSH1 0x0 REVERT JUMPDEST PUSH1 0x0 DUP1 REVERT JUMPDEST PUSH1 0x0 PUSH1 0x1F NOT PUSH1 0x1F DUP4 ADD AND SWAP1 POP SWAP2 SWAP1 POP JUMP JUMPDEST PUSH32 0x45524332303A206275726E20616D6F756E7420657863656564732062616C616E PUSH1 0x0 DUP3 ADD MSTORE PUSH32 0x6365000000000000000000000000000000000000000000000000000000000000 PUSH1 0x20 DUP3 ADD MSTORE POP JUMP JUMPDEST PUSH32 0x45524332303A206275726E2066726F6D20746865207A65726F20616464726573 PUSH1 0x0 DUP3 ADD MSTORE PUSH32 0x7300000000000000000000000000000000000000000000000000000000000000 PUSH1 0x20 DUP3 ADD MSTORE POP JUMP JUMPDEST PUSH32 0x6D696E7400000000000000000000000000000000000000000000000000000000 PUSH1 0x0 DUP3 ADD MSTORE POP JUMP JUMPDEST PUSH32 0x6275726E00000000000000000000000000000000000000000000000000000000 PUSH1 0x0 DUP3 ADD MSTORE POP JUMP JUMPDEST PUSH32 0x45524332303A206D696E7420746F20746865207A65726F206164647265737300 PUSH1 0x0 DUP3 ADD MSTORE POP JUMP JUMPDEST PUSH2 0xC6A DUP2 PUSH2 0xA26 JUMP JUMPDEST DUP2 EQ PUSH2 0xC75 JUMPI PUSH1 0x0 DUP1 REVERT JUMPDEST POP JUMP JUMPDEST PUSH2 0xC81 DUP2 PUSH2 0xA58 JUMP JUMPDEST DUP2 EQ PUSH2 0xC8C JUMPI PUSH1 0x0 DUP1 REVERT JUMPDEST POP JUMP INVALID LOG2 PUSH5 0x6970667358 0x22 SLT KECCAK256 PUSH10 0xD7753FE13D55E525D525 0xE0 PUSH12 0xF2AD71BB32EF12EA11E8EDB0 0xDA 0x4A 0xB8 SWAP5 SWAP4 DIFFICULTY 0xE3 PUSH5 0x736F6C6343 STOP ADDMOD SMOD STOP CALLER "
				},
				"gasEstimates": {
					"creation": {
						"codeDepositCost": "653800",
						"executionCost": "infinite",
						"totalCost": "infinite"
					},
					"external": {
						"balanceOf(address)": "2885",
						"burn(uint256)": "infinite",
						"decimals()": "388",
						"mint(address,uint256)": "infinite",
						"name()": "infinite",
						"symbol()": "infinite",
						"totalSupply()": "2460"
					}
				},
				"methodIdentifiers": {
					"balanceOf(address)": "70a08231",
					"burn(uint256)": "42966c68",
					"decimals()": "313ce567",
					"mint(address,uint256)": "40c10f19",
					"name()": "06fdde03",
					"symbol()": "95d89b41",
					"totalSupply()": "18160ddd"
				}
			},
			"storageLayout": {
				"storage": [
					{
						"astId": 571,
						"contract": "QvToken/QvToken.sol:QVtoken",
						"label": "_balances",
						"offset": 0,
						"slot": "0",
						"type": "t_mapping(t_address,t_uint256)"
					},
					{
						"astId": 573,
						"contract": "QvToken/QvToken.sol:QVtoken",
						"label": "_totalSupply",
						"offset": 0,
						"slot": "1",
						"type": "t_uint256"
					},
					{
						"astId": 575,
						"contract": "QvToken/QvToken.sol:QVtoken",
						"label": "_name",
						"offset": 0,
						"slot": "2",
						"type": "t_string_storage"
					},
					{
						"astId": 577,
						"contract": "QvToken/QvToken.sol:QVtoken",
						"label": "_symbol",
						"offset": 0,
						"slot": "3",
						"type": "t_string_storage"
					},
					{
						"astId": 791,
						"contract": "QvToken/QvToken.sol:QVtoken",
						"label": "owner",
						"offset": 0,
						"slot": "4",
						"type": "t_address"
					}
				],
				"types": {
					"t_address": {
						"encoding": "inplace",
						"label": "address",
						"numberOfBytes": "20"
					},
					"t_mapping(t_address,t_uint256)": {
						"encoding": "mapping",
						"key": "t_address",
						"label": "mapping(address => uint256)",
						"numberOfBytes": "32",
						"value": "t_uint256"
					},
					"t_string_storage": {
						"encoding": "bytes",
						"label": "string",
						"numberOfBytes": "32"
					},
					"t_uint256": {
						"encoding": "inplace",
						"label": "uint256",
						"numberOfBytes": "32"
					}
				}
			},
			"userdoc": {
				"kind": "user",
				"methods": {},
				"version": 1
			}
		}
	}
}