{
	"QvToken/ERC20.sol": {
		"ERC20": {
			"abi": [
				{
					"inputs": [
						{
							"internalType": "string",
							"name": "name_",
							"type": "string"
						},
						{
							"internalType": "string",
							"name": "symbol_",
							"type": "string"
						}
					],
					"stateMutability": "nonpayable",
					"type": "constructor"
				},
				{
					"anonymous": false,
					"inputs": [
						{
							"indexed": false,
							"internalType": "string",
							"name": "mintAndburn",
							"type": "string"
						},
						{
							"indexed": false,
							"internalType": "address",
							"name": "account",
							"type": "address"
						},
						{
							"indexed": false,
							"internalType": "uint256",
							"name": "amount",
							"type": "uint256"
						}
					],
					"name": "mintAndburn",
					"type": "event"
				},
				{
					"inputs": [
						{
							"internalType": "address",
							"name": "account",
							"type": "address"
						}
					],
					"name": "balanceOf",
					"outputs": [
						{
							"internalType": "uint256",
							"name": "",
							"type": "uint256"
						}
					],
					"stateMutability": "view",
					"type": "function"
				},
				{
					"inputs": [],
					"name": "decimals",
					"outputs": [
						{
							"internalType": "uint8",
							"name": "",
							"type": "uint8"
						}
					],
					"stateMutability": "view",
					"type": "function"
				},
				{
					"inputs": [],
					"name": "name",
					"outputs": [
						{
							"internalType": "string",
							"name": "",
							"type": "string"
						}
					],
					"stateMutability": "view",
					"type": "function"
				},
				{
					"inputs": [],
					"name": "symbol",
					"outputs": [
						{
							"internalType": "string",
							"name": "",
							"type": "string"
						}
					],
					"stateMutability": "view",
					"type": "function"
				},
				{
					"inputs": [],
					"name": "totalSupply",
					"outputs": [
						{
							"internalType": "uint256",
							"name": "",
							"type": "uint256"
						}
					],
					"stateMutability": "view",
					"type": "function"
				}
			],
			"devdoc": {
				"details": "Implementation of the {IERC20} interface. This implementation is agnostic to the way tokens are created. This means that a supply mechanism has to be added in a derived contract using {_mint}. For a generic mechanism see {ERC20PresetMinterPauser}. TIP: For a detailed writeup see our guide https://forum.zeppelin.solutions/t/how-to-implement-erc20-supply-mechanisms/226[How to implement supply mechanisms]. We have followed general OpenZeppelin Contracts guidelines: functions revert instead returning `false` on failure. This behavior is nonetheless conventional and does not conflict with the expectations of ERC20 applications. Additionally, an {Approval} event is emitted on calls to {transferFrom}. This allows applications to reconstruct the allowance for all accounts just by listening to said events. Other implementations of the EIP may not emit these events, as it isn't required by the specification. Finally, the non-standard {decreaseAllowance} and {increaseAllowance} functions have been added to mitigate the well-known issues around setting allowances. See {IERC20-approve}.",
				"kind": "dev",
				"methods": {
					"balanceOf(address)": {
						"details": "See {IERC20-balanceOf}."
					},
					"constructor": {
						"details": "Sets the values for {name} and {symbol}. The default value of {decimals} is 18. To select a different value for {decimals} you should overload it. All two of these values are immutable: they can only be set once during construction."
					},
					"decimals()": {
						"details": "Returns the number of decimals used to get its user representation. For example, if `decimals` equals `2`, a balance of `505` tokens should be displayed to a user as `5.05` (`505 / 10 ** 2`). Tokens usually opt for a value of 18, imitating the relationship between Ether and Wei. This is the value {ERC20} uses, unless this function is overridden; NOTE: This information is only used for _display_ purposes: it in no way affects any of the arithmetic of the contract, including {IERC20-balanceOf} and {IERC20-transfer}."
					},
					"name()": {
						"details": "Returns the name of the token."
					},
					"symbol()": {
						"details": "Returns the symbol of the token, usually a shorter version of the name."
					},
					"totalSupply()": {
						"details": "See {IERC20-totalSupply}."
					}
				},
				"version": 1
			},
			"evm": {
				"assembly": "    /* \"QvToken/ERC20.sol\":1419:14348  contract ERC20 is Context, IERC20, IERC20Metadata {\r... */\n  mstore(0x40, 0x80)\n    /* \"QvToken/ERC20.sol\":2016:2132  constructor(string memory name_, string memory symbol_) {\r... */\n  callvalue\n  dup1\n  iszero\n  tag_1\n  jumpi\n  0x00\n  dup1\n  revert\ntag_1:\n  pop\n  mload(0x40)\n  sub(codesize, bytecodeSize)\n  dup1\n  bytecodeSize\n  dup4\n  codecopy\n  dup2\n  dup2\n  add\n  0x40\n  mstore\n  dup2\n  add\n  swap1\n  tag_2\n  swap2\n  swap1\n  tag_3\n  jump\t// in\ntag_2:\n    /* \"QvToken/ERC20.sol\":2091:2096  name_ */\n  dup2\n    /* \"QvToken/ERC20.sol\":2083:2088  _name */\n  0x02\n    /* \"QvToken/ERC20.sol\":2083:2096  _name = name_ */\n  swap1\n  dup1\n  mload\n  swap1\n  0x20\n  add\n  swap1\n  tag_6\n  swap3\n  swap2\n  swap1\n  tag_7\n  jump\t// in\ntag_6:\n  pop\n    /* \"QvToken/ERC20.sol\":2117:2124  symbol_ */\n  dup1\n    /* \"QvToken/ERC20.sol\":2107:2114  _symbol */\n  0x03\n    /* \"QvToken/ERC20.sol\":2107:2124  _symbol = symbol_ */\n  swap1\n  dup1\n  mload\n  swap1\n  0x20\n  add\n  swap1\n  tag_8\n  swap3\n  swap2\n  swap1\n  tag_7\n  jump\t// in\ntag_8:\n  pop\n    /* \"QvToken/ERC20.sol\":2016:2132  constructor(string memory name_, string memory symbol_) {\r... */\n  pop\n  pop\n    /* \"QvToken/ERC20.sol\":1419:14348  contract ERC20 is Context, IERC20, IERC20Metadata {\r... */\n  jump(tag_9)\ntag_7:\n  dup3\n  dup1\n  sload\n  tag_10\n  swap1\n  tag_11\n  jump\t// in\ntag_10:\n  swap1\n  0x00\n  mstore\n  keccak256(0x00, 0x20)\n  swap1\n  0x1f\n  add\n  0x20\n  swap1\n  div\n  dup2\n  add\n  swap3\n  dup3\n  tag_13\n  jumpi\n  0x00\n  dup6\n  sstore\n  jump(tag_12)\ntag_13:\n  dup3\n  0x1f\n  lt\n  tag_14\n  jumpi\n  dup1\n  mload\n  not(0xff)\n  and\n  dup4\n  dup1\n  add\n  or\n  dup6\n  sstore\n  jump(tag_12)\ntag_14:\n  dup3\n  dup1\n  add\n  0x01\n  add\n  dup6\n  sstore\n  dup3\n  iszero\n  tag_12\n  jumpi\n  swap2\n  dup3\n  add\ntag_15:\n  dup3\n  dup2\n  gt\n  iszero\n  tag_16\n  jumpi\n  dup3\n  mload\n  dup3\n  sstore\n  swap2\n  0x20\n  add\n  swap2\n  swap1\n  0x01\n  add\n  swap1\n  jump(tag_15)\ntag_16:\ntag_12:\n  pop\n  swap1\n  pop\n  tag_17\n  swap2\n  swap1\n  tag_18\n  jump\t// in\ntag_17:\n  pop\n  swap1\n  jump\t// out\ntag_18:\ntag_19:\n  dup1\n  dup3\n  gt\n  iszero\n  tag_20\n  jumpi\n  0x00\n  dup2\n  0x00\n  swap1\n  sstore\n  pop\n  0x01\n  add\n  jump(tag_19)\ntag_20:\n  pop\n  swap1\n  jump\t// out\n    /* \"#utility.yul\":7:428   */\ntag_22:\n    /* \"#utility.yul\":96:101   */\n  0x00\n    /* \"#utility.yul\":121:187   */\n  tag_24\n    /* \"#utility.yul\":137:186   */\n  tag_25\n    /* \"#utility.yul\":179:185   */\n  dup5\n    /* \"#utility.yul\":137:186   */\n  tag_26\n  jump\t// in\ntag_25:\n    /* \"#utility.yul\":121:187   */\n  tag_27\n  jump\t// in\ntag_24:\n    /* \"#utility.yul\":112:187   */\n  swap1\n  pop\n    /* \"#utility.yul\":210:216   */\n  dup3\n    /* \"#utility.yul\":203:208   */\n  dup2\n    /* \"#utility.yul\":196:217   */\n  mstore\n    /* \"#utility.yul\":248:252   */\n  0x20\n    /* \"#utility.yul\":241:246   */\n  dup2\n    /* \"#utility.yul\":237:253   */\n  add\n    /* \"#utility.yul\":286:289   */\n  dup5\n    /* \"#utility.yul\":277:283   */\n  dup5\n    /* \"#utility.yul\":272:275   */\n  dup5\n    /* \"#utility.yul\":268:284   */\n  add\n    /* \"#utility.yul\":265:290   */\n  gt\n    /* \"#utility.yul\":262:374   */\n  iszero\n  tag_28\n  jumpi\n    /* \"#utility.yul\":293:372   */\n  tag_29\n  tag_30\n  jump\t// in\ntag_29:\n    /* \"#utility.yul\":262:374   */\ntag_28:\n    /* \"#utility.yul\":383:422   */\n  tag_31\n    /* \"#utility.yul\":415:421   */\n  dup5\n    /* \"#utility.yul\":410:413   */\n  dup3\n    /* \"#utility.yul\":405:408   */\n  dup6\n    /* \"#utility.yul\":383:422   */\n  tag_32\n  jump\t// in\ntag_31:\n    /* \"#utility.yul\":102:428   */\n  pop\n    /* \"#utility.yul\":7:428   */\n  swap4\n  swap3\n  pop\n  pop\n  pop\n  jump\t// out\n    /* \"#utility.yul\":448:803   */\ntag_33:\n    /* \"#utility.yul\":515:520   */\n  0x00\n    /* \"#utility.yul\":564:567   */\n  dup3\n    /* \"#utility.yul\":557:561   */\n  0x1f\n    /* \"#utility.yul\":549:555   */\n  dup4\n    /* \"#utility.yul\":545:562   */\n  add\n    /* \"#utility.yul\":541:568   */\n  slt\n    /* \"#utility.yul\":531:653   */\n  tag_35\n  jumpi\n    /* \"#utility.yul\":572:651   */\n  tag_36\n  tag_37\n  jump\t// in\ntag_36:\n    /* \"#utility.yul\":531:653   */\ntag_35:\n    /* \"#utility.yul\":682:688   */\n  dup2\n    /* \"#utility.yul\":676:689   */\n  mload\n    /* \"#utility.yul\":707:797   */\n  tag_38\n    /* \"#utility.yul\":793:796   */\n  dup5\n    /* \"#utility.yul\":785:791   */\n  dup3\n    /* \"#utility.yul\":778:782   */\n  0x20\n    /* \"#utility.yul\":770:776   */\n  dup7\n    /* \"#utility.yul\":766:783   */\n  add\n    /* \"#utility.yul\":707:797   */\n  tag_22\n  jump\t// in\ntag_38:\n    /* \"#utility.yul\":698:797   */\n  swap2\n  pop\n    /* \"#utility.yul\":521:803   */\n  pop\n    /* \"#utility.yul\":448:803   */\n  swap3\n  swap2\n  pop\n  pop\n  jump\t// out\n    /* \"#utility.yul\":809:1662   */\ntag_3:\n    /* \"#utility.yul\":908:914   */\n  0x00\n    /* \"#utility.yul\":916:922   */\n  dup1\n    /* \"#utility.yul\":965:967   */\n  0x40\n    /* \"#utility.yul\":953:962   */\n  dup4\n    /* \"#utility.yul\":944:951   */\n  dup6\n    /* \"#utility.yul\":940:963   */\n  sub\n    /* \"#utility.yul\":936:968   */\n  slt\n    /* \"#utility.yul\":933:1052   */\n  iszero\n  tag_40\n  jumpi\n    /* \"#utility.yul\":971:1050   */\n  tag_41\n  tag_42\n  jump\t// in\ntag_41:\n    /* \"#utility.yul\":933:1052   */\ntag_40:\n    /* \"#utility.yul\":1112:1113   */\n  0x00\n    /* \"#utility.yul\":1101:1110   */\n  dup4\n    /* \"#utility.yul\":1097:1114   */\n  add\n    /* \"#utility.yul\":1091:1115   */\n  mload\n    /* \"#utility.yul\":1142:1160   */\n  0xffffffffffffffff\n    /* \"#utility.yul\":1134:1140   */\n  dup2\n    /* \"#utility.yul\":1131:1161   */\n  gt\n    /* \"#utility.yul\":1128:1245   */\n  iszero\n  tag_43\n  jumpi\n    /* \"#utility.yul\":1164:1243   */\n  tag_44\n  tag_45\n  jump\t// in\ntag_44:\n    /* \"#utility.yul\":1128:1245   */\ntag_43:\n    /* \"#utility.yul\":1269:1343   */\n  tag_46\n    /* \"#utility.yul\":1335:1342   */\n  dup6\n    /* \"#utility.yul\":1326:1332   */\n  dup3\n    /* \"#utility.yul\":1315:1324   */\n  dup7\n    /* \"#utility.yul\":1311:1333   */\n  add\n    /* \"#utility.yul\":1269:1343   */\n  tag_33\n  jump\t// in\ntag_46:\n    /* \"#utility.yul\":1259:1343   */\n  swap3\n  pop\n    /* \"#utility.yul\":1062:1353   */\n  pop\n    /* \"#utility.yul\":1413:1415   */\n  0x20\n    /* \"#utility.yul\":1402:1411   */\n  dup4\n    /* \"#utility.yul\":1398:1416   */\n  add\n    /* \"#utility.yul\":1392:1417   */\n  mload\n    /* \"#utility.yul\":1444:1462   */\n  0xffffffffffffffff\n    /* \"#utility.yul\":1436:1442   */\n  dup2\n    /* \"#utility.yul\":1433:1463   */\n  gt\n    /* \"#utility.yul\":1430:1547   */\n  iszero\n  tag_47\n  jumpi\n    /* \"#utility.yul\":1466:1545   */\n  tag_48\n  tag_45\n  jump\t// in\ntag_48:\n    /* \"#utility.yul\":1430:1547   */\ntag_47:\n    /* \"#utility.yul\":1571:1645   */\n  tag_49\n    /* \"#utility.yul\":1637:1644   */\n  dup6\n    /* \"#utility.yul\":1628:1634   */\n  dup3\n    /* \"#utility.yul\":1617:1626   */\n  dup7\n    /* \"#utility.yul\":1613:1635   */\n  add\n    /* \"#utility.yul\":1571:1645   */\n  tag_33\n  jump\t// in\ntag_49:\n    /* \"#utility.yul\":1561:1645   */\n  swap2\n  pop\n    /* \"#utility.yul\":1363:1655   */\n  pop\n    /* \"#utility.yul\":809:1662   */\n  swap3\n  pop\n  swap3\n  swap1\n  pop\n  jump\t// out\n    /* \"#utility.yul\":1668:1797   */\ntag_27:\n    /* \"#utility.yul\":1702:1708   */\n  0x00\n    /* \"#utility.yul\":1729:1749   */\n  tag_51\n  tag_52\n  jump\t// in\ntag_51:\n    /* \"#utility.yul\":1719:1749   */\n  swap1\n  pop\n    /* \"#utility.yul\":1758:1791   */\n  tag_53\n    /* \"#utility.yul\":1786:1790   */\n  dup3\n    /* \"#utility.yul\":1778:1784   */\n  dup3\n    /* \"#utility.yul\":1758:1791   */\n  tag_54\n  jump\t// in\ntag_53:\n    /* \"#utility.yul\":1668:1797   */\n  swap2\n  swap1\n  pop\n  jump\t// out\n    /* \"#utility.yul\":1803:1878   */\ntag_52:\n    /* \"#utility.yul\":1836:1842   */\n  0x00\n    /* \"#utility.yul\":1869:1871   */\n  0x40\n    /* \"#utility.yul\":1863:1872   */\n  mload\n    /* \"#utility.yul\":1853:1872   */\n  swap1\n  pop\n    /* \"#utility.yul\":1803:1878   */\n  swap1\n  jump\t// out\n    /* \"#utility.yul\":1884:2192   */\ntag_26:\n    /* \"#utility.yul\":1946:1950   */\n  0x00\n    /* \"#utility.yul\":2036:2054   */\n  0xffffffffffffffff\n    /* \"#utility.yul\":2028:2034   */\n  dup3\n    /* \"#utility.yul\":2025:2055   */\n  gt\n    /* \"#utility.yul\":2022:2078   */\n  iszero\n  tag_57\n  jumpi\n    /* \"#utility.yul\":2058:2076   */\n  tag_58\n  tag_59\n  jump\t// in\ntag_58:\n    /* \"#utility.yul\":2022:2078   */\ntag_57:\n    /* \"#utility.yul\":2096:2125   */\n  tag_60\n    /* \"#utility.yul\":2118:2124   */\n  dup3\n    /* \"#utility.yul\":2096:2125   */\n  tag_61\n  jump\t// in\ntag_60:\n    /* \"#utility.yul\":2088:2125   */\n  swap1\n  pop\n    /* \"#utility.yul\":2180:2184   */\n  0x20\n    /* \"#utility.yul\":2174:2178   */\n  dup2\n    /* \"#utility.yul\":2170:2185   */\n  add\n    /* \"#utility.yul\":2162:2185   */\n  swap1\n  pop\n    /* \"#utility.yul\":1884:2192   */\n  swap2\n  swap1\n  pop\n  jump\t// out\n    /* \"#utility.yul\":2198:2505   */\ntag_32:\n    /* \"#utility.yul\":2266:2267   */\n  0x00\n    /* \"#utility.yul\":2276:2389   */\ntag_63:\n    /* \"#utility.yul\":2290:2296   */\n  dup4\n    /* \"#utility.yul\":2287:2288   */\n  dup2\n    /* \"#utility.yul\":2284:2297   */\n  lt\n    /* \"#utility.yul\":2276:2389   */\n  iszero\n  tag_65\n  jumpi\n    /* \"#utility.yul\":2375:2376   */\n  dup1\n    /* \"#utility.yul\":2370:2373   */\n  dup3\n    /* \"#utility.yul\":2366:2377   */\n  add\n    /* \"#utility.yul\":2360:2378   */\n  mload\n    /* \"#utility.yul\":2356:2357   */\n  dup2\n    /* \"#utility.yul\":2351:2354   */\n  dup5\n    /* \"#utility.yul\":2347:2358   */\n  add\n    /* \"#utility.yul\":2340:2379   */\n  mstore\n    /* \"#utility.yul\":2312:2314   */\n  0x20\n    /* \"#utility.yul\":2309:2310   */\n  dup2\n    /* \"#utility.yul\":2305:2315   */\n  add\n    /* \"#utility.yul\":2300:2315   */\n  swap1\n  pop\n    /* \"#utility.yul\":2276:2389   */\n  jump(tag_63)\ntag_65:\n    /* \"#utility.yul\":2407:2413   */\n  dup4\n    /* \"#utility.yul\":2404:2405   */\n  dup2\n    /* \"#utility.yul\":2401:2414   */\n  gt\n    /* \"#utility.yul\":2398:2499   */\n  iszero\n  tag_66\n  jumpi\n    /* \"#utility.yul\":2487:2488   */\n  0x00\n    /* \"#utility.yul\":2478:2484   */\n  dup5\n    /* \"#utility.yul\":2473:2476   */\n  dup5\n    /* \"#utility.yul\":2469:2485   */\n  add\n    /* \"#utility.yul\":2462:2489   */\n  mstore\n    /* \"#utility.yul\":2398:2499   */\ntag_66:\n    /* \"#utility.yul\":2247:2505   */\n  pop\n    /* \"#utility.yul\":2198:2505   */\n  pop\n  pop\n  pop\n  jump\t// out\n    /* \"#utility.yul\":2511:2831   */\ntag_11:\n    /* \"#utility.yul\":2555:2561   */\n  0x00\n    /* \"#utility.yul\":2592:2593   */\n  0x02\n    /* \"#utility.yul\":2586:2590   */\n  dup3\n    /* \"#utility.yul\":2582:2594   */\n  div\n    /* \"#utility.yul\":2572:2594   */\n  swap1\n  pop\n    /* \"#utility.yul\":2639:2640   */\n  0x01\n    /* \"#utility.yul\":2633:2637   */\n  dup3\n    /* \"#utility.yul\":2629:2641   */\n  and\n    /* \"#utility.yul\":2660:2678   */\n  dup1\n    /* \"#utility.yul\":2650:2731   */\n  tag_68\n  jumpi\n    /* \"#utility.yul\":2716:2720   */\n  0x7f\n    /* \"#utility.yul\":2708:2714   */\n  dup3\n    /* \"#utility.yul\":2704:2721   */\n  and\n    /* \"#utility.yul\":2694:2721   */\n  swap2\n  pop\n    /* \"#utility.yul\":2650:2731   */\ntag_68:\n    /* \"#utility.yul\":2778:2780   */\n  0x20\n    /* \"#utility.yul\":2770:2776   */\n  dup3\n    /* \"#utility.yul\":2767:2781   */\n  lt\n    /* \"#utility.yul\":2747:2765   */\n  dup2\n    /* \"#utility.yul\":2744:2782   */\n  eq\n    /* \"#utility.yul\":2741:2825   */\n  iszero\n  tag_69\n  jumpi\n    /* \"#utility.yul\":2797:2815   */\n  tag_70\n  tag_71\n  jump\t// in\ntag_70:\n    /* \"#utility.yul\":2741:2825   */\ntag_69:\n    /* \"#utility.yul\":2562:2831   */\n  pop\n    /* \"#utility.yul\":2511:2831   */\n  swap2\n  swap1\n  pop\n  jump\t// out\n    /* \"#utility.yul\":2837:3118   */\ntag_54:\n    /* \"#utility.yul\":2920:2947   */\n  tag_73\n    /* \"#utility.yul\":2942:2946   */\n  dup3\n    /* \"#utility.yul\":2920:2947   */\n  tag_61\n  jump\t// in\ntag_73:\n    /* \"#utility.yul\":2912:2918   */\n  dup2\n    /* \"#utility.yul\":2908:2948   */\n  add\n    /* \"#utility.yul\":3050:3056   */\n  dup2\n    /* \"#utility.yul\":3038:3048   */\n  dup2\n    /* \"#utility.yul\":3035:3057   */\n  lt\n    /* \"#utility.yul\":3014:3032   */\n  0xffffffffffffffff\n    /* \"#utility.yul\":3002:3012   */\n  dup3\n    /* \"#utility.yul\":2999:3033   */\n  gt\n    /* \"#utility.yul\":2996:3058   */\n  or\n    /* \"#utility.yul\":2993:3081   */\n  iszero\n  tag_74\n  jumpi\n    /* \"#utility.yul\":3061:3079   */\n  tag_75\n  tag_59\n  jump\t// in\ntag_75:\n    /* \"#utility.yul\":2993:3081   */\ntag_74:\n    /* \"#utility.yul\":3101:3111   */\n  dup1\n    /* \"#utility.yul\":3097:3099   */\n  0x40\n    /* \"#utility.yul\":3090:3112   */\n  mstore\n    /* \"#utility.yul\":2880:3118   */\n  pop\n    /* \"#utility.yul\":2837:3118   */\n  pop\n  pop\n  jump\t// out\n    /* \"#utility.yul\":3124:3304   */\ntag_71:\n    /* \"#utility.yul\":3172:3249   */\n  0x4e487b7100000000000000000000000000000000000000000000000000000000\n    /* \"#utility.yul\":3169:3170   */\n  0x00\n    /* \"#utility.yul\":3162:3250   */\n  mstore\n    /* \"#utility.yul\":3269:3273   */\n  0x22\n    /* \"#utility.yul\":3266:3267   */\n  0x04\n    /* \"#utility.yul\":3259:3274   */\n  mstore\n    /* \"#utility.yul\":3293:3297   */\n  0x24\n    /* \"#utility.yul\":3290:3291   */\n  0x00\n    /* \"#utility.yul\":3283:3298   */\n  revert\n    /* \"#utility.yul\":3310:3490   */\ntag_59:\n    /* \"#utility.yul\":3358:3435   */\n  0x4e487b7100000000000000000000000000000000000000000000000000000000\n    /* \"#utility.yul\":3355:3356   */\n  0x00\n    /* \"#utility.yul\":3348:3436   */\n  mstore\n    /* \"#utility.yul\":3455:3459   */\n  0x41\n    /* \"#utility.yul\":3452:3453   */\n  0x04\n    /* \"#utility.yul\":3445:3460   */\n  mstore\n    /* \"#utility.yul\":3479:3483   */\n  0x24\n    /* \"#utility.yul\":3476:3477   */\n  0x00\n    /* \"#utility.yul\":3469:3484   */\n  revert\n    /* \"#utility.yul\":3496:3613   */\ntag_37:\n    /* \"#utility.yul\":3605:3606   */\n  0x00\n    /* \"#utility.yul\":3602:3603   */\n  dup1\n    /* \"#utility.yul\":3595:3607   */\n  revert\n    /* \"#utility.yul\":3619:3736   */\ntag_30:\n    /* \"#utility.yul\":3728:3729   */\n  0x00\n    /* \"#utility.yul\":3725:3726   */\n  dup1\n    /* \"#utility.yul\":3718:3730   */\n  revert\n    /* \"#utility.yul\":3742:3859   */\ntag_45:\n    /* \"#utility.yul\":3851:3852   */\n  0x00\n    /* \"#utility.yul\":3848:3849   */\n  dup1\n    /* \"#utility.yul\":3841:3853   */\n  revert\n    /* \"#utility.yul\":3865:3982   */\ntag_42:\n    /* \"#utility.yul\":3974:3975   */\n  0x00\n    /* \"#utility.yul\":3971:3972   */\n  dup1\n    /* \"#utility.yul\":3964:3976   */\n  revert\n    /* \"#utility.yul\":3988:4090   */\ntag_61:\n    /* \"#utility.yul\":4029:4035   */\n  0x00\n    /* \"#utility.yul\":4080:4082   */\n  0x1f\n    /* \"#utility.yul\":4076:4083   */\n  not\n    /* \"#utility.yul\":4071:4073   */\n  0x1f\n    /* \"#utility.yul\":4064:4069   */\n  dup4\n    /* \"#utility.yul\":4060:4074   */\n  add\n    /* \"#utility.yul\":4056:4084   */\n  and\n    /* \"#utility.yul\":4046:4084   */\n  swap1\n  pop\n    /* \"#utility.yul\":3988:4090   */\n  swap2\n  swap1\n  pop\n  jump\t// out\n    /* \"QvToken/ERC20.sol\":1419:14348  contract ERC20 is Context, IERC20, IERC20Metadata {\r... */\ntag_9:\n  dataSize(sub_0)\n  dup1\n  dataOffset(sub_0)\n  0x00\n  codecopy\n  0x00\n  return\nstop\n\nsub_0: assembly {\n        /* \"QvToken/ERC20.sol\":1419:14348  contract ERC20 is Context, IERC20, IERC20Metadata {\r... */\n      mstore(0x40, 0x80)\n      callvalue\n      dup1\n      iszero\n      tag_1\n      jumpi\n      0x00\n      dup1\n      revert\n    tag_1:\n      pop\n      jumpi(tag_2, lt(calldatasize, 0x04))\n      shr(0xe0, calldataload(0x00))\n      dup1\n      0x06fdde03\n      eq\n      tag_3\n      jumpi\n      dup1\n      0x18160ddd\n      eq\n      tag_4\n      jumpi\n      dup1\n      0x313ce567\n      eq\n      tag_5\n      jumpi\n      dup1\n      0x70a08231\n      eq\n      tag_6\n      jumpi\n      dup1\n      0x95d89b41\n      eq\n      tag_7\n      jumpi\n    tag_2:\n      0x00\n      dup1\n      revert\n        /* \"QvToken/ERC20.sol\":2202:2302  function name() public view virtual override returns (string memory) {\r... */\n    tag_3:\n      tag_8\n      tag_9\n      jump\t// in\n    tag_8:\n      mload(0x40)\n      tag_10\n      swap2\n      swap1\n      tag_11\n      jump\t// in\n    tag_10:\n      mload(0x40)\n      dup1\n      swap2\n      sub\n      swap1\n      return\n        /* \"QvToken/ERC20.sol\":3322:3430  function totalSupply() public view virtual override returns (uint256) {\r... */\n    tag_4:\n      tag_12\n      tag_13\n      jump\t// in\n    tag_12:\n      mload(0x40)\n      tag_14\n      swap2\n      swap1\n      tag_15\n      jump\t// in\n    tag_14:\n      mload(0x40)\n      dup1\n      swap2\n      sub\n      swap1\n      return\n        /* \"QvToken/ERC20.sol\":3164:3257  function decimals() public view virtual override returns (uint8) {\r... */\n    tag_5:\n      tag_16\n      tag_17\n      jump\t// in\n    tag_16:\n      mload(0x40)\n      tag_18\n      swap2\n      swap1\n      tag_19\n      jump\t// in\n    tag_18:\n      mload(0x40)\n      dup1\n      swap2\n      sub\n      swap1\n      return\n        /* \"QvToken/ERC20.sol\":3493:3620  function balanceOf(address account) public view virtual override returns (uint256) {\r... */\n    tag_6:\n      tag_20\n      0x04\n      dup1\n      calldatasize\n      sub\n      dup2\n      add\n      swap1\n      tag_21\n      swap2\n      swap1\n      tag_22\n      jump\t// in\n    tag_21:\n      tag_23\n      jump\t// in\n    tag_20:\n      mload(0x40)\n      tag_24\n      swap2\n      swap1\n      tag_15\n      jump\t// in\n    tag_24:\n      mload(0x40)\n      dup1\n      swap2\n      sub\n      swap1\n      return\n        /* \"QvToken/ERC20.sol\":2421:2525  function symbol() public view virtual override returns (string memory) {\r... */\n    tag_7:\n      tag_25\n      tag_26\n      jump\t// in\n    tag_25:\n      mload(0x40)\n      tag_27\n      swap2\n      swap1\n      tag_11\n      jump\t// in\n    tag_27:\n      mload(0x40)\n      dup1\n      swap2\n      sub\n      swap1\n      return\n        /* \"QvToken/ERC20.sol\":2202:2302  function name() public view virtual override returns (string memory) {\r... */\n    tag_9:\n        /* \"QvToken/ERC20.sol\":2256:2269  string memory */\n      0x60\n        /* \"QvToken/ERC20.sol\":2289:2294  _name */\n      0x02\n        /* \"QvToken/ERC20.sol\":2282:2294  return _name */\n      dup1\n      sload\n      tag_29\n      swap1\n      tag_30\n      jump\t// in\n    tag_29:\n      dup1\n      0x1f\n      add\n      0x20\n      dup1\n      swap2\n      div\n      mul\n      0x20\n      add\n      mload(0x40)\n      swap1\n      dup2\n      add\n      0x40\n      mstore\n      dup1\n      swap3\n      swap2\n      swap1\n      dup2\n      dup2\n      mstore\n      0x20\n      add\n      dup3\n      dup1\n      sload\n      tag_31\n      swap1\n      tag_30\n      jump\t// in\n    tag_31:\n      dup1\n      iszero\n      tag_32\n      jumpi\n      dup1\n      0x1f\n      lt\n      tag_33\n      jumpi\n      0x0100\n      dup1\n      dup4\n      sload\n      div\n      mul\n      dup4\n      mstore\n      swap2\n      0x20\n      add\n      swap2\n      jump(tag_32)\n    tag_33:\n      dup3\n      add\n      swap2\n      swap1\n      0x00\n      mstore\n      keccak256(0x00, 0x20)\n      swap1\n    tag_34:\n      dup2\n      sload\n      dup2\n      mstore\n      swap1\n      0x01\n      add\n      swap1\n      0x20\n      add\n      dup1\n      dup4\n      gt\n      tag_34\n      jumpi\n      dup3\n      swap1\n      sub\n      0x1f\n      and\n      dup3\n      add\n      swap2\n    tag_32:\n      pop\n      pop\n      pop\n      pop\n      pop\n      swap1\n      pop\n        /* \"QvToken/ERC20.sol\":2202:2302  function name() public view virtual override returns (string memory) {\r... */\n      swap1\n      jump\t// out\n        /* \"QvToken/ERC20.sol\":3322:3430  function totalSupply() public view virtual override returns (uint256) {\r... */\n    tag_13:\n        /* \"QvToken/ERC20.sol\":3383:3390  uint256 */\n      0x00\n        /* \"QvToken/ERC20.sol\":3410:3422  _totalSupply */\n      sload(0x01)\n        /* \"QvToken/ERC20.sol\":3403:3422  return _totalSupply */\n      swap1\n      pop\n        /* \"QvToken/ERC20.sol\":3322:3430  function totalSupply() public view virtual override returns (uint256) {\r... */\n      swap1\n      jump\t// out\n        /* \"QvToken/ERC20.sol\":3164:3257  function decimals() public view virtual override returns (uint8) {\r... */\n    tag_17:\n        /* \"QvToken/ERC20.sol\":3222:3227  uint8 */\n      0x00\n        /* \"QvToken/ERC20.sol\":3247:3249  18 */\n      0x12\n        /* \"QvToken/ERC20.sol\":3240:3249  return 18 */\n      swap1\n      pop\n        /* \"QvToken/ERC20.sol\":3164:3257  function decimals() public view virtual override returns (uint8) {\r... */\n      swap1\n      jump\t// out\n        /* \"QvToken/ERC20.sol\":3493:3620  function balanceOf(address account) public view virtual override returns (uint256) {\r... */\n    tag_23:\n        /* \"QvToken/ERC20.sol\":3567:3574  uint256 */\n      0x00\n        /* \"QvToken/ERC20.sol\":3594:3603  _balances */\n      dup1\n        /* \"QvToken/ERC20.sol\":3594:3612  _balances[account] */\n      0x00\n        /* \"QvToken/ERC20.sol\":3604:3611  account */\n      dup4\n        /* \"QvToken/ERC20.sol\":3594:3612  _balances[account] */\n      0xffffffffffffffffffffffffffffffffffffffff\n      and\n      0xffffffffffffffffffffffffffffffffffffffff\n      and\n      dup2\n      mstore\n      0x20\n      add\n      swap1\n      dup2\n      mstore\n      0x20\n      add\n      0x00\n      keccak256\n      sload\n        /* \"QvToken/ERC20.sol\":3587:3612  return _balances[account] */\n      swap1\n      pop\n        /* \"QvToken/ERC20.sol\":3493:3620  function balanceOf(address account) public view virtual override returns (uint256) {\r... */\n      swap2\n      swap1\n      pop\n      jump\t// out\n        /* \"QvToken/ERC20.sol\":2421:2525  function symbol() public view virtual override returns (string memory) {\r... */\n    tag_26:\n        /* \"QvToken/ERC20.sol\":2477:2490  string memory */\n      0x60\n        /* \"QvToken/ERC20.sol\":2510:2517  _symbol */\n      0x03\n        /* \"QvToken/ERC20.sol\":2503:2517  return _symbol */\n      dup1\n      sload\n      tag_39\n      swap1\n      tag_30\n      jump\t// in\n    tag_39:\n      dup1\n      0x1f\n      add\n      0x20\n      dup1\n      swap2\n      div\n      mul\n      0x20\n      add\n      mload(0x40)\n      swap1\n      dup2\n      add\n      0x40\n      mstore\n      dup1\n      swap3\n      swap2\n      swap1\n      dup2\n      dup2\n      mstore\n      0x20\n      add\n      dup3\n      dup1\n      sload\n      tag_40\n      swap1\n      tag_30\n      jump\t// in\n    tag_40:\n      dup1\n      iszero\n      tag_41\n      jumpi\n      dup1\n      0x1f\n      lt\n      tag_42\n      jumpi\n      0x0100\n      dup1\n      dup4\n      sload\n      div\n      mul\n      dup4\n      mstore\n      swap2\n      0x20\n      add\n      swap2\n      jump(tag_41)\n    tag_42:\n      dup3\n      add\n      swap2\n      swap1\n      0x00\n      mstore\n      keccak256(0x00, 0x20)\n      swap1\n    tag_43:\n      dup2\n      sload\n      dup2\n      mstore\n      swap1\n      0x01\n      add\n      swap1\n      0x20\n      add\n      dup1\n      dup4\n      gt\n      tag_43\n      jumpi\n      dup3\n      swap1\n      sub\n      0x1f\n      and\n      dup3\n      add\n      swap2\n    tag_41:\n      pop\n      pop\n      pop\n      pop\n      pop\n      swap1\n      pop\n        /* \"QvToken/ERC20.sol\":2421:2525  function symbol() public view virtual override returns (string memory) {\r... */\n      swap1\n      jump\t// out\n        /* \"#utility.yul\":7:146   */\n    tag_45:\n        /* \"#utility.yul\":53:58   */\n      0x00\n        /* \"#utility.yul\":91:97   */\n      dup2\n        /* \"#utility.yul\":78:98   */\n      calldataload\n        /* \"#utility.yul\":69:98   */\n      swap1\n      pop\n        /* \"#utility.yul\":107:140   */\n      tag_47\n        /* \"#utility.yul\":134:139   */\n      dup2\n        /* \"#utility.yul\":107:140   */\n      tag_48\n      jump\t// in\n    tag_47:\n        /* \"#utility.yul\":7:146   */\n      swap3\n      swap2\n      pop\n      pop\n      jump\t// out\n        /* \"#utility.yul\":152:481   */\n    tag_22:\n        /* \"#utility.yul\":211:217   */\n      0x00\n        /* \"#utility.yul\":260:262   */\n      0x20\n        /* \"#utility.yul\":248:257   */\n      dup3\n        /* \"#utility.yul\":239:246   */\n      dup5\n        /* \"#utility.yul\":235:258   */\n      sub\n        /* \"#utility.yul\":231:263   */\n      slt\n        /* \"#utility.yul\":228:347   */\n      iszero\n      tag_50\n      jumpi\n        /* \"#utility.yul\":266:345   */\n      tag_51\n      tag_52\n      jump\t// in\n    tag_51:\n        /* \"#utility.yul\":228:347   */\n    tag_50:\n        /* \"#utility.yul\":386:387   */\n      0x00\n        /* \"#utility.yul\":411:464   */\n      tag_53\n        /* \"#utility.yul\":456:463   */\n      dup5\n        /* \"#utility.yul\":447:453   */\n      dup3\n        /* \"#utility.yul\":436:445   */\n      dup6\n        /* \"#utility.yul\":432:454   */\n      add\n        /* \"#utility.yul\":411:464   */\n      tag_45\n      jump\t// in\n    tag_53:\n        /* \"#utility.yul\":401:464   */\n      swap2\n      pop\n        /* \"#utility.yul\":357:474   */\n      pop\n        /* \"#utility.yul\":152:481   */\n      swap3\n      swap2\n      pop\n      pop\n      jump\t// out\n        /* \"#utility.yul\":487:851   */\n    tag_54:\n        /* \"#utility.yul\":575:578   */\n      0x00\n        /* \"#utility.yul\":603:642   */\n      tag_56\n        /* \"#utility.yul\":636:641   */\n      dup3\n        /* \"#utility.yul\":603:642   */\n      tag_57\n      jump\t// in\n    tag_56:\n        /* \"#utility.yul\":658:729   */\n      tag_58\n        /* \"#utility.yul\":722:728   */\n      dup2\n        /* \"#utility.yul\":717:720   */\n      dup6\n        /* \"#utility.yul\":658:729   */\n      tag_59\n      jump\t// in\n    tag_58:\n        /* \"#utility.yul\":651:729   */\n      swap4\n      pop\n        /* \"#utility.yul\":738:790   */\n      tag_60\n        /* \"#utility.yul\":783:789   */\n      dup2\n        /* \"#utility.yul\":778:781   */\n      dup6\n        /* \"#utility.yul\":771:775   */\n      0x20\n        /* \"#utility.yul\":764:769   */\n      dup7\n        /* \"#utility.yul\":760:776   */\n      add\n        /* \"#utility.yul\":738:790   */\n      tag_61\n      jump\t// in\n    tag_60:\n        /* \"#utility.yul\":815:844   */\n      tag_62\n        /* \"#utility.yul\":837:843   */\n      dup2\n        /* \"#utility.yul\":815:844   */\n      tag_63\n      jump\t// in\n    tag_62:\n        /* \"#utility.yul\":810:813   */\n      dup5\n        /* \"#utility.yul\":806:845   */\n      add\n        /* \"#utility.yul\":799:845   */\n      swap2\n      pop\n        /* \"#utility.yul\":579:851   */\n      pop\n        /* \"#utility.yul\":487:851   */\n      swap3\n      swap2\n      pop\n      pop\n      jump\t// out\n        /* \"#utility.yul\":857:975   */\n    tag_64:\n        /* \"#utility.yul\":944:968   */\n      tag_66\n        /* \"#utility.yul\":962:967   */\n      dup2\n        /* \"#utility.yul\":944:968   */\n      tag_67\n      jump\t// in\n    tag_66:\n        /* \"#utility.yul\":939:942   */\n      dup3\n        /* \"#utility.yul\":932:969   */\n      mstore\n        /* \"#utility.yul\":857:975   */\n      pop\n      pop\n      jump\t// out\n        /* \"#utility.yul\":981:1093   */\n    tag_68:\n        /* \"#utility.yul\":1064:1086   */\n      tag_70\n        /* \"#utility.yul\":1080:1085   */\n      dup2\n        /* \"#utility.yul\":1064:1086   */\n      tag_71\n      jump\t// in\n    tag_70:\n        /* \"#utility.yul\":1059:1062   */\n      dup3\n        /* \"#utility.yul\":1052:1087   */\n      mstore\n        /* \"#utility.yul\":981:1093   */\n      pop\n      pop\n      jump\t// out\n        /* \"#utility.yul\":1099:1412   */\n    tag_11:\n        /* \"#utility.yul\":1212:1216   */\n      0x00\n        /* \"#utility.yul\":1250:1252   */\n      0x20\n        /* \"#utility.yul\":1239:1248   */\n      dup3\n        /* \"#utility.yul\":1235:1253   */\n      add\n        /* \"#utility.yul\":1227:1253   */\n      swap1\n      pop\n        /* \"#utility.yul\":1299:1308   */\n      dup2\n        /* \"#utility.yul\":1293:1297   */\n      dup2\n        /* \"#utility.yul\":1289:1309   */\n      sub\n        /* \"#utility.yul\":1285:1286   */\n      0x00\n        /* \"#utility.yul\":1274:1283   */\n      dup4\n        /* \"#utility.yul\":1270:1287   */\n      add\n        /* \"#utility.yul\":1263:1310   */\n      mstore\n        /* \"#utility.yul\":1327:1405   */\n      tag_73\n        /* \"#utility.yul\":1400:1404   */\n      dup2\n        /* \"#utility.yul\":1391:1397   */\n      dup5\n        /* \"#utility.yul\":1327:1405   */\n      tag_54\n      jump\t// in\n    tag_73:\n        /* \"#utility.yul\":1319:1405   */\n      swap1\n      pop\n        /* \"#utility.yul\":1099:1412   */\n      swap3\n      swap2\n      pop\n      pop\n      jump\t// out\n        /* \"#utility.yul\":1418:1640   */\n    tag_15:\n        /* \"#utility.yul\":1511:1515   */\n      0x00\n        /* \"#utility.yul\":1549:1551   */\n      0x20\n        /* \"#utility.yul\":1538:1547   */\n      dup3\n        /* \"#utility.yul\":1534:1552   */\n      add\n        /* \"#utility.yul\":1526:1552   */\n      swap1\n      pop\n        /* \"#utility.yul\":1562:1633   */\n      tag_75\n        /* \"#utility.yul\":1630:1631   */\n      0x00\n        /* \"#utility.yul\":1619:1628   */\n      dup4\n        /* \"#utility.yul\":1615:1632   */\n      add\n        /* \"#utility.yul\":1606:1612   */\n      dup5\n        /* \"#utility.yul\":1562:1633   */\n      tag_64\n      jump\t// in\n    tag_75:\n        /* \"#utility.yul\":1418:1640   */\n      swap3\n      swap2\n      pop\n      pop\n      jump\t// out\n        /* \"#utility.yul\":1646:1860   */\n    tag_19:\n        /* \"#utility.yul\":1735:1739   */\n      0x00\n        /* \"#utility.yul\":1773:1775   */\n      0x20\n        /* \"#utility.yul\":1762:1771   */\n      dup3\n        /* \"#utility.yul\":1758:1776   */\n      add\n        /* \"#utility.yul\":1750:1776   */\n      swap1\n      pop\n        /* \"#utility.yul\":1786:1853   */\n      tag_77\n        /* \"#utility.yul\":1850:1851   */\n      0x00\n        /* \"#utility.yul\":1839:1848   */\n      dup4\n        /* \"#utility.yul\":1835:1852   */\n      add\n        /* \"#utility.yul\":1826:1832   */\n      dup5\n        /* \"#utility.yul\":1786:1853   */\n      tag_68\n      jump\t// in\n    tag_77:\n        /* \"#utility.yul\":1646:1860   */\n      swap3\n      swap2\n      pop\n      pop\n      jump\t// out\n        /* \"#utility.yul\":1947:2046   */\n    tag_57:\n        /* \"#utility.yul\":1999:2005   */\n      0x00\n        /* \"#utility.yul\":2033:2038   */\n      dup2\n        /* \"#utility.yul\":2027:2039   */\n      mload\n        /* \"#utility.yul\":2017:2039   */\n      swap1\n      pop\n        /* \"#utility.yul\":1947:2046   */\n      swap2\n      swap1\n      pop\n      jump\t// out\n        /* \"#utility.yul\":2052:2221   */\n    tag_59:\n        /* \"#utility.yul\":2136:2147   */\n      0x00\n        /* \"#utility.yul\":2170:2176   */\n      dup3\n        /* \"#utility.yul\":2165:2168   */\n      dup3\n        /* \"#utility.yul\":2158:2177   */\n      mstore\n        /* \"#utility.yul\":2210:2214   */\n      0x20\n        /* \"#utility.yul\":2205:2208   */\n      dup3\n        /* \"#utility.yul\":2201:2215   */\n      add\n        /* \"#utility.yul\":2186:2215   */\n      swap1\n      pop\n        /* \"#utility.yul\":2052:2221   */\n      swap3\n      swap2\n      pop\n      pop\n      jump\t// out\n        /* \"#utility.yul\":2227:2323   */\n    tag_82:\n        /* \"#utility.yul\":2264:2271   */\n      0x00\n        /* \"#utility.yul\":2293:2317   */\n      tag_84\n        /* \"#utility.yul\":2311:2316   */\n      dup3\n        /* \"#utility.yul\":2293:2317   */\n      tag_85\n      jump\t// in\n    tag_84:\n        /* \"#utility.yul\":2282:2317   */\n      swap1\n      pop\n        /* \"#utility.yul\":2227:2323   */\n      swap2\n      swap1\n      pop\n      jump\t// out\n        /* \"#utility.yul\":2329:2455   */\n    tag_85:\n        /* \"#utility.yul\":2366:2373   */\n      0x00\n        /* \"#utility.yul\":2406:2448   */\n      0xffffffffffffffffffffffffffffffffffffffff\n        /* \"#utility.yul\":2399:2404   */\n      dup3\n        /* \"#utility.yul\":2395:2449   */\n      and\n        /* \"#utility.yul\":2384:2449   */\n      swap1\n      pop\n        /* \"#utility.yul\":2329:2455   */\n      swap2\n      swap1\n      pop\n      jump\t// out\n        /* \"#utility.yul\":2461:2538   */\n    tag_67:\n        /* \"#utility.yul\":2498:2505   */\n      0x00\n        /* \"#utility.yul\":2527:2532   */\n      dup2\n        /* \"#utility.yul\":2516:2532   */\n      swap1\n      pop\n        /* \"#utility.yul\":2461:2538   */\n      swap2\n      swap1\n      pop\n      jump\t// out\n        /* \"#utility.yul\":2544:2630   */\n    tag_71:\n        /* \"#utility.yul\":2579:2586   */\n      0x00\n        /* \"#utility.yul\":2619:2623   */\n      0xff\n        /* \"#utility.yul\":2612:2617   */\n      dup3\n        /* \"#utility.yul\":2608:2624   */\n      and\n        /* \"#utility.yul\":2597:2624   */\n      swap1\n      pop\n        /* \"#utility.yul\":2544:2630   */\n      swap2\n      swap1\n      pop\n      jump\t// out\n        /* \"#utility.yul\":2636:2943   */\n    tag_61:\n        /* \"#utility.yul\":2704:2705   */\n      0x00\n        /* \"#utility.yul\":2714:2827   */\n    tag_90:\n        /* \"#utility.yul\":2728:2734   */\n      dup4\n        /* \"#utility.yul\":2725:2726   */\n      dup2\n        /* \"#utility.yul\":2722:2735   */\n      lt\n        /* \"#utility.yul\":2714:2827   */\n      iszero\n      tag_92\n      jumpi\n        /* \"#utility.yul\":2813:2814   */\n      dup1\n        /* \"#utility.yul\":2808:2811   */\n      dup3\n        /* \"#utility.yul\":2804:2815   */\n      add\n        /* \"#utility.yul\":2798:2816   */\n      mload\n        /* \"#utility.yul\":2794:2795   */\n      dup2\n        /* \"#utility.yul\":2789:2792   */\n      dup5\n        /* \"#utility.yul\":2785:2796   */\n      add\n        /* \"#utility.yul\":2778:2817   */\n      mstore\n        /* \"#utility.yul\":2750:2752   */\n      0x20\n        /* \"#utility.yul\":2747:2748   */\n      dup2\n        /* \"#utility.yul\":2743:2753   */\n      add\n        /* \"#utility.yul\":2738:2753   */\n      swap1\n      pop\n        /* \"#utility.yul\":2714:2827   */\n      jump(tag_90)\n    tag_92:\n        /* \"#utility.yul\":2845:2851   */\n      dup4\n        /* \"#utility.yul\":2842:2843   */\n      dup2\n        /* \"#utility.yul\":2839:2852   */\n      gt\n        /* \"#utility.yul\":2836:2937   */\n      iszero\n      tag_93\n      jumpi\n        /* \"#utility.yul\":2925:2926   */\n      0x00\n        /* \"#utility.yul\":2916:2922   */\n      dup5\n        /* \"#utility.yul\":2911:2914   */\n      dup5\n        /* \"#utility.yul\":2907:2923   */\n      add\n        /* \"#utility.yul\":2900:2927   */\n      mstore\n        /* \"#utility.yul\":2836:2937   */\n    tag_93:\n        /* \"#utility.yul\":2685:2943   */\n      pop\n        /* \"#utility.yul\":2636:2943   */\n      pop\n      pop\n      pop\n      jump\t// out\n        /* \"#utility.yul\":2949:3269   */\n    tag_30:\n        /* \"#utility.yul\":2993:2999   */\n      0x00\n        /* \"#utility.yul\":3030:3031   */\n      0x02\n        /* \"#utility.yul\":3024:3028   */\n      dup3\n        /* \"#utility.yul\":3020:3032   */\n      div\n        /* \"#utility.yul\":3010:3032   */\n      swap1\n      pop\n        /* \"#utility.yul\":3077:3078   */\n      0x01\n        /* \"#utility.yul\":3071:3075   */\n      dup3\n        /* \"#utility.yul\":3067:3079   */\n      and\n        /* \"#utility.yul\":3098:3116   */\n      dup1\n        /* \"#utility.yul\":3088:3169   */\n      tag_95\n      jumpi\n        /* \"#utility.yul\":3154:3158   */\n      0x7f\n        /* \"#utility.yul\":3146:3152   */\n      dup3\n        /* \"#utility.yul\":3142:3159   */\n      and\n        /* \"#utility.yul\":3132:3159   */\n      swap2\n      pop\n        /* \"#utility.yul\":3088:3169   */\n    tag_95:\n        /* \"#utility.yul\":3216:3218   */\n      0x20\n        /* \"#utility.yul\":3208:3214   */\n      dup3\n        /* \"#utility.yul\":3205:3219   */\n      lt\n        /* \"#utility.yul\":3185:3203   */\n      dup2\n        /* \"#utility.yul\":3182:3220   */\n      eq\n        /* \"#utility.yul\":3179:3263   */\n      iszero\n      tag_96\n      jumpi\n        /* \"#utility.yul\":3235:3253   */\n      tag_97\n      tag_98\n      jump\t// in\n    tag_97:\n        /* \"#utility.yul\":3179:3263   */\n    tag_96:\n        /* \"#utility.yul\":3000:3269   */\n      pop\n        /* \"#utility.yul\":2949:3269   */\n      swap2\n      swap1\n      pop\n      jump\t// out\n        /* \"#utility.yul\":3275:3455   */\n    tag_98:\n        /* \"#utility.yul\":3323:3400   */\n      0x4e487b7100000000000000000000000000000000000000000000000000000000\n        /* \"#utility.yul\":3320:3321   */\n      0x00\n        /* \"#utility.yul\":3313:3401   */\n      mstore\n        /* \"#utility.yul\":3420:3424   */\n      0x22\n        /* \"#utility.yul\":3417:3418   */\n      0x04\n        /* \"#utility.yul\":3410:3425   */\n      mstore\n        /* \"#utility.yul\":3444:3448   */\n      0x24\n        /* \"#utility.yul\":3441:3442   */\n      0x00\n        /* \"#utility.yul\":3434:3449   */\n      revert\n        /* \"#utility.yul\":3584:3701   */\n    tag_52:\n        /* \"#utility.yul\":3693:3694   */\n      0x00\n        /* \"#utility.yul\":3690:3691   */\n      dup1\n        /* \"#utility.yul\":3683:3695   */\n      revert\n        /* \"#utility.yul\":3707:3809   */\n    tag_63:\n        /* \"#utility.yul\":3748:3754   */\n      0x00\n        /* \"#utility.yul\":3799:3801   */\n      0x1f\n        /* \"#utility.yul\":3795:3802   */\n      not\n        /* \"#utility.yul\":3790:3792   */\n      0x1f\n        /* \"#utility.yul\":3783:3788   */\n      dup4\n        /* \"#utility.yul\":3779:3793   */\n      add\n        /* \"#utility.yul\":3775:3803   */\n      and\n        /* \"#utility.yul\":3765:3803   */\n      swap1\n      pop\n        /* \"#utility.yul\":3707:3809   */\n      swap2\n      swap1\n      pop\n      jump\t// out\n        /* \"#utility.yul\":3815:3937   */\n    tag_48:\n        /* \"#utility.yul\":3888:3912   */\n      tag_105\n        /* \"#utility.yul\":3906:3911   */\n      dup2\n        /* \"#utility.yul\":3888:3912   */\n      tag_82\n      jump\t// in\n    tag_105:\n        /* \"#utility.yul\":3881:3886   */\n      dup2\n        /* \"#utility.yul\":3878:3913   */\n      eq\n        /* \"#utility.yul\":3868:3931   */\n      tag_106\n      jumpi\n        /* \"#utility.yul\":3927:3928   */\n      0x00\n        /* \"#utility.yul\":3924:3925   */\n      dup1\n        /* \"#utility.yul\":3917:3929   */\n      revert\n        /* \"#utility.yul\":3868:3931   */\n    tag_106:\n        /* \"#utility.yul\":3815:3937   */\n      pop\n      jump\t// out\n\n    auxdata: 0xa2646970667358221220814bc9472d83708e07edcc9775e3105f0c79ddb4cc92677efa3f3795062c773a64736f6c63430008070033\n}\n",
				"bytecode": {
					"linkReferences": {},
					"object": "60806040523480156200001157600080fd5b50604051620008883803806200088883398181016040528101906200003791906200019f565b81600290805190602001906200004f92919062000071565b5080600390805190602001906200006892919062000071565b505050620003a8565b8280546200007f90620002b9565b90600052602060002090601f016020900481019282620000a35760008555620000ef565b82601f10620000be57805160ff1916838001178555620000ef565b82800160010185558215620000ef579182015b82811115620000ee578251825591602001919060010190620000d1565b5b509050620000fe919062000102565b5090565b5b808211156200011d57600081600090555060010162000103565b5090565b60006200013862000132846200024d565b62000224565b90508281526020810184848401111562000157576200015662000388565b5b6200016484828562000283565b509392505050565b600082601f83011262000184576200018362000383565b5b81516200019684826020860162000121565b91505092915050565b60008060408385031215620001b957620001b862000392565b5b600083015167ffffffffffffffff811115620001da57620001d96200038d565b5b620001e8858286016200016c565b925050602083015167ffffffffffffffff8111156200020c576200020b6200038d565b5b6200021a858286016200016c565b9150509250929050565b60006200023062000243565b90506200023e8282620002ef565b919050565b6000604051905090565b600067ffffffffffffffff8211156200026b576200026a62000354565b5b620002768262000397565b9050602081019050919050565b60005b83811015620002a357808201518184015260208101905062000286565b83811115620002b3576000848401525b50505050565b60006002820490506001821680620002d257607f821691505b60208210811415620002e957620002e862000325565b5b50919050565b620002fa8262000397565b810181811067ffffffffffffffff821117156200031c576200031b62000354565b5b80604052505050565b7f4e487b7100000000000000000000000000000000000000000000000000000000600052602260045260246000fd5b7f4e487b7100000000000000000000000000000000000000000000000000000000600052604160045260246000fd5b600080fd5b600080fd5b600080fd5b600080fd5b6000601f19601f8301169050919050565b6104d080620003b86000396000f3fe608060405234801561001057600080fd5b50600436106100575760003560e01c806306fdde031461005c57806318160ddd1461007a578063313ce5671461009857806370a08231146100b657806395d89b41146100e6575b600080fd5b610064610104565b604051610071919061031c565b60405180910390f35b610082610196565b60405161008f919061033e565b60405180910390f35b6100a06101a0565b6040516100ad9190610359565b60405180910390f35b6100d060048036038101906100cb9190610298565b6101a9565b6040516100dd919061033e565b60405180910390f35b6100ee6101f1565b6040516100fb919061031c565b60405180910390f35b6060600280546101139061040c565b80601f016020809104026020016040519081016040528092919081815260200182805461013f9061040c565b801561018c5780601f106101615761010080835404028352916020019161018c565b820191906000526020600020905b81548152906001019060200180831161016f57829003601f168201915b5050505050905090565b6000600154905090565b60006012905090565b60008060008373ffffffffffffffffffffffffffffffffffffffff1673ffffffffffffffffffffffffffffffffffffffff168152602001908152602001600020549050919050565b6060600380546102009061040c565b80601f016020809104026020016040519081016040528092919081815260200182805461022c9061040c565b80156102795780601f1061024e57610100808354040283529160200191610279565b820191906000526020600020905b81548152906001019060200180831161025c57829003601f168201915b5050505050905090565b60008135905061029281610483565b92915050565b6000602082840312156102ae576102ad61046d565b5b60006102bc84828501610283565b91505092915050565b60006102d082610374565b6102da818561037f565b93506102ea8185602086016103d9565b6102f381610472565b840191505092915050565b610307816103c2565b82525050565b610316816103cc565b82525050565b6000602082019050818103600083015261033681846102c5565b905092915050565b600060208201905061035360008301846102fe565b92915050565b600060208201905061036e600083018461030d565b92915050565b600081519050919050565b600082825260208201905092915050565b600061039b826103a2565b9050919050565b600073ffffffffffffffffffffffffffffffffffffffff82169050919050565b6000819050919050565b600060ff82169050919050565b60005b838110156103f75780820151818401526020810190506103dc565b83811115610406576000848401525b50505050565b6000600282049050600182168061042457607f821691505b602082108114156104385761043761043e565b5b50919050565b7f4e487b7100000000000000000000000000000000000000000000000000000000600052602260045260246000fd5b600080fd5b6000601f19601f8301169050919050565b61048c81610390565b811461049757600080fd5b5056fea2646970667358221220814bc9472d83708e07edcc9775e3105f0c79ddb4cc92677efa3f3795062c773a64736f6c63430008070033",
					"opcodes": "PUSH1 0x80 PUSH1 0x40 MSTORE CALLVALUE DUP1 ISZERO PUSH3 0x11 JUMPI PUSH1 0x0 DUP1 REVERT JUMPDEST POP PUSH1 0x40 MLOAD PUSH3 0x888 CODESIZE SUB DUP1 PUSH3 0x888 DUP4 CODECOPY DUP2 DUP2 ADD PUSH1 0x40 MSTORE DUP2 ADD SWAP1 PUSH3 0x37 SWAP2 SWAP1 PUSH3 0x19F JUMP JUMPDEST DUP2 PUSH1 0x2 SWAP1 DUP1 MLOAD SWAP1 PUSH1 0x20 ADD SWAP1 PUSH3 0x4F SWAP3 SWAP2 SWAP1 PUSH3 0x71 JUMP JUMPDEST POP DUP1 PUSH1 0x3 SWAP1 DUP1 MLOAD SWAP1 PUSH1 0x20 ADD SWAP1 PUSH3 0x68 SWAP3 SWAP2 SWAP1 PUSH3 0x71 JUMP JUMPDEST POP POP POP PUSH3 0x3A8 JUMP JUMPDEST DUP3 DUP1 SLOAD PUSH3 0x7F SWAP1 PUSH3 0x2B9 JUMP JUMPDEST SWAP1 PUSH1 0x0 MSTORE PUSH1 0x20 PUSH1 0x0 KECCAK256 SWAP1 PUSH1 0x1F ADD PUSH1 0x20 SWAP1 DIV DUP2 ADD SWAP3 DUP3 PUSH3 0xA3 JUMPI PUSH1 0x0 DUP6 SSTORE PUSH3 0xEF JUMP JUMPDEST DUP3 PUSH1 0x1F LT PUSH3 0xBE JUMPI DUP1 MLOAD PUSH1 0xFF NOT AND DUP4 DUP1 ADD OR DUP6 SSTORE PUSH3 0xEF JUMP JUMPDEST DUP3 DUP1 ADD PUSH1 0x1 ADD DUP6 SSTORE DUP3 ISZERO PUSH3 0xEF JUMPI SWAP2 DUP3 ADD JUMPDEST DUP3 DUP2 GT ISZERO PUSH3 0xEE JUMPI DUP3 MLOAD DUP3 SSTORE SWAP2 PUSH1 0x20 ADD SWAP2 SWAP1 PUSH1 0x1 ADD SWAP1 PUSH3 0xD1 JUMP JUMPDEST JUMPDEST POP SWAP1 POP PUSH3 0xFE SWAP2 SWAP1 PUSH3 0x102 JUMP JUMPDEST POP SWAP1 JUMP JUMPDEST JUMPDEST DUP1 DUP3 GT ISZERO PUSH3 0x11D JUMPI PUSH1 0x0 DUP2 PUSH1 0x0 SWAP1 SSTORE POP PUSH1 0x1 ADD PUSH3 0x103 JUMP JUMPDEST POP SWAP1 JUMP JUMPDEST PUSH1 0x0 PUSH3 0x138 PUSH3 0x132 DUP5 PUSH3 0x24D JUMP JUMPDEST PUSH3 0x224 JUMP JUMPDEST SWAP1 POP DUP3 DUP2 MSTORE PUSH1 0x20 DUP2 ADD DUP5 DUP5 DUP5 ADD GT ISZERO PUSH3 0x157 JUMPI PUSH3 0x156 PUSH3 0x388 JUMP JUMPDEST JUMPDEST PUSH3 0x164 DUP5 DUP3 DUP6 PUSH3 0x283 JUMP JUMPDEST POP SWAP4 SWAP3 POP POP POP JUMP JUMPDEST PUSH1 0x0 DUP3 PUSH1 0x1F DUP4 ADD SLT PUSH3 0x184 JUMPI PUSH3 0x183 PUSH3 0x383 JUMP JUMPDEST JUMPDEST DUP2 MLOAD PUSH3 0x196 DUP5 DUP3 PUSH1 0x20 DUP7 ADD PUSH3 0x121 JUMP JUMPDEST SWAP2 POP POP SWAP3 SWAP2 POP POP JUMP JUMPDEST PUSH1 0x0 DUP1 PUSH1 0x40 DUP4 DUP6 SUB SLT ISZERO PUSH3 0x1B9 JUMPI PUSH3 0x1B8 PUSH3 0x392 JUMP JUMPDEST JUMPDEST PUSH1 0x0 DUP4 ADD MLOAD PUSH8 0xFFFFFFFFFFFFFFFF DUP2 GT ISZERO PUSH3 0x1DA JUMPI PUSH3 0x1D9 PUSH3 0x38D JUMP JUMPDEST JUMPDEST PUSH3 0x1E8 DUP6 DUP3 DUP7 ADD PUSH3 0x16C JUMP JUMPDEST SWAP3 POP POP PUSH1 0x20 DUP4 ADD MLOAD PUSH8 0xFFFFFFFFFFFFFFFF DUP2 GT ISZERO PUSH3 0x20C JUMPI PUSH3 0x20B PUSH3 0x38D JUMP JUMPDEST JUMPDEST PUSH3 0x21A DUP6 DUP3 DUP7 ADD PUSH3 0x16C JUMP JUMPDEST SWAP2 POP POP SWAP3 POP SWAP3 SWAP1 POP JUMP JUMPDEST PUSH1 0x0 PUSH3 0x230 PUSH3 0x243 JUMP JUMPDEST SWAP1 POP PUSH3 0x23E DUP3 DUP3 PUSH3 0x2EF JUMP JUMPDEST SWAP2 SWAP1 POP JUMP JUMPDEST PUSH1 0x0 PUSH1 0x40 MLOAD SWAP1 POP SWAP1 JUMP JUMPDEST PUSH1 0x0 PUSH8 0xFFFFFFFFFFFFFFFF DUP3 GT ISZERO PUSH3 0x26B JUMPI PUSH3 0x26A PUSH3 0x354 JUMP JUMPDEST JUMPDEST PUSH3 0x276 DUP3 PUSH3 0x397 JUMP JUMPDEST SWAP1 POP PUSH1 0x20 DUP2 ADD SWAP1 POP SWAP2 SWAP1 POP JUMP JUMPDEST PUSH1 0x0 JUMPDEST DUP4 DUP2 LT ISZERO PUSH3 0x2A3 JUMPI DUP1 DUP3 ADD MLOAD DUP2 DUP5 ADD MSTORE PUSH1 0x20 DUP2 ADD SWAP1 POP PUSH3 0x286 JUMP JUMPDEST DUP4 DUP2 GT ISZERO PUSH3 0x2B3 JUMPI PUSH1 0x0 DUP5 DUP5 ADD MSTORE JUMPDEST POP POP POP POP JUMP JUMPDEST PUSH1 0x0 PUSH1 0x2 DUP3 DIV SWAP1 POP PUSH1 0x1 DUP3 AND DUP1 PUSH3 0x2D2 JUMPI PUSH1 0x7F DUP3 AND SWAP2 POP JUMPDEST PUSH1 0x20 DUP3 LT DUP2 EQ ISZERO PUSH3 0x2E9 JUMPI PUSH3 0x2E8 PUSH3 0x325 JUMP JUMPDEST JUMPDEST POP SWAP2 SWAP1 POP JUMP JUMPDEST PUSH3 0x2FA DUP3 PUSH3 0x397 JUMP JUMPDEST DUP2 ADD DUP2 DUP2 LT PUSH8 0xFFFFFFFFFFFFFFFF DUP3 GT OR ISZERO PUSH3 0x31C JUMPI PUSH3 0x31B PUSH3 0x354 JUMP JUMPDEST JUMPDEST DUP1 PUSH1 0x40 MSTORE POP POP POP JUMP JUMPDEST PUSH32 0x4E487B7100000000000000000000000000000000000000000000000000000000 PUSH1 0x0 MSTORE PUSH1 0x22 PUSH1 0x4 MSTORE PUSH1 0x24 PUSH1 0x0 REVERT JUMPDEST PUSH32 0x4E487B7100000000000000000000000000000000000000000000000000000000 PUSH1 0x0 MSTORE PUSH1 0x41 PUSH1 0x4 MSTORE PUSH1 0x24 PUSH1 0x0 REVERT JUMPDEST PUSH1 0x0 DUP1 REVERT JUMPDEST PUSH1 0x0 DUP1 REVERT JUMPDEST PUSH1 0x0 DUP1 REVERT JUMPDEST PUSH1 0x0 DUP1 REVERT JUMPDEST PUSH1 0x0 PUSH1 0x1F NOT PUSH1 0x1F DUP4 ADD AND SWAP1 POP SWAP2 SWAP1 POP JUMP JUMPDEST PUSH2 0x4D0 DUP1 PUSH3 0x3B8 PUSH1 0x0 CODECOPY PUSH1 0x0 RETURN INVALID PUSH1 0x80 PUSH1 0x40 MSTORE CALLVALUE DUP1 ISZERO PUSH2 0x10 JUMPI PUSH1 0x0 DUP1 REVERT JUMPDEST POP PUSH1 0x4 CALLDATASIZE LT PUSH2 0x57 JUMPI PUSH1 0x0 CALLDATALOAD PUSH1 0xE0 SHR DUP1 PUSH4 0x6FDDE03 EQ PUSH2 0x5C JUMPI DUP1 PUSH4 0x18160DDD EQ PUSH2 0x7A JUMPI DUP1 PUSH4 0x313CE567 EQ PUSH2 0x98 JUMPI DUP1 PUSH4 0x70A08231 EQ PUSH2 0xB6 JUMPI DUP1 PUSH4 0x95D89B41 EQ PUSH2 0xE6 JUMPI JUMPDEST PUSH1 0x0 DUP1 REVERT JUMPDEST PUSH2 0x64 PUSH2 0x104 JUMP JUMPDEST PUSH1 0x40 MLOAD PUSH2 0x71 SWAP2 SWAP1 PUSH2 0x31C JUMP JUMPDEST PUSH1 0x40 MLOAD DUP1 SWAP2 SUB SWAP1 RETURN JUMPDEST PUSH2 0x82 PUSH2 0x196 JUMP JUMPDEST PUSH1 0x40 MLOAD PUSH2 0x8F SWAP2 SWAP1 PUSH2 0x33E JUMP JUMPDEST PUSH1 0x40 MLOAD DUP1 SWAP2 SUB SWAP1 RETURN JUMPDEST PUSH2 0xA0 PUSH2 0x1A0 JUMP JUMPDEST PUSH1 0x40 MLOAD PUSH2 0xAD SWAP2 SWAP1 PUSH2 0x359 JUMP JUMPDEST PUSH1 0x40 MLOAD DUP1 SWAP2 SUB SWAP1 RETURN JUMPDEST PUSH2 0xD0 PUSH1 0x4 DUP1 CALLDATASIZE SUB DUP2 ADD SWAP1 PUSH2 0xCB SWAP2 SWAP1 PUSH2 0x298 JUMP JUMPDEST PUSH2 0x1A9 JUMP JUMPDEST PUSH1 0x40 MLOAD PUSH2 0xDD SWAP2 SWAP1 PUSH2 0x33E JUMP JUMPDEST PUSH1 0x40 MLOAD DUP1 SWAP2 SUB SWAP1 RETURN JUMPDEST PUSH2 0xEE PUSH2 0x1F1 JUMP JUMPDEST PUSH1 0x40 MLOAD PUSH2 0xFB SWAP2 SWAP1 PUSH2 0x31C JUMP JUMPDEST PUSH1 0x40 MLOAD DUP1 SWAP2 SUB SWAP1 RETURN JUMPDEST PUSH1 0x60 PUSH1 0x2 DUP1 SLOAD PUSH2 0x113 SWAP1 PUSH2 0x40C JUMP JUMPDEST DUP1 PUSH1 0x1F ADD PUSH1 0x20 DUP1 SWAP2 DIV MUL PUSH1 0x20 ADD PUSH1 0x40 MLOAD SWAP1 DUP2 ADD PUSH1 0x40 MSTORE DUP1 SWAP3 SWAP2 SWAP1 DUP2 DUP2 MSTORE PUSH1 0x20 ADD DUP3 DUP1 SLOAD PUSH2 0x13F SWAP1 PUSH2 0x40C JUMP JUMPDEST DUP1 ISZERO PUSH2 0x18C JUMPI DUP1 PUSH1 0x1F LT PUSH2 0x161 JUMPI PUSH2 0x100 DUP1 DUP4 SLOAD DIV MUL DUP4 MSTORE SWAP2 PUSH1 0x20 ADD SWAP2 PUSH2 0x18C JUMP JUMPDEST DUP3 ADD SWAP2 SWAP1 PUSH1 0x0 MSTORE PUSH1 0x20 PUSH1 0x0 KECCAK256 SWAP1 JUMPDEST DUP2 SLOAD DUP2 MSTORE SWAP1 PUSH1 0x1 ADD SWAP1 PUSH1 0x20 ADD DUP1 DUP4 GT PUSH2 0x16F JUMPI DUP3 SWAP1 SUB PUSH1 0x1F AND DUP3 ADD SWAP2 JUMPDEST POP POP POP POP POP SWAP1 POP SWAP1 JUMP JUMPDEST PUSH1 0x0 PUSH1 0x1 SLOAD SWAP1 POP SWAP1 JUMP JUMPDEST PUSH1 0x0 PUSH1 0x12 SWAP1 POP SWAP1 JUMP JUMPDEST PUSH1 0x0 DUP1 PUSH1 0x0 DUP4 PUSH20 0xFFFFFFFFFFFFFFFFFFFFFFFFFFFFFFFFFFFFFFFF AND PUSH20 0xFFFFFFFFFFFFFFFFFFFFFFFFFFFFFFFFFFFFFFFF AND DUP2 MSTORE PUSH1 0x20 ADD SWAP1 DUP2 MSTORE PUSH1 0x20 ADD PUSH1 0x0 KECCAK256 SLOAD SWAP1 POP SWAP2 SWAP1 POP JUMP JUMPDEST PUSH1 0x60 PUSH1 0x3 DUP1 SLOAD PUSH2 0x200 SWAP1 PUSH2 0x40C JUMP JUMPDEST DUP1 PUSH1 0x1F ADD PUSH1 0x20 DUP1 SWAP2 DIV MUL PUSH1 0x20 ADD PUSH1 0x40 MLOAD SWAP1 DUP2 ADD PUSH1 0x40 MSTORE DUP1 SWAP3 SWAP2 SWAP1 DUP2 DUP2 MSTORE PUSH1 0x20 ADD DUP3 DUP1 SLOAD PUSH2 0x22C SWAP1 PUSH2 0x40C JUMP JUMPDEST DUP1 ISZERO PUSH2 0x279 JUMPI DUP1 PUSH1 0x1F LT PUSH2 0x24E JUMPI PUSH2 0x100 DUP1 DUP4 SLOAD DIV MUL DUP4 MSTORE SWAP2 PUSH1 0x20 ADD SWAP2 PUSH2 0x279 JUMP JUMPDEST DUP3 ADD SWAP2 SWAP1 PUSH1 0x0 MSTORE PUSH1 0x20 PUSH1 0x0 KECCAK256 SWAP1 JUMPDEST DUP2 SLOAD DUP2 MSTORE SWAP1 PUSH1 0x1 ADD SWAP1 PUSH1 0x20 ADD DUP1 DUP4 GT PUSH2 0x25C JUMPI DUP3 SWAP1 SUB PUSH1 0x1F AND DUP3 ADD SWAP2 JUMPDEST POP POP POP POP POP SWAP1 POP SWAP1 JUMP JUMPDEST PUSH1 0x0 DUP2 CALLDATALOAD SWAP1 POP PUSH2 0x292 DUP2 PUSH2 0x483 JUMP JUMPDEST SWAP3 SWAP2 POP POP JUMP JUMPDEST PUSH1 0x0 PUSH1 0x20 DUP3 DUP5 SUB SLT ISZERO PUSH2 0x2AE JUMPI PUSH2 0x2AD PUSH2 0x46D JUMP JUMPDEST JUMPDEST PUSH1 0x0 PUSH2 0x2BC DUP5 DUP3 DUP6 ADD PUSH2 0x283 JUMP JUMPDEST SWAP2 POP POP SWAP3 SWAP2 POP POP JUMP JUMPDEST PUSH1 0x0 PUSH2 0x2D0 DUP3 PUSH2 0x374 JUMP JUMPDEST PUSH2 0x2DA DUP2 DUP6 PUSH2 0x37F JUMP JUMPDEST SWAP4 POP PUSH2 0x2EA DUP2 DUP6 PUSH1 0x20 DUP7 ADD PUSH2 0x3D9 JUMP JUMPDEST PUSH2 0x2F3 DUP2 PUSH2 0x472 JUMP JUMPDEST DUP5 ADD SWAP2 POP POP SWAP3 SWAP2 POP POP JUMP JUMPDEST PUSH2 0x307 DUP2 PUSH2 0x3C2 JUMP JUMPDEST DUP3 MSTORE POP POP JUMP JUMPDEST PUSH2 0x316 DUP2 PUSH2 0x3CC JUMP JUMPDEST DUP3 MSTORE POP POP JUMP JUMPDEST PUSH1 0x0 PUSH1 0x20 DUP3 ADD SWAP1 POP DUP2 DUP2 SUB PUSH1 0x0 DUP4 ADD MSTORE PUSH2 0x336 DUP2 DUP5 PUSH2 0x2C5 JUMP JUMPDEST SWAP1 POP SWAP3 SWAP2 POP POP JUMP JUMPDEST PUSH1 0x0 PUSH1 0x20 DUP3 ADD SWAP1 POP PUSH2 0x353 PUSH1 0x0 DUP4 ADD DUP5 PUSH2 0x2FE JUMP JUMPDEST SWAP3 SWAP2 POP POP JUMP JUMPDEST PUSH1 0x0 PUSH1 0x20 DUP3 ADD SWAP1 POP PUSH2 0x36E PUSH1 0x0 DUP4 ADD DUP5 PUSH2 0x30D JUMP JUMPDEST SWAP3 SWAP2 POP POP JUMP JUMPDEST PUSH1 0x0 DUP2 MLOAD SWAP1 POP SWAP2 SWAP1 POP JUMP JUMPDEST PUSH1 0x0 DUP3 DUP3 MSTORE PUSH1 0x20 DUP3 ADD SWAP1 POP SWAP3 SWAP2 POP POP JUMP JUMPDEST PUSH1 0x0 PUSH2 0x39B DUP3 PUSH2 0x3A2 JUMP JUMPDEST SWAP1 POP SWAP2 SWAP1 POP JUMP JUMPDEST PUSH1 0x0 PUSH20 0xFFFFFFFFFFFFFFFFFFFFFFFFFFFFFFFFFFFFFFFF DUP3 AND SWAP1 POP SWAP2 SWAP1 POP JUMP JUMPDEST PUSH1 0x0 DUP2 SWAP1 POP SWAP2 SWAP1 POP JUMP JUMPDEST PUSH1 0x0 PUSH1 0xFF DUP3 AND SWAP1 POP SWAP2 SWAP1 POP JUMP JUMPDEST PUSH1 0x0 JUMPDEST DUP4 DUP2 LT ISZERO PUSH2 0x3F7 JUMPI DUP1 DUP3 ADD MLOAD DUP2 DUP5 ADD MSTORE PUSH1 0x20 DUP2 ADD SWAP1 POP PUSH2 0x3DC JUMP JUMPDEST DUP4 DUP2 GT ISZERO PUSH2 0x406 JUMPI PUSH1 0x0 DUP5 DUP5 ADD MSTORE JUMPDEST POP POP POP POP JUMP JUMPDEST PUSH1 0x0 PUSH1 0x2 DUP3 DIV SWAP1 POP PUSH1 0x1 DUP3 AND DUP1 PUSH2 0x424 JUMPI PUSH1 0x7F DUP3 AND SWAP2 POP JUMPDEST PUSH1 0x20 DUP3 LT DUP2 EQ ISZERO PUSH2 0x438 JUMPI PUSH2 0x437 PUSH2 0x43E JUMP JUMPDEST JUMPDEST POP SWAP2 SWAP1 POP JUMP JUMPDEST PUSH32 0x4E487B7100000000000000000000000000000000000000000000000000000000 PUSH1 0x0 MSTORE PUSH1 0x22 PUSH1 0x4 MSTORE PUSH1 0x24 PUSH1 0x0 REVERT JUMPDEST PUSH1 0x0 DUP1 REVERT JUMPDEST PUSH1 0x0 PUSH1 0x1F NOT PUSH1 0x1F DUP4 ADD AND SWAP1 POP SWAP2 SWAP1 POP JUMP JUMPDEST PUSH2 0x48C DUP2 PUSH2 0x390 JUMP JUMPDEST DUP2 EQ PUSH2 0x497 JUMPI PUSH1 0x0 DUP1 REVERT JUMPDEST POP JUMP INVALID LOG2 PUSH5 0x6970667358 0x22 SLT KECCAK256 DUP2 0x4B 0xC9 SELFBALANCE 0x2D DUP4 PUSH17 0x8E07EDCC9775E3105F0C79DDB4CC92677E STATICCALL EXTCODEHASH CALLDATACOPY SWAP6 MOD 0x2C PUSH24 0x3A64736F6C63430008070033000000000000000000000000 "
				},
				"gasEstimates": {
					"creation": {
						"codeDepositCost": "246400",
						"executionCost": "infinite",
						"totalCost": "infinite"
					},
					"external": {
						"balanceOf(address)": "2885",
						"decimals()": "365",
						"name()": "infinite",
						"symbol()": "infinite",
						"totalSupply()": "2437"
					},
					"internal": {
						"_burn(address,uint256)": "infinite",
						"_mint(address,uint256)": "infinite"
					}
				},
				"methodIdentifiers": {
					"balanceOf(address)": "70a08231",
					"decimals()": "313ce567",
					"name()": "06fdde03",
					"symbol()": "95d89b41",
					"totalSupply()": "18160ddd"
				}
			},
			"storageLayout": {
				"storage": [
					{
						"astId": 571,
						"contract": "QvToken/ERC20.sol:ERC20",
						"label": "_balances",
						"offset": 0,
						"slot": "0",
						"type": "t_mapping(t_address,t_uint256)"
					},
					{
						"astId": 573,
						"contract": "QvToken/ERC20.sol:ERC20",
						"label": "_totalSupply",
						"offset": 0,
						"slot": "1",
						"type": "t_uint256"
					},
					{
						"astId": 575,
						"contract": "QvToken/ERC20.sol:ERC20",
						"label": "_name",
						"offset": 0,
						"slot": "2",
						"type": "t_string_storage"
					},
					{
						"astId": 577,
						"contract": "QvToken/ERC20.sol:ERC20",
						"label": "_symbol",
						"offset": 0,
						"slot": "3",
						"type": "t_string_storage"
					}
				],
				"types": {
					"t_address": {
						"encoding": "inplace",
						"label": "address",
						"numberOfBytes": "20"
					},
					"t_mapping(t_address,t_uint256)": {
						"encoding": "mapping",
						"key": "t_address",
						"label": "mapping(address => uint256)",
						"numberOfBytes": "32",
						"value": "t_uint256"
					},
					"t_string_storage": {
						"encoding": "bytes",
						"label": "string",
						"numberOfBytes": "32"
					},
					"t_uint256": {
						"encoding": "inplace",
						"label": "uint256",
						"numberOfBytes": "32"
					}
				}
			},
			"userdoc": {
				"kind": "user",
				"methods": {},
				"version": 1
			}
		}
	}
}