{
	"Qvoting.sol": {
		"Qvoting": {
			"abi": [
				{
					"anonymous": false,
					"inputs": [
						{
							"indexed": false,
							"internalType": "uint256",
							"name": "proposalId",
							"type": "uint256"
						},
						{
							"indexed": false,
							"internalType": "address[]",
							"name": "voters",
							"type": "address[]"
						},
						{
							"indexed": false,
							"internalType": "address",
							"name": "creator",
							"type": "address"
						},
						{
							"indexed": false,
							"internalType": "uint256",
							"name": "startTime",
							"type": "uint256"
						},
						{
							"indexed": false,
							"internalType": "uint256",
							"name": "expirationTime",
							"type": "uint256"
						},
						{
							"indexed": false,
							"internalType": "string",
							"name": "description",
							"type": "string"
						},
						{
							"indexed": false,
							"internalType": "string[]",
							"name": "_cand",
							"type": "string[]"
						}
					],
					"name": "ProposalCreated",
					"type": "event"
				},
				{
					"anonymous": false,
					"inputs": [
						{
							"indexed": false,
							"internalType": "address",
							"name": "voter",
							"type": "address"
						},
						{
							"indexed": false,
							"internalType": "uint256",
							"name": "ProposalID",
							"type": "uint256"
						},
						{
							"indexed": false,
							"internalType": "uint256[]",
							"name": "_tokens",
							"type": "uint256[]"
						}
					],
					"name": "VoteCasted",
					"type": "event"
				},
				{
					"anonymous": false,
					"inputs": [
						{
							"indexed": false,
							"internalType": "string",
							"name": "mintAndburn",
							"type": "string"
						},
						{
							"indexed": false,
							"internalType": "address",
							"name": "account",
							"type": "address"
						},
						{
							"indexed": false,
							"internalType": "uint256",
							"name": "amount",
							"type": "uint256"
						}
					],
					"name": "mintAndburn",
					"type": "event"
				},
				{
					"inputs": [
						{
							"internalType": "address",
							"name": "",
							"type": "address"
						},
						{
							"internalType": "uint256",
							"name": "",
							"type": "uint256"
						}
					],
					"name": "allVoters",
					"outputs": [
						{
							"internalType": "uint256",
							"name": "proposalId",
							"type": "uint256"
						},
						{
							"internalType": "address",
							"name": "voterAddress",
							"type": "address"
						},
						{
							"internalType": "bool",
							"name": "hasVoted",
							"type": "bool"
						},
						{
							"internalType": "uint256",
							"name": "voteNum",
							"type": "uint256"
						}
					],
					"stateMutability": "view",
					"type": "function"
				},
				{
					"inputs": [
						{
							"internalType": "address",
							"name": "account",
							"type": "address"
						}
					],
					"name": "balanceOf",
					"outputs": [
						{
							"internalType": "uint256",
							"name": "",
							"type": "uint256"
						}
					],
					"stateMutability": "view",
					"type": "function"
				},
				{
					"inputs": [
						{
							"internalType": "uint256",
							"name": "_proposalId",
							"type": "uint256"
						},
						{
							"internalType": "address",
							"name": "_voter",
							"type": "address"
						}
					],
					"name": "burnOwner",
					"outputs": [
						{
							"internalType": "bool",
							"name": "",
							"type": "bool"
						}
					],
					"stateMutability": "nonpayable",
					"type": "function"
				},
				{
					"inputs": [
						{
							"internalType": "uint8",
							"name": "_status",
							"type": "uint8"
						},
						{
							"internalType": "address[]",
							"name": "_voters",
							"type": "address[]"
						},
						{
							"internalType": "address",
							"name": "_creator",
							"type": "address"
						},
						{
							"internalType": "uint256",
							"name": "_startTime",
							"type": "uint256"
						},
						{
							"internalType": "uint256",
							"name": "_expirationTime",
							"type": "uint256"
						},
						{
							"internalType": "string",
							"name": "_disc",
							"type": "string"
						},
						{
							"internalType": "string[]",
							"name": "_cand",
							"type": "string[]"
						},
						{
							"internalType": "uint256",
							"name": "_voteRight",
							"type": "uint256"
						}
					],
					"name": "createProposal",
					"outputs": [],
					"stateMutability": "nonpayable",
					"type": "function"
				},
				{
					"inputs": [],
					"name": "decimals",
					"outputs": [
						{
							"internalType": "uint8",
							"name": "",
							"type": "uint8"
						}
					],
					"stateMutability": "view",
					"type": "function"
				},
				{
					"inputs": [],
					"name": "name",
					"outputs": [
						{
							"internalType": "string",
							"name": "",
							"type": "string"
						}
					],
					"stateMutability": "view",
					"type": "function"
				},
				{
					"inputs": [
						{
							"internalType": "uint256",
							"name": "",
							"type": "uint256"
						}
					],
					"name": "proposals",
					"outputs": [
						{
							"internalType": "address",
							"name": "creator",
							"type": "address"
						},
						{
							"internalType": "uint8",
							"name": "status",
							"type": "uint8"
						},
						{
							"internalType": "string",
							"name": "disc",
							"type": "string"
						},
						{
							"internalType": "uint256",
							"name": "startTime",
							"type": "uint256"
						},
						{
							"internalType": "uint256",
							"name": "expirationTime",
							"type": "uint256"
						},
						{
							"internalType": "uint16",
							"name": "numOfOptions",
							"type": "uint16"
						},
						{
							"internalType": "uint256",
							"name": "voteRight",
							"type": "uint256"
						}
					],
					"stateMutability": "view",
					"type": "function"
				},
				{
					"inputs": [
						{
							"internalType": "uint256",
							"name": "_proposalId",
							"type": "uint256"
						},
						{
							"internalType": "address",
							"name": "_voter",
							"type": "address"
						},
						{
							"internalType": "string[]",
							"name": "_hash",
							"type": "string[]"
						},
						{
							"internalType": "uint256[]",
							"name": "v",
							"type": "uint256[]"
						}
					],
					"name": "responseProposal",
					"outputs": [],
					"stateMutability": "nonpayable",
					"type": "function"
				},
				{
					"inputs": [
						{
							"internalType": "uint256",
							"name": "_proposalId",
							"type": "uint256"
						}
					],
					"name": "resultOfProposal",
					"outputs": [
						{
							"internalType": "uint256",
							"name": "",
							"type": "uint256"
						},
						{
							"internalType": "string",
							"name": "",
							"type": "string"
						}
					],
					"stateMutability": "view",
					"type": "function"
				},
				{
					"inputs": [],
					"name": "symbol",
					"outputs": [
						{
							"internalType": "string",
							"name": "",
							"type": "string"
						}
					],
					"stateMutability": "view",
					"type": "function"
				},
				{
					"inputs": [],
					"name": "totalSupply",
					"outputs": [
						{
							"internalType": "uint256",
							"name": "",
							"type": "uint256"
						}
					],
					"stateMutability": "view",
					"type": "function"
				},
				{
					"inputs": [
						{
							"internalType": "address",
							"name": "",
							"type": "address"
						}
					],
					"name": "userProposal",
					"outputs": [
						{
							"internalType": "uint128",
							"name": "proposalCount",
							"type": "uint128"
						},
						{
							"internalType": "uint128",
							"name": "responseCount",
							"type": "uint128"
						}
					],
					"stateMutability": "view",
					"type": "function"
				}
			],
			"devdoc": {
				"kind": "dev",
				"methods": {
					"balanceOf(address)": {
						"details": "See {IERC20-balanceOf}."
					},
					"decimals()": {
						"details": "Returns the number of decimals used to get its user representation. For example, if `decimals` equals `2`, a balance of `505` tokens should be displayed to a user as `5.05` (`505 / 10 ** 2`). Tokens usually opt for a value of 18, imitating the relationship between Ether and Wei. This is the value {ERC20} uses, unless this function is overridden; NOTE: This information is only used for _display_ purposes: it in no way affects any of the arithmetic of the contract, including {IERC20-balanceOf} and {IERC20-transfer}."
					},
					"name()": {
						"details": "Returns the name of the token."
					},
					"symbol()": {
						"details": "Returns the symbol of the token, usually a shorter version of the name."
					},
					"totalSupply()": {
						"details": "See {IERC20-totalSupply}."
					}
				},
				"version": 1
			},
			"evm": {
				"assembly": "    /* \"Qvoting.sol\":481:6683  contract Qvoting is proposalEvents, QVtoken{\r... */\n  mstore(0x40, 0x80)\n  callvalue\n  dup1\n  iszero\n  tag_1\n  jumpi\n  0x00\n  dup1\n  revert\ntag_1:\n  pop\n    /* \"QvToken/ERC20.sol\":2016:2132  constructor(string memory name_, string memory symbol_) {\r... */\n  mload(0x40)\n  dup1\n  0x40\n  add\n  0x40\n  mstore\n  dup1\n  0x0c\n  dup2\n  mstore\n  0x20\n  add\n  0x51566f74696e67546f6b656e0000000000000000000000000000000000000000\n  dup2\n  mstore\n  pop\n  mload(0x40)\n  dup1\n  0x40\n  add\n  0x40\n  mstore\n  dup1\n  0x02\n  dup2\n  mstore\n  0x20\n  add\n  0x5176000000000000000000000000000000000000000000000000000000000000\n  dup2\n  mstore\n  pop\n    /* \"QvToken/ERC20.sol\":2091:2096  name_ */\n  dup2\n    /* \"QvToken/ERC20.sol\":2083:2088  _name */\n  0x02\n    /* \"QvToken/ERC20.sol\":2083:2096  _name = name_ */\n  swap1\n  dup1\n  mload\n  swap1\n  0x20\n  add\n  swap1\n  tag_5\n  swap3\n  swap2\n  swap1\n  tag_6\n  jump\t// in\ntag_5:\n  pop\n    /* \"QvToken/ERC20.sol\":2117:2124  symbol_ */\n  dup1\n    /* \"QvToken/ERC20.sol\":2107:2114  _symbol */\n  0x03\n    /* \"QvToken/ERC20.sol\":2107:2124  _symbol = symbol_ */\n  swap1\n  dup1\n  mload\n  swap1\n  0x20\n  add\n  swap1\n  tag_7\n  swap3\n  swap2\n  swap1\n  tag_6\n  jump\t// in\ntag_7:\n  pop\n    /* \"QvToken/ERC20.sol\":2016:2132  constructor(string memory name_, string memory symbol_) {\r... */\n  pop\n  pop\n    /* \"QvToken/QvToken.sol\":280:290  msg.sender */\n  caller\n    /* \"QvToken/QvToken.sol\":272:277  owner */\n  0x04\n  0x00\n    /* \"QvToken/QvToken.sol\":272:290  owner = msg.sender */\n  0x0100\n  exp\n  dup2\n  sload\n  dup2\n  0xffffffffffffffffffffffffffffffffffffffff\n  mul\n  not\n  and\n  swap1\n  dup4\n  0xffffffffffffffffffffffffffffffffffffffff\n  and\n  mul\n  or\n  swap1\n  sstore\n  pop\n    /* \"Qvoting.sol\":481:6683  contract Qvoting is proposalEvents, QVtoken{\r... */\n  jump(tag_9)\ntag_6:\n  dup3\n  dup1\n  sload\n  tag_10\n  swap1\n  tag_11\n  jump\t// in\ntag_10:\n  swap1\n  0x00\n  mstore\n  keccak256(0x00, 0x20)\n  swap1\n  0x1f\n  add\n  0x20\n  swap1\n  div\n  dup2\n  add\n  swap3\n  dup3\n  tag_13\n  jumpi\n  0x00\n  dup6\n  sstore\n  jump(tag_12)\ntag_13:\n  dup3\n  0x1f\n  lt\n  tag_14\n  jumpi\n  dup1\n  mload\n  not(0xff)\n  and\n  dup4\n  dup1\n  add\n  or\n  dup6\n  sstore\n  jump(tag_12)\ntag_14:\n  dup3\n  dup1\n  add\n  0x01\n  add\n  dup6\n  sstore\n  dup3\n  iszero\n  tag_12\n  jumpi\n  swap2\n  dup3\n  add\ntag_15:\n  dup3\n  dup2\n  gt\n  iszero\n  tag_16\n  jumpi\n  dup3\n  mload\n  dup3\n  sstore\n  swap2\n  0x20\n  add\n  swap2\n  swap1\n  0x01\n  add\n  swap1\n  jump(tag_15)\ntag_16:\ntag_12:\n  pop\n  swap1\n  pop\n  tag_17\n  swap2\n  swap1\n  tag_18\n  jump\t// in\ntag_17:\n  pop\n  swap1\n  jump\t// out\ntag_18:\ntag_19:\n  dup1\n  dup3\n  gt\n  iszero\n  tag_20\n  jumpi\n  0x00\n  dup2\n  0x00\n  swap1\n  sstore\n  pop\n  0x01\n  add\n  jump(tag_19)\ntag_20:\n  pop\n  swap1\n  jump\t// out\n    /* \"#utility.yul\":7:327   */\ntag_11:\n    /* \"#utility.yul\":51:57   */\n  0x00\n    /* \"#utility.yul\":88:89   */\n  0x02\n    /* \"#utility.yul\":82:86   */\n  dup3\n    /* \"#utility.yul\":78:90   */\n  div\n    /* \"#utility.yul\":68:90   */\n  swap1\n  pop\n    /* \"#utility.yul\":135:136   */\n  0x01\n    /* \"#utility.yul\":129:133   */\n  dup3\n    /* \"#utility.yul\":125:137   */\n  and\n    /* \"#utility.yul\":156:174   */\n  dup1\n    /* \"#utility.yul\":146:227   */\n  tag_23\n  jumpi\n    /* \"#utility.yul\":212:216   */\n  0x7f\n    /* \"#utility.yul\":204:210   */\n  dup3\n    /* \"#utility.yul\":200:217   */\n  and\n    /* \"#utility.yul\":190:217   */\n  swap2\n  pop\n    /* \"#utility.yul\":146:227   */\ntag_23:\n    /* \"#utility.yul\":274:276   */\n  0x20\n    /* \"#utility.yul\":266:272   */\n  dup3\n    /* \"#utility.yul\":263:277   */\n  lt\n    /* \"#utility.yul\":243:261   */\n  dup2\n    /* \"#utility.yul\":240:278   */\n  eq\n    /* \"#utility.yul\":237:321   */\n  iszero\n  tag_24\n  jumpi\n    /* \"#utility.yul\":293:311   */\n  tag_25\n  tag_26\n  jump\t// in\ntag_25:\n    /* \"#utility.yul\":237:321   */\ntag_24:\n    /* \"#utility.yul\":58:327   */\n  pop\n    /* \"#utility.yul\":7:327   */\n  swap2\n  swap1\n  pop\n  jump\t// out\n    /* \"#utility.yul\":333:513   */\ntag_26:\n    /* \"#utility.yul\":381:458   */\n  0x4e487b7100000000000000000000000000000000000000000000000000000000\n    /* \"#utility.yul\":378:379   */\n  0x00\n    /* \"#utility.yul\":371:459   */\n  mstore\n    /* \"#utility.yul\":478:482   */\n  0x22\n    /* \"#utility.yul\":475:476   */\n  0x04\n    /* \"#utility.yul\":468:483   */\n  mstore\n    /* \"#utility.yul\":502:506   */\n  0x24\n    /* \"#utility.yul\":499:500   */\n  0x00\n    /* \"#utility.yul\":492:507   */\n  revert\n    /* \"Qvoting.sol\":481:6683  contract Qvoting is proposalEvents, QVtoken{\r... */\ntag_9:\n  dataSize(sub_0)\n  dup1\n  dataOffset(sub_0)\n  0x00\n  codecopy\n  0x00\n  return\nstop\n\nsub_0: assembly {\n        /* \"Qvoting.sol\":481:6683  contract Qvoting is proposalEvents, QVtoken{\r... */\n      mstore(0x40, 0x80)\n      callvalue\n      dup1\n      iszero\n      tag_1\n      jumpi\n      0x00\n      dup1\n      revert\n    tag_1:\n      pop\n      jumpi(tag_2, lt(calldatasize, 0x04))\n      shr(0xe0, calldataload(0x00))\n      dup1\n      0x6a232d1f\n      gt\n      tag_15\n      jumpi\n      dup1\n      0x6a232d1f\n      eq\n      tag_9\n      jumpi\n      dup1\n      0x70a08231\n      eq\n      tag_10\n      jumpi\n      dup1\n      0x95d89b41\n      eq\n      tag_11\n      jumpi\n      dup1\n      0x9d671564\n      eq\n      tag_12\n      jumpi\n      dup1\n      0xab9c70d4\n      eq\n      tag_13\n      jumpi\n      dup1\n      0xe745d68e\n      eq\n      tag_14\n      jumpi\n      jump(tag_2)\n    tag_15:\n      dup1\n      0x013cf08b\n      eq\n      tag_3\n      jumpi\n      dup1\n      0x06fdde03\n      eq\n      tag_4\n      jumpi\n      dup1\n      0x18160ddd\n      eq\n      tag_5\n      jumpi\n      dup1\n      0x313ce567\n      eq\n      tag_6\n      jumpi\n      dup1\n      0x4de77e48\n      eq\n      tag_7\n      jumpi\n      dup1\n      0x5c230eee\n      eq\n      tag_8\n      jumpi\n    tag_2:\n      0x00\n      dup1\n      revert\n        /* \"Qvoting.sol\":1304:1362  mapping(uint => proposalLibrary.proposal) public proposals */\n    tag_3:\n      tag_16\n      0x04\n      dup1\n      calldatasize\n      sub\n      dup2\n      add\n      swap1\n      tag_17\n      swap2\n      swap1\n      tag_18\n      jump\t// in\n    tag_17:\n      tag_19\n      jump\t// in\n    tag_16:\n      mload(0x40)\n      tag_20\n      swap8\n      swap7\n      swap6\n      swap5\n      swap4\n      swap3\n      swap2\n      swap1\n      tag_21\n      jump\t// in\n    tag_20:\n      mload(0x40)\n      dup1\n      swap2\n      sub\n      swap1\n      return\n        /* \"QvToken/ERC20.sol\":2202:2302  function name() public view virtual override returns (string memory) {\r... */\n    tag_4:\n      tag_22\n      tag_23\n      jump\t// in\n    tag_22:\n      mload(0x40)\n      tag_24\n      swap2\n      swap1\n      tag_25\n      jump\t// in\n    tag_24:\n      mload(0x40)\n      dup1\n      swap2\n      sub\n      swap1\n      return\n        /* \"QvToken/ERC20.sol\":3322:3430  function totalSupply() public view virtual override returns (uint256) {\r... */\n    tag_5:\n      tag_26\n      tag_27\n      jump\t// in\n    tag_26:\n      mload(0x40)\n      tag_28\n      swap2\n      swap1\n      tag_29\n      jump\t// in\n    tag_28:\n      mload(0x40)\n      dup1\n      swap2\n      sub\n      swap1\n      return\n        /* \"QvToken/ERC20.sol\":3164:3257  function decimals() public view virtual override returns (uint8) {\r... */\n    tag_6:\n      tag_30\n      tag_31\n      jump\t// in\n    tag_30:\n      mload(0x40)\n      tag_32\n      swap2\n      swap1\n      tag_33\n      jump\t// in\n    tag_32:\n      mload(0x40)\n      dup1\n      swap2\n      sub\n      swap1\n      return\n        /* \"Qvoting.sol\":1965:3262  function createProposal(uint8 _status, address[] memory _voters, address _creator,\r... */\n    tag_7:\n      tag_34\n      0x04\n      dup1\n      calldatasize\n      sub\n      dup2\n      add\n      swap1\n      tag_35\n      swap2\n      swap1\n      tag_36\n      jump\t// in\n    tag_35:\n      tag_37\n      jump\t// in\n    tag_34:\n      stop\n        /* \"Qvoting.sol\":3270:4525  function responseProposal(uint _proposalId, address _voter, string[] memory _hash, uint[] memory v) external {\r... */\n    tag_8:\n      tag_38\n      0x04\n      dup1\n      calldatasize\n      sub\n      dup2\n      add\n      swap1\n      tag_39\n      swap2\n      swap1\n      tag_40\n      jump\t// in\n    tag_39:\n      tag_41\n      jump\t// in\n    tag_38:\n      stop\n        /* \"Qvoting.sol\":5616:6045  function burnOwner(uint _proposalId, address _voter) external returns(bool){\r... */\n    tag_9:\n      tag_42\n      0x04\n      dup1\n      calldatasize\n      sub\n      dup2\n      add\n      swap1\n      tag_43\n      swap2\n      swap1\n      tag_44\n      jump\t// in\n    tag_43:\n      tag_45\n      jump\t// in\n    tag_42:\n      mload(0x40)\n      tag_46\n      swap2\n      swap1\n      tag_47\n      jump\t// in\n    tag_46:\n      mload(0x40)\n      dup1\n      swap2\n      sub\n      swap1\n      return\n        /* \"QvToken/ERC20.sol\":3493:3620  function balanceOf(address account) public view virtual override returns (uint256) {\r... */\n    tag_10:\n      tag_48\n      0x04\n      dup1\n      calldatasize\n      sub\n      dup2\n      add\n      swap1\n      tag_49\n      swap2\n      swap1\n      tag_50\n      jump\t// in\n    tag_49:\n      tag_51\n      jump\t// in\n    tag_48:\n      mload(0x40)\n      tag_52\n      swap2\n      swap1\n      tag_29\n      jump\t// in\n    tag_52:\n      mload(0x40)\n      dup1\n      swap2\n      sub\n      swap1\n      return\n        /* \"QvToken/ERC20.sol\":2421:2525  function symbol() public view virtual override returns (string memory) {\r... */\n    tag_11:\n      tag_53\n      tag_54\n      jump\t// in\n    tag_53:\n      mload(0x40)\n      tag_55\n      swap2\n      swap1\n      tag_25\n      jump\t// in\n    tag_55:\n      mload(0x40)\n      dup1\n      swap2\n      sub\n      swap1\n      return\n        /* \"Qvoting.sol\":4617:4971  function resultOfProposal(uint _proposalId) public view returns(uint, string memory){\r... */\n    tag_12:\n      tag_56\n      0x04\n      dup1\n      calldatasize\n      sub\n      dup2\n      add\n      swap1\n      tag_57\n      swap2\n      swap1\n      tag_18\n      jump\t// in\n    tag_57:\n      tag_58\n      jump\t// in\n    tag_56:\n      mload(0x40)\n      tag_59\n      swap3\n      swap2\n      swap1\n      tag_60\n      jump\t// in\n    tag_59:\n      mload(0x40)\n      dup1\n      swap2\n      sub\n      swap1\n      return\n        /* \"Qvoting.sol\":1400:1472  mapping(address => mapping(uint => voterLibrary.voter)) public allVoters */\n    tag_13:\n      tag_61\n      0x04\n      dup1\n      calldatasize\n      sub\n      dup2\n      add\n      swap1\n      tag_62\n      swap2\n      swap1\n      tag_63\n      jump\t// in\n    tag_62:\n      tag_64\n      jump\t// in\n    tag_61:\n      mload(0x40)\n      tag_65\n      swap5\n      swap4\n      swap3\n      swap2\n      swap1\n      tag_66\n      jump\t// in\n    tag_65:\n      mload(0x40)\n      dup1\n      swap2\n      sub\n      swap1\n      return\n        /* \"Qvoting.sol\":1201:1273  mapping(address => UserProposalLibrary.UserProposal) public userProposal */\n    tag_14:\n      tag_67\n      0x04\n      dup1\n      calldatasize\n      sub\n      dup2\n      add\n      swap1\n      tag_68\n      swap2\n      swap1\n      tag_50\n      jump\t// in\n    tag_68:\n      tag_69\n      jump\t// in\n    tag_67:\n      mload(0x40)\n      tag_70\n      swap3\n      swap2\n      swap1\n      tag_71\n      jump\t// in\n    tag_70:\n      mload(0x40)\n      dup1\n      swap2\n      sub\n      swap1\n      return\n        /* \"Qvoting.sol\":1304:1362  mapping(uint => proposalLibrary.proposal) public proposals */\n    tag_19:\n      mstore(0x20, 0x07)\n      dup1\n      0x00\n      mstore\n      keccak256(0x00, 0x40)\n      0x00\n      swap2\n      pop\n      swap1\n      pop\n      dup1\n      0x00\n      add\n      0x00\n      swap1\n      sload\n      swap1\n      0x0100\n      exp\n      swap1\n      div\n      0xffffffffffffffffffffffffffffffffffffffff\n      and\n      swap1\n      dup1\n      0x00\n      add\n      0x14\n      swap1\n      sload\n      swap1\n      0x0100\n      exp\n      swap1\n      div\n      0xff\n      and\n      swap1\n      dup1\n      0x01\n      add\n      dup1\n      sload\n      tag_72\n      swap1\n      tag_73\n      jump\t// in\n    tag_72:\n      dup1\n      0x1f\n      add\n      0x20\n      dup1\n      swap2\n      div\n      mul\n      0x20\n      add\n      mload(0x40)\n      swap1\n      dup2\n      add\n      0x40\n      mstore\n      dup1\n      swap3\n      swap2\n      swap1\n      dup2\n      dup2\n      mstore\n      0x20\n      add\n      dup3\n      dup1\n      sload\n      tag_74\n      swap1\n      tag_73\n      jump\t// in\n    tag_74:\n      dup1\n      iszero\n      tag_75\n      jumpi\n      dup1\n      0x1f\n      lt\n      tag_76\n      jumpi\n      0x0100\n      dup1\n      dup4\n      sload\n      div\n      mul\n      dup4\n      mstore\n      swap2\n      0x20\n      add\n      swap2\n      jump(tag_75)\n    tag_76:\n      dup3\n      add\n      swap2\n      swap1\n      0x00\n      mstore\n      keccak256(0x00, 0x20)\n      swap1\n    tag_77:\n      dup2\n      sload\n      dup2\n      mstore\n      swap1\n      0x01\n      add\n      swap1\n      0x20\n      add\n      dup1\n      dup4\n      gt\n      tag_77\n      jumpi\n      dup3\n      swap1\n      sub\n      0x1f\n      and\n      dup3\n      add\n      swap2\n    tag_75:\n      pop\n      pop\n      pop\n      pop\n      pop\n      swap1\n      dup1\n      0x02\n      add\n      sload\n      swap1\n      dup1\n      0x03\n      add\n      sload\n      swap1\n      dup1\n      0x04\n      add\n      0x00\n      swap1\n      sload\n      swap1\n      0x0100\n      exp\n      swap1\n      div\n      0xffff\n      and\n      swap1\n      dup1\n      0x05\n      add\n      sload\n      swap1\n      pop\n      dup8\n      jump\t// out\n        /* \"QvToken/ERC20.sol\":2202:2302  function name() public view virtual override returns (string memory) {\r... */\n    tag_23:\n        /* \"QvToken/ERC20.sol\":2256:2269  string memory */\n      0x60\n        /* \"QvToken/ERC20.sol\":2289:2294  _name */\n      0x02\n        /* \"QvToken/ERC20.sol\":2282:2294  return _name */\n      dup1\n      sload\n      tag_79\n      swap1\n      tag_73\n      jump\t// in\n    tag_79:\n      dup1\n      0x1f\n      add\n      0x20\n      dup1\n      swap2\n      div\n      mul\n      0x20\n      add\n      mload(0x40)\n      swap1\n      dup2\n      add\n      0x40\n      mstore\n      dup1\n      swap3\n      swap2\n      swap1\n      dup2\n      dup2\n      mstore\n      0x20\n      add\n      dup3\n      dup1\n      sload\n      tag_80\n      swap1\n      tag_73\n      jump\t// in\n    tag_80:\n      dup1\n      iszero\n      tag_81\n      jumpi\n      dup1\n      0x1f\n      lt\n      tag_82\n      jumpi\n      0x0100\n      dup1\n      dup4\n      sload\n      div\n      mul\n      dup4\n      mstore\n      swap2\n      0x20\n      add\n      swap2\n      jump(tag_81)\n    tag_82:\n      dup3\n      add\n      swap2\n      swap1\n      0x00\n      mstore\n      keccak256(0x00, 0x20)\n      swap1\n    tag_83:\n      dup2\n      sload\n      dup2\n      mstore\n      swap1\n      0x01\n      add\n      swap1\n      0x20\n      add\n      dup1\n      dup4\n      gt\n      tag_83\n      jumpi\n      dup3\n      swap1\n      sub\n      0x1f\n      and\n      dup3\n      add\n      swap2\n    tag_81:\n      pop\n      pop\n      pop\n      pop\n      pop\n      swap1\n      pop\n        /* \"QvToken/ERC20.sol\":2202:2302  function name() public view virtual override returns (string memory) {\r... */\n      swap1\n      jump\t// out\n        /* \"QvToken/ERC20.sol\":3322:3430  function totalSupply() public view virtual override returns (uint256) {\r... */\n    tag_27:\n        /* \"QvToken/ERC20.sol\":3383:3390  uint256 */\n      0x00\n        /* \"QvToken/ERC20.sol\":3410:3422  _totalSupply */\n      sload(0x01)\n        /* \"QvToken/ERC20.sol\":3403:3422  return _totalSupply */\n      swap1\n      pop\n        /* \"QvToken/ERC20.sol\":3322:3430  function totalSupply() public view virtual override returns (uint256) {\r... */\n      swap1\n      jump\t// out\n        /* \"QvToken/ERC20.sol\":3164:3257  function decimals() public view virtual override returns (uint8) {\r... */\n    tag_31:\n        /* \"QvToken/ERC20.sol\":3222:3227  uint8 */\n      0x00\n        /* \"QvToken/ERC20.sol\":3247:3249  18 */\n      0x12\n        /* \"QvToken/ERC20.sol\":3240:3249  return 18 */\n      swap1\n      pop\n        /* \"QvToken/ERC20.sol\":3164:3257  function decimals() public view virtual override returns (uint8) {\r... */\n      swap1\n      jump\t// out\n        /* \"Qvoting.sol\":1965:3262  function createProposal(uint8 _status, address[] memory _voters, address _creator,\r... */\n    tag_37:\n        /* \"Qvoting.sol\":2339:2349  _startTime */\n      dup6\n        /* \"Qvoting.sol\":2321:2336  block.timestamp */\n      timestamp\n        /* \"Qvoting.sol\":2321:2349  block.timestamp < _startTime */\n      lt\n        /* \"Qvoting.sol\":2313:2373  require(block.timestamp < _startTime,\"proposal not started\") */\n      tag_87\n      jumpi\n      mload(0x40)\n      0x08c379a000000000000000000000000000000000000000000000000000000000\n      dup2\n      mstore\n      0x04\n      add\n      tag_88\n      swap1\n      tag_89\n      jump\t// in\n    tag_88:\n      mload(0x40)\n      dup1\n      swap2\n      sub\n      swap1\n      revert\n    tag_87:\n        /* \"Qvoting.sol\":2410:2425  _expirationTime */\n      dup5\n        /* \"Qvoting.sol\":2392:2407  block.timestamp */\n      timestamp\n        /* \"Qvoting.sol\":2392:2425  block.timestamp < _expirationTime */\n      lt\n        /* \"Qvoting.sol\":2384:2473  require(block.timestamp < _expirationTime,\"End time should be greater than current time\") */\n      tag_90\n      jumpi\n      mload(0x40)\n      0x08c379a000000000000000000000000000000000000000000000000000000000\n      dup2\n      mstore\n      0x04\n      add\n      tag_91\n      swap1\n      tag_92\n      jump\t// in\n    tag_91:\n      mload(0x40)\n      dup1\n      swap2\n      sub\n      swap1\n      revert\n    tag_90:\n        /* \"Qvoting.sol\":2505:2520  _expirationTime */\n      dup5\n        /* \"Qvoting.sol\":2492:2502  _startTime */\n      dup7\n        /* \"Qvoting.sol\":2492:2520  _startTime < _expirationTime */\n      lt\n        /* \"Qvoting.sol\":2484:2566  require(_startTime < _expirationTime,\"End time should be greater than start time\") */\n      tag_93\n      jumpi\n      mload(0x40)\n      0x08c379a000000000000000000000000000000000000000000000000000000000\n      dup2\n      mstore\n      0x04\n      add\n      tag_94\n      swap1\n      tag_95\n      jump\t// in\n    tag_94:\n      mload(0x40)\n      dup1\n      swap2\n      sub\n      swap1\n      revert\n    tag_93:\n        /* \"Qvoting.sol\":2579:2589  proposalId */\n      0x05\n      0x00\n        /* \"Qvoting.sol\":2579:2591  proposalId++ */\n      dup2\n      sload\n      dup1\n      swap3\n      swap2\n      swap1\n      tag_96\n      swap1\n      tag_97\n      jump\t// in\n    tag_96:\n      swap2\n      swap1\n      pop\n      sstore\n      pop\n        /* \"Qvoting.sol\":2602:2714  proposals[proposalId].createProposal(_status,_voters,_creator,_startTime,_expirationTime,_disc,_voteRight,_cand) */\n      tag_98\n        /* \"Qvoting.sol\":2639:2646  _status */\n      dup10\n        /* \"Qvoting.sol\":2647:2654  _voters */\n      dup10\n        /* \"Qvoting.sol\":2655:2663  _creator */\n      dup10\n        /* \"Qvoting.sol\":2664:2674  _startTime */\n      dup10\n        /* \"Qvoting.sol\":2675:2690  _expirationTime */\n      dup10\n        /* \"Qvoting.sol\":2691:2696  _disc */\n      dup10\n        /* \"Qvoting.sol\":2697:2707  _voteRight */\n      dup8\n        /* \"Qvoting.sol\":2708:2713  _cand */\n      dup11\n      dup11\n        /* \"Qvoting.sol\":2602:2611  proposals */\n      0x07\n        /* \"Qvoting.sol\":2602:2623  proposals[proposalId] */\n      0x00\n        /* \"Qvoting.sol\":2612:2622  proposalId */\n      sload(0x05)\n        /* \"Qvoting.sol\":2602:2623  proposals[proposalId] */\n      dup2\n      mstore\n      0x20\n      add\n      swap1\n      dup2\n      mstore\n      0x20\n      add\n      0x00\n      keccak256\n        /* \"Qvoting.sol\":2602:2638  proposals[proposalId].createProposal */\n      tag_99\n      swap1\n        /* \"Qvoting.sol\":2602:2714  proposals[proposalId].createProposal(_status,_voters,_creator,_startTime,_expirationTime,_disc,_voteRight,_cand) */\n      swap10\n      swap9\n      swap8\n      swap7\n      swap6\n      swap5\n      swap4\n      swap3\n      swap2\n      swap1\n      0xffffffff\n      and\n      jump\t// in\n    tag_98:\n      pop\n        /* \"Qvoting.sol\":2730:2814  ProposalCreated(proposalId, _voters,_creator,_startTime,_expirationTime,_disc,_cand) */\n      0x239a8a71a7d1cb0d134f6cc072ad6390e36a88c8e78dff69013ee79528441e80\n        /* \"Qvoting.sol\":2746:2756  proposalId */\n      sload(0x05)\n        /* \"Qvoting.sol\":2758:2765  _voters */\n      dup10\n        /* \"Qvoting.sol\":2766:2774  _creator */\n      dup10\n        /* \"Qvoting.sol\":2775:2785  _startTime */\n      dup10\n        /* \"Qvoting.sol\":2786:2801  _expirationTime */\n      dup10\n        /* \"Qvoting.sol\":2802:2807  _disc */\n      dup10\n        /* \"Qvoting.sol\":2808:2813  _cand */\n      dup10\n      dup10\n        /* \"Qvoting.sol\":2730:2814  ProposalCreated(proposalId, _voters,_creator,_startTime,_expirationTime,_disc,_cand) */\n      mload(0x40)\n      tag_100\n      swap9\n      swap8\n      swap7\n      swap6\n      swap5\n      swap4\n      swap3\n      swap2\n      swap1\n      tag_101\n      jump\t// in\n    tag_100:\n      mload(0x40)\n      dup1\n      swap2\n      sub\n      swap1\n      log1\n        /* \"Qvoting.sol\":2854:2858  true */\n      0x01\n        /* \"Qvoting.sol\":2825:2839  validProposals */\n      0x09\n        /* \"Qvoting.sol\":2825:2851  validProposals[proposalId] */\n      0x00\n        /* \"Qvoting.sol\":2840:2850  proposalId */\n      sload(0x05)\n        /* \"Qvoting.sol\":2825:2851  validProposals[proposalId] */\n      dup2\n      mstore\n      0x20\n      add\n      swap1\n      dup2\n      mstore\n      0x20\n      add\n      0x00\n      keccak256\n      0x00\n        /* \"Qvoting.sol\":2825:2858  validProposals[proposalId] = true */\n      0x0100\n      exp\n      dup2\n      sload\n      dup2\n      0xff\n      mul\n      not\n      and\n      swap1\n      dup4\n      iszero\n      iszero\n      mul\n      or\n      swap1\n      sstore\n      pop\n        /* \"Qvoting.sol\":2930:2939  uint256 i */\n      0x00\n        /* \"Qvoting.sol\":2926:3185  for(uint256 i=0;i<_voters.length;i++){\r... */\n    tag_102:\n        /* \"Qvoting.sol\":2944:2951  _voters */\n      dup9\n        /* \"Qvoting.sol\":2944:2958  _voters.length */\n      mload\n        /* \"Qvoting.sol\":2942:2943  i */\n      dup2\n        /* \"Qvoting.sol\":2942:2958  i<_voters.length */\n      lt\n        /* \"Qvoting.sol\":2926:3185  for(uint256 i=0;i<_voters.length;i++){\r... */\n      iszero\n      tag_103\n      jumpi\n        /* \"Qvoting.sol\":2978:3005  mint(_voters[i],_voteRight) */\n      tag_105\n        /* \"Qvoting.sol\":2983:2990  _voters */\n      dup10\n        /* \"Qvoting.sol\":2991:2992  i */\n      dup3\n        /* \"Qvoting.sol\":2983:2993  _voters[i] */\n      dup2\n      mload\n      dup2\n      lt\n      tag_106\n      jumpi\n      tag_107\n      tag_108\n      jump\t// in\n    tag_107:\n    tag_106:\n      0x20\n      mul\n      0x20\n      add\n      add\n      mload\n        /* \"Qvoting.sol\":2994:3004  _voteRight */\n      dup4\n        /* \"Qvoting.sol\":2978:2982  mint */\n      tag_109\n        /* \"Qvoting.sol\":2978:3005  mint(_voters[i],_voteRight) */\n      jump\t// in\n    tag_105:\n        /* \"Qvoting.sol\":3020:3108  allVoters[_voters[i]][proposalId].createVoter(proposalId, _voters[i], false, _voteRight) */\n      tag_110\n        /* \"Qvoting.sol\":3066:3076  proposalId */\n      sload(0x05)\n        /* \"Qvoting.sol\":3078:3085  _voters */\n      dup11\n        /* \"Qvoting.sol\":3086:3087  i */\n      dup4\n        /* \"Qvoting.sol\":3078:3088  _voters[i] */\n      dup2\n      mload\n      dup2\n      lt\n      tag_111\n      jumpi\n      tag_112\n      tag_108\n      jump\t// in\n    tag_112:\n    tag_111:\n      0x20\n      mul\n      0x20\n      add\n      add\n      mload\n        /* \"Qvoting.sol\":3090:3095  false */\n      0x00\n        /* \"Qvoting.sol\":3097:3107  _voteRight */\n      dup6\n        /* \"Qvoting.sol\":3020:3029  allVoters */\n      0x08\n        /* \"Qvoting.sol\":3020:3041  allVoters[_voters[i]] */\n      0x00\n        /* \"Qvoting.sol\":3030:3037  _voters */\n      dup16\n        /* \"Qvoting.sol\":3038:3039  i */\n      dup9\n        /* \"Qvoting.sol\":3030:3040  _voters[i] */\n      dup2\n      mload\n      dup2\n      lt\n      tag_113\n      jumpi\n      tag_114\n      tag_108\n      jump\t// in\n    tag_114:\n    tag_113:\n      0x20\n      mul\n      0x20\n      add\n      add\n      mload\n        /* \"Qvoting.sol\":3020:3041  allVoters[_voters[i]] */\n      0xffffffffffffffffffffffffffffffffffffffff\n      and\n      0xffffffffffffffffffffffffffffffffffffffff\n      and\n      dup2\n      mstore\n      0x20\n      add\n      swap1\n      dup2\n      mstore\n      0x20\n      add\n      0x00\n      keccak256\n        /* \"Qvoting.sol\":3020:3053  allVoters[_voters[i]][proposalId] */\n      0x00\n        /* \"Qvoting.sol\":3042:3052  proposalId */\n      sload(0x05)\n        /* \"Qvoting.sol\":3020:3053  allVoters[_voters[i]][proposalId] */\n      dup2\n      mstore\n      0x20\n      add\n      swap1\n      dup2\n      mstore\n      0x20\n      add\n      0x00\n      keccak256\n        /* \"Qvoting.sol\":3020:3065  allVoters[_voters[i]][proposalId].createVoter */\n      tag_115\n      swap1\n        /* \"Qvoting.sol\":3020:3108  allVoters[_voters[i]][proposalId].createVoter(proposalId, _voters[i], false, _voteRight) */\n      swap5\n      swap4\n      swap3\n      swap2\n      swap1\n      0xffffffff\n      and\n      jump\t// in\n    tag_110:\n      pop\n        /* \"Qvoting.sol\":3128:3169  mintAndburn(\"mint\",_voters[i],_voteRight) */\n      0xabf5327be9f5825c40d58bda541dd07f09b62df3376bbd5ecdbaa8bd82a9d492\n        /* \"Qvoting.sol\":3147:3154  _voters */\n      dup10\n        /* \"Qvoting.sol\":3155:3156  i */\n      dup3\n        /* \"Qvoting.sol\":3147:3157  _voters[i] */\n      dup2\n      mload\n      dup2\n      lt\n      tag_116\n      jumpi\n      tag_117\n      tag_108\n      jump\t// in\n    tag_117:\n    tag_116:\n      0x20\n      mul\n      0x20\n      add\n      add\n      mload\n        /* \"Qvoting.sol\":3158:3168  _voteRight */\n      dup4\n        /* \"Qvoting.sol\":3128:3169  mintAndburn(\"mint\",_voters[i],_voteRight) */\n      mload(0x40)\n      tag_118\n      swap3\n      swap2\n      swap1\n      tag_119\n      jump\t// in\n    tag_118:\n      mload(0x40)\n      dup1\n      swap2\n      sub\n      swap1\n      log1\n        /* \"Qvoting.sol\":2959:2962  i++ */\n      dup1\n      dup1\n      tag_120\n      swap1\n      tag_97\n      jump\t// in\n    tag_120:\n      swap2\n      pop\n      pop\n        /* \"Qvoting.sol\":2926:3185  for(uint256 i=0;i<_voters.length;i++){\r... */\n      jump(tag_102)\n    tag_103:\n      pop\n        /* \"Qvoting.sol\":3197:3254  userProposal[_msgSender()].updateProposalList(proposalId) */\n      tag_121\n        /* \"Qvoting.sol\":3243:3253  proposalId */\n      sload(0x05)\n        /* \"Qvoting.sol\":3197:3209  userProposal */\n      0x06\n        /* \"Qvoting.sol\":3197:3223  userProposal[_msgSender()] */\n      0x00\n        /* \"Qvoting.sol\":3210:3222  _msgSender() */\n      tag_122\n        /* \"Qvoting.sol\":3210:3220  _msgSender */\n      tag_123\n        /* \"Qvoting.sol\":3210:3222  _msgSender() */\n      jump\t// in\n    tag_122:\n        /* \"Qvoting.sol\":3197:3223  userProposal[_msgSender()] */\n      0xffffffffffffffffffffffffffffffffffffffff\n      and\n      0xffffffffffffffffffffffffffffffffffffffff\n      and\n      dup2\n      mstore\n      0x20\n      add\n      swap1\n      dup2\n      mstore\n      0x20\n      add\n      0x00\n      keccak256\n        /* \"Qvoting.sol\":3197:3242  userProposal[_msgSender()].updateProposalList */\n      tag_124\n      swap1\n        /* \"Qvoting.sol\":3197:3254  userProposal[_msgSender()].updateProposalList(proposalId) */\n      swap2\n      swap1\n      0xffffffff\n      and\n      jump\t// in\n    tag_121:\n      pop\n        /* \"Qvoting.sol\":1965:3262  function createProposal(uint8 _status, address[] memory _voters, address _creator,\r... */\n      pop\n      pop\n      pop\n      pop\n      pop\n      pop\n      pop\n      pop\n      pop\n      jump\t// out\n        /* \"Qvoting.sol\":3270:4525  function responseProposal(uint _proposalId, address _voter, string[] memory _hash, uint[] memory v) external {\r... */\n    tag_41:\n        /* \"Qvoting.sol\":3493:3507  validProposals */\n      0x09\n        /* \"Qvoting.sol\":3493:3520  validProposals[_proposalId] */\n      0x00\n        /* \"Qvoting.sol\":3508:3519  _proposalId */\n      dup6\n        /* \"Qvoting.sol\":3493:3520  validProposals[_proposalId] */\n      dup2\n      mstore\n      0x20\n      add\n      swap1\n      dup2\n      mstore\n      0x20\n      add\n      0x00\n      keccak256\n      0x00\n      swap1\n      sload\n      swap1\n      0x0100\n      exp\n      swap1\n      div\n      0xff\n      and\n        /* \"Qvoting.sol\":3485:3542  require(validProposals[_proposalId],\"invalid proposalId\") */\n      tag_126\n      jumpi\n      mload(0x40)\n      0x08c379a000000000000000000000000000000000000000000000000000000000\n      dup2\n      mstore\n      0x04\n      add\n      tag_127\n      swap1\n      tag_128\n      jump\t// in\n    tag_127:\n      mload(0x40)\n      dup1\n      swap2\n      sub\n      swap1\n      revert\n    tag_126:\n        /* \"Qvoting.sol\":3606:3617  _proposalId */\n      dup4\n        /* \"Qvoting.sol\":3561:3570  allVoters */\n      0x08\n        /* \"Qvoting.sol\":3561:3578  allVoters[_voter] */\n      0x00\n        /* \"Qvoting.sol\":3571:3577  _voter */\n      dup6\n        /* \"Qvoting.sol\":3561:3578  allVoters[_voter] */\n      0xffffffffffffffffffffffffffffffffffffffff\n      and\n      0xffffffffffffffffffffffffffffffffffffffff\n      and\n      dup2\n      mstore\n      0x20\n      add\n      swap1\n      dup2\n      mstore\n      0x20\n      add\n      0x00\n      keccak256\n        /* \"Qvoting.sol\":3561:3591  allVoters[_voter][_proposalId] */\n      0x00\n        /* \"Qvoting.sol\":3579:3590  _proposalId */\n      dup7\n        /* \"Qvoting.sol\":3561:3591  allVoters[_voter][_proposalId] */\n      dup2\n      mstore\n      0x20\n      add\n      swap1\n      dup2\n      mstore\n      0x20\n      add\n      0x00\n      keccak256\n        /* \"Qvoting.sol\":3561:3602  allVoters[_voter][_proposalId].proposalId */\n      0x00\n      add\n      sload\n        /* \"Qvoting.sol\":3561:3617  allVoters[_voter][_proposalId].proposalId == _proposalId */\n      eq\n        /* \"Qvoting.sol\":3553:3657  require(allVoters[_voter][_proposalId].proposalId == _proposalId, \"not a valid voter for this proposal\") */\n      tag_129\n      jumpi\n      mload(0x40)\n      0x08c379a000000000000000000000000000000000000000000000000000000000\n      dup2\n      mstore\n      0x04\n      add\n      tag_130\n      swap1\n      tag_131\n      jump\t// in\n    tag_130:\n      mload(0x40)\n      dup1\n      swap2\n      sub\n      swap1\n      revert\n    tag_129:\n        /* \"Qvoting.sol\":3738:3747  allVoters */\n      0x08\n        /* \"Qvoting.sol\":3738:3755  allVoters[_voter] */\n      0x00\n        /* \"Qvoting.sol\":3748:3754  _voter */\n      dup5\n        /* \"Qvoting.sol\":3738:3755  allVoters[_voter] */\n      0xffffffffffffffffffffffffffffffffffffffff\n      and\n      0xffffffffffffffffffffffffffffffffffffffff\n      and\n      dup2\n      mstore\n      0x20\n      add\n      swap1\n      dup2\n      mstore\n      0x20\n      add\n      0x00\n      keccak256\n        /* \"Qvoting.sol\":3738:3768  allVoters[_voter][_proposalId] */\n      0x00\n        /* \"Qvoting.sol\":3756:3767  _proposalId */\n      dup6\n        /* \"Qvoting.sol\":3738:3768  allVoters[_voter][_proposalId] */\n      dup2\n      mstore\n      0x20\n      add\n      swap1\n      dup2\n      mstore\n      0x20\n      add\n      0x00\n      keccak256\n        /* \"Qvoting.sol\":3738:3777  allVoters[_voter][_proposalId].hasVoted */\n      0x01\n      add\n      0x14\n      swap1\n      sload\n      swap1\n      0x0100\n      exp\n      swap1\n      div\n      0xff\n      and\n        /* \"Qvoting.sol\":3737:3777  !allVoters[_voter][_proposalId].hasVoted */\n      iszero\n        /* \"Qvoting.sol\":3729:3795  require(!allVoters[_voter][_proposalId].hasVoted, \"already voted\") */\n      tag_132\n      jumpi\n      mload(0x40)\n      0x08c379a000000000000000000000000000000000000000000000000000000000\n      dup2\n      mstore\n      0x04\n      add\n      tag_133\n      swap1\n      tag_134\n      jump\t// in\n    tag_133:\n      mload(0x40)\n      dup1\n      swap2\n      sub\n      swap1\n      revert\n    tag_132:\n        /* \"Qvoting.sol\":3852:3857  _hash */\n      dup2\n        /* \"Qvoting.sol\":3852:3864  _hash.length */\n      mload\n        /* \"Qvoting.sol\":3814:3823  proposals */\n      0x07\n        /* \"Qvoting.sol\":3814:3836  proposals[_proposalId] */\n      0x00\n        /* \"Qvoting.sol\":3824:3835  _proposalId */\n      dup7\n        /* \"Qvoting.sol\":3814:3836  proposals[_proposalId] */\n      dup2\n      mstore\n      0x20\n      add\n      swap1\n      dup2\n      mstore\n      0x20\n      add\n      0x00\n      keccak256\n        /* \"Qvoting.sol\":3814:3849  proposals[_proposalId].numOfOptions */\n      0x04\n      add\n      0x00\n      swap1\n      sload\n      swap1\n      0x0100\n      exp\n      swap1\n      div\n      0xffff\n      and\n        /* \"Qvoting.sol\":3814:3864  proposals[_proposalId].numOfOptions ==_hash.length */\n      0xffff\n      and\n      eq\n        /* \"Qvoting.sol\":3806:3905  require(proposals[_proposalId].numOfOptions ==_hash.length, \"not a valid length of hash response!\") */\n      tag_135\n      jumpi\n      mload(0x40)\n      0x08c379a000000000000000000000000000000000000000000000000000000000\n      dup2\n      mstore\n      0x04\n      add\n      tag_136\n      swap1\n      tag_137\n      jump\t// in\n    tag_136:\n      mload(0x40)\n      dup1\n      swap2\n      sub\n      swap1\n      revert\n    tag_135:\n        /* \"Qvoting.sol\":3916:3924  uint sum */\n      0x00\n        /* \"Qvoting.sol\":3941:3947  uint i */\n      dup1\n        /* \"Qvoting.sol\":3937:4006  for(uint i=0;i<v.length;i++){\r... */\n    tag_138:\n        /* \"Qvoting.sol\":3952:3953  v */\n      dup3\n        /* \"Qvoting.sol\":3952:3960  v.length */\n      mload\n        /* \"Qvoting.sol\":3950:3951  i */\n      dup2\n        /* \"Qvoting.sol\":3950:3960  i<v.length */\n      lt\n        /* \"Qvoting.sol\":3937:4006  for(uint i=0;i<v.length;i++){\r... */\n      iszero\n      tag_139\n      jumpi\n        /* \"Qvoting.sol\":3990:3991  v */\n      dup3\n        /* \"Qvoting.sol\":3992:3993  i */\n      dup2\n        /* \"Qvoting.sol\":3990:3994  v[i] */\n      dup2\n      mload\n      dup2\n      lt\n      tag_141\n      jumpi\n      tag_142\n      tag_108\n      jump\t// in\n    tag_142:\n    tag_141:\n      0x20\n      mul\n      0x20\n      add\n      add\n      mload\n        /* \"Qvoting.sol\":3985:3986  v */\n      dup4\n        /* \"Qvoting.sol\":3987:3988  i */\n      dup3\n        /* \"Qvoting.sol\":3985:3989  v[i] */\n      dup2\n      mload\n      dup2\n      lt\n      tag_143\n      jumpi\n      tag_144\n      tag_108\n      jump\t// in\n    tag_144:\n    tag_143:\n      0x20\n      mul\n      0x20\n      add\n      add\n      mload\n        /* \"Qvoting.sol\":3985:3994  v[i]*v[i] */\n      tag_145\n      swap2\n      swap1\n      tag_146\n      jump\t// in\n    tag_145:\n        /* \"Qvoting.sol\":3980:3994  sum+=v[i]*v[i] */\n      dup3\n      tag_147\n      swap2\n      swap1\n      tag_148\n      jump\t// in\n    tag_147:\n      swap2\n      pop\n        /* \"Qvoting.sol\":3961:3964  i++ */\n      dup1\n      dup1\n      tag_149\n      swap1\n      tag_97\n      jump\t// in\n    tag_149:\n      swap2\n      pop\n      pop\n        /* \"Qvoting.sol\":3937:4006  for(uint i=0;i<v.length;i++){\r... */\n      jump(tag_138)\n    tag_139:\n      pop\n        /* \"Qvoting.sol\":4066:4069  sum */\n      dup1\n        /* \"Qvoting.sol\":4024:4033  allVoters */\n      0x08\n        /* \"Qvoting.sol\":4024:4041  allVoters[_voter] */\n      0x00\n        /* \"Qvoting.sol\":4034:4040  _voter */\n      dup7\n        /* \"Qvoting.sol\":4024:4041  allVoters[_voter] */\n      0xffffffffffffffffffffffffffffffffffffffff\n      and\n      0xffffffffffffffffffffffffffffffffffffffff\n      and\n      dup2\n      mstore\n      0x20\n      add\n      swap1\n      dup2\n      mstore\n      0x20\n      add\n      0x00\n      keccak256\n        /* \"Qvoting.sol\":4024:4054  allVoters[_voter][_proposalId] */\n      0x00\n        /* \"Qvoting.sol\":4042:4053  _proposalId */\n      dup8\n        /* \"Qvoting.sol\":4024:4054  allVoters[_voter][_proposalId] */\n      dup2\n      mstore\n      0x20\n      add\n      swap1\n      dup2\n      mstore\n      0x20\n      add\n      0x00\n      keccak256\n        /* \"Qvoting.sol\":4024:4062  allVoters[_voter][_proposalId].voteNum */\n      0x02\n      add\n      sload\n        /* \"Qvoting.sol\":4024:4069  allVoters[_voter][_proposalId].voteNum >= sum */\n      lt\n      iszero\n        /* \"Qvoting.sol\":4016:4109  require(allVoters[_voter][_proposalId].voteNum >= sum, \"not sufficient balance to cast vote\") */\n      tag_150\n      jumpi\n      mload(0x40)\n      0x08c379a000000000000000000000000000000000000000000000000000000000\n      dup2\n      mstore\n      0x04\n      add\n      tag_151\n      swap1\n      tag_152\n      jump\t// in\n    tag_151:\n      mload(0x40)\n      dup1\n      swap2\n      sub\n      swap1\n      revert\n    tag_150:\n        /* \"Qvoting.sol\":4122:4178  proposals[_proposalId].responseProposal(_voter,_hash, v) */\n      tag_153\n        /* \"Qvoting.sol\":4162:4168  _voter */\n      dup5\n        /* \"Qvoting.sol\":4169:4174  _hash */\n      dup5\n        /* \"Qvoting.sol\":4176:4177  v */\n      dup5\n        /* \"Qvoting.sol\":4122:4131  proposals */\n      0x07\n        /* \"Qvoting.sol\":4122:4144  proposals[_proposalId] */\n      0x00\n        /* \"Qvoting.sol\":4132:4143  _proposalId */\n      dup11\n        /* \"Qvoting.sol\":4122:4144  proposals[_proposalId] */\n      dup2\n      mstore\n      0x20\n      add\n      swap1\n      dup2\n      mstore\n      0x20\n      add\n      0x00\n      keccak256\n        /* \"Qvoting.sol\":4122:4161  proposals[_proposalId].responseProposal */\n      tag_154\n      swap1\n        /* \"Qvoting.sol\":4122:4178  proposals[_proposalId].responseProposal(_voter,_hash, v) */\n      swap4\n      swap3\n      swap2\n      swap1\n      0xffffffff\n      and\n      jump\t// in\n    tag_153:\n      pop\n        /* \"Qvoting.sol\":4189:4254  userProposal[_msgSender()].updateResponseList(_proposalId, _hash) */\n      tag_155\n        /* \"Qvoting.sol\":4235:4246  _proposalId */\n      dup6\n        /* \"Qvoting.sol\":4248:4253  _hash */\n      dup5\n        /* \"Qvoting.sol\":4189:4201  userProposal */\n      0x06\n        /* \"Qvoting.sol\":4189:4215  userProposal[_msgSender()] */\n      0x00\n        /* \"Qvoting.sol\":4202:4214  _msgSender() */\n      tag_156\n        /* \"Qvoting.sol\":4202:4212  _msgSender */\n      tag_123\n        /* \"Qvoting.sol\":4202:4214  _msgSender() */\n      jump\t// in\n    tag_156:\n        /* \"Qvoting.sol\":4189:4215  userProposal[_msgSender()] */\n      0xffffffffffffffffffffffffffffffffffffffff\n      and\n      0xffffffffffffffffffffffffffffffffffffffff\n      and\n      dup2\n      mstore\n      0x20\n      add\n      swap1\n      dup2\n      mstore\n      0x20\n      add\n      0x00\n      keccak256\n        /* \"Qvoting.sol\":4189:4234  userProposal[_msgSender()].updateResponseList */\n      tag_157\n      swap1\n        /* \"Qvoting.sol\":4189:4254  userProposal[_msgSender()].updateResponseList(_proposalId, _hash) */\n      swap3\n      swap2\n      swap1\n      0xffffffff\n      and\n      jump\t// in\n    tag_155:\n      pop\n        /* \"Qvoting.sol\":4267:4313  allVoters[_voter][_proposalId].updateVoteNum() */\n      tag_158\n        /* \"Qvoting.sol\":4267:4276  allVoters */\n      0x08\n        /* \"Qvoting.sol\":4267:4284  allVoters[_voter] */\n      0x00\n        /* \"Qvoting.sol\":4277:4283  _voter */\n      dup7\n        /* \"Qvoting.sol\":4267:4284  allVoters[_voter] */\n      0xffffffffffffffffffffffffffffffffffffffff\n      and\n      0xffffffffffffffffffffffffffffffffffffffff\n      and\n      dup2\n      mstore\n      0x20\n      add\n      swap1\n      dup2\n      mstore\n      0x20\n      add\n      0x00\n      keccak256\n        /* \"Qvoting.sol\":4267:4297  allVoters[_voter][_proposalId] */\n      0x00\n        /* \"Qvoting.sol\":4285:4296  _proposalId */\n      dup8\n        /* \"Qvoting.sol\":4267:4297  allVoters[_voter][_proposalId] */\n      dup2\n      mstore\n      0x20\n      add\n      swap1\n      dup2\n      mstore\n      0x20\n      add\n      0x00\n      keccak256\n        /* \"Qvoting.sol\":4267:4311  allVoters[_voter][_proposalId].updateVoteNum */\n      tag_159\n        /* \"Qvoting.sol\":4267:4313  allVoters[_voter][_proposalId].updateVoteNum() */\n      jump\t// in\n    tag_158:\n      pop\n        /* \"Qvoting.sol\":4366:4370  true */\n      0x01\n        /* \"Qvoting.sol\":4324:4333  allVoters */\n      0x08\n        /* \"Qvoting.sol\":4324:4341  allVoters[_voter] */\n      0x00\n        /* \"Qvoting.sol\":4334:4340  _voter */\n      dup7\n        /* \"Qvoting.sol\":4324:4341  allVoters[_voter] */\n      0xffffffffffffffffffffffffffffffffffffffff\n      and\n      0xffffffffffffffffffffffffffffffffffffffff\n      and\n      dup2\n      mstore\n      0x20\n      add\n      swap1\n      dup2\n      mstore\n      0x20\n      add\n      0x00\n      keccak256\n        /* \"Qvoting.sol\":4324:4354  allVoters[_voter][_proposalId] */\n      0x00\n        /* \"Qvoting.sol\":4342:4353  _proposalId */\n      dup8\n        /* \"Qvoting.sol\":4324:4354  allVoters[_voter][_proposalId] */\n      dup2\n      mstore\n      0x20\n      add\n      swap1\n      dup2\n      mstore\n      0x20\n      add\n      0x00\n      keccak256\n        /* \"Qvoting.sol\":4324:4363  allVoters[_voter][_proposalId].hasVoted */\n      0x01\n      add\n      0x14\n        /* \"Qvoting.sol\":4324:4370  allVoters[_voter][_proposalId].hasVoted = true */\n      0x0100\n      exp\n      dup2\n      sload\n      dup2\n      0xff\n      mul\n      not\n      and\n      swap1\n      dup4\n      iszero\n      iszero\n      mul\n      or\n      swap1\n      sstore\n      pop\n        /* \"Qvoting.sol\":3379:4525  {\r... */\n      pop\n        /* \"Qvoting.sol\":3270:4525  function responseProposal(uint _proposalId, address _voter, string[] memory _hash, uint[] memory v) external {\r... */\n      pop\n      pop\n      pop\n      pop\n      jump\t// out\n        /* \"Qvoting.sol\":5616:6045  function burnOwner(uint _proposalId, address _voter) external returns(bool){\r... */\n    tag_45:\n        /* \"Qvoting.sol\":5686:5690  bool */\n      0x00\n        /* \"Qvoting.sol\":5710:5719  allVoters */\n      0x08\n        /* \"Qvoting.sol\":5710:5727  allVoters[_voter] */\n      0x00\n        /* \"Qvoting.sol\":5720:5726  _voter */\n      dup4\n        /* \"Qvoting.sol\":5710:5727  allVoters[_voter] */\n      0xffffffffffffffffffffffffffffffffffffffff\n      and\n      0xffffffffffffffffffffffffffffffffffffffff\n      and\n      dup2\n      mstore\n      0x20\n      add\n      swap1\n      dup2\n      mstore\n      0x20\n      add\n      0x00\n      keccak256\n        /* \"Qvoting.sol\":5710:5740  allVoters[_voter][_proposalId] */\n      0x00\n        /* \"Qvoting.sol\":5728:5739  _proposalId */\n      dup5\n        /* \"Qvoting.sol\":5710:5740  allVoters[_voter][_proposalId] */\n      dup2\n      mstore\n      0x20\n      add\n      swap1\n      dup2\n      mstore\n      0x20\n      add\n      0x00\n      keccak256\n        /* \"Qvoting.sol\":5710:5749  allVoters[_voter][_proposalId].hasVoted */\n      0x01\n      add\n      0x14\n      swap1\n      sload\n      swap1\n      0x0100\n      exp\n      swap1\n      div\n      0xff\n      and\n        /* \"Qvoting.sol\":5702:5767  require(allVoters[_voter][_proposalId].hasVoted, \"not voted yet\") */\n      tag_161\n      jumpi\n      mload(0x40)\n      0x08c379a000000000000000000000000000000000000000000000000000000000\n      dup2\n      mstore\n      0x04\n      add\n      tag_162\n      swap1\n      tag_163\n      jump\t// in\n    tag_162:\n      mload(0x40)\n      dup1\n      swap2\n      sub\n      swap1\n      revert\n    tag_161:\n        /* \"Qvoting.sol\":5831:5842  _proposalId */\n      dup3\n        /* \"Qvoting.sol\":5786:5795  allVoters */\n      0x08\n        /* \"Qvoting.sol\":5786:5803  allVoters[_voter] */\n      0x00\n        /* \"Qvoting.sol\":5796:5802  _voter */\n      dup5\n        /* \"Qvoting.sol\":5786:5803  allVoters[_voter] */\n      0xffffffffffffffffffffffffffffffffffffffff\n      and\n      0xffffffffffffffffffffffffffffffffffffffff\n      and\n      dup2\n      mstore\n      0x20\n      add\n      swap1\n      dup2\n      mstore\n      0x20\n      add\n      0x00\n      keccak256\n        /* \"Qvoting.sol\":5786:5816  allVoters[_voter][_proposalId] */\n      0x00\n        /* \"Qvoting.sol\":5804:5815  _proposalId */\n      dup6\n        /* \"Qvoting.sol\":5786:5816  allVoters[_voter][_proposalId] */\n      dup2\n      mstore\n      0x20\n      add\n      swap1\n      dup2\n      mstore\n      0x20\n      add\n      0x00\n      keccak256\n        /* \"Qvoting.sol\":5786:5827  allVoters[_voter][_proposalId].proposalId */\n      0x00\n      add\n      sload\n        /* \"Qvoting.sol\":5786:5842  allVoters[_voter][_proposalId].proposalId == _proposalId */\n      eq\n        /* \"Qvoting.sol\":5778:5882  require(allVoters[_voter][_proposalId].proposalId == _proposalId, \"not a valid voter for this proposal\") */\n      tag_164\n      jumpi\n      mload(0x40)\n      0x08c379a000000000000000000000000000000000000000000000000000000000\n      dup2\n      mstore\n      0x04\n      add\n      tag_165\n      swap1\n      tag_131\n      jump\t// in\n    tag_165:\n      mload(0x40)\n      dup1\n      swap2\n      sub\n      swap1\n      revert\n    tag_164:\n        /* \"Qvoting.sol\":5893:5938  burn(_voter,proposals[_proposalId].voteRight) */\n      tag_166\n        /* \"Qvoting.sol\":5898:5904  _voter */\n      dup3\n        /* \"Qvoting.sol\":5905:5914  proposals */\n      0x07\n        /* \"Qvoting.sol\":5905:5927  proposals[_proposalId] */\n      0x00\n        /* \"Qvoting.sol\":5915:5926  _proposalId */\n      dup7\n        /* \"Qvoting.sol\":5905:5927  proposals[_proposalId] */\n      dup2\n      mstore\n      0x20\n      add\n      swap1\n      dup2\n      mstore\n      0x20\n      add\n      0x00\n      keccak256\n        /* \"Qvoting.sol\":5905:5937  proposals[_proposalId].voteRight */\n      0x05\n      add\n      sload\n        /* \"Qvoting.sol\":5893:5897  burn */\n      tag_167\n        /* \"Qvoting.sol\":5893:5938  burn(_voter,proposals[_proposalId].voteRight) */\n      jump\t// in\n    tag_166:\n        /* \"Qvoting.sol\":5954:6015  mintAndburn(\"burn\", _voter, proposals[_proposalId].voteRight) */\n      0xabf5327be9f5825c40d58bda541dd07f09b62df3376bbd5ecdbaa8bd82a9d492\n        /* \"Qvoting.sol\":5974:5980  _voter */\n      dup3\n        /* \"Qvoting.sol\":5982:5991  proposals */\n      0x07\n        /* \"Qvoting.sol\":5982:6004  proposals[_proposalId] */\n      0x00\n        /* \"Qvoting.sol\":5992:6003  _proposalId */\n      dup7\n        /* \"Qvoting.sol\":5982:6004  proposals[_proposalId] */\n      dup2\n      mstore\n      0x20\n      add\n      swap1\n      dup2\n      mstore\n      0x20\n      add\n      0x00\n      keccak256\n        /* \"Qvoting.sol\":5982:6014  proposals[_proposalId].voteRight */\n      0x05\n      add\n      sload\n        /* \"Qvoting.sol\":5954:6015  mintAndburn(\"burn\", _voter, proposals[_proposalId].voteRight) */\n      mload(0x40)\n      tag_168\n      swap3\n      swap2\n      swap1\n      tag_169\n      jump\t// in\n    tag_168:\n      mload(0x40)\n      dup1\n      swap2\n      sub\n      swap1\n      log1\n        /* \"Qvoting.sol\":6033:6037  true */\n      0x01\n        /* \"Qvoting.sol\":6026:6037  return true */\n      swap1\n      pop\n        /* \"Qvoting.sol\":5616:6045  function burnOwner(uint _proposalId, address _voter) external returns(bool){\r... */\n      swap3\n      swap2\n      pop\n      pop\n      jump\t// out\n        /* \"QvToken/ERC20.sol\":3493:3620  function balanceOf(address account) public view virtual override returns (uint256) {\r... */\n    tag_51:\n        /* \"QvToken/ERC20.sol\":3567:3574  uint256 */\n      0x00\n        /* \"QvToken/ERC20.sol\":3594:3603  _balances */\n      dup1\n        /* \"QvToken/ERC20.sol\":3594:3612  _balances[account] */\n      0x00\n        /* \"QvToken/ERC20.sol\":3604:3611  account */\n      dup4\n        /* \"QvToken/ERC20.sol\":3594:3612  _balances[account] */\n      0xffffffffffffffffffffffffffffffffffffffff\n      and\n      0xffffffffffffffffffffffffffffffffffffffff\n      and\n      dup2\n      mstore\n      0x20\n      add\n      swap1\n      dup2\n      mstore\n      0x20\n      add\n      0x00\n      keccak256\n      sload\n        /* \"QvToken/ERC20.sol\":3587:3612  return _balances[account] */\n      swap1\n      pop\n        /* \"QvToken/ERC20.sol\":3493:3620  function balanceOf(address account) public view virtual override returns (uint256) {\r... */\n      swap2\n      swap1\n      pop\n      jump\t// out\n        /* \"QvToken/ERC20.sol\":2421:2525  function symbol() public view virtual override returns (string memory) {\r... */\n    tag_54:\n        /* \"QvToken/ERC20.sol\":2477:2490  string memory */\n      0x60\n        /* \"QvToken/ERC20.sol\":2510:2517  _symbol */\n      0x03\n        /* \"QvToken/ERC20.sol\":2503:2517  return _symbol */\n      dup1\n      sload\n      tag_172\n      swap1\n      tag_73\n      jump\t// in\n    tag_172:\n      dup1\n      0x1f\n      add\n      0x20\n      dup1\n      swap2\n      div\n      mul\n      0x20\n      add\n      mload(0x40)\n      swap1\n      dup2\n      add\n      0x40\n      mstore\n      dup1\n      swap3\n      swap2\n      swap1\n      dup2\n      dup2\n      mstore\n      0x20\n      add\n      dup3\n      dup1\n      sload\n      tag_173\n      swap1\n      tag_73\n      jump\t// in\n    tag_173:\n      dup1\n      iszero\n      tag_174\n      jumpi\n      dup1\n      0x1f\n      lt\n      tag_175\n      jumpi\n      0x0100\n      dup1\n      dup4\n      sload\n      div\n      mul\n      dup4\n      mstore\n      swap2\n      0x20\n      add\n      swap2\n      jump(tag_174)\n    tag_175:\n      dup3\n      add\n      swap2\n      swap1\n      0x00\n      mstore\n      keccak256(0x00, 0x20)\n      swap1\n    tag_176:\n      dup2\n      sload\n      dup2\n      mstore\n      swap1\n      0x01\n      add\n      swap1\n      0x20\n      add\n      dup1\n      dup4\n      gt\n      tag_176\n      jumpi\n      dup3\n      swap1\n      sub\n      0x1f\n      and\n      dup3\n      add\n      swap2\n    tag_174:\n      pop\n      pop\n      pop\n      pop\n      pop\n      swap1\n      pop\n        /* \"QvToken/ERC20.sol\":2421:2525  function symbol() public view virtual override returns (string memory) {\r... */\n      swap1\n      jump\t// out\n        /* \"Qvoting.sol\":4617:4971  function resultOfProposal(uint _proposalId) public view returns(uint, string memory){\r... */\n    tag_58:\n        /* \"Qvoting.sol\":4681:4685  uint */\n      0x00\n        /* \"Qvoting.sol\":4687:4700  string memory */\n      0x60\n        /* \"Qvoting.sol\":4720:4734  validProposals */\n      0x09\n        /* \"Qvoting.sol\":4720:4747  validProposals[_proposalId] */\n      0x00\n        /* \"Qvoting.sol\":4735:4746  _proposalId */\n      dup5\n        /* \"Qvoting.sol\":4720:4747  validProposals[_proposalId] */\n      dup2\n      mstore\n      0x20\n      add\n      swap1\n      dup2\n      mstore\n      0x20\n      add\n      0x00\n      keccak256\n      0x00\n      swap1\n      sload\n      swap1\n      0x0100\n      exp\n      swap1\n      div\n      0xff\n      and\n        /* \"Qvoting.sol\":4712:4771  require(validProposals[_proposalId],\"not a valid proposal\") */\n      tag_178\n      jumpi\n      mload(0x40)\n      0x08c379a000000000000000000000000000000000000000000000000000000000\n      dup2\n      mstore\n      0x04\n      add\n      tag_179\n      swap1\n      tag_180\n      jump\t// in\n    tag_179:\n      mload(0x40)\n      dup1\n      swap2\n      sub\n      swap1\n      revert\n    tag_178:\n        /* \"Qvoting.sol\":4865:4874  proposals */\n      0x07\n        /* \"Qvoting.sol\":4865:4887  proposals[_proposalId] */\n      0x00\n        /* \"Qvoting.sol\":4875:4886  _proposalId */\n      dup5\n        /* \"Qvoting.sol\":4865:4887  proposals[_proposalId] */\n      dup2\n      mstore\n      0x20\n      add\n      swap1\n      dup2\n      mstore\n      0x20\n      add\n      0x00\n      keccak256\n        /* \"Qvoting.sol\":4865:4893  proposals[_proposalId].votes */\n      0x0a\n      add\n        /* \"Qvoting.sol\":4894:4903  proposals */\n      0x07\n        /* \"Qvoting.sol\":4894:4916  proposals[_proposalId] */\n      0x00\n        /* \"Qvoting.sol\":4904:4915  _proposalId */\n      dup6\n        /* \"Qvoting.sol\":4894:4916  proposals[_proposalId] */\n      dup2\n      mstore\n      0x20\n      add\n      swap1\n      dup2\n      mstore\n      0x20\n      add\n      0x00\n      keccak256\n        /* \"Qvoting.sol\":4894:4923  proposals[_proposalId].result */\n      0x09\n      add\n        /* \"Qvoting.sol\":4894:4926  proposals[_proposalId].result[1] */\n      0x00\n        /* \"Qvoting.sol\":4924:4925  1 */\n      0x01\n        /* \"Qvoting.sol\":4894:4926  proposals[_proposalId].result[1] */\n      dup2\n      mstore\n      0x20\n      add\n      swap1\n      dup2\n      mstore\n      0x20\n      add\n      0x00\n      keccak256\n        /* \"Qvoting.sol\":4865:4927  proposals[_proposalId].votes[proposals[_proposalId].result[1]] */\n      mload(0x40)\n      tag_181\n      swap2\n      swap1\n      tag_182\n      jump\t// in\n    tag_181:\n      swap1\n      dup2\n      mstore\n      0x20\n      add\n      mload(0x40)\n      dup1\n      swap2\n      sub\n      swap1\n      keccak256\n      sload\n        /* \"Qvoting.sol\":4928:4937  proposals */\n      0x07\n        /* \"Qvoting.sol\":4928:4950  proposals[_proposalId] */\n      0x00\n        /* \"Qvoting.sol\":4938:4949  _proposalId */\n      dup6\n        /* \"Qvoting.sol\":4928:4950  proposals[_proposalId] */\n      dup2\n      mstore\n      0x20\n      add\n      swap1\n      dup2\n      mstore\n      0x20\n      add\n      0x00\n      keccak256\n        /* \"Qvoting.sol\":4928:4957  proposals[_proposalId].result */\n      0x09\n      add\n        /* \"Qvoting.sol\":4928:4960  proposals[_proposalId].result[1] */\n      0x00\n        /* \"Qvoting.sol\":4958:4959  1 */\n      0x01\n        /* \"Qvoting.sol\":4928:4960  proposals[_proposalId].result[1] */\n      dup2\n      mstore\n      0x20\n      add\n      swap1\n      dup2\n      mstore\n      0x20\n      add\n      0x00\n      keccak256\n        /* \"Qvoting.sol\":4857:4961  return (proposals[_proposalId].votes[proposals[_proposalId].result[1]],proposals[_proposalId].result[1]) */\n      dup1\n      dup1\n      sload\n      tag_183\n      swap1\n      tag_73\n      jump\t// in\n    tag_183:\n      dup1\n      0x1f\n      add\n      0x20\n      dup1\n      swap2\n      div\n      mul\n      0x20\n      add\n      mload(0x40)\n      swap1\n      dup2\n      add\n      0x40\n      mstore\n      dup1\n      swap3\n      swap2\n      swap1\n      dup2\n      dup2\n      mstore\n      0x20\n      add\n      dup3\n      dup1\n      sload\n      tag_184\n      swap1\n      tag_73\n      jump\t// in\n    tag_184:\n      dup1\n      iszero\n      tag_185\n      jumpi\n      dup1\n      0x1f\n      lt\n      tag_186\n      jumpi\n      0x0100\n      dup1\n      dup4\n      sload\n      div\n      mul\n      dup4\n      mstore\n      swap2\n      0x20\n      add\n      swap2\n      jump(tag_185)\n    tag_186:\n      dup3\n      add\n      swap2\n      swap1\n      0x00\n      mstore\n      keccak256(0x00, 0x20)\n      swap1\n    tag_187:\n      dup2\n      sload\n      dup2\n      mstore\n      swap1\n      0x01\n      add\n      swap1\n      0x20\n      add\n      dup1\n      dup4\n      gt\n      tag_187\n      jumpi\n      dup3\n      swap1\n      sub\n      0x1f\n      and\n      dup3\n      add\n      swap2\n    tag_185:\n      pop\n      pop\n      pop\n      pop\n      pop\n      swap1\n      pop\n      swap2\n      pop\n      swap2\n      pop\n        /* \"Qvoting.sol\":4617:4971  function resultOfProposal(uint _proposalId) public view returns(uint, string memory){\r... */\n      swap2\n      pop\n      swap2\n      jump\t// out\n        /* \"Qvoting.sol\":1400:1472  mapping(address => mapping(uint => voterLibrary.voter)) public allVoters */\n    tag_64:\n      mstore(0x20, 0x08)\n      dup2\n      0x00\n      mstore\n      mstore(0x20, keccak256(0x00, 0x40))\n      dup1\n      0x00\n      mstore\n      keccak256(0x00, 0x40)\n      0x00\n      swap2\n      pop\n      swap2\n      pop\n      pop\n      dup1\n      0x00\n      add\n      sload\n      swap1\n      dup1\n      0x01\n      add\n      0x00\n      swap1\n      sload\n      swap1\n      0x0100\n      exp\n      swap1\n      div\n      0xffffffffffffffffffffffffffffffffffffffff\n      and\n      swap1\n      dup1\n      0x01\n      add\n      0x14\n      swap1\n      sload\n      swap1\n      0x0100\n      exp\n      swap1\n      div\n      0xff\n      and\n      swap1\n      dup1\n      0x02\n      add\n      sload\n      swap1\n      pop\n      dup5\n      jump\t// out\n        /* \"Qvoting.sol\":1201:1273  mapping(address => UserProposalLibrary.UserProposal) public userProposal */\n    tag_69:\n      mstore(0x20, 0x06)\n      dup1\n      0x00\n      mstore\n      keccak256(0x00, 0x40)\n      0x00\n      swap2\n      pop\n      swap1\n      pop\n      dup1\n      0x00\n      add\n      0x00\n      swap1\n      sload\n      swap1\n      0x0100\n      exp\n      swap1\n      div\n      0xffffffffffffffffffffffffffffffff\n      and\n      swap1\n      dup1\n      0x00\n      add\n      0x10\n      swap1\n      sload\n      swap1\n      0x0100\n      exp\n      swap1\n      div\n      0xffffffffffffffffffffffffffffffff\n      and\n      swap1\n      pop\n      dup3\n      jump\t// out\n        /* \"Library/ProposalLibrary.sol\":812:2003  function createProposal(proposal storage self, uint8 _status, address[] memory _voters, address _creator,\r... */\n    tag_99:\n        /* \"Library/ProposalLibrary.sol\":1052:1056  bool */\n      0x00\n        /* \"Library/ProposalLibrary.sol\":1107:1115  _creator */\n      dup8\n        /* \"Library/ProposalLibrary.sol\":1092:1096  self */\n      dup12\n        /* \"Library/ProposalLibrary.sol\":1092:1104  self.creator */\n      0x00\n      add\n      0x00\n        /* \"Library/ProposalLibrary.sol\":1092:1115  self.creator = _creator */\n      0x0100\n      exp\n      dup2\n      sload\n      dup2\n      0xffffffffffffffffffffffffffffffffffffffff\n      mul\n      not\n      and\n      swap1\n      dup4\n      0xffffffffffffffffffffffffffffffffffffffff\n      and\n      mul\n      or\n      swap1\n      sstore\n      pop\n        /* \"Library/ProposalLibrary.sol\":1164:1171  _status */\n      dup10\n        /* \"Library/ProposalLibrary.sol\":1150:1154  self */\n      dup12\n        /* \"Library/ProposalLibrary.sol\":1150:1161  self.status */\n      0x00\n      add\n      0x14\n        /* \"Library/ProposalLibrary.sol\":1150:1171  self.status = _status */\n      0x0100\n      exp\n      dup2\n      sload\n      dup2\n      0xff\n      mul\n      not\n      and\n      swap1\n      dup4\n      0xff\n      and\n      mul\n      or\n      swap1\n      sstore\n      pop\n        /* \"Library/ProposalLibrary.sol\":1218:1223  _disc */\n      dup5\n        /* \"Library/ProposalLibrary.sol\":1206:1210  self */\n      dup12\n        /* \"Library/ProposalLibrary.sol\":1206:1215  self.disc */\n      0x01\n      add\n        /* \"Library/ProposalLibrary.sol\":1206:1223  self.disc = _disc */\n      swap1\n      dup1\n      mload\n      swap1\n      0x20\n      add\n      swap1\n      tag_189\n      swap3\n      swap2\n      swap1\n      tag_190\n      jump\t// in\n    tag_189:\n      pop\n        /* \"Library/ProposalLibrary.sol\":1275:1285  _startTime */\n      dup7\n        /* \"Library/ProposalLibrary.sol\":1258:1262  self */\n      dup12\n        /* \"Library/ProposalLibrary.sol\":1258:1272  self.startTime */\n      0x02\n      add\n        /* \"Library/ProposalLibrary.sol\":1258:1285  self.startTime = _startTime */\n      dup2\n      swap1\n      sstore\n      pop\n        /* \"Library/ProposalLibrary.sol\":1342:1357  _expirationTime */\n      dup6\n        /* \"Library/ProposalLibrary.sol\":1320:1324  self */\n      dup12\n        /* \"Library/ProposalLibrary.sol\":1320:1339  self.expirationTime */\n      0x03\n      add\n        /* \"Library/ProposalLibrary.sol\":1320:1357  self.expirationTime = _expirationTime */\n      dup2\n      swap1\n      sstore\n      pop\n        /* \"Library/ProposalLibrary.sol\":1419:1426  _option */\n      dup3\n      dup3\n        /* \"Library/ProposalLibrary.sol\":1419:1433  _option.length */\n      swap1\n      pop\n        /* \"Library/ProposalLibrary.sol\":1392:1396  self */\n      dup12\n        /* \"Library/ProposalLibrary.sol\":1392:1409  self.numOfOptions */\n      0x04\n      add\n      0x00\n        /* \"Library/ProposalLibrary.sol\":1392:1434  self.numOfOptions = uint16(_option.length) */\n      0x0100\n      exp\n      dup2\n      sload\n      dup2\n      0xffff\n      mul\n      not\n      and\n      swap1\n      dup4\n      0xffff\n      and\n      mul\n      or\n      swap1\n      sstore\n      pop\n        /* \"Library/ProposalLibrary.sol\":1486:1496  _voteRight */\n      dup4\n        /* \"Library/ProposalLibrary.sol\":1469:1473  self */\n      dup12\n        /* \"Library/ProposalLibrary.sol\":1469:1483  self.voteRight */\n      0x05\n      add\n        /* \"Library/ProposalLibrary.sol\":1469:1496  self.voteRight = _voteRight */\n      dup2\n      swap1\n      sstore\n      pop\n        /* \"Library/ProposalLibrary.sol\":1535:1544  uint256 i */\n      0x00\n        /* \"Library/ProposalLibrary.sol\":1531:1746  for(uint256 i=0;i<_option.length;i++){\r... */\n    tag_191:\n        /* \"Library/ProposalLibrary.sol\":1549:1556  _option */\n      dup4\n      dup4\n        /* \"Library/ProposalLibrary.sol\":1549:1563  _option.length */\n      swap1\n      pop\n        /* \"Library/ProposalLibrary.sol\":1547:1548  i */\n      dup2\n        /* \"Library/ProposalLibrary.sol\":1547:1563  i<_option.length */\n      lt\n        /* \"Library/ProposalLibrary.sol\":1531:1746  for(uint256 i=0;i<_option.length;i++){\r... */\n      iszero\n      tag_192\n      jumpi\n        /* \"Library/ProposalLibrary.sol\":1633:1637  true */\n      0x01\n        /* \"Library/ProposalLibrary.sol\":1607:1611  self */\n      dup13\n        /* \"Library/ProposalLibrary.sol\":1607:1618  self.option */\n      0x07\n      add\n        /* \"Library/ProposalLibrary.sol\":1619:1626  _option */\n      dup6\n      dup6\n        /* \"Library/ProposalLibrary.sol\":1627:1628  i */\n      dup5\n        /* \"Library/ProposalLibrary.sol\":1619:1629  _option[i] */\n      dup2\n      dup2\n      lt\n      tag_194\n      jumpi\n      tag_195\n      tag_108\n      jump\t// in\n    tag_195:\n    tag_194:\n      swap1\n      pop\n      0x20\n      mul\n      dup2\n      add\n      swap1\n      tag_196\n      swap2\n      swap1\n      tag_197\n      jump\t// in\n    tag_196:\n        /* \"Library/ProposalLibrary.sol\":1607:1630  self.option[_option[i]] */\n      mload(0x40)\n      tag_198\n      swap3\n      swap2\n      swap1\n      tag_199\n      jump\t// in\n    tag_198:\n      swap1\n      dup2\n      mstore\n      0x20\n      add\n      mload(0x40)\n      dup1\n      swap2\n      sub\n      swap1\n      keccak256\n      0x00\n        /* \"Library/ProposalLibrary.sol\":1607:1637  self.option[_option[i]] = true */\n      0x0100\n      exp\n      dup2\n      sload\n      dup2\n      0xff\n      mul\n      not\n      and\n      swap1\n      dup4\n      iszero\n      iszero\n      mul\n      or\n      swap1\n      sstore\n      pop\n        /* \"Library/ProposalLibrary.sol\":1700:1707  _option */\n      dup4\n      dup4\n        /* \"Library/ProposalLibrary.sol\":1708:1709  i */\n      dup3\n        /* \"Library/ProposalLibrary.sol\":1700:1710  _option[i] */\n      dup2\n      dup2\n      lt\n      tag_200\n      jumpi\n      tag_201\n      tag_108\n      jump\t// in\n    tag_201:\n    tag_200:\n      swap1\n      pop\n      0x20\n      mul\n      dup2\n      add\n      swap1\n      tag_202\n      swap2\n      swap1\n      tag_197\n      jump\t// in\n    tag_202:\n        /* \"Library/ProposalLibrary.sol\":1676:1680  self */\n      dup14\n        /* \"Library/ProposalLibrary.sol\":1676:1691  self.optionHash */\n      0x08\n      add\n        /* \"Library/ProposalLibrary.sol\":1676:1696  self.optionHash[i+1] */\n      0x00\n        /* \"Library/ProposalLibrary.sol\":1694:1695  1 */\n      0x01\n        /* \"Library/ProposalLibrary.sol\":1692:1693  i */\n      dup6\n        /* \"Library/ProposalLibrary.sol\":1692:1695  i+1 */\n      tag_203\n      swap2\n      swap1\n      tag_148\n      jump\t// in\n    tag_203:\n        /* \"Library/ProposalLibrary.sol\":1676:1696  self.optionHash[i+1] */\n      dup2\n      mstore\n      0x20\n      add\n      swap1\n      dup2\n      mstore\n      0x20\n      add\n      0x00\n      keccak256\n        /* \"Library/ProposalLibrary.sol\":1676:1710  self.optionHash[i+1] =  _option[i] */\n      swap2\n      swap1\n      tag_204\n      swap3\n      swap2\n      swap1\n      tag_205\n      jump\t// in\n    tag_204:\n      pop\n        /* \"Library/ProposalLibrary.sol\":1564:1567  i++ */\n      dup1\n      dup1\n      tag_206\n      swap1\n      tag_97\n      jump\t// in\n    tag_206:\n      swap2\n      pop\n      pop\n        /* \"Library/ProposalLibrary.sol\":1531:1746  for(uint256 i=0;i<_option.length;i++){\r... */\n      jump(tag_191)\n    tag_192:\n      pop\n        /* \"Library/ProposalLibrary.sol\":1784:1793  uint256 i */\n      0x00\n        /* \"Library/ProposalLibrary.sol\":1780:1922  for(uint256 i=0;i<_voters.length;i++){\r... */\n    tag_207:\n        /* \"Library/ProposalLibrary.sol\":1798:1805  _voters */\n      dup10\n        /* \"Library/ProposalLibrary.sol\":1798:1812  _voters.length */\n      mload\n        /* \"Library/ProposalLibrary.sol\":1796:1797  i */\n      dup2\n        /* \"Library/ProposalLibrary.sol\":1796:1812  i<_voters.length */\n      lt\n        /* \"Library/ProposalLibrary.sol\":1780:1922  for(uint256 i=0;i<_voters.length;i++){\r... */\n      iszero\n      tag_208\n      jumpi\n        /* \"Library/ProposalLibrary.sol\":1882:1886  true */\n      0x01\n        /* \"Library/ProposalLibrary.sol\":1856:1860  self */\n      dup13\n        /* \"Library/ProposalLibrary.sol\":1856:1867  self.voters */\n      0x06\n      add\n        /* \"Library/ProposalLibrary.sol\":1856:1879  self.voters[_voters[i]] */\n      0x00\n        /* \"Library/ProposalLibrary.sol\":1868:1875  _voters */\n      dup13\n        /* \"Library/ProposalLibrary.sol\":1876:1877  i */\n      dup5\n        /* \"Library/ProposalLibrary.sol\":1868:1878  _voters[i] */\n      dup2\n      mload\n      dup2\n      lt\n      tag_210\n      jumpi\n      tag_211\n      tag_108\n      jump\t// in\n    tag_211:\n    tag_210:\n      0x20\n      mul\n      0x20\n      add\n      add\n      mload\n        /* \"Library/ProposalLibrary.sol\":1856:1879  self.voters[_voters[i]] */\n      0xffffffffffffffffffffffffffffffffffffffff\n      and\n      0xffffffffffffffffffffffffffffffffffffffff\n      and\n      dup2\n      mstore\n      0x20\n      add\n      swap1\n      dup2\n      mstore\n      0x20\n      add\n      0x00\n      keccak256\n      0x00\n        /* \"Library/ProposalLibrary.sol\":1856:1886  self.voters[_voters[i]] = true */\n      0x0100\n      exp\n      dup2\n      sload\n      dup2\n      0xff\n      mul\n      not\n      and\n      swap1\n      dup4\n      iszero\n      iszero\n      mul\n      or\n      swap1\n      sstore\n      pop\n        /* \"Library/ProposalLibrary.sol\":1813:1816  i++ */\n      dup1\n      dup1\n      tag_212\n      swap1\n      tag_97\n      jump\t// in\n    tag_212:\n      swap2\n      pop\n      pop\n        /* \"Library/ProposalLibrary.sol\":1780:1922  for(uint256 i=0;i<_voters.length;i++){\r... */\n      jump(tag_207)\n    tag_208:\n      pop\n        /* \"Library/ProposalLibrary.sol\":1965:1969  true */\n      0x01\n        /* \"Library/ProposalLibrary.sol\":1958:1969  return true */\n      swap1\n      pop\n        /* \"Library/ProposalLibrary.sol\":812:2003  function createProposal(proposal storage self, uint8 _status, address[] memory _voters, address _creator,\r... */\n      swap11\n      swap10\n      pop\n      pop\n      pop\n      pop\n      pop\n      pop\n      pop\n      pop\n      pop\n      pop\n      jump\t// out\n        /* \"QvToken/QvToken.sol\":398:502  function mint(address to , uint amount) onlyOwner(_msgSender()) internal {\r... */\n    tag_109:\n        /* \"QvToken/QvToken.sol\":448:460  _msgSender() */\n      tag_213\n        /* \"QvToken/QvToken.sol\":448:458  _msgSender */\n      tag_123\n        /* \"QvToken/QvToken.sol\":448:460  _msgSender() */\n      jump\t// in\n    tag_213:\n        /* \"QvToken/QvToken.sol\":366:375  msgSender */\n      dup1\n        /* \"QvToken/QvToken.sol\":357:375  owner == msgSender */\n      0xffffffffffffffffffffffffffffffffffffffff\n      and\n        /* \"QvToken/QvToken.sol\":357:362  owner */\n      0x04\n      0x00\n      swap1\n      sload\n      swap1\n      0x0100\n      exp\n      swap1\n      div\n      0xffffffffffffffffffffffffffffffffffffffff\n      and\n        /* \"QvToken/QvToken.sol\":357:375  owner == msgSender */\n      0xffffffffffffffffffffffffffffffffffffffff\n      and\n      eq\n        /* \"QvToken/QvToken.sol\":349:376  require(owner == msgSender) */\n      tag_215\n      jumpi\n      0x00\n      dup1\n      revert\n    tag_215:\n        /* \"QvToken/QvToken.sol\":478:494  _mint(to,amount) */\n      tag_217\n        /* \"QvToken/QvToken.sol\":484:486  to */\n      dup4\n        /* \"QvToken/QvToken.sol\":487:493  amount */\n      dup4\n        /* \"QvToken/QvToken.sol\":478:483  _mint */\n      tag_218\n        /* \"QvToken/QvToken.sol\":478:494  _mint(to,amount) */\n      jump\t// in\n    tag_217:\n        /* \"QvToken/QvToken.sol\":398:502  function mint(address to , uint amount) onlyOwner(_msgSender()) internal {\r... */\n      pop\n      pop\n      pop\n      jump\t// out\n        /* \"Library/VoterLibrary.sol\":1090:1525  function createVoter(voter storage self, uint _proposalId, address _voterAddress, bool _hasVoted, uint _voteNum) internal returns(bool){\r... */\n    tag_115:\n        /* \"Library/VoterLibrary.sol\":1220:1224  bool */\n      0x00\n        /* \"Library/VoterLibrary.sol\":1278:1289  _proposalId */\n      dup5\n        /* \"Library/VoterLibrary.sol\":1260:1264  self */\n      dup7\n        /* \"Library/VoterLibrary.sol\":1260:1275  self.proposalId */\n      0x00\n      add\n        /* \"Library/VoterLibrary.sol\":1260:1289  self.proposalId = _proposalId */\n      dup2\n      swap1\n      sstore\n      pop\n        /* \"Library/VoterLibrary.sol\":1344:1357  _voterAddress */\n      dup4\n        /* \"Library/VoterLibrary.sol\":1324:1328  self */\n      dup7\n        /* \"Library/VoterLibrary.sol\":1324:1341  self.voterAddress */\n      0x01\n      add\n      0x00\n        /* \"Library/VoterLibrary.sol\":1324:1357  self.voterAddress = _voterAddress */\n      0x0100\n      exp\n      dup2\n      sload\n      dup2\n      0xffffffffffffffffffffffffffffffffffffffff\n      mul\n      not\n      and\n      swap1\n      dup4\n      0xffffffffffffffffffffffffffffffffffffffff\n      and\n      mul\n      or\n      swap1\n      sstore\n      pop\n        /* \"Library/VoterLibrary.sol\":1408:1417  _hasVoted */\n      dup3\n        /* \"Library/VoterLibrary.sol\":1392:1396  self */\n      dup7\n        /* \"Library/VoterLibrary.sol\":1392:1405  self.hasVoted */\n      0x01\n      add\n      0x14\n        /* \"Library/VoterLibrary.sol\":1392:1417  self.hasVoted = _hasVoted */\n      0x0100\n      exp\n      dup2\n      sload\n      dup2\n      0xff\n      mul\n      not\n      and\n      swap1\n      dup4\n      iszero\n      iszero\n      mul\n      or\n      swap1\n      sstore\n      pop\n        /* \"Library/VoterLibrary.sol\":1467:1475  _voteNum */\n      dup2\n        /* \"Library/VoterLibrary.sol\":1452:1456  self */\n      dup7\n        /* \"Library/VoterLibrary.sol\":1452:1464  self.voteNum */\n      0x02\n      add\n        /* \"Library/VoterLibrary.sol\":1452:1475  self.voteNum = _voteNum */\n      dup2\n      swap1\n      sstore\n      pop\n        /* \"Library/VoterLibrary.sol\":1517:1521  true */\n      0x01\n        /* \"Library/VoterLibrary.sol\":1510:1521  return true */\n      swap1\n      pop\n        /* \"Library/VoterLibrary.sol\":1090:1525  function createVoter(voter storage self, uint _proposalId, address _voterAddress, bool _hasVoted, uint _voteNum) internal returns(bool){\r... */\n      swap6\n      swap5\n      pop\n      pop\n      pop\n      pop\n      pop\n      jump\t// out\n        /* \"QvToken/Context.sol\":656:754  function _msgSender() internal view virtual returns (address) {\r... */\n    tag_123:\n        /* \"QvToken/Context.sol\":709:716  address */\n      0x00\n        /* \"QvToken/Context.sol\":736:746  msg.sender */\n      caller\n        /* \"QvToken/Context.sol\":729:746  return msg.sender */\n      swap1\n      pop\n        /* \"QvToken/Context.sol\":656:754  function _msgSender() internal view virtual returns (address) {\r... */\n      swap1\n      jump\t// out\n        /* \"Library/UserProposalLibrary.sol\":573:794  function updateProposalList(UserProposal storage self, uint _proposalId) internal returns(bool){\r... */\n    tag_124:\n        /* \"Library/UserProposalLibrary.sol\":663:667  bool */\n      0x00\n        /* \"Library/UserProposalLibrary.sol\":679:683  self */\n      dup3\n        /* \"Library/UserProposalLibrary.sol\":679:697  self.proposalCount */\n      0x00\n      add\n      0x00\n        /* \"Library/UserProposalLibrary.sol\":679:699  self.proposalCount++ */\n      dup2\n      dup2\n      swap1\n      sload\n      swap1\n      0x0100\n      exp\n      swap1\n      div\n      0xffffffffffffffffffffffffffffffff\n      and\n      dup1\n      swap3\n      swap2\n      swap1\n      tag_222\n      swap1\n      tag_223\n      jump\t// in\n    tag_222:\n      swap2\n      swap1\n      0x0100\n      exp\n      dup2\n      sload\n      dup2\n      0xffffffffffffffffffffffffffffffff\n      mul\n      not\n      and\n      swap1\n      dup4\n      0xffffffffffffffffffffffffffffffff\n      and\n      mul\n      or\n      swap1\n      sstore\n      pop\n      pop\n        /* \"Library/UserProposalLibrary.sol\":753:764  _proposalId */\n      dup2\n        /* \"Library/UserProposalLibrary.sol\":710:714  self */\n      dup4\n        /* \"Library/UserProposalLibrary.sol\":710:730  self.proposalCreated */\n      0x01\n      add\n        /* \"Library/UserProposalLibrary.sol\":710:750  self.proposalCreated[self.proposalCount] */\n      0x00\n        /* \"Library/UserProposalLibrary.sol\":731:735  self */\n      dup6\n        /* \"Library/UserProposalLibrary.sol\":731:749  self.proposalCount */\n      0x00\n      add\n      0x00\n      swap1\n      sload\n      swap1\n      0x0100\n      exp\n      swap1\n      div\n      0xffffffffffffffffffffffffffffffff\n      and\n        /* \"Library/UserProposalLibrary.sol\":710:750  self.proposalCreated[self.proposalCount] */\n      0xffffffffffffffffffffffffffffffff\n      and\n      0xffffffffffffffffffffffffffffffff\n      and\n      dup2\n      mstore\n      0x20\n      add\n      swap1\n      dup2\n      mstore\n      0x20\n      add\n      0x00\n      keccak256\n        /* \"Library/UserProposalLibrary.sol\":710:764  self.proposalCreated[self.proposalCount] = _proposalId */\n      dup2\n      swap1\n      sstore\n      pop\n        /* \"Library/UserProposalLibrary.sol\":782:786  true */\n      0x01\n        /* \"Library/UserProposalLibrary.sol\":775:786  return true */\n      swap1\n      pop\n        /* \"Library/UserProposalLibrary.sol\":573:794  function updateProposalList(UserProposal storage self, uint _proposalId) internal returns(bool){\r... */\n      swap3\n      swap2\n      pop\n      pop\n      jump\t// out\n        /* \"Library/ProposalLibrary.sol\":2038:3484  function responseProposal(proposal storage self, address _voter, string[] memory _hash, uint[] memory v) internal returns(bool){\r... */\n    tag_154:\n        /* \"Library/ProposalLibrary.sol\":2160:2164  bool */\n      0x00\n        /* \"Library/ProposalLibrary.sol\":2199:2200  2 */\n      0x02\n        /* \"Library/ProposalLibrary.sol\":2184:2188  self */\n      dup6\n        /* \"Library/ProposalLibrary.sol\":2184:2195  self.status */\n      0x00\n      add\n      0x14\n      swap1\n      sload\n      swap1\n      0x0100\n      exp\n      swap1\n      div\n      0xff\n      and\n        /* \"Library/ProposalLibrary.sol\":2184:2200  self.status == 2 */\n      0xff\n      and\n      eq\n        /* \"Library/ProposalLibrary.sol\":2176:2223  require(self.status == 2, \"Proposal: inactive\") */\n      tag_225\n      jumpi\n      mload(0x40)\n      0x08c379a000000000000000000000000000000000000000000000000000000000\n      dup2\n      mstore\n      0x04\n      add\n      tag_226\n      swap1\n      tag_227\n      jump\t// in\n    tag_226:\n      mload(0x40)\n      dup1\n      swap2\n      sub\n      swap1\n      revert\n    tag_225:\n        /* \"Library/ProposalLibrary.sol\":2261:2265  self */\n      dup5\n        /* \"Library/ProposalLibrary.sol\":2261:2275  self.startTime */\n      0x02\n      add\n      sload\n        /* \"Library/ProposalLibrary.sol\":2242:2257  block.timestamp */\n      timestamp\n        /* \"Library/ProposalLibrary.sol\":2242:2275  block.timestamp >= self.startTime */\n      lt\n      iszero\n        /* \"Library/ProposalLibrary.sol\":2234:2304  require(block.timestamp >= self.startTime, \"proposal not started yet\") */\n      tag_228\n      jumpi\n      mload(0x40)\n      0x08c379a000000000000000000000000000000000000000000000000000000000\n      dup2\n      mstore\n      0x04\n      add\n      tag_229\n      swap1\n      tag_230\n      jump\t// in\n    tag_229:\n      mload(0x40)\n      dup1\n      swap2\n      sub\n      swap1\n      revert\n    tag_228:\n        /* \"Library/ProposalLibrary.sol\":2333:2337  self */\n      dup5\n        /* \"Library/ProposalLibrary.sol\":2333:2352  self.expirationTime */\n      0x03\n      add\n      sload\n        /* \"Library/ProposalLibrary.sol\":2315:2330  block.timestamp */\n      timestamp\n        /* \"Library/ProposalLibrary.sol\":2315:2352  block.timestamp > self.expirationTime */\n      gt\n        /* \"Library/ProposalLibrary.sol\":2312:3181  if(block.timestamp > self.expirationTime){\r... */\n      iszero\n      tag_231\n      jumpi\n        /* \"Library/ProposalLibrary.sol\":2422:2423  2 */\n      0x02\n        /* \"Library/ProposalLibrary.sol\":2408:2412  self */\n      dup6\n        /* \"Library/ProposalLibrary.sol\":2408:2419  self.status */\n      0x00\n      add\n      0x14\n        /* \"Library/ProposalLibrary.sol\":2408:2423  self.status = 2 */\n      0x0100\n      exp\n      dup2\n      sload\n      dup2\n      0xff\n      mul\n      not\n      and\n      swap1\n      dup4\n      0xff\n      and\n      mul\n      or\n      swap1\n      sstore\n      pop\n        /* \"Library/ProposalLibrary.sol\":2438:2455  uint largestCount */\n      0x00\n        /* \"Library/ProposalLibrary.sol\":2458:2462  self */\n      dup6\n        /* \"Library/ProposalLibrary.sol\":2458:2468  self.votes */\n      0x0a\n      add\n        /* \"Library/ProposalLibrary.sol\":2469:2473  self */\n      dup7\n        /* \"Library/ProposalLibrary.sol\":2469:2484  self.optionHash */\n      0x08\n      add\n        /* \"Library/ProposalLibrary.sol\":2469:2487  self.optionHash[1] */\n      0x00\n        /* \"Library/ProposalLibrary.sol\":2485:2486  1 */\n      0x01\n        /* \"Library/ProposalLibrary.sol\":2469:2487  self.optionHash[1] */\n      dup2\n      mstore\n      0x20\n      add\n      swap1\n      dup2\n      mstore\n      0x20\n      add\n      0x00\n      keccak256\n        /* \"Library/ProposalLibrary.sol\":2458:2488  self.votes[self.optionHash[1]] */\n      mload(0x40)\n      tag_232\n      swap2\n      swap1\n      tag_182\n      jump\t// in\n    tag_232:\n      swap1\n      dup2\n      mstore\n      0x20\n      add\n      mload(0x40)\n      dup1\n      swap2\n      sub\n      swap1\n      keccak256\n      sload\n        /* \"Library/ProposalLibrary.sol\":2438:2488  uint largestCount = self.votes[self.optionHash[1]] */\n      swap1\n      pop\n        /* \"Library/ProposalLibrary.sol\":2503:2519  uint winnerCount */\n      0x00\n        /* \"Library/ProposalLibrary.sol\":2522:2523  1 */\n      0x01\n        /* \"Library/ProposalLibrary.sol\":2503:2523  uint winnerCount = 1 */\n      swap1\n      pop\n        /* \"Library/ProposalLibrary.sol\":2555:2559  self */\n      dup7\n        /* \"Library/ProposalLibrary.sol\":2555:2570  self.optionHash */\n      0x08\n      add\n        /* \"Library/ProposalLibrary.sol\":2555:2573  self.optionHash[1] */\n      0x00\n        /* \"Library/ProposalLibrary.sol\":2571:2572  1 */\n      0x01\n        /* \"Library/ProposalLibrary.sol\":2555:2573  self.optionHash[1] */\n      dup2\n      mstore\n      0x20\n      add\n      swap1\n      dup2\n      mstore\n      0x20\n      add\n      0x00\n      keccak256\n        /* \"Library/ProposalLibrary.sol\":2538:2542  self */\n      dup8\n        /* \"Library/ProposalLibrary.sol\":2538:2549  self.result */\n      0x09\n      add\n        /* \"Library/ProposalLibrary.sol\":2538:2552  self.result[1] */\n      0x00\n        /* \"Library/ProposalLibrary.sol\":2550:2551  1 */\n      0x01\n        /* \"Library/ProposalLibrary.sol\":2538:2552  self.result[1] */\n      dup2\n      mstore\n      0x20\n      add\n      swap1\n      dup2\n      mstore\n      0x20\n      add\n      0x00\n      keccak256\n        /* \"Library/ProposalLibrary.sol\":2538:2573  self.result[1] = self.optionHash[1] */\n      swap1\n      dup1\n      sload\n      tag_233\n      swap1\n      tag_73\n      jump\t// in\n    tag_233:\n      tag_234\n      swap3\n      swap2\n      swap1\n      tag_235\n      jump\t// in\n    tag_234:\n      pop\n        /* \"Library/ProposalLibrary.sol\":2655:2663  uint16 i */\n      0x00\n        /* \"Library/ProposalLibrary.sol\":2666:2667  2 */\n      0x02\n        /* \"Library/ProposalLibrary.sol\":2655:2667  uint16 i = 2 */\n      swap1\n      pop\n        /* \"Library/ProposalLibrary.sol\":2651:3143  for(uint16 i = 2; i <= self.numOfOptions; i++){\r... */\n    tag_236:\n        /* \"Library/ProposalLibrary.sol\":2674:2678  self */\n      dup8\n        /* \"Library/ProposalLibrary.sol\":2674:2691  self.numOfOptions */\n      0x04\n      add\n      0x00\n      swap1\n      sload\n      swap1\n      0x0100\n      exp\n      swap1\n      div\n      0xffff\n      and\n        /* \"Library/ProposalLibrary.sol\":2669:2691  i <= self.numOfOptions */\n      0xffff\n      and\n        /* \"Library/ProposalLibrary.sol\":2669:2670  i */\n      dup2\n        /* \"Library/ProposalLibrary.sol\":2669:2691  i <= self.numOfOptions */\n      0xffff\n      and\n      gt\n        /* \"Library/ProposalLibrary.sol\":2651:3143  for(uint16 i = 2; i <= self.numOfOptions; i++){\r... */\n      tag_237\n      jumpi\n        /* \"Library/ProposalLibrary.sol\":2752:2764  largestCount */\n      dup3\n        /* \"Library/ProposalLibrary.sol\":2719:2723  self */\n      dup9\n        /* \"Library/ProposalLibrary.sol\":2719:2729  self.votes */\n      0x0a\n      add\n        /* \"Library/ProposalLibrary.sol\":2730:2734  self */\n      dup10\n        /* \"Library/ProposalLibrary.sol\":2730:2745  self.optionHash */\n      0x08\n      add\n        /* \"Library/ProposalLibrary.sol\":2730:2748  self.optionHash[i] */\n      0x00\n        /* \"Library/ProposalLibrary.sol\":2746:2747  i */\n      dup5\n        /* \"Library/ProposalLibrary.sol\":2730:2748  self.optionHash[i] */\n      0xffff\n      and\n      dup2\n      mstore\n      0x20\n      add\n      swap1\n      dup2\n      mstore\n      0x20\n      add\n      0x00\n      keccak256\n        /* \"Library/ProposalLibrary.sol\":2719:2749  self.votes[self.optionHash[i]] */\n      mload(0x40)\n      tag_239\n      swap2\n      swap1\n      tag_182\n      jump\t// in\n    tag_239:\n      swap1\n      dup2\n      mstore\n      0x20\n      add\n      mload(0x40)\n      dup1\n      swap2\n      sub\n      swap1\n      keccak256\n      sload\n        /* \"Library/ProposalLibrary.sol\":2719:2764  self.votes[self.optionHash[i]] > largestCount */\n      gt\n        /* \"Library/ProposalLibrary.sol\":2716:3128  if(self.votes[self.optionHash[i]] > largestCount){\r... */\n      iszero\n      tag_240\n      jumpi\n        /* \"Library/ProposalLibrary.sol\":2803:2807  self */\n      dup8\n        /* \"Library/ProposalLibrary.sol\":2803:2813  self.votes */\n      0x0a\n      add\n        /* \"Library/ProposalLibrary.sol\":2814:2818  self */\n      dup9\n        /* \"Library/ProposalLibrary.sol\":2814:2829  self.optionHash */\n      0x08\n      add\n        /* \"Library/ProposalLibrary.sol\":2814:2832  self.optionHash[i] */\n      0x00\n        /* \"Library/ProposalLibrary.sol\":2830:2831  i */\n      dup4\n        /* \"Library/ProposalLibrary.sol\":2814:2832  self.optionHash[i] */\n      0xffff\n      and\n      dup2\n      mstore\n      0x20\n      add\n      swap1\n      dup2\n      mstore\n      0x20\n      add\n      0x00\n      keccak256\n        /* \"Library/ProposalLibrary.sol\":2803:2833  self.votes[self.optionHash[i]] */\n      mload(0x40)\n      tag_241\n      swap2\n      swap1\n      tag_182\n      jump\t// in\n    tag_241:\n      swap1\n      dup2\n      mstore\n      0x20\n      add\n      mload(0x40)\n      dup1\n      swap2\n      sub\n      swap1\n      keccak256\n      sload\n        /* \"Library/ProposalLibrary.sol\":2788:2833  largestCount = self.votes[self.optionHash[i]] */\n      swap3\n      pop\n        /* \"Library/ProposalLibrary.sol\":2870:2871  1 */\n      0x01\n        /* \"Library/ProposalLibrary.sol\":2856:2871  winnerCount = 1 */\n      swap2\n      pop\n        /* \"Library/ProposalLibrary.sol\":2911:2915  self */\n      dup8\n        /* \"Library/ProposalLibrary.sol\":2911:2926  self.optionHash */\n      0x08\n      add\n        /* \"Library/ProposalLibrary.sol\":2911:2929  self.optionHash[i] */\n      0x00\n        /* \"Library/ProposalLibrary.sol\":2927:2928  i */\n      dup3\n        /* \"Library/ProposalLibrary.sol\":2911:2929  self.optionHash[i] */\n      0xffff\n      and\n      dup2\n      mstore\n      0x20\n      add\n      swap1\n      dup2\n      mstore\n      0x20\n      add\n      0x00\n      keccak256\n        /* \"Library/ProposalLibrary.sol\":2894:2898  self */\n      dup9\n        /* \"Library/ProposalLibrary.sol\":2894:2905  self.result */\n      0x09\n      add\n        /* \"Library/ProposalLibrary.sol\":2894:2908  self.result[1] */\n      0x00\n        /* \"Library/ProposalLibrary.sol\":2906:2907  1 */\n      0x01\n        /* \"Library/ProposalLibrary.sol\":2894:2908  self.result[1] */\n      dup2\n      mstore\n      0x20\n      add\n      swap1\n      dup2\n      mstore\n      0x20\n      add\n      0x00\n      keccak256\n        /* \"Library/ProposalLibrary.sol\":2894:2929  self.result[1] = self.optionHash[i] */\n      swap1\n      dup1\n      sload\n      tag_242\n      swap1\n      tag_73\n      jump\t// in\n    tag_242:\n      tag_243\n      swap3\n      swap2\n      swap1\n      tag_235\n      jump\t// in\n    tag_243:\n      pop\n        /* \"Library/ProposalLibrary.sol\":2716:3128  if(self.votes[self.optionHash[i]] > largestCount){\r... */\n      jump(tag_244)\n    tag_240:\n        /* \"Library/ProposalLibrary.sol\":2991:3003  largestCount */\n      dup3\n        /* \"Library/ProposalLibrary.sol\":2957:2961  self */\n      dup9\n        /* \"Library/ProposalLibrary.sol\":2957:2967  self.votes */\n      0x0a\n      add\n        /* \"Library/ProposalLibrary.sol\":2968:2972  self */\n      dup10\n        /* \"Library/ProposalLibrary.sol\":2968:2983  self.optionHash */\n      0x08\n      add\n        /* \"Library/ProposalLibrary.sol\":2968:2986  self.optionHash[i] */\n      0x00\n        /* \"Library/ProposalLibrary.sol\":2984:2985  i */\n      dup5\n        /* \"Library/ProposalLibrary.sol\":2968:2986  self.optionHash[i] */\n      0xffff\n      and\n      dup2\n      mstore\n      0x20\n      add\n      swap1\n      dup2\n      mstore\n      0x20\n      add\n      0x00\n      keccak256\n        /* \"Library/ProposalLibrary.sol\":2957:2987  self.votes[self.optionHash[i]] */\n      mload(0x40)\n      tag_245\n      swap2\n      swap1\n      tag_182\n      jump\t// in\n    tag_245:\n      swap1\n      dup2\n      mstore\n      0x20\n      add\n      mload(0x40)\n      dup1\n      swap2\n      sub\n      swap1\n      keccak256\n      sload\n        /* \"Library/ProposalLibrary.sol\":2957:3003  self.votes[self.optionHash[i]] == largestCount */\n      eq\n        /* \"Library/ProposalLibrary.sol\":2954:3128  if(self.votes[self.optionHash[i]] == largestCount){\r... */\n      iszero\n      tag_246\n      jumpi\n        /* \"Library/ProposalLibrary.sol\":3027:3040  winnerCount++ */\n      dup2\n      dup1\n      tag_247\n      swap1\n      tag_97\n      jump\t// in\n    tag_247:\n      swap3\n      pop\n      pop\n        /* \"Library/ProposalLibrary.sol\":3090:3094  self */\n      dup8\n        /* \"Library/ProposalLibrary.sol\":3090:3105  self.optionHash */\n      0x08\n      add\n        /* \"Library/ProposalLibrary.sol\":3090:3108  self.optionHash[i] */\n      0x00\n        /* \"Library/ProposalLibrary.sol\":3106:3107  i */\n      dup3\n        /* \"Library/ProposalLibrary.sol\":3090:3108  self.optionHash[i] */\n      0xffff\n      and\n      dup2\n      mstore\n      0x20\n      add\n      swap1\n      dup2\n      mstore\n      0x20\n      add\n      0x00\n      keccak256\n        /* \"Library/ProposalLibrary.sol\":3063:3067  self */\n      dup9\n        /* \"Library/ProposalLibrary.sol\":3063:3074  self.result */\n      0x09\n      add\n        /* \"Library/ProposalLibrary.sol\":3063:3087  self.result[winnerCount] */\n      0x00\n        /* \"Library/ProposalLibrary.sol\":3075:3086  winnerCount */\n      dup5\n        /* \"Library/ProposalLibrary.sol\":3063:3087  self.result[winnerCount] */\n      dup2\n      mstore\n      0x20\n      add\n      swap1\n      dup2\n      mstore\n      0x20\n      add\n      0x00\n      keccak256\n        /* \"Library/ProposalLibrary.sol\":3063:3108  self.result[winnerCount] = self.optionHash[i] */\n      swap1\n      dup1\n      sload\n      tag_248\n      swap1\n      tag_73\n      jump\t// in\n    tag_248:\n      tag_249\n      swap3\n      swap2\n      swap1\n      tag_235\n      jump\t// in\n    tag_249:\n      pop\n        /* \"Library/ProposalLibrary.sol\":2954:3128  if(self.votes[self.optionHash[i]] == largestCount){\r... */\n    tag_246:\n        /* \"Library/ProposalLibrary.sol\":2716:3128  if(self.votes[self.optionHash[i]] > largestCount){\r... */\n    tag_244:\n        /* \"Library/ProposalLibrary.sol\":2693:2696  i++ */\n      dup1\n      dup1\n      tag_250\n      swap1\n      tag_251\n      jump\t// in\n    tag_250:\n      swap2\n      pop\n      pop\n        /* \"Library/ProposalLibrary.sol\":2651:3143  for(uint16 i = 2; i <= self.numOfOptions; i++){\r... */\n      jump(tag_236)\n    tag_237:\n      pop\n        /* \"Library/ProposalLibrary.sol\":3164:3169  false */\n      0x00\n        /* \"Library/ProposalLibrary.sol\":3157:3169  return false */\n      swap3\n      pop\n      pop\n      pop\n      jump(tag_224)\n        /* \"Library/ProposalLibrary.sol\":2312:3181  if(block.timestamp > self.expirationTime){\r... */\n    tag_231:\n        /* \"Library/ProposalLibrary.sol\":3224:3228  self */\n      dup5\n        /* \"Library/ProposalLibrary.sol\":3224:3235  self.voters */\n      0x06\n      add\n        /* \"Library/ProposalLibrary.sol\":3224:3243  self.voters[_voter] */\n      0x00\n        /* \"Library/ProposalLibrary.sol\":3236:3242  _voter */\n      dup6\n        /* \"Library/ProposalLibrary.sol\":3224:3243  self.voters[_voter] */\n      0xffffffffffffffffffffffffffffffffffffffff\n      and\n      0xffffffffffffffffffffffffffffffffffffffff\n      and\n      dup2\n      mstore\n      0x20\n      add\n      swap1\n      dup2\n      mstore\n      0x20\n      add\n      0x00\n      keccak256\n      0x00\n      swap1\n      sload\n      swap1\n      0x0100\n      exp\n      swap1\n      div\n      0xff\n      and\n        /* \"Library/ProposalLibrary.sol\":3216:3283  require(self.voters[_voter], \"Not a valid voter for this proposal\") */\n      tag_252\n      jumpi\n      mload(0x40)\n      0x08c379a000000000000000000000000000000000000000000000000000000000\n      dup2\n      mstore\n      0x04\n      add\n      tag_253\n      swap1\n      tag_254\n      jump\t// in\n    tag_253:\n      mload(0x40)\n      dup1\n      swap2\n      sub\n      swap1\n      revert\n    tag_252:\n        /* \"Library/ProposalLibrary.sol\":3298:3306  uint16 i */\n      0x00\n        /* \"Library/ProposalLibrary.sol\":3294:3455  for(uint16 i=0;i<self.numOfOptions;i++){\r... */\n    tag_255:\n        /* \"Library/ProposalLibrary.sol\":3311:3315  self */\n      dup6\n        /* \"Library/ProposalLibrary.sol\":3311:3328  self.numOfOptions */\n      0x04\n      add\n      0x00\n      swap1\n      sload\n      swap1\n      0x0100\n      exp\n      swap1\n      div\n      0xffff\n      and\n        /* \"Library/ProposalLibrary.sol\":3309:3328  i<self.numOfOptions */\n      0xffff\n      and\n        /* \"Library/ProposalLibrary.sol\":3309:3310  i */\n      dup2\n        /* \"Library/ProposalLibrary.sol\":3309:3328  i<self.numOfOptions */\n      0xffff\n      and\n      lt\n        /* \"Library/ProposalLibrary.sol\":3294:3455  for(uint16 i=0;i<self.numOfOptions;i++){\r... */\n      iszero\n      tag_256\n      jumpi\n        /* \"Library/ProposalLibrary.sol\":3352:3356  self */\n      dup6\n        /* \"Library/ProposalLibrary.sol\":3352:3363  self.option */\n      0x07\n      add\n        /* \"Library/ProposalLibrary.sol\":3364:3369  _hash */\n      dup5\n        /* \"Library/ProposalLibrary.sol\":3370:3371  i */\n      dup3\n        /* \"Library/ProposalLibrary.sol\":3364:3372  _hash[i] */\n      0xffff\n      and\n      dup2\n      mload\n      dup2\n      lt\n      tag_258\n      jumpi\n      tag_259\n      tag_108\n      jump\t// in\n    tag_259:\n    tag_258:\n      0x20\n      mul\n      0x20\n      add\n      add\n      mload\n        /* \"Library/ProposalLibrary.sol\":3352:3373  self.option[_hash[i]] */\n      mload(0x40)\n      tag_260\n      swap2\n      swap1\n      tag_261\n      jump\t// in\n    tag_260:\n      swap1\n      dup2\n      mstore\n      0x20\n      add\n      mload(0x40)\n      dup1\n      swap2\n      sub\n      swap1\n      keccak256\n      0x00\n      swap1\n      sload\n      swap1\n      0x0100\n      exp\n      swap1\n      div\n      0xff\n      and\n        /* \"Library/ProposalLibrary.sol\":3344:3407  require(self.option[_hash[i]], \"Proposal: invalid optionidate\") */\n      tag_262\n      jumpi\n      mload(0x40)\n      0x08c379a000000000000000000000000000000000000000000000000000000000\n      dup2\n      mstore\n      0x04\n      add\n      tag_263\n      swap1\n      tag_264\n      jump\t// in\n    tag_263:\n      mload(0x40)\n      dup1\n      swap2\n      sub\n      swap1\n      revert\n    tag_262:\n        /* \"Library/ProposalLibrary.sol\":3439:3440  v */\n      dup3\n        /* \"Library/ProposalLibrary.sol\":3441:3442  i */\n      dup2\n        /* \"Library/ProposalLibrary.sol\":3439:3443  v[i] */\n      0xffff\n      and\n      dup2\n      mload\n      dup2\n      lt\n      tag_265\n      jumpi\n      tag_266\n      tag_108\n      jump\t// in\n    tag_266:\n    tag_265:\n      0x20\n      mul\n      0x20\n      add\n      add\n      mload\n        /* \"Library/ProposalLibrary.sol\":3418:3422  self */\n      dup7\n        /* \"Library/ProposalLibrary.sol\":3418:3428  self.votes */\n      0x0a\n      add\n        /* \"Library/ProposalLibrary.sol\":3429:3434  _hash */\n      dup6\n        /* \"Library/ProposalLibrary.sol\":3435:3436  i */\n      dup4\n        /* \"Library/ProposalLibrary.sol\":3429:3437  _hash[i] */\n      0xffff\n      and\n      dup2\n      mload\n      dup2\n      lt\n      tag_267\n      jumpi\n      tag_268\n      tag_108\n      jump\t// in\n    tag_268:\n    tag_267:\n      0x20\n      mul\n      0x20\n      add\n      add\n      mload\n        /* \"Library/ProposalLibrary.sol\":3418:3438  self.votes[_hash[i]] */\n      mload(0x40)\n      tag_269\n      swap2\n      swap1\n      tag_261\n      jump\t// in\n    tag_269:\n      swap1\n      dup2\n      mstore\n      0x20\n      add\n      mload(0x40)\n      dup1\n      swap2\n      sub\n      swap1\n      keccak256\n        /* \"Library/ProposalLibrary.sol\":3418:3443  self.votes[_hash[i]]=v[i] */\n      dup2\n      swap1\n      sstore\n      pop\n        /* \"Library/ProposalLibrary.sol\":3329:3332  i++ */\n      dup1\n      dup1\n      tag_270\n      swap1\n      tag_251\n      jump\t// in\n    tag_270:\n      swap2\n      pop\n      pop\n        /* \"Library/ProposalLibrary.sol\":3294:3455  for(uint16 i=0;i<self.numOfOptions;i++){\r... */\n      jump(tag_255)\n    tag_256:\n      pop\n        /* \"Library/ProposalLibrary.sol\":3472:3476  true */\n      0x01\n        /* \"Library/ProposalLibrary.sol\":3465:3476  return true */\n      swap1\n      pop\n        /* \"Library/ProposalLibrary.sol\":2038:3484  function responseProposal(proposal storage self, address _voter, string[] memory _hash, uint[] memory v) internal returns(bool){\r... */\n    tag_224:\n      swap5\n      swap4\n      pop\n      pop\n      pop\n      pop\n      jump\t// out\n        /* \"Library/UserProposalLibrary.sol\":802:1377  function updateResponseList(UserProposal storage self, uint _proposalId, string[] memory _hash) internal returns(bool){\r... */\n    tag_157:\n        /* \"Library/UserProposalLibrary.sol\":915:919  bool */\n      0x00\n        /* \"Library/UserProposalLibrary.sol\":931:935  self */\n      dup4\n        /* \"Library/UserProposalLibrary.sol\":931:949  self.responseCount */\n      0x00\n      add\n      0x10\n        /* \"Library/UserProposalLibrary.sol\":931:951  self.responseCount++ */\n      dup2\n      dup2\n      swap1\n      sload\n      swap1\n      0x0100\n      exp\n      swap1\n      div\n      0xffffffffffffffffffffffffffffffff\n      and\n      dup1\n      swap3\n      swap2\n      swap1\n      tag_272\n      swap1\n      tag_223\n      jump\t// in\n    tag_272:\n      swap2\n      swap1\n      0x0100\n      exp\n      dup2\n      sload\n      dup2\n      0xffffffffffffffffffffffffffffffff\n      mul\n      not\n      and\n      swap1\n      dup4\n      0xffffffffffffffffffffffffffffffff\n      and\n      mul\n      or\n      swap1\n      sstore\n      pop\n      pop\n        /* \"Library/UserProposalLibrary.sol\":1009:1020  _proposalId */\n      dup3\n        /* \"Library/UserProposalLibrary.sol\":964:968  self */\n      dup5\n        /* \"Library/UserProposalLibrary.sol\":964:986  self.proposalResponsed */\n      0x02\n      add\n        /* \"Library/UserProposalLibrary.sol\":964:1006  self.proposalResponsed[self.responseCount] */\n      0x00\n        /* \"Library/UserProposalLibrary.sol\":987:991  self */\n      dup7\n        /* \"Library/UserProposalLibrary.sol\":987:1005  self.responseCount */\n      0x00\n      add\n      0x10\n      swap1\n      sload\n      swap1\n      0x0100\n      exp\n      swap1\n      div\n      0xffffffffffffffffffffffffffffffff\n      and\n        /* \"Library/UserProposalLibrary.sol\":964:1006  self.proposalResponsed[self.responseCount] */\n      0xffffffffffffffffffffffffffffffff\n      and\n      0xffffffffffffffffffffffffffffffff\n      and\n      dup2\n      mstore\n      0x20\n      add\n      swap1\n      dup2\n      mstore\n      0x20\n      add\n      0x00\n      keccak256\n        /* \"Library/UserProposalLibrary.sol\":964:1020  self.proposalResponsed[self.responseCount] = _proposalId */\n      dup2\n      swap1\n      sstore\n      pop\n        /* \"Library/UserProposalLibrary.sol\":1190:1198  uint16 i */\n      0x00\n        /* \"Library/UserProposalLibrary.sol\":1186:1295  for(uint16 i=0;i<_hash.length;i++){\r... */\n    tag_273:\n        /* \"Library/UserProposalLibrary.sol\":1203:1208  _hash */\n      dup3\n        /* \"Library/UserProposalLibrary.sol\":1203:1215  _hash.length */\n      mload\n        /* \"Library/UserProposalLibrary.sol\":1201:1202  i */\n      dup2\n        /* \"Library/UserProposalLibrary.sol\":1201:1215  i<_hash.length */\n      0xffff\n      and\n      lt\n        /* \"Library/UserProposalLibrary.sol\":1186:1295  for(uint16 i=0;i<_hash.length;i++){\r... */\n      iszero\n      tag_274\n      jumpi\n        /* \"Library/UserProposalLibrary.sol\":1275:1280  _hash */\n      dup3\n        /* \"Library/UserProposalLibrary.sol\":1281:1282  i */\n      dup2\n        /* \"Library/UserProposalLibrary.sol\":1275:1283  _hash[i] */\n      0xffff\n      and\n      dup2\n      mload\n      dup2\n      lt\n      tag_276\n      jumpi\n      tag_277\n      tag_108\n      jump\t// in\n    tag_277:\n    tag_276:\n      0x20\n      mul\n      0x20\n      add\n      add\n      mload\n        /* \"Library/UserProposalLibrary.sol\":1235:1239  self */\n      dup6\n        /* \"Library/UserProposalLibrary.sol\":1235:1254  self.proposalAnswer */\n      0x03\n      add\n        /* \"Library/UserProposalLibrary.sol\":1235:1267  self.proposalAnswer[_proposalId] */\n      0x00\n        /* \"Library/UserProposalLibrary.sol\":1255:1266  _proposalId */\n      dup7\n        /* \"Library/UserProposalLibrary.sol\":1235:1267  self.proposalAnswer[_proposalId] */\n      dup2\n      mstore\n      0x20\n      add\n      swap1\n      dup2\n      mstore\n      0x20\n      add\n      0x00\n      keccak256\n        /* \"Library/UserProposalLibrary.sol\":1235:1272  self.proposalAnswer[_proposalId][i+1] */\n      0x00\n        /* \"Library/UserProposalLibrary.sol\":1270:1271  1 */\n      0x01\n        /* \"Library/UserProposalLibrary.sol\":1268:1269  i */\n      dup5\n        /* \"Library/UserProposalLibrary.sol\":1268:1271  i+1 */\n      tag_278\n      swap2\n      swap1\n      tag_279\n      jump\t// in\n    tag_278:\n        /* \"Library/UserProposalLibrary.sol\":1235:1272  self.proposalAnswer[_proposalId][i+1] */\n      0xffff\n      and\n      dup2\n      mstore\n      0x20\n      add\n      swap1\n      dup2\n      mstore\n      0x20\n      add\n      0x00\n      keccak256\n        /* \"Library/UserProposalLibrary.sol\":1235:1283  self.proposalAnswer[_proposalId][i+1] = _hash[i] */\n      swap1\n      dup1\n      mload\n      swap1\n      0x20\n      add\n      swap1\n      tag_280\n      swap3\n      swap2\n      swap1\n      tag_190\n      jump\t// in\n    tag_280:\n      pop\n        /* \"Library/UserProposalLibrary.sol\":1216:1219  i++ */\n      dup1\n      dup1\n      tag_281\n      swap1\n      tag_251\n      jump\t// in\n    tag_281:\n      swap2\n      pop\n      pop\n        /* \"Library/UserProposalLibrary.sol\":1186:1295  for(uint16 i=0;i<_hash.length;i++){\r... */\n      jump(tag_273)\n    tag_274:\n      pop\n        /* \"Library/UserProposalLibrary.sol\":1343:1347  true */\n      0x01\n        /* \"Library/UserProposalLibrary.sol\":1305:1309  self */\n      dup5\n        /* \"Library/UserProposalLibrary.sol\":1305:1327  self.responsedProposal */\n      0x04\n      add\n        /* \"Library/UserProposalLibrary.sol\":1305:1340  self.responsedProposal[_proposalId] */\n      0x00\n        /* \"Library/UserProposalLibrary.sol\":1328:1339  _proposalId */\n      dup6\n        /* \"Library/UserProposalLibrary.sol\":1305:1340  self.responsedProposal[_proposalId] */\n      dup2\n      mstore\n      0x20\n      add\n      swap1\n      dup2\n      mstore\n      0x20\n      add\n      0x00\n      keccak256\n      0x00\n        /* \"Library/UserProposalLibrary.sol\":1305:1347  self.responsedProposal[_proposalId] = true */\n      0x0100\n      exp\n      dup2\n      sload\n      dup2\n      0xff\n      mul\n      not\n      and\n      swap1\n      dup4\n      iszero\n      iszero\n      mul\n      or\n      swap1\n      sstore\n      pop\n        /* \"Library/UserProposalLibrary.sol\":1365:1369  true */\n      0x01\n        /* \"Library/UserProposalLibrary.sol\":1358:1369  return true */\n      swap1\n      pop\n        /* \"Library/UserProposalLibrary.sol\":802:1377  function updateResponseList(UserProposal storage self, uint _proposalId, string[] memory _hash) internal returns(bool){\r... */\n      swap4\n      swap3\n      pop\n      pop\n      pop\n      jump\t// out\n        /* \"Library/VoterLibrary.sol\":832:1063  function updateVoteNum(voter storage self) internal returns(bool){\r... */\n    tag_159:\n        /* \"Library/VoterLibrary.sol\":892:896  bool */\n      0x00\n        /* \"Library/VoterLibrary.sol\":931:932  0 */\n      dup1\n        /* \"Library/VoterLibrary.sol\":914:918  self */\n      dup3\n        /* \"Library/VoterLibrary.sol\":914:929  self.proposalId */\n      0x00\n      add\n      sload\n        /* \"Library/VoterLibrary.sol\":914:932  self.proposalId!=0 */\n      eq\n      iszero\n        /* \"Library/VoterLibrary.sol\":906:965  require(self.proposalId!=0,\"Invalid voter for proposalId!\") */\n      tag_283\n      jumpi\n      mload(0x40)\n      0x08c379a000000000000000000000000000000000000000000000000000000000\n      dup2\n      mstore\n      0x04\n      add\n      tag_284\n      swap1\n      tag_285\n      jump\t// in\n    tag_284:\n      mload(0x40)\n      dup1\n      swap2\n      sub\n      swap1\n      revert\n    tag_283:\n        /* \"Library/VoterLibrary.sol\":983:987  self */\n      dup2\n        /* \"Library/VoterLibrary.sol\":983:996  self.hasVoted */\n      0x01\n      add\n      0x14\n      swap1\n      sload\n      swap1\n      0x0100\n      exp\n      swap1\n      div\n      0xff\n      and\n        /* \"Library/VoterLibrary.sol\":982:996  !self.hasVoted */\n      iszero\n        /* \"Library/VoterLibrary.sol\":974:1010  require(!self.hasVoted, \"not voted\") */\n      tag_286\n      jumpi\n      mload(0x40)\n      0x08c379a000000000000000000000000000000000000000000000000000000000\n      dup2\n      mstore\n      0x04\n      add\n      tag_287\n      swap1\n      tag_288\n      jump\t// in\n    tag_287:\n      mload(0x40)\n      dup1\n      swap2\n      sub\n      swap1\n      revert\n    tag_286:\n        /* \"Library/VoterLibrary.sol\":1034:1035  0 */\n      0x00\n        /* \"Library/VoterLibrary.sol\":1019:1023  self */\n      dup3\n        /* \"Library/VoterLibrary.sol\":1019:1031  self.voteNum */\n      0x02\n      add\n        /* \"Library/VoterLibrary.sol\":1019:1035  self.voteNum = 0 */\n      dup2\n      swap1\n      sstore\n      pop\n        /* \"Library/VoterLibrary.sol\":1051:1055  true */\n      0x01\n        /* \"Library/VoterLibrary.sol\":1044:1055  return true */\n      swap1\n      pop\n        /* \"Library/VoterLibrary.sol\":832:1063  function updateVoteNum(voter storage self) internal returns(bool){\r... */\n      swap2\n      swap1\n      pop\n      jump\t// out\n        /* \"QvToken/QvToken.sol\":510:613  function burn(address to,uint amount) onlyOwner(_msgSender()) internal {\r... */\n    tag_167:\n        /* \"QvToken/QvToken.sol\":558:570  _msgSender() */\n      tag_289\n        /* \"QvToken/QvToken.sol\":558:568  _msgSender */\n      tag_123\n        /* \"QvToken/QvToken.sol\":558:570  _msgSender() */\n      jump\t// in\n    tag_289:\n        /* \"QvToken/QvToken.sol\":366:375  msgSender */\n      dup1\n        /* \"QvToken/QvToken.sol\":357:375  owner == msgSender */\n      0xffffffffffffffffffffffffffffffffffffffff\n      and\n        /* \"QvToken/QvToken.sol\":357:362  owner */\n      0x04\n      0x00\n      swap1\n      sload\n      swap1\n      0x0100\n      exp\n      swap1\n      div\n      0xffffffffffffffffffffffffffffffffffffffff\n      and\n        /* \"QvToken/QvToken.sol\":357:375  owner == msgSender */\n      0xffffffffffffffffffffffffffffffffffffffff\n      and\n      eq\n        /* \"QvToken/QvToken.sol\":349:376  require(owner == msgSender) */\n      tag_291\n      jumpi\n      0x00\n      dup1\n      revert\n    tag_291:\n        /* \"QvToken/QvToken.sol\":588:605  _burn(to, amount) */\n      tag_293\n        /* \"QvToken/QvToken.sol\":594:596  to */\n      dup4\n        /* \"QvToken/QvToken.sol\":598:604  amount */\n      dup4\n        /* \"QvToken/QvToken.sol\":588:593  _burn */\n      tag_294\n        /* \"QvToken/QvToken.sol\":588:605  _burn(to, amount) */\n      jump\t// in\n    tag_293:\n        /* \"QvToken/QvToken.sol\":510:613  function burn(address to,uint amount) onlyOwner(_msgSender()) internal {\r... */\n      pop\n      pop\n      pop\n      jump\t// out\n        /* \"QvToken/ERC20.sol\":3630:4033  function _mint(address account, uint256 amount) internal virtual {\r... */\n    tag_218:\n        /* \"QvToken/ERC20.sol\":3733:3734  0 */\n      0x00\n        /* \"QvToken/ERC20.sol\":3714:3735  account != address(0) */\n      0xffffffffffffffffffffffffffffffffffffffff\n      and\n        /* \"QvToken/ERC20.sol\":3714:3721  account */\n      dup3\n        /* \"QvToken/ERC20.sol\":3714:3735  account != address(0) */\n      0xffffffffffffffffffffffffffffffffffffffff\n      and\n      eq\n      iszero\n        /* \"QvToken/ERC20.sol\":3706:3771  require(account != address(0), \"ERC20: mint to the zero address\") */\n      tag_296\n      jumpi\n      mload(0x40)\n      0x08c379a000000000000000000000000000000000000000000000000000000000\n      dup2\n      mstore\n      0x04\n      add\n      tag_297\n      swap1\n      tag_298\n      jump\t// in\n    tag_297:\n      mload(0x40)\n      dup1\n      swap2\n      sub\n      swap1\n      revert\n    tag_296:\n        /* \"QvToken/ERC20.sol\":3865:3871  amount */\n      dup1\n        /* \"QvToken/ERC20.sol\":3849:3861  _totalSupply */\n      0x01\n      0x00\n        /* \"QvToken/ERC20.sol\":3849:3871  _totalSupply += amount */\n      dup3\n      dup3\n      sload\n      tag_299\n      swap2\n      swap1\n      tag_148\n      jump\t// in\n    tag_299:\n      swap3\n      pop\n      pop\n      dup2\n      swap1\n      sstore\n      pop\n        /* \"QvToken/ERC20.sol\":3904:3910  amount */\n      dup1\n        /* \"QvToken/ERC20.sol\":3882:3891  _balances */\n      0x00\n        /* \"QvToken/ERC20.sol\":3882:3900  _balances[account] */\n      dup1\n        /* \"QvToken/ERC20.sol\":3892:3899  account */\n      dup5\n        /* \"QvToken/ERC20.sol\":3882:3900  _balances[account] */\n      0xffffffffffffffffffffffffffffffffffffffff\n      and\n      0xffffffffffffffffffffffffffffffffffffffff\n      and\n      dup2\n      mstore\n      0x20\n      add\n      swap1\n      dup2\n      mstore\n      0x20\n      add\n      0x00\n      keccak256\n      0x00\n        /* \"QvToken/ERC20.sol\":3882:3910  _balances[account] += amount */\n      dup3\n      dup3\n      sload\n      tag_300\n      swap2\n      swap1\n      tag_148\n      jump\t// in\n    tag_300:\n      swap3\n      pop\n      pop\n      dup2\n      swap1\n      sstore\n      pop\n        /* \"QvToken/ERC20.sol\":3926:3961  mintAndburn(\"mint\",account, amount) */\n      0xabf5327be9f5825c40d58bda541dd07f09b62df3376bbd5ecdbaa8bd82a9d492\n        /* \"QvToken/ERC20.sol\":3945:3952  account */\n      dup3\n        /* \"QvToken/ERC20.sol\":3954:3960  amount */\n      dup3\n        /* \"QvToken/ERC20.sol\":3926:3961  mintAndburn(\"mint\",account, amount) */\n      mload(0x40)\n      tag_301\n      swap3\n      swap2\n      swap1\n      tag_119\n      jump\t// in\n    tag_301:\n      mload(0x40)\n      dup1\n      swap2\n      sub\n      swap1\n      log1\n        /* \"QvToken/ERC20.sol\":3630:4033  function _mint(address account, uint256 amount) internal virtual {\r... */\n      pop\n      pop\n      jump\t// out\n        /* \"QvToken/ERC20.sol\":4045:4640  function _burn(address account, uint256 amount) internal virtual {\r... */\n    tag_294:\n        /* \"QvToken/ERC20.sol\":4148:4149  0 */\n      0x00\n        /* \"QvToken/ERC20.sol\":4129:4150  account != address(0) */\n      0xffffffffffffffffffffffffffffffffffffffff\n      and\n        /* \"QvToken/ERC20.sol\":4129:4136  account */\n      dup3\n        /* \"QvToken/ERC20.sol\":4129:4150  account != address(0) */\n      0xffffffffffffffffffffffffffffffffffffffff\n      and\n      eq\n      iszero\n        /* \"QvToken/ERC20.sol\":4121:4188  require(account != address(0), \"ERC20: burn from the zero address\") */\n      tag_303\n      jumpi\n      mload(0x40)\n      0x08c379a000000000000000000000000000000000000000000000000000000000\n      dup2\n      mstore\n      0x04\n      add\n      tag_304\n      swap1\n      tag_305\n      jump\t// in\n    tag_304:\n      mload(0x40)\n      dup1\n      swap2\n      sub\n      swap1\n      revert\n    tag_303:\n        /* \"QvToken/ERC20.sol\":4266:4288  uint256 accountBalance */\n      0x00\n        /* \"QvToken/ERC20.sol\":4291:4300  _balances */\n      dup1\n        /* \"QvToken/ERC20.sol\":4291:4309  _balances[account] */\n      0x00\n        /* \"QvToken/ERC20.sol\":4301:4308  account */\n      dup5\n        /* \"QvToken/ERC20.sol\":4291:4309  _balances[account] */\n      0xffffffffffffffffffffffffffffffffffffffff\n      and\n      0xffffffffffffffffffffffffffffffffffffffff\n      and\n      dup2\n      mstore\n      0x20\n      add\n      swap1\n      dup2\n      mstore\n      0x20\n      add\n      0x00\n      keccak256\n      sload\n        /* \"QvToken/ERC20.sol\":4266:4309  uint256 accountBalance = _balances[account] */\n      swap1\n      pop\n        /* \"QvToken/ERC20.sol\":4346:4352  amount */\n      dup2\n        /* \"QvToken/ERC20.sol\":4328:4342  accountBalance */\n      dup2\n        /* \"QvToken/ERC20.sol\":4328:4352  accountBalance >= amount */\n      lt\n      iszero\n        /* \"QvToken/ERC20.sol\":4320:4391  require(accountBalance >= amount, \"ERC20: burn amount exceeds balance\") */\n      tag_306\n      jumpi\n      mload(0x40)\n      0x08c379a000000000000000000000000000000000000000000000000000000000\n      dup2\n      mstore\n      0x04\n      add\n      tag_307\n      swap1\n      tag_308\n      jump\t// in\n    tag_307:\n      mload(0x40)\n      dup1\n      swap2\n      sub\n      swap1\n      revert\n    tag_306:\n        /* \"QvToken/ERC20.sol\":4465:4471  amount */\n      dup2\n        /* \"QvToken/ERC20.sol\":4448:4462  accountBalance */\n      dup2\n        /* \"QvToken/ERC20.sol\":4448:4471  accountBalance - amount */\n      sub\n        /* \"QvToken/ERC20.sol\":4427:4436  _balances */\n      0x00\n        /* \"QvToken/ERC20.sol\":4427:4445  _balances[account] */\n      dup1\n        /* \"QvToken/ERC20.sol\":4437:4444  account */\n      dup6\n        /* \"QvToken/ERC20.sol\":4427:4445  _balances[account] */\n      0xffffffffffffffffffffffffffffffffffffffff\n      and\n      0xffffffffffffffffffffffffffffffffffffffff\n      and\n      dup2\n      mstore\n      0x20\n      add\n      swap1\n      dup2\n      mstore\n      0x20\n      add\n      0x00\n      keccak256\n        /* \"QvToken/ERC20.sol\":4427:4471  _balances[account] = accountBalance - amount */\n      dup2\n      swap1\n      sstore\n      pop\n        /* \"QvToken/ERC20.sol\":4509:4515  amount */\n      dup2\n        /* \"QvToken/ERC20.sol\":4493:4505  _totalSupply */\n      0x01\n      0x00\n        /* \"QvToken/ERC20.sol\":4493:4515  _totalSupply -= amount */\n      dup3\n      dup3\n      sload\n      tag_309\n      swap2\n      swap1\n      tag_310\n      jump\t// in\n    tag_309:\n      swap3\n      pop\n      pop\n      dup2\n      swap1\n      sstore\n      pop\n        /* \"QvToken/ERC20.sol\":4533:4568  mintAndburn(\"burn\",account, amount) */\n      0xabf5327be9f5825c40d58bda541dd07f09b62df3376bbd5ecdbaa8bd82a9d492\n        /* \"QvToken/ERC20.sol\":4552:4559  account */\n      dup4\n        /* \"QvToken/ERC20.sol\":4561:4567  amount */\n      dup4\n        /* \"QvToken/ERC20.sol\":4533:4568  mintAndburn(\"burn\",account, amount) */\n      mload(0x40)\n      tag_311\n      swap3\n      swap2\n      swap1\n      tag_169\n      jump\t// in\n    tag_311:\n      mload(0x40)\n      dup1\n      swap2\n      sub\n      swap1\n      log1\n        /* \"QvToken/ERC20.sol\":4110:4640  {\r... */\n      pop\n        /* \"QvToken/ERC20.sol\":4045:4640  function _burn(address account, uint256 amount) internal virtual {\r... */\n      pop\n      pop\n      jump\t// out\n    tag_190:\n      dup3\n      dup1\n      sload\n      tag_312\n      swap1\n      tag_73\n      jump\t// in\n    tag_312:\n      swap1\n      0x00\n      mstore\n      keccak256(0x00, 0x20)\n      swap1\n      0x1f\n      add\n      0x20\n      swap1\n      div\n      dup2\n      add\n      swap3\n      dup3\n      tag_314\n      jumpi\n      0x00\n      dup6\n      sstore\n      jump(tag_313)\n    tag_314:\n      dup3\n      0x1f\n      lt\n      tag_315\n      jumpi\n      dup1\n      mload\n      not(0xff)\n      and\n      dup4\n      dup1\n      add\n      or\n      dup6\n      sstore\n      jump(tag_313)\n    tag_315:\n      dup3\n      dup1\n      add\n      0x01\n      add\n      dup6\n      sstore\n      dup3\n      iszero\n      tag_313\n      jumpi\n      swap2\n      dup3\n      add\n    tag_316:\n      dup3\n      dup2\n      gt\n      iszero\n      tag_317\n      jumpi\n      dup3\n      mload\n      dup3\n      sstore\n      swap2\n      0x20\n      add\n      swap2\n      swap1\n      0x01\n      add\n      swap1\n      jump(tag_316)\n    tag_317:\n    tag_313:\n      pop\n      swap1\n      pop\n      tag_318\n      swap2\n      swap1\n      tag_319\n      jump\t// in\n    tag_318:\n      pop\n      swap1\n      jump\t// out\n    tag_205:\n      dup3\n      dup1\n      sload\n      tag_320\n      swap1\n      tag_73\n      jump\t// in\n    tag_320:\n      swap1\n      0x00\n      mstore\n      keccak256(0x00, 0x20)\n      swap1\n      0x1f\n      add\n      0x20\n      swap1\n      div\n      dup2\n      add\n      swap3\n      dup3\n      tag_322\n      jumpi\n      0x00\n      dup6\n      sstore\n      jump(tag_321)\n    tag_322:\n      dup3\n      0x1f\n      lt\n      tag_323\n      jumpi\n      dup1\n      calldataload\n      not(0xff)\n      and\n      dup4\n      dup1\n      add\n      or\n      dup6\n      sstore\n      jump(tag_321)\n    tag_323:\n      dup3\n      dup1\n      add\n      0x01\n      add\n      dup6\n      sstore\n      dup3\n      iszero\n      tag_321\n      jumpi\n      swap2\n      dup3\n      add\n    tag_324:\n      dup3\n      dup2\n      gt\n      iszero\n      tag_325\n      jumpi\n      dup3\n      calldataload\n      dup3\n      sstore\n      swap2\n      0x20\n      add\n      swap2\n      swap1\n      0x01\n      add\n      swap1\n      jump(tag_324)\n    tag_325:\n    tag_321:\n      pop\n      swap1\n      pop\n      tag_326\n      swap2\n      swap1\n      tag_319\n      jump\t// in\n    tag_326:\n      pop\n      swap1\n      jump\t// out\n    tag_235:\n      dup3\n      dup1\n      sload\n      tag_327\n      swap1\n      tag_73\n      jump\t// in\n    tag_327:\n      swap1\n      0x00\n      mstore\n      keccak256(0x00, 0x20)\n      swap1\n      0x1f\n      add\n      0x20\n      swap1\n      div\n      dup2\n      add\n      swap3\n      dup3\n      tag_329\n      jumpi\n      0x00\n      dup6\n      sstore\n      jump(tag_328)\n    tag_329:\n      dup3\n      0x1f\n      lt\n      tag_330\n      jumpi\n      dup1\n      sload\n      dup6\n      sstore\n      jump(tag_328)\n    tag_330:\n      dup3\n      dup1\n      add\n      0x01\n      add\n      dup6\n      sstore\n      dup3\n      iszero\n      tag_328\n      jumpi\n      0x00\n      mstore\n      keccak256(0x00, 0x20)\n      swap2\n      0x1f\n      add\n      0x20\n      swap1\n      div\n      dup3\n      add\n    tag_331:\n      dup3\n      dup2\n      gt\n      iszero\n      tag_332\n      jumpi\n      dup3\n      sload\n      dup3\n      sstore\n      swap2\n      0x01\n      add\n      swap2\n      swap1\n      0x01\n      add\n      swap1\n      jump(tag_331)\n    tag_332:\n    tag_328:\n      pop\n      swap1\n      pop\n      tag_333\n      swap2\n      swap1\n      tag_319\n      jump\t// in\n    tag_333:\n      pop\n      swap1\n      jump\t// out\n    tag_319:\n    tag_334:\n      dup1\n      dup3\n      gt\n      iszero\n      tag_335\n      jumpi\n      0x00\n      dup2\n      0x00\n      swap1\n      sstore\n      pop\n      0x01\n      add\n      jump(tag_334)\n    tag_335:\n      pop\n      swap1\n      jump\t// out\n        /* \"#utility.yul\":24:746   */\n    tag_337:\n        /* \"#utility.yul\":120:125   */\n      0x00\n        /* \"#utility.yul\":145:226   */\n      tag_339\n        /* \"#utility.yul\":161:225   */\n      tag_340\n        /* \"#utility.yul\":218:224   */\n      dup5\n        /* \"#utility.yul\":161:225   */\n      tag_341\n      jump\t// in\n    tag_340:\n        /* \"#utility.yul\":145:226   */\n      tag_342\n      jump\t// in\n    tag_339:\n        /* \"#utility.yul\":136:226   */\n      swap1\n      pop\n        /* \"#utility.yul\":246:251   */\n      dup1\n        /* \"#utility.yul\":275:281   */\n      dup4\n        /* \"#utility.yul\":268:273   */\n      dup3\n        /* \"#utility.yul\":261:282   */\n      mstore\n        /* \"#utility.yul\":309:313   */\n      0x20\n        /* \"#utility.yul\":302:307   */\n      dup3\n        /* \"#utility.yul\":298:314   */\n      add\n        /* \"#utility.yul\":291:314   */\n      swap1\n      pop\n        /* \"#utility.yul\":335:341   */\n      dup3\n        /* \"#utility.yul\":385:388   */\n      dup6\n        /* \"#utility.yul\":377:381   */\n      0x20\n        /* \"#utility.yul\":369:375   */\n      dup7\n        /* \"#utility.yul\":365:382   */\n      mul\n        /* \"#utility.yul\":360:363   */\n      dup3\n        /* \"#utility.yul\":356:383   */\n      add\n        /* \"#utility.yul\":353:389   */\n      gt\n        /* \"#utility.yul\":350:493   */\n      iszero\n      tag_343\n      jumpi\n        /* \"#utility.yul\":404:483   */\n      tag_344\n      tag_345\n      jump\t// in\n    tag_344:\n        /* \"#utility.yul\":350:493   */\n    tag_343:\n        /* \"#utility.yul\":517:518   */\n      0x00\n        /* \"#utility.yul\":502:740   */\n    tag_346:\n        /* \"#utility.yul\":527:533   */\n      dup6\n        /* \"#utility.yul\":524:525   */\n      dup2\n        /* \"#utility.yul\":521:534   */\n      lt\n        /* \"#utility.yul\":502:740   */\n      iszero\n      tag_348\n      jumpi\n        /* \"#utility.yul\":595:598   */\n      dup2\n        /* \"#utility.yul\":624:661   */\n      tag_349\n        /* \"#utility.yul\":657:660   */\n      dup9\n        /* \"#utility.yul\":645:655   */\n      dup3\n        /* \"#utility.yul\":624:661   */\n      tag_350\n      jump\t// in\n    tag_349:\n        /* \"#utility.yul\":619:622   */\n      dup5\n        /* \"#utility.yul\":612:662   */\n      mstore\n        /* \"#utility.yul\":691:695   */\n      0x20\n        /* \"#utility.yul\":686:689   */\n      dup5\n        /* \"#utility.yul\":682:696   */\n      add\n        /* \"#utility.yul\":675:696   */\n      swap4\n      pop\n        /* \"#utility.yul\":725:729   */\n      0x20\n        /* \"#utility.yul\":720:723   */\n      dup4\n        /* \"#utility.yul\":716:730   */\n      add\n        /* \"#utility.yul\":709:730   */\n      swap3\n      pop\n        /* \"#utility.yul\":562:740   */\n      pop\n        /* \"#utility.yul\":549:550   */\n      0x01\n        /* \"#utility.yul\":546:547   */\n      dup2\n        /* \"#utility.yul\":542:551   */\n      add\n        /* \"#utility.yul\":537:551   */\n      swap1\n      pop\n        /* \"#utility.yul\":502:740   */\n      jump(tag_346)\n    tag_348:\n        /* \"#utility.yul\":506:520   */\n      pop\n        /* \"#utility.yul\":126:746   */\n      pop\n      pop\n        /* \"#utility.yul\":24:746   */\n      swap4\n      swap3\n      pop\n      pop\n      pop\n      jump\t// out\n        /* \"#utility.yul\":768:1725   */\n    tag_351:\n        /* \"#utility.yul\":874:879   */\n      0x00\n        /* \"#utility.yul\":899:990   */\n      tag_353\n        /* \"#utility.yul\":915:989   */\n      tag_354\n        /* \"#utility.yul\":982:988   */\n      dup5\n        /* \"#utility.yul\":915:989   */\n      tag_355\n      jump\t// in\n    tag_354:\n        /* \"#utility.yul\":899:990   */\n      tag_342\n      jump\t// in\n    tag_353:\n        /* \"#utility.yul\":890:990   */\n      swap1\n      pop\n        /* \"#utility.yul\":1010:1015   */\n      dup1\n        /* \"#utility.yul\":1039:1045   */\n      dup4\n        /* \"#utility.yul\":1032:1037   */\n      dup3\n        /* \"#utility.yul\":1025:1046   */\n      mstore\n        /* \"#utility.yul\":1073:1077   */\n      0x20\n        /* \"#utility.yul\":1066:1071   */\n      dup3\n        /* \"#utility.yul\":1062:1078   */\n      add\n        /* \"#utility.yul\":1055:1078   */\n      swap1\n      pop\n        /* \"#utility.yul\":1099:1105   */\n      dup3\n        /* \"#utility.yul\":1149:1152   */\n      dup6\n        /* \"#utility.yul\":1141:1145   */\n      0x20\n        /* \"#utility.yul\":1133:1139   */\n      dup7\n        /* \"#utility.yul\":1129:1146   */\n      mul\n        /* \"#utility.yul\":1124:1127   */\n      dup3\n        /* \"#utility.yul\":1120:1147   */\n      add\n        /* \"#utility.yul\":1117:1153   */\n      gt\n        /* \"#utility.yul\":1114:1257   */\n      iszero\n      tag_356\n      jumpi\n        /* \"#utility.yul\":1168:1247   */\n      tag_357\n      tag_345\n      jump\t// in\n    tag_357:\n        /* \"#utility.yul\":1114:1257   */\n    tag_356:\n        /* \"#utility.yul\":1281:1282   */\n      0x00\n        /* \"#utility.yul\":1266:1719   */\n    tag_358:\n        /* \"#utility.yul\":1291:1297   */\n      dup6\n        /* \"#utility.yul\":1288:1289   */\n      dup2\n        /* \"#utility.yul\":1285:1298   */\n      lt\n        /* \"#utility.yul\":1266:1719   */\n      iszero\n      tag_360\n      jumpi\n        /* \"#utility.yul\":1373:1376   */\n      dup2\n        /* \"#utility.yul\":1360:1377   */\n      calldataload\n        /* \"#utility.yul\":1409:1427   */\n      0xffffffffffffffff\n        /* \"#utility.yul\":1396:1407   */\n      dup2\n        /* \"#utility.yul\":1393:1428   */\n      gt\n        /* \"#utility.yul\":1390:1512   */\n      iszero\n      tag_361\n      jumpi\n        /* \"#utility.yul\":1431:1510   */\n      tag_362\n      tag_363\n      jump\t// in\n    tag_362:\n        /* \"#utility.yul\":1390:1512   */\n    tag_361:\n        /* \"#utility.yul\":1555:1566   */\n      dup1\n        /* \"#utility.yul\":1547:1553   */\n      dup7\n        /* \"#utility.yul\":1543:1567   */\n      add\n        /* \"#utility.yul\":1593:1640   */\n      tag_364\n        /* \"#utility.yul\":1636:1639   */\n      dup10\n        /* \"#utility.yul\":1624:1634   */\n      dup3\n        /* \"#utility.yul\":1593:1640   */\n      tag_365\n      jump\t// in\n    tag_364:\n        /* \"#utility.yul\":1588:1591   */\n      dup6\n        /* \"#utility.yul\":1581:1641   */\n      mstore\n        /* \"#utility.yul\":1670:1674   */\n      0x20\n        /* \"#utility.yul\":1665:1668   */\n      dup6\n        /* \"#utility.yul\":1661:1675   */\n      add\n        /* \"#utility.yul\":1654:1675   */\n      swap5\n      pop\n        /* \"#utility.yul\":1704:1708   */\n      0x20\n        /* \"#utility.yul\":1699:1702   */\n      dup5\n        /* \"#utility.yul\":1695:1709   */\n      add\n        /* \"#utility.yul\":1688:1709   */\n      swap4\n      pop\n        /* \"#utility.yul\":1326:1719   */\n      pop\n      pop\n        /* \"#utility.yul\":1313:1314   */\n      0x01\n        /* \"#utility.yul\":1310:1311   */\n      dup2\n        /* \"#utility.yul\":1306:1315   */\n      add\n        /* \"#utility.yul\":1301:1315   */\n      swap1\n      pop\n        /* \"#utility.yul\":1266:1719   */\n      jump(tag_358)\n    tag_360:\n        /* \"#utility.yul\":1270:1284   */\n      pop\n        /* \"#utility.yul\":880:1725   */\n      pop\n      pop\n        /* \"#utility.yul\":768:1725   */\n      swap4\n      swap3\n      pop\n      pop\n      pop\n      jump\t// out\n        /* \"#utility.yul\":1748:2470   */\n    tag_366:\n        /* \"#utility.yul\":1844:1849   */\n      0x00\n        /* \"#utility.yul\":1869:1950   */\n      tag_368\n        /* \"#utility.yul\":1885:1949   */\n      tag_369\n        /* \"#utility.yul\":1942:1948   */\n      dup5\n        /* \"#utility.yul\":1885:1949   */\n      tag_370\n      jump\t// in\n    tag_369:\n        /* \"#utility.yul\":1869:1950   */\n      tag_342\n      jump\t// in\n    tag_368:\n        /* \"#utility.yul\":1860:1950   */\n      swap1\n      pop\n        /* \"#utility.yul\":1970:1975   */\n      dup1\n        /* \"#utility.yul\":1999:2005   */\n      dup4\n        /* \"#utility.yul\":1992:1997   */\n      dup3\n        /* \"#utility.yul\":1985:2006   */\n      mstore\n        /* \"#utility.yul\":2033:2037   */\n      0x20\n        /* \"#utility.yul\":2026:2031   */\n      dup3\n        /* \"#utility.yul\":2022:2038   */\n      add\n        /* \"#utility.yul\":2015:2038   */\n      swap1\n      pop\n        /* \"#utility.yul\":2059:2065   */\n      dup3\n        /* \"#utility.yul\":2109:2112   */\n      dup6\n        /* \"#utility.yul\":2101:2105   */\n      0x20\n        /* \"#utility.yul\":2093:2099   */\n      dup7\n        /* \"#utility.yul\":2089:2106   */\n      mul\n        /* \"#utility.yul\":2084:2087   */\n      dup3\n        /* \"#utility.yul\":2080:2107   */\n      add\n        /* \"#utility.yul\":2077:2113   */\n      gt\n        /* \"#utility.yul\":2074:2217   */\n      iszero\n      tag_371\n      jumpi\n        /* \"#utility.yul\":2128:2207   */\n      tag_372\n      tag_345\n      jump\t// in\n    tag_372:\n        /* \"#utility.yul\":2074:2217   */\n    tag_371:\n        /* \"#utility.yul\":2241:2242   */\n      0x00\n        /* \"#utility.yul\":2226:2464   */\n    tag_373:\n        /* \"#utility.yul\":2251:2257   */\n      dup6\n        /* \"#utility.yul\":2248:2249   */\n      dup2\n        /* \"#utility.yul\":2245:2258   */\n      lt\n        /* \"#utility.yul\":2226:2464   */\n      iszero\n      tag_375\n      jumpi\n        /* \"#utility.yul\":2319:2322   */\n      dup2\n        /* \"#utility.yul\":2348:2385   */\n      tag_376\n        /* \"#utility.yul\":2381:2384   */\n      dup9\n        /* \"#utility.yul\":2369:2379   */\n      dup3\n        /* \"#utility.yul\":2348:2385   */\n      tag_377\n      jump\t// in\n    tag_376:\n        /* \"#utility.yul\":2343:2346   */\n      dup5\n        /* \"#utility.yul\":2336:2386   */\n      mstore\n        /* \"#utility.yul\":2415:2419   */\n      0x20\n        /* \"#utility.yul\":2410:2413   */\n      dup5\n        /* \"#utility.yul\":2406:2420   */\n      add\n        /* \"#utility.yul\":2399:2420   */\n      swap4\n      pop\n        /* \"#utility.yul\":2449:2453   */\n      0x20\n        /* \"#utility.yul\":2444:2447   */\n      dup4\n        /* \"#utility.yul\":2440:2454   */\n      add\n        /* \"#utility.yul\":2433:2454   */\n      swap3\n      pop\n        /* \"#utility.yul\":2286:2464   */\n      pop\n        /* \"#utility.yul\":2273:2274   */\n      0x01\n        /* \"#utility.yul\":2270:2271   */\n      dup2\n        /* \"#utility.yul\":2266:2275   */\n      add\n        /* \"#utility.yul\":2261:2275   */\n      swap1\n      pop\n        /* \"#utility.yul\":2226:2464   */\n      jump(tag_373)\n    tag_375:\n        /* \"#utility.yul\":2230:2244   */\n      pop\n        /* \"#utility.yul\":1850:2470   */\n      pop\n      pop\n        /* \"#utility.yul\":1748:2470   */\n      swap4\n      swap3\n      pop\n      pop\n      pop\n      jump\t// out\n        /* \"#utility.yul\":2476:2888   */\n    tag_378:\n        /* \"#utility.yul\":2554:2559   */\n      0x00\n        /* \"#utility.yul\":2579:2645   */\n      tag_380\n        /* \"#utility.yul\":2595:2644   */\n      tag_381\n        /* \"#utility.yul\":2637:2643   */\n      dup5\n        /* \"#utility.yul\":2595:2644   */\n      tag_382\n      jump\t// in\n    tag_381:\n        /* \"#utility.yul\":2579:2645   */\n      tag_342\n      jump\t// in\n    tag_380:\n        /* \"#utility.yul\":2570:2645   */\n      swap1\n      pop\n        /* \"#utility.yul\":2668:2674   */\n      dup3\n        /* \"#utility.yul\":2661:2666   */\n      dup2\n        /* \"#utility.yul\":2654:2675   */\n      mstore\n        /* \"#utility.yul\":2706:2710   */\n      0x20\n        /* \"#utility.yul\":2699:2704   */\n      dup2\n        /* \"#utility.yul\":2695:2711   */\n      add\n        /* \"#utility.yul\":2744:2747   */\n      dup5\n        /* \"#utility.yul\":2735:2741   */\n      dup5\n        /* \"#utility.yul\":2730:2733   */\n      dup5\n        /* \"#utility.yul\":2726:2742   */\n      add\n        /* \"#utility.yul\":2723:2748   */\n      gt\n        /* \"#utility.yul\":2720:2832   */\n      iszero\n      tag_383\n      jumpi\n        /* \"#utility.yul\":2751:2830   */\n      tag_384\n      tag_385\n      jump\t// in\n    tag_384:\n        /* \"#utility.yul\":2720:2832   */\n    tag_383:\n        /* \"#utility.yul\":2841:2882   */\n      tag_386\n        /* \"#utility.yul\":2875:2881   */\n      dup5\n        /* \"#utility.yul\":2870:2873   */\n      dup3\n        /* \"#utility.yul\":2865:2868   */\n      dup6\n        /* \"#utility.yul\":2841:2882   */\n      tag_387\n      jump\t// in\n    tag_386:\n        /* \"#utility.yul\":2560:2888   */\n      pop\n        /* \"#utility.yul\":2476:2888   */\n      swap4\n      swap3\n      pop\n      pop\n      pop\n      jump\t// out\n        /* \"#utility.yul\":2894:3033   */\n    tag_350:\n        /* \"#utility.yul\":2940:2945   */\n      0x00\n        /* \"#utility.yul\":2978:2984   */\n      dup2\n        /* \"#utility.yul\":2965:2985   */\n      calldataload\n        /* \"#utility.yul\":2956:2985   */\n      swap1\n      pop\n        /* \"#utility.yul\":2994:3027   */\n      tag_389\n        /* \"#utility.yul\":3021:3026   */\n      dup2\n        /* \"#utility.yul\":2994:3027   */\n      tag_390\n      jump\t// in\n    tag_389:\n        /* \"#utility.yul\":2894:3033   */\n      swap3\n      swap2\n      pop\n      pop\n      jump\t// out\n        /* \"#utility.yul\":3056:3426   */\n    tag_391:\n        /* \"#utility.yul\":3127:3132   */\n      0x00\n        /* \"#utility.yul\":3176:3179   */\n      dup3\n        /* \"#utility.yul\":3169:3173   */\n      0x1f\n        /* \"#utility.yul\":3161:3167   */\n      dup4\n        /* \"#utility.yul\":3157:3174   */\n      add\n        /* \"#utility.yul\":3153:3180   */\n      slt\n        /* \"#utility.yul\":3143:3265   */\n      tag_393\n      jumpi\n        /* \"#utility.yul\":3184:3263   */\n      tag_394\n      tag_363\n      jump\t// in\n    tag_394:\n        /* \"#utility.yul\":3143:3265   */\n    tag_393:\n        /* \"#utility.yul\":3301:3307   */\n      dup2\n        /* \"#utility.yul\":3288:3308   */\n      calldataload\n        /* \"#utility.yul\":3326:3420   */\n      tag_395\n        /* \"#utility.yul\":3416:3419   */\n      dup5\n        /* \"#utility.yul\":3408:3414   */\n      dup3\n        /* \"#utility.yul\":3401:3405   */\n      0x20\n        /* \"#utility.yul\":3393:3399   */\n      dup7\n        /* \"#utility.yul\":3389:3406   */\n      add\n        /* \"#utility.yul\":3326:3420   */\n      tag_337\n      jump\t// in\n    tag_395:\n        /* \"#utility.yul\":3317:3420   */\n      swap2\n      pop\n        /* \"#utility.yul\":3133:3426   */\n      pop\n        /* \"#utility.yul\":3056:3426   */\n      swap3\n      swap2\n      pop\n      pop\n      jump\t// out\n        /* \"#utility.yul\":3448:4028   */\n    tag_396:\n        /* \"#utility.yul\":3533:3541   */\n      0x00\n        /* \"#utility.yul\":3543:3549   */\n      dup1\n        /* \"#utility.yul\":3593:3596   */\n      dup4\n        /* \"#utility.yul\":3586:3590   */\n      0x1f\n        /* \"#utility.yul\":3578:3584   */\n      dup5\n        /* \"#utility.yul\":3574:3591   */\n      add\n        /* \"#utility.yul\":3570:3597   */\n      slt\n        /* \"#utility.yul\":3560:3682   */\n      tag_398\n      jumpi\n        /* \"#utility.yul\":3601:3680   */\n      tag_399\n      tag_363\n      jump\t// in\n    tag_399:\n        /* \"#utility.yul\":3560:3682   */\n    tag_398:\n        /* \"#utility.yul\":3714:3720   */\n      dup3\n        /* \"#utility.yul\":3701:3721   */\n      calldataload\n        /* \"#utility.yul\":3691:3721   */\n      swap1\n      pop\n        /* \"#utility.yul\":3744:3762   */\n      0xffffffffffffffff\n        /* \"#utility.yul\":3736:3742   */\n      dup2\n        /* \"#utility.yul\":3733:3763   */\n      gt\n        /* \"#utility.yul\":3730:3847   */\n      iszero\n      tag_400\n      jumpi\n        /* \"#utility.yul\":3766:3845   */\n      tag_401\n      tag_402\n      jump\t// in\n    tag_401:\n        /* \"#utility.yul\":3730:3847   */\n    tag_400:\n        /* \"#utility.yul\":3880:3884   */\n      0x20\n        /* \"#utility.yul\":3872:3878   */\n      dup4\n        /* \"#utility.yul\":3868:3885   */\n      add\n        /* \"#utility.yul\":3856:3885   */\n      swap2\n      pop\n        /* \"#utility.yul\":3934:3937   */\n      dup4\n        /* \"#utility.yul\":3926:3930   */\n      0x20\n        /* \"#utility.yul\":3918:3924   */\n      dup3\n        /* \"#utility.yul\":3914:3931   */\n      mul\n        /* \"#utility.yul\":3904:3912   */\n      dup4\n        /* \"#utility.yul\":3900:3932   */\n      add\n        /* \"#utility.yul\":3897:3938   */\n      gt\n        /* \"#utility.yul\":3894:4022   */\n      iszero\n      tag_403\n      jumpi\n        /* \"#utility.yul\":3941:4020   */\n      tag_404\n      tag_345\n      jump\t// in\n    tag_404:\n        /* \"#utility.yul\":3894:4022   */\n    tag_403:\n        /* \"#utility.yul\":3448:4028   */\n      swap3\n      pop\n      swap3\n      swap1\n      pop\n      jump\t// out\n        /* \"#utility.yul\":4050:4440   */\n    tag_405:\n        /* \"#utility.yul\":4131:4136   */\n      0x00\n        /* \"#utility.yul\":4180:4183   */\n      dup3\n        /* \"#utility.yul\":4173:4177   */\n      0x1f\n        /* \"#utility.yul\":4165:4171   */\n      dup4\n        /* \"#utility.yul\":4161:4178   */\n      add\n        /* \"#utility.yul\":4157:4184   */\n      slt\n        /* \"#utility.yul\":4147:4269   */\n      tag_407\n      jumpi\n        /* \"#utility.yul\":4188:4267   */\n      tag_408\n      tag_363\n      jump\t// in\n    tag_408:\n        /* \"#utility.yul\":4147:4269   */\n    tag_407:\n        /* \"#utility.yul\":4305:4311   */\n      dup2\n        /* \"#utility.yul\":4292:4312   */\n      calldataload\n        /* \"#utility.yul\":4330:4434   */\n      tag_409\n        /* \"#utility.yul\":4430:4433   */\n      dup5\n        /* \"#utility.yul\":4422:4428   */\n      dup3\n        /* \"#utility.yul\":4415:4419   */\n      0x20\n        /* \"#utility.yul\":4407:4413   */\n      dup7\n        /* \"#utility.yul\":4403:4420   */\n      add\n        /* \"#utility.yul\":4330:4434   */\n      tag_351\n      jump\t// in\n    tag_409:\n        /* \"#utility.yul\":4321:4434   */\n      swap2\n      pop\n        /* \"#utility.yul\":4137:4440   */\n      pop\n        /* \"#utility.yul\":4050:4440   */\n      swap3\n      swap2\n      pop\n      pop\n      jump\t// out\n        /* \"#utility.yul\":4463:4833   */\n    tag_410:\n        /* \"#utility.yul\":4534:4539   */\n      0x00\n        /* \"#utility.yul\":4583:4586   */\n      dup3\n        /* \"#utility.yul\":4576:4580   */\n      0x1f\n        /* \"#utility.yul\":4568:4574   */\n      dup4\n        /* \"#utility.yul\":4564:4581   */\n      add\n        /* \"#utility.yul\":4560:4587   */\n      slt\n        /* \"#utility.yul\":4550:4672   */\n      tag_412\n      jumpi\n        /* \"#utility.yul\":4591:4670   */\n      tag_413\n      tag_363\n      jump\t// in\n    tag_413:\n        /* \"#utility.yul\":4550:4672   */\n    tag_412:\n        /* \"#utility.yul\":4708:4714   */\n      dup2\n        /* \"#utility.yul\":4695:4715   */\n      calldataload\n        /* \"#utility.yul\":4733:4827   */\n      tag_414\n        /* \"#utility.yul\":4823:4826   */\n      dup5\n        /* \"#utility.yul\":4815:4821   */\n      dup3\n        /* \"#utility.yul\":4808:4812   */\n      0x20\n        /* \"#utility.yul\":4800:4806   */\n      dup7\n        /* \"#utility.yul\":4796:4813   */\n      add\n        /* \"#utility.yul\":4733:4827   */\n      tag_366\n      jump\t// in\n    tag_414:\n        /* \"#utility.yul\":4724:4827   */\n      swap2\n      pop\n        /* \"#utility.yul\":4540:4833   */\n      pop\n        /* \"#utility.yul\":4463:4833   */\n      swap3\n      swap2\n      pop\n      pop\n      jump\t// out\n        /* \"#utility.yul\":4853:5193   */\n    tag_365:\n        /* \"#utility.yul\":4909:4914   */\n      0x00\n        /* \"#utility.yul\":4958:4961   */\n      dup3\n        /* \"#utility.yul\":4951:4955   */\n      0x1f\n        /* \"#utility.yul\":4943:4949   */\n      dup4\n        /* \"#utility.yul\":4939:4956   */\n      add\n        /* \"#utility.yul\":4935:4962   */\n      slt\n        /* \"#utility.yul\":4925:5047   */\n      tag_416\n      jumpi\n        /* \"#utility.yul\":4966:5045   */\n      tag_417\n      tag_363\n      jump\t// in\n    tag_417:\n        /* \"#utility.yul\":4925:5047   */\n    tag_416:\n        /* \"#utility.yul\":5083:5089   */\n      dup2\n        /* \"#utility.yul\":5070:5090   */\n      calldataload\n        /* \"#utility.yul\":5108:5187   */\n      tag_418\n        /* \"#utility.yul\":5183:5186   */\n      dup5\n        /* \"#utility.yul\":5175:5181   */\n      dup3\n        /* \"#utility.yul\":5168:5172   */\n      0x20\n        /* \"#utility.yul\":5160:5166   */\n      dup7\n        /* \"#utility.yul\":5156:5173   */\n      add\n        /* \"#utility.yul\":5108:5187   */\n      tag_378\n      jump\t// in\n    tag_418:\n        /* \"#utility.yul\":5099:5187   */\n      swap2\n      pop\n        /* \"#utility.yul\":4915:5193   */\n      pop\n        /* \"#utility.yul\":4853:5193   */\n      swap3\n      swap2\n      pop\n      pop\n      jump\t// out\n        /* \"#utility.yul\":5199:5338   */\n    tag_377:\n        /* \"#utility.yul\":5245:5250   */\n      0x00\n        /* \"#utility.yul\":5283:5289   */\n      dup2\n        /* \"#utility.yul\":5270:5290   */\n      calldataload\n        /* \"#utility.yul\":5261:5290   */\n      swap1\n      pop\n        /* \"#utility.yul\":5299:5332   */\n      tag_420\n        /* \"#utility.yul\":5326:5331   */\n      dup2\n        /* \"#utility.yul\":5299:5332   */\n      tag_421\n      jump\t// in\n    tag_420:\n        /* \"#utility.yul\":5199:5338   */\n      swap3\n      swap2\n      pop\n      pop\n      jump\t// out\n        /* \"#utility.yul\":5344:5479   */\n    tag_422:\n        /* \"#utility.yul\":5388:5393   */\n      0x00\n        /* \"#utility.yul\":5426:5432   */\n      dup2\n        /* \"#utility.yul\":5413:5433   */\n      calldataload\n        /* \"#utility.yul\":5404:5433   */\n      swap1\n      pop\n        /* \"#utility.yul\":5442:5473   */\n      tag_424\n        /* \"#utility.yul\":5467:5472   */\n      dup2\n        /* \"#utility.yul\":5442:5473   */\n      tag_425\n      jump\t// in\n    tag_424:\n        /* \"#utility.yul\":5344:5479   */\n      swap3\n      swap2\n      pop\n      pop\n      jump\t// out\n        /* \"#utility.yul\":5485:5814   */\n    tag_50:\n        /* \"#utility.yul\":5544:5550   */\n      0x00\n        /* \"#utility.yul\":5593:5595   */\n      0x20\n        /* \"#utility.yul\":5581:5590   */\n      dup3\n        /* \"#utility.yul\":5572:5579   */\n      dup5\n        /* \"#utility.yul\":5568:5591   */\n      sub\n        /* \"#utility.yul\":5564:5596   */\n      slt\n        /* \"#utility.yul\":5561:5680   */\n      iszero\n      tag_427\n      jumpi\n        /* \"#utility.yul\":5599:5678   */\n      tag_428\n      tag_429\n      jump\t// in\n    tag_428:\n        /* \"#utility.yul\":5561:5680   */\n    tag_427:\n        /* \"#utility.yul\":5719:5720   */\n      0x00\n        /* \"#utility.yul\":5744:5797   */\n      tag_430\n        /* \"#utility.yul\":5789:5796   */\n      dup5\n        /* \"#utility.yul\":5780:5786   */\n      dup3\n        /* \"#utility.yul\":5769:5778   */\n      dup6\n        /* \"#utility.yul\":5765:5787   */\n      add\n        /* \"#utility.yul\":5744:5797   */\n      tag_350\n      jump\t// in\n    tag_430:\n        /* \"#utility.yul\":5734:5797   */\n      swap2\n      pop\n        /* \"#utility.yul\":5690:5807   */\n      pop\n        /* \"#utility.yul\":5485:5814   */\n      swap3\n      swap2\n      pop\n      pop\n      jump\t// out\n        /* \"#utility.yul\":5820:6294   */\n    tag_63:\n        /* \"#utility.yul\":5888:5894   */\n      0x00\n        /* \"#utility.yul\":5896:5902   */\n      dup1\n        /* \"#utility.yul\":5945:5947   */\n      0x40\n        /* \"#utility.yul\":5933:5942   */\n      dup4\n        /* \"#utility.yul\":5924:5931   */\n      dup6\n        /* \"#utility.yul\":5920:5943   */\n      sub\n        /* \"#utility.yul\":5916:5948   */\n      slt\n        /* \"#utility.yul\":5913:6032   */\n      iszero\n      tag_432\n      jumpi\n        /* \"#utility.yul\":5951:6030   */\n      tag_433\n      tag_429\n      jump\t// in\n    tag_433:\n        /* \"#utility.yul\":5913:6032   */\n    tag_432:\n        /* \"#utility.yul\":6071:6072   */\n      0x00\n        /* \"#utility.yul\":6096:6149   */\n      tag_434\n        /* \"#utility.yul\":6141:6148   */\n      dup6\n        /* \"#utility.yul\":6132:6138   */\n      dup3\n        /* \"#utility.yul\":6121:6130   */\n      dup7\n        /* \"#utility.yul\":6117:6139   */\n      add\n        /* \"#utility.yul\":6096:6149   */\n      tag_350\n      jump\t// in\n    tag_434:\n        /* \"#utility.yul\":6086:6149   */\n      swap3\n      pop\n        /* \"#utility.yul\":6042:6159   */\n      pop\n        /* \"#utility.yul\":6198:6200   */\n      0x20\n        /* \"#utility.yul\":6224:6277   */\n      tag_435\n        /* \"#utility.yul\":6269:6276   */\n      dup6\n        /* \"#utility.yul\":6260:6266   */\n      dup3\n        /* \"#utility.yul\":6249:6258   */\n      dup7\n        /* \"#utility.yul\":6245:6267   */\n      add\n        /* \"#utility.yul\":6224:6277   */\n      tag_377\n      jump\t// in\n    tag_435:\n        /* \"#utility.yul\":6214:6277   */\n      swap2\n      pop\n        /* \"#utility.yul\":6169:6287   */\n      pop\n        /* \"#utility.yul\":5820:6294   */\n      swap3\n      pop\n      swap3\n      swap1\n      pop\n      jump\t// out\n        /* \"#utility.yul\":6300:6629   */\n    tag_18:\n        /* \"#utility.yul\":6359:6365   */\n      0x00\n        /* \"#utility.yul\":6408:6410   */\n      0x20\n        /* \"#utility.yul\":6396:6405   */\n      dup3\n        /* \"#utility.yul\":6387:6394   */\n      dup5\n        /* \"#utility.yul\":6383:6406   */\n      sub\n        /* \"#utility.yul\":6379:6411   */\n      slt\n        /* \"#utility.yul\":6376:6495   */\n      iszero\n      tag_437\n      jumpi\n        /* \"#utility.yul\":6414:6493   */\n      tag_438\n      tag_429\n      jump\t// in\n    tag_438:\n        /* \"#utility.yul\":6376:6495   */\n    tag_437:\n        /* \"#utility.yul\":6534:6535   */\n      0x00\n        /* \"#utility.yul\":6559:6612   */\n      tag_439\n        /* \"#utility.yul\":6604:6611   */\n      dup5\n        /* \"#utility.yul\":6595:6601   */\n      dup3\n        /* \"#utility.yul\":6584:6593   */\n      dup6\n        /* \"#utility.yul\":6580:6602   */\n      add\n        /* \"#utility.yul\":6559:6612   */\n      tag_377\n      jump\t// in\n    tag_439:\n        /* \"#utility.yul\":6549:6612   */\n      swap2\n      pop\n        /* \"#utility.yul\":6505:6622   */\n      pop\n        /* \"#utility.yul\":6300:6629   */\n      swap3\n      swap2\n      pop\n      pop\n      jump\t// out\n        /* \"#utility.yul\":6635:7109   */\n    tag_44:\n        /* \"#utility.yul\":6703:6709   */\n      0x00\n        /* \"#utility.yul\":6711:6717   */\n      dup1\n        /* \"#utility.yul\":6760:6762   */\n      0x40\n        /* \"#utility.yul\":6748:6757   */\n      dup4\n        /* \"#utility.yul\":6739:6746   */\n      dup6\n        /* \"#utility.yul\":6735:6758   */\n      sub\n        /* \"#utility.yul\":6731:6763   */\n      slt\n        /* \"#utility.yul\":6728:6847   */\n      iszero\n      tag_441\n      jumpi\n        /* \"#utility.yul\":6766:6845   */\n      tag_442\n      tag_429\n      jump\t// in\n    tag_442:\n        /* \"#utility.yul\":6728:6847   */\n    tag_441:\n        /* \"#utility.yul\":6886:6887   */\n      0x00\n        /* \"#utility.yul\":6911:6964   */\n      tag_443\n        /* \"#utility.yul\":6956:6963   */\n      dup6\n        /* \"#utility.yul\":6947:6953   */\n      dup3\n        /* \"#utility.yul\":6936:6945   */\n      dup7\n        /* \"#utility.yul\":6932:6954   */\n      add\n        /* \"#utility.yul\":6911:6964   */\n      tag_377\n      jump\t// in\n    tag_443:\n        /* \"#utility.yul\":6901:6964   */\n      swap3\n      pop\n        /* \"#utility.yul\":6857:6974   */\n      pop\n        /* \"#utility.yul\":7013:7015   */\n      0x20\n        /* \"#utility.yul\":7039:7092   */\n      tag_444\n        /* \"#utility.yul\":7084:7091   */\n      dup6\n        /* \"#utility.yul\":7075:7081   */\n      dup3\n        /* \"#utility.yul\":7064:7073   */\n      dup7\n        /* \"#utility.yul\":7060:7082   */\n      add\n        /* \"#utility.yul\":7039:7092   */\n      tag_350\n      jump\t// in\n    tag_444:\n        /* \"#utility.yul\":7029:7092   */\n      swap2\n      pop\n        /* \"#utility.yul\":6984:7102   */\n      pop\n        /* \"#utility.yul\":6635:7109   */\n      swap3\n      pop\n      swap3\n      swap1\n      pop\n      jump\t// out\n        /* \"#utility.yul\":7115:8320   */\n    tag_40:\n        /* \"#utility.yul\":7261:7267   */\n      0x00\n        /* \"#utility.yul\":7269:7275   */\n      dup1\n        /* \"#utility.yul\":7277:7283   */\n      0x00\n        /* \"#utility.yul\":7285:7291   */\n      dup1\n        /* \"#utility.yul\":7334:7337   */\n      0x80\n        /* \"#utility.yul\":7322:7331   */\n      dup6\n        /* \"#utility.yul\":7313:7320   */\n      dup8\n        /* \"#utility.yul\":7309:7332   */\n      sub\n        /* \"#utility.yul\":7305:7338   */\n      slt\n        /* \"#utility.yul\":7302:7422   */\n      iszero\n      tag_446\n      jumpi\n        /* \"#utility.yul\":7341:7420   */\n      tag_447\n      tag_429\n      jump\t// in\n    tag_447:\n        /* \"#utility.yul\":7302:7422   */\n    tag_446:\n        /* \"#utility.yul\":7461:7462   */\n      0x00\n        /* \"#utility.yul\":7486:7539   */\n      tag_448\n        /* \"#utility.yul\":7531:7538   */\n      dup8\n        /* \"#utility.yul\":7522:7528   */\n      dup3\n        /* \"#utility.yul\":7511:7520   */\n      dup9\n        /* \"#utility.yul\":7507:7529   */\n      add\n        /* \"#utility.yul\":7486:7539   */\n      tag_377\n      jump\t// in\n    tag_448:\n        /* \"#utility.yul\":7476:7539   */\n      swap5\n      pop\n        /* \"#utility.yul\":7432:7549   */\n      pop\n        /* \"#utility.yul\":7588:7590   */\n      0x20\n        /* \"#utility.yul\":7614:7667   */\n      tag_449\n        /* \"#utility.yul\":7659:7666   */\n      dup8\n        /* \"#utility.yul\":7650:7656   */\n      dup3\n        /* \"#utility.yul\":7639:7648   */\n      dup9\n        /* \"#utility.yul\":7635:7657   */\n      add\n        /* \"#utility.yul\":7614:7667   */\n      tag_350\n      jump\t// in\n    tag_449:\n        /* \"#utility.yul\":7604:7667   */\n      swap4\n      pop\n        /* \"#utility.yul\":7559:7677   */\n      pop\n        /* \"#utility.yul\":7744:7746   */\n      0x40\n        /* \"#utility.yul\":7733:7742   */\n      dup6\n        /* \"#utility.yul\":7729:7747   */\n      add\n        /* \"#utility.yul\":7716:7748   */\n      calldataload\n        /* \"#utility.yul\":7775:7793   */\n      0xffffffffffffffff\n        /* \"#utility.yul\":7767:7773   */\n      dup2\n        /* \"#utility.yul\":7764:7794   */\n      gt\n        /* \"#utility.yul\":7761:7878   */\n      iszero\n      tag_450\n      jumpi\n        /* \"#utility.yul\":7797:7876   */\n      tag_451\n      tag_452\n      jump\t// in\n    tag_451:\n        /* \"#utility.yul\":7761:7878   */\n    tag_450:\n        /* \"#utility.yul\":7902:7990   */\n      tag_453\n        /* \"#utility.yul\":7982:7989   */\n      dup8\n        /* \"#utility.yul\":7973:7979   */\n      dup3\n        /* \"#utility.yul\":7962:7971   */\n      dup9\n        /* \"#utility.yul\":7958:7980   */\n      add\n        /* \"#utility.yul\":7902:7990   */\n      tag_405\n      jump\t// in\n    tag_453:\n        /* \"#utility.yul\":7892:7990   */\n      swap3\n      pop\n        /* \"#utility.yul\":7687:8000   */\n      pop\n        /* \"#utility.yul\":8067:8069   */\n      0x60\n        /* \"#utility.yul\":8056:8065   */\n      dup6\n        /* \"#utility.yul\":8052:8070   */\n      add\n        /* \"#utility.yul\":8039:8071   */\n      calldataload\n        /* \"#utility.yul\":8098:8116   */\n      0xffffffffffffffff\n        /* \"#utility.yul\":8090:8096   */\n      dup2\n        /* \"#utility.yul\":8087:8117   */\n      gt\n        /* \"#utility.yul\":8084:8201   */\n      iszero\n      tag_454\n      jumpi\n        /* \"#utility.yul\":8120:8199   */\n      tag_455\n      tag_452\n      jump\t// in\n    tag_455:\n        /* \"#utility.yul\":8084:8201   */\n    tag_454:\n        /* \"#utility.yul\":8225:8303   */\n      tag_456\n        /* \"#utility.yul\":8295:8302   */\n      dup8\n        /* \"#utility.yul\":8286:8292   */\n      dup3\n        /* \"#utility.yul\":8275:8284   */\n      dup9\n        /* \"#utility.yul\":8271:8293   */\n      add\n        /* \"#utility.yul\":8225:8303   */\n      tag_410\n      jump\t// in\n    tag_456:\n        /* \"#utility.yul\":8215:8303   */\n      swap2\n      pop\n        /* \"#utility.yul\":8010:8313   */\n      pop\n        /* \"#utility.yul\":7115:8320   */\n      swap3\n      swap6\n      swap2\n      swap5\n      pop\n      swap3\n      pop\n      jump\t// out\n        /* \"#utility.yul\":8326:10315   */\n    tag_36:\n        /* \"#utility.yul\":8520:8526   */\n      0x00\n        /* \"#utility.yul\":8528:8534   */\n      dup1\n        /* \"#utility.yul\":8536:8542   */\n      0x00\n        /* \"#utility.yul\":8544:8550   */\n      dup1\n        /* \"#utility.yul\":8552:8558   */\n      0x00\n        /* \"#utility.yul\":8560:8566   */\n      dup1\n        /* \"#utility.yul\":8568:8574   */\n      0x00\n        /* \"#utility.yul\":8576:8582   */\n      dup1\n        /* \"#utility.yul\":8584:8590   */\n      0x00\n        /* \"#utility.yul\":8633:8636   */\n      0x0100\n        /* \"#utility.yul\":8621:8630   */\n      dup11\n        /* \"#utility.yul\":8612:8619   */\n      dup13\n        /* \"#utility.yul\":8608:8631   */\n      sub\n        /* \"#utility.yul\":8604:8637   */\n      slt\n        /* \"#utility.yul\":8601:8721   */\n      iszero\n      tag_458\n      jumpi\n        /* \"#utility.yul\":8640:8719   */\n      tag_459\n      tag_429\n      jump\t// in\n    tag_459:\n        /* \"#utility.yul\":8601:8721   */\n    tag_458:\n        /* \"#utility.yul\":8760:8761   */\n      0x00\n        /* \"#utility.yul\":8785:8836   */\n      tag_460\n        /* \"#utility.yul\":8828:8835   */\n      dup13\n        /* \"#utility.yul\":8819:8825   */\n      dup3\n        /* \"#utility.yul\":8808:8817   */\n      dup14\n        /* \"#utility.yul\":8804:8826   */\n      add\n        /* \"#utility.yul\":8785:8836   */\n      tag_422\n      jump\t// in\n    tag_460:\n        /* \"#utility.yul\":8775:8836   */\n      swap10\n      pop\n        /* \"#utility.yul\":8731:8846   */\n      pop\n        /* \"#utility.yul\":8913:8915   */\n      0x20\n        /* \"#utility.yul\":8902:8911   */\n      dup11\n        /* \"#utility.yul\":8898:8916   */\n      add\n        /* \"#utility.yul\":8885:8917   */\n      calldataload\n        /* \"#utility.yul\":8944:8962   */\n      0xffffffffffffffff\n        /* \"#utility.yul\":8936:8942   */\n      dup2\n        /* \"#utility.yul\":8933:8963   */\n      gt\n        /* \"#utility.yul\":8930:9047   */\n      iszero\n      tag_461\n      jumpi\n        /* \"#utility.yul\":8966:9045   */\n      tag_462\n      tag_452\n      jump\t// in\n    tag_462:\n        /* \"#utility.yul\":8930:9047   */\n    tag_461:\n        /* \"#utility.yul\":9071:9149   */\n      tag_463\n        /* \"#utility.yul\":9141:9148   */\n      dup13\n        /* \"#utility.yul\":9132:9138   */\n      dup3\n        /* \"#utility.yul\":9121:9130   */\n      dup14\n        /* \"#utility.yul\":9117:9139   */\n      add\n        /* \"#utility.yul\":9071:9149   */\n      tag_391\n      jump\t// in\n    tag_463:\n        /* \"#utility.yul\":9061:9149   */\n      swap9\n      pop\n        /* \"#utility.yul\":8856:9159   */\n      pop\n        /* \"#utility.yul\":9198:9200   */\n      0x40\n        /* \"#utility.yul\":9224:9277   */\n      tag_464\n        /* \"#utility.yul\":9269:9276   */\n      dup13\n        /* \"#utility.yul\":9260:9266   */\n      dup3\n        /* \"#utility.yul\":9249:9258   */\n      dup14\n        /* \"#utility.yul\":9245:9267   */\n      add\n        /* \"#utility.yul\":9224:9277   */\n      tag_350\n      jump\t// in\n    tag_464:\n        /* \"#utility.yul\":9214:9277   */\n      swap8\n      pop\n        /* \"#utility.yul\":9169:9287   */\n      pop\n        /* \"#utility.yul\":9326:9328   */\n      0x60\n        /* \"#utility.yul\":9352:9405   */\n      tag_465\n        /* \"#utility.yul\":9397:9404   */\n      dup13\n        /* \"#utility.yul\":9388:9394   */\n      dup3\n        /* \"#utility.yul\":9377:9386   */\n      dup14\n        /* \"#utility.yul\":9373:9395   */\n      add\n        /* \"#utility.yul\":9352:9405   */\n      tag_377\n      jump\t// in\n    tag_465:\n        /* \"#utility.yul\":9342:9405   */\n      swap7\n      pop\n        /* \"#utility.yul\":9297:9415   */\n      pop\n        /* \"#utility.yul\":9454:9457   */\n      0x80\n        /* \"#utility.yul\":9481:9534   */\n      tag_466\n        /* \"#utility.yul\":9526:9533   */\n      dup13\n        /* \"#utility.yul\":9517:9523   */\n      dup3\n        /* \"#utility.yul\":9506:9515   */\n      dup14\n        /* \"#utility.yul\":9502:9524   */\n      add\n        /* \"#utility.yul\":9481:9534   */\n      tag_377\n      jump\t// in\n    tag_466:\n        /* \"#utility.yul\":9471:9534   */\n      swap6\n      pop\n        /* \"#utility.yul\":9425:9544   */\n      pop\n        /* \"#utility.yul\":9611:9614   */\n      0xa0\n        /* \"#utility.yul\":9600:9609   */\n      dup11\n        /* \"#utility.yul\":9596:9615   */\n      add\n        /* \"#utility.yul\":9583:9616   */\n      calldataload\n        /* \"#utility.yul\":9643:9661   */\n      0xffffffffffffffff\n        /* \"#utility.yul\":9635:9641   */\n      dup2\n        /* \"#utility.yul\":9632:9662   */\n      gt\n        /* \"#utility.yul\":9629:9746   */\n      iszero\n      tag_467\n      jumpi\n        /* \"#utility.yul\":9665:9744   */\n      tag_468\n      tag_452\n      jump\t// in\n    tag_468:\n        /* \"#utility.yul\":9629:9746   */\n    tag_467:\n        /* \"#utility.yul\":9770:9833   */\n      tag_469\n        /* \"#utility.yul\":9825:9832   */\n      dup13\n        /* \"#utility.yul\":9816:9822   */\n      dup3\n        /* \"#utility.yul\":9805:9814   */\n      dup14\n        /* \"#utility.yul\":9801:9823   */\n      add\n        /* \"#utility.yul\":9770:9833   */\n      tag_365\n      jump\t// in\n    tag_469:\n        /* \"#utility.yul\":9760:9833   */\n      swap5\n      pop\n        /* \"#utility.yul\":9554:9843   */\n      pop\n        /* \"#utility.yul\":9910:9913   */\n      0xc0\n        /* \"#utility.yul\":9899:9908   */\n      dup11\n        /* \"#utility.yul\":9895:9914   */\n      add\n        /* \"#utility.yul\":9882:9915   */\n      calldataload\n        /* \"#utility.yul\":9942:9960   */\n      0xffffffffffffffff\n        /* \"#utility.yul\":9934:9940   */\n      dup2\n        /* \"#utility.yul\":9931:9961   */\n      gt\n        /* \"#utility.yul\":9928:10045   */\n      iszero\n      tag_470\n      jumpi\n        /* \"#utility.yul\":9964:10043   */\n      tag_471\n      tag_452\n      jump\t// in\n    tag_471:\n        /* \"#utility.yul\":9928:10045   */\n    tag_470:\n        /* \"#utility.yul\":10077:10169   */\n      tag_472\n        /* \"#utility.yul\":10161:10168   */\n      dup13\n        /* \"#utility.yul\":10152:10158   */\n      dup3\n        /* \"#utility.yul\":10141:10150   */\n      dup14\n        /* \"#utility.yul\":10137:10159   */\n      add\n        /* \"#utility.yul\":10077:10169   */\n      tag_396\n      jump\t// in\n    tag_472:\n        /* \"#utility.yul\":10059:10169   */\n      swap4\n      pop\n      swap4\n      pop\n        /* \"#utility.yul\":9853:10179   */\n      pop\n        /* \"#utility.yul\":10218:10221   */\n      0xe0\n        /* \"#utility.yul\":10245:10298   */\n      tag_473\n        /* \"#utility.yul\":10290:10297   */\n      dup13\n        /* \"#utility.yul\":10281:10287   */\n      dup3\n        /* \"#utility.yul\":10270:10279   */\n      dup14\n        /* \"#utility.yul\":10266:10288   */\n      add\n        /* \"#utility.yul\":10245:10298   */\n      tag_377\n      jump\t// in\n    tag_473:\n        /* \"#utility.yul\":10235:10298   */\n      swap2\n      pop\n        /* \"#utility.yul\":10189:10308   */\n      pop\n        /* \"#utility.yul\":8326:10315   */\n      swap3\n      swap6\n      swap9\n      pop\n      swap3\n      swap6\n      swap9\n      pop\n      swap3\n      swap6\n      swap9\n      jump\t// out\n        /* \"#utility.yul\":10321:10500   */\n    tag_474:\n        /* \"#utility.yul\":10390:10400   */\n      0x00\n        /* \"#utility.yul\":10411:10457   */\n      tag_476\n        /* \"#utility.yul\":10453:10456   */\n      dup4\n        /* \"#utility.yul\":10445:10451   */\n      dup4\n        /* \"#utility.yul\":10411:10457   */\n      tag_477\n      jump\t// in\n    tag_476:\n        /* \"#utility.yul\":10489:10493   */\n      0x20\n        /* \"#utility.yul\":10484:10487   */\n      dup4\n        /* \"#utility.yul\":10480:10494   */\n      add\n        /* \"#utility.yul\":10466:10494   */\n      swap1\n      pop\n        /* \"#utility.yul\":10321:10500   */\n      swap3\n      swap2\n      pop\n      pop\n      jump\t// out\n        /* \"#utility.yul\":10506:10722   */\n    tag_478:\n        /* \"#utility.yul\":10605:10615   */\n      0x00\n        /* \"#utility.yul\":10640:10716   */\n      tag_480\n        /* \"#utility.yul\":10712:10715   */\n      dup5\n        /* \"#utility.yul\":10704:10710   */\n      dup5\n        /* \"#utility.yul\":10696:10702   */\n      dup5\n        /* \"#utility.yul\":10640:10716   */\n      tag_481\n      jump\t// in\n    tag_480:\n        /* \"#utility.yul\":10626:10716   */\n      swap1\n      pop\n        /* \"#utility.yul\":10506:10722   */\n      swap4\n      swap3\n      pop\n      pop\n      pop\n      jump\t// out\n        /* \"#utility.yul\":10728:10836   */\n    tag_477:\n        /* \"#utility.yul\":10805:10829   */\n      tag_483\n        /* \"#utility.yul\":10823:10828   */\n      dup2\n        /* \"#utility.yul\":10805:10829   */\n      tag_484\n      jump\t// in\n    tag_483:\n        /* \"#utility.yul\":10800:10803   */\n      dup3\n        /* \"#utility.yul\":10793:10830   */\n      mstore\n        /* \"#utility.yul\":10728:10836   */\n      pop\n      pop\n      jump\t// out\n        /* \"#utility.yul\":10842:10960   */\n    tag_485:\n        /* \"#utility.yul\":10929:10953   */\n      tag_487\n        /* \"#utility.yul\":10947:10952   */\n      dup2\n        /* \"#utility.yul\":10929:10953   */\n      tag_484\n      jump\t// in\n    tag_487:\n        /* \"#utility.yul\":10924:10927   */\n      dup3\n        /* \"#utility.yul\":10917:10954   */\n      mstore\n        /* \"#utility.yul\":10842:10960   */\n      pop\n      pop\n      jump\t// out\n        /* \"#utility.yul\":10996:11728   */\n    tag_488:\n        /* \"#utility.yul\":11115:11118   */\n      0x00\n        /* \"#utility.yul\":11144:11198   */\n      tag_490\n        /* \"#utility.yul\":11192:11197   */\n      dup3\n        /* \"#utility.yul\":11144:11198   */\n      tag_491\n      jump\t// in\n    tag_490:\n        /* \"#utility.yul\":11214:11300   */\n      tag_492\n        /* \"#utility.yul\":11293:11299   */\n      dup2\n        /* \"#utility.yul\":11288:11291   */\n      dup6\n        /* \"#utility.yul\":11214:11300   */\n      tag_493\n      jump\t// in\n    tag_492:\n        /* \"#utility.yul\":11207:11300   */\n      swap4\n      pop\n        /* \"#utility.yul\":11324:11380   */\n      tag_494\n        /* \"#utility.yul\":11374:11379   */\n      dup4\n        /* \"#utility.yul\":11324:11380   */\n      tag_495\n      jump\t// in\n    tag_494:\n        /* \"#utility.yul\":11403:11410   */\n      dup1\n        /* \"#utility.yul\":11434:11435   */\n      0x00\n        /* \"#utility.yul\":11419:11703   */\n    tag_496:\n        /* \"#utility.yul\":11444:11450   */\n      dup4\n        /* \"#utility.yul\":11441:11442   */\n      dup2\n        /* \"#utility.yul\":11438:11451   */\n      lt\n        /* \"#utility.yul\":11419:11703   */\n      iszero\n      tag_498\n      jumpi\n        /* \"#utility.yul\":11520:11526   */\n      dup2\n        /* \"#utility.yul\":11514:11527   */\n      mload\n        /* \"#utility.yul\":11547:11610   */\n      tag_499\n        /* \"#utility.yul\":11606:11609   */\n      dup9\n        /* \"#utility.yul\":11591:11604   */\n      dup3\n        /* \"#utility.yul\":11547:11610   */\n      tag_474\n      jump\t// in\n    tag_499:\n        /* \"#utility.yul\":11540:11610   */\n      swap8\n      pop\n        /* \"#utility.yul\":11633:11693   */\n      tag_500\n        /* \"#utility.yul\":11686:11692   */\n      dup4\n        /* \"#utility.yul\":11633:11693   */\n      tag_501\n      jump\t// in\n    tag_500:\n        /* \"#utility.yul\":11623:11693   */\n      swap3\n      pop\n        /* \"#utility.yul\":11479:11703   */\n      pop\n        /* \"#utility.yul\":11466:11467   */\n      0x01\n        /* \"#utility.yul\":11463:11464   */\n      dup2\n        /* \"#utility.yul\":11459:11468   */\n      add\n        /* \"#utility.yul\":11454:11468   */\n      swap1\n      pop\n        /* \"#utility.yul\":11419:11703   */\n      jump(tag_496)\n    tag_498:\n        /* \"#utility.yul\":11423:11437   */\n      pop\n        /* \"#utility.yul\":11719:11722   */\n      dup6\n        /* \"#utility.yul\":11712:11722   */\n      swap4\n      pop\n        /* \"#utility.yul\":11120:11728   */\n      pop\n      pop\n      pop\n        /* \"#utility.yul\":10996:11728   */\n      swap3\n      swap2\n      pop\n      pop\n      jump\t// out\n        /* \"#utility.yul\":11762:12760   */\n    tag_502:\n        /* \"#utility.yul\":11913:11916   */\n      0x00\n        /* \"#utility.yul\":11936:12032   */\n      tag_504\n        /* \"#utility.yul\":12025:12031   */\n      dup4\n        /* \"#utility.yul\":12020:12023   */\n      dup6\n        /* \"#utility.yul\":11936:12032   */\n      tag_505\n      jump\t// in\n    tag_504:\n        /* \"#utility.yul\":11929:12032   */\n      swap4\n      pop\n        /* \"#utility.yul\":12058:12061   */\n      dup4\n        /* \"#utility.yul\":12103:12107   */\n      0x20\n        /* \"#utility.yul\":12095:12101   */\n      dup5\n        /* \"#utility.yul\":12091:12108   */\n      mul\n        /* \"#utility.yul\":12086:12089   */\n      dup6\n        /* \"#utility.yul\":12082:12109   */\n      add\n        /* \"#utility.yul\":12133:12203   */\n      tag_506\n        /* \"#utility.yul\":12197:12202   */\n      dup5\n        /* \"#utility.yul\":12133:12203   */\n      tag_507\n      jump\t// in\n    tag_506:\n        /* \"#utility.yul\":12226:12233   */\n      dup1\n        /* \"#utility.yul\":12257:12258   */\n      0x00\n        /* \"#utility.yul\":12242:12715   */\n    tag_508:\n        /* \"#utility.yul\":12267:12273   */\n      dup8\n        /* \"#utility.yul\":12264:12265   */\n      dup2\n        /* \"#utility.yul\":12261:12274   */\n      lt\n        /* \"#utility.yul\":12242:12715   */\n      iszero\n      tag_510\n      jumpi\n        /* \"#utility.yul\":12338:12347   */\n      dup5\n        /* \"#utility.yul\":12332:12336   */\n      dup5\n        /* \"#utility.yul\":12328:12348   */\n      sub\n        /* \"#utility.yul\":12323:12326   */\n      dup10\n        /* \"#utility.yul\":12316:12349   */\n      mstore\n        /* \"#utility.yul\":12398:12452   */\n      tag_511\n        /* \"#utility.yul\":12445:12451   */\n      dup3\n        /* \"#utility.yul\":12436:12443   */\n      dup5\n        /* \"#utility.yul\":12398:12452   */\n      tag_512\n      jump\t// in\n    tag_511:\n        /* \"#utility.yul\":12473:12574   */\n      tag_513\n        /* \"#utility.yul\":12569:12573   */\n      dup7\n        /* \"#utility.yul\":12554:12567   */\n      dup3\n        /* \"#utility.yul\":12539:12552   */\n      dup5\n        /* \"#utility.yul\":12473:12574   */\n      tag_478\n      jump\t// in\n    tag_513:\n        /* \"#utility.yul\":12465:12574   */\n      swap6\n      pop\n        /* \"#utility.yul\":12597:12671   */\n      tag_514\n        /* \"#utility.yul\":12664:12670   */\n      dup5\n        /* \"#utility.yul\":12597:12671   */\n      tag_515\n      jump\t// in\n    tag_514:\n        /* \"#utility.yul\":12587:12671   */\n      swap4\n      pop\n        /* \"#utility.yul\":12700:12704   */\n      0x20\n        /* \"#utility.yul\":12695:12698   */\n      dup12\n        /* \"#utility.yul\":12691:12705   */\n      add\n        /* \"#utility.yul\":12684:12705   */\n      swap11\n      pop\n        /* \"#utility.yul\":12302:12715   */\n      pop\n      pop\n        /* \"#utility.yul\":12289:12290   */\n      0x01\n        /* \"#utility.yul\":12286:12287   */\n      dup2\n        /* \"#utility.yul\":12282:12291   */\n      add\n        /* \"#utility.yul\":12277:12291   */\n      swap1\n      pop\n        /* \"#utility.yul\":12242:12715   */\n      jump(tag_508)\n    tag_510:\n        /* \"#utility.yul\":12246:12260   */\n      pop\n        /* \"#utility.yul\":12731:12735   */\n      dup3\n        /* \"#utility.yul\":12724:12735   */\n      swap8\n      pop\n        /* \"#utility.yul\":12751:12754   */\n      dup8\n        /* \"#utility.yul\":12744:12754   */\n      swap5\n      pop\n        /* \"#utility.yul\":11918:12760   */\n      pop\n      pop\n      pop\n      pop\n        /* \"#utility.yul\":11762:12760   */\n      swap4\n      swap3\n      pop\n      pop\n      pop\n      jump\t// out\n        /* \"#utility.yul\":12766:12875   */\n    tag_516:\n        /* \"#utility.yul\":12847:12868   */\n      tag_518\n        /* \"#utility.yul\":12862:12867   */\n      dup2\n        /* \"#utility.yul\":12847:12868   */\n      tag_519\n      jump\t// in\n    tag_518:\n        /* \"#utility.yul\":12842:12845   */\n      dup3\n        /* \"#utility.yul\":12835:12869   */\n      mstore\n        /* \"#utility.yul\":12766:12875   */\n      pop\n      pop\n      jump\t// out\n        /* \"#utility.yul\":12905:13189   */\n    tag_481:\n        /* \"#utility.yul\":12993:12996   */\n      0x00\n        /* \"#utility.yul\":13014:13075   */\n      tag_521\n        /* \"#utility.yul\":13068:13074   */\n      dup4\n        /* \"#utility.yul\":13063:13066   */\n      dup6\n        /* \"#utility.yul\":13014:13075   */\n      tag_522\n      jump\t// in\n    tag_521:\n        /* \"#utility.yul\":13007:13075   */\n      swap4\n      pop\n        /* \"#utility.yul\":13085:13128   */\n      tag_523\n        /* \"#utility.yul\":13121:13127   */\n      dup4\n        /* \"#utility.yul\":13116:13119   */\n      dup6\n        /* \"#utility.yul\":13109:13114   */\n      dup5\n        /* \"#utility.yul\":13085:13128   */\n      tag_387\n      jump\t// in\n    tag_523:\n        /* \"#utility.yul\":13153:13182   */\n      tag_524\n        /* \"#utility.yul\":13175:13181   */\n      dup4\n        /* \"#utility.yul\":13153:13182   */\n      tag_525\n      jump\t// in\n    tag_524:\n        /* \"#utility.yul\":13148:13151   */\n      dup5\n        /* \"#utility.yul\":13144:13183   */\n      add\n        /* \"#utility.yul\":13137:13183   */\n      swap1\n      pop\n        /* \"#utility.yul\":12905:13189   */\n      swap4\n      swap3\n      pop\n      pop\n      pop\n      jump\t// out\n        /* \"#utility.yul\":13219:13536   */\n    tag_526:\n        /* \"#utility.yul\":13335:13338   */\n      0x00\n        /* \"#utility.yul\":13356:13445   */\n      tag_528\n        /* \"#utility.yul\":13438:13444   */\n      dup4\n        /* \"#utility.yul\":13433:13436   */\n      dup6\n        /* \"#utility.yul\":13356:13445   */\n      tag_529\n      jump\t// in\n    tag_528:\n        /* \"#utility.yul\":13349:13445   */\n      swap4\n      pop\n        /* \"#utility.yul\":13455:13498   */\n      tag_530\n        /* \"#utility.yul\":13491:13497   */\n      dup4\n        /* \"#utility.yul\":13486:13489   */\n      dup6\n        /* \"#utility.yul\":13479:13484   */\n      dup5\n        /* \"#utility.yul\":13455:13498   */\n      tag_387\n      jump\t// in\n    tag_530:\n        /* \"#utility.yul\":13523:13529   */\n      dup3\n        /* \"#utility.yul\":13518:13521   */\n      dup5\n        /* \"#utility.yul\":13514:13530   */\n      add\n        /* \"#utility.yul\":13507:13530   */\n      swap1\n      pop\n        /* \"#utility.yul\":13219:13536   */\n      swap4\n      swap3\n      pop\n      pop\n      pop\n      jump\t// out\n        /* \"#utility.yul\":13542:13906   */\n    tag_531:\n        /* \"#utility.yul\":13630:13633   */\n      0x00\n        /* \"#utility.yul\":13658:13697   */\n      tag_533\n        /* \"#utility.yul\":13691:13696   */\n      dup3\n        /* \"#utility.yul\":13658:13697   */\n      tag_534\n      jump\t// in\n    tag_533:\n        /* \"#utility.yul\":13713:13784   */\n      tag_535\n        /* \"#utility.yul\":13777:13783   */\n      dup2\n        /* \"#utility.yul\":13772:13775   */\n      dup6\n        /* \"#utility.yul\":13713:13784   */\n      tag_536\n      jump\t// in\n    tag_535:\n        /* \"#utility.yul\":13706:13784   */\n      swap4\n      pop\n        /* \"#utility.yul\":13793:13845   */\n      tag_537\n        /* \"#utility.yul\":13838:13844   */\n      dup2\n        /* \"#utility.yul\":13833:13836   */\n      dup6\n        /* \"#utility.yul\":13826:13830   */\n      0x20\n        /* \"#utility.yul\":13819:13824   */\n      dup7\n        /* \"#utility.yul\":13815:13831   */\n      add\n        /* \"#utility.yul\":13793:13845   */\n      tag_538\n      jump\t// in\n    tag_537:\n        /* \"#utility.yul\":13870:13899   */\n      tag_539\n        /* \"#utility.yul\":13892:13898   */\n      dup2\n        /* \"#utility.yul\":13870:13899   */\n      tag_525\n      jump\t// in\n    tag_539:\n        /* \"#utility.yul\":13865:13868   */\n      dup5\n        /* \"#utility.yul\":13861:13900   */\n      add\n        /* \"#utility.yul\":13854:13900   */\n      swap2\n      pop\n        /* \"#utility.yul\":13634:13906   */\n      pop\n        /* \"#utility.yul\":13542:13906   */\n      swap3\n      swap2\n      pop\n      pop\n      jump\t// out\n        /* \"#utility.yul\":13912:14289   */\n    tag_540:\n        /* \"#utility.yul\":14018:14021   */\n      0x00\n        /* \"#utility.yul\":14046:14085   */\n      tag_542\n        /* \"#utility.yul\":14079:14084   */\n      dup3\n        /* \"#utility.yul\":14046:14085   */\n      tag_534\n      jump\t// in\n    tag_542:\n        /* \"#utility.yul\":14101:14190   */\n      tag_543\n        /* \"#utility.yul\":14183:14189   */\n      dup2\n        /* \"#utility.yul\":14178:14181   */\n      dup6\n        /* \"#utility.yul\":14101:14190   */\n      tag_529\n      jump\t// in\n    tag_543:\n        /* \"#utility.yul\":14094:14190   */\n      swap4\n      pop\n        /* \"#utility.yul\":14199:14251   */\n      tag_544\n        /* \"#utility.yul\":14244:14250   */\n      dup2\n        /* \"#utility.yul\":14239:14242   */\n      dup6\n        /* \"#utility.yul\":14232:14236   */\n      0x20\n        /* \"#utility.yul\":14225:14230   */\n      dup7\n        /* \"#utility.yul\":14221:14237   */\n      add\n        /* \"#utility.yul\":14199:14251   */\n      tag_538\n      jump\t// in\n    tag_544:\n        /* \"#utility.yul\":14276:14282   */\n      dup1\n        /* \"#utility.yul\":14271:14274   */\n      dup5\n        /* \"#utility.yul\":14267:14283   */\n      add\n        /* \"#utility.yul\":14260:14283   */\n      swap2\n      pop\n        /* \"#utility.yul\":14022:14289   */\n      pop\n        /* \"#utility.yul\":13912:14289   */\n      swap3\n      swap2\n      pop\n      pop\n      jump\t// out\n        /* \"#utility.yul\":14319:15164   */\n    tag_545:\n        /* \"#utility.yul\":14422:14425   */\n      0x00\n        /* \"#utility.yul\":14459:14464   */\n      dup2\n        /* \"#utility.yul\":14453:14465   */\n      sload\n        /* \"#utility.yul\":14488:14524   */\n      tag_547\n        /* \"#utility.yul\":14514:14523   */\n      dup2\n        /* \"#utility.yul\":14488:14524   */\n      tag_73\n      jump\t// in\n    tag_547:\n        /* \"#utility.yul\":14540:14629   */\n      tag_548\n        /* \"#utility.yul\":14622:14628   */\n      dup2\n        /* \"#utility.yul\":14617:14620   */\n      dup7\n        /* \"#utility.yul\":14540:14629   */\n      tag_529\n      jump\t// in\n    tag_548:\n        /* \"#utility.yul\":14533:14629   */\n      swap5\n      pop\n        /* \"#utility.yul\":14660:14661   */\n      0x01\n        /* \"#utility.yul\":14649:14658   */\n      dup3\n        /* \"#utility.yul\":14645:14662   */\n      and\n        /* \"#utility.yul\":14676:14677   */\n      0x00\n        /* \"#utility.yul\":14671:14808   */\n      dup2\n      eq\n      tag_550\n      jumpi\n        /* \"#utility.yul\":14822:14823   */\n      0x01\n        /* \"#utility.yul\":14817:15158   */\n      dup2\n      eq\n      tag_551\n      jumpi\n        /* \"#utility.yul\":14638:15158   */\n      jump(tag_549)\n        /* \"#utility.yul\":14671:14808   */\n    tag_550:\n        /* \"#utility.yul\":14755:14759   */\n      0xff\n        /* \"#utility.yul\":14751:14760   */\n      not\n        /* \"#utility.yul\":14740:14749   */\n      dup4\n        /* \"#utility.yul\":14736:14761   */\n      and\n        /* \"#utility.yul\":14731:14734   */\n      dup7\n        /* \"#utility.yul\":14724:14762   */\n      mstore\n        /* \"#utility.yul\":14791:14797   */\n      dup2\n        /* \"#utility.yul\":14786:14789   */\n      dup7\n        /* \"#utility.yul\":14782:14798   */\n      add\n        /* \"#utility.yul\":14775:14798   */\n      swap4\n      pop\n        /* \"#utility.yul\":14671:14808   */\n      jump(tag_549)\n        /* \"#utility.yul\":14817:15158   */\n    tag_551:\n        /* \"#utility.yul\":14884:14922   */\n      tag_552\n        /* \"#utility.yul\":14916:14921   */\n      dup6\n        /* \"#utility.yul\":14884:14922   */\n      tag_553\n      jump\t// in\n    tag_552:\n        /* \"#utility.yul\":14944:14945   */\n      0x00\n        /* \"#utility.yul\":14958:15112   */\n    tag_554:\n        /* \"#utility.yul\":14972:14978   */\n      dup4\n        /* \"#utility.yul\":14969:14970   */\n      dup2\n        /* \"#utility.yul\":14966:14979   */\n      lt\n        /* \"#utility.yul\":14958:15112   */\n      iszero\n      tag_556\n      jumpi\n        /* \"#utility.yul\":15046:15053   */\n      dup2\n        /* \"#utility.yul\":15040:15054   */\n      sload\n        /* \"#utility.yul\":15036:15037   */\n      dup2\n        /* \"#utility.yul\":15031:15034   */\n      dup10\n        /* \"#utility.yul\":15027:15038   */\n      add\n        /* \"#utility.yul\":15020:15055   */\n      mstore\n        /* \"#utility.yul\":15096:15097   */\n      0x01\n        /* \"#utility.yul\":15087:15094   */\n      dup3\n        /* \"#utility.yul\":15083:15098   */\n      add\n        /* \"#utility.yul\":15072:15098   */\n      swap2\n      pop\n        /* \"#utility.yul\":14994:14998   */\n      0x20\n        /* \"#utility.yul\":14991:14992   */\n      dup2\n        /* \"#utility.yul\":14987:14999   */\n      add\n        /* \"#utility.yul\":14982:14999   */\n      swap1\n      pop\n        /* \"#utility.yul\":14958:15112   */\n      jump(tag_554)\n    tag_556:\n        /* \"#utility.yul\":15141:15147   */\n      dup4\n        /* \"#utility.yul\":15136:15139   */\n      dup9\n        /* \"#utility.yul\":15132:15148   */\n      add\n        /* \"#utility.yul\":15125:15148   */\n      swap6\n      pop\n        /* \"#utility.yul\":14824:15158   */\n      pop\n      pop\n        /* \"#utility.yul\":14638:15158   */\n    tag_549:\n      pop\n        /* \"#utility.yul\":14426:15164   */\n      pop\n      pop\n        /* \"#utility.yul\":14319:15164   */\n      swap3\n      swap2\n      pop\n      pop\n      jump\t// out\n        /* \"#utility.yul\":15170:15536   */\n    tag_557:\n        /* \"#utility.yul\":15312:15315   */\n      0x00\n        /* \"#utility.yul\":15333:15400   */\n      tag_559\n        /* \"#utility.yul\":15397:15399   */\n      0x12\n        /* \"#utility.yul\":15392:15395   */\n      dup4\n        /* \"#utility.yul\":15333:15400   */\n      tag_536\n      jump\t// in\n    tag_559:\n        /* \"#utility.yul\":15326:15400   */\n      swap2\n      pop\n        /* \"#utility.yul\":15409:15502   */\n      tag_560\n        /* \"#utility.yul\":15498:15501   */\n      dup3\n        /* \"#utility.yul\":15409:15502   */\n      tag_561\n      jump\t// in\n    tag_560:\n        /* \"#utility.yul\":15527:15529   */\n      0x20\n        /* \"#utility.yul\":15522:15525   */\n      dup3\n        /* \"#utility.yul\":15518:15530   */\n      add\n        /* \"#utility.yul\":15511:15530   */\n      swap1\n      pop\n        /* \"#utility.yul\":15170:15536   */\n      swap2\n      swap1\n      pop\n      jump\t// out\n        /* \"#utility.yul\":15542:15908   */\n    tag_562:\n        /* \"#utility.yul\":15684:15687   */\n      0x00\n        /* \"#utility.yul\":15705:15772   */\n      tag_564\n        /* \"#utility.yul\":15769:15771   */\n      0x2c\n        /* \"#utility.yul\":15764:15767   */\n      dup4\n        /* \"#utility.yul\":15705:15772   */\n      tag_536\n      jump\t// in\n    tag_564:\n        /* \"#utility.yul\":15698:15772   */\n      swap2\n      pop\n        /* \"#utility.yul\":15781:15874   */\n      tag_565\n        /* \"#utility.yul\":15870:15873   */\n      dup3\n        /* \"#utility.yul\":15781:15874   */\n      tag_566\n      jump\t// in\n    tag_565:\n        /* \"#utility.yul\":15899:15901   */\n      0x40\n        /* \"#utility.yul\":15894:15897   */\n      dup3\n        /* \"#utility.yul\":15890:15902   */\n      add\n        /* \"#utility.yul\":15883:15902   */\n      swap1\n      pop\n        /* \"#utility.yul\":15542:15908   */\n      swap2\n      swap1\n      pop\n      jump\t// out\n        /* \"#utility.yul\":15914:16280   */\n    tag_567:\n        /* \"#utility.yul\":16056:16059   */\n      0x00\n        /* \"#utility.yul\":16077:16144   */\n      tag_569\n        /* \"#utility.yul\":16141:16143   */\n      0x22\n        /* \"#utility.yul\":16136:16139   */\n      dup4\n        /* \"#utility.yul\":16077:16144   */\n      tag_536\n      jump\t// in\n    tag_569:\n        /* \"#utility.yul\":16070:16144   */\n      swap2\n      pop\n        /* \"#utility.yul\":16153:16246   */\n      tag_570\n        /* \"#utility.yul\":16242:16245   */\n      dup3\n        /* \"#utility.yul\":16153:16246   */\n      tag_571\n      jump\t// in\n    tag_570:\n        /* \"#utility.yul\":16271:16273   */\n      0x40\n        /* \"#utility.yul\":16266:16269   */\n      dup3\n        /* \"#utility.yul\":16262:16274   */\n      add\n        /* \"#utility.yul\":16255:16274   */\n      swap1\n      pop\n        /* \"#utility.yul\":15914:16280   */\n      swap2\n      swap1\n      pop\n      jump\t// out\n        /* \"#utility.yul\":16286:16652   */\n    tag_572:\n        /* \"#utility.yul\":16428:16431   */\n      0x00\n        /* \"#utility.yul\":16449:16516   */\n      tag_574\n        /* \"#utility.yul\":16513:16515   */\n      0x0d\n        /* \"#utility.yul\":16508:16511   */\n      dup4\n        /* \"#utility.yul\":16449:16516   */\n      tag_536\n      jump\t// in\n    tag_574:\n        /* \"#utility.yul\":16442:16516   */\n      swap2\n      pop\n        /* \"#utility.yul\":16525:16618   */\n      tag_575\n        /* \"#utility.yul\":16614:16617   */\n      dup3\n        /* \"#utility.yul\":16525:16618   */\n      tag_576\n      jump\t// in\n    tag_575:\n        /* \"#utility.yul\":16643:16645   */\n      0x20\n        /* \"#utility.yul\":16638:16641   */\n      dup3\n        /* \"#utility.yul\":16634:16646   */\n      add\n        /* \"#utility.yul\":16627:16646   */\n      swap1\n      pop\n        /* \"#utility.yul\":16286:16652   */\n      swap2\n      swap1\n      pop\n      jump\t// out\n        /* \"#utility.yul\":16658:17024   */\n    tag_577:\n        /* \"#utility.yul\":16800:16803   */\n      0x00\n        /* \"#utility.yul\":16821:16888   */\n      tag_579\n        /* \"#utility.yul\":16885:16887   */\n      0x14\n        /* \"#utility.yul\":16880:16883   */\n      dup4\n        /* \"#utility.yul\":16821:16888   */\n      tag_536\n      jump\t// in\n    tag_579:\n        /* \"#utility.yul\":16814:16888   */\n      swap2\n      pop\n        /* \"#utility.yul\":16897:16990   */\n      tag_580\n        /* \"#utility.yul\":16986:16989   */\n      dup3\n        /* \"#utility.yul\":16897:16990   */\n      tag_581\n      jump\t// in\n    tag_580:\n        /* \"#utility.yul\":17015:17017   */\n      0x20\n        /* \"#utility.yul\":17010:17013   */\n      dup3\n        /* \"#utility.yul\":17006:17018   */\n      add\n        /* \"#utility.yul\":16999:17018   */\n      swap1\n      pop\n        /* \"#utility.yul\":16658:17024   */\n      swap2\n      swap1\n      pop\n      jump\t// out\n        /* \"#utility.yul\":17030:17396   */\n    tag_582:\n        /* \"#utility.yul\":17172:17175   */\n      0x00\n        /* \"#utility.yul\":17193:17260   */\n      tag_584\n        /* \"#utility.yul\":17257:17259   */\n      0x23\n        /* \"#utility.yul\":17252:17255   */\n      dup4\n        /* \"#utility.yul\":17193:17260   */\n      tag_536\n      jump\t// in\n    tag_584:\n        /* \"#utility.yul\":17186:17260   */\n      swap2\n      pop\n        /* \"#utility.yul\":17269:17362   */\n      tag_585\n        /* \"#utility.yul\":17358:17361   */\n      dup3\n        /* \"#utility.yul\":17269:17362   */\n      tag_586\n      jump\t// in\n    tag_585:\n        /* \"#utility.yul\":17387:17389   */\n      0x40\n        /* \"#utility.yul\":17382:17385   */\n      dup3\n        /* \"#utility.yul\":17378:17390   */\n      add\n        /* \"#utility.yul\":17371:17390   */\n      swap1\n      pop\n        /* \"#utility.yul\":17030:17396   */\n      swap2\n      swap1\n      pop\n      jump\t// out\n        /* \"#utility.yul\":17402:17768   */\n    tag_587:\n        /* \"#utility.yul\":17544:17547   */\n      0x00\n        /* \"#utility.yul\":17565:17632   */\n      tag_589\n        /* \"#utility.yul\":17629:17631   */\n      0x1d\n        /* \"#utility.yul\":17624:17627   */\n      dup4\n        /* \"#utility.yul\":17565:17632   */\n      tag_536\n      jump\t// in\n    tag_589:\n        /* \"#utility.yul\":17558:17632   */\n      swap2\n      pop\n        /* \"#utility.yul\":17641:17734   */\n      tag_590\n        /* \"#utility.yul\":17730:17733   */\n      dup3\n        /* \"#utility.yul\":17641:17734   */\n      tag_591\n      jump\t// in\n    tag_590:\n        /* \"#utility.yul\":17759:17761   */\n      0x20\n        /* \"#utility.yul\":17754:17757   */\n      dup3\n        /* \"#utility.yul\":17750:17762   */\n      add\n        /* \"#utility.yul\":17743:17762   */\n      swap1\n      pop\n        /* \"#utility.yul\":17402:17768   */\n      swap2\n      swap1\n      pop\n      jump\t// out\n        /* \"#utility.yul\":17774:18140   */\n    tag_592:\n        /* \"#utility.yul\":17916:17919   */\n      0x00\n        /* \"#utility.yul\":17937:18004   */\n      tag_594\n        /* \"#utility.yul\":18001:18003   */\n      0x18\n        /* \"#utility.yul\":17996:17999   */\n      dup4\n        /* \"#utility.yul\":17937:18004   */\n      tag_536\n      jump\t// in\n    tag_594:\n        /* \"#utility.yul\":17930:18004   */\n      swap2\n      pop\n        /* \"#utility.yul\":18013:18106   */\n      tag_595\n        /* \"#utility.yul\":18102:18105   */\n      dup3\n        /* \"#utility.yul\":18013:18106   */\n      tag_596\n      jump\t// in\n    tag_595:\n        /* \"#utility.yul\":18131:18133   */\n      0x20\n        /* \"#utility.yul\":18126:18129   */\n      dup3\n        /* \"#utility.yul\":18122:18134   */\n      add\n        /* \"#utility.yul\":18115:18134   */\n      swap1\n      pop\n        /* \"#utility.yul\":17774:18140   */\n      swap2\n      swap1\n      pop\n      jump\t// out\n        /* \"#utility.yul\":18146:18512   */\n    tag_597:\n        /* \"#utility.yul\":18288:18291   */\n      0x00\n        /* \"#utility.yul\":18309:18376   */\n      tag_599\n        /* \"#utility.yul\":18373:18375   */\n      0x14\n        /* \"#utility.yul\":18368:18371   */\n      dup4\n        /* \"#utility.yul\":18309:18376   */\n      tag_536\n      jump\t// in\n    tag_599:\n        /* \"#utility.yul\":18302:18376   */\n      swap2\n      pop\n        /* \"#utility.yul\":18385:18478   */\n      tag_600\n        /* \"#utility.yul\":18474:18477   */\n      dup3\n        /* \"#utility.yul\":18385:18478   */\n      tag_601\n      jump\t// in\n    tag_600:\n        /* \"#utility.yul\":18503:18505   */\n      0x20\n        /* \"#utility.yul\":18498:18501   */\n      dup3\n        /* \"#utility.yul\":18494:18506   */\n      add\n        /* \"#utility.yul\":18487:18506   */\n      swap1\n      pop\n        /* \"#utility.yul\":18146:18512   */\n      swap2\n      swap1\n      pop\n      jump\t// out\n        /* \"#utility.yul\":18518:18884   */\n    tag_602:\n        /* \"#utility.yul\":18660:18663   */\n      0x00\n        /* \"#utility.yul\":18681:18748   */\n      tag_604\n        /* \"#utility.yul\":18745:18747   */\n      0x23\n        /* \"#utility.yul\":18740:18743   */\n      dup4\n        /* \"#utility.yul\":18681:18748   */\n      tag_536\n      jump\t// in\n    tag_604:\n        /* \"#utility.yul\":18674:18748   */\n      swap2\n      pop\n        /* \"#utility.yul\":18757:18850   */\n      tag_605\n        /* \"#utility.yul\":18846:18849   */\n      dup3\n        /* \"#utility.yul\":18757:18850   */\n      tag_606\n      jump\t// in\n    tag_605:\n        /* \"#utility.yul\":18875:18877   */\n      0x40\n        /* \"#utility.yul\":18870:18873   */\n      dup3\n        /* \"#utility.yul\":18866:18878   */\n      add\n        /* \"#utility.yul\":18859:18878   */\n      swap1\n      pop\n        /* \"#utility.yul\":18518:18884   */\n      swap2\n      swap1\n      pop\n      jump\t// out\n        /* \"#utility.yul\":18890:19256   */\n    tag_607:\n        /* \"#utility.yul\":19032:19035   */\n      0x00\n        /* \"#utility.yul\":19053:19120   */\n      tag_609\n        /* \"#utility.yul\":19117:19119   */\n      0x12\n        /* \"#utility.yul\":19112:19115   */\n      dup4\n        /* \"#utility.yul\":19053:19120   */\n      tag_536\n      jump\t// in\n    tag_609:\n        /* \"#utility.yul\":19046:19120   */\n      swap2\n      pop\n        /* \"#utility.yul\":19129:19222   */\n      tag_610\n        /* \"#utility.yul\":19218:19221   */\n      dup3\n        /* \"#utility.yul\":19129:19222   */\n      tag_611\n      jump\t// in\n    tag_610:\n        /* \"#utility.yul\":19247:19249   */\n      0x20\n        /* \"#utility.yul\":19242:19245   */\n      dup3\n        /* \"#utility.yul\":19238:19250   */\n      add\n        /* \"#utility.yul\":19231:19250   */\n      swap1\n      pop\n        /* \"#utility.yul\":18890:19256   */\n      swap2\n      swap1\n      pop\n      jump\t// out\n        /* \"#utility.yul\":19262:19628   */\n    tag_612:\n        /* \"#utility.yul\":19404:19407   */\n      0x00\n        /* \"#utility.yul\":19425:19492   */\n      tag_614\n        /* \"#utility.yul\":19489:19491   */\n      0x23\n        /* \"#utility.yul\":19484:19487   */\n      dup4\n        /* \"#utility.yul\":19425:19492   */\n      tag_536\n      jump\t// in\n    tag_614:\n        /* \"#utility.yul\":19418:19492   */\n      swap2\n      pop\n        /* \"#utility.yul\":19501:19594   */\n      tag_615\n        /* \"#utility.yul\":19590:19593   */\n      dup3\n        /* \"#utility.yul\":19501:19594   */\n      tag_616\n      jump\t// in\n    tag_615:\n        /* \"#utility.yul\":19619:19621   */\n      0x40\n        /* \"#utility.yul\":19614:19617   */\n      dup3\n        /* \"#utility.yul\":19610:19622   */\n      add\n        /* \"#utility.yul\":19603:19622   */\n      swap1\n      pop\n        /* \"#utility.yul\":19262:19628   */\n      swap2\n      swap1\n      pop\n      jump\t// out\n        /* \"#utility.yul\":19634:20000   */\n    tag_617:\n        /* \"#utility.yul\":19776:19779   */\n      0x00\n        /* \"#utility.yul\":19797:19864   */\n      tag_619\n        /* \"#utility.yul\":19861:19863   */\n      0x2a\n        /* \"#utility.yul\":19856:19859   */\n      dup4\n        /* \"#utility.yul\":19797:19864   */\n      tag_536\n      jump\t// in\n    tag_619:\n        /* \"#utility.yul\":19790:19864   */\n      swap2\n      pop\n        /* \"#utility.yul\":19873:19966   */\n      tag_620\n        /* \"#utility.yul\":19962:19965   */\n      dup3\n        /* \"#utility.yul\":19873:19966   */\n      tag_621\n      jump\t// in\n    tag_620:\n        /* \"#utility.yul\":19991:19993   */\n      0x40\n        /* \"#utility.yul\":19986:19989   */\n      dup3\n        /* \"#utility.yul\":19982:19994   */\n      add\n        /* \"#utility.yul\":19975:19994   */\n      swap1\n      pop\n        /* \"#utility.yul\":19634:20000   */\n      swap2\n      swap1\n      pop\n      jump\t// out\n        /* \"#utility.yul\":20006:20372   */\n    tag_622:\n        /* \"#utility.yul\":20148:20151   */\n      0x00\n        /* \"#utility.yul\":20169:20236   */\n      tag_624\n        /* \"#utility.yul\":20233:20235   */\n      0x21\n        /* \"#utility.yul\":20228:20231   */\n      dup4\n        /* \"#utility.yul\":20169:20236   */\n      tag_536\n      jump\t// in\n    tag_624:\n        /* \"#utility.yul\":20162:20236   */\n      swap2\n      pop\n        /* \"#utility.yul\":20245:20338   */\n      tag_625\n        /* \"#utility.yul\":20334:20337   */\n      dup3\n        /* \"#utility.yul\":20245:20338   */\n      tag_626\n      jump\t// in\n    tag_625:\n        /* \"#utility.yul\":20363:20365   */\n      0x40\n        /* \"#utility.yul\":20358:20361   */\n      dup3\n        /* \"#utility.yul\":20354:20366   */\n      add\n        /* \"#utility.yul\":20347:20366   */\n      swap1\n      pop\n        /* \"#utility.yul\":20006:20372   */\n      swap2\n      swap1\n      pop\n      jump\t// out\n        /* \"#utility.yul\":20378:20744   */\n    tag_627:\n        /* \"#utility.yul\":20520:20523   */\n      0x00\n        /* \"#utility.yul\":20541:20608   */\n      tag_629\n        /* \"#utility.yul\":20605:20607   */\n      0x24\n        /* \"#utility.yul\":20600:20603   */\n      dup4\n        /* \"#utility.yul\":20541:20608   */\n      tag_536\n      jump\t// in\n    tag_629:\n        /* \"#utility.yul\":20534:20608   */\n      swap2\n      pop\n        /* \"#utility.yul\":20617:20710   */\n      tag_630\n        /* \"#utility.yul\":20706:20709   */\n      dup3\n        /* \"#utility.yul\":20617:20710   */\n      tag_631\n      jump\t// in\n    tag_630:\n        /* \"#utility.yul\":20735:20737   */\n      0x40\n        /* \"#utility.yul\":20730:20733   */\n      dup3\n        /* \"#utility.yul\":20726:20738   */\n      add\n        /* \"#utility.yul\":20719:20738   */\n      swap1\n      pop\n        /* \"#utility.yul\":20378:20744   */\n      swap2\n      swap1\n      pop\n      jump\t// out\n        /* \"#utility.yul\":20750:21116   */\n    tag_632:\n        /* \"#utility.yul\":20892:20895   */\n      0x00\n        /* \"#utility.yul\":20913:20980   */\n      tag_634\n        /* \"#utility.yul\":20977:20979   */\n      0x0d\n        /* \"#utility.yul\":20972:20975   */\n      dup4\n        /* \"#utility.yul\":20913:20980   */\n      tag_536\n      jump\t// in\n    tag_634:\n        /* \"#utility.yul\":20906:20980   */\n      swap2\n      pop\n        /* \"#utility.yul\":20989:21082   */\n      tag_635\n        /* \"#utility.yul\":21078:21081   */\n      dup3\n        /* \"#utility.yul\":20989:21082   */\n      tag_636\n      jump\t// in\n    tag_635:\n        /* \"#utility.yul\":21107:21109   */\n      0x20\n        /* \"#utility.yul\":21102:21105   */\n      dup3\n        /* \"#utility.yul\":21098:21110   */\n      add\n        /* \"#utility.yul\":21091:21110   */\n      swap1\n      pop\n        /* \"#utility.yul\":20750:21116   */\n      swap2\n      swap1\n      pop\n      jump\t// out\n        /* \"#utility.yul\":21122:21487   */\n    tag_637:\n        /* \"#utility.yul\":21264:21267   */\n      0x00\n        /* \"#utility.yul\":21285:21351   */\n      tag_639\n        /* \"#utility.yul\":21349:21350   */\n      0x04\n        /* \"#utility.yul\":21344:21347   */\n      dup4\n        /* \"#utility.yul\":21285:21351   */\n      tag_536\n      jump\t// in\n    tag_639:\n        /* \"#utility.yul\":21278:21351   */\n      swap2\n      pop\n        /* \"#utility.yul\":21360:21453   */\n      tag_640\n        /* \"#utility.yul\":21449:21452   */\n      dup3\n        /* \"#utility.yul\":21360:21453   */\n      tag_641\n      jump\t// in\n    tag_640:\n        /* \"#utility.yul\":21478:21480   */\n      0x20\n        /* \"#utility.yul\":21473:21476   */\n      dup3\n        /* \"#utility.yul\":21469:21481   */\n      add\n        /* \"#utility.yul\":21462:21481   */\n      swap1\n      pop\n        /* \"#utility.yul\":21122:21487   */\n      swap2\n      swap1\n      pop\n      jump\t// out\n        /* \"#utility.yul\":21493:21859   */\n    tag_642:\n        /* \"#utility.yul\":21635:21638   */\n      0x00\n        /* \"#utility.yul\":21656:21723   */\n      tag_644\n        /* \"#utility.yul\":21720:21722   */\n      0x1d\n        /* \"#utility.yul\":21715:21718   */\n      dup4\n        /* \"#utility.yul\":21656:21723   */\n      tag_536\n      jump\t// in\n    tag_644:\n        /* \"#utility.yul\":21649:21723   */\n      swap2\n      pop\n        /* \"#utility.yul\":21732:21825   */\n      tag_645\n        /* \"#utility.yul\":21821:21824   */\n      dup3\n        /* \"#utility.yul\":21732:21825   */\n      tag_646\n      jump\t// in\n    tag_645:\n        /* \"#utility.yul\":21850:21852   */\n      0x20\n        /* \"#utility.yul\":21845:21848   */\n      dup3\n        /* \"#utility.yul\":21841:21853   */\n      add\n        /* \"#utility.yul\":21834:21853   */\n      swap1\n      pop\n        /* \"#utility.yul\":21493:21859   */\n      swap2\n      swap1\n      pop\n      jump\t// out\n        /* \"#utility.yul\":21865:22230   */\n    tag_647:\n        /* \"#utility.yul\":22007:22010   */\n      0x00\n        /* \"#utility.yul\":22028:22094   */\n      tag_649\n        /* \"#utility.yul\":22092:22093   */\n      0x04\n        /* \"#utility.yul\":22087:22090   */\n      dup4\n        /* \"#utility.yul\":22028:22094   */\n      tag_536\n      jump\t// in\n    tag_649:\n        /* \"#utility.yul\":22021:22094   */\n      swap2\n      pop\n        /* \"#utility.yul\":22103:22196   */\n      tag_650\n        /* \"#utility.yul\":22192:22195   */\n      dup3\n        /* \"#utility.yul\":22103:22196   */\n      tag_651\n      jump\t// in\n    tag_650:\n        /* \"#utility.yul\":22221:22223   */\n      0x20\n        /* \"#utility.yul\":22216:22219   */\n      dup3\n        /* \"#utility.yul\":22212:22224   */\n      add\n        /* \"#utility.yul\":22205:22224   */\n      swap1\n      pop\n        /* \"#utility.yul\":21865:22230   */\n      swap2\n      swap1\n      pop\n      jump\t// out\n        /* \"#utility.yul\":22236:22601   */\n    tag_652:\n        /* \"#utility.yul\":22378:22381   */\n      0x00\n        /* \"#utility.yul\":22399:22465   */\n      tag_654\n        /* \"#utility.yul\":22463:22464   */\n      0x09\n        /* \"#utility.yul\":22458:22461   */\n      dup4\n        /* \"#utility.yul\":22399:22465   */\n      tag_536\n      jump\t// in\n    tag_654:\n        /* \"#utility.yul\":22392:22465   */\n      swap2\n      pop\n        /* \"#utility.yul\":22474:22567   */\n      tag_655\n        /* \"#utility.yul\":22563:22566   */\n      dup3\n        /* \"#utility.yul\":22474:22567   */\n      tag_656\n      jump\t// in\n    tag_655:\n        /* \"#utility.yul\":22592:22594   */\n      0x20\n        /* \"#utility.yul\":22587:22590   */\n      dup3\n        /* \"#utility.yul\":22583:22595   */\n      add\n        /* \"#utility.yul\":22576:22595   */\n      swap1\n      pop\n        /* \"#utility.yul\":22236:22601   */\n      swap2\n      swap1\n      pop\n      jump\t// out\n        /* \"#utility.yul\":22607:22973   */\n    tag_657:\n        /* \"#utility.yul\":22749:22752   */\n      0x00\n        /* \"#utility.yul\":22770:22837   */\n      tag_659\n        /* \"#utility.yul\":22834:22836   */\n      0x1f\n        /* \"#utility.yul\":22829:22832   */\n      dup4\n        /* \"#utility.yul\":22770:22837   */\n      tag_536\n      jump\t// in\n    tag_659:\n        /* \"#utility.yul\":22763:22837   */\n      swap2\n      pop\n        /* \"#utility.yul\":22846:22939   */\n      tag_660\n        /* \"#utility.yul\":22935:22938   */\n      dup3\n        /* \"#utility.yul\":22846:22939   */\n      tag_661\n      jump\t// in\n    tag_660:\n        /* \"#utility.yul\":22964:22966   */\n      0x20\n        /* \"#utility.yul\":22959:22962   */\n      dup3\n        /* \"#utility.yul\":22955:22967   */\n      add\n        /* \"#utility.yul\":22948:22967   */\n      swap1\n      pop\n        /* \"#utility.yul\":22607:22973   */\n      swap2\n      swap1\n      pop\n      jump\t// out\n        /* \"#utility.yul\":22979:23097   */\n    tag_662:\n        /* \"#utility.yul\":23066:23090   */\n      tag_664\n        /* \"#utility.yul\":23084:23089   */\n      dup2\n        /* \"#utility.yul\":23066:23090   */\n      tag_665\n      jump\t// in\n    tag_664:\n        /* \"#utility.yul\":23061:23064   */\n      dup3\n        /* \"#utility.yul\":23054:23091   */\n      mstore\n        /* \"#utility.yul\":22979:23097   */\n      pop\n      pop\n      jump\t// out\n        /* \"#utility.yul\":23103:23218   */\n    tag_666:\n        /* \"#utility.yul\":23188:23211   */\n      tag_668\n        /* \"#utility.yul\":23205:23210   */\n      dup2\n        /* \"#utility.yul\":23188:23211   */\n      tag_669\n      jump\t// in\n    tag_668:\n        /* \"#utility.yul\":23183:23186   */\n      dup3\n        /* \"#utility.yul\":23176:23212   */\n      mstore\n        /* \"#utility.yul\":23103:23218   */\n      pop\n      pop\n      jump\t// out\n        /* \"#utility.yul\":23224:23342   */\n    tag_670:\n        /* \"#utility.yul\":23311:23335   */\n      tag_672\n        /* \"#utility.yul\":23329:23334   */\n      dup2\n        /* \"#utility.yul\":23311:23335   */\n      tag_673\n      jump\t// in\n    tag_672:\n        /* \"#utility.yul\":23306:23309   */\n      dup3\n        /* \"#utility.yul\":23299:23336   */\n      mstore\n        /* \"#utility.yul\":23224:23342   */\n      pop\n      pop\n      jump\t// out\n        /* \"#utility.yul\":23348:23460   */\n    tag_674:\n        /* \"#utility.yul\":23431:23453   */\n      tag_676\n        /* \"#utility.yul\":23447:23452   */\n      dup2\n        /* \"#utility.yul\":23431:23453   */\n      tag_677\n      jump\t// in\n    tag_676:\n        /* \"#utility.yul\":23426:23429   */\n      dup3\n        /* \"#utility.yul\":23419:23454   */\n      mstore\n        /* \"#utility.yul\":23348:23460   */\n      pop\n      pop\n      jump\t// out\n        /* \"#utility.yul\":23466:23761   */\n    tag_199:\n        /* \"#utility.yul\":23608:23611   */\n      0x00\n        /* \"#utility.yul\":23630:23735   */\n      tag_679\n        /* \"#utility.yul\":23731:23734   */\n      dup3\n        /* \"#utility.yul\":23722:23728   */\n      dup5\n        /* \"#utility.yul\":23714:23720   */\n      dup7\n        /* \"#utility.yul\":23630:23735   */\n      tag_526\n      jump\t// in\n    tag_679:\n        /* \"#utility.yul\":23623:23735   */\n      swap2\n      pop\n        /* \"#utility.yul\":23752:23755   */\n      dup2\n        /* \"#utility.yul\":23745:23755   */\n      swap1\n      pop\n        /* \"#utility.yul\":23466:23761   */\n      swap4\n      swap3\n      pop\n      pop\n      pop\n      jump\t// out\n        /* \"#utility.yul\":23767:24042   */\n    tag_261:\n        /* \"#utility.yul\":23899:23902   */\n      0x00\n        /* \"#utility.yul\":23921:24016   */\n      tag_681\n        /* \"#utility.yul\":24012:24015   */\n      dup3\n        /* \"#utility.yul\":24003:24009   */\n      dup5\n        /* \"#utility.yul\":23921:24016   */\n      tag_540\n      jump\t// in\n    tag_681:\n        /* \"#utility.yul\":23914:24016   */\n      swap2\n      pop\n        /* \"#utility.yul\":24033:24036   */\n      dup2\n        /* \"#utility.yul\":24026:24036   */\n      swap1\n      pop\n        /* \"#utility.yul\":23767:24042   */\n      swap3\n      swap2\n      pop\n      pop\n      jump\t// out\n        /* \"#utility.yul\":24048:24317   */\n    tag_182:\n        /* \"#utility.yul\":24177:24180   */\n      0x00\n        /* \"#utility.yul\":24199:24291   */\n      tag_683\n        /* \"#utility.yul\":24287:24290   */\n      dup3\n        /* \"#utility.yul\":24278:24284   */\n      dup5\n        /* \"#utility.yul\":24199:24291   */\n      tag_545\n      jump\t// in\n    tag_683:\n        /* \"#utility.yul\":24192:24291   */\n      swap2\n      pop\n        /* \"#utility.yul\":24308:24311   */\n      dup2\n        /* \"#utility.yul\":24301:24311   */\n      swap1\n      pop\n        /* \"#utility.yul\":24048:24317   */\n      swap3\n      swap2\n      pop\n      pop\n      jump\t// out\n        /* \"#utility.yul\":24323:25288   */\n    tag_21:\n        /* \"#utility.yul\":24598:24602   */\n      0x00\n        /* \"#utility.yul\":24636:24639   */\n      0xe0\n        /* \"#utility.yul\":24625:24634   */\n      dup3\n        /* \"#utility.yul\":24621:24640   */\n      add\n        /* \"#utility.yul\":24613:24640   */\n      swap1\n      pop\n        /* \"#utility.yul\":24650:24721   */\n      tag_685\n        /* \"#utility.yul\":24718:24719   */\n      0x00\n        /* \"#utility.yul\":24707:24716   */\n      dup4\n        /* \"#utility.yul\":24703:24720   */\n      add\n        /* \"#utility.yul\":24694:24700   */\n      dup11\n        /* \"#utility.yul\":24650:24721   */\n      tag_485\n      jump\t// in\n    tag_685:\n        /* \"#utility.yul\":24731:24799   */\n      tag_686\n        /* \"#utility.yul\":24795:24797   */\n      0x20\n        /* \"#utility.yul\":24784:24793   */\n      dup4\n        /* \"#utility.yul\":24780:24798   */\n      add\n        /* \"#utility.yul\":24771:24777   */\n      dup10\n        /* \"#utility.yul\":24731:24799   */\n      tag_674\n      jump\t// in\n    tag_686:\n        /* \"#utility.yul\":24846:24855   */\n      dup2\n        /* \"#utility.yul\":24840:24844   */\n      dup2\n        /* \"#utility.yul\":24836:24856   */\n      sub\n        /* \"#utility.yul\":24831:24833   */\n      0x40\n        /* \"#utility.yul\":24820:24829   */\n      dup4\n        /* \"#utility.yul\":24816:24834   */\n      add\n        /* \"#utility.yul\":24809:24857   */\n      mstore\n        /* \"#utility.yul\":24874:24952   */\n      tag_687\n        /* \"#utility.yul\":24947:24951   */\n      dup2\n        /* \"#utility.yul\":24938:24944   */\n      dup9\n        /* \"#utility.yul\":24874:24952   */\n      tag_531\n      jump\t// in\n    tag_687:\n        /* \"#utility.yul\":24866:24952   */\n      swap1\n      pop\n        /* \"#utility.yul\":24962:25034   */\n      tag_688\n        /* \"#utility.yul\":25030:25032   */\n      0x60\n        /* \"#utility.yul\":25019:25028   */\n      dup4\n        /* \"#utility.yul\":25015:25033   */\n      add\n        /* \"#utility.yul\":25006:25012   */\n      dup8\n        /* \"#utility.yul\":24962:25034   */\n      tag_670\n      jump\t// in\n    tag_688:\n        /* \"#utility.yul\":25044:25117   */\n      tag_689\n        /* \"#utility.yul\":25112:25115   */\n      0x80\n        /* \"#utility.yul\":25101:25110   */\n      dup4\n        /* \"#utility.yul\":25097:25116   */\n      add\n        /* \"#utility.yul\":25088:25094   */\n      dup7\n        /* \"#utility.yul\":25044:25117   */\n      tag_670\n      jump\t// in\n    tag_689:\n        /* \"#utility.yul\":25127:25198   */\n      tag_690\n        /* \"#utility.yul\":25193:25196   */\n      0xa0\n        /* \"#utility.yul\":25182:25191   */\n      dup4\n        /* \"#utility.yul\":25178:25197   */\n      add\n        /* \"#utility.yul\":25169:25175   */\n      dup6\n        /* \"#utility.yul\":25127:25198   */\n      tag_666\n      jump\t// in\n    tag_690:\n        /* \"#utility.yul\":25208:25281   */\n      tag_691\n        /* \"#utility.yul\":25276:25279   */\n      0xc0\n        /* \"#utility.yul\":25265:25274   */\n      dup4\n        /* \"#utility.yul\":25261:25280   */\n      add\n        /* \"#utility.yul\":25252:25258   */\n      dup5\n        /* \"#utility.yul\":25208:25281   */\n      tag_670\n      jump\t// in\n    tag_691:\n        /* \"#utility.yul\":24323:25288   */\n      swap9\n      swap8\n      pop\n      pop\n      pop\n      pop\n      pop\n      pop\n      pop\n      pop\n      jump\t// out\n        /* \"#utility.yul\":25294:25504   */\n    tag_47:\n        /* \"#utility.yul\":25381:25385   */\n      0x00\n        /* \"#utility.yul\":25419:25421   */\n      0x20\n        /* \"#utility.yul\":25408:25417   */\n      dup3\n        /* \"#utility.yul\":25404:25422   */\n      add\n        /* \"#utility.yul\":25396:25422   */\n      swap1\n      pop\n        /* \"#utility.yul\":25432:25497   */\n      tag_693\n        /* \"#utility.yul\":25494:25495   */\n      0x00\n        /* \"#utility.yul\":25483:25492   */\n      dup4\n        /* \"#utility.yul\":25479:25496   */\n      add\n        /* \"#utility.yul\":25470:25476   */\n      dup5\n        /* \"#utility.yul\":25432:25497   */\n      tag_516\n      jump\t// in\n    tag_693:\n        /* \"#utility.yul\":25294:25504   */\n      swap3\n      swap2\n      pop\n      pop\n      jump\t// out\n        /* \"#utility.yul\":25510:25823   */\n    tag_25:\n        /* \"#utility.yul\":25623:25627   */\n      0x00\n        /* \"#utility.yul\":25661:25663   */\n      0x20\n        /* \"#utility.yul\":25650:25659   */\n      dup3\n        /* \"#utility.yul\":25646:25664   */\n      add\n        /* \"#utility.yul\":25638:25664   */\n      swap1\n      pop\n        /* \"#utility.yul\":25710:25719   */\n      dup2\n        /* \"#utility.yul\":25704:25708   */\n      dup2\n        /* \"#utility.yul\":25700:25720   */\n      sub\n        /* \"#utility.yul\":25696:25697   */\n      0x00\n        /* \"#utility.yul\":25685:25694   */\n      dup4\n        /* \"#utility.yul\":25681:25698   */\n      add\n        /* \"#utility.yul\":25674:25721   */\n      mstore\n        /* \"#utility.yul\":25738:25816   */\n      tag_695\n        /* \"#utility.yul\":25811:25815   */\n      dup2\n        /* \"#utility.yul\":25802:25808   */\n      dup5\n        /* \"#utility.yul\":25738:25816   */\n      tag_531\n      jump\t// in\n    tag_695:\n        /* \"#utility.yul\":25730:25816   */\n      swap1\n      pop\n        /* \"#utility.yul\":25510:25823   */\n      swap3\n      swap2\n      pop\n      pop\n      jump\t// out\n        /* \"#utility.yul\":25829:26248   */\n    tag_227:\n        /* \"#utility.yul\":25995:25999   */\n      0x00\n        /* \"#utility.yul\":26033:26035   */\n      0x20\n        /* \"#utility.yul\":26022:26031   */\n      dup3\n        /* \"#utility.yul\":26018:26036   */\n      add\n        /* \"#utility.yul\":26010:26036   */\n      swap1\n      pop\n        /* \"#utility.yul\":26082:26091   */\n      dup2\n        /* \"#utility.yul\":26076:26080   */\n      dup2\n        /* \"#utility.yul\":26072:26092   */\n      sub\n        /* \"#utility.yul\":26068:26069   */\n      0x00\n        /* \"#utility.yul\":26057:26066   */\n      dup4\n        /* \"#utility.yul\":26053:26070   */\n      add\n        /* \"#utility.yul\":26046:26093   */\n      mstore\n        /* \"#utility.yul\":26110:26241   */\n      tag_697\n        /* \"#utility.yul\":26236:26240   */\n      dup2\n        /* \"#utility.yul\":26110:26241   */\n      tag_557\n      jump\t// in\n    tag_697:\n        /* \"#utility.yul\":26102:26241   */\n      swap1\n      pop\n        /* \"#utility.yul\":25829:26248   */\n      swap2\n      swap1\n      pop\n      jump\t// out\n        /* \"#utility.yul\":26254:26673   */\n    tag_92:\n        /* \"#utility.yul\":26420:26424   */\n      0x00\n        /* \"#utility.yul\":26458:26460   */\n      0x20\n        /* \"#utility.yul\":26447:26456   */\n      dup3\n        /* \"#utility.yul\":26443:26461   */\n      add\n        /* \"#utility.yul\":26435:26461   */\n      swap1\n      pop\n        /* \"#utility.yul\":26507:26516   */\n      dup2\n        /* \"#utility.yul\":26501:26505   */\n      dup2\n        /* \"#utility.yul\":26497:26517   */\n      sub\n        /* \"#utility.yul\":26493:26494   */\n      0x00\n        /* \"#utility.yul\":26482:26491   */\n      dup4\n        /* \"#utility.yul\":26478:26495   */\n      add\n        /* \"#utility.yul\":26471:26518   */\n      mstore\n        /* \"#utility.yul\":26535:26666   */\n      tag_699\n        /* \"#utility.yul\":26661:26665   */\n      dup2\n        /* \"#utility.yul\":26535:26666   */\n      tag_562\n      jump\t// in\n    tag_699:\n        /* \"#utility.yul\":26527:26666   */\n      swap1\n      pop\n        /* \"#utility.yul\":26254:26673   */\n      swap2\n      swap1\n      pop\n      jump\t// out\n        /* \"#utility.yul\":26679:27098   */\n    tag_308:\n        /* \"#utility.yul\":26845:26849   */\n      0x00\n        /* \"#utility.yul\":26883:26885   */\n      0x20\n        /* \"#utility.yul\":26872:26881   */\n      dup3\n        /* \"#utility.yul\":26868:26886   */\n      add\n        /* \"#utility.yul\":26860:26886   */\n      swap1\n      pop\n        /* \"#utility.yul\":26932:26941   */\n      dup2\n        /* \"#utility.yul\":26926:26930   */\n      dup2\n        /* \"#utility.yul\":26922:26942   */\n      sub\n        /* \"#utility.yul\":26918:26919   */\n      0x00\n        /* \"#utility.yul\":26907:26916   */\n      dup4\n        /* \"#utility.yul\":26903:26920   */\n      add\n        /* \"#utility.yul\":26896:26943   */\n      mstore\n        /* \"#utility.yul\":26960:27091   */\n      tag_701\n        /* \"#utility.yul\":27086:27090   */\n      dup2\n        /* \"#utility.yul\":26960:27091   */\n      tag_567\n      jump\t// in\n    tag_701:\n        /* \"#utility.yul\":26952:27091   */\n      swap1\n      pop\n        /* \"#utility.yul\":26679:27098   */\n      swap2\n      swap1\n      pop\n      jump\t// out\n        /* \"#utility.yul\":27104:27523   */\n    tag_134:\n        /* \"#utility.yul\":27270:27274   */\n      0x00\n        /* \"#utility.yul\":27308:27310   */\n      0x20\n        /* \"#utility.yul\":27297:27306   */\n      dup3\n        /* \"#utility.yul\":27293:27311   */\n      add\n        /* \"#utility.yul\":27285:27311   */\n      swap1\n      pop\n        /* \"#utility.yul\":27357:27366   */\n      dup2\n        /* \"#utility.yul\":27351:27355   */\n      dup2\n        /* \"#utility.yul\":27347:27367   */\n      sub\n        /* \"#utility.yul\":27343:27344   */\n      0x00\n        /* \"#utility.yul\":27332:27341   */\n      dup4\n        /* \"#utility.yul\":27328:27345   */\n      add\n        /* \"#utility.yul\":27321:27368   */\n      mstore\n        /* \"#utility.yul\":27385:27516   */\n      tag_703\n        /* \"#utility.yul\":27511:27515   */\n      dup2\n        /* \"#utility.yul\":27385:27516   */\n      tag_572\n      jump\t// in\n    tag_703:\n        /* \"#utility.yul\":27377:27516   */\n      swap1\n      pop\n        /* \"#utility.yul\":27104:27523   */\n      swap2\n      swap1\n      pop\n      jump\t// out\n        /* \"#utility.yul\":27529:27948   */\n    tag_180:\n        /* \"#utility.yul\":27695:27699   */\n      0x00\n        /* \"#utility.yul\":27733:27735   */\n      0x20\n        /* \"#utility.yul\":27722:27731   */\n      dup3\n        /* \"#utility.yul\":27718:27736   */\n      add\n        /* \"#utility.yul\":27710:27736   */\n      swap1\n      pop\n        /* \"#utility.yul\":27782:27791   */\n      dup2\n        /* \"#utility.yul\":27776:27780   */\n      dup2\n        /* \"#utility.yul\":27772:27792   */\n      sub\n        /* \"#utility.yul\":27768:27769   */\n      0x00\n        /* \"#utility.yul\":27757:27766   */\n      dup4\n        /* \"#utility.yul\":27753:27770   */\n      add\n        /* \"#utility.yul\":27746:27793   */\n      mstore\n        /* \"#utility.yul\":27810:27941   */\n      tag_705\n        /* \"#utility.yul\":27936:27940   */\n      dup2\n        /* \"#utility.yul\":27810:27941   */\n      tag_577\n      jump\t// in\n    tag_705:\n        /* \"#utility.yul\":27802:27941   */\n      swap1\n      pop\n        /* \"#utility.yul\":27529:27948   */\n      swap2\n      swap1\n      pop\n      jump\t// out\n        /* \"#utility.yul\":27954:28373   */\n    tag_131:\n        /* \"#utility.yul\":28120:28124   */\n      0x00\n        /* \"#utility.yul\":28158:28160   */\n      0x20\n        /* \"#utility.yul\":28147:28156   */\n      dup3\n        /* \"#utility.yul\":28143:28161   */\n      add\n        /* \"#utility.yul\":28135:28161   */\n      swap1\n      pop\n        /* \"#utility.yul\":28207:28216   */\n      dup2\n        /* \"#utility.yul\":28201:28205   */\n      dup2\n        /* \"#utility.yul\":28197:28217   */\n      sub\n        /* \"#utility.yul\":28193:28194   */\n      0x00\n        /* \"#utility.yul\":28182:28191   */\n      dup4\n        /* \"#utility.yul\":28178:28195   */\n      add\n        /* \"#utility.yul\":28171:28218   */\n      mstore\n        /* \"#utility.yul\":28235:28366   */\n      tag_707\n        /* \"#utility.yul\":28361:28365   */\n      dup2\n        /* \"#utility.yul\":28235:28366   */\n      tag_582\n      jump\t// in\n    tag_707:\n        /* \"#utility.yul\":28227:28366   */\n      swap1\n      pop\n        /* \"#utility.yul\":27954:28373   */\n      swap2\n      swap1\n      pop\n      jump\t// out\n        /* \"#utility.yul\":28379:28798   */\n    tag_264:\n        /* \"#utility.yul\":28545:28549   */\n      0x00\n        /* \"#utility.yul\":28583:28585   */\n      0x20\n        /* \"#utility.yul\":28572:28581   */\n      dup3\n        /* \"#utility.yul\":28568:28586   */\n      add\n        /* \"#utility.yul\":28560:28586   */\n      swap1\n      pop\n        /* \"#utility.yul\":28632:28641   */\n      dup2\n        /* \"#utility.yul\":28626:28630   */\n      dup2\n        /* \"#utility.yul\":28622:28642   */\n      sub\n        /* \"#utility.yul\":28618:28619   */\n      0x00\n        /* \"#utility.yul\":28607:28616   */\n      dup4\n        /* \"#utility.yul\":28603:28620   */\n      add\n        /* \"#utility.yul\":28596:28643   */\n      mstore\n        /* \"#utility.yul\":28660:28791   */\n      tag_709\n        /* \"#utility.yul\":28786:28790   */\n      dup2\n        /* \"#utility.yul\":28660:28791   */\n      tag_587\n      jump\t// in\n    tag_709:\n        /* \"#utility.yul\":28652:28791   */\n      swap1\n      pop\n        /* \"#utility.yul\":28379:28798   */\n      swap2\n      swap1\n      pop\n      jump\t// out\n        /* \"#utility.yul\":28804:29223   */\n    tag_230:\n        /* \"#utility.yul\":28970:28974   */\n      0x00\n        /* \"#utility.yul\":29008:29010   */\n      0x20\n        /* \"#utility.yul\":28997:29006   */\n      dup3\n        /* \"#utility.yul\":28993:29011   */\n      add\n        /* \"#utility.yul\":28985:29011   */\n      swap1\n      pop\n        /* \"#utility.yul\":29057:29066   */\n      dup2\n        /* \"#utility.yul\":29051:29055   */\n      dup2\n        /* \"#utility.yul\":29047:29067   */\n      sub\n        /* \"#utility.yul\":29043:29044   */\n      0x00\n        /* \"#utility.yul\":29032:29041   */\n      dup4\n        /* \"#utility.yul\":29028:29045   */\n      add\n        /* \"#utility.yul\":29021:29068   */\n      mstore\n        /* \"#utility.yul\":29085:29216   */\n      tag_711\n        /* \"#utility.yul\":29211:29215   */\n      dup2\n        /* \"#utility.yul\":29085:29216   */\n      tag_592\n      jump\t// in\n    tag_711:\n        /* \"#utility.yul\":29077:29216   */\n      swap1\n      pop\n        /* \"#utility.yul\":28804:29223   */\n      swap2\n      swap1\n      pop\n      jump\t// out\n        /* \"#utility.yul\":29229:29648   */\n    tag_89:\n        /* \"#utility.yul\":29395:29399   */\n      0x00\n        /* \"#utility.yul\":29433:29435   */\n      0x20\n        /* \"#utility.yul\":29422:29431   */\n      dup3\n        /* \"#utility.yul\":29418:29436   */\n      add\n        /* \"#utility.yul\":29410:29436   */\n      swap1\n      pop\n        /* \"#utility.yul\":29482:29491   */\n      dup2\n        /* \"#utility.yul\":29476:29480   */\n      dup2\n        /* \"#utility.yul\":29472:29492   */\n      sub\n        /* \"#utility.yul\":29468:29469   */\n      0x00\n        /* \"#utility.yul\":29457:29466   */\n      dup4\n        /* \"#utility.yul\":29453:29470   */\n      add\n        /* \"#utility.yul\":29446:29493   */\n      mstore\n        /* \"#utility.yul\":29510:29641   */\n      tag_713\n        /* \"#utility.yul\":29636:29640   */\n      dup2\n        /* \"#utility.yul\":29510:29641   */\n      tag_597\n      jump\t// in\n    tag_713:\n        /* \"#utility.yul\":29502:29641   */\n      swap1\n      pop\n        /* \"#utility.yul\":29229:29648   */\n      swap2\n      swap1\n      pop\n      jump\t// out\n        /* \"#utility.yul\":29654:30073   */\n    tag_254:\n        /* \"#utility.yul\":29820:29824   */\n      0x00\n        /* \"#utility.yul\":29858:29860   */\n      0x20\n        /* \"#utility.yul\":29847:29856   */\n      dup3\n        /* \"#utility.yul\":29843:29861   */\n      add\n        /* \"#utility.yul\":29835:29861   */\n      swap1\n      pop\n        /* \"#utility.yul\":29907:29916   */\n      dup2\n        /* \"#utility.yul\":29901:29905   */\n      dup2\n        /* \"#utility.yul\":29897:29917   */\n      sub\n        /* \"#utility.yul\":29893:29894   */\n      0x00\n        /* \"#utility.yul\":29882:29891   */\n      dup4\n        /* \"#utility.yul\":29878:29895   */\n      add\n        /* \"#utility.yul\":29871:29918   */\n      mstore\n        /* \"#utility.yul\":29935:30066   */\n      tag_715\n        /* \"#utility.yul\":30061:30065   */\n      dup2\n        /* \"#utility.yul\":29935:30066   */\n      tag_602\n      jump\t// in\n    tag_715:\n        /* \"#utility.yul\":29927:30066   */\n      swap1\n      pop\n        /* \"#utility.yul\":29654:30073   */\n      swap2\n      swap1\n      pop\n      jump\t// out\n        /* \"#utility.yul\":30079:30498   */\n    tag_128:\n        /* \"#utility.yul\":30245:30249   */\n      0x00\n        /* \"#utility.yul\":30283:30285   */\n      0x20\n        /* \"#utility.yul\":30272:30281   */\n      dup3\n        /* \"#utility.yul\":30268:30286   */\n      add\n        /* \"#utility.yul\":30260:30286   */\n      swap1\n      pop\n        /* \"#utility.yul\":30332:30341   */\n      dup2\n        /* \"#utility.yul\":30326:30330   */\n      dup2\n        /* \"#utility.yul\":30322:30342   */\n      sub\n        /* \"#utility.yul\":30318:30319   */\n      0x00\n        /* \"#utility.yul\":30307:30316   */\n      dup4\n        /* \"#utility.yul\":30303:30320   */\n      add\n        /* \"#utility.yul\":30296:30343   */\n      mstore\n        /* \"#utility.yul\":30360:30491   */\n      tag_717\n        /* \"#utility.yul\":30486:30490   */\n      dup2\n        /* \"#utility.yul\":30360:30491   */\n      tag_607\n      jump\t// in\n    tag_717:\n        /* \"#utility.yul\":30352:30491   */\n      swap1\n      pop\n        /* \"#utility.yul\":30079:30498   */\n      swap2\n      swap1\n      pop\n      jump\t// out\n        /* \"#utility.yul\":30504:30923   */\n    tag_152:\n        /* \"#utility.yul\":30670:30674   */\n      0x00\n        /* \"#utility.yul\":30708:30710   */\n      0x20\n        /* \"#utility.yul\":30697:30706   */\n      dup3\n        /* \"#utility.yul\":30693:30711   */\n      add\n        /* \"#utility.yul\":30685:30711   */\n      swap1\n      pop\n        /* \"#utility.yul\":30757:30766   */\n      dup2\n        /* \"#utility.yul\":30751:30755   */\n      dup2\n        /* \"#utility.yul\":30747:30767   */\n      sub\n        /* \"#utility.yul\":30743:30744   */\n      0x00\n        /* \"#utility.yul\":30732:30741   */\n      dup4\n        /* \"#utility.yul\":30728:30745   */\n      add\n        /* \"#utility.yul\":30721:30768   */\n      mstore\n        /* \"#utility.yul\":30785:30916   */\n      tag_719\n        /* \"#utility.yul\":30911:30915   */\n      dup2\n        /* \"#utility.yul\":30785:30916   */\n      tag_612\n      jump\t// in\n    tag_719:\n        /* \"#utility.yul\":30777:30916   */\n      swap1\n      pop\n        /* \"#utility.yul\":30504:30923   */\n      swap2\n      swap1\n      pop\n      jump\t// out\n        /* \"#utility.yul\":30929:31348   */\n    tag_95:\n        /* \"#utility.yul\":31095:31099   */\n      0x00\n        /* \"#utility.yul\":31133:31135   */\n      0x20\n        /* \"#utility.yul\":31122:31131   */\n      dup3\n        /* \"#utility.yul\":31118:31136   */\n      add\n        /* \"#utility.yul\":31110:31136   */\n      swap1\n      pop\n        /* \"#utility.yul\":31182:31191   */\n      dup2\n        /* \"#utility.yul\":31176:31180   */\n      dup2\n        /* \"#utility.yul\":31172:31192   */\n      sub\n        /* \"#utility.yul\":31168:31169   */\n      0x00\n        /* \"#utility.yul\":31157:31166   */\n      dup4\n        /* \"#utility.yul\":31153:31170   */\n      add\n        /* \"#utility.yul\":31146:31193   */\n      mstore\n        /* \"#utility.yul\":31210:31341   */\n      tag_721\n        /* \"#utility.yul\":31336:31340   */\n      dup2\n        /* \"#utility.yul\":31210:31341   */\n      tag_617\n      jump\t// in\n    tag_721:\n        /* \"#utility.yul\":31202:31341   */\n      swap1\n      pop\n        /* \"#utility.yul\":30929:31348   */\n      swap2\n      swap1\n      pop\n      jump\t// out\n        /* \"#utility.yul\":31354:31773   */\n    tag_305:\n        /* \"#utility.yul\":31520:31524   */\n      0x00\n        /* \"#utility.yul\":31558:31560   */\n      0x20\n        /* \"#utility.yul\":31547:31556   */\n      dup3\n        /* \"#utility.yul\":31543:31561   */\n      add\n        /* \"#utility.yul\":31535:31561   */\n      swap1\n      pop\n        /* \"#utility.yul\":31607:31616   */\n      dup2\n        /* \"#utility.yul\":31601:31605   */\n      dup2\n        /* \"#utility.yul\":31597:31617   */\n      sub\n        /* \"#utility.yul\":31593:31594   */\n      0x00\n        /* \"#utility.yul\":31582:31591   */\n      dup4\n        /* \"#utility.yul\":31578:31595   */\n      add\n        /* \"#utility.yul\":31571:31618   */\n      mstore\n        /* \"#utility.yul\":31635:31766   */\n      tag_723\n        /* \"#utility.yul\":31761:31765   */\n      dup2\n        /* \"#utility.yul\":31635:31766   */\n      tag_622\n      jump\t// in\n    tag_723:\n        /* \"#utility.yul\":31627:31766   */\n      swap1\n      pop\n        /* \"#utility.yul\":31354:31773   */\n      swap2\n      swap1\n      pop\n      jump\t// out\n        /* \"#utility.yul\":31779:32198   */\n    tag_137:\n        /* \"#utility.yul\":31945:31949   */\n      0x00\n        /* \"#utility.yul\":31983:31985   */\n      0x20\n        /* \"#utility.yul\":31972:31981   */\n      dup3\n        /* \"#utility.yul\":31968:31986   */\n      add\n        /* \"#utility.yul\":31960:31986   */\n      swap1\n      pop\n        /* \"#utility.yul\":32032:32041   */\n      dup2\n        /* \"#utility.yul\":32026:32030   */\n      dup2\n        /* \"#utility.yul\":32022:32042   */\n      sub\n        /* \"#utility.yul\":32018:32019   */\n      0x00\n        /* \"#utility.yul\":32007:32016   */\n      dup4\n        /* \"#utility.yul\":32003:32020   */\n      add\n        /* \"#utility.yul\":31996:32043   */\n      mstore\n        /* \"#utility.yul\":32060:32191   */\n      tag_725\n        /* \"#utility.yul\":32186:32190   */\n      dup2\n        /* \"#utility.yul\":32060:32191   */\n      tag_627\n      jump\t// in\n    tag_725:\n        /* \"#utility.yul\":32052:32191   */\n      swap1\n      pop\n        /* \"#utility.yul\":31779:32198   */\n      swap2\n      swap1\n      pop\n      jump\t// out\n        /* \"#utility.yul\":32204:32623   */\n    tag_163:\n        /* \"#utility.yul\":32370:32374   */\n      0x00\n        /* \"#utility.yul\":32408:32410   */\n      0x20\n        /* \"#utility.yul\":32397:32406   */\n      dup3\n        /* \"#utility.yul\":32393:32411   */\n      add\n        /* \"#utility.yul\":32385:32411   */\n      swap1\n      pop\n        /* \"#utility.yul\":32457:32466   */\n      dup2\n        /* \"#utility.yul\":32451:32455   */\n      dup2\n        /* \"#utility.yul\":32447:32467   */\n      sub\n        /* \"#utility.yul\":32443:32444   */\n      0x00\n        /* \"#utility.yul\":32432:32441   */\n      dup4\n        /* \"#utility.yul\":32428:32445   */\n      add\n        /* \"#utility.yul\":32421:32468   */\n      mstore\n        /* \"#utility.yul\":32485:32616   */\n      tag_727\n        /* \"#utility.yul\":32611:32615   */\n      dup2\n        /* \"#utility.yul\":32485:32616   */\n      tag_632\n      jump\t// in\n    tag_727:\n        /* \"#utility.yul\":32477:32616   */\n      swap1\n      pop\n        /* \"#utility.yul\":32204:32623   */\n      swap2\n      swap1\n      pop\n      jump\t// out\n        /* \"#utility.yul\":32629:33268   */\n    tag_119:\n        /* \"#utility.yul\":32851:32855   */\n      0x00\n        /* \"#utility.yul\":32889:32891   */\n      0x60\n        /* \"#utility.yul\":32878:32887   */\n      dup3\n        /* \"#utility.yul\":32874:32892   */\n      add\n        /* \"#utility.yul\":32866:32892   */\n      swap1\n      pop\n        /* \"#utility.yul\":32938:32947   */\n      dup2\n        /* \"#utility.yul\":32932:32936   */\n      dup2\n        /* \"#utility.yul\":32928:32948   */\n      sub\n        /* \"#utility.yul\":32924:32925   */\n      0x00\n        /* \"#utility.yul\":32913:32922   */\n      dup4\n        /* \"#utility.yul\":32909:32926   */\n      add\n        /* \"#utility.yul\":32902:32949   */\n      mstore\n        /* \"#utility.yul\":32966:33097   */\n      tag_729\n        /* \"#utility.yul\":33092:33096   */\n      dup2\n        /* \"#utility.yul\":32966:33097   */\n      tag_637\n      jump\t// in\n    tag_729:\n        /* \"#utility.yul\":32958:33097   */\n      swap1\n      pop\n        /* \"#utility.yul\":33107:33179   */\n      tag_730\n        /* \"#utility.yul\":33175:33177   */\n      0x20\n        /* \"#utility.yul\":33164:33173   */\n      dup4\n        /* \"#utility.yul\":33160:33178   */\n      add\n        /* \"#utility.yul\":33151:33157   */\n      dup6\n        /* \"#utility.yul\":33107:33179   */\n      tag_485\n      jump\t// in\n    tag_730:\n        /* \"#utility.yul\":33189:33261   */\n      tag_731\n        /* \"#utility.yul\":33257:33259   */\n      0x40\n        /* \"#utility.yul\":33246:33255   */\n      dup4\n        /* \"#utility.yul\":33242:33260   */\n      add\n        /* \"#utility.yul\":33233:33239   */\n      dup5\n        /* \"#utility.yul\":33189:33261   */\n      tag_670\n      jump\t// in\n    tag_731:\n        /* \"#utility.yul\":32629:33268   */\n      swap4\n      swap3\n      pop\n      pop\n      pop\n      jump\t// out\n        /* \"#utility.yul\":33274:33693   */\n    tag_285:\n        /* \"#utility.yul\":33440:33444   */\n      0x00\n        /* \"#utility.yul\":33478:33480   */\n      0x20\n        /* \"#utility.yul\":33467:33476   */\n      dup3\n        /* \"#utility.yul\":33463:33481   */\n      add\n        /* \"#utility.yul\":33455:33481   */\n      swap1\n      pop\n        /* \"#utility.yul\":33527:33536   */\n      dup2\n        /* \"#utility.yul\":33521:33525   */\n      dup2\n        /* \"#utility.yul\":33517:33537   */\n      sub\n        /* \"#utility.yul\":33513:33514   */\n      0x00\n        /* \"#utility.yul\":33502:33511   */\n      dup4\n        /* \"#utility.yul\":33498:33515   */\n      add\n        /* \"#utility.yul\":33491:33538   */\n      mstore\n        /* \"#utility.yul\":33555:33686   */\n      tag_733\n        /* \"#utility.yul\":33681:33685   */\n      dup2\n        /* \"#utility.yul\":33555:33686   */\n      tag_642\n      jump\t// in\n    tag_733:\n        /* \"#utility.yul\":33547:33686   */\n      swap1\n      pop\n        /* \"#utility.yul\":33274:33693   */\n      swap2\n      swap1\n      pop\n      jump\t// out\n        /* \"#utility.yul\":33699:34338   */\n    tag_169:\n        /* \"#utility.yul\":33921:33925   */\n      0x00\n        /* \"#utility.yul\":33959:33961   */\n      0x60\n        /* \"#utility.yul\":33948:33957   */\n      dup3\n        /* \"#utility.yul\":33944:33962   */\n      add\n        /* \"#utility.yul\":33936:33962   */\n      swap1\n      pop\n        /* \"#utility.yul\":34008:34017   */\n      dup2\n        /* \"#utility.yul\":34002:34006   */\n      dup2\n        /* \"#utility.yul\":33998:34018   */\n      sub\n        /* \"#utility.yul\":33994:33995   */\n      0x00\n        /* \"#utility.yul\":33983:33992   */\n      dup4\n        /* \"#utility.yul\":33979:33996   */\n      add\n        /* \"#utility.yul\":33972:34019   */\n      mstore\n        /* \"#utility.yul\":34036:34167   */\n      tag_735\n        /* \"#utility.yul\":34162:34166   */\n      dup2\n        /* \"#utility.yul\":34036:34167   */\n      tag_647\n      jump\t// in\n    tag_735:\n        /* \"#utility.yul\":34028:34167   */\n      swap1\n      pop\n        /* \"#utility.yul\":34177:34249   */\n      tag_736\n        /* \"#utility.yul\":34245:34247   */\n      0x20\n        /* \"#utility.yul\":34234:34243   */\n      dup4\n        /* \"#utility.yul\":34230:34248   */\n      add\n        /* \"#utility.yul\":34221:34227   */\n      dup6\n        /* \"#utility.yul\":34177:34249   */\n      tag_485\n      jump\t// in\n    tag_736:\n        /* \"#utility.yul\":34259:34331   */\n      tag_737\n        /* \"#utility.yul\":34327:34329   */\n      0x40\n        /* \"#utility.yul\":34316:34325   */\n      dup4\n        /* \"#utility.yul\":34312:34330   */\n      add\n        /* \"#utility.yul\":34303:34309   */\n      dup5\n        /* \"#utility.yul\":34259:34331   */\n      tag_670\n      jump\t// in\n    tag_737:\n        /* \"#utility.yul\":33699:34338   */\n      swap4\n      swap3\n      pop\n      pop\n      pop\n      jump\t// out\n        /* \"#utility.yul\":34344:34763   */\n    tag_288:\n        /* \"#utility.yul\":34510:34514   */\n      0x00\n        /* \"#utility.yul\":34548:34550   */\n      0x20\n        /* \"#utility.yul\":34537:34546   */\n      dup3\n        /* \"#utility.yul\":34533:34551   */\n      add\n        /* \"#utility.yul\":34525:34551   */\n      swap1\n      pop\n        /* \"#utility.yul\":34597:34606   */\n      dup2\n        /* \"#utility.yul\":34591:34595   */\n      dup2\n        /* \"#utility.yul\":34587:34607   */\n      sub\n        /* \"#utility.yul\":34583:34584   */\n      0x00\n        /* \"#utility.yul\":34572:34581   */\n      dup4\n        /* \"#utility.yul\":34568:34585   */\n      add\n        /* \"#utility.yul\":34561:34608   */\n      mstore\n        /* \"#utility.yul\":34625:34756   */\n      tag_739\n        /* \"#utility.yul\":34751:34755   */\n      dup2\n        /* \"#utility.yul\":34625:34756   */\n      tag_652\n      jump\t// in\n    tag_739:\n        /* \"#utility.yul\":34617:34756   */\n      swap1\n      pop\n        /* \"#utility.yul\":34344:34763   */\n      swap2\n      swap1\n      pop\n      jump\t// out\n        /* \"#utility.yul\":34769:35188   */\n    tag_298:\n        /* \"#utility.yul\":34935:34939   */\n      0x00\n        /* \"#utility.yul\":34973:34975   */\n      0x20\n        /* \"#utility.yul\":34962:34971   */\n      dup3\n        /* \"#utility.yul\":34958:34976   */\n      add\n        /* \"#utility.yul\":34950:34976   */\n      swap1\n      pop\n        /* \"#utility.yul\":35022:35031   */\n      dup2\n        /* \"#utility.yul\":35016:35020   */\n      dup2\n        /* \"#utility.yul\":35012:35032   */\n      sub\n        /* \"#utility.yul\":35008:35009   */\n      0x00\n        /* \"#utility.yul\":34997:35006   */\n      dup4\n        /* \"#utility.yul\":34993:35010   */\n      add\n        /* \"#utility.yul\":34986:35033   */\n      mstore\n        /* \"#utility.yul\":35050:35181   */\n      tag_741\n        /* \"#utility.yul\":35176:35180   */\n      dup2\n        /* \"#utility.yul\":35050:35181   */\n      tag_657\n      jump\t// in\n    tag_741:\n        /* \"#utility.yul\":35042:35181   */\n      swap1\n      pop\n        /* \"#utility.yul\":34769:35188   */\n      swap2\n      swap1\n      pop\n      jump\t// out\n        /* \"#utility.yul\":35194:35526   */\n    tag_71:\n        /* \"#utility.yul\":35315:35319   */\n      0x00\n        /* \"#utility.yul\":35353:35355   */\n      0x40\n        /* \"#utility.yul\":35342:35351   */\n      dup3\n        /* \"#utility.yul\":35338:35356   */\n      add\n        /* \"#utility.yul\":35330:35356   */\n      swap1\n      pop\n        /* \"#utility.yul\":35366:35437   */\n      tag_743\n        /* \"#utility.yul\":35434:35435   */\n      0x00\n        /* \"#utility.yul\":35423:35432   */\n      dup4\n        /* \"#utility.yul\":35419:35436   */\n      add\n        /* \"#utility.yul\":35410:35416   */\n      dup6\n        /* \"#utility.yul\":35366:35437   */\n      tag_662\n      jump\t// in\n    tag_743:\n        /* \"#utility.yul\":35447:35519   */\n      tag_744\n        /* \"#utility.yul\":35515:35517   */\n      0x20\n        /* \"#utility.yul\":35504:35513   */\n      dup4\n        /* \"#utility.yul\":35500:35518   */\n      add\n        /* \"#utility.yul\":35491:35497   */\n      dup5\n        /* \"#utility.yul\":35447:35519   */\n      tag_662\n      jump\t// in\n    tag_744:\n        /* \"#utility.yul\":35194:35526   */\n      swap4\n      swap3\n      pop\n      pop\n      pop\n      jump\t// out\n        /* \"#utility.yul\":35532:35754   */\n    tag_29:\n        /* \"#utility.yul\":35625:35629   */\n      0x00\n        /* \"#utility.yul\":35663:35665   */\n      0x20\n        /* \"#utility.yul\":35652:35661   */\n      dup3\n        /* \"#utility.yul\":35648:35666   */\n      add\n        /* \"#utility.yul\":35640:35666   */\n      swap1\n      pop\n        /* \"#utility.yul\":35676:35747   */\n      tag_746\n        /* \"#utility.yul\":35744:35745   */\n      0x00\n        /* \"#utility.yul\":35733:35742   */\n      dup4\n        /* \"#utility.yul\":35729:35746   */\n      add\n        /* \"#utility.yul\":35720:35726   */\n      dup5\n        /* \"#utility.yul\":35676:35747   */\n      tag_670\n      jump\t// in\n    tag_746:\n        /* \"#utility.yul\":35532:35754   */\n      swap3\n      swap2\n      pop\n      pop\n      jump\t// out\n        /* \"#utility.yul\":35760:36301   */\n    tag_66:\n        /* \"#utility.yul\":35931:35935   */\n      0x00\n        /* \"#utility.yul\":35969:35972   */\n      0x80\n        /* \"#utility.yul\":35958:35967   */\n      dup3\n        /* \"#utility.yul\":35954:35973   */\n      add\n        /* \"#utility.yul\":35946:35973   */\n      swap1\n      pop\n        /* \"#utility.yul\":35983:36054   */\n      tag_748\n        /* \"#utility.yul\":36051:36052   */\n      0x00\n        /* \"#utility.yul\":36040:36049   */\n      dup4\n        /* \"#utility.yul\":36036:36053   */\n      add\n        /* \"#utility.yul\":36027:36033   */\n      dup8\n        /* \"#utility.yul\":35983:36054   */\n      tag_670\n      jump\t// in\n    tag_748:\n        /* \"#utility.yul\":36064:36136   */\n      tag_749\n        /* \"#utility.yul\":36132:36134   */\n      0x20\n        /* \"#utility.yul\":36121:36130   */\n      dup4\n        /* \"#utility.yul\":36117:36135   */\n      add\n        /* \"#utility.yul\":36108:36114   */\n      dup7\n        /* \"#utility.yul\":36064:36136   */\n      tag_485\n      jump\t// in\n    tag_749:\n        /* \"#utility.yul\":36146:36212   */\n      tag_750\n        /* \"#utility.yul\":36208:36210   */\n      0x40\n        /* \"#utility.yul\":36197:36206   */\n      dup4\n        /* \"#utility.yul\":36193:36211   */\n      add\n        /* \"#utility.yul\":36184:36190   */\n      dup6\n        /* \"#utility.yul\":36146:36212   */\n      tag_516\n      jump\t// in\n    tag_750:\n        /* \"#utility.yul\":36222:36294   */\n      tag_751\n        /* \"#utility.yul\":36290:36292   */\n      0x60\n        /* \"#utility.yul\":36279:36288   */\n      dup4\n        /* \"#utility.yul\":36275:36293   */\n      add\n        /* \"#utility.yul\":36266:36272   */\n      dup5\n        /* \"#utility.yul\":36222:36294   */\n      tag_670\n      jump\t// in\n    tag_751:\n        /* \"#utility.yul\":35760:36301   */\n      swap6\n      swap5\n      pop\n      pop\n      pop\n      pop\n      pop\n      jump\t// out\n        /* \"#utility.yul\":36307:37650   */\n    tag_101:\n        /* \"#utility.yul\":36720:36724   */\n      0x00\n        /* \"#utility.yul\":36758:36761   */\n      0xe0\n        /* \"#utility.yul\":36747:36756   */\n      dup3\n        /* \"#utility.yul\":36743:36762   */\n      add\n        /* \"#utility.yul\":36735:36762   */\n      swap1\n      pop\n        /* \"#utility.yul\":36772:36843   */\n      tag_753\n        /* \"#utility.yul\":36840:36841   */\n      0x00\n        /* \"#utility.yul\":36829:36838   */\n      dup4\n        /* \"#utility.yul\":36825:36842   */\n      add\n        /* \"#utility.yul\":36816:36822   */\n      dup12\n        /* \"#utility.yul\":36772:36843   */\n      tag_670\n      jump\t// in\n    tag_753:\n        /* \"#utility.yul\":36890:36899   */\n      dup2\n        /* \"#utility.yul\":36884:36888   */\n      dup2\n        /* \"#utility.yul\":36880:36900   */\n      sub\n        /* \"#utility.yul\":36875:36877   */\n      0x20\n        /* \"#utility.yul\":36864:36873   */\n      dup4\n        /* \"#utility.yul\":36860:36878   */\n      add\n        /* \"#utility.yul\":36853:36901   */\n      mstore\n        /* \"#utility.yul\":36918:37026   */\n      tag_754\n        /* \"#utility.yul\":37021:37025   */\n      dup2\n        /* \"#utility.yul\":37012:37018   */\n      dup11\n        /* \"#utility.yul\":36918:37026   */\n      tag_488\n      jump\t// in\n    tag_754:\n        /* \"#utility.yul\":36910:37026   */\n      swap1\n      pop\n        /* \"#utility.yul\":37036:37108   */\n      tag_755\n        /* \"#utility.yul\":37104:37106   */\n      0x40\n        /* \"#utility.yul\":37093:37102   */\n      dup4\n        /* \"#utility.yul\":37089:37107   */\n      add\n        /* \"#utility.yul\":37080:37086   */\n      dup10\n        /* \"#utility.yul\":37036:37108   */\n      tag_485\n      jump\t// in\n    tag_755:\n        /* \"#utility.yul\":37118:37190   */\n      tag_756\n        /* \"#utility.yul\":37186:37188   */\n      0x60\n        /* \"#utility.yul\":37175:37184   */\n      dup4\n        /* \"#utility.yul\":37171:37189   */\n      add\n        /* \"#utility.yul\":37162:37168   */\n      dup9\n        /* \"#utility.yul\":37118:37190   */\n      tag_670\n      jump\t// in\n    tag_756:\n        /* \"#utility.yul\":37200:37273   */\n      tag_757\n        /* \"#utility.yul\":37268:37271   */\n      0x80\n        /* \"#utility.yul\":37257:37266   */\n      dup4\n        /* \"#utility.yul\":37253:37272   */\n      add\n        /* \"#utility.yul\":37244:37250   */\n      dup8\n        /* \"#utility.yul\":37200:37273   */\n      tag_670\n      jump\t// in\n    tag_757:\n        /* \"#utility.yul\":37321:37330   */\n      dup2\n        /* \"#utility.yul\":37315:37319   */\n      dup2\n        /* \"#utility.yul\":37311:37331   */\n      sub\n        /* \"#utility.yul\":37305:37308   */\n      0xa0\n        /* \"#utility.yul\":37294:37303   */\n      dup4\n        /* \"#utility.yul\":37290:37309   */\n      add\n        /* \"#utility.yul\":37283:37332   */\n      mstore\n        /* \"#utility.yul\":37349:37427   */\n      tag_758\n        /* \"#utility.yul\":37422:37426   */\n      dup2\n        /* \"#utility.yul\":37413:37419   */\n      dup7\n        /* \"#utility.yul\":37349:37427   */\n      tag_531\n      jump\t// in\n    tag_758:\n        /* \"#utility.yul\":37341:37427   */\n      swap1\n      pop\n        /* \"#utility.yul\":37475:37484   */\n      dup2\n        /* \"#utility.yul\":37469:37473   */\n      dup2\n        /* \"#utility.yul\":37465:37485   */\n      sub\n        /* \"#utility.yul\":37459:37462   */\n      0xc0\n        /* \"#utility.yul\":37448:37457   */\n      dup4\n        /* \"#utility.yul\":37444:37463   */\n      add\n        /* \"#utility.yul\":37437:37486   */\n      mstore\n        /* \"#utility.yul\":37503:37643   */\n      tag_759\n        /* \"#utility.yul\":37638:37642   */\n      dup2\n        /* \"#utility.yul\":37629:37635   */\n      dup5\n        /* \"#utility.yul\":37621:37627   */\n      dup7\n        /* \"#utility.yul\":37503:37643   */\n      tag_502\n      jump\t// in\n    tag_759:\n        /* \"#utility.yul\":37495:37643   */\n      swap1\n      pop\n        /* \"#utility.yul\":36307:37650   */\n      swap10\n      swap9\n      pop\n      pop\n      pop\n      pop\n      pop\n      pop\n      pop\n      pop\n      pop\n      jump\t// out\n        /* \"#utility.yul\":37656:38079   */\n    tag_60:\n        /* \"#utility.yul\":37797:37801   */\n      0x00\n        /* \"#utility.yul\":37835:37837   */\n      0x40\n        /* \"#utility.yul\":37824:37833   */\n      dup3\n        /* \"#utility.yul\":37820:37838   */\n      add\n        /* \"#utility.yul\":37812:37838   */\n      swap1\n      pop\n        /* \"#utility.yul\":37848:37919   */\n      tag_761\n        /* \"#utility.yul\":37916:37917   */\n      0x00\n        /* \"#utility.yul\":37905:37914   */\n      dup4\n        /* \"#utility.yul\":37901:37918   */\n      add\n        /* \"#utility.yul\":37892:37898   */\n      dup6\n        /* \"#utility.yul\":37848:37919   */\n      tag_670\n      jump\t// in\n    tag_761:\n        /* \"#utility.yul\":37966:37975   */\n      dup2\n        /* \"#utility.yul\":37960:37964   */\n      dup2\n        /* \"#utility.yul\":37956:37976   */\n      sub\n        /* \"#utility.yul\":37951:37953   */\n      0x20\n        /* \"#utility.yul\":37940:37949   */\n      dup4\n        /* \"#utility.yul\":37936:37954   */\n      add\n        /* \"#utility.yul\":37929:37977   */\n      mstore\n        /* \"#utility.yul\":37994:38072   */\n      tag_762\n        /* \"#utility.yul\":38067:38071   */\n      dup2\n        /* \"#utility.yul\":38058:38064   */\n      dup5\n        /* \"#utility.yul\":37994:38072   */\n      tag_531\n      jump\t// in\n    tag_762:\n        /* \"#utility.yul\":37986:38072   */\n      swap1\n      pop\n        /* \"#utility.yul\":37656:38079   */\n      swap4\n      swap3\n      pop\n      pop\n      pop\n      jump\t// out\n        /* \"#utility.yul\":38085:38299   */\n    tag_33:\n        /* \"#utility.yul\":38174:38178   */\n      0x00\n        /* \"#utility.yul\":38212:38214   */\n      0x20\n        /* \"#utility.yul\":38201:38210   */\n      dup3\n        /* \"#utility.yul\":38197:38215   */\n      add\n        /* \"#utility.yul\":38189:38215   */\n      swap1\n      pop\n        /* \"#utility.yul\":38225:38292   */\n      tag_764\n        /* \"#utility.yul\":38289:38290   */\n      0x00\n        /* \"#utility.yul\":38278:38287   */\n      dup4\n        /* \"#utility.yul\":38274:38291   */\n      add\n        /* \"#utility.yul\":38265:38271   */\n      dup5\n        /* \"#utility.yul\":38225:38292   */\n      tag_674\n      jump\t// in\n    tag_764:\n        /* \"#utility.yul\":38085:38299   */\n      swap3\n      swap2\n      pop\n      pop\n      jump\t// out\n        /* \"#utility.yul\":38305:39030   */\n    tag_197:\n        /* \"#utility.yul\":38383:38387   */\n      0x00\n        /* \"#utility.yul\":38389:38395   */\n      dup1\n        /* \"#utility.yul\":38445:38456   */\n      dup4\n        /* \"#utility.yul\":38432:38457   */\n      calldataload\n        /* \"#utility.yul\":38545:38546   */\n      0x01\n        /* \"#utility.yul\":38539:38543   */\n      0x20\n        /* \"#utility.yul\":38535:38547   */\n      sub\n        /* \"#utility.yul\":38524:38532   */\n      dup5\n        /* \"#utility.yul\":38508:38522   */\n      calldatasize\n        /* \"#utility.yul\":38504:38533   */\n      sub\n        /* \"#utility.yul\":38500:38548   */\n      sub\n        /* \"#utility.yul\":38480:38498   */\n      dup2\n        /* \"#utility.yul\":38476:38549   */\n      slt\n        /* \"#utility.yul\":38466:38634   */\n      tag_766\n      jumpi\n        /* \"#utility.yul\":38553:38632   */\n      tag_767\n      tag_768\n      jump\t// in\n    tag_767:\n        /* \"#utility.yul\":38466:38634   */\n    tag_766:\n        /* \"#utility.yul\":38665:38683   */\n      dup1\n        /* \"#utility.yul\":38655:38663   */\n      dup5\n        /* \"#utility.yul\":38651:38684   */\n      add\n        /* \"#utility.yul\":38643:38684   */\n      swap3\n      pop\n        /* \"#utility.yul\":38717:38721   */\n      dup3\n        /* \"#utility.yul\":38704:38722   */\n      calldataload\n        /* \"#utility.yul\":38694:38722   */\n      swap2\n      pop\n        /* \"#utility.yul\":38745:38763   */\n      0xffffffffffffffff\n        /* \"#utility.yul\":38737:38743   */\n      dup3\n        /* \"#utility.yul\":38734:38764   */\n      gt\n        /* \"#utility.yul\":38731:38848   */\n      iszero\n      tag_769\n      jumpi\n        /* \"#utility.yul\":38767:38846   */\n      tag_770\n      tag_771\n      jump\t// in\n    tag_770:\n        /* \"#utility.yul\":38731:38848   */\n    tag_769:\n        /* \"#utility.yul\":38875:38877   */\n      0x20\n        /* \"#utility.yul\":38869:38873   */\n      dup4\n        /* \"#utility.yul\":38865:38878   */\n      add\n        /* \"#utility.yul\":38857:38878   */\n      swap3\n      pop\n        /* \"#utility.yul\":38932:38936   */\n      0x01\n        /* \"#utility.yul\":38924:38930   */\n      dup3\n        /* \"#utility.yul\":38920:38937   */\n      mul\n        /* \"#utility.yul\":38904:38918   */\n      calldatasize\n        /* \"#utility.yul\":38900:38938   */\n      sub\n        /* \"#utility.yul\":38894:38898   */\n      dup4\n        /* \"#utility.yul\":38890:38939   */\n      sgt\n        /* \"#utility.yul\":38887:39023   */\n      iszero\n      tag_772\n      jumpi\n        /* \"#utility.yul\":38942:39021   */\n      tag_773\n      tag_774\n      jump\t// in\n    tag_773:\n        /* \"#utility.yul\":38887:39023   */\n    tag_772:\n        /* \"#utility.yul\":38396:39030   */\n      pop\n        /* \"#utility.yul\":38305:39030   */\n      swap3\n      pop\n      swap3\n      swap1\n      pop\n      jump\t// out\n        /* \"#utility.yul\":39036:39165   */\n    tag_342:\n        /* \"#utility.yul\":39070:39076   */\n      0x00\n        /* \"#utility.yul\":39097:39117   */\n      tag_776\n      tag_777\n      jump\t// in\n    tag_776:\n        /* \"#utility.yul\":39087:39117   */\n      swap1\n      pop\n        /* \"#utility.yul\":39126:39159   */\n      tag_778\n        /* \"#utility.yul\":39154:39158   */\n      dup3\n        /* \"#utility.yul\":39146:39152   */\n      dup3\n        /* \"#utility.yul\":39126:39159   */\n      tag_779\n      jump\t// in\n    tag_778:\n        /* \"#utility.yul\":39036:39165   */\n      swap2\n      swap1\n      pop\n      jump\t// out\n        /* \"#utility.yul\":39171:39246   */\n    tag_777:\n        /* \"#utility.yul\":39204:39210   */\n      0x00\n        /* \"#utility.yul\":39237:39239   */\n      0x40\n        /* \"#utility.yul\":39231:39240   */\n      mload\n        /* \"#utility.yul\":39221:39240   */\n      swap1\n      pop\n        /* \"#utility.yul\":39171:39246   */\n      swap1\n      jump\t// out\n        /* \"#utility.yul\":39252:39563   */\n    tag_341:\n        /* \"#utility.yul\":39329:39333   */\n      0x00\n        /* \"#utility.yul\":39419:39437   */\n      0xffffffffffffffff\n        /* \"#utility.yul\":39411:39417   */\n      dup3\n        /* \"#utility.yul\":39408:39438   */\n      gt\n        /* \"#utility.yul\":39405:39461   */\n      iszero\n      tag_782\n      jumpi\n        /* \"#utility.yul\":39441:39459   */\n      tag_783\n      tag_784\n      jump\t// in\n    tag_783:\n        /* \"#utility.yul\":39405:39461   */\n    tag_782:\n        /* \"#utility.yul\":39491:39495   */\n      0x20\n        /* \"#utility.yul\":39483:39489   */\n      dup3\n        /* \"#utility.yul\":39479:39496   */\n      mul\n        /* \"#utility.yul\":39471:39496   */\n      swap1\n      pop\n        /* \"#utility.yul\":39551:39555   */\n      0x20\n        /* \"#utility.yul\":39545:39549   */\n      dup2\n        /* \"#utility.yul\":39541:39556   */\n      add\n        /* \"#utility.yul\":39533:39556   */\n      swap1\n      pop\n        /* \"#utility.yul\":39252:39563   */\n      swap2\n      swap1\n      pop\n      jump\t// out\n        /* \"#utility.yul\":39569:39890   */\n    tag_355:\n        /* \"#utility.yul\":39656:39660   */\n      0x00\n        /* \"#utility.yul\":39746:39764   */\n      0xffffffffffffffff\n        /* \"#utility.yul\":39738:39744   */\n      dup3\n        /* \"#utility.yul\":39735:39765   */\n      gt\n        /* \"#utility.yul\":39732:39788   */\n      iszero\n      tag_786\n      jumpi\n        /* \"#utility.yul\":39768:39786   */\n      tag_787\n      tag_784\n      jump\t// in\n    tag_787:\n        /* \"#utility.yul\":39732:39788   */\n    tag_786:\n        /* \"#utility.yul\":39818:39822   */\n      0x20\n        /* \"#utility.yul\":39810:39816   */\n      dup3\n        /* \"#utility.yul\":39806:39823   */\n      mul\n        /* \"#utility.yul\":39798:39823   */\n      swap1\n      pop\n        /* \"#utility.yul\":39878:39882   */\n      0x20\n        /* \"#utility.yul\":39872:39876   */\n      dup2\n        /* \"#utility.yul\":39868:39883   */\n      add\n        /* \"#utility.yul\":39860:39883   */\n      swap1\n      pop\n        /* \"#utility.yul\":39569:39890   */\n      swap2\n      swap1\n      pop\n      jump\t// out\n        /* \"#utility.yul\":39896:40207   */\n    tag_370:\n        /* \"#utility.yul\":39973:39977   */\n      0x00\n        /* \"#utility.yul\":40063:40081   */\n      0xffffffffffffffff\n        /* \"#utility.yul\":40055:40061   */\n      dup3\n        /* \"#utility.yul\":40052:40082   */\n      gt\n        /* \"#utility.yul\":40049:40105   */\n      iszero\n      tag_789\n      jumpi\n        /* \"#utility.yul\":40085:40103   */\n      tag_790\n      tag_784\n      jump\t// in\n    tag_790:\n        /* \"#utility.yul\":40049:40105   */\n    tag_789:\n        /* \"#utility.yul\":40135:40139   */\n      0x20\n        /* \"#utility.yul\":40127:40133   */\n      dup3\n        /* \"#utility.yul\":40123:40140   */\n      mul\n        /* \"#utility.yul\":40115:40140   */\n      swap1\n      pop\n        /* \"#utility.yul\":40195:40199   */\n      0x20\n        /* \"#utility.yul\":40189:40193   */\n      dup2\n        /* \"#utility.yul\":40185:40200   */\n      add\n        /* \"#utility.yul\":40177:40200   */\n      swap1\n      pop\n        /* \"#utility.yul\":39896:40207   */\n      swap2\n      swap1\n      pop\n      jump\t// out\n        /* \"#utility.yul\":40213:40521   */\n    tag_382:\n        /* \"#utility.yul\":40275:40279   */\n      0x00\n        /* \"#utility.yul\":40365:40383   */\n      0xffffffffffffffff\n        /* \"#utility.yul\":40357:40363   */\n      dup3\n        /* \"#utility.yul\":40354:40384   */\n      gt\n        /* \"#utility.yul\":40351:40407   */\n      iszero\n      tag_792\n      jumpi\n        /* \"#utility.yul\":40387:40405   */\n      tag_793\n      tag_784\n      jump\t// in\n    tag_793:\n        /* \"#utility.yul\":40351:40407   */\n    tag_792:\n        /* \"#utility.yul\":40425:40454   */\n      tag_794\n        /* \"#utility.yul\":40447:40453   */\n      dup3\n        /* \"#utility.yul\":40425:40454   */\n      tag_525\n      jump\t// in\n    tag_794:\n        /* \"#utility.yul\":40417:40454   */\n      swap1\n      pop\n        /* \"#utility.yul\":40509:40513   */\n      0x20\n        /* \"#utility.yul\":40503:40507   */\n      dup2\n        /* \"#utility.yul\":40499:40514   */\n      add\n        /* \"#utility.yul\":40491:40514   */\n      swap1\n      pop\n        /* \"#utility.yul\":40213:40521   */\n      swap2\n      swap1\n      pop\n      jump\t// out\n        /* \"#utility.yul\":40527:40659   */\n    tag_495:\n        /* \"#utility.yul\":40594:40598   */\n      0x00\n        /* \"#utility.yul\":40617:40620   */\n      dup2\n        /* \"#utility.yul\":40609:40620   */\n      swap1\n      pop\n        /* \"#utility.yul\":40647:40651   */\n      0x20\n        /* \"#utility.yul\":40642:40645   */\n      dup3\n        /* \"#utility.yul\":40638:40652   */\n      add\n        /* \"#utility.yul\":40630:40652   */\n      swap1\n      pop\n        /* \"#utility.yul\":40527:40659   */\n      swap2\n      swap1\n      pop\n      jump\t// out\n        /* \"#utility.yul\":40665:40779   */\n    tag_507:\n        /* \"#utility.yul\":40746:40750   */\n      0x00\n        /* \"#utility.yul\":40769:40772   */\n      dup2\n        /* \"#utility.yul\":40761:40772   */\n      swap1\n      pop\n        /* \"#utility.yul\":40665:40779   */\n      swap2\n      swap1\n      pop\n      jump\t// out\n        /* \"#utility.yul\":40785:40926   */\n    tag_553:\n        /* \"#utility.yul\":40834:40838   */\n      0x00\n        /* \"#utility.yul\":40857:40860   */\n      dup2\n        /* \"#utility.yul\":40849:40860   */\n      swap1\n      pop\n        /* \"#utility.yul\":40880:40883   */\n      dup2\n        /* \"#utility.yul\":40877:40878   */\n      0x00\n        /* \"#utility.yul\":40870:40884   */\n      mstore\n        /* \"#utility.yul\":40914:40918   */\n      0x20\n        /* \"#utility.yul\":40911:40912   */\n      0x00\n        /* \"#utility.yul\":40901:40919   */\n      keccak256\n        /* \"#utility.yul\":40893:40919   */\n      swap1\n      pop\n        /* \"#utility.yul\":40785:40926   */\n      swap2\n      swap1\n      pop\n      jump\t// out\n        /* \"#utility.yul\":40932:41046   */\n    tag_491:\n        /* \"#utility.yul\":40999:41005   */\n      0x00\n        /* \"#utility.yul\":41033:41038   */\n      dup2\n        /* \"#utility.yul\":41027:41039   */\n      mload\n        /* \"#utility.yul\":41017:41039   */\n      swap1\n      pop\n        /* \"#utility.yul\":40932:41046   */\n      swap2\n      swap1\n      pop\n      jump\t// out\n        /* \"#utility.yul\":41052:41151   */\n    tag_534:\n        /* \"#utility.yul\":41104:41110   */\n      0x00\n        /* \"#utility.yul\":41138:41143   */\n      dup2\n        /* \"#utility.yul\":41132:41144   */\n      mload\n        /* \"#utility.yul\":41122:41144   */\n      swap1\n      pop\n        /* \"#utility.yul\":41052:41151   */\n      swap2\n      swap1\n      pop\n      jump\t// out\n        /* \"#utility.yul\":41157:41270   */\n    tag_501:\n        /* \"#utility.yul\":41227:41231   */\n      0x00\n        /* \"#utility.yul\":41259:41263   */\n      0x20\n        /* \"#utility.yul\":41254:41257   */\n      dup3\n        /* \"#utility.yul\":41250:41264   */\n      add\n        /* \"#utility.yul\":41242:41264   */\n      swap1\n      pop\n        /* \"#utility.yul\":41157:41270   */\n      swap2\n      swap1\n      pop\n      jump\t// out\n        /* \"#utility.yul\":41276:41403   */\n    tag_515:\n        /* \"#utility.yul\":41360:41364   */\n      0x00\n        /* \"#utility.yul\":41392:41396   */\n      0x20\n        /* \"#utility.yul\":41387:41390   */\n      dup3\n        /* \"#utility.yul\":41383:41397   */\n      add\n        /* \"#utility.yul\":41375:41397   */\n      swap1\n      pop\n        /* \"#utility.yul\":41276:41403   */\n      swap2\n      swap1\n      pop\n      jump\t// out\n        /* \"#utility.yul\":41409:41593   */\n    tag_493:\n        /* \"#utility.yul\":41508:41519   */\n      0x00\n        /* \"#utility.yul\":41542:41548   */\n      dup3\n        /* \"#utility.yul\":41537:41540   */\n      dup3\n        /* \"#utility.yul\":41530:41549   */\n      mstore\n        /* \"#utility.yul\":41582:41586   */\n      0x20\n        /* \"#utility.yul\":41577:41580   */\n      dup3\n        /* \"#utility.yul\":41573:41587   */\n      add\n        /* \"#utility.yul\":41558:41587   */\n      swap1\n      pop\n        /* \"#utility.yul\":41409:41593   */\n      swap3\n      swap2\n      pop\n      pop\n      jump\t// out\n        /* \"#utility.yul\":41599:41793   */\n    tag_505:\n        /* \"#utility.yul\":41708:41719   */\n      0x00\n        /* \"#utility.yul\":41742:41748   */\n      dup3\n        /* \"#utility.yul\":41737:41740   */\n      dup3\n        /* \"#utility.yul\":41730:41749   */\n      mstore\n        /* \"#utility.yul\":41782:41786   */\n      0x20\n        /* \"#utility.yul\":41777:41780   */\n      dup3\n        /* \"#utility.yul\":41773:41787   */\n      add\n        /* \"#utility.yul\":41758:41787   */\n      swap1\n      pop\n        /* \"#utility.yul\":41599:41793   */\n      swap3\n      swap2\n      pop\n      pop\n      jump\t// out\n        /* \"#utility.yul\":41799:41958   */\n    tag_522:\n        /* \"#utility.yul\":41873:41884   */\n      0x00\n        /* \"#utility.yul\":41907:41913   */\n      dup3\n        /* \"#utility.yul\":41902:41905   */\n      dup3\n        /* \"#utility.yul\":41895:41914   */\n      mstore\n        /* \"#utility.yul\":41947:41951   */\n      0x20\n        /* \"#utility.yul\":41942:41945   */\n      dup3\n        /* \"#utility.yul\":41938:41952   */\n      add\n        /* \"#utility.yul\":41923:41952   */\n      swap1\n      pop\n        /* \"#utility.yul\":41799:41958   */\n      swap3\n      swap2\n      pop\n      pop\n      jump\t// out\n        /* \"#utility.yul\":41964:42133   */\n    tag_536:\n        /* \"#utility.yul\":42048:42059   */\n      0x00\n        /* \"#utility.yul\":42082:42088   */\n      dup3\n        /* \"#utility.yul\":42077:42080   */\n      dup3\n        /* \"#utility.yul\":42070:42089   */\n      mstore\n        /* \"#utility.yul\":42122:42126   */\n      0x20\n        /* \"#utility.yul\":42117:42120   */\n      dup3\n        /* \"#utility.yul\":42113:42127   */\n      add\n        /* \"#utility.yul\":42098:42127   */\n      swap1\n      pop\n        /* \"#utility.yul\":41964:42133   */\n      swap3\n      swap2\n      pop\n      pop\n      jump\t// out\n        /* \"#utility.yul\":42139:42287   */\n    tag_529:\n        /* \"#utility.yul\":42241:42252   */\n      0x00\n        /* \"#utility.yul\":42278:42281   */\n      dup2\n        /* \"#utility.yul\":42263:42281   */\n      swap1\n      pop\n        /* \"#utility.yul\":42139:42287   */\n      swap3\n      swap2\n      pop\n      pop\n      jump\t// out\n        /* \"#utility.yul\":42293:43008   */\n    tag_512:\n        /* \"#utility.yul\":42358:42363   */\n      0x00\n        /* \"#utility.yul\":42365:42371   */\n      dup1\n        /* \"#utility.yul\":42421:42424   */\n      dup4\n        /* \"#utility.yul\":42408:42425   */\n      calldataload\n        /* \"#utility.yul\":42513:42514   */\n      0x01\n        /* \"#utility.yul\":42507:42511   */\n      0x20\n        /* \"#utility.yul\":42503:42515   */\n      sub\n        /* \"#utility.yul\":42492:42500   */\n      dup5\n        /* \"#utility.yul\":42476:42490   */\n      calldatasize\n        /* \"#utility.yul\":42472:42501   */\n      sub\n        /* \"#utility.yul\":42468:42516   */\n      sub\n        /* \"#utility.yul\":42448:42466   */\n      dup2\n        /* \"#utility.yul\":42444:42517   */\n      slt\n        /* \"#utility.yul\":42434:42602   */\n      tag_808\n      jumpi\n        /* \"#utility.yul\":42521:42600   */\n      tag_809\n      tag_810\n      jump\t// in\n    tag_809:\n        /* \"#utility.yul\":42434:42602   */\n    tag_808:\n        /* \"#utility.yul\":42644:42652   */\n      dup4\n        /* \"#utility.yul\":42624:42642   */\n      dup2\n        /* \"#utility.yul\":42620:42653   */\n      add\n        /* \"#utility.yul\":42611:42653   */\n      swap3\n      pop\n        /* \"#utility.yul\":42686:42691   */\n      dup3\n        /* \"#utility.yul\":42673:42692   */\n      calldataload\n        /* \"#utility.yul\":42663:42692   */\n      swap2\n      pop\n        /* \"#utility.yul\":42721:42725   */\n      0x20\n        /* \"#utility.yul\":42714:42719   */\n      dup4\n        /* \"#utility.yul\":42710:42726   */\n      add\n        /* \"#utility.yul\":42701:42726   */\n      swap3\n      pop\n        /* \"#utility.yul\":42749:42767   */\n      0xffffffffffffffff\n        /* \"#utility.yul\":42741:42747   */\n      dup3\n        /* \"#utility.yul\":42738:42768   */\n      gt\n        /* \"#utility.yul\":42735:42852   */\n      iszero\n      tag_811\n      jumpi\n        /* \"#utility.yul\":42771:42850   */\n      tag_812\n      tag_813\n      jump\t// in\n    tag_812:\n        /* \"#utility.yul\":42735:42852   */\n    tag_811:\n        /* \"#utility.yul\":42910:42914   */\n      0x01\n        /* \"#utility.yul\":42902:42908   */\n      dup3\n        /* \"#utility.yul\":42898:42915   */\n      mul\n        /* \"#utility.yul\":42882:42896   */\n      calldatasize\n        /* \"#utility.yul\":42878:42916   */\n      sub\n        /* \"#utility.yul\":42868:42876   */\n      dup5\n        /* \"#utility.yul\":42864:42917   */\n      sgt\n        /* \"#utility.yul\":42861:43001   */\n      iszero\n      tag_814\n      jumpi\n        /* \"#utility.yul\":42920:42999   */\n      tag_815\n      tag_816\n      jump\t// in\n    tag_815:\n        /* \"#utility.yul\":42861:43001   */\n    tag_814:\n        /* \"#utility.yul\":42372:43008   */\n      pop\n        /* \"#utility.yul\":42293:43008   */\n      swap3\n      pop\n      swap3\n      swap1\n      pop\n      jump\t// out\n        /* \"#utility.yul\":43014:43256   */\n    tag_279:\n        /* \"#utility.yul\":43053:43056   */\n      0x00\n        /* \"#utility.yul\":43072:43091   */\n      tag_818\n        /* \"#utility.yul\":43089:43090   */\n      dup3\n        /* \"#utility.yul\":43072:43091   */\n      tag_669\n      jump\t// in\n    tag_818:\n        /* \"#utility.yul\":43067:43091   */\n      swap2\n      pop\n        /* \"#utility.yul\":43105:43124   */\n      tag_819\n        /* \"#utility.yul\":43122:43123   */\n      dup4\n        /* \"#utility.yul\":43105:43124   */\n      tag_669\n      jump\t// in\n    tag_819:\n        /* \"#utility.yul\":43100:43124   */\n      swap3\n      pop\n        /* \"#utility.yul\":43198:43199   */\n      dup3\n        /* \"#utility.yul\":43190:43196   */\n      0xffff\n        /* \"#utility.yul\":43186:43200   */\n      sub\n        /* \"#utility.yul\":43183:43184   */\n      dup3\n        /* \"#utility.yul\":43180:43201   */\n      gt\n        /* \"#utility.yul\":43177:43224   */\n      iszero\n      tag_820\n      jumpi\n        /* \"#utility.yul\":43204:43222   */\n      tag_821\n      tag_822\n      jump\t// in\n    tag_821:\n        /* \"#utility.yul\":43177:43224   */\n    tag_820:\n        /* \"#utility.yul\":43248:43249   */\n      dup3\n        /* \"#utility.yul\":43245:43246   */\n      dup3\n        /* \"#utility.yul\":43241:43250   */\n      add\n        /* \"#utility.yul\":43234:43250   */\n      swap1\n      pop\n        /* \"#utility.yul\":43014:43256   */\n      swap3\n      swap2\n      pop\n      pop\n      jump\t// out\n        /* \"#utility.yul\":43262:43567   */\n    tag_148:\n        /* \"#utility.yul\":43302:43305   */\n      0x00\n        /* \"#utility.yul\":43321:43341   */\n      tag_824\n        /* \"#utility.yul\":43339:43340   */\n      dup3\n        /* \"#utility.yul\":43321:43341   */\n      tag_673\n      jump\t// in\n    tag_824:\n        /* \"#utility.yul\":43316:43341   */\n      swap2\n      pop\n        /* \"#utility.yul\":43355:43375   */\n      tag_825\n        /* \"#utility.yul\":43373:43374   */\n      dup4\n        /* \"#utility.yul\":43355:43375   */\n      tag_673\n      jump\t// in\n    tag_825:\n        /* \"#utility.yul\":43350:43375   */\n      swap3\n      pop\n        /* \"#utility.yul\":43509:43510   */\n      dup3\n        /* \"#utility.yul\":43441:43507   */\n      0xffffffffffffffffffffffffffffffffffffffffffffffffffffffffffffffff\n        /* \"#utility.yul\":43437:43511   */\n      sub\n        /* \"#utility.yul\":43434:43435   */\n      dup3\n        /* \"#utility.yul\":43431:43512   */\n      gt\n        /* \"#utility.yul\":43428:43535   */\n      iszero\n      tag_826\n      jumpi\n        /* \"#utility.yul\":43515:43533   */\n      tag_827\n      tag_822\n      jump\t// in\n    tag_827:\n        /* \"#utility.yul\":43428:43535   */\n    tag_826:\n        /* \"#utility.yul\":43559:43560   */\n      dup3\n        /* \"#utility.yul\":43556:43557   */\n      dup3\n        /* \"#utility.yul\":43552:43561   */\n      add\n        /* \"#utility.yul\":43545:43561   */\n      swap1\n      pop\n        /* \"#utility.yul\":43262:43567   */\n      swap3\n      swap2\n      pop\n      pop\n      jump\t// out\n        /* \"#utility.yul\":43573:43921   */\n    tag_146:\n        /* \"#utility.yul\":43613:43620   */\n      0x00\n        /* \"#utility.yul\":43636:43656   */\n      tag_829\n        /* \"#utility.yul\":43654:43655   */\n      dup3\n        /* \"#utility.yul\":43636:43656   */\n      tag_673\n      jump\t// in\n    tag_829:\n        /* \"#utility.yul\":43631:43656   */\n      swap2\n      pop\n        /* \"#utility.yul\":43670:43690   */\n      tag_830\n        /* \"#utility.yul\":43688:43689   */\n      dup4\n        /* \"#utility.yul\":43670:43690   */\n      tag_673\n      jump\t// in\n    tag_830:\n        /* \"#utility.yul\":43665:43690   */\n      swap3\n      pop\n        /* \"#utility.yul\":43858:43859   */\n      dup2\n        /* \"#utility.yul\":43790:43856   */\n      0xffffffffffffffffffffffffffffffffffffffffffffffffffffffffffffffff\n        /* \"#utility.yul\":43786:43860   */\n      div\n        /* \"#utility.yul\":43783:43784   */\n      dup4\n        /* \"#utility.yul\":43780:43861   */\n      gt\n        /* \"#utility.yul\":43775:43776   */\n      dup3\n        /* \"#utility.yul\":43768:43777   */\n      iszero\n        /* \"#utility.yul\":43761:43778   */\n      iszero\n        /* \"#utility.yul\":43757:43862   */\n      and\n        /* \"#utility.yul\":43754:43885   */\n      iszero\n      tag_831\n      jumpi\n        /* \"#utility.yul\":43865:43883   */\n      tag_832\n      tag_822\n      jump\t// in\n    tag_832:\n        /* \"#utility.yul\":43754:43885   */\n    tag_831:\n        /* \"#utility.yul\":43913:43914   */\n      dup3\n        /* \"#utility.yul\":43910:43911   */\n      dup3\n        /* \"#utility.yul\":43906:43915   */\n      mul\n        /* \"#utility.yul\":43895:43915   */\n      swap1\n      pop\n        /* \"#utility.yul\":43573:43921   */\n      swap3\n      swap2\n      pop\n      pop\n      jump\t// out\n        /* \"#utility.yul\":43927:44118   */\n    tag_310:\n        /* \"#utility.yul\":43967:43971   */\n      0x00\n        /* \"#utility.yul\":43987:44007   */\n      tag_834\n        /* \"#utility.yul\":44005:44006   */\n      dup3\n        /* \"#utility.yul\":43987:44007   */\n      tag_673\n      jump\t// in\n    tag_834:\n        /* \"#utility.yul\":43982:44007   */\n      swap2\n      pop\n        /* \"#utility.yul\":44021:44041   */\n      tag_835\n        /* \"#utility.yul\":44039:44040   */\n      dup4\n        /* \"#utility.yul\":44021:44041   */\n      tag_673\n      jump\t// in\n    tag_835:\n        /* \"#utility.yul\":44016:44041   */\n      swap3\n      pop\n        /* \"#utility.yul\":44060:44061   */\n      dup3\n        /* \"#utility.yul\":44057:44058   */\n      dup3\n        /* \"#utility.yul\":44054:44062   */\n      lt\n        /* \"#utility.yul\":44051:44085   */\n      iszero\n      tag_836\n      jumpi\n        /* \"#utility.yul\":44065:44083   */\n      tag_837\n      tag_822\n      jump\t// in\n    tag_837:\n        /* \"#utility.yul\":44051:44085   */\n    tag_836:\n        /* \"#utility.yul\":44110:44111   */\n      dup3\n        /* \"#utility.yul\":44107:44108   */\n      dup3\n        /* \"#utility.yul\":44103:44112   */\n      sub\n        /* \"#utility.yul\":44095:44112   */\n      swap1\n      pop\n        /* \"#utility.yul\":43927:44118   */\n      swap3\n      swap2\n      pop\n      pop\n      jump\t// out\n        /* \"#utility.yul\":44124:44220   */\n    tag_484:\n        /* \"#utility.yul\":44161:44168   */\n      0x00\n        /* \"#utility.yul\":44190:44214   */\n      tag_839\n        /* \"#utility.yul\":44208:44213   */\n      dup3\n        /* \"#utility.yul\":44190:44214   */\n      tag_840\n      jump\t// in\n    tag_839:\n        /* \"#utility.yul\":44179:44214   */\n      swap1\n      pop\n        /* \"#utility.yul\":44124:44220   */\n      swap2\n      swap1\n      pop\n      jump\t// out\n        /* \"#utility.yul\":44226:44316   */\n    tag_519:\n        /* \"#utility.yul\":44260:44267   */\n      0x00\n        /* \"#utility.yul\":44303:44308   */\n      dup2\n        /* \"#utility.yul\":44296:44309   */\n      iszero\n        /* \"#utility.yul\":44289:44310   */\n      iszero\n        /* \"#utility.yul\":44278:44310   */\n      swap1\n      pop\n        /* \"#utility.yul\":44226:44316   */\n      swap2\n      swap1\n      pop\n      jump\t// out\n        /* \"#utility.yul\":44322:44440   */\n    tag_665:\n        /* \"#utility.yul\":44359:44366   */\n      0x00\n        /* \"#utility.yul\":44399:44433   */\n      0xffffffffffffffffffffffffffffffff\n        /* \"#utility.yul\":44392:44397   */\n      dup3\n        /* \"#utility.yul\":44388:44434   */\n      and\n        /* \"#utility.yul\":44377:44434   */\n      swap1\n      pop\n        /* \"#utility.yul\":44322:44440   */\n      swap2\n      swap1\n      pop\n      jump\t// out\n        /* \"#utility.yul\":44446:44535   */\n    tag_669:\n        /* \"#utility.yul\":44482:44489   */\n      0x00\n        /* \"#utility.yul\":44522:44528   */\n      0xffff\n        /* \"#utility.yul\":44515:44520   */\n      dup3\n        /* \"#utility.yul\":44511:44529   */\n      and\n        /* \"#utility.yul\":44500:44529   */\n      swap1\n      pop\n        /* \"#utility.yul\":44446:44535   */\n      swap2\n      swap1\n      pop\n      jump\t// out\n        /* \"#utility.yul\":44541:44667   */\n    tag_840:\n        /* \"#utility.yul\":44578:44585   */\n      0x00\n        /* \"#utility.yul\":44618:44660   */\n      0xffffffffffffffffffffffffffffffffffffffff\n        /* \"#utility.yul\":44611:44616   */\n      dup3\n        /* \"#utility.yul\":44607:44661   */\n      and\n        /* \"#utility.yul\":44596:44661   */\n      swap1\n      pop\n        /* \"#utility.yul\":44541:44667   */\n      swap2\n      swap1\n      pop\n      jump\t// out\n        /* \"#utility.yul\":44673:44750   */\n    tag_673:\n        /* \"#utility.yul\":44710:44717   */\n      0x00\n        /* \"#utility.yul\":44739:44744   */\n      dup2\n        /* \"#utility.yul\":44728:44744   */\n      swap1\n      pop\n        /* \"#utility.yul\":44673:44750   */\n      swap2\n      swap1\n      pop\n      jump\t// out\n        /* \"#utility.yul\":44756:44842   */\n    tag_677:\n        /* \"#utility.yul\":44791:44798   */\n      0x00\n        /* \"#utility.yul\":44831:44835   */\n      0xff\n        /* \"#utility.yul\":44824:44829   */\n      dup3\n        /* \"#utility.yul\":44820:44836   */\n      and\n        /* \"#utility.yul\":44809:44836   */\n      swap1\n      pop\n        /* \"#utility.yul\":44756:44842   */\n      swap2\n      swap1\n      pop\n      jump\t// out\n        /* \"#utility.yul\":44848:45002   */\n    tag_387:\n        /* \"#utility.yul\":44932:44938   */\n      dup3\n        /* \"#utility.yul\":44927:44930   */\n      dup2\n        /* \"#utility.yul\":44922:44925   */\n      dup4\n        /* \"#utility.yul\":44909:44939   */\n      calldatacopy\n        /* \"#utility.yul\":44994:44995   */\n      0x00\n        /* \"#utility.yul\":44985:44991   */\n      dup4\n        /* \"#utility.yul\":44980:44983   */\n      dup4\n        /* \"#utility.yul\":44976:44992   */\n      add\n        /* \"#utility.yul\":44969:44996   */\n      mstore\n        /* \"#utility.yul\":44848:45002   */\n      pop\n      pop\n      pop\n      jump\t// out\n        /* \"#utility.yul\":45008:45315   */\n    tag_538:\n        /* \"#utility.yul\":45076:45077   */\n      0x00\n        /* \"#utility.yul\":45086:45199   */\n    tag_849:\n        /* \"#utility.yul\":45100:45106   */\n      dup4\n        /* \"#utility.yul\":45097:45098   */\n      dup2\n        /* \"#utility.yul\":45094:45107   */\n      lt\n        /* \"#utility.yul\":45086:45199   */\n      iszero\n      tag_851\n      jumpi\n        /* \"#utility.yul\":45185:45186   */\n      dup1\n        /* \"#utility.yul\":45180:45183   */\n      dup3\n        /* \"#utility.yul\":45176:45187   */\n      add\n        /* \"#utility.yul\":45170:45188   */\n      mload\n        /* \"#utility.yul\":45166:45167   */\n      dup2\n        /* \"#utility.yul\":45161:45164   */\n      dup5\n        /* \"#utility.yul\":45157:45168   */\n      add\n        /* \"#utility.yul\":45150:45189   */\n      mstore\n        /* \"#utility.yul\":45122:45124   */\n      0x20\n        /* \"#utility.yul\":45119:45120   */\n      dup2\n        /* \"#utility.yul\":45115:45125   */\n      add\n        /* \"#utility.yul\":45110:45125   */\n      swap1\n      pop\n        /* \"#utility.yul\":45086:45199   */\n      jump(tag_849)\n    tag_851:\n        /* \"#utility.yul\":45217:45223   */\n      dup4\n        /* \"#utility.yul\":45214:45215   */\n      dup2\n        /* \"#utility.yul\":45211:45224   */\n      gt\n        /* \"#utility.yul\":45208:45309   */\n      iszero\n      tag_852\n      jumpi\n        /* \"#utility.yul\":45297:45298   */\n      0x00\n        /* \"#utility.yul\":45288:45294   */\n      dup5\n        /* \"#utility.yul\":45283:45286   */\n      dup5\n        /* \"#utility.yul\":45279:45295   */\n      add\n        /* \"#utility.yul\":45272:45299   */\n      mstore\n        /* \"#utility.yul\":45208:45309   */\n    tag_852:\n        /* \"#utility.yul\":45057:45315   */\n      pop\n        /* \"#utility.yul\":45008:45315   */\n      pop\n      pop\n      pop\n      jump\t// out\n        /* \"#utility.yul\":45321:45641   */\n    tag_73:\n        /* \"#utility.yul\":45365:45371   */\n      0x00\n        /* \"#utility.yul\":45402:45403   */\n      0x02\n        /* \"#utility.yul\":45396:45400   */\n      dup3\n        /* \"#utility.yul\":45392:45404   */\n      div\n        /* \"#utility.yul\":45382:45404   */\n      swap1\n      pop\n        /* \"#utility.yul\":45449:45450   */\n      0x01\n        /* \"#utility.yul\":45443:45447   */\n      dup3\n        /* \"#utility.yul\":45439:45451   */\n      and\n        /* \"#utility.yul\":45470:45488   */\n      dup1\n        /* \"#utility.yul\":45460:45541   */\n      tag_854\n      jumpi\n        /* \"#utility.yul\":45526:45530   */\n      0x7f\n        /* \"#utility.yul\":45518:45524   */\n      dup3\n        /* \"#utility.yul\":45514:45531   */\n      and\n        /* \"#utility.yul\":45504:45531   */\n      swap2\n      pop\n        /* \"#utility.yul\":45460:45541   */\n    tag_854:\n        /* \"#utility.yul\":45588:45590   */\n      0x20\n        /* \"#utility.yul\":45580:45586   */\n      dup3\n        /* \"#utility.yul\":45577:45591   */\n      lt\n        /* \"#utility.yul\":45557:45575   */\n      dup2\n        /* \"#utility.yul\":45554:45592   */\n      eq\n        /* \"#utility.yul\":45551:45635   */\n      iszero\n      tag_855\n      jumpi\n        /* \"#utility.yul\":45607:45625   */\n      tag_856\n      tag_857\n      jump\t// in\n    tag_856:\n        /* \"#utility.yul\":45551:45635   */\n    tag_855:\n        /* \"#utility.yul\":45372:45641   */\n      pop\n        /* \"#utility.yul\":45321:45641   */\n      swap2\n      swap1\n      pop\n      jump\t// out\n        /* \"#utility.yul\":45647:45928   */\n    tag_779:\n        /* \"#utility.yul\":45730:45757   */\n      tag_859\n        /* \"#utility.yul\":45752:45756   */\n      dup3\n        /* \"#utility.yul\":45730:45757   */\n      tag_525\n      jump\t// in\n    tag_859:\n        /* \"#utility.yul\":45722:45728   */\n      dup2\n        /* \"#utility.yul\":45718:45758   */\n      add\n        /* \"#utility.yul\":45860:45866   */\n      dup2\n        /* \"#utility.yul\":45848:45858   */\n      dup2\n        /* \"#utility.yul\":45845:45867   */\n      lt\n        /* \"#utility.yul\":45824:45842   */\n      0xffffffffffffffff\n        /* \"#utility.yul\":45812:45822   */\n      dup3\n        /* \"#utility.yul\":45809:45843   */\n      gt\n        /* \"#utility.yul\":45806:45868   */\n      or\n        /* \"#utility.yul\":45803:45891   */\n      iszero\n      tag_860\n      jumpi\n        /* \"#utility.yul\":45871:45889   */\n      tag_861\n      tag_784\n      jump\t// in\n    tag_861:\n        /* \"#utility.yul\":45803:45891   */\n    tag_860:\n        /* \"#utility.yul\":45911:45921   */\n      dup1\n        /* \"#utility.yul\":45907:45909   */\n      0x40\n        /* \"#utility.yul\":45900:45922   */\n      mstore\n        /* \"#utility.yul\":45690:45928   */\n      pop\n        /* \"#utility.yul\":45647:45928   */\n      pop\n      pop\n      jump\t// out\n        /* \"#utility.yul\":45934:46135   */\n    tag_223:\n        /* \"#utility.yul\":45973:45976   */\n      0x00\n        /* \"#utility.yul\":45996:46020   */\n      tag_863\n        /* \"#utility.yul\":46014:46019   */\n      dup3\n        /* \"#utility.yul\":45996:46020   */\n      tag_665\n      jump\t// in\n    tag_863:\n        /* \"#utility.yul\":45987:46020   */\n      swap2\n      pop\n        /* \"#utility.yul\":46042:46076   */\n      0xffffffffffffffffffffffffffffffff\n        /* \"#utility.yul\":46035:46040   */\n      dup3\n        /* \"#utility.yul\":46032:46077   */\n      eq\n        /* \"#utility.yul\":46029:46100   */\n      iszero\n      tag_864\n      jumpi\n        /* \"#utility.yul\":46080:46098   */\n      tag_865\n      tag_822\n      jump\t// in\n    tag_865:\n        /* \"#utility.yul\":46029:46100   */\n    tag_864:\n        /* \"#utility.yul\":46127:46128   */\n      0x01\n        /* \"#utility.yul\":46120:46125   */\n      dup3\n        /* \"#utility.yul\":46116:46129   */\n      add\n        /* \"#utility.yul\":46109:46129   */\n      swap1\n      pop\n        /* \"#utility.yul\":45934:46135   */\n      swap2\n      swap1\n      pop\n      jump\t// out\n        /* \"#utility.yul\":46141:46312   */\n    tag_251:\n        /* \"#utility.yul\":46179:46182   */\n      0x00\n        /* \"#utility.yul\":46202:46225   */\n      tag_867\n        /* \"#utility.yul\":46219:46224   */\n      dup3\n        /* \"#utility.yul\":46202:46225   */\n      tag_669\n      jump\t// in\n    tag_867:\n        /* \"#utility.yul\":46193:46225   */\n      swap2\n      pop\n        /* \"#utility.yul\":46247:46253   */\n      0xffff\n        /* \"#utility.yul\":46240:46245   */\n      dup3\n        /* \"#utility.yul\":46237:46254   */\n      eq\n        /* \"#utility.yul\":46234:46277   */\n      iszero\n      tag_868\n      jumpi\n        /* \"#utility.yul\":46257:46275   */\n      tag_869\n      tag_822\n      jump\t// in\n    tag_869:\n        /* \"#utility.yul\":46234:46277   */\n    tag_868:\n        /* \"#utility.yul\":46304:46305   */\n      0x01\n        /* \"#utility.yul\":46297:46302   */\n      dup3\n        /* \"#utility.yul\":46293:46306   */\n      add\n        /* \"#utility.yul\":46286:46306   */\n      swap1\n      pop\n        /* \"#utility.yul\":46141:46312   */\n      swap2\n      swap1\n      pop\n      jump\t// out\n        /* \"#utility.yul\":46318:46551   */\n    tag_97:\n        /* \"#utility.yul\":46357:46360   */\n      0x00\n        /* \"#utility.yul\":46380:46404   */\n      tag_871\n        /* \"#utility.yul\":46398:46403   */\n      dup3\n        /* \"#utility.yul\":46380:46404   */\n      tag_673\n      jump\t// in\n    tag_871:\n        /* \"#utility.yul\":46371:46404   */\n      swap2\n      pop\n        /* \"#utility.yul\":46426:46492   */\n      0xffffffffffffffffffffffffffffffffffffffffffffffffffffffffffffffff\n        /* \"#utility.yul\":46419:46424   */\n      dup3\n        /* \"#utility.yul\":46416:46493   */\n      eq\n        /* \"#utility.yul\":46413:46516   */\n      iszero\n      tag_872\n      jumpi\n        /* \"#utility.yul\":46496:46514   */\n      tag_873\n      tag_822\n      jump\t// in\n    tag_873:\n        /* \"#utility.yul\":46413:46516   */\n    tag_872:\n        /* \"#utility.yul\":46543:46544   */\n      0x01\n        /* \"#utility.yul\":46536:46541   */\n      dup3\n        /* \"#utility.yul\":46532:46545   */\n      add\n        /* \"#utility.yul\":46525:46545   */\n      swap1\n      pop\n        /* \"#utility.yul\":46318:46551   */\n      swap2\n      swap1\n      pop\n      jump\t// out\n        /* \"#utility.yul\":46557:46737   */\n    tag_822:\n        /* \"#utility.yul\":46605:46682   */\n      0x4e487b7100000000000000000000000000000000000000000000000000000000\n        /* \"#utility.yul\":46602:46603   */\n      0x00\n        /* \"#utility.yul\":46595:46683   */\n      mstore\n        /* \"#utility.yul\":46702:46706   */\n      0x11\n        /* \"#utility.yul\":46699:46700   */\n      0x04\n        /* \"#utility.yul\":46692:46707   */\n      mstore\n        /* \"#utility.yul\":46726:46730   */\n      0x24\n        /* \"#utility.yul\":46723:46724   */\n      0x00\n        /* \"#utility.yul\":46716:46731   */\n      revert\n        /* \"#utility.yul\":46743:46923   */\n    tag_857:\n        /* \"#utility.yul\":46791:46868   */\n      0x4e487b7100000000000000000000000000000000000000000000000000000000\n        /* \"#utility.yul\":46788:46789   */\n      0x00\n        /* \"#utility.yul\":46781:46869   */\n      mstore\n        /* \"#utility.yul\":46888:46892   */\n      0x22\n        /* \"#utility.yul\":46885:46886   */\n      0x04\n        /* \"#utility.yul\":46878:46893   */\n      mstore\n        /* \"#utility.yul\":46912:46916   */\n      0x24\n        /* \"#utility.yul\":46909:46910   */\n      0x00\n        /* \"#utility.yul\":46902:46917   */\n      revert\n        /* \"#utility.yul\":46929:47109   */\n    tag_108:\n        /* \"#utility.yul\":46977:47054   */\n      0x4e487b7100000000000000000000000000000000000000000000000000000000\n        /* \"#utility.yul\":46974:46975   */\n      0x00\n        /* \"#utility.yul\":46967:47055   */\n      mstore\n        /* \"#utility.yul\":47074:47078   */\n      0x32\n        /* \"#utility.yul\":47071:47072   */\n      0x04\n        /* \"#utility.yul\":47064:47079   */\n      mstore\n        /* \"#utility.yul\":47098:47102   */\n      0x24\n        /* \"#utility.yul\":47095:47096   */\n      0x00\n        /* \"#utility.yul\":47088:47103   */\n      revert\n        /* \"#utility.yul\":47115:47295   */\n    tag_784:\n        /* \"#utility.yul\":47163:47240   */\n      0x4e487b7100000000000000000000000000000000000000000000000000000000\n        /* \"#utility.yul\":47160:47161   */\n      0x00\n        /* \"#utility.yul\":47153:47241   */\n      mstore\n        /* \"#utility.yul\":47260:47264   */\n      0x41\n        /* \"#utility.yul\":47257:47258   */\n      0x04\n        /* \"#utility.yul\":47250:47265   */\n      mstore\n        /* \"#utility.yul\":47284:47288   */\n      0x24\n        /* \"#utility.yul\":47281:47282   */\n      0x00\n        /* \"#utility.yul\":47274:47289   */\n      revert\n        /* \"#utility.yul\":47301:47418   */\n    tag_813:\n        /* \"#utility.yul\":47410:47411   */\n      0x00\n        /* \"#utility.yul\":47407:47408   */\n      dup1\n        /* \"#utility.yul\":47400:47412   */\n      revert\n        /* \"#utility.yul\":47424:47541   */\n    tag_402:\n        /* \"#utility.yul\":47533:47534   */\n      0x00\n        /* \"#utility.yul\":47530:47531   */\n      dup1\n        /* \"#utility.yul\":47523:47535   */\n      revert\n        /* \"#utility.yul\":47547:47664   */\n    tag_363:\n        /* \"#utility.yul\":47656:47657   */\n      0x00\n        /* \"#utility.yul\":47653:47654   */\n      dup1\n        /* \"#utility.yul\":47646:47658   */\n      revert\n        /* \"#utility.yul\":47670:47787   */\n    tag_771:\n        /* \"#utility.yul\":47779:47780   */\n      0x00\n        /* \"#utility.yul\":47776:47777   */\n      dup1\n        /* \"#utility.yul\":47769:47781   */\n      revert\n        /* \"#utility.yul\":47793:47910   */\n    tag_768:\n        /* \"#utility.yul\":47902:47903   */\n      0x00\n        /* \"#utility.yul\":47899:47900   */\n      dup1\n        /* \"#utility.yul\":47892:47904   */\n      revert\n        /* \"#utility.yul\":47916:48033   */\n    tag_816:\n        /* \"#utility.yul\":48025:48026   */\n      0x00\n        /* \"#utility.yul\":48022:48023   */\n      dup1\n        /* \"#utility.yul\":48015:48027   */\n      revert\n        /* \"#utility.yul\":48039:48156   */\n    tag_345:\n        /* \"#utility.yul\":48148:48149   */\n      0x00\n        /* \"#utility.yul\":48145:48146   */\n      dup1\n        /* \"#utility.yul\":48138:48150   */\n      revert\n        /* \"#utility.yul\":48162:48279   */\n    tag_774:\n        /* \"#utility.yul\":48271:48272   */\n      0x00\n        /* \"#utility.yul\":48268:48269   */\n      dup1\n        /* \"#utility.yul\":48261:48273   */\n      revert\n        /* \"#utility.yul\":48285:48402   */\n    tag_385:\n        /* \"#utility.yul\":48394:48395   */\n      0x00\n        /* \"#utility.yul\":48391:48392   */\n      dup1\n        /* \"#utility.yul\":48384:48396   */\n      revert\n        /* \"#utility.yul\":48408:48525   */\n    tag_452:\n        /* \"#utility.yul\":48517:48518   */\n      0x00\n        /* \"#utility.yul\":48514:48515   */\n      dup1\n        /* \"#utility.yul\":48507:48519   */\n      revert\n        /* \"#utility.yul\":48531:48648   */\n    tag_810:\n        /* \"#utility.yul\":48640:48641   */\n      0x00\n        /* \"#utility.yul\":48637:48638   */\n      dup1\n        /* \"#utility.yul\":48630:48642   */\n      revert\n        /* \"#utility.yul\":48654:48771   */\n    tag_429:\n        /* \"#utility.yul\":48763:48764   */\n      0x00\n        /* \"#utility.yul\":48760:48761   */\n      dup1\n        /* \"#utility.yul\":48753:48765   */\n      revert\n        /* \"#utility.yul\":48777:48879   */\n    tag_525:\n        /* \"#utility.yul\":48818:48824   */\n      0x00\n        /* \"#utility.yul\":48869:48871   */\n      0x1f\n        /* \"#utility.yul\":48865:48872   */\n      not\n        /* \"#utility.yul\":48860:48862   */\n      0x1f\n        /* \"#utility.yul\":48853:48858   */\n      dup4\n        /* \"#utility.yul\":48849:48863   */\n      add\n        /* \"#utility.yul\":48845:48873   */\n      and\n        /* \"#utility.yul\":48835:48873   */\n      swap1\n      pop\n        /* \"#utility.yul\":48777:48879   */\n      swap2\n      swap1\n      pop\n      jump\t// out\n        /* \"#utility.yul\":48885:49053   */\n    tag_561:\n        /* \"#utility.yul\":49025:49045   */\n      0x50726f706f73616c3a20696e6163746976650000000000000000000000000000\n        /* \"#utility.yul\":49021:49022   */\n      0x00\n        /* \"#utility.yul\":49013:49019   */\n      dup3\n        /* \"#utility.yul\":49009:49023   */\n      add\n        /* \"#utility.yul\":49002:49046   */\n      mstore\n        /* \"#utility.yul\":48885:49053   */\n      pop\n      jump\t// out\n        /* \"#utility.yul\":49059:49290   */\n    tag_566:\n        /* \"#utility.yul\":49199:49233   */\n      0x456e642074696d652073686f756c642062652067726561746572207468616e20\n        /* \"#utility.yul\":49195:49196   */\n      0x00\n        /* \"#utility.yul\":49187:49193   */\n      dup3\n        /* \"#utility.yul\":49183:49197   */\n      add\n        /* \"#utility.yul\":49176:49234   */\n      mstore\n        /* \"#utility.yul\":49268:49282   */\n      0x63757272656e742074696d650000000000000000000000000000000000000000\n        /* \"#utility.yul\":49263:49265   */\n      0x20\n        /* \"#utility.yul\":49255:49261   */\n      dup3\n        /* \"#utility.yul\":49251:49266   */\n      add\n        /* \"#utility.yul\":49244:49283   */\n      mstore\n        /* \"#utility.yul\":49059:49290   */\n      pop\n      jump\t// out\n        /* \"#utility.yul\":49296:49517   */\n    tag_571:\n        /* \"#utility.yul\":49436:49470   */\n      0x45524332303a206275726e20616d6f756e7420657863656564732062616c616e\n        /* \"#utility.yul\":49432:49433   */\n      0x00\n        /* \"#utility.yul\":49424:49430   */\n      dup3\n        /* \"#utility.yul\":49420:49434   */\n      add\n        /* \"#utility.yul\":49413:49471   */\n      mstore\n        /* \"#utility.yul\":49505:49509   */\n      0x6365000000000000000000000000000000000000000000000000000000000000\n        /* \"#utility.yul\":49500:49502   */\n      0x20\n        /* \"#utility.yul\":49492:49498   */\n      dup3\n        /* \"#utility.yul\":49488:49503   */\n      add\n        /* \"#utility.yul\":49481:49510   */\n      mstore\n        /* \"#utility.yul\":49296:49517   */\n      pop\n      jump\t// out\n        /* \"#utility.yul\":49523:49686   */\n    tag_576:\n        /* \"#utility.yul\":49663:49678   */\n      0x616c726561647920766f74656400000000000000000000000000000000000000\n        /* \"#utility.yul\":49659:49660   */\n      0x00\n        /* \"#utility.yul\":49651:49657   */\n      dup3\n        /* \"#utility.yul\":49647:49661   */\n      add\n        /* \"#utility.yul\":49640:49679   */\n      mstore\n        /* \"#utility.yul\":49523:49686   */\n      pop\n      jump\t// out\n        /* \"#utility.yul\":49692:49862   */\n    tag_581:\n        /* \"#utility.yul\":49832:49854   */\n      0x6e6f7420612076616c69642070726f706f73616c000000000000000000000000\n        /* \"#utility.yul\":49828:49829   */\n      0x00\n        /* \"#utility.yul\":49820:49826   */\n      dup3\n        /* \"#utility.yul\":49816:49830   */\n      add\n        /* \"#utility.yul\":49809:49855   */\n      mstore\n        /* \"#utility.yul\":49692:49862   */\n      pop\n      jump\t// out\n        /* \"#utility.yul\":49868:50090   */\n    tag_586:\n        /* \"#utility.yul\":50008:50042   */\n      0x6e6f7420612076616c696420766f74657220666f7220746869732070726f706f\n        /* \"#utility.yul\":50004:50005   */\n      0x00\n        /* \"#utility.yul\":49996:50002   */\n      dup3\n        /* \"#utility.yul\":49992:50006   */\n      add\n        /* \"#utility.yul\":49985:50043   */\n      mstore\n        /* \"#utility.yul\":50077:50082   */\n      0x73616c0000000000000000000000000000000000000000000000000000000000\n        /* \"#utility.yul\":50072:50074   */\n      0x20\n        /* \"#utility.yul\":50064:50070   */\n      dup3\n        /* \"#utility.yul\":50060:50075   */\n      add\n        /* \"#utility.yul\":50053:50083   */\n      mstore\n        /* \"#utility.yul\":49868:50090   */\n      pop\n      jump\t// out\n        /* \"#utility.yul\":50096:50275   */\n    tag_591:\n        /* \"#utility.yul\":50236:50267   */\n      0x50726f706f73616c3a20696e76616c6964206f7074696f6e6964617465000000\n        /* \"#utility.yul\":50232:50233   */\n      0x00\n        /* \"#utility.yul\":50224:50230   */\n      dup3\n        /* \"#utility.yul\":50220:50234   */\n      add\n        /* \"#utility.yul\":50213:50268   */\n      mstore\n        /* \"#utility.yul\":50096:50275   */\n      pop\n      jump\t// out\n        /* \"#utility.yul\":50281:50455   */\n    tag_596:\n        /* \"#utility.yul\":50421:50447   */\n      0x70726f706f73616c206e6f742073746172746564207965740000000000000000\n        /* \"#utility.yul\":50417:50418   */\n      0x00\n        /* \"#utility.yul\":50409:50415   */\n      dup3\n        /* \"#utility.yul\":50405:50419   */\n      add\n        /* \"#utility.yul\":50398:50448   */\n      mstore\n        /* \"#utility.yul\":50281:50455   */\n      pop\n      jump\t// out\n        /* \"#utility.yul\":50461:50631   */\n    tag_601:\n        /* \"#utility.yul\":50601:50623   */\n      0x70726f706f73616c206e6f742073746172746564000000000000000000000000\n        /* \"#utility.yul\":50597:50598   */\n      0x00\n        /* \"#utility.yul\":50589:50595   */\n      dup3\n        /* \"#utility.yul\":50585:50599   */\n      add\n        /* \"#utility.yul\":50578:50624   */\n      mstore\n        /* \"#utility.yul\":50461:50631   */\n      pop\n      jump\t// out\n        /* \"#utility.yul\":50637:50859   */\n    tag_606:\n        /* \"#utility.yul\":50777:50811   */\n      0x4e6f7420612076616c696420766f74657220666f7220746869732070726f706f\n        /* \"#utility.yul\":50773:50774   */\n      0x00\n        /* \"#utility.yul\":50765:50771   */\n      dup3\n        /* \"#utility.yul\":50761:50775   */\n      add\n        /* \"#utility.yul\":50754:50812   */\n      mstore\n        /* \"#utility.yul\":50846:50851   */\n      0x73616c0000000000000000000000000000000000000000000000000000000000\n        /* \"#utility.yul\":50841:50843   */\n      0x20\n        /* \"#utility.yul\":50833:50839   */\n      dup3\n        /* \"#utility.yul\":50829:50844   */\n      add\n        /* \"#utility.yul\":50822:50852   */\n      mstore\n        /* \"#utility.yul\":50637:50859   */\n      pop\n      jump\t// out\n        /* \"#utility.yul\":50865:51033   */\n    tag_611:\n        /* \"#utility.yul\":51005:51025   */\n      0x696e76616c69642070726f706f73616c49640000000000000000000000000000\n        /* \"#utility.yul\":51001:51002   */\n      0x00\n        /* \"#utility.yul\":50993:50999   */\n      dup3\n        /* \"#utility.yul\":50989:51003   */\n      add\n        /* \"#utility.yul\":50982:51026   */\n      mstore\n        /* \"#utility.yul\":50865:51033   */\n      pop\n      jump\t// out\n        /* \"#utility.yul\":51039:51261   */\n    tag_616:\n        /* \"#utility.yul\":51179:51213   */\n      0x6e6f742073756666696369656e742062616c616e636520746f20636173742076\n        /* \"#utility.yul\":51175:51176   */\n      0x00\n        /* \"#utility.yul\":51167:51173   */\n      dup3\n        /* \"#utility.yul\":51163:51177   */\n      add\n        /* \"#utility.yul\":51156:51214   */\n      mstore\n        /* \"#utility.yul\":51248:51253   */\n      0x6f74650000000000000000000000000000000000000000000000000000000000\n        /* \"#utility.yul\":51243:51245   */\n      0x20\n        /* \"#utility.yul\":51235:51241   */\n      dup3\n        /* \"#utility.yul\":51231:51246   */\n      add\n        /* \"#utility.yul\":51224:51254   */\n      mstore\n        /* \"#utility.yul\":51039:51261   */\n      pop\n      jump\t// out\n        /* \"#utility.yul\":51267:51496   */\n    tag_621:\n        /* \"#utility.yul\":51407:51441   */\n      0x456e642074696d652073686f756c642062652067726561746572207468616e20\n        /* \"#utility.yul\":51403:51404   */\n      0x00\n        /* \"#utility.yul\":51395:51401   */\n      dup3\n        /* \"#utility.yul\":51391:51405   */\n      add\n        /* \"#utility.yul\":51384:51442   */\n      mstore\n        /* \"#utility.yul\":51476:51488   */\n      0x73746172742074696d6500000000000000000000000000000000000000000000\n        /* \"#utility.yul\":51471:51473   */\n      0x20\n        /* \"#utility.yul\":51463:51469   */\n      dup3\n        /* \"#utility.yul\":51459:51474   */\n      add\n        /* \"#utility.yul\":51452:51489   */\n      mstore\n        /* \"#utility.yul\":51267:51496   */\n      pop\n      jump\t// out\n        /* \"#utility.yul\":51502:51722   */\n    tag_626:\n        /* \"#utility.yul\":51642:51676   */\n      0x45524332303a206275726e2066726f6d20746865207a65726f20616464726573\n        /* \"#utility.yul\":51638:51639   */\n      0x00\n        /* \"#utility.yul\":51630:51636   */\n      dup3\n        /* \"#utility.yul\":51626:51640   */\n      add\n        /* \"#utility.yul\":51619:51677   */\n      mstore\n        /* \"#utility.yul\":51711:51714   */\n      0x7300000000000000000000000000000000000000000000000000000000000000\n        /* \"#utility.yul\":51706:51708   */\n      0x20\n        /* \"#utility.yul\":51698:51704   */\n      dup3\n        /* \"#utility.yul\":51694:51709   */\n      add\n        /* \"#utility.yul\":51687:51715   */\n      mstore\n        /* \"#utility.yul\":51502:51722   */\n      pop\n      jump\t// out\n        /* \"#utility.yul\":51728:51951   */\n    tag_631:\n        /* \"#utility.yul\":51868:51902   */\n      0x6e6f7420612076616c6964206c656e677468206f66206861736820726573706f\n        /* \"#utility.yul\":51864:51865   */\n      0x00\n        /* \"#utility.yul\":51856:51862   */\n      dup3\n        /* \"#utility.yul\":51852:51866   */\n      add\n        /* \"#utility.yul\":51845:51903   */\n      mstore\n        /* \"#utility.yul\":51937:51943   */\n      0x6e73652100000000000000000000000000000000000000000000000000000000\n        /* \"#utility.yul\":51932:51934   */\n      0x20\n        /* \"#utility.yul\":51924:51930   */\n      dup3\n        /* \"#utility.yul\":51920:51935   */\n      add\n        /* \"#utility.yul\":51913:51944   */\n      mstore\n        /* \"#utility.yul\":51728:51951   */\n      pop\n      jump\t// out\n        /* \"#utility.yul\":51957:52120   */\n    tag_636:\n        /* \"#utility.yul\":52097:52112   */\n      0x6e6f7420766f7465642079657400000000000000000000000000000000000000\n        /* \"#utility.yul\":52093:52094   */\n      0x00\n        /* \"#utility.yul\":52085:52091   */\n      dup3\n        /* \"#utility.yul\":52081:52095   */\n      add\n        /* \"#utility.yul\":52074:52113   */\n      mstore\n        /* \"#utility.yul\":51957:52120   */\n      pop\n      jump\t// out\n        /* \"#utility.yul\":52126:52280   */\n    tag_641:\n        /* \"#utility.yul\":52266:52272   */\n      0x6d696e7400000000000000000000000000000000000000000000000000000000\n        /* \"#utility.yul\":52262:52263   */\n      0x00\n        /* \"#utility.yul\":52254:52260   */\n      dup3\n        /* \"#utility.yul\":52250:52264   */\n      add\n        /* \"#utility.yul\":52243:52273   */\n      mstore\n        /* \"#utility.yul\":52126:52280   */\n      pop\n      jump\t// out\n        /* \"#utility.yul\":52286:52465   */\n    tag_646:\n        /* \"#utility.yul\":52426:52457   */\n      0x496e76616c696420766f74657220666f722070726f706f73616c496421000000\n        /* \"#utility.yul\":52422:52423   */\n      0x00\n        /* \"#utility.yul\":52414:52420   */\n      dup3\n        /* \"#utility.yul\":52410:52424   */\n      add\n        /* \"#utility.yul\":52403:52458   */\n      mstore\n        /* \"#utility.yul\":52286:52465   */\n      pop\n      jump\t// out\n        /* \"#utility.yul\":52471:52625   */\n    tag_651:\n        /* \"#utility.yul\":52611:52617   */\n      0x6275726e00000000000000000000000000000000000000000000000000000000\n        /* \"#utility.yul\":52607:52608   */\n      0x00\n        /* \"#utility.yul\":52599:52605   */\n      dup3\n        /* \"#utility.yul\":52595:52609   */\n      add\n        /* \"#utility.yul\":52588:52618   */\n      mstore\n        /* \"#utility.yul\":52471:52625   */\n      pop\n      jump\t// out\n        /* \"#utility.yul\":52631:52790   */\n    tag_656:\n        /* \"#utility.yul\":52771:52782   */\n      0x6e6f7420766f7465640000000000000000000000000000000000000000000000\n        /* \"#utility.yul\":52767:52768   */\n      0x00\n        /* \"#utility.yul\":52759:52765   */\n      dup3\n        /* \"#utility.yul\":52755:52769   */\n      add\n        /* \"#utility.yul\":52748:52783   */\n      mstore\n        /* \"#utility.yul\":52631:52790   */\n      pop\n      jump\t// out\n        /* \"#utility.yul\":52796:52977   */\n    tag_661:\n        /* \"#utility.yul\":52936:52969   */\n      0x45524332303a206d696e7420746f20746865207a65726f206164647265737300\n        /* \"#utility.yul\":52932:52933   */\n      0x00\n        /* \"#utility.yul\":52924:52930   */\n      dup3\n        /* \"#utility.yul\":52920:52934   */\n      add\n        /* \"#utility.yul\":52913:52970   */\n      mstore\n        /* \"#utility.yul\":52796:52977   */\n      pop\n      jump\t// out\n        /* \"#utility.yul\":52983:53105   */\n    tag_390:\n        /* \"#utility.yul\":53056:53080   */\n      tag_913\n        /* \"#utility.yul\":53074:53079   */\n      dup2\n        /* \"#utility.yul\":53056:53080   */\n      tag_484\n      jump\t// in\n    tag_913:\n        /* \"#utility.yul\":53049:53054   */\n      dup2\n        /* \"#utility.yul\":53046:53081   */\n      eq\n        /* \"#utility.yul\":53036:53099   */\n      tag_914\n      jumpi\n        /* \"#utility.yul\":53095:53096   */\n      0x00\n        /* \"#utility.yul\":53092:53093   */\n      dup1\n        /* \"#utility.yul\":53085:53097   */\n      revert\n        /* \"#utility.yul\":53036:53099   */\n    tag_914:\n        /* \"#utility.yul\":52983:53105   */\n      pop\n      jump\t// out\n        /* \"#utility.yul\":53111:53233   */\n    tag_421:\n        /* \"#utility.yul\":53184:53208   */\n      tag_916\n        /* \"#utility.yul\":53202:53207   */\n      dup2\n        /* \"#utility.yul\":53184:53208   */\n      tag_673\n      jump\t// in\n    tag_916:\n        /* \"#utility.yul\":53177:53182   */\n      dup2\n        /* \"#utility.yul\":53174:53209   */\n      eq\n        /* \"#utility.yul\":53164:53227   */\n      tag_917\n      jumpi\n        /* \"#utility.yul\":53223:53224   */\n      0x00\n        /* \"#utility.yul\":53220:53221   */\n      dup1\n        /* \"#utility.yul\":53213:53225   */\n      revert\n        /* \"#utility.yul\":53164:53227   */\n    tag_917:\n        /* \"#utility.yul\":53111:53233   */\n      pop\n      jump\t// out\n        /* \"#utility.yul\":53239:53357   */\n    tag_425:\n        /* \"#utility.yul\":53310:53332   */\n      tag_919\n        /* \"#utility.yul\":53326:53331   */\n      dup2\n        /* \"#utility.yul\":53310:53332   */\n      tag_677\n      jump\t// in\n    tag_919:\n        /* \"#utility.yul\":53303:53308   */\n      dup2\n        /* \"#utility.yul\":53300:53333   */\n      eq\n        /* \"#utility.yul\":53290:53351   */\n      tag_920\n      jumpi\n        /* \"#utility.yul\":53347:53348   */\n      0x00\n        /* \"#utility.yul\":53344:53345   */\n      dup1\n        /* \"#utility.yul\":53337:53349   */\n      revert\n        /* \"#utility.yul\":53290:53351   */\n    tag_920:\n        /* \"#utility.yul\":53239:53357   */\n      pop\n      jump\t// out\n\n    auxdata: 0xa2646970667358221220fdcb9538abfde5025cd2d683bd4caf0b1cb777a09511e36d930f2f8d2c62d29d64736f6c63430008070033\n}\n",
				"bytecode": {
					"linkReferences": {},
					"object": "60806040523480156200001157600080fd5b506040518060400160405280600c81526020017f51566f74696e67546f6b656e00000000000000000000000000000000000000008152506040518060400160405280600281526020017f5176000000000000000000000000000000000000000000000000000000000000815250816002908051906020019062000096929190620000f9565b508060039080519060200190620000af929190620000f9565b50505033600460006101000a81548173ffffffffffffffffffffffffffffffffffffffff021916908373ffffffffffffffffffffffffffffffffffffffff1602179055506200020e565b8280546200010790620001a9565b90600052602060002090601f0160209004810192826200012b576000855562000177565b82601f106200014657805160ff191683800117855562000177565b8280016001018555821562000177579182015b828111156200017657825182559160200191906001019062000159565b5b5090506200018691906200018a565b5090565b5b80821115620001a55760008160009055506001016200018b565b5090565b60006002820490506001821680620001c257607f821691505b60208210811415620001d957620001d8620001df565b5b50919050565b7f4e487b7100000000000000000000000000000000000000000000000000000000600052602260045260246000fd5b613bcb806200021e6000396000f3fe608060405234801561001057600080fd5b50600436106100b45760003560e01c80636a232d1f116100715780636a232d1f1461018157806370a08231146101b157806395d89b41146101e15780639d671564146101ff578063ab9c70d414610230578063e745d68e14610263576100b4565b8063013cf08b146100b957806306fdde03146100ef57806318160ddd1461010d578063313ce5671461012b5780634de77e48146101495780635c230eee14610165575b600080fd5b6100d360048036038101906100ce91906123b4565b610294565b6040516100e69796959493929190612b9a565b60405180910390f35b6100f7610399565b6040516101049190612c2b565b60405180910390f35b61011561042b565b6040516101229190612f4e565b60405180910390f35b610133610435565b6040516101409190613064565b60405180910390f35b610163600480360381019061015e91906124c0565b61043e565b005b61017f600480360381019061017a9190612421565b610768565b005b61019b600480360381019061019691906123e1565b610bbe565b6040516101a89190612c10565b60405180910390f35b6101cb60048036038101906101c69190612347565b610d6e565b6040516101d89190612f4e565b60405180910390f35b6101e9610db6565b6040516101f69190612c2b565b60405180910390f35b610219600480360381019061021491906123b4565b610e48565b604051610227929190613034565b60405180910390f35b61024a60048036038101906102459190612374565b610fc3565b60405161025a9493929190612f69565b60405180910390f35b61027d60048036038101906102789190612347565b61102d565b60405161028b929190612f25565b60405180910390f35b60076020528060005260406000206000915090508060000160009054906101000a900473ffffffffffffffffffffffffffffffffffffffff16908060000160149054906101000a900460ff16908060010180546102f0906134aa565b80601f016020809104026020016040519081016040528092919081815260200182805461031c906134aa565b80156103695780601f1061033e57610100808354040283529160200191610369565b820191906000526020600020905b81548152906001019060200180831161034c57829003601f168201915b5050505050908060020154908060030154908060040160009054906101000a900461ffff16908060050154905087565b6060600280546103a8906134aa565b80601f01602080910402602001604051908101604052809291908181526020018280546103d4906134aa565b80156104215780601f106103f657610100808354040283529160200191610421565b820191906000526020600020905b81548152906001019060200180831161040457829003601f168201915b5050505050905090565b6000600154905090565b60006012905090565b854210610480576040517f08c379a000000000000000000000000000000000000000000000000000000000815260040161047790612d4d565b60405180910390fd5b8442106104c2576040517f08c379a00000000000000000000000000000000000000000000000000000000081526004016104b990612c6d565b60405180910390fd5b848610610504576040517f08c379a00000000000000000000000000000000000000000000000000000000081526004016104fb90612dcd565b60405180910390fd5b6005600081548092919061051790613571565b9190505550610553898989898989878a8a600760006005548152602001908152602001600020611089909998979695949392919063ffffffff16565b507f239a8a71a7d1cb0d134f6cc072ad6390e36a88c8e78dff69013ee79528441e8060055489898989898989604051610593989796959493929190612fae565b60405180910390a1600160096000600554815260200190815260200160002060006101000a81548160ff02191690831515021790555060005b8851811015610701576105f98982815181106105eb576105ea613618565b5b6020026020010151836112bb565b61069a6005548a838151811061061257610611613618565b5b6020026020010151600085600860008f888151811061063457610633613618565b5b602002602001015173ffffffffffffffffffffffffffffffffffffffff1673ffffffffffffffffffffffffffffffffffffffff1681526020019081526020016000206000600554815260200190815260200160002061132c90949392919063ffffffff16565b507fabf5327be9f5825c40d58bda541dd07f09b62df3376bbd5ecdbaa8bd82a9d4928982815181106106cf576106ce613618565b5b6020026020010151836040516106e6929190612e4d565b60405180910390a180806106f990613571565b9150506105cc565b5061075c600554600660006107146113ac565b73ffffffffffffffffffffffffffffffffffffffff1673ffffffffffffffffffffffffffffffffffffffff1681526020019081526020016000206113b490919063ffffffff16565b50505050505050505050565b6009600085815260200190815260200160002060009054906101000a900460ff166107c8576040517f08c379a00000000000000000000000000000000000000000000000000000000081526004016107bf90612d8d565b60405180910390fd5b83600860008573ffffffffffffffffffffffffffffffffffffffff1673ffffffffffffffffffffffffffffffffffffffff1681526020019081526020016000206000868152602001908152602001600020600001541461085d576040517f08c379a000000000000000000000000000000000000000000000000000000000815260040161085490612ced565b60405180910390fd5b600860008473ffffffffffffffffffffffffffffffffffffffff1673ffffffffffffffffffffffffffffffffffffffff168152602001908152602001600020600085815260200190815260200160002060010160149054906101000a900460ff16156108fe576040517f08c379a00000000000000000000000000000000000000000000000000000000081526004016108f590612cad565b60405180910390fd5b81516007600086815260200190815260200160002060040160009054906101000a900461ffff1661ffff1614610969576040517f08c379a000000000000000000000000000000000000000000000000000000000815260040161096090612e0d565b60405180910390fd5b6000805b82518110156109d65782818151811061098957610988613618565b5b60200260200101518382815181106109a4576109a3613618565b5b60200260200101516109b6919061335b565b826109c19190613305565b915080806109ce90613571565b91505061096d565b5080600860008673ffffffffffffffffffffffffffffffffffffffff1673ffffffffffffffffffffffffffffffffffffffff1681526020019081526020016000206000878152602001908152602001600020600201541015610a6d576040517f08c379a0000000000000000000000000000000000000000000000000000000008152600401610a6490612dad565b60405180910390fd5b610a96848484600760008a8152602001908152602001600020611485909392919063ffffffff16565b50610af1858460066000610aa86113ac565b73ffffffffffffffffffffffffffffffffffffffff1673ffffffffffffffffffffffffffffffffffffffff16815260200190815260200160002061193b9092919063ffffffff16565b50610b4a600860008673ffffffffffffffffffffffffffffffffffffffff1673ffffffffffffffffffffffffffffffffffffffff1681526020019081526020016000206000878152602001908152602001600020611ac8565b506001600860008673ffffffffffffffffffffffffffffffffffffffff1673ffffffffffffffffffffffffffffffffffffffff168152602001908152602001600020600087815260200190815260200160002060010160146101000a81548160ff0219169083151502179055505050505050565b6000600860008373ffffffffffffffffffffffffffffffffffffffff1673ffffffffffffffffffffffffffffffffffffffff168152602001908152602001600020600084815260200190815260200160002060010160149054906101000a900460ff16610c60576040517f08c379a0000000000000000000000000000000000000000000000000000000008152600401610c5790612e2d565b60405180910390fd5b82600860008473ffffffffffffffffffffffffffffffffffffffff1673ffffffffffffffffffffffffffffffffffffffff16815260200190815260200160002060008581526020019081526020016000206000015414610cf5576040517f08c379a0000000000000000000000000000000000000000000000000000000008152600401610cec90612ced565b60405180910390fd5b610d15826007600086815260200190815260200160002060050154611b76565b7fabf5327be9f5825c40d58bda541dd07f09b62df3376bbd5ecdbaa8bd82a9d492826007600086815260200190815260200160002060050154604051610d5c929190612ea9565b60405180910390a16001905092915050565b60008060008373ffffffffffffffffffffffffffffffffffffffff1673ffffffffffffffffffffffffffffffffffffffff168152602001908152602001600020549050919050565b606060038054610dc5906134aa565b80601f0160208091040260200160405190810160405280929190818152602001828054610df1906134aa565b8015610e3e5780601f10610e1357610100808354040283529160200191610e3e565b820191906000526020600020905b815481529060010190602001808311610e2157829003601f168201915b5050505050905090565b600060606009600084815260200190815260200160002060009054906101000a900460ff16610eac576040517f08c379a0000000000000000000000000000000000000000000000000000000008152600401610ea390612ccd565b60405180910390fd5b60076000848152602001908152602001600020600a0160076000858152602001908152602001600020600901600060018152602001908152602001600020604051610ef79190612b83565b90815260200160405180910390205460076000858152602001908152602001600020600901600060018152602001908152602001600020808054610f3a906134aa565b80601f0160208091040260200160405190810160405280929190818152602001828054610f66906134aa565b8015610fb35780601f10610f8857610100808354040283529160200191610fb3565b820191906000526020600020905b815481529060010190602001808311610f9657829003601f168201915b5050505050905091509150915091565b6008602052816000526040600020602052806000526040600020600091509150508060000154908060010160009054906101000a900473ffffffffffffffffffffffffffffffffffffffff16908060010160149054906101000a900460ff16908060020154905084565b60066020528060005260406000206000915090508060000160009054906101000a90046fffffffffffffffffffffffffffffffff16908060000160109054906101000a90046fffffffffffffffffffffffffffffffff16905082565b6000878b60000160006101000a81548173ffffffffffffffffffffffffffffffffffffffff021916908373ffffffffffffffffffffffffffffffffffffffff160217905550898b60000160146101000a81548160ff021916908360ff160217905550848b6001019080519060200190611103929190611e94565b50868b60020181905550858b60030181905550828290508b60040160006101000a81548161ffff021916908361ffff160217905550838b6005018190555060005b838390508110156112145760018c60070185858481811061116857611167613618565b5b905060200281019061117a919061307f565b604051611188929190612b53565b908152602001604051809103902060006101000a81548160ff0219169083151502179055508383828181106111c0576111bf613618565b5b90506020028101906111d2919061307f565b8d60080160006001856111e59190613305565b81526020019081526020016000209190611200929190611f1a565b50808061120c90613571565b915050611144565b5060005b89518110156112a85760018c60060160008c848151811061123c5761123b613618565b5b602002602001015173ffffffffffffffffffffffffffffffffffffffff1673ffffffffffffffffffffffffffffffffffffffff16815260200190815260200160002060006101000a81548160ff02191690831515021790555080806112a090613571565b915050611218565b50600190509a9950505050505050505050565b6112c36113ac565b8073ffffffffffffffffffffffffffffffffffffffff16600460009054906101000a900473ffffffffffffffffffffffffffffffffffffffff1673ffffffffffffffffffffffffffffffffffffffff161461131d57600080fd5b6113278383611be7565b505050565b6000848660000181905550838660010160006101000a81548173ffffffffffffffffffffffffffffffffffffffff021916908373ffffffffffffffffffffffffffffffffffffffff160217905550828660010160146101000a81548160ff0219169083151502179055508186600201819055506001905095945050505050565b600033905090565b600082600001600081819054906101000a90046fffffffffffffffffffffffffffffffff16809291906113e69061350d565b91906101000a8154816fffffffffffffffffffffffffffffffff02191690836fffffffffffffffffffffffffffffffff16021790555050818360010160008560000160009054906101000a90046fffffffffffffffffffffffffffffffff166fffffffffffffffffffffffffffffffff166fffffffffffffffffffffffffffffffff168152602001908152602001600020819055506001905092915050565b600060028560000160149054906101000a900460ff1660ff16146114de576040517f08c379a00000000000000000000000000000000000000000000000000000000081526004016114d590612c4d565b60405180910390fd5b8460020154421015611525576040517f08c379a000000000000000000000000000000000000000000000000000000000815260040161151c90612d2d565b60405180910390fd5b846003015442111561177b5760028560000160146101000a81548160ff021916908360ff160217905550600085600a01866008016000600181526020019081526020016000206040516115789190612b83565b908152602001604051809103902054905060006001905086600801600060018152602001908152602001600020876009016000600181526020019081526020016000209080546115c7906134aa565b6115d2929190611fa0565b506000600290505b8760040160009054906101000a900461ffff1661ffff168161ffff161161176f578288600a018960080160008461ffff1681526020019081526020016000206040516116269190612b83565b90815260200160405180910390205411156116c65787600a018860080160008361ffff1681526020019081526020016000206040516116659190612b83565b9081526020016040518091039020549250600191508760080160008261ffff168152602001908152602001600020886009016000600181526020019081526020016000209080546116b5906134aa565b6116c0929190611fa0565b5061175c565b8288600a018960080160008461ffff1681526020019081526020016000206040516116f19190612b83565b908152602001604051809103902054141561175b57818061171190613571565b9250508760080160008261ffff16815260200190815260200160002088600901600084815260200190815260200160002090805461174e906134aa565b611759929190611fa0565b505b5b808061176790613546565b9150506115da565b50600092505050611933565b8460060160008573ffffffffffffffffffffffffffffffffffffffff1673ffffffffffffffffffffffffffffffffffffffff16815260200190815260200160002060009054906101000a900460ff16611809576040517f08c379a000000000000000000000000000000000000000000000000000000000815260040161180090612d6d565b60405180910390fd5b60005b8560040160009054906101000a900461ffff1661ffff168161ffff16101561192d5785600701848261ffff168151811061184957611848613618565b5b602002602001015160405161185e9190612b6c565b908152602001604051809103902060009054906101000a900460ff166118b9576040517f08c379a00000000000000000000000000000000000000000000000000000000081526004016118b090612d0d565b60405180910390fd5b828161ffff16815181106118d0576118cf613618565b5b602002602001015186600a01858361ffff16815181106118f3576118f2613618565b5b60200260200101516040516119089190612b6c565b908152602001604051809103902081905550808061192590613546565b91505061180c565b50600190505b949350505050565b600083600001601081819054906101000a90046fffffffffffffffffffffffffffffffff168092919061196d9061350d565b91906101000a8154816fffffffffffffffffffffffffffffffff02191690836fffffffffffffffffffffffffffffffff16021790555050828460020160008660000160109054906101000a90046fffffffffffffffffffffffffffffffff166fffffffffffffffffffffffffffffffff166fffffffffffffffffffffffffffffffff1681526020019081526020016000208190555060005b82518161ffff161015611a8e57828161ffff1681518110611a2957611a28613618565b5b60200260200101518560030160008681526020019081526020016000206000600184611a5591906132cd565b61ffff1681526020019081526020016000209080519060200190611a7a929190611e94565b508080611a8690613546565b915050611a05565b50600184600401600085815260200190815260200160002060006101000a81548160ff021916908315150217905550600190509392505050565b60008082600001541415611b11576040517f08c379a0000000000000000000000000000000000000000000000000000000008152600401611b0890612e89565b60405180910390fd5b8160010160149054906101000a900460ff1615611b63576040517f08c379a0000000000000000000000000000000000000000000000000000000008152600401611b5a90612ee5565b60405180910390fd5b6000826002018190555060019050919050565b611b7e6113ac565b8073ffffffffffffffffffffffffffffffffffffffff16600460009054906101000a900473ffffffffffffffffffffffffffffffffffffffff1673ffffffffffffffffffffffffffffffffffffffff1614611bd857600080fd5b611be28383611d02565b505050565b600073ffffffffffffffffffffffffffffffffffffffff168273ffffffffffffffffffffffffffffffffffffffff161415611c57576040517f08c379a0000000000000000000000000000000000000000000000000000000008152600401611c4e90612f05565b60405180910390fd5b8060016000828254611c699190613305565b92505081905550806000808473ffffffffffffffffffffffffffffffffffffffff1673ffffffffffffffffffffffffffffffffffffffff1681526020019081526020016000206000828254611cbe9190613305565b925050819055507fabf5327be9f5825c40d58bda541dd07f09b62df3376bbd5ecdbaa8bd82a9d4928282604051611cf6929190612e4d565b60405180910390a15050565b600073ffffffffffffffffffffffffffffffffffffffff168273ffffffffffffffffffffffffffffffffffffffff161415611d72576040517f08c379a0000000000000000000000000000000000000000000000000000000008152600401611d6990612ded565b60405180910390fd5b60008060008473ffffffffffffffffffffffffffffffffffffffff1673ffffffffffffffffffffffffffffffffffffffff16815260200190815260200160002054905081811015611df8576040517f08c379a0000000000000000000000000000000000000000000000000000000008152600401611def90612c8d565b60405180910390fd5b8181036000808573ffffffffffffffffffffffffffffffffffffffff1673ffffffffffffffffffffffffffffffffffffffff168152602001908152602001600020819055508160016000828254611e4f91906133b5565b925050819055507fabf5327be9f5825c40d58bda541dd07f09b62df3376bbd5ecdbaa8bd82a9d4928383604051611e87929190612ea9565b60405180910390a1505050565b828054611ea0906134aa565b90600052602060002090601f016020900481019282611ec25760008555611f09565b82601f10611edb57805160ff1916838001178555611f09565b82800160010185558215611f09579182015b82811115611f08578251825591602001919060010190611eed565b5b509050611f16919061202d565b5090565b828054611f26906134aa565b90600052602060002090601f016020900481019282611f485760008555611f8f565b82601f10611f6157803560ff1916838001178555611f8f565b82800160010185558215611f8f579182015b82811115611f8e578235825591602001919060010190611f73565b5b509050611f9c919061202d565b5090565b828054611fac906134aa565b90600052602060002090601f016020900481019282611fce576000855561201c565b82601f10611fdf578054855561201c565b8280016001018555821561201c57600052602060002091601f016020900482015b8281111561201b578254825591600101919060010190612000565b5b509050612029919061202d565b5090565b5b8082111561204657600081600090555060010161202e565b5090565b600061205d61205884613107565b6130e2565b905080838252602082019050828560208602820111156120805761207f613694565b5b60005b858110156120b0578161209688826121fa565b845260208401935060208301925050600181019050612083565b5050509392505050565b60006120cd6120c884613133565b6130e2565b905080838252602082019050828560208602820111156120f0576120ef613694565b5b60005b8581101561213e57813567ffffffffffffffff81111561211657612115613680565b5b80860161212389826122ef565b855260208501945060208401935050506001810190506120f3565b5050509392505050565b600061215b6121568461315f565b6130e2565b9050808382526020820190508285602086028201111561217e5761217d613694565b5b60005b858110156121ae5781612194888261231d565b845260208401935060208301925050600181019050612181565b5050509392505050565b60006121cb6121c68461318b565b6130e2565b9050828152602081018484840111156121e7576121e661369e565b5b6121f2848285613468565b509392505050565b60008135905061220981613b50565b92915050565b600082601f83011261222457612223613680565b5b813561223484826020860161204a565b91505092915050565b60008083601f84011261225357612252613680565b5b8235905067ffffffffffffffff8111156122705761226f61367b565b5b60208301915083602082028301111561228c5761228b613694565b5b9250929050565b600082601f8301126122a8576122a7613680565b5b81356122b88482602086016120ba565b91505092915050565b600082601f8301126122d6576122d5613680565b5b81356122e6848260208601612148565b91505092915050565b600082601f83011261230457612303613680565b5b81356123148482602086016121b8565b91505092915050565b60008135905061232c81613b67565b92915050565b60008135905061234181613b7e565b92915050565b60006020828403121561235d5761235c6136ad565b5b600061236b848285016121fa565b91505092915050565b6000806040838503121561238b5761238a6136ad565b5b6000612399858286016121fa565b92505060206123aa8582860161231d565b9150509250929050565b6000602082840312156123ca576123c96136ad565b5b60006123d88482850161231d565b91505092915050565b600080604083850312156123f8576123f76136ad565b5b60006124068582860161231d565b9250506020612417858286016121fa565b9150509250929050565b6000806000806080858703121561243b5761243a6136ad565b5b60006124498782880161231d565b945050602061245a878288016121fa565b935050604085013567ffffffffffffffff81111561247b5761247a6136a3565b5b61248787828801612293565b925050606085013567ffffffffffffffff8111156124a8576124a76136a3565b5b6124b4878288016122c1565b91505092959194509250565b60008060008060008060008060006101008a8c0312156124e3576124e26136ad565b5b60006124f18c828d01612332565b99505060208a013567ffffffffffffffff811115612512576125116136a3565b5b61251e8c828d0161220f565b985050604061252f8c828d016121fa565b97505060606125408c828d0161231d565b96505060806125518c828d0161231d565b95505060a08a013567ffffffffffffffff811115612572576125716136a3565b5b61257e8c828d016122ef565b94505060c08a013567ffffffffffffffff81111561259f5761259e6136a3565b5b6125ab8c828d0161223d565b935093505060e06125be8c828d0161231d565b9150509295985092959850929598565b60006125da83836125fc565b60208301905092915050565b60006125f38484846126fd565b90509392505050565b612605816133e9565b82525050565b612614816133e9565b82525050565b6000612625826131eb565b61262f818561321b565b935061263a836131bc565b8060005b8381101561266b57815161265288826125ce565b975061265d83613201565b92505060018101905061263e565b5085935050505092915050565b6000612684838561322c565b935083602084028501612696846131cc565b8060005b878110156126dc5784840389526126b1828461326a565b6126bc8682846125e6565b95506126c78461320e565b935060208b019a50505060018101905061269a565b50829750879450505050509392505050565b6126f7816133fb565b82525050565b6000612709838561323d565b9350612716838584613468565b61271f836136b2565b840190509392505050565b6000612736838561325f565b9350612743838584613468565b82840190509392505050565b600061275a826131f6565b612764818561324e565b9350612774818560208601613477565b61277d816136b2565b840191505092915050565b6000612793826131f6565b61279d818561325f565b93506127ad818560208601613477565b80840191505092915050565b600081546127c6816134aa565b6127d0818661325f565b945060018216600081146127eb57600181146127fc5761282f565b60ff1983168652818601935061282f565b612805856131d6565b60005b8381101561282757815481890152600182019150602081019050612808565b838801955050505b50505092915050565b600061284560128361324e565b9150612850826136c3565b602082019050919050565b6000612868602c8361324e565b9150612873826136ec565b604082019050919050565b600061288b60228361324e565b91506128968261373b565b604082019050919050565b60006128ae600d8361324e565b91506128b98261378a565b602082019050919050565b60006128d160148361324e565b91506128dc826137b3565b602082019050919050565b60006128f460238361324e565b91506128ff826137dc565b604082019050919050565b6000612917601d8361324e565b91506129228261382b565b602082019050919050565b600061293a60188361324e565b915061294582613854565b602082019050919050565b600061295d60148361324e565b91506129688261387d565b602082019050919050565b600061298060238361324e565b915061298b826138a6565b604082019050919050565b60006129a360128361324e565b91506129ae826138f5565b602082019050919050565b60006129c660238361324e565b91506129d18261391e565b604082019050919050565b60006129e9602a8361324e565b91506129f48261396d565b604082019050919050565b6000612a0c60218361324e565b9150612a17826139bc565b604082019050919050565b6000612a2f60248361324e565b9150612a3a82613a0b565b604082019050919050565b6000612a52600d8361324e565b9150612a5d82613a5a565b602082019050919050565b6000612a7560048361324e565b9150612a8082613a83565b602082019050919050565b6000612a98601d8361324e565b9150612aa382613aac565b602082019050919050565b6000612abb60048361324e565b9150612ac682613ad5565b602082019050919050565b6000612ade60098361324e565b9150612ae982613afe565b602082019050919050565b6000612b01601f8361324e565b9150612b0c82613b27565b602082019050919050565b612b2081613407565b82525050565b612b2f81613423565b82525050565b612b3e81613451565b82525050565b612b4d8161345b565b82525050565b6000612b6082848661272a565b91508190509392505050565b6000612b788284612788565b915081905092915050565b6000612b8f82846127b9565b915081905092915050565b600060e082019050612baf600083018a61260b565b612bbc6020830189612b44565b8181036040830152612bce818861274f565b9050612bdd6060830187612b35565b612bea6080830186612b35565b612bf760a0830185612b26565b612c0460c0830184612b35565b98975050505050505050565b6000602082019050612c2560008301846126ee565b92915050565b60006020820190508181036000830152612c45818461274f565b905092915050565b60006020820190508181036000830152612c6681612838565b9050919050565b60006020820190508181036000830152612c868161285b565b9050919050565b60006020820190508181036000830152612ca68161287e565b9050919050565b60006020820190508181036000830152612cc6816128a1565b9050919050565b60006020820190508181036000830152612ce6816128c4565b9050919050565b60006020820190508181036000830152612d06816128e7565b9050919050565b60006020820190508181036000830152612d268161290a565b9050919050565b60006020820190508181036000830152612d468161292d565b9050919050565b60006020820190508181036000830152612d6681612950565b9050919050565b60006020820190508181036000830152612d8681612973565b9050919050565b60006020820190508181036000830152612da681612996565b9050919050565b60006020820190508181036000830152612dc6816129b9565b9050919050565b60006020820190508181036000830152612de6816129dc565b9050919050565b60006020820190508181036000830152612e06816129ff565b9050919050565b60006020820190508181036000830152612e2681612a22565b9050919050565b60006020820190508181036000830152612e4681612a45565b9050919050565b60006060820190508181036000830152612e6681612a68565b9050612e75602083018561260b565b612e826040830184612b35565b9392505050565b60006020820190508181036000830152612ea281612a8b565b9050919050565b60006060820190508181036000830152612ec281612aae565b9050612ed1602083018561260b565b612ede6040830184612b35565b9392505050565b60006020820190508181036000830152612efe81612ad1565b9050919050565b60006020820190508181036000830152612f1e81612af4565b9050919050565b6000604082019050612f3a6000830185612b17565b612f476020830184612b17565b9392505050565b6000602082019050612f636000830184612b35565b92915050565b6000608082019050612f7e6000830187612b35565b612f8b602083018661260b565b612f9860408301856126ee565b612fa56060830184612b35565b95945050505050565b600060e082019050612fc3600083018b612b35565b8181036020830152612fd5818a61261a565b9050612fe4604083018961260b565b612ff16060830188612b35565b612ffe6080830187612b35565b81810360a0830152613010818661274f565b905081810360c0830152613025818486612678565b90509998505050505050505050565b60006040820190506130496000830185612b35565b818103602083015261305b818461274f565b90509392505050565b60006020820190506130796000830184612b44565b92915050565b6000808335600160200384360303811261309c5761309b61368a565b5b80840192508235915067ffffffffffffffff8211156130be576130bd613685565b5b6020830192506001820236038313156130da576130d9613699565b5b509250929050565b60006130ec6130fd565b90506130f882826134dc565b919050565b6000604051905090565b600067ffffffffffffffff82111561312257613121613647565b5b602082029050602081019050919050565b600067ffffffffffffffff82111561314e5761314d613647565b5b602082029050602081019050919050565b600067ffffffffffffffff82111561317a57613179613647565b5b602082029050602081019050919050565b600067ffffffffffffffff8211156131a6576131a5613647565b5b6131af826136b2565b9050602081019050919050565b6000819050602082019050919050565b6000819050919050565b60008190508160005260206000209050919050565b600081519050919050565b600081519050919050565b6000602082019050919050565b6000602082019050919050565b600082825260208201905092915050565b600082825260208201905092915050565b600082825260208201905092915050565b600082825260208201905092915050565b600081905092915050565b60008083356001602003843603038112613287576132866136a8565b5b83810192508235915060208301925067ffffffffffffffff8211156132af576132ae613676565b5b6001820236038413156132c5576132c461368f565b5b509250929050565b60006132d882613423565b91506132e383613423565b92508261ffff038211156132fa576132f96135ba565b5b828201905092915050565b600061331082613451565b915061331b83613451565b9250827fffffffffffffffffffffffffffffffffffffffffffffffffffffffffffffffff038211156133505761334f6135ba565b5b828201905092915050565b600061336682613451565b915061337183613451565b9250817fffffffffffffffffffffffffffffffffffffffffffffffffffffffffffffffff04831182151516156133aa576133a96135ba565b5b828202905092915050565b60006133c082613451565b91506133cb83613451565b9250828210156133de576133dd6135ba565b5b828203905092915050565b60006133f482613431565b9050919050565b60008115159050919050565b60006fffffffffffffffffffffffffffffffff82169050919050565b600061ffff82169050919050565b600073ffffffffffffffffffffffffffffffffffffffff82169050919050565b6000819050919050565b600060ff82169050919050565b82818337600083830152505050565b60005b8381101561349557808201518184015260208101905061347a565b838111156134a4576000848401525b50505050565b600060028204905060018216806134c257607f821691505b602082108114156134d6576134d56135e9565b5b50919050565b6134e5826136b2565b810181811067ffffffffffffffff8211171561350457613503613647565b5b80604052505050565b600061351882613407565b91506fffffffffffffffffffffffffffffffff82141561353b5761353a6135ba565b5b600182019050919050565b600061355182613423565b915061ffff821415613566576135656135ba565b5b600182019050919050565b600061357c82613451565b91507fffffffffffffffffffffffffffffffffffffffffffffffffffffffffffffffff8214156135af576135ae6135ba565b5b600182019050919050565b7f4e487b7100000000000000000000000000000000000000000000000000000000600052601160045260246000fd5b7f4e487b7100000000000000000000000000000000000000000000000000000000600052602260045260246000fd5b7f4e487b7100000000000000000000000000000000000000000000000000000000600052603260045260246000fd5b7f4e487b7100000000000000000000000000000000000000000000000000000000600052604160045260246000fd5b600080fd5b600080fd5b600080fd5b600080fd5b600080fd5b600080fd5b600080fd5b600080fd5b600080fd5b600080fd5b600080fd5b600080fd5b6000601f19601f8301169050919050565b7f50726f706f73616c3a20696e6163746976650000000000000000000000000000600082015250565b7f456e642074696d652073686f756c642062652067726561746572207468616e2060008201527f63757272656e742074696d650000000000000000000000000000000000000000602082015250565b7f45524332303a206275726e20616d6f756e7420657863656564732062616c616e60008201527f6365000000000000000000000000000000000000000000000000000000000000602082015250565b7f616c726561647920766f74656400000000000000000000000000000000000000600082015250565b7f6e6f7420612076616c69642070726f706f73616c000000000000000000000000600082015250565b7f6e6f7420612076616c696420766f74657220666f7220746869732070726f706f60008201527f73616c0000000000000000000000000000000000000000000000000000000000602082015250565b7f50726f706f73616c3a20696e76616c6964206f7074696f6e6964617465000000600082015250565b7f70726f706f73616c206e6f742073746172746564207965740000000000000000600082015250565b7f70726f706f73616c206e6f742073746172746564000000000000000000000000600082015250565b7f4e6f7420612076616c696420766f74657220666f7220746869732070726f706f60008201527f73616c0000000000000000000000000000000000000000000000000000000000602082015250565b7f696e76616c69642070726f706f73616c49640000000000000000000000000000600082015250565b7f6e6f742073756666696369656e742062616c616e636520746f2063617374207660008201527f6f74650000000000000000000000000000000000000000000000000000000000602082015250565b7f456e642074696d652073686f756c642062652067726561746572207468616e2060008201527f73746172742074696d6500000000000000000000000000000000000000000000602082015250565b7f45524332303a206275726e2066726f6d20746865207a65726f2061646472657360008201527f7300000000000000000000000000000000000000000000000000000000000000602082015250565b7f6e6f7420612076616c6964206c656e677468206f66206861736820726573706f60008201527f6e73652100000000000000000000000000000000000000000000000000000000602082015250565b7f6e6f7420766f7465642079657400000000000000000000000000000000000000600082015250565b7f6d696e7400000000000000000000000000000000000000000000000000000000600082015250565b7f496e76616c696420766f74657220666f722070726f706f73616c496421000000600082015250565b7f6275726e00000000000000000000000000000000000000000000000000000000600082015250565b7f6e6f7420766f7465640000000000000000000000000000000000000000000000600082015250565b7f45524332303a206d696e7420746f20746865207a65726f206164647265737300600082015250565b613b59816133e9565b8114613b6457600080fd5b50565b613b7081613451565b8114613b7b57600080fd5b50565b613b878161345b565b8114613b9257600080fd5b5056fea2646970667358221220fdcb9538abfde5025cd2d683bd4caf0b1cb777a09511e36d930f2f8d2c62d29d64736f6c63430008070033",
					"opcodes": "PUSH1 0x80 PUSH1 0x40 MSTORE CALLVALUE DUP1 ISZERO PUSH3 0x11 JUMPI PUSH1 0x0 DUP1 REVERT JUMPDEST POP PUSH1 0x40 MLOAD DUP1 PUSH1 0x40 ADD PUSH1 0x40 MSTORE DUP1 PUSH1 0xC DUP2 MSTORE PUSH1 0x20 ADD PUSH32 0x51566F74696E67546F6B656E0000000000000000000000000000000000000000 DUP2 MSTORE POP PUSH1 0x40 MLOAD DUP1 PUSH1 0x40 ADD PUSH1 0x40 MSTORE DUP1 PUSH1 0x2 DUP2 MSTORE PUSH1 0x20 ADD PUSH32 0x5176000000000000000000000000000000000000000000000000000000000000 DUP2 MSTORE POP DUP2 PUSH1 0x2 SWAP1 DUP1 MLOAD SWAP1 PUSH1 0x20 ADD SWAP1 PUSH3 0x96 SWAP3 SWAP2 SWAP1 PUSH3 0xF9 JUMP JUMPDEST POP DUP1 PUSH1 0x3 SWAP1 DUP1 MLOAD SWAP1 PUSH1 0x20 ADD SWAP1 PUSH3 0xAF SWAP3 SWAP2 SWAP1 PUSH3 0xF9 JUMP JUMPDEST POP POP POP CALLER PUSH1 0x4 PUSH1 0x0 PUSH2 0x100 EXP DUP2 SLOAD DUP2 PUSH20 0xFFFFFFFFFFFFFFFFFFFFFFFFFFFFFFFFFFFFFFFF MUL NOT AND SWAP1 DUP4 PUSH20 0xFFFFFFFFFFFFFFFFFFFFFFFFFFFFFFFFFFFFFFFF AND MUL OR SWAP1 SSTORE POP PUSH3 0x20E JUMP JUMPDEST DUP3 DUP1 SLOAD PUSH3 0x107 SWAP1 PUSH3 0x1A9 JUMP JUMPDEST SWAP1 PUSH1 0x0 MSTORE PUSH1 0x20 PUSH1 0x0 KECCAK256 SWAP1 PUSH1 0x1F ADD PUSH1 0x20 SWAP1 DIV DUP2 ADD SWAP3 DUP3 PUSH3 0x12B JUMPI PUSH1 0x0 DUP6 SSTORE PUSH3 0x177 JUMP JUMPDEST DUP3 PUSH1 0x1F LT PUSH3 0x146 JUMPI DUP1 MLOAD PUSH1 0xFF NOT AND DUP4 DUP1 ADD OR DUP6 SSTORE PUSH3 0x177 JUMP JUMPDEST DUP3 DUP1 ADD PUSH1 0x1 ADD DUP6 SSTORE DUP3 ISZERO PUSH3 0x177 JUMPI SWAP2 DUP3 ADD JUMPDEST DUP3 DUP2 GT ISZERO PUSH3 0x176 JUMPI DUP3 MLOAD DUP3 SSTORE SWAP2 PUSH1 0x20 ADD SWAP2 SWAP1 PUSH1 0x1 ADD SWAP1 PUSH3 0x159 JUMP JUMPDEST JUMPDEST POP SWAP1 POP PUSH3 0x186 SWAP2 SWAP1 PUSH3 0x18A JUMP JUMPDEST POP SWAP1 JUMP JUMPDEST JUMPDEST DUP1 DUP3 GT ISZERO PUSH3 0x1A5 JUMPI PUSH1 0x0 DUP2 PUSH1 0x0 SWAP1 SSTORE POP PUSH1 0x1 ADD PUSH3 0x18B JUMP JUMPDEST POP SWAP1 JUMP JUMPDEST PUSH1 0x0 PUSH1 0x2 DUP3 DIV SWAP1 POP PUSH1 0x1 DUP3 AND DUP1 PUSH3 0x1C2 JUMPI PUSH1 0x7F DUP3 AND SWAP2 POP JUMPDEST PUSH1 0x20 DUP3 LT DUP2 EQ ISZERO PUSH3 0x1D9 JUMPI PUSH3 0x1D8 PUSH3 0x1DF JUMP JUMPDEST JUMPDEST POP SWAP2 SWAP1 POP JUMP JUMPDEST PUSH32 0x4E487B7100000000000000000000000000000000000000000000000000000000 PUSH1 0x0 MSTORE PUSH1 0x22 PUSH1 0x4 MSTORE PUSH1 0x24 PUSH1 0x0 REVERT JUMPDEST PUSH2 0x3BCB DUP1 PUSH3 0x21E PUSH1 0x0 CODECOPY PUSH1 0x0 RETURN INVALID PUSH1 0x80 PUSH1 0x40 MSTORE CALLVALUE DUP1 ISZERO PUSH2 0x10 JUMPI PUSH1 0x0 DUP1 REVERT JUMPDEST POP PUSH1 0x4 CALLDATASIZE LT PUSH2 0xB4 JUMPI PUSH1 0x0 CALLDATALOAD PUSH1 0xE0 SHR DUP1 PUSH4 0x6A232D1F GT PUSH2 0x71 JUMPI DUP1 PUSH4 0x6A232D1F EQ PUSH2 0x181 JUMPI DUP1 PUSH4 0x70A08231 EQ PUSH2 0x1B1 JUMPI DUP1 PUSH4 0x95D89B41 EQ PUSH2 0x1E1 JUMPI DUP1 PUSH4 0x9D671564 EQ PUSH2 0x1FF JUMPI DUP1 PUSH4 0xAB9C70D4 EQ PUSH2 0x230 JUMPI DUP1 PUSH4 0xE745D68E EQ PUSH2 0x263 JUMPI PUSH2 0xB4 JUMP JUMPDEST DUP1 PUSH4 0x13CF08B EQ PUSH2 0xB9 JUMPI DUP1 PUSH4 0x6FDDE03 EQ PUSH2 0xEF JUMPI DUP1 PUSH4 0x18160DDD EQ PUSH2 0x10D JUMPI DUP1 PUSH4 0x313CE567 EQ PUSH2 0x12B JUMPI DUP1 PUSH4 0x4DE77E48 EQ PUSH2 0x149 JUMPI DUP1 PUSH4 0x5C230EEE EQ PUSH2 0x165 JUMPI JUMPDEST PUSH1 0x0 DUP1 REVERT JUMPDEST PUSH2 0xD3 PUSH1 0x4 DUP1 CALLDATASIZE SUB DUP2 ADD SWAP1 PUSH2 0xCE SWAP2 SWAP1 PUSH2 0x23B4 JUMP JUMPDEST PUSH2 0x294 JUMP JUMPDEST PUSH1 0x40 MLOAD PUSH2 0xE6 SWAP8 SWAP7 SWAP6 SWAP5 SWAP4 SWAP3 SWAP2 SWAP1 PUSH2 0x2B9A JUMP JUMPDEST PUSH1 0x40 MLOAD DUP1 SWAP2 SUB SWAP1 RETURN JUMPDEST PUSH2 0xF7 PUSH2 0x399 JUMP JUMPDEST PUSH1 0x40 MLOAD PUSH2 0x104 SWAP2 SWAP1 PUSH2 0x2C2B JUMP JUMPDEST PUSH1 0x40 MLOAD DUP1 SWAP2 SUB SWAP1 RETURN JUMPDEST PUSH2 0x115 PUSH2 0x42B JUMP JUMPDEST PUSH1 0x40 MLOAD PUSH2 0x122 SWAP2 SWAP1 PUSH2 0x2F4E JUMP JUMPDEST PUSH1 0x40 MLOAD DUP1 SWAP2 SUB SWAP1 RETURN JUMPDEST PUSH2 0x133 PUSH2 0x435 JUMP JUMPDEST PUSH1 0x40 MLOAD PUSH2 0x140 SWAP2 SWAP1 PUSH2 0x3064 JUMP JUMPDEST PUSH1 0x40 MLOAD DUP1 SWAP2 SUB SWAP1 RETURN JUMPDEST PUSH2 0x163 PUSH1 0x4 DUP1 CALLDATASIZE SUB DUP2 ADD SWAP1 PUSH2 0x15E SWAP2 SWAP1 PUSH2 0x24C0 JUMP JUMPDEST PUSH2 0x43E JUMP JUMPDEST STOP JUMPDEST PUSH2 0x17F PUSH1 0x4 DUP1 CALLDATASIZE SUB DUP2 ADD SWAP1 PUSH2 0x17A SWAP2 SWAP1 PUSH2 0x2421 JUMP JUMPDEST PUSH2 0x768 JUMP JUMPDEST STOP JUMPDEST PUSH2 0x19B PUSH1 0x4 DUP1 CALLDATASIZE SUB DUP2 ADD SWAP1 PUSH2 0x196 SWAP2 SWAP1 PUSH2 0x23E1 JUMP JUMPDEST PUSH2 0xBBE JUMP JUMPDEST PUSH1 0x40 MLOAD PUSH2 0x1A8 SWAP2 SWAP1 PUSH2 0x2C10 JUMP JUMPDEST PUSH1 0x40 MLOAD DUP1 SWAP2 SUB SWAP1 RETURN JUMPDEST PUSH2 0x1CB PUSH1 0x4 DUP1 CALLDATASIZE SUB DUP2 ADD SWAP1 PUSH2 0x1C6 SWAP2 SWAP1 PUSH2 0x2347 JUMP JUMPDEST PUSH2 0xD6E JUMP JUMPDEST PUSH1 0x40 MLOAD PUSH2 0x1D8 SWAP2 SWAP1 PUSH2 0x2F4E JUMP JUMPDEST PUSH1 0x40 MLOAD DUP1 SWAP2 SUB SWAP1 RETURN JUMPDEST PUSH2 0x1E9 PUSH2 0xDB6 JUMP JUMPDEST PUSH1 0x40 MLOAD PUSH2 0x1F6 SWAP2 SWAP1 PUSH2 0x2C2B JUMP JUMPDEST PUSH1 0x40 MLOAD DUP1 SWAP2 SUB SWAP1 RETURN JUMPDEST PUSH2 0x219 PUSH1 0x4 DUP1 CALLDATASIZE SUB DUP2 ADD SWAP1 PUSH2 0x214 SWAP2 SWAP1 PUSH2 0x23B4 JUMP JUMPDEST PUSH2 0xE48 JUMP JUMPDEST PUSH1 0x40 MLOAD PUSH2 0x227 SWAP3 SWAP2 SWAP1 PUSH2 0x3034 JUMP JUMPDEST PUSH1 0x40 MLOAD DUP1 SWAP2 SUB SWAP1 RETURN JUMPDEST PUSH2 0x24A PUSH1 0x4 DUP1 CALLDATASIZE SUB DUP2 ADD SWAP1 PUSH2 0x245 SWAP2 SWAP1 PUSH2 0x2374 JUMP JUMPDEST PUSH2 0xFC3 JUMP JUMPDEST PUSH1 0x40 MLOAD PUSH2 0x25A SWAP5 SWAP4 SWAP3 SWAP2 SWAP1 PUSH2 0x2F69 JUMP JUMPDEST PUSH1 0x40 MLOAD DUP1 SWAP2 SUB SWAP1 RETURN JUMPDEST PUSH2 0x27D PUSH1 0x4 DUP1 CALLDATASIZE SUB DUP2 ADD SWAP1 PUSH2 0x278 SWAP2 SWAP1 PUSH2 0x2347 JUMP JUMPDEST PUSH2 0x102D JUMP JUMPDEST PUSH1 0x40 MLOAD PUSH2 0x28B SWAP3 SWAP2 SWAP1 PUSH2 0x2F25 JUMP JUMPDEST PUSH1 0x40 MLOAD DUP1 SWAP2 SUB SWAP1 RETURN JUMPDEST PUSH1 0x7 PUSH1 0x20 MSTORE DUP1 PUSH1 0x0 MSTORE PUSH1 0x40 PUSH1 0x0 KECCAK256 PUSH1 0x0 SWAP2 POP SWAP1 POP DUP1 PUSH1 0x0 ADD PUSH1 0x0 SWAP1 SLOAD SWAP1 PUSH2 0x100 EXP SWAP1 DIV PUSH20 0xFFFFFFFFFFFFFFFFFFFFFFFFFFFFFFFFFFFFFFFF AND SWAP1 DUP1 PUSH1 0x0 ADD PUSH1 0x14 SWAP1 SLOAD SWAP1 PUSH2 0x100 EXP SWAP1 DIV PUSH1 0xFF AND SWAP1 DUP1 PUSH1 0x1 ADD DUP1 SLOAD PUSH2 0x2F0 SWAP1 PUSH2 0x34AA JUMP JUMPDEST DUP1 PUSH1 0x1F ADD PUSH1 0x20 DUP1 SWAP2 DIV MUL PUSH1 0x20 ADD PUSH1 0x40 MLOAD SWAP1 DUP2 ADD PUSH1 0x40 MSTORE DUP1 SWAP3 SWAP2 SWAP1 DUP2 DUP2 MSTORE PUSH1 0x20 ADD DUP3 DUP1 SLOAD PUSH2 0x31C SWAP1 PUSH2 0x34AA JUMP JUMPDEST DUP1 ISZERO PUSH2 0x369 JUMPI DUP1 PUSH1 0x1F LT PUSH2 0x33E JUMPI PUSH2 0x100 DUP1 DUP4 SLOAD DIV MUL DUP4 MSTORE SWAP2 PUSH1 0x20 ADD SWAP2 PUSH2 0x369 JUMP JUMPDEST DUP3 ADD SWAP2 SWAP1 PUSH1 0x0 MSTORE PUSH1 0x20 PUSH1 0x0 KECCAK256 SWAP1 JUMPDEST DUP2 SLOAD DUP2 MSTORE SWAP1 PUSH1 0x1 ADD SWAP1 PUSH1 0x20 ADD DUP1 DUP4 GT PUSH2 0x34C JUMPI DUP3 SWAP1 SUB PUSH1 0x1F AND DUP3 ADD SWAP2 JUMPDEST POP POP POP POP POP SWAP1 DUP1 PUSH1 0x2 ADD SLOAD SWAP1 DUP1 PUSH1 0x3 ADD SLOAD SWAP1 DUP1 PUSH1 0x4 ADD PUSH1 0x0 SWAP1 SLOAD SWAP1 PUSH2 0x100 EXP SWAP1 DIV PUSH2 0xFFFF AND SWAP1 DUP1 PUSH1 0x5 ADD SLOAD SWAP1 POP DUP8 JUMP JUMPDEST PUSH1 0x60 PUSH1 0x2 DUP1 SLOAD PUSH2 0x3A8 SWAP1 PUSH2 0x34AA JUMP JUMPDEST DUP1 PUSH1 0x1F ADD PUSH1 0x20 DUP1 SWAP2 DIV MUL PUSH1 0x20 ADD PUSH1 0x40 MLOAD SWAP1 DUP2 ADD PUSH1 0x40 MSTORE DUP1 SWAP3 SWAP2 SWAP1 DUP2 DUP2 MSTORE PUSH1 0x20 ADD DUP3 DUP1 SLOAD PUSH2 0x3D4 SWAP1 PUSH2 0x34AA JUMP JUMPDEST DUP1 ISZERO PUSH2 0x421 JUMPI DUP1 PUSH1 0x1F LT PUSH2 0x3F6 JUMPI PUSH2 0x100 DUP1 DUP4 SLOAD DIV MUL DUP4 MSTORE SWAP2 PUSH1 0x20 ADD SWAP2 PUSH2 0x421 JUMP JUMPDEST DUP3 ADD SWAP2 SWAP1 PUSH1 0x0 MSTORE PUSH1 0x20 PUSH1 0x0 KECCAK256 SWAP1 JUMPDEST DUP2 SLOAD DUP2 MSTORE SWAP1 PUSH1 0x1 ADD SWAP1 PUSH1 0x20 ADD DUP1 DUP4 GT PUSH2 0x404 JUMPI DUP3 SWAP1 SUB PUSH1 0x1F AND DUP3 ADD SWAP2 JUMPDEST POP POP POP POP POP SWAP1 POP SWAP1 JUMP JUMPDEST PUSH1 0x0 PUSH1 0x1 SLOAD SWAP1 POP SWAP1 JUMP JUMPDEST PUSH1 0x0 PUSH1 0x12 SWAP1 POP SWAP1 JUMP JUMPDEST DUP6 TIMESTAMP LT PUSH2 0x480 JUMPI PUSH1 0x40 MLOAD PUSH32 0x8C379A000000000000000000000000000000000000000000000000000000000 DUP2 MSTORE PUSH1 0x4 ADD PUSH2 0x477 SWAP1 PUSH2 0x2D4D JUMP JUMPDEST PUSH1 0x40 MLOAD DUP1 SWAP2 SUB SWAP1 REVERT JUMPDEST DUP5 TIMESTAMP LT PUSH2 0x4C2 JUMPI PUSH1 0x40 MLOAD PUSH32 0x8C379A000000000000000000000000000000000000000000000000000000000 DUP2 MSTORE PUSH1 0x4 ADD PUSH2 0x4B9 SWAP1 PUSH2 0x2C6D JUMP JUMPDEST PUSH1 0x40 MLOAD DUP1 SWAP2 SUB SWAP1 REVERT JUMPDEST DUP5 DUP7 LT PUSH2 0x504 JUMPI PUSH1 0x40 MLOAD PUSH32 0x8C379A000000000000000000000000000000000000000000000000000000000 DUP2 MSTORE PUSH1 0x4 ADD PUSH2 0x4FB SWAP1 PUSH2 0x2DCD JUMP JUMPDEST PUSH1 0x40 MLOAD DUP1 SWAP2 SUB SWAP1 REVERT JUMPDEST PUSH1 0x5 PUSH1 0x0 DUP2 SLOAD DUP1 SWAP3 SWAP2 SWAP1 PUSH2 0x517 SWAP1 PUSH2 0x3571 JUMP JUMPDEST SWAP2 SWAP1 POP SSTORE POP PUSH2 0x553 DUP10 DUP10 DUP10 DUP10 DUP10 DUP10 DUP8 DUP11 DUP11 PUSH1 0x7 PUSH1 0x0 PUSH1 0x5 SLOAD DUP2 MSTORE PUSH1 0x20 ADD SWAP1 DUP2 MSTORE PUSH1 0x20 ADD PUSH1 0x0 KECCAK256 PUSH2 0x1089 SWAP1 SWAP10 SWAP9 SWAP8 SWAP7 SWAP6 SWAP5 SWAP4 SWAP3 SWAP2 SWAP1 PUSH4 0xFFFFFFFF AND JUMP JUMPDEST POP PUSH32 0x239A8A71A7D1CB0D134F6CC072AD6390E36A88C8E78DFF69013EE79528441E80 PUSH1 0x5 SLOAD DUP10 DUP10 DUP10 DUP10 DUP10 DUP10 DUP10 PUSH1 0x40 MLOAD PUSH2 0x593 SWAP9 SWAP8 SWAP7 SWAP6 SWAP5 SWAP4 SWAP3 SWAP2 SWAP1 PUSH2 0x2FAE JUMP JUMPDEST PUSH1 0x40 MLOAD DUP1 SWAP2 SUB SWAP1 LOG1 PUSH1 0x1 PUSH1 0x9 PUSH1 0x0 PUSH1 0x5 SLOAD DUP2 MSTORE PUSH1 0x20 ADD SWAP1 DUP2 MSTORE PUSH1 0x20 ADD PUSH1 0x0 KECCAK256 PUSH1 0x0 PUSH2 0x100 EXP DUP2 SLOAD DUP2 PUSH1 0xFF MUL NOT AND SWAP1 DUP4 ISZERO ISZERO MUL OR SWAP1 SSTORE POP PUSH1 0x0 JUMPDEST DUP9 MLOAD DUP2 LT ISZERO PUSH2 0x701 JUMPI PUSH2 0x5F9 DUP10 DUP3 DUP2 MLOAD DUP2 LT PUSH2 0x5EB JUMPI PUSH2 0x5EA PUSH2 0x3618 JUMP JUMPDEST JUMPDEST PUSH1 0x20 MUL PUSH1 0x20 ADD ADD MLOAD DUP4 PUSH2 0x12BB JUMP JUMPDEST PUSH2 0x69A PUSH1 0x5 SLOAD DUP11 DUP4 DUP2 MLOAD DUP2 LT PUSH2 0x612 JUMPI PUSH2 0x611 PUSH2 0x3618 JUMP JUMPDEST JUMPDEST PUSH1 0x20 MUL PUSH1 0x20 ADD ADD MLOAD PUSH1 0x0 DUP6 PUSH1 0x8 PUSH1 0x0 DUP16 DUP9 DUP2 MLOAD DUP2 LT PUSH2 0x634 JUMPI PUSH2 0x633 PUSH2 0x3618 JUMP JUMPDEST JUMPDEST PUSH1 0x20 MUL PUSH1 0x20 ADD ADD MLOAD PUSH20 0xFFFFFFFFFFFFFFFFFFFFFFFFFFFFFFFFFFFFFFFF AND PUSH20 0xFFFFFFFFFFFFFFFFFFFFFFFFFFFFFFFFFFFFFFFF AND DUP2 MSTORE PUSH1 0x20 ADD SWAP1 DUP2 MSTORE PUSH1 0x20 ADD PUSH1 0x0 KECCAK256 PUSH1 0x0 PUSH1 0x5 SLOAD DUP2 MSTORE PUSH1 0x20 ADD SWAP1 DUP2 MSTORE PUSH1 0x20 ADD PUSH1 0x0 KECCAK256 PUSH2 0x132C SWAP1 SWAP5 SWAP4 SWAP3 SWAP2 SWAP1 PUSH4 0xFFFFFFFF AND JUMP JUMPDEST POP PUSH32 0xABF5327BE9F5825C40D58BDA541DD07F09B62DF3376BBD5ECDBAA8BD82A9D492 DUP10 DUP3 DUP2 MLOAD DUP2 LT PUSH2 0x6CF JUMPI PUSH2 0x6CE PUSH2 0x3618 JUMP JUMPDEST JUMPDEST PUSH1 0x20 MUL PUSH1 0x20 ADD ADD MLOAD DUP4 PUSH1 0x40 MLOAD PUSH2 0x6E6 SWAP3 SWAP2 SWAP1 PUSH2 0x2E4D JUMP JUMPDEST PUSH1 0x40 MLOAD DUP1 SWAP2 SUB SWAP1 LOG1 DUP1 DUP1 PUSH2 0x6F9 SWAP1 PUSH2 0x3571 JUMP JUMPDEST SWAP2 POP POP PUSH2 0x5CC JUMP JUMPDEST POP PUSH2 0x75C PUSH1 0x5 SLOAD PUSH1 0x6 PUSH1 0x0 PUSH2 0x714 PUSH2 0x13AC JUMP JUMPDEST PUSH20 0xFFFFFFFFFFFFFFFFFFFFFFFFFFFFFFFFFFFFFFFF AND PUSH20 0xFFFFFFFFFFFFFFFFFFFFFFFFFFFFFFFFFFFFFFFF AND DUP2 MSTORE PUSH1 0x20 ADD SWAP1 DUP2 MSTORE PUSH1 0x20 ADD PUSH1 0x0 KECCAK256 PUSH2 0x13B4 SWAP1 SWAP2 SWAP1 PUSH4 0xFFFFFFFF AND JUMP JUMPDEST POP POP POP POP POP POP POP POP POP POP JUMP JUMPDEST PUSH1 0x9 PUSH1 0x0 DUP6 DUP2 MSTORE PUSH1 0x20 ADD SWAP1 DUP2 MSTORE PUSH1 0x20 ADD PUSH1 0x0 KECCAK256 PUSH1 0x0 SWAP1 SLOAD SWAP1 PUSH2 0x100 EXP SWAP1 DIV PUSH1 0xFF AND PUSH2 0x7C8 JUMPI PUSH1 0x40 MLOAD PUSH32 0x8C379A000000000000000000000000000000000000000000000000000000000 DUP2 MSTORE PUSH1 0x4 ADD PUSH2 0x7BF SWAP1 PUSH2 0x2D8D JUMP JUMPDEST PUSH1 0x40 MLOAD DUP1 SWAP2 SUB SWAP1 REVERT JUMPDEST DUP4 PUSH1 0x8 PUSH1 0x0 DUP6 PUSH20 0xFFFFFFFFFFFFFFFFFFFFFFFFFFFFFFFFFFFFFFFF AND PUSH20 0xFFFFFFFFFFFFFFFFFFFFFFFFFFFFFFFFFFFFFFFF AND DUP2 MSTORE PUSH1 0x20 ADD SWAP1 DUP2 MSTORE PUSH1 0x20 ADD PUSH1 0x0 KECCAK256 PUSH1 0x0 DUP7 DUP2 MSTORE PUSH1 0x20 ADD SWAP1 DUP2 MSTORE PUSH1 0x20 ADD PUSH1 0x0 KECCAK256 PUSH1 0x0 ADD SLOAD EQ PUSH2 0x85D JUMPI PUSH1 0x40 MLOAD PUSH32 0x8C379A000000000000000000000000000000000000000000000000000000000 DUP2 MSTORE PUSH1 0x4 ADD PUSH2 0x854 SWAP1 PUSH2 0x2CED JUMP JUMPDEST PUSH1 0x40 MLOAD DUP1 SWAP2 SUB SWAP1 REVERT JUMPDEST PUSH1 0x8 PUSH1 0x0 DUP5 PUSH20 0xFFFFFFFFFFFFFFFFFFFFFFFFFFFFFFFFFFFFFFFF AND PUSH20 0xFFFFFFFFFFFFFFFFFFFFFFFFFFFFFFFFFFFFFFFF AND DUP2 MSTORE PUSH1 0x20 ADD SWAP1 DUP2 MSTORE PUSH1 0x20 ADD PUSH1 0x0 KECCAK256 PUSH1 0x0 DUP6 DUP2 MSTORE PUSH1 0x20 ADD SWAP1 DUP2 MSTORE PUSH1 0x20 ADD PUSH1 0x0 KECCAK256 PUSH1 0x1 ADD PUSH1 0x14 SWAP1 SLOAD SWAP1 PUSH2 0x100 EXP SWAP1 DIV PUSH1 0xFF AND ISZERO PUSH2 0x8FE JUMPI PUSH1 0x40 MLOAD PUSH32 0x8C379A000000000000000000000000000000000000000000000000000000000 DUP2 MSTORE PUSH1 0x4 ADD PUSH2 0x8F5 SWAP1 PUSH2 0x2CAD JUMP JUMPDEST PUSH1 0x40 MLOAD DUP1 SWAP2 SUB SWAP1 REVERT JUMPDEST DUP2 MLOAD PUSH1 0x7 PUSH1 0x0 DUP7 DUP2 MSTORE PUSH1 0x20 ADD SWAP1 DUP2 MSTORE PUSH1 0x20 ADD PUSH1 0x0 KECCAK256 PUSH1 0x4 ADD PUSH1 0x0 SWAP1 SLOAD SWAP1 PUSH2 0x100 EXP SWAP1 DIV PUSH2 0xFFFF AND PUSH2 0xFFFF AND EQ PUSH2 0x969 JUMPI PUSH1 0x40 MLOAD PUSH32 0x8C379A000000000000000000000000000000000000000000000000000000000 DUP2 MSTORE PUSH1 0x4 ADD PUSH2 0x960 SWAP1 PUSH2 0x2E0D JUMP JUMPDEST PUSH1 0x40 MLOAD DUP1 SWAP2 SUB SWAP1 REVERT JUMPDEST PUSH1 0x0 DUP1 JUMPDEST DUP3 MLOAD DUP2 LT ISZERO PUSH2 0x9D6 JUMPI DUP3 DUP2 DUP2 MLOAD DUP2 LT PUSH2 0x989 JUMPI PUSH2 0x988 PUSH2 0x3618 JUMP JUMPDEST JUMPDEST PUSH1 0x20 MUL PUSH1 0x20 ADD ADD MLOAD DUP4 DUP3 DUP2 MLOAD DUP2 LT PUSH2 0x9A4 JUMPI PUSH2 0x9A3 PUSH2 0x3618 JUMP JUMPDEST JUMPDEST PUSH1 0x20 MUL PUSH1 0x20 ADD ADD MLOAD PUSH2 0x9B6 SWAP2 SWAP1 PUSH2 0x335B JUMP JUMPDEST DUP3 PUSH2 0x9C1 SWAP2 SWAP1 PUSH2 0x3305 JUMP JUMPDEST SWAP2 POP DUP1 DUP1 PUSH2 0x9CE SWAP1 PUSH2 0x3571 JUMP JUMPDEST SWAP2 POP POP PUSH2 0x96D JUMP JUMPDEST POP DUP1 PUSH1 0x8 PUSH1 0x0 DUP7 PUSH20 0xFFFFFFFFFFFFFFFFFFFFFFFFFFFFFFFFFFFFFFFF AND PUSH20 0xFFFFFFFFFFFFFFFFFFFFFFFFFFFFFFFFFFFFFFFF AND DUP2 MSTORE PUSH1 0x20 ADD SWAP1 DUP2 MSTORE PUSH1 0x20 ADD PUSH1 0x0 KECCAK256 PUSH1 0x0 DUP8 DUP2 MSTORE PUSH1 0x20 ADD SWAP1 DUP2 MSTORE PUSH1 0x20 ADD PUSH1 0x0 KECCAK256 PUSH1 0x2 ADD SLOAD LT ISZERO PUSH2 0xA6D JUMPI PUSH1 0x40 MLOAD PUSH32 0x8C379A000000000000000000000000000000000000000000000000000000000 DUP2 MSTORE PUSH1 0x4 ADD PUSH2 0xA64 SWAP1 PUSH2 0x2DAD JUMP JUMPDEST PUSH1 0x40 MLOAD DUP1 SWAP2 SUB SWAP1 REVERT JUMPDEST PUSH2 0xA96 DUP5 DUP5 DUP5 PUSH1 0x7 PUSH1 0x0 DUP11 DUP2 MSTORE PUSH1 0x20 ADD SWAP1 DUP2 MSTORE PUSH1 0x20 ADD PUSH1 0x0 KECCAK256 PUSH2 0x1485 SWAP1 SWAP4 SWAP3 SWAP2 SWAP1 PUSH4 0xFFFFFFFF AND JUMP JUMPDEST POP PUSH2 0xAF1 DUP6 DUP5 PUSH1 0x6 PUSH1 0x0 PUSH2 0xAA8 PUSH2 0x13AC JUMP JUMPDEST PUSH20 0xFFFFFFFFFFFFFFFFFFFFFFFFFFFFFFFFFFFFFFFF AND PUSH20 0xFFFFFFFFFFFFFFFFFFFFFFFFFFFFFFFFFFFFFFFF AND DUP2 MSTORE PUSH1 0x20 ADD SWAP1 DUP2 MSTORE PUSH1 0x20 ADD PUSH1 0x0 KECCAK256 PUSH2 0x193B SWAP1 SWAP3 SWAP2 SWAP1 PUSH4 0xFFFFFFFF AND JUMP JUMPDEST POP PUSH2 0xB4A PUSH1 0x8 PUSH1 0x0 DUP7 PUSH20 0xFFFFFFFFFFFFFFFFFFFFFFFFFFFFFFFFFFFFFFFF AND PUSH20 0xFFFFFFFFFFFFFFFFFFFFFFFFFFFFFFFFFFFFFFFF AND DUP2 MSTORE PUSH1 0x20 ADD SWAP1 DUP2 MSTORE PUSH1 0x20 ADD PUSH1 0x0 KECCAK256 PUSH1 0x0 DUP8 DUP2 MSTORE PUSH1 0x20 ADD SWAP1 DUP2 MSTORE PUSH1 0x20 ADD PUSH1 0x0 KECCAK256 PUSH2 0x1AC8 JUMP JUMPDEST POP PUSH1 0x1 PUSH1 0x8 PUSH1 0x0 DUP7 PUSH20 0xFFFFFFFFFFFFFFFFFFFFFFFFFFFFFFFFFFFFFFFF AND PUSH20 0xFFFFFFFFFFFFFFFFFFFFFFFFFFFFFFFFFFFFFFFF AND DUP2 MSTORE PUSH1 0x20 ADD SWAP1 DUP2 MSTORE PUSH1 0x20 ADD PUSH1 0x0 KECCAK256 PUSH1 0x0 DUP8 DUP2 MSTORE PUSH1 0x20 ADD SWAP1 DUP2 MSTORE PUSH1 0x20 ADD PUSH1 0x0 KECCAK256 PUSH1 0x1 ADD PUSH1 0x14 PUSH2 0x100 EXP DUP2 SLOAD DUP2 PUSH1 0xFF MUL NOT AND SWAP1 DUP4 ISZERO ISZERO MUL OR SWAP1 SSTORE POP POP POP POP POP POP JUMP JUMPDEST PUSH1 0x0 PUSH1 0x8 PUSH1 0x0 DUP4 PUSH20 0xFFFFFFFFFFFFFFFFFFFFFFFFFFFFFFFFFFFFFFFF AND PUSH20 0xFFFFFFFFFFFFFFFFFFFFFFFFFFFFFFFFFFFFFFFF AND DUP2 MSTORE PUSH1 0x20 ADD SWAP1 DUP2 MSTORE PUSH1 0x20 ADD PUSH1 0x0 KECCAK256 PUSH1 0x0 DUP5 DUP2 MSTORE PUSH1 0x20 ADD SWAP1 DUP2 MSTORE PUSH1 0x20 ADD PUSH1 0x0 KECCAK256 PUSH1 0x1 ADD PUSH1 0x14 SWAP1 SLOAD SWAP1 PUSH2 0x100 EXP SWAP1 DIV PUSH1 0xFF AND PUSH2 0xC60 JUMPI PUSH1 0x40 MLOAD PUSH32 0x8C379A000000000000000000000000000000000000000000000000000000000 DUP2 MSTORE PUSH1 0x4 ADD PUSH2 0xC57 SWAP1 PUSH2 0x2E2D JUMP JUMPDEST PUSH1 0x40 MLOAD DUP1 SWAP2 SUB SWAP1 REVERT JUMPDEST DUP3 PUSH1 0x8 PUSH1 0x0 DUP5 PUSH20 0xFFFFFFFFFFFFFFFFFFFFFFFFFFFFFFFFFFFFFFFF AND PUSH20 0xFFFFFFFFFFFFFFFFFFFFFFFFFFFFFFFFFFFFFFFF AND DUP2 MSTORE PUSH1 0x20 ADD SWAP1 DUP2 MSTORE PUSH1 0x20 ADD PUSH1 0x0 KECCAK256 PUSH1 0x0 DUP6 DUP2 MSTORE PUSH1 0x20 ADD SWAP1 DUP2 MSTORE PUSH1 0x20 ADD PUSH1 0x0 KECCAK256 PUSH1 0x0 ADD SLOAD EQ PUSH2 0xCF5 JUMPI PUSH1 0x40 MLOAD PUSH32 0x8C379A000000000000000000000000000000000000000000000000000000000 DUP2 MSTORE PUSH1 0x4 ADD PUSH2 0xCEC SWAP1 PUSH2 0x2CED JUMP JUMPDEST PUSH1 0x40 MLOAD DUP1 SWAP2 SUB SWAP1 REVERT JUMPDEST PUSH2 0xD15 DUP3 PUSH1 0x7 PUSH1 0x0 DUP7 DUP2 MSTORE PUSH1 0x20 ADD SWAP1 DUP2 MSTORE PUSH1 0x20 ADD PUSH1 0x0 KECCAK256 PUSH1 0x5 ADD SLOAD PUSH2 0x1B76 JUMP JUMPDEST PUSH32 0xABF5327BE9F5825C40D58BDA541DD07F09B62DF3376BBD5ECDBAA8BD82A9D492 DUP3 PUSH1 0x7 PUSH1 0x0 DUP7 DUP2 MSTORE PUSH1 0x20 ADD SWAP1 DUP2 MSTORE PUSH1 0x20 ADD PUSH1 0x0 KECCAK256 PUSH1 0x5 ADD SLOAD PUSH1 0x40 MLOAD PUSH2 0xD5C SWAP3 SWAP2 SWAP1 PUSH2 0x2EA9 JUMP JUMPDEST PUSH1 0x40 MLOAD DUP1 SWAP2 SUB SWAP1 LOG1 PUSH1 0x1 SWAP1 POP SWAP3 SWAP2 POP POP JUMP JUMPDEST PUSH1 0x0 DUP1 PUSH1 0x0 DUP4 PUSH20 0xFFFFFFFFFFFFFFFFFFFFFFFFFFFFFFFFFFFFFFFF AND PUSH20 0xFFFFFFFFFFFFFFFFFFFFFFFFFFFFFFFFFFFFFFFF AND DUP2 MSTORE PUSH1 0x20 ADD SWAP1 DUP2 MSTORE PUSH1 0x20 ADD PUSH1 0x0 KECCAK256 SLOAD SWAP1 POP SWAP2 SWAP1 POP JUMP JUMPDEST PUSH1 0x60 PUSH1 0x3 DUP1 SLOAD PUSH2 0xDC5 SWAP1 PUSH2 0x34AA JUMP JUMPDEST DUP1 PUSH1 0x1F ADD PUSH1 0x20 DUP1 SWAP2 DIV MUL PUSH1 0x20 ADD PUSH1 0x40 MLOAD SWAP1 DUP2 ADD PUSH1 0x40 MSTORE DUP1 SWAP3 SWAP2 SWAP1 DUP2 DUP2 MSTORE PUSH1 0x20 ADD DUP3 DUP1 SLOAD PUSH2 0xDF1 SWAP1 PUSH2 0x34AA JUMP JUMPDEST DUP1 ISZERO PUSH2 0xE3E JUMPI DUP1 PUSH1 0x1F LT PUSH2 0xE13 JUMPI PUSH2 0x100 DUP1 DUP4 SLOAD DIV MUL DUP4 MSTORE SWAP2 PUSH1 0x20 ADD SWAP2 PUSH2 0xE3E JUMP JUMPDEST DUP3 ADD SWAP2 SWAP1 PUSH1 0x0 MSTORE PUSH1 0x20 PUSH1 0x0 KECCAK256 SWAP1 JUMPDEST DUP2 SLOAD DUP2 MSTORE SWAP1 PUSH1 0x1 ADD SWAP1 PUSH1 0x20 ADD DUP1 DUP4 GT PUSH2 0xE21 JUMPI DUP3 SWAP1 SUB PUSH1 0x1F AND DUP3 ADD SWAP2 JUMPDEST POP POP POP POP POP SWAP1 POP SWAP1 JUMP JUMPDEST PUSH1 0x0 PUSH1 0x60 PUSH1 0x9 PUSH1 0x0 DUP5 DUP2 MSTORE PUSH1 0x20 ADD SWAP1 DUP2 MSTORE PUSH1 0x20 ADD PUSH1 0x0 KECCAK256 PUSH1 0x0 SWAP1 SLOAD SWAP1 PUSH2 0x100 EXP SWAP1 DIV PUSH1 0xFF AND PUSH2 0xEAC JUMPI PUSH1 0x40 MLOAD PUSH32 0x8C379A000000000000000000000000000000000000000000000000000000000 DUP2 MSTORE PUSH1 0x4 ADD PUSH2 0xEA3 SWAP1 PUSH2 0x2CCD JUMP JUMPDEST PUSH1 0x40 MLOAD DUP1 SWAP2 SUB SWAP1 REVERT JUMPDEST PUSH1 0x7 PUSH1 0x0 DUP5 DUP2 MSTORE PUSH1 0x20 ADD SWAP1 DUP2 MSTORE PUSH1 0x20 ADD PUSH1 0x0 KECCAK256 PUSH1 0xA ADD PUSH1 0x7 PUSH1 0x0 DUP6 DUP2 MSTORE PUSH1 0x20 ADD SWAP1 DUP2 MSTORE PUSH1 0x20 ADD PUSH1 0x0 KECCAK256 PUSH1 0x9 ADD PUSH1 0x0 PUSH1 0x1 DUP2 MSTORE PUSH1 0x20 ADD SWAP1 DUP2 MSTORE PUSH1 0x20 ADD PUSH1 0x0 KECCAK256 PUSH1 0x40 MLOAD PUSH2 0xEF7 SWAP2 SWAP1 PUSH2 0x2B83 JUMP JUMPDEST SWAP1 DUP2 MSTORE PUSH1 0x20 ADD PUSH1 0x40 MLOAD DUP1 SWAP2 SUB SWAP1 KECCAK256 SLOAD PUSH1 0x7 PUSH1 0x0 DUP6 DUP2 MSTORE PUSH1 0x20 ADD SWAP1 DUP2 MSTORE PUSH1 0x20 ADD PUSH1 0x0 KECCAK256 PUSH1 0x9 ADD PUSH1 0x0 PUSH1 0x1 DUP2 MSTORE PUSH1 0x20 ADD SWAP1 DUP2 MSTORE PUSH1 0x20 ADD PUSH1 0x0 KECCAK256 DUP1 DUP1 SLOAD PUSH2 0xF3A SWAP1 PUSH2 0x34AA JUMP JUMPDEST DUP1 PUSH1 0x1F ADD PUSH1 0x20 DUP1 SWAP2 DIV MUL PUSH1 0x20 ADD PUSH1 0x40 MLOAD SWAP1 DUP2 ADD PUSH1 0x40 MSTORE DUP1 SWAP3 SWAP2 SWAP1 DUP2 DUP2 MSTORE PUSH1 0x20 ADD DUP3 DUP1 SLOAD PUSH2 0xF66 SWAP1 PUSH2 0x34AA JUMP JUMPDEST DUP1 ISZERO PUSH2 0xFB3 JUMPI DUP1 PUSH1 0x1F LT PUSH2 0xF88 JUMPI PUSH2 0x100 DUP1 DUP4 SLOAD DIV MUL DUP4 MSTORE SWAP2 PUSH1 0x20 ADD SWAP2 PUSH2 0xFB3 JUMP JUMPDEST DUP3 ADD SWAP2 SWAP1 PUSH1 0x0 MSTORE PUSH1 0x20 PUSH1 0x0 KECCAK256 SWAP1 JUMPDEST DUP2 SLOAD DUP2 MSTORE SWAP1 PUSH1 0x1 ADD SWAP1 PUSH1 0x20 ADD DUP1 DUP4 GT PUSH2 0xF96 JUMPI DUP3 SWAP1 SUB PUSH1 0x1F AND DUP3 ADD SWAP2 JUMPDEST POP POP POP POP POP SWAP1 POP SWAP2 POP SWAP2 POP SWAP2 POP SWAP2 JUMP JUMPDEST PUSH1 0x8 PUSH1 0x20 MSTORE DUP2 PUSH1 0x0 MSTORE PUSH1 0x40 PUSH1 0x0 KECCAK256 PUSH1 0x20 MSTORE DUP1 PUSH1 0x0 MSTORE PUSH1 0x40 PUSH1 0x0 KECCAK256 PUSH1 0x0 SWAP2 POP SWAP2 POP POP DUP1 PUSH1 0x0 ADD SLOAD SWAP1 DUP1 PUSH1 0x1 ADD PUSH1 0x0 SWAP1 SLOAD SWAP1 PUSH2 0x100 EXP SWAP1 DIV PUSH20 0xFFFFFFFFFFFFFFFFFFFFFFFFFFFFFFFFFFFFFFFF AND SWAP1 DUP1 PUSH1 0x1 ADD PUSH1 0x14 SWAP1 SLOAD SWAP1 PUSH2 0x100 EXP SWAP1 DIV PUSH1 0xFF AND SWAP1 DUP1 PUSH1 0x2 ADD SLOAD SWAP1 POP DUP5 JUMP JUMPDEST PUSH1 0x6 PUSH1 0x20 MSTORE DUP1 PUSH1 0x0 MSTORE PUSH1 0x40 PUSH1 0x0 KECCAK256 PUSH1 0x0 SWAP2 POP SWAP1 POP DUP1 PUSH1 0x0 ADD PUSH1 0x0 SWAP1 SLOAD SWAP1 PUSH2 0x100 EXP SWAP1 DIV PUSH16 0xFFFFFFFFFFFFFFFFFFFFFFFFFFFFFFFF AND SWAP1 DUP1 PUSH1 0x0 ADD PUSH1 0x10 SWAP1 SLOAD SWAP1 PUSH2 0x100 EXP SWAP1 DIV PUSH16 0xFFFFFFFFFFFFFFFFFFFFFFFFFFFFFFFF AND SWAP1 POP DUP3 JUMP JUMPDEST PUSH1 0x0 DUP8 DUP12 PUSH1 0x0 ADD PUSH1 0x0 PUSH2 0x100 EXP DUP2 SLOAD DUP2 PUSH20 0xFFFFFFFFFFFFFFFFFFFFFFFFFFFFFFFFFFFFFFFF MUL NOT AND SWAP1 DUP4 PUSH20 0xFFFFFFFFFFFFFFFFFFFFFFFFFFFFFFFFFFFFFFFF AND MUL OR SWAP1 SSTORE POP DUP10 DUP12 PUSH1 0x0 ADD PUSH1 0x14 PUSH2 0x100 EXP DUP2 SLOAD DUP2 PUSH1 0xFF MUL NOT AND SWAP1 DUP4 PUSH1 0xFF AND MUL OR SWAP1 SSTORE POP DUP5 DUP12 PUSH1 0x1 ADD SWAP1 DUP1 MLOAD SWAP1 PUSH1 0x20 ADD SWAP1 PUSH2 0x1103 SWAP3 SWAP2 SWAP1 PUSH2 0x1E94 JUMP JUMPDEST POP DUP7 DUP12 PUSH1 0x2 ADD DUP2 SWAP1 SSTORE POP DUP6 DUP12 PUSH1 0x3 ADD DUP2 SWAP1 SSTORE POP DUP3 DUP3 SWAP1 POP DUP12 PUSH1 0x4 ADD PUSH1 0x0 PUSH2 0x100 EXP DUP2 SLOAD DUP2 PUSH2 0xFFFF MUL NOT AND SWAP1 DUP4 PUSH2 0xFFFF AND MUL OR SWAP1 SSTORE POP DUP4 DUP12 PUSH1 0x5 ADD DUP2 SWAP1 SSTORE POP PUSH1 0x0 JUMPDEST DUP4 DUP4 SWAP1 POP DUP2 LT ISZERO PUSH2 0x1214 JUMPI PUSH1 0x1 DUP13 PUSH1 0x7 ADD DUP6 DUP6 DUP5 DUP2 DUP2 LT PUSH2 0x1168 JUMPI PUSH2 0x1167 PUSH2 0x3618 JUMP JUMPDEST JUMPDEST SWAP1 POP PUSH1 0x20 MUL DUP2 ADD SWAP1 PUSH2 0x117A SWAP2 SWAP1 PUSH2 0x307F JUMP JUMPDEST PUSH1 0x40 MLOAD PUSH2 0x1188 SWAP3 SWAP2 SWAP1 PUSH2 0x2B53 JUMP JUMPDEST SWAP1 DUP2 MSTORE PUSH1 0x20 ADD PUSH1 0x40 MLOAD DUP1 SWAP2 SUB SWAP1 KECCAK256 PUSH1 0x0 PUSH2 0x100 EXP DUP2 SLOAD DUP2 PUSH1 0xFF MUL NOT AND SWAP1 DUP4 ISZERO ISZERO MUL OR SWAP1 SSTORE POP DUP4 DUP4 DUP3 DUP2 DUP2 LT PUSH2 0x11C0 JUMPI PUSH2 0x11BF PUSH2 0x3618 JUMP JUMPDEST JUMPDEST SWAP1 POP PUSH1 0x20 MUL DUP2 ADD SWAP1 PUSH2 0x11D2 SWAP2 SWAP1 PUSH2 0x307F JUMP JUMPDEST DUP14 PUSH1 0x8 ADD PUSH1 0x0 PUSH1 0x1 DUP6 PUSH2 0x11E5 SWAP2 SWAP1 PUSH2 0x3305 JUMP JUMPDEST DUP2 MSTORE PUSH1 0x20 ADD SWAP1 DUP2 MSTORE PUSH1 0x20 ADD PUSH1 0x0 KECCAK256 SWAP2 SWAP1 PUSH2 0x1200 SWAP3 SWAP2 SWAP1 PUSH2 0x1F1A JUMP JUMPDEST POP DUP1 DUP1 PUSH2 0x120C SWAP1 PUSH2 0x3571 JUMP JUMPDEST SWAP2 POP POP PUSH2 0x1144 JUMP JUMPDEST POP PUSH1 0x0 JUMPDEST DUP10 MLOAD DUP2 LT ISZERO PUSH2 0x12A8 JUMPI PUSH1 0x1 DUP13 PUSH1 0x6 ADD PUSH1 0x0 DUP13 DUP5 DUP2 MLOAD DUP2 LT PUSH2 0x123C JUMPI PUSH2 0x123B PUSH2 0x3618 JUMP JUMPDEST JUMPDEST PUSH1 0x20 MUL PUSH1 0x20 ADD ADD MLOAD PUSH20 0xFFFFFFFFFFFFFFFFFFFFFFFFFFFFFFFFFFFFFFFF AND PUSH20 0xFFFFFFFFFFFFFFFFFFFFFFFFFFFFFFFFFFFFFFFF AND DUP2 MSTORE PUSH1 0x20 ADD SWAP1 DUP2 MSTORE PUSH1 0x20 ADD PUSH1 0x0 KECCAK256 PUSH1 0x0 PUSH2 0x100 EXP DUP2 SLOAD DUP2 PUSH1 0xFF MUL NOT AND SWAP1 DUP4 ISZERO ISZERO MUL OR SWAP1 SSTORE POP DUP1 DUP1 PUSH2 0x12A0 SWAP1 PUSH2 0x3571 JUMP JUMPDEST SWAP2 POP POP PUSH2 0x1218 JUMP JUMPDEST POP PUSH1 0x1 SWAP1 POP SWAP11 SWAP10 POP POP POP POP POP POP POP POP POP POP JUMP JUMPDEST PUSH2 0x12C3 PUSH2 0x13AC JUMP JUMPDEST DUP1 PUSH20 0xFFFFFFFFFFFFFFFFFFFFFFFFFFFFFFFFFFFFFFFF AND PUSH1 0x4 PUSH1 0x0 SWAP1 SLOAD SWAP1 PUSH2 0x100 EXP SWAP1 DIV PUSH20 0xFFFFFFFFFFFFFFFFFFFFFFFFFFFFFFFFFFFFFFFF AND PUSH20 0xFFFFFFFFFFFFFFFFFFFFFFFFFFFFFFFFFFFFFFFF AND EQ PUSH2 0x131D JUMPI PUSH1 0x0 DUP1 REVERT JUMPDEST PUSH2 0x1327 DUP4 DUP4 PUSH2 0x1BE7 JUMP JUMPDEST POP POP POP JUMP JUMPDEST PUSH1 0x0 DUP5 DUP7 PUSH1 0x0 ADD DUP2 SWAP1 SSTORE POP DUP4 DUP7 PUSH1 0x1 ADD PUSH1 0x0 PUSH2 0x100 EXP DUP2 SLOAD DUP2 PUSH20 0xFFFFFFFFFFFFFFFFFFFFFFFFFFFFFFFFFFFFFFFF MUL NOT AND SWAP1 DUP4 PUSH20 0xFFFFFFFFFFFFFFFFFFFFFFFFFFFFFFFFFFFFFFFF AND MUL OR SWAP1 SSTORE POP DUP3 DUP7 PUSH1 0x1 ADD PUSH1 0x14 PUSH2 0x100 EXP DUP2 SLOAD DUP2 PUSH1 0xFF MUL NOT AND SWAP1 DUP4 ISZERO ISZERO MUL OR SWAP1 SSTORE POP DUP2 DUP7 PUSH1 0x2 ADD DUP2 SWAP1 SSTORE POP PUSH1 0x1 SWAP1 POP SWAP6 SWAP5 POP POP POP POP POP JUMP JUMPDEST PUSH1 0x0 CALLER SWAP1 POP SWAP1 JUMP JUMPDEST PUSH1 0x0 DUP3 PUSH1 0x0 ADD PUSH1 0x0 DUP2 DUP2 SWAP1 SLOAD SWAP1 PUSH2 0x100 EXP SWAP1 DIV PUSH16 0xFFFFFFFFFFFFFFFFFFFFFFFFFFFFFFFF AND DUP1 SWAP3 SWAP2 SWAP1 PUSH2 0x13E6 SWAP1 PUSH2 0x350D JUMP JUMPDEST SWAP2 SWAP1 PUSH2 0x100 EXP DUP2 SLOAD DUP2 PUSH16 0xFFFFFFFFFFFFFFFFFFFFFFFFFFFFFFFF MUL NOT AND SWAP1 DUP4 PUSH16 0xFFFFFFFFFFFFFFFFFFFFFFFFFFFFFFFF AND MUL OR SWAP1 SSTORE POP POP DUP2 DUP4 PUSH1 0x1 ADD PUSH1 0x0 DUP6 PUSH1 0x0 ADD PUSH1 0x0 SWAP1 SLOAD SWAP1 PUSH2 0x100 EXP SWAP1 DIV PUSH16 0xFFFFFFFFFFFFFFFFFFFFFFFFFFFFFFFF AND PUSH16 0xFFFFFFFFFFFFFFFFFFFFFFFFFFFFFFFF AND PUSH16 0xFFFFFFFFFFFFFFFFFFFFFFFFFFFFFFFF AND DUP2 MSTORE PUSH1 0x20 ADD SWAP1 DUP2 MSTORE PUSH1 0x20 ADD PUSH1 0x0 KECCAK256 DUP2 SWAP1 SSTORE POP PUSH1 0x1 SWAP1 POP SWAP3 SWAP2 POP POP JUMP JUMPDEST PUSH1 0x0 PUSH1 0x2 DUP6 PUSH1 0x0 ADD PUSH1 0x14 SWAP1 SLOAD SWAP1 PUSH2 0x100 EXP SWAP1 DIV PUSH1 0xFF AND PUSH1 0xFF AND EQ PUSH2 0x14DE JUMPI PUSH1 0x40 MLOAD PUSH32 0x8C379A000000000000000000000000000000000000000000000000000000000 DUP2 MSTORE PUSH1 0x4 ADD PUSH2 0x14D5 SWAP1 PUSH2 0x2C4D JUMP JUMPDEST PUSH1 0x40 MLOAD DUP1 SWAP2 SUB SWAP1 REVERT JUMPDEST DUP5 PUSH1 0x2 ADD SLOAD TIMESTAMP LT ISZERO PUSH2 0x1525 JUMPI PUSH1 0x40 MLOAD PUSH32 0x8C379A000000000000000000000000000000000000000000000000000000000 DUP2 MSTORE PUSH1 0x4 ADD PUSH2 0x151C SWAP1 PUSH2 0x2D2D JUMP JUMPDEST PUSH1 0x40 MLOAD DUP1 SWAP2 SUB SWAP1 REVERT JUMPDEST DUP5 PUSH1 0x3 ADD SLOAD TIMESTAMP GT ISZERO PUSH2 0x177B JUMPI PUSH1 0x2 DUP6 PUSH1 0x0 ADD PUSH1 0x14 PUSH2 0x100 EXP DUP2 SLOAD DUP2 PUSH1 0xFF MUL NOT AND SWAP1 DUP4 PUSH1 0xFF AND MUL OR SWAP1 SSTORE POP PUSH1 0x0 DUP6 PUSH1 0xA ADD DUP7 PUSH1 0x8 ADD PUSH1 0x0 PUSH1 0x1 DUP2 MSTORE PUSH1 0x20 ADD SWAP1 DUP2 MSTORE PUSH1 0x20 ADD PUSH1 0x0 KECCAK256 PUSH1 0x40 MLOAD PUSH2 0x1578 SWAP2 SWAP1 PUSH2 0x2B83 JUMP JUMPDEST SWAP1 DUP2 MSTORE PUSH1 0x20 ADD PUSH1 0x40 MLOAD DUP1 SWAP2 SUB SWAP1 KECCAK256 SLOAD SWAP1 POP PUSH1 0x0 PUSH1 0x1 SWAP1 POP DUP7 PUSH1 0x8 ADD PUSH1 0x0 PUSH1 0x1 DUP2 MSTORE PUSH1 0x20 ADD SWAP1 DUP2 MSTORE PUSH1 0x20 ADD PUSH1 0x0 KECCAK256 DUP8 PUSH1 0x9 ADD PUSH1 0x0 PUSH1 0x1 DUP2 MSTORE PUSH1 0x20 ADD SWAP1 DUP2 MSTORE PUSH1 0x20 ADD PUSH1 0x0 KECCAK256 SWAP1 DUP1 SLOAD PUSH2 0x15C7 SWAP1 PUSH2 0x34AA JUMP JUMPDEST PUSH2 0x15D2 SWAP3 SWAP2 SWAP1 PUSH2 0x1FA0 JUMP JUMPDEST POP PUSH1 0x0 PUSH1 0x2 SWAP1 POP JUMPDEST DUP8 PUSH1 0x4 ADD PUSH1 0x0 SWAP1 SLOAD SWAP1 PUSH2 0x100 EXP SWAP1 DIV PUSH2 0xFFFF AND PUSH2 0xFFFF AND DUP2 PUSH2 0xFFFF AND GT PUSH2 0x176F JUMPI DUP3 DUP9 PUSH1 0xA ADD DUP10 PUSH1 0x8 ADD PUSH1 0x0 DUP5 PUSH2 0xFFFF AND DUP2 MSTORE PUSH1 0x20 ADD SWAP1 DUP2 MSTORE PUSH1 0x20 ADD PUSH1 0x0 KECCAK256 PUSH1 0x40 MLOAD PUSH2 0x1626 SWAP2 SWAP1 PUSH2 0x2B83 JUMP JUMPDEST SWAP1 DUP2 MSTORE PUSH1 0x20 ADD PUSH1 0x40 MLOAD DUP1 SWAP2 SUB SWAP1 KECCAK256 SLOAD GT ISZERO PUSH2 0x16C6 JUMPI DUP8 PUSH1 0xA ADD DUP9 PUSH1 0x8 ADD PUSH1 0x0 DUP4 PUSH2 0xFFFF AND DUP2 MSTORE PUSH1 0x20 ADD SWAP1 DUP2 MSTORE PUSH1 0x20 ADD PUSH1 0x0 KECCAK256 PUSH1 0x40 MLOAD PUSH2 0x1665 SWAP2 SWAP1 PUSH2 0x2B83 JUMP JUMPDEST SWAP1 DUP2 MSTORE PUSH1 0x20 ADD PUSH1 0x40 MLOAD DUP1 SWAP2 SUB SWAP1 KECCAK256 SLOAD SWAP3 POP PUSH1 0x1 SWAP2 POP DUP8 PUSH1 0x8 ADD PUSH1 0x0 DUP3 PUSH2 0xFFFF AND DUP2 MSTORE PUSH1 0x20 ADD SWAP1 DUP2 MSTORE PUSH1 0x20 ADD PUSH1 0x0 KECCAK256 DUP9 PUSH1 0x9 ADD PUSH1 0x0 PUSH1 0x1 DUP2 MSTORE PUSH1 0x20 ADD SWAP1 DUP2 MSTORE PUSH1 0x20 ADD PUSH1 0x0 KECCAK256 SWAP1 DUP1 SLOAD PUSH2 0x16B5 SWAP1 PUSH2 0x34AA JUMP JUMPDEST PUSH2 0x16C0 SWAP3 SWAP2 SWAP1 PUSH2 0x1FA0 JUMP JUMPDEST POP PUSH2 0x175C JUMP JUMPDEST DUP3 DUP9 PUSH1 0xA ADD DUP10 PUSH1 0x8 ADD PUSH1 0x0 DUP5 PUSH2 0xFFFF AND DUP2 MSTORE PUSH1 0x20 ADD SWAP1 DUP2 MSTORE PUSH1 0x20 ADD PUSH1 0x0 KECCAK256 PUSH1 0x40 MLOAD PUSH2 0x16F1 SWAP2 SWAP1 PUSH2 0x2B83 JUMP JUMPDEST SWAP1 DUP2 MSTORE PUSH1 0x20 ADD PUSH1 0x40 MLOAD DUP1 SWAP2 SUB SWAP1 KECCAK256 SLOAD EQ ISZERO PUSH2 0x175B JUMPI DUP2 DUP1 PUSH2 0x1711 SWAP1 PUSH2 0x3571 JUMP JUMPDEST SWAP3 POP POP DUP8 PUSH1 0x8 ADD PUSH1 0x0 DUP3 PUSH2 0xFFFF AND DUP2 MSTORE PUSH1 0x20 ADD SWAP1 DUP2 MSTORE PUSH1 0x20 ADD PUSH1 0x0 KECCAK256 DUP9 PUSH1 0x9 ADD PUSH1 0x0 DUP5 DUP2 MSTORE PUSH1 0x20 ADD SWAP1 DUP2 MSTORE PUSH1 0x20 ADD PUSH1 0x0 KECCAK256 SWAP1 DUP1 SLOAD PUSH2 0x174E SWAP1 PUSH2 0x34AA JUMP JUMPDEST PUSH2 0x1759 SWAP3 SWAP2 SWAP1 PUSH2 0x1FA0 JUMP JUMPDEST POP JUMPDEST JUMPDEST DUP1 DUP1 PUSH2 0x1767 SWAP1 PUSH2 0x3546 JUMP JUMPDEST SWAP2 POP POP PUSH2 0x15DA JUMP JUMPDEST POP PUSH1 0x0 SWAP3 POP POP POP PUSH2 0x1933 JUMP JUMPDEST DUP5 PUSH1 0x6 ADD PUSH1 0x0 DUP6 PUSH20 0xFFFFFFFFFFFFFFFFFFFFFFFFFFFFFFFFFFFFFFFF AND PUSH20 0xFFFFFFFFFFFFFFFFFFFFFFFFFFFFFFFFFFFFFFFF AND DUP2 MSTORE PUSH1 0x20 ADD SWAP1 DUP2 MSTORE PUSH1 0x20 ADD PUSH1 0x0 KECCAK256 PUSH1 0x0 SWAP1 SLOAD SWAP1 PUSH2 0x100 EXP SWAP1 DIV PUSH1 0xFF AND PUSH2 0x1809 JUMPI PUSH1 0x40 MLOAD PUSH32 0x8C379A000000000000000000000000000000000000000000000000000000000 DUP2 MSTORE PUSH1 0x4 ADD PUSH2 0x1800 SWAP1 PUSH2 0x2D6D JUMP JUMPDEST PUSH1 0x40 MLOAD DUP1 SWAP2 SUB SWAP1 REVERT JUMPDEST PUSH1 0x0 JUMPDEST DUP6 PUSH1 0x4 ADD PUSH1 0x0 SWAP1 SLOAD SWAP1 PUSH2 0x100 EXP SWAP1 DIV PUSH2 0xFFFF AND PUSH2 0xFFFF AND DUP2 PUSH2 0xFFFF AND LT ISZERO PUSH2 0x192D JUMPI DUP6 PUSH1 0x7 ADD DUP5 DUP3 PUSH2 0xFFFF AND DUP2 MLOAD DUP2 LT PUSH2 0x1849 JUMPI PUSH2 0x1848 PUSH2 0x3618 JUMP JUMPDEST JUMPDEST PUSH1 0x20 MUL PUSH1 0x20 ADD ADD MLOAD PUSH1 0x40 MLOAD PUSH2 0x185E SWAP2 SWAP1 PUSH2 0x2B6C JUMP JUMPDEST SWAP1 DUP2 MSTORE PUSH1 0x20 ADD PUSH1 0x40 MLOAD DUP1 SWAP2 SUB SWAP1 KECCAK256 PUSH1 0x0 SWAP1 SLOAD SWAP1 PUSH2 0x100 EXP SWAP1 DIV PUSH1 0xFF AND PUSH2 0x18B9 JUMPI PUSH1 0x40 MLOAD PUSH32 0x8C379A000000000000000000000000000000000000000000000000000000000 DUP2 MSTORE PUSH1 0x4 ADD PUSH2 0x18B0 SWAP1 PUSH2 0x2D0D JUMP JUMPDEST PUSH1 0x40 MLOAD DUP1 SWAP2 SUB SWAP1 REVERT JUMPDEST DUP3 DUP2 PUSH2 0xFFFF AND DUP2 MLOAD DUP2 LT PUSH2 0x18D0 JUMPI PUSH2 0x18CF PUSH2 0x3618 JUMP JUMPDEST JUMPDEST PUSH1 0x20 MUL PUSH1 0x20 ADD ADD MLOAD DUP7 PUSH1 0xA ADD DUP6 DUP4 PUSH2 0xFFFF AND DUP2 MLOAD DUP2 LT PUSH2 0x18F3 JUMPI PUSH2 0x18F2 PUSH2 0x3618 JUMP JUMPDEST JUMPDEST PUSH1 0x20 MUL PUSH1 0x20 ADD ADD MLOAD PUSH1 0x40 MLOAD PUSH2 0x1908 SWAP2 SWAP1 PUSH2 0x2B6C JUMP JUMPDEST SWAP1 DUP2 MSTORE PUSH1 0x20 ADD PUSH1 0x40 MLOAD DUP1 SWAP2 SUB SWAP1 KECCAK256 DUP2 SWAP1 SSTORE POP DUP1 DUP1 PUSH2 0x1925 SWAP1 PUSH2 0x3546 JUMP JUMPDEST SWAP2 POP POP PUSH2 0x180C JUMP JUMPDEST POP PUSH1 0x1 SWAP1 POP JUMPDEST SWAP5 SWAP4 POP POP POP POP JUMP JUMPDEST PUSH1 0x0 DUP4 PUSH1 0x0 ADD PUSH1 0x10 DUP2 DUP2 SWAP1 SLOAD SWAP1 PUSH2 0x100 EXP SWAP1 DIV PUSH16 0xFFFFFFFFFFFFFFFFFFFFFFFFFFFFFFFF AND DUP1 SWAP3 SWAP2 SWAP1 PUSH2 0x196D SWAP1 PUSH2 0x350D JUMP JUMPDEST SWAP2 SWAP1 PUSH2 0x100 EXP DUP2 SLOAD DUP2 PUSH16 0xFFFFFFFFFFFFFFFFFFFFFFFFFFFFFFFF MUL NOT AND SWAP1 DUP4 PUSH16 0xFFFFFFFFFFFFFFFFFFFFFFFFFFFFFFFF AND MUL OR SWAP1 SSTORE POP POP DUP3 DUP5 PUSH1 0x2 ADD PUSH1 0x0 DUP7 PUSH1 0x0 ADD PUSH1 0x10 SWAP1 SLOAD SWAP1 PUSH2 0x100 EXP SWAP1 DIV PUSH16 0xFFFFFFFFFFFFFFFFFFFFFFFFFFFFFFFF AND PUSH16 0xFFFFFFFFFFFFFFFFFFFFFFFFFFFFFFFF AND PUSH16 0xFFFFFFFFFFFFFFFFFFFFFFFFFFFFFFFF AND DUP2 MSTORE PUSH1 0x20 ADD SWAP1 DUP2 MSTORE PUSH1 0x20 ADD PUSH1 0x0 KECCAK256 DUP2 SWAP1 SSTORE POP PUSH1 0x0 JUMPDEST DUP3 MLOAD DUP2 PUSH2 0xFFFF AND LT ISZERO PUSH2 0x1A8E JUMPI DUP3 DUP2 PUSH2 0xFFFF AND DUP2 MLOAD DUP2 LT PUSH2 0x1A29 JUMPI PUSH2 0x1A28 PUSH2 0x3618 JUMP JUMPDEST JUMPDEST PUSH1 0x20 MUL PUSH1 0x20 ADD ADD MLOAD DUP6 PUSH1 0x3 ADD PUSH1 0x0 DUP7 DUP2 MSTORE PUSH1 0x20 ADD SWAP1 DUP2 MSTORE PUSH1 0x20 ADD PUSH1 0x0 KECCAK256 PUSH1 0x0 PUSH1 0x1 DUP5 PUSH2 0x1A55 SWAP2 SWAP1 PUSH2 0x32CD JUMP JUMPDEST PUSH2 0xFFFF AND DUP2 MSTORE PUSH1 0x20 ADD SWAP1 DUP2 MSTORE PUSH1 0x20 ADD PUSH1 0x0 KECCAK256 SWAP1 DUP1 MLOAD SWAP1 PUSH1 0x20 ADD SWAP1 PUSH2 0x1A7A SWAP3 SWAP2 SWAP1 PUSH2 0x1E94 JUMP JUMPDEST POP DUP1 DUP1 PUSH2 0x1A86 SWAP1 PUSH2 0x3546 JUMP JUMPDEST SWAP2 POP POP PUSH2 0x1A05 JUMP JUMPDEST POP PUSH1 0x1 DUP5 PUSH1 0x4 ADD PUSH1 0x0 DUP6 DUP2 MSTORE PUSH1 0x20 ADD SWAP1 DUP2 MSTORE PUSH1 0x20 ADD PUSH1 0x0 KECCAK256 PUSH1 0x0 PUSH2 0x100 EXP DUP2 SLOAD DUP2 PUSH1 0xFF MUL NOT AND SWAP1 DUP4 ISZERO ISZERO MUL OR SWAP1 SSTORE POP PUSH1 0x1 SWAP1 POP SWAP4 SWAP3 POP POP POP JUMP JUMPDEST PUSH1 0x0 DUP1 DUP3 PUSH1 0x0 ADD SLOAD EQ ISZERO PUSH2 0x1B11 JUMPI PUSH1 0x40 MLOAD PUSH32 0x8C379A000000000000000000000000000000000000000000000000000000000 DUP2 MSTORE PUSH1 0x4 ADD PUSH2 0x1B08 SWAP1 PUSH2 0x2E89 JUMP JUMPDEST PUSH1 0x40 MLOAD DUP1 SWAP2 SUB SWAP1 REVERT JUMPDEST DUP2 PUSH1 0x1 ADD PUSH1 0x14 SWAP1 SLOAD SWAP1 PUSH2 0x100 EXP SWAP1 DIV PUSH1 0xFF AND ISZERO PUSH2 0x1B63 JUMPI PUSH1 0x40 MLOAD PUSH32 0x8C379A000000000000000000000000000000000000000000000000000000000 DUP2 MSTORE PUSH1 0x4 ADD PUSH2 0x1B5A SWAP1 PUSH2 0x2EE5 JUMP JUMPDEST PUSH1 0x40 MLOAD DUP1 SWAP2 SUB SWAP1 REVERT JUMPDEST PUSH1 0x0 DUP3 PUSH1 0x2 ADD DUP2 SWAP1 SSTORE POP PUSH1 0x1 SWAP1 POP SWAP2 SWAP1 POP JUMP JUMPDEST PUSH2 0x1B7E PUSH2 0x13AC JUMP JUMPDEST DUP1 PUSH20 0xFFFFFFFFFFFFFFFFFFFFFFFFFFFFFFFFFFFFFFFF AND PUSH1 0x4 PUSH1 0x0 SWAP1 SLOAD SWAP1 PUSH2 0x100 EXP SWAP1 DIV PUSH20 0xFFFFFFFFFFFFFFFFFFFFFFFFFFFFFFFFFFFFFFFF AND PUSH20 0xFFFFFFFFFFFFFFFFFFFFFFFFFFFFFFFFFFFFFFFF AND EQ PUSH2 0x1BD8 JUMPI PUSH1 0x0 DUP1 REVERT JUMPDEST PUSH2 0x1BE2 DUP4 DUP4 PUSH2 0x1D02 JUMP JUMPDEST POP POP POP JUMP JUMPDEST PUSH1 0x0 PUSH20 0xFFFFFFFFFFFFFFFFFFFFFFFFFFFFFFFFFFFFFFFF AND DUP3 PUSH20 0xFFFFFFFFFFFFFFFFFFFFFFFFFFFFFFFFFFFFFFFF AND EQ ISZERO PUSH2 0x1C57 JUMPI PUSH1 0x40 MLOAD PUSH32 0x8C379A000000000000000000000000000000000000000000000000000000000 DUP2 MSTORE PUSH1 0x4 ADD PUSH2 0x1C4E SWAP1 PUSH2 0x2F05 JUMP JUMPDEST PUSH1 0x40 MLOAD DUP1 SWAP2 SUB SWAP1 REVERT JUMPDEST DUP1 PUSH1 0x1 PUSH1 0x0 DUP3 DUP3 SLOAD PUSH2 0x1C69 SWAP2 SWAP1 PUSH2 0x3305 JUMP JUMPDEST SWAP3 POP POP DUP2 SWAP1 SSTORE POP DUP1 PUSH1 0x0 DUP1 DUP5 PUSH20 0xFFFFFFFFFFFFFFFFFFFFFFFFFFFFFFFFFFFFFFFF AND PUSH20 0xFFFFFFFFFFFFFFFFFFFFFFFFFFFFFFFFFFFFFFFF AND DUP2 MSTORE PUSH1 0x20 ADD SWAP1 DUP2 MSTORE PUSH1 0x20 ADD PUSH1 0x0 KECCAK256 PUSH1 0x0 DUP3 DUP3 SLOAD PUSH2 0x1CBE SWAP2 SWAP1 PUSH2 0x3305 JUMP JUMPDEST SWAP3 POP POP DUP2 SWAP1 SSTORE POP PUSH32 0xABF5327BE9F5825C40D58BDA541DD07F09B62DF3376BBD5ECDBAA8BD82A9D492 DUP3 DUP3 PUSH1 0x40 MLOAD PUSH2 0x1CF6 SWAP3 SWAP2 SWAP1 PUSH2 0x2E4D JUMP JUMPDEST PUSH1 0x40 MLOAD DUP1 SWAP2 SUB SWAP1 LOG1 POP POP JUMP JUMPDEST PUSH1 0x0 PUSH20 0xFFFFFFFFFFFFFFFFFFFFFFFFFFFFFFFFFFFFFFFF AND DUP3 PUSH20 0xFFFFFFFFFFFFFFFFFFFFFFFFFFFFFFFFFFFFFFFF AND EQ ISZERO PUSH2 0x1D72 JUMPI PUSH1 0x40 MLOAD PUSH32 0x8C379A000000000000000000000000000000000000000000000000000000000 DUP2 MSTORE PUSH1 0x4 ADD PUSH2 0x1D69 SWAP1 PUSH2 0x2DED JUMP JUMPDEST PUSH1 0x40 MLOAD DUP1 SWAP2 SUB SWAP1 REVERT JUMPDEST PUSH1 0x0 DUP1 PUSH1 0x0 DUP5 PUSH20 0xFFFFFFFFFFFFFFFFFFFFFFFFFFFFFFFFFFFFFFFF AND PUSH20 0xFFFFFFFFFFFFFFFFFFFFFFFFFFFFFFFFFFFFFFFF AND DUP2 MSTORE PUSH1 0x20 ADD SWAP1 DUP2 MSTORE PUSH1 0x20 ADD PUSH1 0x0 KECCAK256 SLOAD SWAP1 POP DUP2 DUP2 LT ISZERO PUSH2 0x1DF8 JUMPI PUSH1 0x40 MLOAD PUSH32 0x8C379A000000000000000000000000000000000000000000000000000000000 DUP2 MSTORE PUSH1 0x4 ADD PUSH2 0x1DEF SWAP1 PUSH2 0x2C8D JUMP JUMPDEST PUSH1 0x40 MLOAD DUP1 SWAP2 SUB SWAP1 REVERT JUMPDEST DUP2 DUP2 SUB PUSH1 0x0 DUP1 DUP6 PUSH20 0xFFFFFFFFFFFFFFFFFFFFFFFFFFFFFFFFFFFFFFFF AND PUSH20 0xFFFFFFFFFFFFFFFFFFFFFFFFFFFFFFFFFFFFFFFF AND DUP2 MSTORE PUSH1 0x20 ADD SWAP1 DUP2 MSTORE PUSH1 0x20 ADD PUSH1 0x0 KECCAK256 DUP2 SWAP1 SSTORE POP DUP2 PUSH1 0x1 PUSH1 0x0 DUP3 DUP3 SLOAD PUSH2 0x1E4F SWAP2 SWAP1 PUSH2 0x33B5 JUMP JUMPDEST SWAP3 POP POP DUP2 SWAP1 SSTORE POP PUSH32 0xABF5327BE9F5825C40D58BDA541DD07F09B62DF3376BBD5ECDBAA8BD82A9D492 DUP4 DUP4 PUSH1 0x40 MLOAD PUSH2 0x1E87 SWAP3 SWAP2 SWAP1 PUSH2 0x2EA9 JUMP JUMPDEST PUSH1 0x40 MLOAD DUP1 SWAP2 SUB SWAP1 LOG1 POP POP POP JUMP JUMPDEST DUP3 DUP1 SLOAD PUSH2 0x1EA0 SWAP1 PUSH2 0x34AA JUMP JUMPDEST SWAP1 PUSH1 0x0 MSTORE PUSH1 0x20 PUSH1 0x0 KECCAK256 SWAP1 PUSH1 0x1F ADD PUSH1 0x20 SWAP1 DIV DUP2 ADD SWAP3 DUP3 PUSH2 0x1EC2 JUMPI PUSH1 0x0 DUP6 SSTORE PUSH2 0x1F09 JUMP JUMPDEST DUP3 PUSH1 0x1F LT PUSH2 0x1EDB JUMPI DUP1 MLOAD PUSH1 0xFF NOT AND DUP4 DUP1 ADD OR DUP6 SSTORE PUSH2 0x1F09 JUMP JUMPDEST DUP3 DUP1 ADD PUSH1 0x1 ADD DUP6 SSTORE DUP3 ISZERO PUSH2 0x1F09 JUMPI SWAP2 DUP3 ADD JUMPDEST DUP3 DUP2 GT ISZERO PUSH2 0x1F08 JUMPI DUP3 MLOAD DUP3 SSTORE SWAP2 PUSH1 0x20 ADD SWAP2 SWAP1 PUSH1 0x1 ADD SWAP1 PUSH2 0x1EED JUMP JUMPDEST JUMPDEST POP SWAP1 POP PUSH2 0x1F16 SWAP2 SWAP1 PUSH2 0x202D JUMP JUMPDEST POP SWAP1 JUMP JUMPDEST DUP3 DUP1 SLOAD PUSH2 0x1F26 SWAP1 PUSH2 0x34AA JUMP JUMPDEST SWAP1 PUSH1 0x0 MSTORE PUSH1 0x20 PUSH1 0x0 KECCAK256 SWAP1 PUSH1 0x1F ADD PUSH1 0x20 SWAP1 DIV DUP2 ADD SWAP3 DUP3 PUSH2 0x1F48 JUMPI PUSH1 0x0 DUP6 SSTORE PUSH2 0x1F8F JUMP JUMPDEST DUP3 PUSH1 0x1F LT PUSH2 0x1F61 JUMPI DUP1 CALLDATALOAD PUSH1 0xFF NOT AND DUP4 DUP1 ADD OR DUP6 SSTORE PUSH2 0x1F8F JUMP JUMPDEST DUP3 DUP1 ADD PUSH1 0x1 ADD DUP6 SSTORE DUP3 ISZERO PUSH2 0x1F8F JUMPI SWAP2 DUP3 ADD JUMPDEST DUP3 DUP2 GT ISZERO PUSH2 0x1F8E JUMPI DUP3 CALLDATALOAD DUP3 SSTORE SWAP2 PUSH1 0x20 ADD SWAP2 SWAP1 PUSH1 0x1 ADD SWAP1 PUSH2 0x1F73 JUMP JUMPDEST JUMPDEST POP SWAP1 POP PUSH2 0x1F9C SWAP2 SWAP1 PUSH2 0x202D JUMP JUMPDEST POP SWAP1 JUMP JUMPDEST DUP3 DUP1 SLOAD PUSH2 0x1FAC SWAP1 PUSH2 0x34AA JUMP JUMPDEST SWAP1 PUSH1 0x0 MSTORE PUSH1 0x20 PUSH1 0x0 KECCAK256 SWAP1 PUSH1 0x1F ADD PUSH1 0x20 SWAP1 DIV DUP2 ADD SWAP3 DUP3 PUSH2 0x1FCE JUMPI PUSH1 0x0 DUP6 SSTORE PUSH2 0x201C JUMP JUMPDEST DUP3 PUSH1 0x1F LT PUSH2 0x1FDF JUMPI DUP1 SLOAD DUP6 SSTORE PUSH2 0x201C JUMP JUMPDEST DUP3 DUP1 ADD PUSH1 0x1 ADD DUP6 SSTORE DUP3 ISZERO PUSH2 0x201C JUMPI PUSH1 0x0 MSTORE PUSH1 0x20 PUSH1 0x0 KECCAK256 SWAP2 PUSH1 0x1F ADD PUSH1 0x20 SWAP1 DIV DUP3 ADD JUMPDEST DUP3 DUP2 GT ISZERO PUSH2 0x201B JUMPI DUP3 SLOAD DUP3 SSTORE SWAP2 PUSH1 0x1 ADD SWAP2 SWAP1 PUSH1 0x1 ADD SWAP1 PUSH2 0x2000 JUMP JUMPDEST JUMPDEST POP SWAP1 POP PUSH2 0x2029 SWAP2 SWAP1 PUSH2 0x202D JUMP JUMPDEST POP SWAP1 JUMP JUMPDEST JUMPDEST DUP1 DUP3 GT ISZERO PUSH2 0x2046 JUMPI PUSH1 0x0 DUP2 PUSH1 0x0 SWAP1 SSTORE POP PUSH1 0x1 ADD PUSH2 0x202E JUMP JUMPDEST POP SWAP1 JUMP JUMPDEST PUSH1 0x0 PUSH2 0x205D PUSH2 0x2058 DUP5 PUSH2 0x3107 JUMP JUMPDEST PUSH2 0x30E2 JUMP JUMPDEST SWAP1 POP DUP1 DUP4 DUP3 MSTORE PUSH1 0x20 DUP3 ADD SWAP1 POP DUP3 DUP6 PUSH1 0x20 DUP7 MUL DUP3 ADD GT ISZERO PUSH2 0x2080 JUMPI PUSH2 0x207F PUSH2 0x3694 JUMP JUMPDEST JUMPDEST PUSH1 0x0 JUMPDEST DUP6 DUP2 LT ISZERO PUSH2 0x20B0 JUMPI DUP2 PUSH2 0x2096 DUP9 DUP3 PUSH2 0x21FA JUMP JUMPDEST DUP5 MSTORE PUSH1 0x20 DUP5 ADD SWAP4 POP PUSH1 0x20 DUP4 ADD SWAP3 POP POP PUSH1 0x1 DUP2 ADD SWAP1 POP PUSH2 0x2083 JUMP JUMPDEST POP POP POP SWAP4 SWAP3 POP POP POP JUMP JUMPDEST PUSH1 0x0 PUSH2 0x20CD PUSH2 0x20C8 DUP5 PUSH2 0x3133 JUMP JUMPDEST PUSH2 0x30E2 JUMP JUMPDEST SWAP1 POP DUP1 DUP4 DUP3 MSTORE PUSH1 0x20 DUP3 ADD SWAP1 POP DUP3 DUP6 PUSH1 0x20 DUP7 MUL DUP3 ADD GT ISZERO PUSH2 0x20F0 JUMPI PUSH2 0x20EF PUSH2 0x3694 JUMP JUMPDEST JUMPDEST PUSH1 0x0 JUMPDEST DUP6 DUP2 LT ISZERO PUSH2 0x213E JUMPI DUP2 CALLDATALOAD PUSH8 0xFFFFFFFFFFFFFFFF DUP2 GT ISZERO PUSH2 0x2116 JUMPI PUSH2 0x2115 PUSH2 0x3680 JUMP JUMPDEST JUMPDEST DUP1 DUP7 ADD PUSH2 0x2123 DUP10 DUP3 PUSH2 0x22EF JUMP JUMPDEST DUP6 MSTORE PUSH1 0x20 DUP6 ADD SWAP5 POP PUSH1 0x20 DUP5 ADD SWAP4 POP POP POP PUSH1 0x1 DUP2 ADD SWAP1 POP PUSH2 0x20F3 JUMP JUMPDEST POP POP POP SWAP4 SWAP3 POP POP POP JUMP JUMPDEST PUSH1 0x0 PUSH2 0x215B PUSH2 0x2156 DUP5 PUSH2 0x315F JUMP JUMPDEST PUSH2 0x30E2 JUMP JUMPDEST SWAP1 POP DUP1 DUP4 DUP3 MSTORE PUSH1 0x20 DUP3 ADD SWAP1 POP DUP3 DUP6 PUSH1 0x20 DUP7 MUL DUP3 ADD GT ISZERO PUSH2 0x217E JUMPI PUSH2 0x217D PUSH2 0x3694 JUMP JUMPDEST JUMPDEST PUSH1 0x0 JUMPDEST DUP6 DUP2 LT ISZERO PUSH2 0x21AE JUMPI DUP2 PUSH2 0x2194 DUP9 DUP3 PUSH2 0x231D JUMP JUMPDEST DUP5 MSTORE PUSH1 0x20 DUP5 ADD SWAP4 POP PUSH1 0x20 DUP4 ADD SWAP3 POP POP PUSH1 0x1 DUP2 ADD SWAP1 POP PUSH2 0x2181 JUMP JUMPDEST POP POP POP SWAP4 SWAP3 POP POP POP JUMP JUMPDEST PUSH1 0x0 PUSH2 0x21CB PUSH2 0x21C6 DUP5 PUSH2 0x318B JUMP JUMPDEST PUSH2 0x30E2 JUMP JUMPDEST SWAP1 POP DUP3 DUP2 MSTORE PUSH1 0x20 DUP2 ADD DUP5 DUP5 DUP5 ADD GT ISZERO PUSH2 0x21E7 JUMPI PUSH2 0x21E6 PUSH2 0x369E JUMP JUMPDEST JUMPDEST PUSH2 0x21F2 DUP5 DUP3 DUP6 PUSH2 0x3468 JUMP JUMPDEST POP SWAP4 SWAP3 POP POP POP JUMP JUMPDEST PUSH1 0x0 DUP2 CALLDATALOAD SWAP1 POP PUSH2 0x2209 DUP2 PUSH2 0x3B50 JUMP JUMPDEST SWAP3 SWAP2 POP POP JUMP JUMPDEST PUSH1 0x0 DUP3 PUSH1 0x1F DUP4 ADD SLT PUSH2 0x2224 JUMPI PUSH2 0x2223 PUSH2 0x3680 JUMP JUMPDEST JUMPDEST DUP2 CALLDATALOAD PUSH2 0x2234 DUP5 DUP3 PUSH1 0x20 DUP7 ADD PUSH2 0x204A JUMP JUMPDEST SWAP2 POP POP SWAP3 SWAP2 POP POP JUMP JUMPDEST PUSH1 0x0 DUP1 DUP4 PUSH1 0x1F DUP5 ADD SLT PUSH2 0x2253 JUMPI PUSH2 0x2252 PUSH2 0x3680 JUMP JUMPDEST JUMPDEST DUP3 CALLDATALOAD SWAP1 POP PUSH8 0xFFFFFFFFFFFFFFFF DUP2 GT ISZERO PUSH2 0x2270 JUMPI PUSH2 0x226F PUSH2 0x367B JUMP JUMPDEST JUMPDEST PUSH1 0x20 DUP4 ADD SWAP2 POP DUP4 PUSH1 0x20 DUP3 MUL DUP4 ADD GT ISZERO PUSH2 0x228C JUMPI PUSH2 0x228B PUSH2 0x3694 JUMP JUMPDEST JUMPDEST SWAP3 POP SWAP3 SWAP1 POP JUMP JUMPDEST PUSH1 0x0 DUP3 PUSH1 0x1F DUP4 ADD SLT PUSH2 0x22A8 JUMPI PUSH2 0x22A7 PUSH2 0x3680 JUMP JUMPDEST JUMPDEST DUP2 CALLDATALOAD PUSH2 0x22B8 DUP5 DUP3 PUSH1 0x20 DUP7 ADD PUSH2 0x20BA JUMP JUMPDEST SWAP2 POP POP SWAP3 SWAP2 POP POP JUMP JUMPDEST PUSH1 0x0 DUP3 PUSH1 0x1F DUP4 ADD SLT PUSH2 0x22D6 JUMPI PUSH2 0x22D5 PUSH2 0x3680 JUMP JUMPDEST JUMPDEST DUP2 CALLDATALOAD PUSH2 0x22E6 DUP5 DUP3 PUSH1 0x20 DUP7 ADD PUSH2 0x2148 JUMP JUMPDEST SWAP2 POP POP SWAP3 SWAP2 POP POP JUMP JUMPDEST PUSH1 0x0 DUP3 PUSH1 0x1F DUP4 ADD SLT PUSH2 0x2304 JUMPI PUSH2 0x2303 PUSH2 0x3680 JUMP JUMPDEST JUMPDEST DUP2 CALLDATALOAD PUSH2 0x2314 DUP5 DUP3 PUSH1 0x20 DUP7 ADD PUSH2 0x21B8 JUMP JUMPDEST SWAP2 POP POP SWAP3 SWAP2 POP POP JUMP JUMPDEST PUSH1 0x0 DUP2 CALLDATALOAD SWAP1 POP PUSH2 0x232C DUP2 PUSH2 0x3B67 JUMP JUMPDEST SWAP3 SWAP2 POP POP JUMP JUMPDEST PUSH1 0x0 DUP2 CALLDATALOAD SWAP1 POP PUSH2 0x2341 DUP2 PUSH2 0x3B7E JUMP JUMPDEST SWAP3 SWAP2 POP POP JUMP JUMPDEST PUSH1 0x0 PUSH1 0x20 DUP3 DUP5 SUB SLT ISZERO PUSH2 0x235D JUMPI PUSH2 0x235C PUSH2 0x36AD JUMP JUMPDEST JUMPDEST PUSH1 0x0 PUSH2 0x236B DUP5 DUP3 DUP6 ADD PUSH2 0x21FA JUMP JUMPDEST SWAP2 POP POP SWAP3 SWAP2 POP POP JUMP JUMPDEST PUSH1 0x0 DUP1 PUSH1 0x40 DUP4 DUP6 SUB SLT ISZERO PUSH2 0x238B JUMPI PUSH2 0x238A PUSH2 0x36AD JUMP JUMPDEST JUMPDEST PUSH1 0x0 PUSH2 0x2399 DUP6 DUP3 DUP7 ADD PUSH2 0x21FA JUMP JUMPDEST SWAP3 POP POP PUSH1 0x20 PUSH2 0x23AA DUP6 DUP3 DUP7 ADD PUSH2 0x231D JUMP JUMPDEST SWAP2 POP POP SWAP3 POP SWAP3 SWAP1 POP JUMP JUMPDEST PUSH1 0x0 PUSH1 0x20 DUP3 DUP5 SUB SLT ISZERO PUSH2 0x23CA JUMPI PUSH2 0x23C9 PUSH2 0x36AD JUMP JUMPDEST JUMPDEST PUSH1 0x0 PUSH2 0x23D8 DUP5 DUP3 DUP6 ADD PUSH2 0x231D JUMP JUMPDEST SWAP2 POP POP SWAP3 SWAP2 POP POP JUMP JUMPDEST PUSH1 0x0 DUP1 PUSH1 0x40 DUP4 DUP6 SUB SLT ISZERO PUSH2 0x23F8 JUMPI PUSH2 0x23F7 PUSH2 0x36AD JUMP JUMPDEST JUMPDEST PUSH1 0x0 PUSH2 0x2406 DUP6 DUP3 DUP7 ADD PUSH2 0x231D JUMP JUMPDEST SWAP3 POP POP PUSH1 0x20 PUSH2 0x2417 DUP6 DUP3 DUP7 ADD PUSH2 0x21FA JUMP JUMPDEST SWAP2 POP POP SWAP3 POP SWAP3 SWAP1 POP JUMP JUMPDEST PUSH1 0x0 DUP1 PUSH1 0x0 DUP1 PUSH1 0x80 DUP6 DUP8 SUB SLT ISZERO PUSH2 0x243B JUMPI PUSH2 0x243A PUSH2 0x36AD JUMP JUMPDEST JUMPDEST PUSH1 0x0 PUSH2 0x2449 DUP8 DUP3 DUP9 ADD PUSH2 0x231D JUMP JUMPDEST SWAP5 POP POP PUSH1 0x20 PUSH2 0x245A DUP8 DUP3 DUP9 ADD PUSH2 0x21FA JUMP JUMPDEST SWAP4 POP POP PUSH1 0x40 DUP6 ADD CALLDATALOAD PUSH8 0xFFFFFFFFFFFFFFFF DUP2 GT ISZERO PUSH2 0x247B JUMPI PUSH2 0x247A PUSH2 0x36A3 JUMP JUMPDEST JUMPDEST PUSH2 0x2487 DUP8 DUP3 DUP9 ADD PUSH2 0x2293 JUMP JUMPDEST SWAP3 POP POP PUSH1 0x60 DUP6 ADD CALLDATALOAD PUSH8 0xFFFFFFFFFFFFFFFF DUP2 GT ISZERO PUSH2 0x24A8 JUMPI PUSH2 0x24A7 PUSH2 0x36A3 JUMP JUMPDEST JUMPDEST PUSH2 0x24B4 DUP8 DUP3 DUP9 ADD PUSH2 0x22C1 JUMP JUMPDEST SWAP2 POP POP SWAP3 SWAP6 SWAP2 SWAP5 POP SWAP3 POP JUMP JUMPDEST PUSH1 0x0 DUP1 PUSH1 0x0 DUP1 PUSH1 0x0 DUP1 PUSH1 0x0 DUP1 PUSH1 0x0 PUSH2 0x100 DUP11 DUP13 SUB SLT ISZERO PUSH2 0x24E3 JUMPI PUSH2 0x24E2 PUSH2 0x36AD JUMP JUMPDEST JUMPDEST PUSH1 0x0 PUSH2 0x24F1 DUP13 DUP3 DUP14 ADD PUSH2 0x2332 JUMP JUMPDEST SWAP10 POP POP PUSH1 0x20 DUP11 ADD CALLDATALOAD PUSH8 0xFFFFFFFFFFFFFFFF DUP2 GT ISZERO PUSH2 0x2512 JUMPI PUSH2 0x2511 PUSH2 0x36A3 JUMP JUMPDEST JUMPDEST PUSH2 0x251E DUP13 DUP3 DUP14 ADD PUSH2 0x220F JUMP JUMPDEST SWAP9 POP POP PUSH1 0x40 PUSH2 0x252F DUP13 DUP3 DUP14 ADD PUSH2 0x21FA JUMP JUMPDEST SWAP8 POP POP PUSH1 0x60 PUSH2 0x2540 DUP13 DUP3 DUP14 ADD PUSH2 0x231D JUMP JUMPDEST SWAP7 POP POP PUSH1 0x80 PUSH2 0x2551 DUP13 DUP3 DUP14 ADD PUSH2 0x231D JUMP JUMPDEST SWAP6 POP POP PUSH1 0xA0 DUP11 ADD CALLDATALOAD PUSH8 0xFFFFFFFFFFFFFFFF DUP2 GT ISZERO PUSH2 0x2572 JUMPI PUSH2 0x2571 PUSH2 0x36A3 JUMP JUMPDEST JUMPDEST PUSH2 0x257E DUP13 DUP3 DUP14 ADD PUSH2 0x22EF JUMP JUMPDEST SWAP5 POP POP PUSH1 0xC0 DUP11 ADD CALLDATALOAD PUSH8 0xFFFFFFFFFFFFFFFF DUP2 GT ISZERO PUSH2 0x259F JUMPI PUSH2 0x259E PUSH2 0x36A3 JUMP JUMPDEST JUMPDEST PUSH2 0x25AB DUP13 DUP3 DUP14 ADD PUSH2 0x223D JUMP JUMPDEST SWAP4 POP SWAP4 POP POP PUSH1 0xE0 PUSH2 0x25BE DUP13 DUP3 DUP14 ADD PUSH2 0x231D JUMP JUMPDEST SWAP2 POP POP SWAP3 SWAP6 SWAP9 POP SWAP3 SWAP6 SWAP9 POP SWAP3 SWAP6 SWAP9 JUMP JUMPDEST PUSH1 0x0 PUSH2 0x25DA DUP4 DUP4 PUSH2 0x25FC JUMP JUMPDEST PUSH1 0x20 DUP4 ADD SWAP1 POP SWAP3 SWAP2 POP POP JUMP JUMPDEST PUSH1 0x0 PUSH2 0x25F3 DUP5 DUP5 DUP5 PUSH2 0x26FD JUMP JUMPDEST SWAP1 POP SWAP4 SWAP3 POP POP POP JUMP JUMPDEST PUSH2 0x2605 DUP2 PUSH2 0x33E9 JUMP JUMPDEST DUP3 MSTORE POP POP JUMP JUMPDEST PUSH2 0x2614 DUP2 PUSH2 0x33E9 JUMP JUMPDEST DUP3 MSTORE POP POP JUMP JUMPDEST PUSH1 0x0 PUSH2 0x2625 DUP3 PUSH2 0x31EB JUMP JUMPDEST PUSH2 0x262F DUP2 DUP6 PUSH2 0x321B JUMP JUMPDEST SWAP4 POP PUSH2 0x263A DUP4 PUSH2 0x31BC JUMP JUMPDEST DUP1 PUSH1 0x0 JUMPDEST DUP4 DUP2 LT ISZERO PUSH2 0x266B JUMPI DUP2 MLOAD PUSH2 0x2652 DUP9 DUP3 PUSH2 0x25CE JUMP JUMPDEST SWAP8 POP PUSH2 0x265D DUP4 PUSH2 0x3201 JUMP JUMPDEST SWAP3 POP POP PUSH1 0x1 DUP2 ADD SWAP1 POP PUSH2 0x263E JUMP JUMPDEST POP DUP6 SWAP4 POP POP POP POP SWAP3 SWAP2 POP POP JUMP JUMPDEST PUSH1 0x0 PUSH2 0x2684 DUP4 DUP6 PUSH2 0x322C JUMP JUMPDEST SWAP4 POP DUP4 PUSH1 0x20 DUP5 MUL DUP6 ADD PUSH2 0x2696 DUP5 PUSH2 0x31CC JUMP JUMPDEST DUP1 PUSH1 0x0 JUMPDEST DUP8 DUP2 LT ISZERO PUSH2 0x26DC JUMPI DUP5 DUP5 SUB DUP10 MSTORE PUSH2 0x26B1 DUP3 DUP5 PUSH2 0x326A JUMP JUMPDEST PUSH2 0x26BC DUP7 DUP3 DUP5 PUSH2 0x25E6 JUMP JUMPDEST SWAP6 POP PUSH2 0x26C7 DUP5 PUSH2 0x320E JUMP JUMPDEST SWAP4 POP PUSH1 0x20 DUP12 ADD SWAP11 POP POP POP PUSH1 0x1 DUP2 ADD SWAP1 POP PUSH2 0x269A JUMP JUMPDEST POP DUP3 SWAP8 POP DUP8 SWAP5 POP POP POP POP POP SWAP4 SWAP3 POP POP POP JUMP JUMPDEST PUSH2 0x26F7 DUP2 PUSH2 0x33FB JUMP JUMPDEST DUP3 MSTORE POP POP JUMP JUMPDEST PUSH1 0x0 PUSH2 0x2709 DUP4 DUP6 PUSH2 0x323D JUMP JUMPDEST SWAP4 POP PUSH2 0x2716 DUP4 DUP6 DUP5 PUSH2 0x3468 JUMP JUMPDEST PUSH2 0x271F DUP4 PUSH2 0x36B2 JUMP JUMPDEST DUP5 ADD SWAP1 POP SWAP4 SWAP3 POP POP POP JUMP JUMPDEST PUSH1 0x0 PUSH2 0x2736 DUP4 DUP6 PUSH2 0x325F JUMP JUMPDEST SWAP4 POP PUSH2 0x2743 DUP4 DUP6 DUP5 PUSH2 0x3468 JUMP JUMPDEST DUP3 DUP5 ADD SWAP1 POP SWAP4 SWAP3 POP POP POP JUMP JUMPDEST PUSH1 0x0 PUSH2 0x275A DUP3 PUSH2 0x31F6 JUMP JUMPDEST PUSH2 0x2764 DUP2 DUP6 PUSH2 0x324E JUMP JUMPDEST SWAP4 POP PUSH2 0x2774 DUP2 DUP6 PUSH1 0x20 DUP7 ADD PUSH2 0x3477 JUMP JUMPDEST PUSH2 0x277D DUP2 PUSH2 0x36B2 JUMP JUMPDEST DUP5 ADD SWAP2 POP POP SWAP3 SWAP2 POP POP JUMP JUMPDEST PUSH1 0x0 PUSH2 0x2793 DUP3 PUSH2 0x31F6 JUMP JUMPDEST PUSH2 0x279D DUP2 DUP6 PUSH2 0x325F JUMP JUMPDEST SWAP4 POP PUSH2 0x27AD DUP2 DUP6 PUSH1 0x20 DUP7 ADD PUSH2 0x3477 JUMP JUMPDEST DUP1 DUP5 ADD SWAP2 POP POP SWAP3 SWAP2 POP POP JUMP JUMPDEST PUSH1 0x0 DUP2 SLOAD PUSH2 0x27C6 DUP2 PUSH2 0x34AA JUMP JUMPDEST PUSH2 0x27D0 DUP2 DUP7 PUSH2 0x325F JUMP JUMPDEST SWAP5 POP PUSH1 0x1 DUP3 AND PUSH1 0x0 DUP2 EQ PUSH2 0x27EB JUMPI PUSH1 0x1 DUP2 EQ PUSH2 0x27FC JUMPI PUSH2 0x282F JUMP JUMPDEST PUSH1 0xFF NOT DUP4 AND DUP7 MSTORE DUP2 DUP7 ADD SWAP4 POP PUSH2 0x282F JUMP JUMPDEST PUSH2 0x2805 DUP6 PUSH2 0x31D6 JUMP JUMPDEST PUSH1 0x0 JUMPDEST DUP4 DUP2 LT ISZERO PUSH2 0x2827 JUMPI DUP2 SLOAD DUP2 DUP10 ADD MSTORE PUSH1 0x1 DUP3 ADD SWAP2 POP PUSH1 0x20 DUP2 ADD SWAP1 POP PUSH2 0x2808 JUMP JUMPDEST DUP4 DUP9 ADD SWAP6 POP POP POP JUMPDEST POP POP POP SWAP3 SWAP2 POP POP JUMP JUMPDEST PUSH1 0x0 PUSH2 0x2845 PUSH1 0x12 DUP4 PUSH2 0x324E JUMP JUMPDEST SWAP2 POP PUSH2 0x2850 DUP3 PUSH2 0x36C3 JUMP JUMPDEST PUSH1 0x20 DUP3 ADD SWAP1 POP SWAP2 SWAP1 POP JUMP JUMPDEST PUSH1 0x0 PUSH2 0x2868 PUSH1 0x2C DUP4 PUSH2 0x324E JUMP JUMPDEST SWAP2 POP PUSH2 0x2873 DUP3 PUSH2 0x36EC JUMP JUMPDEST PUSH1 0x40 DUP3 ADD SWAP1 POP SWAP2 SWAP1 POP JUMP JUMPDEST PUSH1 0x0 PUSH2 0x288B PUSH1 0x22 DUP4 PUSH2 0x324E JUMP JUMPDEST SWAP2 POP PUSH2 0x2896 DUP3 PUSH2 0x373B JUMP JUMPDEST PUSH1 0x40 DUP3 ADD SWAP1 POP SWAP2 SWAP1 POP JUMP JUMPDEST PUSH1 0x0 PUSH2 0x28AE PUSH1 0xD DUP4 PUSH2 0x324E JUMP JUMPDEST SWAP2 POP PUSH2 0x28B9 DUP3 PUSH2 0x378A JUMP JUMPDEST PUSH1 0x20 DUP3 ADD SWAP1 POP SWAP2 SWAP1 POP JUMP JUMPDEST PUSH1 0x0 PUSH2 0x28D1 PUSH1 0x14 DUP4 PUSH2 0x324E JUMP JUMPDEST SWAP2 POP PUSH2 0x28DC DUP3 PUSH2 0x37B3 JUMP JUMPDEST PUSH1 0x20 DUP3 ADD SWAP1 POP SWAP2 SWAP1 POP JUMP JUMPDEST PUSH1 0x0 PUSH2 0x28F4 PUSH1 0x23 DUP4 PUSH2 0x324E JUMP JUMPDEST SWAP2 POP PUSH2 0x28FF DUP3 PUSH2 0x37DC JUMP JUMPDEST PUSH1 0x40 DUP3 ADD SWAP1 POP SWAP2 SWAP1 POP JUMP JUMPDEST PUSH1 0x0 PUSH2 0x2917 PUSH1 0x1D DUP4 PUSH2 0x324E JUMP JUMPDEST SWAP2 POP PUSH2 0x2922 DUP3 PUSH2 0x382B JUMP JUMPDEST PUSH1 0x20 DUP3 ADD SWAP1 POP SWAP2 SWAP1 POP JUMP JUMPDEST PUSH1 0x0 PUSH2 0x293A PUSH1 0x18 DUP4 PUSH2 0x324E JUMP JUMPDEST SWAP2 POP PUSH2 0x2945 DUP3 PUSH2 0x3854 JUMP JUMPDEST PUSH1 0x20 DUP3 ADD SWAP1 POP SWAP2 SWAP1 POP JUMP JUMPDEST PUSH1 0x0 PUSH2 0x295D PUSH1 0x14 DUP4 PUSH2 0x324E JUMP JUMPDEST SWAP2 POP PUSH2 0x2968 DUP3 PUSH2 0x387D JUMP JUMPDEST PUSH1 0x20 DUP3 ADD SWAP1 POP SWAP2 SWAP1 POP JUMP JUMPDEST PUSH1 0x0 PUSH2 0x2980 PUSH1 0x23 DUP4 PUSH2 0x324E JUMP JUMPDEST SWAP2 POP PUSH2 0x298B DUP3 PUSH2 0x38A6 JUMP JUMPDEST PUSH1 0x40 DUP3 ADD SWAP1 POP SWAP2 SWAP1 POP JUMP JUMPDEST PUSH1 0x0 PUSH2 0x29A3 PUSH1 0x12 DUP4 PUSH2 0x324E JUMP JUMPDEST SWAP2 POP PUSH2 0x29AE DUP3 PUSH2 0x38F5 JUMP JUMPDEST PUSH1 0x20 DUP3 ADD SWAP1 POP SWAP2 SWAP1 POP JUMP JUMPDEST PUSH1 0x0 PUSH2 0x29C6 PUSH1 0x23 DUP4 PUSH2 0x324E JUMP JUMPDEST SWAP2 POP PUSH2 0x29D1 DUP3 PUSH2 0x391E JUMP JUMPDEST PUSH1 0x40 DUP3 ADD SWAP1 POP SWAP2 SWAP1 POP JUMP JUMPDEST PUSH1 0x0 PUSH2 0x29E9 PUSH1 0x2A DUP4 PUSH2 0x324E JUMP JUMPDEST SWAP2 POP PUSH2 0x29F4 DUP3 PUSH2 0x396D JUMP JUMPDEST PUSH1 0x40 DUP3 ADD SWAP1 POP SWAP2 SWAP1 POP JUMP JUMPDEST PUSH1 0x0 PUSH2 0x2A0C PUSH1 0x21 DUP4 PUSH2 0x324E JUMP JUMPDEST SWAP2 POP PUSH2 0x2A17 DUP3 PUSH2 0x39BC JUMP JUMPDEST PUSH1 0x40 DUP3 ADD SWAP1 POP SWAP2 SWAP1 POP JUMP JUMPDEST PUSH1 0x0 PUSH2 0x2A2F PUSH1 0x24 DUP4 PUSH2 0x324E JUMP JUMPDEST SWAP2 POP PUSH2 0x2A3A DUP3 PUSH2 0x3A0B JUMP JUMPDEST PUSH1 0x40 DUP3 ADD SWAP1 POP SWAP2 SWAP1 POP JUMP JUMPDEST PUSH1 0x0 PUSH2 0x2A52 PUSH1 0xD DUP4 PUSH2 0x324E JUMP JUMPDEST SWAP2 POP PUSH2 0x2A5D DUP3 PUSH2 0x3A5A JUMP JUMPDEST PUSH1 0x20 DUP3 ADD SWAP1 POP SWAP2 SWAP1 POP JUMP JUMPDEST PUSH1 0x0 PUSH2 0x2A75 PUSH1 0x4 DUP4 PUSH2 0x324E JUMP JUMPDEST SWAP2 POP PUSH2 0x2A80 DUP3 PUSH2 0x3A83 JUMP JUMPDEST PUSH1 0x20 DUP3 ADD SWAP1 POP SWAP2 SWAP1 POP JUMP JUMPDEST PUSH1 0x0 PUSH2 0x2A98 PUSH1 0x1D DUP4 PUSH2 0x324E JUMP JUMPDEST SWAP2 POP PUSH2 0x2AA3 DUP3 PUSH2 0x3AAC JUMP JUMPDEST PUSH1 0x20 DUP3 ADD SWAP1 POP SWAP2 SWAP1 POP JUMP JUMPDEST PUSH1 0x0 PUSH2 0x2ABB PUSH1 0x4 DUP4 PUSH2 0x324E JUMP JUMPDEST SWAP2 POP PUSH2 0x2AC6 DUP3 PUSH2 0x3AD5 JUMP JUMPDEST PUSH1 0x20 DUP3 ADD SWAP1 POP SWAP2 SWAP1 POP JUMP JUMPDEST PUSH1 0x0 PUSH2 0x2ADE PUSH1 0x9 DUP4 PUSH2 0x324E JUMP JUMPDEST SWAP2 POP PUSH2 0x2AE9 DUP3 PUSH2 0x3AFE JUMP JUMPDEST PUSH1 0x20 DUP3 ADD SWAP1 POP SWAP2 SWAP1 POP JUMP JUMPDEST PUSH1 0x0 PUSH2 0x2B01 PUSH1 0x1F DUP4 PUSH2 0x324E JUMP JUMPDEST SWAP2 POP PUSH2 0x2B0C DUP3 PUSH2 0x3B27 JUMP JUMPDEST PUSH1 0x20 DUP3 ADD SWAP1 POP SWAP2 SWAP1 POP JUMP JUMPDEST PUSH2 0x2B20 DUP2 PUSH2 0x3407 JUMP JUMPDEST DUP3 MSTORE POP POP JUMP JUMPDEST PUSH2 0x2B2F DUP2 PUSH2 0x3423 JUMP JUMPDEST DUP3 MSTORE POP POP JUMP JUMPDEST PUSH2 0x2B3E DUP2 PUSH2 0x3451 JUMP JUMPDEST DUP3 MSTORE POP POP JUMP JUMPDEST PUSH2 0x2B4D DUP2 PUSH2 0x345B JUMP JUMPDEST DUP3 MSTORE POP POP JUMP JUMPDEST PUSH1 0x0 PUSH2 0x2B60 DUP3 DUP5 DUP7 PUSH2 0x272A JUMP JUMPDEST SWAP2 POP DUP2 SWAP1 POP SWAP4 SWAP3 POP POP POP JUMP JUMPDEST PUSH1 0x0 PUSH2 0x2B78 DUP3 DUP5 PUSH2 0x2788 JUMP JUMPDEST SWAP2 POP DUP2 SWAP1 POP SWAP3 SWAP2 POP POP JUMP JUMPDEST PUSH1 0x0 PUSH2 0x2B8F DUP3 DUP5 PUSH2 0x27B9 JUMP JUMPDEST SWAP2 POP DUP2 SWAP1 POP SWAP3 SWAP2 POP POP JUMP JUMPDEST PUSH1 0x0 PUSH1 0xE0 DUP3 ADD SWAP1 POP PUSH2 0x2BAF PUSH1 0x0 DUP4 ADD DUP11 PUSH2 0x260B JUMP JUMPDEST PUSH2 0x2BBC PUSH1 0x20 DUP4 ADD DUP10 PUSH2 0x2B44 JUMP JUMPDEST DUP2 DUP2 SUB PUSH1 0x40 DUP4 ADD MSTORE PUSH2 0x2BCE DUP2 DUP9 PUSH2 0x274F JUMP JUMPDEST SWAP1 POP PUSH2 0x2BDD PUSH1 0x60 DUP4 ADD DUP8 PUSH2 0x2B35 JUMP JUMPDEST PUSH2 0x2BEA PUSH1 0x80 DUP4 ADD DUP7 PUSH2 0x2B35 JUMP JUMPDEST PUSH2 0x2BF7 PUSH1 0xA0 DUP4 ADD DUP6 PUSH2 0x2B26 JUMP JUMPDEST PUSH2 0x2C04 PUSH1 0xC0 DUP4 ADD DUP5 PUSH2 0x2B35 JUMP JUMPDEST SWAP9 SWAP8 POP POP POP POP POP POP POP POP JUMP JUMPDEST PUSH1 0x0 PUSH1 0x20 DUP3 ADD SWAP1 POP PUSH2 0x2C25 PUSH1 0x0 DUP4 ADD DUP5 PUSH2 0x26EE JUMP JUMPDEST SWAP3 SWAP2 POP POP JUMP JUMPDEST PUSH1 0x0 PUSH1 0x20 DUP3 ADD SWAP1 POP DUP2 DUP2 SUB PUSH1 0x0 DUP4 ADD MSTORE PUSH2 0x2C45 DUP2 DUP5 PUSH2 0x274F JUMP JUMPDEST SWAP1 POP SWAP3 SWAP2 POP POP JUMP JUMPDEST PUSH1 0x0 PUSH1 0x20 DUP3 ADD SWAP1 POP DUP2 DUP2 SUB PUSH1 0x0 DUP4 ADD MSTORE PUSH2 0x2C66 DUP2 PUSH2 0x2838 JUMP JUMPDEST SWAP1 POP SWAP2 SWAP1 POP JUMP JUMPDEST PUSH1 0x0 PUSH1 0x20 DUP3 ADD SWAP1 POP DUP2 DUP2 SUB PUSH1 0x0 DUP4 ADD MSTORE PUSH2 0x2C86 DUP2 PUSH2 0x285B JUMP JUMPDEST SWAP1 POP SWAP2 SWAP1 POP JUMP JUMPDEST PUSH1 0x0 PUSH1 0x20 DUP3 ADD SWAP1 POP DUP2 DUP2 SUB PUSH1 0x0 DUP4 ADD MSTORE PUSH2 0x2CA6 DUP2 PUSH2 0x287E JUMP JUMPDEST SWAP1 POP SWAP2 SWAP1 POP JUMP JUMPDEST PUSH1 0x0 PUSH1 0x20 DUP3 ADD SWAP1 POP DUP2 DUP2 SUB PUSH1 0x0 DUP4 ADD MSTORE PUSH2 0x2CC6 DUP2 PUSH2 0x28A1 JUMP JUMPDEST SWAP1 POP SWAP2 SWAP1 POP JUMP JUMPDEST PUSH1 0x0 PUSH1 0x20 DUP3 ADD SWAP1 POP DUP2 DUP2 SUB PUSH1 0x0 DUP4 ADD MSTORE PUSH2 0x2CE6 DUP2 PUSH2 0x28C4 JUMP JUMPDEST SWAP1 POP SWAP2 SWAP1 POP JUMP JUMPDEST PUSH1 0x0 PUSH1 0x20 DUP3 ADD SWAP1 POP DUP2 DUP2 SUB PUSH1 0x0 DUP4 ADD MSTORE PUSH2 0x2D06 DUP2 PUSH2 0x28E7 JUMP JUMPDEST SWAP1 POP SWAP2 SWAP1 POP JUMP JUMPDEST PUSH1 0x0 PUSH1 0x20 DUP3 ADD SWAP1 POP DUP2 DUP2 SUB PUSH1 0x0 DUP4 ADD MSTORE PUSH2 0x2D26 DUP2 PUSH2 0x290A JUMP JUMPDEST SWAP1 POP SWAP2 SWAP1 POP JUMP JUMPDEST PUSH1 0x0 PUSH1 0x20 DUP3 ADD SWAP1 POP DUP2 DUP2 SUB PUSH1 0x0 DUP4 ADD MSTORE PUSH2 0x2D46 DUP2 PUSH2 0x292D JUMP JUMPDEST SWAP1 POP SWAP2 SWAP1 POP JUMP JUMPDEST PUSH1 0x0 PUSH1 0x20 DUP3 ADD SWAP1 POP DUP2 DUP2 SUB PUSH1 0x0 DUP4 ADD MSTORE PUSH2 0x2D66 DUP2 PUSH2 0x2950 JUMP JUMPDEST SWAP1 POP SWAP2 SWAP1 POP JUMP JUMPDEST PUSH1 0x0 PUSH1 0x20 DUP3 ADD SWAP1 POP DUP2 DUP2 SUB PUSH1 0x0 DUP4 ADD MSTORE PUSH2 0x2D86 DUP2 PUSH2 0x2973 JUMP JUMPDEST SWAP1 POP SWAP2 SWAP1 POP JUMP JUMPDEST PUSH1 0x0 PUSH1 0x20 DUP3 ADD SWAP1 POP DUP2 DUP2 SUB PUSH1 0x0 DUP4 ADD MSTORE PUSH2 0x2DA6 DUP2 PUSH2 0x2996 JUMP JUMPDEST SWAP1 POP SWAP2 SWAP1 POP JUMP JUMPDEST PUSH1 0x0 PUSH1 0x20 DUP3 ADD SWAP1 POP DUP2 DUP2 SUB PUSH1 0x0 DUP4 ADD MSTORE PUSH2 0x2DC6 DUP2 PUSH2 0x29B9 JUMP JUMPDEST SWAP1 POP SWAP2 SWAP1 POP JUMP JUMPDEST PUSH1 0x0 PUSH1 0x20 DUP3 ADD SWAP1 POP DUP2 DUP2 SUB PUSH1 0x0 DUP4 ADD MSTORE PUSH2 0x2DE6 DUP2 PUSH2 0x29DC JUMP JUMPDEST SWAP1 POP SWAP2 SWAP1 POP JUMP JUMPDEST PUSH1 0x0 PUSH1 0x20 DUP3 ADD SWAP1 POP DUP2 DUP2 SUB PUSH1 0x0 DUP4 ADD MSTORE PUSH2 0x2E06 DUP2 PUSH2 0x29FF JUMP JUMPDEST SWAP1 POP SWAP2 SWAP1 POP JUMP JUMPDEST PUSH1 0x0 PUSH1 0x20 DUP3 ADD SWAP1 POP DUP2 DUP2 SUB PUSH1 0x0 DUP4 ADD MSTORE PUSH2 0x2E26 DUP2 PUSH2 0x2A22 JUMP JUMPDEST SWAP1 POP SWAP2 SWAP1 POP JUMP JUMPDEST PUSH1 0x0 PUSH1 0x20 DUP3 ADD SWAP1 POP DUP2 DUP2 SUB PUSH1 0x0 DUP4 ADD MSTORE PUSH2 0x2E46 DUP2 PUSH2 0x2A45 JUMP JUMPDEST SWAP1 POP SWAP2 SWAP1 POP JUMP JUMPDEST PUSH1 0x0 PUSH1 0x60 DUP3 ADD SWAP1 POP DUP2 DUP2 SUB PUSH1 0x0 DUP4 ADD MSTORE PUSH2 0x2E66 DUP2 PUSH2 0x2A68 JUMP JUMPDEST SWAP1 POP PUSH2 0x2E75 PUSH1 0x20 DUP4 ADD DUP6 PUSH2 0x260B JUMP JUMPDEST PUSH2 0x2E82 PUSH1 0x40 DUP4 ADD DUP5 PUSH2 0x2B35 JUMP JUMPDEST SWAP4 SWAP3 POP POP POP JUMP JUMPDEST PUSH1 0x0 PUSH1 0x20 DUP3 ADD SWAP1 POP DUP2 DUP2 SUB PUSH1 0x0 DUP4 ADD MSTORE PUSH2 0x2EA2 DUP2 PUSH2 0x2A8B JUMP JUMPDEST SWAP1 POP SWAP2 SWAP1 POP JUMP JUMPDEST PUSH1 0x0 PUSH1 0x60 DUP3 ADD SWAP1 POP DUP2 DUP2 SUB PUSH1 0x0 DUP4 ADD MSTORE PUSH2 0x2EC2 DUP2 PUSH2 0x2AAE JUMP JUMPDEST SWAP1 POP PUSH2 0x2ED1 PUSH1 0x20 DUP4 ADD DUP6 PUSH2 0x260B JUMP JUMPDEST PUSH2 0x2EDE PUSH1 0x40 DUP4 ADD DUP5 PUSH2 0x2B35 JUMP JUMPDEST SWAP4 SWAP3 POP POP POP JUMP JUMPDEST PUSH1 0x0 PUSH1 0x20 DUP3 ADD SWAP1 POP DUP2 DUP2 SUB PUSH1 0x0 DUP4 ADD MSTORE PUSH2 0x2EFE DUP2 PUSH2 0x2AD1 JUMP JUMPDEST SWAP1 POP SWAP2 SWAP1 POP JUMP JUMPDEST PUSH1 0x0 PUSH1 0x20 DUP3 ADD SWAP1 POP DUP2 DUP2 SUB PUSH1 0x0 DUP4 ADD MSTORE PUSH2 0x2F1E DUP2 PUSH2 0x2AF4 JUMP JUMPDEST SWAP1 POP SWAP2 SWAP1 POP JUMP JUMPDEST PUSH1 0x0 PUSH1 0x40 DUP3 ADD SWAP1 POP PUSH2 0x2F3A PUSH1 0x0 DUP4 ADD DUP6 PUSH2 0x2B17 JUMP JUMPDEST PUSH2 0x2F47 PUSH1 0x20 DUP4 ADD DUP5 PUSH2 0x2B17 JUMP JUMPDEST SWAP4 SWAP3 POP POP POP JUMP JUMPDEST PUSH1 0x0 PUSH1 0x20 DUP3 ADD SWAP1 POP PUSH2 0x2F63 PUSH1 0x0 DUP4 ADD DUP5 PUSH2 0x2B35 JUMP JUMPDEST SWAP3 SWAP2 POP POP JUMP JUMPDEST PUSH1 0x0 PUSH1 0x80 DUP3 ADD SWAP1 POP PUSH2 0x2F7E PUSH1 0x0 DUP4 ADD DUP8 PUSH2 0x2B35 JUMP JUMPDEST PUSH2 0x2F8B PUSH1 0x20 DUP4 ADD DUP7 PUSH2 0x260B JUMP JUMPDEST PUSH2 0x2F98 PUSH1 0x40 DUP4 ADD DUP6 PUSH2 0x26EE JUMP JUMPDEST PUSH2 0x2FA5 PUSH1 0x60 DUP4 ADD DUP5 PUSH2 0x2B35 JUMP JUMPDEST SWAP6 SWAP5 POP POP POP POP POP JUMP JUMPDEST PUSH1 0x0 PUSH1 0xE0 DUP3 ADD SWAP1 POP PUSH2 0x2FC3 PUSH1 0x0 DUP4 ADD DUP12 PUSH2 0x2B35 JUMP JUMPDEST DUP2 DUP2 SUB PUSH1 0x20 DUP4 ADD MSTORE PUSH2 0x2FD5 DUP2 DUP11 PUSH2 0x261A JUMP JUMPDEST SWAP1 POP PUSH2 0x2FE4 PUSH1 0x40 DUP4 ADD DUP10 PUSH2 0x260B JUMP JUMPDEST PUSH2 0x2FF1 PUSH1 0x60 DUP4 ADD DUP9 PUSH2 0x2B35 JUMP JUMPDEST PUSH2 0x2FFE PUSH1 0x80 DUP4 ADD DUP8 PUSH2 0x2B35 JUMP JUMPDEST DUP2 DUP2 SUB PUSH1 0xA0 DUP4 ADD MSTORE PUSH2 0x3010 DUP2 DUP7 PUSH2 0x274F JUMP JUMPDEST SWAP1 POP DUP2 DUP2 SUB PUSH1 0xC0 DUP4 ADD MSTORE PUSH2 0x3025 DUP2 DUP5 DUP7 PUSH2 0x2678 JUMP JUMPDEST SWAP1 POP SWAP10 SWAP9 POP POP POP POP POP POP POP POP POP JUMP JUMPDEST PUSH1 0x0 PUSH1 0x40 DUP3 ADD SWAP1 POP PUSH2 0x3049 PUSH1 0x0 DUP4 ADD DUP6 PUSH2 0x2B35 JUMP JUMPDEST DUP2 DUP2 SUB PUSH1 0x20 DUP4 ADD MSTORE PUSH2 0x305B DUP2 DUP5 PUSH2 0x274F JUMP JUMPDEST SWAP1 POP SWAP4 SWAP3 POP POP POP JUMP JUMPDEST PUSH1 0x0 PUSH1 0x20 DUP3 ADD SWAP1 POP PUSH2 0x3079 PUSH1 0x0 DUP4 ADD DUP5 PUSH2 0x2B44 JUMP JUMPDEST SWAP3 SWAP2 POP POP JUMP JUMPDEST PUSH1 0x0 DUP1 DUP4 CALLDATALOAD PUSH1 0x1 PUSH1 0x20 SUB DUP5 CALLDATASIZE SUB SUB DUP2 SLT PUSH2 0x309C JUMPI PUSH2 0x309B PUSH2 0x368A JUMP JUMPDEST JUMPDEST DUP1 DUP5 ADD SWAP3 POP DUP3 CALLDATALOAD SWAP2 POP PUSH8 0xFFFFFFFFFFFFFFFF DUP3 GT ISZERO PUSH2 0x30BE JUMPI PUSH2 0x30BD PUSH2 0x3685 JUMP JUMPDEST JUMPDEST PUSH1 0x20 DUP4 ADD SWAP3 POP PUSH1 0x1 DUP3 MUL CALLDATASIZE SUB DUP4 SGT ISZERO PUSH2 0x30DA JUMPI PUSH2 0x30D9 PUSH2 0x3699 JUMP JUMPDEST JUMPDEST POP SWAP3 POP SWAP3 SWAP1 POP JUMP JUMPDEST PUSH1 0x0 PUSH2 0x30EC PUSH2 0x30FD JUMP JUMPDEST SWAP1 POP PUSH2 0x30F8 DUP3 DUP3 PUSH2 0x34DC JUMP JUMPDEST SWAP2 SWAP1 POP JUMP JUMPDEST PUSH1 0x0 PUSH1 0x40 MLOAD SWAP1 POP SWAP1 JUMP JUMPDEST PUSH1 0x0 PUSH8 0xFFFFFFFFFFFFFFFF DUP3 GT ISZERO PUSH2 0x3122 JUMPI PUSH2 0x3121 PUSH2 0x3647 JUMP JUMPDEST JUMPDEST PUSH1 0x20 DUP3 MUL SWAP1 POP PUSH1 0x20 DUP2 ADD SWAP1 POP SWAP2 SWAP1 POP JUMP JUMPDEST PUSH1 0x0 PUSH8 0xFFFFFFFFFFFFFFFF DUP3 GT ISZERO PUSH2 0x314E JUMPI PUSH2 0x314D PUSH2 0x3647 JUMP JUMPDEST JUMPDEST PUSH1 0x20 DUP3 MUL SWAP1 POP PUSH1 0x20 DUP2 ADD SWAP1 POP SWAP2 SWAP1 POP JUMP JUMPDEST PUSH1 0x0 PUSH8 0xFFFFFFFFFFFFFFFF DUP3 GT ISZERO PUSH2 0x317A JUMPI PUSH2 0x3179 PUSH2 0x3647 JUMP JUMPDEST JUMPDEST PUSH1 0x20 DUP3 MUL SWAP1 POP PUSH1 0x20 DUP2 ADD SWAP1 POP SWAP2 SWAP1 POP JUMP JUMPDEST PUSH1 0x0 PUSH8 0xFFFFFFFFFFFFFFFF DUP3 GT ISZERO PUSH2 0x31A6 JUMPI PUSH2 0x31A5 PUSH2 0x3647 JUMP JUMPDEST JUMPDEST PUSH2 0x31AF DUP3 PUSH2 0x36B2 JUMP JUMPDEST SWAP1 POP PUSH1 0x20 DUP2 ADD SWAP1 POP SWAP2 SWAP1 POP JUMP JUMPDEST PUSH1 0x0 DUP2 SWAP1 POP PUSH1 0x20 DUP3 ADD SWAP1 POP SWAP2 SWAP1 POP JUMP JUMPDEST PUSH1 0x0 DUP2 SWAP1 POP SWAP2 SWAP1 POP JUMP JUMPDEST PUSH1 0x0 DUP2 SWAP1 POP DUP2 PUSH1 0x0 MSTORE PUSH1 0x20 PUSH1 0x0 KECCAK256 SWAP1 POP SWAP2 SWAP1 POP JUMP JUMPDEST PUSH1 0x0 DUP2 MLOAD SWAP1 POP SWAP2 SWAP1 POP JUMP JUMPDEST PUSH1 0x0 DUP2 MLOAD SWAP1 POP SWAP2 SWAP1 POP JUMP JUMPDEST PUSH1 0x0 PUSH1 0x20 DUP3 ADD SWAP1 POP SWAP2 SWAP1 POP JUMP JUMPDEST PUSH1 0x0 PUSH1 0x20 DUP3 ADD SWAP1 POP SWAP2 SWAP1 POP JUMP JUMPDEST PUSH1 0x0 DUP3 DUP3 MSTORE PUSH1 0x20 DUP3 ADD SWAP1 POP SWAP3 SWAP2 POP POP JUMP JUMPDEST PUSH1 0x0 DUP3 DUP3 MSTORE PUSH1 0x20 DUP3 ADD SWAP1 POP SWAP3 SWAP2 POP POP JUMP JUMPDEST PUSH1 0x0 DUP3 DUP3 MSTORE PUSH1 0x20 DUP3 ADD SWAP1 POP SWAP3 SWAP2 POP POP JUMP JUMPDEST PUSH1 0x0 DUP3 DUP3 MSTORE PUSH1 0x20 DUP3 ADD SWAP1 POP SWAP3 SWAP2 POP POP JUMP JUMPDEST PUSH1 0x0 DUP2 SWAP1 POP SWAP3 SWAP2 POP POP JUMP JUMPDEST PUSH1 0x0 DUP1 DUP4 CALLDATALOAD PUSH1 0x1 PUSH1 0x20 SUB DUP5 CALLDATASIZE SUB SUB DUP2 SLT PUSH2 0x3287 JUMPI PUSH2 0x3286 PUSH2 0x36A8 JUMP JUMPDEST JUMPDEST DUP4 DUP2 ADD SWAP3 POP DUP3 CALLDATALOAD SWAP2 POP PUSH1 0x20 DUP4 ADD SWAP3 POP PUSH8 0xFFFFFFFFFFFFFFFF DUP3 GT ISZERO PUSH2 0x32AF JUMPI PUSH2 0x32AE PUSH2 0x3676 JUMP JUMPDEST JUMPDEST PUSH1 0x1 DUP3 MUL CALLDATASIZE SUB DUP5 SGT ISZERO PUSH2 0x32C5 JUMPI PUSH2 0x32C4 PUSH2 0x368F JUMP JUMPDEST JUMPDEST POP SWAP3 POP SWAP3 SWAP1 POP JUMP JUMPDEST PUSH1 0x0 PUSH2 0x32D8 DUP3 PUSH2 0x3423 JUMP JUMPDEST SWAP2 POP PUSH2 0x32E3 DUP4 PUSH2 0x3423 JUMP JUMPDEST SWAP3 POP DUP3 PUSH2 0xFFFF SUB DUP3 GT ISZERO PUSH2 0x32FA JUMPI PUSH2 0x32F9 PUSH2 0x35BA JUMP JUMPDEST JUMPDEST DUP3 DUP3 ADD SWAP1 POP SWAP3 SWAP2 POP POP JUMP JUMPDEST PUSH1 0x0 PUSH2 0x3310 DUP3 PUSH2 0x3451 JUMP JUMPDEST SWAP2 POP PUSH2 0x331B DUP4 PUSH2 0x3451 JUMP JUMPDEST SWAP3 POP DUP3 PUSH32 0xFFFFFFFFFFFFFFFFFFFFFFFFFFFFFFFFFFFFFFFFFFFFFFFFFFFFFFFFFFFFFFFF SUB DUP3 GT ISZERO PUSH2 0x3350 JUMPI PUSH2 0x334F PUSH2 0x35BA JUMP JUMPDEST JUMPDEST DUP3 DUP3 ADD SWAP1 POP SWAP3 SWAP2 POP POP JUMP JUMPDEST PUSH1 0x0 PUSH2 0x3366 DUP3 PUSH2 0x3451 JUMP JUMPDEST SWAP2 POP PUSH2 0x3371 DUP4 PUSH2 0x3451 JUMP JUMPDEST SWAP3 POP DUP2 PUSH32 0xFFFFFFFFFFFFFFFFFFFFFFFFFFFFFFFFFFFFFFFFFFFFFFFFFFFFFFFFFFFFFFFF DIV DUP4 GT DUP3 ISZERO ISZERO AND ISZERO PUSH2 0x33AA JUMPI PUSH2 0x33A9 PUSH2 0x35BA JUMP JUMPDEST JUMPDEST DUP3 DUP3 MUL SWAP1 POP SWAP3 SWAP2 POP POP JUMP JUMPDEST PUSH1 0x0 PUSH2 0x33C0 DUP3 PUSH2 0x3451 JUMP JUMPDEST SWAP2 POP PUSH2 0x33CB DUP4 PUSH2 0x3451 JUMP JUMPDEST SWAP3 POP DUP3 DUP3 LT ISZERO PUSH2 0x33DE JUMPI PUSH2 0x33DD PUSH2 0x35BA JUMP JUMPDEST JUMPDEST DUP3 DUP3 SUB SWAP1 POP SWAP3 SWAP2 POP POP JUMP JUMPDEST PUSH1 0x0 PUSH2 0x33F4 DUP3 PUSH2 0x3431 JUMP JUMPDEST SWAP1 POP SWAP2 SWAP1 POP JUMP JUMPDEST PUSH1 0x0 DUP2 ISZERO ISZERO SWAP1 POP SWAP2 SWAP1 POP JUMP JUMPDEST PUSH1 0x0 PUSH16 0xFFFFFFFFFFFFFFFFFFFFFFFFFFFFFFFF DUP3 AND SWAP1 POP SWAP2 SWAP1 POP JUMP JUMPDEST PUSH1 0x0 PUSH2 0xFFFF DUP3 AND SWAP1 POP SWAP2 SWAP1 POP JUMP JUMPDEST PUSH1 0x0 PUSH20 0xFFFFFFFFFFFFFFFFFFFFFFFFFFFFFFFFFFFFFFFF DUP3 AND SWAP1 POP SWAP2 SWAP1 POP JUMP JUMPDEST PUSH1 0x0 DUP2 SWAP1 POP SWAP2 SWAP1 POP JUMP JUMPDEST PUSH1 0x0 PUSH1 0xFF DUP3 AND SWAP1 POP SWAP2 SWAP1 POP JUMP JUMPDEST DUP3 DUP2 DUP4 CALLDATACOPY PUSH1 0x0 DUP4 DUP4 ADD MSTORE POP POP POP JUMP JUMPDEST PUSH1 0x0 JUMPDEST DUP4 DUP2 LT ISZERO PUSH2 0x3495 JUMPI DUP1 DUP3 ADD MLOAD DUP2 DUP5 ADD MSTORE PUSH1 0x20 DUP2 ADD SWAP1 POP PUSH2 0x347A JUMP JUMPDEST DUP4 DUP2 GT ISZERO PUSH2 0x34A4 JUMPI PUSH1 0x0 DUP5 DUP5 ADD MSTORE JUMPDEST POP POP POP POP JUMP JUMPDEST PUSH1 0x0 PUSH1 0x2 DUP3 DIV SWAP1 POP PUSH1 0x1 DUP3 AND DUP1 PUSH2 0x34C2 JUMPI PUSH1 0x7F DUP3 AND SWAP2 POP JUMPDEST PUSH1 0x20 DUP3 LT DUP2 EQ ISZERO PUSH2 0x34D6 JUMPI PUSH2 0x34D5 PUSH2 0x35E9 JUMP JUMPDEST JUMPDEST POP SWAP2 SWAP1 POP JUMP JUMPDEST PUSH2 0x34E5 DUP3 PUSH2 0x36B2 JUMP JUMPDEST DUP2 ADD DUP2 DUP2 LT PUSH8 0xFFFFFFFFFFFFFFFF DUP3 GT OR ISZERO PUSH2 0x3504 JUMPI PUSH2 0x3503 PUSH2 0x3647 JUMP JUMPDEST JUMPDEST DUP1 PUSH1 0x40 MSTORE POP POP POP JUMP JUMPDEST PUSH1 0x0 PUSH2 0x3518 DUP3 PUSH2 0x3407 JUMP JUMPDEST SWAP2 POP PUSH16 0xFFFFFFFFFFFFFFFFFFFFFFFFFFFFFFFF DUP3 EQ ISZERO PUSH2 0x353B JUMPI PUSH2 0x353A PUSH2 0x35BA JUMP JUMPDEST JUMPDEST PUSH1 0x1 DUP3 ADD SWAP1 POP SWAP2 SWAP1 POP JUMP JUMPDEST PUSH1 0x0 PUSH2 0x3551 DUP3 PUSH2 0x3423 JUMP JUMPDEST SWAP2 POP PUSH2 0xFFFF DUP3 EQ ISZERO PUSH2 0x3566 JUMPI PUSH2 0x3565 PUSH2 0x35BA JUMP JUMPDEST JUMPDEST PUSH1 0x1 DUP3 ADD SWAP1 POP SWAP2 SWAP1 POP JUMP JUMPDEST PUSH1 0x0 PUSH2 0x357C DUP3 PUSH2 0x3451 JUMP JUMPDEST SWAP2 POP PUSH32 0xFFFFFFFFFFFFFFFFFFFFFFFFFFFFFFFFFFFFFFFFFFFFFFFFFFFFFFFFFFFFFFFF DUP3 EQ ISZERO PUSH2 0x35AF JUMPI PUSH2 0x35AE PUSH2 0x35BA JUMP JUMPDEST JUMPDEST PUSH1 0x1 DUP3 ADD SWAP1 POP SWAP2 SWAP1 POP JUMP JUMPDEST PUSH32 0x4E487B7100000000000000000000000000000000000000000000000000000000 PUSH1 0x0 MSTORE PUSH1 0x11 PUSH1 0x4 MSTORE PUSH1 0x24 PUSH1 0x0 REVERT JUMPDEST PUSH32 0x4E487B7100000000000000000000000000000000000000000000000000000000 PUSH1 0x0 MSTORE PUSH1 0x22 PUSH1 0x4 MSTORE PUSH1 0x24 PUSH1 0x0 REVERT JUMPDEST PUSH32 0x4E487B7100000000000000000000000000000000000000000000000000000000 PUSH1 0x0 MSTORE PUSH1 0x32 PUSH1 0x4 MSTORE PUSH1 0x24 PUSH1 0x0 REVERT JUMPDEST PUSH32 0x4E487B7100000000000000000000000000000000000000000000000000000000 PUSH1 0x0 MSTORE PUSH1 0x41 PUSH1 0x4 MSTORE PUSH1 0x24 PUSH1 0x0 REVERT JUMPDEST PUSH1 0x0 DUP1 REVERT JUMPDEST PUSH1 0x0 DUP1 REVERT JUMPDEST PUSH1 0x0 DUP1 REVERT JUMPDEST PUSH1 0x0 DUP1 REVERT JUMPDEST PUSH1 0x0 DUP1 REVERT JUMPDEST PUSH1 0x0 DUP1 REVERT JUMPDEST PUSH1 0x0 DUP1 REVERT JUMPDEST PUSH1 0x0 DUP1 REVERT JUMPDEST PUSH1 0x0 DUP1 REVERT JUMPDEST PUSH1 0x0 DUP1 REVERT JUMPDEST PUSH1 0x0 DUP1 REVERT JUMPDEST PUSH1 0x0 DUP1 REVERT JUMPDEST PUSH1 0x0 PUSH1 0x1F NOT PUSH1 0x1F DUP4 ADD AND SWAP1 POP SWAP2 SWAP1 POP JUMP JUMPDEST PUSH32 0x50726F706F73616C3A20696E6163746976650000000000000000000000000000 PUSH1 0x0 DUP3 ADD MSTORE POP JUMP JUMPDEST PUSH32 0x456E642074696D652073686F756C642062652067726561746572207468616E20 PUSH1 0x0 DUP3 ADD MSTORE PUSH32 0x63757272656E742074696D650000000000000000000000000000000000000000 PUSH1 0x20 DUP3 ADD MSTORE POP JUMP JUMPDEST PUSH32 0x45524332303A206275726E20616D6F756E7420657863656564732062616C616E PUSH1 0x0 DUP3 ADD MSTORE PUSH32 0x6365000000000000000000000000000000000000000000000000000000000000 PUSH1 0x20 DUP3 ADD MSTORE POP JUMP JUMPDEST PUSH32 0x616C726561647920766F74656400000000000000000000000000000000000000 PUSH1 0x0 DUP3 ADD MSTORE POP JUMP JUMPDEST PUSH32 0x6E6F7420612076616C69642070726F706F73616C000000000000000000000000 PUSH1 0x0 DUP3 ADD MSTORE POP JUMP JUMPDEST PUSH32 0x6E6F7420612076616C696420766F74657220666F7220746869732070726F706F PUSH1 0x0 DUP3 ADD MSTORE PUSH32 0x73616C0000000000000000000000000000000000000000000000000000000000 PUSH1 0x20 DUP3 ADD MSTORE POP JUMP JUMPDEST PUSH32 0x50726F706F73616C3A20696E76616C6964206F7074696F6E6964617465000000 PUSH1 0x0 DUP3 ADD MSTORE POP JUMP JUMPDEST PUSH32 0x70726F706F73616C206E6F742073746172746564207965740000000000000000 PUSH1 0x0 DUP3 ADD MSTORE POP JUMP JUMPDEST PUSH32 0x70726F706F73616C206E6F742073746172746564000000000000000000000000 PUSH1 0x0 DUP3 ADD MSTORE POP JUMP JUMPDEST PUSH32 0x4E6F7420612076616C696420766F74657220666F7220746869732070726F706F PUSH1 0x0 DUP3 ADD MSTORE PUSH32 0x73616C0000000000000000000000000000000000000000000000000000000000 PUSH1 0x20 DUP3 ADD MSTORE POP JUMP JUMPDEST PUSH32 0x696E76616C69642070726F706F73616C49640000000000000000000000000000 PUSH1 0x0 DUP3 ADD MSTORE POP JUMP JUMPDEST PUSH32 0x6E6F742073756666696369656E742062616C616E636520746F20636173742076 PUSH1 0x0 DUP3 ADD MSTORE PUSH32 0x6F74650000000000000000000000000000000000000000000000000000000000 PUSH1 0x20 DUP3 ADD MSTORE POP JUMP JUMPDEST PUSH32 0x456E642074696D652073686F756C642062652067726561746572207468616E20 PUSH1 0x0 DUP3 ADD MSTORE PUSH32 0x73746172742074696D6500000000000000000000000000000000000000000000 PUSH1 0x20 DUP3 ADD MSTORE POP JUMP JUMPDEST PUSH32 0x45524332303A206275726E2066726F6D20746865207A65726F20616464726573 PUSH1 0x0 DUP3 ADD MSTORE PUSH32 0x7300000000000000000000000000000000000000000000000000000000000000 PUSH1 0x20 DUP3 ADD MSTORE POP JUMP JUMPDEST PUSH32 0x6E6F7420612076616C6964206C656E677468206F66206861736820726573706F PUSH1 0x0 DUP3 ADD MSTORE PUSH32 0x6E73652100000000000000000000000000000000000000000000000000000000 PUSH1 0x20 DUP3 ADD MSTORE POP JUMP JUMPDEST PUSH32 0x6E6F7420766F7465642079657400000000000000000000000000000000000000 PUSH1 0x0 DUP3 ADD MSTORE POP JUMP JUMPDEST PUSH32 0x6D696E7400000000000000000000000000000000000000000000000000000000 PUSH1 0x0 DUP3 ADD MSTORE POP JUMP JUMPDEST PUSH32 0x496E76616C696420766F74657220666F722070726F706F73616C496421000000 PUSH1 0x0 DUP3 ADD MSTORE POP JUMP JUMPDEST PUSH32 0x6275726E00000000000000000000000000000000000000000000000000000000 PUSH1 0x0 DUP3 ADD MSTORE POP JUMP JUMPDEST PUSH32 0x6E6F7420766F7465640000000000000000000000000000000000000000000000 PUSH1 0x0 DUP3 ADD MSTORE POP JUMP JUMPDEST PUSH32 0x45524332303A206D696E7420746F20746865207A65726F206164647265737300 PUSH1 0x0 DUP3 ADD MSTORE POP JUMP JUMPDEST PUSH2 0x3B59 DUP2 PUSH2 0x33E9 JUMP JUMPDEST DUP2 EQ PUSH2 0x3B64 JUMPI PUSH1 0x0 DUP1 REVERT JUMPDEST POP JUMP JUMPDEST PUSH2 0x3B70 DUP2 PUSH2 0x3451 JUMP JUMPDEST DUP2 EQ PUSH2 0x3B7B JUMPI PUSH1 0x0 DUP1 REVERT JUMPDEST POP JUMP JUMPDEST PUSH2 0x3B87 DUP2 PUSH2 0x345B JUMP JUMPDEST DUP2 EQ PUSH2 0x3B92 JUMPI PUSH1 0x0 DUP1 REVERT JUMPDEST POP JUMP INVALID LOG2 PUSH5 0x6970667358 0x22 SLT KECCAK256 REVERT 0xCB SWAP6 CODESIZE 0xAB REVERT 0xE5 MUL 0x5C 0xD2 0xD6 DUP4 0xBD 0x4C 0xAF SIGNEXTEND SHR 0xB7 PUSH24 0xA09511E36D930F2F8D2C62D29D64736F6C63430008070033 "
				},
				"gasEstimates": {
					"creation": {
						"codeDepositCost": "3061400",
						"executionCost": "infinite",
						"totalCost": "infinite"
					},
					"external": {
						"allVoters(address,uint256)": "infinite",
						"balanceOf(address)": "2863",
						"burnOwner(uint256,address)": "infinite",
						"createProposal(uint8,address[],address,uint256,uint256,string,string[],uint256)": "infinite",
						"decimals()": "410",
						"name()": "infinite",
						"proposals(uint256)": "infinite",
						"responseProposal(uint256,address,string[],uint256[])": "infinite",
						"resultOfProposal(uint256)": "infinite",
						"symbol()": "infinite",
						"totalSupply()": "2482",
						"userProposal(address)": "infinite"
					}
				},
				"methodIdentifiers": {
					"allVoters(address,uint256)": "ab9c70d4",
					"balanceOf(address)": "70a08231",
					"burnOwner(uint256,address)": "6a232d1f",
					"createProposal(uint8,address[],address,uint256,uint256,string,string[],uint256)": "4de77e48",
					"decimals()": "313ce567",
					"name()": "06fdde03",
					"proposals(uint256)": "013cf08b",
					"responseProposal(uint256,address,string[],uint256[])": "5c230eee",
					"resultOfProposal(uint256)": "9d671564",
					"symbol()": "95d89b41",
					"totalSupply()": "18160ddd",
					"userProposal(address)": "e745d68e"
				}
			},
			"storageLayout": {
				"storage": [
					{
						"astId": 636,
						"contract": "Qvoting.sol:Qvoting",
						"label": "_balances",
						"offset": 0,
						"slot": "0",
						"type": "t_mapping(t_address,t_uint256)"
					},
					{
						"astId": 638,
						"contract": "Qvoting.sol:Qvoting",
						"label": "_totalSupply",
						"offset": 0,
						"slot": "1",
						"type": "t_uint256"
					},
					{
						"astId": 640,
						"contract": "Qvoting.sol:Qvoting",
						"label": "_name",
						"offset": 0,
						"slot": "2",
						"type": "t_string_storage"
					},
					{
						"astId": 642,
						"contract": "Qvoting.sol:Qvoting",
						"label": "_symbol",
						"offset": 0,
						"slot": "3",
						"type": "t_string_storage"
					},
					{
						"astId": 856,
						"contract": "Qvoting.sol:Qvoting",
						"label": "owner",
						"offset": 0,
						"slot": "4",
						"type": "t_address"
					},
					{
						"astId": 945,
						"contract": "Qvoting.sol:Qvoting",
						"label": "proposalId",
						"offset": 0,
						"slot": "5",
						"type": "t_uint256"
					},
					{
						"astId": 950,
						"contract": "Qvoting.sol:Qvoting",
						"label": "userProposal",
						"offset": 0,
						"slot": "6",
						"type": "t_mapping(t_address,t_struct(UserProposal)418_storage)"
					},
					{
						"astId": 955,
						"contract": "Qvoting.sol:Qvoting",
						"label": "proposals",
						"offset": 0,
						"slot": "7",
						"type": "t_mapping(t_uint256,t_struct(proposal)66_storage)"
					},
					{
						"astId": 962,
						"contract": "Qvoting.sol:Qvoting",
						"label": "allVoters",
						"offset": 0,
						"slot": "8",
						"type": "t_mapping(t_address,t_mapping(t_uint256,t_struct(voter)522_storage))"
					},
					{
						"astId": 966,
						"contract": "Qvoting.sol:Qvoting",
						"label": "validProposals",
						"offset": 0,
						"slot": "9",
						"type": "t_mapping(t_uint256,t_bool)"
					}
				],
				"types": {
					"t_address": {
						"encoding": "inplace",
						"label": "address",
						"numberOfBytes": "20"
					},
					"t_bool": {
						"encoding": "inplace",
						"label": "bool",
						"numberOfBytes": "1"
					},
					"t_mapping(t_address,t_bool)": {
						"encoding": "mapping",
						"key": "t_address",
						"label": "mapping(address => bool)",
						"numberOfBytes": "32",
						"value": "t_bool"
					},
					"t_mapping(t_address,t_mapping(t_uint256,t_struct(voter)522_storage))": {
						"encoding": "mapping",
						"key": "t_address",
						"label": "mapping(address => mapping(uint256 => struct voterLibrary.voter))",
						"numberOfBytes": "32",
						"value": "t_mapping(t_uint256,t_struct(voter)522_storage)"
					},
					"t_mapping(t_address,t_struct(UserProposal)418_storage)": {
						"encoding": "mapping",
						"key": "t_address",
						"label": "mapping(address => struct UserProposalLibrary.UserProposal)",
						"numberOfBytes": "32",
						"value": "t_struct(UserProposal)418_storage"
					},
					"t_mapping(t_address,t_uint256)": {
						"encoding": "mapping",
						"key": "t_address",
						"label": "mapping(address => uint256)",
						"numberOfBytes": "32",
						"value": "t_uint256"
					},
					"t_mapping(t_string_memory_ptr,t_bool)": {
						"encoding": "mapping",
						"key": "t_string_memory_ptr",
						"label": "mapping(string => bool)",
						"numberOfBytes": "32",
						"value": "t_bool"
					},
					"t_mapping(t_string_memory_ptr,t_uint256)": {
						"encoding": "mapping",
						"key": "t_string_memory_ptr",
						"label": "mapping(string => uint256)",
						"numberOfBytes": "32",
						"value": "t_uint256"
					},
					"t_mapping(t_uint128,t_uint256)": {
						"encoding": "mapping",
						"key": "t_uint128",
						"label": "mapping(uint128 => uint256)",
						"numberOfBytes": "32",
						"value": "t_uint256"
					},
					"t_mapping(t_uint256,t_bool)": {
						"encoding": "mapping",
						"key": "t_uint256",
						"label": "mapping(uint256 => bool)",
						"numberOfBytes": "32",
						"value": "t_bool"
					},
					"t_mapping(t_uint256,t_mapping(t_uint256,t_string_storage))": {
						"encoding": "mapping",
						"key": "t_uint256",
						"label": "mapping(uint256 => mapping(uint256 => string))",
						"numberOfBytes": "32",
						"value": "t_mapping(t_uint256,t_string_storage)"
					},
					"t_mapping(t_uint256,t_string_storage)": {
						"encoding": "mapping",
						"key": "t_uint256",
						"label": "mapping(uint256 => string)",
						"numberOfBytes": "32",
						"value": "t_string_storage"
					},
					"t_mapping(t_uint256,t_struct(proposal)66_storage)": {
						"encoding": "mapping",
						"key": "t_uint256",
						"label": "mapping(uint256 => struct proposalLibrary.proposal)",
						"numberOfBytes": "32",
						"value": "t_struct(proposal)66_storage"
					},
					"t_mapping(t_uint256,t_struct(voter)522_storage)": {
						"encoding": "mapping",
						"key": "t_uint256",
						"label": "mapping(uint256 => struct voterLibrary.voter)",
						"numberOfBytes": "32",
						"value": "t_struct(voter)522_storage"
					},
					"t_string_memory_ptr": {
						"encoding": "bytes",
						"label": "string",
						"numberOfBytes": "32"
					},
					"t_string_storage": {
						"encoding": "bytes",
						"label": "string",
						"numberOfBytes": "32"
					},
					"t_struct(UserProposal)418_storage": {
						"encoding": "inplace",
						"label": "struct UserProposalLibrary.UserProposal",
						"members": [
							{
								"astId": 397,
								"contract": "Qvoting.sol:Qvoting",
								"label": "proposalCount",
								"offset": 0,
								"slot": "0",
								"type": "t_uint128"
							},
							{
								"astId": 399,
								"contract": "Qvoting.sol:Qvoting",
								"label": "responseCount",
								"offset": 16,
								"slot": "0",
								"type": "t_uint128"
							},
							{
								"astId": 403,
								"contract": "Qvoting.sol:Qvoting",
								"label": "proposalCreated",
								"offset": 0,
								"slot": "1",
								"type": "t_mapping(t_uint128,t_uint256)"
							},
							{
								"astId": 407,
								"contract": "Qvoting.sol:Qvoting",
								"label": "proposalResponsed",
								"offset": 0,
								"slot": "2",
								"type": "t_mapping(t_uint128,t_uint256)"
							},
							{
								"astId": 413,
								"contract": "Qvoting.sol:Qvoting",
								"label": "proposalAnswer",
								"offset": 0,
								"slot": "3",
								"type": "t_mapping(t_uint256,t_mapping(t_uint256,t_string_storage))"
							},
							{
								"astId": 417,
								"contract": "Qvoting.sol:Qvoting",
								"label": "responsedProposal",
								"offset": 0,
								"slot": "4",
								"type": "t_mapping(t_uint256,t_bool)"
							}
						],
						"numberOfBytes": "160"
					},
					"t_struct(proposal)66_storage": {
						"encoding": "inplace",
						"label": "struct proposalLibrary.proposal",
						"members": [
							{
								"astId": 33,
								"contract": "Qvoting.sol:Qvoting",
								"label": "creator",
								"offset": 0,
								"slot": "0",
								"type": "t_address"
							},
							{
								"astId": 35,
								"contract": "Qvoting.sol:Qvoting",
								"label": "status",
								"offset": 20,
								"slot": "0",
								"type": "t_uint8"
							},
							{
								"astId": 37,
								"contract": "Qvoting.sol:Qvoting",
								"label": "disc",
								"offset": 0,
								"slot": "1",
								"type": "t_string_storage"
							},
							{
								"astId": 39,
								"contract": "Qvoting.sol:Qvoting",
								"label": "startTime",
								"offset": 0,
								"slot": "2",
								"type": "t_uint256"
							},
							{
								"astId": 41,
								"contract": "Qvoting.sol:Qvoting",
								"label": "expirationTime",
								"offset": 0,
								"slot": "3",
								"type": "t_uint256"
							},
							{
								"astId": 43,
								"contract": "Qvoting.sol:Qvoting",
								"label": "numOfOptions",
								"offset": 0,
								"slot": "4",
								"type": "t_uint16"
							},
							{
								"astId": 45,
								"contract": "Qvoting.sol:Qvoting",
								"label": "voteRight",
								"offset": 0,
								"slot": "5",
								"type": "t_uint256"
							},
							{
								"astId": 49,
								"contract": "Qvoting.sol:Qvoting",
								"label": "voters",
								"offset": 0,
								"slot": "6",
								"type": "t_mapping(t_address,t_bool)"
							},
							{
								"astId": 53,
								"contract": "Qvoting.sol:Qvoting",
								"label": "option",
								"offset": 0,
								"slot": "7",
								"type": "t_mapping(t_string_memory_ptr,t_bool)"
							},
							{
								"astId": 57,
								"contract": "Qvoting.sol:Qvoting",
								"label": "optionHash",
								"offset": 0,
								"slot": "8",
								"type": "t_mapping(t_uint256,t_string_storage)"
							},
							{
								"astId": 61,
								"contract": "Qvoting.sol:Qvoting",
								"label": "result",
								"offset": 0,
								"slot": "9",
								"type": "t_mapping(t_uint256,t_string_storage)"
							},
							{
								"astId": 65,
								"contract": "Qvoting.sol:Qvoting",
								"label": "votes",
								"offset": 0,
								"slot": "10",
								"type": "t_mapping(t_string_memory_ptr,t_uint256)"
							}
						],
						"numberOfBytes": "352"
					},
					"t_struct(voter)522_storage": {
						"encoding": "inplace",
						"label": "struct voterLibrary.voter",
						"members": [
							{
								"astId": 515,
								"contract": "Qvoting.sol:Qvoting",
								"label": "proposalId",
								"offset": 0,
								"slot": "0",
								"type": "t_uint256"
							},
							{
								"astId": 517,
								"contract": "Qvoting.sol:Qvoting",
								"label": "voterAddress",
								"offset": 0,
								"slot": "1",
								"type": "t_address"
							},
							{
								"astId": 519,
								"contract": "Qvoting.sol:Qvoting",
								"label": "hasVoted",
								"offset": 20,
								"slot": "1",
								"type": "t_bool"
							},
							{
								"astId": 521,
								"contract": "Qvoting.sol:Qvoting",
								"label": "voteNum",
								"offset": 0,
								"slot": "2",
								"type": "t_uint256"
							}
						],
						"numberOfBytes": "96"
					},
					"t_uint128": {
						"encoding": "inplace",
						"label": "uint128",
						"numberOfBytes": "16"
					},
					"t_uint16": {
						"encoding": "inplace",
						"label": "uint16",
						"numberOfBytes": "2"
					},
					"t_uint256": {
						"encoding": "inplace",
						"label": "uint256",
						"numberOfBytes": "32"
					},
					"t_uint8": {
						"encoding": "inplace",
						"label": "uint8",
						"numberOfBytes": "1"
					}
				}
			},
			"userdoc": {
				"kind": "user",
				"methods": {},
				"version": 1
			}
		}
	}
}