{
	"lastQv.sol": {
		"Voting": {
			"abi": [
				{
					"inputs": [],
					"stateMutability": "nonpayable",
					"type": "constructor"
				},
				{
					"anonymous": false,
					"inputs": [
						{
							"indexed": true,
							"internalType": "address",
							"name": "previousOwner",
							"type": "address"
						},
						{
							"indexed": true,
							"internalType": "address",
							"name": "newOwner",
							"type": "address"
						}
					],
					"name": "OwnershipTransferred",
					"type": "event"
				},
				{
					"anonymous": false,
					"inputs": [
						{
							"indexed": false,
							"internalType": "address",
							"name": "creator",
							"type": "address"
						},
						{
							"indexed": false,
							"internalType": "string",
							"name": "description",
							"type": "string"
						},
						{
							"indexed": false,
							"internalType": "string[]",
							"name": "_options",
							"type": "string[]"
						},
						{
							"indexed": false,
							"internalType": "uint256",
							"name": "votingTimeInHours",
							"type": "uint256"
						}
					],
					"name": "ProposalCreated",
					"type": "event"
				},
				{
					"anonymous": false,
					"inputs": [
						{
							"indexed": true,
							"internalType": "bytes32",
							"name": "role",
							"type": "bytes32"
						},
						{
							"indexed": true,
							"internalType": "bytes32",
							"name": "previousAdminRole",
							"type": "bytes32"
						},
						{
							"indexed": true,
							"internalType": "bytes32",
							"name": "newAdminRole",
							"type": "bytes32"
						}
					],
					"name": "RoleAdminChanged",
					"type": "event"
				},
				{
					"anonymous": false,
					"inputs": [
						{
							"indexed": true,
							"internalType": "bytes32",
							"name": "role",
							"type": "bytes32"
						},
						{
							"indexed": true,
							"internalType": "address",
							"name": "account",
							"type": "address"
						},
						{
							"indexed": true,
							"internalType": "address",
							"name": "sender",
							"type": "address"
						}
					],
					"name": "RoleGranted",
					"type": "event"
				},
				{
					"anonymous": false,
					"inputs": [
						{
							"indexed": true,
							"internalType": "bytes32",
							"name": "role",
							"type": "bytes32"
						},
						{
							"indexed": true,
							"internalType": "address",
							"name": "account",
							"type": "address"
						},
						{
							"indexed": true,
							"internalType": "address",
							"name": "sender",
							"type": "address"
						}
					],
					"name": "RoleRevoked",
					"type": "event"
				},
				{
					"anonymous": false,
					"inputs": [
						{
							"indexed": false,
							"internalType": "address",
							"name": "voter",
							"type": "address"
						},
						{
							"indexed": false,
							"internalType": "uint256",
							"name": "ProposalID",
							"type": "uint256"
						},
						{
							"indexed": false,
							"internalType": "uint256[]",
							"name": "_tokens",
							"type": "uint256[]"
						}
					],
					"name": "VoteCasted",
					"type": "event"
				},
				{
					"inputs": [],
					"name": "DEFAULT_ADMIN_ROLE",
					"outputs": [
						{
							"internalType": "bytes32",
							"name": "",
							"type": "bytes32"
						}
					],
					"stateMutability": "view",
					"type": "function"
				},
				{
					"inputs": [],
					"name": "ProposalCount",
					"outputs": [
						{
							"internalType": "uint256",
							"name": "",
							"type": "uint256"
						}
					],
					"stateMutability": "view",
					"type": "function"
				},
				{
					"inputs": [
						{
							"internalType": "uint256",
							"name": "",
							"type": "uint256"
						}
					],
					"name": "Proposals",
					"outputs": [
						{
							"internalType": "address",
							"name": "creator",
							"type": "address"
						},
						{
							"internalType": "enum Voting.ProposalStatus",
							"name": "status",
							"type": "uint8"
						},
						{
							"internalType": "string",
							"name": "description",
							"type": "string"
						},
						{
							"internalType": "uint256",
							"name": "expirationTime",
							"type": "uint256"
						},
						{
							"internalType": "uint256",
							"name": "numOfOptions",
							"type": "uint256"
						}
					],
					"stateMutability": "view",
					"type": "function"
				},
				{
					"inputs": [
						{
							"internalType": "address",
							"name": "account",
							"type": "address"
						}
					],
					"name": "balanceOf",
					"outputs": [
						{
							"internalType": "uint256",
							"name": "",
							"type": "uint256"
						}
					],
					"stateMutability": "view",
					"type": "function"
				},
				{
					"inputs": [
						{
							"internalType": "uint256",
							"name": "_ProposalID",
							"type": "uint256"
						},
						{
							"internalType": "uint256[]",
							"name": "_tokens",
							"type": "uint256[]"
						}
					],
					"name": "castVote",
					"outputs": [],
					"stateMutability": "nonpayable",
					"type": "function"
				},
				{
					"inputs": [],
					"name": "checkAdmin",
					"outputs": [
						{
							"internalType": "bool",
							"name": "",
							"type": "bool"
						}
					],
					"stateMutability": "view",
					"type": "function"
				},
				{
					"inputs": [
						{
							"internalType": "uint256",
							"name": "_ProposalID",
							"type": "uint256"
						}
					],
					"name": "countVotes",
					"outputs": [
						{
							"internalType": "uint256",
							"name": "",
							"type": "uint256"
						},
						{
							"internalType": "uint256",
							"name": "",
							"type": "uint256"
						},
						{
							"internalType": "string",
							"name": "",
							"type": "string"
						}
					],
					"stateMutability": "view",
					"type": "function"
				},
				{
					"inputs": [
						{
							"internalType": "string",
							"name": "_description",
							"type": "string"
						},
						{
							"internalType": "string[]",
							"name": "_options",
							"type": "string[]"
						},
						{
							"internalType": "uint256",
							"name": "_voteExpirationTime",
							"type": "uint256"
						}
					],
					"name": "createProposal",
					"outputs": [
						{
							"internalType": "uint256",
							"name": "",
							"type": "uint256"
						}
					],
					"stateMutability": "nonpayable",
					"type": "function"
				},
				{
					"inputs": [
						{
							"internalType": "uint256",
							"name": "_ProposalID",
							"type": "uint256"
						}
					],
					"name": "getDetails",
					"outputs": [
						{
							"internalType": "string",
							"name": "",
							"type": "string"
						},
						{
							"internalType": "string[]",
							"name": "",
							"type": "string[]"
						},
						{
							"internalType": "uint256",
							"name": "",
							"type": "uint256"
						},
						{
							"internalType": "enum Voting.ProposalStatus",
							"name": "",
							"type": "uint8"
						}
					],
					"stateMutability": "view",
					"type": "function"
				},
				{
					"inputs": [],
					"name": "getProposalCount",
					"outputs": [
						{
							"internalType": "uint256",
							"name": "",
							"type": "uint256"
						}
					],
					"stateMutability": "view",
					"type": "function"
				},
				{
					"inputs": [
						{
							"internalType": "uint256",
							"name": "_ProposalID",
							"type": "uint256"
						}
					],
					"name": "getProposalExpirationTime",
					"outputs": [
						{
							"internalType": "uint256",
							"name": "",
							"type": "uint256"
						}
					],
					"stateMutability": "view",
					"type": "function"
				},
				{
					"inputs": [
						{
							"internalType": "uint256",
							"name": "_ProposalID",
							"type": "uint256"
						}
					],
					"name": "getProposalStatus",
					"outputs": [
						{
							"internalType": "enum Voting.ProposalStatus",
							"name": "",
							"type": "uint8"
						}
					],
					"stateMutability": "view",
					"type": "function"
				},
				{
					"inputs": [
						{
							"internalType": "bytes32",
							"name": "role",
							"type": "bytes32"
						}
					],
					"name": "getRoleAdmin",
					"outputs": [
						{
							"internalType": "bytes32",
							"name": "",
							"type": "bytes32"
						}
					],
					"stateMutability": "view",
					"type": "function"
				},
				{
					"inputs": [
						{
							"internalType": "uint256",
							"name": "_ProposalID",
							"type": "uint256"
						},
						{
							"internalType": "uint256",
							"name": "optionNum",
							"type": "uint256"
						}
					],
					"name": "getWeight",
					"outputs": [
						{
							"internalType": "uint256",
							"name": "",
							"type": "uint256"
						}
					],
					"stateMutability": "view",
					"type": "function"
				},
				{
					"inputs": [
						{
							"internalType": "bytes32",
							"name": "role",
							"type": "bytes32"
						},
						{
							"internalType": "address",
							"name": "account",
							"type": "address"
						}
					],
					"name": "grantRole",
					"outputs": [],
					"stateMutability": "nonpayable",
					"type": "function"
				},
				{
					"inputs": [
						{
							"internalType": "bytes32",
							"name": "role",
							"type": "bytes32"
						},
						{
							"internalType": "address",
							"name": "account",
							"type": "address"
						}
					],
					"name": "hasRole",
					"outputs": [
						{
							"internalType": "bool",
							"name": "",
							"type": "bool"
						}
					],
					"stateMutability": "view",
					"type": "function"
				},
				{
					"inputs": [
						{
							"internalType": "address",
							"name": "account",
							"type": "address"
						},
						{
							"internalType": "uint256",
							"name": "amount",
							"type": "uint256"
						}
					],
					"name": "mint",
					"outputs": [],
					"stateMutability": "nonpayable",
					"type": "function"
				},
				{
					"inputs": [],
					"name": "name",
					"outputs": [
						{
							"internalType": "string",
							"name": "",
							"type": "string"
						}
					],
					"stateMutability": "view",
					"type": "function"
				},
				{
					"inputs": [],
					"name": "owner",
					"outputs": [
						{
							"internalType": "address",
							"name": "",
							"type": "address"
						}
					],
					"stateMutability": "view",
					"type": "function"
				},
				{
					"inputs": [],
					"name": "renounceOwnership",
					"outputs": [],
					"stateMutability": "nonpayable",
					"type": "function"
				},
				{
					"inputs": [
						{
							"internalType": "bytes32",
							"name": "role",
							"type": "bytes32"
						},
						{
							"internalType": "address",
							"name": "account",
							"type": "address"
						}
					],
					"name": "renounceRole",
					"outputs": [],
					"stateMutability": "nonpayable",
					"type": "function"
				},
				{
					"inputs": [
						{
							"internalType": "bytes32",
							"name": "role",
							"type": "bytes32"
						},
						{
							"internalType": "address",
							"name": "account",
							"type": "address"
						}
					],
					"name": "revokeRole",
					"outputs": [],
					"stateMutability": "nonpayable",
					"type": "function"
				},
				{
					"inputs": [
						{
							"internalType": "uint256",
							"name": "_ProposalID",
							"type": "uint256"
						}
					],
					"name": "setProposalToEnded",
					"outputs": [],
					"stateMutability": "nonpayable",
					"type": "function"
				},
				{
					"inputs": [
						{
							"internalType": "uint256",
							"name": "_ProposalID",
							"type": "uint256"
						}
					],
					"name": "setProposalToTally",
					"outputs": [],
					"stateMutability": "nonpayable",
					"type": "function"
				},
				{
					"inputs": [
						{
							"internalType": "bytes4",
							"name": "interfaceId",
							"type": "bytes4"
						}
					],
					"name": "supportsInterface",
					"outputs": [
						{
							"internalType": "bool",
							"name": "",
							"type": "bool"
						}
					],
					"stateMutability": "view",
					"type": "function"
				},
				{
					"inputs": [],
					"name": "symbol",
					"outputs": [
						{
							"internalType": "string",
							"name": "",
							"type": "string"
						}
					],
					"stateMutability": "view",
					"type": "function"
				},
				{
					"inputs": [
						{
							"internalType": "address",
							"name": "newOwner",
							"type": "address"
						}
					],
					"name": "transferOwnership",
					"outputs": [],
					"stateMutability": "nonpayable",
					"type": "function"
				},
				{
					"inputs": [
						{
							"internalType": "uint256",
							"name": "_ProposalID",
							"type": "uint256"
						},
						{
							"internalType": "address",
							"name": "_user",
							"type": "address"
						}
					],
					"name": "userHasVoted",
					"outputs": [
						{
							"internalType": "bool",
							"name": "",
							"type": "bool"
						}
					],
					"stateMutability": "view",
					"type": "function"
				}
			],
			"devdoc": {
				"kind": "dev",
				"methods": {
					"balanceOf(address)": {
						"details": "returns the balance of an account"
					},
					"countVotes(uint256)": {
						"details": "to get winner of poll.",
						"params": {
							"_ProposalID": "the proposal id returns index of options, total weight of option and name of option"
						}
					},
					"getRoleAdmin(bytes32)": {
						"details": "Returns the admin role that controls `role`. See {grantRole} and {revokeRole}. To change a role's admin, use {_setRoleAdmin}."
					},
					"grantRole(bytes32,address)": {
						"details": "Grants `role` to `account`. If `account` had not been already granted `role`, emits a {RoleGranted} event. Requirements: - the caller must have ``role``'s admin role. May emit a {RoleGranted} event."
					},
					"hasRole(bytes32,address)": {
						"details": "Returns `true` if `account` has been granted `role`."
					},
					"mint(address,uint256)": {
						"details": "minting more tokens for an account"
					},
					"owner()": {
						"details": "Returns the address of the current owner."
					},
					"renounceOwnership()": {
						"details": "Leaves the contract without owner. It will not be possible to call `onlyOwner` functions anymore. Can only be called by the current owner. NOTE: Renouncing ownership will leave the contract without an owner, thereby removing any functionality that is only available to the owner."
					},
					"renounceRole(bytes32,address)": {
						"details": "Revokes `role` from the calling account. Roles are often managed via {grantRole} and {revokeRole}: this function's purpose is to provide a mechanism for accounts to lose their privileges if they are compromised (such as when a trusted device is misplaced). If the calling account had been revoked `role`, emits a {RoleRevoked} event. Requirements: - the caller must be `account`. May emit a {RoleRevoked} event."
					},
					"revokeRole(bytes32,address)": {
						"details": "Revokes `role` from `account`. If `account` had been granted `role`, emits a {RoleRevoked} event. Requirements: - the caller must have ``role``'s admin role. May emit a {RoleRevoked} event."
					},
					"supportsInterface(bytes4)": {
						"details": "See {IERC165-supportsInterface}."
					},
					"transferOwnership(address)": {
						"details": "Transfers ownership of the contract to a new account (`newOwner`). Can only be called by the current owner."
					}
				},
				"version": 1
			},
			"evm": {
				"assembly": "    /* \"lastQv.sol\":235:8384  contract Voting is Ownable, AccessControl {... */\n  mstore(0x40, 0x80)\n    /* \"lastQv.sol\":1365:1472  constructor() public {... */\n  callvalue\n  dup1\n  iszero\n  tag_1\n  jumpi\n  0x00\n  dup1\n  revert\ntag_1:\n  pop\n    /* \"@openzeppelin/contracts/access/Ownable.sol\":936:968  _transferOwnership(_msgSender()) */\n  tag_5\n    /* \"@openzeppelin/contracts/access/Ownable.sol\":955:967  _msgSender() */\n  tag_6\n    /* \"@openzeppelin/contracts/access/Ownable.sol\":955:965  _msgSender */\n  shl(0x20, tag_7)\n    /* \"@openzeppelin/contracts/access/Ownable.sol\":955:967  _msgSender() */\n  0x20\n  shr\n  jump\t// in\ntag_6:\n    /* \"@openzeppelin/contracts/access/Ownable.sol\":936:954  _transferOwnership */\n  shl(0x20, tag_8)\n    /* \"@openzeppelin/contracts/access/Ownable.sol\":936:968  _transferOwnership(_msgSender()) */\n  0x20\n  shr\n  jump\t// in\ntag_5:\n    /* \"lastQv.sol\":1397:1409  symbol = \"V\" */\n  mload(0x40)\n  dup1\n  0x40\n  add\n  0x40\n  mstore\n  dup1\n  0x01\n  dup2\n  mstore\n  0x20\n  add\n  0x5600000000000000000000000000000000000000000000000000000000000000\n  dup2\n  mstore\n  pop\n    /* \"lastQv.sol\":1397:1403  symbol */\n  0x03\n    /* \"lastQv.sol\":1397:1409  symbol = \"V\" */\n  swap1\n  dup2\n  tag_10\n  swap2\n  swap1\n  tag_11\n  jump\t// in\ntag_10:\n  pop\n    /* \"lastQv.sol\":1420:1435  name = \"Voting\" */\n  mload(0x40)\n  dup1\n  0x40\n  add\n  0x40\n  mstore\n  dup1\n  0x06\n  dup2\n  mstore\n  0x20\n  add\n  0x566f74696e670000000000000000000000000000000000000000000000000000\n  dup2\n  mstore\n  pop\n    /* \"lastQv.sol\":1420:1424  name */\n  0x04\n    /* \"lastQv.sol\":1420:1435  name = \"Voting\" */\n  swap1\n  dup2\n  tag_12\n  swap2\n  swap1\n  tag_11\n  jump\t// in\ntag_12:\n  pop\n    /* \"lastQv.sol\":1454:1464  msg.sender */\n  caller\n    /* \"lastQv.sol\":1446:1451  Owner */\n  0x08\n  0x00\n    /* \"lastQv.sol\":1446:1464  Owner = msg.sender */\n  0x0100\n  exp\n  dup2\n  sload\n  dup2\n  0xffffffffffffffffffffffffffffffffffffffff\n  mul\n  not\n  and\n  swap1\n  dup4\n  0xffffffffffffffffffffffffffffffffffffffff\n  and\n  mul\n  or\n  swap1\n  sstore\n  pop\n    /* \"lastQv.sol\":235:8384  contract Voting is Ownable, AccessControl {... */\n  jump(tag_13)\n    /* \"@openzeppelin/contracts/utils/Context.sol\":640:736  function _msgSender() internal view virtual returns (address) {... */\ntag_7:\n    /* \"@openzeppelin/contracts/utils/Context.sol\":693:700  address */\n  0x00\n    /* \"@openzeppelin/contracts/utils/Context.sol\":719:729  msg.sender */\n  caller\n    /* \"@openzeppelin/contracts/utils/Context.sol\":712:729  return msg.sender */\n  swap1\n  pop\n    /* \"@openzeppelin/contracts/utils/Context.sol\":640:736  function _msgSender() internal view virtual returns (address) {... */\n  swap1\n  jump\t// out\n    /* \"@openzeppelin/contracts/access/Ownable.sol\":2433:2620  function _transferOwnership(address newOwner) internal virtual {... */\ntag_8:\n    /* \"@openzeppelin/contracts/access/Ownable.sol\":2506:2522  address oldOwner */\n  0x00\n    /* \"@openzeppelin/contracts/access/Ownable.sol\":2525:2531  _owner */\n  dup1\n  0x00\n  swap1\n  sload\n  swap1\n  0x0100\n  exp\n  swap1\n  div\n  0xffffffffffffffffffffffffffffffffffffffff\n  and\n    /* \"@openzeppelin/contracts/access/Ownable.sol\":2506:2531  address oldOwner = _owner */\n  swap1\n  pop\n    /* \"@openzeppelin/contracts/access/Ownable.sol\":2550:2558  newOwner */\n  dup2\n    /* \"@openzeppelin/contracts/access/Ownable.sol\":2541:2547  _owner */\n  0x00\n  dup1\n    /* \"@openzeppelin/contracts/access/Ownable.sol\":2541:2558  _owner = newOwner */\n  0x0100\n  exp\n  dup2\n  sload\n  dup2\n  0xffffffffffffffffffffffffffffffffffffffff\n  mul\n  not\n  and\n  swap1\n  dup4\n  0xffffffffffffffffffffffffffffffffffffffff\n  and\n  mul\n  or\n  swap1\n  sstore\n  pop\n    /* \"@openzeppelin/contracts/access/Ownable.sol\":2604:2612  newOwner */\n  dup2\n    /* \"@openzeppelin/contracts/access/Ownable.sol\":2573:2613  OwnershipTransferred(oldOwner, newOwner) */\n  0xffffffffffffffffffffffffffffffffffffffff\n  and\n    /* \"@openzeppelin/contracts/access/Ownable.sol\":2594:2602  oldOwner */\n  dup2\n    /* \"@openzeppelin/contracts/access/Ownable.sol\":2573:2613  OwnershipTransferred(oldOwner, newOwner) */\n  0xffffffffffffffffffffffffffffffffffffffff\n  and\n  0x8be0079c531659141344cd1fd0a4f28419497f9722a3daafe3b4186f6b6457e0\n  mload(0x40)\n  mload(0x40)\n  dup1\n  swap2\n  sub\n  swap1\n  log3\n    /* \"@openzeppelin/contracts/access/Ownable.sol\":2496:2620  {... */\n  pop\n    /* \"@openzeppelin/contracts/access/Ownable.sol\":2433:2620  function _transferOwnership(address newOwner) internal virtual {... */\n  pop\n  jump\t// out\n    /* \"#utility.yul\":7:106   */\ntag_16:\n    /* \"#utility.yul\":59:65   */\n  0x00\n    /* \"#utility.yul\":93:98   */\n  dup2\n    /* \"#utility.yul\":87:99   */\n  mload\n    /* \"#utility.yul\":77:99   */\n  swap1\n  pop\n    /* \"#utility.yul\":7:106   */\n  swap2\n  swap1\n  pop\n  jump\t// out\n    /* \"#utility.yul\":112:292   */\ntag_17:\n    /* \"#utility.yul\":160:237   */\n  0x4e487b7100000000000000000000000000000000000000000000000000000000\n    /* \"#utility.yul\":157:158   */\n  0x00\n    /* \"#utility.yul\":150:238   */\n  mstore\n    /* \"#utility.yul\":257:261   */\n  0x41\n    /* \"#utility.yul\":254:255   */\n  0x04\n    /* \"#utility.yul\":247:262   */\n  mstore\n    /* \"#utility.yul\":281:285   */\n  0x24\n    /* \"#utility.yul\":278:279   */\n  0x00\n    /* \"#utility.yul\":271:286   */\n  revert\n    /* \"#utility.yul\":298:478   */\ntag_18:\n    /* \"#utility.yul\":346:423   */\n  0x4e487b7100000000000000000000000000000000000000000000000000000000\n    /* \"#utility.yul\":343:344   */\n  0x00\n    /* \"#utility.yul\":336:424   */\n  mstore\n    /* \"#utility.yul\":443:447   */\n  0x22\n    /* \"#utility.yul\":440:441   */\n  0x04\n    /* \"#utility.yul\":433:448   */\n  mstore\n    /* \"#utility.yul\":467:471   */\n  0x24\n    /* \"#utility.yul\":464:465   */\n  0x00\n    /* \"#utility.yul\":457:472   */\n  revert\n    /* \"#utility.yul\":484:804   */\ntag_19:\n    /* \"#utility.yul\":528:534   */\n  0x00\n    /* \"#utility.yul\":565:566   */\n  0x02\n    /* \"#utility.yul\":559:563   */\n  dup3\n    /* \"#utility.yul\":555:567   */\n  div\n    /* \"#utility.yul\":545:567   */\n  swap1\n  pop\n    /* \"#utility.yul\":612:613   */\n  0x01\n    /* \"#utility.yul\":606:610   */\n  dup3\n    /* \"#utility.yul\":602:614   */\n  and\n    /* \"#utility.yul\":633:651   */\n  dup1\n    /* \"#utility.yul\":623:704   */\n  tag_41\n  jumpi\n    /* \"#utility.yul\":689:693   */\n  0x7f\n    /* \"#utility.yul\":681:687   */\n  dup3\n    /* \"#utility.yul\":677:694   */\n  and\n    /* \"#utility.yul\":667:694   */\n  swap2\n  pop\n    /* \"#utility.yul\":623:704   */\ntag_41:\n    /* \"#utility.yul\":751:753   */\n  0x20\n    /* \"#utility.yul\":743:749   */\n  dup3\n    /* \"#utility.yul\":740:754   */\n  lt\n    /* \"#utility.yul\":720:738   */\n  dup2\n    /* \"#utility.yul\":717:755   */\n  sub\n    /* \"#utility.yul\":714:798   */\n  tag_42\n  jumpi\n    /* \"#utility.yul\":770:788   */\n  tag_43\n  tag_18\n  jump\t// in\ntag_43:\n    /* \"#utility.yul\":714:798   */\ntag_42:\n    /* \"#utility.yul\":535:804   */\n  pop\n    /* \"#utility.yul\":484:804   */\n  swap2\n  swap1\n  pop\n  jump\t// out\n    /* \"#utility.yul\":810:951   */\ntag_20:\n    /* \"#utility.yul\":859:863   */\n  0x00\n    /* \"#utility.yul\":882:885   */\n  dup2\n    /* \"#utility.yul\":874:885   */\n  swap1\n  pop\n    /* \"#utility.yul\":905:908   */\n  dup2\n    /* \"#utility.yul\":902:903   */\n  0x00\n    /* \"#utility.yul\":895:909   */\n  mstore\n    /* \"#utility.yul\":939:943   */\n  0x20\n    /* \"#utility.yul\":936:937   */\n  0x00\n    /* \"#utility.yul\":926:944   */\n  keccak256\n    /* \"#utility.yul\":918:944   */\n  swap1\n  pop\n    /* \"#utility.yul\":810:951   */\n  swap2\n  swap1\n  pop\n  jump\t// out\n    /* \"#utility.yul\":957:1050   */\ntag_21:\n    /* \"#utility.yul\":994:1000   */\n  0x00\n    /* \"#utility.yul\":1041:1043   */\n  0x20\n    /* \"#utility.yul\":1036:1038   */\n  0x1f\n    /* \"#utility.yul\":1029:1034   */\n  dup4\n    /* \"#utility.yul\":1025:1039   */\n  add\n    /* \"#utility.yul\":1021:1044   */\n  div\n    /* \"#utility.yul\":1011:1044   */\n  swap1\n  pop\n    /* \"#utility.yul\":957:1050   */\n  swap2\n  swap1\n  pop\n  jump\t// out\n    /* \"#utility.yul\":1056:1163   */\ntag_22:\n    /* \"#utility.yul\":1100:1108   */\n  0x00\n    /* \"#utility.yul\":1150:1155   */\n  dup3\n    /* \"#utility.yul\":1144:1148   */\n  dup3\n    /* \"#utility.yul\":1140:1156   */\n  shl\n    /* \"#utility.yul\":1119:1156   */\n  swap1\n  pop\n    /* \"#utility.yul\":1056:1163   */\n  swap3\n  swap2\n  pop\n  pop\n  jump\t// out\n    /* \"#utility.yul\":1169:1562   */\ntag_23:\n    /* \"#utility.yul\":1238:1244   */\n  0x00\n    /* \"#utility.yul\":1288:1289   */\n  0x08\n    /* \"#utility.yul\":1276:1286   */\n  dup4\n    /* \"#utility.yul\":1272:1290   */\n  mul\n    /* \"#utility.yul\":1311:1408   */\n  tag_48\n    /* \"#utility.yul\":1341:1407   */\n  0xffffffffffffffffffffffffffffffffffffffffffffffffffffffffffffffff\n    /* \"#utility.yul\":1330:1339   */\n  dup3\n    /* \"#utility.yul\":1311:1408   */\n  tag_22\n  jump\t// in\ntag_48:\n    /* \"#utility.yul\":1429:1468   */\n  tag_49\n    /* \"#utility.yul\":1459:1467   */\n  dup7\n    /* \"#utility.yul\":1448:1457   */\n  dup4\n    /* \"#utility.yul\":1429:1468   */\n  tag_22\n  jump\t// in\ntag_49:\n    /* \"#utility.yul\":1417:1468   */\n  swap6\n  pop\n    /* \"#utility.yul\":1501:1505   */\n  dup1\n    /* \"#utility.yul\":1497:1506   */\n  not\n    /* \"#utility.yul\":1490:1495   */\n  dup5\n    /* \"#utility.yul\":1486:1507   */\n  and\n    /* \"#utility.yul\":1477:1507   */\n  swap4\n  pop\n    /* \"#utility.yul\":1550:1554   */\n  dup1\n    /* \"#utility.yul\":1540:1548   */\n  dup7\n    /* \"#utility.yul\":1536:1555   */\n  and\n    /* \"#utility.yul\":1529:1534   */\n  dup5\n    /* \"#utility.yul\":1526:1556   */\n  or\n    /* \"#utility.yul\":1516:1556   */\n  swap3\n  pop\n    /* \"#utility.yul\":1245:1562   */\n  pop\n  pop\n    /* \"#utility.yul\":1169:1562   */\n  swap4\n  swap3\n  pop\n  pop\n  pop\n  jump\t// out\n    /* \"#utility.yul\":1568:1645   */\ntag_24:\n    /* \"#utility.yul\":1605:1612   */\n  0x00\n    /* \"#utility.yul\":1634:1639   */\n  dup2\n    /* \"#utility.yul\":1623:1639   */\n  swap1\n  pop\n    /* \"#utility.yul\":1568:1645   */\n  swap2\n  swap1\n  pop\n  jump\t// out\n    /* \"#utility.yul\":1651:1711   */\ntag_25:\n    /* \"#utility.yul\":1679:1682   */\n  0x00\n    /* \"#utility.yul\":1700:1705   */\n  dup2\n    /* \"#utility.yul\":1693:1705   */\n  swap1\n  pop\n    /* \"#utility.yul\":1651:1711   */\n  swap2\n  swap1\n  pop\n  jump\t// out\n    /* \"#utility.yul\":1717:1859   */\ntag_26:\n    /* \"#utility.yul\":1767:1776   */\n  0x00\n    /* \"#utility.yul\":1800:1853   */\n  tag_53\n    /* \"#utility.yul\":1818:1852   */\n  tag_54\n    /* \"#utility.yul\":1827:1851   */\n  tag_55\n    /* \"#utility.yul\":1845:1850   */\n  dup5\n    /* \"#utility.yul\":1827:1851   */\n  tag_24\n  jump\t// in\ntag_55:\n    /* \"#utility.yul\":1818:1852   */\n  tag_25\n  jump\t// in\ntag_54:\n    /* \"#utility.yul\":1800:1853   */\n  tag_24\n  jump\t// in\ntag_53:\n    /* \"#utility.yul\":1787:1853   */\n  swap1\n  pop\n    /* \"#utility.yul\":1717:1859   */\n  swap2\n  swap1\n  pop\n  jump\t// out\n    /* \"#utility.yul\":1865:1940   */\ntag_27:\n    /* \"#utility.yul\":1908:1911   */\n  0x00\n    /* \"#utility.yul\":1929:1934   */\n  dup2\n    /* \"#utility.yul\":1922:1934   */\n  swap1\n  pop\n    /* \"#utility.yul\":1865:1940   */\n  swap2\n  swap1\n  pop\n  jump\t// out\n    /* \"#utility.yul\":1946:2215   */\ntag_28:\n    /* \"#utility.yul\":2056:2095   */\n  tag_58\n    /* \"#utility.yul\":2087:2094   */\n  dup4\n    /* \"#utility.yul\":2056:2095   */\n  tag_26\n  jump\t// in\ntag_58:\n    /* \"#utility.yul\":2117:2208   */\n  tag_59\n    /* \"#utility.yul\":2166:2207   */\n  tag_60\n    /* \"#utility.yul\":2190:2206   */\n  dup3\n    /* \"#utility.yul\":2166:2207   */\n  tag_27\n  jump\t// in\ntag_60:\n    /* \"#utility.yul\":2158:2164   */\n  dup5\n    /* \"#utility.yul\":2151:2155   */\n  dup5\n    /* \"#utility.yul\":2145:2156   */\n  sload\n    /* \"#utility.yul\":2117:2208   */\n  tag_23\n  jump\t// in\ntag_59:\n    /* \"#utility.yul\":2111:2115   */\n  dup3\n    /* \"#utility.yul\":2104:2209   */\n  sstore\n    /* \"#utility.yul\":2022:2215   */\n  pop\n    /* \"#utility.yul\":1946:2215   */\n  pop\n  pop\n  pop\n  jump\t// out\n    /* \"#utility.yul\":2221:2294   */\ntag_29:\n    /* \"#utility.yul\":2266:2269   */\n  0x00\n    /* \"#utility.yul\":2221:2294   */\n  swap1\n  jump\t// out\n    /* \"#utility.yul\":2300:2489   */\ntag_30:\n    /* \"#utility.yul\":2377:2409   */\n  tag_63\n  tag_29\n  jump\t// in\ntag_63:\n    /* \"#utility.yul\":2418:2483   */\n  tag_64\n    /* \"#utility.yul\":2476:2482   */\n  dup2\n    /* \"#utility.yul\":2468:2474   */\n  dup5\n    /* \"#utility.yul\":2462:2466   */\n  dup5\n    /* \"#utility.yul\":2418:2483   */\n  tag_28\n  jump\t// in\ntag_64:\n    /* \"#utility.yul\":2353:2489   */\n  pop\n    /* \"#utility.yul\":2300:2489   */\n  pop\n  pop\n  jump\t// out\n    /* \"#utility.yul\":2495:2681   */\ntag_31:\n    /* \"#utility.yul\":2555:2675   */\ntag_66:\n    /* \"#utility.yul\":2572:2575   */\n  dup2\n    /* \"#utility.yul\":2565:2570   */\n  dup2\n    /* \"#utility.yul\":2562:2576   */\n  lt\n    /* \"#utility.yul\":2555:2675   */\n  iszero\n  tag_68\n  jumpi\n    /* \"#utility.yul\":2626:2665   */\n  tag_69\n    /* \"#utility.yul\":2663:2664   */\n  0x00\n    /* \"#utility.yul\":2656:2661   */\n  dup3\n    /* \"#utility.yul\":2626:2665   */\n  tag_30\n  jump\t// in\ntag_69:\n    /* \"#utility.yul\":2599:2600   */\n  0x01\n    /* \"#utility.yul\":2592:2597   */\n  dup2\n    /* \"#utility.yul\":2588:2601   */\n  add\n    /* \"#utility.yul\":2579:2601   */\n  swap1\n  pop\n    /* \"#utility.yul\":2555:2675   */\n  jump(tag_66)\ntag_68:\n    /* \"#utility.yul\":2495:2681   */\n  pop\n  pop\n  jump\t// out\n    /* \"#utility.yul\":2687:3230   */\ntag_32:\n    /* \"#utility.yul\":2788:2790   */\n  0x1f\n    /* \"#utility.yul\":2783:2786   */\n  dup3\n    /* \"#utility.yul\":2780:2791   */\n  gt\n    /* \"#utility.yul\":2777:3223   */\n  iszero\n  tag_71\n  jumpi\n    /* \"#utility.yul\":2822:2860   */\n  tag_72\n    /* \"#utility.yul\":2854:2859   */\n  dup2\n    /* \"#utility.yul\":2822:2860   */\n  tag_20\n  jump\t// in\ntag_72:\n    /* \"#utility.yul\":2906:2935   */\n  tag_73\n    /* \"#utility.yul\":2924:2934   */\n  dup5\n    /* \"#utility.yul\":2906:2935   */\n  tag_21\n  jump\t// in\ntag_73:\n    /* \"#utility.yul\":2896:2904   */\n  dup2\n    /* \"#utility.yul\":2892:2936   */\n  add\n    /* \"#utility.yul\":3089:3091   */\n  0x20\n    /* \"#utility.yul\":3077:3087   */\n  dup6\n    /* \"#utility.yul\":3074:3092   */\n  lt\n    /* \"#utility.yul\":3071:3120   */\n  iszero\n  tag_74\n  jumpi\n    /* \"#utility.yul\":3110:3118   */\n  dup2\n    /* \"#utility.yul\":3095:3118   */\n  swap1\n  pop\n    /* \"#utility.yul\":3071:3120   */\ntag_74:\n    /* \"#utility.yul\":3133:3213   */\n  tag_75\n    /* \"#utility.yul\":3189:3211   */\n  tag_76\n    /* \"#utility.yul\":3207:3210   */\n  dup6\n    /* \"#utility.yul\":3189:3211   */\n  tag_21\n  jump\t// in\ntag_76:\n    /* \"#utility.yul\":3179:3187   */\n  dup4\n    /* \"#utility.yul\":3175:3212   */\n  add\n    /* \"#utility.yul\":3162:3173   */\n  dup3\n    /* \"#utility.yul\":3133:3213   */\n  tag_31\n  jump\t// in\ntag_75:\n    /* \"#utility.yul\":2792:3223   */\n  pop\n  pop\n    /* \"#utility.yul\":2777:3223   */\ntag_71:\n    /* \"#utility.yul\":2687:3230   */\n  pop\n  pop\n  pop\n  jump\t// out\n    /* \"#utility.yul\":3236:3353   */\ntag_33:\n    /* \"#utility.yul\":3290:3298   */\n  0x00\n    /* \"#utility.yul\":3340:3345   */\n  dup3\n    /* \"#utility.yul\":3334:3338   */\n  dup3\n    /* \"#utility.yul\":3330:3346   */\n  shr\n    /* \"#utility.yul\":3309:3346   */\n  swap1\n  pop\n    /* \"#utility.yul\":3236:3353   */\n  swap3\n  swap2\n  pop\n  pop\n  jump\t// out\n    /* \"#utility.yul\":3359:3528   */\ntag_34:\n    /* \"#utility.yul\":3403:3409   */\n  0x00\n    /* \"#utility.yul\":3436:3487   */\n  tag_79\n    /* \"#utility.yul\":3484:3485   */\n  0x00\n    /* \"#utility.yul\":3480:3486   */\n  not\n    /* \"#utility.yul\":3472:3477   */\n  dup5\n    /* \"#utility.yul\":3469:3470   */\n  0x08\n    /* \"#utility.yul\":3465:3478   */\n  mul\n    /* \"#utility.yul\":3436:3487   */\n  tag_33\n  jump\t// in\ntag_79:\n    /* \"#utility.yul\":3432:3488   */\n  not\n    /* \"#utility.yul\":3517:3521   */\n  dup1\n    /* \"#utility.yul\":3511:3515   */\n  dup4\n    /* \"#utility.yul\":3507:3522   */\n  and\n    /* \"#utility.yul\":3497:3522   */\n  swap2\n  pop\n    /* \"#utility.yul\":3410:3528   */\n  pop\n    /* \"#utility.yul\":3359:3528   */\n  swap3\n  swap2\n  pop\n  pop\n  jump\t// out\n    /* \"#utility.yul\":3533:3828   */\ntag_35:\n    /* \"#utility.yul\":3609:3613   */\n  0x00\n    /* \"#utility.yul\":3755:3784   */\n  tag_81\n    /* \"#utility.yul\":3780:3783   */\n  dup4\n    /* \"#utility.yul\":3774:3778   */\n  dup4\n    /* \"#utility.yul\":3755:3784   */\n  tag_34\n  jump\t// in\ntag_81:\n    /* \"#utility.yul\":3747:3784   */\n  swap2\n  pop\n    /* \"#utility.yul\":3817:3820   */\n  dup3\n    /* \"#utility.yul\":3814:3815   */\n  0x02\n    /* \"#utility.yul\":3810:3821   */\n  mul\n    /* \"#utility.yul\":3804:3808   */\n  dup3\n    /* \"#utility.yul\":3801:3822   */\n  or\n    /* \"#utility.yul\":3793:3822   */\n  swap1\n  pop\n    /* \"#utility.yul\":3533:3828   */\n  swap3\n  swap2\n  pop\n  pop\n  jump\t// out\n    /* \"#utility.yul\":3833:5228   */\ntag_11:\n    /* \"#utility.yul\":3950:3987   */\n  tag_83\n    /* \"#utility.yul\":3983:3986   */\n  dup3\n    /* \"#utility.yul\":3950:3987   */\n  tag_16\n  jump\t// in\ntag_83:\n    /* \"#utility.yul\":4052:4070   */\n  0xffffffffffffffff\n    /* \"#utility.yul\":4044:4050   */\n  dup2\n    /* \"#utility.yul\":4041:4071   */\n  gt\n    /* \"#utility.yul\":4038:4094   */\n  iszero\n  tag_84\n  jumpi\n    /* \"#utility.yul\":4074:4092   */\n  tag_85\n  tag_17\n  jump\t// in\ntag_85:\n    /* \"#utility.yul\":4038:4094   */\ntag_84:\n    /* \"#utility.yul\":4118:4156   */\n  tag_86\n    /* \"#utility.yul\":4150:4154   */\n  dup3\n    /* \"#utility.yul\":4144:4155   */\n  sload\n    /* \"#utility.yul\":4118:4156   */\n  tag_19\n  jump\t// in\ntag_86:\n    /* \"#utility.yul\":4203:4270   */\n  tag_87\n    /* \"#utility.yul\":4263:4269   */\n  dup3\n    /* \"#utility.yul\":4255:4261   */\n  dup3\n    /* \"#utility.yul\":4249:4253   */\n  dup6\n    /* \"#utility.yul\":4203:4270   */\n  tag_32\n  jump\t// in\ntag_87:\n    /* \"#utility.yul\":4297:4298   */\n  0x00\n    /* \"#utility.yul\":4321:4325   */\n  0x20\n    /* \"#utility.yul\":4308:4325   */\n  swap1\n  pop\n    /* \"#utility.yul\":4353:4355   */\n  0x1f\n    /* \"#utility.yul\":4345:4351   */\n  dup4\n    /* \"#utility.yul\":4342:4356   */\n  gt\n    /* \"#utility.yul\":4370:4371   */\n  0x01\n    /* \"#utility.yul\":4365:4983   */\n  dup2\n  eq\n  tag_89\n  jumpi\n    /* \"#utility.yul\":5027:5028   */\n  0x00\n    /* \"#utility.yul\":5044:5050   */\n  dup5\n    /* \"#utility.yul\":5041:5118   */\n  iszero\n  tag_90\n  jumpi\n    /* \"#utility.yul\":5093:5102   */\n  dup3\n    /* \"#utility.yul\":5088:5091   */\n  dup8\n    /* \"#utility.yul\":5084:5103   */\n  add\n    /* \"#utility.yul\":5078:5104   */\n  mload\n    /* \"#utility.yul\":5069:5104   */\n  swap1\n  pop\n    /* \"#utility.yul\":5041:5118   */\ntag_90:\n    /* \"#utility.yul\":5144:5211   */\n  tag_91\n    /* \"#utility.yul\":5204:5210   */\n  dup6\n    /* \"#utility.yul\":5197:5202   */\n  dup3\n    /* \"#utility.yul\":5144:5211   */\n  tag_35\n  jump\t// in\ntag_91:\n    /* \"#utility.yul\":5138:5142   */\n  dup7\n    /* \"#utility.yul\":5131:5212   */\n  sstore\n    /* \"#utility.yul\":5000:5222   */\n  pop\n    /* \"#utility.yul\":4335:5222   */\n  jump(tag_88)\n    /* \"#utility.yul\":4365:4983   */\ntag_89:\n    /* \"#utility.yul\":4417:4421   */\n  0x1f\n    /* \"#utility.yul\":4413:4422   */\n  not\n    /* \"#utility.yul\":4405:4411   */\n  dup5\n    /* \"#utility.yul\":4401:4423   */\n  and\n    /* \"#utility.yul\":4451:4488   */\n  tag_92\n    /* \"#utility.yul\":4483:4487   */\n  dup7\n    /* \"#utility.yul\":4451:4488   */\n  tag_20\n  jump\t// in\ntag_92:\n    /* \"#utility.yul\":4510:4511   */\n  0x00\n    /* \"#utility.yul\":4524:4732   */\ntag_93:\n    /* \"#utility.yul\":4538:4545   */\n  dup3\n    /* \"#utility.yul\":4535:4536   */\n  dup2\n    /* \"#utility.yul\":4532:4546   */\n  lt\n    /* \"#utility.yul\":4524:4732   */\n  iszero\n  tag_95\n  jumpi\n    /* \"#utility.yul\":4617:4626   */\n  dup5\n    /* \"#utility.yul\":4612:4615   */\n  dup10\n    /* \"#utility.yul\":4608:4627   */\n  add\n    /* \"#utility.yul\":4602:4628   */\n  mload\n    /* \"#utility.yul\":4594:4600   */\n  dup3\n    /* \"#utility.yul\":4587:4629   */\n  sstore\n    /* \"#utility.yul\":4668:4669   */\n  0x01\n    /* \"#utility.yul\":4660:4666   */\n  dup3\n    /* \"#utility.yul\":4656:4670   */\n  add\n    /* \"#utility.yul\":4646:4670   */\n  swap2\n  pop\n    /* \"#utility.yul\":4715:4717   */\n  0x20\n    /* \"#utility.yul\":4704:4713   */\n  dup6\n    /* \"#utility.yul\":4700:4718   */\n  add\n    /* \"#utility.yul\":4687:4718   */\n  swap5\n  pop\n    /* \"#utility.yul\":4561:4565   */\n  0x20\n    /* \"#utility.yul\":4558:4559   */\n  dup2\n    /* \"#utility.yul\":4554:4566   */\n  add\n    /* \"#utility.yul\":4549:4566   */\n  swap1\n  pop\n    /* \"#utility.yul\":4524:4732   */\n  jump(tag_93)\ntag_95:\n    /* \"#utility.yul\":4760:4766   */\n  dup7\n    /* \"#utility.yul\":4751:4758   */\n  dup4\n    /* \"#utility.yul\":4748:4767   */\n  lt\n    /* \"#utility.yul\":4745:4924   */\n  iszero\n  tag_96\n  jumpi\n    /* \"#utility.yul\":4818:4827   */\n  dup5\n    /* \"#utility.yul\":4813:4816   */\n  dup10\n    /* \"#utility.yul\":4809:4828   */\n  add\n    /* \"#utility.yul\":4803:4829   */\n  mload\n    /* \"#utility.yul\":4861:4909   */\n  tag_97\n    /* \"#utility.yul\":4903:4907   */\n  0x1f\n    /* \"#utility.yul\":4895:4901   */\n  dup10\n    /* \"#utility.yul\":4891:4908   */\n  and\n    /* \"#utility.yul\":4880:4889   */\n  dup3\n    /* \"#utility.yul\":4861:4909   */\n  tag_34\n  jump\t// in\ntag_97:\n    /* \"#utility.yul\":4853:4859   */\n  dup4\n    /* \"#utility.yul\":4846:4910   */\n  sstore\n    /* \"#utility.yul\":4768:4924   */\n  pop\n    /* \"#utility.yul\":4745:4924   */\ntag_96:\n    /* \"#utility.yul\":4970:4971   */\n  0x01\n    /* \"#utility.yul\":4966:4967   */\n  0x02\n    /* \"#utility.yul\":4958:4964   */\n  dup9\n    /* \"#utility.yul\":4954:4968   */\n  mul\n    /* \"#utility.yul\":4950:4972   */\n  add\n    /* \"#utility.yul\":4944:4948   */\n  dup9\n    /* \"#utility.yul\":4937:4973   */\n  sstore\n    /* \"#utility.yul\":4372:4983   */\n  pop\n  pop\n  pop\n    /* \"#utility.yul\":4335:5222   */\ntag_88:\n  pop\n    /* \"#utility.yul\":3925:5228   */\n  pop\n  pop\n  pop\n    /* \"#utility.yul\":3833:5228   */\n  pop\n  pop\n  jump\t// out\n    /* \"lastQv.sol\":235:8384  contract Voting is Ownable, AccessControl {... */\ntag_13:\n  dataSize(sub_0)\n  dup1\n  dataOffset(sub_0)\n  0x00\n  codecopy\n  0x00\n  return\nstop\n\nsub_0: assembly {\n        /* \"lastQv.sol\":235:8384  contract Voting is Ownable, AccessControl {... */\n      mstore(0x40, 0x80)\n      callvalue\n      dup1\n      iszero\n      tag_1\n      jumpi\n      0x00\n      dup1\n      revert\n    tag_1:\n      pop\n      jumpi(tag_2, lt(calldatasize, 0x04))\n      shr(0xe0, calldataload(0x00))\n      dup1\n      0x5fc48d7e\n      gt\n      tag_31\n      jumpi\n      dup1\n      0xab150226\n      gt\n      tag_32\n      jumpi\n      dup1\n      0xc08cc02d\n      gt\n      tag_33\n      jumpi\n      dup1\n      0xc08cc02d\n      eq\n      tag_27\n      jumpi\n      dup1\n      0xd1dbe7d8\n      eq\n      tag_28\n      jumpi\n      dup1\n      0xd547741f\n      eq\n      tag_29\n      jumpi\n      dup1\n      0xf2fde38b\n      eq\n      tag_30\n      jumpi\n      jump(tag_2)\n    tag_33:\n      dup1\n      0xab150226\n      eq\n      tag_24\n      jumpi\n      dup1\n      0xb93a89f7\n      eq\n      tag_25\n      jumpi\n      dup1\n      0xbe747c1c\n      eq\n      tag_26\n      jumpi\n      jump(tag_2)\n    tag_32:\n      dup1\n      0x8da5cb5b\n      gt\n      tag_34\n      jumpi\n      dup1\n      0x8da5cb5b\n      eq\n      tag_20\n      jumpi\n      dup1\n      0x91d14854\n      eq\n      tag_21\n      jumpi\n      dup1\n      0x95d89b41\n      eq\n      tag_22\n      jumpi\n      dup1\n      0xa217fddf\n      eq\n      tag_23\n      jumpi\n      jump(tag_2)\n    tag_34:\n      dup1\n      0x5fc48d7e\n      eq\n      tag_17\n      jumpi\n      dup1\n      0x70a08231\n      eq\n      tag_18\n      jumpi\n      dup1\n      0x715018a6\n      eq\n      tag_19\n      jumpi\n      jump(tag_2)\n    tag_31:\n      dup1\n      0x2fa48e9e\n      gt\n      tag_35\n      jumpi\n      dup1\n      0x401853b7\n      gt\n      tag_36\n      jumpi\n      dup1\n      0x401853b7\n      eq\n      tag_13\n      jumpi\n      dup1\n      0x40c10f19\n      eq\n      tag_14\n      jumpi\n      dup1\n      0x4c3bd9d6\n      eq\n      tag_15\n      jumpi\n      dup1\n      0x4d5f9eba\n      eq\n      tag_16\n      jumpi\n      jump(tag_2)\n    tag_36:\n      dup1\n      0x2fa48e9e\n      eq\n      tag_10\n      jumpi\n      dup1\n      0x36568abe\n      eq\n      tag_11\n      jumpi\n      dup1\n      0x3989ae34\n      eq\n      tag_12\n      jumpi\n      jump(tag_2)\n    tag_35:\n      dup1\n      0x1840f0ca\n      gt\n      tag_37\n      jumpi\n      dup1\n      0x1840f0ca\n      eq\n      tag_6\n      jumpi\n      dup1\n      0x248a9ca3\n      eq\n      tag_7\n      jumpi\n      dup1\n      0x2d5e9d29\n      eq\n      tag_8\n      jumpi\n      dup1\n      0x2f2ff15d\n      eq\n      tag_9\n      jumpi\n      jump(tag_2)\n    tag_37:\n      dup1\n      0x01ffc9a7\n      eq\n      tag_3\n      jumpi\n      dup1\n      0x06fdde03\n      eq\n      tag_4\n      jumpi\n      dup1\n      0x0f39ee72\n      eq\n      tag_5\n      jumpi\n    tag_2:\n      0x00\n      dup1\n      revert\n        /* \"@openzeppelin/contracts/access/AccessControl.sol\":2606:2808  function supportsInterface(bytes4 interfaceId) public view virtual override returns (bool) {... */\n    tag_3:\n      tag_38\n      0x04\n      dup1\n      calldatasize\n      sub\n      dup2\n      add\n      swap1\n      tag_39\n      swap2\n      swap1\n      tag_40\n      jump\t// in\n    tag_39:\n      tag_41\n      jump\t// in\n    tag_38:\n      mload(0x40)\n      tag_42\n      swap2\n      swap1\n      tag_43\n      jump\t// in\n    tag_42:\n      mload(0x40)\n      dup1\n      swap2\n      sub\n      swap1\n      return\n        /* \"lastQv.sol\":379:397  string public name */\n    tag_4:\n      tag_44\n      tag_45\n      jump\t// in\n    tag_44:\n      mload(0x40)\n      tag_46\n      swap2\n      swap1\n      tag_47\n      jump\t// in\n    tag_46:\n      mload(0x40)\n      dup1\n      swap2\n      sub\n      swap1\n      return\n        /* \"lastQv.sol\":6283:6483  function getWeight(uint256 _ProposalID, uint256 optionNum)... */\n    tag_5:\n      tag_48\n      0x04\n      dup1\n      calldatasize\n      sub\n      dup2\n      add\n      swap1\n      tag_49\n      swap2\n      swap1\n      tag_50\n      jump\t// in\n    tag_49:\n      tag_51\n      jump\t// in\n    tag_48:\n      mload(0x40)\n      tag_52\n      swap2\n      swap1\n      tag_53\n      jump\t// in\n    tag_52:\n      mload(0x40)\n      dup1\n      swap2\n      sub\n      swap1\n      return\n        /* \"lastQv.sol\":5607:6275  function countVotes(uint256 _ProposalID)... */\n    tag_6:\n      tag_54\n      0x04\n      dup1\n      calldatasize\n      sub\n      dup2\n      add\n      swap1\n      tag_55\n      swap2\n      swap1\n      tag_56\n      jump\t// in\n    tag_55:\n      tag_57\n      jump\t// in\n    tag_54:\n      mload(0x40)\n      tag_58\n      swap4\n      swap3\n      swap2\n      swap1\n      tag_59\n      jump\t// in\n    tag_58:\n      mload(0x40)\n      dup1\n      swap2\n      sub\n      swap1\n      return\n        /* \"@openzeppelin/contracts/access/AccessControl.sol\":4391:4520  function getRoleAdmin(bytes32 role) public view virtual override returns (bytes32) {... */\n    tag_7:\n      tag_60\n      0x04\n      dup1\n      calldatasize\n      sub\n      dup2\n      add\n      swap1\n      tag_61\n      swap2\n      swap1\n      tag_62\n      jump\t// in\n    tag_61:\n      tag_63\n      jump\t// in\n    tag_60:\n      mload(0x40)\n      tag_64\n      swap2\n      swap1\n      tag_65\n      jump\t// in\n    tag_64:\n      mload(0x40)\n      dup1\n      swap2\n      sub\n      swap1\n      return\n        /* \"lastQv.sol\":2855:3343  function setProposalToTally(uint256 _ProposalID)... */\n    tag_8:\n      tag_66\n      0x04\n      dup1\n      calldatasize\n      sub\n      dup2\n      add\n      swap1\n      tag_67\n      swap2\n      swap1\n      tag_56\n      jump\t// in\n    tag_67:\n      tag_68\n      jump\t// in\n    tag_66:\n      stop\n        /* \"@openzeppelin/contracts/access/AccessControl.sol\":4816:4961  function grantRole(bytes32 role, address account) public virtual override onlyRole(getRoleAdmin(role)) {... */\n    tag_9:\n      tag_69\n      0x04\n      dup1\n      calldatasize\n      sub\n      dup2\n      add\n      swap1\n      tag_70\n      swap2\n      swap1\n      tag_71\n      jump\t// in\n    tag_70:\n      tag_72\n      jump\t// in\n    tag_69:\n      stop\n        /* \"lastQv.sol\":6491:7655  function castVote(uint256 _ProposalID, uint256[] memory _tokens)... */\n    tag_10:\n      tag_73\n      0x04\n      dup1\n      calldatasize\n      sub\n      dup2\n      add\n      swap1\n      tag_74\n      swap2\n      swap1\n      tag_75\n      jump\t// in\n    tag_74:\n      tag_76\n      jump\t// in\n    tag_73:\n      stop\n        /* \"@openzeppelin/contracts/access/AccessControl.sol\":5925:6139  function renounceRole(bytes32 role, address account) public virtual override {... */\n    tag_11:\n      tag_77\n      0x04\n      dup1\n      calldatasize\n      sub\n      dup2\n      add\n      swap1\n      tag_78\n      swap2\n      swap1\n      tag_71\n      jump\t// in\n    tag_78:\n      tag_79\n      jump\t// in\n    tag_77:\n      stop\n        /* \"lastQv.sol\":1641:2742  function createProposal(... */\n    tag_12:\n      tag_80\n      0x04\n      dup1\n      calldatasize\n      sub\n      dup2\n      add\n      swap1\n      tag_81\n      swap2\n      swap1\n      tag_82\n      jump\t// in\n    tag_81:\n      tag_83\n      jump\t// in\n    tag_80:\n      mload(0x40)\n      tag_84\n      swap2\n      swap1\n      tag_53\n      jump\t// in\n    tag_84:\n      mload(0x40)\n      dup1\n      swap2\n      sub\n      swap1\n      return\n        /* \"lastQv.sol\":4551:4759  function getProposalStatus(uint256 _ProposalID)... */\n    tag_13:\n      tag_85\n      0x04\n      dup1\n      calldatasize\n      sub\n      dup2\n      add\n      swap1\n      tag_86\n      swap2\n      swap1\n      tag_56\n      jump\t// in\n    tag_86:\n      tag_87\n      jump\t// in\n    tag_85:\n      mload(0x40)\n      tag_88\n      swap2\n      swap1\n      tag_89\n      jump\t// in\n    tag_88:\n      mload(0x40)\n      dup1\n      swap2\n      sub\n      swap1\n      return\n        /* \"lastQv.sol\":7944:8198  function mint(address account, uint256 amount) public onlyOwner {... */\n    tag_14:\n      tag_90\n      0x04\n      dup1\n      calldatasize\n      sub\n      dup2\n      add\n      swap1\n      tag_91\n      swap2\n      swap1\n      tag_92\n      jump\t// in\n    tag_91:\n      tag_93\n      jump\t// in\n    tag_90:\n      stop\n        /* \"lastQv.sol\":4057:4543  function setProposalToEnded(uint256 _ProposalID)... */\n    tag_15:\n      tag_94\n      0x04\n      dup1\n      calldatasize\n      sub\n      dup2\n      add\n      swap1\n      tag_95\n      swap2\n      swap1\n      tag_56\n      jump\t// in\n    tag_95:\n      tag_96\n      jump\t// in\n    tag_94:\n      stop\n        /* \"lastQv.sol\":4767:4984  function getProposalExpirationTime(uint256 _ProposalID)... */\n    tag_16:\n      tag_97\n      0x04\n      dup1\n      calldatasize\n      sub\n      dup2\n      add\n      swap1\n      tag_98\n      swap2\n      swap1\n      tag_56\n      jump\t// in\n    tag_98:\n      tag_99\n      jump\t// in\n    tag_97:\n      mload(0x40)\n      tag_100\n      swap2\n      swap1\n      tag_53\n      jump\t// in\n    tag_100:\n      mload(0x40)\n      dup1\n      swap2\n      sub\n      swap1\n      return\n        /* \"lastQv.sol\":5195:5424  function userHasVoted(uint256 _ProposalID, address _user)... */\n    tag_17:\n      tag_101\n      0x04\n      dup1\n      calldatasize\n      sub\n      dup2\n      add\n      swap1\n      tag_102\n      swap2\n      swap1\n      tag_103\n      jump\t// in\n    tag_102:\n      tag_104\n      jump\t// in\n    tag_101:\n      mload(0x40)\n      tag_105\n      swap2\n      swap1\n      tag_43\n      jump\t// in\n    tag_105:\n      mload(0x40)\n      dup1\n      swap2\n      sub\n      swap1\n      return\n        /* \"lastQv.sol\":8271:8381  function balanceOf(address account) public view returns (uint256) {... */\n    tag_18:\n      tag_106\n      0x04\n      dup1\n      calldatasize\n      sub\n      dup2\n      add\n      swap1\n      tag_107\n      swap2\n      swap1\n      tag_108\n      jump\t// in\n    tag_107:\n      tag_109\n      jump\t// in\n    tag_106:\n      mload(0x40)\n      tag_110\n      swap2\n      swap1\n      tag_53\n      jump\t// in\n    tag_110:\n      mload(0x40)\n      dup1\n      swap2\n      sub\n      swap1\n      return\n        /* \"@openzeppelin/contracts/access/Ownable.sol\":1831:1932  function renounceOwnership() public virtual onlyOwner {... */\n    tag_19:\n      tag_111\n      tag_112\n      jump\t// in\n    tag_111:\n      stop\n        /* \"@openzeppelin/contracts/access/Ownable.sol\":1201:1286  function owner() public view virtual returns (address) {... */\n    tag_20:\n      tag_113\n      tag_114\n      jump\t// in\n    tag_113:\n      mload(0x40)\n      tag_115\n      swap2\n      swap1\n      tag_116\n      jump\t// in\n    tag_115:\n      mload(0x40)\n      dup1\n      swap2\n      sub\n      swap1\n      return\n        /* \"@openzeppelin/contracts/access/AccessControl.sol\":2895:3040  function hasRole(bytes32 role, address account) public view virtual override returns (bool) {... */\n    tag_21:\n      tag_117\n      0x04\n      dup1\n      calldatasize\n      sub\n      dup2\n      add\n      swap1\n      tag_118\n      swap2\n      swap1\n      tag_71\n      jump\t// in\n    tag_118:\n      tag_119\n      jump\t// in\n    tag_117:\n      mload(0x40)\n      tag_120\n      swap2\n      swap1\n      tag_43\n      jump\t// in\n    tag_120:\n      mload(0x40)\n      dup1\n      swap2\n      sub\n      swap1\n      return\n        /* \"lastQv.sol\":352:372  string public symbol */\n    tag_22:\n      tag_121\n      tag_122\n      jump\t// in\n    tag_121:\n      mload(0x40)\n      tag_123\n      swap2\n      swap1\n      tag_47\n      jump\t// in\n    tag_123:\n      mload(0x40)\n      dup1\n      swap2\n      sub\n      swap1\n      return\n        /* \"@openzeppelin/contracts/access/AccessControl.sol\":2027:2076  bytes32 public constant DEFAULT_ADMIN_ROLE = 0x00 */\n    tag_23:\n      tag_124\n      tag_125\n      jump\t// in\n    tag_124:\n      mload(0x40)\n      tag_126\n      swap2\n      swap1\n      tag_65\n      jump\t// in\n    tag_126:\n      mload(0x40)\n      dup1\n      swap2\n      sub\n      swap1\n      return\n        /* \"lastQv.sol\":1480:1633  function checkAdmin() public view returns (bool) {... */\n    tag_24:\n      tag_127\n      tag_128\n      jump\t// in\n    tag_127:\n      mload(0x40)\n      tag_129\n      swap2\n      swap1\n      tag_43\n      jump\t// in\n    tag_129:\n      mload(0x40)\n      dup1\n      swap2\n      sub\n      swap1\n      return\n        /* \"lastQv.sol\":3351:4049  function getDetails(uint256 _ProposalID)... */\n    tag_25:\n      tag_130\n      0x04\n      dup1\n      calldatasize\n      sub\n      dup2\n      add\n      swap1\n      tag_131\n      swap2\n      swap1\n      tag_56\n      jump\t// in\n    tag_131:\n      tag_132\n      jump\t// in\n    tag_130:\n      mload(0x40)\n      tag_133\n      swap5\n      swap4\n      swap3\n      swap2\n      swap1\n      tag_134\n      jump\t// in\n    tag_133:\n      mload(0x40)\n      dup1\n      swap2\n      sub\n      swap1\n      return\n        /* \"lastQv.sol\":456:484  uint256 public ProposalCount */\n    tag_26:\n      tag_135\n      tag_136\n      jump\t// in\n    tag_135:\n      mload(0x40)\n      tag_137\n      swap2\n      swap1\n      tag_53\n      jump\t// in\n    tag_137:\n      mload(0x40)\n      dup1\n      swap2\n      sub\n      swap1\n      return\n        /* \"lastQv.sol\":2750:2847  function getProposalCount() public view returns (uint256) {... */\n    tag_27:\n      tag_138\n      tag_139\n      jump\t// in\n    tag_138:\n      mload(0x40)\n      tag_140\n      swap2\n      swap1\n      tag_53\n      jump\t// in\n    tag_140:\n      mload(0x40)\n      dup1\n      swap2\n      sub\n      swap1\n      return\n        /* \"lastQv.sol\":1281:1326  mapping(uint256 => Proposal) public Proposals */\n    tag_28:\n      tag_141\n      0x04\n      dup1\n      calldatasize\n      sub\n      dup2\n      add\n      swap1\n      tag_142\n      swap2\n      swap1\n      tag_56\n      jump\t// in\n    tag_142:\n      tag_143\n      jump\t// in\n    tag_141:\n      mload(0x40)\n      tag_144\n      swap6\n      swap5\n      swap4\n      swap3\n      swap2\n      swap1\n      tag_145\n      jump\t// in\n    tag_144:\n      mload(0x40)\n      dup1\n      swap2\n      sub\n      swap1\n      return\n        /* \"@openzeppelin/contracts/access/AccessControl.sol\":5241:5388  function revokeRole(bytes32 role, address account) public virtual override onlyRole(getRoleAdmin(role)) {... */\n    tag_29:\n      tag_146\n      0x04\n      dup1\n      calldatasize\n      sub\n      dup2\n      add\n      swap1\n      tag_147\n      swap2\n      swap1\n      tag_71\n      jump\t// in\n    tag_147:\n      tag_148\n      jump\t// in\n    tag_146:\n      stop\n        /* \"@openzeppelin/contracts/access/Ownable.sol\":2081:2279  function transferOwnership(address newOwner) public virtual onlyOwner {... */\n    tag_30:\n      tag_149\n      0x04\n      dup1\n      calldatasize\n      sub\n      dup2\n      add\n      swap1\n      tag_150\n      swap2\n      swap1\n      tag_108\n      jump\t// in\n    tag_150:\n      tag_151\n      jump\t// in\n    tag_149:\n      stop\n        /* \"@openzeppelin/contracts/access/AccessControl.sol\":2606:2808  function supportsInterface(bytes4 interfaceId) public view virtual override returns (bool) {... */\n    tag_41:\n        /* \"@openzeppelin/contracts/access/AccessControl.sol\":2691:2695  bool */\n      0x00\n        /* \"@openzeppelin/contracts/access/AccessControl.sol\":2729:2761  type(IAccessControl).interfaceId */\n      0x7965db0b00000000000000000000000000000000000000000000000000000000\n        /* \"@openzeppelin/contracts/access/AccessControl.sol\":2714:2761  interfaceId == type(IAccessControl).interfaceId */\n      not(0xffffffffffffffffffffffffffffffffffffffffffffffffffffffff)\n      and\n        /* \"@openzeppelin/contracts/access/AccessControl.sol\":2714:2725  interfaceId */\n      dup3\n        /* \"@openzeppelin/contracts/access/AccessControl.sol\":2714:2761  interfaceId == type(IAccessControl).interfaceId */\n      not(0xffffffffffffffffffffffffffffffffffffffffffffffffffffffff)\n      and\n      eq\n        /* \"@openzeppelin/contracts/access/AccessControl.sol\":2714:2801  interfaceId == type(IAccessControl).interfaceId || super.supportsInterface(interfaceId) */\n      dup1\n      tag_153\n      jumpi\n      pop\n        /* \"@openzeppelin/contracts/access/AccessControl.sol\":2765:2801  super.supportsInterface(interfaceId) */\n      tag_154\n        /* \"@openzeppelin/contracts/access/AccessControl.sol\":2789:2800  interfaceId */\n      dup3\n        /* \"@openzeppelin/contracts/access/AccessControl.sol\":2765:2788  super.supportsInterface */\n      tag_155\n        /* \"@openzeppelin/contracts/access/AccessControl.sol\":2765:2801  super.supportsInterface(interfaceId) */\n      jump\t// in\n    tag_154:\n        /* \"@openzeppelin/contracts/access/AccessControl.sol\":2714:2801  interfaceId == type(IAccessControl).interfaceId || super.supportsInterface(interfaceId) */\n    tag_153:\n        /* \"@openzeppelin/contracts/access/AccessControl.sol\":2707:2801  return interfaceId == type(IAccessControl).interfaceId || super.supportsInterface(interfaceId) */\n      swap1\n      pop\n        /* \"@openzeppelin/contracts/access/AccessControl.sol\":2606:2808  function supportsInterface(bytes4 interfaceId) public view virtual override returns (bool) {... */\n      swap2\n      swap1\n      pop\n      jump\t// out\n        /* \"lastQv.sol\":379:397  string public name */\n    tag_45:\n      0x04\n      dup1\n      sload\n      tag_156\n      swap1\n      tag_157\n      jump\t// in\n    tag_156:\n      dup1\n      0x1f\n      add\n      0x20\n      dup1\n      swap2\n      div\n      mul\n      0x20\n      add\n      mload(0x40)\n      swap1\n      dup2\n      add\n      0x40\n      mstore\n      dup1\n      swap3\n      swap2\n      swap1\n      dup2\n      dup2\n      mstore\n      0x20\n      add\n      dup3\n      dup1\n      sload\n      tag_158\n      swap1\n      tag_157\n      jump\t// in\n    tag_158:\n      dup1\n      iszero\n      tag_159\n      jumpi\n      dup1\n      0x1f\n      lt\n      tag_160\n      jumpi\n      0x0100\n      dup1\n      dup4\n      sload\n      div\n      mul\n      dup4\n      mstore\n      swap2\n      0x20\n      add\n      swap2\n      jump(tag_159)\n    tag_160:\n      dup3\n      add\n      swap2\n      swap1\n      0x00\n      mstore\n      keccak256(0x00, 0x20)\n      swap1\n    tag_161:\n      dup2\n      sload\n      dup2\n      mstore\n      swap1\n      0x01\n      add\n      swap1\n      0x20\n      add\n      dup1\n      dup4\n      gt\n      tag_161\n      jumpi\n      dup3\n      swap1\n      sub\n      0x1f\n      and\n      dup3\n      add\n      swap2\n    tag_159:\n      pop\n      pop\n      pop\n      pop\n      pop\n      dup2\n      jump\t// out\n        /* \"lastQv.sol\":6283:6483  function getWeight(uint256 _ProposalID, uint256 optionNum)... */\n    tag_51:\n        /* \"lastQv.sol\":6390:6397  uint256 */\n      0x00\n        /* \"lastQv.sol\":6422:6431  Proposals */\n      0x07\n        /* \"lastQv.sol\":6422:6444  Proposals[_ProposalID] */\n      0x00\n        /* \"lastQv.sol\":6432:6443  _ProposalID */\n      dup5\n        /* \"lastQv.sol\":6422:6444  Proposals[_ProposalID] */\n      dup2\n      mstore\n      0x20\n      add\n      swap1\n      dup2\n      mstore\n      0x20\n      add\n      0x00\n      keccak256\n        /* \"lastQv.sol\":6422:6452  Proposals[_ProposalID].options */\n      0x06\n      add\n        /* \"lastQv.sol\":6422:6463  Proposals[_ProposalID].options[optionNum] */\n      0x00\n        /* \"lastQv.sol\":6453:6462  optionNum */\n      dup4\n        /* \"lastQv.sol\":6422:6463  Proposals[_ProposalID].options[optionNum] */\n      dup2\n      mstore\n      0x20\n      add\n      swap1\n      dup2\n      mstore\n      0x20\n      add\n      0x00\n      keccak256\n        /* \"lastQv.sol\":6422:6475  Proposals[_ProposalID].options[optionNum].totalWeight */\n      0x01\n      add\n      sload\n        /* \"lastQv.sol\":6415:6475  return Proposals[_ProposalID].options[optionNum].totalWeight */\n      swap1\n      pop\n        /* \"lastQv.sol\":6283:6483  function getWeight(uint256 _ProposalID, uint256 optionNum)... */\n      swap3\n      swap2\n      pop\n      pop\n      jump\t// out\n        /* \"lastQv.sol\":5607:6275  function countVotes(uint256 _ProposalID)... */\n    tag_57:\n        /* \"lastQv.sol\":5710:5717  uint256 */\n      0x00\n        /* \"lastQv.sol\":5732:5739  uint256 */\n      dup1\n        /* \"lastQv.sol\":5754:5767  string memory */\n      0x60\n        /* \"lastQv.sol\":5795:5806  uint256 len */\n      0x00\n        /* \"lastQv.sol\":5809:5818  Proposals */\n      0x07\n        /* \"lastQv.sol\":5809:5831  Proposals[_ProposalID] */\n      0x00\n        /* \"lastQv.sol\":5819:5830  _ProposalID */\n      dup7\n        /* \"lastQv.sol\":5809:5831  Proposals[_ProposalID] */\n      dup2\n      mstore\n      0x20\n      add\n      swap1\n      dup2\n      mstore\n      0x20\n      add\n      0x00\n      keccak256\n        /* \"lastQv.sol\":5809:5844  Proposals[_ProposalID].numOfOptions */\n      0x04\n      add\n      sload\n        /* \"lastQv.sol\":5795:5844  uint256 len = Proposals[_ProposalID].numOfOptions */\n      swap1\n      pop\n        /* \"lastQv.sol\":5855:5872  uint256 maxWeight */\n      0x00\n        /* \"lastQv.sol\":5883:5896  uint256 index */\n      dup1\n        /* \"lastQv.sol\":5912:5921  uint256 i */\n      0x00\n        /* \"lastQv.sol\":5924:5925  1 */\n      0x01\n        /* \"lastQv.sol\":5912:5925  uint256 i = 1 */\n      swap1\n      pop\n        /* \"lastQv.sol\":5907:6152  for (uint256 i = 1; i <= len; i++) {... */\n    tag_164:\n        /* \"lastQv.sol\":5932:5935  len */\n      dup4\n        /* \"lastQv.sol\":5927:5928  i */\n      dup2\n        /* \"lastQv.sol\":5927:5935  i <= len */\n      gt\n        /* \"lastQv.sol\":5907:6152  for (uint256 i = 1; i <= len; i++) {... */\n      tag_165\n      jumpi\n        /* \"lastQv.sol\":6010:6019  maxWeight */\n      dup3\n        /* \"lastQv.sol\":5961:5970  Proposals */\n      0x07\n        /* \"lastQv.sol\":5961:5983  Proposals[_ProposalID] */\n      0x00\n        /* \"lastQv.sol\":5971:5982  _ProposalID */\n      dup11\n        /* \"lastQv.sol\":5961:5983  Proposals[_ProposalID] */\n      dup2\n      mstore\n      0x20\n      add\n      swap1\n      dup2\n      mstore\n      0x20\n      add\n      0x00\n      keccak256\n        /* \"lastQv.sol\":5961:5991  Proposals[_ProposalID].options */\n      0x06\n      add\n        /* \"lastQv.sol\":5961:5994  Proposals[_ProposalID].options[i] */\n      0x00\n        /* \"lastQv.sol\":5992:5993  i */\n      dup4\n        /* \"lastQv.sol\":5961:5994  Proposals[_ProposalID].options[i] */\n      dup2\n      mstore\n      0x20\n      add\n      swap1\n      dup2\n      mstore\n      0x20\n      add\n      0x00\n      keccak256\n        /* \"lastQv.sol\":5961:6006  Proposals[_ProposalID].options[i].totalWeight */\n      0x01\n      add\n      sload\n        /* \"lastQv.sol\":5961:6019  Proposals[_ProposalID].options[i].totalWeight >= maxWeight */\n      lt\n        /* \"lastQv.sol\":5957:6141  if (Proposals[_ProposalID].options[i].totalWeight >= maxWeight) {... */\n      tag_167\n      jumpi\n        /* \"lastQv.sol\":6052:6061  Proposals */\n      0x07\n        /* \"lastQv.sol\":6052:6074  Proposals[_ProposalID] */\n      0x00\n        /* \"lastQv.sol\":6062:6073  _ProposalID */\n      dup10\n        /* \"lastQv.sol\":6052:6074  Proposals[_ProposalID] */\n      dup2\n      mstore\n      0x20\n      add\n      swap1\n      dup2\n      mstore\n      0x20\n      add\n      0x00\n      keccak256\n        /* \"lastQv.sol\":6052:6082  Proposals[_ProposalID].options */\n      0x06\n      add\n        /* \"lastQv.sol\":6052:6085  Proposals[_ProposalID].options[i] */\n      0x00\n        /* \"lastQv.sol\":6083:6084  i */\n      dup3\n        /* \"lastQv.sol\":6052:6085  Proposals[_ProposalID].options[i] */\n      dup2\n      mstore\n      0x20\n      add\n      swap1\n      dup2\n      mstore\n      0x20\n      add\n      0x00\n      keccak256\n        /* \"lastQv.sol\":6052:6097  Proposals[_ProposalID].options[i].totalWeight */\n      0x01\n      add\n      sload\n        /* \"lastQv.sol\":6040:6097  maxWeight = Proposals[_ProposalID].options[i].totalWeight */\n      swap3\n      pop\n        /* \"lastQv.sol\":6124:6125  i */\n      dup1\n        /* \"lastQv.sol\":6116:6125  index = i */\n      swap2\n      pop\n        /* \"lastQv.sol\":5957:6141  if (Proposals[_ProposalID].options[i].totalWeight >= maxWeight) {... */\n    tag_167:\n        /* \"lastQv.sol\":5937:5940  i++ */\n      dup1\n      dup1\n      tag_168\n      swap1\n      tag_169\n      jump\t// in\n    tag_168:\n      swap2\n      pop\n      pop\n        /* \"lastQv.sol\":5907:6152  for (uint256 i = 1; i <= len; i++) {... */\n      jump(tag_164)\n    tag_165:\n      pop\n        /* \"lastQv.sol\":6162:6177  string memory n */\n      0x00\n        /* \"lastQv.sol\":6180:6189  Proposals */\n      0x07\n        /* \"lastQv.sol\":6180:6202  Proposals[_ProposalID] */\n      0x00\n        /* \"lastQv.sol\":6190:6201  _ProposalID */\n      dup10\n        /* \"lastQv.sol\":6180:6202  Proposals[_ProposalID] */\n      dup2\n      mstore\n      0x20\n      add\n      swap1\n      dup2\n      mstore\n      0x20\n      add\n      0x00\n      keccak256\n        /* \"lastQv.sol\":6180:6210  Proposals[_ProposalID].options */\n      0x06\n      add\n        /* \"lastQv.sol\":6180:6217  Proposals[_ProposalID].options[index] */\n      0x00\n        /* \"lastQv.sol\":6211:6216  index */\n      dup4\n        /* \"lastQv.sol\":6180:6217  Proposals[_ProposalID].options[index] */\n      dup2\n      mstore\n      0x20\n      add\n      swap1\n      dup2\n      mstore\n      0x20\n      add\n      0x00\n      keccak256\n        /* \"lastQv.sol\":6180:6228  Proposals[_ProposalID].options[index].optionName */\n      0x00\n      add\n        /* \"lastQv.sol\":6162:6228  string memory n = Proposals[_ProposalID].options[index].optionName */\n      dup1\n      sload\n      tag_170\n      swap1\n      tag_157\n      jump\t// in\n    tag_170:\n      dup1\n      0x1f\n      add\n      0x20\n      dup1\n      swap2\n      div\n      mul\n      0x20\n      add\n      mload(0x40)\n      swap1\n      dup2\n      add\n      0x40\n      mstore\n      dup1\n      swap3\n      swap2\n      swap1\n      dup2\n      dup2\n      mstore\n      0x20\n      add\n      dup3\n      dup1\n      sload\n      tag_171\n      swap1\n      tag_157\n      jump\t// in\n    tag_171:\n      dup1\n      iszero\n      tag_172\n      jumpi\n      dup1\n      0x1f\n      lt\n      tag_173\n      jumpi\n      0x0100\n      dup1\n      dup4\n      sload\n      div\n      mul\n      dup4\n      mstore\n      swap2\n      0x20\n      add\n      swap2\n      jump(tag_172)\n    tag_173:\n      dup3\n      add\n      swap2\n      swap1\n      0x00\n      mstore\n      keccak256(0x00, 0x20)\n      swap1\n    tag_174:\n      dup2\n      sload\n      dup2\n      mstore\n      swap1\n      0x01\n      add\n      swap1\n      0x20\n      add\n      dup1\n      dup4\n      gt\n      tag_174\n      jumpi\n      dup3\n      swap1\n      sub\n      0x1f\n      and\n      dup3\n      add\n      swap2\n    tag_172:\n      pop\n      pop\n      pop\n      pop\n      pop\n      swap1\n      pop\n        /* \"lastQv.sol\":6247:6252  index */\n      dup2\n        /* \"lastQv.sol\":6254:6263  maxWeight */\n      dup4\n        /* \"lastQv.sol\":6265:6266  n */\n      dup3\n        /* \"lastQv.sol\":6239:6267  return (index, maxWeight, n) */\n      swap7\n      pop\n      swap7\n      pop\n      swap7\n      pop\n      pop\n      pop\n      pop\n      pop\n        /* \"lastQv.sol\":5607:6275  function countVotes(uint256 _ProposalID)... */\n      swap2\n      swap4\n      swap1\n      swap3\n      pop\n      jump\t// out\n        /* \"@openzeppelin/contracts/access/AccessControl.sol\":4391:4520  function getRoleAdmin(bytes32 role) public view virtual override returns (bytes32) {... */\n    tag_63:\n        /* \"@openzeppelin/contracts/access/AccessControl.sol\":4465:4472  bytes32 */\n      0x00\n        /* \"@openzeppelin/contracts/access/AccessControl.sol\":4491:4497  _roles */\n      0x01\n        /* \"@openzeppelin/contracts/access/AccessControl.sol\":4491:4503  _roles[role] */\n      0x00\n        /* \"@openzeppelin/contracts/access/AccessControl.sol\":4498:4502  role */\n      dup4\n        /* \"@openzeppelin/contracts/access/AccessControl.sol\":4491:4503  _roles[role] */\n      dup2\n      mstore\n      0x20\n      add\n      swap1\n      dup2\n      mstore\n      0x20\n      add\n      0x00\n      keccak256\n        /* \"@openzeppelin/contracts/access/AccessControl.sol\":4491:4513  _roles[role].adminRole */\n      0x01\n      add\n      sload\n        /* \"@openzeppelin/contracts/access/AccessControl.sol\":4484:4513  return _roles[role].adminRole */\n      swap1\n      pop\n        /* \"@openzeppelin/contracts/access/AccessControl.sol\":4391:4520  function getRoleAdmin(bytes32 role) public view virtual override returns (bytes32) {... */\n      swap2\n      swap1\n      pop\n      jump\t// out\n        /* \"lastQv.sol\":2855:3343  function setProposalToTally(uint256 _ProposalID)... */\n    tag_68:\n        /* \"lastQv.sol\":2945:2956  _ProposalID */\n      dup1\n        /* \"lastQv.sol\":5083:5084  0 */\n      0x00\n        /* \"lastQv.sol\":5069:5080  _ProposalID */\n      dup2\n        /* \"lastQv.sol\":5069:5084  _ProposalID > 0 */\n      gt\n        /* \"lastQv.sol\":5069:5116  _ProposalID > 0 && _ProposalID <= ProposalCount */\n      dup1\n      iszero\n      tag_177\n      jumpi\n      pop\n        /* \"lastQv.sol\":5103:5116  ProposalCount */\n      sload(0x06)\n        /* \"lastQv.sol\":5088:5099  _ProposalID */\n      dup2\n        /* \"lastQv.sol\":5088:5116  _ProposalID <= ProposalCount */\n      gt\n      iszero\n        /* \"lastQv.sol\":5069:5116  _ProposalID > 0 && _ProposalID <= ProposalCount */\n    tag_177:\n        /* \"lastQv.sol\":5047:5167  require(... */\n      tag_178\n      jumpi\n      mload(0x40)\n      0x08c379a000000000000000000000000000000000000000000000000000000000\n      dup2\n      mstore\n      0x04\n      add\n      tag_179\n      swap1\n      tag_180\n      jump\t// in\n    tag_179:\n      mload(0x40)\n      dup1\n      swap2\n      sub\n      swap1\n      revert\n    tag_178:\n        /* \"@openzeppelin/contracts/access/Ownable.sol\":1094:1107  _checkOwner() */\n      tag_182\n        /* \"@openzeppelin/contracts/access/Ownable.sol\":1094:1105  _checkOwner */\n      tag_183\n        /* \"@openzeppelin/contracts/access/Ownable.sol\":1094:1107  _checkOwner() */\n      jump\t// in\n    tag_182:\n        /* \"lastQv.sol\":3048:3074  ProposalStatus.IN_PROGRESS */\n      0x00\n        /* \"lastQv.sol\":3015:3074  Proposals[_ProposalID].status == ProposalStatus.IN_PROGRESS */\n      0x02\n      dup2\n      gt\n      iszero\n      tag_185\n      jumpi\n      tag_186\n      tag_187\n      jump\t// in\n    tag_186:\n    tag_185:\n        /* \"lastQv.sol\":3015:3024  Proposals */\n      0x07\n        /* \"lastQv.sol\":3015:3037  Proposals[_ProposalID] */\n      0x00\n        /* \"lastQv.sol\":3025:3036  _ProposalID */\n      dup5\n        /* \"lastQv.sol\":3015:3037  Proposals[_ProposalID] */\n      dup2\n      mstore\n      0x20\n      add\n      swap1\n      dup2\n      mstore\n      0x20\n      add\n      0x00\n      keccak256\n        /* \"lastQv.sol\":3015:3044  Proposals[_ProposalID].status */\n      0x00\n      add\n      0x14\n      swap1\n      sload\n      swap1\n      0x0100\n      exp\n      swap1\n      div\n      0xff\n      and\n        /* \"lastQv.sol\":3015:3074  Proposals[_ProposalID].status == ProposalStatus.IN_PROGRESS */\n      0x02\n      dup2\n      gt\n      iszero\n      tag_188\n      jumpi\n      tag_189\n      tag_187\n      jump\t// in\n    tag_189:\n    tag_188:\n      eq\n        /* \"lastQv.sol\":2993:3125  require(... */\n      tag_190\n      jumpi\n      mload(0x40)\n      0x08c379a000000000000000000000000000000000000000000000000000000000\n      dup2\n      mstore\n      0x04\n      add\n      tag_191\n      swap1\n      tag_192\n      jump\t// in\n    tag_191:\n      mload(0x40)\n      dup1\n      swap2\n      sub\n      swap1\n      revert\n    tag_190:\n        /* \"lastQv.sol\":3177:3215  getProposalExpirationTime(_ProposalID) */\n      tag_193\n        /* \"lastQv.sol\":3203:3214  _ProposalID */\n      dup3\n        /* \"lastQv.sol\":3177:3202  getProposalExpirationTime */\n      tag_99\n        /* \"lastQv.sol\":3177:3215  getProposalExpirationTime(_ProposalID) */\n      jump\t// in\n    tag_193:\n        /* \"lastQv.sol\":3158:3173  block.timestamp */\n      timestamp\n        /* \"lastQv.sol\":3158:3215  block.timestamp >= getProposalExpirationTime(_ProposalID) */\n      lt\n      iszero\n        /* \"lastQv.sol\":3136:3272  require(... */\n      tag_194\n      jumpi\n      mload(0x40)\n      0x08c379a000000000000000000000000000000000000000000000000000000000\n      dup2\n      mstore\n      0x04\n      add\n      tag_195\n      swap1\n      tag_196\n      jump\t// in\n    tag_195:\n      mload(0x40)\n      dup1\n      swap2\n      sub\n      swap1\n      revert\n    tag_194:\n        /* \"lastQv.sol\":3315:3335  ProposalStatus.TALLY */\n      0x01\n        /* \"lastQv.sol\":3283:3292  Proposals */\n      0x07\n        /* \"lastQv.sol\":3283:3305  Proposals[_ProposalID] */\n      0x00\n        /* \"lastQv.sol\":3293:3304  _ProposalID */\n      dup5\n        /* \"lastQv.sol\":3283:3305  Proposals[_ProposalID] */\n      dup2\n      mstore\n      0x20\n      add\n      swap1\n      dup2\n      mstore\n      0x20\n      add\n      0x00\n      keccak256\n        /* \"lastQv.sol\":3283:3312  Proposals[_ProposalID].status */\n      0x00\n      add\n      0x14\n        /* \"lastQv.sol\":3283:3335  Proposals[_ProposalID].status = ProposalStatus.TALLY */\n      0x0100\n      exp\n      dup2\n      sload\n      dup2\n      0xff\n      mul\n      not\n      and\n      swap1\n      dup4\n      0x02\n      dup2\n      gt\n      iszero\n      tag_197\n      jumpi\n      tag_198\n      tag_187\n      jump\t// in\n    tag_198:\n    tag_197:\n      mul\n      or\n      swap1\n      sstore\n      pop\n        /* \"lastQv.sol\":2855:3343  function setProposalToTally(uint256 _ProposalID)... */\n      pop\n      pop\n      jump\t// out\n        /* \"@openzeppelin/contracts/access/AccessControl.sol\":4816:4961  function grantRole(bytes32 role, address account) public virtual override onlyRole(getRoleAdmin(role)) {... */\n    tag_72:\n        /* \"@openzeppelin/contracts/access/AccessControl.sol\":4899:4917  getRoleAdmin(role) */\n      tag_199\n        /* \"@openzeppelin/contracts/access/AccessControl.sol\":4912:4916  role */\n      dup3\n        /* \"@openzeppelin/contracts/access/AccessControl.sol\":4899:4911  getRoleAdmin */\n      tag_63\n        /* \"@openzeppelin/contracts/access/AccessControl.sol\":4899:4917  getRoleAdmin(role) */\n      jump\t// in\n    tag_199:\n        /* \"@openzeppelin/contracts/access/AccessControl.sol\":2505:2521  _checkRole(role) */\n      tag_201\n        /* \"@openzeppelin/contracts/access/AccessControl.sol\":2516:2520  role */\n      dup2\n        /* \"@openzeppelin/contracts/access/AccessControl.sol\":2505:2515  _checkRole */\n      tag_202\n        /* \"@openzeppelin/contracts/access/AccessControl.sol\":2505:2521  _checkRole(role) */\n      jump\t// in\n    tag_201:\n        /* \"@openzeppelin/contracts/access/AccessControl.sol\":4929:4954  _grantRole(role, account) */\n      tag_204\n        /* \"@openzeppelin/contracts/access/AccessControl.sol\":4940:4944  role */\n      dup4\n        /* \"@openzeppelin/contracts/access/AccessControl.sol\":4946:4953  account */\n      dup4\n        /* \"@openzeppelin/contracts/access/AccessControl.sol\":4929:4939  _grantRole */\n      tag_205\n        /* \"@openzeppelin/contracts/access/AccessControl.sol\":4929:4954  _grantRole(role, account) */\n      jump\t// in\n    tag_204:\n        /* \"@openzeppelin/contracts/access/AccessControl.sol\":4816:4961  function grantRole(bytes32 role, address account) public virtual override onlyRole(getRoleAdmin(role)) {... */\n      pop\n      pop\n      pop\n      jump\t// out\n        /* \"lastQv.sol\":6491:7655  function castVote(uint256 _ProposalID, uint256[] memory _tokens)... */\n    tag_76:\n        /* \"lastQv.sol\":6597:6608  _ProposalID */\n      dup2\n        /* \"lastQv.sol\":5083:5084  0 */\n      0x00\n        /* \"lastQv.sol\":5069:5080  _ProposalID */\n      dup2\n        /* \"lastQv.sol\":5069:5084  _ProposalID > 0 */\n      gt\n        /* \"lastQv.sol\":5069:5116  _ProposalID > 0 && _ProposalID <= ProposalCount */\n      dup1\n      iszero\n      tag_207\n      jumpi\n      pop\n        /* \"lastQv.sol\":5103:5116  ProposalCount */\n      sload(0x06)\n        /* \"lastQv.sol\":5088:5099  _ProposalID */\n      dup2\n        /* \"lastQv.sol\":5088:5116  _ProposalID <= ProposalCount */\n      gt\n      iszero\n        /* \"lastQv.sol\":5069:5116  _ProposalID > 0 && _ProposalID <= ProposalCount */\n    tag_207:\n        /* \"lastQv.sol\":5047:5167  require(... */\n      tag_208\n      jumpi\n      mload(0x40)\n      0x08c379a000000000000000000000000000000000000000000000000000000000\n      dup2\n      mstore\n      0x04\n      add\n      tag_209\n      swap1\n      tag_180\n      jump\t// in\n    tag_209:\n      mload(0x40)\n      dup1\n      swap2\n      sub\n      swap1\n      revert\n    tag_208:\n        /* \"lastQv.sol\":6682:6708  ProposalStatus.IN_PROGRESS */\n      0x00\n        /* \"lastQv.sol\":6648:6708  getProposalStatus(_ProposalID) == ProposalStatus.IN_PROGRESS */\n      0x02\n      dup2\n      gt\n      iszero\n      tag_211\n      jumpi\n      tag_212\n      tag_187\n      jump\t// in\n    tag_212:\n    tag_211:\n        /* \"lastQv.sol\":6648:6678  getProposalStatus(_ProposalID) */\n      tag_213\n        /* \"lastQv.sol\":6666:6677  _ProposalID */\n      dup5\n        /* \"lastQv.sol\":6648:6665  getProposalStatus */\n      tag_87\n        /* \"lastQv.sol\":6648:6678  getProposalStatus(_ProposalID) */\n      jump\t// in\n    tag_213:\n        /* \"lastQv.sol\":6648:6708  getProposalStatus(_ProposalID) == ProposalStatus.IN_PROGRESS */\n      0x02\n      dup2\n      gt\n      iszero\n      tag_214\n      jumpi\n      tag_215\n      tag_187\n      jump\t// in\n    tag_215:\n    tag_214:\n      eq\n        /* \"lastQv.sol\":6626:6757  require(... */\n      tag_216\n      jumpi\n      mload(0x40)\n      0x08c379a000000000000000000000000000000000000000000000000000000000\n      dup2\n      mstore\n      0x04\n      add\n      tag_217\n      swap1\n      tag_218\n      jump\t// in\n    tag_217:\n      mload(0x40)\n      dup1\n      swap2\n      sub\n      swap1\n      revert\n    tag_216:\n        /* \"lastQv.sol\":6791:6828  userHasVoted(_ProposalID, msg.sender) */\n      tag_219\n        /* \"lastQv.sol\":6804:6815  _ProposalID */\n      dup4\n        /* \"lastQv.sol\":6817:6827  msg.sender */\n      caller\n        /* \"lastQv.sol\":6791:6803  userHasVoted */\n      tag_104\n        /* \"lastQv.sol\":6791:6828  userHasVoted(_ProposalID, msg.sender) */\n      jump\t// in\n    tag_219:\n        /* \"lastQv.sol\":6790:6828  !userHasVoted(_ProposalID, msg.sender) */\n      iszero\n        /* \"lastQv.sol\":6768:6891  require(... */\n      tag_220\n      jumpi\n      mload(0x40)\n      0x08c379a000000000000000000000000000000000000000000000000000000000\n      dup2\n      mstore\n      0x04\n      add\n      tag_221\n      swap1\n      tag_222\n      jump\t// in\n    tag_221:\n      mload(0x40)\n      dup1\n      swap2\n      sub\n      swap1\n      revert\n    tag_220:\n        /* \"lastQv.sol\":6965:6980  block.timestamp */\n      timestamp\n        /* \"lastQv.sol\":6924:6962  getProposalExpirationTime(_ProposalID) */\n      tag_223\n        /* \"lastQv.sol\":6950:6961  _ProposalID */\n      dup5\n        /* \"lastQv.sol\":6924:6949  getProposalExpirationTime */\n      tag_99\n        /* \"lastQv.sol\":6924:6962  getProposalExpirationTime(_ProposalID) */\n      jump\t// in\n    tag_223:\n        /* \"lastQv.sol\":6924:6980  getProposalExpirationTime(_ProposalID) > block.timestamp */\n      gt\n        /* \"lastQv.sol\":6902:7050  require(... */\n      tag_224\n      jumpi\n      mload(0x40)\n      0x08c379a000000000000000000000000000000000000000000000000000000000\n      dup2\n      mstore\n      0x04\n      add\n      tag_225\n      swap1\n      tag_226\n      jump\t// in\n    tag_225:\n      mload(0x40)\n      dup1\n      swap2\n      sub\n      swap1\n      revert\n    tag_224:\n        /* \"lastQv.sol\":7061:7089  Proposal storage curproposal */\n      0x00\n        /* \"lastQv.sol\":7092:7101  Proposals */\n      0x07\n        /* \"lastQv.sol\":7092:7114  Proposals[_ProposalID] */\n      0x00\n        /* \"lastQv.sol\":7102:7113  _ProposalID */\n      dup6\n        /* \"lastQv.sol\":7092:7114  Proposals[_ProposalID] */\n      dup2\n      mstore\n      0x20\n      add\n      swap1\n      dup2\n      mstore\n      0x20\n      add\n      0x00\n      keccak256\n        /* \"lastQv.sol\":7061:7114  Proposal storage curproposal = Proposals[_ProposalID] */\n      swap1\n      pop\n        /* \"lastQv.sol\":7125:7138  uint256 total */\n      0x00\n        /* \"lastQv.sol\":7158:7167  uint256 i */\n      dup1\n        /* \"lastQv.sol\":7170:7171  1 */\n      0x01\n        /* \"lastQv.sol\":7158:7171  uint256 i = 1 */\n      swap1\n      pop\n        /* \"lastQv.sol\":7153:7342  for (uint256 i = 1; i <= _tokens.length; i++) {... */\n    tag_227:\n        /* \"lastQv.sol\":7178:7185  _tokens */\n      dup5\n        /* \"lastQv.sol\":7178:7192  _tokens.length */\n      mload\n        /* \"lastQv.sol\":7173:7174  i */\n      dup2\n        /* \"lastQv.sol\":7173:7192  i <= _tokens.length */\n      gt\n        /* \"lastQv.sol\":7153:7342  for (uint256 i = 1; i <= _tokens.length; i++) {... */\n      tag_228\n      jumpi\n        /* \"lastQv.sol\":7252:7259  _tokens */\n      dup5\n        /* \"lastQv.sol\":7264:7265  1 */\n      0x01\n        /* \"lastQv.sol\":7260:7261  i */\n      dup3\n        /* \"lastQv.sol\":7260:7265  i - 1 */\n      tag_230\n      swap2\n      swap1\n      tag_231\n      jump\t// in\n    tag_230:\n        /* \"lastQv.sol\":7252:7266  _tokens[i - 1] */\n      dup2\n      mload\n      dup2\n      lt\n      tag_232\n      jumpi\n      tag_233\n      tag_234\n      jump\t// in\n    tag_233:\n    tag_232:\n      0x20\n      mul\n      0x20\n      add\n      add\n      mload\n        /* \"lastQv.sol\":7214:7225  curproposal */\n      dup4\n        /* \"lastQv.sol\":7214:7233  curproposal.options */\n      0x06\n      add\n        /* \"lastQv.sol\":7214:7236  curproposal.options[i] */\n      0x00\n        /* \"lastQv.sol\":7234:7235  i */\n      dup4\n        /* \"lastQv.sol\":7214:7236  curproposal.options[i] */\n      dup2\n      mstore\n      0x20\n      add\n      swap1\n      dup2\n      mstore\n      0x20\n      add\n      0x00\n      keccak256\n        /* \"lastQv.sol\":7214:7248  curproposal.options[i].totalWeight */\n      0x01\n      add\n      0x00\n        /* \"lastQv.sol\":7214:7266  curproposal.options[i].totalWeight += _tokens[i - 1] */\n      dup3\n      dup3\n      sload\n      tag_235\n      swap2\n      swap1\n      tag_236\n      jump\t// in\n    tag_235:\n      swap3\n      pop\n      pop\n      dup2\n      swap1\n      sstore\n      pop\n        /* \"lastQv.sol\":7315:7322  _tokens */\n      dup5\n        /* \"lastQv.sol\":7327:7328  1 */\n      0x01\n        /* \"lastQv.sol\":7323:7324  i */\n      dup3\n        /* \"lastQv.sol\":7323:7328  i - 1 */\n      tag_237\n      swap2\n      swap1\n      tag_231\n      jump\t// in\n    tag_237:\n        /* \"lastQv.sol\":7315:7329  _tokens[i - 1] */\n      dup2\n      mload\n      dup2\n      lt\n      tag_238\n      jumpi\n      tag_239\n      tag_234\n      jump\t// in\n    tag_239:\n    tag_238:\n      0x20\n      mul\n      0x20\n      add\n      add\n      mload\n        /* \"lastQv.sol\":7298:7305  _tokens */\n      dup6\n        /* \"lastQv.sol\":7310:7311  1 */\n      0x01\n        /* \"lastQv.sol\":7306:7307  i */\n      dup4\n        /* \"lastQv.sol\":7306:7311  i - 1 */\n      tag_240\n      swap2\n      swap1\n      tag_231\n      jump\t// in\n    tag_240:\n        /* \"lastQv.sol\":7298:7312  _tokens[i - 1] */\n      dup2\n      mload\n      dup2\n      lt\n      tag_241\n      jumpi\n      tag_242\n      tag_234\n      jump\t// in\n    tag_242:\n    tag_241:\n      0x20\n      mul\n      0x20\n      add\n      add\n      mload\n        /* \"lastQv.sol\":7298:7329  _tokens[i - 1] * _tokens[i - 1] */\n      tag_243\n      swap2\n      swap1\n      tag_244\n      jump\t// in\n    tag_243:\n        /* \"lastQv.sol\":7289:7294  total */\n      dup3\n        /* \"lastQv.sol\":7289:7330  total + (_tokens[i - 1] * _tokens[i - 1]) */\n      tag_245\n      swap2\n      swap1\n      tag_236\n      jump\t// in\n    tag_245:\n        /* \"lastQv.sol\":7281:7330  total = total + (_tokens[i - 1] * _tokens[i - 1]) */\n      swap2\n      pop\n        /* \"lastQv.sol\":7194:7197  i++ */\n      dup1\n      dup1\n      tag_246\n      swap1\n      tag_169\n      jump\t// in\n    tag_246:\n      swap2\n      pop\n      pop\n        /* \"lastQv.sol\":7153:7342  for (uint256 i = 1; i <= _tokens.length; i++) {... */\n      jump(tag_227)\n    tag_228:\n      pop\n        /* \"lastQv.sol\":7378:7410  _balances[msg.sender].sub(total) */\n      tag_247\n        /* \"lastQv.sol\":7404:7409  total */\n      dup2\n        /* \"lastQv.sol\":7378:7387  _balances */\n      0x05\n        /* \"lastQv.sol\":7378:7399  _balances[msg.sender] */\n      0x00\n        /* \"lastQv.sol\":7388:7398  msg.sender */\n      caller\n        /* \"lastQv.sol\":7378:7399  _balances[msg.sender] */\n      0xffffffffffffffffffffffffffffffffffffffff\n      and\n      0xffffffffffffffffffffffffffffffffffffffff\n      and\n      dup2\n      mstore\n      0x20\n      add\n      swap1\n      dup2\n      mstore\n      0x20\n      add\n      0x00\n      keccak256\n      sload\n        /* \"lastQv.sol\":7378:7403  _balances[msg.sender].sub */\n      tag_248\n      swap1\n        /* \"lastQv.sol\":7378:7410  _balances[msg.sender].sub(total) */\n      swap2\n      swap1\n      0xffffffff\n      and\n      jump\t// in\n    tag_247:\n        /* \"lastQv.sol\":7354:7363  _balances */\n      0x05\n        /* \"lastQv.sol\":7354:7375  _balances[msg.sender] */\n      0x00\n        /* \"lastQv.sol\":7364:7374  msg.sender */\n      caller\n        /* \"lastQv.sol\":7354:7375  _balances[msg.sender] */\n      0xffffffffffffffffffffffffffffffffffffffff\n      and\n      0xffffffffffffffffffffffffffffffffffffffff\n      and\n      dup2\n      mstore\n      0x20\n      add\n      swap1\n      dup2\n      mstore\n      0x20\n      add\n      0x00\n      keccak256\n        /* \"lastQv.sol\":7354:7410  _balances[msg.sender] = _balances[msg.sender].sub(total) */\n      dup2\n      swap1\n      sstore\n      pop\n        /* \"lastQv.sol\":7459:7537  Voter({... */\n      mload(0x40)\n      dup1\n      0x40\n      add\n      0x40\n      mstore\n      dup1\n        /* \"lastQv.sol\":7490:7494  true */\n      0x01\n        /* \"lastQv.sol\":7459:7537  Voter({... */\n      iszero\n      iszero\n      dup2\n      mstore\n      0x20\n      add\n        /* \"lastQv.sol\":7518:7525  _tokens */\n      dup6\n        /* \"lastQv.sol\":7459:7537  Voter({... */\n      dup2\n      mstore\n      pop\n        /* \"lastQv.sol\":7423:7434  curproposal */\n      dup3\n        /* \"lastQv.sol\":7423:7444  curproposal.voterInfo */\n      0x05\n      add\n        /* \"lastQv.sol\":7423:7456  curproposal.voterInfo[msg.sender] */\n      0x00\n        /* \"lastQv.sol\":7445:7455  msg.sender */\n      caller\n        /* \"lastQv.sol\":7423:7456  curproposal.voterInfo[msg.sender] */\n      0xffffffffffffffffffffffffffffffffffffffff\n      and\n      0xffffffffffffffffffffffffffffffffffffffff\n      and\n      dup2\n      mstore\n      0x20\n      add\n      swap1\n      dup2\n      mstore\n      0x20\n      add\n      0x00\n      keccak256\n        /* \"lastQv.sol\":7423:7537  curproposal.voterInfo[msg.sender] = Voter({... */\n      0x00\n      dup3\n      add\n      mload\n      dup2\n      0x00\n      add\n      exp(0x0100, 0x00)\n      dup2\n      sload\n      dup2\n      0xff\n      mul\n      not\n      and\n      swap1\n      dup4\n      iszero\n      iszero\n      mul\n      or\n      swap1\n      sstore\n      pop\n      0x20\n      dup3\n      add\n      mload\n      dup2\n      0x01\n      add\n      swap1\n      dup1\n      mload\n      swap1\n      0x20\n      add\n      swap1\n      tag_249\n      swap3\n      swap2\n      swap1\n      tag_250\n      jump\t// in\n    tag_249:\n      pop\n      swap1\n      pop\n      pop\n        /* \"lastQv.sol\":7550:7561  curproposal */\n      dup2\n        /* \"lastQv.sol\":7550:7568  curproposal.voters */\n      0x02\n      add\n        /* \"lastQv.sol\":7574:7584  msg.sender */\n      caller\n        /* \"lastQv.sol\":7550:7585  curproposal.voters.push(msg.sender) */\n      swap1\n      dup1\n      0x01\n      dup2\n      sload\n      add\n      dup1\n      dup3\n      sstore\n      dup1\n      swap2\n      pop\n      pop\n      0x01\n      swap1\n      sub\n      swap1\n      0x00\n      mstore\n      keccak256(0x00, 0x20)\n      add\n      0x00\n      swap1\n      swap2\n      swap1\n      swap2\n      swap1\n      swap2\n      0x0100\n      exp\n      dup2\n      sload\n      dup2\n      0xffffffffffffffffffffffffffffffffffffffff\n      mul\n      not\n      and\n      swap1\n      dup4\n      0xffffffffffffffffffffffffffffffffffffffff\n      and\n      mul\n      or\n      swap1\n      sstore\n      pop\n        /* \"lastQv.sol\":7603:7647  VoteCasted(msg.sender, _ProposalID, _tokens) */\n      0x73ab51df610edc81f5551eeb367d093666ac5ba1f45288102ff95f0db861724a\n        /* \"lastQv.sol\":7614:7624  msg.sender */\n      caller\n        /* \"lastQv.sol\":7626:7637  _ProposalID */\n      dup7\n        /* \"lastQv.sol\":7639:7646  _tokens */\n      dup7\n        /* \"lastQv.sol\":7603:7647  VoteCasted(msg.sender, _ProposalID, _tokens) */\n      mload(0x40)\n      tag_252\n      swap4\n      swap3\n      swap2\n      swap1\n      tag_253\n      jump\t// in\n    tag_252:\n      mload(0x40)\n      dup1\n      swap2\n      sub\n      swap1\n      log1\n        /* \"lastQv.sol\":6615:7655  {... */\n      pop\n      pop\n        /* \"lastQv.sol\":6491:7655  function castVote(uint256 _ProposalID, uint256[] memory _tokens)... */\n      pop\n      pop\n      pop\n      jump\t// out\n        /* \"@openzeppelin/contracts/access/AccessControl.sol\":5925:6139  function renounceRole(bytes32 role, address account) public virtual override {... */\n    tag_79:\n        /* \"@openzeppelin/contracts/access/AccessControl.sol\":6031:6043  _msgSender() */\n      tag_255\n        /* \"@openzeppelin/contracts/access/AccessControl.sol\":6031:6041  _msgSender */\n      tag_256\n        /* \"@openzeppelin/contracts/access/AccessControl.sol\":6031:6043  _msgSender() */\n      jump\t// in\n    tag_255:\n        /* \"@openzeppelin/contracts/access/AccessControl.sol\":6020:6043  account == _msgSender() */\n      0xffffffffffffffffffffffffffffffffffffffff\n      and\n        /* \"@openzeppelin/contracts/access/AccessControl.sol\":6020:6027  account */\n      dup2\n        /* \"@openzeppelin/contracts/access/AccessControl.sol\":6020:6043  account == _msgSender() */\n      0xffffffffffffffffffffffffffffffffffffffff\n      and\n      eq\n        /* \"@openzeppelin/contracts/access/AccessControl.sol\":6012:6095  require(account == _msgSender(), \"AccessControl: can only renounce roles for self\") */\n      tag_257\n      jumpi\n      mload(0x40)\n      0x08c379a000000000000000000000000000000000000000000000000000000000\n      dup2\n      mstore\n      0x04\n      add\n      tag_258\n      swap1\n      tag_259\n      jump\t// in\n    tag_258:\n      mload(0x40)\n      dup1\n      swap2\n      sub\n      swap1\n      revert\n    tag_257:\n        /* \"@openzeppelin/contracts/access/AccessControl.sol\":6106:6132  _revokeRole(role, account) */\n      tag_260\n        /* \"@openzeppelin/contracts/access/AccessControl.sol\":6118:6122  role */\n      dup3\n        /* \"@openzeppelin/contracts/access/AccessControl.sol\":6124:6131  account */\n      dup3\n        /* \"@openzeppelin/contracts/access/AccessControl.sol\":6106:6117  _revokeRole */\n      tag_261\n        /* \"@openzeppelin/contracts/access/AccessControl.sol\":6106:6132  _revokeRole(role, account) */\n      jump\t// in\n    tag_260:\n        /* \"@openzeppelin/contracts/access/AccessControl.sol\":5925:6139  function renounceRole(bytes32 role, address account) public virtual override {... */\n      pop\n      pop\n      jump\t// out\n        /* \"lastQv.sol\":1641:2742  function createProposal(... */\n    tag_83:\n        /* \"lastQv.sol\":1814:1821  uint256 */\n      0x00\n        /* \"@openzeppelin/contracts/access/Ownable.sol\":1094:1107  _checkOwner() */\n      tag_263\n        /* \"@openzeppelin/contracts/access/Ownable.sol\":1094:1105  _checkOwner */\n      tag_183\n        /* \"@openzeppelin/contracts/access/Ownable.sol\":1094:1107  _checkOwner() */\n      jump\t// in\n    tag_263:\n        /* \"lastQv.sol\":1864:1865  0 */\n      0x00\n        /* \"lastQv.sol\":1842:1861  _voteExpirationTime */\n      dup3\n        /* \"lastQv.sol\":1842:1865  _voteExpirationTime > 0 */\n      gt\n        /* \"lastQv.sol\":1834:1899  require(_voteExpirationTime > 0, \"The voting period cannot be 0\") */\n      tag_265\n      jumpi\n      mload(0x40)\n      0x08c379a000000000000000000000000000000000000000000000000000000000\n      dup2\n      mstore\n      0x04\n      add\n      tag_266\n      swap1\n      tag_267\n      jump\t// in\n    tag_266:\n      mload(0x40)\n      dup1\n      swap2\n      sub\n      swap1\n      revert\n    tag_265:\n        /* \"lastQv.sol\":1910:1923  ProposalCount */\n      0x06\n      0x00\n        /* \"lastQv.sol\":1910:1925  ProposalCount++ */\n      dup2\n      sload\n      dup1\n      swap3\n      swap2\n      swap1\n      tag_268\n      swap1\n      tag_169\n      jump\t// in\n    tag_268:\n      swap2\n      swap1\n      pop\n      sstore\n      pop\n        /* \"lastQv.sol\":1936:1964  Proposal storage curProposal */\n      0x00\n        /* \"lastQv.sol\":1967:1976  Proposals */\n      0x07\n        /* \"lastQv.sol\":1967:1991  Proposals[ProposalCount] */\n      0x00\n        /* \"lastQv.sol\":1977:1990  ProposalCount */\n      sload(0x06)\n        /* \"lastQv.sol\":1967:1991  Proposals[ProposalCount] */\n      dup2\n      mstore\n      0x20\n      add\n      swap1\n      dup2\n      mstore\n      0x20\n      add\n      0x00\n      keccak256\n        /* \"lastQv.sol\":1936:1991  Proposal storage curProposal = Proposals[ProposalCount] */\n      swap1\n      pop\n        /* \"lastQv.sol\":2024:2034  msg.sender */\n      caller\n        /* \"lastQv.sol\":2002:2013  curProposal */\n      dup2\n        /* \"lastQv.sol\":2002:2021  curProposal.creator */\n      0x00\n      add\n      0x00\n        /* \"lastQv.sol\":2002:2034  curProposal.creator = msg.sender */\n      0x0100\n      exp\n      dup2\n      sload\n      dup2\n      0xffffffffffffffffffffffffffffffffffffffff\n      mul\n      not\n      and\n      swap1\n      dup4\n      0xffffffffffffffffffffffffffffffffffffffff\n      and\n      mul\n      or\n      swap1\n      sstore\n      pop\n        /* \"lastQv.sol\":2066:2092  ProposalStatus.IN_PROGRESS */\n      0x00\n        /* \"lastQv.sol\":2045:2056  curProposal */\n      dup2\n        /* \"lastQv.sol\":2045:2063  curProposal.status */\n      0x00\n      add\n      0x14\n        /* \"lastQv.sol\":2045:2092  curProposal.status = ProposalStatus.IN_PROGRESS */\n      0x0100\n      exp\n      dup2\n      sload\n      dup2\n      0xff\n      mul\n      not\n      and\n      swap1\n      dup4\n      0x02\n      dup2\n      gt\n      iszero\n      tag_269\n      jumpi\n      tag_270\n      tag_187\n      jump\t// in\n    tag_270:\n    tag_269:\n      mul\n      or\n      swap1\n      sstore\n      pop\n        /* \"lastQv.sol\":2229:2238  1 seconds */\n      0x01\n        /* \"lastQv.sol\":2194:2213  _voteExpirationTime */\n      dup4\n        /* \"lastQv.sol\":2176:2178  60 */\n      0x3c\n        /* \"lastQv.sol\":2176:2213  60 *... */\n      tag_271\n      swap2\n      swap1\n      tag_244\n      jump\t// in\n    tag_271:\n        /* \"lastQv.sol\":2176:2238  60 *... */\n      tag_272\n      swap2\n      swap1\n      tag_244\n      jump\t// in\n    tag_272:\n        /* \"lastQv.sol\":2145:2160  block.timestamp */\n      timestamp\n        /* \"lastQv.sol\":2145:2238  block.timestamp +... */\n      tag_273\n      swap2\n      swap1\n      tag_236\n      jump\t// in\n    tag_273:\n        /* \"lastQv.sol\":2103:2114  curProposal */\n      dup2\n        /* \"lastQv.sol\":2103:2129  curProposal.expirationTime */\n      0x03\n      add\n        /* \"lastQv.sol\":2103:2238  curProposal.expirationTime =... */\n      dup2\n      swap1\n      sstore\n      pop\n        /* \"lastQv.sol\":2275:2287  _description */\n      dup7\n      dup7\n        /* \"lastQv.sol\":2249:2260  curProposal */\n      dup3\n        /* \"lastQv.sol\":2249:2272  curProposal.description */\n      0x01\n      add\n        /* \"lastQv.sol\":2249:2287  curProposal.description = _description */\n      swap2\n      dup3\n      tag_274\n      swap3\n      swap2\n      swap1\n      tag_275\n      jump\t// in\n    tag_274:\n      pop\n        /* \"lastQv.sol\":2325:2333  _options */\n      dup5\n      dup5\n        /* \"lastQv.sol\":2325:2340  _options.length */\n      swap1\n      pop\n        /* \"lastQv.sol\":2298:2309  curProposal */\n      dup2\n        /* \"lastQv.sol\":2298:2322  curProposal.numOfOptions */\n      0x04\n      add\n        /* \"lastQv.sol\":2298:2340  curProposal.numOfOptions = _options.length */\n      dup2\n      swap1\n      sstore\n      pop\n        /* \"lastQv.sol\":2356:2365  uint256 i */\n      0x00\n        /* \"lastQv.sol\":2351:2551  for (uint256 i = 0; i < _options.length; i++) {... */\n    tag_276:\n        /* \"lastQv.sol\":2375:2383  _options */\n      dup6\n      dup6\n        /* \"lastQv.sol\":2375:2390  _options.length */\n      swap1\n      pop\n        /* \"lastQv.sol\":2371:2372  i */\n      dup2\n        /* \"lastQv.sol\":2371:2390  i < _options.length */\n      lt\n        /* \"lastQv.sol\":2351:2551  for (uint256 i = 0; i < _options.length; i++) {... */\n      iszero\n      tag_277\n      jumpi\n        /* \"lastQv.sol\":2441:2539  option({... */\n      mload(0x40)\n      dup1\n      0x40\n      add\n      0x40\n      mstore\n      dup1\n        /* \"lastQv.sol\":2479:2487  _options */\n      dup8\n      dup8\n        /* \"lastQv.sol\":2488:2489  i */\n      dup5\n        /* \"lastQv.sol\":2479:2490  _options[i] */\n      dup2\n      dup2\n      lt\n      tag_279\n      jumpi\n      tag_280\n      tag_234\n      jump\t// in\n    tag_280:\n    tag_279:\n      swap1\n      pop\n      0x20\n      mul\n      dup2\n      add\n      swap1\n      tag_281\n      swap2\n      swap1\n      tag_282\n      jump\t// in\n    tag_281:\n        /* \"lastQv.sol\":2441:2539  option({... */\n      dup1\n      dup1\n      0x1f\n      add\n      0x20\n      dup1\n      swap2\n      div\n      mul\n      0x20\n      add\n      mload(0x40)\n      swap1\n      dup2\n      add\n      0x40\n      mstore\n      dup1\n      swap4\n      swap3\n      swap2\n      swap1\n      dup2\n      dup2\n      mstore\n      0x20\n      add\n      dup4\n      dup4\n      dup1\n      dup3\n      dup5\n      calldatacopy\n      0x00\n      dup2\n      dup5\n      add\n      mstore\n      not(0x1f)\n      0x1f\n      dup3\n      add\n      and\n      swap1\n      pop\n      dup1\n      dup4\n      add\n      swap3\n      pop\n      pop\n      pop\n      pop\n      pop\n      pop\n      pop\n      dup2\n      mstore\n      0x20\n      add\n        /* \"lastQv.sol\":2522:2523  0 */\n      0x00\n        /* \"lastQv.sol\":2441:2539  option({... */\n      dup2\n      mstore\n      pop\n        /* \"lastQv.sol\":2412:2423  curProposal */\n      dup3\n        /* \"lastQv.sol\":2412:2431  curProposal.options */\n      0x06\n      add\n        /* \"lastQv.sol\":2412:2438  curProposal.options[i + 1] */\n      0x00\n        /* \"lastQv.sol\":2436:2437  1 */\n      0x01\n        /* \"lastQv.sol\":2432:2433  i */\n      dup5\n        /* \"lastQv.sol\":2432:2437  i + 1 */\n      tag_283\n      swap2\n      swap1\n      tag_236\n      jump\t// in\n    tag_283:\n        /* \"lastQv.sol\":2412:2438  curProposal.options[i + 1] */\n      dup2\n      mstore\n      0x20\n      add\n      swap1\n      dup2\n      mstore\n      0x20\n      add\n      0x00\n      keccak256\n        /* \"lastQv.sol\":2412:2539  curProposal.options[i + 1] = option({... */\n      0x00\n      dup3\n      add\n      mload\n      dup2\n      0x00\n      add\n      swap1\n      dup2\n      tag_284\n      swap2\n      swap1\n      tag_285\n      jump\t// in\n    tag_284:\n      pop\n      0x20\n      dup3\n      add\n      mload\n      dup2\n      0x01\n      add\n      sstore\n      swap1\n      pop\n      pop\n        /* \"lastQv.sol\":2392:2395  i++ */\n      dup1\n      dup1\n      tag_286\n      swap1\n      tag_169\n      jump\t// in\n    tag_286:\n      swap2\n      pop\n      pop\n        /* \"lastQv.sol\":2351:2551  for (uint256 i = 0; i < _options.length; i++) {... */\n      jump(tag_276)\n    tag_277:\n      pop\n        /* \"lastQv.sol\":2568:2703  ProposalCreated(... */\n      0x812b79dc980087562a07c042555f014502c51aac180824c0546a12989f726b59\n        /* \"lastQv.sol\":2598:2608  msg.sender */\n      caller\n        /* \"lastQv.sol\":2623:2635  _description */\n      dup9\n      dup9\n        /* \"lastQv.sol\":2650:2658  _options */\n      dup9\n      dup9\n        /* \"lastQv.sol\":2673:2692  _voteExpirationTime */\n      dup9\n        /* \"lastQv.sol\":2568:2703  ProposalCreated(... */\n      mload(0x40)\n      tag_287\n      swap7\n      swap6\n      swap5\n      swap4\n      swap3\n      swap2\n      swap1\n      tag_288\n      jump\t// in\n    tag_287:\n      mload(0x40)\n      dup1\n      swap2\n      sub\n      swap1\n      log1\n        /* \"lastQv.sol\":2721:2734  ProposalCount */\n      sload(0x06)\n        /* \"lastQv.sol\":2714:2734  return ProposalCount */\n      swap2\n      pop\n      pop\n        /* \"lastQv.sol\":1641:2742  function createProposal(... */\n      swap6\n      swap5\n      pop\n      pop\n      pop\n      pop\n      pop\n      jump\t// out\n        /* \"lastQv.sol\":4551:4759  function getProposalStatus(uint256 _ProposalID)... */\n    tag_87:\n        /* \"lastQv.sol\":4683:4697  ProposalStatus */\n      0x00\n        /* \"lastQv.sol\":4652:4663  _ProposalID */\n      dup2\n        /* \"lastQv.sol\":5083:5084  0 */\n      0x00\n        /* \"lastQv.sol\":5069:5080  _ProposalID */\n      dup2\n        /* \"lastQv.sol\":5069:5084  _ProposalID > 0 */\n      gt\n        /* \"lastQv.sol\":5069:5116  _ProposalID > 0 && _ProposalID <= ProposalCount */\n      dup1\n      iszero\n      tag_290\n      jumpi\n      pop\n        /* \"lastQv.sol\":5103:5116  ProposalCount */\n      sload(0x06)\n        /* \"lastQv.sol\":5088:5099  _ProposalID */\n      dup2\n        /* \"lastQv.sol\":5088:5116  _ProposalID <= ProposalCount */\n      gt\n      iszero\n        /* \"lastQv.sol\":5069:5116  _ProposalID > 0 && _ProposalID <= ProposalCount */\n    tag_290:\n        /* \"lastQv.sol\":5047:5167  require(... */\n      tag_291\n      jumpi\n      mload(0x40)\n      0x08c379a000000000000000000000000000000000000000000000000000000000\n      dup2\n      mstore\n      0x04\n      add\n      tag_292\n      swap1\n      tag_180\n      jump\t// in\n    tag_292:\n      mload(0x40)\n      dup1\n      swap2\n      sub\n      swap1\n      revert\n    tag_291:\n        /* \"lastQv.sol\":4722:4731  Proposals */\n      0x07\n        /* \"lastQv.sol\":4722:4744  Proposals[_ProposalID] */\n      0x00\n        /* \"lastQv.sol\":4732:4743  _ProposalID */\n      dup5\n        /* \"lastQv.sol\":4722:4744  Proposals[_ProposalID] */\n      dup2\n      mstore\n      0x20\n      add\n      swap1\n      dup2\n      mstore\n      0x20\n      add\n      0x00\n      keccak256\n        /* \"lastQv.sol\":4722:4751  Proposals[_ProposalID].status */\n      0x00\n      add\n      0x14\n      swap1\n      sload\n      swap1\n      0x0100\n      exp\n      swap1\n      div\n      0xff\n      and\n        /* \"lastQv.sol\":4715:4751  return Proposals[_ProposalID].status */\n      swap2\n      pop\n        /* \"lastQv.sol\":4551:4759  function getProposalStatus(uint256 _ProposalID)... */\n      pop\n      swap2\n      swap1\n      pop\n      jump\t// out\n        /* \"lastQv.sol\":7944:8198  function mint(address account, uint256 amount) public onlyOwner {... */\n    tag_93:\n        /* \"@openzeppelin/contracts/access/Ownable.sol\":1094:1107  _checkOwner() */\n      tag_295\n        /* \"@openzeppelin/contracts/access/Ownable.sol\":1094:1105  _checkOwner */\n      tag_183\n        /* \"@openzeppelin/contracts/access/Ownable.sol\":1094:1107  _checkOwner() */\n      jump\t// in\n    tag_295:\n        /* \"lastQv.sol\":8046:8047  0 */\n      0x00\n        /* \"lastQv.sol\":8027:8048  account != address(0) */\n      0xffffffffffffffffffffffffffffffffffffffff\n      and\n        /* \"lastQv.sol\":8027:8034  account */\n      dup3\n        /* \"lastQv.sol\":8027:8048  account != address(0) */\n      0xffffffffffffffffffffffffffffffffffffffff\n      and\n      sub\n        /* \"lastQv.sol\":8019:8078  require(account != address(0), \" mint to the zero address\") */\n      tag_297\n      jumpi\n      mload(0x40)\n      0x08c379a000000000000000000000000000000000000000000000000000000000\n      dup2\n      mstore\n      0x04\n      add\n      tag_298\n      swap1\n      tag_299\n      jump\t// in\n    tag_298:\n      mload(0x40)\n      dup1\n      swap2\n      sub\n      swap1\n      revert\n    tag_297:\n        /* \"lastQv.sol\":8104:8128  _totalSupply.add(amount) */\n      tag_300\n        /* \"lastQv.sol\":8121:8127  amount */\n      dup2\n        /* \"lastQv.sol\":8104:8116  _totalSupply */\n      sload(0x02)\n        /* \"lastQv.sol\":8104:8120  _totalSupply.add */\n      tag_301\n      swap1\n        /* \"lastQv.sol\":8104:8128  _totalSupply.add(amount) */\n      swap2\n      swap1\n      0xffffffff\n      and\n      jump\t// in\n    tag_300:\n        /* \"lastQv.sol\":8089:8101  _totalSupply */\n      0x02\n        /* \"lastQv.sol\":8089:8128  _totalSupply = _totalSupply.add(amount) */\n      dup2\n      swap1\n      sstore\n      pop\n        /* \"lastQv.sol\":8160:8190  _balances[account].add(amount) */\n      tag_302\n        /* \"lastQv.sol\":8183:8189  amount */\n      dup2\n        /* \"lastQv.sol\":8160:8169  _balances */\n      0x05\n        /* \"lastQv.sol\":8160:8178  _balances[account] */\n      0x00\n        /* \"lastQv.sol\":8170:8177  account */\n      dup6\n        /* \"lastQv.sol\":8160:8178  _balances[account] */\n      0xffffffffffffffffffffffffffffffffffffffff\n      and\n      0xffffffffffffffffffffffffffffffffffffffff\n      and\n      dup2\n      mstore\n      0x20\n      add\n      swap1\n      dup2\n      mstore\n      0x20\n      add\n      0x00\n      keccak256\n      sload\n        /* \"lastQv.sol\":8160:8182  _balances[account].add */\n      tag_301\n      swap1\n        /* \"lastQv.sol\":8160:8190  _balances[account].add(amount) */\n      swap2\n      swap1\n      0xffffffff\n      and\n      jump\t// in\n    tag_302:\n        /* \"lastQv.sol\":8139:8148  _balances */\n      0x05\n        /* \"lastQv.sol\":8139:8157  _balances[account] */\n      0x00\n        /* \"lastQv.sol\":8149:8156  account */\n      dup5\n        /* \"lastQv.sol\":8139:8157  _balances[account] */\n      0xffffffffffffffffffffffffffffffffffffffff\n      and\n      0xffffffffffffffffffffffffffffffffffffffff\n      and\n      dup2\n      mstore\n      0x20\n      add\n      swap1\n      dup2\n      mstore\n      0x20\n      add\n      0x00\n      keccak256\n        /* \"lastQv.sol\":8139:8190  _balances[account] = _balances[account].add(amount) */\n      dup2\n      swap1\n      sstore\n      pop\n        /* \"lastQv.sol\":7944:8198  function mint(address account, uint256 amount) public onlyOwner {... */\n      pop\n      pop\n      jump\t// out\n        /* \"lastQv.sol\":4057:4543  function setProposalToEnded(uint256 _ProposalID)... */\n    tag_96:\n        /* \"lastQv.sol\":4147:4158  _ProposalID */\n      dup1\n        /* \"lastQv.sol\":5083:5084  0 */\n      0x00\n        /* \"lastQv.sol\":5069:5080  _ProposalID */\n      dup2\n        /* \"lastQv.sol\":5069:5084  _ProposalID > 0 */\n      gt\n        /* \"lastQv.sol\":5069:5116  _ProposalID > 0 && _ProposalID <= ProposalCount */\n      dup1\n      iszero\n      tag_304\n      jumpi\n      pop\n        /* \"lastQv.sol\":5103:5116  ProposalCount */\n      sload(0x06)\n        /* \"lastQv.sol\":5088:5099  _ProposalID */\n      dup2\n        /* \"lastQv.sol\":5088:5116  _ProposalID <= ProposalCount */\n      gt\n      iszero\n        /* \"lastQv.sol\":5069:5116  _ProposalID > 0 && _ProposalID <= ProposalCount */\n    tag_304:\n        /* \"lastQv.sol\":5047:5167  require(... */\n      tag_305\n      jumpi\n      mload(0x40)\n      0x08c379a000000000000000000000000000000000000000000000000000000000\n      dup2\n      mstore\n      0x04\n      add\n      tag_306\n      swap1\n      tag_180\n      jump\t// in\n    tag_306:\n      mload(0x40)\n      dup1\n      swap2\n      sub\n      swap1\n      revert\n    tag_305:\n        /* \"@openzeppelin/contracts/access/Ownable.sol\":1094:1107  _checkOwner() */\n      tag_308\n        /* \"@openzeppelin/contracts/access/Ownable.sol\":1094:1105  _checkOwner */\n      tag_183\n        /* \"@openzeppelin/contracts/access/Ownable.sol\":1094:1107  _checkOwner() */\n      jump\t// in\n    tag_308:\n        /* \"lastQv.sol\":4250:4270  ProposalStatus.TALLY */\n      0x01\n        /* \"lastQv.sol\":4217:4270  Proposals[_ProposalID].status == ProposalStatus.TALLY */\n      0x02\n      dup2\n      gt\n      iszero\n      tag_310\n      jumpi\n      tag_311\n      tag_187\n      jump\t// in\n    tag_311:\n    tag_310:\n        /* \"lastQv.sol\":4217:4226  Proposals */\n      0x07\n        /* \"lastQv.sol\":4217:4239  Proposals[_ProposalID] */\n      0x00\n        /* \"lastQv.sol\":4227:4238  _ProposalID */\n      dup5\n        /* \"lastQv.sol\":4217:4239  Proposals[_ProposalID] */\n      dup2\n      mstore\n      0x20\n      add\n      swap1\n      dup2\n      mstore\n      0x20\n      add\n      0x00\n      keccak256\n        /* \"lastQv.sol\":4217:4246  Proposals[_ProposalID].status */\n      0x00\n      add\n      0x14\n      swap1\n      sload\n      swap1\n      0x0100\n      exp\n      swap1\n      div\n      0xff\n      and\n        /* \"lastQv.sol\":4217:4270  Proposals[_ProposalID].status == ProposalStatus.TALLY */\n      0x02\n      dup2\n      gt\n      iszero\n      tag_312\n      jumpi\n      tag_313\n      tag_187\n      jump\t// in\n    tag_313:\n    tag_312:\n      eq\n        /* \"lastQv.sol\":4195:4325  require(... */\n      tag_314\n      jumpi\n      mload(0x40)\n      0x08c379a000000000000000000000000000000000000000000000000000000000\n      dup2\n      mstore\n      0x04\n      add\n      tag_315\n      swap1\n      tag_316\n      jump\t// in\n    tag_315:\n      mload(0x40)\n      dup1\n      swap2\n      sub\n      swap1\n      revert\n    tag_314:\n        /* \"lastQv.sol\":4377:4415  getProposalExpirationTime(_ProposalID) */\n      tag_317\n        /* \"lastQv.sol\":4403:4414  _ProposalID */\n      dup3\n        /* \"lastQv.sol\":4377:4402  getProposalExpirationTime */\n      tag_99\n        /* \"lastQv.sol\":4377:4415  getProposalExpirationTime(_ProposalID) */\n      jump\t// in\n    tag_317:\n        /* \"lastQv.sol\":4358:4373  block.timestamp */\n      timestamp\n        /* \"lastQv.sol\":4358:4415  block.timestamp >= getProposalExpirationTime(_ProposalID) */\n      lt\n      iszero\n        /* \"lastQv.sol\":4336:4472  require(... */\n      tag_318\n      jumpi\n      mload(0x40)\n      0x08c379a000000000000000000000000000000000000000000000000000000000\n      dup2\n      mstore\n      0x04\n      add\n      tag_319\n      swap1\n      tag_196\n      jump\t// in\n    tag_319:\n      mload(0x40)\n      dup1\n      swap2\n      sub\n      swap1\n      revert\n    tag_318:\n        /* \"lastQv.sol\":4515:4535  ProposalStatus.ENDED */\n      0x02\n        /* \"lastQv.sol\":4483:4492  Proposals */\n      0x07\n        /* \"lastQv.sol\":4483:4505  Proposals[_ProposalID] */\n      0x00\n        /* \"lastQv.sol\":4493:4504  _ProposalID */\n      dup5\n        /* \"lastQv.sol\":4483:4505  Proposals[_ProposalID] */\n      dup2\n      mstore\n      0x20\n      add\n      swap1\n      dup2\n      mstore\n      0x20\n      add\n      0x00\n      keccak256\n        /* \"lastQv.sol\":4483:4512  Proposals[_ProposalID].status */\n      0x00\n      add\n      0x14\n        /* \"lastQv.sol\":4483:4535  Proposals[_ProposalID].status = ProposalStatus.ENDED */\n      0x0100\n      exp\n      dup2\n      sload\n      dup2\n      0xff\n      mul\n      not\n      and\n      swap1\n      dup4\n      0x02\n      dup2\n      gt\n      iszero\n      tag_320\n      jumpi\n      tag_321\n      tag_187\n      jump\t// in\n    tag_321:\n    tag_320:\n      mul\n      or\n      swap1\n      sstore\n      pop\n        /* \"lastQv.sol\":4057:4543  function setProposalToEnded(uint256 _ProposalID)... */\n      pop\n      pop\n      jump\t// out\n        /* \"lastQv.sol\":4767:4984  function getProposalExpirationTime(uint256 _ProposalID)... */\n    tag_99:\n        /* \"lastQv.sol\":4907:4914  uint256 */\n      0x00\n        /* \"lastQv.sol\":4876:4887  _ProposalID */\n      dup2\n        /* \"lastQv.sol\":5083:5084  0 */\n      0x00\n        /* \"lastQv.sol\":5069:5080  _ProposalID */\n      dup2\n        /* \"lastQv.sol\":5069:5084  _ProposalID > 0 */\n      gt\n        /* \"lastQv.sol\":5069:5116  _ProposalID > 0 && _ProposalID <= ProposalCount */\n      dup1\n      iszero\n      tag_323\n      jumpi\n      pop\n        /* \"lastQv.sol\":5103:5116  ProposalCount */\n      sload(0x06)\n        /* \"lastQv.sol\":5088:5099  _ProposalID */\n      dup2\n        /* \"lastQv.sol\":5088:5116  _ProposalID <= ProposalCount */\n      gt\n      iszero\n        /* \"lastQv.sol\":5069:5116  _ProposalID > 0 && _ProposalID <= ProposalCount */\n    tag_323:\n        /* \"lastQv.sol\":5047:5167  require(... */\n      tag_324\n      jumpi\n      mload(0x40)\n      0x08c379a000000000000000000000000000000000000000000000000000000000\n      dup2\n      mstore\n      0x04\n      add\n      tag_325\n      swap1\n      tag_180\n      jump\t// in\n    tag_325:\n      mload(0x40)\n      dup1\n      swap2\n      sub\n      swap1\n      revert\n    tag_324:\n        /* \"lastQv.sol\":4939:4948  Proposals */\n      0x07\n        /* \"lastQv.sol\":4939:4961  Proposals[_ProposalID] */\n      0x00\n        /* \"lastQv.sol\":4949:4960  _ProposalID */\n      dup5\n        /* \"lastQv.sol\":4939:4961  Proposals[_ProposalID] */\n      dup2\n      mstore\n      0x20\n      add\n      swap1\n      dup2\n      mstore\n      0x20\n      add\n      0x00\n      keccak256\n        /* \"lastQv.sol\":4939:4976  Proposals[_ProposalID].expirationTime */\n      0x03\n      add\n      sload\n        /* \"lastQv.sol\":4932:4976  return Proposals[_ProposalID].expirationTime */\n      swap2\n      pop\n        /* \"lastQv.sol\":4767:4984  function getProposalExpirationTime(uint256 _ProposalID)... */\n      pop\n      swap2\n      swap1\n      pop\n      jump\t// out\n        /* \"lastQv.sol\":5195:5424  function userHasVoted(uint256 _ProposalID, address _user)... */\n    tag_104:\n        /* \"lastQv.sol\":5337:5341  bool */\n      0x00\n        /* \"lastQv.sol\":5306:5317  _ProposalID */\n      dup3\n        /* \"lastQv.sol\":5083:5084  0 */\n      0x00\n        /* \"lastQv.sol\":5069:5080  _ProposalID */\n      dup2\n        /* \"lastQv.sol\":5069:5084  _ProposalID > 0 */\n      gt\n        /* \"lastQv.sol\":5069:5116  _ProposalID > 0 && _ProposalID <= ProposalCount */\n      dup1\n      iszero\n      tag_328\n      jumpi\n      pop\n        /* \"lastQv.sol\":5103:5116  ProposalCount */\n      sload(0x06)\n        /* \"lastQv.sol\":5088:5099  _ProposalID */\n      dup2\n        /* \"lastQv.sol\":5088:5116  _ProposalID <= ProposalCount */\n      gt\n      iszero\n        /* \"lastQv.sol\":5069:5116  _ProposalID > 0 && _ProposalID <= ProposalCount */\n    tag_328:\n        /* \"lastQv.sol\":5047:5167  require(... */\n      tag_329\n      jumpi\n      mload(0x40)\n      0x08c379a000000000000000000000000000000000000000000000000000000000\n      dup2\n      mstore\n      0x04\n      add\n      tag_330\n      swap1\n      tag_180\n      jump\t// in\n    tag_330:\n      mload(0x40)\n      dup1\n      swap2\n      sub\n      swap1\n      revert\n    tag_329:\n        /* \"lastQv.sol\":5367:5376  Proposals */\n      0x07\n        /* \"lastQv.sol\":5367:5389  Proposals[_ProposalID] */\n      0x00\n        /* \"lastQv.sol\":5377:5388  _ProposalID */\n      dup6\n        /* \"lastQv.sol\":5367:5389  Proposals[_ProposalID] */\n      dup2\n      mstore\n      0x20\n      add\n      swap1\n      dup2\n      mstore\n      0x20\n      add\n      0x00\n      keccak256\n        /* \"lastQv.sol\":5367:5399  Proposals[_ProposalID].voterInfo */\n      0x05\n      add\n        /* \"lastQv.sol\":5367:5406  Proposals[_ProposalID].voterInfo[_user] */\n      0x00\n        /* \"lastQv.sol\":5400:5405  _user */\n      dup5\n        /* \"lastQv.sol\":5367:5406  Proposals[_ProposalID].voterInfo[_user] */\n      0xffffffffffffffffffffffffffffffffffffffff\n      and\n      0xffffffffffffffffffffffffffffffffffffffff\n      and\n      dup2\n      mstore\n      0x20\n      add\n      swap1\n      dup2\n      mstore\n      0x20\n      add\n      0x00\n      keccak256\n        /* \"lastQv.sol\":5367:5415  Proposals[_ProposalID].voterInfo[_user].hasVoted */\n      0x00\n      add\n      0x00\n      swap1\n      sload\n      swap1\n      0x0100\n      exp\n      swap1\n      div\n      0xff\n      and\n        /* \"lastQv.sol\":5359:5416  return (Proposals[_ProposalID].voterInfo[_user].hasVoted) */\n      swap2\n      pop\n        /* \"lastQv.sol\":5195:5424  function userHasVoted(uint256 _ProposalID, address _user)... */\n      pop\n      swap3\n      swap2\n      pop\n      pop\n      jump\t// out\n        /* \"lastQv.sol\":8271:8381  function balanceOf(address account) public view returns (uint256) {... */\n    tag_109:\n        /* \"lastQv.sol\":8328:8335  uint256 */\n      0x00\n        /* \"lastQv.sol\":8355:8364  _balances */\n      0x05\n        /* \"lastQv.sol\":8355:8373  _balances[account] */\n      0x00\n        /* \"lastQv.sol\":8365:8372  account */\n      dup4\n        /* \"lastQv.sol\":8355:8373  _balances[account] */\n      0xffffffffffffffffffffffffffffffffffffffff\n      and\n      0xffffffffffffffffffffffffffffffffffffffff\n      and\n      dup2\n      mstore\n      0x20\n      add\n      swap1\n      dup2\n      mstore\n      0x20\n      add\n      0x00\n      keccak256\n      sload\n        /* \"lastQv.sol\":8348:8373  return _balances[account] */\n      swap1\n      pop\n        /* \"lastQv.sol\":8271:8381  function balanceOf(address account) public view returns (uint256) {... */\n      swap2\n      swap1\n      pop\n      jump\t// out\n        /* \"@openzeppelin/contracts/access/Ownable.sol\":1831:1932  function renounceOwnership() public virtual onlyOwner {... */\n    tag_112:\n        /* \"@openzeppelin/contracts/access/Ownable.sol\":1094:1107  _checkOwner() */\n      tag_334\n        /* \"@openzeppelin/contracts/access/Ownable.sol\":1094:1105  _checkOwner */\n      tag_183\n        /* \"@openzeppelin/contracts/access/Ownable.sol\":1094:1107  _checkOwner() */\n      jump\t// in\n    tag_334:\n        /* \"@openzeppelin/contracts/access/Ownable.sol\":1895:1925  _transferOwnership(address(0)) */\n      tag_336\n        /* \"@openzeppelin/contracts/access/Ownable.sol\":1922:1923  0 */\n      0x00\n        /* \"@openzeppelin/contracts/access/Ownable.sol\":1895:1913  _transferOwnership */\n      tag_337\n        /* \"@openzeppelin/contracts/access/Ownable.sol\":1895:1925  _transferOwnership(address(0)) */\n      jump\t// in\n    tag_336:\n        /* \"@openzeppelin/contracts/access/Ownable.sol\":1831:1932  function renounceOwnership() public virtual onlyOwner {... */\n      jump\t// out\n        /* \"@openzeppelin/contracts/access/Ownable.sol\":1201:1286  function owner() public view virtual returns (address) {... */\n    tag_114:\n        /* \"@openzeppelin/contracts/access/Ownable.sol\":1247:1254  address */\n      0x00\n        /* \"@openzeppelin/contracts/access/Ownable.sol\":1273:1279  _owner */\n      dup1\n      0x00\n      swap1\n      sload\n      swap1\n      0x0100\n      exp\n      swap1\n      div\n      0xffffffffffffffffffffffffffffffffffffffff\n      and\n        /* \"@openzeppelin/contracts/access/Ownable.sol\":1266:1279  return _owner */\n      swap1\n      pop\n        /* \"@openzeppelin/contracts/access/Ownable.sol\":1201:1286  function owner() public view virtual returns (address) {... */\n      swap1\n      jump\t// out\n        /* \"@openzeppelin/contracts/access/AccessControl.sol\":2895:3040  function hasRole(bytes32 role, address account) public view virtual override returns (bool) {... */\n    tag_119:\n        /* \"@openzeppelin/contracts/access/AccessControl.sol\":2981:2985  bool */\n      0x00\n        /* \"@openzeppelin/contracts/access/AccessControl.sol\":3004:3010  _roles */\n      0x01\n        /* \"@openzeppelin/contracts/access/AccessControl.sol\":3004:3016  _roles[role] */\n      0x00\n        /* \"@openzeppelin/contracts/access/AccessControl.sol\":3011:3015  role */\n      dup5\n        /* \"@openzeppelin/contracts/access/AccessControl.sol\":3004:3016  _roles[role] */\n      dup2\n      mstore\n      0x20\n      add\n      swap1\n      dup2\n      mstore\n      0x20\n      add\n      0x00\n      keccak256\n        /* \"@openzeppelin/contracts/access/AccessControl.sol\":3004:3024  _roles[role].members */\n      0x00\n      add\n        /* \"@openzeppelin/contracts/access/AccessControl.sol\":3004:3033  _roles[role].members[account] */\n      0x00\n        /* \"@openzeppelin/contracts/access/AccessControl.sol\":3025:3032  account */\n      dup4\n        /* \"@openzeppelin/contracts/access/AccessControl.sol\":3004:3033  _roles[role].members[account] */\n      0xffffffffffffffffffffffffffffffffffffffff\n      and\n      0xffffffffffffffffffffffffffffffffffffffff\n      and\n      dup2\n      mstore\n      0x20\n      add\n      swap1\n      dup2\n      mstore\n      0x20\n      add\n      0x00\n      keccak256\n      0x00\n      swap1\n      sload\n      swap1\n      0x0100\n      exp\n      swap1\n      div\n      0xff\n      and\n        /* \"@openzeppelin/contracts/access/AccessControl.sol\":2997:3033  return _roles[role].members[account] */\n      swap1\n      pop\n        /* \"@openzeppelin/contracts/access/AccessControl.sol\":2895:3040  function hasRole(bytes32 role, address account) public view virtual override returns (bool) {... */\n      swap3\n      swap2\n      pop\n      pop\n      jump\t// out\n        /* \"lastQv.sol\":352:372  string public symbol */\n    tag_122:\n      0x03\n      dup1\n      sload\n      tag_340\n      swap1\n      tag_157\n      jump\t// in\n    tag_340:\n      dup1\n      0x1f\n      add\n      0x20\n      dup1\n      swap2\n      div\n      mul\n      0x20\n      add\n      mload(0x40)\n      swap1\n      dup2\n      add\n      0x40\n      mstore\n      dup1\n      swap3\n      swap2\n      swap1\n      dup2\n      dup2\n      mstore\n      0x20\n      add\n      dup3\n      dup1\n      sload\n      tag_341\n      swap1\n      tag_157\n      jump\t// in\n    tag_341:\n      dup1\n      iszero\n      tag_342\n      jumpi\n      dup1\n      0x1f\n      lt\n      tag_343\n      jumpi\n      0x0100\n      dup1\n      dup4\n      sload\n      div\n      mul\n      dup4\n      mstore\n      swap2\n      0x20\n      add\n      swap2\n      jump(tag_342)\n    tag_343:\n      dup3\n      add\n      swap2\n      swap1\n      0x00\n      mstore\n      keccak256(0x00, 0x20)\n      swap1\n    tag_344:\n      dup2\n      sload\n      dup2\n      mstore\n      swap1\n      0x01\n      add\n      swap1\n      0x20\n      add\n      dup1\n      dup4\n      gt\n      tag_344\n      jumpi\n      dup3\n      swap1\n      sub\n      0x1f\n      and\n      dup3\n      add\n      swap2\n    tag_342:\n      pop\n      pop\n      pop\n      pop\n      pop\n      dup2\n      jump\t// out\n        /* \"@openzeppelin/contracts/access/AccessControl.sol\":2027:2076  bytes32 public constant DEFAULT_ADMIN_ROLE = 0x00 */\n    tag_125:\n        /* \"@openzeppelin/contracts/access/AccessControl.sol\":2072:2076  0x00 */\n      0x00\n        /* \"@openzeppelin/contracts/access/AccessControl.sol\":2027:2076  bytes32 public constant DEFAULT_ADMIN_ROLE = 0x00 */\n      dup1\n      shl\n      dup2\n      jump\t// out\n        /* \"lastQv.sol\":1480:1633  function checkAdmin() public view returns (bool) {... */\n    tag_128:\n        /* \"lastQv.sol\":1523:1527  bool */\n      0x00\n        /* \"lastQv.sol\":1558:1563  Owner */\n      0x08\n      0x00\n      swap1\n      sload\n      swap1\n      0x0100\n      exp\n      swap1\n      div\n      0xffffffffffffffffffffffffffffffffffffffff\n      and\n        /* \"lastQv.sol\":1544:1563  msg.sender == Owner */\n      0xffffffffffffffffffffffffffffffffffffffff\n      and\n        /* \"lastQv.sol\":1544:1554  msg.sender */\n      caller\n        /* \"lastQv.sol\":1544:1563  msg.sender == Owner */\n      0xffffffffffffffffffffffffffffffffffffffff\n      and\n      sub\n        /* \"lastQv.sol\":1540:1603  if (msg.sender == Owner) {... */\n      tag_346\n      jumpi\n        /* \"lastQv.sol\":1587:1591  true */\n      0x01\n        /* \"lastQv.sol\":1580:1591  return true */\n      swap1\n      pop\n      jump(tag_345)\n        /* \"lastQv.sol\":1540:1603  if (msg.sender == Owner) {... */\n    tag_346:\n        /* \"lastQv.sol\":1620:1625  false */\n      0x00\n        /* \"lastQv.sol\":1613:1625  return false */\n      swap1\n      pop\n        /* \"lastQv.sol\":1480:1633  function checkAdmin() public view returns (bool) {... */\n    tag_345:\n      swap1\n      jump\t// out\n        /* \"lastQv.sol\":3351:4049  function getDetails(uint256 _ProposalID)... */\n    tag_132:\n        /* \"lastQv.sol\":3456:3469  string memory */\n      0x60\n        /* \"lastQv.sol\":3484:3499  string[] memory */\n      dup1\n        /* \"lastQv.sol\":3514:3521  uint256 */\n      0x00\n        /* \"lastQv.sol\":3536:3550  ProposalStatus */\n      dup1\n        /* \"lastQv.sol\":3578:3602  string[] memory _options */\n      0x00\n        /* \"lastQv.sol\":3632:3641  Proposals */\n      0x07\n        /* \"lastQv.sol\":3632:3654  Proposals[_ProposalID] */\n      0x00\n        /* \"lastQv.sol\":3642:3653  _ProposalID */\n      dup8\n        /* \"lastQv.sol\":3632:3654  Proposals[_ProposalID] */\n      dup2\n      mstore\n      0x20\n      add\n      swap1\n      dup2\n      mstore\n      0x20\n      add\n      0x00\n      keccak256\n        /* \"lastQv.sol\":3632:3667  Proposals[_ProposalID].numOfOptions */\n      0x04\n      add\n      sload\n        /* \"lastQv.sol\":3605:3678  new string[](... */\n      0xffffffffffffffff\n      dup2\n      gt\n      iszero\n      tag_348\n      jumpi\n      tag_349\n      tag_350\n      jump\t// in\n    tag_349:\n    tag_348:\n      mload(0x40)\n      swap1\n      dup1\n      dup3\n      mstore\n      dup1\n      0x20\n      mul\n      0x20\n      add\n      dup3\n      add\n      0x40\n      mstore\n      dup1\n      iszero\n      tag_351\n      jumpi\n      dup2\n      0x20\n      add\n    tag_352:\n      0x60\n      dup2\n      mstore\n      0x20\n      add\n      swap1\n      0x01\n      swap1\n      sub\n      swap1\n      dup2\n      tag_352\n      jumpi\n      swap1\n      pop\n    tag_351:\n      pop\n        /* \"lastQv.sol\":3578:3678  string[] memory _options = new string[](... */\n      swap1\n      pop\n        /* \"lastQv.sol\":3694:3703  uint256 i */\n      0x00\n        /* \"lastQv.sol\":3706:3707  1 */\n      0x01\n        /* \"lastQv.sol\":3694:3707  uint256 i = 1 */\n      swap1\n      pop\n        /* \"lastQv.sol\":3689:3845  for (uint256 i = 1; i <= Proposals[_ProposalID].numOfOptions; i++) {... */\n    tag_353:\n        /* \"lastQv.sol\":3714:3723  Proposals */\n      0x07\n        /* \"lastQv.sol\":3714:3736  Proposals[_ProposalID] */\n      0x00\n        /* \"lastQv.sol\":3724:3735  _ProposalID */\n      dup9\n        /* \"lastQv.sol\":3714:3736  Proposals[_ProposalID] */\n      dup2\n      mstore\n      0x20\n      add\n      swap1\n      dup2\n      mstore\n      0x20\n      add\n      0x00\n      keccak256\n        /* \"lastQv.sol\":3714:3749  Proposals[_ProposalID].numOfOptions */\n      0x04\n      add\n      sload\n        /* \"lastQv.sol\":3709:3710  i */\n      dup2\n        /* \"lastQv.sol\":3709:3749  i <= Proposals[_ProposalID].numOfOptions */\n      gt\n        /* \"lastQv.sol\":3689:3845  for (uint256 i = 1; i <= Proposals[_ProposalID].numOfOptions; i++) {... */\n      tag_354\n      jumpi\n        /* \"lastQv.sol\":3789:3798  Proposals */\n      0x07\n        /* \"lastQv.sol\":3789:3811  Proposals[_ProposalID] */\n      0x00\n        /* \"lastQv.sol\":3799:3810  _ProposalID */\n      dup9\n        /* \"lastQv.sol\":3789:3811  Proposals[_ProposalID] */\n      dup2\n      mstore\n      0x20\n      add\n      swap1\n      dup2\n      mstore\n      0x20\n      add\n      0x00\n      keccak256\n        /* \"lastQv.sol\":3789:3819  Proposals[_ProposalID].options */\n      0x06\n      add\n        /* \"lastQv.sol\":3789:3822  Proposals[_ProposalID].options[i] */\n      0x00\n        /* \"lastQv.sol\":3820:3821  i */\n      dup3\n        /* \"lastQv.sol\":3789:3822  Proposals[_ProposalID].options[i] */\n      dup2\n      mstore\n      0x20\n      add\n      swap1\n      dup2\n      mstore\n      0x20\n      add\n      0x00\n      keccak256\n        /* \"lastQv.sol\":3789:3833  Proposals[_ProposalID].options[i].optionName */\n      0x00\n      add\n        /* \"lastQv.sol\":3771:3833  _options[i - 1] = Proposals[_ProposalID].options[i].optionName */\n      dup1\n      sload\n      tag_356\n      swap1\n      tag_157\n      jump\t// in\n    tag_356:\n      dup1\n      0x1f\n      add\n      0x20\n      dup1\n      swap2\n      div\n      mul\n      0x20\n      add\n      mload(0x40)\n      swap1\n      dup2\n      add\n      0x40\n      mstore\n      dup1\n      swap3\n      swap2\n      swap1\n      dup2\n      dup2\n      mstore\n      0x20\n      add\n      dup3\n      dup1\n      sload\n      tag_357\n      swap1\n      tag_157\n      jump\t// in\n    tag_357:\n      dup1\n      iszero\n      tag_358\n      jumpi\n      dup1\n      0x1f\n      lt\n      tag_359\n      jumpi\n      0x0100\n      dup1\n      dup4\n      sload\n      div\n      mul\n      dup4\n      mstore\n      swap2\n      0x20\n      add\n      swap2\n      jump(tag_358)\n    tag_359:\n      dup3\n      add\n      swap2\n      swap1\n      0x00\n      mstore\n      keccak256(0x00, 0x20)\n      swap1\n    tag_360:\n      dup2\n      sload\n      dup2\n      mstore\n      swap1\n      0x01\n      add\n      swap1\n      0x20\n      add\n      dup1\n      dup4\n      gt\n      tag_360\n      jumpi\n      dup3\n      swap1\n      sub\n      0x1f\n      and\n      dup3\n      add\n      swap2\n    tag_358:\n      pop\n      pop\n      pop\n      pop\n      pop\n        /* \"lastQv.sol\":3771:3779  _options */\n      dup3\n        /* \"lastQv.sol\":3784:3785  1 */\n      0x01\n        /* \"lastQv.sol\":3780:3781  i */\n      dup4\n        /* \"lastQv.sol\":3780:3785  i - 1 */\n      tag_361\n      swap2\n      swap1\n      tag_231\n      jump\t// in\n    tag_361:\n        /* \"lastQv.sol\":3771:3786  _options[i - 1] */\n      dup2\n      mload\n      dup2\n      lt\n      tag_362\n      jumpi\n      tag_363\n      tag_234\n      jump\t// in\n    tag_363:\n    tag_362:\n      0x20\n      mul\n      0x20\n      add\n      add\n        /* \"lastQv.sol\":3771:3833  _options[i - 1] = Proposals[_ProposalID].options[i].optionName */\n      dup2\n      swap1\n      mstore\n      pop\n        /* \"lastQv.sol\":3751:3754  i++ */\n      dup1\n      dup1\n      tag_364\n      swap1\n      tag_169\n      jump\t// in\n    tag_364:\n      swap2\n      pop\n      pop\n        /* \"lastQv.sol\":3689:3845  for (uint256 i = 1; i <= Proposals[_ProposalID].numOfOptions; i++) {... */\n      jump(tag_353)\n    tag_354:\n      pop\n        /* \"lastQv.sol\":3877:3886  Proposals */\n      0x07\n        /* \"lastQv.sol\":3877:3899  Proposals[_ProposalID] */\n      0x00\n        /* \"lastQv.sol\":3887:3898  _ProposalID */\n      dup8\n        /* \"lastQv.sol\":3877:3899  Proposals[_ProposalID] */\n      dup2\n      mstore\n      0x20\n      add\n      swap1\n      dup2\n      mstore\n      0x20\n      add\n      0x00\n      keccak256\n        /* \"lastQv.sol\":3877:3911  Proposals[_ProposalID].description */\n      0x01\n      add\n        /* \"lastQv.sol\":3926:3934  _options */\n      dup2\n        /* \"lastQv.sol\":3949:3958  Proposals */\n      0x07\n        /* \"lastQv.sol\":3949:3971  Proposals[_ProposalID] */\n      0x00\n        /* \"lastQv.sol\":3959:3970  _ProposalID */\n      dup10\n        /* \"lastQv.sol\":3949:3971  Proposals[_ProposalID] */\n      dup2\n      mstore\n      0x20\n      add\n      swap1\n      dup2\n      mstore\n      0x20\n      add\n      0x00\n      keccak256\n        /* \"lastQv.sol\":3949:3986  Proposals[_ProposalID].expirationTime */\n      0x03\n      add\n      sload\n        /* \"lastQv.sol\":4001:4010  Proposals */\n      0x07\n        /* \"lastQv.sol\":4001:4023  Proposals[_ProposalID] */\n      0x00\n        /* \"lastQv.sol\":4011:4022  _ProposalID */\n      dup11\n        /* \"lastQv.sol\":4001:4023  Proposals[_ProposalID] */\n      dup2\n      mstore\n      0x20\n      add\n      swap1\n      dup2\n      mstore\n      0x20\n      add\n      0x00\n      keccak256\n        /* \"lastQv.sol\":4001:4030  Proposals[_ProposalID].status */\n      0x00\n      add\n      0x14\n      swap1\n      sload\n      swap1\n      0x0100\n      exp\n      swap1\n      div\n      0xff\n      and\n        /* \"lastQv.sol\":3855:4041  return (... */\n      dup4\n      dup1\n      sload\n      tag_365\n      swap1\n      tag_157\n      jump\t// in\n    tag_365:\n      dup1\n      0x1f\n      add\n      0x20\n      dup1\n      swap2\n      div\n      mul\n      0x20\n      add\n      mload(0x40)\n      swap1\n      dup2\n      add\n      0x40\n      mstore\n      dup1\n      swap3\n      swap2\n      swap1\n      dup2\n      dup2\n      mstore\n      0x20\n      add\n      dup3\n      dup1\n      sload\n      tag_366\n      swap1\n      tag_157\n      jump\t// in\n    tag_366:\n      dup1\n      iszero\n      tag_367\n      jumpi\n      dup1\n      0x1f\n      lt\n      tag_368\n      jumpi\n      0x0100\n      dup1\n      dup4\n      sload\n      div\n      mul\n      dup4\n      mstore\n      swap2\n      0x20\n      add\n      swap2\n      jump(tag_367)\n    tag_368:\n      dup3\n      add\n      swap2\n      swap1\n      0x00\n      mstore\n      keccak256(0x00, 0x20)\n      swap1\n    tag_369:\n      dup2\n      sload\n      dup2\n      mstore\n      swap1\n      0x01\n      add\n      swap1\n      0x20\n      add\n      dup1\n      dup4\n      gt\n      tag_369\n      jumpi\n      dup3\n      swap1\n      sub\n      0x1f\n      and\n      dup3\n      add\n      swap2\n    tag_367:\n      pop\n      pop\n      pop\n      pop\n      pop\n      swap4\n      pop\n      swap5\n      pop\n      swap5\n      pop\n      swap5\n      pop\n      swap5\n      pop\n      pop\n        /* \"lastQv.sol\":3351:4049  function getDetails(uint256 _ProposalID)... */\n      swap2\n      swap4\n      pop\n      swap2\n      swap4\n      jump\t// out\n        /* \"lastQv.sol\":456:484  uint256 public ProposalCount */\n    tag_136:\n      sload(0x06)\n      dup2\n      jump\t// out\n        /* \"lastQv.sol\":2750:2847  function getProposalCount() public view returns (uint256) {... */\n    tag_139:\n        /* \"lastQv.sol\":2799:2806  uint256 */\n      0x00\n        /* \"lastQv.sol\":2826:2839  ProposalCount */\n      sload(0x06)\n        /* \"lastQv.sol\":2819:2839  return ProposalCount */\n      swap1\n      pop\n        /* \"lastQv.sol\":2750:2847  function getProposalCount() public view returns (uint256) {... */\n      swap1\n      jump\t// out\n        /* \"lastQv.sol\":1281:1326  mapping(uint256 => Proposal) public Proposals */\n    tag_143:\n      mstore(0x20, 0x07)\n      dup1\n      0x00\n      mstore\n      keccak256(0x00, 0x40)\n      0x00\n      swap2\n      pop\n      swap1\n      pop\n      dup1\n      0x00\n      add\n      0x00\n      swap1\n      sload\n      swap1\n      0x0100\n      exp\n      swap1\n      div\n      0xffffffffffffffffffffffffffffffffffffffff\n      and\n      swap1\n      dup1\n      0x00\n      add\n      0x14\n      swap1\n      sload\n      swap1\n      0x0100\n      exp\n      swap1\n      div\n      0xff\n      and\n      swap1\n      dup1\n      0x01\n      add\n      dup1\n      sload\n      tag_371\n      swap1\n      tag_157\n      jump\t// in\n    tag_371:\n      dup1\n      0x1f\n      add\n      0x20\n      dup1\n      swap2\n      div\n      mul\n      0x20\n      add\n      mload(0x40)\n      swap1\n      dup2\n      add\n      0x40\n      mstore\n      dup1\n      swap3\n      swap2\n      swap1\n      dup2\n      dup2\n      mstore\n      0x20\n      add\n      dup3\n      dup1\n      sload\n      tag_372\n      swap1\n      tag_157\n      jump\t// in\n    tag_372:\n      dup1\n      iszero\n      tag_373\n      jumpi\n      dup1\n      0x1f\n      lt\n      tag_374\n      jumpi\n      0x0100\n      dup1\n      dup4\n      sload\n      div\n      mul\n      dup4\n      mstore\n      swap2\n      0x20\n      add\n      swap2\n      jump(tag_373)\n    tag_374:\n      dup3\n      add\n      swap2\n      swap1\n      0x00\n      mstore\n      keccak256(0x00, 0x20)\n      swap1\n    tag_375:\n      dup2\n      sload\n      dup2\n      mstore\n      swap1\n      0x01\n      add\n      swap1\n      0x20\n      add\n      dup1\n      dup4\n      gt\n      tag_375\n      jumpi\n      dup3\n      swap1\n      sub\n      0x1f\n      and\n      dup3\n      add\n      swap2\n    tag_373:\n      pop\n      pop\n      pop\n      pop\n      pop\n      swap1\n      dup1\n      0x03\n      add\n      sload\n      swap1\n      dup1\n      0x04\n      add\n      sload\n      swap1\n      pop\n      dup6\n      jump\t// out\n        /* \"@openzeppelin/contracts/access/AccessControl.sol\":5241:5388  function revokeRole(bytes32 role, address account) public virtual override onlyRole(getRoleAdmin(role)) {... */\n    tag_148:\n        /* \"@openzeppelin/contracts/access/AccessControl.sol\":5325:5343  getRoleAdmin(role) */\n      tag_376\n        /* \"@openzeppelin/contracts/access/AccessControl.sol\":5338:5342  role */\n      dup3\n        /* \"@openzeppelin/contracts/access/AccessControl.sol\":5325:5337  getRoleAdmin */\n      tag_63\n        /* \"@openzeppelin/contracts/access/AccessControl.sol\":5325:5343  getRoleAdmin(role) */\n      jump\t// in\n    tag_376:\n        /* \"@openzeppelin/contracts/access/AccessControl.sol\":2505:2521  _checkRole(role) */\n      tag_378\n        /* \"@openzeppelin/contracts/access/AccessControl.sol\":2516:2520  role */\n      dup2\n        /* \"@openzeppelin/contracts/access/AccessControl.sol\":2505:2515  _checkRole */\n      tag_202\n        /* \"@openzeppelin/contracts/access/AccessControl.sol\":2505:2521  _checkRole(role) */\n      jump\t// in\n    tag_378:\n        /* \"@openzeppelin/contracts/access/AccessControl.sol\":5355:5381  _revokeRole(role, account) */\n      tag_380\n        /* \"@openzeppelin/contracts/access/AccessControl.sol\":5367:5371  role */\n      dup4\n        /* \"@openzeppelin/contracts/access/AccessControl.sol\":5373:5380  account */\n      dup4\n        /* \"@openzeppelin/contracts/access/AccessControl.sol\":5355:5366  _revokeRole */\n      tag_261\n        /* \"@openzeppelin/contracts/access/AccessControl.sol\":5355:5381  _revokeRole(role, account) */\n      jump\t// in\n    tag_380:\n        /* \"@openzeppelin/contracts/access/AccessControl.sol\":5241:5388  function revokeRole(bytes32 role, address account) public virtual override onlyRole(getRoleAdmin(role)) {... */\n      pop\n      pop\n      pop\n      jump\t// out\n        /* \"@openzeppelin/contracts/access/Ownable.sol\":2081:2279  function transferOwnership(address newOwner) public virtual onlyOwner {... */\n    tag_151:\n        /* \"@openzeppelin/contracts/access/Ownable.sol\":1094:1107  _checkOwner() */\n      tag_382\n        /* \"@openzeppelin/contracts/access/Ownable.sol\":1094:1105  _checkOwner */\n      tag_183\n        /* \"@openzeppelin/contracts/access/Ownable.sol\":1094:1107  _checkOwner() */\n      jump\t// in\n    tag_382:\n        /* \"@openzeppelin/contracts/access/Ownable.sol\":2189:2190  0 */\n      0x00\n        /* \"@openzeppelin/contracts/access/Ownable.sol\":2169:2191  newOwner != address(0) */\n      0xffffffffffffffffffffffffffffffffffffffff\n      and\n        /* \"@openzeppelin/contracts/access/Ownable.sol\":2169:2177  newOwner */\n      dup2\n        /* \"@openzeppelin/contracts/access/Ownable.sol\":2169:2191  newOwner != address(0) */\n      0xffffffffffffffffffffffffffffffffffffffff\n      and\n      sub\n        /* \"@openzeppelin/contracts/access/Ownable.sol\":2161:2234  require(newOwner != address(0), \"Ownable: new owner is the zero address\") */\n      tag_384\n      jumpi\n      mload(0x40)\n      0x08c379a000000000000000000000000000000000000000000000000000000000\n      dup2\n      mstore\n      0x04\n      add\n      tag_385\n      swap1\n      tag_386\n      jump\t// in\n    tag_385:\n      mload(0x40)\n      dup1\n      swap2\n      sub\n      swap1\n      revert\n    tag_384:\n        /* \"@openzeppelin/contracts/access/Ownable.sol\":2244:2272  _transferOwnership(newOwner) */\n      tag_387\n        /* \"@openzeppelin/contracts/access/Ownable.sol\":2263:2271  newOwner */\n      dup2\n        /* \"@openzeppelin/contracts/access/Ownable.sol\":2244:2262  _transferOwnership */\n      tag_337\n        /* \"@openzeppelin/contracts/access/Ownable.sol\":2244:2272  _transferOwnership(newOwner) */\n      jump\t// in\n    tag_387:\n        /* \"@openzeppelin/contracts/access/Ownable.sol\":2081:2279  function transferOwnership(address newOwner) public virtual onlyOwner {... */\n      pop\n      jump\t// out\n        /* \"@openzeppelin/contracts/utils/introspection/ERC165.sol\":829:984  function supportsInterface(bytes4 interfaceId) public view virtual override returns (bool) {... */\n    tag_155:\n        /* \"@openzeppelin/contracts/utils/introspection/ERC165.sol\":914:918  bool */\n      0x00\n        /* \"@openzeppelin/contracts/utils/introspection/ERC165.sol\":952:977  type(IERC165).interfaceId */\n      0x01ffc9a700000000000000000000000000000000000000000000000000000000\n        /* \"@openzeppelin/contracts/utils/introspection/ERC165.sol\":937:977  interfaceId == type(IERC165).interfaceId */\n      not(0xffffffffffffffffffffffffffffffffffffffffffffffffffffffff)\n      and\n        /* \"@openzeppelin/contracts/utils/introspection/ERC165.sol\":937:948  interfaceId */\n      dup3\n        /* \"@openzeppelin/contracts/utils/introspection/ERC165.sol\":937:977  interfaceId == type(IERC165).interfaceId */\n      not(0xffffffffffffffffffffffffffffffffffffffffffffffffffffffff)\n      and\n      eq\n        /* \"@openzeppelin/contracts/utils/introspection/ERC165.sol\":930:977  return interfaceId == type(IERC165).interfaceId */\n      swap1\n      pop\n        /* \"@openzeppelin/contracts/utils/introspection/ERC165.sol\":829:984  function supportsInterface(bytes4 interfaceId) public view virtual override returns (bool) {... */\n      swap2\n      swap1\n      pop\n      jump\t// out\n        /* \"@openzeppelin/contracts/access/Ownable.sol\":1359:1489  function _checkOwner() internal view virtual {... */\n    tag_183:\n        /* \"@openzeppelin/contracts/access/Ownable.sol\":1433:1445  _msgSender() */\n      tag_390\n        /* \"@openzeppelin/contracts/access/Ownable.sol\":1433:1443  _msgSender */\n      tag_256\n        /* \"@openzeppelin/contracts/access/Ownable.sol\":1433:1445  _msgSender() */\n      jump\t// in\n    tag_390:\n        /* \"@openzeppelin/contracts/access/Ownable.sol\":1422:1445  owner() == _msgSender() */\n      0xffffffffffffffffffffffffffffffffffffffff\n      and\n        /* \"@openzeppelin/contracts/access/Ownable.sol\":1422:1429  owner() */\n      tag_391\n        /* \"@openzeppelin/contracts/access/Ownable.sol\":1422:1427  owner */\n      tag_114\n        /* \"@openzeppelin/contracts/access/Ownable.sol\":1422:1429  owner() */\n      jump\t// in\n    tag_391:\n        /* \"@openzeppelin/contracts/access/Ownable.sol\":1422:1445  owner() == _msgSender() */\n      0xffffffffffffffffffffffffffffffffffffffff\n      and\n      eq\n        /* \"@openzeppelin/contracts/access/Ownable.sol\":1414:1482  require(owner() == _msgSender(), \"Ownable: caller is not the owner\") */\n      tag_392\n      jumpi\n      mload(0x40)\n      0x08c379a000000000000000000000000000000000000000000000000000000000\n      dup2\n      mstore\n      0x04\n      add\n      tag_393\n      swap1\n      tag_394\n      jump\t// in\n    tag_393:\n      mload(0x40)\n      dup1\n      swap2\n      sub\n      swap1\n      revert\n    tag_392:\n        /* \"@openzeppelin/contracts/access/Ownable.sol\":1359:1489  function _checkOwner() internal view virtual {... */\n      jump\t// out\n        /* \"@openzeppelin/contracts/access/AccessControl.sol\":3334:3437  function _checkRole(bytes32 role) internal view virtual {... */\n    tag_202:\n        /* \"@openzeppelin/contracts/access/AccessControl.sol\":3400:3430  _checkRole(role, _msgSender()) */\n      tag_396\n        /* \"@openzeppelin/contracts/access/AccessControl.sol\":3411:3415  role */\n      dup2\n        /* \"@openzeppelin/contracts/access/AccessControl.sol\":3417:3429  _msgSender() */\n      tag_397\n        /* \"@openzeppelin/contracts/access/AccessControl.sol\":3417:3427  _msgSender */\n      tag_256\n        /* \"@openzeppelin/contracts/access/AccessControl.sol\":3417:3429  _msgSender() */\n      jump\t// in\n    tag_397:\n        /* \"@openzeppelin/contracts/access/AccessControl.sol\":3400:3410  _checkRole */\n      tag_398\n        /* \"@openzeppelin/contracts/access/AccessControl.sol\":3400:3430  _checkRole(role, _msgSender()) */\n      jump\t// in\n    tag_396:\n        /* \"@openzeppelin/contracts/access/AccessControl.sol\":3334:3437  function _checkRole(bytes32 role) internal view virtual {... */\n      pop\n      jump\t// out\n        /* \"@openzeppelin/contracts/access/AccessControl.sol\":7474:7707  function _grantRole(bytes32 role, address account) internal virtual {... */\n    tag_205:\n        /* \"@openzeppelin/contracts/access/AccessControl.sol\":7557:7579  hasRole(role, account) */\n      tag_400\n        /* \"@openzeppelin/contracts/access/AccessControl.sol\":7565:7569  role */\n      dup3\n        /* \"@openzeppelin/contracts/access/AccessControl.sol\":7571:7578  account */\n      dup3\n        /* \"@openzeppelin/contracts/access/AccessControl.sol\":7557:7564  hasRole */\n      tag_119\n        /* \"@openzeppelin/contracts/access/AccessControl.sol\":7557:7579  hasRole(role, account) */\n      jump\t// in\n    tag_400:\n        /* \"@openzeppelin/contracts/access/AccessControl.sol\":7552:7701  if (!hasRole(role, account)) {... */\n      tag_401\n      jumpi\n        /* \"@openzeppelin/contracts/access/AccessControl.sol\":7627:7631  true */\n      0x01\n        /* \"@openzeppelin/contracts/access/AccessControl.sol\":7595:7601  _roles */\n      dup1\n        /* \"@openzeppelin/contracts/access/AccessControl.sol\":7595:7607  _roles[role] */\n      0x00\n        /* \"@openzeppelin/contracts/access/AccessControl.sol\":7602:7606  role */\n      dup5\n        /* \"@openzeppelin/contracts/access/AccessControl.sol\":7595:7607  _roles[role] */\n      dup2\n      mstore\n      0x20\n      add\n      swap1\n      dup2\n      mstore\n      0x20\n      add\n      0x00\n      keccak256\n        /* \"@openzeppelin/contracts/access/AccessControl.sol\":7595:7615  _roles[role].members */\n      0x00\n      add\n        /* \"@openzeppelin/contracts/access/AccessControl.sol\":7595:7624  _roles[role].members[account] */\n      0x00\n        /* \"@openzeppelin/contracts/access/AccessControl.sol\":7616:7623  account */\n      dup4\n        /* \"@openzeppelin/contracts/access/AccessControl.sol\":7595:7624  _roles[role].members[account] */\n      0xffffffffffffffffffffffffffffffffffffffff\n      and\n      0xffffffffffffffffffffffffffffffffffffffff\n      and\n      dup2\n      mstore\n      0x20\n      add\n      swap1\n      dup2\n      mstore\n      0x20\n      add\n      0x00\n      keccak256\n      0x00\n        /* \"@openzeppelin/contracts/access/AccessControl.sol\":7595:7631  _roles[role].members[account] = true */\n      0x0100\n      exp\n      dup2\n      sload\n      dup2\n      0xff\n      mul\n      not\n      and\n      swap1\n      dup4\n      iszero\n      iszero\n      mul\n      or\n      swap1\n      sstore\n      pop\n        /* \"@openzeppelin/contracts/access/AccessControl.sol\":7677:7689  _msgSender() */\n      tag_402\n        /* \"@openzeppelin/contracts/access/AccessControl.sol\":7677:7687  _msgSender */\n      tag_256\n        /* \"@openzeppelin/contracts/access/AccessControl.sol\":7677:7689  _msgSender() */\n      jump\t// in\n    tag_402:\n        /* \"@openzeppelin/contracts/access/AccessControl.sol\":7650:7690  RoleGranted(role, account, _msgSender()) */\n      0xffffffffffffffffffffffffffffffffffffffff\n      and\n        /* \"@openzeppelin/contracts/access/AccessControl.sol\":7668:7675  account */\n      dup2\n        /* \"@openzeppelin/contracts/access/AccessControl.sol\":7650:7690  RoleGranted(role, account, _msgSender()) */\n      0xffffffffffffffffffffffffffffffffffffffff\n      and\n        /* \"@openzeppelin/contracts/access/AccessControl.sol\":7662:7666  role */\n      dup4\n        /* \"@openzeppelin/contracts/access/AccessControl.sol\":7650:7690  RoleGranted(role, account, _msgSender()) */\n      0x2f8788117e7eff1d82e926ec794901d17c78024a50270940304540a733656f0d\n      mload(0x40)\n      mload(0x40)\n      dup1\n      swap2\n      sub\n      swap1\n      log4\n        /* \"@openzeppelin/contracts/access/AccessControl.sol\":7552:7701  if (!hasRole(role, account)) {... */\n    tag_401:\n        /* \"@openzeppelin/contracts/access/AccessControl.sol\":7474:7707  function _grantRole(bytes32 role, address account) internal virtual {... */\n      pop\n      pop\n      jump\t// out\n        /* \"@openzeppelin/contracts/utils/math/SafeMath.sol\":3122:3218  function sub(uint256 a, uint256 b) internal pure returns (uint256) {... */\n    tag_248:\n        /* \"@openzeppelin/contracts/utils/math/SafeMath.sol\":3180:3187  uint256 */\n      0x00\n        /* \"@openzeppelin/contracts/utils/math/SafeMath.sol\":3210:3211  b */\n      dup2\n        /* \"@openzeppelin/contracts/utils/math/SafeMath.sol\":3206:3207  a */\n      dup4\n        /* \"@openzeppelin/contracts/utils/math/SafeMath.sol\":3206:3211  a - b */\n      tag_404\n      swap2\n      swap1\n      tag_231\n      jump\t// in\n    tag_404:\n        /* \"@openzeppelin/contracts/utils/math/SafeMath.sol\":3199:3211  return a - b */\n      swap1\n      pop\n        /* \"@openzeppelin/contracts/utils/math/SafeMath.sol\":3122:3218  function sub(uint256 a, uint256 b) internal pure returns (uint256) {... */\n      swap3\n      swap2\n      pop\n      pop\n      jump\t// out\n        /* \"@openzeppelin/contracts/utils/Context.sol\":640:736  function _msgSender() internal view virtual returns (address) {... */\n    tag_256:\n        /* \"@openzeppelin/contracts/utils/Context.sol\":693:700  address */\n      0x00\n        /* \"@openzeppelin/contracts/utils/Context.sol\":719:729  msg.sender */\n      caller\n        /* \"@openzeppelin/contracts/utils/Context.sol\":712:729  return msg.sender */\n      swap1\n      pop\n        /* \"@openzeppelin/contracts/utils/Context.sol\":640:736  function _msgSender() internal view virtual returns (address) {... */\n      swap1\n      jump\t// out\n        /* \"@openzeppelin/contracts/access/AccessControl.sol\":7878:8112  function _revokeRole(bytes32 role, address account) internal virtual {... */\n    tag_261:\n        /* \"@openzeppelin/contracts/access/AccessControl.sol\":7961:7983  hasRole(role, account) */\n      tag_407\n        /* \"@openzeppelin/contracts/access/AccessControl.sol\":7969:7973  role */\n      dup3\n        /* \"@openzeppelin/contracts/access/AccessControl.sol\":7975:7982  account */\n      dup3\n        /* \"@openzeppelin/contracts/access/AccessControl.sol\":7961:7968  hasRole */\n      tag_119\n        /* \"@openzeppelin/contracts/access/AccessControl.sol\":7961:7983  hasRole(role, account) */\n      jump\t// in\n    tag_407:\n        /* \"@openzeppelin/contracts/access/AccessControl.sol\":7957:8106  if (hasRole(role, account)) {... */\n      iszero\n      tag_408\n      jumpi\n        /* \"@openzeppelin/contracts/access/AccessControl.sol\":8031:8036  false */\n      0x00\n        /* \"@openzeppelin/contracts/access/AccessControl.sol\":7999:8005  _roles */\n      0x01\n        /* \"@openzeppelin/contracts/access/AccessControl.sol\":7999:8011  _roles[role] */\n      0x00\n        /* \"@openzeppelin/contracts/access/AccessControl.sol\":8006:8010  role */\n      dup5\n        /* \"@openzeppelin/contracts/access/AccessControl.sol\":7999:8011  _roles[role] */\n      dup2\n      mstore\n      0x20\n      add\n      swap1\n      dup2\n      mstore\n      0x20\n      add\n      0x00\n      keccak256\n        /* \"@openzeppelin/contracts/access/AccessControl.sol\":7999:8019  _roles[role].members */\n      0x00\n      add\n        /* \"@openzeppelin/contracts/access/AccessControl.sol\":7999:8028  _roles[role].members[account] */\n      0x00\n        /* \"@openzeppelin/contracts/access/AccessControl.sol\":8020:8027  account */\n      dup4\n        /* \"@openzeppelin/contracts/access/AccessControl.sol\":7999:8028  _roles[role].members[account] */\n      0xffffffffffffffffffffffffffffffffffffffff\n      and\n      0xffffffffffffffffffffffffffffffffffffffff\n      and\n      dup2\n      mstore\n      0x20\n      add\n      swap1\n      dup2\n      mstore\n      0x20\n      add\n      0x00\n      keccak256\n      0x00\n        /* \"@openzeppelin/contracts/access/AccessControl.sol\":7999:8036  _roles[role].members[account] = false */\n      0x0100\n      exp\n      dup2\n      sload\n      dup2\n      0xff\n      mul\n      not\n      and\n      swap1\n      dup4\n      iszero\n      iszero\n      mul\n      or\n      swap1\n      sstore\n      pop\n        /* \"@openzeppelin/contracts/access/AccessControl.sol\":8082:8094  _msgSender() */\n      tag_409\n        /* \"@openzeppelin/contracts/access/AccessControl.sol\":8082:8092  _msgSender */\n      tag_256\n        /* \"@openzeppelin/contracts/access/AccessControl.sol\":8082:8094  _msgSender() */\n      jump\t// in\n    tag_409:\n        /* \"@openzeppelin/contracts/access/AccessControl.sol\":8055:8095  RoleRevoked(role, account, _msgSender()) */\n      0xffffffffffffffffffffffffffffffffffffffff\n      and\n        /* \"@openzeppelin/contracts/access/AccessControl.sol\":8073:8080  account */\n      dup2\n        /* \"@openzeppelin/contracts/access/AccessControl.sol\":8055:8095  RoleRevoked(role, account, _msgSender()) */\n      0xffffffffffffffffffffffffffffffffffffffff\n      and\n        /* \"@openzeppelin/contracts/access/AccessControl.sol\":8067:8071  role */\n      dup4\n        /* \"@openzeppelin/contracts/access/AccessControl.sol\":8055:8095  RoleRevoked(role, account, _msgSender()) */\n      0xf6391f5c32d9c69d2a47ea670b442974b53935d1edc7fd64eb21e047a839171b\n      mload(0x40)\n      mload(0x40)\n      dup1\n      swap2\n      sub\n      swap1\n      log4\n        /* \"@openzeppelin/contracts/access/AccessControl.sol\":7957:8106  if (hasRole(role, account)) {... */\n    tag_408:\n        /* \"@openzeppelin/contracts/access/AccessControl.sol\":7878:8112  function _revokeRole(bytes32 role, address account) internal virtual {... */\n      pop\n      pop\n      jump\t// out\n        /* \"@openzeppelin/contracts/utils/math/SafeMath.sol\":2755:2851  function add(uint256 a, uint256 b) internal pure returns (uint256) {... */\n    tag_301:\n        /* \"@openzeppelin/contracts/utils/math/SafeMath.sol\":2813:2820  uint256 */\n      0x00\n        /* \"@openzeppelin/contracts/utils/math/SafeMath.sol\":2843:2844  b */\n      dup2\n        /* \"@openzeppelin/contracts/utils/math/SafeMath.sol\":2839:2840  a */\n      dup4\n        /* \"@openzeppelin/contracts/utils/math/SafeMath.sol\":2839:2844  a + b */\n      tag_411\n      swap2\n      swap1\n      tag_236\n      jump\t// in\n    tag_411:\n        /* \"@openzeppelin/contracts/utils/math/SafeMath.sol\":2832:2844  return a + b */\n      swap1\n      pop\n        /* \"@openzeppelin/contracts/utils/math/SafeMath.sol\":2755:2851  function add(uint256 a, uint256 b) internal pure returns (uint256) {... */\n      swap3\n      swap2\n      pop\n      pop\n      jump\t// out\n        /* \"@openzeppelin/contracts/access/Ownable.sol\":2433:2620  function _transferOwnership(address newOwner) internal virtual {... */\n    tag_337:\n        /* \"@openzeppelin/contracts/access/Ownable.sol\":2506:2522  address oldOwner */\n      0x00\n        /* \"@openzeppelin/contracts/access/Ownable.sol\":2525:2531  _owner */\n      dup1\n      0x00\n      swap1\n      sload\n      swap1\n      0x0100\n      exp\n      swap1\n      div\n      0xffffffffffffffffffffffffffffffffffffffff\n      and\n        /* \"@openzeppelin/contracts/access/Ownable.sol\":2506:2531  address oldOwner = _owner */\n      swap1\n      pop\n        /* \"@openzeppelin/contracts/access/Ownable.sol\":2550:2558  newOwner */\n      dup2\n        /* \"@openzeppelin/contracts/access/Ownable.sol\":2541:2547  _owner */\n      0x00\n      dup1\n        /* \"@openzeppelin/contracts/access/Ownable.sol\":2541:2558  _owner = newOwner */\n      0x0100\n      exp\n      dup2\n      sload\n      dup2\n      0xffffffffffffffffffffffffffffffffffffffff\n      mul\n      not\n      and\n      swap1\n      dup4\n      0xffffffffffffffffffffffffffffffffffffffff\n      and\n      mul\n      or\n      swap1\n      sstore\n      pop\n        /* \"@openzeppelin/contracts/access/Ownable.sol\":2604:2612  newOwner */\n      dup2\n        /* \"@openzeppelin/contracts/access/Ownable.sol\":2573:2613  OwnershipTransferred(oldOwner, newOwner) */\n      0xffffffffffffffffffffffffffffffffffffffff\n      and\n        /* \"@openzeppelin/contracts/access/Ownable.sol\":2594:2602  oldOwner */\n      dup2\n        /* \"@openzeppelin/contracts/access/Ownable.sol\":2573:2613  OwnershipTransferred(oldOwner, newOwner) */\n      0xffffffffffffffffffffffffffffffffffffffff\n      and\n      0x8be0079c531659141344cd1fd0a4f28419497f9722a3daafe3b4186f6b6457e0\n      mload(0x40)\n      mload(0x40)\n      dup1\n      swap2\n      sub\n      swap1\n      log3\n        /* \"@openzeppelin/contracts/access/Ownable.sol\":2496:2620  {... */\n      pop\n        /* \"@openzeppelin/contracts/access/Ownable.sol\":2433:2620  function _transferOwnership(address newOwner) internal virtual {... */\n      pop\n      jump\t// out\n        /* \"@openzeppelin/contracts/access/AccessControl.sol\":3718:4210  function _checkRole(bytes32 role, address account) internal view virtual {... */\n    tag_398:\n        /* \"@openzeppelin/contracts/access/AccessControl.sol\":3806:3828  hasRole(role, account) */\n      tag_414\n        /* \"@openzeppelin/contracts/access/AccessControl.sol\":3814:3818  role */\n      dup3\n        /* \"@openzeppelin/contracts/access/AccessControl.sol\":3820:3827  account */\n      dup3\n        /* \"@openzeppelin/contracts/access/AccessControl.sol\":3806:3813  hasRole */\n      tag_119\n        /* \"@openzeppelin/contracts/access/AccessControl.sol\":3806:3828  hasRole(role, account) */\n      jump\t// in\n    tag_414:\n        /* \"@openzeppelin/contracts/access/AccessControl.sol\":3801:4204  if (!hasRole(role, account)) {... */\n      tag_415\n      jumpi\n        /* \"@openzeppelin/contracts/access/AccessControl.sol\":3989:4030  Strings.toHexString(uint160(account), 20) */\n      tag_416\n        /* \"@openzeppelin/contracts/access/AccessControl.sol\":4017:4024  account */\n      dup2\n        /* \"@openzeppelin/contracts/access/AccessControl.sol\":3989:4030  Strings.toHexString(uint160(account), 20) */\n      0xffffffffffffffffffffffffffffffffffffffff\n      and\n        /* \"@openzeppelin/contracts/access/AccessControl.sol\":4027:4029  20 */\n      0x14\n        /* \"@openzeppelin/contracts/access/AccessControl.sol\":3989:4008  Strings.toHexString */\n      tag_417\n        /* \"@openzeppelin/contracts/access/AccessControl.sol\":3989:4030  Strings.toHexString(uint160(account), 20) */\n      jump\t// in\n    tag_416:\n        /* \"@openzeppelin/contracts/access/AccessControl.sol\":4101:4139  Strings.toHexString(uint256(role), 32) */\n      tag_418\n        /* \"@openzeppelin/contracts/access/AccessControl.sol\":4129:4133  role */\n      dup4\n        /* \"@openzeppelin/contracts/access/AccessControl.sol\":4121:4134  uint256(role) */\n      0x00\n      shr\n        /* \"@openzeppelin/contracts/access/AccessControl.sol\":4136:4138  32 */\n      0x20\n        /* \"@openzeppelin/contracts/access/AccessControl.sol\":4101:4120  Strings.toHexString */\n      tag_417\n        /* \"@openzeppelin/contracts/access/AccessControl.sol\":4101:4139  Strings.toHexString(uint256(role), 32) */\n      jump\t// in\n    tag_418:\n        /* \"@openzeppelin/contracts/access/AccessControl.sol\":3896:4161  abi.encodePacked(... */\n      add(0x20, mload(0x40))\n      tag_419\n      swap3\n      swap2\n      swap1\n      tag_420\n      jump\t// in\n    tag_419:\n      mload(0x40)\n      0x20\n      dup2\n      dup4\n      sub\n      sub\n      dup2\n      mstore\n      swap1\n      0x40\n      mstore\n        /* \"@openzeppelin/contracts/access/AccessControl.sol\":3844:4193  revert(... */\n      mload(0x40)\n      0x08c379a000000000000000000000000000000000000000000000000000000000\n      dup2\n      mstore\n      0x04\n      add\n      tag_421\n      swap2\n      swap1\n      tag_47\n      jump\t// in\n    tag_421:\n      mload(0x40)\n      dup1\n      swap2\n      sub\n      swap1\n      revert\n        /* \"@openzeppelin/contracts/access/AccessControl.sol\":3801:4204  if (!hasRole(role, account)) {... */\n    tag_415:\n        /* \"@openzeppelin/contracts/access/AccessControl.sol\":3718:4210  function _checkRole(bytes32 role, address account) internal view virtual {... */\n      pop\n      pop\n      jump\t// out\n        /* \"@openzeppelin/contracts/utils/Strings.sol\":1652:2093  function toHexString(uint256 value, uint256 length) internal pure returns (string memory) {... */\n    tag_417:\n        /* \"@openzeppelin/contracts/utils/Strings.sol\":1727:1740  string memory */\n      0x60\n        /* \"@openzeppelin/contracts/utils/Strings.sol\":1752:1771  bytes memory buffer */\n      0x00\n        /* \"@openzeppelin/contracts/utils/Strings.sol\":1797:1798  2 */\n      0x02\n        /* \"@openzeppelin/contracts/utils/Strings.sol\":1788:1794  length */\n      dup4\n        /* \"@openzeppelin/contracts/utils/Strings.sol\":1784:1785  2 */\n      0x02\n        /* \"@openzeppelin/contracts/utils/Strings.sol\":1784:1794  2 * length */\n      tag_423\n      swap2\n      swap1\n      tag_244\n      jump\t// in\n    tag_423:\n        /* \"@openzeppelin/contracts/utils/Strings.sol\":1784:1798  2 * length + 2 */\n      tag_424\n      swap2\n      swap1\n      tag_236\n      jump\t// in\n    tag_424:\n        /* \"@openzeppelin/contracts/utils/Strings.sol\":1774:1799  new bytes(2 * length + 2) */\n      0xffffffffffffffff\n      dup2\n      gt\n      iszero\n      tag_425\n      jumpi\n      tag_426\n      tag_350\n      jump\t// in\n    tag_426:\n    tag_425:\n      mload(0x40)\n      swap1\n      dup1\n      dup3\n      mstore\n      dup1\n      0x1f\n      add\n      not(0x1f)\n      and\n      0x20\n      add\n      dup3\n      add\n      0x40\n      mstore\n      dup1\n      iszero\n      tag_427\n      jumpi\n      dup2\n      0x20\n      add\n      0x01\n      dup3\n      mul\n      dup1\n      calldatasize\n      dup4\n      calldatacopy\n      dup1\n      dup3\n      add\n      swap2\n      pop\n      pop\n      swap1\n      pop\n    tag_427:\n      pop\n        /* \"@openzeppelin/contracts/utils/Strings.sol\":1752:1799  bytes memory buffer = new bytes(2 * length + 2) */\n      swap1\n      pop\n        /* \"@openzeppelin/contracts/utils/Strings.sol\":1809:1824  buffer[0] = \"0\" */\n      0x3000000000000000000000000000000000000000000000000000000000000000\n        /* \"@openzeppelin/contracts/utils/Strings.sol\":1809:1815  buffer */\n      dup2\n        /* \"@openzeppelin/contracts/utils/Strings.sol\":1816:1817  0 */\n      0x00\n        /* \"@openzeppelin/contracts/utils/Strings.sol\":1809:1818  buffer[0] */\n      dup2\n      mload\n      dup2\n      lt\n      tag_428\n      jumpi\n      tag_429\n      tag_234\n      jump\t// in\n    tag_429:\n    tag_428:\n      0x20\n      add\n      add\n        /* \"@openzeppelin/contracts/utils/Strings.sol\":1809:1824  buffer[0] = \"0\" */\n      swap1\n      not(0xffffffffffffffffffffffffffffffffffffffffffffffffffffffffffffff)\n      and\n      swap1\n      dup2\n      0x00\n      byte\n      swap1\n      mstore8\n      pop\n        /* \"@openzeppelin/contracts/utils/Strings.sol\":1834:1849  buffer[1] = \"x\" */\n      0x7800000000000000000000000000000000000000000000000000000000000000\n        /* \"@openzeppelin/contracts/utils/Strings.sol\":1834:1840  buffer */\n      dup2\n        /* \"@openzeppelin/contracts/utils/Strings.sol\":1841:1842  1 */\n      0x01\n        /* \"@openzeppelin/contracts/utils/Strings.sol\":1834:1843  buffer[1] */\n      dup2\n      mload\n      dup2\n      lt\n      tag_430\n      jumpi\n      tag_431\n      tag_234\n      jump\t// in\n    tag_431:\n    tag_430:\n      0x20\n      add\n      add\n        /* \"@openzeppelin/contracts/utils/Strings.sol\":1834:1849  buffer[1] = \"x\" */\n      swap1\n      not(0xffffffffffffffffffffffffffffffffffffffffffffffffffffffffffffff)\n      and\n      swap1\n      dup2\n      0x00\n      byte\n      swap1\n      mstore8\n      pop\n        /* \"@openzeppelin/contracts/utils/Strings.sol\":1864:1873  uint256 i */\n      0x00\n        /* \"@openzeppelin/contracts/utils/Strings.sol\":1889:1890  1 */\n      0x01\n        /* \"@openzeppelin/contracts/utils/Strings.sol\":1880:1886  length */\n      dup5\n        /* \"@openzeppelin/contracts/utils/Strings.sol\":1876:1877  2 */\n      0x02\n        /* \"@openzeppelin/contracts/utils/Strings.sol\":1876:1886  2 * length */\n      tag_435\n      swap2\n      swap1\n      tag_244\n      jump\t// in\n    tag_435:\n        /* \"@openzeppelin/contracts/utils/Strings.sol\":1876:1890  2 * length + 1 */\n      tag_436\n      swap2\n      swap1\n      tag_236\n      jump\t// in\n    tag_436:\n        /* \"@openzeppelin/contracts/utils/Strings.sol\":1864:1890  uint256 i = 2 * length + 1 */\n      swap1\n      pop\n        /* \"@openzeppelin/contracts/utils/Strings.sol\":1859:1991  for (uint256 i = 2 * length + 1; i > 1; --i) {... */\n    tag_432:\n        /* \"@openzeppelin/contracts/utils/Strings.sol\":1896:1897  1 */\n      0x01\n        /* \"@openzeppelin/contracts/utils/Strings.sol\":1892:1893  i */\n      dup2\n        /* \"@openzeppelin/contracts/utils/Strings.sol\":1892:1897  i > 1 */\n      gt\n        /* \"@openzeppelin/contracts/utils/Strings.sol\":1859:1991  for (uint256 i = 2 * length + 1; i > 1; --i) {... */\n      iszero\n      tag_433\n      jumpi\n        /* \"@openzeppelin/contracts/utils/Strings.sol\":1930:1942  _HEX_SYMBOLS */\n      0x3031323334353637383961626364656600000000000000000000000000000000\n        /* \"@openzeppelin/contracts/utils/Strings.sol\":1951:1954  0xf */\n      0x0f\n        /* \"@openzeppelin/contracts/utils/Strings.sol\":1943:1948  value */\n      dup7\n        /* \"@openzeppelin/contracts/utils/Strings.sol\":1943:1954  value & 0xf */\n      and\n        /* \"@openzeppelin/contracts/utils/Strings.sol\":1930:1955  _HEX_SYMBOLS[value & 0xf] */\n      0x10\n      dup2\n      lt\n      tag_437\n      jumpi\n      tag_438\n      tag_234\n      jump\t// in\n    tag_438:\n    tag_437:\n      byte\n      0xf8\n      shl\n        /* \"@openzeppelin/contracts/utils/Strings.sol\":1918:1924  buffer */\n      dup3\n        /* \"@openzeppelin/contracts/utils/Strings.sol\":1925:1926  i */\n      dup3\n        /* \"@openzeppelin/contracts/utils/Strings.sol\":1918:1927  buffer[i] */\n      dup2\n      mload\n      dup2\n      lt\n      tag_439\n      jumpi\n      tag_440\n      tag_234\n      jump\t// in\n    tag_440:\n    tag_439:\n      0x20\n      add\n      add\n        /* \"@openzeppelin/contracts/utils/Strings.sol\":1918:1955  buffer[i] = _HEX_SYMBOLS[value & 0xf] */\n      swap1\n      not(0xffffffffffffffffffffffffffffffffffffffffffffffffffffffffffffff)\n      and\n      swap1\n      dup2\n      0x00\n      byte\n      swap1\n      mstore8\n      pop\n        /* \"@openzeppelin/contracts/utils/Strings.sol\":1979:1980  4 */\n      0x04\n        /* \"@openzeppelin/contracts/utils/Strings.sol\":1969:1980  value >>= 4 */\n      dup6\n      swap1\n      shr\n      swap5\n      pop\n        /* \"@openzeppelin/contracts/utils/Strings.sol\":1899:1902  --i */\n      dup1\n      tag_441\n      swap1\n      tag_442\n      jump\t// in\n    tag_441:\n      swap1\n      pop\n        /* \"@openzeppelin/contracts/utils/Strings.sol\":1859:1991  for (uint256 i = 2 * length + 1; i > 1; --i) {... */\n      jump(tag_432)\n    tag_433:\n      pop\n        /* \"@openzeppelin/contracts/utils/Strings.sol\":2017:2018  0 */\n      0x00\n        /* \"@openzeppelin/contracts/utils/Strings.sol\":2008:2013  value */\n      dup5\n        /* \"@openzeppelin/contracts/utils/Strings.sol\":2008:2018  value == 0 */\n      eq\n        /* \"@openzeppelin/contracts/utils/Strings.sol\":2000:2055  require(value == 0, \"Strings: hex length insufficient\") */\n      tag_443\n      jumpi\n      mload(0x40)\n      0x08c379a000000000000000000000000000000000000000000000000000000000\n      dup2\n      mstore\n      0x04\n      add\n      tag_444\n      swap1\n      tag_445\n      jump\t// in\n    tag_444:\n      mload(0x40)\n      dup1\n      swap2\n      sub\n      swap1\n      revert\n    tag_443:\n        /* \"@openzeppelin/contracts/utils/Strings.sol\":2079:2085  buffer */\n      dup1\n        /* \"@openzeppelin/contracts/utils/Strings.sol\":2065:2086  return string(buffer) */\n      swap2\n      pop\n      pop\n        /* \"@openzeppelin/contracts/utils/Strings.sol\":1652:2093  function toHexString(uint256 value, uint256 length) internal pure returns (string memory) {... */\n      swap3\n      swap2\n      pop\n      pop\n      jump\t// out\n    tag_250:\n      dup3\n      dup1\n      sload\n      dup3\n      dup3\n      sstore\n      swap1\n      0x00\n      mstore\n      keccak256(0x00, 0x20)\n      swap1\n      dup2\n      add\n      swap3\n      dup3\n      iszero\n      tag_446\n      jumpi\n      swap2\n      0x20\n      mul\n      dup3\n      add\n    tag_447:\n      dup3\n      dup2\n      gt\n      iszero\n      tag_448\n      jumpi\n      dup3\n      mload\n      dup3\n      sstore\n      swap2\n      0x20\n      add\n      swap2\n      swap1\n      0x01\n      add\n      swap1\n      jump(tag_447)\n    tag_448:\n    tag_446:\n      pop\n      swap1\n      pop\n      tag_449\n      swap2\n      swap1\n      tag_450\n      jump\t// in\n    tag_449:\n      pop\n      swap1\n      jump\t// out\n    tag_450:\n    tag_451:\n      dup1\n      dup3\n      gt\n      iszero\n      tag_452\n      jumpi\n      0x00\n      dup2\n      0x00\n      swap1\n      sstore\n      pop\n      0x01\n      add\n      jump(tag_451)\n    tag_452:\n      pop\n      swap1\n      jump\t// out\n        /* \"#utility.yul\":7:82   */\n    tag_453:\n        /* \"#utility.yul\":40:46   */\n      0x00\n        /* \"#utility.yul\":73:75   */\n      0x40\n        /* \"#utility.yul\":67:76   */\n      mload\n        /* \"#utility.yul\":57:76   */\n      swap1\n      pop\n        /* \"#utility.yul\":7:82   */\n      swap1\n      jump\t// out\n        /* \"#utility.yul\":88:205   */\n    tag_454:\n        /* \"#utility.yul\":197:198   */\n      0x00\n        /* \"#utility.yul\":194:195   */\n      dup1\n        /* \"#utility.yul\":187:199   */\n      revert\n        /* \"#utility.yul\":211:328   */\n    tag_455:\n        /* \"#utility.yul\":320:321   */\n      0x00\n        /* \"#utility.yul\":317:318   */\n      dup1\n        /* \"#utility.yul\":310:322   */\n      revert\n        /* \"#utility.yul\":334:483   */\n    tag_456:\n        /* \"#utility.yul\":370:377   */\n      0x00\n        /* \"#utility.yul\":410:476   */\n      0xffffffff00000000000000000000000000000000000000000000000000000000\n        /* \"#utility.yul\":403:408   */\n      dup3\n        /* \"#utility.yul\":399:477   */\n      and\n        /* \"#utility.yul\":388:477   */\n      swap1\n      pop\n        /* \"#utility.yul\":334:483   */\n      swap2\n      swap1\n      pop\n      jump\t// out\n        /* \"#utility.yul\":489:609   */\n    tag_457:\n        /* \"#utility.yul\":561:584   */\n      tag_578\n        /* \"#utility.yul\":578:583   */\n      dup2\n        /* \"#utility.yul\":561:584   */\n      tag_456\n      jump\t// in\n    tag_578:\n        /* \"#utility.yul\":554:559   */\n      dup2\n        /* \"#utility.yul\":551:585   */\n      eq\n        /* \"#utility.yul\":541:603   */\n      tag_579\n      jumpi\n        /* \"#utility.yul\":599:600   */\n      0x00\n        /* \"#utility.yul\":596:597   */\n      dup1\n        /* \"#utility.yul\":589:601   */\n      revert\n        /* \"#utility.yul\":541:603   */\n    tag_579:\n        /* \"#utility.yul\":489:609   */\n      pop\n      jump\t// out\n        /* \"#utility.yul\":615:752   */\n    tag_458:\n        /* \"#utility.yul\":660:665   */\n      0x00\n        /* \"#utility.yul\":698:704   */\n      dup2\n        /* \"#utility.yul\":685:705   */\n      calldataload\n        /* \"#utility.yul\":676:705   */\n      swap1\n      pop\n        /* \"#utility.yul\":714:746   */\n      tag_581\n        /* \"#utility.yul\":740:745   */\n      dup2\n        /* \"#utility.yul\":714:746   */\n      tag_457\n      jump\t// in\n    tag_581:\n        /* \"#utility.yul\":615:752   */\n      swap3\n      swap2\n      pop\n      pop\n      jump\t// out\n        /* \"#utility.yul\":758:1085   */\n    tag_40:\n        /* \"#utility.yul\":816:822   */\n      0x00\n        /* \"#utility.yul\":865:867   */\n      0x20\n        /* \"#utility.yul\":853:862   */\n      dup3\n        /* \"#utility.yul\":844:851   */\n      dup5\n        /* \"#utility.yul\":840:863   */\n      sub\n        /* \"#utility.yul\":836:868   */\n      slt\n        /* \"#utility.yul\":833:952   */\n      iszero\n      tag_583\n      jumpi\n        /* \"#utility.yul\":871:950   */\n      tag_584\n      tag_454\n      jump\t// in\n    tag_584:\n        /* \"#utility.yul\":833:952   */\n    tag_583:\n        /* \"#utility.yul\":991:992   */\n      0x00\n        /* \"#utility.yul\":1016:1068   */\n      tag_585\n        /* \"#utility.yul\":1060:1067   */\n      dup5\n        /* \"#utility.yul\":1051:1057   */\n      dup3\n        /* \"#utility.yul\":1040:1049   */\n      dup6\n        /* \"#utility.yul\":1036:1058   */\n      add\n        /* \"#utility.yul\":1016:1068   */\n      tag_458\n      jump\t// in\n    tag_585:\n        /* \"#utility.yul\":1006:1068   */\n      swap2\n      pop\n        /* \"#utility.yul\":962:1078   */\n      pop\n        /* \"#utility.yul\":758:1085   */\n      swap3\n      swap2\n      pop\n      pop\n      jump\t// out\n        /* \"#utility.yul\":1091:1181   */\n    tag_459:\n        /* \"#utility.yul\":1125:1132   */\n      0x00\n        /* \"#utility.yul\":1168:1173   */\n      dup2\n        /* \"#utility.yul\":1161:1174   */\n      iszero\n        /* \"#utility.yul\":1154:1175   */\n      iszero\n        /* \"#utility.yul\":1143:1175   */\n      swap1\n      pop\n        /* \"#utility.yul\":1091:1181   */\n      swap2\n      swap1\n      pop\n      jump\t// out\n        /* \"#utility.yul\":1187:1296   */\n    tag_460:\n        /* \"#utility.yul\":1268:1289   */\n      tag_588\n        /* \"#utility.yul\":1283:1288   */\n      dup2\n        /* \"#utility.yul\":1268:1289   */\n      tag_459\n      jump\t// in\n    tag_588:\n        /* \"#utility.yul\":1263:1266   */\n      dup3\n        /* \"#utility.yul\":1256:1290   */\n      mstore\n        /* \"#utility.yul\":1187:1296   */\n      pop\n      pop\n      jump\t// out\n        /* \"#utility.yul\":1302:1512   */\n    tag_43:\n        /* \"#utility.yul\":1389:1393   */\n      0x00\n        /* \"#utility.yul\":1427:1429   */\n      0x20\n        /* \"#utility.yul\":1416:1425   */\n      dup3\n        /* \"#utility.yul\":1412:1430   */\n      add\n        /* \"#utility.yul\":1404:1430   */\n      swap1\n      pop\n        /* \"#utility.yul\":1440:1505   */\n      tag_590\n        /* \"#utility.yul\":1502:1503   */\n      0x00\n        /* \"#utility.yul\":1491:1500   */\n      dup4\n        /* \"#utility.yul\":1487:1504   */\n      add\n        /* \"#utility.yul\":1478:1484   */\n      dup5\n        /* \"#utility.yul\":1440:1505   */\n      tag_460\n      jump\t// in\n    tag_590:\n        /* \"#utility.yul\":1302:1512   */\n      swap3\n      swap2\n      pop\n      pop\n      jump\t// out\n        /* \"#utility.yul\":1518:1617   */\n    tag_461:\n        /* \"#utility.yul\":1570:1576   */\n      0x00\n        /* \"#utility.yul\":1604:1609   */\n      dup2\n        /* \"#utility.yul\":1598:1610   */\n      mload\n        /* \"#utility.yul\":1588:1610   */\n      swap1\n      pop\n        /* \"#utility.yul\":1518:1617   */\n      swap2\n      swap1\n      pop\n      jump\t// out\n        /* \"#utility.yul\":1623:1792   */\n    tag_462:\n        /* \"#utility.yul\":1707:1718   */\n      0x00\n        /* \"#utility.yul\":1741:1747   */\n      dup3\n        /* \"#utility.yul\":1736:1739   */\n      dup3\n        /* \"#utility.yul\":1729:1748   */\n      mstore\n        /* \"#utility.yul\":1781:1785   */\n      0x20\n        /* \"#utility.yul\":1776:1779   */\n      dup3\n        /* \"#utility.yul\":1772:1786   */\n      add\n        /* \"#utility.yul\":1757:1786   */\n      swap1\n      pop\n        /* \"#utility.yul\":1623:1792   */\n      swap3\n      swap2\n      pop\n      pop\n      jump\t// out\n        /* \"#utility.yul\":1798:2044   */\n    tag_463:\n        /* \"#utility.yul\":1879:1880   */\n      0x00\n        /* \"#utility.yul\":1889:2002   */\n    tag_594:\n        /* \"#utility.yul\":1903:1909   */\n      dup4\n        /* \"#utility.yul\":1900:1901   */\n      dup2\n        /* \"#utility.yul\":1897:1910   */\n      lt\n        /* \"#utility.yul\":1889:2002   */\n      iszero\n      tag_596\n      jumpi\n        /* \"#utility.yul\":1988:1989   */\n      dup1\n        /* \"#utility.yul\":1983:1986   */\n      dup3\n        /* \"#utility.yul\":1979:1990   */\n      add\n        /* \"#utility.yul\":1973:1991   */\n      mload\n        /* \"#utility.yul\":1969:1970   */\n      dup2\n        /* \"#utility.yul\":1964:1967   */\n      dup5\n        /* \"#utility.yul\":1960:1971   */\n      add\n        /* \"#utility.yul\":1953:1992   */\n      mstore\n        /* \"#utility.yul\":1925:1927   */\n      0x20\n        /* \"#utility.yul\":1922:1923   */\n      dup2\n        /* \"#utility.yul\":1918:1928   */\n      add\n        /* \"#utility.yul\":1913:1928   */\n      swap1\n      pop\n        /* \"#utility.yul\":1889:2002   */\n      jump(tag_594)\n    tag_596:\n        /* \"#utility.yul\":2036:2037   */\n      0x00\n        /* \"#utility.yul\":2027:2033   */\n      dup5\n        /* \"#utility.yul\":2022:2025   */\n      dup5\n        /* \"#utility.yul\":2018:2034   */\n      add\n        /* \"#utility.yul\":2011:2038   */\n      mstore\n        /* \"#utility.yul\":1860:2044   */\n      pop\n        /* \"#utility.yul\":1798:2044   */\n      pop\n      pop\n      pop\n      jump\t// out\n        /* \"#utility.yul\":2050:2152   */\n    tag_464:\n        /* \"#utility.yul\":2091:2097   */\n      0x00\n        /* \"#utility.yul\":2142:2144   */\n      0x1f\n        /* \"#utility.yul\":2138:2145   */\n      not\n        /* \"#utility.yul\":2133:2135   */\n      0x1f\n        /* \"#utility.yul\":2126:2131   */\n      dup4\n        /* \"#utility.yul\":2122:2136   */\n      add\n        /* \"#utility.yul\":2118:2146   */\n      and\n        /* \"#utility.yul\":2108:2146   */\n      swap1\n      pop\n        /* \"#utility.yul\":2050:2152   */\n      swap2\n      swap1\n      pop\n      jump\t// out\n        /* \"#utility.yul\":2158:2535   */\n    tag_465:\n        /* \"#utility.yul\":2246:2249   */\n      0x00\n        /* \"#utility.yul\":2274:2313   */\n      tag_599\n        /* \"#utility.yul\":2307:2312   */\n      dup3\n        /* \"#utility.yul\":2274:2313   */\n      tag_461\n      jump\t// in\n    tag_599:\n        /* \"#utility.yul\":2329:2400   */\n      tag_600\n        /* \"#utility.yul\":2393:2399   */\n      dup2\n        /* \"#utility.yul\":2388:2391   */\n      dup6\n        /* \"#utility.yul\":2329:2400   */\n      tag_462\n      jump\t// in\n    tag_600:\n        /* \"#utility.yul\":2322:2400   */\n      swap4\n      pop\n        /* \"#utility.yul\":2409:2474   */\n      tag_601\n        /* \"#utility.yul\":2467:2473   */\n      dup2\n        /* \"#utility.yul\":2462:2465   */\n      dup6\n        /* \"#utility.yul\":2455:2459   */\n      0x20\n        /* \"#utility.yul\":2448:2453   */\n      dup7\n        /* \"#utility.yul\":2444:2460   */\n      add\n        /* \"#utility.yul\":2409:2474   */\n      tag_463\n      jump\t// in\n    tag_601:\n        /* \"#utility.yul\":2499:2528   */\n      tag_602\n        /* \"#utility.yul\":2521:2527   */\n      dup2\n        /* \"#utility.yul\":2499:2528   */\n      tag_464\n      jump\t// in\n    tag_602:\n        /* \"#utility.yul\":2494:2497   */\n      dup5\n        /* \"#utility.yul\":2490:2529   */\n      add\n        /* \"#utility.yul\":2483:2529   */\n      swap2\n      pop\n        /* \"#utility.yul\":2250:2535   */\n      pop\n        /* \"#utility.yul\":2158:2535   */\n      swap3\n      swap2\n      pop\n      pop\n      jump\t// out\n        /* \"#utility.yul\":2541:2854   */\n    tag_47:\n        /* \"#utility.yul\":2654:2658   */\n      0x00\n        /* \"#utility.yul\":2692:2694   */\n      0x20\n        /* \"#utility.yul\":2681:2690   */\n      dup3\n        /* \"#utility.yul\":2677:2695   */\n      add\n        /* \"#utility.yul\":2669:2695   */\n      swap1\n      pop\n        /* \"#utility.yul\":2741:2750   */\n      dup2\n        /* \"#utility.yul\":2735:2739   */\n      dup2\n        /* \"#utility.yul\":2731:2751   */\n      sub\n        /* \"#utility.yul\":2727:2728   */\n      0x00\n        /* \"#utility.yul\":2716:2725   */\n      dup4\n        /* \"#utility.yul\":2712:2729   */\n      add\n        /* \"#utility.yul\":2705:2752   */\n      mstore\n        /* \"#utility.yul\":2769:2847   */\n      tag_604\n        /* \"#utility.yul\":2842:2846   */\n      dup2\n        /* \"#utility.yul\":2833:2839   */\n      dup5\n        /* \"#utility.yul\":2769:2847   */\n      tag_465\n      jump\t// in\n    tag_604:\n        /* \"#utility.yul\":2761:2847   */\n      swap1\n      pop\n        /* \"#utility.yul\":2541:2854   */\n      swap3\n      swap2\n      pop\n      pop\n      jump\t// out\n        /* \"#utility.yul\":2860:2937   */\n    tag_466:\n        /* \"#utility.yul\":2897:2904   */\n      0x00\n        /* \"#utility.yul\":2926:2931   */\n      dup2\n        /* \"#utility.yul\":2915:2931   */\n      swap1\n      pop\n        /* \"#utility.yul\":2860:2937   */\n      swap2\n      swap1\n      pop\n      jump\t// out\n        /* \"#utility.yul\":2943:3065   */\n    tag_467:\n        /* \"#utility.yul\":3016:3040   */\n      tag_607\n        /* \"#utility.yul\":3034:3039   */\n      dup2\n        /* \"#utility.yul\":3016:3040   */\n      tag_466\n      jump\t// in\n    tag_607:\n        /* \"#utility.yul\":3009:3014   */\n      dup2\n        /* \"#utility.yul\":3006:3041   */\n      eq\n        /* \"#utility.yul\":2996:3059   */\n      tag_608\n      jumpi\n        /* \"#utility.yul\":3055:3056   */\n      0x00\n        /* \"#utility.yul\":3052:3053   */\n      dup1\n        /* \"#utility.yul\":3045:3057   */\n      revert\n        /* \"#utility.yul\":2996:3059   */\n    tag_608:\n        /* \"#utility.yul\":2943:3065   */\n      pop\n      jump\t// out\n        /* \"#utility.yul\":3071:3210   */\n    tag_468:\n        /* \"#utility.yul\":3117:3122   */\n      0x00\n        /* \"#utility.yul\":3155:3161   */\n      dup2\n        /* \"#utility.yul\":3142:3162   */\n      calldataload\n        /* \"#utility.yul\":3133:3162   */\n      swap1\n      pop\n        /* \"#utility.yul\":3171:3204   */\n      tag_610\n        /* \"#utility.yul\":3198:3203   */\n      dup2\n        /* \"#utility.yul\":3171:3204   */\n      tag_467\n      jump\t// in\n    tag_610:\n        /* \"#utility.yul\":3071:3210   */\n      swap3\n      swap2\n      pop\n      pop\n      jump\t// out\n        /* \"#utility.yul\":3216:3690   */\n    tag_50:\n        /* \"#utility.yul\":3284:3290   */\n      0x00\n        /* \"#utility.yul\":3292:3298   */\n      dup1\n        /* \"#utility.yul\":3341:3343   */\n      0x40\n        /* \"#utility.yul\":3329:3338   */\n      dup4\n        /* \"#utility.yul\":3320:3327   */\n      dup6\n        /* \"#utility.yul\":3316:3339   */\n      sub\n        /* \"#utility.yul\":3312:3344   */\n      slt\n        /* \"#utility.yul\":3309:3428   */\n      iszero\n      tag_612\n      jumpi\n        /* \"#utility.yul\":3347:3426   */\n      tag_613\n      tag_454\n      jump\t// in\n    tag_613:\n        /* \"#utility.yul\":3309:3428   */\n    tag_612:\n        /* \"#utility.yul\":3467:3468   */\n      0x00\n        /* \"#utility.yul\":3492:3545   */\n      tag_614\n        /* \"#utility.yul\":3537:3544   */\n      dup6\n        /* \"#utility.yul\":3528:3534   */\n      dup3\n        /* \"#utility.yul\":3517:3526   */\n      dup7\n        /* \"#utility.yul\":3513:3535   */\n      add\n        /* \"#utility.yul\":3492:3545   */\n      tag_468\n      jump\t// in\n    tag_614:\n        /* \"#utility.yul\":3482:3545   */\n      swap3\n      pop\n        /* \"#utility.yul\":3438:3555   */\n      pop\n        /* \"#utility.yul\":3594:3596   */\n      0x20\n        /* \"#utility.yul\":3620:3673   */\n      tag_615\n        /* \"#utility.yul\":3665:3672   */\n      dup6\n        /* \"#utility.yul\":3656:3662   */\n      dup3\n        /* \"#utility.yul\":3645:3654   */\n      dup7\n        /* \"#utility.yul\":3641:3663   */\n      add\n        /* \"#utility.yul\":3620:3673   */\n      tag_468\n      jump\t// in\n    tag_615:\n        /* \"#utility.yul\":3610:3673   */\n      swap2\n      pop\n        /* \"#utility.yul\":3565:3683   */\n      pop\n        /* \"#utility.yul\":3216:3690   */\n      swap3\n      pop\n      swap3\n      swap1\n      pop\n      jump\t// out\n        /* \"#utility.yul\":3696:3814   */\n    tag_469:\n        /* \"#utility.yul\":3783:3807   */\n      tag_617\n        /* \"#utility.yul\":3801:3806   */\n      dup2\n        /* \"#utility.yul\":3783:3807   */\n      tag_466\n      jump\t// in\n    tag_617:\n        /* \"#utility.yul\":3778:3781   */\n      dup3\n        /* \"#utility.yul\":3771:3808   */\n      mstore\n        /* \"#utility.yul\":3696:3814   */\n      pop\n      pop\n      jump\t// out\n        /* \"#utility.yul\":3820:4042   */\n    tag_53:\n        /* \"#utility.yul\":3913:3917   */\n      0x00\n        /* \"#utility.yul\":3951:3953   */\n      0x20\n        /* \"#utility.yul\":3940:3949   */\n      dup3\n        /* \"#utility.yul\":3936:3954   */\n      add\n        /* \"#utility.yul\":3928:3954   */\n      swap1\n      pop\n        /* \"#utility.yul\":3964:4035   */\n      tag_619\n        /* \"#utility.yul\":4032:4033   */\n      0x00\n        /* \"#utility.yul\":4021:4030   */\n      dup4\n        /* \"#utility.yul\":4017:4034   */\n      add\n        /* \"#utility.yul\":4008:4014   */\n      dup5\n        /* \"#utility.yul\":3964:4035   */\n      tag_469\n      jump\t// in\n    tag_619:\n        /* \"#utility.yul\":3820:4042   */\n      swap3\n      swap2\n      pop\n      pop\n      jump\t// out\n        /* \"#utility.yul\":4048:4377   */\n    tag_56:\n        /* \"#utility.yul\":4107:4113   */\n      0x00\n        /* \"#utility.yul\":4156:4158   */\n      0x20\n        /* \"#utility.yul\":4144:4153   */\n      dup3\n        /* \"#utility.yul\":4135:4142   */\n      dup5\n        /* \"#utility.yul\":4131:4154   */\n      sub\n        /* \"#utility.yul\":4127:4159   */\n      slt\n        /* \"#utility.yul\":4124:4243   */\n      iszero\n      tag_621\n      jumpi\n        /* \"#utility.yul\":4162:4241   */\n      tag_622\n      tag_454\n      jump\t// in\n    tag_622:\n        /* \"#utility.yul\":4124:4243   */\n    tag_621:\n        /* \"#utility.yul\":4282:4283   */\n      0x00\n        /* \"#utility.yul\":4307:4360   */\n      tag_623\n        /* \"#utility.yul\":4352:4359   */\n      dup5\n        /* \"#utility.yul\":4343:4349   */\n      dup3\n        /* \"#utility.yul\":4332:4341   */\n      dup6\n        /* \"#utility.yul\":4328:4350   */\n      add\n        /* \"#utility.yul\":4307:4360   */\n      tag_468\n      jump\t// in\n    tag_623:\n        /* \"#utility.yul\":4297:4360   */\n      swap2\n      pop\n        /* \"#utility.yul\":4253:4370   */\n      pop\n        /* \"#utility.yul\":4048:4377   */\n      swap3\n      swap2\n      pop\n      pop\n      jump\t// out\n        /* \"#utility.yul\":4383:4916   */\n    tag_59:\n        /* \"#utility.yul\":4552:4556   */\n      0x00\n        /* \"#utility.yul\":4590:4592   */\n      0x60\n        /* \"#utility.yul\":4579:4588   */\n      dup3\n        /* \"#utility.yul\":4575:4593   */\n      add\n        /* \"#utility.yul\":4567:4593   */\n      swap1\n      pop\n        /* \"#utility.yul\":4603:4674   */\n      tag_625\n        /* \"#utility.yul\":4671:4672   */\n      0x00\n        /* \"#utility.yul\":4660:4669   */\n      dup4\n        /* \"#utility.yul\":4656:4673   */\n      add\n        /* \"#utility.yul\":4647:4653   */\n      dup7\n        /* \"#utility.yul\":4603:4674   */\n      tag_469\n      jump\t// in\n    tag_625:\n        /* \"#utility.yul\":4684:4756   */\n      tag_626\n        /* \"#utility.yul\":4752:4754   */\n      0x20\n        /* \"#utility.yul\":4741:4750   */\n      dup4\n        /* \"#utility.yul\":4737:4755   */\n      add\n        /* \"#utility.yul\":4728:4734   */\n      dup6\n        /* \"#utility.yul\":4684:4756   */\n      tag_469\n      jump\t// in\n    tag_626:\n        /* \"#utility.yul\":4803:4812   */\n      dup2\n        /* \"#utility.yul\":4797:4801   */\n      dup2\n        /* \"#utility.yul\":4793:4813   */\n      sub\n        /* \"#utility.yul\":4788:4790   */\n      0x40\n        /* \"#utility.yul\":4777:4786   */\n      dup4\n        /* \"#utility.yul\":4773:4791   */\n      add\n        /* \"#utility.yul\":4766:4814   */\n      mstore\n        /* \"#utility.yul\":4831:4909   */\n      tag_627\n        /* \"#utility.yul\":4904:4908   */\n      dup2\n        /* \"#utility.yul\":4895:4901   */\n      dup5\n        /* \"#utility.yul\":4831:4909   */\n      tag_465\n      jump\t// in\n    tag_627:\n        /* \"#utility.yul\":4823:4909   */\n      swap1\n      pop\n        /* \"#utility.yul\":4383:4916   */\n      swap5\n      swap4\n      pop\n      pop\n      pop\n      pop\n      jump\t// out\n        /* \"#utility.yul\":4922:4999   */\n    tag_470:\n        /* \"#utility.yul\":4959:4966   */\n      0x00\n        /* \"#utility.yul\":4988:4993   */\n      dup2\n        /* \"#utility.yul\":4977:4993   */\n      swap1\n      pop\n        /* \"#utility.yul\":4922:4999   */\n      swap2\n      swap1\n      pop\n      jump\t// out\n        /* \"#utility.yul\":5005:5127   */\n    tag_471:\n        /* \"#utility.yul\":5078:5102   */\n      tag_630\n        /* \"#utility.yul\":5096:5101   */\n      dup2\n        /* \"#utility.yul\":5078:5102   */\n      tag_470\n      jump\t// in\n    tag_630:\n        /* \"#utility.yul\":5071:5076   */\n      dup2\n        /* \"#utility.yul\":5068:5103   */\n      eq\n        /* \"#utility.yul\":5058:5121   */\n      tag_631\n      jumpi\n        /* \"#utility.yul\":5117:5118   */\n      0x00\n        /* \"#utility.yul\":5114:5115   */\n      dup1\n        /* \"#utility.yul\":5107:5119   */\n      revert\n        /* \"#utility.yul\":5058:5121   */\n    tag_631:\n        /* \"#utility.yul\":5005:5127   */\n      pop\n      jump\t// out\n        /* \"#utility.yul\":5133:5272   */\n    tag_472:\n        /* \"#utility.yul\":5179:5184   */\n      0x00\n        /* \"#utility.yul\":5217:5223   */\n      dup2\n        /* \"#utility.yul\":5204:5224   */\n      calldataload\n        /* \"#utility.yul\":5195:5224   */\n      swap1\n      pop\n        /* \"#utility.yul\":5233:5266   */\n      tag_633\n        /* \"#utility.yul\":5260:5265   */\n      dup2\n        /* \"#utility.yul\":5233:5266   */\n      tag_471\n      jump\t// in\n    tag_633:\n        /* \"#utility.yul\":5133:5272   */\n      swap3\n      swap2\n      pop\n      pop\n      jump\t// out\n        /* \"#utility.yul\":5278:5607   */\n    tag_62:\n        /* \"#utility.yul\":5337:5343   */\n      0x00\n        /* \"#utility.yul\":5386:5388   */\n      0x20\n        /* \"#utility.yul\":5374:5383   */\n      dup3\n        /* \"#utility.yul\":5365:5372   */\n      dup5\n        /* \"#utility.yul\":5361:5384   */\n      sub\n        /* \"#utility.yul\":5357:5389   */\n      slt\n        /* \"#utility.yul\":5354:5473   */\n      iszero\n      tag_635\n      jumpi\n        /* \"#utility.yul\":5392:5471   */\n      tag_636\n      tag_454\n      jump\t// in\n    tag_636:\n        /* \"#utility.yul\":5354:5473   */\n    tag_635:\n        /* \"#utility.yul\":5512:5513   */\n      0x00\n        /* \"#utility.yul\":5537:5590   */\n      tag_637\n        /* \"#utility.yul\":5582:5589   */\n      dup5\n        /* \"#utility.yul\":5573:5579   */\n      dup3\n        /* \"#utility.yul\":5562:5571   */\n      dup6\n        /* \"#utility.yul\":5558:5580   */\n      add\n        /* \"#utility.yul\":5537:5590   */\n      tag_472\n      jump\t// in\n    tag_637:\n        /* \"#utility.yul\":5527:5590   */\n      swap2\n      pop\n        /* \"#utility.yul\":5483:5600   */\n      pop\n        /* \"#utility.yul\":5278:5607   */\n      swap3\n      swap2\n      pop\n      pop\n      jump\t// out\n        /* \"#utility.yul\":5613:5731   */\n    tag_473:\n        /* \"#utility.yul\":5700:5724   */\n      tag_639\n        /* \"#utility.yul\":5718:5723   */\n      dup2\n        /* \"#utility.yul\":5700:5724   */\n      tag_470\n      jump\t// in\n    tag_639:\n        /* \"#utility.yul\":5695:5698   */\n      dup3\n        /* \"#utility.yul\":5688:5725   */\n      mstore\n        /* \"#utility.yul\":5613:5731   */\n      pop\n      pop\n      jump\t// out\n        /* \"#utility.yul\":5737:5959   */\n    tag_65:\n        /* \"#utility.yul\":5830:5834   */\n      0x00\n        /* \"#utility.yul\":5868:5870   */\n      0x20\n        /* \"#utility.yul\":5857:5866   */\n      dup3\n        /* \"#utility.yul\":5853:5871   */\n      add\n        /* \"#utility.yul\":5845:5871   */\n      swap1\n      pop\n        /* \"#utility.yul\":5881:5952   */\n      tag_641\n        /* \"#utility.yul\":5949:5950   */\n      0x00\n        /* \"#utility.yul\":5938:5947   */\n      dup4\n        /* \"#utility.yul\":5934:5951   */\n      add\n        /* \"#utility.yul\":5925:5931   */\n      dup5\n        /* \"#utility.yul\":5881:5952   */\n      tag_473\n      jump\t// in\n    tag_641:\n        /* \"#utility.yul\":5737:5959   */\n      swap3\n      swap2\n      pop\n      pop\n      jump\t// out\n        /* \"#utility.yul\":5965:6091   */\n    tag_474:\n        /* \"#utility.yul\":6002:6009   */\n      0x00\n        /* \"#utility.yul\":6042:6084   */\n      0xffffffffffffffffffffffffffffffffffffffff\n        /* \"#utility.yul\":6035:6040   */\n      dup3\n        /* \"#utility.yul\":6031:6085   */\n      and\n        /* \"#utility.yul\":6020:6085   */\n      swap1\n      pop\n        /* \"#utility.yul\":5965:6091   */\n      swap2\n      swap1\n      pop\n      jump\t// out\n        /* \"#utility.yul\":6097:6193   */\n    tag_475:\n        /* \"#utility.yul\":6134:6141   */\n      0x00\n        /* \"#utility.yul\":6163:6187   */\n      tag_644\n        /* \"#utility.yul\":6181:6186   */\n      dup3\n        /* \"#utility.yul\":6163:6187   */\n      tag_474\n      jump\t// in\n    tag_644:\n        /* \"#utility.yul\":6152:6187   */\n      swap1\n      pop\n        /* \"#utility.yul\":6097:6193   */\n      swap2\n      swap1\n      pop\n      jump\t// out\n        /* \"#utility.yul\":6199:6321   */\n    tag_476:\n        /* \"#utility.yul\":6272:6296   */\n      tag_646\n        /* \"#utility.yul\":6290:6295   */\n      dup2\n        /* \"#utility.yul\":6272:6296   */\n      tag_475\n      jump\t// in\n    tag_646:\n        /* \"#utility.yul\":6265:6270   */\n      dup2\n        /* \"#utility.yul\":6262:6297   */\n      eq\n        /* \"#utility.yul\":6252:6315   */\n      tag_647\n      jumpi\n        /* \"#utility.yul\":6311:6312   */\n      0x00\n        /* \"#utility.yul\":6308:6309   */\n      dup1\n        /* \"#utility.yul\":6301:6313   */\n      revert\n        /* \"#utility.yul\":6252:6315   */\n    tag_647:\n        /* \"#utility.yul\":6199:6321   */\n      pop\n      jump\t// out\n        /* \"#utility.yul\":6327:6466   */\n    tag_477:\n        /* \"#utility.yul\":6373:6378   */\n      0x00\n        /* \"#utility.yul\":6411:6417   */\n      dup2\n        /* \"#utility.yul\":6398:6418   */\n      calldataload\n        /* \"#utility.yul\":6389:6418   */\n      swap1\n      pop\n        /* \"#utility.yul\":6427:6460   */\n      tag_649\n        /* \"#utility.yul\":6454:6459   */\n      dup2\n        /* \"#utility.yul\":6427:6460   */\n      tag_476\n      jump\t// in\n    tag_649:\n        /* \"#utility.yul\":6327:6466   */\n      swap3\n      swap2\n      pop\n      pop\n      jump\t// out\n        /* \"#utility.yul\":6472:6946   */\n    tag_71:\n        /* \"#utility.yul\":6540:6546   */\n      0x00\n        /* \"#utility.yul\":6548:6554   */\n      dup1\n        /* \"#utility.yul\":6597:6599   */\n      0x40\n        /* \"#utility.yul\":6585:6594   */\n      dup4\n        /* \"#utility.yul\":6576:6583   */\n      dup6\n        /* \"#utility.yul\":6572:6595   */\n      sub\n        /* \"#utility.yul\":6568:6600   */\n      slt\n        /* \"#utility.yul\":6565:6684   */\n      iszero\n      tag_651\n      jumpi\n        /* \"#utility.yul\":6603:6682   */\n      tag_652\n      tag_454\n      jump\t// in\n    tag_652:\n        /* \"#utility.yul\":6565:6684   */\n    tag_651:\n        /* \"#utility.yul\":6723:6724   */\n      0x00\n        /* \"#utility.yul\":6748:6801   */\n      tag_653\n        /* \"#utility.yul\":6793:6800   */\n      dup6\n        /* \"#utility.yul\":6784:6790   */\n      dup3\n        /* \"#utility.yul\":6773:6782   */\n      dup7\n        /* \"#utility.yul\":6769:6791   */\n      add\n        /* \"#utility.yul\":6748:6801   */\n      tag_472\n      jump\t// in\n    tag_653:\n        /* \"#utility.yul\":6738:6801   */\n      swap3\n      pop\n        /* \"#utility.yul\":6694:6811   */\n      pop\n        /* \"#utility.yul\":6850:6852   */\n      0x20\n        /* \"#utility.yul\":6876:6929   */\n      tag_654\n        /* \"#utility.yul\":6921:6928   */\n      dup6\n        /* \"#utility.yul\":6912:6918   */\n      dup3\n        /* \"#utility.yul\":6901:6910   */\n      dup7\n        /* \"#utility.yul\":6897:6919   */\n      add\n        /* \"#utility.yul\":6876:6929   */\n      tag_477\n      jump\t// in\n    tag_654:\n        /* \"#utility.yul\":6866:6929   */\n      swap2\n      pop\n        /* \"#utility.yul\":6821:6939   */\n      pop\n        /* \"#utility.yul\":6472:6946   */\n      swap3\n      pop\n      swap3\n      swap1\n      pop\n      jump\t// out\n        /* \"#utility.yul\":6952:7069   */\n    tag_478:\n        /* \"#utility.yul\":7061:7062   */\n      0x00\n        /* \"#utility.yul\":7058:7059   */\n      dup1\n        /* \"#utility.yul\":7051:7063   */\n      revert\n        /* \"#utility.yul\":7075:7255   */\n    tag_350:\n        /* \"#utility.yul\":7123:7200   */\n      0x4e487b7100000000000000000000000000000000000000000000000000000000\n        /* \"#utility.yul\":7120:7121   */\n      0x00\n        /* \"#utility.yul\":7113:7201   */\n      mstore\n        /* \"#utility.yul\":7220:7224   */\n      0x41\n        /* \"#utility.yul\":7217:7218   */\n      0x04\n        /* \"#utility.yul\":7210:7225   */\n      mstore\n        /* \"#utility.yul\":7244:7248   */\n      0x24\n        /* \"#utility.yul\":7241:7242   */\n      0x00\n        /* \"#utility.yul\":7234:7249   */\n      revert\n        /* \"#utility.yul\":7261:7542   */\n    tag_479:\n        /* \"#utility.yul\":7344:7371   */\n      tag_658\n        /* \"#utility.yul\":7366:7370   */\n      dup3\n        /* \"#utility.yul\":7344:7371   */\n      tag_464\n      jump\t// in\n    tag_658:\n        /* \"#utility.yul\":7336:7342   */\n      dup2\n        /* \"#utility.yul\":7332:7372   */\n      add\n        /* \"#utility.yul\":7474:7480   */\n      dup2\n        /* \"#utility.yul\":7462:7472   */\n      dup2\n        /* \"#utility.yul\":7459:7481   */\n      lt\n        /* \"#utility.yul\":7438:7456   */\n      0xffffffffffffffff\n        /* \"#utility.yul\":7426:7436   */\n      dup3\n        /* \"#utility.yul\":7423:7457   */\n      gt\n        /* \"#utility.yul\":7420:7482   */\n      or\n        /* \"#utility.yul\":7417:7505   */\n      iszero\n      tag_659\n      jumpi\n        /* \"#utility.yul\":7485:7503   */\n      tag_660\n      tag_350\n      jump\t// in\n    tag_660:\n        /* \"#utility.yul\":7417:7505   */\n    tag_659:\n        /* \"#utility.yul\":7525:7535   */\n      dup1\n        /* \"#utility.yul\":7521:7523   */\n      0x40\n        /* \"#utility.yul\":7514:7536   */\n      mstore\n        /* \"#utility.yul\":7304:7542   */\n      pop\n        /* \"#utility.yul\":7261:7542   */\n      pop\n      pop\n      jump\t// out\n        /* \"#utility.yul\":7548:7677   */\n    tag_480:\n        /* \"#utility.yul\":7582:7588   */\n      0x00\n        /* \"#utility.yul\":7609:7629   */\n      tag_662\n      tag_453\n      jump\t// in\n    tag_662:\n        /* \"#utility.yul\":7599:7629   */\n      swap1\n      pop\n        /* \"#utility.yul\":7638:7671   */\n      tag_663\n        /* \"#utility.yul\":7666:7670   */\n      dup3\n        /* \"#utility.yul\":7658:7664   */\n      dup3\n        /* \"#utility.yul\":7638:7671   */\n      tag_479\n      jump\t// in\n    tag_663:\n        /* \"#utility.yul\":7548:7677   */\n      swap2\n      swap1\n      pop\n      jump\t// out\n        /* \"#utility.yul\":7683:7994   */\n    tag_481:\n        /* \"#utility.yul\":7760:7764   */\n      0x00\n        /* \"#utility.yul\":7850:7868   */\n      0xffffffffffffffff\n        /* \"#utility.yul\":7842:7848   */\n      dup3\n        /* \"#utility.yul\":7839:7869   */\n      gt\n        /* \"#utility.yul\":7836:7892   */\n      iszero\n      tag_665\n      jumpi\n        /* \"#utility.yul\":7872:7890   */\n      tag_666\n      tag_350\n      jump\t// in\n    tag_666:\n        /* \"#utility.yul\":7836:7892   */\n    tag_665:\n        /* \"#utility.yul\":7922:7926   */\n      0x20\n        /* \"#utility.yul\":7914:7920   */\n      dup3\n        /* \"#utility.yul\":7910:7927   */\n      mul\n        /* \"#utility.yul\":7902:7927   */\n      swap1\n      pop\n        /* \"#utility.yul\":7982:7986   */\n      0x20\n        /* \"#utility.yul\":7976:7980   */\n      dup2\n        /* \"#utility.yul\":7972:7987   */\n      add\n        /* \"#utility.yul\":7964:7987   */\n      swap1\n      pop\n        /* \"#utility.yul\":7683:7994   */\n      swap2\n      swap1\n      pop\n      jump\t// out\n        /* \"#utility.yul\":8000:8117   */\n    tag_482:\n        /* \"#utility.yul\":8109:8110   */\n      0x00\n        /* \"#utility.yul\":8106:8107   */\n      dup1\n        /* \"#utility.yul\":8099:8111   */\n      revert\n        /* \"#utility.yul\":8140:8850   */\n    tag_483:\n        /* \"#utility.yul\":8236:8241   */\n      0x00\n        /* \"#utility.yul\":8261:8342   */\n      tag_669\n        /* \"#utility.yul\":8277:8341   */\n      tag_670\n        /* \"#utility.yul\":8334:8340   */\n      dup5\n        /* \"#utility.yul\":8277:8341   */\n      tag_481\n      jump\t// in\n    tag_670:\n        /* \"#utility.yul\":8261:8342   */\n      tag_480\n      jump\t// in\n    tag_669:\n        /* \"#utility.yul\":8252:8342   */\n      swap1\n      pop\n        /* \"#utility.yul\":8362:8367   */\n      dup1\n        /* \"#utility.yul\":8391:8397   */\n      dup4\n        /* \"#utility.yul\":8384:8389   */\n      dup3\n        /* \"#utility.yul\":8377:8398   */\n      mstore\n        /* \"#utility.yul\":8425:8429   */\n      0x20\n        /* \"#utility.yul\":8418:8423   */\n      dup3\n        /* \"#utility.yul\":8414:8430   */\n      add\n        /* \"#utility.yul\":8407:8430   */\n      swap1\n      pop\n        /* \"#utility.yul\":8478:8482   */\n      0x20\n        /* \"#utility.yul\":8470:8476   */\n      dup5\n        /* \"#utility.yul\":8466:8483   */\n      mul\n        /* \"#utility.yul\":8458:8464   */\n      dup4\n        /* \"#utility.yul\":8454:8484   */\n      add\n        /* \"#utility.yul\":8507:8510   */\n      dup6\n        /* \"#utility.yul\":8499:8505   */\n      dup2\n        /* \"#utility.yul\":8496:8511   */\n      gt\n        /* \"#utility.yul\":8493:8615   */\n      iszero\n      tag_671\n      jumpi\n        /* \"#utility.yul\":8526:8605   */\n      tag_672\n      tag_482\n      jump\t// in\n    tag_672:\n        /* \"#utility.yul\":8493:8615   */\n    tag_671:\n        /* \"#utility.yul\":8641:8647   */\n      dup4\n        /* \"#utility.yul\":8624:8844   */\n    tag_673:\n        /* \"#utility.yul\":8658:8664   */\n      dup2\n        /* \"#utility.yul\":8653:8656   */\n      dup2\n        /* \"#utility.yul\":8650:8665   */\n      lt\n        /* \"#utility.yul\":8624:8844   */\n      iszero\n      tag_675\n      jumpi\n        /* \"#utility.yul\":8733:8736   */\n      dup1\n        /* \"#utility.yul\":8762:8799   */\n      tag_676\n        /* \"#utility.yul\":8795:8798   */\n      dup9\n        /* \"#utility.yul\":8783:8793   */\n      dup3\n        /* \"#utility.yul\":8762:8799   */\n      tag_468\n      jump\t// in\n    tag_676:\n        /* \"#utility.yul\":8757:8760   */\n      dup5\n        /* \"#utility.yul\":8750:8800   */\n      mstore\n        /* \"#utility.yul\":8829:8833   */\n      0x20\n        /* \"#utility.yul\":8824:8827   */\n      dup5\n        /* \"#utility.yul\":8820:8834   */\n      add\n        /* \"#utility.yul\":8813:8834   */\n      swap4\n      pop\n        /* \"#utility.yul\":8700:8844   */\n      pop\n        /* \"#utility.yul\":8684:8688   */\n      0x20\n        /* \"#utility.yul\":8679:8682   */\n      dup2\n        /* \"#utility.yul\":8675:8689   */\n      add\n        /* \"#utility.yul\":8668:8689   */\n      swap1\n      pop\n        /* \"#utility.yul\":8624:8844   */\n      jump(tag_673)\n    tag_675:\n        /* \"#utility.yul\":8628:8649   */\n      pop\n        /* \"#utility.yul\":8242:8850   */\n      pop\n      pop\n        /* \"#utility.yul\":8140:8850   */\n      swap4\n      swap3\n      pop\n      pop\n      pop\n      jump\t// out\n        /* \"#utility.yul\":8873:9243   */\n    tag_484:\n        /* \"#utility.yul\":8944:8949   */\n      0x00\n        /* \"#utility.yul\":8993:8996   */\n      dup3\n        /* \"#utility.yul\":8986:8990   */\n      0x1f\n        /* \"#utility.yul\":8978:8984   */\n      dup4\n        /* \"#utility.yul\":8974:8991   */\n      add\n        /* \"#utility.yul\":8970:8997   */\n      slt\n        /* \"#utility.yul\":8960:9082   */\n      tag_678\n      jumpi\n        /* \"#utility.yul\":9001:9080   */\n      tag_679\n      tag_478\n      jump\t// in\n    tag_679:\n        /* \"#utility.yul\":8960:9082   */\n    tag_678:\n        /* \"#utility.yul\":9118:9124   */\n      dup2\n        /* \"#utility.yul\":9105:9125   */\n      calldataload\n        /* \"#utility.yul\":9143:9237   */\n      tag_680\n        /* \"#utility.yul\":9233:9236   */\n      dup5\n        /* \"#utility.yul\":9225:9231   */\n      dup3\n        /* \"#utility.yul\":9218:9222   */\n      0x20\n        /* \"#utility.yul\":9210:9216   */\n      dup7\n        /* \"#utility.yul\":9206:9223   */\n      add\n        /* \"#utility.yul\":9143:9237   */\n      tag_483\n      jump\t// in\n    tag_680:\n        /* \"#utility.yul\":9134:9237   */\n      swap2\n      pop\n        /* \"#utility.yul\":8950:9243   */\n      pop\n        /* \"#utility.yul\":8873:9243   */\n      swap3\n      swap2\n      pop\n      pop\n      jump\t// out\n        /* \"#utility.yul\":9249:9933   */\n    tag_75:\n        /* \"#utility.yul\":9342:9348   */\n      0x00\n        /* \"#utility.yul\":9350:9356   */\n      dup1\n        /* \"#utility.yul\":9399:9401   */\n      0x40\n        /* \"#utility.yul\":9387:9396   */\n      dup4\n        /* \"#utility.yul\":9378:9385   */\n      dup6\n        /* \"#utility.yul\":9374:9397   */\n      sub\n        /* \"#utility.yul\":9370:9402   */\n      slt\n        /* \"#utility.yul\":9367:9486   */\n      iszero\n      tag_682\n      jumpi\n        /* \"#utility.yul\":9405:9484   */\n      tag_683\n      tag_454\n      jump\t// in\n    tag_683:\n        /* \"#utility.yul\":9367:9486   */\n    tag_682:\n        /* \"#utility.yul\":9525:9526   */\n      0x00\n        /* \"#utility.yul\":9550:9603   */\n      tag_684\n        /* \"#utility.yul\":9595:9602   */\n      dup6\n        /* \"#utility.yul\":9586:9592   */\n      dup3\n        /* \"#utility.yul\":9575:9584   */\n      dup7\n        /* \"#utility.yul\":9571:9593   */\n      add\n        /* \"#utility.yul\":9550:9603   */\n      tag_468\n      jump\t// in\n    tag_684:\n        /* \"#utility.yul\":9540:9603   */\n      swap3\n      pop\n        /* \"#utility.yul\":9496:9613   */\n      pop\n        /* \"#utility.yul\":9680:9682   */\n      0x20\n        /* \"#utility.yul\":9669:9678   */\n      dup4\n        /* \"#utility.yul\":9665:9683   */\n      add\n        /* \"#utility.yul\":9652:9684   */\n      calldataload\n        /* \"#utility.yul\":9711:9729   */\n      0xffffffffffffffff\n        /* \"#utility.yul\":9703:9709   */\n      dup2\n        /* \"#utility.yul\":9700:9730   */\n      gt\n        /* \"#utility.yul\":9697:9814   */\n      iszero\n      tag_685\n      jumpi\n        /* \"#utility.yul\":9733:9812   */\n      tag_686\n      tag_455\n      jump\t// in\n    tag_686:\n        /* \"#utility.yul\":9697:9814   */\n    tag_685:\n        /* \"#utility.yul\":9838:9916   */\n      tag_687\n        /* \"#utility.yul\":9908:9915   */\n      dup6\n        /* \"#utility.yul\":9899:9905   */\n      dup3\n        /* \"#utility.yul\":9888:9897   */\n      dup7\n        /* \"#utility.yul\":9884:9906   */\n      add\n        /* \"#utility.yul\":9838:9916   */\n      tag_484\n      jump\t// in\n    tag_687:\n        /* \"#utility.yul\":9828:9916   */\n      swap2\n      pop\n        /* \"#utility.yul\":9623:9926   */\n      pop\n        /* \"#utility.yul\":9249:9933   */\n      swap3\n      pop\n      swap3\n      swap1\n      pop\n      jump\t// out\n        /* \"#utility.yul\":9939:10056   */\n    tag_485:\n        /* \"#utility.yul\":10048:10049   */\n      0x00\n        /* \"#utility.yul\":10045:10046   */\n      dup1\n        /* \"#utility.yul\":10038:10050   */\n      revert\n        /* \"#utility.yul\":10076:10629   */\n    tag_486:\n        /* \"#utility.yul\":10134:10142   */\n      0x00\n        /* \"#utility.yul\":10144:10150   */\n      dup1\n        /* \"#utility.yul\":10194:10197   */\n      dup4\n        /* \"#utility.yul\":10187:10191   */\n      0x1f\n        /* \"#utility.yul\":10179:10185   */\n      dup5\n        /* \"#utility.yul\":10175:10192   */\n      add\n        /* \"#utility.yul\":10171:10198   */\n      slt\n        /* \"#utility.yul\":10161:10283   */\n      tag_690\n      jumpi\n        /* \"#utility.yul\":10202:10281   */\n      tag_691\n      tag_478\n      jump\t// in\n    tag_691:\n        /* \"#utility.yul\":10161:10283   */\n    tag_690:\n        /* \"#utility.yul\":10315:10321   */\n      dup3\n        /* \"#utility.yul\":10302:10322   */\n      calldataload\n        /* \"#utility.yul\":10292:10322   */\n      swap1\n      pop\n        /* \"#utility.yul\":10345:10363   */\n      0xffffffffffffffff\n        /* \"#utility.yul\":10337:10343   */\n      dup2\n        /* \"#utility.yul\":10334:10364   */\n      gt\n        /* \"#utility.yul\":10331:10448   */\n      iszero\n      tag_692\n      jumpi\n        /* \"#utility.yul\":10367:10446   */\n      tag_693\n      tag_485\n      jump\t// in\n    tag_693:\n        /* \"#utility.yul\":10331:10448   */\n    tag_692:\n        /* \"#utility.yul\":10481:10485   */\n      0x20\n        /* \"#utility.yul\":10473:10479   */\n      dup4\n        /* \"#utility.yul\":10469:10486   */\n      add\n        /* \"#utility.yul\":10457:10486   */\n      swap2\n      pop\n        /* \"#utility.yul\":10535:10538   */\n      dup4\n        /* \"#utility.yul\":10527:10531   */\n      0x01\n        /* \"#utility.yul\":10519:10525   */\n      dup3\n        /* \"#utility.yul\":10515:10532   */\n      mul\n        /* \"#utility.yul\":10505:10513   */\n      dup4\n        /* \"#utility.yul\":10501:10533   */\n      add\n        /* \"#utility.yul\":10498:10539   */\n      gt\n        /* \"#utility.yul\":10495:10623   */\n      iszero\n      tag_694\n      jumpi\n        /* \"#utility.yul\":10542:10621   */\n      tag_695\n      tag_482\n      jump\t// in\n    tag_695:\n        /* \"#utility.yul\":10495:10623   */\n    tag_694:\n        /* \"#utility.yul\":10076:10629   */\n      swap3\n      pop\n      swap3\n      swap1\n      pop\n      jump\t// out\n        /* \"#utility.yul\":10651:11231   */\n    tag_487:\n        /* \"#utility.yul\":10736:10744   */\n      0x00\n        /* \"#utility.yul\":10746:10752   */\n      dup1\n        /* \"#utility.yul\":10796:10799   */\n      dup4\n        /* \"#utility.yul\":10789:10793   */\n      0x1f\n        /* \"#utility.yul\":10781:10787   */\n      dup5\n        /* \"#utility.yul\":10777:10794   */\n      add\n        /* \"#utility.yul\":10773:10800   */\n      slt\n        /* \"#utility.yul\":10763:10885   */\n      tag_697\n      jumpi\n        /* \"#utility.yul\":10804:10883   */\n      tag_698\n      tag_478\n      jump\t// in\n    tag_698:\n        /* \"#utility.yul\":10763:10885   */\n    tag_697:\n        /* \"#utility.yul\":10917:10923   */\n      dup3\n        /* \"#utility.yul\":10904:10924   */\n      calldataload\n        /* \"#utility.yul\":10894:10924   */\n      swap1\n      pop\n        /* \"#utility.yul\":10947:10965   */\n      0xffffffffffffffff\n        /* \"#utility.yul\":10939:10945   */\n      dup2\n        /* \"#utility.yul\":10936:10966   */\n      gt\n        /* \"#utility.yul\":10933:11050   */\n      iszero\n      tag_699\n      jumpi\n        /* \"#utility.yul\":10969:11048   */\n      tag_700\n      tag_485\n      jump\t// in\n    tag_700:\n        /* \"#utility.yul\":10933:11050   */\n    tag_699:\n        /* \"#utility.yul\":11083:11087   */\n      0x20\n        /* \"#utility.yul\":11075:11081   */\n      dup4\n        /* \"#utility.yul\":11071:11088   */\n      add\n        /* \"#utility.yul\":11059:11088   */\n      swap2\n      pop\n        /* \"#utility.yul\":11137:11140   */\n      dup4\n        /* \"#utility.yul\":11129:11133   */\n      0x20\n        /* \"#utility.yul\":11121:11127   */\n      dup3\n        /* \"#utility.yul\":11117:11134   */\n      mul\n        /* \"#utility.yul\":11107:11115   */\n      dup4\n        /* \"#utility.yul\":11103:11135   */\n      add\n        /* \"#utility.yul\":11100:11141   */\n      gt\n        /* \"#utility.yul\":11097:11225   */\n      iszero\n      tag_701\n      jumpi\n        /* \"#utility.yul\":11144:11223   */\n      tag_702\n      tag_482\n      jump\t// in\n    tag_702:\n        /* \"#utility.yul\":11097:11225   */\n    tag_701:\n        /* \"#utility.yul\":10651:11231   */\n      swap3\n      pop\n      swap3\n      swap1\n      pop\n      jump\t// out\n        /* \"#utility.yul\":11237:12310   */\n    tag_82:\n        /* \"#utility.yul\":11365:11371   */\n      0x00\n        /* \"#utility.yul\":11373:11379   */\n      dup1\n        /* \"#utility.yul\":11381:11387   */\n      0x00\n        /* \"#utility.yul\":11389:11395   */\n      dup1\n        /* \"#utility.yul\":11397:11403   */\n      0x00\n        /* \"#utility.yul\":11446:11448   */\n      0x60\n        /* \"#utility.yul\":11434:11443   */\n      dup7\n        /* \"#utility.yul\":11425:11432   */\n      dup9\n        /* \"#utility.yul\":11421:11444   */\n      sub\n        /* \"#utility.yul\":11417:11449   */\n      slt\n        /* \"#utility.yul\":11414:11533   */\n      iszero\n      tag_704\n      jumpi\n        /* \"#utility.yul\":11452:11531   */\n      tag_705\n      tag_454\n      jump\t// in\n    tag_705:\n        /* \"#utility.yul\":11414:11533   */\n    tag_704:\n        /* \"#utility.yul\":11600:11601   */\n      0x00\n        /* \"#utility.yul\":11589:11598   */\n      dup7\n        /* \"#utility.yul\":11585:11602   */\n      add\n        /* \"#utility.yul\":11572:11603   */\n      calldataload\n        /* \"#utility.yul\":11630:11648   */\n      0xffffffffffffffff\n        /* \"#utility.yul\":11622:11628   */\n      dup2\n        /* \"#utility.yul\":11619:11649   */\n      gt\n        /* \"#utility.yul\":11616:11733   */\n      iszero\n      tag_706\n      jumpi\n        /* \"#utility.yul\":11652:11731   */\n      tag_707\n      tag_455\n      jump\t// in\n    tag_707:\n        /* \"#utility.yul\":11616:11733   */\n    tag_706:\n        /* \"#utility.yul\":11765:11830   */\n      tag_708\n        /* \"#utility.yul\":11822:11829   */\n      dup9\n        /* \"#utility.yul\":11813:11819   */\n      dup3\n        /* \"#utility.yul\":11802:11811   */\n      dup10\n        /* \"#utility.yul\":11798:11820   */\n      add\n        /* \"#utility.yul\":11765:11830   */\n      tag_486\n      jump\t// in\n    tag_708:\n        /* \"#utility.yul\":11747:11830   */\n      swap6\n      pop\n      swap6\n      pop\n        /* \"#utility.yul\":11543:11840   */\n      pop\n        /* \"#utility.yul\":11907:11909   */\n      0x20\n        /* \"#utility.yul\":11896:11905   */\n      dup7\n        /* \"#utility.yul\":11892:11910   */\n      add\n        /* \"#utility.yul\":11879:11911   */\n      calldataload\n        /* \"#utility.yul\":11938:11956   */\n      0xffffffffffffffff\n        /* \"#utility.yul\":11930:11936   */\n      dup2\n        /* \"#utility.yul\":11927:11957   */\n      gt\n        /* \"#utility.yul\":11924:12041   */\n      iszero\n      tag_709\n      jumpi\n        /* \"#utility.yul\":11960:12039   */\n      tag_710\n      tag_455\n      jump\t// in\n    tag_710:\n        /* \"#utility.yul\":11924:12041   */\n    tag_709:\n        /* \"#utility.yul\":12073:12165   */\n      tag_711\n        /* \"#utility.yul\":12157:12164   */\n      dup9\n        /* \"#utility.yul\":12148:12154   */\n      dup3\n        /* \"#utility.yul\":12137:12146   */\n      dup10\n        /* \"#utility.yul\":12133:12155   */\n      add\n        /* \"#utility.yul\":12073:12165   */\n      tag_487\n      jump\t// in\n    tag_711:\n        /* \"#utility.yul\":12055:12165   */\n      swap4\n      pop\n      swap4\n      pop\n        /* \"#utility.yul\":11850:12175   */\n      pop\n        /* \"#utility.yul\":12214:12216   */\n      0x40\n        /* \"#utility.yul\":12240:12293   */\n      tag_712\n        /* \"#utility.yul\":12285:12292   */\n      dup9\n        /* \"#utility.yul\":12276:12282   */\n      dup3\n        /* \"#utility.yul\":12265:12274   */\n      dup10\n        /* \"#utility.yul\":12261:12283   */\n      add\n        /* \"#utility.yul\":12240:12293   */\n      tag_468\n      jump\t// in\n    tag_712:\n        /* \"#utility.yul\":12230:12293   */\n      swap2\n      pop\n        /* \"#utility.yul\":12185:12303   */\n      pop\n        /* \"#utility.yul\":11237:12310   */\n      swap3\n      swap6\n      pop\n      swap3\n      swap6\n      swap1\n      swap4\n      pop\n      jump\t// out\n        /* \"#utility.yul\":12316:12496   */\n    tag_187:\n        /* \"#utility.yul\":12364:12441   */\n      0x4e487b7100000000000000000000000000000000000000000000000000000000\n        /* \"#utility.yul\":12361:12362   */\n      0x00\n        /* \"#utility.yul\":12354:12442   */\n      mstore\n        /* \"#utility.yul\":12461:12465   */\n      0x21\n        /* \"#utility.yul\":12458:12459   */\n      0x04\n        /* \"#utility.yul\":12451:12466   */\n      mstore\n        /* \"#utility.yul\":12485:12489   */\n      0x24\n        /* \"#utility.yul\":12482:12483   */\n      0x00\n        /* \"#utility.yul\":12475:12490   */\n      revert\n        /* \"#utility.yul\":12502:12626   */\n    tag_488:\n        /* \"#utility.yul\":12594:12595   */\n      0x03\n        /* \"#utility.yul\":12587:12592   */\n      dup2\n        /* \"#utility.yul\":12584:12596   */\n      lt\n        /* \"#utility.yul\":12574:12620   */\n      tag_715\n      jumpi\n        /* \"#utility.yul\":12600:12618   */\n      tag_716\n      tag_187\n      jump\t// in\n    tag_716:\n        /* \"#utility.yul\":12574:12620   */\n    tag_715:\n        /* \"#utility.yul\":12502:12626   */\n      pop\n      jump\t// out\n        /* \"#utility.yul\":12632:12781   */\n    tag_489:\n        /* \"#utility.yul\":12688:12695   */\n      0x00\n        /* \"#utility.yul\":12717:12722   */\n      dup2\n        /* \"#utility.yul\":12706:12722   */\n      swap1\n      pop\n        /* \"#utility.yul\":12723:12775   */\n      tag_718\n        /* \"#utility.yul\":12769:12774   */\n      dup3\n        /* \"#utility.yul\":12723:12775   */\n      tag_488\n      jump\t// in\n    tag_718:\n        /* \"#utility.yul\":12632:12781   */\n      swap2\n      swap1\n      pop\n      jump\t// out\n        /* \"#utility.yul\":12787:12936   */\n    tag_490:\n        /* \"#utility.yul\":12854:12863   */\n      0x00\n        /* \"#utility.yul\":12887:12930   */\n      tag_720\n        /* \"#utility.yul\":12924:12929   */\n      dup3\n        /* \"#utility.yul\":12887:12930   */\n      tag_489\n      jump\t// in\n    tag_720:\n        /* \"#utility.yul\":12874:12930   */\n      swap1\n      pop\n        /* \"#utility.yul\":12787:12936   */\n      swap2\n      swap1\n      pop\n      jump\t// out\n        /* \"#utility.yul\":12942:13107   */\n    tag_491:\n        /* \"#utility.yul\":13046:13100   */\n      tag_722\n        /* \"#utility.yul\":13094:13099   */\n      dup2\n        /* \"#utility.yul\":13046:13100   */\n      tag_490\n      jump\t// in\n    tag_722:\n        /* \"#utility.yul\":13041:13044   */\n      dup3\n        /* \"#utility.yul\":13034:13101   */\n      mstore\n        /* \"#utility.yul\":12942:13107   */\n      pop\n      pop\n      jump\t// out\n        /* \"#utility.yul\":13113:13369   */\n    tag_89:\n        /* \"#utility.yul\":13223:13227   */\n      0x00\n        /* \"#utility.yul\":13261:13263   */\n      0x20\n        /* \"#utility.yul\":13250:13259   */\n      dup3\n        /* \"#utility.yul\":13246:13264   */\n      add\n        /* \"#utility.yul\":13238:13264   */\n      swap1\n      pop\n        /* \"#utility.yul\":13274:13362   */\n      tag_724\n        /* \"#utility.yul\":13359:13360   */\n      0x00\n        /* \"#utility.yul\":13348:13357   */\n      dup4\n        /* \"#utility.yul\":13344:13361   */\n      add\n        /* \"#utility.yul\":13335:13341   */\n      dup5\n        /* \"#utility.yul\":13274:13362   */\n      tag_491\n      jump\t// in\n    tag_724:\n        /* \"#utility.yul\":13113:13369   */\n      swap3\n      swap2\n      pop\n      pop\n      jump\t// out\n        /* \"#utility.yul\":13375:13849   */\n    tag_92:\n        /* \"#utility.yul\":13443:13449   */\n      0x00\n        /* \"#utility.yul\":13451:13457   */\n      dup1\n        /* \"#utility.yul\":13500:13502   */\n      0x40\n        /* \"#utility.yul\":13488:13497   */\n      dup4\n        /* \"#utility.yul\":13479:13486   */\n      dup6\n        /* \"#utility.yul\":13475:13498   */\n      sub\n        /* \"#utility.yul\":13471:13503   */\n      slt\n        /* \"#utility.yul\":13468:13587   */\n      iszero\n      tag_726\n      jumpi\n        /* \"#utility.yul\":13506:13585   */\n      tag_727\n      tag_454\n      jump\t// in\n    tag_727:\n        /* \"#utility.yul\":13468:13587   */\n    tag_726:\n        /* \"#utility.yul\":13626:13627   */\n      0x00\n        /* \"#utility.yul\":13651:13704   */\n      tag_728\n        /* \"#utility.yul\":13696:13703   */\n      dup6\n        /* \"#utility.yul\":13687:13693   */\n      dup3\n        /* \"#utility.yul\":13676:13685   */\n      dup7\n        /* \"#utility.yul\":13672:13694   */\n      add\n        /* \"#utility.yul\":13651:13704   */\n      tag_477\n      jump\t// in\n    tag_728:\n        /* \"#utility.yul\":13641:13704   */\n      swap3\n      pop\n        /* \"#utility.yul\":13597:13714   */\n      pop\n        /* \"#utility.yul\":13753:13755   */\n      0x20\n        /* \"#utility.yul\":13779:13832   */\n      tag_729\n        /* \"#utility.yul\":13824:13831   */\n      dup6\n        /* \"#utility.yul\":13815:13821   */\n      dup3\n        /* \"#utility.yul\":13804:13813   */\n      dup7\n        /* \"#utility.yul\":13800:13822   */\n      add\n        /* \"#utility.yul\":13779:13832   */\n      tag_468\n      jump\t// in\n    tag_729:\n        /* \"#utility.yul\":13769:13832   */\n      swap2\n      pop\n        /* \"#utility.yul\":13724:13842   */\n      pop\n        /* \"#utility.yul\":13375:13849   */\n      swap3\n      pop\n      swap3\n      swap1\n      pop\n      jump\t// out\n        /* \"#utility.yul\":13855:14329   */\n    tag_103:\n        /* \"#utility.yul\":13923:13929   */\n      0x00\n        /* \"#utility.yul\":13931:13937   */\n      dup1\n        /* \"#utility.yul\":13980:13982   */\n      0x40\n        /* \"#utility.yul\":13968:13977   */\n      dup4\n        /* \"#utility.yul\":13959:13966   */\n      dup6\n        /* \"#utility.yul\":13955:13978   */\n      sub\n        /* \"#utility.yul\":13951:13983   */\n      slt\n        /* \"#utility.yul\":13948:14067   */\n      iszero\n      tag_731\n      jumpi\n        /* \"#utility.yul\":13986:14065   */\n      tag_732\n      tag_454\n      jump\t// in\n    tag_732:\n        /* \"#utility.yul\":13948:14067   */\n    tag_731:\n        /* \"#utility.yul\":14106:14107   */\n      0x00\n        /* \"#utility.yul\":14131:14184   */\n      tag_733\n        /* \"#utility.yul\":14176:14183   */\n      dup6\n        /* \"#utility.yul\":14167:14173   */\n      dup3\n        /* \"#utility.yul\":14156:14165   */\n      dup7\n        /* \"#utility.yul\":14152:14174   */\n      add\n        /* \"#utility.yul\":14131:14184   */\n      tag_468\n      jump\t// in\n    tag_733:\n        /* \"#utility.yul\":14121:14184   */\n      swap3\n      pop\n        /* \"#utility.yul\":14077:14194   */\n      pop\n        /* \"#utility.yul\":14233:14235   */\n      0x20\n        /* \"#utility.yul\":14259:14312   */\n      tag_734\n        /* \"#utility.yul\":14304:14311   */\n      dup6\n        /* \"#utility.yul\":14295:14301   */\n      dup3\n        /* \"#utility.yul\":14284:14293   */\n      dup7\n        /* \"#utility.yul\":14280:14302   */\n      add\n        /* \"#utility.yul\":14259:14312   */\n      tag_477\n      jump\t// in\n    tag_734:\n        /* \"#utility.yul\":14249:14312   */\n      swap2\n      pop\n        /* \"#utility.yul\":14204:14322   */\n      pop\n        /* \"#utility.yul\":13855:14329   */\n      swap3\n      pop\n      swap3\n      swap1\n      pop\n      jump\t// out\n        /* \"#utility.yul\":14335:14664   */\n    tag_108:\n        /* \"#utility.yul\":14394:14400   */\n      0x00\n        /* \"#utility.yul\":14443:14445   */\n      0x20\n        /* \"#utility.yul\":14431:14440   */\n      dup3\n        /* \"#utility.yul\":14422:14429   */\n      dup5\n        /* \"#utility.yul\":14418:14441   */\n      sub\n        /* \"#utility.yul\":14414:14446   */\n      slt\n        /* \"#utility.yul\":14411:14530   */\n      iszero\n      tag_736\n      jumpi\n        /* \"#utility.yul\":14449:14528   */\n      tag_737\n      tag_454\n      jump\t// in\n    tag_737:\n        /* \"#utility.yul\":14411:14530   */\n    tag_736:\n        /* \"#utility.yul\":14569:14570   */\n      0x00\n        /* \"#utility.yul\":14594:14647   */\n      tag_738\n        /* \"#utility.yul\":14639:14646   */\n      dup5\n        /* \"#utility.yul\":14630:14636   */\n      dup3\n        /* \"#utility.yul\":14619:14628   */\n      dup6\n        /* \"#utility.yul\":14615:14637   */\n      add\n        /* \"#utility.yul\":14594:14647   */\n      tag_477\n      jump\t// in\n    tag_738:\n        /* \"#utility.yul\":14584:14647   */\n      swap2\n      pop\n        /* \"#utility.yul\":14540:14657   */\n      pop\n        /* \"#utility.yul\":14335:14664   */\n      swap3\n      swap2\n      pop\n      pop\n      jump\t// out\n        /* \"#utility.yul\":14670:14788   */\n    tag_492:\n        /* \"#utility.yul\":14757:14781   */\n      tag_740\n        /* \"#utility.yul\":14775:14780   */\n      dup2\n        /* \"#utility.yul\":14757:14781   */\n      tag_475\n      jump\t// in\n    tag_740:\n        /* \"#utility.yul\":14752:14755   */\n      dup3\n        /* \"#utility.yul\":14745:14782   */\n      mstore\n        /* \"#utility.yul\":14670:14788   */\n      pop\n      pop\n      jump\t// out\n        /* \"#utility.yul\":14794:15016   */\n    tag_116:\n        /* \"#utility.yul\":14887:14891   */\n      0x00\n        /* \"#utility.yul\":14925:14927   */\n      0x20\n        /* \"#utility.yul\":14914:14923   */\n      dup3\n        /* \"#utility.yul\":14910:14928   */\n      add\n        /* \"#utility.yul\":14902:14928   */\n      swap1\n      pop\n        /* \"#utility.yul\":14938:15009   */\n      tag_742\n        /* \"#utility.yul\":15006:15007   */\n      0x00\n        /* \"#utility.yul\":14995:15004   */\n      dup4\n        /* \"#utility.yul\":14991:15008   */\n      add\n        /* \"#utility.yul\":14982:14988   */\n      dup5\n        /* \"#utility.yul\":14938:15009   */\n      tag_492\n      jump\t// in\n    tag_742:\n        /* \"#utility.yul\":14794:15016   */\n      swap3\n      swap2\n      pop\n      pop\n      jump\t// out\n        /* \"#utility.yul\":15022:15146   */\n    tag_493:\n        /* \"#utility.yul\":15099:15105   */\n      0x00\n        /* \"#utility.yul\":15133:15138   */\n      dup2\n        /* \"#utility.yul\":15127:15139   */\n      mload\n        /* \"#utility.yul\":15117:15139   */\n      swap1\n      pop\n        /* \"#utility.yul\":15022:15146   */\n      swap2\n      swap1\n      pop\n      jump\t// out\n        /* \"#utility.yul\":15152:15346   */\n    tag_494:\n        /* \"#utility.yul\":15261:15272   */\n      0x00\n        /* \"#utility.yul\":15295:15301   */\n      dup3\n        /* \"#utility.yul\":15290:15293   */\n      dup3\n        /* \"#utility.yul\":15283:15302   */\n      mstore\n        /* \"#utility.yul\":15335:15339   */\n      0x20\n        /* \"#utility.yul\":15330:15333   */\n      dup3\n        /* \"#utility.yul\":15326:15340   */\n      add\n        /* \"#utility.yul\":15311:15340   */\n      swap1\n      pop\n        /* \"#utility.yul\":15152:15346   */\n      swap3\n      swap2\n      pop\n      pop\n      jump\t// out\n        /* \"#utility.yul\":15352:15494   */\n    tag_495:\n        /* \"#utility.yul\":15429:15433   */\n      0x00\n        /* \"#utility.yul\":15452:15455   */\n      dup2\n        /* \"#utility.yul\":15444:15455   */\n      swap1\n      pop\n        /* \"#utility.yul\":15482:15486   */\n      0x20\n        /* \"#utility.yul\":15477:15480   */\n      dup3\n        /* \"#utility.yul\":15473:15487   */\n      add\n        /* \"#utility.yul\":15465:15487   */\n      swap1\n      pop\n        /* \"#utility.yul\":15352:15494   */\n      swap2\n      swap1\n      pop\n      jump\t// out\n        /* \"#utility.yul\":15500:15659   */\n    tag_496:\n        /* \"#utility.yul\":15574:15585   */\n      0x00\n        /* \"#utility.yul\":15608:15614   */\n      dup3\n        /* \"#utility.yul\":15603:15606   */\n      dup3\n        /* \"#utility.yul\":15596:15615   */\n      mstore\n        /* \"#utility.yul\":15648:15652   */\n      0x20\n        /* \"#utility.yul\":15643:15646   */\n      dup3\n        /* \"#utility.yul\":15639:15653   */\n      add\n        /* \"#utility.yul\":15624:15653   */\n      swap1\n      pop\n        /* \"#utility.yul\":15500:15659   */\n      swap3\n      swap2\n      pop\n      pop\n      jump\t// out\n        /* \"#utility.yul\":15665:16022   */\n    tag_497:\n        /* \"#utility.yul\":15743:15746   */\n      0x00\n        /* \"#utility.yul\":15771:15810   */\n      tag_748\n        /* \"#utility.yul\":15804:15809   */\n      dup3\n        /* \"#utility.yul\":15771:15810   */\n      tag_461\n      jump\t// in\n    tag_748:\n        /* \"#utility.yul\":15826:15887   */\n      tag_749\n        /* \"#utility.yul\":15880:15886   */\n      dup2\n        /* \"#utility.yul\":15875:15878   */\n      dup6\n        /* \"#utility.yul\":15826:15887   */\n      tag_496\n      jump\t// in\n    tag_749:\n        /* \"#utility.yul\":15819:15887   */\n      swap4\n      pop\n        /* \"#utility.yul\":15896:15961   */\n      tag_750\n        /* \"#utility.yul\":15954:15960   */\n      dup2\n        /* \"#utility.yul\":15949:15952   */\n      dup6\n        /* \"#utility.yul\":15942:15946   */\n      0x20\n        /* \"#utility.yul\":15935:15940   */\n      dup7\n        /* \"#utility.yul\":15931:15947   */\n      add\n        /* \"#utility.yul\":15896:15961   */\n      tag_463\n      jump\t// in\n    tag_750:\n        /* \"#utility.yul\":15986:16015   */\n      tag_751\n        /* \"#utility.yul\":16008:16014   */\n      dup2\n        /* \"#utility.yul\":15986:16015   */\n      tag_464\n      jump\t// in\n    tag_751:\n        /* \"#utility.yul\":15981:15984   */\n      dup5\n        /* \"#utility.yul\":15977:16016   */\n      add\n        /* \"#utility.yul\":15970:16016   */\n      swap2\n      pop\n        /* \"#utility.yul\":15747:16022   */\n      pop\n        /* \"#utility.yul\":15665:16022   */\n      swap3\n      swap2\n      pop\n      pop\n      jump\t// out\n        /* \"#utility.yul\":16028:16224   */\n    tag_498:\n        /* \"#utility.yul\":16117:16127   */\n      0x00\n        /* \"#utility.yul\":16152:16218   */\n      tag_753\n        /* \"#utility.yul\":16214:16217   */\n      dup4\n        /* \"#utility.yul\":16206:16212   */\n      dup4\n        /* \"#utility.yul\":16152:16218   */\n      tag_497\n      jump\t// in\n    tag_753:\n        /* \"#utility.yul\":16138:16218   */\n      swap1\n      pop\n        /* \"#utility.yul\":16028:16224   */\n      swap3\n      swap2\n      pop\n      pop\n      jump\t// out\n        /* \"#utility.yul\":16230:16353   */\n    tag_499:\n        /* \"#utility.yul\":16310:16314   */\n      0x00\n        /* \"#utility.yul\":16342:16346   */\n      0x20\n        /* \"#utility.yul\":16337:16340   */\n      dup3\n        /* \"#utility.yul\":16333:16347   */\n      add\n        /* \"#utility.yul\":16325:16347   */\n      swap1\n      pop\n        /* \"#utility.yul\":16230:16353   */\n      swap2\n      swap1\n      pop\n      jump\t// out\n        /* \"#utility.yul\":16387:17378   */\n    tag_500:\n        /* \"#utility.yul\":16526:16529   */\n      0x00\n        /* \"#utility.yul\":16555:16619   */\n      tag_756\n        /* \"#utility.yul\":16613:16618   */\n      dup3\n        /* \"#utility.yul\":16555:16619   */\n      tag_493\n      jump\t// in\n    tag_756:\n        /* \"#utility.yul\":16635:16731   */\n      tag_757\n        /* \"#utility.yul\":16724:16730   */\n      dup2\n        /* \"#utility.yul\":16719:16722   */\n      dup6\n        /* \"#utility.yul\":16635:16731   */\n      tag_494\n      jump\t// in\n    tag_757:\n        /* \"#utility.yul\":16628:16731   */\n      swap4\n      pop\n        /* \"#utility.yul\":16757:16760   */\n      dup4\n        /* \"#utility.yul\":16802:16806   */\n      0x20\n        /* \"#utility.yul\":16794:16800   */\n      dup3\n        /* \"#utility.yul\":16790:16807   */\n      mul\n        /* \"#utility.yul\":16785:16788   */\n      dup6\n        /* \"#utility.yul\":16781:16808   */\n      add\n        /* \"#utility.yul\":16832:16898   */\n      tag_758\n        /* \"#utility.yul\":16892:16897   */\n      dup6\n        /* \"#utility.yul\":16832:16898   */\n      tag_495\n      jump\t// in\n    tag_758:\n        /* \"#utility.yul\":16921:16928   */\n      dup1\n        /* \"#utility.yul\":16952:16953   */\n      0x00\n        /* \"#utility.yul\":16937:17333   */\n    tag_759:\n        /* \"#utility.yul\":16962:16968   */\n      dup6\n        /* \"#utility.yul\":16959:16960   */\n      dup2\n        /* \"#utility.yul\":16956:16969   */\n      lt\n        /* \"#utility.yul\":16937:17333   */\n      iszero\n      tag_761\n      jumpi\n        /* \"#utility.yul\":17033:17042   */\n      dup5\n        /* \"#utility.yul\":17027:17031   */\n      dup5\n        /* \"#utility.yul\":17023:17043   */\n      sub\n        /* \"#utility.yul\":17018:17021   */\n      dup10\n        /* \"#utility.yul\":17011:17044   */\n      mstore\n        /* \"#utility.yul\":17084:17090   */\n      dup2\n        /* \"#utility.yul\":17078:17091   */\n      mload\n        /* \"#utility.yul\":17112:17196   */\n      tag_762\n        /* \"#utility.yul\":17191:17195   */\n      dup6\n        /* \"#utility.yul\":17176:17189   */\n      dup3\n        /* \"#utility.yul\":17112:17196   */\n      tag_498\n      jump\t// in\n    tag_762:\n        /* \"#utility.yul\":17104:17196   */\n      swap5\n      pop\n        /* \"#utility.yul\":17219:17289   */\n      tag_763\n        /* \"#utility.yul\":17282:17288   */\n      dup4\n        /* \"#utility.yul\":17219:17289   */\n      tag_499\n      jump\t// in\n    tag_763:\n        /* \"#utility.yul\":17209:17289   */\n      swap3\n      pop\n        /* \"#utility.yul\":17318:17322   */\n      0x20\n        /* \"#utility.yul\":17313:17316   */\n      dup11\n        /* \"#utility.yul\":17309:17323   */\n      add\n        /* \"#utility.yul\":17302:17323   */\n      swap10\n      pop\n        /* \"#utility.yul\":16997:17333   */\n      pop\n        /* \"#utility.yul\":16984:16985   */\n      0x01\n        /* \"#utility.yul\":16981:16982   */\n      dup2\n        /* \"#utility.yul\":16977:16986   */\n      add\n        /* \"#utility.yul\":16972:16986   */\n      swap1\n      pop\n        /* \"#utility.yul\":16937:17333   */\n      jump(tag_759)\n    tag_761:\n        /* \"#utility.yul\":16941:16955   */\n      pop\n        /* \"#utility.yul\":17349:17353   */\n      dup3\n        /* \"#utility.yul\":17342:17353   */\n      swap8\n      pop\n        /* \"#utility.yul\":17369:17372   */\n      dup8\n        /* \"#utility.yul\":17362:17372   */\n      swap6\n      pop\n        /* \"#utility.yul\":16531:17378   */\n      pop\n      pop\n      pop\n      pop\n      pop\n        /* \"#utility.yul\":16387:17378   */\n      swap3\n      swap2\n      pop\n      pop\n      jump\t// out\n        /* \"#utility.yul\":17384:18253   */\n    tag_134:\n        /* \"#utility.yul\":17668:17672   */\n      0x00\n        /* \"#utility.yul\":17706:17709   */\n      0x80\n        /* \"#utility.yul\":17695:17704   */\n      dup3\n        /* \"#utility.yul\":17691:17710   */\n      add\n        /* \"#utility.yul\":17683:17710   */\n      swap1\n      pop\n        /* \"#utility.yul\":17756:17765   */\n      dup2\n        /* \"#utility.yul\":17750:17754   */\n      dup2\n        /* \"#utility.yul\":17746:17766   */\n      sub\n        /* \"#utility.yul\":17742:17743   */\n      0x00\n        /* \"#utility.yul\":17731:17740   */\n      dup4\n        /* \"#utility.yul\":17727:17744   */\n      add\n        /* \"#utility.yul\":17720:17767   */\n      mstore\n        /* \"#utility.yul\":17784:17862   */\n      tag_765\n        /* \"#utility.yul\":17857:17861   */\n      dup2\n        /* \"#utility.yul\":17848:17854   */\n      dup8\n        /* \"#utility.yul\":17784:17862   */\n      tag_465\n      jump\t// in\n    tag_765:\n        /* \"#utility.yul\":17776:17862   */\n      swap1\n      pop\n        /* \"#utility.yul\":17909:17918   */\n      dup2\n        /* \"#utility.yul\":17903:17907   */\n      dup2\n        /* \"#utility.yul\":17899:17919   */\n      sub\n        /* \"#utility.yul\":17894:17896   */\n      0x20\n        /* \"#utility.yul\":17883:17892   */\n      dup4\n        /* \"#utility.yul\":17879:17897   */\n      add\n        /* \"#utility.yul\":17872:17920   */\n      mstore\n        /* \"#utility.yul\":17937:18065   */\n      tag_766\n        /* \"#utility.yul\":18060:18064   */\n      dup2\n        /* \"#utility.yul\":18051:18057   */\n      dup7\n        /* \"#utility.yul\":17937:18065   */\n      tag_500\n      jump\t// in\n    tag_766:\n        /* \"#utility.yul\":17929:18065   */\n      swap1\n      pop\n        /* \"#utility.yul\":18075:18147   */\n      tag_767\n        /* \"#utility.yul\":18143:18145   */\n      0x40\n        /* \"#utility.yul\":18132:18141   */\n      dup4\n        /* \"#utility.yul\":18128:18146   */\n      add\n        /* \"#utility.yul\":18119:18125   */\n      dup6\n        /* \"#utility.yul\":18075:18147   */\n      tag_469\n      jump\t// in\n    tag_767:\n        /* \"#utility.yul\":18157:18246   */\n      tag_768\n        /* \"#utility.yul\":18242:18244   */\n      0x60\n        /* \"#utility.yul\":18231:18240   */\n      dup4\n        /* \"#utility.yul\":18227:18245   */\n      add\n        /* \"#utility.yul\":18218:18224   */\n      dup5\n        /* \"#utility.yul\":18157:18246   */\n      tag_491\n      jump\t// in\n    tag_768:\n        /* \"#utility.yul\":17384:18253   */\n      swap6\n      swap5\n      pop\n      pop\n      pop\n      pop\n      pop\n      jump\t// out\n        /* \"#utility.yul\":18259:19048   */\n    tag_145:\n        /* \"#utility.yul\":18501:18505   */\n      0x00\n        /* \"#utility.yul\":18539:18542   */\n      0xa0\n        /* \"#utility.yul\":18528:18537   */\n      dup3\n        /* \"#utility.yul\":18524:18543   */\n      add\n        /* \"#utility.yul\":18516:18543   */\n      swap1\n      pop\n        /* \"#utility.yul\":18553:18624   */\n      tag_770\n        /* \"#utility.yul\":18621:18622   */\n      0x00\n        /* \"#utility.yul\":18610:18619   */\n      dup4\n        /* \"#utility.yul\":18606:18623   */\n      add\n        /* \"#utility.yul\":18597:18603   */\n      dup9\n        /* \"#utility.yul\":18553:18624   */\n      tag_492\n      jump\t// in\n    tag_770:\n        /* \"#utility.yul\":18634:18723   */\n      tag_771\n        /* \"#utility.yul\":18719:18721   */\n      0x20\n        /* \"#utility.yul\":18708:18717   */\n      dup4\n        /* \"#utility.yul\":18704:18722   */\n      add\n        /* \"#utility.yul\":18695:18701   */\n      dup8\n        /* \"#utility.yul\":18634:18723   */\n      tag_491\n      jump\t// in\n    tag_771:\n        /* \"#utility.yul\":18770:18779   */\n      dup2\n        /* \"#utility.yul\":18764:18768   */\n      dup2\n        /* \"#utility.yul\":18760:18780   */\n      sub\n        /* \"#utility.yul\":18755:18757   */\n      0x40\n        /* \"#utility.yul\":18744:18753   */\n      dup4\n        /* \"#utility.yul\":18740:18758   */\n      add\n        /* \"#utility.yul\":18733:18781   */\n      mstore\n        /* \"#utility.yul\":18798:18876   */\n      tag_772\n        /* \"#utility.yul\":18871:18875   */\n      dup2\n        /* \"#utility.yul\":18862:18868   */\n      dup7\n        /* \"#utility.yul\":18798:18876   */\n      tag_465\n      jump\t// in\n    tag_772:\n        /* \"#utility.yul\":18790:18876   */\n      swap1\n      pop\n        /* \"#utility.yul\":18886:18958   */\n      tag_773\n        /* \"#utility.yul\":18954:18956   */\n      0x60\n        /* \"#utility.yul\":18943:18952   */\n      dup4\n        /* \"#utility.yul\":18939:18957   */\n      add\n        /* \"#utility.yul\":18930:18936   */\n      dup6\n        /* \"#utility.yul\":18886:18958   */\n      tag_469\n      jump\t// in\n    tag_773:\n        /* \"#utility.yul\":18968:19041   */\n      tag_774\n        /* \"#utility.yul\":19036:19039   */\n      0x80\n        /* \"#utility.yul\":19025:19034   */\n      dup4\n        /* \"#utility.yul\":19021:19040   */\n      add\n        /* \"#utility.yul\":19012:19018   */\n      dup5\n        /* \"#utility.yul\":18968:19041   */\n      tag_469\n      jump\t// in\n    tag_774:\n        /* \"#utility.yul\":18259:19048   */\n      swap7\n      swap6\n      pop\n      pop\n      pop\n      pop\n      pop\n      pop\n      jump\t// out\n        /* \"#utility.yul\":19054:19234   */\n    tag_501:\n        /* \"#utility.yul\":19102:19179   */\n      0x4e487b7100000000000000000000000000000000000000000000000000000000\n        /* \"#utility.yul\":19099:19100   */\n      0x00\n        /* \"#utility.yul\":19092:19180   */\n      mstore\n        /* \"#utility.yul\":19199:19203   */\n      0x22\n        /* \"#utility.yul\":19196:19197   */\n      0x04\n        /* \"#utility.yul\":19189:19204   */\n      mstore\n        /* \"#utility.yul\":19223:19227   */\n      0x24\n        /* \"#utility.yul\":19220:19221   */\n      0x00\n        /* \"#utility.yul\":19213:19228   */\n      revert\n        /* \"#utility.yul\":19240:19560   */\n    tag_157:\n        /* \"#utility.yul\":19284:19290   */\n      0x00\n        /* \"#utility.yul\":19321:19322   */\n      0x02\n        /* \"#utility.yul\":19315:19319   */\n      dup3\n        /* \"#utility.yul\":19311:19323   */\n      div\n        /* \"#utility.yul\":19301:19323   */\n      swap1\n      pop\n        /* \"#utility.yul\":19368:19369   */\n      0x01\n        /* \"#utility.yul\":19362:19366   */\n      dup3\n        /* \"#utility.yul\":19358:19370   */\n      and\n        /* \"#utility.yul\":19389:19407   */\n      dup1\n        /* \"#utility.yul\":19379:19460   */\n      tag_777\n      jumpi\n        /* \"#utility.yul\":19445:19449   */\n      0x7f\n        /* \"#utility.yul\":19437:19443   */\n      dup3\n        /* \"#utility.yul\":19433:19450   */\n      and\n        /* \"#utility.yul\":19423:19450   */\n      swap2\n      pop\n        /* \"#utility.yul\":19379:19460   */\n    tag_777:\n        /* \"#utility.yul\":19507:19509   */\n      0x20\n        /* \"#utility.yul\":19499:19505   */\n      dup3\n        /* \"#utility.yul\":19496:19510   */\n      lt\n        /* \"#utility.yul\":19476:19494   */\n      dup2\n        /* \"#utility.yul\":19473:19511   */\n      sub\n        /* \"#utility.yul\":19470:19554   */\n      tag_778\n      jumpi\n        /* \"#utility.yul\":19526:19544   */\n      tag_779\n      tag_501\n      jump\t// in\n    tag_779:\n        /* \"#utility.yul\":19470:19554   */\n    tag_778:\n        /* \"#utility.yul\":19291:19560   */\n      pop\n        /* \"#utility.yul\":19240:19560   */\n      swap2\n      swap1\n      pop\n      jump\t// out\n        /* \"#utility.yul\":19566:19746   */\n    tag_502:\n        /* \"#utility.yul\":19614:19691   */\n      0x4e487b7100000000000000000000000000000000000000000000000000000000\n        /* \"#utility.yul\":19611:19612   */\n      0x00\n        /* \"#utility.yul\":19604:19692   */\n      mstore\n        /* \"#utility.yul\":19711:19715   */\n      0x11\n        /* \"#utility.yul\":19708:19709   */\n      0x04\n        /* \"#utility.yul\":19701:19716   */\n      mstore\n        /* \"#utility.yul\":19735:19739   */\n      0x24\n        /* \"#utility.yul\":19732:19733   */\n      0x00\n        /* \"#utility.yul\":19725:19740   */\n      revert\n        /* \"#utility.yul\":19752:19985   */\n    tag_169:\n        /* \"#utility.yul\":19791:19794   */\n      0x00\n        /* \"#utility.yul\":19814:19838   */\n      tag_782\n        /* \"#utility.yul\":19832:19837   */\n      dup3\n        /* \"#utility.yul\":19814:19838   */\n      tag_466\n      jump\t// in\n    tag_782:\n        /* \"#utility.yul\":19805:19838   */\n      swap2\n      pop\n        /* \"#utility.yul\":19860:19926   */\n      0xffffffffffffffffffffffffffffffffffffffffffffffffffffffffffffffff\n        /* \"#utility.yul\":19853:19858   */\n      dup3\n        /* \"#utility.yul\":19850:19927   */\n      sub\n        /* \"#utility.yul\":19847:19950   */\n      tag_783\n      jumpi\n        /* \"#utility.yul\":19930:19948   */\n      tag_784\n      tag_502\n      jump\t// in\n    tag_784:\n        /* \"#utility.yul\":19847:19950   */\n    tag_783:\n        /* \"#utility.yul\":19977:19978   */\n      0x01\n        /* \"#utility.yul\":19970:19975   */\n      dup3\n        /* \"#utility.yul\":19966:19979   */\n      add\n        /* \"#utility.yul\":19959:19979   */\n      swap1\n      pop\n        /* \"#utility.yul\":19752:19985   */\n      swap2\n      swap1\n      pop\n      jump\t// out\n        /* \"#utility.yul\":19991:20164   */\n    tag_503:\n        /* \"#utility.yul\":20131:20156   */\n      0x4e6f7420612076616c69642050726f706f73616c204964000000000000000000\n        /* \"#utility.yul\":20127:20128   */\n      0x00\n        /* \"#utility.yul\":20119:20125   */\n      dup3\n        /* \"#utility.yul\":20115:20129   */\n      add\n        /* \"#utility.yul\":20108:20157   */\n      mstore\n        /* \"#utility.yul\":19991:20164   */\n      pop\n      jump\t// out\n        /* \"#utility.yul\":20170:20536   */\n    tag_504:\n        /* \"#utility.yul\":20312:20315   */\n      0x00\n        /* \"#utility.yul\":20333:20400   */\n      tag_787\n        /* \"#utility.yul\":20397:20399   */\n      0x17\n        /* \"#utility.yul\":20392:20395   */\n      dup4\n        /* \"#utility.yul\":20333:20400   */\n      tag_462\n      jump\t// in\n    tag_787:\n        /* \"#utility.yul\":20326:20400   */\n      swap2\n      pop\n        /* \"#utility.yul\":20409:20502   */\n      tag_788\n        /* \"#utility.yul\":20498:20501   */\n      dup3\n        /* \"#utility.yul\":20409:20502   */\n      tag_503\n      jump\t// in\n    tag_788:\n        /* \"#utility.yul\":20527:20529   */\n      0x20\n        /* \"#utility.yul\":20522:20525   */\n      dup3\n        /* \"#utility.yul\":20518:20530   */\n      add\n        /* \"#utility.yul\":20511:20530   */\n      swap1\n      pop\n        /* \"#utility.yul\":20170:20536   */\n      swap2\n      swap1\n      pop\n      jump\t// out\n        /* \"#utility.yul\":20542:20961   */\n    tag_180:\n        /* \"#utility.yul\":20708:20712   */\n      0x00\n        /* \"#utility.yul\":20746:20748   */\n      0x20\n        /* \"#utility.yul\":20735:20744   */\n      dup3\n        /* \"#utility.yul\":20731:20749   */\n      add\n        /* \"#utility.yul\":20723:20749   */\n      swap1\n      pop\n        /* \"#utility.yul\":20795:20804   */\n      dup2\n        /* \"#utility.yul\":20789:20793   */\n      dup2\n        /* \"#utility.yul\":20785:20805   */\n      sub\n        /* \"#utility.yul\":20781:20782   */\n      0x00\n        /* \"#utility.yul\":20770:20779   */\n      dup4\n        /* \"#utility.yul\":20766:20783   */\n      add\n        /* \"#utility.yul\":20759:20806   */\n      mstore\n        /* \"#utility.yul\":20823:20954   */\n      tag_790\n        /* \"#utility.yul\":20949:20953   */\n      dup2\n        /* \"#utility.yul\":20823:20954   */\n      tag_504\n      jump\t// in\n    tag_790:\n        /* \"#utility.yul\":20815:20954   */\n      swap1\n      pop\n        /* \"#utility.yul\":20542:20961   */\n      swap2\n      swap1\n      pop\n      jump\t// out\n        /* \"#utility.yul\":20967:21140   */\n    tag_505:\n        /* \"#utility.yul\":21107:21132   */\n      0x566f7465206973206e6f7420696e2070726f6772657373000000000000000000\n        /* \"#utility.yul\":21103:21104   */\n      0x00\n        /* \"#utility.yul\":21095:21101   */\n      dup3\n        /* \"#utility.yul\":21091:21105   */\n      add\n        /* \"#utility.yul\":21084:21133   */\n      mstore\n        /* \"#utility.yul\":20967:21140   */\n      pop\n      jump\t// out\n        /* \"#utility.yul\":21146:21512   */\n    tag_506:\n        /* \"#utility.yul\":21288:21291   */\n      0x00\n        /* \"#utility.yul\":21309:21376   */\n      tag_793\n        /* \"#utility.yul\":21373:21375   */\n      0x17\n        /* \"#utility.yul\":21368:21371   */\n      dup4\n        /* \"#utility.yul\":21309:21376   */\n      tag_462\n      jump\t// in\n    tag_793:\n        /* \"#utility.yul\":21302:21376   */\n      swap2\n      pop\n        /* \"#utility.yul\":21385:21478   */\n      tag_794\n        /* \"#utility.yul\":21474:21477   */\n      dup3\n        /* \"#utility.yul\":21385:21478   */\n      tag_505\n      jump\t// in\n    tag_794:\n        /* \"#utility.yul\":21503:21505   */\n      0x20\n        /* \"#utility.yul\":21498:21501   */\n      dup3\n        /* \"#utility.yul\":21494:21506   */\n      add\n        /* \"#utility.yul\":21487:21506   */\n      swap1\n      pop\n        /* \"#utility.yul\":21146:21512   */\n      swap2\n      swap1\n      pop\n      jump\t// out\n        /* \"#utility.yul\":21518:21937   */\n    tag_192:\n        /* \"#utility.yul\":21684:21688   */\n      0x00\n        /* \"#utility.yul\":21722:21724   */\n      0x20\n        /* \"#utility.yul\":21711:21720   */\n      dup3\n        /* \"#utility.yul\":21707:21725   */\n      add\n        /* \"#utility.yul\":21699:21725   */\n      swap1\n      pop\n        /* \"#utility.yul\":21771:21780   */\n      dup2\n        /* \"#utility.yul\":21765:21769   */\n      dup2\n        /* \"#utility.yul\":21761:21781   */\n      sub\n        /* \"#utility.yul\":21757:21758   */\n      0x00\n        /* \"#utility.yul\":21746:21755   */\n      dup4\n        /* \"#utility.yul\":21742:21759   */\n      add\n        /* \"#utility.yul\":21735:21782   */\n      mstore\n        /* \"#utility.yul\":21799:21930   */\n      tag_796\n        /* \"#utility.yul\":21925:21929   */\n      dup2\n        /* \"#utility.yul\":21799:21930   */\n      tag_506\n      jump\t// in\n    tag_796:\n        /* \"#utility.yul\":21791:21930   */\n      swap1\n      pop\n        /* \"#utility.yul\":21518:21937   */\n      swap2\n      swap1\n      pop\n      jump\t// out\n        /* \"#utility.yul\":21943:22122   */\n    tag_507:\n        /* \"#utility.yul\":22083:22114   */\n      0x766f74696e6720706572696f6420686173206e6f742065787069726564000000\n        /* \"#utility.yul\":22079:22080   */\n      0x00\n        /* \"#utility.yul\":22071:22077   */\n      dup3\n        /* \"#utility.yul\":22067:22081   */\n      add\n        /* \"#utility.yul\":22060:22115   */\n      mstore\n        /* \"#utility.yul\":21943:22122   */\n      pop\n      jump\t// out\n        /* \"#utility.yul\":22128:22494   */\n    tag_508:\n        /* \"#utility.yul\":22270:22273   */\n      0x00\n        /* \"#utility.yul\":22291:22358   */\n      tag_799\n        /* \"#utility.yul\":22355:22357   */\n      0x1d\n        /* \"#utility.yul\":22350:22353   */\n      dup4\n        /* \"#utility.yul\":22291:22358   */\n      tag_462\n      jump\t// in\n    tag_799:\n        /* \"#utility.yul\":22284:22358   */\n      swap2\n      pop\n        /* \"#utility.yul\":22367:22460   */\n      tag_800\n        /* \"#utility.yul\":22456:22459   */\n      dup3\n        /* \"#utility.yul\":22367:22460   */\n      tag_507\n      jump\t// in\n    tag_800:\n        /* \"#utility.yul\":22485:22487   */\n      0x20\n        /* \"#utility.yul\":22480:22483   */\n      dup3\n        /* \"#utility.yul\":22476:22488   */\n      add\n        /* \"#utility.yul\":22469:22488   */\n      swap1\n      pop\n        /* \"#utility.yul\":22128:22494   */\n      swap2\n      swap1\n      pop\n      jump\t// out\n        /* \"#utility.yul\":22500:22919   */\n    tag_196:\n        /* \"#utility.yul\":22666:22670   */\n      0x00\n        /* \"#utility.yul\":22704:22706   */\n      0x20\n        /* \"#utility.yul\":22693:22702   */\n      dup3\n        /* \"#utility.yul\":22689:22707   */\n      add\n        /* \"#utility.yul\":22681:22707   */\n      swap1\n      pop\n        /* \"#utility.yul\":22753:22762   */\n      dup2\n        /* \"#utility.yul\":22747:22751   */\n      dup2\n        /* \"#utility.yul\":22743:22763   */\n      sub\n        /* \"#utility.yul\":22739:22740   */\n      0x00\n        /* \"#utility.yul\":22728:22737   */\n      dup4\n        /* \"#utility.yul\":22724:22741   */\n      add\n        /* \"#utility.yul\":22717:22764   */\n      mstore\n        /* \"#utility.yul\":22781:22912   */\n      tag_802\n        /* \"#utility.yul\":22907:22911   */\n      dup2\n        /* \"#utility.yul\":22781:22912   */\n      tag_508\n      jump\t// in\n    tag_802:\n        /* \"#utility.yul\":22773:22912   */\n      swap1\n      pop\n        /* \"#utility.yul\":22500:22919   */\n      swap2\n      swap1\n      pop\n      jump\t// out\n        /* \"#utility.yul\":22925:23096   */\n    tag_509:\n        /* \"#utility.yul\":23065:23088   */\n      0x70726f706f73616c2068617320657870697265642e0000000000000000000000\n        /* \"#utility.yul\":23061:23062   */\n      0x00\n        /* \"#utility.yul\":23053:23059   */\n      dup3\n        /* \"#utility.yul\":23049:23063   */\n      add\n        /* \"#utility.yul\":23042:23089   */\n      mstore\n        /* \"#utility.yul\":22925:23096   */\n      pop\n      jump\t// out\n        /* \"#utility.yul\":23102:23468   */\n    tag_510:\n        /* \"#utility.yul\":23244:23247   */\n      0x00\n        /* \"#utility.yul\":23265:23332   */\n      tag_805\n        /* \"#utility.yul\":23329:23331   */\n      0x15\n        /* \"#utility.yul\":23324:23327   */\n      dup4\n        /* \"#utility.yul\":23265:23332   */\n      tag_462\n      jump\t// in\n    tag_805:\n        /* \"#utility.yul\":23258:23332   */\n      swap2\n      pop\n        /* \"#utility.yul\":23341:23434   */\n      tag_806\n        /* \"#utility.yul\":23430:23433   */\n      dup3\n        /* \"#utility.yul\":23341:23434   */\n      tag_509\n      jump\t// in\n    tag_806:\n        /* \"#utility.yul\":23459:23461   */\n      0x20\n        /* \"#utility.yul\":23454:23457   */\n      dup3\n        /* \"#utility.yul\":23450:23462   */\n      add\n        /* \"#utility.yul\":23443:23462   */\n      swap1\n      pop\n        /* \"#utility.yul\":23102:23468   */\n      swap2\n      swap1\n      pop\n      jump\t// out\n        /* \"#utility.yul\":23474:23893   */\n    tag_218:\n        /* \"#utility.yul\":23640:23644   */\n      0x00\n        /* \"#utility.yul\":23678:23680   */\n      0x20\n        /* \"#utility.yul\":23667:23676   */\n      dup3\n        /* \"#utility.yul\":23663:23681   */\n      add\n        /* \"#utility.yul\":23655:23681   */\n      swap1\n      pop\n        /* \"#utility.yul\":23727:23736   */\n      dup2\n        /* \"#utility.yul\":23721:23725   */\n      dup2\n        /* \"#utility.yul\":23717:23737   */\n      sub\n        /* \"#utility.yul\":23713:23714   */\n      0x00\n        /* \"#utility.yul\":23702:23711   */\n      dup4\n        /* \"#utility.yul\":23698:23715   */\n      add\n        /* \"#utility.yul\":23691:23738   */\n      mstore\n        /* \"#utility.yul\":23755:23886   */\n      tag_808\n        /* \"#utility.yul\":23881:23885   */\n      dup2\n        /* \"#utility.yul\":23755:23886   */\n      tag_510\n      jump\t// in\n    tag_808:\n        /* \"#utility.yul\":23747:23886   */\n      swap1\n      pop\n        /* \"#utility.yul\":23474:23893   */\n      swap2\n      swap1\n      pop\n      jump\t// out\n        /* \"#utility.yul\":23899:24121   */\n    tag_511:\n        /* \"#utility.yul\":24039:24073   */\n      0x7573657220616c726561647920766f746564206f6e20746869732070726f706f\n        /* \"#utility.yul\":24035:24036   */\n      0x00\n        /* \"#utility.yul\":24027:24033   */\n      dup3\n        /* \"#utility.yul\":24023:24037   */\n      add\n        /* \"#utility.yul\":24016:24074   */\n      mstore\n        /* \"#utility.yul\":24108:24113   */\n      0x73616c0000000000000000000000000000000000000000000000000000000000\n        /* \"#utility.yul\":24103:24105   */\n      0x20\n        /* \"#utility.yul\":24095:24101   */\n      dup3\n        /* \"#utility.yul\":24091:24106   */\n      add\n        /* \"#utility.yul\":24084:24114   */\n      mstore\n        /* \"#utility.yul\":23899:24121   */\n      pop\n      jump\t// out\n        /* \"#utility.yul\":24127:24493   */\n    tag_512:\n        /* \"#utility.yul\":24269:24272   */\n      0x00\n        /* \"#utility.yul\":24290:24357   */\n      tag_811\n        /* \"#utility.yul\":24354:24356   */\n      0x23\n        /* \"#utility.yul\":24349:24352   */\n      dup4\n        /* \"#utility.yul\":24290:24357   */\n      tag_462\n      jump\t// in\n    tag_811:\n        /* \"#utility.yul\":24283:24357   */\n      swap2\n      pop\n        /* \"#utility.yul\":24366:24459   */\n      tag_812\n        /* \"#utility.yul\":24455:24458   */\n      dup3\n        /* \"#utility.yul\":24366:24459   */\n      tag_511\n      jump\t// in\n    tag_812:\n        /* \"#utility.yul\":24484:24486   */\n      0x40\n        /* \"#utility.yul\":24479:24482   */\n      dup3\n        /* \"#utility.yul\":24475:24487   */\n      add\n        /* \"#utility.yul\":24468:24487   */\n      swap1\n      pop\n        /* \"#utility.yul\":24127:24493   */\n      swap2\n      swap1\n      pop\n      jump\t// out\n        /* \"#utility.yul\":24499:24918   */\n    tag_222:\n        /* \"#utility.yul\":24665:24669   */\n      0x00\n        /* \"#utility.yul\":24703:24705   */\n      0x20\n        /* \"#utility.yul\":24692:24701   */\n      dup3\n        /* \"#utility.yul\":24688:24706   */\n      add\n        /* \"#utility.yul\":24680:24706   */\n      swap1\n      pop\n        /* \"#utility.yul\":24752:24761   */\n      dup2\n        /* \"#utility.yul\":24746:24750   */\n      dup2\n        /* \"#utility.yul\":24742:24762   */\n      sub\n        /* \"#utility.yul\":24738:24739   */\n      0x00\n        /* \"#utility.yul\":24727:24736   */\n      dup4\n        /* \"#utility.yul\":24723:24740   */\n      add\n        /* \"#utility.yul\":24716:24763   */\n      mstore\n        /* \"#utility.yul\":24780:24911   */\n      tag_814\n        /* \"#utility.yul\":24906:24910   */\n      dup2\n        /* \"#utility.yul\":24780:24911   */\n      tag_512\n      jump\t// in\n    tag_814:\n        /* \"#utility.yul\":24772:24911   */\n      swap1\n      pop\n        /* \"#utility.yul\":24499:24918   */\n      swap2\n      swap1\n      pop\n      jump\t// out\n        /* \"#utility.yul\":24924:25153   */\n    tag_513:\n        /* \"#utility.yul\":25064:25098   */\n      0x666f7220746869732070726f706f73616c2c2074686520766f74696e67207469\n        /* \"#utility.yul\":25060:25061   */\n      0x00\n        /* \"#utility.yul\":25052:25058   */\n      dup3\n        /* \"#utility.yul\":25048:25062   */\n      add\n        /* \"#utility.yul\":25041:25099   */\n      mstore\n        /* \"#utility.yul\":25133:25145   */\n      0x6d65206578706972656400000000000000000000000000000000000000000000\n        /* \"#utility.yul\":25128:25130   */\n      0x20\n        /* \"#utility.yul\":25120:25126   */\n      dup3\n        /* \"#utility.yul\":25116:25131   */\n      add\n        /* \"#utility.yul\":25109:25146   */\n      mstore\n        /* \"#utility.yul\":24924:25153   */\n      pop\n      jump\t// out\n        /* \"#utility.yul\":25159:25525   */\n    tag_514:\n        /* \"#utility.yul\":25301:25304   */\n      0x00\n        /* \"#utility.yul\":25322:25389   */\n      tag_817\n        /* \"#utility.yul\":25386:25388   */\n      0x2a\n        /* \"#utility.yul\":25381:25384   */\n      dup4\n        /* \"#utility.yul\":25322:25389   */\n      tag_462\n      jump\t// in\n    tag_817:\n        /* \"#utility.yul\":25315:25389   */\n      swap2\n      pop\n        /* \"#utility.yul\":25398:25491   */\n      tag_818\n        /* \"#utility.yul\":25487:25490   */\n      dup3\n        /* \"#utility.yul\":25398:25491   */\n      tag_513\n      jump\t// in\n    tag_818:\n        /* \"#utility.yul\":25516:25518   */\n      0x40\n        /* \"#utility.yul\":25511:25514   */\n      dup3\n        /* \"#utility.yul\":25507:25519   */\n      add\n        /* \"#utility.yul\":25500:25519   */\n      swap1\n      pop\n        /* \"#utility.yul\":25159:25525   */\n      swap2\n      swap1\n      pop\n      jump\t// out\n        /* \"#utility.yul\":25531:25950   */\n    tag_226:\n        /* \"#utility.yul\":25697:25701   */\n      0x00\n        /* \"#utility.yul\":25735:25737   */\n      0x20\n        /* \"#utility.yul\":25724:25733   */\n      dup3\n        /* \"#utility.yul\":25720:25738   */\n      add\n        /* \"#utility.yul\":25712:25738   */\n      swap1\n      pop\n        /* \"#utility.yul\":25784:25793   */\n      dup2\n        /* \"#utility.yul\":25778:25782   */\n      dup2\n        /* \"#utility.yul\":25774:25794   */\n      sub\n        /* \"#utility.yul\":25770:25771   */\n      0x00\n        /* \"#utility.yul\":25759:25768   */\n      dup4\n        /* \"#utility.yul\":25755:25772   */\n      add\n        /* \"#utility.yul\":25748:25795   */\n      mstore\n        /* \"#utility.yul\":25812:25943   */\n      tag_820\n        /* \"#utility.yul\":25938:25942   */\n      dup2\n        /* \"#utility.yul\":25812:25943   */\n      tag_514\n      jump\t// in\n    tag_820:\n        /* \"#utility.yul\":25804:25943   */\n      swap1\n      pop\n        /* \"#utility.yul\":25531:25950   */\n      swap2\n      swap1\n      pop\n      jump\t// out\n        /* \"#utility.yul\":25956:26150   */\n    tag_231:\n        /* \"#utility.yul\":25996:26000   */\n      0x00\n        /* \"#utility.yul\":26016:26036   */\n      tag_822\n        /* \"#utility.yul\":26034:26035   */\n      dup3\n        /* \"#utility.yul\":26016:26036   */\n      tag_466\n      jump\t// in\n    tag_822:\n        /* \"#utility.yul\":26011:26036   */\n      swap2\n      pop\n        /* \"#utility.yul\":26050:26070   */\n      tag_823\n        /* \"#utility.yul\":26068:26069   */\n      dup4\n        /* \"#utility.yul\":26050:26070   */\n      tag_466\n      jump\t// in\n    tag_823:\n        /* \"#utility.yul\":26045:26070   */\n      swap3\n      pop\n        /* \"#utility.yul\":26094:26095   */\n      dup3\n        /* \"#utility.yul\":26091:26092   */\n      dup3\n        /* \"#utility.yul\":26087:26096   */\n      sub\n        /* \"#utility.yul\":26079:26096   */\n      swap1\n      pop\n        /* \"#utility.yul\":26118:26119   */\n      dup2\n        /* \"#utility.yul\":26112:26116   */\n      dup2\n        /* \"#utility.yul\":26109:26120   */\n      gt\n        /* \"#utility.yul\":26106:26143   */\n      iszero\n      tag_824\n      jumpi\n        /* \"#utility.yul\":26123:26141   */\n      tag_825\n      tag_502\n      jump\t// in\n    tag_825:\n        /* \"#utility.yul\":26106:26143   */\n    tag_824:\n        /* \"#utility.yul\":25956:26150   */\n      swap3\n      swap2\n      pop\n      pop\n      jump\t// out\n        /* \"#utility.yul\":26156:26336   */\n    tag_234:\n        /* \"#utility.yul\":26204:26281   */\n      0x4e487b7100000000000000000000000000000000000000000000000000000000\n        /* \"#utility.yul\":26201:26202   */\n      0x00\n        /* \"#utility.yul\":26194:26282   */\n      mstore\n        /* \"#utility.yul\":26301:26305   */\n      0x32\n        /* \"#utility.yul\":26298:26299   */\n      0x04\n        /* \"#utility.yul\":26291:26306   */\n      mstore\n        /* \"#utility.yul\":26325:26329   */\n      0x24\n        /* \"#utility.yul\":26322:26323   */\n      0x00\n        /* \"#utility.yul\":26315:26330   */\n      revert\n        /* \"#utility.yul\":26342:26533   */\n    tag_236:\n        /* \"#utility.yul\":26382:26385   */\n      0x00\n        /* \"#utility.yul\":26401:26421   */\n      tag_828\n        /* \"#utility.yul\":26419:26420   */\n      dup3\n        /* \"#utility.yul\":26401:26421   */\n      tag_466\n      jump\t// in\n    tag_828:\n        /* \"#utility.yul\":26396:26421   */\n      swap2\n      pop\n        /* \"#utility.yul\":26435:26455   */\n      tag_829\n        /* \"#utility.yul\":26453:26454   */\n      dup4\n        /* \"#utility.yul\":26435:26455   */\n      tag_466\n      jump\t// in\n    tag_829:\n        /* \"#utility.yul\":26430:26455   */\n      swap3\n      pop\n        /* \"#utility.yul\":26478:26479   */\n      dup3\n        /* \"#utility.yul\":26475:26476   */\n      dup3\n        /* \"#utility.yul\":26471:26480   */\n      add\n        /* \"#utility.yul\":26464:26480   */\n      swap1\n      pop\n        /* \"#utility.yul\":26499:26502   */\n      dup1\n        /* \"#utility.yul\":26496:26497   */\n      dup3\n        /* \"#utility.yul\":26493:26503   */\n      gt\n        /* \"#utility.yul\":26490:26526   */\n      iszero\n      tag_830\n      jumpi\n        /* \"#utility.yul\":26506:26524   */\n      tag_831\n      tag_502\n      jump\t// in\n    tag_831:\n        /* \"#utility.yul\":26490:26526   */\n    tag_830:\n        /* \"#utility.yul\":26342:26533   */\n      swap3\n      swap2\n      pop\n      pop\n      jump\t// out\n        /* \"#utility.yul\":26539:26887   */\n    tag_244:\n        /* \"#utility.yul\":26579:26586   */\n      0x00\n        /* \"#utility.yul\":26602:26622   */\n      tag_833\n        /* \"#utility.yul\":26620:26621   */\n      dup3\n        /* \"#utility.yul\":26602:26622   */\n      tag_466\n      jump\t// in\n    tag_833:\n        /* \"#utility.yul\":26597:26622   */\n      swap2\n      pop\n        /* \"#utility.yul\":26636:26656   */\n      tag_834\n        /* \"#utility.yul\":26654:26655   */\n      dup4\n        /* \"#utility.yul\":26636:26656   */\n      tag_466\n      jump\t// in\n    tag_834:\n        /* \"#utility.yul\":26631:26656   */\n      swap3\n      pop\n        /* \"#utility.yul\":26824:26825   */\n      dup2\n        /* \"#utility.yul\":26756:26822   */\n      0xffffffffffffffffffffffffffffffffffffffffffffffffffffffffffffffff\n        /* \"#utility.yul\":26752:26826   */\n      div\n        /* \"#utility.yul\":26749:26750   */\n      dup4\n        /* \"#utility.yul\":26746:26827   */\n      gt\n        /* \"#utility.yul\":26741:26742   */\n      dup3\n        /* \"#utility.yul\":26734:26743   */\n      iszero\n        /* \"#utility.yul\":26727:26744   */\n      iszero\n        /* \"#utility.yul\":26723:26828   */\n      and\n        /* \"#utility.yul\":26720:26851   */\n      iszero\n      tag_835\n      jumpi\n        /* \"#utility.yul\":26831:26849   */\n      tag_836\n      tag_502\n      jump\t// in\n    tag_836:\n        /* \"#utility.yul\":26720:26851   */\n    tag_835:\n        /* \"#utility.yul\":26879:26880   */\n      dup3\n        /* \"#utility.yul\":26876:26877   */\n      dup3\n        /* \"#utility.yul\":26872:26881   */\n      mul\n        /* \"#utility.yul\":26861:26881   */\n      swap1\n      pop\n        /* \"#utility.yul\":26539:26887   */\n      swap3\n      swap2\n      pop\n      pop\n      jump\t// out\n        /* \"#utility.yul\":26893:27007   */\n    tag_515:\n        /* \"#utility.yul\":26960:26966   */\n      0x00\n        /* \"#utility.yul\":26994:26999   */\n      dup2\n        /* \"#utility.yul\":26988:27000   */\n      mload\n        /* \"#utility.yul\":26978:27000   */\n      swap1\n      pop\n        /* \"#utility.yul\":26893:27007   */\n      swap2\n      swap1\n      pop\n      jump\t// out\n        /* \"#utility.yul\":27013:27197   */\n    tag_516:\n        /* \"#utility.yul\":27112:27123   */\n      0x00\n        /* \"#utility.yul\":27146:27152   */\n      dup3\n        /* \"#utility.yul\":27141:27144   */\n      dup3\n        /* \"#utility.yul\":27134:27153   */\n      mstore\n        /* \"#utility.yul\":27186:27190   */\n      0x20\n        /* \"#utility.yul\":27181:27184   */\n      dup3\n        /* \"#utility.yul\":27177:27191   */\n      add\n        /* \"#utility.yul\":27162:27191   */\n      swap1\n      pop\n        /* \"#utility.yul\":27013:27197   */\n      swap3\n      swap2\n      pop\n      pop\n      jump\t// out\n        /* \"#utility.yul\":27203:27335   */\n    tag_517:\n        /* \"#utility.yul\":27270:27274   */\n      0x00\n        /* \"#utility.yul\":27293:27296   */\n      dup2\n        /* \"#utility.yul\":27285:27296   */\n      swap1\n      pop\n        /* \"#utility.yul\":27323:27327   */\n      0x20\n        /* \"#utility.yul\":27318:27321   */\n      dup3\n        /* \"#utility.yul\":27314:27328   */\n      add\n        /* \"#utility.yul\":27306:27328   */\n      swap1\n      pop\n        /* \"#utility.yul\":27203:27335   */\n      swap2\n      swap1\n      pop\n      jump\t// out\n        /* \"#utility.yul\":27341:27449   */\n    tag_518:\n        /* \"#utility.yul\":27418:27442   */\n      tag_841\n        /* \"#utility.yul\":27436:27441   */\n      dup2\n        /* \"#utility.yul\":27418:27442   */\n      tag_466\n      jump\t// in\n    tag_841:\n        /* \"#utility.yul\":27413:27416   */\n      dup3\n        /* \"#utility.yul\":27406:27443   */\n      mstore\n        /* \"#utility.yul\":27341:27449   */\n      pop\n      pop\n      jump\t// out\n        /* \"#utility.yul\":27455:27634   */\n    tag_519:\n        /* \"#utility.yul\":27524:27534   */\n      0x00\n        /* \"#utility.yul\":27545:27591   */\n      tag_843\n        /* \"#utility.yul\":27587:27590   */\n      dup4\n        /* \"#utility.yul\":27579:27585   */\n      dup4\n        /* \"#utility.yul\":27545:27591   */\n      tag_518\n      jump\t// in\n    tag_843:\n        /* \"#utility.yul\":27623:27627   */\n      0x20\n        /* \"#utility.yul\":27618:27621   */\n      dup4\n        /* \"#utility.yul\":27614:27628   */\n      add\n        /* \"#utility.yul\":27600:27628   */\n      swap1\n      pop\n        /* \"#utility.yul\":27455:27634   */\n      swap3\n      swap2\n      pop\n      pop\n      jump\t// out\n        /* \"#utility.yul\":27640:27753   */\n    tag_520:\n        /* \"#utility.yul\":27710:27714   */\n      0x00\n        /* \"#utility.yul\":27742:27746   */\n      0x20\n        /* \"#utility.yul\":27737:27740   */\n      dup3\n        /* \"#utility.yul\":27733:27747   */\n      add\n        /* \"#utility.yul\":27725:27747   */\n      swap1\n      pop\n        /* \"#utility.yul\":27640:27753   */\n      swap2\n      swap1\n      pop\n      jump\t// out\n        /* \"#utility.yul\":27789:28521   */\n    tag_521:\n        /* \"#utility.yul\":27908:27911   */\n      0x00\n        /* \"#utility.yul\":27937:27991   */\n      tag_846\n        /* \"#utility.yul\":27985:27990   */\n      dup3\n        /* \"#utility.yul\":27937:27991   */\n      tag_515\n      jump\t// in\n    tag_846:\n        /* \"#utility.yul\":28007:28093   */\n      tag_847\n        /* \"#utility.yul\":28086:28092   */\n      dup2\n        /* \"#utility.yul\":28081:28084   */\n      dup6\n        /* \"#utility.yul\":28007:28093   */\n      tag_516\n      jump\t// in\n    tag_847:\n        /* \"#utility.yul\":28000:28093   */\n      swap4\n      pop\n        /* \"#utility.yul\":28117:28173   */\n      tag_848\n        /* \"#utility.yul\":28167:28172   */\n      dup4\n        /* \"#utility.yul\":28117:28173   */\n      tag_517\n      jump\t// in\n    tag_848:\n        /* \"#utility.yul\":28196:28203   */\n      dup1\n        /* \"#utility.yul\":28227:28228   */\n      0x00\n        /* \"#utility.yul\":28212:28496   */\n    tag_849:\n        /* \"#utility.yul\":28237:28243   */\n      dup4\n        /* \"#utility.yul\":28234:28235   */\n      dup2\n        /* \"#utility.yul\":28231:28244   */\n      lt\n        /* \"#utility.yul\":28212:28496   */\n      iszero\n      tag_851\n      jumpi\n        /* \"#utility.yul\":28313:28319   */\n      dup2\n        /* \"#utility.yul\":28307:28320   */\n      mload\n        /* \"#utility.yul\":28340:28403   */\n      tag_852\n        /* \"#utility.yul\":28399:28402   */\n      dup9\n        /* \"#utility.yul\":28384:28397   */\n      dup3\n        /* \"#utility.yul\":28340:28403   */\n      tag_519\n      jump\t// in\n    tag_852:\n        /* \"#utility.yul\":28333:28403   */\n      swap8\n      pop\n        /* \"#utility.yul\":28426:28486   */\n      tag_853\n        /* \"#utility.yul\":28479:28485   */\n      dup4\n        /* \"#utility.yul\":28426:28486   */\n      tag_520\n      jump\t// in\n    tag_853:\n        /* \"#utility.yul\":28416:28486   */\n      swap3\n      pop\n        /* \"#utility.yul\":28272:28496   */\n      pop\n        /* \"#utility.yul\":28259:28260   */\n      0x01\n        /* \"#utility.yul\":28256:28257   */\n      dup2\n        /* \"#utility.yul\":28252:28261   */\n      add\n        /* \"#utility.yul\":28247:28261   */\n      swap1\n      pop\n        /* \"#utility.yul\":28212:28496   */\n      jump(tag_849)\n    tag_851:\n        /* \"#utility.yul\":28216:28230   */\n      pop\n        /* \"#utility.yul\":28512:28515   */\n      dup6\n        /* \"#utility.yul\":28505:28515   */\n      swap4\n      pop\n        /* \"#utility.yul\":27913:28521   */\n      pop\n      pop\n      pop\n        /* \"#utility.yul\":27789:28521   */\n      swap3\n      swap2\n      pop\n      pop\n      jump\t// out\n        /* \"#utility.yul\":28527:29120   */\n    tag_253:\n        /* \"#utility.yul\":28726:28730   */\n      0x00\n        /* \"#utility.yul\":28764:28766   */\n      0x60\n        /* \"#utility.yul\":28753:28762   */\n      dup3\n        /* \"#utility.yul\":28749:28767   */\n      add\n        /* \"#utility.yul\":28741:28767   */\n      swap1\n      pop\n        /* \"#utility.yul\":28777:28848   */\n      tag_855\n        /* \"#utility.yul\":28845:28846   */\n      0x00\n        /* \"#utility.yul\":28834:28843   */\n      dup4\n        /* \"#utility.yul\":28830:28847   */\n      add\n        /* \"#utility.yul\":28821:28827   */\n      dup7\n        /* \"#utility.yul\":28777:28848   */\n      tag_492\n      jump\t// in\n    tag_855:\n        /* \"#utility.yul\":28858:28930   */\n      tag_856\n        /* \"#utility.yul\":28926:28928   */\n      0x20\n        /* \"#utility.yul\":28915:28924   */\n      dup4\n        /* \"#utility.yul\":28911:28929   */\n      add\n        /* \"#utility.yul\":28902:28908   */\n      dup6\n        /* \"#utility.yul\":28858:28930   */\n      tag_469\n      jump\t// in\n    tag_856:\n        /* \"#utility.yul\":28977:28986   */\n      dup2\n        /* \"#utility.yul\":28971:28975   */\n      dup2\n        /* \"#utility.yul\":28967:28987   */\n      sub\n        /* \"#utility.yul\":28962:28964   */\n      0x40\n        /* \"#utility.yul\":28951:28960   */\n      dup4\n        /* \"#utility.yul\":28947:28965   */\n      add\n        /* \"#utility.yul\":28940:28988   */\n      mstore\n        /* \"#utility.yul\":29005:29113   */\n      tag_857\n        /* \"#utility.yul\":29108:29112   */\n      dup2\n        /* \"#utility.yul\":29099:29105   */\n      dup5\n        /* \"#utility.yul\":29005:29113   */\n      tag_521\n      jump\t// in\n    tag_857:\n        /* \"#utility.yul\":28997:29113   */\n      swap1\n      pop\n        /* \"#utility.yul\":28527:29120   */\n      swap5\n      swap4\n      pop\n      pop\n      pop\n      pop\n      jump\t// out\n        /* \"#utility.yul\":29126:29360   */\n    tag_522:\n        /* \"#utility.yul\":29266:29300   */\n      0x416363657373436f6e74726f6c3a2063616e206f6e6c792072656e6f756e6365\n        /* \"#utility.yul\":29262:29263   */\n      0x00\n        /* \"#utility.yul\":29254:29260   */\n      dup3\n        /* \"#utility.yul\":29250:29264   */\n      add\n        /* \"#utility.yul\":29243:29301   */\n      mstore\n        /* \"#utility.yul\":29335:29352   */\n      0x20726f6c657320666f722073656c660000000000000000000000000000000000\n        /* \"#utility.yul\":29330:29332   */\n      0x20\n        /* \"#utility.yul\":29322:29328   */\n      dup3\n        /* \"#utility.yul\":29318:29333   */\n      add\n        /* \"#utility.yul\":29311:29353   */\n      mstore\n        /* \"#utility.yul\":29126:29360   */\n      pop\n      jump\t// out\n        /* \"#utility.yul\":29366:29732   */\n    tag_523:\n        /* \"#utility.yul\":29508:29511   */\n      0x00\n        /* \"#utility.yul\":29529:29596   */\n      tag_860\n        /* \"#utility.yul\":29593:29595   */\n      0x2f\n        /* \"#utility.yul\":29588:29591   */\n      dup4\n        /* \"#utility.yul\":29529:29596   */\n      tag_462\n      jump\t// in\n    tag_860:\n        /* \"#utility.yul\":29522:29596   */\n      swap2\n      pop\n        /* \"#utility.yul\":29605:29698   */\n      tag_861\n        /* \"#utility.yul\":29694:29697   */\n      dup3\n        /* \"#utility.yul\":29605:29698   */\n      tag_522\n      jump\t// in\n    tag_861:\n        /* \"#utility.yul\":29723:29725   */\n      0x40\n        /* \"#utility.yul\":29718:29721   */\n      dup3\n        /* \"#utility.yul\":29714:29726   */\n      add\n        /* \"#utility.yul\":29707:29726   */\n      swap1\n      pop\n        /* \"#utility.yul\":29366:29732   */\n      swap2\n      swap1\n      pop\n      jump\t// out\n        /* \"#utility.yul\":29738:30157   */\n    tag_259:\n        /* \"#utility.yul\":29904:29908   */\n      0x00\n        /* \"#utility.yul\":29942:29944   */\n      0x20\n        /* \"#utility.yul\":29931:29940   */\n      dup3\n        /* \"#utility.yul\":29927:29945   */\n      add\n        /* \"#utility.yul\":29919:29945   */\n      swap1\n      pop\n        /* \"#utility.yul\":29991:30000   */\n      dup2\n        /* \"#utility.yul\":29985:29989   */\n      dup2\n        /* \"#utility.yul\":29981:30001   */\n      sub\n        /* \"#utility.yul\":29977:29978   */\n      0x00\n        /* \"#utility.yul\":29966:29975   */\n      dup4\n        /* \"#utility.yul\":29962:29979   */\n      add\n        /* \"#utility.yul\":29955:30002   */\n      mstore\n        /* \"#utility.yul\":30019:30150   */\n      tag_863\n        /* \"#utility.yul\":30145:30149   */\n      dup2\n        /* \"#utility.yul\":30019:30150   */\n      tag_523\n      jump\t// in\n    tag_863:\n        /* \"#utility.yul\":30011:30150   */\n      swap1\n      pop\n        /* \"#utility.yul\":29738:30157   */\n      swap2\n      swap1\n      pop\n      jump\t// out\n        /* \"#utility.yul\":30163:30342   */\n    tag_524:\n        /* \"#utility.yul\":30303:30334   */\n      0x54686520766f74696e6720706572696f642063616e6e6f742062652030000000\n        /* \"#utility.yul\":30299:30300   */\n      0x00\n        /* \"#utility.yul\":30291:30297   */\n      dup3\n        /* \"#utility.yul\":30287:30301   */\n      add\n        /* \"#utility.yul\":30280:30335   */\n      mstore\n        /* \"#utility.yul\":30163:30342   */\n      pop\n      jump\t// out\n        /* \"#utility.yul\":30348:30714   */\n    tag_525:\n        /* \"#utility.yul\":30490:30493   */\n      0x00\n        /* \"#utility.yul\":30511:30578   */\n      tag_866\n        /* \"#utility.yul\":30575:30577   */\n      0x1d\n        /* \"#utility.yul\":30570:30573   */\n      dup4\n        /* \"#utility.yul\":30511:30578   */\n      tag_462\n      jump\t// in\n    tag_866:\n        /* \"#utility.yul\":30504:30578   */\n      swap2\n      pop\n        /* \"#utility.yul\":30587:30680   */\n      tag_867\n        /* \"#utility.yul\":30676:30679   */\n      dup3\n        /* \"#utility.yul\":30587:30680   */\n      tag_524\n      jump\t// in\n    tag_867:\n        /* \"#utility.yul\":30705:30707   */\n      0x20\n        /* \"#utility.yul\":30700:30703   */\n      dup3\n        /* \"#utility.yul\":30696:30708   */\n      add\n        /* \"#utility.yul\":30689:30708   */\n      swap1\n      pop\n        /* \"#utility.yul\":30348:30714   */\n      swap2\n      swap1\n      pop\n      jump\t// out\n        /* \"#utility.yul\":30720:31139   */\n    tag_267:\n        /* \"#utility.yul\":30886:30890   */\n      0x00\n        /* \"#utility.yul\":30924:30926   */\n      0x20\n        /* \"#utility.yul\":30913:30922   */\n      dup3\n        /* \"#utility.yul\":30909:30927   */\n      add\n        /* \"#utility.yul\":30901:30927   */\n      swap1\n      pop\n        /* \"#utility.yul\":30973:30982   */\n      dup2\n        /* \"#utility.yul\":30967:30971   */\n      dup2\n        /* \"#utility.yul\":30963:30983   */\n      sub\n        /* \"#utility.yul\":30959:30960   */\n      0x00\n        /* \"#utility.yul\":30948:30957   */\n      dup4\n        /* \"#utility.yul\":30944:30961   */\n      add\n        /* \"#utility.yul\":30937:30984   */\n      mstore\n        /* \"#utility.yul\":31001:31132   */\n      tag_869\n        /* \"#utility.yul\":31127:31131   */\n      dup2\n        /* \"#utility.yul\":31001:31132   */\n      tag_525\n      jump\t// in\n    tag_869:\n        /* \"#utility.yul\":30993:31132   */\n      swap1\n      pop\n        /* \"#utility.yul\":30720:31139   */\n      swap2\n      swap1\n      pop\n      jump\t// out\n        /* \"#utility.yul\":31145:31242   */\n    tag_526:\n        /* \"#utility.yul\":31204:31210   */\n      0x00\n        /* \"#utility.yul\":31232:31235   */\n      dup3\n        /* \"#utility.yul\":31222:31235   */\n      swap1\n      pop\n        /* \"#utility.yul\":31145:31242   */\n      swap3\n      swap2\n      pop\n      pop\n      jump\t// out\n        /* \"#utility.yul\":31248:31389   */\n    tag_527:\n        /* \"#utility.yul\":31297:31301   */\n      0x00\n        /* \"#utility.yul\":31320:31323   */\n      dup2\n        /* \"#utility.yul\":31312:31323   */\n      swap1\n      pop\n        /* \"#utility.yul\":31343:31346   */\n      dup2\n        /* \"#utility.yul\":31340:31341   */\n      0x00\n        /* \"#utility.yul\":31333:31347   */\n      mstore\n        /* \"#utility.yul\":31377:31381   */\n      0x20\n        /* \"#utility.yul\":31374:31375   */\n      0x00\n        /* \"#utility.yul\":31364:31382   */\n      keccak256\n        /* \"#utility.yul\":31356:31382   */\n      swap1\n      pop\n        /* \"#utility.yul\":31248:31389   */\n      swap2\n      swap1\n      pop\n      jump\t// out\n        /* \"#utility.yul\":31395:31488   */\n    tag_528:\n        /* \"#utility.yul\":31432:31438   */\n      0x00\n        /* \"#utility.yul\":31479:31481   */\n      0x20\n        /* \"#utility.yul\":31474:31476   */\n      0x1f\n        /* \"#utility.yul\":31467:31472   */\n      dup4\n        /* \"#utility.yul\":31463:31477   */\n      add\n        /* \"#utility.yul\":31459:31482   */\n      div\n        /* \"#utility.yul\":31449:31482   */\n      swap1\n      pop\n        /* \"#utility.yul\":31395:31488   */\n      swap2\n      swap1\n      pop\n      jump\t// out\n        /* \"#utility.yul\":31494:31601   */\n    tag_529:\n        /* \"#utility.yul\":31538:31546   */\n      0x00\n        /* \"#utility.yul\":31588:31593   */\n      dup3\n        /* \"#utility.yul\":31582:31586   */\n      dup3\n        /* \"#utility.yul\":31578:31594   */\n      shl\n        /* \"#utility.yul\":31557:31594   */\n      swap1\n      pop\n        /* \"#utility.yul\":31494:31601   */\n      swap3\n      swap2\n      pop\n      pop\n      jump\t// out\n        /* \"#utility.yul\":31607:32000   */\n    tag_530:\n        /* \"#utility.yul\":31676:31682   */\n      0x00\n        /* \"#utility.yul\":31726:31727   */\n      0x08\n        /* \"#utility.yul\":31714:31724   */\n      dup4\n        /* \"#utility.yul\":31710:31728   */\n      mul\n        /* \"#utility.yul\":31749:31846   */\n      tag_875\n        /* \"#utility.yul\":31779:31845   */\n      0xffffffffffffffffffffffffffffffffffffffffffffffffffffffffffffffff\n        /* \"#utility.yul\":31768:31777   */\n      dup3\n        /* \"#utility.yul\":31749:31846   */\n      tag_529\n      jump\t// in\n    tag_875:\n        /* \"#utility.yul\":31867:31906   */\n      tag_876\n        /* \"#utility.yul\":31897:31905   */\n      dup7\n        /* \"#utility.yul\":31886:31895   */\n      dup4\n        /* \"#utility.yul\":31867:31906   */\n      tag_529\n      jump\t// in\n    tag_876:\n        /* \"#utility.yul\":31855:31906   */\n      swap6\n      pop\n        /* \"#utility.yul\":31939:31943   */\n      dup1\n        /* \"#utility.yul\":31935:31944   */\n      not\n        /* \"#utility.yul\":31928:31933   */\n      dup5\n        /* \"#utility.yul\":31924:31945   */\n      and\n        /* \"#utility.yul\":31915:31945   */\n      swap4\n      pop\n        /* \"#utility.yul\":31988:31992   */\n      dup1\n        /* \"#utility.yul\":31978:31986   */\n      dup7\n        /* \"#utility.yul\":31974:31993   */\n      and\n        /* \"#utility.yul\":31967:31972   */\n      dup5\n        /* \"#utility.yul\":31964:31994   */\n      or\n        /* \"#utility.yul\":31954:31994   */\n      swap3\n      pop\n        /* \"#utility.yul\":31683:32000   */\n      pop\n      pop\n        /* \"#utility.yul\":31607:32000   */\n      swap4\n      swap3\n      pop\n      pop\n      pop\n      jump\t// out\n        /* \"#utility.yul\":32006:32066   */\n    tag_531:\n        /* \"#utility.yul\":32034:32037   */\n      0x00\n        /* \"#utility.yul\":32055:32060   */\n      dup2\n        /* \"#utility.yul\":32048:32060   */\n      swap1\n      pop\n        /* \"#utility.yul\":32006:32066   */\n      swap2\n      swap1\n      pop\n      jump\t// out\n        /* \"#utility.yul\":32072:32214   */\n    tag_532:\n        /* \"#utility.yul\":32122:32131   */\n      0x00\n        /* \"#utility.yul\":32155:32208   */\n      tag_879\n        /* \"#utility.yul\":32173:32207   */\n      tag_880\n        /* \"#utility.yul\":32182:32206   */\n      tag_881\n        /* \"#utility.yul\":32200:32205   */\n      dup5\n        /* \"#utility.yul\":32182:32206   */\n      tag_466\n      jump\t// in\n    tag_881:\n        /* \"#utility.yul\":32173:32207   */\n      tag_531\n      jump\t// in\n    tag_880:\n        /* \"#utility.yul\":32155:32208   */\n      tag_466\n      jump\t// in\n    tag_879:\n        /* \"#utility.yul\":32142:32208   */\n      swap1\n      pop\n        /* \"#utility.yul\":32072:32214   */\n      swap2\n      swap1\n      pop\n      jump\t// out\n        /* \"#utility.yul\":32220:32295   */\n    tag_533:\n        /* \"#utility.yul\":32263:32266   */\n      0x00\n        /* \"#utility.yul\":32284:32289   */\n      dup2\n        /* \"#utility.yul\":32277:32289   */\n      swap1\n      pop\n        /* \"#utility.yul\":32220:32295   */\n      swap2\n      swap1\n      pop\n      jump\t// out\n        /* \"#utility.yul\":32301:32570   */\n    tag_534:\n        /* \"#utility.yul\":32411:32450   */\n      tag_884\n        /* \"#utility.yul\":32442:32449   */\n      dup4\n        /* \"#utility.yul\":32411:32450   */\n      tag_532\n      jump\t// in\n    tag_884:\n        /* \"#utility.yul\":32472:32563   */\n      tag_885\n        /* \"#utility.yul\":32521:32562   */\n      tag_886\n        /* \"#utility.yul\":32545:32561   */\n      dup3\n        /* \"#utility.yul\":32521:32562   */\n      tag_533\n      jump\t// in\n    tag_886:\n        /* \"#utility.yul\":32513:32519   */\n      dup5\n        /* \"#utility.yul\":32506:32510   */\n      dup5\n        /* \"#utility.yul\":32500:32511   */\n      sload\n        /* \"#utility.yul\":32472:32563   */\n      tag_530\n      jump\t// in\n    tag_885:\n        /* \"#utility.yul\":32466:32470   */\n      dup3\n        /* \"#utility.yul\":32459:32564   */\n      sstore\n        /* \"#utility.yul\":32377:32570   */\n      pop\n        /* \"#utility.yul\":32301:32570   */\n      pop\n      pop\n      pop\n      jump\t// out\n        /* \"#utility.yul\":32576:32649   */\n    tag_535:\n        /* \"#utility.yul\":32621:32624   */\n      0x00\n        /* \"#utility.yul\":32576:32649   */\n      swap1\n      jump\t// out\n        /* \"#utility.yul\":32655:32844   */\n    tag_536:\n        /* \"#utility.yul\":32732:32764   */\n      tag_889\n      tag_535\n      jump\t// in\n    tag_889:\n        /* \"#utility.yul\":32773:32838   */\n      tag_890\n        /* \"#utility.yul\":32831:32837   */\n      dup2\n        /* \"#utility.yul\":32823:32829   */\n      dup5\n        /* \"#utility.yul\":32817:32821   */\n      dup5\n        /* \"#utility.yul\":32773:32838   */\n      tag_534\n      jump\t// in\n    tag_890:\n        /* \"#utility.yul\":32708:32844   */\n      pop\n        /* \"#utility.yul\":32655:32844   */\n      pop\n      pop\n      jump\t// out\n        /* \"#utility.yul\":32850:33036   */\n    tag_537:\n        /* \"#utility.yul\":32910:33030   */\n    tag_892:\n        /* \"#utility.yul\":32927:32930   */\n      dup2\n        /* \"#utility.yul\":32920:32925   */\n      dup2\n        /* \"#utility.yul\":32917:32931   */\n      lt\n        /* \"#utility.yul\":32910:33030   */\n      iszero\n      tag_894\n      jumpi\n        /* \"#utility.yul\":32981:33020   */\n      tag_895\n        /* \"#utility.yul\":33018:33019   */\n      0x00\n        /* \"#utility.yul\":33011:33016   */\n      dup3\n        /* \"#utility.yul\":32981:33020   */\n      tag_536\n      jump\t// in\n    tag_895:\n        /* \"#utility.yul\":32954:32955   */\n      0x01\n        /* \"#utility.yul\":32947:32952   */\n      dup2\n        /* \"#utility.yul\":32943:32956   */\n      add\n        /* \"#utility.yul\":32934:32956   */\n      swap1\n      pop\n        /* \"#utility.yul\":32910:33030   */\n      jump(tag_892)\n    tag_894:\n        /* \"#utility.yul\":32850:33036   */\n      pop\n      pop\n      jump\t// out\n        /* \"#utility.yul\":33042:33585   */\n    tag_538:\n        /* \"#utility.yul\":33143:33145   */\n      0x1f\n        /* \"#utility.yul\":33138:33141   */\n      dup3\n        /* \"#utility.yul\":33135:33146   */\n      gt\n        /* \"#utility.yul\":33132:33578   */\n      iszero\n      tag_897\n      jumpi\n        /* \"#utility.yul\":33177:33215   */\n      tag_898\n        /* \"#utility.yul\":33209:33214   */\n      dup2\n        /* \"#utility.yul\":33177:33215   */\n      tag_527\n      jump\t// in\n    tag_898:\n        /* \"#utility.yul\":33261:33290   */\n      tag_899\n        /* \"#utility.yul\":33279:33289   */\n      dup5\n        /* \"#utility.yul\":33261:33290   */\n      tag_528\n      jump\t// in\n    tag_899:\n        /* \"#utility.yul\":33251:33259   */\n      dup2\n        /* \"#utility.yul\":33247:33291   */\n      add\n        /* \"#utility.yul\":33444:33446   */\n      0x20\n        /* \"#utility.yul\":33432:33442   */\n      dup6\n        /* \"#utility.yul\":33429:33447   */\n      lt\n        /* \"#utility.yul\":33426:33475   */\n      iszero\n      tag_900\n      jumpi\n        /* \"#utility.yul\":33465:33473   */\n      dup2\n        /* \"#utility.yul\":33450:33473   */\n      swap1\n      pop\n        /* \"#utility.yul\":33426:33475   */\n    tag_900:\n        /* \"#utility.yul\":33488:33568   */\n      tag_901\n        /* \"#utility.yul\":33544:33566   */\n      tag_902\n        /* \"#utility.yul\":33562:33565   */\n      dup6\n        /* \"#utility.yul\":33544:33566   */\n      tag_528\n      jump\t// in\n    tag_902:\n        /* \"#utility.yul\":33534:33542   */\n      dup4\n        /* \"#utility.yul\":33530:33567   */\n      add\n        /* \"#utility.yul\":33517:33528   */\n      dup3\n        /* \"#utility.yul\":33488:33568   */\n      tag_537\n      jump\t// in\n    tag_901:\n        /* \"#utility.yul\":33147:33578   */\n      pop\n      pop\n        /* \"#utility.yul\":33132:33578   */\n    tag_897:\n        /* \"#utility.yul\":33042:33585   */\n      pop\n      pop\n      pop\n      jump\t// out\n        /* \"#utility.yul\":33591:33708   */\n    tag_539:\n        /* \"#utility.yul\":33645:33653   */\n      0x00\n        /* \"#utility.yul\":33695:33700   */\n      dup3\n        /* \"#utility.yul\":33689:33693   */\n      dup3\n        /* \"#utility.yul\":33685:33701   */\n      shr\n        /* \"#utility.yul\":33664:33701   */\n      swap1\n      pop\n        /* \"#utility.yul\":33591:33708   */\n      swap3\n      swap2\n      pop\n      pop\n      jump\t// out\n        /* \"#utility.yul\":33714:33883   */\n    tag_540:\n        /* \"#utility.yul\":33758:33764   */\n      0x00\n        /* \"#utility.yul\":33791:33842   */\n      tag_905\n        /* \"#utility.yul\":33839:33840   */\n      0x00\n        /* \"#utility.yul\":33835:33841   */\n      not\n        /* \"#utility.yul\":33827:33832   */\n      dup5\n        /* \"#utility.yul\":33824:33825   */\n      0x08\n        /* \"#utility.yul\":33820:33833   */\n      mul\n        /* \"#utility.yul\":33791:33842   */\n      tag_539\n      jump\t// in\n    tag_905:\n        /* \"#utility.yul\":33787:33843   */\n      not\n        /* \"#utility.yul\":33872:33876   */\n      dup1\n        /* \"#utility.yul\":33866:33870   */\n      dup4\n        /* \"#utility.yul\":33862:33877   */\n      and\n        /* \"#utility.yul\":33852:33877   */\n      swap2\n      pop\n        /* \"#utility.yul\":33765:33883   */\n      pop\n        /* \"#utility.yul\":33714:33883   */\n      swap3\n      swap2\n      pop\n      pop\n      jump\t// out\n        /* \"#utility.yul\":33888:34183   */\n    tag_541:\n        /* \"#utility.yul\":33964:33968   */\n      0x00\n        /* \"#utility.yul\":34110:34139   */\n      tag_907\n        /* \"#utility.yul\":34135:34138   */\n      dup4\n        /* \"#utility.yul\":34129:34133   */\n      dup4\n        /* \"#utility.yul\":34110:34139   */\n      tag_540\n      jump\t// in\n    tag_907:\n        /* \"#utility.yul\":34102:34139   */\n      swap2\n      pop\n        /* \"#utility.yul\":34172:34175   */\n      dup3\n        /* \"#utility.yul\":34169:34170   */\n      0x02\n        /* \"#utility.yul\":34165:34176   */\n      mul\n        /* \"#utility.yul\":34159:34163   */\n      dup3\n        /* \"#utility.yul\":34156:34177   */\n      or\n        /* \"#utility.yul\":34148:34177   */\n      swap1\n      pop\n        /* \"#utility.yul\":33888:34183   */\n      swap3\n      swap2\n      pop\n      pop\n      jump\t// out\n        /* \"#utility.yul\":34188:35591   */\n    tag_275:\n        /* \"#utility.yul\":34312:34356   */\n      tag_909\n        /* \"#utility.yul\":34352:34355   */\n      dup4\n        /* \"#utility.yul\":34347:34350   */\n      dup4\n        /* \"#utility.yul\":34312:34356   */\n      tag_526\n      jump\t// in\n    tag_909:\n        /* \"#utility.yul\":34421:34439   */\n      0xffffffffffffffff\n        /* \"#utility.yul\":34413:34419   */\n      dup2\n        /* \"#utility.yul\":34410:34440   */\n      gt\n        /* \"#utility.yul\":34407:34463   */\n      iszero\n      tag_910\n      jumpi\n        /* \"#utility.yul\":34443:34461   */\n      tag_911\n      tag_350\n      jump\t// in\n    tag_911:\n        /* \"#utility.yul\":34407:34463   */\n    tag_910:\n        /* \"#utility.yul\":34487:34525   */\n      tag_912\n        /* \"#utility.yul\":34519:34523   */\n      dup3\n        /* \"#utility.yul\":34513:34524   */\n      sload\n        /* \"#utility.yul\":34487:34525   */\n      tag_157\n      jump\t// in\n    tag_912:\n        /* \"#utility.yul\":34572:34639   */\n      tag_913\n        /* \"#utility.yul\":34632:34638   */\n      dup3\n        /* \"#utility.yul\":34624:34630   */\n      dup3\n        /* \"#utility.yul\":34618:34622   */\n      dup6\n        /* \"#utility.yul\":34572:34639   */\n      tag_538\n      jump\t// in\n    tag_913:\n        /* \"#utility.yul\":34666:34667   */\n      0x00\n        /* \"#utility.yul\":34695:34697   */\n      0x1f\n        /* \"#utility.yul\":34687:34693   */\n      dup4\n        /* \"#utility.yul\":34684:34698   */\n      gt\n        /* \"#utility.yul\":34712:34713   */\n      0x01\n        /* \"#utility.yul\":34707:35339   */\n      dup2\n      eq\n      tag_915\n      jumpi\n        /* \"#utility.yul\":35383:35384   */\n      0x00\n        /* \"#utility.yul\":35400:35406   */\n      dup5\n        /* \"#utility.yul\":35397:35481   */\n      iszero\n      tag_916\n      jumpi\n        /* \"#utility.yul\":35456:35465   */\n      dup3\n        /* \"#utility.yul\":35451:35454   */\n      dup8\n        /* \"#utility.yul\":35447:35466   */\n      add\n        /* \"#utility.yul\":35434:35467   */\n      calldataload\n        /* \"#utility.yul\":35425:35467   */\n      swap1\n      pop\n        /* \"#utility.yul\":35397:35481   */\n    tag_916:\n        /* \"#utility.yul\":35507:35574   */\n      tag_917\n        /* \"#utility.yul\":35567:35573   */\n      dup6\n        /* \"#utility.yul\":35560:35565   */\n      dup3\n        /* \"#utility.yul\":35507:35574   */\n      tag_541\n      jump\t// in\n    tag_917:\n        /* \"#utility.yul\":35501:35505   */\n      dup7\n        /* \"#utility.yul\":35494:35575   */\n      sstore\n        /* \"#utility.yul\":35356:35585   */\n      pop\n        /* \"#utility.yul\":34677:35585   */\n      jump(tag_914)\n        /* \"#utility.yul\":34707:35339   */\n    tag_915:\n        /* \"#utility.yul\":34759:34763   */\n      0x1f\n        /* \"#utility.yul\":34755:34764   */\n      not\n        /* \"#utility.yul\":34747:34753   */\n      dup5\n        /* \"#utility.yul\":34743:34765   */\n      and\n        /* \"#utility.yul\":34793:34830   */\n      tag_918\n        /* \"#utility.yul\":34825:34829   */\n      dup7\n        /* \"#utility.yul\":34793:34830   */\n      tag_527\n      jump\t// in\n    tag_918:\n        /* \"#utility.yul\":34852:34853   */\n      0x00\n        /* \"#utility.yul\":34866:35081   */\n    tag_919:\n        /* \"#utility.yul\":34880:34887   */\n      dup3\n        /* \"#utility.yul\":34877:34878   */\n      dup2\n        /* \"#utility.yul\":34874:34888   */\n      lt\n        /* \"#utility.yul\":34866:35081   */\n      iszero\n      tag_921\n      jumpi\n        /* \"#utility.yul\":34966:34975   */\n      dup5\n        /* \"#utility.yul\":34961:34964   */\n      dup10\n        /* \"#utility.yul\":34957:34976   */\n      add\n        /* \"#utility.yul\":34944:34977   */\n      calldataload\n        /* \"#utility.yul\":34936:34942   */\n      dup3\n        /* \"#utility.yul\":34929:34978   */\n      sstore\n        /* \"#utility.yul\":35017:35018   */\n      0x01\n        /* \"#utility.yul\":35009:35015   */\n      dup3\n        /* \"#utility.yul\":35005:35019   */\n      add\n        /* \"#utility.yul\":34995:35019   */\n      swap2\n      pop\n        /* \"#utility.yul\":35064:35066   */\n      0x20\n        /* \"#utility.yul\":35053:35062   */\n      dup6\n        /* \"#utility.yul\":35049:35067   */\n      add\n        /* \"#utility.yul\":35036:35067   */\n      swap5\n      pop\n        /* \"#utility.yul\":34903:34907   */\n      0x20\n        /* \"#utility.yul\":34900:34901   */\n      dup2\n        /* \"#utility.yul\":34896:34908   */\n      add\n        /* \"#utility.yul\":34891:34908   */\n      swap1\n      pop\n        /* \"#utility.yul\":34866:35081   */\n      jump(tag_919)\n    tag_921:\n        /* \"#utility.yul\":35109:35115   */\n      dup7\n        /* \"#utility.yul\":35100:35107   */\n      dup4\n        /* \"#utility.yul\":35097:35116   */\n      lt\n        /* \"#utility.yul\":35094:35280   */\n      iszero\n      tag_922\n      jumpi\n        /* \"#utility.yul\":35174:35183   */\n      dup5\n        /* \"#utility.yul\":35169:35172   */\n      dup10\n        /* \"#utility.yul\":35165:35184   */\n      add\n        /* \"#utility.yul\":35152:35185   */\n      calldataload\n        /* \"#utility.yul\":35217:35265   */\n      tag_923\n        /* \"#utility.yul\":35259:35263   */\n      0x1f\n        /* \"#utility.yul\":35251:35257   */\n      dup10\n        /* \"#utility.yul\":35247:35264   */\n      and\n        /* \"#utility.yul\":35236:35245   */\n      dup3\n        /* \"#utility.yul\":35217:35265   */\n      tag_540\n      jump\t// in\n    tag_923:\n        /* \"#utility.yul\":35209:35215   */\n      dup4\n        /* \"#utility.yul\":35202:35266   */\n      sstore\n        /* \"#utility.yul\":35117:35280   */\n      pop\n        /* \"#utility.yul\":35094:35280   */\n    tag_922:\n        /* \"#utility.yul\":35326:35327   */\n      0x01\n        /* \"#utility.yul\":35322:35323   */\n      0x02\n        /* \"#utility.yul\":35314:35320   */\n      dup9\n        /* \"#utility.yul\":35310:35324   */\n      mul\n        /* \"#utility.yul\":35306:35328   */\n      add\n        /* \"#utility.yul\":35300:35304   */\n      dup9\n        /* \"#utility.yul\":35293:35329   */\n      sstore\n        /* \"#utility.yul\":34714:35339   */\n      pop\n      pop\n      pop\n        /* \"#utility.yul\":34677:35585   */\n    tag_914:\n      pop\n        /* \"#utility.yul\":34287:35591   */\n      pop\n      pop\n      pop\n        /* \"#utility.yul\":34188:35591   */\n      pop\n      pop\n      pop\n      jump\t// out\n        /* \"#utility.yul\":35597:35714   */\n    tag_542:\n        /* \"#utility.yul\":35706:35707   */\n      0x00\n        /* \"#utility.yul\":35703:35704   */\n      dup1\n        /* \"#utility.yul\":35696:35708   */\n      revert\n        /* \"#utility.yul\":35720:35837   */\n    tag_543:\n        /* \"#utility.yul\":35829:35830   */\n      0x00\n        /* \"#utility.yul\":35826:35827   */\n      dup1\n        /* \"#utility.yul\":35819:35831   */\n      revert\n        /* \"#utility.yul\":35843:35960   */\n    tag_544:\n        /* \"#utility.yul\":35952:35953   */\n      0x00\n        /* \"#utility.yul\":35949:35950   */\n      dup1\n        /* \"#utility.yul\":35942:35954   */\n      revert\n        /* \"#utility.yul\":35966:36691   */\n    tag_282:\n        /* \"#utility.yul\":36044:36048   */\n      0x00\n        /* \"#utility.yul\":36050:36056   */\n      dup1\n        /* \"#utility.yul\":36106:36117   */\n      dup4\n        /* \"#utility.yul\":36093:36118   */\n      calldataload\n        /* \"#utility.yul\":36206:36207   */\n      0x01\n        /* \"#utility.yul\":36200:36204   */\n      0x20\n        /* \"#utility.yul\":36196:36208   */\n      sub\n        /* \"#utility.yul\":36185:36193   */\n      dup5\n        /* \"#utility.yul\":36169:36183   */\n      calldatasize\n        /* \"#utility.yul\":36165:36194   */\n      sub\n        /* \"#utility.yul\":36161:36209   */\n      sub\n        /* \"#utility.yul\":36141:36159   */\n      dup2\n        /* \"#utility.yul\":36137:36210   */\n      slt\n        /* \"#utility.yul\":36127:36295   */\n      tag_928\n      jumpi\n        /* \"#utility.yul\":36214:36293   */\n      tag_929\n      tag_542\n      jump\t// in\n    tag_929:\n        /* \"#utility.yul\":36127:36295   */\n    tag_928:\n        /* \"#utility.yul\":36326:36344   */\n      dup1\n        /* \"#utility.yul\":36316:36324   */\n      dup5\n        /* \"#utility.yul\":36312:36345   */\n      add\n        /* \"#utility.yul\":36304:36345   */\n      swap3\n      pop\n        /* \"#utility.yul\":36378:36382   */\n      dup3\n        /* \"#utility.yul\":36365:36383   */\n      calldataload\n        /* \"#utility.yul\":36355:36383   */\n      swap2\n      pop\n        /* \"#utility.yul\":36406:36424   */\n      0xffffffffffffffff\n        /* \"#utility.yul\":36398:36404   */\n      dup3\n        /* \"#utility.yul\":36395:36425   */\n      gt\n        /* \"#utility.yul\":36392:36509   */\n      iszero\n      tag_930\n      jumpi\n        /* \"#utility.yul\":36428:36507   */\n      tag_931\n      tag_543\n      jump\t// in\n    tag_931:\n        /* \"#utility.yul\":36392:36509   */\n    tag_930:\n        /* \"#utility.yul\":36536:36538   */\n      0x20\n        /* \"#utility.yul\":36530:36534   */\n      dup4\n        /* \"#utility.yul\":36526:36539   */\n      add\n        /* \"#utility.yul\":36518:36539   */\n      swap3\n      pop\n        /* \"#utility.yul\":36593:36597   */\n      0x01\n        /* \"#utility.yul\":36585:36591   */\n      dup3\n        /* \"#utility.yul\":36581:36598   */\n      mul\n        /* \"#utility.yul\":36565:36579   */\n      calldatasize\n        /* \"#utility.yul\":36561:36599   */\n      sub\n        /* \"#utility.yul\":36555:36559   */\n      dup4\n        /* \"#utility.yul\":36551:36600   */\n      sgt\n        /* \"#utility.yul\":36548:36684   */\n      iszero\n      tag_932\n      jumpi\n        /* \"#utility.yul\":36603:36682   */\n      tag_933\n      tag_544\n      jump\t// in\n    tag_933:\n        /* \"#utility.yul\":36548:36684   */\n    tag_932:\n        /* \"#utility.yul\":36057:36691   */\n      pop\n        /* \"#utility.yul\":35966:36691   */\n      swap3\n      pop\n      swap3\n      swap1\n      pop\n      jump\t// out\n        /* \"#utility.yul\":36697:38092   */\n    tag_285:\n        /* \"#utility.yul\":36814:36851   */\n      tag_935\n        /* \"#utility.yul\":36847:36850   */\n      dup3\n        /* \"#utility.yul\":36814:36851   */\n      tag_461\n      jump\t// in\n    tag_935:\n        /* \"#utility.yul\":36916:36934   */\n      0xffffffffffffffff\n        /* \"#utility.yul\":36908:36914   */\n      dup2\n        /* \"#utility.yul\":36905:36935   */\n      gt\n        /* \"#utility.yul\":36902:36958   */\n      iszero\n      tag_936\n      jumpi\n        /* \"#utility.yul\":36938:36956   */\n      tag_937\n      tag_350\n      jump\t// in\n    tag_937:\n        /* \"#utility.yul\":36902:36958   */\n    tag_936:\n        /* \"#utility.yul\":36982:37020   */\n      tag_938\n        /* \"#utility.yul\":37014:37018   */\n      dup3\n        /* \"#utility.yul\":37008:37019   */\n      sload\n        /* \"#utility.yul\":36982:37020   */\n      tag_157\n      jump\t// in\n    tag_938:\n        /* \"#utility.yul\":37067:37134   */\n      tag_939\n        /* \"#utility.yul\":37127:37133   */\n      dup3\n        /* \"#utility.yul\":37119:37125   */\n      dup3\n        /* \"#utility.yul\":37113:37117   */\n      dup6\n        /* \"#utility.yul\":37067:37134   */\n      tag_538\n      jump\t// in\n    tag_939:\n        /* \"#utility.yul\":37161:37162   */\n      0x00\n        /* \"#utility.yul\":37185:37189   */\n      0x20\n        /* \"#utility.yul\":37172:37189   */\n      swap1\n      pop\n        /* \"#utility.yul\":37217:37219   */\n      0x1f\n        /* \"#utility.yul\":37209:37215   */\n      dup4\n        /* \"#utility.yul\":37206:37220   */\n      gt\n        /* \"#utility.yul\":37234:37235   */\n      0x01\n        /* \"#utility.yul\":37229:37847   */\n      dup2\n      eq\n      tag_941\n      jumpi\n        /* \"#utility.yul\":37891:37892   */\n      0x00\n        /* \"#utility.yul\":37908:37914   */\n      dup5\n        /* \"#utility.yul\":37905:37982   */\n      iszero\n      tag_942\n      jumpi\n        /* \"#utility.yul\":37957:37966   */\n      dup3\n        /* \"#utility.yul\":37952:37955   */\n      dup8\n        /* \"#utility.yul\":37948:37967   */\n      add\n        /* \"#utility.yul\":37942:37968   */\n      mload\n        /* \"#utility.yul\":37933:37968   */\n      swap1\n      pop\n        /* \"#utility.yul\":37905:37982   */\n    tag_942:\n        /* \"#utility.yul\":38008:38075   */\n      tag_943\n        /* \"#utility.yul\":38068:38074   */\n      dup6\n        /* \"#utility.yul\":38061:38066   */\n      dup3\n        /* \"#utility.yul\":38008:38075   */\n      tag_541\n      jump\t// in\n    tag_943:\n        /* \"#utility.yul\":38002:38006   */\n      dup7\n        /* \"#utility.yul\":37995:38076   */\n      sstore\n        /* \"#utility.yul\":37864:38086   */\n      pop\n        /* \"#utility.yul\":37199:38086   */\n      jump(tag_940)\n        /* \"#utility.yul\":37229:37847   */\n    tag_941:\n        /* \"#utility.yul\":37281:37285   */\n      0x1f\n        /* \"#utility.yul\":37277:37286   */\n      not\n        /* \"#utility.yul\":37269:37275   */\n      dup5\n        /* \"#utility.yul\":37265:37287   */\n      and\n        /* \"#utility.yul\":37315:37352   */\n      tag_944\n        /* \"#utility.yul\":37347:37351   */\n      dup7\n        /* \"#utility.yul\":37315:37352   */\n      tag_527\n      jump\t// in\n    tag_944:\n        /* \"#utility.yul\":37374:37375   */\n      0x00\n        /* \"#utility.yul\":37388:37596   */\n    tag_945:\n        /* \"#utility.yul\":37402:37409   */\n      dup3\n        /* \"#utility.yul\":37399:37400   */\n      dup2\n        /* \"#utility.yul\":37396:37410   */\n      lt\n        /* \"#utility.yul\":37388:37596   */\n      iszero\n      tag_947\n      jumpi\n        /* \"#utility.yul\":37481:37490   */\n      dup5\n        /* \"#utility.yul\":37476:37479   */\n      dup10\n        /* \"#utility.yul\":37472:37491   */\n      add\n        /* \"#utility.yul\":37466:37492   */\n      mload\n        /* \"#utility.yul\":37458:37464   */\n      dup3\n        /* \"#utility.yul\":37451:37493   */\n      sstore\n        /* \"#utility.yul\":37532:37533   */\n      0x01\n        /* \"#utility.yul\":37524:37530   */\n      dup3\n        /* \"#utility.yul\":37520:37534   */\n      add\n        /* \"#utility.yul\":37510:37534   */\n      swap2\n      pop\n        /* \"#utility.yul\":37579:37581   */\n      0x20\n        /* \"#utility.yul\":37568:37577   */\n      dup6\n        /* \"#utility.yul\":37564:37582   */\n      add\n        /* \"#utility.yul\":37551:37582   */\n      swap5\n      pop\n        /* \"#utility.yul\":37425:37429   */\n      0x20\n        /* \"#utility.yul\":37422:37423   */\n      dup2\n        /* \"#utility.yul\":37418:37430   */\n      add\n        /* \"#utility.yul\":37413:37430   */\n      swap1\n      pop\n        /* \"#utility.yul\":37388:37596   */\n      jump(tag_945)\n    tag_947:\n        /* \"#utility.yul\":37624:37630   */\n      dup7\n        /* \"#utility.yul\":37615:37622   */\n      dup4\n        /* \"#utility.yul\":37612:37631   */\n      lt\n        /* \"#utility.yul\":37609:37788   */\n      iszero\n      tag_948\n      jumpi\n        /* \"#utility.yul\":37682:37691   */\n      dup5\n        /* \"#utility.yul\":37677:37680   */\n      dup10\n        /* \"#utility.yul\":37673:37692   */\n      add\n        /* \"#utility.yul\":37667:37693   */\n      mload\n        /* \"#utility.yul\":37725:37773   */\n      tag_949\n        /* \"#utility.yul\":37767:37771   */\n      0x1f\n        /* \"#utility.yul\":37759:37765   */\n      dup10\n        /* \"#utility.yul\":37755:37772   */\n      and\n        /* \"#utility.yul\":37744:37753   */\n      dup3\n        /* \"#utility.yul\":37725:37773   */\n      tag_540\n      jump\t// in\n    tag_949:\n        /* \"#utility.yul\":37717:37723   */\n      dup4\n        /* \"#utility.yul\":37710:37774   */\n      sstore\n        /* \"#utility.yul\":37632:37788   */\n      pop\n        /* \"#utility.yul\":37609:37788   */\n    tag_948:\n        /* \"#utility.yul\":37834:37835   */\n      0x01\n        /* \"#utility.yul\":37830:37831   */\n      0x02\n        /* \"#utility.yul\":37822:37828   */\n      dup9\n        /* \"#utility.yul\":37818:37832   */\n      mul\n        /* \"#utility.yul\":37814:37836   */\n      add\n        /* \"#utility.yul\":37808:37812   */\n      dup9\n        /* \"#utility.yul\":37801:37837   */\n      sstore\n        /* \"#utility.yul\":37236:37847   */\n      pop\n      pop\n      pop\n        /* \"#utility.yul\":37199:38086   */\n    tag_940:\n      pop\n        /* \"#utility.yul\":36789:38092   */\n      pop\n      pop\n      pop\n        /* \"#utility.yul\":36697:38092   */\n      pop\n      pop\n      jump\t// out\n        /* \"#utility.yul\":38098:38244   */\n    tag_545:\n        /* \"#utility.yul\":38195:38201   */\n      dup3\n        /* \"#utility.yul\":38190:38193   */\n      dup2\n        /* \"#utility.yul\":38185:38188   */\n      dup4\n        /* \"#utility.yul\":38172:38202   */\n      calldatacopy\n        /* \"#utility.yul\":38236:38237   */\n      0x00\n        /* \"#utility.yul\":38227:38233   */\n      dup4\n        /* \"#utility.yul\":38222:38225   */\n      dup4\n        /* \"#utility.yul\":38218:38234   */\n      add\n        /* \"#utility.yul\":38211:38238   */\n      mstore\n        /* \"#utility.yul\":38098:38244   */\n      pop\n      pop\n      pop\n      jump\t// out\n        /* \"#utility.yul\":38274:38591   */\n    tag_546:\n        /* \"#utility.yul\":38372:38375   */\n      0x00\n        /* \"#utility.yul\":38393:38464   */\n      tag_952\n        /* \"#utility.yul\":38457:38463   */\n      dup4\n        /* \"#utility.yul\":38452:38455   */\n      dup6\n        /* \"#utility.yul\":38393:38464   */\n      tag_462\n      jump\t// in\n    tag_952:\n        /* \"#utility.yul\":38386:38464   */\n      swap4\n      pop\n        /* \"#utility.yul\":38474:38530   */\n      tag_953\n        /* \"#utility.yul\":38523:38529   */\n      dup4\n        /* \"#utility.yul\":38518:38521   */\n      dup6\n        /* \"#utility.yul\":38511:38516   */\n      dup5\n        /* \"#utility.yul\":38474:38530   */\n      tag_545\n      jump\t// in\n    tag_953:\n        /* \"#utility.yul\":38555:38584   */\n      tag_954\n        /* \"#utility.yul\":38577:38583   */\n      dup4\n        /* \"#utility.yul\":38555:38584   */\n      tag_464\n      jump\t// in\n    tag_954:\n        /* \"#utility.yul\":38550:38553   */\n      dup5\n        /* \"#utility.yul\":38546:38585   */\n      add\n        /* \"#utility.yul\":38539:38585   */\n      swap1\n      pop\n        /* \"#utility.yul\":38274:38591   */\n      swap4\n      swap3\n      pop\n      pop\n      pop\n      jump\t// out\n        /* \"#utility.yul\":38597:38711   */\n    tag_547:\n        /* \"#utility.yul\":38678:38682   */\n      0x00\n        /* \"#utility.yul\":38701:38704   */\n      dup2\n        /* \"#utility.yul\":38693:38704   */\n      swap1\n      pop\n        /* \"#utility.yul\":38597:38711   */\n      swap2\n      swap1\n      pop\n      jump\t// out\n        /* \"#utility.yul\":38741:39038   */\n    tag_548:\n        /* \"#utility.yul\":38829:38832   */\n      0x00\n        /* \"#utility.yul\":38850:38911   */\n      tag_957\n        /* \"#utility.yul\":38904:38910   */\n      dup4\n        /* \"#utility.yul\":38899:38902   */\n      dup6\n        /* \"#utility.yul\":38850:38911   */\n      tag_496\n      jump\t// in\n    tag_957:\n        /* \"#utility.yul\":38843:38911   */\n      swap4\n      pop\n        /* \"#utility.yul\":38921:38977   */\n      tag_958\n        /* \"#utility.yul\":38970:38976   */\n      dup4\n        /* \"#utility.yul\":38965:38968   */\n      dup6\n        /* \"#utility.yul\":38958:38963   */\n      dup5\n        /* \"#utility.yul\":38921:38977   */\n      tag_545\n      jump\t// in\n    tag_958:\n        /* \"#utility.yul\":39002:39031   */\n      tag_959\n        /* \"#utility.yul\":39024:39030   */\n      dup4\n        /* \"#utility.yul\":39002:39031   */\n      tag_464\n      jump\t// in\n    tag_959:\n        /* \"#utility.yul\":38997:39000   */\n      dup5\n        /* \"#utility.yul\":38993:39032   */\n      add\n        /* \"#utility.yul\":38986:39032   */\n      swap1\n      pop\n        /* \"#utility.yul\":38741:39038   */\n      swap4\n      swap3\n      pop\n      pop\n      pop\n      jump\t// out\n        /* \"#utility.yul\":39044:39260   */\n    tag_549:\n        /* \"#utility.yul\":39143:39153   */\n      0x00\n        /* \"#utility.yul\":39178:39254   */\n      tag_961\n        /* \"#utility.yul\":39250:39253   */\n      dup5\n        /* \"#utility.yul\":39242:39248   */\n      dup5\n        /* \"#utility.yul\":39234:39240   */\n      dup5\n        /* \"#utility.yul\":39178:39254   */\n      tag_548\n      jump\t// in\n    tag_961:\n        /* \"#utility.yul\":39164:39254   */\n      swap1\n      pop\n        /* \"#utility.yul\":39044:39260   */\n      swap4\n      swap3\n      pop\n      pop\n      pop\n      jump\t// out\n        /* \"#utility.yul\":39266:39383   */\n    tag_550:\n        /* \"#utility.yul\":39375:39376   */\n      0x00\n        /* \"#utility.yul\":39372:39373   */\n      dup1\n        /* \"#utility.yul\":39365:39377   */\n      revert\n        /* \"#utility.yul\":39389:39506   */\n    tag_551:\n        /* \"#utility.yul\":39498:39499   */\n      0x00\n        /* \"#utility.yul\":39495:39496   */\n      dup1\n        /* \"#utility.yul\":39488:39500   */\n      revert\n        /* \"#utility.yul\":39512:39629   */\n    tag_552:\n        /* \"#utility.yul\":39621:39622   */\n      0x00\n        /* \"#utility.yul\":39618:39619   */\n      dup1\n        /* \"#utility.yul\":39611:39623   */\n      revert\n        /* \"#utility.yul\":39635:40347   */\n    tag_553:\n        /* \"#utility.yul\":39700:39705   */\n      0x00\n        /* \"#utility.yul\":39707:39713   */\n      dup1\n        /* \"#utility.yul\":39763:39766   */\n      dup4\n        /* \"#utility.yul\":39750:39767   */\n      calldataload\n        /* \"#utility.yul\":39855:39856   */\n      0x01\n        /* \"#utility.yul\":39849:39853   */\n      0x20\n        /* \"#utility.yul\":39845:39857   */\n      sub\n        /* \"#utility.yul\":39834:39842   */\n      dup5\n        /* \"#utility.yul\":39818:39832   */\n      calldatasize\n        /* \"#utility.yul\":39814:39843   */\n      sub\n        /* \"#utility.yul\":39810:39858   */\n      sub\n        /* \"#utility.yul\":39790:39808   */\n      dup2\n        /* \"#utility.yul\":39786:39859   */\n      slt\n        /* \"#utility.yul\":39776:39944   */\n      tag_966\n      jumpi\n        /* \"#utility.yul\":39863:39942   */\n      tag_967\n      tag_552\n      jump\t// in\n    tag_967:\n        /* \"#utility.yul\":39776:39944   */\n    tag_966:\n        /* \"#utility.yul\":39986:39994   */\n      dup4\n        /* \"#utility.yul\":39966:39984   */\n      dup2\n        /* \"#utility.yul\":39962:39995   */\n      add\n        /* \"#utility.yul\":39953:39995   */\n      swap3\n      pop\n        /* \"#utility.yul\":40028:40033   */\n      dup3\n        /* \"#utility.yul\":40015:40034   */\n      calldataload\n        /* \"#utility.yul\":40005:40034   */\n      swap2\n      pop\n        /* \"#utility.yul\":40063:40067   */\n      0x20\n        /* \"#utility.yul\":40056:40061   */\n      dup4\n        /* \"#utility.yul\":40052:40068   */\n      add\n        /* \"#utility.yul\":40043:40068   */\n      swap3\n      pop\n        /* \"#utility.yul\":40091:40109   */\n      0xffffffffffffffff\n        /* \"#utility.yul\":40083:40089   */\n      dup3\n        /* \"#utility.yul\":40080:40110   */\n      gt\n        /* \"#utility.yul\":40077:40194   */\n      iszero\n      tag_968\n      jumpi\n        /* \"#utility.yul\":40113:40192   */\n      tag_969\n      tag_550\n      jump\t// in\n    tag_969:\n        /* \"#utility.yul\":40077:40194   */\n    tag_968:\n        /* \"#utility.yul\":40249:40253   */\n      0x01\n        /* \"#utility.yul\":40241:40247   */\n      dup3\n        /* \"#utility.yul\":40237:40254   */\n      mul\n        /* \"#utility.yul\":40221:40235   */\n      calldatasize\n        /* \"#utility.yul\":40217:40255   */\n      sub\n        /* \"#utility.yul\":40210:40215   */\n      dup4\n        /* \"#utility.yul\":40206:40256   */\n      sgt\n        /* \"#utility.yul\":40203:40340   */\n      iszero\n      tag_970\n      jumpi\n        /* \"#utility.yul\":40259:40338   */\n      tag_971\n      tag_551\n      jump\t// in\n    tag_971:\n        /* \"#utility.yul\":40203:40340   */\n    tag_970:\n        /* \"#utility.yul\":39714:40347   */\n      pop\n        /* \"#utility.yul\":39635:40347   */\n      swap3\n      pop\n      swap3\n      swap1\n      pop\n      jump\t// out\n        /* \"#utility.yul\":40353:40480   */\n    tag_554:\n        /* \"#utility.yul\":40437:40441   */\n      0x00\n        /* \"#utility.yul\":40469:40473   */\n      0x20\n        /* \"#utility.yul\":40464:40467   */\n      dup3\n        /* \"#utility.yul\":40460:40474   */\n      add\n        /* \"#utility.yul\":40452:40474   */\n      swap1\n      pop\n        /* \"#utility.yul\":40353:40480   */\n      swap2\n      swap1\n      pop\n      jump\t// out\n        /* \"#utility.yul\":40514:41512   */\n    tag_555:\n        /* \"#utility.yul\":40665:40668   */\n      0x00\n        /* \"#utility.yul\":40688:40784   */\n      tag_974\n        /* \"#utility.yul\":40777:40783   */\n      dup4\n        /* \"#utility.yul\":40772:40775   */\n      dup6\n        /* \"#utility.yul\":40688:40784   */\n      tag_494\n      jump\t// in\n    tag_974:\n        /* \"#utility.yul\":40681:40784   */\n      swap4\n      pop\n        /* \"#utility.yul\":40810:40813   */\n      dup4\n        /* \"#utility.yul\":40855:40859   */\n      0x20\n        /* \"#utility.yul\":40847:40853   */\n      dup5\n        /* \"#utility.yul\":40843:40860   */\n      mul\n        /* \"#utility.yul\":40838:40841   */\n      dup6\n        /* \"#utility.yul\":40834:40861   */\n      add\n        /* \"#utility.yul\":40885:40955   */\n      tag_975\n        /* \"#utility.yul\":40949:40954   */\n      dup5\n        /* \"#utility.yul\":40885:40955   */\n      tag_547\n      jump\t// in\n    tag_975:\n        /* \"#utility.yul\":40978:40985   */\n      dup1\n        /* \"#utility.yul\":41009:41010   */\n      0x00\n        /* \"#utility.yul\":40994:41467   */\n    tag_976:\n        /* \"#utility.yul\":41019:41025   */\n      dup8\n        /* \"#utility.yul\":41016:41017   */\n      dup2\n        /* \"#utility.yul\":41013:41026   */\n      lt\n        /* \"#utility.yul\":40994:41467   */\n      iszero\n      tag_978\n      jumpi\n        /* \"#utility.yul\":41090:41099   */\n      dup5\n        /* \"#utility.yul\":41084:41088   */\n      dup5\n        /* \"#utility.yul\":41080:41100   */\n      sub\n        /* \"#utility.yul\":41075:41078   */\n      dup10\n        /* \"#utility.yul\":41068:41101   */\n      mstore\n        /* \"#utility.yul\":41150:41204   */\n      tag_979\n        /* \"#utility.yul\":41197:41203   */\n      dup3\n        /* \"#utility.yul\":41188:41195   */\n      dup5\n        /* \"#utility.yul\":41150:41204   */\n      tag_553\n      jump\t// in\n    tag_979:\n        /* \"#utility.yul\":41225:41326   */\n      tag_980\n        /* \"#utility.yul\":41321:41325   */\n      dup7\n        /* \"#utility.yul\":41306:41319   */\n      dup3\n        /* \"#utility.yul\":41291:41304   */\n      dup5\n        /* \"#utility.yul\":41225:41326   */\n      tag_549\n      jump\t// in\n    tag_980:\n        /* \"#utility.yul\":41217:41326   */\n      swap6\n      pop\n        /* \"#utility.yul\":41349:41423   */\n      tag_981\n        /* \"#utility.yul\":41416:41422   */\n      dup5\n        /* \"#utility.yul\":41349:41423   */\n      tag_554\n      jump\t// in\n    tag_981:\n        /* \"#utility.yul\":41339:41423   */\n      swap4\n      pop\n        /* \"#utility.yul\":41452:41456   */\n      0x20\n        /* \"#utility.yul\":41447:41450   */\n      dup12\n        /* \"#utility.yul\":41443:41457   */\n      add\n        /* \"#utility.yul\":41436:41457   */\n      swap11\n      pop\n        /* \"#utility.yul\":41054:41467   */\n      pop\n      pop\n        /* \"#utility.yul\":41041:41042   */\n      0x01\n        /* \"#utility.yul\":41038:41039   */\n      dup2\n        /* \"#utility.yul\":41034:41043   */\n      add\n        /* \"#utility.yul\":41029:41043   */\n      swap1\n      pop\n        /* \"#utility.yul\":40994:41467   */\n      jump(tag_976)\n    tag_978:\n        /* \"#utility.yul\":40998:41012   */\n      pop\n        /* \"#utility.yul\":41483:41487   */\n      dup3\n        /* \"#utility.yul\":41476:41487   */\n      swap8\n      pop\n        /* \"#utility.yul\":41503:41506   */\n      dup8\n        /* \"#utility.yul\":41496:41506   */\n      swap5\n      pop\n        /* \"#utility.yul\":40670:41512   */\n      pop\n      pop\n      pop\n      pop\n        /* \"#utility.yul\":40514:41512   */\n      swap4\n      swap3\n      pop\n      pop\n      pop\n      jump\t// out\n        /* \"#utility.yul\":41518:42397   */\n    tag_288:\n        /* \"#utility.yul\":41807:41811   */\n      0x00\n        /* \"#utility.yul\":41845:41848   */\n      0x80\n        /* \"#utility.yul\":41834:41843   */\n      dup3\n        /* \"#utility.yul\":41830:41849   */\n      add\n        /* \"#utility.yul\":41822:41849   */\n      swap1\n      pop\n        /* \"#utility.yul\":41859:41930   */\n      tag_983\n        /* \"#utility.yul\":41927:41928   */\n      0x00\n        /* \"#utility.yul\":41916:41925   */\n      dup4\n        /* \"#utility.yul\":41912:41929   */\n      add\n        /* \"#utility.yul\":41903:41909   */\n      dup10\n        /* \"#utility.yul\":41859:41930   */\n      tag_492\n      jump\t// in\n    tag_983:\n        /* \"#utility.yul\":41977:41986   */\n      dup2\n        /* \"#utility.yul\":41971:41975   */\n      dup2\n        /* \"#utility.yul\":41967:41987   */\n      sub\n        /* \"#utility.yul\":41962:41964   */\n      0x20\n        /* \"#utility.yul\":41951:41960   */\n      dup4\n        /* \"#utility.yul\":41947:41965   */\n      add\n        /* \"#utility.yul\":41940:41988   */\n      mstore\n        /* \"#utility.yul\":42005:42093   */\n      tag_984\n        /* \"#utility.yul\":42088:42092   */\n      dup2\n        /* \"#utility.yul\":42079:42085   */\n      dup8\n        /* \"#utility.yul\":42071:42077   */\n      dup10\n        /* \"#utility.yul\":42005:42093   */\n      tag_546\n      jump\t// in\n    tag_984:\n        /* \"#utility.yul\":41997:42093   */\n      swap1\n      pop\n        /* \"#utility.yul\":42140:42149   */\n      dup2\n        /* \"#utility.yul\":42134:42138   */\n      dup2\n        /* \"#utility.yul\":42130:42150   */\n      sub\n        /* \"#utility.yul\":42125:42127   */\n      0x40\n        /* \"#utility.yul\":42114:42123   */\n      dup4\n        /* \"#utility.yul\":42110:42128   */\n      add\n        /* \"#utility.yul\":42103:42151   */\n      mstore\n        /* \"#utility.yul\":42168:42308   */\n      tag_985\n        /* \"#utility.yul\":42303:42307   */\n      dup2\n        /* \"#utility.yul\":42294:42300   */\n      dup6\n        /* \"#utility.yul\":42286:42292   */\n      dup8\n        /* \"#utility.yul\":42168:42308   */\n      tag_555\n      jump\t// in\n    tag_985:\n        /* \"#utility.yul\":42160:42308   */\n      swap1\n      pop\n        /* \"#utility.yul\":42318:42390   */\n      tag_986\n        /* \"#utility.yul\":42386:42388   */\n      0x60\n        /* \"#utility.yul\":42375:42384   */\n      dup4\n        /* \"#utility.yul\":42371:42389   */\n      add\n        /* \"#utility.yul\":42362:42368   */\n      dup5\n        /* \"#utility.yul\":42318:42390   */\n      tag_469\n      jump\t// in\n    tag_986:\n        /* \"#utility.yul\":41518:42397   */\n      swap8\n      swap7\n      pop\n      pop\n      pop\n      pop\n      pop\n      pop\n      pop\n      jump\t// out\n        /* \"#utility.yul\":42403:42578   */\n    tag_556:\n        /* \"#utility.yul\":42543:42570   */\n      0x206d696e7420746f20746865207a65726f206164647265737300000000000000\n        /* \"#utility.yul\":42539:42540   */\n      0x00\n        /* \"#utility.yul\":42531:42537   */\n      dup3\n        /* \"#utility.yul\":42527:42541   */\n      add\n        /* \"#utility.yul\":42520:42571   */\n      mstore\n        /* \"#utility.yul\":42403:42578   */\n      pop\n      jump\t// out\n        /* \"#utility.yul\":42584:42950   */\n    tag_557:\n        /* \"#utility.yul\":42726:42729   */\n      0x00\n        /* \"#utility.yul\":42747:42814   */\n      tag_989\n        /* \"#utility.yul\":42811:42813   */\n      0x19\n        /* \"#utility.yul\":42806:42809   */\n      dup4\n        /* \"#utility.yul\":42747:42814   */\n      tag_462\n      jump\t// in\n    tag_989:\n        /* \"#utility.yul\":42740:42814   */\n      swap2\n      pop\n        /* \"#utility.yul\":42823:42916   */\n      tag_990\n        /* \"#utility.yul\":42912:42915   */\n      dup3\n        /* \"#utility.yul\":42823:42916   */\n      tag_556\n      jump\t// in\n    tag_990:\n        /* \"#utility.yul\":42941:42943   */\n      0x20\n        /* \"#utility.yul\":42936:42939   */\n      dup3\n        /* \"#utility.yul\":42932:42944   */\n      add\n        /* \"#utility.yul\":42925:42944   */\n      swap1\n      pop\n        /* \"#utility.yul\":42584:42950   */\n      swap2\n      swap1\n      pop\n      jump\t// out\n        /* \"#utility.yul\":42956:43375   */\n    tag_299:\n        /* \"#utility.yul\":43122:43126   */\n      0x00\n        /* \"#utility.yul\":43160:43162   */\n      0x20\n        /* \"#utility.yul\":43149:43158   */\n      dup3\n        /* \"#utility.yul\":43145:43163   */\n      add\n        /* \"#utility.yul\":43137:43163   */\n      swap1\n      pop\n        /* \"#utility.yul\":43209:43218   */\n      dup2\n        /* \"#utility.yul\":43203:43207   */\n      dup2\n        /* \"#utility.yul\":43199:43219   */\n      sub\n        /* \"#utility.yul\":43195:43196   */\n      0x00\n        /* \"#utility.yul\":43184:43193   */\n      dup4\n        /* \"#utility.yul\":43180:43197   */\n      add\n        /* \"#utility.yul\":43173:43220   */\n      mstore\n        /* \"#utility.yul\":43237:43368   */\n      tag_992\n        /* \"#utility.yul\":43363:43367   */\n      dup2\n        /* \"#utility.yul\":43237:43368   */\n      tag_557\n      jump\t// in\n    tag_992:\n        /* \"#utility.yul\":43229:43368   */\n      swap1\n      pop\n        /* \"#utility.yul\":42956:43375   */\n      swap2\n      swap1\n      pop\n      jump\t// out\n        /* \"#utility.yul\":43381:43558   */\n    tag_558:\n        /* \"#utility.yul\":43521:43550   */\n      0x50726f706f73616c2073686f756c6420626520696e2074616c6c790000000000\n        /* \"#utility.yul\":43517:43518   */\n      0x00\n        /* \"#utility.yul\":43509:43515   */\n      dup3\n        /* \"#utility.yul\":43505:43519   */\n      add\n        /* \"#utility.yul\":43498:43551   */\n      mstore\n        /* \"#utility.yul\":43381:43558   */\n      pop\n      jump\t// out\n        /* \"#utility.yul\":43564:43930   */\n    tag_559:\n        /* \"#utility.yul\":43706:43709   */\n      0x00\n        /* \"#utility.yul\":43727:43794   */\n      tag_995\n        /* \"#utility.yul\":43791:43793   */\n      0x1b\n        /* \"#utility.yul\":43786:43789   */\n      dup4\n        /* \"#utility.yul\":43727:43794   */\n      tag_462\n      jump\t// in\n    tag_995:\n        /* \"#utility.yul\":43720:43794   */\n      swap2\n      pop\n        /* \"#utility.yul\":43803:43896   */\n      tag_996\n        /* \"#utility.yul\":43892:43895   */\n      dup3\n        /* \"#utility.yul\":43803:43896   */\n      tag_558\n      jump\t// in\n    tag_996:\n        /* \"#utility.yul\":43921:43923   */\n      0x20\n        /* \"#utility.yul\":43916:43919   */\n      dup3\n        /* \"#utility.yul\":43912:43924   */\n      add\n        /* \"#utility.yul\":43905:43924   */\n      swap1\n      pop\n        /* \"#utility.yul\":43564:43930   */\n      swap2\n      swap1\n      pop\n      jump\t// out\n        /* \"#utility.yul\":43936:44355   */\n    tag_316:\n        /* \"#utility.yul\":44102:44106   */\n      0x00\n        /* \"#utility.yul\":44140:44142   */\n      0x20\n        /* \"#utility.yul\":44129:44138   */\n      dup3\n        /* \"#utility.yul\":44125:44143   */\n      add\n        /* \"#utility.yul\":44117:44143   */\n      swap1\n      pop\n        /* \"#utility.yul\":44189:44198   */\n      dup2\n        /* \"#utility.yul\":44183:44187   */\n      dup2\n        /* \"#utility.yul\":44179:44199   */\n      sub\n        /* \"#utility.yul\":44175:44176   */\n      0x00\n        /* \"#utility.yul\":44164:44173   */\n      dup4\n        /* \"#utility.yul\":44160:44177   */\n      add\n        /* \"#utility.yul\":44153:44200   */\n      mstore\n        /* \"#utility.yul\":44217:44348   */\n      tag_998\n        /* \"#utility.yul\":44343:44347   */\n      dup2\n        /* \"#utility.yul\":44217:44348   */\n      tag_559\n      jump\t// in\n    tag_998:\n        /* \"#utility.yul\":44209:44348   */\n      swap1\n      pop\n        /* \"#utility.yul\":43936:44355   */\n      swap2\n      swap1\n      pop\n      jump\t// out\n        /* \"#utility.yul\":44361:44586   */\n    tag_560:\n        /* \"#utility.yul\":44501:44535   */\n      0x4f776e61626c653a206e6577206f776e657220697320746865207a65726f2061\n        /* \"#utility.yul\":44497:44498   */\n      0x00\n        /* \"#utility.yul\":44489:44495   */\n      dup3\n        /* \"#utility.yul\":44485:44499   */\n      add\n        /* \"#utility.yul\":44478:44536   */\n      mstore\n        /* \"#utility.yul\":44570:44578   */\n      0x6464726573730000000000000000000000000000000000000000000000000000\n        /* \"#utility.yul\":44565:44567   */\n      0x20\n        /* \"#utility.yul\":44557:44563   */\n      dup3\n        /* \"#utility.yul\":44553:44568   */\n      add\n        /* \"#utility.yul\":44546:44579   */\n      mstore\n        /* \"#utility.yul\":44361:44586   */\n      pop\n      jump\t// out\n        /* \"#utility.yul\":44592:44958   */\n    tag_561:\n        /* \"#utility.yul\":44734:44737   */\n      0x00\n        /* \"#utility.yul\":44755:44822   */\n      tag_1001\n        /* \"#utility.yul\":44819:44821   */\n      0x26\n        /* \"#utility.yul\":44814:44817   */\n      dup4\n        /* \"#utility.yul\":44755:44822   */\n      tag_462\n      jump\t// in\n    tag_1001:\n        /* \"#utility.yul\":44748:44822   */\n      swap2\n      pop\n        /* \"#utility.yul\":44831:44924   */\n      tag_1002\n        /* \"#utility.yul\":44920:44923   */\n      dup3\n        /* \"#utility.yul\":44831:44924   */\n      tag_560\n      jump\t// in\n    tag_1002:\n        /* \"#utility.yul\":44949:44951   */\n      0x40\n        /* \"#utility.yul\":44944:44947   */\n      dup3\n        /* \"#utility.yul\":44940:44952   */\n      add\n        /* \"#utility.yul\":44933:44952   */\n      swap1\n      pop\n        /* \"#utility.yul\":44592:44958   */\n      swap2\n      swap1\n      pop\n      jump\t// out\n        /* \"#utility.yul\":44964:45383   */\n    tag_386:\n        /* \"#utility.yul\":45130:45134   */\n      0x00\n        /* \"#utility.yul\":45168:45170   */\n      0x20\n        /* \"#utility.yul\":45157:45166   */\n      dup3\n        /* \"#utility.yul\":45153:45171   */\n      add\n        /* \"#utility.yul\":45145:45171   */\n      swap1\n      pop\n        /* \"#utility.yul\":45217:45226   */\n      dup2\n        /* \"#utility.yul\":45211:45215   */\n      dup2\n        /* \"#utility.yul\":45207:45227   */\n      sub\n        /* \"#utility.yul\":45203:45204   */\n      0x00\n        /* \"#utility.yul\":45192:45201   */\n      dup4\n        /* \"#utility.yul\":45188:45205   */\n      add\n        /* \"#utility.yul\":45181:45228   */\n      mstore\n        /* \"#utility.yul\":45245:45376   */\n      tag_1004\n        /* \"#utility.yul\":45371:45375   */\n      dup2\n        /* \"#utility.yul\":45245:45376   */\n      tag_561\n      jump\t// in\n    tag_1004:\n        /* \"#utility.yul\":45237:45376   */\n      swap1\n      pop\n        /* \"#utility.yul\":44964:45383   */\n      swap2\n      swap1\n      pop\n      jump\t// out\n        /* \"#utility.yul\":45389:45571   */\n    tag_562:\n        /* \"#utility.yul\":45529:45563   */\n      0x4f776e61626c653a2063616c6c6572206973206e6f7420746865206f776e6572\n        /* \"#utility.yul\":45525:45526   */\n      0x00\n        /* \"#utility.yul\":45517:45523   */\n      dup3\n        /* \"#utility.yul\":45513:45527   */\n      add\n        /* \"#utility.yul\":45506:45564   */\n      mstore\n        /* \"#utility.yul\":45389:45571   */\n      pop\n      jump\t// out\n        /* \"#utility.yul\":45577:45943   */\n    tag_563:\n        /* \"#utility.yul\":45719:45722   */\n      0x00\n        /* \"#utility.yul\":45740:45807   */\n      tag_1007\n        /* \"#utility.yul\":45804:45806   */\n      0x20\n        /* \"#utility.yul\":45799:45802   */\n      dup4\n        /* \"#utility.yul\":45740:45807   */\n      tag_462\n      jump\t// in\n    tag_1007:\n        /* \"#utility.yul\":45733:45807   */\n      swap2\n      pop\n        /* \"#utility.yul\":45816:45909   */\n      tag_1008\n        /* \"#utility.yul\":45905:45908   */\n      dup3\n        /* \"#utility.yul\":45816:45909   */\n      tag_562\n      jump\t// in\n    tag_1008:\n        /* \"#utility.yul\":45934:45936   */\n      0x20\n        /* \"#utility.yul\":45929:45932   */\n      dup3\n        /* \"#utility.yul\":45925:45937   */\n      add\n        /* \"#utility.yul\":45918:45937   */\n      swap1\n      pop\n        /* \"#utility.yul\":45577:45943   */\n      swap2\n      swap1\n      pop\n      jump\t// out\n        /* \"#utility.yul\":45949:46368   */\n    tag_394:\n        /* \"#utility.yul\":46115:46119   */\n      0x00\n        /* \"#utility.yul\":46153:46155   */\n      0x20\n        /* \"#utility.yul\":46142:46151   */\n      dup3\n        /* \"#utility.yul\":46138:46156   */\n      add\n        /* \"#utility.yul\":46130:46156   */\n      swap1\n      pop\n        /* \"#utility.yul\":46202:46211   */\n      dup2\n        /* \"#utility.yul\":46196:46200   */\n      dup2\n        /* \"#utility.yul\":46192:46212   */\n      sub\n        /* \"#utility.yul\":46188:46189   */\n      0x00\n        /* \"#utility.yul\":46177:46186   */\n      dup4\n        /* \"#utility.yul\":46173:46190   */\n      add\n        /* \"#utility.yul\":46166:46213   */\n      mstore\n        /* \"#utility.yul\":46230:46361   */\n      tag_1010\n        /* \"#utility.yul\":46356:46360   */\n      dup2\n        /* \"#utility.yul\":46230:46361   */\n      tag_563\n      jump\t// in\n    tag_1010:\n        /* \"#utility.yul\":46222:46361   */\n      swap1\n      pop\n        /* \"#utility.yul\":45949:46368   */\n      swap2\n      swap1\n      pop\n      jump\t// out\n        /* \"#utility.yul\":46374:46522   */\n    tag_564:\n        /* \"#utility.yul\":46476:46487   */\n      0x00\n        /* \"#utility.yul\":46513:46516   */\n      dup2\n        /* \"#utility.yul\":46498:46516   */\n      swap1\n      pop\n        /* \"#utility.yul\":46374:46522   */\n      swap3\n      swap2\n      pop\n      pop\n      jump\t// out\n        /* \"#utility.yul\":46528:46701   */\n    tag_565:\n        /* \"#utility.yul\":46668:46693   */\n      0x416363657373436f6e74726f6c3a206163636f756e7420000000000000000000\n        /* \"#utility.yul\":46664:46665   */\n      0x00\n        /* \"#utility.yul\":46656:46662   */\n      dup3\n        /* \"#utility.yul\":46652:46666   */\n      add\n        /* \"#utility.yul\":46645:46694   */\n      mstore\n        /* \"#utility.yul\":46528:46701   */\n      pop\n      jump\t// out\n        /* \"#utility.yul\":46707:47109   */\n    tag_566:\n        /* \"#utility.yul\":46867:46870   */\n      0x00\n        /* \"#utility.yul\":46888:46973   */\n      tag_1014\n        /* \"#utility.yul\":46970:46972   */\n      0x17\n        /* \"#utility.yul\":46965:46968   */\n      dup4\n        /* \"#utility.yul\":46888:46973   */\n      tag_564\n      jump\t// in\n    tag_1014:\n        /* \"#utility.yul\":46881:46973   */\n      swap2\n      pop\n        /* \"#utility.yul\":46982:47075   */\n      tag_1015\n        /* \"#utility.yul\":47071:47074   */\n      dup3\n        /* \"#utility.yul\":46982:47075   */\n      tag_565\n      jump\t// in\n    tag_1015:\n        /* \"#utility.yul\":47100:47102   */\n      0x17\n        /* \"#utility.yul\":47095:47098   */\n      dup3\n        /* \"#utility.yul\":47091:47103   */\n      add\n        /* \"#utility.yul\":47084:47103   */\n      swap1\n      pop\n        /* \"#utility.yul\":46707:47109   */\n      swap2\n      swap1\n      pop\n      jump\t// out\n        /* \"#utility.yul\":47115:47505   */\n    tag_567:\n        /* \"#utility.yul\":47221:47224   */\n      0x00\n        /* \"#utility.yul\":47249:47288   */\n      tag_1017\n        /* \"#utility.yul\":47282:47287   */\n      dup3\n        /* \"#utility.yul\":47249:47288   */\n      tag_461\n      jump\t// in\n    tag_1017:\n        /* \"#utility.yul\":47304:47393   */\n      tag_1018\n        /* \"#utility.yul\":47386:47392   */\n      dup2\n        /* \"#utility.yul\":47381:47384   */\n      dup6\n        /* \"#utility.yul\":47304:47393   */\n      tag_564\n      jump\t// in\n    tag_1018:\n        /* \"#utility.yul\":47297:47393   */\n      swap4\n      pop\n        /* \"#utility.yul\":47402:47467   */\n      tag_1019\n        /* \"#utility.yul\":47460:47466   */\n      dup2\n        /* \"#utility.yul\":47455:47458   */\n      dup6\n        /* \"#utility.yul\":47448:47452   */\n      0x20\n        /* \"#utility.yul\":47441:47446   */\n      dup7\n        /* \"#utility.yul\":47437:47453   */\n      add\n        /* \"#utility.yul\":47402:47467   */\n      tag_463\n      jump\t// in\n    tag_1019:\n        /* \"#utility.yul\":47492:47498   */\n      dup1\n        /* \"#utility.yul\":47487:47490   */\n      dup5\n        /* \"#utility.yul\":47483:47499   */\n      add\n        /* \"#utility.yul\":47476:47499   */\n      swap2\n      pop\n        /* \"#utility.yul\":47225:47505   */\n      pop\n        /* \"#utility.yul\":47115:47505   */\n      swap3\n      swap2\n      pop\n      pop\n      jump\t// out\n        /* \"#utility.yul\":47511:47678   */\n    tag_568:\n        /* \"#utility.yul\":47651:47670   */\n      0x206973206d697373696e6720726f6c6520000000000000000000000000000000\n        /* \"#utility.yul\":47647:47648   */\n      0x00\n        /* \"#utility.yul\":47639:47645   */\n      dup3\n        /* \"#utility.yul\":47635:47649   */\n      add\n        /* \"#utility.yul\":47628:47671   */\n      mstore\n        /* \"#utility.yul\":47511:47678   */\n      pop\n      jump\t// out\n        /* \"#utility.yul\":47684:48086   */\n    tag_569:\n        /* \"#utility.yul\":47844:47847   */\n      0x00\n        /* \"#utility.yul\":47865:47950   */\n      tag_1022\n        /* \"#utility.yul\":47947:47949   */\n      0x11\n        /* \"#utility.yul\":47942:47945   */\n      dup4\n        /* \"#utility.yul\":47865:47950   */\n      tag_564\n      jump\t// in\n    tag_1022:\n        /* \"#utility.yul\":47858:47950   */\n      swap2\n      pop\n        /* \"#utility.yul\":47959:48052   */\n      tag_1023\n        /* \"#utility.yul\":48048:48051   */\n      dup3\n        /* \"#utility.yul\":47959:48052   */\n      tag_568\n      jump\t// in\n    tag_1023:\n        /* \"#utility.yul\":48077:48079   */\n      0x11\n        /* \"#utility.yul\":48072:48075   */\n      dup3\n        /* \"#utility.yul\":48068:48080   */\n      add\n        /* \"#utility.yul\":48061:48080   */\n      swap1\n      pop\n        /* \"#utility.yul\":47684:48086   */\n      swap2\n      swap1\n      pop\n      jump\t// out\n        /* \"#utility.yul\":48092:49059   */\n    tag_420:\n        /* \"#utility.yul\":48474:48477   */\n      0x00\n        /* \"#utility.yul\":48496:48644   */\n      tag_1025\n        /* \"#utility.yul\":48640:48643   */\n      dup3\n        /* \"#utility.yul\":48496:48644   */\n      tag_566\n      jump\t// in\n    tag_1025:\n        /* \"#utility.yul\":48489:48644   */\n      swap2\n      pop\n        /* \"#utility.yul\":48661:48756   */\n      tag_1026\n        /* \"#utility.yul\":48752:48755   */\n      dup3\n        /* \"#utility.yul\":48743:48749   */\n      dup6\n        /* \"#utility.yul\":48661:48756   */\n      tag_567\n      jump\t// in\n    tag_1026:\n        /* \"#utility.yul\":48654:48756   */\n      swap2\n      pop\n        /* \"#utility.yul\":48773:48921   */\n      tag_1027\n        /* \"#utility.yul\":48917:48920   */\n      dup3\n        /* \"#utility.yul\":48773:48921   */\n      tag_569\n      jump\t// in\n    tag_1027:\n        /* \"#utility.yul\":48766:48921   */\n      swap2\n      pop\n        /* \"#utility.yul\":48938:49033   */\n      tag_1028\n        /* \"#utility.yul\":49029:49032   */\n      dup3\n        /* \"#utility.yul\":49020:49026   */\n      dup5\n        /* \"#utility.yul\":48938:49033   */\n      tag_567\n      jump\t// in\n    tag_1028:\n        /* \"#utility.yul\":48931:49033   */\n      swap2\n      pop\n        /* \"#utility.yul\":49050:49053   */\n      dup2\n        /* \"#utility.yul\":49043:49053   */\n      swap1\n      pop\n        /* \"#utility.yul\":48092:49059   */\n      swap4\n      swap3\n      pop\n      pop\n      pop\n      jump\t// out\n        /* \"#utility.yul\":49065:49236   */\n    tag_442:\n        /* \"#utility.yul\":49104:49107   */\n      0x00\n        /* \"#utility.yul\":49127:49151   */\n      tag_1030\n        /* \"#utility.yul\":49145:49150   */\n      dup3\n        /* \"#utility.yul\":49127:49151   */\n      tag_466\n      jump\t// in\n    tag_1030:\n        /* \"#utility.yul\":49118:49151   */\n      swap2\n      pop\n        /* \"#utility.yul\":49173:49177   */\n      0x00\n        /* \"#utility.yul\":49166:49171   */\n      dup3\n        /* \"#utility.yul\":49163:49178   */\n      sub\n        /* \"#utility.yul\":49160:49201   */\n      tag_1031\n      jumpi\n        /* \"#utility.yul\":49181:49199   */\n      tag_1032\n      tag_502\n      jump\t// in\n    tag_1032:\n        /* \"#utility.yul\":49160:49201   */\n    tag_1031:\n        /* \"#utility.yul\":49228:49229   */\n      0x01\n        /* \"#utility.yul\":49221:49226   */\n      dup3\n        /* \"#utility.yul\":49217:49230   */\n      sub\n        /* \"#utility.yul\":49210:49230   */\n      swap1\n      pop\n        /* \"#utility.yul\":49065:49236   */\n      swap2\n      swap1\n      pop\n      jump\t// out\n        /* \"#utility.yul\":49242:49424   */\n    tag_570:\n        /* \"#utility.yul\":49382:49416   */\n      0x537472696e67733a20686578206c656e67746820696e73756666696369656e74\n        /* \"#utility.yul\":49378:49379   */\n      0x00\n        /* \"#utility.yul\":49370:49376   */\n      dup3\n        /* \"#utility.yul\":49366:49380   */\n      add\n        /* \"#utility.yul\":49359:49417   */\n      mstore\n        /* \"#utility.yul\":49242:49424   */\n      pop\n      jump\t// out\n        /* \"#utility.yul\":49430:49796   */\n    tag_571:\n        /* \"#utility.yul\":49572:49575   */\n      0x00\n        /* \"#utility.yul\":49593:49660   */\n      tag_1035\n        /* \"#utility.yul\":49657:49659   */\n      0x20\n        /* \"#utility.yul\":49652:49655   */\n      dup4\n        /* \"#utility.yul\":49593:49660   */\n      tag_462\n      jump\t// in\n    tag_1035:\n        /* \"#utility.yul\":49586:49660   */\n      swap2\n      pop\n        /* \"#utility.yul\":49669:49762   */\n      tag_1036\n        /* \"#utility.yul\":49758:49761   */\n      dup3\n        /* \"#utility.yul\":49669:49762   */\n      tag_570\n      jump\t// in\n    tag_1036:\n        /* \"#utility.yul\":49787:49789   */\n      0x20\n        /* \"#utility.yul\":49782:49785   */\n      dup3\n        /* \"#utility.yul\":49778:49790   */\n      add\n        /* \"#utility.yul\":49771:49790   */\n      swap1\n      pop\n        /* \"#utility.yul\":49430:49796   */\n      swap2\n      swap1\n      pop\n      jump\t// out\n        /* \"#utility.yul\":49802:50221   */\n    tag_445:\n        /* \"#utility.yul\":49968:49972   */\n      0x00\n        /* \"#utility.yul\":50006:50008   */\n      0x20\n        /* \"#utility.yul\":49995:50004   */\n      dup3\n        /* \"#utility.yul\":49991:50009   */\n      add\n        /* \"#utility.yul\":49983:50009   */\n      swap1\n      pop\n        /* \"#utility.yul\":50055:50064   */\n      dup2\n        /* \"#utility.yul\":50049:50053   */\n      dup2\n        /* \"#utility.yul\":50045:50065   */\n      sub\n        /* \"#utility.yul\":50041:50042   */\n      0x00\n        /* \"#utility.yul\":50030:50039   */\n      dup4\n        /* \"#utility.yul\":50026:50043   */\n      add\n        /* \"#utility.yul\":50019:50066   */\n      mstore\n        /* \"#utility.yul\":50083:50214   */\n      tag_1038\n        /* \"#utility.yul\":50209:50213   */\n      dup2\n        /* \"#utility.yul\":50083:50214   */\n      tag_571\n      jump\t// in\n    tag_1038:\n        /* \"#utility.yul\":50075:50214   */\n      swap1\n      pop\n        /* \"#utility.yul\":49802:50221   */\n      swap2\n      swap1\n      pop\n      jump\t// out\n\n    auxdata: 0xa2646970667358221220870a0c3be09f95f9eeee4692a7d41fb87ac21cc0520d2de89ecf19c32e2fee3764736f6c63430008100033\n}\n",
				"bytecode": {
					"linkReferences": {},
					"object": "60806040523480156200001157600080fd5b5062000032620000266200010760201b60201c565b6200010f60201b60201c565b6040518060400160405280600181526020017f5600000000000000000000000000000000000000000000000000000000000000815250600390816200007891906200044d565b506040518060400160405280600681526020017f566f74696e67000000000000000000000000000000000000000000000000000081525060049081620000bf91906200044d565b5033600860006101000a81548173ffffffffffffffffffffffffffffffffffffffff021916908373ffffffffffffffffffffffffffffffffffffffff16021790555062000534565b600033905090565b60008060009054906101000a900473ffffffffffffffffffffffffffffffffffffffff169050816000806101000a81548173ffffffffffffffffffffffffffffffffffffffff021916908373ffffffffffffffffffffffffffffffffffffffff1602179055508173ffffffffffffffffffffffffffffffffffffffff168173ffffffffffffffffffffffffffffffffffffffff167f8be0079c531659141344cd1fd0a4f28419497f9722a3daafe3b4186f6b6457e060405160405180910390a35050565b600081519050919050565b7f4e487b7100000000000000000000000000000000000000000000000000000000600052604160045260246000fd5b7f4e487b7100000000000000000000000000000000000000000000000000000000600052602260045260246000fd5b600060028204905060018216806200025557607f821691505b6020821081036200026b576200026a6200020d565b5b50919050565b60008190508160005260206000209050919050565b60006020601f8301049050919050565b600082821b905092915050565b600060088302620002d57fffffffffffffffffffffffffffffffffffffffffffffffffffffffffffffffff8262000296565b620002e1868362000296565b95508019841693508086168417925050509392505050565b6000819050919050565b6000819050919050565b60006200032e620003286200032284620002f9565b62000303565b620002f9565b9050919050565b6000819050919050565b6200034a836200030d565b62000362620003598262000335565b848454620002a3565b825550505050565b600090565b620003796200036a565b620003868184846200033f565b505050565b5b81811015620003ae57620003a26000826200036f565b6001810190506200038c565b5050565b601f821115620003fd57620003c78162000271565b620003d28462000286565b81016020851015620003e2578190505b620003fa620003f18562000286565b8301826200038b565b50505b505050565b600082821c905092915050565b6000620004226000198460080262000402565b1980831691505092915050565b60006200043d83836200040f565b9150826002028217905092915050565b6200045882620001d3565b67ffffffffffffffff811115620004745762000473620001de565b5b6200048082546200023c565b6200048d828285620003b2565b600060209050601f831160018114620004c55760008415620004b0578287015190505b620004bc85826200042f565b8655506200052c565b601f198416620004d58662000271565b60005b82811015620004ff57848901518255600182019150602085019450602081019050620004d8565b868310156200051f57848901516200051b601f8916826200040f565b8355505b6001600288020188555050505b505050505050565b613c2f80620005446000396000f3fe608060405234801561001057600080fd5b50600436106101c45760003560e01c80635fc48d7e116100f9578063ab15022611610097578063c08cc02d11610071578063c08cc02d14610544578063d1dbe7d814610562578063d547741f14610596578063f2fde38b146105b2576101c4565b8063ab150226146104d5578063b93a89f7146104f3578063be747c1c14610526576101c4565b80638da5cb5b116100d35780638da5cb5b1461044b57806391d148541461046957806395d89b4114610499578063a217fddf146104b7576101c4565b80635fc48d7e146103e157806370a0823114610411578063715018a614610441576101c4565b80632fa48e9e11610166578063401853b711610140578063401853b71461034957806340c10f19146103795780634c3bd9d6146103955780634d5f9eba146103b1576101c4565b80632fa48e9e146102e157806336568abe146102fd5780633989ae3414610319576101c4565b80631840f0ca116101a25780631840f0ca14610247578063248a9ca3146102795780632d5e9d29146102a95780632f2ff15d146102c5576101c4565b806301ffc9a7146101c957806306fdde03146101f95780630f39ee7214610217575b600080fd5b6101e360048036038101906101de91906122f3565b6105ce565b6040516101f0919061233b565b60405180910390f35b610201610648565b60405161020e91906123e6565b60405180910390f35b610231600480360381019061022c919061243e565b6106d6565b60405161023e919061248d565b60405180910390f35b610261600480360381019061025c91906124a8565b61070b565b604051610270939291906124d5565b60405180910390f35b610293600480360381019061028e9190612549565b61087d565b6040516102a09190612585565b60405180910390f35b6102c360048036038101906102be91906124a8565b61089d565b005b6102df60048036038101906102da91906125fe565b610a0f565b005b6102fb60048036038101906102f69190612786565b610a30565b005b610317600480360381019061031291906125fe565b610e4f565b005b610333600480360381019061032e9190612893565b610ed2565b604051610340919061248d565b60405180910390f35b610363600480360381019061035e91906124a8565b61113f565b604051610370919061299f565b60405180910390f35b610393600480360381019061038e91906129ba565b6111bf565b005b6103af60048036038101906103aa91906124a8565b6112ea565b005b6103cb60048036038101906103c691906124a8565b61145c565b6040516103d8919061248d565b60405180910390f35b6103fb60048036038101906103f691906129fa565b6114cf565b604051610408919061233b565b60405180910390f35b61042b60048036038101906104269190612a3a565b611590565b604051610438919061248d565b60405180910390f35b6104496115d9565b005b6104536115ed565b6040516104609190612a76565b60405180910390f35b610483600480360381019061047e91906125fe565b611616565b604051610490919061233b565b60405180910390f35b6104a1611681565b6040516104ae91906123e6565b60405180910390f35b6104bf61170f565b6040516104cc9190612585565b60405180910390f35b6104dd611716565b6040516104ea919061233b565b60405180910390f35b61050d600480360381019061050891906124a8565b61177e565b60405161051d9493929190612b9d565b60405180910390f35b61052e6119ef565b60405161053b919061248d565b60405180910390f35b61054c6119f5565b604051610559919061248d565b60405180910390f35b61057c600480360381019061057791906124a8565b6119ff565b60405161058d959493929190612bf0565b60405180910390f35b6105b060048036038101906105ab91906125fe565b611aea565b005b6105cc60048036038101906105c79190612a3a565b611b0b565b005b60007f7965db0b000000000000000000000000000000000000000000000000000000007bffffffffffffffffffffffffffffffffffffffffffffffffffffffff1916827bffffffffffffffffffffffffffffffffffffffffffffffffffffffff19161480610641575061064082611b8e565b5b9050919050565b6004805461065590612c79565b80601f016020809104026020016040519081016040528092919081815260200182805461068190612c79565b80156106ce5780601f106106a3576101008083540402835291602001916106ce565b820191906000526020600020905b8154815290600101906020018083116106b157829003601f168201915b505050505081565b600060076000848152602001908152602001600020600601600083815260200190815260200160002060010154905092915050565b60008060606000600760008681526020019081526020016000206004015490506000806000600190505b8381116107b15782600760008a81526020019081526020016000206006016000838152602001908152602001600020600101541061079e576007600089815260200190815260200160002060060160008281526020019081526020016000206001015492508091505b80806107a990612cd9565b915050610735565b50600060076000898152602001908152602001600020600601600083815260200190815260200160002060000180546107e990612c79565b80601f016020809104026020016040519081016040528092919081815260200182805461081590612c79565b80156108625780601f1061083757610100808354040283529160200191610862565b820191906000526020600020905b81548152906001019060200180831161084557829003601f168201915b50505050509050818382965096509650505050509193909250565b600060016000838152602001908152602001600020600101549050919050565b806000811180156108b057506006548111155b6108ef576040517f08c379a00000000000000000000000000000000000000000000000000000000081526004016108e690612d6d565b60405180910390fd5b6108f7611bf8565b6000600281111561090b5761090a612928565b5b6007600084815260200190815260200160002060000160149054906101000a900460ff16600281111561094157610940612928565b5b14610981576040517f08c379a000000000000000000000000000000000000000000000000000000000815260040161097890612dd9565b60405180910390fd5b61098a8261145c565b4210156109cc576040517f08c379a00000000000000000000000000000000000000000000000000000000081526004016109c390612e45565b60405180910390fd5b60016007600084815260200190815260200160002060000160146101000a81548160ff02191690836002811115610a0657610a05612928565b5b02179055505050565b610a188261087d565b610a2181611c76565b610a2b8383611c8a565b505050565b81600081118015610a4357506006548111155b610a82576040517f08c379a0000000000000000000000000000000000000000000000000000000008152600401610a7990612d6d565b60405180910390fd5b60006002811115610a9657610a95612928565b5b610a9f8461113f565b6002811115610ab157610ab0612928565b5b14610af1576040517f08c379a0000000000000000000000000000000000000000000000000000000008152600401610ae890612eb1565b60405180910390fd5b610afb83336114cf565b15610b3b576040517f08c379a0000000000000000000000000000000000000000000000000000000008152600401610b3290612f43565b60405180910390fd5b42610b458461145c565b11610b85576040517f08c379a0000000000000000000000000000000000000000000000000000000008152600401610b7c90612fd5565b60405180910390fd5b6000600760008581526020019081526020016000209050600080600190505b84518111610c795784600182610bba9190612ff5565b81518110610bcb57610bca613029565b5b60200260200101518360060160008381526020019081526020016000206001016000828254610bfa9190613058565b9250508190555084600182610c0f9190612ff5565b81518110610c2057610c1f613029565b5b602002602001015185600183610c369190612ff5565b81518110610c4757610c46613029565b5b6020026020010151610c59919061308c565b82610c649190613058565b91508080610c7190612cd9565b915050610ba4565b50610ccc81600560003373ffffffffffffffffffffffffffffffffffffffff1673ffffffffffffffffffffffffffffffffffffffff16815260200190815260200160002054611d6a90919063ffffffff16565b600560003373ffffffffffffffffffffffffffffffffffffffff1673ffffffffffffffffffffffffffffffffffffffff168152602001908152602001600020819055506040518060400160405280600115158152602001858152508260050160003373ffffffffffffffffffffffffffffffffffffffff1673ffffffffffffffffffffffffffffffffffffffff16815260200190815260200160002060008201518160000160006101000a81548160ff0219169083151502179055506020820151816001019080519060200190610da492919061221d565b5090505081600201339080600181540180825580915050600190039060005260206000200160009091909190916101000a81548173ffffffffffffffffffffffffffffffffffffffff021916908373ffffffffffffffffffffffffffffffffffffffff1602179055507f73ab51df610edc81f5551eeb367d093666ac5ba1f45288102ff95f0db861724a338686604051610e40939291906131a4565b60405180910390a15050505050565b610e57611d80565b73ffffffffffffffffffffffffffffffffffffffff168173ffffffffffffffffffffffffffffffffffffffff1614610ec4576040517f08c379a0000000000000000000000000000000000000000000000000000000008152600401610ebb90613254565b60405180910390fd5b610ece8282611d88565b5050565b6000610edc611bf8565b60008211610f1f576040517f08c379a0000000000000000000000000000000000000000000000000000000008152600401610f16906132c0565b60405180910390fd5b60066000815480929190610f3290612cd9565b919050555060006007600060065481526020019081526020016000209050338160000160006101000a81548173ffffffffffffffffffffffffffffffffffffffff021916908373ffffffffffffffffffffffffffffffffffffffff16021790555060008160000160146101000a81548160ff02191690836002811115610fbb57610fba612928565b5b0217905550600183603c610fcf919061308c565b610fd9919061308c565b42610fe49190613058565b81600301819055508686826001019182610fff929190613497565b5084849050816004018190555060005b858590508110156110ee57604051806040016040528087878481811061103857611037613029565b5b905060200281019061104a9190613576565b8080601f016020809104026020016040519081016040528093929190818152602001838380828437600081840152601f19601f82011690508083019250505050505050815260200160008152508260060160006001846110aa9190613058565b815260200190815260200160002060008201518160000190816110cd91906135d9565b506020820151816001015590505080806110e690612cd9565b91505061100f565b507f812b79dc980087562a07c042555f014502c51aac180824c0546a12989f726b5933888888888860405161112896959493929190613829565b60405180910390a160065491505095945050505050565b60008160008111801561115457506006548111155b611193576040517f08c379a000000000000000000000000000000000000000000000000000000000815260040161118a90612d6d565b60405180910390fd5b6007600084815260200190815260200160002060000160149054906101000a900460ff16915050919050565b6111c7611bf8565b600073ffffffffffffffffffffffffffffffffffffffff168273ffffffffffffffffffffffffffffffffffffffff1603611236576040517f08c379a000000000000000000000000000000000000000000000000000000000815260040161122d906138cc565b60405180910390fd5b61124b81600254611e6a90919063ffffffff16565b6002819055506112a381600560008573ffffffffffffffffffffffffffffffffffffffff1673ffffffffffffffffffffffffffffffffffffffff16815260200190815260200160002054611e6a90919063ffffffff16565b600560008473ffffffffffffffffffffffffffffffffffffffff1673ffffffffffffffffffffffffffffffffffffffff168152602001908152602001600020819055505050565b806000811180156112fd57506006548111155b61133c576040517f08c379a000000000000000000000000000000000000000000000000000000000815260040161133390612d6d565b60405180910390fd5b611344611bf8565b6001600281111561135857611357612928565b5b6007600084815260200190815260200160002060000160149054906101000a900460ff16600281111561138e5761138d612928565b5b146113ce576040517f08c379a00000000000000000000000000000000000000000000000000000000081526004016113c590613938565b60405180910390fd5b6113d78261145c565b421015611419576040517f08c379a000000000000000000000000000000000000000000000000000000000815260040161141090612e45565b60405180910390fd5b60026007600084815260200190815260200160002060000160146101000a81548160ff0219169083600281111561145357611452612928565b5b02179055505050565b60008160008111801561147157506006548111155b6114b0576040517f08c379a00000000000000000000000000000000000000000000000000000000081526004016114a790612d6d565b60405180910390fd5b6007600084815260200190815260200160002060030154915050919050565b6000826000811180156114e457506006548111155b611523576040517f08c379a000000000000000000000000000000000000000000000000000000000815260040161151a90612d6d565b60405180910390fd5b6007600085815260200190815260200160002060050160008473ffffffffffffffffffffffffffffffffffffffff1673ffffffffffffffffffffffffffffffffffffffff16815260200190815260200160002060000160009054906101000a900460ff1691505092915050565b6000600560008373ffffffffffffffffffffffffffffffffffffffff1673ffffffffffffffffffffffffffffffffffffffff168152602001908152602001600020549050919050565b6115e1611bf8565b6115eb6000611e80565b565b60008060009054906101000a900473ffffffffffffffffffffffffffffffffffffffff16905090565b60006001600084815260200190815260200160002060000160008373ffffffffffffffffffffffffffffffffffffffff1673ffffffffffffffffffffffffffffffffffffffff16815260200190815260200160002060009054906101000a900460ff16905092915050565b6003805461168e90612c79565b80601f01602080910402602001604051908101604052809291908181526020018280546116ba90612c79565b80156117075780601f106116dc57610100808354040283529160200191611707565b820191906000526020600020905b8154815290600101906020018083116116ea57829003601f168201915b505050505081565b6000801b81565b6000600860009054906101000a900473ffffffffffffffffffffffffffffffffffffffff1673ffffffffffffffffffffffffffffffffffffffff163373ffffffffffffffffffffffffffffffffffffffff1603611776576001905061177b565b600090505b90565b6060806000806000600760008781526020019081526020016000206004015467ffffffffffffffff8111156117b6576117b5612643565b5b6040519080825280602002602001820160405280156117e957816020015b60608152602001906001900390816117d45790505b5090506000600190505b6007600088815260200190815260200160002060040154811161190057600760008881526020019081526020016000206006016000828152602001908152602001600020600001805461184590612c79565b80601f016020809104026020016040519081016040528092919081815260200182805461187190612c79565b80156118be5780601f10611893576101008083540402835291602001916118be565b820191906000526020600020905b8154815290600101906020018083116118a157829003601f168201915b5050505050826001836118d19190612ff5565b815181106118e2576118e1613029565b5b602002602001018190525080806118f890612cd9565b9150506117f3565b5060076000878152602001908152602001600020600101816007600089815260200190815260200160002060030154600760008a815260200190815260200160002060000160149054906101000a900460ff1683805461195f90612c79565b80601f016020809104026020016040519081016040528092919081815260200182805461198b90612c79565b80156119d85780601f106119ad576101008083540402835291602001916119d8565b820191906000526020600020905b8154815290600101906020018083116119bb57829003601f168201915b505050505093509450945094509450509193509193565b60065481565b6000600654905090565b60076020528060005260406000206000915090508060000160009054906101000a900473ffffffffffffffffffffffffffffffffffffffff16908060000160149054906101000a900460ff1690806001018054611a5b90612c79565b80601f0160208091040260200160405190810160405280929190818152602001828054611a8790612c79565b8015611ad45780601f10611aa957610100808354040283529160200191611ad4565b820191906000526020600020905b815481529060010190602001808311611ab757829003601f168201915b5050505050908060030154908060040154905085565b611af38261087d565b611afc81611c76565b611b068383611d88565b505050565b611b13611bf8565b600073ffffffffffffffffffffffffffffffffffffffff168173ffffffffffffffffffffffffffffffffffffffff1603611b82576040517f08c379a0000000000000000000000000000000000000000000000000000000008152600401611b79906139ca565b60405180910390fd5b611b8b81611e80565b50565b60007f01ffc9a7000000000000000000000000000000000000000000000000000000007bffffffffffffffffffffffffffffffffffffffffffffffffffffffff1916827bffffffffffffffffffffffffffffffffffffffffffffffffffffffff1916149050919050565b611c00611d80565b73ffffffffffffffffffffffffffffffffffffffff16611c1e6115ed565b73ffffffffffffffffffffffffffffffffffffffff1614611c74576040517f08c379a0000000000000000000000000000000000000000000000000000000008152600401611c6b90613a36565b60405180910390fd5b565b611c8781611c82611d80565b611f44565b50565b611c948282611616565b611d6657600180600084815260200190815260200160002060000160008373ffffffffffffffffffffffffffffffffffffffff1673ffffffffffffffffffffffffffffffffffffffff16815260200190815260200160002060006101000a81548160ff021916908315150217905550611d0b611d80565b73ffffffffffffffffffffffffffffffffffffffff168173ffffffffffffffffffffffffffffffffffffffff16837f2f8788117e7eff1d82e926ec794901d17c78024a50270940304540a733656f0d60405160405180910390a45b5050565b60008183611d789190612ff5565b905092915050565b600033905090565b611d928282611616565b15611e665760006001600084815260200190815260200160002060000160008373ffffffffffffffffffffffffffffffffffffffff1673ffffffffffffffffffffffffffffffffffffffff16815260200190815260200160002060006101000a81548160ff021916908315150217905550611e0b611d80565b73ffffffffffffffffffffffffffffffffffffffff168173ffffffffffffffffffffffffffffffffffffffff16837ff6391f5c32d9c69d2a47ea670b442974b53935d1edc7fd64eb21e047a839171b60405160405180910390a45b5050565b60008183611e789190613058565b905092915050565b60008060009054906101000a900473ffffffffffffffffffffffffffffffffffffffff169050816000806101000a81548173ffffffffffffffffffffffffffffffffffffffff021916908373ffffffffffffffffffffffffffffffffffffffff1602179055508173ffffffffffffffffffffffffffffffffffffffff168173ffffffffffffffffffffffffffffffffffffffff167f8be0079c531659141344cd1fd0a4f28419497f9722a3daafe3b4186f6b6457e060405160405180910390a35050565b611f4e8282611616565b611fdd57611f738173ffffffffffffffffffffffffffffffffffffffff166014611fe1565b611f818360001c6020611fe1565b604051602001611f92929190613b2a565b6040516020818303038152906040526040517f08c379a0000000000000000000000000000000000000000000000000000000008152600401611fd491906123e6565b60405180910390fd5b5050565b606060006002836002611ff4919061308c565b611ffe9190613058565b67ffffffffffffffff81111561201757612016612643565b5b6040519080825280601f01601f1916602001820160405280156120495781602001600182028036833780820191505090505b5090507f30000000000000000000000000000000000000000000000000000000000000008160008151811061208157612080613029565b5b60200101907effffffffffffffffffffffffffffffffffffffffffffffffffffffffffffff1916908160001a9053507f7800000000000000000000000000000000000000000000000000000000000000816001815181106120e5576120e4613029565b5b60200101907effffffffffffffffffffffffffffffffffffffffffffffffffffffffffffff1916908160001a90535060006001846002612125919061308c565b61212f9190613058565b90505b60018111156121cf577f3031323334353637383961626364656600000000000000000000000000000000600f86166010811061217157612170613029565b5b1a60f81b82828151811061218857612187613029565b5b60200101907effffffffffffffffffffffffffffffffffffffffffffffffffffffffffffff1916908160001a905350600485901c9450806121c890613b64565b9050612132565b5060008414612213576040517f08c379a000000000000000000000000000000000000000000000000000000000815260040161220a90613bd9565b60405180910390fd5b8091505092915050565b828054828255906000526020600020908101928215612259579160200282015b8281111561225857825182559160200191906001019061223d565b5b509050612266919061226a565b5090565b5b8082111561228357600081600090555060010161226b565b5090565b6000604051905090565b600080fd5b600080fd5b60007fffffffff0000000000000000000000000000000000000000000000000000000082169050919050565b6122d08161229b565b81146122db57600080fd5b50565b6000813590506122ed816122c7565b92915050565b60006020828403121561230957612308612291565b5b6000612317848285016122de565b91505092915050565b60008115159050919050565b61233581612320565b82525050565b6000602082019050612350600083018461232c565b92915050565b600081519050919050565b600082825260208201905092915050565b60005b83811015612390578082015181840152602081019050612375565b60008484015250505050565b6000601f19601f8301169050919050565b60006123b882612356565b6123c28185612361565b93506123d2818560208601612372565b6123db8161239c565b840191505092915050565b6000602082019050818103600083015261240081846123ad565b905092915050565b6000819050919050565b61241b81612408565b811461242657600080fd5b50565b60008135905061243881612412565b92915050565b6000806040838503121561245557612454612291565b5b600061246385828601612429565b925050602061247485828601612429565b9150509250929050565b61248781612408565b82525050565b60006020820190506124a2600083018461247e565b92915050565b6000602082840312156124be576124bd612291565b5b60006124cc84828501612429565b91505092915050565b60006060820190506124ea600083018661247e565b6124f7602083018561247e565b818103604083015261250981846123ad565b9050949350505050565b6000819050919050565b61252681612513565b811461253157600080fd5b50565b6000813590506125438161251d565b92915050565b60006020828403121561255f5761255e612291565b5b600061256d84828501612534565b91505092915050565b61257f81612513565b82525050565b600060208201905061259a6000830184612576565b92915050565b600073ffffffffffffffffffffffffffffffffffffffff82169050919050565b60006125cb826125a0565b9050919050565b6125db816125c0565b81146125e657600080fd5b50565b6000813590506125f8816125d2565b92915050565b6000806040838503121561261557612614612291565b5b600061262385828601612534565b9250506020612634858286016125e9565b9150509250929050565b600080fd5b7f4e487b7100000000000000000000000000000000000000000000000000000000600052604160045260246000fd5b61267b8261239c565b810181811067ffffffffffffffff8211171561269a57612699612643565b5b80604052505050565b60006126ad612287565b90506126b98282612672565b919050565b600067ffffffffffffffff8211156126d9576126d8612643565b5b602082029050602081019050919050565b600080fd5b60006127026126fd846126be565b6126a3565b90508083825260208201905060208402830185811115612725576127246126ea565b5b835b8181101561274e578061273a8882612429565b845260208401935050602081019050612727565b5050509392505050565b600082601f83011261276d5761276c61263e565b5b813561277d8482602086016126ef565b91505092915050565b6000806040838503121561279d5761279c612291565b5b60006127ab85828601612429565b925050602083013567ffffffffffffffff8111156127cc576127cb612296565b5b6127d885828601612758565b9150509250929050565b600080fd5b60008083601f8401126127fd576127fc61263e565b5b8235905067ffffffffffffffff81111561281a576128196127e2565b5b602083019150836001820283011115612836576128356126ea565b5b9250929050565b60008083601f8401126128535761285261263e565b5b8235905067ffffffffffffffff8111156128705761286f6127e2565b5b60208301915083602082028301111561288c5761288b6126ea565b5b9250929050565b6000806000806000606086880312156128af576128ae612291565b5b600086013567ffffffffffffffff8111156128cd576128cc612296565b5b6128d9888289016127e7565b9550955050602086013567ffffffffffffffff8111156128fc576128fb612296565b5b6129088882890161283d565b9350935050604061291b88828901612429565b9150509295509295909350565b7f4e487b7100000000000000000000000000000000000000000000000000000000600052602160045260246000fd5b6003811061296857612967612928565b5b50565b600081905061297982612957565b919050565b60006129898261296b565b9050919050565b6129998161297e565b82525050565b60006020820190506129b46000830184612990565b92915050565b600080604083850312156129d1576129d0612291565b5b60006129df858286016125e9565b92505060206129f085828601612429565b9150509250929050565b60008060408385031215612a1157612a10612291565b5b6000612a1f85828601612429565b9250506020612a30858286016125e9565b9150509250929050565b600060208284031215612a5057612a4f612291565b5b6000612a5e848285016125e9565b91505092915050565b612a70816125c0565b82525050565b6000602082019050612a8b6000830184612a67565b92915050565b600081519050919050565b600082825260208201905092915050565b6000819050602082019050919050565b600082825260208201905092915050565b6000612ad982612356565b612ae38185612abd565b9350612af3818560208601612372565b612afc8161239c565b840191505092915050565b6000612b138383612ace565b905092915050565b6000602082019050919050565b6000612b3382612a91565b612b3d8185612a9c565b935083602082028501612b4f85612aad565b8060005b85811015612b8b5784840389528151612b6c8582612b07565b9450612b7783612b1b565b925060208a01995050600181019050612b53565b50829750879550505050505092915050565b60006080820190508181036000830152612bb781876123ad565b90508181036020830152612bcb8186612b28565b9050612bda604083018561247e565b612be76060830184612990565b95945050505050565b600060a082019050612c056000830188612a67565b612c126020830187612990565b8181036040830152612c2481866123ad565b9050612c33606083018561247e565b612c40608083018461247e565b9695505050505050565b7f4e487b7100000000000000000000000000000000000000000000000000000000600052602260045260246000fd5b60006002820490506001821680612c9157607f821691505b602082108103612ca457612ca3612c4a565b5b50919050565b7f4e487b7100000000000000000000000000000000000000000000000000000000600052601160045260246000fd5b6000612ce482612408565b91507fffffffffffffffffffffffffffffffffffffffffffffffffffffffffffffffff8203612d1657612d15612caa565b5b600182019050919050565b7f4e6f7420612076616c69642050726f706f73616c204964000000000000000000600082015250565b6000612d57601783612361565b9150612d6282612d21565b602082019050919050565b60006020820190508181036000830152612d8681612d4a565b9050919050565b7f566f7465206973206e6f7420696e2070726f6772657373000000000000000000600082015250565b6000612dc3601783612361565b9150612dce82612d8d565b602082019050919050565b60006020820190508181036000830152612df281612db6565b9050919050565b7f766f74696e6720706572696f6420686173206e6f742065787069726564000000600082015250565b6000612e2f601d83612361565b9150612e3a82612df9565b602082019050919050565b60006020820190508181036000830152612e5e81612e22565b9050919050565b7f70726f706f73616c2068617320657870697265642e0000000000000000000000600082015250565b6000612e9b601583612361565b9150612ea682612e65565b602082019050919050565b60006020820190508181036000830152612eca81612e8e565b9050919050565b7f7573657220616c726561647920766f746564206f6e20746869732070726f706f60008201527f73616c0000000000000000000000000000000000000000000000000000000000602082015250565b6000612f2d602383612361565b9150612f3882612ed1565b604082019050919050565b60006020820190508181036000830152612f5c81612f20565b9050919050565b7f666f7220746869732070726f706f73616c2c2074686520766f74696e6720746960008201527f6d65206578706972656400000000000000000000000000000000000000000000602082015250565b6000612fbf602a83612361565b9150612fca82612f63565b604082019050919050565b60006020820190508181036000830152612fee81612fb2565b9050919050565b600061300082612408565b915061300b83612408565b925082820390508181111561302357613022612caa565b5b92915050565b7f4e487b7100000000000000000000000000000000000000000000000000000000600052603260045260246000fd5b600061306382612408565b915061306e83612408565b925082820190508082111561308657613085612caa565b5b92915050565b600061309782612408565b91506130a283612408565b9250817fffffffffffffffffffffffffffffffffffffffffffffffffffffffffffffffff04831182151516156130db576130da612caa565b5b828202905092915050565b600081519050919050565b600082825260208201905092915050565b6000819050602082019050919050565b61311b81612408565b82525050565b600061312d8383613112565b60208301905092915050565b6000602082019050919050565b6000613151826130e6565b61315b81856130f1565b935061316683613102565b8060005b8381101561319757815161317e8882613121565b975061318983613139565b92505060018101905061316a565b5085935050505092915050565b60006060820190506131b96000830186612a67565b6131c6602083018561247e565b81810360408301526131d88184613146565b9050949350505050565b7f416363657373436f6e74726f6c3a2063616e206f6e6c792072656e6f756e636560008201527f20726f6c657320666f722073656c660000000000000000000000000000000000602082015250565b600061323e602f83612361565b9150613249826131e2565b604082019050919050565b6000602082019050818103600083015261326d81613231565b9050919050565b7f54686520766f74696e6720706572696f642063616e6e6f742062652030000000600082015250565b60006132aa601d83612361565b91506132b582613274565b602082019050919050565b600060208201905081810360008301526132d98161329d565b9050919050565b600082905092915050565b60008190508160005260206000209050919050565b60006020601f8301049050919050565b600082821b905092915050565b60006008830261334d7fffffffffffffffffffffffffffffffffffffffffffffffffffffffffffffffff82613310565b6133578683613310565b95508019841693508086168417925050509392505050565b6000819050919050565b600061339461338f61338a84612408565b61336f565b612408565b9050919050565b6000819050919050565b6133ae83613379565b6133c26133ba8261339b565b84845461331d565b825550505050565b600090565b6133d76133ca565b6133e28184846133a5565b505050565b5b81811015613406576133fb6000826133cf565b6001810190506133e8565b5050565b601f82111561344b5761341c816132eb565b61342584613300565b81016020851015613434578190505b61344861344085613300565b8301826133e7565b50505b505050565b600082821c905092915050565b600061346e60001984600802613450565b1980831691505092915050565b6000613487838361345d565b9150826002028217905092915050565b6134a183836132e0565b67ffffffffffffffff8111156134ba576134b9612643565b5b6134c48254612c79565b6134cf82828561340a565b6000601f8311600181146134fe57600084156134ec578287013590505b6134f6858261347b565b86555061355e565b601f19841661350c866132eb565b60005b828110156135345784890135825560018201915060208501945060208101905061350f565b86831015613551578489013561354d601f89168261345d565b8355505b6001600288020188555050505b50505050505050565b600080fd5b600080fd5b600080fd5b6000808335600160200384360303811261359357613592613567565b5b80840192508235915067ffffffffffffffff8211156135b5576135b461356c565b5b6020830192506001820236038313156135d1576135d0613571565b5b509250929050565b6135e282612356565b67ffffffffffffffff8111156135fb576135fa612643565b5b6136058254612c79565b61361082828561340a565b600060209050601f8311600181146136435760008415613631578287015190505b61363b858261347b565b8655506136a3565b601f198416613651866132eb565b60005b8281101561367957848901518255600182019150602085019450602081019050613654565b868310156136965784890151613692601f89168261345d565b8355505b6001600288020188555050505b505050505050565b82818337600083830152505050565b60006136c68385612361565b93506136d38385846136ab565b6136dc8361239c565b840190509392505050565b6000819050919050565b60006136fd8385612abd565b935061370a8385846136ab565b6137138361239c565b840190509392505050565b600061372b8484846136f1565b90509392505050565b600080fd5b600080fd5b600080fd5b600080833560016020038436030381126137605761375f61373e565b5b83810192508235915060208301925067ffffffffffffffff82111561378857613787613734565b5b60018202360383131561379e5761379d613739565b5b509250929050565b6000602082019050919050565b60006137bf8385612a9c565b9350836020840285016137d1846136e7565b8060005b878110156138175784840389526137ec8284613743565b6137f786828461371e565b9550613802846137a6565b935060208b019a5050506001810190506137d5565b50829750879450505050509392505050565b600060808201905061383e6000830189612a67565b81810360208301526138518187896136ba565b905081810360408301526138668185876137b3565b9050613875606083018461247e565b979650505050505050565b7f206d696e7420746f20746865207a65726f206164647265737300000000000000600082015250565b60006138b6601983612361565b91506138c182613880565b602082019050919050565b600060208201905081810360008301526138e5816138a9565b9050919050565b7f50726f706f73616c2073686f756c6420626520696e2074616c6c790000000000600082015250565b6000613922601b83612361565b915061392d826138ec565b602082019050919050565b6000602082019050818103600083015261395181613915565b9050919050565b7f4f776e61626c653a206e6577206f776e657220697320746865207a65726f206160008201527f6464726573730000000000000000000000000000000000000000000000000000602082015250565b60006139b4602683612361565b91506139bf82613958565b604082019050919050565b600060208201905081810360008301526139e3816139a7565b9050919050565b7f4f776e61626c653a2063616c6c6572206973206e6f7420746865206f776e6572600082015250565b6000613a20602083612361565b9150613a2b826139ea565b602082019050919050565b60006020820190508181036000830152613a4f81613a13565b9050919050565b600081905092915050565b7f416363657373436f6e74726f6c3a206163636f756e7420000000000000000000600082015250565b6000613a97601783613a56565b9150613aa282613a61565b601782019050919050565b6000613ab882612356565b613ac28185613a56565b9350613ad2818560208601612372565b80840191505092915050565b7f206973206d697373696e6720726f6c6520000000000000000000000000000000600082015250565b6000613b14601183613a56565b9150613b1f82613ade565b601182019050919050565b6000613b3582613a8a565b9150613b418285613aad565b9150613b4c82613b07565b9150613b588284613aad565b91508190509392505050565b6000613b6f82612408565b915060008203613b8257613b81612caa565b5b600182039050919050565b7f537472696e67733a20686578206c656e67746820696e73756666696369656e74600082015250565b6000613bc3602083612361565b9150613bce82613b8d565b602082019050919050565b60006020820190508181036000830152613bf281613bb6565b905091905056fea2646970667358221220870a0c3be09f95f9eeee4692a7d41fb87ac21cc0520d2de89ecf19c32e2fee3764736f6c63430008100033",
					"opcodes": "PUSH1 0x80 PUSH1 0x40 MSTORE CALLVALUE DUP1 ISZERO PUSH3 0x11 JUMPI PUSH1 0x0 DUP1 REVERT JUMPDEST POP PUSH3 0x32 PUSH3 0x26 PUSH3 0x107 PUSH1 0x20 SHL PUSH1 0x20 SHR JUMP JUMPDEST PUSH3 0x10F PUSH1 0x20 SHL PUSH1 0x20 SHR JUMP JUMPDEST PUSH1 0x40 MLOAD DUP1 PUSH1 0x40 ADD PUSH1 0x40 MSTORE DUP1 PUSH1 0x1 DUP2 MSTORE PUSH1 0x20 ADD PUSH32 0x5600000000000000000000000000000000000000000000000000000000000000 DUP2 MSTORE POP PUSH1 0x3 SWAP1 DUP2 PUSH3 0x78 SWAP2 SWAP1 PUSH3 0x44D JUMP JUMPDEST POP PUSH1 0x40 MLOAD DUP1 PUSH1 0x40 ADD PUSH1 0x40 MSTORE DUP1 PUSH1 0x6 DUP2 MSTORE PUSH1 0x20 ADD PUSH32 0x566F74696E670000000000000000000000000000000000000000000000000000 DUP2 MSTORE POP PUSH1 0x4 SWAP1 DUP2 PUSH3 0xBF SWAP2 SWAP1 PUSH3 0x44D JUMP JUMPDEST POP CALLER PUSH1 0x8 PUSH1 0x0 PUSH2 0x100 EXP DUP2 SLOAD DUP2 PUSH20 0xFFFFFFFFFFFFFFFFFFFFFFFFFFFFFFFFFFFFFFFF MUL NOT AND SWAP1 DUP4 PUSH20 0xFFFFFFFFFFFFFFFFFFFFFFFFFFFFFFFFFFFFFFFF AND MUL OR SWAP1 SSTORE POP PUSH3 0x534 JUMP JUMPDEST PUSH1 0x0 CALLER SWAP1 POP SWAP1 JUMP JUMPDEST PUSH1 0x0 DUP1 PUSH1 0x0 SWAP1 SLOAD SWAP1 PUSH2 0x100 EXP SWAP1 DIV PUSH20 0xFFFFFFFFFFFFFFFFFFFFFFFFFFFFFFFFFFFFFFFF AND SWAP1 POP DUP2 PUSH1 0x0 DUP1 PUSH2 0x100 EXP DUP2 SLOAD DUP2 PUSH20 0xFFFFFFFFFFFFFFFFFFFFFFFFFFFFFFFFFFFFFFFF MUL NOT AND SWAP1 DUP4 PUSH20 0xFFFFFFFFFFFFFFFFFFFFFFFFFFFFFFFFFFFFFFFF AND MUL OR SWAP1 SSTORE POP DUP2 PUSH20 0xFFFFFFFFFFFFFFFFFFFFFFFFFFFFFFFFFFFFFFFF AND DUP2 PUSH20 0xFFFFFFFFFFFFFFFFFFFFFFFFFFFFFFFFFFFFFFFF AND PUSH32 0x8BE0079C531659141344CD1FD0A4F28419497F9722A3DAAFE3B4186F6B6457E0 PUSH1 0x40 MLOAD PUSH1 0x40 MLOAD DUP1 SWAP2 SUB SWAP1 LOG3 POP POP JUMP JUMPDEST PUSH1 0x0 DUP2 MLOAD SWAP1 POP SWAP2 SWAP1 POP JUMP JUMPDEST PUSH32 0x4E487B7100000000000000000000000000000000000000000000000000000000 PUSH1 0x0 MSTORE PUSH1 0x41 PUSH1 0x4 MSTORE PUSH1 0x24 PUSH1 0x0 REVERT JUMPDEST PUSH32 0x4E487B7100000000000000000000000000000000000000000000000000000000 PUSH1 0x0 MSTORE PUSH1 0x22 PUSH1 0x4 MSTORE PUSH1 0x24 PUSH1 0x0 REVERT JUMPDEST PUSH1 0x0 PUSH1 0x2 DUP3 DIV SWAP1 POP PUSH1 0x1 DUP3 AND DUP1 PUSH3 0x255 JUMPI PUSH1 0x7F DUP3 AND SWAP2 POP JUMPDEST PUSH1 0x20 DUP3 LT DUP2 SUB PUSH3 0x26B JUMPI PUSH3 0x26A PUSH3 0x20D JUMP JUMPDEST JUMPDEST POP SWAP2 SWAP1 POP JUMP JUMPDEST PUSH1 0x0 DUP2 SWAP1 POP DUP2 PUSH1 0x0 MSTORE PUSH1 0x20 PUSH1 0x0 KECCAK256 SWAP1 POP SWAP2 SWAP1 POP JUMP JUMPDEST PUSH1 0x0 PUSH1 0x20 PUSH1 0x1F DUP4 ADD DIV SWAP1 POP SWAP2 SWAP1 POP JUMP JUMPDEST PUSH1 0x0 DUP3 DUP3 SHL SWAP1 POP SWAP3 SWAP2 POP POP JUMP JUMPDEST PUSH1 0x0 PUSH1 0x8 DUP4 MUL PUSH3 0x2D5 PUSH32 0xFFFFFFFFFFFFFFFFFFFFFFFFFFFFFFFFFFFFFFFFFFFFFFFFFFFFFFFFFFFFFFFF DUP3 PUSH3 0x296 JUMP JUMPDEST PUSH3 0x2E1 DUP7 DUP4 PUSH3 0x296 JUMP JUMPDEST SWAP6 POP DUP1 NOT DUP5 AND SWAP4 POP DUP1 DUP7 AND DUP5 OR SWAP3 POP POP POP SWAP4 SWAP3 POP POP POP JUMP JUMPDEST PUSH1 0x0 DUP2 SWAP1 POP SWAP2 SWAP1 POP JUMP JUMPDEST PUSH1 0x0 DUP2 SWAP1 POP SWAP2 SWAP1 POP JUMP JUMPDEST PUSH1 0x0 PUSH3 0x32E PUSH3 0x328 PUSH3 0x322 DUP5 PUSH3 0x2F9 JUMP JUMPDEST PUSH3 0x303 JUMP JUMPDEST PUSH3 0x2F9 JUMP JUMPDEST SWAP1 POP SWAP2 SWAP1 POP JUMP JUMPDEST PUSH1 0x0 DUP2 SWAP1 POP SWAP2 SWAP1 POP JUMP JUMPDEST PUSH3 0x34A DUP4 PUSH3 0x30D JUMP JUMPDEST PUSH3 0x362 PUSH3 0x359 DUP3 PUSH3 0x335 JUMP JUMPDEST DUP5 DUP5 SLOAD PUSH3 0x2A3 JUMP JUMPDEST DUP3 SSTORE POP POP POP POP JUMP JUMPDEST PUSH1 0x0 SWAP1 JUMP JUMPDEST PUSH3 0x379 PUSH3 0x36A JUMP JUMPDEST PUSH3 0x386 DUP2 DUP5 DUP5 PUSH3 0x33F JUMP JUMPDEST POP POP POP JUMP JUMPDEST JUMPDEST DUP2 DUP2 LT ISZERO PUSH3 0x3AE JUMPI PUSH3 0x3A2 PUSH1 0x0 DUP3 PUSH3 0x36F JUMP JUMPDEST PUSH1 0x1 DUP2 ADD SWAP1 POP PUSH3 0x38C JUMP JUMPDEST POP POP JUMP JUMPDEST PUSH1 0x1F DUP3 GT ISZERO PUSH3 0x3FD JUMPI PUSH3 0x3C7 DUP2 PUSH3 0x271 JUMP JUMPDEST PUSH3 0x3D2 DUP5 PUSH3 0x286 JUMP JUMPDEST DUP2 ADD PUSH1 0x20 DUP6 LT ISZERO PUSH3 0x3E2 JUMPI DUP2 SWAP1 POP JUMPDEST PUSH3 0x3FA PUSH3 0x3F1 DUP6 PUSH3 0x286 JUMP JUMPDEST DUP4 ADD DUP3 PUSH3 0x38B JUMP JUMPDEST POP POP JUMPDEST POP POP POP JUMP JUMPDEST PUSH1 0x0 DUP3 DUP3 SHR SWAP1 POP SWAP3 SWAP2 POP POP JUMP JUMPDEST PUSH1 0x0 PUSH3 0x422 PUSH1 0x0 NOT DUP5 PUSH1 0x8 MUL PUSH3 0x402 JUMP JUMPDEST NOT DUP1 DUP4 AND SWAP2 POP POP SWAP3 SWAP2 POP POP JUMP JUMPDEST PUSH1 0x0 PUSH3 0x43D DUP4 DUP4 PUSH3 0x40F JUMP JUMPDEST SWAP2 POP DUP3 PUSH1 0x2 MUL DUP3 OR SWAP1 POP SWAP3 SWAP2 POP POP JUMP JUMPDEST PUSH3 0x458 DUP3 PUSH3 0x1D3 JUMP JUMPDEST PUSH8 0xFFFFFFFFFFFFFFFF DUP2 GT ISZERO PUSH3 0x474 JUMPI PUSH3 0x473 PUSH3 0x1DE JUMP JUMPDEST JUMPDEST PUSH3 0x480 DUP3 SLOAD PUSH3 0x23C JUMP JUMPDEST PUSH3 0x48D DUP3 DUP3 DUP6 PUSH3 0x3B2 JUMP JUMPDEST PUSH1 0x0 PUSH1 0x20 SWAP1 POP PUSH1 0x1F DUP4 GT PUSH1 0x1 DUP2 EQ PUSH3 0x4C5 JUMPI PUSH1 0x0 DUP5 ISZERO PUSH3 0x4B0 JUMPI DUP3 DUP8 ADD MLOAD SWAP1 POP JUMPDEST PUSH3 0x4BC DUP6 DUP3 PUSH3 0x42F JUMP JUMPDEST DUP7 SSTORE POP PUSH3 0x52C JUMP JUMPDEST PUSH1 0x1F NOT DUP5 AND PUSH3 0x4D5 DUP7 PUSH3 0x271 JUMP JUMPDEST PUSH1 0x0 JUMPDEST DUP3 DUP2 LT ISZERO PUSH3 0x4FF JUMPI DUP5 DUP10 ADD MLOAD DUP3 SSTORE PUSH1 0x1 DUP3 ADD SWAP2 POP PUSH1 0x20 DUP6 ADD SWAP5 POP PUSH1 0x20 DUP2 ADD SWAP1 POP PUSH3 0x4D8 JUMP JUMPDEST DUP7 DUP4 LT ISZERO PUSH3 0x51F JUMPI DUP5 DUP10 ADD MLOAD PUSH3 0x51B PUSH1 0x1F DUP10 AND DUP3 PUSH3 0x40F JUMP JUMPDEST DUP4 SSTORE POP JUMPDEST PUSH1 0x1 PUSH1 0x2 DUP9 MUL ADD DUP9 SSTORE POP POP POP JUMPDEST POP POP POP POP POP POP JUMP JUMPDEST PUSH2 0x3C2F DUP1 PUSH3 0x544 PUSH1 0x0 CODECOPY PUSH1 0x0 RETURN INVALID PUSH1 0x80 PUSH1 0x40 MSTORE CALLVALUE DUP1 ISZERO PUSH2 0x10 JUMPI PUSH1 0x0 DUP1 REVERT JUMPDEST POP PUSH1 0x4 CALLDATASIZE LT PUSH2 0x1C4 JUMPI PUSH1 0x0 CALLDATALOAD PUSH1 0xE0 SHR DUP1 PUSH4 0x5FC48D7E GT PUSH2 0xF9 JUMPI DUP1 PUSH4 0xAB150226 GT PUSH2 0x97 JUMPI DUP1 PUSH4 0xC08CC02D GT PUSH2 0x71 JUMPI DUP1 PUSH4 0xC08CC02D EQ PUSH2 0x544 JUMPI DUP1 PUSH4 0xD1DBE7D8 EQ PUSH2 0x562 JUMPI DUP1 PUSH4 0xD547741F EQ PUSH2 0x596 JUMPI DUP1 PUSH4 0xF2FDE38B EQ PUSH2 0x5B2 JUMPI PUSH2 0x1C4 JUMP JUMPDEST DUP1 PUSH4 0xAB150226 EQ PUSH2 0x4D5 JUMPI DUP1 PUSH4 0xB93A89F7 EQ PUSH2 0x4F3 JUMPI DUP1 PUSH4 0xBE747C1C EQ PUSH2 0x526 JUMPI PUSH2 0x1C4 JUMP JUMPDEST DUP1 PUSH4 0x8DA5CB5B GT PUSH2 0xD3 JUMPI DUP1 PUSH4 0x8DA5CB5B EQ PUSH2 0x44B JUMPI DUP1 PUSH4 0x91D14854 EQ PUSH2 0x469 JUMPI DUP1 PUSH4 0x95D89B41 EQ PUSH2 0x499 JUMPI DUP1 PUSH4 0xA217FDDF EQ PUSH2 0x4B7 JUMPI PUSH2 0x1C4 JUMP JUMPDEST DUP1 PUSH4 0x5FC48D7E EQ PUSH2 0x3E1 JUMPI DUP1 PUSH4 0x70A08231 EQ PUSH2 0x411 JUMPI DUP1 PUSH4 0x715018A6 EQ PUSH2 0x441 JUMPI PUSH2 0x1C4 JUMP JUMPDEST DUP1 PUSH4 0x2FA48E9E GT PUSH2 0x166 JUMPI DUP1 PUSH4 0x401853B7 GT PUSH2 0x140 JUMPI DUP1 PUSH4 0x401853B7 EQ PUSH2 0x349 JUMPI DUP1 PUSH4 0x40C10F19 EQ PUSH2 0x379 JUMPI DUP1 PUSH4 0x4C3BD9D6 EQ PUSH2 0x395 JUMPI DUP1 PUSH4 0x4D5F9EBA EQ PUSH2 0x3B1 JUMPI PUSH2 0x1C4 JUMP JUMPDEST DUP1 PUSH4 0x2FA48E9E EQ PUSH2 0x2E1 JUMPI DUP1 PUSH4 0x36568ABE EQ PUSH2 0x2FD JUMPI DUP1 PUSH4 0x3989AE34 EQ PUSH2 0x319 JUMPI PUSH2 0x1C4 JUMP JUMPDEST DUP1 PUSH4 0x1840F0CA GT PUSH2 0x1A2 JUMPI DUP1 PUSH4 0x1840F0CA EQ PUSH2 0x247 JUMPI DUP1 PUSH4 0x248A9CA3 EQ PUSH2 0x279 JUMPI DUP1 PUSH4 0x2D5E9D29 EQ PUSH2 0x2A9 JUMPI DUP1 PUSH4 0x2F2FF15D EQ PUSH2 0x2C5 JUMPI PUSH2 0x1C4 JUMP JUMPDEST DUP1 PUSH4 0x1FFC9A7 EQ PUSH2 0x1C9 JUMPI DUP1 PUSH4 0x6FDDE03 EQ PUSH2 0x1F9 JUMPI DUP1 PUSH4 0xF39EE72 EQ PUSH2 0x217 JUMPI JUMPDEST PUSH1 0x0 DUP1 REVERT JUMPDEST PUSH2 0x1E3 PUSH1 0x4 DUP1 CALLDATASIZE SUB DUP2 ADD SWAP1 PUSH2 0x1DE SWAP2 SWAP1 PUSH2 0x22F3 JUMP JUMPDEST PUSH2 0x5CE JUMP JUMPDEST PUSH1 0x40 MLOAD PUSH2 0x1F0 SWAP2 SWAP1 PUSH2 0x233B JUMP JUMPDEST PUSH1 0x40 MLOAD DUP1 SWAP2 SUB SWAP1 RETURN JUMPDEST PUSH2 0x201 PUSH2 0x648 JUMP JUMPDEST PUSH1 0x40 MLOAD PUSH2 0x20E SWAP2 SWAP1 PUSH2 0x23E6 JUMP JUMPDEST PUSH1 0x40 MLOAD DUP1 SWAP2 SUB SWAP1 RETURN JUMPDEST PUSH2 0x231 PUSH1 0x4 DUP1 CALLDATASIZE SUB DUP2 ADD SWAP1 PUSH2 0x22C SWAP2 SWAP1 PUSH2 0x243E JUMP JUMPDEST PUSH2 0x6D6 JUMP JUMPDEST PUSH1 0x40 MLOAD PUSH2 0x23E SWAP2 SWAP1 PUSH2 0x248D JUMP JUMPDEST PUSH1 0x40 MLOAD DUP1 SWAP2 SUB SWAP1 RETURN JUMPDEST PUSH2 0x261 PUSH1 0x4 DUP1 CALLDATASIZE SUB DUP2 ADD SWAP1 PUSH2 0x25C SWAP2 SWAP1 PUSH2 0x24A8 JUMP JUMPDEST PUSH2 0x70B JUMP JUMPDEST PUSH1 0x40 MLOAD PUSH2 0x270 SWAP4 SWAP3 SWAP2 SWAP1 PUSH2 0x24D5 JUMP JUMPDEST PUSH1 0x40 MLOAD DUP1 SWAP2 SUB SWAP1 RETURN JUMPDEST PUSH2 0x293 PUSH1 0x4 DUP1 CALLDATASIZE SUB DUP2 ADD SWAP1 PUSH2 0x28E SWAP2 SWAP1 PUSH2 0x2549 JUMP JUMPDEST PUSH2 0x87D JUMP JUMPDEST PUSH1 0x40 MLOAD PUSH2 0x2A0 SWAP2 SWAP1 PUSH2 0x2585 JUMP JUMPDEST PUSH1 0x40 MLOAD DUP1 SWAP2 SUB SWAP1 RETURN JUMPDEST PUSH2 0x2C3 PUSH1 0x4 DUP1 CALLDATASIZE SUB DUP2 ADD SWAP1 PUSH2 0x2BE SWAP2 SWAP1 PUSH2 0x24A8 JUMP JUMPDEST PUSH2 0x89D JUMP JUMPDEST STOP JUMPDEST PUSH2 0x2DF PUSH1 0x4 DUP1 CALLDATASIZE SUB DUP2 ADD SWAP1 PUSH2 0x2DA SWAP2 SWAP1 PUSH2 0x25FE JUMP JUMPDEST PUSH2 0xA0F JUMP JUMPDEST STOP JUMPDEST PUSH2 0x2FB PUSH1 0x4 DUP1 CALLDATASIZE SUB DUP2 ADD SWAP1 PUSH2 0x2F6 SWAP2 SWAP1 PUSH2 0x2786 JUMP JUMPDEST PUSH2 0xA30 JUMP JUMPDEST STOP JUMPDEST PUSH2 0x317 PUSH1 0x4 DUP1 CALLDATASIZE SUB DUP2 ADD SWAP1 PUSH2 0x312 SWAP2 SWAP1 PUSH2 0x25FE JUMP JUMPDEST PUSH2 0xE4F JUMP JUMPDEST STOP JUMPDEST PUSH2 0x333 PUSH1 0x4 DUP1 CALLDATASIZE SUB DUP2 ADD SWAP1 PUSH2 0x32E SWAP2 SWAP1 PUSH2 0x2893 JUMP JUMPDEST PUSH2 0xED2 JUMP JUMPDEST PUSH1 0x40 MLOAD PUSH2 0x340 SWAP2 SWAP1 PUSH2 0x248D JUMP JUMPDEST PUSH1 0x40 MLOAD DUP1 SWAP2 SUB SWAP1 RETURN JUMPDEST PUSH2 0x363 PUSH1 0x4 DUP1 CALLDATASIZE SUB DUP2 ADD SWAP1 PUSH2 0x35E SWAP2 SWAP1 PUSH2 0x24A8 JUMP JUMPDEST PUSH2 0x113F JUMP JUMPDEST PUSH1 0x40 MLOAD PUSH2 0x370 SWAP2 SWAP1 PUSH2 0x299F JUMP JUMPDEST PUSH1 0x40 MLOAD DUP1 SWAP2 SUB SWAP1 RETURN JUMPDEST PUSH2 0x393 PUSH1 0x4 DUP1 CALLDATASIZE SUB DUP2 ADD SWAP1 PUSH2 0x38E SWAP2 SWAP1 PUSH2 0x29BA JUMP JUMPDEST PUSH2 0x11BF JUMP JUMPDEST STOP JUMPDEST PUSH2 0x3AF PUSH1 0x4 DUP1 CALLDATASIZE SUB DUP2 ADD SWAP1 PUSH2 0x3AA SWAP2 SWAP1 PUSH2 0x24A8 JUMP JUMPDEST PUSH2 0x12EA JUMP JUMPDEST STOP JUMPDEST PUSH2 0x3CB PUSH1 0x4 DUP1 CALLDATASIZE SUB DUP2 ADD SWAP1 PUSH2 0x3C6 SWAP2 SWAP1 PUSH2 0x24A8 JUMP JUMPDEST PUSH2 0x145C JUMP JUMPDEST PUSH1 0x40 MLOAD PUSH2 0x3D8 SWAP2 SWAP1 PUSH2 0x248D JUMP JUMPDEST PUSH1 0x40 MLOAD DUP1 SWAP2 SUB SWAP1 RETURN JUMPDEST PUSH2 0x3FB PUSH1 0x4 DUP1 CALLDATASIZE SUB DUP2 ADD SWAP1 PUSH2 0x3F6 SWAP2 SWAP1 PUSH2 0x29FA JUMP JUMPDEST PUSH2 0x14CF JUMP JUMPDEST PUSH1 0x40 MLOAD PUSH2 0x408 SWAP2 SWAP1 PUSH2 0x233B JUMP JUMPDEST PUSH1 0x40 MLOAD DUP1 SWAP2 SUB SWAP1 RETURN JUMPDEST PUSH2 0x42B PUSH1 0x4 DUP1 CALLDATASIZE SUB DUP2 ADD SWAP1 PUSH2 0x426 SWAP2 SWAP1 PUSH2 0x2A3A JUMP JUMPDEST PUSH2 0x1590 JUMP JUMPDEST PUSH1 0x40 MLOAD PUSH2 0x438 SWAP2 SWAP1 PUSH2 0x248D JUMP JUMPDEST PUSH1 0x40 MLOAD DUP1 SWAP2 SUB SWAP1 RETURN JUMPDEST PUSH2 0x449 PUSH2 0x15D9 JUMP JUMPDEST STOP JUMPDEST PUSH2 0x453 PUSH2 0x15ED JUMP JUMPDEST PUSH1 0x40 MLOAD PUSH2 0x460 SWAP2 SWAP1 PUSH2 0x2A76 JUMP JUMPDEST PUSH1 0x40 MLOAD DUP1 SWAP2 SUB SWAP1 RETURN JUMPDEST PUSH2 0x483 PUSH1 0x4 DUP1 CALLDATASIZE SUB DUP2 ADD SWAP1 PUSH2 0x47E SWAP2 SWAP1 PUSH2 0x25FE JUMP JUMPDEST PUSH2 0x1616 JUMP JUMPDEST PUSH1 0x40 MLOAD PUSH2 0x490 SWAP2 SWAP1 PUSH2 0x233B JUMP JUMPDEST PUSH1 0x40 MLOAD DUP1 SWAP2 SUB SWAP1 RETURN JUMPDEST PUSH2 0x4A1 PUSH2 0x1681 JUMP JUMPDEST PUSH1 0x40 MLOAD PUSH2 0x4AE SWAP2 SWAP1 PUSH2 0x23E6 JUMP JUMPDEST PUSH1 0x40 MLOAD DUP1 SWAP2 SUB SWAP1 RETURN JUMPDEST PUSH2 0x4BF PUSH2 0x170F JUMP JUMPDEST PUSH1 0x40 MLOAD PUSH2 0x4CC SWAP2 SWAP1 PUSH2 0x2585 JUMP JUMPDEST PUSH1 0x40 MLOAD DUP1 SWAP2 SUB SWAP1 RETURN JUMPDEST PUSH2 0x4DD PUSH2 0x1716 JUMP JUMPDEST PUSH1 0x40 MLOAD PUSH2 0x4EA SWAP2 SWAP1 PUSH2 0x233B JUMP JUMPDEST PUSH1 0x40 MLOAD DUP1 SWAP2 SUB SWAP1 RETURN JUMPDEST PUSH2 0x50D PUSH1 0x4 DUP1 CALLDATASIZE SUB DUP2 ADD SWAP1 PUSH2 0x508 SWAP2 SWAP1 PUSH2 0x24A8 JUMP JUMPDEST PUSH2 0x177E JUMP JUMPDEST PUSH1 0x40 MLOAD PUSH2 0x51D SWAP5 SWAP4 SWAP3 SWAP2 SWAP1 PUSH2 0x2B9D JUMP JUMPDEST PUSH1 0x40 MLOAD DUP1 SWAP2 SUB SWAP1 RETURN JUMPDEST PUSH2 0x52E PUSH2 0x19EF JUMP JUMPDEST PUSH1 0x40 MLOAD PUSH2 0x53B SWAP2 SWAP1 PUSH2 0x248D JUMP JUMPDEST PUSH1 0x40 MLOAD DUP1 SWAP2 SUB SWAP1 RETURN JUMPDEST PUSH2 0x54C PUSH2 0x19F5 JUMP JUMPDEST PUSH1 0x40 MLOAD PUSH2 0x559 SWAP2 SWAP1 PUSH2 0x248D JUMP JUMPDEST PUSH1 0x40 MLOAD DUP1 SWAP2 SUB SWAP1 RETURN JUMPDEST PUSH2 0x57C PUSH1 0x4 DUP1 CALLDATASIZE SUB DUP2 ADD SWAP1 PUSH2 0x577 SWAP2 SWAP1 PUSH2 0x24A8 JUMP JUMPDEST PUSH2 0x19FF JUMP JUMPDEST PUSH1 0x40 MLOAD PUSH2 0x58D SWAP6 SWAP5 SWAP4 SWAP3 SWAP2 SWAP1 PUSH2 0x2BF0 JUMP JUMPDEST PUSH1 0x40 MLOAD DUP1 SWAP2 SUB SWAP1 RETURN JUMPDEST PUSH2 0x5B0 PUSH1 0x4 DUP1 CALLDATASIZE SUB DUP2 ADD SWAP1 PUSH2 0x5AB SWAP2 SWAP1 PUSH2 0x25FE JUMP JUMPDEST PUSH2 0x1AEA JUMP JUMPDEST STOP JUMPDEST PUSH2 0x5CC PUSH1 0x4 DUP1 CALLDATASIZE SUB DUP2 ADD SWAP1 PUSH2 0x5C7 SWAP2 SWAP1 PUSH2 0x2A3A JUMP JUMPDEST PUSH2 0x1B0B JUMP JUMPDEST STOP JUMPDEST PUSH1 0x0 PUSH32 0x7965DB0B00000000000000000000000000000000000000000000000000000000 PUSH28 0xFFFFFFFFFFFFFFFFFFFFFFFFFFFFFFFFFFFFFFFFFFFFFFFFFFFFFFFF NOT AND DUP3 PUSH28 0xFFFFFFFFFFFFFFFFFFFFFFFFFFFFFFFFFFFFFFFFFFFFFFFFFFFFFFFF NOT AND EQ DUP1 PUSH2 0x641 JUMPI POP PUSH2 0x640 DUP3 PUSH2 0x1B8E JUMP JUMPDEST JUMPDEST SWAP1 POP SWAP2 SWAP1 POP JUMP JUMPDEST PUSH1 0x4 DUP1 SLOAD PUSH2 0x655 SWAP1 PUSH2 0x2C79 JUMP JUMPDEST DUP1 PUSH1 0x1F ADD PUSH1 0x20 DUP1 SWAP2 DIV MUL PUSH1 0x20 ADD PUSH1 0x40 MLOAD SWAP1 DUP2 ADD PUSH1 0x40 MSTORE DUP1 SWAP3 SWAP2 SWAP1 DUP2 DUP2 MSTORE PUSH1 0x20 ADD DUP3 DUP1 SLOAD PUSH2 0x681 SWAP1 PUSH2 0x2C79 JUMP JUMPDEST DUP1 ISZERO PUSH2 0x6CE JUMPI DUP1 PUSH1 0x1F LT PUSH2 0x6A3 JUMPI PUSH2 0x100 DUP1 DUP4 SLOAD DIV MUL DUP4 MSTORE SWAP2 PUSH1 0x20 ADD SWAP2 PUSH2 0x6CE JUMP JUMPDEST DUP3 ADD SWAP2 SWAP1 PUSH1 0x0 MSTORE PUSH1 0x20 PUSH1 0x0 KECCAK256 SWAP1 JUMPDEST DUP2 SLOAD DUP2 MSTORE SWAP1 PUSH1 0x1 ADD SWAP1 PUSH1 0x20 ADD DUP1 DUP4 GT PUSH2 0x6B1 JUMPI DUP3 SWAP1 SUB PUSH1 0x1F AND DUP3 ADD SWAP2 JUMPDEST POP POP POP POP POP DUP2 JUMP JUMPDEST PUSH1 0x0 PUSH1 0x7 PUSH1 0x0 DUP5 DUP2 MSTORE PUSH1 0x20 ADD SWAP1 DUP2 MSTORE PUSH1 0x20 ADD PUSH1 0x0 KECCAK256 PUSH1 0x6 ADD PUSH1 0x0 DUP4 DUP2 MSTORE PUSH1 0x20 ADD SWAP1 DUP2 MSTORE PUSH1 0x20 ADD PUSH1 0x0 KECCAK256 PUSH1 0x1 ADD SLOAD SWAP1 POP SWAP3 SWAP2 POP POP JUMP JUMPDEST PUSH1 0x0 DUP1 PUSH1 0x60 PUSH1 0x0 PUSH1 0x7 PUSH1 0x0 DUP7 DUP2 MSTORE PUSH1 0x20 ADD SWAP1 DUP2 MSTORE PUSH1 0x20 ADD PUSH1 0x0 KECCAK256 PUSH1 0x4 ADD SLOAD SWAP1 POP PUSH1 0x0 DUP1 PUSH1 0x0 PUSH1 0x1 SWAP1 POP JUMPDEST DUP4 DUP2 GT PUSH2 0x7B1 JUMPI DUP3 PUSH1 0x7 PUSH1 0x0 DUP11 DUP2 MSTORE PUSH1 0x20 ADD SWAP1 DUP2 MSTORE PUSH1 0x20 ADD PUSH1 0x0 KECCAK256 PUSH1 0x6 ADD PUSH1 0x0 DUP4 DUP2 MSTORE PUSH1 0x20 ADD SWAP1 DUP2 MSTORE PUSH1 0x20 ADD PUSH1 0x0 KECCAK256 PUSH1 0x1 ADD SLOAD LT PUSH2 0x79E JUMPI PUSH1 0x7 PUSH1 0x0 DUP10 DUP2 MSTORE PUSH1 0x20 ADD SWAP1 DUP2 MSTORE PUSH1 0x20 ADD PUSH1 0x0 KECCAK256 PUSH1 0x6 ADD PUSH1 0x0 DUP3 DUP2 MSTORE PUSH1 0x20 ADD SWAP1 DUP2 MSTORE PUSH1 0x20 ADD PUSH1 0x0 KECCAK256 PUSH1 0x1 ADD SLOAD SWAP3 POP DUP1 SWAP2 POP JUMPDEST DUP1 DUP1 PUSH2 0x7A9 SWAP1 PUSH2 0x2CD9 JUMP JUMPDEST SWAP2 POP POP PUSH2 0x735 JUMP JUMPDEST POP PUSH1 0x0 PUSH1 0x7 PUSH1 0x0 DUP10 DUP2 MSTORE PUSH1 0x20 ADD SWAP1 DUP2 MSTORE PUSH1 0x20 ADD PUSH1 0x0 KECCAK256 PUSH1 0x6 ADD PUSH1 0x0 DUP4 DUP2 MSTORE PUSH1 0x20 ADD SWAP1 DUP2 MSTORE PUSH1 0x20 ADD PUSH1 0x0 KECCAK256 PUSH1 0x0 ADD DUP1 SLOAD PUSH2 0x7E9 SWAP1 PUSH2 0x2C79 JUMP JUMPDEST DUP1 PUSH1 0x1F ADD PUSH1 0x20 DUP1 SWAP2 DIV MUL PUSH1 0x20 ADD PUSH1 0x40 MLOAD SWAP1 DUP2 ADD PUSH1 0x40 MSTORE DUP1 SWAP3 SWAP2 SWAP1 DUP2 DUP2 MSTORE PUSH1 0x20 ADD DUP3 DUP1 SLOAD PUSH2 0x815 SWAP1 PUSH2 0x2C79 JUMP JUMPDEST DUP1 ISZERO PUSH2 0x862 JUMPI DUP1 PUSH1 0x1F LT PUSH2 0x837 JUMPI PUSH2 0x100 DUP1 DUP4 SLOAD DIV MUL DUP4 MSTORE SWAP2 PUSH1 0x20 ADD SWAP2 PUSH2 0x862 JUMP JUMPDEST DUP3 ADD SWAP2 SWAP1 PUSH1 0x0 MSTORE PUSH1 0x20 PUSH1 0x0 KECCAK256 SWAP1 JUMPDEST DUP2 SLOAD DUP2 MSTORE SWAP1 PUSH1 0x1 ADD SWAP1 PUSH1 0x20 ADD DUP1 DUP4 GT PUSH2 0x845 JUMPI DUP3 SWAP1 SUB PUSH1 0x1F AND DUP3 ADD SWAP2 JUMPDEST POP POP POP POP POP SWAP1 POP DUP2 DUP4 DUP3 SWAP7 POP SWAP7 POP SWAP7 POP POP POP POP POP SWAP2 SWAP4 SWAP1 SWAP3 POP JUMP JUMPDEST PUSH1 0x0 PUSH1 0x1 PUSH1 0x0 DUP4 DUP2 MSTORE PUSH1 0x20 ADD SWAP1 DUP2 MSTORE PUSH1 0x20 ADD PUSH1 0x0 KECCAK256 PUSH1 0x1 ADD SLOAD SWAP1 POP SWAP2 SWAP1 POP JUMP JUMPDEST DUP1 PUSH1 0x0 DUP2 GT DUP1 ISZERO PUSH2 0x8B0 JUMPI POP PUSH1 0x6 SLOAD DUP2 GT ISZERO JUMPDEST PUSH2 0x8EF JUMPI PUSH1 0x40 MLOAD PUSH32 0x8C379A000000000000000000000000000000000000000000000000000000000 DUP2 MSTORE PUSH1 0x4 ADD PUSH2 0x8E6 SWAP1 PUSH2 0x2D6D JUMP JUMPDEST PUSH1 0x40 MLOAD DUP1 SWAP2 SUB SWAP1 REVERT JUMPDEST PUSH2 0x8F7 PUSH2 0x1BF8 JUMP JUMPDEST PUSH1 0x0 PUSH1 0x2 DUP2 GT ISZERO PUSH2 0x90B JUMPI PUSH2 0x90A PUSH2 0x2928 JUMP JUMPDEST JUMPDEST PUSH1 0x7 PUSH1 0x0 DUP5 DUP2 MSTORE PUSH1 0x20 ADD SWAP1 DUP2 MSTORE PUSH1 0x20 ADD PUSH1 0x0 KECCAK256 PUSH1 0x0 ADD PUSH1 0x14 SWAP1 SLOAD SWAP1 PUSH2 0x100 EXP SWAP1 DIV PUSH1 0xFF AND PUSH1 0x2 DUP2 GT ISZERO PUSH2 0x941 JUMPI PUSH2 0x940 PUSH2 0x2928 JUMP JUMPDEST JUMPDEST EQ PUSH2 0x981 JUMPI PUSH1 0x40 MLOAD PUSH32 0x8C379A000000000000000000000000000000000000000000000000000000000 DUP2 MSTORE PUSH1 0x4 ADD PUSH2 0x978 SWAP1 PUSH2 0x2DD9 JUMP JUMPDEST PUSH1 0x40 MLOAD DUP1 SWAP2 SUB SWAP1 REVERT JUMPDEST PUSH2 0x98A DUP3 PUSH2 0x145C JUMP JUMPDEST TIMESTAMP LT ISZERO PUSH2 0x9CC JUMPI PUSH1 0x40 MLOAD PUSH32 0x8C379A000000000000000000000000000000000000000000000000000000000 DUP2 MSTORE PUSH1 0x4 ADD PUSH2 0x9C3 SWAP1 PUSH2 0x2E45 JUMP JUMPDEST PUSH1 0x40 MLOAD DUP1 SWAP2 SUB SWAP1 REVERT JUMPDEST PUSH1 0x1 PUSH1 0x7 PUSH1 0x0 DUP5 DUP2 MSTORE PUSH1 0x20 ADD SWAP1 DUP2 MSTORE PUSH1 0x20 ADD PUSH1 0x0 KECCAK256 PUSH1 0x0 ADD PUSH1 0x14 PUSH2 0x100 EXP DUP2 SLOAD DUP2 PUSH1 0xFF MUL NOT AND SWAP1 DUP4 PUSH1 0x2 DUP2 GT ISZERO PUSH2 0xA06 JUMPI PUSH2 0xA05 PUSH2 0x2928 JUMP JUMPDEST JUMPDEST MUL OR SWAP1 SSTORE POP POP POP JUMP JUMPDEST PUSH2 0xA18 DUP3 PUSH2 0x87D JUMP JUMPDEST PUSH2 0xA21 DUP2 PUSH2 0x1C76 JUMP JUMPDEST PUSH2 0xA2B DUP4 DUP4 PUSH2 0x1C8A JUMP JUMPDEST POP POP POP JUMP JUMPDEST DUP2 PUSH1 0x0 DUP2 GT DUP1 ISZERO PUSH2 0xA43 JUMPI POP PUSH1 0x6 SLOAD DUP2 GT ISZERO JUMPDEST PUSH2 0xA82 JUMPI PUSH1 0x40 MLOAD PUSH32 0x8C379A000000000000000000000000000000000000000000000000000000000 DUP2 MSTORE PUSH1 0x4 ADD PUSH2 0xA79 SWAP1 PUSH2 0x2D6D JUMP JUMPDEST PUSH1 0x40 MLOAD DUP1 SWAP2 SUB SWAP1 REVERT JUMPDEST PUSH1 0x0 PUSH1 0x2 DUP2 GT ISZERO PUSH2 0xA96 JUMPI PUSH2 0xA95 PUSH2 0x2928 JUMP JUMPDEST JUMPDEST PUSH2 0xA9F DUP5 PUSH2 0x113F JUMP JUMPDEST PUSH1 0x2 DUP2 GT ISZERO PUSH2 0xAB1 JUMPI PUSH2 0xAB0 PUSH2 0x2928 JUMP JUMPDEST JUMPDEST EQ PUSH2 0xAF1 JUMPI PUSH1 0x40 MLOAD PUSH32 0x8C379A000000000000000000000000000000000000000000000000000000000 DUP2 MSTORE PUSH1 0x4 ADD PUSH2 0xAE8 SWAP1 PUSH2 0x2EB1 JUMP JUMPDEST PUSH1 0x40 MLOAD DUP1 SWAP2 SUB SWAP1 REVERT JUMPDEST PUSH2 0xAFB DUP4 CALLER PUSH2 0x14CF JUMP JUMPDEST ISZERO PUSH2 0xB3B JUMPI PUSH1 0x40 MLOAD PUSH32 0x8C379A000000000000000000000000000000000000000000000000000000000 DUP2 MSTORE PUSH1 0x4 ADD PUSH2 0xB32 SWAP1 PUSH2 0x2F43 JUMP JUMPDEST PUSH1 0x40 MLOAD DUP1 SWAP2 SUB SWAP1 REVERT JUMPDEST TIMESTAMP PUSH2 0xB45 DUP5 PUSH2 0x145C JUMP JUMPDEST GT PUSH2 0xB85 JUMPI PUSH1 0x40 MLOAD PUSH32 0x8C379A000000000000000000000000000000000000000000000000000000000 DUP2 MSTORE PUSH1 0x4 ADD PUSH2 0xB7C SWAP1 PUSH2 0x2FD5 JUMP JUMPDEST PUSH1 0x40 MLOAD DUP1 SWAP2 SUB SWAP1 REVERT JUMPDEST PUSH1 0x0 PUSH1 0x7 PUSH1 0x0 DUP6 DUP2 MSTORE PUSH1 0x20 ADD SWAP1 DUP2 MSTORE PUSH1 0x20 ADD PUSH1 0x0 KECCAK256 SWAP1 POP PUSH1 0x0 DUP1 PUSH1 0x1 SWAP1 POP JUMPDEST DUP5 MLOAD DUP2 GT PUSH2 0xC79 JUMPI DUP5 PUSH1 0x1 DUP3 PUSH2 0xBBA SWAP2 SWAP1 PUSH2 0x2FF5 JUMP JUMPDEST DUP2 MLOAD DUP2 LT PUSH2 0xBCB JUMPI PUSH2 0xBCA PUSH2 0x3029 JUMP JUMPDEST JUMPDEST PUSH1 0x20 MUL PUSH1 0x20 ADD ADD MLOAD DUP4 PUSH1 0x6 ADD PUSH1 0x0 DUP4 DUP2 MSTORE PUSH1 0x20 ADD SWAP1 DUP2 MSTORE PUSH1 0x20 ADD PUSH1 0x0 KECCAK256 PUSH1 0x1 ADD PUSH1 0x0 DUP3 DUP3 SLOAD PUSH2 0xBFA SWAP2 SWAP1 PUSH2 0x3058 JUMP JUMPDEST SWAP3 POP POP DUP2 SWAP1 SSTORE POP DUP5 PUSH1 0x1 DUP3 PUSH2 0xC0F SWAP2 SWAP1 PUSH2 0x2FF5 JUMP JUMPDEST DUP2 MLOAD DUP2 LT PUSH2 0xC20 JUMPI PUSH2 0xC1F PUSH2 0x3029 JUMP JUMPDEST JUMPDEST PUSH1 0x20 MUL PUSH1 0x20 ADD ADD MLOAD DUP6 PUSH1 0x1 DUP4 PUSH2 0xC36 SWAP2 SWAP1 PUSH2 0x2FF5 JUMP JUMPDEST DUP2 MLOAD DUP2 LT PUSH2 0xC47 JUMPI PUSH2 0xC46 PUSH2 0x3029 JUMP JUMPDEST JUMPDEST PUSH1 0x20 MUL PUSH1 0x20 ADD ADD MLOAD PUSH2 0xC59 SWAP2 SWAP1 PUSH2 0x308C JUMP JUMPDEST DUP3 PUSH2 0xC64 SWAP2 SWAP1 PUSH2 0x3058 JUMP JUMPDEST SWAP2 POP DUP1 DUP1 PUSH2 0xC71 SWAP1 PUSH2 0x2CD9 JUMP JUMPDEST SWAP2 POP POP PUSH2 0xBA4 JUMP JUMPDEST POP PUSH2 0xCCC DUP2 PUSH1 0x5 PUSH1 0x0 CALLER PUSH20 0xFFFFFFFFFFFFFFFFFFFFFFFFFFFFFFFFFFFFFFFF AND PUSH20 0xFFFFFFFFFFFFFFFFFFFFFFFFFFFFFFFFFFFFFFFF AND DUP2 MSTORE PUSH1 0x20 ADD SWAP1 DUP2 MSTORE PUSH1 0x20 ADD PUSH1 0x0 KECCAK256 SLOAD PUSH2 0x1D6A SWAP1 SWAP2 SWAP1 PUSH4 0xFFFFFFFF AND JUMP JUMPDEST PUSH1 0x5 PUSH1 0x0 CALLER PUSH20 0xFFFFFFFFFFFFFFFFFFFFFFFFFFFFFFFFFFFFFFFF AND PUSH20 0xFFFFFFFFFFFFFFFFFFFFFFFFFFFFFFFFFFFFFFFF AND DUP2 MSTORE PUSH1 0x20 ADD SWAP1 DUP2 MSTORE PUSH1 0x20 ADD PUSH1 0x0 KECCAK256 DUP2 SWAP1 SSTORE POP PUSH1 0x40 MLOAD DUP1 PUSH1 0x40 ADD PUSH1 0x40 MSTORE DUP1 PUSH1 0x1 ISZERO ISZERO DUP2 MSTORE PUSH1 0x20 ADD DUP6 DUP2 MSTORE POP DUP3 PUSH1 0x5 ADD PUSH1 0x0 CALLER PUSH20 0xFFFFFFFFFFFFFFFFFFFFFFFFFFFFFFFFFFFFFFFF AND PUSH20 0xFFFFFFFFFFFFFFFFFFFFFFFFFFFFFFFFFFFFFFFF AND DUP2 MSTORE PUSH1 0x20 ADD SWAP1 DUP2 MSTORE PUSH1 0x20 ADD PUSH1 0x0 KECCAK256 PUSH1 0x0 DUP3 ADD MLOAD DUP2 PUSH1 0x0 ADD PUSH1 0x0 PUSH2 0x100 EXP DUP2 SLOAD DUP2 PUSH1 0xFF MUL NOT AND SWAP1 DUP4 ISZERO ISZERO MUL OR SWAP1 SSTORE POP PUSH1 0x20 DUP3 ADD MLOAD DUP2 PUSH1 0x1 ADD SWAP1 DUP1 MLOAD SWAP1 PUSH1 0x20 ADD SWAP1 PUSH2 0xDA4 SWAP3 SWAP2 SWAP1 PUSH2 0x221D JUMP JUMPDEST POP SWAP1 POP POP DUP2 PUSH1 0x2 ADD CALLER SWAP1 DUP1 PUSH1 0x1 DUP2 SLOAD ADD DUP1 DUP3 SSTORE DUP1 SWAP2 POP POP PUSH1 0x1 SWAP1 SUB SWAP1 PUSH1 0x0 MSTORE PUSH1 0x20 PUSH1 0x0 KECCAK256 ADD PUSH1 0x0 SWAP1 SWAP2 SWAP1 SWAP2 SWAP1 SWAP2 PUSH2 0x100 EXP DUP2 SLOAD DUP2 PUSH20 0xFFFFFFFFFFFFFFFFFFFFFFFFFFFFFFFFFFFFFFFF MUL NOT AND SWAP1 DUP4 PUSH20 0xFFFFFFFFFFFFFFFFFFFFFFFFFFFFFFFFFFFFFFFF AND MUL OR SWAP1 SSTORE POP PUSH32 0x73AB51DF610EDC81F5551EEB367D093666AC5BA1F45288102FF95F0DB861724A CALLER DUP7 DUP7 PUSH1 0x40 MLOAD PUSH2 0xE40 SWAP4 SWAP3 SWAP2 SWAP1 PUSH2 0x31A4 JUMP JUMPDEST PUSH1 0x40 MLOAD DUP1 SWAP2 SUB SWAP1 LOG1 POP POP POP POP POP JUMP JUMPDEST PUSH2 0xE57 PUSH2 0x1D80 JUMP JUMPDEST PUSH20 0xFFFFFFFFFFFFFFFFFFFFFFFFFFFFFFFFFFFFFFFF AND DUP2 PUSH20 0xFFFFFFFFFFFFFFFFFFFFFFFFFFFFFFFFFFFFFFFF AND EQ PUSH2 0xEC4 JUMPI PUSH1 0x40 MLOAD PUSH32 0x8C379A000000000000000000000000000000000000000000000000000000000 DUP2 MSTORE PUSH1 0x4 ADD PUSH2 0xEBB SWAP1 PUSH2 0x3254 JUMP JUMPDEST PUSH1 0x40 MLOAD DUP1 SWAP2 SUB SWAP1 REVERT JUMPDEST PUSH2 0xECE DUP3 DUP3 PUSH2 0x1D88 JUMP JUMPDEST POP POP JUMP JUMPDEST PUSH1 0x0 PUSH2 0xEDC PUSH2 0x1BF8 JUMP JUMPDEST PUSH1 0x0 DUP3 GT PUSH2 0xF1F JUMPI PUSH1 0x40 MLOAD PUSH32 0x8C379A000000000000000000000000000000000000000000000000000000000 DUP2 MSTORE PUSH1 0x4 ADD PUSH2 0xF16 SWAP1 PUSH2 0x32C0 JUMP JUMPDEST PUSH1 0x40 MLOAD DUP1 SWAP2 SUB SWAP1 REVERT JUMPDEST PUSH1 0x6 PUSH1 0x0 DUP2 SLOAD DUP1 SWAP3 SWAP2 SWAP1 PUSH2 0xF32 SWAP1 PUSH2 0x2CD9 JUMP JUMPDEST SWAP2 SWAP1 POP SSTORE POP PUSH1 0x0 PUSH1 0x7 PUSH1 0x0 PUSH1 0x6 SLOAD DUP2 MSTORE PUSH1 0x20 ADD SWAP1 DUP2 MSTORE PUSH1 0x20 ADD PUSH1 0x0 KECCAK256 SWAP1 POP CALLER DUP2 PUSH1 0x0 ADD PUSH1 0x0 PUSH2 0x100 EXP DUP2 SLOAD DUP2 PUSH20 0xFFFFFFFFFFFFFFFFFFFFFFFFFFFFFFFFFFFFFFFF MUL NOT AND SWAP1 DUP4 PUSH20 0xFFFFFFFFFFFFFFFFFFFFFFFFFFFFFFFFFFFFFFFF AND MUL OR SWAP1 SSTORE POP PUSH1 0x0 DUP2 PUSH1 0x0 ADD PUSH1 0x14 PUSH2 0x100 EXP DUP2 SLOAD DUP2 PUSH1 0xFF MUL NOT AND SWAP1 DUP4 PUSH1 0x2 DUP2 GT ISZERO PUSH2 0xFBB JUMPI PUSH2 0xFBA PUSH2 0x2928 JUMP JUMPDEST JUMPDEST MUL OR SWAP1 SSTORE POP PUSH1 0x1 DUP4 PUSH1 0x3C PUSH2 0xFCF SWAP2 SWAP1 PUSH2 0x308C JUMP JUMPDEST PUSH2 0xFD9 SWAP2 SWAP1 PUSH2 0x308C JUMP JUMPDEST TIMESTAMP PUSH2 0xFE4 SWAP2 SWAP1 PUSH2 0x3058 JUMP JUMPDEST DUP2 PUSH1 0x3 ADD DUP2 SWAP1 SSTORE POP DUP7 DUP7 DUP3 PUSH1 0x1 ADD SWAP2 DUP3 PUSH2 0xFFF SWAP3 SWAP2 SWAP1 PUSH2 0x3497 JUMP JUMPDEST POP DUP5 DUP5 SWAP1 POP DUP2 PUSH1 0x4 ADD DUP2 SWAP1 SSTORE POP PUSH1 0x0 JUMPDEST DUP6 DUP6 SWAP1 POP DUP2 LT ISZERO PUSH2 0x10EE JUMPI PUSH1 0x40 MLOAD DUP1 PUSH1 0x40 ADD PUSH1 0x40 MSTORE DUP1 DUP8 DUP8 DUP5 DUP2 DUP2 LT PUSH2 0x1038 JUMPI PUSH2 0x1037 PUSH2 0x3029 JUMP JUMPDEST JUMPDEST SWAP1 POP PUSH1 0x20 MUL DUP2 ADD SWAP1 PUSH2 0x104A SWAP2 SWAP1 PUSH2 0x3576 JUMP JUMPDEST DUP1 DUP1 PUSH1 0x1F ADD PUSH1 0x20 DUP1 SWAP2 DIV MUL PUSH1 0x20 ADD PUSH1 0x40 MLOAD SWAP1 DUP2 ADD PUSH1 0x40 MSTORE DUP1 SWAP4 SWAP3 SWAP2 SWAP1 DUP2 DUP2 MSTORE PUSH1 0x20 ADD DUP4 DUP4 DUP1 DUP3 DUP5 CALLDATACOPY PUSH1 0x0 DUP2 DUP5 ADD MSTORE PUSH1 0x1F NOT PUSH1 0x1F DUP3 ADD AND SWAP1 POP DUP1 DUP4 ADD SWAP3 POP POP POP POP POP POP POP DUP2 MSTORE PUSH1 0x20 ADD PUSH1 0x0 DUP2 MSTORE POP DUP3 PUSH1 0x6 ADD PUSH1 0x0 PUSH1 0x1 DUP5 PUSH2 0x10AA SWAP2 SWAP1 PUSH2 0x3058 JUMP JUMPDEST DUP2 MSTORE PUSH1 0x20 ADD SWAP1 DUP2 MSTORE PUSH1 0x20 ADD PUSH1 0x0 KECCAK256 PUSH1 0x0 DUP3 ADD MLOAD DUP2 PUSH1 0x0 ADD SWAP1 DUP2 PUSH2 0x10CD SWAP2 SWAP1 PUSH2 0x35D9 JUMP JUMPDEST POP PUSH1 0x20 DUP3 ADD MLOAD DUP2 PUSH1 0x1 ADD SSTORE SWAP1 POP POP DUP1 DUP1 PUSH2 0x10E6 SWAP1 PUSH2 0x2CD9 JUMP JUMPDEST SWAP2 POP POP PUSH2 0x100F JUMP JUMPDEST POP PUSH32 0x812B79DC980087562A07C042555F014502C51AAC180824C0546A12989F726B59 CALLER DUP9 DUP9 DUP9 DUP9 DUP9 PUSH1 0x40 MLOAD PUSH2 0x1128 SWAP7 SWAP6 SWAP5 SWAP4 SWAP3 SWAP2 SWAP1 PUSH2 0x3829 JUMP JUMPDEST PUSH1 0x40 MLOAD DUP1 SWAP2 SUB SWAP1 LOG1 PUSH1 0x6 SLOAD SWAP2 POP POP SWAP6 SWAP5 POP POP POP POP POP JUMP JUMPDEST PUSH1 0x0 DUP2 PUSH1 0x0 DUP2 GT DUP1 ISZERO PUSH2 0x1154 JUMPI POP PUSH1 0x6 SLOAD DUP2 GT ISZERO JUMPDEST PUSH2 0x1193 JUMPI PUSH1 0x40 MLOAD PUSH32 0x8C379A000000000000000000000000000000000000000000000000000000000 DUP2 MSTORE PUSH1 0x4 ADD PUSH2 0x118A SWAP1 PUSH2 0x2D6D JUMP JUMPDEST PUSH1 0x40 MLOAD DUP1 SWAP2 SUB SWAP1 REVERT JUMPDEST PUSH1 0x7 PUSH1 0x0 DUP5 DUP2 MSTORE PUSH1 0x20 ADD SWAP1 DUP2 MSTORE PUSH1 0x20 ADD PUSH1 0x0 KECCAK256 PUSH1 0x0 ADD PUSH1 0x14 SWAP1 SLOAD SWAP1 PUSH2 0x100 EXP SWAP1 DIV PUSH1 0xFF AND SWAP2 POP POP SWAP2 SWAP1 POP JUMP JUMPDEST PUSH2 0x11C7 PUSH2 0x1BF8 JUMP JUMPDEST PUSH1 0x0 PUSH20 0xFFFFFFFFFFFFFFFFFFFFFFFFFFFFFFFFFFFFFFFF AND DUP3 PUSH20 0xFFFFFFFFFFFFFFFFFFFFFFFFFFFFFFFFFFFFFFFF AND SUB PUSH2 0x1236 JUMPI PUSH1 0x40 MLOAD PUSH32 0x8C379A000000000000000000000000000000000000000000000000000000000 DUP2 MSTORE PUSH1 0x4 ADD PUSH2 0x122D SWAP1 PUSH2 0x38CC JUMP JUMPDEST PUSH1 0x40 MLOAD DUP1 SWAP2 SUB SWAP1 REVERT JUMPDEST PUSH2 0x124B DUP2 PUSH1 0x2 SLOAD PUSH2 0x1E6A SWAP1 SWAP2 SWAP1 PUSH4 0xFFFFFFFF AND JUMP JUMPDEST PUSH1 0x2 DUP2 SWAP1 SSTORE POP PUSH2 0x12A3 DUP2 PUSH1 0x5 PUSH1 0x0 DUP6 PUSH20 0xFFFFFFFFFFFFFFFFFFFFFFFFFFFFFFFFFFFFFFFF AND PUSH20 0xFFFFFFFFFFFFFFFFFFFFFFFFFFFFFFFFFFFFFFFF AND DUP2 MSTORE PUSH1 0x20 ADD SWAP1 DUP2 MSTORE PUSH1 0x20 ADD PUSH1 0x0 KECCAK256 SLOAD PUSH2 0x1E6A SWAP1 SWAP2 SWAP1 PUSH4 0xFFFFFFFF AND JUMP JUMPDEST PUSH1 0x5 PUSH1 0x0 DUP5 PUSH20 0xFFFFFFFFFFFFFFFFFFFFFFFFFFFFFFFFFFFFFFFF AND PUSH20 0xFFFFFFFFFFFFFFFFFFFFFFFFFFFFFFFFFFFFFFFF AND DUP2 MSTORE PUSH1 0x20 ADD SWAP1 DUP2 MSTORE PUSH1 0x20 ADD PUSH1 0x0 KECCAK256 DUP2 SWAP1 SSTORE POP POP POP JUMP JUMPDEST DUP1 PUSH1 0x0 DUP2 GT DUP1 ISZERO PUSH2 0x12FD JUMPI POP PUSH1 0x6 SLOAD DUP2 GT ISZERO JUMPDEST PUSH2 0x133C JUMPI PUSH1 0x40 MLOAD PUSH32 0x8C379A000000000000000000000000000000000000000000000000000000000 DUP2 MSTORE PUSH1 0x4 ADD PUSH2 0x1333 SWAP1 PUSH2 0x2D6D JUMP JUMPDEST PUSH1 0x40 MLOAD DUP1 SWAP2 SUB SWAP1 REVERT JUMPDEST PUSH2 0x1344 PUSH2 0x1BF8 JUMP JUMPDEST PUSH1 0x1 PUSH1 0x2 DUP2 GT ISZERO PUSH2 0x1358 JUMPI PUSH2 0x1357 PUSH2 0x2928 JUMP JUMPDEST JUMPDEST PUSH1 0x7 PUSH1 0x0 DUP5 DUP2 MSTORE PUSH1 0x20 ADD SWAP1 DUP2 MSTORE PUSH1 0x20 ADD PUSH1 0x0 KECCAK256 PUSH1 0x0 ADD PUSH1 0x14 SWAP1 SLOAD SWAP1 PUSH2 0x100 EXP SWAP1 DIV PUSH1 0xFF AND PUSH1 0x2 DUP2 GT ISZERO PUSH2 0x138E JUMPI PUSH2 0x138D PUSH2 0x2928 JUMP JUMPDEST JUMPDEST EQ PUSH2 0x13CE JUMPI PUSH1 0x40 MLOAD PUSH32 0x8C379A000000000000000000000000000000000000000000000000000000000 DUP2 MSTORE PUSH1 0x4 ADD PUSH2 0x13C5 SWAP1 PUSH2 0x3938 JUMP JUMPDEST PUSH1 0x40 MLOAD DUP1 SWAP2 SUB SWAP1 REVERT JUMPDEST PUSH2 0x13D7 DUP3 PUSH2 0x145C JUMP JUMPDEST TIMESTAMP LT ISZERO PUSH2 0x1419 JUMPI PUSH1 0x40 MLOAD PUSH32 0x8C379A000000000000000000000000000000000000000000000000000000000 DUP2 MSTORE PUSH1 0x4 ADD PUSH2 0x1410 SWAP1 PUSH2 0x2E45 JUMP JUMPDEST PUSH1 0x40 MLOAD DUP1 SWAP2 SUB SWAP1 REVERT JUMPDEST PUSH1 0x2 PUSH1 0x7 PUSH1 0x0 DUP5 DUP2 MSTORE PUSH1 0x20 ADD SWAP1 DUP2 MSTORE PUSH1 0x20 ADD PUSH1 0x0 KECCAK256 PUSH1 0x0 ADD PUSH1 0x14 PUSH2 0x100 EXP DUP2 SLOAD DUP2 PUSH1 0xFF MUL NOT AND SWAP1 DUP4 PUSH1 0x2 DUP2 GT ISZERO PUSH2 0x1453 JUMPI PUSH2 0x1452 PUSH2 0x2928 JUMP JUMPDEST JUMPDEST MUL OR SWAP1 SSTORE POP POP POP JUMP JUMPDEST PUSH1 0x0 DUP2 PUSH1 0x0 DUP2 GT DUP1 ISZERO PUSH2 0x1471 JUMPI POP PUSH1 0x6 SLOAD DUP2 GT ISZERO JUMPDEST PUSH2 0x14B0 JUMPI PUSH1 0x40 MLOAD PUSH32 0x8C379A000000000000000000000000000000000000000000000000000000000 DUP2 MSTORE PUSH1 0x4 ADD PUSH2 0x14A7 SWAP1 PUSH2 0x2D6D JUMP JUMPDEST PUSH1 0x40 MLOAD DUP1 SWAP2 SUB SWAP1 REVERT JUMPDEST PUSH1 0x7 PUSH1 0x0 DUP5 DUP2 MSTORE PUSH1 0x20 ADD SWAP1 DUP2 MSTORE PUSH1 0x20 ADD PUSH1 0x0 KECCAK256 PUSH1 0x3 ADD SLOAD SWAP2 POP POP SWAP2 SWAP1 POP JUMP JUMPDEST PUSH1 0x0 DUP3 PUSH1 0x0 DUP2 GT DUP1 ISZERO PUSH2 0x14E4 JUMPI POP PUSH1 0x6 SLOAD DUP2 GT ISZERO JUMPDEST PUSH2 0x1523 JUMPI PUSH1 0x40 MLOAD PUSH32 0x8C379A000000000000000000000000000000000000000000000000000000000 DUP2 MSTORE PUSH1 0x4 ADD PUSH2 0x151A SWAP1 PUSH2 0x2D6D JUMP JUMPDEST PUSH1 0x40 MLOAD DUP1 SWAP2 SUB SWAP1 REVERT JUMPDEST PUSH1 0x7 PUSH1 0x0 DUP6 DUP2 MSTORE PUSH1 0x20 ADD SWAP1 DUP2 MSTORE PUSH1 0x20 ADD PUSH1 0x0 KECCAK256 PUSH1 0x5 ADD PUSH1 0x0 DUP5 PUSH20 0xFFFFFFFFFFFFFFFFFFFFFFFFFFFFFFFFFFFFFFFF AND PUSH20 0xFFFFFFFFFFFFFFFFFFFFFFFFFFFFFFFFFFFFFFFF AND DUP2 MSTORE PUSH1 0x20 ADD SWAP1 DUP2 MSTORE PUSH1 0x20 ADD PUSH1 0x0 KECCAK256 PUSH1 0x0 ADD PUSH1 0x0 SWAP1 SLOAD SWAP1 PUSH2 0x100 EXP SWAP1 DIV PUSH1 0xFF AND SWAP2 POP POP SWAP3 SWAP2 POP POP JUMP JUMPDEST PUSH1 0x0 PUSH1 0x5 PUSH1 0x0 DUP4 PUSH20 0xFFFFFFFFFFFFFFFFFFFFFFFFFFFFFFFFFFFFFFFF AND PUSH20 0xFFFFFFFFFFFFFFFFFFFFFFFFFFFFFFFFFFFFFFFF AND DUP2 MSTORE PUSH1 0x20 ADD SWAP1 DUP2 MSTORE PUSH1 0x20 ADD PUSH1 0x0 KECCAK256 SLOAD SWAP1 POP SWAP2 SWAP1 POP JUMP JUMPDEST PUSH2 0x15E1 PUSH2 0x1BF8 JUMP JUMPDEST PUSH2 0x15EB PUSH1 0x0 PUSH2 0x1E80 JUMP JUMPDEST JUMP JUMPDEST PUSH1 0x0 DUP1 PUSH1 0x0 SWAP1 SLOAD SWAP1 PUSH2 0x100 EXP SWAP1 DIV PUSH20 0xFFFFFFFFFFFFFFFFFFFFFFFFFFFFFFFFFFFFFFFF AND SWAP1 POP SWAP1 JUMP JUMPDEST PUSH1 0x0 PUSH1 0x1 PUSH1 0x0 DUP5 DUP2 MSTORE PUSH1 0x20 ADD SWAP1 DUP2 MSTORE PUSH1 0x20 ADD PUSH1 0x0 KECCAK256 PUSH1 0x0 ADD PUSH1 0x0 DUP4 PUSH20 0xFFFFFFFFFFFFFFFFFFFFFFFFFFFFFFFFFFFFFFFF AND PUSH20 0xFFFFFFFFFFFFFFFFFFFFFFFFFFFFFFFFFFFFFFFF AND DUP2 MSTORE PUSH1 0x20 ADD SWAP1 DUP2 MSTORE PUSH1 0x20 ADD PUSH1 0x0 KECCAK256 PUSH1 0x0 SWAP1 SLOAD SWAP1 PUSH2 0x100 EXP SWAP1 DIV PUSH1 0xFF AND SWAP1 POP SWAP3 SWAP2 POP POP JUMP JUMPDEST PUSH1 0x3 DUP1 SLOAD PUSH2 0x168E SWAP1 PUSH2 0x2C79 JUMP JUMPDEST DUP1 PUSH1 0x1F ADD PUSH1 0x20 DUP1 SWAP2 DIV MUL PUSH1 0x20 ADD PUSH1 0x40 MLOAD SWAP1 DUP2 ADD PUSH1 0x40 MSTORE DUP1 SWAP3 SWAP2 SWAP1 DUP2 DUP2 MSTORE PUSH1 0x20 ADD DUP3 DUP1 SLOAD PUSH2 0x16BA SWAP1 PUSH2 0x2C79 JUMP JUMPDEST DUP1 ISZERO PUSH2 0x1707 JUMPI DUP1 PUSH1 0x1F LT PUSH2 0x16DC JUMPI PUSH2 0x100 DUP1 DUP4 SLOAD DIV MUL DUP4 MSTORE SWAP2 PUSH1 0x20 ADD SWAP2 PUSH2 0x1707 JUMP JUMPDEST DUP3 ADD SWAP2 SWAP1 PUSH1 0x0 MSTORE PUSH1 0x20 PUSH1 0x0 KECCAK256 SWAP1 JUMPDEST DUP2 SLOAD DUP2 MSTORE SWAP1 PUSH1 0x1 ADD SWAP1 PUSH1 0x20 ADD DUP1 DUP4 GT PUSH2 0x16EA JUMPI DUP3 SWAP1 SUB PUSH1 0x1F AND DUP3 ADD SWAP2 JUMPDEST POP POP POP POP POP DUP2 JUMP JUMPDEST PUSH1 0x0 DUP1 SHL DUP2 JUMP JUMPDEST PUSH1 0x0 PUSH1 0x8 PUSH1 0x0 SWAP1 SLOAD SWAP1 PUSH2 0x100 EXP SWAP1 DIV PUSH20 0xFFFFFFFFFFFFFFFFFFFFFFFFFFFFFFFFFFFFFFFF AND PUSH20 0xFFFFFFFFFFFFFFFFFFFFFFFFFFFFFFFFFFFFFFFF AND CALLER PUSH20 0xFFFFFFFFFFFFFFFFFFFFFFFFFFFFFFFFFFFFFFFF AND SUB PUSH2 0x1776 JUMPI PUSH1 0x1 SWAP1 POP PUSH2 0x177B JUMP JUMPDEST PUSH1 0x0 SWAP1 POP JUMPDEST SWAP1 JUMP JUMPDEST PUSH1 0x60 DUP1 PUSH1 0x0 DUP1 PUSH1 0x0 PUSH1 0x7 PUSH1 0x0 DUP8 DUP2 MSTORE PUSH1 0x20 ADD SWAP1 DUP2 MSTORE PUSH1 0x20 ADD PUSH1 0x0 KECCAK256 PUSH1 0x4 ADD SLOAD PUSH8 0xFFFFFFFFFFFFFFFF DUP2 GT ISZERO PUSH2 0x17B6 JUMPI PUSH2 0x17B5 PUSH2 0x2643 JUMP JUMPDEST JUMPDEST PUSH1 0x40 MLOAD SWAP1 DUP1 DUP3 MSTORE DUP1 PUSH1 0x20 MUL PUSH1 0x20 ADD DUP3 ADD PUSH1 0x40 MSTORE DUP1 ISZERO PUSH2 0x17E9 JUMPI DUP2 PUSH1 0x20 ADD JUMPDEST PUSH1 0x60 DUP2 MSTORE PUSH1 0x20 ADD SWAP1 PUSH1 0x1 SWAP1 SUB SWAP1 DUP2 PUSH2 0x17D4 JUMPI SWAP1 POP JUMPDEST POP SWAP1 POP PUSH1 0x0 PUSH1 0x1 SWAP1 POP JUMPDEST PUSH1 0x7 PUSH1 0x0 DUP9 DUP2 MSTORE PUSH1 0x20 ADD SWAP1 DUP2 MSTORE PUSH1 0x20 ADD PUSH1 0x0 KECCAK256 PUSH1 0x4 ADD SLOAD DUP2 GT PUSH2 0x1900 JUMPI PUSH1 0x7 PUSH1 0x0 DUP9 DUP2 MSTORE PUSH1 0x20 ADD SWAP1 DUP2 MSTORE PUSH1 0x20 ADD PUSH1 0x0 KECCAK256 PUSH1 0x6 ADD PUSH1 0x0 DUP3 DUP2 MSTORE PUSH1 0x20 ADD SWAP1 DUP2 MSTORE PUSH1 0x20 ADD PUSH1 0x0 KECCAK256 PUSH1 0x0 ADD DUP1 SLOAD PUSH2 0x1845 SWAP1 PUSH2 0x2C79 JUMP JUMPDEST DUP1 PUSH1 0x1F ADD PUSH1 0x20 DUP1 SWAP2 DIV MUL PUSH1 0x20 ADD PUSH1 0x40 MLOAD SWAP1 DUP2 ADD PUSH1 0x40 MSTORE DUP1 SWAP3 SWAP2 SWAP1 DUP2 DUP2 MSTORE PUSH1 0x20 ADD DUP3 DUP1 SLOAD PUSH2 0x1871 SWAP1 PUSH2 0x2C79 JUMP JUMPDEST DUP1 ISZERO PUSH2 0x18BE JUMPI DUP1 PUSH1 0x1F LT PUSH2 0x1893 JUMPI PUSH2 0x100 DUP1 DUP4 SLOAD DIV MUL DUP4 MSTORE SWAP2 PUSH1 0x20 ADD SWAP2 PUSH2 0x18BE JUMP JUMPDEST DUP3 ADD SWAP2 SWAP1 PUSH1 0x0 MSTORE PUSH1 0x20 PUSH1 0x0 KECCAK256 SWAP1 JUMPDEST DUP2 SLOAD DUP2 MSTORE SWAP1 PUSH1 0x1 ADD SWAP1 PUSH1 0x20 ADD DUP1 DUP4 GT PUSH2 0x18A1 JUMPI DUP3 SWAP1 SUB PUSH1 0x1F AND DUP3 ADD SWAP2 JUMPDEST POP POP POP POP POP DUP3 PUSH1 0x1 DUP4 PUSH2 0x18D1 SWAP2 SWAP1 PUSH2 0x2FF5 JUMP JUMPDEST DUP2 MLOAD DUP2 LT PUSH2 0x18E2 JUMPI PUSH2 0x18E1 PUSH2 0x3029 JUMP JUMPDEST JUMPDEST PUSH1 0x20 MUL PUSH1 0x20 ADD ADD DUP2 SWAP1 MSTORE POP DUP1 DUP1 PUSH2 0x18F8 SWAP1 PUSH2 0x2CD9 JUMP JUMPDEST SWAP2 POP POP PUSH2 0x17F3 JUMP JUMPDEST POP PUSH1 0x7 PUSH1 0x0 DUP8 DUP2 MSTORE PUSH1 0x20 ADD SWAP1 DUP2 MSTORE PUSH1 0x20 ADD PUSH1 0x0 KECCAK256 PUSH1 0x1 ADD DUP2 PUSH1 0x7 PUSH1 0x0 DUP10 DUP2 MSTORE PUSH1 0x20 ADD SWAP1 DUP2 MSTORE PUSH1 0x20 ADD PUSH1 0x0 KECCAK256 PUSH1 0x3 ADD SLOAD PUSH1 0x7 PUSH1 0x0 DUP11 DUP2 MSTORE PUSH1 0x20 ADD SWAP1 DUP2 MSTORE PUSH1 0x20 ADD PUSH1 0x0 KECCAK256 PUSH1 0x0 ADD PUSH1 0x14 SWAP1 SLOAD SWAP1 PUSH2 0x100 EXP SWAP1 DIV PUSH1 0xFF AND DUP4 DUP1 SLOAD PUSH2 0x195F SWAP1 PUSH2 0x2C79 JUMP JUMPDEST DUP1 PUSH1 0x1F ADD PUSH1 0x20 DUP1 SWAP2 DIV MUL PUSH1 0x20 ADD PUSH1 0x40 MLOAD SWAP1 DUP2 ADD PUSH1 0x40 MSTORE DUP1 SWAP3 SWAP2 SWAP1 DUP2 DUP2 MSTORE PUSH1 0x20 ADD DUP3 DUP1 SLOAD PUSH2 0x198B SWAP1 PUSH2 0x2C79 JUMP JUMPDEST DUP1 ISZERO PUSH2 0x19D8 JUMPI DUP1 PUSH1 0x1F LT PUSH2 0x19AD JUMPI PUSH2 0x100 DUP1 DUP4 SLOAD DIV MUL DUP4 MSTORE SWAP2 PUSH1 0x20 ADD SWAP2 PUSH2 0x19D8 JUMP JUMPDEST DUP3 ADD SWAP2 SWAP1 PUSH1 0x0 MSTORE PUSH1 0x20 PUSH1 0x0 KECCAK256 SWAP1 JUMPDEST DUP2 SLOAD DUP2 MSTORE SWAP1 PUSH1 0x1 ADD SWAP1 PUSH1 0x20 ADD DUP1 DUP4 GT PUSH2 0x19BB JUMPI DUP3 SWAP1 SUB PUSH1 0x1F AND DUP3 ADD SWAP2 JUMPDEST POP POP POP POP POP SWAP4 POP SWAP5 POP SWAP5 POP SWAP5 POP SWAP5 POP POP SWAP2 SWAP4 POP SWAP2 SWAP4 JUMP JUMPDEST PUSH1 0x6 SLOAD DUP2 JUMP JUMPDEST PUSH1 0x0 PUSH1 0x6 SLOAD SWAP1 POP SWAP1 JUMP JUMPDEST PUSH1 0x7 PUSH1 0x20 MSTORE DUP1 PUSH1 0x0 MSTORE PUSH1 0x40 PUSH1 0x0 KECCAK256 PUSH1 0x0 SWAP2 POP SWAP1 POP DUP1 PUSH1 0x0 ADD PUSH1 0x0 SWAP1 SLOAD SWAP1 PUSH2 0x100 EXP SWAP1 DIV PUSH20 0xFFFFFFFFFFFFFFFFFFFFFFFFFFFFFFFFFFFFFFFF AND SWAP1 DUP1 PUSH1 0x0 ADD PUSH1 0x14 SWAP1 SLOAD SWAP1 PUSH2 0x100 EXP SWAP1 DIV PUSH1 0xFF AND SWAP1 DUP1 PUSH1 0x1 ADD DUP1 SLOAD PUSH2 0x1A5B SWAP1 PUSH2 0x2C79 JUMP JUMPDEST DUP1 PUSH1 0x1F ADD PUSH1 0x20 DUP1 SWAP2 DIV MUL PUSH1 0x20 ADD PUSH1 0x40 MLOAD SWAP1 DUP2 ADD PUSH1 0x40 MSTORE DUP1 SWAP3 SWAP2 SWAP1 DUP2 DUP2 MSTORE PUSH1 0x20 ADD DUP3 DUP1 SLOAD PUSH2 0x1A87 SWAP1 PUSH2 0x2C79 JUMP JUMPDEST DUP1 ISZERO PUSH2 0x1AD4 JUMPI DUP1 PUSH1 0x1F LT PUSH2 0x1AA9 JUMPI PUSH2 0x100 DUP1 DUP4 SLOAD DIV MUL DUP4 MSTORE SWAP2 PUSH1 0x20 ADD SWAP2 PUSH2 0x1AD4 JUMP JUMPDEST DUP3 ADD SWAP2 SWAP1 PUSH1 0x0 MSTORE PUSH1 0x20 PUSH1 0x0 KECCAK256 SWAP1 JUMPDEST DUP2 SLOAD DUP2 MSTORE SWAP1 PUSH1 0x1 ADD SWAP1 PUSH1 0x20 ADD DUP1 DUP4 GT PUSH2 0x1AB7 JUMPI DUP3 SWAP1 SUB PUSH1 0x1F AND DUP3 ADD SWAP2 JUMPDEST POP POP POP POP POP SWAP1 DUP1 PUSH1 0x3 ADD SLOAD SWAP1 DUP1 PUSH1 0x4 ADD SLOAD SWAP1 POP DUP6 JUMP JUMPDEST PUSH2 0x1AF3 DUP3 PUSH2 0x87D JUMP JUMPDEST PUSH2 0x1AFC DUP2 PUSH2 0x1C76 JUMP JUMPDEST PUSH2 0x1B06 DUP4 DUP4 PUSH2 0x1D88 JUMP JUMPDEST POP POP POP JUMP JUMPDEST PUSH2 0x1B13 PUSH2 0x1BF8 JUMP JUMPDEST PUSH1 0x0 PUSH20 0xFFFFFFFFFFFFFFFFFFFFFFFFFFFFFFFFFFFFFFFF AND DUP2 PUSH20 0xFFFFFFFFFFFFFFFFFFFFFFFFFFFFFFFFFFFFFFFF AND SUB PUSH2 0x1B82 JUMPI PUSH1 0x40 MLOAD PUSH32 0x8C379A000000000000000000000000000000000000000000000000000000000 DUP2 MSTORE PUSH1 0x4 ADD PUSH2 0x1B79 SWAP1 PUSH2 0x39CA JUMP JUMPDEST PUSH1 0x40 MLOAD DUP1 SWAP2 SUB SWAP1 REVERT JUMPDEST PUSH2 0x1B8B DUP2 PUSH2 0x1E80 JUMP JUMPDEST POP JUMP JUMPDEST PUSH1 0x0 PUSH32 0x1FFC9A700000000000000000000000000000000000000000000000000000000 PUSH28 0xFFFFFFFFFFFFFFFFFFFFFFFFFFFFFFFFFFFFFFFFFFFFFFFFFFFFFFFF NOT AND DUP3 PUSH28 0xFFFFFFFFFFFFFFFFFFFFFFFFFFFFFFFFFFFFFFFFFFFFFFFFFFFFFFFF NOT AND EQ SWAP1 POP SWAP2 SWAP1 POP JUMP JUMPDEST PUSH2 0x1C00 PUSH2 0x1D80 JUMP JUMPDEST PUSH20 0xFFFFFFFFFFFFFFFFFFFFFFFFFFFFFFFFFFFFFFFF AND PUSH2 0x1C1E PUSH2 0x15ED JUMP JUMPDEST PUSH20 0xFFFFFFFFFFFFFFFFFFFFFFFFFFFFFFFFFFFFFFFF AND EQ PUSH2 0x1C74 JUMPI PUSH1 0x40 MLOAD PUSH32 0x8C379A000000000000000000000000000000000000000000000000000000000 DUP2 MSTORE PUSH1 0x4 ADD PUSH2 0x1C6B SWAP1 PUSH2 0x3A36 JUMP JUMPDEST PUSH1 0x40 MLOAD DUP1 SWAP2 SUB SWAP1 REVERT JUMPDEST JUMP JUMPDEST PUSH2 0x1C87 DUP2 PUSH2 0x1C82 PUSH2 0x1D80 JUMP JUMPDEST PUSH2 0x1F44 JUMP JUMPDEST POP JUMP JUMPDEST PUSH2 0x1C94 DUP3 DUP3 PUSH2 0x1616 JUMP JUMPDEST PUSH2 0x1D66 JUMPI PUSH1 0x1 DUP1 PUSH1 0x0 DUP5 DUP2 MSTORE PUSH1 0x20 ADD SWAP1 DUP2 MSTORE PUSH1 0x20 ADD PUSH1 0x0 KECCAK256 PUSH1 0x0 ADD PUSH1 0x0 DUP4 PUSH20 0xFFFFFFFFFFFFFFFFFFFFFFFFFFFFFFFFFFFFFFFF AND PUSH20 0xFFFFFFFFFFFFFFFFFFFFFFFFFFFFFFFFFFFFFFFF AND DUP2 MSTORE PUSH1 0x20 ADD SWAP1 DUP2 MSTORE PUSH1 0x20 ADD PUSH1 0x0 KECCAK256 PUSH1 0x0 PUSH2 0x100 EXP DUP2 SLOAD DUP2 PUSH1 0xFF MUL NOT AND SWAP1 DUP4 ISZERO ISZERO MUL OR SWAP1 SSTORE POP PUSH2 0x1D0B PUSH2 0x1D80 JUMP JUMPDEST PUSH20 0xFFFFFFFFFFFFFFFFFFFFFFFFFFFFFFFFFFFFFFFF AND DUP2 PUSH20 0xFFFFFFFFFFFFFFFFFFFFFFFFFFFFFFFFFFFFFFFF AND DUP4 PUSH32 0x2F8788117E7EFF1D82E926EC794901D17C78024A50270940304540A733656F0D PUSH1 0x40 MLOAD PUSH1 0x40 MLOAD DUP1 SWAP2 SUB SWAP1 LOG4 JUMPDEST POP POP JUMP JUMPDEST PUSH1 0x0 DUP2 DUP4 PUSH2 0x1D78 SWAP2 SWAP1 PUSH2 0x2FF5 JUMP JUMPDEST SWAP1 POP SWAP3 SWAP2 POP POP JUMP JUMPDEST PUSH1 0x0 CALLER SWAP1 POP SWAP1 JUMP JUMPDEST PUSH2 0x1D92 DUP3 DUP3 PUSH2 0x1616 JUMP JUMPDEST ISZERO PUSH2 0x1E66 JUMPI PUSH1 0x0 PUSH1 0x1 PUSH1 0x0 DUP5 DUP2 MSTORE PUSH1 0x20 ADD SWAP1 DUP2 MSTORE PUSH1 0x20 ADD PUSH1 0x0 KECCAK256 PUSH1 0x0 ADD PUSH1 0x0 DUP4 PUSH20 0xFFFFFFFFFFFFFFFFFFFFFFFFFFFFFFFFFFFFFFFF AND PUSH20 0xFFFFFFFFFFFFFFFFFFFFFFFFFFFFFFFFFFFFFFFF AND DUP2 MSTORE PUSH1 0x20 ADD SWAP1 DUP2 MSTORE PUSH1 0x20 ADD PUSH1 0x0 KECCAK256 PUSH1 0x0 PUSH2 0x100 EXP DUP2 SLOAD DUP2 PUSH1 0xFF MUL NOT AND SWAP1 DUP4 ISZERO ISZERO MUL OR SWAP1 SSTORE POP PUSH2 0x1E0B PUSH2 0x1D80 JUMP JUMPDEST PUSH20 0xFFFFFFFFFFFFFFFFFFFFFFFFFFFFFFFFFFFFFFFF AND DUP2 PUSH20 0xFFFFFFFFFFFFFFFFFFFFFFFFFFFFFFFFFFFFFFFF AND DUP4 PUSH32 0xF6391F5C32D9C69D2A47EA670B442974B53935D1EDC7FD64EB21E047A839171B PUSH1 0x40 MLOAD PUSH1 0x40 MLOAD DUP1 SWAP2 SUB SWAP1 LOG4 JUMPDEST POP POP JUMP JUMPDEST PUSH1 0x0 DUP2 DUP4 PUSH2 0x1E78 SWAP2 SWAP1 PUSH2 0x3058 JUMP JUMPDEST SWAP1 POP SWAP3 SWAP2 POP POP JUMP JUMPDEST PUSH1 0x0 DUP1 PUSH1 0x0 SWAP1 SLOAD SWAP1 PUSH2 0x100 EXP SWAP1 DIV PUSH20 0xFFFFFFFFFFFFFFFFFFFFFFFFFFFFFFFFFFFFFFFF AND SWAP1 POP DUP2 PUSH1 0x0 DUP1 PUSH2 0x100 EXP DUP2 SLOAD DUP2 PUSH20 0xFFFFFFFFFFFFFFFFFFFFFFFFFFFFFFFFFFFFFFFF MUL NOT AND SWAP1 DUP4 PUSH20 0xFFFFFFFFFFFFFFFFFFFFFFFFFFFFFFFFFFFFFFFF AND MUL OR SWAP1 SSTORE POP DUP2 PUSH20 0xFFFFFFFFFFFFFFFFFFFFFFFFFFFFFFFFFFFFFFFF AND DUP2 PUSH20 0xFFFFFFFFFFFFFFFFFFFFFFFFFFFFFFFFFFFFFFFF AND PUSH32 0x8BE0079C531659141344CD1FD0A4F28419497F9722A3DAAFE3B4186F6B6457E0 PUSH1 0x40 MLOAD PUSH1 0x40 MLOAD DUP1 SWAP2 SUB SWAP1 LOG3 POP POP JUMP JUMPDEST PUSH2 0x1F4E DUP3 DUP3 PUSH2 0x1616 JUMP JUMPDEST PUSH2 0x1FDD JUMPI PUSH2 0x1F73 DUP2 PUSH20 0xFFFFFFFFFFFFFFFFFFFFFFFFFFFFFFFFFFFFFFFF AND PUSH1 0x14 PUSH2 0x1FE1 JUMP JUMPDEST PUSH2 0x1F81 DUP4 PUSH1 0x0 SHR PUSH1 0x20 PUSH2 0x1FE1 JUMP JUMPDEST PUSH1 0x40 MLOAD PUSH1 0x20 ADD PUSH2 0x1F92 SWAP3 SWAP2 SWAP1 PUSH2 0x3B2A JUMP JUMPDEST PUSH1 0x40 MLOAD PUSH1 0x20 DUP2 DUP4 SUB SUB DUP2 MSTORE SWAP1 PUSH1 0x40 MSTORE PUSH1 0x40 MLOAD PUSH32 0x8C379A000000000000000000000000000000000000000000000000000000000 DUP2 MSTORE PUSH1 0x4 ADD PUSH2 0x1FD4 SWAP2 SWAP1 PUSH2 0x23E6 JUMP JUMPDEST PUSH1 0x40 MLOAD DUP1 SWAP2 SUB SWAP1 REVERT JUMPDEST POP POP JUMP JUMPDEST PUSH1 0x60 PUSH1 0x0 PUSH1 0x2 DUP4 PUSH1 0x2 PUSH2 0x1FF4 SWAP2 SWAP1 PUSH2 0x308C JUMP JUMPDEST PUSH2 0x1FFE SWAP2 SWAP1 PUSH2 0x3058 JUMP JUMPDEST PUSH8 0xFFFFFFFFFFFFFFFF DUP2 GT ISZERO PUSH2 0x2017 JUMPI PUSH2 0x2016 PUSH2 0x2643 JUMP JUMPDEST JUMPDEST PUSH1 0x40 MLOAD SWAP1 DUP1 DUP3 MSTORE DUP1 PUSH1 0x1F ADD PUSH1 0x1F NOT AND PUSH1 0x20 ADD DUP3 ADD PUSH1 0x40 MSTORE DUP1 ISZERO PUSH2 0x2049 JUMPI DUP2 PUSH1 0x20 ADD PUSH1 0x1 DUP3 MUL DUP1 CALLDATASIZE DUP4 CALLDATACOPY DUP1 DUP3 ADD SWAP2 POP POP SWAP1 POP JUMPDEST POP SWAP1 POP PUSH32 0x3000000000000000000000000000000000000000000000000000000000000000 DUP2 PUSH1 0x0 DUP2 MLOAD DUP2 LT PUSH2 0x2081 JUMPI PUSH2 0x2080 PUSH2 0x3029 JUMP JUMPDEST JUMPDEST PUSH1 0x20 ADD ADD SWAP1 PUSH31 0xFFFFFFFFFFFFFFFFFFFFFFFFFFFFFFFFFFFFFFFFFFFFFFFFFFFFFFFFFFFFFF NOT AND SWAP1 DUP2 PUSH1 0x0 BYTE SWAP1 MSTORE8 POP PUSH32 0x7800000000000000000000000000000000000000000000000000000000000000 DUP2 PUSH1 0x1 DUP2 MLOAD DUP2 LT PUSH2 0x20E5 JUMPI PUSH2 0x20E4 PUSH2 0x3029 JUMP JUMPDEST JUMPDEST PUSH1 0x20 ADD ADD SWAP1 PUSH31 0xFFFFFFFFFFFFFFFFFFFFFFFFFFFFFFFFFFFFFFFFFFFFFFFFFFFFFFFFFFFFFF NOT AND SWAP1 DUP2 PUSH1 0x0 BYTE SWAP1 MSTORE8 POP PUSH1 0x0 PUSH1 0x1 DUP5 PUSH1 0x2 PUSH2 0x2125 SWAP2 SWAP1 PUSH2 0x308C JUMP JUMPDEST PUSH2 0x212F SWAP2 SWAP1 PUSH2 0x3058 JUMP JUMPDEST SWAP1 POP JUMPDEST PUSH1 0x1 DUP2 GT ISZERO PUSH2 0x21CF JUMPI PUSH32 0x3031323334353637383961626364656600000000000000000000000000000000 PUSH1 0xF DUP7 AND PUSH1 0x10 DUP2 LT PUSH2 0x2171 JUMPI PUSH2 0x2170 PUSH2 0x3029 JUMP JUMPDEST JUMPDEST BYTE PUSH1 0xF8 SHL DUP3 DUP3 DUP2 MLOAD DUP2 LT PUSH2 0x2188 JUMPI PUSH2 0x2187 PUSH2 0x3029 JUMP JUMPDEST JUMPDEST PUSH1 0x20 ADD ADD SWAP1 PUSH31 0xFFFFFFFFFFFFFFFFFFFFFFFFFFFFFFFFFFFFFFFFFFFFFFFFFFFFFFFFFFFFFF NOT AND SWAP1 DUP2 PUSH1 0x0 BYTE SWAP1 MSTORE8 POP PUSH1 0x4 DUP6 SWAP1 SHR SWAP5 POP DUP1 PUSH2 0x21C8 SWAP1 PUSH2 0x3B64 JUMP JUMPDEST SWAP1 POP PUSH2 0x2132 JUMP JUMPDEST POP PUSH1 0x0 DUP5 EQ PUSH2 0x2213 JUMPI PUSH1 0x40 MLOAD PUSH32 0x8C379A000000000000000000000000000000000000000000000000000000000 DUP2 MSTORE PUSH1 0x4 ADD PUSH2 0x220A SWAP1 PUSH2 0x3BD9 JUMP JUMPDEST PUSH1 0x40 MLOAD DUP1 SWAP2 SUB SWAP1 REVERT JUMPDEST DUP1 SWAP2 POP POP SWAP3 SWAP2 POP POP JUMP JUMPDEST DUP3 DUP1 SLOAD DUP3 DUP3 SSTORE SWAP1 PUSH1 0x0 MSTORE PUSH1 0x20 PUSH1 0x0 KECCAK256 SWAP1 DUP2 ADD SWAP3 DUP3 ISZERO PUSH2 0x2259 JUMPI SWAP2 PUSH1 0x20 MUL DUP3 ADD JUMPDEST DUP3 DUP2 GT ISZERO PUSH2 0x2258 JUMPI DUP3 MLOAD DUP3 SSTORE SWAP2 PUSH1 0x20 ADD SWAP2 SWAP1 PUSH1 0x1 ADD SWAP1 PUSH2 0x223D JUMP JUMPDEST JUMPDEST POP SWAP1 POP PUSH2 0x2266 SWAP2 SWAP1 PUSH2 0x226A JUMP JUMPDEST POP SWAP1 JUMP JUMPDEST JUMPDEST DUP1 DUP3 GT ISZERO PUSH2 0x2283 JUMPI PUSH1 0x0 DUP2 PUSH1 0x0 SWAP1 SSTORE POP PUSH1 0x1 ADD PUSH2 0x226B JUMP JUMPDEST POP SWAP1 JUMP JUMPDEST PUSH1 0x0 PUSH1 0x40 MLOAD SWAP1 POP SWAP1 JUMP JUMPDEST PUSH1 0x0 DUP1 REVERT JUMPDEST PUSH1 0x0 DUP1 REVERT JUMPDEST PUSH1 0x0 PUSH32 0xFFFFFFFF00000000000000000000000000000000000000000000000000000000 DUP3 AND SWAP1 POP SWAP2 SWAP1 POP JUMP JUMPDEST PUSH2 0x22D0 DUP2 PUSH2 0x229B JUMP JUMPDEST DUP2 EQ PUSH2 0x22DB JUMPI PUSH1 0x0 DUP1 REVERT JUMPDEST POP JUMP JUMPDEST PUSH1 0x0 DUP2 CALLDATALOAD SWAP1 POP PUSH2 0x22ED DUP2 PUSH2 0x22C7 JUMP JUMPDEST SWAP3 SWAP2 POP POP JUMP JUMPDEST PUSH1 0x0 PUSH1 0x20 DUP3 DUP5 SUB SLT ISZERO PUSH2 0x2309 JUMPI PUSH2 0x2308 PUSH2 0x2291 JUMP JUMPDEST JUMPDEST PUSH1 0x0 PUSH2 0x2317 DUP5 DUP3 DUP6 ADD PUSH2 0x22DE JUMP JUMPDEST SWAP2 POP POP SWAP3 SWAP2 POP POP JUMP JUMPDEST PUSH1 0x0 DUP2 ISZERO ISZERO SWAP1 POP SWAP2 SWAP1 POP JUMP JUMPDEST PUSH2 0x2335 DUP2 PUSH2 0x2320 JUMP JUMPDEST DUP3 MSTORE POP POP JUMP JUMPDEST PUSH1 0x0 PUSH1 0x20 DUP3 ADD SWAP1 POP PUSH2 0x2350 PUSH1 0x0 DUP4 ADD DUP5 PUSH2 0x232C JUMP JUMPDEST SWAP3 SWAP2 POP POP JUMP JUMPDEST PUSH1 0x0 DUP2 MLOAD SWAP1 POP SWAP2 SWAP1 POP JUMP JUMPDEST PUSH1 0x0 DUP3 DUP3 MSTORE PUSH1 0x20 DUP3 ADD SWAP1 POP SWAP3 SWAP2 POP POP JUMP JUMPDEST PUSH1 0x0 JUMPDEST DUP4 DUP2 LT ISZERO PUSH2 0x2390 JUMPI DUP1 DUP3 ADD MLOAD DUP2 DUP5 ADD MSTORE PUSH1 0x20 DUP2 ADD SWAP1 POP PUSH2 0x2375 JUMP JUMPDEST PUSH1 0x0 DUP5 DUP5 ADD MSTORE POP POP POP POP JUMP JUMPDEST PUSH1 0x0 PUSH1 0x1F NOT PUSH1 0x1F DUP4 ADD AND SWAP1 POP SWAP2 SWAP1 POP JUMP JUMPDEST PUSH1 0x0 PUSH2 0x23B8 DUP3 PUSH2 0x2356 JUMP JUMPDEST PUSH2 0x23C2 DUP2 DUP6 PUSH2 0x2361 JUMP JUMPDEST SWAP4 POP PUSH2 0x23D2 DUP2 DUP6 PUSH1 0x20 DUP7 ADD PUSH2 0x2372 JUMP JUMPDEST PUSH2 0x23DB DUP2 PUSH2 0x239C JUMP JUMPDEST DUP5 ADD SWAP2 POP POP SWAP3 SWAP2 POP POP JUMP JUMPDEST PUSH1 0x0 PUSH1 0x20 DUP3 ADD SWAP1 POP DUP2 DUP2 SUB PUSH1 0x0 DUP4 ADD MSTORE PUSH2 0x2400 DUP2 DUP5 PUSH2 0x23AD JUMP JUMPDEST SWAP1 POP SWAP3 SWAP2 POP POP JUMP JUMPDEST PUSH1 0x0 DUP2 SWAP1 POP SWAP2 SWAP1 POP JUMP JUMPDEST PUSH2 0x241B DUP2 PUSH2 0x2408 JUMP JUMPDEST DUP2 EQ PUSH2 0x2426 JUMPI PUSH1 0x0 DUP1 REVERT JUMPDEST POP JUMP JUMPDEST PUSH1 0x0 DUP2 CALLDATALOAD SWAP1 POP PUSH2 0x2438 DUP2 PUSH2 0x2412 JUMP JUMPDEST SWAP3 SWAP2 POP POP JUMP JUMPDEST PUSH1 0x0 DUP1 PUSH1 0x40 DUP4 DUP6 SUB SLT ISZERO PUSH2 0x2455 JUMPI PUSH2 0x2454 PUSH2 0x2291 JUMP JUMPDEST JUMPDEST PUSH1 0x0 PUSH2 0x2463 DUP6 DUP3 DUP7 ADD PUSH2 0x2429 JUMP JUMPDEST SWAP3 POP POP PUSH1 0x20 PUSH2 0x2474 DUP6 DUP3 DUP7 ADD PUSH2 0x2429 JUMP JUMPDEST SWAP2 POP POP SWAP3 POP SWAP3 SWAP1 POP JUMP JUMPDEST PUSH2 0x2487 DUP2 PUSH2 0x2408 JUMP JUMPDEST DUP3 MSTORE POP POP JUMP JUMPDEST PUSH1 0x0 PUSH1 0x20 DUP3 ADD SWAP1 POP PUSH2 0x24A2 PUSH1 0x0 DUP4 ADD DUP5 PUSH2 0x247E JUMP JUMPDEST SWAP3 SWAP2 POP POP JUMP JUMPDEST PUSH1 0x0 PUSH1 0x20 DUP3 DUP5 SUB SLT ISZERO PUSH2 0x24BE JUMPI PUSH2 0x24BD PUSH2 0x2291 JUMP JUMPDEST JUMPDEST PUSH1 0x0 PUSH2 0x24CC DUP5 DUP3 DUP6 ADD PUSH2 0x2429 JUMP JUMPDEST SWAP2 POP POP SWAP3 SWAP2 POP POP JUMP JUMPDEST PUSH1 0x0 PUSH1 0x60 DUP3 ADD SWAP1 POP PUSH2 0x24EA PUSH1 0x0 DUP4 ADD DUP7 PUSH2 0x247E JUMP JUMPDEST PUSH2 0x24F7 PUSH1 0x20 DUP4 ADD DUP6 PUSH2 0x247E JUMP JUMPDEST DUP2 DUP2 SUB PUSH1 0x40 DUP4 ADD MSTORE PUSH2 0x2509 DUP2 DUP5 PUSH2 0x23AD JUMP JUMPDEST SWAP1 POP SWAP5 SWAP4 POP POP POP POP JUMP JUMPDEST PUSH1 0x0 DUP2 SWAP1 POP SWAP2 SWAP1 POP JUMP JUMPDEST PUSH2 0x2526 DUP2 PUSH2 0x2513 JUMP JUMPDEST DUP2 EQ PUSH2 0x2531 JUMPI PUSH1 0x0 DUP1 REVERT JUMPDEST POP JUMP JUMPDEST PUSH1 0x0 DUP2 CALLDATALOAD SWAP1 POP PUSH2 0x2543 DUP2 PUSH2 0x251D JUMP JUMPDEST SWAP3 SWAP2 POP POP JUMP JUMPDEST PUSH1 0x0 PUSH1 0x20 DUP3 DUP5 SUB SLT ISZERO PUSH2 0x255F JUMPI PUSH2 0x255E PUSH2 0x2291 JUMP JUMPDEST JUMPDEST PUSH1 0x0 PUSH2 0x256D DUP5 DUP3 DUP6 ADD PUSH2 0x2534 JUMP JUMPDEST SWAP2 POP POP SWAP3 SWAP2 POP POP JUMP JUMPDEST PUSH2 0x257F DUP2 PUSH2 0x2513 JUMP JUMPDEST DUP3 MSTORE POP POP JUMP JUMPDEST PUSH1 0x0 PUSH1 0x20 DUP3 ADD SWAP1 POP PUSH2 0x259A PUSH1 0x0 DUP4 ADD DUP5 PUSH2 0x2576 JUMP JUMPDEST SWAP3 SWAP2 POP POP JUMP JUMPDEST PUSH1 0x0 PUSH20 0xFFFFFFFFFFFFFFFFFFFFFFFFFFFFFFFFFFFFFFFF DUP3 AND SWAP1 POP SWAP2 SWAP1 POP JUMP JUMPDEST PUSH1 0x0 PUSH2 0x25CB DUP3 PUSH2 0x25A0 JUMP JUMPDEST SWAP1 POP SWAP2 SWAP1 POP JUMP JUMPDEST PUSH2 0x25DB DUP2 PUSH2 0x25C0 JUMP JUMPDEST DUP2 EQ PUSH2 0x25E6 JUMPI PUSH1 0x0 DUP1 REVERT JUMPDEST POP JUMP JUMPDEST PUSH1 0x0 DUP2 CALLDATALOAD SWAP1 POP PUSH2 0x25F8 DUP2 PUSH2 0x25D2 JUMP JUMPDEST SWAP3 SWAP2 POP POP JUMP JUMPDEST PUSH1 0x0 DUP1 PUSH1 0x40 DUP4 DUP6 SUB SLT ISZERO PUSH2 0x2615 JUMPI PUSH2 0x2614 PUSH2 0x2291 JUMP JUMPDEST JUMPDEST PUSH1 0x0 PUSH2 0x2623 DUP6 DUP3 DUP7 ADD PUSH2 0x2534 JUMP JUMPDEST SWAP3 POP POP PUSH1 0x20 PUSH2 0x2634 DUP6 DUP3 DUP7 ADD PUSH2 0x25E9 JUMP JUMPDEST SWAP2 POP POP SWAP3 POP SWAP3 SWAP1 POP JUMP JUMPDEST PUSH1 0x0 DUP1 REVERT JUMPDEST PUSH32 0x4E487B7100000000000000000000000000000000000000000000000000000000 PUSH1 0x0 MSTORE PUSH1 0x41 PUSH1 0x4 MSTORE PUSH1 0x24 PUSH1 0x0 REVERT JUMPDEST PUSH2 0x267B DUP3 PUSH2 0x239C JUMP JUMPDEST DUP2 ADD DUP2 DUP2 LT PUSH8 0xFFFFFFFFFFFFFFFF DUP3 GT OR ISZERO PUSH2 0x269A JUMPI PUSH2 0x2699 PUSH2 0x2643 JUMP JUMPDEST JUMPDEST DUP1 PUSH1 0x40 MSTORE POP POP POP JUMP JUMPDEST PUSH1 0x0 PUSH2 0x26AD PUSH2 0x2287 JUMP JUMPDEST SWAP1 POP PUSH2 0x26B9 DUP3 DUP3 PUSH2 0x2672 JUMP JUMPDEST SWAP2 SWAP1 POP JUMP JUMPDEST PUSH1 0x0 PUSH8 0xFFFFFFFFFFFFFFFF DUP3 GT ISZERO PUSH2 0x26D9 JUMPI PUSH2 0x26D8 PUSH2 0x2643 JUMP JUMPDEST JUMPDEST PUSH1 0x20 DUP3 MUL SWAP1 POP PUSH1 0x20 DUP2 ADD SWAP1 POP SWAP2 SWAP1 POP JUMP JUMPDEST PUSH1 0x0 DUP1 REVERT JUMPDEST PUSH1 0x0 PUSH2 0x2702 PUSH2 0x26FD DUP5 PUSH2 0x26BE JUMP JUMPDEST PUSH2 0x26A3 JUMP JUMPDEST SWAP1 POP DUP1 DUP4 DUP3 MSTORE PUSH1 0x20 DUP3 ADD SWAP1 POP PUSH1 0x20 DUP5 MUL DUP4 ADD DUP6 DUP2 GT ISZERO PUSH2 0x2725 JUMPI PUSH2 0x2724 PUSH2 0x26EA JUMP JUMPDEST JUMPDEST DUP4 JUMPDEST DUP2 DUP2 LT ISZERO PUSH2 0x274E JUMPI DUP1 PUSH2 0x273A DUP9 DUP3 PUSH2 0x2429 JUMP JUMPDEST DUP5 MSTORE PUSH1 0x20 DUP5 ADD SWAP4 POP POP PUSH1 0x20 DUP2 ADD SWAP1 POP PUSH2 0x2727 JUMP JUMPDEST POP POP POP SWAP4 SWAP3 POP POP POP JUMP JUMPDEST PUSH1 0x0 DUP3 PUSH1 0x1F DUP4 ADD SLT PUSH2 0x276D JUMPI PUSH2 0x276C PUSH2 0x263E JUMP JUMPDEST JUMPDEST DUP2 CALLDATALOAD PUSH2 0x277D DUP5 DUP3 PUSH1 0x20 DUP7 ADD PUSH2 0x26EF JUMP JUMPDEST SWAP2 POP POP SWAP3 SWAP2 POP POP JUMP JUMPDEST PUSH1 0x0 DUP1 PUSH1 0x40 DUP4 DUP6 SUB SLT ISZERO PUSH2 0x279D JUMPI PUSH2 0x279C PUSH2 0x2291 JUMP JUMPDEST JUMPDEST PUSH1 0x0 PUSH2 0x27AB DUP6 DUP3 DUP7 ADD PUSH2 0x2429 JUMP JUMPDEST SWAP3 POP POP PUSH1 0x20 DUP4 ADD CALLDATALOAD PUSH8 0xFFFFFFFFFFFFFFFF DUP2 GT ISZERO PUSH2 0x27CC JUMPI PUSH2 0x27CB PUSH2 0x2296 JUMP JUMPDEST JUMPDEST PUSH2 0x27D8 DUP6 DUP3 DUP7 ADD PUSH2 0x2758 JUMP JUMPDEST SWAP2 POP POP SWAP3 POP SWAP3 SWAP1 POP JUMP JUMPDEST PUSH1 0x0 DUP1 REVERT JUMPDEST PUSH1 0x0 DUP1 DUP4 PUSH1 0x1F DUP5 ADD SLT PUSH2 0x27FD JUMPI PUSH2 0x27FC PUSH2 0x263E JUMP JUMPDEST JUMPDEST DUP3 CALLDATALOAD SWAP1 POP PUSH8 0xFFFFFFFFFFFFFFFF DUP2 GT ISZERO PUSH2 0x281A JUMPI PUSH2 0x2819 PUSH2 0x27E2 JUMP JUMPDEST JUMPDEST PUSH1 0x20 DUP4 ADD SWAP2 POP DUP4 PUSH1 0x1 DUP3 MUL DUP4 ADD GT ISZERO PUSH2 0x2836 JUMPI PUSH2 0x2835 PUSH2 0x26EA JUMP JUMPDEST JUMPDEST SWAP3 POP SWAP3 SWAP1 POP JUMP JUMPDEST PUSH1 0x0 DUP1 DUP4 PUSH1 0x1F DUP5 ADD SLT PUSH2 0x2853 JUMPI PUSH2 0x2852 PUSH2 0x263E JUMP JUMPDEST JUMPDEST DUP3 CALLDATALOAD SWAP1 POP PUSH8 0xFFFFFFFFFFFFFFFF DUP2 GT ISZERO PUSH2 0x2870 JUMPI PUSH2 0x286F PUSH2 0x27E2 JUMP JUMPDEST JUMPDEST PUSH1 0x20 DUP4 ADD SWAP2 POP DUP4 PUSH1 0x20 DUP3 MUL DUP4 ADD GT ISZERO PUSH2 0x288C JUMPI PUSH2 0x288B PUSH2 0x26EA JUMP JUMPDEST JUMPDEST SWAP3 POP SWAP3 SWAP1 POP JUMP JUMPDEST PUSH1 0x0 DUP1 PUSH1 0x0 DUP1 PUSH1 0x0 PUSH1 0x60 DUP7 DUP9 SUB SLT ISZERO PUSH2 0x28AF JUMPI PUSH2 0x28AE PUSH2 0x2291 JUMP JUMPDEST JUMPDEST PUSH1 0x0 DUP7 ADD CALLDATALOAD PUSH8 0xFFFFFFFFFFFFFFFF DUP2 GT ISZERO PUSH2 0x28CD JUMPI PUSH2 0x28CC PUSH2 0x2296 JUMP JUMPDEST JUMPDEST PUSH2 0x28D9 DUP9 DUP3 DUP10 ADD PUSH2 0x27E7 JUMP JUMPDEST SWAP6 POP SWAP6 POP POP PUSH1 0x20 DUP7 ADD CALLDATALOAD PUSH8 0xFFFFFFFFFFFFFFFF DUP2 GT ISZERO PUSH2 0x28FC JUMPI PUSH2 0x28FB PUSH2 0x2296 JUMP JUMPDEST JUMPDEST PUSH2 0x2908 DUP9 DUP3 DUP10 ADD PUSH2 0x283D JUMP JUMPDEST SWAP4 POP SWAP4 POP POP PUSH1 0x40 PUSH2 0x291B DUP9 DUP3 DUP10 ADD PUSH2 0x2429 JUMP JUMPDEST SWAP2 POP POP SWAP3 SWAP6 POP SWAP3 SWAP6 SWAP1 SWAP4 POP JUMP JUMPDEST PUSH32 0x4E487B7100000000000000000000000000000000000000000000000000000000 PUSH1 0x0 MSTORE PUSH1 0x21 PUSH1 0x4 MSTORE PUSH1 0x24 PUSH1 0x0 REVERT JUMPDEST PUSH1 0x3 DUP2 LT PUSH2 0x2968 JUMPI PUSH2 0x2967 PUSH2 0x2928 JUMP JUMPDEST JUMPDEST POP JUMP JUMPDEST PUSH1 0x0 DUP2 SWAP1 POP PUSH2 0x2979 DUP3 PUSH2 0x2957 JUMP JUMPDEST SWAP2 SWAP1 POP JUMP JUMPDEST PUSH1 0x0 PUSH2 0x2989 DUP3 PUSH2 0x296B JUMP JUMPDEST SWAP1 POP SWAP2 SWAP1 POP JUMP JUMPDEST PUSH2 0x2999 DUP2 PUSH2 0x297E JUMP JUMPDEST DUP3 MSTORE POP POP JUMP JUMPDEST PUSH1 0x0 PUSH1 0x20 DUP3 ADD SWAP1 POP PUSH2 0x29B4 PUSH1 0x0 DUP4 ADD DUP5 PUSH2 0x2990 JUMP JUMPDEST SWAP3 SWAP2 POP POP JUMP JUMPDEST PUSH1 0x0 DUP1 PUSH1 0x40 DUP4 DUP6 SUB SLT ISZERO PUSH2 0x29D1 JUMPI PUSH2 0x29D0 PUSH2 0x2291 JUMP JUMPDEST JUMPDEST PUSH1 0x0 PUSH2 0x29DF DUP6 DUP3 DUP7 ADD PUSH2 0x25E9 JUMP JUMPDEST SWAP3 POP POP PUSH1 0x20 PUSH2 0x29F0 DUP6 DUP3 DUP7 ADD PUSH2 0x2429 JUMP JUMPDEST SWAP2 POP POP SWAP3 POP SWAP3 SWAP1 POP JUMP JUMPDEST PUSH1 0x0 DUP1 PUSH1 0x40 DUP4 DUP6 SUB SLT ISZERO PUSH2 0x2A11 JUMPI PUSH2 0x2A10 PUSH2 0x2291 JUMP JUMPDEST JUMPDEST PUSH1 0x0 PUSH2 0x2A1F DUP6 DUP3 DUP7 ADD PUSH2 0x2429 JUMP JUMPDEST SWAP3 POP POP PUSH1 0x20 PUSH2 0x2A30 DUP6 DUP3 DUP7 ADD PUSH2 0x25E9 JUMP JUMPDEST SWAP2 POP POP SWAP3 POP SWAP3 SWAP1 POP JUMP JUMPDEST PUSH1 0x0 PUSH1 0x20 DUP3 DUP5 SUB SLT ISZERO PUSH2 0x2A50 JUMPI PUSH2 0x2A4F PUSH2 0x2291 JUMP JUMPDEST JUMPDEST PUSH1 0x0 PUSH2 0x2A5E DUP5 DUP3 DUP6 ADD PUSH2 0x25E9 JUMP JUMPDEST SWAP2 POP POP SWAP3 SWAP2 POP POP JUMP JUMPDEST PUSH2 0x2A70 DUP2 PUSH2 0x25C0 JUMP JUMPDEST DUP3 MSTORE POP POP JUMP JUMPDEST PUSH1 0x0 PUSH1 0x20 DUP3 ADD SWAP1 POP PUSH2 0x2A8B PUSH1 0x0 DUP4 ADD DUP5 PUSH2 0x2A67 JUMP JUMPDEST SWAP3 SWAP2 POP POP JUMP JUMPDEST PUSH1 0x0 DUP2 MLOAD SWAP1 POP SWAP2 SWAP1 POP JUMP JUMPDEST PUSH1 0x0 DUP3 DUP3 MSTORE PUSH1 0x20 DUP3 ADD SWAP1 POP SWAP3 SWAP2 POP POP JUMP JUMPDEST PUSH1 0x0 DUP2 SWAP1 POP PUSH1 0x20 DUP3 ADD SWAP1 POP SWAP2 SWAP1 POP JUMP JUMPDEST PUSH1 0x0 DUP3 DUP3 MSTORE PUSH1 0x20 DUP3 ADD SWAP1 POP SWAP3 SWAP2 POP POP JUMP JUMPDEST PUSH1 0x0 PUSH2 0x2AD9 DUP3 PUSH2 0x2356 JUMP JUMPDEST PUSH2 0x2AE3 DUP2 DUP6 PUSH2 0x2ABD JUMP JUMPDEST SWAP4 POP PUSH2 0x2AF3 DUP2 DUP6 PUSH1 0x20 DUP7 ADD PUSH2 0x2372 JUMP JUMPDEST PUSH2 0x2AFC DUP2 PUSH2 0x239C JUMP JUMPDEST DUP5 ADD SWAP2 POP POP SWAP3 SWAP2 POP POP JUMP JUMPDEST PUSH1 0x0 PUSH2 0x2B13 DUP4 DUP4 PUSH2 0x2ACE JUMP JUMPDEST SWAP1 POP SWAP3 SWAP2 POP POP JUMP JUMPDEST PUSH1 0x0 PUSH1 0x20 DUP3 ADD SWAP1 POP SWAP2 SWAP1 POP JUMP JUMPDEST PUSH1 0x0 PUSH2 0x2B33 DUP3 PUSH2 0x2A91 JUMP JUMPDEST PUSH2 0x2B3D DUP2 DUP6 PUSH2 0x2A9C JUMP JUMPDEST SWAP4 POP DUP4 PUSH1 0x20 DUP3 MUL DUP6 ADD PUSH2 0x2B4F DUP6 PUSH2 0x2AAD JUMP JUMPDEST DUP1 PUSH1 0x0 JUMPDEST DUP6 DUP2 LT ISZERO PUSH2 0x2B8B JUMPI DUP5 DUP5 SUB DUP10 MSTORE DUP2 MLOAD PUSH2 0x2B6C DUP6 DUP3 PUSH2 0x2B07 JUMP JUMPDEST SWAP5 POP PUSH2 0x2B77 DUP4 PUSH2 0x2B1B JUMP JUMPDEST SWAP3 POP PUSH1 0x20 DUP11 ADD SWAP10 POP POP PUSH1 0x1 DUP2 ADD SWAP1 POP PUSH2 0x2B53 JUMP JUMPDEST POP DUP3 SWAP8 POP DUP8 SWAP6 POP POP POP POP POP POP SWAP3 SWAP2 POP POP JUMP JUMPDEST PUSH1 0x0 PUSH1 0x80 DUP3 ADD SWAP1 POP DUP2 DUP2 SUB PUSH1 0x0 DUP4 ADD MSTORE PUSH2 0x2BB7 DUP2 DUP8 PUSH2 0x23AD JUMP JUMPDEST SWAP1 POP DUP2 DUP2 SUB PUSH1 0x20 DUP4 ADD MSTORE PUSH2 0x2BCB DUP2 DUP7 PUSH2 0x2B28 JUMP JUMPDEST SWAP1 POP PUSH2 0x2BDA PUSH1 0x40 DUP4 ADD DUP6 PUSH2 0x247E JUMP JUMPDEST PUSH2 0x2BE7 PUSH1 0x60 DUP4 ADD DUP5 PUSH2 0x2990 JUMP JUMPDEST SWAP6 SWAP5 POP POP POP POP POP JUMP JUMPDEST PUSH1 0x0 PUSH1 0xA0 DUP3 ADD SWAP1 POP PUSH2 0x2C05 PUSH1 0x0 DUP4 ADD DUP9 PUSH2 0x2A67 JUMP JUMPDEST PUSH2 0x2C12 PUSH1 0x20 DUP4 ADD DUP8 PUSH2 0x2990 JUMP JUMPDEST DUP2 DUP2 SUB PUSH1 0x40 DUP4 ADD MSTORE PUSH2 0x2C24 DUP2 DUP7 PUSH2 0x23AD JUMP JUMPDEST SWAP1 POP PUSH2 0x2C33 PUSH1 0x60 DUP4 ADD DUP6 PUSH2 0x247E JUMP JUMPDEST PUSH2 0x2C40 PUSH1 0x80 DUP4 ADD DUP5 PUSH2 0x247E JUMP JUMPDEST SWAP7 SWAP6 POP POP POP POP POP POP JUMP JUMPDEST PUSH32 0x4E487B7100000000000000000000000000000000000000000000000000000000 PUSH1 0x0 MSTORE PUSH1 0x22 PUSH1 0x4 MSTORE PUSH1 0x24 PUSH1 0x0 REVERT JUMPDEST PUSH1 0x0 PUSH1 0x2 DUP3 DIV SWAP1 POP PUSH1 0x1 DUP3 AND DUP1 PUSH2 0x2C91 JUMPI PUSH1 0x7F DUP3 AND SWAP2 POP JUMPDEST PUSH1 0x20 DUP3 LT DUP2 SUB PUSH2 0x2CA4 JUMPI PUSH2 0x2CA3 PUSH2 0x2C4A JUMP JUMPDEST JUMPDEST POP SWAP2 SWAP1 POP JUMP JUMPDEST PUSH32 0x4E487B7100000000000000000000000000000000000000000000000000000000 PUSH1 0x0 MSTORE PUSH1 0x11 PUSH1 0x4 MSTORE PUSH1 0x24 PUSH1 0x0 REVERT JUMPDEST PUSH1 0x0 PUSH2 0x2CE4 DUP3 PUSH2 0x2408 JUMP JUMPDEST SWAP2 POP PUSH32 0xFFFFFFFFFFFFFFFFFFFFFFFFFFFFFFFFFFFFFFFFFFFFFFFFFFFFFFFFFFFFFFFF DUP3 SUB PUSH2 0x2D16 JUMPI PUSH2 0x2D15 PUSH2 0x2CAA JUMP JUMPDEST JUMPDEST PUSH1 0x1 DUP3 ADD SWAP1 POP SWAP2 SWAP1 POP JUMP JUMPDEST PUSH32 0x4E6F7420612076616C69642050726F706F73616C204964000000000000000000 PUSH1 0x0 DUP3 ADD MSTORE POP JUMP JUMPDEST PUSH1 0x0 PUSH2 0x2D57 PUSH1 0x17 DUP4 PUSH2 0x2361 JUMP JUMPDEST SWAP2 POP PUSH2 0x2D62 DUP3 PUSH2 0x2D21 JUMP JUMPDEST PUSH1 0x20 DUP3 ADD SWAP1 POP SWAP2 SWAP1 POP JUMP JUMPDEST PUSH1 0x0 PUSH1 0x20 DUP3 ADD SWAP1 POP DUP2 DUP2 SUB PUSH1 0x0 DUP4 ADD MSTORE PUSH2 0x2D86 DUP2 PUSH2 0x2D4A JUMP JUMPDEST SWAP1 POP SWAP2 SWAP1 POP JUMP JUMPDEST PUSH32 0x566F7465206973206E6F7420696E2070726F6772657373000000000000000000 PUSH1 0x0 DUP3 ADD MSTORE POP JUMP JUMPDEST PUSH1 0x0 PUSH2 0x2DC3 PUSH1 0x17 DUP4 PUSH2 0x2361 JUMP JUMPDEST SWAP2 POP PUSH2 0x2DCE DUP3 PUSH2 0x2D8D JUMP JUMPDEST PUSH1 0x20 DUP3 ADD SWAP1 POP SWAP2 SWAP1 POP JUMP JUMPDEST PUSH1 0x0 PUSH1 0x20 DUP3 ADD SWAP1 POP DUP2 DUP2 SUB PUSH1 0x0 DUP4 ADD MSTORE PUSH2 0x2DF2 DUP2 PUSH2 0x2DB6 JUMP JUMPDEST SWAP1 POP SWAP2 SWAP1 POP JUMP JUMPDEST PUSH32 0x766F74696E6720706572696F6420686173206E6F742065787069726564000000 PUSH1 0x0 DUP3 ADD MSTORE POP JUMP JUMPDEST PUSH1 0x0 PUSH2 0x2E2F PUSH1 0x1D DUP4 PUSH2 0x2361 JUMP JUMPDEST SWAP2 POP PUSH2 0x2E3A DUP3 PUSH2 0x2DF9 JUMP JUMPDEST PUSH1 0x20 DUP3 ADD SWAP1 POP SWAP2 SWAP1 POP JUMP JUMPDEST PUSH1 0x0 PUSH1 0x20 DUP3 ADD SWAP1 POP DUP2 DUP2 SUB PUSH1 0x0 DUP4 ADD MSTORE PUSH2 0x2E5E DUP2 PUSH2 0x2E22 JUMP JUMPDEST SWAP1 POP SWAP2 SWAP1 POP JUMP JUMPDEST PUSH32 0x70726F706F73616C2068617320657870697265642E0000000000000000000000 PUSH1 0x0 DUP3 ADD MSTORE POP JUMP JUMPDEST PUSH1 0x0 PUSH2 0x2E9B PUSH1 0x15 DUP4 PUSH2 0x2361 JUMP JUMPDEST SWAP2 POP PUSH2 0x2EA6 DUP3 PUSH2 0x2E65 JUMP JUMPDEST PUSH1 0x20 DUP3 ADD SWAP1 POP SWAP2 SWAP1 POP JUMP JUMPDEST PUSH1 0x0 PUSH1 0x20 DUP3 ADD SWAP1 POP DUP2 DUP2 SUB PUSH1 0x0 DUP4 ADD MSTORE PUSH2 0x2ECA DUP2 PUSH2 0x2E8E JUMP JUMPDEST SWAP1 POP SWAP2 SWAP1 POP JUMP JUMPDEST PUSH32 0x7573657220616C726561647920766F746564206F6E20746869732070726F706F PUSH1 0x0 DUP3 ADD MSTORE PUSH32 0x73616C0000000000000000000000000000000000000000000000000000000000 PUSH1 0x20 DUP3 ADD MSTORE POP JUMP JUMPDEST PUSH1 0x0 PUSH2 0x2F2D PUSH1 0x23 DUP4 PUSH2 0x2361 JUMP JUMPDEST SWAP2 POP PUSH2 0x2F38 DUP3 PUSH2 0x2ED1 JUMP JUMPDEST PUSH1 0x40 DUP3 ADD SWAP1 POP SWAP2 SWAP1 POP JUMP JUMPDEST PUSH1 0x0 PUSH1 0x20 DUP3 ADD SWAP1 POP DUP2 DUP2 SUB PUSH1 0x0 DUP4 ADD MSTORE PUSH2 0x2F5C DUP2 PUSH2 0x2F20 JUMP JUMPDEST SWAP1 POP SWAP2 SWAP1 POP JUMP JUMPDEST PUSH32 0x666F7220746869732070726F706F73616C2C2074686520766F74696E67207469 PUSH1 0x0 DUP3 ADD MSTORE PUSH32 0x6D65206578706972656400000000000000000000000000000000000000000000 PUSH1 0x20 DUP3 ADD MSTORE POP JUMP JUMPDEST PUSH1 0x0 PUSH2 0x2FBF PUSH1 0x2A DUP4 PUSH2 0x2361 JUMP JUMPDEST SWAP2 POP PUSH2 0x2FCA DUP3 PUSH2 0x2F63 JUMP JUMPDEST PUSH1 0x40 DUP3 ADD SWAP1 POP SWAP2 SWAP1 POP JUMP JUMPDEST PUSH1 0x0 PUSH1 0x20 DUP3 ADD SWAP1 POP DUP2 DUP2 SUB PUSH1 0x0 DUP4 ADD MSTORE PUSH2 0x2FEE DUP2 PUSH2 0x2FB2 JUMP JUMPDEST SWAP1 POP SWAP2 SWAP1 POP JUMP JUMPDEST PUSH1 0x0 PUSH2 0x3000 DUP3 PUSH2 0x2408 JUMP JUMPDEST SWAP2 POP PUSH2 0x300B DUP4 PUSH2 0x2408 JUMP JUMPDEST SWAP3 POP DUP3 DUP3 SUB SWAP1 POP DUP2 DUP2 GT ISZERO PUSH2 0x3023 JUMPI PUSH2 0x3022 PUSH2 0x2CAA JUMP JUMPDEST JUMPDEST SWAP3 SWAP2 POP POP JUMP JUMPDEST PUSH32 0x4E487B7100000000000000000000000000000000000000000000000000000000 PUSH1 0x0 MSTORE PUSH1 0x32 PUSH1 0x4 MSTORE PUSH1 0x24 PUSH1 0x0 REVERT JUMPDEST PUSH1 0x0 PUSH2 0x3063 DUP3 PUSH2 0x2408 JUMP JUMPDEST SWAP2 POP PUSH2 0x306E DUP4 PUSH2 0x2408 JUMP JUMPDEST SWAP3 POP DUP3 DUP3 ADD SWAP1 POP DUP1 DUP3 GT ISZERO PUSH2 0x3086 JUMPI PUSH2 0x3085 PUSH2 0x2CAA JUMP JUMPDEST JUMPDEST SWAP3 SWAP2 POP POP JUMP JUMPDEST PUSH1 0x0 PUSH2 0x3097 DUP3 PUSH2 0x2408 JUMP JUMPDEST SWAP2 POP PUSH2 0x30A2 DUP4 PUSH2 0x2408 JUMP JUMPDEST SWAP3 POP DUP2 PUSH32 0xFFFFFFFFFFFFFFFFFFFFFFFFFFFFFFFFFFFFFFFFFFFFFFFFFFFFFFFFFFFFFFFF DIV DUP4 GT DUP3 ISZERO ISZERO AND ISZERO PUSH2 0x30DB JUMPI PUSH2 0x30DA PUSH2 0x2CAA JUMP JUMPDEST JUMPDEST DUP3 DUP3 MUL SWAP1 POP SWAP3 SWAP2 POP POP JUMP JUMPDEST PUSH1 0x0 DUP2 MLOAD SWAP1 POP SWAP2 SWAP1 POP JUMP JUMPDEST PUSH1 0x0 DUP3 DUP3 MSTORE PUSH1 0x20 DUP3 ADD SWAP1 POP SWAP3 SWAP2 POP POP JUMP JUMPDEST PUSH1 0x0 DUP2 SWAP1 POP PUSH1 0x20 DUP3 ADD SWAP1 POP SWAP2 SWAP1 POP JUMP JUMPDEST PUSH2 0x311B DUP2 PUSH2 0x2408 JUMP JUMPDEST DUP3 MSTORE POP POP JUMP JUMPDEST PUSH1 0x0 PUSH2 0x312D DUP4 DUP4 PUSH2 0x3112 JUMP JUMPDEST PUSH1 0x20 DUP4 ADD SWAP1 POP SWAP3 SWAP2 POP POP JUMP JUMPDEST PUSH1 0x0 PUSH1 0x20 DUP3 ADD SWAP1 POP SWAP2 SWAP1 POP JUMP JUMPDEST PUSH1 0x0 PUSH2 0x3151 DUP3 PUSH2 0x30E6 JUMP JUMPDEST PUSH2 0x315B DUP2 DUP6 PUSH2 0x30F1 JUMP JUMPDEST SWAP4 POP PUSH2 0x3166 DUP4 PUSH2 0x3102 JUMP JUMPDEST DUP1 PUSH1 0x0 JUMPDEST DUP4 DUP2 LT ISZERO PUSH2 0x3197 JUMPI DUP2 MLOAD PUSH2 0x317E DUP9 DUP3 PUSH2 0x3121 JUMP JUMPDEST SWAP8 POP PUSH2 0x3189 DUP4 PUSH2 0x3139 JUMP JUMPDEST SWAP3 POP POP PUSH1 0x1 DUP2 ADD SWAP1 POP PUSH2 0x316A JUMP JUMPDEST POP DUP6 SWAP4 POP POP POP POP SWAP3 SWAP2 POP POP JUMP JUMPDEST PUSH1 0x0 PUSH1 0x60 DUP3 ADD SWAP1 POP PUSH2 0x31B9 PUSH1 0x0 DUP4 ADD DUP7 PUSH2 0x2A67 JUMP JUMPDEST PUSH2 0x31C6 PUSH1 0x20 DUP4 ADD DUP6 PUSH2 0x247E JUMP JUMPDEST DUP2 DUP2 SUB PUSH1 0x40 DUP4 ADD MSTORE PUSH2 0x31D8 DUP2 DUP5 PUSH2 0x3146 JUMP JUMPDEST SWAP1 POP SWAP5 SWAP4 POP POP POP POP JUMP JUMPDEST PUSH32 0x416363657373436F6E74726F6C3A2063616E206F6E6C792072656E6F756E6365 PUSH1 0x0 DUP3 ADD MSTORE PUSH32 0x20726F6C657320666F722073656C660000000000000000000000000000000000 PUSH1 0x20 DUP3 ADD MSTORE POP JUMP JUMPDEST PUSH1 0x0 PUSH2 0x323E PUSH1 0x2F DUP4 PUSH2 0x2361 JUMP JUMPDEST SWAP2 POP PUSH2 0x3249 DUP3 PUSH2 0x31E2 JUMP JUMPDEST PUSH1 0x40 DUP3 ADD SWAP1 POP SWAP2 SWAP1 POP JUMP JUMPDEST PUSH1 0x0 PUSH1 0x20 DUP3 ADD SWAP1 POP DUP2 DUP2 SUB PUSH1 0x0 DUP4 ADD MSTORE PUSH2 0x326D DUP2 PUSH2 0x3231 JUMP JUMPDEST SWAP1 POP SWAP2 SWAP1 POP JUMP JUMPDEST PUSH32 0x54686520766F74696E6720706572696F642063616E6E6F742062652030000000 PUSH1 0x0 DUP3 ADD MSTORE POP JUMP JUMPDEST PUSH1 0x0 PUSH2 0x32AA PUSH1 0x1D DUP4 PUSH2 0x2361 JUMP JUMPDEST SWAP2 POP PUSH2 0x32B5 DUP3 PUSH2 0x3274 JUMP JUMPDEST PUSH1 0x20 DUP3 ADD SWAP1 POP SWAP2 SWAP1 POP JUMP JUMPDEST PUSH1 0x0 PUSH1 0x20 DUP3 ADD SWAP1 POP DUP2 DUP2 SUB PUSH1 0x0 DUP4 ADD MSTORE PUSH2 0x32D9 DUP2 PUSH2 0x329D JUMP JUMPDEST SWAP1 POP SWAP2 SWAP1 POP JUMP JUMPDEST PUSH1 0x0 DUP3 SWAP1 POP SWAP3 SWAP2 POP POP JUMP JUMPDEST PUSH1 0x0 DUP2 SWAP1 POP DUP2 PUSH1 0x0 MSTORE PUSH1 0x20 PUSH1 0x0 KECCAK256 SWAP1 POP SWAP2 SWAP1 POP JUMP JUMPDEST PUSH1 0x0 PUSH1 0x20 PUSH1 0x1F DUP4 ADD DIV SWAP1 POP SWAP2 SWAP1 POP JUMP JUMPDEST PUSH1 0x0 DUP3 DUP3 SHL SWAP1 POP SWAP3 SWAP2 POP POP JUMP JUMPDEST PUSH1 0x0 PUSH1 0x8 DUP4 MUL PUSH2 0x334D PUSH32 0xFFFFFFFFFFFFFFFFFFFFFFFFFFFFFFFFFFFFFFFFFFFFFFFFFFFFFFFFFFFFFFFF DUP3 PUSH2 0x3310 JUMP JUMPDEST PUSH2 0x3357 DUP7 DUP4 PUSH2 0x3310 JUMP JUMPDEST SWAP6 POP DUP1 NOT DUP5 AND SWAP4 POP DUP1 DUP7 AND DUP5 OR SWAP3 POP POP POP SWAP4 SWAP3 POP POP POP JUMP JUMPDEST PUSH1 0x0 DUP2 SWAP1 POP SWAP2 SWAP1 POP JUMP JUMPDEST PUSH1 0x0 PUSH2 0x3394 PUSH2 0x338F PUSH2 0x338A DUP5 PUSH2 0x2408 JUMP JUMPDEST PUSH2 0x336F JUMP JUMPDEST PUSH2 0x2408 JUMP JUMPDEST SWAP1 POP SWAP2 SWAP1 POP JUMP JUMPDEST PUSH1 0x0 DUP2 SWAP1 POP SWAP2 SWAP1 POP JUMP JUMPDEST PUSH2 0x33AE DUP4 PUSH2 0x3379 JUMP JUMPDEST PUSH2 0x33C2 PUSH2 0x33BA DUP3 PUSH2 0x339B JUMP JUMPDEST DUP5 DUP5 SLOAD PUSH2 0x331D JUMP JUMPDEST DUP3 SSTORE POP POP POP POP JUMP JUMPDEST PUSH1 0x0 SWAP1 JUMP JUMPDEST PUSH2 0x33D7 PUSH2 0x33CA JUMP JUMPDEST PUSH2 0x33E2 DUP2 DUP5 DUP5 PUSH2 0x33A5 JUMP JUMPDEST POP POP POP JUMP JUMPDEST JUMPDEST DUP2 DUP2 LT ISZERO PUSH2 0x3406 JUMPI PUSH2 0x33FB PUSH1 0x0 DUP3 PUSH2 0x33CF JUMP JUMPDEST PUSH1 0x1 DUP2 ADD SWAP1 POP PUSH2 0x33E8 JUMP JUMPDEST POP POP JUMP JUMPDEST PUSH1 0x1F DUP3 GT ISZERO PUSH2 0x344B JUMPI PUSH2 0x341C DUP2 PUSH2 0x32EB JUMP JUMPDEST PUSH2 0x3425 DUP5 PUSH2 0x3300 JUMP JUMPDEST DUP2 ADD PUSH1 0x20 DUP6 LT ISZERO PUSH2 0x3434 JUMPI DUP2 SWAP1 POP JUMPDEST PUSH2 0x3448 PUSH2 0x3440 DUP6 PUSH2 0x3300 JUMP JUMPDEST DUP4 ADD DUP3 PUSH2 0x33E7 JUMP JUMPDEST POP POP JUMPDEST POP POP POP JUMP JUMPDEST PUSH1 0x0 DUP3 DUP3 SHR SWAP1 POP SWAP3 SWAP2 POP POP JUMP JUMPDEST PUSH1 0x0 PUSH2 0x346E PUSH1 0x0 NOT DUP5 PUSH1 0x8 MUL PUSH2 0x3450 JUMP JUMPDEST NOT DUP1 DUP4 AND SWAP2 POP POP SWAP3 SWAP2 POP POP JUMP JUMPDEST PUSH1 0x0 PUSH2 0x3487 DUP4 DUP4 PUSH2 0x345D JUMP JUMPDEST SWAP2 POP DUP3 PUSH1 0x2 MUL DUP3 OR SWAP1 POP SWAP3 SWAP2 POP POP JUMP JUMPDEST PUSH2 0x34A1 DUP4 DUP4 PUSH2 0x32E0 JUMP JUMPDEST PUSH8 0xFFFFFFFFFFFFFFFF DUP2 GT ISZERO PUSH2 0x34BA JUMPI PUSH2 0x34B9 PUSH2 0x2643 JUMP JUMPDEST JUMPDEST PUSH2 0x34C4 DUP3 SLOAD PUSH2 0x2C79 JUMP JUMPDEST PUSH2 0x34CF DUP3 DUP3 DUP6 PUSH2 0x340A JUMP JUMPDEST PUSH1 0x0 PUSH1 0x1F DUP4 GT PUSH1 0x1 DUP2 EQ PUSH2 0x34FE JUMPI PUSH1 0x0 DUP5 ISZERO PUSH2 0x34EC JUMPI DUP3 DUP8 ADD CALLDATALOAD SWAP1 POP JUMPDEST PUSH2 0x34F6 DUP6 DUP3 PUSH2 0x347B JUMP JUMPDEST DUP7 SSTORE POP PUSH2 0x355E JUMP JUMPDEST PUSH1 0x1F NOT DUP5 AND PUSH2 0x350C DUP7 PUSH2 0x32EB JUMP JUMPDEST PUSH1 0x0 JUMPDEST DUP3 DUP2 LT ISZERO PUSH2 0x3534 JUMPI DUP5 DUP10 ADD CALLDATALOAD DUP3 SSTORE PUSH1 0x1 DUP3 ADD SWAP2 POP PUSH1 0x20 DUP6 ADD SWAP5 POP PUSH1 0x20 DUP2 ADD SWAP1 POP PUSH2 0x350F JUMP JUMPDEST DUP7 DUP4 LT ISZERO PUSH2 0x3551 JUMPI DUP5 DUP10 ADD CALLDATALOAD PUSH2 0x354D PUSH1 0x1F DUP10 AND DUP3 PUSH2 0x345D JUMP JUMPDEST DUP4 SSTORE POP JUMPDEST PUSH1 0x1 PUSH1 0x2 DUP9 MUL ADD DUP9 SSTORE POP POP POP JUMPDEST POP POP POP POP POP POP POP JUMP JUMPDEST PUSH1 0x0 DUP1 REVERT JUMPDEST PUSH1 0x0 DUP1 REVERT JUMPDEST PUSH1 0x0 DUP1 REVERT JUMPDEST PUSH1 0x0 DUP1 DUP4 CALLDATALOAD PUSH1 0x1 PUSH1 0x20 SUB DUP5 CALLDATASIZE SUB SUB DUP2 SLT PUSH2 0x3593 JUMPI PUSH2 0x3592 PUSH2 0x3567 JUMP JUMPDEST JUMPDEST DUP1 DUP5 ADD SWAP3 POP DUP3 CALLDATALOAD SWAP2 POP PUSH8 0xFFFFFFFFFFFFFFFF DUP3 GT ISZERO PUSH2 0x35B5 JUMPI PUSH2 0x35B4 PUSH2 0x356C JUMP JUMPDEST JUMPDEST PUSH1 0x20 DUP4 ADD SWAP3 POP PUSH1 0x1 DUP3 MUL CALLDATASIZE SUB DUP4 SGT ISZERO PUSH2 0x35D1 JUMPI PUSH2 0x35D0 PUSH2 0x3571 JUMP JUMPDEST JUMPDEST POP SWAP3 POP SWAP3 SWAP1 POP JUMP JUMPDEST PUSH2 0x35E2 DUP3 PUSH2 0x2356 JUMP JUMPDEST PUSH8 0xFFFFFFFFFFFFFFFF DUP2 GT ISZERO PUSH2 0x35FB JUMPI PUSH2 0x35FA PUSH2 0x2643 JUMP JUMPDEST JUMPDEST PUSH2 0x3605 DUP3 SLOAD PUSH2 0x2C79 JUMP JUMPDEST PUSH2 0x3610 DUP3 DUP3 DUP6 PUSH2 0x340A JUMP JUMPDEST PUSH1 0x0 PUSH1 0x20 SWAP1 POP PUSH1 0x1F DUP4 GT PUSH1 0x1 DUP2 EQ PUSH2 0x3643 JUMPI PUSH1 0x0 DUP5 ISZERO PUSH2 0x3631 JUMPI DUP3 DUP8 ADD MLOAD SWAP1 POP JUMPDEST PUSH2 0x363B DUP6 DUP3 PUSH2 0x347B JUMP JUMPDEST DUP7 SSTORE POP PUSH2 0x36A3 JUMP JUMPDEST PUSH1 0x1F NOT DUP5 AND PUSH2 0x3651 DUP7 PUSH2 0x32EB JUMP JUMPDEST PUSH1 0x0 JUMPDEST DUP3 DUP2 LT ISZERO PUSH2 0x3679 JUMPI DUP5 DUP10 ADD MLOAD DUP3 SSTORE PUSH1 0x1 DUP3 ADD SWAP2 POP PUSH1 0x20 DUP6 ADD SWAP5 POP PUSH1 0x20 DUP2 ADD SWAP1 POP PUSH2 0x3654 JUMP JUMPDEST DUP7 DUP4 LT ISZERO PUSH2 0x3696 JUMPI DUP5 DUP10 ADD MLOAD PUSH2 0x3692 PUSH1 0x1F DUP10 AND DUP3 PUSH2 0x345D JUMP JUMPDEST DUP4 SSTORE POP JUMPDEST PUSH1 0x1 PUSH1 0x2 DUP9 MUL ADD DUP9 SSTORE POP POP POP JUMPDEST POP POP POP POP POP POP JUMP JUMPDEST DUP3 DUP2 DUP4 CALLDATACOPY PUSH1 0x0 DUP4 DUP4 ADD MSTORE POP POP POP JUMP JUMPDEST PUSH1 0x0 PUSH2 0x36C6 DUP4 DUP6 PUSH2 0x2361 JUMP JUMPDEST SWAP4 POP PUSH2 0x36D3 DUP4 DUP6 DUP5 PUSH2 0x36AB JUMP JUMPDEST PUSH2 0x36DC DUP4 PUSH2 0x239C JUMP JUMPDEST DUP5 ADD SWAP1 POP SWAP4 SWAP3 POP POP POP JUMP JUMPDEST PUSH1 0x0 DUP2 SWAP1 POP SWAP2 SWAP1 POP JUMP JUMPDEST PUSH1 0x0 PUSH2 0x36FD DUP4 DUP6 PUSH2 0x2ABD JUMP JUMPDEST SWAP4 POP PUSH2 0x370A DUP4 DUP6 DUP5 PUSH2 0x36AB JUMP JUMPDEST PUSH2 0x3713 DUP4 PUSH2 0x239C JUMP JUMPDEST DUP5 ADD SWAP1 POP SWAP4 SWAP3 POP POP POP JUMP JUMPDEST PUSH1 0x0 PUSH2 0x372B DUP5 DUP5 DUP5 PUSH2 0x36F1 JUMP JUMPDEST SWAP1 POP SWAP4 SWAP3 POP POP POP JUMP JUMPDEST PUSH1 0x0 DUP1 REVERT JUMPDEST PUSH1 0x0 DUP1 REVERT JUMPDEST PUSH1 0x0 DUP1 REVERT JUMPDEST PUSH1 0x0 DUP1 DUP4 CALLDATALOAD PUSH1 0x1 PUSH1 0x20 SUB DUP5 CALLDATASIZE SUB SUB DUP2 SLT PUSH2 0x3760 JUMPI PUSH2 0x375F PUSH2 0x373E JUMP JUMPDEST JUMPDEST DUP4 DUP2 ADD SWAP3 POP DUP3 CALLDATALOAD SWAP2 POP PUSH1 0x20 DUP4 ADD SWAP3 POP PUSH8 0xFFFFFFFFFFFFFFFF DUP3 GT ISZERO PUSH2 0x3788 JUMPI PUSH2 0x3787 PUSH2 0x3734 JUMP JUMPDEST JUMPDEST PUSH1 0x1 DUP3 MUL CALLDATASIZE SUB DUP4 SGT ISZERO PUSH2 0x379E JUMPI PUSH2 0x379D PUSH2 0x3739 JUMP JUMPDEST JUMPDEST POP SWAP3 POP SWAP3 SWAP1 POP JUMP JUMPDEST PUSH1 0x0 PUSH1 0x20 DUP3 ADD SWAP1 POP SWAP2 SWAP1 POP JUMP JUMPDEST PUSH1 0x0 PUSH2 0x37BF DUP4 DUP6 PUSH2 0x2A9C JUMP JUMPDEST SWAP4 POP DUP4 PUSH1 0x20 DUP5 MUL DUP6 ADD PUSH2 0x37D1 DUP5 PUSH2 0x36E7 JUMP JUMPDEST DUP1 PUSH1 0x0 JUMPDEST DUP8 DUP2 LT ISZERO PUSH2 0x3817 JUMPI DUP5 DUP5 SUB DUP10 MSTORE PUSH2 0x37EC DUP3 DUP5 PUSH2 0x3743 JUMP JUMPDEST PUSH2 0x37F7 DUP7 DUP3 DUP5 PUSH2 0x371E JUMP JUMPDEST SWAP6 POP PUSH2 0x3802 DUP5 PUSH2 0x37A6 JUMP JUMPDEST SWAP4 POP PUSH1 0x20 DUP12 ADD SWAP11 POP POP POP PUSH1 0x1 DUP2 ADD SWAP1 POP PUSH2 0x37D5 JUMP JUMPDEST POP DUP3 SWAP8 POP DUP8 SWAP5 POP POP POP POP POP SWAP4 SWAP3 POP POP POP JUMP JUMPDEST PUSH1 0x0 PUSH1 0x80 DUP3 ADD SWAP1 POP PUSH2 0x383E PUSH1 0x0 DUP4 ADD DUP10 PUSH2 0x2A67 JUMP JUMPDEST DUP2 DUP2 SUB PUSH1 0x20 DUP4 ADD MSTORE PUSH2 0x3851 DUP2 DUP8 DUP10 PUSH2 0x36BA JUMP JUMPDEST SWAP1 POP DUP2 DUP2 SUB PUSH1 0x40 DUP4 ADD MSTORE PUSH2 0x3866 DUP2 DUP6 DUP8 PUSH2 0x37B3 JUMP JUMPDEST SWAP1 POP PUSH2 0x3875 PUSH1 0x60 DUP4 ADD DUP5 PUSH2 0x247E JUMP JUMPDEST SWAP8 SWAP7 POP POP POP POP POP POP POP JUMP JUMPDEST PUSH32 0x206D696E7420746F20746865207A65726F206164647265737300000000000000 PUSH1 0x0 DUP3 ADD MSTORE POP JUMP JUMPDEST PUSH1 0x0 PUSH2 0x38B6 PUSH1 0x19 DUP4 PUSH2 0x2361 JUMP JUMPDEST SWAP2 POP PUSH2 0x38C1 DUP3 PUSH2 0x3880 JUMP JUMPDEST PUSH1 0x20 DUP3 ADD SWAP1 POP SWAP2 SWAP1 POP JUMP JUMPDEST PUSH1 0x0 PUSH1 0x20 DUP3 ADD SWAP1 POP DUP2 DUP2 SUB PUSH1 0x0 DUP4 ADD MSTORE PUSH2 0x38E5 DUP2 PUSH2 0x38A9 JUMP JUMPDEST SWAP1 POP SWAP2 SWAP1 POP JUMP JUMPDEST PUSH32 0x50726F706F73616C2073686F756C6420626520696E2074616C6C790000000000 PUSH1 0x0 DUP3 ADD MSTORE POP JUMP JUMPDEST PUSH1 0x0 PUSH2 0x3922 PUSH1 0x1B DUP4 PUSH2 0x2361 JUMP JUMPDEST SWAP2 POP PUSH2 0x392D DUP3 PUSH2 0x38EC JUMP JUMPDEST PUSH1 0x20 DUP3 ADD SWAP1 POP SWAP2 SWAP1 POP JUMP JUMPDEST PUSH1 0x0 PUSH1 0x20 DUP3 ADD SWAP1 POP DUP2 DUP2 SUB PUSH1 0x0 DUP4 ADD MSTORE PUSH2 0x3951 DUP2 PUSH2 0x3915 JUMP JUMPDEST SWAP1 POP SWAP2 SWAP1 POP JUMP JUMPDEST PUSH32 0x4F776E61626C653A206E6577206F776E657220697320746865207A65726F2061 PUSH1 0x0 DUP3 ADD MSTORE PUSH32 0x6464726573730000000000000000000000000000000000000000000000000000 PUSH1 0x20 DUP3 ADD MSTORE POP JUMP JUMPDEST PUSH1 0x0 PUSH2 0x39B4 PUSH1 0x26 DUP4 PUSH2 0x2361 JUMP JUMPDEST SWAP2 POP PUSH2 0x39BF DUP3 PUSH2 0x3958 JUMP JUMPDEST PUSH1 0x40 DUP3 ADD SWAP1 POP SWAP2 SWAP1 POP JUMP JUMPDEST PUSH1 0x0 PUSH1 0x20 DUP3 ADD SWAP1 POP DUP2 DUP2 SUB PUSH1 0x0 DUP4 ADD MSTORE PUSH2 0x39E3 DUP2 PUSH2 0x39A7 JUMP JUMPDEST SWAP1 POP SWAP2 SWAP1 POP JUMP JUMPDEST PUSH32 0x4F776E61626C653A2063616C6C6572206973206E6F7420746865206F776E6572 PUSH1 0x0 DUP3 ADD MSTORE POP JUMP JUMPDEST PUSH1 0x0 PUSH2 0x3A20 PUSH1 0x20 DUP4 PUSH2 0x2361 JUMP JUMPDEST SWAP2 POP PUSH2 0x3A2B DUP3 PUSH2 0x39EA JUMP JUMPDEST PUSH1 0x20 DUP3 ADD SWAP1 POP SWAP2 SWAP1 POP JUMP JUMPDEST PUSH1 0x0 PUSH1 0x20 DUP3 ADD SWAP1 POP DUP2 DUP2 SUB PUSH1 0x0 DUP4 ADD MSTORE PUSH2 0x3A4F DUP2 PUSH2 0x3A13 JUMP JUMPDEST SWAP1 POP SWAP2 SWAP1 POP JUMP JUMPDEST PUSH1 0x0 DUP2 SWAP1 POP SWAP3 SWAP2 POP POP JUMP JUMPDEST PUSH32 0x416363657373436F6E74726F6C3A206163636F756E7420000000000000000000 PUSH1 0x0 DUP3 ADD MSTORE POP JUMP JUMPDEST PUSH1 0x0 PUSH2 0x3A97 PUSH1 0x17 DUP4 PUSH2 0x3A56 JUMP JUMPDEST SWAP2 POP PUSH2 0x3AA2 DUP3 PUSH2 0x3A61 JUMP JUMPDEST PUSH1 0x17 DUP3 ADD SWAP1 POP SWAP2 SWAP1 POP JUMP JUMPDEST PUSH1 0x0 PUSH2 0x3AB8 DUP3 PUSH2 0x2356 JUMP JUMPDEST PUSH2 0x3AC2 DUP2 DUP6 PUSH2 0x3A56 JUMP JUMPDEST SWAP4 POP PUSH2 0x3AD2 DUP2 DUP6 PUSH1 0x20 DUP7 ADD PUSH2 0x2372 JUMP JUMPDEST DUP1 DUP5 ADD SWAP2 POP POP SWAP3 SWAP2 POP POP JUMP JUMPDEST PUSH32 0x206973206D697373696E6720726F6C6520000000000000000000000000000000 PUSH1 0x0 DUP3 ADD MSTORE POP JUMP JUMPDEST PUSH1 0x0 PUSH2 0x3B14 PUSH1 0x11 DUP4 PUSH2 0x3A56 JUMP JUMPDEST SWAP2 POP PUSH2 0x3B1F DUP3 PUSH2 0x3ADE JUMP JUMPDEST PUSH1 0x11 DUP3 ADD SWAP1 POP SWAP2 SWAP1 POP JUMP JUMPDEST PUSH1 0x0 PUSH2 0x3B35 DUP3 PUSH2 0x3A8A JUMP JUMPDEST SWAP2 POP PUSH2 0x3B41 DUP3 DUP6 PUSH2 0x3AAD JUMP JUMPDEST SWAP2 POP PUSH2 0x3B4C DUP3 PUSH2 0x3B07 JUMP JUMPDEST SWAP2 POP PUSH2 0x3B58 DUP3 DUP5 PUSH2 0x3AAD JUMP JUMPDEST SWAP2 POP DUP2 SWAP1 POP SWAP4 SWAP3 POP POP POP JUMP JUMPDEST PUSH1 0x0 PUSH2 0x3B6F DUP3 PUSH2 0x2408 JUMP JUMPDEST SWAP2 POP PUSH1 0x0 DUP3 SUB PUSH2 0x3B82 JUMPI PUSH2 0x3B81 PUSH2 0x2CAA JUMP JUMPDEST JUMPDEST PUSH1 0x1 DUP3 SUB SWAP1 POP SWAP2 SWAP1 POP JUMP JUMPDEST PUSH32 0x537472696E67733A20686578206C656E67746820696E73756666696369656E74 PUSH1 0x0 DUP3 ADD MSTORE POP JUMP JUMPDEST PUSH1 0x0 PUSH2 0x3BC3 PUSH1 0x20 DUP4 PUSH2 0x2361 JUMP JUMPDEST SWAP2 POP PUSH2 0x3BCE DUP3 PUSH2 0x3B8D JUMP JUMPDEST PUSH1 0x20 DUP3 ADD SWAP1 POP SWAP2 SWAP1 POP JUMP JUMPDEST PUSH1 0x0 PUSH1 0x20 DUP3 ADD SWAP1 POP DUP2 DUP2 SUB PUSH1 0x0 DUP4 ADD MSTORE PUSH2 0x3BF2 DUP2 PUSH2 0x3BB6 JUMP JUMPDEST SWAP1 POP SWAP2 SWAP1 POP JUMP INVALID LOG2 PUSH5 0x6970667358 0x22 SLT KECCAK256 DUP8 EXP 0xC EXTCODESIZE 0xE0 SWAP16 SWAP6 0xF9 0xEE 0xEE CHAINID SWAP3 0xA7 0xD4 0x1F 0xB8 PUSH27 0xC21CC0520D2DE89ECF19C32E2FEE3764736F6C6343000810003300 "
				},
				"gasEstimates": {
					"creation": {
						"codeDepositCost": "3081400",
						"executionCost": "infinite",
						"totalCost": "infinite"
					},
					"external": {
						"DEFAULT_ADMIN_ROLE()": "446",
						"ProposalCount()": "2518",
						"Proposals(uint256)": "infinite",
						"balanceOf(address)": "2909",
						"castVote(uint256,uint256[])": "infinite",
						"checkAdmin()": "2569",
						"countVotes(uint256)": "infinite",
						"createProposal(string,string[],uint256)": "infinite",
						"getDetails(uint256)": "infinite",
						"getProposalCount()": "2481",
						"getProposalExpirationTime(uint256)": "infinite",
						"getProposalStatus(uint256)": "5174",
						"getRoleAdmin(bytes32)": "infinite",
						"getWeight(uint256,uint256)": "infinite",
						"grantRole(bytes32,address)": "infinite",
						"hasRole(bytes32,address)": "3207",
						"mint(address,uint256)": "infinite",
						"name()": "infinite",
						"owner()": "2567",
						"renounceOwnership()": "30488",
						"renounceRole(bytes32,address)": "infinite",
						"revokeRole(bytes32,address)": "infinite",
						"setProposalToEnded(uint256)": "36101",
						"setProposalToTally(uint256)": "36102",
						"supportsInterface(bytes4)": "774",
						"symbol()": "infinite",
						"transferOwnership(address)": "30854",
						"userHasVoted(uint256,address)": "5354"
					},
					"internal": {
						"sqrt(uint256)": "infinite"
					}
				},
				"methodIdentifiers": {
					"DEFAULT_ADMIN_ROLE()": "a217fddf",
					"ProposalCount()": "be747c1c",
					"Proposals(uint256)": "d1dbe7d8",
					"balanceOf(address)": "70a08231",
					"castVote(uint256,uint256[])": "2fa48e9e",
					"checkAdmin()": "ab150226",
					"countVotes(uint256)": "1840f0ca",
					"createProposal(string,string[],uint256)": "3989ae34",
					"getDetails(uint256)": "b93a89f7",
					"getProposalCount()": "c08cc02d",
					"getProposalExpirationTime(uint256)": "4d5f9eba",
					"getProposalStatus(uint256)": "401853b7",
					"getRoleAdmin(bytes32)": "248a9ca3",
					"getWeight(uint256,uint256)": "0f39ee72",
					"grantRole(bytes32,address)": "2f2ff15d",
					"hasRole(bytes32,address)": "91d14854",
					"mint(address,uint256)": "40c10f19",
					"name()": "06fdde03",
					"owner()": "8da5cb5b",
					"renounceOwnership()": "715018a6",
					"renounceRole(bytes32,address)": "36568abe",
					"revokeRole(bytes32,address)": "d547741f",
					"setProposalToEnded(uint256)": "4c3bd9d6",
					"setProposalToTally(uint256)": "2d5e9d29",
					"supportsInterface(bytes4)": "01ffc9a7",
					"symbol()": "95d89b41",
					"transferOwnership(address)": "f2fde38b",
					"userHasVoted(uint256,address)": "5fc48d7e"
				}
			},
			"storageLayout": {
				"storage": [
					{
						"astId": 400,
						"contract": "lastQv.sol:Voting",
						"label": "_owner",
						"offset": 0,
						"slot": "0",
						"type": "t_address"
					},
					{
						"astId": 24,
						"contract": "lastQv.sol:Voting",
						"label": "_roles",
						"offset": 0,
						"slot": "1",
						"type": "t_mapping(t_bytes32,t_struct(RoleData)19_storage)"
					},
					{
						"astId": 1115,
						"contract": "lastQv.sol:Voting",
						"label": "_totalSupply",
						"offset": 0,
						"slot": "2",
						"type": "t_uint256"
					},
					{
						"astId": 1117,
						"contract": "lastQv.sol:Voting",
						"label": "symbol",
						"offset": 0,
						"slot": "3",
						"type": "t_string_storage"
					},
					{
						"astId": 1119,
						"contract": "lastQv.sol:Voting",
						"label": "name",
						"offset": 0,
						"slot": "4",
						"type": "t_string_storage"
					},
					{
						"astId": 1123,
						"contract": "lastQv.sol:Voting",
						"label": "_balances",
						"offset": 0,
						"slot": "5",
						"type": "t_mapping(t_address,t_uint256)"
					},
					{
						"astId": 1125,
						"contract": "lastQv.sol:Voting",
						"label": "ProposalCount",
						"offset": 0,
						"slot": "6",
						"type": "t_uint256"
					},
					{
						"astId": 1190,
						"contract": "lastQv.sol:Voting",
						"label": "Proposals",
						"offset": 0,
						"slot": "7",
						"type": "t_mapping(t_uint256,t_struct(Proposal)1170_storage)"
					},
					{
						"astId": 1192,
						"contract": "lastQv.sol:Voting",
						"label": "Owner",
						"offset": 0,
						"slot": "8",
						"type": "t_address"
					}
				],
				"types": {
					"t_address": {
						"encoding": "inplace",
						"label": "address",
						"numberOfBytes": "20"
					},
					"t_array(t_address)dyn_storage": {
						"base": "t_address",
						"encoding": "dynamic_array",
						"label": "address[]",
						"numberOfBytes": "32"
					},
					"t_array(t_uint256)dyn_storage": {
						"base": "t_uint256",
						"encoding": "dynamic_array",
						"label": "uint256[]",
						"numberOfBytes": "32"
					},
					"t_bool": {
						"encoding": "inplace",
						"label": "bool",
						"numberOfBytes": "1"
					},
					"t_bytes32": {
						"encoding": "inplace",
						"label": "bytes32",
						"numberOfBytes": "32"
					},
					"t_enum(ProposalStatus)1174": {
						"encoding": "inplace",
						"label": "enum Voting.ProposalStatus",
						"numberOfBytes": "1"
					},
					"t_mapping(t_address,t_bool)": {
						"encoding": "mapping",
						"key": "t_address",
						"label": "mapping(address => bool)",
						"numberOfBytes": "32",
						"value": "t_bool"
					},
					"t_mapping(t_address,t_struct(Voter)1180_storage)": {
						"encoding": "mapping",
						"key": "t_address",
						"label": "mapping(address => struct Voting.Voter)",
						"numberOfBytes": "32",
						"value": "t_struct(Voter)1180_storage"
					},
					"t_mapping(t_address,t_uint256)": {
						"encoding": "mapping",
						"key": "t_address",
						"label": "mapping(address => uint256)",
						"numberOfBytes": "32",
						"value": "t_uint256"
					},
					"t_mapping(t_bytes32,t_struct(RoleData)19_storage)": {
						"encoding": "mapping",
						"key": "t_bytes32",
						"label": "mapping(bytes32 => struct AccessControl.RoleData)",
						"numberOfBytes": "32",
						"value": "t_struct(RoleData)19_storage"
					},
					"t_mapping(t_uint256,t_struct(Proposal)1170_storage)": {
						"encoding": "mapping",
						"key": "t_uint256",
						"label": "mapping(uint256 => struct Voting.Proposal)",
						"numberOfBytes": "32",
						"value": "t_struct(Proposal)1170_storage"
					},
					"t_mapping(t_uint256,t_struct(option)1185_storage)": {
						"encoding": "mapping",
						"key": "t_uint256",
						"label": "mapping(uint256 => struct Voting.option)",
						"numberOfBytes": "32",
						"value": "t_struct(option)1185_storage"
					},
					"t_string_storage": {
						"encoding": "bytes",
						"label": "string",
						"numberOfBytes": "32"
					},
					"t_struct(Proposal)1170_storage": {
						"encoding": "inplace",
						"label": "struct Voting.Proposal",
						"members": [
							{
								"astId": 1147,
								"contract": "lastQv.sol:Voting",
								"label": "creator",
								"offset": 0,
								"slot": "0",
								"type": "t_address"
							},
							{
								"astId": 1150,
								"contract": "lastQv.sol:Voting",
								"label": "status",
								"offset": 20,
								"slot": "0",
								"type": "t_enum(ProposalStatus)1174"
							},
							{
								"astId": 1152,
								"contract": "lastQv.sol:Voting",
								"label": "description",
								"offset": 0,
								"slot": "1",
								"type": "t_string_storage"
							},
							{
								"astId": 1155,
								"contract": "lastQv.sol:Voting",
								"label": "voters",
								"offset": 0,
								"slot": "2",
								"type": "t_array(t_address)dyn_storage"
							},
							{
								"astId": 1157,
								"contract": "lastQv.sol:Voting",
								"label": "expirationTime",
								"offset": 0,
								"slot": "3",
								"type": "t_uint256"
							},
							{
								"astId": 1159,
								"contract": "lastQv.sol:Voting",
								"label": "numOfOptions",
								"offset": 0,
								"slot": "4",
								"type": "t_uint256"
							},
							{
								"astId": 1164,
								"contract": "lastQv.sol:Voting",
								"label": "voterInfo",
								"offset": 0,
								"slot": "5",
								"type": "t_mapping(t_address,t_struct(Voter)1180_storage)"
							},
							{
								"astId": 1169,
								"contract": "lastQv.sol:Voting",
								"label": "options",
								"offset": 0,
								"slot": "6",
								"type": "t_mapping(t_uint256,t_struct(option)1185_storage)"
							}
						],
						"numberOfBytes": "224"
					},
					"t_struct(RoleData)19_storage": {
						"encoding": "inplace",
						"label": "struct AccessControl.RoleData",
						"members": [
							{
								"astId": 16,
								"contract": "lastQv.sol:Voting",
								"label": "members",
								"offset": 0,
								"slot": "0",
								"type": "t_mapping(t_address,t_bool)"
							},
							{
								"astId": 18,
								"contract": "lastQv.sol:Voting",
								"label": "adminRole",
								"offset": 0,
								"slot": "1",
								"type": "t_bytes32"
							}
						],
						"numberOfBytes": "64"
					},
					"t_struct(Voter)1180_storage": {
						"encoding": "inplace",
						"label": "struct Voting.Voter",
						"members": [
							{
								"astId": 1176,
								"contract": "lastQv.sol:Voting",
								"label": "hasVoted",
								"offset": 0,
								"slot": "0",
								"type": "t_bool"
							},
							{
								"astId": 1179,
								"contract": "lastQv.sol:Voting",
								"label": "_tokens",
								"offset": 0,
								"slot": "1",
								"type": "t_array(t_uint256)dyn_storage"
							}
						],
						"numberOfBytes": "64"
					},
					"t_struct(option)1185_storage": {
						"encoding": "inplace",
						"label": "struct Voting.option",
						"members": [
							{
								"astId": 1182,
								"contract": "lastQv.sol:Voting",
								"label": "optionName",
								"offset": 0,
								"slot": "0",
								"type": "t_string_storage"
							},
							{
								"astId": 1184,
								"contract": "lastQv.sol:Voting",
								"label": "totalWeight",
								"offset": 0,
								"slot": "1",
								"type": "t_uint256"
							}
						],
						"numberOfBytes": "64"
					},
					"t_uint256": {
						"encoding": "inplace",
						"label": "uint256",
						"numberOfBytes": "32"
					}
				}
			},
			"userdoc": {
				"kind": "user",
				"methods": {},
				"version": 1
			}
		}
	}
}