{
	"Qvoting.sol": {
		"Qvoting": {
			"abi": [
				{
					"anonymous": false,
					"inputs": [
						{
							"indexed": false,
							"internalType": "uint256",
							"name": "proposalId",
							"type": "uint256"
						},
						{
							"indexed": false,
							"internalType": "address[]",
							"name": "voters",
							"type": "address[]"
						},
						{
							"indexed": false,
							"internalType": "address",
							"name": "creator",
							"type": "address"
						},
						{
							"indexed": false,
							"internalType": "uint256",
							"name": "startTime",
							"type": "uint256"
						},
						{
							"indexed": false,
							"internalType": "uint256",
							"name": "expirationTime",
							"type": "uint256"
						},
						{
							"indexed": false,
							"internalType": "string",
							"name": "description",
							"type": "string"
						},
						{
							"indexed": false,
							"internalType": "string[]",
							"name": "_cand",
							"type": "string[]"
						}
					],
					"name": "ProposalCreated",
					"type": "event"
				},
				{
					"anonymous": false,
					"inputs": [
						{
							"indexed": false,
							"internalType": "address",
							"name": "voter",
							"type": "address"
						},
						{
							"indexed": false,
							"internalType": "uint256",
							"name": "ProposalID",
							"type": "uint256"
						},
						{
							"indexed": false,
							"internalType": "uint256[]",
							"name": "_tokens",
							"type": "uint256[]"
						}
					],
					"name": "VoteCasted",
					"type": "event"
				},
				{
					"anonymous": false,
					"inputs": [
						{
							"indexed": false,
							"internalType": "string",
							"name": "mintAndburn",
							"type": "string"
						},
						{
							"indexed": false,
							"internalType": "address",
							"name": "account",
							"type": "address"
						},
						{
							"indexed": false,
							"internalType": "uint256",
							"name": "amount",
							"type": "uint256"
						}
					],
					"name": "mintAndburn",
					"type": "event"
				},
				{
					"inputs": [
						{
							"internalType": "address",
							"name": "",
							"type": "address"
						},
						{
							"internalType": "uint256",
							"name": "",
							"type": "uint256"
						}
					],
					"name": "allVoters",
					"outputs": [
						{
							"internalType": "uint256",
							"name": "proposalId",
							"type": "uint256"
						},
						{
							"internalType": "address",
							"name": "voterAddress",
							"type": "address"
						},
						{
							"internalType": "bool",
							"name": "hasVoted",
							"type": "bool"
						},
						{
							"internalType": "uint256",
							"name": "voteNum",
							"type": "uint256"
						}
					],
					"stateMutability": "view",
					"type": "function"
				},
				{
					"inputs": [
						{
							"internalType": "address",
							"name": "account",
							"type": "address"
						}
					],
					"name": "balanceOf",
					"outputs": [
						{
							"internalType": "uint256",
							"name": "",
							"type": "uint256"
						}
					],
					"stateMutability": "view",
					"type": "function"
				},
				{
					"inputs": [
						{
							"internalType": "uint256",
							"name": "_proposalId",
							"type": "uint256"
						},
						{
							"internalType": "address[]",
							"name": "_voters",
							"type": "address[]"
						}
					],
					"name": "burnOwner",
					"outputs": [
						{
							"internalType": "bool",
							"name": "",
							"type": "bool"
						}
					],
					"stateMutability": "nonpayable",
					"type": "function"
				},
				{
					"inputs": [
						{
							"internalType": "uint8",
							"name": "_status",
							"type": "uint8"
						},
						{
							"internalType": "address[]",
							"name": "_voters",
							"type": "address[]"
						},
						{
							"internalType": "address",
							"name": "_creator",
							"type": "address"
						},
						{
							"internalType": "uint256",
							"name": "_startTime",
							"type": "uint256"
						},
						{
							"internalType": "uint256",
							"name": "_expirationTime",
							"type": "uint256"
						},
						{
							"internalType": "string",
							"name": "_disc",
							"type": "string"
						},
						{
							"internalType": "string[]",
							"name": "_cand",
							"type": "string[]"
						},
						{
							"internalType": "uint256",
							"name": "_voteRight",
							"type": "uint256"
						}
					],
					"name": "createProposal",
					"outputs": [],
					"stateMutability": "nonpayable",
					"type": "function"
				},
				{
					"inputs": [],
					"name": "decimals",
					"outputs": [
						{
							"internalType": "uint8",
							"name": "",
							"type": "uint8"
						}
					],
					"stateMutability": "view",
					"type": "function"
				},
				{
					"inputs": [],
					"name": "name",
					"outputs": [
						{
							"internalType": "string",
							"name": "",
							"type": "string"
						}
					],
					"stateMutability": "view",
					"type": "function"
				},
				{
					"inputs": [
						{
							"internalType": "uint256",
							"name": "",
							"type": "uint256"
						}
					],
					"name": "proposals",
					"outputs": [
						{
							"internalType": "address",
							"name": "creator",
							"type": "address"
						},
						{
							"internalType": "uint8",
							"name": "status",
							"type": "uint8"
						},
						{
							"internalType": "string",
							"name": "disc",
							"type": "string"
						},
						{
							"internalType": "uint256",
							"name": "startTime",
							"type": "uint256"
						},
						{
							"internalType": "uint256",
							"name": "expirationTime",
							"type": "uint256"
						},
						{
							"internalType": "uint16",
							"name": "numOfOptions",
							"type": "uint16"
						},
						{
							"internalType": "uint256",
							"name": "voteRight",
							"type": "uint256"
						}
					],
					"stateMutability": "view",
					"type": "function"
				},
				{
					"inputs": [
						{
							"internalType": "uint256",
							"name": "_proposalId",
							"type": "uint256"
						},
						{
							"internalType": "address",
							"name": "_voter",
							"type": "address"
						},
						{
							"internalType": "string[]",
							"name": "_hash",
							"type": "string[]"
						},
						{
							"internalType": "uint256[]",
							"name": "v",
							"type": "uint256[]"
						}
					],
					"name": "responseProposal",
					"outputs": [],
					"stateMutability": "nonpayable",
					"type": "function"
				},
				{
					"inputs": [
						{
							"internalType": "uint256",
							"name": "_proposalId",
							"type": "uint256"
						}
					],
					"name": "resultOfProposal",
					"outputs": [
						{
							"internalType": "uint256",
							"name": "",
							"type": "uint256"
						},
						{
							"internalType": "string",
							"name": "",
							"type": "string"
						}
					],
					"stateMutability": "view",
					"type": "function"
				},
				{
					"inputs": [],
					"name": "symbol",
					"outputs": [
						{
							"internalType": "string",
							"name": "",
							"type": "string"
						}
					],
					"stateMutability": "view",
					"type": "function"
				},
				{
					"inputs": [],
					"name": "totalSupply",
					"outputs": [
						{
							"internalType": "uint256",
							"name": "",
							"type": "uint256"
						}
					],
					"stateMutability": "view",
					"type": "function"
				},
				{
					"inputs": [
						{
							"internalType": "address",
							"name": "",
							"type": "address"
						}
					],
					"name": "userProposal",
					"outputs": [
						{
							"internalType": "uint128",
							"name": "proposalCount",
							"type": "uint128"
						},
						{
							"internalType": "uint128",
							"name": "responseCount",
							"type": "uint128"
						}
					],
					"stateMutability": "view",
					"type": "function"
				}
			],
			"devdoc": {
				"kind": "dev",
				"methods": {
					"balanceOf(address)": {
						"details": "See {IERC20-balanceOf}."
					},
					"decimals()": {
						"details": "Returns the number of decimals used to get its user representation. For example, if `decimals` equals `2`, a balance of `505` tokens should be displayed to a user as `5.05` (`505 / 10 ** 2`). Tokens usually opt for a value of 18, imitating the relationship between Ether and Wei. This is the value {ERC20} uses, unless this function is overridden; NOTE: This information is only used for _display_ purposes: it in no way affects any of the arithmetic of the contract, including {IERC20-balanceOf} and {IERC20-transfer}."
					},
					"name()": {
						"details": "Returns the name of the token."
					},
					"symbol()": {
						"details": "Returns the symbol of the token, usually a shorter version of the name."
					},
					"totalSupply()": {
						"details": "See {IERC20-totalSupply}."
					}
				},
				"version": 1
			},
			"evm": {
				"assembly": "    /* \"Qvoting.sol\":481:6174  contract Qvoting is proposalEvents, QVtoken{\r... */\n  mstore(0x40, 0x80)\n  callvalue\n  dup1\n  iszero\n  tag_1\n  jumpi\n  0x00\n  dup1\n  revert\ntag_1:\n  pop\n    /* \"QvToken/ERC20.sol\":2016:2132  constructor(string memory name_, string memory symbol_) {\r... */\n  mload(0x40)\n  dup1\n  0x40\n  add\n  0x40\n  mstore\n  dup1\n  0x0c\n  dup2\n  mstore\n  0x20\n  add\n  0x51566f74696e67546f6b656e0000000000000000000000000000000000000000\n  dup2\n  mstore\n  pop\n  mload(0x40)\n  dup1\n  0x40\n  add\n  0x40\n  mstore\n  dup1\n  0x02\n  dup2\n  mstore\n  0x20\n  add\n  0x5176000000000000000000000000000000000000000000000000000000000000\n  dup2\n  mstore\n  pop\n    /* \"QvToken/ERC20.sol\":2091:2096  name_ */\n  dup2\n    /* \"QvToken/ERC20.sol\":2083:2088  _name */\n  0x02\n    /* \"QvToken/ERC20.sol\":2083:2096  _name = name_ */\n  swap1\n  dup1\n  mload\n  swap1\n  0x20\n  add\n  swap1\n  tag_5\n  swap3\n  swap2\n  swap1\n  tag_6\n  jump\t// in\ntag_5:\n  pop\n    /* \"QvToken/ERC20.sol\":2117:2124  symbol_ */\n  dup1\n    /* \"QvToken/ERC20.sol\":2107:2114  _symbol */\n  0x03\n    /* \"QvToken/ERC20.sol\":2107:2124  _symbol = symbol_ */\n  swap1\n  dup1\n  mload\n  swap1\n  0x20\n  add\n  swap1\n  tag_7\n  swap3\n  swap2\n  swap1\n  tag_6\n  jump\t// in\ntag_7:\n  pop\n    /* \"QvToken/ERC20.sol\":2016:2132  constructor(string memory name_, string memory symbol_) {\r... */\n  pop\n  pop\n    /* \"QvToken/QvToken.sol\":280:290  msg.sender */\n  caller\n    /* \"QvToken/QvToken.sol\":272:277  owner */\n  0x04\n  0x00\n    /* \"QvToken/QvToken.sol\":272:290  owner = msg.sender */\n  0x0100\n  exp\n  dup2\n  sload\n  dup2\n  0xffffffffffffffffffffffffffffffffffffffff\n  mul\n  not\n  and\n  swap1\n  dup4\n  0xffffffffffffffffffffffffffffffffffffffff\n  and\n  mul\n  or\n  swap1\n  sstore\n  pop\n    /* \"Qvoting.sol\":481:6174  contract Qvoting is proposalEvents, QVtoken{\r... */\n  jump(tag_9)\ntag_6:\n  dup3\n  dup1\n  sload\n  tag_10\n  swap1\n  tag_11\n  jump\t// in\ntag_10:\n  swap1\n  0x00\n  mstore\n  keccak256(0x00, 0x20)\n  swap1\n  0x1f\n  add\n  0x20\n  swap1\n  div\n  dup2\n  add\n  swap3\n  dup3\n  tag_13\n  jumpi\n  0x00\n  dup6\n  sstore\n  jump(tag_12)\ntag_13:\n  dup3\n  0x1f\n  lt\n  tag_14\n  jumpi\n  dup1\n  mload\n  not(0xff)\n  and\n  dup4\n  dup1\n  add\n  or\n  dup6\n  sstore\n  jump(tag_12)\ntag_14:\n  dup3\n  dup1\n  add\n  0x01\n  add\n  dup6\n  sstore\n  dup3\n  iszero\n  tag_12\n  jumpi\n  swap2\n  dup3\n  add\ntag_15:\n  dup3\n  dup2\n  gt\n  iszero\n  tag_16\n  jumpi\n  dup3\n  mload\n  dup3\n  sstore\n  swap2\n  0x20\n  add\n  swap2\n  swap1\n  0x01\n  add\n  swap1\n  jump(tag_15)\ntag_16:\ntag_12:\n  pop\n  swap1\n  pop\n  tag_17\n  swap2\n  swap1\n  tag_18\n  jump\t// in\ntag_17:\n  pop\n  swap1\n  jump\t// out\ntag_18:\ntag_19:\n  dup1\n  dup3\n  gt\n  iszero\n  tag_20\n  jumpi\n  0x00\n  dup2\n  0x00\n  swap1\n  sstore\n  pop\n  0x01\n  add\n  jump(tag_19)\ntag_20:\n  pop\n  swap1\n  jump\t// out\n    /* \"#utility.yul\":7:327   */\ntag_11:\n    /* \"#utility.yul\":51:57   */\n  0x00\n    /* \"#utility.yul\":88:89   */\n  0x02\n    /* \"#utility.yul\":82:86   */\n  dup3\n    /* \"#utility.yul\":78:90   */\n  div\n    /* \"#utility.yul\":68:90   */\n  swap1\n  pop\n    /* \"#utility.yul\":135:136   */\n  0x01\n    /* \"#utility.yul\":129:133   */\n  dup3\n    /* \"#utility.yul\":125:137   */\n  and\n    /* \"#utility.yul\":156:174   */\n  dup1\n    /* \"#utility.yul\":146:227   */\n  tag_23\n  jumpi\n    /* \"#utility.yul\":212:216   */\n  0x7f\n    /* \"#utility.yul\":204:210   */\n  dup3\n    /* \"#utility.yul\":200:217   */\n  and\n    /* \"#utility.yul\":190:217   */\n  swap2\n  pop\n    /* \"#utility.yul\":146:227   */\ntag_23:\n    /* \"#utility.yul\":274:276   */\n  0x20\n    /* \"#utility.yul\":266:272   */\n  dup3\n    /* \"#utility.yul\":263:277   */\n  lt\n    /* \"#utility.yul\":243:261   */\n  dup2\n    /* \"#utility.yul\":240:278   */\n  eq\n    /* \"#utility.yul\":237:321   */\n  iszero\n  tag_24\n  jumpi\n    /* \"#utility.yul\":293:311   */\n  tag_25\n  tag_26\n  jump\t// in\ntag_25:\n    /* \"#utility.yul\":237:321   */\ntag_24:\n    /* \"#utility.yul\":58:327   */\n  pop\n    /* \"#utility.yul\":7:327   */\n  swap2\n  swap1\n  pop\n  jump\t// out\n    /* \"#utility.yul\":333:513   */\ntag_26:\n    /* \"#utility.yul\":381:458   */\n  0x4e487b7100000000000000000000000000000000000000000000000000000000\n    /* \"#utility.yul\":378:379   */\n  0x00\n    /* \"#utility.yul\":371:459   */\n  mstore\n    /* \"#utility.yul\":478:482   */\n  0x22\n    /* \"#utility.yul\":475:476   */\n  0x04\n    /* \"#utility.yul\":468:483   */\n  mstore\n    /* \"#utility.yul\":502:506   */\n  0x24\n    /* \"#utility.yul\":499:500   */\n  0x00\n    /* \"#utility.yul\":492:507   */\n  revert\n    /* \"Qvoting.sol\":481:6174  contract Qvoting is proposalEvents, QVtoken{\r... */\ntag_9:\n  dataSize(sub_0)\n  dup1\n  dataOffset(sub_0)\n  0x00\n  codecopy\n  0x00\n  return\nstop\n\nsub_0: assembly {\n        /* \"Qvoting.sol\":481:6174  contract Qvoting is proposalEvents, QVtoken{\r... */\n      mstore(0x40, 0x80)\n      callvalue\n      dup1\n      iszero\n      tag_1\n      jumpi\n      0x00\n      dup1\n      revert\n    tag_1:\n      pop\n      jumpi(tag_2, lt(calldatasize, 0x04))\n      shr(0xe0, calldataload(0x00))\n      dup1\n      0x5c230eee\n      gt\n      tag_15\n      jumpi\n      dup1\n      0x5c230eee\n      eq\n      tag_9\n      jumpi\n      dup1\n      0x70a08231\n      eq\n      tag_10\n      jumpi\n      dup1\n      0x95d89b41\n      eq\n      tag_11\n      jumpi\n      dup1\n      0x9d671564\n      eq\n      tag_12\n      jumpi\n      dup1\n      0xab9c70d4\n      eq\n      tag_13\n      jumpi\n      dup1\n      0xe745d68e\n      eq\n      tag_14\n      jumpi\n      jump(tag_2)\n    tag_15:\n      dup1\n      0x013cf08b\n      eq\n      tag_3\n      jumpi\n      dup1\n      0x03af665c\n      eq\n      tag_4\n      jumpi\n      dup1\n      0x06fdde03\n      eq\n      tag_5\n      jumpi\n      dup1\n      0x18160ddd\n      eq\n      tag_6\n      jumpi\n      dup1\n      0x313ce567\n      eq\n      tag_7\n      jumpi\n      dup1\n      0x4de77e48\n      eq\n      tag_8\n      jumpi\n    tag_2:\n      0x00\n      dup1\n      revert\n        /* \"Qvoting.sol\":1304:1362  mapping(uint => proposalLibrary.proposal) public proposals */\n    tag_3:\n      tag_16\n      0x04\n      dup1\n      calldatasize\n      sub\n      dup2\n      add\n      swap1\n      tag_17\n      swap2\n      swap1\n      tag_18\n      jump\t// in\n    tag_17:\n      tag_19\n      jump\t// in\n    tag_16:\n      mload(0x40)\n      tag_20\n      swap8\n      swap7\n      swap6\n      swap5\n      swap4\n      swap3\n      swap2\n      swap1\n      tag_21\n      jump\t// in\n    tag_20:\n      mload(0x40)\n      dup1\n      swap2\n      sub\n      swap1\n      return\n        /* \"Qvoting.sol\":6064:6167  function burnOwner(uint _proposalId, address[] memory _voters) external returns(bool){\r... */\n    tag_4:\n      tag_22\n      0x04\n      dup1\n      calldatasize\n      sub\n      dup2\n      add\n      swap1\n      tag_23\n      swap2\n      swap1\n      tag_24\n      jump\t// in\n    tag_23:\n      tag_25\n      jump\t// in\n    tag_22:\n      mload(0x40)\n      tag_26\n      swap2\n      swap1\n      tag_27\n      jump\t// in\n    tag_26:\n      mload(0x40)\n      dup1\n      swap2\n      sub\n      swap1\n      return\n        /* \"QvToken/ERC20.sol\":2202:2302  function name() public view virtual override returns (string memory) {\r... */\n    tag_5:\n      tag_28\n      tag_29\n      jump\t// in\n    tag_28:\n      mload(0x40)\n      tag_30\n      swap2\n      swap1\n      tag_31\n      jump\t// in\n    tag_30:\n      mload(0x40)\n      dup1\n      swap2\n      sub\n      swap1\n      return\n        /* \"QvToken/ERC20.sol\":3322:3430  function totalSupply() public view virtual override returns (uint256) {\r... */\n    tag_6:\n      tag_32\n      tag_33\n      jump\t// in\n    tag_32:\n      mload(0x40)\n      tag_34\n      swap2\n      swap1\n      tag_35\n      jump\t// in\n    tag_34:\n      mload(0x40)\n      dup1\n      swap2\n      sub\n      swap1\n      return\n        /* \"QvToken/ERC20.sol\":3164:3257  function decimals() public view virtual override returns (uint8) {\r... */\n    tag_7:\n      tag_36\n      tag_37\n      jump\t// in\n    tag_36:\n      mload(0x40)\n      tag_38\n      swap2\n      swap1\n      tag_39\n      jump\t// in\n    tag_38:\n      mload(0x40)\n      dup1\n      swap2\n      sub\n      swap1\n      return\n        /* \"Qvoting.sol\":1965:3262  function createProposal(uint8 _status, address[] memory _voters, address _creator,\r... */\n    tag_8:\n      tag_40\n      0x04\n      dup1\n      calldatasize\n      sub\n      dup2\n      add\n      swap1\n      tag_41\n      swap2\n      swap1\n      tag_42\n      jump\t// in\n    tag_41:\n      tag_43\n      jump\t// in\n    tag_40:\n      stop\n        /* \"Qvoting.sol\":3270:4519  function responseProposal(uint _proposalId, address _voter, string[] memory _hash, uint[] memory v) external {\r... */\n    tag_9:\n      tag_44\n      0x04\n      dup1\n      calldatasize\n      sub\n      dup2\n      add\n      swap1\n      tag_45\n      swap2\n      swap1\n      tag_46\n      jump\t// in\n    tag_45:\n      tag_47\n      jump\t// in\n    tag_44:\n      stop\n        /* \"QvToken/ERC20.sol\":3493:3620  function balanceOf(address account) public view virtual override returns (uint256) {\r... */\n    tag_10:\n      tag_48\n      0x04\n      dup1\n      calldatasize\n      sub\n      dup2\n      add\n      swap1\n      tag_49\n      swap2\n      swap1\n      tag_50\n      jump\t// in\n    tag_49:\n      tag_51\n      jump\t// in\n    tag_48:\n      mload(0x40)\n      tag_52\n      swap2\n      swap1\n      tag_35\n      jump\t// in\n    tag_52:\n      mload(0x40)\n      dup1\n      swap2\n      sub\n      swap1\n      return\n        /* \"QvToken/ERC20.sol\":2421:2525  function symbol() public view virtual override returns (string memory) {\r... */\n    tag_11:\n      tag_53\n      tag_54\n      jump\t// in\n    tag_53:\n      mload(0x40)\n      tag_55\n      swap2\n      swap1\n      tag_31\n      jump\t// in\n    tag_55:\n      mload(0x40)\n      dup1\n      swap2\n      sub\n      swap1\n      return\n        /* \"Qvoting.sol\":4611:4965  function resultOfProposal(uint _proposalId) public view returns(uint, string memory){\r... */\n    tag_12:\n      tag_56\n      0x04\n      dup1\n      calldatasize\n      sub\n      dup2\n      add\n      swap1\n      tag_57\n      swap2\n      swap1\n      tag_18\n      jump\t// in\n    tag_57:\n      tag_58\n      jump\t// in\n    tag_56:\n      mload(0x40)\n      tag_59\n      swap3\n      swap2\n      swap1\n      tag_60\n      jump\t// in\n    tag_59:\n      mload(0x40)\n      dup1\n      swap2\n      sub\n      swap1\n      return\n        /* \"Qvoting.sol\":1400:1472  mapping(address => mapping(uint => voterLibrary.voter)) public allVoters */\n    tag_13:\n      tag_61\n      0x04\n      dup1\n      calldatasize\n      sub\n      dup2\n      add\n      swap1\n      tag_62\n      swap2\n      swap1\n      tag_63\n      jump\t// in\n    tag_62:\n      tag_64\n      jump\t// in\n    tag_61:\n      mload(0x40)\n      tag_65\n      swap5\n      swap4\n      swap3\n      swap2\n      swap1\n      tag_66\n      jump\t// in\n    tag_65:\n      mload(0x40)\n      dup1\n      swap2\n      sub\n      swap1\n      return\n        /* \"Qvoting.sol\":1201:1273  mapping(address => UserProposalLibrary.UserProposal) public userProposal */\n    tag_14:\n      tag_67\n      0x04\n      dup1\n      calldatasize\n      sub\n      dup2\n      add\n      swap1\n      tag_68\n      swap2\n      swap1\n      tag_50\n      jump\t// in\n    tag_68:\n      tag_69\n      jump\t// in\n    tag_67:\n      mload(0x40)\n      tag_70\n      swap3\n      swap2\n      swap1\n      tag_71\n      jump\t// in\n    tag_70:\n      mload(0x40)\n      dup1\n      swap2\n      sub\n      swap1\n      return\n        /* \"Qvoting.sol\":1304:1362  mapping(uint => proposalLibrary.proposal) public proposals */\n    tag_19:\n      mstore(0x20, 0x07)\n      dup1\n      0x00\n      mstore\n      keccak256(0x00, 0x40)\n      0x00\n      swap2\n      pop\n      swap1\n      pop\n      dup1\n      0x00\n      add\n      0x00\n      swap1\n      sload\n      swap1\n      0x0100\n      exp\n      swap1\n      div\n      0xffffffffffffffffffffffffffffffffffffffff\n      and\n      swap1\n      dup1\n      0x00\n      add\n      0x14\n      swap1\n      sload\n      swap1\n      0x0100\n      exp\n      swap1\n      div\n      0xff\n      and\n      swap1\n      dup1\n      0x01\n      add\n      dup1\n      sload\n      tag_72\n      swap1\n      tag_73\n      jump\t// in\n    tag_72:\n      dup1\n      0x1f\n      add\n      0x20\n      dup1\n      swap2\n      div\n      mul\n      0x20\n      add\n      mload(0x40)\n      swap1\n      dup2\n      add\n      0x40\n      mstore\n      dup1\n      swap3\n      swap2\n      swap1\n      dup2\n      dup2\n      mstore\n      0x20\n      add\n      dup3\n      dup1\n      sload\n      tag_74\n      swap1\n      tag_73\n      jump\t// in\n    tag_74:\n      dup1\n      iszero\n      tag_75\n      jumpi\n      dup1\n      0x1f\n      lt\n      tag_76\n      jumpi\n      0x0100\n      dup1\n      dup4\n      sload\n      div\n      mul\n      dup4\n      mstore\n      swap2\n      0x20\n      add\n      swap2\n      jump(tag_75)\n    tag_76:\n      dup3\n      add\n      swap2\n      swap1\n      0x00\n      mstore\n      keccak256(0x00, 0x20)\n      swap1\n    tag_77:\n      dup2\n      sload\n      dup2\n      mstore\n      swap1\n      0x01\n      add\n      swap1\n      0x20\n      add\n      dup1\n      dup4\n      gt\n      tag_77\n      jumpi\n      dup3\n      swap1\n      sub\n      0x1f\n      and\n      dup3\n      add\n      swap2\n    tag_75:\n      pop\n      pop\n      pop\n      pop\n      pop\n      swap1\n      dup1\n      0x02\n      add\n      sload\n      swap1\n      dup1\n      0x03\n      add\n      sload\n      swap1\n      dup1\n      0x04\n      add\n      0x00\n      swap1\n      sload\n      swap1\n      0x0100\n      exp\n      swap1\n      div\n      0xffff\n      and\n      swap1\n      dup1\n      0x05\n      add\n      sload\n      swap1\n      pop\n      dup8\n      jump\t// out\n        /* \"Qvoting.sol\":6064:6167  function burnOwner(uint _proposalId, address[] memory _voters) external returns(bool){\r... */\n    tag_25:\n        /* \"Qvoting.sol\":6144:6148  bool */\n      0x00\n        /* \"Qvoting.sol\":6064:6167  function burnOwner(uint _proposalId, address[] memory _voters) external returns(bool){\r... */\n      swap3\n      swap2\n      pop\n      pop\n      jump\t// out\n        /* \"QvToken/ERC20.sol\":2202:2302  function name() public view virtual override returns (string memory) {\r... */\n    tag_29:\n        /* \"QvToken/ERC20.sol\":2256:2269  string memory */\n      0x60\n        /* \"QvToken/ERC20.sol\":2289:2294  _name */\n      0x02\n        /* \"QvToken/ERC20.sol\":2282:2294  return _name */\n      dup1\n      sload\n      tag_80\n      swap1\n      tag_73\n      jump\t// in\n    tag_80:\n      dup1\n      0x1f\n      add\n      0x20\n      dup1\n      swap2\n      div\n      mul\n      0x20\n      add\n      mload(0x40)\n      swap1\n      dup2\n      add\n      0x40\n      mstore\n      dup1\n      swap3\n      swap2\n      swap1\n      dup2\n      dup2\n      mstore\n      0x20\n      add\n      dup3\n      dup1\n      sload\n      tag_81\n      swap1\n      tag_73\n      jump\t// in\n    tag_81:\n      dup1\n      iszero\n      tag_82\n      jumpi\n      dup1\n      0x1f\n      lt\n      tag_83\n      jumpi\n      0x0100\n      dup1\n      dup4\n      sload\n      div\n      mul\n      dup4\n      mstore\n      swap2\n      0x20\n      add\n      swap2\n      jump(tag_82)\n    tag_83:\n      dup3\n      add\n      swap2\n      swap1\n      0x00\n      mstore\n      keccak256(0x00, 0x20)\n      swap1\n    tag_84:\n      dup2\n      sload\n      dup2\n      mstore\n      swap1\n      0x01\n      add\n      swap1\n      0x20\n      add\n      dup1\n      dup4\n      gt\n      tag_84\n      jumpi\n      dup3\n      swap1\n      sub\n      0x1f\n      and\n      dup3\n      add\n      swap2\n    tag_82:\n      pop\n      pop\n      pop\n      pop\n      pop\n      swap1\n      pop\n        /* \"QvToken/ERC20.sol\":2202:2302  function name() public view virtual override returns (string memory) {\r... */\n      swap1\n      jump\t// out\n        /* \"QvToken/ERC20.sol\":3322:3430  function totalSupply() public view virtual override returns (uint256) {\r... */\n    tag_33:\n        /* \"QvToken/ERC20.sol\":3383:3390  uint256 */\n      0x00\n        /* \"QvToken/ERC20.sol\":3410:3422  _totalSupply */\n      sload(0x01)\n        /* \"QvToken/ERC20.sol\":3403:3422  return _totalSupply */\n      swap1\n      pop\n        /* \"QvToken/ERC20.sol\":3322:3430  function totalSupply() public view virtual override returns (uint256) {\r... */\n      swap1\n      jump\t// out\n        /* \"QvToken/ERC20.sol\":3164:3257  function decimals() public view virtual override returns (uint8) {\r... */\n    tag_37:\n        /* \"QvToken/ERC20.sol\":3222:3227  uint8 */\n      0x00\n        /* \"QvToken/ERC20.sol\":3247:3249  18 */\n      0x12\n        /* \"QvToken/ERC20.sol\":3240:3249  return 18 */\n      swap1\n      pop\n        /* \"QvToken/ERC20.sol\":3164:3257  function decimals() public view virtual override returns (uint8) {\r... */\n      swap1\n      jump\t// out\n        /* \"Qvoting.sol\":1965:3262  function createProposal(uint8 _status, address[] memory _voters, address _creator,\r... */\n    tag_43:\n        /* \"Qvoting.sol\":2339:2349  _startTime */\n      dup6\n        /* \"Qvoting.sol\":2321:2336  block.timestamp */\n      timestamp\n        /* \"Qvoting.sol\":2321:2349  block.timestamp < _startTime */\n      lt\n        /* \"Qvoting.sol\":2313:2373  require(block.timestamp < _startTime,\"proposal not started\") */\n      tag_88\n      jumpi\n      mload(0x40)\n      0x08c379a000000000000000000000000000000000000000000000000000000000\n      dup2\n      mstore\n      0x04\n      add\n      tag_89\n      swap1\n      tag_90\n      jump\t// in\n    tag_89:\n      mload(0x40)\n      dup1\n      swap2\n      sub\n      swap1\n      revert\n    tag_88:\n        /* \"Qvoting.sol\":2410:2425  _expirationTime */\n      dup5\n        /* \"Qvoting.sol\":2392:2407  block.timestamp */\n      timestamp\n        /* \"Qvoting.sol\":2392:2425  block.timestamp < _expirationTime */\n      lt\n        /* \"Qvoting.sol\":2384:2473  require(block.timestamp < _expirationTime,\"End time should be greater than current time\") */\n      tag_91\n      jumpi\n      mload(0x40)\n      0x08c379a000000000000000000000000000000000000000000000000000000000\n      dup2\n      mstore\n      0x04\n      add\n      tag_92\n      swap1\n      tag_93\n      jump\t// in\n    tag_92:\n      mload(0x40)\n      dup1\n      swap2\n      sub\n      swap1\n      revert\n    tag_91:\n        /* \"Qvoting.sol\":2505:2520  _expirationTime */\n      dup5\n        /* \"Qvoting.sol\":2492:2502  _startTime */\n      dup7\n        /* \"Qvoting.sol\":2492:2520  _startTime < _expirationTime */\n      lt\n        /* \"Qvoting.sol\":2484:2566  require(_startTime < _expirationTime,\"End time should be greater than start time\") */\n      tag_94\n      jumpi\n      mload(0x40)\n      0x08c379a000000000000000000000000000000000000000000000000000000000\n      dup2\n      mstore\n      0x04\n      add\n      tag_95\n      swap1\n      tag_96\n      jump\t// in\n    tag_95:\n      mload(0x40)\n      dup1\n      swap2\n      sub\n      swap1\n      revert\n    tag_94:\n        /* \"Qvoting.sol\":2579:2589  proposalId */\n      0x05\n      0x00\n        /* \"Qvoting.sol\":2579:2591  proposalId++ */\n      dup2\n      sload\n      dup1\n      swap3\n      swap2\n      swap1\n      tag_97\n      swap1\n      tag_98\n      jump\t// in\n    tag_97:\n      swap2\n      swap1\n      pop\n      sstore\n      pop\n        /* \"Qvoting.sol\":2602:2714  proposals[proposalId].createProposal(_status,_voters,_creator,_startTime,_expirationTime,_disc,_voteRight,_cand) */\n      tag_99\n        /* \"Qvoting.sol\":2639:2646  _status */\n      dup10\n        /* \"Qvoting.sol\":2647:2654  _voters */\n      dup10\n        /* \"Qvoting.sol\":2655:2663  _creator */\n      dup10\n        /* \"Qvoting.sol\":2664:2674  _startTime */\n      dup10\n        /* \"Qvoting.sol\":2675:2690  _expirationTime */\n      dup10\n        /* \"Qvoting.sol\":2691:2696  _disc */\n      dup10\n        /* \"Qvoting.sol\":2697:2707  _voteRight */\n      dup8\n        /* \"Qvoting.sol\":2708:2713  _cand */\n      dup11\n      dup11\n        /* \"Qvoting.sol\":2602:2611  proposals */\n      0x07\n        /* \"Qvoting.sol\":2602:2623  proposals[proposalId] */\n      0x00\n        /* \"Qvoting.sol\":2612:2622  proposalId */\n      sload(0x05)\n        /* \"Qvoting.sol\":2602:2623  proposals[proposalId] */\n      dup2\n      mstore\n      0x20\n      add\n      swap1\n      dup2\n      mstore\n      0x20\n      add\n      0x00\n      keccak256\n        /* \"Qvoting.sol\":2602:2638  proposals[proposalId].createProposal */\n      tag_100\n      swap1\n        /* \"Qvoting.sol\":2602:2714  proposals[proposalId].createProposal(_status,_voters,_creator,_startTime,_expirationTime,_disc,_voteRight,_cand) */\n      swap10\n      swap9\n      swap8\n      swap7\n      swap6\n      swap5\n      swap4\n      swap3\n      swap2\n      swap1\n      0xffffffff\n      and\n      jump\t// in\n    tag_99:\n      pop\n        /* \"Qvoting.sol\":2730:2814  ProposalCreated(proposalId, _voters,_creator,_startTime,_expirationTime,_disc,_cand) */\n      0x239a8a71a7d1cb0d134f6cc072ad6390e36a88c8e78dff69013ee79528441e80\n        /* \"Qvoting.sol\":2746:2756  proposalId */\n      sload(0x05)\n        /* \"Qvoting.sol\":2758:2765  _voters */\n      dup10\n        /* \"Qvoting.sol\":2766:2774  _creator */\n      dup10\n        /* \"Qvoting.sol\":2775:2785  _startTime */\n      dup10\n        /* \"Qvoting.sol\":2786:2801  _expirationTime */\n      dup10\n        /* \"Qvoting.sol\":2802:2807  _disc */\n      dup10\n        /* \"Qvoting.sol\":2808:2813  _cand */\n      dup10\n      dup10\n        /* \"Qvoting.sol\":2730:2814  ProposalCreated(proposalId, _voters,_creator,_startTime,_expirationTime,_disc,_cand) */\n      mload(0x40)\n      tag_101\n      swap9\n      swap8\n      swap7\n      swap6\n      swap5\n      swap4\n      swap3\n      swap2\n      swap1\n      tag_102\n      jump\t// in\n    tag_101:\n      mload(0x40)\n      dup1\n      swap2\n      sub\n      swap1\n      log1\n        /* \"Qvoting.sol\":2854:2858  true */\n      0x01\n        /* \"Qvoting.sol\":2825:2839  validProposals */\n      0x09\n        /* \"Qvoting.sol\":2825:2851  validProposals[proposalId] */\n      0x00\n        /* \"Qvoting.sol\":2840:2850  proposalId */\n      sload(0x05)\n        /* \"Qvoting.sol\":2825:2851  validProposals[proposalId] */\n      dup2\n      mstore\n      0x20\n      add\n      swap1\n      dup2\n      mstore\n      0x20\n      add\n      0x00\n      keccak256\n      0x00\n        /* \"Qvoting.sol\":2825:2858  validProposals[proposalId] = true */\n      0x0100\n      exp\n      dup2\n      sload\n      dup2\n      0xff\n      mul\n      not\n      and\n      swap1\n      dup4\n      iszero\n      iszero\n      mul\n      or\n      swap1\n      sstore\n      pop\n        /* \"Qvoting.sol\":2930:2939  uint256 i */\n      0x00\n        /* \"Qvoting.sol\":2926:3185  for(uint256 i=0;i<_voters.length;i++){\r... */\n    tag_103:\n        /* \"Qvoting.sol\":2944:2951  _voters */\n      dup9\n        /* \"Qvoting.sol\":2944:2958  _voters.length */\n      mload\n        /* \"Qvoting.sol\":2942:2943  i */\n      dup2\n        /* \"Qvoting.sol\":2942:2958  i<_voters.length */\n      lt\n        /* \"Qvoting.sol\":2926:3185  for(uint256 i=0;i<_voters.length;i++){\r... */\n      iszero\n      tag_104\n      jumpi\n        /* \"Qvoting.sol\":2978:3005  mint(_voters[i],_voteRight) */\n      tag_106\n        /* \"Qvoting.sol\":2983:2990  _voters */\n      dup10\n        /* \"Qvoting.sol\":2991:2992  i */\n      dup3\n        /* \"Qvoting.sol\":2983:2993  _voters[i] */\n      dup2\n      mload\n      dup2\n      lt\n      tag_107\n      jumpi\n      tag_108\n      tag_109\n      jump\t// in\n    tag_108:\n    tag_107:\n      0x20\n      mul\n      0x20\n      add\n      add\n      mload\n        /* \"Qvoting.sol\":2994:3004  _voteRight */\n      dup4\n        /* \"Qvoting.sol\":2978:2982  mint */\n      tag_110\n        /* \"Qvoting.sol\":2978:3005  mint(_voters[i],_voteRight) */\n      jump\t// in\n    tag_106:\n        /* \"Qvoting.sol\":3020:3108  allVoters[_voters[i]][proposalId].createVoter(proposalId, _voters[i], false, _voteRight) */\n      tag_111\n        /* \"Qvoting.sol\":3066:3076  proposalId */\n      sload(0x05)\n        /* \"Qvoting.sol\":3078:3085  _voters */\n      dup11\n        /* \"Qvoting.sol\":3086:3087  i */\n      dup4\n        /* \"Qvoting.sol\":3078:3088  _voters[i] */\n      dup2\n      mload\n      dup2\n      lt\n      tag_112\n      jumpi\n      tag_113\n      tag_109\n      jump\t// in\n    tag_113:\n    tag_112:\n      0x20\n      mul\n      0x20\n      add\n      add\n      mload\n        /* \"Qvoting.sol\":3090:3095  false */\n      0x00\n        /* \"Qvoting.sol\":3097:3107  _voteRight */\n      dup6\n        /* \"Qvoting.sol\":3020:3029  allVoters */\n      0x08\n        /* \"Qvoting.sol\":3020:3041  allVoters[_voters[i]] */\n      0x00\n        /* \"Qvoting.sol\":3030:3037  _voters */\n      dup16\n        /* \"Qvoting.sol\":3038:3039  i */\n      dup9\n        /* \"Qvoting.sol\":3030:3040  _voters[i] */\n      dup2\n      mload\n      dup2\n      lt\n      tag_114\n      jumpi\n      tag_115\n      tag_109\n      jump\t// in\n    tag_115:\n    tag_114:\n      0x20\n      mul\n      0x20\n      add\n      add\n      mload\n        /* \"Qvoting.sol\":3020:3041  allVoters[_voters[i]] */\n      0xffffffffffffffffffffffffffffffffffffffff\n      and\n      0xffffffffffffffffffffffffffffffffffffffff\n      and\n      dup2\n      mstore\n      0x20\n      add\n      swap1\n      dup2\n      mstore\n      0x20\n      add\n      0x00\n      keccak256\n        /* \"Qvoting.sol\":3020:3053  allVoters[_voters[i]][proposalId] */\n      0x00\n        /* \"Qvoting.sol\":3042:3052  proposalId */\n      sload(0x05)\n        /* \"Qvoting.sol\":3020:3053  allVoters[_voters[i]][proposalId] */\n      dup2\n      mstore\n      0x20\n      add\n      swap1\n      dup2\n      mstore\n      0x20\n      add\n      0x00\n      keccak256\n        /* \"Qvoting.sol\":3020:3065  allVoters[_voters[i]][proposalId].createVoter */\n      tag_116\n      swap1\n        /* \"Qvoting.sol\":3020:3108  allVoters[_voters[i]][proposalId].createVoter(proposalId, _voters[i], false, _voteRight) */\n      swap5\n      swap4\n      swap3\n      swap2\n      swap1\n      0xffffffff\n      and\n      jump\t// in\n    tag_111:\n      pop\n        /* \"Qvoting.sol\":3128:3169  mintAndburn(\"mint\",_voters[i],_voteRight) */\n      0xabf5327be9f5825c40d58bda541dd07f09b62df3376bbd5ecdbaa8bd82a9d492\n        /* \"Qvoting.sol\":3147:3154  _voters */\n      dup10\n        /* \"Qvoting.sol\":3155:3156  i */\n      dup3\n        /* \"Qvoting.sol\":3147:3157  _voters[i] */\n      dup2\n      mload\n      dup2\n      lt\n      tag_117\n      jumpi\n      tag_118\n      tag_109\n      jump\t// in\n    tag_118:\n    tag_117:\n      0x20\n      mul\n      0x20\n      add\n      add\n      mload\n        /* \"Qvoting.sol\":3158:3168  _voteRight */\n      dup4\n        /* \"Qvoting.sol\":3128:3169  mintAndburn(\"mint\",_voters[i],_voteRight) */\n      mload(0x40)\n      tag_119\n      swap3\n      swap2\n      swap1\n      tag_120\n      jump\t// in\n    tag_119:\n      mload(0x40)\n      dup1\n      swap2\n      sub\n      swap1\n      log1\n        /* \"Qvoting.sol\":2959:2962  i++ */\n      dup1\n      dup1\n      tag_121\n      swap1\n      tag_98\n      jump\t// in\n    tag_121:\n      swap2\n      pop\n      pop\n        /* \"Qvoting.sol\":2926:3185  for(uint256 i=0;i<_voters.length;i++){\r... */\n      jump(tag_103)\n    tag_104:\n      pop\n        /* \"Qvoting.sol\":3197:3254  userProposal[_msgSender()].updateProposalList(proposalId) */\n      tag_122\n        /* \"Qvoting.sol\":3243:3253  proposalId */\n      sload(0x05)\n        /* \"Qvoting.sol\":3197:3209  userProposal */\n      0x06\n        /* \"Qvoting.sol\":3197:3223  userProposal[_msgSender()] */\n      0x00\n        /* \"Qvoting.sol\":3210:3222  _msgSender() */\n      tag_123\n        /* \"Qvoting.sol\":3210:3220  _msgSender */\n      tag_124\n        /* \"Qvoting.sol\":3210:3222  _msgSender() */\n      jump\t// in\n    tag_123:\n        /* \"Qvoting.sol\":3197:3223  userProposal[_msgSender()] */\n      0xffffffffffffffffffffffffffffffffffffffff\n      and\n      0xffffffffffffffffffffffffffffffffffffffff\n      and\n      dup2\n      mstore\n      0x20\n      add\n      swap1\n      dup2\n      mstore\n      0x20\n      add\n      0x00\n      keccak256\n        /* \"Qvoting.sol\":3197:3242  userProposal[_msgSender()].updateProposalList */\n      tag_125\n      swap1\n        /* \"Qvoting.sol\":3197:3254  userProposal[_msgSender()].updateProposalList(proposalId) */\n      swap2\n      swap1\n      0xffffffff\n      and\n      jump\t// in\n    tag_122:\n      pop\n        /* \"Qvoting.sol\":1965:3262  function createProposal(uint8 _status, address[] memory _voters, address _creator,\r... */\n      pop\n      pop\n      pop\n      pop\n      pop\n      pop\n      pop\n      pop\n      pop\n      jump\t// out\n        /* \"Qvoting.sol\":3270:4519  function responseProposal(uint _proposalId, address _voter, string[] memory _hash, uint[] memory v) external {\r... */\n    tag_47:\n        /* \"Qvoting.sol\":3493:3507  validProposals */\n      0x09\n        /* \"Qvoting.sol\":3493:3520  validProposals[_proposalId] */\n      0x00\n        /* \"Qvoting.sol\":3508:3519  _proposalId */\n      dup6\n        /* \"Qvoting.sol\":3493:3520  validProposals[_proposalId] */\n      dup2\n      mstore\n      0x20\n      add\n      swap1\n      dup2\n      mstore\n      0x20\n      add\n      0x00\n      keccak256\n      0x00\n      swap1\n      sload\n      swap1\n      0x0100\n      exp\n      swap1\n      div\n      0xff\n      and\n        /* \"Qvoting.sol\":3485:3542  require(validProposals[_proposalId],\"invalid proposalId\") */\n      tag_127\n      jumpi\n      mload(0x40)\n      0x08c379a000000000000000000000000000000000000000000000000000000000\n      dup2\n      mstore\n      0x04\n      add\n      tag_128\n      swap1\n      tag_129\n      jump\t// in\n    tag_128:\n      mload(0x40)\n      dup1\n      swap2\n      sub\n      swap1\n      revert\n    tag_127:\n        /* \"Qvoting.sol\":3606:3617  _proposalId */\n      dup4\n        /* \"Qvoting.sol\":3561:3570  allVoters */\n      0x08\n        /* \"Qvoting.sol\":3561:3578  allVoters[_voter] */\n      0x00\n        /* \"Qvoting.sol\":3571:3577  _voter */\n      dup6\n        /* \"Qvoting.sol\":3561:3578  allVoters[_voter] */\n      0xffffffffffffffffffffffffffffffffffffffff\n      and\n      0xffffffffffffffffffffffffffffffffffffffff\n      and\n      dup2\n      mstore\n      0x20\n      add\n      swap1\n      dup2\n      mstore\n      0x20\n      add\n      0x00\n      keccak256\n        /* \"Qvoting.sol\":3561:3591  allVoters[_voter][_proposalId] */\n      0x00\n        /* \"Qvoting.sol\":3579:3590  _proposalId */\n      dup7\n        /* \"Qvoting.sol\":3561:3591  allVoters[_voter][_proposalId] */\n      dup2\n      mstore\n      0x20\n      add\n      swap1\n      dup2\n      mstore\n      0x20\n      add\n      0x00\n      keccak256\n        /* \"Qvoting.sol\":3561:3602  allVoters[_voter][_proposalId].proposalId */\n      0x00\n      add\n      sload\n        /* \"Qvoting.sol\":3561:3617  allVoters[_voter][_proposalId].proposalId == _proposalId */\n      eq\n        /* \"Qvoting.sol\":3553:3657  require(allVoters[_voter][_proposalId].proposalId == _proposalId, \"not a valid voter for this proposal\") */\n      tag_130\n      jumpi\n      mload(0x40)\n      0x08c379a000000000000000000000000000000000000000000000000000000000\n      dup2\n      mstore\n      0x04\n      add\n      tag_131\n      swap1\n      tag_132\n      jump\t// in\n    tag_131:\n      mload(0x40)\n      dup1\n      swap2\n      sub\n      swap1\n      revert\n    tag_130:\n        /* \"Qvoting.sol\":3738:3747  allVoters */\n      0x08\n        /* \"Qvoting.sol\":3738:3755  allVoters[_voter] */\n      0x00\n        /* \"Qvoting.sol\":3748:3754  _voter */\n      dup5\n        /* \"Qvoting.sol\":3738:3755  allVoters[_voter] */\n      0xffffffffffffffffffffffffffffffffffffffff\n      and\n      0xffffffffffffffffffffffffffffffffffffffff\n      and\n      dup2\n      mstore\n      0x20\n      add\n      swap1\n      dup2\n      mstore\n      0x20\n      add\n      0x00\n      keccak256\n        /* \"Qvoting.sol\":3738:3768  allVoters[_voter][_proposalId] */\n      0x00\n        /* \"Qvoting.sol\":3756:3767  _proposalId */\n      dup6\n        /* \"Qvoting.sol\":3738:3768  allVoters[_voter][_proposalId] */\n      dup2\n      mstore\n      0x20\n      add\n      swap1\n      dup2\n      mstore\n      0x20\n      add\n      0x00\n      keccak256\n        /* \"Qvoting.sol\":3738:3777  allVoters[_voter][_proposalId].hasVoted */\n      0x01\n      add\n      0x14\n      swap1\n      sload\n      swap1\n      0x0100\n      exp\n      swap1\n      div\n      0xff\n      and\n        /* \"Qvoting.sol\":3737:3777  !allVoters[_voter][_proposalId].hasVoted */\n      iszero\n        /* \"Qvoting.sol\":3729:3795  require(!allVoters[_voter][_proposalId].hasVoted, \"already voted\") */\n      tag_133\n      jumpi\n      mload(0x40)\n      0x08c379a000000000000000000000000000000000000000000000000000000000\n      dup2\n      mstore\n      0x04\n      add\n      tag_134\n      swap1\n      tag_135\n      jump\t// in\n    tag_134:\n      mload(0x40)\n      dup1\n      swap2\n      sub\n      swap1\n      revert\n    tag_133:\n        /* \"Qvoting.sol\":3852:3857  _hash */\n      dup2\n        /* \"Qvoting.sol\":3852:3864  _hash.length */\n      mload\n        /* \"Qvoting.sol\":3814:3823  proposals */\n      0x07\n        /* \"Qvoting.sol\":3814:3836  proposals[_proposalId] */\n      0x00\n        /* \"Qvoting.sol\":3824:3835  _proposalId */\n      dup7\n        /* \"Qvoting.sol\":3814:3836  proposals[_proposalId] */\n      dup2\n      mstore\n      0x20\n      add\n      swap1\n      dup2\n      mstore\n      0x20\n      add\n      0x00\n      keccak256\n        /* \"Qvoting.sol\":3814:3849  proposals[_proposalId].numOfOptions */\n      0x04\n      add\n      0x00\n      swap1\n      sload\n      swap1\n      0x0100\n      exp\n      swap1\n      div\n      0xffff\n      and\n        /* \"Qvoting.sol\":3814:3864  proposals[_proposalId].numOfOptions ==_hash.length */\n      0xffff\n      and\n      eq\n        /* \"Qvoting.sol\":3806:3905  require(proposals[_proposalId].numOfOptions ==_hash.length, \"not a valid length of hash response!\") */\n      tag_136\n      jumpi\n      mload(0x40)\n      0x08c379a000000000000000000000000000000000000000000000000000000000\n      dup2\n      mstore\n      0x04\n      add\n      tag_137\n      swap1\n      tag_138\n      jump\t// in\n    tag_137:\n      mload(0x40)\n      dup1\n      swap2\n      sub\n      swap1\n      revert\n    tag_136:\n        /* \"Qvoting.sol\":3916:3924  uint sum */\n      0x00\n        /* \"Qvoting.sol\":3941:3947  uint i */\n      dup1\n        /* \"Qvoting.sol\":3937:4006  for(uint i=0;i<v.length;i++){\r... */\n    tag_139:\n        /* \"Qvoting.sol\":3952:3953  v */\n      dup3\n        /* \"Qvoting.sol\":3952:3960  v.length */\n      mload\n        /* \"Qvoting.sol\":3950:3951  i */\n      dup2\n        /* \"Qvoting.sol\":3950:3960  i<v.length */\n      lt\n        /* \"Qvoting.sol\":3937:4006  for(uint i=0;i<v.length;i++){\r... */\n      iszero\n      tag_140\n      jumpi\n        /* \"Qvoting.sol\":3990:3991  v */\n      dup3\n        /* \"Qvoting.sol\":3992:3993  i */\n      dup2\n        /* \"Qvoting.sol\":3990:3994  v[i] */\n      dup2\n      mload\n      dup2\n      lt\n      tag_142\n      jumpi\n      tag_143\n      tag_109\n      jump\t// in\n    tag_143:\n    tag_142:\n      0x20\n      mul\n      0x20\n      add\n      add\n      mload\n        /* \"Qvoting.sol\":3985:3986  v */\n      dup4\n        /* \"Qvoting.sol\":3987:3988  i */\n      dup3\n        /* \"Qvoting.sol\":3985:3989  v[i] */\n      dup2\n      mload\n      dup2\n      lt\n      tag_144\n      jumpi\n      tag_145\n      tag_109\n      jump\t// in\n    tag_145:\n    tag_144:\n      0x20\n      mul\n      0x20\n      add\n      add\n      mload\n        /* \"Qvoting.sol\":3985:3994  v[i]*v[i] */\n      tag_146\n      swap2\n      swap1\n      tag_147\n      jump\t// in\n    tag_146:\n        /* \"Qvoting.sol\":3980:3994  sum+=v[i]*v[i] */\n      dup3\n      tag_148\n      swap2\n      swap1\n      tag_149\n      jump\t// in\n    tag_148:\n      swap2\n      pop\n        /* \"Qvoting.sol\":3961:3964  i++ */\n      dup1\n      dup1\n      tag_150\n      swap1\n      tag_98\n      jump\t// in\n    tag_150:\n      swap2\n      pop\n      pop\n        /* \"Qvoting.sol\":3937:4006  for(uint i=0;i<v.length;i++){\r... */\n      jump(tag_139)\n    tag_140:\n      pop\n        /* \"Qvoting.sol\":4066:4069  sum */\n      dup1\n        /* \"Qvoting.sol\":4024:4033  allVoters */\n      0x08\n        /* \"Qvoting.sol\":4024:4041  allVoters[_voter] */\n      0x00\n        /* \"Qvoting.sol\":4034:4040  _voter */\n      dup7\n        /* \"Qvoting.sol\":4024:4041  allVoters[_voter] */\n      0xffffffffffffffffffffffffffffffffffffffff\n      and\n      0xffffffffffffffffffffffffffffffffffffffff\n      and\n      dup2\n      mstore\n      0x20\n      add\n      swap1\n      dup2\n      mstore\n      0x20\n      add\n      0x00\n      keccak256\n        /* \"Qvoting.sol\":4024:4054  allVoters[_voter][_proposalId] */\n      0x00\n        /* \"Qvoting.sol\":4042:4053  _proposalId */\n      dup8\n        /* \"Qvoting.sol\":4024:4054  allVoters[_voter][_proposalId] */\n      dup2\n      mstore\n      0x20\n      add\n      swap1\n      dup2\n      mstore\n      0x20\n      add\n      0x00\n      keccak256\n        /* \"Qvoting.sol\":4024:4062  allVoters[_voter][_proposalId].voteNum */\n      0x02\n      add\n      sload\n        /* \"Qvoting.sol\":4024:4069  allVoters[_voter][_proposalId].voteNum >= sum */\n      lt\n      iszero\n        /* \"Qvoting.sol\":4016:4109  require(allVoters[_voter][_proposalId].voteNum >= sum, \"not sufficient balance to cast vote\") */\n      tag_151\n      jumpi\n      mload(0x40)\n      0x08c379a000000000000000000000000000000000000000000000000000000000\n      dup2\n      mstore\n      0x04\n      add\n      tag_152\n      swap1\n      tag_153\n      jump\t// in\n    tag_152:\n      mload(0x40)\n      dup1\n      swap2\n      sub\n      swap1\n      revert\n    tag_151:\n        /* \"Qvoting.sol\":4122:4178  proposals[_proposalId].responseProposal(_voter,_hash, v) */\n      tag_154\n        /* \"Qvoting.sol\":4162:4168  _voter */\n      dup5\n        /* \"Qvoting.sol\":4169:4174  _hash */\n      dup5\n        /* \"Qvoting.sol\":4176:4177  v */\n      dup5\n        /* \"Qvoting.sol\":4122:4131  proposals */\n      0x07\n        /* \"Qvoting.sol\":4122:4144  proposals[_proposalId] */\n      0x00\n        /* \"Qvoting.sol\":4132:4143  _proposalId */\n      dup11\n        /* \"Qvoting.sol\":4122:4144  proposals[_proposalId] */\n      dup2\n      mstore\n      0x20\n      add\n      swap1\n      dup2\n      mstore\n      0x20\n      add\n      0x00\n      keccak256\n        /* \"Qvoting.sol\":4122:4161  proposals[_proposalId].responseProposal */\n      tag_155\n      swap1\n        /* \"Qvoting.sol\":4122:4178  proposals[_proposalId].responseProposal(_voter,_hash, v) */\n      swap4\n      swap3\n      swap2\n      swap1\n      0xffffffff\n      and\n      jump\t// in\n    tag_154:\n      pop\n        /* \"Qvoting.sol\":4189:4254  userProposal[_msgSender()].updateResponseList(_proposalId, _hash) */\n      tag_156\n        /* \"Qvoting.sol\":4235:4246  _proposalId */\n      dup6\n        /* \"Qvoting.sol\":4248:4253  _hash */\n      dup5\n        /* \"Qvoting.sol\":4189:4201  userProposal */\n      0x06\n        /* \"Qvoting.sol\":4189:4215  userProposal[_msgSender()] */\n      0x00\n        /* \"Qvoting.sol\":4202:4214  _msgSender() */\n      tag_157\n        /* \"Qvoting.sol\":4202:4212  _msgSender */\n      tag_124\n        /* \"Qvoting.sol\":4202:4214  _msgSender() */\n      jump\t// in\n    tag_157:\n        /* \"Qvoting.sol\":4189:4215  userProposal[_msgSender()] */\n      0xffffffffffffffffffffffffffffffffffffffff\n      and\n      0xffffffffffffffffffffffffffffffffffffffff\n      and\n      dup2\n      mstore\n      0x20\n      add\n      swap1\n      dup2\n      mstore\n      0x20\n      add\n      0x00\n      keccak256\n        /* \"Qvoting.sol\":4189:4234  userProposal[_msgSender()].updateResponseList */\n      tag_158\n      swap1\n        /* \"Qvoting.sol\":4189:4254  userProposal[_msgSender()].updateResponseList(_proposalId, _hash) */\n      swap3\n      swap2\n      swap1\n      0xffffffff\n      and\n      jump\t// in\n    tag_156:\n      pop\n        /* \"Qvoting.sol\":4267:4313  allVoters[_voter][_proposalId].updateVoteNum() */\n      tag_159\n        /* \"Qvoting.sol\":4267:4276  allVoters */\n      0x08\n        /* \"Qvoting.sol\":4267:4284  allVoters[_voter] */\n      0x00\n        /* \"Qvoting.sol\":4277:4283  _voter */\n      dup7\n        /* \"Qvoting.sol\":4267:4284  allVoters[_voter] */\n      0xffffffffffffffffffffffffffffffffffffffff\n      and\n      0xffffffffffffffffffffffffffffffffffffffff\n      and\n      dup2\n      mstore\n      0x20\n      add\n      swap1\n      dup2\n      mstore\n      0x20\n      add\n      0x00\n      keccak256\n        /* \"Qvoting.sol\":4267:4297  allVoters[_voter][_proposalId] */\n      0x00\n        /* \"Qvoting.sol\":4285:4296  _proposalId */\n      dup8\n        /* \"Qvoting.sol\":4267:4297  allVoters[_voter][_proposalId] */\n      dup2\n      mstore\n      0x20\n      add\n      swap1\n      dup2\n      mstore\n      0x20\n      add\n      0x00\n      keccak256\n        /* \"Qvoting.sol\":4267:4311  allVoters[_voter][_proposalId].updateVoteNum */\n      tag_160\n        /* \"Qvoting.sol\":4267:4313  allVoters[_voter][_proposalId].updateVoteNum() */\n      jump\t// in\n    tag_159:\n      pop\n        /* \"Qvoting.sol\":4366:4370  true */\n      0x01\n        /* \"Qvoting.sol\":4324:4333  allVoters */\n      0x08\n        /* \"Qvoting.sol\":4324:4341  allVoters[_voter] */\n      0x00\n        /* \"Qvoting.sol\":4334:4340  _voter */\n      dup7\n        /* \"Qvoting.sol\":4324:4341  allVoters[_voter] */\n      0xffffffffffffffffffffffffffffffffffffffff\n      and\n      0xffffffffffffffffffffffffffffffffffffffff\n      and\n      dup2\n      mstore\n      0x20\n      add\n      swap1\n      dup2\n      mstore\n      0x20\n      add\n      0x00\n      keccak256\n        /* \"Qvoting.sol\":4324:4354  allVoters[_voter][_proposalId] */\n      0x00\n        /* \"Qvoting.sol\":4342:4353  _proposalId */\n      dup8\n        /* \"Qvoting.sol\":4324:4354  allVoters[_voter][_proposalId] */\n      dup2\n      mstore\n      0x20\n      add\n      swap1\n      dup2\n      mstore\n      0x20\n      add\n      0x00\n      keccak256\n        /* \"Qvoting.sol\":4324:4363  allVoters[_voter][_proposalId].hasVoted */\n      0x01\n      add\n      0x14\n        /* \"Qvoting.sol\":4324:4370  allVoters[_voter][_proposalId].hasVoted = true */\n      0x0100\n      exp\n      dup2\n      sload\n      dup2\n      0xff\n      mul\n      not\n      and\n      swap1\n      dup4\n      iszero\n      iszero\n      mul\n      or\n      swap1\n      sstore\n      pop\n        /* \"Qvoting.sol\":4381:4425  burn(_voter,proposals[proposalId].voteRight) */\n      tag_161\n        /* \"Qvoting.sol\":4386:4392  _voter */\n      dup5\n        /* \"Qvoting.sol\":4393:4402  proposals */\n      0x07\n        /* \"Qvoting.sol\":4393:4414  proposals[proposalId] */\n      0x00\n        /* \"Qvoting.sol\":4403:4413  proposalId */\n      sload(0x05)\n        /* \"Qvoting.sol\":4393:4414  proposals[proposalId] */\n      dup2\n      mstore\n      0x20\n      add\n      swap1\n      dup2\n      mstore\n      0x20\n      add\n      0x00\n      keccak256\n        /* \"Qvoting.sol\":4393:4424  proposals[proposalId].voteRight */\n      0x05\n      add\n      sload\n        /* \"Qvoting.sol\":4381:4385  burn */\n      tag_162\n        /* \"Qvoting.sol\":4381:4425  burn(_voter,proposals[proposalId].voteRight) */\n      jump\t// in\n    tag_161:\n        /* \"Qvoting.sol\":4441:4501  mintAndburn(\"burn\", _voter, proposals[proposalId].voteRight) */\n      0xabf5327be9f5825c40d58bda541dd07f09b62df3376bbd5ecdbaa8bd82a9d492\n        /* \"Qvoting.sol\":4461:4467  _voter */\n      dup5\n        /* \"Qvoting.sol\":4469:4478  proposals */\n      0x07\n        /* \"Qvoting.sol\":4469:4490  proposals[proposalId] */\n      0x00\n        /* \"Qvoting.sol\":4479:4489  proposalId */\n      sload(0x05)\n        /* \"Qvoting.sol\":4469:4490  proposals[proposalId] */\n      dup2\n      mstore\n      0x20\n      add\n      swap1\n      dup2\n      mstore\n      0x20\n      add\n      0x00\n      keccak256\n        /* \"Qvoting.sol\":4469:4500  proposals[proposalId].voteRight */\n      0x05\n      add\n      sload\n        /* \"Qvoting.sol\":4441:4501  mintAndburn(\"burn\", _voter, proposals[proposalId].voteRight) */\n      mload(0x40)\n      tag_163\n      swap3\n      swap2\n      swap1\n      tag_164\n      jump\t// in\n    tag_163:\n      mload(0x40)\n      dup1\n      swap2\n      sub\n      swap1\n      log1\n        /* \"Qvoting.sol\":3379:4519  {\r... */\n      pop\n        /* \"Qvoting.sol\":3270:4519  function responseProposal(uint _proposalId, address _voter, string[] memory _hash, uint[] memory v) external {\r... */\n      pop\n      pop\n      pop\n      pop\n      jump\t// out\n        /* \"QvToken/ERC20.sol\":3493:3620  function balanceOf(address account) public view virtual override returns (uint256) {\r... */\n    tag_51:\n        /* \"QvToken/ERC20.sol\":3567:3574  uint256 */\n      0x00\n        /* \"QvToken/ERC20.sol\":3594:3603  _balances */\n      dup1\n        /* \"QvToken/ERC20.sol\":3594:3612  _balances[account] */\n      0x00\n        /* \"QvToken/ERC20.sol\":3604:3611  account */\n      dup4\n        /* \"QvToken/ERC20.sol\":3594:3612  _balances[account] */\n      0xffffffffffffffffffffffffffffffffffffffff\n      and\n      0xffffffffffffffffffffffffffffffffffffffff\n      and\n      dup2\n      mstore\n      0x20\n      add\n      swap1\n      dup2\n      mstore\n      0x20\n      add\n      0x00\n      keccak256\n      sload\n        /* \"QvToken/ERC20.sol\":3587:3612  return _balances[account] */\n      swap1\n      pop\n        /* \"QvToken/ERC20.sol\":3493:3620  function balanceOf(address account) public view virtual override returns (uint256) {\r... */\n      swap2\n      swap1\n      pop\n      jump\t// out\n        /* \"QvToken/ERC20.sol\":2421:2525  function symbol() public view virtual override returns (string memory) {\r... */\n    tag_54:\n        /* \"QvToken/ERC20.sol\":2477:2490  string memory */\n      0x60\n        /* \"QvToken/ERC20.sol\":2510:2517  _symbol */\n      0x03\n        /* \"QvToken/ERC20.sol\":2503:2517  return _symbol */\n      dup1\n      sload\n      tag_167\n      swap1\n      tag_73\n      jump\t// in\n    tag_167:\n      dup1\n      0x1f\n      add\n      0x20\n      dup1\n      swap2\n      div\n      mul\n      0x20\n      add\n      mload(0x40)\n      swap1\n      dup2\n      add\n      0x40\n      mstore\n      dup1\n      swap3\n      swap2\n      swap1\n      dup2\n      dup2\n      mstore\n      0x20\n      add\n      dup3\n      dup1\n      sload\n      tag_168\n      swap1\n      tag_73\n      jump\t// in\n    tag_168:\n      dup1\n      iszero\n      tag_169\n      jumpi\n      dup1\n      0x1f\n      lt\n      tag_170\n      jumpi\n      0x0100\n      dup1\n      dup4\n      sload\n      div\n      mul\n      dup4\n      mstore\n      swap2\n      0x20\n      add\n      swap2\n      jump(tag_169)\n    tag_170:\n      dup3\n      add\n      swap2\n      swap1\n      0x00\n      mstore\n      keccak256(0x00, 0x20)\n      swap1\n    tag_171:\n      dup2\n      sload\n      dup2\n      mstore\n      swap1\n      0x01\n      add\n      swap1\n      0x20\n      add\n      dup1\n      dup4\n      gt\n      tag_171\n      jumpi\n      dup3\n      swap1\n      sub\n      0x1f\n      and\n      dup3\n      add\n      swap2\n    tag_169:\n      pop\n      pop\n      pop\n      pop\n      pop\n      swap1\n      pop\n        /* \"QvToken/ERC20.sol\":2421:2525  function symbol() public view virtual override returns (string memory) {\r... */\n      swap1\n      jump\t// out\n        /* \"Qvoting.sol\":4611:4965  function resultOfProposal(uint _proposalId) public view returns(uint, string memory){\r... */\n    tag_58:\n        /* \"Qvoting.sol\":4675:4679  uint */\n      0x00\n        /* \"Qvoting.sol\":4681:4694  string memory */\n      0x60\n        /* \"Qvoting.sol\":4714:4728  validProposals */\n      0x09\n        /* \"Qvoting.sol\":4714:4741  validProposals[_proposalId] */\n      0x00\n        /* \"Qvoting.sol\":4729:4740  _proposalId */\n      dup5\n        /* \"Qvoting.sol\":4714:4741  validProposals[_proposalId] */\n      dup2\n      mstore\n      0x20\n      add\n      swap1\n      dup2\n      mstore\n      0x20\n      add\n      0x00\n      keccak256\n      0x00\n      swap1\n      sload\n      swap1\n      0x0100\n      exp\n      swap1\n      div\n      0xff\n      and\n        /* \"Qvoting.sol\":4706:4765  require(validProposals[_proposalId],\"not a valid proposal\") */\n      tag_173\n      jumpi\n      mload(0x40)\n      0x08c379a000000000000000000000000000000000000000000000000000000000\n      dup2\n      mstore\n      0x04\n      add\n      tag_174\n      swap1\n      tag_175\n      jump\t// in\n    tag_174:\n      mload(0x40)\n      dup1\n      swap2\n      sub\n      swap1\n      revert\n    tag_173:\n        /* \"Qvoting.sol\":4859:4868  proposals */\n      0x07\n        /* \"Qvoting.sol\":4859:4881  proposals[_proposalId] */\n      0x00\n        /* \"Qvoting.sol\":4869:4880  _proposalId */\n      dup5\n        /* \"Qvoting.sol\":4859:4881  proposals[_proposalId] */\n      dup2\n      mstore\n      0x20\n      add\n      swap1\n      dup2\n      mstore\n      0x20\n      add\n      0x00\n      keccak256\n        /* \"Qvoting.sol\":4859:4887  proposals[_proposalId].votes */\n      0x0a\n      add\n        /* \"Qvoting.sol\":4888:4897  proposals */\n      0x07\n        /* \"Qvoting.sol\":4888:4910  proposals[_proposalId] */\n      0x00\n        /* \"Qvoting.sol\":4898:4909  _proposalId */\n      dup6\n        /* \"Qvoting.sol\":4888:4910  proposals[_proposalId] */\n      dup2\n      mstore\n      0x20\n      add\n      swap1\n      dup2\n      mstore\n      0x20\n      add\n      0x00\n      keccak256\n        /* \"Qvoting.sol\":4888:4917  proposals[_proposalId].result */\n      0x09\n      add\n        /* \"Qvoting.sol\":4888:4920  proposals[_proposalId].result[1] */\n      0x00\n        /* \"Qvoting.sol\":4918:4919  1 */\n      0x01\n        /* \"Qvoting.sol\":4888:4920  proposals[_proposalId].result[1] */\n      dup2\n      mstore\n      0x20\n      add\n      swap1\n      dup2\n      mstore\n      0x20\n      add\n      0x00\n      keccak256\n        /* \"Qvoting.sol\":4859:4921  proposals[_proposalId].votes[proposals[_proposalId].result[1]] */\n      mload(0x40)\n      tag_176\n      swap2\n      swap1\n      tag_177\n      jump\t// in\n    tag_176:\n      swap1\n      dup2\n      mstore\n      0x20\n      add\n      mload(0x40)\n      dup1\n      swap2\n      sub\n      swap1\n      keccak256\n      sload\n        /* \"Qvoting.sol\":4922:4931  proposals */\n      0x07\n        /* \"Qvoting.sol\":4922:4944  proposals[_proposalId] */\n      0x00\n        /* \"Qvoting.sol\":4932:4943  _proposalId */\n      dup6\n        /* \"Qvoting.sol\":4922:4944  proposals[_proposalId] */\n      dup2\n      mstore\n      0x20\n      add\n      swap1\n      dup2\n      mstore\n      0x20\n      add\n      0x00\n      keccak256\n        /* \"Qvoting.sol\":4922:4951  proposals[_proposalId].result */\n      0x09\n      add\n        /* \"Qvoting.sol\":4922:4954  proposals[_proposalId].result[1] */\n      0x00\n        /* \"Qvoting.sol\":4952:4953  1 */\n      0x01\n        /* \"Qvoting.sol\":4922:4954  proposals[_proposalId].result[1] */\n      dup2\n      mstore\n      0x20\n      add\n      swap1\n      dup2\n      mstore\n      0x20\n      add\n      0x00\n      keccak256\n        /* \"Qvoting.sol\":4851:4955  return (proposals[_proposalId].votes[proposals[_proposalId].result[1]],proposals[_proposalId].result[1]) */\n      dup1\n      dup1\n      sload\n      tag_178\n      swap1\n      tag_73\n      jump\t// in\n    tag_178:\n      dup1\n      0x1f\n      add\n      0x20\n      dup1\n      swap2\n      div\n      mul\n      0x20\n      add\n      mload(0x40)\n      swap1\n      dup2\n      add\n      0x40\n      mstore\n      dup1\n      swap3\n      swap2\n      swap1\n      dup2\n      dup2\n      mstore\n      0x20\n      add\n      dup3\n      dup1\n      sload\n      tag_179\n      swap1\n      tag_73\n      jump\t// in\n    tag_179:\n      dup1\n      iszero\n      tag_180\n      jumpi\n      dup1\n      0x1f\n      lt\n      tag_181\n      jumpi\n      0x0100\n      dup1\n      dup4\n      sload\n      div\n      mul\n      dup4\n      mstore\n      swap2\n      0x20\n      add\n      swap2\n      jump(tag_180)\n    tag_181:\n      dup3\n      add\n      swap2\n      swap1\n      0x00\n      mstore\n      keccak256(0x00, 0x20)\n      swap1\n    tag_182:\n      dup2\n      sload\n      dup2\n      mstore\n      swap1\n      0x01\n      add\n      swap1\n      0x20\n      add\n      dup1\n      dup4\n      gt\n      tag_182\n      jumpi\n      dup3\n      swap1\n      sub\n      0x1f\n      and\n      dup3\n      add\n      swap2\n    tag_180:\n      pop\n      pop\n      pop\n      pop\n      pop\n      swap1\n      pop\n      swap2\n      pop\n      swap2\n      pop\n        /* \"Qvoting.sol\":4611:4965  function resultOfProposal(uint _proposalId) public view returns(uint, string memory){\r... */\n      swap2\n      pop\n      swap2\n      jump\t// out\n        /* \"Qvoting.sol\":1400:1472  mapping(address => mapping(uint => voterLibrary.voter)) public allVoters */\n    tag_64:\n      mstore(0x20, 0x08)\n      dup2\n      0x00\n      mstore\n      mstore(0x20, keccak256(0x00, 0x40))\n      dup1\n      0x00\n      mstore\n      keccak256(0x00, 0x40)\n      0x00\n      swap2\n      pop\n      swap2\n      pop\n      pop\n      dup1\n      0x00\n      add\n      sload\n      swap1\n      dup1\n      0x01\n      add\n      0x00\n      swap1\n      sload\n      swap1\n      0x0100\n      exp\n      swap1\n      div\n      0xffffffffffffffffffffffffffffffffffffffff\n      and\n      swap1\n      dup1\n      0x01\n      add\n      0x14\n      swap1\n      sload\n      swap1\n      0x0100\n      exp\n      swap1\n      div\n      0xff\n      and\n      swap1\n      dup1\n      0x02\n      add\n      sload\n      swap1\n      pop\n      dup5\n      jump\t// out\n        /* \"Qvoting.sol\":1201:1273  mapping(address => UserProposalLibrary.UserProposal) public userProposal */\n    tag_69:\n      mstore(0x20, 0x06)\n      dup1\n      0x00\n      mstore\n      keccak256(0x00, 0x40)\n      0x00\n      swap2\n      pop\n      swap1\n      pop\n      dup1\n      0x00\n      add\n      0x00\n      swap1\n      sload\n      swap1\n      0x0100\n      exp\n      swap1\n      div\n      0xffffffffffffffffffffffffffffffff\n      and\n      swap1\n      dup1\n      0x00\n      add\n      0x10\n      swap1\n      sload\n      swap1\n      0x0100\n      exp\n      swap1\n      div\n      0xffffffffffffffffffffffffffffffff\n      and\n      swap1\n      pop\n      dup3\n      jump\t// out\n        /* \"Library/ProposalLibrary.sol\":806:1983  function createProposal(proposal storage self, uint8 _status, address[] memory _voters, address _creator,\r... */\n    tag_100:\n        /* \"Library/ProposalLibrary.sol\":1044:1048  bool */\n      0x00\n        /* \"Library/ProposalLibrary.sol\":1099:1107  _creator */\n      dup8\n        /* \"Library/ProposalLibrary.sol\":1084:1088  self */\n      dup12\n        /* \"Library/ProposalLibrary.sol\":1084:1096  self.creator */\n      0x00\n      add\n      0x00\n        /* \"Library/ProposalLibrary.sol\":1084:1107  self.creator = _creator */\n      0x0100\n      exp\n      dup2\n      sload\n      dup2\n      0xffffffffffffffffffffffffffffffffffffffff\n      mul\n      not\n      and\n      swap1\n      dup4\n      0xffffffffffffffffffffffffffffffffffffffff\n      and\n      mul\n      or\n      swap1\n      sstore\n      pop\n        /* \"Library/ProposalLibrary.sol\":1156:1163  _status */\n      dup10\n        /* \"Library/ProposalLibrary.sol\":1142:1146  self */\n      dup12\n        /* \"Library/ProposalLibrary.sol\":1142:1153  self.status */\n      0x00\n      add\n      0x14\n        /* \"Library/ProposalLibrary.sol\":1142:1163  self.status = _status */\n      0x0100\n      exp\n      dup2\n      sload\n      dup2\n      0xff\n      mul\n      not\n      and\n      swap1\n      dup4\n      0xff\n      and\n      mul\n      or\n      swap1\n      sstore\n      pop\n        /* \"Library/ProposalLibrary.sol\":1210:1215  _disc */\n      dup5\n        /* \"Library/ProposalLibrary.sol\":1198:1202  self */\n      dup12\n        /* \"Library/ProposalLibrary.sol\":1198:1207  self.disc */\n      0x01\n      add\n        /* \"Library/ProposalLibrary.sol\":1198:1215  self.disc = _disc */\n      swap1\n      dup1\n      mload\n      swap1\n      0x20\n      add\n      swap1\n      tag_184\n      swap3\n      swap2\n      swap1\n      tag_185\n      jump\t// in\n    tag_184:\n      pop\n        /* \"Library/ProposalLibrary.sol\":1267:1277  _startTime */\n      dup7\n        /* \"Library/ProposalLibrary.sol\":1250:1254  self */\n      dup12\n        /* \"Library/ProposalLibrary.sol\":1250:1264  self.startTime */\n      0x02\n      add\n        /* \"Library/ProposalLibrary.sol\":1250:1277  self.startTime = _startTime */\n      dup2\n      swap1\n      sstore\n      pop\n        /* \"Library/ProposalLibrary.sol\":1334:1349  _expirationTime */\n      dup6\n        /* \"Library/ProposalLibrary.sol\":1312:1316  self */\n      dup12\n        /* \"Library/ProposalLibrary.sol\":1312:1331  self.expirationTime */\n      0x03\n      add\n        /* \"Library/ProposalLibrary.sol\":1312:1349  self.expirationTime = _expirationTime */\n      dup2\n      swap1\n      sstore\n      pop\n        /* \"Library/ProposalLibrary.sol\":1411:1416  _cand */\n      dup3\n      dup3\n        /* \"Library/ProposalLibrary.sol\":1411:1423  _cand.length */\n      swap1\n      pop\n        /* \"Library/ProposalLibrary.sol\":1384:1388  self */\n      dup12\n        /* \"Library/ProposalLibrary.sol\":1384:1401  self.numOfOptions */\n      0x04\n      add\n      0x00\n        /* \"Library/ProposalLibrary.sol\":1384:1424  self.numOfOptions = uint16(_cand.length) */\n      0x0100\n      exp\n      dup2\n      sload\n      dup2\n      0xffff\n      mul\n      not\n      and\n      swap1\n      dup4\n      0xffff\n      and\n      mul\n      or\n      swap1\n      sstore\n      pop\n        /* \"Library/ProposalLibrary.sol\":1476:1486  _voteRight */\n      dup4\n        /* \"Library/ProposalLibrary.sol\":1459:1463  self */\n      dup12\n        /* \"Library/ProposalLibrary.sol\":1459:1473  self.voteRight */\n      0x05\n      add\n        /* \"Library/ProposalLibrary.sol\":1459:1486  self.voteRight = _voteRight */\n      dup2\n      swap1\n      sstore\n      pop\n        /* \"Library/ProposalLibrary.sol\":1525:1534  uint256 i */\n      0x00\n        /* \"Library/ProposalLibrary.sol\":1521:1726  for(uint256 i=0;i<_cand.length;i++){\r... */\n    tag_186:\n        /* \"Library/ProposalLibrary.sol\":1539:1544  _cand */\n      dup4\n      dup4\n        /* \"Library/ProposalLibrary.sol\":1539:1551  _cand.length */\n      swap1\n      pop\n        /* \"Library/ProposalLibrary.sol\":1537:1538  i */\n      dup2\n        /* \"Library/ProposalLibrary.sol\":1537:1551  i<_cand.length */\n      lt\n        /* \"Library/ProposalLibrary.sol\":1521:1726  for(uint256 i=0;i<_cand.length;i++){\r... */\n      iszero\n      tag_187\n      jumpi\n        /* \"Library/ProposalLibrary.sol\":1617:1621  true */\n      0x01\n        /* \"Library/ProposalLibrary.sol\":1595:1599  self */\n      dup13\n        /* \"Library/ProposalLibrary.sol\":1595:1604  self.cand */\n      0x07\n      add\n        /* \"Library/ProposalLibrary.sol\":1605:1610  _cand */\n      dup6\n      dup6\n        /* \"Library/ProposalLibrary.sol\":1611:1612  i */\n      dup5\n        /* \"Library/ProposalLibrary.sol\":1605:1613  _cand[i] */\n      dup2\n      dup2\n      lt\n      tag_189\n      jumpi\n      tag_190\n      tag_109\n      jump\t// in\n    tag_190:\n    tag_189:\n      swap1\n      pop\n      0x20\n      mul\n      dup2\n      add\n      swap1\n      tag_191\n      swap2\n      swap1\n      tag_192\n      jump\t// in\n    tag_191:\n        /* \"Library/ProposalLibrary.sol\":1595:1614  self.cand[_cand[i]] */\n      mload(0x40)\n      tag_193\n      swap3\n      swap2\n      swap1\n      tag_194\n      jump\t// in\n    tag_193:\n      swap1\n      dup2\n      mstore\n      0x20\n      add\n      mload(0x40)\n      dup1\n      swap2\n      sub\n      swap1\n      keccak256\n      0x00\n        /* \"Library/ProposalLibrary.sol\":1595:1621  self.cand[_cand[i]] = true */\n      0x0100\n      exp\n      dup2\n      sload\n      dup2\n      0xff\n      mul\n      not\n      and\n      swap1\n      dup4\n      iszero\n      iszero\n      mul\n      or\n      swap1\n      sstore\n      pop\n        /* \"Library/ProposalLibrary.sol\":1682:1687  _cand */\n      dup4\n      dup4\n        /* \"Library/ProposalLibrary.sol\":1688:1689  i */\n      dup3\n        /* \"Library/ProposalLibrary.sol\":1682:1690  _cand[i] */\n      dup2\n      dup2\n      lt\n      tag_195\n      jumpi\n      tag_196\n      tag_109\n      jump\t// in\n    tag_196:\n    tag_195:\n      swap1\n      pop\n      0x20\n      mul\n      dup2\n      add\n      swap1\n      tag_197\n      swap2\n      swap1\n      tag_192\n      jump\t// in\n    tag_197:\n        /* \"Library/ProposalLibrary.sol\":1660:1664  self */\n      dup14\n        /* \"Library/ProposalLibrary.sol\":1660:1673  self.candHash */\n      0x08\n      add\n        /* \"Library/ProposalLibrary.sol\":1660:1678  self.candHash[i+1] */\n      0x00\n        /* \"Library/ProposalLibrary.sol\":1676:1677  1 */\n      0x01\n        /* \"Library/ProposalLibrary.sol\":1674:1675  i */\n      dup6\n        /* \"Library/ProposalLibrary.sol\":1674:1677  i+1 */\n      tag_198\n      swap2\n      swap1\n      tag_149\n      jump\t// in\n    tag_198:\n        /* \"Library/ProposalLibrary.sol\":1660:1678  self.candHash[i+1] */\n      dup2\n      mstore\n      0x20\n      add\n      swap1\n      dup2\n      mstore\n      0x20\n      add\n      0x00\n      keccak256\n        /* \"Library/ProposalLibrary.sol\":1660:1690  self.candHash[i+1] =  _cand[i] */\n      swap2\n      swap1\n      tag_199\n      swap3\n      swap2\n      swap1\n      tag_200\n      jump\t// in\n    tag_199:\n      pop\n        /* \"Library/ProposalLibrary.sol\":1552:1555  i++ */\n      dup1\n      dup1\n      tag_201\n      swap1\n      tag_98\n      jump\t// in\n    tag_201:\n      swap2\n      pop\n      pop\n        /* \"Library/ProposalLibrary.sol\":1521:1726  for(uint256 i=0;i<_cand.length;i++){\r... */\n      jump(tag_186)\n    tag_187:\n      pop\n        /* \"Library/ProposalLibrary.sol\":1764:1773  uint256 i */\n      0x00\n        /* \"Library/ProposalLibrary.sol\":1760:1902  for(uint256 i=0;i<_voters.length;i++){\r... */\n    tag_202:\n        /* \"Library/ProposalLibrary.sol\":1778:1785  _voters */\n      dup10\n        /* \"Library/ProposalLibrary.sol\":1778:1792  _voters.length */\n      mload\n        /* \"Library/ProposalLibrary.sol\":1776:1777  i */\n      dup2\n        /* \"Library/ProposalLibrary.sol\":1776:1792  i<_voters.length */\n      lt\n        /* \"Library/ProposalLibrary.sol\":1760:1902  for(uint256 i=0;i<_voters.length;i++){\r... */\n      iszero\n      tag_203\n      jumpi\n        /* \"Library/ProposalLibrary.sol\":1862:1866  true */\n      0x01\n        /* \"Library/ProposalLibrary.sol\":1836:1840  self */\n      dup13\n        /* \"Library/ProposalLibrary.sol\":1836:1847  self.voters */\n      0x06\n      add\n        /* \"Library/ProposalLibrary.sol\":1836:1859  self.voters[_voters[i]] */\n      0x00\n        /* \"Library/ProposalLibrary.sol\":1848:1855  _voters */\n      dup13\n        /* \"Library/ProposalLibrary.sol\":1856:1857  i */\n      dup5\n        /* \"Library/ProposalLibrary.sol\":1848:1858  _voters[i] */\n      dup2\n      mload\n      dup2\n      lt\n      tag_205\n      jumpi\n      tag_206\n      tag_109\n      jump\t// in\n    tag_206:\n    tag_205:\n      0x20\n      mul\n      0x20\n      add\n      add\n      mload\n        /* \"Library/ProposalLibrary.sol\":1836:1859  self.voters[_voters[i]] */\n      0xffffffffffffffffffffffffffffffffffffffff\n      and\n      0xffffffffffffffffffffffffffffffffffffffff\n      and\n      dup2\n      mstore\n      0x20\n      add\n      swap1\n      dup2\n      mstore\n      0x20\n      add\n      0x00\n      keccak256\n      0x00\n        /* \"Library/ProposalLibrary.sol\":1836:1866  self.voters[_voters[i]] = true */\n      0x0100\n      exp\n      dup2\n      sload\n      dup2\n      0xff\n      mul\n      not\n      and\n      swap1\n      dup4\n      iszero\n      iszero\n      mul\n      or\n      swap1\n      sstore\n      pop\n        /* \"Library/ProposalLibrary.sol\":1793:1796  i++ */\n      dup1\n      dup1\n      tag_207\n      swap1\n      tag_98\n      jump\t// in\n    tag_207:\n      swap2\n      pop\n      pop\n        /* \"Library/ProposalLibrary.sol\":1760:1902  for(uint256 i=0;i<_voters.length;i++){\r... */\n      jump(tag_202)\n    tag_203:\n      pop\n        /* \"Library/ProposalLibrary.sol\":1945:1949  true */\n      0x01\n        /* \"Library/ProposalLibrary.sol\":1938:1949  return true */\n      swap1\n      pop\n        /* \"Library/ProposalLibrary.sol\":806:1983  function createProposal(proposal storage self, uint8 _status, address[] memory _voters, address _creator,\r... */\n      swap11\n      swap10\n      pop\n      pop\n      pop\n      pop\n      pop\n      pop\n      pop\n      pop\n      pop\n      pop\n      jump\t// out\n        /* \"QvToken/QvToken.sol\":398:502  function mint(address to , uint amount) onlyOwner(_msgSender()) internal {\r... */\n    tag_110:\n        /* \"QvToken/QvToken.sol\":448:460  _msgSender() */\n      tag_208\n        /* \"QvToken/QvToken.sol\":448:458  _msgSender */\n      tag_124\n        /* \"QvToken/QvToken.sol\":448:460  _msgSender() */\n      jump\t// in\n    tag_208:\n        /* \"QvToken/QvToken.sol\":366:375  msgSender */\n      dup1\n        /* \"QvToken/QvToken.sol\":357:375  owner == msgSender */\n      0xffffffffffffffffffffffffffffffffffffffff\n      and\n        /* \"QvToken/QvToken.sol\":357:362  owner */\n      0x04\n      0x00\n      swap1\n      sload\n      swap1\n      0x0100\n      exp\n      swap1\n      div\n      0xffffffffffffffffffffffffffffffffffffffff\n      and\n        /* \"QvToken/QvToken.sol\":357:375  owner == msgSender */\n      0xffffffffffffffffffffffffffffffffffffffff\n      and\n      eq\n        /* \"QvToken/QvToken.sol\":349:376  require(owner == msgSender) */\n      tag_210\n      jumpi\n      0x00\n      dup1\n      revert\n    tag_210:\n        /* \"QvToken/QvToken.sol\":478:494  _mint(to,amount) */\n      tag_212\n        /* \"QvToken/QvToken.sol\":484:486  to */\n      dup4\n        /* \"QvToken/QvToken.sol\":487:493  amount */\n      dup4\n        /* \"QvToken/QvToken.sol\":478:483  _mint */\n      tag_213\n        /* \"QvToken/QvToken.sol\":478:494  _mint(to,amount) */\n      jump\t// in\n    tag_212:\n        /* \"QvToken/QvToken.sol\":398:502  function mint(address to , uint amount) onlyOwner(_msgSender()) internal {\r... */\n      pop\n      pop\n      pop\n      jump\t// out\n        /* \"Library/VoterLibrary.sol\":1090:1525  function createVoter(voter storage self, uint _proposalId, address _voterAddress, bool _hasVoted, uint _voteNum) internal returns(bool){\r... */\n    tag_116:\n        /* \"Library/VoterLibrary.sol\":1220:1224  bool */\n      0x00\n        /* \"Library/VoterLibrary.sol\":1278:1289  _proposalId */\n      dup5\n        /* \"Library/VoterLibrary.sol\":1260:1264  self */\n      dup7\n        /* \"Library/VoterLibrary.sol\":1260:1275  self.proposalId */\n      0x00\n      add\n        /* \"Library/VoterLibrary.sol\":1260:1289  self.proposalId = _proposalId */\n      dup2\n      swap1\n      sstore\n      pop\n        /* \"Library/VoterLibrary.sol\":1344:1357  _voterAddress */\n      dup4\n        /* \"Library/VoterLibrary.sol\":1324:1328  self */\n      dup7\n        /* \"Library/VoterLibrary.sol\":1324:1341  self.voterAddress */\n      0x01\n      add\n      0x00\n        /* \"Library/VoterLibrary.sol\":1324:1357  self.voterAddress = _voterAddress */\n      0x0100\n      exp\n      dup2\n      sload\n      dup2\n      0xffffffffffffffffffffffffffffffffffffffff\n      mul\n      not\n      and\n      swap1\n      dup4\n      0xffffffffffffffffffffffffffffffffffffffff\n      and\n      mul\n      or\n      swap1\n      sstore\n      pop\n        /* \"Library/VoterLibrary.sol\":1408:1417  _hasVoted */\n      dup3\n        /* \"Library/VoterLibrary.sol\":1392:1396  self */\n      dup7\n        /* \"Library/VoterLibrary.sol\":1392:1405  self.hasVoted */\n      0x01\n      add\n      0x14\n        /* \"Library/VoterLibrary.sol\":1392:1417  self.hasVoted = _hasVoted */\n      0x0100\n      exp\n      dup2\n      sload\n      dup2\n      0xff\n      mul\n      not\n      and\n      swap1\n      dup4\n      iszero\n      iszero\n      mul\n      or\n      swap1\n      sstore\n      pop\n        /* \"Library/VoterLibrary.sol\":1467:1475  _voteNum */\n      dup2\n        /* \"Library/VoterLibrary.sol\":1452:1456  self */\n      dup7\n        /* \"Library/VoterLibrary.sol\":1452:1464  self.voteNum */\n      0x02\n      add\n        /* \"Library/VoterLibrary.sol\":1452:1475  self.voteNum = _voteNum */\n      dup2\n      swap1\n      sstore\n      pop\n        /* \"Library/VoterLibrary.sol\":1517:1521  true */\n      0x01\n        /* \"Library/VoterLibrary.sol\":1510:1521  return true */\n      swap1\n      pop\n        /* \"Library/VoterLibrary.sol\":1090:1525  function createVoter(voter storage self, uint _proposalId, address _voterAddress, bool _hasVoted, uint _voteNum) internal returns(bool){\r... */\n      swap6\n      swap5\n      pop\n      pop\n      pop\n      pop\n      pop\n      jump\t// out\n        /* \"QvToken/Context.sol\":656:754  function _msgSender() internal view virtual returns (address) {\r... */\n    tag_124:\n        /* \"QvToken/Context.sol\":709:716  address */\n      0x00\n        /* \"QvToken/Context.sol\":736:746  msg.sender */\n      caller\n        /* \"QvToken/Context.sol\":729:746  return msg.sender */\n      swap1\n      pop\n        /* \"QvToken/Context.sol\":656:754  function _msgSender() internal view virtual returns (address) {\r... */\n      swap1\n      jump\t// out\n        /* \"Library/UserProposalLibrary.sol\":573:794  function updateProposalList(UserProposal storage self, uint _proposalId) internal returns(bool){\r... */\n    tag_125:\n        /* \"Library/UserProposalLibrary.sol\":663:667  bool */\n      0x00\n        /* \"Library/UserProposalLibrary.sol\":679:683  self */\n      dup3\n        /* \"Library/UserProposalLibrary.sol\":679:697  self.proposalCount */\n      0x00\n      add\n      0x00\n        /* \"Library/UserProposalLibrary.sol\":679:699  self.proposalCount++ */\n      dup2\n      dup2\n      swap1\n      sload\n      swap1\n      0x0100\n      exp\n      swap1\n      div\n      0xffffffffffffffffffffffffffffffff\n      and\n      dup1\n      swap3\n      swap2\n      swap1\n      tag_217\n      swap1\n      tag_218\n      jump\t// in\n    tag_217:\n      swap2\n      swap1\n      0x0100\n      exp\n      dup2\n      sload\n      dup2\n      0xffffffffffffffffffffffffffffffff\n      mul\n      not\n      and\n      swap1\n      dup4\n      0xffffffffffffffffffffffffffffffff\n      and\n      mul\n      or\n      swap1\n      sstore\n      pop\n      pop\n        /* \"Library/UserProposalLibrary.sol\":753:764  _proposalId */\n      dup2\n        /* \"Library/UserProposalLibrary.sol\":710:714  self */\n      dup4\n        /* \"Library/UserProposalLibrary.sol\":710:730  self.proposalCreated */\n      0x01\n      add\n        /* \"Library/UserProposalLibrary.sol\":710:750  self.proposalCreated[self.proposalCount] */\n      0x00\n        /* \"Library/UserProposalLibrary.sol\":731:735  self */\n      dup6\n        /* \"Library/UserProposalLibrary.sol\":731:749  self.proposalCount */\n      0x00\n      add\n      0x00\n      swap1\n      sload\n      swap1\n      0x0100\n      exp\n      swap1\n      div\n      0xffffffffffffffffffffffffffffffff\n      and\n        /* \"Library/UserProposalLibrary.sol\":710:750  self.proposalCreated[self.proposalCount] */\n      0xffffffffffffffffffffffffffffffff\n      and\n      0xffffffffffffffffffffffffffffffff\n      and\n      dup2\n      mstore\n      0x20\n      add\n      swap1\n      dup2\n      mstore\n      0x20\n      add\n      0x00\n      keccak256\n        /* \"Library/UserProposalLibrary.sol\":710:764  self.proposalCreated[self.proposalCount] = _proposalId */\n      dup2\n      swap1\n      sstore\n      pop\n        /* \"Library/UserProposalLibrary.sol\":782:786  true */\n      0x01\n        /* \"Library/UserProposalLibrary.sol\":775:786  return true */\n      swap1\n      pop\n        /* \"Library/UserProposalLibrary.sol\":573:794  function updateProposalList(UserProposal storage self, uint _proposalId) internal returns(bool){\r... */\n      swap3\n      swap2\n      pop\n      pop\n      jump\t// out\n        /* \"Library/ProposalLibrary.sol\":2018:3446  function responseProposal(proposal storage self, address _voter, string[] memory _hash, uint[] memory v) internal returns(bool){\r... */\n    tag_155:\n        /* \"Library/ProposalLibrary.sol\":2140:2144  bool */\n      0x00\n        /* \"Library/ProposalLibrary.sol\":2179:2180  2 */\n      0x02\n        /* \"Library/ProposalLibrary.sol\":2164:2168  self */\n      dup6\n        /* \"Library/ProposalLibrary.sol\":2164:2175  self.status */\n      0x00\n      add\n      0x14\n      swap1\n      sload\n      swap1\n      0x0100\n      exp\n      swap1\n      div\n      0xff\n      and\n        /* \"Library/ProposalLibrary.sol\":2164:2180  self.status == 2 */\n      0xff\n      and\n      eq\n        /* \"Library/ProposalLibrary.sol\":2156:2203  require(self.status == 2, \"Proposal: inactive\") */\n      tag_220\n      jumpi\n      mload(0x40)\n      0x08c379a000000000000000000000000000000000000000000000000000000000\n      dup2\n      mstore\n      0x04\n      add\n      tag_221\n      swap1\n      tag_222\n      jump\t// in\n    tag_221:\n      mload(0x40)\n      dup1\n      swap2\n      sub\n      swap1\n      revert\n    tag_220:\n        /* \"Library/ProposalLibrary.sol\":2241:2245  self */\n      dup5\n        /* \"Library/ProposalLibrary.sol\":2241:2255  self.startTime */\n      0x02\n      add\n      sload\n        /* \"Library/ProposalLibrary.sol\":2222:2237  block.timestamp */\n      timestamp\n        /* \"Library/ProposalLibrary.sol\":2222:2255  block.timestamp >= self.startTime */\n      lt\n      iszero\n        /* \"Library/ProposalLibrary.sol\":2214:2284  require(block.timestamp >= self.startTime, \"proposal not started yet\") */\n      tag_223\n      jumpi\n      mload(0x40)\n      0x08c379a000000000000000000000000000000000000000000000000000000000\n      dup2\n      mstore\n      0x04\n      add\n      tag_224\n      swap1\n      tag_225\n      jump\t// in\n    tag_224:\n      mload(0x40)\n      dup1\n      swap2\n      sub\n      swap1\n      revert\n    tag_223:\n        /* \"Library/ProposalLibrary.sol\":2313:2317  self */\n      dup5\n        /* \"Library/ProposalLibrary.sol\":2313:2332  self.expirationTime */\n      0x03\n      add\n      sload\n        /* \"Library/ProposalLibrary.sol\":2295:2310  block.timestamp */\n      timestamp\n        /* \"Library/ProposalLibrary.sol\":2295:2332  block.timestamp > self.expirationTime */\n      gt\n        /* \"Library/ProposalLibrary.sol\":2292:3147  if(block.timestamp > self.expirationTime){\r... */\n      iszero\n      tag_226\n      jumpi\n        /* \"Library/ProposalLibrary.sol\":2402:2403  2 */\n      0x02\n        /* \"Library/ProposalLibrary.sol\":2388:2392  self */\n      dup6\n        /* \"Library/ProposalLibrary.sol\":2388:2399  self.status */\n      0x00\n      add\n      0x14\n        /* \"Library/ProposalLibrary.sol\":2388:2403  self.status = 2 */\n      0x0100\n      exp\n      dup2\n      sload\n      dup2\n      0xff\n      mul\n      not\n      and\n      swap1\n      dup4\n      0xff\n      and\n      mul\n      or\n      swap1\n      sstore\n      pop\n        /* \"Library/ProposalLibrary.sol\":2418:2435  uint largestCount */\n      0x00\n        /* \"Library/ProposalLibrary.sol\":2438:2442  self */\n      dup6\n        /* \"Library/ProposalLibrary.sol\":2438:2448  self.votes */\n      0x0a\n      add\n        /* \"Library/ProposalLibrary.sol\":2449:2453  self */\n      dup7\n        /* \"Library/ProposalLibrary.sol\":2449:2462  self.candHash */\n      0x08\n      add\n        /* \"Library/ProposalLibrary.sol\":2449:2465  self.candHash[1] */\n      0x00\n        /* \"Library/ProposalLibrary.sol\":2463:2464  1 */\n      0x01\n        /* \"Library/ProposalLibrary.sol\":2449:2465  self.candHash[1] */\n      dup2\n      mstore\n      0x20\n      add\n      swap1\n      dup2\n      mstore\n      0x20\n      add\n      0x00\n      keccak256\n        /* \"Library/ProposalLibrary.sol\":2438:2466  self.votes[self.candHash[1]] */\n      mload(0x40)\n      tag_227\n      swap2\n      swap1\n      tag_177\n      jump\t// in\n    tag_227:\n      swap1\n      dup2\n      mstore\n      0x20\n      add\n      mload(0x40)\n      dup1\n      swap2\n      sub\n      swap1\n      keccak256\n      sload\n        /* \"Library/ProposalLibrary.sol\":2418:2466  uint largestCount = self.votes[self.candHash[1]] */\n      swap1\n      pop\n        /* \"Library/ProposalLibrary.sol\":2481:2497  uint winnerCount */\n      0x00\n        /* \"Library/ProposalLibrary.sol\":2500:2501  1 */\n      0x01\n        /* \"Library/ProposalLibrary.sol\":2481:2501  uint winnerCount = 1 */\n      swap1\n      pop\n        /* \"Library/ProposalLibrary.sol\":2533:2537  self */\n      dup7\n        /* \"Library/ProposalLibrary.sol\":2533:2546  self.candHash */\n      0x08\n      add\n        /* \"Library/ProposalLibrary.sol\":2533:2549  self.candHash[1] */\n      0x00\n        /* \"Library/ProposalLibrary.sol\":2547:2548  1 */\n      0x01\n        /* \"Library/ProposalLibrary.sol\":2533:2549  self.candHash[1] */\n      dup2\n      mstore\n      0x20\n      add\n      swap1\n      dup2\n      mstore\n      0x20\n      add\n      0x00\n      keccak256\n        /* \"Library/ProposalLibrary.sol\":2516:2520  self */\n      dup8\n        /* \"Library/ProposalLibrary.sol\":2516:2527  self.result */\n      0x09\n      add\n        /* \"Library/ProposalLibrary.sol\":2516:2530  self.result[1] */\n      0x00\n        /* \"Library/ProposalLibrary.sol\":2528:2529  1 */\n      0x01\n        /* \"Library/ProposalLibrary.sol\":2516:2530  self.result[1] */\n      dup2\n      mstore\n      0x20\n      add\n      swap1\n      dup2\n      mstore\n      0x20\n      add\n      0x00\n      keccak256\n        /* \"Library/ProposalLibrary.sol\":2516:2549  self.result[1] = self.candHash[1] */\n      swap1\n      dup1\n      sload\n      tag_228\n      swap1\n      tag_73\n      jump\t// in\n    tag_228:\n      tag_229\n      swap3\n      swap2\n      swap1\n      tag_230\n      jump\t// in\n    tag_229:\n      pop\n        /* \"Library/ProposalLibrary.sol\":2631:2639  uint16 i */\n      0x00\n        /* \"Library/ProposalLibrary.sol\":2642:2643  2 */\n      0x02\n        /* \"Library/ProposalLibrary.sol\":2631:2643  uint16 i = 2 */\n      swap1\n      pop\n        /* \"Library/ProposalLibrary.sol\":2627:3109  for(uint16 i = 2; i <= self.numOfOptions; i++){\r... */\n    tag_231:\n        /* \"Library/ProposalLibrary.sol\":2650:2654  self */\n      dup8\n        /* \"Library/ProposalLibrary.sol\":2650:2667  self.numOfOptions */\n      0x04\n      add\n      0x00\n      swap1\n      sload\n      swap1\n      0x0100\n      exp\n      swap1\n      div\n      0xffff\n      and\n        /* \"Library/ProposalLibrary.sol\":2645:2667  i <= self.numOfOptions */\n      0xffff\n      and\n        /* \"Library/ProposalLibrary.sol\":2645:2646  i */\n      dup2\n        /* \"Library/ProposalLibrary.sol\":2645:2667  i <= self.numOfOptions */\n      0xffff\n      and\n      gt\n        /* \"Library/ProposalLibrary.sol\":2627:3109  for(uint16 i = 2; i <= self.numOfOptions; i++){\r... */\n      tag_232\n      jumpi\n        /* \"Library/ProposalLibrary.sol\":2726:2738  largestCount */\n      dup3\n        /* \"Library/ProposalLibrary.sol\":2695:2699  self */\n      dup9\n        /* \"Library/ProposalLibrary.sol\":2695:2705  self.votes */\n      0x0a\n      add\n        /* \"Library/ProposalLibrary.sol\":2706:2710  self */\n      dup10\n        /* \"Library/ProposalLibrary.sol\":2706:2719  self.candHash */\n      0x08\n      add\n        /* \"Library/ProposalLibrary.sol\":2706:2722  self.candHash[i] */\n      0x00\n        /* \"Library/ProposalLibrary.sol\":2720:2721  i */\n      dup5\n        /* \"Library/ProposalLibrary.sol\":2706:2722  self.candHash[i] */\n      0xffff\n      and\n      dup2\n      mstore\n      0x20\n      add\n      swap1\n      dup2\n      mstore\n      0x20\n      add\n      0x00\n      keccak256\n        /* \"Library/ProposalLibrary.sol\":2695:2723  self.votes[self.candHash[i]] */\n      mload(0x40)\n      tag_234\n      swap2\n      swap1\n      tag_177\n      jump\t// in\n    tag_234:\n      swap1\n      dup2\n      mstore\n      0x20\n      add\n      mload(0x40)\n      dup1\n      swap2\n      sub\n      swap1\n      keccak256\n      sload\n        /* \"Library/ProposalLibrary.sol\":2695:2738  self.votes[self.candHash[i]] > largestCount */\n      gt\n        /* \"Library/ProposalLibrary.sol\":2692:3094  if(self.votes[self.candHash[i]] > largestCount){\r... */\n      iszero\n      tag_235\n      jumpi\n        /* \"Library/ProposalLibrary.sol\":2777:2781  self */\n      dup8\n        /* \"Library/ProposalLibrary.sol\":2777:2787  self.votes */\n      0x0a\n      add\n        /* \"Library/ProposalLibrary.sol\":2788:2792  self */\n      dup9\n        /* \"Library/ProposalLibrary.sol\":2788:2801  self.candHash */\n      0x08\n      add\n        /* \"Library/ProposalLibrary.sol\":2788:2804  self.candHash[i] */\n      0x00\n        /* \"Library/ProposalLibrary.sol\":2802:2803  i */\n      dup4\n        /* \"Library/ProposalLibrary.sol\":2788:2804  self.candHash[i] */\n      0xffff\n      and\n      dup2\n      mstore\n      0x20\n      add\n      swap1\n      dup2\n      mstore\n      0x20\n      add\n      0x00\n      keccak256\n        /* \"Library/ProposalLibrary.sol\":2777:2805  self.votes[self.candHash[i]] */\n      mload(0x40)\n      tag_236\n      swap2\n      swap1\n      tag_177\n      jump\t// in\n    tag_236:\n      swap1\n      dup2\n      mstore\n      0x20\n      add\n      mload(0x40)\n      dup1\n      swap2\n      sub\n      swap1\n      keccak256\n      sload\n        /* \"Library/ProposalLibrary.sol\":2762:2805  largestCount = self.votes[self.candHash[i]] */\n      swap3\n      pop\n        /* \"Library/ProposalLibrary.sol\":2842:2843  1 */\n      0x01\n        /* \"Library/ProposalLibrary.sol\":2828:2843  winnerCount = 1 */\n      swap2\n      pop\n        /* \"Library/ProposalLibrary.sol\":2883:2887  self */\n      dup8\n        /* \"Library/ProposalLibrary.sol\":2883:2896  self.candHash */\n      0x08\n      add\n        /* \"Library/ProposalLibrary.sol\":2883:2899  self.candHash[i] */\n      0x00\n        /* \"Library/ProposalLibrary.sol\":2897:2898  i */\n      dup3\n        /* \"Library/ProposalLibrary.sol\":2883:2899  self.candHash[i] */\n      0xffff\n      and\n      dup2\n      mstore\n      0x20\n      add\n      swap1\n      dup2\n      mstore\n      0x20\n      add\n      0x00\n      keccak256\n        /* \"Library/ProposalLibrary.sol\":2866:2870  self */\n      dup9\n        /* \"Library/ProposalLibrary.sol\":2866:2877  self.result */\n      0x09\n      add\n        /* \"Library/ProposalLibrary.sol\":2866:2880  self.result[1] */\n      0x00\n        /* \"Library/ProposalLibrary.sol\":2878:2879  1 */\n      0x01\n        /* \"Library/ProposalLibrary.sol\":2866:2880  self.result[1] */\n      dup2\n      mstore\n      0x20\n      add\n      swap1\n      dup2\n      mstore\n      0x20\n      add\n      0x00\n      keccak256\n        /* \"Library/ProposalLibrary.sol\":2866:2899  self.result[1] = self.candHash[i] */\n      swap1\n      dup1\n      sload\n      tag_237\n      swap1\n      tag_73\n      jump\t// in\n    tag_237:\n      tag_238\n      swap3\n      swap2\n      swap1\n      tag_230\n      jump\t// in\n    tag_238:\n      pop\n        /* \"Library/ProposalLibrary.sol\":2692:3094  if(self.votes[self.candHash[i]] > largestCount){\r... */\n      jump(tag_239)\n    tag_235:\n        /* \"Library/ProposalLibrary.sol\":2959:2971  largestCount */\n      dup3\n        /* \"Library/ProposalLibrary.sol\":2927:2931  self */\n      dup9\n        /* \"Library/ProposalLibrary.sol\":2927:2937  self.votes */\n      0x0a\n      add\n        /* \"Library/ProposalLibrary.sol\":2938:2942  self */\n      dup10\n        /* \"Library/ProposalLibrary.sol\":2938:2951  self.candHash */\n      0x08\n      add\n        /* \"Library/ProposalLibrary.sol\":2938:2954  self.candHash[i] */\n      0x00\n        /* \"Library/ProposalLibrary.sol\":2952:2953  i */\n      dup5\n        /* \"Library/ProposalLibrary.sol\":2938:2954  self.candHash[i] */\n      0xffff\n      and\n      dup2\n      mstore\n      0x20\n      add\n      swap1\n      dup2\n      mstore\n      0x20\n      add\n      0x00\n      keccak256\n        /* \"Library/ProposalLibrary.sol\":2927:2955  self.votes[self.candHash[i]] */\n      mload(0x40)\n      tag_240\n      swap2\n      swap1\n      tag_177\n      jump\t// in\n    tag_240:\n      swap1\n      dup2\n      mstore\n      0x20\n      add\n      mload(0x40)\n      dup1\n      swap2\n      sub\n      swap1\n      keccak256\n      sload\n        /* \"Library/ProposalLibrary.sol\":2927:2971  self.votes[self.candHash[i]] == largestCount */\n      eq\n        /* \"Library/ProposalLibrary.sol\":2924:3094  if(self.votes[self.candHash[i]] == largestCount){\r... */\n      iszero\n      tag_241\n      jumpi\n        /* \"Library/ProposalLibrary.sol\":2995:3008  winnerCount++ */\n      dup2\n      dup1\n      tag_242\n      swap1\n      tag_98\n      jump\t// in\n    tag_242:\n      swap3\n      pop\n      pop\n        /* \"Library/ProposalLibrary.sol\":3058:3062  self */\n      dup8\n        /* \"Library/ProposalLibrary.sol\":3058:3071  self.candHash */\n      0x08\n      add\n        /* \"Library/ProposalLibrary.sol\":3058:3074  self.candHash[i] */\n      0x00\n        /* \"Library/ProposalLibrary.sol\":3072:3073  i */\n      dup3\n        /* \"Library/ProposalLibrary.sol\":3058:3074  self.candHash[i] */\n      0xffff\n      and\n      dup2\n      mstore\n      0x20\n      add\n      swap1\n      dup2\n      mstore\n      0x20\n      add\n      0x00\n      keccak256\n        /* \"Library/ProposalLibrary.sol\":3031:3035  self */\n      dup9\n        /* \"Library/ProposalLibrary.sol\":3031:3042  self.result */\n      0x09\n      add\n        /* \"Library/ProposalLibrary.sol\":3031:3055  self.result[winnerCount] */\n      0x00\n        /* \"Library/ProposalLibrary.sol\":3043:3054  winnerCount */\n      dup5\n        /* \"Library/ProposalLibrary.sol\":3031:3055  self.result[winnerCount] */\n      dup2\n      mstore\n      0x20\n      add\n      swap1\n      dup2\n      mstore\n      0x20\n      add\n      0x00\n      keccak256\n        /* \"Library/ProposalLibrary.sol\":3031:3074  self.result[winnerCount] = self.candHash[i] */\n      swap1\n      dup1\n      sload\n      tag_243\n      swap1\n      tag_73\n      jump\t// in\n    tag_243:\n      tag_244\n      swap3\n      swap2\n      swap1\n      tag_230\n      jump\t// in\n    tag_244:\n      pop\n        /* \"Library/ProposalLibrary.sol\":2924:3094  if(self.votes[self.candHash[i]] == largestCount){\r... */\n    tag_241:\n        /* \"Library/ProposalLibrary.sol\":2692:3094  if(self.votes[self.candHash[i]] > largestCount){\r... */\n    tag_239:\n        /* \"Library/ProposalLibrary.sol\":2669:2672  i++ */\n      dup1\n      dup1\n      tag_245\n      swap1\n      tag_246\n      jump\t// in\n    tag_245:\n      swap2\n      pop\n      pop\n        /* \"Library/ProposalLibrary.sol\":2627:3109  for(uint16 i = 2; i <= self.numOfOptions; i++){\r... */\n      jump(tag_231)\n    tag_232:\n      pop\n        /* \"Library/ProposalLibrary.sol\":3130:3135  false */\n      0x00\n        /* \"Library/ProposalLibrary.sol\":3123:3135  return false */\n      swap3\n      pop\n      pop\n      pop\n      jump(tag_219)\n        /* \"Library/ProposalLibrary.sol\":2292:3147  if(block.timestamp > self.expirationTime){\r... */\n    tag_226:\n        /* \"Library/ProposalLibrary.sol\":3190:3194  self */\n      dup5\n        /* \"Library/ProposalLibrary.sol\":3190:3201  self.voters */\n      0x06\n      add\n        /* \"Library/ProposalLibrary.sol\":3190:3209  self.voters[_voter] */\n      0x00\n        /* \"Library/ProposalLibrary.sol\":3202:3208  _voter */\n      dup6\n        /* \"Library/ProposalLibrary.sol\":3190:3209  self.voters[_voter] */\n      0xffffffffffffffffffffffffffffffffffffffff\n      and\n      0xffffffffffffffffffffffffffffffffffffffff\n      and\n      dup2\n      mstore\n      0x20\n      add\n      swap1\n      dup2\n      mstore\n      0x20\n      add\n      0x00\n      keccak256\n      0x00\n      swap1\n      sload\n      swap1\n      0x0100\n      exp\n      swap1\n      div\n      0xff\n      and\n        /* \"Library/ProposalLibrary.sol\":3182:3249  require(self.voters[_voter], \"Not a valid voter for this proposal\") */\n      tag_247\n      jumpi\n      mload(0x40)\n      0x08c379a000000000000000000000000000000000000000000000000000000000\n      dup2\n      mstore\n      0x04\n      add\n      tag_248\n      swap1\n      tag_249\n      jump\t// in\n    tag_248:\n      mload(0x40)\n      dup1\n      swap2\n      sub\n      swap1\n      revert\n    tag_247:\n        /* \"Library/ProposalLibrary.sol\":3264:3272  uint16 i */\n      0x00\n        /* \"Library/ProposalLibrary.sol\":3260:3417  for(uint16 i=0;i<self.numOfOptions;i++){\r... */\n    tag_250:\n        /* \"Library/ProposalLibrary.sol\":3277:3281  self */\n      dup6\n        /* \"Library/ProposalLibrary.sol\":3277:3294  self.numOfOptions */\n      0x04\n      add\n      0x00\n      swap1\n      sload\n      swap1\n      0x0100\n      exp\n      swap1\n      div\n      0xffff\n      and\n        /* \"Library/ProposalLibrary.sol\":3275:3294  i<self.numOfOptions */\n      0xffff\n      and\n        /* \"Library/ProposalLibrary.sol\":3275:3276  i */\n      dup2\n        /* \"Library/ProposalLibrary.sol\":3275:3294  i<self.numOfOptions */\n      0xffff\n      and\n      lt\n        /* \"Library/ProposalLibrary.sol\":3260:3417  for(uint16 i=0;i<self.numOfOptions;i++){\r... */\n      iszero\n      tag_251\n      jumpi\n        /* \"Library/ProposalLibrary.sol\":3318:3322  self */\n      dup6\n        /* \"Library/ProposalLibrary.sol\":3318:3327  self.cand */\n      0x07\n      add\n        /* \"Library/ProposalLibrary.sol\":3328:3333  _hash */\n      dup5\n        /* \"Library/ProposalLibrary.sol\":3334:3335  i */\n      dup3\n        /* \"Library/ProposalLibrary.sol\":3328:3336  _hash[i] */\n      0xffff\n      and\n      dup2\n      mload\n      dup2\n      lt\n      tag_253\n      jumpi\n      tag_254\n      tag_109\n      jump\t// in\n    tag_254:\n    tag_253:\n      0x20\n      mul\n      0x20\n      add\n      add\n      mload\n        /* \"Library/ProposalLibrary.sol\":3318:3337  self.cand[_hash[i]] */\n      mload(0x40)\n      tag_255\n      swap2\n      swap1\n      tag_256\n      jump\t// in\n    tag_255:\n      swap1\n      dup2\n      mstore\n      0x20\n      add\n      mload(0x40)\n      dup1\n      swap2\n      sub\n      swap1\n      keccak256\n      0x00\n      swap1\n      sload\n      swap1\n      0x0100\n      exp\n      swap1\n      div\n      0xff\n      and\n        /* \"Library/ProposalLibrary.sol\":3310:3369  require(self.cand[_hash[i]], \"Proposal: invalid candidate\") */\n      tag_257\n      jumpi\n      mload(0x40)\n      0x08c379a000000000000000000000000000000000000000000000000000000000\n      dup2\n      mstore\n      0x04\n      add\n      tag_258\n      swap1\n      tag_259\n      jump\t// in\n    tag_258:\n      mload(0x40)\n      dup1\n      swap2\n      sub\n      swap1\n      revert\n    tag_257:\n        /* \"Library/ProposalLibrary.sol\":3401:3402  v */\n      dup3\n        /* \"Library/ProposalLibrary.sol\":3403:3404  i */\n      dup2\n        /* \"Library/ProposalLibrary.sol\":3401:3405  v[i] */\n      0xffff\n      and\n      dup2\n      mload\n      dup2\n      lt\n      tag_260\n      jumpi\n      tag_261\n      tag_109\n      jump\t// in\n    tag_261:\n    tag_260:\n      0x20\n      mul\n      0x20\n      add\n      add\n      mload\n        /* \"Library/ProposalLibrary.sol\":3380:3384  self */\n      dup7\n        /* \"Library/ProposalLibrary.sol\":3380:3390  self.votes */\n      0x0a\n      add\n        /* \"Library/ProposalLibrary.sol\":3391:3396  _hash */\n      dup6\n        /* \"Library/ProposalLibrary.sol\":3397:3398  i */\n      dup4\n        /* \"Library/ProposalLibrary.sol\":3391:3399  _hash[i] */\n      0xffff\n      and\n      dup2\n      mload\n      dup2\n      lt\n      tag_262\n      jumpi\n      tag_263\n      tag_109\n      jump\t// in\n    tag_263:\n    tag_262:\n      0x20\n      mul\n      0x20\n      add\n      add\n      mload\n        /* \"Library/ProposalLibrary.sol\":3380:3400  self.votes[_hash[i]] */\n      mload(0x40)\n      tag_264\n      swap2\n      swap1\n      tag_256\n      jump\t// in\n    tag_264:\n      swap1\n      dup2\n      mstore\n      0x20\n      add\n      mload(0x40)\n      dup1\n      swap2\n      sub\n      swap1\n      keccak256\n        /* \"Library/ProposalLibrary.sol\":3380:3405  self.votes[_hash[i]]=v[i] */\n      dup2\n      swap1\n      sstore\n      pop\n        /* \"Library/ProposalLibrary.sol\":3295:3298  i++ */\n      dup1\n      dup1\n      tag_265\n      swap1\n      tag_246\n      jump\t// in\n    tag_265:\n      swap2\n      pop\n      pop\n        /* \"Library/ProposalLibrary.sol\":3260:3417  for(uint16 i=0;i<self.numOfOptions;i++){\r... */\n      jump(tag_250)\n    tag_251:\n      pop\n        /* \"Library/ProposalLibrary.sol\":3434:3438  true */\n      0x01\n        /* \"Library/ProposalLibrary.sol\":3427:3438  return true */\n      swap1\n      pop\n        /* \"Library/ProposalLibrary.sol\":2018:3446  function responseProposal(proposal storage self, address _voter, string[] memory _hash, uint[] memory v) internal returns(bool){\r... */\n    tag_219:\n      swap5\n      swap4\n      pop\n      pop\n      pop\n      pop\n      jump\t// out\n        /* \"Library/UserProposalLibrary.sol\":802:1377  function updateResponseList(UserProposal storage self, uint _proposalId, string[] memory _hash) internal returns(bool){\r... */\n    tag_158:\n        /* \"Library/UserProposalLibrary.sol\":915:919  bool */\n      0x00\n        /* \"Library/UserProposalLibrary.sol\":931:935  self */\n      dup4\n        /* \"Library/UserProposalLibrary.sol\":931:949  self.responseCount */\n      0x00\n      add\n      0x10\n        /* \"Library/UserProposalLibrary.sol\":931:951  self.responseCount++ */\n      dup2\n      dup2\n      swap1\n      sload\n      swap1\n      0x0100\n      exp\n      swap1\n      div\n      0xffffffffffffffffffffffffffffffff\n      and\n      dup1\n      swap3\n      swap2\n      swap1\n      tag_267\n      swap1\n      tag_218\n      jump\t// in\n    tag_267:\n      swap2\n      swap1\n      0x0100\n      exp\n      dup2\n      sload\n      dup2\n      0xffffffffffffffffffffffffffffffff\n      mul\n      not\n      and\n      swap1\n      dup4\n      0xffffffffffffffffffffffffffffffff\n      and\n      mul\n      or\n      swap1\n      sstore\n      pop\n      pop\n        /* \"Library/UserProposalLibrary.sol\":1009:1020  _proposalId */\n      dup3\n        /* \"Library/UserProposalLibrary.sol\":964:968  self */\n      dup5\n        /* \"Library/UserProposalLibrary.sol\":964:986  self.proposalResponsed */\n      0x02\n      add\n        /* \"Library/UserProposalLibrary.sol\":964:1006  self.proposalResponsed[self.responseCount] */\n      0x00\n        /* \"Library/UserProposalLibrary.sol\":987:991  self */\n      dup7\n        /* \"Library/UserProposalLibrary.sol\":987:1005  self.responseCount */\n      0x00\n      add\n      0x10\n      swap1\n      sload\n      swap1\n      0x0100\n      exp\n      swap1\n      div\n      0xffffffffffffffffffffffffffffffff\n      and\n        /* \"Library/UserProposalLibrary.sol\":964:1006  self.proposalResponsed[self.responseCount] */\n      0xffffffffffffffffffffffffffffffff\n      and\n      0xffffffffffffffffffffffffffffffff\n      and\n      dup2\n      mstore\n      0x20\n      add\n      swap1\n      dup2\n      mstore\n      0x20\n      add\n      0x00\n      keccak256\n        /* \"Library/UserProposalLibrary.sol\":964:1020  self.proposalResponsed[self.responseCount] = _proposalId */\n      dup2\n      swap1\n      sstore\n      pop\n        /* \"Library/UserProposalLibrary.sol\":1190:1198  uint16 i */\n      0x00\n        /* \"Library/UserProposalLibrary.sol\":1186:1295  for(uint16 i=0;i<_hash.length;i++){\r... */\n    tag_268:\n        /* \"Library/UserProposalLibrary.sol\":1203:1208  _hash */\n      dup3\n        /* \"Library/UserProposalLibrary.sol\":1203:1215  _hash.length */\n      mload\n        /* \"Library/UserProposalLibrary.sol\":1201:1202  i */\n      dup2\n        /* \"Library/UserProposalLibrary.sol\":1201:1215  i<_hash.length */\n      0xffff\n      and\n      lt\n        /* \"Library/UserProposalLibrary.sol\":1186:1295  for(uint16 i=0;i<_hash.length;i++){\r... */\n      iszero\n      tag_269\n      jumpi\n        /* \"Library/UserProposalLibrary.sol\":1275:1280  _hash */\n      dup3\n        /* \"Library/UserProposalLibrary.sol\":1281:1282  i */\n      dup2\n        /* \"Library/UserProposalLibrary.sol\":1275:1283  _hash[i] */\n      0xffff\n      and\n      dup2\n      mload\n      dup2\n      lt\n      tag_271\n      jumpi\n      tag_272\n      tag_109\n      jump\t// in\n    tag_272:\n    tag_271:\n      0x20\n      mul\n      0x20\n      add\n      add\n      mload\n        /* \"Library/UserProposalLibrary.sol\":1235:1239  self */\n      dup6\n        /* \"Library/UserProposalLibrary.sol\":1235:1254  self.proposalAnswer */\n      0x03\n      add\n        /* \"Library/UserProposalLibrary.sol\":1235:1267  self.proposalAnswer[_proposalId] */\n      0x00\n        /* \"Library/UserProposalLibrary.sol\":1255:1266  _proposalId */\n      dup7\n        /* \"Library/UserProposalLibrary.sol\":1235:1267  self.proposalAnswer[_proposalId] */\n      dup2\n      mstore\n      0x20\n      add\n      swap1\n      dup2\n      mstore\n      0x20\n      add\n      0x00\n      keccak256\n        /* \"Library/UserProposalLibrary.sol\":1235:1272  self.proposalAnswer[_proposalId][i+1] */\n      0x00\n        /* \"Library/UserProposalLibrary.sol\":1270:1271  1 */\n      0x01\n        /* \"Library/UserProposalLibrary.sol\":1268:1269  i */\n      dup5\n        /* \"Library/UserProposalLibrary.sol\":1268:1271  i+1 */\n      tag_273\n      swap2\n      swap1\n      tag_274\n      jump\t// in\n    tag_273:\n        /* \"Library/UserProposalLibrary.sol\":1235:1272  self.proposalAnswer[_proposalId][i+1] */\n      0xffff\n      and\n      dup2\n      mstore\n      0x20\n      add\n      swap1\n      dup2\n      mstore\n      0x20\n      add\n      0x00\n      keccak256\n        /* \"Library/UserProposalLibrary.sol\":1235:1283  self.proposalAnswer[_proposalId][i+1] = _hash[i] */\n      swap1\n      dup1\n      mload\n      swap1\n      0x20\n      add\n      swap1\n      tag_275\n      swap3\n      swap2\n      swap1\n      tag_185\n      jump\t// in\n    tag_275:\n      pop\n        /* \"Library/UserProposalLibrary.sol\":1216:1219  i++ */\n      dup1\n      dup1\n      tag_276\n      swap1\n      tag_246\n      jump\t// in\n    tag_276:\n      swap2\n      pop\n      pop\n        /* \"Library/UserProposalLibrary.sol\":1186:1295  for(uint16 i=0;i<_hash.length;i++){\r... */\n      jump(tag_268)\n    tag_269:\n      pop\n        /* \"Library/UserProposalLibrary.sol\":1343:1347  true */\n      0x01\n        /* \"Library/UserProposalLibrary.sol\":1305:1309  self */\n      dup5\n        /* \"Library/UserProposalLibrary.sol\":1305:1327  self.responsedProposal */\n      0x04\n      add\n        /* \"Library/UserProposalLibrary.sol\":1305:1340  self.responsedProposal[_proposalId] */\n      0x00\n        /* \"Library/UserProposalLibrary.sol\":1328:1339  _proposalId */\n      dup6\n        /* \"Library/UserProposalLibrary.sol\":1305:1340  self.responsedProposal[_proposalId] */\n      dup2\n      mstore\n      0x20\n      add\n      swap1\n      dup2\n      mstore\n      0x20\n      add\n      0x00\n      keccak256\n      0x00\n        /* \"Library/UserProposalLibrary.sol\":1305:1347  self.responsedProposal[_proposalId] = true */\n      0x0100\n      exp\n      dup2\n      sload\n      dup2\n      0xff\n      mul\n      not\n      and\n      swap1\n      dup4\n      iszero\n      iszero\n      mul\n      or\n      swap1\n      sstore\n      pop\n        /* \"Library/UserProposalLibrary.sol\":1365:1369  true */\n      0x01\n        /* \"Library/UserProposalLibrary.sol\":1358:1369  return true */\n      swap1\n      pop\n        /* \"Library/UserProposalLibrary.sol\":802:1377  function updateResponseList(UserProposal storage self, uint _proposalId, string[] memory _hash) internal returns(bool){\r... */\n      swap4\n      swap3\n      pop\n      pop\n      pop\n      jump\t// out\n        /* \"Library/VoterLibrary.sol\":832:1063  function updateVoteNum(voter storage self) internal returns(bool){\r... */\n    tag_160:\n        /* \"Library/VoterLibrary.sol\":892:896  bool */\n      0x00\n        /* \"Library/VoterLibrary.sol\":931:932  0 */\n      dup1\n        /* \"Library/VoterLibrary.sol\":914:918  self */\n      dup3\n        /* \"Library/VoterLibrary.sol\":914:929  self.proposalId */\n      0x00\n      add\n      sload\n        /* \"Library/VoterLibrary.sol\":914:932  self.proposalId!=0 */\n      eq\n      iszero\n        /* \"Library/VoterLibrary.sol\":906:965  require(self.proposalId!=0,\"Invalid voter for proposalId!\") */\n      tag_278\n      jumpi\n      mload(0x40)\n      0x08c379a000000000000000000000000000000000000000000000000000000000\n      dup2\n      mstore\n      0x04\n      add\n      tag_279\n      swap1\n      tag_280\n      jump\t// in\n    tag_279:\n      mload(0x40)\n      dup1\n      swap2\n      sub\n      swap1\n      revert\n    tag_278:\n        /* \"Library/VoterLibrary.sol\":983:987  self */\n      dup2\n        /* \"Library/VoterLibrary.sol\":983:996  self.hasVoted */\n      0x01\n      add\n      0x14\n      swap1\n      sload\n      swap1\n      0x0100\n      exp\n      swap1\n      div\n      0xff\n      and\n        /* \"Library/VoterLibrary.sol\":982:996  !self.hasVoted */\n      iszero\n        /* \"Library/VoterLibrary.sol\":974:1010  require(!self.hasVoted, \"not voted\") */\n      tag_281\n      jumpi\n      mload(0x40)\n      0x08c379a000000000000000000000000000000000000000000000000000000000\n      dup2\n      mstore\n      0x04\n      add\n      tag_282\n      swap1\n      tag_283\n      jump\t// in\n    tag_282:\n      mload(0x40)\n      dup1\n      swap2\n      sub\n      swap1\n      revert\n    tag_281:\n        /* \"Library/VoterLibrary.sol\":1034:1035  0 */\n      0x00\n        /* \"Library/VoterLibrary.sol\":1019:1023  self */\n      dup3\n        /* \"Library/VoterLibrary.sol\":1019:1031  self.voteNum */\n      0x02\n      add\n        /* \"Library/VoterLibrary.sol\":1019:1035  self.voteNum = 0 */\n      dup2\n      swap1\n      sstore\n      pop\n        /* \"Library/VoterLibrary.sol\":1051:1055  true */\n      0x01\n        /* \"Library/VoterLibrary.sol\":1044:1055  return true */\n      swap1\n      pop\n        /* \"Library/VoterLibrary.sol\":832:1063  function updateVoteNum(voter storage self) internal returns(bool){\r... */\n      swap2\n      swap1\n      pop\n      jump\t// out\n        /* \"QvToken/QvToken.sol\":510:613  function burn(address to,uint amount) onlyOwner(_msgSender()) internal {\r... */\n    tag_162:\n        /* \"QvToken/QvToken.sol\":558:570  _msgSender() */\n      tag_284\n        /* \"QvToken/QvToken.sol\":558:568  _msgSender */\n      tag_124\n        /* \"QvToken/QvToken.sol\":558:570  _msgSender() */\n      jump\t// in\n    tag_284:\n        /* \"QvToken/QvToken.sol\":366:375  msgSender */\n      dup1\n        /* \"QvToken/QvToken.sol\":357:375  owner == msgSender */\n      0xffffffffffffffffffffffffffffffffffffffff\n      and\n        /* \"QvToken/QvToken.sol\":357:362  owner */\n      0x04\n      0x00\n      swap1\n      sload\n      swap1\n      0x0100\n      exp\n      swap1\n      div\n      0xffffffffffffffffffffffffffffffffffffffff\n      and\n        /* \"QvToken/QvToken.sol\":357:375  owner == msgSender */\n      0xffffffffffffffffffffffffffffffffffffffff\n      and\n      eq\n        /* \"QvToken/QvToken.sol\":349:376  require(owner == msgSender) */\n      tag_286\n      jumpi\n      0x00\n      dup1\n      revert\n    tag_286:\n        /* \"QvToken/QvToken.sol\":588:605  _burn(to, amount) */\n      tag_288\n        /* \"QvToken/QvToken.sol\":594:596  to */\n      dup4\n        /* \"QvToken/QvToken.sol\":598:604  amount */\n      dup4\n        /* \"QvToken/QvToken.sol\":588:593  _burn */\n      tag_289\n        /* \"QvToken/QvToken.sol\":588:605  _burn(to, amount) */\n      jump\t// in\n    tag_288:\n        /* \"QvToken/QvToken.sol\":510:613  function burn(address to,uint amount) onlyOwner(_msgSender()) internal {\r... */\n      pop\n      pop\n      pop\n      jump\t// out\n        /* \"QvToken/ERC20.sol\":3630:4033  function _mint(address account, uint256 amount) internal virtual {\r... */\n    tag_213:\n        /* \"QvToken/ERC20.sol\":3733:3734  0 */\n      0x00\n        /* \"QvToken/ERC20.sol\":3714:3735  account != address(0) */\n      0xffffffffffffffffffffffffffffffffffffffff\n      and\n        /* \"QvToken/ERC20.sol\":3714:3721  account */\n      dup3\n        /* \"QvToken/ERC20.sol\":3714:3735  account != address(0) */\n      0xffffffffffffffffffffffffffffffffffffffff\n      and\n      eq\n      iszero\n        /* \"QvToken/ERC20.sol\":3706:3771  require(account != address(0), \"ERC20: mint to the zero address\") */\n      tag_291\n      jumpi\n      mload(0x40)\n      0x08c379a000000000000000000000000000000000000000000000000000000000\n      dup2\n      mstore\n      0x04\n      add\n      tag_292\n      swap1\n      tag_293\n      jump\t// in\n    tag_292:\n      mload(0x40)\n      dup1\n      swap2\n      sub\n      swap1\n      revert\n    tag_291:\n        /* \"QvToken/ERC20.sol\":3865:3871  amount */\n      dup1\n        /* \"QvToken/ERC20.sol\":3849:3861  _totalSupply */\n      0x01\n      0x00\n        /* \"QvToken/ERC20.sol\":3849:3871  _totalSupply += amount */\n      dup3\n      dup3\n      sload\n      tag_294\n      swap2\n      swap1\n      tag_149\n      jump\t// in\n    tag_294:\n      swap3\n      pop\n      pop\n      dup2\n      swap1\n      sstore\n      pop\n        /* \"QvToken/ERC20.sol\":3904:3910  amount */\n      dup1\n        /* \"QvToken/ERC20.sol\":3882:3891  _balances */\n      0x00\n        /* \"QvToken/ERC20.sol\":3882:3900  _balances[account] */\n      dup1\n        /* \"QvToken/ERC20.sol\":3892:3899  account */\n      dup5\n        /* \"QvToken/ERC20.sol\":3882:3900  _balances[account] */\n      0xffffffffffffffffffffffffffffffffffffffff\n      and\n      0xffffffffffffffffffffffffffffffffffffffff\n      and\n      dup2\n      mstore\n      0x20\n      add\n      swap1\n      dup2\n      mstore\n      0x20\n      add\n      0x00\n      keccak256\n      0x00\n        /* \"QvToken/ERC20.sol\":3882:3910  _balances[account] += amount */\n      dup3\n      dup3\n      sload\n      tag_295\n      swap2\n      swap1\n      tag_149\n      jump\t// in\n    tag_295:\n      swap3\n      pop\n      pop\n      dup2\n      swap1\n      sstore\n      pop\n        /* \"QvToken/ERC20.sol\":3926:3961  mintAndburn(\"mint\",account, amount) */\n      0xabf5327be9f5825c40d58bda541dd07f09b62df3376bbd5ecdbaa8bd82a9d492\n        /* \"QvToken/ERC20.sol\":3945:3952  account */\n      dup3\n        /* \"QvToken/ERC20.sol\":3954:3960  amount */\n      dup3\n        /* \"QvToken/ERC20.sol\":3926:3961  mintAndburn(\"mint\",account, amount) */\n      mload(0x40)\n      tag_296\n      swap3\n      swap2\n      swap1\n      tag_120\n      jump\t// in\n    tag_296:\n      mload(0x40)\n      dup1\n      swap2\n      sub\n      swap1\n      log1\n        /* \"QvToken/ERC20.sol\":3630:4033  function _mint(address account, uint256 amount) internal virtual {\r... */\n      pop\n      pop\n      jump\t// out\n        /* \"QvToken/ERC20.sol\":4045:4640  function _burn(address account, uint256 amount) internal virtual {\r... */\n    tag_289:\n        /* \"QvToken/ERC20.sol\":4148:4149  0 */\n      0x00\n        /* \"QvToken/ERC20.sol\":4129:4150  account != address(0) */\n      0xffffffffffffffffffffffffffffffffffffffff\n      and\n        /* \"QvToken/ERC20.sol\":4129:4136  account */\n      dup3\n        /* \"QvToken/ERC20.sol\":4129:4150  account != address(0) */\n      0xffffffffffffffffffffffffffffffffffffffff\n      and\n      eq\n      iszero\n        /* \"QvToken/ERC20.sol\":4121:4188  require(account != address(0), \"ERC20: burn from the zero address\") */\n      tag_298\n      jumpi\n      mload(0x40)\n      0x08c379a000000000000000000000000000000000000000000000000000000000\n      dup2\n      mstore\n      0x04\n      add\n      tag_299\n      swap1\n      tag_300\n      jump\t// in\n    tag_299:\n      mload(0x40)\n      dup1\n      swap2\n      sub\n      swap1\n      revert\n    tag_298:\n        /* \"QvToken/ERC20.sol\":4266:4288  uint256 accountBalance */\n      0x00\n        /* \"QvToken/ERC20.sol\":4291:4300  _balances */\n      dup1\n        /* \"QvToken/ERC20.sol\":4291:4309  _balances[account] */\n      0x00\n        /* \"QvToken/ERC20.sol\":4301:4308  account */\n      dup5\n        /* \"QvToken/ERC20.sol\":4291:4309  _balances[account] */\n      0xffffffffffffffffffffffffffffffffffffffff\n      and\n      0xffffffffffffffffffffffffffffffffffffffff\n      and\n      dup2\n      mstore\n      0x20\n      add\n      swap1\n      dup2\n      mstore\n      0x20\n      add\n      0x00\n      keccak256\n      sload\n        /* \"QvToken/ERC20.sol\":4266:4309  uint256 accountBalance = _balances[account] */\n      swap1\n      pop\n        /* \"QvToken/ERC20.sol\":4346:4352  amount */\n      dup2\n        /* \"QvToken/ERC20.sol\":4328:4342  accountBalance */\n      dup2\n        /* \"QvToken/ERC20.sol\":4328:4352  accountBalance >= amount */\n      lt\n      iszero\n        /* \"QvToken/ERC20.sol\":4320:4391  require(accountBalance >= amount, \"ERC20: burn amount exceeds balance\") */\n      tag_301\n      jumpi\n      mload(0x40)\n      0x08c379a000000000000000000000000000000000000000000000000000000000\n      dup2\n      mstore\n      0x04\n      add\n      tag_302\n      swap1\n      tag_303\n      jump\t// in\n    tag_302:\n      mload(0x40)\n      dup1\n      swap2\n      sub\n      swap1\n      revert\n    tag_301:\n        /* \"QvToken/ERC20.sol\":4465:4471  amount */\n      dup2\n        /* \"QvToken/ERC20.sol\":4448:4462  accountBalance */\n      dup2\n        /* \"QvToken/ERC20.sol\":4448:4471  accountBalance - amount */\n      sub\n        /* \"QvToken/ERC20.sol\":4427:4436  _balances */\n      0x00\n        /* \"QvToken/ERC20.sol\":4427:4445  _balances[account] */\n      dup1\n        /* \"QvToken/ERC20.sol\":4437:4444  account */\n      dup6\n        /* \"QvToken/ERC20.sol\":4427:4445  _balances[account] */\n      0xffffffffffffffffffffffffffffffffffffffff\n      and\n      0xffffffffffffffffffffffffffffffffffffffff\n      and\n      dup2\n      mstore\n      0x20\n      add\n      swap1\n      dup2\n      mstore\n      0x20\n      add\n      0x00\n      keccak256\n        /* \"QvToken/ERC20.sol\":4427:4471  _balances[account] = accountBalance - amount */\n      dup2\n      swap1\n      sstore\n      pop\n        /* \"QvToken/ERC20.sol\":4509:4515  amount */\n      dup2\n        /* \"QvToken/ERC20.sol\":4493:4505  _totalSupply */\n      0x01\n      0x00\n        /* \"QvToken/ERC20.sol\":4493:4515  _totalSupply -= amount */\n      dup3\n      dup3\n      sload\n      tag_304\n      swap2\n      swap1\n      tag_305\n      jump\t// in\n    tag_304:\n      swap3\n      pop\n      pop\n      dup2\n      swap1\n      sstore\n      pop\n        /* \"QvToken/ERC20.sol\":4533:4568  mintAndburn(\"burn\",account, amount) */\n      0xabf5327be9f5825c40d58bda541dd07f09b62df3376bbd5ecdbaa8bd82a9d492\n        /* \"QvToken/ERC20.sol\":4552:4559  account */\n      dup4\n        /* \"QvToken/ERC20.sol\":4561:4567  amount */\n      dup4\n        /* \"QvToken/ERC20.sol\":4533:4568  mintAndburn(\"burn\",account, amount) */\n      mload(0x40)\n      tag_306\n      swap3\n      swap2\n      swap1\n      tag_164\n      jump\t// in\n    tag_306:\n      mload(0x40)\n      dup1\n      swap2\n      sub\n      swap1\n      log1\n        /* \"QvToken/ERC20.sol\":4110:4640  {\r... */\n      pop\n        /* \"QvToken/ERC20.sol\":4045:4640  function _burn(address account, uint256 amount) internal virtual {\r... */\n      pop\n      pop\n      jump\t// out\n    tag_185:\n      dup3\n      dup1\n      sload\n      tag_307\n      swap1\n      tag_73\n      jump\t// in\n    tag_307:\n      swap1\n      0x00\n      mstore\n      keccak256(0x00, 0x20)\n      swap1\n      0x1f\n      add\n      0x20\n      swap1\n      div\n      dup2\n      add\n      swap3\n      dup3\n      tag_309\n      jumpi\n      0x00\n      dup6\n      sstore\n      jump(tag_308)\n    tag_309:\n      dup3\n      0x1f\n      lt\n      tag_310\n      jumpi\n      dup1\n      mload\n      not(0xff)\n      and\n      dup4\n      dup1\n      add\n      or\n      dup6\n      sstore\n      jump(tag_308)\n    tag_310:\n      dup3\n      dup1\n      add\n      0x01\n      add\n      dup6\n      sstore\n      dup3\n      iszero\n      tag_308\n      jumpi\n      swap2\n      dup3\n      add\n    tag_311:\n      dup3\n      dup2\n      gt\n      iszero\n      tag_312\n      jumpi\n      dup3\n      mload\n      dup3\n      sstore\n      swap2\n      0x20\n      add\n      swap2\n      swap1\n      0x01\n      add\n      swap1\n      jump(tag_311)\n    tag_312:\n    tag_308:\n      pop\n      swap1\n      pop\n      tag_313\n      swap2\n      swap1\n      tag_314\n      jump\t// in\n    tag_313:\n      pop\n      swap1\n      jump\t// out\n    tag_200:\n      dup3\n      dup1\n      sload\n      tag_315\n      swap1\n      tag_73\n      jump\t// in\n    tag_315:\n      swap1\n      0x00\n      mstore\n      keccak256(0x00, 0x20)\n      swap1\n      0x1f\n      add\n      0x20\n      swap1\n      div\n      dup2\n      add\n      swap3\n      dup3\n      tag_317\n      jumpi\n      0x00\n      dup6\n      sstore\n      jump(tag_316)\n    tag_317:\n      dup3\n      0x1f\n      lt\n      tag_318\n      jumpi\n      dup1\n      calldataload\n      not(0xff)\n      and\n      dup4\n      dup1\n      add\n      or\n      dup6\n      sstore\n      jump(tag_316)\n    tag_318:\n      dup3\n      dup1\n      add\n      0x01\n      add\n      dup6\n      sstore\n      dup3\n      iszero\n      tag_316\n      jumpi\n      swap2\n      dup3\n      add\n    tag_319:\n      dup3\n      dup2\n      gt\n      iszero\n      tag_320\n      jumpi\n      dup3\n      calldataload\n      dup3\n      sstore\n      swap2\n      0x20\n      add\n      swap2\n      swap1\n      0x01\n      add\n      swap1\n      jump(tag_319)\n    tag_320:\n    tag_316:\n      pop\n      swap1\n      pop\n      tag_321\n      swap2\n      swap1\n      tag_314\n      jump\t// in\n    tag_321:\n      pop\n      swap1\n      jump\t// out\n    tag_230:\n      dup3\n      dup1\n      sload\n      tag_322\n      swap1\n      tag_73\n      jump\t// in\n    tag_322:\n      swap1\n      0x00\n      mstore\n      keccak256(0x00, 0x20)\n      swap1\n      0x1f\n      add\n      0x20\n      swap1\n      div\n      dup2\n      add\n      swap3\n      dup3\n      tag_324\n      jumpi\n      0x00\n      dup6\n      sstore\n      jump(tag_323)\n    tag_324:\n      dup3\n      0x1f\n      lt\n      tag_325\n      jumpi\n      dup1\n      sload\n      dup6\n      sstore\n      jump(tag_323)\n    tag_325:\n      dup3\n      dup1\n      add\n      0x01\n      add\n      dup6\n      sstore\n      dup3\n      iszero\n      tag_323\n      jumpi\n      0x00\n      mstore\n      keccak256(0x00, 0x20)\n      swap2\n      0x1f\n      add\n      0x20\n      swap1\n      div\n      dup3\n      add\n    tag_326:\n      dup3\n      dup2\n      gt\n      iszero\n      tag_327\n      jumpi\n      dup3\n      sload\n      dup3\n      sstore\n      swap2\n      0x01\n      add\n      swap2\n      swap1\n      0x01\n      add\n      swap1\n      jump(tag_326)\n    tag_327:\n    tag_323:\n      pop\n      swap1\n      pop\n      tag_328\n      swap2\n      swap1\n      tag_314\n      jump\t// in\n    tag_328:\n      pop\n      swap1\n      jump\t// out\n    tag_314:\n    tag_329:\n      dup1\n      dup3\n      gt\n      iszero\n      tag_330\n      jumpi\n      0x00\n      dup2\n      0x00\n      swap1\n      sstore\n      pop\n      0x01\n      add\n      jump(tag_329)\n    tag_330:\n      pop\n      swap1\n      jump\t// out\n        /* \"#utility.yul\":24:746   */\n    tag_332:\n        /* \"#utility.yul\":120:125   */\n      0x00\n        /* \"#utility.yul\":145:226   */\n      tag_334\n        /* \"#utility.yul\":161:225   */\n      tag_335\n        /* \"#utility.yul\":218:224   */\n      dup5\n        /* \"#utility.yul\":161:225   */\n      tag_336\n      jump\t// in\n    tag_335:\n        /* \"#utility.yul\":145:226   */\n      tag_337\n      jump\t// in\n    tag_334:\n        /* \"#utility.yul\":136:226   */\n      swap1\n      pop\n        /* \"#utility.yul\":246:251   */\n      dup1\n        /* \"#utility.yul\":275:281   */\n      dup4\n        /* \"#utility.yul\":268:273   */\n      dup3\n        /* \"#utility.yul\":261:282   */\n      mstore\n        /* \"#utility.yul\":309:313   */\n      0x20\n        /* \"#utility.yul\":302:307   */\n      dup3\n        /* \"#utility.yul\":298:314   */\n      add\n        /* \"#utility.yul\":291:314   */\n      swap1\n      pop\n        /* \"#utility.yul\":335:341   */\n      dup3\n        /* \"#utility.yul\":385:388   */\n      dup6\n        /* \"#utility.yul\":377:381   */\n      0x20\n        /* \"#utility.yul\":369:375   */\n      dup7\n        /* \"#utility.yul\":365:382   */\n      mul\n        /* \"#utility.yul\":360:363   */\n      dup3\n        /* \"#utility.yul\":356:383   */\n      add\n        /* \"#utility.yul\":353:389   */\n      gt\n        /* \"#utility.yul\":350:493   */\n      iszero\n      tag_338\n      jumpi\n        /* \"#utility.yul\":404:483   */\n      tag_339\n      tag_340\n      jump\t// in\n    tag_339:\n        /* \"#utility.yul\":350:493   */\n    tag_338:\n        /* \"#utility.yul\":517:518   */\n      0x00\n        /* \"#utility.yul\":502:740   */\n    tag_341:\n        /* \"#utility.yul\":527:533   */\n      dup6\n        /* \"#utility.yul\":524:525   */\n      dup2\n        /* \"#utility.yul\":521:534   */\n      lt\n        /* \"#utility.yul\":502:740   */\n      iszero\n      tag_343\n      jumpi\n        /* \"#utility.yul\":595:598   */\n      dup2\n        /* \"#utility.yul\":624:661   */\n      tag_344\n        /* \"#utility.yul\":657:660   */\n      dup9\n        /* \"#utility.yul\":645:655   */\n      dup3\n        /* \"#utility.yul\":624:661   */\n      tag_345\n      jump\t// in\n    tag_344:\n        /* \"#utility.yul\":619:622   */\n      dup5\n        /* \"#utility.yul\":612:662   */\n      mstore\n        /* \"#utility.yul\":691:695   */\n      0x20\n        /* \"#utility.yul\":686:689   */\n      dup5\n        /* \"#utility.yul\":682:696   */\n      add\n        /* \"#utility.yul\":675:696   */\n      swap4\n      pop\n        /* \"#utility.yul\":725:729   */\n      0x20\n        /* \"#utility.yul\":720:723   */\n      dup4\n        /* \"#utility.yul\":716:730   */\n      add\n        /* \"#utility.yul\":709:730   */\n      swap3\n      pop\n        /* \"#utility.yul\":562:740   */\n      pop\n        /* \"#utility.yul\":549:550   */\n      0x01\n        /* \"#utility.yul\":546:547   */\n      dup2\n        /* \"#utility.yul\":542:551   */\n      add\n        /* \"#utility.yul\":537:551   */\n      swap1\n      pop\n        /* \"#utility.yul\":502:740   */\n      jump(tag_341)\n    tag_343:\n        /* \"#utility.yul\":506:520   */\n      pop\n        /* \"#utility.yul\":126:746   */\n      pop\n      pop\n        /* \"#utility.yul\":24:746   */\n      swap4\n      swap3\n      pop\n      pop\n      pop\n      jump\t// out\n        /* \"#utility.yul\":768:1725   */\n    tag_346:\n        /* \"#utility.yul\":874:879   */\n      0x00\n        /* \"#utility.yul\":899:990   */\n      tag_348\n        /* \"#utility.yul\":915:989   */\n      tag_349\n        /* \"#utility.yul\":982:988   */\n      dup5\n        /* \"#utility.yul\":915:989   */\n      tag_350\n      jump\t// in\n    tag_349:\n        /* \"#utility.yul\":899:990   */\n      tag_337\n      jump\t// in\n    tag_348:\n        /* \"#utility.yul\":890:990   */\n      swap1\n      pop\n        /* \"#utility.yul\":1010:1015   */\n      dup1\n        /* \"#utility.yul\":1039:1045   */\n      dup4\n        /* \"#utility.yul\":1032:1037   */\n      dup3\n        /* \"#utility.yul\":1025:1046   */\n      mstore\n        /* \"#utility.yul\":1073:1077   */\n      0x20\n        /* \"#utility.yul\":1066:1071   */\n      dup3\n        /* \"#utility.yul\":1062:1078   */\n      add\n        /* \"#utility.yul\":1055:1078   */\n      swap1\n      pop\n        /* \"#utility.yul\":1099:1105   */\n      dup3\n        /* \"#utility.yul\":1149:1152   */\n      dup6\n        /* \"#utility.yul\":1141:1145   */\n      0x20\n        /* \"#utility.yul\":1133:1139   */\n      dup7\n        /* \"#utility.yul\":1129:1146   */\n      mul\n        /* \"#utility.yul\":1124:1127   */\n      dup3\n        /* \"#utility.yul\":1120:1147   */\n      add\n        /* \"#utility.yul\":1117:1153   */\n      gt\n        /* \"#utility.yul\":1114:1257   */\n      iszero\n      tag_351\n      jumpi\n        /* \"#utility.yul\":1168:1247   */\n      tag_352\n      tag_340\n      jump\t// in\n    tag_352:\n        /* \"#utility.yul\":1114:1257   */\n    tag_351:\n        /* \"#utility.yul\":1281:1282   */\n      0x00\n        /* \"#utility.yul\":1266:1719   */\n    tag_353:\n        /* \"#utility.yul\":1291:1297   */\n      dup6\n        /* \"#utility.yul\":1288:1289   */\n      dup2\n        /* \"#utility.yul\":1285:1298   */\n      lt\n        /* \"#utility.yul\":1266:1719   */\n      iszero\n      tag_355\n      jumpi\n        /* \"#utility.yul\":1373:1376   */\n      dup2\n        /* \"#utility.yul\":1360:1377   */\n      calldataload\n        /* \"#utility.yul\":1409:1427   */\n      0xffffffffffffffff\n        /* \"#utility.yul\":1396:1407   */\n      dup2\n        /* \"#utility.yul\":1393:1428   */\n      gt\n        /* \"#utility.yul\":1390:1512   */\n      iszero\n      tag_356\n      jumpi\n        /* \"#utility.yul\":1431:1510   */\n      tag_357\n      tag_358\n      jump\t// in\n    tag_357:\n        /* \"#utility.yul\":1390:1512   */\n    tag_356:\n        /* \"#utility.yul\":1555:1566   */\n      dup1\n        /* \"#utility.yul\":1547:1553   */\n      dup7\n        /* \"#utility.yul\":1543:1567   */\n      add\n        /* \"#utility.yul\":1593:1640   */\n      tag_359\n        /* \"#utility.yul\":1636:1639   */\n      dup10\n        /* \"#utility.yul\":1624:1634   */\n      dup3\n        /* \"#utility.yul\":1593:1640   */\n      tag_360\n      jump\t// in\n    tag_359:\n        /* \"#utility.yul\":1588:1591   */\n      dup6\n        /* \"#utility.yul\":1581:1641   */\n      mstore\n        /* \"#utility.yul\":1670:1674   */\n      0x20\n        /* \"#utility.yul\":1665:1668   */\n      dup6\n        /* \"#utility.yul\":1661:1675   */\n      add\n        /* \"#utility.yul\":1654:1675   */\n      swap5\n      pop\n        /* \"#utility.yul\":1704:1708   */\n      0x20\n        /* \"#utility.yul\":1699:1702   */\n      dup5\n        /* \"#utility.yul\":1695:1709   */\n      add\n        /* \"#utility.yul\":1688:1709   */\n      swap4\n      pop\n        /* \"#utility.yul\":1326:1719   */\n      pop\n      pop\n        /* \"#utility.yul\":1313:1314   */\n      0x01\n        /* \"#utility.yul\":1310:1311   */\n      dup2\n        /* \"#utility.yul\":1306:1315   */\n      add\n        /* \"#utility.yul\":1301:1315   */\n      swap1\n      pop\n        /* \"#utility.yul\":1266:1719   */\n      jump(tag_353)\n    tag_355:\n        /* \"#utility.yul\":1270:1284   */\n      pop\n        /* \"#utility.yul\":880:1725   */\n      pop\n      pop\n        /* \"#utility.yul\":768:1725   */\n      swap4\n      swap3\n      pop\n      pop\n      pop\n      jump\t// out\n        /* \"#utility.yul\":1748:2470   */\n    tag_361:\n        /* \"#utility.yul\":1844:1849   */\n      0x00\n        /* \"#utility.yul\":1869:1950   */\n      tag_363\n        /* \"#utility.yul\":1885:1949   */\n      tag_364\n        /* \"#utility.yul\":1942:1948   */\n      dup5\n        /* \"#utility.yul\":1885:1949   */\n      tag_365\n      jump\t// in\n    tag_364:\n        /* \"#utility.yul\":1869:1950   */\n      tag_337\n      jump\t// in\n    tag_363:\n        /* \"#utility.yul\":1860:1950   */\n      swap1\n      pop\n        /* \"#utility.yul\":1970:1975   */\n      dup1\n        /* \"#utility.yul\":1999:2005   */\n      dup4\n        /* \"#utility.yul\":1992:1997   */\n      dup3\n        /* \"#utility.yul\":1985:2006   */\n      mstore\n        /* \"#utility.yul\":2033:2037   */\n      0x20\n        /* \"#utility.yul\":2026:2031   */\n      dup3\n        /* \"#utility.yul\":2022:2038   */\n      add\n        /* \"#utility.yul\":2015:2038   */\n      swap1\n      pop\n        /* \"#utility.yul\":2059:2065   */\n      dup3\n        /* \"#utility.yul\":2109:2112   */\n      dup6\n        /* \"#utility.yul\":2101:2105   */\n      0x20\n        /* \"#utility.yul\":2093:2099   */\n      dup7\n        /* \"#utility.yul\":2089:2106   */\n      mul\n        /* \"#utility.yul\":2084:2087   */\n      dup3\n        /* \"#utility.yul\":2080:2107   */\n      add\n        /* \"#utility.yul\":2077:2113   */\n      gt\n        /* \"#utility.yul\":2074:2217   */\n      iszero\n      tag_366\n      jumpi\n        /* \"#utility.yul\":2128:2207   */\n      tag_367\n      tag_340\n      jump\t// in\n    tag_367:\n        /* \"#utility.yul\":2074:2217   */\n    tag_366:\n        /* \"#utility.yul\":2241:2242   */\n      0x00\n        /* \"#utility.yul\":2226:2464   */\n    tag_368:\n        /* \"#utility.yul\":2251:2257   */\n      dup6\n        /* \"#utility.yul\":2248:2249   */\n      dup2\n        /* \"#utility.yul\":2245:2258   */\n      lt\n        /* \"#utility.yul\":2226:2464   */\n      iszero\n      tag_370\n      jumpi\n        /* \"#utility.yul\":2319:2322   */\n      dup2\n        /* \"#utility.yul\":2348:2385   */\n      tag_371\n        /* \"#utility.yul\":2381:2384   */\n      dup9\n        /* \"#utility.yul\":2369:2379   */\n      dup3\n        /* \"#utility.yul\":2348:2385   */\n      tag_372\n      jump\t// in\n    tag_371:\n        /* \"#utility.yul\":2343:2346   */\n      dup5\n        /* \"#utility.yul\":2336:2386   */\n      mstore\n        /* \"#utility.yul\":2415:2419   */\n      0x20\n        /* \"#utility.yul\":2410:2413   */\n      dup5\n        /* \"#utility.yul\":2406:2420   */\n      add\n        /* \"#utility.yul\":2399:2420   */\n      swap4\n      pop\n        /* \"#utility.yul\":2449:2453   */\n      0x20\n        /* \"#utility.yul\":2444:2447   */\n      dup4\n        /* \"#utility.yul\":2440:2454   */\n      add\n        /* \"#utility.yul\":2433:2454   */\n      swap3\n      pop\n        /* \"#utility.yul\":2286:2464   */\n      pop\n        /* \"#utility.yul\":2273:2274   */\n      0x01\n        /* \"#utility.yul\":2270:2271   */\n      dup2\n        /* \"#utility.yul\":2266:2275   */\n      add\n        /* \"#utility.yul\":2261:2275   */\n      swap1\n      pop\n        /* \"#utility.yul\":2226:2464   */\n      jump(tag_368)\n    tag_370:\n        /* \"#utility.yul\":2230:2244   */\n      pop\n        /* \"#utility.yul\":1850:2470   */\n      pop\n      pop\n        /* \"#utility.yul\":1748:2470   */\n      swap4\n      swap3\n      pop\n      pop\n      pop\n      jump\t// out\n        /* \"#utility.yul\":2476:2888   */\n    tag_373:\n        /* \"#utility.yul\":2554:2559   */\n      0x00\n        /* \"#utility.yul\":2579:2645   */\n      tag_375\n        /* \"#utility.yul\":2595:2644   */\n      tag_376\n        /* \"#utility.yul\":2637:2643   */\n      dup5\n        /* \"#utility.yul\":2595:2644   */\n      tag_377\n      jump\t// in\n    tag_376:\n        /* \"#utility.yul\":2579:2645   */\n      tag_337\n      jump\t// in\n    tag_375:\n        /* \"#utility.yul\":2570:2645   */\n      swap1\n      pop\n        /* \"#utility.yul\":2668:2674   */\n      dup3\n        /* \"#utility.yul\":2661:2666   */\n      dup2\n        /* \"#utility.yul\":2654:2675   */\n      mstore\n        /* \"#utility.yul\":2706:2710   */\n      0x20\n        /* \"#utility.yul\":2699:2704   */\n      dup2\n        /* \"#utility.yul\":2695:2711   */\n      add\n        /* \"#utility.yul\":2744:2747   */\n      dup5\n        /* \"#utility.yul\":2735:2741   */\n      dup5\n        /* \"#utility.yul\":2730:2733   */\n      dup5\n        /* \"#utility.yul\":2726:2742   */\n      add\n        /* \"#utility.yul\":2723:2748   */\n      gt\n        /* \"#utility.yul\":2720:2832   */\n      iszero\n      tag_378\n      jumpi\n        /* \"#utility.yul\":2751:2830   */\n      tag_379\n      tag_380\n      jump\t// in\n    tag_379:\n        /* \"#utility.yul\":2720:2832   */\n    tag_378:\n        /* \"#utility.yul\":2841:2882   */\n      tag_381\n        /* \"#utility.yul\":2875:2881   */\n      dup5\n        /* \"#utility.yul\":2870:2873   */\n      dup3\n        /* \"#utility.yul\":2865:2868   */\n      dup6\n        /* \"#utility.yul\":2841:2882   */\n      tag_382\n      jump\t// in\n    tag_381:\n        /* \"#utility.yul\":2560:2888   */\n      pop\n        /* \"#utility.yul\":2476:2888   */\n      swap4\n      swap3\n      pop\n      pop\n      pop\n      jump\t// out\n        /* \"#utility.yul\":2894:3033   */\n    tag_345:\n        /* \"#utility.yul\":2940:2945   */\n      0x00\n        /* \"#utility.yul\":2978:2984   */\n      dup2\n        /* \"#utility.yul\":2965:2985   */\n      calldataload\n        /* \"#utility.yul\":2956:2985   */\n      swap1\n      pop\n        /* \"#utility.yul\":2994:3027   */\n      tag_384\n        /* \"#utility.yul\":3021:3026   */\n      dup2\n        /* \"#utility.yul\":2994:3027   */\n      tag_385\n      jump\t// in\n    tag_384:\n        /* \"#utility.yul\":2894:3033   */\n      swap3\n      swap2\n      pop\n      pop\n      jump\t// out\n        /* \"#utility.yul\":3056:3426   */\n    tag_386:\n        /* \"#utility.yul\":3127:3132   */\n      0x00\n        /* \"#utility.yul\":3176:3179   */\n      dup3\n        /* \"#utility.yul\":3169:3173   */\n      0x1f\n        /* \"#utility.yul\":3161:3167   */\n      dup4\n        /* \"#utility.yul\":3157:3174   */\n      add\n        /* \"#utility.yul\":3153:3180   */\n      slt\n        /* \"#utility.yul\":3143:3265   */\n      tag_388\n      jumpi\n        /* \"#utility.yul\":3184:3263   */\n      tag_389\n      tag_358\n      jump\t// in\n    tag_389:\n        /* \"#utility.yul\":3143:3265   */\n    tag_388:\n        /* \"#utility.yul\":3301:3307   */\n      dup2\n        /* \"#utility.yul\":3288:3308   */\n      calldataload\n        /* \"#utility.yul\":3326:3420   */\n      tag_390\n        /* \"#utility.yul\":3416:3419   */\n      dup5\n        /* \"#utility.yul\":3408:3414   */\n      dup3\n        /* \"#utility.yul\":3401:3405   */\n      0x20\n        /* \"#utility.yul\":3393:3399   */\n      dup7\n        /* \"#utility.yul\":3389:3406   */\n      add\n        /* \"#utility.yul\":3326:3420   */\n      tag_332\n      jump\t// in\n    tag_390:\n        /* \"#utility.yul\":3317:3420   */\n      swap2\n      pop\n        /* \"#utility.yul\":3133:3426   */\n      pop\n        /* \"#utility.yul\":3056:3426   */\n      swap3\n      swap2\n      pop\n      pop\n      jump\t// out\n        /* \"#utility.yul\":3448:4028   */\n    tag_391:\n        /* \"#utility.yul\":3533:3541   */\n      0x00\n        /* \"#utility.yul\":3543:3549   */\n      dup1\n        /* \"#utility.yul\":3593:3596   */\n      dup4\n        /* \"#utility.yul\":3586:3590   */\n      0x1f\n        /* \"#utility.yul\":3578:3584   */\n      dup5\n        /* \"#utility.yul\":3574:3591   */\n      add\n        /* \"#utility.yul\":3570:3597   */\n      slt\n        /* \"#utility.yul\":3560:3682   */\n      tag_393\n      jumpi\n        /* \"#utility.yul\":3601:3680   */\n      tag_394\n      tag_358\n      jump\t// in\n    tag_394:\n        /* \"#utility.yul\":3560:3682   */\n    tag_393:\n        /* \"#utility.yul\":3714:3720   */\n      dup3\n        /* \"#utility.yul\":3701:3721   */\n      calldataload\n        /* \"#utility.yul\":3691:3721   */\n      swap1\n      pop\n        /* \"#utility.yul\":3744:3762   */\n      0xffffffffffffffff\n        /* \"#utility.yul\":3736:3742   */\n      dup2\n        /* \"#utility.yul\":3733:3763   */\n      gt\n        /* \"#utility.yul\":3730:3847   */\n      iszero\n      tag_395\n      jumpi\n        /* \"#utility.yul\":3766:3845   */\n      tag_396\n      tag_397\n      jump\t// in\n    tag_396:\n        /* \"#utility.yul\":3730:3847   */\n    tag_395:\n        /* \"#utility.yul\":3880:3884   */\n      0x20\n        /* \"#utility.yul\":3872:3878   */\n      dup4\n        /* \"#utility.yul\":3868:3885   */\n      add\n        /* \"#utility.yul\":3856:3885   */\n      swap2\n      pop\n        /* \"#utility.yul\":3934:3937   */\n      dup4\n        /* \"#utility.yul\":3926:3930   */\n      0x20\n        /* \"#utility.yul\":3918:3924   */\n      dup3\n        /* \"#utility.yul\":3914:3931   */\n      mul\n        /* \"#utility.yul\":3904:3912   */\n      dup4\n        /* \"#utility.yul\":3900:3932   */\n      add\n        /* \"#utility.yul\":3897:3938   */\n      gt\n        /* \"#utility.yul\":3894:4022   */\n      iszero\n      tag_398\n      jumpi\n        /* \"#utility.yul\":3941:4020   */\n      tag_399\n      tag_340\n      jump\t// in\n    tag_399:\n        /* \"#utility.yul\":3894:4022   */\n    tag_398:\n        /* \"#utility.yul\":3448:4028   */\n      swap3\n      pop\n      swap3\n      swap1\n      pop\n      jump\t// out\n        /* \"#utility.yul\":4050:4440   */\n    tag_400:\n        /* \"#utility.yul\":4131:4136   */\n      0x00\n        /* \"#utility.yul\":4180:4183   */\n      dup3\n        /* \"#utility.yul\":4173:4177   */\n      0x1f\n        /* \"#utility.yul\":4165:4171   */\n      dup4\n        /* \"#utility.yul\":4161:4178   */\n      add\n        /* \"#utility.yul\":4157:4184   */\n      slt\n        /* \"#utility.yul\":4147:4269   */\n      tag_402\n      jumpi\n        /* \"#utility.yul\":4188:4267   */\n      tag_403\n      tag_358\n      jump\t// in\n    tag_403:\n        /* \"#utility.yul\":4147:4269   */\n    tag_402:\n        /* \"#utility.yul\":4305:4311   */\n      dup2\n        /* \"#utility.yul\":4292:4312   */\n      calldataload\n        /* \"#utility.yul\":4330:4434   */\n      tag_404\n        /* \"#utility.yul\":4430:4433   */\n      dup5\n        /* \"#utility.yul\":4422:4428   */\n      dup3\n        /* \"#utility.yul\":4415:4419   */\n      0x20\n        /* \"#utility.yul\":4407:4413   */\n      dup7\n        /* \"#utility.yul\":4403:4420   */\n      add\n        /* \"#utility.yul\":4330:4434   */\n      tag_346\n      jump\t// in\n    tag_404:\n        /* \"#utility.yul\":4321:4434   */\n      swap2\n      pop\n        /* \"#utility.yul\":4137:4440   */\n      pop\n        /* \"#utility.yul\":4050:4440   */\n      swap3\n      swap2\n      pop\n      pop\n      jump\t// out\n        /* \"#utility.yul\":4463:4833   */\n    tag_405:\n        /* \"#utility.yul\":4534:4539   */\n      0x00\n        /* \"#utility.yul\":4583:4586   */\n      dup3\n        /* \"#utility.yul\":4576:4580   */\n      0x1f\n        /* \"#utility.yul\":4568:4574   */\n      dup4\n        /* \"#utility.yul\":4564:4581   */\n      add\n        /* \"#utility.yul\":4560:4587   */\n      slt\n        /* \"#utility.yul\":4550:4672   */\n      tag_407\n      jumpi\n        /* \"#utility.yul\":4591:4670   */\n      tag_408\n      tag_358\n      jump\t// in\n    tag_408:\n        /* \"#utility.yul\":4550:4672   */\n    tag_407:\n        /* \"#utility.yul\":4708:4714   */\n      dup2\n        /* \"#utility.yul\":4695:4715   */\n      calldataload\n        /* \"#utility.yul\":4733:4827   */\n      tag_409\n        /* \"#utility.yul\":4823:4826   */\n      dup5\n        /* \"#utility.yul\":4815:4821   */\n      dup3\n        /* \"#utility.yul\":4808:4812   */\n      0x20\n        /* \"#utility.yul\":4800:4806   */\n      dup7\n        /* \"#utility.yul\":4796:4813   */\n      add\n        /* \"#utility.yul\":4733:4827   */\n      tag_361\n      jump\t// in\n    tag_409:\n        /* \"#utility.yul\":4724:4827   */\n      swap2\n      pop\n        /* \"#utility.yul\":4540:4833   */\n      pop\n        /* \"#utility.yul\":4463:4833   */\n      swap3\n      swap2\n      pop\n      pop\n      jump\t// out\n        /* \"#utility.yul\":4853:5193   */\n    tag_360:\n        /* \"#utility.yul\":4909:4914   */\n      0x00\n        /* \"#utility.yul\":4958:4961   */\n      dup3\n        /* \"#utility.yul\":4951:4955   */\n      0x1f\n        /* \"#utility.yul\":4943:4949   */\n      dup4\n        /* \"#utility.yul\":4939:4956   */\n      add\n        /* \"#utility.yul\":4935:4962   */\n      slt\n        /* \"#utility.yul\":4925:5047   */\n      tag_411\n      jumpi\n        /* \"#utility.yul\":4966:5045   */\n      tag_412\n      tag_358\n      jump\t// in\n    tag_412:\n        /* \"#utility.yul\":4925:5047   */\n    tag_411:\n        /* \"#utility.yul\":5083:5089   */\n      dup2\n        /* \"#utility.yul\":5070:5090   */\n      calldataload\n        /* \"#utility.yul\":5108:5187   */\n      tag_413\n        /* \"#utility.yul\":5183:5186   */\n      dup5\n        /* \"#utility.yul\":5175:5181   */\n      dup3\n        /* \"#utility.yul\":5168:5172   */\n      0x20\n        /* \"#utility.yul\":5160:5166   */\n      dup7\n        /* \"#utility.yul\":5156:5173   */\n      add\n        /* \"#utility.yul\":5108:5187   */\n      tag_373\n      jump\t// in\n    tag_413:\n        /* \"#utility.yul\":5099:5187   */\n      swap2\n      pop\n        /* \"#utility.yul\":4915:5193   */\n      pop\n        /* \"#utility.yul\":4853:5193   */\n      swap3\n      swap2\n      pop\n      pop\n      jump\t// out\n        /* \"#utility.yul\":5199:5338   */\n    tag_372:\n        /* \"#utility.yul\":5245:5250   */\n      0x00\n        /* \"#utility.yul\":5283:5289   */\n      dup2\n        /* \"#utility.yul\":5270:5290   */\n      calldataload\n        /* \"#utility.yul\":5261:5290   */\n      swap1\n      pop\n        /* \"#utility.yul\":5299:5332   */\n      tag_415\n        /* \"#utility.yul\":5326:5331   */\n      dup2\n        /* \"#utility.yul\":5299:5332   */\n      tag_416\n      jump\t// in\n    tag_415:\n        /* \"#utility.yul\":5199:5338   */\n      swap3\n      swap2\n      pop\n      pop\n      jump\t// out\n        /* \"#utility.yul\":5344:5479   */\n    tag_417:\n        /* \"#utility.yul\":5388:5393   */\n      0x00\n        /* \"#utility.yul\":5426:5432   */\n      dup2\n        /* \"#utility.yul\":5413:5433   */\n      calldataload\n        /* \"#utility.yul\":5404:5433   */\n      swap1\n      pop\n        /* \"#utility.yul\":5442:5473   */\n      tag_419\n        /* \"#utility.yul\":5467:5472   */\n      dup2\n        /* \"#utility.yul\":5442:5473   */\n      tag_420\n      jump\t// in\n    tag_419:\n        /* \"#utility.yul\":5344:5479   */\n      swap3\n      swap2\n      pop\n      pop\n      jump\t// out\n        /* \"#utility.yul\":5485:5814   */\n    tag_50:\n        /* \"#utility.yul\":5544:5550   */\n      0x00\n        /* \"#utility.yul\":5593:5595   */\n      0x20\n        /* \"#utility.yul\":5581:5590   */\n      dup3\n        /* \"#utility.yul\":5572:5579   */\n      dup5\n        /* \"#utility.yul\":5568:5591   */\n      sub\n        /* \"#utility.yul\":5564:5596   */\n      slt\n        /* \"#utility.yul\":5561:5680   */\n      iszero\n      tag_422\n      jumpi\n        /* \"#utility.yul\":5599:5678   */\n      tag_423\n      tag_424\n      jump\t// in\n    tag_423:\n        /* \"#utility.yul\":5561:5680   */\n    tag_422:\n        /* \"#utility.yul\":5719:5720   */\n      0x00\n        /* \"#utility.yul\":5744:5797   */\n      tag_425\n        /* \"#utility.yul\":5789:5796   */\n      dup5\n        /* \"#utility.yul\":5780:5786   */\n      dup3\n        /* \"#utility.yul\":5769:5778   */\n      dup6\n        /* \"#utility.yul\":5765:5787   */\n      add\n        /* \"#utility.yul\":5744:5797   */\n      tag_345\n      jump\t// in\n    tag_425:\n        /* \"#utility.yul\":5734:5797   */\n      swap2\n      pop\n        /* \"#utility.yul\":5690:5807   */\n      pop\n        /* \"#utility.yul\":5485:5814   */\n      swap3\n      swap2\n      pop\n      pop\n      jump\t// out\n        /* \"#utility.yul\":5820:6294   */\n    tag_63:\n        /* \"#utility.yul\":5888:5894   */\n      0x00\n        /* \"#utility.yul\":5896:5902   */\n      dup1\n        /* \"#utility.yul\":5945:5947   */\n      0x40\n        /* \"#utility.yul\":5933:5942   */\n      dup4\n        /* \"#utility.yul\":5924:5931   */\n      dup6\n        /* \"#utility.yul\":5920:5943   */\n      sub\n        /* \"#utility.yul\":5916:5948   */\n      slt\n        /* \"#utility.yul\":5913:6032   */\n      iszero\n      tag_427\n      jumpi\n        /* \"#utility.yul\":5951:6030   */\n      tag_428\n      tag_424\n      jump\t// in\n    tag_428:\n        /* \"#utility.yul\":5913:6032   */\n    tag_427:\n        /* \"#utility.yul\":6071:6072   */\n      0x00\n        /* \"#utility.yul\":6096:6149   */\n      tag_429\n        /* \"#utility.yul\":6141:6148   */\n      dup6\n        /* \"#utility.yul\":6132:6138   */\n      dup3\n        /* \"#utility.yul\":6121:6130   */\n      dup7\n        /* \"#utility.yul\":6117:6139   */\n      add\n        /* \"#utility.yul\":6096:6149   */\n      tag_345\n      jump\t// in\n    tag_429:\n        /* \"#utility.yul\":6086:6149   */\n      swap3\n      pop\n        /* \"#utility.yul\":6042:6159   */\n      pop\n        /* \"#utility.yul\":6198:6200   */\n      0x20\n        /* \"#utility.yul\":6224:6277   */\n      tag_430\n        /* \"#utility.yul\":6269:6276   */\n      dup6\n        /* \"#utility.yul\":6260:6266   */\n      dup3\n        /* \"#utility.yul\":6249:6258   */\n      dup7\n        /* \"#utility.yul\":6245:6267   */\n      add\n        /* \"#utility.yul\":6224:6277   */\n      tag_372\n      jump\t// in\n    tag_430:\n        /* \"#utility.yul\":6214:6277   */\n      swap2\n      pop\n        /* \"#utility.yul\":6169:6287   */\n      pop\n        /* \"#utility.yul\":5820:6294   */\n      swap3\n      pop\n      swap3\n      swap1\n      pop\n      jump\t// out\n        /* \"#utility.yul\":6300:6629   */\n    tag_18:\n        /* \"#utility.yul\":6359:6365   */\n      0x00\n        /* \"#utility.yul\":6408:6410   */\n      0x20\n        /* \"#utility.yul\":6396:6405   */\n      dup3\n        /* \"#utility.yul\":6387:6394   */\n      dup5\n        /* \"#utility.yul\":6383:6406   */\n      sub\n        /* \"#utility.yul\":6379:6411   */\n      slt\n        /* \"#utility.yul\":6376:6495   */\n      iszero\n      tag_432\n      jumpi\n        /* \"#utility.yul\":6414:6493   */\n      tag_433\n      tag_424\n      jump\t// in\n    tag_433:\n        /* \"#utility.yul\":6376:6495   */\n    tag_432:\n        /* \"#utility.yul\":6534:6535   */\n      0x00\n        /* \"#utility.yul\":6559:6612   */\n      tag_434\n        /* \"#utility.yul\":6604:6611   */\n      dup5\n        /* \"#utility.yul\":6595:6601   */\n      dup3\n        /* \"#utility.yul\":6584:6593   */\n      dup6\n        /* \"#utility.yul\":6580:6602   */\n      add\n        /* \"#utility.yul\":6559:6612   */\n      tag_372\n      jump\t// in\n    tag_434:\n        /* \"#utility.yul\":6549:6612   */\n      swap2\n      pop\n        /* \"#utility.yul\":6505:6622   */\n      pop\n        /* \"#utility.yul\":6300:6629   */\n      swap3\n      swap2\n      pop\n      pop\n      jump\t// out\n        /* \"#utility.yul\":6635:7840   */\n    tag_46:\n        /* \"#utility.yul\":6781:6787   */\n      0x00\n        /* \"#utility.yul\":6789:6795   */\n      dup1\n        /* \"#utility.yul\":6797:6803   */\n      0x00\n        /* \"#utility.yul\":6805:6811   */\n      dup1\n        /* \"#utility.yul\":6854:6857   */\n      0x80\n        /* \"#utility.yul\":6842:6851   */\n      dup6\n        /* \"#utility.yul\":6833:6840   */\n      dup8\n        /* \"#utility.yul\":6829:6852   */\n      sub\n        /* \"#utility.yul\":6825:6858   */\n      slt\n        /* \"#utility.yul\":6822:6942   */\n      iszero\n      tag_436\n      jumpi\n        /* \"#utility.yul\":6861:6940   */\n      tag_437\n      tag_424\n      jump\t// in\n    tag_437:\n        /* \"#utility.yul\":6822:6942   */\n    tag_436:\n        /* \"#utility.yul\":6981:6982   */\n      0x00\n        /* \"#utility.yul\":7006:7059   */\n      tag_438\n        /* \"#utility.yul\":7051:7058   */\n      dup8\n        /* \"#utility.yul\":7042:7048   */\n      dup3\n        /* \"#utility.yul\":7031:7040   */\n      dup9\n        /* \"#utility.yul\":7027:7049   */\n      add\n        /* \"#utility.yul\":7006:7059   */\n      tag_372\n      jump\t// in\n    tag_438:\n        /* \"#utility.yul\":6996:7059   */\n      swap5\n      pop\n        /* \"#utility.yul\":6952:7069   */\n      pop\n        /* \"#utility.yul\":7108:7110   */\n      0x20\n        /* \"#utility.yul\":7134:7187   */\n      tag_439\n        /* \"#utility.yul\":7179:7186   */\n      dup8\n        /* \"#utility.yul\":7170:7176   */\n      dup3\n        /* \"#utility.yul\":7159:7168   */\n      dup9\n        /* \"#utility.yul\":7155:7177   */\n      add\n        /* \"#utility.yul\":7134:7187   */\n      tag_345\n      jump\t// in\n    tag_439:\n        /* \"#utility.yul\":7124:7187   */\n      swap4\n      pop\n        /* \"#utility.yul\":7079:7197   */\n      pop\n        /* \"#utility.yul\":7264:7266   */\n      0x40\n        /* \"#utility.yul\":7253:7262   */\n      dup6\n        /* \"#utility.yul\":7249:7267   */\n      add\n        /* \"#utility.yul\":7236:7268   */\n      calldataload\n        /* \"#utility.yul\":7295:7313   */\n      0xffffffffffffffff\n        /* \"#utility.yul\":7287:7293   */\n      dup2\n        /* \"#utility.yul\":7284:7314   */\n      gt\n        /* \"#utility.yul\":7281:7398   */\n      iszero\n      tag_440\n      jumpi\n        /* \"#utility.yul\":7317:7396   */\n      tag_441\n      tag_442\n      jump\t// in\n    tag_441:\n        /* \"#utility.yul\":7281:7398   */\n    tag_440:\n        /* \"#utility.yul\":7422:7510   */\n      tag_443\n        /* \"#utility.yul\":7502:7509   */\n      dup8\n        /* \"#utility.yul\":7493:7499   */\n      dup3\n        /* \"#utility.yul\":7482:7491   */\n      dup9\n        /* \"#utility.yul\":7478:7500   */\n      add\n        /* \"#utility.yul\":7422:7510   */\n      tag_400\n      jump\t// in\n    tag_443:\n        /* \"#utility.yul\":7412:7510   */\n      swap3\n      pop\n        /* \"#utility.yul\":7207:7520   */\n      pop\n        /* \"#utility.yul\":7587:7589   */\n      0x60\n        /* \"#utility.yul\":7576:7585   */\n      dup6\n        /* \"#utility.yul\":7572:7590   */\n      add\n        /* \"#utility.yul\":7559:7591   */\n      calldataload\n        /* \"#utility.yul\":7618:7636   */\n      0xffffffffffffffff\n        /* \"#utility.yul\":7610:7616   */\n      dup2\n        /* \"#utility.yul\":7607:7637   */\n      gt\n        /* \"#utility.yul\":7604:7721   */\n      iszero\n      tag_444\n      jumpi\n        /* \"#utility.yul\":7640:7719   */\n      tag_445\n      tag_442\n      jump\t// in\n    tag_445:\n        /* \"#utility.yul\":7604:7721   */\n    tag_444:\n        /* \"#utility.yul\":7745:7823   */\n      tag_446\n        /* \"#utility.yul\":7815:7822   */\n      dup8\n        /* \"#utility.yul\":7806:7812   */\n      dup3\n        /* \"#utility.yul\":7795:7804   */\n      dup9\n        /* \"#utility.yul\":7791:7813   */\n      add\n        /* \"#utility.yul\":7745:7823   */\n      tag_405\n      jump\t// in\n    tag_446:\n        /* \"#utility.yul\":7735:7823   */\n      swap2\n      pop\n        /* \"#utility.yul\":7530:7833   */\n      pop\n        /* \"#utility.yul\":6635:7840   */\n      swap3\n      swap6\n      swap2\n      swap5\n      pop\n      swap3\n      pop\n      jump\t// out\n        /* \"#utility.yul\":7846:8530   */\n    tag_24:\n        /* \"#utility.yul\":7939:7945   */\n      0x00\n        /* \"#utility.yul\":7947:7953   */\n      dup1\n        /* \"#utility.yul\":7996:7998   */\n      0x40\n        /* \"#utility.yul\":7984:7993   */\n      dup4\n        /* \"#utility.yul\":7975:7982   */\n      dup6\n        /* \"#utility.yul\":7971:7994   */\n      sub\n        /* \"#utility.yul\":7967:7999   */\n      slt\n        /* \"#utility.yul\":7964:8083   */\n      iszero\n      tag_448\n      jumpi\n        /* \"#utility.yul\":8002:8081   */\n      tag_449\n      tag_424\n      jump\t// in\n    tag_449:\n        /* \"#utility.yul\":7964:8083   */\n    tag_448:\n        /* \"#utility.yul\":8122:8123   */\n      0x00\n        /* \"#utility.yul\":8147:8200   */\n      tag_450\n        /* \"#utility.yul\":8192:8199   */\n      dup6\n        /* \"#utility.yul\":8183:8189   */\n      dup3\n        /* \"#utility.yul\":8172:8181   */\n      dup7\n        /* \"#utility.yul\":8168:8190   */\n      add\n        /* \"#utility.yul\":8147:8200   */\n      tag_372\n      jump\t// in\n    tag_450:\n        /* \"#utility.yul\":8137:8200   */\n      swap3\n      pop\n        /* \"#utility.yul\":8093:8210   */\n      pop\n        /* \"#utility.yul\":8277:8279   */\n      0x20\n        /* \"#utility.yul\":8266:8275   */\n      dup4\n        /* \"#utility.yul\":8262:8280   */\n      add\n        /* \"#utility.yul\":8249:8281   */\n      calldataload\n        /* \"#utility.yul\":8308:8326   */\n      0xffffffffffffffff\n        /* \"#utility.yul\":8300:8306   */\n      dup2\n        /* \"#utility.yul\":8297:8327   */\n      gt\n        /* \"#utility.yul\":8294:8411   */\n      iszero\n      tag_451\n      jumpi\n        /* \"#utility.yul\":8330:8409   */\n      tag_452\n      tag_442\n      jump\t// in\n    tag_452:\n        /* \"#utility.yul\":8294:8411   */\n    tag_451:\n        /* \"#utility.yul\":8435:8513   */\n      tag_453\n        /* \"#utility.yul\":8505:8512   */\n      dup6\n        /* \"#utility.yul\":8496:8502   */\n      dup3\n        /* \"#utility.yul\":8485:8494   */\n      dup7\n        /* \"#utility.yul\":8481:8503   */\n      add\n        /* \"#utility.yul\":8435:8513   */\n      tag_386\n      jump\t// in\n    tag_453:\n        /* \"#utility.yul\":8425:8513   */\n      swap2\n      pop\n        /* \"#utility.yul\":8220:8523   */\n      pop\n        /* \"#utility.yul\":7846:8530   */\n      swap3\n      pop\n      swap3\n      swap1\n      pop\n      jump\t// out\n        /* \"#utility.yul\":8536:10525   */\n    tag_42:\n        /* \"#utility.yul\":8730:8736   */\n      0x00\n        /* \"#utility.yul\":8738:8744   */\n      dup1\n        /* \"#utility.yul\":8746:8752   */\n      0x00\n        /* \"#utility.yul\":8754:8760   */\n      dup1\n        /* \"#utility.yul\":8762:8768   */\n      0x00\n        /* \"#utility.yul\":8770:8776   */\n      dup1\n        /* \"#utility.yul\":8778:8784   */\n      0x00\n        /* \"#utility.yul\":8786:8792   */\n      dup1\n        /* \"#utility.yul\":8794:8800   */\n      0x00\n        /* \"#utility.yul\":8843:8846   */\n      0x0100\n        /* \"#utility.yul\":8831:8840   */\n      dup11\n        /* \"#utility.yul\":8822:8829   */\n      dup13\n        /* \"#utility.yul\":8818:8841   */\n      sub\n        /* \"#utility.yul\":8814:8847   */\n      slt\n        /* \"#utility.yul\":8811:8931   */\n      iszero\n      tag_455\n      jumpi\n        /* \"#utility.yul\":8850:8929   */\n      tag_456\n      tag_424\n      jump\t// in\n    tag_456:\n        /* \"#utility.yul\":8811:8931   */\n    tag_455:\n        /* \"#utility.yul\":8970:8971   */\n      0x00\n        /* \"#utility.yul\":8995:9046   */\n      tag_457\n        /* \"#utility.yul\":9038:9045   */\n      dup13\n        /* \"#utility.yul\":9029:9035   */\n      dup3\n        /* \"#utility.yul\":9018:9027   */\n      dup14\n        /* \"#utility.yul\":9014:9036   */\n      add\n        /* \"#utility.yul\":8995:9046   */\n      tag_417\n      jump\t// in\n    tag_457:\n        /* \"#utility.yul\":8985:9046   */\n      swap10\n      pop\n        /* \"#utility.yul\":8941:9056   */\n      pop\n        /* \"#utility.yul\":9123:9125   */\n      0x20\n        /* \"#utility.yul\":9112:9121   */\n      dup11\n        /* \"#utility.yul\":9108:9126   */\n      add\n        /* \"#utility.yul\":9095:9127   */\n      calldataload\n        /* \"#utility.yul\":9154:9172   */\n      0xffffffffffffffff\n        /* \"#utility.yul\":9146:9152   */\n      dup2\n        /* \"#utility.yul\":9143:9173   */\n      gt\n        /* \"#utility.yul\":9140:9257   */\n      iszero\n      tag_458\n      jumpi\n        /* \"#utility.yul\":9176:9255   */\n      tag_459\n      tag_442\n      jump\t// in\n    tag_459:\n        /* \"#utility.yul\":9140:9257   */\n    tag_458:\n        /* \"#utility.yul\":9281:9359   */\n      tag_460\n        /* \"#utility.yul\":9351:9358   */\n      dup13\n        /* \"#utility.yul\":9342:9348   */\n      dup3\n        /* \"#utility.yul\":9331:9340   */\n      dup14\n        /* \"#utility.yul\":9327:9349   */\n      add\n        /* \"#utility.yul\":9281:9359   */\n      tag_386\n      jump\t// in\n    tag_460:\n        /* \"#utility.yul\":9271:9359   */\n      swap9\n      pop\n        /* \"#utility.yul\":9066:9369   */\n      pop\n        /* \"#utility.yul\":9408:9410   */\n      0x40\n        /* \"#utility.yul\":9434:9487   */\n      tag_461\n        /* \"#utility.yul\":9479:9486   */\n      dup13\n        /* \"#utility.yul\":9470:9476   */\n      dup3\n        /* \"#utility.yul\":9459:9468   */\n      dup14\n        /* \"#utility.yul\":9455:9477   */\n      add\n        /* \"#utility.yul\":9434:9487   */\n      tag_345\n      jump\t// in\n    tag_461:\n        /* \"#utility.yul\":9424:9487   */\n      swap8\n      pop\n        /* \"#utility.yul\":9379:9497   */\n      pop\n        /* \"#utility.yul\":9536:9538   */\n      0x60\n        /* \"#utility.yul\":9562:9615   */\n      tag_462\n        /* \"#utility.yul\":9607:9614   */\n      dup13\n        /* \"#utility.yul\":9598:9604   */\n      dup3\n        /* \"#utility.yul\":9587:9596   */\n      dup14\n        /* \"#utility.yul\":9583:9605   */\n      add\n        /* \"#utility.yul\":9562:9615   */\n      tag_372\n      jump\t// in\n    tag_462:\n        /* \"#utility.yul\":9552:9615   */\n      swap7\n      pop\n        /* \"#utility.yul\":9507:9625   */\n      pop\n        /* \"#utility.yul\":9664:9667   */\n      0x80\n        /* \"#utility.yul\":9691:9744   */\n      tag_463\n        /* \"#utility.yul\":9736:9743   */\n      dup13\n        /* \"#utility.yul\":9727:9733   */\n      dup3\n        /* \"#utility.yul\":9716:9725   */\n      dup14\n        /* \"#utility.yul\":9712:9734   */\n      add\n        /* \"#utility.yul\":9691:9744   */\n      tag_372\n      jump\t// in\n    tag_463:\n        /* \"#utility.yul\":9681:9744   */\n      swap6\n      pop\n        /* \"#utility.yul\":9635:9754   */\n      pop\n        /* \"#utility.yul\":9821:9824   */\n      0xa0\n        /* \"#utility.yul\":9810:9819   */\n      dup11\n        /* \"#utility.yul\":9806:9825   */\n      add\n        /* \"#utility.yul\":9793:9826   */\n      calldataload\n        /* \"#utility.yul\":9853:9871   */\n      0xffffffffffffffff\n        /* \"#utility.yul\":9845:9851   */\n      dup2\n        /* \"#utility.yul\":9842:9872   */\n      gt\n        /* \"#utility.yul\":9839:9956   */\n      iszero\n      tag_464\n      jumpi\n        /* \"#utility.yul\":9875:9954   */\n      tag_465\n      tag_442\n      jump\t// in\n    tag_465:\n        /* \"#utility.yul\":9839:9956   */\n    tag_464:\n        /* \"#utility.yul\":9980:10043   */\n      tag_466\n        /* \"#utility.yul\":10035:10042   */\n      dup13\n        /* \"#utility.yul\":10026:10032   */\n      dup3\n        /* \"#utility.yul\":10015:10024   */\n      dup14\n        /* \"#utility.yul\":10011:10033   */\n      add\n        /* \"#utility.yul\":9980:10043   */\n      tag_360\n      jump\t// in\n    tag_466:\n        /* \"#utility.yul\":9970:10043   */\n      swap5\n      pop\n        /* \"#utility.yul\":9764:10053   */\n      pop\n        /* \"#utility.yul\":10120:10123   */\n      0xc0\n        /* \"#utility.yul\":10109:10118   */\n      dup11\n        /* \"#utility.yul\":10105:10124   */\n      add\n        /* \"#utility.yul\":10092:10125   */\n      calldataload\n        /* \"#utility.yul\":10152:10170   */\n      0xffffffffffffffff\n        /* \"#utility.yul\":10144:10150   */\n      dup2\n        /* \"#utility.yul\":10141:10171   */\n      gt\n        /* \"#utility.yul\":10138:10255   */\n      iszero\n      tag_467\n      jumpi\n        /* \"#utility.yul\":10174:10253   */\n      tag_468\n      tag_442\n      jump\t// in\n    tag_468:\n        /* \"#utility.yul\":10138:10255   */\n    tag_467:\n        /* \"#utility.yul\":10287:10379   */\n      tag_469\n        /* \"#utility.yul\":10371:10378   */\n      dup13\n        /* \"#utility.yul\":10362:10368   */\n      dup3\n        /* \"#utility.yul\":10351:10360   */\n      dup14\n        /* \"#utility.yul\":10347:10369   */\n      add\n        /* \"#utility.yul\":10287:10379   */\n      tag_391\n      jump\t// in\n    tag_469:\n        /* \"#utility.yul\":10269:10379   */\n      swap4\n      pop\n      swap4\n      pop\n        /* \"#utility.yul\":10063:10389   */\n      pop\n        /* \"#utility.yul\":10428:10431   */\n      0xe0\n        /* \"#utility.yul\":10455:10508   */\n      tag_470\n        /* \"#utility.yul\":10500:10507   */\n      dup13\n        /* \"#utility.yul\":10491:10497   */\n      dup3\n        /* \"#utility.yul\":10480:10489   */\n      dup14\n        /* \"#utility.yul\":10476:10498   */\n      add\n        /* \"#utility.yul\":10455:10508   */\n      tag_372\n      jump\t// in\n    tag_470:\n        /* \"#utility.yul\":10445:10508   */\n      swap2\n      pop\n        /* \"#utility.yul\":10399:10518   */\n      pop\n        /* \"#utility.yul\":8536:10525   */\n      swap3\n      swap6\n      swap9\n      pop\n      swap3\n      swap6\n      swap9\n      pop\n      swap3\n      swap6\n      swap9\n      jump\t// out\n        /* \"#utility.yul\":10531:10710   */\n    tag_471:\n        /* \"#utility.yul\":10600:10610   */\n      0x00\n        /* \"#utility.yul\":10621:10667   */\n      tag_473\n        /* \"#utility.yul\":10663:10666   */\n      dup4\n        /* \"#utility.yul\":10655:10661   */\n      dup4\n        /* \"#utility.yul\":10621:10667   */\n      tag_474\n      jump\t// in\n    tag_473:\n        /* \"#utility.yul\":10699:10703   */\n      0x20\n        /* \"#utility.yul\":10694:10697   */\n      dup4\n        /* \"#utility.yul\":10690:10704   */\n      add\n        /* \"#utility.yul\":10676:10704   */\n      swap1\n      pop\n        /* \"#utility.yul\":10531:10710   */\n      swap3\n      swap2\n      pop\n      pop\n      jump\t// out\n        /* \"#utility.yul\":10716:10932   */\n    tag_475:\n        /* \"#utility.yul\":10815:10825   */\n      0x00\n        /* \"#utility.yul\":10850:10926   */\n      tag_477\n        /* \"#utility.yul\":10922:10925   */\n      dup5\n        /* \"#utility.yul\":10914:10920   */\n      dup5\n        /* \"#utility.yul\":10906:10912   */\n      dup5\n        /* \"#utility.yul\":10850:10926   */\n      tag_478\n      jump\t// in\n    tag_477:\n        /* \"#utility.yul\":10836:10926   */\n      swap1\n      pop\n        /* \"#utility.yul\":10716:10932   */\n      swap4\n      swap3\n      pop\n      pop\n      pop\n      jump\t// out\n        /* \"#utility.yul\":10938:11046   */\n    tag_474:\n        /* \"#utility.yul\":11015:11039   */\n      tag_480\n        /* \"#utility.yul\":11033:11038   */\n      dup2\n        /* \"#utility.yul\":11015:11039   */\n      tag_481\n      jump\t// in\n    tag_480:\n        /* \"#utility.yul\":11010:11013   */\n      dup3\n        /* \"#utility.yul\":11003:11040   */\n      mstore\n        /* \"#utility.yul\":10938:11046   */\n      pop\n      pop\n      jump\t// out\n        /* \"#utility.yul\":11052:11170   */\n    tag_482:\n        /* \"#utility.yul\":11139:11163   */\n      tag_484\n        /* \"#utility.yul\":11157:11162   */\n      dup2\n        /* \"#utility.yul\":11139:11163   */\n      tag_481\n      jump\t// in\n    tag_484:\n        /* \"#utility.yul\":11134:11137   */\n      dup3\n        /* \"#utility.yul\":11127:11164   */\n      mstore\n        /* \"#utility.yul\":11052:11170   */\n      pop\n      pop\n      jump\t// out\n        /* \"#utility.yul\":11206:11938   */\n    tag_485:\n        /* \"#utility.yul\":11325:11328   */\n      0x00\n        /* \"#utility.yul\":11354:11408   */\n      tag_487\n        /* \"#utility.yul\":11402:11407   */\n      dup3\n        /* \"#utility.yul\":11354:11408   */\n      tag_488\n      jump\t// in\n    tag_487:\n        /* \"#utility.yul\":11424:11510   */\n      tag_489\n        /* \"#utility.yul\":11503:11509   */\n      dup2\n        /* \"#utility.yul\":11498:11501   */\n      dup6\n        /* \"#utility.yul\":11424:11510   */\n      tag_490\n      jump\t// in\n    tag_489:\n        /* \"#utility.yul\":11417:11510   */\n      swap4\n      pop\n        /* \"#utility.yul\":11534:11590   */\n      tag_491\n        /* \"#utility.yul\":11584:11589   */\n      dup4\n        /* \"#utility.yul\":11534:11590   */\n      tag_492\n      jump\t// in\n    tag_491:\n        /* \"#utility.yul\":11613:11620   */\n      dup1\n        /* \"#utility.yul\":11644:11645   */\n      0x00\n        /* \"#utility.yul\":11629:11913   */\n    tag_493:\n        /* \"#utility.yul\":11654:11660   */\n      dup4\n        /* \"#utility.yul\":11651:11652   */\n      dup2\n        /* \"#utility.yul\":11648:11661   */\n      lt\n        /* \"#utility.yul\":11629:11913   */\n      iszero\n      tag_495\n      jumpi\n        /* \"#utility.yul\":11730:11736   */\n      dup2\n        /* \"#utility.yul\":11724:11737   */\n      mload\n        /* \"#utility.yul\":11757:11820   */\n      tag_496\n        /* \"#utility.yul\":11816:11819   */\n      dup9\n        /* \"#utility.yul\":11801:11814   */\n      dup3\n        /* \"#utility.yul\":11757:11820   */\n      tag_471\n      jump\t// in\n    tag_496:\n        /* \"#utility.yul\":11750:11820   */\n      swap8\n      pop\n        /* \"#utility.yul\":11843:11903   */\n      tag_497\n        /* \"#utility.yul\":11896:11902   */\n      dup4\n        /* \"#utility.yul\":11843:11903   */\n      tag_498\n      jump\t// in\n    tag_497:\n        /* \"#utility.yul\":11833:11903   */\n      swap3\n      pop\n        /* \"#utility.yul\":11689:11913   */\n      pop\n        /* \"#utility.yul\":11676:11677   */\n      0x01\n        /* \"#utility.yul\":11673:11674   */\n      dup2\n        /* \"#utility.yul\":11669:11678   */\n      add\n        /* \"#utility.yul\":11664:11678   */\n      swap1\n      pop\n        /* \"#utility.yul\":11629:11913   */\n      jump(tag_493)\n    tag_495:\n        /* \"#utility.yul\":11633:11647   */\n      pop\n        /* \"#utility.yul\":11929:11932   */\n      dup6\n        /* \"#utility.yul\":11922:11932   */\n      swap4\n      pop\n        /* \"#utility.yul\":11330:11938   */\n      pop\n      pop\n      pop\n        /* \"#utility.yul\":11206:11938   */\n      swap3\n      swap2\n      pop\n      pop\n      jump\t// out\n        /* \"#utility.yul\":11972:12970   */\n    tag_499:\n        /* \"#utility.yul\":12123:12126   */\n      0x00\n        /* \"#utility.yul\":12146:12242   */\n      tag_501\n        /* \"#utility.yul\":12235:12241   */\n      dup4\n        /* \"#utility.yul\":12230:12233   */\n      dup6\n        /* \"#utility.yul\":12146:12242   */\n      tag_502\n      jump\t// in\n    tag_501:\n        /* \"#utility.yul\":12139:12242   */\n      swap4\n      pop\n        /* \"#utility.yul\":12268:12271   */\n      dup4\n        /* \"#utility.yul\":12313:12317   */\n      0x20\n        /* \"#utility.yul\":12305:12311   */\n      dup5\n        /* \"#utility.yul\":12301:12318   */\n      mul\n        /* \"#utility.yul\":12296:12299   */\n      dup6\n        /* \"#utility.yul\":12292:12319   */\n      add\n        /* \"#utility.yul\":12343:12413   */\n      tag_503\n        /* \"#utility.yul\":12407:12412   */\n      dup5\n        /* \"#utility.yul\":12343:12413   */\n      tag_504\n      jump\t// in\n    tag_503:\n        /* \"#utility.yul\":12436:12443   */\n      dup1\n        /* \"#utility.yul\":12467:12468   */\n      0x00\n        /* \"#utility.yul\":12452:12925   */\n    tag_505:\n        /* \"#utility.yul\":12477:12483   */\n      dup8\n        /* \"#utility.yul\":12474:12475   */\n      dup2\n        /* \"#utility.yul\":12471:12484   */\n      lt\n        /* \"#utility.yul\":12452:12925   */\n      iszero\n      tag_507\n      jumpi\n        /* \"#utility.yul\":12548:12557   */\n      dup5\n        /* \"#utility.yul\":12542:12546   */\n      dup5\n        /* \"#utility.yul\":12538:12558   */\n      sub\n        /* \"#utility.yul\":12533:12536   */\n      dup10\n        /* \"#utility.yul\":12526:12559   */\n      mstore\n        /* \"#utility.yul\":12608:12662   */\n      tag_508\n        /* \"#utility.yul\":12655:12661   */\n      dup3\n        /* \"#utility.yul\":12646:12653   */\n      dup5\n        /* \"#utility.yul\":12608:12662   */\n      tag_509\n      jump\t// in\n    tag_508:\n        /* \"#utility.yul\":12683:12784   */\n      tag_510\n        /* \"#utility.yul\":12779:12783   */\n      dup7\n        /* \"#utility.yul\":12764:12777   */\n      dup3\n        /* \"#utility.yul\":12749:12762   */\n      dup5\n        /* \"#utility.yul\":12683:12784   */\n      tag_475\n      jump\t// in\n    tag_510:\n        /* \"#utility.yul\":12675:12784   */\n      swap6\n      pop\n        /* \"#utility.yul\":12807:12881   */\n      tag_511\n        /* \"#utility.yul\":12874:12880   */\n      dup5\n        /* \"#utility.yul\":12807:12881   */\n      tag_512\n      jump\t// in\n    tag_511:\n        /* \"#utility.yul\":12797:12881   */\n      swap4\n      pop\n        /* \"#utility.yul\":12910:12914   */\n      0x20\n        /* \"#utility.yul\":12905:12908   */\n      dup12\n        /* \"#utility.yul\":12901:12915   */\n      add\n        /* \"#utility.yul\":12894:12915   */\n      swap11\n      pop\n        /* \"#utility.yul\":12512:12925   */\n      pop\n      pop\n        /* \"#utility.yul\":12499:12500   */\n      0x01\n        /* \"#utility.yul\":12496:12497   */\n      dup2\n        /* \"#utility.yul\":12492:12501   */\n      add\n        /* \"#utility.yul\":12487:12501   */\n      swap1\n      pop\n        /* \"#utility.yul\":12452:12925   */\n      jump(tag_505)\n    tag_507:\n        /* \"#utility.yul\":12456:12470   */\n      pop\n        /* \"#utility.yul\":12941:12945   */\n      dup3\n        /* \"#utility.yul\":12934:12945   */\n      swap8\n      pop\n        /* \"#utility.yul\":12961:12964   */\n      dup8\n        /* \"#utility.yul\":12954:12964   */\n      swap5\n      pop\n        /* \"#utility.yul\":12128:12970   */\n      pop\n      pop\n      pop\n      pop\n        /* \"#utility.yul\":11972:12970   */\n      swap4\n      swap3\n      pop\n      pop\n      pop\n      jump\t// out\n        /* \"#utility.yul\":12976:13085   */\n    tag_513:\n        /* \"#utility.yul\":13057:13078   */\n      tag_515\n        /* \"#utility.yul\":13072:13077   */\n      dup2\n        /* \"#utility.yul\":13057:13078   */\n      tag_516\n      jump\t// in\n    tag_515:\n        /* \"#utility.yul\":13052:13055   */\n      dup3\n        /* \"#utility.yul\":13045:13079   */\n      mstore\n        /* \"#utility.yul\":12976:13085   */\n      pop\n      pop\n      jump\t// out\n        /* \"#utility.yul\":13115:13399   */\n    tag_478:\n        /* \"#utility.yul\":13203:13206   */\n      0x00\n        /* \"#utility.yul\":13224:13285   */\n      tag_518\n        /* \"#utility.yul\":13278:13284   */\n      dup4\n        /* \"#utility.yul\":13273:13276   */\n      dup6\n        /* \"#utility.yul\":13224:13285   */\n      tag_519\n      jump\t// in\n    tag_518:\n        /* \"#utility.yul\":13217:13285   */\n      swap4\n      pop\n        /* \"#utility.yul\":13295:13338   */\n      tag_520\n        /* \"#utility.yul\":13331:13337   */\n      dup4\n        /* \"#utility.yul\":13326:13329   */\n      dup6\n        /* \"#utility.yul\":13319:13324   */\n      dup5\n        /* \"#utility.yul\":13295:13338   */\n      tag_382\n      jump\t// in\n    tag_520:\n        /* \"#utility.yul\":13363:13392   */\n      tag_521\n        /* \"#utility.yul\":13385:13391   */\n      dup4\n        /* \"#utility.yul\":13363:13392   */\n      tag_522\n      jump\t// in\n    tag_521:\n        /* \"#utility.yul\":13358:13361   */\n      dup5\n        /* \"#utility.yul\":13354:13393   */\n      add\n        /* \"#utility.yul\":13347:13393   */\n      swap1\n      pop\n        /* \"#utility.yul\":13115:13399   */\n      swap4\n      swap3\n      pop\n      pop\n      pop\n      jump\t// out\n        /* \"#utility.yul\":13429:13746   */\n    tag_523:\n        /* \"#utility.yul\":13545:13548   */\n      0x00\n        /* \"#utility.yul\":13566:13655   */\n      tag_525\n        /* \"#utility.yul\":13648:13654   */\n      dup4\n        /* \"#utility.yul\":13643:13646   */\n      dup6\n        /* \"#utility.yul\":13566:13655   */\n      tag_526\n      jump\t// in\n    tag_525:\n        /* \"#utility.yul\":13559:13655   */\n      swap4\n      pop\n        /* \"#utility.yul\":13665:13708   */\n      tag_527\n        /* \"#utility.yul\":13701:13707   */\n      dup4\n        /* \"#utility.yul\":13696:13699   */\n      dup6\n        /* \"#utility.yul\":13689:13694   */\n      dup5\n        /* \"#utility.yul\":13665:13708   */\n      tag_382\n      jump\t// in\n    tag_527:\n        /* \"#utility.yul\":13733:13739   */\n      dup3\n        /* \"#utility.yul\":13728:13731   */\n      dup5\n        /* \"#utility.yul\":13724:13740   */\n      add\n        /* \"#utility.yul\":13717:13740   */\n      swap1\n      pop\n        /* \"#utility.yul\":13429:13746   */\n      swap4\n      swap3\n      pop\n      pop\n      pop\n      jump\t// out\n        /* \"#utility.yul\":13752:14116   */\n    tag_528:\n        /* \"#utility.yul\":13840:13843   */\n      0x00\n        /* \"#utility.yul\":13868:13907   */\n      tag_530\n        /* \"#utility.yul\":13901:13906   */\n      dup3\n        /* \"#utility.yul\":13868:13907   */\n      tag_531\n      jump\t// in\n    tag_530:\n        /* \"#utility.yul\":13923:13994   */\n      tag_532\n        /* \"#utility.yul\":13987:13993   */\n      dup2\n        /* \"#utility.yul\":13982:13985   */\n      dup6\n        /* \"#utility.yul\":13923:13994   */\n      tag_533\n      jump\t// in\n    tag_532:\n        /* \"#utility.yul\":13916:13994   */\n      swap4\n      pop\n        /* \"#utility.yul\":14003:14055   */\n      tag_534\n        /* \"#utility.yul\":14048:14054   */\n      dup2\n        /* \"#utility.yul\":14043:14046   */\n      dup6\n        /* \"#utility.yul\":14036:14040   */\n      0x20\n        /* \"#utility.yul\":14029:14034   */\n      dup7\n        /* \"#utility.yul\":14025:14041   */\n      add\n        /* \"#utility.yul\":14003:14055   */\n      tag_535\n      jump\t// in\n    tag_534:\n        /* \"#utility.yul\":14080:14109   */\n      tag_536\n        /* \"#utility.yul\":14102:14108   */\n      dup2\n        /* \"#utility.yul\":14080:14109   */\n      tag_522\n      jump\t// in\n    tag_536:\n        /* \"#utility.yul\":14075:14078   */\n      dup5\n        /* \"#utility.yul\":14071:14110   */\n      add\n        /* \"#utility.yul\":14064:14110   */\n      swap2\n      pop\n        /* \"#utility.yul\":13844:14116   */\n      pop\n        /* \"#utility.yul\":13752:14116   */\n      swap3\n      swap2\n      pop\n      pop\n      jump\t// out\n        /* \"#utility.yul\":14122:14499   */\n    tag_537:\n        /* \"#utility.yul\":14228:14231   */\n      0x00\n        /* \"#utility.yul\":14256:14295   */\n      tag_539\n        /* \"#utility.yul\":14289:14294   */\n      dup3\n        /* \"#utility.yul\":14256:14295   */\n      tag_531\n      jump\t// in\n    tag_539:\n        /* \"#utility.yul\":14311:14400   */\n      tag_540\n        /* \"#utility.yul\":14393:14399   */\n      dup2\n        /* \"#utility.yul\":14388:14391   */\n      dup6\n        /* \"#utility.yul\":14311:14400   */\n      tag_526\n      jump\t// in\n    tag_540:\n        /* \"#utility.yul\":14304:14400   */\n      swap4\n      pop\n        /* \"#utility.yul\":14409:14461   */\n      tag_541\n        /* \"#utility.yul\":14454:14460   */\n      dup2\n        /* \"#utility.yul\":14449:14452   */\n      dup6\n        /* \"#utility.yul\":14442:14446   */\n      0x20\n        /* \"#utility.yul\":14435:14440   */\n      dup7\n        /* \"#utility.yul\":14431:14447   */\n      add\n        /* \"#utility.yul\":14409:14461   */\n      tag_535\n      jump\t// in\n    tag_541:\n        /* \"#utility.yul\":14486:14492   */\n      dup1\n        /* \"#utility.yul\":14481:14484   */\n      dup5\n        /* \"#utility.yul\":14477:14493   */\n      add\n        /* \"#utility.yul\":14470:14493   */\n      swap2\n      pop\n        /* \"#utility.yul\":14232:14499   */\n      pop\n        /* \"#utility.yul\":14122:14499   */\n      swap3\n      swap2\n      pop\n      pop\n      jump\t// out\n        /* \"#utility.yul\":14529:15374   */\n    tag_542:\n        /* \"#utility.yul\":14632:14635   */\n      0x00\n        /* \"#utility.yul\":14669:14674   */\n      dup2\n        /* \"#utility.yul\":14663:14675   */\n      sload\n        /* \"#utility.yul\":14698:14734   */\n      tag_544\n        /* \"#utility.yul\":14724:14733   */\n      dup2\n        /* \"#utility.yul\":14698:14734   */\n      tag_73\n      jump\t// in\n    tag_544:\n        /* \"#utility.yul\":14750:14839   */\n      tag_545\n        /* \"#utility.yul\":14832:14838   */\n      dup2\n        /* \"#utility.yul\":14827:14830   */\n      dup7\n        /* \"#utility.yul\":14750:14839   */\n      tag_526\n      jump\t// in\n    tag_545:\n        /* \"#utility.yul\":14743:14839   */\n      swap5\n      pop\n        /* \"#utility.yul\":14870:14871   */\n      0x01\n        /* \"#utility.yul\":14859:14868   */\n      dup3\n        /* \"#utility.yul\":14855:14872   */\n      and\n        /* \"#utility.yul\":14886:14887   */\n      0x00\n        /* \"#utility.yul\":14881:15018   */\n      dup2\n      eq\n      tag_547\n      jumpi\n        /* \"#utility.yul\":15032:15033   */\n      0x01\n        /* \"#utility.yul\":15027:15368   */\n      dup2\n      eq\n      tag_548\n      jumpi\n        /* \"#utility.yul\":14848:15368   */\n      jump(tag_546)\n        /* \"#utility.yul\":14881:15018   */\n    tag_547:\n        /* \"#utility.yul\":14965:14969   */\n      0xff\n        /* \"#utility.yul\":14961:14970   */\n      not\n        /* \"#utility.yul\":14950:14959   */\n      dup4\n        /* \"#utility.yul\":14946:14971   */\n      and\n        /* \"#utility.yul\":14941:14944   */\n      dup7\n        /* \"#utility.yul\":14934:14972   */\n      mstore\n        /* \"#utility.yul\":15001:15007   */\n      dup2\n        /* \"#utility.yul\":14996:14999   */\n      dup7\n        /* \"#utility.yul\":14992:15008   */\n      add\n        /* \"#utility.yul\":14985:15008   */\n      swap4\n      pop\n        /* \"#utility.yul\":14881:15018   */\n      jump(tag_546)\n        /* \"#utility.yul\":15027:15368   */\n    tag_548:\n        /* \"#utility.yul\":15094:15132   */\n      tag_549\n        /* \"#utility.yul\":15126:15131   */\n      dup6\n        /* \"#utility.yul\":15094:15132   */\n      tag_550\n      jump\t// in\n    tag_549:\n        /* \"#utility.yul\":15154:15155   */\n      0x00\n        /* \"#utility.yul\":15168:15322   */\n    tag_551:\n        /* \"#utility.yul\":15182:15188   */\n      dup4\n        /* \"#utility.yul\":15179:15180   */\n      dup2\n        /* \"#utility.yul\":15176:15189   */\n      lt\n        /* \"#utility.yul\":15168:15322   */\n      iszero\n      tag_553\n      jumpi\n        /* \"#utility.yul\":15256:15263   */\n      dup2\n        /* \"#utility.yul\":15250:15264   */\n      sload\n        /* \"#utility.yul\":15246:15247   */\n      dup2\n        /* \"#utility.yul\":15241:15244   */\n      dup10\n        /* \"#utility.yul\":15237:15248   */\n      add\n        /* \"#utility.yul\":15230:15265   */\n      mstore\n        /* \"#utility.yul\":15306:15307   */\n      0x01\n        /* \"#utility.yul\":15297:15304   */\n      dup3\n        /* \"#utility.yul\":15293:15308   */\n      add\n        /* \"#utility.yul\":15282:15308   */\n      swap2\n      pop\n        /* \"#utility.yul\":15204:15208   */\n      0x20\n        /* \"#utility.yul\":15201:15202   */\n      dup2\n        /* \"#utility.yul\":15197:15209   */\n      add\n        /* \"#utility.yul\":15192:15209   */\n      swap1\n      pop\n        /* \"#utility.yul\":15168:15322   */\n      jump(tag_551)\n    tag_553:\n        /* \"#utility.yul\":15351:15357   */\n      dup4\n        /* \"#utility.yul\":15346:15349   */\n      dup9\n        /* \"#utility.yul\":15342:15358   */\n      add\n        /* \"#utility.yul\":15335:15358   */\n      swap6\n      pop\n        /* \"#utility.yul\":15034:15368   */\n      pop\n      pop\n        /* \"#utility.yul\":14848:15368   */\n    tag_546:\n      pop\n        /* \"#utility.yul\":14636:15374   */\n      pop\n      pop\n        /* \"#utility.yul\":14529:15374   */\n      swap3\n      swap2\n      pop\n      pop\n      jump\t// out\n        /* \"#utility.yul\":15380:15746   */\n    tag_554:\n        /* \"#utility.yul\":15522:15525   */\n      0x00\n        /* \"#utility.yul\":15543:15610   */\n      tag_556\n        /* \"#utility.yul\":15607:15609   */\n      0x12\n        /* \"#utility.yul\":15602:15605   */\n      dup4\n        /* \"#utility.yul\":15543:15610   */\n      tag_533\n      jump\t// in\n    tag_556:\n        /* \"#utility.yul\":15536:15610   */\n      swap2\n      pop\n        /* \"#utility.yul\":15619:15712   */\n      tag_557\n        /* \"#utility.yul\":15708:15711   */\n      dup3\n        /* \"#utility.yul\":15619:15712   */\n      tag_558\n      jump\t// in\n    tag_557:\n        /* \"#utility.yul\":15737:15739   */\n      0x20\n        /* \"#utility.yul\":15732:15735   */\n      dup3\n        /* \"#utility.yul\":15728:15740   */\n      add\n        /* \"#utility.yul\":15721:15740   */\n      swap1\n      pop\n        /* \"#utility.yul\":15380:15746   */\n      swap2\n      swap1\n      pop\n      jump\t// out\n        /* \"#utility.yul\":15752:16118   */\n    tag_559:\n        /* \"#utility.yul\":15894:15897   */\n      0x00\n        /* \"#utility.yul\":15915:15982   */\n      tag_561\n        /* \"#utility.yul\":15979:15981   */\n      0x2c\n        /* \"#utility.yul\":15974:15977   */\n      dup4\n        /* \"#utility.yul\":15915:15982   */\n      tag_533\n      jump\t// in\n    tag_561:\n        /* \"#utility.yul\":15908:15982   */\n      swap2\n      pop\n        /* \"#utility.yul\":15991:16084   */\n      tag_562\n        /* \"#utility.yul\":16080:16083   */\n      dup3\n        /* \"#utility.yul\":15991:16084   */\n      tag_563\n      jump\t// in\n    tag_562:\n        /* \"#utility.yul\":16109:16111   */\n      0x40\n        /* \"#utility.yul\":16104:16107   */\n      dup3\n        /* \"#utility.yul\":16100:16112   */\n      add\n        /* \"#utility.yul\":16093:16112   */\n      swap1\n      pop\n        /* \"#utility.yul\":15752:16118   */\n      swap2\n      swap1\n      pop\n      jump\t// out\n        /* \"#utility.yul\":16124:16490   */\n    tag_564:\n        /* \"#utility.yul\":16266:16269   */\n      0x00\n        /* \"#utility.yul\":16287:16354   */\n      tag_566\n        /* \"#utility.yul\":16351:16353   */\n      0x22\n        /* \"#utility.yul\":16346:16349   */\n      dup4\n        /* \"#utility.yul\":16287:16354   */\n      tag_533\n      jump\t// in\n    tag_566:\n        /* \"#utility.yul\":16280:16354   */\n      swap2\n      pop\n        /* \"#utility.yul\":16363:16456   */\n      tag_567\n        /* \"#utility.yul\":16452:16455   */\n      dup3\n        /* \"#utility.yul\":16363:16456   */\n      tag_568\n      jump\t// in\n    tag_567:\n        /* \"#utility.yul\":16481:16483   */\n      0x40\n        /* \"#utility.yul\":16476:16479   */\n      dup3\n        /* \"#utility.yul\":16472:16484   */\n      add\n        /* \"#utility.yul\":16465:16484   */\n      swap1\n      pop\n        /* \"#utility.yul\":16124:16490   */\n      swap2\n      swap1\n      pop\n      jump\t// out\n        /* \"#utility.yul\":16496:16862   */\n    tag_569:\n        /* \"#utility.yul\":16638:16641   */\n      0x00\n        /* \"#utility.yul\":16659:16726   */\n      tag_571\n        /* \"#utility.yul\":16723:16725   */\n      0x0d\n        /* \"#utility.yul\":16718:16721   */\n      dup4\n        /* \"#utility.yul\":16659:16726   */\n      tag_533\n      jump\t// in\n    tag_571:\n        /* \"#utility.yul\":16652:16726   */\n      swap2\n      pop\n        /* \"#utility.yul\":16735:16828   */\n      tag_572\n        /* \"#utility.yul\":16824:16827   */\n      dup3\n        /* \"#utility.yul\":16735:16828   */\n      tag_573\n      jump\t// in\n    tag_572:\n        /* \"#utility.yul\":16853:16855   */\n      0x20\n        /* \"#utility.yul\":16848:16851   */\n      dup3\n        /* \"#utility.yul\":16844:16856   */\n      add\n        /* \"#utility.yul\":16837:16856   */\n      swap1\n      pop\n        /* \"#utility.yul\":16496:16862   */\n      swap2\n      swap1\n      pop\n      jump\t// out\n        /* \"#utility.yul\":16868:17234   */\n    tag_574:\n        /* \"#utility.yul\":17010:17013   */\n      0x00\n        /* \"#utility.yul\":17031:17098   */\n      tag_576\n        /* \"#utility.yul\":17095:17097   */\n      0x1b\n        /* \"#utility.yul\":17090:17093   */\n      dup4\n        /* \"#utility.yul\":17031:17098   */\n      tag_533\n      jump\t// in\n    tag_576:\n        /* \"#utility.yul\":17024:17098   */\n      swap2\n      pop\n        /* \"#utility.yul\":17107:17200   */\n      tag_577\n        /* \"#utility.yul\":17196:17199   */\n      dup3\n        /* \"#utility.yul\":17107:17200   */\n      tag_578\n      jump\t// in\n    tag_577:\n        /* \"#utility.yul\":17225:17227   */\n      0x20\n        /* \"#utility.yul\":17220:17223   */\n      dup3\n        /* \"#utility.yul\":17216:17228   */\n      add\n        /* \"#utility.yul\":17209:17228   */\n      swap1\n      pop\n        /* \"#utility.yul\":16868:17234   */\n      swap2\n      swap1\n      pop\n      jump\t// out\n        /* \"#utility.yul\":17240:17606   */\n    tag_579:\n        /* \"#utility.yul\":17382:17385   */\n      0x00\n        /* \"#utility.yul\":17403:17470   */\n      tag_581\n        /* \"#utility.yul\":17467:17469   */\n      0x14\n        /* \"#utility.yul\":17462:17465   */\n      dup4\n        /* \"#utility.yul\":17403:17470   */\n      tag_533\n      jump\t// in\n    tag_581:\n        /* \"#utility.yul\":17396:17470   */\n      swap2\n      pop\n        /* \"#utility.yul\":17479:17572   */\n      tag_582\n        /* \"#utility.yul\":17568:17571   */\n      dup3\n        /* \"#utility.yul\":17479:17572   */\n      tag_583\n      jump\t// in\n    tag_582:\n        /* \"#utility.yul\":17597:17599   */\n      0x20\n        /* \"#utility.yul\":17592:17595   */\n      dup3\n        /* \"#utility.yul\":17588:17600   */\n      add\n        /* \"#utility.yul\":17581:17600   */\n      swap1\n      pop\n        /* \"#utility.yul\":17240:17606   */\n      swap2\n      swap1\n      pop\n      jump\t// out\n        /* \"#utility.yul\":17612:17978   */\n    tag_584:\n        /* \"#utility.yul\":17754:17757   */\n      0x00\n        /* \"#utility.yul\":17775:17842   */\n      tag_586\n        /* \"#utility.yul\":17839:17841   */\n      0x23\n        /* \"#utility.yul\":17834:17837   */\n      dup4\n        /* \"#utility.yul\":17775:17842   */\n      tag_533\n      jump\t// in\n    tag_586:\n        /* \"#utility.yul\":17768:17842   */\n      swap2\n      pop\n        /* \"#utility.yul\":17851:17944   */\n      tag_587\n        /* \"#utility.yul\":17940:17943   */\n      dup3\n        /* \"#utility.yul\":17851:17944   */\n      tag_588\n      jump\t// in\n    tag_587:\n        /* \"#utility.yul\":17969:17971   */\n      0x40\n        /* \"#utility.yul\":17964:17967   */\n      dup3\n        /* \"#utility.yul\":17960:17972   */\n      add\n        /* \"#utility.yul\":17953:17972   */\n      swap1\n      pop\n        /* \"#utility.yul\":17612:17978   */\n      swap2\n      swap1\n      pop\n      jump\t// out\n        /* \"#utility.yul\":17984:18350   */\n    tag_589:\n        /* \"#utility.yul\":18126:18129   */\n      0x00\n        /* \"#utility.yul\":18147:18214   */\n      tag_591\n        /* \"#utility.yul\":18211:18213   */\n      0x18\n        /* \"#utility.yul\":18206:18209   */\n      dup4\n        /* \"#utility.yul\":18147:18214   */\n      tag_533\n      jump\t// in\n    tag_591:\n        /* \"#utility.yul\":18140:18214   */\n      swap2\n      pop\n        /* \"#utility.yul\":18223:18316   */\n      tag_592\n        /* \"#utility.yul\":18312:18315   */\n      dup3\n        /* \"#utility.yul\":18223:18316   */\n      tag_593\n      jump\t// in\n    tag_592:\n        /* \"#utility.yul\":18341:18343   */\n      0x20\n        /* \"#utility.yul\":18336:18339   */\n      dup3\n        /* \"#utility.yul\":18332:18344   */\n      add\n        /* \"#utility.yul\":18325:18344   */\n      swap1\n      pop\n        /* \"#utility.yul\":17984:18350   */\n      swap2\n      swap1\n      pop\n      jump\t// out\n        /* \"#utility.yul\":18356:18722   */\n    tag_594:\n        /* \"#utility.yul\":18498:18501   */\n      0x00\n        /* \"#utility.yul\":18519:18586   */\n      tag_596\n        /* \"#utility.yul\":18583:18585   */\n      0x14\n        /* \"#utility.yul\":18578:18581   */\n      dup4\n        /* \"#utility.yul\":18519:18586   */\n      tag_533\n      jump\t// in\n    tag_596:\n        /* \"#utility.yul\":18512:18586   */\n      swap2\n      pop\n        /* \"#utility.yul\":18595:18688   */\n      tag_597\n        /* \"#utility.yul\":18684:18687   */\n      dup3\n        /* \"#utility.yul\":18595:18688   */\n      tag_598\n      jump\t// in\n    tag_597:\n        /* \"#utility.yul\":18713:18715   */\n      0x20\n        /* \"#utility.yul\":18708:18711   */\n      dup3\n        /* \"#utility.yul\":18704:18716   */\n      add\n        /* \"#utility.yul\":18697:18716   */\n      swap1\n      pop\n        /* \"#utility.yul\":18356:18722   */\n      swap2\n      swap1\n      pop\n      jump\t// out\n        /* \"#utility.yul\":18728:19094   */\n    tag_599:\n        /* \"#utility.yul\":18870:18873   */\n      0x00\n        /* \"#utility.yul\":18891:18958   */\n      tag_601\n        /* \"#utility.yul\":18955:18957   */\n      0x23\n        /* \"#utility.yul\":18950:18953   */\n      dup4\n        /* \"#utility.yul\":18891:18958   */\n      tag_533\n      jump\t// in\n    tag_601:\n        /* \"#utility.yul\":18884:18958   */\n      swap2\n      pop\n        /* \"#utility.yul\":18967:19060   */\n      tag_602\n        /* \"#utility.yul\":19056:19059   */\n      dup3\n        /* \"#utility.yul\":18967:19060   */\n      tag_603\n      jump\t// in\n    tag_602:\n        /* \"#utility.yul\":19085:19087   */\n      0x40\n        /* \"#utility.yul\":19080:19083   */\n      dup3\n        /* \"#utility.yul\":19076:19088   */\n      add\n        /* \"#utility.yul\":19069:19088   */\n      swap1\n      pop\n        /* \"#utility.yul\":18728:19094   */\n      swap2\n      swap1\n      pop\n      jump\t// out\n        /* \"#utility.yul\":19100:19466   */\n    tag_604:\n        /* \"#utility.yul\":19242:19245   */\n      0x00\n        /* \"#utility.yul\":19263:19330   */\n      tag_606\n        /* \"#utility.yul\":19327:19329   */\n      0x12\n        /* \"#utility.yul\":19322:19325   */\n      dup4\n        /* \"#utility.yul\":19263:19330   */\n      tag_533\n      jump\t// in\n    tag_606:\n        /* \"#utility.yul\":19256:19330   */\n      swap2\n      pop\n        /* \"#utility.yul\":19339:19432   */\n      tag_607\n        /* \"#utility.yul\":19428:19431   */\n      dup3\n        /* \"#utility.yul\":19339:19432   */\n      tag_608\n      jump\t// in\n    tag_607:\n        /* \"#utility.yul\":19457:19459   */\n      0x20\n        /* \"#utility.yul\":19452:19455   */\n      dup3\n        /* \"#utility.yul\":19448:19460   */\n      add\n        /* \"#utility.yul\":19441:19460   */\n      swap1\n      pop\n        /* \"#utility.yul\":19100:19466   */\n      swap2\n      swap1\n      pop\n      jump\t// out\n        /* \"#utility.yul\":19472:19838   */\n    tag_609:\n        /* \"#utility.yul\":19614:19617   */\n      0x00\n        /* \"#utility.yul\":19635:19702   */\n      tag_611\n        /* \"#utility.yul\":19699:19701   */\n      0x23\n        /* \"#utility.yul\":19694:19697   */\n      dup4\n        /* \"#utility.yul\":19635:19702   */\n      tag_533\n      jump\t// in\n    tag_611:\n        /* \"#utility.yul\":19628:19702   */\n      swap2\n      pop\n        /* \"#utility.yul\":19711:19804   */\n      tag_612\n        /* \"#utility.yul\":19800:19803   */\n      dup3\n        /* \"#utility.yul\":19711:19804   */\n      tag_613\n      jump\t// in\n    tag_612:\n        /* \"#utility.yul\":19829:19831   */\n      0x40\n        /* \"#utility.yul\":19824:19827   */\n      dup3\n        /* \"#utility.yul\":19820:19832   */\n      add\n        /* \"#utility.yul\":19813:19832   */\n      swap1\n      pop\n        /* \"#utility.yul\":19472:19838   */\n      swap2\n      swap1\n      pop\n      jump\t// out\n        /* \"#utility.yul\":19844:20210   */\n    tag_614:\n        /* \"#utility.yul\":19986:19989   */\n      0x00\n        /* \"#utility.yul\":20007:20074   */\n      tag_616\n        /* \"#utility.yul\":20071:20073   */\n      0x2a\n        /* \"#utility.yul\":20066:20069   */\n      dup4\n        /* \"#utility.yul\":20007:20074   */\n      tag_533\n      jump\t// in\n    tag_616:\n        /* \"#utility.yul\":20000:20074   */\n      swap2\n      pop\n        /* \"#utility.yul\":20083:20176   */\n      tag_617\n        /* \"#utility.yul\":20172:20175   */\n      dup3\n        /* \"#utility.yul\":20083:20176   */\n      tag_618\n      jump\t// in\n    tag_617:\n        /* \"#utility.yul\":20201:20203   */\n      0x40\n        /* \"#utility.yul\":20196:20199   */\n      dup3\n        /* \"#utility.yul\":20192:20204   */\n      add\n        /* \"#utility.yul\":20185:20204   */\n      swap1\n      pop\n        /* \"#utility.yul\":19844:20210   */\n      swap2\n      swap1\n      pop\n      jump\t// out\n        /* \"#utility.yul\":20216:20582   */\n    tag_619:\n        /* \"#utility.yul\":20358:20361   */\n      0x00\n        /* \"#utility.yul\":20379:20446   */\n      tag_621\n        /* \"#utility.yul\":20443:20445   */\n      0x21\n        /* \"#utility.yul\":20438:20441   */\n      dup4\n        /* \"#utility.yul\":20379:20446   */\n      tag_533\n      jump\t// in\n    tag_621:\n        /* \"#utility.yul\":20372:20446   */\n      swap2\n      pop\n        /* \"#utility.yul\":20455:20548   */\n      tag_622\n        /* \"#utility.yul\":20544:20547   */\n      dup3\n        /* \"#utility.yul\":20455:20548   */\n      tag_623\n      jump\t// in\n    tag_622:\n        /* \"#utility.yul\":20573:20575   */\n      0x40\n        /* \"#utility.yul\":20568:20571   */\n      dup3\n        /* \"#utility.yul\":20564:20576   */\n      add\n        /* \"#utility.yul\":20557:20576   */\n      swap1\n      pop\n        /* \"#utility.yul\":20216:20582   */\n      swap2\n      swap1\n      pop\n      jump\t// out\n        /* \"#utility.yul\":20588:20954   */\n    tag_624:\n        /* \"#utility.yul\":20730:20733   */\n      0x00\n        /* \"#utility.yul\":20751:20818   */\n      tag_626\n        /* \"#utility.yul\":20815:20817   */\n      0x24\n        /* \"#utility.yul\":20810:20813   */\n      dup4\n        /* \"#utility.yul\":20751:20818   */\n      tag_533\n      jump\t// in\n    tag_626:\n        /* \"#utility.yul\":20744:20818   */\n      swap2\n      pop\n        /* \"#utility.yul\":20827:20920   */\n      tag_627\n        /* \"#utility.yul\":20916:20919   */\n      dup3\n        /* \"#utility.yul\":20827:20920   */\n      tag_628\n      jump\t// in\n    tag_627:\n        /* \"#utility.yul\":20945:20947   */\n      0x40\n        /* \"#utility.yul\":20940:20943   */\n      dup3\n        /* \"#utility.yul\":20936:20948   */\n      add\n        /* \"#utility.yul\":20929:20948   */\n      swap1\n      pop\n        /* \"#utility.yul\":20588:20954   */\n      swap2\n      swap1\n      pop\n      jump\t// out\n        /* \"#utility.yul\":20960:21325   */\n    tag_629:\n        /* \"#utility.yul\":21102:21105   */\n      0x00\n        /* \"#utility.yul\":21123:21189   */\n      tag_631\n        /* \"#utility.yul\":21187:21188   */\n      0x04\n        /* \"#utility.yul\":21182:21185   */\n      dup4\n        /* \"#utility.yul\":21123:21189   */\n      tag_533\n      jump\t// in\n    tag_631:\n        /* \"#utility.yul\":21116:21189   */\n      swap2\n      pop\n        /* \"#utility.yul\":21198:21291   */\n      tag_632\n        /* \"#utility.yul\":21287:21290   */\n      dup3\n        /* \"#utility.yul\":21198:21291   */\n      tag_633\n      jump\t// in\n    tag_632:\n        /* \"#utility.yul\":21316:21318   */\n      0x20\n        /* \"#utility.yul\":21311:21314   */\n      dup3\n        /* \"#utility.yul\":21307:21319   */\n      add\n        /* \"#utility.yul\":21300:21319   */\n      swap1\n      pop\n        /* \"#utility.yul\":20960:21325   */\n      swap2\n      swap1\n      pop\n      jump\t// out\n        /* \"#utility.yul\":21331:21697   */\n    tag_634:\n        /* \"#utility.yul\":21473:21476   */\n      0x00\n        /* \"#utility.yul\":21494:21561   */\n      tag_636\n        /* \"#utility.yul\":21558:21560   */\n      0x1d\n        /* \"#utility.yul\":21553:21556   */\n      dup4\n        /* \"#utility.yul\":21494:21561   */\n      tag_533\n      jump\t// in\n    tag_636:\n        /* \"#utility.yul\":21487:21561   */\n      swap2\n      pop\n        /* \"#utility.yul\":21570:21663   */\n      tag_637\n        /* \"#utility.yul\":21659:21662   */\n      dup3\n        /* \"#utility.yul\":21570:21663   */\n      tag_638\n      jump\t// in\n    tag_637:\n        /* \"#utility.yul\":21688:21690   */\n      0x20\n        /* \"#utility.yul\":21683:21686   */\n      dup3\n        /* \"#utility.yul\":21679:21691   */\n      add\n        /* \"#utility.yul\":21672:21691   */\n      swap1\n      pop\n        /* \"#utility.yul\":21331:21697   */\n      swap2\n      swap1\n      pop\n      jump\t// out\n        /* \"#utility.yul\":21703:22068   */\n    tag_639:\n        /* \"#utility.yul\":21845:21848   */\n      0x00\n        /* \"#utility.yul\":21866:21932   */\n      tag_641\n        /* \"#utility.yul\":21930:21931   */\n      0x04\n        /* \"#utility.yul\":21925:21928   */\n      dup4\n        /* \"#utility.yul\":21866:21932   */\n      tag_533\n      jump\t// in\n    tag_641:\n        /* \"#utility.yul\":21859:21932   */\n      swap2\n      pop\n        /* \"#utility.yul\":21941:22034   */\n      tag_642\n        /* \"#utility.yul\":22030:22033   */\n      dup3\n        /* \"#utility.yul\":21941:22034   */\n      tag_643\n      jump\t// in\n    tag_642:\n        /* \"#utility.yul\":22059:22061   */\n      0x20\n        /* \"#utility.yul\":22054:22057   */\n      dup3\n        /* \"#utility.yul\":22050:22062   */\n      add\n        /* \"#utility.yul\":22043:22062   */\n      swap1\n      pop\n        /* \"#utility.yul\":21703:22068   */\n      swap2\n      swap1\n      pop\n      jump\t// out\n        /* \"#utility.yul\":22074:22439   */\n    tag_644:\n        /* \"#utility.yul\":22216:22219   */\n      0x00\n        /* \"#utility.yul\":22237:22303   */\n      tag_646\n        /* \"#utility.yul\":22301:22302   */\n      0x09\n        /* \"#utility.yul\":22296:22299   */\n      dup4\n        /* \"#utility.yul\":22237:22303   */\n      tag_533\n      jump\t// in\n    tag_646:\n        /* \"#utility.yul\":22230:22303   */\n      swap2\n      pop\n        /* \"#utility.yul\":22312:22405   */\n      tag_647\n        /* \"#utility.yul\":22401:22404   */\n      dup3\n        /* \"#utility.yul\":22312:22405   */\n      tag_648\n      jump\t// in\n    tag_647:\n        /* \"#utility.yul\":22430:22432   */\n      0x20\n        /* \"#utility.yul\":22425:22428   */\n      dup3\n        /* \"#utility.yul\":22421:22433   */\n      add\n        /* \"#utility.yul\":22414:22433   */\n      swap1\n      pop\n        /* \"#utility.yul\":22074:22439   */\n      swap2\n      swap1\n      pop\n      jump\t// out\n        /* \"#utility.yul\":22445:22811   */\n    tag_649:\n        /* \"#utility.yul\":22587:22590   */\n      0x00\n        /* \"#utility.yul\":22608:22675   */\n      tag_651\n        /* \"#utility.yul\":22672:22674   */\n      0x1f\n        /* \"#utility.yul\":22667:22670   */\n      dup4\n        /* \"#utility.yul\":22608:22675   */\n      tag_533\n      jump\t// in\n    tag_651:\n        /* \"#utility.yul\":22601:22675   */\n      swap2\n      pop\n        /* \"#utility.yul\":22684:22777   */\n      tag_652\n        /* \"#utility.yul\":22773:22776   */\n      dup3\n        /* \"#utility.yul\":22684:22777   */\n      tag_653\n      jump\t// in\n    tag_652:\n        /* \"#utility.yul\":22802:22804   */\n      0x20\n        /* \"#utility.yul\":22797:22800   */\n      dup3\n        /* \"#utility.yul\":22793:22805   */\n      add\n        /* \"#utility.yul\":22786:22805   */\n      swap1\n      pop\n        /* \"#utility.yul\":22445:22811   */\n      swap2\n      swap1\n      pop\n      jump\t// out\n        /* \"#utility.yul\":22817:22935   */\n    tag_654:\n        /* \"#utility.yul\":22904:22928   */\n      tag_656\n        /* \"#utility.yul\":22922:22927   */\n      dup2\n        /* \"#utility.yul\":22904:22928   */\n      tag_657\n      jump\t// in\n    tag_656:\n        /* \"#utility.yul\":22899:22902   */\n      dup3\n        /* \"#utility.yul\":22892:22929   */\n      mstore\n        /* \"#utility.yul\":22817:22935   */\n      pop\n      pop\n      jump\t// out\n        /* \"#utility.yul\":22941:23056   */\n    tag_658:\n        /* \"#utility.yul\":23026:23049   */\n      tag_660\n        /* \"#utility.yul\":23043:23048   */\n      dup2\n        /* \"#utility.yul\":23026:23049   */\n      tag_661\n      jump\t// in\n    tag_660:\n        /* \"#utility.yul\":23021:23024   */\n      dup3\n        /* \"#utility.yul\":23014:23050   */\n      mstore\n        /* \"#utility.yul\":22941:23056   */\n      pop\n      pop\n      jump\t// out\n        /* \"#utility.yul\":23062:23180   */\n    tag_662:\n        /* \"#utility.yul\":23149:23173   */\n      tag_664\n        /* \"#utility.yul\":23167:23172   */\n      dup2\n        /* \"#utility.yul\":23149:23173   */\n      tag_665\n      jump\t// in\n    tag_664:\n        /* \"#utility.yul\":23144:23147   */\n      dup3\n        /* \"#utility.yul\":23137:23174   */\n      mstore\n        /* \"#utility.yul\":23062:23180   */\n      pop\n      pop\n      jump\t// out\n        /* \"#utility.yul\":23186:23298   */\n    tag_666:\n        /* \"#utility.yul\":23269:23291   */\n      tag_668\n        /* \"#utility.yul\":23285:23290   */\n      dup2\n        /* \"#utility.yul\":23269:23291   */\n      tag_669\n      jump\t// in\n    tag_668:\n        /* \"#utility.yul\":23264:23267   */\n      dup3\n        /* \"#utility.yul\":23257:23292   */\n      mstore\n        /* \"#utility.yul\":23186:23298   */\n      pop\n      pop\n      jump\t// out\n        /* \"#utility.yul\":23304:23599   */\n    tag_194:\n        /* \"#utility.yul\":23446:23449   */\n      0x00\n        /* \"#utility.yul\":23468:23573   */\n      tag_671\n        /* \"#utility.yul\":23569:23572   */\n      dup3\n        /* \"#utility.yul\":23560:23566   */\n      dup5\n        /* \"#utility.yul\":23552:23558   */\n      dup7\n        /* \"#utility.yul\":23468:23573   */\n      tag_523\n      jump\t// in\n    tag_671:\n        /* \"#utility.yul\":23461:23573   */\n      swap2\n      pop\n        /* \"#utility.yul\":23590:23593   */\n      dup2\n        /* \"#utility.yul\":23583:23593   */\n      swap1\n      pop\n        /* \"#utility.yul\":23304:23599   */\n      swap4\n      swap3\n      pop\n      pop\n      pop\n      jump\t// out\n        /* \"#utility.yul\":23605:23880   */\n    tag_256:\n        /* \"#utility.yul\":23737:23740   */\n      0x00\n        /* \"#utility.yul\":23759:23854   */\n      tag_673\n        /* \"#utility.yul\":23850:23853   */\n      dup3\n        /* \"#utility.yul\":23841:23847   */\n      dup5\n        /* \"#utility.yul\":23759:23854   */\n      tag_537\n      jump\t// in\n    tag_673:\n        /* \"#utility.yul\":23752:23854   */\n      swap2\n      pop\n        /* \"#utility.yul\":23871:23874   */\n      dup2\n        /* \"#utility.yul\":23864:23874   */\n      swap1\n      pop\n        /* \"#utility.yul\":23605:23880   */\n      swap3\n      swap2\n      pop\n      pop\n      jump\t// out\n        /* \"#utility.yul\":23886:24155   */\n    tag_177:\n        /* \"#utility.yul\":24015:24018   */\n      0x00\n        /* \"#utility.yul\":24037:24129   */\n      tag_675\n        /* \"#utility.yul\":24125:24128   */\n      dup3\n        /* \"#utility.yul\":24116:24122   */\n      dup5\n        /* \"#utility.yul\":24037:24129   */\n      tag_542\n      jump\t// in\n    tag_675:\n        /* \"#utility.yul\":24030:24129   */\n      swap2\n      pop\n        /* \"#utility.yul\":24146:24149   */\n      dup2\n        /* \"#utility.yul\":24139:24149   */\n      swap1\n      pop\n        /* \"#utility.yul\":23886:24155   */\n      swap3\n      swap2\n      pop\n      pop\n      jump\t// out\n        /* \"#utility.yul\":24161:25126   */\n    tag_21:\n        /* \"#utility.yul\":24436:24440   */\n      0x00\n        /* \"#utility.yul\":24474:24477   */\n      0xe0\n        /* \"#utility.yul\":24463:24472   */\n      dup3\n        /* \"#utility.yul\":24459:24478   */\n      add\n        /* \"#utility.yul\":24451:24478   */\n      swap1\n      pop\n        /* \"#utility.yul\":24488:24559   */\n      tag_677\n        /* \"#utility.yul\":24556:24557   */\n      0x00\n        /* \"#utility.yul\":24545:24554   */\n      dup4\n        /* \"#utility.yul\":24541:24558   */\n      add\n        /* \"#utility.yul\":24532:24538   */\n      dup11\n        /* \"#utility.yul\":24488:24559   */\n      tag_482\n      jump\t// in\n    tag_677:\n        /* \"#utility.yul\":24569:24637   */\n      tag_678\n        /* \"#utility.yul\":24633:24635   */\n      0x20\n        /* \"#utility.yul\":24622:24631   */\n      dup4\n        /* \"#utility.yul\":24618:24636   */\n      add\n        /* \"#utility.yul\":24609:24615   */\n      dup10\n        /* \"#utility.yul\":24569:24637   */\n      tag_666\n      jump\t// in\n    tag_678:\n        /* \"#utility.yul\":24684:24693   */\n      dup2\n        /* \"#utility.yul\":24678:24682   */\n      dup2\n        /* \"#utility.yul\":24674:24694   */\n      sub\n        /* \"#utility.yul\":24669:24671   */\n      0x40\n        /* \"#utility.yul\":24658:24667   */\n      dup4\n        /* \"#utility.yul\":24654:24672   */\n      add\n        /* \"#utility.yul\":24647:24695   */\n      mstore\n        /* \"#utility.yul\":24712:24790   */\n      tag_679\n        /* \"#utility.yul\":24785:24789   */\n      dup2\n        /* \"#utility.yul\":24776:24782   */\n      dup9\n        /* \"#utility.yul\":24712:24790   */\n      tag_528\n      jump\t// in\n    tag_679:\n        /* \"#utility.yul\":24704:24790   */\n      swap1\n      pop\n        /* \"#utility.yul\":24800:24872   */\n      tag_680\n        /* \"#utility.yul\":24868:24870   */\n      0x60\n        /* \"#utility.yul\":24857:24866   */\n      dup4\n        /* \"#utility.yul\":24853:24871   */\n      add\n        /* \"#utility.yul\":24844:24850   */\n      dup8\n        /* \"#utility.yul\":24800:24872   */\n      tag_662\n      jump\t// in\n    tag_680:\n        /* \"#utility.yul\":24882:24955   */\n      tag_681\n        /* \"#utility.yul\":24950:24953   */\n      0x80\n        /* \"#utility.yul\":24939:24948   */\n      dup4\n        /* \"#utility.yul\":24935:24954   */\n      add\n        /* \"#utility.yul\":24926:24932   */\n      dup7\n        /* \"#utility.yul\":24882:24955   */\n      tag_662\n      jump\t// in\n    tag_681:\n        /* \"#utility.yul\":24965:25036   */\n      tag_682\n        /* \"#utility.yul\":25031:25034   */\n      0xa0\n        /* \"#utility.yul\":25020:25029   */\n      dup4\n        /* \"#utility.yul\":25016:25035   */\n      add\n        /* \"#utility.yul\":25007:25013   */\n      dup6\n        /* \"#utility.yul\":24965:25036   */\n      tag_658\n      jump\t// in\n    tag_682:\n        /* \"#utility.yul\":25046:25119   */\n      tag_683\n        /* \"#utility.yul\":25114:25117   */\n      0xc0\n        /* \"#utility.yul\":25103:25112   */\n      dup4\n        /* \"#utility.yul\":25099:25118   */\n      add\n        /* \"#utility.yul\":25090:25096   */\n      dup5\n        /* \"#utility.yul\":25046:25119   */\n      tag_662\n      jump\t// in\n    tag_683:\n        /* \"#utility.yul\":24161:25126   */\n      swap9\n      swap8\n      pop\n      pop\n      pop\n      pop\n      pop\n      pop\n      pop\n      pop\n      jump\t// out\n        /* \"#utility.yul\":25132:25342   */\n    tag_27:\n        /* \"#utility.yul\":25219:25223   */\n      0x00\n        /* \"#utility.yul\":25257:25259   */\n      0x20\n        /* \"#utility.yul\":25246:25255   */\n      dup3\n        /* \"#utility.yul\":25242:25260   */\n      add\n        /* \"#utility.yul\":25234:25260   */\n      swap1\n      pop\n        /* \"#utility.yul\":25270:25335   */\n      tag_685\n        /* \"#utility.yul\":25332:25333   */\n      0x00\n        /* \"#utility.yul\":25321:25330   */\n      dup4\n        /* \"#utility.yul\":25317:25334   */\n      add\n        /* \"#utility.yul\":25308:25314   */\n      dup5\n        /* \"#utility.yul\":25270:25335   */\n      tag_513\n      jump\t// in\n    tag_685:\n        /* \"#utility.yul\":25132:25342   */\n      swap3\n      swap2\n      pop\n      pop\n      jump\t// out\n        /* \"#utility.yul\":25348:25661   */\n    tag_31:\n        /* \"#utility.yul\":25461:25465   */\n      0x00\n        /* \"#utility.yul\":25499:25501   */\n      0x20\n        /* \"#utility.yul\":25488:25497   */\n      dup3\n        /* \"#utility.yul\":25484:25502   */\n      add\n        /* \"#utility.yul\":25476:25502   */\n      swap1\n      pop\n        /* \"#utility.yul\":25548:25557   */\n      dup2\n        /* \"#utility.yul\":25542:25546   */\n      dup2\n        /* \"#utility.yul\":25538:25558   */\n      sub\n        /* \"#utility.yul\":25534:25535   */\n      0x00\n        /* \"#utility.yul\":25523:25532   */\n      dup4\n        /* \"#utility.yul\":25519:25536   */\n      add\n        /* \"#utility.yul\":25512:25559   */\n      mstore\n        /* \"#utility.yul\":25576:25654   */\n      tag_687\n        /* \"#utility.yul\":25649:25653   */\n      dup2\n        /* \"#utility.yul\":25640:25646   */\n      dup5\n        /* \"#utility.yul\":25576:25654   */\n      tag_528\n      jump\t// in\n    tag_687:\n        /* \"#utility.yul\":25568:25654   */\n      swap1\n      pop\n        /* \"#utility.yul\":25348:25661   */\n      swap3\n      swap2\n      pop\n      pop\n      jump\t// out\n        /* \"#utility.yul\":25667:26086   */\n    tag_222:\n        /* \"#utility.yul\":25833:25837   */\n      0x00\n        /* \"#utility.yul\":25871:25873   */\n      0x20\n        /* \"#utility.yul\":25860:25869   */\n      dup3\n        /* \"#utility.yul\":25856:25874   */\n      add\n        /* \"#utility.yul\":25848:25874   */\n      swap1\n      pop\n        /* \"#utility.yul\":25920:25929   */\n      dup2\n        /* \"#utility.yul\":25914:25918   */\n      dup2\n        /* \"#utility.yul\":25910:25930   */\n      sub\n        /* \"#utility.yul\":25906:25907   */\n      0x00\n        /* \"#utility.yul\":25895:25904   */\n      dup4\n        /* \"#utility.yul\":25891:25908   */\n      add\n        /* \"#utility.yul\":25884:25931   */\n      mstore\n        /* \"#utility.yul\":25948:26079   */\n      tag_689\n        /* \"#utility.yul\":26074:26078   */\n      dup2\n        /* \"#utility.yul\":25948:26079   */\n      tag_554\n      jump\t// in\n    tag_689:\n        /* \"#utility.yul\":25940:26079   */\n      swap1\n      pop\n        /* \"#utility.yul\":25667:26086   */\n      swap2\n      swap1\n      pop\n      jump\t// out\n        /* \"#utility.yul\":26092:26511   */\n    tag_93:\n        /* \"#utility.yul\":26258:26262   */\n      0x00\n        /* \"#utility.yul\":26296:26298   */\n      0x20\n        /* \"#utility.yul\":26285:26294   */\n      dup3\n        /* \"#utility.yul\":26281:26299   */\n      add\n        /* \"#utility.yul\":26273:26299   */\n      swap1\n      pop\n        /* \"#utility.yul\":26345:26354   */\n      dup2\n        /* \"#utility.yul\":26339:26343   */\n      dup2\n        /* \"#utility.yul\":26335:26355   */\n      sub\n        /* \"#utility.yul\":26331:26332   */\n      0x00\n        /* \"#utility.yul\":26320:26329   */\n      dup4\n        /* \"#utility.yul\":26316:26333   */\n      add\n        /* \"#utility.yul\":26309:26356   */\n      mstore\n        /* \"#utility.yul\":26373:26504   */\n      tag_691\n        /* \"#utility.yul\":26499:26503   */\n      dup2\n        /* \"#utility.yul\":26373:26504   */\n      tag_559\n      jump\t// in\n    tag_691:\n        /* \"#utility.yul\":26365:26504   */\n      swap1\n      pop\n        /* \"#utility.yul\":26092:26511   */\n      swap2\n      swap1\n      pop\n      jump\t// out\n        /* \"#utility.yul\":26517:26936   */\n    tag_303:\n        /* \"#utility.yul\":26683:26687   */\n      0x00\n        /* \"#utility.yul\":26721:26723   */\n      0x20\n        /* \"#utility.yul\":26710:26719   */\n      dup3\n        /* \"#utility.yul\":26706:26724   */\n      add\n        /* \"#utility.yul\":26698:26724   */\n      swap1\n      pop\n        /* \"#utility.yul\":26770:26779   */\n      dup2\n        /* \"#utility.yul\":26764:26768   */\n      dup2\n        /* \"#utility.yul\":26760:26780   */\n      sub\n        /* \"#utility.yul\":26756:26757   */\n      0x00\n        /* \"#utility.yul\":26745:26754   */\n      dup4\n        /* \"#utility.yul\":26741:26758   */\n      add\n        /* \"#utility.yul\":26734:26781   */\n      mstore\n        /* \"#utility.yul\":26798:26929   */\n      tag_693\n        /* \"#utility.yul\":26924:26928   */\n      dup2\n        /* \"#utility.yul\":26798:26929   */\n      tag_564\n      jump\t// in\n    tag_693:\n        /* \"#utility.yul\":26790:26929   */\n      swap1\n      pop\n        /* \"#utility.yul\":26517:26936   */\n      swap2\n      swap1\n      pop\n      jump\t// out\n        /* \"#utility.yul\":26942:27361   */\n    tag_135:\n        /* \"#utility.yul\":27108:27112   */\n      0x00\n        /* \"#utility.yul\":27146:27148   */\n      0x20\n        /* \"#utility.yul\":27135:27144   */\n      dup3\n        /* \"#utility.yul\":27131:27149   */\n      add\n        /* \"#utility.yul\":27123:27149   */\n      swap1\n      pop\n        /* \"#utility.yul\":27195:27204   */\n      dup2\n        /* \"#utility.yul\":27189:27193   */\n      dup2\n        /* \"#utility.yul\":27185:27205   */\n      sub\n        /* \"#utility.yul\":27181:27182   */\n      0x00\n        /* \"#utility.yul\":27170:27179   */\n      dup4\n        /* \"#utility.yul\":27166:27183   */\n      add\n        /* \"#utility.yul\":27159:27206   */\n      mstore\n        /* \"#utility.yul\":27223:27354   */\n      tag_695\n        /* \"#utility.yul\":27349:27353   */\n      dup2\n        /* \"#utility.yul\":27223:27354   */\n      tag_569\n      jump\t// in\n    tag_695:\n        /* \"#utility.yul\":27215:27354   */\n      swap1\n      pop\n        /* \"#utility.yul\":26942:27361   */\n      swap2\n      swap1\n      pop\n      jump\t// out\n        /* \"#utility.yul\":27367:27786   */\n    tag_259:\n        /* \"#utility.yul\":27533:27537   */\n      0x00\n        /* \"#utility.yul\":27571:27573   */\n      0x20\n        /* \"#utility.yul\":27560:27569   */\n      dup3\n        /* \"#utility.yul\":27556:27574   */\n      add\n        /* \"#utility.yul\":27548:27574   */\n      swap1\n      pop\n        /* \"#utility.yul\":27620:27629   */\n      dup2\n        /* \"#utility.yul\":27614:27618   */\n      dup2\n        /* \"#utility.yul\":27610:27630   */\n      sub\n        /* \"#utility.yul\":27606:27607   */\n      0x00\n        /* \"#utility.yul\":27595:27604   */\n      dup4\n        /* \"#utility.yul\":27591:27608   */\n      add\n        /* \"#utility.yul\":27584:27631   */\n      mstore\n        /* \"#utility.yul\":27648:27779   */\n      tag_697\n        /* \"#utility.yul\":27774:27778   */\n      dup2\n        /* \"#utility.yul\":27648:27779   */\n      tag_574\n      jump\t// in\n    tag_697:\n        /* \"#utility.yul\":27640:27779   */\n      swap1\n      pop\n        /* \"#utility.yul\":27367:27786   */\n      swap2\n      swap1\n      pop\n      jump\t// out\n        /* \"#utility.yul\":27792:28211   */\n    tag_175:\n        /* \"#utility.yul\":27958:27962   */\n      0x00\n        /* \"#utility.yul\":27996:27998   */\n      0x20\n        /* \"#utility.yul\":27985:27994   */\n      dup3\n        /* \"#utility.yul\":27981:27999   */\n      add\n        /* \"#utility.yul\":27973:27999   */\n      swap1\n      pop\n        /* \"#utility.yul\":28045:28054   */\n      dup2\n        /* \"#utility.yul\":28039:28043   */\n      dup2\n        /* \"#utility.yul\":28035:28055   */\n      sub\n        /* \"#utility.yul\":28031:28032   */\n      0x00\n        /* \"#utility.yul\":28020:28029   */\n      dup4\n        /* \"#utility.yul\":28016:28033   */\n      add\n        /* \"#utility.yul\":28009:28056   */\n      mstore\n        /* \"#utility.yul\":28073:28204   */\n      tag_699\n        /* \"#utility.yul\":28199:28203   */\n      dup2\n        /* \"#utility.yul\":28073:28204   */\n      tag_579\n      jump\t// in\n    tag_699:\n        /* \"#utility.yul\":28065:28204   */\n      swap1\n      pop\n        /* \"#utility.yul\":27792:28211   */\n      swap2\n      swap1\n      pop\n      jump\t// out\n        /* \"#utility.yul\":28217:28636   */\n    tag_132:\n        /* \"#utility.yul\":28383:28387   */\n      0x00\n        /* \"#utility.yul\":28421:28423   */\n      0x20\n        /* \"#utility.yul\":28410:28419   */\n      dup3\n        /* \"#utility.yul\":28406:28424   */\n      add\n        /* \"#utility.yul\":28398:28424   */\n      swap1\n      pop\n        /* \"#utility.yul\":28470:28479   */\n      dup2\n        /* \"#utility.yul\":28464:28468   */\n      dup2\n        /* \"#utility.yul\":28460:28480   */\n      sub\n        /* \"#utility.yul\":28456:28457   */\n      0x00\n        /* \"#utility.yul\":28445:28454   */\n      dup4\n        /* \"#utility.yul\":28441:28458   */\n      add\n        /* \"#utility.yul\":28434:28481   */\n      mstore\n        /* \"#utility.yul\":28498:28629   */\n      tag_701\n        /* \"#utility.yul\":28624:28628   */\n      dup2\n        /* \"#utility.yul\":28498:28629   */\n      tag_584\n      jump\t// in\n    tag_701:\n        /* \"#utility.yul\":28490:28629   */\n      swap1\n      pop\n        /* \"#utility.yul\":28217:28636   */\n      swap2\n      swap1\n      pop\n      jump\t// out\n        /* \"#utility.yul\":28642:29061   */\n    tag_225:\n        /* \"#utility.yul\":28808:28812   */\n      0x00\n        /* \"#utility.yul\":28846:28848   */\n      0x20\n        /* \"#utility.yul\":28835:28844   */\n      dup3\n        /* \"#utility.yul\":28831:28849   */\n      add\n        /* \"#utility.yul\":28823:28849   */\n      swap1\n      pop\n        /* \"#utility.yul\":28895:28904   */\n      dup2\n        /* \"#utility.yul\":28889:28893   */\n      dup2\n        /* \"#utility.yul\":28885:28905   */\n      sub\n        /* \"#utility.yul\":28881:28882   */\n      0x00\n        /* \"#utility.yul\":28870:28879   */\n      dup4\n        /* \"#utility.yul\":28866:28883   */\n      add\n        /* \"#utility.yul\":28859:28906   */\n      mstore\n        /* \"#utility.yul\":28923:29054   */\n      tag_703\n        /* \"#utility.yul\":29049:29053   */\n      dup2\n        /* \"#utility.yul\":28923:29054   */\n      tag_589\n      jump\t// in\n    tag_703:\n        /* \"#utility.yul\":28915:29054   */\n      swap1\n      pop\n        /* \"#utility.yul\":28642:29061   */\n      swap2\n      swap1\n      pop\n      jump\t// out\n        /* \"#utility.yul\":29067:29486   */\n    tag_90:\n        /* \"#utility.yul\":29233:29237   */\n      0x00\n        /* \"#utility.yul\":29271:29273   */\n      0x20\n        /* \"#utility.yul\":29260:29269   */\n      dup3\n        /* \"#utility.yul\":29256:29274   */\n      add\n        /* \"#utility.yul\":29248:29274   */\n      swap1\n      pop\n        /* \"#utility.yul\":29320:29329   */\n      dup2\n        /* \"#utility.yul\":29314:29318   */\n      dup2\n        /* \"#utility.yul\":29310:29330   */\n      sub\n        /* \"#utility.yul\":29306:29307   */\n      0x00\n        /* \"#utility.yul\":29295:29304   */\n      dup4\n        /* \"#utility.yul\":29291:29308   */\n      add\n        /* \"#utility.yul\":29284:29331   */\n      mstore\n        /* \"#utility.yul\":29348:29479   */\n      tag_705\n        /* \"#utility.yul\":29474:29478   */\n      dup2\n        /* \"#utility.yul\":29348:29479   */\n      tag_594\n      jump\t// in\n    tag_705:\n        /* \"#utility.yul\":29340:29479   */\n      swap1\n      pop\n        /* \"#utility.yul\":29067:29486   */\n      swap2\n      swap1\n      pop\n      jump\t// out\n        /* \"#utility.yul\":29492:29911   */\n    tag_249:\n        /* \"#utility.yul\":29658:29662   */\n      0x00\n        /* \"#utility.yul\":29696:29698   */\n      0x20\n        /* \"#utility.yul\":29685:29694   */\n      dup3\n        /* \"#utility.yul\":29681:29699   */\n      add\n        /* \"#utility.yul\":29673:29699   */\n      swap1\n      pop\n        /* \"#utility.yul\":29745:29754   */\n      dup2\n        /* \"#utility.yul\":29739:29743   */\n      dup2\n        /* \"#utility.yul\":29735:29755   */\n      sub\n        /* \"#utility.yul\":29731:29732   */\n      0x00\n        /* \"#utility.yul\":29720:29729   */\n      dup4\n        /* \"#utility.yul\":29716:29733   */\n      add\n        /* \"#utility.yul\":29709:29756   */\n      mstore\n        /* \"#utility.yul\":29773:29904   */\n      tag_707\n        /* \"#utility.yul\":29899:29903   */\n      dup2\n        /* \"#utility.yul\":29773:29904   */\n      tag_599\n      jump\t// in\n    tag_707:\n        /* \"#utility.yul\":29765:29904   */\n      swap1\n      pop\n        /* \"#utility.yul\":29492:29911   */\n      swap2\n      swap1\n      pop\n      jump\t// out\n        /* \"#utility.yul\":29917:30336   */\n    tag_129:\n        /* \"#utility.yul\":30083:30087   */\n      0x00\n        /* \"#utility.yul\":30121:30123   */\n      0x20\n        /* \"#utility.yul\":30110:30119   */\n      dup3\n        /* \"#utility.yul\":30106:30124   */\n      add\n        /* \"#utility.yul\":30098:30124   */\n      swap1\n      pop\n        /* \"#utility.yul\":30170:30179   */\n      dup2\n        /* \"#utility.yul\":30164:30168   */\n      dup2\n        /* \"#utility.yul\":30160:30180   */\n      sub\n        /* \"#utility.yul\":30156:30157   */\n      0x00\n        /* \"#utility.yul\":30145:30154   */\n      dup4\n        /* \"#utility.yul\":30141:30158   */\n      add\n        /* \"#utility.yul\":30134:30181   */\n      mstore\n        /* \"#utility.yul\":30198:30329   */\n      tag_709\n        /* \"#utility.yul\":30324:30328   */\n      dup2\n        /* \"#utility.yul\":30198:30329   */\n      tag_604\n      jump\t// in\n    tag_709:\n        /* \"#utility.yul\":30190:30329   */\n      swap1\n      pop\n        /* \"#utility.yul\":29917:30336   */\n      swap2\n      swap1\n      pop\n      jump\t// out\n        /* \"#utility.yul\":30342:30761   */\n    tag_153:\n        /* \"#utility.yul\":30508:30512   */\n      0x00\n        /* \"#utility.yul\":30546:30548   */\n      0x20\n        /* \"#utility.yul\":30535:30544   */\n      dup3\n        /* \"#utility.yul\":30531:30549   */\n      add\n        /* \"#utility.yul\":30523:30549   */\n      swap1\n      pop\n        /* \"#utility.yul\":30595:30604   */\n      dup2\n        /* \"#utility.yul\":30589:30593   */\n      dup2\n        /* \"#utility.yul\":30585:30605   */\n      sub\n        /* \"#utility.yul\":30581:30582   */\n      0x00\n        /* \"#utility.yul\":30570:30579   */\n      dup4\n        /* \"#utility.yul\":30566:30583   */\n      add\n        /* \"#utility.yul\":30559:30606   */\n      mstore\n        /* \"#utility.yul\":30623:30754   */\n      tag_711\n        /* \"#utility.yul\":30749:30753   */\n      dup2\n        /* \"#utility.yul\":30623:30754   */\n      tag_609\n      jump\t// in\n    tag_711:\n        /* \"#utility.yul\":30615:30754   */\n      swap1\n      pop\n        /* \"#utility.yul\":30342:30761   */\n      swap2\n      swap1\n      pop\n      jump\t// out\n        /* \"#utility.yul\":30767:31186   */\n    tag_96:\n        /* \"#utility.yul\":30933:30937   */\n      0x00\n        /* \"#utility.yul\":30971:30973   */\n      0x20\n        /* \"#utility.yul\":30960:30969   */\n      dup3\n        /* \"#utility.yul\":30956:30974   */\n      add\n        /* \"#utility.yul\":30948:30974   */\n      swap1\n      pop\n        /* \"#utility.yul\":31020:31029   */\n      dup2\n        /* \"#utility.yul\":31014:31018   */\n      dup2\n        /* \"#utility.yul\":31010:31030   */\n      sub\n        /* \"#utility.yul\":31006:31007   */\n      0x00\n        /* \"#utility.yul\":30995:31004   */\n      dup4\n        /* \"#utility.yul\":30991:31008   */\n      add\n        /* \"#utility.yul\":30984:31031   */\n      mstore\n        /* \"#utility.yul\":31048:31179   */\n      tag_713\n        /* \"#utility.yul\":31174:31178   */\n      dup2\n        /* \"#utility.yul\":31048:31179   */\n      tag_614\n      jump\t// in\n    tag_713:\n        /* \"#utility.yul\":31040:31179   */\n      swap1\n      pop\n        /* \"#utility.yul\":30767:31186   */\n      swap2\n      swap1\n      pop\n      jump\t// out\n        /* \"#utility.yul\":31192:31611   */\n    tag_300:\n        /* \"#utility.yul\":31358:31362   */\n      0x00\n        /* \"#utility.yul\":31396:31398   */\n      0x20\n        /* \"#utility.yul\":31385:31394   */\n      dup3\n        /* \"#utility.yul\":31381:31399   */\n      add\n        /* \"#utility.yul\":31373:31399   */\n      swap1\n      pop\n        /* \"#utility.yul\":31445:31454   */\n      dup2\n        /* \"#utility.yul\":31439:31443   */\n      dup2\n        /* \"#utility.yul\":31435:31455   */\n      sub\n        /* \"#utility.yul\":31431:31432   */\n      0x00\n        /* \"#utility.yul\":31420:31429   */\n      dup4\n        /* \"#utility.yul\":31416:31433   */\n      add\n        /* \"#utility.yul\":31409:31456   */\n      mstore\n        /* \"#utility.yul\":31473:31604   */\n      tag_715\n        /* \"#utility.yul\":31599:31603   */\n      dup2\n        /* \"#utility.yul\":31473:31604   */\n      tag_619\n      jump\t// in\n    tag_715:\n        /* \"#utility.yul\":31465:31604   */\n      swap1\n      pop\n        /* \"#utility.yul\":31192:31611   */\n      swap2\n      swap1\n      pop\n      jump\t// out\n        /* \"#utility.yul\":31617:32036   */\n    tag_138:\n        /* \"#utility.yul\":31783:31787   */\n      0x00\n        /* \"#utility.yul\":31821:31823   */\n      0x20\n        /* \"#utility.yul\":31810:31819   */\n      dup3\n        /* \"#utility.yul\":31806:31824   */\n      add\n        /* \"#utility.yul\":31798:31824   */\n      swap1\n      pop\n        /* \"#utility.yul\":31870:31879   */\n      dup2\n        /* \"#utility.yul\":31864:31868   */\n      dup2\n        /* \"#utility.yul\":31860:31880   */\n      sub\n        /* \"#utility.yul\":31856:31857   */\n      0x00\n        /* \"#utility.yul\":31845:31854   */\n      dup4\n        /* \"#utility.yul\":31841:31858   */\n      add\n        /* \"#utility.yul\":31834:31881   */\n      mstore\n        /* \"#utility.yul\":31898:32029   */\n      tag_717\n        /* \"#utility.yul\":32024:32028   */\n      dup2\n        /* \"#utility.yul\":31898:32029   */\n      tag_624\n      jump\t// in\n    tag_717:\n        /* \"#utility.yul\":31890:32029   */\n      swap1\n      pop\n        /* \"#utility.yul\":31617:32036   */\n      swap2\n      swap1\n      pop\n      jump\t// out\n        /* \"#utility.yul\":32042:32681   */\n    tag_120:\n        /* \"#utility.yul\":32264:32268   */\n      0x00\n        /* \"#utility.yul\":32302:32304   */\n      0x60\n        /* \"#utility.yul\":32291:32300   */\n      dup3\n        /* \"#utility.yul\":32287:32305   */\n      add\n        /* \"#utility.yul\":32279:32305   */\n      swap1\n      pop\n        /* \"#utility.yul\":32351:32360   */\n      dup2\n        /* \"#utility.yul\":32345:32349   */\n      dup2\n        /* \"#utility.yul\":32341:32361   */\n      sub\n        /* \"#utility.yul\":32337:32338   */\n      0x00\n        /* \"#utility.yul\":32326:32335   */\n      dup4\n        /* \"#utility.yul\":32322:32339   */\n      add\n        /* \"#utility.yul\":32315:32362   */\n      mstore\n        /* \"#utility.yul\":32379:32510   */\n      tag_719\n        /* \"#utility.yul\":32505:32509   */\n      dup2\n        /* \"#utility.yul\":32379:32510   */\n      tag_629\n      jump\t// in\n    tag_719:\n        /* \"#utility.yul\":32371:32510   */\n      swap1\n      pop\n        /* \"#utility.yul\":32520:32592   */\n      tag_720\n        /* \"#utility.yul\":32588:32590   */\n      0x20\n        /* \"#utility.yul\":32577:32586   */\n      dup4\n        /* \"#utility.yul\":32573:32591   */\n      add\n        /* \"#utility.yul\":32564:32570   */\n      dup6\n        /* \"#utility.yul\":32520:32592   */\n      tag_482\n      jump\t// in\n    tag_720:\n        /* \"#utility.yul\":32602:32674   */\n      tag_721\n        /* \"#utility.yul\":32670:32672   */\n      0x40\n        /* \"#utility.yul\":32659:32668   */\n      dup4\n        /* \"#utility.yul\":32655:32673   */\n      add\n        /* \"#utility.yul\":32646:32652   */\n      dup5\n        /* \"#utility.yul\":32602:32674   */\n      tag_662\n      jump\t// in\n    tag_721:\n        /* \"#utility.yul\":32042:32681   */\n      swap4\n      swap3\n      pop\n      pop\n      pop\n      jump\t// out\n        /* \"#utility.yul\":32687:33106   */\n    tag_280:\n        /* \"#utility.yul\":32853:32857   */\n      0x00\n        /* \"#utility.yul\":32891:32893   */\n      0x20\n        /* \"#utility.yul\":32880:32889   */\n      dup3\n        /* \"#utility.yul\":32876:32894   */\n      add\n        /* \"#utility.yul\":32868:32894   */\n      swap1\n      pop\n        /* \"#utility.yul\":32940:32949   */\n      dup2\n        /* \"#utility.yul\":32934:32938   */\n      dup2\n        /* \"#utility.yul\":32930:32950   */\n      sub\n        /* \"#utility.yul\":32926:32927   */\n      0x00\n        /* \"#utility.yul\":32915:32924   */\n      dup4\n        /* \"#utility.yul\":32911:32928   */\n      add\n        /* \"#utility.yul\":32904:32951   */\n      mstore\n        /* \"#utility.yul\":32968:33099   */\n      tag_723\n        /* \"#utility.yul\":33094:33098   */\n      dup2\n        /* \"#utility.yul\":32968:33099   */\n      tag_634\n      jump\t// in\n    tag_723:\n        /* \"#utility.yul\":32960:33099   */\n      swap1\n      pop\n        /* \"#utility.yul\":32687:33106   */\n      swap2\n      swap1\n      pop\n      jump\t// out\n        /* \"#utility.yul\":33112:33751   */\n    tag_164:\n        /* \"#utility.yul\":33334:33338   */\n      0x00\n        /* \"#utility.yul\":33372:33374   */\n      0x60\n        /* \"#utility.yul\":33361:33370   */\n      dup3\n        /* \"#utility.yul\":33357:33375   */\n      add\n        /* \"#utility.yul\":33349:33375   */\n      swap1\n      pop\n        /* \"#utility.yul\":33421:33430   */\n      dup2\n        /* \"#utility.yul\":33415:33419   */\n      dup2\n        /* \"#utility.yul\":33411:33431   */\n      sub\n        /* \"#utility.yul\":33407:33408   */\n      0x00\n        /* \"#utility.yul\":33396:33405   */\n      dup4\n        /* \"#utility.yul\":33392:33409   */\n      add\n        /* \"#utility.yul\":33385:33432   */\n      mstore\n        /* \"#utility.yul\":33449:33580   */\n      tag_725\n        /* \"#utility.yul\":33575:33579   */\n      dup2\n        /* \"#utility.yul\":33449:33580   */\n      tag_639\n      jump\t// in\n    tag_725:\n        /* \"#utility.yul\":33441:33580   */\n      swap1\n      pop\n        /* \"#utility.yul\":33590:33662   */\n      tag_726\n        /* \"#utility.yul\":33658:33660   */\n      0x20\n        /* \"#utility.yul\":33647:33656   */\n      dup4\n        /* \"#utility.yul\":33643:33661   */\n      add\n        /* \"#utility.yul\":33634:33640   */\n      dup6\n        /* \"#utility.yul\":33590:33662   */\n      tag_482\n      jump\t// in\n    tag_726:\n        /* \"#utility.yul\":33672:33744   */\n      tag_727\n        /* \"#utility.yul\":33740:33742   */\n      0x40\n        /* \"#utility.yul\":33729:33738   */\n      dup4\n        /* \"#utility.yul\":33725:33743   */\n      add\n        /* \"#utility.yul\":33716:33722   */\n      dup5\n        /* \"#utility.yul\":33672:33744   */\n      tag_662\n      jump\t// in\n    tag_727:\n        /* \"#utility.yul\":33112:33751   */\n      swap4\n      swap3\n      pop\n      pop\n      pop\n      jump\t// out\n        /* \"#utility.yul\":33757:34176   */\n    tag_283:\n        /* \"#utility.yul\":33923:33927   */\n      0x00\n        /* \"#utility.yul\":33961:33963   */\n      0x20\n        /* \"#utility.yul\":33950:33959   */\n      dup3\n        /* \"#utility.yul\":33946:33964   */\n      add\n        /* \"#utility.yul\":33938:33964   */\n      swap1\n      pop\n        /* \"#utility.yul\":34010:34019   */\n      dup2\n        /* \"#utility.yul\":34004:34008   */\n      dup2\n        /* \"#utility.yul\":34000:34020   */\n      sub\n        /* \"#utility.yul\":33996:33997   */\n      0x00\n        /* \"#utility.yul\":33985:33994   */\n      dup4\n        /* \"#utility.yul\":33981:33998   */\n      add\n        /* \"#utility.yul\":33974:34021   */\n      mstore\n        /* \"#utility.yul\":34038:34169   */\n      tag_729\n        /* \"#utility.yul\":34164:34168   */\n      dup2\n        /* \"#utility.yul\":34038:34169   */\n      tag_644\n      jump\t// in\n    tag_729:\n        /* \"#utility.yul\":34030:34169   */\n      swap1\n      pop\n        /* \"#utility.yul\":33757:34176   */\n      swap2\n      swap1\n      pop\n      jump\t// out\n        /* \"#utility.yul\":34182:34601   */\n    tag_293:\n        /* \"#utility.yul\":34348:34352   */\n      0x00\n        /* \"#utility.yul\":34386:34388   */\n      0x20\n        /* \"#utility.yul\":34375:34384   */\n      dup3\n        /* \"#utility.yul\":34371:34389   */\n      add\n        /* \"#utility.yul\":34363:34389   */\n      swap1\n      pop\n        /* \"#utility.yul\":34435:34444   */\n      dup2\n        /* \"#utility.yul\":34429:34433   */\n      dup2\n        /* \"#utility.yul\":34425:34445   */\n      sub\n        /* \"#utility.yul\":34421:34422   */\n      0x00\n        /* \"#utility.yul\":34410:34419   */\n      dup4\n        /* \"#utility.yul\":34406:34423   */\n      add\n        /* \"#utility.yul\":34399:34446   */\n      mstore\n        /* \"#utility.yul\":34463:34594   */\n      tag_731\n        /* \"#utility.yul\":34589:34593   */\n      dup2\n        /* \"#utility.yul\":34463:34594   */\n      tag_649\n      jump\t// in\n    tag_731:\n        /* \"#utility.yul\":34455:34594   */\n      swap1\n      pop\n        /* \"#utility.yul\":34182:34601   */\n      swap2\n      swap1\n      pop\n      jump\t// out\n        /* \"#utility.yul\":34607:34939   */\n    tag_71:\n        /* \"#utility.yul\":34728:34732   */\n      0x00\n        /* \"#utility.yul\":34766:34768   */\n      0x40\n        /* \"#utility.yul\":34755:34764   */\n      dup3\n        /* \"#utility.yul\":34751:34769   */\n      add\n        /* \"#utility.yul\":34743:34769   */\n      swap1\n      pop\n        /* \"#utility.yul\":34779:34850   */\n      tag_733\n        /* \"#utility.yul\":34847:34848   */\n      0x00\n        /* \"#utility.yul\":34836:34845   */\n      dup4\n        /* \"#utility.yul\":34832:34849   */\n      add\n        /* \"#utility.yul\":34823:34829   */\n      dup6\n        /* \"#utility.yul\":34779:34850   */\n      tag_654\n      jump\t// in\n    tag_733:\n        /* \"#utility.yul\":34860:34932   */\n      tag_734\n        /* \"#utility.yul\":34928:34930   */\n      0x20\n        /* \"#utility.yul\":34917:34926   */\n      dup4\n        /* \"#utility.yul\":34913:34931   */\n      add\n        /* \"#utility.yul\":34904:34910   */\n      dup5\n        /* \"#utility.yul\":34860:34932   */\n      tag_654\n      jump\t// in\n    tag_734:\n        /* \"#utility.yul\":34607:34939   */\n      swap4\n      swap3\n      pop\n      pop\n      pop\n      jump\t// out\n        /* \"#utility.yul\":34945:35167   */\n    tag_35:\n        /* \"#utility.yul\":35038:35042   */\n      0x00\n        /* \"#utility.yul\":35076:35078   */\n      0x20\n        /* \"#utility.yul\":35065:35074   */\n      dup3\n        /* \"#utility.yul\":35061:35079   */\n      add\n        /* \"#utility.yul\":35053:35079   */\n      swap1\n      pop\n        /* \"#utility.yul\":35089:35160   */\n      tag_736\n        /* \"#utility.yul\":35157:35158   */\n      0x00\n        /* \"#utility.yul\":35146:35155   */\n      dup4\n        /* \"#utility.yul\":35142:35159   */\n      add\n        /* \"#utility.yul\":35133:35139   */\n      dup5\n        /* \"#utility.yul\":35089:35160   */\n      tag_662\n      jump\t// in\n    tag_736:\n        /* \"#utility.yul\":34945:35167   */\n      swap3\n      swap2\n      pop\n      pop\n      jump\t// out\n        /* \"#utility.yul\":35173:35714   */\n    tag_66:\n        /* \"#utility.yul\":35344:35348   */\n      0x00\n        /* \"#utility.yul\":35382:35385   */\n      0x80\n        /* \"#utility.yul\":35371:35380   */\n      dup3\n        /* \"#utility.yul\":35367:35386   */\n      add\n        /* \"#utility.yul\":35359:35386   */\n      swap1\n      pop\n        /* \"#utility.yul\":35396:35467   */\n      tag_738\n        /* \"#utility.yul\":35464:35465   */\n      0x00\n        /* \"#utility.yul\":35453:35462   */\n      dup4\n        /* \"#utility.yul\":35449:35466   */\n      add\n        /* \"#utility.yul\":35440:35446   */\n      dup8\n        /* \"#utility.yul\":35396:35467   */\n      tag_662\n      jump\t// in\n    tag_738:\n        /* \"#utility.yul\":35477:35549   */\n      tag_739\n        /* \"#utility.yul\":35545:35547   */\n      0x20\n        /* \"#utility.yul\":35534:35543   */\n      dup4\n        /* \"#utility.yul\":35530:35548   */\n      add\n        /* \"#utility.yul\":35521:35527   */\n      dup7\n        /* \"#utility.yul\":35477:35549   */\n      tag_482\n      jump\t// in\n    tag_739:\n        /* \"#utility.yul\":35559:35625   */\n      tag_740\n        /* \"#utility.yul\":35621:35623   */\n      0x40\n        /* \"#utility.yul\":35610:35619   */\n      dup4\n        /* \"#utility.yul\":35606:35624   */\n      add\n        /* \"#utility.yul\":35597:35603   */\n      dup6\n        /* \"#utility.yul\":35559:35625   */\n      tag_513\n      jump\t// in\n    tag_740:\n        /* \"#utility.yul\":35635:35707   */\n      tag_741\n        /* \"#utility.yul\":35703:35705   */\n      0x60\n        /* \"#utility.yul\":35692:35701   */\n      dup4\n        /* \"#utility.yul\":35688:35706   */\n      add\n        /* \"#utility.yul\":35679:35685   */\n      dup5\n        /* \"#utility.yul\":35635:35707   */\n      tag_662\n      jump\t// in\n    tag_741:\n        /* \"#utility.yul\":35173:35714   */\n      swap6\n      swap5\n      pop\n      pop\n      pop\n      pop\n      pop\n      jump\t// out\n        /* \"#utility.yul\":35720:37063   */\n    tag_102:\n        /* \"#utility.yul\":36133:36137   */\n      0x00\n        /* \"#utility.yul\":36171:36174   */\n      0xe0\n        /* \"#utility.yul\":36160:36169   */\n      dup3\n        /* \"#utility.yul\":36156:36175   */\n      add\n        /* \"#utility.yul\":36148:36175   */\n      swap1\n      pop\n        /* \"#utility.yul\":36185:36256   */\n      tag_743\n        /* \"#utility.yul\":36253:36254   */\n      0x00\n        /* \"#utility.yul\":36242:36251   */\n      dup4\n        /* \"#utility.yul\":36238:36255   */\n      add\n        /* \"#utility.yul\":36229:36235   */\n      dup12\n        /* \"#utility.yul\":36185:36256   */\n      tag_662\n      jump\t// in\n    tag_743:\n        /* \"#utility.yul\":36303:36312   */\n      dup2\n        /* \"#utility.yul\":36297:36301   */\n      dup2\n        /* \"#utility.yul\":36293:36313   */\n      sub\n        /* \"#utility.yul\":36288:36290   */\n      0x20\n        /* \"#utility.yul\":36277:36286   */\n      dup4\n        /* \"#utility.yul\":36273:36291   */\n      add\n        /* \"#utility.yul\":36266:36314   */\n      mstore\n        /* \"#utility.yul\":36331:36439   */\n      tag_744\n        /* \"#utility.yul\":36434:36438   */\n      dup2\n        /* \"#utility.yul\":36425:36431   */\n      dup11\n        /* \"#utility.yul\":36331:36439   */\n      tag_485\n      jump\t// in\n    tag_744:\n        /* \"#utility.yul\":36323:36439   */\n      swap1\n      pop\n        /* \"#utility.yul\":36449:36521   */\n      tag_745\n        /* \"#utility.yul\":36517:36519   */\n      0x40\n        /* \"#utility.yul\":36506:36515   */\n      dup4\n        /* \"#utility.yul\":36502:36520   */\n      add\n        /* \"#utility.yul\":36493:36499   */\n      dup10\n        /* \"#utility.yul\":36449:36521   */\n      tag_482\n      jump\t// in\n    tag_745:\n        /* \"#utility.yul\":36531:36603   */\n      tag_746\n        /* \"#utility.yul\":36599:36601   */\n      0x60\n        /* \"#utility.yul\":36588:36597   */\n      dup4\n        /* \"#utility.yul\":36584:36602   */\n      add\n        /* \"#utility.yul\":36575:36581   */\n      dup9\n        /* \"#utility.yul\":36531:36603   */\n      tag_662\n      jump\t// in\n    tag_746:\n        /* \"#utility.yul\":36613:36686   */\n      tag_747\n        /* \"#utility.yul\":36681:36684   */\n      0x80\n        /* \"#utility.yul\":36670:36679   */\n      dup4\n        /* \"#utility.yul\":36666:36685   */\n      add\n        /* \"#utility.yul\":36657:36663   */\n      dup8\n        /* \"#utility.yul\":36613:36686   */\n      tag_662\n      jump\t// in\n    tag_747:\n        /* \"#utility.yul\":36734:36743   */\n      dup2\n        /* \"#utility.yul\":36728:36732   */\n      dup2\n        /* \"#utility.yul\":36724:36744   */\n      sub\n        /* \"#utility.yul\":36718:36721   */\n      0xa0\n        /* \"#utility.yul\":36707:36716   */\n      dup4\n        /* \"#utility.yul\":36703:36722   */\n      add\n        /* \"#utility.yul\":36696:36745   */\n      mstore\n        /* \"#utility.yul\":36762:36840   */\n      tag_748\n        /* \"#utility.yul\":36835:36839   */\n      dup2\n        /* \"#utility.yul\":36826:36832   */\n      dup7\n        /* \"#utility.yul\":36762:36840   */\n      tag_528\n      jump\t// in\n    tag_748:\n        /* \"#utility.yul\":36754:36840   */\n      swap1\n      pop\n        /* \"#utility.yul\":36888:36897   */\n      dup2\n        /* \"#utility.yul\":36882:36886   */\n      dup2\n        /* \"#utility.yul\":36878:36898   */\n      sub\n        /* \"#utility.yul\":36872:36875   */\n      0xc0\n        /* \"#utility.yul\":36861:36870   */\n      dup4\n        /* \"#utility.yul\":36857:36876   */\n      add\n        /* \"#utility.yul\":36850:36899   */\n      mstore\n        /* \"#utility.yul\":36916:37056   */\n      tag_749\n        /* \"#utility.yul\":37051:37055   */\n      dup2\n        /* \"#utility.yul\":37042:37048   */\n      dup5\n        /* \"#utility.yul\":37034:37040   */\n      dup7\n        /* \"#utility.yul\":36916:37056   */\n      tag_499\n      jump\t// in\n    tag_749:\n        /* \"#utility.yul\":36908:37056   */\n      swap1\n      pop\n        /* \"#utility.yul\":35720:37063   */\n      swap10\n      swap9\n      pop\n      pop\n      pop\n      pop\n      pop\n      pop\n      pop\n      pop\n      pop\n      jump\t// out\n        /* \"#utility.yul\":37069:37492   */\n    tag_60:\n        /* \"#utility.yul\":37210:37214   */\n      0x00\n        /* \"#utility.yul\":37248:37250   */\n      0x40\n        /* \"#utility.yul\":37237:37246   */\n      dup3\n        /* \"#utility.yul\":37233:37251   */\n      add\n        /* \"#utility.yul\":37225:37251   */\n      swap1\n      pop\n        /* \"#utility.yul\":37261:37332   */\n      tag_751\n        /* \"#utility.yul\":37329:37330   */\n      0x00\n        /* \"#utility.yul\":37318:37327   */\n      dup4\n        /* \"#utility.yul\":37314:37331   */\n      add\n        /* \"#utility.yul\":37305:37311   */\n      dup6\n        /* \"#utility.yul\":37261:37332   */\n      tag_662\n      jump\t// in\n    tag_751:\n        /* \"#utility.yul\":37379:37388   */\n      dup2\n        /* \"#utility.yul\":37373:37377   */\n      dup2\n        /* \"#utility.yul\":37369:37389   */\n      sub\n        /* \"#utility.yul\":37364:37366   */\n      0x20\n        /* \"#utility.yul\":37353:37362   */\n      dup4\n        /* \"#utility.yul\":37349:37367   */\n      add\n        /* \"#utility.yul\":37342:37390   */\n      mstore\n        /* \"#utility.yul\":37407:37485   */\n      tag_752\n        /* \"#utility.yul\":37480:37484   */\n      dup2\n        /* \"#utility.yul\":37471:37477   */\n      dup5\n        /* \"#utility.yul\":37407:37485   */\n      tag_528\n      jump\t// in\n    tag_752:\n        /* \"#utility.yul\":37399:37485   */\n      swap1\n      pop\n        /* \"#utility.yul\":37069:37492   */\n      swap4\n      swap3\n      pop\n      pop\n      pop\n      jump\t// out\n        /* \"#utility.yul\":37498:37712   */\n    tag_39:\n        /* \"#utility.yul\":37587:37591   */\n      0x00\n        /* \"#utility.yul\":37625:37627   */\n      0x20\n        /* \"#utility.yul\":37614:37623   */\n      dup3\n        /* \"#utility.yul\":37610:37628   */\n      add\n        /* \"#utility.yul\":37602:37628   */\n      swap1\n      pop\n        /* \"#utility.yul\":37638:37705   */\n      tag_754\n        /* \"#utility.yul\":37702:37703   */\n      0x00\n        /* \"#utility.yul\":37691:37700   */\n      dup4\n        /* \"#utility.yul\":37687:37704   */\n      add\n        /* \"#utility.yul\":37678:37684   */\n      dup5\n        /* \"#utility.yul\":37638:37705   */\n      tag_666\n      jump\t// in\n    tag_754:\n        /* \"#utility.yul\":37498:37712   */\n      swap3\n      swap2\n      pop\n      pop\n      jump\t// out\n        /* \"#utility.yul\":37718:38443   */\n    tag_192:\n        /* \"#utility.yul\":37796:37800   */\n      0x00\n        /* \"#utility.yul\":37802:37808   */\n      dup1\n        /* \"#utility.yul\":37858:37869   */\n      dup4\n        /* \"#utility.yul\":37845:37870   */\n      calldataload\n        /* \"#utility.yul\":37958:37959   */\n      0x01\n        /* \"#utility.yul\":37952:37956   */\n      0x20\n        /* \"#utility.yul\":37948:37960   */\n      sub\n        /* \"#utility.yul\":37937:37945   */\n      dup5\n        /* \"#utility.yul\":37921:37935   */\n      calldatasize\n        /* \"#utility.yul\":37917:37946   */\n      sub\n        /* \"#utility.yul\":37913:37961   */\n      sub\n        /* \"#utility.yul\":37893:37911   */\n      dup2\n        /* \"#utility.yul\":37889:37962   */\n      slt\n        /* \"#utility.yul\":37879:38047   */\n      tag_756\n      jumpi\n        /* \"#utility.yul\":37966:38045   */\n      tag_757\n      tag_758\n      jump\t// in\n    tag_757:\n        /* \"#utility.yul\":37879:38047   */\n    tag_756:\n        /* \"#utility.yul\":38078:38096   */\n      dup1\n        /* \"#utility.yul\":38068:38076   */\n      dup5\n        /* \"#utility.yul\":38064:38097   */\n      add\n        /* \"#utility.yul\":38056:38097   */\n      swap3\n      pop\n        /* \"#utility.yul\":38130:38134   */\n      dup3\n        /* \"#utility.yul\":38117:38135   */\n      calldataload\n        /* \"#utility.yul\":38107:38135   */\n      swap2\n      pop\n        /* \"#utility.yul\":38158:38176   */\n      0xffffffffffffffff\n        /* \"#utility.yul\":38150:38156   */\n      dup3\n        /* \"#utility.yul\":38147:38177   */\n      gt\n        /* \"#utility.yul\":38144:38261   */\n      iszero\n      tag_759\n      jumpi\n        /* \"#utility.yul\":38180:38259   */\n      tag_760\n      tag_761\n      jump\t// in\n    tag_760:\n        /* \"#utility.yul\":38144:38261   */\n    tag_759:\n        /* \"#utility.yul\":38288:38290   */\n      0x20\n        /* \"#utility.yul\":38282:38286   */\n      dup4\n        /* \"#utility.yul\":38278:38291   */\n      add\n        /* \"#utility.yul\":38270:38291   */\n      swap3\n      pop\n        /* \"#utility.yul\":38345:38349   */\n      0x01\n        /* \"#utility.yul\":38337:38343   */\n      dup3\n        /* \"#utility.yul\":38333:38350   */\n      mul\n        /* \"#utility.yul\":38317:38331   */\n      calldatasize\n        /* \"#utility.yul\":38313:38351   */\n      sub\n        /* \"#utility.yul\":38307:38311   */\n      dup4\n        /* \"#utility.yul\":38303:38352   */\n      sgt\n        /* \"#utility.yul\":38300:38436   */\n      iszero\n      tag_762\n      jumpi\n        /* \"#utility.yul\":38355:38434   */\n      tag_763\n      tag_764\n      jump\t// in\n    tag_763:\n        /* \"#utility.yul\":38300:38436   */\n    tag_762:\n        /* \"#utility.yul\":37809:38443   */\n      pop\n        /* \"#utility.yul\":37718:38443   */\n      swap3\n      pop\n      swap3\n      swap1\n      pop\n      jump\t// out\n        /* \"#utility.yul\":38449:38578   */\n    tag_337:\n        /* \"#utility.yul\":38483:38489   */\n      0x00\n        /* \"#utility.yul\":38510:38530   */\n      tag_766\n      tag_767\n      jump\t// in\n    tag_766:\n        /* \"#utility.yul\":38500:38530   */\n      swap1\n      pop\n        /* \"#utility.yul\":38539:38572   */\n      tag_768\n        /* \"#utility.yul\":38567:38571   */\n      dup3\n        /* \"#utility.yul\":38559:38565   */\n      dup3\n        /* \"#utility.yul\":38539:38572   */\n      tag_769\n      jump\t// in\n    tag_768:\n        /* \"#utility.yul\":38449:38578   */\n      swap2\n      swap1\n      pop\n      jump\t// out\n        /* \"#utility.yul\":38584:38659   */\n    tag_767:\n        /* \"#utility.yul\":38617:38623   */\n      0x00\n        /* \"#utility.yul\":38650:38652   */\n      0x40\n        /* \"#utility.yul\":38644:38653   */\n      mload\n        /* \"#utility.yul\":38634:38653   */\n      swap1\n      pop\n        /* \"#utility.yul\":38584:38659   */\n      swap1\n      jump\t// out\n        /* \"#utility.yul\":38665:38976   */\n    tag_336:\n        /* \"#utility.yul\":38742:38746   */\n      0x00\n        /* \"#utility.yul\":38832:38850   */\n      0xffffffffffffffff\n        /* \"#utility.yul\":38824:38830   */\n      dup3\n        /* \"#utility.yul\":38821:38851   */\n      gt\n        /* \"#utility.yul\":38818:38874   */\n      iszero\n      tag_772\n      jumpi\n        /* \"#utility.yul\":38854:38872   */\n      tag_773\n      tag_774\n      jump\t// in\n    tag_773:\n        /* \"#utility.yul\":38818:38874   */\n    tag_772:\n        /* \"#utility.yul\":38904:38908   */\n      0x20\n        /* \"#utility.yul\":38896:38902   */\n      dup3\n        /* \"#utility.yul\":38892:38909   */\n      mul\n        /* \"#utility.yul\":38884:38909   */\n      swap1\n      pop\n        /* \"#utility.yul\":38964:38968   */\n      0x20\n        /* \"#utility.yul\":38958:38962   */\n      dup2\n        /* \"#utility.yul\":38954:38969   */\n      add\n        /* \"#utility.yul\":38946:38969   */\n      swap1\n      pop\n        /* \"#utility.yul\":38665:38976   */\n      swap2\n      swap1\n      pop\n      jump\t// out\n        /* \"#utility.yul\":38982:39303   */\n    tag_350:\n        /* \"#utility.yul\":39069:39073   */\n      0x00\n        /* \"#utility.yul\":39159:39177   */\n      0xffffffffffffffff\n        /* \"#utility.yul\":39151:39157   */\n      dup3\n        /* \"#utility.yul\":39148:39178   */\n      gt\n        /* \"#utility.yul\":39145:39201   */\n      iszero\n      tag_776\n      jumpi\n        /* \"#utility.yul\":39181:39199   */\n      tag_777\n      tag_774\n      jump\t// in\n    tag_777:\n        /* \"#utility.yul\":39145:39201   */\n    tag_776:\n        /* \"#utility.yul\":39231:39235   */\n      0x20\n        /* \"#utility.yul\":39223:39229   */\n      dup3\n        /* \"#utility.yul\":39219:39236   */\n      mul\n        /* \"#utility.yul\":39211:39236   */\n      swap1\n      pop\n        /* \"#utility.yul\":39291:39295   */\n      0x20\n        /* \"#utility.yul\":39285:39289   */\n      dup2\n        /* \"#utility.yul\":39281:39296   */\n      add\n        /* \"#utility.yul\":39273:39296   */\n      swap1\n      pop\n        /* \"#utility.yul\":38982:39303   */\n      swap2\n      swap1\n      pop\n      jump\t// out\n        /* \"#utility.yul\":39309:39620   */\n    tag_365:\n        /* \"#utility.yul\":39386:39390   */\n      0x00\n        /* \"#utility.yul\":39476:39494   */\n      0xffffffffffffffff\n        /* \"#utility.yul\":39468:39474   */\n      dup3\n        /* \"#utility.yul\":39465:39495   */\n      gt\n        /* \"#utility.yul\":39462:39518   */\n      iszero\n      tag_779\n      jumpi\n        /* \"#utility.yul\":39498:39516   */\n      tag_780\n      tag_774\n      jump\t// in\n    tag_780:\n        /* \"#utility.yul\":39462:39518   */\n    tag_779:\n        /* \"#utility.yul\":39548:39552   */\n      0x20\n        /* \"#utility.yul\":39540:39546   */\n      dup3\n        /* \"#utility.yul\":39536:39553   */\n      mul\n        /* \"#utility.yul\":39528:39553   */\n      swap1\n      pop\n        /* \"#utility.yul\":39608:39612   */\n      0x20\n        /* \"#utility.yul\":39602:39606   */\n      dup2\n        /* \"#utility.yul\":39598:39613   */\n      add\n        /* \"#utility.yul\":39590:39613   */\n      swap1\n      pop\n        /* \"#utility.yul\":39309:39620   */\n      swap2\n      swap1\n      pop\n      jump\t// out\n        /* \"#utility.yul\":39626:39934   */\n    tag_377:\n        /* \"#utility.yul\":39688:39692   */\n      0x00\n        /* \"#utility.yul\":39778:39796   */\n      0xffffffffffffffff\n        /* \"#utility.yul\":39770:39776   */\n      dup3\n        /* \"#utility.yul\":39767:39797   */\n      gt\n        /* \"#utility.yul\":39764:39820   */\n      iszero\n      tag_782\n      jumpi\n        /* \"#utility.yul\":39800:39818   */\n      tag_783\n      tag_774\n      jump\t// in\n    tag_783:\n        /* \"#utility.yul\":39764:39820   */\n    tag_782:\n        /* \"#utility.yul\":39838:39867   */\n      tag_784\n        /* \"#utility.yul\":39860:39866   */\n      dup3\n        /* \"#utility.yul\":39838:39867   */\n      tag_522\n      jump\t// in\n    tag_784:\n        /* \"#utility.yul\":39830:39867   */\n      swap1\n      pop\n        /* \"#utility.yul\":39922:39926   */\n      0x20\n        /* \"#utility.yul\":39916:39920   */\n      dup2\n        /* \"#utility.yul\":39912:39927   */\n      add\n        /* \"#utility.yul\":39904:39927   */\n      swap1\n      pop\n        /* \"#utility.yul\":39626:39934   */\n      swap2\n      swap1\n      pop\n      jump\t// out\n        /* \"#utility.yul\":39940:40072   */\n    tag_492:\n        /* \"#utility.yul\":40007:40011   */\n      0x00\n        /* \"#utility.yul\":40030:40033   */\n      dup2\n        /* \"#utility.yul\":40022:40033   */\n      swap1\n      pop\n        /* \"#utility.yul\":40060:40064   */\n      0x20\n        /* \"#utility.yul\":40055:40058   */\n      dup3\n        /* \"#utility.yul\":40051:40065   */\n      add\n        /* \"#utility.yul\":40043:40065   */\n      swap1\n      pop\n        /* \"#utility.yul\":39940:40072   */\n      swap2\n      swap1\n      pop\n      jump\t// out\n        /* \"#utility.yul\":40078:40192   */\n    tag_504:\n        /* \"#utility.yul\":40159:40163   */\n      0x00\n        /* \"#utility.yul\":40182:40185   */\n      dup2\n        /* \"#utility.yul\":40174:40185   */\n      swap1\n      pop\n        /* \"#utility.yul\":40078:40192   */\n      swap2\n      swap1\n      pop\n      jump\t// out\n        /* \"#utility.yul\":40198:40339   */\n    tag_550:\n        /* \"#utility.yul\":40247:40251   */\n      0x00\n        /* \"#utility.yul\":40270:40273   */\n      dup2\n        /* \"#utility.yul\":40262:40273   */\n      swap1\n      pop\n        /* \"#utility.yul\":40293:40296   */\n      dup2\n        /* \"#utility.yul\":40290:40291   */\n      0x00\n        /* \"#utility.yul\":40283:40297   */\n      mstore\n        /* \"#utility.yul\":40327:40331   */\n      0x20\n        /* \"#utility.yul\":40324:40325   */\n      0x00\n        /* \"#utility.yul\":40314:40332   */\n      keccak256\n        /* \"#utility.yul\":40306:40332   */\n      swap1\n      pop\n        /* \"#utility.yul\":40198:40339   */\n      swap2\n      swap1\n      pop\n      jump\t// out\n        /* \"#utility.yul\":40345:40459   */\n    tag_488:\n        /* \"#utility.yul\":40412:40418   */\n      0x00\n        /* \"#utility.yul\":40446:40451   */\n      dup2\n        /* \"#utility.yul\":40440:40452   */\n      mload\n        /* \"#utility.yul\":40430:40452   */\n      swap1\n      pop\n        /* \"#utility.yul\":40345:40459   */\n      swap2\n      swap1\n      pop\n      jump\t// out\n        /* \"#utility.yul\":40465:40564   */\n    tag_531:\n        /* \"#utility.yul\":40517:40523   */\n      0x00\n        /* \"#utility.yul\":40551:40556   */\n      dup2\n        /* \"#utility.yul\":40545:40557   */\n      mload\n        /* \"#utility.yul\":40535:40557   */\n      swap1\n      pop\n        /* \"#utility.yul\":40465:40564   */\n      swap2\n      swap1\n      pop\n      jump\t// out\n        /* \"#utility.yul\":40570:40683   */\n    tag_498:\n        /* \"#utility.yul\":40640:40644   */\n      0x00\n        /* \"#utility.yul\":40672:40676   */\n      0x20\n        /* \"#utility.yul\":40667:40670   */\n      dup3\n        /* \"#utility.yul\":40663:40677   */\n      add\n        /* \"#utility.yul\":40655:40677   */\n      swap1\n      pop\n        /* \"#utility.yul\":40570:40683   */\n      swap2\n      swap1\n      pop\n      jump\t// out\n        /* \"#utility.yul\":40689:40816   */\n    tag_512:\n        /* \"#utility.yul\":40773:40777   */\n      0x00\n        /* \"#utility.yul\":40805:40809   */\n      0x20\n        /* \"#utility.yul\":40800:40803   */\n      dup3\n        /* \"#utility.yul\":40796:40810   */\n      add\n        /* \"#utility.yul\":40788:40810   */\n      swap1\n      pop\n        /* \"#utility.yul\":40689:40816   */\n      swap2\n      swap1\n      pop\n      jump\t// out\n        /* \"#utility.yul\":40822:41006   */\n    tag_490:\n        /* \"#utility.yul\":40921:40932   */\n      0x00\n        /* \"#utility.yul\":40955:40961   */\n      dup3\n        /* \"#utility.yul\":40950:40953   */\n      dup3\n        /* \"#utility.yul\":40943:40962   */\n      mstore\n        /* \"#utility.yul\":40995:40999   */\n      0x20\n        /* \"#utility.yul\":40990:40993   */\n      dup3\n        /* \"#utility.yul\":40986:41000   */\n      add\n        /* \"#utility.yul\":40971:41000   */\n      swap1\n      pop\n        /* \"#utility.yul\":40822:41006   */\n      swap3\n      swap2\n      pop\n      pop\n      jump\t// out\n        /* \"#utility.yul\":41012:41206   */\n    tag_502:\n        /* \"#utility.yul\":41121:41132   */\n      0x00\n        /* \"#utility.yul\":41155:41161   */\n      dup3\n        /* \"#utility.yul\":41150:41153   */\n      dup3\n        /* \"#utility.yul\":41143:41162   */\n      mstore\n        /* \"#utility.yul\":41195:41199   */\n      0x20\n        /* \"#utility.yul\":41190:41193   */\n      dup3\n        /* \"#utility.yul\":41186:41200   */\n      add\n        /* \"#utility.yul\":41171:41200   */\n      swap1\n      pop\n        /* \"#utility.yul\":41012:41206   */\n      swap3\n      swap2\n      pop\n      pop\n      jump\t// out\n        /* \"#utility.yul\":41212:41371   */\n    tag_519:\n        /* \"#utility.yul\":41286:41297   */\n      0x00\n        /* \"#utility.yul\":41320:41326   */\n      dup3\n        /* \"#utility.yul\":41315:41318   */\n      dup3\n        /* \"#utility.yul\":41308:41327   */\n      mstore\n        /* \"#utility.yul\":41360:41364   */\n      0x20\n        /* \"#utility.yul\":41355:41358   */\n      dup3\n        /* \"#utility.yul\":41351:41365   */\n      add\n        /* \"#utility.yul\":41336:41365   */\n      swap1\n      pop\n        /* \"#utility.yul\":41212:41371   */\n      swap3\n      swap2\n      pop\n      pop\n      jump\t// out\n        /* \"#utility.yul\":41377:41546   */\n    tag_533:\n        /* \"#utility.yul\":41461:41472   */\n      0x00\n        /* \"#utility.yul\":41495:41501   */\n      dup3\n        /* \"#utility.yul\":41490:41493   */\n      dup3\n        /* \"#utility.yul\":41483:41502   */\n      mstore\n        /* \"#utility.yul\":41535:41539   */\n      0x20\n        /* \"#utility.yul\":41530:41533   */\n      dup3\n        /* \"#utility.yul\":41526:41540   */\n      add\n        /* \"#utility.yul\":41511:41540   */\n      swap1\n      pop\n        /* \"#utility.yul\":41377:41546   */\n      swap3\n      swap2\n      pop\n      pop\n      jump\t// out\n        /* \"#utility.yul\":41552:41700   */\n    tag_526:\n        /* \"#utility.yul\":41654:41665   */\n      0x00\n        /* \"#utility.yul\":41691:41694   */\n      dup2\n        /* \"#utility.yul\":41676:41694   */\n      swap1\n      pop\n        /* \"#utility.yul\":41552:41700   */\n      swap3\n      swap2\n      pop\n      pop\n      jump\t// out\n        /* \"#utility.yul\":41706:42421   */\n    tag_509:\n        /* \"#utility.yul\":41771:41776   */\n      0x00\n        /* \"#utility.yul\":41778:41784   */\n      dup1\n        /* \"#utility.yul\":41834:41837   */\n      dup4\n        /* \"#utility.yul\":41821:41838   */\n      calldataload\n        /* \"#utility.yul\":41926:41927   */\n      0x01\n        /* \"#utility.yul\":41920:41924   */\n      0x20\n        /* \"#utility.yul\":41916:41928   */\n      sub\n        /* \"#utility.yul\":41905:41913   */\n      dup5\n        /* \"#utility.yul\":41889:41903   */\n      calldatasize\n        /* \"#utility.yul\":41885:41914   */\n      sub\n        /* \"#utility.yul\":41881:41929   */\n      sub\n        /* \"#utility.yul\":41861:41879   */\n      dup2\n        /* \"#utility.yul\":41857:41930   */\n      slt\n        /* \"#utility.yul\":41847:42015   */\n      tag_798\n      jumpi\n        /* \"#utility.yul\":41934:42013   */\n      tag_799\n      tag_800\n      jump\t// in\n    tag_799:\n        /* \"#utility.yul\":41847:42015   */\n    tag_798:\n        /* \"#utility.yul\":42057:42065   */\n      dup4\n        /* \"#utility.yul\":42037:42055   */\n      dup2\n        /* \"#utility.yul\":42033:42066   */\n      add\n        /* \"#utility.yul\":42024:42066   */\n      swap3\n      pop\n        /* \"#utility.yul\":42099:42104   */\n      dup3\n        /* \"#utility.yul\":42086:42105   */\n      calldataload\n        /* \"#utility.yul\":42076:42105   */\n      swap2\n      pop\n        /* \"#utility.yul\":42134:42138   */\n      0x20\n        /* \"#utility.yul\":42127:42132   */\n      dup4\n        /* \"#utility.yul\":42123:42139   */\n      add\n        /* \"#utility.yul\":42114:42139   */\n      swap3\n      pop\n        /* \"#utility.yul\":42162:42180   */\n      0xffffffffffffffff\n        /* \"#utility.yul\":42154:42160   */\n      dup3\n        /* \"#utility.yul\":42151:42181   */\n      gt\n        /* \"#utility.yul\":42148:42265   */\n      iszero\n      tag_801\n      jumpi\n        /* \"#utility.yul\":42184:42263   */\n      tag_802\n      tag_803\n      jump\t// in\n    tag_802:\n        /* \"#utility.yul\":42148:42265   */\n    tag_801:\n        /* \"#utility.yul\":42323:42327   */\n      0x01\n        /* \"#utility.yul\":42315:42321   */\n      dup3\n        /* \"#utility.yul\":42311:42328   */\n      mul\n        /* \"#utility.yul\":42295:42309   */\n      calldatasize\n        /* \"#utility.yul\":42291:42329   */\n      sub\n        /* \"#utility.yul\":42281:42289   */\n      dup5\n        /* \"#utility.yul\":42277:42330   */\n      sgt\n        /* \"#utility.yul\":42274:42414   */\n      iszero\n      tag_804\n      jumpi\n        /* \"#utility.yul\":42333:42412   */\n      tag_805\n      tag_806\n      jump\t// in\n    tag_805:\n        /* \"#utility.yul\":42274:42414   */\n    tag_804:\n        /* \"#utility.yul\":41785:42421   */\n      pop\n        /* \"#utility.yul\":41706:42421   */\n      swap3\n      pop\n      swap3\n      swap1\n      pop\n      jump\t// out\n        /* \"#utility.yul\":42427:42669   */\n    tag_274:\n        /* \"#utility.yul\":42466:42469   */\n      0x00\n        /* \"#utility.yul\":42485:42504   */\n      tag_808\n        /* \"#utility.yul\":42502:42503   */\n      dup3\n        /* \"#utility.yul\":42485:42504   */\n      tag_661\n      jump\t// in\n    tag_808:\n        /* \"#utility.yul\":42480:42504   */\n      swap2\n      pop\n        /* \"#utility.yul\":42518:42537   */\n      tag_809\n        /* \"#utility.yul\":42535:42536   */\n      dup4\n        /* \"#utility.yul\":42518:42537   */\n      tag_661\n      jump\t// in\n    tag_809:\n        /* \"#utility.yul\":42513:42537   */\n      swap3\n      pop\n        /* \"#utility.yul\":42611:42612   */\n      dup3\n        /* \"#utility.yul\":42603:42609   */\n      0xffff\n        /* \"#utility.yul\":42599:42613   */\n      sub\n        /* \"#utility.yul\":42596:42597   */\n      dup3\n        /* \"#utility.yul\":42593:42614   */\n      gt\n        /* \"#utility.yul\":42590:42637   */\n      iszero\n      tag_810\n      jumpi\n        /* \"#utility.yul\":42617:42635   */\n      tag_811\n      tag_812\n      jump\t// in\n    tag_811:\n        /* \"#utility.yul\":42590:42637   */\n    tag_810:\n        /* \"#utility.yul\":42661:42662   */\n      dup3\n        /* \"#utility.yul\":42658:42659   */\n      dup3\n        /* \"#utility.yul\":42654:42663   */\n      add\n        /* \"#utility.yul\":42647:42663   */\n      swap1\n      pop\n        /* \"#utility.yul\":42427:42669   */\n      swap3\n      swap2\n      pop\n      pop\n      jump\t// out\n        /* \"#utility.yul\":42675:42980   */\n    tag_149:\n        /* \"#utility.yul\":42715:42718   */\n      0x00\n        /* \"#utility.yul\":42734:42754   */\n      tag_814\n        /* \"#utility.yul\":42752:42753   */\n      dup3\n        /* \"#utility.yul\":42734:42754   */\n      tag_665\n      jump\t// in\n    tag_814:\n        /* \"#utility.yul\":42729:42754   */\n      swap2\n      pop\n        /* \"#utility.yul\":42768:42788   */\n      tag_815\n        /* \"#utility.yul\":42786:42787   */\n      dup4\n        /* \"#utility.yul\":42768:42788   */\n      tag_665\n      jump\t// in\n    tag_815:\n        /* \"#utility.yul\":42763:42788   */\n      swap3\n      pop\n        /* \"#utility.yul\":42922:42923   */\n      dup3\n        /* \"#utility.yul\":42854:42920   */\n      0xffffffffffffffffffffffffffffffffffffffffffffffffffffffffffffffff\n        /* \"#utility.yul\":42850:42924   */\n      sub\n        /* \"#utility.yul\":42847:42848   */\n      dup3\n        /* \"#utility.yul\":42844:42925   */\n      gt\n        /* \"#utility.yul\":42841:42948   */\n      iszero\n      tag_816\n      jumpi\n        /* \"#utility.yul\":42928:42946   */\n      tag_817\n      tag_812\n      jump\t// in\n    tag_817:\n        /* \"#utility.yul\":42841:42948   */\n    tag_816:\n        /* \"#utility.yul\":42972:42973   */\n      dup3\n        /* \"#utility.yul\":42969:42970   */\n      dup3\n        /* \"#utility.yul\":42965:42974   */\n      add\n        /* \"#utility.yul\":42958:42974   */\n      swap1\n      pop\n        /* \"#utility.yul\":42675:42980   */\n      swap3\n      swap2\n      pop\n      pop\n      jump\t// out\n        /* \"#utility.yul\":42986:43334   */\n    tag_147:\n        /* \"#utility.yul\":43026:43033   */\n      0x00\n        /* \"#utility.yul\":43049:43069   */\n      tag_819\n        /* \"#utility.yul\":43067:43068   */\n      dup3\n        /* \"#utility.yul\":43049:43069   */\n      tag_665\n      jump\t// in\n    tag_819:\n        /* \"#utility.yul\":43044:43069   */\n      swap2\n      pop\n        /* \"#utility.yul\":43083:43103   */\n      tag_820\n        /* \"#utility.yul\":43101:43102   */\n      dup4\n        /* \"#utility.yul\":43083:43103   */\n      tag_665\n      jump\t// in\n    tag_820:\n        /* \"#utility.yul\":43078:43103   */\n      swap3\n      pop\n        /* \"#utility.yul\":43271:43272   */\n      dup2\n        /* \"#utility.yul\":43203:43269   */\n      0xffffffffffffffffffffffffffffffffffffffffffffffffffffffffffffffff\n        /* \"#utility.yul\":43199:43273   */\n      div\n        /* \"#utility.yul\":43196:43197   */\n      dup4\n        /* \"#utility.yul\":43193:43274   */\n      gt\n        /* \"#utility.yul\":43188:43189   */\n      dup3\n        /* \"#utility.yul\":43181:43190   */\n      iszero\n        /* \"#utility.yul\":43174:43191   */\n      iszero\n        /* \"#utility.yul\":43170:43275   */\n      and\n        /* \"#utility.yul\":43167:43298   */\n      iszero\n      tag_821\n      jumpi\n        /* \"#utility.yul\":43278:43296   */\n      tag_822\n      tag_812\n      jump\t// in\n    tag_822:\n        /* \"#utility.yul\":43167:43298   */\n    tag_821:\n        /* \"#utility.yul\":43326:43327   */\n      dup3\n        /* \"#utility.yul\":43323:43324   */\n      dup3\n        /* \"#utility.yul\":43319:43328   */\n      mul\n        /* \"#utility.yul\":43308:43328   */\n      swap1\n      pop\n        /* \"#utility.yul\":42986:43334   */\n      swap3\n      swap2\n      pop\n      pop\n      jump\t// out\n        /* \"#utility.yul\":43340:43531   */\n    tag_305:\n        /* \"#utility.yul\":43380:43384   */\n      0x00\n        /* \"#utility.yul\":43400:43420   */\n      tag_824\n        /* \"#utility.yul\":43418:43419   */\n      dup3\n        /* \"#utility.yul\":43400:43420   */\n      tag_665\n      jump\t// in\n    tag_824:\n        /* \"#utility.yul\":43395:43420   */\n      swap2\n      pop\n        /* \"#utility.yul\":43434:43454   */\n      tag_825\n        /* \"#utility.yul\":43452:43453   */\n      dup4\n        /* \"#utility.yul\":43434:43454   */\n      tag_665\n      jump\t// in\n    tag_825:\n        /* \"#utility.yul\":43429:43454   */\n      swap3\n      pop\n        /* \"#utility.yul\":43473:43474   */\n      dup3\n        /* \"#utility.yul\":43470:43471   */\n      dup3\n        /* \"#utility.yul\":43467:43475   */\n      lt\n        /* \"#utility.yul\":43464:43498   */\n      iszero\n      tag_826\n      jumpi\n        /* \"#utility.yul\":43478:43496   */\n      tag_827\n      tag_812\n      jump\t// in\n    tag_827:\n        /* \"#utility.yul\":43464:43498   */\n    tag_826:\n        /* \"#utility.yul\":43523:43524   */\n      dup3\n        /* \"#utility.yul\":43520:43521   */\n      dup3\n        /* \"#utility.yul\":43516:43525   */\n      sub\n        /* \"#utility.yul\":43508:43525   */\n      swap1\n      pop\n        /* \"#utility.yul\":43340:43531   */\n      swap3\n      swap2\n      pop\n      pop\n      jump\t// out\n        /* \"#utility.yul\":43537:43633   */\n    tag_481:\n        /* \"#utility.yul\":43574:43581   */\n      0x00\n        /* \"#utility.yul\":43603:43627   */\n      tag_829\n        /* \"#utility.yul\":43621:43626   */\n      dup3\n        /* \"#utility.yul\":43603:43627   */\n      tag_830\n      jump\t// in\n    tag_829:\n        /* \"#utility.yul\":43592:43627   */\n      swap1\n      pop\n        /* \"#utility.yul\":43537:43633   */\n      swap2\n      swap1\n      pop\n      jump\t// out\n        /* \"#utility.yul\":43639:43729   */\n    tag_516:\n        /* \"#utility.yul\":43673:43680   */\n      0x00\n        /* \"#utility.yul\":43716:43721   */\n      dup2\n        /* \"#utility.yul\":43709:43722   */\n      iszero\n        /* \"#utility.yul\":43702:43723   */\n      iszero\n        /* \"#utility.yul\":43691:43723   */\n      swap1\n      pop\n        /* \"#utility.yul\":43639:43729   */\n      swap2\n      swap1\n      pop\n      jump\t// out\n        /* \"#utility.yul\":43735:43853   */\n    tag_657:\n        /* \"#utility.yul\":43772:43779   */\n      0x00\n        /* \"#utility.yul\":43812:43846   */\n      0xffffffffffffffffffffffffffffffff\n        /* \"#utility.yul\":43805:43810   */\n      dup3\n        /* \"#utility.yul\":43801:43847   */\n      and\n        /* \"#utility.yul\":43790:43847   */\n      swap1\n      pop\n        /* \"#utility.yul\":43735:43853   */\n      swap2\n      swap1\n      pop\n      jump\t// out\n        /* \"#utility.yul\":43859:43948   */\n    tag_661:\n        /* \"#utility.yul\":43895:43902   */\n      0x00\n        /* \"#utility.yul\":43935:43941   */\n      0xffff\n        /* \"#utility.yul\":43928:43933   */\n      dup3\n        /* \"#utility.yul\":43924:43942   */\n      and\n        /* \"#utility.yul\":43913:43942   */\n      swap1\n      pop\n        /* \"#utility.yul\":43859:43948   */\n      swap2\n      swap1\n      pop\n      jump\t// out\n        /* \"#utility.yul\":43954:44080   */\n    tag_830:\n        /* \"#utility.yul\":43991:43998   */\n      0x00\n        /* \"#utility.yul\":44031:44073   */\n      0xffffffffffffffffffffffffffffffffffffffff\n        /* \"#utility.yul\":44024:44029   */\n      dup3\n        /* \"#utility.yul\":44020:44074   */\n      and\n        /* \"#utility.yul\":44009:44074   */\n      swap1\n      pop\n        /* \"#utility.yul\":43954:44080   */\n      swap2\n      swap1\n      pop\n      jump\t// out\n        /* \"#utility.yul\":44086:44163   */\n    tag_665:\n        /* \"#utility.yul\":44123:44130   */\n      0x00\n        /* \"#utility.yul\":44152:44157   */\n      dup2\n        /* \"#utility.yul\":44141:44157   */\n      swap1\n      pop\n        /* \"#utility.yul\":44086:44163   */\n      swap2\n      swap1\n      pop\n      jump\t// out\n        /* \"#utility.yul\":44169:44255   */\n    tag_669:\n        /* \"#utility.yul\":44204:44211   */\n      0x00\n        /* \"#utility.yul\":44244:44248   */\n      0xff\n        /* \"#utility.yul\":44237:44242   */\n      dup3\n        /* \"#utility.yul\":44233:44249   */\n      and\n        /* \"#utility.yul\":44222:44249   */\n      swap1\n      pop\n        /* \"#utility.yul\":44169:44255   */\n      swap2\n      swap1\n      pop\n      jump\t// out\n        /* \"#utility.yul\":44261:44415   */\n    tag_382:\n        /* \"#utility.yul\":44345:44351   */\n      dup3\n        /* \"#utility.yul\":44340:44343   */\n      dup2\n        /* \"#utility.yul\":44335:44338   */\n      dup4\n        /* \"#utility.yul\":44322:44352   */\n      calldatacopy\n        /* \"#utility.yul\":44407:44408   */\n      0x00\n        /* \"#utility.yul\":44398:44404   */\n      dup4\n        /* \"#utility.yul\":44393:44396   */\n      dup4\n        /* \"#utility.yul\":44389:44405   */\n      add\n        /* \"#utility.yul\":44382:44409   */\n      mstore\n        /* \"#utility.yul\":44261:44415   */\n      pop\n      pop\n      pop\n      jump\t// out\n        /* \"#utility.yul\":44421:44728   */\n    tag_535:\n        /* \"#utility.yul\":44489:44490   */\n      0x00\n        /* \"#utility.yul\":44499:44612   */\n    tag_839:\n        /* \"#utility.yul\":44513:44519   */\n      dup4\n        /* \"#utility.yul\":44510:44511   */\n      dup2\n        /* \"#utility.yul\":44507:44520   */\n      lt\n        /* \"#utility.yul\":44499:44612   */\n      iszero\n      tag_841\n      jumpi\n        /* \"#utility.yul\":44598:44599   */\n      dup1\n        /* \"#utility.yul\":44593:44596   */\n      dup3\n        /* \"#utility.yul\":44589:44600   */\n      add\n        /* \"#utility.yul\":44583:44601   */\n      mload\n        /* \"#utility.yul\":44579:44580   */\n      dup2\n        /* \"#utility.yul\":44574:44577   */\n      dup5\n        /* \"#utility.yul\":44570:44581   */\n      add\n        /* \"#utility.yul\":44563:44602   */\n      mstore\n        /* \"#utility.yul\":44535:44537   */\n      0x20\n        /* \"#utility.yul\":44532:44533   */\n      dup2\n        /* \"#utility.yul\":44528:44538   */\n      add\n        /* \"#utility.yul\":44523:44538   */\n      swap1\n      pop\n        /* \"#utility.yul\":44499:44612   */\n      jump(tag_839)\n    tag_841:\n        /* \"#utility.yul\":44630:44636   */\n      dup4\n        /* \"#utility.yul\":44627:44628   */\n      dup2\n        /* \"#utility.yul\":44624:44637   */\n      gt\n        /* \"#utility.yul\":44621:44722   */\n      iszero\n      tag_842\n      jumpi\n        /* \"#utility.yul\":44710:44711   */\n      0x00\n        /* \"#utility.yul\":44701:44707   */\n      dup5\n        /* \"#utility.yul\":44696:44699   */\n      dup5\n        /* \"#utility.yul\":44692:44708   */\n      add\n        /* \"#utility.yul\":44685:44712   */\n      mstore\n        /* \"#utility.yul\":44621:44722   */\n    tag_842:\n        /* \"#utility.yul\":44470:44728   */\n      pop\n        /* \"#utility.yul\":44421:44728   */\n      pop\n      pop\n      pop\n      jump\t// out\n        /* \"#utility.yul\":44734:45054   */\n    tag_73:\n        /* \"#utility.yul\":44778:44784   */\n      0x00\n        /* \"#utility.yul\":44815:44816   */\n      0x02\n        /* \"#utility.yul\":44809:44813   */\n      dup3\n        /* \"#utility.yul\":44805:44817   */\n      div\n        /* \"#utility.yul\":44795:44817   */\n      swap1\n      pop\n        /* \"#utility.yul\":44862:44863   */\n      0x01\n        /* \"#utility.yul\":44856:44860   */\n      dup3\n        /* \"#utility.yul\":44852:44864   */\n      and\n        /* \"#utility.yul\":44883:44901   */\n      dup1\n        /* \"#utility.yul\":44873:44954   */\n      tag_844\n      jumpi\n        /* \"#utility.yul\":44939:44943   */\n      0x7f\n        /* \"#utility.yul\":44931:44937   */\n      dup3\n        /* \"#utility.yul\":44927:44944   */\n      and\n        /* \"#utility.yul\":44917:44944   */\n      swap2\n      pop\n        /* \"#utility.yul\":44873:44954   */\n    tag_844:\n        /* \"#utility.yul\":45001:45003   */\n      0x20\n        /* \"#utility.yul\":44993:44999   */\n      dup3\n        /* \"#utility.yul\":44990:45004   */\n      lt\n        /* \"#utility.yul\":44970:44988   */\n      dup2\n        /* \"#utility.yul\":44967:45005   */\n      eq\n        /* \"#utility.yul\":44964:45048   */\n      iszero\n      tag_845\n      jumpi\n        /* \"#utility.yul\":45020:45038   */\n      tag_846\n      tag_847\n      jump\t// in\n    tag_846:\n        /* \"#utility.yul\":44964:45048   */\n    tag_845:\n        /* \"#utility.yul\":44785:45054   */\n      pop\n        /* \"#utility.yul\":44734:45054   */\n      swap2\n      swap1\n      pop\n      jump\t// out\n        /* \"#utility.yul\":45060:45341   */\n    tag_769:\n        /* \"#utility.yul\":45143:45170   */\n      tag_849\n        /* \"#utility.yul\":45165:45169   */\n      dup3\n        /* \"#utility.yul\":45143:45170   */\n      tag_522\n      jump\t// in\n    tag_849:\n        /* \"#utility.yul\":45135:45141   */\n      dup2\n        /* \"#utility.yul\":45131:45171   */\n      add\n        /* \"#utility.yul\":45273:45279   */\n      dup2\n        /* \"#utility.yul\":45261:45271   */\n      dup2\n        /* \"#utility.yul\":45258:45280   */\n      lt\n        /* \"#utility.yul\":45237:45255   */\n      0xffffffffffffffff\n        /* \"#utility.yul\":45225:45235   */\n      dup3\n        /* \"#utility.yul\":45222:45256   */\n      gt\n        /* \"#utility.yul\":45219:45281   */\n      or\n        /* \"#utility.yul\":45216:45304   */\n      iszero\n      tag_850\n      jumpi\n        /* \"#utility.yul\":45284:45302   */\n      tag_851\n      tag_774\n      jump\t// in\n    tag_851:\n        /* \"#utility.yul\":45216:45304   */\n    tag_850:\n        /* \"#utility.yul\":45324:45334   */\n      dup1\n        /* \"#utility.yul\":45320:45322   */\n      0x40\n        /* \"#utility.yul\":45313:45335   */\n      mstore\n        /* \"#utility.yul\":45103:45341   */\n      pop\n        /* \"#utility.yul\":45060:45341   */\n      pop\n      pop\n      jump\t// out\n        /* \"#utility.yul\":45347:45548   */\n    tag_218:\n        /* \"#utility.yul\":45386:45389   */\n      0x00\n        /* \"#utility.yul\":45409:45433   */\n      tag_853\n        /* \"#utility.yul\":45427:45432   */\n      dup3\n        /* \"#utility.yul\":45409:45433   */\n      tag_657\n      jump\t// in\n    tag_853:\n        /* \"#utility.yul\":45400:45433   */\n      swap2\n      pop\n        /* \"#utility.yul\":45455:45489   */\n      0xffffffffffffffffffffffffffffffff\n        /* \"#utility.yul\":45448:45453   */\n      dup3\n        /* \"#utility.yul\":45445:45490   */\n      eq\n        /* \"#utility.yul\":45442:45513   */\n      iszero\n      tag_854\n      jumpi\n        /* \"#utility.yul\":45493:45511   */\n      tag_855\n      tag_812\n      jump\t// in\n    tag_855:\n        /* \"#utility.yul\":45442:45513   */\n    tag_854:\n        /* \"#utility.yul\":45540:45541   */\n      0x01\n        /* \"#utility.yul\":45533:45538   */\n      dup3\n        /* \"#utility.yul\":45529:45542   */\n      add\n        /* \"#utility.yul\":45522:45542   */\n      swap1\n      pop\n        /* \"#utility.yul\":45347:45548   */\n      swap2\n      swap1\n      pop\n      jump\t// out\n        /* \"#utility.yul\":45554:45725   */\n    tag_246:\n        /* \"#utility.yul\":45592:45595   */\n      0x00\n        /* \"#utility.yul\":45615:45638   */\n      tag_857\n        /* \"#utility.yul\":45632:45637   */\n      dup3\n        /* \"#utility.yul\":45615:45638   */\n      tag_661\n      jump\t// in\n    tag_857:\n        /* \"#utility.yul\":45606:45638   */\n      swap2\n      pop\n        /* \"#utility.yul\":45660:45666   */\n      0xffff\n        /* \"#utility.yul\":45653:45658   */\n      dup3\n        /* \"#utility.yul\":45650:45667   */\n      eq\n        /* \"#utility.yul\":45647:45690   */\n      iszero\n      tag_858\n      jumpi\n        /* \"#utility.yul\":45670:45688   */\n      tag_859\n      tag_812\n      jump\t// in\n    tag_859:\n        /* \"#utility.yul\":45647:45690   */\n    tag_858:\n        /* \"#utility.yul\":45717:45718   */\n      0x01\n        /* \"#utility.yul\":45710:45715   */\n      dup3\n        /* \"#utility.yul\":45706:45719   */\n      add\n        /* \"#utility.yul\":45699:45719   */\n      swap1\n      pop\n        /* \"#utility.yul\":45554:45725   */\n      swap2\n      swap1\n      pop\n      jump\t// out\n        /* \"#utility.yul\":45731:45964   */\n    tag_98:\n        /* \"#utility.yul\":45770:45773   */\n      0x00\n        /* \"#utility.yul\":45793:45817   */\n      tag_861\n        /* \"#utility.yul\":45811:45816   */\n      dup3\n        /* \"#utility.yul\":45793:45817   */\n      tag_665\n      jump\t// in\n    tag_861:\n        /* \"#utility.yul\":45784:45817   */\n      swap2\n      pop\n        /* \"#utility.yul\":45839:45905   */\n      0xffffffffffffffffffffffffffffffffffffffffffffffffffffffffffffffff\n        /* \"#utility.yul\":45832:45837   */\n      dup3\n        /* \"#utility.yul\":45829:45906   */\n      eq\n        /* \"#utility.yul\":45826:45929   */\n      iszero\n      tag_862\n      jumpi\n        /* \"#utility.yul\":45909:45927   */\n      tag_863\n      tag_812\n      jump\t// in\n    tag_863:\n        /* \"#utility.yul\":45826:45929   */\n    tag_862:\n        /* \"#utility.yul\":45956:45957   */\n      0x01\n        /* \"#utility.yul\":45949:45954   */\n      dup3\n        /* \"#utility.yul\":45945:45958   */\n      add\n        /* \"#utility.yul\":45938:45958   */\n      swap1\n      pop\n        /* \"#utility.yul\":45731:45964   */\n      swap2\n      swap1\n      pop\n      jump\t// out\n        /* \"#utility.yul\":45970:46150   */\n    tag_812:\n        /* \"#utility.yul\":46018:46095   */\n      0x4e487b7100000000000000000000000000000000000000000000000000000000\n        /* \"#utility.yul\":46015:46016   */\n      0x00\n        /* \"#utility.yul\":46008:46096   */\n      mstore\n        /* \"#utility.yul\":46115:46119   */\n      0x11\n        /* \"#utility.yul\":46112:46113   */\n      0x04\n        /* \"#utility.yul\":46105:46120   */\n      mstore\n        /* \"#utility.yul\":46139:46143   */\n      0x24\n        /* \"#utility.yul\":46136:46137   */\n      0x00\n        /* \"#utility.yul\":46129:46144   */\n      revert\n        /* \"#utility.yul\":46156:46336   */\n    tag_847:\n        /* \"#utility.yul\":46204:46281   */\n      0x4e487b7100000000000000000000000000000000000000000000000000000000\n        /* \"#utility.yul\":46201:46202   */\n      0x00\n        /* \"#utility.yul\":46194:46282   */\n      mstore\n        /* \"#utility.yul\":46301:46305   */\n      0x22\n        /* \"#utility.yul\":46298:46299   */\n      0x04\n        /* \"#utility.yul\":46291:46306   */\n      mstore\n        /* \"#utility.yul\":46325:46329   */\n      0x24\n        /* \"#utility.yul\":46322:46323   */\n      0x00\n        /* \"#utility.yul\":46315:46330   */\n      revert\n        /* \"#utility.yul\":46342:46522   */\n    tag_109:\n        /* \"#utility.yul\":46390:46467   */\n      0x4e487b7100000000000000000000000000000000000000000000000000000000\n        /* \"#utility.yul\":46387:46388   */\n      0x00\n        /* \"#utility.yul\":46380:46468   */\n      mstore\n        /* \"#utility.yul\":46487:46491   */\n      0x32\n        /* \"#utility.yul\":46484:46485   */\n      0x04\n        /* \"#utility.yul\":46477:46492   */\n      mstore\n        /* \"#utility.yul\":46511:46515   */\n      0x24\n        /* \"#utility.yul\":46508:46509   */\n      0x00\n        /* \"#utility.yul\":46501:46516   */\n      revert\n        /* \"#utility.yul\":46528:46708   */\n    tag_774:\n        /* \"#utility.yul\":46576:46653   */\n      0x4e487b7100000000000000000000000000000000000000000000000000000000\n        /* \"#utility.yul\":46573:46574   */\n      0x00\n        /* \"#utility.yul\":46566:46654   */\n      mstore\n        /* \"#utility.yul\":46673:46677   */\n      0x41\n        /* \"#utility.yul\":46670:46671   */\n      0x04\n        /* \"#utility.yul\":46663:46678   */\n      mstore\n        /* \"#utility.yul\":46697:46701   */\n      0x24\n        /* \"#utility.yul\":46694:46695   */\n      0x00\n        /* \"#utility.yul\":46687:46702   */\n      revert\n        /* \"#utility.yul\":46714:46831   */\n    tag_803:\n        /* \"#utility.yul\":46823:46824   */\n      0x00\n        /* \"#utility.yul\":46820:46821   */\n      dup1\n        /* \"#utility.yul\":46813:46825   */\n      revert\n        /* \"#utility.yul\":46837:46954   */\n    tag_397:\n        /* \"#utility.yul\":46946:46947   */\n      0x00\n        /* \"#utility.yul\":46943:46944   */\n      dup1\n        /* \"#utility.yul\":46936:46948   */\n      revert\n        /* \"#utility.yul\":46960:47077   */\n    tag_358:\n        /* \"#utility.yul\":47069:47070   */\n      0x00\n        /* \"#utility.yul\":47066:47067   */\n      dup1\n        /* \"#utility.yul\":47059:47071   */\n      revert\n        /* \"#utility.yul\":47083:47200   */\n    tag_761:\n        /* \"#utility.yul\":47192:47193   */\n      0x00\n        /* \"#utility.yul\":47189:47190   */\n      dup1\n        /* \"#utility.yul\":47182:47194   */\n      revert\n        /* \"#utility.yul\":47206:47323   */\n    tag_758:\n        /* \"#utility.yul\":47315:47316   */\n      0x00\n        /* \"#utility.yul\":47312:47313   */\n      dup1\n        /* \"#utility.yul\":47305:47317   */\n      revert\n        /* \"#utility.yul\":47329:47446   */\n    tag_806:\n        /* \"#utility.yul\":47438:47439   */\n      0x00\n        /* \"#utility.yul\":47435:47436   */\n      dup1\n        /* \"#utility.yul\":47428:47440   */\n      revert\n        /* \"#utility.yul\":47452:47569   */\n    tag_340:\n        /* \"#utility.yul\":47561:47562   */\n      0x00\n        /* \"#utility.yul\":47558:47559   */\n      dup1\n        /* \"#utility.yul\":47551:47563   */\n      revert\n        /* \"#utility.yul\":47575:47692   */\n    tag_764:\n        /* \"#utility.yul\":47684:47685   */\n      0x00\n        /* \"#utility.yul\":47681:47682   */\n      dup1\n        /* \"#utility.yul\":47674:47686   */\n      revert\n        /* \"#utility.yul\":47698:47815   */\n    tag_380:\n        /* \"#utility.yul\":47807:47808   */\n      0x00\n        /* \"#utility.yul\":47804:47805   */\n      dup1\n        /* \"#utility.yul\":47797:47809   */\n      revert\n        /* \"#utility.yul\":47821:47938   */\n    tag_442:\n        /* \"#utility.yul\":47930:47931   */\n      0x00\n        /* \"#utility.yul\":47927:47928   */\n      dup1\n        /* \"#utility.yul\":47920:47932   */\n      revert\n        /* \"#utility.yul\":47944:48061   */\n    tag_800:\n        /* \"#utility.yul\":48053:48054   */\n      0x00\n        /* \"#utility.yul\":48050:48051   */\n      dup1\n        /* \"#utility.yul\":48043:48055   */\n      revert\n        /* \"#utility.yul\":48067:48184   */\n    tag_424:\n        /* \"#utility.yul\":48176:48177   */\n      0x00\n        /* \"#utility.yul\":48173:48174   */\n      dup1\n        /* \"#utility.yul\":48166:48178   */\n      revert\n        /* \"#utility.yul\":48190:48292   */\n    tag_522:\n        /* \"#utility.yul\":48231:48237   */\n      0x00\n        /* \"#utility.yul\":48282:48284   */\n      0x1f\n        /* \"#utility.yul\":48278:48285   */\n      not\n        /* \"#utility.yul\":48273:48275   */\n      0x1f\n        /* \"#utility.yul\":48266:48271   */\n      dup4\n        /* \"#utility.yul\":48262:48276   */\n      add\n        /* \"#utility.yul\":48258:48286   */\n      and\n        /* \"#utility.yul\":48248:48286   */\n      swap1\n      pop\n        /* \"#utility.yul\":48190:48292   */\n      swap2\n      swap1\n      pop\n      jump\t// out\n        /* \"#utility.yul\":48298:48466   */\n    tag_558:\n        /* \"#utility.yul\":48438:48458   */\n      0x50726f706f73616c3a20696e6163746976650000000000000000000000000000\n        /* \"#utility.yul\":48434:48435   */\n      0x00\n        /* \"#utility.yul\":48426:48432   */\n      dup3\n        /* \"#utility.yul\":48422:48436   */\n      add\n        /* \"#utility.yul\":48415:48459   */\n      mstore\n        /* \"#utility.yul\":48298:48466   */\n      pop\n      jump\t// out\n        /* \"#utility.yul\":48472:48703   */\n    tag_563:\n        /* \"#utility.yul\":48612:48646   */\n      0x456e642074696d652073686f756c642062652067726561746572207468616e20\n        /* \"#utility.yul\":48608:48609   */\n      0x00\n        /* \"#utility.yul\":48600:48606   */\n      dup3\n        /* \"#utility.yul\":48596:48610   */\n      add\n        /* \"#utility.yul\":48589:48647   */\n      mstore\n        /* \"#utility.yul\":48681:48695   */\n      0x63757272656e742074696d650000000000000000000000000000000000000000\n        /* \"#utility.yul\":48676:48678   */\n      0x20\n        /* \"#utility.yul\":48668:48674   */\n      dup3\n        /* \"#utility.yul\":48664:48679   */\n      add\n        /* \"#utility.yul\":48657:48696   */\n      mstore\n        /* \"#utility.yul\":48472:48703   */\n      pop\n      jump\t// out\n        /* \"#utility.yul\":48709:48930   */\n    tag_568:\n        /* \"#utility.yul\":48849:48883   */\n      0x45524332303a206275726e20616d6f756e7420657863656564732062616c616e\n        /* \"#utility.yul\":48845:48846   */\n      0x00\n        /* \"#utility.yul\":48837:48843   */\n      dup3\n        /* \"#utility.yul\":48833:48847   */\n      add\n        /* \"#utility.yul\":48826:48884   */\n      mstore\n        /* \"#utility.yul\":48918:48922   */\n      0x6365000000000000000000000000000000000000000000000000000000000000\n        /* \"#utility.yul\":48913:48915   */\n      0x20\n        /* \"#utility.yul\":48905:48911   */\n      dup3\n        /* \"#utility.yul\":48901:48916   */\n      add\n        /* \"#utility.yul\":48894:48923   */\n      mstore\n        /* \"#utility.yul\":48709:48930   */\n      pop\n      jump\t// out\n        /* \"#utility.yul\":48936:49099   */\n    tag_573:\n        /* \"#utility.yul\":49076:49091   */\n      0x616c726561647920766f74656400000000000000000000000000000000000000\n        /* \"#utility.yul\":49072:49073   */\n      0x00\n        /* \"#utility.yul\":49064:49070   */\n      dup3\n        /* \"#utility.yul\":49060:49074   */\n      add\n        /* \"#utility.yul\":49053:49092   */\n      mstore\n        /* \"#utility.yul\":48936:49099   */\n      pop\n      jump\t// out\n        /* \"#utility.yul\":49105:49282   */\n    tag_578:\n        /* \"#utility.yul\":49245:49274   */\n      0x50726f706f73616c3a20696e76616c69642063616e6469646174650000000000\n        /* \"#utility.yul\":49241:49242   */\n      0x00\n        /* \"#utility.yul\":49233:49239   */\n      dup3\n        /* \"#utility.yul\":49229:49243   */\n      add\n        /* \"#utility.yul\":49222:49275   */\n      mstore\n        /* \"#utility.yul\":49105:49282   */\n      pop\n      jump\t// out\n        /* \"#utility.yul\":49288:49458   */\n    tag_583:\n        /* \"#utility.yul\":49428:49450   */\n      0x6e6f7420612076616c69642070726f706f73616c000000000000000000000000\n        /* \"#utility.yul\":49424:49425   */\n      0x00\n        /* \"#utility.yul\":49416:49422   */\n      dup3\n        /* \"#utility.yul\":49412:49426   */\n      add\n        /* \"#utility.yul\":49405:49451   */\n      mstore\n        /* \"#utility.yul\":49288:49458   */\n      pop\n      jump\t// out\n        /* \"#utility.yul\":49464:49686   */\n    tag_588:\n        /* \"#utility.yul\":49604:49638   */\n      0x6e6f7420612076616c696420766f74657220666f7220746869732070726f706f\n        /* \"#utility.yul\":49600:49601   */\n      0x00\n        /* \"#utility.yul\":49592:49598   */\n      dup3\n        /* \"#utility.yul\":49588:49602   */\n      add\n        /* \"#utility.yul\":49581:49639   */\n      mstore\n        /* \"#utility.yul\":49673:49678   */\n      0x73616c0000000000000000000000000000000000000000000000000000000000\n        /* \"#utility.yul\":49668:49670   */\n      0x20\n        /* \"#utility.yul\":49660:49666   */\n      dup3\n        /* \"#utility.yul\":49656:49671   */\n      add\n        /* \"#utility.yul\":49649:49679   */\n      mstore\n        /* \"#utility.yul\":49464:49686   */\n      pop\n      jump\t// out\n        /* \"#utility.yul\":49692:49866   */\n    tag_593:\n        /* \"#utility.yul\":49832:49858   */\n      0x70726f706f73616c206e6f742073746172746564207965740000000000000000\n        /* \"#utility.yul\":49828:49829   */\n      0x00\n        /* \"#utility.yul\":49820:49826   */\n      dup3\n        /* \"#utility.yul\":49816:49830   */\n      add\n        /* \"#utility.yul\":49809:49859   */\n      mstore\n        /* \"#utility.yul\":49692:49866   */\n      pop\n      jump\t// out\n        /* \"#utility.yul\":49872:50042   */\n    tag_598:\n        /* \"#utility.yul\":50012:50034   */\n      0x70726f706f73616c206e6f742073746172746564000000000000000000000000\n        /* \"#utility.yul\":50008:50009   */\n      0x00\n        /* \"#utility.yul\":50000:50006   */\n      dup3\n        /* \"#utility.yul\":49996:50010   */\n      add\n        /* \"#utility.yul\":49989:50035   */\n      mstore\n        /* \"#utility.yul\":49872:50042   */\n      pop\n      jump\t// out\n        /* \"#utility.yul\":50048:50270   */\n    tag_603:\n        /* \"#utility.yul\":50188:50222   */\n      0x4e6f7420612076616c696420766f74657220666f7220746869732070726f706f\n        /* \"#utility.yul\":50184:50185   */\n      0x00\n        /* \"#utility.yul\":50176:50182   */\n      dup3\n        /* \"#utility.yul\":50172:50186   */\n      add\n        /* \"#utility.yul\":50165:50223   */\n      mstore\n        /* \"#utility.yul\":50257:50262   */\n      0x73616c0000000000000000000000000000000000000000000000000000000000\n        /* \"#utility.yul\":50252:50254   */\n      0x20\n        /* \"#utility.yul\":50244:50250   */\n      dup3\n        /* \"#utility.yul\":50240:50255   */\n      add\n        /* \"#utility.yul\":50233:50263   */\n      mstore\n        /* \"#utility.yul\":50048:50270   */\n      pop\n      jump\t// out\n        /* \"#utility.yul\":50276:50444   */\n    tag_608:\n        /* \"#utility.yul\":50416:50436   */\n      0x696e76616c69642070726f706f73616c49640000000000000000000000000000\n        /* \"#utility.yul\":50412:50413   */\n      0x00\n        /* \"#utility.yul\":50404:50410   */\n      dup3\n        /* \"#utility.yul\":50400:50414   */\n      add\n        /* \"#utility.yul\":50393:50437   */\n      mstore\n        /* \"#utility.yul\":50276:50444   */\n      pop\n      jump\t// out\n        /* \"#utility.yul\":50450:50672   */\n    tag_613:\n        /* \"#utility.yul\":50590:50624   */\n      0x6e6f742073756666696369656e742062616c616e636520746f20636173742076\n        /* \"#utility.yul\":50586:50587   */\n      0x00\n        /* \"#utility.yul\":50578:50584   */\n      dup3\n        /* \"#utility.yul\":50574:50588   */\n      add\n        /* \"#utility.yul\":50567:50625   */\n      mstore\n        /* \"#utility.yul\":50659:50664   */\n      0x6f74650000000000000000000000000000000000000000000000000000000000\n        /* \"#utility.yul\":50654:50656   */\n      0x20\n        /* \"#utility.yul\":50646:50652   */\n      dup3\n        /* \"#utility.yul\":50642:50657   */\n      add\n        /* \"#utility.yul\":50635:50665   */\n      mstore\n        /* \"#utility.yul\":50450:50672   */\n      pop\n      jump\t// out\n        /* \"#utility.yul\":50678:50907   */\n    tag_618:\n        /* \"#utility.yul\":50818:50852   */\n      0x456e642074696d652073686f756c642062652067726561746572207468616e20\n        /* \"#utility.yul\":50814:50815   */\n      0x00\n        /* \"#utility.yul\":50806:50812   */\n      dup3\n        /* \"#utility.yul\":50802:50816   */\n      add\n        /* \"#utility.yul\":50795:50853   */\n      mstore\n        /* \"#utility.yul\":50887:50899   */\n      0x73746172742074696d6500000000000000000000000000000000000000000000\n        /* \"#utility.yul\":50882:50884   */\n      0x20\n        /* \"#utility.yul\":50874:50880   */\n      dup3\n        /* \"#utility.yul\":50870:50885   */\n      add\n        /* \"#utility.yul\":50863:50900   */\n      mstore\n        /* \"#utility.yul\":50678:50907   */\n      pop\n      jump\t// out\n        /* \"#utility.yul\":50913:51133   */\n    tag_623:\n        /* \"#utility.yul\":51053:51087   */\n      0x45524332303a206275726e2066726f6d20746865207a65726f20616464726573\n        /* \"#utility.yul\":51049:51050   */\n      0x00\n        /* \"#utility.yul\":51041:51047   */\n      dup3\n        /* \"#utility.yul\":51037:51051   */\n      add\n        /* \"#utility.yul\":51030:51088   */\n      mstore\n        /* \"#utility.yul\":51122:51125   */\n      0x7300000000000000000000000000000000000000000000000000000000000000\n        /* \"#utility.yul\":51117:51119   */\n      0x20\n        /* \"#utility.yul\":51109:51115   */\n      dup3\n        /* \"#utility.yul\":51105:51120   */\n      add\n        /* \"#utility.yul\":51098:51126   */\n      mstore\n        /* \"#utility.yul\":50913:51133   */\n      pop\n      jump\t// out\n        /* \"#utility.yul\":51139:51362   */\n    tag_628:\n        /* \"#utility.yul\":51279:51313   */\n      0x6e6f7420612076616c6964206c656e677468206f66206861736820726573706f\n        /* \"#utility.yul\":51275:51276   */\n      0x00\n        /* \"#utility.yul\":51267:51273   */\n      dup3\n        /* \"#utility.yul\":51263:51277   */\n      add\n        /* \"#utility.yul\":51256:51314   */\n      mstore\n        /* \"#utility.yul\":51348:51354   */\n      0x6e73652100000000000000000000000000000000000000000000000000000000\n        /* \"#utility.yul\":51343:51345   */\n      0x20\n        /* \"#utility.yul\":51335:51341   */\n      dup3\n        /* \"#utility.yul\":51331:51346   */\n      add\n        /* \"#utility.yul\":51324:51355   */\n      mstore\n        /* \"#utility.yul\":51139:51362   */\n      pop\n      jump\t// out\n        /* \"#utility.yul\":51368:51522   */\n    tag_633:\n        /* \"#utility.yul\":51508:51514   */\n      0x6d696e7400000000000000000000000000000000000000000000000000000000\n        /* \"#utility.yul\":51504:51505   */\n      0x00\n        /* \"#utility.yul\":51496:51502   */\n      dup3\n        /* \"#utility.yul\":51492:51506   */\n      add\n        /* \"#utility.yul\":51485:51515   */\n      mstore\n        /* \"#utility.yul\":51368:51522   */\n      pop\n      jump\t// out\n        /* \"#utility.yul\":51528:51707   */\n    tag_638:\n        /* \"#utility.yul\":51668:51699   */\n      0x496e76616c696420766f74657220666f722070726f706f73616c496421000000\n        /* \"#utility.yul\":51664:51665   */\n      0x00\n        /* \"#utility.yul\":51656:51662   */\n      dup3\n        /* \"#utility.yul\":51652:51666   */\n      add\n        /* \"#utility.yul\":51645:51700   */\n      mstore\n        /* \"#utility.yul\":51528:51707   */\n      pop\n      jump\t// out\n        /* \"#utility.yul\":51713:51867   */\n    tag_643:\n        /* \"#utility.yul\":51853:51859   */\n      0x6275726e00000000000000000000000000000000000000000000000000000000\n        /* \"#utility.yul\":51849:51850   */\n      0x00\n        /* \"#utility.yul\":51841:51847   */\n      dup3\n        /* \"#utility.yul\":51837:51851   */\n      add\n        /* \"#utility.yul\":51830:51860   */\n      mstore\n        /* \"#utility.yul\":51713:51867   */\n      pop\n      jump\t// out\n        /* \"#utility.yul\":51873:52032   */\n    tag_648:\n        /* \"#utility.yul\":52013:52024   */\n      0x6e6f7420766f7465640000000000000000000000000000000000000000000000\n        /* \"#utility.yul\":52009:52010   */\n      0x00\n        /* \"#utility.yul\":52001:52007   */\n      dup3\n        /* \"#utility.yul\":51997:52011   */\n      add\n        /* \"#utility.yul\":51990:52025   */\n      mstore\n        /* \"#utility.yul\":51873:52032   */\n      pop\n      jump\t// out\n        /* \"#utility.yul\":52038:52219   */\n    tag_653:\n        /* \"#utility.yul\":52178:52211   */\n      0x45524332303a206d696e7420746f20746865207a65726f206164647265737300\n        /* \"#utility.yul\":52174:52175   */\n      0x00\n        /* \"#utility.yul\":52166:52172   */\n      dup3\n        /* \"#utility.yul\":52162:52176   */\n      add\n        /* \"#utility.yul\":52155:52212   */\n      mstore\n        /* \"#utility.yul\":52038:52219   */\n      pop\n      jump\t// out\n        /* \"#utility.yul\":52225:52347   */\n    tag_385:\n        /* \"#utility.yul\":52298:52322   */\n      tag_902\n        /* \"#utility.yul\":52316:52321   */\n      dup2\n        /* \"#utility.yul\":52298:52322   */\n      tag_481\n      jump\t// in\n    tag_902:\n        /* \"#utility.yul\":52291:52296   */\n      dup2\n        /* \"#utility.yul\":52288:52323   */\n      eq\n        /* \"#utility.yul\":52278:52341   */\n      tag_903\n      jumpi\n        /* \"#utility.yul\":52337:52338   */\n      0x00\n        /* \"#utility.yul\":52334:52335   */\n      dup1\n        /* \"#utility.yul\":52327:52339   */\n      revert\n        /* \"#utility.yul\":52278:52341   */\n    tag_903:\n        /* \"#utility.yul\":52225:52347   */\n      pop\n      jump\t// out\n        /* \"#utility.yul\":52353:52475   */\n    tag_416:\n        /* \"#utility.yul\":52426:52450   */\n      tag_905\n        /* \"#utility.yul\":52444:52449   */\n      dup2\n        /* \"#utility.yul\":52426:52450   */\n      tag_665\n      jump\t// in\n    tag_905:\n        /* \"#utility.yul\":52419:52424   */\n      dup2\n        /* \"#utility.yul\":52416:52451   */\n      eq\n        /* \"#utility.yul\":52406:52469   */\n      tag_906\n      jumpi\n        /* \"#utility.yul\":52465:52466   */\n      0x00\n        /* \"#utility.yul\":52462:52463   */\n      dup1\n        /* \"#utility.yul\":52455:52467   */\n      revert\n        /* \"#utility.yul\":52406:52469   */\n    tag_906:\n        /* \"#utility.yul\":52353:52475   */\n      pop\n      jump\t// out\n        /* \"#utility.yul\":52481:52599   */\n    tag_420:\n        /* \"#utility.yul\":52552:52574   */\n      tag_908\n        /* \"#utility.yul\":52568:52573   */\n      dup2\n        /* \"#utility.yul\":52552:52574   */\n      tag_669\n      jump\t// in\n    tag_908:\n        /* \"#utility.yul\":52545:52550   */\n      dup2\n        /* \"#utility.yul\":52542:52575   */\n      eq\n        /* \"#utility.yul\":52532:52593   */\n      tag_909\n      jumpi\n        /* \"#utility.yul\":52589:52590   */\n      0x00\n        /* \"#utility.yul\":52586:52587   */\n      dup1\n        /* \"#utility.yul\":52579:52591   */\n      revert\n        /* \"#utility.yul\":52532:52593   */\n    tag_909:\n        /* \"#utility.yul\":52481:52599   */\n      pop\n      jump\t// out\n\n    auxdata: 0xa26469706673582212209abece8ad2a696e11906b3881d0a50c775b2f42a65c10236b26aabe37012a77b64736f6c63430008070033\n}\n",
				"bytecode": {
					"linkReferences": {},
					"object": "60806040523480156200001157600080fd5b506040518060400160405280600c81526020017f51566f74696e67546f6b656e00000000000000000000000000000000000000008152506040518060400160405280600281526020017f5176000000000000000000000000000000000000000000000000000000000000815250816002908051906020019062000096929190620000f9565b508060039080519060200190620000af929190620000f9565b50505033600460006101000a81548173ffffffffffffffffffffffffffffffffffffffff021916908373ffffffffffffffffffffffffffffffffffffffff1602179055506200020e565b8280546200010790620001a9565b90600052602060002090601f0160209004810192826200012b576000855562000177565b82601f106200014657805160ff191683800117855562000177565b8280016001018555821562000177579182015b828111156200017657825182559160200191906001019062000159565b5b5090506200018691906200018a565b5090565b5b80821115620001a55760008160009055506001016200018b565b5090565b60006002820490506001821680620001c257607f821691505b60208210811415620001d957620001d8620001df565b5b50919050565b7f4e487b7100000000000000000000000000000000000000000000000000000000600052602260045260246000fd5b613a46806200021e6000396000f3fe608060405234801561001057600080fd5b50600436106100b45760003560e01c80635c230eee116100715780635c230eee1461019557806370a08231146101b157806395d89b41146101e15780639d671564146101ff578063ab9c70d414610230578063e745d68e14610263576100b4565b8063013cf08b146100b957806303af665c146100ef57806306fdde031461011f57806318160ddd1461013d578063313ce5671461015b5780634de77e4814610179575b600080fd5b6100d360048036038101906100ce919061227f565b610294565b6040516100e69796959493929190612a5e565b60405180910390f35b6101096004803603810190610104919061234b565b610399565b6040516101169190612ad4565b60405180910390f35b6101276103a1565b6040516101349190612aef565b60405180910390f35b610145610433565b6040516101529190612df2565b60405180910390f35b61016361043d565b6040516101709190612f08565b60405180910390f35b610193600480360381019061018e91906123a7565b610446565b005b6101af60048036038101906101aa91906122ac565b610770565b005b6101cb60048036038101906101c69190612212565b610c39565b6040516101d89190612df2565b60405180910390f35b6101e9610c81565b6040516101f69190612aef565b60405180910390f35b6102196004803603810190610214919061227f565b610d13565b604051610227929190612ed8565b60405180910390f35b61024a6004803603810190610245919061223f565b610e8e565b60405161025a9493929190612e0d565b60405180910390f35b61027d60048036038101906102789190612212565b610ef8565b60405161028b929190612dc9565b60405180910390f35b60076020528060005260406000206000915090508060000160009054906101000a900473ffffffffffffffffffffffffffffffffffffffff16908060000160149054906101000a900460ff16908060010180546102f09061334e565b80601f016020809104026020016040519081016040528092919081815260200182805461031c9061334e565b80156103695780601f1061033e57610100808354040283529160200191610369565b820191906000526020600020905b81548152906001019060200180831161034c57829003601f168201915b5050505050908060020154908060030154908060040160009054906101000a900461ffff16908060050154905087565b600092915050565b6060600280546103b09061334e565b80601f01602080910402602001604051908101604052809291908181526020018280546103dc9061334e565b80156104295780601f106103fe57610100808354040283529160200191610429565b820191906000526020600020905b81548152906001019060200180831161040c57829003601f168201915b5050505050905090565b6000600154905090565b60006012905090565b854210610488576040517f08c379a000000000000000000000000000000000000000000000000000000000815260040161047f90612c11565b60405180910390fd5b8442106104ca576040517f08c379a00000000000000000000000000000000000000000000000000000000081526004016104c190612b31565b60405180910390fd5b84861061050c576040517f08c379a000000000000000000000000000000000000000000000000000000000815260040161050390612c91565b60405180910390fd5b6005600081548092919061051f90613415565b919050555061055b898989898989878a8a600760006005548152602001908152602001600020610f54909998979695949392919063ffffffff16565b507f239a8a71a7d1cb0d134f6cc072ad6390e36a88c8e78dff69013ee79528441e806005548989898989898960405161059b989796959493929190612e52565b60405180910390a1600160096000600554815260200190815260200160002060006101000a81548160ff02191690831515021790555060005b8851811015610709576106018982815181106105f3576105f26134bc565b5b602002602001015183611186565b6106a26005548a838151811061061a576106196134bc565b5b6020026020010151600085600860008f888151811061063c5761063b6134bc565b5b602002602001015173ffffffffffffffffffffffffffffffffffffffff1673ffffffffffffffffffffffffffffffffffffffff168152602001908152602001600020600060055481526020019081526020016000206111f790949392919063ffffffff16565b507fabf5327be9f5825c40d58bda541dd07f09b62df3376bbd5ecdbaa8bd82a9d4928982815181106106d7576106d66134bc565b5b6020026020010151836040516106ee929190612cf1565b60405180910390a1808061070190613415565b9150506105d4565b506107646005546006600061071c611277565b73ffffffffffffffffffffffffffffffffffffffff1673ffffffffffffffffffffffffffffffffffffffff16815260200190815260200160002061127f90919063ffffffff16565b50505050505050505050565b6009600085815260200190815260200160002060009054906101000a900460ff166107d0576040517f08c379a00000000000000000000000000000000000000000000000000000000081526004016107c790612c51565b60405180910390fd5b83600860008573ffffffffffffffffffffffffffffffffffffffff1673ffffffffffffffffffffffffffffffffffffffff16815260200190815260200160002060008681526020019081526020016000206000015414610865576040517f08c379a000000000000000000000000000000000000000000000000000000000815260040161085c90612bd1565b60405180910390fd5b600860008473ffffffffffffffffffffffffffffffffffffffff1673ffffffffffffffffffffffffffffffffffffffff168152602001908152602001600020600085815260200190815260200160002060010160149054906101000a900460ff1615610906576040517f08c379a00000000000000000000000000000000000000000000000000000000081526004016108fd90612b71565b60405180910390fd5b81516007600086815260200190815260200160002060040160009054906101000a900461ffff1661ffff1614610971576040517f08c379a000000000000000000000000000000000000000000000000000000000815260040161096890612cd1565b60405180910390fd5b6000805b82518110156109de57828181518110610991576109906134bc565b5b60200260200101518382815181106109ac576109ab6134bc565b5b60200260200101516109be91906131ff565b826109c991906131a9565b915080806109d690613415565b915050610975565b5080600860008673ffffffffffffffffffffffffffffffffffffffff1673ffffffffffffffffffffffffffffffffffffffff1681526020019081526020016000206000878152602001908152602001600020600201541015610a75576040517f08c379a0000000000000000000000000000000000000000000000000000000008152600401610a6c90612c71565b60405180910390fd5b610a9e848484600760008a8152602001908152602001600020611350909392919063ffffffff16565b50610af9858460066000610ab0611277565b73ffffffffffffffffffffffffffffffffffffffff1673ffffffffffffffffffffffffffffffffffffffff1681526020019081526020016000206118069092919063ffffffff16565b50610b52600860008673ffffffffffffffffffffffffffffffffffffffff1673ffffffffffffffffffffffffffffffffffffffff1681526020019081526020016000206000878152602001908152602001600020611993565b506001600860008673ffffffffffffffffffffffffffffffffffffffff1673ffffffffffffffffffffffffffffffffffffffff168152602001908152602001600020600087815260200190815260200160002060010160146101000a81548160ff021916908315150217905550610be18460076000600554815260200190815260200160002060050154611a41565b7fabf5327be9f5825c40d58bda541dd07f09b62df3376bbd5ecdbaa8bd82a9d4928460076000600554815260200190815260200160002060050154604051610c2a929190612d4d565b60405180910390a15050505050565b60008060008373ffffffffffffffffffffffffffffffffffffffff1673ffffffffffffffffffffffffffffffffffffffff168152602001908152602001600020549050919050565b606060038054610c909061334e565b80601f0160208091040260200160405190810160405280929190818152602001828054610cbc9061334e565b8015610d095780601f10610cde57610100808354040283529160200191610d09565b820191906000526020600020905b815481529060010190602001808311610cec57829003601f168201915b5050505050905090565b600060606009600084815260200190815260200160002060009054906101000a900460ff16610d77576040517f08c379a0000000000000000000000000000000000000000000000000000000008152600401610d6e90612bb1565b60405180910390fd5b60076000848152602001908152602001600020600a0160076000858152602001908152602001600020600901600060018152602001908152602001600020604051610dc29190612a47565b90815260200160405180910390205460076000858152602001908152602001600020600901600060018152602001908152602001600020808054610e059061334e565b80601f0160208091040260200160405190810160405280929190818152602001828054610e319061334e565b8015610e7e5780601f10610e5357610100808354040283529160200191610e7e565b820191906000526020600020905b815481529060010190602001808311610e6157829003601f168201915b5050505050905091509150915091565b6008602052816000526040600020602052806000526040600020600091509150508060000154908060010160009054906101000a900473ffffffffffffffffffffffffffffffffffffffff16908060010160149054906101000a900460ff16908060020154905084565b60066020528060005260406000206000915090508060000160009054906101000a90046fffffffffffffffffffffffffffffffff16908060000160109054906101000a90046fffffffffffffffffffffffffffffffff16905082565b6000878b60000160006101000a81548173ffffffffffffffffffffffffffffffffffffffff021916908373ffffffffffffffffffffffffffffffffffffffff160217905550898b60000160146101000a81548160ff021916908360ff160217905550848b6001019080519060200190610fce929190611d5f565b50868b60020181905550858b60030181905550828290508b60040160006101000a81548161ffff021916908361ffff160217905550838b6005018190555060005b838390508110156110df5760018c600701858584818110611033576110326134bc565b5b90506020028101906110459190612f23565b604051611053929190612a17565b908152602001604051809103902060006101000a81548160ff02191690831515021790555083838281811061108b5761108a6134bc565b5b905060200281019061109d9190612f23565b8d60080160006001856110b091906131a9565b815260200190815260200160002091906110cb929190611de5565b5080806110d790613415565b91505061100f565b5060005b89518110156111735760018c60060160008c8481518110611107576111066134bc565b5b602002602001015173ffffffffffffffffffffffffffffffffffffffff1673ffffffffffffffffffffffffffffffffffffffff16815260200190815260200160002060006101000a81548160ff021916908315150217905550808061116b90613415565b9150506110e3565b50600190509a9950505050505050505050565b61118e611277565b8073ffffffffffffffffffffffffffffffffffffffff16600460009054906101000a900473ffffffffffffffffffffffffffffffffffffffff1673ffffffffffffffffffffffffffffffffffffffff16146111e857600080fd5b6111f28383611ab2565b505050565b6000848660000181905550838660010160006101000a81548173ffffffffffffffffffffffffffffffffffffffff021916908373ffffffffffffffffffffffffffffffffffffffff160217905550828660010160146101000a81548160ff0219169083151502179055508186600201819055506001905095945050505050565b600033905090565b600082600001600081819054906101000a90046fffffffffffffffffffffffffffffffff16809291906112b1906133b1565b91906101000a8154816fffffffffffffffffffffffffffffffff02191690836fffffffffffffffffffffffffffffffff16021790555050818360010160008560000160009054906101000a90046fffffffffffffffffffffffffffffffff166fffffffffffffffffffffffffffffffff166fffffffffffffffffffffffffffffffff168152602001908152602001600020819055506001905092915050565b600060028560000160149054906101000a900460ff1660ff16146113a9576040517f08c379a00000000000000000000000000000000000000000000000000000000081526004016113a090612b11565b60405180910390fd5b84600201544210156113f0576040517f08c379a00000000000000000000000000000000000000000000000000000000081526004016113e790612bf1565b60405180910390fd5b84600301544211156116465760028560000160146101000a81548160ff021916908360ff160217905550600085600a01866008016000600181526020019081526020016000206040516114439190612a47565b908152602001604051809103902054905060006001905086600801600060018152602001908152602001600020876009016000600181526020019081526020016000209080546114929061334e565b61149d929190611e6b565b506000600290505b8760040160009054906101000a900461ffff1661ffff168161ffff161161163a578288600a018960080160008461ffff1681526020019081526020016000206040516114f19190612a47565b90815260200160405180910390205411156115915787600a018860080160008361ffff1681526020019081526020016000206040516115309190612a47565b9081526020016040518091039020549250600191508760080160008261ffff168152602001908152602001600020886009016000600181526020019081526020016000209080546115809061334e565b61158b929190611e6b565b50611627565b8288600a018960080160008461ffff1681526020019081526020016000206040516115bc9190612a47565b90815260200160405180910390205414156116265781806115dc90613415565b9250508760080160008261ffff1681526020019081526020016000208860090160008481526020019081526020016000209080546116199061334e565b611624929190611e6b565b505b5b8080611632906133ea565b9150506114a5565b506000925050506117fe565b8460060160008573ffffffffffffffffffffffffffffffffffffffff1673ffffffffffffffffffffffffffffffffffffffff16815260200190815260200160002060009054906101000a900460ff166116d4576040517f08c379a00000000000000000000000000000000000000000000000000000000081526004016116cb90612c31565b60405180910390fd5b60005b8560040160009054906101000a900461ffff1661ffff168161ffff1610156117f85785600701848261ffff1681518110611714576117136134bc565b5b60200260200101516040516117299190612a30565b908152602001604051809103902060009054906101000a900460ff16611784576040517f08c379a000000000000000000000000000000000000000000000000000000000815260040161177b90612b91565b60405180910390fd5b828161ffff168151811061179b5761179a6134bc565b5b602002602001015186600a01858361ffff16815181106117be576117bd6134bc565b5b60200260200101516040516117d39190612a30565b90815260200160405180910390208190555080806117f0906133ea565b9150506116d7565b50600190505b949350505050565b600083600001601081819054906101000a90046fffffffffffffffffffffffffffffffff1680929190611838906133b1565b91906101000a8154816fffffffffffffffffffffffffffffffff02191690836fffffffffffffffffffffffffffffffff16021790555050828460020160008660000160109054906101000a90046fffffffffffffffffffffffffffffffff166fffffffffffffffffffffffffffffffff166fffffffffffffffffffffffffffffffff1681526020019081526020016000208190555060005b82518161ffff16101561195957828161ffff16815181106118f4576118f36134bc565b5b602002602001015185600301600086815260200190815260200160002060006001846119209190613171565b61ffff1681526020019081526020016000209080519060200190611945929190611d5f565b508080611951906133ea565b9150506118d0565b50600184600401600085815260200190815260200160002060006101000a81548160ff021916908315150217905550600190509392505050565b600080826000015414156119dc576040517f08c379a00000000000000000000000000000000000000000000000000000000081526004016119d390612d2d565b60405180910390fd5b8160010160149054906101000a900460ff1615611a2e576040517f08c379a0000000000000000000000000000000000000000000000000000000008152600401611a2590612d89565b60405180910390fd5b6000826002018190555060019050919050565b611a49611277565b8073ffffffffffffffffffffffffffffffffffffffff16600460009054906101000a900473ffffffffffffffffffffffffffffffffffffffff1673ffffffffffffffffffffffffffffffffffffffff1614611aa357600080fd5b611aad8383611bcd565b505050565b600073ffffffffffffffffffffffffffffffffffffffff168273ffffffffffffffffffffffffffffffffffffffff161415611b22576040517f08c379a0000000000000000000000000000000000000000000000000000000008152600401611b1990612da9565b60405180910390fd5b8060016000828254611b3491906131a9565b92505081905550806000808473ffffffffffffffffffffffffffffffffffffffff1673ffffffffffffffffffffffffffffffffffffffff1681526020019081526020016000206000828254611b8991906131a9565b925050819055507fabf5327be9f5825c40d58bda541dd07f09b62df3376bbd5ecdbaa8bd82a9d4928282604051611bc1929190612cf1565b60405180910390a15050565b600073ffffffffffffffffffffffffffffffffffffffff168273ffffffffffffffffffffffffffffffffffffffff161415611c3d576040517f08c379a0000000000000000000000000000000000000000000000000000000008152600401611c3490612cb1565b60405180910390fd5b60008060008473ffffffffffffffffffffffffffffffffffffffff1673ffffffffffffffffffffffffffffffffffffffff16815260200190815260200160002054905081811015611cc3576040517f08c379a0000000000000000000000000000000000000000000000000000000008152600401611cba90612b51565b60405180910390fd5b8181036000808573ffffffffffffffffffffffffffffffffffffffff1673ffffffffffffffffffffffffffffffffffffffff168152602001908152602001600020819055508160016000828254611d1a9190613259565b925050819055507fabf5327be9f5825c40d58bda541dd07f09b62df3376bbd5ecdbaa8bd82a9d4928383604051611d52929190612d4d565b60405180910390a1505050565b828054611d6b9061334e565b90600052602060002090601f016020900481019282611d8d5760008555611dd4565b82601f10611da657805160ff1916838001178555611dd4565b82800160010185558215611dd4579182015b82811115611dd3578251825591602001919060010190611db8565b5b509050611de19190611ef8565b5090565b828054611df19061334e565b90600052602060002090601f016020900481019282611e135760008555611e5a565b82601f10611e2c57803560ff1916838001178555611e5a565b82800160010185558215611e5a579182015b82811115611e59578235825591602001919060010190611e3e565b5b509050611e679190611ef8565b5090565b828054611e779061334e565b90600052602060002090601f016020900481019282611e995760008555611ee7565b82601f10611eaa5780548555611ee7565b82800160010185558215611ee757600052602060002091601f016020900482015b82811115611ee6578254825591600101919060010190611ecb565b5b509050611ef49190611ef8565b5090565b5b80821115611f11576000816000905550600101611ef9565b5090565b6000611f28611f2384612fab565b612f86565b90508083825260208201905082856020860282011115611f4b57611f4a613538565b5b60005b85811015611f7b5781611f6188826120c5565b845260208401935060208301925050600181019050611f4e565b5050509392505050565b6000611f98611f9384612fd7565b612f86565b90508083825260208201905082856020860282011115611fbb57611fba613538565b5b60005b8581101561200957813567ffffffffffffffff811115611fe157611fe0613524565b5b808601611fee89826121ba565b85526020850194506020840193505050600181019050611fbe565b5050509392505050565b600061202661202184613003565b612f86565b9050808382526020820190508285602086028201111561204957612048613538565b5b60005b85811015612079578161205f88826121e8565b84526020840193506020830192505060018101905061204c565b5050509392505050565b60006120966120918461302f565b612f86565b9050828152602081018484840111156120b2576120b1613542565b5b6120bd84828561330c565b509392505050565b6000813590506120d4816139cb565b92915050565b600082601f8301126120ef576120ee613524565b5b81356120ff848260208601611f15565b91505092915050565b60008083601f84011261211e5761211d613524565b5b8235905067ffffffffffffffff81111561213b5761213a61351f565b5b60208301915083602082028301111561215757612156613538565b5b9250929050565b600082601f83011261217357612172613524565b5b8135612183848260208601611f85565b91505092915050565b600082601f8301126121a1576121a0613524565b5b81356121b1848260208601612013565b91505092915050565b600082601f8301126121cf576121ce613524565b5b81356121df848260208601612083565b91505092915050565b6000813590506121f7816139e2565b92915050565b60008135905061220c816139f9565b92915050565b60006020828403121561222857612227613551565b5b6000612236848285016120c5565b91505092915050565b6000806040838503121561225657612255613551565b5b6000612264858286016120c5565b9250506020612275858286016121e8565b9150509250929050565b60006020828403121561229557612294613551565b5b60006122a3848285016121e8565b91505092915050565b600080600080608085870312156122c6576122c5613551565b5b60006122d4878288016121e8565b94505060206122e5878288016120c5565b935050604085013567ffffffffffffffff81111561230657612305613547565b5b6123128782880161215e565b925050606085013567ffffffffffffffff81111561233357612332613547565b5b61233f8782880161218c565b91505092959194509250565b6000806040838503121561236257612361613551565b5b6000612370858286016121e8565b925050602083013567ffffffffffffffff81111561239157612390613547565b5b61239d858286016120da565b9150509250929050565b60008060008060008060008060006101008a8c0312156123ca576123c9613551565b5b60006123d88c828d016121fd565b99505060208a013567ffffffffffffffff8111156123f9576123f8613547565b5b6124058c828d016120da565b98505060406124168c828d016120c5565b97505060606124278c828d016121e8565b96505060806124388c828d016121e8565b95505060a08a013567ffffffffffffffff81111561245957612458613547565b5b6124658c828d016121ba565b94505060c08a013567ffffffffffffffff81111561248657612485613547565b5b6124928c828d01612108565b935093505060e06124a58c828d016121e8565b9150509295985092959850929598565b60006124c183836124e3565b60208301905092915050565b60006124da8484846125e4565b90509392505050565b6124ec8161328d565b82525050565b6124fb8161328d565b82525050565b600061250c8261308f565b61251681856130bf565b935061252183613060565b8060005b8381101561255257815161253988826124b5565b9750612544836130a5565b925050600181019050612525565b5085935050505092915050565b600061256b83856130d0565b93508360208402850161257d84613070565b8060005b878110156125c3578484038952612598828461310e565b6125a38682846124cd565b95506125ae846130b2565b935060208b019a505050600181019050612581565b50829750879450505050509392505050565b6125de8161329f565b82525050565b60006125f083856130e1565b93506125fd83858461330c565b61260683613556565b840190509392505050565b600061261d8385613103565b935061262a83858461330c565b82840190509392505050565b60006126418261309a565b61264b81856130f2565b935061265b81856020860161331b565b61266481613556565b840191505092915050565b600061267a8261309a565b6126848185613103565b935061269481856020860161331b565b80840191505092915050565b600081546126ad8161334e565b6126b78186613103565b945060018216600081146126d257600181146126e357612716565b60ff19831686528186019350612716565b6126ec8561307a565b60005b8381101561270e578154818901526001820191506020810190506126ef565b838801955050505b50505092915050565b600061272c6012836130f2565b915061273782613567565b602082019050919050565b600061274f602c836130f2565b915061275a82613590565b604082019050919050565b60006127726022836130f2565b915061277d826135df565b604082019050919050565b6000612795600d836130f2565b91506127a08261362e565b602082019050919050565b60006127b8601b836130f2565b91506127c382613657565b602082019050919050565b60006127db6014836130f2565b91506127e682613680565b602082019050919050565b60006127fe6023836130f2565b9150612809826136a9565b604082019050919050565b60006128216018836130f2565b915061282c826136f8565b602082019050919050565b60006128446014836130f2565b915061284f82613721565b602082019050919050565b60006128676023836130f2565b91506128728261374a565b604082019050919050565b600061288a6012836130f2565b915061289582613799565b602082019050919050565b60006128ad6023836130f2565b91506128b8826137c2565b604082019050919050565b60006128d0602a836130f2565b91506128db82613811565b604082019050919050565b60006128f36021836130f2565b91506128fe82613860565b604082019050919050565b60006129166024836130f2565b9150612921826138af565b604082019050919050565b60006129396004836130f2565b9150612944826138fe565b602082019050919050565b600061295c601d836130f2565b915061296782613927565b602082019050919050565b600061297f6004836130f2565b915061298a82613950565b602082019050919050565b60006129a26009836130f2565b91506129ad82613979565b602082019050919050565b60006129c5601f836130f2565b91506129d0826139a2565b602082019050919050565b6129e4816132ab565b82525050565b6129f3816132c7565b82525050565b612a02816132f5565b82525050565b612a11816132ff565b82525050565b6000612a24828486612611565b91508190509392505050565b6000612a3c828461266f565b915081905092915050565b6000612a5382846126a0565b915081905092915050565b600060e082019050612a73600083018a6124f2565b612a806020830189612a08565b8181036040830152612a928188612636565b9050612aa160608301876129f9565b612aae60808301866129f9565b612abb60a08301856129ea565b612ac860c08301846129f9565b98975050505050505050565b6000602082019050612ae960008301846125d5565b92915050565b60006020820190508181036000830152612b098184612636565b905092915050565b60006020820190508181036000830152612b2a8161271f565b9050919050565b60006020820190508181036000830152612b4a81612742565b9050919050565b60006020820190508181036000830152612b6a81612765565b9050919050565b60006020820190508181036000830152612b8a81612788565b9050919050565b60006020820190508181036000830152612baa816127ab565b9050919050565b60006020820190508181036000830152612bca816127ce565b9050919050565b60006020820190508181036000830152612bea816127f1565b9050919050565b60006020820190508181036000830152612c0a81612814565b9050919050565b60006020820190508181036000830152612c2a81612837565b9050919050565b60006020820190508181036000830152612c4a8161285a565b9050919050565b60006020820190508181036000830152612c6a8161287d565b9050919050565b60006020820190508181036000830152612c8a816128a0565b9050919050565b60006020820190508181036000830152612caa816128c3565b9050919050565b60006020820190508181036000830152612cca816128e6565b9050919050565b60006020820190508181036000830152612cea81612909565b9050919050565b60006060820190508181036000830152612d0a8161292c565b9050612d1960208301856124f2565b612d2660408301846129f9565b9392505050565b60006020820190508181036000830152612d468161294f565b9050919050565b60006060820190508181036000830152612d6681612972565b9050612d7560208301856124f2565b612d8260408301846129f9565b9392505050565b60006020820190508181036000830152612da281612995565b9050919050565b60006020820190508181036000830152612dc2816129b8565b9050919050565b6000604082019050612dde60008301856129db565b612deb60208301846129db565b9392505050565b6000602082019050612e0760008301846129f9565b92915050565b6000608082019050612e2260008301876129f9565b612e2f60208301866124f2565b612e3c60408301856125d5565b612e4960608301846129f9565b95945050505050565b600060e082019050612e67600083018b6129f9565b8181036020830152612e79818a612501565b9050612e8860408301896124f2565b612e9560608301886129f9565b612ea260808301876129f9565b81810360a0830152612eb48186612636565b905081810360c0830152612ec981848661255f565b90509998505050505050505050565b6000604082019050612eed60008301856129f9565b8181036020830152612eff8184612636565b90509392505050565b6000602082019050612f1d6000830184612a08565b92915050565b60008083356001602003843603038112612f4057612f3f61352e565b5b80840192508235915067ffffffffffffffff821115612f6257612f61613529565b5b602083019250600182023603831315612f7e57612f7d61353d565b5b509250929050565b6000612f90612fa1565b9050612f9c8282613380565b919050565b6000604051905090565b600067ffffffffffffffff821115612fc657612fc56134eb565b5b602082029050602081019050919050565b600067ffffffffffffffff821115612ff257612ff16134eb565b5b602082029050602081019050919050565b600067ffffffffffffffff82111561301e5761301d6134eb565b5b602082029050602081019050919050565b600067ffffffffffffffff82111561304a576130496134eb565b5b61305382613556565b9050602081019050919050565b6000819050602082019050919050565b6000819050919050565b60008190508160005260206000209050919050565b600081519050919050565b600081519050919050565b6000602082019050919050565b6000602082019050919050565b600082825260208201905092915050565b600082825260208201905092915050565b600082825260208201905092915050565b600082825260208201905092915050565b600081905092915050565b6000808335600160200384360303811261312b5761312a61354c565b5b83810192508235915060208301925067ffffffffffffffff8211156131535761315261351a565b5b60018202360384131561316957613168613533565b5b509250929050565b600061317c826132c7565b9150613187836132c7565b92508261ffff0382111561319e5761319d61345e565b5b828201905092915050565b60006131b4826132f5565b91506131bf836132f5565b9250827fffffffffffffffffffffffffffffffffffffffffffffffffffffffffffffffff038211156131f4576131f361345e565b5b828201905092915050565b600061320a826132f5565b9150613215836132f5565b9250817fffffffffffffffffffffffffffffffffffffffffffffffffffffffffffffffff048311821515161561324e5761324d61345e565b5b828202905092915050565b6000613264826132f5565b915061326f836132f5565b9250828210156132825761328161345e565b5b828203905092915050565b6000613298826132d5565b9050919050565b60008115159050919050565b60006fffffffffffffffffffffffffffffffff82169050919050565b600061ffff82169050919050565b600073ffffffffffffffffffffffffffffffffffffffff82169050919050565b6000819050919050565b600060ff82169050919050565b82818337600083830152505050565b60005b8381101561333957808201518184015260208101905061331e565b83811115613348576000848401525b50505050565b6000600282049050600182168061336657607f821691505b6020821081141561337a5761337961348d565b5b50919050565b61338982613556565b810181811067ffffffffffffffff821117156133a8576133a76134eb565b5b80604052505050565b60006133bc826132ab565b91506fffffffffffffffffffffffffffffffff8214156133df576133de61345e565b5b600182019050919050565b60006133f5826132c7565b915061ffff82141561340a5761340961345e565b5b600182019050919050565b6000613420826132f5565b91507fffffffffffffffffffffffffffffffffffffffffffffffffffffffffffffffff8214156134535761345261345e565b5b600182019050919050565b7f4e487b7100000000000000000000000000000000000000000000000000000000600052601160045260246000fd5b7f4e487b7100000000000000000000000000000000000000000000000000000000600052602260045260246000fd5b7f4e487b7100000000000000000000000000000000000000000000000000000000600052603260045260246000fd5b7f4e487b7100000000000000000000000000000000000000000000000000000000600052604160045260246000fd5b600080fd5b600080fd5b600080fd5b600080fd5b600080fd5b600080fd5b600080fd5b600080fd5b600080fd5b600080fd5b600080fd5b600080fd5b6000601f19601f8301169050919050565b7f50726f706f73616c3a20696e6163746976650000000000000000000000000000600082015250565b7f456e642074696d652073686f756c642062652067726561746572207468616e2060008201527f63757272656e742074696d650000000000000000000000000000000000000000602082015250565b7f45524332303a206275726e20616d6f756e7420657863656564732062616c616e60008201527f6365000000000000000000000000000000000000000000000000000000000000602082015250565b7f616c726561647920766f74656400000000000000000000000000000000000000600082015250565b7f50726f706f73616c3a20696e76616c69642063616e6469646174650000000000600082015250565b7f6e6f7420612076616c69642070726f706f73616c000000000000000000000000600082015250565b7f6e6f7420612076616c696420766f74657220666f7220746869732070726f706f60008201527f73616c0000000000000000000000000000000000000000000000000000000000602082015250565b7f70726f706f73616c206e6f742073746172746564207965740000000000000000600082015250565b7f70726f706f73616c206e6f742073746172746564000000000000000000000000600082015250565b7f4e6f7420612076616c696420766f74657220666f7220746869732070726f706f60008201527f73616c0000000000000000000000000000000000000000000000000000000000602082015250565b7f696e76616c69642070726f706f73616c49640000000000000000000000000000600082015250565b7f6e6f742073756666696369656e742062616c616e636520746f2063617374207660008201527f6f74650000000000000000000000000000000000000000000000000000000000602082015250565b7f456e642074696d652073686f756c642062652067726561746572207468616e2060008201527f73746172742074696d6500000000000000000000000000000000000000000000602082015250565b7f45524332303a206275726e2066726f6d20746865207a65726f2061646472657360008201527f7300000000000000000000000000000000000000000000000000000000000000602082015250565b7f6e6f7420612076616c6964206c656e677468206f66206861736820726573706f60008201527f6e73652100000000000000000000000000000000000000000000000000000000602082015250565b7f6d696e7400000000000000000000000000000000000000000000000000000000600082015250565b7f496e76616c696420766f74657220666f722070726f706f73616c496421000000600082015250565b7f6275726e00000000000000000000000000000000000000000000000000000000600082015250565b7f6e6f7420766f7465640000000000000000000000000000000000000000000000600082015250565b7f45524332303a206d696e7420746f20746865207a65726f206164647265737300600082015250565b6139d48161328d565b81146139df57600080fd5b50565b6139eb816132f5565b81146139f657600080fd5b50565b613a02816132ff565b8114613a0d57600080fd5b5056fea26469706673582212209abece8ad2a696e11906b3881d0a50c775b2f42a65c10236b26aabe37012a77b64736f6c63430008070033",
					"opcodes": "PUSH1 0x80 PUSH1 0x40 MSTORE CALLVALUE DUP1 ISZERO PUSH3 0x11 JUMPI PUSH1 0x0 DUP1 REVERT JUMPDEST POP PUSH1 0x40 MLOAD DUP1 PUSH1 0x40 ADD PUSH1 0x40 MSTORE DUP1 PUSH1 0xC DUP2 MSTORE PUSH1 0x20 ADD PUSH32 0x51566F74696E67546F6B656E0000000000000000000000000000000000000000 DUP2 MSTORE POP PUSH1 0x40 MLOAD DUP1 PUSH1 0x40 ADD PUSH1 0x40 MSTORE DUP1 PUSH1 0x2 DUP2 MSTORE PUSH1 0x20 ADD PUSH32 0x5176000000000000000000000000000000000000000000000000000000000000 DUP2 MSTORE POP DUP2 PUSH1 0x2 SWAP1 DUP1 MLOAD SWAP1 PUSH1 0x20 ADD SWAP1 PUSH3 0x96 SWAP3 SWAP2 SWAP1 PUSH3 0xF9 JUMP JUMPDEST POP DUP1 PUSH1 0x3 SWAP1 DUP1 MLOAD SWAP1 PUSH1 0x20 ADD SWAP1 PUSH3 0xAF SWAP3 SWAP2 SWAP1 PUSH3 0xF9 JUMP JUMPDEST POP POP POP CALLER PUSH1 0x4 PUSH1 0x0 PUSH2 0x100 EXP DUP2 SLOAD DUP2 PUSH20 0xFFFFFFFFFFFFFFFFFFFFFFFFFFFFFFFFFFFFFFFF MUL NOT AND SWAP1 DUP4 PUSH20 0xFFFFFFFFFFFFFFFFFFFFFFFFFFFFFFFFFFFFFFFF AND MUL OR SWAP1 SSTORE POP PUSH3 0x20E JUMP JUMPDEST DUP3 DUP1 SLOAD PUSH3 0x107 SWAP1 PUSH3 0x1A9 JUMP JUMPDEST SWAP1 PUSH1 0x0 MSTORE PUSH1 0x20 PUSH1 0x0 KECCAK256 SWAP1 PUSH1 0x1F ADD PUSH1 0x20 SWAP1 DIV DUP2 ADD SWAP3 DUP3 PUSH3 0x12B JUMPI PUSH1 0x0 DUP6 SSTORE PUSH3 0x177 JUMP JUMPDEST DUP3 PUSH1 0x1F LT PUSH3 0x146 JUMPI DUP1 MLOAD PUSH1 0xFF NOT AND DUP4 DUP1 ADD OR DUP6 SSTORE PUSH3 0x177 JUMP JUMPDEST DUP3 DUP1 ADD PUSH1 0x1 ADD DUP6 SSTORE DUP3 ISZERO PUSH3 0x177 JUMPI SWAP2 DUP3 ADD JUMPDEST DUP3 DUP2 GT ISZERO PUSH3 0x176 JUMPI DUP3 MLOAD DUP3 SSTORE SWAP2 PUSH1 0x20 ADD SWAP2 SWAP1 PUSH1 0x1 ADD SWAP1 PUSH3 0x159 JUMP JUMPDEST JUMPDEST POP SWAP1 POP PUSH3 0x186 SWAP2 SWAP1 PUSH3 0x18A JUMP JUMPDEST POP SWAP1 JUMP JUMPDEST JUMPDEST DUP1 DUP3 GT ISZERO PUSH3 0x1A5 JUMPI PUSH1 0x0 DUP2 PUSH1 0x0 SWAP1 SSTORE POP PUSH1 0x1 ADD PUSH3 0x18B JUMP JUMPDEST POP SWAP1 JUMP JUMPDEST PUSH1 0x0 PUSH1 0x2 DUP3 DIV SWAP1 POP PUSH1 0x1 DUP3 AND DUP1 PUSH3 0x1C2 JUMPI PUSH1 0x7F DUP3 AND SWAP2 POP JUMPDEST PUSH1 0x20 DUP3 LT DUP2 EQ ISZERO PUSH3 0x1D9 JUMPI PUSH3 0x1D8 PUSH3 0x1DF JUMP JUMPDEST JUMPDEST POP SWAP2 SWAP1 POP JUMP JUMPDEST PUSH32 0x4E487B7100000000000000000000000000000000000000000000000000000000 PUSH1 0x0 MSTORE PUSH1 0x22 PUSH1 0x4 MSTORE PUSH1 0x24 PUSH1 0x0 REVERT JUMPDEST PUSH2 0x3A46 DUP1 PUSH3 0x21E PUSH1 0x0 CODECOPY PUSH1 0x0 RETURN INVALID PUSH1 0x80 PUSH1 0x40 MSTORE CALLVALUE DUP1 ISZERO PUSH2 0x10 JUMPI PUSH1 0x0 DUP1 REVERT JUMPDEST POP PUSH1 0x4 CALLDATASIZE LT PUSH2 0xB4 JUMPI PUSH1 0x0 CALLDATALOAD PUSH1 0xE0 SHR DUP1 PUSH4 0x5C230EEE GT PUSH2 0x71 JUMPI DUP1 PUSH4 0x5C230EEE EQ PUSH2 0x195 JUMPI DUP1 PUSH4 0x70A08231 EQ PUSH2 0x1B1 JUMPI DUP1 PUSH4 0x95D89B41 EQ PUSH2 0x1E1 JUMPI DUP1 PUSH4 0x9D671564 EQ PUSH2 0x1FF JUMPI DUP1 PUSH4 0xAB9C70D4 EQ PUSH2 0x230 JUMPI DUP1 PUSH4 0xE745D68E EQ PUSH2 0x263 JUMPI PUSH2 0xB4 JUMP JUMPDEST DUP1 PUSH4 0x13CF08B EQ PUSH2 0xB9 JUMPI DUP1 PUSH4 0x3AF665C EQ PUSH2 0xEF JUMPI DUP1 PUSH4 0x6FDDE03 EQ PUSH2 0x11F JUMPI DUP1 PUSH4 0x18160DDD EQ PUSH2 0x13D JUMPI DUP1 PUSH4 0x313CE567 EQ PUSH2 0x15B JUMPI DUP1 PUSH4 0x4DE77E48 EQ PUSH2 0x179 JUMPI JUMPDEST PUSH1 0x0 DUP1 REVERT JUMPDEST PUSH2 0xD3 PUSH1 0x4 DUP1 CALLDATASIZE SUB DUP2 ADD SWAP1 PUSH2 0xCE SWAP2 SWAP1 PUSH2 0x227F JUMP JUMPDEST PUSH2 0x294 JUMP JUMPDEST PUSH1 0x40 MLOAD PUSH2 0xE6 SWAP8 SWAP7 SWAP6 SWAP5 SWAP4 SWAP3 SWAP2 SWAP1 PUSH2 0x2A5E JUMP JUMPDEST PUSH1 0x40 MLOAD DUP1 SWAP2 SUB SWAP1 RETURN JUMPDEST PUSH2 0x109 PUSH1 0x4 DUP1 CALLDATASIZE SUB DUP2 ADD SWAP1 PUSH2 0x104 SWAP2 SWAP1 PUSH2 0x234B JUMP JUMPDEST PUSH2 0x399 JUMP JUMPDEST PUSH1 0x40 MLOAD PUSH2 0x116 SWAP2 SWAP1 PUSH2 0x2AD4 JUMP JUMPDEST PUSH1 0x40 MLOAD DUP1 SWAP2 SUB SWAP1 RETURN JUMPDEST PUSH2 0x127 PUSH2 0x3A1 JUMP JUMPDEST PUSH1 0x40 MLOAD PUSH2 0x134 SWAP2 SWAP1 PUSH2 0x2AEF JUMP JUMPDEST PUSH1 0x40 MLOAD DUP1 SWAP2 SUB SWAP1 RETURN JUMPDEST PUSH2 0x145 PUSH2 0x433 JUMP JUMPDEST PUSH1 0x40 MLOAD PUSH2 0x152 SWAP2 SWAP1 PUSH2 0x2DF2 JUMP JUMPDEST PUSH1 0x40 MLOAD DUP1 SWAP2 SUB SWAP1 RETURN JUMPDEST PUSH2 0x163 PUSH2 0x43D JUMP JUMPDEST PUSH1 0x40 MLOAD PUSH2 0x170 SWAP2 SWAP1 PUSH2 0x2F08 JUMP JUMPDEST PUSH1 0x40 MLOAD DUP1 SWAP2 SUB SWAP1 RETURN JUMPDEST PUSH2 0x193 PUSH1 0x4 DUP1 CALLDATASIZE SUB DUP2 ADD SWAP1 PUSH2 0x18E SWAP2 SWAP1 PUSH2 0x23A7 JUMP JUMPDEST PUSH2 0x446 JUMP JUMPDEST STOP JUMPDEST PUSH2 0x1AF PUSH1 0x4 DUP1 CALLDATASIZE SUB DUP2 ADD SWAP1 PUSH2 0x1AA SWAP2 SWAP1 PUSH2 0x22AC JUMP JUMPDEST PUSH2 0x770 JUMP JUMPDEST STOP JUMPDEST PUSH2 0x1CB PUSH1 0x4 DUP1 CALLDATASIZE SUB DUP2 ADD SWAP1 PUSH2 0x1C6 SWAP2 SWAP1 PUSH2 0x2212 JUMP JUMPDEST PUSH2 0xC39 JUMP JUMPDEST PUSH1 0x40 MLOAD PUSH2 0x1D8 SWAP2 SWAP1 PUSH2 0x2DF2 JUMP JUMPDEST PUSH1 0x40 MLOAD DUP1 SWAP2 SUB SWAP1 RETURN JUMPDEST PUSH2 0x1E9 PUSH2 0xC81 JUMP JUMPDEST PUSH1 0x40 MLOAD PUSH2 0x1F6 SWAP2 SWAP1 PUSH2 0x2AEF JUMP JUMPDEST PUSH1 0x40 MLOAD DUP1 SWAP2 SUB SWAP1 RETURN JUMPDEST PUSH2 0x219 PUSH1 0x4 DUP1 CALLDATASIZE SUB DUP2 ADD SWAP1 PUSH2 0x214 SWAP2 SWAP1 PUSH2 0x227F JUMP JUMPDEST PUSH2 0xD13 JUMP JUMPDEST PUSH1 0x40 MLOAD PUSH2 0x227 SWAP3 SWAP2 SWAP1 PUSH2 0x2ED8 JUMP JUMPDEST PUSH1 0x40 MLOAD DUP1 SWAP2 SUB SWAP1 RETURN JUMPDEST PUSH2 0x24A PUSH1 0x4 DUP1 CALLDATASIZE SUB DUP2 ADD SWAP1 PUSH2 0x245 SWAP2 SWAP1 PUSH2 0x223F JUMP JUMPDEST PUSH2 0xE8E JUMP JUMPDEST PUSH1 0x40 MLOAD PUSH2 0x25A SWAP5 SWAP4 SWAP3 SWAP2 SWAP1 PUSH2 0x2E0D JUMP JUMPDEST PUSH1 0x40 MLOAD DUP1 SWAP2 SUB SWAP1 RETURN JUMPDEST PUSH2 0x27D PUSH1 0x4 DUP1 CALLDATASIZE SUB DUP2 ADD SWAP1 PUSH2 0x278 SWAP2 SWAP1 PUSH2 0x2212 JUMP JUMPDEST PUSH2 0xEF8 JUMP JUMPDEST PUSH1 0x40 MLOAD PUSH2 0x28B SWAP3 SWAP2 SWAP1 PUSH2 0x2DC9 JUMP JUMPDEST PUSH1 0x40 MLOAD DUP1 SWAP2 SUB SWAP1 RETURN JUMPDEST PUSH1 0x7 PUSH1 0x20 MSTORE DUP1 PUSH1 0x0 MSTORE PUSH1 0x40 PUSH1 0x0 KECCAK256 PUSH1 0x0 SWAP2 POP SWAP1 POP DUP1 PUSH1 0x0 ADD PUSH1 0x0 SWAP1 SLOAD SWAP1 PUSH2 0x100 EXP SWAP1 DIV PUSH20 0xFFFFFFFFFFFFFFFFFFFFFFFFFFFFFFFFFFFFFFFF AND SWAP1 DUP1 PUSH1 0x0 ADD PUSH1 0x14 SWAP1 SLOAD SWAP1 PUSH2 0x100 EXP SWAP1 DIV PUSH1 0xFF AND SWAP1 DUP1 PUSH1 0x1 ADD DUP1 SLOAD PUSH2 0x2F0 SWAP1 PUSH2 0x334E JUMP JUMPDEST DUP1 PUSH1 0x1F ADD PUSH1 0x20 DUP1 SWAP2 DIV MUL PUSH1 0x20 ADD PUSH1 0x40 MLOAD SWAP1 DUP2 ADD PUSH1 0x40 MSTORE DUP1 SWAP3 SWAP2 SWAP1 DUP2 DUP2 MSTORE PUSH1 0x20 ADD DUP3 DUP1 SLOAD PUSH2 0x31C SWAP1 PUSH2 0x334E JUMP JUMPDEST DUP1 ISZERO PUSH2 0x369 JUMPI DUP1 PUSH1 0x1F LT PUSH2 0x33E JUMPI PUSH2 0x100 DUP1 DUP4 SLOAD DIV MUL DUP4 MSTORE SWAP2 PUSH1 0x20 ADD SWAP2 PUSH2 0x369 JUMP JUMPDEST DUP3 ADD SWAP2 SWAP1 PUSH1 0x0 MSTORE PUSH1 0x20 PUSH1 0x0 KECCAK256 SWAP1 JUMPDEST DUP2 SLOAD DUP2 MSTORE SWAP1 PUSH1 0x1 ADD SWAP1 PUSH1 0x20 ADD DUP1 DUP4 GT PUSH2 0x34C JUMPI DUP3 SWAP1 SUB PUSH1 0x1F AND DUP3 ADD SWAP2 JUMPDEST POP POP POP POP POP SWAP1 DUP1 PUSH1 0x2 ADD SLOAD SWAP1 DUP1 PUSH1 0x3 ADD SLOAD SWAP1 DUP1 PUSH1 0x4 ADD PUSH1 0x0 SWAP1 SLOAD SWAP1 PUSH2 0x100 EXP SWAP1 DIV PUSH2 0xFFFF AND SWAP1 DUP1 PUSH1 0x5 ADD SLOAD SWAP1 POP DUP8 JUMP JUMPDEST PUSH1 0x0 SWAP3 SWAP2 POP POP JUMP JUMPDEST PUSH1 0x60 PUSH1 0x2 DUP1 SLOAD PUSH2 0x3B0 SWAP1 PUSH2 0x334E JUMP JUMPDEST DUP1 PUSH1 0x1F ADD PUSH1 0x20 DUP1 SWAP2 DIV MUL PUSH1 0x20 ADD PUSH1 0x40 MLOAD SWAP1 DUP2 ADD PUSH1 0x40 MSTORE DUP1 SWAP3 SWAP2 SWAP1 DUP2 DUP2 MSTORE PUSH1 0x20 ADD DUP3 DUP1 SLOAD PUSH2 0x3DC SWAP1 PUSH2 0x334E JUMP JUMPDEST DUP1 ISZERO PUSH2 0x429 JUMPI DUP1 PUSH1 0x1F LT PUSH2 0x3FE JUMPI PUSH2 0x100 DUP1 DUP4 SLOAD DIV MUL DUP4 MSTORE SWAP2 PUSH1 0x20 ADD SWAP2 PUSH2 0x429 JUMP JUMPDEST DUP3 ADD SWAP2 SWAP1 PUSH1 0x0 MSTORE PUSH1 0x20 PUSH1 0x0 KECCAK256 SWAP1 JUMPDEST DUP2 SLOAD DUP2 MSTORE SWAP1 PUSH1 0x1 ADD SWAP1 PUSH1 0x20 ADD DUP1 DUP4 GT PUSH2 0x40C JUMPI DUP3 SWAP1 SUB PUSH1 0x1F AND DUP3 ADD SWAP2 JUMPDEST POP POP POP POP POP SWAP1 POP SWAP1 JUMP JUMPDEST PUSH1 0x0 PUSH1 0x1 SLOAD SWAP1 POP SWAP1 JUMP JUMPDEST PUSH1 0x0 PUSH1 0x12 SWAP1 POP SWAP1 JUMP JUMPDEST DUP6 TIMESTAMP LT PUSH2 0x488 JUMPI PUSH1 0x40 MLOAD PUSH32 0x8C379A000000000000000000000000000000000000000000000000000000000 DUP2 MSTORE PUSH1 0x4 ADD PUSH2 0x47F SWAP1 PUSH2 0x2C11 JUMP JUMPDEST PUSH1 0x40 MLOAD DUP1 SWAP2 SUB SWAP1 REVERT JUMPDEST DUP5 TIMESTAMP LT PUSH2 0x4CA JUMPI PUSH1 0x40 MLOAD PUSH32 0x8C379A000000000000000000000000000000000000000000000000000000000 DUP2 MSTORE PUSH1 0x4 ADD PUSH2 0x4C1 SWAP1 PUSH2 0x2B31 JUMP JUMPDEST PUSH1 0x40 MLOAD DUP1 SWAP2 SUB SWAP1 REVERT JUMPDEST DUP5 DUP7 LT PUSH2 0x50C JUMPI PUSH1 0x40 MLOAD PUSH32 0x8C379A000000000000000000000000000000000000000000000000000000000 DUP2 MSTORE PUSH1 0x4 ADD PUSH2 0x503 SWAP1 PUSH2 0x2C91 JUMP JUMPDEST PUSH1 0x40 MLOAD DUP1 SWAP2 SUB SWAP1 REVERT JUMPDEST PUSH1 0x5 PUSH1 0x0 DUP2 SLOAD DUP1 SWAP3 SWAP2 SWAP1 PUSH2 0x51F SWAP1 PUSH2 0x3415 JUMP JUMPDEST SWAP2 SWAP1 POP SSTORE POP PUSH2 0x55B DUP10 DUP10 DUP10 DUP10 DUP10 DUP10 DUP8 DUP11 DUP11 PUSH1 0x7 PUSH1 0x0 PUSH1 0x5 SLOAD DUP2 MSTORE PUSH1 0x20 ADD SWAP1 DUP2 MSTORE PUSH1 0x20 ADD PUSH1 0x0 KECCAK256 PUSH2 0xF54 SWAP1 SWAP10 SWAP9 SWAP8 SWAP7 SWAP6 SWAP5 SWAP4 SWAP3 SWAP2 SWAP1 PUSH4 0xFFFFFFFF AND JUMP JUMPDEST POP PUSH32 0x239A8A71A7D1CB0D134F6CC072AD6390E36A88C8E78DFF69013EE79528441E80 PUSH1 0x5 SLOAD DUP10 DUP10 DUP10 DUP10 DUP10 DUP10 DUP10 PUSH1 0x40 MLOAD PUSH2 0x59B SWAP9 SWAP8 SWAP7 SWAP6 SWAP5 SWAP4 SWAP3 SWAP2 SWAP1 PUSH2 0x2E52 JUMP JUMPDEST PUSH1 0x40 MLOAD DUP1 SWAP2 SUB SWAP1 LOG1 PUSH1 0x1 PUSH1 0x9 PUSH1 0x0 PUSH1 0x5 SLOAD DUP2 MSTORE PUSH1 0x20 ADD SWAP1 DUP2 MSTORE PUSH1 0x20 ADD PUSH1 0x0 KECCAK256 PUSH1 0x0 PUSH2 0x100 EXP DUP2 SLOAD DUP2 PUSH1 0xFF MUL NOT AND SWAP1 DUP4 ISZERO ISZERO MUL OR SWAP1 SSTORE POP PUSH1 0x0 JUMPDEST DUP9 MLOAD DUP2 LT ISZERO PUSH2 0x709 JUMPI PUSH2 0x601 DUP10 DUP3 DUP2 MLOAD DUP2 LT PUSH2 0x5F3 JUMPI PUSH2 0x5F2 PUSH2 0x34BC JUMP JUMPDEST JUMPDEST PUSH1 0x20 MUL PUSH1 0x20 ADD ADD MLOAD DUP4 PUSH2 0x1186 JUMP JUMPDEST PUSH2 0x6A2 PUSH1 0x5 SLOAD DUP11 DUP4 DUP2 MLOAD DUP2 LT PUSH2 0x61A JUMPI PUSH2 0x619 PUSH2 0x34BC JUMP JUMPDEST JUMPDEST PUSH1 0x20 MUL PUSH1 0x20 ADD ADD MLOAD PUSH1 0x0 DUP6 PUSH1 0x8 PUSH1 0x0 DUP16 DUP9 DUP2 MLOAD DUP2 LT PUSH2 0x63C JUMPI PUSH2 0x63B PUSH2 0x34BC JUMP JUMPDEST JUMPDEST PUSH1 0x20 MUL PUSH1 0x20 ADD ADD MLOAD PUSH20 0xFFFFFFFFFFFFFFFFFFFFFFFFFFFFFFFFFFFFFFFF AND PUSH20 0xFFFFFFFFFFFFFFFFFFFFFFFFFFFFFFFFFFFFFFFF AND DUP2 MSTORE PUSH1 0x20 ADD SWAP1 DUP2 MSTORE PUSH1 0x20 ADD PUSH1 0x0 KECCAK256 PUSH1 0x0 PUSH1 0x5 SLOAD DUP2 MSTORE PUSH1 0x20 ADD SWAP1 DUP2 MSTORE PUSH1 0x20 ADD PUSH1 0x0 KECCAK256 PUSH2 0x11F7 SWAP1 SWAP5 SWAP4 SWAP3 SWAP2 SWAP1 PUSH4 0xFFFFFFFF AND JUMP JUMPDEST POP PUSH32 0xABF5327BE9F5825C40D58BDA541DD07F09B62DF3376BBD5ECDBAA8BD82A9D492 DUP10 DUP3 DUP2 MLOAD DUP2 LT PUSH2 0x6D7 JUMPI PUSH2 0x6D6 PUSH2 0x34BC JUMP JUMPDEST JUMPDEST PUSH1 0x20 MUL PUSH1 0x20 ADD ADD MLOAD DUP4 PUSH1 0x40 MLOAD PUSH2 0x6EE SWAP3 SWAP2 SWAP1 PUSH2 0x2CF1 JUMP JUMPDEST PUSH1 0x40 MLOAD DUP1 SWAP2 SUB SWAP1 LOG1 DUP1 DUP1 PUSH2 0x701 SWAP1 PUSH2 0x3415 JUMP JUMPDEST SWAP2 POP POP PUSH2 0x5D4 JUMP JUMPDEST POP PUSH2 0x764 PUSH1 0x5 SLOAD PUSH1 0x6 PUSH1 0x0 PUSH2 0x71C PUSH2 0x1277 JUMP JUMPDEST PUSH20 0xFFFFFFFFFFFFFFFFFFFFFFFFFFFFFFFFFFFFFFFF AND PUSH20 0xFFFFFFFFFFFFFFFFFFFFFFFFFFFFFFFFFFFFFFFF AND DUP2 MSTORE PUSH1 0x20 ADD SWAP1 DUP2 MSTORE PUSH1 0x20 ADD PUSH1 0x0 KECCAK256 PUSH2 0x127F SWAP1 SWAP2 SWAP1 PUSH4 0xFFFFFFFF AND JUMP JUMPDEST POP POP POP POP POP POP POP POP POP POP JUMP JUMPDEST PUSH1 0x9 PUSH1 0x0 DUP6 DUP2 MSTORE PUSH1 0x20 ADD SWAP1 DUP2 MSTORE PUSH1 0x20 ADD PUSH1 0x0 KECCAK256 PUSH1 0x0 SWAP1 SLOAD SWAP1 PUSH2 0x100 EXP SWAP1 DIV PUSH1 0xFF AND PUSH2 0x7D0 JUMPI PUSH1 0x40 MLOAD PUSH32 0x8C379A000000000000000000000000000000000000000000000000000000000 DUP2 MSTORE PUSH1 0x4 ADD PUSH2 0x7C7 SWAP1 PUSH2 0x2C51 JUMP JUMPDEST PUSH1 0x40 MLOAD DUP1 SWAP2 SUB SWAP1 REVERT JUMPDEST DUP4 PUSH1 0x8 PUSH1 0x0 DUP6 PUSH20 0xFFFFFFFFFFFFFFFFFFFFFFFFFFFFFFFFFFFFFFFF AND PUSH20 0xFFFFFFFFFFFFFFFFFFFFFFFFFFFFFFFFFFFFFFFF AND DUP2 MSTORE PUSH1 0x20 ADD SWAP1 DUP2 MSTORE PUSH1 0x20 ADD PUSH1 0x0 KECCAK256 PUSH1 0x0 DUP7 DUP2 MSTORE PUSH1 0x20 ADD SWAP1 DUP2 MSTORE PUSH1 0x20 ADD PUSH1 0x0 KECCAK256 PUSH1 0x0 ADD SLOAD EQ PUSH2 0x865 JUMPI PUSH1 0x40 MLOAD PUSH32 0x8C379A000000000000000000000000000000000000000000000000000000000 DUP2 MSTORE PUSH1 0x4 ADD PUSH2 0x85C SWAP1 PUSH2 0x2BD1 JUMP JUMPDEST PUSH1 0x40 MLOAD DUP1 SWAP2 SUB SWAP1 REVERT JUMPDEST PUSH1 0x8 PUSH1 0x0 DUP5 PUSH20 0xFFFFFFFFFFFFFFFFFFFFFFFFFFFFFFFFFFFFFFFF AND PUSH20 0xFFFFFFFFFFFFFFFFFFFFFFFFFFFFFFFFFFFFFFFF AND DUP2 MSTORE PUSH1 0x20 ADD SWAP1 DUP2 MSTORE PUSH1 0x20 ADD PUSH1 0x0 KECCAK256 PUSH1 0x0 DUP6 DUP2 MSTORE PUSH1 0x20 ADD SWAP1 DUP2 MSTORE PUSH1 0x20 ADD PUSH1 0x0 KECCAK256 PUSH1 0x1 ADD PUSH1 0x14 SWAP1 SLOAD SWAP1 PUSH2 0x100 EXP SWAP1 DIV PUSH1 0xFF AND ISZERO PUSH2 0x906 JUMPI PUSH1 0x40 MLOAD PUSH32 0x8C379A000000000000000000000000000000000000000000000000000000000 DUP2 MSTORE PUSH1 0x4 ADD PUSH2 0x8FD SWAP1 PUSH2 0x2B71 JUMP JUMPDEST PUSH1 0x40 MLOAD DUP1 SWAP2 SUB SWAP1 REVERT JUMPDEST DUP2 MLOAD PUSH1 0x7 PUSH1 0x0 DUP7 DUP2 MSTORE PUSH1 0x20 ADD SWAP1 DUP2 MSTORE PUSH1 0x20 ADD PUSH1 0x0 KECCAK256 PUSH1 0x4 ADD PUSH1 0x0 SWAP1 SLOAD SWAP1 PUSH2 0x100 EXP SWAP1 DIV PUSH2 0xFFFF AND PUSH2 0xFFFF AND EQ PUSH2 0x971 JUMPI PUSH1 0x40 MLOAD PUSH32 0x8C379A000000000000000000000000000000000000000000000000000000000 DUP2 MSTORE PUSH1 0x4 ADD PUSH2 0x968 SWAP1 PUSH2 0x2CD1 JUMP JUMPDEST PUSH1 0x40 MLOAD DUP1 SWAP2 SUB SWAP1 REVERT JUMPDEST PUSH1 0x0 DUP1 JUMPDEST DUP3 MLOAD DUP2 LT ISZERO PUSH2 0x9DE JUMPI DUP3 DUP2 DUP2 MLOAD DUP2 LT PUSH2 0x991 JUMPI PUSH2 0x990 PUSH2 0x34BC JUMP JUMPDEST JUMPDEST PUSH1 0x20 MUL PUSH1 0x20 ADD ADD MLOAD DUP4 DUP3 DUP2 MLOAD DUP2 LT PUSH2 0x9AC JUMPI PUSH2 0x9AB PUSH2 0x34BC JUMP JUMPDEST JUMPDEST PUSH1 0x20 MUL PUSH1 0x20 ADD ADD MLOAD PUSH2 0x9BE SWAP2 SWAP1 PUSH2 0x31FF JUMP JUMPDEST DUP3 PUSH2 0x9C9 SWAP2 SWAP1 PUSH2 0x31A9 JUMP JUMPDEST SWAP2 POP DUP1 DUP1 PUSH2 0x9D6 SWAP1 PUSH2 0x3415 JUMP JUMPDEST SWAP2 POP POP PUSH2 0x975 JUMP JUMPDEST POP DUP1 PUSH1 0x8 PUSH1 0x0 DUP7 PUSH20 0xFFFFFFFFFFFFFFFFFFFFFFFFFFFFFFFFFFFFFFFF AND PUSH20 0xFFFFFFFFFFFFFFFFFFFFFFFFFFFFFFFFFFFFFFFF AND DUP2 MSTORE PUSH1 0x20 ADD SWAP1 DUP2 MSTORE PUSH1 0x20 ADD PUSH1 0x0 KECCAK256 PUSH1 0x0 DUP8 DUP2 MSTORE PUSH1 0x20 ADD SWAP1 DUP2 MSTORE PUSH1 0x20 ADD PUSH1 0x0 KECCAK256 PUSH1 0x2 ADD SLOAD LT ISZERO PUSH2 0xA75 JUMPI PUSH1 0x40 MLOAD PUSH32 0x8C379A000000000000000000000000000000000000000000000000000000000 DUP2 MSTORE PUSH1 0x4 ADD PUSH2 0xA6C SWAP1 PUSH2 0x2C71 JUMP JUMPDEST PUSH1 0x40 MLOAD DUP1 SWAP2 SUB SWAP1 REVERT JUMPDEST PUSH2 0xA9E DUP5 DUP5 DUP5 PUSH1 0x7 PUSH1 0x0 DUP11 DUP2 MSTORE PUSH1 0x20 ADD SWAP1 DUP2 MSTORE PUSH1 0x20 ADD PUSH1 0x0 KECCAK256 PUSH2 0x1350 SWAP1 SWAP4 SWAP3 SWAP2 SWAP1 PUSH4 0xFFFFFFFF AND JUMP JUMPDEST POP PUSH2 0xAF9 DUP6 DUP5 PUSH1 0x6 PUSH1 0x0 PUSH2 0xAB0 PUSH2 0x1277 JUMP JUMPDEST PUSH20 0xFFFFFFFFFFFFFFFFFFFFFFFFFFFFFFFFFFFFFFFF AND PUSH20 0xFFFFFFFFFFFFFFFFFFFFFFFFFFFFFFFFFFFFFFFF AND DUP2 MSTORE PUSH1 0x20 ADD SWAP1 DUP2 MSTORE PUSH1 0x20 ADD PUSH1 0x0 KECCAK256 PUSH2 0x1806 SWAP1 SWAP3 SWAP2 SWAP1 PUSH4 0xFFFFFFFF AND JUMP JUMPDEST POP PUSH2 0xB52 PUSH1 0x8 PUSH1 0x0 DUP7 PUSH20 0xFFFFFFFFFFFFFFFFFFFFFFFFFFFFFFFFFFFFFFFF AND PUSH20 0xFFFFFFFFFFFFFFFFFFFFFFFFFFFFFFFFFFFFFFFF AND DUP2 MSTORE PUSH1 0x20 ADD SWAP1 DUP2 MSTORE PUSH1 0x20 ADD PUSH1 0x0 KECCAK256 PUSH1 0x0 DUP8 DUP2 MSTORE PUSH1 0x20 ADD SWAP1 DUP2 MSTORE PUSH1 0x20 ADD PUSH1 0x0 KECCAK256 PUSH2 0x1993 JUMP JUMPDEST POP PUSH1 0x1 PUSH1 0x8 PUSH1 0x0 DUP7 PUSH20 0xFFFFFFFFFFFFFFFFFFFFFFFFFFFFFFFFFFFFFFFF AND PUSH20 0xFFFFFFFFFFFFFFFFFFFFFFFFFFFFFFFFFFFFFFFF AND DUP2 MSTORE PUSH1 0x20 ADD SWAP1 DUP2 MSTORE PUSH1 0x20 ADD PUSH1 0x0 KECCAK256 PUSH1 0x0 DUP8 DUP2 MSTORE PUSH1 0x20 ADD SWAP1 DUP2 MSTORE PUSH1 0x20 ADD PUSH1 0x0 KECCAK256 PUSH1 0x1 ADD PUSH1 0x14 PUSH2 0x100 EXP DUP2 SLOAD DUP2 PUSH1 0xFF MUL NOT AND SWAP1 DUP4 ISZERO ISZERO MUL OR SWAP1 SSTORE POP PUSH2 0xBE1 DUP5 PUSH1 0x7 PUSH1 0x0 PUSH1 0x5 SLOAD DUP2 MSTORE PUSH1 0x20 ADD SWAP1 DUP2 MSTORE PUSH1 0x20 ADD PUSH1 0x0 KECCAK256 PUSH1 0x5 ADD SLOAD PUSH2 0x1A41 JUMP JUMPDEST PUSH32 0xABF5327BE9F5825C40D58BDA541DD07F09B62DF3376BBD5ECDBAA8BD82A9D492 DUP5 PUSH1 0x7 PUSH1 0x0 PUSH1 0x5 SLOAD DUP2 MSTORE PUSH1 0x20 ADD SWAP1 DUP2 MSTORE PUSH1 0x20 ADD PUSH1 0x0 KECCAK256 PUSH1 0x5 ADD SLOAD PUSH1 0x40 MLOAD PUSH2 0xC2A SWAP3 SWAP2 SWAP1 PUSH2 0x2D4D JUMP JUMPDEST PUSH1 0x40 MLOAD DUP1 SWAP2 SUB SWAP1 LOG1 POP POP POP POP POP JUMP JUMPDEST PUSH1 0x0 DUP1 PUSH1 0x0 DUP4 PUSH20 0xFFFFFFFFFFFFFFFFFFFFFFFFFFFFFFFFFFFFFFFF AND PUSH20 0xFFFFFFFFFFFFFFFFFFFFFFFFFFFFFFFFFFFFFFFF AND DUP2 MSTORE PUSH1 0x20 ADD SWAP1 DUP2 MSTORE PUSH1 0x20 ADD PUSH1 0x0 KECCAK256 SLOAD SWAP1 POP SWAP2 SWAP1 POP JUMP JUMPDEST PUSH1 0x60 PUSH1 0x3 DUP1 SLOAD PUSH2 0xC90 SWAP1 PUSH2 0x334E JUMP JUMPDEST DUP1 PUSH1 0x1F ADD PUSH1 0x20 DUP1 SWAP2 DIV MUL PUSH1 0x20 ADD PUSH1 0x40 MLOAD SWAP1 DUP2 ADD PUSH1 0x40 MSTORE DUP1 SWAP3 SWAP2 SWAP1 DUP2 DUP2 MSTORE PUSH1 0x20 ADD DUP3 DUP1 SLOAD PUSH2 0xCBC SWAP1 PUSH2 0x334E JUMP JUMPDEST DUP1 ISZERO PUSH2 0xD09 JUMPI DUP1 PUSH1 0x1F LT PUSH2 0xCDE JUMPI PUSH2 0x100 DUP1 DUP4 SLOAD DIV MUL DUP4 MSTORE SWAP2 PUSH1 0x20 ADD SWAP2 PUSH2 0xD09 JUMP JUMPDEST DUP3 ADD SWAP2 SWAP1 PUSH1 0x0 MSTORE PUSH1 0x20 PUSH1 0x0 KECCAK256 SWAP1 JUMPDEST DUP2 SLOAD DUP2 MSTORE SWAP1 PUSH1 0x1 ADD SWAP1 PUSH1 0x20 ADD DUP1 DUP4 GT PUSH2 0xCEC JUMPI DUP3 SWAP1 SUB PUSH1 0x1F AND DUP3 ADD SWAP2 JUMPDEST POP POP POP POP POP SWAP1 POP SWAP1 JUMP JUMPDEST PUSH1 0x0 PUSH1 0x60 PUSH1 0x9 PUSH1 0x0 DUP5 DUP2 MSTORE PUSH1 0x20 ADD SWAP1 DUP2 MSTORE PUSH1 0x20 ADD PUSH1 0x0 KECCAK256 PUSH1 0x0 SWAP1 SLOAD SWAP1 PUSH2 0x100 EXP SWAP1 DIV PUSH1 0xFF AND PUSH2 0xD77 JUMPI PUSH1 0x40 MLOAD PUSH32 0x8C379A000000000000000000000000000000000000000000000000000000000 DUP2 MSTORE PUSH1 0x4 ADD PUSH2 0xD6E SWAP1 PUSH2 0x2BB1 JUMP JUMPDEST PUSH1 0x40 MLOAD DUP1 SWAP2 SUB SWAP1 REVERT JUMPDEST PUSH1 0x7 PUSH1 0x0 DUP5 DUP2 MSTORE PUSH1 0x20 ADD SWAP1 DUP2 MSTORE PUSH1 0x20 ADD PUSH1 0x0 KECCAK256 PUSH1 0xA ADD PUSH1 0x7 PUSH1 0x0 DUP6 DUP2 MSTORE PUSH1 0x20 ADD SWAP1 DUP2 MSTORE PUSH1 0x20 ADD PUSH1 0x0 KECCAK256 PUSH1 0x9 ADD PUSH1 0x0 PUSH1 0x1 DUP2 MSTORE PUSH1 0x20 ADD SWAP1 DUP2 MSTORE PUSH1 0x20 ADD PUSH1 0x0 KECCAK256 PUSH1 0x40 MLOAD PUSH2 0xDC2 SWAP2 SWAP1 PUSH2 0x2A47 JUMP JUMPDEST SWAP1 DUP2 MSTORE PUSH1 0x20 ADD PUSH1 0x40 MLOAD DUP1 SWAP2 SUB SWAP1 KECCAK256 SLOAD PUSH1 0x7 PUSH1 0x0 DUP6 DUP2 MSTORE PUSH1 0x20 ADD SWAP1 DUP2 MSTORE PUSH1 0x20 ADD PUSH1 0x0 KECCAK256 PUSH1 0x9 ADD PUSH1 0x0 PUSH1 0x1 DUP2 MSTORE PUSH1 0x20 ADD SWAP1 DUP2 MSTORE PUSH1 0x20 ADD PUSH1 0x0 KECCAK256 DUP1 DUP1 SLOAD PUSH2 0xE05 SWAP1 PUSH2 0x334E JUMP JUMPDEST DUP1 PUSH1 0x1F ADD PUSH1 0x20 DUP1 SWAP2 DIV MUL PUSH1 0x20 ADD PUSH1 0x40 MLOAD SWAP1 DUP2 ADD PUSH1 0x40 MSTORE DUP1 SWAP3 SWAP2 SWAP1 DUP2 DUP2 MSTORE PUSH1 0x20 ADD DUP3 DUP1 SLOAD PUSH2 0xE31 SWAP1 PUSH2 0x334E JUMP JUMPDEST DUP1 ISZERO PUSH2 0xE7E JUMPI DUP1 PUSH1 0x1F LT PUSH2 0xE53 JUMPI PUSH2 0x100 DUP1 DUP4 SLOAD DIV MUL DUP4 MSTORE SWAP2 PUSH1 0x20 ADD SWAP2 PUSH2 0xE7E JUMP JUMPDEST DUP3 ADD SWAP2 SWAP1 PUSH1 0x0 MSTORE PUSH1 0x20 PUSH1 0x0 KECCAK256 SWAP1 JUMPDEST DUP2 SLOAD DUP2 MSTORE SWAP1 PUSH1 0x1 ADD SWAP1 PUSH1 0x20 ADD DUP1 DUP4 GT PUSH2 0xE61 JUMPI DUP3 SWAP1 SUB PUSH1 0x1F AND DUP3 ADD SWAP2 JUMPDEST POP POP POP POP POP SWAP1 POP SWAP2 POP SWAP2 POP SWAP2 POP SWAP2 JUMP JUMPDEST PUSH1 0x8 PUSH1 0x20 MSTORE DUP2 PUSH1 0x0 MSTORE PUSH1 0x40 PUSH1 0x0 KECCAK256 PUSH1 0x20 MSTORE DUP1 PUSH1 0x0 MSTORE PUSH1 0x40 PUSH1 0x0 KECCAK256 PUSH1 0x0 SWAP2 POP SWAP2 POP POP DUP1 PUSH1 0x0 ADD SLOAD SWAP1 DUP1 PUSH1 0x1 ADD PUSH1 0x0 SWAP1 SLOAD SWAP1 PUSH2 0x100 EXP SWAP1 DIV PUSH20 0xFFFFFFFFFFFFFFFFFFFFFFFFFFFFFFFFFFFFFFFF AND SWAP1 DUP1 PUSH1 0x1 ADD PUSH1 0x14 SWAP1 SLOAD SWAP1 PUSH2 0x100 EXP SWAP1 DIV PUSH1 0xFF AND SWAP1 DUP1 PUSH1 0x2 ADD SLOAD SWAP1 POP DUP5 JUMP JUMPDEST PUSH1 0x6 PUSH1 0x20 MSTORE DUP1 PUSH1 0x0 MSTORE PUSH1 0x40 PUSH1 0x0 KECCAK256 PUSH1 0x0 SWAP2 POP SWAP1 POP DUP1 PUSH1 0x0 ADD PUSH1 0x0 SWAP1 SLOAD SWAP1 PUSH2 0x100 EXP SWAP1 DIV PUSH16 0xFFFFFFFFFFFFFFFFFFFFFFFFFFFFFFFF AND SWAP1 DUP1 PUSH1 0x0 ADD PUSH1 0x10 SWAP1 SLOAD SWAP1 PUSH2 0x100 EXP SWAP1 DIV PUSH16 0xFFFFFFFFFFFFFFFFFFFFFFFFFFFFFFFF AND SWAP1 POP DUP3 JUMP JUMPDEST PUSH1 0x0 DUP8 DUP12 PUSH1 0x0 ADD PUSH1 0x0 PUSH2 0x100 EXP DUP2 SLOAD DUP2 PUSH20 0xFFFFFFFFFFFFFFFFFFFFFFFFFFFFFFFFFFFFFFFF MUL NOT AND SWAP1 DUP4 PUSH20 0xFFFFFFFFFFFFFFFFFFFFFFFFFFFFFFFFFFFFFFFF AND MUL OR SWAP1 SSTORE POP DUP10 DUP12 PUSH1 0x0 ADD PUSH1 0x14 PUSH2 0x100 EXP DUP2 SLOAD DUP2 PUSH1 0xFF MUL NOT AND SWAP1 DUP4 PUSH1 0xFF AND MUL OR SWAP1 SSTORE POP DUP5 DUP12 PUSH1 0x1 ADD SWAP1 DUP1 MLOAD SWAP1 PUSH1 0x20 ADD SWAP1 PUSH2 0xFCE SWAP3 SWAP2 SWAP1 PUSH2 0x1D5F JUMP JUMPDEST POP DUP7 DUP12 PUSH1 0x2 ADD DUP2 SWAP1 SSTORE POP DUP6 DUP12 PUSH1 0x3 ADD DUP2 SWAP1 SSTORE POP DUP3 DUP3 SWAP1 POP DUP12 PUSH1 0x4 ADD PUSH1 0x0 PUSH2 0x100 EXP DUP2 SLOAD DUP2 PUSH2 0xFFFF MUL NOT AND SWAP1 DUP4 PUSH2 0xFFFF AND MUL OR SWAP1 SSTORE POP DUP4 DUP12 PUSH1 0x5 ADD DUP2 SWAP1 SSTORE POP PUSH1 0x0 JUMPDEST DUP4 DUP4 SWAP1 POP DUP2 LT ISZERO PUSH2 0x10DF JUMPI PUSH1 0x1 DUP13 PUSH1 0x7 ADD DUP6 DUP6 DUP5 DUP2 DUP2 LT PUSH2 0x1033 JUMPI PUSH2 0x1032 PUSH2 0x34BC JUMP JUMPDEST JUMPDEST SWAP1 POP PUSH1 0x20 MUL DUP2 ADD SWAP1 PUSH2 0x1045 SWAP2 SWAP1 PUSH2 0x2F23 JUMP JUMPDEST PUSH1 0x40 MLOAD PUSH2 0x1053 SWAP3 SWAP2 SWAP1 PUSH2 0x2A17 JUMP JUMPDEST SWAP1 DUP2 MSTORE PUSH1 0x20 ADD PUSH1 0x40 MLOAD DUP1 SWAP2 SUB SWAP1 KECCAK256 PUSH1 0x0 PUSH2 0x100 EXP DUP2 SLOAD DUP2 PUSH1 0xFF MUL NOT AND SWAP1 DUP4 ISZERO ISZERO MUL OR SWAP1 SSTORE POP DUP4 DUP4 DUP3 DUP2 DUP2 LT PUSH2 0x108B JUMPI PUSH2 0x108A PUSH2 0x34BC JUMP JUMPDEST JUMPDEST SWAP1 POP PUSH1 0x20 MUL DUP2 ADD SWAP1 PUSH2 0x109D SWAP2 SWAP1 PUSH2 0x2F23 JUMP JUMPDEST DUP14 PUSH1 0x8 ADD PUSH1 0x0 PUSH1 0x1 DUP6 PUSH2 0x10B0 SWAP2 SWAP1 PUSH2 0x31A9 JUMP JUMPDEST DUP2 MSTORE PUSH1 0x20 ADD SWAP1 DUP2 MSTORE PUSH1 0x20 ADD PUSH1 0x0 KECCAK256 SWAP2 SWAP1 PUSH2 0x10CB SWAP3 SWAP2 SWAP1 PUSH2 0x1DE5 JUMP JUMPDEST POP DUP1 DUP1 PUSH2 0x10D7 SWAP1 PUSH2 0x3415 JUMP JUMPDEST SWAP2 POP POP PUSH2 0x100F JUMP JUMPDEST POP PUSH1 0x0 JUMPDEST DUP10 MLOAD DUP2 LT ISZERO PUSH2 0x1173 JUMPI PUSH1 0x1 DUP13 PUSH1 0x6 ADD PUSH1 0x0 DUP13 DUP5 DUP2 MLOAD DUP2 LT PUSH2 0x1107 JUMPI PUSH2 0x1106 PUSH2 0x34BC JUMP JUMPDEST JUMPDEST PUSH1 0x20 MUL PUSH1 0x20 ADD ADD MLOAD PUSH20 0xFFFFFFFFFFFFFFFFFFFFFFFFFFFFFFFFFFFFFFFF AND PUSH20 0xFFFFFFFFFFFFFFFFFFFFFFFFFFFFFFFFFFFFFFFF AND DUP2 MSTORE PUSH1 0x20 ADD SWAP1 DUP2 MSTORE PUSH1 0x20 ADD PUSH1 0x0 KECCAK256 PUSH1 0x0 PUSH2 0x100 EXP DUP2 SLOAD DUP2 PUSH1 0xFF MUL NOT AND SWAP1 DUP4 ISZERO ISZERO MUL OR SWAP1 SSTORE POP DUP1 DUP1 PUSH2 0x116B SWAP1 PUSH2 0x3415 JUMP JUMPDEST SWAP2 POP POP PUSH2 0x10E3 JUMP JUMPDEST POP PUSH1 0x1 SWAP1 POP SWAP11 SWAP10 POP POP POP POP POP POP POP POP POP POP JUMP JUMPDEST PUSH2 0x118E PUSH2 0x1277 JUMP JUMPDEST DUP1 PUSH20 0xFFFFFFFFFFFFFFFFFFFFFFFFFFFFFFFFFFFFFFFF AND PUSH1 0x4 PUSH1 0x0 SWAP1 SLOAD SWAP1 PUSH2 0x100 EXP SWAP1 DIV PUSH20 0xFFFFFFFFFFFFFFFFFFFFFFFFFFFFFFFFFFFFFFFF AND PUSH20 0xFFFFFFFFFFFFFFFFFFFFFFFFFFFFFFFFFFFFFFFF AND EQ PUSH2 0x11E8 JUMPI PUSH1 0x0 DUP1 REVERT JUMPDEST PUSH2 0x11F2 DUP4 DUP4 PUSH2 0x1AB2 JUMP JUMPDEST POP POP POP JUMP JUMPDEST PUSH1 0x0 DUP5 DUP7 PUSH1 0x0 ADD DUP2 SWAP1 SSTORE POP DUP4 DUP7 PUSH1 0x1 ADD PUSH1 0x0 PUSH2 0x100 EXP DUP2 SLOAD DUP2 PUSH20 0xFFFFFFFFFFFFFFFFFFFFFFFFFFFFFFFFFFFFFFFF MUL NOT AND SWAP1 DUP4 PUSH20 0xFFFFFFFFFFFFFFFFFFFFFFFFFFFFFFFFFFFFFFFF AND MUL OR SWAP1 SSTORE POP DUP3 DUP7 PUSH1 0x1 ADD PUSH1 0x14 PUSH2 0x100 EXP DUP2 SLOAD DUP2 PUSH1 0xFF MUL NOT AND SWAP1 DUP4 ISZERO ISZERO MUL OR SWAP1 SSTORE POP DUP2 DUP7 PUSH1 0x2 ADD DUP2 SWAP1 SSTORE POP PUSH1 0x1 SWAP1 POP SWAP6 SWAP5 POP POP POP POP POP JUMP JUMPDEST PUSH1 0x0 CALLER SWAP1 POP SWAP1 JUMP JUMPDEST PUSH1 0x0 DUP3 PUSH1 0x0 ADD PUSH1 0x0 DUP2 DUP2 SWAP1 SLOAD SWAP1 PUSH2 0x100 EXP SWAP1 DIV PUSH16 0xFFFFFFFFFFFFFFFFFFFFFFFFFFFFFFFF AND DUP1 SWAP3 SWAP2 SWAP1 PUSH2 0x12B1 SWAP1 PUSH2 0x33B1 JUMP JUMPDEST SWAP2 SWAP1 PUSH2 0x100 EXP DUP2 SLOAD DUP2 PUSH16 0xFFFFFFFFFFFFFFFFFFFFFFFFFFFFFFFF MUL NOT AND SWAP1 DUP4 PUSH16 0xFFFFFFFFFFFFFFFFFFFFFFFFFFFFFFFF AND MUL OR SWAP1 SSTORE POP POP DUP2 DUP4 PUSH1 0x1 ADD PUSH1 0x0 DUP6 PUSH1 0x0 ADD PUSH1 0x0 SWAP1 SLOAD SWAP1 PUSH2 0x100 EXP SWAP1 DIV PUSH16 0xFFFFFFFFFFFFFFFFFFFFFFFFFFFFFFFF AND PUSH16 0xFFFFFFFFFFFFFFFFFFFFFFFFFFFFFFFF AND PUSH16 0xFFFFFFFFFFFFFFFFFFFFFFFFFFFFFFFF AND DUP2 MSTORE PUSH1 0x20 ADD SWAP1 DUP2 MSTORE PUSH1 0x20 ADD PUSH1 0x0 KECCAK256 DUP2 SWAP1 SSTORE POP PUSH1 0x1 SWAP1 POP SWAP3 SWAP2 POP POP JUMP JUMPDEST PUSH1 0x0 PUSH1 0x2 DUP6 PUSH1 0x0 ADD PUSH1 0x14 SWAP1 SLOAD SWAP1 PUSH2 0x100 EXP SWAP1 DIV PUSH1 0xFF AND PUSH1 0xFF AND EQ PUSH2 0x13A9 JUMPI PUSH1 0x40 MLOAD PUSH32 0x8C379A000000000000000000000000000000000000000000000000000000000 DUP2 MSTORE PUSH1 0x4 ADD PUSH2 0x13A0 SWAP1 PUSH2 0x2B11 JUMP JUMPDEST PUSH1 0x40 MLOAD DUP1 SWAP2 SUB SWAP1 REVERT JUMPDEST DUP5 PUSH1 0x2 ADD SLOAD TIMESTAMP LT ISZERO PUSH2 0x13F0 JUMPI PUSH1 0x40 MLOAD PUSH32 0x8C379A000000000000000000000000000000000000000000000000000000000 DUP2 MSTORE PUSH1 0x4 ADD PUSH2 0x13E7 SWAP1 PUSH2 0x2BF1 JUMP JUMPDEST PUSH1 0x40 MLOAD DUP1 SWAP2 SUB SWAP1 REVERT JUMPDEST DUP5 PUSH1 0x3 ADD SLOAD TIMESTAMP GT ISZERO PUSH2 0x1646 JUMPI PUSH1 0x2 DUP6 PUSH1 0x0 ADD PUSH1 0x14 PUSH2 0x100 EXP DUP2 SLOAD DUP2 PUSH1 0xFF MUL NOT AND SWAP1 DUP4 PUSH1 0xFF AND MUL OR SWAP1 SSTORE POP PUSH1 0x0 DUP6 PUSH1 0xA ADD DUP7 PUSH1 0x8 ADD PUSH1 0x0 PUSH1 0x1 DUP2 MSTORE PUSH1 0x20 ADD SWAP1 DUP2 MSTORE PUSH1 0x20 ADD PUSH1 0x0 KECCAK256 PUSH1 0x40 MLOAD PUSH2 0x1443 SWAP2 SWAP1 PUSH2 0x2A47 JUMP JUMPDEST SWAP1 DUP2 MSTORE PUSH1 0x20 ADD PUSH1 0x40 MLOAD DUP1 SWAP2 SUB SWAP1 KECCAK256 SLOAD SWAP1 POP PUSH1 0x0 PUSH1 0x1 SWAP1 POP DUP7 PUSH1 0x8 ADD PUSH1 0x0 PUSH1 0x1 DUP2 MSTORE PUSH1 0x20 ADD SWAP1 DUP2 MSTORE PUSH1 0x20 ADD PUSH1 0x0 KECCAK256 DUP8 PUSH1 0x9 ADD PUSH1 0x0 PUSH1 0x1 DUP2 MSTORE PUSH1 0x20 ADD SWAP1 DUP2 MSTORE PUSH1 0x20 ADD PUSH1 0x0 KECCAK256 SWAP1 DUP1 SLOAD PUSH2 0x1492 SWAP1 PUSH2 0x334E JUMP JUMPDEST PUSH2 0x149D SWAP3 SWAP2 SWAP1 PUSH2 0x1E6B JUMP JUMPDEST POP PUSH1 0x0 PUSH1 0x2 SWAP1 POP JUMPDEST DUP8 PUSH1 0x4 ADD PUSH1 0x0 SWAP1 SLOAD SWAP1 PUSH2 0x100 EXP SWAP1 DIV PUSH2 0xFFFF AND PUSH2 0xFFFF AND DUP2 PUSH2 0xFFFF AND GT PUSH2 0x163A JUMPI DUP3 DUP9 PUSH1 0xA ADD DUP10 PUSH1 0x8 ADD PUSH1 0x0 DUP5 PUSH2 0xFFFF AND DUP2 MSTORE PUSH1 0x20 ADD SWAP1 DUP2 MSTORE PUSH1 0x20 ADD PUSH1 0x0 KECCAK256 PUSH1 0x40 MLOAD PUSH2 0x14F1 SWAP2 SWAP1 PUSH2 0x2A47 JUMP JUMPDEST SWAP1 DUP2 MSTORE PUSH1 0x20 ADD PUSH1 0x40 MLOAD DUP1 SWAP2 SUB SWAP1 KECCAK256 SLOAD GT ISZERO PUSH2 0x1591 JUMPI DUP8 PUSH1 0xA ADD DUP9 PUSH1 0x8 ADD PUSH1 0x0 DUP4 PUSH2 0xFFFF AND DUP2 MSTORE PUSH1 0x20 ADD SWAP1 DUP2 MSTORE PUSH1 0x20 ADD PUSH1 0x0 KECCAK256 PUSH1 0x40 MLOAD PUSH2 0x1530 SWAP2 SWAP1 PUSH2 0x2A47 JUMP JUMPDEST SWAP1 DUP2 MSTORE PUSH1 0x20 ADD PUSH1 0x40 MLOAD DUP1 SWAP2 SUB SWAP1 KECCAK256 SLOAD SWAP3 POP PUSH1 0x1 SWAP2 POP DUP8 PUSH1 0x8 ADD PUSH1 0x0 DUP3 PUSH2 0xFFFF AND DUP2 MSTORE PUSH1 0x20 ADD SWAP1 DUP2 MSTORE PUSH1 0x20 ADD PUSH1 0x0 KECCAK256 DUP9 PUSH1 0x9 ADD PUSH1 0x0 PUSH1 0x1 DUP2 MSTORE PUSH1 0x20 ADD SWAP1 DUP2 MSTORE PUSH1 0x20 ADD PUSH1 0x0 KECCAK256 SWAP1 DUP1 SLOAD PUSH2 0x1580 SWAP1 PUSH2 0x334E JUMP JUMPDEST PUSH2 0x158B SWAP3 SWAP2 SWAP1 PUSH2 0x1E6B JUMP JUMPDEST POP PUSH2 0x1627 JUMP JUMPDEST DUP3 DUP9 PUSH1 0xA ADD DUP10 PUSH1 0x8 ADD PUSH1 0x0 DUP5 PUSH2 0xFFFF AND DUP2 MSTORE PUSH1 0x20 ADD SWAP1 DUP2 MSTORE PUSH1 0x20 ADD PUSH1 0x0 KECCAK256 PUSH1 0x40 MLOAD PUSH2 0x15BC SWAP2 SWAP1 PUSH2 0x2A47 JUMP JUMPDEST SWAP1 DUP2 MSTORE PUSH1 0x20 ADD PUSH1 0x40 MLOAD DUP1 SWAP2 SUB SWAP1 KECCAK256 SLOAD EQ ISZERO PUSH2 0x1626 JUMPI DUP2 DUP1 PUSH2 0x15DC SWAP1 PUSH2 0x3415 JUMP JUMPDEST SWAP3 POP POP DUP8 PUSH1 0x8 ADD PUSH1 0x0 DUP3 PUSH2 0xFFFF AND DUP2 MSTORE PUSH1 0x20 ADD SWAP1 DUP2 MSTORE PUSH1 0x20 ADD PUSH1 0x0 KECCAK256 DUP9 PUSH1 0x9 ADD PUSH1 0x0 DUP5 DUP2 MSTORE PUSH1 0x20 ADD SWAP1 DUP2 MSTORE PUSH1 0x20 ADD PUSH1 0x0 KECCAK256 SWAP1 DUP1 SLOAD PUSH2 0x1619 SWAP1 PUSH2 0x334E JUMP JUMPDEST PUSH2 0x1624 SWAP3 SWAP2 SWAP1 PUSH2 0x1E6B JUMP JUMPDEST POP JUMPDEST JUMPDEST DUP1 DUP1 PUSH2 0x1632 SWAP1 PUSH2 0x33EA JUMP JUMPDEST SWAP2 POP POP PUSH2 0x14A5 JUMP JUMPDEST POP PUSH1 0x0 SWAP3 POP POP POP PUSH2 0x17FE JUMP JUMPDEST DUP5 PUSH1 0x6 ADD PUSH1 0x0 DUP6 PUSH20 0xFFFFFFFFFFFFFFFFFFFFFFFFFFFFFFFFFFFFFFFF AND PUSH20 0xFFFFFFFFFFFFFFFFFFFFFFFFFFFFFFFFFFFFFFFF AND DUP2 MSTORE PUSH1 0x20 ADD SWAP1 DUP2 MSTORE PUSH1 0x20 ADD PUSH1 0x0 KECCAK256 PUSH1 0x0 SWAP1 SLOAD SWAP1 PUSH2 0x100 EXP SWAP1 DIV PUSH1 0xFF AND PUSH2 0x16D4 JUMPI PUSH1 0x40 MLOAD PUSH32 0x8C379A000000000000000000000000000000000000000000000000000000000 DUP2 MSTORE PUSH1 0x4 ADD PUSH2 0x16CB SWAP1 PUSH2 0x2C31 JUMP JUMPDEST PUSH1 0x40 MLOAD DUP1 SWAP2 SUB SWAP1 REVERT JUMPDEST PUSH1 0x0 JUMPDEST DUP6 PUSH1 0x4 ADD PUSH1 0x0 SWAP1 SLOAD SWAP1 PUSH2 0x100 EXP SWAP1 DIV PUSH2 0xFFFF AND PUSH2 0xFFFF AND DUP2 PUSH2 0xFFFF AND LT ISZERO PUSH2 0x17F8 JUMPI DUP6 PUSH1 0x7 ADD DUP5 DUP3 PUSH2 0xFFFF AND DUP2 MLOAD DUP2 LT PUSH2 0x1714 JUMPI PUSH2 0x1713 PUSH2 0x34BC JUMP JUMPDEST JUMPDEST PUSH1 0x20 MUL PUSH1 0x20 ADD ADD MLOAD PUSH1 0x40 MLOAD PUSH2 0x1729 SWAP2 SWAP1 PUSH2 0x2A30 JUMP JUMPDEST SWAP1 DUP2 MSTORE PUSH1 0x20 ADD PUSH1 0x40 MLOAD DUP1 SWAP2 SUB SWAP1 KECCAK256 PUSH1 0x0 SWAP1 SLOAD SWAP1 PUSH2 0x100 EXP SWAP1 DIV PUSH1 0xFF AND PUSH2 0x1784 JUMPI PUSH1 0x40 MLOAD PUSH32 0x8C379A000000000000000000000000000000000000000000000000000000000 DUP2 MSTORE PUSH1 0x4 ADD PUSH2 0x177B SWAP1 PUSH2 0x2B91 JUMP JUMPDEST PUSH1 0x40 MLOAD DUP1 SWAP2 SUB SWAP1 REVERT JUMPDEST DUP3 DUP2 PUSH2 0xFFFF AND DUP2 MLOAD DUP2 LT PUSH2 0x179B JUMPI PUSH2 0x179A PUSH2 0x34BC JUMP JUMPDEST JUMPDEST PUSH1 0x20 MUL PUSH1 0x20 ADD ADD MLOAD DUP7 PUSH1 0xA ADD DUP6 DUP4 PUSH2 0xFFFF AND DUP2 MLOAD DUP2 LT PUSH2 0x17BE JUMPI PUSH2 0x17BD PUSH2 0x34BC JUMP JUMPDEST JUMPDEST PUSH1 0x20 MUL PUSH1 0x20 ADD ADD MLOAD PUSH1 0x40 MLOAD PUSH2 0x17D3 SWAP2 SWAP1 PUSH2 0x2A30 JUMP JUMPDEST SWAP1 DUP2 MSTORE PUSH1 0x20 ADD PUSH1 0x40 MLOAD DUP1 SWAP2 SUB SWAP1 KECCAK256 DUP2 SWAP1 SSTORE POP DUP1 DUP1 PUSH2 0x17F0 SWAP1 PUSH2 0x33EA JUMP JUMPDEST SWAP2 POP POP PUSH2 0x16D7 JUMP JUMPDEST POP PUSH1 0x1 SWAP1 POP JUMPDEST SWAP5 SWAP4 POP POP POP POP JUMP JUMPDEST PUSH1 0x0 DUP4 PUSH1 0x0 ADD PUSH1 0x10 DUP2 DUP2 SWAP1 SLOAD SWAP1 PUSH2 0x100 EXP SWAP1 DIV PUSH16 0xFFFFFFFFFFFFFFFFFFFFFFFFFFFFFFFF AND DUP1 SWAP3 SWAP2 SWAP1 PUSH2 0x1838 SWAP1 PUSH2 0x33B1 JUMP JUMPDEST SWAP2 SWAP1 PUSH2 0x100 EXP DUP2 SLOAD DUP2 PUSH16 0xFFFFFFFFFFFFFFFFFFFFFFFFFFFFFFFF MUL NOT AND SWAP1 DUP4 PUSH16 0xFFFFFFFFFFFFFFFFFFFFFFFFFFFFFFFF AND MUL OR SWAP1 SSTORE POP POP DUP3 DUP5 PUSH1 0x2 ADD PUSH1 0x0 DUP7 PUSH1 0x0 ADD PUSH1 0x10 SWAP1 SLOAD SWAP1 PUSH2 0x100 EXP SWAP1 DIV PUSH16 0xFFFFFFFFFFFFFFFFFFFFFFFFFFFFFFFF AND PUSH16 0xFFFFFFFFFFFFFFFFFFFFFFFFFFFFFFFF AND PUSH16 0xFFFFFFFFFFFFFFFFFFFFFFFFFFFFFFFF AND DUP2 MSTORE PUSH1 0x20 ADD SWAP1 DUP2 MSTORE PUSH1 0x20 ADD PUSH1 0x0 KECCAK256 DUP2 SWAP1 SSTORE POP PUSH1 0x0 JUMPDEST DUP3 MLOAD DUP2 PUSH2 0xFFFF AND LT ISZERO PUSH2 0x1959 JUMPI DUP3 DUP2 PUSH2 0xFFFF AND DUP2 MLOAD DUP2 LT PUSH2 0x18F4 JUMPI PUSH2 0x18F3 PUSH2 0x34BC JUMP JUMPDEST JUMPDEST PUSH1 0x20 MUL PUSH1 0x20 ADD ADD MLOAD DUP6 PUSH1 0x3 ADD PUSH1 0x0 DUP7 DUP2 MSTORE PUSH1 0x20 ADD SWAP1 DUP2 MSTORE PUSH1 0x20 ADD PUSH1 0x0 KECCAK256 PUSH1 0x0 PUSH1 0x1 DUP5 PUSH2 0x1920 SWAP2 SWAP1 PUSH2 0x3171 JUMP JUMPDEST PUSH2 0xFFFF AND DUP2 MSTORE PUSH1 0x20 ADD SWAP1 DUP2 MSTORE PUSH1 0x20 ADD PUSH1 0x0 KECCAK256 SWAP1 DUP1 MLOAD SWAP1 PUSH1 0x20 ADD SWAP1 PUSH2 0x1945 SWAP3 SWAP2 SWAP1 PUSH2 0x1D5F JUMP JUMPDEST POP DUP1 DUP1 PUSH2 0x1951 SWAP1 PUSH2 0x33EA JUMP JUMPDEST SWAP2 POP POP PUSH2 0x18D0 JUMP JUMPDEST POP PUSH1 0x1 DUP5 PUSH1 0x4 ADD PUSH1 0x0 DUP6 DUP2 MSTORE PUSH1 0x20 ADD SWAP1 DUP2 MSTORE PUSH1 0x20 ADD PUSH1 0x0 KECCAK256 PUSH1 0x0 PUSH2 0x100 EXP DUP2 SLOAD DUP2 PUSH1 0xFF MUL NOT AND SWAP1 DUP4 ISZERO ISZERO MUL OR SWAP1 SSTORE POP PUSH1 0x1 SWAP1 POP SWAP4 SWAP3 POP POP POP JUMP JUMPDEST PUSH1 0x0 DUP1 DUP3 PUSH1 0x0 ADD SLOAD EQ ISZERO PUSH2 0x19DC JUMPI PUSH1 0x40 MLOAD PUSH32 0x8C379A000000000000000000000000000000000000000000000000000000000 DUP2 MSTORE PUSH1 0x4 ADD PUSH2 0x19D3 SWAP1 PUSH2 0x2D2D JUMP JUMPDEST PUSH1 0x40 MLOAD DUP1 SWAP2 SUB SWAP1 REVERT JUMPDEST DUP2 PUSH1 0x1 ADD PUSH1 0x14 SWAP1 SLOAD SWAP1 PUSH2 0x100 EXP SWAP1 DIV PUSH1 0xFF AND ISZERO PUSH2 0x1A2E JUMPI PUSH1 0x40 MLOAD PUSH32 0x8C379A000000000000000000000000000000000000000000000000000000000 DUP2 MSTORE PUSH1 0x4 ADD PUSH2 0x1A25 SWAP1 PUSH2 0x2D89 JUMP JUMPDEST PUSH1 0x40 MLOAD DUP1 SWAP2 SUB SWAP1 REVERT JUMPDEST PUSH1 0x0 DUP3 PUSH1 0x2 ADD DUP2 SWAP1 SSTORE POP PUSH1 0x1 SWAP1 POP SWAP2 SWAP1 POP JUMP JUMPDEST PUSH2 0x1A49 PUSH2 0x1277 JUMP JUMPDEST DUP1 PUSH20 0xFFFFFFFFFFFFFFFFFFFFFFFFFFFFFFFFFFFFFFFF AND PUSH1 0x4 PUSH1 0x0 SWAP1 SLOAD SWAP1 PUSH2 0x100 EXP SWAP1 DIV PUSH20 0xFFFFFFFFFFFFFFFFFFFFFFFFFFFFFFFFFFFFFFFF AND PUSH20 0xFFFFFFFFFFFFFFFFFFFFFFFFFFFFFFFFFFFFFFFF AND EQ PUSH2 0x1AA3 JUMPI PUSH1 0x0 DUP1 REVERT JUMPDEST PUSH2 0x1AAD DUP4 DUP4 PUSH2 0x1BCD JUMP JUMPDEST POP POP POP JUMP JUMPDEST PUSH1 0x0 PUSH20 0xFFFFFFFFFFFFFFFFFFFFFFFFFFFFFFFFFFFFFFFF AND DUP3 PUSH20 0xFFFFFFFFFFFFFFFFFFFFFFFFFFFFFFFFFFFFFFFF AND EQ ISZERO PUSH2 0x1B22 JUMPI PUSH1 0x40 MLOAD PUSH32 0x8C379A000000000000000000000000000000000000000000000000000000000 DUP2 MSTORE PUSH1 0x4 ADD PUSH2 0x1B19 SWAP1 PUSH2 0x2DA9 JUMP JUMPDEST PUSH1 0x40 MLOAD DUP1 SWAP2 SUB SWAP1 REVERT JUMPDEST DUP1 PUSH1 0x1 PUSH1 0x0 DUP3 DUP3 SLOAD PUSH2 0x1B34 SWAP2 SWAP1 PUSH2 0x31A9 JUMP JUMPDEST SWAP3 POP POP DUP2 SWAP1 SSTORE POP DUP1 PUSH1 0x0 DUP1 DUP5 PUSH20 0xFFFFFFFFFFFFFFFFFFFFFFFFFFFFFFFFFFFFFFFF AND PUSH20 0xFFFFFFFFFFFFFFFFFFFFFFFFFFFFFFFFFFFFFFFF AND DUP2 MSTORE PUSH1 0x20 ADD SWAP1 DUP2 MSTORE PUSH1 0x20 ADD PUSH1 0x0 KECCAK256 PUSH1 0x0 DUP3 DUP3 SLOAD PUSH2 0x1B89 SWAP2 SWAP1 PUSH2 0x31A9 JUMP JUMPDEST SWAP3 POP POP DUP2 SWAP1 SSTORE POP PUSH32 0xABF5327BE9F5825C40D58BDA541DD07F09B62DF3376BBD5ECDBAA8BD82A9D492 DUP3 DUP3 PUSH1 0x40 MLOAD PUSH2 0x1BC1 SWAP3 SWAP2 SWAP1 PUSH2 0x2CF1 JUMP JUMPDEST PUSH1 0x40 MLOAD DUP1 SWAP2 SUB SWAP1 LOG1 POP POP JUMP JUMPDEST PUSH1 0x0 PUSH20 0xFFFFFFFFFFFFFFFFFFFFFFFFFFFFFFFFFFFFFFFF AND DUP3 PUSH20 0xFFFFFFFFFFFFFFFFFFFFFFFFFFFFFFFFFFFFFFFF AND EQ ISZERO PUSH2 0x1C3D JUMPI PUSH1 0x40 MLOAD PUSH32 0x8C379A000000000000000000000000000000000000000000000000000000000 DUP2 MSTORE PUSH1 0x4 ADD PUSH2 0x1C34 SWAP1 PUSH2 0x2CB1 JUMP JUMPDEST PUSH1 0x40 MLOAD DUP1 SWAP2 SUB SWAP1 REVERT JUMPDEST PUSH1 0x0 DUP1 PUSH1 0x0 DUP5 PUSH20 0xFFFFFFFFFFFFFFFFFFFFFFFFFFFFFFFFFFFFFFFF AND PUSH20 0xFFFFFFFFFFFFFFFFFFFFFFFFFFFFFFFFFFFFFFFF AND DUP2 MSTORE PUSH1 0x20 ADD SWAP1 DUP2 MSTORE PUSH1 0x20 ADD PUSH1 0x0 KECCAK256 SLOAD SWAP1 POP DUP2 DUP2 LT ISZERO PUSH2 0x1CC3 JUMPI PUSH1 0x40 MLOAD PUSH32 0x8C379A000000000000000000000000000000000000000000000000000000000 DUP2 MSTORE PUSH1 0x4 ADD PUSH2 0x1CBA SWAP1 PUSH2 0x2B51 JUMP JUMPDEST PUSH1 0x40 MLOAD DUP1 SWAP2 SUB SWAP1 REVERT JUMPDEST DUP2 DUP2 SUB PUSH1 0x0 DUP1 DUP6 PUSH20 0xFFFFFFFFFFFFFFFFFFFFFFFFFFFFFFFFFFFFFFFF AND PUSH20 0xFFFFFFFFFFFFFFFFFFFFFFFFFFFFFFFFFFFFFFFF AND DUP2 MSTORE PUSH1 0x20 ADD SWAP1 DUP2 MSTORE PUSH1 0x20 ADD PUSH1 0x0 KECCAK256 DUP2 SWAP1 SSTORE POP DUP2 PUSH1 0x1 PUSH1 0x0 DUP3 DUP3 SLOAD PUSH2 0x1D1A SWAP2 SWAP1 PUSH2 0x3259 JUMP JUMPDEST SWAP3 POP POP DUP2 SWAP1 SSTORE POP PUSH32 0xABF5327BE9F5825C40D58BDA541DD07F09B62DF3376BBD5ECDBAA8BD82A9D492 DUP4 DUP4 PUSH1 0x40 MLOAD PUSH2 0x1D52 SWAP3 SWAP2 SWAP1 PUSH2 0x2D4D JUMP JUMPDEST PUSH1 0x40 MLOAD DUP1 SWAP2 SUB SWAP1 LOG1 POP POP POP JUMP JUMPDEST DUP3 DUP1 SLOAD PUSH2 0x1D6B SWAP1 PUSH2 0x334E JUMP JUMPDEST SWAP1 PUSH1 0x0 MSTORE PUSH1 0x20 PUSH1 0x0 KECCAK256 SWAP1 PUSH1 0x1F ADD PUSH1 0x20 SWAP1 DIV DUP2 ADD SWAP3 DUP3 PUSH2 0x1D8D JUMPI PUSH1 0x0 DUP6 SSTORE PUSH2 0x1DD4 JUMP JUMPDEST DUP3 PUSH1 0x1F LT PUSH2 0x1DA6 JUMPI DUP1 MLOAD PUSH1 0xFF NOT AND DUP4 DUP1 ADD OR DUP6 SSTORE PUSH2 0x1DD4 JUMP JUMPDEST DUP3 DUP1 ADD PUSH1 0x1 ADD DUP6 SSTORE DUP3 ISZERO PUSH2 0x1DD4 JUMPI SWAP2 DUP3 ADD JUMPDEST DUP3 DUP2 GT ISZERO PUSH2 0x1DD3 JUMPI DUP3 MLOAD DUP3 SSTORE SWAP2 PUSH1 0x20 ADD SWAP2 SWAP1 PUSH1 0x1 ADD SWAP1 PUSH2 0x1DB8 JUMP JUMPDEST JUMPDEST POP SWAP1 POP PUSH2 0x1DE1 SWAP2 SWAP1 PUSH2 0x1EF8 JUMP JUMPDEST POP SWAP1 JUMP JUMPDEST DUP3 DUP1 SLOAD PUSH2 0x1DF1 SWAP1 PUSH2 0x334E JUMP JUMPDEST SWAP1 PUSH1 0x0 MSTORE PUSH1 0x20 PUSH1 0x0 KECCAK256 SWAP1 PUSH1 0x1F ADD PUSH1 0x20 SWAP1 DIV DUP2 ADD SWAP3 DUP3 PUSH2 0x1E13 JUMPI PUSH1 0x0 DUP6 SSTORE PUSH2 0x1E5A JUMP JUMPDEST DUP3 PUSH1 0x1F LT PUSH2 0x1E2C JUMPI DUP1 CALLDATALOAD PUSH1 0xFF NOT AND DUP4 DUP1 ADD OR DUP6 SSTORE PUSH2 0x1E5A JUMP JUMPDEST DUP3 DUP1 ADD PUSH1 0x1 ADD DUP6 SSTORE DUP3 ISZERO PUSH2 0x1E5A JUMPI SWAP2 DUP3 ADD JUMPDEST DUP3 DUP2 GT ISZERO PUSH2 0x1E59 JUMPI DUP3 CALLDATALOAD DUP3 SSTORE SWAP2 PUSH1 0x20 ADD SWAP2 SWAP1 PUSH1 0x1 ADD SWAP1 PUSH2 0x1E3E JUMP JUMPDEST JUMPDEST POP SWAP1 POP PUSH2 0x1E67 SWAP2 SWAP1 PUSH2 0x1EF8 JUMP JUMPDEST POP SWAP1 JUMP JUMPDEST DUP3 DUP1 SLOAD PUSH2 0x1E77 SWAP1 PUSH2 0x334E JUMP JUMPDEST SWAP1 PUSH1 0x0 MSTORE PUSH1 0x20 PUSH1 0x0 KECCAK256 SWAP1 PUSH1 0x1F ADD PUSH1 0x20 SWAP1 DIV DUP2 ADD SWAP3 DUP3 PUSH2 0x1E99 JUMPI PUSH1 0x0 DUP6 SSTORE PUSH2 0x1EE7 JUMP JUMPDEST DUP3 PUSH1 0x1F LT PUSH2 0x1EAA JUMPI DUP1 SLOAD DUP6 SSTORE PUSH2 0x1EE7 JUMP JUMPDEST DUP3 DUP1 ADD PUSH1 0x1 ADD DUP6 SSTORE DUP3 ISZERO PUSH2 0x1EE7 JUMPI PUSH1 0x0 MSTORE PUSH1 0x20 PUSH1 0x0 KECCAK256 SWAP2 PUSH1 0x1F ADD PUSH1 0x20 SWAP1 DIV DUP3 ADD JUMPDEST DUP3 DUP2 GT ISZERO PUSH2 0x1EE6 JUMPI DUP3 SLOAD DUP3 SSTORE SWAP2 PUSH1 0x1 ADD SWAP2 SWAP1 PUSH1 0x1 ADD SWAP1 PUSH2 0x1ECB JUMP JUMPDEST JUMPDEST POP SWAP1 POP PUSH2 0x1EF4 SWAP2 SWAP1 PUSH2 0x1EF8 JUMP JUMPDEST POP SWAP1 JUMP JUMPDEST JUMPDEST DUP1 DUP3 GT ISZERO PUSH2 0x1F11 JUMPI PUSH1 0x0 DUP2 PUSH1 0x0 SWAP1 SSTORE POP PUSH1 0x1 ADD PUSH2 0x1EF9 JUMP JUMPDEST POP SWAP1 JUMP JUMPDEST PUSH1 0x0 PUSH2 0x1F28 PUSH2 0x1F23 DUP5 PUSH2 0x2FAB JUMP JUMPDEST PUSH2 0x2F86 JUMP JUMPDEST SWAP1 POP DUP1 DUP4 DUP3 MSTORE PUSH1 0x20 DUP3 ADD SWAP1 POP DUP3 DUP6 PUSH1 0x20 DUP7 MUL DUP3 ADD GT ISZERO PUSH2 0x1F4B JUMPI PUSH2 0x1F4A PUSH2 0x3538 JUMP JUMPDEST JUMPDEST PUSH1 0x0 JUMPDEST DUP6 DUP2 LT ISZERO PUSH2 0x1F7B JUMPI DUP2 PUSH2 0x1F61 DUP9 DUP3 PUSH2 0x20C5 JUMP JUMPDEST DUP5 MSTORE PUSH1 0x20 DUP5 ADD SWAP4 POP PUSH1 0x20 DUP4 ADD SWAP3 POP POP PUSH1 0x1 DUP2 ADD SWAP1 POP PUSH2 0x1F4E JUMP JUMPDEST POP POP POP SWAP4 SWAP3 POP POP POP JUMP JUMPDEST PUSH1 0x0 PUSH2 0x1F98 PUSH2 0x1F93 DUP5 PUSH2 0x2FD7 JUMP JUMPDEST PUSH2 0x2F86 JUMP JUMPDEST SWAP1 POP DUP1 DUP4 DUP3 MSTORE PUSH1 0x20 DUP3 ADD SWAP1 POP DUP3 DUP6 PUSH1 0x20 DUP7 MUL DUP3 ADD GT ISZERO PUSH2 0x1FBB JUMPI PUSH2 0x1FBA PUSH2 0x3538 JUMP JUMPDEST JUMPDEST PUSH1 0x0 JUMPDEST DUP6 DUP2 LT ISZERO PUSH2 0x2009 JUMPI DUP2 CALLDATALOAD PUSH8 0xFFFFFFFFFFFFFFFF DUP2 GT ISZERO PUSH2 0x1FE1 JUMPI PUSH2 0x1FE0 PUSH2 0x3524 JUMP JUMPDEST JUMPDEST DUP1 DUP7 ADD PUSH2 0x1FEE DUP10 DUP3 PUSH2 0x21BA JUMP JUMPDEST DUP6 MSTORE PUSH1 0x20 DUP6 ADD SWAP5 POP PUSH1 0x20 DUP5 ADD SWAP4 POP POP POP PUSH1 0x1 DUP2 ADD SWAP1 POP PUSH2 0x1FBE JUMP JUMPDEST POP POP POP SWAP4 SWAP3 POP POP POP JUMP JUMPDEST PUSH1 0x0 PUSH2 0x2026 PUSH2 0x2021 DUP5 PUSH2 0x3003 JUMP JUMPDEST PUSH2 0x2F86 JUMP JUMPDEST SWAP1 POP DUP1 DUP4 DUP3 MSTORE PUSH1 0x20 DUP3 ADD SWAP1 POP DUP3 DUP6 PUSH1 0x20 DUP7 MUL DUP3 ADD GT ISZERO PUSH2 0x2049 JUMPI PUSH2 0x2048 PUSH2 0x3538 JUMP JUMPDEST JUMPDEST PUSH1 0x0 JUMPDEST DUP6 DUP2 LT ISZERO PUSH2 0x2079 JUMPI DUP2 PUSH2 0x205F DUP9 DUP3 PUSH2 0x21E8 JUMP JUMPDEST DUP5 MSTORE PUSH1 0x20 DUP5 ADD SWAP4 POP PUSH1 0x20 DUP4 ADD SWAP3 POP POP PUSH1 0x1 DUP2 ADD SWAP1 POP PUSH2 0x204C JUMP JUMPDEST POP POP POP SWAP4 SWAP3 POP POP POP JUMP JUMPDEST PUSH1 0x0 PUSH2 0x2096 PUSH2 0x2091 DUP5 PUSH2 0x302F JUMP JUMPDEST PUSH2 0x2F86 JUMP JUMPDEST SWAP1 POP DUP3 DUP2 MSTORE PUSH1 0x20 DUP2 ADD DUP5 DUP5 DUP5 ADD GT ISZERO PUSH2 0x20B2 JUMPI PUSH2 0x20B1 PUSH2 0x3542 JUMP JUMPDEST JUMPDEST PUSH2 0x20BD DUP5 DUP3 DUP6 PUSH2 0x330C JUMP JUMPDEST POP SWAP4 SWAP3 POP POP POP JUMP JUMPDEST PUSH1 0x0 DUP2 CALLDATALOAD SWAP1 POP PUSH2 0x20D4 DUP2 PUSH2 0x39CB JUMP JUMPDEST SWAP3 SWAP2 POP POP JUMP JUMPDEST PUSH1 0x0 DUP3 PUSH1 0x1F DUP4 ADD SLT PUSH2 0x20EF JUMPI PUSH2 0x20EE PUSH2 0x3524 JUMP JUMPDEST JUMPDEST DUP2 CALLDATALOAD PUSH2 0x20FF DUP5 DUP3 PUSH1 0x20 DUP7 ADD PUSH2 0x1F15 JUMP JUMPDEST SWAP2 POP POP SWAP3 SWAP2 POP POP JUMP JUMPDEST PUSH1 0x0 DUP1 DUP4 PUSH1 0x1F DUP5 ADD SLT PUSH2 0x211E JUMPI PUSH2 0x211D PUSH2 0x3524 JUMP JUMPDEST JUMPDEST DUP3 CALLDATALOAD SWAP1 POP PUSH8 0xFFFFFFFFFFFFFFFF DUP2 GT ISZERO PUSH2 0x213B JUMPI PUSH2 0x213A PUSH2 0x351F JUMP JUMPDEST JUMPDEST PUSH1 0x20 DUP4 ADD SWAP2 POP DUP4 PUSH1 0x20 DUP3 MUL DUP4 ADD GT ISZERO PUSH2 0x2157 JUMPI PUSH2 0x2156 PUSH2 0x3538 JUMP JUMPDEST JUMPDEST SWAP3 POP SWAP3 SWAP1 POP JUMP JUMPDEST PUSH1 0x0 DUP3 PUSH1 0x1F DUP4 ADD SLT PUSH2 0x2173 JUMPI PUSH2 0x2172 PUSH2 0x3524 JUMP JUMPDEST JUMPDEST DUP2 CALLDATALOAD PUSH2 0x2183 DUP5 DUP3 PUSH1 0x20 DUP7 ADD PUSH2 0x1F85 JUMP JUMPDEST SWAP2 POP POP SWAP3 SWAP2 POP POP JUMP JUMPDEST PUSH1 0x0 DUP3 PUSH1 0x1F DUP4 ADD SLT PUSH2 0x21A1 JUMPI PUSH2 0x21A0 PUSH2 0x3524 JUMP JUMPDEST JUMPDEST DUP2 CALLDATALOAD PUSH2 0x21B1 DUP5 DUP3 PUSH1 0x20 DUP7 ADD PUSH2 0x2013 JUMP JUMPDEST SWAP2 POP POP SWAP3 SWAP2 POP POP JUMP JUMPDEST PUSH1 0x0 DUP3 PUSH1 0x1F DUP4 ADD SLT PUSH2 0x21CF JUMPI PUSH2 0x21CE PUSH2 0x3524 JUMP JUMPDEST JUMPDEST DUP2 CALLDATALOAD PUSH2 0x21DF DUP5 DUP3 PUSH1 0x20 DUP7 ADD PUSH2 0x2083 JUMP JUMPDEST SWAP2 POP POP SWAP3 SWAP2 POP POP JUMP JUMPDEST PUSH1 0x0 DUP2 CALLDATALOAD SWAP1 POP PUSH2 0x21F7 DUP2 PUSH2 0x39E2 JUMP JUMPDEST SWAP3 SWAP2 POP POP JUMP JUMPDEST PUSH1 0x0 DUP2 CALLDATALOAD SWAP1 POP PUSH2 0x220C DUP2 PUSH2 0x39F9 JUMP JUMPDEST SWAP3 SWAP2 POP POP JUMP JUMPDEST PUSH1 0x0 PUSH1 0x20 DUP3 DUP5 SUB SLT ISZERO PUSH2 0x2228 JUMPI PUSH2 0x2227 PUSH2 0x3551 JUMP JUMPDEST JUMPDEST PUSH1 0x0 PUSH2 0x2236 DUP5 DUP3 DUP6 ADD PUSH2 0x20C5 JUMP JUMPDEST SWAP2 POP POP SWAP3 SWAP2 POP POP JUMP JUMPDEST PUSH1 0x0 DUP1 PUSH1 0x40 DUP4 DUP6 SUB SLT ISZERO PUSH2 0x2256 JUMPI PUSH2 0x2255 PUSH2 0x3551 JUMP JUMPDEST JUMPDEST PUSH1 0x0 PUSH2 0x2264 DUP6 DUP3 DUP7 ADD PUSH2 0x20C5 JUMP JUMPDEST SWAP3 POP POP PUSH1 0x20 PUSH2 0x2275 DUP6 DUP3 DUP7 ADD PUSH2 0x21E8 JUMP JUMPDEST SWAP2 POP POP SWAP3 POP SWAP3 SWAP1 POP JUMP JUMPDEST PUSH1 0x0 PUSH1 0x20 DUP3 DUP5 SUB SLT ISZERO PUSH2 0x2295 JUMPI PUSH2 0x2294 PUSH2 0x3551 JUMP JUMPDEST JUMPDEST PUSH1 0x0 PUSH2 0x22A3 DUP5 DUP3 DUP6 ADD PUSH2 0x21E8 JUMP JUMPDEST SWAP2 POP POP SWAP3 SWAP2 POP POP JUMP JUMPDEST PUSH1 0x0 DUP1 PUSH1 0x0 DUP1 PUSH1 0x80 DUP6 DUP8 SUB SLT ISZERO PUSH2 0x22C6 JUMPI PUSH2 0x22C5 PUSH2 0x3551 JUMP JUMPDEST JUMPDEST PUSH1 0x0 PUSH2 0x22D4 DUP8 DUP3 DUP9 ADD PUSH2 0x21E8 JUMP JUMPDEST SWAP5 POP POP PUSH1 0x20 PUSH2 0x22E5 DUP8 DUP3 DUP9 ADD PUSH2 0x20C5 JUMP JUMPDEST SWAP4 POP POP PUSH1 0x40 DUP6 ADD CALLDATALOAD PUSH8 0xFFFFFFFFFFFFFFFF DUP2 GT ISZERO PUSH2 0x2306 JUMPI PUSH2 0x2305 PUSH2 0x3547 JUMP JUMPDEST JUMPDEST PUSH2 0x2312 DUP8 DUP3 DUP9 ADD PUSH2 0x215E JUMP JUMPDEST SWAP3 POP POP PUSH1 0x60 DUP6 ADD CALLDATALOAD PUSH8 0xFFFFFFFFFFFFFFFF DUP2 GT ISZERO PUSH2 0x2333 JUMPI PUSH2 0x2332 PUSH2 0x3547 JUMP JUMPDEST JUMPDEST PUSH2 0x233F DUP8 DUP3 DUP9 ADD PUSH2 0x218C JUMP JUMPDEST SWAP2 POP POP SWAP3 SWAP6 SWAP2 SWAP5 POP SWAP3 POP JUMP JUMPDEST PUSH1 0x0 DUP1 PUSH1 0x40 DUP4 DUP6 SUB SLT ISZERO PUSH2 0x2362 JUMPI PUSH2 0x2361 PUSH2 0x3551 JUMP JUMPDEST JUMPDEST PUSH1 0x0 PUSH2 0x2370 DUP6 DUP3 DUP7 ADD PUSH2 0x21E8 JUMP JUMPDEST SWAP3 POP POP PUSH1 0x20 DUP4 ADD CALLDATALOAD PUSH8 0xFFFFFFFFFFFFFFFF DUP2 GT ISZERO PUSH2 0x2391 JUMPI PUSH2 0x2390 PUSH2 0x3547 JUMP JUMPDEST JUMPDEST PUSH2 0x239D DUP6 DUP3 DUP7 ADD PUSH2 0x20DA JUMP JUMPDEST SWAP2 POP POP SWAP3 POP SWAP3 SWAP1 POP JUMP JUMPDEST PUSH1 0x0 DUP1 PUSH1 0x0 DUP1 PUSH1 0x0 DUP1 PUSH1 0x0 DUP1 PUSH1 0x0 PUSH2 0x100 DUP11 DUP13 SUB SLT ISZERO PUSH2 0x23CA JUMPI PUSH2 0x23C9 PUSH2 0x3551 JUMP JUMPDEST JUMPDEST PUSH1 0x0 PUSH2 0x23D8 DUP13 DUP3 DUP14 ADD PUSH2 0x21FD JUMP JUMPDEST SWAP10 POP POP PUSH1 0x20 DUP11 ADD CALLDATALOAD PUSH8 0xFFFFFFFFFFFFFFFF DUP2 GT ISZERO PUSH2 0x23F9 JUMPI PUSH2 0x23F8 PUSH2 0x3547 JUMP JUMPDEST JUMPDEST PUSH2 0x2405 DUP13 DUP3 DUP14 ADD PUSH2 0x20DA JUMP JUMPDEST SWAP9 POP POP PUSH1 0x40 PUSH2 0x2416 DUP13 DUP3 DUP14 ADD PUSH2 0x20C5 JUMP JUMPDEST SWAP8 POP POP PUSH1 0x60 PUSH2 0x2427 DUP13 DUP3 DUP14 ADD PUSH2 0x21E8 JUMP JUMPDEST SWAP7 POP POP PUSH1 0x80 PUSH2 0x2438 DUP13 DUP3 DUP14 ADD PUSH2 0x21E8 JUMP JUMPDEST SWAP6 POP POP PUSH1 0xA0 DUP11 ADD CALLDATALOAD PUSH8 0xFFFFFFFFFFFFFFFF DUP2 GT ISZERO PUSH2 0x2459 JUMPI PUSH2 0x2458 PUSH2 0x3547 JUMP JUMPDEST JUMPDEST PUSH2 0x2465 DUP13 DUP3 DUP14 ADD PUSH2 0x21BA JUMP JUMPDEST SWAP5 POP POP PUSH1 0xC0 DUP11 ADD CALLDATALOAD PUSH8 0xFFFFFFFFFFFFFFFF DUP2 GT ISZERO PUSH2 0x2486 JUMPI PUSH2 0x2485 PUSH2 0x3547 JUMP JUMPDEST JUMPDEST PUSH2 0x2492 DUP13 DUP3 DUP14 ADD PUSH2 0x2108 JUMP JUMPDEST SWAP4 POP SWAP4 POP POP PUSH1 0xE0 PUSH2 0x24A5 DUP13 DUP3 DUP14 ADD PUSH2 0x21E8 JUMP JUMPDEST SWAP2 POP POP SWAP3 SWAP6 SWAP9 POP SWAP3 SWAP6 SWAP9 POP SWAP3 SWAP6 SWAP9 JUMP JUMPDEST PUSH1 0x0 PUSH2 0x24C1 DUP4 DUP4 PUSH2 0x24E3 JUMP JUMPDEST PUSH1 0x20 DUP4 ADD SWAP1 POP SWAP3 SWAP2 POP POP JUMP JUMPDEST PUSH1 0x0 PUSH2 0x24DA DUP5 DUP5 DUP5 PUSH2 0x25E4 JUMP JUMPDEST SWAP1 POP SWAP4 SWAP3 POP POP POP JUMP JUMPDEST PUSH2 0x24EC DUP2 PUSH2 0x328D JUMP JUMPDEST DUP3 MSTORE POP POP JUMP JUMPDEST PUSH2 0x24FB DUP2 PUSH2 0x328D JUMP JUMPDEST DUP3 MSTORE POP POP JUMP JUMPDEST PUSH1 0x0 PUSH2 0x250C DUP3 PUSH2 0x308F JUMP JUMPDEST PUSH2 0x2516 DUP2 DUP6 PUSH2 0x30BF JUMP JUMPDEST SWAP4 POP PUSH2 0x2521 DUP4 PUSH2 0x3060 JUMP JUMPDEST DUP1 PUSH1 0x0 JUMPDEST DUP4 DUP2 LT ISZERO PUSH2 0x2552 JUMPI DUP2 MLOAD PUSH2 0x2539 DUP9 DUP3 PUSH2 0x24B5 JUMP JUMPDEST SWAP8 POP PUSH2 0x2544 DUP4 PUSH2 0x30A5 JUMP JUMPDEST SWAP3 POP POP PUSH1 0x1 DUP2 ADD SWAP1 POP PUSH2 0x2525 JUMP JUMPDEST POP DUP6 SWAP4 POP POP POP POP SWAP3 SWAP2 POP POP JUMP JUMPDEST PUSH1 0x0 PUSH2 0x256B DUP4 DUP6 PUSH2 0x30D0 JUMP JUMPDEST SWAP4 POP DUP4 PUSH1 0x20 DUP5 MUL DUP6 ADD PUSH2 0x257D DUP5 PUSH2 0x3070 JUMP JUMPDEST DUP1 PUSH1 0x0 JUMPDEST DUP8 DUP2 LT ISZERO PUSH2 0x25C3 JUMPI DUP5 DUP5 SUB DUP10 MSTORE PUSH2 0x2598 DUP3 DUP5 PUSH2 0x310E JUMP JUMPDEST PUSH2 0x25A3 DUP7 DUP3 DUP5 PUSH2 0x24CD JUMP JUMPDEST SWAP6 POP PUSH2 0x25AE DUP5 PUSH2 0x30B2 JUMP JUMPDEST SWAP4 POP PUSH1 0x20 DUP12 ADD SWAP11 POP POP POP PUSH1 0x1 DUP2 ADD SWAP1 POP PUSH2 0x2581 JUMP JUMPDEST POP DUP3 SWAP8 POP DUP8 SWAP5 POP POP POP POP POP SWAP4 SWAP3 POP POP POP JUMP JUMPDEST PUSH2 0x25DE DUP2 PUSH2 0x329F JUMP JUMPDEST DUP3 MSTORE POP POP JUMP JUMPDEST PUSH1 0x0 PUSH2 0x25F0 DUP4 DUP6 PUSH2 0x30E1 JUMP JUMPDEST SWAP4 POP PUSH2 0x25FD DUP4 DUP6 DUP5 PUSH2 0x330C JUMP JUMPDEST PUSH2 0x2606 DUP4 PUSH2 0x3556 JUMP JUMPDEST DUP5 ADD SWAP1 POP SWAP4 SWAP3 POP POP POP JUMP JUMPDEST PUSH1 0x0 PUSH2 0x261D DUP4 DUP6 PUSH2 0x3103 JUMP JUMPDEST SWAP4 POP PUSH2 0x262A DUP4 DUP6 DUP5 PUSH2 0x330C JUMP JUMPDEST DUP3 DUP5 ADD SWAP1 POP SWAP4 SWAP3 POP POP POP JUMP JUMPDEST PUSH1 0x0 PUSH2 0x2641 DUP3 PUSH2 0x309A JUMP JUMPDEST PUSH2 0x264B DUP2 DUP6 PUSH2 0x30F2 JUMP JUMPDEST SWAP4 POP PUSH2 0x265B DUP2 DUP6 PUSH1 0x20 DUP7 ADD PUSH2 0x331B JUMP JUMPDEST PUSH2 0x2664 DUP2 PUSH2 0x3556 JUMP JUMPDEST DUP5 ADD SWAP2 POP POP SWAP3 SWAP2 POP POP JUMP JUMPDEST PUSH1 0x0 PUSH2 0x267A DUP3 PUSH2 0x309A JUMP JUMPDEST PUSH2 0x2684 DUP2 DUP6 PUSH2 0x3103 JUMP JUMPDEST SWAP4 POP PUSH2 0x2694 DUP2 DUP6 PUSH1 0x20 DUP7 ADD PUSH2 0x331B JUMP JUMPDEST DUP1 DUP5 ADD SWAP2 POP POP SWAP3 SWAP2 POP POP JUMP JUMPDEST PUSH1 0x0 DUP2 SLOAD PUSH2 0x26AD DUP2 PUSH2 0x334E JUMP JUMPDEST PUSH2 0x26B7 DUP2 DUP7 PUSH2 0x3103 JUMP JUMPDEST SWAP5 POP PUSH1 0x1 DUP3 AND PUSH1 0x0 DUP2 EQ PUSH2 0x26D2 JUMPI PUSH1 0x1 DUP2 EQ PUSH2 0x26E3 JUMPI PUSH2 0x2716 JUMP JUMPDEST PUSH1 0xFF NOT DUP4 AND DUP7 MSTORE DUP2 DUP7 ADD SWAP4 POP PUSH2 0x2716 JUMP JUMPDEST PUSH2 0x26EC DUP6 PUSH2 0x307A JUMP JUMPDEST PUSH1 0x0 JUMPDEST DUP4 DUP2 LT ISZERO PUSH2 0x270E JUMPI DUP2 SLOAD DUP2 DUP10 ADD MSTORE PUSH1 0x1 DUP3 ADD SWAP2 POP PUSH1 0x20 DUP2 ADD SWAP1 POP PUSH2 0x26EF JUMP JUMPDEST DUP4 DUP9 ADD SWAP6 POP POP POP JUMPDEST POP POP POP SWAP3 SWAP2 POP POP JUMP JUMPDEST PUSH1 0x0 PUSH2 0x272C PUSH1 0x12 DUP4 PUSH2 0x30F2 JUMP JUMPDEST SWAP2 POP PUSH2 0x2737 DUP3 PUSH2 0x3567 JUMP JUMPDEST PUSH1 0x20 DUP3 ADD SWAP1 POP SWAP2 SWAP1 POP JUMP JUMPDEST PUSH1 0x0 PUSH2 0x274F PUSH1 0x2C DUP4 PUSH2 0x30F2 JUMP JUMPDEST SWAP2 POP PUSH2 0x275A DUP3 PUSH2 0x3590 JUMP JUMPDEST PUSH1 0x40 DUP3 ADD SWAP1 POP SWAP2 SWAP1 POP JUMP JUMPDEST PUSH1 0x0 PUSH2 0x2772 PUSH1 0x22 DUP4 PUSH2 0x30F2 JUMP JUMPDEST SWAP2 POP PUSH2 0x277D DUP3 PUSH2 0x35DF JUMP JUMPDEST PUSH1 0x40 DUP3 ADD SWAP1 POP SWAP2 SWAP1 POP JUMP JUMPDEST PUSH1 0x0 PUSH2 0x2795 PUSH1 0xD DUP4 PUSH2 0x30F2 JUMP JUMPDEST SWAP2 POP PUSH2 0x27A0 DUP3 PUSH2 0x362E JUMP JUMPDEST PUSH1 0x20 DUP3 ADD SWAP1 POP SWAP2 SWAP1 POP JUMP JUMPDEST PUSH1 0x0 PUSH2 0x27B8 PUSH1 0x1B DUP4 PUSH2 0x30F2 JUMP JUMPDEST SWAP2 POP PUSH2 0x27C3 DUP3 PUSH2 0x3657 JUMP JUMPDEST PUSH1 0x20 DUP3 ADD SWAP1 POP SWAP2 SWAP1 POP JUMP JUMPDEST PUSH1 0x0 PUSH2 0x27DB PUSH1 0x14 DUP4 PUSH2 0x30F2 JUMP JUMPDEST SWAP2 POP PUSH2 0x27E6 DUP3 PUSH2 0x3680 JUMP JUMPDEST PUSH1 0x20 DUP3 ADD SWAP1 POP SWAP2 SWAP1 POP JUMP JUMPDEST PUSH1 0x0 PUSH2 0x27FE PUSH1 0x23 DUP4 PUSH2 0x30F2 JUMP JUMPDEST SWAP2 POP PUSH2 0x2809 DUP3 PUSH2 0x36A9 JUMP JUMPDEST PUSH1 0x40 DUP3 ADD SWAP1 POP SWAP2 SWAP1 POP JUMP JUMPDEST PUSH1 0x0 PUSH2 0x2821 PUSH1 0x18 DUP4 PUSH2 0x30F2 JUMP JUMPDEST SWAP2 POP PUSH2 0x282C DUP3 PUSH2 0x36F8 JUMP JUMPDEST PUSH1 0x20 DUP3 ADD SWAP1 POP SWAP2 SWAP1 POP JUMP JUMPDEST PUSH1 0x0 PUSH2 0x2844 PUSH1 0x14 DUP4 PUSH2 0x30F2 JUMP JUMPDEST SWAP2 POP PUSH2 0x284F DUP3 PUSH2 0x3721 JUMP JUMPDEST PUSH1 0x20 DUP3 ADD SWAP1 POP SWAP2 SWAP1 POP JUMP JUMPDEST PUSH1 0x0 PUSH2 0x2867 PUSH1 0x23 DUP4 PUSH2 0x30F2 JUMP JUMPDEST SWAP2 POP PUSH2 0x2872 DUP3 PUSH2 0x374A JUMP JUMPDEST PUSH1 0x40 DUP3 ADD SWAP1 POP SWAP2 SWAP1 POP JUMP JUMPDEST PUSH1 0x0 PUSH2 0x288A PUSH1 0x12 DUP4 PUSH2 0x30F2 JUMP JUMPDEST SWAP2 POP PUSH2 0x2895 DUP3 PUSH2 0x3799 JUMP JUMPDEST PUSH1 0x20 DUP3 ADD SWAP1 POP SWAP2 SWAP1 POP JUMP JUMPDEST PUSH1 0x0 PUSH2 0x28AD PUSH1 0x23 DUP4 PUSH2 0x30F2 JUMP JUMPDEST SWAP2 POP PUSH2 0x28B8 DUP3 PUSH2 0x37C2 JUMP JUMPDEST PUSH1 0x40 DUP3 ADD SWAP1 POP SWAP2 SWAP1 POP JUMP JUMPDEST PUSH1 0x0 PUSH2 0x28D0 PUSH1 0x2A DUP4 PUSH2 0x30F2 JUMP JUMPDEST SWAP2 POP PUSH2 0x28DB DUP3 PUSH2 0x3811 JUMP JUMPDEST PUSH1 0x40 DUP3 ADD SWAP1 POP SWAP2 SWAP1 POP JUMP JUMPDEST PUSH1 0x0 PUSH2 0x28F3 PUSH1 0x21 DUP4 PUSH2 0x30F2 JUMP JUMPDEST SWAP2 POP PUSH2 0x28FE DUP3 PUSH2 0x3860 JUMP JUMPDEST PUSH1 0x40 DUP3 ADD SWAP1 POP SWAP2 SWAP1 POP JUMP JUMPDEST PUSH1 0x0 PUSH2 0x2916 PUSH1 0x24 DUP4 PUSH2 0x30F2 JUMP JUMPDEST SWAP2 POP PUSH2 0x2921 DUP3 PUSH2 0x38AF JUMP JUMPDEST PUSH1 0x40 DUP3 ADD SWAP1 POP SWAP2 SWAP1 POP JUMP JUMPDEST PUSH1 0x0 PUSH2 0x2939 PUSH1 0x4 DUP4 PUSH2 0x30F2 JUMP JUMPDEST SWAP2 POP PUSH2 0x2944 DUP3 PUSH2 0x38FE JUMP JUMPDEST PUSH1 0x20 DUP3 ADD SWAP1 POP SWAP2 SWAP1 POP JUMP JUMPDEST PUSH1 0x0 PUSH2 0x295C PUSH1 0x1D DUP4 PUSH2 0x30F2 JUMP JUMPDEST SWAP2 POP PUSH2 0x2967 DUP3 PUSH2 0x3927 JUMP JUMPDEST PUSH1 0x20 DUP3 ADD SWAP1 POP SWAP2 SWAP1 POP JUMP JUMPDEST PUSH1 0x0 PUSH2 0x297F PUSH1 0x4 DUP4 PUSH2 0x30F2 JUMP JUMPDEST SWAP2 POP PUSH2 0x298A DUP3 PUSH2 0x3950 JUMP JUMPDEST PUSH1 0x20 DUP3 ADD SWAP1 POP SWAP2 SWAP1 POP JUMP JUMPDEST PUSH1 0x0 PUSH2 0x29A2 PUSH1 0x9 DUP4 PUSH2 0x30F2 JUMP JUMPDEST SWAP2 POP PUSH2 0x29AD DUP3 PUSH2 0x3979 JUMP JUMPDEST PUSH1 0x20 DUP3 ADD SWAP1 POP SWAP2 SWAP1 POP JUMP JUMPDEST PUSH1 0x0 PUSH2 0x29C5 PUSH1 0x1F DUP4 PUSH2 0x30F2 JUMP JUMPDEST SWAP2 POP PUSH2 0x29D0 DUP3 PUSH2 0x39A2 JUMP JUMPDEST PUSH1 0x20 DUP3 ADD SWAP1 POP SWAP2 SWAP1 POP JUMP JUMPDEST PUSH2 0x29E4 DUP2 PUSH2 0x32AB JUMP JUMPDEST DUP3 MSTORE POP POP JUMP JUMPDEST PUSH2 0x29F3 DUP2 PUSH2 0x32C7 JUMP JUMPDEST DUP3 MSTORE POP POP JUMP JUMPDEST PUSH2 0x2A02 DUP2 PUSH2 0x32F5 JUMP JUMPDEST DUP3 MSTORE POP POP JUMP JUMPDEST PUSH2 0x2A11 DUP2 PUSH2 0x32FF JUMP JUMPDEST DUP3 MSTORE POP POP JUMP JUMPDEST PUSH1 0x0 PUSH2 0x2A24 DUP3 DUP5 DUP7 PUSH2 0x2611 JUMP JUMPDEST SWAP2 POP DUP2 SWAP1 POP SWAP4 SWAP3 POP POP POP JUMP JUMPDEST PUSH1 0x0 PUSH2 0x2A3C DUP3 DUP5 PUSH2 0x266F JUMP JUMPDEST SWAP2 POP DUP2 SWAP1 POP SWAP3 SWAP2 POP POP JUMP JUMPDEST PUSH1 0x0 PUSH2 0x2A53 DUP3 DUP5 PUSH2 0x26A0 JUMP JUMPDEST SWAP2 POP DUP2 SWAP1 POP SWAP3 SWAP2 POP POP JUMP JUMPDEST PUSH1 0x0 PUSH1 0xE0 DUP3 ADD SWAP1 POP PUSH2 0x2A73 PUSH1 0x0 DUP4 ADD DUP11 PUSH2 0x24F2 JUMP JUMPDEST PUSH2 0x2A80 PUSH1 0x20 DUP4 ADD DUP10 PUSH2 0x2A08 JUMP JUMPDEST DUP2 DUP2 SUB PUSH1 0x40 DUP4 ADD MSTORE PUSH2 0x2A92 DUP2 DUP9 PUSH2 0x2636 JUMP JUMPDEST SWAP1 POP PUSH2 0x2AA1 PUSH1 0x60 DUP4 ADD DUP8 PUSH2 0x29F9 JUMP JUMPDEST PUSH2 0x2AAE PUSH1 0x80 DUP4 ADD DUP7 PUSH2 0x29F9 JUMP JUMPDEST PUSH2 0x2ABB PUSH1 0xA0 DUP4 ADD DUP6 PUSH2 0x29EA JUMP JUMPDEST PUSH2 0x2AC8 PUSH1 0xC0 DUP4 ADD DUP5 PUSH2 0x29F9 JUMP JUMPDEST SWAP9 SWAP8 POP POP POP POP POP POP POP POP JUMP JUMPDEST PUSH1 0x0 PUSH1 0x20 DUP3 ADD SWAP1 POP PUSH2 0x2AE9 PUSH1 0x0 DUP4 ADD DUP5 PUSH2 0x25D5 JUMP JUMPDEST SWAP3 SWAP2 POP POP JUMP JUMPDEST PUSH1 0x0 PUSH1 0x20 DUP3 ADD SWAP1 POP DUP2 DUP2 SUB PUSH1 0x0 DUP4 ADD MSTORE PUSH2 0x2B09 DUP2 DUP5 PUSH2 0x2636 JUMP JUMPDEST SWAP1 POP SWAP3 SWAP2 POP POP JUMP JUMPDEST PUSH1 0x0 PUSH1 0x20 DUP3 ADD SWAP1 POP DUP2 DUP2 SUB PUSH1 0x0 DUP4 ADD MSTORE PUSH2 0x2B2A DUP2 PUSH2 0x271F JUMP JUMPDEST SWAP1 POP SWAP2 SWAP1 POP JUMP JUMPDEST PUSH1 0x0 PUSH1 0x20 DUP3 ADD SWAP1 POP DUP2 DUP2 SUB PUSH1 0x0 DUP4 ADD MSTORE PUSH2 0x2B4A DUP2 PUSH2 0x2742 JUMP JUMPDEST SWAP1 POP SWAP2 SWAP1 POP JUMP JUMPDEST PUSH1 0x0 PUSH1 0x20 DUP3 ADD SWAP1 POP DUP2 DUP2 SUB PUSH1 0x0 DUP4 ADD MSTORE PUSH2 0x2B6A DUP2 PUSH2 0x2765 JUMP JUMPDEST SWAP1 POP SWAP2 SWAP1 POP JUMP JUMPDEST PUSH1 0x0 PUSH1 0x20 DUP3 ADD SWAP1 POP DUP2 DUP2 SUB PUSH1 0x0 DUP4 ADD MSTORE PUSH2 0x2B8A DUP2 PUSH2 0x2788 JUMP JUMPDEST SWAP1 POP SWAP2 SWAP1 POP JUMP JUMPDEST PUSH1 0x0 PUSH1 0x20 DUP3 ADD SWAP1 POP DUP2 DUP2 SUB PUSH1 0x0 DUP4 ADD MSTORE PUSH2 0x2BAA DUP2 PUSH2 0x27AB JUMP JUMPDEST SWAP1 POP SWAP2 SWAP1 POP JUMP JUMPDEST PUSH1 0x0 PUSH1 0x20 DUP3 ADD SWAP1 POP DUP2 DUP2 SUB PUSH1 0x0 DUP4 ADD MSTORE PUSH2 0x2BCA DUP2 PUSH2 0x27CE JUMP JUMPDEST SWAP1 POP SWAP2 SWAP1 POP JUMP JUMPDEST PUSH1 0x0 PUSH1 0x20 DUP3 ADD SWAP1 POP DUP2 DUP2 SUB PUSH1 0x0 DUP4 ADD MSTORE PUSH2 0x2BEA DUP2 PUSH2 0x27F1 JUMP JUMPDEST SWAP1 POP SWAP2 SWAP1 POP JUMP JUMPDEST PUSH1 0x0 PUSH1 0x20 DUP3 ADD SWAP1 POP DUP2 DUP2 SUB PUSH1 0x0 DUP4 ADD MSTORE PUSH2 0x2C0A DUP2 PUSH2 0x2814 JUMP JUMPDEST SWAP1 POP SWAP2 SWAP1 POP JUMP JUMPDEST PUSH1 0x0 PUSH1 0x20 DUP3 ADD SWAP1 POP DUP2 DUP2 SUB PUSH1 0x0 DUP4 ADD MSTORE PUSH2 0x2C2A DUP2 PUSH2 0x2837 JUMP JUMPDEST SWAP1 POP SWAP2 SWAP1 POP JUMP JUMPDEST PUSH1 0x0 PUSH1 0x20 DUP3 ADD SWAP1 POP DUP2 DUP2 SUB PUSH1 0x0 DUP4 ADD MSTORE PUSH2 0x2C4A DUP2 PUSH2 0x285A JUMP JUMPDEST SWAP1 POP SWAP2 SWAP1 POP JUMP JUMPDEST PUSH1 0x0 PUSH1 0x20 DUP3 ADD SWAP1 POP DUP2 DUP2 SUB PUSH1 0x0 DUP4 ADD MSTORE PUSH2 0x2C6A DUP2 PUSH2 0x287D JUMP JUMPDEST SWAP1 POP SWAP2 SWAP1 POP JUMP JUMPDEST PUSH1 0x0 PUSH1 0x20 DUP3 ADD SWAP1 POP DUP2 DUP2 SUB PUSH1 0x0 DUP4 ADD MSTORE PUSH2 0x2C8A DUP2 PUSH2 0x28A0 JUMP JUMPDEST SWAP1 POP SWAP2 SWAP1 POP JUMP JUMPDEST PUSH1 0x0 PUSH1 0x20 DUP3 ADD SWAP1 POP DUP2 DUP2 SUB PUSH1 0x0 DUP4 ADD MSTORE PUSH2 0x2CAA DUP2 PUSH2 0x28C3 JUMP JUMPDEST SWAP1 POP SWAP2 SWAP1 POP JUMP JUMPDEST PUSH1 0x0 PUSH1 0x20 DUP3 ADD SWAP1 POP DUP2 DUP2 SUB PUSH1 0x0 DUP4 ADD MSTORE PUSH2 0x2CCA DUP2 PUSH2 0x28E6 JUMP JUMPDEST SWAP1 POP SWAP2 SWAP1 POP JUMP JUMPDEST PUSH1 0x0 PUSH1 0x20 DUP3 ADD SWAP1 POP DUP2 DUP2 SUB PUSH1 0x0 DUP4 ADD MSTORE PUSH2 0x2CEA DUP2 PUSH2 0x2909 JUMP JUMPDEST SWAP1 POP SWAP2 SWAP1 POP JUMP JUMPDEST PUSH1 0x0 PUSH1 0x60 DUP3 ADD SWAP1 POP DUP2 DUP2 SUB PUSH1 0x0 DUP4 ADD MSTORE PUSH2 0x2D0A DUP2 PUSH2 0x292C JUMP JUMPDEST SWAP1 POP PUSH2 0x2D19 PUSH1 0x20 DUP4 ADD DUP6 PUSH2 0x24F2 JUMP JUMPDEST PUSH2 0x2D26 PUSH1 0x40 DUP4 ADD DUP5 PUSH2 0x29F9 JUMP JUMPDEST SWAP4 SWAP3 POP POP POP JUMP JUMPDEST PUSH1 0x0 PUSH1 0x20 DUP3 ADD SWAP1 POP DUP2 DUP2 SUB PUSH1 0x0 DUP4 ADD MSTORE PUSH2 0x2D46 DUP2 PUSH2 0x294F JUMP JUMPDEST SWAP1 POP SWAP2 SWAP1 POP JUMP JUMPDEST PUSH1 0x0 PUSH1 0x60 DUP3 ADD SWAP1 POP DUP2 DUP2 SUB PUSH1 0x0 DUP4 ADD MSTORE PUSH2 0x2D66 DUP2 PUSH2 0x2972 JUMP JUMPDEST SWAP1 POP PUSH2 0x2D75 PUSH1 0x20 DUP4 ADD DUP6 PUSH2 0x24F2 JUMP JUMPDEST PUSH2 0x2D82 PUSH1 0x40 DUP4 ADD DUP5 PUSH2 0x29F9 JUMP JUMPDEST SWAP4 SWAP3 POP POP POP JUMP JUMPDEST PUSH1 0x0 PUSH1 0x20 DUP3 ADD SWAP1 POP DUP2 DUP2 SUB PUSH1 0x0 DUP4 ADD MSTORE PUSH2 0x2DA2 DUP2 PUSH2 0x2995 JUMP JUMPDEST SWAP1 POP SWAP2 SWAP1 POP JUMP JUMPDEST PUSH1 0x0 PUSH1 0x20 DUP3 ADD SWAP1 POP DUP2 DUP2 SUB PUSH1 0x0 DUP4 ADD MSTORE PUSH2 0x2DC2 DUP2 PUSH2 0x29B8 JUMP JUMPDEST SWAP1 POP SWAP2 SWAP1 POP JUMP JUMPDEST PUSH1 0x0 PUSH1 0x40 DUP3 ADD SWAP1 POP PUSH2 0x2DDE PUSH1 0x0 DUP4 ADD DUP6 PUSH2 0x29DB JUMP JUMPDEST PUSH2 0x2DEB PUSH1 0x20 DUP4 ADD DUP5 PUSH2 0x29DB JUMP JUMPDEST SWAP4 SWAP3 POP POP POP JUMP JUMPDEST PUSH1 0x0 PUSH1 0x20 DUP3 ADD SWAP1 POP PUSH2 0x2E07 PUSH1 0x0 DUP4 ADD DUP5 PUSH2 0x29F9 JUMP JUMPDEST SWAP3 SWAP2 POP POP JUMP JUMPDEST PUSH1 0x0 PUSH1 0x80 DUP3 ADD SWAP1 POP PUSH2 0x2E22 PUSH1 0x0 DUP4 ADD DUP8 PUSH2 0x29F9 JUMP JUMPDEST PUSH2 0x2E2F PUSH1 0x20 DUP4 ADD DUP7 PUSH2 0x24F2 JUMP JUMPDEST PUSH2 0x2E3C PUSH1 0x40 DUP4 ADD DUP6 PUSH2 0x25D5 JUMP JUMPDEST PUSH2 0x2E49 PUSH1 0x60 DUP4 ADD DUP5 PUSH2 0x29F9 JUMP JUMPDEST SWAP6 SWAP5 POP POP POP POP POP JUMP JUMPDEST PUSH1 0x0 PUSH1 0xE0 DUP3 ADD SWAP1 POP PUSH2 0x2E67 PUSH1 0x0 DUP4 ADD DUP12 PUSH2 0x29F9 JUMP JUMPDEST DUP2 DUP2 SUB PUSH1 0x20 DUP4 ADD MSTORE PUSH2 0x2E79 DUP2 DUP11 PUSH2 0x2501 JUMP JUMPDEST SWAP1 POP PUSH2 0x2E88 PUSH1 0x40 DUP4 ADD DUP10 PUSH2 0x24F2 JUMP JUMPDEST PUSH2 0x2E95 PUSH1 0x60 DUP4 ADD DUP9 PUSH2 0x29F9 JUMP JUMPDEST PUSH2 0x2EA2 PUSH1 0x80 DUP4 ADD DUP8 PUSH2 0x29F9 JUMP JUMPDEST DUP2 DUP2 SUB PUSH1 0xA0 DUP4 ADD MSTORE PUSH2 0x2EB4 DUP2 DUP7 PUSH2 0x2636 JUMP JUMPDEST SWAP1 POP DUP2 DUP2 SUB PUSH1 0xC0 DUP4 ADD MSTORE PUSH2 0x2EC9 DUP2 DUP5 DUP7 PUSH2 0x255F JUMP JUMPDEST SWAP1 POP SWAP10 SWAP9 POP POP POP POP POP POP POP POP POP JUMP JUMPDEST PUSH1 0x0 PUSH1 0x40 DUP3 ADD SWAP1 POP PUSH2 0x2EED PUSH1 0x0 DUP4 ADD DUP6 PUSH2 0x29F9 JUMP JUMPDEST DUP2 DUP2 SUB PUSH1 0x20 DUP4 ADD MSTORE PUSH2 0x2EFF DUP2 DUP5 PUSH2 0x2636 JUMP JUMPDEST SWAP1 POP SWAP4 SWAP3 POP POP POP JUMP JUMPDEST PUSH1 0x0 PUSH1 0x20 DUP3 ADD SWAP1 POP PUSH2 0x2F1D PUSH1 0x0 DUP4 ADD DUP5 PUSH2 0x2A08 JUMP JUMPDEST SWAP3 SWAP2 POP POP JUMP JUMPDEST PUSH1 0x0 DUP1 DUP4 CALLDATALOAD PUSH1 0x1 PUSH1 0x20 SUB DUP5 CALLDATASIZE SUB SUB DUP2 SLT PUSH2 0x2F40 JUMPI PUSH2 0x2F3F PUSH2 0x352E JUMP JUMPDEST JUMPDEST DUP1 DUP5 ADD SWAP3 POP DUP3 CALLDATALOAD SWAP2 POP PUSH8 0xFFFFFFFFFFFFFFFF DUP3 GT ISZERO PUSH2 0x2F62 JUMPI PUSH2 0x2F61 PUSH2 0x3529 JUMP JUMPDEST JUMPDEST PUSH1 0x20 DUP4 ADD SWAP3 POP PUSH1 0x1 DUP3 MUL CALLDATASIZE SUB DUP4 SGT ISZERO PUSH2 0x2F7E JUMPI PUSH2 0x2F7D PUSH2 0x353D JUMP JUMPDEST JUMPDEST POP SWAP3 POP SWAP3 SWAP1 POP JUMP JUMPDEST PUSH1 0x0 PUSH2 0x2F90 PUSH2 0x2FA1 JUMP JUMPDEST SWAP1 POP PUSH2 0x2F9C DUP3 DUP3 PUSH2 0x3380 JUMP JUMPDEST SWAP2 SWAP1 POP JUMP JUMPDEST PUSH1 0x0 PUSH1 0x40 MLOAD SWAP1 POP SWAP1 JUMP JUMPDEST PUSH1 0x0 PUSH8 0xFFFFFFFFFFFFFFFF DUP3 GT ISZERO PUSH2 0x2FC6 JUMPI PUSH2 0x2FC5 PUSH2 0x34EB JUMP JUMPDEST JUMPDEST PUSH1 0x20 DUP3 MUL SWAP1 POP PUSH1 0x20 DUP2 ADD SWAP1 POP SWAP2 SWAP1 POP JUMP JUMPDEST PUSH1 0x0 PUSH8 0xFFFFFFFFFFFFFFFF DUP3 GT ISZERO PUSH2 0x2FF2 JUMPI PUSH2 0x2FF1 PUSH2 0x34EB JUMP JUMPDEST JUMPDEST PUSH1 0x20 DUP3 MUL SWAP1 POP PUSH1 0x20 DUP2 ADD SWAP1 POP SWAP2 SWAP1 POP JUMP JUMPDEST PUSH1 0x0 PUSH8 0xFFFFFFFFFFFFFFFF DUP3 GT ISZERO PUSH2 0x301E JUMPI PUSH2 0x301D PUSH2 0x34EB JUMP JUMPDEST JUMPDEST PUSH1 0x20 DUP3 MUL SWAP1 POP PUSH1 0x20 DUP2 ADD SWAP1 POP SWAP2 SWAP1 POP JUMP JUMPDEST PUSH1 0x0 PUSH8 0xFFFFFFFFFFFFFFFF DUP3 GT ISZERO PUSH2 0x304A JUMPI PUSH2 0x3049 PUSH2 0x34EB JUMP JUMPDEST JUMPDEST PUSH2 0x3053 DUP3 PUSH2 0x3556 JUMP JUMPDEST SWAP1 POP PUSH1 0x20 DUP2 ADD SWAP1 POP SWAP2 SWAP1 POP JUMP JUMPDEST PUSH1 0x0 DUP2 SWAP1 POP PUSH1 0x20 DUP3 ADD SWAP1 POP SWAP2 SWAP1 POP JUMP JUMPDEST PUSH1 0x0 DUP2 SWAP1 POP SWAP2 SWAP1 POP JUMP JUMPDEST PUSH1 0x0 DUP2 SWAP1 POP DUP2 PUSH1 0x0 MSTORE PUSH1 0x20 PUSH1 0x0 KECCAK256 SWAP1 POP SWAP2 SWAP1 POP JUMP JUMPDEST PUSH1 0x0 DUP2 MLOAD SWAP1 POP SWAP2 SWAP1 POP JUMP JUMPDEST PUSH1 0x0 DUP2 MLOAD SWAP1 POP SWAP2 SWAP1 POP JUMP JUMPDEST PUSH1 0x0 PUSH1 0x20 DUP3 ADD SWAP1 POP SWAP2 SWAP1 POP JUMP JUMPDEST PUSH1 0x0 PUSH1 0x20 DUP3 ADD SWAP1 POP SWAP2 SWAP1 POP JUMP JUMPDEST PUSH1 0x0 DUP3 DUP3 MSTORE PUSH1 0x20 DUP3 ADD SWAP1 POP SWAP3 SWAP2 POP POP JUMP JUMPDEST PUSH1 0x0 DUP3 DUP3 MSTORE PUSH1 0x20 DUP3 ADD SWAP1 POP SWAP3 SWAP2 POP POP JUMP JUMPDEST PUSH1 0x0 DUP3 DUP3 MSTORE PUSH1 0x20 DUP3 ADD SWAP1 POP SWAP3 SWAP2 POP POP JUMP JUMPDEST PUSH1 0x0 DUP3 DUP3 MSTORE PUSH1 0x20 DUP3 ADD SWAP1 POP SWAP3 SWAP2 POP POP JUMP JUMPDEST PUSH1 0x0 DUP2 SWAP1 POP SWAP3 SWAP2 POP POP JUMP JUMPDEST PUSH1 0x0 DUP1 DUP4 CALLDATALOAD PUSH1 0x1 PUSH1 0x20 SUB DUP5 CALLDATASIZE SUB SUB DUP2 SLT PUSH2 0x312B JUMPI PUSH2 0x312A PUSH2 0x354C JUMP JUMPDEST JUMPDEST DUP4 DUP2 ADD SWAP3 POP DUP3 CALLDATALOAD SWAP2 POP PUSH1 0x20 DUP4 ADD SWAP3 POP PUSH8 0xFFFFFFFFFFFFFFFF DUP3 GT ISZERO PUSH2 0x3153 JUMPI PUSH2 0x3152 PUSH2 0x351A JUMP JUMPDEST JUMPDEST PUSH1 0x1 DUP3 MUL CALLDATASIZE SUB DUP5 SGT ISZERO PUSH2 0x3169 JUMPI PUSH2 0x3168 PUSH2 0x3533 JUMP JUMPDEST JUMPDEST POP SWAP3 POP SWAP3 SWAP1 POP JUMP JUMPDEST PUSH1 0x0 PUSH2 0x317C DUP3 PUSH2 0x32C7 JUMP JUMPDEST SWAP2 POP PUSH2 0x3187 DUP4 PUSH2 0x32C7 JUMP JUMPDEST SWAP3 POP DUP3 PUSH2 0xFFFF SUB DUP3 GT ISZERO PUSH2 0x319E JUMPI PUSH2 0x319D PUSH2 0x345E JUMP JUMPDEST JUMPDEST DUP3 DUP3 ADD SWAP1 POP SWAP3 SWAP2 POP POP JUMP JUMPDEST PUSH1 0x0 PUSH2 0x31B4 DUP3 PUSH2 0x32F5 JUMP JUMPDEST SWAP2 POP PUSH2 0x31BF DUP4 PUSH2 0x32F5 JUMP JUMPDEST SWAP3 POP DUP3 PUSH32 0xFFFFFFFFFFFFFFFFFFFFFFFFFFFFFFFFFFFFFFFFFFFFFFFFFFFFFFFFFFFFFFFF SUB DUP3 GT ISZERO PUSH2 0x31F4 JUMPI PUSH2 0x31F3 PUSH2 0x345E JUMP JUMPDEST JUMPDEST DUP3 DUP3 ADD SWAP1 POP SWAP3 SWAP2 POP POP JUMP JUMPDEST PUSH1 0x0 PUSH2 0x320A DUP3 PUSH2 0x32F5 JUMP JUMPDEST SWAP2 POP PUSH2 0x3215 DUP4 PUSH2 0x32F5 JUMP JUMPDEST SWAP3 POP DUP2 PUSH32 0xFFFFFFFFFFFFFFFFFFFFFFFFFFFFFFFFFFFFFFFFFFFFFFFFFFFFFFFFFFFFFFFF DIV DUP4 GT DUP3 ISZERO ISZERO AND ISZERO PUSH2 0x324E JUMPI PUSH2 0x324D PUSH2 0x345E JUMP JUMPDEST JUMPDEST DUP3 DUP3 MUL SWAP1 POP SWAP3 SWAP2 POP POP JUMP JUMPDEST PUSH1 0x0 PUSH2 0x3264 DUP3 PUSH2 0x32F5 JUMP JUMPDEST SWAP2 POP PUSH2 0x326F DUP4 PUSH2 0x32F5 JUMP JUMPDEST SWAP3 POP DUP3 DUP3 LT ISZERO PUSH2 0x3282 JUMPI PUSH2 0x3281 PUSH2 0x345E JUMP JUMPDEST JUMPDEST DUP3 DUP3 SUB SWAP1 POP SWAP3 SWAP2 POP POP JUMP JUMPDEST PUSH1 0x0 PUSH2 0x3298 DUP3 PUSH2 0x32D5 JUMP JUMPDEST SWAP1 POP SWAP2 SWAP1 POP JUMP JUMPDEST PUSH1 0x0 DUP2 ISZERO ISZERO SWAP1 POP SWAP2 SWAP1 POP JUMP JUMPDEST PUSH1 0x0 PUSH16 0xFFFFFFFFFFFFFFFFFFFFFFFFFFFFFFFF DUP3 AND SWAP1 POP SWAP2 SWAP1 POP JUMP JUMPDEST PUSH1 0x0 PUSH2 0xFFFF DUP3 AND SWAP1 POP SWAP2 SWAP1 POP JUMP JUMPDEST PUSH1 0x0 PUSH20 0xFFFFFFFFFFFFFFFFFFFFFFFFFFFFFFFFFFFFFFFF DUP3 AND SWAP1 POP SWAP2 SWAP1 POP JUMP JUMPDEST PUSH1 0x0 DUP2 SWAP1 POP SWAP2 SWAP1 POP JUMP JUMPDEST PUSH1 0x0 PUSH1 0xFF DUP3 AND SWAP1 POP SWAP2 SWAP1 POP JUMP JUMPDEST DUP3 DUP2 DUP4 CALLDATACOPY PUSH1 0x0 DUP4 DUP4 ADD MSTORE POP POP POP JUMP JUMPDEST PUSH1 0x0 JUMPDEST DUP4 DUP2 LT ISZERO PUSH2 0x3339 JUMPI DUP1 DUP3 ADD MLOAD DUP2 DUP5 ADD MSTORE PUSH1 0x20 DUP2 ADD SWAP1 POP PUSH2 0x331E JUMP JUMPDEST DUP4 DUP2 GT ISZERO PUSH2 0x3348 JUMPI PUSH1 0x0 DUP5 DUP5 ADD MSTORE JUMPDEST POP POP POP POP JUMP JUMPDEST PUSH1 0x0 PUSH1 0x2 DUP3 DIV SWAP1 POP PUSH1 0x1 DUP3 AND DUP1 PUSH2 0x3366 JUMPI PUSH1 0x7F DUP3 AND SWAP2 POP JUMPDEST PUSH1 0x20 DUP3 LT DUP2 EQ ISZERO PUSH2 0x337A JUMPI PUSH2 0x3379 PUSH2 0x348D JUMP JUMPDEST JUMPDEST POP SWAP2 SWAP1 POP JUMP JUMPDEST PUSH2 0x3389 DUP3 PUSH2 0x3556 JUMP JUMPDEST DUP2 ADD DUP2 DUP2 LT PUSH8 0xFFFFFFFFFFFFFFFF DUP3 GT OR ISZERO PUSH2 0x33A8 JUMPI PUSH2 0x33A7 PUSH2 0x34EB JUMP JUMPDEST JUMPDEST DUP1 PUSH1 0x40 MSTORE POP POP POP JUMP JUMPDEST PUSH1 0x0 PUSH2 0x33BC DUP3 PUSH2 0x32AB JUMP JUMPDEST SWAP2 POP PUSH16 0xFFFFFFFFFFFFFFFFFFFFFFFFFFFFFFFF DUP3 EQ ISZERO PUSH2 0x33DF JUMPI PUSH2 0x33DE PUSH2 0x345E JUMP JUMPDEST JUMPDEST PUSH1 0x1 DUP3 ADD SWAP1 POP SWAP2 SWAP1 POP JUMP JUMPDEST PUSH1 0x0 PUSH2 0x33F5 DUP3 PUSH2 0x32C7 JUMP JUMPDEST SWAP2 POP PUSH2 0xFFFF DUP3 EQ ISZERO PUSH2 0x340A JUMPI PUSH2 0x3409 PUSH2 0x345E JUMP JUMPDEST JUMPDEST PUSH1 0x1 DUP3 ADD SWAP1 POP SWAP2 SWAP1 POP JUMP JUMPDEST PUSH1 0x0 PUSH2 0x3420 DUP3 PUSH2 0x32F5 JUMP JUMPDEST SWAP2 POP PUSH32 0xFFFFFFFFFFFFFFFFFFFFFFFFFFFFFFFFFFFFFFFFFFFFFFFFFFFFFFFFFFFFFFFF DUP3 EQ ISZERO PUSH2 0x3453 JUMPI PUSH2 0x3452 PUSH2 0x345E JUMP JUMPDEST JUMPDEST PUSH1 0x1 DUP3 ADD SWAP1 POP SWAP2 SWAP1 POP JUMP JUMPDEST PUSH32 0x4E487B7100000000000000000000000000000000000000000000000000000000 PUSH1 0x0 MSTORE PUSH1 0x11 PUSH1 0x4 MSTORE PUSH1 0x24 PUSH1 0x0 REVERT JUMPDEST PUSH32 0x4E487B7100000000000000000000000000000000000000000000000000000000 PUSH1 0x0 MSTORE PUSH1 0x22 PUSH1 0x4 MSTORE PUSH1 0x24 PUSH1 0x0 REVERT JUMPDEST PUSH32 0x4E487B7100000000000000000000000000000000000000000000000000000000 PUSH1 0x0 MSTORE PUSH1 0x32 PUSH1 0x4 MSTORE PUSH1 0x24 PUSH1 0x0 REVERT JUMPDEST PUSH32 0x4E487B7100000000000000000000000000000000000000000000000000000000 PUSH1 0x0 MSTORE PUSH1 0x41 PUSH1 0x4 MSTORE PUSH1 0x24 PUSH1 0x0 REVERT JUMPDEST PUSH1 0x0 DUP1 REVERT JUMPDEST PUSH1 0x0 DUP1 REVERT JUMPDEST PUSH1 0x0 DUP1 REVERT JUMPDEST PUSH1 0x0 DUP1 REVERT JUMPDEST PUSH1 0x0 DUP1 REVERT JUMPDEST PUSH1 0x0 DUP1 REVERT JUMPDEST PUSH1 0x0 DUP1 REVERT JUMPDEST PUSH1 0x0 DUP1 REVERT JUMPDEST PUSH1 0x0 DUP1 REVERT JUMPDEST PUSH1 0x0 DUP1 REVERT JUMPDEST PUSH1 0x0 DUP1 REVERT JUMPDEST PUSH1 0x0 DUP1 REVERT JUMPDEST PUSH1 0x0 PUSH1 0x1F NOT PUSH1 0x1F DUP4 ADD AND SWAP1 POP SWAP2 SWAP1 POP JUMP JUMPDEST PUSH32 0x50726F706F73616C3A20696E6163746976650000000000000000000000000000 PUSH1 0x0 DUP3 ADD MSTORE POP JUMP JUMPDEST PUSH32 0x456E642074696D652073686F756C642062652067726561746572207468616E20 PUSH1 0x0 DUP3 ADD MSTORE PUSH32 0x63757272656E742074696D650000000000000000000000000000000000000000 PUSH1 0x20 DUP3 ADD MSTORE POP JUMP JUMPDEST PUSH32 0x45524332303A206275726E20616D6F756E7420657863656564732062616C616E PUSH1 0x0 DUP3 ADD MSTORE PUSH32 0x6365000000000000000000000000000000000000000000000000000000000000 PUSH1 0x20 DUP3 ADD MSTORE POP JUMP JUMPDEST PUSH32 0x616C726561647920766F74656400000000000000000000000000000000000000 PUSH1 0x0 DUP3 ADD MSTORE POP JUMP JUMPDEST PUSH32 0x50726F706F73616C3A20696E76616C69642063616E6469646174650000000000 PUSH1 0x0 DUP3 ADD MSTORE POP JUMP JUMPDEST PUSH32 0x6E6F7420612076616C69642070726F706F73616C000000000000000000000000 PUSH1 0x0 DUP3 ADD MSTORE POP JUMP JUMPDEST PUSH32 0x6E6F7420612076616C696420766F74657220666F7220746869732070726F706F PUSH1 0x0 DUP3 ADD MSTORE PUSH32 0x73616C0000000000000000000000000000000000000000000000000000000000 PUSH1 0x20 DUP3 ADD MSTORE POP JUMP JUMPDEST PUSH32 0x70726F706F73616C206E6F742073746172746564207965740000000000000000 PUSH1 0x0 DUP3 ADD MSTORE POP JUMP JUMPDEST PUSH32 0x70726F706F73616C206E6F742073746172746564000000000000000000000000 PUSH1 0x0 DUP3 ADD MSTORE POP JUMP JUMPDEST PUSH32 0x4E6F7420612076616C696420766F74657220666F7220746869732070726F706F PUSH1 0x0 DUP3 ADD MSTORE PUSH32 0x73616C0000000000000000000000000000000000000000000000000000000000 PUSH1 0x20 DUP3 ADD MSTORE POP JUMP JUMPDEST PUSH32 0x696E76616C69642070726F706F73616C49640000000000000000000000000000 PUSH1 0x0 DUP3 ADD MSTORE POP JUMP JUMPDEST PUSH32 0x6E6F742073756666696369656E742062616C616E636520746F20636173742076 PUSH1 0x0 DUP3 ADD MSTORE PUSH32 0x6F74650000000000000000000000000000000000000000000000000000000000 PUSH1 0x20 DUP3 ADD MSTORE POP JUMP JUMPDEST PUSH32 0x456E642074696D652073686F756C642062652067726561746572207468616E20 PUSH1 0x0 DUP3 ADD MSTORE PUSH32 0x73746172742074696D6500000000000000000000000000000000000000000000 PUSH1 0x20 DUP3 ADD MSTORE POP JUMP JUMPDEST PUSH32 0x45524332303A206275726E2066726F6D20746865207A65726F20616464726573 PUSH1 0x0 DUP3 ADD MSTORE PUSH32 0x7300000000000000000000000000000000000000000000000000000000000000 PUSH1 0x20 DUP3 ADD MSTORE POP JUMP JUMPDEST PUSH32 0x6E6F7420612076616C6964206C656E677468206F66206861736820726573706F PUSH1 0x0 DUP3 ADD MSTORE PUSH32 0x6E73652100000000000000000000000000000000000000000000000000000000 PUSH1 0x20 DUP3 ADD MSTORE POP JUMP JUMPDEST PUSH32 0x6D696E7400000000000000000000000000000000000000000000000000000000 PUSH1 0x0 DUP3 ADD MSTORE POP JUMP JUMPDEST PUSH32 0x496E76616C696420766F74657220666F722070726F706F73616C496421000000 PUSH1 0x0 DUP3 ADD MSTORE POP JUMP JUMPDEST PUSH32 0x6275726E00000000000000000000000000000000000000000000000000000000 PUSH1 0x0 DUP3 ADD MSTORE POP JUMP JUMPDEST PUSH32 0x6E6F7420766F7465640000000000000000000000000000000000000000000000 PUSH1 0x0 DUP3 ADD MSTORE POP JUMP JUMPDEST PUSH32 0x45524332303A206D696E7420746F20746865207A65726F206164647265737300 PUSH1 0x0 DUP3 ADD MSTORE POP JUMP JUMPDEST PUSH2 0x39D4 DUP2 PUSH2 0x328D JUMP JUMPDEST DUP2 EQ PUSH2 0x39DF JUMPI PUSH1 0x0 DUP1 REVERT JUMPDEST POP JUMP JUMPDEST PUSH2 0x39EB DUP2 PUSH2 0x32F5 JUMP JUMPDEST DUP2 EQ PUSH2 0x39F6 JUMPI PUSH1 0x0 DUP1 REVERT JUMPDEST POP JUMP JUMPDEST PUSH2 0x3A02 DUP2 PUSH2 0x32FF JUMP JUMPDEST DUP2 EQ PUSH2 0x3A0D JUMPI PUSH1 0x0 DUP1 REVERT JUMPDEST POP JUMP INVALID LOG2 PUSH5 0x6970667358 0x22 SLT KECCAK256 SWAP11 0xBE 0xCE DUP11 0xD2 0xA6 SWAP7 0xE1 NOT MOD 0xB3 DUP9 SAR EXP POP 0xC7 PUSH22 0xB2F42A65C10236B26AABE37012A77B64736F6C634300 ADDMOD SMOD STOP CALLER "
				},
				"gasEstimates": {
					"creation": {
						"codeDepositCost": "2983600",
						"executionCost": "infinite",
						"totalCost": "infinite"
					},
					"external": {
						"allVoters(address,uint256)": "infinite",
						"balanceOf(address)": "2863",
						"burnOwner(uint256,address[])": "infinite",
						"createProposal(uint8,address[],address,uint256,uint256,string,string[],uint256)": "infinite",
						"decimals()": "432",
						"name()": "infinite",
						"proposals(uint256)": "infinite",
						"responseProposal(uint256,address,string[],uint256[])": "infinite",
						"resultOfProposal(uint256)": "infinite",
						"symbol()": "infinite",
						"totalSupply()": "2504",
						"userProposal(address)": "infinite"
					}
				},
				"methodIdentifiers": {
					"allVoters(address,uint256)": "ab9c70d4",
					"balanceOf(address)": "70a08231",
					"burnOwner(uint256,address[])": "03af665c",
					"createProposal(uint8,address[],address,uint256,uint256,string,string[],uint256)": "4de77e48",
					"decimals()": "313ce567",
					"name()": "06fdde03",
					"proposals(uint256)": "013cf08b",
					"responseProposal(uint256,address,string[],uint256[])": "5c230eee",
					"resultOfProposal(uint256)": "9d671564",
					"symbol()": "95d89b41",
					"totalSupply()": "18160ddd",
					"userProposal(address)": "e745d68e"
				}
			},
			"storageLayout": {
				"storage": [
					{
						"astId": 636,
						"contract": "Qvoting.sol:Qvoting",
						"label": "_balances",
						"offset": 0,
						"slot": "0",
						"type": "t_mapping(t_address,t_uint256)"
					},
					{
						"astId": 638,
						"contract": "Qvoting.sol:Qvoting",
						"label": "_totalSupply",
						"offset": 0,
						"slot": "1",
						"type": "t_uint256"
					},
					{
						"astId": 640,
						"contract": "Qvoting.sol:Qvoting",
						"label": "_name",
						"offset": 0,
						"slot": "2",
						"type": "t_string_storage"
					},
					{
						"astId": 642,
						"contract": "Qvoting.sol:Qvoting",
						"label": "_symbol",
						"offset": 0,
						"slot": "3",
						"type": "t_string_storage"
					},
					{
						"astId": 856,
						"contract": "Qvoting.sol:Qvoting",
						"label": "owner",
						"offset": 0,
						"slot": "4",
						"type": "t_address"
					},
					{
						"astId": 945,
						"contract": "Qvoting.sol:Qvoting",
						"label": "proposalId",
						"offset": 0,
						"slot": "5",
						"type": "t_uint256"
					},
					{
						"astId": 950,
						"contract": "Qvoting.sol:Qvoting",
						"label": "userProposal",
						"offset": 0,
						"slot": "6",
						"type": "t_mapping(t_address,t_struct(UserProposal)418_storage)"
					},
					{
						"astId": 955,
						"contract": "Qvoting.sol:Qvoting",
						"label": "proposals",
						"offset": 0,
						"slot": "7",
						"type": "t_mapping(t_uint256,t_struct(proposal)66_storage)"
					},
					{
						"astId": 962,
						"contract": "Qvoting.sol:Qvoting",
						"label": "allVoters",
						"offset": 0,
						"slot": "8",
						"type": "t_mapping(t_address,t_mapping(t_uint256,t_struct(voter)522_storage))"
					},
					{
						"astId": 966,
						"contract": "Qvoting.sol:Qvoting",
						"label": "validProposals",
						"offset": 0,
						"slot": "9",
						"type": "t_mapping(t_uint256,t_bool)"
					}
				],
				"types": {
					"t_address": {
						"encoding": "inplace",
						"label": "address",
						"numberOfBytes": "20"
					},
					"t_bool": {
						"encoding": "inplace",
						"label": "bool",
						"numberOfBytes": "1"
					},
					"t_mapping(t_address,t_bool)": {
						"encoding": "mapping",
						"key": "t_address",
						"label": "mapping(address => bool)",
						"numberOfBytes": "32",
						"value": "t_bool"
					},
					"t_mapping(t_address,t_mapping(t_uint256,t_struct(voter)522_storage))": {
						"encoding": "mapping",
						"key": "t_address",
						"label": "mapping(address => mapping(uint256 => struct voterLibrary.voter))",
						"numberOfBytes": "32",
						"value": "t_mapping(t_uint256,t_struct(voter)522_storage)"
					},
					"t_mapping(t_address,t_struct(UserProposal)418_storage)": {
						"encoding": "mapping",
						"key": "t_address",
						"label": "mapping(address => struct UserProposalLibrary.UserProposal)",
						"numberOfBytes": "32",
						"value": "t_struct(UserProposal)418_storage"
					},
					"t_mapping(t_address,t_uint256)": {
						"encoding": "mapping",
						"key": "t_address",
						"label": "mapping(address => uint256)",
						"numberOfBytes": "32",
						"value": "t_uint256"
					},
					"t_mapping(t_string_memory_ptr,t_bool)": {
						"encoding": "mapping",
						"key": "t_string_memory_ptr",
						"label": "mapping(string => bool)",
						"numberOfBytes": "32",
						"value": "t_bool"
					},
					"t_mapping(t_string_memory_ptr,t_uint256)": {
						"encoding": "mapping",
						"key": "t_string_memory_ptr",
						"label": "mapping(string => uint256)",
						"numberOfBytes": "32",
						"value": "t_uint256"
					},
					"t_mapping(t_uint128,t_uint256)": {
						"encoding": "mapping",
						"key": "t_uint128",
						"label": "mapping(uint128 => uint256)",
						"numberOfBytes": "32",
						"value": "t_uint256"
					},
					"t_mapping(t_uint256,t_bool)": {
						"encoding": "mapping",
						"key": "t_uint256",
						"label": "mapping(uint256 => bool)",
						"numberOfBytes": "32",
						"value": "t_bool"
					},
					"t_mapping(t_uint256,t_mapping(t_uint256,t_string_storage))": {
						"encoding": "mapping",
						"key": "t_uint256",
						"label": "mapping(uint256 => mapping(uint256 => string))",
						"numberOfBytes": "32",
						"value": "t_mapping(t_uint256,t_string_storage)"
					},
					"t_mapping(t_uint256,t_string_storage)": {
						"encoding": "mapping",
						"key": "t_uint256",
						"label": "mapping(uint256 => string)",
						"numberOfBytes": "32",
						"value": "t_string_storage"
					},
					"t_mapping(t_uint256,t_struct(proposal)66_storage)": {
						"encoding": "mapping",
						"key": "t_uint256",
						"label": "mapping(uint256 => struct proposalLibrary.proposal)",
						"numberOfBytes": "32",
						"value": "t_struct(proposal)66_storage"
					},
					"t_mapping(t_uint256,t_struct(voter)522_storage)": {
						"encoding": "mapping",
						"key": "t_uint256",
						"label": "mapping(uint256 => struct voterLibrary.voter)",
						"numberOfBytes": "32",
						"value": "t_struct(voter)522_storage"
					},
					"t_string_memory_ptr": {
						"encoding": "bytes",
						"label": "string",
						"numberOfBytes": "32"
					},
					"t_string_storage": {
						"encoding": "bytes",
						"label": "string",
						"numberOfBytes": "32"
					},
					"t_struct(UserProposal)418_storage": {
						"encoding": "inplace",
						"label": "struct UserProposalLibrary.UserProposal",
						"members": [
							{
								"astId": 397,
								"contract": "Qvoting.sol:Qvoting",
								"label": "proposalCount",
								"offset": 0,
								"slot": "0",
								"type": "t_uint128"
							},
							{
								"astId": 399,
								"contract": "Qvoting.sol:Qvoting",
								"label": "responseCount",
								"offset": 16,
								"slot": "0",
								"type": "t_uint128"
							},
							{
								"astId": 403,
								"contract": "Qvoting.sol:Qvoting",
								"label": "proposalCreated",
								"offset": 0,
								"slot": "1",
								"type": "t_mapping(t_uint128,t_uint256)"
							},
							{
								"astId": 407,
								"contract": "Qvoting.sol:Qvoting",
								"label": "proposalResponsed",
								"offset": 0,
								"slot": "2",
								"type": "t_mapping(t_uint128,t_uint256)"
							},
							{
								"astId": 413,
								"contract": "Qvoting.sol:Qvoting",
								"label": "proposalAnswer",
								"offset": 0,
								"slot": "3",
								"type": "t_mapping(t_uint256,t_mapping(t_uint256,t_string_storage))"
							},
							{
								"astId": 417,
								"contract": "Qvoting.sol:Qvoting",
								"label": "responsedProposal",
								"offset": 0,
								"slot": "4",
								"type": "t_mapping(t_uint256,t_bool)"
							}
						],
						"numberOfBytes": "160"
					},
					"t_struct(proposal)66_storage": {
						"encoding": "inplace",
						"label": "struct proposalLibrary.proposal",
						"members": [
							{
								"astId": 33,
								"contract": "Qvoting.sol:Qvoting",
								"label": "creator",
								"offset": 0,
								"slot": "0",
								"type": "t_address"
							},
							{
								"astId": 35,
								"contract": "Qvoting.sol:Qvoting",
								"label": "status",
								"offset": 20,
								"slot": "0",
								"type": "t_uint8"
							},
							{
								"astId": 37,
								"contract": "Qvoting.sol:Qvoting",
								"label": "disc",
								"offset": 0,
								"slot": "1",
								"type": "t_string_storage"
							},
							{
								"astId": 39,
								"contract": "Qvoting.sol:Qvoting",
								"label": "startTime",
								"offset": 0,
								"slot": "2",
								"type": "t_uint256"
							},
							{
								"astId": 41,
								"contract": "Qvoting.sol:Qvoting",
								"label": "expirationTime",
								"offset": 0,
								"slot": "3",
								"type": "t_uint256"
							},
							{
								"astId": 43,
								"contract": "Qvoting.sol:Qvoting",
								"label": "numOfOptions",
								"offset": 0,
								"slot": "4",
								"type": "t_uint16"
							},
							{
								"astId": 45,
								"contract": "Qvoting.sol:Qvoting",
								"label": "voteRight",
								"offset": 0,
								"slot": "5",
								"type": "t_uint256"
							},
							{
								"astId": 49,
								"contract": "Qvoting.sol:Qvoting",
								"label": "voters",
								"offset": 0,
								"slot": "6",
								"type": "t_mapping(t_address,t_bool)"
							},
							{
								"astId": 53,
								"contract": "Qvoting.sol:Qvoting",
								"label": "cand",
								"offset": 0,
								"slot": "7",
								"type": "t_mapping(t_string_memory_ptr,t_bool)"
							},
							{
								"astId": 57,
								"contract": "Qvoting.sol:Qvoting",
								"label": "candHash",
								"offset": 0,
								"slot": "8",
								"type": "t_mapping(t_uint256,t_string_storage)"
							},
							{
								"astId": 61,
								"contract": "Qvoting.sol:Qvoting",
								"label": "result",
								"offset": 0,
								"slot": "9",
								"type": "t_mapping(t_uint256,t_string_storage)"
							},
							{
								"astId": 65,
								"contract": "Qvoting.sol:Qvoting",
								"label": "votes",
								"offset": 0,
								"slot": "10",
								"type": "t_mapping(t_string_memory_ptr,t_uint256)"
							}
						],
						"numberOfBytes": "352"
					},
					"t_struct(voter)522_storage": {
						"encoding": "inplace",
						"label": "struct voterLibrary.voter",
						"members": [
							{
								"astId": 515,
								"contract": "Qvoting.sol:Qvoting",
								"label": "proposalId",
								"offset": 0,
								"slot": "0",
								"type": "t_uint256"
							},
							{
								"astId": 517,
								"contract": "Qvoting.sol:Qvoting",
								"label": "voterAddress",
								"offset": 0,
								"slot": "1",
								"type": "t_address"
							},
							{
								"astId": 519,
								"contract": "Qvoting.sol:Qvoting",
								"label": "hasVoted",
								"offset": 20,
								"slot": "1",
								"type": "t_bool"
							},
							{
								"astId": 521,
								"contract": "Qvoting.sol:Qvoting",
								"label": "voteNum",
								"offset": 0,
								"slot": "2",
								"type": "t_uint256"
							}
						],
						"numberOfBytes": "96"
					},
					"t_uint128": {
						"encoding": "inplace",
						"label": "uint128",
						"numberOfBytes": "16"
					},
					"t_uint16": {
						"encoding": "inplace",
						"label": "uint16",
						"numberOfBytes": "2"
					},
					"t_uint256": {
						"encoding": "inplace",
						"label": "uint256",
						"numberOfBytes": "32"
					},
					"t_uint8": {
						"encoding": "inplace",
						"label": "uint8",
						"numberOfBytes": "1"
					}
				}
			},
			"userdoc": {
				"kind": "user",
				"methods": {},
				"version": 1
			}
		}
	}
}