{
	"Qvoting.sol": {
		"Qvoting": {
			"abi": [
				{
					"anonymous": false,
					"inputs": [
						{
							"indexed": false,
							"internalType": "uint256",
							"name": "proposalId",
							"type": "uint256"
						},
						{
							"indexed": false,
							"internalType": "address[]",
							"name": "voters",
							"type": "address[]"
						},
						{
							"indexed": false,
							"internalType": "address",
							"name": "creator",
							"type": "address"
						},
						{
							"indexed": false,
							"internalType": "uint256",
							"name": "startTime",
							"type": "uint256"
						},
						{
							"indexed": false,
							"internalType": "uint256",
							"name": "expirationTime",
							"type": "uint256"
						},
						{
							"indexed": false,
							"internalType": "string",
							"name": "description",
							"type": "string"
						},
						{
							"indexed": false,
							"internalType": "string[]",
							"name": "_cand",
							"type": "string[]"
						}
					],
					"name": "ProposalCreated",
					"type": "event"
				},
				{
					"anonymous": false,
					"inputs": [
						{
							"indexed": false,
							"internalType": "address",
							"name": "voter",
							"type": "address"
						},
						{
							"indexed": false,
							"internalType": "uint256",
							"name": "ProposalID",
							"type": "uint256"
						},
						{
							"indexed": false,
							"internalType": "uint256[]",
							"name": "_tokens",
							"type": "uint256[]"
						}
					],
					"name": "VoteCasted",
					"type": "event"
				},
				{
					"anonymous": false,
					"inputs": [
						{
							"indexed": false,
							"internalType": "string",
							"name": "mintAndburn",
							"type": "string"
						},
						{
							"indexed": false,
							"internalType": "address",
							"name": "account",
							"type": "address"
						},
						{
							"indexed": false,
							"internalType": "uint256",
							"name": "amount",
							"type": "uint256"
						}
					],
					"name": "mintAndburn",
					"type": "event"
				},
				{
					"inputs": [
						{
							"internalType": "address",
							"name": "",
							"type": "address"
						}
					],
					"name": "allVoters",
					"outputs": [
						{
							"internalType": "uint256",
							"name": "proposalId",
							"type": "uint256"
						},
						{
							"internalType": "address",
							"name": "voterAddress",
							"type": "address"
						},
						{
							"internalType": "bool",
							"name": "hasVoted",
							"type": "bool"
						},
						{
							"internalType": "uint256",
							"name": "voteNum",
							"type": "uint256"
						}
					],
					"stateMutability": "view",
					"type": "function"
				},
				{
					"inputs": [
						{
							"internalType": "address",
							"name": "account",
							"type": "address"
						}
					],
					"name": "balanceOf",
					"outputs": [
						{
							"internalType": "uint256",
							"name": "",
							"type": "uint256"
						}
					],
					"stateMutability": "view",
					"type": "function"
				},
				{
					"inputs": [
						{
							"internalType": "uint8",
							"name": "_status",
							"type": "uint8"
						},
						{
							"internalType": "address[]",
							"name": "_voters",
							"type": "address[]"
						},
						{
							"internalType": "address",
							"name": "_creator",
							"type": "address"
						},
						{
							"internalType": "uint256",
							"name": "_startTime",
							"type": "uint256"
						},
						{
							"internalType": "uint256",
							"name": "_expirationTime",
							"type": "uint256"
						},
						{
							"internalType": "string",
							"name": "_disc",
							"type": "string"
						},
						{
							"internalType": "string[]",
							"name": "_cand",
							"type": "string[]"
						},
						{
							"internalType": "uint256",
							"name": "_voteRight",
							"type": "uint256"
						}
					],
					"name": "createProposal",
					"outputs": [],
					"stateMutability": "nonpayable",
					"type": "function"
				},
				{
					"inputs": [],
					"name": "decimals",
					"outputs": [
						{
							"internalType": "uint8",
							"name": "",
							"type": "uint8"
						}
					],
					"stateMutability": "view",
					"type": "function"
				},
				{
					"inputs": [],
					"name": "name",
					"outputs": [
						{
							"internalType": "string",
							"name": "",
							"type": "string"
						}
					],
					"stateMutability": "view",
					"type": "function"
				},
				{
					"inputs": [
						{
							"internalType": "uint256",
							"name": "",
							"type": "uint256"
						}
					],
					"name": "proposals",
					"outputs": [
						{
							"internalType": "address",
							"name": "creator",
							"type": "address"
						},
						{
							"internalType": "uint8",
							"name": "status",
							"type": "uint8"
						},
						{
							"internalType": "string",
							"name": "disc",
							"type": "string"
						},
						{
							"internalType": "uint256",
							"name": "startTime",
							"type": "uint256"
						},
						{
							"internalType": "uint256",
							"name": "expirationTime",
							"type": "uint256"
						},
						{
							"internalType": "uint16",
							"name": "numOfOptions",
							"type": "uint16"
						},
						{
							"internalType": "uint256",
							"name": "voteRight",
							"type": "uint256"
						}
					],
					"stateMutability": "view",
					"type": "function"
				},
				{
					"inputs": [
						{
							"internalType": "uint256",
							"name": "_proposalId",
							"type": "uint256"
						},
						{
							"internalType": "address",
							"name": "_voter",
							"type": "address"
						},
						{
							"internalType": "string[]",
							"name": "_hash",
							"type": "string[]"
						},
						{
							"internalType": "uint256[]",
							"name": "v",
							"type": "uint256[]"
						}
					],
					"name": "responseProposal",
					"outputs": [],
					"stateMutability": "nonpayable",
					"type": "function"
				},
				{
					"inputs": [],
					"name": "symbol",
					"outputs": [
						{
							"internalType": "string",
							"name": "",
							"type": "string"
						}
					],
					"stateMutability": "view",
					"type": "function"
				},
				{
					"inputs": [],
					"name": "totalSupply",
					"outputs": [
						{
							"internalType": "uint256",
							"name": "",
							"type": "uint256"
						}
					],
					"stateMutability": "view",
					"type": "function"
				},
				{
					"inputs": [
						{
							"internalType": "address",
							"name": "",
							"type": "address"
						}
					],
					"name": "userProposal",
					"outputs": [
						{
							"internalType": "uint128",
							"name": "proposalCount",
							"type": "uint128"
						},
						{
							"internalType": "uint128",
							"name": "responseCount",
							"type": "uint128"
						}
					],
					"stateMutability": "view",
					"type": "function"
				}
			],
			"devdoc": {
				"kind": "dev",
				"methods": {
					"balanceOf(address)": {
						"details": "See {IERC20-balanceOf}."
					},
					"decimals()": {
						"details": "Returns the number of decimals used to get its user representation. For example, if `decimals` equals `2`, a balance of `505` tokens should be displayed to a user as `5.05` (`505 / 10 ** 2`). Tokens usually opt for a value of 18, imitating the relationship between Ether and Wei. This is the value {ERC20} uses, unless this function is overridden; NOTE: This information is only used for _display_ purposes: it in no way affects any of the arithmetic of the contract, including {IERC20-balanceOf} and {IERC20-transfer}."
					},
					"name()": {
						"details": "Returns the name of the token."
					},
					"symbol()": {
						"details": "Returns the symbol of the token, usually a shorter version of the name."
					},
					"totalSupply()": {
						"details": "See {IERC20-totalSupply}."
					}
				},
				"version": 1
			},
			"evm": {
				"assembly": "    /* \"Qvoting.sol\":481:4392  contract Qvoting is proposalEvents, QVtoken{\r... */\n  mstore(0x40, 0x80)\n  callvalue\n  dup1\n  iszero\n  tag_1\n  jumpi\n  0x00\n  dup1\n  revert\ntag_1:\n  pop\n    /* \"QvToken/ERC20.sol\":2016:2132  constructor(string memory name_, string memory symbol_) {\r... */\n  mload(0x40)\n  dup1\n  0x40\n  add\n  0x40\n  mstore\n  dup1\n  0x0c\n  dup2\n  mstore\n  0x20\n  add\n  0x51566f74696e67546f6b656e0000000000000000000000000000000000000000\n  dup2\n  mstore\n  pop\n  mload(0x40)\n  dup1\n  0x40\n  add\n  0x40\n  mstore\n  dup1\n  0x02\n  dup2\n  mstore\n  0x20\n  add\n  0x5176000000000000000000000000000000000000000000000000000000000000\n  dup2\n  mstore\n  pop\n    /* \"QvToken/ERC20.sol\":2091:2096  name_ */\n  dup2\n    /* \"QvToken/ERC20.sol\":2083:2088  _name */\n  0x02\n    /* \"QvToken/ERC20.sol\":2083:2096  _name = name_ */\n  swap1\n  dup1\n  mload\n  swap1\n  0x20\n  add\n  swap1\n  tag_5\n  swap3\n  swap2\n  swap1\n  tag_6\n  jump\t// in\ntag_5:\n  pop\n    /* \"QvToken/ERC20.sol\":2117:2124  symbol_ */\n  dup1\n    /* \"QvToken/ERC20.sol\":2107:2114  _symbol */\n  0x03\n    /* \"QvToken/ERC20.sol\":2107:2124  _symbol = symbol_ */\n  swap1\n  dup1\n  mload\n  swap1\n  0x20\n  add\n  swap1\n  tag_7\n  swap3\n  swap2\n  swap1\n  tag_6\n  jump\t// in\ntag_7:\n  pop\n    /* \"QvToken/ERC20.sol\":2016:2132  constructor(string memory name_, string memory symbol_) {\r... */\n  pop\n  pop\n    /* \"QvToken/QvToken.sol\":280:290  msg.sender */\n  caller\n    /* \"QvToken/QvToken.sol\":272:277  owner */\n  0x04\n  0x00\n    /* \"QvToken/QvToken.sol\":272:290  owner = msg.sender */\n  0x0100\n  exp\n  dup2\n  sload\n  dup2\n  0xffffffffffffffffffffffffffffffffffffffff\n  mul\n  not\n  and\n  swap1\n  dup4\n  0xffffffffffffffffffffffffffffffffffffffff\n  and\n  mul\n  or\n  swap1\n  sstore\n  pop\n    /* \"Qvoting.sol\":481:4392  contract Qvoting is proposalEvents, QVtoken{\r... */\n  jump(tag_9)\ntag_6:\n  dup3\n  dup1\n  sload\n  tag_10\n  swap1\n  tag_11\n  jump\t// in\ntag_10:\n  swap1\n  0x00\n  mstore\n  keccak256(0x00, 0x20)\n  swap1\n  0x1f\n  add\n  0x20\n  swap1\n  div\n  dup2\n  add\n  swap3\n  dup3\n  tag_13\n  jumpi\n  0x00\n  dup6\n  sstore\n  jump(tag_12)\ntag_13:\n  dup3\n  0x1f\n  lt\n  tag_14\n  jumpi\n  dup1\n  mload\n  not(0xff)\n  and\n  dup4\n  dup1\n  add\n  or\n  dup6\n  sstore\n  jump(tag_12)\ntag_14:\n  dup3\n  dup1\n  add\n  0x01\n  add\n  dup6\n  sstore\n  dup3\n  iszero\n  tag_12\n  jumpi\n  swap2\n  dup3\n  add\ntag_15:\n  dup3\n  dup2\n  gt\n  iszero\n  tag_16\n  jumpi\n  dup3\n  mload\n  dup3\n  sstore\n  swap2\n  0x20\n  add\n  swap2\n  swap1\n  0x01\n  add\n  swap1\n  jump(tag_15)\ntag_16:\ntag_12:\n  pop\n  swap1\n  pop\n  tag_17\n  swap2\n  swap1\n  tag_18\n  jump\t// in\ntag_17:\n  pop\n  swap1\n  jump\t// out\ntag_18:\ntag_19:\n  dup1\n  dup3\n  gt\n  iszero\n  tag_20\n  jumpi\n  0x00\n  dup2\n  0x00\n  swap1\n  sstore\n  pop\n  0x01\n  add\n  jump(tag_19)\ntag_20:\n  pop\n  swap1\n  jump\t// out\n    /* \"#utility.yul\":7:327   */\ntag_11:\n    /* \"#utility.yul\":51:57   */\n  0x00\n    /* \"#utility.yul\":88:89   */\n  0x02\n    /* \"#utility.yul\":82:86   */\n  dup3\n    /* \"#utility.yul\":78:90   */\n  div\n    /* \"#utility.yul\":68:90   */\n  swap1\n  pop\n    /* \"#utility.yul\":135:136   */\n  0x01\n    /* \"#utility.yul\":129:133   */\n  dup3\n    /* \"#utility.yul\":125:137   */\n  and\n    /* \"#utility.yul\":156:174   */\n  dup1\n    /* \"#utility.yul\":146:227   */\n  tag_23\n  jumpi\n    /* \"#utility.yul\":212:216   */\n  0x7f\n    /* \"#utility.yul\":204:210   */\n  dup3\n    /* \"#utility.yul\":200:217   */\n  and\n    /* \"#utility.yul\":190:217   */\n  swap2\n  pop\n    /* \"#utility.yul\":146:227   */\ntag_23:\n    /* \"#utility.yul\":274:276   */\n  0x20\n    /* \"#utility.yul\":266:272   */\n  dup3\n    /* \"#utility.yul\":263:277   */\n  lt\n    /* \"#utility.yul\":243:261   */\n  dup2\n    /* \"#utility.yul\":240:278   */\n  eq\n    /* \"#utility.yul\":237:321   */\n  iszero\n  tag_24\n  jumpi\n    /* \"#utility.yul\":293:311   */\n  tag_25\n  tag_26\n  jump\t// in\ntag_25:\n    /* \"#utility.yul\":237:321   */\ntag_24:\n    /* \"#utility.yul\":58:327   */\n  pop\n    /* \"#utility.yul\":7:327   */\n  swap2\n  swap1\n  pop\n  jump\t// out\n    /* \"#utility.yul\":333:513   */\ntag_26:\n    /* \"#utility.yul\":381:458   */\n  0x4e487b7100000000000000000000000000000000000000000000000000000000\n    /* \"#utility.yul\":378:379   */\n  0x00\n    /* \"#utility.yul\":371:459   */\n  mstore\n    /* \"#utility.yul\":478:482   */\n  0x22\n    /* \"#utility.yul\":475:476   */\n  0x04\n    /* \"#utility.yul\":468:483   */\n  mstore\n    /* \"#utility.yul\":502:506   */\n  0x24\n    /* \"#utility.yul\":499:500   */\n  0x00\n    /* \"#utility.yul\":492:507   */\n  revert\n    /* \"Qvoting.sol\":481:4392  contract Qvoting is proposalEvents, QVtoken{\r... */\ntag_9:\n  dataSize(sub_0)\n  dup1\n  dataOffset(sub_0)\n  0x00\n  codecopy\n  0x00\n  return\nstop\n\nsub_0: assembly {\n        /* \"Qvoting.sol\":481:4392  contract Qvoting is proposalEvents, QVtoken{\r... */\n      mstore(0x40, 0x80)\n      callvalue\n      dup1\n      iszero\n      tag_1\n      jumpi\n      0x00\n      dup1\n      revert\n    tag_1:\n      pop\n      jumpi(tag_2, lt(calldatasize, 0x04))\n      shr(0xe0, calldataload(0x00))\n      dup1\n      0x5c230eee\n      gt\n      tag_13\n      jumpi\n      dup1\n      0x5c230eee\n      eq\n      tag_8\n      jumpi\n      dup1\n      0x70a08231\n      eq\n      tag_9\n      jumpi\n      dup1\n      0x95d89b41\n      eq\n      tag_10\n      jumpi\n      dup1\n      0xc3703048\n      eq\n      tag_11\n      jumpi\n      dup1\n      0xe745d68e\n      eq\n      tag_12\n      jumpi\n      jump(tag_2)\n    tag_13:\n      dup1\n      0x013cf08b\n      eq\n      tag_3\n      jumpi\n      dup1\n      0x06fdde03\n      eq\n      tag_4\n      jumpi\n      dup1\n      0x18160ddd\n      eq\n      tag_5\n      jumpi\n      dup1\n      0x313ce567\n      eq\n      tag_6\n      jumpi\n      dup1\n      0x4de77e48\n      eq\n      tag_7\n      jumpi\n    tag_2:\n      0x00\n      dup1\n      revert\n        /* \"Qvoting.sol\":1304:1362  mapping(uint => proposalLibrary.proposal) public proposals */\n    tag_3:\n      tag_14\n      0x04\n      dup1\n      calldatasize\n      sub\n      dup2\n      add\n      swap1\n      tag_15\n      swap2\n      swap1\n      tag_16\n      jump\t// in\n    tag_15:\n      tag_17\n      jump\t// in\n    tag_14:\n      mload(0x40)\n      tag_18\n      swap8\n      swap7\n      swap6\n      swap5\n      swap4\n      swap3\n      swap2\n      swap1\n      tag_19\n      jump\t// in\n    tag_18:\n      mload(0x40)\n      dup1\n      swap2\n      sub\n      swap1\n      return\n        /* \"QvToken/ERC20.sol\":2202:2302  function name() public view virtual override returns (string memory) {\r... */\n    tag_4:\n      tag_20\n      tag_21\n      jump\t// in\n    tag_20:\n      mload(0x40)\n      tag_22\n      swap2\n      swap1\n      tag_23\n      jump\t// in\n    tag_22:\n      mload(0x40)\n      dup1\n      swap2\n      sub\n      swap1\n      return\n        /* \"QvToken/ERC20.sol\":3322:3430  function totalSupply() public view virtual override returns (uint256) {\r... */\n    tag_5:\n      tag_24\n      tag_25\n      jump\t// in\n    tag_24:\n      mload(0x40)\n      tag_26\n      swap2\n      swap1\n      tag_27\n      jump\t// in\n    tag_26:\n      mload(0x40)\n      dup1\n      swap2\n      sub\n      swap1\n      return\n        /* \"QvToken/ERC20.sol\":3164:3257  function decimals() public view virtual override returns (uint8) {\r... */\n    tag_6:\n      tag_28\n      tag_29\n      jump\t// in\n    tag_28:\n      mload(0x40)\n      tag_30\n      swap2\n      swap1\n      tag_31\n      jump\t// in\n    tag_30:\n      mload(0x40)\n      dup1\n      swap2\n      sub\n      swap1\n      return\n        /* \"Qvoting.sol\":1948:3233  function createProposal(uint8 _status, address[] memory _voters, address _creator,\r... */\n    tag_7:\n      tag_32\n      0x04\n      dup1\n      calldatasize\n      sub\n      dup2\n      add\n      swap1\n      tag_33\n      swap2\n      swap1\n      tag_34\n      jump\t// in\n    tag_33:\n      tag_35\n      jump\t// in\n    tag_32:\n      stop\n        /* \"Qvoting.sol\":3241:4387  function responseProposal(uint _proposalId, address _voter, string[] memory _hash, uint[] memory v) external {\r... */\n    tag_8:\n      tag_36\n      0x04\n      dup1\n      calldatasize\n      sub\n      dup2\n      add\n      swap1\n      tag_37\n      swap2\n      swap1\n      tag_38\n      jump\t// in\n    tag_37:\n      tag_39\n      jump\t// in\n    tag_36:\n      stop\n        /* \"QvToken/ERC20.sol\":3493:3620  function balanceOf(address account) public view virtual override returns (uint256) {\r... */\n    tag_9:\n      tag_40\n      0x04\n      dup1\n      calldatasize\n      sub\n      dup2\n      add\n      swap1\n      tag_41\n      swap2\n      swap1\n      tag_42\n      jump\t// in\n    tag_41:\n      tag_43\n      jump\t// in\n    tag_40:\n      mload(0x40)\n      tag_44\n      swap2\n      swap1\n      tag_27\n      jump\t// in\n    tag_44:\n      mload(0x40)\n      dup1\n      swap2\n      sub\n      swap1\n      return\n        /* \"QvToken/ERC20.sol\":2421:2525  function symbol() public view virtual override returns (string memory) {\r... */\n    tag_10:\n      tag_45\n      tag_46\n      jump\t// in\n    tag_45:\n      mload(0x40)\n      tag_47\n      swap2\n      swap1\n      tag_23\n      jump\t// in\n    tag_47:\n      mload(0x40)\n      dup1\n      swap2\n      sub\n      swap1\n      return\n        /* \"Qvoting.sol\":1400:1455  mapping(address => voterLibrary.voter) public allVoters */\n    tag_11:\n      tag_48\n      0x04\n      dup1\n      calldatasize\n      sub\n      dup2\n      add\n      swap1\n      tag_49\n      swap2\n      swap1\n      tag_42\n      jump\t// in\n    tag_49:\n      tag_50\n      jump\t// in\n    tag_48:\n      mload(0x40)\n      tag_51\n      swap5\n      swap4\n      swap3\n      swap2\n      swap1\n      tag_52\n      jump\t// in\n    tag_51:\n      mload(0x40)\n      dup1\n      swap2\n      sub\n      swap1\n      return\n        /* \"Qvoting.sol\":1201:1273  mapping(address => UserProposalLibrary.UserProposal) public userProposal */\n    tag_12:\n      tag_53\n      0x04\n      dup1\n      calldatasize\n      sub\n      dup2\n      add\n      swap1\n      tag_54\n      swap2\n      swap1\n      tag_42\n      jump\t// in\n    tag_54:\n      tag_55\n      jump\t// in\n    tag_53:\n      mload(0x40)\n      tag_56\n      swap3\n      swap2\n      swap1\n      tag_57\n      jump\t// in\n    tag_56:\n      mload(0x40)\n      dup1\n      swap2\n      sub\n      swap1\n      return\n        /* \"Qvoting.sol\":1304:1362  mapping(uint => proposalLibrary.proposal) public proposals */\n    tag_17:\n      mstore(0x20, 0x07)\n      dup1\n      0x00\n      mstore\n      keccak256(0x00, 0x40)\n      0x00\n      swap2\n      pop\n      swap1\n      pop\n      dup1\n      0x00\n      add\n      0x00\n      swap1\n      sload\n      swap1\n      0x0100\n      exp\n      swap1\n      div\n      0xffffffffffffffffffffffffffffffffffffffff\n      and\n      swap1\n      dup1\n      0x00\n      add\n      0x14\n      swap1\n      sload\n      swap1\n      0x0100\n      exp\n      swap1\n      div\n      0xff\n      and\n      swap1\n      dup1\n      0x01\n      add\n      dup1\n      sload\n      tag_58\n      swap1\n      tag_59\n      jump\t// in\n    tag_58:\n      dup1\n      0x1f\n      add\n      0x20\n      dup1\n      swap2\n      div\n      mul\n      0x20\n      add\n      mload(0x40)\n      swap1\n      dup2\n      add\n      0x40\n      mstore\n      dup1\n      swap3\n      swap2\n      swap1\n      dup2\n      dup2\n      mstore\n      0x20\n      add\n      dup3\n      dup1\n      sload\n      tag_60\n      swap1\n      tag_59\n      jump\t// in\n    tag_60:\n      dup1\n      iszero\n      tag_61\n      jumpi\n      dup1\n      0x1f\n      lt\n      tag_62\n      jumpi\n      0x0100\n      dup1\n      dup4\n      sload\n      div\n      mul\n      dup4\n      mstore\n      swap2\n      0x20\n      add\n      swap2\n      jump(tag_61)\n    tag_62:\n      dup3\n      add\n      swap2\n      swap1\n      0x00\n      mstore\n      keccak256(0x00, 0x20)\n      swap1\n    tag_63:\n      dup2\n      sload\n      dup2\n      mstore\n      swap1\n      0x01\n      add\n      swap1\n      0x20\n      add\n      dup1\n      dup4\n      gt\n      tag_63\n      jumpi\n      dup3\n      swap1\n      sub\n      0x1f\n      and\n      dup3\n      add\n      swap2\n    tag_61:\n      pop\n      pop\n      pop\n      pop\n      pop\n      swap1\n      dup1\n      0x02\n      add\n      sload\n      swap1\n      dup1\n      0x03\n      add\n      sload\n      swap1\n      dup1\n      0x04\n      add\n      0x00\n      swap1\n      sload\n      swap1\n      0x0100\n      exp\n      swap1\n      div\n      0xffff\n      and\n      swap1\n      dup1\n      0x05\n      add\n      sload\n      swap1\n      pop\n      dup8\n      jump\t// out\n        /* \"QvToken/ERC20.sol\":2202:2302  function name() public view virtual override returns (string memory) {\r... */\n    tag_21:\n        /* \"QvToken/ERC20.sol\":2256:2269  string memory */\n      0x60\n        /* \"QvToken/ERC20.sol\":2289:2294  _name */\n      0x02\n        /* \"QvToken/ERC20.sol\":2282:2294  return _name */\n      dup1\n      sload\n      tag_65\n      swap1\n      tag_59\n      jump\t// in\n    tag_65:\n      dup1\n      0x1f\n      add\n      0x20\n      dup1\n      swap2\n      div\n      mul\n      0x20\n      add\n      mload(0x40)\n      swap1\n      dup2\n      add\n      0x40\n      mstore\n      dup1\n      swap3\n      swap2\n      swap1\n      dup2\n      dup2\n      mstore\n      0x20\n      add\n      dup3\n      dup1\n      sload\n      tag_66\n      swap1\n      tag_59\n      jump\t// in\n    tag_66:\n      dup1\n      iszero\n      tag_67\n      jumpi\n      dup1\n      0x1f\n      lt\n      tag_68\n      jumpi\n      0x0100\n      dup1\n      dup4\n      sload\n      div\n      mul\n      dup4\n      mstore\n      swap2\n      0x20\n      add\n      swap2\n      jump(tag_67)\n    tag_68:\n      dup3\n      add\n      swap2\n      swap1\n      0x00\n      mstore\n      keccak256(0x00, 0x20)\n      swap1\n    tag_69:\n      dup2\n      sload\n      dup2\n      mstore\n      swap1\n      0x01\n      add\n      swap1\n      0x20\n      add\n      dup1\n      dup4\n      gt\n      tag_69\n      jumpi\n      dup3\n      swap1\n      sub\n      0x1f\n      and\n      dup3\n      add\n      swap2\n    tag_67:\n      pop\n      pop\n      pop\n      pop\n      pop\n      swap1\n      pop\n        /* \"QvToken/ERC20.sol\":2202:2302  function name() public view virtual override returns (string memory) {\r... */\n      swap1\n      jump\t// out\n        /* \"QvToken/ERC20.sol\":3322:3430  function totalSupply() public view virtual override returns (uint256) {\r... */\n    tag_25:\n        /* \"QvToken/ERC20.sol\":3383:3390  uint256 */\n      0x00\n        /* \"QvToken/ERC20.sol\":3410:3422  _totalSupply */\n      sload(0x01)\n        /* \"QvToken/ERC20.sol\":3403:3422  return _totalSupply */\n      swap1\n      pop\n        /* \"QvToken/ERC20.sol\":3322:3430  function totalSupply() public view virtual override returns (uint256) {\r... */\n      swap1\n      jump\t// out\n        /* \"QvToken/ERC20.sol\":3164:3257  function decimals() public view virtual override returns (uint8) {\r... */\n    tag_29:\n        /* \"QvToken/ERC20.sol\":3222:3227  uint8 */\n      0x00\n        /* \"QvToken/ERC20.sol\":3247:3249  18 */\n      0x12\n        /* \"QvToken/ERC20.sol\":3240:3249  return 18 */\n      swap1\n      pop\n        /* \"QvToken/ERC20.sol\":3164:3257  function decimals() public view virtual override returns (uint8) {\r... */\n      swap1\n      jump\t// out\n        /* \"Qvoting.sol\":1948:3233  function createProposal(uint8 _status, address[] memory _voters, address _creator,\r... */\n    tag_35:\n        /* \"Qvoting.sol\":2322:2332  _startTime */\n      dup6\n        /* \"Qvoting.sol\":2304:2319  block.timestamp */\n      timestamp\n        /* \"Qvoting.sol\":2304:2332  block.timestamp < _startTime */\n      lt\n        /* \"Qvoting.sol\":2296:2356  require(block.timestamp < _startTime,\"proposal not started\") */\n      tag_73\n      jumpi\n      mload(0x40)\n      0x08c379a000000000000000000000000000000000000000000000000000000000\n      dup2\n      mstore\n      0x04\n      add\n      tag_74\n      swap1\n      tag_75\n      jump\t// in\n    tag_74:\n      mload(0x40)\n      dup1\n      swap2\n      sub\n      swap1\n      revert\n    tag_73:\n        /* \"Qvoting.sol\":2393:2408  _expirationTime */\n      dup5\n        /* \"Qvoting.sol\":2375:2390  block.timestamp */\n      timestamp\n        /* \"Qvoting.sol\":2375:2408  block.timestamp < _expirationTime */\n      lt\n        /* \"Qvoting.sol\":2367:2456  require(block.timestamp < _expirationTime,\"End time should be greater than current time\") */\n      tag_76\n      jumpi\n      mload(0x40)\n      0x08c379a000000000000000000000000000000000000000000000000000000000\n      dup2\n      mstore\n      0x04\n      add\n      tag_77\n      swap1\n      tag_78\n      jump\t// in\n    tag_77:\n      mload(0x40)\n      dup1\n      swap2\n      sub\n      swap1\n      revert\n    tag_76:\n        /* \"Qvoting.sol\":2488:2503  _expirationTime */\n      dup5\n        /* \"Qvoting.sol\":2475:2485  _startTime */\n      dup7\n        /* \"Qvoting.sol\":2475:2503  _startTime < _expirationTime */\n      lt\n        /* \"Qvoting.sol\":2467:2549  require(_startTime < _expirationTime,\"End time should be greater than start time\") */\n      tag_79\n      jumpi\n      mload(0x40)\n      0x08c379a000000000000000000000000000000000000000000000000000000000\n      dup2\n      mstore\n      0x04\n      add\n      tag_80\n      swap1\n      tag_81\n      jump\t// in\n    tag_80:\n      mload(0x40)\n      dup1\n      swap2\n      sub\n      swap1\n      revert\n    tag_79:\n        /* \"Qvoting.sol\":2562:2572  proposalId */\n      0x05\n      0x00\n        /* \"Qvoting.sol\":2562:2574  proposalId++ */\n      dup2\n      sload\n      dup1\n      swap3\n      swap2\n      swap1\n      tag_82\n      swap1\n      tag_83\n      jump\t// in\n    tag_82:\n      swap2\n      swap1\n      pop\n      sstore\n      pop\n        /* \"Qvoting.sol\":2585:2697  proposals[proposalId].createProposal(_status,_voters,_creator,_startTime,_expirationTime,_disc,_voteRight,_cand) */\n      tag_84\n        /* \"Qvoting.sol\":2622:2629  _status */\n      dup10\n        /* \"Qvoting.sol\":2630:2637  _voters */\n      dup10\n        /* \"Qvoting.sol\":2638:2646  _creator */\n      dup10\n        /* \"Qvoting.sol\":2647:2657  _startTime */\n      dup10\n        /* \"Qvoting.sol\":2658:2673  _expirationTime */\n      dup10\n        /* \"Qvoting.sol\":2674:2679  _disc */\n      dup10\n        /* \"Qvoting.sol\":2680:2690  _voteRight */\n      dup8\n        /* \"Qvoting.sol\":2691:2696  _cand */\n      dup11\n      dup11\n        /* \"Qvoting.sol\":2585:2594  proposals */\n      0x07\n        /* \"Qvoting.sol\":2585:2606  proposals[proposalId] */\n      0x00\n        /* \"Qvoting.sol\":2595:2605  proposalId */\n      sload(0x05)\n        /* \"Qvoting.sol\":2585:2606  proposals[proposalId] */\n      dup2\n      mstore\n      0x20\n      add\n      swap1\n      dup2\n      mstore\n      0x20\n      add\n      0x00\n      keccak256\n        /* \"Qvoting.sol\":2585:2621  proposals[proposalId].createProposal */\n      tag_85\n      swap1\n        /* \"Qvoting.sol\":2585:2697  proposals[proposalId].createProposal(_status,_voters,_creator,_startTime,_expirationTime,_disc,_voteRight,_cand) */\n      swap10\n      swap9\n      swap8\n      swap7\n      swap6\n      swap5\n      swap4\n      swap3\n      swap2\n      swap1\n      0xffffffff\n      and\n      jump\t// in\n    tag_84:\n      pop\n        /* \"Qvoting.sol\":2713:2797  ProposalCreated(proposalId, _voters,_creator,_startTime,_expirationTime,_disc,_cand) */\n      0x239a8a71a7d1cb0d134f6cc072ad6390e36a88c8e78dff69013ee79528441e80\n        /* \"Qvoting.sol\":2729:2739  proposalId */\n      sload(0x05)\n        /* \"Qvoting.sol\":2741:2748  _voters */\n      dup10\n        /* \"Qvoting.sol\":2749:2757  _creator */\n      dup10\n        /* \"Qvoting.sol\":2758:2768  _startTime */\n      dup10\n        /* \"Qvoting.sol\":2769:2784  _expirationTime */\n      dup10\n        /* \"Qvoting.sol\":2785:2790  _disc */\n      dup10\n        /* \"Qvoting.sol\":2791:2796  _cand */\n      dup10\n      dup10\n        /* \"Qvoting.sol\":2713:2797  ProposalCreated(proposalId, _voters,_creator,_startTime,_expirationTime,_disc,_cand) */\n      mload(0x40)\n      tag_86\n      swap9\n      swap8\n      swap7\n      swap6\n      swap5\n      swap4\n      swap3\n      swap2\n      swap1\n      tag_87\n      jump\t// in\n    tag_86:\n      mload(0x40)\n      dup1\n      swap2\n      sub\n      swap1\n      log1\n        /* \"Qvoting.sol\":2837:2841  true */\n      0x01\n        /* \"Qvoting.sol\":2808:2822  validProposals */\n      0x09\n        /* \"Qvoting.sol\":2808:2834  validProposals[proposalId] */\n      0x00\n        /* \"Qvoting.sol\":2823:2833  proposalId */\n      sload(0x05)\n        /* \"Qvoting.sol\":2808:2834  validProposals[proposalId] */\n      dup2\n      mstore\n      0x20\n      add\n      swap1\n      dup2\n      mstore\n      0x20\n      add\n      0x00\n      keccak256\n      0x00\n        /* \"Qvoting.sol\":2808:2841  validProposals[proposalId] = true */\n      0x0100\n      exp\n      dup2\n      sload\n      dup2\n      0xff\n      mul\n      not\n      and\n      swap1\n      dup4\n      iszero\n      iszero\n      mul\n      or\n      swap1\n      sstore\n      pop\n        /* \"Qvoting.sol\":2913:2922  uint256 i */\n      0x00\n        /* \"Qvoting.sol\":2909:3156  for(uint256 i=0;i<_voters.length;i++){\r... */\n    tag_88:\n        /* \"Qvoting.sol\":2927:2934  _voters */\n      dup9\n        /* \"Qvoting.sol\":2927:2941  _voters.length */\n      mload\n        /* \"Qvoting.sol\":2925:2926  i */\n      dup2\n        /* \"Qvoting.sol\":2925:2941  i<_voters.length */\n      lt\n        /* \"Qvoting.sol\":2909:3156  for(uint256 i=0;i<_voters.length;i++){\r... */\n      iszero\n      tag_89\n      jumpi\n        /* \"Qvoting.sol\":2961:2988  mint(_voters[i],_voteRight) */\n      tag_91\n        /* \"Qvoting.sol\":2966:2973  _voters */\n      dup10\n        /* \"Qvoting.sol\":2974:2975  i */\n      dup3\n        /* \"Qvoting.sol\":2966:2976  _voters[i] */\n      dup2\n      mload\n      dup2\n      lt\n      tag_92\n      jumpi\n      tag_93\n      tag_94\n      jump\t// in\n    tag_93:\n    tag_92:\n      0x20\n      mul\n      0x20\n      add\n      add\n      mload\n        /* \"Qvoting.sol\":2977:2987  _voteRight */\n      dup4\n        /* \"Qvoting.sol\":2961:2965  mint */\n      tag_95\n        /* \"Qvoting.sol\":2961:2988  mint(_voters[i],_voteRight) */\n      jump\t// in\n    tag_91:\n        /* \"Qvoting.sol\":3003:3079  allVoters[_voters[i]].createVoter(proposalId, _voters[i], false, _voteRight) */\n      tag_96\n        /* \"Qvoting.sol\":3037:3047  proposalId */\n      sload(0x05)\n        /* \"Qvoting.sol\":3049:3056  _voters */\n      dup11\n        /* \"Qvoting.sol\":3057:3058  i */\n      dup4\n        /* \"Qvoting.sol\":3049:3059  _voters[i] */\n      dup2\n      mload\n      dup2\n      lt\n      tag_97\n      jumpi\n      tag_98\n      tag_94\n      jump\t// in\n    tag_98:\n    tag_97:\n      0x20\n      mul\n      0x20\n      add\n      add\n      mload\n        /* \"Qvoting.sol\":3061:3066  false */\n      0x00\n        /* \"Qvoting.sol\":3068:3078  _voteRight */\n      dup6\n        /* \"Qvoting.sol\":3003:3012  allVoters */\n      0x08\n        /* \"Qvoting.sol\":3003:3024  allVoters[_voters[i]] */\n      0x00\n        /* \"Qvoting.sol\":3013:3020  _voters */\n      dup16\n        /* \"Qvoting.sol\":3021:3022  i */\n      dup9\n        /* \"Qvoting.sol\":3013:3023  _voters[i] */\n      dup2\n      mload\n      dup2\n      lt\n      tag_99\n      jumpi\n      tag_100\n      tag_94\n      jump\t// in\n    tag_100:\n    tag_99:\n      0x20\n      mul\n      0x20\n      add\n      add\n      mload\n        /* \"Qvoting.sol\":3003:3024  allVoters[_voters[i]] */\n      0xffffffffffffffffffffffffffffffffffffffff\n      and\n      0xffffffffffffffffffffffffffffffffffffffff\n      and\n      dup2\n      mstore\n      0x20\n      add\n      swap1\n      dup2\n      mstore\n      0x20\n      add\n      0x00\n      keccak256\n        /* \"Qvoting.sol\":3003:3036  allVoters[_voters[i]].createVoter */\n      tag_101\n      swap1\n        /* \"Qvoting.sol\":3003:3079  allVoters[_voters[i]].createVoter(proposalId, _voters[i], false, _voteRight) */\n      swap5\n      swap4\n      swap3\n      swap2\n      swap1\n      0xffffffff\n      and\n      jump\t// in\n    tag_96:\n      pop\n        /* \"Qvoting.sol\":3099:3140  mintAndburn(\"mint\",_voters[i],_voteRight) */\n      0xabf5327be9f5825c40d58bda541dd07f09b62df3376bbd5ecdbaa8bd82a9d492\n        /* \"Qvoting.sol\":3118:3125  _voters */\n      dup10\n        /* \"Qvoting.sol\":3126:3127  i */\n      dup3\n        /* \"Qvoting.sol\":3118:3128  _voters[i] */\n      dup2\n      mload\n      dup2\n      lt\n      tag_102\n      jumpi\n      tag_103\n      tag_94\n      jump\t// in\n    tag_103:\n    tag_102:\n      0x20\n      mul\n      0x20\n      add\n      add\n      mload\n        /* \"Qvoting.sol\":3129:3139  _voteRight */\n      dup4\n        /* \"Qvoting.sol\":3099:3140  mintAndburn(\"mint\",_voters[i],_voteRight) */\n      mload(0x40)\n      tag_104\n      swap3\n      swap2\n      swap1\n      tag_105\n      jump\t// in\n    tag_104:\n      mload(0x40)\n      dup1\n      swap2\n      sub\n      swap1\n      log1\n        /* \"Qvoting.sol\":2942:2945  i++ */\n      dup1\n      dup1\n      tag_106\n      swap1\n      tag_83\n      jump\t// in\n    tag_106:\n      swap2\n      pop\n      pop\n        /* \"Qvoting.sol\":2909:3156  for(uint256 i=0;i<_voters.length;i++){\r... */\n      jump(tag_88)\n    tag_89:\n      pop\n        /* \"Qvoting.sol\":3168:3225  userProposal[_msgSender()].updateProposalList(proposalId) */\n      tag_107\n        /* \"Qvoting.sol\":3214:3224  proposalId */\n      sload(0x05)\n        /* \"Qvoting.sol\":3168:3180  userProposal */\n      0x06\n        /* \"Qvoting.sol\":3168:3194  userProposal[_msgSender()] */\n      0x00\n        /* \"Qvoting.sol\":3181:3193  _msgSender() */\n      tag_108\n        /* \"Qvoting.sol\":3181:3191  _msgSender */\n      tag_109\n        /* \"Qvoting.sol\":3181:3193  _msgSender() */\n      jump\t// in\n    tag_108:\n        /* \"Qvoting.sol\":3168:3194  userProposal[_msgSender()] */\n      0xffffffffffffffffffffffffffffffffffffffff\n      and\n      0xffffffffffffffffffffffffffffffffffffffff\n      and\n      dup2\n      mstore\n      0x20\n      add\n      swap1\n      dup2\n      mstore\n      0x20\n      add\n      0x00\n      keccak256\n        /* \"Qvoting.sol\":3168:3213  userProposal[_msgSender()].updateProposalList */\n      tag_110\n      swap1\n        /* \"Qvoting.sol\":3168:3225  userProposal[_msgSender()].updateProposalList(proposalId) */\n      swap2\n      swap1\n      0xffffffff\n      and\n      jump\t// in\n    tag_107:\n      pop\n        /* \"Qvoting.sol\":1948:3233  function createProposal(uint8 _status, address[] memory _voters, address _creator,\r... */\n      pop\n      pop\n      pop\n      pop\n      pop\n      pop\n      pop\n      pop\n      pop\n      jump\t// out\n        /* \"Qvoting.sol\":3241:4387  function responseProposal(uint _proposalId, address _voter, string[] memory _hash, uint[] memory v) external {\r... */\n    tag_39:\n        /* \"Qvoting.sol\":3464:3478  validProposals */\n      0x09\n        /* \"Qvoting.sol\":3464:3491  validProposals[_proposalId] */\n      0x00\n        /* \"Qvoting.sol\":3479:3490  _proposalId */\n      dup6\n        /* \"Qvoting.sol\":3464:3491  validProposals[_proposalId] */\n      dup2\n      mstore\n      0x20\n      add\n      swap1\n      dup2\n      mstore\n      0x20\n      add\n      0x00\n      keccak256\n      0x00\n      swap1\n      sload\n      swap1\n      0x0100\n      exp\n      swap1\n      div\n      0xff\n      and\n        /* \"Qvoting.sol\":3456:3513  require(validProposals[_proposalId],\"invalid proposalId\") */\n      tag_112\n      jumpi\n      mload(0x40)\n      0x08c379a000000000000000000000000000000000000000000000000000000000\n      dup2\n      mstore\n      0x04\n      add\n      tag_113\n      swap1\n      tag_114\n      jump\t// in\n    tag_113:\n      mload(0x40)\n      dup1\n      swap2\n      sub\n      swap1\n      revert\n    tag_112:\n        /* \"Qvoting.sol\":3564:3575  _proposalId */\n      dup4\n        /* \"Qvoting.sol\":3532:3541  allVoters */\n      0x08\n        /* \"Qvoting.sol\":3532:3549  allVoters[_voter] */\n      0x00\n        /* \"Qvoting.sol\":3542:3548  _voter */\n      dup6\n        /* \"Qvoting.sol\":3532:3549  allVoters[_voter] */\n      0xffffffffffffffffffffffffffffffffffffffff\n      and\n      0xffffffffffffffffffffffffffffffffffffffff\n      and\n      dup2\n      mstore\n      0x20\n      add\n      swap1\n      dup2\n      mstore\n      0x20\n      add\n      0x00\n      keccak256\n        /* \"Qvoting.sol\":3532:3560  allVoters[_voter].proposalId */\n      0x00\n      add\n      sload\n        /* \"Qvoting.sol\":3532:3575  allVoters[_voter].proposalId == _proposalId */\n      eq\n        /* \"Qvoting.sol\":3524:3615  require(allVoters[_voter].proposalId == _proposalId, \"not a valid voter for this proposal\") */\n      tag_115\n      jumpi\n      mload(0x40)\n      0x08c379a000000000000000000000000000000000000000000000000000000000\n      dup2\n      mstore\n      0x04\n      add\n      tag_116\n      swap1\n      tag_117\n      jump\t// in\n    tag_116:\n      mload(0x40)\n      dup1\n      swap2\n      sub\n      swap1\n      revert\n    tag_115:\n        /* \"Qvoting.sol\":3696:3705  allVoters */\n      0x08\n        /* \"Qvoting.sol\":3696:3713  allVoters[_voter] */\n      0x00\n        /* \"Qvoting.sol\":3706:3712  _voter */\n      dup5\n        /* \"Qvoting.sol\":3696:3713  allVoters[_voter] */\n      0xffffffffffffffffffffffffffffffffffffffff\n      and\n      0xffffffffffffffffffffffffffffffffffffffff\n      and\n      dup2\n      mstore\n      0x20\n      add\n      swap1\n      dup2\n      mstore\n      0x20\n      add\n      0x00\n      keccak256\n        /* \"Qvoting.sol\":3696:3722  allVoters[_voter].hasVoted */\n      0x01\n      add\n      0x14\n      swap1\n      sload\n      swap1\n      0x0100\n      exp\n      swap1\n      div\n      0xff\n      and\n        /* \"Qvoting.sol\":3695:3722  !allVoters[_voter].hasVoted */\n      iszero\n        /* \"Qvoting.sol\":3687:3740  require(!allVoters[_voter].hasVoted, \"already voted\") */\n      tag_118\n      jumpi\n      mload(0x40)\n      0x08c379a000000000000000000000000000000000000000000000000000000000\n      dup2\n      mstore\n      0x04\n      add\n      tag_119\n      swap1\n      tag_120\n      jump\t// in\n    tag_119:\n      mload(0x40)\n      dup1\n      swap2\n      sub\n      swap1\n      revert\n    tag_118:\n        /* \"Qvoting.sol\":3797:3802  _hash */\n      dup2\n        /* \"Qvoting.sol\":3797:3809  _hash.length */\n      mload\n        /* \"Qvoting.sol\":3759:3768  proposals */\n      0x07\n        /* \"Qvoting.sol\":3759:3781  proposals[_proposalId] */\n      0x00\n        /* \"Qvoting.sol\":3769:3780  _proposalId */\n      dup7\n        /* \"Qvoting.sol\":3759:3781  proposals[_proposalId] */\n      dup2\n      mstore\n      0x20\n      add\n      swap1\n      dup2\n      mstore\n      0x20\n      add\n      0x00\n      keccak256\n        /* \"Qvoting.sol\":3759:3794  proposals[_proposalId].numOfOptions */\n      0x04\n      add\n      0x00\n      swap1\n      sload\n      swap1\n      0x0100\n      exp\n      swap1\n      div\n      0xffff\n      and\n        /* \"Qvoting.sol\":3759:3809  proposals[_proposalId].numOfOptions ==_hash.length */\n      0xffff\n      and\n      eq\n        /* \"Qvoting.sol\":3751:3850  require(proposals[_proposalId].numOfOptions ==_hash.length, \"not a valid length of hash response!\") */\n      tag_121\n      jumpi\n      mload(0x40)\n      0x08c379a000000000000000000000000000000000000000000000000000000000\n      dup2\n      mstore\n      0x04\n      add\n      tag_122\n      swap1\n      tag_123\n      jump\t// in\n    tag_122:\n      mload(0x40)\n      dup1\n      swap2\n      sub\n      swap1\n      revert\n    tag_121:\n        /* \"Qvoting.sol\":3861:3869  uint sum */\n      0x00\n        /* \"Qvoting.sol\":3886:3892  uint i */\n      dup1\n        /* \"Qvoting.sol\":3882:3951  for(uint i=0;i<v.length;i++){\r... */\n    tag_124:\n        /* \"Qvoting.sol\":3897:3898  v */\n      dup3\n        /* \"Qvoting.sol\":3897:3905  v.length */\n      mload\n        /* \"Qvoting.sol\":3895:3896  i */\n      dup2\n        /* \"Qvoting.sol\":3895:3905  i<v.length */\n      lt\n        /* \"Qvoting.sol\":3882:3951  for(uint i=0;i<v.length;i++){\r... */\n      iszero\n      tag_125\n      jumpi\n        /* \"Qvoting.sol\":3935:3936  v */\n      dup3\n        /* \"Qvoting.sol\":3937:3938  i */\n      dup2\n        /* \"Qvoting.sol\":3935:3939  v[i] */\n      dup2\n      mload\n      dup2\n      lt\n      tag_127\n      jumpi\n      tag_128\n      tag_94\n      jump\t// in\n    tag_128:\n    tag_127:\n      0x20\n      mul\n      0x20\n      add\n      add\n      mload\n        /* \"Qvoting.sol\":3930:3931  v */\n      dup4\n        /* \"Qvoting.sol\":3932:3933  i */\n      dup3\n        /* \"Qvoting.sol\":3930:3934  v[i] */\n      dup2\n      mload\n      dup2\n      lt\n      tag_129\n      jumpi\n      tag_130\n      tag_94\n      jump\t// in\n    tag_130:\n    tag_129:\n      0x20\n      mul\n      0x20\n      add\n      add\n      mload\n        /* \"Qvoting.sol\":3930:3939  v[i]*v[i] */\n      tag_131\n      swap2\n      swap1\n      tag_132\n      jump\t// in\n    tag_131:\n        /* \"Qvoting.sol\":3925:3939  sum+=v[i]*v[i] */\n      dup3\n      tag_133\n      swap2\n      swap1\n      tag_134\n      jump\t// in\n    tag_133:\n      swap2\n      pop\n        /* \"Qvoting.sol\":3906:3909  i++ */\n      dup1\n      dup1\n      tag_135\n      swap1\n      tag_83\n      jump\t// in\n    tag_135:\n      swap2\n      pop\n      pop\n        /* \"Qvoting.sol\":3882:3951  for(uint i=0;i<v.length;i++){\r... */\n      jump(tag_124)\n    tag_125:\n      pop\n        /* \"Qvoting.sol\":3998:4001  sum */\n      dup1\n        /* \"Qvoting.sol\":3969:3978  allVoters */\n      0x08\n        /* \"Qvoting.sol\":3969:3986  allVoters[_voter] */\n      0x00\n        /* \"Qvoting.sol\":3979:3985  _voter */\n      dup7\n        /* \"Qvoting.sol\":3969:3986  allVoters[_voter] */\n      0xffffffffffffffffffffffffffffffffffffffff\n      and\n      0xffffffffffffffffffffffffffffffffffffffff\n      and\n      dup2\n      mstore\n      0x20\n      add\n      swap1\n      dup2\n      mstore\n      0x20\n      add\n      0x00\n      keccak256\n        /* \"Qvoting.sol\":3969:3994  allVoters[_voter].voteNum */\n      0x02\n      add\n      sload\n        /* \"Qvoting.sol\":3969:4001  allVoters[_voter].voteNum >= sum */\n      lt\n      iszero\n        /* \"Qvoting.sol\":3961:4041  require(allVoters[_voter].voteNum >= sum, \"not sufficient balance to cast vote\") */\n      tag_136\n      jumpi\n      mload(0x40)\n      0x08c379a000000000000000000000000000000000000000000000000000000000\n      dup2\n      mstore\n      0x04\n      add\n      tag_137\n      swap1\n      tag_138\n      jump\t// in\n    tag_137:\n      mload(0x40)\n      dup1\n      swap2\n      sub\n      swap1\n      revert\n    tag_136:\n        /* \"Qvoting.sol\":4054:4110  proposals[_proposalId].responseProposal(_voter,_hash, v) */\n      tag_139\n        /* \"Qvoting.sol\":4094:4100  _voter */\n      dup5\n        /* \"Qvoting.sol\":4101:4106  _hash */\n      dup5\n        /* \"Qvoting.sol\":4108:4109  v */\n      dup5\n        /* \"Qvoting.sol\":4054:4063  proposals */\n      0x07\n        /* \"Qvoting.sol\":4054:4076  proposals[_proposalId] */\n      0x00\n        /* \"Qvoting.sol\":4064:4075  _proposalId */\n      dup11\n        /* \"Qvoting.sol\":4054:4076  proposals[_proposalId] */\n      dup2\n      mstore\n      0x20\n      add\n      swap1\n      dup2\n      mstore\n      0x20\n      add\n      0x00\n      keccak256\n        /* \"Qvoting.sol\":4054:4093  proposals[_proposalId].responseProposal */\n      tag_140\n      swap1\n        /* \"Qvoting.sol\":4054:4110  proposals[_proposalId].responseProposal(_voter,_hash, v) */\n      swap4\n      swap3\n      swap2\n      swap1\n      0xffffffff\n      and\n      jump\t// in\n    tag_139:\n      pop\n        /* \"Qvoting.sol\":4121:4186  userProposal[_msgSender()].updateResponseList(_proposalId, _hash) */\n      tag_141\n        /* \"Qvoting.sol\":4167:4178  _proposalId */\n      dup6\n        /* \"Qvoting.sol\":4180:4185  _hash */\n      dup5\n        /* \"Qvoting.sol\":4121:4133  userProposal */\n      0x06\n        /* \"Qvoting.sol\":4121:4147  userProposal[_msgSender()] */\n      0x00\n        /* \"Qvoting.sol\":4134:4146  _msgSender() */\n      tag_142\n        /* \"Qvoting.sol\":4134:4144  _msgSender */\n      tag_109\n        /* \"Qvoting.sol\":4134:4146  _msgSender() */\n      jump\t// in\n    tag_142:\n        /* \"Qvoting.sol\":4121:4147  userProposal[_msgSender()] */\n      0xffffffffffffffffffffffffffffffffffffffff\n      and\n      0xffffffffffffffffffffffffffffffffffffffff\n      and\n      dup2\n      mstore\n      0x20\n      add\n      swap1\n      dup2\n      mstore\n      0x20\n      add\n      0x00\n      keccak256\n        /* \"Qvoting.sol\":4121:4166  userProposal[_msgSender()].updateResponseList */\n      tag_143\n      swap1\n        /* \"Qvoting.sol\":4121:4186  userProposal[_msgSender()].updateResponseList(_proposalId, _hash) */\n      swap3\n      swap2\n      swap1\n      0xffffffff\n      and\n      jump\t// in\n    tag_141:\n      pop\n        /* \"Qvoting.sol\":4199:4232  allVoters[_voter].updateVoteNum() */\n      tag_144\n        /* \"Qvoting.sol\":4199:4208  allVoters */\n      0x08\n        /* \"Qvoting.sol\":4199:4216  allVoters[_voter] */\n      0x00\n        /* \"Qvoting.sol\":4209:4215  _voter */\n      dup7\n        /* \"Qvoting.sol\":4199:4216  allVoters[_voter] */\n      0xffffffffffffffffffffffffffffffffffffffff\n      and\n      0xffffffffffffffffffffffffffffffffffffffff\n      and\n      dup2\n      mstore\n      0x20\n      add\n      swap1\n      dup2\n      mstore\n      0x20\n      add\n      0x00\n      keccak256\n        /* \"Qvoting.sol\":4199:4230  allVoters[_voter].updateVoteNum */\n      tag_145\n        /* \"Qvoting.sol\":4199:4232  allVoters[_voter].updateVoteNum() */\n      jump\t// in\n    tag_144:\n      pop\n        /* \"Qvoting.sol\":3350:4387  {\r... */\n      pop\n        /* \"Qvoting.sol\":3241:4387  function responseProposal(uint _proposalId, address _voter, string[] memory _hash, uint[] memory v) external {\r... */\n      pop\n      pop\n      pop\n      pop\n      jump\t// out\n        /* \"QvToken/ERC20.sol\":3493:3620  function balanceOf(address account) public view virtual override returns (uint256) {\r... */\n    tag_43:\n        /* \"QvToken/ERC20.sol\":3567:3574  uint256 */\n      0x00\n        /* \"QvToken/ERC20.sol\":3594:3603  _balances */\n      dup1\n        /* \"QvToken/ERC20.sol\":3594:3612  _balances[account] */\n      0x00\n        /* \"QvToken/ERC20.sol\":3604:3611  account */\n      dup4\n        /* \"QvToken/ERC20.sol\":3594:3612  _balances[account] */\n      0xffffffffffffffffffffffffffffffffffffffff\n      and\n      0xffffffffffffffffffffffffffffffffffffffff\n      and\n      dup2\n      mstore\n      0x20\n      add\n      swap1\n      dup2\n      mstore\n      0x20\n      add\n      0x00\n      keccak256\n      sload\n        /* \"QvToken/ERC20.sol\":3587:3612  return _balances[account] */\n      swap1\n      pop\n        /* \"QvToken/ERC20.sol\":3493:3620  function balanceOf(address account) public view virtual override returns (uint256) {\r... */\n      swap2\n      swap1\n      pop\n      jump\t// out\n        /* \"QvToken/ERC20.sol\":2421:2525  function symbol() public view virtual override returns (string memory) {\r... */\n    tag_46:\n        /* \"QvToken/ERC20.sol\":2477:2490  string memory */\n      0x60\n        /* \"QvToken/ERC20.sol\":2510:2517  _symbol */\n      0x03\n        /* \"QvToken/ERC20.sol\":2503:2517  return _symbol */\n      dup1\n      sload\n      tag_148\n      swap1\n      tag_59\n      jump\t// in\n    tag_148:\n      dup1\n      0x1f\n      add\n      0x20\n      dup1\n      swap2\n      div\n      mul\n      0x20\n      add\n      mload(0x40)\n      swap1\n      dup2\n      add\n      0x40\n      mstore\n      dup1\n      swap3\n      swap2\n      swap1\n      dup2\n      dup2\n      mstore\n      0x20\n      add\n      dup3\n      dup1\n      sload\n      tag_149\n      swap1\n      tag_59\n      jump\t// in\n    tag_149:\n      dup1\n      iszero\n      tag_150\n      jumpi\n      dup1\n      0x1f\n      lt\n      tag_151\n      jumpi\n      0x0100\n      dup1\n      dup4\n      sload\n      div\n      mul\n      dup4\n      mstore\n      swap2\n      0x20\n      add\n      swap2\n      jump(tag_150)\n    tag_151:\n      dup3\n      add\n      swap2\n      swap1\n      0x00\n      mstore\n      keccak256(0x00, 0x20)\n      swap1\n    tag_152:\n      dup2\n      sload\n      dup2\n      mstore\n      swap1\n      0x01\n      add\n      swap1\n      0x20\n      add\n      dup1\n      dup4\n      gt\n      tag_152\n      jumpi\n      dup3\n      swap1\n      sub\n      0x1f\n      and\n      dup3\n      add\n      swap2\n    tag_150:\n      pop\n      pop\n      pop\n      pop\n      pop\n      swap1\n      pop\n        /* \"QvToken/ERC20.sol\":2421:2525  function symbol() public view virtual override returns (string memory) {\r... */\n      swap1\n      jump\t// out\n        /* \"Qvoting.sol\":1400:1455  mapping(address => voterLibrary.voter) public allVoters */\n    tag_50:\n      mstore(0x20, 0x08)\n      dup1\n      0x00\n      mstore\n      keccak256(0x00, 0x40)\n      0x00\n      swap2\n      pop\n      swap1\n      pop\n      dup1\n      0x00\n      add\n      sload\n      swap1\n      dup1\n      0x01\n      add\n      0x00\n      swap1\n      sload\n      swap1\n      0x0100\n      exp\n      swap1\n      div\n      0xffffffffffffffffffffffffffffffffffffffff\n      and\n      swap1\n      dup1\n      0x01\n      add\n      0x14\n      swap1\n      sload\n      swap1\n      0x0100\n      exp\n      swap1\n      div\n      0xff\n      and\n      swap1\n      dup1\n      0x02\n      add\n      sload\n      swap1\n      pop\n      dup5\n      jump\t// out\n        /* \"Qvoting.sol\":1201:1273  mapping(address => UserProposalLibrary.UserProposal) public userProposal */\n    tag_55:\n      mstore(0x20, 0x06)\n      dup1\n      0x00\n      mstore\n      keccak256(0x00, 0x40)\n      0x00\n      swap2\n      pop\n      swap1\n      pop\n      dup1\n      0x00\n      add\n      0x00\n      swap1\n      sload\n      swap1\n      0x0100\n      exp\n      swap1\n      div\n      0xffffffffffffffffffffffffffffffff\n      and\n      swap1\n      dup1\n      0x00\n      add\n      0x10\n      swap1\n      sload\n      swap1\n      0x0100\n      exp\n      swap1\n      div\n      0xffffffffffffffffffffffffffffffff\n      and\n      swap1\n      pop\n      dup3\n      jump\t// out\n        /* \"Library/ProposalLibrary.sol\":806:1983  function createProposal(proposal storage self, uint8 _status, address[] memory _voters, address _creator,\r... */\n    tag_85:\n        /* \"Library/ProposalLibrary.sol\":1044:1048  bool */\n      0x00\n        /* \"Library/ProposalLibrary.sol\":1099:1107  _creator */\n      dup8\n        /* \"Library/ProposalLibrary.sol\":1084:1088  self */\n      dup12\n        /* \"Library/ProposalLibrary.sol\":1084:1096  self.creator */\n      0x00\n      add\n      0x00\n        /* \"Library/ProposalLibrary.sol\":1084:1107  self.creator = _creator */\n      0x0100\n      exp\n      dup2\n      sload\n      dup2\n      0xffffffffffffffffffffffffffffffffffffffff\n      mul\n      not\n      and\n      swap1\n      dup4\n      0xffffffffffffffffffffffffffffffffffffffff\n      and\n      mul\n      or\n      swap1\n      sstore\n      pop\n        /* \"Library/ProposalLibrary.sol\":1156:1163  _status */\n      dup10\n        /* \"Library/ProposalLibrary.sol\":1142:1146  self */\n      dup12\n        /* \"Library/ProposalLibrary.sol\":1142:1153  self.status */\n      0x00\n      add\n      0x14\n        /* \"Library/ProposalLibrary.sol\":1142:1163  self.status = _status */\n      0x0100\n      exp\n      dup2\n      sload\n      dup2\n      0xff\n      mul\n      not\n      and\n      swap1\n      dup4\n      0xff\n      and\n      mul\n      or\n      swap1\n      sstore\n      pop\n        /* \"Library/ProposalLibrary.sol\":1210:1215  _disc */\n      dup5\n        /* \"Library/ProposalLibrary.sol\":1198:1202  self */\n      dup12\n        /* \"Library/ProposalLibrary.sol\":1198:1207  self.disc */\n      0x01\n      add\n        /* \"Library/ProposalLibrary.sol\":1198:1215  self.disc = _disc */\n      swap1\n      dup1\n      mload\n      swap1\n      0x20\n      add\n      swap1\n      tag_154\n      swap3\n      swap2\n      swap1\n      tag_155\n      jump\t// in\n    tag_154:\n      pop\n        /* \"Library/ProposalLibrary.sol\":1267:1277  _startTime */\n      dup7\n        /* \"Library/ProposalLibrary.sol\":1250:1254  self */\n      dup12\n        /* \"Library/ProposalLibrary.sol\":1250:1264  self.startTime */\n      0x02\n      add\n        /* \"Library/ProposalLibrary.sol\":1250:1277  self.startTime = _startTime */\n      dup2\n      swap1\n      sstore\n      pop\n        /* \"Library/ProposalLibrary.sol\":1334:1349  _expirationTime */\n      dup6\n        /* \"Library/ProposalLibrary.sol\":1312:1316  self */\n      dup12\n        /* \"Library/ProposalLibrary.sol\":1312:1331  self.expirationTime */\n      0x03\n      add\n        /* \"Library/ProposalLibrary.sol\":1312:1349  self.expirationTime = _expirationTime */\n      dup2\n      swap1\n      sstore\n      pop\n        /* \"Library/ProposalLibrary.sol\":1411:1416  _cand */\n      dup3\n      dup3\n        /* \"Library/ProposalLibrary.sol\":1411:1423  _cand.length */\n      swap1\n      pop\n        /* \"Library/ProposalLibrary.sol\":1384:1388  self */\n      dup12\n        /* \"Library/ProposalLibrary.sol\":1384:1401  self.numOfOptions */\n      0x04\n      add\n      0x00\n        /* \"Library/ProposalLibrary.sol\":1384:1424  self.numOfOptions = uint16(_cand.length) */\n      0x0100\n      exp\n      dup2\n      sload\n      dup2\n      0xffff\n      mul\n      not\n      and\n      swap1\n      dup4\n      0xffff\n      and\n      mul\n      or\n      swap1\n      sstore\n      pop\n        /* \"Library/ProposalLibrary.sol\":1476:1486  _voteRight */\n      dup4\n        /* \"Library/ProposalLibrary.sol\":1459:1463  self */\n      dup12\n        /* \"Library/ProposalLibrary.sol\":1459:1473  self.voteRight */\n      0x05\n      add\n        /* \"Library/ProposalLibrary.sol\":1459:1486  self.voteRight = _voteRight */\n      dup2\n      swap1\n      sstore\n      pop\n        /* \"Library/ProposalLibrary.sol\":1525:1534  uint256 i */\n      0x00\n        /* \"Library/ProposalLibrary.sol\":1521:1726  for(uint256 i=0;i<_cand.length;i++){\r... */\n    tag_156:\n        /* \"Library/ProposalLibrary.sol\":1539:1544  _cand */\n      dup4\n      dup4\n        /* \"Library/ProposalLibrary.sol\":1539:1551  _cand.length */\n      swap1\n      pop\n        /* \"Library/ProposalLibrary.sol\":1537:1538  i */\n      dup2\n        /* \"Library/ProposalLibrary.sol\":1537:1551  i<_cand.length */\n      lt\n        /* \"Library/ProposalLibrary.sol\":1521:1726  for(uint256 i=0;i<_cand.length;i++){\r... */\n      iszero\n      tag_157\n      jumpi\n        /* \"Library/ProposalLibrary.sol\":1617:1621  true */\n      0x01\n        /* \"Library/ProposalLibrary.sol\":1595:1599  self */\n      dup13\n        /* \"Library/ProposalLibrary.sol\":1595:1604  self.cand */\n      0x07\n      add\n        /* \"Library/ProposalLibrary.sol\":1605:1610  _cand */\n      dup6\n      dup6\n        /* \"Library/ProposalLibrary.sol\":1611:1612  i */\n      dup5\n        /* \"Library/ProposalLibrary.sol\":1605:1613  _cand[i] */\n      dup2\n      dup2\n      lt\n      tag_159\n      jumpi\n      tag_160\n      tag_94\n      jump\t// in\n    tag_160:\n    tag_159:\n      swap1\n      pop\n      0x20\n      mul\n      dup2\n      add\n      swap1\n      tag_161\n      swap2\n      swap1\n      tag_162\n      jump\t// in\n    tag_161:\n        /* \"Library/ProposalLibrary.sol\":1595:1614  self.cand[_cand[i]] */\n      mload(0x40)\n      tag_163\n      swap3\n      swap2\n      swap1\n      tag_164\n      jump\t// in\n    tag_163:\n      swap1\n      dup2\n      mstore\n      0x20\n      add\n      mload(0x40)\n      dup1\n      swap2\n      sub\n      swap1\n      keccak256\n      0x00\n        /* \"Library/ProposalLibrary.sol\":1595:1621  self.cand[_cand[i]] = true */\n      0x0100\n      exp\n      dup2\n      sload\n      dup2\n      0xff\n      mul\n      not\n      and\n      swap1\n      dup4\n      iszero\n      iszero\n      mul\n      or\n      swap1\n      sstore\n      pop\n        /* \"Library/ProposalLibrary.sol\":1682:1687  _cand */\n      dup4\n      dup4\n        /* \"Library/ProposalLibrary.sol\":1688:1689  i */\n      dup3\n        /* \"Library/ProposalLibrary.sol\":1682:1690  _cand[i] */\n      dup2\n      dup2\n      lt\n      tag_165\n      jumpi\n      tag_166\n      tag_94\n      jump\t// in\n    tag_166:\n    tag_165:\n      swap1\n      pop\n      0x20\n      mul\n      dup2\n      add\n      swap1\n      tag_167\n      swap2\n      swap1\n      tag_162\n      jump\t// in\n    tag_167:\n        /* \"Library/ProposalLibrary.sol\":1660:1664  self */\n      dup14\n        /* \"Library/ProposalLibrary.sol\":1660:1673  self.candHash */\n      0x08\n      add\n        /* \"Library/ProposalLibrary.sol\":1660:1678  self.candHash[i+1] */\n      0x00\n        /* \"Library/ProposalLibrary.sol\":1676:1677  1 */\n      0x01\n        /* \"Library/ProposalLibrary.sol\":1674:1675  i */\n      dup6\n        /* \"Library/ProposalLibrary.sol\":1674:1677  i+1 */\n      tag_168\n      swap2\n      swap1\n      tag_134\n      jump\t// in\n    tag_168:\n        /* \"Library/ProposalLibrary.sol\":1660:1678  self.candHash[i+1] */\n      dup2\n      mstore\n      0x20\n      add\n      swap1\n      dup2\n      mstore\n      0x20\n      add\n      0x00\n      keccak256\n        /* \"Library/ProposalLibrary.sol\":1660:1690  self.candHash[i+1] =  _cand[i] */\n      swap2\n      swap1\n      tag_169\n      swap3\n      swap2\n      swap1\n      tag_170\n      jump\t// in\n    tag_169:\n      pop\n        /* \"Library/ProposalLibrary.sol\":1552:1555  i++ */\n      dup1\n      dup1\n      tag_171\n      swap1\n      tag_83\n      jump\t// in\n    tag_171:\n      swap2\n      pop\n      pop\n        /* \"Library/ProposalLibrary.sol\":1521:1726  for(uint256 i=0;i<_cand.length;i++){\r... */\n      jump(tag_156)\n    tag_157:\n      pop\n        /* \"Library/ProposalLibrary.sol\":1764:1773  uint256 i */\n      0x00\n        /* \"Library/ProposalLibrary.sol\":1760:1902  for(uint256 i=0;i<_voters.length;i++){\r... */\n    tag_172:\n        /* \"Library/ProposalLibrary.sol\":1778:1785  _voters */\n      dup10\n        /* \"Library/ProposalLibrary.sol\":1778:1792  _voters.length */\n      mload\n        /* \"Library/ProposalLibrary.sol\":1776:1777  i */\n      dup2\n        /* \"Library/ProposalLibrary.sol\":1776:1792  i<_voters.length */\n      lt\n        /* \"Library/ProposalLibrary.sol\":1760:1902  for(uint256 i=0;i<_voters.length;i++){\r... */\n      iszero\n      tag_173\n      jumpi\n        /* \"Library/ProposalLibrary.sol\":1862:1866  true */\n      0x01\n        /* \"Library/ProposalLibrary.sol\":1836:1840  self */\n      dup13\n        /* \"Library/ProposalLibrary.sol\":1836:1847  self.voters */\n      0x06\n      add\n        /* \"Library/ProposalLibrary.sol\":1836:1859  self.voters[_voters[i]] */\n      0x00\n        /* \"Library/ProposalLibrary.sol\":1848:1855  _voters */\n      dup13\n        /* \"Library/ProposalLibrary.sol\":1856:1857  i */\n      dup5\n        /* \"Library/ProposalLibrary.sol\":1848:1858  _voters[i] */\n      dup2\n      mload\n      dup2\n      lt\n      tag_175\n      jumpi\n      tag_176\n      tag_94\n      jump\t// in\n    tag_176:\n    tag_175:\n      0x20\n      mul\n      0x20\n      add\n      add\n      mload\n        /* \"Library/ProposalLibrary.sol\":1836:1859  self.voters[_voters[i]] */\n      0xffffffffffffffffffffffffffffffffffffffff\n      and\n      0xffffffffffffffffffffffffffffffffffffffff\n      and\n      dup2\n      mstore\n      0x20\n      add\n      swap1\n      dup2\n      mstore\n      0x20\n      add\n      0x00\n      keccak256\n      0x00\n        /* \"Library/ProposalLibrary.sol\":1836:1866  self.voters[_voters[i]] = true */\n      0x0100\n      exp\n      dup2\n      sload\n      dup2\n      0xff\n      mul\n      not\n      and\n      swap1\n      dup4\n      iszero\n      iszero\n      mul\n      or\n      swap1\n      sstore\n      pop\n        /* \"Library/ProposalLibrary.sol\":1793:1796  i++ */\n      dup1\n      dup1\n      tag_177\n      swap1\n      tag_83\n      jump\t// in\n    tag_177:\n      swap2\n      pop\n      pop\n        /* \"Library/ProposalLibrary.sol\":1760:1902  for(uint256 i=0;i<_voters.length;i++){\r... */\n      jump(tag_172)\n    tag_173:\n      pop\n        /* \"Library/ProposalLibrary.sol\":1945:1949  true */\n      0x01\n        /* \"Library/ProposalLibrary.sol\":1938:1949  return true */\n      swap1\n      pop\n        /* \"Library/ProposalLibrary.sol\":806:1983  function createProposal(proposal storage self, uint8 _status, address[] memory _voters, address _creator,\r... */\n      swap11\n      swap10\n      pop\n      pop\n      pop\n      pop\n      pop\n      pop\n      pop\n      pop\n      pop\n      pop\n      jump\t// out\n        /* \"QvToken/QvToken.sol\":398:502  function mint(address to , uint amount) onlyOwner(_msgSender()) internal {\r... */\n    tag_95:\n        /* \"QvToken/QvToken.sol\":448:460  _msgSender() */\n      tag_178\n        /* \"QvToken/QvToken.sol\":448:458  _msgSender */\n      tag_109\n        /* \"QvToken/QvToken.sol\":448:460  _msgSender() */\n      jump\t// in\n    tag_178:\n        /* \"QvToken/QvToken.sol\":366:375  msgSender */\n      dup1\n        /* \"QvToken/QvToken.sol\":357:375  owner == msgSender */\n      0xffffffffffffffffffffffffffffffffffffffff\n      and\n        /* \"QvToken/QvToken.sol\":357:362  owner */\n      0x04\n      0x00\n      swap1\n      sload\n      swap1\n      0x0100\n      exp\n      swap1\n      div\n      0xffffffffffffffffffffffffffffffffffffffff\n      and\n        /* \"QvToken/QvToken.sol\":357:375  owner == msgSender */\n      0xffffffffffffffffffffffffffffffffffffffff\n      and\n      eq\n        /* \"QvToken/QvToken.sol\":349:376  require(owner == msgSender) */\n      tag_180\n      jumpi\n      0x00\n      dup1\n      revert\n    tag_180:\n        /* \"QvToken/QvToken.sol\":478:494  _mint(to,amount) */\n      tag_182\n        /* \"QvToken/QvToken.sol\":484:486  to */\n      dup4\n        /* \"QvToken/QvToken.sol\":487:493  amount */\n      dup4\n        /* \"QvToken/QvToken.sol\":478:483  _mint */\n      tag_183\n        /* \"QvToken/QvToken.sol\":478:494  _mint(to,amount) */\n      jump\t// in\n    tag_182:\n        /* \"QvToken/QvToken.sol\":398:502  function mint(address to , uint amount) onlyOwner(_msgSender()) internal {\r... */\n      pop\n      pop\n      pop\n      jump\t// out\n        /* \"Library/VoterLibrary.sol\":1090:1525  function createVoter(voter storage self, uint _proposalId, address _voterAddress, bool _hasVoted, uint _voteNum) internal returns(bool){\r... */\n    tag_101:\n        /* \"Library/VoterLibrary.sol\":1220:1224  bool */\n      0x00\n        /* \"Library/VoterLibrary.sol\":1278:1289  _proposalId */\n      dup5\n        /* \"Library/VoterLibrary.sol\":1260:1264  self */\n      dup7\n        /* \"Library/VoterLibrary.sol\":1260:1275  self.proposalId */\n      0x00\n      add\n        /* \"Library/VoterLibrary.sol\":1260:1289  self.proposalId = _proposalId */\n      dup2\n      swap1\n      sstore\n      pop\n        /* \"Library/VoterLibrary.sol\":1344:1357  _voterAddress */\n      dup4\n        /* \"Library/VoterLibrary.sol\":1324:1328  self */\n      dup7\n        /* \"Library/VoterLibrary.sol\":1324:1341  self.voterAddress */\n      0x01\n      add\n      0x00\n        /* \"Library/VoterLibrary.sol\":1324:1357  self.voterAddress = _voterAddress */\n      0x0100\n      exp\n      dup2\n      sload\n      dup2\n      0xffffffffffffffffffffffffffffffffffffffff\n      mul\n      not\n      and\n      swap1\n      dup4\n      0xffffffffffffffffffffffffffffffffffffffff\n      and\n      mul\n      or\n      swap1\n      sstore\n      pop\n        /* \"Library/VoterLibrary.sol\":1408:1417  _hasVoted */\n      dup3\n        /* \"Library/VoterLibrary.sol\":1392:1396  self */\n      dup7\n        /* \"Library/VoterLibrary.sol\":1392:1405  self.hasVoted */\n      0x01\n      add\n      0x14\n        /* \"Library/VoterLibrary.sol\":1392:1417  self.hasVoted = _hasVoted */\n      0x0100\n      exp\n      dup2\n      sload\n      dup2\n      0xff\n      mul\n      not\n      and\n      swap1\n      dup4\n      iszero\n      iszero\n      mul\n      or\n      swap1\n      sstore\n      pop\n        /* \"Library/VoterLibrary.sol\":1467:1475  _voteNum */\n      dup2\n        /* \"Library/VoterLibrary.sol\":1452:1456  self */\n      dup7\n        /* \"Library/VoterLibrary.sol\":1452:1464  self.voteNum */\n      0x02\n      add\n        /* \"Library/VoterLibrary.sol\":1452:1475  self.voteNum = _voteNum */\n      dup2\n      swap1\n      sstore\n      pop\n        /* \"Library/VoterLibrary.sol\":1517:1521  true */\n      0x01\n        /* \"Library/VoterLibrary.sol\":1510:1521  return true */\n      swap1\n      pop\n        /* \"Library/VoterLibrary.sol\":1090:1525  function createVoter(voter storage self, uint _proposalId, address _voterAddress, bool _hasVoted, uint _voteNum) internal returns(bool){\r... */\n      swap6\n      swap5\n      pop\n      pop\n      pop\n      pop\n      pop\n      jump\t// out\n        /* \"QvToken/Context.sol\":656:754  function _msgSender() internal view virtual returns (address) {\r... */\n    tag_109:\n        /* \"QvToken/Context.sol\":709:716  address */\n      0x00\n        /* \"QvToken/Context.sol\":736:746  msg.sender */\n      caller\n        /* \"QvToken/Context.sol\":729:746  return msg.sender */\n      swap1\n      pop\n        /* \"QvToken/Context.sol\":656:754  function _msgSender() internal view virtual returns (address) {\r... */\n      swap1\n      jump\t// out\n        /* \"Library/UserProposalLibrary.sol\":573:794  function updateProposalList(UserProposal storage self, uint _proposalId) internal returns(bool){\r... */\n    tag_110:\n        /* \"Library/UserProposalLibrary.sol\":663:667  bool */\n      0x00\n        /* \"Library/UserProposalLibrary.sol\":679:683  self */\n      dup3\n        /* \"Library/UserProposalLibrary.sol\":679:697  self.proposalCount */\n      0x00\n      add\n      0x00\n        /* \"Library/UserProposalLibrary.sol\":679:699  self.proposalCount++ */\n      dup2\n      dup2\n      swap1\n      sload\n      swap1\n      0x0100\n      exp\n      swap1\n      div\n      0xffffffffffffffffffffffffffffffff\n      and\n      dup1\n      swap3\n      swap2\n      swap1\n      tag_187\n      swap1\n      tag_188\n      jump\t// in\n    tag_187:\n      swap2\n      swap1\n      0x0100\n      exp\n      dup2\n      sload\n      dup2\n      0xffffffffffffffffffffffffffffffff\n      mul\n      not\n      and\n      swap1\n      dup4\n      0xffffffffffffffffffffffffffffffff\n      and\n      mul\n      or\n      swap1\n      sstore\n      pop\n      pop\n        /* \"Library/UserProposalLibrary.sol\":753:764  _proposalId */\n      dup2\n        /* \"Library/UserProposalLibrary.sol\":710:714  self */\n      dup4\n        /* \"Library/UserProposalLibrary.sol\":710:730  self.proposalCreated */\n      0x01\n      add\n        /* \"Library/UserProposalLibrary.sol\":710:750  self.proposalCreated[self.proposalCount] */\n      0x00\n        /* \"Library/UserProposalLibrary.sol\":731:735  self */\n      dup6\n        /* \"Library/UserProposalLibrary.sol\":731:749  self.proposalCount */\n      0x00\n      add\n      0x00\n      swap1\n      sload\n      swap1\n      0x0100\n      exp\n      swap1\n      div\n      0xffffffffffffffffffffffffffffffff\n      and\n        /* \"Library/UserProposalLibrary.sol\":710:750  self.proposalCreated[self.proposalCount] */\n      0xffffffffffffffffffffffffffffffff\n      and\n      0xffffffffffffffffffffffffffffffff\n      and\n      dup2\n      mstore\n      0x20\n      add\n      swap1\n      dup2\n      mstore\n      0x20\n      add\n      0x00\n      keccak256\n        /* \"Library/UserProposalLibrary.sol\":710:764  self.proposalCreated[self.proposalCount] = _proposalId */\n      dup2\n      swap1\n      sstore\n      pop\n        /* \"Library/UserProposalLibrary.sol\":782:786  true */\n      0x01\n        /* \"Library/UserProposalLibrary.sol\":775:786  return true */\n      swap1\n      pop\n        /* \"Library/UserProposalLibrary.sol\":573:794  function updateProposalList(UserProposal storage self, uint _proposalId) internal returns(bool){\r... */\n      swap3\n      swap2\n      pop\n      pop\n      jump\t// out\n        /* \"Library/ProposalLibrary.sol\":2018:3370  function responseProposal(proposal storage self, address _voter, string[] memory _hash, uint[] memory v) internal returns(bool){\r... */\n    tag_140:\n        /* \"Library/ProposalLibrary.sol\":2140:2144  bool */\n      0x00\n        /* \"Library/ProposalLibrary.sol\":2179:2180  2 */\n      0x02\n        /* \"Library/ProposalLibrary.sol\":2164:2168  self */\n      dup6\n        /* \"Library/ProposalLibrary.sol\":2164:2175  self.status */\n      0x00\n      add\n      0x14\n      swap1\n      sload\n      swap1\n      0x0100\n      exp\n      swap1\n      div\n      0xff\n      and\n        /* \"Library/ProposalLibrary.sol\":2164:2180  self.status == 2 */\n      0xff\n      and\n      eq\n        /* \"Library/ProposalLibrary.sol\":2156:2203  require(self.status == 2, \"Proposal: inactive\") */\n      tag_190\n      jumpi\n      mload(0x40)\n      0x08c379a000000000000000000000000000000000000000000000000000000000\n      dup2\n      mstore\n      0x04\n      add\n      tag_191\n      swap1\n      tag_192\n      jump\t// in\n    tag_191:\n      mload(0x40)\n      dup1\n      swap2\n      sub\n      swap1\n      revert\n    tag_190:\n        /* \"Library/ProposalLibrary.sol\":2235:2239  self */\n      dup5\n        /* \"Library/ProposalLibrary.sol\":2235:2254  self.expirationTime */\n      0x03\n      add\n      sload\n        /* \"Library/ProposalLibrary.sol\":2217:2232  block.timestamp */\n      timestamp\n        /* \"Library/ProposalLibrary.sol\":2217:2254  block.timestamp > self.expirationTime */\n      gt\n        /* \"Library/ProposalLibrary.sol\":2214:3069  if(block.timestamp > self.expirationTime){\r... */\n      iszero\n      tag_193\n      jumpi\n        /* \"Library/ProposalLibrary.sol\":2324:2325  2 */\n      0x02\n        /* \"Library/ProposalLibrary.sol\":2310:2314  self */\n      dup6\n        /* \"Library/ProposalLibrary.sol\":2310:2321  self.status */\n      0x00\n      add\n      0x14\n        /* \"Library/ProposalLibrary.sol\":2310:2325  self.status = 2 */\n      0x0100\n      exp\n      dup2\n      sload\n      dup2\n      0xff\n      mul\n      not\n      and\n      swap1\n      dup4\n      0xff\n      and\n      mul\n      or\n      swap1\n      sstore\n      pop\n        /* \"Library/ProposalLibrary.sol\":2340:2357  uint largestCount */\n      0x00\n        /* \"Library/ProposalLibrary.sol\":2360:2364  self */\n      dup6\n        /* \"Library/ProposalLibrary.sol\":2360:2370  self.votes */\n      0x0a\n      add\n        /* \"Library/ProposalLibrary.sol\":2371:2375  self */\n      dup7\n        /* \"Library/ProposalLibrary.sol\":2371:2384  self.candHash */\n      0x08\n      add\n        /* \"Library/ProposalLibrary.sol\":2371:2387  self.candHash[1] */\n      0x00\n        /* \"Library/ProposalLibrary.sol\":2385:2386  1 */\n      0x01\n        /* \"Library/ProposalLibrary.sol\":2371:2387  self.candHash[1] */\n      dup2\n      mstore\n      0x20\n      add\n      swap1\n      dup2\n      mstore\n      0x20\n      add\n      0x00\n      keccak256\n        /* \"Library/ProposalLibrary.sol\":2360:2388  self.votes[self.candHash[1]] */\n      mload(0x40)\n      tag_194\n      swap2\n      swap1\n      tag_195\n      jump\t// in\n    tag_194:\n      swap1\n      dup2\n      mstore\n      0x20\n      add\n      mload(0x40)\n      dup1\n      swap2\n      sub\n      swap1\n      keccak256\n      sload\n        /* \"Library/ProposalLibrary.sol\":2340:2388  uint largestCount = self.votes[self.candHash[1]] */\n      swap1\n      pop\n        /* \"Library/ProposalLibrary.sol\":2403:2419  uint winnerCount */\n      0x00\n        /* \"Library/ProposalLibrary.sol\":2422:2423  1 */\n      0x01\n        /* \"Library/ProposalLibrary.sol\":2403:2423  uint winnerCount = 1 */\n      swap1\n      pop\n        /* \"Library/ProposalLibrary.sol\":2455:2459  self */\n      dup7\n        /* \"Library/ProposalLibrary.sol\":2455:2468  self.candHash */\n      0x08\n      add\n        /* \"Library/ProposalLibrary.sol\":2455:2471  self.candHash[1] */\n      0x00\n        /* \"Library/ProposalLibrary.sol\":2469:2470  1 */\n      0x01\n        /* \"Library/ProposalLibrary.sol\":2455:2471  self.candHash[1] */\n      dup2\n      mstore\n      0x20\n      add\n      swap1\n      dup2\n      mstore\n      0x20\n      add\n      0x00\n      keccak256\n        /* \"Library/ProposalLibrary.sol\":2438:2442  self */\n      dup8\n        /* \"Library/ProposalLibrary.sol\":2438:2449  self.result */\n      0x09\n      add\n        /* \"Library/ProposalLibrary.sol\":2438:2452  self.result[1] */\n      0x00\n        /* \"Library/ProposalLibrary.sol\":2450:2451  1 */\n      0x01\n        /* \"Library/ProposalLibrary.sol\":2438:2452  self.result[1] */\n      dup2\n      mstore\n      0x20\n      add\n      swap1\n      dup2\n      mstore\n      0x20\n      add\n      0x00\n      keccak256\n        /* \"Library/ProposalLibrary.sol\":2438:2471  self.result[1] = self.candHash[1] */\n      swap1\n      dup1\n      sload\n      tag_196\n      swap1\n      tag_59\n      jump\t// in\n    tag_196:\n      tag_197\n      swap3\n      swap2\n      swap1\n      tag_198\n      jump\t// in\n    tag_197:\n      pop\n        /* \"Library/ProposalLibrary.sol\":2553:2561  uint16 i */\n      0x00\n        /* \"Library/ProposalLibrary.sol\":2564:2565  2 */\n      0x02\n        /* \"Library/ProposalLibrary.sol\":2553:2565  uint16 i = 2 */\n      swap1\n      pop\n        /* \"Library/ProposalLibrary.sol\":2549:3031  for(uint16 i = 2; i <= self.numOfOptions; i++){\r... */\n    tag_199:\n        /* \"Library/ProposalLibrary.sol\":2572:2576  self */\n      dup8\n        /* \"Library/ProposalLibrary.sol\":2572:2589  self.numOfOptions */\n      0x04\n      add\n      0x00\n      swap1\n      sload\n      swap1\n      0x0100\n      exp\n      swap1\n      div\n      0xffff\n      and\n        /* \"Library/ProposalLibrary.sol\":2567:2589  i <= self.numOfOptions */\n      0xffff\n      and\n        /* \"Library/ProposalLibrary.sol\":2567:2568  i */\n      dup2\n        /* \"Library/ProposalLibrary.sol\":2567:2589  i <= self.numOfOptions */\n      0xffff\n      and\n      gt\n        /* \"Library/ProposalLibrary.sol\":2549:3031  for(uint16 i = 2; i <= self.numOfOptions; i++){\r... */\n      tag_200\n      jumpi\n        /* \"Library/ProposalLibrary.sol\":2648:2660  largestCount */\n      dup3\n        /* \"Library/ProposalLibrary.sol\":2617:2621  self */\n      dup9\n        /* \"Library/ProposalLibrary.sol\":2617:2627  self.votes */\n      0x0a\n      add\n        /* \"Library/ProposalLibrary.sol\":2628:2632  self */\n      dup10\n        /* \"Library/ProposalLibrary.sol\":2628:2641  self.candHash */\n      0x08\n      add\n        /* \"Library/ProposalLibrary.sol\":2628:2644  self.candHash[i] */\n      0x00\n        /* \"Library/ProposalLibrary.sol\":2642:2643  i */\n      dup5\n        /* \"Library/ProposalLibrary.sol\":2628:2644  self.candHash[i] */\n      0xffff\n      and\n      dup2\n      mstore\n      0x20\n      add\n      swap1\n      dup2\n      mstore\n      0x20\n      add\n      0x00\n      keccak256\n        /* \"Library/ProposalLibrary.sol\":2617:2645  self.votes[self.candHash[i]] */\n      mload(0x40)\n      tag_202\n      swap2\n      swap1\n      tag_195\n      jump\t// in\n    tag_202:\n      swap1\n      dup2\n      mstore\n      0x20\n      add\n      mload(0x40)\n      dup1\n      swap2\n      sub\n      swap1\n      keccak256\n      sload\n        /* \"Library/ProposalLibrary.sol\":2617:2660  self.votes[self.candHash[i]] > largestCount */\n      gt\n        /* \"Library/ProposalLibrary.sol\":2614:3016  if(self.votes[self.candHash[i]] > largestCount){\r... */\n      iszero\n      tag_203\n      jumpi\n        /* \"Library/ProposalLibrary.sol\":2699:2703  self */\n      dup8\n        /* \"Library/ProposalLibrary.sol\":2699:2709  self.votes */\n      0x0a\n      add\n        /* \"Library/ProposalLibrary.sol\":2710:2714  self */\n      dup9\n        /* \"Library/ProposalLibrary.sol\":2710:2723  self.candHash */\n      0x08\n      add\n        /* \"Library/ProposalLibrary.sol\":2710:2726  self.candHash[i] */\n      0x00\n        /* \"Library/ProposalLibrary.sol\":2724:2725  i */\n      dup4\n        /* \"Library/ProposalLibrary.sol\":2710:2726  self.candHash[i] */\n      0xffff\n      and\n      dup2\n      mstore\n      0x20\n      add\n      swap1\n      dup2\n      mstore\n      0x20\n      add\n      0x00\n      keccak256\n        /* \"Library/ProposalLibrary.sol\":2699:2727  self.votes[self.candHash[i]] */\n      mload(0x40)\n      tag_204\n      swap2\n      swap1\n      tag_195\n      jump\t// in\n    tag_204:\n      swap1\n      dup2\n      mstore\n      0x20\n      add\n      mload(0x40)\n      dup1\n      swap2\n      sub\n      swap1\n      keccak256\n      sload\n        /* \"Library/ProposalLibrary.sol\":2684:2727  largestCount = self.votes[self.candHash[i]] */\n      swap3\n      pop\n        /* \"Library/ProposalLibrary.sol\":2764:2765  1 */\n      0x01\n        /* \"Library/ProposalLibrary.sol\":2750:2765  winnerCount = 1 */\n      swap2\n      pop\n        /* \"Library/ProposalLibrary.sol\":2805:2809  self */\n      dup8\n        /* \"Library/ProposalLibrary.sol\":2805:2818  self.candHash */\n      0x08\n      add\n        /* \"Library/ProposalLibrary.sol\":2805:2821  self.candHash[i] */\n      0x00\n        /* \"Library/ProposalLibrary.sol\":2819:2820  i */\n      dup3\n        /* \"Library/ProposalLibrary.sol\":2805:2821  self.candHash[i] */\n      0xffff\n      and\n      dup2\n      mstore\n      0x20\n      add\n      swap1\n      dup2\n      mstore\n      0x20\n      add\n      0x00\n      keccak256\n        /* \"Library/ProposalLibrary.sol\":2788:2792  self */\n      dup9\n        /* \"Library/ProposalLibrary.sol\":2788:2799  self.result */\n      0x09\n      add\n        /* \"Library/ProposalLibrary.sol\":2788:2802  self.result[1] */\n      0x00\n        /* \"Library/ProposalLibrary.sol\":2800:2801  1 */\n      0x01\n        /* \"Library/ProposalLibrary.sol\":2788:2802  self.result[1] */\n      dup2\n      mstore\n      0x20\n      add\n      swap1\n      dup2\n      mstore\n      0x20\n      add\n      0x00\n      keccak256\n        /* \"Library/ProposalLibrary.sol\":2788:2821  self.result[1] = self.candHash[i] */\n      swap1\n      dup1\n      sload\n      tag_205\n      swap1\n      tag_59\n      jump\t// in\n    tag_205:\n      tag_206\n      swap3\n      swap2\n      swap1\n      tag_198\n      jump\t// in\n    tag_206:\n      pop\n        /* \"Library/ProposalLibrary.sol\":2614:3016  if(self.votes[self.candHash[i]] > largestCount){\r... */\n      jump(tag_207)\n    tag_203:\n        /* \"Library/ProposalLibrary.sol\":2881:2893  largestCount */\n      dup3\n        /* \"Library/ProposalLibrary.sol\":2849:2853  self */\n      dup9\n        /* \"Library/ProposalLibrary.sol\":2849:2859  self.votes */\n      0x0a\n      add\n        /* \"Library/ProposalLibrary.sol\":2860:2864  self */\n      dup10\n        /* \"Library/ProposalLibrary.sol\":2860:2873  self.candHash */\n      0x08\n      add\n        /* \"Library/ProposalLibrary.sol\":2860:2876  self.candHash[i] */\n      0x00\n        /* \"Library/ProposalLibrary.sol\":2874:2875  i */\n      dup5\n        /* \"Library/ProposalLibrary.sol\":2860:2876  self.candHash[i] */\n      0xffff\n      and\n      dup2\n      mstore\n      0x20\n      add\n      swap1\n      dup2\n      mstore\n      0x20\n      add\n      0x00\n      keccak256\n        /* \"Library/ProposalLibrary.sol\":2849:2877  self.votes[self.candHash[i]] */\n      mload(0x40)\n      tag_208\n      swap2\n      swap1\n      tag_195\n      jump\t// in\n    tag_208:\n      swap1\n      dup2\n      mstore\n      0x20\n      add\n      mload(0x40)\n      dup1\n      swap2\n      sub\n      swap1\n      keccak256\n      sload\n        /* \"Library/ProposalLibrary.sol\":2849:2893  self.votes[self.candHash[i]] == largestCount */\n      eq\n        /* \"Library/ProposalLibrary.sol\":2846:3016  if(self.votes[self.candHash[i]] == largestCount){\r... */\n      iszero\n      tag_209\n      jumpi\n        /* \"Library/ProposalLibrary.sol\":2917:2930  winnerCount++ */\n      dup2\n      dup1\n      tag_210\n      swap1\n      tag_83\n      jump\t// in\n    tag_210:\n      swap3\n      pop\n      pop\n        /* \"Library/ProposalLibrary.sol\":2980:2984  self */\n      dup8\n        /* \"Library/ProposalLibrary.sol\":2980:2993  self.candHash */\n      0x08\n      add\n        /* \"Library/ProposalLibrary.sol\":2980:2996  self.candHash[i] */\n      0x00\n        /* \"Library/ProposalLibrary.sol\":2994:2995  i */\n      dup3\n        /* \"Library/ProposalLibrary.sol\":2980:2996  self.candHash[i] */\n      0xffff\n      and\n      dup2\n      mstore\n      0x20\n      add\n      swap1\n      dup2\n      mstore\n      0x20\n      add\n      0x00\n      keccak256\n        /* \"Library/ProposalLibrary.sol\":2953:2957  self */\n      dup9\n        /* \"Library/ProposalLibrary.sol\":2953:2964  self.result */\n      0x09\n      add\n        /* \"Library/ProposalLibrary.sol\":2953:2977  self.result[winnerCount] */\n      0x00\n        /* \"Library/ProposalLibrary.sol\":2965:2976  winnerCount */\n      dup5\n        /* \"Library/ProposalLibrary.sol\":2953:2977  self.result[winnerCount] */\n      dup2\n      mstore\n      0x20\n      add\n      swap1\n      dup2\n      mstore\n      0x20\n      add\n      0x00\n      keccak256\n        /* \"Library/ProposalLibrary.sol\":2953:2996  self.result[winnerCount] = self.candHash[i] */\n      swap1\n      dup1\n      sload\n      tag_211\n      swap1\n      tag_59\n      jump\t// in\n    tag_211:\n      tag_212\n      swap3\n      swap2\n      swap1\n      tag_198\n      jump\t// in\n    tag_212:\n      pop\n        /* \"Library/ProposalLibrary.sol\":2846:3016  if(self.votes[self.candHash[i]] == largestCount){\r... */\n    tag_209:\n        /* \"Library/ProposalLibrary.sol\":2614:3016  if(self.votes[self.candHash[i]] > largestCount){\r... */\n    tag_207:\n        /* \"Library/ProposalLibrary.sol\":2591:2594  i++ */\n      dup1\n      dup1\n      tag_213\n      swap1\n      tag_214\n      jump\t// in\n    tag_213:\n      swap2\n      pop\n      pop\n        /* \"Library/ProposalLibrary.sol\":2549:3031  for(uint16 i = 2; i <= self.numOfOptions; i++){\r... */\n      jump(tag_199)\n    tag_200:\n      pop\n        /* \"Library/ProposalLibrary.sol\":3052:3057  false */\n      0x00\n        /* \"Library/ProposalLibrary.sol\":3045:3057  return false */\n      swap3\n      pop\n      pop\n      pop\n      jump(tag_189)\n        /* \"Library/ProposalLibrary.sol\":2214:3069  if(block.timestamp > self.expirationTime){\r... */\n    tag_193:\n        /* \"Library/ProposalLibrary.sol\":3112:3116  self */\n      dup5\n        /* \"Library/ProposalLibrary.sol\":3112:3123  self.voters */\n      0x06\n      add\n        /* \"Library/ProposalLibrary.sol\":3112:3131  self.voters[_voter] */\n      0x00\n        /* \"Library/ProposalLibrary.sol\":3124:3130  _voter */\n      dup6\n        /* \"Library/ProposalLibrary.sol\":3112:3131  self.voters[_voter] */\n      0xffffffffffffffffffffffffffffffffffffffff\n      and\n      0xffffffffffffffffffffffffffffffffffffffff\n      and\n      dup2\n      mstore\n      0x20\n      add\n      swap1\n      dup2\n      mstore\n      0x20\n      add\n      0x00\n      keccak256\n      0x00\n      swap1\n      sload\n      swap1\n      0x0100\n      exp\n      swap1\n      div\n      0xff\n      and\n        /* \"Library/ProposalLibrary.sol\":3104:3171  require(self.voters[_voter], \"Not a valid voter for this proposal\") */\n      tag_215\n      jumpi\n      mload(0x40)\n      0x08c379a000000000000000000000000000000000000000000000000000000000\n      dup2\n      mstore\n      0x04\n      add\n      tag_216\n      swap1\n      tag_217\n      jump\t// in\n    tag_216:\n      mload(0x40)\n      dup1\n      swap2\n      sub\n      swap1\n      revert\n    tag_215:\n        /* \"Library/ProposalLibrary.sol\":3188:3196  uint16 i */\n      0x00\n        /* \"Library/ProposalLibrary.sol\":3184:3341  for(uint16 i=0;i<self.numOfOptions;i++){\r... */\n    tag_218:\n        /* \"Library/ProposalLibrary.sol\":3201:3205  self */\n      dup6\n        /* \"Library/ProposalLibrary.sol\":3201:3218  self.numOfOptions */\n      0x04\n      add\n      0x00\n      swap1\n      sload\n      swap1\n      0x0100\n      exp\n      swap1\n      div\n      0xffff\n      and\n        /* \"Library/ProposalLibrary.sol\":3199:3218  i<self.numOfOptions */\n      0xffff\n      and\n        /* \"Library/ProposalLibrary.sol\":3199:3200  i */\n      dup2\n        /* \"Library/ProposalLibrary.sol\":3199:3218  i<self.numOfOptions */\n      0xffff\n      and\n      lt\n        /* \"Library/ProposalLibrary.sol\":3184:3341  for(uint16 i=0;i<self.numOfOptions;i++){\r... */\n      iszero\n      tag_219\n      jumpi\n        /* \"Library/ProposalLibrary.sol\":3242:3246  self */\n      dup6\n        /* \"Library/ProposalLibrary.sol\":3242:3251  self.cand */\n      0x07\n      add\n        /* \"Library/ProposalLibrary.sol\":3252:3257  _hash */\n      dup5\n        /* \"Library/ProposalLibrary.sol\":3258:3259  i */\n      dup3\n        /* \"Library/ProposalLibrary.sol\":3252:3260  _hash[i] */\n      0xffff\n      and\n      dup2\n      mload\n      dup2\n      lt\n      tag_221\n      jumpi\n      tag_222\n      tag_94\n      jump\t// in\n    tag_222:\n    tag_221:\n      0x20\n      mul\n      0x20\n      add\n      add\n      mload\n        /* \"Library/ProposalLibrary.sol\":3242:3261  self.cand[_hash[i]] */\n      mload(0x40)\n      tag_223\n      swap2\n      swap1\n      tag_224\n      jump\t// in\n    tag_223:\n      swap1\n      dup2\n      mstore\n      0x20\n      add\n      mload(0x40)\n      dup1\n      swap2\n      sub\n      swap1\n      keccak256\n      0x00\n      swap1\n      sload\n      swap1\n      0x0100\n      exp\n      swap1\n      div\n      0xff\n      and\n        /* \"Library/ProposalLibrary.sol\":3234:3293  require(self.cand[_hash[i]], \"Proposal: invalid candidate\") */\n      tag_225\n      jumpi\n      mload(0x40)\n      0x08c379a000000000000000000000000000000000000000000000000000000000\n      dup2\n      mstore\n      0x04\n      add\n      tag_226\n      swap1\n      tag_227\n      jump\t// in\n    tag_226:\n      mload(0x40)\n      dup1\n      swap2\n      sub\n      swap1\n      revert\n    tag_225:\n        /* \"Library/ProposalLibrary.sol\":3325:3326  v */\n      dup3\n        /* \"Library/ProposalLibrary.sol\":3327:3328  i */\n      dup2\n        /* \"Library/ProposalLibrary.sol\":3325:3329  v[i] */\n      0xffff\n      and\n      dup2\n      mload\n      dup2\n      lt\n      tag_228\n      jumpi\n      tag_229\n      tag_94\n      jump\t// in\n    tag_229:\n    tag_228:\n      0x20\n      mul\n      0x20\n      add\n      add\n      mload\n        /* \"Library/ProposalLibrary.sol\":3304:3308  self */\n      dup7\n        /* \"Library/ProposalLibrary.sol\":3304:3314  self.votes */\n      0x0a\n      add\n        /* \"Library/ProposalLibrary.sol\":3315:3320  _hash */\n      dup6\n        /* \"Library/ProposalLibrary.sol\":3321:3322  i */\n      dup4\n        /* \"Library/ProposalLibrary.sol\":3315:3323  _hash[i] */\n      0xffff\n      and\n      dup2\n      mload\n      dup2\n      lt\n      tag_230\n      jumpi\n      tag_231\n      tag_94\n      jump\t// in\n    tag_231:\n    tag_230:\n      0x20\n      mul\n      0x20\n      add\n      add\n      mload\n        /* \"Library/ProposalLibrary.sol\":3304:3324  self.votes[_hash[i]] */\n      mload(0x40)\n      tag_232\n      swap2\n      swap1\n      tag_224\n      jump\t// in\n    tag_232:\n      swap1\n      dup2\n      mstore\n      0x20\n      add\n      mload(0x40)\n      dup1\n      swap2\n      sub\n      swap1\n      keccak256\n        /* \"Library/ProposalLibrary.sol\":3304:3329  self.votes[_hash[i]]=v[i] */\n      dup2\n      swap1\n      sstore\n      pop\n        /* \"Library/ProposalLibrary.sol\":3219:3222  i++ */\n      dup1\n      dup1\n      tag_233\n      swap1\n      tag_214\n      jump\t// in\n    tag_233:\n      swap2\n      pop\n      pop\n        /* \"Library/ProposalLibrary.sol\":3184:3341  for(uint16 i=0;i<self.numOfOptions;i++){\r... */\n      jump(tag_218)\n    tag_219:\n      pop\n        /* \"Library/ProposalLibrary.sol\":3358:3362  true */\n      0x01\n        /* \"Library/ProposalLibrary.sol\":3351:3362  return true */\n      swap1\n      pop\n        /* \"Library/ProposalLibrary.sol\":2018:3370  function responseProposal(proposal storage self, address _voter, string[] memory _hash, uint[] memory v) internal returns(bool){\r... */\n    tag_189:\n      swap5\n      swap4\n      pop\n      pop\n      pop\n      pop\n      jump\t// out\n        /* \"Library/UserProposalLibrary.sol\":802:1377  function updateResponseList(UserProposal storage self, uint _proposalId, string[] memory _hash) internal returns(bool){\r... */\n    tag_143:\n        /* \"Library/UserProposalLibrary.sol\":915:919  bool */\n      0x00\n        /* \"Library/UserProposalLibrary.sol\":931:935  self */\n      dup4\n        /* \"Library/UserProposalLibrary.sol\":931:949  self.responseCount */\n      0x00\n      add\n      0x10\n        /* \"Library/UserProposalLibrary.sol\":931:951  self.responseCount++ */\n      dup2\n      dup2\n      swap1\n      sload\n      swap1\n      0x0100\n      exp\n      swap1\n      div\n      0xffffffffffffffffffffffffffffffff\n      and\n      dup1\n      swap3\n      swap2\n      swap1\n      tag_235\n      swap1\n      tag_188\n      jump\t// in\n    tag_235:\n      swap2\n      swap1\n      0x0100\n      exp\n      dup2\n      sload\n      dup2\n      0xffffffffffffffffffffffffffffffff\n      mul\n      not\n      and\n      swap1\n      dup4\n      0xffffffffffffffffffffffffffffffff\n      and\n      mul\n      or\n      swap1\n      sstore\n      pop\n      pop\n        /* \"Library/UserProposalLibrary.sol\":1009:1020  _proposalId */\n      dup3\n        /* \"Library/UserProposalLibrary.sol\":964:968  self */\n      dup5\n        /* \"Library/UserProposalLibrary.sol\":964:986  self.proposalResponsed */\n      0x02\n      add\n        /* \"Library/UserProposalLibrary.sol\":964:1006  self.proposalResponsed[self.responseCount] */\n      0x00\n        /* \"Library/UserProposalLibrary.sol\":987:991  self */\n      dup7\n        /* \"Library/UserProposalLibrary.sol\":987:1005  self.responseCount */\n      0x00\n      add\n      0x10\n      swap1\n      sload\n      swap1\n      0x0100\n      exp\n      swap1\n      div\n      0xffffffffffffffffffffffffffffffff\n      and\n        /* \"Library/UserProposalLibrary.sol\":964:1006  self.proposalResponsed[self.responseCount] */\n      0xffffffffffffffffffffffffffffffff\n      and\n      0xffffffffffffffffffffffffffffffff\n      and\n      dup2\n      mstore\n      0x20\n      add\n      swap1\n      dup2\n      mstore\n      0x20\n      add\n      0x00\n      keccak256\n        /* \"Library/UserProposalLibrary.sol\":964:1020  self.proposalResponsed[self.responseCount] = _proposalId */\n      dup2\n      swap1\n      sstore\n      pop\n        /* \"Library/UserProposalLibrary.sol\":1190:1198  uint16 i */\n      0x00\n        /* \"Library/UserProposalLibrary.sol\":1186:1295  for(uint16 i=0;i<_hash.length;i++){\r... */\n    tag_236:\n        /* \"Library/UserProposalLibrary.sol\":1203:1208  _hash */\n      dup3\n        /* \"Library/UserProposalLibrary.sol\":1203:1215  _hash.length */\n      mload\n        /* \"Library/UserProposalLibrary.sol\":1201:1202  i */\n      dup2\n        /* \"Library/UserProposalLibrary.sol\":1201:1215  i<_hash.length */\n      0xffff\n      and\n      lt\n        /* \"Library/UserProposalLibrary.sol\":1186:1295  for(uint16 i=0;i<_hash.length;i++){\r... */\n      iszero\n      tag_237\n      jumpi\n        /* \"Library/UserProposalLibrary.sol\":1275:1280  _hash */\n      dup3\n        /* \"Library/UserProposalLibrary.sol\":1281:1282  i */\n      dup2\n        /* \"Library/UserProposalLibrary.sol\":1275:1283  _hash[i] */\n      0xffff\n      and\n      dup2\n      mload\n      dup2\n      lt\n      tag_239\n      jumpi\n      tag_240\n      tag_94\n      jump\t// in\n    tag_240:\n    tag_239:\n      0x20\n      mul\n      0x20\n      add\n      add\n      mload\n        /* \"Library/UserProposalLibrary.sol\":1235:1239  self */\n      dup6\n        /* \"Library/UserProposalLibrary.sol\":1235:1254  self.proposalAnswer */\n      0x03\n      add\n        /* \"Library/UserProposalLibrary.sol\":1235:1267  self.proposalAnswer[_proposalId] */\n      0x00\n        /* \"Library/UserProposalLibrary.sol\":1255:1266  _proposalId */\n      dup7\n        /* \"Library/UserProposalLibrary.sol\":1235:1267  self.proposalAnswer[_proposalId] */\n      dup2\n      mstore\n      0x20\n      add\n      swap1\n      dup2\n      mstore\n      0x20\n      add\n      0x00\n      keccak256\n        /* \"Library/UserProposalLibrary.sol\":1235:1272  self.proposalAnswer[_proposalId][i+1] */\n      0x00\n        /* \"Library/UserProposalLibrary.sol\":1270:1271  1 */\n      0x01\n        /* \"Library/UserProposalLibrary.sol\":1268:1269  i */\n      dup5\n        /* \"Library/UserProposalLibrary.sol\":1268:1271  i+1 */\n      tag_241\n      swap2\n      swap1\n      tag_242\n      jump\t// in\n    tag_241:\n        /* \"Library/UserProposalLibrary.sol\":1235:1272  self.proposalAnswer[_proposalId][i+1] */\n      0xffff\n      and\n      dup2\n      mstore\n      0x20\n      add\n      swap1\n      dup2\n      mstore\n      0x20\n      add\n      0x00\n      keccak256\n        /* \"Library/UserProposalLibrary.sol\":1235:1283  self.proposalAnswer[_proposalId][i+1] = _hash[i] */\n      swap1\n      dup1\n      mload\n      swap1\n      0x20\n      add\n      swap1\n      tag_243\n      swap3\n      swap2\n      swap1\n      tag_155\n      jump\t// in\n    tag_243:\n      pop\n        /* \"Library/UserProposalLibrary.sol\":1216:1219  i++ */\n      dup1\n      dup1\n      tag_244\n      swap1\n      tag_214\n      jump\t// in\n    tag_244:\n      swap2\n      pop\n      pop\n        /* \"Library/UserProposalLibrary.sol\":1186:1295  for(uint16 i=0;i<_hash.length;i++){\r... */\n      jump(tag_236)\n    tag_237:\n      pop\n        /* \"Library/UserProposalLibrary.sol\":1343:1347  true */\n      0x01\n        /* \"Library/UserProposalLibrary.sol\":1305:1309  self */\n      dup5\n        /* \"Library/UserProposalLibrary.sol\":1305:1327  self.responsedProposal */\n      0x04\n      add\n        /* \"Library/UserProposalLibrary.sol\":1305:1340  self.responsedProposal[_proposalId] */\n      0x00\n        /* \"Library/UserProposalLibrary.sol\":1328:1339  _proposalId */\n      dup6\n        /* \"Library/UserProposalLibrary.sol\":1305:1340  self.responsedProposal[_proposalId] */\n      dup2\n      mstore\n      0x20\n      add\n      swap1\n      dup2\n      mstore\n      0x20\n      add\n      0x00\n      keccak256\n      0x00\n        /* \"Library/UserProposalLibrary.sol\":1305:1347  self.responsedProposal[_proposalId] = true */\n      0x0100\n      exp\n      dup2\n      sload\n      dup2\n      0xff\n      mul\n      not\n      and\n      swap1\n      dup4\n      iszero\n      iszero\n      mul\n      or\n      swap1\n      sstore\n      pop\n        /* \"Library/UserProposalLibrary.sol\":1365:1369  true */\n      0x01\n        /* \"Library/UserProposalLibrary.sol\":1358:1369  return true */\n      swap1\n      pop\n        /* \"Library/UserProposalLibrary.sol\":802:1377  function updateResponseList(UserProposal storage self, uint _proposalId, string[] memory _hash) internal returns(bool){\r... */\n      swap4\n      swap3\n      pop\n      pop\n      pop\n      jump\t// out\n        /* \"Library/VoterLibrary.sol\":832:1063  function updateVoteNum(voter storage self) internal returns(bool){\r... */\n    tag_145:\n        /* \"Library/VoterLibrary.sol\":892:896  bool */\n      0x00\n        /* \"Library/VoterLibrary.sol\":931:932  0 */\n      dup1\n        /* \"Library/VoterLibrary.sol\":914:918  self */\n      dup3\n        /* \"Library/VoterLibrary.sol\":914:929  self.proposalId */\n      0x00\n      add\n      sload\n        /* \"Library/VoterLibrary.sol\":914:932  self.proposalId!=0 */\n      eq\n      iszero\n        /* \"Library/VoterLibrary.sol\":906:965  require(self.proposalId!=0,\"Invalid voter for proposalId!\") */\n      tag_246\n      jumpi\n      mload(0x40)\n      0x08c379a000000000000000000000000000000000000000000000000000000000\n      dup2\n      mstore\n      0x04\n      add\n      tag_247\n      swap1\n      tag_248\n      jump\t// in\n    tag_247:\n      mload(0x40)\n      dup1\n      swap2\n      sub\n      swap1\n      revert\n    tag_246:\n        /* \"Library/VoterLibrary.sol\":983:987  self */\n      dup2\n        /* \"Library/VoterLibrary.sol\":983:996  self.hasVoted */\n      0x01\n      add\n      0x14\n      swap1\n      sload\n      swap1\n      0x0100\n      exp\n      swap1\n      div\n      0xff\n      and\n        /* \"Library/VoterLibrary.sol\":982:996  !self.hasVoted */\n      iszero\n        /* \"Library/VoterLibrary.sol\":974:1010  require(!self.hasVoted, \"not voted\") */\n      tag_249\n      jumpi\n      mload(0x40)\n      0x08c379a000000000000000000000000000000000000000000000000000000000\n      dup2\n      mstore\n      0x04\n      add\n      tag_250\n      swap1\n      tag_251\n      jump\t// in\n    tag_250:\n      mload(0x40)\n      dup1\n      swap2\n      sub\n      swap1\n      revert\n    tag_249:\n        /* \"Library/VoterLibrary.sol\":1034:1035  0 */\n      0x00\n        /* \"Library/VoterLibrary.sol\":1019:1023  self */\n      dup3\n        /* \"Library/VoterLibrary.sol\":1019:1031  self.voteNum */\n      0x02\n      add\n        /* \"Library/VoterLibrary.sol\":1019:1035  self.voteNum = 0 */\n      dup2\n      swap1\n      sstore\n      pop\n        /* \"Library/VoterLibrary.sol\":1051:1055  true */\n      0x01\n        /* \"Library/VoterLibrary.sol\":1044:1055  return true */\n      swap1\n      pop\n        /* \"Library/VoterLibrary.sol\":832:1063  function updateVoteNum(voter storage self) internal returns(bool){\r... */\n      swap2\n      swap1\n      pop\n      jump\t// out\n        /* \"QvToken/ERC20.sol\":3630:4033  function _mint(address account, uint256 amount) internal virtual {\r... */\n    tag_183:\n        /* \"QvToken/ERC20.sol\":3733:3734  0 */\n      0x00\n        /* \"QvToken/ERC20.sol\":3714:3735  account != address(0) */\n      0xffffffffffffffffffffffffffffffffffffffff\n      and\n        /* \"QvToken/ERC20.sol\":3714:3721  account */\n      dup3\n        /* \"QvToken/ERC20.sol\":3714:3735  account != address(0) */\n      0xffffffffffffffffffffffffffffffffffffffff\n      and\n      eq\n      iszero\n        /* \"QvToken/ERC20.sol\":3706:3771  require(account != address(0), \"ERC20: mint to the zero address\") */\n      tag_253\n      jumpi\n      mload(0x40)\n      0x08c379a000000000000000000000000000000000000000000000000000000000\n      dup2\n      mstore\n      0x04\n      add\n      tag_254\n      swap1\n      tag_255\n      jump\t// in\n    tag_254:\n      mload(0x40)\n      dup1\n      swap2\n      sub\n      swap1\n      revert\n    tag_253:\n        /* \"QvToken/ERC20.sol\":3865:3871  amount */\n      dup1\n        /* \"QvToken/ERC20.sol\":3849:3861  _totalSupply */\n      0x01\n      0x00\n        /* \"QvToken/ERC20.sol\":3849:3871  _totalSupply += amount */\n      dup3\n      dup3\n      sload\n      tag_256\n      swap2\n      swap1\n      tag_134\n      jump\t// in\n    tag_256:\n      swap3\n      pop\n      pop\n      dup2\n      swap1\n      sstore\n      pop\n        /* \"QvToken/ERC20.sol\":3904:3910  amount */\n      dup1\n        /* \"QvToken/ERC20.sol\":3882:3891  _balances */\n      0x00\n        /* \"QvToken/ERC20.sol\":3882:3900  _balances[account] */\n      dup1\n        /* \"QvToken/ERC20.sol\":3892:3899  account */\n      dup5\n        /* \"QvToken/ERC20.sol\":3882:3900  _balances[account] */\n      0xffffffffffffffffffffffffffffffffffffffff\n      and\n      0xffffffffffffffffffffffffffffffffffffffff\n      and\n      dup2\n      mstore\n      0x20\n      add\n      swap1\n      dup2\n      mstore\n      0x20\n      add\n      0x00\n      keccak256\n      0x00\n        /* \"QvToken/ERC20.sol\":3882:3910  _balances[account] += amount */\n      dup3\n      dup3\n      sload\n      tag_257\n      swap2\n      swap1\n      tag_134\n      jump\t// in\n    tag_257:\n      swap3\n      pop\n      pop\n      dup2\n      swap1\n      sstore\n      pop\n        /* \"QvToken/ERC20.sol\":3926:3961  mintAndburn(\"mint\",account, amount) */\n      0xabf5327be9f5825c40d58bda541dd07f09b62df3376bbd5ecdbaa8bd82a9d492\n        /* \"QvToken/ERC20.sol\":3945:3952  account */\n      dup3\n        /* \"QvToken/ERC20.sol\":3954:3960  amount */\n      dup3\n        /* \"QvToken/ERC20.sol\":3926:3961  mintAndburn(\"mint\",account, amount) */\n      mload(0x40)\n      tag_258\n      swap3\n      swap2\n      swap1\n      tag_105\n      jump\t// in\n    tag_258:\n      mload(0x40)\n      dup1\n      swap2\n      sub\n      swap1\n      log1\n        /* \"QvToken/ERC20.sol\":3630:4033  function _mint(address account, uint256 amount) internal virtual {\r... */\n      pop\n      pop\n      jump\t// out\n    tag_155:\n      dup3\n      dup1\n      sload\n      tag_259\n      swap1\n      tag_59\n      jump\t// in\n    tag_259:\n      swap1\n      0x00\n      mstore\n      keccak256(0x00, 0x20)\n      swap1\n      0x1f\n      add\n      0x20\n      swap1\n      div\n      dup2\n      add\n      swap3\n      dup3\n      tag_261\n      jumpi\n      0x00\n      dup6\n      sstore\n      jump(tag_260)\n    tag_261:\n      dup3\n      0x1f\n      lt\n      tag_262\n      jumpi\n      dup1\n      mload\n      not(0xff)\n      and\n      dup4\n      dup1\n      add\n      or\n      dup6\n      sstore\n      jump(tag_260)\n    tag_262:\n      dup3\n      dup1\n      add\n      0x01\n      add\n      dup6\n      sstore\n      dup3\n      iszero\n      tag_260\n      jumpi\n      swap2\n      dup3\n      add\n    tag_263:\n      dup3\n      dup2\n      gt\n      iszero\n      tag_264\n      jumpi\n      dup3\n      mload\n      dup3\n      sstore\n      swap2\n      0x20\n      add\n      swap2\n      swap1\n      0x01\n      add\n      swap1\n      jump(tag_263)\n    tag_264:\n    tag_260:\n      pop\n      swap1\n      pop\n      tag_265\n      swap2\n      swap1\n      tag_266\n      jump\t// in\n    tag_265:\n      pop\n      swap1\n      jump\t// out\n    tag_170:\n      dup3\n      dup1\n      sload\n      tag_267\n      swap1\n      tag_59\n      jump\t// in\n    tag_267:\n      swap1\n      0x00\n      mstore\n      keccak256(0x00, 0x20)\n      swap1\n      0x1f\n      add\n      0x20\n      swap1\n      div\n      dup2\n      add\n      swap3\n      dup3\n      tag_269\n      jumpi\n      0x00\n      dup6\n      sstore\n      jump(tag_268)\n    tag_269:\n      dup3\n      0x1f\n      lt\n      tag_270\n      jumpi\n      dup1\n      calldataload\n      not(0xff)\n      and\n      dup4\n      dup1\n      add\n      or\n      dup6\n      sstore\n      jump(tag_268)\n    tag_270:\n      dup3\n      dup1\n      add\n      0x01\n      add\n      dup6\n      sstore\n      dup3\n      iszero\n      tag_268\n      jumpi\n      swap2\n      dup3\n      add\n    tag_271:\n      dup3\n      dup2\n      gt\n      iszero\n      tag_272\n      jumpi\n      dup3\n      calldataload\n      dup3\n      sstore\n      swap2\n      0x20\n      add\n      swap2\n      swap1\n      0x01\n      add\n      swap1\n      jump(tag_271)\n    tag_272:\n    tag_268:\n      pop\n      swap1\n      pop\n      tag_273\n      swap2\n      swap1\n      tag_266\n      jump\t// in\n    tag_273:\n      pop\n      swap1\n      jump\t// out\n    tag_198:\n      dup3\n      dup1\n      sload\n      tag_274\n      swap1\n      tag_59\n      jump\t// in\n    tag_274:\n      swap1\n      0x00\n      mstore\n      keccak256(0x00, 0x20)\n      swap1\n      0x1f\n      add\n      0x20\n      swap1\n      div\n      dup2\n      add\n      swap3\n      dup3\n      tag_276\n      jumpi\n      0x00\n      dup6\n      sstore\n      jump(tag_275)\n    tag_276:\n      dup3\n      0x1f\n      lt\n      tag_277\n      jumpi\n      dup1\n      sload\n      dup6\n      sstore\n      jump(tag_275)\n    tag_277:\n      dup3\n      dup1\n      add\n      0x01\n      add\n      dup6\n      sstore\n      dup3\n      iszero\n      tag_275\n      jumpi\n      0x00\n      mstore\n      keccak256(0x00, 0x20)\n      swap2\n      0x1f\n      add\n      0x20\n      swap1\n      div\n      dup3\n      add\n    tag_278:\n      dup3\n      dup2\n      gt\n      iszero\n      tag_279\n      jumpi\n      dup3\n      sload\n      dup3\n      sstore\n      swap2\n      0x01\n      add\n      swap2\n      swap1\n      0x01\n      add\n      swap1\n      jump(tag_278)\n    tag_279:\n    tag_275:\n      pop\n      swap1\n      pop\n      tag_280\n      swap2\n      swap1\n      tag_266\n      jump\t// in\n    tag_280:\n      pop\n      swap1\n      jump\t// out\n    tag_266:\n    tag_281:\n      dup1\n      dup3\n      gt\n      iszero\n      tag_282\n      jumpi\n      0x00\n      dup2\n      0x00\n      swap1\n      sstore\n      pop\n      0x01\n      add\n      jump(tag_281)\n    tag_282:\n      pop\n      swap1\n      jump\t// out\n        /* \"#utility.yul\":24:746   */\n    tag_284:\n        /* \"#utility.yul\":120:125   */\n      0x00\n        /* \"#utility.yul\":145:226   */\n      tag_286\n        /* \"#utility.yul\":161:225   */\n      tag_287\n        /* \"#utility.yul\":218:224   */\n      dup5\n        /* \"#utility.yul\":161:225   */\n      tag_288\n      jump\t// in\n    tag_287:\n        /* \"#utility.yul\":145:226   */\n      tag_289\n      jump\t// in\n    tag_286:\n        /* \"#utility.yul\":136:226   */\n      swap1\n      pop\n        /* \"#utility.yul\":246:251   */\n      dup1\n        /* \"#utility.yul\":275:281   */\n      dup4\n        /* \"#utility.yul\":268:273   */\n      dup3\n        /* \"#utility.yul\":261:282   */\n      mstore\n        /* \"#utility.yul\":309:313   */\n      0x20\n        /* \"#utility.yul\":302:307   */\n      dup3\n        /* \"#utility.yul\":298:314   */\n      add\n        /* \"#utility.yul\":291:314   */\n      swap1\n      pop\n        /* \"#utility.yul\":335:341   */\n      dup3\n        /* \"#utility.yul\":385:388   */\n      dup6\n        /* \"#utility.yul\":377:381   */\n      0x20\n        /* \"#utility.yul\":369:375   */\n      dup7\n        /* \"#utility.yul\":365:382   */\n      mul\n        /* \"#utility.yul\":360:363   */\n      dup3\n        /* \"#utility.yul\":356:383   */\n      add\n        /* \"#utility.yul\":353:389   */\n      gt\n        /* \"#utility.yul\":350:493   */\n      iszero\n      tag_290\n      jumpi\n        /* \"#utility.yul\":404:483   */\n      tag_291\n      tag_292\n      jump\t// in\n    tag_291:\n        /* \"#utility.yul\":350:493   */\n    tag_290:\n        /* \"#utility.yul\":517:518   */\n      0x00\n        /* \"#utility.yul\":502:740   */\n    tag_293:\n        /* \"#utility.yul\":527:533   */\n      dup6\n        /* \"#utility.yul\":524:525   */\n      dup2\n        /* \"#utility.yul\":521:534   */\n      lt\n        /* \"#utility.yul\":502:740   */\n      iszero\n      tag_295\n      jumpi\n        /* \"#utility.yul\":595:598   */\n      dup2\n        /* \"#utility.yul\":624:661   */\n      tag_296\n        /* \"#utility.yul\":657:660   */\n      dup9\n        /* \"#utility.yul\":645:655   */\n      dup3\n        /* \"#utility.yul\":624:661   */\n      tag_297\n      jump\t// in\n    tag_296:\n        /* \"#utility.yul\":619:622   */\n      dup5\n        /* \"#utility.yul\":612:662   */\n      mstore\n        /* \"#utility.yul\":691:695   */\n      0x20\n        /* \"#utility.yul\":686:689   */\n      dup5\n        /* \"#utility.yul\":682:696   */\n      add\n        /* \"#utility.yul\":675:696   */\n      swap4\n      pop\n        /* \"#utility.yul\":725:729   */\n      0x20\n        /* \"#utility.yul\":720:723   */\n      dup4\n        /* \"#utility.yul\":716:730   */\n      add\n        /* \"#utility.yul\":709:730   */\n      swap3\n      pop\n        /* \"#utility.yul\":562:740   */\n      pop\n        /* \"#utility.yul\":549:550   */\n      0x01\n        /* \"#utility.yul\":546:547   */\n      dup2\n        /* \"#utility.yul\":542:551   */\n      add\n        /* \"#utility.yul\":537:551   */\n      swap1\n      pop\n        /* \"#utility.yul\":502:740   */\n      jump(tag_293)\n    tag_295:\n        /* \"#utility.yul\":506:520   */\n      pop\n        /* \"#utility.yul\":126:746   */\n      pop\n      pop\n        /* \"#utility.yul\":24:746   */\n      swap4\n      swap3\n      pop\n      pop\n      pop\n      jump\t// out\n        /* \"#utility.yul\":768:1725   */\n    tag_298:\n        /* \"#utility.yul\":874:879   */\n      0x00\n        /* \"#utility.yul\":899:990   */\n      tag_300\n        /* \"#utility.yul\":915:989   */\n      tag_301\n        /* \"#utility.yul\":982:988   */\n      dup5\n        /* \"#utility.yul\":915:989   */\n      tag_302\n      jump\t// in\n    tag_301:\n        /* \"#utility.yul\":899:990   */\n      tag_289\n      jump\t// in\n    tag_300:\n        /* \"#utility.yul\":890:990   */\n      swap1\n      pop\n        /* \"#utility.yul\":1010:1015   */\n      dup1\n        /* \"#utility.yul\":1039:1045   */\n      dup4\n        /* \"#utility.yul\":1032:1037   */\n      dup3\n        /* \"#utility.yul\":1025:1046   */\n      mstore\n        /* \"#utility.yul\":1073:1077   */\n      0x20\n        /* \"#utility.yul\":1066:1071   */\n      dup3\n        /* \"#utility.yul\":1062:1078   */\n      add\n        /* \"#utility.yul\":1055:1078   */\n      swap1\n      pop\n        /* \"#utility.yul\":1099:1105   */\n      dup3\n        /* \"#utility.yul\":1149:1152   */\n      dup6\n        /* \"#utility.yul\":1141:1145   */\n      0x20\n        /* \"#utility.yul\":1133:1139   */\n      dup7\n        /* \"#utility.yul\":1129:1146   */\n      mul\n        /* \"#utility.yul\":1124:1127   */\n      dup3\n        /* \"#utility.yul\":1120:1147   */\n      add\n        /* \"#utility.yul\":1117:1153   */\n      gt\n        /* \"#utility.yul\":1114:1257   */\n      iszero\n      tag_303\n      jumpi\n        /* \"#utility.yul\":1168:1247   */\n      tag_304\n      tag_292\n      jump\t// in\n    tag_304:\n        /* \"#utility.yul\":1114:1257   */\n    tag_303:\n        /* \"#utility.yul\":1281:1282   */\n      0x00\n        /* \"#utility.yul\":1266:1719   */\n    tag_305:\n        /* \"#utility.yul\":1291:1297   */\n      dup6\n        /* \"#utility.yul\":1288:1289   */\n      dup2\n        /* \"#utility.yul\":1285:1298   */\n      lt\n        /* \"#utility.yul\":1266:1719   */\n      iszero\n      tag_307\n      jumpi\n        /* \"#utility.yul\":1373:1376   */\n      dup2\n        /* \"#utility.yul\":1360:1377   */\n      calldataload\n        /* \"#utility.yul\":1409:1427   */\n      0xffffffffffffffff\n        /* \"#utility.yul\":1396:1407   */\n      dup2\n        /* \"#utility.yul\":1393:1428   */\n      gt\n        /* \"#utility.yul\":1390:1512   */\n      iszero\n      tag_308\n      jumpi\n        /* \"#utility.yul\":1431:1510   */\n      tag_309\n      tag_310\n      jump\t// in\n    tag_309:\n        /* \"#utility.yul\":1390:1512   */\n    tag_308:\n        /* \"#utility.yul\":1555:1566   */\n      dup1\n        /* \"#utility.yul\":1547:1553   */\n      dup7\n        /* \"#utility.yul\":1543:1567   */\n      add\n        /* \"#utility.yul\":1593:1640   */\n      tag_311\n        /* \"#utility.yul\":1636:1639   */\n      dup10\n        /* \"#utility.yul\":1624:1634   */\n      dup3\n        /* \"#utility.yul\":1593:1640   */\n      tag_312\n      jump\t// in\n    tag_311:\n        /* \"#utility.yul\":1588:1591   */\n      dup6\n        /* \"#utility.yul\":1581:1641   */\n      mstore\n        /* \"#utility.yul\":1670:1674   */\n      0x20\n        /* \"#utility.yul\":1665:1668   */\n      dup6\n        /* \"#utility.yul\":1661:1675   */\n      add\n        /* \"#utility.yul\":1654:1675   */\n      swap5\n      pop\n        /* \"#utility.yul\":1704:1708   */\n      0x20\n        /* \"#utility.yul\":1699:1702   */\n      dup5\n        /* \"#utility.yul\":1695:1709   */\n      add\n        /* \"#utility.yul\":1688:1709   */\n      swap4\n      pop\n        /* \"#utility.yul\":1326:1719   */\n      pop\n      pop\n        /* \"#utility.yul\":1313:1314   */\n      0x01\n        /* \"#utility.yul\":1310:1311   */\n      dup2\n        /* \"#utility.yul\":1306:1315   */\n      add\n        /* \"#utility.yul\":1301:1315   */\n      swap1\n      pop\n        /* \"#utility.yul\":1266:1719   */\n      jump(tag_305)\n    tag_307:\n        /* \"#utility.yul\":1270:1284   */\n      pop\n        /* \"#utility.yul\":880:1725   */\n      pop\n      pop\n        /* \"#utility.yul\":768:1725   */\n      swap4\n      swap3\n      pop\n      pop\n      pop\n      jump\t// out\n        /* \"#utility.yul\":1748:2470   */\n    tag_313:\n        /* \"#utility.yul\":1844:1849   */\n      0x00\n        /* \"#utility.yul\":1869:1950   */\n      tag_315\n        /* \"#utility.yul\":1885:1949   */\n      tag_316\n        /* \"#utility.yul\":1942:1948   */\n      dup5\n        /* \"#utility.yul\":1885:1949   */\n      tag_317\n      jump\t// in\n    tag_316:\n        /* \"#utility.yul\":1869:1950   */\n      tag_289\n      jump\t// in\n    tag_315:\n        /* \"#utility.yul\":1860:1950   */\n      swap1\n      pop\n        /* \"#utility.yul\":1970:1975   */\n      dup1\n        /* \"#utility.yul\":1999:2005   */\n      dup4\n        /* \"#utility.yul\":1992:1997   */\n      dup3\n        /* \"#utility.yul\":1985:2006   */\n      mstore\n        /* \"#utility.yul\":2033:2037   */\n      0x20\n        /* \"#utility.yul\":2026:2031   */\n      dup3\n        /* \"#utility.yul\":2022:2038   */\n      add\n        /* \"#utility.yul\":2015:2038   */\n      swap1\n      pop\n        /* \"#utility.yul\":2059:2065   */\n      dup3\n        /* \"#utility.yul\":2109:2112   */\n      dup6\n        /* \"#utility.yul\":2101:2105   */\n      0x20\n        /* \"#utility.yul\":2093:2099   */\n      dup7\n        /* \"#utility.yul\":2089:2106   */\n      mul\n        /* \"#utility.yul\":2084:2087   */\n      dup3\n        /* \"#utility.yul\":2080:2107   */\n      add\n        /* \"#utility.yul\":2077:2113   */\n      gt\n        /* \"#utility.yul\":2074:2217   */\n      iszero\n      tag_318\n      jumpi\n        /* \"#utility.yul\":2128:2207   */\n      tag_319\n      tag_292\n      jump\t// in\n    tag_319:\n        /* \"#utility.yul\":2074:2217   */\n    tag_318:\n        /* \"#utility.yul\":2241:2242   */\n      0x00\n        /* \"#utility.yul\":2226:2464   */\n    tag_320:\n        /* \"#utility.yul\":2251:2257   */\n      dup6\n        /* \"#utility.yul\":2248:2249   */\n      dup2\n        /* \"#utility.yul\":2245:2258   */\n      lt\n        /* \"#utility.yul\":2226:2464   */\n      iszero\n      tag_322\n      jumpi\n        /* \"#utility.yul\":2319:2322   */\n      dup2\n        /* \"#utility.yul\":2348:2385   */\n      tag_323\n        /* \"#utility.yul\":2381:2384   */\n      dup9\n        /* \"#utility.yul\":2369:2379   */\n      dup3\n        /* \"#utility.yul\":2348:2385   */\n      tag_324\n      jump\t// in\n    tag_323:\n        /* \"#utility.yul\":2343:2346   */\n      dup5\n        /* \"#utility.yul\":2336:2386   */\n      mstore\n        /* \"#utility.yul\":2415:2419   */\n      0x20\n        /* \"#utility.yul\":2410:2413   */\n      dup5\n        /* \"#utility.yul\":2406:2420   */\n      add\n        /* \"#utility.yul\":2399:2420   */\n      swap4\n      pop\n        /* \"#utility.yul\":2449:2453   */\n      0x20\n        /* \"#utility.yul\":2444:2447   */\n      dup4\n        /* \"#utility.yul\":2440:2454   */\n      add\n        /* \"#utility.yul\":2433:2454   */\n      swap3\n      pop\n        /* \"#utility.yul\":2286:2464   */\n      pop\n        /* \"#utility.yul\":2273:2274   */\n      0x01\n        /* \"#utility.yul\":2270:2271   */\n      dup2\n        /* \"#utility.yul\":2266:2275   */\n      add\n        /* \"#utility.yul\":2261:2275   */\n      swap1\n      pop\n        /* \"#utility.yul\":2226:2464   */\n      jump(tag_320)\n    tag_322:\n        /* \"#utility.yul\":2230:2244   */\n      pop\n        /* \"#utility.yul\":1850:2470   */\n      pop\n      pop\n        /* \"#utility.yul\":1748:2470   */\n      swap4\n      swap3\n      pop\n      pop\n      pop\n      jump\t// out\n        /* \"#utility.yul\":2476:2888   */\n    tag_325:\n        /* \"#utility.yul\":2554:2559   */\n      0x00\n        /* \"#utility.yul\":2579:2645   */\n      tag_327\n        /* \"#utility.yul\":2595:2644   */\n      tag_328\n        /* \"#utility.yul\":2637:2643   */\n      dup5\n        /* \"#utility.yul\":2595:2644   */\n      tag_329\n      jump\t// in\n    tag_328:\n        /* \"#utility.yul\":2579:2645   */\n      tag_289\n      jump\t// in\n    tag_327:\n        /* \"#utility.yul\":2570:2645   */\n      swap1\n      pop\n        /* \"#utility.yul\":2668:2674   */\n      dup3\n        /* \"#utility.yul\":2661:2666   */\n      dup2\n        /* \"#utility.yul\":2654:2675   */\n      mstore\n        /* \"#utility.yul\":2706:2710   */\n      0x20\n        /* \"#utility.yul\":2699:2704   */\n      dup2\n        /* \"#utility.yul\":2695:2711   */\n      add\n        /* \"#utility.yul\":2744:2747   */\n      dup5\n        /* \"#utility.yul\":2735:2741   */\n      dup5\n        /* \"#utility.yul\":2730:2733   */\n      dup5\n        /* \"#utility.yul\":2726:2742   */\n      add\n        /* \"#utility.yul\":2723:2748   */\n      gt\n        /* \"#utility.yul\":2720:2832   */\n      iszero\n      tag_330\n      jumpi\n        /* \"#utility.yul\":2751:2830   */\n      tag_331\n      tag_332\n      jump\t// in\n    tag_331:\n        /* \"#utility.yul\":2720:2832   */\n    tag_330:\n        /* \"#utility.yul\":2841:2882   */\n      tag_333\n        /* \"#utility.yul\":2875:2881   */\n      dup5\n        /* \"#utility.yul\":2870:2873   */\n      dup3\n        /* \"#utility.yul\":2865:2868   */\n      dup6\n        /* \"#utility.yul\":2841:2882   */\n      tag_334\n      jump\t// in\n    tag_333:\n        /* \"#utility.yul\":2560:2888   */\n      pop\n        /* \"#utility.yul\":2476:2888   */\n      swap4\n      swap3\n      pop\n      pop\n      pop\n      jump\t// out\n        /* \"#utility.yul\":2894:3033   */\n    tag_297:\n        /* \"#utility.yul\":2940:2945   */\n      0x00\n        /* \"#utility.yul\":2978:2984   */\n      dup2\n        /* \"#utility.yul\":2965:2985   */\n      calldataload\n        /* \"#utility.yul\":2956:2985   */\n      swap1\n      pop\n        /* \"#utility.yul\":2994:3027   */\n      tag_336\n        /* \"#utility.yul\":3021:3026   */\n      dup2\n        /* \"#utility.yul\":2994:3027   */\n      tag_337\n      jump\t// in\n    tag_336:\n        /* \"#utility.yul\":2894:3033   */\n      swap3\n      swap2\n      pop\n      pop\n      jump\t// out\n        /* \"#utility.yul\":3056:3426   */\n    tag_338:\n        /* \"#utility.yul\":3127:3132   */\n      0x00\n        /* \"#utility.yul\":3176:3179   */\n      dup3\n        /* \"#utility.yul\":3169:3173   */\n      0x1f\n        /* \"#utility.yul\":3161:3167   */\n      dup4\n        /* \"#utility.yul\":3157:3174   */\n      add\n        /* \"#utility.yul\":3153:3180   */\n      slt\n        /* \"#utility.yul\":3143:3265   */\n      tag_340\n      jumpi\n        /* \"#utility.yul\":3184:3263   */\n      tag_341\n      tag_310\n      jump\t// in\n    tag_341:\n        /* \"#utility.yul\":3143:3265   */\n    tag_340:\n        /* \"#utility.yul\":3301:3307   */\n      dup2\n        /* \"#utility.yul\":3288:3308   */\n      calldataload\n        /* \"#utility.yul\":3326:3420   */\n      tag_342\n        /* \"#utility.yul\":3416:3419   */\n      dup5\n        /* \"#utility.yul\":3408:3414   */\n      dup3\n        /* \"#utility.yul\":3401:3405   */\n      0x20\n        /* \"#utility.yul\":3393:3399   */\n      dup7\n        /* \"#utility.yul\":3389:3406   */\n      add\n        /* \"#utility.yul\":3326:3420   */\n      tag_284\n      jump\t// in\n    tag_342:\n        /* \"#utility.yul\":3317:3420   */\n      swap2\n      pop\n        /* \"#utility.yul\":3133:3426   */\n      pop\n        /* \"#utility.yul\":3056:3426   */\n      swap3\n      swap2\n      pop\n      pop\n      jump\t// out\n        /* \"#utility.yul\":3448:4028   */\n    tag_343:\n        /* \"#utility.yul\":3533:3541   */\n      0x00\n        /* \"#utility.yul\":3543:3549   */\n      dup1\n        /* \"#utility.yul\":3593:3596   */\n      dup4\n        /* \"#utility.yul\":3586:3590   */\n      0x1f\n        /* \"#utility.yul\":3578:3584   */\n      dup5\n        /* \"#utility.yul\":3574:3591   */\n      add\n        /* \"#utility.yul\":3570:3597   */\n      slt\n        /* \"#utility.yul\":3560:3682   */\n      tag_345\n      jumpi\n        /* \"#utility.yul\":3601:3680   */\n      tag_346\n      tag_310\n      jump\t// in\n    tag_346:\n        /* \"#utility.yul\":3560:3682   */\n    tag_345:\n        /* \"#utility.yul\":3714:3720   */\n      dup3\n        /* \"#utility.yul\":3701:3721   */\n      calldataload\n        /* \"#utility.yul\":3691:3721   */\n      swap1\n      pop\n        /* \"#utility.yul\":3744:3762   */\n      0xffffffffffffffff\n        /* \"#utility.yul\":3736:3742   */\n      dup2\n        /* \"#utility.yul\":3733:3763   */\n      gt\n        /* \"#utility.yul\":3730:3847   */\n      iszero\n      tag_347\n      jumpi\n        /* \"#utility.yul\":3766:3845   */\n      tag_348\n      tag_349\n      jump\t// in\n    tag_348:\n        /* \"#utility.yul\":3730:3847   */\n    tag_347:\n        /* \"#utility.yul\":3880:3884   */\n      0x20\n        /* \"#utility.yul\":3872:3878   */\n      dup4\n        /* \"#utility.yul\":3868:3885   */\n      add\n        /* \"#utility.yul\":3856:3885   */\n      swap2\n      pop\n        /* \"#utility.yul\":3934:3937   */\n      dup4\n        /* \"#utility.yul\":3926:3930   */\n      0x20\n        /* \"#utility.yul\":3918:3924   */\n      dup3\n        /* \"#utility.yul\":3914:3931   */\n      mul\n        /* \"#utility.yul\":3904:3912   */\n      dup4\n        /* \"#utility.yul\":3900:3932   */\n      add\n        /* \"#utility.yul\":3897:3938   */\n      gt\n        /* \"#utility.yul\":3894:4022   */\n      iszero\n      tag_350\n      jumpi\n        /* \"#utility.yul\":3941:4020   */\n      tag_351\n      tag_292\n      jump\t// in\n    tag_351:\n        /* \"#utility.yul\":3894:4022   */\n    tag_350:\n        /* \"#utility.yul\":3448:4028   */\n      swap3\n      pop\n      swap3\n      swap1\n      pop\n      jump\t// out\n        /* \"#utility.yul\":4050:4440   */\n    tag_352:\n        /* \"#utility.yul\":4131:4136   */\n      0x00\n        /* \"#utility.yul\":4180:4183   */\n      dup3\n        /* \"#utility.yul\":4173:4177   */\n      0x1f\n        /* \"#utility.yul\":4165:4171   */\n      dup4\n        /* \"#utility.yul\":4161:4178   */\n      add\n        /* \"#utility.yul\":4157:4184   */\n      slt\n        /* \"#utility.yul\":4147:4269   */\n      tag_354\n      jumpi\n        /* \"#utility.yul\":4188:4267   */\n      tag_355\n      tag_310\n      jump\t// in\n    tag_355:\n        /* \"#utility.yul\":4147:4269   */\n    tag_354:\n        /* \"#utility.yul\":4305:4311   */\n      dup2\n        /* \"#utility.yul\":4292:4312   */\n      calldataload\n        /* \"#utility.yul\":4330:4434   */\n      tag_356\n        /* \"#utility.yul\":4430:4433   */\n      dup5\n        /* \"#utility.yul\":4422:4428   */\n      dup3\n        /* \"#utility.yul\":4415:4419   */\n      0x20\n        /* \"#utility.yul\":4407:4413   */\n      dup7\n        /* \"#utility.yul\":4403:4420   */\n      add\n        /* \"#utility.yul\":4330:4434   */\n      tag_298\n      jump\t// in\n    tag_356:\n        /* \"#utility.yul\":4321:4434   */\n      swap2\n      pop\n        /* \"#utility.yul\":4137:4440   */\n      pop\n        /* \"#utility.yul\":4050:4440   */\n      swap3\n      swap2\n      pop\n      pop\n      jump\t// out\n        /* \"#utility.yul\":4463:4833   */\n    tag_357:\n        /* \"#utility.yul\":4534:4539   */\n      0x00\n        /* \"#utility.yul\":4583:4586   */\n      dup3\n        /* \"#utility.yul\":4576:4580   */\n      0x1f\n        /* \"#utility.yul\":4568:4574   */\n      dup4\n        /* \"#utility.yul\":4564:4581   */\n      add\n        /* \"#utility.yul\":4560:4587   */\n      slt\n        /* \"#utility.yul\":4550:4672   */\n      tag_359\n      jumpi\n        /* \"#utility.yul\":4591:4670   */\n      tag_360\n      tag_310\n      jump\t// in\n    tag_360:\n        /* \"#utility.yul\":4550:4672   */\n    tag_359:\n        /* \"#utility.yul\":4708:4714   */\n      dup2\n        /* \"#utility.yul\":4695:4715   */\n      calldataload\n        /* \"#utility.yul\":4733:4827   */\n      tag_361\n        /* \"#utility.yul\":4823:4826   */\n      dup5\n        /* \"#utility.yul\":4815:4821   */\n      dup3\n        /* \"#utility.yul\":4808:4812   */\n      0x20\n        /* \"#utility.yul\":4800:4806   */\n      dup7\n        /* \"#utility.yul\":4796:4813   */\n      add\n        /* \"#utility.yul\":4733:4827   */\n      tag_313\n      jump\t// in\n    tag_361:\n        /* \"#utility.yul\":4724:4827   */\n      swap2\n      pop\n        /* \"#utility.yul\":4540:4833   */\n      pop\n        /* \"#utility.yul\":4463:4833   */\n      swap3\n      swap2\n      pop\n      pop\n      jump\t// out\n        /* \"#utility.yul\":4853:5193   */\n    tag_312:\n        /* \"#utility.yul\":4909:4914   */\n      0x00\n        /* \"#utility.yul\":4958:4961   */\n      dup3\n        /* \"#utility.yul\":4951:4955   */\n      0x1f\n        /* \"#utility.yul\":4943:4949   */\n      dup4\n        /* \"#utility.yul\":4939:4956   */\n      add\n        /* \"#utility.yul\":4935:4962   */\n      slt\n        /* \"#utility.yul\":4925:5047   */\n      tag_363\n      jumpi\n        /* \"#utility.yul\":4966:5045   */\n      tag_364\n      tag_310\n      jump\t// in\n    tag_364:\n        /* \"#utility.yul\":4925:5047   */\n    tag_363:\n        /* \"#utility.yul\":5083:5089   */\n      dup2\n        /* \"#utility.yul\":5070:5090   */\n      calldataload\n        /* \"#utility.yul\":5108:5187   */\n      tag_365\n        /* \"#utility.yul\":5183:5186   */\n      dup5\n        /* \"#utility.yul\":5175:5181   */\n      dup3\n        /* \"#utility.yul\":5168:5172   */\n      0x20\n        /* \"#utility.yul\":5160:5166   */\n      dup7\n        /* \"#utility.yul\":5156:5173   */\n      add\n        /* \"#utility.yul\":5108:5187   */\n      tag_325\n      jump\t// in\n    tag_365:\n        /* \"#utility.yul\":5099:5187   */\n      swap2\n      pop\n        /* \"#utility.yul\":4915:5193   */\n      pop\n        /* \"#utility.yul\":4853:5193   */\n      swap3\n      swap2\n      pop\n      pop\n      jump\t// out\n        /* \"#utility.yul\":5199:5338   */\n    tag_324:\n        /* \"#utility.yul\":5245:5250   */\n      0x00\n        /* \"#utility.yul\":5283:5289   */\n      dup2\n        /* \"#utility.yul\":5270:5290   */\n      calldataload\n        /* \"#utility.yul\":5261:5290   */\n      swap1\n      pop\n        /* \"#utility.yul\":5299:5332   */\n      tag_367\n        /* \"#utility.yul\":5326:5331   */\n      dup2\n        /* \"#utility.yul\":5299:5332   */\n      tag_368\n      jump\t// in\n    tag_367:\n        /* \"#utility.yul\":5199:5338   */\n      swap3\n      swap2\n      pop\n      pop\n      jump\t// out\n        /* \"#utility.yul\":5344:5479   */\n    tag_369:\n        /* \"#utility.yul\":5388:5393   */\n      0x00\n        /* \"#utility.yul\":5426:5432   */\n      dup2\n        /* \"#utility.yul\":5413:5433   */\n      calldataload\n        /* \"#utility.yul\":5404:5433   */\n      swap1\n      pop\n        /* \"#utility.yul\":5442:5473   */\n      tag_371\n        /* \"#utility.yul\":5467:5472   */\n      dup2\n        /* \"#utility.yul\":5442:5473   */\n      tag_372\n      jump\t// in\n    tag_371:\n        /* \"#utility.yul\":5344:5479   */\n      swap3\n      swap2\n      pop\n      pop\n      jump\t// out\n        /* \"#utility.yul\":5485:5814   */\n    tag_42:\n        /* \"#utility.yul\":5544:5550   */\n      0x00\n        /* \"#utility.yul\":5593:5595   */\n      0x20\n        /* \"#utility.yul\":5581:5590   */\n      dup3\n        /* \"#utility.yul\":5572:5579   */\n      dup5\n        /* \"#utility.yul\":5568:5591   */\n      sub\n        /* \"#utility.yul\":5564:5596   */\n      slt\n        /* \"#utility.yul\":5561:5680   */\n      iszero\n      tag_374\n      jumpi\n        /* \"#utility.yul\":5599:5678   */\n      tag_375\n      tag_376\n      jump\t// in\n    tag_375:\n        /* \"#utility.yul\":5561:5680   */\n    tag_374:\n        /* \"#utility.yul\":5719:5720   */\n      0x00\n        /* \"#utility.yul\":5744:5797   */\n      tag_377\n        /* \"#utility.yul\":5789:5796   */\n      dup5\n        /* \"#utility.yul\":5780:5786   */\n      dup3\n        /* \"#utility.yul\":5769:5778   */\n      dup6\n        /* \"#utility.yul\":5765:5787   */\n      add\n        /* \"#utility.yul\":5744:5797   */\n      tag_297\n      jump\t// in\n    tag_377:\n        /* \"#utility.yul\":5734:5797   */\n      swap2\n      pop\n        /* \"#utility.yul\":5690:5807   */\n      pop\n        /* \"#utility.yul\":5485:5814   */\n      swap3\n      swap2\n      pop\n      pop\n      jump\t// out\n        /* \"#utility.yul\":5820:6149   */\n    tag_16:\n        /* \"#utility.yul\":5879:5885   */\n      0x00\n        /* \"#utility.yul\":5928:5930   */\n      0x20\n        /* \"#utility.yul\":5916:5925   */\n      dup3\n        /* \"#utility.yul\":5907:5914   */\n      dup5\n        /* \"#utility.yul\":5903:5926   */\n      sub\n        /* \"#utility.yul\":5899:5931   */\n      slt\n        /* \"#utility.yul\":5896:6015   */\n      iszero\n      tag_379\n      jumpi\n        /* \"#utility.yul\":5934:6013   */\n      tag_380\n      tag_376\n      jump\t// in\n    tag_380:\n        /* \"#utility.yul\":5896:6015   */\n    tag_379:\n        /* \"#utility.yul\":6054:6055   */\n      0x00\n        /* \"#utility.yul\":6079:6132   */\n      tag_381\n        /* \"#utility.yul\":6124:6131   */\n      dup5\n        /* \"#utility.yul\":6115:6121   */\n      dup3\n        /* \"#utility.yul\":6104:6113   */\n      dup6\n        /* \"#utility.yul\":6100:6122   */\n      add\n        /* \"#utility.yul\":6079:6132   */\n      tag_324\n      jump\t// in\n    tag_381:\n        /* \"#utility.yul\":6069:6132   */\n      swap2\n      pop\n        /* \"#utility.yul\":6025:6142   */\n      pop\n        /* \"#utility.yul\":5820:6149   */\n      swap3\n      swap2\n      pop\n      pop\n      jump\t// out\n        /* \"#utility.yul\":6155:7360   */\n    tag_38:\n        /* \"#utility.yul\":6301:6307   */\n      0x00\n        /* \"#utility.yul\":6309:6315   */\n      dup1\n        /* \"#utility.yul\":6317:6323   */\n      0x00\n        /* \"#utility.yul\":6325:6331   */\n      dup1\n        /* \"#utility.yul\":6374:6377   */\n      0x80\n        /* \"#utility.yul\":6362:6371   */\n      dup6\n        /* \"#utility.yul\":6353:6360   */\n      dup8\n        /* \"#utility.yul\":6349:6372   */\n      sub\n        /* \"#utility.yul\":6345:6378   */\n      slt\n        /* \"#utility.yul\":6342:6462   */\n      iszero\n      tag_383\n      jumpi\n        /* \"#utility.yul\":6381:6460   */\n      tag_384\n      tag_376\n      jump\t// in\n    tag_384:\n        /* \"#utility.yul\":6342:6462   */\n    tag_383:\n        /* \"#utility.yul\":6501:6502   */\n      0x00\n        /* \"#utility.yul\":6526:6579   */\n      tag_385\n        /* \"#utility.yul\":6571:6578   */\n      dup8\n        /* \"#utility.yul\":6562:6568   */\n      dup3\n        /* \"#utility.yul\":6551:6560   */\n      dup9\n        /* \"#utility.yul\":6547:6569   */\n      add\n        /* \"#utility.yul\":6526:6579   */\n      tag_324\n      jump\t// in\n    tag_385:\n        /* \"#utility.yul\":6516:6579   */\n      swap5\n      pop\n        /* \"#utility.yul\":6472:6589   */\n      pop\n        /* \"#utility.yul\":6628:6630   */\n      0x20\n        /* \"#utility.yul\":6654:6707   */\n      tag_386\n        /* \"#utility.yul\":6699:6706   */\n      dup8\n        /* \"#utility.yul\":6690:6696   */\n      dup3\n        /* \"#utility.yul\":6679:6688   */\n      dup9\n        /* \"#utility.yul\":6675:6697   */\n      add\n        /* \"#utility.yul\":6654:6707   */\n      tag_297\n      jump\t// in\n    tag_386:\n        /* \"#utility.yul\":6644:6707   */\n      swap4\n      pop\n        /* \"#utility.yul\":6599:6717   */\n      pop\n        /* \"#utility.yul\":6784:6786   */\n      0x40\n        /* \"#utility.yul\":6773:6782   */\n      dup6\n        /* \"#utility.yul\":6769:6787   */\n      add\n        /* \"#utility.yul\":6756:6788   */\n      calldataload\n        /* \"#utility.yul\":6815:6833   */\n      0xffffffffffffffff\n        /* \"#utility.yul\":6807:6813   */\n      dup2\n        /* \"#utility.yul\":6804:6834   */\n      gt\n        /* \"#utility.yul\":6801:6918   */\n      iszero\n      tag_387\n      jumpi\n        /* \"#utility.yul\":6837:6916   */\n      tag_388\n      tag_389\n      jump\t// in\n    tag_388:\n        /* \"#utility.yul\":6801:6918   */\n    tag_387:\n        /* \"#utility.yul\":6942:7030   */\n      tag_390\n        /* \"#utility.yul\":7022:7029   */\n      dup8\n        /* \"#utility.yul\":7013:7019   */\n      dup3\n        /* \"#utility.yul\":7002:7011   */\n      dup9\n        /* \"#utility.yul\":6998:7020   */\n      add\n        /* \"#utility.yul\":6942:7030   */\n      tag_352\n      jump\t// in\n    tag_390:\n        /* \"#utility.yul\":6932:7030   */\n      swap3\n      pop\n        /* \"#utility.yul\":6727:7040   */\n      pop\n        /* \"#utility.yul\":7107:7109   */\n      0x60\n        /* \"#utility.yul\":7096:7105   */\n      dup6\n        /* \"#utility.yul\":7092:7110   */\n      add\n        /* \"#utility.yul\":7079:7111   */\n      calldataload\n        /* \"#utility.yul\":7138:7156   */\n      0xffffffffffffffff\n        /* \"#utility.yul\":7130:7136   */\n      dup2\n        /* \"#utility.yul\":7127:7157   */\n      gt\n        /* \"#utility.yul\":7124:7241   */\n      iszero\n      tag_391\n      jumpi\n        /* \"#utility.yul\":7160:7239   */\n      tag_392\n      tag_389\n      jump\t// in\n    tag_392:\n        /* \"#utility.yul\":7124:7241   */\n    tag_391:\n        /* \"#utility.yul\":7265:7343   */\n      tag_393\n        /* \"#utility.yul\":7335:7342   */\n      dup8\n        /* \"#utility.yul\":7326:7332   */\n      dup3\n        /* \"#utility.yul\":7315:7324   */\n      dup9\n        /* \"#utility.yul\":7311:7333   */\n      add\n        /* \"#utility.yul\":7265:7343   */\n      tag_357\n      jump\t// in\n    tag_393:\n        /* \"#utility.yul\":7255:7343   */\n      swap2\n      pop\n        /* \"#utility.yul\":7050:7353   */\n      pop\n        /* \"#utility.yul\":6155:7360   */\n      swap3\n      swap6\n      swap2\n      swap5\n      pop\n      swap3\n      pop\n      jump\t// out\n        /* \"#utility.yul\":7366:9355   */\n    tag_34:\n        /* \"#utility.yul\":7560:7566   */\n      0x00\n        /* \"#utility.yul\":7568:7574   */\n      dup1\n        /* \"#utility.yul\":7576:7582   */\n      0x00\n        /* \"#utility.yul\":7584:7590   */\n      dup1\n        /* \"#utility.yul\":7592:7598   */\n      0x00\n        /* \"#utility.yul\":7600:7606   */\n      dup1\n        /* \"#utility.yul\":7608:7614   */\n      0x00\n        /* \"#utility.yul\":7616:7622   */\n      dup1\n        /* \"#utility.yul\":7624:7630   */\n      0x00\n        /* \"#utility.yul\":7673:7676   */\n      0x0100\n        /* \"#utility.yul\":7661:7670   */\n      dup11\n        /* \"#utility.yul\":7652:7659   */\n      dup13\n        /* \"#utility.yul\":7648:7671   */\n      sub\n        /* \"#utility.yul\":7644:7677   */\n      slt\n        /* \"#utility.yul\":7641:7761   */\n      iszero\n      tag_395\n      jumpi\n        /* \"#utility.yul\":7680:7759   */\n      tag_396\n      tag_376\n      jump\t// in\n    tag_396:\n        /* \"#utility.yul\":7641:7761   */\n    tag_395:\n        /* \"#utility.yul\":7800:7801   */\n      0x00\n        /* \"#utility.yul\":7825:7876   */\n      tag_397\n        /* \"#utility.yul\":7868:7875   */\n      dup13\n        /* \"#utility.yul\":7859:7865   */\n      dup3\n        /* \"#utility.yul\":7848:7857   */\n      dup14\n        /* \"#utility.yul\":7844:7866   */\n      add\n        /* \"#utility.yul\":7825:7876   */\n      tag_369\n      jump\t// in\n    tag_397:\n        /* \"#utility.yul\":7815:7876   */\n      swap10\n      pop\n        /* \"#utility.yul\":7771:7886   */\n      pop\n        /* \"#utility.yul\":7953:7955   */\n      0x20\n        /* \"#utility.yul\":7942:7951   */\n      dup11\n        /* \"#utility.yul\":7938:7956   */\n      add\n        /* \"#utility.yul\":7925:7957   */\n      calldataload\n        /* \"#utility.yul\":7984:8002   */\n      0xffffffffffffffff\n        /* \"#utility.yul\":7976:7982   */\n      dup2\n        /* \"#utility.yul\":7973:8003   */\n      gt\n        /* \"#utility.yul\":7970:8087   */\n      iszero\n      tag_398\n      jumpi\n        /* \"#utility.yul\":8006:8085   */\n      tag_399\n      tag_389\n      jump\t// in\n    tag_399:\n        /* \"#utility.yul\":7970:8087   */\n    tag_398:\n        /* \"#utility.yul\":8111:8189   */\n      tag_400\n        /* \"#utility.yul\":8181:8188   */\n      dup13\n        /* \"#utility.yul\":8172:8178   */\n      dup3\n        /* \"#utility.yul\":8161:8170   */\n      dup14\n        /* \"#utility.yul\":8157:8179   */\n      add\n        /* \"#utility.yul\":8111:8189   */\n      tag_338\n      jump\t// in\n    tag_400:\n        /* \"#utility.yul\":8101:8189   */\n      swap9\n      pop\n        /* \"#utility.yul\":7896:8199   */\n      pop\n        /* \"#utility.yul\":8238:8240   */\n      0x40\n        /* \"#utility.yul\":8264:8317   */\n      tag_401\n        /* \"#utility.yul\":8309:8316   */\n      dup13\n        /* \"#utility.yul\":8300:8306   */\n      dup3\n        /* \"#utility.yul\":8289:8298   */\n      dup14\n        /* \"#utility.yul\":8285:8307   */\n      add\n        /* \"#utility.yul\":8264:8317   */\n      tag_297\n      jump\t// in\n    tag_401:\n        /* \"#utility.yul\":8254:8317   */\n      swap8\n      pop\n        /* \"#utility.yul\":8209:8327   */\n      pop\n        /* \"#utility.yul\":8366:8368   */\n      0x60\n        /* \"#utility.yul\":8392:8445   */\n      tag_402\n        /* \"#utility.yul\":8437:8444   */\n      dup13\n        /* \"#utility.yul\":8428:8434   */\n      dup3\n        /* \"#utility.yul\":8417:8426   */\n      dup14\n        /* \"#utility.yul\":8413:8435   */\n      add\n        /* \"#utility.yul\":8392:8445   */\n      tag_324\n      jump\t// in\n    tag_402:\n        /* \"#utility.yul\":8382:8445   */\n      swap7\n      pop\n        /* \"#utility.yul\":8337:8455   */\n      pop\n        /* \"#utility.yul\":8494:8497   */\n      0x80\n        /* \"#utility.yul\":8521:8574   */\n      tag_403\n        /* \"#utility.yul\":8566:8573   */\n      dup13\n        /* \"#utility.yul\":8557:8563   */\n      dup3\n        /* \"#utility.yul\":8546:8555   */\n      dup14\n        /* \"#utility.yul\":8542:8564   */\n      add\n        /* \"#utility.yul\":8521:8574   */\n      tag_324\n      jump\t// in\n    tag_403:\n        /* \"#utility.yul\":8511:8574   */\n      swap6\n      pop\n        /* \"#utility.yul\":8465:8584   */\n      pop\n        /* \"#utility.yul\":8651:8654   */\n      0xa0\n        /* \"#utility.yul\":8640:8649   */\n      dup11\n        /* \"#utility.yul\":8636:8655   */\n      add\n        /* \"#utility.yul\":8623:8656   */\n      calldataload\n        /* \"#utility.yul\":8683:8701   */\n      0xffffffffffffffff\n        /* \"#utility.yul\":8675:8681   */\n      dup2\n        /* \"#utility.yul\":8672:8702   */\n      gt\n        /* \"#utility.yul\":8669:8786   */\n      iszero\n      tag_404\n      jumpi\n        /* \"#utility.yul\":8705:8784   */\n      tag_405\n      tag_389\n      jump\t// in\n    tag_405:\n        /* \"#utility.yul\":8669:8786   */\n    tag_404:\n        /* \"#utility.yul\":8810:8873   */\n      tag_406\n        /* \"#utility.yul\":8865:8872   */\n      dup13\n        /* \"#utility.yul\":8856:8862   */\n      dup3\n        /* \"#utility.yul\":8845:8854   */\n      dup14\n        /* \"#utility.yul\":8841:8863   */\n      add\n        /* \"#utility.yul\":8810:8873   */\n      tag_312\n      jump\t// in\n    tag_406:\n        /* \"#utility.yul\":8800:8873   */\n      swap5\n      pop\n        /* \"#utility.yul\":8594:8883   */\n      pop\n        /* \"#utility.yul\":8950:8953   */\n      0xc0\n        /* \"#utility.yul\":8939:8948   */\n      dup11\n        /* \"#utility.yul\":8935:8954   */\n      add\n        /* \"#utility.yul\":8922:8955   */\n      calldataload\n        /* \"#utility.yul\":8982:9000   */\n      0xffffffffffffffff\n        /* \"#utility.yul\":8974:8980   */\n      dup2\n        /* \"#utility.yul\":8971:9001   */\n      gt\n        /* \"#utility.yul\":8968:9085   */\n      iszero\n      tag_407\n      jumpi\n        /* \"#utility.yul\":9004:9083   */\n      tag_408\n      tag_389\n      jump\t// in\n    tag_408:\n        /* \"#utility.yul\":8968:9085   */\n    tag_407:\n        /* \"#utility.yul\":9117:9209   */\n      tag_409\n        /* \"#utility.yul\":9201:9208   */\n      dup13\n        /* \"#utility.yul\":9192:9198   */\n      dup3\n        /* \"#utility.yul\":9181:9190   */\n      dup14\n        /* \"#utility.yul\":9177:9199   */\n      add\n        /* \"#utility.yul\":9117:9209   */\n      tag_343\n      jump\t// in\n    tag_409:\n        /* \"#utility.yul\":9099:9209   */\n      swap4\n      pop\n      swap4\n      pop\n        /* \"#utility.yul\":8893:9219   */\n      pop\n        /* \"#utility.yul\":9258:9261   */\n      0xe0\n        /* \"#utility.yul\":9285:9338   */\n      tag_410\n        /* \"#utility.yul\":9330:9337   */\n      dup13\n        /* \"#utility.yul\":9321:9327   */\n      dup3\n        /* \"#utility.yul\":9310:9319   */\n      dup14\n        /* \"#utility.yul\":9306:9328   */\n      add\n        /* \"#utility.yul\":9285:9338   */\n      tag_324\n      jump\t// in\n    tag_410:\n        /* \"#utility.yul\":9275:9338   */\n      swap2\n      pop\n        /* \"#utility.yul\":9229:9348   */\n      pop\n        /* \"#utility.yul\":7366:9355   */\n      swap3\n      swap6\n      swap9\n      pop\n      swap3\n      swap6\n      swap9\n      pop\n      swap3\n      swap6\n      swap9\n      jump\t// out\n        /* \"#utility.yul\":9361:9540   */\n    tag_411:\n        /* \"#utility.yul\":9430:9440   */\n      0x00\n        /* \"#utility.yul\":9451:9497   */\n      tag_413\n        /* \"#utility.yul\":9493:9496   */\n      dup4\n        /* \"#utility.yul\":9485:9491   */\n      dup4\n        /* \"#utility.yul\":9451:9497   */\n      tag_414\n      jump\t// in\n    tag_413:\n        /* \"#utility.yul\":9529:9533   */\n      0x20\n        /* \"#utility.yul\":9524:9527   */\n      dup4\n        /* \"#utility.yul\":9520:9534   */\n      add\n        /* \"#utility.yul\":9506:9534   */\n      swap1\n      pop\n        /* \"#utility.yul\":9361:9540   */\n      swap3\n      swap2\n      pop\n      pop\n      jump\t// out\n        /* \"#utility.yul\":9546:9762   */\n    tag_415:\n        /* \"#utility.yul\":9645:9655   */\n      0x00\n        /* \"#utility.yul\":9680:9756   */\n      tag_417\n        /* \"#utility.yul\":9752:9755   */\n      dup5\n        /* \"#utility.yul\":9744:9750   */\n      dup5\n        /* \"#utility.yul\":9736:9742   */\n      dup5\n        /* \"#utility.yul\":9680:9756   */\n      tag_418\n      jump\t// in\n    tag_417:\n        /* \"#utility.yul\":9666:9756   */\n      swap1\n      pop\n        /* \"#utility.yul\":9546:9762   */\n      swap4\n      swap3\n      pop\n      pop\n      pop\n      jump\t// out\n        /* \"#utility.yul\":9768:9876   */\n    tag_414:\n        /* \"#utility.yul\":9845:9869   */\n      tag_420\n        /* \"#utility.yul\":9863:9868   */\n      dup2\n        /* \"#utility.yul\":9845:9869   */\n      tag_421\n      jump\t// in\n    tag_420:\n        /* \"#utility.yul\":9840:9843   */\n      dup3\n        /* \"#utility.yul\":9833:9870   */\n      mstore\n        /* \"#utility.yul\":9768:9876   */\n      pop\n      pop\n      jump\t// out\n        /* \"#utility.yul\":9882:10000   */\n    tag_422:\n        /* \"#utility.yul\":9969:9993   */\n      tag_424\n        /* \"#utility.yul\":9987:9992   */\n      dup2\n        /* \"#utility.yul\":9969:9993   */\n      tag_421\n      jump\t// in\n    tag_424:\n        /* \"#utility.yul\":9964:9967   */\n      dup3\n        /* \"#utility.yul\":9957:9994   */\n      mstore\n        /* \"#utility.yul\":9882:10000   */\n      pop\n      pop\n      jump\t// out\n        /* \"#utility.yul\":10036:10768   */\n    tag_425:\n        /* \"#utility.yul\":10155:10158   */\n      0x00\n        /* \"#utility.yul\":10184:10238   */\n      tag_427\n        /* \"#utility.yul\":10232:10237   */\n      dup3\n        /* \"#utility.yul\":10184:10238   */\n      tag_428\n      jump\t// in\n    tag_427:\n        /* \"#utility.yul\":10254:10340   */\n      tag_429\n        /* \"#utility.yul\":10333:10339   */\n      dup2\n        /* \"#utility.yul\":10328:10331   */\n      dup6\n        /* \"#utility.yul\":10254:10340   */\n      tag_430\n      jump\t// in\n    tag_429:\n        /* \"#utility.yul\":10247:10340   */\n      swap4\n      pop\n        /* \"#utility.yul\":10364:10420   */\n      tag_431\n        /* \"#utility.yul\":10414:10419   */\n      dup4\n        /* \"#utility.yul\":10364:10420   */\n      tag_432\n      jump\t// in\n    tag_431:\n        /* \"#utility.yul\":10443:10450   */\n      dup1\n        /* \"#utility.yul\":10474:10475   */\n      0x00\n        /* \"#utility.yul\":10459:10743   */\n    tag_433:\n        /* \"#utility.yul\":10484:10490   */\n      dup4\n        /* \"#utility.yul\":10481:10482   */\n      dup2\n        /* \"#utility.yul\":10478:10491   */\n      lt\n        /* \"#utility.yul\":10459:10743   */\n      iszero\n      tag_435\n      jumpi\n        /* \"#utility.yul\":10560:10566   */\n      dup2\n        /* \"#utility.yul\":10554:10567   */\n      mload\n        /* \"#utility.yul\":10587:10650   */\n      tag_436\n        /* \"#utility.yul\":10646:10649   */\n      dup9\n        /* \"#utility.yul\":10631:10644   */\n      dup3\n        /* \"#utility.yul\":10587:10650   */\n      tag_411\n      jump\t// in\n    tag_436:\n        /* \"#utility.yul\":10580:10650   */\n      swap8\n      pop\n        /* \"#utility.yul\":10673:10733   */\n      tag_437\n        /* \"#utility.yul\":10726:10732   */\n      dup4\n        /* \"#utility.yul\":10673:10733   */\n      tag_438\n      jump\t// in\n    tag_437:\n        /* \"#utility.yul\":10663:10733   */\n      swap3\n      pop\n        /* \"#utility.yul\":10519:10743   */\n      pop\n        /* \"#utility.yul\":10506:10507   */\n      0x01\n        /* \"#utility.yul\":10503:10504   */\n      dup2\n        /* \"#utility.yul\":10499:10508   */\n      add\n        /* \"#utility.yul\":10494:10508   */\n      swap1\n      pop\n        /* \"#utility.yul\":10459:10743   */\n      jump(tag_433)\n    tag_435:\n        /* \"#utility.yul\":10463:10477   */\n      pop\n        /* \"#utility.yul\":10759:10762   */\n      dup6\n        /* \"#utility.yul\":10752:10762   */\n      swap4\n      pop\n        /* \"#utility.yul\":10160:10768   */\n      pop\n      pop\n      pop\n        /* \"#utility.yul\":10036:10768   */\n      swap3\n      swap2\n      pop\n      pop\n      jump\t// out\n        /* \"#utility.yul\":10802:11800   */\n    tag_439:\n        /* \"#utility.yul\":10953:10956   */\n      0x00\n        /* \"#utility.yul\":10976:11072   */\n      tag_441\n        /* \"#utility.yul\":11065:11071   */\n      dup4\n        /* \"#utility.yul\":11060:11063   */\n      dup6\n        /* \"#utility.yul\":10976:11072   */\n      tag_442\n      jump\t// in\n    tag_441:\n        /* \"#utility.yul\":10969:11072   */\n      swap4\n      pop\n        /* \"#utility.yul\":11098:11101   */\n      dup4\n        /* \"#utility.yul\":11143:11147   */\n      0x20\n        /* \"#utility.yul\":11135:11141   */\n      dup5\n        /* \"#utility.yul\":11131:11148   */\n      mul\n        /* \"#utility.yul\":11126:11129   */\n      dup6\n        /* \"#utility.yul\":11122:11149   */\n      add\n        /* \"#utility.yul\":11173:11243   */\n      tag_443\n        /* \"#utility.yul\":11237:11242   */\n      dup5\n        /* \"#utility.yul\":11173:11243   */\n      tag_444\n      jump\t// in\n    tag_443:\n        /* \"#utility.yul\":11266:11273   */\n      dup1\n        /* \"#utility.yul\":11297:11298   */\n      0x00\n        /* \"#utility.yul\":11282:11755   */\n    tag_445:\n        /* \"#utility.yul\":11307:11313   */\n      dup8\n        /* \"#utility.yul\":11304:11305   */\n      dup2\n        /* \"#utility.yul\":11301:11314   */\n      lt\n        /* \"#utility.yul\":11282:11755   */\n      iszero\n      tag_447\n      jumpi\n        /* \"#utility.yul\":11378:11387   */\n      dup5\n        /* \"#utility.yul\":11372:11376   */\n      dup5\n        /* \"#utility.yul\":11368:11388   */\n      sub\n        /* \"#utility.yul\":11363:11366   */\n      dup10\n        /* \"#utility.yul\":11356:11389   */\n      mstore\n        /* \"#utility.yul\":11438:11492   */\n      tag_448\n        /* \"#utility.yul\":11485:11491   */\n      dup3\n        /* \"#utility.yul\":11476:11483   */\n      dup5\n        /* \"#utility.yul\":11438:11492   */\n      tag_449\n      jump\t// in\n    tag_448:\n        /* \"#utility.yul\":11513:11614   */\n      tag_450\n        /* \"#utility.yul\":11609:11613   */\n      dup7\n        /* \"#utility.yul\":11594:11607   */\n      dup3\n        /* \"#utility.yul\":11579:11592   */\n      dup5\n        /* \"#utility.yul\":11513:11614   */\n      tag_415\n      jump\t// in\n    tag_450:\n        /* \"#utility.yul\":11505:11614   */\n      swap6\n      pop\n        /* \"#utility.yul\":11637:11711   */\n      tag_451\n        /* \"#utility.yul\":11704:11710   */\n      dup5\n        /* \"#utility.yul\":11637:11711   */\n      tag_452\n      jump\t// in\n    tag_451:\n        /* \"#utility.yul\":11627:11711   */\n      swap4\n      pop\n        /* \"#utility.yul\":11740:11744   */\n      0x20\n        /* \"#utility.yul\":11735:11738   */\n      dup12\n        /* \"#utility.yul\":11731:11745   */\n      add\n        /* \"#utility.yul\":11724:11745   */\n      swap11\n      pop\n        /* \"#utility.yul\":11342:11755   */\n      pop\n      pop\n        /* \"#utility.yul\":11329:11330   */\n      0x01\n        /* \"#utility.yul\":11326:11327   */\n      dup2\n        /* \"#utility.yul\":11322:11331   */\n      add\n        /* \"#utility.yul\":11317:11331   */\n      swap1\n      pop\n        /* \"#utility.yul\":11282:11755   */\n      jump(tag_445)\n    tag_447:\n        /* \"#utility.yul\":11286:11300   */\n      pop\n        /* \"#utility.yul\":11771:11775   */\n      dup3\n        /* \"#utility.yul\":11764:11775   */\n      swap8\n      pop\n        /* \"#utility.yul\":11791:11794   */\n      dup8\n        /* \"#utility.yul\":11784:11794   */\n      swap5\n      pop\n        /* \"#utility.yul\":10958:11800   */\n      pop\n      pop\n      pop\n      pop\n        /* \"#utility.yul\":10802:11800   */\n      swap4\n      swap3\n      pop\n      pop\n      pop\n      jump\t// out\n        /* \"#utility.yul\":11806:11915   */\n    tag_453:\n        /* \"#utility.yul\":11887:11908   */\n      tag_455\n        /* \"#utility.yul\":11902:11907   */\n      dup2\n        /* \"#utility.yul\":11887:11908   */\n      tag_456\n      jump\t// in\n    tag_455:\n        /* \"#utility.yul\":11882:11885   */\n      dup3\n        /* \"#utility.yul\":11875:11909   */\n      mstore\n        /* \"#utility.yul\":11806:11915   */\n      pop\n      pop\n      jump\t// out\n        /* \"#utility.yul\":11945:12229   */\n    tag_418:\n        /* \"#utility.yul\":12033:12036   */\n      0x00\n        /* \"#utility.yul\":12054:12115   */\n      tag_458\n        /* \"#utility.yul\":12108:12114   */\n      dup4\n        /* \"#utility.yul\":12103:12106   */\n      dup6\n        /* \"#utility.yul\":12054:12115   */\n      tag_459\n      jump\t// in\n    tag_458:\n        /* \"#utility.yul\":12047:12115   */\n      swap4\n      pop\n        /* \"#utility.yul\":12125:12168   */\n      tag_460\n        /* \"#utility.yul\":12161:12167   */\n      dup4\n        /* \"#utility.yul\":12156:12159   */\n      dup6\n        /* \"#utility.yul\":12149:12154   */\n      dup5\n        /* \"#utility.yul\":12125:12168   */\n      tag_334\n      jump\t// in\n    tag_460:\n        /* \"#utility.yul\":12193:12222   */\n      tag_461\n        /* \"#utility.yul\":12215:12221   */\n      dup4\n        /* \"#utility.yul\":12193:12222   */\n      tag_462\n      jump\t// in\n    tag_461:\n        /* \"#utility.yul\":12188:12191   */\n      dup5\n        /* \"#utility.yul\":12184:12223   */\n      add\n        /* \"#utility.yul\":12177:12223   */\n      swap1\n      pop\n        /* \"#utility.yul\":11945:12229   */\n      swap4\n      swap3\n      pop\n      pop\n      pop\n      jump\t// out\n        /* \"#utility.yul\":12259:12576   */\n    tag_463:\n        /* \"#utility.yul\":12375:12378   */\n      0x00\n        /* \"#utility.yul\":12396:12485   */\n      tag_465\n        /* \"#utility.yul\":12478:12484   */\n      dup4\n        /* \"#utility.yul\":12473:12476   */\n      dup6\n        /* \"#utility.yul\":12396:12485   */\n      tag_466\n      jump\t// in\n    tag_465:\n        /* \"#utility.yul\":12389:12485   */\n      swap4\n      pop\n        /* \"#utility.yul\":12495:12538   */\n      tag_467\n        /* \"#utility.yul\":12531:12537   */\n      dup4\n        /* \"#utility.yul\":12526:12529   */\n      dup6\n        /* \"#utility.yul\":12519:12524   */\n      dup5\n        /* \"#utility.yul\":12495:12538   */\n      tag_334\n      jump\t// in\n    tag_467:\n        /* \"#utility.yul\":12563:12569   */\n      dup3\n        /* \"#utility.yul\":12558:12561   */\n      dup5\n        /* \"#utility.yul\":12554:12570   */\n      add\n        /* \"#utility.yul\":12547:12570   */\n      swap1\n      pop\n        /* \"#utility.yul\":12259:12576   */\n      swap4\n      swap3\n      pop\n      pop\n      pop\n      jump\t// out\n        /* \"#utility.yul\":12582:12946   */\n    tag_468:\n        /* \"#utility.yul\":12670:12673   */\n      0x00\n        /* \"#utility.yul\":12698:12737   */\n      tag_470\n        /* \"#utility.yul\":12731:12736   */\n      dup3\n        /* \"#utility.yul\":12698:12737   */\n      tag_471\n      jump\t// in\n    tag_470:\n        /* \"#utility.yul\":12753:12824   */\n      tag_472\n        /* \"#utility.yul\":12817:12823   */\n      dup2\n        /* \"#utility.yul\":12812:12815   */\n      dup6\n        /* \"#utility.yul\":12753:12824   */\n      tag_473\n      jump\t// in\n    tag_472:\n        /* \"#utility.yul\":12746:12824   */\n      swap4\n      pop\n        /* \"#utility.yul\":12833:12885   */\n      tag_474\n        /* \"#utility.yul\":12878:12884   */\n      dup2\n        /* \"#utility.yul\":12873:12876   */\n      dup6\n        /* \"#utility.yul\":12866:12870   */\n      0x20\n        /* \"#utility.yul\":12859:12864   */\n      dup7\n        /* \"#utility.yul\":12855:12871   */\n      add\n        /* \"#utility.yul\":12833:12885   */\n      tag_475\n      jump\t// in\n    tag_474:\n        /* \"#utility.yul\":12910:12939   */\n      tag_476\n        /* \"#utility.yul\":12932:12938   */\n      dup2\n        /* \"#utility.yul\":12910:12939   */\n      tag_462\n      jump\t// in\n    tag_476:\n        /* \"#utility.yul\":12905:12908   */\n      dup5\n        /* \"#utility.yul\":12901:12940   */\n      add\n        /* \"#utility.yul\":12894:12940   */\n      swap2\n      pop\n        /* \"#utility.yul\":12674:12946   */\n      pop\n        /* \"#utility.yul\":12582:12946   */\n      swap3\n      swap2\n      pop\n      pop\n      jump\t// out\n        /* \"#utility.yul\":12952:13329   */\n    tag_477:\n        /* \"#utility.yul\":13058:13061   */\n      0x00\n        /* \"#utility.yul\":13086:13125   */\n      tag_479\n        /* \"#utility.yul\":13119:13124   */\n      dup3\n        /* \"#utility.yul\":13086:13125   */\n      tag_471\n      jump\t// in\n    tag_479:\n        /* \"#utility.yul\":13141:13230   */\n      tag_480\n        /* \"#utility.yul\":13223:13229   */\n      dup2\n        /* \"#utility.yul\":13218:13221   */\n      dup6\n        /* \"#utility.yul\":13141:13230   */\n      tag_466\n      jump\t// in\n    tag_480:\n        /* \"#utility.yul\":13134:13230   */\n      swap4\n      pop\n        /* \"#utility.yul\":13239:13291   */\n      tag_481\n        /* \"#utility.yul\":13284:13290   */\n      dup2\n        /* \"#utility.yul\":13279:13282   */\n      dup6\n        /* \"#utility.yul\":13272:13276   */\n      0x20\n        /* \"#utility.yul\":13265:13270   */\n      dup7\n        /* \"#utility.yul\":13261:13277   */\n      add\n        /* \"#utility.yul\":13239:13291   */\n      tag_475\n      jump\t// in\n    tag_481:\n        /* \"#utility.yul\":13316:13322   */\n      dup1\n        /* \"#utility.yul\":13311:13314   */\n      dup5\n        /* \"#utility.yul\":13307:13323   */\n      add\n        /* \"#utility.yul\":13300:13323   */\n      swap2\n      pop\n        /* \"#utility.yul\":13062:13329   */\n      pop\n        /* \"#utility.yul\":12952:13329   */\n      swap3\n      swap2\n      pop\n      pop\n      jump\t// out\n        /* \"#utility.yul\":13359:14204   */\n    tag_482:\n        /* \"#utility.yul\":13462:13465   */\n      0x00\n        /* \"#utility.yul\":13499:13504   */\n      dup2\n        /* \"#utility.yul\":13493:13505   */\n      sload\n        /* \"#utility.yul\":13528:13564   */\n      tag_484\n        /* \"#utility.yul\":13554:13563   */\n      dup2\n        /* \"#utility.yul\":13528:13564   */\n      tag_59\n      jump\t// in\n    tag_484:\n        /* \"#utility.yul\":13580:13669   */\n      tag_485\n        /* \"#utility.yul\":13662:13668   */\n      dup2\n        /* \"#utility.yul\":13657:13660   */\n      dup7\n        /* \"#utility.yul\":13580:13669   */\n      tag_466\n      jump\t// in\n    tag_485:\n        /* \"#utility.yul\":13573:13669   */\n      swap5\n      pop\n        /* \"#utility.yul\":13700:13701   */\n      0x01\n        /* \"#utility.yul\":13689:13698   */\n      dup3\n        /* \"#utility.yul\":13685:13702   */\n      and\n        /* \"#utility.yul\":13716:13717   */\n      0x00\n        /* \"#utility.yul\":13711:13848   */\n      dup2\n      eq\n      tag_487\n      jumpi\n        /* \"#utility.yul\":13862:13863   */\n      0x01\n        /* \"#utility.yul\":13857:14198   */\n      dup2\n      eq\n      tag_488\n      jumpi\n        /* \"#utility.yul\":13678:14198   */\n      jump(tag_486)\n        /* \"#utility.yul\":13711:13848   */\n    tag_487:\n        /* \"#utility.yul\":13795:13799   */\n      0xff\n        /* \"#utility.yul\":13791:13800   */\n      not\n        /* \"#utility.yul\":13780:13789   */\n      dup4\n        /* \"#utility.yul\":13776:13801   */\n      and\n        /* \"#utility.yul\":13771:13774   */\n      dup7\n        /* \"#utility.yul\":13764:13802   */\n      mstore\n        /* \"#utility.yul\":13831:13837   */\n      dup2\n        /* \"#utility.yul\":13826:13829   */\n      dup7\n        /* \"#utility.yul\":13822:13838   */\n      add\n        /* \"#utility.yul\":13815:13838   */\n      swap4\n      pop\n        /* \"#utility.yul\":13711:13848   */\n      jump(tag_486)\n        /* \"#utility.yul\":13857:14198   */\n    tag_488:\n        /* \"#utility.yul\":13924:13962   */\n      tag_489\n        /* \"#utility.yul\":13956:13961   */\n      dup6\n        /* \"#utility.yul\":13924:13962   */\n      tag_490\n      jump\t// in\n    tag_489:\n        /* \"#utility.yul\":13984:13985   */\n      0x00\n        /* \"#utility.yul\":13998:14152   */\n    tag_491:\n        /* \"#utility.yul\":14012:14018   */\n      dup4\n        /* \"#utility.yul\":14009:14010   */\n      dup2\n        /* \"#utility.yul\":14006:14019   */\n      lt\n        /* \"#utility.yul\":13998:14152   */\n      iszero\n      tag_493\n      jumpi\n        /* \"#utility.yul\":14086:14093   */\n      dup2\n        /* \"#utility.yul\":14080:14094   */\n      sload\n        /* \"#utility.yul\":14076:14077   */\n      dup2\n        /* \"#utility.yul\":14071:14074   */\n      dup10\n        /* \"#utility.yul\":14067:14078   */\n      add\n        /* \"#utility.yul\":14060:14095   */\n      mstore\n        /* \"#utility.yul\":14136:14137   */\n      0x01\n        /* \"#utility.yul\":14127:14134   */\n      dup3\n        /* \"#utility.yul\":14123:14138   */\n      add\n        /* \"#utility.yul\":14112:14138   */\n      swap2\n      pop\n        /* \"#utility.yul\":14034:14038   */\n      0x20\n        /* \"#utility.yul\":14031:14032   */\n      dup2\n        /* \"#utility.yul\":14027:14039   */\n      add\n        /* \"#utility.yul\":14022:14039   */\n      swap1\n      pop\n        /* \"#utility.yul\":13998:14152   */\n      jump(tag_491)\n    tag_493:\n        /* \"#utility.yul\":14181:14187   */\n      dup4\n        /* \"#utility.yul\":14176:14179   */\n      dup9\n        /* \"#utility.yul\":14172:14188   */\n      add\n        /* \"#utility.yul\":14165:14188   */\n      swap6\n      pop\n        /* \"#utility.yul\":13864:14198   */\n      pop\n      pop\n        /* \"#utility.yul\":13678:14198   */\n    tag_486:\n      pop\n        /* \"#utility.yul\":13466:14204   */\n      pop\n      pop\n        /* \"#utility.yul\":13359:14204   */\n      swap3\n      swap2\n      pop\n      pop\n      jump\t// out\n        /* \"#utility.yul\":14210:14576   */\n    tag_494:\n        /* \"#utility.yul\":14352:14355   */\n      0x00\n        /* \"#utility.yul\":14373:14440   */\n      tag_496\n        /* \"#utility.yul\":14437:14439   */\n      0x12\n        /* \"#utility.yul\":14432:14435   */\n      dup4\n        /* \"#utility.yul\":14373:14440   */\n      tag_473\n      jump\t// in\n    tag_496:\n        /* \"#utility.yul\":14366:14440   */\n      swap2\n      pop\n        /* \"#utility.yul\":14449:14542   */\n      tag_497\n        /* \"#utility.yul\":14538:14541   */\n      dup3\n        /* \"#utility.yul\":14449:14542   */\n      tag_498\n      jump\t// in\n    tag_497:\n        /* \"#utility.yul\":14567:14569   */\n      0x20\n        /* \"#utility.yul\":14562:14565   */\n      dup3\n        /* \"#utility.yul\":14558:14570   */\n      add\n        /* \"#utility.yul\":14551:14570   */\n      swap1\n      pop\n        /* \"#utility.yul\":14210:14576   */\n      swap2\n      swap1\n      pop\n      jump\t// out\n        /* \"#utility.yul\":14582:14948   */\n    tag_499:\n        /* \"#utility.yul\":14724:14727   */\n      0x00\n        /* \"#utility.yul\":14745:14812   */\n      tag_501\n        /* \"#utility.yul\":14809:14811   */\n      0x2c\n        /* \"#utility.yul\":14804:14807   */\n      dup4\n        /* \"#utility.yul\":14745:14812   */\n      tag_473\n      jump\t// in\n    tag_501:\n        /* \"#utility.yul\":14738:14812   */\n      swap2\n      pop\n        /* \"#utility.yul\":14821:14914   */\n      tag_502\n        /* \"#utility.yul\":14910:14913   */\n      dup3\n        /* \"#utility.yul\":14821:14914   */\n      tag_503\n      jump\t// in\n    tag_502:\n        /* \"#utility.yul\":14939:14941   */\n      0x40\n        /* \"#utility.yul\":14934:14937   */\n      dup3\n        /* \"#utility.yul\":14930:14942   */\n      add\n        /* \"#utility.yul\":14923:14942   */\n      swap1\n      pop\n        /* \"#utility.yul\":14582:14948   */\n      swap2\n      swap1\n      pop\n      jump\t// out\n        /* \"#utility.yul\":14954:15320   */\n    tag_504:\n        /* \"#utility.yul\":15096:15099   */\n      0x00\n        /* \"#utility.yul\":15117:15184   */\n      tag_506\n        /* \"#utility.yul\":15181:15183   */\n      0x0d\n        /* \"#utility.yul\":15176:15179   */\n      dup4\n        /* \"#utility.yul\":15117:15184   */\n      tag_473\n      jump\t// in\n    tag_506:\n        /* \"#utility.yul\":15110:15184   */\n      swap2\n      pop\n        /* \"#utility.yul\":15193:15286   */\n      tag_507\n        /* \"#utility.yul\":15282:15285   */\n      dup3\n        /* \"#utility.yul\":15193:15286   */\n      tag_508\n      jump\t// in\n    tag_507:\n        /* \"#utility.yul\":15311:15313   */\n      0x20\n        /* \"#utility.yul\":15306:15309   */\n      dup3\n        /* \"#utility.yul\":15302:15314   */\n      add\n        /* \"#utility.yul\":15295:15314   */\n      swap1\n      pop\n        /* \"#utility.yul\":14954:15320   */\n      swap2\n      swap1\n      pop\n      jump\t// out\n        /* \"#utility.yul\":15326:15692   */\n    tag_509:\n        /* \"#utility.yul\":15468:15471   */\n      0x00\n        /* \"#utility.yul\":15489:15556   */\n      tag_511\n        /* \"#utility.yul\":15553:15555   */\n      0x1b\n        /* \"#utility.yul\":15548:15551   */\n      dup4\n        /* \"#utility.yul\":15489:15556   */\n      tag_473\n      jump\t// in\n    tag_511:\n        /* \"#utility.yul\":15482:15556   */\n      swap2\n      pop\n        /* \"#utility.yul\":15565:15658   */\n      tag_512\n        /* \"#utility.yul\":15654:15657   */\n      dup3\n        /* \"#utility.yul\":15565:15658   */\n      tag_513\n      jump\t// in\n    tag_512:\n        /* \"#utility.yul\":15683:15685   */\n      0x20\n        /* \"#utility.yul\":15678:15681   */\n      dup3\n        /* \"#utility.yul\":15674:15686   */\n      add\n        /* \"#utility.yul\":15667:15686   */\n      swap1\n      pop\n        /* \"#utility.yul\":15326:15692   */\n      swap2\n      swap1\n      pop\n      jump\t// out\n        /* \"#utility.yul\":15698:16064   */\n    tag_514:\n        /* \"#utility.yul\":15840:15843   */\n      0x00\n        /* \"#utility.yul\":15861:15928   */\n      tag_516\n        /* \"#utility.yul\":15925:15927   */\n      0x23\n        /* \"#utility.yul\":15920:15923   */\n      dup4\n        /* \"#utility.yul\":15861:15928   */\n      tag_473\n      jump\t// in\n    tag_516:\n        /* \"#utility.yul\":15854:15928   */\n      swap2\n      pop\n        /* \"#utility.yul\":15937:16030   */\n      tag_517\n        /* \"#utility.yul\":16026:16029   */\n      dup3\n        /* \"#utility.yul\":15937:16030   */\n      tag_518\n      jump\t// in\n    tag_517:\n        /* \"#utility.yul\":16055:16057   */\n      0x40\n        /* \"#utility.yul\":16050:16053   */\n      dup3\n        /* \"#utility.yul\":16046:16058   */\n      add\n        /* \"#utility.yul\":16039:16058   */\n      swap1\n      pop\n        /* \"#utility.yul\":15698:16064   */\n      swap2\n      swap1\n      pop\n      jump\t// out\n        /* \"#utility.yul\":16070:16436   */\n    tag_519:\n        /* \"#utility.yul\":16212:16215   */\n      0x00\n        /* \"#utility.yul\":16233:16300   */\n      tag_521\n        /* \"#utility.yul\":16297:16299   */\n      0x14\n        /* \"#utility.yul\":16292:16295   */\n      dup4\n        /* \"#utility.yul\":16233:16300   */\n      tag_473\n      jump\t// in\n    tag_521:\n        /* \"#utility.yul\":16226:16300   */\n      swap2\n      pop\n        /* \"#utility.yul\":16309:16402   */\n      tag_522\n        /* \"#utility.yul\":16398:16401   */\n      dup3\n        /* \"#utility.yul\":16309:16402   */\n      tag_523\n      jump\t// in\n    tag_522:\n        /* \"#utility.yul\":16427:16429   */\n      0x20\n        /* \"#utility.yul\":16422:16425   */\n      dup3\n        /* \"#utility.yul\":16418:16430   */\n      add\n        /* \"#utility.yul\":16411:16430   */\n      swap1\n      pop\n        /* \"#utility.yul\":16070:16436   */\n      swap2\n      swap1\n      pop\n      jump\t// out\n        /* \"#utility.yul\":16442:16808   */\n    tag_524:\n        /* \"#utility.yul\":16584:16587   */\n      0x00\n        /* \"#utility.yul\":16605:16672   */\n      tag_526\n        /* \"#utility.yul\":16669:16671   */\n      0x23\n        /* \"#utility.yul\":16664:16667   */\n      dup4\n        /* \"#utility.yul\":16605:16672   */\n      tag_473\n      jump\t// in\n    tag_526:\n        /* \"#utility.yul\":16598:16672   */\n      swap2\n      pop\n        /* \"#utility.yul\":16681:16774   */\n      tag_527\n        /* \"#utility.yul\":16770:16773   */\n      dup3\n        /* \"#utility.yul\":16681:16774   */\n      tag_528\n      jump\t// in\n    tag_527:\n        /* \"#utility.yul\":16799:16801   */\n      0x40\n        /* \"#utility.yul\":16794:16797   */\n      dup3\n        /* \"#utility.yul\":16790:16802   */\n      add\n        /* \"#utility.yul\":16783:16802   */\n      swap1\n      pop\n        /* \"#utility.yul\":16442:16808   */\n      swap2\n      swap1\n      pop\n      jump\t// out\n        /* \"#utility.yul\":16814:17180   */\n    tag_529:\n        /* \"#utility.yul\":16956:16959   */\n      0x00\n        /* \"#utility.yul\":16977:17044   */\n      tag_531\n        /* \"#utility.yul\":17041:17043   */\n      0x12\n        /* \"#utility.yul\":17036:17039   */\n      dup4\n        /* \"#utility.yul\":16977:17044   */\n      tag_473\n      jump\t// in\n    tag_531:\n        /* \"#utility.yul\":16970:17044   */\n      swap2\n      pop\n        /* \"#utility.yul\":17053:17146   */\n      tag_532\n        /* \"#utility.yul\":17142:17145   */\n      dup3\n        /* \"#utility.yul\":17053:17146   */\n      tag_533\n      jump\t// in\n    tag_532:\n        /* \"#utility.yul\":17171:17173   */\n      0x20\n        /* \"#utility.yul\":17166:17169   */\n      dup3\n        /* \"#utility.yul\":17162:17174   */\n      add\n        /* \"#utility.yul\":17155:17174   */\n      swap1\n      pop\n        /* \"#utility.yul\":16814:17180   */\n      swap2\n      swap1\n      pop\n      jump\t// out\n        /* \"#utility.yul\":17186:17552   */\n    tag_534:\n        /* \"#utility.yul\":17328:17331   */\n      0x00\n        /* \"#utility.yul\":17349:17416   */\n      tag_536\n        /* \"#utility.yul\":17413:17415   */\n      0x23\n        /* \"#utility.yul\":17408:17411   */\n      dup4\n        /* \"#utility.yul\":17349:17416   */\n      tag_473\n      jump\t// in\n    tag_536:\n        /* \"#utility.yul\":17342:17416   */\n      swap2\n      pop\n        /* \"#utility.yul\":17425:17518   */\n      tag_537\n        /* \"#utility.yul\":17514:17517   */\n      dup3\n        /* \"#utility.yul\":17425:17518   */\n      tag_538\n      jump\t// in\n    tag_537:\n        /* \"#utility.yul\":17543:17545   */\n      0x40\n        /* \"#utility.yul\":17538:17541   */\n      dup3\n        /* \"#utility.yul\":17534:17546   */\n      add\n        /* \"#utility.yul\":17527:17546   */\n      swap1\n      pop\n        /* \"#utility.yul\":17186:17552   */\n      swap2\n      swap1\n      pop\n      jump\t// out\n        /* \"#utility.yul\":17558:17924   */\n    tag_539:\n        /* \"#utility.yul\":17700:17703   */\n      0x00\n        /* \"#utility.yul\":17721:17788   */\n      tag_541\n        /* \"#utility.yul\":17785:17787   */\n      0x2a\n        /* \"#utility.yul\":17780:17783   */\n      dup4\n        /* \"#utility.yul\":17721:17788   */\n      tag_473\n      jump\t// in\n    tag_541:\n        /* \"#utility.yul\":17714:17788   */\n      swap2\n      pop\n        /* \"#utility.yul\":17797:17890   */\n      tag_542\n        /* \"#utility.yul\":17886:17889   */\n      dup3\n        /* \"#utility.yul\":17797:17890   */\n      tag_543\n      jump\t// in\n    tag_542:\n        /* \"#utility.yul\":17915:17917   */\n      0x40\n        /* \"#utility.yul\":17910:17913   */\n      dup3\n        /* \"#utility.yul\":17906:17918   */\n      add\n        /* \"#utility.yul\":17899:17918   */\n      swap1\n      pop\n        /* \"#utility.yul\":17558:17924   */\n      swap2\n      swap1\n      pop\n      jump\t// out\n        /* \"#utility.yul\":17930:18296   */\n    tag_544:\n        /* \"#utility.yul\":18072:18075   */\n      0x00\n        /* \"#utility.yul\":18093:18160   */\n      tag_546\n        /* \"#utility.yul\":18157:18159   */\n      0x24\n        /* \"#utility.yul\":18152:18155   */\n      dup4\n        /* \"#utility.yul\":18093:18160   */\n      tag_473\n      jump\t// in\n    tag_546:\n        /* \"#utility.yul\":18086:18160   */\n      swap2\n      pop\n        /* \"#utility.yul\":18169:18262   */\n      tag_547\n        /* \"#utility.yul\":18258:18261   */\n      dup3\n        /* \"#utility.yul\":18169:18262   */\n      tag_548\n      jump\t// in\n    tag_547:\n        /* \"#utility.yul\":18287:18289   */\n      0x40\n        /* \"#utility.yul\":18282:18285   */\n      dup3\n        /* \"#utility.yul\":18278:18290   */\n      add\n        /* \"#utility.yul\":18271:18290   */\n      swap1\n      pop\n        /* \"#utility.yul\":17930:18296   */\n      swap2\n      swap1\n      pop\n      jump\t// out\n        /* \"#utility.yul\":18302:18667   */\n    tag_549:\n        /* \"#utility.yul\":18444:18447   */\n      0x00\n        /* \"#utility.yul\":18465:18531   */\n      tag_551\n        /* \"#utility.yul\":18529:18530   */\n      0x04\n        /* \"#utility.yul\":18524:18527   */\n      dup4\n        /* \"#utility.yul\":18465:18531   */\n      tag_473\n      jump\t// in\n    tag_551:\n        /* \"#utility.yul\":18458:18531   */\n      swap2\n      pop\n        /* \"#utility.yul\":18540:18633   */\n      tag_552\n        /* \"#utility.yul\":18629:18632   */\n      dup3\n        /* \"#utility.yul\":18540:18633   */\n      tag_553\n      jump\t// in\n    tag_552:\n        /* \"#utility.yul\":18658:18660   */\n      0x20\n        /* \"#utility.yul\":18653:18656   */\n      dup3\n        /* \"#utility.yul\":18649:18661   */\n      add\n        /* \"#utility.yul\":18642:18661   */\n      swap1\n      pop\n        /* \"#utility.yul\":18302:18667   */\n      swap2\n      swap1\n      pop\n      jump\t// out\n        /* \"#utility.yul\":18673:19039   */\n    tag_554:\n        /* \"#utility.yul\":18815:18818   */\n      0x00\n        /* \"#utility.yul\":18836:18903   */\n      tag_556\n        /* \"#utility.yul\":18900:18902   */\n      0x1d\n        /* \"#utility.yul\":18895:18898   */\n      dup4\n        /* \"#utility.yul\":18836:18903   */\n      tag_473\n      jump\t// in\n    tag_556:\n        /* \"#utility.yul\":18829:18903   */\n      swap2\n      pop\n        /* \"#utility.yul\":18912:19005   */\n      tag_557\n        /* \"#utility.yul\":19001:19004   */\n      dup3\n        /* \"#utility.yul\":18912:19005   */\n      tag_558\n      jump\t// in\n    tag_557:\n        /* \"#utility.yul\":19030:19032   */\n      0x20\n        /* \"#utility.yul\":19025:19028   */\n      dup3\n        /* \"#utility.yul\":19021:19033   */\n      add\n        /* \"#utility.yul\":19014:19033   */\n      swap1\n      pop\n        /* \"#utility.yul\":18673:19039   */\n      swap2\n      swap1\n      pop\n      jump\t// out\n        /* \"#utility.yul\":19045:19410   */\n    tag_559:\n        /* \"#utility.yul\":19187:19190   */\n      0x00\n        /* \"#utility.yul\":19208:19274   */\n      tag_561\n        /* \"#utility.yul\":19272:19273   */\n      0x09\n        /* \"#utility.yul\":19267:19270   */\n      dup4\n        /* \"#utility.yul\":19208:19274   */\n      tag_473\n      jump\t// in\n    tag_561:\n        /* \"#utility.yul\":19201:19274   */\n      swap2\n      pop\n        /* \"#utility.yul\":19283:19376   */\n      tag_562\n        /* \"#utility.yul\":19372:19375   */\n      dup3\n        /* \"#utility.yul\":19283:19376   */\n      tag_563\n      jump\t// in\n    tag_562:\n        /* \"#utility.yul\":19401:19403   */\n      0x20\n        /* \"#utility.yul\":19396:19399   */\n      dup3\n        /* \"#utility.yul\":19392:19404   */\n      add\n        /* \"#utility.yul\":19385:19404   */\n      swap1\n      pop\n        /* \"#utility.yul\":19045:19410   */\n      swap2\n      swap1\n      pop\n      jump\t// out\n        /* \"#utility.yul\":19416:19782   */\n    tag_564:\n        /* \"#utility.yul\":19558:19561   */\n      0x00\n        /* \"#utility.yul\":19579:19646   */\n      tag_566\n        /* \"#utility.yul\":19643:19645   */\n      0x1f\n        /* \"#utility.yul\":19638:19641   */\n      dup4\n        /* \"#utility.yul\":19579:19646   */\n      tag_473\n      jump\t// in\n    tag_566:\n        /* \"#utility.yul\":19572:19646   */\n      swap2\n      pop\n        /* \"#utility.yul\":19655:19748   */\n      tag_567\n        /* \"#utility.yul\":19744:19747   */\n      dup3\n        /* \"#utility.yul\":19655:19748   */\n      tag_568\n      jump\t// in\n    tag_567:\n        /* \"#utility.yul\":19773:19775   */\n      0x20\n        /* \"#utility.yul\":19768:19771   */\n      dup3\n        /* \"#utility.yul\":19764:19776   */\n      add\n        /* \"#utility.yul\":19757:19776   */\n      swap1\n      pop\n        /* \"#utility.yul\":19416:19782   */\n      swap2\n      swap1\n      pop\n      jump\t// out\n        /* \"#utility.yul\":19788:19906   */\n    tag_569:\n        /* \"#utility.yul\":19875:19899   */\n      tag_571\n        /* \"#utility.yul\":19893:19898   */\n      dup2\n        /* \"#utility.yul\":19875:19899   */\n      tag_572\n      jump\t// in\n    tag_571:\n        /* \"#utility.yul\":19870:19873   */\n      dup3\n        /* \"#utility.yul\":19863:19900   */\n      mstore\n        /* \"#utility.yul\":19788:19906   */\n      pop\n      pop\n      jump\t// out\n        /* \"#utility.yul\":19912:20027   */\n    tag_573:\n        /* \"#utility.yul\":19997:20020   */\n      tag_575\n        /* \"#utility.yul\":20014:20019   */\n      dup2\n        /* \"#utility.yul\":19997:20020   */\n      tag_576\n      jump\t// in\n    tag_575:\n        /* \"#utility.yul\":19992:19995   */\n      dup3\n        /* \"#utility.yul\":19985:20021   */\n      mstore\n        /* \"#utility.yul\":19912:20027   */\n      pop\n      pop\n      jump\t// out\n        /* \"#utility.yul\":20033:20151   */\n    tag_577:\n        /* \"#utility.yul\":20120:20144   */\n      tag_579\n        /* \"#utility.yul\":20138:20143   */\n      dup2\n        /* \"#utility.yul\":20120:20144   */\n      tag_580\n      jump\t// in\n    tag_579:\n        /* \"#utility.yul\":20115:20118   */\n      dup3\n        /* \"#utility.yul\":20108:20145   */\n      mstore\n        /* \"#utility.yul\":20033:20151   */\n      pop\n      pop\n      jump\t// out\n        /* \"#utility.yul\":20157:20269   */\n    tag_581:\n        /* \"#utility.yul\":20240:20262   */\n      tag_583\n        /* \"#utility.yul\":20256:20261   */\n      dup2\n        /* \"#utility.yul\":20240:20262   */\n      tag_584\n      jump\t// in\n    tag_583:\n        /* \"#utility.yul\":20235:20238   */\n      dup3\n        /* \"#utility.yul\":20228:20263   */\n      mstore\n        /* \"#utility.yul\":20157:20269   */\n      pop\n      pop\n      jump\t// out\n        /* \"#utility.yul\":20275:20570   */\n    tag_164:\n        /* \"#utility.yul\":20417:20420   */\n      0x00\n        /* \"#utility.yul\":20439:20544   */\n      tag_586\n        /* \"#utility.yul\":20540:20543   */\n      dup3\n        /* \"#utility.yul\":20531:20537   */\n      dup5\n        /* \"#utility.yul\":20523:20529   */\n      dup7\n        /* \"#utility.yul\":20439:20544   */\n      tag_463\n      jump\t// in\n    tag_586:\n        /* \"#utility.yul\":20432:20544   */\n      swap2\n      pop\n        /* \"#utility.yul\":20561:20564   */\n      dup2\n        /* \"#utility.yul\":20554:20564   */\n      swap1\n      pop\n        /* \"#utility.yul\":20275:20570   */\n      swap4\n      swap3\n      pop\n      pop\n      pop\n      jump\t// out\n        /* \"#utility.yul\":20576:20851   */\n    tag_224:\n        /* \"#utility.yul\":20708:20711   */\n      0x00\n        /* \"#utility.yul\":20730:20825   */\n      tag_588\n        /* \"#utility.yul\":20821:20824   */\n      dup3\n        /* \"#utility.yul\":20812:20818   */\n      dup5\n        /* \"#utility.yul\":20730:20825   */\n      tag_477\n      jump\t// in\n    tag_588:\n        /* \"#utility.yul\":20723:20825   */\n      swap2\n      pop\n        /* \"#utility.yul\":20842:20845   */\n      dup2\n        /* \"#utility.yul\":20835:20845   */\n      swap1\n      pop\n        /* \"#utility.yul\":20576:20851   */\n      swap3\n      swap2\n      pop\n      pop\n      jump\t// out\n        /* \"#utility.yul\":20857:21126   */\n    tag_195:\n        /* \"#utility.yul\":20986:20989   */\n      0x00\n        /* \"#utility.yul\":21008:21100   */\n      tag_590\n        /* \"#utility.yul\":21096:21099   */\n      dup3\n        /* \"#utility.yul\":21087:21093   */\n      dup5\n        /* \"#utility.yul\":21008:21100   */\n      tag_482\n      jump\t// in\n    tag_590:\n        /* \"#utility.yul\":21001:21100   */\n      swap2\n      pop\n        /* \"#utility.yul\":21117:21120   */\n      dup2\n        /* \"#utility.yul\":21110:21120   */\n      swap1\n      pop\n        /* \"#utility.yul\":20857:21126   */\n      swap3\n      swap2\n      pop\n      pop\n      jump\t// out\n        /* \"#utility.yul\":21132:22097   */\n    tag_19:\n        /* \"#utility.yul\":21407:21411   */\n      0x00\n        /* \"#utility.yul\":21445:21448   */\n      0xe0\n        /* \"#utility.yul\":21434:21443   */\n      dup3\n        /* \"#utility.yul\":21430:21449   */\n      add\n        /* \"#utility.yul\":21422:21449   */\n      swap1\n      pop\n        /* \"#utility.yul\":21459:21530   */\n      tag_592\n        /* \"#utility.yul\":21527:21528   */\n      0x00\n        /* \"#utility.yul\":21516:21525   */\n      dup4\n        /* \"#utility.yul\":21512:21529   */\n      add\n        /* \"#utility.yul\":21503:21509   */\n      dup11\n        /* \"#utility.yul\":21459:21530   */\n      tag_422\n      jump\t// in\n    tag_592:\n        /* \"#utility.yul\":21540:21608   */\n      tag_593\n        /* \"#utility.yul\":21604:21606   */\n      0x20\n        /* \"#utility.yul\":21593:21602   */\n      dup4\n        /* \"#utility.yul\":21589:21607   */\n      add\n        /* \"#utility.yul\":21580:21586   */\n      dup10\n        /* \"#utility.yul\":21540:21608   */\n      tag_581\n      jump\t// in\n    tag_593:\n        /* \"#utility.yul\":21655:21664   */\n      dup2\n        /* \"#utility.yul\":21649:21653   */\n      dup2\n        /* \"#utility.yul\":21645:21665   */\n      sub\n        /* \"#utility.yul\":21640:21642   */\n      0x40\n        /* \"#utility.yul\":21629:21638   */\n      dup4\n        /* \"#utility.yul\":21625:21643   */\n      add\n        /* \"#utility.yul\":21618:21666   */\n      mstore\n        /* \"#utility.yul\":21683:21761   */\n      tag_594\n        /* \"#utility.yul\":21756:21760   */\n      dup2\n        /* \"#utility.yul\":21747:21753   */\n      dup9\n        /* \"#utility.yul\":21683:21761   */\n      tag_468\n      jump\t// in\n    tag_594:\n        /* \"#utility.yul\":21675:21761   */\n      swap1\n      pop\n        /* \"#utility.yul\":21771:21843   */\n      tag_595\n        /* \"#utility.yul\":21839:21841   */\n      0x60\n        /* \"#utility.yul\":21828:21837   */\n      dup4\n        /* \"#utility.yul\":21824:21842   */\n      add\n        /* \"#utility.yul\":21815:21821   */\n      dup8\n        /* \"#utility.yul\":21771:21843   */\n      tag_577\n      jump\t// in\n    tag_595:\n        /* \"#utility.yul\":21853:21926   */\n      tag_596\n        /* \"#utility.yul\":21921:21924   */\n      0x80\n        /* \"#utility.yul\":21910:21919   */\n      dup4\n        /* \"#utility.yul\":21906:21925   */\n      add\n        /* \"#utility.yul\":21897:21903   */\n      dup7\n        /* \"#utility.yul\":21853:21926   */\n      tag_577\n      jump\t// in\n    tag_596:\n        /* \"#utility.yul\":21936:22007   */\n      tag_597\n        /* \"#utility.yul\":22002:22005   */\n      0xa0\n        /* \"#utility.yul\":21991:22000   */\n      dup4\n        /* \"#utility.yul\":21987:22006   */\n      add\n        /* \"#utility.yul\":21978:21984   */\n      dup6\n        /* \"#utility.yul\":21936:22007   */\n      tag_573\n      jump\t// in\n    tag_597:\n        /* \"#utility.yul\":22017:22090   */\n      tag_598\n        /* \"#utility.yul\":22085:22088   */\n      0xc0\n        /* \"#utility.yul\":22074:22083   */\n      dup4\n        /* \"#utility.yul\":22070:22089   */\n      add\n        /* \"#utility.yul\":22061:22067   */\n      dup5\n        /* \"#utility.yul\":22017:22090   */\n      tag_577\n      jump\t// in\n    tag_598:\n        /* \"#utility.yul\":21132:22097   */\n      swap9\n      swap8\n      pop\n      pop\n      pop\n      pop\n      pop\n      pop\n      pop\n      pop\n      jump\t// out\n        /* \"#utility.yul\":22103:22416   */\n    tag_23:\n        /* \"#utility.yul\":22216:22220   */\n      0x00\n        /* \"#utility.yul\":22254:22256   */\n      0x20\n        /* \"#utility.yul\":22243:22252   */\n      dup3\n        /* \"#utility.yul\":22239:22257   */\n      add\n        /* \"#utility.yul\":22231:22257   */\n      swap1\n      pop\n        /* \"#utility.yul\":22303:22312   */\n      dup2\n        /* \"#utility.yul\":22297:22301   */\n      dup2\n        /* \"#utility.yul\":22293:22313   */\n      sub\n        /* \"#utility.yul\":22289:22290   */\n      0x00\n        /* \"#utility.yul\":22278:22287   */\n      dup4\n        /* \"#utility.yul\":22274:22291   */\n      add\n        /* \"#utility.yul\":22267:22314   */\n      mstore\n        /* \"#utility.yul\":22331:22409   */\n      tag_600\n        /* \"#utility.yul\":22404:22408   */\n      dup2\n        /* \"#utility.yul\":22395:22401   */\n      dup5\n        /* \"#utility.yul\":22331:22409   */\n      tag_468\n      jump\t// in\n    tag_600:\n        /* \"#utility.yul\":22323:22409   */\n      swap1\n      pop\n        /* \"#utility.yul\":22103:22416   */\n      swap3\n      swap2\n      pop\n      pop\n      jump\t// out\n        /* \"#utility.yul\":22422:22841   */\n    tag_192:\n        /* \"#utility.yul\":22588:22592   */\n      0x00\n        /* \"#utility.yul\":22626:22628   */\n      0x20\n        /* \"#utility.yul\":22615:22624   */\n      dup3\n        /* \"#utility.yul\":22611:22629   */\n      add\n        /* \"#utility.yul\":22603:22629   */\n      swap1\n      pop\n        /* \"#utility.yul\":22675:22684   */\n      dup2\n        /* \"#utility.yul\":22669:22673   */\n      dup2\n        /* \"#utility.yul\":22665:22685   */\n      sub\n        /* \"#utility.yul\":22661:22662   */\n      0x00\n        /* \"#utility.yul\":22650:22659   */\n      dup4\n        /* \"#utility.yul\":22646:22663   */\n      add\n        /* \"#utility.yul\":22639:22686   */\n      mstore\n        /* \"#utility.yul\":22703:22834   */\n      tag_602\n        /* \"#utility.yul\":22829:22833   */\n      dup2\n        /* \"#utility.yul\":22703:22834   */\n      tag_494\n      jump\t// in\n    tag_602:\n        /* \"#utility.yul\":22695:22834   */\n      swap1\n      pop\n        /* \"#utility.yul\":22422:22841   */\n      swap2\n      swap1\n      pop\n      jump\t// out\n        /* \"#utility.yul\":22847:23266   */\n    tag_78:\n        /* \"#utility.yul\":23013:23017   */\n      0x00\n        /* \"#utility.yul\":23051:23053   */\n      0x20\n        /* \"#utility.yul\":23040:23049   */\n      dup3\n        /* \"#utility.yul\":23036:23054   */\n      add\n        /* \"#utility.yul\":23028:23054   */\n      swap1\n      pop\n        /* \"#utility.yul\":23100:23109   */\n      dup2\n        /* \"#utility.yul\":23094:23098   */\n      dup2\n        /* \"#utility.yul\":23090:23110   */\n      sub\n        /* \"#utility.yul\":23086:23087   */\n      0x00\n        /* \"#utility.yul\":23075:23084   */\n      dup4\n        /* \"#utility.yul\":23071:23088   */\n      add\n        /* \"#utility.yul\":23064:23111   */\n      mstore\n        /* \"#utility.yul\":23128:23259   */\n      tag_604\n        /* \"#utility.yul\":23254:23258   */\n      dup2\n        /* \"#utility.yul\":23128:23259   */\n      tag_499\n      jump\t// in\n    tag_604:\n        /* \"#utility.yul\":23120:23259   */\n      swap1\n      pop\n        /* \"#utility.yul\":22847:23266   */\n      swap2\n      swap1\n      pop\n      jump\t// out\n        /* \"#utility.yul\":23272:23691   */\n    tag_120:\n        /* \"#utility.yul\":23438:23442   */\n      0x00\n        /* \"#utility.yul\":23476:23478   */\n      0x20\n        /* \"#utility.yul\":23465:23474   */\n      dup3\n        /* \"#utility.yul\":23461:23479   */\n      add\n        /* \"#utility.yul\":23453:23479   */\n      swap1\n      pop\n        /* \"#utility.yul\":23525:23534   */\n      dup2\n        /* \"#utility.yul\":23519:23523   */\n      dup2\n        /* \"#utility.yul\":23515:23535   */\n      sub\n        /* \"#utility.yul\":23511:23512   */\n      0x00\n        /* \"#utility.yul\":23500:23509   */\n      dup4\n        /* \"#utility.yul\":23496:23513   */\n      add\n        /* \"#utility.yul\":23489:23536   */\n      mstore\n        /* \"#utility.yul\":23553:23684   */\n      tag_606\n        /* \"#utility.yul\":23679:23683   */\n      dup2\n        /* \"#utility.yul\":23553:23684   */\n      tag_504\n      jump\t// in\n    tag_606:\n        /* \"#utility.yul\":23545:23684   */\n      swap1\n      pop\n        /* \"#utility.yul\":23272:23691   */\n      swap2\n      swap1\n      pop\n      jump\t// out\n        /* \"#utility.yul\":23697:24116   */\n    tag_227:\n        /* \"#utility.yul\":23863:23867   */\n      0x00\n        /* \"#utility.yul\":23901:23903   */\n      0x20\n        /* \"#utility.yul\":23890:23899   */\n      dup3\n        /* \"#utility.yul\":23886:23904   */\n      add\n        /* \"#utility.yul\":23878:23904   */\n      swap1\n      pop\n        /* \"#utility.yul\":23950:23959   */\n      dup2\n        /* \"#utility.yul\":23944:23948   */\n      dup2\n        /* \"#utility.yul\":23940:23960   */\n      sub\n        /* \"#utility.yul\":23936:23937   */\n      0x00\n        /* \"#utility.yul\":23925:23934   */\n      dup4\n        /* \"#utility.yul\":23921:23938   */\n      add\n        /* \"#utility.yul\":23914:23961   */\n      mstore\n        /* \"#utility.yul\":23978:24109   */\n      tag_608\n        /* \"#utility.yul\":24104:24108   */\n      dup2\n        /* \"#utility.yul\":23978:24109   */\n      tag_509\n      jump\t// in\n    tag_608:\n        /* \"#utility.yul\":23970:24109   */\n      swap1\n      pop\n        /* \"#utility.yul\":23697:24116   */\n      swap2\n      swap1\n      pop\n      jump\t// out\n        /* \"#utility.yul\":24122:24541   */\n    tag_117:\n        /* \"#utility.yul\":24288:24292   */\n      0x00\n        /* \"#utility.yul\":24326:24328   */\n      0x20\n        /* \"#utility.yul\":24315:24324   */\n      dup3\n        /* \"#utility.yul\":24311:24329   */\n      add\n        /* \"#utility.yul\":24303:24329   */\n      swap1\n      pop\n        /* \"#utility.yul\":24375:24384   */\n      dup2\n        /* \"#utility.yul\":24369:24373   */\n      dup2\n        /* \"#utility.yul\":24365:24385   */\n      sub\n        /* \"#utility.yul\":24361:24362   */\n      0x00\n        /* \"#utility.yul\":24350:24359   */\n      dup4\n        /* \"#utility.yul\":24346:24363   */\n      add\n        /* \"#utility.yul\":24339:24386   */\n      mstore\n        /* \"#utility.yul\":24403:24534   */\n      tag_610\n        /* \"#utility.yul\":24529:24533   */\n      dup2\n        /* \"#utility.yul\":24403:24534   */\n      tag_514\n      jump\t// in\n    tag_610:\n        /* \"#utility.yul\":24395:24534   */\n      swap1\n      pop\n        /* \"#utility.yul\":24122:24541   */\n      swap2\n      swap1\n      pop\n      jump\t// out\n        /* \"#utility.yul\":24547:24966   */\n    tag_75:\n        /* \"#utility.yul\":24713:24717   */\n      0x00\n        /* \"#utility.yul\":24751:24753   */\n      0x20\n        /* \"#utility.yul\":24740:24749   */\n      dup3\n        /* \"#utility.yul\":24736:24754   */\n      add\n        /* \"#utility.yul\":24728:24754   */\n      swap1\n      pop\n        /* \"#utility.yul\":24800:24809   */\n      dup2\n        /* \"#utility.yul\":24794:24798   */\n      dup2\n        /* \"#utility.yul\":24790:24810   */\n      sub\n        /* \"#utility.yul\":24786:24787   */\n      0x00\n        /* \"#utility.yul\":24775:24784   */\n      dup4\n        /* \"#utility.yul\":24771:24788   */\n      add\n        /* \"#utility.yul\":24764:24811   */\n      mstore\n        /* \"#utility.yul\":24828:24959   */\n      tag_612\n        /* \"#utility.yul\":24954:24958   */\n      dup2\n        /* \"#utility.yul\":24828:24959   */\n      tag_519\n      jump\t// in\n    tag_612:\n        /* \"#utility.yul\":24820:24959   */\n      swap1\n      pop\n        /* \"#utility.yul\":24547:24966   */\n      swap2\n      swap1\n      pop\n      jump\t// out\n        /* \"#utility.yul\":24972:25391   */\n    tag_217:\n        /* \"#utility.yul\":25138:25142   */\n      0x00\n        /* \"#utility.yul\":25176:25178   */\n      0x20\n        /* \"#utility.yul\":25165:25174   */\n      dup3\n        /* \"#utility.yul\":25161:25179   */\n      add\n        /* \"#utility.yul\":25153:25179   */\n      swap1\n      pop\n        /* \"#utility.yul\":25225:25234   */\n      dup2\n        /* \"#utility.yul\":25219:25223   */\n      dup2\n        /* \"#utility.yul\":25215:25235   */\n      sub\n        /* \"#utility.yul\":25211:25212   */\n      0x00\n        /* \"#utility.yul\":25200:25209   */\n      dup4\n        /* \"#utility.yul\":25196:25213   */\n      add\n        /* \"#utility.yul\":25189:25236   */\n      mstore\n        /* \"#utility.yul\":25253:25384   */\n      tag_614\n        /* \"#utility.yul\":25379:25383   */\n      dup2\n        /* \"#utility.yul\":25253:25384   */\n      tag_524\n      jump\t// in\n    tag_614:\n        /* \"#utility.yul\":25245:25384   */\n      swap1\n      pop\n        /* \"#utility.yul\":24972:25391   */\n      swap2\n      swap1\n      pop\n      jump\t// out\n        /* \"#utility.yul\":25397:25816   */\n    tag_114:\n        /* \"#utility.yul\":25563:25567   */\n      0x00\n        /* \"#utility.yul\":25601:25603   */\n      0x20\n        /* \"#utility.yul\":25590:25599   */\n      dup3\n        /* \"#utility.yul\":25586:25604   */\n      add\n        /* \"#utility.yul\":25578:25604   */\n      swap1\n      pop\n        /* \"#utility.yul\":25650:25659   */\n      dup2\n        /* \"#utility.yul\":25644:25648   */\n      dup2\n        /* \"#utility.yul\":25640:25660   */\n      sub\n        /* \"#utility.yul\":25636:25637   */\n      0x00\n        /* \"#utility.yul\":25625:25634   */\n      dup4\n        /* \"#utility.yul\":25621:25638   */\n      add\n        /* \"#utility.yul\":25614:25661   */\n      mstore\n        /* \"#utility.yul\":25678:25809   */\n      tag_616\n        /* \"#utility.yul\":25804:25808   */\n      dup2\n        /* \"#utility.yul\":25678:25809   */\n      tag_529\n      jump\t// in\n    tag_616:\n        /* \"#utility.yul\":25670:25809   */\n      swap1\n      pop\n        /* \"#utility.yul\":25397:25816   */\n      swap2\n      swap1\n      pop\n      jump\t// out\n        /* \"#utility.yul\":25822:26241   */\n    tag_138:\n        /* \"#utility.yul\":25988:25992   */\n      0x00\n        /* \"#utility.yul\":26026:26028   */\n      0x20\n        /* \"#utility.yul\":26015:26024   */\n      dup3\n        /* \"#utility.yul\":26011:26029   */\n      add\n        /* \"#utility.yul\":26003:26029   */\n      swap1\n      pop\n        /* \"#utility.yul\":26075:26084   */\n      dup2\n        /* \"#utility.yul\":26069:26073   */\n      dup2\n        /* \"#utility.yul\":26065:26085   */\n      sub\n        /* \"#utility.yul\":26061:26062   */\n      0x00\n        /* \"#utility.yul\":26050:26059   */\n      dup4\n        /* \"#utility.yul\":26046:26063   */\n      add\n        /* \"#utility.yul\":26039:26086   */\n      mstore\n        /* \"#utility.yul\":26103:26234   */\n      tag_618\n        /* \"#utility.yul\":26229:26233   */\n      dup2\n        /* \"#utility.yul\":26103:26234   */\n      tag_534\n      jump\t// in\n    tag_618:\n        /* \"#utility.yul\":26095:26234   */\n      swap1\n      pop\n        /* \"#utility.yul\":25822:26241   */\n      swap2\n      swap1\n      pop\n      jump\t// out\n        /* \"#utility.yul\":26247:26666   */\n    tag_81:\n        /* \"#utility.yul\":26413:26417   */\n      0x00\n        /* \"#utility.yul\":26451:26453   */\n      0x20\n        /* \"#utility.yul\":26440:26449   */\n      dup3\n        /* \"#utility.yul\":26436:26454   */\n      add\n        /* \"#utility.yul\":26428:26454   */\n      swap1\n      pop\n        /* \"#utility.yul\":26500:26509   */\n      dup2\n        /* \"#utility.yul\":26494:26498   */\n      dup2\n        /* \"#utility.yul\":26490:26510   */\n      sub\n        /* \"#utility.yul\":26486:26487   */\n      0x00\n        /* \"#utility.yul\":26475:26484   */\n      dup4\n        /* \"#utility.yul\":26471:26488   */\n      add\n        /* \"#utility.yul\":26464:26511   */\n      mstore\n        /* \"#utility.yul\":26528:26659   */\n      tag_620\n        /* \"#utility.yul\":26654:26658   */\n      dup2\n        /* \"#utility.yul\":26528:26659   */\n      tag_539\n      jump\t// in\n    tag_620:\n        /* \"#utility.yul\":26520:26659   */\n      swap1\n      pop\n        /* \"#utility.yul\":26247:26666   */\n      swap2\n      swap1\n      pop\n      jump\t// out\n        /* \"#utility.yul\":26672:27091   */\n    tag_123:\n        /* \"#utility.yul\":26838:26842   */\n      0x00\n        /* \"#utility.yul\":26876:26878   */\n      0x20\n        /* \"#utility.yul\":26865:26874   */\n      dup3\n        /* \"#utility.yul\":26861:26879   */\n      add\n        /* \"#utility.yul\":26853:26879   */\n      swap1\n      pop\n        /* \"#utility.yul\":26925:26934   */\n      dup2\n        /* \"#utility.yul\":26919:26923   */\n      dup2\n        /* \"#utility.yul\":26915:26935   */\n      sub\n        /* \"#utility.yul\":26911:26912   */\n      0x00\n        /* \"#utility.yul\":26900:26909   */\n      dup4\n        /* \"#utility.yul\":26896:26913   */\n      add\n        /* \"#utility.yul\":26889:26936   */\n      mstore\n        /* \"#utility.yul\":26953:27084   */\n      tag_622\n        /* \"#utility.yul\":27079:27083   */\n      dup2\n        /* \"#utility.yul\":26953:27084   */\n      tag_544\n      jump\t// in\n    tag_622:\n        /* \"#utility.yul\":26945:27084   */\n      swap1\n      pop\n        /* \"#utility.yul\":26672:27091   */\n      swap2\n      swap1\n      pop\n      jump\t// out\n        /* \"#utility.yul\":27097:27736   */\n    tag_105:\n        /* \"#utility.yul\":27319:27323   */\n      0x00\n        /* \"#utility.yul\":27357:27359   */\n      0x60\n        /* \"#utility.yul\":27346:27355   */\n      dup3\n        /* \"#utility.yul\":27342:27360   */\n      add\n        /* \"#utility.yul\":27334:27360   */\n      swap1\n      pop\n        /* \"#utility.yul\":27406:27415   */\n      dup2\n        /* \"#utility.yul\":27400:27404   */\n      dup2\n        /* \"#utility.yul\":27396:27416   */\n      sub\n        /* \"#utility.yul\":27392:27393   */\n      0x00\n        /* \"#utility.yul\":27381:27390   */\n      dup4\n        /* \"#utility.yul\":27377:27394   */\n      add\n        /* \"#utility.yul\":27370:27417   */\n      mstore\n        /* \"#utility.yul\":27434:27565   */\n      tag_624\n        /* \"#utility.yul\":27560:27564   */\n      dup2\n        /* \"#utility.yul\":27434:27565   */\n      tag_549\n      jump\t// in\n    tag_624:\n        /* \"#utility.yul\":27426:27565   */\n      swap1\n      pop\n        /* \"#utility.yul\":27575:27647   */\n      tag_625\n        /* \"#utility.yul\":27643:27645   */\n      0x20\n        /* \"#utility.yul\":27632:27641   */\n      dup4\n        /* \"#utility.yul\":27628:27646   */\n      add\n        /* \"#utility.yul\":27619:27625   */\n      dup6\n        /* \"#utility.yul\":27575:27647   */\n      tag_422\n      jump\t// in\n    tag_625:\n        /* \"#utility.yul\":27657:27729   */\n      tag_626\n        /* \"#utility.yul\":27725:27727   */\n      0x40\n        /* \"#utility.yul\":27714:27723   */\n      dup4\n        /* \"#utility.yul\":27710:27728   */\n      add\n        /* \"#utility.yul\":27701:27707   */\n      dup5\n        /* \"#utility.yul\":27657:27729   */\n      tag_577\n      jump\t// in\n    tag_626:\n        /* \"#utility.yul\":27097:27736   */\n      swap4\n      swap3\n      pop\n      pop\n      pop\n      jump\t// out\n        /* \"#utility.yul\":27742:28161   */\n    tag_248:\n        /* \"#utility.yul\":27908:27912   */\n      0x00\n        /* \"#utility.yul\":27946:27948   */\n      0x20\n        /* \"#utility.yul\":27935:27944   */\n      dup3\n        /* \"#utility.yul\":27931:27949   */\n      add\n        /* \"#utility.yul\":27923:27949   */\n      swap1\n      pop\n        /* \"#utility.yul\":27995:28004   */\n      dup2\n        /* \"#utility.yul\":27989:27993   */\n      dup2\n        /* \"#utility.yul\":27985:28005   */\n      sub\n        /* \"#utility.yul\":27981:27982   */\n      0x00\n        /* \"#utility.yul\":27970:27979   */\n      dup4\n        /* \"#utility.yul\":27966:27983   */\n      add\n        /* \"#utility.yul\":27959:28006   */\n      mstore\n        /* \"#utility.yul\":28023:28154   */\n      tag_628\n        /* \"#utility.yul\":28149:28153   */\n      dup2\n        /* \"#utility.yul\":28023:28154   */\n      tag_554\n      jump\t// in\n    tag_628:\n        /* \"#utility.yul\":28015:28154   */\n      swap1\n      pop\n        /* \"#utility.yul\":27742:28161   */\n      swap2\n      swap1\n      pop\n      jump\t// out\n        /* \"#utility.yul\":28167:28586   */\n    tag_251:\n        /* \"#utility.yul\":28333:28337   */\n      0x00\n        /* \"#utility.yul\":28371:28373   */\n      0x20\n        /* \"#utility.yul\":28360:28369   */\n      dup3\n        /* \"#utility.yul\":28356:28374   */\n      add\n        /* \"#utility.yul\":28348:28374   */\n      swap1\n      pop\n        /* \"#utility.yul\":28420:28429   */\n      dup2\n        /* \"#utility.yul\":28414:28418   */\n      dup2\n        /* \"#utility.yul\":28410:28430   */\n      sub\n        /* \"#utility.yul\":28406:28407   */\n      0x00\n        /* \"#utility.yul\":28395:28404   */\n      dup4\n        /* \"#utility.yul\":28391:28408   */\n      add\n        /* \"#utility.yul\":28384:28431   */\n      mstore\n        /* \"#utility.yul\":28448:28579   */\n      tag_630\n        /* \"#utility.yul\":28574:28578   */\n      dup2\n        /* \"#utility.yul\":28448:28579   */\n      tag_559\n      jump\t// in\n    tag_630:\n        /* \"#utility.yul\":28440:28579   */\n      swap1\n      pop\n        /* \"#utility.yul\":28167:28586   */\n      swap2\n      swap1\n      pop\n      jump\t// out\n        /* \"#utility.yul\":28592:29011   */\n    tag_255:\n        /* \"#utility.yul\":28758:28762   */\n      0x00\n        /* \"#utility.yul\":28796:28798   */\n      0x20\n        /* \"#utility.yul\":28785:28794   */\n      dup3\n        /* \"#utility.yul\":28781:28799   */\n      add\n        /* \"#utility.yul\":28773:28799   */\n      swap1\n      pop\n        /* \"#utility.yul\":28845:28854   */\n      dup2\n        /* \"#utility.yul\":28839:28843   */\n      dup2\n        /* \"#utility.yul\":28835:28855   */\n      sub\n        /* \"#utility.yul\":28831:28832   */\n      0x00\n        /* \"#utility.yul\":28820:28829   */\n      dup4\n        /* \"#utility.yul\":28816:28833   */\n      add\n        /* \"#utility.yul\":28809:28856   */\n      mstore\n        /* \"#utility.yul\":28873:29004   */\n      tag_632\n        /* \"#utility.yul\":28999:29003   */\n      dup2\n        /* \"#utility.yul\":28873:29004   */\n      tag_564\n      jump\t// in\n    tag_632:\n        /* \"#utility.yul\":28865:29004   */\n      swap1\n      pop\n        /* \"#utility.yul\":28592:29011   */\n      swap2\n      swap1\n      pop\n      jump\t// out\n        /* \"#utility.yul\":29017:29349   */\n    tag_57:\n        /* \"#utility.yul\":29138:29142   */\n      0x00\n        /* \"#utility.yul\":29176:29178   */\n      0x40\n        /* \"#utility.yul\":29165:29174   */\n      dup3\n        /* \"#utility.yul\":29161:29179   */\n      add\n        /* \"#utility.yul\":29153:29179   */\n      swap1\n      pop\n        /* \"#utility.yul\":29189:29260   */\n      tag_634\n        /* \"#utility.yul\":29257:29258   */\n      0x00\n        /* \"#utility.yul\":29246:29255   */\n      dup4\n        /* \"#utility.yul\":29242:29259   */\n      add\n        /* \"#utility.yul\":29233:29239   */\n      dup6\n        /* \"#utility.yul\":29189:29260   */\n      tag_569\n      jump\t// in\n    tag_634:\n        /* \"#utility.yul\":29270:29342   */\n      tag_635\n        /* \"#utility.yul\":29338:29340   */\n      0x20\n        /* \"#utility.yul\":29327:29336   */\n      dup4\n        /* \"#utility.yul\":29323:29341   */\n      add\n        /* \"#utility.yul\":29314:29320   */\n      dup5\n        /* \"#utility.yul\":29270:29342   */\n      tag_569\n      jump\t// in\n    tag_635:\n        /* \"#utility.yul\":29017:29349   */\n      swap4\n      swap3\n      pop\n      pop\n      pop\n      jump\t// out\n        /* \"#utility.yul\":29355:29577   */\n    tag_27:\n        /* \"#utility.yul\":29448:29452   */\n      0x00\n        /* \"#utility.yul\":29486:29488   */\n      0x20\n        /* \"#utility.yul\":29475:29484   */\n      dup3\n        /* \"#utility.yul\":29471:29489   */\n      add\n        /* \"#utility.yul\":29463:29489   */\n      swap1\n      pop\n        /* \"#utility.yul\":29499:29570   */\n      tag_637\n        /* \"#utility.yul\":29567:29568   */\n      0x00\n        /* \"#utility.yul\":29556:29565   */\n      dup4\n        /* \"#utility.yul\":29552:29569   */\n      add\n        /* \"#utility.yul\":29543:29549   */\n      dup5\n        /* \"#utility.yul\":29499:29570   */\n      tag_577\n      jump\t// in\n    tag_637:\n        /* \"#utility.yul\":29355:29577   */\n      swap3\n      swap2\n      pop\n      pop\n      jump\t// out\n        /* \"#utility.yul\":29583:30124   */\n    tag_52:\n        /* \"#utility.yul\":29754:29758   */\n      0x00\n        /* \"#utility.yul\":29792:29795   */\n      0x80\n        /* \"#utility.yul\":29781:29790   */\n      dup3\n        /* \"#utility.yul\":29777:29796   */\n      add\n        /* \"#utility.yul\":29769:29796   */\n      swap1\n      pop\n        /* \"#utility.yul\":29806:29877   */\n      tag_639\n        /* \"#utility.yul\":29874:29875   */\n      0x00\n        /* \"#utility.yul\":29863:29872   */\n      dup4\n        /* \"#utility.yul\":29859:29876   */\n      add\n        /* \"#utility.yul\":29850:29856   */\n      dup8\n        /* \"#utility.yul\":29806:29877   */\n      tag_577\n      jump\t// in\n    tag_639:\n        /* \"#utility.yul\":29887:29959   */\n      tag_640\n        /* \"#utility.yul\":29955:29957   */\n      0x20\n        /* \"#utility.yul\":29944:29953   */\n      dup4\n        /* \"#utility.yul\":29940:29958   */\n      add\n        /* \"#utility.yul\":29931:29937   */\n      dup7\n        /* \"#utility.yul\":29887:29959   */\n      tag_422\n      jump\t// in\n    tag_640:\n        /* \"#utility.yul\":29969:30035   */\n      tag_641\n        /* \"#utility.yul\":30031:30033   */\n      0x40\n        /* \"#utility.yul\":30020:30029   */\n      dup4\n        /* \"#utility.yul\":30016:30034   */\n      add\n        /* \"#utility.yul\":30007:30013   */\n      dup6\n        /* \"#utility.yul\":29969:30035   */\n      tag_453\n      jump\t// in\n    tag_641:\n        /* \"#utility.yul\":30045:30117   */\n      tag_642\n        /* \"#utility.yul\":30113:30115   */\n      0x60\n        /* \"#utility.yul\":30102:30111   */\n      dup4\n        /* \"#utility.yul\":30098:30116   */\n      add\n        /* \"#utility.yul\":30089:30095   */\n      dup5\n        /* \"#utility.yul\":30045:30117   */\n      tag_577\n      jump\t// in\n    tag_642:\n        /* \"#utility.yul\":29583:30124   */\n      swap6\n      swap5\n      pop\n      pop\n      pop\n      pop\n      pop\n      jump\t// out\n        /* \"#utility.yul\":30130:31473   */\n    tag_87:\n        /* \"#utility.yul\":30543:30547   */\n      0x00\n        /* \"#utility.yul\":30581:30584   */\n      0xe0\n        /* \"#utility.yul\":30570:30579   */\n      dup3\n        /* \"#utility.yul\":30566:30585   */\n      add\n        /* \"#utility.yul\":30558:30585   */\n      swap1\n      pop\n        /* \"#utility.yul\":30595:30666   */\n      tag_644\n        /* \"#utility.yul\":30663:30664   */\n      0x00\n        /* \"#utility.yul\":30652:30661   */\n      dup4\n        /* \"#utility.yul\":30648:30665   */\n      add\n        /* \"#utility.yul\":30639:30645   */\n      dup12\n        /* \"#utility.yul\":30595:30666   */\n      tag_577\n      jump\t// in\n    tag_644:\n        /* \"#utility.yul\":30713:30722   */\n      dup2\n        /* \"#utility.yul\":30707:30711   */\n      dup2\n        /* \"#utility.yul\":30703:30723   */\n      sub\n        /* \"#utility.yul\":30698:30700   */\n      0x20\n        /* \"#utility.yul\":30687:30696   */\n      dup4\n        /* \"#utility.yul\":30683:30701   */\n      add\n        /* \"#utility.yul\":30676:30724   */\n      mstore\n        /* \"#utility.yul\":30741:30849   */\n      tag_645\n        /* \"#utility.yul\":30844:30848   */\n      dup2\n        /* \"#utility.yul\":30835:30841   */\n      dup11\n        /* \"#utility.yul\":30741:30849   */\n      tag_425\n      jump\t// in\n    tag_645:\n        /* \"#utility.yul\":30733:30849   */\n      swap1\n      pop\n        /* \"#utility.yul\":30859:30931   */\n      tag_646\n        /* \"#utility.yul\":30927:30929   */\n      0x40\n        /* \"#utility.yul\":30916:30925   */\n      dup4\n        /* \"#utility.yul\":30912:30930   */\n      add\n        /* \"#utility.yul\":30903:30909   */\n      dup10\n        /* \"#utility.yul\":30859:30931   */\n      tag_422\n      jump\t// in\n    tag_646:\n        /* \"#utility.yul\":30941:31013   */\n      tag_647\n        /* \"#utility.yul\":31009:31011   */\n      0x60\n        /* \"#utility.yul\":30998:31007   */\n      dup4\n        /* \"#utility.yul\":30994:31012   */\n      add\n        /* \"#utility.yul\":30985:30991   */\n      dup9\n        /* \"#utility.yul\":30941:31013   */\n      tag_577\n      jump\t// in\n    tag_647:\n        /* \"#utility.yul\":31023:31096   */\n      tag_648\n        /* \"#utility.yul\":31091:31094   */\n      0x80\n        /* \"#utility.yul\":31080:31089   */\n      dup4\n        /* \"#utility.yul\":31076:31095   */\n      add\n        /* \"#utility.yul\":31067:31073   */\n      dup8\n        /* \"#utility.yul\":31023:31096   */\n      tag_577\n      jump\t// in\n    tag_648:\n        /* \"#utility.yul\":31144:31153   */\n      dup2\n        /* \"#utility.yul\":31138:31142   */\n      dup2\n        /* \"#utility.yul\":31134:31154   */\n      sub\n        /* \"#utility.yul\":31128:31131   */\n      0xa0\n        /* \"#utility.yul\":31117:31126   */\n      dup4\n        /* \"#utility.yul\":31113:31132   */\n      add\n        /* \"#utility.yul\":31106:31155   */\n      mstore\n        /* \"#utility.yul\":31172:31250   */\n      tag_649\n        /* \"#utility.yul\":31245:31249   */\n      dup2\n        /* \"#utility.yul\":31236:31242   */\n      dup7\n        /* \"#utility.yul\":31172:31250   */\n      tag_468\n      jump\t// in\n    tag_649:\n        /* \"#utility.yul\":31164:31250   */\n      swap1\n      pop\n        /* \"#utility.yul\":31298:31307   */\n      dup2\n        /* \"#utility.yul\":31292:31296   */\n      dup2\n        /* \"#utility.yul\":31288:31308   */\n      sub\n        /* \"#utility.yul\":31282:31285   */\n      0xc0\n        /* \"#utility.yul\":31271:31280   */\n      dup4\n        /* \"#utility.yul\":31267:31286   */\n      add\n        /* \"#utility.yul\":31260:31309   */\n      mstore\n        /* \"#utility.yul\":31326:31466   */\n      tag_650\n        /* \"#utility.yul\":31461:31465   */\n      dup2\n        /* \"#utility.yul\":31452:31458   */\n      dup5\n        /* \"#utility.yul\":31444:31450   */\n      dup7\n        /* \"#utility.yul\":31326:31466   */\n      tag_439\n      jump\t// in\n    tag_650:\n        /* \"#utility.yul\":31318:31466   */\n      swap1\n      pop\n        /* \"#utility.yul\":30130:31473   */\n      swap10\n      swap9\n      pop\n      pop\n      pop\n      pop\n      pop\n      pop\n      pop\n      pop\n      pop\n      jump\t// out\n        /* \"#utility.yul\":31479:31693   */\n    tag_31:\n        /* \"#utility.yul\":31568:31572   */\n      0x00\n        /* \"#utility.yul\":31606:31608   */\n      0x20\n        /* \"#utility.yul\":31595:31604   */\n      dup3\n        /* \"#utility.yul\":31591:31609   */\n      add\n        /* \"#utility.yul\":31583:31609   */\n      swap1\n      pop\n        /* \"#utility.yul\":31619:31686   */\n      tag_652\n        /* \"#utility.yul\":31683:31684   */\n      0x00\n        /* \"#utility.yul\":31672:31681   */\n      dup4\n        /* \"#utility.yul\":31668:31685   */\n      add\n        /* \"#utility.yul\":31659:31665   */\n      dup5\n        /* \"#utility.yul\":31619:31686   */\n      tag_581\n      jump\t// in\n    tag_652:\n        /* \"#utility.yul\":31479:31693   */\n      swap3\n      swap2\n      pop\n      pop\n      jump\t// out\n        /* \"#utility.yul\":31699:32424   */\n    tag_162:\n        /* \"#utility.yul\":31777:31781   */\n      0x00\n        /* \"#utility.yul\":31783:31789   */\n      dup1\n        /* \"#utility.yul\":31839:31850   */\n      dup4\n        /* \"#utility.yul\":31826:31851   */\n      calldataload\n        /* \"#utility.yul\":31939:31940   */\n      0x01\n        /* \"#utility.yul\":31933:31937   */\n      0x20\n        /* \"#utility.yul\":31929:31941   */\n      sub\n        /* \"#utility.yul\":31918:31926   */\n      dup5\n        /* \"#utility.yul\":31902:31916   */\n      calldatasize\n        /* \"#utility.yul\":31898:31927   */\n      sub\n        /* \"#utility.yul\":31894:31942   */\n      sub\n        /* \"#utility.yul\":31874:31892   */\n      dup2\n        /* \"#utility.yul\":31870:31943   */\n      slt\n        /* \"#utility.yul\":31860:32028   */\n      tag_654\n      jumpi\n        /* \"#utility.yul\":31947:32026   */\n      tag_655\n      tag_656\n      jump\t// in\n    tag_655:\n        /* \"#utility.yul\":31860:32028   */\n    tag_654:\n        /* \"#utility.yul\":32059:32077   */\n      dup1\n        /* \"#utility.yul\":32049:32057   */\n      dup5\n        /* \"#utility.yul\":32045:32078   */\n      add\n        /* \"#utility.yul\":32037:32078   */\n      swap3\n      pop\n        /* \"#utility.yul\":32111:32115   */\n      dup3\n        /* \"#utility.yul\":32098:32116   */\n      calldataload\n        /* \"#utility.yul\":32088:32116   */\n      swap2\n      pop\n        /* \"#utility.yul\":32139:32157   */\n      0xffffffffffffffff\n        /* \"#utility.yul\":32131:32137   */\n      dup3\n        /* \"#utility.yul\":32128:32158   */\n      gt\n        /* \"#utility.yul\":32125:32242   */\n      iszero\n      tag_657\n      jumpi\n        /* \"#utility.yul\":32161:32240   */\n      tag_658\n      tag_659\n      jump\t// in\n    tag_658:\n        /* \"#utility.yul\":32125:32242   */\n    tag_657:\n        /* \"#utility.yul\":32269:32271   */\n      0x20\n        /* \"#utility.yul\":32263:32267   */\n      dup4\n        /* \"#utility.yul\":32259:32272   */\n      add\n        /* \"#utility.yul\":32251:32272   */\n      swap3\n      pop\n        /* \"#utility.yul\":32326:32330   */\n      0x01\n        /* \"#utility.yul\":32318:32324   */\n      dup3\n        /* \"#utility.yul\":32314:32331   */\n      mul\n        /* \"#utility.yul\":32298:32312   */\n      calldatasize\n        /* \"#utility.yul\":32294:32332   */\n      sub\n        /* \"#utility.yul\":32288:32292   */\n      dup4\n        /* \"#utility.yul\":32284:32333   */\n      sgt\n        /* \"#utility.yul\":32281:32417   */\n      iszero\n      tag_660\n      jumpi\n        /* \"#utility.yul\":32336:32415   */\n      tag_661\n      tag_662\n      jump\t// in\n    tag_661:\n        /* \"#utility.yul\":32281:32417   */\n    tag_660:\n        /* \"#utility.yul\":31790:32424   */\n      pop\n        /* \"#utility.yul\":31699:32424   */\n      swap3\n      pop\n      swap3\n      swap1\n      pop\n      jump\t// out\n        /* \"#utility.yul\":32430:32559   */\n    tag_289:\n        /* \"#utility.yul\":32464:32470   */\n      0x00\n        /* \"#utility.yul\":32491:32511   */\n      tag_664\n      tag_665\n      jump\t// in\n    tag_664:\n        /* \"#utility.yul\":32481:32511   */\n      swap1\n      pop\n        /* \"#utility.yul\":32520:32553   */\n      tag_666\n        /* \"#utility.yul\":32548:32552   */\n      dup3\n        /* \"#utility.yul\":32540:32546   */\n      dup3\n        /* \"#utility.yul\":32520:32553   */\n      tag_667\n      jump\t// in\n    tag_666:\n        /* \"#utility.yul\":32430:32559   */\n      swap2\n      swap1\n      pop\n      jump\t// out\n        /* \"#utility.yul\":32565:32640   */\n    tag_665:\n        /* \"#utility.yul\":32598:32604   */\n      0x00\n        /* \"#utility.yul\":32631:32633   */\n      0x40\n        /* \"#utility.yul\":32625:32634   */\n      mload\n        /* \"#utility.yul\":32615:32634   */\n      swap1\n      pop\n        /* \"#utility.yul\":32565:32640   */\n      swap1\n      jump\t// out\n        /* \"#utility.yul\":32646:32957   */\n    tag_288:\n        /* \"#utility.yul\":32723:32727   */\n      0x00\n        /* \"#utility.yul\":32813:32831   */\n      0xffffffffffffffff\n        /* \"#utility.yul\":32805:32811   */\n      dup3\n        /* \"#utility.yul\":32802:32832   */\n      gt\n        /* \"#utility.yul\":32799:32855   */\n      iszero\n      tag_670\n      jumpi\n        /* \"#utility.yul\":32835:32853   */\n      tag_671\n      tag_672\n      jump\t// in\n    tag_671:\n        /* \"#utility.yul\":32799:32855   */\n    tag_670:\n        /* \"#utility.yul\":32885:32889   */\n      0x20\n        /* \"#utility.yul\":32877:32883   */\n      dup3\n        /* \"#utility.yul\":32873:32890   */\n      mul\n        /* \"#utility.yul\":32865:32890   */\n      swap1\n      pop\n        /* \"#utility.yul\":32945:32949   */\n      0x20\n        /* \"#utility.yul\":32939:32943   */\n      dup2\n        /* \"#utility.yul\":32935:32950   */\n      add\n        /* \"#utility.yul\":32927:32950   */\n      swap1\n      pop\n        /* \"#utility.yul\":32646:32957   */\n      swap2\n      swap1\n      pop\n      jump\t// out\n        /* \"#utility.yul\":32963:33284   */\n    tag_302:\n        /* \"#utility.yul\":33050:33054   */\n      0x00\n        /* \"#utility.yul\":33140:33158   */\n      0xffffffffffffffff\n        /* \"#utility.yul\":33132:33138   */\n      dup3\n        /* \"#utility.yul\":33129:33159   */\n      gt\n        /* \"#utility.yul\":33126:33182   */\n      iszero\n      tag_674\n      jumpi\n        /* \"#utility.yul\":33162:33180   */\n      tag_675\n      tag_672\n      jump\t// in\n    tag_675:\n        /* \"#utility.yul\":33126:33182   */\n    tag_674:\n        /* \"#utility.yul\":33212:33216   */\n      0x20\n        /* \"#utility.yul\":33204:33210   */\n      dup3\n        /* \"#utility.yul\":33200:33217   */\n      mul\n        /* \"#utility.yul\":33192:33217   */\n      swap1\n      pop\n        /* \"#utility.yul\":33272:33276   */\n      0x20\n        /* \"#utility.yul\":33266:33270   */\n      dup2\n        /* \"#utility.yul\":33262:33277   */\n      add\n        /* \"#utility.yul\":33254:33277   */\n      swap1\n      pop\n        /* \"#utility.yul\":32963:33284   */\n      swap2\n      swap1\n      pop\n      jump\t// out\n        /* \"#utility.yul\":33290:33601   */\n    tag_317:\n        /* \"#utility.yul\":33367:33371   */\n      0x00\n        /* \"#utility.yul\":33457:33475   */\n      0xffffffffffffffff\n        /* \"#utility.yul\":33449:33455   */\n      dup3\n        /* \"#utility.yul\":33446:33476   */\n      gt\n        /* \"#utility.yul\":33443:33499   */\n      iszero\n      tag_677\n      jumpi\n        /* \"#utility.yul\":33479:33497   */\n      tag_678\n      tag_672\n      jump\t// in\n    tag_678:\n        /* \"#utility.yul\":33443:33499   */\n    tag_677:\n        /* \"#utility.yul\":33529:33533   */\n      0x20\n        /* \"#utility.yul\":33521:33527   */\n      dup3\n        /* \"#utility.yul\":33517:33534   */\n      mul\n        /* \"#utility.yul\":33509:33534   */\n      swap1\n      pop\n        /* \"#utility.yul\":33589:33593   */\n      0x20\n        /* \"#utility.yul\":33583:33587   */\n      dup2\n        /* \"#utility.yul\":33579:33594   */\n      add\n        /* \"#utility.yul\":33571:33594   */\n      swap1\n      pop\n        /* \"#utility.yul\":33290:33601   */\n      swap2\n      swap1\n      pop\n      jump\t// out\n        /* \"#utility.yul\":33607:33915   */\n    tag_329:\n        /* \"#utility.yul\":33669:33673   */\n      0x00\n        /* \"#utility.yul\":33759:33777   */\n      0xffffffffffffffff\n        /* \"#utility.yul\":33751:33757   */\n      dup3\n        /* \"#utility.yul\":33748:33778   */\n      gt\n        /* \"#utility.yul\":33745:33801   */\n      iszero\n      tag_680\n      jumpi\n        /* \"#utility.yul\":33781:33799   */\n      tag_681\n      tag_672\n      jump\t// in\n    tag_681:\n        /* \"#utility.yul\":33745:33801   */\n    tag_680:\n        /* \"#utility.yul\":33819:33848   */\n      tag_682\n        /* \"#utility.yul\":33841:33847   */\n      dup3\n        /* \"#utility.yul\":33819:33848   */\n      tag_462\n      jump\t// in\n    tag_682:\n        /* \"#utility.yul\":33811:33848   */\n      swap1\n      pop\n        /* \"#utility.yul\":33903:33907   */\n      0x20\n        /* \"#utility.yul\":33897:33901   */\n      dup2\n        /* \"#utility.yul\":33893:33908   */\n      add\n        /* \"#utility.yul\":33885:33908   */\n      swap1\n      pop\n        /* \"#utility.yul\":33607:33915   */\n      swap2\n      swap1\n      pop\n      jump\t// out\n        /* \"#utility.yul\":33921:34053   */\n    tag_432:\n        /* \"#utility.yul\":33988:33992   */\n      0x00\n        /* \"#utility.yul\":34011:34014   */\n      dup2\n        /* \"#utility.yul\":34003:34014   */\n      swap1\n      pop\n        /* \"#utility.yul\":34041:34045   */\n      0x20\n        /* \"#utility.yul\":34036:34039   */\n      dup3\n        /* \"#utility.yul\":34032:34046   */\n      add\n        /* \"#utility.yul\":34024:34046   */\n      swap1\n      pop\n        /* \"#utility.yul\":33921:34053   */\n      swap2\n      swap1\n      pop\n      jump\t// out\n        /* \"#utility.yul\":34059:34173   */\n    tag_444:\n        /* \"#utility.yul\":34140:34144   */\n      0x00\n        /* \"#utility.yul\":34163:34166   */\n      dup2\n        /* \"#utility.yul\":34155:34166   */\n      swap1\n      pop\n        /* \"#utility.yul\":34059:34173   */\n      swap2\n      swap1\n      pop\n      jump\t// out\n        /* \"#utility.yul\":34179:34320   */\n    tag_490:\n        /* \"#utility.yul\":34228:34232   */\n      0x00\n        /* \"#utility.yul\":34251:34254   */\n      dup2\n        /* \"#utility.yul\":34243:34254   */\n      swap1\n      pop\n        /* \"#utility.yul\":34274:34277   */\n      dup2\n        /* \"#utility.yul\":34271:34272   */\n      0x00\n        /* \"#utility.yul\":34264:34278   */\n      mstore\n        /* \"#utility.yul\":34308:34312   */\n      0x20\n        /* \"#utility.yul\":34305:34306   */\n      0x00\n        /* \"#utility.yul\":34295:34313   */\n      keccak256\n        /* \"#utility.yul\":34287:34313   */\n      swap1\n      pop\n        /* \"#utility.yul\":34179:34320   */\n      swap2\n      swap1\n      pop\n      jump\t// out\n        /* \"#utility.yul\":34326:34440   */\n    tag_428:\n        /* \"#utility.yul\":34393:34399   */\n      0x00\n        /* \"#utility.yul\":34427:34432   */\n      dup2\n        /* \"#utility.yul\":34421:34433   */\n      mload\n        /* \"#utility.yul\":34411:34433   */\n      swap1\n      pop\n        /* \"#utility.yul\":34326:34440   */\n      swap2\n      swap1\n      pop\n      jump\t// out\n        /* \"#utility.yul\":34446:34545   */\n    tag_471:\n        /* \"#utility.yul\":34498:34504   */\n      0x00\n        /* \"#utility.yul\":34532:34537   */\n      dup2\n        /* \"#utility.yul\":34526:34538   */\n      mload\n        /* \"#utility.yul\":34516:34538   */\n      swap1\n      pop\n        /* \"#utility.yul\":34446:34545   */\n      swap2\n      swap1\n      pop\n      jump\t// out\n        /* \"#utility.yul\":34551:34664   */\n    tag_438:\n        /* \"#utility.yul\":34621:34625   */\n      0x00\n        /* \"#utility.yul\":34653:34657   */\n      0x20\n        /* \"#utility.yul\":34648:34651   */\n      dup3\n        /* \"#utility.yul\":34644:34658   */\n      add\n        /* \"#utility.yul\":34636:34658   */\n      swap1\n      pop\n        /* \"#utility.yul\":34551:34664   */\n      swap2\n      swap1\n      pop\n      jump\t// out\n        /* \"#utility.yul\":34670:34797   */\n    tag_452:\n        /* \"#utility.yul\":34754:34758   */\n      0x00\n        /* \"#utility.yul\":34786:34790   */\n      0x20\n        /* \"#utility.yul\":34781:34784   */\n      dup3\n        /* \"#utility.yul\":34777:34791   */\n      add\n        /* \"#utility.yul\":34769:34791   */\n      swap1\n      pop\n        /* \"#utility.yul\":34670:34797   */\n      swap2\n      swap1\n      pop\n      jump\t// out\n        /* \"#utility.yul\":34803:34987   */\n    tag_430:\n        /* \"#utility.yul\":34902:34913   */\n      0x00\n        /* \"#utility.yul\":34936:34942   */\n      dup3\n        /* \"#utility.yul\":34931:34934   */\n      dup3\n        /* \"#utility.yul\":34924:34943   */\n      mstore\n        /* \"#utility.yul\":34976:34980   */\n      0x20\n        /* \"#utility.yul\":34971:34974   */\n      dup3\n        /* \"#utility.yul\":34967:34981   */\n      add\n        /* \"#utility.yul\":34952:34981   */\n      swap1\n      pop\n        /* \"#utility.yul\":34803:34987   */\n      swap3\n      swap2\n      pop\n      pop\n      jump\t// out\n        /* \"#utility.yul\":34993:35187   */\n    tag_442:\n        /* \"#utility.yul\":35102:35113   */\n      0x00\n        /* \"#utility.yul\":35136:35142   */\n      dup3\n        /* \"#utility.yul\":35131:35134   */\n      dup3\n        /* \"#utility.yul\":35124:35143   */\n      mstore\n        /* \"#utility.yul\":35176:35180   */\n      0x20\n        /* \"#utility.yul\":35171:35174   */\n      dup3\n        /* \"#utility.yul\":35167:35181   */\n      add\n        /* \"#utility.yul\":35152:35181   */\n      swap1\n      pop\n        /* \"#utility.yul\":34993:35187   */\n      swap3\n      swap2\n      pop\n      pop\n      jump\t// out\n        /* \"#utility.yul\":35193:35352   */\n    tag_459:\n        /* \"#utility.yul\":35267:35278   */\n      0x00\n        /* \"#utility.yul\":35301:35307   */\n      dup3\n        /* \"#utility.yul\":35296:35299   */\n      dup3\n        /* \"#utility.yul\":35289:35308   */\n      mstore\n        /* \"#utility.yul\":35341:35345   */\n      0x20\n        /* \"#utility.yul\":35336:35339   */\n      dup3\n        /* \"#utility.yul\":35332:35346   */\n      add\n        /* \"#utility.yul\":35317:35346   */\n      swap1\n      pop\n        /* \"#utility.yul\":35193:35352   */\n      swap3\n      swap2\n      pop\n      pop\n      jump\t// out\n        /* \"#utility.yul\":35358:35527   */\n    tag_473:\n        /* \"#utility.yul\":35442:35453   */\n      0x00\n        /* \"#utility.yul\":35476:35482   */\n      dup3\n        /* \"#utility.yul\":35471:35474   */\n      dup3\n        /* \"#utility.yul\":35464:35483   */\n      mstore\n        /* \"#utility.yul\":35516:35520   */\n      0x20\n        /* \"#utility.yul\":35511:35514   */\n      dup3\n        /* \"#utility.yul\":35507:35521   */\n      add\n        /* \"#utility.yul\":35492:35521   */\n      swap1\n      pop\n        /* \"#utility.yul\":35358:35527   */\n      swap3\n      swap2\n      pop\n      pop\n      jump\t// out\n        /* \"#utility.yul\":35533:35681   */\n    tag_466:\n        /* \"#utility.yul\":35635:35646   */\n      0x00\n        /* \"#utility.yul\":35672:35675   */\n      dup2\n        /* \"#utility.yul\":35657:35675   */\n      swap1\n      pop\n        /* \"#utility.yul\":35533:35681   */\n      swap3\n      swap2\n      pop\n      pop\n      jump\t// out\n        /* \"#utility.yul\":35687:36402   */\n    tag_449:\n        /* \"#utility.yul\":35752:35757   */\n      0x00\n        /* \"#utility.yul\":35759:35765   */\n      dup1\n        /* \"#utility.yul\":35815:35818   */\n      dup4\n        /* \"#utility.yul\":35802:35819   */\n      calldataload\n        /* \"#utility.yul\":35907:35908   */\n      0x01\n        /* \"#utility.yul\":35901:35905   */\n      0x20\n        /* \"#utility.yul\":35897:35909   */\n      sub\n        /* \"#utility.yul\":35886:35894   */\n      dup5\n        /* \"#utility.yul\":35870:35884   */\n      calldatasize\n        /* \"#utility.yul\":35866:35895   */\n      sub\n        /* \"#utility.yul\":35862:35910   */\n      sub\n        /* \"#utility.yul\":35842:35860   */\n      dup2\n        /* \"#utility.yul\":35838:35911   */\n      slt\n        /* \"#utility.yul\":35828:35996   */\n      tag_696\n      jumpi\n        /* \"#utility.yul\":35915:35994   */\n      tag_697\n      tag_698\n      jump\t// in\n    tag_697:\n        /* \"#utility.yul\":35828:35996   */\n    tag_696:\n        /* \"#utility.yul\":36038:36046   */\n      dup4\n        /* \"#utility.yul\":36018:36036   */\n      dup2\n        /* \"#utility.yul\":36014:36047   */\n      add\n        /* \"#utility.yul\":36005:36047   */\n      swap3\n      pop\n        /* \"#utility.yul\":36080:36085   */\n      dup3\n        /* \"#utility.yul\":36067:36086   */\n      calldataload\n        /* \"#utility.yul\":36057:36086   */\n      swap2\n      pop\n        /* \"#utility.yul\":36115:36119   */\n      0x20\n        /* \"#utility.yul\":36108:36113   */\n      dup4\n        /* \"#utility.yul\":36104:36120   */\n      add\n        /* \"#utility.yul\":36095:36120   */\n      swap3\n      pop\n        /* \"#utility.yul\":36143:36161   */\n      0xffffffffffffffff\n        /* \"#utility.yul\":36135:36141   */\n      dup3\n        /* \"#utility.yul\":36132:36162   */\n      gt\n        /* \"#utility.yul\":36129:36246   */\n      iszero\n      tag_699\n      jumpi\n        /* \"#utility.yul\":36165:36244   */\n      tag_700\n      tag_701\n      jump\t// in\n    tag_700:\n        /* \"#utility.yul\":36129:36246   */\n    tag_699:\n        /* \"#utility.yul\":36304:36308   */\n      0x01\n        /* \"#utility.yul\":36296:36302   */\n      dup3\n        /* \"#utility.yul\":36292:36309   */\n      mul\n        /* \"#utility.yul\":36276:36290   */\n      calldatasize\n        /* \"#utility.yul\":36272:36310   */\n      sub\n        /* \"#utility.yul\":36262:36270   */\n      dup5\n        /* \"#utility.yul\":36258:36311   */\n      sgt\n        /* \"#utility.yul\":36255:36395   */\n      iszero\n      tag_702\n      jumpi\n        /* \"#utility.yul\":36314:36393   */\n      tag_703\n      tag_704\n      jump\t// in\n    tag_703:\n        /* \"#utility.yul\":36255:36395   */\n    tag_702:\n        /* \"#utility.yul\":35766:36402   */\n      pop\n        /* \"#utility.yul\":35687:36402   */\n      swap3\n      pop\n      swap3\n      swap1\n      pop\n      jump\t// out\n        /* \"#utility.yul\":36408:36650   */\n    tag_242:\n        /* \"#utility.yul\":36447:36450   */\n      0x00\n        /* \"#utility.yul\":36466:36485   */\n      tag_706\n        /* \"#utility.yul\":36483:36484   */\n      dup3\n        /* \"#utility.yul\":36466:36485   */\n      tag_576\n      jump\t// in\n    tag_706:\n        /* \"#utility.yul\":36461:36485   */\n      swap2\n      pop\n        /* \"#utility.yul\":36499:36518   */\n      tag_707\n        /* \"#utility.yul\":36516:36517   */\n      dup4\n        /* \"#utility.yul\":36499:36518   */\n      tag_576\n      jump\t// in\n    tag_707:\n        /* \"#utility.yul\":36494:36518   */\n      swap3\n      pop\n        /* \"#utility.yul\":36592:36593   */\n      dup3\n        /* \"#utility.yul\":36584:36590   */\n      0xffff\n        /* \"#utility.yul\":36580:36594   */\n      sub\n        /* \"#utility.yul\":36577:36578   */\n      dup3\n        /* \"#utility.yul\":36574:36595   */\n      gt\n        /* \"#utility.yul\":36571:36618   */\n      iszero\n      tag_708\n      jumpi\n        /* \"#utility.yul\":36598:36616   */\n      tag_709\n      tag_710\n      jump\t// in\n    tag_709:\n        /* \"#utility.yul\":36571:36618   */\n    tag_708:\n        /* \"#utility.yul\":36642:36643   */\n      dup3\n        /* \"#utility.yul\":36639:36640   */\n      dup3\n        /* \"#utility.yul\":36635:36644   */\n      add\n        /* \"#utility.yul\":36628:36644   */\n      swap1\n      pop\n        /* \"#utility.yul\":36408:36650   */\n      swap3\n      swap2\n      pop\n      pop\n      jump\t// out\n        /* \"#utility.yul\":36656:36961   */\n    tag_134:\n        /* \"#utility.yul\":36696:36699   */\n      0x00\n        /* \"#utility.yul\":36715:36735   */\n      tag_712\n        /* \"#utility.yul\":36733:36734   */\n      dup3\n        /* \"#utility.yul\":36715:36735   */\n      tag_580\n      jump\t// in\n    tag_712:\n        /* \"#utility.yul\":36710:36735   */\n      swap2\n      pop\n        /* \"#utility.yul\":36749:36769   */\n      tag_713\n        /* \"#utility.yul\":36767:36768   */\n      dup4\n        /* \"#utility.yul\":36749:36769   */\n      tag_580\n      jump\t// in\n    tag_713:\n        /* \"#utility.yul\":36744:36769   */\n      swap3\n      pop\n        /* \"#utility.yul\":36903:36904   */\n      dup3\n        /* \"#utility.yul\":36835:36901   */\n      0xffffffffffffffffffffffffffffffffffffffffffffffffffffffffffffffff\n        /* \"#utility.yul\":36831:36905   */\n      sub\n        /* \"#utility.yul\":36828:36829   */\n      dup3\n        /* \"#utility.yul\":36825:36906   */\n      gt\n        /* \"#utility.yul\":36822:36929   */\n      iszero\n      tag_714\n      jumpi\n        /* \"#utility.yul\":36909:36927   */\n      tag_715\n      tag_710\n      jump\t// in\n    tag_715:\n        /* \"#utility.yul\":36822:36929   */\n    tag_714:\n        /* \"#utility.yul\":36953:36954   */\n      dup3\n        /* \"#utility.yul\":36950:36951   */\n      dup3\n        /* \"#utility.yul\":36946:36955   */\n      add\n        /* \"#utility.yul\":36939:36955   */\n      swap1\n      pop\n        /* \"#utility.yul\":36656:36961   */\n      swap3\n      swap2\n      pop\n      pop\n      jump\t// out\n        /* \"#utility.yul\":36967:37315   */\n    tag_132:\n        /* \"#utility.yul\":37007:37014   */\n      0x00\n        /* \"#utility.yul\":37030:37050   */\n      tag_717\n        /* \"#utility.yul\":37048:37049   */\n      dup3\n        /* \"#utility.yul\":37030:37050   */\n      tag_580\n      jump\t// in\n    tag_717:\n        /* \"#utility.yul\":37025:37050   */\n      swap2\n      pop\n        /* \"#utility.yul\":37064:37084   */\n      tag_718\n        /* \"#utility.yul\":37082:37083   */\n      dup4\n        /* \"#utility.yul\":37064:37084   */\n      tag_580\n      jump\t// in\n    tag_718:\n        /* \"#utility.yul\":37059:37084   */\n      swap3\n      pop\n        /* \"#utility.yul\":37252:37253   */\n      dup2\n        /* \"#utility.yul\":37184:37250   */\n      0xffffffffffffffffffffffffffffffffffffffffffffffffffffffffffffffff\n        /* \"#utility.yul\":37180:37254   */\n      div\n        /* \"#utility.yul\":37177:37178   */\n      dup4\n        /* \"#utility.yul\":37174:37255   */\n      gt\n        /* \"#utility.yul\":37169:37170   */\n      dup3\n        /* \"#utility.yul\":37162:37171   */\n      iszero\n        /* \"#utility.yul\":37155:37172   */\n      iszero\n        /* \"#utility.yul\":37151:37256   */\n      and\n        /* \"#utility.yul\":37148:37279   */\n      iszero\n      tag_719\n      jumpi\n        /* \"#utility.yul\":37259:37277   */\n      tag_720\n      tag_710\n      jump\t// in\n    tag_720:\n        /* \"#utility.yul\":37148:37279   */\n    tag_719:\n        /* \"#utility.yul\":37307:37308   */\n      dup3\n        /* \"#utility.yul\":37304:37305   */\n      dup3\n        /* \"#utility.yul\":37300:37309   */\n      mul\n        /* \"#utility.yul\":37289:37309   */\n      swap1\n      pop\n        /* \"#utility.yul\":36967:37315   */\n      swap3\n      swap2\n      pop\n      pop\n      jump\t// out\n        /* \"#utility.yul\":37321:37417   */\n    tag_421:\n        /* \"#utility.yul\":37358:37365   */\n      0x00\n        /* \"#utility.yul\":37387:37411   */\n      tag_722\n        /* \"#utility.yul\":37405:37410   */\n      dup3\n        /* \"#utility.yul\":37387:37411   */\n      tag_723\n      jump\t// in\n    tag_722:\n        /* \"#utility.yul\":37376:37411   */\n      swap1\n      pop\n        /* \"#utility.yul\":37321:37417   */\n      swap2\n      swap1\n      pop\n      jump\t// out\n        /* \"#utility.yul\":37423:37513   */\n    tag_456:\n        /* \"#utility.yul\":37457:37464   */\n      0x00\n        /* \"#utility.yul\":37500:37505   */\n      dup2\n        /* \"#utility.yul\":37493:37506   */\n      iszero\n        /* \"#utility.yul\":37486:37507   */\n      iszero\n        /* \"#utility.yul\":37475:37507   */\n      swap1\n      pop\n        /* \"#utility.yul\":37423:37513   */\n      swap2\n      swap1\n      pop\n      jump\t// out\n        /* \"#utility.yul\":37519:37637   */\n    tag_572:\n        /* \"#utility.yul\":37556:37563   */\n      0x00\n        /* \"#utility.yul\":37596:37630   */\n      0xffffffffffffffffffffffffffffffff\n        /* \"#utility.yul\":37589:37594   */\n      dup3\n        /* \"#utility.yul\":37585:37631   */\n      and\n        /* \"#utility.yul\":37574:37631   */\n      swap1\n      pop\n        /* \"#utility.yul\":37519:37637   */\n      swap2\n      swap1\n      pop\n      jump\t// out\n        /* \"#utility.yul\":37643:37732   */\n    tag_576:\n        /* \"#utility.yul\":37679:37686   */\n      0x00\n        /* \"#utility.yul\":37719:37725   */\n      0xffff\n        /* \"#utility.yul\":37712:37717   */\n      dup3\n        /* \"#utility.yul\":37708:37726   */\n      and\n        /* \"#utility.yul\":37697:37726   */\n      swap1\n      pop\n        /* \"#utility.yul\":37643:37732   */\n      swap2\n      swap1\n      pop\n      jump\t// out\n        /* \"#utility.yul\":37738:37864   */\n    tag_723:\n        /* \"#utility.yul\":37775:37782   */\n      0x00\n        /* \"#utility.yul\":37815:37857   */\n      0xffffffffffffffffffffffffffffffffffffffff\n        /* \"#utility.yul\":37808:37813   */\n      dup3\n        /* \"#utility.yul\":37804:37858   */\n      and\n        /* \"#utility.yul\":37793:37858   */\n      swap1\n      pop\n        /* \"#utility.yul\":37738:37864   */\n      swap2\n      swap1\n      pop\n      jump\t// out\n        /* \"#utility.yul\":37870:37947   */\n    tag_580:\n        /* \"#utility.yul\":37907:37914   */\n      0x00\n        /* \"#utility.yul\":37936:37941   */\n      dup2\n        /* \"#utility.yul\":37925:37941   */\n      swap1\n      pop\n        /* \"#utility.yul\":37870:37947   */\n      swap2\n      swap1\n      pop\n      jump\t// out\n        /* \"#utility.yul\":37953:38039   */\n    tag_584:\n        /* \"#utility.yul\":37988:37995   */\n      0x00\n        /* \"#utility.yul\":38028:38032   */\n      0xff\n        /* \"#utility.yul\":38021:38026   */\n      dup3\n        /* \"#utility.yul\":38017:38033   */\n      and\n        /* \"#utility.yul\":38006:38033   */\n      swap1\n      pop\n        /* \"#utility.yul\":37953:38039   */\n      swap2\n      swap1\n      pop\n      jump\t// out\n        /* \"#utility.yul\":38045:38199   */\n    tag_334:\n        /* \"#utility.yul\":38129:38135   */\n      dup3\n        /* \"#utility.yul\":38124:38127   */\n      dup2\n        /* \"#utility.yul\":38119:38122   */\n      dup4\n        /* \"#utility.yul\":38106:38136   */\n      calldatacopy\n        /* \"#utility.yul\":38191:38192   */\n      0x00\n        /* \"#utility.yul\":38182:38188   */\n      dup4\n        /* \"#utility.yul\":38177:38180   */\n      dup4\n        /* \"#utility.yul\":38173:38189   */\n      add\n        /* \"#utility.yul\":38166:38193   */\n      mstore\n        /* \"#utility.yul\":38045:38199   */\n      pop\n      pop\n      pop\n      jump\t// out\n        /* \"#utility.yul\":38205:38512   */\n    tag_475:\n        /* \"#utility.yul\":38273:38274   */\n      0x00\n        /* \"#utility.yul\":38283:38396   */\n    tag_732:\n        /* \"#utility.yul\":38297:38303   */\n      dup4\n        /* \"#utility.yul\":38294:38295   */\n      dup2\n        /* \"#utility.yul\":38291:38304   */\n      lt\n        /* \"#utility.yul\":38283:38396   */\n      iszero\n      tag_734\n      jumpi\n        /* \"#utility.yul\":38382:38383   */\n      dup1\n        /* \"#utility.yul\":38377:38380   */\n      dup3\n        /* \"#utility.yul\":38373:38384   */\n      add\n        /* \"#utility.yul\":38367:38385   */\n      mload\n        /* \"#utility.yul\":38363:38364   */\n      dup2\n        /* \"#utility.yul\":38358:38361   */\n      dup5\n        /* \"#utility.yul\":38354:38365   */\n      add\n        /* \"#utility.yul\":38347:38386   */\n      mstore\n        /* \"#utility.yul\":38319:38321   */\n      0x20\n        /* \"#utility.yul\":38316:38317   */\n      dup2\n        /* \"#utility.yul\":38312:38322   */\n      add\n        /* \"#utility.yul\":38307:38322   */\n      swap1\n      pop\n        /* \"#utility.yul\":38283:38396   */\n      jump(tag_732)\n    tag_734:\n        /* \"#utility.yul\":38414:38420   */\n      dup4\n        /* \"#utility.yul\":38411:38412   */\n      dup2\n        /* \"#utility.yul\":38408:38421   */\n      gt\n        /* \"#utility.yul\":38405:38506   */\n      iszero\n      tag_735\n      jumpi\n        /* \"#utility.yul\":38494:38495   */\n      0x00\n        /* \"#utility.yul\":38485:38491   */\n      dup5\n        /* \"#utility.yul\":38480:38483   */\n      dup5\n        /* \"#utility.yul\":38476:38492   */\n      add\n        /* \"#utility.yul\":38469:38496   */\n      mstore\n        /* \"#utility.yul\":38405:38506   */\n    tag_735:\n        /* \"#utility.yul\":38254:38512   */\n      pop\n        /* \"#utility.yul\":38205:38512   */\n      pop\n      pop\n      pop\n      jump\t// out\n        /* \"#utility.yul\":38518:38838   */\n    tag_59:\n        /* \"#utility.yul\":38562:38568   */\n      0x00\n        /* \"#utility.yul\":38599:38600   */\n      0x02\n        /* \"#utility.yul\":38593:38597   */\n      dup3\n        /* \"#utility.yul\":38589:38601   */\n      div\n        /* \"#utility.yul\":38579:38601   */\n      swap1\n      pop\n        /* \"#utility.yul\":38646:38647   */\n      0x01\n        /* \"#utility.yul\":38640:38644   */\n      dup3\n        /* \"#utility.yul\":38636:38648   */\n      and\n        /* \"#utility.yul\":38667:38685   */\n      dup1\n        /* \"#utility.yul\":38657:38738   */\n      tag_737\n      jumpi\n        /* \"#utility.yul\":38723:38727   */\n      0x7f\n        /* \"#utility.yul\":38715:38721   */\n      dup3\n        /* \"#utility.yul\":38711:38728   */\n      and\n        /* \"#utility.yul\":38701:38728   */\n      swap2\n      pop\n        /* \"#utility.yul\":38657:38738   */\n    tag_737:\n        /* \"#utility.yul\":38785:38787   */\n      0x20\n        /* \"#utility.yul\":38777:38783   */\n      dup3\n        /* \"#utility.yul\":38774:38788   */\n      lt\n        /* \"#utility.yul\":38754:38772   */\n      dup2\n        /* \"#utility.yul\":38751:38789   */\n      eq\n        /* \"#utility.yul\":38748:38832   */\n      iszero\n      tag_738\n      jumpi\n        /* \"#utility.yul\":38804:38822   */\n      tag_739\n      tag_740\n      jump\t// in\n    tag_739:\n        /* \"#utility.yul\":38748:38832   */\n    tag_738:\n        /* \"#utility.yul\":38569:38838   */\n      pop\n        /* \"#utility.yul\":38518:38838   */\n      swap2\n      swap1\n      pop\n      jump\t// out\n        /* \"#utility.yul\":38844:39125   */\n    tag_667:\n        /* \"#utility.yul\":38927:38954   */\n      tag_742\n        /* \"#utility.yul\":38949:38953   */\n      dup3\n        /* \"#utility.yul\":38927:38954   */\n      tag_462\n      jump\t// in\n    tag_742:\n        /* \"#utility.yul\":38919:38925   */\n      dup2\n        /* \"#utility.yul\":38915:38955   */\n      add\n        /* \"#utility.yul\":39057:39063   */\n      dup2\n        /* \"#utility.yul\":39045:39055   */\n      dup2\n        /* \"#utility.yul\":39042:39064   */\n      lt\n        /* \"#utility.yul\":39021:39039   */\n      0xffffffffffffffff\n        /* \"#utility.yul\":39009:39019   */\n      dup3\n        /* \"#utility.yul\":39006:39040   */\n      gt\n        /* \"#utility.yul\":39003:39065   */\n      or\n        /* \"#utility.yul\":39000:39088   */\n      iszero\n      tag_743\n      jumpi\n        /* \"#utility.yul\":39068:39086   */\n      tag_744\n      tag_672\n      jump\t// in\n    tag_744:\n        /* \"#utility.yul\":39000:39088   */\n    tag_743:\n        /* \"#utility.yul\":39108:39118   */\n      dup1\n        /* \"#utility.yul\":39104:39106   */\n      0x40\n        /* \"#utility.yul\":39097:39119   */\n      mstore\n        /* \"#utility.yul\":38887:39125   */\n      pop\n        /* \"#utility.yul\":38844:39125   */\n      pop\n      pop\n      jump\t// out\n        /* \"#utility.yul\":39131:39332   */\n    tag_188:\n        /* \"#utility.yul\":39170:39173   */\n      0x00\n        /* \"#utility.yul\":39193:39217   */\n      tag_746\n        /* \"#utility.yul\":39211:39216   */\n      dup3\n        /* \"#utility.yul\":39193:39217   */\n      tag_572\n      jump\t// in\n    tag_746:\n        /* \"#utility.yul\":39184:39217   */\n      swap2\n      pop\n        /* \"#utility.yul\":39239:39273   */\n      0xffffffffffffffffffffffffffffffff\n        /* \"#utility.yul\":39232:39237   */\n      dup3\n        /* \"#utility.yul\":39229:39274   */\n      eq\n        /* \"#utility.yul\":39226:39297   */\n      iszero\n      tag_747\n      jumpi\n        /* \"#utility.yul\":39277:39295   */\n      tag_748\n      tag_710\n      jump\t// in\n    tag_748:\n        /* \"#utility.yul\":39226:39297   */\n    tag_747:\n        /* \"#utility.yul\":39324:39325   */\n      0x01\n        /* \"#utility.yul\":39317:39322   */\n      dup3\n        /* \"#utility.yul\":39313:39326   */\n      add\n        /* \"#utility.yul\":39306:39326   */\n      swap1\n      pop\n        /* \"#utility.yul\":39131:39332   */\n      swap2\n      swap1\n      pop\n      jump\t// out\n        /* \"#utility.yul\":39338:39509   */\n    tag_214:\n        /* \"#utility.yul\":39376:39379   */\n      0x00\n        /* \"#utility.yul\":39399:39422   */\n      tag_750\n        /* \"#utility.yul\":39416:39421   */\n      dup3\n        /* \"#utility.yul\":39399:39422   */\n      tag_576\n      jump\t// in\n    tag_750:\n        /* \"#utility.yul\":39390:39422   */\n      swap2\n      pop\n        /* \"#utility.yul\":39444:39450   */\n      0xffff\n        /* \"#utility.yul\":39437:39442   */\n      dup3\n        /* \"#utility.yul\":39434:39451   */\n      eq\n        /* \"#utility.yul\":39431:39474   */\n      iszero\n      tag_751\n      jumpi\n        /* \"#utility.yul\":39454:39472   */\n      tag_752\n      tag_710\n      jump\t// in\n    tag_752:\n        /* \"#utility.yul\":39431:39474   */\n    tag_751:\n        /* \"#utility.yul\":39501:39502   */\n      0x01\n        /* \"#utility.yul\":39494:39499   */\n      dup3\n        /* \"#utility.yul\":39490:39503   */\n      add\n        /* \"#utility.yul\":39483:39503   */\n      swap1\n      pop\n        /* \"#utility.yul\":39338:39509   */\n      swap2\n      swap1\n      pop\n      jump\t// out\n        /* \"#utility.yul\":39515:39748   */\n    tag_83:\n        /* \"#utility.yul\":39554:39557   */\n      0x00\n        /* \"#utility.yul\":39577:39601   */\n      tag_754\n        /* \"#utility.yul\":39595:39600   */\n      dup3\n        /* \"#utility.yul\":39577:39601   */\n      tag_580\n      jump\t// in\n    tag_754:\n        /* \"#utility.yul\":39568:39601   */\n      swap2\n      pop\n        /* \"#utility.yul\":39623:39689   */\n      0xffffffffffffffffffffffffffffffffffffffffffffffffffffffffffffffff\n        /* \"#utility.yul\":39616:39621   */\n      dup3\n        /* \"#utility.yul\":39613:39690   */\n      eq\n        /* \"#utility.yul\":39610:39713   */\n      iszero\n      tag_755\n      jumpi\n        /* \"#utility.yul\":39693:39711   */\n      tag_756\n      tag_710\n      jump\t// in\n    tag_756:\n        /* \"#utility.yul\":39610:39713   */\n    tag_755:\n        /* \"#utility.yul\":39740:39741   */\n      0x01\n        /* \"#utility.yul\":39733:39738   */\n      dup3\n        /* \"#utility.yul\":39729:39742   */\n      add\n        /* \"#utility.yul\":39722:39742   */\n      swap1\n      pop\n        /* \"#utility.yul\":39515:39748   */\n      swap2\n      swap1\n      pop\n      jump\t// out\n        /* \"#utility.yul\":39754:39934   */\n    tag_710:\n        /* \"#utility.yul\":39802:39879   */\n      0x4e487b7100000000000000000000000000000000000000000000000000000000\n        /* \"#utility.yul\":39799:39800   */\n      0x00\n        /* \"#utility.yul\":39792:39880   */\n      mstore\n        /* \"#utility.yul\":39899:39903   */\n      0x11\n        /* \"#utility.yul\":39896:39897   */\n      0x04\n        /* \"#utility.yul\":39889:39904   */\n      mstore\n        /* \"#utility.yul\":39923:39927   */\n      0x24\n        /* \"#utility.yul\":39920:39921   */\n      0x00\n        /* \"#utility.yul\":39913:39928   */\n      revert\n        /* \"#utility.yul\":39940:40120   */\n    tag_740:\n        /* \"#utility.yul\":39988:40065   */\n      0x4e487b7100000000000000000000000000000000000000000000000000000000\n        /* \"#utility.yul\":39985:39986   */\n      0x00\n        /* \"#utility.yul\":39978:40066   */\n      mstore\n        /* \"#utility.yul\":40085:40089   */\n      0x22\n        /* \"#utility.yul\":40082:40083   */\n      0x04\n        /* \"#utility.yul\":40075:40090   */\n      mstore\n        /* \"#utility.yul\":40109:40113   */\n      0x24\n        /* \"#utility.yul\":40106:40107   */\n      0x00\n        /* \"#utility.yul\":40099:40114   */\n      revert\n        /* \"#utility.yul\":40126:40306   */\n    tag_94:\n        /* \"#utility.yul\":40174:40251   */\n      0x4e487b7100000000000000000000000000000000000000000000000000000000\n        /* \"#utility.yul\":40171:40172   */\n      0x00\n        /* \"#utility.yul\":40164:40252   */\n      mstore\n        /* \"#utility.yul\":40271:40275   */\n      0x32\n        /* \"#utility.yul\":40268:40269   */\n      0x04\n        /* \"#utility.yul\":40261:40276   */\n      mstore\n        /* \"#utility.yul\":40295:40299   */\n      0x24\n        /* \"#utility.yul\":40292:40293   */\n      0x00\n        /* \"#utility.yul\":40285:40300   */\n      revert\n        /* \"#utility.yul\":40312:40492   */\n    tag_672:\n        /* \"#utility.yul\":40360:40437   */\n      0x4e487b7100000000000000000000000000000000000000000000000000000000\n        /* \"#utility.yul\":40357:40358   */\n      0x00\n        /* \"#utility.yul\":40350:40438   */\n      mstore\n        /* \"#utility.yul\":40457:40461   */\n      0x41\n        /* \"#utility.yul\":40454:40455   */\n      0x04\n        /* \"#utility.yul\":40447:40462   */\n      mstore\n        /* \"#utility.yul\":40481:40485   */\n      0x24\n        /* \"#utility.yul\":40478:40479   */\n      0x00\n        /* \"#utility.yul\":40471:40486   */\n      revert\n        /* \"#utility.yul\":40498:40615   */\n    tag_701:\n        /* \"#utility.yul\":40607:40608   */\n      0x00\n        /* \"#utility.yul\":40604:40605   */\n      dup1\n        /* \"#utility.yul\":40597:40609   */\n      revert\n        /* \"#utility.yul\":40621:40738   */\n    tag_349:\n        /* \"#utility.yul\":40730:40731   */\n      0x00\n        /* \"#utility.yul\":40727:40728   */\n      dup1\n        /* \"#utility.yul\":40720:40732   */\n      revert\n        /* \"#utility.yul\":40744:40861   */\n    tag_310:\n        /* \"#utility.yul\":40853:40854   */\n      0x00\n        /* \"#utility.yul\":40850:40851   */\n      dup1\n        /* \"#utility.yul\":40843:40855   */\n      revert\n        /* \"#utility.yul\":40867:40984   */\n    tag_659:\n        /* \"#utility.yul\":40976:40977   */\n      0x00\n        /* \"#utility.yul\":40973:40974   */\n      dup1\n        /* \"#utility.yul\":40966:40978   */\n      revert\n        /* \"#utility.yul\":40990:41107   */\n    tag_656:\n        /* \"#utility.yul\":41099:41100   */\n      0x00\n        /* \"#utility.yul\":41096:41097   */\n      dup1\n        /* \"#utility.yul\":41089:41101   */\n      revert\n        /* \"#utility.yul\":41113:41230   */\n    tag_704:\n        /* \"#utility.yul\":41222:41223   */\n      0x00\n        /* \"#utility.yul\":41219:41220   */\n      dup1\n        /* \"#utility.yul\":41212:41224   */\n      revert\n        /* \"#utility.yul\":41236:41353   */\n    tag_292:\n        /* \"#utility.yul\":41345:41346   */\n      0x00\n        /* \"#utility.yul\":41342:41343   */\n      dup1\n        /* \"#utility.yul\":41335:41347   */\n      revert\n        /* \"#utility.yul\":41359:41476   */\n    tag_662:\n        /* \"#utility.yul\":41468:41469   */\n      0x00\n        /* \"#utility.yul\":41465:41466   */\n      dup1\n        /* \"#utility.yul\":41458:41470   */\n      revert\n        /* \"#utility.yul\":41482:41599   */\n    tag_332:\n        /* \"#utility.yul\":41591:41592   */\n      0x00\n        /* \"#utility.yul\":41588:41589   */\n      dup1\n        /* \"#utility.yul\":41581:41593   */\n      revert\n        /* \"#utility.yul\":41605:41722   */\n    tag_389:\n        /* \"#utility.yul\":41714:41715   */\n      0x00\n        /* \"#utility.yul\":41711:41712   */\n      dup1\n        /* \"#utility.yul\":41704:41716   */\n      revert\n        /* \"#utility.yul\":41728:41845   */\n    tag_698:\n        /* \"#utility.yul\":41837:41838   */\n      0x00\n        /* \"#utility.yul\":41834:41835   */\n      dup1\n        /* \"#utility.yul\":41827:41839   */\n      revert\n        /* \"#utility.yul\":41851:41968   */\n    tag_376:\n        /* \"#utility.yul\":41960:41961   */\n      0x00\n        /* \"#utility.yul\":41957:41958   */\n      dup1\n        /* \"#utility.yul\":41950:41962   */\n      revert\n        /* \"#utility.yul\":41974:42076   */\n    tag_462:\n        /* \"#utility.yul\":42015:42021   */\n      0x00\n        /* \"#utility.yul\":42066:42068   */\n      0x1f\n        /* \"#utility.yul\":42062:42069   */\n      not\n        /* \"#utility.yul\":42057:42059   */\n      0x1f\n        /* \"#utility.yul\":42050:42055   */\n      dup4\n        /* \"#utility.yul\":42046:42060   */\n      add\n        /* \"#utility.yul\":42042:42070   */\n      and\n        /* \"#utility.yul\":42032:42070   */\n      swap1\n      pop\n        /* \"#utility.yul\":41974:42076   */\n      swap2\n      swap1\n      pop\n      jump\t// out\n        /* \"#utility.yul\":42082:42250   */\n    tag_498:\n        /* \"#utility.yul\":42222:42242   */\n      0x50726f706f73616c3a20696e6163746976650000000000000000000000000000\n        /* \"#utility.yul\":42218:42219   */\n      0x00\n        /* \"#utility.yul\":42210:42216   */\n      dup3\n        /* \"#utility.yul\":42206:42220   */\n      add\n        /* \"#utility.yul\":42199:42243   */\n      mstore\n        /* \"#utility.yul\":42082:42250   */\n      pop\n      jump\t// out\n        /* \"#utility.yul\":42256:42487   */\n    tag_503:\n        /* \"#utility.yul\":42396:42430   */\n      0x456e642074696d652073686f756c642062652067726561746572207468616e20\n        /* \"#utility.yul\":42392:42393   */\n      0x00\n        /* \"#utility.yul\":42384:42390   */\n      dup3\n        /* \"#utility.yul\":42380:42394   */\n      add\n        /* \"#utility.yul\":42373:42431   */\n      mstore\n        /* \"#utility.yul\":42465:42479   */\n      0x63757272656e742074696d650000000000000000000000000000000000000000\n        /* \"#utility.yul\":42460:42462   */\n      0x20\n        /* \"#utility.yul\":42452:42458   */\n      dup3\n        /* \"#utility.yul\":42448:42463   */\n      add\n        /* \"#utility.yul\":42441:42480   */\n      mstore\n        /* \"#utility.yul\":42256:42487   */\n      pop\n      jump\t// out\n        /* \"#utility.yul\":42493:42656   */\n    tag_508:\n        /* \"#utility.yul\":42633:42648   */\n      0x616c726561647920766f74656400000000000000000000000000000000000000\n        /* \"#utility.yul\":42629:42630   */\n      0x00\n        /* \"#utility.yul\":42621:42627   */\n      dup3\n        /* \"#utility.yul\":42617:42631   */\n      add\n        /* \"#utility.yul\":42610:42649   */\n      mstore\n        /* \"#utility.yul\":42493:42656   */\n      pop\n      jump\t// out\n        /* \"#utility.yul\":42662:42839   */\n    tag_513:\n        /* \"#utility.yul\":42802:42831   */\n      0x50726f706f73616c3a20696e76616c69642063616e6469646174650000000000\n        /* \"#utility.yul\":42798:42799   */\n      0x00\n        /* \"#utility.yul\":42790:42796   */\n      dup3\n        /* \"#utility.yul\":42786:42800   */\n      add\n        /* \"#utility.yul\":42779:42832   */\n      mstore\n        /* \"#utility.yul\":42662:42839   */\n      pop\n      jump\t// out\n        /* \"#utility.yul\":42845:43067   */\n    tag_518:\n        /* \"#utility.yul\":42985:43019   */\n      0x6e6f7420612076616c696420766f74657220666f7220746869732070726f706f\n        /* \"#utility.yul\":42981:42982   */\n      0x00\n        /* \"#utility.yul\":42973:42979   */\n      dup3\n        /* \"#utility.yul\":42969:42983   */\n      add\n        /* \"#utility.yul\":42962:43020   */\n      mstore\n        /* \"#utility.yul\":43054:43059   */\n      0x73616c0000000000000000000000000000000000000000000000000000000000\n        /* \"#utility.yul\":43049:43051   */\n      0x20\n        /* \"#utility.yul\":43041:43047   */\n      dup3\n        /* \"#utility.yul\":43037:43052   */\n      add\n        /* \"#utility.yul\":43030:43060   */\n      mstore\n        /* \"#utility.yul\":42845:43067   */\n      pop\n      jump\t// out\n        /* \"#utility.yul\":43073:43243   */\n    tag_523:\n        /* \"#utility.yul\":43213:43235   */\n      0x70726f706f73616c206e6f742073746172746564000000000000000000000000\n        /* \"#utility.yul\":43209:43210   */\n      0x00\n        /* \"#utility.yul\":43201:43207   */\n      dup3\n        /* \"#utility.yul\":43197:43211   */\n      add\n        /* \"#utility.yul\":43190:43236   */\n      mstore\n        /* \"#utility.yul\":43073:43243   */\n      pop\n      jump\t// out\n        /* \"#utility.yul\":43249:43471   */\n    tag_528:\n        /* \"#utility.yul\":43389:43423   */\n      0x4e6f7420612076616c696420766f74657220666f7220746869732070726f706f\n        /* \"#utility.yul\":43385:43386   */\n      0x00\n        /* \"#utility.yul\":43377:43383   */\n      dup3\n        /* \"#utility.yul\":43373:43387   */\n      add\n        /* \"#utility.yul\":43366:43424   */\n      mstore\n        /* \"#utility.yul\":43458:43463   */\n      0x73616c0000000000000000000000000000000000000000000000000000000000\n        /* \"#utility.yul\":43453:43455   */\n      0x20\n        /* \"#utility.yul\":43445:43451   */\n      dup3\n        /* \"#utility.yul\":43441:43456   */\n      add\n        /* \"#utility.yul\":43434:43464   */\n      mstore\n        /* \"#utility.yul\":43249:43471   */\n      pop\n      jump\t// out\n        /* \"#utility.yul\":43477:43645   */\n    tag_533:\n        /* \"#utility.yul\":43617:43637   */\n      0x696e76616c69642070726f706f73616c49640000000000000000000000000000\n        /* \"#utility.yul\":43613:43614   */\n      0x00\n        /* \"#utility.yul\":43605:43611   */\n      dup3\n        /* \"#utility.yul\":43601:43615   */\n      add\n        /* \"#utility.yul\":43594:43638   */\n      mstore\n        /* \"#utility.yul\":43477:43645   */\n      pop\n      jump\t// out\n        /* \"#utility.yul\":43651:43873   */\n    tag_538:\n        /* \"#utility.yul\":43791:43825   */\n      0x6e6f742073756666696369656e742062616c616e636520746f20636173742076\n        /* \"#utility.yul\":43787:43788   */\n      0x00\n        /* \"#utility.yul\":43779:43785   */\n      dup3\n        /* \"#utility.yul\":43775:43789   */\n      add\n        /* \"#utility.yul\":43768:43826   */\n      mstore\n        /* \"#utility.yul\":43860:43865   */\n      0x6f74650000000000000000000000000000000000000000000000000000000000\n        /* \"#utility.yul\":43855:43857   */\n      0x20\n        /* \"#utility.yul\":43847:43853   */\n      dup3\n        /* \"#utility.yul\":43843:43858   */\n      add\n        /* \"#utility.yul\":43836:43866   */\n      mstore\n        /* \"#utility.yul\":43651:43873   */\n      pop\n      jump\t// out\n        /* \"#utility.yul\":43879:44108   */\n    tag_543:\n        /* \"#utility.yul\":44019:44053   */\n      0x456e642074696d652073686f756c642062652067726561746572207468616e20\n        /* \"#utility.yul\":44015:44016   */\n      0x00\n        /* \"#utility.yul\":44007:44013   */\n      dup3\n        /* \"#utility.yul\":44003:44017   */\n      add\n        /* \"#utility.yul\":43996:44054   */\n      mstore\n        /* \"#utility.yul\":44088:44100   */\n      0x73746172742074696d6500000000000000000000000000000000000000000000\n        /* \"#utility.yul\":44083:44085   */\n      0x20\n        /* \"#utility.yul\":44075:44081   */\n      dup3\n        /* \"#utility.yul\":44071:44086   */\n      add\n        /* \"#utility.yul\":44064:44101   */\n      mstore\n        /* \"#utility.yul\":43879:44108   */\n      pop\n      jump\t// out\n        /* \"#utility.yul\":44114:44337   */\n    tag_548:\n        /* \"#utility.yul\":44254:44288   */\n      0x6e6f7420612076616c6964206c656e677468206f66206861736820726573706f\n        /* \"#utility.yul\":44250:44251   */\n      0x00\n        /* \"#utility.yul\":44242:44248   */\n      dup3\n        /* \"#utility.yul\":44238:44252   */\n      add\n        /* \"#utility.yul\":44231:44289   */\n      mstore\n        /* \"#utility.yul\":44323:44329   */\n      0x6e73652100000000000000000000000000000000000000000000000000000000\n        /* \"#utility.yul\":44318:44320   */\n      0x20\n        /* \"#utility.yul\":44310:44316   */\n      dup3\n        /* \"#utility.yul\":44306:44321   */\n      add\n        /* \"#utility.yul\":44299:44330   */\n      mstore\n        /* \"#utility.yul\":44114:44337   */\n      pop\n      jump\t// out\n        /* \"#utility.yul\":44343:44497   */\n    tag_553:\n        /* \"#utility.yul\":44483:44489   */\n      0x6d696e7400000000000000000000000000000000000000000000000000000000\n        /* \"#utility.yul\":44479:44480   */\n      0x00\n        /* \"#utility.yul\":44471:44477   */\n      dup3\n        /* \"#utility.yul\":44467:44481   */\n      add\n        /* \"#utility.yul\":44460:44490   */\n      mstore\n        /* \"#utility.yul\":44343:44497   */\n      pop\n      jump\t// out\n        /* \"#utility.yul\":44503:44682   */\n    tag_558:\n        /* \"#utility.yul\":44643:44674   */\n      0x496e76616c696420766f74657220666f722070726f706f73616c496421000000\n        /* \"#utility.yul\":44639:44640   */\n      0x00\n        /* \"#utility.yul\":44631:44637   */\n      dup3\n        /* \"#utility.yul\":44627:44641   */\n      add\n        /* \"#utility.yul\":44620:44675   */\n      mstore\n        /* \"#utility.yul\":44503:44682   */\n      pop\n      jump\t// out\n        /* \"#utility.yul\":44688:44847   */\n    tag_563:\n        /* \"#utility.yul\":44828:44839   */\n      0x6e6f7420766f7465640000000000000000000000000000000000000000000000\n        /* \"#utility.yul\":44824:44825   */\n      0x00\n        /* \"#utility.yul\":44816:44822   */\n      dup3\n        /* \"#utility.yul\":44812:44826   */\n      add\n        /* \"#utility.yul\":44805:44840   */\n      mstore\n        /* \"#utility.yul\":44688:44847   */\n      pop\n      jump\t// out\n        /* \"#utility.yul\":44853:45034   */\n    tag_568:\n        /* \"#utility.yul\":44993:45026   */\n      0x45524332303a206d696e7420746f20746865207a65726f206164647265737300\n        /* \"#utility.yul\":44989:44990   */\n      0x00\n        /* \"#utility.yul\":44981:44987   */\n      dup3\n        /* \"#utility.yul\":44977:44991   */\n      add\n        /* \"#utility.yul\":44970:45027   */\n      mstore\n        /* \"#utility.yul\":44853:45034   */\n      pop\n      jump\t// out\n        /* \"#utility.yul\":45040:45162   */\n    tag_337:\n        /* \"#utility.yul\":45113:45137   */\n      tag_790\n        /* \"#utility.yul\":45131:45136   */\n      dup2\n        /* \"#utility.yul\":45113:45137   */\n      tag_421\n      jump\t// in\n    tag_790:\n        /* \"#utility.yul\":45106:45111   */\n      dup2\n        /* \"#utility.yul\":45103:45138   */\n      eq\n        /* \"#utility.yul\":45093:45156   */\n      tag_791\n      jumpi\n        /* \"#utility.yul\":45152:45153   */\n      0x00\n        /* \"#utility.yul\":45149:45150   */\n      dup1\n        /* \"#utility.yul\":45142:45154   */\n      revert\n        /* \"#utility.yul\":45093:45156   */\n    tag_791:\n        /* \"#utility.yul\":45040:45162   */\n      pop\n      jump\t// out\n        /* \"#utility.yul\":45168:45290   */\n    tag_368:\n        /* \"#utility.yul\":45241:45265   */\n      tag_793\n        /* \"#utility.yul\":45259:45264   */\n      dup2\n        /* \"#utility.yul\":45241:45265   */\n      tag_580\n      jump\t// in\n    tag_793:\n        /* \"#utility.yul\":45234:45239   */\n      dup2\n        /* \"#utility.yul\":45231:45266   */\n      eq\n        /* \"#utility.yul\":45221:45284   */\n      tag_794\n      jumpi\n        /* \"#utility.yul\":45280:45281   */\n      0x00\n        /* \"#utility.yul\":45277:45278   */\n      dup1\n        /* \"#utility.yul\":45270:45282   */\n      revert\n        /* \"#utility.yul\":45221:45284   */\n    tag_794:\n        /* \"#utility.yul\":45168:45290   */\n      pop\n      jump\t// out\n        /* \"#utility.yul\":45296:45414   */\n    tag_372:\n        /* \"#utility.yul\":45367:45389   */\n      tag_796\n        /* \"#utility.yul\":45383:45388   */\n      dup2\n        /* \"#utility.yul\":45367:45389   */\n      tag_584\n      jump\t// in\n    tag_796:\n        /* \"#utility.yul\":45360:45365   */\n      dup2\n        /* \"#utility.yul\":45357:45390   */\n      eq\n        /* \"#utility.yul\":45347:45408   */\n      tag_797\n      jumpi\n        /* \"#utility.yul\":45404:45405   */\n      0x00\n        /* \"#utility.yul\":45401:45402   */\n      dup1\n        /* \"#utility.yul\":45394:45406   */\n      revert\n        /* \"#utility.yul\":45347:45408   */\n    tag_797:\n        /* \"#utility.yul\":45296:45414   */\n      pop\n      jump\t// out\n\n    auxdata: 0xa264697066735822122000fcda40b0ebf1a60b254064b4ac8007231d7085da67a339102954a9f0a8175564736f6c63430008070033\n}\n",
				"bytecode": {
					"linkReferences": {},
					"object": "60806040523480156200001157600080fd5b506040518060400160405280600c81526020017f51566f74696e67546f6b656e00000000000000000000000000000000000000008152506040518060400160405280600281526020017f5176000000000000000000000000000000000000000000000000000000000000815250816002908051906020019062000096929190620000f9565b508060039080519060200190620000af929190620000f9565b50505033600460006101000a81548173ffffffffffffffffffffffffffffffffffffffff021916908373ffffffffffffffffffffffffffffffffffffffff1602179055506200020e565b8280546200010790620001a9565b90600052602060002090601f0160209004810192826200012b576000855562000177565b82601f106200014657805160ff191683800117855562000177565b8280016001018555821562000177579182015b828111156200017657825182559160200191906001019062000159565b5b5090506200018691906200018a565b5090565b5b80821115620001a55760008160009055506001016200018b565b5090565b60006002820490506001821680620001c257607f821691505b60208210811415620001d957620001d8620001df565b5b50919050565b7f4e487b7100000000000000000000000000000000000000000000000000000000600052602260045260246000fd5b613120806200021e6000396000f3fe608060405234801561001057600080fd5b506004361061009e5760003560e01c80635c230eee116100665780635c230eee1461014f57806370a082311461016b57806395d89b411461019b578063c3703048146101b9578063e745d68e146101ec5761009e565b8063013cf08b146100a357806306fdde03146100d957806318160ddd146100f7578063313ce567146101155780634de77e4814610133575b600080fd5b6100bd60048036038101906100b89190611cb8565b61021d565b6040516100d0979695949392919061238c565b60405180910390f35b6100e1610322565b6040516100ee9190612402565b60405180910390f35b6100ff6103b4565b60405161010c9190612649565b60405180910390f35b61011d6103be565b60405161012a919061272f565b60405180910390f35b61014d60048036038101906101489190611d84565b6103c7565b005b61016960048036038101906101649190611ce5565b6106de565b005b61018560048036038101906101809190611c8b565b610a84565b6040516101929190612649565b60405180910390f35b6101a3610acc565b6040516101b09190612402565b60405180910390f35b6101d360048036038101906101ce9190611c8b565b610b5e565b6040516101e39493929190612664565b60405180910390f35b61020660048036038101906102019190611c8b565b610bbb565b604051610214929190612620565b60405180910390f35b60076020528060005260406000206000915090508060000160009054906101000a900473ffffffffffffffffffffffffffffffffffffffff16908060000160149054906101000a900460ff169080600101805461027990612b41565b80601f01602080910402602001604051908101604052809291908181526020018280546102a590612b41565b80156102f25780601f106102c7576101008083540402835291602001916102f2565b820191906000526020600020905b8154815290600101906020018083116102d557829003601f168201915b5050505050908060020154908060030154908060040160009054906101000a900461ffff16908060050154905087565b60606002805461033190612b41565b80601f016020809104026020016040519081016040528092919081815260200182805461035d90612b41565b80156103aa5780601f1061037f576101008083540402835291602001916103aa565b820191906000526020600020905b81548152906001019060200180831161038d57829003601f168201915b5050505050905090565b6000600154905090565b60006012905090565b854210610409576040517f08c379a0000000000000000000000000000000000000000000000000000000008152600401610400906124c4565b60405180910390fd5b84421061044b576040517f08c379a000000000000000000000000000000000000000000000000000000000815260040161044290612444565b60405180910390fd5b84861061048d576040517f08c379a000000000000000000000000000000000000000000000000000000000815260040161048490612544565b60405180910390fd5b600560008154809291906104a090612c08565b91905055506104dc898989898989878a8a600760006005548152602001908152602001600020610c17909998979695949392919063ffffffff16565b507f239a8a71a7d1cb0d134f6cc072ad6390e36a88c8e78dff69013ee79528441e806005548989898989898960405161051c9897969594939291906126a9565b60405180910390a1600160096000600554815260200190815260200160002060006101000a81548160ff02191690831515021790555060005b88518110156106775761058289828151811061057457610573612caf565b5b602002602001015183610e49565b6106106005548a838151811061059b5761059a612caf565b5b6020026020010151600085600860008f88815181106105bd576105bc612caf565b5b602002602001015173ffffffffffffffffffffffffffffffffffffffff1673ffffffffffffffffffffffffffffffffffffffff168152602001908152602001600020610eba90949392919063ffffffff16565b507fabf5327be9f5825c40d58bda541dd07f09b62df3376bbd5ecdbaa8bd82a9d49289828151811061064557610644612caf565b5b60200260200101518360405161065c929190612584565b60405180910390a1808061066f90612c08565b915050610555565b506106d26005546006600061068a610f3a565b73ffffffffffffffffffffffffffffffffffffffff1673ffffffffffffffffffffffffffffffffffffffff168152602001908152602001600020610f4290919063ffffffff16565b50505050505050505050565b6009600085815260200190815260200160002060009054906101000a900460ff1661073e576040517f08c379a000000000000000000000000000000000000000000000000000000000815260040161073590612504565b60405180910390fd5b83600860008573ffffffffffffffffffffffffffffffffffffffff1673ffffffffffffffffffffffffffffffffffffffff16815260200190815260200160002060000154146107c2576040517f08c379a00000000000000000000000000000000000000000000000000000000081526004016107b9906124a4565b60405180910390fd5b600860008473ffffffffffffffffffffffffffffffffffffffff1673ffffffffffffffffffffffffffffffffffffffff16815260200190815260200160002060010160149054906101000a900460ff1615610852576040517f08c379a000000000000000000000000000000000000000000000000000000000815260040161084990612464565b60405180910390fd5b81516007600086815260200190815260200160002060040160009054906101000a900461ffff1661ffff16146108bd576040517f08c379a00000000000000000000000000000000000000000000000000000000081526004016108b490612564565b60405180910390fd5b6000805b825181101561092a578281815181106108dd576108dc612caf565b5b60200260200101518382815181106108f8576108f7612caf565b5b602002602001015161090a9190612a26565b8261091591906129d0565b9150808061092290612c08565b9150506108c1565b5080600860008673ffffffffffffffffffffffffffffffffffffffff1673ffffffffffffffffffffffffffffffffffffffff1681526020019081526020016000206002015410156109b0576040517f08c379a00000000000000000000000000000000000000000000000000000000081526004016109a790612524565b60405180910390fd5b6109d9848484600760008a8152602001908152602001600020611013909392919063ffffffff16565b50610a348584600660006109eb610f3a565b73ffffffffffffffffffffffffffffffffffffffff1673ffffffffffffffffffffffffffffffffffffffff1681526020019081526020016000206114829092919063ffffffff16565b50610a7c600860008673ffffffffffffffffffffffffffffffffffffffff1673ffffffffffffffffffffffffffffffffffffffff16815260200190815260200160002061160f565b505050505050565b60008060008373ffffffffffffffffffffffffffffffffffffffff1673ffffffffffffffffffffffffffffffffffffffff168152602001908152602001600020549050919050565b606060038054610adb90612b41565b80601f0160208091040260200160405190810160405280929190818152602001828054610b0790612b41565b8015610b545780601f10610b2957610100808354040283529160200191610b54565b820191906000526020600020905b815481529060010190602001808311610b3757829003601f168201915b5050505050905090565b60086020528060005260406000206000915090508060000154908060010160009054906101000a900473ffffffffffffffffffffffffffffffffffffffff16908060010160149054906101000a900460ff16908060020154905084565b60066020528060005260406000206000915090508060000160009054906101000a90046fffffffffffffffffffffffffffffffff16908060000160109054906101000a90046fffffffffffffffffffffffffffffffff16905082565b6000878b60000160006101000a81548173ffffffffffffffffffffffffffffffffffffffff021916908373ffffffffffffffffffffffffffffffffffffffff160217905550898b60000160146101000a81548160ff021916908360ff160217905550848b6001019080519060200190610c919291906117d8565b50868b60020181905550858b60030181905550828290508b60040160006101000a81548161ffff021916908361ffff160217905550838b6005018190555060005b83839050811015610da25760018c600701858584818110610cf657610cf5612caf565b5b9050602002810190610d08919061274a565b604051610d16929190612345565b908152602001604051809103902060006101000a81548160ff021916908315150217905550838382818110610d4e57610d4d612caf565b5b9050602002810190610d60919061274a565b8d6008016000600185610d7391906129d0565b81526020019081526020016000209190610d8e92919061185e565b508080610d9a90612c08565b915050610cd2565b5060005b8951811015610e365760018c60060160008c8481518110610dca57610dc9612caf565b5b602002602001015173ffffffffffffffffffffffffffffffffffffffff1673ffffffffffffffffffffffffffffffffffffffff16815260200190815260200160002060006101000a81548160ff0219169083151502179055508080610e2e90612c08565b915050610da6565b50600190509a9950505050505050505050565b610e51610f3a565b8073ffffffffffffffffffffffffffffffffffffffff16600460009054906101000a900473ffffffffffffffffffffffffffffffffffffffff1673ffffffffffffffffffffffffffffffffffffffff1614610eab57600080fd5b610eb583836116bd565b505050565b6000848660000181905550838660010160006101000a81548173ffffffffffffffffffffffffffffffffffffffff021916908373ffffffffffffffffffffffffffffffffffffffff160217905550828660010160146101000a81548160ff0219169083151502179055508186600201819055506001905095945050505050565b600033905090565b600082600001600081819054906101000a90046fffffffffffffffffffffffffffffffff1680929190610f7490612ba4565b91906101000a8154816fffffffffffffffffffffffffffffffff02191690836fffffffffffffffffffffffffffffffff16021790555050818360010160008560000160009054906101000a90046fffffffffffffffffffffffffffffffff166fffffffffffffffffffffffffffffffff166fffffffffffffffffffffffffffffffff168152602001908152602001600020819055506001905092915050565b600060028560000160149054906101000a900460ff1660ff161461106c576040517f08c379a000000000000000000000000000000000000000000000000000000000815260040161106390612424565b60405180910390fd5b84600301544211156112c25760028560000160146101000a81548160ff021916908360ff160217905550600085600a01866008016000600181526020019081526020016000206040516110bf9190612375565b9081526020016040518091039020549050600060019050866008016000600181526020019081526020016000208760090160006001815260200190815260200160002090805461110e90612b41565b6111199291906118e4565b506000600290505b8760040160009054906101000a900461ffff1661ffff168161ffff16116112b6578288600a018960080160008461ffff16815260200190815260200160002060405161116d9190612375565b908152602001604051809103902054111561120d5787600a018860080160008361ffff1681526020019081526020016000206040516111ac9190612375565b9081526020016040518091039020549250600191508760080160008261ffff168152602001908152602001600020886009016000600181526020019081526020016000209080546111fc90612b41565b6112079291906118e4565b506112a3565b8288600a018960080160008461ffff1681526020019081526020016000206040516112389190612375565b90815260200160405180910390205414156112a257818061125890612c08565b9250508760080160008261ffff16815260200190815260200160002088600901600084815260200190815260200160002090805461129590612b41565b6112a09291906118e4565b505b5b80806112ae90612bdd565b915050611121565b5060009250505061147a565b8460060160008573ffffffffffffffffffffffffffffffffffffffff1673ffffffffffffffffffffffffffffffffffffffff16815260200190815260200160002060009054906101000a900460ff16611350576040517f08c379a0000000000000000000000000000000000000000000000000000000008152600401611347906124e4565b60405180910390fd5b60005b8560040160009054906101000a900461ffff1661ffff168161ffff1610156114745785600701848261ffff16815181106113905761138f612caf565b5b60200260200101516040516113a5919061235e565b908152602001604051809103902060009054906101000a900460ff16611400576040517f08c379a00000000000000000000000000000000000000000000000000000000081526004016113f790612484565b60405180910390fd5b828161ffff168151811061141757611416612caf565b5b602002602001015186600a01858361ffff168151811061143a57611439612caf565b5b602002602001015160405161144f919061235e565b908152602001604051809103902081905550808061146c90612bdd565b915050611353565b50600190505b949350505050565b600083600001601081819054906101000a90046fffffffffffffffffffffffffffffffff16809291906114b490612ba4565b91906101000a8154816fffffffffffffffffffffffffffffffff02191690836fffffffffffffffffffffffffffffffff16021790555050828460020160008660000160109054906101000a90046fffffffffffffffffffffffffffffffff166fffffffffffffffffffffffffffffffff166fffffffffffffffffffffffffffffffff1681526020019081526020016000208190555060005b82518161ffff1610156115d557828161ffff16815181106115705761156f612caf565b5b6020026020010151856003016000868152602001908152602001600020600060018461159c9190612998565b61ffff16815260200190815260200160002090805190602001906115c19291906117d8565b5080806115cd90612bdd565b91505061154c565b50600184600401600085815260200190815260200160002060006101000a81548160ff021916908315150217905550600190509392505050565b60008082600001541415611658576040517f08c379a000000000000000000000000000000000000000000000000000000000815260040161164f906125c0565b60405180910390fd5b8160010160149054906101000a900460ff16156116aa576040517f08c379a00000000000000000000000000000000000000000000000000000000081526004016116a1906125e0565b60405180910390fd5b6000826002018190555060019050919050565b600073ffffffffffffffffffffffffffffffffffffffff168273ffffffffffffffffffffffffffffffffffffffff16141561172d576040517f08c379a000000000000000000000000000000000000000000000000000000000815260040161172490612600565b60405180910390fd5b806001600082825461173f91906129d0565b92505081905550806000808473ffffffffffffffffffffffffffffffffffffffff1673ffffffffffffffffffffffffffffffffffffffff168152602001908152602001600020600082825461179491906129d0565b925050819055507fabf5327be9f5825c40d58bda541dd07f09b62df3376bbd5ecdbaa8bd82a9d49282826040516117cc929190612584565b60405180910390a15050565b8280546117e490612b41565b90600052602060002090601f016020900481019282611806576000855561184d565b82601f1061181f57805160ff191683800117855561184d565b8280016001018555821561184d579182015b8281111561184c578251825591602001919060010190611831565b5b50905061185a9190611971565b5090565b82805461186a90612b41565b90600052602060002090601f01602090048101928261188c57600085556118d3565b82601f106118a557803560ff19168380011785556118d3565b828001600101855582156118d3579182015b828111156118d25782358255916020019190600101906118b7565b5b5090506118e09190611971565b5090565b8280546118f090612b41565b90600052602060002090601f0160209004810192826119125760008555611960565b82601f106119235780548555611960565b8280016001018555821561196057600052602060002091601f016020900482015b8281111561195f578254825591600101919060010190611944565b5b50905061196d9190611971565b5090565b5b8082111561198a576000816000905550600101611972565b5090565b60006119a161199c846127d2565b6127ad565b905080838252602082019050828560208602820111156119c4576119c3612d2b565b5b60005b858110156119f457816119da8882611b3e565b8452602084019350602083019250506001810190506119c7565b5050509392505050565b6000611a11611a0c846127fe565b6127ad565b90508083825260208201905082856020860282011115611a3457611a33612d2b565b5b60005b85811015611a8257813567ffffffffffffffff811115611a5a57611a59612d17565b5b808601611a678982611c33565b85526020850194506020840193505050600181019050611a37565b5050509392505050565b6000611a9f611a9a8461282a565b6127ad565b90508083825260208201905082856020860282011115611ac257611ac1612d2b565b5b60005b85811015611af25781611ad88882611c61565b845260208401935060208301925050600181019050611ac5565b5050509392505050565b6000611b0f611b0a84612856565b6127ad565b905082815260208101848484011115611b2b57611b2a612d35565b5b611b36848285612aff565b509392505050565b600081359050611b4d816130a5565b92915050565b600082601f830112611b6857611b67612d17565b5b8135611b7884826020860161198e565b91505092915050565b60008083601f840112611b9757611b96612d17565b5b8235905067ffffffffffffffff811115611bb457611bb3612d12565b5b602083019150836020820283011115611bd057611bcf612d2b565b5b9250929050565b600082601f830112611bec57611beb612d17565b5b8135611bfc8482602086016119fe565b91505092915050565b600082601f830112611c1a57611c19612d17565b5b8135611c2a848260208601611a8c565b91505092915050565b600082601f830112611c4857611c47612d17565b5b8135611c58848260208601611afc565b91505092915050565b600081359050611c70816130bc565b92915050565b600081359050611c85816130d3565b92915050565b600060208284031215611ca157611ca0612d44565b5b6000611caf84828501611b3e565b91505092915050565b600060208284031215611cce57611ccd612d44565b5b6000611cdc84828501611c61565b91505092915050565b60008060008060808587031215611cff57611cfe612d44565b5b6000611d0d87828801611c61565b9450506020611d1e87828801611b3e565b935050604085013567ffffffffffffffff811115611d3f57611d3e612d3a565b5b611d4b87828801611bd7565b925050606085013567ffffffffffffffff811115611d6c57611d6b612d3a565b5b611d7887828801611c05565b91505092959194509250565b60008060008060008060008060006101008a8c031215611da757611da6612d44565b5b6000611db58c828d01611c76565b99505060208a013567ffffffffffffffff811115611dd657611dd5612d3a565b5b611de28c828d01611b53565b9850506040611df38c828d01611b3e565b9750506060611e048c828d01611c61565b9650506080611e158c828d01611c61565b95505060a08a013567ffffffffffffffff811115611e3657611e35612d3a565b5b611e428c828d01611c33565b94505060c08a013567ffffffffffffffff811115611e6357611e62612d3a565b5b611e6f8c828d01611b81565b935093505060e0611e828c828d01611c61565b9150509295985092959850929598565b6000611e9e8383611ec0565b60208301905092915050565b6000611eb7848484611fc1565b90509392505050565b611ec981612a80565b82525050565b611ed881612a80565b82525050565b6000611ee9826128b6565b611ef381856128e6565b9350611efe83612887565b8060005b83811015611f2f578151611f168882611e92565b9750611f21836128cc565b925050600181019050611f02565b5085935050505092915050565b6000611f4883856128f7565b935083602084028501611f5a84612897565b8060005b87811015611fa0578484038952611f758284612935565b611f80868284611eaa565b9550611f8b846128d9565b935060208b019a505050600181019050611f5e565b50829750879450505050509392505050565b611fbb81612a92565b82525050565b6000611fcd8385612908565b9350611fda838584612aff565b611fe383612d49565b840190509392505050565b6000611ffa838561292a565b9350612007838584612aff565b82840190509392505050565b600061201e826128c1565b6120288185612919565b9350612038818560208601612b0e565b61204181612d49565b840191505092915050565b6000612057826128c1565b612061818561292a565b9350612071818560208601612b0e565b80840191505092915050565b6000815461208a81612b41565b612094818661292a565b945060018216600081146120af57600181146120c0576120f3565b60ff198316865281860193506120f3565b6120c9856128a1565b60005b838110156120eb578154818901526001820191506020810190506120cc565b838801955050505b50505092915050565b6000612109601283612919565b915061211482612d5a565b602082019050919050565b600061212c602c83612919565b915061213782612d83565b604082019050919050565b600061214f600d83612919565b915061215a82612dd2565b602082019050919050565b6000612172601b83612919565b915061217d82612dfb565b602082019050919050565b6000612195602383612919565b91506121a082612e24565b604082019050919050565b60006121b8601483612919565b91506121c382612e73565b602082019050919050565b60006121db602383612919565b91506121e682612e9c565b604082019050919050565b60006121fe601283612919565b915061220982612eeb565b602082019050919050565b6000612221602383612919565b915061222c82612f14565b604082019050919050565b6000612244602a83612919565b915061224f82612f63565b604082019050919050565b6000612267602483612919565b915061227282612fb2565b604082019050919050565b600061228a600483612919565b915061229582613001565b602082019050919050565b60006122ad601d83612919565b91506122b88261302a565b602082019050919050565b60006122d0600983612919565b91506122db82613053565b602082019050919050565b60006122f3601f83612919565b91506122fe8261307c565b602082019050919050565b61231281612a9e565b82525050565b61232181612aba565b82525050565b61233081612ae8565b82525050565b61233f81612af2565b82525050565b6000612352828486611fee565b91508190509392505050565b600061236a828461204c565b915081905092915050565b6000612381828461207d565b915081905092915050565b600060e0820190506123a1600083018a611ecf565b6123ae6020830189612336565b81810360408301526123c08188612013565b90506123cf6060830187612327565b6123dc6080830186612327565b6123e960a0830185612318565b6123f660c0830184612327565b98975050505050505050565b6000602082019050818103600083015261241c8184612013565b905092915050565b6000602082019050818103600083015261243d816120fc565b9050919050565b6000602082019050818103600083015261245d8161211f565b9050919050565b6000602082019050818103600083015261247d81612142565b9050919050565b6000602082019050818103600083015261249d81612165565b9050919050565b600060208201905081810360008301526124bd81612188565b9050919050565b600060208201905081810360008301526124dd816121ab565b9050919050565b600060208201905081810360008301526124fd816121ce565b9050919050565b6000602082019050818103600083015261251d816121f1565b9050919050565b6000602082019050818103600083015261253d81612214565b9050919050565b6000602082019050818103600083015261255d81612237565b9050919050565b6000602082019050818103600083015261257d8161225a565b9050919050565b6000606082019050818103600083015261259d8161227d565b90506125ac6020830185611ecf565b6125b96040830184612327565b9392505050565b600060208201905081810360008301526125d9816122a0565b9050919050565b600060208201905081810360008301526125f9816122c3565b9050919050565b60006020820190508181036000830152612619816122e6565b9050919050565b60006040820190506126356000830185612309565b6126426020830184612309565b9392505050565b600060208201905061265e6000830184612327565b92915050565b60006080820190506126796000830187612327565b6126866020830186611ecf565b6126936040830185611fb2565b6126a06060830184612327565b95945050505050565b600060e0820190506126be600083018b612327565b81810360208301526126d0818a611ede565b90506126df6040830189611ecf565b6126ec6060830188612327565b6126f96080830187612327565b81810360a083015261270b8186612013565b905081810360c0830152612720818486611f3c565b90509998505050505050505050565b60006020820190506127446000830184612336565b92915050565b6000808335600160200384360303811261276757612766612d21565b5b80840192508235915067ffffffffffffffff82111561278957612788612d1c565b5b6020830192506001820236038313156127a5576127a4612d30565b5b509250929050565b60006127b76127c8565b90506127c38282612b73565b919050565b6000604051905090565b600067ffffffffffffffff8211156127ed576127ec612cde565b5b602082029050602081019050919050565b600067ffffffffffffffff82111561281957612818612cde565b5b602082029050602081019050919050565b600067ffffffffffffffff82111561284557612844612cde565b5b602082029050602081019050919050565b600067ffffffffffffffff82111561287157612870612cde565b5b61287a82612d49565b9050602081019050919050565b6000819050602082019050919050565b6000819050919050565b60008190508160005260206000209050919050565b600081519050919050565b600081519050919050565b6000602082019050919050565b6000602082019050919050565b600082825260208201905092915050565b600082825260208201905092915050565b600082825260208201905092915050565b600082825260208201905092915050565b600081905092915050565b6000808335600160200384360303811261295257612951612d3f565b5b83810192508235915060208301925067ffffffffffffffff82111561297a57612979612d0d565b5b6001820236038413156129905761298f612d26565b5b509250929050565b60006129a382612aba565b91506129ae83612aba565b92508261ffff038211156129c5576129c4612c51565b5b828201905092915050565b60006129db82612ae8565b91506129e683612ae8565b9250827fffffffffffffffffffffffffffffffffffffffffffffffffffffffffffffffff03821115612a1b57612a1a612c51565b5b828201905092915050565b6000612a3182612ae8565b9150612a3c83612ae8565b9250817fffffffffffffffffffffffffffffffffffffffffffffffffffffffffffffffff0483118215151615612a7557612a74612c51565b5b828202905092915050565b6000612a8b82612ac8565b9050919050565b60008115159050919050565b60006fffffffffffffffffffffffffffffffff82169050919050565b600061ffff82169050919050565b600073ffffffffffffffffffffffffffffffffffffffff82169050919050565b6000819050919050565b600060ff82169050919050565b82818337600083830152505050565b60005b83811015612b2c578082015181840152602081019050612b11565b83811115612b3b576000848401525b50505050565b60006002820490506001821680612b5957607f821691505b60208210811415612b6d57612b6c612c80565b5b50919050565b612b7c82612d49565b810181811067ffffffffffffffff82111715612b9b57612b9a612cde565b5b80604052505050565b6000612baf82612a9e565b91506fffffffffffffffffffffffffffffffff821415612bd257612bd1612c51565b5b600182019050919050565b6000612be882612aba565b915061ffff821415612bfd57612bfc612c51565b5b600182019050919050565b6000612c1382612ae8565b91507fffffffffffffffffffffffffffffffffffffffffffffffffffffffffffffffff821415612c4657612c45612c51565b5b600182019050919050565b7f4e487b7100000000000000000000000000000000000000000000000000000000600052601160045260246000fd5b7f4e487b7100000000000000000000000000000000000000000000000000000000600052602260045260246000fd5b7f4e487b7100000000000000000000000000000000000000000000000000000000600052603260045260246000fd5b7f4e487b7100000000000000000000000000000000000000000000000000000000600052604160045260246000fd5b600080fd5b600080fd5b600080fd5b600080fd5b600080fd5b600080fd5b600080fd5b600080fd5b600080fd5b600080fd5b600080fd5b600080fd5b6000601f19601f8301169050919050565b7f50726f706f73616c3a20696e6163746976650000000000000000000000000000600082015250565b7f456e642074696d652073686f756c642062652067726561746572207468616e2060008201527f63757272656e742074696d650000000000000000000000000000000000000000602082015250565b7f616c726561647920766f74656400000000000000000000000000000000000000600082015250565b7f50726f706f73616c3a20696e76616c69642063616e6469646174650000000000600082015250565b7f6e6f7420612076616c696420766f74657220666f7220746869732070726f706f60008201527f73616c0000000000000000000000000000000000000000000000000000000000602082015250565b7f70726f706f73616c206e6f742073746172746564000000000000000000000000600082015250565b7f4e6f7420612076616c696420766f74657220666f7220746869732070726f706f60008201527f73616c0000000000000000000000000000000000000000000000000000000000602082015250565b7f696e76616c69642070726f706f73616c49640000000000000000000000000000600082015250565b7f6e6f742073756666696369656e742062616c616e636520746f2063617374207660008201527f6f74650000000000000000000000000000000000000000000000000000000000602082015250565b7f456e642074696d652073686f756c642062652067726561746572207468616e2060008201527f73746172742074696d6500000000000000000000000000000000000000000000602082015250565b7f6e6f7420612076616c6964206c656e677468206f66206861736820726573706f60008201527f6e73652100000000000000000000000000000000000000000000000000000000602082015250565b7f6d696e7400000000000000000000000000000000000000000000000000000000600082015250565b7f496e76616c696420766f74657220666f722070726f706f73616c496421000000600082015250565b7f6e6f7420766f7465640000000000000000000000000000000000000000000000600082015250565b7f45524332303a206d696e7420746f20746865207a65726f206164647265737300600082015250565b6130ae81612a80565b81146130b957600080fd5b50565b6130c581612ae8565b81146130d057600080fd5b50565b6130dc81612af2565b81146130e757600080fd5b5056fea264697066735822122000fcda40b0ebf1a60b254064b4ac8007231d7085da67a339102954a9f0a8175564736f6c63430008070033",
					"opcodes": "PUSH1 0x80 PUSH1 0x40 MSTORE CALLVALUE DUP1 ISZERO PUSH3 0x11 JUMPI PUSH1 0x0 DUP1 REVERT JUMPDEST POP PUSH1 0x40 MLOAD DUP1 PUSH1 0x40 ADD PUSH1 0x40 MSTORE DUP1 PUSH1 0xC DUP2 MSTORE PUSH1 0x20 ADD PUSH32 0x51566F74696E67546F6B656E0000000000000000000000000000000000000000 DUP2 MSTORE POP PUSH1 0x40 MLOAD DUP1 PUSH1 0x40 ADD PUSH1 0x40 MSTORE DUP1 PUSH1 0x2 DUP2 MSTORE PUSH1 0x20 ADD PUSH32 0x5176000000000000000000000000000000000000000000000000000000000000 DUP2 MSTORE POP DUP2 PUSH1 0x2 SWAP1 DUP1 MLOAD SWAP1 PUSH1 0x20 ADD SWAP1 PUSH3 0x96 SWAP3 SWAP2 SWAP1 PUSH3 0xF9 JUMP JUMPDEST POP DUP1 PUSH1 0x3 SWAP1 DUP1 MLOAD SWAP1 PUSH1 0x20 ADD SWAP1 PUSH3 0xAF SWAP3 SWAP2 SWAP1 PUSH3 0xF9 JUMP JUMPDEST POP POP POP CALLER PUSH1 0x4 PUSH1 0x0 PUSH2 0x100 EXP DUP2 SLOAD DUP2 PUSH20 0xFFFFFFFFFFFFFFFFFFFFFFFFFFFFFFFFFFFFFFFF MUL NOT AND SWAP1 DUP4 PUSH20 0xFFFFFFFFFFFFFFFFFFFFFFFFFFFFFFFFFFFFFFFF AND MUL OR SWAP1 SSTORE POP PUSH3 0x20E JUMP JUMPDEST DUP3 DUP1 SLOAD PUSH3 0x107 SWAP1 PUSH3 0x1A9 JUMP JUMPDEST SWAP1 PUSH1 0x0 MSTORE PUSH1 0x20 PUSH1 0x0 KECCAK256 SWAP1 PUSH1 0x1F ADD PUSH1 0x20 SWAP1 DIV DUP2 ADD SWAP3 DUP3 PUSH3 0x12B JUMPI PUSH1 0x0 DUP6 SSTORE PUSH3 0x177 JUMP JUMPDEST DUP3 PUSH1 0x1F LT PUSH3 0x146 JUMPI DUP1 MLOAD PUSH1 0xFF NOT AND DUP4 DUP1 ADD OR DUP6 SSTORE PUSH3 0x177 JUMP JUMPDEST DUP3 DUP1 ADD PUSH1 0x1 ADD DUP6 SSTORE DUP3 ISZERO PUSH3 0x177 JUMPI SWAP2 DUP3 ADD JUMPDEST DUP3 DUP2 GT ISZERO PUSH3 0x176 JUMPI DUP3 MLOAD DUP3 SSTORE SWAP2 PUSH1 0x20 ADD SWAP2 SWAP1 PUSH1 0x1 ADD SWAP1 PUSH3 0x159 JUMP JUMPDEST JUMPDEST POP SWAP1 POP PUSH3 0x186 SWAP2 SWAP1 PUSH3 0x18A JUMP JUMPDEST POP SWAP1 JUMP JUMPDEST JUMPDEST DUP1 DUP3 GT ISZERO PUSH3 0x1A5 JUMPI PUSH1 0x0 DUP2 PUSH1 0x0 SWAP1 SSTORE POP PUSH1 0x1 ADD PUSH3 0x18B JUMP JUMPDEST POP SWAP1 JUMP JUMPDEST PUSH1 0x0 PUSH1 0x2 DUP3 DIV SWAP1 POP PUSH1 0x1 DUP3 AND DUP1 PUSH3 0x1C2 JUMPI PUSH1 0x7F DUP3 AND SWAP2 POP JUMPDEST PUSH1 0x20 DUP3 LT DUP2 EQ ISZERO PUSH3 0x1D9 JUMPI PUSH3 0x1D8 PUSH3 0x1DF JUMP JUMPDEST JUMPDEST POP SWAP2 SWAP1 POP JUMP JUMPDEST PUSH32 0x4E487B7100000000000000000000000000000000000000000000000000000000 PUSH1 0x0 MSTORE PUSH1 0x22 PUSH1 0x4 MSTORE PUSH1 0x24 PUSH1 0x0 REVERT JUMPDEST PUSH2 0x3120 DUP1 PUSH3 0x21E PUSH1 0x0 CODECOPY PUSH1 0x0 RETURN INVALID PUSH1 0x80 PUSH1 0x40 MSTORE CALLVALUE DUP1 ISZERO PUSH2 0x10 JUMPI PUSH1 0x0 DUP1 REVERT JUMPDEST POP PUSH1 0x4 CALLDATASIZE LT PUSH2 0x9E JUMPI PUSH1 0x0 CALLDATALOAD PUSH1 0xE0 SHR DUP1 PUSH4 0x5C230EEE GT PUSH2 0x66 JUMPI DUP1 PUSH4 0x5C230EEE EQ PUSH2 0x14F JUMPI DUP1 PUSH4 0x70A08231 EQ PUSH2 0x16B JUMPI DUP1 PUSH4 0x95D89B41 EQ PUSH2 0x19B JUMPI DUP1 PUSH4 0xC3703048 EQ PUSH2 0x1B9 JUMPI DUP1 PUSH4 0xE745D68E EQ PUSH2 0x1EC JUMPI PUSH2 0x9E JUMP JUMPDEST DUP1 PUSH4 0x13CF08B EQ PUSH2 0xA3 JUMPI DUP1 PUSH4 0x6FDDE03 EQ PUSH2 0xD9 JUMPI DUP1 PUSH4 0x18160DDD EQ PUSH2 0xF7 JUMPI DUP1 PUSH4 0x313CE567 EQ PUSH2 0x115 JUMPI DUP1 PUSH4 0x4DE77E48 EQ PUSH2 0x133 JUMPI JUMPDEST PUSH1 0x0 DUP1 REVERT JUMPDEST PUSH2 0xBD PUSH1 0x4 DUP1 CALLDATASIZE SUB DUP2 ADD SWAP1 PUSH2 0xB8 SWAP2 SWAP1 PUSH2 0x1CB8 JUMP JUMPDEST PUSH2 0x21D JUMP JUMPDEST PUSH1 0x40 MLOAD PUSH2 0xD0 SWAP8 SWAP7 SWAP6 SWAP5 SWAP4 SWAP3 SWAP2 SWAP1 PUSH2 0x238C JUMP JUMPDEST PUSH1 0x40 MLOAD DUP1 SWAP2 SUB SWAP1 RETURN JUMPDEST PUSH2 0xE1 PUSH2 0x322 JUMP JUMPDEST PUSH1 0x40 MLOAD PUSH2 0xEE SWAP2 SWAP1 PUSH2 0x2402 JUMP JUMPDEST PUSH1 0x40 MLOAD DUP1 SWAP2 SUB SWAP1 RETURN JUMPDEST PUSH2 0xFF PUSH2 0x3B4 JUMP JUMPDEST PUSH1 0x40 MLOAD PUSH2 0x10C SWAP2 SWAP1 PUSH2 0x2649 JUMP JUMPDEST PUSH1 0x40 MLOAD DUP1 SWAP2 SUB SWAP1 RETURN JUMPDEST PUSH2 0x11D PUSH2 0x3BE JUMP JUMPDEST PUSH1 0x40 MLOAD PUSH2 0x12A SWAP2 SWAP1 PUSH2 0x272F JUMP JUMPDEST PUSH1 0x40 MLOAD DUP1 SWAP2 SUB SWAP1 RETURN JUMPDEST PUSH2 0x14D PUSH1 0x4 DUP1 CALLDATASIZE SUB DUP2 ADD SWAP1 PUSH2 0x148 SWAP2 SWAP1 PUSH2 0x1D84 JUMP JUMPDEST PUSH2 0x3C7 JUMP JUMPDEST STOP JUMPDEST PUSH2 0x169 PUSH1 0x4 DUP1 CALLDATASIZE SUB DUP2 ADD SWAP1 PUSH2 0x164 SWAP2 SWAP1 PUSH2 0x1CE5 JUMP JUMPDEST PUSH2 0x6DE JUMP JUMPDEST STOP JUMPDEST PUSH2 0x185 PUSH1 0x4 DUP1 CALLDATASIZE SUB DUP2 ADD SWAP1 PUSH2 0x180 SWAP2 SWAP1 PUSH2 0x1C8B JUMP JUMPDEST PUSH2 0xA84 JUMP JUMPDEST PUSH1 0x40 MLOAD PUSH2 0x192 SWAP2 SWAP1 PUSH2 0x2649 JUMP JUMPDEST PUSH1 0x40 MLOAD DUP1 SWAP2 SUB SWAP1 RETURN JUMPDEST PUSH2 0x1A3 PUSH2 0xACC JUMP JUMPDEST PUSH1 0x40 MLOAD PUSH2 0x1B0 SWAP2 SWAP1 PUSH2 0x2402 JUMP JUMPDEST PUSH1 0x40 MLOAD DUP1 SWAP2 SUB SWAP1 RETURN JUMPDEST PUSH2 0x1D3 PUSH1 0x4 DUP1 CALLDATASIZE SUB DUP2 ADD SWAP1 PUSH2 0x1CE SWAP2 SWAP1 PUSH2 0x1C8B JUMP JUMPDEST PUSH2 0xB5E JUMP JUMPDEST PUSH1 0x40 MLOAD PUSH2 0x1E3 SWAP5 SWAP4 SWAP3 SWAP2 SWAP1 PUSH2 0x2664 JUMP JUMPDEST PUSH1 0x40 MLOAD DUP1 SWAP2 SUB SWAP1 RETURN JUMPDEST PUSH2 0x206 PUSH1 0x4 DUP1 CALLDATASIZE SUB DUP2 ADD SWAP1 PUSH2 0x201 SWAP2 SWAP1 PUSH2 0x1C8B JUMP JUMPDEST PUSH2 0xBBB JUMP JUMPDEST PUSH1 0x40 MLOAD PUSH2 0x214 SWAP3 SWAP2 SWAP1 PUSH2 0x2620 JUMP JUMPDEST PUSH1 0x40 MLOAD DUP1 SWAP2 SUB SWAP1 RETURN JUMPDEST PUSH1 0x7 PUSH1 0x20 MSTORE DUP1 PUSH1 0x0 MSTORE PUSH1 0x40 PUSH1 0x0 KECCAK256 PUSH1 0x0 SWAP2 POP SWAP1 POP DUP1 PUSH1 0x0 ADD PUSH1 0x0 SWAP1 SLOAD SWAP1 PUSH2 0x100 EXP SWAP1 DIV PUSH20 0xFFFFFFFFFFFFFFFFFFFFFFFFFFFFFFFFFFFFFFFF AND SWAP1 DUP1 PUSH1 0x0 ADD PUSH1 0x14 SWAP1 SLOAD SWAP1 PUSH2 0x100 EXP SWAP1 DIV PUSH1 0xFF AND SWAP1 DUP1 PUSH1 0x1 ADD DUP1 SLOAD PUSH2 0x279 SWAP1 PUSH2 0x2B41 JUMP JUMPDEST DUP1 PUSH1 0x1F ADD PUSH1 0x20 DUP1 SWAP2 DIV MUL PUSH1 0x20 ADD PUSH1 0x40 MLOAD SWAP1 DUP2 ADD PUSH1 0x40 MSTORE DUP1 SWAP3 SWAP2 SWAP1 DUP2 DUP2 MSTORE PUSH1 0x20 ADD DUP3 DUP1 SLOAD PUSH2 0x2A5 SWAP1 PUSH2 0x2B41 JUMP JUMPDEST DUP1 ISZERO PUSH2 0x2F2 JUMPI DUP1 PUSH1 0x1F LT PUSH2 0x2C7 JUMPI PUSH2 0x100 DUP1 DUP4 SLOAD DIV MUL DUP4 MSTORE SWAP2 PUSH1 0x20 ADD SWAP2 PUSH2 0x2F2 JUMP JUMPDEST DUP3 ADD SWAP2 SWAP1 PUSH1 0x0 MSTORE PUSH1 0x20 PUSH1 0x0 KECCAK256 SWAP1 JUMPDEST DUP2 SLOAD DUP2 MSTORE SWAP1 PUSH1 0x1 ADD SWAP1 PUSH1 0x20 ADD DUP1 DUP4 GT PUSH2 0x2D5 JUMPI DUP3 SWAP1 SUB PUSH1 0x1F AND DUP3 ADD SWAP2 JUMPDEST POP POP POP POP POP SWAP1 DUP1 PUSH1 0x2 ADD SLOAD SWAP1 DUP1 PUSH1 0x3 ADD SLOAD SWAP1 DUP1 PUSH1 0x4 ADD PUSH1 0x0 SWAP1 SLOAD SWAP1 PUSH2 0x100 EXP SWAP1 DIV PUSH2 0xFFFF AND SWAP1 DUP1 PUSH1 0x5 ADD SLOAD SWAP1 POP DUP8 JUMP JUMPDEST PUSH1 0x60 PUSH1 0x2 DUP1 SLOAD PUSH2 0x331 SWAP1 PUSH2 0x2B41 JUMP JUMPDEST DUP1 PUSH1 0x1F ADD PUSH1 0x20 DUP1 SWAP2 DIV MUL PUSH1 0x20 ADD PUSH1 0x40 MLOAD SWAP1 DUP2 ADD PUSH1 0x40 MSTORE DUP1 SWAP3 SWAP2 SWAP1 DUP2 DUP2 MSTORE PUSH1 0x20 ADD DUP3 DUP1 SLOAD PUSH2 0x35D SWAP1 PUSH2 0x2B41 JUMP JUMPDEST DUP1 ISZERO PUSH2 0x3AA JUMPI DUP1 PUSH1 0x1F LT PUSH2 0x37F JUMPI PUSH2 0x100 DUP1 DUP4 SLOAD DIV MUL DUP4 MSTORE SWAP2 PUSH1 0x20 ADD SWAP2 PUSH2 0x3AA JUMP JUMPDEST DUP3 ADD SWAP2 SWAP1 PUSH1 0x0 MSTORE PUSH1 0x20 PUSH1 0x0 KECCAK256 SWAP1 JUMPDEST DUP2 SLOAD DUP2 MSTORE SWAP1 PUSH1 0x1 ADD SWAP1 PUSH1 0x20 ADD DUP1 DUP4 GT PUSH2 0x38D JUMPI DUP3 SWAP1 SUB PUSH1 0x1F AND DUP3 ADD SWAP2 JUMPDEST POP POP POP POP POP SWAP1 POP SWAP1 JUMP JUMPDEST PUSH1 0x0 PUSH1 0x1 SLOAD SWAP1 POP SWAP1 JUMP JUMPDEST PUSH1 0x0 PUSH1 0x12 SWAP1 POP SWAP1 JUMP JUMPDEST DUP6 TIMESTAMP LT PUSH2 0x409 JUMPI PUSH1 0x40 MLOAD PUSH32 0x8C379A000000000000000000000000000000000000000000000000000000000 DUP2 MSTORE PUSH1 0x4 ADD PUSH2 0x400 SWAP1 PUSH2 0x24C4 JUMP JUMPDEST PUSH1 0x40 MLOAD DUP1 SWAP2 SUB SWAP1 REVERT JUMPDEST DUP5 TIMESTAMP LT PUSH2 0x44B JUMPI PUSH1 0x40 MLOAD PUSH32 0x8C379A000000000000000000000000000000000000000000000000000000000 DUP2 MSTORE PUSH1 0x4 ADD PUSH2 0x442 SWAP1 PUSH2 0x2444 JUMP JUMPDEST PUSH1 0x40 MLOAD DUP1 SWAP2 SUB SWAP1 REVERT JUMPDEST DUP5 DUP7 LT PUSH2 0x48D JUMPI PUSH1 0x40 MLOAD PUSH32 0x8C379A000000000000000000000000000000000000000000000000000000000 DUP2 MSTORE PUSH1 0x4 ADD PUSH2 0x484 SWAP1 PUSH2 0x2544 JUMP JUMPDEST PUSH1 0x40 MLOAD DUP1 SWAP2 SUB SWAP1 REVERT JUMPDEST PUSH1 0x5 PUSH1 0x0 DUP2 SLOAD DUP1 SWAP3 SWAP2 SWAP1 PUSH2 0x4A0 SWAP1 PUSH2 0x2C08 JUMP JUMPDEST SWAP2 SWAP1 POP SSTORE POP PUSH2 0x4DC DUP10 DUP10 DUP10 DUP10 DUP10 DUP10 DUP8 DUP11 DUP11 PUSH1 0x7 PUSH1 0x0 PUSH1 0x5 SLOAD DUP2 MSTORE PUSH1 0x20 ADD SWAP1 DUP2 MSTORE PUSH1 0x20 ADD PUSH1 0x0 KECCAK256 PUSH2 0xC17 SWAP1 SWAP10 SWAP9 SWAP8 SWAP7 SWAP6 SWAP5 SWAP4 SWAP3 SWAP2 SWAP1 PUSH4 0xFFFFFFFF AND JUMP JUMPDEST POP PUSH32 0x239A8A71A7D1CB0D134F6CC072AD6390E36A88C8E78DFF69013EE79528441E80 PUSH1 0x5 SLOAD DUP10 DUP10 DUP10 DUP10 DUP10 DUP10 DUP10 PUSH1 0x40 MLOAD PUSH2 0x51C SWAP9 SWAP8 SWAP7 SWAP6 SWAP5 SWAP4 SWAP3 SWAP2 SWAP1 PUSH2 0x26A9 JUMP JUMPDEST PUSH1 0x40 MLOAD DUP1 SWAP2 SUB SWAP1 LOG1 PUSH1 0x1 PUSH1 0x9 PUSH1 0x0 PUSH1 0x5 SLOAD DUP2 MSTORE PUSH1 0x20 ADD SWAP1 DUP2 MSTORE PUSH1 0x20 ADD PUSH1 0x0 KECCAK256 PUSH1 0x0 PUSH2 0x100 EXP DUP2 SLOAD DUP2 PUSH1 0xFF MUL NOT AND SWAP1 DUP4 ISZERO ISZERO MUL OR SWAP1 SSTORE POP PUSH1 0x0 JUMPDEST DUP9 MLOAD DUP2 LT ISZERO PUSH2 0x677 JUMPI PUSH2 0x582 DUP10 DUP3 DUP2 MLOAD DUP2 LT PUSH2 0x574 JUMPI PUSH2 0x573 PUSH2 0x2CAF JUMP JUMPDEST JUMPDEST PUSH1 0x20 MUL PUSH1 0x20 ADD ADD MLOAD DUP4 PUSH2 0xE49 JUMP JUMPDEST PUSH2 0x610 PUSH1 0x5 SLOAD DUP11 DUP4 DUP2 MLOAD DUP2 LT PUSH2 0x59B JUMPI PUSH2 0x59A PUSH2 0x2CAF JUMP JUMPDEST JUMPDEST PUSH1 0x20 MUL PUSH1 0x20 ADD ADD MLOAD PUSH1 0x0 DUP6 PUSH1 0x8 PUSH1 0x0 DUP16 DUP9 DUP2 MLOAD DUP2 LT PUSH2 0x5BD JUMPI PUSH2 0x5BC PUSH2 0x2CAF JUMP JUMPDEST JUMPDEST PUSH1 0x20 MUL PUSH1 0x20 ADD ADD MLOAD PUSH20 0xFFFFFFFFFFFFFFFFFFFFFFFFFFFFFFFFFFFFFFFF AND PUSH20 0xFFFFFFFFFFFFFFFFFFFFFFFFFFFFFFFFFFFFFFFF AND DUP2 MSTORE PUSH1 0x20 ADD SWAP1 DUP2 MSTORE PUSH1 0x20 ADD PUSH1 0x0 KECCAK256 PUSH2 0xEBA SWAP1 SWAP5 SWAP4 SWAP3 SWAP2 SWAP1 PUSH4 0xFFFFFFFF AND JUMP JUMPDEST POP PUSH32 0xABF5327BE9F5825C40D58BDA541DD07F09B62DF3376BBD5ECDBAA8BD82A9D492 DUP10 DUP3 DUP2 MLOAD DUP2 LT PUSH2 0x645 JUMPI PUSH2 0x644 PUSH2 0x2CAF JUMP JUMPDEST JUMPDEST PUSH1 0x20 MUL PUSH1 0x20 ADD ADD MLOAD DUP4 PUSH1 0x40 MLOAD PUSH2 0x65C SWAP3 SWAP2 SWAP1 PUSH2 0x2584 JUMP JUMPDEST PUSH1 0x40 MLOAD DUP1 SWAP2 SUB SWAP1 LOG1 DUP1 DUP1 PUSH2 0x66F SWAP1 PUSH2 0x2C08 JUMP JUMPDEST SWAP2 POP POP PUSH2 0x555 JUMP JUMPDEST POP PUSH2 0x6D2 PUSH1 0x5 SLOAD PUSH1 0x6 PUSH1 0x0 PUSH2 0x68A PUSH2 0xF3A JUMP JUMPDEST PUSH20 0xFFFFFFFFFFFFFFFFFFFFFFFFFFFFFFFFFFFFFFFF AND PUSH20 0xFFFFFFFFFFFFFFFFFFFFFFFFFFFFFFFFFFFFFFFF AND DUP2 MSTORE PUSH1 0x20 ADD SWAP1 DUP2 MSTORE PUSH1 0x20 ADD PUSH1 0x0 KECCAK256 PUSH2 0xF42 SWAP1 SWAP2 SWAP1 PUSH4 0xFFFFFFFF AND JUMP JUMPDEST POP POP POP POP POP POP POP POP POP POP JUMP JUMPDEST PUSH1 0x9 PUSH1 0x0 DUP6 DUP2 MSTORE PUSH1 0x20 ADD SWAP1 DUP2 MSTORE PUSH1 0x20 ADD PUSH1 0x0 KECCAK256 PUSH1 0x0 SWAP1 SLOAD SWAP1 PUSH2 0x100 EXP SWAP1 DIV PUSH1 0xFF AND PUSH2 0x73E JUMPI PUSH1 0x40 MLOAD PUSH32 0x8C379A000000000000000000000000000000000000000000000000000000000 DUP2 MSTORE PUSH1 0x4 ADD PUSH2 0x735 SWAP1 PUSH2 0x2504 JUMP JUMPDEST PUSH1 0x40 MLOAD DUP1 SWAP2 SUB SWAP1 REVERT JUMPDEST DUP4 PUSH1 0x8 PUSH1 0x0 DUP6 PUSH20 0xFFFFFFFFFFFFFFFFFFFFFFFFFFFFFFFFFFFFFFFF AND PUSH20 0xFFFFFFFFFFFFFFFFFFFFFFFFFFFFFFFFFFFFFFFF AND DUP2 MSTORE PUSH1 0x20 ADD SWAP1 DUP2 MSTORE PUSH1 0x20 ADD PUSH1 0x0 KECCAK256 PUSH1 0x0 ADD SLOAD EQ PUSH2 0x7C2 JUMPI PUSH1 0x40 MLOAD PUSH32 0x8C379A000000000000000000000000000000000000000000000000000000000 DUP2 MSTORE PUSH1 0x4 ADD PUSH2 0x7B9 SWAP1 PUSH2 0x24A4 JUMP JUMPDEST PUSH1 0x40 MLOAD DUP1 SWAP2 SUB SWAP1 REVERT JUMPDEST PUSH1 0x8 PUSH1 0x0 DUP5 PUSH20 0xFFFFFFFFFFFFFFFFFFFFFFFFFFFFFFFFFFFFFFFF AND PUSH20 0xFFFFFFFFFFFFFFFFFFFFFFFFFFFFFFFFFFFFFFFF AND DUP2 MSTORE PUSH1 0x20 ADD SWAP1 DUP2 MSTORE PUSH1 0x20 ADD PUSH1 0x0 KECCAK256 PUSH1 0x1 ADD PUSH1 0x14 SWAP1 SLOAD SWAP1 PUSH2 0x100 EXP SWAP1 DIV PUSH1 0xFF AND ISZERO PUSH2 0x852 JUMPI PUSH1 0x40 MLOAD PUSH32 0x8C379A000000000000000000000000000000000000000000000000000000000 DUP2 MSTORE PUSH1 0x4 ADD PUSH2 0x849 SWAP1 PUSH2 0x2464 JUMP JUMPDEST PUSH1 0x40 MLOAD DUP1 SWAP2 SUB SWAP1 REVERT JUMPDEST DUP2 MLOAD PUSH1 0x7 PUSH1 0x0 DUP7 DUP2 MSTORE PUSH1 0x20 ADD SWAP1 DUP2 MSTORE PUSH1 0x20 ADD PUSH1 0x0 KECCAK256 PUSH1 0x4 ADD PUSH1 0x0 SWAP1 SLOAD SWAP1 PUSH2 0x100 EXP SWAP1 DIV PUSH2 0xFFFF AND PUSH2 0xFFFF AND EQ PUSH2 0x8BD JUMPI PUSH1 0x40 MLOAD PUSH32 0x8C379A000000000000000000000000000000000000000000000000000000000 DUP2 MSTORE PUSH1 0x4 ADD PUSH2 0x8B4 SWAP1 PUSH2 0x2564 JUMP JUMPDEST PUSH1 0x40 MLOAD DUP1 SWAP2 SUB SWAP1 REVERT JUMPDEST PUSH1 0x0 DUP1 JUMPDEST DUP3 MLOAD DUP2 LT ISZERO PUSH2 0x92A JUMPI DUP3 DUP2 DUP2 MLOAD DUP2 LT PUSH2 0x8DD JUMPI PUSH2 0x8DC PUSH2 0x2CAF JUMP JUMPDEST JUMPDEST PUSH1 0x20 MUL PUSH1 0x20 ADD ADD MLOAD DUP4 DUP3 DUP2 MLOAD DUP2 LT PUSH2 0x8F8 JUMPI PUSH2 0x8F7 PUSH2 0x2CAF JUMP JUMPDEST JUMPDEST PUSH1 0x20 MUL PUSH1 0x20 ADD ADD MLOAD PUSH2 0x90A SWAP2 SWAP1 PUSH2 0x2A26 JUMP JUMPDEST DUP3 PUSH2 0x915 SWAP2 SWAP1 PUSH2 0x29D0 JUMP JUMPDEST SWAP2 POP DUP1 DUP1 PUSH2 0x922 SWAP1 PUSH2 0x2C08 JUMP JUMPDEST SWAP2 POP POP PUSH2 0x8C1 JUMP JUMPDEST POP DUP1 PUSH1 0x8 PUSH1 0x0 DUP7 PUSH20 0xFFFFFFFFFFFFFFFFFFFFFFFFFFFFFFFFFFFFFFFF AND PUSH20 0xFFFFFFFFFFFFFFFFFFFFFFFFFFFFFFFFFFFFFFFF AND DUP2 MSTORE PUSH1 0x20 ADD SWAP1 DUP2 MSTORE PUSH1 0x20 ADD PUSH1 0x0 KECCAK256 PUSH1 0x2 ADD SLOAD LT ISZERO PUSH2 0x9B0 JUMPI PUSH1 0x40 MLOAD PUSH32 0x8C379A000000000000000000000000000000000000000000000000000000000 DUP2 MSTORE PUSH1 0x4 ADD PUSH2 0x9A7 SWAP1 PUSH2 0x2524 JUMP JUMPDEST PUSH1 0x40 MLOAD DUP1 SWAP2 SUB SWAP1 REVERT JUMPDEST PUSH2 0x9D9 DUP5 DUP5 DUP5 PUSH1 0x7 PUSH1 0x0 DUP11 DUP2 MSTORE PUSH1 0x20 ADD SWAP1 DUP2 MSTORE PUSH1 0x20 ADD PUSH1 0x0 KECCAK256 PUSH2 0x1013 SWAP1 SWAP4 SWAP3 SWAP2 SWAP1 PUSH4 0xFFFFFFFF AND JUMP JUMPDEST POP PUSH2 0xA34 DUP6 DUP5 PUSH1 0x6 PUSH1 0x0 PUSH2 0x9EB PUSH2 0xF3A JUMP JUMPDEST PUSH20 0xFFFFFFFFFFFFFFFFFFFFFFFFFFFFFFFFFFFFFFFF AND PUSH20 0xFFFFFFFFFFFFFFFFFFFFFFFFFFFFFFFFFFFFFFFF AND DUP2 MSTORE PUSH1 0x20 ADD SWAP1 DUP2 MSTORE PUSH1 0x20 ADD PUSH1 0x0 KECCAK256 PUSH2 0x1482 SWAP1 SWAP3 SWAP2 SWAP1 PUSH4 0xFFFFFFFF AND JUMP JUMPDEST POP PUSH2 0xA7C PUSH1 0x8 PUSH1 0x0 DUP7 PUSH20 0xFFFFFFFFFFFFFFFFFFFFFFFFFFFFFFFFFFFFFFFF AND PUSH20 0xFFFFFFFFFFFFFFFFFFFFFFFFFFFFFFFFFFFFFFFF AND DUP2 MSTORE PUSH1 0x20 ADD SWAP1 DUP2 MSTORE PUSH1 0x20 ADD PUSH1 0x0 KECCAK256 PUSH2 0x160F JUMP JUMPDEST POP POP POP POP POP POP JUMP JUMPDEST PUSH1 0x0 DUP1 PUSH1 0x0 DUP4 PUSH20 0xFFFFFFFFFFFFFFFFFFFFFFFFFFFFFFFFFFFFFFFF AND PUSH20 0xFFFFFFFFFFFFFFFFFFFFFFFFFFFFFFFFFFFFFFFF AND DUP2 MSTORE PUSH1 0x20 ADD SWAP1 DUP2 MSTORE PUSH1 0x20 ADD PUSH1 0x0 KECCAK256 SLOAD SWAP1 POP SWAP2 SWAP1 POP JUMP JUMPDEST PUSH1 0x60 PUSH1 0x3 DUP1 SLOAD PUSH2 0xADB SWAP1 PUSH2 0x2B41 JUMP JUMPDEST DUP1 PUSH1 0x1F ADD PUSH1 0x20 DUP1 SWAP2 DIV MUL PUSH1 0x20 ADD PUSH1 0x40 MLOAD SWAP1 DUP2 ADD PUSH1 0x40 MSTORE DUP1 SWAP3 SWAP2 SWAP1 DUP2 DUP2 MSTORE PUSH1 0x20 ADD DUP3 DUP1 SLOAD PUSH2 0xB07 SWAP1 PUSH2 0x2B41 JUMP JUMPDEST DUP1 ISZERO PUSH2 0xB54 JUMPI DUP1 PUSH1 0x1F LT PUSH2 0xB29 JUMPI PUSH2 0x100 DUP1 DUP4 SLOAD DIV MUL DUP4 MSTORE SWAP2 PUSH1 0x20 ADD SWAP2 PUSH2 0xB54 JUMP JUMPDEST DUP3 ADD SWAP2 SWAP1 PUSH1 0x0 MSTORE PUSH1 0x20 PUSH1 0x0 KECCAK256 SWAP1 JUMPDEST DUP2 SLOAD DUP2 MSTORE SWAP1 PUSH1 0x1 ADD SWAP1 PUSH1 0x20 ADD DUP1 DUP4 GT PUSH2 0xB37 JUMPI DUP3 SWAP1 SUB PUSH1 0x1F AND DUP3 ADD SWAP2 JUMPDEST POP POP POP POP POP SWAP1 POP SWAP1 JUMP JUMPDEST PUSH1 0x8 PUSH1 0x20 MSTORE DUP1 PUSH1 0x0 MSTORE PUSH1 0x40 PUSH1 0x0 KECCAK256 PUSH1 0x0 SWAP2 POP SWAP1 POP DUP1 PUSH1 0x0 ADD SLOAD SWAP1 DUP1 PUSH1 0x1 ADD PUSH1 0x0 SWAP1 SLOAD SWAP1 PUSH2 0x100 EXP SWAP1 DIV PUSH20 0xFFFFFFFFFFFFFFFFFFFFFFFFFFFFFFFFFFFFFFFF AND SWAP1 DUP1 PUSH1 0x1 ADD PUSH1 0x14 SWAP1 SLOAD SWAP1 PUSH2 0x100 EXP SWAP1 DIV PUSH1 0xFF AND SWAP1 DUP1 PUSH1 0x2 ADD SLOAD SWAP1 POP DUP5 JUMP JUMPDEST PUSH1 0x6 PUSH1 0x20 MSTORE DUP1 PUSH1 0x0 MSTORE PUSH1 0x40 PUSH1 0x0 KECCAK256 PUSH1 0x0 SWAP2 POP SWAP1 POP DUP1 PUSH1 0x0 ADD PUSH1 0x0 SWAP1 SLOAD SWAP1 PUSH2 0x100 EXP SWAP1 DIV PUSH16 0xFFFFFFFFFFFFFFFFFFFFFFFFFFFFFFFF AND SWAP1 DUP1 PUSH1 0x0 ADD PUSH1 0x10 SWAP1 SLOAD SWAP1 PUSH2 0x100 EXP SWAP1 DIV PUSH16 0xFFFFFFFFFFFFFFFFFFFFFFFFFFFFFFFF AND SWAP1 POP DUP3 JUMP JUMPDEST PUSH1 0x0 DUP8 DUP12 PUSH1 0x0 ADD PUSH1 0x0 PUSH2 0x100 EXP DUP2 SLOAD DUP2 PUSH20 0xFFFFFFFFFFFFFFFFFFFFFFFFFFFFFFFFFFFFFFFF MUL NOT AND SWAP1 DUP4 PUSH20 0xFFFFFFFFFFFFFFFFFFFFFFFFFFFFFFFFFFFFFFFF AND MUL OR SWAP1 SSTORE POP DUP10 DUP12 PUSH1 0x0 ADD PUSH1 0x14 PUSH2 0x100 EXP DUP2 SLOAD DUP2 PUSH1 0xFF MUL NOT AND SWAP1 DUP4 PUSH1 0xFF AND MUL OR SWAP1 SSTORE POP DUP5 DUP12 PUSH1 0x1 ADD SWAP1 DUP1 MLOAD SWAP1 PUSH1 0x20 ADD SWAP1 PUSH2 0xC91 SWAP3 SWAP2 SWAP1 PUSH2 0x17D8 JUMP JUMPDEST POP DUP7 DUP12 PUSH1 0x2 ADD DUP2 SWAP1 SSTORE POP DUP6 DUP12 PUSH1 0x3 ADD DUP2 SWAP1 SSTORE POP DUP3 DUP3 SWAP1 POP DUP12 PUSH1 0x4 ADD PUSH1 0x0 PUSH2 0x100 EXP DUP2 SLOAD DUP2 PUSH2 0xFFFF MUL NOT AND SWAP1 DUP4 PUSH2 0xFFFF AND MUL OR SWAP1 SSTORE POP DUP4 DUP12 PUSH1 0x5 ADD DUP2 SWAP1 SSTORE POP PUSH1 0x0 JUMPDEST DUP4 DUP4 SWAP1 POP DUP2 LT ISZERO PUSH2 0xDA2 JUMPI PUSH1 0x1 DUP13 PUSH1 0x7 ADD DUP6 DUP6 DUP5 DUP2 DUP2 LT PUSH2 0xCF6 JUMPI PUSH2 0xCF5 PUSH2 0x2CAF JUMP JUMPDEST JUMPDEST SWAP1 POP PUSH1 0x20 MUL DUP2 ADD SWAP1 PUSH2 0xD08 SWAP2 SWAP1 PUSH2 0x274A JUMP JUMPDEST PUSH1 0x40 MLOAD PUSH2 0xD16 SWAP3 SWAP2 SWAP1 PUSH2 0x2345 JUMP JUMPDEST SWAP1 DUP2 MSTORE PUSH1 0x20 ADD PUSH1 0x40 MLOAD DUP1 SWAP2 SUB SWAP1 KECCAK256 PUSH1 0x0 PUSH2 0x100 EXP DUP2 SLOAD DUP2 PUSH1 0xFF MUL NOT AND SWAP1 DUP4 ISZERO ISZERO MUL OR SWAP1 SSTORE POP DUP4 DUP4 DUP3 DUP2 DUP2 LT PUSH2 0xD4E JUMPI PUSH2 0xD4D PUSH2 0x2CAF JUMP JUMPDEST JUMPDEST SWAP1 POP PUSH1 0x20 MUL DUP2 ADD SWAP1 PUSH2 0xD60 SWAP2 SWAP1 PUSH2 0x274A JUMP JUMPDEST DUP14 PUSH1 0x8 ADD PUSH1 0x0 PUSH1 0x1 DUP6 PUSH2 0xD73 SWAP2 SWAP1 PUSH2 0x29D0 JUMP JUMPDEST DUP2 MSTORE PUSH1 0x20 ADD SWAP1 DUP2 MSTORE PUSH1 0x20 ADD PUSH1 0x0 KECCAK256 SWAP2 SWAP1 PUSH2 0xD8E SWAP3 SWAP2 SWAP1 PUSH2 0x185E JUMP JUMPDEST POP DUP1 DUP1 PUSH2 0xD9A SWAP1 PUSH2 0x2C08 JUMP JUMPDEST SWAP2 POP POP PUSH2 0xCD2 JUMP JUMPDEST POP PUSH1 0x0 JUMPDEST DUP10 MLOAD DUP2 LT ISZERO PUSH2 0xE36 JUMPI PUSH1 0x1 DUP13 PUSH1 0x6 ADD PUSH1 0x0 DUP13 DUP5 DUP2 MLOAD DUP2 LT PUSH2 0xDCA JUMPI PUSH2 0xDC9 PUSH2 0x2CAF JUMP JUMPDEST JUMPDEST PUSH1 0x20 MUL PUSH1 0x20 ADD ADD MLOAD PUSH20 0xFFFFFFFFFFFFFFFFFFFFFFFFFFFFFFFFFFFFFFFF AND PUSH20 0xFFFFFFFFFFFFFFFFFFFFFFFFFFFFFFFFFFFFFFFF AND DUP2 MSTORE PUSH1 0x20 ADD SWAP1 DUP2 MSTORE PUSH1 0x20 ADD PUSH1 0x0 KECCAK256 PUSH1 0x0 PUSH2 0x100 EXP DUP2 SLOAD DUP2 PUSH1 0xFF MUL NOT AND SWAP1 DUP4 ISZERO ISZERO MUL OR SWAP1 SSTORE POP DUP1 DUP1 PUSH2 0xE2E SWAP1 PUSH2 0x2C08 JUMP JUMPDEST SWAP2 POP POP PUSH2 0xDA6 JUMP JUMPDEST POP PUSH1 0x1 SWAP1 POP SWAP11 SWAP10 POP POP POP POP POP POP POP POP POP POP JUMP JUMPDEST PUSH2 0xE51 PUSH2 0xF3A JUMP JUMPDEST DUP1 PUSH20 0xFFFFFFFFFFFFFFFFFFFFFFFFFFFFFFFFFFFFFFFF AND PUSH1 0x4 PUSH1 0x0 SWAP1 SLOAD SWAP1 PUSH2 0x100 EXP SWAP1 DIV PUSH20 0xFFFFFFFFFFFFFFFFFFFFFFFFFFFFFFFFFFFFFFFF AND PUSH20 0xFFFFFFFFFFFFFFFFFFFFFFFFFFFFFFFFFFFFFFFF AND EQ PUSH2 0xEAB JUMPI PUSH1 0x0 DUP1 REVERT JUMPDEST PUSH2 0xEB5 DUP4 DUP4 PUSH2 0x16BD JUMP JUMPDEST POP POP POP JUMP JUMPDEST PUSH1 0x0 DUP5 DUP7 PUSH1 0x0 ADD DUP2 SWAP1 SSTORE POP DUP4 DUP7 PUSH1 0x1 ADD PUSH1 0x0 PUSH2 0x100 EXP DUP2 SLOAD DUP2 PUSH20 0xFFFFFFFFFFFFFFFFFFFFFFFFFFFFFFFFFFFFFFFF MUL NOT AND SWAP1 DUP4 PUSH20 0xFFFFFFFFFFFFFFFFFFFFFFFFFFFFFFFFFFFFFFFF AND MUL OR SWAP1 SSTORE POP DUP3 DUP7 PUSH1 0x1 ADD PUSH1 0x14 PUSH2 0x100 EXP DUP2 SLOAD DUP2 PUSH1 0xFF MUL NOT AND SWAP1 DUP4 ISZERO ISZERO MUL OR SWAP1 SSTORE POP DUP2 DUP7 PUSH1 0x2 ADD DUP2 SWAP1 SSTORE POP PUSH1 0x1 SWAP1 POP SWAP6 SWAP5 POP POP POP POP POP JUMP JUMPDEST PUSH1 0x0 CALLER SWAP1 POP SWAP1 JUMP JUMPDEST PUSH1 0x0 DUP3 PUSH1 0x0 ADD PUSH1 0x0 DUP2 DUP2 SWAP1 SLOAD SWAP1 PUSH2 0x100 EXP SWAP1 DIV PUSH16 0xFFFFFFFFFFFFFFFFFFFFFFFFFFFFFFFF AND DUP1 SWAP3 SWAP2 SWAP1 PUSH2 0xF74 SWAP1 PUSH2 0x2BA4 JUMP JUMPDEST SWAP2 SWAP1 PUSH2 0x100 EXP DUP2 SLOAD DUP2 PUSH16 0xFFFFFFFFFFFFFFFFFFFFFFFFFFFFFFFF MUL NOT AND SWAP1 DUP4 PUSH16 0xFFFFFFFFFFFFFFFFFFFFFFFFFFFFFFFF AND MUL OR SWAP1 SSTORE POP POP DUP2 DUP4 PUSH1 0x1 ADD PUSH1 0x0 DUP6 PUSH1 0x0 ADD PUSH1 0x0 SWAP1 SLOAD SWAP1 PUSH2 0x100 EXP SWAP1 DIV PUSH16 0xFFFFFFFFFFFFFFFFFFFFFFFFFFFFFFFF AND PUSH16 0xFFFFFFFFFFFFFFFFFFFFFFFFFFFFFFFF AND PUSH16 0xFFFFFFFFFFFFFFFFFFFFFFFFFFFFFFFF AND DUP2 MSTORE PUSH1 0x20 ADD SWAP1 DUP2 MSTORE PUSH1 0x20 ADD PUSH1 0x0 KECCAK256 DUP2 SWAP1 SSTORE POP PUSH1 0x1 SWAP1 POP SWAP3 SWAP2 POP POP JUMP JUMPDEST PUSH1 0x0 PUSH1 0x2 DUP6 PUSH1 0x0 ADD PUSH1 0x14 SWAP1 SLOAD SWAP1 PUSH2 0x100 EXP SWAP1 DIV PUSH1 0xFF AND PUSH1 0xFF AND EQ PUSH2 0x106C JUMPI PUSH1 0x40 MLOAD PUSH32 0x8C379A000000000000000000000000000000000000000000000000000000000 DUP2 MSTORE PUSH1 0x4 ADD PUSH2 0x1063 SWAP1 PUSH2 0x2424 JUMP JUMPDEST PUSH1 0x40 MLOAD DUP1 SWAP2 SUB SWAP1 REVERT JUMPDEST DUP5 PUSH1 0x3 ADD SLOAD TIMESTAMP GT ISZERO PUSH2 0x12C2 JUMPI PUSH1 0x2 DUP6 PUSH1 0x0 ADD PUSH1 0x14 PUSH2 0x100 EXP DUP2 SLOAD DUP2 PUSH1 0xFF MUL NOT AND SWAP1 DUP4 PUSH1 0xFF AND MUL OR SWAP1 SSTORE POP PUSH1 0x0 DUP6 PUSH1 0xA ADD DUP7 PUSH1 0x8 ADD PUSH1 0x0 PUSH1 0x1 DUP2 MSTORE PUSH1 0x20 ADD SWAP1 DUP2 MSTORE PUSH1 0x20 ADD PUSH1 0x0 KECCAK256 PUSH1 0x40 MLOAD PUSH2 0x10BF SWAP2 SWAP1 PUSH2 0x2375 JUMP JUMPDEST SWAP1 DUP2 MSTORE PUSH1 0x20 ADD PUSH1 0x40 MLOAD DUP1 SWAP2 SUB SWAP1 KECCAK256 SLOAD SWAP1 POP PUSH1 0x0 PUSH1 0x1 SWAP1 POP DUP7 PUSH1 0x8 ADD PUSH1 0x0 PUSH1 0x1 DUP2 MSTORE PUSH1 0x20 ADD SWAP1 DUP2 MSTORE PUSH1 0x20 ADD PUSH1 0x0 KECCAK256 DUP8 PUSH1 0x9 ADD PUSH1 0x0 PUSH1 0x1 DUP2 MSTORE PUSH1 0x20 ADD SWAP1 DUP2 MSTORE PUSH1 0x20 ADD PUSH1 0x0 KECCAK256 SWAP1 DUP1 SLOAD PUSH2 0x110E SWAP1 PUSH2 0x2B41 JUMP JUMPDEST PUSH2 0x1119 SWAP3 SWAP2 SWAP1 PUSH2 0x18E4 JUMP JUMPDEST POP PUSH1 0x0 PUSH1 0x2 SWAP1 POP JUMPDEST DUP8 PUSH1 0x4 ADD PUSH1 0x0 SWAP1 SLOAD SWAP1 PUSH2 0x100 EXP SWAP1 DIV PUSH2 0xFFFF AND PUSH2 0xFFFF AND DUP2 PUSH2 0xFFFF AND GT PUSH2 0x12B6 JUMPI DUP3 DUP9 PUSH1 0xA ADD DUP10 PUSH1 0x8 ADD PUSH1 0x0 DUP5 PUSH2 0xFFFF AND DUP2 MSTORE PUSH1 0x20 ADD SWAP1 DUP2 MSTORE PUSH1 0x20 ADD PUSH1 0x0 KECCAK256 PUSH1 0x40 MLOAD PUSH2 0x116D SWAP2 SWAP1 PUSH2 0x2375 JUMP JUMPDEST SWAP1 DUP2 MSTORE PUSH1 0x20 ADD PUSH1 0x40 MLOAD DUP1 SWAP2 SUB SWAP1 KECCAK256 SLOAD GT ISZERO PUSH2 0x120D JUMPI DUP8 PUSH1 0xA ADD DUP9 PUSH1 0x8 ADD PUSH1 0x0 DUP4 PUSH2 0xFFFF AND DUP2 MSTORE PUSH1 0x20 ADD SWAP1 DUP2 MSTORE PUSH1 0x20 ADD PUSH1 0x0 KECCAK256 PUSH1 0x40 MLOAD PUSH2 0x11AC SWAP2 SWAP1 PUSH2 0x2375 JUMP JUMPDEST SWAP1 DUP2 MSTORE PUSH1 0x20 ADD PUSH1 0x40 MLOAD DUP1 SWAP2 SUB SWAP1 KECCAK256 SLOAD SWAP3 POP PUSH1 0x1 SWAP2 POP DUP8 PUSH1 0x8 ADD PUSH1 0x0 DUP3 PUSH2 0xFFFF AND DUP2 MSTORE PUSH1 0x20 ADD SWAP1 DUP2 MSTORE PUSH1 0x20 ADD PUSH1 0x0 KECCAK256 DUP9 PUSH1 0x9 ADD PUSH1 0x0 PUSH1 0x1 DUP2 MSTORE PUSH1 0x20 ADD SWAP1 DUP2 MSTORE PUSH1 0x20 ADD PUSH1 0x0 KECCAK256 SWAP1 DUP1 SLOAD PUSH2 0x11FC SWAP1 PUSH2 0x2B41 JUMP JUMPDEST PUSH2 0x1207 SWAP3 SWAP2 SWAP1 PUSH2 0x18E4 JUMP JUMPDEST POP PUSH2 0x12A3 JUMP JUMPDEST DUP3 DUP9 PUSH1 0xA ADD DUP10 PUSH1 0x8 ADD PUSH1 0x0 DUP5 PUSH2 0xFFFF AND DUP2 MSTORE PUSH1 0x20 ADD SWAP1 DUP2 MSTORE PUSH1 0x20 ADD PUSH1 0x0 KECCAK256 PUSH1 0x40 MLOAD PUSH2 0x1238 SWAP2 SWAP1 PUSH2 0x2375 JUMP JUMPDEST SWAP1 DUP2 MSTORE PUSH1 0x20 ADD PUSH1 0x40 MLOAD DUP1 SWAP2 SUB SWAP1 KECCAK256 SLOAD EQ ISZERO PUSH2 0x12A2 JUMPI DUP2 DUP1 PUSH2 0x1258 SWAP1 PUSH2 0x2C08 JUMP JUMPDEST SWAP3 POP POP DUP8 PUSH1 0x8 ADD PUSH1 0x0 DUP3 PUSH2 0xFFFF AND DUP2 MSTORE PUSH1 0x20 ADD SWAP1 DUP2 MSTORE PUSH1 0x20 ADD PUSH1 0x0 KECCAK256 DUP9 PUSH1 0x9 ADD PUSH1 0x0 DUP5 DUP2 MSTORE PUSH1 0x20 ADD SWAP1 DUP2 MSTORE PUSH1 0x20 ADD PUSH1 0x0 KECCAK256 SWAP1 DUP1 SLOAD PUSH2 0x1295 SWAP1 PUSH2 0x2B41 JUMP JUMPDEST PUSH2 0x12A0 SWAP3 SWAP2 SWAP1 PUSH2 0x18E4 JUMP JUMPDEST POP JUMPDEST JUMPDEST DUP1 DUP1 PUSH2 0x12AE SWAP1 PUSH2 0x2BDD JUMP JUMPDEST SWAP2 POP POP PUSH2 0x1121 JUMP JUMPDEST POP PUSH1 0x0 SWAP3 POP POP POP PUSH2 0x147A JUMP JUMPDEST DUP5 PUSH1 0x6 ADD PUSH1 0x0 DUP6 PUSH20 0xFFFFFFFFFFFFFFFFFFFFFFFFFFFFFFFFFFFFFFFF AND PUSH20 0xFFFFFFFFFFFFFFFFFFFFFFFFFFFFFFFFFFFFFFFF AND DUP2 MSTORE PUSH1 0x20 ADD SWAP1 DUP2 MSTORE PUSH1 0x20 ADD PUSH1 0x0 KECCAK256 PUSH1 0x0 SWAP1 SLOAD SWAP1 PUSH2 0x100 EXP SWAP1 DIV PUSH1 0xFF AND PUSH2 0x1350 JUMPI PUSH1 0x40 MLOAD PUSH32 0x8C379A000000000000000000000000000000000000000000000000000000000 DUP2 MSTORE PUSH1 0x4 ADD PUSH2 0x1347 SWAP1 PUSH2 0x24E4 JUMP JUMPDEST PUSH1 0x40 MLOAD DUP1 SWAP2 SUB SWAP1 REVERT JUMPDEST PUSH1 0x0 JUMPDEST DUP6 PUSH1 0x4 ADD PUSH1 0x0 SWAP1 SLOAD SWAP1 PUSH2 0x100 EXP SWAP1 DIV PUSH2 0xFFFF AND PUSH2 0xFFFF AND DUP2 PUSH2 0xFFFF AND LT ISZERO PUSH2 0x1474 JUMPI DUP6 PUSH1 0x7 ADD DUP5 DUP3 PUSH2 0xFFFF AND DUP2 MLOAD DUP2 LT PUSH2 0x1390 JUMPI PUSH2 0x138F PUSH2 0x2CAF JUMP JUMPDEST JUMPDEST PUSH1 0x20 MUL PUSH1 0x20 ADD ADD MLOAD PUSH1 0x40 MLOAD PUSH2 0x13A5 SWAP2 SWAP1 PUSH2 0x235E JUMP JUMPDEST SWAP1 DUP2 MSTORE PUSH1 0x20 ADD PUSH1 0x40 MLOAD DUP1 SWAP2 SUB SWAP1 KECCAK256 PUSH1 0x0 SWAP1 SLOAD SWAP1 PUSH2 0x100 EXP SWAP1 DIV PUSH1 0xFF AND PUSH2 0x1400 JUMPI PUSH1 0x40 MLOAD PUSH32 0x8C379A000000000000000000000000000000000000000000000000000000000 DUP2 MSTORE PUSH1 0x4 ADD PUSH2 0x13F7 SWAP1 PUSH2 0x2484 JUMP JUMPDEST PUSH1 0x40 MLOAD DUP1 SWAP2 SUB SWAP1 REVERT JUMPDEST DUP3 DUP2 PUSH2 0xFFFF AND DUP2 MLOAD DUP2 LT PUSH2 0x1417 JUMPI PUSH2 0x1416 PUSH2 0x2CAF JUMP JUMPDEST JUMPDEST PUSH1 0x20 MUL PUSH1 0x20 ADD ADD MLOAD DUP7 PUSH1 0xA ADD DUP6 DUP4 PUSH2 0xFFFF AND DUP2 MLOAD DUP2 LT PUSH2 0x143A JUMPI PUSH2 0x1439 PUSH2 0x2CAF JUMP JUMPDEST JUMPDEST PUSH1 0x20 MUL PUSH1 0x20 ADD ADD MLOAD PUSH1 0x40 MLOAD PUSH2 0x144F SWAP2 SWAP1 PUSH2 0x235E JUMP JUMPDEST SWAP1 DUP2 MSTORE PUSH1 0x20 ADD PUSH1 0x40 MLOAD DUP1 SWAP2 SUB SWAP1 KECCAK256 DUP2 SWAP1 SSTORE POP DUP1 DUP1 PUSH2 0x146C SWAP1 PUSH2 0x2BDD JUMP JUMPDEST SWAP2 POP POP PUSH2 0x1353 JUMP JUMPDEST POP PUSH1 0x1 SWAP1 POP JUMPDEST SWAP5 SWAP4 POP POP POP POP JUMP JUMPDEST PUSH1 0x0 DUP4 PUSH1 0x0 ADD PUSH1 0x10 DUP2 DUP2 SWAP1 SLOAD SWAP1 PUSH2 0x100 EXP SWAP1 DIV PUSH16 0xFFFFFFFFFFFFFFFFFFFFFFFFFFFFFFFF AND DUP1 SWAP3 SWAP2 SWAP1 PUSH2 0x14B4 SWAP1 PUSH2 0x2BA4 JUMP JUMPDEST SWAP2 SWAP1 PUSH2 0x100 EXP DUP2 SLOAD DUP2 PUSH16 0xFFFFFFFFFFFFFFFFFFFFFFFFFFFFFFFF MUL NOT AND SWAP1 DUP4 PUSH16 0xFFFFFFFFFFFFFFFFFFFFFFFFFFFFFFFF AND MUL OR SWAP1 SSTORE POP POP DUP3 DUP5 PUSH1 0x2 ADD PUSH1 0x0 DUP7 PUSH1 0x0 ADD PUSH1 0x10 SWAP1 SLOAD SWAP1 PUSH2 0x100 EXP SWAP1 DIV PUSH16 0xFFFFFFFFFFFFFFFFFFFFFFFFFFFFFFFF AND PUSH16 0xFFFFFFFFFFFFFFFFFFFFFFFFFFFFFFFF AND PUSH16 0xFFFFFFFFFFFFFFFFFFFFFFFFFFFFFFFF AND DUP2 MSTORE PUSH1 0x20 ADD SWAP1 DUP2 MSTORE PUSH1 0x20 ADD PUSH1 0x0 KECCAK256 DUP2 SWAP1 SSTORE POP PUSH1 0x0 JUMPDEST DUP3 MLOAD DUP2 PUSH2 0xFFFF AND LT ISZERO PUSH2 0x15D5 JUMPI DUP3 DUP2 PUSH2 0xFFFF AND DUP2 MLOAD DUP2 LT PUSH2 0x1570 JUMPI PUSH2 0x156F PUSH2 0x2CAF JUMP JUMPDEST JUMPDEST PUSH1 0x20 MUL PUSH1 0x20 ADD ADD MLOAD DUP6 PUSH1 0x3 ADD PUSH1 0x0 DUP7 DUP2 MSTORE PUSH1 0x20 ADD SWAP1 DUP2 MSTORE PUSH1 0x20 ADD PUSH1 0x0 KECCAK256 PUSH1 0x0 PUSH1 0x1 DUP5 PUSH2 0x159C SWAP2 SWAP1 PUSH2 0x2998 JUMP JUMPDEST PUSH2 0xFFFF AND DUP2 MSTORE PUSH1 0x20 ADD SWAP1 DUP2 MSTORE PUSH1 0x20 ADD PUSH1 0x0 KECCAK256 SWAP1 DUP1 MLOAD SWAP1 PUSH1 0x20 ADD SWAP1 PUSH2 0x15C1 SWAP3 SWAP2 SWAP1 PUSH2 0x17D8 JUMP JUMPDEST POP DUP1 DUP1 PUSH2 0x15CD SWAP1 PUSH2 0x2BDD JUMP JUMPDEST SWAP2 POP POP PUSH2 0x154C JUMP JUMPDEST POP PUSH1 0x1 DUP5 PUSH1 0x4 ADD PUSH1 0x0 DUP6 DUP2 MSTORE PUSH1 0x20 ADD SWAP1 DUP2 MSTORE PUSH1 0x20 ADD PUSH1 0x0 KECCAK256 PUSH1 0x0 PUSH2 0x100 EXP DUP2 SLOAD DUP2 PUSH1 0xFF MUL NOT AND SWAP1 DUP4 ISZERO ISZERO MUL OR SWAP1 SSTORE POP PUSH1 0x1 SWAP1 POP SWAP4 SWAP3 POP POP POP JUMP JUMPDEST PUSH1 0x0 DUP1 DUP3 PUSH1 0x0 ADD SLOAD EQ ISZERO PUSH2 0x1658 JUMPI PUSH1 0x40 MLOAD PUSH32 0x8C379A000000000000000000000000000000000000000000000000000000000 DUP2 MSTORE PUSH1 0x4 ADD PUSH2 0x164F SWAP1 PUSH2 0x25C0 JUMP JUMPDEST PUSH1 0x40 MLOAD DUP1 SWAP2 SUB SWAP1 REVERT JUMPDEST DUP2 PUSH1 0x1 ADD PUSH1 0x14 SWAP1 SLOAD SWAP1 PUSH2 0x100 EXP SWAP1 DIV PUSH1 0xFF AND ISZERO PUSH2 0x16AA JUMPI PUSH1 0x40 MLOAD PUSH32 0x8C379A000000000000000000000000000000000000000000000000000000000 DUP2 MSTORE PUSH1 0x4 ADD PUSH2 0x16A1 SWAP1 PUSH2 0x25E0 JUMP JUMPDEST PUSH1 0x40 MLOAD DUP1 SWAP2 SUB SWAP1 REVERT JUMPDEST PUSH1 0x0 DUP3 PUSH1 0x2 ADD DUP2 SWAP1 SSTORE POP PUSH1 0x1 SWAP1 POP SWAP2 SWAP1 POP JUMP JUMPDEST PUSH1 0x0 PUSH20 0xFFFFFFFFFFFFFFFFFFFFFFFFFFFFFFFFFFFFFFFF AND DUP3 PUSH20 0xFFFFFFFFFFFFFFFFFFFFFFFFFFFFFFFFFFFFFFFF AND EQ ISZERO PUSH2 0x172D JUMPI PUSH1 0x40 MLOAD PUSH32 0x8C379A000000000000000000000000000000000000000000000000000000000 DUP2 MSTORE PUSH1 0x4 ADD PUSH2 0x1724 SWAP1 PUSH2 0x2600 JUMP JUMPDEST PUSH1 0x40 MLOAD DUP1 SWAP2 SUB SWAP1 REVERT JUMPDEST DUP1 PUSH1 0x1 PUSH1 0x0 DUP3 DUP3 SLOAD PUSH2 0x173F SWAP2 SWAP1 PUSH2 0x29D0 JUMP JUMPDEST SWAP3 POP POP DUP2 SWAP1 SSTORE POP DUP1 PUSH1 0x0 DUP1 DUP5 PUSH20 0xFFFFFFFFFFFFFFFFFFFFFFFFFFFFFFFFFFFFFFFF AND PUSH20 0xFFFFFFFFFFFFFFFFFFFFFFFFFFFFFFFFFFFFFFFF AND DUP2 MSTORE PUSH1 0x20 ADD SWAP1 DUP2 MSTORE PUSH1 0x20 ADD PUSH1 0x0 KECCAK256 PUSH1 0x0 DUP3 DUP3 SLOAD PUSH2 0x1794 SWAP2 SWAP1 PUSH2 0x29D0 JUMP JUMPDEST SWAP3 POP POP DUP2 SWAP1 SSTORE POP PUSH32 0xABF5327BE9F5825C40D58BDA541DD07F09B62DF3376BBD5ECDBAA8BD82A9D492 DUP3 DUP3 PUSH1 0x40 MLOAD PUSH2 0x17CC SWAP3 SWAP2 SWAP1 PUSH2 0x2584 JUMP JUMPDEST PUSH1 0x40 MLOAD DUP1 SWAP2 SUB SWAP1 LOG1 POP POP JUMP JUMPDEST DUP3 DUP1 SLOAD PUSH2 0x17E4 SWAP1 PUSH2 0x2B41 JUMP JUMPDEST SWAP1 PUSH1 0x0 MSTORE PUSH1 0x20 PUSH1 0x0 KECCAK256 SWAP1 PUSH1 0x1F ADD PUSH1 0x20 SWAP1 DIV DUP2 ADD SWAP3 DUP3 PUSH2 0x1806 JUMPI PUSH1 0x0 DUP6 SSTORE PUSH2 0x184D JUMP JUMPDEST DUP3 PUSH1 0x1F LT PUSH2 0x181F JUMPI DUP1 MLOAD PUSH1 0xFF NOT AND DUP4 DUP1 ADD OR DUP6 SSTORE PUSH2 0x184D JUMP JUMPDEST DUP3 DUP1 ADD PUSH1 0x1 ADD DUP6 SSTORE DUP3 ISZERO PUSH2 0x184D JUMPI SWAP2 DUP3 ADD JUMPDEST DUP3 DUP2 GT ISZERO PUSH2 0x184C JUMPI DUP3 MLOAD DUP3 SSTORE SWAP2 PUSH1 0x20 ADD SWAP2 SWAP1 PUSH1 0x1 ADD SWAP1 PUSH2 0x1831 JUMP JUMPDEST JUMPDEST POP SWAP1 POP PUSH2 0x185A SWAP2 SWAP1 PUSH2 0x1971 JUMP JUMPDEST POP SWAP1 JUMP JUMPDEST DUP3 DUP1 SLOAD PUSH2 0x186A SWAP1 PUSH2 0x2B41 JUMP JUMPDEST SWAP1 PUSH1 0x0 MSTORE PUSH1 0x20 PUSH1 0x0 KECCAK256 SWAP1 PUSH1 0x1F ADD PUSH1 0x20 SWAP1 DIV DUP2 ADD SWAP3 DUP3 PUSH2 0x188C JUMPI PUSH1 0x0 DUP6 SSTORE PUSH2 0x18D3 JUMP JUMPDEST DUP3 PUSH1 0x1F LT PUSH2 0x18A5 JUMPI DUP1 CALLDATALOAD PUSH1 0xFF NOT AND DUP4 DUP1 ADD OR DUP6 SSTORE PUSH2 0x18D3 JUMP JUMPDEST DUP3 DUP1 ADD PUSH1 0x1 ADD DUP6 SSTORE DUP3 ISZERO PUSH2 0x18D3 JUMPI SWAP2 DUP3 ADD JUMPDEST DUP3 DUP2 GT ISZERO PUSH2 0x18D2 JUMPI DUP3 CALLDATALOAD DUP3 SSTORE SWAP2 PUSH1 0x20 ADD SWAP2 SWAP1 PUSH1 0x1 ADD SWAP1 PUSH2 0x18B7 JUMP JUMPDEST JUMPDEST POP SWAP1 POP PUSH2 0x18E0 SWAP2 SWAP1 PUSH2 0x1971 JUMP JUMPDEST POP SWAP1 JUMP JUMPDEST DUP3 DUP1 SLOAD PUSH2 0x18F0 SWAP1 PUSH2 0x2B41 JUMP JUMPDEST SWAP1 PUSH1 0x0 MSTORE PUSH1 0x20 PUSH1 0x0 KECCAK256 SWAP1 PUSH1 0x1F ADD PUSH1 0x20 SWAP1 DIV DUP2 ADD SWAP3 DUP3 PUSH2 0x1912 JUMPI PUSH1 0x0 DUP6 SSTORE PUSH2 0x1960 JUMP JUMPDEST DUP3 PUSH1 0x1F LT PUSH2 0x1923 JUMPI DUP1 SLOAD DUP6 SSTORE PUSH2 0x1960 JUMP JUMPDEST DUP3 DUP1 ADD PUSH1 0x1 ADD DUP6 SSTORE DUP3 ISZERO PUSH2 0x1960 JUMPI PUSH1 0x0 MSTORE PUSH1 0x20 PUSH1 0x0 KECCAK256 SWAP2 PUSH1 0x1F ADD PUSH1 0x20 SWAP1 DIV DUP3 ADD JUMPDEST DUP3 DUP2 GT ISZERO PUSH2 0x195F JUMPI DUP3 SLOAD DUP3 SSTORE SWAP2 PUSH1 0x1 ADD SWAP2 SWAP1 PUSH1 0x1 ADD SWAP1 PUSH2 0x1944 JUMP JUMPDEST JUMPDEST POP SWAP1 POP PUSH2 0x196D SWAP2 SWAP1 PUSH2 0x1971 JUMP JUMPDEST POP SWAP1 JUMP JUMPDEST JUMPDEST DUP1 DUP3 GT ISZERO PUSH2 0x198A JUMPI PUSH1 0x0 DUP2 PUSH1 0x0 SWAP1 SSTORE POP PUSH1 0x1 ADD PUSH2 0x1972 JUMP JUMPDEST POP SWAP1 JUMP JUMPDEST PUSH1 0x0 PUSH2 0x19A1 PUSH2 0x199C DUP5 PUSH2 0x27D2 JUMP JUMPDEST PUSH2 0x27AD JUMP JUMPDEST SWAP1 POP DUP1 DUP4 DUP3 MSTORE PUSH1 0x20 DUP3 ADD SWAP1 POP DUP3 DUP6 PUSH1 0x20 DUP7 MUL DUP3 ADD GT ISZERO PUSH2 0x19C4 JUMPI PUSH2 0x19C3 PUSH2 0x2D2B JUMP JUMPDEST JUMPDEST PUSH1 0x0 JUMPDEST DUP6 DUP2 LT ISZERO PUSH2 0x19F4 JUMPI DUP2 PUSH2 0x19DA DUP9 DUP3 PUSH2 0x1B3E JUMP JUMPDEST DUP5 MSTORE PUSH1 0x20 DUP5 ADD SWAP4 POP PUSH1 0x20 DUP4 ADD SWAP3 POP POP PUSH1 0x1 DUP2 ADD SWAP1 POP PUSH2 0x19C7 JUMP JUMPDEST POP POP POP SWAP4 SWAP3 POP POP POP JUMP JUMPDEST PUSH1 0x0 PUSH2 0x1A11 PUSH2 0x1A0C DUP5 PUSH2 0x27FE JUMP JUMPDEST PUSH2 0x27AD JUMP JUMPDEST SWAP1 POP DUP1 DUP4 DUP3 MSTORE PUSH1 0x20 DUP3 ADD SWAP1 POP DUP3 DUP6 PUSH1 0x20 DUP7 MUL DUP3 ADD GT ISZERO PUSH2 0x1A34 JUMPI PUSH2 0x1A33 PUSH2 0x2D2B JUMP JUMPDEST JUMPDEST PUSH1 0x0 JUMPDEST DUP6 DUP2 LT ISZERO PUSH2 0x1A82 JUMPI DUP2 CALLDATALOAD PUSH8 0xFFFFFFFFFFFFFFFF DUP2 GT ISZERO PUSH2 0x1A5A JUMPI PUSH2 0x1A59 PUSH2 0x2D17 JUMP JUMPDEST JUMPDEST DUP1 DUP7 ADD PUSH2 0x1A67 DUP10 DUP3 PUSH2 0x1C33 JUMP JUMPDEST DUP6 MSTORE PUSH1 0x20 DUP6 ADD SWAP5 POP PUSH1 0x20 DUP5 ADD SWAP4 POP POP POP PUSH1 0x1 DUP2 ADD SWAP1 POP PUSH2 0x1A37 JUMP JUMPDEST POP POP POP SWAP4 SWAP3 POP POP POP JUMP JUMPDEST PUSH1 0x0 PUSH2 0x1A9F PUSH2 0x1A9A DUP5 PUSH2 0x282A JUMP JUMPDEST PUSH2 0x27AD JUMP JUMPDEST SWAP1 POP DUP1 DUP4 DUP3 MSTORE PUSH1 0x20 DUP3 ADD SWAP1 POP DUP3 DUP6 PUSH1 0x20 DUP7 MUL DUP3 ADD GT ISZERO PUSH2 0x1AC2 JUMPI PUSH2 0x1AC1 PUSH2 0x2D2B JUMP JUMPDEST JUMPDEST PUSH1 0x0 JUMPDEST DUP6 DUP2 LT ISZERO PUSH2 0x1AF2 JUMPI DUP2 PUSH2 0x1AD8 DUP9 DUP3 PUSH2 0x1C61 JUMP JUMPDEST DUP5 MSTORE PUSH1 0x20 DUP5 ADD SWAP4 POP PUSH1 0x20 DUP4 ADD SWAP3 POP POP PUSH1 0x1 DUP2 ADD SWAP1 POP PUSH2 0x1AC5 JUMP JUMPDEST POP POP POP SWAP4 SWAP3 POP POP POP JUMP JUMPDEST PUSH1 0x0 PUSH2 0x1B0F PUSH2 0x1B0A DUP5 PUSH2 0x2856 JUMP JUMPDEST PUSH2 0x27AD JUMP JUMPDEST SWAP1 POP DUP3 DUP2 MSTORE PUSH1 0x20 DUP2 ADD DUP5 DUP5 DUP5 ADD GT ISZERO PUSH2 0x1B2B JUMPI PUSH2 0x1B2A PUSH2 0x2D35 JUMP JUMPDEST JUMPDEST PUSH2 0x1B36 DUP5 DUP3 DUP6 PUSH2 0x2AFF JUMP JUMPDEST POP SWAP4 SWAP3 POP POP POP JUMP JUMPDEST PUSH1 0x0 DUP2 CALLDATALOAD SWAP1 POP PUSH2 0x1B4D DUP2 PUSH2 0x30A5 JUMP JUMPDEST SWAP3 SWAP2 POP POP JUMP JUMPDEST PUSH1 0x0 DUP3 PUSH1 0x1F DUP4 ADD SLT PUSH2 0x1B68 JUMPI PUSH2 0x1B67 PUSH2 0x2D17 JUMP JUMPDEST JUMPDEST DUP2 CALLDATALOAD PUSH2 0x1B78 DUP5 DUP3 PUSH1 0x20 DUP7 ADD PUSH2 0x198E JUMP JUMPDEST SWAP2 POP POP SWAP3 SWAP2 POP POP JUMP JUMPDEST PUSH1 0x0 DUP1 DUP4 PUSH1 0x1F DUP5 ADD SLT PUSH2 0x1B97 JUMPI PUSH2 0x1B96 PUSH2 0x2D17 JUMP JUMPDEST JUMPDEST DUP3 CALLDATALOAD SWAP1 POP PUSH8 0xFFFFFFFFFFFFFFFF DUP2 GT ISZERO PUSH2 0x1BB4 JUMPI PUSH2 0x1BB3 PUSH2 0x2D12 JUMP JUMPDEST JUMPDEST PUSH1 0x20 DUP4 ADD SWAP2 POP DUP4 PUSH1 0x20 DUP3 MUL DUP4 ADD GT ISZERO PUSH2 0x1BD0 JUMPI PUSH2 0x1BCF PUSH2 0x2D2B JUMP JUMPDEST JUMPDEST SWAP3 POP SWAP3 SWAP1 POP JUMP JUMPDEST PUSH1 0x0 DUP3 PUSH1 0x1F DUP4 ADD SLT PUSH2 0x1BEC JUMPI PUSH2 0x1BEB PUSH2 0x2D17 JUMP JUMPDEST JUMPDEST DUP2 CALLDATALOAD PUSH2 0x1BFC DUP5 DUP3 PUSH1 0x20 DUP7 ADD PUSH2 0x19FE JUMP JUMPDEST SWAP2 POP POP SWAP3 SWAP2 POP POP JUMP JUMPDEST PUSH1 0x0 DUP3 PUSH1 0x1F DUP4 ADD SLT PUSH2 0x1C1A JUMPI PUSH2 0x1C19 PUSH2 0x2D17 JUMP JUMPDEST JUMPDEST DUP2 CALLDATALOAD PUSH2 0x1C2A DUP5 DUP3 PUSH1 0x20 DUP7 ADD PUSH2 0x1A8C JUMP JUMPDEST SWAP2 POP POP SWAP3 SWAP2 POP POP JUMP JUMPDEST PUSH1 0x0 DUP3 PUSH1 0x1F DUP4 ADD SLT PUSH2 0x1C48 JUMPI PUSH2 0x1C47 PUSH2 0x2D17 JUMP JUMPDEST JUMPDEST DUP2 CALLDATALOAD PUSH2 0x1C58 DUP5 DUP3 PUSH1 0x20 DUP7 ADD PUSH2 0x1AFC JUMP JUMPDEST SWAP2 POP POP SWAP3 SWAP2 POP POP JUMP JUMPDEST PUSH1 0x0 DUP2 CALLDATALOAD SWAP1 POP PUSH2 0x1C70 DUP2 PUSH2 0x30BC JUMP JUMPDEST SWAP3 SWAP2 POP POP JUMP JUMPDEST PUSH1 0x0 DUP2 CALLDATALOAD SWAP1 POP PUSH2 0x1C85 DUP2 PUSH2 0x30D3 JUMP JUMPDEST SWAP3 SWAP2 POP POP JUMP JUMPDEST PUSH1 0x0 PUSH1 0x20 DUP3 DUP5 SUB SLT ISZERO PUSH2 0x1CA1 JUMPI PUSH2 0x1CA0 PUSH2 0x2D44 JUMP JUMPDEST JUMPDEST PUSH1 0x0 PUSH2 0x1CAF DUP5 DUP3 DUP6 ADD PUSH2 0x1B3E JUMP JUMPDEST SWAP2 POP POP SWAP3 SWAP2 POP POP JUMP JUMPDEST PUSH1 0x0 PUSH1 0x20 DUP3 DUP5 SUB SLT ISZERO PUSH2 0x1CCE JUMPI PUSH2 0x1CCD PUSH2 0x2D44 JUMP JUMPDEST JUMPDEST PUSH1 0x0 PUSH2 0x1CDC DUP5 DUP3 DUP6 ADD PUSH2 0x1C61 JUMP JUMPDEST SWAP2 POP POP SWAP3 SWAP2 POP POP JUMP JUMPDEST PUSH1 0x0 DUP1 PUSH1 0x0 DUP1 PUSH1 0x80 DUP6 DUP8 SUB SLT ISZERO PUSH2 0x1CFF JUMPI PUSH2 0x1CFE PUSH2 0x2D44 JUMP JUMPDEST JUMPDEST PUSH1 0x0 PUSH2 0x1D0D DUP8 DUP3 DUP9 ADD PUSH2 0x1C61 JUMP JUMPDEST SWAP5 POP POP PUSH1 0x20 PUSH2 0x1D1E DUP8 DUP3 DUP9 ADD PUSH2 0x1B3E JUMP JUMPDEST SWAP4 POP POP PUSH1 0x40 DUP6 ADD CALLDATALOAD PUSH8 0xFFFFFFFFFFFFFFFF DUP2 GT ISZERO PUSH2 0x1D3F JUMPI PUSH2 0x1D3E PUSH2 0x2D3A JUMP JUMPDEST JUMPDEST PUSH2 0x1D4B DUP8 DUP3 DUP9 ADD PUSH2 0x1BD7 JUMP JUMPDEST SWAP3 POP POP PUSH1 0x60 DUP6 ADD CALLDATALOAD PUSH8 0xFFFFFFFFFFFFFFFF DUP2 GT ISZERO PUSH2 0x1D6C JUMPI PUSH2 0x1D6B PUSH2 0x2D3A JUMP JUMPDEST JUMPDEST PUSH2 0x1D78 DUP8 DUP3 DUP9 ADD PUSH2 0x1C05 JUMP JUMPDEST SWAP2 POP POP SWAP3 SWAP6 SWAP2 SWAP5 POP SWAP3 POP JUMP JUMPDEST PUSH1 0x0 DUP1 PUSH1 0x0 DUP1 PUSH1 0x0 DUP1 PUSH1 0x0 DUP1 PUSH1 0x0 PUSH2 0x100 DUP11 DUP13 SUB SLT ISZERO PUSH2 0x1DA7 JUMPI PUSH2 0x1DA6 PUSH2 0x2D44 JUMP JUMPDEST JUMPDEST PUSH1 0x0 PUSH2 0x1DB5 DUP13 DUP3 DUP14 ADD PUSH2 0x1C76 JUMP JUMPDEST SWAP10 POP POP PUSH1 0x20 DUP11 ADD CALLDATALOAD PUSH8 0xFFFFFFFFFFFFFFFF DUP2 GT ISZERO PUSH2 0x1DD6 JUMPI PUSH2 0x1DD5 PUSH2 0x2D3A JUMP JUMPDEST JUMPDEST PUSH2 0x1DE2 DUP13 DUP3 DUP14 ADD PUSH2 0x1B53 JUMP JUMPDEST SWAP9 POP POP PUSH1 0x40 PUSH2 0x1DF3 DUP13 DUP3 DUP14 ADD PUSH2 0x1B3E JUMP JUMPDEST SWAP8 POP POP PUSH1 0x60 PUSH2 0x1E04 DUP13 DUP3 DUP14 ADD PUSH2 0x1C61 JUMP JUMPDEST SWAP7 POP POP PUSH1 0x80 PUSH2 0x1E15 DUP13 DUP3 DUP14 ADD PUSH2 0x1C61 JUMP JUMPDEST SWAP6 POP POP PUSH1 0xA0 DUP11 ADD CALLDATALOAD PUSH8 0xFFFFFFFFFFFFFFFF DUP2 GT ISZERO PUSH2 0x1E36 JUMPI PUSH2 0x1E35 PUSH2 0x2D3A JUMP JUMPDEST JUMPDEST PUSH2 0x1E42 DUP13 DUP3 DUP14 ADD PUSH2 0x1C33 JUMP JUMPDEST SWAP5 POP POP PUSH1 0xC0 DUP11 ADD CALLDATALOAD PUSH8 0xFFFFFFFFFFFFFFFF DUP2 GT ISZERO PUSH2 0x1E63 JUMPI PUSH2 0x1E62 PUSH2 0x2D3A JUMP JUMPDEST JUMPDEST PUSH2 0x1E6F DUP13 DUP3 DUP14 ADD PUSH2 0x1B81 JUMP JUMPDEST SWAP4 POP SWAP4 POP POP PUSH1 0xE0 PUSH2 0x1E82 DUP13 DUP3 DUP14 ADD PUSH2 0x1C61 JUMP JUMPDEST SWAP2 POP POP SWAP3 SWAP6 SWAP9 POP SWAP3 SWAP6 SWAP9 POP SWAP3 SWAP6 SWAP9 JUMP JUMPDEST PUSH1 0x0 PUSH2 0x1E9E DUP4 DUP4 PUSH2 0x1EC0 JUMP JUMPDEST PUSH1 0x20 DUP4 ADD SWAP1 POP SWAP3 SWAP2 POP POP JUMP JUMPDEST PUSH1 0x0 PUSH2 0x1EB7 DUP5 DUP5 DUP5 PUSH2 0x1FC1 JUMP JUMPDEST SWAP1 POP SWAP4 SWAP3 POP POP POP JUMP JUMPDEST PUSH2 0x1EC9 DUP2 PUSH2 0x2A80 JUMP JUMPDEST DUP3 MSTORE POP POP JUMP JUMPDEST PUSH2 0x1ED8 DUP2 PUSH2 0x2A80 JUMP JUMPDEST DUP3 MSTORE POP POP JUMP JUMPDEST PUSH1 0x0 PUSH2 0x1EE9 DUP3 PUSH2 0x28B6 JUMP JUMPDEST PUSH2 0x1EF3 DUP2 DUP6 PUSH2 0x28E6 JUMP JUMPDEST SWAP4 POP PUSH2 0x1EFE DUP4 PUSH2 0x2887 JUMP JUMPDEST DUP1 PUSH1 0x0 JUMPDEST DUP4 DUP2 LT ISZERO PUSH2 0x1F2F JUMPI DUP2 MLOAD PUSH2 0x1F16 DUP9 DUP3 PUSH2 0x1E92 JUMP JUMPDEST SWAP8 POP PUSH2 0x1F21 DUP4 PUSH2 0x28CC JUMP JUMPDEST SWAP3 POP POP PUSH1 0x1 DUP2 ADD SWAP1 POP PUSH2 0x1F02 JUMP JUMPDEST POP DUP6 SWAP4 POP POP POP POP SWAP3 SWAP2 POP POP JUMP JUMPDEST PUSH1 0x0 PUSH2 0x1F48 DUP4 DUP6 PUSH2 0x28F7 JUMP JUMPDEST SWAP4 POP DUP4 PUSH1 0x20 DUP5 MUL DUP6 ADD PUSH2 0x1F5A DUP5 PUSH2 0x2897 JUMP JUMPDEST DUP1 PUSH1 0x0 JUMPDEST DUP8 DUP2 LT ISZERO PUSH2 0x1FA0 JUMPI DUP5 DUP5 SUB DUP10 MSTORE PUSH2 0x1F75 DUP3 DUP5 PUSH2 0x2935 JUMP JUMPDEST PUSH2 0x1F80 DUP7 DUP3 DUP5 PUSH2 0x1EAA JUMP JUMPDEST SWAP6 POP PUSH2 0x1F8B DUP5 PUSH2 0x28D9 JUMP JUMPDEST SWAP4 POP PUSH1 0x20 DUP12 ADD SWAP11 POP POP POP PUSH1 0x1 DUP2 ADD SWAP1 POP PUSH2 0x1F5E JUMP JUMPDEST POP DUP3 SWAP8 POP DUP8 SWAP5 POP POP POP POP POP SWAP4 SWAP3 POP POP POP JUMP JUMPDEST PUSH2 0x1FBB DUP2 PUSH2 0x2A92 JUMP JUMPDEST DUP3 MSTORE POP POP JUMP JUMPDEST PUSH1 0x0 PUSH2 0x1FCD DUP4 DUP6 PUSH2 0x2908 JUMP JUMPDEST SWAP4 POP PUSH2 0x1FDA DUP4 DUP6 DUP5 PUSH2 0x2AFF JUMP JUMPDEST PUSH2 0x1FE3 DUP4 PUSH2 0x2D49 JUMP JUMPDEST DUP5 ADD SWAP1 POP SWAP4 SWAP3 POP POP POP JUMP JUMPDEST PUSH1 0x0 PUSH2 0x1FFA DUP4 DUP6 PUSH2 0x292A JUMP JUMPDEST SWAP4 POP PUSH2 0x2007 DUP4 DUP6 DUP5 PUSH2 0x2AFF JUMP JUMPDEST DUP3 DUP5 ADD SWAP1 POP SWAP4 SWAP3 POP POP POP JUMP JUMPDEST PUSH1 0x0 PUSH2 0x201E DUP3 PUSH2 0x28C1 JUMP JUMPDEST PUSH2 0x2028 DUP2 DUP6 PUSH2 0x2919 JUMP JUMPDEST SWAP4 POP PUSH2 0x2038 DUP2 DUP6 PUSH1 0x20 DUP7 ADD PUSH2 0x2B0E JUMP JUMPDEST PUSH2 0x2041 DUP2 PUSH2 0x2D49 JUMP JUMPDEST DUP5 ADD SWAP2 POP POP SWAP3 SWAP2 POP POP JUMP JUMPDEST PUSH1 0x0 PUSH2 0x2057 DUP3 PUSH2 0x28C1 JUMP JUMPDEST PUSH2 0x2061 DUP2 DUP6 PUSH2 0x292A JUMP JUMPDEST SWAP4 POP PUSH2 0x2071 DUP2 DUP6 PUSH1 0x20 DUP7 ADD PUSH2 0x2B0E JUMP JUMPDEST DUP1 DUP5 ADD SWAP2 POP POP SWAP3 SWAP2 POP POP JUMP JUMPDEST PUSH1 0x0 DUP2 SLOAD PUSH2 0x208A DUP2 PUSH2 0x2B41 JUMP JUMPDEST PUSH2 0x2094 DUP2 DUP7 PUSH2 0x292A JUMP JUMPDEST SWAP5 POP PUSH1 0x1 DUP3 AND PUSH1 0x0 DUP2 EQ PUSH2 0x20AF JUMPI PUSH1 0x1 DUP2 EQ PUSH2 0x20C0 JUMPI PUSH2 0x20F3 JUMP JUMPDEST PUSH1 0xFF NOT DUP4 AND DUP7 MSTORE DUP2 DUP7 ADD SWAP4 POP PUSH2 0x20F3 JUMP JUMPDEST PUSH2 0x20C9 DUP6 PUSH2 0x28A1 JUMP JUMPDEST PUSH1 0x0 JUMPDEST DUP4 DUP2 LT ISZERO PUSH2 0x20EB JUMPI DUP2 SLOAD DUP2 DUP10 ADD MSTORE PUSH1 0x1 DUP3 ADD SWAP2 POP PUSH1 0x20 DUP2 ADD SWAP1 POP PUSH2 0x20CC JUMP JUMPDEST DUP4 DUP9 ADD SWAP6 POP POP POP JUMPDEST POP POP POP SWAP3 SWAP2 POP POP JUMP JUMPDEST PUSH1 0x0 PUSH2 0x2109 PUSH1 0x12 DUP4 PUSH2 0x2919 JUMP JUMPDEST SWAP2 POP PUSH2 0x2114 DUP3 PUSH2 0x2D5A JUMP JUMPDEST PUSH1 0x20 DUP3 ADD SWAP1 POP SWAP2 SWAP1 POP JUMP JUMPDEST PUSH1 0x0 PUSH2 0x212C PUSH1 0x2C DUP4 PUSH2 0x2919 JUMP JUMPDEST SWAP2 POP PUSH2 0x2137 DUP3 PUSH2 0x2D83 JUMP JUMPDEST PUSH1 0x40 DUP3 ADD SWAP1 POP SWAP2 SWAP1 POP JUMP JUMPDEST PUSH1 0x0 PUSH2 0x214F PUSH1 0xD DUP4 PUSH2 0x2919 JUMP JUMPDEST SWAP2 POP PUSH2 0x215A DUP3 PUSH2 0x2DD2 JUMP JUMPDEST PUSH1 0x20 DUP3 ADD SWAP1 POP SWAP2 SWAP1 POP JUMP JUMPDEST PUSH1 0x0 PUSH2 0x2172 PUSH1 0x1B DUP4 PUSH2 0x2919 JUMP JUMPDEST SWAP2 POP PUSH2 0x217D DUP3 PUSH2 0x2DFB JUMP JUMPDEST PUSH1 0x20 DUP3 ADD SWAP1 POP SWAP2 SWAP1 POP JUMP JUMPDEST PUSH1 0x0 PUSH2 0x2195 PUSH1 0x23 DUP4 PUSH2 0x2919 JUMP JUMPDEST SWAP2 POP PUSH2 0x21A0 DUP3 PUSH2 0x2E24 JUMP JUMPDEST PUSH1 0x40 DUP3 ADD SWAP1 POP SWAP2 SWAP1 POP JUMP JUMPDEST PUSH1 0x0 PUSH2 0x21B8 PUSH1 0x14 DUP4 PUSH2 0x2919 JUMP JUMPDEST SWAP2 POP PUSH2 0x21C3 DUP3 PUSH2 0x2E73 JUMP JUMPDEST PUSH1 0x20 DUP3 ADD SWAP1 POP SWAP2 SWAP1 POP JUMP JUMPDEST PUSH1 0x0 PUSH2 0x21DB PUSH1 0x23 DUP4 PUSH2 0x2919 JUMP JUMPDEST SWAP2 POP PUSH2 0x21E6 DUP3 PUSH2 0x2E9C JUMP JUMPDEST PUSH1 0x40 DUP3 ADD SWAP1 POP SWAP2 SWAP1 POP JUMP JUMPDEST PUSH1 0x0 PUSH2 0x21FE PUSH1 0x12 DUP4 PUSH2 0x2919 JUMP JUMPDEST SWAP2 POP PUSH2 0x2209 DUP3 PUSH2 0x2EEB JUMP JUMPDEST PUSH1 0x20 DUP3 ADD SWAP1 POP SWAP2 SWAP1 POP JUMP JUMPDEST PUSH1 0x0 PUSH2 0x2221 PUSH1 0x23 DUP4 PUSH2 0x2919 JUMP JUMPDEST SWAP2 POP PUSH2 0x222C DUP3 PUSH2 0x2F14 JUMP JUMPDEST PUSH1 0x40 DUP3 ADD SWAP1 POP SWAP2 SWAP1 POP JUMP JUMPDEST PUSH1 0x0 PUSH2 0x2244 PUSH1 0x2A DUP4 PUSH2 0x2919 JUMP JUMPDEST SWAP2 POP PUSH2 0x224F DUP3 PUSH2 0x2F63 JUMP JUMPDEST PUSH1 0x40 DUP3 ADD SWAP1 POP SWAP2 SWAP1 POP JUMP JUMPDEST PUSH1 0x0 PUSH2 0x2267 PUSH1 0x24 DUP4 PUSH2 0x2919 JUMP JUMPDEST SWAP2 POP PUSH2 0x2272 DUP3 PUSH2 0x2FB2 JUMP JUMPDEST PUSH1 0x40 DUP3 ADD SWAP1 POP SWAP2 SWAP1 POP JUMP JUMPDEST PUSH1 0x0 PUSH2 0x228A PUSH1 0x4 DUP4 PUSH2 0x2919 JUMP JUMPDEST SWAP2 POP PUSH2 0x2295 DUP3 PUSH2 0x3001 JUMP JUMPDEST PUSH1 0x20 DUP3 ADD SWAP1 POP SWAP2 SWAP1 POP JUMP JUMPDEST PUSH1 0x0 PUSH2 0x22AD PUSH1 0x1D DUP4 PUSH2 0x2919 JUMP JUMPDEST SWAP2 POP PUSH2 0x22B8 DUP3 PUSH2 0x302A JUMP JUMPDEST PUSH1 0x20 DUP3 ADD SWAP1 POP SWAP2 SWAP1 POP JUMP JUMPDEST PUSH1 0x0 PUSH2 0x22D0 PUSH1 0x9 DUP4 PUSH2 0x2919 JUMP JUMPDEST SWAP2 POP PUSH2 0x22DB DUP3 PUSH2 0x3053 JUMP JUMPDEST PUSH1 0x20 DUP3 ADD SWAP1 POP SWAP2 SWAP1 POP JUMP JUMPDEST PUSH1 0x0 PUSH2 0x22F3 PUSH1 0x1F DUP4 PUSH2 0x2919 JUMP JUMPDEST SWAP2 POP PUSH2 0x22FE DUP3 PUSH2 0x307C JUMP JUMPDEST PUSH1 0x20 DUP3 ADD SWAP1 POP SWAP2 SWAP1 POP JUMP JUMPDEST PUSH2 0x2312 DUP2 PUSH2 0x2A9E JUMP JUMPDEST DUP3 MSTORE POP POP JUMP JUMPDEST PUSH2 0x2321 DUP2 PUSH2 0x2ABA JUMP JUMPDEST DUP3 MSTORE POP POP JUMP JUMPDEST PUSH2 0x2330 DUP2 PUSH2 0x2AE8 JUMP JUMPDEST DUP3 MSTORE POP POP JUMP JUMPDEST PUSH2 0x233F DUP2 PUSH2 0x2AF2 JUMP JUMPDEST DUP3 MSTORE POP POP JUMP JUMPDEST PUSH1 0x0 PUSH2 0x2352 DUP3 DUP5 DUP7 PUSH2 0x1FEE JUMP JUMPDEST SWAP2 POP DUP2 SWAP1 POP SWAP4 SWAP3 POP POP POP JUMP JUMPDEST PUSH1 0x0 PUSH2 0x236A DUP3 DUP5 PUSH2 0x204C JUMP JUMPDEST SWAP2 POP DUP2 SWAP1 POP SWAP3 SWAP2 POP POP JUMP JUMPDEST PUSH1 0x0 PUSH2 0x2381 DUP3 DUP5 PUSH2 0x207D JUMP JUMPDEST SWAP2 POP DUP2 SWAP1 POP SWAP3 SWAP2 POP POP JUMP JUMPDEST PUSH1 0x0 PUSH1 0xE0 DUP3 ADD SWAP1 POP PUSH2 0x23A1 PUSH1 0x0 DUP4 ADD DUP11 PUSH2 0x1ECF JUMP JUMPDEST PUSH2 0x23AE PUSH1 0x20 DUP4 ADD DUP10 PUSH2 0x2336 JUMP JUMPDEST DUP2 DUP2 SUB PUSH1 0x40 DUP4 ADD MSTORE PUSH2 0x23C0 DUP2 DUP9 PUSH2 0x2013 JUMP JUMPDEST SWAP1 POP PUSH2 0x23CF PUSH1 0x60 DUP4 ADD DUP8 PUSH2 0x2327 JUMP JUMPDEST PUSH2 0x23DC PUSH1 0x80 DUP4 ADD DUP7 PUSH2 0x2327 JUMP JUMPDEST PUSH2 0x23E9 PUSH1 0xA0 DUP4 ADD DUP6 PUSH2 0x2318 JUMP JUMPDEST PUSH2 0x23F6 PUSH1 0xC0 DUP4 ADD DUP5 PUSH2 0x2327 JUMP JUMPDEST SWAP9 SWAP8 POP POP POP POP POP POP POP POP JUMP JUMPDEST PUSH1 0x0 PUSH1 0x20 DUP3 ADD SWAP1 POP DUP2 DUP2 SUB PUSH1 0x0 DUP4 ADD MSTORE PUSH2 0x241C DUP2 DUP5 PUSH2 0x2013 JUMP JUMPDEST SWAP1 POP SWAP3 SWAP2 POP POP JUMP JUMPDEST PUSH1 0x0 PUSH1 0x20 DUP3 ADD SWAP1 POP DUP2 DUP2 SUB PUSH1 0x0 DUP4 ADD MSTORE PUSH2 0x243D DUP2 PUSH2 0x20FC JUMP JUMPDEST SWAP1 POP SWAP2 SWAP1 POP JUMP JUMPDEST PUSH1 0x0 PUSH1 0x20 DUP3 ADD SWAP1 POP DUP2 DUP2 SUB PUSH1 0x0 DUP4 ADD MSTORE PUSH2 0x245D DUP2 PUSH2 0x211F JUMP JUMPDEST SWAP1 POP SWAP2 SWAP1 POP JUMP JUMPDEST PUSH1 0x0 PUSH1 0x20 DUP3 ADD SWAP1 POP DUP2 DUP2 SUB PUSH1 0x0 DUP4 ADD MSTORE PUSH2 0x247D DUP2 PUSH2 0x2142 JUMP JUMPDEST SWAP1 POP SWAP2 SWAP1 POP JUMP JUMPDEST PUSH1 0x0 PUSH1 0x20 DUP3 ADD SWAP1 POP DUP2 DUP2 SUB PUSH1 0x0 DUP4 ADD MSTORE PUSH2 0x249D DUP2 PUSH2 0x2165 JUMP JUMPDEST SWAP1 POP SWAP2 SWAP1 POP JUMP JUMPDEST PUSH1 0x0 PUSH1 0x20 DUP3 ADD SWAP1 POP DUP2 DUP2 SUB PUSH1 0x0 DUP4 ADD MSTORE PUSH2 0x24BD DUP2 PUSH2 0x2188 JUMP JUMPDEST SWAP1 POP SWAP2 SWAP1 POP JUMP JUMPDEST PUSH1 0x0 PUSH1 0x20 DUP3 ADD SWAP1 POP DUP2 DUP2 SUB PUSH1 0x0 DUP4 ADD MSTORE PUSH2 0x24DD DUP2 PUSH2 0x21AB JUMP JUMPDEST SWAP1 POP SWAP2 SWAP1 POP JUMP JUMPDEST PUSH1 0x0 PUSH1 0x20 DUP3 ADD SWAP1 POP DUP2 DUP2 SUB PUSH1 0x0 DUP4 ADD MSTORE PUSH2 0x24FD DUP2 PUSH2 0x21CE JUMP JUMPDEST SWAP1 POP SWAP2 SWAP1 POP JUMP JUMPDEST PUSH1 0x0 PUSH1 0x20 DUP3 ADD SWAP1 POP DUP2 DUP2 SUB PUSH1 0x0 DUP4 ADD MSTORE PUSH2 0x251D DUP2 PUSH2 0x21F1 JUMP JUMPDEST SWAP1 POP SWAP2 SWAP1 POP JUMP JUMPDEST PUSH1 0x0 PUSH1 0x20 DUP3 ADD SWAP1 POP DUP2 DUP2 SUB PUSH1 0x0 DUP4 ADD MSTORE PUSH2 0x253D DUP2 PUSH2 0x2214 JUMP JUMPDEST SWAP1 POP SWAP2 SWAP1 POP JUMP JUMPDEST PUSH1 0x0 PUSH1 0x20 DUP3 ADD SWAP1 POP DUP2 DUP2 SUB PUSH1 0x0 DUP4 ADD MSTORE PUSH2 0x255D DUP2 PUSH2 0x2237 JUMP JUMPDEST SWAP1 POP SWAP2 SWAP1 POP JUMP JUMPDEST PUSH1 0x0 PUSH1 0x20 DUP3 ADD SWAP1 POP DUP2 DUP2 SUB PUSH1 0x0 DUP4 ADD MSTORE PUSH2 0x257D DUP2 PUSH2 0x225A JUMP JUMPDEST SWAP1 POP SWAP2 SWAP1 POP JUMP JUMPDEST PUSH1 0x0 PUSH1 0x60 DUP3 ADD SWAP1 POP DUP2 DUP2 SUB PUSH1 0x0 DUP4 ADD MSTORE PUSH2 0x259D DUP2 PUSH2 0x227D JUMP JUMPDEST SWAP1 POP PUSH2 0x25AC PUSH1 0x20 DUP4 ADD DUP6 PUSH2 0x1ECF JUMP JUMPDEST PUSH2 0x25B9 PUSH1 0x40 DUP4 ADD DUP5 PUSH2 0x2327 JUMP JUMPDEST SWAP4 SWAP3 POP POP POP JUMP JUMPDEST PUSH1 0x0 PUSH1 0x20 DUP3 ADD SWAP1 POP DUP2 DUP2 SUB PUSH1 0x0 DUP4 ADD MSTORE PUSH2 0x25D9 DUP2 PUSH2 0x22A0 JUMP JUMPDEST SWAP1 POP SWAP2 SWAP1 POP JUMP JUMPDEST PUSH1 0x0 PUSH1 0x20 DUP3 ADD SWAP1 POP DUP2 DUP2 SUB PUSH1 0x0 DUP4 ADD MSTORE PUSH2 0x25F9 DUP2 PUSH2 0x22C3 JUMP JUMPDEST SWAP1 POP SWAP2 SWAP1 POP JUMP JUMPDEST PUSH1 0x0 PUSH1 0x20 DUP3 ADD SWAP1 POP DUP2 DUP2 SUB PUSH1 0x0 DUP4 ADD MSTORE PUSH2 0x2619 DUP2 PUSH2 0x22E6 JUMP JUMPDEST SWAP1 POP SWAP2 SWAP1 POP JUMP JUMPDEST PUSH1 0x0 PUSH1 0x40 DUP3 ADD SWAP1 POP PUSH2 0x2635 PUSH1 0x0 DUP4 ADD DUP6 PUSH2 0x2309 JUMP JUMPDEST PUSH2 0x2642 PUSH1 0x20 DUP4 ADD DUP5 PUSH2 0x2309 JUMP JUMPDEST SWAP4 SWAP3 POP POP POP JUMP JUMPDEST PUSH1 0x0 PUSH1 0x20 DUP3 ADD SWAP1 POP PUSH2 0x265E PUSH1 0x0 DUP4 ADD DUP5 PUSH2 0x2327 JUMP JUMPDEST SWAP3 SWAP2 POP POP JUMP JUMPDEST PUSH1 0x0 PUSH1 0x80 DUP3 ADD SWAP1 POP PUSH2 0x2679 PUSH1 0x0 DUP4 ADD DUP8 PUSH2 0x2327 JUMP JUMPDEST PUSH2 0x2686 PUSH1 0x20 DUP4 ADD DUP7 PUSH2 0x1ECF JUMP JUMPDEST PUSH2 0x2693 PUSH1 0x40 DUP4 ADD DUP6 PUSH2 0x1FB2 JUMP JUMPDEST PUSH2 0x26A0 PUSH1 0x60 DUP4 ADD DUP5 PUSH2 0x2327 JUMP JUMPDEST SWAP6 SWAP5 POP POP POP POP POP JUMP JUMPDEST PUSH1 0x0 PUSH1 0xE0 DUP3 ADD SWAP1 POP PUSH2 0x26BE PUSH1 0x0 DUP4 ADD DUP12 PUSH2 0x2327 JUMP JUMPDEST DUP2 DUP2 SUB PUSH1 0x20 DUP4 ADD MSTORE PUSH2 0x26D0 DUP2 DUP11 PUSH2 0x1EDE JUMP JUMPDEST SWAP1 POP PUSH2 0x26DF PUSH1 0x40 DUP4 ADD DUP10 PUSH2 0x1ECF JUMP JUMPDEST PUSH2 0x26EC PUSH1 0x60 DUP4 ADD DUP9 PUSH2 0x2327 JUMP JUMPDEST PUSH2 0x26F9 PUSH1 0x80 DUP4 ADD DUP8 PUSH2 0x2327 JUMP JUMPDEST DUP2 DUP2 SUB PUSH1 0xA0 DUP4 ADD MSTORE PUSH2 0x270B DUP2 DUP7 PUSH2 0x2013 JUMP JUMPDEST SWAP1 POP DUP2 DUP2 SUB PUSH1 0xC0 DUP4 ADD MSTORE PUSH2 0x2720 DUP2 DUP5 DUP7 PUSH2 0x1F3C JUMP JUMPDEST SWAP1 POP SWAP10 SWAP9 POP POP POP POP POP POP POP POP POP JUMP JUMPDEST PUSH1 0x0 PUSH1 0x20 DUP3 ADD SWAP1 POP PUSH2 0x2744 PUSH1 0x0 DUP4 ADD DUP5 PUSH2 0x2336 JUMP JUMPDEST SWAP3 SWAP2 POP POP JUMP JUMPDEST PUSH1 0x0 DUP1 DUP4 CALLDATALOAD PUSH1 0x1 PUSH1 0x20 SUB DUP5 CALLDATASIZE SUB SUB DUP2 SLT PUSH2 0x2767 JUMPI PUSH2 0x2766 PUSH2 0x2D21 JUMP JUMPDEST JUMPDEST DUP1 DUP5 ADD SWAP3 POP DUP3 CALLDATALOAD SWAP2 POP PUSH8 0xFFFFFFFFFFFFFFFF DUP3 GT ISZERO PUSH2 0x2789 JUMPI PUSH2 0x2788 PUSH2 0x2D1C JUMP JUMPDEST JUMPDEST PUSH1 0x20 DUP4 ADD SWAP3 POP PUSH1 0x1 DUP3 MUL CALLDATASIZE SUB DUP4 SGT ISZERO PUSH2 0x27A5 JUMPI PUSH2 0x27A4 PUSH2 0x2D30 JUMP JUMPDEST JUMPDEST POP SWAP3 POP SWAP3 SWAP1 POP JUMP JUMPDEST PUSH1 0x0 PUSH2 0x27B7 PUSH2 0x27C8 JUMP JUMPDEST SWAP1 POP PUSH2 0x27C3 DUP3 DUP3 PUSH2 0x2B73 JUMP JUMPDEST SWAP2 SWAP1 POP JUMP JUMPDEST PUSH1 0x0 PUSH1 0x40 MLOAD SWAP1 POP SWAP1 JUMP JUMPDEST PUSH1 0x0 PUSH8 0xFFFFFFFFFFFFFFFF DUP3 GT ISZERO PUSH2 0x27ED JUMPI PUSH2 0x27EC PUSH2 0x2CDE JUMP JUMPDEST JUMPDEST PUSH1 0x20 DUP3 MUL SWAP1 POP PUSH1 0x20 DUP2 ADD SWAP1 POP SWAP2 SWAP1 POP JUMP JUMPDEST PUSH1 0x0 PUSH8 0xFFFFFFFFFFFFFFFF DUP3 GT ISZERO PUSH2 0x2819 JUMPI PUSH2 0x2818 PUSH2 0x2CDE JUMP JUMPDEST JUMPDEST PUSH1 0x20 DUP3 MUL SWAP1 POP PUSH1 0x20 DUP2 ADD SWAP1 POP SWAP2 SWAP1 POP JUMP JUMPDEST PUSH1 0x0 PUSH8 0xFFFFFFFFFFFFFFFF DUP3 GT ISZERO PUSH2 0x2845 JUMPI PUSH2 0x2844 PUSH2 0x2CDE JUMP JUMPDEST JUMPDEST PUSH1 0x20 DUP3 MUL SWAP1 POP PUSH1 0x20 DUP2 ADD SWAP1 POP SWAP2 SWAP1 POP JUMP JUMPDEST PUSH1 0x0 PUSH8 0xFFFFFFFFFFFFFFFF DUP3 GT ISZERO PUSH2 0x2871 JUMPI PUSH2 0x2870 PUSH2 0x2CDE JUMP JUMPDEST JUMPDEST PUSH2 0x287A DUP3 PUSH2 0x2D49 JUMP JUMPDEST SWAP1 POP PUSH1 0x20 DUP2 ADD SWAP1 POP SWAP2 SWAP1 POP JUMP JUMPDEST PUSH1 0x0 DUP2 SWAP1 POP PUSH1 0x20 DUP3 ADD SWAP1 POP SWAP2 SWAP1 POP JUMP JUMPDEST PUSH1 0x0 DUP2 SWAP1 POP SWAP2 SWAP1 POP JUMP JUMPDEST PUSH1 0x0 DUP2 SWAP1 POP DUP2 PUSH1 0x0 MSTORE PUSH1 0x20 PUSH1 0x0 KECCAK256 SWAP1 POP SWAP2 SWAP1 POP JUMP JUMPDEST PUSH1 0x0 DUP2 MLOAD SWAP1 POP SWAP2 SWAP1 POP JUMP JUMPDEST PUSH1 0x0 DUP2 MLOAD SWAP1 POP SWAP2 SWAP1 POP JUMP JUMPDEST PUSH1 0x0 PUSH1 0x20 DUP3 ADD SWAP1 POP SWAP2 SWAP1 POP JUMP JUMPDEST PUSH1 0x0 PUSH1 0x20 DUP3 ADD SWAP1 POP SWAP2 SWAP1 POP JUMP JUMPDEST PUSH1 0x0 DUP3 DUP3 MSTORE PUSH1 0x20 DUP3 ADD SWAP1 POP SWAP3 SWAP2 POP POP JUMP JUMPDEST PUSH1 0x0 DUP3 DUP3 MSTORE PUSH1 0x20 DUP3 ADD SWAP1 POP SWAP3 SWAP2 POP POP JUMP JUMPDEST PUSH1 0x0 DUP3 DUP3 MSTORE PUSH1 0x20 DUP3 ADD SWAP1 POP SWAP3 SWAP2 POP POP JUMP JUMPDEST PUSH1 0x0 DUP3 DUP3 MSTORE PUSH1 0x20 DUP3 ADD SWAP1 POP SWAP3 SWAP2 POP POP JUMP JUMPDEST PUSH1 0x0 DUP2 SWAP1 POP SWAP3 SWAP2 POP POP JUMP JUMPDEST PUSH1 0x0 DUP1 DUP4 CALLDATALOAD PUSH1 0x1 PUSH1 0x20 SUB DUP5 CALLDATASIZE SUB SUB DUP2 SLT PUSH2 0x2952 JUMPI PUSH2 0x2951 PUSH2 0x2D3F JUMP JUMPDEST JUMPDEST DUP4 DUP2 ADD SWAP3 POP DUP3 CALLDATALOAD SWAP2 POP PUSH1 0x20 DUP4 ADD SWAP3 POP PUSH8 0xFFFFFFFFFFFFFFFF DUP3 GT ISZERO PUSH2 0x297A JUMPI PUSH2 0x2979 PUSH2 0x2D0D JUMP JUMPDEST JUMPDEST PUSH1 0x1 DUP3 MUL CALLDATASIZE SUB DUP5 SGT ISZERO PUSH2 0x2990 JUMPI PUSH2 0x298F PUSH2 0x2D26 JUMP JUMPDEST JUMPDEST POP SWAP3 POP SWAP3 SWAP1 POP JUMP JUMPDEST PUSH1 0x0 PUSH2 0x29A3 DUP3 PUSH2 0x2ABA JUMP JUMPDEST SWAP2 POP PUSH2 0x29AE DUP4 PUSH2 0x2ABA JUMP JUMPDEST SWAP3 POP DUP3 PUSH2 0xFFFF SUB DUP3 GT ISZERO PUSH2 0x29C5 JUMPI PUSH2 0x29C4 PUSH2 0x2C51 JUMP JUMPDEST JUMPDEST DUP3 DUP3 ADD SWAP1 POP SWAP3 SWAP2 POP POP JUMP JUMPDEST PUSH1 0x0 PUSH2 0x29DB DUP3 PUSH2 0x2AE8 JUMP JUMPDEST SWAP2 POP PUSH2 0x29E6 DUP4 PUSH2 0x2AE8 JUMP JUMPDEST SWAP3 POP DUP3 PUSH32 0xFFFFFFFFFFFFFFFFFFFFFFFFFFFFFFFFFFFFFFFFFFFFFFFFFFFFFFFFFFFFFFFF SUB DUP3 GT ISZERO PUSH2 0x2A1B JUMPI PUSH2 0x2A1A PUSH2 0x2C51 JUMP JUMPDEST JUMPDEST DUP3 DUP3 ADD SWAP1 POP SWAP3 SWAP2 POP POP JUMP JUMPDEST PUSH1 0x0 PUSH2 0x2A31 DUP3 PUSH2 0x2AE8 JUMP JUMPDEST SWAP2 POP PUSH2 0x2A3C DUP4 PUSH2 0x2AE8 JUMP JUMPDEST SWAP3 POP DUP2 PUSH32 0xFFFFFFFFFFFFFFFFFFFFFFFFFFFFFFFFFFFFFFFFFFFFFFFFFFFFFFFFFFFFFFFF DIV DUP4 GT DUP3 ISZERO ISZERO AND ISZERO PUSH2 0x2A75 JUMPI PUSH2 0x2A74 PUSH2 0x2C51 JUMP JUMPDEST JUMPDEST DUP3 DUP3 MUL SWAP1 POP SWAP3 SWAP2 POP POP JUMP JUMPDEST PUSH1 0x0 PUSH2 0x2A8B DUP3 PUSH2 0x2AC8 JUMP JUMPDEST SWAP1 POP SWAP2 SWAP1 POP JUMP JUMPDEST PUSH1 0x0 DUP2 ISZERO ISZERO SWAP1 POP SWAP2 SWAP1 POP JUMP JUMPDEST PUSH1 0x0 PUSH16 0xFFFFFFFFFFFFFFFFFFFFFFFFFFFFFFFF DUP3 AND SWAP1 POP SWAP2 SWAP1 POP JUMP JUMPDEST PUSH1 0x0 PUSH2 0xFFFF DUP3 AND SWAP1 POP SWAP2 SWAP1 POP JUMP JUMPDEST PUSH1 0x0 PUSH20 0xFFFFFFFFFFFFFFFFFFFFFFFFFFFFFFFFFFFFFFFF DUP3 AND SWAP1 POP SWAP2 SWAP1 POP JUMP JUMPDEST PUSH1 0x0 DUP2 SWAP1 POP SWAP2 SWAP1 POP JUMP JUMPDEST PUSH1 0x0 PUSH1 0xFF DUP3 AND SWAP1 POP SWAP2 SWAP1 POP JUMP JUMPDEST DUP3 DUP2 DUP4 CALLDATACOPY PUSH1 0x0 DUP4 DUP4 ADD MSTORE POP POP POP JUMP JUMPDEST PUSH1 0x0 JUMPDEST DUP4 DUP2 LT ISZERO PUSH2 0x2B2C JUMPI DUP1 DUP3 ADD MLOAD DUP2 DUP5 ADD MSTORE PUSH1 0x20 DUP2 ADD SWAP1 POP PUSH2 0x2B11 JUMP JUMPDEST DUP4 DUP2 GT ISZERO PUSH2 0x2B3B JUMPI PUSH1 0x0 DUP5 DUP5 ADD MSTORE JUMPDEST POP POP POP POP JUMP JUMPDEST PUSH1 0x0 PUSH1 0x2 DUP3 DIV SWAP1 POP PUSH1 0x1 DUP3 AND DUP1 PUSH2 0x2B59 JUMPI PUSH1 0x7F DUP3 AND SWAP2 POP JUMPDEST PUSH1 0x20 DUP3 LT DUP2 EQ ISZERO PUSH2 0x2B6D JUMPI PUSH2 0x2B6C PUSH2 0x2C80 JUMP JUMPDEST JUMPDEST POP SWAP2 SWAP1 POP JUMP JUMPDEST PUSH2 0x2B7C DUP3 PUSH2 0x2D49 JUMP JUMPDEST DUP2 ADD DUP2 DUP2 LT PUSH8 0xFFFFFFFFFFFFFFFF DUP3 GT OR ISZERO PUSH2 0x2B9B JUMPI PUSH2 0x2B9A PUSH2 0x2CDE JUMP JUMPDEST JUMPDEST DUP1 PUSH1 0x40 MSTORE POP POP POP JUMP JUMPDEST PUSH1 0x0 PUSH2 0x2BAF DUP3 PUSH2 0x2A9E JUMP JUMPDEST SWAP2 POP PUSH16 0xFFFFFFFFFFFFFFFFFFFFFFFFFFFFFFFF DUP3 EQ ISZERO PUSH2 0x2BD2 JUMPI PUSH2 0x2BD1 PUSH2 0x2C51 JUMP JUMPDEST JUMPDEST PUSH1 0x1 DUP3 ADD SWAP1 POP SWAP2 SWAP1 POP JUMP JUMPDEST PUSH1 0x0 PUSH2 0x2BE8 DUP3 PUSH2 0x2ABA JUMP JUMPDEST SWAP2 POP PUSH2 0xFFFF DUP3 EQ ISZERO PUSH2 0x2BFD JUMPI PUSH2 0x2BFC PUSH2 0x2C51 JUMP JUMPDEST JUMPDEST PUSH1 0x1 DUP3 ADD SWAP1 POP SWAP2 SWAP1 POP JUMP JUMPDEST PUSH1 0x0 PUSH2 0x2C13 DUP3 PUSH2 0x2AE8 JUMP JUMPDEST SWAP2 POP PUSH32 0xFFFFFFFFFFFFFFFFFFFFFFFFFFFFFFFFFFFFFFFFFFFFFFFFFFFFFFFFFFFFFFFF DUP3 EQ ISZERO PUSH2 0x2C46 JUMPI PUSH2 0x2C45 PUSH2 0x2C51 JUMP JUMPDEST JUMPDEST PUSH1 0x1 DUP3 ADD SWAP1 POP SWAP2 SWAP1 POP JUMP JUMPDEST PUSH32 0x4E487B7100000000000000000000000000000000000000000000000000000000 PUSH1 0x0 MSTORE PUSH1 0x11 PUSH1 0x4 MSTORE PUSH1 0x24 PUSH1 0x0 REVERT JUMPDEST PUSH32 0x4E487B7100000000000000000000000000000000000000000000000000000000 PUSH1 0x0 MSTORE PUSH1 0x22 PUSH1 0x4 MSTORE PUSH1 0x24 PUSH1 0x0 REVERT JUMPDEST PUSH32 0x4E487B7100000000000000000000000000000000000000000000000000000000 PUSH1 0x0 MSTORE PUSH1 0x32 PUSH1 0x4 MSTORE PUSH1 0x24 PUSH1 0x0 REVERT JUMPDEST PUSH32 0x4E487B7100000000000000000000000000000000000000000000000000000000 PUSH1 0x0 MSTORE PUSH1 0x41 PUSH1 0x4 MSTORE PUSH1 0x24 PUSH1 0x0 REVERT JUMPDEST PUSH1 0x0 DUP1 REVERT JUMPDEST PUSH1 0x0 DUP1 REVERT JUMPDEST PUSH1 0x0 DUP1 REVERT JUMPDEST PUSH1 0x0 DUP1 REVERT JUMPDEST PUSH1 0x0 DUP1 REVERT JUMPDEST PUSH1 0x0 DUP1 REVERT JUMPDEST PUSH1 0x0 DUP1 REVERT JUMPDEST PUSH1 0x0 DUP1 REVERT JUMPDEST PUSH1 0x0 DUP1 REVERT JUMPDEST PUSH1 0x0 DUP1 REVERT JUMPDEST PUSH1 0x0 DUP1 REVERT JUMPDEST PUSH1 0x0 DUP1 REVERT JUMPDEST PUSH1 0x0 PUSH1 0x1F NOT PUSH1 0x1F DUP4 ADD AND SWAP1 POP SWAP2 SWAP1 POP JUMP JUMPDEST PUSH32 0x50726F706F73616C3A20696E6163746976650000000000000000000000000000 PUSH1 0x0 DUP3 ADD MSTORE POP JUMP JUMPDEST PUSH32 0x456E642074696D652073686F756C642062652067726561746572207468616E20 PUSH1 0x0 DUP3 ADD MSTORE PUSH32 0x63757272656E742074696D650000000000000000000000000000000000000000 PUSH1 0x20 DUP3 ADD MSTORE POP JUMP JUMPDEST PUSH32 0x616C726561647920766F74656400000000000000000000000000000000000000 PUSH1 0x0 DUP3 ADD MSTORE POP JUMP JUMPDEST PUSH32 0x50726F706F73616C3A20696E76616C69642063616E6469646174650000000000 PUSH1 0x0 DUP3 ADD MSTORE POP JUMP JUMPDEST PUSH32 0x6E6F7420612076616C696420766F74657220666F7220746869732070726F706F PUSH1 0x0 DUP3 ADD MSTORE PUSH32 0x73616C0000000000000000000000000000000000000000000000000000000000 PUSH1 0x20 DUP3 ADD MSTORE POP JUMP JUMPDEST PUSH32 0x70726F706F73616C206E6F742073746172746564000000000000000000000000 PUSH1 0x0 DUP3 ADD MSTORE POP JUMP JUMPDEST PUSH32 0x4E6F7420612076616C696420766F74657220666F7220746869732070726F706F PUSH1 0x0 DUP3 ADD MSTORE PUSH32 0x73616C0000000000000000000000000000000000000000000000000000000000 PUSH1 0x20 DUP3 ADD MSTORE POP JUMP JUMPDEST PUSH32 0x696E76616C69642070726F706F73616C49640000000000000000000000000000 PUSH1 0x0 DUP3 ADD MSTORE POP JUMP JUMPDEST PUSH32 0x6E6F742073756666696369656E742062616C616E636520746F20636173742076 PUSH1 0x0 DUP3 ADD MSTORE PUSH32 0x6F74650000000000000000000000000000000000000000000000000000000000 PUSH1 0x20 DUP3 ADD MSTORE POP JUMP JUMPDEST PUSH32 0x456E642074696D652073686F756C642062652067726561746572207468616E20 PUSH1 0x0 DUP3 ADD MSTORE PUSH32 0x73746172742074696D6500000000000000000000000000000000000000000000 PUSH1 0x20 DUP3 ADD MSTORE POP JUMP JUMPDEST PUSH32 0x6E6F7420612076616C6964206C656E677468206F66206861736820726573706F PUSH1 0x0 DUP3 ADD MSTORE PUSH32 0x6E73652100000000000000000000000000000000000000000000000000000000 PUSH1 0x20 DUP3 ADD MSTORE POP JUMP JUMPDEST PUSH32 0x6D696E7400000000000000000000000000000000000000000000000000000000 PUSH1 0x0 DUP3 ADD MSTORE POP JUMP JUMPDEST PUSH32 0x496E76616C696420766F74657220666F722070726F706F73616C496421000000 PUSH1 0x0 DUP3 ADD MSTORE POP JUMP JUMPDEST PUSH32 0x6E6F7420766F7465640000000000000000000000000000000000000000000000 PUSH1 0x0 DUP3 ADD MSTORE POP JUMP JUMPDEST PUSH32 0x45524332303A206D696E7420746F20746865207A65726F206164647265737300 PUSH1 0x0 DUP3 ADD MSTORE POP JUMP JUMPDEST PUSH2 0x30AE DUP2 PUSH2 0x2A80 JUMP JUMPDEST DUP2 EQ PUSH2 0x30B9 JUMPI PUSH1 0x0 DUP1 REVERT JUMPDEST POP JUMP JUMPDEST PUSH2 0x30C5 DUP2 PUSH2 0x2AE8 JUMP JUMPDEST DUP2 EQ PUSH2 0x30D0 JUMPI PUSH1 0x0 DUP1 REVERT JUMPDEST POP JUMP JUMPDEST PUSH2 0x30DC DUP2 PUSH2 0x2AF2 JUMP JUMPDEST DUP2 EQ PUSH2 0x30E7 JUMPI PUSH1 0x0 DUP1 REVERT JUMPDEST POP JUMP INVALID LOG2 PUSH5 0x6970667358 0x22 SLT KECCAK256 STOP 0xFC 0xDA BLOCKHASH 0xB0 0xEB CALL 0xA6 SIGNEXTEND 0x25 BLOCKHASH PUSH5 0xB4AC800723 SAR PUSH17 0x85DA67A339102954A9F0A8175564736F6C PUSH4 0x43000807 STOP CALLER "
				},
				"gasEstimates": {
					"creation": {
						"codeDepositCost": "2515200",
						"executionCost": "infinite",
						"totalCost": "infinite"
					},
					"external": {
						"allVoters(address)": "infinite",
						"balanceOf(address)": "2863",
						"createProposal(uint8,address[],address,uint256,uint256,string,string[],uint256)": "infinite",
						"decimals()": "410",
						"name()": "infinite",
						"proposals(uint256)": "infinite",
						"responseProposal(uint256,address,string[],uint256[])": "infinite",
						"symbol()": "infinite",
						"totalSupply()": "2482",
						"userProposal(address)": "infinite"
					}
				},
				"methodIdentifiers": {
					"allVoters(address)": "c3703048",
					"balanceOf(address)": "70a08231",
					"createProposal(uint8,address[],address,uint256,uint256,string,string[],uint256)": "4de77e48",
					"decimals()": "313ce567",
					"name()": "06fdde03",
					"proposals(uint256)": "013cf08b",
					"responseProposal(uint256,address,string[],uint256[])": "5c230eee",
					"symbol()": "95d89b41",
					"totalSupply()": "18160ddd",
					"userProposal(address)": "e745d68e"
				}
			},
			"storageLayout": {
				"storage": [
					{
						"astId": 627,
						"contract": "Qvoting.sol:Qvoting",
						"label": "_balances",
						"offset": 0,
						"slot": "0",
						"type": "t_mapping(t_address,t_uint256)"
					},
					{
						"astId": 629,
						"contract": "Qvoting.sol:Qvoting",
						"label": "_totalSupply",
						"offset": 0,
						"slot": "1",
						"type": "t_uint256"
					},
					{
						"astId": 631,
						"contract": "Qvoting.sol:Qvoting",
						"label": "_name",
						"offset": 0,
						"slot": "2",
						"type": "t_string_storage"
					},
					{
						"astId": 633,
						"contract": "Qvoting.sol:Qvoting",
						"label": "_symbol",
						"offset": 0,
						"slot": "3",
						"type": "t_string_storage"
					},
					{
						"astId": 847,
						"contract": "Qvoting.sol:Qvoting",
						"label": "owner",
						"offset": 0,
						"slot": "4",
						"type": "t_address"
					},
					{
						"astId": 936,
						"contract": "Qvoting.sol:Qvoting",
						"label": "proposalId",
						"offset": 0,
						"slot": "5",
						"type": "t_uint256"
					},
					{
						"astId": 941,
						"contract": "Qvoting.sol:Qvoting",
						"label": "userProposal",
						"offset": 0,
						"slot": "6",
						"type": "t_mapping(t_address,t_struct(UserProposal)409_storage)"
					},
					{
						"astId": 946,
						"contract": "Qvoting.sol:Qvoting",
						"label": "proposals",
						"offset": 0,
						"slot": "7",
						"type": "t_mapping(t_uint256,t_struct(proposal)66_storage)"
					},
					{
						"astId": 951,
						"contract": "Qvoting.sol:Qvoting",
						"label": "allVoters",
						"offset": 0,
						"slot": "8",
						"type": "t_mapping(t_address,t_struct(voter)513_storage)"
					},
					{
						"astId": 955,
						"contract": "Qvoting.sol:Qvoting",
						"label": "validProposals",
						"offset": 0,
						"slot": "9",
						"type": "t_mapping(t_uint256,t_bool)"
					}
				],
				"types": {
					"t_address": {
						"encoding": "inplace",
						"label": "address",
						"numberOfBytes": "20"
					},
					"t_bool": {
						"encoding": "inplace",
						"label": "bool",
						"numberOfBytes": "1"
					},
					"t_mapping(t_address,t_bool)": {
						"encoding": "mapping",
						"key": "t_address",
						"label": "mapping(address => bool)",
						"numberOfBytes": "32",
						"value": "t_bool"
					},
					"t_mapping(t_address,t_struct(UserProposal)409_storage)": {
						"encoding": "mapping",
						"key": "t_address",
						"label": "mapping(address => struct UserProposalLibrary.UserProposal)",
						"numberOfBytes": "32",
						"value": "t_struct(UserProposal)409_storage"
					},
					"t_mapping(t_address,t_struct(voter)513_storage)": {
						"encoding": "mapping",
						"key": "t_address",
						"label": "mapping(address => struct voterLibrary.voter)",
						"numberOfBytes": "32",
						"value": "t_struct(voter)513_storage"
					},
					"t_mapping(t_address,t_uint256)": {
						"encoding": "mapping",
						"key": "t_address",
						"label": "mapping(address => uint256)",
						"numberOfBytes": "32",
						"value": "t_uint256"
					},
					"t_mapping(t_string_memory_ptr,t_bool)": {
						"encoding": "mapping",
						"key": "t_string_memory_ptr",
						"label": "mapping(string => bool)",
						"numberOfBytes": "32",
						"value": "t_bool"
					},
					"t_mapping(t_string_memory_ptr,t_uint256)": {
						"encoding": "mapping",
						"key": "t_string_memory_ptr",
						"label": "mapping(string => uint256)",
						"numberOfBytes": "32",
						"value": "t_uint256"
					},
					"t_mapping(t_uint128,t_uint256)": {
						"encoding": "mapping",
						"key": "t_uint128",
						"label": "mapping(uint128 => uint256)",
						"numberOfBytes": "32",
						"value": "t_uint256"
					},
					"t_mapping(t_uint256,t_bool)": {
						"encoding": "mapping",
						"key": "t_uint256",
						"label": "mapping(uint256 => bool)",
						"numberOfBytes": "32",
						"value": "t_bool"
					},
					"t_mapping(t_uint256,t_mapping(t_uint256,t_string_storage))": {
						"encoding": "mapping",
						"key": "t_uint256",
						"label": "mapping(uint256 => mapping(uint256 => string))",
						"numberOfBytes": "32",
						"value": "t_mapping(t_uint256,t_string_storage)"
					},
					"t_mapping(t_uint256,t_string_storage)": {
						"encoding": "mapping",
						"key": "t_uint256",
						"label": "mapping(uint256 => string)",
						"numberOfBytes": "32",
						"value": "t_string_storage"
					},
					"t_mapping(t_uint256,t_struct(proposal)66_storage)": {
						"encoding": "mapping",
						"key": "t_uint256",
						"label": "mapping(uint256 => struct proposalLibrary.proposal)",
						"numberOfBytes": "32",
						"value": "t_struct(proposal)66_storage"
					},
					"t_string_memory_ptr": {
						"encoding": "bytes",
						"label": "string",
						"numberOfBytes": "32"
					},
					"t_string_storage": {
						"encoding": "bytes",
						"label": "string",
						"numberOfBytes": "32"
					},
					"t_struct(UserProposal)409_storage": {
						"encoding": "inplace",
						"label": "struct UserProposalLibrary.UserProposal",
						"members": [
							{
								"astId": 388,
								"contract": "Qvoting.sol:Qvoting",
								"label": "proposalCount",
								"offset": 0,
								"slot": "0",
								"type": "t_uint128"
							},
							{
								"astId": 390,
								"contract": "Qvoting.sol:Qvoting",
								"label": "responseCount",
								"offset": 16,
								"slot": "0",
								"type": "t_uint128"
							},
							{
								"astId": 394,
								"contract": "Qvoting.sol:Qvoting",
								"label": "proposalCreated",
								"offset": 0,
								"slot": "1",
								"type": "t_mapping(t_uint128,t_uint256)"
							},
							{
								"astId": 398,
								"contract": "Qvoting.sol:Qvoting",
								"label": "proposalResponsed",
								"offset": 0,
								"slot": "2",
								"type": "t_mapping(t_uint128,t_uint256)"
							},
							{
								"astId": 404,
								"contract": "Qvoting.sol:Qvoting",
								"label": "proposalAnswer",
								"offset": 0,
								"slot": "3",
								"type": "t_mapping(t_uint256,t_mapping(t_uint256,t_string_storage))"
							},
							{
								"astId": 408,
								"contract": "Qvoting.sol:Qvoting",
								"label": "responsedProposal",
								"offset": 0,
								"slot": "4",
								"type": "t_mapping(t_uint256,t_bool)"
							}
						],
						"numberOfBytes": "160"
					},
					"t_struct(proposal)66_storage": {
						"encoding": "inplace",
						"label": "struct proposalLibrary.proposal",
						"members": [
							{
								"astId": 33,
								"contract": "Qvoting.sol:Qvoting",
								"label": "creator",
								"offset": 0,
								"slot": "0",
								"type": "t_address"
							},
							{
								"astId": 35,
								"contract": "Qvoting.sol:Qvoting",
								"label": "status",
								"offset": 20,
								"slot": "0",
								"type": "t_uint8"
							},
							{
								"astId": 37,
								"contract": "Qvoting.sol:Qvoting",
								"label": "disc",
								"offset": 0,
								"slot": "1",
								"type": "t_string_storage"
							},
							{
								"astId": 39,
								"contract": "Qvoting.sol:Qvoting",
								"label": "startTime",
								"offset": 0,
								"slot": "2",
								"type": "t_uint256"
							},
							{
								"astId": 41,
								"contract": "Qvoting.sol:Qvoting",
								"label": "expirationTime",
								"offset": 0,
								"slot": "3",
								"type": "t_uint256"
							},
							{
								"astId": 43,
								"contract": "Qvoting.sol:Qvoting",
								"label": "numOfOptions",
								"offset": 0,
								"slot": "4",
								"type": "t_uint16"
							},
							{
								"astId": 45,
								"contract": "Qvoting.sol:Qvoting",
								"label": "voteRight",
								"offset": 0,
								"slot": "5",
								"type": "t_uint256"
							},
							{
								"astId": 49,
								"contract": "Qvoting.sol:Qvoting",
								"label": "voters",
								"offset": 0,
								"slot": "6",
								"type": "t_mapping(t_address,t_bool)"
							},
							{
								"astId": 53,
								"contract": "Qvoting.sol:Qvoting",
								"label": "cand",
								"offset": 0,
								"slot": "7",
								"type": "t_mapping(t_string_memory_ptr,t_bool)"
							},
							{
								"astId": 57,
								"contract": "Qvoting.sol:Qvoting",
								"label": "candHash",
								"offset": 0,
								"slot": "8",
								"type": "t_mapping(t_uint256,t_string_storage)"
							},
							{
								"astId": 61,
								"contract": "Qvoting.sol:Qvoting",
								"label": "result",
								"offset": 0,
								"slot": "9",
								"type": "t_mapping(t_uint256,t_string_storage)"
							},
							{
								"astId": 65,
								"contract": "Qvoting.sol:Qvoting",
								"label": "votes",
								"offset": 0,
								"slot": "10",
								"type": "t_mapping(t_string_memory_ptr,t_uint256)"
							}
						],
						"numberOfBytes": "352"
					},
					"t_struct(voter)513_storage": {
						"encoding": "inplace",
						"label": "struct voterLibrary.voter",
						"members": [
							{
								"astId": 506,
								"contract": "Qvoting.sol:Qvoting",
								"label": "proposalId",
								"offset": 0,
								"slot": "0",
								"type": "t_uint256"
							},
							{
								"astId": 508,
								"contract": "Qvoting.sol:Qvoting",
								"label": "voterAddress",
								"offset": 0,
								"slot": "1",
								"type": "t_address"
							},
							{
								"astId": 510,
								"contract": "Qvoting.sol:Qvoting",
								"label": "hasVoted",
								"offset": 20,
								"slot": "1",
								"type": "t_bool"
							},
							{
								"astId": 512,
								"contract": "Qvoting.sol:Qvoting",
								"label": "voteNum",
								"offset": 0,
								"slot": "2",
								"type": "t_uint256"
							}
						],
						"numberOfBytes": "96"
					},
					"t_uint128": {
						"encoding": "inplace",
						"label": "uint128",
						"numberOfBytes": "16"
					},
					"t_uint16": {
						"encoding": "inplace",
						"label": "uint16",
						"numberOfBytes": "2"
					},
					"t_uint256": {
						"encoding": "inplace",
						"label": "uint256",
						"numberOfBytes": "32"
					},
					"t_uint8": {
						"encoding": "inplace",
						"label": "uint8",
						"numberOfBytes": "1"
					}
				}
			},
			"userdoc": {
				"kind": "user",
				"methods": {},
				"version": 1
			}
		}
	}
}