{
	"Qvoting.sol": {
		"Qvoting": {
			"abi": [
				{
					"anonymous": false,
					"inputs": [
						{
							"indexed": false,
							"internalType": "uint256",
							"name": "proposalId",
							"type": "uint256"
						},
						{
							"indexed": false,
							"internalType": "address[]",
							"name": "voters",
							"type": "address[]"
						},
						{
							"indexed": false,
							"internalType": "address",
							"name": "creator",
							"type": "address"
						},
						{
							"indexed": false,
							"internalType": "uint256",
							"name": "startTime",
							"type": "uint256"
						},
						{
							"indexed": false,
							"internalType": "uint256",
							"name": "expirationTime",
							"type": "uint256"
						},
						{
							"indexed": false,
							"internalType": "string",
							"name": "description",
							"type": "string"
						},
						{
							"indexed": false,
							"internalType": "string[]",
							"name": "_cand",
							"type": "string[]"
						}
					],
					"name": "ProposalCreated",
					"type": "event"
				},
				{
					"anonymous": false,
					"inputs": [
						{
							"indexed": false,
							"internalType": "address",
							"name": "voter",
							"type": "address"
						},
						{
							"indexed": false,
							"internalType": "uint256",
							"name": "ProposalID",
							"type": "uint256"
						},
						{
							"indexed": false,
							"internalType": "uint256[]",
							"name": "_tokens",
							"type": "uint256[]"
						}
					],
					"name": "VoteCasted",
					"type": "event"
				},
				{
					"anonymous": false,
					"inputs": [
						{
							"indexed": false,
							"internalType": "string",
							"name": "mintAndburn",
							"type": "string"
						},
						{
							"indexed": false,
							"internalType": "address",
							"name": "account",
							"type": "address"
						},
						{
							"indexed": false,
							"internalType": "uint256",
							"name": "amount",
							"type": "uint256"
						}
					],
					"name": "mintAndburn",
					"type": "event"
				},
				{
					"inputs": [
						{
							"internalType": "address",
							"name": "",
							"type": "address"
						},
						{
							"internalType": "uint256",
							"name": "",
							"type": "uint256"
						}
					],
					"name": "allVoters",
					"outputs": [
						{
							"internalType": "uint256",
							"name": "proposalId",
							"type": "uint256"
						},
						{
							"internalType": "address",
							"name": "voterAddress",
							"type": "address"
						},
						{
							"internalType": "bool",
							"name": "hasVoted",
							"type": "bool"
						},
						{
							"internalType": "uint256",
							"name": "voteNum",
							"type": "uint256"
						}
					],
					"stateMutability": "view",
					"type": "function"
				},
				{
					"inputs": [
						{
							"internalType": "address",
							"name": "account",
							"type": "address"
						}
					],
					"name": "balanceOf",
					"outputs": [
						{
							"internalType": "uint256",
							"name": "",
							"type": "uint256"
						}
					],
					"stateMutability": "view",
					"type": "function"
				},
				{
					"inputs": [
						{
							"internalType": "uint8",
							"name": "_status",
							"type": "uint8"
						},
						{
							"internalType": "address[]",
							"name": "_voters",
							"type": "address[]"
						},
						{
							"internalType": "address",
							"name": "_creator",
							"type": "address"
						},
						{
							"internalType": "uint256",
							"name": "_startTime",
							"type": "uint256"
						},
						{
							"internalType": "uint256",
							"name": "_expirationTime",
							"type": "uint256"
						},
						{
							"internalType": "string",
							"name": "_disc",
							"type": "string"
						},
						{
							"internalType": "string[]",
							"name": "_cand",
							"type": "string[]"
						},
						{
							"internalType": "uint256",
							"name": "_voteRight",
							"type": "uint256"
						}
					],
					"name": "createProposal",
					"outputs": [],
					"stateMutability": "nonpayable",
					"type": "function"
				},
				{
					"inputs": [],
					"name": "decimals",
					"outputs": [
						{
							"internalType": "uint8",
							"name": "",
							"type": "uint8"
						}
					],
					"stateMutability": "view",
					"type": "function"
				},
				{
					"inputs": [
						{
							"internalType": "uint256",
							"name": "_proposalId",
							"type": "uint256"
						},
						{
							"internalType": "address[]",
							"name": "_voters",
							"type": "address[]"
						},
						{
							"internalType": "uint256",
							"name": "_voteRight",
							"type": "uint256"
						}
					],
					"name": "mintOwner",
					"outputs": [
						{
							"internalType": "bool",
							"name": "",
							"type": "bool"
						}
					],
					"stateMutability": "nonpayable",
					"type": "function"
				},
				{
					"inputs": [],
					"name": "name",
					"outputs": [
						{
							"internalType": "string",
							"name": "",
							"type": "string"
						}
					],
					"stateMutability": "view",
					"type": "function"
				},
				{
					"inputs": [
						{
							"internalType": "uint256",
							"name": "",
							"type": "uint256"
						}
					],
					"name": "proposals",
					"outputs": [
						{
							"internalType": "address",
							"name": "creator",
							"type": "address"
						},
						{
							"internalType": "uint8",
							"name": "status",
							"type": "uint8"
						},
						{
							"internalType": "string",
							"name": "disc",
							"type": "string"
						},
						{
							"internalType": "uint256",
							"name": "startTime",
							"type": "uint256"
						},
						{
							"internalType": "uint256",
							"name": "expirationTime",
							"type": "uint256"
						},
						{
							"internalType": "uint16",
							"name": "numOfOptions",
							"type": "uint16"
						},
						{
							"internalType": "uint256",
							"name": "voteRight",
							"type": "uint256"
						}
					],
					"stateMutability": "view",
					"type": "function"
				},
				{
					"inputs": [
						{
							"internalType": "uint256",
							"name": "_proposalId",
							"type": "uint256"
						},
						{
							"internalType": "address",
							"name": "_voter",
							"type": "address"
						},
						{
							"internalType": "string[]",
							"name": "_hash",
							"type": "string[]"
						},
						{
							"internalType": "uint256[]",
							"name": "v",
							"type": "uint256[]"
						}
					],
					"name": "responseProposal",
					"outputs": [],
					"stateMutability": "nonpayable",
					"type": "function"
				},
				{
					"inputs": [
						{
							"internalType": "uint256",
							"name": "_proposalId",
							"type": "uint256"
						}
					],
					"name": "resultOfProposal",
					"outputs": [
						{
							"internalType": "uint256",
							"name": "",
							"type": "uint256"
						},
						{
							"internalType": "string",
							"name": "",
							"type": "string"
						}
					],
					"stateMutability": "view",
					"type": "function"
				},
				{
					"inputs": [],
					"name": "symbol",
					"outputs": [
						{
							"internalType": "string",
							"name": "",
							"type": "string"
						}
					],
					"stateMutability": "view",
					"type": "function"
				},
				{
					"inputs": [],
					"name": "totalSupply",
					"outputs": [
						{
							"internalType": "uint256",
							"name": "",
							"type": "uint256"
						}
					],
					"stateMutability": "view",
					"type": "function"
				},
				{
					"inputs": [
						{
							"internalType": "address",
							"name": "",
							"type": "address"
						}
					],
					"name": "userProposal",
					"outputs": [
						{
							"internalType": "uint128",
							"name": "proposalCount",
							"type": "uint128"
						},
						{
							"internalType": "uint128",
							"name": "responseCount",
							"type": "uint128"
						}
					],
					"stateMutability": "view",
					"type": "function"
				}
			],
			"devdoc": {
				"kind": "dev",
				"methods": {
					"balanceOf(address)": {
						"details": "See {IERC20-balanceOf}."
					},
					"decimals()": {
						"details": "Returns the number of decimals used to get its user representation. For example, if `decimals` equals `2`, a balance of `505` tokens should be displayed to a user as `5.05` (`505 / 10 ** 2`). Tokens usually opt for a value of 18, imitating the relationship between Ether and Wei. This is the value {ERC20} uses, unless this function is overridden; NOTE: This information is only used for _display_ purposes: it in no way affects any of the arithmetic of the contract, including {IERC20-balanceOf} and {IERC20-transfer}."
					},
					"name()": {
						"details": "Returns the name of the token."
					},
					"symbol()": {
						"details": "Returns the symbol of the token, usually a shorter version of the name."
					},
					"totalSupply()": {
						"details": "See {IERC20-totalSupply}."
					}
				},
				"version": 1
			},
			"evm": {
				"assembly": "    /* \"Qvoting.sol\":481:5464  contract Qvoting is proposalEvents, QVtoken{\r... */\n  mstore(0x40, 0x80)\n  callvalue\n  dup1\n  iszero\n  tag_1\n  jumpi\n  0x00\n  dup1\n  revert\ntag_1:\n  pop\n    /* \"QvToken/ERC20.sol\":2016:2132  constructor(string memory name_, string memory symbol_) {\r... */\n  mload(0x40)\n  dup1\n  0x40\n  add\n  0x40\n  mstore\n  dup1\n  0x0c\n  dup2\n  mstore\n  0x20\n  add\n  0x51566f74696e67546f6b656e0000000000000000000000000000000000000000\n  dup2\n  mstore\n  pop\n  mload(0x40)\n  dup1\n  0x40\n  add\n  0x40\n  mstore\n  dup1\n  0x02\n  dup2\n  mstore\n  0x20\n  add\n  0x5176000000000000000000000000000000000000000000000000000000000000\n  dup2\n  mstore\n  pop\n    /* \"QvToken/ERC20.sol\":2091:2096  name_ */\n  dup2\n    /* \"QvToken/ERC20.sol\":2083:2088  _name */\n  0x02\n    /* \"QvToken/ERC20.sol\":2083:2096  _name = name_ */\n  swap1\n  dup1\n  mload\n  swap1\n  0x20\n  add\n  swap1\n  tag_5\n  swap3\n  swap2\n  swap1\n  tag_6\n  jump\t// in\ntag_5:\n  pop\n    /* \"QvToken/ERC20.sol\":2117:2124  symbol_ */\n  dup1\n    /* \"QvToken/ERC20.sol\":2107:2114  _symbol */\n  0x03\n    /* \"QvToken/ERC20.sol\":2107:2124  _symbol = symbol_ */\n  swap1\n  dup1\n  mload\n  swap1\n  0x20\n  add\n  swap1\n  tag_7\n  swap3\n  swap2\n  swap1\n  tag_6\n  jump\t// in\ntag_7:\n  pop\n    /* \"QvToken/ERC20.sol\":2016:2132  constructor(string memory name_, string memory symbol_) {\r... */\n  pop\n  pop\n    /* \"QvToken/QvToken.sol\":280:290  msg.sender */\n  caller\n    /* \"QvToken/QvToken.sol\":272:277  owner */\n  0x04\n  0x00\n    /* \"QvToken/QvToken.sol\":272:290  owner = msg.sender */\n  0x0100\n  exp\n  dup2\n  sload\n  dup2\n  0xffffffffffffffffffffffffffffffffffffffff\n  mul\n  not\n  and\n  swap1\n  dup4\n  0xffffffffffffffffffffffffffffffffffffffff\n  and\n  mul\n  or\n  swap1\n  sstore\n  pop\n    /* \"Qvoting.sol\":481:5464  contract Qvoting is proposalEvents, QVtoken{\r... */\n  jump(tag_9)\ntag_6:\n  dup3\n  dup1\n  sload\n  tag_10\n  swap1\n  tag_11\n  jump\t// in\ntag_10:\n  swap1\n  0x00\n  mstore\n  keccak256(0x00, 0x20)\n  swap1\n  0x1f\n  add\n  0x20\n  swap1\n  div\n  dup2\n  add\n  swap3\n  dup3\n  tag_13\n  jumpi\n  0x00\n  dup6\n  sstore\n  jump(tag_12)\ntag_13:\n  dup3\n  0x1f\n  lt\n  tag_14\n  jumpi\n  dup1\n  mload\n  not(0xff)\n  and\n  dup4\n  dup1\n  add\n  or\n  dup6\n  sstore\n  jump(tag_12)\ntag_14:\n  dup3\n  dup1\n  add\n  0x01\n  add\n  dup6\n  sstore\n  dup3\n  iszero\n  tag_12\n  jumpi\n  swap2\n  dup3\n  add\ntag_15:\n  dup3\n  dup2\n  gt\n  iszero\n  tag_16\n  jumpi\n  dup3\n  mload\n  dup3\n  sstore\n  swap2\n  0x20\n  add\n  swap2\n  swap1\n  0x01\n  add\n  swap1\n  jump(tag_15)\ntag_16:\ntag_12:\n  pop\n  swap1\n  pop\n  tag_17\n  swap2\n  swap1\n  tag_18\n  jump\t// in\ntag_17:\n  pop\n  swap1\n  jump\t// out\ntag_18:\ntag_19:\n  dup1\n  dup3\n  gt\n  iszero\n  tag_20\n  jumpi\n  0x00\n  dup2\n  0x00\n  swap1\n  sstore\n  pop\n  0x01\n  add\n  jump(tag_19)\ntag_20:\n  pop\n  swap1\n  jump\t// out\n    /* \"#utility.yul\":7:327   */\ntag_11:\n    /* \"#utility.yul\":51:57   */\n  0x00\n    /* \"#utility.yul\":88:89   */\n  0x02\n    /* \"#utility.yul\":82:86   */\n  dup3\n    /* \"#utility.yul\":78:90   */\n  div\n    /* \"#utility.yul\":68:90   */\n  swap1\n  pop\n    /* \"#utility.yul\":135:136   */\n  0x01\n    /* \"#utility.yul\":129:133   */\n  dup3\n    /* \"#utility.yul\":125:137   */\n  and\n    /* \"#utility.yul\":156:174   */\n  dup1\n    /* \"#utility.yul\":146:227   */\n  tag_23\n  jumpi\n    /* \"#utility.yul\":212:216   */\n  0x7f\n    /* \"#utility.yul\":204:210   */\n  dup3\n    /* \"#utility.yul\":200:217   */\n  and\n    /* \"#utility.yul\":190:217   */\n  swap2\n  pop\n    /* \"#utility.yul\":146:227   */\ntag_23:\n    /* \"#utility.yul\":274:276   */\n  0x20\n    /* \"#utility.yul\":266:272   */\n  dup3\n    /* \"#utility.yul\":263:277   */\n  lt\n    /* \"#utility.yul\":243:261   */\n  dup2\n    /* \"#utility.yul\":240:278   */\n  eq\n    /* \"#utility.yul\":237:321   */\n  iszero\n  tag_24\n  jumpi\n    /* \"#utility.yul\":293:311   */\n  tag_25\n  tag_26\n  jump\t// in\ntag_25:\n    /* \"#utility.yul\":237:321   */\ntag_24:\n    /* \"#utility.yul\":58:327   */\n  pop\n    /* \"#utility.yul\":7:327   */\n  swap2\n  swap1\n  pop\n  jump\t// out\n    /* \"#utility.yul\":333:513   */\ntag_26:\n    /* \"#utility.yul\":381:458   */\n  0x4e487b7100000000000000000000000000000000000000000000000000000000\n    /* \"#utility.yul\":378:379   */\n  0x00\n    /* \"#utility.yul\":371:459   */\n  mstore\n    /* \"#utility.yul\":478:482   */\n  0x22\n    /* \"#utility.yul\":475:476   */\n  0x04\n    /* \"#utility.yul\":468:483   */\n  mstore\n    /* \"#utility.yul\":502:506   */\n  0x24\n    /* \"#utility.yul\":499:500   */\n  0x00\n    /* \"#utility.yul\":492:507   */\n  revert\n    /* \"Qvoting.sol\":481:5464  contract Qvoting is proposalEvents, QVtoken{\r... */\ntag_9:\n  dataSize(sub_0)\n  dup1\n  dataOffset(sub_0)\n  0x00\n  codecopy\n  0x00\n  return\nstop\n\nsub_0: assembly {\n        /* \"Qvoting.sol\":481:5464  contract Qvoting is proposalEvents, QVtoken{\r... */\n      mstore(0x40, 0x80)\n      callvalue\n      dup1\n      iszero\n      tag_1\n      jumpi\n      0x00\n      dup1\n      revert\n    tag_1:\n      pop\n      jumpi(tag_2, lt(calldatasize, 0x04))\n      shr(0xe0, calldataload(0x00))\n      dup1\n      0x70a08231\n      gt\n      tag_15\n      jumpi\n      dup1\n      0x70a08231\n      eq\n      tag_9\n      jumpi\n      dup1\n      0x93d336aa\n      eq\n      tag_10\n      jumpi\n      dup1\n      0x95d89b41\n      eq\n      tag_11\n      jumpi\n      dup1\n      0x9d671564\n      eq\n      tag_12\n      jumpi\n      dup1\n      0xab9c70d4\n      eq\n      tag_13\n      jumpi\n      dup1\n      0xe745d68e\n      eq\n      tag_14\n      jumpi\n      jump(tag_2)\n    tag_15:\n      dup1\n      0x013cf08b\n      eq\n      tag_3\n      jumpi\n      dup1\n      0x06fdde03\n      eq\n      tag_4\n      jumpi\n      dup1\n      0x18160ddd\n      eq\n      tag_5\n      jumpi\n      dup1\n      0x313ce567\n      eq\n      tag_6\n      jumpi\n      dup1\n      0x4de77e48\n      eq\n      tag_7\n      jumpi\n      dup1\n      0x5c230eee\n      eq\n      tag_8\n      jumpi\n    tag_2:\n      0x00\n      dup1\n      revert\n        /* \"Qvoting.sol\":1304:1362  mapping(uint => proposalLibrary.proposal) public proposals */\n    tag_3:\n      tag_16\n      0x04\n      dup1\n      calldatasize\n      sub\n      dup2\n      add\n      swap1\n      tag_17\n      swap2\n      swap1\n      tag_18\n      jump\t// in\n    tag_17:\n      tag_19\n      jump\t// in\n    tag_16:\n      mload(0x40)\n      tag_20\n      swap8\n      swap7\n      swap6\n      swap5\n      swap4\n      swap3\n      swap2\n      swap1\n      tag_21\n      jump\t// in\n    tag_20:\n      mload(0x40)\n      dup1\n      swap2\n      sub\n      swap1\n      return\n        /* \"QvToken/ERC20.sol\":2202:2302  function name() public view virtual override returns (string memory) {\r... */\n    tag_4:\n      tag_22\n      tag_23\n      jump\t// in\n    tag_22:\n      mload(0x40)\n      tag_24\n      swap2\n      swap1\n      tag_25\n      jump\t// in\n    tag_24:\n      mload(0x40)\n      dup1\n      swap2\n      sub\n      swap1\n      return\n        /* \"QvToken/ERC20.sol\":3322:3430  function totalSupply() public view virtual override returns (uint256) {\r... */\n    tag_5:\n      tag_26\n      tag_27\n      jump\t// in\n    tag_26:\n      mload(0x40)\n      tag_28\n      swap2\n      swap1\n      tag_29\n      jump\t// in\n    tag_28:\n      mload(0x40)\n      dup1\n      swap2\n      sub\n      swap1\n      return\n        /* \"QvToken/ERC20.sol\":3164:3257  function decimals() public view virtual override returns (uint8) {\r... */\n    tag_6:\n      tag_30\n      tag_31\n      jump\t// in\n    tag_30:\n      mload(0x40)\n      tag_32\n      swap2\n      swap1\n      tag_33\n      jump\t// in\n    tag_32:\n      mload(0x40)\n      dup1\n      swap2\n      sub\n      swap1\n      return\n        /* \"Qvoting.sol\":1965:3262  function createProposal(uint8 _status, address[] memory _voters, address _creator,\r... */\n    tag_7:\n      tag_34\n      0x04\n      dup1\n      calldatasize\n      sub\n      dup2\n      add\n      swap1\n      tag_35\n      swap2\n      swap1\n      tag_36\n      jump\t// in\n    tag_35:\n      tag_37\n      jump\t// in\n    tag_34:\n      stop\n        /* \"Qvoting.sol\":3270:4519  function responseProposal(uint _proposalId, address _voter, string[] memory _hash, uint[] memory v) external {\r... */\n    tag_8:\n      tag_38\n      0x04\n      dup1\n      calldatasize\n      sub\n      dup2\n      add\n      swap1\n      tag_39\n      swap2\n      swap1\n      tag_40\n      jump\t// in\n    tag_39:\n      tag_41\n      jump\t// in\n    tag_38:\n      stop\n        /* \"QvToken/ERC20.sol\":3493:3620  function balanceOf(address account) public view virtual override returns (uint256) {\r... */\n    tag_9:\n      tag_42\n      0x04\n      dup1\n      calldatasize\n      sub\n      dup2\n      add\n      swap1\n      tag_43\n      swap2\n      swap1\n      tag_44\n      jump\t// in\n    tag_43:\n      tag_45\n      jump\t// in\n    tag_42:\n      mload(0x40)\n      tag_46\n      swap2\n      swap1\n      tag_29\n      jump\t// in\n    tag_46:\n      mload(0x40)\n      dup1\n      swap2\n      sub\n      swap1\n      return\n        /* \"Qvoting.sol\":4971:5459  function mintOwner(uint _proposalId, address[] memory _voters, uint _voteRight) external returns(bool)\r... */\n    tag_10:\n      tag_47\n      0x04\n      dup1\n      calldatasize\n      sub\n      dup2\n      add\n      swap1\n      tag_48\n      swap2\n      swap1\n      tag_49\n      jump\t// in\n    tag_48:\n      tag_50\n      jump\t// in\n    tag_47:\n      mload(0x40)\n      tag_51\n      swap2\n      swap1\n      tag_52\n      jump\t// in\n    tag_51:\n      mload(0x40)\n      dup1\n      swap2\n      sub\n      swap1\n      return\n        /* \"QvToken/ERC20.sol\":2421:2525  function symbol() public view virtual override returns (string memory) {\r... */\n    tag_11:\n      tag_53\n      tag_54\n      jump\t// in\n    tag_53:\n      mload(0x40)\n      tag_55\n      swap2\n      swap1\n      tag_25\n      jump\t// in\n    tag_55:\n      mload(0x40)\n      dup1\n      swap2\n      sub\n      swap1\n      return\n        /* \"Qvoting.sol\":4611:4965  function resultOfProposal(uint _proposalId) public view returns(uint, string memory){\r... */\n    tag_12:\n      tag_56\n      0x04\n      dup1\n      calldatasize\n      sub\n      dup2\n      add\n      swap1\n      tag_57\n      swap2\n      swap1\n      tag_18\n      jump\t// in\n    tag_57:\n      tag_58\n      jump\t// in\n    tag_56:\n      mload(0x40)\n      tag_59\n      swap3\n      swap2\n      swap1\n      tag_60\n      jump\t// in\n    tag_59:\n      mload(0x40)\n      dup1\n      swap2\n      sub\n      swap1\n      return\n        /* \"Qvoting.sol\":1400:1472  mapping(address => mapping(uint => voterLibrary.voter)) public allVoters */\n    tag_13:\n      tag_61\n      0x04\n      dup1\n      calldatasize\n      sub\n      dup2\n      add\n      swap1\n      tag_62\n      swap2\n      swap1\n      tag_63\n      jump\t// in\n    tag_62:\n      tag_64\n      jump\t// in\n    tag_61:\n      mload(0x40)\n      tag_65\n      swap5\n      swap4\n      swap3\n      swap2\n      swap1\n      tag_66\n      jump\t// in\n    tag_65:\n      mload(0x40)\n      dup1\n      swap2\n      sub\n      swap1\n      return\n        /* \"Qvoting.sol\":1201:1273  mapping(address => UserProposalLibrary.UserProposal) public userProposal */\n    tag_14:\n      tag_67\n      0x04\n      dup1\n      calldatasize\n      sub\n      dup2\n      add\n      swap1\n      tag_68\n      swap2\n      swap1\n      tag_44\n      jump\t// in\n    tag_68:\n      tag_69\n      jump\t// in\n    tag_67:\n      mload(0x40)\n      tag_70\n      swap3\n      swap2\n      swap1\n      tag_71\n      jump\t// in\n    tag_70:\n      mload(0x40)\n      dup1\n      swap2\n      sub\n      swap1\n      return\n        /* \"Qvoting.sol\":1304:1362  mapping(uint => proposalLibrary.proposal) public proposals */\n    tag_19:\n      mstore(0x20, 0x07)\n      dup1\n      0x00\n      mstore\n      keccak256(0x00, 0x40)\n      0x00\n      swap2\n      pop\n      swap1\n      pop\n      dup1\n      0x00\n      add\n      0x00\n      swap1\n      sload\n      swap1\n      0x0100\n      exp\n      swap1\n      div\n      0xffffffffffffffffffffffffffffffffffffffff\n      and\n      swap1\n      dup1\n      0x00\n      add\n      0x14\n      swap1\n      sload\n      swap1\n      0x0100\n      exp\n      swap1\n      div\n      0xff\n      and\n      swap1\n      dup1\n      0x01\n      add\n      dup1\n      sload\n      tag_72\n      swap1\n      tag_73\n      jump\t// in\n    tag_72:\n      dup1\n      0x1f\n      add\n      0x20\n      dup1\n      swap2\n      div\n      mul\n      0x20\n      add\n      mload(0x40)\n      swap1\n      dup2\n      add\n      0x40\n      mstore\n      dup1\n      swap3\n      swap2\n      swap1\n      dup2\n      dup2\n      mstore\n      0x20\n      add\n      dup3\n      dup1\n      sload\n      tag_74\n      swap1\n      tag_73\n      jump\t// in\n    tag_74:\n      dup1\n      iszero\n      tag_75\n      jumpi\n      dup1\n      0x1f\n      lt\n      tag_76\n      jumpi\n      0x0100\n      dup1\n      dup4\n      sload\n      div\n      mul\n      dup4\n      mstore\n      swap2\n      0x20\n      add\n      swap2\n      jump(tag_75)\n    tag_76:\n      dup3\n      add\n      swap2\n      swap1\n      0x00\n      mstore\n      keccak256(0x00, 0x20)\n      swap1\n    tag_77:\n      dup2\n      sload\n      dup2\n      mstore\n      swap1\n      0x01\n      add\n      swap1\n      0x20\n      add\n      dup1\n      dup4\n      gt\n      tag_77\n      jumpi\n      dup3\n      swap1\n      sub\n      0x1f\n      and\n      dup3\n      add\n      swap2\n    tag_75:\n      pop\n      pop\n      pop\n      pop\n      pop\n      swap1\n      dup1\n      0x02\n      add\n      sload\n      swap1\n      dup1\n      0x03\n      add\n      sload\n      swap1\n      dup1\n      0x04\n      add\n      0x00\n      swap1\n      sload\n      swap1\n      0x0100\n      exp\n      swap1\n      div\n      0xffff\n      and\n      swap1\n      dup1\n      0x05\n      add\n      sload\n      swap1\n      pop\n      dup8\n      jump\t// out\n        /* \"QvToken/ERC20.sol\":2202:2302  function name() public view virtual override returns (string memory) {\r... */\n    tag_23:\n        /* \"QvToken/ERC20.sol\":2256:2269  string memory */\n      0x60\n        /* \"QvToken/ERC20.sol\":2289:2294  _name */\n      0x02\n        /* \"QvToken/ERC20.sol\":2282:2294  return _name */\n      dup1\n      sload\n      tag_79\n      swap1\n      tag_73\n      jump\t// in\n    tag_79:\n      dup1\n      0x1f\n      add\n      0x20\n      dup1\n      swap2\n      div\n      mul\n      0x20\n      add\n      mload(0x40)\n      swap1\n      dup2\n      add\n      0x40\n      mstore\n      dup1\n      swap3\n      swap2\n      swap1\n      dup2\n      dup2\n      mstore\n      0x20\n      add\n      dup3\n      dup1\n      sload\n      tag_80\n      swap1\n      tag_73\n      jump\t// in\n    tag_80:\n      dup1\n      iszero\n      tag_81\n      jumpi\n      dup1\n      0x1f\n      lt\n      tag_82\n      jumpi\n      0x0100\n      dup1\n      dup4\n      sload\n      div\n      mul\n      dup4\n      mstore\n      swap2\n      0x20\n      add\n      swap2\n      jump(tag_81)\n    tag_82:\n      dup3\n      add\n      swap2\n      swap1\n      0x00\n      mstore\n      keccak256(0x00, 0x20)\n      swap1\n    tag_83:\n      dup2\n      sload\n      dup2\n      mstore\n      swap1\n      0x01\n      add\n      swap1\n      0x20\n      add\n      dup1\n      dup4\n      gt\n      tag_83\n      jumpi\n      dup3\n      swap1\n      sub\n      0x1f\n      and\n      dup3\n      add\n      swap2\n    tag_81:\n      pop\n      pop\n      pop\n      pop\n      pop\n      swap1\n      pop\n        /* \"QvToken/ERC20.sol\":2202:2302  function name() public view virtual override returns (string memory) {\r... */\n      swap1\n      jump\t// out\n        /* \"QvToken/ERC20.sol\":3322:3430  function totalSupply() public view virtual override returns (uint256) {\r... */\n    tag_27:\n        /* \"QvToken/ERC20.sol\":3383:3390  uint256 */\n      0x00\n        /* \"QvToken/ERC20.sol\":3410:3422  _totalSupply */\n      sload(0x01)\n        /* \"QvToken/ERC20.sol\":3403:3422  return _totalSupply */\n      swap1\n      pop\n        /* \"QvToken/ERC20.sol\":3322:3430  function totalSupply() public view virtual override returns (uint256) {\r... */\n      swap1\n      jump\t// out\n        /* \"QvToken/ERC20.sol\":3164:3257  function decimals() public view virtual override returns (uint8) {\r... */\n    tag_31:\n        /* \"QvToken/ERC20.sol\":3222:3227  uint8 */\n      0x00\n        /* \"QvToken/ERC20.sol\":3247:3249  18 */\n      0x12\n        /* \"QvToken/ERC20.sol\":3240:3249  return 18 */\n      swap1\n      pop\n        /* \"QvToken/ERC20.sol\":3164:3257  function decimals() public view virtual override returns (uint8) {\r... */\n      swap1\n      jump\t// out\n        /* \"Qvoting.sol\":1965:3262  function createProposal(uint8 _status, address[] memory _voters, address _creator,\r... */\n    tag_37:\n        /* \"Qvoting.sol\":2339:2349  _startTime */\n      dup6\n        /* \"Qvoting.sol\":2321:2336  block.timestamp */\n      timestamp\n        /* \"Qvoting.sol\":2321:2349  block.timestamp < _startTime */\n      lt\n        /* \"Qvoting.sol\":2313:2373  require(block.timestamp < _startTime,\"proposal not started\") */\n      tag_87\n      jumpi\n      mload(0x40)\n      0x08c379a000000000000000000000000000000000000000000000000000000000\n      dup2\n      mstore\n      0x04\n      add\n      tag_88\n      swap1\n      tag_89\n      jump\t// in\n    tag_88:\n      mload(0x40)\n      dup1\n      swap2\n      sub\n      swap1\n      revert\n    tag_87:\n        /* \"Qvoting.sol\":2410:2425  _expirationTime */\n      dup5\n        /* \"Qvoting.sol\":2392:2407  block.timestamp */\n      timestamp\n        /* \"Qvoting.sol\":2392:2425  block.timestamp < _expirationTime */\n      lt\n        /* \"Qvoting.sol\":2384:2473  require(block.timestamp < _expirationTime,\"End time should be greater than current time\") */\n      tag_90\n      jumpi\n      mload(0x40)\n      0x08c379a000000000000000000000000000000000000000000000000000000000\n      dup2\n      mstore\n      0x04\n      add\n      tag_91\n      swap1\n      tag_92\n      jump\t// in\n    tag_91:\n      mload(0x40)\n      dup1\n      swap2\n      sub\n      swap1\n      revert\n    tag_90:\n        /* \"Qvoting.sol\":2505:2520  _expirationTime */\n      dup5\n        /* \"Qvoting.sol\":2492:2502  _startTime */\n      dup7\n        /* \"Qvoting.sol\":2492:2520  _startTime < _expirationTime */\n      lt\n        /* \"Qvoting.sol\":2484:2566  require(_startTime < _expirationTime,\"End time should be greater than start time\") */\n      tag_93\n      jumpi\n      mload(0x40)\n      0x08c379a000000000000000000000000000000000000000000000000000000000\n      dup2\n      mstore\n      0x04\n      add\n      tag_94\n      swap1\n      tag_95\n      jump\t// in\n    tag_94:\n      mload(0x40)\n      dup1\n      swap2\n      sub\n      swap1\n      revert\n    tag_93:\n        /* \"Qvoting.sol\":2579:2589  proposalId */\n      0x05\n      0x00\n        /* \"Qvoting.sol\":2579:2591  proposalId++ */\n      dup2\n      sload\n      dup1\n      swap3\n      swap2\n      swap1\n      tag_96\n      swap1\n      tag_97\n      jump\t// in\n    tag_96:\n      swap2\n      swap1\n      pop\n      sstore\n      pop\n        /* \"Qvoting.sol\":2602:2714  proposals[proposalId].createProposal(_status,_voters,_creator,_startTime,_expirationTime,_disc,_voteRight,_cand) */\n      tag_98\n        /* \"Qvoting.sol\":2639:2646  _status */\n      dup10\n        /* \"Qvoting.sol\":2647:2654  _voters */\n      dup10\n        /* \"Qvoting.sol\":2655:2663  _creator */\n      dup10\n        /* \"Qvoting.sol\":2664:2674  _startTime */\n      dup10\n        /* \"Qvoting.sol\":2675:2690  _expirationTime */\n      dup10\n        /* \"Qvoting.sol\":2691:2696  _disc */\n      dup10\n        /* \"Qvoting.sol\":2697:2707  _voteRight */\n      dup8\n        /* \"Qvoting.sol\":2708:2713  _cand */\n      dup11\n      dup11\n        /* \"Qvoting.sol\":2602:2611  proposals */\n      0x07\n        /* \"Qvoting.sol\":2602:2623  proposals[proposalId] */\n      0x00\n        /* \"Qvoting.sol\":2612:2622  proposalId */\n      sload(0x05)\n        /* \"Qvoting.sol\":2602:2623  proposals[proposalId] */\n      dup2\n      mstore\n      0x20\n      add\n      swap1\n      dup2\n      mstore\n      0x20\n      add\n      0x00\n      keccak256\n        /* \"Qvoting.sol\":2602:2638  proposals[proposalId].createProposal */\n      tag_99\n      swap1\n        /* \"Qvoting.sol\":2602:2714  proposals[proposalId].createProposal(_status,_voters,_creator,_startTime,_expirationTime,_disc,_voteRight,_cand) */\n      swap10\n      swap9\n      swap8\n      swap7\n      swap6\n      swap5\n      swap4\n      swap3\n      swap2\n      swap1\n      0xffffffff\n      and\n      jump\t// in\n    tag_98:\n      pop\n        /* \"Qvoting.sol\":2730:2814  ProposalCreated(proposalId, _voters,_creator,_startTime,_expirationTime,_disc,_cand) */\n      0x239a8a71a7d1cb0d134f6cc072ad6390e36a88c8e78dff69013ee79528441e80\n        /* \"Qvoting.sol\":2746:2756  proposalId */\n      sload(0x05)\n        /* \"Qvoting.sol\":2758:2765  _voters */\n      dup10\n        /* \"Qvoting.sol\":2766:2774  _creator */\n      dup10\n        /* \"Qvoting.sol\":2775:2785  _startTime */\n      dup10\n        /* \"Qvoting.sol\":2786:2801  _expirationTime */\n      dup10\n        /* \"Qvoting.sol\":2802:2807  _disc */\n      dup10\n        /* \"Qvoting.sol\":2808:2813  _cand */\n      dup10\n      dup10\n        /* \"Qvoting.sol\":2730:2814  ProposalCreated(proposalId, _voters,_creator,_startTime,_expirationTime,_disc,_cand) */\n      mload(0x40)\n      tag_100\n      swap9\n      swap8\n      swap7\n      swap6\n      swap5\n      swap4\n      swap3\n      swap2\n      swap1\n      tag_101\n      jump\t// in\n    tag_100:\n      mload(0x40)\n      dup1\n      swap2\n      sub\n      swap1\n      log1\n        /* \"Qvoting.sol\":2854:2858  true */\n      0x01\n        /* \"Qvoting.sol\":2825:2839  validProposals */\n      0x09\n        /* \"Qvoting.sol\":2825:2851  validProposals[proposalId] */\n      0x00\n        /* \"Qvoting.sol\":2840:2850  proposalId */\n      sload(0x05)\n        /* \"Qvoting.sol\":2825:2851  validProposals[proposalId] */\n      dup2\n      mstore\n      0x20\n      add\n      swap1\n      dup2\n      mstore\n      0x20\n      add\n      0x00\n      keccak256\n      0x00\n        /* \"Qvoting.sol\":2825:2858  validProposals[proposalId] = true */\n      0x0100\n      exp\n      dup2\n      sload\n      dup2\n      0xff\n      mul\n      not\n      and\n      swap1\n      dup4\n      iszero\n      iszero\n      mul\n      or\n      swap1\n      sstore\n      pop\n        /* \"Qvoting.sol\":2930:2939  uint256 i */\n      0x00\n        /* \"Qvoting.sol\":2926:3185  for(uint256 i=0;i<_voters.length;i++){\r... */\n    tag_102:\n        /* \"Qvoting.sol\":2944:2951  _voters */\n      dup9\n        /* \"Qvoting.sol\":2944:2958  _voters.length */\n      mload\n        /* \"Qvoting.sol\":2942:2943  i */\n      dup2\n        /* \"Qvoting.sol\":2942:2958  i<_voters.length */\n      lt\n        /* \"Qvoting.sol\":2926:3185  for(uint256 i=0;i<_voters.length;i++){\r... */\n      iszero\n      tag_103\n      jumpi\n        /* \"Qvoting.sol\":2978:3005  mint(_voters[i],_voteRight) */\n      tag_105\n        /* \"Qvoting.sol\":2983:2990  _voters */\n      dup10\n        /* \"Qvoting.sol\":2991:2992  i */\n      dup3\n        /* \"Qvoting.sol\":2983:2993  _voters[i] */\n      dup2\n      mload\n      dup2\n      lt\n      tag_106\n      jumpi\n      tag_107\n      tag_108\n      jump\t// in\n    tag_107:\n    tag_106:\n      0x20\n      mul\n      0x20\n      add\n      add\n      mload\n        /* \"Qvoting.sol\":2994:3004  _voteRight */\n      dup4\n        /* \"Qvoting.sol\":2978:2982  mint */\n      tag_109\n        /* \"Qvoting.sol\":2978:3005  mint(_voters[i],_voteRight) */\n      jump\t// in\n    tag_105:\n        /* \"Qvoting.sol\":3020:3108  allVoters[_voters[i]][proposalId].createVoter(proposalId, _voters[i], false, _voteRight) */\n      tag_110\n        /* \"Qvoting.sol\":3066:3076  proposalId */\n      sload(0x05)\n        /* \"Qvoting.sol\":3078:3085  _voters */\n      dup11\n        /* \"Qvoting.sol\":3086:3087  i */\n      dup4\n        /* \"Qvoting.sol\":3078:3088  _voters[i] */\n      dup2\n      mload\n      dup2\n      lt\n      tag_111\n      jumpi\n      tag_112\n      tag_108\n      jump\t// in\n    tag_112:\n    tag_111:\n      0x20\n      mul\n      0x20\n      add\n      add\n      mload\n        /* \"Qvoting.sol\":3090:3095  false */\n      0x00\n        /* \"Qvoting.sol\":3097:3107  _voteRight */\n      dup6\n        /* \"Qvoting.sol\":3020:3029  allVoters */\n      0x08\n        /* \"Qvoting.sol\":3020:3041  allVoters[_voters[i]] */\n      0x00\n        /* \"Qvoting.sol\":3030:3037  _voters */\n      dup16\n        /* \"Qvoting.sol\":3038:3039  i */\n      dup9\n        /* \"Qvoting.sol\":3030:3040  _voters[i] */\n      dup2\n      mload\n      dup2\n      lt\n      tag_113\n      jumpi\n      tag_114\n      tag_108\n      jump\t// in\n    tag_114:\n    tag_113:\n      0x20\n      mul\n      0x20\n      add\n      add\n      mload\n        /* \"Qvoting.sol\":3020:3041  allVoters[_voters[i]] */\n      0xffffffffffffffffffffffffffffffffffffffff\n      and\n      0xffffffffffffffffffffffffffffffffffffffff\n      and\n      dup2\n      mstore\n      0x20\n      add\n      swap1\n      dup2\n      mstore\n      0x20\n      add\n      0x00\n      keccak256\n        /* \"Qvoting.sol\":3020:3053  allVoters[_voters[i]][proposalId] */\n      0x00\n        /* \"Qvoting.sol\":3042:3052  proposalId */\n      sload(0x05)\n        /* \"Qvoting.sol\":3020:3053  allVoters[_voters[i]][proposalId] */\n      dup2\n      mstore\n      0x20\n      add\n      swap1\n      dup2\n      mstore\n      0x20\n      add\n      0x00\n      keccak256\n        /* \"Qvoting.sol\":3020:3065  allVoters[_voters[i]][proposalId].createVoter */\n      tag_115\n      swap1\n        /* \"Qvoting.sol\":3020:3108  allVoters[_voters[i]][proposalId].createVoter(proposalId, _voters[i], false, _voteRight) */\n      swap5\n      swap4\n      swap3\n      swap2\n      swap1\n      0xffffffff\n      and\n      jump\t// in\n    tag_110:\n      pop\n        /* \"Qvoting.sol\":3128:3169  mintAndburn(\"mint\",_voters[i],_voteRight) */\n      0xabf5327be9f5825c40d58bda541dd07f09b62df3376bbd5ecdbaa8bd82a9d492\n        /* \"Qvoting.sol\":3147:3154  _voters */\n      dup10\n        /* \"Qvoting.sol\":3155:3156  i */\n      dup3\n        /* \"Qvoting.sol\":3147:3157  _voters[i] */\n      dup2\n      mload\n      dup2\n      lt\n      tag_116\n      jumpi\n      tag_117\n      tag_108\n      jump\t// in\n    tag_117:\n    tag_116:\n      0x20\n      mul\n      0x20\n      add\n      add\n      mload\n        /* \"Qvoting.sol\":3158:3168  _voteRight */\n      dup4\n        /* \"Qvoting.sol\":3128:3169  mintAndburn(\"mint\",_voters[i],_voteRight) */\n      mload(0x40)\n      tag_118\n      swap3\n      swap2\n      swap1\n      tag_119\n      jump\t// in\n    tag_118:\n      mload(0x40)\n      dup1\n      swap2\n      sub\n      swap1\n      log1\n        /* \"Qvoting.sol\":2959:2962  i++ */\n      dup1\n      dup1\n      tag_120\n      swap1\n      tag_97\n      jump\t// in\n    tag_120:\n      swap2\n      pop\n      pop\n        /* \"Qvoting.sol\":2926:3185  for(uint256 i=0;i<_voters.length;i++){\r... */\n      jump(tag_102)\n    tag_103:\n      pop\n        /* \"Qvoting.sol\":3197:3254  userProposal[_msgSender()].updateProposalList(proposalId) */\n      tag_121\n        /* \"Qvoting.sol\":3243:3253  proposalId */\n      sload(0x05)\n        /* \"Qvoting.sol\":3197:3209  userProposal */\n      0x06\n        /* \"Qvoting.sol\":3197:3223  userProposal[_msgSender()] */\n      0x00\n        /* \"Qvoting.sol\":3210:3222  _msgSender() */\n      tag_122\n        /* \"Qvoting.sol\":3210:3220  _msgSender */\n      tag_123\n        /* \"Qvoting.sol\":3210:3222  _msgSender() */\n      jump\t// in\n    tag_122:\n        /* \"Qvoting.sol\":3197:3223  userProposal[_msgSender()] */\n      0xffffffffffffffffffffffffffffffffffffffff\n      and\n      0xffffffffffffffffffffffffffffffffffffffff\n      and\n      dup2\n      mstore\n      0x20\n      add\n      swap1\n      dup2\n      mstore\n      0x20\n      add\n      0x00\n      keccak256\n        /* \"Qvoting.sol\":3197:3242  userProposal[_msgSender()].updateProposalList */\n      tag_124\n      swap1\n        /* \"Qvoting.sol\":3197:3254  userProposal[_msgSender()].updateProposalList(proposalId) */\n      swap2\n      swap1\n      0xffffffff\n      and\n      jump\t// in\n    tag_121:\n      pop\n        /* \"Qvoting.sol\":1965:3262  function createProposal(uint8 _status, address[] memory _voters, address _creator,\r... */\n      pop\n      pop\n      pop\n      pop\n      pop\n      pop\n      pop\n      pop\n      pop\n      jump\t// out\n        /* \"Qvoting.sol\":3270:4519  function responseProposal(uint _proposalId, address _voter, string[] memory _hash, uint[] memory v) external {\r... */\n    tag_41:\n        /* \"Qvoting.sol\":3493:3507  validProposals */\n      0x09\n        /* \"Qvoting.sol\":3493:3520  validProposals[_proposalId] */\n      0x00\n        /* \"Qvoting.sol\":3508:3519  _proposalId */\n      dup6\n        /* \"Qvoting.sol\":3493:3520  validProposals[_proposalId] */\n      dup2\n      mstore\n      0x20\n      add\n      swap1\n      dup2\n      mstore\n      0x20\n      add\n      0x00\n      keccak256\n      0x00\n      swap1\n      sload\n      swap1\n      0x0100\n      exp\n      swap1\n      div\n      0xff\n      and\n        /* \"Qvoting.sol\":3485:3542  require(validProposals[_proposalId],\"invalid proposalId\") */\n      tag_126\n      jumpi\n      mload(0x40)\n      0x08c379a000000000000000000000000000000000000000000000000000000000\n      dup2\n      mstore\n      0x04\n      add\n      tag_127\n      swap1\n      tag_128\n      jump\t// in\n    tag_127:\n      mload(0x40)\n      dup1\n      swap2\n      sub\n      swap1\n      revert\n    tag_126:\n        /* \"Qvoting.sol\":3606:3617  _proposalId */\n      dup4\n        /* \"Qvoting.sol\":3561:3570  allVoters */\n      0x08\n        /* \"Qvoting.sol\":3561:3578  allVoters[_voter] */\n      0x00\n        /* \"Qvoting.sol\":3571:3577  _voter */\n      dup6\n        /* \"Qvoting.sol\":3561:3578  allVoters[_voter] */\n      0xffffffffffffffffffffffffffffffffffffffff\n      and\n      0xffffffffffffffffffffffffffffffffffffffff\n      and\n      dup2\n      mstore\n      0x20\n      add\n      swap1\n      dup2\n      mstore\n      0x20\n      add\n      0x00\n      keccak256\n        /* \"Qvoting.sol\":3561:3591  allVoters[_voter][_proposalId] */\n      0x00\n        /* \"Qvoting.sol\":3579:3590  _proposalId */\n      dup7\n        /* \"Qvoting.sol\":3561:3591  allVoters[_voter][_proposalId] */\n      dup2\n      mstore\n      0x20\n      add\n      swap1\n      dup2\n      mstore\n      0x20\n      add\n      0x00\n      keccak256\n        /* \"Qvoting.sol\":3561:3602  allVoters[_voter][_proposalId].proposalId */\n      0x00\n      add\n      sload\n        /* \"Qvoting.sol\":3561:3617  allVoters[_voter][_proposalId].proposalId == _proposalId */\n      eq\n        /* \"Qvoting.sol\":3553:3657  require(allVoters[_voter][_proposalId].proposalId == _proposalId, \"not a valid voter for this proposal\") */\n      tag_129\n      jumpi\n      mload(0x40)\n      0x08c379a000000000000000000000000000000000000000000000000000000000\n      dup2\n      mstore\n      0x04\n      add\n      tag_130\n      swap1\n      tag_131\n      jump\t// in\n    tag_130:\n      mload(0x40)\n      dup1\n      swap2\n      sub\n      swap1\n      revert\n    tag_129:\n        /* \"Qvoting.sol\":3738:3747  allVoters */\n      0x08\n        /* \"Qvoting.sol\":3738:3755  allVoters[_voter] */\n      0x00\n        /* \"Qvoting.sol\":3748:3754  _voter */\n      dup5\n        /* \"Qvoting.sol\":3738:3755  allVoters[_voter] */\n      0xffffffffffffffffffffffffffffffffffffffff\n      and\n      0xffffffffffffffffffffffffffffffffffffffff\n      and\n      dup2\n      mstore\n      0x20\n      add\n      swap1\n      dup2\n      mstore\n      0x20\n      add\n      0x00\n      keccak256\n        /* \"Qvoting.sol\":3738:3768  allVoters[_voter][_proposalId] */\n      0x00\n        /* \"Qvoting.sol\":3756:3767  _proposalId */\n      dup6\n        /* \"Qvoting.sol\":3738:3768  allVoters[_voter][_proposalId] */\n      dup2\n      mstore\n      0x20\n      add\n      swap1\n      dup2\n      mstore\n      0x20\n      add\n      0x00\n      keccak256\n        /* \"Qvoting.sol\":3738:3777  allVoters[_voter][_proposalId].hasVoted */\n      0x01\n      add\n      0x14\n      swap1\n      sload\n      swap1\n      0x0100\n      exp\n      swap1\n      div\n      0xff\n      and\n        /* \"Qvoting.sol\":3737:3777  !allVoters[_voter][_proposalId].hasVoted */\n      iszero\n        /* \"Qvoting.sol\":3729:3795  require(!allVoters[_voter][_proposalId].hasVoted, \"already voted\") */\n      tag_132\n      jumpi\n      mload(0x40)\n      0x08c379a000000000000000000000000000000000000000000000000000000000\n      dup2\n      mstore\n      0x04\n      add\n      tag_133\n      swap1\n      tag_134\n      jump\t// in\n    tag_133:\n      mload(0x40)\n      dup1\n      swap2\n      sub\n      swap1\n      revert\n    tag_132:\n        /* \"Qvoting.sol\":3852:3857  _hash */\n      dup2\n        /* \"Qvoting.sol\":3852:3864  _hash.length */\n      mload\n        /* \"Qvoting.sol\":3814:3823  proposals */\n      0x07\n        /* \"Qvoting.sol\":3814:3836  proposals[_proposalId] */\n      0x00\n        /* \"Qvoting.sol\":3824:3835  _proposalId */\n      dup7\n        /* \"Qvoting.sol\":3814:3836  proposals[_proposalId] */\n      dup2\n      mstore\n      0x20\n      add\n      swap1\n      dup2\n      mstore\n      0x20\n      add\n      0x00\n      keccak256\n        /* \"Qvoting.sol\":3814:3849  proposals[_proposalId].numOfOptions */\n      0x04\n      add\n      0x00\n      swap1\n      sload\n      swap1\n      0x0100\n      exp\n      swap1\n      div\n      0xffff\n      and\n        /* \"Qvoting.sol\":3814:3864  proposals[_proposalId].numOfOptions ==_hash.length */\n      0xffff\n      and\n      eq\n        /* \"Qvoting.sol\":3806:3905  require(proposals[_proposalId].numOfOptions ==_hash.length, \"not a valid length of hash response!\") */\n      tag_135\n      jumpi\n      mload(0x40)\n      0x08c379a000000000000000000000000000000000000000000000000000000000\n      dup2\n      mstore\n      0x04\n      add\n      tag_136\n      swap1\n      tag_137\n      jump\t// in\n    tag_136:\n      mload(0x40)\n      dup1\n      swap2\n      sub\n      swap1\n      revert\n    tag_135:\n        /* \"Qvoting.sol\":3916:3924  uint sum */\n      0x00\n        /* \"Qvoting.sol\":3941:3947  uint i */\n      dup1\n        /* \"Qvoting.sol\":3937:4006  for(uint i=0;i<v.length;i++){\r... */\n    tag_138:\n        /* \"Qvoting.sol\":3952:3953  v */\n      dup3\n        /* \"Qvoting.sol\":3952:3960  v.length */\n      mload\n        /* \"Qvoting.sol\":3950:3951  i */\n      dup2\n        /* \"Qvoting.sol\":3950:3960  i<v.length */\n      lt\n        /* \"Qvoting.sol\":3937:4006  for(uint i=0;i<v.length;i++){\r... */\n      iszero\n      tag_139\n      jumpi\n        /* \"Qvoting.sol\":3990:3991  v */\n      dup3\n        /* \"Qvoting.sol\":3992:3993  i */\n      dup2\n        /* \"Qvoting.sol\":3990:3994  v[i] */\n      dup2\n      mload\n      dup2\n      lt\n      tag_141\n      jumpi\n      tag_142\n      tag_108\n      jump\t// in\n    tag_142:\n    tag_141:\n      0x20\n      mul\n      0x20\n      add\n      add\n      mload\n        /* \"Qvoting.sol\":3985:3986  v */\n      dup4\n        /* \"Qvoting.sol\":3987:3988  i */\n      dup3\n        /* \"Qvoting.sol\":3985:3989  v[i] */\n      dup2\n      mload\n      dup2\n      lt\n      tag_143\n      jumpi\n      tag_144\n      tag_108\n      jump\t// in\n    tag_144:\n    tag_143:\n      0x20\n      mul\n      0x20\n      add\n      add\n      mload\n        /* \"Qvoting.sol\":3985:3994  v[i]*v[i] */\n      tag_145\n      swap2\n      swap1\n      tag_146\n      jump\t// in\n    tag_145:\n        /* \"Qvoting.sol\":3980:3994  sum+=v[i]*v[i] */\n      dup3\n      tag_147\n      swap2\n      swap1\n      tag_148\n      jump\t// in\n    tag_147:\n      swap2\n      pop\n        /* \"Qvoting.sol\":3961:3964  i++ */\n      dup1\n      dup1\n      tag_149\n      swap1\n      tag_97\n      jump\t// in\n    tag_149:\n      swap2\n      pop\n      pop\n        /* \"Qvoting.sol\":3937:4006  for(uint i=0;i<v.length;i++){\r... */\n      jump(tag_138)\n    tag_139:\n      pop\n        /* \"Qvoting.sol\":4066:4069  sum */\n      dup1\n        /* \"Qvoting.sol\":4024:4033  allVoters */\n      0x08\n        /* \"Qvoting.sol\":4024:4041  allVoters[_voter] */\n      0x00\n        /* \"Qvoting.sol\":4034:4040  _voter */\n      dup7\n        /* \"Qvoting.sol\":4024:4041  allVoters[_voter] */\n      0xffffffffffffffffffffffffffffffffffffffff\n      and\n      0xffffffffffffffffffffffffffffffffffffffff\n      and\n      dup2\n      mstore\n      0x20\n      add\n      swap1\n      dup2\n      mstore\n      0x20\n      add\n      0x00\n      keccak256\n        /* \"Qvoting.sol\":4024:4054  allVoters[_voter][_proposalId] */\n      0x00\n        /* \"Qvoting.sol\":4042:4053  _proposalId */\n      dup8\n        /* \"Qvoting.sol\":4024:4054  allVoters[_voter][_proposalId] */\n      dup2\n      mstore\n      0x20\n      add\n      swap1\n      dup2\n      mstore\n      0x20\n      add\n      0x00\n      keccak256\n        /* \"Qvoting.sol\":4024:4062  allVoters[_voter][_proposalId].voteNum */\n      0x02\n      add\n      sload\n        /* \"Qvoting.sol\":4024:4069  allVoters[_voter][_proposalId].voteNum >= sum */\n      lt\n      iszero\n        /* \"Qvoting.sol\":4016:4109  require(allVoters[_voter][_proposalId].voteNum >= sum, \"not sufficient balance to cast vote\") */\n      tag_150\n      jumpi\n      mload(0x40)\n      0x08c379a000000000000000000000000000000000000000000000000000000000\n      dup2\n      mstore\n      0x04\n      add\n      tag_151\n      swap1\n      tag_152\n      jump\t// in\n    tag_151:\n      mload(0x40)\n      dup1\n      swap2\n      sub\n      swap1\n      revert\n    tag_150:\n        /* \"Qvoting.sol\":4122:4178  proposals[_proposalId].responseProposal(_voter,_hash, v) */\n      tag_153\n        /* \"Qvoting.sol\":4162:4168  _voter */\n      dup5\n        /* \"Qvoting.sol\":4169:4174  _hash */\n      dup5\n        /* \"Qvoting.sol\":4176:4177  v */\n      dup5\n        /* \"Qvoting.sol\":4122:4131  proposals */\n      0x07\n        /* \"Qvoting.sol\":4122:4144  proposals[_proposalId] */\n      0x00\n        /* \"Qvoting.sol\":4132:4143  _proposalId */\n      dup11\n        /* \"Qvoting.sol\":4122:4144  proposals[_proposalId] */\n      dup2\n      mstore\n      0x20\n      add\n      swap1\n      dup2\n      mstore\n      0x20\n      add\n      0x00\n      keccak256\n        /* \"Qvoting.sol\":4122:4161  proposals[_proposalId].responseProposal */\n      tag_154\n      swap1\n        /* \"Qvoting.sol\":4122:4178  proposals[_proposalId].responseProposal(_voter,_hash, v) */\n      swap4\n      swap3\n      swap2\n      swap1\n      0xffffffff\n      and\n      jump\t// in\n    tag_153:\n      pop\n        /* \"Qvoting.sol\":4189:4254  userProposal[_msgSender()].updateResponseList(_proposalId, _hash) */\n      tag_155\n        /* \"Qvoting.sol\":4235:4246  _proposalId */\n      dup6\n        /* \"Qvoting.sol\":4248:4253  _hash */\n      dup5\n        /* \"Qvoting.sol\":4189:4201  userProposal */\n      0x06\n        /* \"Qvoting.sol\":4189:4215  userProposal[_msgSender()] */\n      0x00\n        /* \"Qvoting.sol\":4202:4214  _msgSender() */\n      tag_156\n        /* \"Qvoting.sol\":4202:4212  _msgSender */\n      tag_123\n        /* \"Qvoting.sol\":4202:4214  _msgSender() */\n      jump\t// in\n    tag_156:\n        /* \"Qvoting.sol\":4189:4215  userProposal[_msgSender()] */\n      0xffffffffffffffffffffffffffffffffffffffff\n      and\n      0xffffffffffffffffffffffffffffffffffffffff\n      and\n      dup2\n      mstore\n      0x20\n      add\n      swap1\n      dup2\n      mstore\n      0x20\n      add\n      0x00\n      keccak256\n        /* \"Qvoting.sol\":4189:4234  userProposal[_msgSender()].updateResponseList */\n      tag_157\n      swap1\n        /* \"Qvoting.sol\":4189:4254  userProposal[_msgSender()].updateResponseList(_proposalId, _hash) */\n      swap3\n      swap2\n      swap1\n      0xffffffff\n      and\n      jump\t// in\n    tag_155:\n      pop\n        /* \"Qvoting.sol\":4267:4313  allVoters[_voter][_proposalId].updateVoteNum() */\n      tag_158\n        /* \"Qvoting.sol\":4267:4276  allVoters */\n      0x08\n        /* \"Qvoting.sol\":4267:4284  allVoters[_voter] */\n      0x00\n        /* \"Qvoting.sol\":4277:4283  _voter */\n      dup7\n        /* \"Qvoting.sol\":4267:4284  allVoters[_voter] */\n      0xffffffffffffffffffffffffffffffffffffffff\n      and\n      0xffffffffffffffffffffffffffffffffffffffff\n      and\n      dup2\n      mstore\n      0x20\n      add\n      swap1\n      dup2\n      mstore\n      0x20\n      add\n      0x00\n      keccak256\n        /* \"Qvoting.sol\":4267:4297  allVoters[_voter][_proposalId] */\n      0x00\n        /* \"Qvoting.sol\":4285:4296  _proposalId */\n      dup8\n        /* \"Qvoting.sol\":4267:4297  allVoters[_voter][_proposalId] */\n      dup2\n      mstore\n      0x20\n      add\n      swap1\n      dup2\n      mstore\n      0x20\n      add\n      0x00\n      keccak256\n        /* \"Qvoting.sol\":4267:4311  allVoters[_voter][_proposalId].updateVoteNum */\n      tag_159\n        /* \"Qvoting.sol\":4267:4313  allVoters[_voter][_proposalId].updateVoteNum() */\n      jump\t// in\n    tag_158:\n      pop\n        /* \"Qvoting.sol\":4366:4370  true */\n      0x01\n        /* \"Qvoting.sol\":4324:4333  allVoters */\n      0x08\n        /* \"Qvoting.sol\":4324:4341  allVoters[_voter] */\n      0x00\n        /* \"Qvoting.sol\":4334:4340  _voter */\n      dup7\n        /* \"Qvoting.sol\":4324:4341  allVoters[_voter] */\n      0xffffffffffffffffffffffffffffffffffffffff\n      and\n      0xffffffffffffffffffffffffffffffffffffffff\n      and\n      dup2\n      mstore\n      0x20\n      add\n      swap1\n      dup2\n      mstore\n      0x20\n      add\n      0x00\n      keccak256\n        /* \"Qvoting.sol\":4324:4354  allVoters[_voter][_proposalId] */\n      0x00\n        /* \"Qvoting.sol\":4342:4353  _proposalId */\n      dup8\n        /* \"Qvoting.sol\":4324:4354  allVoters[_voter][_proposalId] */\n      dup2\n      mstore\n      0x20\n      add\n      swap1\n      dup2\n      mstore\n      0x20\n      add\n      0x00\n      keccak256\n        /* \"Qvoting.sol\":4324:4363  allVoters[_voter][_proposalId].hasVoted */\n      0x01\n      add\n      0x14\n        /* \"Qvoting.sol\":4324:4370  allVoters[_voter][_proposalId].hasVoted = true */\n      0x0100\n      exp\n      dup2\n      sload\n      dup2\n      0xff\n      mul\n      not\n      and\n      swap1\n      dup4\n      iszero\n      iszero\n      mul\n      or\n      swap1\n      sstore\n      pop\n        /* \"Qvoting.sol\":4381:4425  burn(_voter,proposals[proposalId].voteRight) */\n      tag_160\n        /* \"Qvoting.sol\":4386:4392  _voter */\n      dup5\n        /* \"Qvoting.sol\":4393:4402  proposals */\n      0x07\n        /* \"Qvoting.sol\":4393:4414  proposals[proposalId] */\n      0x00\n        /* \"Qvoting.sol\":4403:4413  proposalId */\n      sload(0x05)\n        /* \"Qvoting.sol\":4393:4414  proposals[proposalId] */\n      dup2\n      mstore\n      0x20\n      add\n      swap1\n      dup2\n      mstore\n      0x20\n      add\n      0x00\n      keccak256\n        /* \"Qvoting.sol\":4393:4424  proposals[proposalId].voteRight */\n      0x05\n      add\n      sload\n        /* \"Qvoting.sol\":4381:4385  burn */\n      tag_161\n        /* \"Qvoting.sol\":4381:4425  burn(_voter,proposals[proposalId].voteRight) */\n      jump\t// in\n    tag_160:\n        /* \"Qvoting.sol\":4441:4501  mintAndburn(\"burn\", _voter, proposals[proposalId].voteRight) */\n      0xabf5327be9f5825c40d58bda541dd07f09b62df3376bbd5ecdbaa8bd82a9d492\n        /* \"Qvoting.sol\":4461:4467  _voter */\n      dup5\n        /* \"Qvoting.sol\":4469:4478  proposals */\n      0x07\n        /* \"Qvoting.sol\":4469:4490  proposals[proposalId] */\n      0x00\n        /* \"Qvoting.sol\":4479:4489  proposalId */\n      sload(0x05)\n        /* \"Qvoting.sol\":4469:4490  proposals[proposalId] */\n      dup2\n      mstore\n      0x20\n      add\n      swap1\n      dup2\n      mstore\n      0x20\n      add\n      0x00\n      keccak256\n        /* \"Qvoting.sol\":4469:4500  proposals[proposalId].voteRight */\n      0x05\n      add\n      sload\n        /* \"Qvoting.sol\":4441:4501  mintAndburn(\"burn\", _voter, proposals[proposalId].voteRight) */\n      mload(0x40)\n      tag_162\n      swap3\n      swap2\n      swap1\n      tag_163\n      jump\t// in\n    tag_162:\n      mload(0x40)\n      dup1\n      swap2\n      sub\n      swap1\n      log1\n        /* \"Qvoting.sol\":3379:4519  {\r... */\n      pop\n        /* \"Qvoting.sol\":3270:4519  function responseProposal(uint _proposalId, address _voter, string[] memory _hash, uint[] memory v) external {\r... */\n      pop\n      pop\n      pop\n      pop\n      jump\t// out\n        /* \"QvToken/ERC20.sol\":3493:3620  function balanceOf(address account) public view virtual override returns (uint256) {\r... */\n    tag_45:\n        /* \"QvToken/ERC20.sol\":3567:3574  uint256 */\n      0x00\n        /* \"QvToken/ERC20.sol\":3594:3603  _balances */\n      dup1\n        /* \"QvToken/ERC20.sol\":3594:3612  _balances[account] */\n      0x00\n        /* \"QvToken/ERC20.sol\":3604:3611  account */\n      dup4\n        /* \"QvToken/ERC20.sol\":3594:3612  _balances[account] */\n      0xffffffffffffffffffffffffffffffffffffffff\n      and\n      0xffffffffffffffffffffffffffffffffffffffff\n      and\n      dup2\n      mstore\n      0x20\n      add\n      swap1\n      dup2\n      mstore\n      0x20\n      add\n      0x00\n      keccak256\n      sload\n        /* \"QvToken/ERC20.sol\":3587:3612  return _balances[account] */\n      swap1\n      pop\n        /* \"QvToken/ERC20.sol\":3493:3620  function balanceOf(address account) public view virtual override returns (uint256) {\r... */\n      swap2\n      swap1\n      pop\n      jump\t// out\n        /* \"Qvoting.sol\":4971:5459  function mintOwner(uint _proposalId, address[] memory _voters, uint _voteRight) external returns(bool)\r... */\n    tag_50:\n        /* \"Qvoting.sol\":5068:5072  bool */\n      0x00\n        /* \"Qvoting.sol\":5098:5112  validProposals */\n      0x09\n        /* \"Qvoting.sol\":5098:5125  validProposals[_proposalId] */\n      0x00\n        /* \"Qvoting.sol\":5113:5124  _proposalId */\n      dup6\n        /* \"Qvoting.sol\":5098:5125  validProposals[_proposalId] */\n      dup2\n      mstore\n      0x20\n      add\n      swap1\n      dup2\n      mstore\n      0x20\n      add\n      0x00\n      keccak256\n      0x00\n      swap1\n      sload\n      swap1\n      0x0100\n      exp\n      swap1\n      div\n      0xff\n      and\n        /* \"Qvoting.sol\":5090:5150  require(validProposals[_proposalId],\"Proposal do not exist\") */\n      tag_166\n      jumpi\n      mload(0x40)\n      0x08c379a000000000000000000000000000000000000000000000000000000000\n      dup2\n      mstore\n      0x04\n      add\n      tag_167\n      swap1\n      tag_168\n      jump\t// in\n    tag_167:\n      mload(0x40)\n      dup1\n      swap2\n      sub\n      swap1\n      revert\n    tag_166:\n        /* \"Qvoting.sol\":5175:5184  uint256 i */\n      0x00\n        /* \"Qvoting.sol\":5171:5430  for(uint256 i=0;i<_voters.length;i++){\r... */\n    tag_169:\n        /* \"Qvoting.sol\":5189:5196  _voters */\n      dup4\n        /* \"Qvoting.sol\":5189:5203  _voters.length */\n      mload\n        /* \"Qvoting.sol\":5187:5188  i */\n      dup2\n        /* \"Qvoting.sol\":5187:5203  i<_voters.length */\n      lt\n        /* \"Qvoting.sol\":5171:5430  for(uint256 i=0;i<_voters.length;i++){\r... */\n      iszero\n      tag_170\n      jumpi\n        /* \"Qvoting.sol\":5223:5250  mint(_voters[i],_voteRight) */\n      tag_172\n        /* \"Qvoting.sol\":5228:5235  _voters */\n      dup5\n        /* \"Qvoting.sol\":5236:5237  i */\n      dup3\n        /* \"Qvoting.sol\":5228:5238  _voters[i] */\n      dup2\n      mload\n      dup2\n      lt\n      tag_173\n      jumpi\n      tag_174\n      tag_108\n      jump\t// in\n    tag_174:\n    tag_173:\n      0x20\n      mul\n      0x20\n      add\n      add\n      mload\n        /* \"Qvoting.sol\":5239:5249  _voteRight */\n      dup5\n        /* \"Qvoting.sol\":5223:5227  mint */\n      tag_109\n        /* \"Qvoting.sol\":5223:5250  mint(_voters[i],_voteRight) */\n      jump\t// in\n    tag_172:\n        /* \"Qvoting.sol\":5265:5353  allVoters[_voters[i]][proposalId].createVoter(proposalId, _voters[i], false, _voteRight) */\n      tag_175\n        /* \"Qvoting.sol\":5311:5321  proposalId */\n      sload(0x05)\n        /* \"Qvoting.sol\":5323:5330  _voters */\n      dup6\n        /* \"Qvoting.sol\":5331:5332  i */\n      dup4\n        /* \"Qvoting.sol\":5323:5333  _voters[i] */\n      dup2\n      mload\n      dup2\n      lt\n      tag_176\n      jumpi\n      tag_177\n      tag_108\n      jump\t// in\n    tag_177:\n    tag_176:\n      0x20\n      mul\n      0x20\n      add\n      add\n      mload\n        /* \"Qvoting.sol\":5335:5340  false */\n      0x00\n        /* \"Qvoting.sol\":5342:5352  _voteRight */\n      dup7\n        /* \"Qvoting.sol\":5265:5274  allVoters */\n      0x08\n        /* \"Qvoting.sol\":5265:5286  allVoters[_voters[i]] */\n      0x00\n        /* \"Qvoting.sol\":5275:5282  _voters */\n      dup11\n        /* \"Qvoting.sol\":5283:5284  i */\n      dup9\n        /* \"Qvoting.sol\":5275:5285  _voters[i] */\n      dup2\n      mload\n      dup2\n      lt\n      tag_178\n      jumpi\n      tag_179\n      tag_108\n      jump\t// in\n    tag_179:\n    tag_178:\n      0x20\n      mul\n      0x20\n      add\n      add\n      mload\n        /* \"Qvoting.sol\":5265:5286  allVoters[_voters[i]] */\n      0xffffffffffffffffffffffffffffffffffffffff\n      and\n      0xffffffffffffffffffffffffffffffffffffffff\n      and\n      dup2\n      mstore\n      0x20\n      add\n      swap1\n      dup2\n      mstore\n      0x20\n      add\n      0x00\n      keccak256\n        /* \"Qvoting.sol\":5265:5298  allVoters[_voters[i]][proposalId] */\n      0x00\n        /* \"Qvoting.sol\":5287:5297  proposalId */\n      sload(0x05)\n        /* \"Qvoting.sol\":5265:5298  allVoters[_voters[i]][proposalId] */\n      dup2\n      mstore\n      0x20\n      add\n      swap1\n      dup2\n      mstore\n      0x20\n      add\n      0x00\n      keccak256\n        /* \"Qvoting.sol\":5265:5310  allVoters[_voters[i]][proposalId].createVoter */\n      tag_115\n      swap1\n        /* \"Qvoting.sol\":5265:5353  allVoters[_voters[i]][proposalId].createVoter(proposalId, _voters[i], false, _voteRight) */\n      swap5\n      swap4\n      swap3\n      swap2\n      swap1\n      0xffffffff\n      and\n      jump\t// in\n    tag_175:\n      pop\n        /* \"Qvoting.sol\":5373:5414  mintAndburn(\"mint\",_voters[i],_voteRight) */\n      0xabf5327be9f5825c40d58bda541dd07f09b62df3376bbd5ecdbaa8bd82a9d492\n        /* \"Qvoting.sol\":5392:5399  _voters */\n      dup5\n        /* \"Qvoting.sol\":5400:5401  i */\n      dup3\n        /* \"Qvoting.sol\":5392:5402  _voters[i] */\n      dup2\n      mload\n      dup2\n      lt\n      tag_180\n      jumpi\n      tag_181\n      tag_108\n      jump\t// in\n    tag_181:\n    tag_180:\n      0x20\n      mul\n      0x20\n      add\n      add\n      mload\n        /* \"Qvoting.sol\":5403:5413  _voteRight */\n      dup5\n        /* \"Qvoting.sol\":5373:5414  mintAndburn(\"mint\",_voters[i],_voteRight) */\n      mload(0x40)\n      tag_182\n      swap3\n      swap2\n      swap1\n      tag_119\n      jump\t// in\n    tag_182:\n      mload(0x40)\n      dup1\n      swap2\n      sub\n      swap1\n      log1\n        /* \"Qvoting.sol\":5204:5207  i++ */\n      dup1\n      dup1\n      tag_183\n      swap1\n      tag_97\n      jump\t// in\n    tag_183:\n      swap2\n      pop\n      pop\n        /* \"Qvoting.sol\":5171:5430  for(uint256 i=0;i<_voters.length;i++){\r... */\n      jump(tag_169)\n    tag_170:\n      pop\n        /* \"Qvoting.sol\":5447:5451  true */\n      0x01\n        /* \"Qvoting.sol\":5440:5451  return true */\n      swap1\n      pop\n        /* \"Qvoting.sol\":4971:5459  function mintOwner(uint _proposalId, address[] memory _voters, uint _voteRight) external returns(bool)\r... */\n      swap4\n      swap3\n      pop\n      pop\n      pop\n      jump\t// out\n        /* \"QvToken/ERC20.sol\":2421:2525  function symbol() public view virtual override returns (string memory) {\r... */\n    tag_54:\n        /* \"QvToken/ERC20.sol\":2477:2490  string memory */\n      0x60\n        /* \"QvToken/ERC20.sol\":2510:2517  _symbol */\n      0x03\n        /* \"QvToken/ERC20.sol\":2503:2517  return _symbol */\n      dup1\n      sload\n      tag_185\n      swap1\n      tag_73\n      jump\t// in\n    tag_185:\n      dup1\n      0x1f\n      add\n      0x20\n      dup1\n      swap2\n      div\n      mul\n      0x20\n      add\n      mload(0x40)\n      swap1\n      dup2\n      add\n      0x40\n      mstore\n      dup1\n      swap3\n      swap2\n      swap1\n      dup2\n      dup2\n      mstore\n      0x20\n      add\n      dup3\n      dup1\n      sload\n      tag_186\n      swap1\n      tag_73\n      jump\t// in\n    tag_186:\n      dup1\n      iszero\n      tag_187\n      jumpi\n      dup1\n      0x1f\n      lt\n      tag_188\n      jumpi\n      0x0100\n      dup1\n      dup4\n      sload\n      div\n      mul\n      dup4\n      mstore\n      swap2\n      0x20\n      add\n      swap2\n      jump(tag_187)\n    tag_188:\n      dup3\n      add\n      swap2\n      swap1\n      0x00\n      mstore\n      keccak256(0x00, 0x20)\n      swap1\n    tag_189:\n      dup2\n      sload\n      dup2\n      mstore\n      swap1\n      0x01\n      add\n      swap1\n      0x20\n      add\n      dup1\n      dup4\n      gt\n      tag_189\n      jumpi\n      dup3\n      swap1\n      sub\n      0x1f\n      and\n      dup3\n      add\n      swap2\n    tag_187:\n      pop\n      pop\n      pop\n      pop\n      pop\n      swap1\n      pop\n        /* \"QvToken/ERC20.sol\":2421:2525  function symbol() public view virtual override returns (string memory) {\r... */\n      swap1\n      jump\t// out\n        /* \"Qvoting.sol\":4611:4965  function resultOfProposal(uint _proposalId) public view returns(uint, string memory){\r... */\n    tag_58:\n        /* \"Qvoting.sol\":4675:4679  uint */\n      0x00\n        /* \"Qvoting.sol\":4681:4694  string memory */\n      0x60\n        /* \"Qvoting.sol\":4714:4728  validProposals */\n      0x09\n        /* \"Qvoting.sol\":4714:4741  validProposals[_proposalId] */\n      0x00\n        /* \"Qvoting.sol\":4729:4740  _proposalId */\n      dup5\n        /* \"Qvoting.sol\":4714:4741  validProposals[_proposalId] */\n      dup2\n      mstore\n      0x20\n      add\n      swap1\n      dup2\n      mstore\n      0x20\n      add\n      0x00\n      keccak256\n      0x00\n      swap1\n      sload\n      swap1\n      0x0100\n      exp\n      swap1\n      div\n      0xff\n      and\n        /* \"Qvoting.sol\":4706:4765  require(validProposals[_proposalId],\"not a valid proposal\") */\n      tag_191\n      jumpi\n      mload(0x40)\n      0x08c379a000000000000000000000000000000000000000000000000000000000\n      dup2\n      mstore\n      0x04\n      add\n      tag_192\n      swap1\n      tag_193\n      jump\t// in\n    tag_192:\n      mload(0x40)\n      dup1\n      swap2\n      sub\n      swap1\n      revert\n    tag_191:\n        /* \"Qvoting.sol\":4859:4868  proposals */\n      0x07\n        /* \"Qvoting.sol\":4859:4881  proposals[_proposalId] */\n      0x00\n        /* \"Qvoting.sol\":4869:4880  _proposalId */\n      dup5\n        /* \"Qvoting.sol\":4859:4881  proposals[_proposalId] */\n      dup2\n      mstore\n      0x20\n      add\n      swap1\n      dup2\n      mstore\n      0x20\n      add\n      0x00\n      keccak256\n        /* \"Qvoting.sol\":4859:4887  proposals[_proposalId].votes */\n      0x0a\n      add\n        /* \"Qvoting.sol\":4888:4897  proposals */\n      0x07\n        /* \"Qvoting.sol\":4888:4910  proposals[_proposalId] */\n      0x00\n        /* \"Qvoting.sol\":4898:4909  _proposalId */\n      dup6\n        /* \"Qvoting.sol\":4888:4910  proposals[_proposalId] */\n      dup2\n      mstore\n      0x20\n      add\n      swap1\n      dup2\n      mstore\n      0x20\n      add\n      0x00\n      keccak256\n        /* \"Qvoting.sol\":4888:4917  proposals[_proposalId].result */\n      0x09\n      add\n        /* \"Qvoting.sol\":4888:4920  proposals[_proposalId].result[1] */\n      0x00\n        /* \"Qvoting.sol\":4918:4919  1 */\n      0x01\n        /* \"Qvoting.sol\":4888:4920  proposals[_proposalId].result[1] */\n      dup2\n      mstore\n      0x20\n      add\n      swap1\n      dup2\n      mstore\n      0x20\n      add\n      0x00\n      keccak256\n        /* \"Qvoting.sol\":4859:4921  proposals[_proposalId].votes[proposals[_proposalId].result[1]] */\n      mload(0x40)\n      tag_194\n      swap2\n      swap1\n      tag_195\n      jump\t// in\n    tag_194:\n      swap1\n      dup2\n      mstore\n      0x20\n      add\n      mload(0x40)\n      dup1\n      swap2\n      sub\n      swap1\n      keccak256\n      sload\n        /* \"Qvoting.sol\":4922:4931  proposals */\n      0x07\n        /* \"Qvoting.sol\":4922:4944  proposals[_proposalId] */\n      0x00\n        /* \"Qvoting.sol\":4932:4943  _proposalId */\n      dup6\n        /* \"Qvoting.sol\":4922:4944  proposals[_proposalId] */\n      dup2\n      mstore\n      0x20\n      add\n      swap1\n      dup2\n      mstore\n      0x20\n      add\n      0x00\n      keccak256\n        /* \"Qvoting.sol\":4922:4951  proposals[_proposalId].result */\n      0x09\n      add\n        /* \"Qvoting.sol\":4922:4954  proposals[_proposalId].result[1] */\n      0x00\n        /* \"Qvoting.sol\":4952:4953  1 */\n      0x01\n        /* \"Qvoting.sol\":4922:4954  proposals[_proposalId].result[1] */\n      dup2\n      mstore\n      0x20\n      add\n      swap1\n      dup2\n      mstore\n      0x20\n      add\n      0x00\n      keccak256\n        /* \"Qvoting.sol\":4851:4955  return (proposals[_proposalId].votes[proposals[_proposalId].result[1]],proposals[_proposalId].result[1]) */\n      dup1\n      dup1\n      sload\n      tag_196\n      swap1\n      tag_73\n      jump\t// in\n    tag_196:\n      dup1\n      0x1f\n      add\n      0x20\n      dup1\n      swap2\n      div\n      mul\n      0x20\n      add\n      mload(0x40)\n      swap1\n      dup2\n      add\n      0x40\n      mstore\n      dup1\n      swap3\n      swap2\n      swap1\n      dup2\n      dup2\n      mstore\n      0x20\n      add\n      dup3\n      dup1\n      sload\n      tag_197\n      swap1\n      tag_73\n      jump\t// in\n    tag_197:\n      dup1\n      iszero\n      tag_198\n      jumpi\n      dup1\n      0x1f\n      lt\n      tag_199\n      jumpi\n      0x0100\n      dup1\n      dup4\n      sload\n      div\n      mul\n      dup4\n      mstore\n      swap2\n      0x20\n      add\n      swap2\n      jump(tag_198)\n    tag_199:\n      dup3\n      add\n      swap2\n      swap1\n      0x00\n      mstore\n      keccak256(0x00, 0x20)\n      swap1\n    tag_200:\n      dup2\n      sload\n      dup2\n      mstore\n      swap1\n      0x01\n      add\n      swap1\n      0x20\n      add\n      dup1\n      dup4\n      gt\n      tag_200\n      jumpi\n      dup3\n      swap1\n      sub\n      0x1f\n      and\n      dup3\n      add\n      swap2\n    tag_198:\n      pop\n      pop\n      pop\n      pop\n      pop\n      swap1\n      pop\n      swap2\n      pop\n      swap2\n      pop\n        /* \"Qvoting.sol\":4611:4965  function resultOfProposal(uint _proposalId) public view returns(uint, string memory){\r... */\n      swap2\n      pop\n      swap2\n      jump\t// out\n        /* \"Qvoting.sol\":1400:1472  mapping(address => mapping(uint => voterLibrary.voter)) public allVoters */\n    tag_64:\n      mstore(0x20, 0x08)\n      dup2\n      0x00\n      mstore\n      mstore(0x20, keccak256(0x00, 0x40))\n      dup1\n      0x00\n      mstore\n      keccak256(0x00, 0x40)\n      0x00\n      swap2\n      pop\n      swap2\n      pop\n      pop\n      dup1\n      0x00\n      add\n      sload\n      swap1\n      dup1\n      0x01\n      add\n      0x00\n      swap1\n      sload\n      swap1\n      0x0100\n      exp\n      swap1\n      div\n      0xffffffffffffffffffffffffffffffffffffffff\n      and\n      swap1\n      dup1\n      0x01\n      add\n      0x14\n      swap1\n      sload\n      swap1\n      0x0100\n      exp\n      swap1\n      div\n      0xff\n      and\n      swap1\n      dup1\n      0x02\n      add\n      sload\n      swap1\n      pop\n      dup5\n      jump\t// out\n        /* \"Qvoting.sol\":1201:1273  mapping(address => UserProposalLibrary.UserProposal) public userProposal */\n    tag_69:\n      mstore(0x20, 0x06)\n      dup1\n      0x00\n      mstore\n      keccak256(0x00, 0x40)\n      0x00\n      swap2\n      pop\n      swap1\n      pop\n      dup1\n      0x00\n      add\n      0x00\n      swap1\n      sload\n      swap1\n      0x0100\n      exp\n      swap1\n      div\n      0xffffffffffffffffffffffffffffffff\n      and\n      swap1\n      dup1\n      0x00\n      add\n      0x10\n      swap1\n      sload\n      swap1\n      0x0100\n      exp\n      swap1\n      div\n      0xffffffffffffffffffffffffffffffff\n      and\n      swap1\n      pop\n      dup3\n      jump\t// out\n        /* \"Library/ProposalLibrary.sol\":806:1983  function createProposal(proposal storage self, uint8 _status, address[] memory _voters, address _creator,\r... */\n    tag_99:\n        /* \"Library/ProposalLibrary.sol\":1044:1048  bool */\n      0x00\n        /* \"Library/ProposalLibrary.sol\":1099:1107  _creator */\n      dup8\n        /* \"Library/ProposalLibrary.sol\":1084:1088  self */\n      dup12\n        /* \"Library/ProposalLibrary.sol\":1084:1096  self.creator */\n      0x00\n      add\n      0x00\n        /* \"Library/ProposalLibrary.sol\":1084:1107  self.creator = _creator */\n      0x0100\n      exp\n      dup2\n      sload\n      dup2\n      0xffffffffffffffffffffffffffffffffffffffff\n      mul\n      not\n      and\n      swap1\n      dup4\n      0xffffffffffffffffffffffffffffffffffffffff\n      and\n      mul\n      or\n      swap1\n      sstore\n      pop\n        /* \"Library/ProposalLibrary.sol\":1156:1163  _status */\n      dup10\n        /* \"Library/ProposalLibrary.sol\":1142:1146  self */\n      dup12\n        /* \"Library/ProposalLibrary.sol\":1142:1153  self.status */\n      0x00\n      add\n      0x14\n        /* \"Library/ProposalLibrary.sol\":1142:1163  self.status = _status */\n      0x0100\n      exp\n      dup2\n      sload\n      dup2\n      0xff\n      mul\n      not\n      and\n      swap1\n      dup4\n      0xff\n      and\n      mul\n      or\n      swap1\n      sstore\n      pop\n        /* \"Library/ProposalLibrary.sol\":1210:1215  _disc */\n      dup5\n        /* \"Library/ProposalLibrary.sol\":1198:1202  self */\n      dup12\n        /* \"Library/ProposalLibrary.sol\":1198:1207  self.disc */\n      0x01\n      add\n        /* \"Library/ProposalLibrary.sol\":1198:1215  self.disc = _disc */\n      swap1\n      dup1\n      mload\n      swap1\n      0x20\n      add\n      swap1\n      tag_202\n      swap3\n      swap2\n      swap1\n      tag_203\n      jump\t// in\n    tag_202:\n      pop\n        /* \"Library/ProposalLibrary.sol\":1267:1277  _startTime */\n      dup7\n        /* \"Library/ProposalLibrary.sol\":1250:1254  self */\n      dup12\n        /* \"Library/ProposalLibrary.sol\":1250:1264  self.startTime */\n      0x02\n      add\n        /* \"Library/ProposalLibrary.sol\":1250:1277  self.startTime = _startTime */\n      dup2\n      swap1\n      sstore\n      pop\n        /* \"Library/ProposalLibrary.sol\":1334:1349  _expirationTime */\n      dup6\n        /* \"Library/ProposalLibrary.sol\":1312:1316  self */\n      dup12\n        /* \"Library/ProposalLibrary.sol\":1312:1331  self.expirationTime */\n      0x03\n      add\n        /* \"Library/ProposalLibrary.sol\":1312:1349  self.expirationTime = _expirationTime */\n      dup2\n      swap1\n      sstore\n      pop\n        /* \"Library/ProposalLibrary.sol\":1411:1416  _cand */\n      dup3\n      dup3\n        /* \"Library/ProposalLibrary.sol\":1411:1423  _cand.length */\n      swap1\n      pop\n        /* \"Library/ProposalLibrary.sol\":1384:1388  self */\n      dup12\n        /* \"Library/ProposalLibrary.sol\":1384:1401  self.numOfOptions */\n      0x04\n      add\n      0x00\n        /* \"Library/ProposalLibrary.sol\":1384:1424  self.numOfOptions = uint16(_cand.length) */\n      0x0100\n      exp\n      dup2\n      sload\n      dup2\n      0xffff\n      mul\n      not\n      and\n      swap1\n      dup4\n      0xffff\n      and\n      mul\n      or\n      swap1\n      sstore\n      pop\n        /* \"Library/ProposalLibrary.sol\":1476:1486  _voteRight */\n      dup4\n        /* \"Library/ProposalLibrary.sol\":1459:1463  self */\n      dup12\n        /* \"Library/ProposalLibrary.sol\":1459:1473  self.voteRight */\n      0x05\n      add\n        /* \"Library/ProposalLibrary.sol\":1459:1486  self.voteRight = _voteRight */\n      dup2\n      swap1\n      sstore\n      pop\n        /* \"Library/ProposalLibrary.sol\":1525:1534  uint256 i */\n      0x00\n        /* \"Library/ProposalLibrary.sol\":1521:1726  for(uint256 i=0;i<_cand.length;i++){\r... */\n    tag_204:\n        /* \"Library/ProposalLibrary.sol\":1539:1544  _cand */\n      dup4\n      dup4\n        /* \"Library/ProposalLibrary.sol\":1539:1551  _cand.length */\n      swap1\n      pop\n        /* \"Library/ProposalLibrary.sol\":1537:1538  i */\n      dup2\n        /* \"Library/ProposalLibrary.sol\":1537:1551  i<_cand.length */\n      lt\n        /* \"Library/ProposalLibrary.sol\":1521:1726  for(uint256 i=0;i<_cand.length;i++){\r... */\n      iszero\n      tag_205\n      jumpi\n        /* \"Library/ProposalLibrary.sol\":1617:1621  true */\n      0x01\n        /* \"Library/ProposalLibrary.sol\":1595:1599  self */\n      dup13\n        /* \"Library/ProposalLibrary.sol\":1595:1604  self.cand */\n      0x07\n      add\n        /* \"Library/ProposalLibrary.sol\":1605:1610  _cand */\n      dup6\n      dup6\n        /* \"Library/ProposalLibrary.sol\":1611:1612  i */\n      dup5\n        /* \"Library/ProposalLibrary.sol\":1605:1613  _cand[i] */\n      dup2\n      dup2\n      lt\n      tag_207\n      jumpi\n      tag_208\n      tag_108\n      jump\t// in\n    tag_208:\n    tag_207:\n      swap1\n      pop\n      0x20\n      mul\n      dup2\n      add\n      swap1\n      tag_209\n      swap2\n      swap1\n      tag_210\n      jump\t// in\n    tag_209:\n        /* \"Library/ProposalLibrary.sol\":1595:1614  self.cand[_cand[i]] */\n      mload(0x40)\n      tag_211\n      swap3\n      swap2\n      swap1\n      tag_212\n      jump\t// in\n    tag_211:\n      swap1\n      dup2\n      mstore\n      0x20\n      add\n      mload(0x40)\n      dup1\n      swap2\n      sub\n      swap1\n      keccak256\n      0x00\n        /* \"Library/ProposalLibrary.sol\":1595:1621  self.cand[_cand[i]] = true */\n      0x0100\n      exp\n      dup2\n      sload\n      dup2\n      0xff\n      mul\n      not\n      and\n      swap1\n      dup4\n      iszero\n      iszero\n      mul\n      or\n      swap1\n      sstore\n      pop\n        /* \"Library/ProposalLibrary.sol\":1682:1687  _cand */\n      dup4\n      dup4\n        /* \"Library/ProposalLibrary.sol\":1688:1689  i */\n      dup3\n        /* \"Library/ProposalLibrary.sol\":1682:1690  _cand[i] */\n      dup2\n      dup2\n      lt\n      tag_213\n      jumpi\n      tag_214\n      tag_108\n      jump\t// in\n    tag_214:\n    tag_213:\n      swap1\n      pop\n      0x20\n      mul\n      dup2\n      add\n      swap1\n      tag_215\n      swap2\n      swap1\n      tag_210\n      jump\t// in\n    tag_215:\n        /* \"Library/ProposalLibrary.sol\":1660:1664  self */\n      dup14\n        /* \"Library/ProposalLibrary.sol\":1660:1673  self.candHash */\n      0x08\n      add\n        /* \"Library/ProposalLibrary.sol\":1660:1678  self.candHash[i+1] */\n      0x00\n        /* \"Library/ProposalLibrary.sol\":1676:1677  1 */\n      0x01\n        /* \"Library/ProposalLibrary.sol\":1674:1675  i */\n      dup6\n        /* \"Library/ProposalLibrary.sol\":1674:1677  i+1 */\n      tag_216\n      swap2\n      swap1\n      tag_148\n      jump\t// in\n    tag_216:\n        /* \"Library/ProposalLibrary.sol\":1660:1678  self.candHash[i+1] */\n      dup2\n      mstore\n      0x20\n      add\n      swap1\n      dup2\n      mstore\n      0x20\n      add\n      0x00\n      keccak256\n        /* \"Library/ProposalLibrary.sol\":1660:1690  self.candHash[i+1] =  _cand[i] */\n      swap2\n      swap1\n      tag_217\n      swap3\n      swap2\n      swap1\n      tag_218\n      jump\t// in\n    tag_217:\n      pop\n        /* \"Library/ProposalLibrary.sol\":1552:1555  i++ */\n      dup1\n      dup1\n      tag_219\n      swap1\n      tag_97\n      jump\t// in\n    tag_219:\n      swap2\n      pop\n      pop\n        /* \"Library/ProposalLibrary.sol\":1521:1726  for(uint256 i=0;i<_cand.length;i++){\r... */\n      jump(tag_204)\n    tag_205:\n      pop\n        /* \"Library/ProposalLibrary.sol\":1764:1773  uint256 i */\n      0x00\n        /* \"Library/ProposalLibrary.sol\":1760:1902  for(uint256 i=0;i<_voters.length;i++){\r... */\n    tag_220:\n        /* \"Library/ProposalLibrary.sol\":1778:1785  _voters */\n      dup10\n        /* \"Library/ProposalLibrary.sol\":1778:1792  _voters.length */\n      mload\n        /* \"Library/ProposalLibrary.sol\":1776:1777  i */\n      dup2\n        /* \"Library/ProposalLibrary.sol\":1776:1792  i<_voters.length */\n      lt\n        /* \"Library/ProposalLibrary.sol\":1760:1902  for(uint256 i=0;i<_voters.length;i++){\r... */\n      iszero\n      tag_221\n      jumpi\n        /* \"Library/ProposalLibrary.sol\":1862:1866  true */\n      0x01\n        /* \"Library/ProposalLibrary.sol\":1836:1840  self */\n      dup13\n        /* \"Library/ProposalLibrary.sol\":1836:1847  self.voters */\n      0x06\n      add\n        /* \"Library/ProposalLibrary.sol\":1836:1859  self.voters[_voters[i]] */\n      0x00\n        /* \"Library/ProposalLibrary.sol\":1848:1855  _voters */\n      dup13\n        /* \"Library/ProposalLibrary.sol\":1856:1857  i */\n      dup5\n        /* \"Library/ProposalLibrary.sol\":1848:1858  _voters[i] */\n      dup2\n      mload\n      dup2\n      lt\n      tag_223\n      jumpi\n      tag_224\n      tag_108\n      jump\t// in\n    tag_224:\n    tag_223:\n      0x20\n      mul\n      0x20\n      add\n      add\n      mload\n        /* \"Library/ProposalLibrary.sol\":1836:1859  self.voters[_voters[i]] */\n      0xffffffffffffffffffffffffffffffffffffffff\n      and\n      0xffffffffffffffffffffffffffffffffffffffff\n      and\n      dup2\n      mstore\n      0x20\n      add\n      swap1\n      dup2\n      mstore\n      0x20\n      add\n      0x00\n      keccak256\n      0x00\n        /* \"Library/ProposalLibrary.sol\":1836:1866  self.voters[_voters[i]] = true */\n      0x0100\n      exp\n      dup2\n      sload\n      dup2\n      0xff\n      mul\n      not\n      and\n      swap1\n      dup4\n      iszero\n      iszero\n      mul\n      or\n      swap1\n      sstore\n      pop\n        /* \"Library/ProposalLibrary.sol\":1793:1796  i++ */\n      dup1\n      dup1\n      tag_225\n      swap1\n      tag_97\n      jump\t// in\n    tag_225:\n      swap2\n      pop\n      pop\n        /* \"Library/ProposalLibrary.sol\":1760:1902  for(uint256 i=0;i<_voters.length;i++){\r... */\n      jump(tag_220)\n    tag_221:\n      pop\n        /* \"Library/ProposalLibrary.sol\":1945:1949  true */\n      0x01\n        /* \"Library/ProposalLibrary.sol\":1938:1949  return true */\n      swap1\n      pop\n        /* \"Library/ProposalLibrary.sol\":806:1983  function createProposal(proposal storage self, uint8 _status, address[] memory _voters, address _creator,\r... */\n      swap11\n      swap10\n      pop\n      pop\n      pop\n      pop\n      pop\n      pop\n      pop\n      pop\n      pop\n      pop\n      jump\t// out\n        /* \"QvToken/QvToken.sol\":398:502  function mint(address to , uint amount) onlyOwner(_msgSender()) internal {\r... */\n    tag_109:\n        /* \"QvToken/QvToken.sol\":448:460  _msgSender() */\n      tag_226\n        /* \"QvToken/QvToken.sol\":448:458  _msgSender */\n      tag_123\n        /* \"QvToken/QvToken.sol\":448:460  _msgSender() */\n      jump\t// in\n    tag_226:\n        /* \"QvToken/QvToken.sol\":366:375  msgSender */\n      dup1\n        /* \"QvToken/QvToken.sol\":357:375  owner == msgSender */\n      0xffffffffffffffffffffffffffffffffffffffff\n      and\n        /* \"QvToken/QvToken.sol\":357:362  owner */\n      0x04\n      0x00\n      swap1\n      sload\n      swap1\n      0x0100\n      exp\n      swap1\n      div\n      0xffffffffffffffffffffffffffffffffffffffff\n      and\n        /* \"QvToken/QvToken.sol\":357:375  owner == msgSender */\n      0xffffffffffffffffffffffffffffffffffffffff\n      and\n      eq\n        /* \"QvToken/QvToken.sol\":349:376  require(owner == msgSender) */\n      tag_228\n      jumpi\n      0x00\n      dup1\n      revert\n    tag_228:\n        /* \"QvToken/QvToken.sol\":478:494  _mint(to,amount) */\n      tag_230\n        /* \"QvToken/QvToken.sol\":484:486  to */\n      dup4\n        /* \"QvToken/QvToken.sol\":487:493  amount */\n      dup4\n        /* \"QvToken/QvToken.sol\":478:483  _mint */\n      tag_231\n        /* \"QvToken/QvToken.sol\":478:494  _mint(to,amount) */\n      jump\t// in\n    tag_230:\n        /* \"QvToken/QvToken.sol\":398:502  function mint(address to , uint amount) onlyOwner(_msgSender()) internal {\r... */\n      pop\n      pop\n      pop\n      jump\t// out\n        /* \"Library/VoterLibrary.sol\":1090:1525  function createVoter(voter storage self, uint _proposalId, address _voterAddress, bool _hasVoted, uint _voteNum) internal returns(bool){\r... */\n    tag_115:\n        /* \"Library/VoterLibrary.sol\":1220:1224  bool */\n      0x00\n        /* \"Library/VoterLibrary.sol\":1278:1289  _proposalId */\n      dup5\n        /* \"Library/VoterLibrary.sol\":1260:1264  self */\n      dup7\n        /* \"Library/VoterLibrary.sol\":1260:1275  self.proposalId */\n      0x00\n      add\n        /* \"Library/VoterLibrary.sol\":1260:1289  self.proposalId = _proposalId */\n      dup2\n      swap1\n      sstore\n      pop\n        /* \"Library/VoterLibrary.sol\":1344:1357  _voterAddress */\n      dup4\n        /* \"Library/VoterLibrary.sol\":1324:1328  self */\n      dup7\n        /* \"Library/VoterLibrary.sol\":1324:1341  self.voterAddress */\n      0x01\n      add\n      0x00\n        /* \"Library/VoterLibrary.sol\":1324:1357  self.voterAddress = _voterAddress */\n      0x0100\n      exp\n      dup2\n      sload\n      dup2\n      0xffffffffffffffffffffffffffffffffffffffff\n      mul\n      not\n      and\n      swap1\n      dup4\n      0xffffffffffffffffffffffffffffffffffffffff\n      and\n      mul\n      or\n      swap1\n      sstore\n      pop\n        /* \"Library/VoterLibrary.sol\":1408:1417  _hasVoted */\n      dup3\n        /* \"Library/VoterLibrary.sol\":1392:1396  self */\n      dup7\n        /* \"Library/VoterLibrary.sol\":1392:1405  self.hasVoted */\n      0x01\n      add\n      0x14\n        /* \"Library/VoterLibrary.sol\":1392:1417  self.hasVoted = _hasVoted */\n      0x0100\n      exp\n      dup2\n      sload\n      dup2\n      0xff\n      mul\n      not\n      and\n      swap1\n      dup4\n      iszero\n      iszero\n      mul\n      or\n      swap1\n      sstore\n      pop\n        /* \"Library/VoterLibrary.sol\":1467:1475  _voteNum */\n      dup2\n        /* \"Library/VoterLibrary.sol\":1452:1456  self */\n      dup7\n        /* \"Library/VoterLibrary.sol\":1452:1464  self.voteNum */\n      0x02\n      add\n        /* \"Library/VoterLibrary.sol\":1452:1475  self.voteNum = _voteNum */\n      dup2\n      swap1\n      sstore\n      pop\n        /* \"Library/VoterLibrary.sol\":1517:1521  true */\n      0x01\n        /* \"Library/VoterLibrary.sol\":1510:1521  return true */\n      swap1\n      pop\n        /* \"Library/VoterLibrary.sol\":1090:1525  function createVoter(voter storage self, uint _proposalId, address _voterAddress, bool _hasVoted, uint _voteNum) internal returns(bool){\r... */\n      swap6\n      swap5\n      pop\n      pop\n      pop\n      pop\n      pop\n      jump\t// out\n        /* \"QvToken/Context.sol\":656:754  function _msgSender() internal view virtual returns (address) {\r... */\n    tag_123:\n        /* \"QvToken/Context.sol\":709:716  address */\n      0x00\n        /* \"QvToken/Context.sol\":736:746  msg.sender */\n      caller\n        /* \"QvToken/Context.sol\":729:746  return msg.sender */\n      swap1\n      pop\n        /* \"QvToken/Context.sol\":656:754  function _msgSender() internal view virtual returns (address) {\r... */\n      swap1\n      jump\t// out\n        /* \"Library/UserProposalLibrary.sol\":573:794  function updateProposalList(UserProposal storage self, uint _proposalId) internal returns(bool){\r... */\n    tag_124:\n        /* \"Library/UserProposalLibrary.sol\":663:667  bool */\n      0x00\n        /* \"Library/UserProposalLibrary.sol\":679:683  self */\n      dup3\n        /* \"Library/UserProposalLibrary.sol\":679:697  self.proposalCount */\n      0x00\n      add\n      0x00\n        /* \"Library/UserProposalLibrary.sol\":679:699  self.proposalCount++ */\n      dup2\n      dup2\n      swap1\n      sload\n      swap1\n      0x0100\n      exp\n      swap1\n      div\n      0xffffffffffffffffffffffffffffffff\n      and\n      dup1\n      swap3\n      swap2\n      swap1\n      tag_235\n      swap1\n      tag_236\n      jump\t// in\n    tag_235:\n      swap2\n      swap1\n      0x0100\n      exp\n      dup2\n      sload\n      dup2\n      0xffffffffffffffffffffffffffffffff\n      mul\n      not\n      and\n      swap1\n      dup4\n      0xffffffffffffffffffffffffffffffff\n      and\n      mul\n      or\n      swap1\n      sstore\n      pop\n      pop\n        /* \"Library/UserProposalLibrary.sol\":753:764  _proposalId */\n      dup2\n        /* \"Library/UserProposalLibrary.sol\":710:714  self */\n      dup4\n        /* \"Library/UserProposalLibrary.sol\":710:730  self.proposalCreated */\n      0x01\n      add\n        /* \"Library/UserProposalLibrary.sol\":710:750  self.proposalCreated[self.proposalCount] */\n      0x00\n        /* \"Library/UserProposalLibrary.sol\":731:735  self */\n      dup6\n        /* \"Library/UserProposalLibrary.sol\":731:749  self.proposalCount */\n      0x00\n      add\n      0x00\n      swap1\n      sload\n      swap1\n      0x0100\n      exp\n      swap1\n      div\n      0xffffffffffffffffffffffffffffffff\n      and\n        /* \"Library/UserProposalLibrary.sol\":710:750  self.proposalCreated[self.proposalCount] */\n      0xffffffffffffffffffffffffffffffff\n      and\n      0xffffffffffffffffffffffffffffffff\n      and\n      dup2\n      mstore\n      0x20\n      add\n      swap1\n      dup2\n      mstore\n      0x20\n      add\n      0x00\n      keccak256\n        /* \"Library/UserProposalLibrary.sol\":710:764  self.proposalCreated[self.proposalCount] = _proposalId */\n      dup2\n      swap1\n      sstore\n      pop\n        /* \"Library/UserProposalLibrary.sol\":782:786  true */\n      0x01\n        /* \"Library/UserProposalLibrary.sol\":775:786  return true */\n      swap1\n      pop\n        /* \"Library/UserProposalLibrary.sol\":573:794  function updateProposalList(UserProposal storage self, uint _proposalId) internal returns(bool){\r... */\n      swap3\n      swap2\n      pop\n      pop\n      jump\t// out\n        /* \"Library/ProposalLibrary.sol\":2018:3370  function responseProposal(proposal storage self, address _voter, string[] memory _hash, uint[] memory v) internal returns(bool){\r... */\n    tag_154:\n        /* \"Library/ProposalLibrary.sol\":2140:2144  bool */\n      0x00\n        /* \"Library/ProposalLibrary.sol\":2179:2180  2 */\n      0x02\n        /* \"Library/ProposalLibrary.sol\":2164:2168  self */\n      dup6\n        /* \"Library/ProposalLibrary.sol\":2164:2175  self.status */\n      0x00\n      add\n      0x14\n      swap1\n      sload\n      swap1\n      0x0100\n      exp\n      swap1\n      div\n      0xff\n      and\n        /* \"Library/ProposalLibrary.sol\":2164:2180  self.status == 2 */\n      0xff\n      and\n      eq\n        /* \"Library/ProposalLibrary.sol\":2156:2203  require(self.status == 2, \"Proposal: inactive\") */\n      tag_238\n      jumpi\n      mload(0x40)\n      0x08c379a000000000000000000000000000000000000000000000000000000000\n      dup2\n      mstore\n      0x04\n      add\n      tag_239\n      swap1\n      tag_240\n      jump\t// in\n    tag_239:\n      mload(0x40)\n      dup1\n      swap2\n      sub\n      swap1\n      revert\n    tag_238:\n        /* \"Library/ProposalLibrary.sol\":2235:2239  self */\n      dup5\n        /* \"Library/ProposalLibrary.sol\":2235:2254  self.expirationTime */\n      0x03\n      add\n      sload\n        /* \"Library/ProposalLibrary.sol\":2217:2232  block.timestamp */\n      timestamp\n        /* \"Library/ProposalLibrary.sol\":2217:2254  block.timestamp > self.expirationTime */\n      gt\n        /* \"Library/ProposalLibrary.sol\":2214:3069  if(block.timestamp > self.expirationTime){\r... */\n      iszero\n      tag_241\n      jumpi\n        /* \"Library/ProposalLibrary.sol\":2324:2325  2 */\n      0x02\n        /* \"Library/ProposalLibrary.sol\":2310:2314  self */\n      dup6\n        /* \"Library/ProposalLibrary.sol\":2310:2321  self.status */\n      0x00\n      add\n      0x14\n        /* \"Library/ProposalLibrary.sol\":2310:2325  self.status = 2 */\n      0x0100\n      exp\n      dup2\n      sload\n      dup2\n      0xff\n      mul\n      not\n      and\n      swap1\n      dup4\n      0xff\n      and\n      mul\n      or\n      swap1\n      sstore\n      pop\n        /* \"Library/ProposalLibrary.sol\":2340:2357  uint largestCount */\n      0x00\n        /* \"Library/ProposalLibrary.sol\":2360:2364  self */\n      dup6\n        /* \"Library/ProposalLibrary.sol\":2360:2370  self.votes */\n      0x0a\n      add\n        /* \"Library/ProposalLibrary.sol\":2371:2375  self */\n      dup7\n        /* \"Library/ProposalLibrary.sol\":2371:2384  self.candHash */\n      0x08\n      add\n        /* \"Library/ProposalLibrary.sol\":2371:2387  self.candHash[1] */\n      0x00\n        /* \"Library/ProposalLibrary.sol\":2385:2386  1 */\n      0x01\n        /* \"Library/ProposalLibrary.sol\":2371:2387  self.candHash[1] */\n      dup2\n      mstore\n      0x20\n      add\n      swap1\n      dup2\n      mstore\n      0x20\n      add\n      0x00\n      keccak256\n        /* \"Library/ProposalLibrary.sol\":2360:2388  self.votes[self.candHash[1]] */\n      mload(0x40)\n      tag_242\n      swap2\n      swap1\n      tag_195\n      jump\t// in\n    tag_242:\n      swap1\n      dup2\n      mstore\n      0x20\n      add\n      mload(0x40)\n      dup1\n      swap2\n      sub\n      swap1\n      keccak256\n      sload\n        /* \"Library/ProposalLibrary.sol\":2340:2388  uint largestCount = self.votes[self.candHash[1]] */\n      swap1\n      pop\n        /* \"Library/ProposalLibrary.sol\":2403:2419  uint winnerCount */\n      0x00\n        /* \"Library/ProposalLibrary.sol\":2422:2423  1 */\n      0x01\n        /* \"Library/ProposalLibrary.sol\":2403:2423  uint winnerCount = 1 */\n      swap1\n      pop\n        /* \"Library/ProposalLibrary.sol\":2455:2459  self */\n      dup7\n        /* \"Library/ProposalLibrary.sol\":2455:2468  self.candHash */\n      0x08\n      add\n        /* \"Library/ProposalLibrary.sol\":2455:2471  self.candHash[1] */\n      0x00\n        /* \"Library/ProposalLibrary.sol\":2469:2470  1 */\n      0x01\n        /* \"Library/ProposalLibrary.sol\":2455:2471  self.candHash[1] */\n      dup2\n      mstore\n      0x20\n      add\n      swap1\n      dup2\n      mstore\n      0x20\n      add\n      0x00\n      keccak256\n        /* \"Library/ProposalLibrary.sol\":2438:2442  self */\n      dup8\n        /* \"Library/ProposalLibrary.sol\":2438:2449  self.result */\n      0x09\n      add\n        /* \"Library/ProposalLibrary.sol\":2438:2452  self.result[1] */\n      0x00\n        /* \"Library/ProposalLibrary.sol\":2450:2451  1 */\n      0x01\n        /* \"Library/ProposalLibrary.sol\":2438:2452  self.result[1] */\n      dup2\n      mstore\n      0x20\n      add\n      swap1\n      dup2\n      mstore\n      0x20\n      add\n      0x00\n      keccak256\n        /* \"Library/ProposalLibrary.sol\":2438:2471  self.result[1] = self.candHash[1] */\n      swap1\n      dup1\n      sload\n      tag_243\n      swap1\n      tag_73\n      jump\t// in\n    tag_243:\n      tag_244\n      swap3\n      swap2\n      swap1\n      tag_245\n      jump\t// in\n    tag_244:\n      pop\n        /* \"Library/ProposalLibrary.sol\":2553:2561  uint16 i */\n      0x00\n        /* \"Library/ProposalLibrary.sol\":2564:2565  2 */\n      0x02\n        /* \"Library/ProposalLibrary.sol\":2553:2565  uint16 i = 2 */\n      swap1\n      pop\n        /* \"Library/ProposalLibrary.sol\":2549:3031  for(uint16 i = 2; i <= self.numOfOptions; i++){\r... */\n    tag_246:\n        /* \"Library/ProposalLibrary.sol\":2572:2576  self */\n      dup8\n        /* \"Library/ProposalLibrary.sol\":2572:2589  self.numOfOptions */\n      0x04\n      add\n      0x00\n      swap1\n      sload\n      swap1\n      0x0100\n      exp\n      swap1\n      div\n      0xffff\n      and\n        /* \"Library/ProposalLibrary.sol\":2567:2589  i <= self.numOfOptions */\n      0xffff\n      and\n        /* \"Library/ProposalLibrary.sol\":2567:2568  i */\n      dup2\n        /* \"Library/ProposalLibrary.sol\":2567:2589  i <= self.numOfOptions */\n      0xffff\n      and\n      gt\n        /* \"Library/ProposalLibrary.sol\":2549:3031  for(uint16 i = 2; i <= self.numOfOptions; i++){\r... */\n      tag_247\n      jumpi\n        /* \"Library/ProposalLibrary.sol\":2648:2660  largestCount */\n      dup3\n        /* \"Library/ProposalLibrary.sol\":2617:2621  self */\n      dup9\n        /* \"Library/ProposalLibrary.sol\":2617:2627  self.votes */\n      0x0a\n      add\n        /* \"Library/ProposalLibrary.sol\":2628:2632  self */\n      dup10\n        /* \"Library/ProposalLibrary.sol\":2628:2641  self.candHash */\n      0x08\n      add\n        /* \"Library/ProposalLibrary.sol\":2628:2644  self.candHash[i] */\n      0x00\n        /* \"Library/ProposalLibrary.sol\":2642:2643  i */\n      dup5\n        /* \"Library/ProposalLibrary.sol\":2628:2644  self.candHash[i] */\n      0xffff\n      and\n      dup2\n      mstore\n      0x20\n      add\n      swap1\n      dup2\n      mstore\n      0x20\n      add\n      0x00\n      keccak256\n        /* \"Library/ProposalLibrary.sol\":2617:2645  self.votes[self.candHash[i]] */\n      mload(0x40)\n      tag_249\n      swap2\n      swap1\n      tag_195\n      jump\t// in\n    tag_249:\n      swap1\n      dup2\n      mstore\n      0x20\n      add\n      mload(0x40)\n      dup1\n      swap2\n      sub\n      swap1\n      keccak256\n      sload\n        /* \"Library/ProposalLibrary.sol\":2617:2660  self.votes[self.candHash[i]] > largestCount */\n      gt\n        /* \"Library/ProposalLibrary.sol\":2614:3016  if(self.votes[self.candHash[i]] > largestCount){\r... */\n      iszero\n      tag_250\n      jumpi\n        /* \"Library/ProposalLibrary.sol\":2699:2703  self */\n      dup8\n        /* \"Library/ProposalLibrary.sol\":2699:2709  self.votes */\n      0x0a\n      add\n        /* \"Library/ProposalLibrary.sol\":2710:2714  self */\n      dup9\n        /* \"Library/ProposalLibrary.sol\":2710:2723  self.candHash */\n      0x08\n      add\n        /* \"Library/ProposalLibrary.sol\":2710:2726  self.candHash[i] */\n      0x00\n        /* \"Library/ProposalLibrary.sol\":2724:2725  i */\n      dup4\n        /* \"Library/ProposalLibrary.sol\":2710:2726  self.candHash[i] */\n      0xffff\n      and\n      dup2\n      mstore\n      0x20\n      add\n      swap1\n      dup2\n      mstore\n      0x20\n      add\n      0x00\n      keccak256\n        /* \"Library/ProposalLibrary.sol\":2699:2727  self.votes[self.candHash[i]] */\n      mload(0x40)\n      tag_251\n      swap2\n      swap1\n      tag_195\n      jump\t// in\n    tag_251:\n      swap1\n      dup2\n      mstore\n      0x20\n      add\n      mload(0x40)\n      dup1\n      swap2\n      sub\n      swap1\n      keccak256\n      sload\n        /* \"Library/ProposalLibrary.sol\":2684:2727  largestCount = self.votes[self.candHash[i]] */\n      swap3\n      pop\n        /* \"Library/ProposalLibrary.sol\":2764:2765  1 */\n      0x01\n        /* \"Library/ProposalLibrary.sol\":2750:2765  winnerCount = 1 */\n      swap2\n      pop\n        /* \"Library/ProposalLibrary.sol\":2805:2809  self */\n      dup8\n        /* \"Library/ProposalLibrary.sol\":2805:2818  self.candHash */\n      0x08\n      add\n        /* \"Library/ProposalLibrary.sol\":2805:2821  self.candHash[i] */\n      0x00\n        /* \"Library/ProposalLibrary.sol\":2819:2820  i */\n      dup3\n        /* \"Library/ProposalLibrary.sol\":2805:2821  self.candHash[i] */\n      0xffff\n      and\n      dup2\n      mstore\n      0x20\n      add\n      swap1\n      dup2\n      mstore\n      0x20\n      add\n      0x00\n      keccak256\n        /* \"Library/ProposalLibrary.sol\":2788:2792  self */\n      dup9\n        /* \"Library/ProposalLibrary.sol\":2788:2799  self.result */\n      0x09\n      add\n        /* \"Library/ProposalLibrary.sol\":2788:2802  self.result[1] */\n      0x00\n        /* \"Library/ProposalLibrary.sol\":2800:2801  1 */\n      0x01\n        /* \"Library/ProposalLibrary.sol\":2788:2802  self.result[1] */\n      dup2\n      mstore\n      0x20\n      add\n      swap1\n      dup2\n      mstore\n      0x20\n      add\n      0x00\n      keccak256\n        /* \"Library/ProposalLibrary.sol\":2788:2821  self.result[1] = self.candHash[i] */\n      swap1\n      dup1\n      sload\n      tag_252\n      swap1\n      tag_73\n      jump\t// in\n    tag_252:\n      tag_253\n      swap3\n      swap2\n      swap1\n      tag_245\n      jump\t// in\n    tag_253:\n      pop\n        /* \"Library/ProposalLibrary.sol\":2614:3016  if(self.votes[self.candHash[i]] > largestCount){\r... */\n      jump(tag_254)\n    tag_250:\n        /* \"Library/ProposalLibrary.sol\":2881:2893  largestCount */\n      dup3\n        /* \"Library/ProposalLibrary.sol\":2849:2853  self */\n      dup9\n        /* \"Library/ProposalLibrary.sol\":2849:2859  self.votes */\n      0x0a\n      add\n        /* \"Library/ProposalLibrary.sol\":2860:2864  self */\n      dup10\n        /* \"Library/ProposalLibrary.sol\":2860:2873  self.candHash */\n      0x08\n      add\n        /* \"Library/ProposalLibrary.sol\":2860:2876  self.candHash[i] */\n      0x00\n        /* \"Library/ProposalLibrary.sol\":2874:2875  i */\n      dup5\n        /* \"Library/ProposalLibrary.sol\":2860:2876  self.candHash[i] */\n      0xffff\n      and\n      dup2\n      mstore\n      0x20\n      add\n      swap1\n      dup2\n      mstore\n      0x20\n      add\n      0x00\n      keccak256\n        /* \"Library/ProposalLibrary.sol\":2849:2877  self.votes[self.candHash[i]] */\n      mload(0x40)\n      tag_255\n      swap2\n      swap1\n      tag_195\n      jump\t// in\n    tag_255:\n      swap1\n      dup2\n      mstore\n      0x20\n      add\n      mload(0x40)\n      dup1\n      swap2\n      sub\n      swap1\n      keccak256\n      sload\n        /* \"Library/ProposalLibrary.sol\":2849:2893  self.votes[self.candHash[i]] == largestCount */\n      eq\n        /* \"Library/ProposalLibrary.sol\":2846:3016  if(self.votes[self.candHash[i]] == largestCount){\r... */\n      iszero\n      tag_256\n      jumpi\n        /* \"Library/ProposalLibrary.sol\":2917:2930  winnerCount++ */\n      dup2\n      dup1\n      tag_257\n      swap1\n      tag_97\n      jump\t// in\n    tag_257:\n      swap3\n      pop\n      pop\n        /* \"Library/ProposalLibrary.sol\":2980:2984  self */\n      dup8\n        /* \"Library/ProposalLibrary.sol\":2980:2993  self.candHash */\n      0x08\n      add\n        /* \"Library/ProposalLibrary.sol\":2980:2996  self.candHash[i] */\n      0x00\n        /* \"Library/ProposalLibrary.sol\":2994:2995  i */\n      dup3\n        /* \"Library/ProposalLibrary.sol\":2980:2996  self.candHash[i] */\n      0xffff\n      and\n      dup2\n      mstore\n      0x20\n      add\n      swap1\n      dup2\n      mstore\n      0x20\n      add\n      0x00\n      keccak256\n        /* \"Library/ProposalLibrary.sol\":2953:2957  self */\n      dup9\n        /* \"Library/ProposalLibrary.sol\":2953:2964  self.result */\n      0x09\n      add\n        /* \"Library/ProposalLibrary.sol\":2953:2977  self.result[winnerCount] */\n      0x00\n        /* \"Library/ProposalLibrary.sol\":2965:2976  winnerCount */\n      dup5\n        /* \"Library/ProposalLibrary.sol\":2953:2977  self.result[winnerCount] */\n      dup2\n      mstore\n      0x20\n      add\n      swap1\n      dup2\n      mstore\n      0x20\n      add\n      0x00\n      keccak256\n        /* \"Library/ProposalLibrary.sol\":2953:2996  self.result[winnerCount] = self.candHash[i] */\n      swap1\n      dup1\n      sload\n      tag_258\n      swap1\n      tag_73\n      jump\t// in\n    tag_258:\n      tag_259\n      swap3\n      swap2\n      swap1\n      tag_245\n      jump\t// in\n    tag_259:\n      pop\n        /* \"Library/ProposalLibrary.sol\":2846:3016  if(self.votes[self.candHash[i]] == largestCount){\r... */\n    tag_256:\n        /* \"Library/ProposalLibrary.sol\":2614:3016  if(self.votes[self.candHash[i]] > largestCount){\r... */\n    tag_254:\n        /* \"Library/ProposalLibrary.sol\":2591:2594  i++ */\n      dup1\n      dup1\n      tag_260\n      swap1\n      tag_261\n      jump\t// in\n    tag_260:\n      swap2\n      pop\n      pop\n        /* \"Library/ProposalLibrary.sol\":2549:3031  for(uint16 i = 2; i <= self.numOfOptions; i++){\r... */\n      jump(tag_246)\n    tag_247:\n      pop\n        /* \"Library/ProposalLibrary.sol\":3052:3057  false */\n      0x00\n        /* \"Library/ProposalLibrary.sol\":3045:3057  return false */\n      swap3\n      pop\n      pop\n      pop\n      jump(tag_237)\n        /* \"Library/ProposalLibrary.sol\":2214:3069  if(block.timestamp > self.expirationTime){\r... */\n    tag_241:\n        /* \"Library/ProposalLibrary.sol\":3112:3116  self */\n      dup5\n        /* \"Library/ProposalLibrary.sol\":3112:3123  self.voters */\n      0x06\n      add\n        /* \"Library/ProposalLibrary.sol\":3112:3131  self.voters[_voter] */\n      0x00\n        /* \"Library/ProposalLibrary.sol\":3124:3130  _voter */\n      dup6\n        /* \"Library/ProposalLibrary.sol\":3112:3131  self.voters[_voter] */\n      0xffffffffffffffffffffffffffffffffffffffff\n      and\n      0xffffffffffffffffffffffffffffffffffffffff\n      and\n      dup2\n      mstore\n      0x20\n      add\n      swap1\n      dup2\n      mstore\n      0x20\n      add\n      0x00\n      keccak256\n      0x00\n      swap1\n      sload\n      swap1\n      0x0100\n      exp\n      swap1\n      div\n      0xff\n      and\n        /* \"Library/ProposalLibrary.sol\":3104:3171  require(self.voters[_voter], \"Not a valid voter for this proposal\") */\n      tag_262\n      jumpi\n      mload(0x40)\n      0x08c379a000000000000000000000000000000000000000000000000000000000\n      dup2\n      mstore\n      0x04\n      add\n      tag_263\n      swap1\n      tag_264\n      jump\t// in\n    tag_263:\n      mload(0x40)\n      dup1\n      swap2\n      sub\n      swap1\n      revert\n    tag_262:\n        /* \"Library/ProposalLibrary.sol\":3188:3196  uint16 i */\n      0x00\n        /* \"Library/ProposalLibrary.sol\":3184:3341  for(uint16 i=0;i<self.numOfOptions;i++){\r... */\n    tag_265:\n        /* \"Library/ProposalLibrary.sol\":3201:3205  self */\n      dup6\n        /* \"Library/ProposalLibrary.sol\":3201:3218  self.numOfOptions */\n      0x04\n      add\n      0x00\n      swap1\n      sload\n      swap1\n      0x0100\n      exp\n      swap1\n      div\n      0xffff\n      and\n        /* \"Library/ProposalLibrary.sol\":3199:3218  i<self.numOfOptions */\n      0xffff\n      and\n        /* \"Library/ProposalLibrary.sol\":3199:3200  i */\n      dup2\n        /* \"Library/ProposalLibrary.sol\":3199:3218  i<self.numOfOptions */\n      0xffff\n      and\n      lt\n        /* \"Library/ProposalLibrary.sol\":3184:3341  for(uint16 i=0;i<self.numOfOptions;i++){\r... */\n      iszero\n      tag_266\n      jumpi\n        /* \"Library/ProposalLibrary.sol\":3242:3246  self */\n      dup6\n        /* \"Library/ProposalLibrary.sol\":3242:3251  self.cand */\n      0x07\n      add\n        /* \"Library/ProposalLibrary.sol\":3252:3257  _hash */\n      dup5\n        /* \"Library/ProposalLibrary.sol\":3258:3259  i */\n      dup3\n        /* \"Library/ProposalLibrary.sol\":3252:3260  _hash[i] */\n      0xffff\n      and\n      dup2\n      mload\n      dup2\n      lt\n      tag_268\n      jumpi\n      tag_269\n      tag_108\n      jump\t// in\n    tag_269:\n    tag_268:\n      0x20\n      mul\n      0x20\n      add\n      add\n      mload\n        /* \"Library/ProposalLibrary.sol\":3242:3261  self.cand[_hash[i]] */\n      mload(0x40)\n      tag_270\n      swap2\n      swap1\n      tag_271\n      jump\t// in\n    tag_270:\n      swap1\n      dup2\n      mstore\n      0x20\n      add\n      mload(0x40)\n      dup1\n      swap2\n      sub\n      swap1\n      keccak256\n      0x00\n      swap1\n      sload\n      swap1\n      0x0100\n      exp\n      swap1\n      div\n      0xff\n      and\n        /* \"Library/ProposalLibrary.sol\":3234:3293  require(self.cand[_hash[i]], \"Proposal: invalid candidate\") */\n      tag_272\n      jumpi\n      mload(0x40)\n      0x08c379a000000000000000000000000000000000000000000000000000000000\n      dup2\n      mstore\n      0x04\n      add\n      tag_273\n      swap1\n      tag_274\n      jump\t// in\n    tag_273:\n      mload(0x40)\n      dup1\n      swap2\n      sub\n      swap1\n      revert\n    tag_272:\n        /* \"Library/ProposalLibrary.sol\":3325:3326  v */\n      dup3\n        /* \"Library/ProposalLibrary.sol\":3327:3328  i */\n      dup2\n        /* \"Library/ProposalLibrary.sol\":3325:3329  v[i] */\n      0xffff\n      and\n      dup2\n      mload\n      dup2\n      lt\n      tag_275\n      jumpi\n      tag_276\n      tag_108\n      jump\t// in\n    tag_276:\n    tag_275:\n      0x20\n      mul\n      0x20\n      add\n      add\n      mload\n        /* \"Library/ProposalLibrary.sol\":3304:3308  self */\n      dup7\n        /* \"Library/ProposalLibrary.sol\":3304:3314  self.votes */\n      0x0a\n      add\n        /* \"Library/ProposalLibrary.sol\":3315:3320  _hash */\n      dup6\n        /* \"Library/ProposalLibrary.sol\":3321:3322  i */\n      dup4\n        /* \"Library/ProposalLibrary.sol\":3315:3323  _hash[i] */\n      0xffff\n      and\n      dup2\n      mload\n      dup2\n      lt\n      tag_277\n      jumpi\n      tag_278\n      tag_108\n      jump\t// in\n    tag_278:\n    tag_277:\n      0x20\n      mul\n      0x20\n      add\n      add\n      mload\n        /* \"Library/ProposalLibrary.sol\":3304:3324  self.votes[_hash[i]] */\n      mload(0x40)\n      tag_279\n      swap2\n      swap1\n      tag_271\n      jump\t// in\n    tag_279:\n      swap1\n      dup2\n      mstore\n      0x20\n      add\n      mload(0x40)\n      dup1\n      swap2\n      sub\n      swap1\n      keccak256\n        /* \"Library/ProposalLibrary.sol\":3304:3329  self.votes[_hash[i]]=v[i] */\n      dup2\n      swap1\n      sstore\n      pop\n        /* \"Library/ProposalLibrary.sol\":3219:3222  i++ */\n      dup1\n      dup1\n      tag_280\n      swap1\n      tag_261\n      jump\t// in\n    tag_280:\n      swap2\n      pop\n      pop\n        /* \"Library/ProposalLibrary.sol\":3184:3341  for(uint16 i=0;i<self.numOfOptions;i++){\r... */\n      jump(tag_265)\n    tag_266:\n      pop\n        /* \"Library/ProposalLibrary.sol\":3358:3362  true */\n      0x01\n        /* \"Library/ProposalLibrary.sol\":3351:3362  return true */\n      swap1\n      pop\n        /* \"Library/ProposalLibrary.sol\":2018:3370  function responseProposal(proposal storage self, address _voter, string[] memory _hash, uint[] memory v) internal returns(bool){\r... */\n    tag_237:\n      swap5\n      swap4\n      pop\n      pop\n      pop\n      pop\n      jump\t// out\n        /* \"Library/UserProposalLibrary.sol\":802:1377  function updateResponseList(UserProposal storage self, uint _proposalId, string[] memory _hash) internal returns(bool){\r... */\n    tag_157:\n        /* \"Library/UserProposalLibrary.sol\":915:919  bool */\n      0x00\n        /* \"Library/UserProposalLibrary.sol\":931:935  self */\n      dup4\n        /* \"Library/UserProposalLibrary.sol\":931:949  self.responseCount */\n      0x00\n      add\n      0x10\n        /* \"Library/UserProposalLibrary.sol\":931:951  self.responseCount++ */\n      dup2\n      dup2\n      swap1\n      sload\n      swap1\n      0x0100\n      exp\n      swap1\n      div\n      0xffffffffffffffffffffffffffffffff\n      and\n      dup1\n      swap3\n      swap2\n      swap1\n      tag_282\n      swap1\n      tag_236\n      jump\t// in\n    tag_282:\n      swap2\n      swap1\n      0x0100\n      exp\n      dup2\n      sload\n      dup2\n      0xffffffffffffffffffffffffffffffff\n      mul\n      not\n      and\n      swap1\n      dup4\n      0xffffffffffffffffffffffffffffffff\n      and\n      mul\n      or\n      swap1\n      sstore\n      pop\n      pop\n        /* \"Library/UserProposalLibrary.sol\":1009:1020  _proposalId */\n      dup3\n        /* \"Library/UserProposalLibrary.sol\":964:968  self */\n      dup5\n        /* \"Library/UserProposalLibrary.sol\":964:986  self.proposalResponsed */\n      0x02\n      add\n        /* \"Library/UserProposalLibrary.sol\":964:1006  self.proposalResponsed[self.responseCount] */\n      0x00\n        /* \"Library/UserProposalLibrary.sol\":987:991  self */\n      dup7\n        /* \"Library/UserProposalLibrary.sol\":987:1005  self.responseCount */\n      0x00\n      add\n      0x10\n      swap1\n      sload\n      swap1\n      0x0100\n      exp\n      swap1\n      div\n      0xffffffffffffffffffffffffffffffff\n      and\n        /* \"Library/UserProposalLibrary.sol\":964:1006  self.proposalResponsed[self.responseCount] */\n      0xffffffffffffffffffffffffffffffff\n      and\n      0xffffffffffffffffffffffffffffffff\n      and\n      dup2\n      mstore\n      0x20\n      add\n      swap1\n      dup2\n      mstore\n      0x20\n      add\n      0x00\n      keccak256\n        /* \"Library/UserProposalLibrary.sol\":964:1020  self.proposalResponsed[self.responseCount] = _proposalId */\n      dup2\n      swap1\n      sstore\n      pop\n        /* \"Library/UserProposalLibrary.sol\":1190:1198  uint16 i */\n      0x00\n        /* \"Library/UserProposalLibrary.sol\":1186:1295  for(uint16 i=0;i<_hash.length;i++){\r... */\n    tag_283:\n        /* \"Library/UserProposalLibrary.sol\":1203:1208  _hash */\n      dup3\n        /* \"Library/UserProposalLibrary.sol\":1203:1215  _hash.length */\n      mload\n        /* \"Library/UserProposalLibrary.sol\":1201:1202  i */\n      dup2\n        /* \"Library/UserProposalLibrary.sol\":1201:1215  i<_hash.length */\n      0xffff\n      and\n      lt\n        /* \"Library/UserProposalLibrary.sol\":1186:1295  for(uint16 i=0;i<_hash.length;i++){\r... */\n      iszero\n      tag_284\n      jumpi\n        /* \"Library/UserProposalLibrary.sol\":1275:1280  _hash */\n      dup3\n        /* \"Library/UserProposalLibrary.sol\":1281:1282  i */\n      dup2\n        /* \"Library/UserProposalLibrary.sol\":1275:1283  _hash[i] */\n      0xffff\n      and\n      dup2\n      mload\n      dup2\n      lt\n      tag_286\n      jumpi\n      tag_287\n      tag_108\n      jump\t// in\n    tag_287:\n    tag_286:\n      0x20\n      mul\n      0x20\n      add\n      add\n      mload\n        /* \"Library/UserProposalLibrary.sol\":1235:1239  self */\n      dup6\n        /* \"Library/UserProposalLibrary.sol\":1235:1254  self.proposalAnswer */\n      0x03\n      add\n        /* \"Library/UserProposalLibrary.sol\":1235:1267  self.proposalAnswer[_proposalId] */\n      0x00\n        /* \"Library/UserProposalLibrary.sol\":1255:1266  _proposalId */\n      dup7\n        /* \"Library/UserProposalLibrary.sol\":1235:1267  self.proposalAnswer[_proposalId] */\n      dup2\n      mstore\n      0x20\n      add\n      swap1\n      dup2\n      mstore\n      0x20\n      add\n      0x00\n      keccak256\n        /* \"Library/UserProposalLibrary.sol\":1235:1272  self.proposalAnswer[_proposalId][i+1] */\n      0x00\n        /* \"Library/UserProposalLibrary.sol\":1270:1271  1 */\n      0x01\n        /* \"Library/UserProposalLibrary.sol\":1268:1269  i */\n      dup5\n        /* \"Library/UserProposalLibrary.sol\":1268:1271  i+1 */\n      tag_288\n      swap2\n      swap1\n      tag_289\n      jump\t// in\n    tag_288:\n        /* \"Library/UserProposalLibrary.sol\":1235:1272  self.proposalAnswer[_proposalId][i+1] */\n      0xffff\n      and\n      dup2\n      mstore\n      0x20\n      add\n      swap1\n      dup2\n      mstore\n      0x20\n      add\n      0x00\n      keccak256\n        /* \"Library/UserProposalLibrary.sol\":1235:1283  self.proposalAnswer[_proposalId][i+1] = _hash[i] */\n      swap1\n      dup1\n      mload\n      swap1\n      0x20\n      add\n      swap1\n      tag_290\n      swap3\n      swap2\n      swap1\n      tag_203\n      jump\t// in\n    tag_290:\n      pop\n        /* \"Library/UserProposalLibrary.sol\":1216:1219  i++ */\n      dup1\n      dup1\n      tag_291\n      swap1\n      tag_261\n      jump\t// in\n    tag_291:\n      swap2\n      pop\n      pop\n        /* \"Library/UserProposalLibrary.sol\":1186:1295  for(uint16 i=0;i<_hash.length;i++){\r... */\n      jump(tag_283)\n    tag_284:\n      pop\n        /* \"Library/UserProposalLibrary.sol\":1343:1347  true */\n      0x01\n        /* \"Library/UserProposalLibrary.sol\":1305:1309  self */\n      dup5\n        /* \"Library/UserProposalLibrary.sol\":1305:1327  self.responsedProposal */\n      0x04\n      add\n        /* \"Library/UserProposalLibrary.sol\":1305:1340  self.responsedProposal[_proposalId] */\n      0x00\n        /* \"Library/UserProposalLibrary.sol\":1328:1339  _proposalId */\n      dup6\n        /* \"Library/UserProposalLibrary.sol\":1305:1340  self.responsedProposal[_proposalId] */\n      dup2\n      mstore\n      0x20\n      add\n      swap1\n      dup2\n      mstore\n      0x20\n      add\n      0x00\n      keccak256\n      0x00\n        /* \"Library/UserProposalLibrary.sol\":1305:1347  self.responsedProposal[_proposalId] = true */\n      0x0100\n      exp\n      dup2\n      sload\n      dup2\n      0xff\n      mul\n      not\n      and\n      swap1\n      dup4\n      iszero\n      iszero\n      mul\n      or\n      swap1\n      sstore\n      pop\n        /* \"Library/UserProposalLibrary.sol\":1365:1369  true */\n      0x01\n        /* \"Library/UserProposalLibrary.sol\":1358:1369  return true */\n      swap1\n      pop\n        /* \"Library/UserProposalLibrary.sol\":802:1377  function updateResponseList(UserProposal storage self, uint _proposalId, string[] memory _hash) internal returns(bool){\r... */\n      swap4\n      swap3\n      pop\n      pop\n      pop\n      jump\t// out\n        /* \"Library/VoterLibrary.sol\":832:1063  function updateVoteNum(voter storage self) internal returns(bool){\r... */\n    tag_159:\n        /* \"Library/VoterLibrary.sol\":892:896  bool */\n      0x00\n        /* \"Library/VoterLibrary.sol\":931:932  0 */\n      dup1\n        /* \"Library/VoterLibrary.sol\":914:918  self */\n      dup3\n        /* \"Library/VoterLibrary.sol\":914:929  self.proposalId */\n      0x00\n      add\n      sload\n        /* \"Library/VoterLibrary.sol\":914:932  self.proposalId!=0 */\n      eq\n      iszero\n        /* \"Library/VoterLibrary.sol\":906:965  require(self.proposalId!=0,\"Invalid voter for proposalId!\") */\n      tag_293\n      jumpi\n      mload(0x40)\n      0x08c379a000000000000000000000000000000000000000000000000000000000\n      dup2\n      mstore\n      0x04\n      add\n      tag_294\n      swap1\n      tag_295\n      jump\t// in\n    tag_294:\n      mload(0x40)\n      dup1\n      swap2\n      sub\n      swap1\n      revert\n    tag_293:\n        /* \"Library/VoterLibrary.sol\":983:987  self */\n      dup2\n        /* \"Library/VoterLibrary.sol\":983:996  self.hasVoted */\n      0x01\n      add\n      0x14\n      swap1\n      sload\n      swap1\n      0x0100\n      exp\n      swap1\n      div\n      0xff\n      and\n        /* \"Library/VoterLibrary.sol\":982:996  !self.hasVoted */\n      iszero\n        /* \"Library/VoterLibrary.sol\":974:1010  require(!self.hasVoted, \"not voted\") */\n      tag_296\n      jumpi\n      mload(0x40)\n      0x08c379a000000000000000000000000000000000000000000000000000000000\n      dup2\n      mstore\n      0x04\n      add\n      tag_297\n      swap1\n      tag_298\n      jump\t// in\n    tag_297:\n      mload(0x40)\n      dup1\n      swap2\n      sub\n      swap1\n      revert\n    tag_296:\n        /* \"Library/VoterLibrary.sol\":1034:1035  0 */\n      0x00\n        /* \"Library/VoterLibrary.sol\":1019:1023  self */\n      dup3\n        /* \"Library/VoterLibrary.sol\":1019:1031  self.voteNum */\n      0x02\n      add\n        /* \"Library/VoterLibrary.sol\":1019:1035  self.voteNum = 0 */\n      dup2\n      swap1\n      sstore\n      pop\n        /* \"Library/VoterLibrary.sol\":1051:1055  true */\n      0x01\n        /* \"Library/VoterLibrary.sol\":1044:1055  return true */\n      swap1\n      pop\n        /* \"Library/VoterLibrary.sol\":832:1063  function updateVoteNum(voter storage self) internal returns(bool){\r... */\n      swap2\n      swap1\n      pop\n      jump\t// out\n        /* \"QvToken/QvToken.sol\":510:613  function burn(address to,uint amount) onlyOwner(_msgSender()) internal {\r... */\n    tag_161:\n        /* \"QvToken/QvToken.sol\":558:570  _msgSender() */\n      tag_299\n        /* \"QvToken/QvToken.sol\":558:568  _msgSender */\n      tag_123\n        /* \"QvToken/QvToken.sol\":558:570  _msgSender() */\n      jump\t// in\n    tag_299:\n        /* \"QvToken/QvToken.sol\":366:375  msgSender */\n      dup1\n        /* \"QvToken/QvToken.sol\":357:375  owner == msgSender */\n      0xffffffffffffffffffffffffffffffffffffffff\n      and\n        /* \"QvToken/QvToken.sol\":357:362  owner */\n      0x04\n      0x00\n      swap1\n      sload\n      swap1\n      0x0100\n      exp\n      swap1\n      div\n      0xffffffffffffffffffffffffffffffffffffffff\n      and\n        /* \"QvToken/QvToken.sol\":357:375  owner == msgSender */\n      0xffffffffffffffffffffffffffffffffffffffff\n      and\n      eq\n        /* \"QvToken/QvToken.sol\":349:376  require(owner == msgSender) */\n      tag_301\n      jumpi\n      0x00\n      dup1\n      revert\n    tag_301:\n        /* \"QvToken/QvToken.sol\":588:605  _burn(to, amount) */\n      tag_303\n        /* \"QvToken/QvToken.sol\":594:596  to */\n      dup4\n        /* \"QvToken/QvToken.sol\":598:604  amount */\n      dup4\n        /* \"QvToken/QvToken.sol\":588:593  _burn */\n      tag_304\n        /* \"QvToken/QvToken.sol\":588:605  _burn(to, amount) */\n      jump\t// in\n    tag_303:\n        /* \"QvToken/QvToken.sol\":510:613  function burn(address to,uint amount) onlyOwner(_msgSender()) internal {\r... */\n      pop\n      pop\n      pop\n      jump\t// out\n        /* \"QvToken/ERC20.sol\":3630:4033  function _mint(address account, uint256 amount) internal virtual {\r... */\n    tag_231:\n        /* \"QvToken/ERC20.sol\":3733:3734  0 */\n      0x00\n        /* \"QvToken/ERC20.sol\":3714:3735  account != address(0) */\n      0xffffffffffffffffffffffffffffffffffffffff\n      and\n        /* \"QvToken/ERC20.sol\":3714:3721  account */\n      dup3\n        /* \"QvToken/ERC20.sol\":3714:3735  account != address(0) */\n      0xffffffffffffffffffffffffffffffffffffffff\n      and\n      eq\n      iszero\n        /* \"QvToken/ERC20.sol\":3706:3771  require(account != address(0), \"ERC20: mint to the zero address\") */\n      tag_306\n      jumpi\n      mload(0x40)\n      0x08c379a000000000000000000000000000000000000000000000000000000000\n      dup2\n      mstore\n      0x04\n      add\n      tag_307\n      swap1\n      tag_308\n      jump\t// in\n    tag_307:\n      mload(0x40)\n      dup1\n      swap2\n      sub\n      swap1\n      revert\n    tag_306:\n        /* \"QvToken/ERC20.sol\":3865:3871  amount */\n      dup1\n        /* \"QvToken/ERC20.sol\":3849:3861  _totalSupply */\n      0x01\n      0x00\n        /* \"QvToken/ERC20.sol\":3849:3871  _totalSupply += amount */\n      dup3\n      dup3\n      sload\n      tag_309\n      swap2\n      swap1\n      tag_148\n      jump\t// in\n    tag_309:\n      swap3\n      pop\n      pop\n      dup2\n      swap1\n      sstore\n      pop\n        /* \"QvToken/ERC20.sol\":3904:3910  amount */\n      dup1\n        /* \"QvToken/ERC20.sol\":3882:3891  _balances */\n      0x00\n        /* \"QvToken/ERC20.sol\":3882:3900  _balances[account] */\n      dup1\n        /* \"QvToken/ERC20.sol\":3892:3899  account */\n      dup5\n        /* \"QvToken/ERC20.sol\":3882:3900  _balances[account] */\n      0xffffffffffffffffffffffffffffffffffffffff\n      and\n      0xffffffffffffffffffffffffffffffffffffffff\n      and\n      dup2\n      mstore\n      0x20\n      add\n      swap1\n      dup2\n      mstore\n      0x20\n      add\n      0x00\n      keccak256\n      0x00\n        /* \"QvToken/ERC20.sol\":3882:3910  _balances[account] += amount */\n      dup3\n      dup3\n      sload\n      tag_310\n      swap2\n      swap1\n      tag_148\n      jump\t// in\n    tag_310:\n      swap3\n      pop\n      pop\n      dup2\n      swap1\n      sstore\n      pop\n        /* \"QvToken/ERC20.sol\":3926:3961  mintAndburn(\"mint\",account, amount) */\n      0xabf5327be9f5825c40d58bda541dd07f09b62df3376bbd5ecdbaa8bd82a9d492\n        /* \"QvToken/ERC20.sol\":3945:3952  account */\n      dup3\n        /* \"QvToken/ERC20.sol\":3954:3960  amount */\n      dup3\n        /* \"QvToken/ERC20.sol\":3926:3961  mintAndburn(\"mint\",account, amount) */\n      mload(0x40)\n      tag_311\n      swap3\n      swap2\n      swap1\n      tag_119\n      jump\t// in\n    tag_311:\n      mload(0x40)\n      dup1\n      swap2\n      sub\n      swap1\n      log1\n        /* \"QvToken/ERC20.sol\":3630:4033  function _mint(address account, uint256 amount) internal virtual {\r... */\n      pop\n      pop\n      jump\t// out\n        /* \"QvToken/ERC20.sol\":4045:4640  function _burn(address account, uint256 amount) internal virtual {\r... */\n    tag_304:\n        /* \"QvToken/ERC20.sol\":4148:4149  0 */\n      0x00\n        /* \"QvToken/ERC20.sol\":4129:4150  account != address(0) */\n      0xffffffffffffffffffffffffffffffffffffffff\n      and\n        /* \"QvToken/ERC20.sol\":4129:4136  account */\n      dup3\n        /* \"QvToken/ERC20.sol\":4129:4150  account != address(0) */\n      0xffffffffffffffffffffffffffffffffffffffff\n      and\n      eq\n      iszero\n        /* \"QvToken/ERC20.sol\":4121:4188  require(account != address(0), \"ERC20: burn from the zero address\") */\n      tag_313\n      jumpi\n      mload(0x40)\n      0x08c379a000000000000000000000000000000000000000000000000000000000\n      dup2\n      mstore\n      0x04\n      add\n      tag_314\n      swap1\n      tag_315\n      jump\t// in\n    tag_314:\n      mload(0x40)\n      dup1\n      swap2\n      sub\n      swap1\n      revert\n    tag_313:\n        /* \"QvToken/ERC20.sol\":4266:4288  uint256 accountBalance */\n      0x00\n        /* \"QvToken/ERC20.sol\":4291:4300  _balances */\n      dup1\n        /* \"QvToken/ERC20.sol\":4291:4309  _balances[account] */\n      0x00\n        /* \"QvToken/ERC20.sol\":4301:4308  account */\n      dup5\n        /* \"QvToken/ERC20.sol\":4291:4309  _balances[account] */\n      0xffffffffffffffffffffffffffffffffffffffff\n      and\n      0xffffffffffffffffffffffffffffffffffffffff\n      and\n      dup2\n      mstore\n      0x20\n      add\n      swap1\n      dup2\n      mstore\n      0x20\n      add\n      0x00\n      keccak256\n      sload\n        /* \"QvToken/ERC20.sol\":4266:4309  uint256 accountBalance = _balances[account] */\n      swap1\n      pop\n        /* \"QvToken/ERC20.sol\":4346:4352  amount */\n      dup2\n        /* \"QvToken/ERC20.sol\":4328:4342  accountBalance */\n      dup2\n        /* \"QvToken/ERC20.sol\":4328:4352  accountBalance >= amount */\n      lt\n      iszero\n        /* \"QvToken/ERC20.sol\":4320:4391  require(accountBalance >= amount, \"ERC20: burn amount exceeds balance\") */\n      tag_316\n      jumpi\n      mload(0x40)\n      0x08c379a000000000000000000000000000000000000000000000000000000000\n      dup2\n      mstore\n      0x04\n      add\n      tag_317\n      swap1\n      tag_318\n      jump\t// in\n    tag_317:\n      mload(0x40)\n      dup1\n      swap2\n      sub\n      swap1\n      revert\n    tag_316:\n        /* \"QvToken/ERC20.sol\":4465:4471  amount */\n      dup2\n        /* \"QvToken/ERC20.sol\":4448:4462  accountBalance */\n      dup2\n        /* \"QvToken/ERC20.sol\":4448:4471  accountBalance - amount */\n      sub\n        /* \"QvToken/ERC20.sol\":4427:4436  _balances */\n      0x00\n        /* \"QvToken/ERC20.sol\":4427:4445  _balances[account] */\n      dup1\n        /* \"QvToken/ERC20.sol\":4437:4444  account */\n      dup6\n        /* \"QvToken/ERC20.sol\":4427:4445  _balances[account] */\n      0xffffffffffffffffffffffffffffffffffffffff\n      and\n      0xffffffffffffffffffffffffffffffffffffffff\n      and\n      dup2\n      mstore\n      0x20\n      add\n      swap1\n      dup2\n      mstore\n      0x20\n      add\n      0x00\n      keccak256\n        /* \"QvToken/ERC20.sol\":4427:4471  _balances[account] = accountBalance - amount */\n      dup2\n      swap1\n      sstore\n      pop\n        /* \"QvToken/ERC20.sol\":4509:4515  amount */\n      dup2\n        /* \"QvToken/ERC20.sol\":4493:4505  _totalSupply */\n      0x01\n      0x00\n        /* \"QvToken/ERC20.sol\":4493:4515  _totalSupply -= amount */\n      dup3\n      dup3\n      sload\n      tag_319\n      swap2\n      swap1\n      tag_320\n      jump\t// in\n    tag_319:\n      swap3\n      pop\n      pop\n      dup2\n      swap1\n      sstore\n      pop\n        /* \"QvToken/ERC20.sol\":4533:4568  mintAndburn(\"burn\",account, amount) */\n      0xabf5327be9f5825c40d58bda541dd07f09b62df3376bbd5ecdbaa8bd82a9d492\n        /* \"QvToken/ERC20.sol\":4552:4559  account */\n      dup4\n        /* \"QvToken/ERC20.sol\":4561:4567  amount */\n      dup4\n        /* \"QvToken/ERC20.sol\":4533:4568  mintAndburn(\"burn\",account, amount) */\n      mload(0x40)\n      tag_321\n      swap3\n      swap2\n      swap1\n      tag_163\n      jump\t// in\n    tag_321:\n      mload(0x40)\n      dup1\n      swap2\n      sub\n      swap1\n      log1\n        /* \"QvToken/ERC20.sol\":4110:4640  {\r... */\n      pop\n        /* \"QvToken/ERC20.sol\":4045:4640  function _burn(address account, uint256 amount) internal virtual {\r... */\n      pop\n      pop\n      jump\t// out\n    tag_203:\n      dup3\n      dup1\n      sload\n      tag_322\n      swap1\n      tag_73\n      jump\t// in\n    tag_322:\n      swap1\n      0x00\n      mstore\n      keccak256(0x00, 0x20)\n      swap1\n      0x1f\n      add\n      0x20\n      swap1\n      div\n      dup2\n      add\n      swap3\n      dup3\n      tag_324\n      jumpi\n      0x00\n      dup6\n      sstore\n      jump(tag_323)\n    tag_324:\n      dup3\n      0x1f\n      lt\n      tag_325\n      jumpi\n      dup1\n      mload\n      not(0xff)\n      and\n      dup4\n      dup1\n      add\n      or\n      dup6\n      sstore\n      jump(tag_323)\n    tag_325:\n      dup3\n      dup1\n      add\n      0x01\n      add\n      dup6\n      sstore\n      dup3\n      iszero\n      tag_323\n      jumpi\n      swap2\n      dup3\n      add\n    tag_326:\n      dup3\n      dup2\n      gt\n      iszero\n      tag_327\n      jumpi\n      dup3\n      mload\n      dup3\n      sstore\n      swap2\n      0x20\n      add\n      swap2\n      swap1\n      0x01\n      add\n      swap1\n      jump(tag_326)\n    tag_327:\n    tag_323:\n      pop\n      swap1\n      pop\n      tag_328\n      swap2\n      swap1\n      tag_329\n      jump\t// in\n    tag_328:\n      pop\n      swap1\n      jump\t// out\n    tag_218:\n      dup3\n      dup1\n      sload\n      tag_330\n      swap1\n      tag_73\n      jump\t// in\n    tag_330:\n      swap1\n      0x00\n      mstore\n      keccak256(0x00, 0x20)\n      swap1\n      0x1f\n      add\n      0x20\n      swap1\n      div\n      dup2\n      add\n      swap3\n      dup3\n      tag_332\n      jumpi\n      0x00\n      dup6\n      sstore\n      jump(tag_331)\n    tag_332:\n      dup3\n      0x1f\n      lt\n      tag_333\n      jumpi\n      dup1\n      calldataload\n      not(0xff)\n      and\n      dup4\n      dup1\n      add\n      or\n      dup6\n      sstore\n      jump(tag_331)\n    tag_333:\n      dup3\n      dup1\n      add\n      0x01\n      add\n      dup6\n      sstore\n      dup3\n      iszero\n      tag_331\n      jumpi\n      swap2\n      dup3\n      add\n    tag_334:\n      dup3\n      dup2\n      gt\n      iszero\n      tag_335\n      jumpi\n      dup3\n      calldataload\n      dup3\n      sstore\n      swap2\n      0x20\n      add\n      swap2\n      swap1\n      0x01\n      add\n      swap1\n      jump(tag_334)\n    tag_335:\n    tag_331:\n      pop\n      swap1\n      pop\n      tag_336\n      swap2\n      swap1\n      tag_329\n      jump\t// in\n    tag_336:\n      pop\n      swap1\n      jump\t// out\n    tag_245:\n      dup3\n      dup1\n      sload\n      tag_337\n      swap1\n      tag_73\n      jump\t// in\n    tag_337:\n      swap1\n      0x00\n      mstore\n      keccak256(0x00, 0x20)\n      swap1\n      0x1f\n      add\n      0x20\n      swap1\n      div\n      dup2\n      add\n      swap3\n      dup3\n      tag_339\n      jumpi\n      0x00\n      dup6\n      sstore\n      jump(tag_338)\n    tag_339:\n      dup3\n      0x1f\n      lt\n      tag_340\n      jumpi\n      dup1\n      sload\n      dup6\n      sstore\n      jump(tag_338)\n    tag_340:\n      dup3\n      dup1\n      add\n      0x01\n      add\n      dup6\n      sstore\n      dup3\n      iszero\n      tag_338\n      jumpi\n      0x00\n      mstore\n      keccak256(0x00, 0x20)\n      swap2\n      0x1f\n      add\n      0x20\n      swap1\n      div\n      dup3\n      add\n    tag_341:\n      dup3\n      dup2\n      gt\n      iszero\n      tag_342\n      jumpi\n      dup3\n      sload\n      dup3\n      sstore\n      swap2\n      0x01\n      add\n      swap2\n      swap1\n      0x01\n      add\n      swap1\n      jump(tag_341)\n    tag_342:\n    tag_338:\n      pop\n      swap1\n      pop\n      tag_343\n      swap2\n      swap1\n      tag_329\n      jump\t// in\n    tag_343:\n      pop\n      swap1\n      jump\t// out\n    tag_329:\n    tag_344:\n      dup1\n      dup3\n      gt\n      iszero\n      tag_345\n      jumpi\n      0x00\n      dup2\n      0x00\n      swap1\n      sstore\n      pop\n      0x01\n      add\n      jump(tag_344)\n    tag_345:\n      pop\n      swap1\n      jump\t// out\n        /* \"#utility.yul\":24:746   */\n    tag_347:\n        /* \"#utility.yul\":120:125   */\n      0x00\n        /* \"#utility.yul\":145:226   */\n      tag_349\n        /* \"#utility.yul\":161:225   */\n      tag_350\n        /* \"#utility.yul\":218:224   */\n      dup5\n        /* \"#utility.yul\":161:225   */\n      tag_351\n      jump\t// in\n    tag_350:\n        /* \"#utility.yul\":145:226   */\n      tag_352\n      jump\t// in\n    tag_349:\n        /* \"#utility.yul\":136:226   */\n      swap1\n      pop\n        /* \"#utility.yul\":246:251   */\n      dup1\n        /* \"#utility.yul\":275:281   */\n      dup4\n        /* \"#utility.yul\":268:273   */\n      dup3\n        /* \"#utility.yul\":261:282   */\n      mstore\n        /* \"#utility.yul\":309:313   */\n      0x20\n        /* \"#utility.yul\":302:307   */\n      dup3\n        /* \"#utility.yul\":298:314   */\n      add\n        /* \"#utility.yul\":291:314   */\n      swap1\n      pop\n        /* \"#utility.yul\":335:341   */\n      dup3\n        /* \"#utility.yul\":385:388   */\n      dup6\n        /* \"#utility.yul\":377:381   */\n      0x20\n        /* \"#utility.yul\":369:375   */\n      dup7\n        /* \"#utility.yul\":365:382   */\n      mul\n        /* \"#utility.yul\":360:363   */\n      dup3\n        /* \"#utility.yul\":356:383   */\n      add\n        /* \"#utility.yul\":353:389   */\n      gt\n        /* \"#utility.yul\":350:493   */\n      iszero\n      tag_353\n      jumpi\n        /* \"#utility.yul\":404:483   */\n      tag_354\n      tag_355\n      jump\t// in\n    tag_354:\n        /* \"#utility.yul\":350:493   */\n    tag_353:\n        /* \"#utility.yul\":517:518   */\n      0x00\n        /* \"#utility.yul\":502:740   */\n    tag_356:\n        /* \"#utility.yul\":527:533   */\n      dup6\n        /* \"#utility.yul\":524:525   */\n      dup2\n        /* \"#utility.yul\":521:534   */\n      lt\n        /* \"#utility.yul\":502:740   */\n      iszero\n      tag_358\n      jumpi\n        /* \"#utility.yul\":595:598   */\n      dup2\n        /* \"#utility.yul\":624:661   */\n      tag_359\n        /* \"#utility.yul\":657:660   */\n      dup9\n        /* \"#utility.yul\":645:655   */\n      dup3\n        /* \"#utility.yul\":624:661   */\n      tag_360\n      jump\t// in\n    tag_359:\n        /* \"#utility.yul\":619:622   */\n      dup5\n        /* \"#utility.yul\":612:662   */\n      mstore\n        /* \"#utility.yul\":691:695   */\n      0x20\n        /* \"#utility.yul\":686:689   */\n      dup5\n        /* \"#utility.yul\":682:696   */\n      add\n        /* \"#utility.yul\":675:696   */\n      swap4\n      pop\n        /* \"#utility.yul\":725:729   */\n      0x20\n        /* \"#utility.yul\":720:723   */\n      dup4\n        /* \"#utility.yul\":716:730   */\n      add\n        /* \"#utility.yul\":709:730   */\n      swap3\n      pop\n        /* \"#utility.yul\":562:740   */\n      pop\n        /* \"#utility.yul\":549:550   */\n      0x01\n        /* \"#utility.yul\":546:547   */\n      dup2\n        /* \"#utility.yul\":542:551   */\n      add\n        /* \"#utility.yul\":537:551   */\n      swap1\n      pop\n        /* \"#utility.yul\":502:740   */\n      jump(tag_356)\n    tag_358:\n        /* \"#utility.yul\":506:520   */\n      pop\n        /* \"#utility.yul\":126:746   */\n      pop\n      pop\n        /* \"#utility.yul\":24:746   */\n      swap4\n      swap3\n      pop\n      pop\n      pop\n      jump\t// out\n        /* \"#utility.yul\":768:1725   */\n    tag_361:\n        /* \"#utility.yul\":874:879   */\n      0x00\n        /* \"#utility.yul\":899:990   */\n      tag_363\n        /* \"#utility.yul\":915:989   */\n      tag_364\n        /* \"#utility.yul\":982:988   */\n      dup5\n        /* \"#utility.yul\":915:989   */\n      tag_365\n      jump\t// in\n    tag_364:\n        /* \"#utility.yul\":899:990   */\n      tag_352\n      jump\t// in\n    tag_363:\n        /* \"#utility.yul\":890:990   */\n      swap1\n      pop\n        /* \"#utility.yul\":1010:1015   */\n      dup1\n        /* \"#utility.yul\":1039:1045   */\n      dup4\n        /* \"#utility.yul\":1032:1037   */\n      dup3\n        /* \"#utility.yul\":1025:1046   */\n      mstore\n        /* \"#utility.yul\":1073:1077   */\n      0x20\n        /* \"#utility.yul\":1066:1071   */\n      dup3\n        /* \"#utility.yul\":1062:1078   */\n      add\n        /* \"#utility.yul\":1055:1078   */\n      swap1\n      pop\n        /* \"#utility.yul\":1099:1105   */\n      dup3\n        /* \"#utility.yul\":1149:1152   */\n      dup6\n        /* \"#utility.yul\":1141:1145   */\n      0x20\n        /* \"#utility.yul\":1133:1139   */\n      dup7\n        /* \"#utility.yul\":1129:1146   */\n      mul\n        /* \"#utility.yul\":1124:1127   */\n      dup3\n        /* \"#utility.yul\":1120:1147   */\n      add\n        /* \"#utility.yul\":1117:1153   */\n      gt\n        /* \"#utility.yul\":1114:1257   */\n      iszero\n      tag_366\n      jumpi\n        /* \"#utility.yul\":1168:1247   */\n      tag_367\n      tag_355\n      jump\t// in\n    tag_367:\n        /* \"#utility.yul\":1114:1257   */\n    tag_366:\n        /* \"#utility.yul\":1281:1282   */\n      0x00\n        /* \"#utility.yul\":1266:1719   */\n    tag_368:\n        /* \"#utility.yul\":1291:1297   */\n      dup6\n        /* \"#utility.yul\":1288:1289   */\n      dup2\n        /* \"#utility.yul\":1285:1298   */\n      lt\n        /* \"#utility.yul\":1266:1719   */\n      iszero\n      tag_370\n      jumpi\n        /* \"#utility.yul\":1373:1376   */\n      dup2\n        /* \"#utility.yul\":1360:1377   */\n      calldataload\n        /* \"#utility.yul\":1409:1427   */\n      0xffffffffffffffff\n        /* \"#utility.yul\":1396:1407   */\n      dup2\n        /* \"#utility.yul\":1393:1428   */\n      gt\n        /* \"#utility.yul\":1390:1512   */\n      iszero\n      tag_371\n      jumpi\n        /* \"#utility.yul\":1431:1510   */\n      tag_372\n      tag_373\n      jump\t// in\n    tag_372:\n        /* \"#utility.yul\":1390:1512   */\n    tag_371:\n        /* \"#utility.yul\":1555:1566   */\n      dup1\n        /* \"#utility.yul\":1547:1553   */\n      dup7\n        /* \"#utility.yul\":1543:1567   */\n      add\n        /* \"#utility.yul\":1593:1640   */\n      tag_374\n        /* \"#utility.yul\":1636:1639   */\n      dup10\n        /* \"#utility.yul\":1624:1634   */\n      dup3\n        /* \"#utility.yul\":1593:1640   */\n      tag_375\n      jump\t// in\n    tag_374:\n        /* \"#utility.yul\":1588:1591   */\n      dup6\n        /* \"#utility.yul\":1581:1641   */\n      mstore\n        /* \"#utility.yul\":1670:1674   */\n      0x20\n        /* \"#utility.yul\":1665:1668   */\n      dup6\n        /* \"#utility.yul\":1661:1675   */\n      add\n        /* \"#utility.yul\":1654:1675   */\n      swap5\n      pop\n        /* \"#utility.yul\":1704:1708   */\n      0x20\n        /* \"#utility.yul\":1699:1702   */\n      dup5\n        /* \"#utility.yul\":1695:1709   */\n      add\n        /* \"#utility.yul\":1688:1709   */\n      swap4\n      pop\n        /* \"#utility.yul\":1326:1719   */\n      pop\n      pop\n        /* \"#utility.yul\":1313:1314   */\n      0x01\n        /* \"#utility.yul\":1310:1311   */\n      dup2\n        /* \"#utility.yul\":1306:1315   */\n      add\n        /* \"#utility.yul\":1301:1315   */\n      swap1\n      pop\n        /* \"#utility.yul\":1266:1719   */\n      jump(tag_368)\n    tag_370:\n        /* \"#utility.yul\":1270:1284   */\n      pop\n        /* \"#utility.yul\":880:1725   */\n      pop\n      pop\n        /* \"#utility.yul\":768:1725   */\n      swap4\n      swap3\n      pop\n      pop\n      pop\n      jump\t// out\n        /* \"#utility.yul\":1748:2470   */\n    tag_376:\n        /* \"#utility.yul\":1844:1849   */\n      0x00\n        /* \"#utility.yul\":1869:1950   */\n      tag_378\n        /* \"#utility.yul\":1885:1949   */\n      tag_379\n        /* \"#utility.yul\":1942:1948   */\n      dup5\n        /* \"#utility.yul\":1885:1949   */\n      tag_380\n      jump\t// in\n    tag_379:\n        /* \"#utility.yul\":1869:1950   */\n      tag_352\n      jump\t// in\n    tag_378:\n        /* \"#utility.yul\":1860:1950   */\n      swap1\n      pop\n        /* \"#utility.yul\":1970:1975   */\n      dup1\n        /* \"#utility.yul\":1999:2005   */\n      dup4\n        /* \"#utility.yul\":1992:1997   */\n      dup3\n        /* \"#utility.yul\":1985:2006   */\n      mstore\n        /* \"#utility.yul\":2033:2037   */\n      0x20\n        /* \"#utility.yul\":2026:2031   */\n      dup3\n        /* \"#utility.yul\":2022:2038   */\n      add\n        /* \"#utility.yul\":2015:2038   */\n      swap1\n      pop\n        /* \"#utility.yul\":2059:2065   */\n      dup3\n        /* \"#utility.yul\":2109:2112   */\n      dup6\n        /* \"#utility.yul\":2101:2105   */\n      0x20\n        /* \"#utility.yul\":2093:2099   */\n      dup7\n        /* \"#utility.yul\":2089:2106   */\n      mul\n        /* \"#utility.yul\":2084:2087   */\n      dup3\n        /* \"#utility.yul\":2080:2107   */\n      add\n        /* \"#utility.yul\":2077:2113   */\n      gt\n        /* \"#utility.yul\":2074:2217   */\n      iszero\n      tag_381\n      jumpi\n        /* \"#utility.yul\":2128:2207   */\n      tag_382\n      tag_355\n      jump\t// in\n    tag_382:\n        /* \"#utility.yul\":2074:2217   */\n    tag_381:\n        /* \"#utility.yul\":2241:2242   */\n      0x00\n        /* \"#utility.yul\":2226:2464   */\n    tag_383:\n        /* \"#utility.yul\":2251:2257   */\n      dup6\n        /* \"#utility.yul\":2248:2249   */\n      dup2\n        /* \"#utility.yul\":2245:2258   */\n      lt\n        /* \"#utility.yul\":2226:2464   */\n      iszero\n      tag_385\n      jumpi\n        /* \"#utility.yul\":2319:2322   */\n      dup2\n        /* \"#utility.yul\":2348:2385   */\n      tag_386\n        /* \"#utility.yul\":2381:2384   */\n      dup9\n        /* \"#utility.yul\":2369:2379   */\n      dup3\n        /* \"#utility.yul\":2348:2385   */\n      tag_387\n      jump\t// in\n    tag_386:\n        /* \"#utility.yul\":2343:2346   */\n      dup5\n        /* \"#utility.yul\":2336:2386   */\n      mstore\n        /* \"#utility.yul\":2415:2419   */\n      0x20\n        /* \"#utility.yul\":2410:2413   */\n      dup5\n        /* \"#utility.yul\":2406:2420   */\n      add\n        /* \"#utility.yul\":2399:2420   */\n      swap4\n      pop\n        /* \"#utility.yul\":2449:2453   */\n      0x20\n        /* \"#utility.yul\":2444:2447   */\n      dup4\n        /* \"#utility.yul\":2440:2454   */\n      add\n        /* \"#utility.yul\":2433:2454   */\n      swap3\n      pop\n        /* \"#utility.yul\":2286:2464   */\n      pop\n        /* \"#utility.yul\":2273:2274   */\n      0x01\n        /* \"#utility.yul\":2270:2271   */\n      dup2\n        /* \"#utility.yul\":2266:2275   */\n      add\n        /* \"#utility.yul\":2261:2275   */\n      swap1\n      pop\n        /* \"#utility.yul\":2226:2464   */\n      jump(tag_383)\n    tag_385:\n        /* \"#utility.yul\":2230:2244   */\n      pop\n        /* \"#utility.yul\":1850:2470   */\n      pop\n      pop\n        /* \"#utility.yul\":1748:2470   */\n      swap4\n      swap3\n      pop\n      pop\n      pop\n      jump\t// out\n        /* \"#utility.yul\":2476:2888   */\n    tag_388:\n        /* \"#utility.yul\":2554:2559   */\n      0x00\n        /* \"#utility.yul\":2579:2645   */\n      tag_390\n        /* \"#utility.yul\":2595:2644   */\n      tag_391\n        /* \"#utility.yul\":2637:2643   */\n      dup5\n        /* \"#utility.yul\":2595:2644   */\n      tag_392\n      jump\t// in\n    tag_391:\n        /* \"#utility.yul\":2579:2645   */\n      tag_352\n      jump\t// in\n    tag_390:\n        /* \"#utility.yul\":2570:2645   */\n      swap1\n      pop\n        /* \"#utility.yul\":2668:2674   */\n      dup3\n        /* \"#utility.yul\":2661:2666   */\n      dup2\n        /* \"#utility.yul\":2654:2675   */\n      mstore\n        /* \"#utility.yul\":2706:2710   */\n      0x20\n        /* \"#utility.yul\":2699:2704   */\n      dup2\n        /* \"#utility.yul\":2695:2711   */\n      add\n        /* \"#utility.yul\":2744:2747   */\n      dup5\n        /* \"#utility.yul\":2735:2741   */\n      dup5\n        /* \"#utility.yul\":2730:2733   */\n      dup5\n        /* \"#utility.yul\":2726:2742   */\n      add\n        /* \"#utility.yul\":2723:2748   */\n      gt\n        /* \"#utility.yul\":2720:2832   */\n      iszero\n      tag_393\n      jumpi\n        /* \"#utility.yul\":2751:2830   */\n      tag_394\n      tag_395\n      jump\t// in\n    tag_394:\n        /* \"#utility.yul\":2720:2832   */\n    tag_393:\n        /* \"#utility.yul\":2841:2882   */\n      tag_396\n        /* \"#utility.yul\":2875:2881   */\n      dup5\n        /* \"#utility.yul\":2870:2873   */\n      dup3\n        /* \"#utility.yul\":2865:2868   */\n      dup6\n        /* \"#utility.yul\":2841:2882   */\n      tag_397\n      jump\t// in\n    tag_396:\n        /* \"#utility.yul\":2560:2888   */\n      pop\n        /* \"#utility.yul\":2476:2888   */\n      swap4\n      swap3\n      pop\n      pop\n      pop\n      jump\t// out\n        /* \"#utility.yul\":2894:3033   */\n    tag_360:\n        /* \"#utility.yul\":2940:2945   */\n      0x00\n        /* \"#utility.yul\":2978:2984   */\n      dup2\n        /* \"#utility.yul\":2965:2985   */\n      calldataload\n        /* \"#utility.yul\":2956:2985   */\n      swap1\n      pop\n        /* \"#utility.yul\":2994:3027   */\n      tag_399\n        /* \"#utility.yul\":3021:3026   */\n      dup2\n        /* \"#utility.yul\":2994:3027   */\n      tag_400\n      jump\t// in\n    tag_399:\n        /* \"#utility.yul\":2894:3033   */\n      swap3\n      swap2\n      pop\n      pop\n      jump\t// out\n        /* \"#utility.yul\":3056:3426   */\n    tag_401:\n        /* \"#utility.yul\":3127:3132   */\n      0x00\n        /* \"#utility.yul\":3176:3179   */\n      dup3\n        /* \"#utility.yul\":3169:3173   */\n      0x1f\n        /* \"#utility.yul\":3161:3167   */\n      dup4\n        /* \"#utility.yul\":3157:3174   */\n      add\n        /* \"#utility.yul\":3153:3180   */\n      slt\n        /* \"#utility.yul\":3143:3265   */\n      tag_403\n      jumpi\n        /* \"#utility.yul\":3184:3263   */\n      tag_404\n      tag_373\n      jump\t// in\n    tag_404:\n        /* \"#utility.yul\":3143:3265   */\n    tag_403:\n        /* \"#utility.yul\":3301:3307   */\n      dup2\n        /* \"#utility.yul\":3288:3308   */\n      calldataload\n        /* \"#utility.yul\":3326:3420   */\n      tag_405\n        /* \"#utility.yul\":3416:3419   */\n      dup5\n        /* \"#utility.yul\":3408:3414   */\n      dup3\n        /* \"#utility.yul\":3401:3405   */\n      0x20\n        /* \"#utility.yul\":3393:3399   */\n      dup7\n        /* \"#utility.yul\":3389:3406   */\n      add\n        /* \"#utility.yul\":3326:3420   */\n      tag_347\n      jump\t// in\n    tag_405:\n        /* \"#utility.yul\":3317:3420   */\n      swap2\n      pop\n        /* \"#utility.yul\":3133:3426   */\n      pop\n        /* \"#utility.yul\":3056:3426   */\n      swap3\n      swap2\n      pop\n      pop\n      jump\t// out\n        /* \"#utility.yul\":3448:4028   */\n    tag_406:\n        /* \"#utility.yul\":3533:3541   */\n      0x00\n        /* \"#utility.yul\":3543:3549   */\n      dup1\n        /* \"#utility.yul\":3593:3596   */\n      dup4\n        /* \"#utility.yul\":3586:3590   */\n      0x1f\n        /* \"#utility.yul\":3578:3584   */\n      dup5\n        /* \"#utility.yul\":3574:3591   */\n      add\n        /* \"#utility.yul\":3570:3597   */\n      slt\n        /* \"#utility.yul\":3560:3682   */\n      tag_408\n      jumpi\n        /* \"#utility.yul\":3601:3680   */\n      tag_409\n      tag_373\n      jump\t// in\n    tag_409:\n        /* \"#utility.yul\":3560:3682   */\n    tag_408:\n        /* \"#utility.yul\":3714:3720   */\n      dup3\n        /* \"#utility.yul\":3701:3721   */\n      calldataload\n        /* \"#utility.yul\":3691:3721   */\n      swap1\n      pop\n        /* \"#utility.yul\":3744:3762   */\n      0xffffffffffffffff\n        /* \"#utility.yul\":3736:3742   */\n      dup2\n        /* \"#utility.yul\":3733:3763   */\n      gt\n        /* \"#utility.yul\":3730:3847   */\n      iszero\n      tag_410\n      jumpi\n        /* \"#utility.yul\":3766:3845   */\n      tag_411\n      tag_412\n      jump\t// in\n    tag_411:\n        /* \"#utility.yul\":3730:3847   */\n    tag_410:\n        /* \"#utility.yul\":3880:3884   */\n      0x20\n        /* \"#utility.yul\":3872:3878   */\n      dup4\n        /* \"#utility.yul\":3868:3885   */\n      add\n        /* \"#utility.yul\":3856:3885   */\n      swap2\n      pop\n        /* \"#utility.yul\":3934:3937   */\n      dup4\n        /* \"#utility.yul\":3926:3930   */\n      0x20\n        /* \"#utility.yul\":3918:3924   */\n      dup3\n        /* \"#utility.yul\":3914:3931   */\n      mul\n        /* \"#utility.yul\":3904:3912   */\n      dup4\n        /* \"#utility.yul\":3900:3932   */\n      add\n        /* \"#utility.yul\":3897:3938   */\n      gt\n        /* \"#utility.yul\":3894:4022   */\n      iszero\n      tag_413\n      jumpi\n        /* \"#utility.yul\":3941:4020   */\n      tag_414\n      tag_355\n      jump\t// in\n    tag_414:\n        /* \"#utility.yul\":3894:4022   */\n    tag_413:\n        /* \"#utility.yul\":3448:4028   */\n      swap3\n      pop\n      swap3\n      swap1\n      pop\n      jump\t// out\n        /* \"#utility.yul\":4050:4440   */\n    tag_415:\n        /* \"#utility.yul\":4131:4136   */\n      0x00\n        /* \"#utility.yul\":4180:4183   */\n      dup3\n        /* \"#utility.yul\":4173:4177   */\n      0x1f\n        /* \"#utility.yul\":4165:4171   */\n      dup4\n        /* \"#utility.yul\":4161:4178   */\n      add\n        /* \"#utility.yul\":4157:4184   */\n      slt\n        /* \"#utility.yul\":4147:4269   */\n      tag_417\n      jumpi\n        /* \"#utility.yul\":4188:4267   */\n      tag_418\n      tag_373\n      jump\t// in\n    tag_418:\n        /* \"#utility.yul\":4147:4269   */\n    tag_417:\n        /* \"#utility.yul\":4305:4311   */\n      dup2\n        /* \"#utility.yul\":4292:4312   */\n      calldataload\n        /* \"#utility.yul\":4330:4434   */\n      tag_419\n        /* \"#utility.yul\":4430:4433   */\n      dup5\n        /* \"#utility.yul\":4422:4428   */\n      dup3\n        /* \"#utility.yul\":4415:4419   */\n      0x20\n        /* \"#utility.yul\":4407:4413   */\n      dup7\n        /* \"#utility.yul\":4403:4420   */\n      add\n        /* \"#utility.yul\":4330:4434   */\n      tag_361\n      jump\t// in\n    tag_419:\n        /* \"#utility.yul\":4321:4434   */\n      swap2\n      pop\n        /* \"#utility.yul\":4137:4440   */\n      pop\n        /* \"#utility.yul\":4050:4440   */\n      swap3\n      swap2\n      pop\n      pop\n      jump\t// out\n        /* \"#utility.yul\":4463:4833   */\n    tag_420:\n        /* \"#utility.yul\":4534:4539   */\n      0x00\n        /* \"#utility.yul\":4583:4586   */\n      dup3\n        /* \"#utility.yul\":4576:4580   */\n      0x1f\n        /* \"#utility.yul\":4568:4574   */\n      dup4\n        /* \"#utility.yul\":4564:4581   */\n      add\n        /* \"#utility.yul\":4560:4587   */\n      slt\n        /* \"#utility.yul\":4550:4672   */\n      tag_422\n      jumpi\n        /* \"#utility.yul\":4591:4670   */\n      tag_423\n      tag_373\n      jump\t// in\n    tag_423:\n        /* \"#utility.yul\":4550:4672   */\n    tag_422:\n        /* \"#utility.yul\":4708:4714   */\n      dup2\n        /* \"#utility.yul\":4695:4715   */\n      calldataload\n        /* \"#utility.yul\":4733:4827   */\n      tag_424\n        /* \"#utility.yul\":4823:4826   */\n      dup5\n        /* \"#utility.yul\":4815:4821   */\n      dup3\n        /* \"#utility.yul\":4808:4812   */\n      0x20\n        /* \"#utility.yul\":4800:4806   */\n      dup7\n        /* \"#utility.yul\":4796:4813   */\n      add\n        /* \"#utility.yul\":4733:4827   */\n      tag_376\n      jump\t// in\n    tag_424:\n        /* \"#utility.yul\":4724:4827   */\n      swap2\n      pop\n        /* \"#utility.yul\":4540:4833   */\n      pop\n        /* \"#utility.yul\":4463:4833   */\n      swap3\n      swap2\n      pop\n      pop\n      jump\t// out\n        /* \"#utility.yul\":4853:5193   */\n    tag_375:\n        /* \"#utility.yul\":4909:4914   */\n      0x00\n        /* \"#utility.yul\":4958:4961   */\n      dup3\n        /* \"#utility.yul\":4951:4955   */\n      0x1f\n        /* \"#utility.yul\":4943:4949   */\n      dup4\n        /* \"#utility.yul\":4939:4956   */\n      add\n        /* \"#utility.yul\":4935:4962   */\n      slt\n        /* \"#utility.yul\":4925:5047   */\n      tag_426\n      jumpi\n        /* \"#utility.yul\":4966:5045   */\n      tag_427\n      tag_373\n      jump\t// in\n    tag_427:\n        /* \"#utility.yul\":4925:5047   */\n    tag_426:\n        /* \"#utility.yul\":5083:5089   */\n      dup2\n        /* \"#utility.yul\":5070:5090   */\n      calldataload\n        /* \"#utility.yul\":5108:5187   */\n      tag_428\n        /* \"#utility.yul\":5183:5186   */\n      dup5\n        /* \"#utility.yul\":5175:5181   */\n      dup3\n        /* \"#utility.yul\":5168:5172   */\n      0x20\n        /* \"#utility.yul\":5160:5166   */\n      dup7\n        /* \"#utility.yul\":5156:5173   */\n      add\n        /* \"#utility.yul\":5108:5187   */\n      tag_388\n      jump\t// in\n    tag_428:\n        /* \"#utility.yul\":5099:5187   */\n      swap2\n      pop\n        /* \"#utility.yul\":4915:5193   */\n      pop\n        /* \"#utility.yul\":4853:5193   */\n      swap3\n      swap2\n      pop\n      pop\n      jump\t// out\n        /* \"#utility.yul\":5199:5338   */\n    tag_387:\n        /* \"#utility.yul\":5245:5250   */\n      0x00\n        /* \"#utility.yul\":5283:5289   */\n      dup2\n        /* \"#utility.yul\":5270:5290   */\n      calldataload\n        /* \"#utility.yul\":5261:5290   */\n      swap1\n      pop\n        /* \"#utility.yul\":5299:5332   */\n      tag_430\n        /* \"#utility.yul\":5326:5331   */\n      dup2\n        /* \"#utility.yul\":5299:5332   */\n      tag_431\n      jump\t// in\n    tag_430:\n        /* \"#utility.yul\":5199:5338   */\n      swap3\n      swap2\n      pop\n      pop\n      jump\t// out\n        /* \"#utility.yul\":5344:5479   */\n    tag_432:\n        /* \"#utility.yul\":5388:5393   */\n      0x00\n        /* \"#utility.yul\":5426:5432   */\n      dup2\n        /* \"#utility.yul\":5413:5433   */\n      calldataload\n        /* \"#utility.yul\":5404:5433   */\n      swap1\n      pop\n        /* \"#utility.yul\":5442:5473   */\n      tag_434\n        /* \"#utility.yul\":5467:5472   */\n      dup2\n        /* \"#utility.yul\":5442:5473   */\n      tag_435\n      jump\t// in\n    tag_434:\n        /* \"#utility.yul\":5344:5479   */\n      swap3\n      swap2\n      pop\n      pop\n      jump\t// out\n        /* \"#utility.yul\":5485:5814   */\n    tag_44:\n        /* \"#utility.yul\":5544:5550   */\n      0x00\n        /* \"#utility.yul\":5593:5595   */\n      0x20\n        /* \"#utility.yul\":5581:5590   */\n      dup3\n        /* \"#utility.yul\":5572:5579   */\n      dup5\n        /* \"#utility.yul\":5568:5591   */\n      sub\n        /* \"#utility.yul\":5564:5596   */\n      slt\n        /* \"#utility.yul\":5561:5680   */\n      iszero\n      tag_437\n      jumpi\n        /* \"#utility.yul\":5599:5678   */\n      tag_438\n      tag_439\n      jump\t// in\n    tag_438:\n        /* \"#utility.yul\":5561:5680   */\n    tag_437:\n        /* \"#utility.yul\":5719:5720   */\n      0x00\n        /* \"#utility.yul\":5744:5797   */\n      tag_440\n        /* \"#utility.yul\":5789:5796   */\n      dup5\n        /* \"#utility.yul\":5780:5786   */\n      dup3\n        /* \"#utility.yul\":5769:5778   */\n      dup6\n        /* \"#utility.yul\":5765:5787   */\n      add\n        /* \"#utility.yul\":5744:5797   */\n      tag_360\n      jump\t// in\n    tag_440:\n        /* \"#utility.yul\":5734:5797   */\n      swap2\n      pop\n        /* \"#utility.yul\":5690:5807   */\n      pop\n        /* \"#utility.yul\":5485:5814   */\n      swap3\n      swap2\n      pop\n      pop\n      jump\t// out\n        /* \"#utility.yul\":5820:6294   */\n    tag_63:\n        /* \"#utility.yul\":5888:5894   */\n      0x00\n        /* \"#utility.yul\":5896:5902   */\n      dup1\n        /* \"#utility.yul\":5945:5947   */\n      0x40\n        /* \"#utility.yul\":5933:5942   */\n      dup4\n        /* \"#utility.yul\":5924:5931   */\n      dup6\n        /* \"#utility.yul\":5920:5943   */\n      sub\n        /* \"#utility.yul\":5916:5948   */\n      slt\n        /* \"#utility.yul\":5913:6032   */\n      iszero\n      tag_442\n      jumpi\n        /* \"#utility.yul\":5951:6030   */\n      tag_443\n      tag_439\n      jump\t// in\n    tag_443:\n        /* \"#utility.yul\":5913:6032   */\n    tag_442:\n        /* \"#utility.yul\":6071:6072   */\n      0x00\n        /* \"#utility.yul\":6096:6149   */\n      tag_444\n        /* \"#utility.yul\":6141:6148   */\n      dup6\n        /* \"#utility.yul\":6132:6138   */\n      dup3\n        /* \"#utility.yul\":6121:6130   */\n      dup7\n        /* \"#utility.yul\":6117:6139   */\n      add\n        /* \"#utility.yul\":6096:6149   */\n      tag_360\n      jump\t// in\n    tag_444:\n        /* \"#utility.yul\":6086:6149   */\n      swap3\n      pop\n        /* \"#utility.yul\":6042:6159   */\n      pop\n        /* \"#utility.yul\":6198:6200   */\n      0x20\n        /* \"#utility.yul\":6224:6277   */\n      tag_445\n        /* \"#utility.yul\":6269:6276   */\n      dup6\n        /* \"#utility.yul\":6260:6266   */\n      dup3\n        /* \"#utility.yul\":6249:6258   */\n      dup7\n        /* \"#utility.yul\":6245:6267   */\n      add\n        /* \"#utility.yul\":6224:6277   */\n      tag_387\n      jump\t// in\n    tag_445:\n        /* \"#utility.yul\":6214:6277   */\n      swap2\n      pop\n        /* \"#utility.yul\":6169:6287   */\n      pop\n        /* \"#utility.yul\":5820:6294   */\n      swap3\n      pop\n      swap3\n      swap1\n      pop\n      jump\t// out\n        /* \"#utility.yul\":6300:6629   */\n    tag_18:\n        /* \"#utility.yul\":6359:6365   */\n      0x00\n        /* \"#utility.yul\":6408:6410   */\n      0x20\n        /* \"#utility.yul\":6396:6405   */\n      dup3\n        /* \"#utility.yul\":6387:6394   */\n      dup5\n        /* \"#utility.yul\":6383:6406   */\n      sub\n        /* \"#utility.yul\":6379:6411   */\n      slt\n        /* \"#utility.yul\":6376:6495   */\n      iszero\n      tag_447\n      jumpi\n        /* \"#utility.yul\":6414:6493   */\n      tag_448\n      tag_439\n      jump\t// in\n    tag_448:\n        /* \"#utility.yul\":6376:6495   */\n    tag_447:\n        /* \"#utility.yul\":6534:6535   */\n      0x00\n        /* \"#utility.yul\":6559:6612   */\n      tag_449\n        /* \"#utility.yul\":6604:6611   */\n      dup5\n        /* \"#utility.yul\":6595:6601   */\n      dup3\n        /* \"#utility.yul\":6584:6593   */\n      dup6\n        /* \"#utility.yul\":6580:6602   */\n      add\n        /* \"#utility.yul\":6559:6612   */\n      tag_387\n      jump\t// in\n    tag_449:\n        /* \"#utility.yul\":6549:6612   */\n      swap2\n      pop\n        /* \"#utility.yul\":6505:6622   */\n      pop\n        /* \"#utility.yul\":6300:6629   */\n      swap3\n      swap2\n      pop\n      pop\n      jump\t// out\n        /* \"#utility.yul\":6635:7840   */\n    tag_40:\n        /* \"#utility.yul\":6781:6787   */\n      0x00\n        /* \"#utility.yul\":6789:6795   */\n      dup1\n        /* \"#utility.yul\":6797:6803   */\n      0x00\n        /* \"#utility.yul\":6805:6811   */\n      dup1\n        /* \"#utility.yul\":6854:6857   */\n      0x80\n        /* \"#utility.yul\":6842:6851   */\n      dup6\n        /* \"#utility.yul\":6833:6840   */\n      dup8\n        /* \"#utility.yul\":6829:6852   */\n      sub\n        /* \"#utility.yul\":6825:6858   */\n      slt\n        /* \"#utility.yul\":6822:6942   */\n      iszero\n      tag_451\n      jumpi\n        /* \"#utility.yul\":6861:6940   */\n      tag_452\n      tag_439\n      jump\t// in\n    tag_452:\n        /* \"#utility.yul\":6822:6942   */\n    tag_451:\n        /* \"#utility.yul\":6981:6982   */\n      0x00\n        /* \"#utility.yul\":7006:7059   */\n      tag_453\n        /* \"#utility.yul\":7051:7058   */\n      dup8\n        /* \"#utility.yul\":7042:7048   */\n      dup3\n        /* \"#utility.yul\":7031:7040   */\n      dup9\n        /* \"#utility.yul\":7027:7049   */\n      add\n        /* \"#utility.yul\":7006:7059   */\n      tag_387\n      jump\t// in\n    tag_453:\n        /* \"#utility.yul\":6996:7059   */\n      swap5\n      pop\n        /* \"#utility.yul\":6952:7069   */\n      pop\n        /* \"#utility.yul\":7108:7110   */\n      0x20\n        /* \"#utility.yul\":7134:7187   */\n      tag_454\n        /* \"#utility.yul\":7179:7186   */\n      dup8\n        /* \"#utility.yul\":7170:7176   */\n      dup3\n        /* \"#utility.yul\":7159:7168   */\n      dup9\n        /* \"#utility.yul\":7155:7177   */\n      add\n        /* \"#utility.yul\":7134:7187   */\n      tag_360\n      jump\t// in\n    tag_454:\n        /* \"#utility.yul\":7124:7187   */\n      swap4\n      pop\n        /* \"#utility.yul\":7079:7197   */\n      pop\n        /* \"#utility.yul\":7264:7266   */\n      0x40\n        /* \"#utility.yul\":7253:7262   */\n      dup6\n        /* \"#utility.yul\":7249:7267   */\n      add\n        /* \"#utility.yul\":7236:7268   */\n      calldataload\n        /* \"#utility.yul\":7295:7313   */\n      0xffffffffffffffff\n        /* \"#utility.yul\":7287:7293   */\n      dup2\n        /* \"#utility.yul\":7284:7314   */\n      gt\n        /* \"#utility.yul\":7281:7398   */\n      iszero\n      tag_455\n      jumpi\n        /* \"#utility.yul\":7317:7396   */\n      tag_456\n      tag_457\n      jump\t// in\n    tag_456:\n        /* \"#utility.yul\":7281:7398   */\n    tag_455:\n        /* \"#utility.yul\":7422:7510   */\n      tag_458\n        /* \"#utility.yul\":7502:7509   */\n      dup8\n        /* \"#utility.yul\":7493:7499   */\n      dup3\n        /* \"#utility.yul\":7482:7491   */\n      dup9\n        /* \"#utility.yul\":7478:7500   */\n      add\n        /* \"#utility.yul\":7422:7510   */\n      tag_415\n      jump\t// in\n    tag_458:\n        /* \"#utility.yul\":7412:7510   */\n      swap3\n      pop\n        /* \"#utility.yul\":7207:7520   */\n      pop\n        /* \"#utility.yul\":7587:7589   */\n      0x60\n        /* \"#utility.yul\":7576:7585   */\n      dup6\n        /* \"#utility.yul\":7572:7590   */\n      add\n        /* \"#utility.yul\":7559:7591   */\n      calldataload\n        /* \"#utility.yul\":7618:7636   */\n      0xffffffffffffffff\n        /* \"#utility.yul\":7610:7616   */\n      dup2\n        /* \"#utility.yul\":7607:7637   */\n      gt\n        /* \"#utility.yul\":7604:7721   */\n      iszero\n      tag_459\n      jumpi\n        /* \"#utility.yul\":7640:7719   */\n      tag_460\n      tag_457\n      jump\t// in\n    tag_460:\n        /* \"#utility.yul\":7604:7721   */\n    tag_459:\n        /* \"#utility.yul\":7745:7823   */\n      tag_461\n        /* \"#utility.yul\":7815:7822   */\n      dup8\n        /* \"#utility.yul\":7806:7812   */\n      dup3\n        /* \"#utility.yul\":7795:7804   */\n      dup9\n        /* \"#utility.yul\":7791:7813   */\n      add\n        /* \"#utility.yul\":7745:7823   */\n      tag_420\n      jump\t// in\n    tag_461:\n        /* \"#utility.yul\":7735:7823   */\n      swap2\n      pop\n        /* \"#utility.yul\":7530:7833   */\n      pop\n        /* \"#utility.yul\":6635:7840   */\n      swap3\n      swap6\n      swap2\n      swap5\n      pop\n      swap3\n      pop\n      jump\t// out\n        /* \"#utility.yul\":7846:8675   */\n    tag_49:\n        /* \"#utility.yul\":7948:7954   */\n      0x00\n        /* \"#utility.yul\":7956:7962   */\n      dup1\n        /* \"#utility.yul\":7964:7970   */\n      0x00\n        /* \"#utility.yul\":8013:8015   */\n      0x60\n        /* \"#utility.yul\":8001:8010   */\n      dup5\n        /* \"#utility.yul\":7992:7999   */\n      dup7\n        /* \"#utility.yul\":7988:8011   */\n      sub\n        /* \"#utility.yul\":7984:8016   */\n      slt\n        /* \"#utility.yul\":7981:8100   */\n      iszero\n      tag_463\n      jumpi\n        /* \"#utility.yul\":8019:8098   */\n      tag_464\n      tag_439\n      jump\t// in\n    tag_464:\n        /* \"#utility.yul\":7981:8100   */\n    tag_463:\n        /* \"#utility.yul\":8139:8140   */\n      0x00\n        /* \"#utility.yul\":8164:8217   */\n      tag_465\n        /* \"#utility.yul\":8209:8216   */\n      dup7\n        /* \"#utility.yul\":8200:8206   */\n      dup3\n        /* \"#utility.yul\":8189:8198   */\n      dup8\n        /* \"#utility.yul\":8185:8207   */\n      add\n        /* \"#utility.yul\":8164:8217   */\n      tag_387\n      jump\t// in\n    tag_465:\n        /* \"#utility.yul\":8154:8217   */\n      swap4\n      pop\n        /* \"#utility.yul\":8110:8227   */\n      pop\n        /* \"#utility.yul\":8294:8296   */\n      0x20\n        /* \"#utility.yul\":8283:8292   */\n      dup5\n        /* \"#utility.yul\":8279:8297   */\n      add\n        /* \"#utility.yul\":8266:8298   */\n      calldataload\n        /* \"#utility.yul\":8325:8343   */\n      0xffffffffffffffff\n        /* \"#utility.yul\":8317:8323   */\n      dup2\n        /* \"#utility.yul\":8314:8344   */\n      gt\n        /* \"#utility.yul\":8311:8428   */\n      iszero\n      tag_466\n      jumpi\n        /* \"#utility.yul\":8347:8426   */\n      tag_467\n      tag_457\n      jump\t// in\n    tag_467:\n        /* \"#utility.yul\":8311:8428   */\n    tag_466:\n        /* \"#utility.yul\":8452:8530   */\n      tag_468\n        /* \"#utility.yul\":8522:8529   */\n      dup7\n        /* \"#utility.yul\":8513:8519   */\n      dup3\n        /* \"#utility.yul\":8502:8511   */\n      dup8\n        /* \"#utility.yul\":8498:8520   */\n      add\n        /* \"#utility.yul\":8452:8530   */\n      tag_401\n      jump\t// in\n    tag_468:\n        /* \"#utility.yul\":8442:8530   */\n      swap3\n      pop\n        /* \"#utility.yul\":8237:8540   */\n      pop\n        /* \"#utility.yul\":8579:8581   */\n      0x40\n        /* \"#utility.yul\":8605:8658   */\n      tag_469\n        /* \"#utility.yul\":8650:8657   */\n      dup7\n        /* \"#utility.yul\":8641:8647   */\n      dup3\n        /* \"#utility.yul\":8630:8639   */\n      dup8\n        /* \"#utility.yul\":8626:8648   */\n      add\n        /* \"#utility.yul\":8605:8658   */\n      tag_387\n      jump\t// in\n    tag_469:\n        /* \"#utility.yul\":8595:8658   */\n      swap2\n      pop\n        /* \"#utility.yul\":8550:8668   */\n      pop\n        /* \"#utility.yul\":7846:8675   */\n      swap3\n      pop\n      swap3\n      pop\n      swap3\n      jump\t// out\n        /* \"#utility.yul\":8681:10670   */\n    tag_36:\n        /* \"#utility.yul\":8875:8881   */\n      0x00\n        /* \"#utility.yul\":8883:8889   */\n      dup1\n        /* \"#utility.yul\":8891:8897   */\n      0x00\n        /* \"#utility.yul\":8899:8905   */\n      dup1\n        /* \"#utility.yul\":8907:8913   */\n      0x00\n        /* \"#utility.yul\":8915:8921   */\n      dup1\n        /* \"#utility.yul\":8923:8929   */\n      0x00\n        /* \"#utility.yul\":8931:8937   */\n      dup1\n        /* \"#utility.yul\":8939:8945   */\n      0x00\n        /* \"#utility.yul\":8988:8991   */\n      0x0100\n        /* \"#utility.yul\":8976:8985   */\n      dup11\n        /* \"#utility.yul\":8967:8974   */\n      dup13\n        /* \"#utility.yul\":8963:8986   */\n      sub\n        /* \"#utility.yul\":8959:8992   */\n      slt\n        /* \"#utility.yul\":8956:9076   */\n      iszero\n      tag_471\n      jumpi\n        /* \"#utility.yul\":8995:9074   */\n      tag_472\n      tag_439\n      jump\t// in\n    tag_472:\n        /* \"#utility.yul\":8956:9076   */\n    tag_471:\n        /* \"#utility.yul\":9115:9116   */\n      0x00\n        /* \"#utility.yul\":9140:9191   */\n      tag_473\n        /* \"#utility.yul\":9183:9190   */\n      dup13\n        /* \"#utility.yul\":9174:9180   */\n      dup3\n        /* \"#utility.yul\":9163:9172   */\n      dup14\n        /* \"#utility.yul\":9159:9181   */\n      add\n        /* \"#utility.yul\":9140:9191   */\n      tag_432\n      jump\t// in\n    tag_473:\n        /* \"#utility.yul\":9130:9191   */\n      swap10\n      pop\n        /* \"#utility.yul\":9086:9201   */\n      pop\n        /* \"#utility.yul\":9268:9270   */\n      0x20\n        /* \"#utility.yul\":9257:9266   */\n      dup11\n        /* \"#utility.yul\":9253:9271   */\n      add\n        /* \"#utility.yul\":9240:9272   */\n      calldataload\n        /* \"#utility.yul\":9299:9317   */\n      0xffffffffffffffff\n        /* \"#utility.yul\":9291:9297   */\n      dup2\n        /* \"#utility.yul\":9288:9318   */\n      gt\n        /* \"#utility.yul\":9285:9402   */\n      iszero\n      tag_474\n      jumpi\n        /* \"#utility.yul\":9321:9400   */\n      tag_475\n      tag_457\n      jump\t// in\n    tag_475:\n        /* \"#utility.yul\":9285:9402   */\n    tag_474:\n        /* \"#utility.yul\":9426:9504   */\n      tag_476\n        /* \"#utility.yul\":9496:9503   */\n      dup13\n        /* \"#utility.yul\":9487:9493   */\n      dup3\n        /* \"#utility.yul\":9476:9485   */\n      dup14\n        /* \"#utility.yul\":9472:9494   */\n      add\n        /* \"#utility.yul\":9426:9504   */\n      tag_401\n      jump\t// in\n    tag_476:\n        /* \"#utility.yul\":9416:9504   */\n      swap9\n      pop\n        /* \"#utility.yul\":9211:9514   */\n      pop\n        /* \"#utility.yul\":9553:9555   */\n      0x40\n        /* \"#utility.yul\":9579:9632   */\n      tag_477\n        /* \"#utility.yul\":9624:9631   */\n      dup13\n        /* \"#utility.yul\":9615:9621   */\n      dup3\n        /* \"#utility.yul\":9604:9613   */\n      dup14\n        /* \"#utility.yul\":9600:9622   */\n      add\n        /* \"#utility.yul\":9579:9632   */\n      tag_360\n      jump\t// in\n    tag_477:\n        /* \"#utility.yul\":9569:9632   */\n      swap8\n      pop\n        /* \"#utility.yul\":9524:9642   */\n      pop\n        /* \"#utility.yul\":9681:9683   */\n      0x60\n        /* \"#utility.yul\":9707:9760   */\n      tag_478\n        /* \"#utility.yul\":9752:9759   */\n      dup13\n        /* \"#utility.yul\":9743:9749   */\n      dup3\n        /* \"#utility.yul\":9732:9741   */\n      dup14\n        /* \"#utility.yul\":9728:9750   */\n      add\n        /* \"#utility.yul\":9707:9760   */\n      tag_387\n      jump\t// in\n    tag_478:\n        /* \"#utility.yul\":9697:9760   */\n      swap7\n      pop\n        /* \"#utility.yul\":9652:9770   */\n      pop\n        /* \"#utility.yul\":9809:9812   */\n      0x80\n        /* \"#utility.yul\":9836:9889   */\n      tag_479\n        /* \"#utility.yul\":9881:9888   */\n      dup13\n        /* \"#utility.yul\":9872:9878   */\n      dup3\n        /* \"#utility.yul\":9861:9870   */\n      dup14\n        /* \"#utility.yul\":9857:9879   */\n      add\n        /* \"#utility.yul\":9836:9889   */\n      tag_387\n      jump\t// in\n    tag_479:\n        /* \"#utility.yul\":9826:9889   */\n      swap6\n      pop\n        /* \"#utility.yul\":9780:9899   */\n      pop\n        /* \"#utility.yul\":9966:9969   */\n      0xa0\n        /* \"#utility.yul\":9955:9964   */\n      dup11\n        /* \"#utility.yul\":9951:9970   */\n      add\n        /* \"#utility.yul\":9938:9971   */\n      calldataload\n        /* \"#utility.yul\":9998:10016   */\n      0xffffffffffffffff\n        /* \"#utility.yul\":9990:9996   */\n      dup2\n        /* \"#utility.yul\":9987:10017   */\n      gt\n        /* \"#utility.yul\":9984:10101   */\n      iszero\n      tag_480\n      jumpi\n        /* \"#utility.yul\":10020:10099   */\n      tag_481\n      tag_457\n      jump\t// in\n    tag_481:\n        /* \"#utility.yul\":9984:10101   */\n    tag_480:\n        /* \"#utility.yul\":10125:10188   */\n      tag_482\n        /* \"#utility.yul\":10180:10187   */\n      dup13\n        /* \"#utility.yul\":10171:10177   */\n      dup3\n        /* \"#utility.yul\":10160:10169   */\n      dup14\n        /* \"#utility.yul\":10156:10178   */\n      add\n        /* \"#utility.yul\":10125:10188   */\n      tag_375\n      jump\t// in\n    tag_482:\n        /* \"#utility.yul\":10115:10188   */\n      swap5\n      pop\n        /* \"#utility.yul\":9909:10198   */\n      pop\n        /* \"#utility.yul\":10265:10268   */\n      0xc0\n        /* \"#utility.yul\":10254:10263   */\n      dup11\n        /* \"#utility.yul\":10250:10269   */\n      add\n        /* \"#utility.yul\":10237:10270   */\n      calldataload\n        /* \"#utility.yul\":10297:10315   */\n      0xffffffffffffffff\n        /* \"#utility.yul\":10289:10295   */\n      dup2\n        /* \"#utility.yul\":10286:10316   */\n      gt\n        /* \"#utility.yul\":10283:10400   */\n      iszero\n      tag_483\n      jumpi\n        /* \"#utility.yul\":10319:10398   */\n      tag_484\n      tag_457\n      jump\t// in\n    tag_484:\n        /* \"#utility.yul\":10283:10400   */\n    tag_483:\n        /* \"#utility.yul\":10432:10524   */\n      tag_485\n        /* \"#utility.yul\":10516:10523   */\n      dup13\n        /* \"#utility.yul\":10507:10513   */\n      dup3\n        /* \"#utility.yul\":10496:10505   */\n      dup14\n        /* \"#utility.yul\":10492:10514   */\n      add\n        /* \"#utility.yul\":10432:10524   */\n      tag_406\n      jump\t// in\n    tag_485:\n        /* \"#utility.yul\":10414:10524   */\n      swap4\n      pop\n      swap4\n      pop\n        /* \"#utility.yul\":10208:10534   */\n      pop\n        /* \"#utility.yul\":10573:10576   */\n      0xe0\n        /* \"#utility.yul\":10600:10653   */\n      tag_486\n        /* \"#utility.yul\":10645:10652   */\n      dup13\n        /* \"#utility.yul\":10636:10642   */\n      dup3\n        /* \"#utility.yul\":10625:10634   */\n      dup14\n        /* \"#utility.yul\":10621:10643   */\n      add\n        /* \"#utility.yul\":10600:10653   */\n      tag_387\n      jump\t// in\n    tag_486:\n        /* \"#utility.yul\":10590:10653   */\n      swap2\n      pop\n        /* \"#utility.yul\":10544:10663   */\n      pop\n        /* \"#utility.yul\":8681:10670   */\n      swap3\n      swap6\n      swap9\n      pop\n      swap3\n      swap6\n      swap9\n      pop\n      swap3\n      swap6\n      swap9\n      jump\t// out\n        /* \"#utility.yul\":10676:10855   */\n    tag_487:\n        /* \"#utility.yul\":10745:10755   */\n      0x00\n        /* \"#utility.yul\":10766:10812   */\n      tag_489\n        /* \"#utility.yul\":10808:10811   */\n      dup4\n        /* \"#utility.yul\":10800:10806   */\n      dup4\n        /* \"#utility.yul\":10766:10812   */\n      tag_490\n      jump\t// in\n    tag_489:\n        /* \"#utility.yul\":10844:10848   */\n      0x20\n        /* \"#utility.yul\":10839:10842   */\n      dup4\n        /* \"#utility.yul\":10835:10849   */\n      add\n        /* \"#utility.yul\":10821:10849   */\n      swap1\n      pop\n        /* \"#utility.yul\":10676:10855   */\n      swap3\n      swap2\n      pop\n      pop\n      jump\t// out\n        /* \"#utility.yul\":10861:11077   */\n    tag_491:\n        /* \"#utility.yul\":10960:10970   */\n      0x00\n        /* \"#utility.yul\":10995:11071   */\n      tag_493\n        /* \"#utility.yul\":11067:11070   */\n      dup5\n        /* \"#utility.yul\":11059:11065   */\n      dup5\n        /* \"#utility.yul\":11051:11057   */\n      dup5\n        /* \"#utility.yul\":10995:11071   */\n      tag_494\n      jump\t// in\n    tag_493:\n        /* \"#utility.yul\":10981:11071   */\n      swap1\n      pop\n        /* \"#utility.yul\":10861:11077   */\n      swap4\n      swap3\n      pop\n      pop\n      pop\n      jump\t// out\n        /* \"#utility.yul\":11083:11191   */\n    tag_490:\n        /* \"#utility.yul\":11160:11184   */\n      tag_496\n        /* \"#utility.yul\":11178:11183   */\n      dup2\n        /* \"#utility.yul\":11160:11184   */\n      tag_497\n      jump\t// in\n    tag_496:\n        /* \"#utility.yul\":11155:11158   */\n      dup3\n        /* \"#utility.yul\":11148:11185   */\n      mstore\n        /* \"#utility.yul\":11083:11191   */\n      pop\n      pop\n      jump\t// out\n        /* \"#utility.yul\":11197:11315   */\n    tag_498:\n        /* \"#utility.yul\":11284:11308   */\n      tag_500\n        /* \"#utility.yul\":11302:11307   */\n      dup2\n        /* \"#utility.yul\":11284:11308   */\n      tag_497\n      jump\t// in\n    tag_500:\n        /* \"#utility.yul\":11279:11282   */\n      dup3\n        /* \"#utility.yul\":11272:11309   */\n      mstore\n        /* \"#utility.yul\":11197:11315   */\n      pop\n      pop\n      jump\t// out\n        /* \"#utility.yul\":11351:12083   */\n    tag_501:\n        /* \"#utility.yul\":11470:11473   */\n      0x00\n        /* \"#utility.yul\":11499:11553   */\n      tag_503\n        /* \"#utility.yul\":11547:11552   */\n      dup3\n        /* \"#utility.yul\":11499:11553   */\n      tag_504\n      jump\t// in\n    tag_503:\n        /* \"#utility.yul\":11569:11655   */\n      tag_505\n        /* \"#utility.yul\":11648:11654   */\n      dup2\n        /* \"#utility.yul\":11643:11646   */\n      dup6\n        /* \"#utility.yul\":11569:11655   */\n      tag_506\n      jump\t// in\n    tag_505:\n        /* \"#utility.yul\":11562:11655   */\n      swap4\n      pop\n        /* \"#utility.yul\":11679:11735   */\n      tag_507\n        /* \"#utility.yul\":11729:11734   */\n      dup4\n        /* \"#utility.yul\":11679:11735   */\n      tag_508\n      jump\t// in\n    tag_507:\n        /* \"#utility.yul\":11758:11765   */\n      dup1\n        /* \"#utility.yul\":11789:11790   */\n      0x00\n        /* \"#utility.yul\":11774:12058   */\n    tag_509:\n        /* \"#utility.yul\":11799:11805   */\n      dup4\n        /* \"#utility.yul\":11796:11797   */\n      dup2\n        /* \"#utility.yul\":11793:11806   */\n      lt\n        /* \"#utility.yul\":11774:12058   */\n      iszero\n      tag_511\n      jumpi\n        /* \"#utility.yul\":11875:11881   */\n      dup2\n        /* \"#utility.yul\":11869:11882   */\n      mload\n        /* \"#utility.yul\":11902:11965   */\n      tag_512\n        /* \"#utility.yul\":11961:11964   */\n      dup9\n        /* \"#utility.yul\":11946:11959   */\n      dup3\n        /* \"#utility.yul\":11902:11965   */\n      tag_487\n      jump\t// in\n    tag_512:\n        /* \"#utility.yul\":11895:11965   */\n      swap8\n      pop\n        /* \"#utility.yul\":11988:12048   */\n      tag_513\n        /* \"#utility.yul\":12041:12047   */\n      dup4\n        /* \"#utility.yul\":11988:12048   */\n      tag_514\n      jump\t// in\n    tag_513:\n        /* \"#utility.yul\":11978:12048   */\n      swap3\n      pop\n        /* \"#utility.yul\":11834:12058   */\n      pop\n        /* \"#utility.yul\":11821:11822   */\n      0x01\n        /* \"#utility.yul\":11818:11819   */\n      dup2\n        /* \"#utility.yul\":11814:11823   */\n      add\n        /* \"#utility.yul\":11809:11823   */\n      swap1\n      pop\n        /* \"#utility.yul\":11774:12058   */\n      jump(tag_509)\n    tag_511:\n        /* \"#utility.yul\":11778:11792   */\n      pop\n        /* \"#utility.yul\":12074:12077   */\n      dup6\n        /* \"#utility.yul\":12067:12077   */\n      swap4\n      pop\n        /* \"#utility.yul\":11475:12083   */\n      pop\n      pop\n      pop\n        /* \"#utility.yul\":11351:12083   */\n      swap3\n      swap2\n      pop\n      pop\n      jump\t// out\n        /* \"#utility.yul\":12117:13115   */\n    tag_515:\n        /* \"#utility.yul\":12268:12271   */\n      0x00\n        /* \"#utility.yul\":12291:12387   */\n      tag_517\n        /* \"#utility.yul\":12380:12386   */\n      dup4\n        /* \"#utility.yul\":12375:12378   */\n      dup6\n        /* \"#utility.yul\":12291:12387   */\n      tag_518\n      jump\t// in\n    tag_517:\n        /* \"#utility.yul\":12284:12387   */\n      swap4\n      pop\n        /* \"#utility.yul\":12413:12416   */\n      dup4\n        /* \"#utility.yul\":12458:12462   */\n      0x20\n        /* \"#utility.yul\":12450:12456   */\n      dup5\n        /* \"#utility.yul\":12446:12463   */\n      mul\n        /* \"#utility.yul\":12441:12444   */\n      dup6\n        /* \"#utility.yul\":12437:12464   */\n      add\n        /* \"#utility.yul\":12488:12558   */\n      tag_519\n        /* \"#utility.yul\":12552:12557   */\n      dup5\n        /* \"#utility.yul\":12488:12558   */\n      tag_520\n      jump\t// in\n    tag_519:\n        /* \"#utility.yul\":12581:12588   */\n      dup1\n        /* \"#utility.yul\":12612:12613   */\n      0x00\n        /* \"#utility.yul\":12597:13070   */\n    tag_521:\n        /* \"#utility.yul\":12622:12628   */\n      dup8\n        /* \"#utility.yul\":12619:12620   */\n      dup2\n        /* \"#utility.yul\":12616:12629   */\n      lt\n        /* \"#utility.yul\":12597:13070   */\n      iszero\n      tag_523\n      jumpi\n        /* \"#utility.yul\":12693:12702   */\n      dup5\n        /* \"#utility.yul\":12687:12691   */\n      dup5\n        /* \"#utility.yul\":12683:12703   */\n      sub\n        /* \"#utility.yul\":12678:12681   */\n      dup10\n        /* \"#utility.yul\":12671:12704   */\n      mstore\n        /* \"#utility.yul\":12753:12807   */\n      tag_524\n        /* \"#utility.yul\":12800:12806   */\n      dup3\n        /* \"#utility.yul\":12791:12798   */\n      dup5\n        /* \"#utility.yul\":12753:12807   */\n      tag_525\n      jump\t// in\n    tag_524:\n        /* \"#utility.yul\":12828:12929   */\n      tag_526\n        /* \"#utility.yul\":12924:12928   */\n      dup7\n        /* \"#utility.yul\":12909:12922   */\n      dup3\n        /* \"#utility.yul\":12894:12907   */\n      dup5\n        /* \"#utility.yul\":12828:12929   */\n      tag_491\n      jump\t// in\n    tag_526:\n        /* \"#utility.yul\":12820:12929   */\n      swap6\n      pop\n        /* \"#utility.yul\":12952:13026   */\n      tag_527\n        /* \"#utility.yul\":13019:13025   */\n      dup5\n        /* \"#utility.yul\":12952:13026   */\n      tag_528\n      jump\t// in\n    tag_527:\n        /* \"#utility.yul\":12942:13026   */\n      swap4\n      pop\n        /* \"#utility.yul\":13055:13059   */\n      0x20\n        /* \"#utility.yul\":13050:13053   */\n      dup12\n        /* \"#utility.yul\":13046:13060   */\n      add\n        /* \"#utility.yul\":13039:13060   */\n      swap11\n      pop\n        /* \"#utility.yul\":12657:13070   */\n      pop\n      pop\n        /* \"#utility.yul\":12644:12645   */\n      0x01\n        /* \"#utility.yul\":12641:12642   */\n      dup2\n        /* \"#utility.yul\":12637:12646   */\n      add\n        /* \"#utility.yul\":12632:12646   */\n      swap1\n      pop\n        /* \"#utility.yul\":12597:13070   */\n      jump(tag_521)\n    tag_523:\n        /* \"#utility.yul\":12601:12615   */\n      pop\n        /* \"#utility.yul\":13086:13090   */\n      dup3\n        /* \"#utility.yul\":13079:13090   */\n      swap8\n      pop\n        /* \"#utility.yul\":13106:13109   */\n      dup8\n        /* \"#utility.yul\":13099:13109   */\n      swap5\n      pop\n        /* \"#utility.yul\":12273:13115   */\n      pop\n      pop\n      pop\n      pop\n        /* \"#utility.yul\":12117:13115   */\n      swap4\n      swap3\n      pop\n      pop\n      pop\n      jump\t// out\n        /* \"#utility.yul\":13121:13230   */\n    tag_529:\n        /* \"#utility.yul\":13202:13223   */\n      tag_531\n        /* \"#utility.yul\":13217:13222   */\n      dup2\n        /* \"#utility.yul\":13202:13223   */\n      tag_532\n      jump\t// in\n    tag_531:\n        /* \"#utility.yul\":13197:13200   */\n      dup3\n        /* \"#utility.yul\":13190:13224   */\n      mstore\n        /* \"#utility.yul\":13121:13230   */\n      pop\n      pop\n      jump\t// out\n        /* \"#utility.yul\":13260:13544   */\n    tag_494:\n        /* \"#utility.yul\":13348:13351   */\n      0x00\n        /* \"#utility.yul\":13369:13430   */\n      tag_534\n        /* \"#utility.yul\":13423:13429   */\n      dup4\n        /* \"#utility.yul\":13418:13421   */\n      dup6\n        /* \"#utility.yul\":13369:13430   */\n      tag_535\n      jump\t// in\n    tag_534:\n        /* \"#utility.yul\":13362:13430   */\n      swap4\n      pop\n        /* \"#utility.yul\":13440:13483   */\n      tag_536\n        /* \"#utility.yul\":13476:13482   */\n      dup4\n        /* \"#utility.yul\":13471:13474   */\n      dup6\n        /* \"#utility.yul\":13464:13469   */\n      dup5\n        /* \"#utility.yul\":13440:13483   */\n      tag_397\n      jump\t// in\n    tag_536:\n        /* \"#utility.yul\":13508:13537   */\n      tag_537\n        /* \"#utility.yul\":13530:13536   */\n      dup4\n        /* \"#utility.yul\":13508:13537   */\n      tag_538\n      jump\t// in\n    tag_537:\n        /* \"#utility.yul\":13503:13506   */\n      dup5\n        /* \"#utility.yul\":13499:13538   */\n      add\n        /* \"#utility.yul\":13492:13538   */\n      swap1\n      pop\n        /* \"#utility.yul\":13260:13544   */\n      swap4\n      swap3\n      pop\n      pop\n      pop\n      jump\t// out\n        /* \"#utility.yul\":13574:13891   */\n    tag_539:\n        /* \"#utility.yul\":13690:13693   */\n      0x00\n        /* \"#utility.yul\":13711:13800   */\n      tag_541\n        /* \"#utility.yul\":13793:13799   */\n      dup4\n        /* \"#utility.yul\":13788:13791   */\n      dup6\n        /* \"#utility.yul\":13711:13800   */\n      tag_542\n      jump\t// in\n    tag_541:\n        /* \"#utility.yul\":13704:13800   */\n      swap4\n      pop\n        /* \"#utility.yul\":13810:13853   */\n      tag_543\n        /* \"#utility.yul\":13846:13852   */\n      dup4\n        /* \"#utility.yul\":13841:13844   */\n      dup6\n        /* \"#utility.yul\":13834:13839   */\n      dup5\n        /* \"#utility.yul\":13810:13853   */\n      tag_397\n      jump\t// in\n    tag_543:\n        /* \"#utility.yul\":13878:13884   */\n      dup3\n        /* \"#utility.yul\":13873:13876   */\n      dup5\n        /* \"#utility.yul\":13869:13885   */\n      add\n        /* \"#utility.yul\":13862:13885   */\n      swap1\n      pop\n        /* \"#utility.yul\":13574:13891   */\n      swap4\n      swap3\n      pop\n      pop\n      pop\n      jump\t// out\n        /* \"#utility.yul\":13897:14261   */\n    tag_544:\n        /* \"#utility.yul\":13985:13988   */\n      0x00\n        /* \"#utility.yul\":14013:14052   */\n      tag_546\n        /* \"#utility.yul\":14046:14051   */\n      dup3\n        /* \"#utility.yul\":14013:14052   */\n      tag_547\n      jump\t// in\n    tag_546:\n        /* \"#utility.yul\":14068:14139   */\n      tag_548\n        /* \"#utility.yul\":14132:14138   */\n      dup2\n        /* \"#utility.yul\":14127:14130   */\n      dup6\n        /* \"#utility.yul\":14068:14139   */\n      tag_549\n      jump\t// in\n    tag_548:\n        /* \"#utility.yul\":14061:14139   */\n      swap4\n      pop\n        /* \"#utility.yul\":14148:14200   */\n      tag_550\n        /* \"#utility.yul\":14193:14199   */\n      dup2\n        /* \"#utility.yul\":14188:14191   */\n      dup6\n        /* \"#utility.yul\":14181:14185   */\n      0x20\n        /* \"#utility.yul\":14174:14179   */\n      dup7\n        /* \"#utility.yul\":14170:14186   */\n      add\n        /* \"#utility.yul\":14148:14200   */\n      tag_551\n      jump\t// in\n    tag_550:\n        /* \"#utility.yul\":14225:14254   */\n      tag_552\n        /* \"#utility.yul\":14247:14253   */\n      dup2\n        /* \"#utility.yul\":14225:14254   */\n      tag_538\n      jump\t// in\n    tag_552:\n        /* \"#utility.yul\":14220:14223   */\n      dup5\n        /* \"#utility.yul\":14216:14255   */\n      add\n        /* \"#utility.yul\":14209:14255   */\n      swap2\n      pop\n        /* \"#utility.yul\":13989:14261   */\n      pop\n        /* \"#utility.yul\":13897:14261   */\n      swap3\n      swap2\n      pop\n      pop\n      jump\t// out\n        /* \"#utility.yul\":14267:14644   */\n    tag_553:\n        /* \"#utility.yul\":14373:14376   */\n      0x00\n        /* \"#utility.yul\":14401:14440   */\n      tag_555\n        /* \"#utility.yul\":14434:14439   */\n      dup3\n        /* \"#utility.yul\":14401:14440   */\n      tag_547\n      jump\t// in\n    tag_555:\n        /* \"#utility.yul\":14456:14545   */\n      tag_556\n        /* \"#utility.yul\":14538:14544   */\n      dup2\n        /* \"#utility.yul\":14533:14536   */\n      dup6\n        /* \"#utility.yul\":14456:14545   */\n      tag_542\n      jump\t// in\n    tag_556:\n        /* \"#utility.yul\":14449:14545   */\n      swap4\n      pop\n        /* \"#utility.yul\":14554:14606   */\n      tag_557\n        /* \"#utility.yul\":14599:14605   */\n      dup2\n        /* \"#utility.yul\":14594:14597   */\n      dup6\n        /* \"#utility.yul\":14587:14591   */\n      0x20\n        /* \"#utility.yul\":14580:14585   */\n      dup7\n        /* \"#utility.yul\":14576:14592   */\n      add\n        /* \"#utility.yul\":14554:14606   */\n      tag_551\n      jump\t// in\n    tag_557:\n        /* \"#utility.yul\":14631:14637   */\n      dup1\n        /* \"#utility.yul\":14626:14629   */\n      dup5\n        /* \"#utility.yul\":14622:14638   */\n      add\n        /* \"#utility.yul\":14615:14638   */\n      swap2\n      pop\n        /* \"#utility.yul\":14377:14644   */\n      pop\n        /* \"#utility.yul\":14267:14644   */\n      swap3\n      swap2\n      pop\n      pop\n      jump\t// out\n        /* \"#utility.yul\":14674:15519   */\n    tag_558:\n        /* \"#utility.yul\":14777:14780   */\n      0x00\n        /* \"#utility.yul\":14814:14819   */\n      dup2\n        /* \"#utility.yul\":14808:14820   */\n      sload\n        /* \"#utility.yul\":14843:14879   */\n      tag_560\n        /* \"#utility.yul\":14869:14878   */\n      dup2\n        /* \"#utility.yul\":14843:14879   */\n      tag_73\n      jump\t// in\n    tag_560:\n        /* \"#utility.yul\":14895:14984   */\n      tag_561\n        /* \"#utility.yul\":14977:14983   */\n      dup2\n        /* \"#utility.yul\":14972:14975   */\n      dup7\n        /* \"#utility.yul\":14895:14984   */\n      tag_542\n      jump\t// in\n    tag_561:\n        /* \"#utility.yul\":14888:14984   */\n      swap5\n      pop\n        /* \"#utility.yul\":15015:15016   */\n      0x01\n        /* \"#utility.yul\":15004:15013   */\n      dup3\n        /* \"#utility.yul\":15000:15017   */\n      and\n        /* \"#utility.yul\":15031:15032   */\n      0x00\n        /* \"#utility.yul\":15026:15163   */\n      dup2\n      eq\n      tag_563\n      jumpi\n        /* \"#utility.yul\":15177:15178   */\n      0x01\n        /* \"#utility.yul\":15172:15513   */\n      dup2\n      eq\n      tag_564\n      jumpi\n        /* \"#utility.yul\":14993:15513   */\n      jump(tag_562)\n        /* \"#utility.yul\":15026:15163   */\n    tag_563:\n        /* \"#utility.yul\":15110:15114   */\n      0xff\n        /* \"#utility.yul\":15106:15115   */\n      not\n        /* \"#utility.yul\":15095:15104   */\n      dup4\n        /* \"#utility.yul\":15091:15116   */\n      and\n        /* \"#utility.yul\":15086:15089   */\n      dup7\n        /* \"#utility.yul\":15079:15117   */\n      mstore\n        /* \"#utility.yul\":15146:15152   */\n      dup2\n        /* \"#utility.yul\":15141:15144   */\n      dup7\n        /* \"#utility.yul\":15137:15153   */\n      add\n        /* \"#utility.yul\":15130:15153   */\n      swap4\n      pop\n        /* \"#utility.yul\":15026:15163   */\n      jump(tag_562)\n        /* \"#utility.yul\":15172:15513   */\n    tag_564:\n        /* \"#utility.yul\":15239:15277   */\n      tag_565\n        /* \"#utility.yul\":15271:15276   */\n      dup6\n        /* \"#utility.yul\":15239:15277   */\n      tag_566\n      jump\t// in\n    tag_565:\n        /* \"#utility.yul\":15299:15300   */\n      0x00\n        /* \"#utility.yul\":15313:15467   */\n    tag_567:\n        /* \"#utility.yul\":15327:15333   */\n      dup4\n        /* \"#utility.yul\":15324:15325   */\n      dup2\n        /* \"#utility.yul\":15321:15334   */\n      lt\n        /* \"#utility.yul\":15313:15467   */\n      iszero\n      tag_569\n      jumpi\n        /* \"#utility.yul\":15401:15408   */\n      dup2\n        /* \"#utility.yul\":15395:15409   */\n      sload\n        /* \"#utility.yul\":15391:15392   */\n      dup2\n        /* \"#utility.yul\":15386:15389   */\n      dup10\n        /* \"#utility.yul\":15382:15393   */\n      add\n        /* \"#utility.yul\":15375:15410   */\n      mstore\n        /* \"#utility.yul\":15451:15452   */\n      0x01\n        /* \"#utility.yul\":15442:15449   */\n      dup3\n        /* \"#utility.yul\":15438:15453   */\n      add\n        /* \"#utility.yul\":15427:15453   */\n      swap2\n      pop\n        /* \"#utility.yul\":15349:15353   */\n      0x20\n        /* \"#utility.yul\":15346:15347   */\n      dup2\n        /* \"#utility.yul\":15342:15354   */\n      add\n        /* \"#utility.yul\":15337:15354   */\n      swap1\n      pop\n        /* \"#utility.yul\":15313:15467   */\n      jump(tag_567)\n    tag_569:\n        /* \"#utility.yul\":15496:15502   */\n      dup4\n        /* \"#utility.yul\":15491:15494   */\n      dup9\n        /* \"#utility.yul\":15487:15503   */\n      add\n        /* \"#utility.yul\":15480:15503   */\n      swap6\n      pop\n        /* \"#utility.yul\":15179:15513   */\n      pop\n      pop\n        /* \"#utility.yul\":14993:15513   */\n    tag_562:\n      pop\n        /* \"#utility.yul\":14781:15519   */\n      pop\n      pop\n        /* \"#utility.yul\":14674:15519   */\n      swap3\n      swap2\n      pop\n      pop\n      jump\t// out\n        /* \"#utility.yul\":15525:15891   */\n    tag_570:\n        /* \"#utility.yul\":15667:15670   */\n      0x00\n        /* \"#utility.yul\":15688:15755   */\n      tag_572\n        /* \"#utility.yul\":15752:15754   */\n      0x12\n        /* \"#utility.yul\":15747:15750   */\n      dup4\n        /* \"#utility.yul\":15688:15755   */\n      tag_549\n      jump\t// in\n    tag_572:\n        /* \"#utility.yul\":15681:15755   */\n      swap2\n      pop\n        /* \"#utility.yul\":15764:15857   */\n      tag_573\n        /* \"#utility.yul\":15853:15856   */\n      dup3\n        /* \"#utility.yul\":15764:15857   */\n      tag_574\n      jump\t// in\n    tag_573:\n        /* \"#utility.yul\":15882:15884   */\n      0x20\n        /* \"#utility.yul\":15877:15880   */\n      dup3\n        /* \"#utility.yul\":15873:15885   */\n      add\n        /* \"#utility.yul\":15866:15885   */\n      swap1\n      pop\n        /* \"#utility.yul\":15525:15891   */\n      swap2\n      swap1\n      pop\n      jump\t// out\n        /* \"#utility.yul\":15897:16263   */\n    tag_575:\n        /* \"#utility.yul\":16039:16042   */\n      0x00\n        /* \"#utility.yul\":16060:16127   */\n      tag_577\n        /* \"#utility.yul\":16124:16126   */\n      0x2c\n        /* \"#utility.yul\":16119:16122   */\n      dup4\n        /* \"#utility.yul\":16060:16127   */\n      tag_549\n      jump\t// in\n    tag_577:\n        /* \"#utility.yul\":16053:16127   */\n      swap2\n      pop\n        /* \"#utility.yul\":16136:16229   */\n      tag_578\n        /* \"#utility.yul\":16225:16228   */\n      dup3\n        /* \"#utility.yul\":16136:16229   */\n      tag_579\n      jump\t// in\n    tag_578:\n        /* \"#utility.yul\":16254:16256   */\n      0x40\n        /* \"#utility.yul\":16249:16252   */\n      dup3\n        /* \"#utility.yul\":16245:16257   */\n      add\n        /* \"#utility.yul\":16238:16257   */\n      swap1\n      pop\n        /* \"#utility.yul\":15897:16263   */\n      swap2\n      swap1\n      pop\n      jump\t// out\n        /* \"#utility.yul\":16269:16635   */\n    tag_580:\n        /* \"#utility.yul\":16411:16414   */\n      0x00\n        /* \"#utility.yul\":16432:16499   */\n      tag_582\n        /* \"#utility.yul\":16496:16498   */\n      0x22\n        /* \"#utility.yul\":16491:16494   */\n      dup4\n        /* \"#utility.yul\":16432:16499   */\n      tag_549\n      jump\t// in\n    tag_582:\n        /* \"#utility.yul\":16425:16499   */\n      swap2\n      pop\n        /* \"#utility.yul\":16508:16601   */\n      tag_583\n        /* \"#utility.yul\":16597:16600   */\n      dup3\n        /* \"#utility.yul\":16508:16601   */\n      tag_584\n      jump\t// in\n    tag_583:\n        /* \"#utility.yul\":16626:16628   */\n      0x40\n        /* \"#utility.yul\":16621:16624   */\n      dup3\n        /* \"#utility.yul\":16617:16629   */\n      add\n        /* \"#utility.yul\":16610:16629   */\n      swap1\n      pop\n        /* \"#utility.yul\":16269:16635   */\n      swap2\n      swap1\n      pop\n      jump\t// out\n        /* \"#utility.yul\":16641:17007   */\n    tag_585:\n        /* \"#utility.yul\":16783:16786   */\n      0x00\n        /* \"#utility.yul\":16804:16871   */\n      tag_587\n        /* \"#utility.yul\":16868:16870   */\n      0x0d\n        /* \"#utility.yul\":16863:16866   */\n      dup4\n        /* \"#utility.yul\":16804:16871   */\n      tag_549\n      jump\t// in\n    tag_587:\n        /* \"#utility.yul\":16797:16871   */\n      swap2\n      pop\n        /* \"#utility.yul\":16880:16973   */\n      tag_588\n        /* \"#utility.yul\":16969:16972   */\n      dup3\n        /* \"#utility.yul\":16880:16973   */\n      tag_589\n      jump\t// in\n    tag_588:\n        /* \"#utility.yul\":16998:17000   */\n      0x20\n        /* \"#utility.yul\":16993:16996   */\n      dup3\n        /* \"#utility.yul\":16989:17001   */\n      add\n        /* \"#utility.yul\":16982:17001   */\n      swap1\n      pop\n        /* \"#utility.yul\":16641:17007   */\n      swap2\n      swap1\n      pop\n      jump\t// out\n        /* \"#utility.yul\":17013:17379   */\n    tag_590:\n        /* \"#utility.yul\":17155:17158   */\n      0x00\n        /* \"#utility.yul\":17176:17243   */\n      tag_592\n        /* \"#utility.yul\":17240:17242   */\n      0x1b\n        /* \"#utility.yul\":17235:17238   */\n      dup4\n        /* \"#utility.yul\":17176:17243   */\n      tag_549\n      jump\t// in\n    tag_592:\n        /* \"#utility.yul\":17169:17243   */\n      swap2\n      pop\n        /* \"#utility.yul\":17252:17345   */\n      tag_593\n        /* \"#utility.yul\":17341:17344   */\n      dup3\n        /* \"#utility.yul\":17252:17345   */\n      tag_594\n      jump\t// in\n    tag_593:\n        /* \"#utility.yul\":17370:17372   */\n      0x20\n        /* \"#utility.yul\":17365:17368   */\n      dup3\n        /* \"#utility.yul\":17361:17373   */\n      add\n        /* \"#utility.yul\":17354:17373   */\n      swap1\n      pop\n        /* \"#utility.yul\":17013:17379   */\n      swap2\n      swap1\n      pop\n      jump\t// out\n        /* \"#utility.yul\":17385:17751   */\n    tag_595:\n        /* \"#utility.yul\":17527:17530   */\n      0x00\n        /* \"#utility.yul\":17548:17615   */\n      tag_597\n        /* \"#utility.yul\":17612:17614   */\n      0x14\n        /* \"#utility.yul\":17607:17610   */\n      dup4\n        /* \"#utility.yul\":17548:17615   */\n      tag_549\n      jump\t// in\n    tag_597:\n        /* \"#utility.yul\":17541:17615   */\n      swap2\n      pop\n        /* \"#utility.yul\":17624:17717   */\n      tag_598\n        /* \"#utility.yul\":17713:17716   */\n      dup3\n        /* \"#utility.yul\":17624:17717   */\n      tag_599\n      jump\t// in\n    tag_598:\n        /* \"#utility.yul\":17742:17744   */\n      0x20\n        /* \"#utility.yul\":17737:17740   */\n      dup3\n        /* \"#utility.yul\":17733:17745   */\n      add\n        /* \"#utility.yul\":17726:17745   */\n      swap1\n      pop\n        /* \"#utility.yul\":17385:17751   */\n      swap2\n      swap1\n      pop\n      jump\t// out\n        /* \"#utility.yul\":17757:18123   */\n    tag_600:\n        /* \"#utility.yul\":17899:17902   */\n      0x00\n        /* \"#utility.yul\":17920:17987   */\n      tag_602\n        /* \"#utility.yul\":17984:17986   */\n      0x23\n        /* \"#utility.yul\":17979:17982   */\n      dup4\n        /* \"#utility.yul\":17920:17987   */\n      tag_549\n      jump\t// in\n    tag_602:\n        /* \"#utility.yul\":17913:17987   */\n      swap2\n      pop\n        /* \"#utility.yul\":17996:18089   */\n      tag_603\n        /* \"#utility.yul\":18085:18088   */\n      dup3\n        /* \"#utility.yul\":17996:18089   */\n      tag_604\n      jump\t// in\n    tag_603:\n        /* \"#utility.yul\":18114:18116   */\n      0x40\n        /* \"#utility.yul\":18109:18112   */\n      dup3\n        /* \"#utility.yul\":18105:18117   */\n      add\n        /* \"#utility.yul\":18098:18117   */\n      swap1\n      pop\n        /* \"#utility.yul\":17757:18123   */\n      swap2\n      swap1\n      pop\n      jump\t// out\n        /* \"#utility.yul\":18129:18495   */\n    tag_605:\n        /* \"#utility.yul\":18271:18274   */\n      0x00\n        /* \"#utility.yul\":18292:18359   */\n      tag_607\n        /* \"#utility.yul\":18356:18358   */\n      0x14\n        /* \"#utility.yul\":18351:18354   */\n      dup4\n        /* \"#utility.yul\":18292:18359   */\n      tag_549\n      jump\t// in\n    tag_607:\n        /* \"#utility.yul\":18285:18359   */\n      swap2\n      pop\n        /* \"#utility.yul\":18368:18461   */\n      tag_608\n        /* \"#utility.yul\":18457:18460   */\n      dup3\n        /* \"#utility.yul\":18368:18461   */\n      tag_609\n      jump\t// in\n    tag_608:\n        /* \"#utility.yul\":18486:18488   */\n      0x20\n        /* \"#utility.yul\":18481:18484   */\n      dup3\n        /* \"#utility.yul\":18477:18489   */\n      add\n        /* \"#utility.yul\":18470:18489   */\n      swap1\n      pop\n        /* \"#utility.yul\":18129:18495   */\n      swap2\n      swap1\n      pop\n      jump\t// out\n        /* \"#utility.yul\":18501:18867   */\n    tag_610:\n        /* \"#utility.yul\":18643:18646   */\n      0x00\n        /* \"#utility.yul\":18664:18731   */\n      tag_612\n        /* \"#utility.yul\":18728:18730   */\n      0x23\n        /* \"#utility.yul\":18723:18726   */\n      dup4\n        /* \"#utility.yul\":18664:18731   */\n      tag_549\n      jump\t// in\n    tag_612:\n        /* \"#utility.yul\":18657:18731   */\n      swap2\n      pop\n        /* \"#utility.yul\":18740:18833   */\n      tag_613\n        /* \"#utility.yul\":18829:18832   */\n      dup3\n        /* \"#utility.yul\":18740:18833   */\n      tag_614\n      jump\t// in\n    tag_613:\n        /* \"#utility.yul\":18858:18860   */\n      0x40\n        /* \"#utility.yul\":18853:18856   */\n      dup3\n        /* \"#utility.yul\":18849:18861   */\n      add\n        /* \"#utility.yul\":18842:18861   */\n      swap1\n      pop\n        /* \"#utility.yul\":18501:18867   */\n      swap2\n      swap1\n      pop\n      jump\t// out\n        /* \"#utility.yul\":18873:19239   */\n    tag_615:\n        /* \"#utility.yul\":19015:19018   */\n      0x00\n        /* \"#utility.yul\":19036:19103   */\n      tag_617\n        /* \"#utility.yul\":19100:19102   */\n      0x12\n        /* \"#utility.yul\":19095:19098   */\n      dup4\n        /* \"#utility.yul\":19036:19103   */\n      tag_549\n      jump\t// in\n    tag_617:\n        /* \"#utility.yul\":19029:19103   */\n      swap2\n      pop\n        /* \"#utility.yul\":19112:19205   */\n      tag_618\n        /* \"#utility.yul\":19201:19204   */\n      dup3\n        /* \"#utility.yul\":19112:19205   */\n      tag_619\n      jump\t// in\n    tag_618:\n        /* \"#utility.yul\":19230:19232   */\n      0x20\n        /* \"#utility.yul\":19225:19228   */\n      dup3\n        /* \"#utility.yul\":19221:19233   */\n      add\n        /* \"#utility.yul\":19214:19233   */\n      swap1\n      pop\n        /* \"#utility.yul\":18873:19239   */\n      swap2\n      swap1\n      pop\n      jump\t// out\n        /* \"#utility.yul\":19245:19611   */\n    tag_620:\n        /* \"#utility.yul\":19387:19390   */\n      0x00\n        /* \"#utility.yul\":19408:19475   */\n      tag_622\n        /* \"#utility.yul\":19472:19474   */\n      0x23\n        /* \"#utility.yul\":19467:19470   */\n      dup4\n        /* \"#utility.yul\":19408:19475   */\n      tag_549\n      jump\t// in\n    tag_622:\n        /* \"#utility.yul\":19401:19475   */\n      swap2\n      pop\n        /* \"#utility.yul\":19484:19577   */\n      tag_623\n        /* \"#utility.yul\":19573:19576   */\n      dup3\n        /* \"#utility.yul\":19484:19577   */\n      tag_624\n      jump\t// in\n    tag_623:\n        /* \"#utility.yul\":19602:19604   */\n      0x40\n        /* \"#utility.yul\":19597:19600   */\n      dup3\n        /* \"#utility.yul\":19593:19605   */\n      add\n        /* \"#utility.yul\":19586:19605   */\n      swap1\n      pop\n        /* \"#utility.yul\":19245:19611   */\n      swap2\n      swap1\n      pop\n      jump\t// out\n        /* \"#utility.yul\":19617:19983   */\n    tag_625:\n        /* \"#utility.yul\":19759:19762   */\n      0x00\n        /* \"#utility.yul\":19780:19847   */\n      tag_627\n        /* \"#utility.yul\":19844:19846   */\n      0x2a\n        /* \"#utility.yul\":19839:19842   */\n      dup4\n        /* \"#utility.yul\":19780:19847   */\n      tag_549\n      jump\t// in\n    tag_627:\n        /* \"#utility.yul\":19773:19847   */\n      swap2\n      pop\n        /* \"#utility.yul\":19856:19949   */\n      tag_628\n        /* \"#utility.yul\":19945:19948   */\n      dup3\n        /* \"#utility.yul\":19856:19949   */\n      tag_629\n      jump\t// in\n    tag_628:\n        /* \"#utility.yul\":19974:19976   */\n      0x40\n        /* \"#utility.yul\":19969:19972   */\n      dup3\n        /* \"#utility.yul\":19965:19977   */\n      add\n        /* \"#utility.yul\":19958:19977   */\n      swap1\n      pop\n        /* \"#utility.yul\":19617:19983   */\n      swap2\n      swap1\n      pop\n      jump\t// out\n        /* \"#utility.yul\":19989:20355   */\n    tag_630:\n        /* \"#utility.yul\":20131:20134   */\n      0x00\n        /* \"#utility.yul\":20152:20219   */\n      tag_632\n        /* \"#utility.yul\":20216:20218   */\n      0x21\n        /* \"#utility.yul\":20211:20214   */\n      dup4\n        /* \"#utility.yul\":20152:20219   */\n      tag_549\n      jump\t// in\n    tag_632:\n        /* \"#utility.yul\":20145:20219   */\n      swap2\n      pop\n        /* \"#utility.yul\":20228:20321   */\n      tag_633\n        /* \"#utility.yul\":20317:20320   */\n      dup3\n        /* \"#utility.yul\":20228:20321   */\n      tag_634\n      jump\t// in\n    tag_633:\n        /* \"#utility.yul\":20346:20348   */\n      0x40\n        /* \"#utility.yul\":20341:20344   */\n      dup3\n        /* \"#utility.yul\":20337:20349   */\n      add\n        /* \"#utility.yul\":20330:20349   */\n      swap1\n      pop\n        /* \"#utility.yul\":19989:20355   */\n      swap2\n      swap1\n      pop\n      jump\t// out\n        /* \"#utility.yul\":20361:20727   */\n    tag_635:\n        /* \"#utility.yul\":20503:20506   */\n      0x00\n        /* \"#utility.yul\":20524:20591   */\n      tag_637\n        /* \"#utility.yul\":20588:20590   */\n      0x15\n        /* \"#utility.yul\":20583:20586   */\n      dup4\n        /* \"#utility.yul\":20524:20591   */\n      tag_549\n      jump\t// in\n    tag_637:\n        /* \"#utility.yul\":20517:20591   */\n      swap2\n      pop\n        /* \"#utility.yul\":20600:20693   */\n      tag_638\n        /* \"#utility.yul\":20689:20692   */\n      dup3\n        /* \"#utility.yul\":20600:20693   */\n      tag_639\n      jump\t// in\n    tag_638:\n        /* \"#utility.yul\":20718:20720   */\n      0x20\n        /* \"#utility.yul\":20713:20716   */\n      dup3\n        /* \"#utility.yul\":20709:20721   */\n      add\n        /* \"#utility.yul\":20702:20721   */\n      swap1\n      pop\n        /* \"#utility.yul\":20361:20727   */\n      swap2\n      swap1\n      pop\n      jump\t// out\n        /* \"#utility.yul\":20733:21099   */\n    tag_640:\n        /* \"#utility.yul\":20875:20878   */\n      0x00\n        /* \"#utility.yul\":20896:20963   */\n      tag_642\n        /* \"#utility.yul\":20960:20962   */\n      0x24\n        /* \"#utility.yul\":20955:20958   */\n      dup4\n        /* \"#utility.yul\":20896:20963   */\n      tag_549\n      jump\t// in\n    tag_642:\n        /* \"#utility.yul\":20889:20963   */\n      swap2\n      pop\n        /* \"#utility.yul\":20972:21065   */\n      tag_643\n        /* \"#utility.yul\":21061:21064   */\n      dup3\n        /* \"#utility.yul\":20972:21065   */\n      tag_644\n      jump\t// in\n    tag_643:\n        /* \"#utility.yul\":21090:21092   */\n      0x40\n        /* \"#utility.yul\":21085:21088   */\n      dup3\n        /* \"#utility.yul\":21081:21093   */\n      add\n        /* \"#utility.yul\":21074:21093   */\n      swap1\n      pop\n        /* \"#utility.yul\":20733:21099   */\n      swap2\n      swap1\n      pop\n      jump\t// out\n        /* \"#utility.yul\":21105:21470   */\n    tag_645:\n        /* \"#utility.yul\":21247:21250   */\n      0x00\n        /* \"#utility.yul\":21268:21334   */\n      tag_647\n        /* \"#utility.yul\":21332:21333   */\n      0x04\n        /* \"#utility.yul\":21327:21330   */\n      dup4\n        /* \"#utility.yul\":21268:21334   */\n      tag_549\n      jump\t// in\n    tag_647:\n        /* \"#utility.yul\":21261:21334   */\n      swap2\n      pop\n        /* \"#utility.yul\":21343:21436   */\n      tag_648\n        /* \"#utility.yul\":21432:21435   */\n      dup3\n        /* \"#utility.yul\":21343:21436   */\n      tag_649\n      jump\t// in\n    tag_648:\n        /* \"#utility.yul\":21461:21463   */\n      0x20\n        /* \"#utility.yul\":21456:21459   */\n      dup3\n        /* \"#utility.yul\":21452:21464   */\n      add\n        /* \"#utility.yul\":21445:21464   */\n      swap1\n      pop\n        /* \"#utility.yul\":21105:21470   */\n      swap2\n      swap1\n      pop\n      jump\t// out\n        /* \"#utility.yul\":21476:21842   */\n    tag_650:\n        /* \"#utility.yul\":21618:21621   */\n      0x00\n        /* \"#utility.yul\":21639:21706   */\n      tag_652\n        /* \"#utility.yul\":21703:21705   */\n      0x1d\n        /* \"#utility.yul\":21698:21701   */\n      dup4\n        /* \"#utility.yul\":21639:21706   */\n      tag_549\n      jump\t// in\n    tag_652:\n        /* \"#utility.yul\":21632:21706   */\n      swap2\n      pop\n        /* \"#utility.yul\":21715:21808   */\n      tag_653\n        /* \"#utility.yul\":21804:21807   */\n      dup3\n        /* \"#utility.yul\":21715:21808   */\n      tag_654\n      jump\t// in\n    tag_653:\n        /* \"#utility.yul\":21833:21835   */\n      0x20\n        /* \"#utility.yul\":21828:21831   */\n      dup3\n        /* \"#utility.yul\":21824:21836   */\n      add\n        /* \"#utility.yul\":21817:21836   */\n      swap1\n      pop\n        /* \"#utility.yul\":21476:21842   */\n      swap2\n      swap1\n      pop\n      jump\t// out\n        /* \"#utility.yul\":21848:22213   */\n    tag_655:\n        /* \"#utility.yul\":21990:21993   */\n      0x00\n        /* \"#utility.yul\":22011:22077   */\n      tag_657\n        /* \"#utility.yul\":22075:22076   */\n      0x04\n        /* \"#utility.yul\":22070:22073   */\n      dup4\n        /* \"#utility.yul\":22011:22077   */\n      tag_549\n      jump\t// in\n    tag_657:\n        /* \"#utility.yul\":22004:22077   */\n      swap2\n      pop\n        /* \"#utility.yul\":22086:22179   */\n      tag_658\n        /* \"#utility.yul\":22175:22178   */\n      dup3\n        /* \"#utility.yul\":22086:22179   */\n      tag_659\n      jump\t// in\n    tag_658:\n        /* \"#utility.yul\":22204:22206   */\n      0x20\n        /* \"#utility.yul\":22199:22202   */\n      dup3\n        /* \"#utility.yul\":22195:22207   */\n      add\n        /* \"#utility.yul\":22188:22207   */\n      swap1\n      pop\n        /* \"#utility.yul\":21848:22213   */\n      swap2\n      swap1\n      pop\n      jump\t// out\n        /* \"#utility.yul\":22219:22584   */\n    tag_660:\n        /* \"#utility.yul\":22361:22364   */\n      0x00\n        /* \"#utility.yul\":22382:22448   */\n      tag_662\n        /* \"#utility.yul\":22446:22447   */\n      0x09\n        /* \"#utility.yul\":22441:22444   */\n      dup4\n        /* \"#utility.yul\":22382:22448   */\n      tag_549\n      jump\t// in\n    tag_662:\n        /* \"#utility.yul\":22375:22448   */\n      swap2\n      pop\n        /* \"#utility.yul\":22457:22550   */\n      tag_663\n        /* \"#utility.yul\":22546:22549   */\n      dup3\n        /* \"#utility.yul\":22457:22550   */\n      tag_664\n      jump\t// in\n    tag_663:\n        /* \"#utility.yul\":22575:22577   */\n      0x20\n        /* \"#utility.yul\":22570:22573   */\n      dup3\n        /* \"#utility.yul\":22566:22578   */\n      add\n        /* \"#utility.yul\":22559:22578   */\n      swap1\n      pop\n        /* \"#utility.yul\":22219:22584   */\n      swap2\n      swap1\n      pop\n      jump\t// out\n        /* \"#utility.yul\":22590:22956   */\n    tag_665:\n        /* \"#utility.yul\":22732:22735   */\n      0x00\n        /* \"#utility.yul\":22753:22820   */\n      tag_667\n        /* \"#utility.yul\":22817:22819   */\n      0x1f\n        /* \"#utility.yul\":22812:22815   */\n      dup4\n        /* \"#utility.yul\":22753:22820   */\n      tag_549\n      jump\t// in\n    tag_667:\n        /* \"#utility.yul\":22746:22820   */\n      swap2\n      pop\n        /* \"#utility.yul\":22829:22922   */\n      tag_668\n        /* \"#utility.yul\":22918:22921   */\n      dup3\n        /* \"#utility.yul\":22829:22922   */\n      tag_669\n      jump\t// in\n    tag_668:\n        /* \"#utility.yul\":22947:22949   */\n      0x20\n        /* \"#utility.yul\":22942:22945   */\n      dup3\n        /* \"#utility.yul\":22938:22950   */\n      add\n        /* \"#utility.yul\":22931:22950   */\n      swap1\n      pop\n        /* \"#utility.yul\":22590:22956   */\n      swap2\n      swap1\n      pop\n      jump\t// out\n        /* \"#utility.yul\":22962:23080   */\n    tag_670:\n        /* \"#utility.yul\":23049:23073   */\n      tag_672\n        /* \"#utility.yul\":23067:23072   */\n      dup2\n        /* \"#utility.yul\":23049:23073   */\n      tag_673\n      jump\t// in\n    tag_672:\n        /* \"#utility.yul\":23044:23047   */\n      dup3\n        /* \"#utility.yul\":23037:23074   */\n      mstore\n        /* \"#utility.yul\":22962:23080   */\n      pop\n      pop\n      jump\t// out\n        /* \"#utility.yul\":23086:23201   */\n    tag_674:\n        /* \"#utility.yul\":23171:23194   */\n      tag_676\n        /* \"#utility.yul\":23188:23193   */\n      dup2\n        /* \"#utility.yul\":23171:23194   */\n      tag_677\n      jump\t// in\n    tag_676:\n        /* \"#utility.yul\":23166:23169   */\n      dup3\n        /* \"#utility.yul\":23159:23195   */\n      mstore\n        /* \"#utility.yul\":23086:23201   */\n      pop\n      pop\n      jump\t// out\n        /* \"#utility.yul\":23207:23325   */\n    tag_678:\n        /* \"#utility.yul\":23294:23318   */\n      tag_680\n        /* \"#utility.yul\":23312:23317   */\n      dup2\n        /* \"#utility.yul\":23294:23318   */\n      tag_681\n      jump\t// in\n    tag_680:\n        /* \"#utility.yul\":23289:23292   */\n      dup3\n        /* \"#utility.yul\":23282:23319   */\n      mstore\n        /* \"#utility.yul\":23207:23325   */\n      pop\n      pop\n      jump\t// out\n        /* \"#utility.yul\":23331:23443   */\n    tag_682:\n        /* \"#utility.yul\":23414:23436   */\n      tag_684\n        /* \"#utility.yul\":23430:23435   */\n      dup2\n        /* \"#utility.yul\":23414:23436   */\n      tag_685\n      jump\t// in\n    tag_684:\n        /* \"#utility.yul\":23409:23412   */\n      dup3\n        /* \"#utility.yul\":23402:23437   */\n      mstore\n        /* \"#utility.yul\":23331:23443   */\n      pop\n      pop\n      jump\t// out\n        /* \"#utility.yul\":23449:23744   */\n    tag_212:\n        /* \"#utility.yul\":23591:23594   */\n      0x00\n        /* \"#utility.yul\":23613:23718   */\n      tag_687\n        /* \"#utility.yul\":23714:23717   */\n      dup3\n        /* \"#utility.yul\":23705:23711   */\n      dup5\n        /* \"#utility.yul\":23697:23703   */\n      dup7\n        /* \"#utility.yul\":23613:23718   */\n      tag_539\n      jump\t// in\n    tag_687:\n        /* \"#utility.yul\":23606:23718   */\n      swap2\n      pop\n        /* \"#utility.yul\":23735:23738   */\n      dup2\n        /* \"#utility.yul\":23728:23738   */\n      swap1\n      pop\n        /* \"#utility.yul\":23449:23744   */\n      swap4\n      swap3\n      pop\n      pop\n      pop\n      jump\t// out\n        /* \"#utility.yul\":23750:24025   */\n    tag_271:\n        /* \"#utility.yul\":23882:23885   */\n      0x00\n        /* \"#utility.yul\":23904:23999   */\n      tag_689\n        /* \"#utility.yul\":23995:23998   */\n      dup3\n        /* \"#utility.yul\":23986:23992   */\n      dup5\n        /* \"#utility.yul\":23904:23999   */\n      tag_553\n      jump\t// in\n    tag_689:\n        /* \"#utility.yul\":23897:23999   */\n      swap2\n      pop\n        /* \"#utility.yul\":24016:24019   */\n      dup2\n        /* \"#utility.yul\":24009:24019   */\n      swap1\n      pop\n        /* \"#utility.yul\":23750:24025   */\n      swap3\n      swap2\n      pop\n      pop\n      jump\t// out\n        /* \"#utility.yul\":24031:24300   */\n    tag_195:\n        /* \"#utility.yul\":24160:24163   */\n      0x00\n        /* \"#utility.yul\":24182:24274   */\n      tag_691\n        /* \"#utility.yul\":24270:24273   */\n      dup3\n        /* \"#utility.yul\":24261:24267   */\n      dup5\n        /* \"#utility.yul\":24182:24274   */\n      tag_558\n      jump\t// in\n    tag_691:\n        /* \"#utility.yul\":24175:24274   */\n      swap2\n      pop\n        /* \"#utility.yul\":24291:24294   */\n      dup2\n        /* \"#utility.yul\":24284:24294   */\n      swap1\n      pop\n        /* \"#utility.yul\":24031:24300   */\n      swap3\n      swap2\n      pop\n      pop\n      jump\t// out\n        /* \"#utility.yul\":24306:25271   */\n    tag_21:\n        /* \"#utility.yul\":24581:24585   */\n      0x00\n        /* \"#utility.yul\":24619:24622   */\n      0xe0\n        /* \"#utility.yul\":24608:24617   */\n      dup3\n        /* \"#utility.yul\":24604:24623   */\n      add\n        /* \"#utility.yul\":24596:24623   */\n      swap1\n      pop\n        /* \"#utility.yul\":24633:24704   */\n      tag_693\n        /* \"#utility.yul\":24701:24702   */\n      0x00\n        /* \"#utility.yul\":24690:24699   */\n      dup4\n        /* \"#utility.yul\":24686:24703   */\n      add\n        /* \"#utility.yul\":24677:24683   */\n      dup11\n        /* \"#utility.yul\":24633:24704   */\n      tag_498\n      jump\t// in\n    tag_693:\n        /* \"#utility.yul\":24714:24782   */\n      tag_694\n        /* \"#utility.yul\":24778:24780   */\n      0x20\n        /* \"#utility.yul\":24767:24776   */\n      dup4\n        /* \"#utility.yul\":24763:24781   */\n      add\n        /* \"#utility.yul\":24754:24760   */\n      dup10\n        /* \"#utility.yul\":24714:24782   */\n      tag_682\n      jump\t// in\n    tag_694:\n        /* \"#utility.yul\":24829:24838   */\n      dup2\n        /* \"#utility.yul\":24823:24827   */\n      dup2\n        /* \"#utility.yul\":24819:24839   */\n      sub\n        /* \"#utility.yul\":24814:24816   */\n      0x40\n        /* \"#utility.yul\":24803:24812   */\n      dup4\n        /* \"#utility.yul\":24799:24817   */\n      add\n        /* \"#utility.yul\":24792:24840   */\n      mstore\n        /* \"#utility.yul\":24857:24935   */\n      tag_695\n        /* \"#utility.yul\":24930:24934   */\n      dup2\n        /* \"#utility.yul\":24921:24927   */\n      dup9\n        /* \"#utility.yul\":24857:24935   */\n      tag_544\n      jump\t// in\n    tag_695:\n        /* \"#utility.yul\":24849:24935   */\n      swap1\n      pop\n        /* \"#utility.yul\":24945:25017   */\n      tag_696\n        /* \"#utility.yul\":25013:25015   */\n      0x60\n        /* \"#utility.yul\":25002:25011   */\n      dup4\n        /* \"#utility.yul\":24998:25016   */\n      add\n        /* \"#utility.yul\":24989:24995   */\n      dup8\n        /* \"#utility.yul\":24945:25017   */\n      tag_678\n      jump\t// in\n    tag_696:\n        /* \"#utility.yul\":25027:25100   */\n      tag_697\n        /* \"#utility.yul\":25095:25098   */\n      0x80\n        /* \"#utility.yul\":25084:25093   */\n      dup4\n        /* \"#utility.yul\":25080:25099   */\n      add\n        /* \"#utility.yul\":25071:25077   */\n      dup7\n        /* \"#utility.yul\":25027:25100   */\n      tag_678\n      jump\t// in\n    tag_697:\n        /* \"#utility.yul\":25110:25181   */\n      tag_698\n        /* \"#utility.yul\":25176:25179   */\n      0xa0\n        /* \"#utility.yul\":25165:25174   */\n      dup4\n        /* \"#utility.yul\":25161:25180   */\n      add\n        /* \"#utility.yul\":25152:25158   */\n      dup6\n        /* \"#utility.yul\":25110:25181   */\n      tag_674\n      jump\t// in\n    tag_698:\n        /* \"#utility.yul\":25191:25264   */\n      tag_699\n        /* \"#utility.yul\":25259:25262   */\n      0xc0\n        /* \"#utility.yul\":25248:25257   */\n      dup4\n        /* \"#utility.yul\":25244:25263   */\n      add\n        /* \"#utility.yul\":25235:25241   */\n      dup5\n        /* \"#utility.yul\":25191:25264   */\n      tag_678\n      jump\t// in\n    tag_699:\n        /* \"#utility.yul\":24306:25271   */\n      swap9\n      swap8\n      pop\n      pop\n      pop\n      pop\n      pop\n      pop\n      pop\n      pop\n      jump\t// out\n        /* \"#utility.yul\":25277:25487   */\n    tag_52:\n        /* \"#utility.yul\":25364:25368   */\n      0x00\n        /* \"#utility.yul\":25402:25404   */\n      0x20\n        /* \"#utility.yul\":25391:25400   */\n      dup3\n        /* \"#utility.yul\":25387:25405   */\n      add\n        /* \"#utility.yul\":25379:25405   */\n      swap1\n      pop\n        /* \"#utility.yul\":25415:25480   */\n      tag_701\n        /* \"#utility.yul\":25477:25478   */\n      0x00\n        /* \"#utility.yul\":25466:25475   */\n      dup4\n        /* \"#utility.yul\":25462:25479   */\n      add\n        /* \"#utility.yul\":25453:25459   */\n      dup5\n        /* \"#utility.yul\":25415:25480   */\n      tag_529\n      jump\t// in\n    tag_701:\n        /* \"#utility.yul\":25277:25487   */\n      swap3\n      swap2\n      pop\n      pop\n      jump\t// out\n        /* \"#utility.yul\":25493:25806   */\n    tag_25:\n        /* \"#utility.yul\":25606:25610   */\n      0x00\n        /* \"#utility.yul\":25644:25646   */\n      0x20\n        /* \"#utility.yul\":25633:25642   */\n      dup3\n        /* \"#utility.yul\":25629:25647   */\n      add\n        /* \"#utility.yul\":25621:25647   */\n      swap1\n      pop\n        /* \"#utility.yul\":25693:25702   */\n      dup2\n        /* \"#utility.yul\":25687:25691   */\n      dup2\n        /* \"#utility.yul\":25683:25703   */\n      sub\n        /* \"#utility.yul\":25679:25680   */\n      0x00\n        /* \"#utility.yul\":25668:25677   */\n      dup4\n        /* \"#utility.yul\":25664:25681   */\n      add\n        /* \"#utility.yul\":25657:25704   */\n      mstore\n        /* \"#utility.yul\":25721:25799   */\n      tag_703\n        /* \"#utility.yul\":25794:25798   */\n      dup2\n        /* \"#utility.yul\":25785:25791   */\n      dup5\n        /* \"#utility.yul\":25721:25799   */\n      tag_544\n      jump\t// in\n    tag_703:\n        /* \"#utility.yul\":25713:25799   */\n      swap1\n      pop\n        /* \"#utility.yul\":25493:25806   */\n      swap3\n      swap2\n      pop\n      pop\n      jump\t// out\n        /* \"#utility.yul\":25812:26231   */\n    tag_240:\n        /* \"#utility.yul\":25978:25982   */\n      0x00\n        /* \"#utility.yul\":26016:26018   */\n      0x20\n        /* \"#utility.yul\":26005:26014   */\n      dup3\n        /* \"#utility.yul\":26001:26019   */\n      add\n        /* \"#utility.yul\":25993:26019   */\n      swap1\n      pop\n        /* \"#utility.yul\":26065:26074   */\n      dup2\n        /* \"#utility.yul\":26059:26063   */\n      dup2\n        /* \"#utility.yul\":26055:26075   */\n      sub\n        /* \"#utility.yul\":26051:26052   */\n      0x00\n        /* \"#utility.yul\":26040:26049   */\n      dup4\n        /* \"#utility.yul\":26036:26053   */\n      add\n        /* \"#utility.yul\":26029:26076   */\n      mstore\n        /* \"#utility.yul\":26093:26224   */\n      tag_705\n        /* \"#utility.yul\":26219:26223   */\n      dup2\n        /* \"#utility.yul\":26093:26224   */\n      tag_570\n      jump\t// in\n    tag_705:\n        /* \"#utility.yul\":26085:26224   */\n      swap1\n      pop\n        /* \"#utility.yul\":25812:26231   */\n      swap2\n      swap1\n      pop\n      jump\t// out\n        /* \"#utility.yul\":26237:26656   */\n    tag_92:\n        /* \"#utility.yul\":26403:26407   */\n      0x00\n        /* \"#utility.yul\":26441:26443   */\n      0x20\n        /* \"#utility.yul\":26430:26439   */\n      dup3\n        /* \"#utility.yul\":26426:26444   */\n      add\n        /* \"#utility.yul\":26418:26444   */\n      swap1\n      pop\n        /* \"#utility.yul\":26490:26499   */\n      dup2\n        /* \"#utility.yul\":26484:26488   */\n      dup2\n        /* \"#utility.yul\":26480:26500   */\n      sub\n        /* \"#utility.yul\":26476:26477   */\n      0x00\n        /* \"#utility.yul\":26465:26474   */\n      dup4\n        /* \"#utility.yul\":26461:26478   */\n      add\n        /* \"#utility.yul\":26454:26501   */\n      mstore\n        /* \"#utility.yul\":26518:26649   */\n      tag_707\n        /* \"#utility.yul\":26644:26648   */\n      dup2\n        /* \"#utility.yul\":26518:26649   */\n      tag_575\n      jump\t// in\n    tag_707:\n        /* \"#utility.yul\":26510:26649   */\n      swap1\n      pop\n        /* \"#utility.yul\":26237:26656   */\n      swap2\n      swap1\n      pop\n      jump\t// out\n        /* \"#utility.yul\":26662:27081   */\n    tag_318:\n        /* \"#utility.yul\":26828:26832   */\n      0x00\n        /* \"#utility.yul\":26866:26868   */\n      0x20\n        /* \"#utility.yul\":26855:26864   */\n      dup3\n        /* \"#utility.yul\":26851:26869   */\n      add\n        /* \"#utility.yul\":26843:26869   */\n      swap1\n      pop\n        /* \"#utility.yul\":26915:26924   */\n      dup2\n        /* \"#utility.yul\":26909:26913   */\n      dup2\n        /* \"#utility.yul\":26905:26925   */\n      sub\n        /* \"#utility.yul\":26901:26902   */\n      0x00\n        /* \"#utility.yul\":26890:26899   */\n      dup4\n        /* \"#utility.yul\":26886:26903   */\n      add\n        /* \"#utility.yul\":26879:26926   */\n      mstore\n        /* \"#utility.yul\":26943:27074   */\n      tag_709\n        /* \"#utility.yul\":27069:27073   */\n      dup2\n        /* \"#utility.yul\":26943:27074   */\n      tag_580\n      jump\t// in\n    tag_709:\n        /* \"#utility.yul\":26935:27074   */\n      swap1\n      pop\n        /* \"#utility.yul\":26662:27081   */\n      swap2\n      swap1\n      pop\n      jump\t// out\n        /* \"#utility.yul\":27087:27506   */\n    tag_134:\n        /* \"#utility.yul\":27253:27257   */\n      0x00\n        /* \"#utility.yul\":27291:27293   */\n      0x20\n        /* \"#utility.yul\":27280:27289   */\n      dup3\n        /* \"#utility.yul\":27276:27294   */\n      add\n        /* \"#utility.yul\":27268:27294   */\n      swap1\n      pop\n        /* \"#utility.yul\":27340:27349   */\n      dup2\n        /* \"#utility.yul\":27334:27338   */\n      dup2\n        /* \"#utility.yul\":27330:27350   */\n      sub\n        /* \"#utility.yul\":27326:27327   */\n      0x00\n        /* \"#utility.yul\":27315:27324   */\n      dup4\n        /* \"#utility.yul\":27311:27328   */\n      add\n        /* \"#utility.yul\":27304:27351   */\n      mstore\n        /* \"#utility.yul\":27368:27499   */\n      tag_711\n        /* \"#utility.yul\":27494:27498   */\n      dup2\n        /* \"#utility.yul\":27368:27499   */\n      tag_585\n      jump\t// in\n    tag_711:\n        /* \"#utility.yul\":27360:27499   */\n      swap1\n      pop\n        /* \"#utility.yul\":27087:27506   */\n      swap2\n      swap1\n      pop\n      jump\t// out\n        /* \"#utility.yul\":27512:27931   */\n    tag_274:\n        /* \"#utility.yul\":27678:27682   */\n      0x00\n        /* \"#utility.yul\":27716:27718   */\n      0x20\n        /* \"#utility.yul\":27705:27714   */\n      dup3\n        /* \"#utility.yul\":27701:27719   */\n      add\n        /* \"#utility.yul\":27693:27719   */\n      swap1\n      pop\n        /* \"#utility.yul\":27765:27774   */\n      dup2\n        /* \"#utility.yul\":27759:27763   */\n      dup2\n        /* \"#utility.yul\":27755:27775   */\n      sub\n        /* \"#utility.yul\":27751:27752   */\n      0x00\n        /* \"#utility.yul\":27740:27749   */\n      dup4\n        /* \"#utility.yul\":27736:27753   */\n      add\n        /* \"#utility.yul\":27729:27776   */\n      mstore\n        /* \"#utility.yul\":27793:27924   */\n      tag_713\n        /* \"#utility.yul\":27919:27923   */\n      dup2\n        /* \"#utility.yul\":27793:27924   */\n      tag_590\n      jump\t// in\n    tag_713:\n        /* \"#utility.yul\":27785:27924   */\n      swap1\n      pop\n        /* \"#utility.yul\":27512:27931   */\n      swap2\n      swap1\n      pop\n      jump\t// out\n        /* \"#utility.yul\":27937:28356   */\n    tag_193:\n        /* \"#utility.yul\":28103:28107   */\n      0x00\n        /* \"#utility.yul\":28141:28143   */\n      0x20\n        /* \"#utility.yul\":28130:28139   */\n      dup3\n        /* \"#utility.yul\":28126:28144   */\n      add\n        /* \"#utility.yul\":28118:28144   */\n      swap1\n      pop\n        /* \"#utility.yul\":28190:28199   */\n      dup2\n        /* \"#utility.yul\":28184:28188   */\n      dup2\n        /* \"#utility.yul\":28180:28200   */\n      sub\n        /* \"#utility.yul\":28176:28177   */\n      0x00\n        /* \"#utility.yul\":28165:28174   */\n      dup4\n        /* \"#utility.yul\":28161:28178   */\n      add\n        /* \"#utility.yul\":28154:28201   */\n      mstore\n        /* \"#utility.yul\":28218:28349   */\n      tag_715\n        /* \"#utility.yul\":28344:28348   */\n      dup2\n        /* \"#utility.yul\":28218:28349   */\n      tag_595\n      jump\t// in\n    tag_715:\n        /* \"#utility.yul\":28210:28349   */\n      swap1\n      pop\n        /* \"#utility.yul\":27937:28356   */\n      swap2\n      swap1\n      pop\n      jump\t// out\n        /* \"#utility.yul\":28362:28781   */\n    tag_131:\n        /* \"#utility.yul\":28528:28532   */\n      0x00\n        /* \"#utility.yul\":28566:28568   */\n      0x20\n        /* \"#utility.yul\":28555:28564   */\n      dup3\n        /* \"#utility.yul\":28551:28569   */\n      add\n        /* \"#utility.yul\":28543:28569   */\n      swap1\n      pop\n        /* \"#utility.yul\":28615:28624   */\n      dup2\n        /* \"#utility.yul\":28609:28613   */\n      dup2\n        /* \"#utility.yul\":28605:28625   */\n      sub\n        /* \"#utility.yul\":28601:28602   */\n      0x00\n        /* \"#utility.yul\":28590:28599   */\n      dup4\n        /* \"#utility.yul\":28586:28603   */\n      add\n        /* \"#utility.yul\":28579:28626   */\n      mstore\n        /* \"#utility.yul\":28643:28774   */\n      tag_717\n        /* \"#utility.yul\":28769:28773   */\n      dup2\n        /* \"#utility.yul\":28643:28774   */\n      tag_600\n      jump\t// in\n    tag_717:\n        /* \"#utility.yul\":28635:28774   */\n      swap1\n      pop\n        /* \"#utility.yul\":28362:28781   */\n      swap2\n      swap1\n      pop\n      jump\t// out\n        /* \"#utility.yul\":28787:29206   */\n    tag_89:\n        /* \"#utility.yul\":28953:28957   */\n      0x00\n        /* \"#utility.yul\":28991:28993   */\n      0x20\n        /* \"#utility.yul\":28980:28989   */\n      dup3\n        /* \"#utility.yul\":28976:28994   */\n      add\n        /* \"#utility.yul\":28968:28994   */\n      swap1\n      pop\n        /* \"#utility.yul\":29040:29049   */\n      dup2\n        /* \"#utility.yul\":29034:29038   */\n      dup2\n        /* \"#utility.yul\":29030:29050   */\n      sub\n        /* \"#utility.yul\":29026:29027   */\n      0x00\n        /* \"#utility.yul\":29015:29024   */\n      dup4\n        /* \"#utility.yul\":29011:29028   */\n      add\n        /* \"#utility.yul\":29004:29051   */\n      mstore\n        /* \"#utility.yul\":29068:29199   */\n      tag_719\n        /* \"#utility.yul\":29194:29198   */\n      dup2\n        /* \"#utility.yul\":29068:29199   */\n      tag_605\n      jump\t// in\n    tag_719:\n        /* \"#utility.yul\":29060:29199   */\n      swap1\n      pop\n        /* \"#utility.yul\":28787:29206   */\n      swap2\n      swap1\n      pop\n      jump\t// out\n        /* \"#utility.yul\":29212:29631   */\n    tag_264:\n        /* \"#utility.yul\":29378:29382   */\n      0x00\n        /* \"#utility.yul\":29416:29418   */\n      0x20\n        /* \"#utility.yul\":29405:29414   */\n      dup3\n        /* \"#utility.yul\":29401:29419   */\n      add\n        /* \"#utility.yul\":29393:29419   */\n      swap1\n      pop\n        /* \"#utility.yul\":29465:29474   */\n      dup2\n        /* \"#utility.yul\":29459:29463   */\n      dup2\n        /* \"#utility.yul\":29455:29475   */\n      sub\n        /* \"#utility.yul\":29451:29452   */\n      0x00\n        /* \"#utility.yul\":29440:29449   */\n      dup4\n        /* \"#utility.yul\":29436:29453   */\n      add\n        /* \"#utility.yul\":29429:29476   */\n      mstore\n        /* \"#utility.yul\":29493:29624   */\n      tag_721\n        /* \"#utility.yul\":29619:29623   */\n      dup2\n        /* \"#utility.yul\":29493:29624   */\n      tag_610\n      jump\t// in\n    tag_721:\n        /* \"#utility.yul\":29485:29624   */\n      swap1\n      pop\n        /* \"#utility.yul\":29212:29631   */\n      swap2\n      swap1\n      pop\n      jump\t// out\n        /* \"#utility.yul\":29637:30056   */\n    tag_128:\n        /* \"#utility.yul\":29803:29807   */\n      0x00\n        /* \"#utility.yul\":29841:29843   */\n      0x20\n        /* \"#utility.yul\":29830:29839   */\n      dup3\n        /* \"#utility.yul\":29826:29844   */\n      add\n        /* \"#utility.yul\":29818:29844   */\n      swap1\n      pop\n        /* \"#utility.yul\":29890:29899   */\n      dup2\n        /* \"#utility.yul\":29884:29888   */\n      dup2\n        /* \"#utility.yul\":29880:29900   */\n      sub\n        /* \"#utility.yul\":29876:29877   */\n      0x00\n        /* \"#utility.yul\":29865:29874   */\n      dup4\n        /* \"#utility.yul\":29861:29878   */\n      add\n        /* \"#utility.yul\":29854:29901   */\n      mstore\n        /* \"#utility.yul\":29918:30049   */\n      tag_723\n        /* \"#utility.yul\":30044:30048   */\n      dup2\n        /* \"#utility.yul\":29918:30049   */\n      tag_615\n      jump\t// in\n    tag_723:\n        /* \"#utility.yul\":29910:30049   */\n      swap1\n      pop\n        /* \"#utility.yul\":29637:30056   */\n      swap2\n      swap1\n      pop\n      jump\t// out\n        /* \"#utility.yul\":30062:30481   */\n    tag_152:\n        /* \"#utility.yul\":30228:30232   */\n      0x00\n        /* \"#utility.yul\":30266:30268   */\n      0x20\n        /* \"#utility.yul\":30255:30264   */\n      dup3\n        /* \"#utility.yul\":30251:30269   */\n      add\n        /* \"#utility.yul\":30243:30269   */\n      swap1\n      pop\n        /* \"#utility.yul\":30315:30324   */\n      dup2\n        /* \"#utility.yul\":30309:30313   */\n      dup2\n        /* \"#utility.yul\":30305:30325   */\n      sub\n        /* \"#utility.yul\":30301:30302   */\n      0x00\n        /* \"#utility.yul\":30290:30299   */\n      dup4\n        /* \"#utility.yul\":30286:30303   */\n      add\n        /* \"#utility.yul\":30279:30326   */\n      mstore\n        /* \"#utility.yul\":30343:30474   */\n      tag_725\n        /* \"#utility.yul\":30469:30473   */\n      dup2\n        /* \"#utility.yul\":30343:30474   */\n      tag_620\n      jump\t// in\n    tag_725:\n        /* \"#utility.yul\":30335:30474   */\n      swap1\n      pop\n        /* \"#utility.yul\":30062:30481   */\n      swap2\n      swap1\n      pop\n      jump\t// out\n        /* \"#utility.yul\":30487:30906   */\n    tag_95:\n        /* \"#utility.yul\":30653:30657   */\n      0x00\n        /* \"#utility.yul\":30691:30693   */\n      0x20\n        /* \"#utility.yul\":30680:30689   */\n      dup3\n        /* \"#utility.yul\":30676:30694   */\n      add\n        /* \"#utility.yul\":30668:30694   */\n      swap1\n      pop\n        /* \"#utility.yul\":30740:30749   */\n      dup2\n        /* \"#utility.yul\":30734:30738   */\n      dup2\n        /* \"#utility.yul\":30730:30750   */\n      sub\n        /* \"#utility.yul\":30726:30727   */\n      0x00\n        /* \"#utility.yul\":30715:30724   */\n      dup4\n        /* \"#utility.yul\":30711:30728   */\n      add\n        /* \"#utility.yul\":30704:30751   */\n      mstore\n        /* \"#utility.yul\":30768:30899   */\n      tag_727\n        /* \"#utility.yul\":30894:30898   */\n      dup2\n        /* \"#utility.yul\":30768:30899   */\n      tag_625\n      jump\t// in\n    tag_727:\n        /* \"#utility.yul\":30760:30899   */\n      swap1\n      pop\n        /* \"#utility.yul\":30487:30906   */\n      swap2\n      swap1\n      pop\n      jump\t// out\n        /* \"#utility.yul\":30912:31331   */\n    tag_315:\n        /* \"#utility.yul\":31078:31082   */\n      0x00\n        /* \"#utility.yul\":31116:31118   */\n      0x20\n        /* \"#utility.yul\":31105:31114   */\n      dup3\n        /* \"#utility.yul\":31101:31119   */\n      add\n        /* \"#utility.yul\":31093:31119   */\n      swap1\n      pop\n        /* \"#utility.yul\":31165:31174   */\n      dup2\n        /* \"#utility.yul\":31159:31163   */\n      dup2\n        /* \"#utility.yul\":31155:31175   */\n      sub\n        /* \"#utility.yul\":31151:31152   */\n      0x00\n        /* \"#utility.yul\":31140:31149   */\n      dup4\n        /* \"#utility.yul\":31136:31153   */\n      add\n        /* \"#utility.yul\":31129:31176   */\n      mstore\n        /* \"#utility.yul\":31193:31324   */\n      tag_729\n        /* \"#utility.yul\":31319:31323   */\n      dup2\n        /* \"#utility.yul\":31193:31324   */\n      tag_630\n      jump\t// in\n    tag_729:\n        /* \"#utility.yul\":31185:31324   */\n      swap1\n      pop\n        /* \"#utility.yul\":30912:31331   */\n      swap2\n      swap1\n      pop\n      jump\t// out\n        /* \"#utility.yul\":31337:31756   */\n    tag_168:\n        /* \"#utility.yul\":31503:31507   */\n      0x00\n        /* \"#utility.yul\":31541:31543   */\n      0x20\n        /* \"#utility.yul\":31530:31539   */\n      dup3\n        /* \"#utility.yul\":31526:31544   */\n      add\n        /* \"#utility.yul\":31518:31544   */\n      swap1\n      pop\n        /* \"#utility.yul\":31590:31599   */\n      dup2\n        /* \"#utility.yul\":31584:31588   */\n      dup2\n        /* \"#utility.yul\":31580:31600   */\n      sub\n        /* \"#utility.yul\":31576:31577   */\n      0x00\n        /* \"#utility.yul\":31565:31574   */\n      dup4\n        /* \"#utility.yul\":31561:31578   */\n      add\n        /* \"#utility.yul\":31554:31601   */\n      mstore\n        /* \"#utility.yul\":31618:31749   */\n      tag_731\n        /* \"#utility.yul\":31744:31748   */\n      dup2\n        /* \"#utility.yul\":31618:31749   */\n      tag_635\n      jump\t// in\n    tag_731:\n        /* \"#utility.yul\":31610:31749   */\n      swap1\n      pop\n        /* \"#utility.yul\":31337:31756   */\n      swap2\n      swap1\n      pop\n      jump\t// out\n        /* \"#utility.yul\":31762:32181   */\n    tag_137:\n        /* \"#utility.yul\":31928:31932   */\n      0x00\n        /* \"#utility.yul\":31966:31968   */\n      0x20\n        /* \"#utility.yul\":31955:31964   */\n      dup3\n        /* \"#utility.yul\":31951:31969   */\n      add\n        /* \"#utility.yul\":31943:31969   */\n      swap1\n      pop\n        /* \"#utility.yul\":32015:32024   */\n      dup2\n        /* \"#utility.yul\":32009:32013   */\n      dup2\n        /* \"#utility.yul\":32005:32025   */\n      sub\n        /* \"#utility.yul\":32001:32002   */\n      0x00\n        /* \"#utility.yul\":31990:31999   */\n      dup4\n        /* \"#utility.yul\":31986:32003   */\n      add\n        /* \"#utility.yul\":31979:32026   */\n      mstore\n        /* \"#utility.yul\":32043:32174   */\n      tag_733\n        /* \"#utility.yul\":32169:32173   */\n      dup2\n        /* \"#utility.yul\":32043:32174   */\n      tag_640\n      jump\t// in\n    tag_733:\n        /* \"#utility.yul\":32035:32174   */\n      swap1\n      pop\n        /* \"#utility.yul\":31762:32181   */\n      swap2\n      swap1\n      pop\n      jump\t// out\n        /* \"#utility.yul\":32187:32826   */\n    tag_119:\n        /* \"#utility.yul\":32409:32413   */\n      0x00\n        /* \"#utility.yul\":32447:32449   */\n      0x60\n        /* \"#utility.yul\":32436:32445   */\n      dup3\n        /* \"#utility.yul\":32432:32450   */\n      add\n        /* \"#utility.yul\":32424:32450   */\n      swap1\n      pop\n        /* \"#utility.yul\":32496:32505   */\n      dup2\n        /* \"#utility.yul\":32490:32494   */\n      dup2\n        /* \"#utility.yul\":32486:32506   */\n      sub\n        /* \"#utility.yul\":32482:32483   */\n      0x00\n        /* \"#utility.yul\":32471:32480   */\n      dup4\n        /* \"#utility.yul\":32467:32484   */\n      add\n        /* \"#utility.yul\":32460:32507   */\n      mstore\n        /* \"#utility.yul\":32524:32655   */\n      tag_735\n        /* \"#utility.yul\":32650:32654   */\n      dup2\n        /* \"#utility.yul\":32524:32655   */\n      tag_645\n      jump\t// in\n    tag_735:\n        /* \"#utility.yul\":32516:32655   */\n      swap1\n      pop\n        /* \"#utility.yul\":32665:32737   */\n      tag_736\n        /* \"#utility.yul\":32733:32735   */\n      0x20\n        /* \"#utility.yul\":32722:32731   */\n      dup4\n        /* \"#utility.yul\":32718:32736   */\n      add\n        /* \"#utility.yul\":32709:32715   */\n      dup6\n        /* \"#utility.yul\":32665:32737   */\n      tag_498\n      jump\t// in\n    tag_736:\n        /* \"#utility.yul\":32747:32819   */\n      tag_737\n        /* \"#utility.yul\":32815:32817   */\n      0x40\n        /* \"#utility.yul\":32804:32813   */\n      dup4\n        /* \"#utility.yul\":32800:32818   */\n      add\n        /* \"#utility.yul\":32791:32797   */\n      dup5\n        /* \"#utility.yul\":32747:32819   */\n      tag_678\n      jump\t// in\n    tag_737:\n        /* \"#utility.yul\":32187:32826   */\n      swap4\n      swap3\n      pop\n      pop\n      pop\n      jump\t// out\n        /* \"#utility.yul\":32832:33251   */\n    tag_295:\n        /* \"#utility.yul\":32998:33002   */\n      0x00\n        /* \"#utility.yul\":33036:33038   */\n      0x20\n        /* \"#utility.yul\":33025:33034   */\n      dup3\n        /* \"#utility.yul\":33021:33039   */\n      add\n        /* \"#utility.yul\":33013:33039   */\n      swap1\n      pop\n        /* \"#utility.yul\":33085:33094   */\n      dup2\n        /* \"#utility.yul\":33079:33083   */\n      dup2\n        /* \"#utility.yul\":33075:33095   */\n      sub\n        /* \"#utility.yul\":33071:33072   */\n      0x00\n        /* \"#utility.yul\":33060:33069   */\n      dup4\n        /* \"#utility.yul\":33056:33073   */\n      add\n        /* \"#utility.yul\":33049:33096   */\n      mstore\n        /* \"#utility.yul\":33113:33244   */\n      tag_739\n        /* \"#utility.yul\":33239:33243   */\n      dup2\n        /* \"#utility.yul\":33113:33244   */\n      tag_650\n      jump\t// in\n    tag_739:\n        /* \"#utility.yul\":33105:33244   */\n      swap1\n      pop\n        /* \"#utility.yul\":32832:33251   */\n      swap2\n      swap1\n      pop\n      jump\t// out\n        /* \"#utility.yul\":33257:33896   */\n    tag_163:\n        /* \"#utility.yul\":33479:33483   */\n      0x00\n        /* \"#utility.yul\":33517:33519   */\n      0x60\n        /* \"#utility.yul\":33506:33515   */\n      dup3\n        /* \"#utility.yul\":33502:33520   */\n      add\n        /* \"#utility.yul\":33494:33520   */\n      swap1\n      pop\n        /* \"#utility.yul\":33566:33575   */\n      dup2\n        /* \"#utility.yul\":33560:33564   */\n      dup2\n        /* \"#utility.yul\":33556:33576   */\n      sub\n        /* \"#utility.yul\":33552:33553   */\n      0x00\n        /* \"#utility.yul\":33541:33550   */\n      dup4\n        /* \"#utility.yul\":33537:33554   */\n      add\n        /* \"#utility.yul\":33530:33577   */\n      mstore\n        /* \"#utility.yul\":33594:33725   */\n      tag_741\n        /* \"#utility.yul\":33720:33724   */\n      dup2\n        /* \"#utility.yul\":33594:33725   */\n      tag_655\n      jump\t// in\n    tag_741:\n        /* \"#utility.yul\":33586:33725   */\n      swap1\n      pop\n        /* \"#utility.yul\":33735:33807   */\n      tag_742\n        /* \"#utility.yul\":33803:33805   */\n      0x20\n        /* \"#utility.yul\":33792:33801   */\n      dup4\n        /* \"#utility.yul\":33788:33806   */\n      add\n        /* \"#utility.yul\":33779:33785   */\n      dup6\n        /* \"#utility.yul\":33735:33807   */\n      tag_498\n      jump\t// in\n    tag_742:\n        /* \"#utility.yul\":33817:33889   */\n      tag_743\n        /* \"#utility.yul\":33885:33887   */\n      0x40\n        /* \"#utility.yul\":33874:33883   */\n      dup4\n        /* \"#utility.yul\":33870:33888   */\n      add\n        /* \"#utility.yul\":33861:33867   */\n      dup5\n        /* \"#utility.yul\":33817:33889   */\n      tag_678\n      jump\t// in\n    tag_743:\n        /* \"#utility.yul\":33257:33896   */\n      swap4\n      swap3\n      pop\n      pop\n      pop\n      jump\t// out\n        /* \"#utility.yul\":33902:34321   */\n    tag_298:\n        /* \"#utility.yul\":34068:34072   */\n      0x00\n        /* \"#utility.yul\":34106:34108   */\n      0x20\n        /* \"#utility.yul\":34095:34104   */\n      dup3\n        /* \"#utility.yul\":34091:34109   */\n      add\n        /* \"#utility.yul\":34083:34109   */\n      swap1\n      pop\n        /* \"#utility.yul\":34155:34164   */\n      dup2\n        /* \"#utility.yul\":34149:34153   */\n      dup2\n        /* \"#utility.yul\":34145:34165   */\n      sub\n        /* \"#utility.yul\":34141:34142   */\n      0x00\n        /* \"#utility.yul\":34130:34139   */\n      dup4\n        /* \"#utility.yul\":34126:34143   */\n      add\n        /* \"#utility.yul\":34119:34166   */\n      mstore\n        /* \"#utility.yul\":34183:34314   */\n      tag_745\n        /* \"#utility.yul\":34309:34313   */\n      dup2\n        /* \"#utility.yul\":34183:34314   */\n      tag_660\n      jump\t// in\n    tag_745:\n        /* \"#utility.yul\":34175:34314   */\n      swap1\n      pop\n        /* \"#utility.yul\":33902:34321   */\n      swap2\n      swap1\n      pop\n      jump\t// out\n        /* \"#utility.yul\":34327:34746   */\n    tag_308:\n        /* \"#utility.yul\":34493:34497   */\n      0x00\n        /* \"#utility.yul\":34531:34533   */\n      0x20\n        /* \"#utility.yul\":34520:34529   */\n      dup3\n        /* \"#utility.yul\":34516:34534   */\n      add\n        /* \"#utility.yul\":34508:34534   */\n      swap1\n      pop\n        /* \"#utility.yul\":34580:34589   */\n      dup2\n        /* \"#utility.yul\":34574:34578   */\n      dup2\n        /* \"#utility.yul\":34570:34590   */\n      sub\n        /* \"#utility.yul\":34566:34567   */\n      0x00\n        /* \"#utility.yul\":34555:34564   */\n      dup4\n        /* \"#utility.yul\":34551:34568   */\n      add\n        /* \"#utility.yul\":34544:34591   */\n      mstore\n        /* \"#utility.yul\":34608:34739   */\n      tag_747\n        /* \"#utility.yul\":34734:34738   */\n      dup2\n        /* \"#utility.yul\":34608:34739   */\n      tag_665\n      jump\t// in\n    tag_747:\n        /* \"#utility.yul\":34600:34739   */\n      swap1\n      pop\n        /* \"#utility.yul\":34327:34746   */\n      swap2\n      swap1\n      pop\n      jump\t// out\n        /* \"#utility.yul\":34752:35084   */\n    tag_71:\n        /* \"#utility.yul\":34873:34877   */\n      0x00\n        /* \"#utility.yul\":34911:34913   */\n      0x40\n        /* \"#utility.yul\":34900:34909   */\n      dup3\n        /* \"#utility.yul\":34896:34914   */\n      add\n        /* \"#utility.yul\":34888:34914   */\n      swap1\n      pop\n        /* \"#utility.yul\":34924:34995   */\n      tag_749\n        /* \"#utility.yul\":34992:34993   */\n      0x00\n        /* \"#utility.yul\":34981:34990   */\n      dup4\n        /* \"#utility.yul\":34977:34994   */\n      add\n        /* \"#utility.yul\":34968:34974   */\n      dup6\n        /* \"#utility.yul\":34924:34995   */\n      tag_670\n      jump\t// in\n    tag_749:\n        /* \"#utility.yul\":35005:35077   */\n      tag_750\n        /* \"#utility.yul\":35073:35075   */\n      0x20\n        /* \"#utility.yul\":35062:35071   */\n      dup4\n        /* \"#utility.yul\":35058:35076   */\n      add\n        /* \"#utility.yul\":35049:35055   */\n      dup5\n        /* \"#utility.yul\":35005:35077   */\n      tag_670\n      jump\t// in\n    tag_750:\n        /* \"#utility.yul\":34752:35084   */\n      swap4\n      swap3\n      pop\n      pop\n      pop\n      jump\t// out\n        /* \"#utility.yul\":35090:35312   */\n    tag_29:\n        /* \"#utility.yul\":35183:35187   */\n      0x00\n        /* \"#utility.yul\":35221:35223   */\n      0x20\n        /* \"#utility.yul\":35210:35219   */\n      dup3\n        /* \"#utility.yul\":35206:35224   */\n      add\n        /* \"#utility.yul\":35198:35224   */\n      swap1\n      pop\n        /* \"#utility.yul\":35234:35305   */\n      tag_752\n        /* \"#utility.yul\":35302:35303   */\n      0x00\n        /* \"#utility.yul\":35291:35300   */\n      dup4\n        /* \"#utility.yul\":35287:35304   */\n      add\n        /* \"#utility.yul\":35278:35284   */\n      dup5\n        /* \"#utility.yul\":35234:35305   */\n      tag_678\n      jump\t// in\n    tag_752:\n        /* \"#utility.yul\":35090:35312   */\n      swap3\n      swap2\n      pop\n      pop\n      jump\t// out\n        /* \"#utility.yul\":35318:35859   */\n    tag_66:\n        /* \"#utility.yul\":35489:35493   */\n      0x00\n        /* \"#utility.yul\":35527:35530   */\n      0x80\n        /* \"#utility.yul\":35516:35525   */\n      dup3\n        /* \"#utility.yul\":35512:35531   */\n      add\n        /* \"#utility.yul\":35504:35531   */\n      swap1\n      pop\n        /* \"#utility.yul\":35541:35612   */\n      tag_754\n        /* \"#utility.yul\":35609:35610   */\n      0x00\n        /* \"#utility.yul\":35598:35607   */\n      dup4\n        /* \"#utility.yul\":35594:35611   */\n      add\n        /* \"#utility.yul\":35585:35591   */\n      dup8\n        /* \"#utility.yul\":35541:35612   */\n      tag_678\n      jump\t// in\n    tag_754:\n        /* \"#utility.yul\":35622:35694   */\n      tag_755\n        /* \"#utility.yul\":35690:35692   */\n      0x20\n        /* \"#utility.yul\":35679:35688   */\n      dup4\n        /* \"#utility.yul\":35675:35693   */\n      add\n        /* \"#utility.yul\":35666:35672   */\n      dup7\n        /* \"#utility.yul\":35622:35694   */\n      tag_498\n      jump\t// in\n    tag_755:\n        /* \"#utility.yul\":35704:35770   */\n      tag_756\n        /* \"#utility.yul\":35766:35768   */\n      0x40\n        /* \"#utility.yul\":35755:35764   */\n      dup4\n        /* \"#utility.yul\":35751:35769   */\n      add\n        /* \"#utility.yul\":35742:35748   */\n      dup6\n        /* \"#utility.yul\":35704:35770   */\n      tag_529\n      jump\t// in\n    tag_756:\n        /* \"#utility.yul\":35780:35852   */\n      tag_757\n        /* \"#utility.yul\":35848:35850   */\n      0x60\n        /* \"#utility.yul\":35837:35846   */\n      dup4\n        /* \"#utility.yul\":35833:35851   */\n      add\n        /* \"#utility.yul\":35824:35830   */\n      dup5\n        /* \"#utility.yul\":35780:35852   */\n      tag_678\n      jump\t// in\n    tag_757:\n        /* \"#utility.yul\":35318:35859   */\n      swap6\n      swap5\n      pop\n      pop\n      pop\n      pop\n      pop\n      jump\t// out\n        /* \"#utility.yul\":35865:37208   */\n    tag_101:\n        /* \"#utility.yul\":36278:36282   */\n      0x00\n        /* \"#utility.yul\":36316:36319   */\n      0xe0\n        /* \"#utility.yul\":36305:36314   */\n      dup3\n        /* \"#utility.yul\":36301:36320   */\n      add\n        /* \"#utility.yul\":36293:36320   */\n      swap1\n      pop\n        /* \"#utility.yul\":36330:36401   */\n      tag_759\n        /* \"#utility.yul\":36398:36399   */\n      0x00\n        /* \"#utility.yul\":36387:36396   */\n      dup4\n        /* \"#utility.yul\":36383:36400   */\n      add\n        /* \"#utility.yul\":36374:36380   */\n      dup12\n        /* \"#utility.yul\":36330:36401   */\n      tag_678\n      jump\t// in\n    tag_759:\n        /* \"#utility.yul\":36448:36457   */\n      dup2\n        /* \"#utility.yul\":36442:36446   */\n      dup2\n        /* \"#utility.yul\":36438:36458   */\n      sub\n        /* \"#utility.yul\":36433:36435   */\n      0x20\n        /* \"#utility.yul\":36422:36431   */\n      dup4\n        /* \"#utility.yul\":36418:36436   */\n      add\n        /* \"#utility.yul\":36411:36459   */\n      mstore\n        /* \"#utility.yul\":36476:36584   */\n      tag_760\n        /* \"#utility.yul\":36579:36583   */\n      dup2\n        /* \"#utility.yul\":36570:36576   */\n      dup11\n        /* \"#utility.yul\":36476:36584   */\n      tag_501\n      jump\t// in\n    tag_760:\n        /* \"#utility.yul\":36468:36584   */\n      swap1\n      pop\n        /* \"#utility.yul\":36594:36666   */\n      tag_761\n        /* \"#utility.yul\":36662:36664   */\n      0x40\n        /* \"#utility.yul\":36651:36660   */\n      dup4\n        /* \"#utility.yul\":36647:36665   */\n      add\n        /* \"#utility.yul\":36638:36644   */\n      dup10\n        /* \"#utility.yul\":36594:36666   */\n      tag_498\n      jump\t// in\n    tag_761:\n        /* \"#utility.yul\":36676:36748   */\n      tag_762\n        /* \"#utility.yul\":36744:36746   */\n      0x60\n        /* \"#utility.yul\":36733:36742   */\n      dup4\n        /* \"#utility.yul\":36729:36747   */\n      add\n        /* \"#utility.yul\":36720:36726   */\n      dup9\n        /* \"#utility.yul\":36676:36748   */\n      tag_678\n      jump\t// in\n    tag_762:\n        /* \"#utility.yul\":36758:36831   */\n      tag_763\n        /* \"#utility.yul\":36826:36829   */\n      0x80\n        /* \"#utility.yul\":36815:36824   */\n      dup4\n        /* \"#utility.yul\":36811:36830   */\n      add\n        /* \"#utility.yul\":36802:36808   */\n      dup8\n        /* \"#utility.yul\":36758:36831   */\n      tag_678\n      jump\t// in\n    tag_763:\n        /* \"#utility.yul\":36879:36888   */\n      dup2\n        /* \"#utility.yul\":36873:36877   */\n      dup2\n        /* \"#utility.yul\":36869:36889   */\n      sub\n        /* \"#utility.yul\":36863:36866   */\n      0xa0\n        /* \"#utility.yul\":36852:36861   */\n      dup4\n        /* \"#utility.yul\":36848:36867   */\n      add\n        /* \"#utility.yul\":36841:36890   */\n      mstore\n        /* \"#utility.yul\":36907:36985   */\n      tag_764\n        /* \"#utility.yul\":36980:36984   */\n      dup2\n        /* \"#utility.yul\":36971:36977   */\n      dup7\n        /* \"#utility.yul\":36907:36985   */\n      tag_544\n      jump\t// in\n    tag_764:\n        /* \"#utility.yul\":36899:36985   */\n      swap1\n      pop\n        /* \"#utility.yul\":37033:37042   */\n      dup2\n        /* \"#utility.yul\":37027:37031   */\n      dup2\n        /* \"#utility.yul\":37023:37043   */\n      sub\n        /* \"#utility.yul\":37017:37020   */\n      0xc0\n        /* \"#utility.yul\":37006:37015   */\n      dup4\n        /* \"#utility.yul\":37002:37021   */\n      add\n        /* \"#utility.yul\":36995:37044   */\n      mstore\n        /* \"#utility.yul\":37061:37201   */\n      tag_765\n        /* \"#utility.yul\":37196:37200   */\n      dup2\n        /* \"#utility.yul\":37187:37193   */\n      dup5\n        /* \"#utility.yul\":37179:37185   */\n      dup7\n        /* \"#utility.yul\":37061:37201   */\n      tag_515\n      jump\t// in\n    tag_765:\n        /* \"#utility.yul\":37053:37201   */\n      swap1\n      pop\n        /* \"#utility.yul\":35865:37208   */\n      swap10\n      swap9\n      pop\n      pop\n      pop\n      pop\n      pop\n      pop\n      pop\n      pop\n      pop\n      jump\t// out\n        /* \"#utility.yul\":37214:37637   */\n    tag_60:\n        /* \"#utility.yul\":37355:37359   */\n      0x00\n        /* \"#utility.yul\":37393:37395   */\n      0x40\n        /* \"#utility.yul\":37382:37391   */\n      dup3\n        /* \"#utility.yul\":37378:37396   */\n      add\n        /* \"#utility.yul\":37370:37396   */\n      swap1\n      pop\n        /* \"#utility.yul\":37406:37477   */\n      tag_767\n        /* \"#utility.yul\":37474:37475   */\n      0x00\n        /* \"#utility.yul\":37463:37472   */\n      dup4\n        /* \"#utility.yul\":37459:37476   */\n      add\n        /* \"#utility.yul\":37450:37456   */\n      dup6\n        /* \"#utility.yul\":37406:37477   */\n      tag_678\n      jump\t// in\n    tag_767:\n        /* \"#utility.yul\":37524:37533   */\n      dup2\n        /* \"#utility.yul\":37518:37522   */\n      dup2\n        /* \"#utility.yul\":37514:37534   */\n      sub\n        /* \"#utility.yul\":37509:37511   */\n      0x20\n        /* \"#utility.yul\":37498:37507   */\n      dup4\n        /* \"#utility.yul\":37494:37512   */\n      add\n        /* \"#utility.yul\":37487:37535   */\n      mstore\n        /* \"#utility.yul\":37552:37630   */\n      tag_768\n        /* \"#utility.yul\":37625:37629   */\n      dup2\n        /* \"#utility.yul\":37616:37622   */\n      dup5\n        /* \"#utility.yul\":37552:37630   */\n      tag_544\n      jump\t// in\n    tag_768:\n        /* \"#utility.yul\":37544:37630   */\n      swap1\n      pop\n        /* \"#utility.yul\":37214:37637   */\n      swap4\n      swap3\n      pop\n      pop\n      pop\n      jump\t// out\n        /* \"#utility.yul\":37643:37857   */\n    tag_33:\n        /* \"#utility.yul\":37732:37736   */\n      0x00\n        /* \"#utility.yul\":37770:37772   */\n      0x20\n        /* \"#utility.yul\":37759:37768   */\n      dup3\n        /* \"#utility.yul\":37755:37773   */\n      add\n        /* \"#utility.yul\":37747:37773   */\n      swap1\n      pop\n        /* \"#utility.yul\":37783:37850   */\n      tag_770\n        /* \"#utility.yul\":37847:37848   */\n      0x00\n        /* \"#utility.yul\":37836:37845   */\n      dup4\n        /* \"#utility.yul\":37832:37849   */\n      add\n        /* \"#utility.yul\":37823:37829   */\n      dup5\n        /* \"#utility.yul\":37783:37850   */\n      tag_682\n      jump\t// in\n    tag_770:\n        /* \"#utility.yul\":37643:37857   */\n      swap3\n      swap2\n      pop\n      pop\n      jump\t// out\n        /* \"#utility.yul\":37863:38588   */\n    tag_210:\n        /* \"#utility.yul\":37941:37945   */\n      0x00\n        /* \"#utility.yul\":37947:37953   */\n      dup1\n        /* \"#utility.yul\":38003:38014   */\n      dup4\n        /* \"#utility.yul\":37990:38015   */\n      calldataload\n        /* \"#utility.yul\":38103:38104   */\n      0x01\n        /* \"#utility.yul\":38097:38101   */\n      0x20\n        /* \"#utility.yul\":38093:38105   */\n      sub\n        /* \"#utility.yul\":38082:38090   */\n      dup5\n        /* \"#utility.yul\":38066:38080   */\n      calldatasize\n        /* \"#utility.yul\":38062:38091   */\n      sub\n        /* \"#utility.yul\":38058:38106   */\n      sub\n        /* \"#utility.yul\":38038:38056   */\n      dup2\n        /* \"#utility.yul\":38034:38107   */\n      slt\n        /* \"#utility.yul\":38024:38192   */\n      tag_772\n      jumpi\n        /* \"#utility.yul\":38111:38190   */\n      tag_773\n      tag_774\n      jump\t// in\n    tag_773:\n        /* \"#utility.yul\":38024:38192   */\n    tag_772:\n        /* \"#utility.yul\":38223:38241   */\n      dup1\n        /* \"#utility.yul\":38213:38221   */\n      dup5\n        /* \"#utility.yul\":38209:38242   */\n      add\n        /* \"#utility.yul\":38201:38242   */\n      swap3\n      pop\n        /* \"#utility.yul\":38275:38279   */\n      dup3\n        /* \"#utility.yul\":38262:38280   */\n      calldataload\n        /* \"#utility.yul\":38252:38280   */\n      swap2\n      pop\n        /* \"#utility.yul\":38303:38321   */\n      0xffffffffffffffff\n        /* \"#utility.yul\":38295:38301   */\n      dup3\n        /* \"#utility.yul\":38292:38322   */\n      gt\n        /* \"#utility.yul\":38289:38406   */\n      iszero\n      tag_775\n      jumpi\n        /* \"#utility.yul\":38325:38404   */\n      tag_776\n      tag_777\n      jump\t// in\n    tag_776:\n        /* \"#utility.yul\":38289:38406   */\n    tag_775:\n        /* \"#utility.yul\":38433:38435   */\n      0x20\n        /* \"#utility.yul\":38427:38431   */\n      dup4\n        /* \"#utility.yul\":38423:38436   */\n      add\n        /* \"#utility.yul\":38415:38436   */\n      swap3\n      pop\n        /* \"#utility.yul\":38490:38494   */\n      0x01\n        /* \"#utility.yul\":38482:38488   */\n      dup3\n        /* \"#utility.yul\":38478:38495   */\n      mul\n        /* \"#utility.yul\":38462:38476   */\n      calldatasize\n        /* \"#utility.yul\":38458:38496   */\n      sub\n        /* \"#utility.yul\":38452:38456   */\n      dup4\n        /* \"#utility.yul\":38448:38497   */\n      sgt\n        /* \"#utility.yul\":38445:38581   */\n      iszero\n      tag_778\n      jumpi\n        /* \"#utility.yul\":38500:38579   */\n      tag_779\n      tag_780\n      jump\t// in\n    tag_779:\n        /* \"#utility.yul\":38445:38581   */\n    tag_778:\n        /* \"#utility.yul\":37954:38588   */\n      pop\n        /* \"#utility.yul\":37863:38588   */\n      swap3\n      pop\n      swap3\n      swap1\n      pop\n      jump\t// out\n        /* \"#utility.yul\":38594:38723   */\n    tag_352:\n        /* \"#utility.yul\":38628:38634   */\n      0x00\n        /* \"#utility.yul\":38655:38675   */\n      tag_782\n      tag_783\n      jump\t// in\n    tag_782:\n        /* \"#utility.yul\":38645:38675   */\n      swap1\n      pop\n        /* \"#utility.yul\":38684:38717   */\n      tag_784\n        /* \"#utility.yul\":38712:38716   */\n      dup3\n        /* \"#utility.yul\":38704:38710   */\n      dup3\n        /* \"#utility.yul\":38684:38717   */\n      tag_785\n      jump\t// in\n    tag_784:\n        /* \"#utility.yul\":38594:38723   */\n      swap2\n      swap1\n      pop\n      jump\t// out\n        /* \"#utility.yul\":38729:38804   */\n    tag_783:\n        /* \"#utility.yul\":38762:38768   */\n      0x00\n        /* \"#utility.yul\":38795:38797   */\n      0x40\n        /* \"#utility.yul\":38789:38798   */\n      mload\n        /* \"#utility.yul\":38779:38798   */\n      swap1\n      pop\n        /* \"#utility.yul\":38729:38804   */\n      swap1\n      jump\t// out\n        /* \"#utility.yul\":38810:39121   */\n    tag_351:\n        /* \"#utility.yul\":38887:38891   */\n      0x00\n        /* \"#utility.yul\":38977:38995   */\n      0xffffffffffffffff\n        /* \"#utility.yul\":38969:38975   */\n      dup3\n        /* \"#utility.yul\":38966:38996   */\n      gt\n        /* \"#utility.yul\":38963:39019   */\n      iszero\n      tag_788\n      jumpi\n        /* \"#utility.yul\":38999:39017   */\n      tag_789\n      tag_790\n      jump\t// in\n    tag_789:\n        /* \"#utility.yul\":38963:39019   */\n    tag_788:\n        /* \"#utility.yul\":39049:39053   */\n      0x20\n        /* \"#utility.yul\":39041:39047   */\n      dup3\n        /* \"#utility.yul\":39037:39054   */\n      mul\n        /* \"#utility.yul\":39029:39054   */\n      swap1\n      pop\n        /* \"#utility.yul\":39109:39113   */\n      0x20\n        /* \"#utility.yul\":39103:39107   */\n      dup2\n        /* \"#utility.yul\":39099:39114   */\n      add\n        /* \"#utility.yul\":39091:39114   */\n      swap1\n      pop\n        /* \"#utility.yul\":38810:39121   */\n      swap2\n      swap1\n      pop\n      jump\t// out\n        /* \"#utility.yul\":39127:39448   */\n    tag_365:\n        /* \"#utility.yul\":39214:39218   */\n      0x00\n        /* \"#utility.yul\":39304:39322   */\n      0xffffffffffffffff\n        /* \"#utility.yul\":39296:39302   */\n      dup3\n        /* \"#utility.yul\":39293:39323   */\n      gt\n        /* \"#utility.yul\":39290:39346   */\n      iszero\n      tag_792\n      jumpi\n        /* \"#utility.yul\":39326:39344   */\n      tag_793\n      tag_790\n      jump\t// in\n    tag_793:\n        /* \"#utility.yul\":39290:39346   */\n    tag_792:\n        /* \"#utility.yul\":39376:39380   */\n      0x20\n        /* \"#utility.yul\":39368:39374   */\n      dup3\n        /* \"#utility.yul\":39364:39381   */\n      mul\n        /* \"#utility.yul\":39356:39381   */\n      swap1\n      pop\n        /* \"#utility.yul\":39436:39440   */\n      0x20\n        /* \"#utility.yul\":39430:39434   */\n      dup2\n        /* \"#utility.yul\":39426:39441   */\n      add\n        /* \"#utility.yul\":39418:39441   */\n      swap1\n      pop\n        /* \"#utility.yul\":39127:39448   */\n      swap2\n      swap1\n      pop\n      jump\t// out\n        /* \"#utility.yul\":39454:39765   */\n    tag_380:\n        /* \"#utility.yul\":39531:39535   */\n      0x00\n        /* \"#utility.yul\":39621:39639   */\n      0xffffffffffffffff\n        /* \"#utility.yul\":39613:39619   */\n      dup3\n        /* \"#utility.yul\":39610:39640   */\n      gt\n        /* \"#utility.yul\":39607:39663   */\n      iszero\n      tag_795\n      jumpi\n        /* \"#utility.yul\":39643:39661   */\n      tag_796\n      tag_790\n      jump\t// in\n    tag_796:\n        /* \"#utility.yul\":39607:39663   */\n    tag_795:\n        /* \"#utility.yul\":39693:39697   */\n      0x20\n        /* \"#utility.yul\":39685:39691   */\n      dup3\n        /* \"#utility.yul\":39681:39698   */\n      mul\n        /* \"#utility.yul\":39673:39698   */\n      swap1\n      pop\n        /* \"#utility.yul\":39753:39757   */\n      0x20\n        /* \"#utility.yul\":39747:39751   */\n      dup2\n        /* \"#utility.yul\":39743:39758   */\n      add\n        /* \"#utility.yul\":39735:39758   */\n      swap1\n      pop\n        /* \"#utility.yul\":39454:39765   */\n      swap2\n      swap1\n      pop\n      jump\t// out\n        /* \"#utility.yul\":39771:40079   */\n    tag_392:\n        /* \"#utility.yul\":39833:39837   */\n      0x00\n        /* \"#utility.yul\":39923:39941   */\n      0xffffffffffffffff\n        /* \"#utility.yul\":39915:39921   */\n      dup3\n        /* \"#utility.yul\":39912:39942   */\n      gt\n        /* \"#utility.yul\":39909:39965   */\n      iszero\n      tag_798\n      jumpi\n        /* \"#utility.yul\":39945:39963   */\n      tag_799\n      tag_790\n      jump\t// in\n    tag_799:\n        /* \"#utility.yul\":39909:39965   */\n    tag_798:\n        /* \"#utility.yul\":39983:40012   */\n      tag_800\n        /* \"#utility.yul\":40005:40011   */\n      dup3\n        /* \"#utility.yul\":39983:40012   */\n      tag_538\n      jump\t// in\n    tag_800:\n        /* \"#utility.yul\":39975:40012   */\n      swap1\n      pop\n        /* \"#utility.yul\":40067:40071   */\n      0x20\n        /* \"#utility.yul\":40061:40065   */\n      dup2\n        /* \"#utility.yul\":40057:40072   */\n      add\n        /* \"#utility.yul\":40049:40072   */\n      swap1\n      pop\n        /* \"#utility.yul\":39771:40079   */\n      swap2\n      swap1\n      pop\n      jump\t// out\n        /* \"#utility.yul\":40085:40217   */\n    tag_508:\n        /* \"#utility.yul\":40152:40156   */\n      0x00\n        /* \"#utility.yul\":40175:40178   */\n      dup2\n        /* \"#utility.yul\":40167:40178   */\n      swap1\n      pop\n        /* \"#utility.yul\":40205:40209   */\n      0x20\n        /* \"#utility.yul\":40200:40203   */\n      dup3\n        /* \"#utility.yul\":40196:40210   */\n      add\n        /* \"#utility.yul\":40188:40210   */\n      swap1\n      pop\n        /* \"#utility.yul\":40085:40217   */\n      swap2\n      swap1\n      pop\n      jump\t// out\n        /* \"#utility.yul\":40223:40337   */\n    tag_520:\n        /* \"#utility.yul\":40304:40308   */\n      0x00\n        /* \"#utility.yul\":40327:40330   */\n      dup2\n        /* \"#utility.yul\":40319:40330   */\n      swap1\n      pop\n        /* \"#utility.yul\":40223:40337   */\n      swap2\n      swap1\n      pop\n      jump\t// out\n        /* \"#utility.yul\":40343:40484   */\n    tag_566:\n        /* \"#utility.yul\":40392:40396   */\n      0x00\n        /* \"#utility.yul\":40415:40418   */\n      dup2\n        /* \"#utility.yul\":40407:40418   */\n      swap1\n      pop\n        /* \"#utility.yul\":40438:40441   */\n      dup2\n        /* \"#utility.yul\":40435:40436   */\n      0x00\n        /* \"#utility.yul\":40428:40442   */\n      mstore\n        /* \"#utility.yul\":40472:40476   */\n      0x20\n        /* \"#utility.yul\":40469:40470   */\n      0x00\n        /* \"#utility.yul\":40459:40477   */\n      keccak256\n        /* \"#utility.yul\":40451:40477   */\n      swap1\n      pop\n        /* \"#utility.yul\":40343:40484   */\n      swap2\n      swap1\n      pop\n      jump\t// out\n        /* \"#utility.yul\":40490:40604   */\n    tag_504:\n        /* \"#utility.yul\":40557:40563   */\n      0x00\n        /* \"#utility.yul\":40591:40596   */\n      dup2\n        /* \"#utility.yul\":40585:40597   */\n      mload\n        /* \"#utility.yul\":40575:40597   */\n      swap1\n      pop\n        /* \"#utility.yul\":40490:40604   */\n      swap2\n      swap1\n      pop\n      jump\t// out\n        /* \"#utility.yul\":40610:40709   */\n    tag_547:\n        /* \"#utility.yul\":40662:40668   */\n      0x00\n        /* \"#utility.yul\":40696:40701   */\n      dup2\n        /* \"#utility.yul\":40690:40702   */\n      mload\n        /* \"#utility.yul\":40680:40702   */\n      swap1\n      pop\n        /* \"#utility.yul\":40610:40709   */\n      swap2\n      swap1\n      pop\n      jump\t// out\n        /* \"#utility.yul\":40715:40828   */\n    tag_514:\n        /* \"#utility.yul\":40785:40789   */\n      0x00\n        /* \"#utility.yul\":40817:40821   */\n      0x20\n        /* \"#utility.yul\":40812:40815   */\n      dup3\n        /* \"#utility.yul\":40808:40822   */\n      add\n        /* \"#utility.yul\":40800:40822   */\n      swap1\n      pop\n        /* \"#utility.yul\":40715:40828   */\n      swap2\n      swap1\n      pop\n      jump\t// out\n        /* \"#utility.yul\":40834:40961   */\n    tag_528:\n        /* \"#utility.yul\":40918:40922   */\n      0x00\n        /* \"#utility.yul\":40950:40954   */\n      0x20\n        /* \"#utility.yul\":40945:40948   */\n      dup3\n        /* \"#utility.yul\":40941:40955   */\n      add\n        /* \"#utility.yul\":40933:40955   */\n      swap1\n      pop\n        /* \"#utility.yul\":40834:40961   */\n      swap2\n      swap1\n      pop\n      jump\t// out\n        /* \"#utility.yul\":40967:41151   */\n    tag_506:\n        /* \"#utility.yul\":41066:41077   */\n      0x00\n        /* \"#utility.yul\":41100:41106   */\n      dup3\n        /* \"#utility.yul\":41095:41098   */\n      dup3\n        /* \"#utility.yul\":41088:41107   */\n      mstore\n        /* \"#utility.yul\":41140:41144   */\n      0x20\n        /* \"#utility.yul\":41135:41138   */\n      dup3\n        /* \"#utility.yul\":41131:41145   */\n      add\n        /* \"#utility.yul\":41116:41145   */\n      swap1\n      pop\n        /* \"#utility.yul\":40967:41151   */\n      swap3\n      swap2\n      pop\n      pop\n      jump\t// out\n        /* \"#utility.yul\":41157:41351   */\n    tag_518:\n        /* \"#utility.yul\":41266:41277   */\n      0x00\n        /* \"#utility.yul\":41300:41306   */\n      dup3\n        /* \"#utility.yul\":41295:41298   */\n      dup3\n        /* \"#utility.yul\":41288:41307   */\n      mstore\n        /* \"#utility.yul\":41340:41344   */\n      0x20\n        /* \"#utility.yul\":41335:41338   */\n      dup3\n        /* \"#utility.yul\":41331:41345   */\n      add\n        /* \"#utility.yul\":41316:41345   */\n      swap1\n      pop\n        /* \"#utility.yul\":41157:41351   */\n      swap3\n      swap2\n      pop\n      pop\n      jump\t// out\n        /* \"#utility.yul\":41357:41516   */\n    tag_535:\n        /* \"#utility.yul\":41431:41442   */\n      0x00\n        /* \"#utility.yul\":41465:41471   */\n      dup3\n        /* \"#utility.yul\":41460:41463   */\n      dup3\n        /* \"#utility.yul\":41453:41472   */\n      mstore\n        /* \"#utility.yul\":41505:41509   */\n      0x20\n        /* \"#utility.yul\":41500:41503   */\n      dup3\n        /* \"#utility.yul\":41496:41510   */\n      add\n        /* \"#utility.yul\":41481:41510   */\n      swap1\n      pop\n        /* \"#utility.yul\":41357:41516   */\n      swap3\n      swap2\n      pop\n      pop\n      jump\t// out\n        /* \"#utility.yul\":41522:41691   */\n    tag_549:\n        /* \"#utility.yul\":41606:41617   */\n      0x00\n        /* \"#utility.yul\":41640:41646   */\n      dup3\n        /* \"#utility.yul\":41635:41638   */\n      dup3\n        /* \"#utility.yul\":41628:41647   */\n      mstore\n        /* \"#utility.yul\":41680:41684   */\n      0x20\n        /* \"#utility.yul\":41675:41678   */\n      dup3\n        /* \"#utility.yul\":41671:41685   */\n      add\n        /* \"#utility.yul\":41656:41685   */\n      swap1\n      pop\n        /* \"#utility.yul\":41522:41691   */\n      swap3\n      swap2\n      pop\n      pop\n      jump\t// out\n        /* \"#utility.yul\":41697:41845   */\n    tag_542:\n        /* \"#utility.yul\":41799:41810   */\n      0x00\n        /* \"#utility.yul\":41836:41839   */\n      dup2\n        /* \"#utility.yul\":41821:41839   */\n      swap1\n      pop\n        /* \"#utility.yul\":41697:41845   */\n      swap3\n      swap2\n      pop\n      pop\n      jump\t// out\n        /* \"#utility.yul\":41851:42566   */\n    tag_525:\n        /* \"#utility.yul\":41916:41921   */\n      0x00\n        /* \"#utility.yul\":41923:41929   */\n      dup1\n        /* \"#utility.yul\":41979:41982   */\n      dup4\n        /* \"#utility.yul\":41966:41983   */\n      calldataload\n        /* \"#utility.yul\":42071:42072   */\n      0x01\n        /* \"#utility.yul\":42065:42069   */\n      0x20\n        /* \"#utility.yul\":42061:42073   */\n      sub\n        /* \"#utility.yul\":42050:42058   */\n      dup5\n        /* \"#utility.yul\":42034:42048   */\n      calldatasize\n        /* \"#utility.yul\":42030:42059   */\n      sub\n        /* \"#utility.yul\":42026:42074   */\n      sub\n        /* \"#utility.yul\":42006:42024   */\n      dup2\n        /* \"#utility.yul\":42002:42075   */\n      slt\n        /* \"#utility.yul\":41992:42160   */\n      tag_814\n      jumpi\n        /* \"#utility.yul\":42079:42158   */\n      tag_815\n      tag_816\n      jump\t// in\n    tag_815:\n        /* \"#utility.yul\":41992:42160   */\n    tag_814:\n        /* \"#utility.yul\":42202:42210   */\n      dup4\n        /* \"#utility.yul\":42182:42200   */\n      dup2\n        /* \"#utility.yul\":42178:42211   */\n      add\n        /* \"#utility.yul\":42169:42211   */\n      swap3\n      pop\n        /* \"#utility.yul\":42244:42249   */\n      dup3\n        /* \"#utility.yul\":42231:42250   */\n      calldataload\n        /* \"#utility.yul\":42221:42250   */\n      swap2\n      pop\n        /* \"#utility.yul\":42279:42283   */\n      0x20\n        /* \"#utility.yul\":42272:42277   */\n      dup4\n        /* \"#utility.yul\":42268:42284   */\n      add\n        /* \"#utility.yul\":42259:42284   */\n      swap3\n      pop\n        /* \"#utility.yul\":42307:42325   */\n      0xffffffffffffffff\n        /* \"#utility.yul\":42299:42305   */\n      dup3\n        /* \"#utility.yul\":42296:42326   */\n      gt\n        /* \"#utility.yul\":42293:42410   */\n      iszero\n      tag_817\n      jumpi\n        /* \"#utility.yul\":42329:42408   */\n      tag_818\n      tag_819\n      jump\t// in\n    tag_818:\n        /* \"#utility.yul\":42293:42410   */\n    tag_817:\n        /* \"#utility.yul\":42468:42472   */\n      0x01\n        /* \"#utility.yul\":42460:42466   */\n      dup3\n        /* \"#utility.yul\":42456:42473   */\n      mul\n        /* \"#utility.yul\":42440:42454   */\n      calldatasize\n        /* \"#utility.yul\":42436:42474   */\n      sub\n        /* \"#utility.yul\":42426:42434   */\n      dup5\n        /* \"#utility.yul\":42422:42475   */\n      sgt\n        /* \"#utility.yul\":42419:42559   */\n      iszero\n      tag_820\n      jumpi\n        /* \"#utility.yul\":42478:42557   */\n      tag_821\n      tag_822\n      jump\t// in\n    tag_821:\n        /* \"#utility.yul\":42419:42559   */\n    tag_820:\n        /* \"#utility.yul\":41930:42566   */\n      pop\n        /* \"#utility.yul\":41851:42566   */\n      swap3\n      pop\n      swap3\n      swap1\n      pop\n      jump\t// out\n        /* \"#utility.yul\":42572:42814   */\n    tag_289:\n        /* \"#utility.yul\":42611:42614   */\n      0x00\n        /* \"#utility.yul\":42630:42649   */\n      tag_824\n        /* \"#utility.yul\":42647:42648   */\n      dup3\n        /* \"#utility.yul\":42630:42649   */\n      tag_677\n      jump\t// in\n    tag_824:\n        /* \"#utility.yul\":42625:42649   */\n      swap2\n      pop\n        /* \"#utility.yul\":42663:42682   */\n      tag_825\n        /* \"#utility.yul\":42680:42681   */\n      dup4\n        /* \"#utility.yul\":42663:42682   */\n      tag_677\n      jump\t// in\n    tag_825:\n        /* \"#utility.yul\":42658:42682   */\n      swap3\n      pop\n        /* \"#utility.yul\":42756:42757   */\n      dup3\n        /* \"#utility.yul\":42748:42754   */\n      0xffff\n        /* \"#utility.yul\":42744:42758   */\n      sub\n        /* \"#utility.yul\":42741:42742   */\n      dup3\n        /* \"#utility.yul\":42738:42759   */\n      gt\n        /* \"#utility.yul\":42735:42782   */\n      iszero\n      tag_826\n      jumpi\n        /* \"#utility.yul\":42762:42780   */\n      tag_827\n      tag_828\n      jump\t// in\n    tag_827:\n        /* \"#utility.yul\":42735:42782   */\n    tag_826:\n        /* \"#utility.yul\":42806:42807   */\n      dup3\n        /* \"#utility.yul\":42803:42804   */\n      dup3\n        /* \"#utility.yul\":42799:42808   */\n      add\n        /* \"#utility.yul\":42792:42808   */\n      swap1\n      pop\n        /* \"#utility.yul\":42572:42814   */\n      swap3\n      swap2\n      pop\n      pop\n      jump\t// out\n        /* \"#utility.yul\":42820:43125   */\n    tag_148:\n        /* \"#utility.yul\":42860:42863   */\n      0x00\n        /* \"#utility.yul\":42879:42899   */\n      tag_830\n        /* \"#utility.yul\":42897:42898   */\n      dup3\n        /* \"#utility.yul\":42879:42899   */\n      tag_681\n      jump\t// in\n    tag_830:\n        /* \"#utility.yul\":42874:42899   */\n      swap2\n      pop\n        /* \"#utility.yul\":42913:42933   */\n      tag_831\n        /* \"#utility.yul\":42931:42932   */\n      dup4\n        /* \"#utility.yul\":42913:42933   */\n      tag_681\n      jump\t// in\n    tag_831:\n        /* \"#utility.yul\":42908:42933   */\n      swap3\n      pop\n        /* \"#utility.yul\":43067:43068   */\n      dup3\n        /* \"#utility.yul\":42999:43065   */\n      0xffffffffffffffffffffffffffffffffffffffffffffffffffffffffffffffff\n        /* \"#utility.yul\":42995:43069   */\n      sub\n        /* \"#utility.yul\":42992:42993   */\n      dup3\n        /* \"#utility.yul\":42989:43070   */\n      gt\n        /* \"#utility.yul\":42986:43093   */\n      iszero\n      tag_832\n      jumpi\n        /* \"#utility.yul\":43073:43091   */\n      tag_833\n      tag_828\n      jump\t// in\n    tag_833:\n        /* \"#utility.yul\":42986:43093   */\n    tag_832:\n        /* \"#utility.yul\":43117:43118   */\n      dup3\n        /* \"#utility.yul\":43114:43115   */\n      dup3\n        /* \"#utility.yul\":43110:43119   */\n      add\n        /* \"#utility.yul\":43103:43119   */\n      swap1\n      pop\n        /* \"#utility.yul\":42820:43125   */\n      swap3\n      swap2\n      pop\n      pop\n      jump\t// out\n        /* \"#utility.yul\":43131:43479   */\n    tag_146:\n        /* \"#utility.yul\":43171:43178   */\n      0x00\n        /* \"#utility.yul\":43194:43214   */\n      tag_835\n        /* \"#utility.yul\":43212:43213   */\n      dup3\n        /* \"#utility.yul\":43194:43214   */\n      tag_681\n      jump\t// in\n    tag_835:\n        /* \"#utility.yul\":43189:43214   */\n      swap2\n      pop\n        /* \"#utility.yul\":43228:43248   */\n      tag_836\n        /* \"#utility.yul\":43246:43247   */\n      dup4\n        /* \"#utility.yul\":43228:43248   */\n      tag_681\n      jump\t// in\n    tag_836:\n        /* \"#utility.yul\":43223:43248   */\n      swap3\n      pop\n        /* \"#utility.yul\":43416:43417   */\n      dup2\n        /* \"#utility.yul\":43348:43414   */\n      0xffffffffffffffffffffffffffffffffffffffffffffffffffffffffffffffff\n        /* \"#utility.yul\":43344:43418   */\n      div\n        /* \"#utility.yul\":43341:43342   */\n      dup4\n        /* \"#utility.yul\":43338:43419   */\n      gt\n        /* \"#utility.yul\":43333:43334   */\n      dup3\n        /* \"#utility.yul\":43326:43335   */\n      iszero\n        /* \"#utility.yul\":43319:43336   */\n      iszero\n        /* \"#utility.yul\":43315:43420   */\n      and\n        /* \"#utility.yul\":43312:43443   */\n      iszero\n      tag_837\n      jumpi\n        /* \"#utility.yul\":43423:43441   */\n      tag_838\n      tag_828\n      jump\t// in\n    tag_838:\n        /* \"#utility.yul\":43312:43443   */\n    tag_837:\n        /* \"#utility.yul\":43471:43472   */\n      dup3\n        /* \"#utility.yul\":43468:43469   */\n      dup3\n        /* \"#utility.yul\":43464:43473   */\n      mul\n        /* \"#utility.yul\":43453:43473   */\n      swap1\n      pop\n        /* \"#utility.yul\":43131:43479   */\n      swap3\n      swap2\n      pop\n      pop\n      jump\t// out\n        /* \"#utility.yul\":43485:43676   */\n    tag_320:\n        /* \"#utility.yul\":43525:43529   */\n      0x00\n        /* \"#utility.yul\":43545:43565   */\n      tag_840\n        /* \"#utility.yul\":43563:43564   */\n      dup3\n        /* \"#utility.yul\":43545:43565   */\n      tag_681\n      jump\t// in\n    tag_840:\n        /* \"#utility.yul\":43540:43565   */\n      swap2\n      pop\n        /* \"#utility.yul\":43579:43599   */\n      tag_841\n        /* \"#utility.yul\":43597:43598   */\n      dup4\n        /* \"#utility.yul\":43579:43599   */\n      tag_681\n      jump\t// in\n    tag_841:\n        /* \"#utility.yul\":43574:43599   */\n      swap3\n      pop\n        /* \"#utility.yul\":43618:43619   */\n      dup3\n        /* \"#utility.yul\":43615:43616   */\n      dup3\n        /* \"#utility.yul\":43612:43620   */\n      lt\n        /* \"#utility.yul\":43609:43643   */\n      iszero\n      tag_842\n      jumpi\n        /* \"#utility.yul\":43623:43641   */\n      tag_843\n      tag_828\n      jump\t// in\n    tag_843:\n        /* \"#utility.yul\":43609:43643   */\n    tag_842:\n        /* \"#utility.yul\":43668:43669   */\n      dup3\n        /* \"#utility.yul\":43665:43666   */\n      dup3\n        /* \"#utility.yul\":43661:43670   */\n      sub\n        /* \"#utility.yul\":43653:43670   */\n      swap1\n      pop\n        /* \"#utility.yul\":43485:43676   */\n      swap3\n      swap2\n      pop\n      pop\n      jump\t// out\n        /* \"#utility.yul\":43682:43778   */\n    tag_497:\n        /* \"#utility.yul\":43719:43726   */\n      0x00\n        /* \"#utility.yul\":43748:43772   */\n      tag_845\n        /* \"#utility.yul\":43766:43771   */\n      dup3\n        /* \"#utility.yul\":43748:43772   */\n      tag_846\n      jump\t// in\n    tag_845:\n        /* \"#utility.yul\":43737:43772   */\n      swap1\n      pop\n        /* \"#utility.yul\":43682:43778   */\n      swap2\n      swap1\n      pop\n      jump\t// out\n        /* \"#utility.yul\":43784:43874   */\n    tag_532:\n        /* \"#utility.yul\":43818:43825   */\n      0x00\n        /* \"#utility.yul\":43861:43866   */\n      dup2\n        /* \"#utility.yul\":43854:43867   */\n      iszero\n        /* \"#utility.yul\":43847:43868   */\n      iszero\n        /* \"#utility.yul\":43836:43868   */\n      swap1\n      pop\n        /* \"#utility.yul\":43784:43874   */\n      swap2\n      swap1\n      pop\n      jump\t// out\n        /* \"#utility.yul\":43880:43998   */\n    tag_673:\n        /* \"#utility.yul\":43917:43924   */\n      0x00\n        /* \"#utility.yul\":43957:43991   */\n      0xffffffffffffffffffffffffffffffff\n        /* \"#utility.yul\":43950:43955   */\n      dup3\n        /* \"#utility.yul\":43946:43992   */\n      and\n        /* \"#utility.yul\":43935:43992   */\n      swap1\n      pop\n        /* \"#utility.yul\":43880:43998   */\n      swap2\n      swap1\n      pop\n      jump\t// out\n        /* \"#utility.yul\":44004:44093   */\n    tag_677:\n        /* \"#utility.yul\":44040:44047   */\n      0x00\n        /* \"#utility.yul\":44080:44086   */\n      0xffff\n        /* \"#utility.yul\":44073:44078   */\n      dup3\n        /* \"#utility.yul\":44069:44087   */\n      and\n        /* \"#utility.yul\":44058:44087   */\n      swap1\n      pop\n        /* \"#utility.yul\":44004:44093   */\n      swap2\n      swap1\n      pop\n      jump\t// out\n        /* \"#utility.yul\":44099:44225   */\n    tag_846:\n        /* \"#utility.yul\":44136:44143   */\n      0x00\n        /* \"#utility.yul\":44176:44218   */\n      0xffffffffffffffffffffffffffffffffffffffff\n        /* \"#utility.yul\":44169:44174   */\n      dup3\n        /* \"#utility.yul\":44165:44219   */\n      and\n        /* \"#utility.yul\":44154:44219   */\n      swap1\n      pop\n        /* \"#utility.yul\":44099:44225   */\n      swap2\n      swap1\n      pop\n      jump\t// out\n        /* \"#utility.yul\":44231:44308   */\n    tag_681:\n        /* \"#utility.yul\":44268:44275   */\n      0x00\n        /* \"#utility.yul\":44297:44302   */\n      dup2\n        /* \"#utility.yul\":44286:44302   */\n      swap1\n      pop\n        /* \"#utility.yul\":44231:44308   */\n      swap2\n      swap1\n      pop\n      jump\t// out\n        /* \"#utility.yul\":44314:44400   */\n    tag_685:\n        /* \"#utility.yul\":44349:44356   */\n      0x00\n        /* \"#utility.yul\":44389:44393   */\n      0xff\n        /* \"#utility.yul\":44382:44387   */\n      dup3\n        /* \"#utility.yul\":44378:44394   */\n      and\n        /* \"#utility.yul\":44367:44394   */\n      swap1\n      pop\n        /* \"#utility.yul\":44314:44400   */\n      swap2\n      swap1\n      pop\n      jump\t// out\n        /* \"#utility.yul\":44406:44560   */\n    tag_397:\n        /* \"#utility.yul\":44490:44496   */\n      dup3\n        /* \"#utility.yul\":44485:44488   */\n      dup2\n        /* \"#utility.yul\":44480:44483   */\n      dup4\n        /* \"#utility.yul\":44467:44497   */\n      calldatacopy\n        /* \"#utility.yul\":44552:44553   */\n      0x00\n        /* \"#utility.yul\":44543:44549   */\n      dup4\n        /* \"#utility.yul\":44538:44541   */\n      dup4\n        /* \"#utility.yul\":44534:44550   */\n      add\n        /* \"#utility.yul\":44527:44554   */\n      mstore\n        /* \"#utility.yul\":44406:44560   */\n      pop\n      pop\n      pop\n      jump\t// out\n        /* \"#utility.yul\":44566:44873   */\n    tag_551:\n        /* \"#utility.yul\":44634:44635   */\n      0x00\n        /* \"#utility.yul\":44644:44757   */\n    tag_855:\n        /* \"#utility.yul\":44658:44664   */\n      dup4\n        /* \"#utility.yul\":44655:44656   */\n      dup2\n        /* \"#utility.yul\":44652:44665   */\n      lt\n        /* \"#utility.yul\":44644:44757   */\n      iszero\n      tag_857\n      jumpi\n        /* \"#utility.yul\":44743:44744   */\n      dup1\n        /* \"#utility.yul\":44738:44741   */\n      dup3\n        /* \"#utility.yul\":44734:44745   */\n      add\n        /* \"#utility.yul\":44728:44746   */\n      mload\n        /* \"#utility.yul\":44724:44725   */\n      dup2\n        /* \"#utility.yul\":44719:44722   */\n      dup5\n        /* \"#utility.yul\":44715:44726   */\n      add\n        /* \"#utility.yul\":44708:44747   */\n      mstore\n        /* \"#utility.yul\":44680:44682   */\n      0x20\n        /* \"#utility.yul\":44677:44678   */\n      dup2\n        /* \"#utility.yul\":44673:44683   */\n      add\n        /* \"#utility.yul\":44668:44683   */\n      swap1\n      pop\n        /* \"#utility.yul\":44644:44757   */\n      jump(tag_855)\n    tag_857:\n        /* \"#utility.yul\":44775:44781   */\n      dup4\n        /* \"#utility.yul\":44772:44773   */\n      dup2\n        /* \"#utility.yul\":44769:44782   */\n      gt\n        /* \"#utility.yul\":44766:44867   */\n      iszero\n      tag_858\n      jumpi\n        /* \"#utility.yul\":44855:44856   */\n      0x00\n        /* \"#utility.yul\":44846:44852   */\n      dup5\n        /* \"#utility.yul\":44841:44844   */\n      dup5\n        /* \"#utility.yul\":44837:44853   */\n      add\n        /* \"#utility.yul\":44830:44857   */\n      mstore\n        /* \"#utility.yul\":44766:44867   */\n    tag_858:\n        /* \"#utility.yul\":44615:44873   */\n      pop\n        /* \"#utility.yul\":44566:44873   */\n      pop\n      pop\n      pop\n      jump\t// out\n        /* \"#utility.yul\":44879:45199   */\n    tag_73:\n        /* \"#utility.yul\":44923:44929   */\n      0x00\n        /* \"#utility.yul\":44960:44961   */\n      0x02\n        /* \"#utility.yul\":44954:44958   */\n      dup3\n        /* \"#utility.yul\":44950:44962   */\n      div\n        /* \"#utility.yul\":44940:44962   */\n      swap1\n      pop\n        /* \"#utility.yul\":45007:45008   */\n      0x01\n        /* \"#utility.yul\":45001:45005   */\n      dup3\n        /* \"#utility.yul\":44997:45009   */\n      and\n        /* \"#utility.yul\":45028:45046   */\n      dup1\n        /* \"#utility.yul\":45018:45099   */\n      tag_860\n      jumpi\n        /* \"#utility.yul\":45084:45088   */\n      0x7f\n        /* \"#utility.yul\":45076:45082   */\n      dup3\n        /* \"#utility.yul\":45072:45089   */\n      and\n        /* \"#utility.yul\":45062:45089   */\n      swap2\n      pop\n        /* \"#utility.yul\":45018:45099   */\n    tag_860:\n        /* \"#utility.yul\":45146:45148   */\n      0x20\n        /* \"#utility.yul\":45138:45144   */\n      dup3\n        /* \"#utility.yul\":45135:45149   */\n      lt\n        /* \"#utility.yul\":45115:45133   */\n      dup2\n        /* \"#utility.yul\":45112:45150   */\n      eq\n        /* \"#utility.yul\":45109:45193   */\n      iszero\n      tag_861\n      jumpi\n        /* \"#utility.yul\":45165:45183   */\n      tag_862\n      tag_863\n      jump\t// in\n    tag_862:\n        /* \"#utility.yul\":45109:45193   */\n    tag_861:\n        /* \"#utility.yul\":44930:45199   */\n      pop\n        /* \"#utility.yul\":44879:45199   */\n      swap2\n      swap1\n      pop\n      jump\t// out\n        /* \"#utility.yul\":45205:45486   */\n    tag_785:\n        /* \"#utility.yul\":45288:45315   */\n      tag_865\n        /* \"#utility.yul\":45310:45314   */\n      dup3\n        /* \"#utility.yul\":45288:45315   */\n      tag_538\n      jump\t// in\n    tag_865:\n        /* \"#utility.yul\":45280:45286   */\n      dup2\n        /* \"#utility.yul\":45276:45316   */\n      add\n        /* \"#utility.yul\":45418:45424   */\n      dup2\n        /* \"#utility.yul\":45406:45416   */\n      dup2\n        /* \"#utility.yul\":45403:45425   */\n      lt\n        /* \"#utility.yul\":45382:45400   */\n      0xffffffffffffffff\n        /* \"#utility.yul\":45370:45380   */\n      dup3\n        /* \"#utility.yul\":45367:45401   */\n      gt\n        /* \"#utility.yul\":45364:45426   */\n      or\n        /* \"#utility.yul\":45361:45449   */\n      iszero\n      tag_866\n      jumpi\n        /* \"#utility.yul\":45429:45447   */\n      tag_867\n      tag_790\n      jump\t// in\n    tag_867:\n        /* \"#utility.yul\":45361:45449   */\n    tag_866:\n        /* \"#utility.yul\":45469:45479   */\n      dup1\n        /* \"#utility.yul\":45465:45467   */\n      0x40\n        /* \"#utility.yul\":45458:45480   */\n      mstore\n        /* \"#utility.yul\":45248:45486   */\n      pop\n        /* \"#utility.yul\":45205:45486   */\n      pop\n      pop\n      jump\t// out\n        /* \"#utility.yul\":45492:45693   */\n    tag_236:\n        /* \"#utility.yul\":45531:45534   */\n      0x00\n        /* \"#utility.yul\":45554:45578   */\n      tag_869\n        /* \"#utility.yul\":45572:45577   */\n      dup3\n        /* \"#utility.yul\":45554:45578   */\n      tag_673\n      jump\t// in\n    tag_869:\n        /* \"#utility.yul\":45545:45578   */\n      swap2\n      pop\n        /* \"#utility.yul\":45600:45634   */\n      0xffffffffffffffffffffffffffffffff\n        /* \"#utility.yul\":45593:45598   */\n      dup3\n        /* \"#utility.yul\":45590:45635   */\n      eq\n        /* \"#utility.yul\":45587:45658   */\n      iszero\n      tag_870\n      jumpi\n        /* \"#utility.yul\":45638:45656   */\n      tag_871\n      tag_828\n      jump\t// in\n    tag_871:\n        /* \"#utility.yul\":45587:45658   */\n    tag_870:\n        /* \"#utility.yul\":45685:45686   */\n      0x01\n        /* \"#utility.yul\":45678:45683   */\n      dup3\n        /* \"#utility.yul\":45674:45687   */\n      add\n        /* \"#utility.yul\":45667:45687   */\n      swap1\n      pop\n        /* \"#utility.yul\":45492:45693   */\n      swap2\n      swap1\n      pop\n      jump\t// out\n        /* \"#utility.yul\":45699:45870   */\n    tag_261:\n        /* \"#utility.yul\":45737:45740   */\n      0x00\n        /* \"#utility.yul\":45760:45783   */\n      tag_873\n        /* \"#utility.yul\":45777:45782   */\n      dup3\n        /* \"#utility.yul\":45760:45783   */\n      tag_677\n      jump\t// in\n    tag_873:\n        /* \"#utility.yul\":45751:45783   */\n      swap2\n      pop\n        /* \"#utility.yul\":45805:45811   */\n      0xffff\n        /* \"#utility.yul\":45798:45803   */\n      dup3\n        /* \"#utility.yul\":45795:45812   */\n      eq\n        /* \"#utility.yul\":45792:45835   */\n      iszero\n      tag_874\n      jumpi\n        /* \"#utility.yul\":45815:45833   */\n      tag_875\n      tag_828\n      jump\t// in\n    tag_875:\n        /* \"#utility.yul\":45792:45835   */\n    tag_874:\n        /* \"#utility.yul\":45862:45863   */\n      0x01\n        /* \"#utility.yul\":45855:45860   */\n      dup3\n        /* \"#utility.yul\":45851:45864   */\n      add\n        /* \"#utility.yul\":45844:45864   */\n      swap1\n      pop\n        /* \"#utility.yul\":45699:45870   */\n      swap2\n      swap1\n      pop\n      jump\t// out\n        /* \"#utility.yul\":45876:46109   */\n    tag_97:\n        /* \"#utility.yul\":45915:45918   */\n      0x00\n        /* \"#utility.yul\":45938:45962   */\n      tag_877\n        /* \"#utility.yul\":45956:45961   */\n      dup3\n        /* \"#utility.yul\":45938:45962   */\n      tag_681\n      jump\t// in\n    tag_877:\n        /* \"#utility.yul\":45929:45962   */\n      swap2\n      pop\n        /* \"#utility.yul\":45984:46050   */\n      0xffffffffffffffffffffffffffffffffffffffffffffffffffffffffffffffff\n        /* \"#utility.yul\":45977:45982   */\n      dup3\n        /* \"#utility.yul\":45974:46051   */\n      eq\n        /* \"#utility.yul\":45971:46074   */\n      iszero\n      tag_878\n      jumpi\n        /* \"#utility.yul\":46054:46072   */\n      tag_879\n      tag_828\n      jump\t// in\n    tag_879:\n        /* \"#utility.yul\":45971:46074   */\n    tag_878:\n        /* \"#utility.yul\":46101:46102   */\n      0x01\n        /* \"#utility.yul\":46094:46099   */\n      dup3\n        /* \"#utility.yul\":46090:46103   */\n      add\n        /* \"#utility.yul\":46083:46103   */\n      swap1\n      pop\n        /* \"#utility.yul\":45876:46109   */\n      swap2\n      swap1\n      pop\n      jump\t// out\n        /* \"#utility.yul\":46115:46295   */\n    tag_828:\n        /* \"#utility.yul\":46163:46240   */\n      0x4e487b7100000000000000000000000000000000000000000000000000000000\n        /* \"#utility.yul\":46160:46161   */\n      0x00\n        /* \"#utility.yul\":46153:46241   */\n      mstore\n        /* \"#utility.yul\":46260:46264   */\n      0x11\n        /* \"#utility.yul\":46257:46258   */\n      0x04\n        /* \"#utility.yul\":46250:46265   */\n      mstore\n        /* \"#utility.yul\":46284:46288   */\n      0x24\n        /* \"#utility.yul\":46281:46282   */\n      0x00\n        /* \"#utility.yul\":46274:46289   */\n      revert\n        /* \"#utility.yul\":46301:46481   */\n    tag_863:\n        /* \"#utility.yul\":46349:46426   */\n      0x4e487b7100000000000000000000000000000000000000000000000000000000\n        /* \"#utility.yul\":46346:46347   */\n      0x00\n        /* \"#utility.yul\":46339:46427   */\n      mstore\n        /* \"#utility.yul\":46446:46450   */\n      0x22\n        /* \"#utility.yul\":46443:46444   */\n      0x04\n        /* \"#utility.yul\":46436:46451   */\n      mstore\n        /* \"#utility.yul\":46470:46474   */\n      0x24\n        /* \"#utility.yul\":46467:46468   */\n      0x00\n        /* \"#utility.yul\":46460:46475   */\n      revert\n        /* \"#utility.yul\":46487:46667   */\n    tag_108:\n        /* \"#utility.yul\":46535:46612   */\n      0x4e487b7100000000000000000000000000000000000000000000000000000000\n        /* \"#utility.yul\":46532:46533   */\n      0x00\n        /* \"#utility.yul\":46525:46613   */\n      mstore\n        /* \"#utility.yul\":46632:46636   */\n      0x32\n        /* \"#utility.yul\":46629:46630   */\n      0x04\n        /* \"#utility.yul\":46622:46637   */\n      mstore\n        /* \"#utility.yul\":46656:46660   */\n      0x24\n        /* \"#utility.yul\":46653:46654   */\n      0x00\n        /* \"#utility.yul\":46646:46661   */\n      revert\n        /* \"#utility.yul\":46673:46853   */\n    tag_790:\n        /* \"#utility.yul\":46721:46798   */\n      0x4e487b7100000000000000000000000000000000000000000000000000000000\n        /* \"#utility.yul\":46718:46719   */\n      0x00\n        /* \"#utility.yul\":46711:46799   */\n      mstore\n        /* \"#utility.yul\":46818:46822   */\n      0x41\n        /* \"#utility.yul\":46815:46816   */\n      0x04\n        /* \"#utility.yul\":46808:46823   */\n      mstore\n        /* \"#utility.yul\":46842:46846   */\n      0x24\n        /* \"#utility.yul\":46839:46840   */\n      0x00\n        /* \"#utility.yul\":46832:46847   */\n      revert\n        /* \"#utility.yul\":46859:46976   */\n    tag_819:\n        /* \"#utility.yul\":46968:46969   */\n      0x00\n        /* \"#utility.yul\":46965:46966   */\n      dup1\n        /* \"#utility.yul\":46958:46970   */\n      revert\n        /* \"#utility.yul\":46982:47099   */\n    tag_412:\n        /* \"#utility.yul\":47091:47092   */\n      0x00\n        /* \"#utility.yul\":47088:47089   */\n      dup1\n        /* \"#utility.yul\":47081:47093   */\n      revert\n        /* \"#utility.yul\":47105:47222   */\n    tag_373:\n        /* \"#utility.yul\":47214:47215   */\n      0x00\n        /* \"#utility.yul\":47211:47212   */\n      dup1\n        /* \"#utility.yul\":47204:47216   */\n      revert\n        /* \"#utility.yul\":47228:47345   */\n    tag_777:\n        /* \"#utility.yul\":47337:47338   */\n      0x00\n        /* \"#utility.yul\":47334:47335   */\n      dup1\n        /* \"#utility.yul\":47327:47339   */\n      revert\n        /* \"#utility.yul\":47351:47468   */\n    tag_774:\n        /* \"#utility.yul\":47460:47461   */\n      0x00\n        /* \"#utility.yul\":47457:47458   */\n      dup1\n        /* \"#utility.yul\":47450:47462   */\n      revert\n        /* \"#utility.yul\":47474:47591   */\n    tag_822:\n        /* \"#utility.yul\":47583:47584   */\n      0x00\n        /* \"#utility.yul\":47580:47581   */\n      dup1\n        /* \"#utility.yul\":47573:47585   */\n      revert\n        /* \"#utility.yul\":47597:47714   */\n    tag_355:\n        /* \"#utility.yul\":47706:47707   */\n      0x00\n        /* \"#utility.yul\":47703:47704   */\n      dup1\n        /* \"#utility.yul\":47696:47708   */\n      revert\n        /* \"#utility.yul\":47720:47837   */\n    tag_780:\n        /* \"#utility.yul\":47829:47830   */\n      0x00\n        /* \"#utility.yul\":47826:47827   */\n      dup1\n        /* \"#utility.yul\":47819:47831   */\n      revert\n        /* \"#utility.yul\":47843:47960   */\n    tag_395:\n        /* \"#utility.yul\":47952:47953   */\n      0x00\n        /* \"#utility.yul\":47949:47950   */\n      dup1\n        /* \"#utility.yul\":47942:47954   */\n      revert\n        /* \"#utility.yul\":47966:48083   */\n    tag_457:\n        /* \"#utility.yul\":48075:48076   */\n      0x00\n        /* \"#utility.yul\":48072:48073   */\n      dup1\n        /* \"#utility.yul\":48065:48077   */\n      revert\n        /* \"#utility.yul\":48089:48206   */\n    tag_816:\n        /* \"#utility.yul\":48198:48199   */\n      0x00\n        /* \"#utility.yul\":48195:48196   */\n      dup1\n        /* \"#utility.yul\":48188:48200   */\n      revert\n        /* \"#utility.yul\":48212:48329   */\n    tag_439:\n        /* \"#utility.yul\":48321:48322   */\n      0x00\n        /* \"#utility.yul\":48318:48319   */\n      dup1\n        /* \"#utility.yul\":48311:48323   */\n      revert\n        /* \"#utility.yul\":48335:48437   */\n    tag_538:\n        /* \"#utility.yul\":48376:48382   */\n      0x00\n        /* \"#utility.yul\":48427:48429   */\n      0x1f\n        /* \"#utility.yul\":48423:48430   */\n      not\n        /* \"#utility.yul\":48418:48420   */\n      0x1f\n        /* \"#utility.yul\":48411:48416   */\n      dup4\n        /* \"#utility.yul\":48407:48421   */\n      add\n        /* \"#utility.yul\":48403:48431   */\n      and\n        /* \"#utility.yul\":48393:48431   */\n      swap1\n      pop\n        /* \"#utility.yul\":48335:48437   */\n      swap2\n      swap1\n      pop\n      jump\t// out\n        /* \"#utility.yul\":48443:48611   */\n    tag_574:\n        /* \"#utility.yul\":48583:48603   */\n      0x50726f706f73616c3a20696e6163746976650000000000000000000000000000\n        /* \"#utility.yul\":48579:48580   */\n      0x00\n        /* \"#utility.yul\":48571:48577   */\n      dup3\n        /* \"#utility.yul\":48567:48581   */\n      add\n        /* \"#utility.yul\":48560:48604   */\n      mstore\n        /* \"#utility.yul\":48443:48611   */\n      pop\n      jump\t// out\n        /* \"#utility.yul\":48617:48848   */\n    tag_579:\n        /* \"#utility.yul\":48757:48791   */\n      0x456e642074696d652073686f756c642062652067726561746572207468616e20\n        /* \"#utility.yul\":48753:48754   */\n      0x00\n        /* \"#utility.yul\":48745:48751   */\n      dup3\n        /* \"#utility.yul\":48741:48755   */\n      add\n        /* \"#utility.yul\":48734:48792   */\n      mstore\n        /* \"#utility.yul\":48826:48840   */\n      0x63757272656e742074696d650000000000000000000000000000000000000000\n        /* \"#utility.yul\":48821:48823   */\n      0x20\n        /* \"#utility.yul\":48813:48819   */\n      dup3\n        /* \"#utility.yul\":48809:48824   */\n      add\n        /* \"#utility.yul\":48802:48841   */\n      mstore\n        /* \"#utility.yul\":48617:48848   */\n      pop\n      jump\t// out\n        /* \"#utility.yul\":48854:49075   */\n    tag_584:\n        /* \"#utility.yul\":48994:49028   */\n      0x45524332303a206275726e20616d6f756e7420657863656564732062616c616e\n        /* \"#utility.yul\":48990:48991   */\n      0x00\n        /* \"#utility.yul\":48982:48988   */\n      dup3\n        /* \"#utility.yul\":48978:48992   */\n      add\n        /* \"#utility.yul\":48971:49029   */\n      mstore\n        /* \"#utility.yul\":49063:49067   */\n      0x6365000000000000000000000000000000000000000000000000000000000000\n        /* \"#utility.yul\":49058:49060   */\n      0x20\n        /* \"#utility.yul\":49050:49056   */\n      dup3\n        /* \"#utility.yul\":49046:49061   */\n      add\n        /* \"#utility.yul\":49039:49068   */\n      mstore\n        /* \"#utility.yul\":48854:49075   */\n      pop\n      jump\t// out\n        /* \"#utility.yul\":49081:49244   */\n    tag_589:\n        /* \"#utility.yul\":49221:49236   */\n      0x616c726561647920766f74656400000000000000000000000000000000000000\n        /* \"#utility.yul\":49217:49218   */\n      0x00\n        /* \"#utility.yul\":49209:49215   */\n      dup3\n        /* \"#utility.yul\":49205:49219   */\n      add\n        /* \"#utility.yul\":49198:49237   */\n      mstore\n        /* \"#utility.yul\":49081:49244   */\n      pop\n      jump\t// out\n        /* \"#utility.yul\":49250:49427   */\n    tag_594:\n        /* \"#utility.yul\":49390:49419   */\n      0x50726f706f73616c3a20696e76616c69642063616e6469646174650000000000\n        /* \"#utility.yul\":49386:49387   */\n      0x00\n        /* \"#utility.yul\":49378:49384   */\n      dup3\n        /* \"#utility.yul\":49374:49388   */\n      add\n        /* \"#utility.yul\":49367:49420   */\n      mstore\n        /* \"#utility.yul\":49250:49427   */\n      pop\n      jump\t// out\n        /* \"#utility.yul\":49433:49603   */\n    tag_599:\n        /* \"#utility.yul\":49573:49595   */\n      0x6e6f7420612076616c69642070726f706f73616c000000000000000000000000\n        /* \"#utility.yul\":49569:49570   */\n      0x00\n        /* \"#utility.yul\":49561:49567   */\n      dup3\n        /* \"#utility.yul\":49557:49571   */\n      add\n        /* \"#utility.yul\":49550:49596   */\n      mstore\n        /* \"#utility.yul\":49433:49603   */\n      pop\n      jump\t// out\n        /* \"#utility.yul\":49609:49831   */\n    tag_604:\n        /* \"#utility.yul\":49749:49783   */\n      0x6e6f7420612076616c696420766f74657220666f7220746869732070726f706f\n        /* \"#utility.yul\":49745:49746   */\n      0x00\n        /* \"#utility.yul\":49737:49743   */\n      dup3\n        /* \"#utility.yul\":49733:49747   */\n      add\n        /* \"#utility.yul\":49726:49784   */\n      mstore\n        /* \"#utility.yul\":49818:49823   */\n      0x73616c0000000000000000000000000000000000000000000000000000000000\n        /* \"#utility.yul\":49813:49815   */\n      0x20\n        /* \"#utility.yul\":49805:49811   */\n      dup3\n        /* \"#utility.yul\":49801:49816   */\n      add\n        /* \"#utility.yul\":49794:49824   */\n      mstore\n        /* \"#utility.yul\":49609:49831   */\n      pop\n      jump\t// out\n        /* \"#utility.yul\":49837:50007   */\n    tag_609:\n        /* \"#utility.yul\":49977:49999   */\n      0x70726f706f73616c206e6f742073746172746564000000000000000000000000\n        /* \"#utility.yul\":49973:49974   */\n      0x00\n        /* \"#utility.yul\":49965:49971   */\n      dup3\n        /* \"#utility.yul\":49961:49975   */\n      add\n        /* \"#utility.yul\":49954:50000   */\n      mstore\n        /* \"#utility.yul\":49837:50007   */\n      pop\n      jump\t// out\n        /* \"#utility.yul\":50013:50235   */\n    tag_614:\n        /* \"#utility.yul\":50153:50187   */\n      0x4e6f7420612076616c696420766f74657220666f7220746869732070726f706f\n        /* \"#utility.yul\":50149:50150   */\n      0x00\n        /* \"#utility.yul\":50141:50147   */\n      dup3\n        /* \"#utility.yul\":50137:50151   */\n      add\n        /* \"#utility.yul\":50130:50188   */\n      mstore\n        /* \"#utility.yul\":50222:50227   */\n      0x73616c0000000000000000000000000000000000000000000000000000000000\n        /* \"#utility.yul\":50217:50219   */\n      0x20\n        /* \"#utility.yul\":50209:50215   */\n      dup3\n        /* \"#utility.yul\":50205:50220   */\n      add\n        /* \"#utility.yul\":50198:50228   */\n      mstore\n        /* \"#utility.yul\":50013:50235   */\n      pop\n      jump\t// out\n        /* \"#utility.yul\":50241:50409   */\n    tag_619:\n        /* \"#utility.yul\":50381:50401   */\n      0x696e76616c69642070726f706f73616c49640000000000000000000000000000\n        /* \"#utility.yul\":50377:50378   */\n      0x00\n        /* \"#utility.yul\":50369:50375   */\n      dup3\n        /* \"#utility.yul\":50365:50379   */\n      add\n        /* \"#utility.yul\":50358:50402   */\n      mstore\n        /* \"#utility.yul\":50241:50409   */\n      pop\n      jump\t// out\n        /* \"#utility.yul\":50415:50637   */\n    tag_624:\n        /* \"#utility.yul\":50555:50589   */\n      0x6e6f742073756666696369656e742062616c616e636520746f20636173742076\n        /* \"#utility.yul\":50551:50552   */\n      0x00\n        /* \"#utility.yul\":50543:50549   */\n      dup3\n        /* \"#utility.yul\":50539:50553   */\n      add\n        /* \"#utility.yul\":50532:50590   */\n      mstore\n        /* \"#utility.yul\":50624:50629   */\n      0x6f74650000000000000000000000000000000000000000000000000000000000\n        /* \"#utility.yul\":50619:50621   */\n      0x20\n        /* \"#utility.yul\":50611:50617   */\n      dup3\n        /* \"#utility.yul\":50607:50622   */\n      add\n        /* \"#utility.yul\":50600:50630   */\n      mstore\n        /* \"#utility.yul\":50415:50637   */\n      pop\n      jump\t// out\n        /* \"#utility.yul\":50643:50872   */\n    tag_629:\n        /* \"#utility.yul\":50783:50817   */\n      0x456e642074696d652073686f756c642062652067726561746572207468616e20\n        /* \"#utility.yul\":50779:50780   */\n      0x00\n        /* \"#utility.yul\":50771:50777   */\n      dup3\n        /* \"#utility.yul\":50767:50781   */\n      add\n        /* \"#utility.yul\":50760:50818   */\n      mstore\n        /* \"#utility.yul\":50852:50864   */\n      0x73746172742074696d6500000000000000000000000000000000000000000000\n        /* \"#utility.yul\":50847:50849   */\n      0x20\n        /* \"#utility.yul\":50839:50845   */\n      dup3\n        /* \"#utility.yul\":50835:50850   */\n      add\n        /* \"#utility.yul\":50828:50865   */\n      mstore\n        /* \"#utility.yul\":50643:50872   */\n      pop\n      jump\t// out\n        /* \"#utility.yul\":50878:51098   */\n    tag_634:\n        /* \"#utility.yul\":51018:51052   */\n      0x45524332303a206275726e2066726f6d20746865207a65726f20616464726573\n        /* \"#utility.yul\":51014:51015   */\n      0x00\n        /* \"#utility.yul\":51006:51012   */\n      dup3\n        /* \"#utility.yul\":51002:51016   */\n      add\n        /* \"#utility.yul\":50995:51053   */\n      mstore\n        /* \"#utility.yul\":51087:51090   */\n      0x7300000000000000000000000000000000000000000000000000000000000000\n        /* \"#utility.yul\":51082:51084   */\n      0x20\n        /* \"#utility.yul\":51074:51080   */\n      dup3\n        /* \"#utility.yul\":51070:51085   */\n      add\n        /* \"#utility.yul\":51063:51091   */\n      mstore\n        /* \"#utility.yul\":50878:51098   */\n      pop\n      jump\t// out\n        /* \"#utility.yul\":51104:51275   */\n    tag_639:\n        /* \"#utility.yul\":51244:51267   */\n      0x50726f706f73616c20646f206e6f742065786973740000000000000000000000\n        /* \"#utility.yul\":51240:51241   */\n      0x00\n        /* \"#utility.yul\":51232:51238   */\n      dup3\n        /* \"#utility.yul\":51228:51242   */\n      add\n        /* \"#utility.yul\":51221:51268   */\n      mstore\n        /* \"#utility.yul\":51104:51275   */\n      pop\n      jump\t// out\n        /* \"#utility.yul\":51281:51504   */\n    tag_644:\n        /* \"#utility.yul\":51421:51455   */\n      0x6e6f7420612076616c6964206c656e677468206f66206861736820726573706f\n        /* \"#utility.yul\":51417:51418   */\n      0x00\n        /* \"#utility.yul\":51409:51415   */\n      dup3\n        /* \"#utility.yul\":51405:51419   */\n      add\n        /* \"#utility.yul\":51398:51456   */\n      mstore\n        /* \"#utility.yul\":51490:51496   */\n      0x6e73652100000000000000000000000000000000000000000000000000000000\n        /* \"#utility.yul\":51485:51487   */\n      0x20\n        /* \"#utility.yul\":51477:51483   */\n      dup3\n        /* \"#utility.yul\":51473:51488   */\n      add\n        /* \"#utility.yul\":51466:51497   */\n      mstore\n        /* \"#utility.yul\":51281:51504   */\n      pop\n      jump\t// out\n        /* \"#utility.yul\":51510:51664   */\n    tag_649:\n        /* \"#utility.yul\":51650:51656   */\n      0x6d696e7400000000000000000000000000000000000000000000000000000000\n        /* \"#utility.yul\":51646:51647   */\n      0x00\n        /* \"#utility.yul\":51638:51644   */\n      dup3\n        /* \"#utility.yul\":51634:51648   */\n      add\n        /* \"#utility.yul\":51627:51657   */\n      mstore\n        /* \"#utility.yul\":51510:51664   */\n      pop\n      jump\t// out\n        /* \"#utility.yul\":51670:51849   */\n    tag_654:\n        /* \"#utility.yul\":51810:51841   */\n      0x496e76616c696420766f74657220666f722070726f706f73616c496421000000\n        /* \"#utility.yul\":51806:51807   */\n      0x00\n        /* \"#utility.yul\":51798:51804   */\n      dup3\n        /* \"#utility.yul\":51794:51808   */\n      add\n        /* \"#utility.yul\":51787:51842   */\n      mstore\n        /* \"#utility.yul\":51670:51849   */\n      pop\n      jump\t// out\n        /* \"#utility.yul\":51855:52009   */\n    tag_659:\n        /* \"#utility.yul\":51995:52001   */\n      0x6275726e00000000000000000000000000000000000000000000000000000000\n        /* \"#utility.yul\":51991:51992   */\n      0x00\n        /* \"#utility.yul\":51983:51989   */\n      dup3\n        /* \"#utility.yul\":51979:51993   */\n      add\n        /* \"#utility.yul\":51972:52002   */\n      mstore\n        /* \"#utility.yul\":51855:52009   */\n      pop\n      jump\t// out\n        /* \"#utility.yul\":52015:52174   */\n    tag_664:\n        /* \"#utility.yul\":52155:52166   */\n      0x6e6f7420766f7465640000000000000000000000000000000000000000000000\n        /* \"#utility.yul\":52151:52152   */\n      0x00\n        /* \"#utility.yul\":52143:52149   */\n      dup3\n        /* \"#utility.yul\":52139:52153   */\n      add\n        /* \"#utility.yul\":52132:52167   */\n      mstore\n        /* \"#utility.yul\":52015:52174   */\n      pop\n      jump\t// out\n        /* \"#utility.yul\":52180:52361   */\n    tag_669:\n        /* \"#utility.yul\":52320:52353   */\n      0x45524332303a206d696e7420746f20746865207a65726f206164647265737300\n        /* \"#utility.yul\":52316:52317   */\n      0x00\n        /* \"#utility.yul\":52308:52314   */\n      dup3\n        /* \"#utility.yul\":52304:52318   */\n      add\n        /* \"#utility.yul\":52297:52354   */\n      mstore\n        /* \"#utility.yul\":52180:52361   */\n      pop\n      jump\t// out\n        /* \"#utility.yul\":52367:52489   */\n    tag_400:\n        /* \"#utility.yul\":52440:52464   */\n      tag_918\n        /* \"#utility.yul\":52458:52463   */\n      dup2\n        /* \"#utility.yul\":52440:52464   */\n      tag_497\n      jump\t// in\n    tag_918:\n        /* \"#utility.yul\":52433:52438   */\n      dup2\n        /* \"#utility.yul\":52430:52465   */\n      eq\n        /* \"#utility.yul\":52420:52483   */\n      tag_919\n      jumpi\n        /* \"#utility.yul\":52479:52480   */\n      0x00\n        /* \"#utility.yul\":52476:52477   */\n      dup1\n        /* \"#utility.yul\":52469:52481   */\n      revert\n        /* \"#utility.yul\":52420:52483   */\n    tag_919:\n        /* \"#utility.yul\":52367:52489   */\n      pop\n      jump\t// out\n        /* \"#utility.yul\":52495:52617   */\n    tag_431:\n        /* \"#utility.yul\":52568:52592   */\n      tag_921\n        /* \"#utility.yul\":52586:52591   */\n      dup2\n        /* \"#utility.yul\":52568:52592   */\n      tag_681\n      jump\t// in\n    tag_921:\n        /* \"#utility.yul\":52561:52566   */\n      dup2\n        /* \"#utility.yul\":52558:52593   */\n      eq\n        /* \"#utility.yul\":52548:52611   */\n      tag_922\n      jumpi\n        /* \"#utility.yul\":52607:52608   */\n      0x00\n        /* \"#utility.yul\":52604:52605   */\n      dup1\n        /* \"#utility.yul\":52597:52609   */\n      revert\n        /* \"#utility.yul\":52548:52611   */\n    tag_922:\n        /* \"#utility.yul\":52495:52617   */\n      pop\n      jump\t// out\n        /* \"#utility.yul\":52623:52741   */\n    tag_435:\n        /* \"#utility.yul\":52694:52716   */\n      tag_924\n        /* \"#utility.yul\":52710:52715   */\n      dup2\n        /* \"#utility.yul\":52694:52716   */\n      tag_685\n      jump\t// in\n    tag_924:\n        /* \"#utility.yul\":52687:52692   */\n      dup2\n        /* \"#utility.yul\":52684:52717   */\n      eq\n        /* \"#utility.yul\":52674:52735   */\n      tag_925\n      jumpi\n        /* \"#utility.yul\":52731:52732   */\n      0x00\n        /* \"#utility.yul\":52728:52729   */\n      dup1\n        /* \"#utility.yul\":52721:52733   */\n      revert\n        /* \"#utility.yul\":52674:52735   */\n    tag_925:\n        /* \"#utility.yul\":52623:52741   */\n      pop\n      jump\t// out\n\n    auxdata: 0xa2646970667358221220d1069961d0a1b69b5cd04ebfe3e9378a310770772d12932ab49fc7d8abcaa86964736f6c63430008070033\n}\n",
				"bytecode": {
					"linkReferences": {},
					"object": "60806040523480156200001157600080fd5b506040518060400160405280600c81526020017f51566f74696e67546f6b656e00000000000000000000000000000000000000008152506040518060400160405280600281526020017f5176000000000000000000000000000000000000000000000000000000000000815250816002908051906020019062000096929190620000f9565b508060039080519060200190620000af929190620000f9565b50505033600460006101000a81548173ffffffffffffffffffffffffffffffffffffffff021916908373ffffffffffffffffffffffffffffffffffffffff1602179055506200020e565b8280546200010790620001a9565b90600052602060002090601f0160209004810192826200012b576000855562000177565b82601f106200014657805160ff191683800117855562000177565b8280016001018555821562000177579182015b828111156200017657825182559160200191906001019062000159565b5b5090506200018691906200018a565b5090565b5b80821115620001a55760008160009055506001016200018b565b5090565b60006002820490506001821680620001c257607f821691505b60208210811415620001d957620001d8620001df565b5b50919050565b7f4e487b7100000000000000000000000000000000000000000000000000000000600052602260045260246000fd5b613bb0806200021e6000396000f3fe608060405234801561001057600080fd5b50600436106100b45760003560e01c806370a082311161007157806370a082311461018157806393d336aa146101b157806395d89b41146101e15780639d671564146101ff578063ab9c70d414610230578063e745d68e14610263576100b4565b8063013cf08b146100b957806306fdde03146100ef57806318160ddd1461010d578063313ce5671461012b5780634de77e48146101495780635c230eee14610165575b600080fd5b6100d360048036038101906100ce91906123d6565b610294565b6040516100e69796959493929190612bc8565b60405180910390f35b6100f7610399565b6040516101049190612c59565b60405180910390f35b61011561042b565b6040516101229190612f5c565b60405180910390f35b610133610435565b6040516101409190613072565b60405180910390f35b610163600480360381019061015e9190612511565b61043e565b005b61017f600480360381019061017a9190612403565b610768565b005b61019b60048036038101906101969190612369565b610c31565b6040516101a89190612f5c565b60405180910390f35b6101cb60048036038101906101c691906124a2565b610c79565b6040516101d89190612c3e565b60405180910390f35b6101e9610e1f565b6040516101f69190612c59565b60405180910390f35b610219600480360381019061021491906123d6565b610eb1565b604051610227929190613042565b60405180910390f35b61024a60048036038101906102459190612396565b61102c565b60405161025a9493929190612f77565b60405180910390f35b61027d60048036038101906102789190612369565b611096565b60405161028b929190612f33565b60405180910390f35b60076020528060005260406000206000915090508060000160009054906101000a900473ffffffffffffffffffffffffffffffffffffffff16908060000160149054906101000a900460ff16908060010180546102f0906134b8565b80601f016020809104026020016040519081016040528092919081815260200182805461031c906134b8565b80156103695780601f1061033e57610100808354040283529160200191610369565b820191906000526020600020905b81548152906001019060200180831161034c57829003601f168201915b5050505050908060020154908060030154908060040160009054906101000a900461ffff16908060050154905087565b6060600280546103a8906134b8565b80601f01602080910402602001604051908101604052809291908181526020018280546103d4906134b8565b80156104215780601f106103f657610100808354040283529160200191610421565b820191906000526020600020905b81548152906001019060200180831161040457829003601f168201915b5050505050905090565b6000600154905090565b60006012905090565b854210610480576040517f08c379a000000000000000000000000000000000000000000000000000000000815260040161047790612d5b565b60405180910390fd5b8442106104c2576040517f08c379a00000000000000000000000000000000000000000000000000000000081526004016104b990612c9b565b60405180910390fd5b848610610504576040517f08c379a00000000000000000000000000000000000000000000000000000000081526004016104fb90612ddb565b60405180910390fd5b600560008154809291906105179061357f565b9190505550610553898989898989878a8a6007600060055481526020019081526020016000206110f2909998979695949392919063ffffffff16565b507f239a8a71a7d1cb0d134f6cc072ad6390e36a88c8e78dff69013ee79528441e8060055489898989898989604051610593989796959493929190612fbc565b60405180910390a1600160096000600554815260200190815260200160002060006101000a81548160ff02191690831515021790555060005b8851811015610701576105f98982815181106105eb576105ea613626565b5b602002602001015183611324565b61069a6005548a838151811061061257610611613626565b5b6020026020010151600085600860008f888151811061063457610633613626565b5b602002602001015173ffffffffffffffffffffffffffffffffffffffff1673ffffffffffffffffffffffffffffffffffffffff1681526020019081526020016000206000600554815260200190815260200160002061139590949392919063ffffffff16565b507fabf5327be9f5825c40d58bda541dd07f09b62df3376bbd5ecdbaa8bd82a9d4928982815181106106cf576106ce613626565b5b6020026020010151836040516106e6929190612e5b565b60405180910390a180806106f99061357f565b9150506105cc565b5061075c60055460066000610714611415565b73ffffffffffffffffffffffffffffffffffffffff1673ffffffffffffffffffffffffffffffffffffffff16815260200190815260200160002061141d90919063ffffffff16565b50505050505050505050565b6009600085815260200190815260200160002060009054906101000a900460ff166107c8576040517f08c379a00000000000000000000000000000000000000000000000000000000081526004016107bf90612d9b565b60405180910390fd5b83600860008573ffffffffffffffffffffffffffffffffffffffff1673ffffffffffffffffffffffffffffffffffffffff1681526020019081526020016000206000868152602001908152602001600020600001541461085d576040517f08c379a000000000000000000000000000000000000000000000000000000000815260040161085490612d3b565b60405180910390fd5b600860008473ffffffffffffffffffffffffffffffffffffffff1673ffffffffffffffffffffffffffffffffffffffff168152602001908152602001600020600085815260200190815260200160002060010160149054906101000a900460ff16156108fe576040517f08c379a00000000000000000000000000000000000000000000000000000000081526004016108f590612cdb565b60405180910390fd5b81516007600086815260200190815260200160002060040160009054906101000a900461ffff1661ffff1614610969576040517f08c379a000000000000000000000000000000000000000000000000000000000815260040161096090612e3b565b60405180910390fd5b6000805b82518110156109d65782818151811061098957610988613626565b5b60200260200101518382815181106109a4576109a3613626565b5b60200260200101516109b69190613369565b826109c19190613313565b915080806109ce9061357f565b91505061096d565b5080600860008673ffffffffffffffffffffffffffffffffffffffff1673ffffffffffffffffffffffffffffffffffffffff1681526020019081526020016000206000878152602001908152602001600020600201541015610a6d576040517f08c379a0000000000000000000000000000000000000000000000000000000008152600401610a6490612dbb565b60405180910390fd5b610a96848484600760008a81526020019081526020016000206114ee909392919063ffffffff16565b50610af1858460066000610aa8611415565b73ffffffffffffffffffffffffffffffffffffffff1673ffffffffffffffffffffffffffffffffffffffff16815260200190815260200160002061195d9092919063ffffffff16565b50610b4a600860008673ffffffffffffffffffffffffffffffffffffffff1673ffffffffffffffffffffffffffffffffffffffff1681526020019081526020016000206000878152602001908152602001600020611aea565b506001600860008673ffffffffffffffffffffffffffffffffffffffff1673ffffffffffffffffffffffffffffffffffffffff168152602001908152602001600020600087815260200190815260200160002060010160146101000a81548160ff021916908315150217905550610bd98460076000600554815260200190815260200160002060050154611b98565b7fabf5327be9f5825c40d58bda541dd07f09b62df3376bbd5ecdbaa8bd82a9d4928460076000600554815260200190815260200160002060050154604051610c22929190612eb7565b60405180910390a15050505050565b60008060008373ffffffffffffffffffffffffffffffffffffffff1673ffffffffffffffffffffffffffffffffffffffff168152602001908152602001600020549050919050565b60006009600085815260200190815260200160002060009054906101000a900460ff16610cdb576040517f08c379a0000000000000000000000000000000000000000000000000000000008152600401610cd290612e1b565b60405180910390fd5b60005b8351811015610e1357610d0b848281518110610cfd57610cfc613626565b5b602002602001015184611324565b610dac600554858381518110610d2457610d23613626565b5b6020026020010151600086600860008a8881518110610d4657610d45613626565b5b602002602001015173ffffffffffffffffffffffffffffffffffffffff1673ffffffffffffffffffffffffffffffffffffffff1681526020019081526020016000206000600554815260200190815260200160002061139590949392919063ffffffff16565b507fabf5327be9f5825c40d58bda541dd07f09b62df3376bbd5ecdbaa8bd82a9d492848281518110610de157610de0613626565b5b602002602001015184604051610df8929190612e5b565b60405180910390a18080610e0b9061357f565b915050610cde565b50600190509392505050565b606060038054610e2e906134b8565b80601f0160208091040260200160405190810160405280929190818152602001828054610e5a906134b8565b8015610ea75780601f10610e7c57610100808354040283529160200191610ea7565b820191906000526020600020905b815481529060010190602001808311610e8a57829003601f168201915b5050505050905090565b600060606009600084815260200190815260200160002060009054906101000a900460ff16610f15576040517f08c379a0000000000000000000000000000000000000000000000000000000008152600401610f0c90612d1b565b60405180910390fd5b60076000848152602001908152602001600020600a0160076000858152602001908152602001600020600901600060018152602001908152602001600020604051610f609190612bb1565b90815260200160405180910390205460076000858152602001908152602001600020600901600060018152602001908152602001600020808054610fa3906134b8565b80601f0160208091040260200160405190810160405280929190818152602001828054610fcf906134b8565b801561101c5780601f10610ff15761010080835404028352916020019161101c565b820191906000526020600020905b815481529060010190602001808311610fff57829003601f168201915b5050505050905091509150915091565b6008602052816000526040600020602052806000526040600020600091509150508060000154908060010160009054906101000a900473ffffffffffffffffffffffffffffffffffffffff16908060010160149054906101000a900460ff16908060020154905084565b60066020528060005260406000206000915090508060000160009054906101000a90046fffffffffffffffffffffffffffffffff16908060000160109054906101000a90046fffffffffffffffffffffffffffffffff16905082565b6000878b60000160006101000a81548173ffffffffffffffffffffffffffffffffffffffff021916908373ffffffffffffffffffffffffffffffffffffffff160217905550898b60000160146101000a81548160ff021916908360ff160217905550848b600101908051906020019061116c929190611eb6565b50868b60020181905550858b60030181905550828290508b60040160006101000a81548161ffff021916908361ffff160217905550838b6005018190555060005b8383905081101561127d5760018c6007018585848181106111d1576111d0613626565b5b90506020028101906111e3919061308d565b6040516111f1929190612b81565b908152602001604051809103902060006101000a81548160ff02191690831515021790555083838281811061122957611228613626565b5b905060200281019061123b919061308d565b8d600801600060018561124e9190613313565b81526020019081526020016000209190611269929190611f3c565b5080806112759061357f565b9150506111ad565b5060005b89518110156113115760018c60060160008c84815181106112a5576112a4613626565b5b602002602001015173ffffffffffffffffffffffffffffffffffffffff1673ffffffffffffffffffffffffffffffffffffffff16815260200190815260200160002060006101000a81548160ff02191690831515021790555080806113099061357f565b915050611281565b50600190509a9950505050505050505050565b61132c611415565b8073ffffffffffffffffffffffffffffffffffffffff16600460009054906101000a900473ffffffffffffffffffffffffffffffffffffffff1673ffffffffffffffffffffffffffffffffffffffff161461138657600080fd5b6113908383611c09565b505050565b6000848660000181905550838660010160006101000a81548173ffffffffffffffffffffffffffffffffffffffff021916908373ffffffffffffffffffffffffffffffffffffffff160217905550828660010160146101000a81548160ff0219169083151502179055508186600201819055506001905095945050505050565b600033905090565b600082600001600081819054906101000a90046fffffffffffffffffffffffffffffffff168092919061144f9061351b565b91906101000a8154816fffffffffffffffffffffffffffffffff02191690836fffffffffffffffffffffffffffffffff16021790555050818360010160008560000160009054906101000a90046fffffffffffffffffffffffffffffffff166fffffffffffffffffffffffffffffffff166fffffffffffffffffffffffffffffffff168152602001908152602001600020819055506001905092915050565b600060028560000160149054906101000a900460ff1660ff1614611547576040517f08c379a000000000000000000000000000000000000000000000000000000000815260040161153e90612c7b565b60405180910390fd5b846003015442111561179d5760028560000160146101000a81548160ff021916908360ff160217905550600085600a018660080160006001815260200190815260200160002060405161159a9190612bb1565b908152602001604051809103902054905060006001905086600801600060018152602001908152602001600020876009016000600181526020019081526020016000209080546115e9906134b8565b6115f4929190611fc2565b506000600290505b8760040160009054906101000a900461ffff1661ffff168161ffff1611611791578288600a018960080160008461ffff1681526020019081526020016000206040516116489190612bb1565b90815260200160405180910390205411156116e85787600a018860080160008361ffff1681526020019081526020016000206040516116879190612bb1565b9081526020016040518091039020549250600191508760080160008261ffff168152602001908152602001600020886009016000600181526020019081526020016000209080546116d7906134b8565b6116e2929190611fc2565b5061177e565b8288600a018960080160008461ffff1681526020019081526020016000206040516117139190612bb1565b908152602001604051809103902054141561177d5781806117339061357f565b9250508760080160008261ffff168152602001908152602001600020886009016000848152602001908152602001600020908054611770906134b8565b61177b929190611fc2565b505b5b808061178990613554565b9150506115fc565b50600092505050611955565b8460060160008573ffffffffffffffffffffffffffffffffffffffff1673ffffffffffffffffffffffffffffffffffffffff16815260200190815260200160002060009054906101000a900460ff1661182b576040517f08c379a000000000000000000000000000000000000000000000000000000000815260040161182290612d7b565b60405180910390fd5b60005b8560040160009054906101000a900461ffff1661ffff168161ffff16101561194f5785600701848261ffff168151811061186b5761186a613626565b5b60200260200101516040516118809190612b9a565b908152602001604051809103902060009054906101000a900460ff166118db576040517f08c379a00000000000000000000000000000000000000000000000000000000081526004016118d290612cfb565b60405180910390fd5b828161ffff16815181106118f2576118f1613626565b5b602002602001015186600a01858361ffff168151811061191557611914613626565b5b602002602001015160405161192a9190612b9a565b908152602001604051809103902081905550808061194790613554565b91505061182e565b50600190505b949350505050565b600083600001601081819054906101000a90046fffffffffffffffffffffffffffffffff168092919061198f9061351b565b91906101000a8154816fffffffffffffffffffffffffffffffff02191690836fffffffffffffffffffffffffffffffff16021790555050828460020160008660000160109054906101000a90046fffffffffffffffffffffffffffffffff166fffffffffffffffffffffffffffffffff166fffffffffffffffffffffffffffffffff1681526020019081526020016000208190555060005b82518161ffff161015611ab057828161ffff1681518110611a4b57611a4a613626565b5b60200260200101518560030160008681526020019081526020016000206000600184611a7791906132db565b61ffff1681526020019081526020016000209080519060200190611a9c929190611eb6565b508080611aa890613554565b915050611a27565b50600184600401600085815260200190815260200160002060006101000a81548160ff021916908315150217905550600190509392505050565b60008082600001541415611b33576040517f08c379a0000000000000000000000000000000000000000000000000000000008152600401611b2a90612e97565b60405180910390fd5b8160010160149054906101000a900460ff1615611b85576040517f08c379a0000000000000000000000000000000000000000000000000000000008152600401611b7c90612ef3565b60405180910390fd5b6000826002018190555060019050919050565b611ba0611415565b8073ffffffffffffffffffffffffffffffffffffffff16600460009054906101000a900473ffffffffffffffffffffffffffffffffffffffff1673ffffffffffffffffffffffffffffffffffffffff1614611bfa57600080fd5b611c048383611d24565b505050565b600073ffffffffffffffffffffffffffffffffffffffff168273ffffffffffffffffffffffffffffffffffffffff161415611c79576040517f08c379a0000000000000000000000000000000000000000000000000000000008152600401611c7090612f13565b60405180910390fd5b8060016000828254611c8b9190613313565b92505081905550806000808473ffffffffffffffffffffffffffffffffffffffff1673ffffffffffffffffffffffffffffffffffffffff1681526020019081526020016000206000828254611ce09190613313565b925050819055507fabf5327be9f5825c40d58bda541dd07f09b62df3376bbd5ecdbaa8bd82a9d4928282604051611d18929190612e5b565b60405180910390a15050565b600073ffffffffffffffffffffffffffffffffffffffff168273ffffffffffffffffffffffffffffffffffffffff161415611d94576040517f08c379a0000000000000000000000000000000000000000000000000000000008152600401611d8b90612dfb565b60405180910390fd5b60008060008473ffffffffffffffffffffffffffffffffffffffff1673ffffffffffffffffffffffffffffffffffffffff16815260200190815260200160002054905081811015611e1a576040517f08c379a0000000000000000000000000000000000000000000000000000000008152600401611e1190612cbb565b60405180910390fd5b8181036000808573ffffffffffffffffffffffffffffffffffffffff1673ffffffffffffffffffffffffffffffffffffffff168152602001908152602001600020819055508160016000828254611e7191906133c3565b925050819055507fabf5327be9f5825c40d58bda541dd07f09b62df3376bbd5ecdbaa8bd82a9d4928383604051611ea9929190612eb7565b60405180910390a1505050565b828054611ec2906134b8565b90600052602060002090601f016020900481019282611ee45760008555611f2b565b82601f10611efd57805160ff1916838001178555611f2b565b82800160010185558215611f2b579182015b82811115611f2a578251825591602001919060010190611f0f565b5b509050611f38919061204f565b5090565b828054611f48906134b8565b90600052602060002090601f016020900481019282611f6a5760008555611fb1565b82601f10611f8357803560ff1916838001178555611fb1565b82800160010185558215611fb1579182015b82811115611fb0578235825591602001919060010190611f95565b5b509050611fbe919061204f565b5090565b828054611fce906134b8565b90600052602060002090601f016020900481019282611ff0576000855561203e565b82601f10612001578054855561203e565b8280016001018555821561203e57600052602060002091601f016020900482015b8281111561203d578254825591600101919060010190612022565b5b50905061204b919061204f565b5090565b5b80821115612068576000816000905550600101612050565b5090565b600061207f61207a84613115565b6130f0565b905080838252602082019050828560208602820111156120a2576120a16136a2565b5b60005b858110156120d257816120b8888261221c565b8452602084019350602083019250506001810190506120a5565b5050509392505050565b60006120ef6120ea84613141565b6130f0565b90508083825260208201905082856020860282011115612112576121116136a2565b5b60005b8581101561216057813567ffffffffffffffff8111156121385761213761368e565b5b8086016121458982612311565b85526020850194506020840193505050600181019050612115565b5050509392505050565b600061217d6121788461316d565b6130f0565b905080838252602082019050828560208602820111156121a05761219f6136a2565b5b60005b858110156121d057816121b6888261233f565b8452602084019350602083019250506001810190506121a3565b5050509392505050565b60006121ed6121e884613199565b6130f0565b905082815260208101848484011115612209576122086136ac565b5b612214848285613476565b509392505050565b60008135905061222b81613b35565b92915050565b600082601f8301126122465761224561368e565b5b813561225684826020860161206c565b91505092915050565b60008083601f8401126122755761227461368e565b5b8235905067ffffffffffffffff81111561229257612291613689565b5b6020830191508360208202830111156122ae576122ad6136a2565b5b9250929050565b600082601f8301126122ca576122c961368e565b5b81356122da8482602086016120dc565b91505092915050565b600082601f8301126122f8576122f761368e565b5b813561230884826020860161216a565b91505092915050565b600082601f8301126123265761232561368e565b5b81356123368482602086016121da565b91505092915050565b60008135905061234e81613b4c565b92915050565b60008135905061236381613b63565b92915050565b60006020828403121561237f5761237e6136bb565b5b600061238d8482850161221c565b91505092915050565b600080604083850312156123ad576123ac6136bb565b5b60006123bb8582860161221c565b92505060206123cc8582860161233f565b9150509250929050565b6000602082840312156123ec576123eb6136bb565b5b60006123fa8482850161233f565b91505092915050565b6000806000806080858703121561241d5761241c6136bb565b5b600061242b8782880161233f565b945050602061243c8782880161221c565b935050604085013567ffffffffffffffff81111561245d5761245c6136b1565b5b612469878288016122b5565b925050606085013567ffffffffffffffff81111561248a576124896136b1565b5b612496878288016122e3565b91505092959194509250565b6000806000606084860312156124bb576124ba6136bb565b5b60006124c98682870161233f565b935050602084013567ffffffffffffffff8111156124ea576124e96136b1565b5b6124f686828701612231565b92505060406125078682870161233f565b9150509250925092565b60008060008060008060008060006101008a8c031215612534576125336136bb565b5b60006125428c828d01612354565b99505060208a013567ffffffffffffffff811115612563576125626136b1565b5b61256f8c828d01612231565b98505060406125808c828d0161221c565b97505060606125918c828d0161233f565b96505060806125a28c828d0161233f565b95505060a08a013567ffffffffffffffff8111156125c3576125c26136b1565b5b6125cf8c828d01612311565b94505060c08a013567ffffffffffffffff8111156125f0576125ef6136b1565b5b6125fc8c828d0161225f565b935093505060e061260f8c828d0161233f565b9150509295985092959850929598565b600061262b838361264d565b60208301905092915050565b600061264484848461274e565b90509392505050565b612656816133f7565b82525050565b612665816133f7565b82525050565b6000612676826131f9565b6126808185613229565b935061268b836131ca565b8060005b838110156126bc5781516126a3888261261f565b97506126ae8361320f565b92505060018101905061268f565b5085935050505092915050565b60006126d5838561323a565b9350836020840285016126e7846131da565b8060005b8781101561272d5784840389526127028284613278565b61270d868284612637565b95506127188461321c565b935060208b019a5050506001810190506126eb565b50829750879450505050509392505050565b61274881613409565b82525050565b600061275a838561324b565b9350612767838584613476565b612770836136c0565b840190509392505050565b6000612787838561326d565b9350612794838584613476565b82840190509392505050565b60006127ab82613204565b6127b5818561325c565b93506127c5818560208601613485565b6127ce816136c0565b840191505092915050565b60006127e482613204565b6127ee818561326d565b93506127fe818560208601613485565b80840191505092915050565b60008154612817816134b8565b612821818661326d565b9450600182166000811461283c576001811461284d57612880565b60ff19831686528186019350612880565b612856856131e4565b60005b8381101561287857815481890152600182019150602081019050612859565b838801955050505b50505092915050565b600061289660128361325c565b91506128a1826136d1565b602082019050919050565b60006128b9602c8361325c565b91506128c4826136fa565b604082019050919050565b60006128dc60228361325c565b91506128e782613749565b604082019050919050565b60006128ff600d8361325c565b915061290a82613798565b602082019050919050565b6000612922601b8361325c565b915061292d826137c1565b602082019050919050565b600061294560148361325c565b9150612950826137ea565b602082019050919050565b600061296860238361325c565b915061297382613813565b604082019050919050565b600061298b60148361325c565b915061299682613862565b602082019050919050565b60006129ae60238361325c565b91506129b98261388b565b604082019050919050565b60006129d160128361325c565b91506129dc826138da565b602082019050919050565b60006129f460238361325c565b91506129ff82613903565b604082019050919050565b6000612a17602a8361325c565b9150612a2282613952565b604082019050919050565b6000612a3a60218361325c565b9150612a45826139a1565b604082019050919050565b6000612a5d60158361325c565b9150612a68826139f0565b602082019050919050565b6000612a8060248361325c565b9150612a8b82613a19565b604082019050919050565b6000612aa360048361325c565b9150612aae82613a68565b602082019050919050565b6000612ac6601d8361325c565b9150612ad182613a91565b602082019050919050565b6000612ae960048361325c565b9150612af482613aba565b602082019050919050565b6000612b0c60098361325c565b9150612b1782613ae3565b602082019050919050565b6000612b2f601f8361325c565b9150612b3a82613b0c565b602082019050919050565b612b4e81613415565b82525050565b612b5d81613431565b82525050565b612b6c8161345f565b82525050565b612b7b81613469565b82525050565b6000612b8e82848661277b565b91508190509392505050565b6000612ba682846127d9565b915081905092915050565b6000612bbd828461280a565b915081905092915050565b600060e082019050612bdd600083018a61265c565b612bea6020830189612b72565b8181036040830152612bfc81886127a0565b9050612c0b6060830187612b63565b612c186080830186612b63565b612c2560a0830185612b54565b612c3260c0830184612b63565b98975050505050505050565b6000602082019050612c53600083018461273f565b92915050565b60006020820190508181036000830152612c7381846127a0565b905092915050565b60006020820190508181036000830152612c9481612889565b9050919050565b60006020820190508181036000830152612cb4816128ac565b9050919050565b60006020820190508181036000830152612cd4816128cf565b9050919050565b60006020820190508181036000830152612cf4816128f2565b9050919050565b60006020820190508181036000830152612d1481612915565b9050919050565b60006020820190508181036000830152612d3481612938565b9050919050565b60006020820190508181036000830152612d548161295b565b9050919050565b60006020820190508181036000830152612d748161297e565b9050919050565b60006020820190508181036000830152612d94816129a1565b9050919050565b60006020820190508181036000830152612db4816129c4565b9050919050565b60006020820190508181036000830152612dd4816129e7565b9050919050565b60006020820190508181036000830152612df481612a0a565b9050919050565b60006020820190508181036000830152612e1481612a2d565b9050919050565b60006020820190508181036000830152612e3481612a50565b9050919050565b60006020820190508181036000830152612e5481612a73565b9050919050565b60006060820190508181036000830152612e7481612a96565b9050612e83602083018561265c565b612e906040830184612b63565b9392505050565b60006020820190508181036000830152612eb081612ab9565b9050919050565b60006060820190508181036000830152612ed081612adc565b9050612edf602083018561265c565b612eec6040830184612b63565b9392505050565b60006020820190508181036000830152612f0c81612aff565b9050919050565b60006020820190508181036000830152612f2c81612b22565b9050919050565b6000604082019050612f486000830185612b45565b612f556020830184612b45565b9392505050565b6000602082019050612f716000830184612b63565b92915050565b6000608082019050612f8c6000830187612b63565b612f99602083018661265c565b612fa6604083018561273f565b612fb36060830184612b63565b95945050505050565b600060e082019050612fd1600083018b612b63565b8181036020830152612fe3818a61266b565b9050612ff2604083018961265c565b612fff6060830188612b63565b61300c6080830187612b63565b81810360a083015261301e81866127a0565b905081810360c08301526130338184866126c9565b90509998505050505050505050565b60006040820190506130576000830185612b63565b818103602083015261306981846127a0565b90509392505050565b60006020820190506130876000830184612b72565b92915050565b600080833560016020038436030381126130aa576130a9613698565b5b80840192508235915067ffffffffffffffff8211156130cc576130cb613693565b5b6020830192506001820236038313156130e8576130e76136a7565b5b509250929050565b60006130fa61310b565b905061310682826134ea565b919050565b6000604051905090565b600067ffffffffffffffff8211156131305761312f613655565b5b602082029050602081019050919050565b600067ffffffffffffffff82111561315c5761315b613655565b5b602082029050602081019050919050565b600067ffffffffffffffff82111561318857613187613655565b5b602082029050602081019050919050565b600067ffffffffffffffff8211156131b4576131b3613655565b5b6131bd826136c0565b9050602081019050919050565b6000819050602082019050919050565b6000819050919050565b60008190508160005260206000209050919050565b600081519050919050565b600081519050919050565b6000602082019050919050565b6000602082019050919050565b600082825260208201905092915050565b600082825260208201905092915050565b600082825260208201905092915050565b600082825260208201905092915050565b600081905092915050565b60008083356001602003843603038112613295576132946136b6565b5b83810192508235915060208301925067ffffffffffffffff8211156132bd576132bc613684565b5b6001820236038413156132d3576132d261369d565b5b509250929050565b60006132e682613431565b91506132f183613431565b92508261ffff03821115613308576133076135c8565b5b828201905092915050565b600061331e8261345f565b91506133298361345f565b9250827fffffffffffffffffffffffffffffffffffffffffffffffffffffffffffffffff0382111561335e5761335d6135c8565b5b828201905092915050565b60006133748261345f565b915061337f8361345f565b9250817fffffffffffffffffffffffffffffffffffffffffffffffffffffffffffffffff04831182151516156133b8576133b76135c8565b5b828202905092915050565b60006133ce8261345f565b91506133d98361345f565b9250828210156133ec576133eb6135c8565b5b828203905092915050565b60006134028261343f565b9050919050565b60008115159050919050565b60006fffffffffffffffffffffffffffffffff82169050919050565b600061ffff82169050919050565b600073ffffffffffffffffffffffffffffffffffffffff82169050919050565b6000819050919050565b600060ff82169050919050565b82818337600083830152505050565b60005b838110156134a3578082015181840152602081019050613488565b838111156134b2576000848401525b50505050565b600060028204905060018216806134d057607f821691505b602082108114156134e4576134e36135f7565b5b50919050565b6134f3826136c0565b810181811067ffffffffffffffff8211171561351257613511613655565b5b80604052505050565b600061352682613415565b91506fffffffffffffffffffffffffffffffff821415613549576135486135c8565b5b600182019050919050565b600061355f82613431565b915061ffff821415613574576135736135c8565b5b600182019050919050565b600061358a8261345f565b91507fffffffffffffffffffffffffffffffffffffffffffffffffffffffffffffffff8214156135bd576135bc6135c8565b5b600182019050919050565b7f4e487b7100000000000000000000000000000000000000000000000000000000600052601160045260246000fd5b7f4e487b7100000000000000000000000000000000000000000000000000000000600052602260045260246000fd5b7f4e487b7100000000000000000000000000000000000000000000000000000000600052603260045260246000fd5b7f4e487b7100000000000000000000000000000000000000000000000000000000600052604160045260246000fd5b600080fd5b600080fd5b600080fd5b600080fd5b600080fd5b600080fd5b600080fd5b600080fd5b600080fd5b600080fd5b600080fd5b600080fd5b6000601f19601f8301169050919050565b7f50726f706f73616c3a20696e6163746976650000000000000000000000000000600082015250565b7f456e642074696d652073686f756c642062652067726561746572207468616e2060008201527f63757272656e742074696d650000000000000000000000000000000000000000602082015250565b7f45524332303a206275726e20616d6f756e7420657863656564732062616c616e60008201527f6365000000000000000000000000000000000000000000000000000000000000602082015250565b7f616c726561647920766f74656400000000000000000000000000000000000000600082015250565b7f50726f706f73616c3a20696e76616c69642063616e6469646174650000000000600082015250565b7f6e6f7420612076616c69642070726f706f73616c000000000000000000000000600082015250565b7f6e6f7420612076616c696420766f74657220666f7220746869732070726f706f60008201527f73616c0000000000000000000000000000000000000000000000000000000000602082015250565b7f70726f706f73616c206e6f742073746172746564000000000000000000000000600082015250565b7f4e6f7420612076616c696420766f74657220666f7220746869732070726f706f60008201527f73616c0000000000000000000000000000000000000000000000000000000000602082015250565b7f696e76616c69642070726f706f73616c49640000000000000000000000000000600082015250565b7f6e6f742073756666696369656e742062616c616e636520746f2063617374207660008201527f6f74650000000000000000000000000000000000000000000000000000000000602082015250565b7f456e642074696d652073686f756c642062652067726561746572207468616e2060008201527f73746172742074696d6500000000000000000000000000000000000000000000602082015250565b7f45524332303a206275726e2066726f6d20746865207a65726f2061646472657360008201527f7300000000000000000000000000000000000000000000000000000000000000602082015250565b7f50726f706f73616c20646f206e6f742065786973740000000000000000000000600082015250565b7f6e6f7420612076616c6964206c656e677468206f66206861736820726573706f60008201527f6e73652100000000000000000000000000000000000000000000000000000000602082015250565b7f6d696e7400000000000000000000000000000000000000000000000000000000600082015250565b7f496e76616c696420766f74657220666f722070726f706f73616c496421000000600082015250565b7f6275726e00000000000000000000000000000000000000000000000000000000600082015250565b7f6e6f7420766f7465640000000000000000000000000000000000000000000000600082015250565b7f45524332303a206d696e7420746f20746865207a65726f206164647265737300600082015250565b613b3e816133f7565b8114613b4957600080fd5b50565b613b558161345f565b8114613b6057600080fd5b50565b613b6c81613469565b8114613b7757600080fd5b5056fea2646970667358221220d1069961d0a1b69b5cd04ebfe3e9378a310770772d12932ab49fc7d8abcaa86964736f6c63430008070033",
					"opcodes": "PUSH1 0x80 PUSH1 0x40 MSTORE CALLVALUE DUP1 ISZERO PUSH3 0x11 JUMPI PUSH1 0x0 DUP1 REVERT JUMPDEST POP PUSH1 0x40 MLOAD DUP1 PUSH1 0x40 ADD PUSH1 0x40 MSTORE DUP1 PUSH1 0xC DUP2 MSTORE PUSH1 0x20 ADD PUSH32 0x51566F74696E67546F6B656E0000000000000000000000000000000000000000 DUP2 MSTORE POP PUSH1 0x40 MLOAD DUP1 PUSH1 0x40 ADD PUSH1 0x40 MSTORE DUP1 PUSH1 0x2 DUP2 MSTORE PUSH1 0x20 ADD PUSH32 0x5176000000000000000000000000000000000000000000000000000000000000 DUP2 MSTORE POP DUP2 PUSH1 0x2 SWAP1 DUP1 MLOAD SWAP1 PUSH1 0x20 ADD SWAP1 PUSH3 0x96 SWAP3 SWAP2 SWAP1 PUSH3 0xF9 JUMP JUMPDEST POP DUP1 PUSH1 0x3 SWAP1 DUP1 MLOAD SWAP1 PUSH1 0x20 ADD SWAP1 PUSH3 0xAF SWAP3 SWAP2 SWAP1 PUSH3 0xF9 JUMP JUMPDEST POP POP POP CALLER PUSH1 0x4 PUSH1 0x0 PUSH2 0x100 EXP DUP2 SLOAD DUP2 PUSH20 0xFFFFFFFFFFFFFFFFFFFFFFFFFFFFFFFFFFFFFFFF MUL NOT AND SWAP1 DUP4 PUSH20 0xFFFFFFFFFFFFFFFFFFFFFFFFFFFFFFFFFFFFFFFF AND MUL OR SWAP1 SSTORE POP PUSH3 0x20E JUMP JUMPDEST DUP3 DUP1 SLOAD PUSH3 0x107 SWAP1 PUSH3 0x1A9 JUMP JUMPDEST SWAP1 PUSH1 0x0 MSTORE PUSH1 0x20 PUSH1 0x0 KECCAK256 SWAP1 PUSH1 0x1F ADD PUSH1 0x20 SWAP1 DIV DUP2 ADD SWAP3 DUP3 PUSH3 0x12B JUMPI PUSH1 0x0 DUP6 SSTORE PUSH3 0x177 JUMP JUMPDEST DUP3 PUSH1 0x1F LT PUSH3 0x146 JUMPI DUP1 MLOAD PUSH1 0xFF NOT AND DUP4 DUP1 ADD OR DUP6 SSTORE PUSH3 0x177 JUMP JUMPDEST DUP3 DUP1 ADD PUSH1 0x1 ADD DUP6 SSTORE DUP3 ISZERO PUSH3 0x177 JUMPI SWAP2 DUP3 ADD JUMPDEST DUP3 DUP2 GT ISZERO PUSH3 0x176 JUMPI DUP3 MLOAD DUP3 SSTORE SWAP2 PUSH1 0x20 ADD SWAP2 SWAP1 PUSH1 0x1 ADD SWAP1 PUSH3 0x159 JUMP JUMPDEST JUMPDEST POP SWAP1 POP PUSH3 0x186 SWAP2 SWAP1 PUSH3 0x18A JUMP JUMPDEST POP SWAP1 JUMP JUMPDEST JUMPDEST DUP1 DUP3 GT ISZERO PUSH3 0x1A5 JUMPI PUSH1 0x0 DUP2 PUSH1 0x0 SWAP1 SSTORE POP PUSH1 0x1 ADD PUSH3 0x18B JUMP JUMPDEST POP SWAP1 JUMP JUMPDEST PUSH1 0x0 PUSH1 0x2 DUP3 DIV SWAP1 POP PUSH1 0x1 DUP3 AND DUP1 PUSH3 0x1C2 JUMPI PUSH1 0x7F DUP3 AND SWAP2 POP JUMPDEST PUSH1 0x20 DUP3 LT DUP2 EQ ISZERO PUSH3 0x1D9 JUMPI PUSH3 0x1D8 PUSH3 0x1DF JUMP JUMPDEST JUMPDEST POP SWAP2 SWAP1 POP JUMP JUMPDEST PUSH32 0x4E487B7100000000000000000000000000000000000000000000000000000000 PUSH1 0x0 MSTORE PUSH1 0x22 PUSH1 0x4 MSTORE PUSH1 0x24 PUSH1 0x0 REVERT JUMPDEST PUSH2 0x3BB0 DUP1 PUSH3 0x21E PUSH1 0x0 CODECOPY PUSH1 0x0 RETURN INVALID PUSH1 0x80 PUSH1 0x40 MSTORE CALLVALUE DUP1 ISZERO PUSH2 0x10 JUMPI PUSH1 0x0 DUP1 REVERT JUMPDEST POP PUSH1 0x4 CALLDATASIZE LT PUSH2 0xB4 JUMPI PUSH1 0x0 CALLDATALOAD PUSH1 0xE0 SHR DUP1 PUSH4 0x70A08231 GT PUSH2 0x71 JUMPI DUP1 PUSH4 0x70A08231 EQ PUSH2 0x181 JUMPI DUP1 PUSH4 0x93D336AA EQ PUSH2 0x1B1 JUMPI DUP1 PUSH4 0x95D89B41 EQ PUSH2 0x1E1 JUMPI DUP1 PUSH4 0x9D671564 EQ PUSH2 0x1FF JUMPI DUP1 PUSH4 0xAB9C70D4 EQ PUSH2 0x230 JUMPI DUP1 PUSH4 0xE745D68E EQ PUSH2 0x263 JUMPI PUSH2 0xB4 JUMP JUMPDEST DUP1 PUSH4 0x13CF08B EQ PUSH2 0xB9 JUMPI DUP1 PUSH4 0x6FDDE03 EQ PUSH2 0xEF JUMPI DUP1 PUSH4 0x18160DDD EQ PUSH2 0x10D JUMPI DUP1 PUSH4 0x313CE567 EQ PUSH2 0x12B JUMPI DUP1 PUSH4 0x4DE77E48 EQ PUSH2 0x149 JUMPI DUP1 PUSH4 0x5C230EEE EQ PUSH2 0x165 JUMPI JUMPDEST PUSH1 0x0 DUP1 REVERT JUMPDEST PUSH2 0xD3 PUSH1 0x4 DUP1 CALLDATASIZE SUB DUP2 ADD SWAP1 PUSH2 0xCE SWAP2 SWAP1 PUSH2 0x23D6 JUMP JUMPDEST PUSH2 0x294 JUMP JUMPDEST PUSH1 0x40 MLOAD PUSH2 0xE6 SWAP8 SWAP7 SWAP6 SWAP5 SWAP4 SWAP3 SWAP2 SWAP1 PUSH2 0x2BC8 JUMP JUMPDEST PUSH1 0x40 MLOAD DUP1 SWAP2 SUB SWAP1 RETURN JUMPDEST PUSH2 0xF7 PUSH2 0x399 JUMP JUMPDEST PUSH1 0x40 MLOAD PUSH2 0x104 SWAP2 SWAP1 PUSH2 0x2C59 JUMP JUMPDEST PUSH1 0x40 MLOAD DUP1 SWAP2 SUB SWAP1 RETURN JUMPDEST PUSH2 0x115 PUSH2 0x42B JUMP JUMPDEST PUSH1 0x40 MLOAD PUSH2 0x122 SWAP2 SWAP1 PUSH2 0x2F5C JUMP JUMPDEST PUSH1 0x40 MLOAD DUP1 SWAP2 SUB SWAP1 RETURN JUMPDEST PUSH2 0x133 PUSH2 0x435 JUMP JUMPDEST PUSH1 0x40 MLOAD PUSH2 0x140 SWAP2 SWAP1 PUSH2 0x3072 JUMP JUMPDEST PUSH1 0x40 MLOAD DUP1 SWAP2 SUB SWAP1 RETURN JUMPDEST PUSH2 0x163 PUSH1 0x4 DUP1 CALLDATASIZE SUB DUP2 ADD SWAP1 PUSH2 0x15E SWAP2 SWAP1 PUSH2 0x2511 JUMP JUMPDEST PUSH2 0x43E JUMP JUMPDEST STOP JUMPDEST PUSH2 0x17F PUSH1 0x4 DUP1 CALLDATASIZE SUB DUP2 ADD SWAP1 PUSH2 0x17A SWAP2 SWAP1 PUSH2 0x2403 JUMP JUMPDEST PUSH2 0x768 JUMP JUMPDEST STOP JUMPDEST PUSH2 0x19B PUSH1 0x4 DUP1 CALLDATASIZE SUB DUP2 ADD SWAP1 PUSH2 0x196 SWAP2 SWAP1 PUSH2 0x2369 JUMP JUMPDEST PUSH2 0xC31 JUMP JUMPDEST PUSH1 0x40 MLOAD PUSH2 0x1A8 SWAP2 SWAP1 PUSH2 0x2F5C JUMP JUMPDEST PUSH1 0x40 MLOAD DUP1 SWAP2 SUB SWAP1 RETURN JUMPDEST PUSH2 0x1CB PUSH1 0x4 DUP1 CALLDATASIZE SUB DUP2 ADD SWAP1 PUSH2 0x1C6 SWAP2 SWAP1 PUSH2 0x24A2 JUMP JUMPDEST PUSH2 0xC79 JUMP JUMPDEST PUSH1 0x40 MLOAD PUSH2 0x1D8 SWAP2 SWAP1 PUSH2 0x2C3E JUMP JUMPDEST PUSH1 0x40 MLOAD DUP1 SWAP2 SUB SWAP1 RETURN JUMPDEST PUSH2 0x1E9 PUSH2 0xE1F JUMP JUMPDEST PUSH1 0x40 MLOAD PUSH2 0x1F6 SWAP2 SWAP1 PUSH2 0x2C59 JUMP JUMPDEST PUSH1 0x40 MLOAD DUP1 SWAP2 SUB SWAP1 RETURN JUMPDEST PUSH2 0x219 PUSH1 0x4 DUP1 CALLDATASIZE SUB DUP2 ADD SWAP1 PUSH2 0x214 SWAP2 SWAP1 PUSH2 0x23D6 JUMP JUMPDEST PUSH2 0xEB1 JUMP JUMPDEST PUSH1 0x40 MLOAD PUSH2 0x227 SWAP3 SWAP2 SWAP1 PUSH2 0x3042 JUMP JUMPDEST PUSH1 0x40 MLOAD DUP1 SWAP2 SUB SWAP1 RETURN JUMPDEST PUSH2 0x24A PUSH1 0x4 DUP1 CALLDATASIZE SUB DUP2 ADD SWAP1 PUSH2 0x245 SWAP2 SWAP1 PUSH2 0x2396 JUMP JUMPDEST PUSH2 0x102C JUMP JUMPDEST PUSH1 0x40 MLOAD PUSH2 0x25A SWAP5 SWAP4 SWAP3 SWAP2 SWAP1 PUSH2 0x2F77 JUMP JUMPDEST PUSH1 0x40 MLOAD DUP1 SWAP2 SUB SWAP1 RETURN JUMPDEST PUSH2 0x27D PUSH1 0x4 DUP1 CALLDATASIZE SUB DUP2 ADD SWAP1 PUSH2 0x278 SWAP2 SWAP1 PUSH2 0x2369 JUMP JUMPDEST PUSH2 0x1096 JUMP JUMPDEST PUSH1 0x40 MLOAD PUSH2 0x28B SWAP3 SWAP2 SWAP1 PUSH2 0x2F33 JUMP JUMPDEST PUSH1 0x40 MLOAD DUP1 SWAP2 SUB SWAP1 RETURN JUMPDEST PUSH1 0x7 PUSH1 0x20 MSTORE DUP1 PUSH1 0x0 MSTORE PUSH1 0x40 PUSH1 0x0 KECCAK256 PUSH1 0x0 SWAP2 POP SWAP1 POP DUP1 PUSH1 0x0 ADD PUSH1 0x0 SWAP1 SLOAD SWAP1 PUSH2 0x100 EXP SWAP1 DIV PUSH20 0xFFFFFFFFFFFFFFFFFFFFFFFFFFFFFFFFFFFFFFFF AND SWAP1 DUP1 PUSH1 0x0 ADD PUSH1 0x14 SWAP1 SLOAD SWAP1 PUSH2 0x100 EXP SWAP1 DIV PUSH1 0xFF AND SWAP1 DUP1 PUSH1 0x1 ADD DUP1 SLOAD PUSH2 0x2F0 SWAP1 PUSH2 0x34B8 JUMP JUMPDEST DUP1 PUSH1 0x1F ADD PUSH1 0x20 DUP1 SWAP2 DIV MUL PUSH1 0x20 ADD PUSH1 0x40 MLOAD SWAP1 DUP2 ADD PUSH1 0x40 MSTORE DUP1 SWAP3 SWAP2 SWAP1 DUP2 DUP2 MSTORE PUSH1 0x20 ADD DUP3 DUP1 SLOAD PUSH2 0x31C SWAP1 PUSH2 0x34B8 JUMP JUMPDEST DUP1 ISZERO PUSH2 0x369 JUMPI DUP1 PUSH1 0x1F LT PUSH2 0x33E JUMPI PUSH2 0x100 DUP1 DUP4 SLOAD DIV MUL DUP4 MSTORE SWAP2 PUSH1 0x20 ADD SWAP2 PUSH2 0x369 JUMP JUMPDEST DUP3 ADD SWAP2 SWAP1 PUSH1 0x0 MSTORE PUSH1 0x20 PUSH1 0x0 KECCAK256 SWAP1 JUMPDEST DUP2 SLOAD DUP2 MSTORE SWAP1 PUSH1 0x1 ADD SWAP1 PUSH1 0x20 ADD DUP1 DUP4 GT PUSH2 0x34C JUMPI DUP3 SWAP1 SUB PUSH1 0x1F AND DUP3 ADD SWAP2 JUMPDEST POP POP POP POP POP SWAP1 DUP1 PUSH1 0x2 ADD SLOAD SWAP1 DUP1 PUSH1 0x3 ADD SLOAD SWAP1 DUP1 PUSH1 0x4 ADD PUSH1 0x0 SWAP1 SLOAD SWAP1 PUSH2 0x100 EXP SWAP1 DIV PUSH2 0xFFFF AND SWAP1 DUP1 PUSH1 0x5 ADD SLOAD SWAP1 POP DUP8 JUMP JUMPDEST PUSH1 0x60 PUSH1 0x2 DUP1 SLOAD PUSH2 0x3A8 SWAP1 PUSH2 0x34B8 JUMP JUMPDEST DUP1 PUSH1 0x1F ADD PUSH1 0x20 DUP1 SWAP2 DIV MUL PUSH1 0x20 ADD PUSH1 0x40 MLOAD SWAP1 DUP2 ADD PUSH1 0x40 MSTORE DUP1 SWAP3 SWAP2 SWAP1 DUP2 DUP2 MSTORE PUSH1 0x20 ADD DUP3 DUP1 SLOAD PUSH2 0x3D4 SWAP1 PUSH2 0x34B8 JUMP JUMPDEST DUP1 ISZERO PUSH2 0x421 JUMPI DUP1 PUSH1 0x1F LT PUSH2 0x3F6 JUMPI PUSH2 0x100 DUP1 DUP4 SLOAD DIV MUL DUP4 MSTORE SWAP2 PUSH1 0x20 ADD SWAP2 PUSH2 0x421 JUMP JUMPDEST DUP3 ADD SWAP2 SWAP1 PUSH1 0x0 MSTORE PUSH1 0x20 PUSH1 0x0 KECCAK256 SWAP1 JUMPDEST DUP2 SLOAD DUP2 MSTORE SWAP1 PUSH1 0x1 ADD SWAP1 PUSH1 0x20 ADD DUP1 DUP4 GT PUSH2 0x404 JUMPI DUP3 SWAP1 SUB PUSH1 0x1F AND DUP3 ADD SWAP2 JUMPDEST POP POP POP POP POP SWAP1 POP SWAP1 JUMP JUMPDEST PUSH1 0x0 PUSH1 0x1 SLOAD SWAP1 POP SWAP1 JUMP JUMPDEST PUSH1 0x0 PUSH1 0x12 SWAP1 POP SWAP1 JUMP JUMPDEST DUP6 TIMESTAMP LT PUSH2 0x480 JUMPI PUSH1 0x40 MLOAD PUSH32 0x8C379A000000000000000000000000000000000000000000000000000000000 DUP2 MSTORE PUSH1 0x4 ADD PUSH2 0x477 SWAP1 PUSH2 0x2D5B JUMP JUMPDEST PUSH1 0x40 MLOAD DUP1 SWAP2 SUB SWAP1 REVERT JUMPDEST DUP5 TIMESTAMP LT PUSH2 0x4C2 JUMPI PUSH1 0x40 MLOAD PUSH32 0x8C379A000000000000000000000000000000000000000000000000000000000 DUP2 MSTORE PUSH1 0x4 ADD PUSH2 0x4B9 SWAP1 PUSH2 0x2C9B JUMP JUMPDEST PUSH1 0x40 MLOAD DUP1 SWAP2 SUB SWAP1 REVERT JUMPDEST DUP5 DUP7 LT PUSH2 0x504 JUMPI PUSH1 0x40 MLOAD PUSH32 0x8C379A000000000000000000000000000000000000000000000000000000000 DUP2 MSTORE PUSH1 0x4 ADD PUSH2 0x4FB SWAP1 PUSH2 0x2DDB JUMP JUMPDEST PUSH1 0x40 MLOAD DUP1 SWAP2 SUB SWAP1 REVERT JUMPDEST PUSH1 0x5 PUSH1 0x0 DUP2 SLOAD DUP1 SWAP3 SWAP2 SWAP1 PUSH2 0x517 SWAP1 PUSH2 0x357F JUMP JUMPDEST SWAP2 SWAP1 POP SSTORE POP PUSH2 0x553 DUP10 DUP10 DUP10 DUP10 DUP10 DUP10 DUP8 DUP11 DUP11 PUSH1 0x7 PUSH1 0x0 PUSH1 0x5 SLOAD DUP2 MSTORE PUSH1 0x20 ADD SWAP1 DUP2 MSTORE PUSH1 0x20 ADD PUSH1 0x0 KECCAK256 PUSH2 0x10F2 SWAP1 SWAP10 SWAP9 SWAP8 SWAP7 SWAP6 SWAP5 SWAP4 SWAP3 SWAP2 SWAP1 PUSH4 0xFFFFFFFF AND JUMP JUMPDEST POP PUSH32 0x239A8A71A7D1CB0D134F6CC072AD6390E36A88C8E78DFF69013EE79528441E80 PUSH1 0x5 SLOAD DUP10 DUP10 DUP10 DUP10 DUP10 DUP10 DUP10 PUSH1 0x40 MLOAD PUSH2 0x593 SWAP9 SWAP8 SWAP7 SWAP6 SWAP5 SWAP4 SWAP3 SWAP2 SWAP1 PUSH2 0x2FBC JUMP JUMPDEST PUSH1 0x40 MLOAD DUP1 SWAP2 SUB SWAP1 LOG1 PUSH1 0x1 PUSH1 0x9 PUSH1 0x0 PUSH1 0x5 SLOAD DUP2 MSTORE PUSH1 0x20 ADD SWAP1 DUP2 MSTORE PUSH1 0x20 ADD PUSH1 0x0 KECCAK256 PUSH1 0x0 PUSH2 0x100 EXP DUP2 SLOAD DUP2 PUSH1 0xFF MUL NOT AND SWAP1 DUP4 ISZERO ISZERO MUL OR SWAP1 SSTORE POP PUSH1 0x0 JUMPDEST DUP9 MLOAD DUP2 LT ISZERO PUSH2 0x701 JUMPI PUSH2 0x5F9 DUP10 DUP3 DUP2 MLOAD DUP2 LT PUSH2 0x5EB JUMPI PUSH2 0x5EA PUSH2 0x3626 JUMP JUMPDEST JUMPDEST PUSH1 0x20 MUL PUSH1 0x20 ADD ADD MLOAD DUP4 PUSH2 0x1324 JUMP JUMPDEST PUSH2 0x69A PUSH1 0x5 SLOAD DUP11 DUP4 DUP2 MLOAD DUP2 LT PUSH2 0x612 JUMPI PUSH2 0x611 PUSH2 0x3626 JUMP JUMPDEST JUMPDEST PUSH1 0x20 MUL PUSH1 0x20 ADD ADD MLOAD PUSH1 0x0 DUP6 PUSH1 0x8 PUSH1 0x0 DUP16 DUP9 DUP2 MLOAD DUP2 LT PUSH2 0x634 JUMPI PUSH2 0x633 PUSH2 0x3626 JUMP JUMPDEST JUMPDEST PUSH1 0x20 MUL PUSH1 0x20 ADD ADD MLOAD PUSH20 0xFFFFFFFFFFFFFFFFFFFFFFFFFFFFFFFFFFFFFFFF AND PUSH20 0xFFFFFFFFFFFFFFFFFFFFFFFFFFFFFFFFFFFFFFFF AND DUP2 MSTORE PUSH1 0x20 ADD SWAP1 DUP2 MSTORE PUSH1 0x20 ADD PUSH1 0x0 KECCAK256 PUSH1 0x0 PUSH1 0x5 SLOAD DUP2 MSTORE PUSH1 0x20 ADD SWAP1 DUP2 MSTORE PUSH1 0x20 ADD PUSH1 0x0 KECCAK256 PUSH2 0x1395 SWAP1 SWAP5 SWAP4 SWAP3 SWAP2 SWAP1 PUSH4 0xFFFFFFFF AND JUMP JUMPDEST POP PUSH32 0xABF5327BE9F5825C40D58BDA541DD07F09B62DF3376BBD5ECDBAA8BD82A9D492 DUP10 DUP3 DUP2 MLOAD DUP2 LT PUSH2 0x6CF JUMPI PUSH2 0x6CE PUSH2 0x3626 JUMP JUMPDEST JUMPDEST PUSH1 0x20 MUL PUSH1 0x20 ADD ADD MLOAD DUP4 PUSH1 0x40 MLOAD PUSH2 0x6E6 SWAP3 SWAP2 SWAP1 PUSH2 0x2E5B JUMP JUMPDEST PUSH1 0x40 MLOAD DUP1 SWAP2 SUB SWAP1 LOG1 DUP1 DUP1 PUSH2 0x6F9 SWAP1 PUSH2 0x357F JUMP JUMPDEST SWAP2 POP POP PUSH2 0x5CC JUMP JUMPDEST POP PUSH2 0x75C PUSH1 0x5 SLOAD PUSH1 0x6 PUSH1 0x0 PUSH2 0x714 PUSH2 0x1415 JUMP JUMPDEST PUSH20 0xFFFFFFFFFFFFFFFFFFFFFFFFFFFFFFFFFFFFFFFF AND PUSH20 0xFFFFFFFFFFFFFFFFFFFFFFFFFFFFFFFFFFFFFFFF AND DUP2 MSTORE PUSH1 0x20 ADD SWAP1 DUP2 MSTORE PUSH1 0x20 ADD PUSH1 0x0 KECCAK256 PUSH2 0x141D SWAP1 SWAP2 SWAP1 PUSH4 0xFFFFFFFF AND JUMP JUMPDEST POP POP POP POP POP POP POP POP POP POP JUMP JUMPDEST PUSH1 0x9 PUSH1 0x0 DUP6 DUP2 MSTORE PUSH1 0x20 ADD SWAP1 DUP2 MSTORE PUSH1 0x20 ADD PUSH1 0x0 KECCAK256 PUSH1 0x0 SWAP1 SLOAD SWAP1 PUSH2 0x100 EXP SWAP1 DIV PUSH1 0xFF AND PUSH2 0x7C8 JUMPI PUSH1 0x40 MLOAD PUSH32 0x8C379A000000000000000000000000000000000000000000000000000000000 DUP2 MSTORE PUSH1 0x4 ADD PUSH2 0x7BF SWAP1 PUSH2 0x2D9B JUMP JUMPDEST PUSH1 0x40 MLOAD DUP1 SWAP2 SUB SWAP1 REVERT JUMPDEST DUP4 PUSH1 0x8 PUSH1 0x0 DUP6 PUSH20 0xFFFFFFFFFFFFFFFFFFFFFFFFFFFFFFFFFFFFFFFF AND PUSH20 0xFFFFFFFFFFFFFFFFFFFFFFFFFFFFFFFFFFFFFFFF AND DUP2 MSTORE PUSH1 0x20 ADD SWAP1 DUP2 MSTORE PUSH1 0x20 ADD PUSH1 0x0 KECCAK256 PUSH1 0x0 DUP7 DUP2 MSTORE PUSH1 0x20 ADD SWAP1 DUP2 MSTORE PUSH1 0x20 ADD PUSH1 0x0 KECCAK256 PUSH1 0x0 ADD SLOAD EQ PUSH2 0x85D JUMPI PUSH1 0x40 MLOAD PUSH32 0x8C379A000000000000000000000000000000000000000000000000000000000 DUP2 MSTORE PUSH1 0x4 ADD PUSH2 0x854 SWAP1 PUSH2 0x2D3B JUMP JUMPDEST PUSH1 0x40 MLOAD DUP1 SWAP2 SUB SWAP1 REVERT JUMPDEST PUSH1 0x8 PUSH1 0x0 DUP5 PUSH20 0xFFFFFFFFFFFFFFFFFFFFFFFFFFFFFFFFFFFFFFFF AND PUSH20 0xFFFFFFFFFFFFFFFFFFFFFFFFFFFFFFFFFFFFFFFF AND DUP2 MSTORE PUSH1 0x20 ADD SWAP1 DUP2 MSTORE PUSH1 0x20 ADD PUSH1 0x0 KECCAK256 PUSH1 0x0 DUP6 DUP2 MSTORE PUSH1 0x20 ADD SWAP1 DUP2 MSTORE PUSH1 0x20 ADD PUSH1 0x0 KECCAK256 PUSH1 0x1 ADD PUSH1 0x14 SWAP1 SLOAD SWAP1 PUSH2 0x100 EXP SWAP1 DIV PUSH1 0xFF AND ISZERO PUSH2 0x8FE JUMPI PUSH1 0x40 MLOAD PUSH32 0x8C379A000000000000000000000000000000000000000000000000000000000 DUP2 MSTORE PUSH1 0x4 ADD PUSH2 0x8F5 SWAP1 PUSH2 0x2CDB JUMP JUMPDEST PUSH1 0x40 MLOAD DUP1 SWAP2 SUB SWAP1 REVERT JUMPDEST DUP2 MLOAD PUSH1 0x7 PUSH1 0x0 DUP7 DUP2 MSTORE PUSH1 0x20 ADD SWAP1 DUP2 MSTORE PUSH1 0x20 ADD PUSH1 0x0 KECCAK256 PUSH1 0x4 ADD PUSH1 0x0 SWAP1 SLOAD SWAP1 PUSH2 0x100 EXP SWAP1 DIV PUSH2 0xFFFF AND PUSH2 0xFFFF AND EQ PUSH2 0x969 JUMPI PUSH1 0x40 MLOAD PUSH32 0x8C379A000000000000000000000000000000000000000000000000000000000 DUP2 MSTORE PUSH1 0x4 ADD PUSH2 0x960 SWAP1 PUSH2 0x2E3B JUMP JUMPDEST PUSH1 0x40 MLOAD DUP1 SWAP2 SUB SWAP1 REVERT JUMPDEST PUSH1 0x0 DUP1 JUMPDEST DUP3 MLOAD DUP2 LT ISZERO PUSH2 0x9D6 JUMPI DUP3 DUP2 DUP2 MLOAD DUP2 LT PUSH2 0x989 JUMPI PUSH2 0x988 PUSH2 0x3626 JUMP JUMPDEST JUMPDEST PUSH1 0x20 MUL PUSH1 0x20 ADD ADD MLOAD DUP4 DUP3 DUP2 MLOAD DUP2 LT PUSH2 0x9A4 JUMPI PUSH2 0x9A3 PUSH2 0x3626 JUMP JUMPDEST JUMPDEST PUSH1 0x20 MUL PUSH1 0x20 ADD ADD MLOAD PUSH2 0x9B6 SWAP2 SWAP1 PUSH2 0x3369 JUMP JUMPDEST DUP3 PUSH2 0x9C1 SWAP2 SWAP1 PUSH2 0x3313 JUMP JUMPDEST SWAP2 POP DUP1 DUP1 PUSH2 0x9CE SWAP1 PUSH2 0x357F JUMP JUMPDEST SWAP2 POP POP PUSH2 0x96D JUMP JUMPDEST POP DUP1 PUSH1 0x8 PUSH1 0x0 DUP7 PUSH20 0xFFFFFFFFFFFFFFFFFFFFFFFFFFFFFFFFFFFFFFFF AND PUSH20 0xFFFFFFFFFFFFFFFFFFFFFFFFFFFFFFFFFFFFFFFF AND DUP2 MSTORE PUSH1 0x20 ADD SWAP1 DUP2 MSTORE PUSH1 0x20 ADD PUSH1 0x0 KECCAK256 PUSH1 0x0 DUP8 DUP2 MSTORE PUSH1 0x20 ADD SWAP1 DUP2 MSTORE PUSH1 0x20 ADD PUSH1 0x0 KECCAK256 PUSH1 0x2 ADD SLOAD LT ISZERO PUSH2 0xA6D JUMPI PUSH1 0x40 MLOAD PUSH32 0x8C379A000000000000000000000000000000000000000000000000000000000 DUP2 MSTORE PUSH1 0x4 ADD PUSH2 0xA64 SWAP1 PUSH2 0x2DBB JUMP JUMPDEST PUSH1 0x40 MLOAD DUP1 SWAP2 SUB SWAP1 REVERT JUMPDEST PUSH2 0xA96 DUP5 DUP5 DUP5 PUSH1 0x7 PUSH1 0x0 DUP11 DUP2 MSTORE PUSH1 0x20 ADD SWAP1 DUP2 MSTORE PUSH1 0x20 ADD PUSH1 0x0 KECCAK256 PUSH2 0x14EE SWAP1 SWAP4 SWAP3 SWAP2 SWAP1 PUSH4 0xFFFFFFFF AND JUMP JUMPDEST POP PUSH2 0xAF1 DUP6 DUP5 PUSH1 0x6 PUSH1 0x0 PUSH2 0xAA8 PUSH2 0x1415 JUMP JUMPDEST PUSH20 0xFFFFFFFFFFFFFFFFFFFFFFFFFFFFFFFFFFFFFFFF AND PUSH20 0xFFFFFFFFFFFFFFFFFFFFFFFFFFFFFFFFFFFFFFFF AND DUP2 MSTORE PUSH1 0x20 ADD SWAP1 DUP2 MSTORE PUSH1 0x20 ADD PUSH1 0x0 KECCAK256 PUSH2 0x195D SWAP1 SWAP3 SWAP2 SWAP1 PUSH4 0xFFFFFFFF AND JUMP JUMPDEST POP PUSH2 0xB4A PUSH1 0x8 PUSH1 0x0 DUP7 PUSH20 0xFFFFFFFFFFFFFFFFFFFFFFFFFFFFFFFFFFFFFFFF AND PUSH20 0xFFFFFFFFFFFFFFFFFFFFFFFFFFFFFFFFFFFFFFFF AND DUP2 MSTORE PUSH1 0x20 ADD SWAP1 DUP2 MSTORE PUSH1 0x20 ADD PUSH1 0x0 KECCAK256 PUSH1 0x0 DUP8 DUP2 MSTORE PUSH1 0x20 ADD SWAP1 DUP2 MSTORE PUSH1 0x20 ADD PUSH1 0x0 KECCAK256 PUSH2 0x1AEA JUMP JUMPDEST POP PUSH1 0x1 PUSH1 0x8 PUSH1 0x0 DUP7 PUSH20 0xFFFFFFFFFFFFFFFFFFFFFFFFFFFFFFFFFFFFFFFF AND PUSH20 0xFFFFFFFFFFFFFFFFFFFFFFFFFFFFFFFFFFFFFFFF AND DUP2 MSTORE PUSH1 0x20 ADD SWAP1 DUP2 MSTORE PUSH1 0x20 ADD PUSH1 0x0 KECCAK256 PUSH1 0x0 DUP8 DUP2 MSTORE PUSH1 0x20 ADD SWAP1 DUP2 MSTORE PUSH1 0x20 ADD PUSH1 0x0 KECCAK256 PUSH1 0x1 ADD PUSH1 0x14 PUSH2 0x100 EXP DUP2 SLOAD DUP2 PUSH1 0xFF MUL NOT AND SWAP1 DUP4 ISZERO ISZERO MUL OR SWAP1 SSTORE POP PUSH2 0xBD9 DUP5 PUSH1 0x7 PUSH1 0x0 PUSH1 0x5 SLOAD DUP2 MSTORE PUSH1 0x20 ADD SWAP1 DUP2 MSTORE PUSH1 0x20 ADD PUSH1 0x0 KECCAK256 PUSH1 0x5 ADD SLOAD PUSH2 0x1B98 JUMP JUMPDEST PUSH32 0xABF5327BE9F5825C40D58BDA541DD07F09B62DF3376BBD5ECDBAA8BD82A9D492 DUP5 PUSH1 0x7 PUSH1 0x0 PUSH1 0x5 SLOAD DUP2 MSTORE PUSH1 0x20 ADD SWAP1 DUP2 MSTORE PUSH1 0x20 ADD PUSH1 0x0 KECCAK256 PUSH1 0x5 ADD SLOAD PUSH1 0x40 MLOAD PUSH2 0xC22 SWAP3 SWAP2 SWAP1 PUSH2 0x2EB7 JUMP JUMPDEST PUSH1 0x40 MLOAD DUP1 SWAP2 SUB SWAP1 LOG1 POP POP POP POP POP JUMP JUMPDEST PUSH1 0x0 DUP1 PUSH1 0x0 DUP4 PUSH20 0xFFFFFFFFFFFFFFFFFFFFFFFFFFFFFFFFFFFFFFFF AND PUSH20 0xFFFFFFFFFFFFFFFFFFFFFFFFFFFFFFFFFFFFFFFF AND DUP2 MSTORE PUSH1 0x20 ADD SWAP1 DUP2 MSTORE PUSH1 0x20 ADD PUSH1 0x0 KECCAK256 SLOAD SWAP1 POP SWAP2 SWAP1 POP JUMP JUMPDEST PUSH1 0x0 PUSH1 0x9 PUSH1 0x0 DUP6 DUP2 MSTORE PUSH1 0x20 ADD SWAP1 DUP2 MSTORE PUSH1 0x20 ADD PUSH1 0x0 KECCAK256 PUSH1 0x0 SWAP1 SLOAD SWAP1 PUSH2 0x100 EXP SWAP1 DIV PUSH1 0xFF AND PUSH2 0xCDB JUMPI PUSH1 0x40 MLOAD PUSH32 0x8C379A000000000000000000000000000000000000000000000000000000000 DUP2 MSTORE PUSH1 0x4 ADD PUSH2 0xCD2 SWAP1 PUSH2 0x2E1B JUMP JUMPDEST PUSH1 0x40 MLOAD DUP1 SWAP2 SUB SWAP1 REVERT JUMPDEST PUSH1 0x0 JUMPDEST DUP4 MLOAD DUP2 LT ISZERO PUSH2 0xE13 JUMPI PUSH2 0xD0B DUP5 DUP3 DUP2 MLOAD DUP2 LT PUSH2 0xCFD JUMPI PUSH2 0xCFC PUSH2 0x3626 JUMP JUMPDEST JUMPDEST PUSH1 0x20 MUL PUSH1 0x20 ADD ADD MLOAD DUP5 PUSH2 0x1324 JUMP JUMPDEST PUSH2 0xDAC PUSH1 0x5 SLOAD DUP6 DUP4 DUP2 MLOAD DUP2 LT PUSH2 0xD24 JUMPI PUSH2 0xD23 PUSH2 0x3626 JUMP JUMPDEST JUMPDEST PUSH1 0x20 MUL PUSH1 0x20 ADD ADD MLOAD PUSH1 0x0 DUP7 PUSH1 0x8 PUSH1 0x0 DUP11 DUP9 DUP2 MLOAD DUP2 LT PUSH2 0xD46 JUMPI PUSH2 0xD45 PUSH2 0x3626 JUMP JUMPDEST JUMPDEST PUSH1 0x20 MUL PUSH1 0x20 ADD ADD MLOAD PUSH20 0xFFFFFFFFFFFFFFFFFFFFFFFFFFFFFFFFFFFFFFFF AND PUSH20 0xFFFFFFFFFFFFFFFFFFFFFFFFFFFFFFFFFFFFFFFF AND DUP2 MSTORE PUSH1 0x20 ADD SWAP1 DUP2 MSTORE PUSH1 0x20 ADD PUSH1 0x0 KECCAK256 PUSH1 0x0 PUSH1 0x5 SLOAD DUP2 MSTORE PUSH1 0x20 ADD SWAP1 DUP2 MSTORE PUSH1 0x20 ADD PUSH1 0x0 KECCAK256 PUSH2 0x1395 SWAP1 SWAP5 SWAP4 SWAP3 SWAP2 SWAP1 PUSH4 0xFFFFFFFF AND JUMP JUMPDEST POP PUSH32 0xABF5327BE9F5825C40D58BDA541DD07F09B62DF3376BBD5ECDBAA8BD82A9D492 DUP5 DUP3 DUP2 MLOAD DUP2 LT PUSH2 0xDE1 JUMPI PUSH2 0xDE0 PUSH2 0x3626 JUMP JUMPDEST JUMPDEST PUSH1 0x20 MUL PUSH1 0x20 ADD ADD MLOAD DUP5 PUSH1 0x40 MLOAD PUSH2 0xDF8 SWAP3 SWAP2 SWAP1 PUSH2 0x2E5B JUMP JUMPDEST PUSH1 0x40 MLOAD DUP1 SWAP2 SUB SWAP1 LOG1 DUP1 DUP1 PUSH2 0xE0B SWAP1 PUSH2 0x357F JUMP JUMPDEST SWAP2 POP POP PUSH2 0xCDE JUMP JUMPDEST POP PUSH1 0x1 SWAP1 POP SWAP4 SWAP3 POP POP POP JUMP JUMPDEST PUSH1 0x60 PUSH1 0x3 DUP1 SLOAD PUSH2 0xE2E SWAP1 PUSH2 0x34B8 JUMP JUMPDEST DUP1 PUSH1 0x1F ADD PUSH1 0x20 DUP1 SWAP2 DIV MUL PUSH1 0x20 ADD PUSH1 0x40 MLOAD SWAP1 DUP2 ADD PUSH1 0x40 MSTORE DUP1 SWAP3 SWAP2 SWAP1 DUP2 DUP2 MSTORE PUSH1 0x20 ADD DUP3 DUP1 SLOAD PUSH2 0xE5A SWAP1 PUSH2 0x34B8 JUMP JUMPDEST DUP1 ISZERO PUSH2 0xEA7 JUMPI DUP1 PUSH1 0x1F LT PUSH2 0xE7C JUMPI PUSH2 0x100 DUP1 DUP4 SLOAD DIV MUL DUP4 MSTORE SWAP2 PUSH1 0x20 ADD SWAP2 PUSH2 0xEA7 JUMP JUMPDEST DUP3 ADD SWAP2 SWAP1 PUSH1 0x0 MSTORE PUSH1 0x20 PUSH1 0x0 KECCAK256 SWAP1 JUMPDEST DUP2 SLOAD DUP2 MSTORE SWAP1 PUSH1 0x1 ADD SWAP1 PUSH1 0x20 ADD DUP1 DUP4 GT PUSH2 0xE8A JUMPI DUP3 SWAP1 SUB PUSH1 0x1F AND DUP3 ADD SWAP2 JUMPDEST POP POP POP POP POP SWAP1 POP SWAP1 JUMP JUMPDEST PUSH1 0x0 PUSH1 0x60 PUSH1 0x9 PUSH1 0x0 DUP5 DUP2 MSTORE PUSH1 0x20 ADD SWAP1 DUP2 MSTORE PUSH1 0x20 ADD PUSH1 0x0 KECCAK256 PUSH1 0x0 SWAP1 SLOAD SWAP1 PUSH2 0x100 EXP SWAP1 DIV PUSH1 0xFF AND PUSH2 0xF15 JUMPI PUSH1 0x40 MLOAD PUSH32 0x8C379A000000000000000000000000000000000000000000000000000000000 DUP2 MSTORE PUSH1 0x4 ADD PUSH2 0xF0C SWAP1 PUSH2 0x2D1B JUMP JUMPDEST PUSH1 0x40 MLOAD DUP1 SWAP2 SUB SWAP1 REVERT JUMPDEST PUSH1 0x7 PUSH1 0x0 DUP5 DUP2 MSTORE PUSH1 0x20 ADD SWAP1 DUP2 MSTORE PUSH1 0x20 ADD PUSH1 0x0 KECCAK256 PUSH1 0xA ADD PUSH1 0x7 PUSH1 0x0 DUP6 DUP2 MSTORE PUSH1 0x20 ADD SWAP1 DUP2 MSTORE PUSH1 0x20 ADD PUSH1 0x0 KECCAK256 PUSH1 0x9 ADD PUSH1 0x0 PUSH1 0x1 DUP2 MSTORE PUSH1 0x20 ADD SWAP1 DUP2 MSTORE PUSH1 0x20 ADD PUSH1 0x0 KECCAK256 PUSH1 0x40 MLOAD PUSH2 0xF60 SWAP2 SWAP1 PUSH2 0x2BB1 JUMP JUMPDEST SWAP1 DUP2 MSTORE PUSH1 0x20 ADD PUSH1 0x40 MLOAD DUP1 SWAP2 SUB SWAP1 KECCAK256 SLOAD PUSH1 0x7 PUSH1 0x0 DUP6 DUP2 MSTORE PUSH1 0x20 ADD SWAP1 DUP2 MSTORE PUSH1 0x20 ADD PUSH1 0x0 KECCAK256 PUSH1 0x9 ADD PUSH1 0x0 PUSH1 0x1 DUP2 MSTORE PUSH1 0x20 ADD SWAP1 DUP2 MSTORE PUSH1 0x20 ADD PUSH1 0x0 KECCAK256 DUP1 DUP1 SLOAD PUSH2 0xFA3 SWAP1 PUSH2 0x34B8 JUMP JUMPDEST DUP1 PUSH1 0x1F ADD PUSH1 0x20 DUP1 SWAP2 DIV MUL PUSH1 0x20 ADD PUSH1 0x40 MLOAD SWAP1 DUP2 ADD PUSH1 0x40 MSTORE DUP1 SWAP3 SWAP2 SWAP1 DUP2 DUP2 MSTORE PUSH1 0x20 ADD DUP3 DUP1 SLOAD PUSH2 0xFCF SWAP1 PUSH2 0x34B8 JUMP JUMPDEST DUP1 ISZERO PUSH2 0x101C JUMPI DUP1 PUSH1 0x1F LT PUSH2 0xFF1 JUMPI PUSH2 0x100 DUP1 DUP4 SLOAD DIV MUL DUP4 MSTORE SWAP2 PUSH1 0x20 ADD SWAP2 PUSH2 0x101C JUMP JUMPDEST DUP3 ADD SWAP2 SWAP1 PUSH1 0x0 MSTORE PUSH1 0x20 PUSH1 0x0 KECCAK256 SWAP1 JUMPDEST DUP2 SLOAD DUP2 MSTORE SWAP1 PUSH1 0x1 ADD SWAP1 PUSH1 0x20 ADD DUP1 DUP4 GT PUSH2 0xFFF JUMPI DUP3 SWAP1 SUB PUSH1 0x1F AND DUP3 ADD SWAP2 JUMPDEST POP POP POP POP POP SWAP1 POP SWAP2 POP SWAP2 POP SWAP2 POP SWAP2 JUMP JUMPDEST PUSH1 0x8 PUSH1 0x20 MSTORE DUP2 PUSH1 0x0 MSTORE PUSH1 0x40 PUSH1 0x0 KECCAK256 PUSH1 0x20 MSTORE DUP1 PUSH1 0x0 MSTORE PUSH1 0x40 PUSH1 0x0 KECCAK256 PUSH1 0x0 SWAP2 POP SWAP2 POP POP DUP1 PUSH1 0x0 ADD SLOAD SWAP1 DUP1 PUSH1 0x1 ADD PUSH1 0x0 SWAP1 SLOAD SWAP1 PUSH2 0x100 EXP SWAP1 DIV PUSH20 0xFFFFFFFFFFFFFFFFFFFFFFFFFFFFFFFFFFFFFFFF AND SWAP1 DUP1 PUSH1 0x1 ADD PUSH1 0x14 SWAP1 SLOAD SWAP1 PUSH2 0x100 EXP SWAP1 DIV PUSH1 0xFF AND SWAP1 DUP1 PUSH1 0x2 ADD SLOAD SWAP1 POP DUP5 JUMP JUMPDEST PUSH1 0x6 PUSH1 0x20 MSTORE DUP1 PUSH1 0x0 MSTORE PUSH1 0x40 PUSH1 0x0 KECCAK256 PUSH1 0x0 SWAP2 POP SWAP1 POP DUP1 PUSH1 0x0 ADD PUSH1 0x0 SWAP1 SLOAD SWAP1 PUSH2 0x100 EXP SWAP1 DIV PUSH16 0xFFFFFFFFFFFFFFFFFFFFFFFFFFFFFFFF AND SWAP1 DUP1 PUSH1 0x0 ADD PUSH1 0x10 SWAP1 SLOAD SWAP1 PUSH2 0x100 EXP SWAP1 DIV PUSH16 0xFFFFFFFFFFFFFFFFFFFFFFFFFFFFFFFF AND SWAP1 POP DUP3 JUMP JUMPDEST PUSH1 0x0 DUP8 DUP12 PUSH1 0x0 ADD PUSH1 0x0 PUSH2 0x100 EXP DUP2 SLOAD DUP2 PUSH20 0xFFFFFFFFFFFFFFFFFFFFFFFFFFFFFFFFFFFFFFFF MUL NOT AND SWAP1 DUP4 PUSH20 0xFFFFFFFFFFFFFFFFFFFFFFFFFFFFFFFFFFFFFFFF AND MUL OR SWAP1 SSTORE POP DUP10 DUP12 PUSH1 0x0 ADD PUSH1 0x14 PUSH2 0x100 EXP DUP2 SLOAD DUP2 PUSH1 0xFF MUL NOT AND SWAP1 DUP4 PUSH1 0xFF AND MUL OR SWAP1 SSTORE POP DUP5 DUP12 PUSH1 0x1 ADD SWAP1 DUP1 MLOAD SWAP1 PUSH1 0x20 ADD SWAP1 PUSH2 0x116C SWAP3 SWAP2 SWAP1 PUSH2 0x1EB6 JUMP JUMPDEST POP DUP7 DUP12 PUSH1 0x2 ADD DUP2 SWAP1 SSTORE POP DUP6 DUP12 PUSH1 0x3 ADD DUP2 SWAP1 SSTORE POP DUP3 DUP3 SWAP1 POP DUP12 PUSH1 0x4 ADD PUSH1 0x0 PUSH2 0x100 EXP DUP2 SLOAD DUP2 PUSH2 0xFFFF MUL NOT AND SWAP1 DUP4 PUSH2 0xFFFF AND MUL OR SWAP1 SSTORE POP DUP4 DUP12 PUSH1 0x5 ADD DUP2 SWAP1 SSTORE POP PUSH1 0x0 JUMPDEST DUP4 DUP4 SWAP1 POP DUP2 LT ISZERO PUSH2 0x127D JUMPI PUSH1 0x1 DUP13 PUSH1 0x7 ADD DUP6 DUP6 DUP5 DUP2 DUP2 LT PUSH2 0x11D1 JUMPI PUSH2 0x11D0 PUSH2 0x3626 JUMP JUMPDEST JUMPDEST SWAP1 POP PUSH1 0x20 MUL DUP2 ADD SWAP1 PUSH2 0x11E3 SWAP2 SWAP1 PUSH2 0x308D JUMP JUMPDEST PUSH1 0x40 MLOAD PUSH2 0x11F1 SWAP3 SWAP2 SWAP1 PUSH2 0x2B81 JUMP JUMPDEST SWAP1 DUP2 MSTORE PUSH1 0x20 ADD PUSH1 0x40 MLOAD DUP1 SWAP2 SUB SWAP1 KECCAK256 PUSH1 0x0 PUSH2 0x100 EXP DUP2 SLOAD DUP2 PUSH1 0xFF MUL NOT AND SWAP1 DUP4 ISZERO ISZERO MUL OR SWAP1 SSTORE POP DUP4 DUP4 DUP3 DUP2 DUP2 LT PUSH2 0x1229 JUMPI PUSH2 0x1228 PUSH2 0x3626 JUMP JUMPDEST JUMPDEST SWAP1 POP PUSH1 0x20 MUL DUP2 ADD SWAP1 PUSH2 0x123B SWAP2 SWAP1 PUSH2 0x308D JUMP JUMPDEST DUP14 PUSH1 0x8 ADD PUSH1 0x0 PUSH1 0x1 DUP6 PUSH2 0x124E SWAP2 SWAP1 PUSH2 0x3313 JUMP JUMPDEST DUP2 MSTORE PUSH1 0x20 ADD SWAP1 DUP2 MSTORE PUSH1 0x20 ADD PUSH1 0x0 KECCAK256 SWAP2 SWAP1 PUSH2 0x1269 SWAP3 SWAP2 SWAP1 PUSH2 0x1F3C JUMP JUMPDEST POP DUP1 DUP1 PUSH2 0x1275 SWAP1 PUSH2 0x357F JUMP JUMPDEST SWAP2 POP POP PUSH2 0x11AD JUMP JUMPDEST POP PUSH1 0x0 JUMPDEST DUP10 MLOAD DUP2 LT ISZERO PUSH2 0x1311 JUMPI PUSH1 0x1 DUP13 PUSH1 0x6 ADD PUSH1 0x0 DUP13 DUP5 DUP2 MLOAD DUP2 LT PUSH2 0x12A5 JUMPI PUSH2 0x12A4 PUSH2 0x3626 JUMP JUMPDEST JUMPDEST PUSH1 0x20 MUL PUSH1 0x20 ADD ADD MLOAD PUSH20 0xFFFFFFFFFFFFFFFFFFFFFFFFFFFFFFFFFFFFFFFF AND PUSH20 0xFFFFFFFFFFFFFFFFFFFFFFFFFFFFFFFFFFFFFFFF AND DUP2 MSTORE PUSH1 0x20 ADD SWAP1 DUP2 MSTORE PUSH1 0x20 ADD PUSH1 0x0 KECCAK256 PUSH1 0x0 PUSH2 0x100 EXP DUP2 SLOAD DUP2 PUSH1 0xFF MUL NOT AND SWAP1 DUP4 ISZERO ISZERO MUL OR SWAP1 SSTORE POP DUP1 DUP1 PUSH2 0x1309 SWAP1 PUSH2 0x357F JUMP JUMPDEST SWAP2 POP POP PUSH2 0x1281 JUMP JUMPDEST POP PUSH1 0x1 SWAP1 POP SWAP11 SWAP10 POP POP POP POP POP POP POP POP POP POP JUMP JUMPDEST PUSH2 0x132C PUSH2 0x1415 JUMP JUMPDEST DUP1 PUSH20 0xFFFFFFFFFFFFFFFFFFFFFFFFFFFFFFFFFFFFFFFF AND PUSH1 0x4 PUSH1 0x0 SWAP1 SLOAD SWAP1 PUSH2 0x100 EXP SWAP1 DIV PUSH20 0xFFFFFFFFFFFFFFFFFFFFFFFFFFFFFFFFFFFFFFFF AND PUSH20 0xFFFFFFFFFFFFFFFFFFFFFFFFFFFFFFFFFFFFFFFF AND EQ PUSH2 0x1386 JUMPI PUSH1 0x0 DUP1 REVERT JUMPDEST PUSH2 0x1390 DUP4 DUP4 PUSH2 0x1C09 JUMP JUMPDEST POP POP POP JUMP JUMPDEST PUSH1 0x0 DUP5 DUP7 PUSH1 0x0 ADD DUP2 SWAP1 SSTORE POP DUP4 DUP7 PUSH1 0x1 ADD PUSH1 0x0 PUSH2 0x100 EXP DUP2 SLOAD DUP2 PUSH20 0xFFFFFFFFFFFFFFFFFFFFFFFFFFFFFFFFFFFFFFFF MUL NOT AND SWAP1 DUP4 PUSH20 0xFFFFFFFFFFFFFFFFFFFFFFFFFFFFFFFFFFFFFFFF AND MUL OR SWAP1 SSTORE POP DUP3 DUP7 PUSH1 0x1 ADD PUSH1 0x14 PUSH2 0x100 EXP DUP2 SLOAD DUP2 PUSH1 0xFF MUL NOT AND SWAP1 DUP4 ISZERO ISZERO MUL OR SWAP1 SSTORE POP DUP2 DUP7 PUSH1 0x2 ADD DUP2 SWAP1 SSTORE POP PUSH1 0x1 SWAP1 POP SWAP6 SWAP5 POP POP POP POP POP JUMP JUMPDEST PUSH1 0x0 CALLER SWAP1 POP SWAP1 JUMP JUMPDEST PUSH1 0x0 DUP3 PUSH1 0x0 ADD PUSH1 0x0 DUP2 DUP2 SWAP1 SLOAD SWAP1 PUSH2 0x100 EXP SWAP1 DIV PUSH16 0xFFFFFFFFFFFFFFFFFFFFFFFFFFFFFFFF AND DUP1 SWAP3 SWAP2 SWAP1 PUSH2 0x144F SWAP1 PUSH2 0x351B JUMP JUMPDEST SWAP2 SWAP1 PUSH2 0x100 EXP DUP2 SLOAD DUP2 PUSH16 0xFFFFFFFFFFFFFFFFFFFFFFFFFFFFFFFF MUL NOT AND SWAP1 DUP4 PUSH16 0xFFFFFFFFFFFFFFFFFFFFFFFFFFFFFFFF AND MUL OR SWAP1 SSTORE POP POP DUP2 DUP4 PUSH1 0x1 ADD PUSH1 0x0 DUP6 PUSH1 0x0 ADD PUSH1 0x0 SWAP1 SLOAD SWAP1 PUSH2 0x100 EXP SWAP1 DIV PUSH16 0xFFFFFFFFFFFFFFFFFFFFFFFFFFFFFFFF AND PUSH16 0xFFFFFFFFFFFFFFFFFFFFFFFFFFFFFFFF AND PUSH16 0xFFFFFFFFFFFFFFFFFFFFFFFFFFFFFFFF AND DUP2 MSTORE PUSH1 0x20 ADD SWAP1 DUP2 MSTORE PUSH1 0x20 ADD PUSH1 0x0 KECCAK256 DUP2 SWAP1 SSTORE POP PUSH1 0x1 SWAP1 POP SWAP3 SWAP2 POP POP JUMP JUMPDEST PUSH1 0x0 PUSH1 0x2 DUP6 PUSH1 0x0 ADD PUSH1 0x14 SWAP1 SLOAD SWAP1 PUSH2 0x100 EXP SWAP1 DIV PUSH1 0xFF AND PUSH1 0xFF AND EQ PUSH2 0x1547 JUMPI PUSH1 0x40 MLOAD PUSH32 0x8C379A000000000000000000000000000000000000000000000000000000000 DUP2 MSTORE PUSH1 0x4 ADD PUSH2 0x153E SWAP1 PUSH2 0x2C7B JUMP JUMPDEST PUSH1 0x40 MLOAD DUP1 SWAP2 SUB SWAP1 REVERT JUMPDEST DUP5 PUSH1 0x3 ADD SLOAD TIMESTAMP GT ISZERO PUSH2 0x179D JUMPI PUSH1 0x2 DUP6 PUSH1 0x0 ADD PUSH1 0x14 PUSH2 0x100 EXP DUP2 SLOAD DUP2 PUSH1 0xFF MUL NOT AND SWAP1 DUP4 PUSH1 0xFF AND MUL OR SWAP1 SSTORE POP PUSH1 0x0 DUP6 PUSH1 0xA ADD DUP7 PUSH1 0x8 ADD PUSH1 0x0 PUSH1 0x1 DUP2 MSTORE PUSH1 0x20 ADD SWAP1 DUP2 MSTORE PUSH1 0x20 ADD PUSH1 0x0 KECCAK256 PUSH1 0x40 MLOAD PUSH2 0x159A SWAP2 SWAP1 PUSH2 0x2BB1 JUMP JUMPDEST SWAP1 DUP2 MSTORE PUSH1 0x20 ADD PUSH1 0x40 MLOAD DUP1 SWAP2 SUB SWAP1 KECCAK256 SLOAD SWAP1 POP PUSH1 0x0 PUSH1 0x1 SWAP1 POP DUP7 PUSH1 0x8 ADD PUSH1 0x0 PUSH1 0x1 DUP2 MSTORE PUSH1 0x20 ADD SWAP1 DUP2 MSTORE PUSH1 0x20 ADD PUSH1 0x0 KECCAK256 DUP8 PUSH1 0x9 ADD PUSH1 0x0 PUSH1 0x1 DUP2 MSTORE PUSH1 0x20 ADD SWAP1 DUP2 MSTORE PUSH1 0x20 ADD PUSH1 0x0 KECCAK256 SWAP1 DUP1 SLOAD PUSH2 0x15E9 SWAP1 PUSH2 0x34B8 JUMP JUMPDEST PUSH2 0x15F4 SWAP3 SWAP2 SWAP1 PUSH2 0x1FC2 JUMP JUMPDEST POP PUSH1 0x0 PUSH1 0x2 SWAP1 POP JUMPDEST DUP8 PUSH1 0x4 ADD PUSH1 0x0 SWAP1 SLOAD SWAP1 PUSH2 0x100 EXP SWAP1 DIV PUSH2 0xFFFF AND PUSH2 0xFFFF AND DUP2 PUSH2 0xFFFF AND GT PUSH2 0x1791 JUMPI DUP3 DUP9 PUSH1 0xA ADD DUP10 PUSH1 0x8 ADD PUSH1 0x0 DUP5 PUSH2 0xFFFF AND DUP2 MSTORE PUSH1 0x20 ADD SWAP1 DUP2 MSTORE PUSH1 0x20 ADD PUSH1 0x0 KECCAK256 PUSH1 0x40 MLOAD PUSH2 0x1648 SWAP2 SWAP1 PUSH2 0x2BB1 JUMP JUMPDEST SWAP1 DUP2 MSTORE PUSH1 0x20 ADD PUSH1 0x40 MLOAD DUP1 SWAP2 SUB SWAP1 KECCAK256 SLOAD GT ISZERO PUSH2 0x16E8 JUMPI DUP8 PUSH1 0xA ADD DUP9 PUSH1 0x8 ADD PUSH1 0x0 DUP4 PUSH2 0xFFFF AND DUP2 MSTORE PUSH1 0x20 ADD SWAP1 DUP2 MSTORE PUSH1 0x20 ADD PUSH1 0x0 KECCAK256 PUSH1 0x40 MLOAD PUSH2 0x1687 SWAP2 SWAP1 PUSH2 0x2BB1 JUMP JUMPDEST SWAP1 DUP2 MSTORE PUSH1 0x20 ADD PUSH1 0x40 MLOAD DUP1 SWAP2 SUB SWAP1 KECCAK256 SLOAD SWAP3 POP PUSH1 0x1 SWAP2 POP DUP8 PUSH1 0x8 ADD PUSH1 0x0 DUP3 PUSH2 0xFFFF AND DUP2 MSTORE PUSH1 0x20 ADD SWAP1 DUP2 MSTORE PUSH1 0x20 ADD PUSH1 0x0 KECCAK256 DUP9 PUSH1 0x9 ADD PUSH1 0x0 PUSH1 0x1 DUP2 MSTORE PUSH1 0x20 ADD SWAP1 DUP2 MSTORE PUSH1 0x20 ADD PUSH1 0x0 KECCAK256 SWAP1 DUP1 SLOAD PUSH2 0x16D7 SWAP1 PUSH2 0x34B8 JUMP JUMPDEST PUSH2 0x16E2 SWAP3 SWAP2 SWAP1 PUSH2 0x1FC2 JUMP JUMPDEST POP PUSH2 0x177E JUMP JUMPDEST DUP3 DUP9 PUSH1 0xA ADD DUP10 PUSH1 0x8 ADD PUSH1 0x0 DUP5 PUSH2 0xFFFF AND DUP2 MSTORE PUSH1 0x20 ADD SWAP1 DUP2 MSTORE PUSH1 0x20 ADD PUSH1 0x0 KECCAK256 PUSH1 0x40 MLOAD PUSH2 0x1713 SWAP2 SWAP1 PUSH2 0x2BB1 JUMP JUMPDEST SWAP1 DUP2 MSTORE PUSH1 0x20 ADD PUSH1 0x40 MLOAD DUP1 SWAP2 SUB SWAP1 KECCAK256 SLOAD EQ ISZERO PUSH2 0x177D JUMPI DUP2 DUP1 PUSH2 0x1733 SWAP1 PUSH2 0x357F JUMP JUMPDEST SWAP3 POP POP DUP8 PUSH1 0x8 ADD PUSH1 0x0 DUP3 PUSH2 0xFFFF AND DUP2 MSTORE PUSH1 0x20 ADD SWAP1 DUP2 MSTORE PUSH1 0x20 ADD PUSH1 0x0 KECCAK256 DUP9 PUSH1 0x9 ADD PUSH1 0x0 DUP5 DUP2 MSTORE PUSH1 0x20 ADD SWAP1 DUP2 MSTORE PUSH1 0x20 ADD PUSH1 0x0 KECCAK256 SWAP1 DUP1 SLOAD PUSH2 0x1770 SWAP1 PUSH2 0x34B8 JUMP JUMPDEST PUSH2 0x177B SWAP3 SWAP2 SWAP1 PUSH2 0x1FC2 JUMP JUMPDEST POP JUMPDEST JUMPDEST DUP1 DUP1 PUSH2 0x1789 SWAP1 PUSH2 0x3554 JUMP JUMPDEST SWAP2 POP POP PUSH2 0x15FC JUMP JUMPDEST POP PUSH1 0x0 SWAP3 POP POP POP PUSH2 0x1955 JUMP JUMPDEST DUP5 PUSH1 0x6 ADD PUSH1 0x0 DUP6 PUSH20 0xFFFFFFFFFFFFFFFFFFFFFFFFFFFFFFFFFFFFFFFF AND PUSH20 0xFFFFFFFFFFFFFFFFFFFFFFFFFFFFFFFFFFFFFFFF AND DUP2 MSTORE PUSH1 0x20 ADD SWAP1 DUP2 MSTORE PUSH1 0x20 ADD PUSH1 0x0 KECCAK256 PUSH1 0x0 SWAP1 SLOAD SWAP1 PUSH2 0x100 EXP SWAP1 DIV PUSH1 0xFF AND PUSH2 0x182B JUMPI PUSH1 0x40 MLOAD PUSH32 0x8C379A000000000000000000000000000000000000000000000000000000000 DUP2 MSTORE PUSH1 0x4 ADD PUSH2 0x1822 SWAP1 PUSH2 0x2D7B JUMP JUMPDEST PUSH1 0x40 MLOAD DUP1 SWAP2 SUB SWAP1 REVERT JUMPDEST PUSH1 0x0 JUMPDEST DUP6 PUSH1 0x4 ADD PUSH1 0x0 SWAP1 SLOAD SWAP1 PUSH2 0x100 EXP SWAP1 DIV PUSH2 0xFFFF AND PUSH2 0xFFFF AND DUP2 PUSH2 0xFFFF AND LT ISZERO PUSH2 0x194F JUMPI DUP6 PUSH1 0x7 ADD DUP5 DUP3 PUSH2 0xFFFF AND DUP2 MLOAD DUP2 LT PUSH2 0x186B JUMPI PUSH2 0x186A PUSH2 0x3626 JUMP JUMPDEST JUMPDEST PUSH1 0x20 MUL PUSH1 0x20 ADD ADD MLOAD PUSH1 0x40 MLOAD PUSH2 0x1880 SWAP2 SWAP1 PUSH2 0x2B9A JUMP JUMPDEST SWAP1 DUP2 MSTORE PUSH1 0x20 ADD PUSH1 0x40 MLOAD DUP1 SWAP2 SUB SWAP1 KECCAK256 PUSH1 0x0 SWAP1 SLOAD SWAP1 PUSH2 0x100 EXP SWAP1 DIV PUSH1 0xFF AND PUSH2 0x18DB JUMPI PUSH1 0x40 MLOAD PUSH32 0x8C379A000000000000000000000000000000000000000000000000000000000 DUP2 MSTORE PUSH1 0x4 ADD PUSH2 0x18D2 SWAP1 PUSH2 0x2CFB JUMP JUMPDEST PUSH1 0x40 MLOAD DUP1 SWAP2 SUB SWAP1 REVERT JUMPDEST DUP3 DUP2 PUSH2 0xFFFF AND DUP2 MLOAD DUP2 LT PUSH2 0x18F2 JUMPI PUSH2 0x18F1 PUSH2 0x3626 JUMP JUMPDEST JUMPDEST PUSH1 0x20 MUL PUSH1 0x20 ADD ADD MLOAD DUP7 PUSH1 0xA ADD DUP6 DUP4 PUSH2 0xFFFF AND DUP2 MLOAD DUP2 LT PUSH2 0x1915 JUMPI PUSH2 0x1914 PUSH2 0x3626 JUMP JUMPDEST JUMPDEST PUSH1 0x20 MUL PUSH1 0x20 ADD ADD MLOAD PUSH1 0x40 MLOAD PUSH2 0x192A SWAP2 SWAP1 PUSH2 0x2B9A JUMP JUMPDEST SWAP1 DUP2 MSTORE PUSH1 0x20 ADD PUSH1 0x40 MLOAD DUP1 SWAP2 SUB SWAP1 KECCAK256 DUP2 SWAP1 SSTORE POP DUP1 DUP1 PUSH2 0x1947 SWAP1 PUSH2 0x3554 JUMP JUMPDEST SWAP2 POP POP PUSH2 0x182E JUMP JUMPDEST POP PUSH1 0x1 SWAP1 POP JUMPDEST SWAP5 SWAP4 POP POP POP POP JUMP JUMPDEST PUSH1 0x0 DUP4 PUSH1 0x0 ADD PUSH1 0x10 DUP2 DUP2 SWAP1 SLOAD SWAP1 PUSH2 0x100 EXP SWAP1 DIV PUSH16 0xFFFFFFFFFFFFFFFFFFFFFFFFFFFFFFFF AND DUP1 SWAP3 SWAP2 SWAP1 PUSH2 0x198F SWAP1 PUSH2 0x351B JUMP JUMPDEST SWAP2 SWAP1 PUSH2 0x100 EXP DUP2 SLOAD DUP2 PUSH16 0xFFFFFFFFFFFFFFFFFFFFFFFFFFFFFFFF MUL NOT AND SWAP1 DUP4 PUSH16 0xFFFFFFFFFFFFFFFFFFFFFFFFFFFFFFFF AND MUL OR SWAP1 SSTORE POP POP DUP3 DUP5 PUSH1 0x2 ADD PUSH1 0x0 DUP7 PUSH1 0x0 ADD PUSH1 0x10 SWAP1 SLOAD SWAP1 PUSH2 0x100 EXP SWAP1 DIV PUSH16 0xFFFFFFFFFFFFFFFFFFFFFFFFFFFFFFFF AND PUSH16 0xFFFFFFFFFFFFFFFFFFFFFFFFFFFFFFFF AND PUSH16 0xFFFFFFFFFFFFFFFFFFFFFFFFFFFFFFFF AND DUP2 MSTORE PUSH1 0x20 ADD SWAP1 DUP2 MSTORE PUSH1 0x20 ADD PUSH1 0x0 KECCAK256 DUP2 SWAP1 SSTORE POP PUSH1 0x0 JUMPDEST DUP3 MLOAD DUP2 PUSH2 0xFFFF AND LT ISZERO PUSH2 0x1AB0 JUMPI DUP3 DUP2 PUSH2 0xFFFF AND DUP2 MLOAD DUP2 LT PUSH2 0x1A4B JUMPI PUSH2 0x1A4A PUSH2 0x3626 JUMP JUMPDEST JUMPDEST PUSH1 0x20 MUL PUSH1 0x20 ADD ADD MLOAD DUP6 PUSH1 0x3 ADD PUSH1 0x0 DUP7 DUP2 MSTORE PUSH1 0x20 ADD SWAP1 DUP2 MSTORE PUSH1 0x20 ADD PUSH1 0x0 KECCAK256 PUSH1 0x0 PUSH1 0x1 DUP5 PUSH2 0x1A77 SWAP2 SWAP1 PUSH2 0x32DB JUMP JUMPDEST PUSH2 0xFFFF AND DUP2 MSTORE PUSH1 0x20 ADD SWAP1 DUP2 MSTORE PUSH1 0x20 ADD PUSH1 0x0 KECCAK256 SWAP1 DUP1 MLOAD SWAP1 PUSH1 0x20 ADD SWAP1 PUSH2 0x1A9C SWAP3 SWAP2 SWAP1 PUSH2 0x1EB6 JUMP JUMPDEST POP DUP1 DUP1 PUSH2 0x1AA8 SWAP1 PUSH2 0x3554 JUMP JUMPDEST SWAP2 POP POP PUSH2 0x1A27 JUMP JUMPDEST POP PUSH1 0x1 DUP5 PUSH1 0x4 ADD PUSH1 0x0 DUP6 DUP2 MSTORE PUSH1 0x20 ADD SWAP1 DUP2 MSTORE PUSH1 0x20 ADD PUSH1 0x0 KECCAK256 PUSH1 0x0 PUSH2 0x100 EXP DUP2 SLOAD DUP2 PUSH1 0xFF MUL NOT AND SWAP1 DUP4 ISZERO ISZERO MUL OR SWAP1 SSTORE POP PUSH1 0x1 SWAP1 POP SWAP4 SWAP3 POP POP POP JUMP JUMPDEST PUSH1 0x0 DUP1 DUP3 PUSH1 0x0 ADD SLOAD EQ ISZERO PUSH2 0x1B33 JUMPI PUSH1 0x40 MLOAD PUSH32 0x8C379A000000000000000000000000000000000000000000000000000000000 DUP2 MSTORE PUSH1 0x4 ADD PUSH2 0x1B2A SWAP1 PUSH2 0x2E97 JUMP JUMPDEST PUSH1 0x40 MLOAD DUP1 SWAP2 SUB SWAP1 REVERT JUMPDEST DUP2 PUSH1 0x1 ADD PUSH1 0x14 SWAP1 SLOAD SWAP1 PUSH2 0x100 EXP SWAP1 DIV PUSH1 0xFF AND ISZERO PUSH2 0x1B85 JUMPI PUSH1 0x40 MLOAD PUSH32 0x8C379A000000000000000000000000000000000000000000000000000000000 DUP2 MSTORE PUSH1 0x4 ADD PUSH2 0x1B7C SWAP1 PUSH2 0x2EF3 JUMP JUMPDEST PUSH1 0x40 MLOAD DUP1 SWAP2 SUB SWAP1 REVERT JUMPDEST PUSH1 0x0 DUP3 PUSH1 0x2 ADD DUP2 SWAP1 SSTORE POP PUSH1 0x1 SWAP1 POP SWAP2 SWAP1 POP JUMP JUMPDEST PUSH2 0x1BA0 PUSH2 0x1415 JUMP JUMPDEST DUP1 PUSH20 0xFFFFFFFFFFFFFFFFFFFFFFFFFFFFFFFFFFFFFFFF AND PUSH1 0x4 PUSH1 0x0 SWAP1 SLOAD SWAP1 PUSH2 0x100 EXP SWAP1 DIV PUSH20 0xFFFFFFFFFFFFFFFFFFFFFFFFFFFFFFFFFFFFFFFF AND PUSH20 0xFFFFFFFFFFFFFFFFFFFFFFFFFFFFFFFFFFFFFFFF AND EQ PUSH2 0x1BFA JUMPI PUSH1 0x0 DUP1 REVERT JUMPDEST PUSH2 0x1C04 DUP4 DUP4 PUSH2 0x1D24 JUMP JUMPDEST POP POP POP JUMP JUMPDEST PUSH1 0x0 PUSH20 0xFFFFFFFFFFFFFFFFFFFFFFFFFFFFFFFFFFFFFFFF AND DUP3 PUSH20 0xFFFFFFFFFFFFFFFFFFFFFFFFFFFFFFFFFFFFFFFF AND EQ ISZERO PUSH2 0x1C79 JUMPI PUSH1 0x40 MLOAD PUSH32 0x8C379A000000000000000000000000000000000000000000000000000000000 DUP2 MSTORE PUSH1 0x4 ADD PUSH2 0x1C70 SWAP1 PUSH2 0x2F13 JUMP JUMPDEST PUSH1 0x40 MLOAD DUP1 SWAP2 SUB SWAP1 REVERT JUMPDEST DUP1 PUSH1 0x1 PUSH1 0x0 DUP3 DUP3 SLOAD PUSH2 0x1C8B SWAP2 SWAP1 PUSH2 0x3313 JUMP JUMPDEST SWAP3 POP POP DUP2 SWAP1 SSTORE POP DUP1 PUSH1 0x0 DUP1 DUP5 PUSH20 0xFFFFFFFFFFFFFFFFFFFFFFFFFFFFFFFFFFFFFFFF AND PUSH20 0xFFFFFFFFFFFFFFFFFFFFFFFFFFFFFFFFFFFFFFFF AND DUP2 MSTORE PUSH1 0x20 ADD SWAP1 DUP2 MSTORE PUSH1 0x20 ADD PUSH1 0x0 KECCAK256 PUSH1 0x0 DUP3 DUP3 SLOAD PUSH2 0x1CE0 SWAP2 SWAP1 PUSH2 0x3313 JUMP JUMPDEST SWAP3 POP POP DUP2 SWAP1 SSTORE POP PUSH32 0xABF5327BE9F5825C40D58BDA541DD07F09B62DF3376BBD5ECDBAA8BD82A9D492 DUP3 DUP3 PUSH1 0x40 MLOAD PUSH2 0x1D18 SWAP3 SWAP2 SWAP1 PUSH2 0x2E5B JUMP JUMPDEST PUSH1 0x40 MLOAD DUP1 SWAP2 SUB SWAP1 LOG1 POP POP JUMP JUMPDEST PUSH1 0x0 PUSH20 0xFFFFFFFFFFFFFFFFFFFFFFFFFFFFFFFFFFFFFFFF AND DUP3 PUSH20 0xFFFFFFFFFFFFFFFFFFFFFFFFFFFFFFFFFFFFFFFF AND EQ ISZERO PUSH2 0x1D94 JUMPI PUSH1 0x40 MLOAD PUSH32 0x8C379A000000000000000000000000000000000000000000000000000000000 DUP2 MSTORE PUSH1 0x4 ADD PUSH2 0x1D8B SWAP1 PUSH2 0x2DFB JUMP JUMPDEST PUSH1 0x40 MLOAD DUP1 SWAP2 SUB SWAP1 REVERT JUMPDEST PUSH1 0x0 DUP1 PUSH1 0x0 DUP5 PUSH20 0xFFFFFFFFFFFFFFFFFFFFFFFFFFFFFFFFFFFFFFFF AND PUSH20 0xFFFFFFFFFFFFFFFFFFFFFFFFFFFFFFFFFFFFFFFF AND DUP2 MSTORE PUSH1 0x20 ADD SWAP1 DUP2 MSTORE PUSH1 0x20 ADD PUSH1 0x0 KECCAK256 SLOAD SWAP1 POP DUP2 DUP2 LT ISZERO PUSH2 0x1E1A JUMPI PUSH1 0x40 MLOAD PUSH32 0x8C379A000000000000000000000000000000000000000000000000000000000 DUP2 MSTORE PUSH1 0x4 ADD PUSH2 0x1E11 SWAP1 PUSH2 0x2CBB JUMP JUMPDEST PUSH1 0x40 MLOAD DUP1 SWAP2 SUB SWAP1 REVERT JUMPDEST DUP2 DUP2 SUB PUSH1 0x0 DUP1 DUP6 PUSH20 0xFFFFFFFFFFFFFFFFFFFFFFFFFFFFFFFFFFFFFFFF AND PUSH20 0xFFFFFFFFFFFFFFFFFFFFFFFFFFFFFFFFFFFFFFFF AND DUP2 MSTORE PUSH1 0x20 ADD SWAP1 DUP2 MSTORE PUSH1 0x20 ADD PUSH1 0x0 KECCAK256 DUP2 SWAP1 SSTORE POP DUP2 PUSH1 0x1 PUSH1 0x0 DUP3 DUP3 SLOAD PUSH2 0x1E71 SWAP2 SWAP1 PUSH2 0x33C3 JUMP JUMPDEST SWAP3 POP POP DUP2 SWAP1 SSTORE POP PUSH32 0xABF5327BE9F5825C40D58BDA541DD07F09B62DF3376BBD5ECDBAA8BD82A9D492 DUP4 DUP4 PUSH1 0x40 MLOAD PUSH2 0x1EA9 SWAP3 SWAP2 SWAP1 PUSH2 0x2EB7 JUMP JUMPDEST PUSH1 0x40 MLOAD DUP1 SWAP2 SUB SWAP1 LOG1 POP POP POP JUMP JUMPDEST DUP3 DUP1 SLOAD PUSH2 0x1EC2 SWAP1 PUSH2 0x34B8 JUMP JUMPDEST SWAP1 PUSH1 0x0 MSTORE PUSH1 0x20 PUSH1 0x0 KECCAK256 SWAP1 PUSH1 0x1F ADD PUSH1 0x20 SWAP1 DIV DUP2 ADD SWAP3 DUP3 PUSH2 0x1EE4 JUMPI PUSH1 0x0 DUP6 SSTORE PUSH2 0x1F2B JUMP JUMPDEST DUP3 PUSH1 0x1F LT PUSH2 0x1EFD JUMPI DUP1 MLOAD PUSH1 0xFF NOT AND DUP4 DUP1 ADD OR DUP6 SSTORE PUSH2 0x1F2B JUMP JUMPDEST DUP3 DUP1 ADD PUSH1 0x1 ADD DUP6 SSTORE DUP3 ISZERO PUSH2 0x1F2B JUMPI SWAP2 DUP3 ADD JUMPDEST DUP3 DUP2 GT ISZERO PUSH2 0x1F2A JUMPI DUP3 MLOAD DUP3 SSTORE SWAP2 PUSH1 0x20 ADD SWAP2 SWAP1 PUSH1 0x1 ADD SWAP1 PUSH2 0x1F0F JUMP JUMPDEST JUMPDEST POP SWAP1 POP PUSH2 0x1F38 SWAP2 SWAP1 PUSH2 0x204F JUMP JUMPDEST POP SWAP1 JUMP JUMPDEST DUP3 DUP1 SLOAD PUSH2 0x1F48 SWAP1 PUSH2 0x34B8 JUMP JUMPDEST SWAP1 PUSH1 0x0 MSTORE PUSH1 0x20 PUSH1 0x0 KECCAK256 SWAP1 PUSH1 0x1F ADD PUSH1 0x20 SWAP1 DIV DUP2 ADD SWAP3 DUP3 PUSH2 0x1F6A JUMPI PUSH1 0x0 DUP6 SSTORE PUSH2 0x1FB1 JUMP JUMPDEST DUP3 PUSH1 0x1F LT PUSH2 0x1F83 JUMPI DUP1 CALLDATALOAD PUSH1 0xFF NOT AND DUP4 DUP1 ADD OR DUP6 SSTORE PUSH2 0x1FB1 JUMP JUMPDEST DUP3 DUP1 ADD PUSH1 0x1 ADD DUP6 SSTORE DUP3 ISZERO PUSH2 0x1FB1 JUMPI SWAP2 DUP3 ADD JUMPDEST DUP3 DUP2 GT ISZERO PUSH2 0x1FB0 JUMPI DUP3 CALLDATALOAD DUP3 SSTORE SWAP2 PUSH1 0x20 ADD SWAP2 SWAP1 PUSH1 0x1 ADD SWAP1 PUSH2 0x1F95 JUMP JUMPDEST JUMPDEST POP SWAP1 POP PUSH2 0x1FBE SWAP2 SWAP1 PUSH2 0x204F JUMP JUMPDEST POP SWAP1 JUMP JUMPDEST DUP3 DUP1 SLOAD PUSH2 0x1FCE SWAP1 PUSH2 0x34B8 JUMP JUMPDEST SWAP1 PUSH1 0x0 MSTORE PUSH1 0x20 PUSH1 0x0 KECCAK256 SWAP1 PUSH1 0x1F ADD PUSH1 0x20 SWAP1 DIV DUP2 ADD SWAP3 DUP3 PUSH2 0x1FF0 JUMPI PUSH1 0x0 DUP6 SSTORE PUSH2 0x203E JUMP JUMPDEST DUP3 PUSH1 0x1F LT PUSH2 0x2001 JUMPI DUP1 SLOAD DUP6 SSTORE PUSH2 0x203E JUMP JUMPDEST DUP3 DUP1 ADD PUSH1 0x1 ADD DUP6 SSTORE DUP3 ISZERO PUSH2 0x203E JUMPI PUSH1 0x0 MSTORE PUSH1 0x20 PUSH1 0x0 KECCAK256 SWAP2 PUSH1 0x1F ADD PUSH1 0x20 SWAP1 DIV DUP3 ADD JUMPDEST DUP3 DUP2 GT ISZERO PUSH2 0x203D JUMPI DUP3 SLOAD DUP3 SSTORE SWAP2 PUSH1 0x1 ADD SWAP2 SWAP1 PUSH1 0x1 ADD SWAP1 PUSH2 0x2022 JUMP JUMPDEST JUMPDEST POP SWAP1 POP PUSH2 0x204B SWAP2 SWAP1 PUSH2 0x204F JUMP JUMPDEST POP SWAP1 JUMP JUMPDEST JUMPDEST DUP1 DUP3 GT ISZERO PUSH2 0x2068 JUMPI PUSH1 0x0 DUP2 PUSH1 0x0 SWAP1 SSTORE POP PUSH1 0x1 ADD PUSH2 0x2050 JUMP JUMPDEST POP SWAP1 JUMP JUMPDEST PUSH1 0x0 PUSH2 0x207F PUSH2 0x207A DUP5 PUSH2 0x3115 JUMP JUMPDEST PUSH2 0x30F0 JUMP JUMPDEST SWAP1 POP DUP1 DUP4 DUP3 MSTORE PUSH1 0x20 DUP3 ADD SWAP1 POP DUP3 DUP6 PUSH1 0x20 DUP7 MUL DUP3 ADD GT ISZERO PUSH2 0x20A2 JUMPI PUSH2 0x20A1 PUSH2 0x36A2 JUMP JUMPDEST JUMPDEST PUSH1 0x0 JUMPDEST DUP6 DUP2 LT ISZERO PUSH2 0x20D2 JUMPI DUP2 PUSH2 0x20B8 DUP9 DUP3 PUSH2 0x221C JUMP JUMPDEST DUP5 MSTORE PUSH1 0x20 DUP5 ADD SWAP4 POP PUSH1 0x20 DUP4 ADD SWAP3 POP POP PUSH1 0x1 DUP2 ADD SWAP1 POP PUSH2 0x20A5 JUMP JUMPDEST POP POP POP SWAP4 SWAP3 POP POP POP JUMP JUMPDEST PUSH1 0x0 PUSH2 0x20EF PUSH2 0x20EA DUP5 PUSH2 0x3141 JUMP JUMPDEST PUSH2 0x30F0 JUMP JUMPDEST SWAP1 POP DUP1 DUP4 DUP3 MSTORE PUSH1 0x20 DUP3 ADD SWAP1 POP DUP3 DUP6 PUSH1 0x20 DUP7 MUL DUP3 ADD GT ISZERO PUSH2 0x2112 JUMPI PUSH2 0x2111 PUSH2 0x36A2 JUMP JUMPDEST JUMPDEST PUSH1 0x0 JUMPDEST DUP6 DUP2 LT ISZERO PUSH2 0x2160 JUMPI DUP2 CALLDATALOAD PUSH8 0xFFFFFFFFFFFFFFFF DUP2 GT ISZERO PUSH2 0x2138 JUMPI PUSH2 0x2137 PUSH2 0x368E JUMP JUMPDEST JUMPDEST DUP1 DUP7 ADD PUSH2 0x2145 DUP10 DUP3 PUSH2 0x2311 JUMP JUMPDEST DUP6 MSTORE PUSH1 0x20 DUP6 ADD SWAP5 POP PUSH1 0x20 DUP5 ADD SWAP4 POP POP POP PUSH1 0x1 DUP2 ADD SWAP1 POP PUSH2 0x2115 JUMP JUMPDEST POP POP POP SWAP4 SWAP3 POP POP POP JUMP JUMPDEST PUSH1 0x0 PUSH2 0x217D PUSH2 0x2178 DUP5 PUSH2 0x316D JUMP JUMPDEST PUSH2 0x30F0 JUMP JUMPDEST SWAP1 POP DUP1 DUP4 DUP3 MSTORE PUSH1 0x20 DUP3 ADD SWAP1 POP DUP3 DUP6 PUSH1 0x20 DUP7 MUL DUP3 ADD GT ISZERO PUSH2 0x21A0 JUMPI PUSH2 0x219F PUSH2 0x36A2 JUMP JUMPDEST JUMPDEST PUSH1 0x0 JUMPDEST DUP6 DUP2 LT ISZERO PUSH2 0x21D0 JUMPI DUP2 PUSH2 0x21B6 DUP9 DUP3 PUSH2 0x233F JUMP JUMPDEST DUP5 MSTORE PUSH1 0x20 DUP5 ADD SWAP4 POP PUSH1 0x20 DUP4 ADD SWAP3 POP POP PUSH1 0x1 DUP2 ADD SWAP1 POP PUSH2 0x21A3 JUMP JUMPDEST POP POP POP SWAP4 SWAP3 POP POP POP JUMP JUMPDEST PUSH1 0x0 PUSH2 0x21ED PUSH2 0x21E8 DUP5 PUSH2 0x3199 JUMP JUMPDEST PUSH2 0x30F0 JUMP JUMPDEST SWAP1 POP DUP3 DUP2 MSTORE PUSH1 0x20 DUP2 ADD DUP5 DUP5 DUP5 ADD GT ISZERO PUSH2 0x2209 JUMPI PUSH2 0x2208 PUSH2 0x36AC JUMP JUMPDEST JUMPDEST PUSH2 0x2214 DUP5 DUP3 DUP6 PUSH2 0x3476 JUMP JUMPDEST POP SWAP4 SWAP3 POP POP POP JUMP JUMPDEST PUSH1 0x0 DUP2 CALLDATALOAD SWAP1 POP PUSH2 0x222B DUP2 PUSH2 0x3B35 JUMP JUMPDEST SWAP3 SWAP2 POP POP JUMP JUMPDEST PUSH1 0x0 DUP3 PUSH1 0x1F DUP4 ADD SLT PUSH2 0x2246 JUMPI PUSH2 0x2245 PUSH2 0x368E JUMP JUMPDEST JUMPDEST DUP2 CALLDATALOAD PUSH2 0x2256 DUP5 DUP3 PUSH1 0x20 DUP7 ADD PUSH2 0x206C JUMP JUMPDEST SWAP2 POP POP SWAP3 SWAP2 POP POP JUMP JUMPDEST PUSH1 0x0 DUP1 DUP4 PUSH1 0x1F DUP5 ADD SLT PUSH2 0x2275 JUMPI PUSH2 0x2274 PUSH2 0x368E JUMP JUMPDEST JUMPDEST DUP3 CALLDATALOAD SWAP1 POP PUSH8 0xFFFFFFFFFFFFFFFF DUP2 GT ISZERO PUSH2 0x2292 JUMPI PUSH2 0x2291 PUSH2 0x3689 JUMP JUMPDEST JUMPDEST PUSH1 0x20 DUP4 ADD SWAP2 POP DUP4 PUSH1 0x20 DUP3 MUL DUP4 ADD GT ISZERO PUSH2 0x22AE JUMPI PUSH2 0x22AD PUSH2 0x36A2 JUMP JUMPDEST JUMPDEST SWAP3 POP SWAP3 SWAP1 POP JUMP JUMPDEST PUSH1 0x0 DUP3 PUSH1 0x1F DUP4 ADD SLT PUSH2 0x22CA JUMPI PUSH2 0x22C9 PUSH2 0x368E JUMP JUMPDEST JUMPDEST DUP2 CALLDATALOAD PUSH2 0x22DA DUP5 DUP3 PUSH1 0x20 DUP7 ADD PUSH2 0x20DC JUMP JUMPDEST SWAP2 POP POP SWAP3 SWAP2 POP POP JUMP JUMPDEST PUSH1 0x0 DUP3 PUSH1 0x1F DUP4 ADD SLT PUSH2 0x22F8 JUMPI PUSH2 0x22F7 PUSH2 0x368E JUMP JUMPDEST JUMPDEST DUP2 CALLDATALOAD PUSH2 0x2308 DUP5 DUP3 PUSH1 0x20 DUP7 ADD PUSH2 0x216A JUMP JUMPDEST SWAP2 POP POP SWAP3 SWAP2 POP POP JUMP JUMPDEST PUSH1 0x0 DUP3 PUSH1 0x1F DUP4 ADD SLT PUSH2 0x2326 JUMPI PUSH2 0x2325 PUSH2 0x368E JUMP JUMPDEST JUMPDEST DUP2 CALLDATALOAD PUSH2 0x2336 DUP5 DUP3 PUSH1 0x20 DUP7 ADD PUSH2 0x21DA JUMP JUMPDEST SWAP2 POP POP SWAP3 SWAP2 POP POP JUMP JUMPDEST PUSH1 0x0 DUP2 CALLDATALOAD SWAP1 POP PUSH2 0x234E DUP2 PUSH2 0x3B4C JUMP JUMPDEST SWAP3 SWAP2 POP POP JUMP JUMPDEST PUSH1 0x0 DUP2 CALLDATALOAD SWAP1 POP PUSH2 0x2363 DUP2 PUSH2 0x3B63 JUMP JUMPDEST SWAP3 SWAP2 POP POP JUMP JUMPDEST PUSH1 0x0 PUSH1 0x20 DUP3 DUP5 SUB SLT ISZERO PUSH2 0x237F JUMPI PUSH2 0x237E PUSH2 0x36BB JUMP JUMPDEST JUMPDEST PUSH1 0x0 PUSH2 0x238D DUP5 DUP3 DUP6 ADD PUSH2 0x221C JUMP JUMPDEST SWAP2 POP POP SWAP3 SWAP2 POP POP JUMP JUMPDEST PUSH1 0x0 DUP1 PUSH1 0x40 DUP4 DUP6 SUB SLT ISZERO PUSH2 0x23AD JUMPI PUSH2 0x23AC PUSH2 0x36BB JUMP JUMPDEST JUMPDEST PUSH1 0x0 PUSH2 0x23BB DUP6 DUP3 DUP7 ADD PUSH2 0x221C JUMP JUMPDEST SWAP3 POP POP PUSH1 0x20 PUSH2 0x23CC DUP6 DUP3 DUP7 ADD PUSH2 0x233F JUMP JUMPDEST SWAP2 POP POP SWAP3 POP SWAP3 SWAP1 POP JUMP JUMPDEST PUSH1 0x0 PUSH1 0x20 DUP3 DUP5 SUB SLT ISZERO PUSH2 0x23EC JUMPI PUSH2 0x23EB PUSH2 0x36BB JUMP JUMPDEST JUMPDEST PUSH1 0x0 PUSH2 0x23FA DUP5 DUP3 DUP6 ADD PUSH2 0x233F JUMP JUMPDEST SWAP2 POP POP SWAP3 SWAP2 POP POP JUMP JUMPDEST PUSH1 0x0 DUP1 PUSH1 0x0 DUP1 PUSH1 0x80 DUP6 DUP8 SUB SLT ISZERO PUSH2 0x241D JUMPI PUSH2 0x241C PUSH2 0x36BB JUMP JUMPDEST JUMPDEST PUSH1 0x0 PUSH2 0x242B DUP8 DUP3 DUP9 ADD PUSH2 0x233F JUMP JUMPDEST SWAP5 POP POP PUSH1 0x20 PUSH2 0x243C DUP8 DUP3 DUP9 ADD PUSH2 0x221C JUMP JUMPDEST SWAP4 POP POP PUSH1 0x40 DUP6 ADD CALLDATALOAD PUSH8 0xFFFFFFFFFFFFFFFF DUP2 GT ISZERO PUSH2 0x245D JUMPI PUSH2 0x245C PUSH2 0x36B1 JUMP JUMPDEST JUMPDEST PUSH2 0x2469 DUP8 DUP3 DUP9 ADD PUSH2 0x22B5 JUMP JUMPDEST SWAP3 POP POP PUSH1 0x60 DUP6 ADD CALLDATALOAD PUSH8 0xFFFFFFFFFFFFFFFF DUP2 GT ISZERO PUSH2 0x248A JUMPI PUSH2 0x2489 PUSH2 0x36B1 JUMP JUMPDEST JUMPDEST PUSH2 0x2496 DUP8 DUP3 DUP9 ADD PUSH2 0x22E3 JUMP JUMPDEST SWAP2 POP POP SWAP3 SWAP6 SWAP2 SWAP5 POP SWAP3 POP JUMP JUMPDEST PUSH1 0x0 DUP1 PUSH1 0x0 PUSH1 0x60 DUP5 DUP7 SUB SLT ISZERO PUSH2 0x24BB JUMPI PUSH2 0x24BA PUSH2 0x36BB JUMP JUMPDEST JUMPDEST PUSH1 0x0 PUSH2 0x24C9 DUP7 DUP3 DUP8 ADD PUSH2 0x233F JUMP JUMPDEST SWAP4 POP POP PUSH1 0x20 DUP5 ADD CALLDATALOAD PUSH8 0xFFFFFFFFFFFFFFFF DUP2 GT ISZERO PUSH2 0x24EA JUMPI PUSH2 0x24E9 PUSH2 0x36B1 JUMP JUMPDEST JUMPDEST PUSH2 0x24F6 DUP7 DUP3 DUP8 ADD PUSH2 0x2231 JUMP JUMPDEST SWAP3 POP POP PUSH1 0x40 PUSH2 0x2507 DUP7 DUP3 DUP8 ADD PUSH2 0x233F JUMP JUMPDEST SWAP2 POP POP SWAP3 POP SWAP3 POP SWAP3 JUMP JUMPDEST PUSH1 0x0 DUP1 PUSH1 0x0 DUP1 PUSH1 0x0 DUP1 PUSH1 0x0 DUP1 PUSH1 0x0 PUSH2 0x100 DUP11 DUP13 SUB SLT ISZERO PUSH2 0x2534 JUMPI PUSH2 0x2533 PUSH2 0x36BB JUMP JUMPDEST JUMPDEST PUSH1 0x0 PUSH2 0x2542 DUP13 DUP3 DUP14 ADD PUSH2 0x2354 JUMP JUMPDEST SWAP10 POP POP PUSH1 0x20 DUP11 ADD CALLDATALOAD PUSH8 0xFFFFFFFFFFFFFFFF DUP2 GT ISZERO PUSH2 0x2563 JUMPI PUSH2 0x2562 PUSH2 0x36B1 JUMP JUMPDEST JUMPDEST PUSH2 0x256F DUP13 DUP3 DUP14 ADD PUSH2 0x2231 JUMP JUMPDEST SWAP9 POP POP PUSH1 0x40 PUSH2 0x2580 DUP13 DUP3 DUP14 ADD PUSH2 0x221C JUMP JUMPDEST SWAP8 POP POP PUSH1 0x60 PUSH2 0x2591 DUP13 DUP3 DUP14 ADD PUSH2 0x233F JUMP JUMPDEST SWAP7 POP POP PUSH1 0x80 PUSH2 0x25A2 DUP13 DUP3 DUP14 ADD PUSH2 0x233F JUMP JUMPDEST SWAP6 POP POP PUSH1 0xA0 DUP11 ADD CALLDATALOAD PUSH8 0xFFFFFFFFFFFFFFFF DUP2 GT ISZERO PUSH2 0x25C3 JUMPI PUSH2 0x25C2 PUSH2 0x36B1 JUMP JUMPDEST JUMPDEST PUSH2 0x25CF DUP13 DUP3 DUP14 ADD PUSH2 0x2311 JUMP JUMPDEST SWAP5 POP POP PUSH1 0xC0 DUP11 ADD CALLDATALOAD PUSH8 0xFFFFFFFFFFFFFFFF DUP2 GT ISZERO PUSH2 0x25F0 JUMPI PUSH2 0x25EF PUSH2 0x36B1 JUMP JUMPDEST JUMPDEST PUSH2 0x25FC DUP13 DUP3 DUP14 ADD PUSH2 0x225F JUMP JUMPDEST SWAP4 POP SWAP4 POP POP PUSH1 0xE0 PUSH2 0x260F DUP13 DUP3 DUP14 ADD PUSH2 0x233F JUMP JUMPDEST SWAP2 POP POP SWAP3 SWAP6 SWAP9 POP SWAP3 SWAP6 SWAP9 POP SWAP3 SWAP6 SWAP9 JUMP JUMPDEST PUSH1 0x0 PUSH2 0x262B DUP4 DUP4 PUSH2 0x264D JUMP JUMPDEST PUSH1 0x20 DUP4 ADD SWAP1 POP SWAP3 SWAP2 POP POP JUMP JUMPDEST PUSH1 0x0 PUSH2 0x2644 DUP5 DUP5 DUP5 PUSH2 0x274E JUMP JUMPDEST SWAP1 POP SWAP4 SWAP3 POP POP POP JUMP JUMPDEST PUSH2 0x2656 DUP2 PUSH2 0x33F7 JUMP JUMPDEST DUP3 MSTORE POP POP JUMP JUMPDEST PUSH2 0x2665 DUP2 PUSH2 0x33F7 JUMP JUMPDEST DUP3 MSTORE POP POP JUMP JUMPDEST PUSH1 0x0 PUSH2 0x2676 DUP3 PUSH2 0x31F9 JUMP JUMPDEST PUSH2 0x2680 DUP2 DUP6 PUSH2 0x3229 JUMP JUMPDEST SWAP4 POP PUSH2 0x268B DUP4 PUSH2 0x31CA JUMP JUMPDEST DUP1 PUSH1 0x0 JUMPDEST DUP4 DUP2 LT ISZERO PUSH2 0x26BC JUMPI DUP2 MLOAD PUSH2 0x26A3 DUP9 DUP3 PUSH2 0x261F JUMP JUMPDEST SWAP8 POP PUSH2 0x26AE DUP4 PUSH2 0x320F JUMP JUMPDEST SWAP3 POP POP PUSH1 0x1 DUP2 ADD SWAP1 POP PUSH2 0x268F JUMP JUMPDEST POP DUP6 SWAP4 POP POP POP POP SWAP3 SWAP2 POP POP JUMP JUMPDEST PUSH1 0x0 PUSH2 0x26D5 DUP4 DUP6 PUSH2 0x323A JUMP JUMPDEST SWAP4 POP DUP4 PUSH1 0x20 DUP5 MUL DUP6 ADD PUSH2 0x26E7 DUP5 PUSH2 0x31DA JUMP JUMPDEST DUP1 PUSH1 0x0 JUMPDEST DUP8 DUP2 LT ISZERO PUSH2 0x272D JUMPI DUP5 DUP5 SUB DUP10 MSTORE PUSH2 0x2702 DUP3 DUP5 PUSH2 0x3278 JUMP JUMPDEST PUSH2 0x270D DUP7 DUP3 DUP5 PUSH2 0x2637 JUMP JUMPDEST SWAP6 POP PUSH2 0x2718 DUP5 PUSH2 0x321C JUMP JUMPDEST SWAP4 POP PUSH1 0x20 DUP12 ADD SWAP11 POP POP POP PUSH1 0x1 DUP2 ADD SWAP1 POP PUSH2 0x26EB JUMP JUMPDEST POP DUP3 SWAP8 POP DUP8 SWAP5 POP POP POP POP POP SWAP4 SWAP3 POP POP POP JUMP JUMPDEST PUSH2 0x2748 DUP2 PUSH2 0x3409 JUMP JUMPDEST DUP3 MSTORE POP POP JUMP JUMPDEST PUSH1 0x0 PUSH2 0x275A DUP4 DUP6 PUSH2 0x324B JUMP JUMPDEST SWAP4 POP PUSH2 0x2767 DUP4 DUP6 DUP5 PUSH2 0x3476 JUMP JUMPDEST PUSH2 0x2770 DUP4 PUSH2 0x36C0 JUMP JUMPDEST DUP5 ADD SWAP1 POP SWAP4 SWAP3 POP POP POP JUMP JUMPDEST PUSH1 0x0 PUSH2 0x2787 DUP4 DUP6 PUSH2 0x326D JUMP JUMPDEST SWAP4 POP PUSH2 0x2794 DUP4 DUP6 DUP5 PUSH2 0x3476 JUMP JUMPDEST DUP3 DUP5 ADD SWAP1 POP SWAP4 SWAP3 POP POP POP JUMP JUMPDEST PUSH1 0x0 PUSH2 0x27AB DUP3 PUSH2 0x3204 JUMP JUMPDEST PUSH2 0x27B5 DUP2 DUP6 PUSH2 0x325C JUMP JUMPDEST SWAP4 POP PUSH2 0x27C5 DUP2 DUP6 PUSH1 0x20 DUP7 ADD PUSH2 0x3485 JUMP JUMPDEST PUSH2 0x27CE DUP2 PUSH2 0x36C0 JUMP JUMPDEST DUP5 ADD SWAP2 POP POP SWAP3 SWAP2 POP POP JUMP JUMPDEST PUSH1 0x0 PUSH2 0x27E4 DUP3 PUSH2 0x3204 JUMP JUMPDEST PUSH2 0x27EE DUP2 DUP6 PUSH2 0x326D JUMP JUMPDEST SWAP4 POP PUSH2 0x27FE DUP2 DUP6 PUSH1 0x20 DUP7 ADD PUSH2 0x3485 JUMP JUMPDEST DUP1 DUP5 ADD SWAP2 POP POP SWAP3 SWAP2 POP POP JUMP JUMPDEST PUSH1 0x0 DUP2 SLOAD PUSH2 0x2817 DUP2 PUSH2 0x34B8 JUMP JUMPDEST PUSH2 0x2821 DUP2 DUP7 PUSH2 0x326D JUMP JUMPDEST SWAP5 POP PUSH1 0x1 DUP3 AND PUSH1 0x0 DUP2 EQ PUSH2 0x283C JUMPI PUSH1 0x1 DUP2 EQ PUSH2 0x284D JUMPI PUSH2 0x2880 JUMP JUMPDEST PUSH1 0xFF NOT DUP4 AND DUP7 MSTORE DUP2 DUP7 ADD SWAP4 POP PUSH2 0x2880 JUMP JUMPDEST PUSH2 0x2856 DUP6 PUSH2 0x31E4 JUMP JUMPDEST PUSH1 0x0 JUMPDEST DUP4 DUP2 LT ISZERO PUSH2 0x2878 JUMPI DUP2 SLOAD DUP2 DUP10 ADD MSTORE PUSH1 0x1 DUP3 ADD SWAP2 POP PUSH1 0x20 DUP2 ADD SWAP1 POP PUSH2 0x2859 JUMP JUMPDEST DUP4 DUP9 ADD SWAP6 POP POP POP JUMPDEST POP POP POP SWAP3 SWAP2 POP POP JUMP JUMPDEST PUSH1 0x0 PUSH2 0x2896 PUSH1 0x12 DUP4 PUSH2 0x325C JUMP JUMPDEST SWAP2 POP PUSH2 0x28A1 DUP3 PUSH2 0x36D1 JUMP JUMPDEST PUSH1 0x20 DUP3 ADD SWAP1 POP SWAP2 SWAP1 POP JUMP JUMPDEST PUSH1 0x0 PUSH2 0x28B9 PUSH1 0x2C DUP4 PUSH2 0x325C JUMP JUMPDEST SWAP2 POP PUSH2 0x28C4 DUP3 PUSH2 0x36FA JUMP JUMPDEST PUSH1 0x40 DUP3 ADD SWAP1 POP SWAP2 SWAP1 POP JUMP JUMPDEST PUSH1 0x0 PUSH2 0x28DC PUSH1 0x22 DUP4 PUSH2 0x325C JUMP JUMPDEST SWAP2 POP PUSH2 0x28E7 DUP3 PUSH2 0x3749 JUMP JUMPDEST PUSH1 0x40 DUP3 ADD SWAP1 POP SWAP2 SWAP1 POP JUMP JUMPDEST PUSH1 0x0 PUSH2 0x28FF PUSH1 0xD DUP4 PUSH2 0x325C JUMP JUMPDEST SWAP2 POP PUSH2 0x290A DUP3 PUSH2 0x3798 JUMP JUMPDEST PUSH1 0x20 DUP3 ADD SWAP1 POP SWAP2 SWAP1 POP JUMP JUMPDEST PUSH1 0x0 PUSH2 0x2922 PUSH1 0x1B DUP4 PUSH2 0x325C JUMP JUMPDEST SWAP2 POP PUSH2 0x292D DUP3 PUSH2 0x37C1 JUMP JUMPDEST PUSH1 0x20 DUP3 ADD SWAP1 POP SWAP2 SWAP1 POP JUMP JUMPDEST PUSH1 0x0 PUSH2 0x2945 PUSH1 0x14 DUP4 PUSH2 0x325C JUMP JUMPDEST SWAP2 POP PUSH2 0x2950 DUP3 PUSH2 0x37EA JUMP JUMPDEST PUSH1 0x20 DUP3 ADD SWAP1 POP SWAP2 SWAP1 POP JUMP JUMPDEST PUSH1 0x0 PUSH2 0x2968 PUSH1 0x23 DUP4 PUSH2 0x325C JUMP JUMPDEST SWAP2 POP PUSH2 0x2973 DUP3 PUSH2 0x3813 JUMP JUMPDEST PUSH1 0x40 DUP3 ADD SWAP1 POP SWAP2 SWAP1 POP JUMP JUMPDEST PUSH1 0x0 PUSH2 0x298B PUSH1 0x14 DUP4 PUSH2 0x325C JUMP JUMPDEST SWAP2 POP PUSH2 0x2996 DUP3 PUSH2 0x3862 JUMP JUMPDEST PUSH1 0x20 DUP3 ADD SWAP1 POP SWAP2 SWAP1 POP JUMP JUMPDEST PUSH1 0x0 PUSH2 0x29AE PUSH1 0x23 DUP4 PUSH2 0x325C JUMP JUMPDEST SWAP2 POP PUSH2 0x29B9 DUP3 PUSH2 0x388B JUMP JUMPDEST PUSH1 0x40 DUP3 ADD SWAP1 POP SWAP2 SWAP1 POP JUMP JUMPDEST PUSH1 0x0 PUSH2 0x29D1 PUSH1 0x12 DUP4 PUSH2 0x325C JUMP JUMPDEST SWAP2 POP PUSH2 0x29DC DUP3 PUSH2 0x38DA JUMP JUMPDEST PUSH1 0x20 DUP3 ADD SWAP1 POP SWAP2 SWAP1 POP JUMP JUMPDEST PUSH1 0x0 PUSH2 0x29F4 PUSH1 0x23 DUP4 PUSH2 0x325C JUMP JUMPDEST SWAP2 POP PUSH2 0x29FF DUP3 PUSH2 0x3903 JUMP JUMPDEST PUSH1 0x40 DUP3 ADD SWAP1 POP SWAP2 SWAP1 POP JUMP JUMPDEST PUSH1 0x0 PUSH2 0x2A17 PUSH1 0x2A DUP4 PUSH2 0x325C JUMP JUMPDEST SWAP2 POP PUSH2 0x2A22 DUP3 PUSH2 0x3952 JUMP JUMPDEST PUSH1 0x40 DUP3 ADD SWAP1 POP SWAP2 SWAP1 POP JUMP JUMPDEST PUSH1 0x0 PUSH2 0x2A3A PUSH1 0x21 DUP4 PUSH2 0x325C JUMP JUMPDEST SWAP2 POP PUSH2 0x2A45 DUP3 PUSH2 0x39A1 JUMP JUMPDEST PUSH1 0x40 DUP3 ADD SWAP1 POP SWAP2 SWAP1 POP JUMP JUMPDEST PUSH1 0x0 PUSH2 0x2A5D PUSH1 0x15 DUP4 PUSH2 0x325C JUMP JUMPDEST SWAP2 POP PUSH2 0x2A68 DUP3 PUSH2 0x39F0 JUMP JUMPDEST PUSH1 0x20 DUP3 ADD SWAP1 POP SWAP2 SWAP1 POP JUMP JUMPDEST PUSH1 0x0 PUSH2 0x2A80 PUSH1 0x24 DUP4 PUSH2 0x325C JUMP JUMPDEST SWAP2 POP PUSH2 0x2A8B DUP3 PUSH2 0x3A19 JUMP JUMPDEST PUSH1 0x40 DUP3 ADD SWAP1 POP SWAP2 SWAP1 POP JUMP JUMPDEST PUSH1 0x0 PUSH2 0x2AA3 PUSH1 0x4 DUP4 PUSH2 0x325C JUMP JUMPDEST SWAP2 POP PUSH2 0x2AAE DUP3 PUSH2 0x3A68 JUMP JUMPDEST PUSH1 0x20 DUP3 ADD SWAP1 POP SWAP2 SWAP1 POP JUMP JUMPDEST PUSH1 0x0 PUSH2 0x2AC6 PUSH1 0x1D DUP4 PUSH2 0x325C JUMP JUMPDEST SWAP2 POP PUSH2 0x2AD1 DUP3 PUSH2 0x3A91 JUMP JUMPDEST PUSH1 0x20 DUP3 ADD SWAP1 POP SWAP2 SWAP1 POP JUMP JUMPDEST PUSH1 0x0 PUSH2 0x2AE9 PUSH1 0x4 DUP4 PUSH2 0x325C JUMP JUMPDEST SWAP2 POP PUSH2 0x2AF4 DUP3 PUSH2 0x3ABA JUMP JUMPDEST PUSH1 0x20 DUP3 ADD SWAP1 POP SWAP2 SWAP1 POP JUMP JUMPDEST PUSH1 0x0 PUSH2 0x2B0C PUSH1 0x9 DUP4 PUSH2 0x325C JUMP JUMPDEST SWAP2 POP PUSH2 0x2B17 DUP3 PUSH2 0x3AE3 JUMP JUMPDEST PUSH1 0x20 DUP3 ADD SWAP1 POP SWAP2 SWAP1 POP JUMP JUMPDEST PUSH1 0x0 PUSH2 0x2B2F PUSH1 0x1F DUP4 PUSH2 0x325C JUMP JUMPDEST SWAP2 POP PUSH2 0x2B3A DUP3 PUSH2 0x3B0C JUMP JUMPDEST PUSH1 0x20 DUP3 ADD SWAP1 POP SWAP2 SWAP1 POP JUMP JUMPDEST PUSH2 0x2B4E DUP2 PUSH2 0x3415 JUMP JUMPDEST DUP3 MSTORE POP POP JUMP JUMPDEST PUSH2 0x2B5D DUP2 PUSH2 0x3431 JUMP JUMPDEST DUP3 MSTORE POP POP JUMP JUMPDEST PUSH2 0x2B6C DUP2 PUSH2 0x345F JUMP JUMPDEST DUP3 MSTORE POP POP JUMP JUMPDEST PUSH2 0x2B7B DUP2 PUSH2 0x3469 JUMP JUMPDEST DUP3 MSTORE POP POP JUMP JUMPDEST PUSH1 0x0 PUSH2 0x2B8E DUP3 DUP5 DUP7 PUSH2 0x277B JUMP JUMPDEST SWAP2 POP DUP2 SWAP1 POP SWAP4 SWAP3 POP POP POP JUMP JUMPDEST PUSH1 0x0 PUSH2 0x2BA6 DUP3 DUP5 PUSH2 0x27D9 JUMP JUMPDEST SWAP2 POP DUP2 SWAP1 POP SWAP3 SWAP2 POP POP JUMP JUMPDEST PUSH1 0x0 PUSH2 0x2BBD DUP3 DUP5 PUSH2 0x280A JUMP JUMPDEST SWAP2 POP DUP2 SWAP1 POP SWAP3 SWAP2 POP POP JUMP JUMPDEST PUSH1 0x0 PUSH1 0xE0 DUP3 ADD SWAP1 POP PUSH2 0x2BDD PUSH1 0x0 DUP4 ADD DUP11 PUSH2 0x265C JUMP JUMPDEST PUSH2 0x2BEA PUSH1 0x20 DUP4 ADD DUP10 PUSH2 0x2B72 JUMP JUMPDEST DUP2 DUP2 SUB PUSH1 0x40 DUP4 ADD MSTORE PUSH2 0x2BFC DUP2 DUP9 PUSH2 0x27A0 JUMP JUMPDEST SWAP1 POP PUSH2 0x2C0B PUSH1 0x60 DUP4 ADD DUP8 PUSH2 0x2B63 JUMP JUMPDEST PUSH2 0x2C18 PUSH1 0x80 DUP4 ADD DUP7 PUSH2 0x2B63 JUMP JUMPDEST PUSH2 0x2C25 PUSH1 0xA0 DUP4 ADD DUP6 PUSH2 0x2B54 JUMP JUMPDEST PUSH2 0x2C32 PUSH1 0xC0 DUP4 ADD DUP5 PUSH2 0x2B63 JUMP JUMPDEST SWAP9 SWAP8 POP POP POP POP POP POP POP POP JUMP JUMPDEST PUSH1 0x0 PUSH1 0x20 DUP3 ADD SWAP1 POP PUSH2 0x2C53 PUSH1 0x0 DUP4 ADD DUP5 PUSH2 0x273F JUMP JUMPDEST SWAP3 SWAP2 POP POP JUMP JUMPDEST PUSH1 0x0 PUSH1 0x20 DUP3 ADD SWAP1 POP DUP2 DUP2 SUB PUSH1 0x0 DUP4 ADD MSTORE PUSH2 0x2C73 DUP2 DUP5 PUSH2 0x27A0 JUMP JUMPDEST SWAP1 POP SWAP3 SWAP2 POP POP JUMP JUMPDEST PUSH1 0x0 PUSH1 0x20 DUP3 ADD SWAP1 POP DUP2 DUP2 SUB PUSH1 0x0 DUP4 ADD MSTORE PUSH2 0x2C94 DUP2 PUSH2 0x2889 JUMP JUMPDEST SWAP1 POP SWAP2 SWAP1 POP JUMP JUMPDEST PUSH1 0x0 PUSH1 0x20 DUP3 ADD SWAP1 POP DUP2 DUP2 SUB PUSH1 0x0 DUP4 ADD MSTORE PUSH2 0x2CB4 DUP2 PUSH2 0x28AC JUMP JUMPDEST SWAP1 POP SWAP2 SWAP1 POP JUMP JUMPDEST PUSH1 0x0 PUSH1 0x20 DUP3 ADD SWAP1 POP DUP2 DUP2 SUB PUSH1 0x0 DUP4 ADD MSTORE PUSH2 0x2CD4 DUP2 PUSH2 0x28CF JUMP JUMPDEST SWAP1 POP SWAP2 SWAP1 POP JUMP JUMPDEST PUSH1 0x0 PUSH1 0x20 DUP3 ADD SWAP1 POP DUP2 DUP2 SUB PUSH1 0x0 DUP4 ADD MSTORE PUSH2 0x2CF4 DUP2 PUSH2 0x28F2 JUMP JUMPDEST SWAP1 POP SWAP2 SWAP1 POP JUMP JUMPDEST PUSH1 0x0 PUSH1 0x20 DUP3 ADD SWAP1 POP DUP2 DUP2 SUB PUSH1 0x0 DUP4 ADD MSTORE PUSH2 0x2D14 DUP2 PUSH2 0x2915 JUMP JUMPDEST SWAP1 POP SWAP2 SWAP1 POP JUMP JUMPDEST PUSH1 0x0 PUSH1 0x20 DUP3 ADD SWAP1 POP DUP2 DUP2 SUB PUSH1 0x0 DUP4 ADD MSTORE PUSH2 0x2D34 DUP2 PUSH2 0x2938 JUMP JUMPDEST SWAP1 POP SWAP2 SWAP1 POP JUMP JUMPDEST PUSH1 0x0 PUSH1 0x20 DUP3 ADD SWAP1 POP DUP2 DUP2 SUB PUSH1 0x0 DUP4 ADD MSTORE PUSH2 0x2D54 DUP2 PUSH2 0x295B JUMP JUMPDEST SWAP1 POP SWAP2 SWAP1 POP JUMP JUMPDEST PUSH1 0x0 PUSH1 0x20 DUP3 ADD SWAP1 POP DUP2 DUP2 SUB PUSH1 0x0 DUP4 ADD MSTORE PUSH2 0x2D74 DUP2 PUSH2 0x297E JUMP JUMPDEST SWAP1 POP SWAP2 SWAP1 POP JUMP JUMPDEST PUSH1 0x0 PUSH1 0x20 DUP3 ADD SWAP1 POP DUP2 DUP2 SUB PUSH1 0x0 DUP4 ADD MSTORE PUSH2 0x2D94 DUP2 PUSH2 0x29A1 JUMP JUMPDEST SWAP1 POP SWAP2 SWAP1 POP JUMP JUMPDEST PUSH1 0x0 PUSH1 0x20 DUP3 ADD SWAP1 POP DUP2 DUP2 SUB PUSH1 0x0 DUP4 ADD MSTORE PUSH2 0x2DB4 DUP2 PUSH2 0x29C4 JUMP JUMPDEST SWAP1 POP SWAP2 SWAP1 POP JUMP JUMPDEST PUSH1 0x0 PUSH1 0x20 DUP3 ADD SWAP1 POP DUP2 DUP2 SUB PUSH1 0x0 DUP4 ADD MSTORE PUSH2 0x2DD4 DUP2 PUSH2 0x29E7 JUMP JUMPDEST SWAP1 POP SWAP2 SWAP1 POP JUMP JUMPDEST PUSH1 0x0 PUSH1 0x20 DUP3 ADD SWAP1 POP DUP2 DUP2 SUB PUSH1 0x0 DUP4 ADD MSTORE PUSH2 0x2DF4 DUP2 PUSH2 0x2A0A JUMP JUMPDEST SWAP1 POP SWAP2 SWAP1 POP JUMP JUMPDEST PUSH1 0x0 PUSH1 0x20 DUP3 ADD SWAP1 POP DUP2 DUP2 SUB PUSH1 0x0 DUP4 ADD MSTORE PUSH2 0x2E14 DUP2 PUSH2 0x2A2D JUMP JUMPDEST SWAP1 POP SWAP2 SWAP1 POP JUMP JUMPDEST PUSH1 0x0 PUSH1 0x20 DUP3 ADD SWAP1 POP DUP2 DUP2 SUB PUSH1 0x0 DUP4 ADD MSTORE PUSH2 0x2E34 DUP2 PUSH2 0x2A50 JUMP JUMPDEST SWAP1 POP SWAP2 SWAP1 POP JUMP JUMPDEST PUSH1 0x0 PUSH1 0x20 DUP3 ADD SWAP1 POP DUP2 DUP2 SUB PUSH1 0x0 DUP4 ADD MSTORE PUSH2 0x2E54 DUP2 PUSH2 0x2A73 JUMP JUMPDEST SWAP1 POP SWAP2 SWAP1 POP JUMP JUMPDEST PUSH1 0x0 PUSH1 0x60 DUP3 ADD SWAP1 POP DUP2 DUP2 SUB PUSH1 0x0 DUP4 ADD MSTORE PUSH2 0x2E74 DUP2 PUSH2 0x2A96 JUMP JUMPDEST SWAP1 POP PUSH2 0x2E83 PUSH1 0x20 DUP4 ADD DUP6 PUSH2 0x265C JUMP JUMPDEST PUSH2 0x2E90 PUSH1 0x40 DUP4 ADD DUP5 PUSH2 0x2B63 JUMP JUMPDEST SWAP4 SWAP3 POP POP POP JUMP JUMPDEST PUSH1 0x0 PUSH1 0x20 DUP3 ADD SWAP1 POP DUP2 DUP2 SUB PUSH1 0x0 DUP4 ADD MSTORE PUSH2 0x2EB0 DUP2 PUSH2 0x2AB9 JUMP JUMPDEST SWAP1 POP SWAP2 SWAP1 POP JUMP JUMPDEST PUSH1 0x0 PUSH1 0x60 DUP3 ADD SWAP1 POP DUP2 DUP2 SUB PUSH1 0x0 DUP4 ADD MSTORE PUSH2 0x2ED0 DUP2 PUSH2 0x2ADC JUMP JUMPDEST SWAP1 POP PUSH2 0x2EDF PUSH1 0x20 DUP4 ADD DUP6 PUSH2 0x265C JUMP JUMPDEST PUSH2 0x2EEC PUSH1 0x40 DUP4 ADD DUP5 PUSH2 0x2B63 JUMP JUMPDEST SWAP4 SWAP3 POP POP POP JUMP JUMPDEST PUSH1 0x0 PUSH1 0x20 DUP3 ADD SWAP1 POP DUP2 DUP2 SUB PUSH1 0x0 DUP4 ADD MSTORE PUSH2 0x2F0C DUP2 PUSH2 0x2AFF JUMP JUMPDEST SWAP1 POP SWAP2 SWAP1 POP JUMP JUMPDEST PUSH1 0x0 PUSH1 0x20 DUP3 ADD SWAP1 POP DUP2 DUP2 SUB PUSH1 0x0 DUP4 ADD MSTORE PUSH2 0x2F2C DUP2 PUSH2 0x2B22 JUMP JUMPDEST SWAP1 POP SWAP2 SWAP1 POP JUMP JUMPDEST PUSH1 0x0 PUSH1 0x40 DUP3 ADD SWAP1 POP PUSH2 0x2F48 PUSH1 0x0 DUP4 ADD DUP6 PUSH2 0x2B45 JUMP JUMPDEST PUSH2 0x2F55 PUSH1 0x20 DUP4 ADD DUP5 PUSH2 0x2B45 JUMP JUMPDEST SWAP4 SWAP3 POP POP POP JUMP JUMPDEST PUSH1 0x0 PUSH1 0x20 DUP3 ADD SWAP1 POP PUSH2 0x2F71 PUSH1 0x0 DUP4 ADD DUP5 PUSH2 0x2B63 JUMP JUMPDEST SWAP3 SWAP2 POP POP JUMP JUMPDEST PUSH1 0x0 PUSH1 0x80 DUP3 ADD SWAP1 POP PUSH2 0x2F8C PUSH1 0x0 DUP4 ADD DUP8 PUSH2 0x2B63 JUMP JUMPDEST PUSH2 0x2F99 PUSH1 0x20 DUP4 ADD DUP7 PUSH2 0x265C JUMP JUMPDEST PUSH2 0x2FA6 PUSH1 0x40 DUP4 ADD DUP6 PUSH2 0x273F JUMP JUMPDEST PUSH2 0x2FB3 PUSH1 0x60 DUP4 ADD DUP5 PUSH2 0x2B63 JUMP JUMPDEST SWAP6 SWAP5 POP POP POP POP POP JUMP JUMPDEST PUSH1 0x0 PUSH1 0xE0 DUP3 ADD SWAP1 POP PUSH2 0x2FD1 PUSH1 0x0 DUP4 ADD DUP12 PUSH2 0x2B63 JUMP JUMPDEST DUP2 DUP2 SUB PUSH1 0x20 DUP4 ADD MSTORE PUSH2 0x2FE3 DUP2 DUP11 PUSH2 0x266B JUMP JUMPDEST SWAP1 POP PUSH2 0x2FF2 PUSH1 0x40 DUP4 ADD DUP10 PUSH2 0x265C JUMP JUMPDEST PUSH2 0x2FFF PUSH1 0x60 DUP4 ADD DUP9 PUSH2 0x2B63 JUMP JUMPDEST PUSH2 0x300C PUSH1 0x80 DUP4 ADD DUP8 PUSH2 0x2B63 JUMP JUMPDEST DUP2 DUP2 SUB PUSH1 0xA0 DUP4 ADD MSTORE PUSH2 0x301E DUP2 DUP7 PUSH2 0x27A0 JUMP JUMPDEST SWAP1 POP DUP2 DUP2 SUB PUSH1 0xC0 DUP4 ADD MSTORE PUSH2 0x3033 DUP2 DUP5 DUP7 PUSH2 0x26C9 JUMP JUMPDEST SWAP1 POP SWAP10 SWAP9 POP POP POP POP POP POP POP POP POP JUMP JUMPDEST PUSH1 0x0 PUSH1 0x40 DUP3 ADD SWAP1 POP PUSH2 0x3057 PUSH1 0x0 DUP4 ADD DUP6 PUSH2 0x2B63 JUMP JUMPDEST DUP2 DUP2 SUB PUSH1 0x20 DUP4 ADD MSTORE PUSH2 0x3069 DUP2 DUP5 PUSH2 0x27A0 JUMP JUMPDEST SWAP1 POP SWAP4 SWAP3 POP POP POP JUMP JUMPDEST PUSH1 0x0 PUSH1 0x20 DUP3 ADD SWAP1 POP PUSH2 0x3087 PUSH1 0x0 DUP4 ADD DUP5 PUSH2 0x2B72 JUMP JUMPDEST SWAP3 SWAP2 POP POP JUMP JUMPDEST PUSH1 0x0 DUP1 DUP4 CALLDATALOAD PUSH1 0x1 PUSH1 0x20 SUB DUP5 CALLDATASIZE SUB SUB DUP2 SLT PUSH2 0x30AA JUMPI PUSH2 0x30A9 PUSH2 0x3698 JUMP JUMPDEST JUMPDEST DUP1 DUP5 ADD SWAP3 POP DUP3 CALLDATALOAD SWAP2 POP PUSH8 0xFFFFFFFFFFFFFFFF DUP3 GT ISZERO PUSH2 0x30CC JUMPI PUSH2 0x30CB PUSH2 0x3693 JUMP JUMPDEST JUMPDEST PUSH1 0x20 DUP4 ADD SWAP3 POP PUSH1 0x1 DUP3 MUL CALLDATASIZE SUB DUP4 SGT ISZERO PUSH2 0x30E8 JUMPI PUSH2 0x30E7 PUSH2 0x36A7 JUMP JUMPDEST JUMPDEST POP SWAP3 POP SWAP3 SWAP1 POP JUMP JUMPDEST PUSH1 0x0 PUSH2 0x30FA PUSH2 0x310B JUMP JUMPDEST SWAP1 POP PUSH2 0x3106 DUP3 DUP3 PUSH2 0x34EA JUMP JUMPDEST SWAP2 SWAP1 POP JUMP JUMPDEST PUSH1 0x0 PUSH1 0x40 MLOAD SWAP1 POP SWAP1 JUMP JUMPDEST PUSH1 0x0 PUSH8 0xFFFFFFFFFFFFFFFF DUP3 GT ISZERO PUSH2 0x3130 JUMPI PUSH2 0x312F PUSH2 0x3655 JUMP JUMPDEST JUMPDEST PUSH1 0x20 DUP3 MUL SWAP1 POP PUSH1 0x20 DUP2 ADD SWAP1 POP SWAP2 SWAP1 POP JUMP JUMPDEST PUSH1 0x0 PUSH8 0xFFFFFFFFFFFFFFFF DUP3 GT ISZERO PUSH2 0x315C JUMPI PUSH2 0x315B PUSH2 0x3655 JUMP JUMPDEST JUMPDEST PUSH1 0x20 DUP3 MUL SWAP1 POP PUSH1 0x20 DUP2 ADD SWAP1 POP SWAP2 SWAP1 POP JUMP JUMPDEST PUSH1 0x0 PUSH8 0xFFFFFFFFFFFFFFFF DUP3 GT ISZERO PUSH2 0x3188 JUMPI PUSH2 0x3187 PUSH2 0x3655 JUMP JUMPDEST JUMPDEST PUSH1 0x20 DUP3 MUL SWAP1 POP PUSH1 0x20 DUP2 ADD SWAP1 POP SWAP2 SWAP1 POP JUMP JUMPDEST PUSH1 0x0 PUSH8 0xFFFFFFFFFFFFFFFF DUP3 GT ISZERO PUSH2 0x31B4 JUMPI PUSH2 0x31B3 PUSH2 0x3655 JUMP JUMPDEST JUMPDEST PUSH2 0x31BD DUP3 PUSH2 0x36C0 JUMP JUMPDEST SWAP1 POP PUSH1 0x20 DUP2 ADD SWAP1 POP SWAP2 SWAP1 POP JUMP JUMPDEST PUSH1 0x0 DUP2 SWAP1 POP PUSH1 0x20 DUP3 ADD SWAP1 POP SWAP2 SWAP1 POP JUMP JUMPDEST PUSH1 0x0 DUP2 SWAP1 POP SWAP2 SWAP1 POP JUMP JUMPDEST PUSH1 0x0 DUP2 SWAP1 POP DUP2 PUSH1 0x0 MSTORE PUSH1 0x20 PUSH1 0x0 KECCAK256 SWAP1 POP SWAP2 SWAP1 POP JUMP JUMPDEST PUSH1 0x0 DUP2 MLOAD SWAP1 POP SWAP2 SWAP1 POP JUMP JUMPDEST PUSH1 0x0 DUP2 MLOAD SWAP1 POP SWAP2 SWAP1 POP JUMP JUMPDEST PUSH1 0x0 PUSH1 0x20 DUP3 ADD SWAP1 POP SWAP2 SWAP1 POP JUMP JUMPDEST PUSH1 0x0 PUSH1 0x20 DUP3 ADD SWAP1 POP SWAP2 SWAP1 POP JUMP JUMPDEST PUSH1 0x0 DUP3 DUP3 MSTORE PUSH1 0x20 DUP3 ADD SWAP1 POP SWAP3 SWAP2 POP POP JUMP JUMPDEST PUSH1 0x0 DUP3 DUP3 MSTORE PUSH1 0x20 DUP3 ADD SWAP1 POP SWAP3 SWAP2 POP POP JUMP JUMPDEST PUSH1 0x0 DUP3 DUP3 MSTORE PUSH1 0x20 DUP3 ADD SWAP1 POP SWAP3 SWAP2 POP POP JUMP JUMPDEST PUSH1 0x0 DUP3 DUP3 MSTORE PUSH1 0x20 DUP3 ADD SWAP1 POP SWAP3 SWAP2 POP POP JUMP JUMPDEST PUSH1 0x0 DUP2 SWAP1 POP SWAP3 SWAP2 POP POP JUMP JUMPDEST PUSH1 0x0 DUP1 DUP4 CALLDATALOAD PUSH1 0x1 PUSH1 0x20 SUB DUP5 CALLDATASIZE SUB SUB DUP2 SLT PUSH2 0x3295 JUMPI PUSH2 0x3294 PUSH2 0x36B6 JUMP JUMPDEST JUMPDEST DUP4 DUP2 ADD SWAP3 POP DUP3 CALLDATALOAD SWAP2 POP PUSH1 0x20 DUP4 ADD SWAP3 POP PUSH8 0xFFFFFFFFFFFFFFFF DUP3 GT ISZERO PUSH2 0x32BD JUMPI PUSH2 0x32BC PUSH2 0x3684 JUMP JUMPDEST JUMPDEST PUSH1 0x1 DUP3 MUL CALLDATASIZE SUB DUP5 SGT ISZERO PUSH2 0x32D3 JUMPI PUSH2 0x32D2 PUSH2 0x369D JUMP JUMPDEST JUMPDEST POP SWAP3 POP SWAP3 SWAP1 POP JUMP JUMPDEST PUSH1 0x0 PUSH2 0x32E6 DUP3 PUSH2 0x3431 JUMP JUMPDEST SWAP2 POP PUSH2 0x32F1 DUP4 PUSH2 0x3431 JUMP JUMPDEST SWAP3 POP DUP3 PUSH2 0xFFFF SUB DUP3 GT ISZERO PUSH2 0x3308 JUMPI PUSH2 0x3307 PUSH2 0x35C8 JUMP JUMPDEST JUMPDEST DUP3 DUP3 ADD SWAP1 POP SWAP3 SWAP2 POP POP JUMP JUMPDEST PUSH1 0x0 PUSH2 0x331E DUP3 PUSH2 0x345F JUMP JUMPDEST SWAP2 POP PUSH2 0x3329 DUP4 PUSH2 0x345F JUMP JUMPDEST SWAP3 POP DUP3 PUSH32 0xFFFFFFFFFFFFFFFFFFFFFFFFFFFFFFFFFFFFFFFFFFFFFFFFFFFFFFFFFFFFFFFF SUB DUP3 GT ISZERO PUSH2 0x335E JUMPI PUSH2 0x335D PUSH2 0x35C8 JUMP JUMPDEST JUMPDEST DUP3 DUP3 ADD SWAP1 POP SWAP3 SWAP2 POP POP JUMP JUMPDEST PUSH1 0x0 PUSH2 0x3374 DUP3 PUSH2 0x345F JUMP JUMPDEST SWAP2 POP PUSH2 0x337F DUP4 PUSH2 0x345F JUMP JUMPDEST SWAP3 POP DUP2 PUSH32 0xFFFFFFFFFFFFFFFFFFFFFFFFFFFFFFFFFFFFFFFFFFFFFFFFFFFFFFFFFFFFFFFF DIV DUP4 GT DUP3 ISZERO ISZERO AND ISZERO PUSH2 0x33B8 JUMPI PUSH2 0x33B7 PUSH2 0x35C8 JUMP JUMPDEST JUMPDEST DUP3 DUP3 MUL SWAP1 POP SWAP3 SWAP2 POP POP JUMP JUMPDEST PUSH1 0x0 PUSH2 0x33CE DUP3 PUSH2 0x345F JUMP JUMPDEST SWAP2 POP PUSH2 0x33D9 DUP4 PUSH2 0x345F JUMP JUMPDEST SWAP3 POP DUP3 DUP3 LT ISZERO PUSH2 0x33EC JUMPI PUSH2 0x33EB PUSH2 0x35C8 JUMP JUMPDEST JUMPDEST DUP3 DUP3 SUB SWAP1 POP SWAP3 SWAP2 POP POP JUMP JUMPDEST PUSH1 0x0 PUSH2 0x3402 DUP3 PUSH2 0x343F JUMP JUMPDEST SWAP1 POP SWAP2 SWAP1 POP JUMP JUMPDEST PUSH1 0x0 DUP2 ISZERO ISZERO SWAP1 POP SWAP2 SWAP1 POP JUMP JUMPDEST PUSH1 0x0 PUSH16 0xFFFFFFFFFFFFFFFFFFFFFFFFFFFFFFFF DUP3 AND SWAP1 POP SWAP2 SWAP1 POP JUMP JUMPDEST PUSH1 0x0 PUSH2 0xFFFF DUP3 AND SWAP1 POP SWAP2 SWAP1 POP JUMP JUMPDEST PUSH1 0x0 PUSH20 0xFFFFFFFFFFFFFFFFFFFFFFFFFFFFFFFFFFFFFFFF DUP3 AND SWAP1 POP SWAP2 SWAP1 POP JUMP JUMPDEST PUSH1 0x0 DUP2 SWAP1 POP SWAP2 SWAP1 POP JUMP JUMPDEST PUSH1 0x0 PUSH1 0xFF DUP3 AND SWAP1 POP SWAP2 SWAP1 POP JUMP JUMPDEST DUP3 DUP2 DUP4 CALLDATACOPY PUSH1 0x0 DUP4 DUP4 ADD MSTORE POP POP POP JUMP JUMPDEST PUSH1 0x0 JUMPDEST DUP4 DUP2 LT ISZERO PUSH2 0x34A3 JUMPI DUP1 DUP3 ADD MLOAD DUP2 DUP5 ADD MSTORE PUSH1 0x20 DUP2 ADD SWAP1 POP PUSH2 0x3488 JUMP JUMPDEST DUP4 DUP2 GT ISZERO PUSH2 0x34B2 JUMPI PUSH1 0x0 DUP5 DUP5 ADD MSTORE JUMPDEST POP POP POP POP JUMP JUMPDEST PUSH1 0x0 PUSH1 0x2 DUP3 DIV SWAP1 POP PUSH1 0x1 DUP3 AND DUP1 PUSH2 0x34D0 JUMPI PUSH1 0x7F DUP3 AND SWAP2 POP JUMPDEST PUSH1 0x20 DUP3 LT DUP2 EQ ISZERO PUSH2 0x34E4 JUMPI PUSH2 0x34E3 PUSH2 0x35F7 JUMP JUMPDEST JUMPDEST POP SWAP2 SWAP1 POP JUMP JUMPDEST PUSH2 0x34F3 DUP3 PUSH2 0x36C0 JUMP JUMPDEST DUP2 ADD DUP2 DUP2 LT PUSH8 0xFFFFFFFFFFFFFFFF DUP3 GT OR ISZERO PUSH2 0x3512 JUMPI PUSH2 0x3511 PUSH2 0x3655 JUMP JUMPDEST JUMPDEST DUP1 PUSH1 0x40 MSTORE POP POP POP JUMP JUMPDEST PUSH1 0x0 PUSH2 0x3526 DUP3 PUSH2 0x3415 JUMP JUMPDEST SWAP2 POP PUSH16 0xFFFFFFFFFFFFFFFFFFFFFFFFFFFFFFFF DUP3 EQ ISZERO PUSH2 0x3549 JUMPI PUSH2 0x3548 PUSH2 0x35C8 JUMP JUMPDEST JUMPDEST PUSH1 0x1 DUP3 ADD SWAP1 POP SWAP2 SWAP1 POP JUMP JUMPDEST PUSH1 0x0 PUSH2 0x355F DUP3 PUSH2 0x3431 JUMP JUMPDEST SWAP2 POP PUSH2 0xFFFF DUP3 EQ ISZERO PUSH2 0x3574 JUMPI PUSH2 0x3573 PUSH2 0x35C8 JUMP JUMPDEST JUMPDEST PUSH1 0x1 DUP3 ADD SWAP1 POP SWAP2 SWAP1 POP JUMP JUMPDEST PUSH1 0x0 PUSH2 0x358A DUP3 PUSH2 0x345F JUMP JUMPDEST SWAP2 POP PUSH32 0xFFFFFFFFFFFFFFFFFFFFFFFFFFFFFFFFFFFFFFFFFFFFFFFFFFFFFFFFFFFFFFFF DUP3 EQ ISZERO PUSH2 0x35BD JUMPI PUSH2 0x35BC PUSH2 0x35C8 JUMP JUMPDEST JUMPDEST PUSH1 0x1 DUP3 ADD SWAP1 POP SWAP2 SWAP1 POP JUMP JUMPDEST PUSH32 0x4E487B7100000000000000000000000000000000000000000000000000000000 PUSH1 0x0 MSTORE PUSH1 0x11 PUSH1 0x4 MSTORE PUSH1 0x24 PUSH1 0x0 REVERT JUMPDEST PUSH32 0x4E487B7100000000000000000000000000000000000000000000000000000000 PUSH1 0x0 MSTORE PUSH1 0x22 PUSH1 0x4 MSTORE PUSH1 0x24 PUSH1 0x0 REVERT JUMPDEST PUSH32 0x4E487B7100000000000000000000000000000000000000000000000000000000 PUSH1 0x0 MSTORE PUSH1 0x32 PUSH1 0x4 MSTORE PUSH1 0x24 PUSH1 0x0 REVERT JUMPDEST PUSH32 0x4E487B7100000000000000000000000000000000000000000000000000000000 PUSH1 0x0 MSTORE PUSH1 0x41 PUSH1 0x4 MSTORE PUSH1 0x24 PUSH1 0x0 REVERT JUMPDEST PUSH1 0x0 DUP1 REVERT JUMPDEST PUSH1 0x0 DUP1 REVERT JUMPDEST PUSH1 0x0 DUP1 REVERT JUMPDEST PUSH1 0x0 DUP1 REVERT JUMPDEST PUSH1 0x0 DUP1 REVERT JUMPDEST PUSH1 0x0 DUP1 REVERT JUMPDEST PUSH1 0x0 DUP1 REVERT JUMPDEST PUSH1 0x0 DUP1 REVERT JUMPDEST PUSH1 0x0 DUP1 REVERT JUMPDEST PUSH1 0x0 DUP1 REVERT JUMPDEST PUSH1 0x0 DUP1 REVERT JUMPDEST PUSH1 0x0 DUP1 REVERT JUMPDEST PUSH1 0x0 PUSH1 0x1F NOT PUSH1 0x1F DUP4 ADD AND SWAP1 POP SWAP2 SWAP1 POP JUMP JUMPDEST PUSH32 0x50726F706F73616C3A20696E6163746976650000000000000000000000000000 PUSH1 0x0 DUP3 ADD MSTORE POP JUMP JUMPDEST PUSH32 0x456E642074696D652073686F756C642062652067726561746572207468616E20 PUSH1 0x0 DUP3 ADD MSTORE PUSH32 0x63757272656E742074696D650000000000000000000000000000000000000000 PUSH1 0x20 DUP3 ADD MSTORE POP JUMP JUMPDEST PUSH32 0x45524332303A206275726E20616D6F756E7420657863656564732062616C616E PUSH1 0x0 DUP3 ADD MSTORE PUSH32 0x6365000000000000000000000000000000000000000000000000000000000000 PUSH1 0x20 DUP3 ADD MSTORE POP JUMP JUMPDEST PUSH32 0x616C726561647920766F74656400000000000000000000000000000000000000 PUSH1 0x0 DUP3 ADD MSTORE POP JUMP JUMPDEST PUSH32 0x50726F706F73616C3A20696E76616C69642063616E6469646174650000000000 PUSH1 0x0 DUP3 ADD MSTORE POP JUMP JUMPDEST PUSH32 0x6E6F7420612076616C69642070726F706F73616C000000000000000000000000 PUSH1 0x0 DUP3 ADD MSTORE POP JUMP JUMPDEST PUSH32 0x6E6F7420612076616C696420766F74657220666F7220746869732070726F706F PUSH1 0x0 DUP3 ADD MSTORE PUSH32 0x73616C0000000000000000000000000000000000000000000000000000000000 PUSH1 0x20 DUP3 ADD MSTORE POP JUMP JUMPDEST PUSH32 0x70726F706F73616C206E6F742073746172746564000000000000000000000000 PUSH1 0x0 DUP3 ADD MSTORE POP JUMP JUMPDEST PUSH32 0x4E6F7420612076616C696420766F74657220666F7220746869732070726F706F PUSH1 0x0 DUP3 ADD MSTORE PUSH32 0x73616C0000000000000000000000000000000000000000000000000000000000 PUSH1 0x20 DUP3 ADD MSTORE POP JUMP JUMPDEST PUSH32 0x696E76616C69642070726F706F73616C49640000000000000000000000000000 PUSH1 0x0 DUP3 ADD MSTORE POP JUMP JUMPDEST PUSH32 0x6E6F742073756666696369656E742062616C616E636520746F20636173742076 PUSH1 0x0 DUP3 ADD MSTORE PUSH32 0x6F74650000000000000000000000000000000000000000000000000000000000 PUSH1 0x20 DUP3 ADD MSTORE POP JUMP JUMPDEST PUSH32 0x456E642074696D652073686F756C642062652067726561746572207468616E20 PUSH1 0x0 DUP3 ADD MSTORE PUSH32 0x73746172742074696D6500000000000000000000000000000000000000000000 PUSH1 0x20 DUP3 ADD MSTORE POP JUMP JUMPDEST PUSH32 0x45524332303A206275726E2066726F6D20746865207A65726F20616464726573 PUSH1 0x0 DUP3 ADD MSTORE PUSH32 0x7300000000000000000000000000000000000000000000000000000000000000 PUSH1 0x20 DUP3 ADD MSTORE POP JUMP JUMPDEST PUSH32 0x50726F706F73616C20646F206E6F742065786973740000000000000000000000 PUSH1 0x0 DUP3 ADD MSTORE POP JUMP JUMPDEST PUSH32 0x6E6F7420612076616C6964206C656E677468206F66206861736820726573706F PUSH1 0x0 DUP3 ADD MSTORE PUSH32 0x6E73652100000000000000000000000000000000000000000000000000000000 PUSH1 0x20 DUP3 ADD MSTORE POP JUMP JUMPDEST PUSH32 0x6D696E7400000000000000000000000000000000000000000000000000000000 PUSH1 0x0 DUP3 ADD MSTORE POP JUMP JUMPDEST PUSH32 0x496E76616C696420766F74657220666F722070726F706F73616C496421000000 PUSH1 0x0 DUP3 ADD MSTORE POP JUMP JUMPDEST PUSH32 0x6275726E00000000000000000000000000000000000000000000000000000000 PUSH1 0x0 DUP3 ADD MSTORE POP JUMP JUMPDEST PUSH32 0x6E6F7420766F7465640000000000000000000000000000000000000000000000 PUSH1 0x0 DUP3 ADD MSTORE POP JUMP JUMPDEST PUSH32 0x45524332303A206D696E7420746F20746865207A65726F206164647265737300 PUSH1 0x0 DUP3 ADD MSTORE POP JUMP JUMPDEST PUSH2 0x3B3E DUP2 PUSH2 0x33F7 JUMP JUMPDEST DUP2 EQ PUSH2 0x3B49 JUMPI PUSH1 0x0 DUP1 REVERT JUMPDEST POP JUMP JUMPDEST PUSH2 0x3B55 DUP2 PUSH2 0x345F JUMP JUMPDEST DUP2 EQ PUSH2 0x3B60 JUMPI PUSH1 0x0 DUP1 REVERT JUMPDEST POP JUMP JUMPDEST PUSH2 0x3B6C DUP2 PUSH2 0x3469 JUMP JUMPDEST DUP2 EQ PUSH2 0x3B77 JUMPI PUSH1 0x0 DUP1 REVERT JUMPDEST POP JUMP INVALID LOG2 PUSH5 0x6970667358 0x22 SLT KECCAK256 0xD1 MOD SWAP10 PUSH2 0xD0A1 0xB6 SWAP12 0x5C 0xD0 0x4E 0xBF 0xE3 0xE9 CALLDATACOPY DUP11 BALANCE SMOD PUSH17 0x772D12932AB49FC7D8ABCAA86964736F6C PUSH4 0x43000807 STOP CALLER "
				},
				"gasEstimates": {
					"creation": {
						"codeDepositCost": "3056000",
						"executionCost": "infinite",
						"totalCost": "infinite"
					},
					"external": {
						"allVoters(address,uint256)": "infinite",
						"balanceOf(address)": "2841",
						"createProposal(uint8,address[],address,uint256,uint256,string,string[],uint256)": "infinite",
						"decimals()": "410",
						"mintOwner(uint256,address[],uint256)": "infinite",
						"name()": "infinite",
						"proposals(uint256)": "infinite",
						"responseProposal(uint256,address,string[],uint256[])": "infinite",
						"resultOfProposal(uint256)": "infinite",
						"symbol()": "infinite",
						"totalSupply()": "2482",
						"userProposal(address)": "infinite"
					}
				},
				"methodIdentifiers": {
					"allVoters(address,uint256)": "ab9c70d4",
					"balanceOf(address)": "70a08231",
					"createProposal(uint8,address[],address,uint256,uint256,string,string[],uint256)": "4de77e48",
					"decimals()": "313ce567",
					"mintOwner(uint256,address[],uint256)": "93d336aa",
					"name()": "06fdde03",
					"proposals(uint256)": "013cf08b",
					"responseProposal(uint256,address,string[],uint256[])": "5c230eee",
					"resultOfProposal(uint256)": "9d671564",
					"symbol()": "95d89b41",
					"totalSupply()": "18160ddd",
					"userProposal(address)": "e745d68e"
				}
			},
			"storageLayout": {
				"storage": [
					{
						"astId": 627,
						"contract": "Qvoting.sol:Qvoting",
						"label": "_balances",
						"offset": 0,
						"slot": "0",
						"type": "t_mapping(t_address,t_uint256)"
					},
					{
						"astId": 629,
						"contract": "Qvoting.sol:Qvoting",
						"label": "_totalSupply",
						"offset": 0,
						"slot": "1",
						"type": "t_uint256"
					},
					{
						"astId": 631,
						"contract": "Qvoting.sol:Qvoting",
						"label": "_name",
						"offset": 0,
						"slot": "2",
						"type": "t_string_storage"
					},
					{
						"astId": 633,
						"contract": "Qvoting.sol:Qvoting",
						"label": "_symbol",
						"offset": 0,
						"slot": "3",
						"type": "t_string_storage"
					},
					{
						"astId": 847,
						"contract": "Qvoting.sol:Qvoting",
						"label": "owner",
						"offset": 0,
						"slot": "4",
						"type": "t_address"
					},
					{
						"astId": 936,
						"contract": "Qvoting.sol:Qvoting",
						"label": "proposalId",
						"offset": 0,
						"slot": "5",
						"type": "t_uint256"
					},
					{
						"astId": 941,
						"contract": "Qvoting.sol:Qvoting",
						"label": "userProposal",
						"offset": 0,
						"slot": "6",
						"type": "t_mapping(t_address,t_struct(UserProposal)409_storage)"
					},
					{
						"astId": 946,
						"contract": "Qvoting.sol:Qvoting",
						"label": "proposals",
						"offset": 0,
						"slot": "7",
						"type": "t_mapping(t_uint256,t_struct(proposal)66_storage)"
					},
					{
						"astId": 953,
						"contract": "Qvoting.sol:Qvoting",
						"label": "allVoters",
						"offset": 0,
						"slot": "8",
						"type": "t_mapping(t_address,t_mapping(t_uint256,t_struct(voter)513_storage))"
					},
					{
						"astId": 957,
						"contract": "Qvoting.sol:Qvoting",
						"label": "validProposals",
						"offset": 0,
						"slot": "9",
						"type": "t_mapping(t_uint256,t_bool)"
					}
				],
				"types": {
					"t_address": {
						"encoding": "inplace",
						"label": "address",
						"numberOfBytes": "20"
					},
					"t_bool": {
						"encoding": "inplace",
						"label": "bool",
						"numberOfBytes": "1"
					},
					"t_mapping(t_address,t_bool)": {
						"encoding": "mapping",
						"key": "t_address",
						"label": "mapping(address => bool)",
						"numberOfBytes": "32",
						"value": "t_bool"
					},
					"t_mapping(t_address,t_mapping(t_uint256,t_struct(voter)513_storage))": {
						"encoding": "mapping",
						"key": "t_address",
						"label": "mapping(address => mapping(uint256 => struct voterLibrary.voter))",
						"numberOfBytes": "32",
						"value": "t_mapping(t_uint256,t_struct(voter)513_storage)"
					},
					"t_mapping(t_address,t_struct(UserProposal)409_storage)": {
						"encoding": "mapping",
						"key": "t_address",
						"label": "mapping(address => struct UserProposalLibrary.UserProposal)",
						"numberOfBytes": "32",
						"value": "t_struct(UserProposal)409_storage"
					},
					"t_mapping(t_address,t_uint256)": {
						"encoding": "mapping",
						"key": "t_address",
						"label": "mapping(address => uint256)",
						"numberOfBytes": "32",
						"value": "t_uint256"
					},
					"t_mapping(t_string_memory_ptr,t_bool)": {
						"encoding": "mapping",
						"key": "t_string_memory_ptr",
						"label": "mapping(string => bool)",
						"numberOfBytes": "32",
						"value": "t_bool"
					},
					"t_mapping(t_string_memory_ptr,t_uint256)": {
						"encoding": "mapping",
						"key": "t_string_memory_ptr",
						"label": "mapping(string => uint256)",
						"numberOfBytes": "32",
						"value": "t_uint256"
					},
					"t_mapping(t_uint128,t_uint256)": {
						"encoding": "mapping",
						"key": "t_uint128",
						"label": "mapping(uint128 => uint256)",
						"numberOfBytes": "32",
						"value": "t_uint256"
					},
					"t_mapping(t_uint256,t_bool)": {
						"encoding": "mapping",
						"key": "t_uint256",
						"label": "mapping(uint256 => bool)",
						"numberOfBytes": "32",
						"value": "t_bool"
					},
					"t_mapping(t_uint256,t_mapping(t_uint256,t_string_storage))": {
						"encoding": "mapping",
						"key": "t_uint256",
						"label": "mapping(uint256 => mapping(uint256 => string))",
						"numberOfBytes": "32",
						"value": "t_mapping(t_uint256,t_string_storage)"
					},
					"t_mapping(t_uint256,t_string_storage)": {
						"encoding": "mapping",
						"key": "t_uint256",
						"label": "mapping(uint256 => string)",
						"numberOfBytes": "32",
						"value": "t_string_storage"
					},
					"t_mapping(t_uint256,t_struct(proposal)66_storage)": {
						"encoding": "mapping",
						"key": "t_uint256",
						"label": "mapping(uint256 => struct proposalLibrary.proposal)",
						"numberOfBytes": "32",
						"value": "t_struct(proposal)66_storage"
					},
					"t_mapping(t_uint256,t_struct(voter)513_storage)": {
						"encoding": "mapping",
						"key": "t_uint256",
						"label": "mapping(uint256 => struct voterLibrary.voter)",
						"numberOfBytes": "32",
						"value": "t_struct(voter)513_storage"
					},
					"t_string_memory_ptr": {
						"encoding": "bytes",
						"label": "string",
						"numberOfBytes": "32"
					},
					"t_string_storage": {
						"encoding": "bytes",
						"label": "string",
						"numberOfBytes": "32"
					},
					"t_struct(UserProposal)409_storage": {
						"encoding": "inplace",
						"label": "struct UserProposalLibrary.UserProposal",
						"members": [
							{
								"astId": 388,
								"contract": "Qvoting.sol:Qvoting",
								"label": "proposalCount",
								"offset": 0,
								"slot": "0",
								"type": "t_uint128"
							},
							{
								"astId": 390,
								"contract": "Qvoting.sol:Qvoting",
								"label": "responseCount",
								"offset": 16,
								"slot": "0",
								"type": "t_uint128"
							},
							{
								"astId": 394,
								"contract": "Qvoting.sol:Qvoting",
								"label": "proposalCreated",
								"offset": 0,
								"slot": "1",
								"type": "t_mapping(t_uint128,t_uint256)"
							},
							{
								"astId": 398,
								"contract": "Qvoting.sol:Qvoting",
								"label": "proposalResponsed",
								"offset": 0,
								"slot": "2",
								"type": "t_mapping(t_uint128,t_uint256)"
							},
							{
								"astId": 404,
								"contract": "Qvoting.sol:Qvoting",
								"label": "proposalAnswer",
								"offset": 0,
								"slot": "3",
								"type": "t_mapping(t_uint256,t_mapping(t_uint256,t_string_storage))"
							},
							{
								"astId": 408,
								"contract": "Qvoting.sol:Qvoting",
								"label": "responsedProposal",
								"offset": 0,
								"slot": "4",
								"type": "t_mapping(t_uint256,t_bool)"
							}
						],
						"numberOfBytes": "160"
					},
					"t_struct(proposal)66_storage": {
						"encoding": "inplace",
						"label": "struct proposalLibrary.proposal",
						"members": [
							{
								"astId": 33,
								"contract": "Qvoting.sol:Qvoting",
								"label": "creator",
								"offset": 0,
								"slot": "0",
								"type": "t_address"
							},
							{
								"astId": 35,
								"contract": "Qvoting.sol:Qvoting",
								"label": "status",
								"offset": 20,
								"slot": "0",
								"type": "t_uint8"
							},
							{
								"astId": 37,
								"contract": "Qvoting.sol:Qvoting",
								"label": "disc",
								"offset": 0,
								"slot": "1",
								"type": "t_string_storage"
							},
							{
								"astId": 39,
								"contract": "Qvoting.sol:Qvoting",
								"label": "startTime",
								"offset": 0,
								"slot": "2",
								"type": "t_uint256"
							},
							{
								"astId": 41,
								"contract": "Qvoting.sol:Qvoting",
								"label": "expirationTime",
								"offset": 0,
								"slot": "3",
								"type": "t_uint256"
							},
							{
								"astId": 43,
								"contract": "Qvoting.sol:Qvoting",
								"label": "numOfOptions",
								"offset": 0,
								"slot": "4",
								"type": "t_uint16"
							},
							{
								"astId": 45,
								"contract": "Qvoting.sol:Qvoting",
								"label": "voteRight",
								"offset": 0,
								"slot": "5",
								"type": "t_uint256"
							},
							{
								"astId": 49,
								"contract": "Qvoting.sol:Qvoting",
								"label": "voters",
								"offset": 0,
								"slot": "6",
								"type": "t_mapping(t_address,t_bool)"
							},
							{
								"astId": 53,
								"contract": "Qvoting.sol:Qvoting",
								"label": "cand",
								"offset": 0,
								"slot": "7",
								"type": "t_mapping(t_string_memory_ptr,t_bool)"
							},
							{
								"astId": 57,
								"contract": "Qvoting.sol:Qvoting",
								"label": "candHash",
								"offset": 0,
								"slot": "8",
								"type": "t_mapping(t_uint256,t_string_storage)"
							},
							{
								"astId": 61,
								"contract": "Qvoting.sol:Qvoting",
								"label": "result",
								"offset": 0,
								"slot": "9",
								"type": "t_mapping(t_uint256,t_string_storage)"
							},
							{
								"astId": 65,
								"contract": "Qvoting.sol:Qvoting",
								"label": "votes",
								"offset": 0,
								"slot": "10",
								"type": "t_mapping(t_string_memory_ptr,t_uint256)"
							}
						],
						"numberOfBytes": "352"
					},
					"t_struct(voter)513_storage": {
						"encoding": "inplace",
						"label": "struct voterLibrary.voter",
						"members": [
							{
								"astId": 506,
								"contract": "Qvoting.sol:Qvoting",
								"label": "proposalId",
								"offset": 0,
								"slot": "0",
								"type": "t_uint256"
							},
							{
								"astId": 508,
								"contract": "Qvoting.sol:Qvoting",
								"label": "voterAddress",
								"offset": 0,
								"slot": "1",
								"type": "t_address"
							},
							{
								"astId": 510,
								"contract": "Qvoting.sol:Qvoting",
								"label": "hasVoted",
								"offset": 20,
								"slot": "1",
								"type": "t_bool"
							},
							{
								"astId": 512,
								"contract": "Qvoting.sol:Qvoting",
								"label": "voteNum",
								"offset": 0,
								"slot": "2",
								"type": "t_uint256"
							}
						],
						"numberOfBytes": "96"
					},
					"t_uint128": {
						"encoding": "inplace",
						"label": "uint128",
						"numberOfBytes": "16"
					},
					"t_uint16": {
						"encoding": "inplace",
						"label": "uint16",
						"numberOfBytes": "2"
					},
					"t_uint256": {
						"encoding": "inplace",
						"label": "uint256",
						"numberOfBytes": "32"
					},
					"t_uint8": {
						"encoding": "inplace",
						"label": "uint8",
						"numberOfBytes": "1"
					}
				}
			},
			"userdoc": {
				"kind": "user",
				"methods": {},
				"version": 1
			}
		}
	}
}