{
	"Qvoting.sol": {
		"Qvoting": {
			"abi": [
				{
					"anonymous": false,
					"inputs": [
						{
							"indexed": false,
							"internalType": "uint256",
							"name": "proposalId",
							"type": "uint256"
						},
						{
							"indexed": false,
							"internalType": "address[]",
							"name": "voters",
							"type": "address[]"
						},
						{
							"indexed": false,
							"internalType": "address",
							"name": "creator",
							"type": "address"
						},
						{
							"indexed": false,
							"internalType": "uint256",
							"name": "startTime",
							"type": "uint256"
						},
						{
							"indexed": false,
							"internalType": "uint256",
							"name": "expirationTime",
							"type": "uint256"
						},
						{
							"indexed": false,
							"internalType": "string",
							"name": "description",
							"type": "string"
						},
						{
							"indexed": false,
							"internalType": "string[]",
							"name": "_cand",
							"type": "string[]"
						}
					],
					"name": "ProposalCreated",
					"type": "event"
				},
				{
					"anonymous": false,
					"inputs": [
						{
							"indexed": false,
							"internalType": "address",
							"name": "voter",
							"type": "address"
						},
						{
							"indexed": false,
							"internalType": "uint256",
							"name": "ProposalID",
							"type": "uint256"
						},
						{
							"indexed": false,
							"internalType": "uint256[]",
							"name": "_tokens",
							"type": "uint256[]"
						}
					],
					"name": "VoteCasted",
					"type": "event"
				},
				{
					"anonymous": false,
					"inputs": [
						{
							"indexed": false,
							"internalType": "string",
							"name": "mintAndburn",
							"type": "string"
						},
						{
							"indexed": false,
							"internalType": "address",
							"name": "account",
							"type": "address"
						},
						{
							"indexed": false,
							"internalType": "uint256",
							"name": "amount",
							"type": "uint256"
						}
					],
					"name": "mintAndburn",
					"type": "event"
				},
				{
					"inputs": [
						{
							"internalType": "address",
							"name": "",
							"type": "address"
						},
						{
							"internalType": "uint256",
							"name": "",
							"type": "uint256"
						}
					],
					"name": "allVoters",
					"outputs": [
						{
							"internalType": "uint256",
							"name": "proposalId",
							"type": "uint256"
						},
						{
							"internalType": "address",
							"name": "voterAddress",
							"type": "address"
						},
						{
							"internalType": "bool",
							"name": "hasVoted",
							"type": "bool"
						},
						{
							"internalType": "uint256",
							"name": "voteNum",
							"type": "uint256"
						}
					],
					"stateMutability": "view",
					"type": "function"
				},
				{
					"inputs": [
						{
							"internalType": "address",
							"name": "account",
							"type": "address"
						}
					],
					"name": "balanceOf",
					"outputs": [
						{
							"internalType": "uint256",
							"name": "",
							"type": "uint256"
						}
					],
					"stateMutability": "view",
					"type": "function"
				},
				{
					"inputs": [
						{
							"internalType": "uint8",
							"name": "_status",
							"type": "uint8"
						},
						{
							"internalType": "address[]",
							"name": "_voters",
							"type": "address[]"
						},
						{
							"internalType": "address",
							"name": "_creator",
							"type": "address"
						},
						{
							"internalType": "uint256",
							"name": "_startTime",
							"type": "uint256"
						},
						{
							"internalType": "uint256",
							"name": "_expirationTime",
							"type": "uint256"
						},
						{
							"internalType": "string",
							"name": "_disc",
							"type": "string"
						},
						{
							"internalType": "string[]",
							"name": "_cand",
							"type": "string[]"
						},
						{
							"internalType": "uint256",
							"name": "_voteRight",
							"type": "uint256"
						}
					],
					"name": "createProposal",
					"outputs": [],
					"stateMutability": "nonpayable",
					"type": "function"
				},
				{
					"inputs": [],
					"name": "decimals",
					"outputs": [
						{
							"internalType": "uint8",
							"name": "",
							"type": "uint8"
						}
					],
					"stateMutability": "view",
					"type": "function"
				},
				{
					"inputs": [],
					"name": "name",
					"outputs": [
						{
							"internalType": "string",
							"name": "",
							"type": "string"
						}
					],
					"stateMutability": "view",
					"type": "function"
				},
				{
					"inputs": [
						{
							"internalType": "uint256",
							"name": "",
							"type": "uint256"
						}
					],
					"name": "proposals",
					"outputs": [
						{
							"internalType": "address",
							"name": "creator",
							"type": "address"
						},
						{
							"internalType": "uint8",
							"name": "status",
							"type": "uint8"
						},
						{
							"internalType": "string",
							"name": "disc",
							"type": "string"
						},
						{
							"internalType": "uint256",
							"name": "startTime",
							"type": "uint256"
						},
						{
							"internalType": "uint256",
							"name": "expirationTime",
							"type": "uint256"
						},
						{
							"internalType": "uint16",
							"name": "numOfOptions",
							"type": "uint16"
						},
						{
							"internalType": "uint256",
							"name": "voteRight",
							"type": "uint256"
						}
					],
					"stateMutability": "view",
					"type": "function"
				},
				{
					"inputs": [
						{
							"internalType": "uint256",
							"name": "_proposalId",
							"type": "uint256"
						},
						{
							"internalType": "address",
							"name": "_voter",
							"type": "address"
						},
						{
							"internalType": "string[]",
							"name": "_hash",
							"type": "string[]"
						},
						{
							"internalType": "uint256[]",
							"name": "v",
							"type": "uint256[]"
						}
					],
					"name": "responseProposal",
					"outputs": [],
					"stateMutability": "nonpayable",
					"type": "function"
				},
				{
					"inputs": [
						{
							"internalType": "uint256",
							"name": "_proposalId",
							"type": "uint256"
						}
					],
					"name": "resultOfProposal",
					"outputs": [
						{
							"internalType": "string",
							"name": "",
							"type": "string"
						}
					],
					"stateMutability": "nonpayable",
					"type": "function"
				},
				{
					"inputs": [],
					"name": "symbol",
					"outputs": [
						{
							"internalType": "string",
							"name": "",
							"type": "string"
						}
					],
					"stateMutability": "view",
					"type": "function"
				},
				{
					"inputs": [],
					"name": "totalSupply",
					"outputs": [
						{
							"internalType": "uint256",
							"name": "",
							"type": "uint256"
						}
					],
					"stateMutability": "view",
					"type": "function"
				},
				{
					"inputs": [
						{
							"internalType": "address",
							"name": "",
							"type": "address"
						}
					],
					"name": "userProposal",
					"outputs": [
						{
							"internalType": "uint128",
							"name": "proposalCount",
							"type": "uint128"
						},
						{
							"internalType": "uint128",
							"name": "responseCount",
							"type": "uint128"
						}
					],
					"stateMutability": "view",
					"type": "function"
				}
			],
			"devdoc": {
				"kind": "dev",
				"methods": {
					"balanceOf(address)": {
						"details": "See {IERC20-balanceOf}."
					},
					"decimals()": {
						"details": "Returns the number of decimals used to get its user representation. For example, if `decimals` equals `2`, a balance of `505` tokens should be displayed to a user as `5.05` (`505 / 10 ** 2`). Tokens usually opt for a value of 18, imitating the relationship between Ether and Wei. This is the value {ERC20} uses, unless this function is overridden; NOTE: This information is only used for _display_ purposes: it in no way affects any of the arithmetic of the contract, including {IERC20-balanceOf} and {IERC20-transfer}."
					},
					"name()": {
						"details": "Returns the name of the token."
					},
					"symbol()": {
						"details": "Returns the symbol of the token, usually a shorter version of the name."
					},
					"totalSupply()": {
						"details": "See {IERC20-totalSupply}."
					}
				},
				"version": 1
			},
			"evm": {
				"assembly": "    /* \"Qvoting.sol\":481:4896  contract Qvoting is proposalEvents, QVtoken{\r... */\n  mstore(0x40, 0x80)\n  callvalue\n  dup1\n  iszero\n  tag_1\n  jumpi\n  0x00\n  dup1\n  revert\ntag_1:\n  pop\n    /* \"QvToken/ERC20.sol\":2016:2132  constructor(string memory name_, string memory symbol_) {\r... */\n  mload(0x40)\n  dup1\n  0x40\n  add\n  0x40\n  mstore\n  dup1\n  0x0c\n  dup2\n  mstore\n  0x20\n  add\n  0x51566f74696e67546f6b656e0000000000000000000000000000000000000000\n  dup2\n  mstore\n  pop\n  mload(0x40)\n  dup1\n  0x40\n  add\n  0x40\n  mstore\n  dup1\n  0x02\n  dup2\n  mstore\n  0x20\n  add\n  0x5176000000000000000000000000000000000000000000000000000000000000\n  dup2\n  mstore\n  pop\n    /* \"QvToken/ERC20.sol\":2091:2096  name_ */\n  dup2\n    /* \"QvToken/ERC20.sol\":2083:2088  _name */\n  0x02\n    /* \"QvToken/ERC20.sol\":2083:2096  _name = name_ */\n  swap1\n  dup1\n  mload\n  swap1\n  0x20\n  add\n  swap1\n  tag_5\n  swap3\n  swap2\n  swap1\n  tag_6\n  jump\t// in\ntag_5:\n  pop\n    /* \"QvToken/ERC20.sol\":2117:2124  symbol_ */\n  dup1\n    /* \"QvToken/ERC20.sol\":2107:2114  _symbol */\n  0x03\n    /* \"QvToken/ERC20.sol\":2107:2124  _symbol = symbol_ */\n  swap1\n  dup1\n  mload\n  swap1\n  0x20\n  add\n  swap1\n  tag_7\n  swap3\n  swap2\n  swap1\n  tag_6\n  jump\t// in\ntag_7:\n  pop\n    /* \"QvToken/ERC20.sol\":2016:2132  constructor(string memory name_, string memory symbol_) {\r... */\n  pop\n  pop\n    /* \"QvToken/QvToken.sol\":280:290  msg.sender */\n  caller\n    /* \"QvToken/QvToken.sol\":272:277  owner */\n  0x04\n  0x00\n    /* \"QvToken/QvToken.sol\":272:290  owner = msg.sender */\n  0x0100\n  exp\n  dup2\n  sload\n  dup2\n  0xffffffffffffffffffffffffffffffffffffffff\n  mul\n  not\n  and\n  swap1\n  dup4\n  0xffffffffffffffffffffffffffffffffffffffff\n  and\n  mul\n  or\n  swap1\n  sstore\n  pop\n    /* \"Qvoting.sol\":481:4896  contract Qvoting is proposalEvents, QVtoken{\r... */\n  jump(tag_9)\ntag_6:\n  dup3\n  dup1\n  sload\n  tag_10\n  swap1\n  tag_11\n  jump\t// in\ntag_10:\n  swap1\n  0x00\n  mstore\n  keccak256(0x00, 0x20)\n  swap1\n  0x1f\n  add\n  0x20\n  swap1\n  div\n  dup2\n  add\n  swap3\n  dup3\n  tag_13\n  jumpi\n  0x00\n  dup6\n  sstore\n  jump(tag_12)\ntag_13:\n  dup3\n  0x1f\n  lt\n  tag_14\n  jumpi\n  dup1\n  mload\n  not(0xff)\n  and\n  dup4\n  dup1\n  add\n  or\n  dup6\n  sstore\n  jump(tag_12)\ntag_14:\n  dup3\n  dup1\n  add\n  0x01\n  add\n  dup6\n  sstore\n  dup3\n  iszero\n  tag_12\n  jumpi\n  swap2\n  dup3\n  add\ntag_15:\n  dup3\n  dup2\n  gt\n  iszero\n  tag_16\n  jumpi\n  dup3\n  mload\n  dup3\n  sstore\n  swap2\n  0x20\n  add\n  swap2\n  swap1\n  0x01\n  add\n  swap1\n  jump(tag_15)\ntag_16:\ntag_12:\n  pop\n  swap1\n  pop\n  tag_17\n  swap2\n  swap1\n  tag_18\n  jump\t// in\ntag_17:\n  pop\n  swap1\n  jump\t// out\ntag_18:\ntag_19:\n  dup1\n  dup3\n  gt\n  iszero\n  tag_20\n  jumpi\n  0x00\n  dup2\n  0x00\n  swap1\n  sstore\n  pop\n  0x01\n  add\n  jump(tag_19)\ntag_20:\n  pop\n  swap1\n  jump\t// out\n    /* \"#utility.yul\":7:327   */\ntag_11:\n    /* \"#utility.yul\":51:57   */\n  0x00\n    /* \"#utility.yul\":88:89   */\n  0x02\n    /* \"#utility.yul\":82:86   */\n  dup3\n    /* \"#utility.yul\":78:90   */\n  div\n    /* \"#utility.yul\":68:90   */\n  swap1\n  pop\n    /* \"#utility.yul\":135:136   */\n  0x01\n    /* \"#utility.yul\":129:133   */\n  dup3\n    /* \"#utility.yul\":125:137   */\n  and\n    /* \"#utility.yul\":156:174   */\n  dup1\n    /* \"#utility.yul\":146:227   */\n  tag_23\n  jumpi\n    /* \"#utility.yul\":212:216   */\n  0x7f\n    /* \"#utility.yul\":204:210   */\n  dup3\n    /* \"#utility.yul\":200:217   */\n  and\n    /* \"#utility.yul\":190:217   */\n  swap2\n  pop\n    /* \"#utility.yul\":146:227   */\ntag_23:\n    /* \"#utility.yul\":274:276   */\n  0x20\n    /* \"#utility.yul\":266:272   */\n  dup3\n    /* \"#utility.yul\":263:277   */\n  lt\n    /* \"#utility.yul\":243:261   */\n  dup2\n    /* \"#utility.yul\":240:278   */\n  eq\n    /* \"#utility.yul\":237:321   */\n  iszero\n  tag_24\n  jumpi\n    /* \"#utility.yul\":293:311   */\n  tag_25\n  tag_26\n  jump\t// in\ntag_25:\n    /* \"#utility.yul\":237:321   */\ntag_24:\n    /* \"#utility.yul\":58:327   */\n  pop\n    /* \"#utility.yul\":7:327   */\n  swap2\n  swap1\n  pop\n  jump\t// out\n    /* \"#utility.yul\":333:513   */\ntag_26:\n    /* \"#utility.yul\":381:458   */\n  0x4e487b7100000000000000000000000000000000000000000000000000000000\n    /* \"#utility.yul\":378:379   */\n  0x00\n    /* \"#utility.yul\":371:459   */\n  mstore\n    /* \"#utility.yul\":478:482   */\n  0x22\n    /* \"#utility.yul\":475:476   */\n  0x04\n    /* \"#utility.yul\":468:483   */\n  mstore\n    /* \"#utility.yul\":502:506   */\n  0x24\n    /* \"#utility.yul\":499:500   */\n  0x00\n    /* \"#utility.yul\":492:507   */\n  revert\n    /* \"Qvoting.sol\":481:4896  contract Qvoting is proposalEvents, QVtoken{\r... */\ntag_9:\n  dataSize(sub_0)\n  dup1\n  dataOffset(sub_0)\n  0x00\n  codecopy\n  0x00\n  return\nstop\n\nsub_0: assembly {\n        /* \"Qvoting.sol\":481:4896  contract Qvoting is proposalEvents, QVtoken{\r... */\n      mstore(0x40, 0x80)\n      callvalue\n      dup1\n      iszero\n      tag_1\n      jumpi\n      0x00\n      dup1\n      revert\n    tag_1:\n      pop\n      jumpi(tag_2, lt(calldatasize, 0x04))\n      shr(0xe0, calldataload(0x00))\n      dup1\n      0x5c230eee\n      gt\n      tag_14\n      jumpi\n      dup1\n      0x5c230eee\n      eq\n      tag_8\n      jumpi\n      dup1\n      0x70a08231\n      eq\n      tag_9\n      jumpi\n      dup1\n      0x95d89b41\n      eq\n      tag_10\n      jumpi\n      dup1\n      0x9d671564\n      eq\n      tag_11\n      jumpi\n      dup1\n      0xab9c70d4\n      eq\n      tag_12\n      jumpi\n      dup1\n      0xe745d68e\n      eq\n      tag_13\n      jumpi\n      jump(tag_2)\n    tag_14:\n      dup1\n      0x013cf08b\n      eq\n      tag_3\n      jumpi\n      dup1\n      0x06fdde03\n      eq\n      tag_4\n      jumpi\n      dup1\n      0x18160ddd\n      eq\n      tag_5\n      jumpi\n      dup1\n      0x313ce567\n      eq\n      tag_6\n      jumpi\n      dup1\n      0x4de77e48\n      eq\n      tag_7\n      jumpi\n    tag_2:\n      0x00\n      dup1\n      revert\n        /* \"Qvoting.sol\":1304:1362  mapping(uint => proposalLibrary.proposal) public proposals */\n    tag_3:\n      tag_15\n      0x04\n      dup1\n      calldatasize\n      sub\n      dup2\n      add\n      swap1\n      tag_16\n      swap2\n      swap1\n      tag_17\n      jump\t// in\n    tag_16:\n      tag_18\n      jump\t// in\n    tag_15:\n      mload(0x40)\n      tag_19\n      swap8\n      swap7\n      swap6\n      swap5\n      swap4\n      swap3\n      swap2\n      swap1\n      tag_20\n      jump\t// in\n    tag_19:\n      mload(0x40)\n      dup1\n      swap2\n      sub\n      swap1\n      return\n        /* \"QvToken/ERC20.sol\":2202:2302  function name() public view virtual override returns (string memory) {\r... */\n    tag_4:\n      tag_21\n      tag_22\n      jump\t// in\n    tag_21:\n      mload(0x40)\n      tag_23\n      swap2\n      swap1\n      tag_24\n      jump\t// in\n    tag_23:\n      mload(0x40)\n      dup1\n      swap2\n      sub\n      swap1\n      return\n        /* \"QvToken/ERC20.sol\":3322:3430  function totalSupply() public view virtual override returns (uint256) {\r... */\n    tag_5:\n      tag_25\n      tag_26\n      jump\t// in\n    tag_25:\n      mload(0x40)\n      tag_27\n      swap2\n      swap1\n      tag_28\n      jump\t// in\n    tag_27:\n      mload(0x40)\n      dup1\n      swap2\n      sub\n      swap1\n      return\n        /* \"QvToken/ERC20.sol\":3164:3257  function decimals() public view virtual override returns (uint8) {\r... */\n    tag_6:\n      tag_29\n      tag_30\n      jump\t// in\n    tag_29:\n      mload(0x40)\n      tag_31\n      swap2\n      swap1\n      tag_32\n      jump\t// in\n    tag_31:\n      mload(0x40)\n      dup1\n      swap2\n      sub\n      swap1\n      return\n        /* \"Qvoting.sol\":1965:3262  function createProposal(uint8 _status, address[] memory _voters, address _creator,\r... */\n    tag_7:\n      tag_33\n      0x04\n      dup1\n      calldatasize\n      sub\n      dup2\n      add\n      swap1\n      tag_34\n      swap2\n      swap1\n      tag_35\n      jump\t// in\n    tag_34:\n      tag_36\n      jump\t// in\n    tag_33:\n      stop\n        /* \"Qvoting.sol\":3270:4519  function responseProposal(uint _proposalId, address _voter, string[] memory _hash, uint[] memory v) external {\r... */\n    tag_8:\n      tag_37\n      0x04\n      dup1\n      calldatasize\n      sub\n      dup2\n      add\n      swap1\n      tag_38\n      swap2\n      swap1\n      tag_39\n      jump\t// in\n    tag_38:\n      tag_40\n      jump\t// in\n    tag_37:\n      stop\n        /* \"QvToken/ERC20.sol\":3493:3620  function balanceOf(address account) public view virtual override returns (uint256) {\r... */\n    tag_9:\n      tag_41\n      0x04\n      dup1\n      calldatasize\n      sub\n      dup2\n      add\n      swap1\n      tag_42\n      swap2\n      swap1\n      tag_43\n      jump\t// in\n    tag_42:\n      tag_44\n      jump\t// in\n    tag_41:\n      mload(0x40)\n      tag_45\n      swap2\n      swap1\n      tag_28\n      jump\t// in\n    tag_45:\n      mload(0x40)\n      dup1\n      swap2\n      sub\n      swap1\n      return\n        /* \"QvToken/ERC20.sol\":2421:2525  function symbol() public view virtual override returns (string memory) {\r... */\n    tag_10:\n      tag_46\n      tag_47\n      jump\t// in\n    tag_46:\n      mload(0x40)\n      tag_48\n      swap2\n      swap1\n      tag_24\n      jump\t// in\n    tag_48:\n      mload(0x40)\n      dup1\n      swap2\n      sub\n      swap1\n      return\n        /* \"Qvoting.sol\":4611:4891  function resultOfProposal(uint _proposalId) external returns(string memory){\r... */\n    tag_11:\n      tag_49\n      0x04\n      dup1\n      calldatasize\n      sub\n      dup2\n      add\n      swap1\n      tag_50\n      swap2\n      swap1\n      tag_17\n      jump\t// in\n    tag_50:\n      tag_51\n      jump\t// in\n    tag_49:\n      mload(0x40)\n      tag_52\n      swap2\n      swap1\n      tag_24\n      jump\t// in\n    tag_52:\n      mload(0x40)\n      dup1\n      swap2\n      sub\n      swap1\n      return\n        /* \"Qvoting.sol\":1400:1472  mapping(address => mapping(uint => voterLibrary.voter)) public allVoters */\n    tag_12:\n      tag_53\n      0x04\n      dup1\n      calldatasize\n      sub\n      dup2\n      add\n      swap1\n      tag_54\n      swap2\n      swap1\n      tag_55\n      jump\t// in\n    tag_54:\n      tag_56\n      jump\t// in\n    tag_53:\n      mload(0x40)\n      tag_57\n      swap5\n      swap4\n      swap3\n      swap2\n      swap1\n      tag_58\n      jump\t// in\n    tag_57:\n      mload(0x40)\n      dup1\n      swap2\n      sub\n      swap1\n      return\n        /* \"Qvoting.sol\":1201:1273  mapping(address => UserProposalLibrary.UserProposal) public userProposal */\n    tag_13:\n      tag_59\n      0x04\n      dup1\n      calldatasize\n      sub\n      dup2\n      add\n      swap1\n      tag_60\n      swap2\n      swap1\n      tag_43\n      jump\t// in\n    tag_60:\n      tag_61\n      jump\t// in\n    tag_59:\n      mload(0x40)\n      tag_62\n      swap3\n      swap2\n      swap1\n      tag_63\n      jump\t// in\n    tag_62:\n      mload(0x40)\n      dup1\n      swap2\n      sub\n      swap1\n      return\n        /* \"Qvoting.sol\":1304:1362  mapping(uint => proposalLibrary.proposal) public proposals */\n    tag_18:\n      mstore(0x20, 0x07)\n      dup1\n      0x00\n      mstore\n      keccak256(0x00, 0x40)\n      0x00\n      swap2\n      pop\n      swap1\n      pop\n      dup1\n      0x00\n      add\n      0x00\n      swap1\n      sload\n      swap1\n      0x0100\n      exp\n      swap1\n      div\n      0xffffffffffffffffffffffffffffffffffffffff\n      and\n      swap1\n      dup1\n      0x00\n      add\n      0x14\n      swap1\n      sload\n      swap1\n      0x0100\n      exp\n      swap1\n      div\n      0xff\n      and\n      swap1\n      dup1\n      0x01\n      add\n      dup1\n      sload\n      tag_64\n      swap1\n      tag_65\n      jump\t// in\n    tag_64:\n      dup1\n      0x1f\n      add\n      0x20\n      dup1\n      swap2\n      div\n      mul\n      0x20\n      add\n      mload(0x40)\n      swap1\n      dup2\n      add\n      0x40\n      mstore\n      dup1\n      swap3\n      swap2\n      swap1\n      dup2\n      dup2\n      mstore\n      0x20\n      add\n      dup3\n      dup1\n      sload\n      tag_66\n      swap1\n      tag_65\n      jump\t// in\n    tag_66:\n      dup1\n      iszero\n      tag_67\n      jumpi\n      dup1\n      0x1f\n      lt\n      tag_68\n      jumpi\n      0x0100\n      dup1\n      dup4\n      sload\n      div\n      mul\n      dup4\n      mstore\n      swap2\n      0x20\n      add\n      swap2\n      jump(tag_67)\n    tag_68:\n      dup3\n      add\n      swap2\n      swap1\n      0x00\n      mstore\n      keccak256(0x00, 0x20)\n      swap1\n    tag_69:\n      dup2\n      sload\n      dup2\n      mstore\n      swap1\n      0x01\n      add\n      swap1\n      0x20\n      add\n      dup1\n      dup4\n      gt\n      tag_69\n      jumpi\n      dup3\n      swap1\n      sub\n      0x1f\n      and\n      dup3\n      add\n      swap2\n    tag_67:\n      pop\n      pop\n      pop\n      pop\n      pop\n      swap1\n      dup1\n      0x02\n      add\n      sload\n      swap1\n      dup1\n      0x03\n      add\n      sload\n      swap1\n      dup1\n      0x04\n      add\n      0x00\n      swap1\n      sload\n      swap1\n      0x0100\n      exp\n      swap1\n      div\n      0xffff\n      and\n      swap1\n      dup1\n      0x05\n      add\n      sload\n      swap1\n      pop\n      dup8\n      jump\t// out\n        /* \"QvToken/ERC20.sol\":2202:2302  function name() public view virtual override returns (string memory) {\r... */\n    tag_22:\n        /* \"QvToken/ERC20.sol\":2256:2269  string memory */\n      0x60\n        /* \"QvToken/ERC20.sol\":2289:2294  _name */\n      0x02\n        /* \"QvToken/ERC20.sol\":2282:2294  return _name */\n      dup1\n      sload\n      tag_71\n      swap1\n      tag_65\n      jump\t// in\n    tag_71:\n      dup1\n      0x1f\n      add\n      0x20\n      dup1\n      swap2\n      div\n      mul\n      0x20\n      add\n      mload(0x40)\n      swap1\n      dup2\n      add\n      0x40\n      mstore\n      dup1\n      swap3\n      swap2\n      swap1\n      dup2\n      dup2\n      mstore\n      0x20\n      add\n      dup3\n      dup1\n      sload\n      tag_72\n      swap1\n      tag_65\n      jump\t// in\n    tag_72:\n      dup1\n      iszero\n      tag_73\n      jumpi\n      dup1\n      0x1f\n      lt\n      tag_74\n      jumpi\n      0x0100\n      dup1\n      dup4\n      sload\n      div\n      mul\n      dup4\n      mstore\n      swap2\n      0x20\n      add\n      swap2\n      jump(tag_73)\n    tag_74:\n      dup3\n      add\n      swap2\n      swap1\n      0x00\n      mstore\n      keccak256(0x00, 0x20)\n      swap1\n    tag_75:\n      dup2\n      sload\n      dup2\n      mstore\n      swap1\n      0x01\n      add\n      swap1\n      0x20\n      add\n      dup1\n      dup4\n      gt\n      tag_75\n      jumpi\n      dup3\n      swap1\n      sub\n      0x1f\n      and\n      dup3\n      add\n      swap2\n    tag_73:\n      pop\n      pop\n      pop\n      pop\n      pop\n      swap1\n      pop\n        /* \"QvToken/ERC20.sol\":2202:2302  function name() public view virtual override returns (string memory) {\r... */\n      swap1\n      jump\t// out\n        /* \"QvToken/ERC20.sol\":3322:3430  function totalSupply() public view virtual override returns (uint256) {\r... */\n    tag_26:\n        /* \"QvToken/ERC20.sol\":3383:3390  uint256 */\n      0x00\n        /* \"QvToken/ERC20.sol\":3410:3422  _totalSupply */\n      sload(0x01)\n        /* \"QvToken/ERC20.sol\":3403:3422  return _totalSupply */\n      swap1\n      pop\n        /* \"QvToken/ERC20.sol\":3322:3430  function totalSupply() public view virtual override returns (uint256) {\r... */\n      swap1\n      jump\t// out\n        /* \"QvToken/ERC20.sol\":3164:3257  function decimals() public view virtual override returns (uint8) {\r... */\n    tag_30:\n        /* \"QvToken/ERC20.sol\":3222:3227  uint8 */\n      0x00\n        /* \"QvToken/ERC20.sol\":3247:3249  18 */\n      0x12\n        /* \"QvToken/ERC20.sol\":3240:3249  return 18 */\n      swap1\n      pop\n        /* \"QvToken/ERC20.sol\":3164:3257  function decimals() public view virtual override returns (uint8) {\r... */\n      swap1\n      jump\t// out\n        /* \"Qvoting.sol\":1965:3262  function createProposal(uint8 _status, address[] memory _voters, address _creator,\r... */\n    tag_36:\n        /* \"Qvoting.sol\":2339:2349  _startTime */\n      dup6\n        /* \"Qvoting.sol\":2321:2336  block.timestamp */\n      timestamp\n        /* \"Qvoting.sol\":2321:2349  block.timestamp < _startTime */\n      lt\n        /* \"Qvoting.sol\":2313:2373  require(block.timestamp < _startTime,\"proposal not started\") */\n      tag_79\n      jumpi\n      mload(0x40)\n      0x08c379a000000000000000000000000000000000000000000000000000000000\n      dup2\n      mstore\n      0x04\n      add\n      tag_80\n      swap1\n      tag_81\n      jump\t// in\n    tag_80:\n      mload(0x40)\n      dup1\n      swap2\n      sub\n      swap1\n      revert\n    tag_79:\n        /* \"Qvoting.sol\":2410:2425  _expirationTime */\n      dup5\n        /* \"Qvoting.sol\":2392:2407  block.timestamp */\n      timestamp\n        /* \"Qvoting.sol\":2392:2425  block.timestamp < _expirationTime */\n      lt\n        /* \"Qvoting.sol\":2384:2473  require(block.timestamp < _expirationTime,\"End time should be greater than current time\") */\n      tag_82\n      jumpi\n      mload(0x40)\n      0x08c379a000000000000000000000000000000000000000000000000000000000\n      dup2\n      mstore\n      0x04\n      add\n      tag_83\n      swap1\n      tag_84\n      jump\t// in\n    tag_83:\n      mload(0x40)\n      dup1\n      swap2\n      sub\n      swap1\n      revert\n    tag_82:\n        /* \"Qvoting.sol\":2505:2520  _expirationTime */\n      dup5\n        /* \"Qvoting.sol\":2492:2502  _startTime */\n      dup7\n        /* \"Qvoting.sol\":2492:2520  _startTime < _expirationTime */\n      lt\n        /* \"Qvoting.sol\":2484:2566  require(_startTime < _expirationTime,\"End time should be greater than start time\") */\n      tag_85\n      jumpi\n      mload(0x40)\n      0x08c379a000000000000000000000000000000000000000000000000000000000\n      dup2\n      mstore\n      0x04\n      add\n      tag_86\n      swap1\n      tag_87\n      jump\t// in\n    tag_86:\n      mload(0x40)\n      dup1\n      swap2\n      sub\n      swap1\n      revert\n    tag_85:\n        /* \"Qvoting.sol\":2579:2589  proposalId */\n      0x05\n      0x00\n        /* \"Qvoting.sol\":2579:2591  proposalId++ */\n      dup2\n      sload\n      dup1\n      swap3\n      swap2\n      swap1\n      tag_88\n      swap1\n      tag_89\n      jump\t// in\n    tag_88:\n      swap2\n      swap1\n      pop\n      sstore\n      pop\n        /* \"Qvoting.sol\":2602:2714  proposals[proposalId].createProposal(_status,_voters,_creator,_startTime,_expirationTime,_disc,_voteRight,_cand) */\n      tag_90\n        /* \"Qvoting.sol\":2639:2646  _status */\n      dup10\n        /* \"Qvoting.sol\":2647:2654  _voters */\n      dup10\n        /* \"Qvoting.sol\":2655:2663  _creator */\n      dup10\n        /* \"Qvoting.sol\":2664:2674  _startTime */\n      dup10\n        /* \"Qvoting.sol\":2675:2690  _expirationTime */\n      dup10\n        /* \"Qvoting.sol\":2691:2696  _disc */\n      dup10\n        /* \"Qvoting.sol\":2697:2707  _voteRight */\n      dup8\n        /* \"Qvoting.sol\":2708:2713  _cand */\n      dup11\n      dup11\n        /* \"Qvoting.sol\":2602:2611  proposals */\n      0x07\n        /* \"Qvoting.sol\":2602:2623  proposals[proposalId] */\n      0x00\n        /* \"Qvoting.sol\":2612:2622  proposalId */\n      sload(0x05)\n        /* \"Qvoting.sol\":2602:2623  proposals[proposalId] */\n      dup2\n      mstore\n      0x20\n      add\n      swap1\n      dup2\n      mstore\n      0x20\n      add\n      0x00\n      keccak256\n        /* \"Qvoting.sol\":2602:2638  proposals[proposalId].createProposal */\n      tag_91\n      swap1\n        /* \"Qvoting.sol\":2602:2714  proposals[proposalId].createProposal(_status,_voters,_creator,_startTime,_expirationTime,_disc,_voteRight,_cand) */\n      swap10\n      swap9\n      swap8\n      swap7\n      swap6\n      swap5\n      swap4\n      swap3\n      swap2\n      swap1\n      0xffffffff\n      and\n      jump\t// in\n    tag_90:\n      pop\n        /* \"Qvoting.sol\":2730:2814  ProposalCreated(proposalId, _voters,_creator,_startTime,_expirationTime,_disc,_cand) */\n      0x239a8a71a7d1cb0d134f6cc072ad6390e36a88c8e78dff69013ee79528441e80\n        /* \"Qvoting.sol\":2746:2756  proposalId */\n      sload(0x05)\n        /* \"Qvoting.sol\":2758:2765  _voters */\n      dup10\n        /* \"Qvoting.sol\":2766:2774  _creator */\n      dup10\n        /* \"Qvoting.sol\":2775:2785  _startTime */\n      dup10\n        /* \"Qvoting.sol\":2786:2801  _expirationTime */\n      dup10\n        /* \"Qvoting.sol\":2802:2807  _disc */\n      dup10\n        /* \"Qvoting.sol\":2808:2813  _cand */\n      dup10\n      dup10\n        /* \"Qvoting.sol\":2730:2814  ProposalCreated(proposalId, _voters,_creator,_startTime,_expirationTime,_disc,_cand) */\n      mload(0x40)\n      tag_92\n      swap9\n      swap8\n      swap7\n      swap6\n      swap5\n      swap4\n      swap3\n      swap2\n      swap1\n      tag_93\n      jump\t// in\n    tag_92:\n      mload(0x40)\n      dup1\n      swap2\n      sub\n      swap1\n      log1\n        /* \"Qvoting.sol\":2854:2858  true */\n      0x01\n        /* \"Qvoting.sol\":2825:2839  validProposals */\n      0x09\n        /* \"Qvoting.sol\":2825:2851  validProposals[proposalId] */\n      0x00\n        /* \"Qvoting.sol\":2840:2850  proposalId */\n      sload(0x05)\n        /* \"Qvoting.sol\":2825:2851  validProposals[proposalId] */\n      dup2\n      mstore\n      0x20\n      add\n      swap1\n      dup2\n      mstore\n      0x20\n      add\n      0x00\n      keccak256\n      0x00\n        /* \"Qvoting.sol\":2825:2858  validProposals[proposalId] = true */\n      0x0100\n      exp\n      dup2\n      sload\n      dup2\n      0xff\n      mul\n      not\n      and\n      swap1\n      dup4\n      iszero\n      iszero\n      mul\n      or\n      swap1\n      sstore\n      pop\n        /* \"Qvoting.sol\":2930:2939  uint256 i */\n      0x00\n        /* \"Qvoting.sol\":2926:3185  for(uint256 i=0;i<_voters.length;i++){\r... */\n    tag_94:\n        /* \"Qvoting.sol\":2944:2951  _voters */\n      dup9\n        /* \"Qvoting.sol\":2944:2958  _voters.length */\n      mload\n        /* \"Qvoting.sol\":2942:2943  i */\n      dup2\n        /* \"Qvoting.sol\":2942:2958  i<_voters.length */\n      lt\n        /* \"Qvoting.sol\":2926:3185  for(uint256 i=0;i<_voters.length;i++){\r... */\n      iszero\n      tag_95\n      jumpi\n        /* \"Qvoting.sol\":2978:3005  mint(_voters[i],_voteRight) */\n      tag_97\n        /* \"Qvoting.sol\":2983:2990  _voters */\n      dup10\n        /* \"Qvoting.sol\":2991:2992  i */\n      dup3\n        /* \"Qvoting.sol\":2983:2993  _voters[i] */\n      dup2\n      mload\n      dup2\n      lt\n      tag_98\n      jumpi\n      tag_99\n      tag_100\n      jump\t// in\n    tag_99:\n    tag_98:\n      0x20\n      mul\n      0x20\n      add\n      add\n      mload\n        /* \"Qvoting.sol\":2994:3004  _voteRight */\n      dup4\n        /* \"Qvoting.sol\":2978:2982  mint */\n      tag_101\n        /* \"Qvoting.sol\":2978:3005  mint(_voters[i],_voteRight) */\n      jump\t// in\n    tag_97:\n        /* \"Qvoting.sol\":3020:3108  allVoters[_voters[i]][proposalId].createVoter(proposalId, _voters[i], false, _voteRight) */\n      tag_102\n        /* \"Qvoting.sol\":3066:3076  proposalId */\n      sload(0x05)\n        /* \"Qvoting.sol\":3078:3085  _voters */\n      dup11\n        /* \"Qvoting.sol\":3086:3087  i */\n      dup4\n        /* \"Qvoting.sol\":3078:3088  _voters[i] */\n      dup2\n      mload\n      dup2\n      lt\n      tag_103\n      jumpi\n      tag_104\n      tag_100\n      jump\t// in\n    tag_104:\n    tag_103:\n      0x20\n      mul\n      0x20\n      add\n      add\n      mload\n        /* \"Qvoting.sol\":3090:3095  false */\n      0x00\n        /* \"Qvoting.sol\":3097:3107  _voteRight */\n      dup6\n        /* \"Qvoting.sol\":3020:3029  allVoters */\n      0x08\n        /* \"Qvoting.sol\":3020:3041  allVoters[_voters[i]] */\n      0x00\n        /* \"Qvoting.sol\":3030:3037  _voters */\n      dup16\n        /* \"Qvoting.sol\":3038:3039  i */\n      dup9\n        /* \"Qvoting.sol\":3030:3040  _voters[i] */\n      dup2\n      mload\n      dup2\n      lt\n      tag_105\n      jumpi\n      tag_106\n      tag_100\n      jump\t// in\n    tag_106:\n    tag_105:\n      0x20\n      mul\n      0x20\n      add\n      add\n      mload\n        /* \"Qvoting.sol\":3020:3041  allVoters[_voters[i]] */\n      0xffffffffffffffffffffffffffffffffffffffff\n      and\n      0xffffffffffffffffffffffffffffffffffffffff\n      and\n      dup2\n      mstore\n      0x20\n      add\n      swap1\n      dup2\n      mstore\n      0x20\n      add\n      0x00\n      keccak256\n        /* \"Qvoting.sol\":3020:3053  allVoters[_voters[i]][proposalId] */\n      0x00\n        /* \"Qvoting.sol\":3042:3052  proposalId */\n      sload(0x05)\n        /* \"Qvoting.sol\":3020:3053  allVoters[_voters[i]][proposalId] */\n      dup2\n      mstore\n      0x20\n      add\n      swap1\n      dup2\n      mstore\n      0x20\n      add\n      0x00\n      keccak256\n        /* \"Qvoting.sol\":3020:3065  allVoters[_voters[i]][proposalId].createVoter */\n      tag_107\n      swap1\n        /* \"Qvoting.sol\":3020:3108  allVoters[_voters[i]][proposalId].createVoter(proposalId, _voters[i], false, _voteRight) */\n      swap5\n      swap4\n      swap3\n      swap2\n      swap1\n      0xffffffff\n      and\n      jump\t// in\n    tag_102:\n      pop\n        /* \"Qvoting.sol\":3128:3169  mintAndburn(\"mint\",_voters[i],_voteRight) */\n      0xabf5327be9f5825c40d58bda541dd07f09b62df3376bbd5ecdbaa8bd82a9d492\n        /* \"Qvoting.sol\":3147:3154  _voters */\n      dup10\n        /* \"Qvoting.sol\":3155:3156  i */\n      dup3\n        /* \"Qvoting.sol\":3147:3157  _voters[i] */\n      dup2\n      mload\n      dup2\n      lt\n      tag_108\n      jumpi\n      tag_109\n      tag_100\n      jump\t// in\n    tag_109:\n    tag_108:\n      0x20\n      mul\n      0x20\n      add\n      add\n      mload\n        /* \"Qvoting.sol\":3158:3168  _voteRight */\n      dup4\n        /* \"Qvoting.sol\":3128:3169  mintAndburn(\"mint\",_voters[i],_voteRight) */\n      mload(0x40)\n      tag_110\n      swap3\n      swap2\n      swap1\n      tag_111\n      jump\t// in\n    tag_110:\n      mload(0x40)\n      dup1\n      swap2\n      sub\n      swap1\n      log1\n        /* \"Qvoting.sol\":2959:2962  i++ */\n      dup1\n      dup1\n      tag_112\n      swap1\n      tag_89\n      jump\t// in\n    tag_112:\n      swap2\n      pop\n      pop\n        /* \"Qvoting.sol\":2926:3185  for(uint256 i=0;i<_voters.length;i++){\r... */\n      jump(tag_94)\n    tag_95:\n      pop\n        /* \"Qvoting.sol\":3197:3254  userProposal[_msgSender()].updateProposalList(proposalId) */\n      tag_113\n        /* \"Qvoting.sol\":3243:3253  proposalId */\n      sload(0x05)\n        /* \"Qvoting.sol\":3197:3209  userProposal */\n      0x06\n        /* \"Qvoting.sol\":3197:3223  userProposal[_msgSender()] */\n      0x00\n        /* \"Qvoting.sol\":3210:3222  _msgSender() */\n      tag_114\n        /* \"Qvoting.sol\":3210:3220  _msgSender */\n      tag_115\n        /* \"Qvoting.sol\":3210:3222  _msgSender() */\n      jump\t// in\n    tag_114:\n        /* \"Qvoting.sol\":3197:3223  userProposal[_msgSender()] */\n      0xffffffffffffffffffffffffffffffffffffffff\n      and\n      0xffffffffffffffffffffffffffffffffffffffff\n      and\n      dup2\n      mstore\n      0x20\n      add\n      swap1\n      dup2\n      mstore\n      0x20\n      add\n      0x00\n      keccak256\n        /* \"Qvoting.sol\":3197:3242  userProposal[_msgSender()].updateProposalList */\n      tag_116\n      swap1\n        /* \"Qvoting.sol\":3197:3254  userProposal[_msgSender()].updateProposalList(proposalId) */\n      swap2\n      swap1\n      0xffffffff\n      and\n      jump\t// in\n    tag_113:\n      pop\n        /* \"Qvoting.sol\":1965:3262  function createProposal(uint8 _status, address[] memory _voters, address _creator,\r... */\n      pop\n      pop\n      pop\n      pop\n      pop\n      pop\n      pop\n      pop\n      pop\n      jump\t// out\n        /* \"Qvoting.sol\":3270:4519  function responseProposal(uint _proposalId, address _voter, string[] memory _hash, uint[] memory v) external {\r... */\n    tag_40:\n        /* \"Qvoting.sol\":3493:3507  validProposals */\n      0x09\n        /* \"Qvoting.sol\":3493:3520  validProposals[_proposalId] */\n      0x00\n        /* \"Qvoting.sol\":3508:3519  _proposalId */\n      dup6\n        /* \"Qvoting.sol\":3493:3520  validProposals[_proposalId] */\n      dup2\n      mstore\n      0x20\n      add\n      swap1\n      dup2\n      mstore\n      0x20\n      add\n      0x00\n      keccak256\n      0x00\n      swap1\n      sload\n      swap1\n      0x0100\n      exp\n      swap1\n      div\n      0xff\n      and\n        /* \"Qvoting.sol\":3485:3542  require(validProposals[_proposalId],\"invalid proposalId\") */\n      tag_118\n      jumpi\n      mload(0x40)\n      0x08c379a000000000000000000000000000000000000000000000000000000000\n      dup2\n      mstore\n      0x04\n      add\n      tag_119\n      swap1\n      tag_120\n      jump\t// in\n    tag_119:\n      mload(0x40)\n      dup1\n      swap2\n      sub\n      swap1\n      revert\n    tag_118:\n        /* \"Qvoting.sol\":3606:3617  _proposalId */\n      dup4\n        /* \"Qvoting.sol\":3561:3570  allVoters */\n      0x08\n        /* \"Qvoting.sol\":3561:3578  allVoters[_voter] */\n      0x00\n        /* \"Qvoting.sol\":3571:3577  _voter */\n      dup6\n        /* \"Qvoting.sol\":3561:3578  allVoters[_voter] */\n      0xffffffffffffffffffffffffffffffffffffffff\n      and\n      0xffffffffffffffffffffffffffffffffffffffff\n      and\n      dup2\n      mstore\n      0x20\n      add\n      swap1\n      dup2\n      mstore\n      0x20\n      add\n      0x00\n      keccak256\n        /* \"Qvoting.sol\":3561:3591  allVoters[_voter][_proposalId] */\n      0x00\n        /* \"Qvoting.sol\":3579:3590  _proposalId */\n      dup7\n        /* \"Qvoting.sol\":3561:3591  allVoters[_voter][_proposalId] */\n      dup2\n      mstore\n      0x20\n      add\n      swap1\n      dup2\n      mstore\n      0x20\n      add\n      0x00\n      keccak256\n        /* \"Qvoting.sol\":3561:3602  allVoters[_voter][_proposalId].proposalId */\n      0x00\n      add\n      sload\n        /* \"Qvoting.sol\":3561:3617  allVoters[_voter][_proposalId].proposalId == _proposalId */\n      eq\n        /* \"Qvoting.sol\":3553:3657  require(allVoters[_voter][_proposalId].proposalId == _proposalId, \"not a valid voter for this proposal\") */\n      tag_121\n      jumpi\n      mload(0x40)\n      0x08c379a000000000000000000000000000000000000000000000000000000000\n      dup2\n      mstore\n      0x04\n      add\n      tag_122\n      swap1\n      tag_123\n      jump\t// in\n    tag_122:\n      mload(0x40)\n      dup1\n      swap2\n      sub\n      swap1\n      revert\n    tag_121:\n        /* \"Qvoting.sol\":3738:3747  allVoters */\n      0x08\n        /* \"Qvoting.sol\":3738:3755  allVoters[_voter] */\n      0x00\n        /* \"Qvoting.sol\":3748:3754  _voter */\n      dup5\n        /* \"Qvoting.sol\":3738:3755  allVoters[_voter] */\n      0xffffffffffffffffffffffffffffffffffffffff\n      and\n      0xffffffffffffffffffffffffffffffffffffffff\n      and\n      dup2\n      mstore\n      0x20\n      add\n      swap1\n      dup2\n      mstore\n      0x20\n      add\n      0x00\n      keccak256\n        /* \"Qvoting.sol\":3738:3768  allVoters[_voter][_proposalId] */\n      0x00\n        /* \"Qvoting.sol\":3756:3767  _proposalId */\n      dup6\n        /* \"Qvoting.sol\":3738:3768  allVoters[_voter][_proposalId] */\n      dup2\n      mstore\n      0x20\n      add\n      swap1\n      dup2\n      mstore\n      0x20\n      add\n      0x00\n      keccak256\n        /* \"Qvoting.sol\":3738:3777  allVoters[_voter][_proposalId].hasVoted */\n      0x01\n      add\n      0x14\n      swap1\n      sload\n      swap1\n      0x0100\n      exp\n      swap1\n      div\n      0xff\n      and\n        /* \"Qvoting.sol\":3737:3777  !allVoters[_voter][_proposalId].hasVoted */\n      iszero\n        /* \"Qvoting.sol\":3729:3795  require(!allVoters[_voter][_proposalId].hasVoted, \"already voted\") */\n      tag_124\n      jumpi\n      mload(0x40)\n      0x08c379a000000000000000000000000000000000000000000000000000000000\n      dup2\n      mstore\n      0x04\n      add\n      tag_125\n      swap1\n      tag_126\n      jump\t// in\n    tag_125:\n      mload(0x40)\n      dup1\n      swap2\n      sub\n      swap1\n      revert\n    tag_124:\n        /* \"Qvoting.sol\":3852:3857  _hash */\n      dup2\n        /* \"Qvoting.sol\":3852:3864  _hash.length */\n      mload\n        /* \"Qvoting.sol\":3814:3823  proposals */\n      0x07\n        /* \"Qvoting.sol\":3814:3836  proposals[_proposalId] */\n      0x00\n        /* \"Qvoting.sol\":3824:3835  _proposalId */\n      dup7\n        /* \"Qvoting.sol\":3814:3836  proposals[_proposalId] */\n      dup2\n      mstore\n      0x20\n      add\n      swap1\n      dup2\n      mstore\n      0x20\n      add\n      0x00\n      keccak256\n        /* \"Qvoting.sol\":3814:3849  proposals[_proposalId].numOfOptions */\n      0x04\n      add\n      0x00\n      swap1\n      sload\n      swap1\n      0x0100\n      exp\n      swap1\n      div\n      0xffff\n      and\n        /* \"Qvoting.sol\":3814:3864  proposals[_proposalId].numOfOptions ==_hash.length */\n      0xffff\n      and\n      eq\n        /* \"Qvoting.sol\":3806:3905  require(proposals[_proposalId].numOfOptions ==_hash.length, \"not a valid length of hash response!\") */\n      tag_127\n      jumpi\n      mload(0x40)\n      0x08c379a000000000000000000000000000000000000000000000000000000000\n      dup2\n      mstore\n      0x04\n      add\n      tag_128\n      swap1\n      tag_129\n      jump\t// in\n    tag_128:\n      mload(0x40)\n      dup1\n      swap2\n      sub\n      swap1\n      revert\n    tag_127:\n        /* \"Qvoting.sol\":3916:3924  uint sum */\n      0x00\n        /* \"Qvoting.sol\":3941:3947  uint i */\n      dup1\n        /* \"Qvoting.sol\":3937:4006  for(uint i=0;i<v.length;i++){\r... */\n    tag_130:\n        /* \"Qvoting.sol\":3952:3953  v */\n      dup3\n        /* \"Qvoting.sol\":3952:3960  v.length */\n      mload\n        /* \"Qvoting.sol\":3950:3951  i */\n      dup2\n        /* \"Qvoting.sol\":3950:3960  i<v.length */\n      lt\n        /* \"Qvoting.sol\":3937:4006  for(uint i=0;i<v.length;i++){\r... */\n      iszero\n      tag_131\n      jumpi\n        /* \"Qvoting.sol\":3990:3991  v */\n      dup3\n        /* \"Qvoting.sol\":3992:3993  i */\n      dup2\n        /* \"Qvoting.sol\":3990:3994  v[i] */\n      dup2\n      mload\n      dup2\n      lt\n      tag_133\n      jumpi\n      tag_134\n      tag_100\n      jump\t// in\n    tag_134:\n    tag_133:\n      0x20\n      mul\n      0x20\n      add\n      add\n      mload\n        /* \"Qvoting.sol\":3985:3986  v */\n      dup4\n        /* \"Qvoting.sol\":3987:3988  i */\n      dup3\n        /* \"Qvoting.sol\":3985:3989  v[i] */\n      dup2\n      mload\n      dup2\n      lt\n      tag_135\n      jumpi\n      tag_136\n      tag_100\n      jump\t// in\n    tag_136:\n    tag_135:\n      0x20\n      mul\n      0x20\n      add\n      add\n      mload\n        /* \"Qvoting.sol\":3985:3994  v[i]*v[i] */\n      tag_137\n      swap2\n      swap1\n      tag_138\n      jump\t// in\n    tag_137:\n        /* \"Qvoting.sol\":3980:3994  sum+=v[i]*v[i] */\n      dup3\n      tag_139\n      swap2\n      swap1\n      tag_140\n      jump\t// in\n    tag_139:\n      swap2\n      pop\n        /* \"Qvoting.sol\":3961:3964  i++ */\n      dup1\n      dup1\n      tag_141\n      swap1\n      tag_89\n      jump\t// in\n    tag_141:\n      swap2\n      pop\n      pop\n        /* \"Qvoting.sol\":3937:4006  for(uint i=0;i<v.length;i++){\r... */\n      jump(tag_130)\n    tag_131:\n      pop\n        /* \"Qvoting.sol\":4066:4069  sum */\n      dup1\n        /* \"Qvoting.sol\":4024:4033  allVoters */\n      0x08\n        /* \"Qvoting.sol\":4024:4041  allVoters[_voter] */\n      0x00\n        /* \"Qvoting.sol\":4034:4040  _voter */\n      dup7\n        /* \"Qvoting.sol\":4024:4041  allVoters[_voter] */\n      0xffffffffffffffffffffffffffffffffffffffff\n      and\n      0xffffffffffffffffffffffffffffffffffffffff\n      and\n      dup2\n      mstore\n      0x20\n      add\n      swap1\n      dup2\n      mstore\n      0x20\n      add\n      0x00\n      keccak256\n        /* \"Qvoting.sol\":4024:4054  allVoters[_voter][_proposalId] */\n      0x00\n        /* \"Qvoting.sol\":4042:4053  _proposalId */\n      dup8\n        /* \"Qvoting.sol\":4024:4054  allVoters[_voter][_proposalId] */\n      dup2\n      mstore\n      0x20\n      add\n      swap1\n      dup2\n      mstore\n      0x20\n      add\n      0x00\n      keccak256\n        /* \"Qvoting.sol\":4024:4062  allVoters[_voter][_proposalId].voteNum */\n      0x02\n      add\n      sload\n        /* \"Qvoting.sol\":4024:4069  allVoters[_voter][_proposalId].voteNum >= sum */\n      lt\n      iszero\n        /* \"Qvoting.sol\":4016:4109  require(allVoters[_voter][_proposalId].voteNum >= sum, \"not sufficient balance to cast vote\") */\n      tag_142\n      jumpi\n      mload(0x40)\n      0x08c379a000000000000000000000000000000000000000000000000000000000\n      dup2\n      mstore\n      0x04\n      add\n      tag_143\n      swap1\n      tag_144\n      jump\t// in\n    tag_143:\n      mload(0x40)\n      dup1\n      swap2\n      sub\n      swap1\n      revert\n    tag_142:\n        /* \"Qvoting.sol\":4122:4178  proposals[_proposalId].responseProposal(_voter,_hash, v) */\n      tag_145\n        /* \"Qvoting.sol\":4162:4168  _voter */\n      dup5\n        /* \"Qvoting.sol\":4169:4174  _hash */\n      dup5\n        /* \"Qvoting.sol\":4176:4177  v */\n      dup5\n        /* \"Qvoting.sol\":4122:4131  proposals */\n      0x07\n        /* \"Qvoting.sol\":4122:4144  proposals[_proposalId] */\n      0x00\n        /* \"Qvoting.sol\":4132:4143  _proposalId */\n      dup11\n        /* \"Qvoting.sol\":4122:4144  proposals[_proposalId] */\n      dup2\n      mstore\n      0x20\n      add\n      swap1\n      dup2\n      mstore\n      0x20\n      add\n      0x00\n      keccak256\n        /* \"Qvoting.sol\":4122:4161  proposals[_proposalId].responseProposal */\n      tag_146\n      swap1\n        /* \"Qvoting.sol\":4122:4178  proposals[_proposalId].responseProposal(_voter,_hash, v) */\n      swap4\n      swap3\n      swap2\n      swap1\n      0xffffffff\n      and\n      jump\t// in\n    tag_145:\n      pop\n        /* \"Qvoting.sol\":4189:4254  userProposal[_msgSender()].updateResponseList(_proposalId, _hash) */\n      tag_147\n        /* \"Qvoting.sol\":4235:4246  _proposalId */\n      dup6\n        /* \"Qvoting.sol\":4248:4253  _hash */\n      dup5\n        /* \"Qvoting.sol\":4189:4201  userProposal */\n      0x06\n        /* \"Qvoting.sol\":4189:4215  userProposal[_msgSender()] */\n      0x00\n        /* \"Qvoting.sol\":4202:4214  _msgSender() */\n      tag_148\n        /* \"Qvoting.sol\":4202:4212  _msgSender */\n      tag_115\n        /* \"Qvoting.sol\":4202:4214  _msgSender() */\n      jump\t// in\n    tag_148:\n        /* \"Qvoting.sol\":4189:4215  userProposal[_msgSender()] */\n      0xffffffffffffffffffffffffffffffffffffffff\n      and\n      0xffffffffffffffffffffffffffffffffffffffff\n      and\n      dup2\n      mstore\n      0x20\n      add\n      swap1\n      dup2\n      mstore\n      0x20\n      add\n      0x00\n      keccak256\n        /* \"Qvoting.sol\":4189:4234  userProposal[_msgSender()].updateResponseList */\n      tag_149\n      swap1\n        /* \"Qvoting.sol\":4189:4254  userProposal[_msgSender()].updateResponseList(_proposalId, _hash) */\n      swap3\n      swap2\n      swap1\n      0xffffffff\n      and\n      jump\t// in\n    tag_147:\n      pop\n        /* \"Qvoting.sol\":4267:4313  allVoters[_voter][_proposalId].updateVoteNum() */\n      tag_150\n        /* \"Qvoting.sol\":4267:4276  allVoters */\n      0x08\n        /* \"Qvoting.sol\":4267:4284  allVoters[_voter] */\n      0x00\n        /* \"Qvoting.sol\":4277:4283  _voter */\n      dup7\n        /* \"Qvoting.sol\":4267:4284  allVoters[_voter] */\n      0xffffffffffffffffffffffffffffffffffffffff\n      and\n      0xffffffffffffffffffffffffffffffffffffffff\n      and\n      dup2\n      mstore\n      0x20\n      add\n      swap1\n      dup2\n      mstore\n      0x20\n      add\n      0x00\n      keccak256\n        /* \"Qvoting.sol\":4267:4297  allVoters[_voter][_proposalId] */\n      0x00\n        /* \"Qvoting.sol\":4285:4296  _proposalId */\n      dup8\n        /* \"Qvoting.sol\":4267:4297  allVoters[_voter][_proposalId] */\n      dup2\n      mstore\n      0x20\n      add\n      swap1\n      dup2\n      mstore\n      0x20\n      add\n      0x00\n      keccak256\n        /* \"Qvoting.sol\":4267:4311  allVoters[_voter][_proposalId].updateVoteNum */\n      tag_151\n        /* \"Qvoting.sol\":4267:4313  allVoters[_voter][_proposalId].updateVoteNum() */\n      jump\t// in\n    tag_150:\n      pop\n        /* \"Qvoting.sol\":4366:4370  true */\n      0x01\n        /* \"Qvoting.sol\":4324:4333  allVoters */\n      0x08\n        /* \"Qvoting.sol\":4324:4341  allVoters[_voter] */\n      0x00\n        /* \"Qvoting.sol\":4334:4340  _voter */\n      dup7\n        /* \"Qvoting.sol\":4324:4341  allVoters[_voter] */\n      0xffffffffffffffffffffffffffffffffffffffff\n      and\n      0xffffffffffffffffffffffffffffffffffffffff\n      and\n      dup2\n      mstore\n      0x20\n      add\n      swap1\n      dup2\n      mstore\n      0x20\n      add\n      0x00\n      keccak256\n        /* \"Qvoting.sol\":4324:4354  allVoters[_voter][_proposalId] */\n      0x00\n        /* \"Qvoting.sol\":4342:4353  _proposalId */\n      dup8\n        /* \"Qvoting.sol\":4324:4354  allVoters[_voter][_proposalId] */\n      dup2\n      mstore\n      0x20\n      add\n      swap1\n      dup2\n      mstore\n      0x20\n      add\n      0x00\n      keccak256\n        /* \"Qvoting.sol\":4324:4363  allVoters[_voter][_proposalId].hasVoted */\n      0x01\n      add\n      0x14\n        /* \"Qvoting.sol\":4324:4370  allVoters[_voter][_proposalId].hasVoted = true */\n      0x0100\n      exp\n      dup2\n      sload\n      dup2\n      0xff\n      mul\n      not\n      and\n      swap1\n      dup4\n      iszero\n      iszero\n      mul\n      or\n      swap1\n      sstore\n      pop\n        /* \"Qvoting.sol\":4381:4425  burn(_voter,proposals[proposalId].voteRight) */\n      tag_152\n        /* \"Qvoting.sol\":4386:4392  _voter */\n      dup5\n        /* \"Qvoting.sol\":4393:4402  proposals */\n      0x07\n        /* \"Qvoting.sol\":4393:4414  proposals[proposalId] */\n      0x00\n        /* \"Qvoting.sol\":4403:4413  proposalId */\n      sload(0x05)\n        /* \"Qvoting.sol\":4393:4414  proposals[proposalId] */\n      dup2\n      mstore\n      0x20\n      add\n      swap1\n      dup2\n      mstore\n      0x20\n      add\n      0x00\n      keccak256\n        /* \"Qvoting.sol\":4393:4424  proposals[proposalId].voteRight */\n      0x05\n      add\n      sload\n        /* \"Qvoting.sol\":4381:4385  burn */\n      tag_153\n        /* \"Qvoting.sol\":4381:4425  burn(_voter,proposals[proposalId].voteRight) */\n      jump\t// in\n    tag_152:\n        /* \"Qvoting.sol\":4441:4501  mintAndburn(\"burn\", _voter, proposals[proposalId].voteRight) */\n      0xabf5327be9f5825c40d58bda541dd07f09b62df3376bbd5ecdbaa8bd82a9d492\n        /* \"Qvoting.sol\":4461:4467  _voter */\n      dup5\n        /* \"Qvoting.sol\":4469:4478  proposals */\n      0x07\n        /* \"Qvoting.sol\":4469:4490  proposals[proposalId] */\n      0x00\n        /* \"Qvoting.sol\":4479:4489  proposalId */\n      sload(0x05)\n        /* \"Qvoting.sol\":4469:4490  proposals[proposalId] */\n      dup2\n      mstore\n      0x20\n      add\n      swap1\n      dup2\n      mstore\n      0x20\n      add\n      0x00\n      keccak256\n        /* \"Qvoting.sol\":4469:4500  proposals[proposalId].voteRight */\n      0x05\n      add\n      sload\n        /* \"Qvoting.sol\":4441:4501  mintAndburn(\"burn\", _voter, proposals[proposalId].voteRight) */\n      mload(0x40)\n      tag_154\n      swap3\n      swap2\n      swap1\n      tag_155\n      jump\t// in\n    tag_154:\n      mload(0x40)\n      dup1\n      swap2\n      sub\n      swap1\n      log1\n        /* \"Qvoting.sol\":3379:4519  {\r... */\n      pop\n        /* \"Qvoting.sol\":3270:4519  function responseProposal(uint _proposalId, address _voter, string[] memory _hash, uint[] memory v) external {\r... */\n      pop\n      pop\n      pop\n      pop\n      jump\t// out\n        /* \"QvToken/ERC20.sol\":3493:3620  function balanceOf(address account) public view virtual override returns (uint256) {\r... */\n    tag_44:\n        /* \"QvToken/ERC20.sol\":3567:3574  uint256 */\n      0x00\n        /* \"QvToken/ERC20.sol\":3594:3603  _balances */\n      dup1\n        /* \"QvToken/ERC20.sol\":3594:3612  _balances[account] */\n      0x00\n        /* \"QvToken/ERC20.sol\":3604:3611  account */\n      dup4\n        /* \"QvToken/ERC20.sol\":3594:3612  _balances[account] */\n      0xffffffffffffffffffffffffffffffffffffffff\n      and\n      0xffffffffffffffffffffffffffffffffffffffff\n      and\n      dup2\n      mstore\n      0x20\n      add\n      swap1\n      dup2\n      mstore\n      0x20\n      add\n      0x00\n      keccak256\n      sload\n        /* \"QvToken/ERC20.sol\":3587:3612  return _balances[account] */\n      swap1\n      pop\n        /* \"QvToken/ERC20.sol\":3493:3620  function balanceOf(address account) public view virtual override returns (uint256) {\r... */\n      swap2\n      swap1\n      pop\n      jump\t// out\n        /* \"QvToken/ERC20.sol\":2421:2525  function symbol() public view virtual override returns (string memory) {\r... */\n    tag_47:\n        /* \"QvToken/ERC20.sol\":2477:2490  string memory */\n      0x60\n        /* \"QvToken/ERC20.sol\":2510:2517  _symbol */\n      0x03\n        /* \"QvToken/ERC20.sol\":2503:2517  return _symbol */\n      dup1\n      sload\n      tag_158\n      swap1\n      tag_65\n      jump\t// in\n    tag_158:\n      dup1\n      0x1f\n      add\n      0x20\n      dup1\n      swap2\n      div\n      mul\n      0x20\n      add\n      mload(0x40)\n      swap1\n      dup2\n      add\n      0x40\n      mstore\n      dup1\n      swap3\n      swap2\n      swap1\n      dup2\n      dup2\n      mstore\n      0x20\n      add\n      dup3\n      dup1\n      sload\n      tag_159\n      swap1\n      tag_65\n      jump\t// in\n    tag_159:\n      dup1\n      iszero\n      tag_160\n      jumpi\n      dup1\n      0x1f\n      lt\n      tag_161\n      jumpi\n      0x0100\n      dup1\n      dup4\n      sload\n      div\n      mul\n      dup4\n      mstore\n      swap2\n      0x20\n      add\n      swap2\n      jump(tag_160)\n    tag_161:\n      dup3\n      add\n      swap2\n      swap1\n      0x00\n      mstore\n      keccak256(0x00, 0x20)\n      swap1\n    tag_162:\n      dup2\n      sload\n      dup2\n      mstore\n      swap1\n      0x01\n      add\n      swap1\n      0x20\n      add\n      dup1\n      dup4\n      gt\n      tag_162\n      jumpi\n      dup3\n      swap1\n      sub\n      0x1f\n      and\n      dup3\n      add\n      swap2\n    tag_160:\n      pop\n      pop\n      pop\n      pop\n      pop\n      swap1\n      pop\n        /* \"QvToken/ERC20.sol\":2421:2525  function symbol() public view virtual override returns (string memory) {\r... */\n      swap1\n      jump\t// out\n        /* \"Qvoting.sol\":4611:4891  function resultOfProposal(uint _proposalId) external returns(string memory){\r... */\n    tag_51:\n        /* \"Qvoting.sol\":4672:4685  string memory */\n      0x60\n        /* \"Qvoting.sol\":4705:4719  validProposals */\n      0x09\n        /* \"Qvoting.sol\":4705:4732  validProposals[_proposalId] */\n      0x00\n        /* \"Qvoting.sol\":4720:4731  _proposalId */\n      dup4\n        /* \"Qvoting.sol\":4705:4732  validProposals[_proposalId] */\n      dup2\n      mstore\n      0x20\n      add\n      swap1\n      dup2\n      mstore\n      0x20\n      add\n      0x00\n      keccak256\n      0x00\n      swap1\n      sload\n      swap1\n      0x0100\n      exp\n      swap1\n      div\n      0xff\n      and\n        /* \"Qvoting.sol\":4697:4756  require(validProposals[_proposalId],\"not a valid proposal\") */\n      tag_164\n      jumpi\n      mload(0x40)\n      0x08c379a000000000000000000000000000000000000000000000000000000000\n      dup2\n      mstore\n      0x04\n      add\n      tag_165\n      swap1\n      tag_166\n      jump\t// in\n    tag_165:\n      mload(0x40)\n      dup1\n      swap2\n      sub\n      swap1\n      revert\n    tag_164:\n        /* \"Qvoting.sol\":4849:4858  proposals */\n      0x07\n        /* \"Qvoting.sol\":4849:4871  proposals[_proposalId] */\n      0x00\n        /* \"Qvoting.sol\":4859:4870  _proposalId */\n      dup4\n        /* \"Qvoting.sol\":4849:4871  proposals[_proposalId] */\n      dup2\n      mstore\n      0x20\n      add\n      swap1\n      dup2\n      mstore\n      0x20\n      add\n      0x00\n      keccak256\n        /* \"Qvoting.sol\":4849:4878  proposals[_proposalId].result */\n      0x09\n      add\n        /* \"Qvoting.sol\":4849:4881  proposals[_proposalId].result[1] */\n      0x00\n        /* \"Qvoting.sol\":4879:4880  1 */\n      0x01\n        /* \"Qvoting.sol\":4849:4881  proposals[_proposalId].result[1] */\n      dup2\n      mstore\n      0x20\n      add\n      swap1\n      dup2\n      mstore\n      0x20\n      add\n      0x00\n      keccak256\n        /* \"Qvoting.sol\":4842:4881  return proposals[_proposalId].result[1] */\n      dup1\n      sload\n      tag_167\n      swap1\n      tag_65\n      jump\t// in\n    tag_167:\n      dup1\n      0x1f\n      add\n      0x20\n      dup1\n      swap2\n      div\n      mul\n      0x20\n      add\n      mload(0x40)\n      swap1\n      dup2\n      add\n      0x40\n      mstore\n      dup1\n      swap3\n      swap2\n      swap1\n      dup2\n      dup2\n      mstore\n      0x20\n      add\n      dup3\n      dup1\n      sload\n      tag_168\n      swap1\n      tag_65\n      jump\t// in\n    tag_168:\n      dup1\n      iszero\n      tag_169\n      jumpi\n      dup1\n      0x1f\n      lt\n      tag_170\n      jumpi\n      0x0100\n      dup1\n      dup4\n      sload\n      div\n      mul\n      dup4\n      mstore\n      swap2\n      0x20\n      add\n      swap2\n      jump(tag_169)\n    tag_170:\n      dup3\n      add\n      swap2\n      swap1\n      0x00\n      mstore\n      keccak256(0x00, 0x20)\n      swap1\n    tag_171:\n      dup2\n      sload\n      dup2\n      mstore\n      swap1\n      0x01\n      add\n      swap1\n      0x20\n      add\n      dup1\n      dup4\n      gt\n      tag_171\n      jumpi\n      dup3\n      swap1\n      sub\n      0x1f\n      and\n      dup3\n      add\n      swap2\n    tag_169:\n      pop\n      pop\n      pop\n      pop\n      pop\n      swap1\n      pop\n        /* \"Qvoting.sol\":4611:4891  function resultOfProposal(uint _proposalId) external returns(string memory){\r... */\n      swap2\n      swap1\n      pop\n      jump\t// out\n        /* \"Qvoting.sol\":1400:1472  mapping(address => mapping(uint => voterLibrary.voter)) public allVoters */\n    tag_56:\n      mstore(0x20, 0x08)\n      dup2\n      0x00\n      mstore\n      mstore(0x20, keccak256(0x00, 0x40))\n      dup1\n      0x00\n      mstore\n      keccak256(0x00, 0x40)\n      0x00\n      swap2\n      pop\n      swap2\n      pop\n      pop\n      dup1\n      0x00\n      add\n      sload\n      swap1\n      dup1\n      0x01\n      add\n      0x00\n      swap1\n      sload\n      swap1\n      0x0100\n      exp\n      swap1\n      div\n      0xffffffffffffffffffffffffffffffffffffffff\n      and\n      swap1\n      dup1\n      0x01\n      add\n      0x14\n      swap1\n      sload\n      swap1\n      0x0100\n      exp\n      swap1\n      div\n      0xff\n      and\n      swap1\n      dup1\n      0x02\n      add\n      sload\n      swap1\n      pop\n      dup5\n      jump\t// out\n        /* \"Qvoting.sol\":1201:1273  mapping(address => UserProposalLibrary.UserProposal) public userProposal */\n    tag_61:\n      mstore(0x20, 0x06)\n      dup1\n      0x00\n      mstore\n      keccak256(0x00, 0x40)\n      0x00\n      swap2\n      pop\n      swap1\n      pop\n      dup1\n      0x00\n      add\n      0x00\n      swap1\n      sload\n      swap1\n      0x0100\n      exp\n      swap1\n      div\n      0xffffffffffffffffffffffffffffffff\n      and\n      swap1\n      dup1\n      0x00\n      add\n      0x10\n      swap1\n      sload\n      swap1\n      0x0100\n      exp\n      swap1\n      div\n      0xffffffffffffffffffffffffffffffff\n      and\n      swap1\n      pop\n      dup3\n      jump\t// out\n        /* \"Library/ProposalLibrary.sol\":806:1983  function createProposal(proposal storage self, uint8 _status, address[] memory _voters, address _creator,\r... */\n    tag_91:\n        /* \"Library/ProposalLibrary.sol\":1044:1048  bool */\n      0x00\n        /* \"Library/ProposalLibrary.sol\":1099:1107  _creator */\n      dup8\n        /* \"Library/ProposalLibrary.sol\":1084:1088  self */\n      dup12\n        /* \"Library/ProposalLibrary.sol\":1084:1096  self.creator */\n      0x00\n      add\n      0x00\n        /* \"Library/ProposalLibrary.sol\":1084:1107  self.creator = _creator */\n      0x0100\n      exp\n      dup2\n      sload\n      dup2\n      0xffffffffffffffffffffffffffffffffffffffff\n      mul\n      not\n      and\n      swap1\n      dup4\n      0xffffffffffffffffffffffffffffffffffffffff\n      and\n      mul\n      or\n      swap1\n      sstore\n      pop\n        /* \"Library/ProposalLibrary.sol\":1156:1163  _status */\n      dup10\n        /* \"Library/ProposalLibrary.sol\":1142:1146  self */\n      dup12\n        /* \"Library/ProposalLibrary.sol\":1142:1153  self.status */\n      0x00\n      add\n      0x14\n        /* \"Library/ProposalLibrary.sol\":1142:1163  self.status = _status */\n      0x0100\n      exp\n      dup2\n      sload\n      dup2\n      0xff\n      mul\n      not\n      and\n      swap1\n      dup4\n      0xff\n      and\n      mul\n      or\n      swap1\n      sstore\n      pop\n        /* \"Library/ProposalLibrary.sol\":1210:1215  _disc */\n      dup5\n        /* \"Library/ProposalLibrary.sol\":1198:1202  self */\n      dup12\n        /* \"Library/ProposalLibrary.sol\":1198:1207  self.disc */\n      0x01\n      add\n        /* \"Library/ProposalLibrary.sol\":1198:1215  self.disc = _disc */\n      swap1\n      dup1\n      mload\n      swap1\n      0x20\n      add\n      swap1\n      tag_173\n      swap3\n      swap2\n      swap1\n      tag_174\n      jump\t// in\n    tag_173:\n      pop\n        /* \"Library/ProposalLibrary.sol\":1267:1277  _startTime */\n      dup7\n        /* \"Library/ProposalLibrary.sol\":1250:1254  self */\n      dup12\n        /* \"Library/ProposalLibrary.sol\":1250:1264  self.startTime */\n      0x02\n      add\n        /* \"Library/ProposalLibrary.sol\":1250:1277  self.startTime = _startTime */\n      dup2\n      swap1\n      sstore\n      pop\n        /* \"Library/ProposalLibrary.sol\":1334:1349  _expirationTime */\n      dup6\n        /* \"Library/ProposalLibrary.sol\":1312:1316  self */\n      dup12\n        /* \"Library/ProposalLibrary.sol\":1312:1331  self.expirationTime */\n      0x03\n      add\n        /* \"Library/ProposalLibrary.sol\":1312:1349  self.expirationTime = _expirationTime */\n      dup2\n      swap1\n      sstore\n      pop\n        /* \"Library/ProposalLibrary.sol\":1411:1416  _cand */\n      dup3\n      dup3\n        /* \"Library/ProposalLibrary.sol\":1411:1423  _cand.length */\n      swap1\n      pop\n        /* \"Library/ProposalLibrary.sol\":1384:1388  self */\n      dup12\n        /* \"Library/ProposalLibrary.sol\":1384:1401  self.numOfOptions */\n      0x04\n      add\n      0x00\n        /* \"Library/ProposalLibrary.sol\":1384:1424  self.numOfOptions = uint16(_cand.length) */\n      0x0100\n      exp\n      dup2\n      sload\n      dup2\n      0xffff\n      mul\n      not\n      and\n      swap1\n      dup4\n      0xffff\n      and\n      mul\n      or\n      swap1\n      sstore\n      pop\n        /* \"Library/ProposalLibrary.sol\":1476:1486  _voteRight */\n      dup4\n        /* \"Library/ProposalLibrary.sol\":1459:1463  self */\n      dup12\n        /* \"Library/ProposalLibrary.sol\":1459:1473  self.voteRight */\n      0x05\n      add\n        /* \"Library/ProposalLibrary.sol\":1459:1486  self.voteRight = _voteRight */\n      dup2\n      swap1\n      sstore\n      pop\n        /* \"Library/ProposalLibrary.sol\":1525:1534  uint256 i */\n      0x00\n        /* \"Library/ProposalLibrary.sol\":1521:1726  for(uint256 i=0;i<_cand.length;i++){\r... */\n    tag_175:\n        /* \"Library/ProposalLibrary.sol\":1539:1544  _cand */\n      dup4\n      dup4\n        /* \"Library/ProposalLibrary.sol\":1539:1551  _cand.length */\n      swap1\n      pop\n        /* \"Library/ProposalLibrary.sol\":1537:1538  i */\n      dup2\n        /* \"Library/ProposalLibrary.sol\":1537:1551  i<_cand.length */\n      lt\n        /* \"Library/ProposalLibrary.sol\":1521:1726  for(uint256 i=0;i<_cand.length;i++){\r... */\n      iszero\n      tag_176\n      jumpi\n        /* \"Library/ProposalLibrary.sol\":1617:1621  true */\n      0x01\n        /* \"Library/ProposalLibrary.sol\":1595:1599  self */\n      dup13\n        /* \"Library/ProposalLibrary.sol\":1595:1604  self.cand */\n      0x07\n      add\n        /* \"Library/ProposalLibrary.sol\":1605:1610  _cand */\n      dup6\n      dup6\n        /* \"Library/ProposalLibrary.sol\":1611:1612  i */\n      dup5\n        /* \"Library/ProposalLibrary.sol\":1605:1613  _cand[i] */\n      dup2\n      dup2\n      lt\n      tag_178\n      jumpi\n      tag_179\n      tag_100\n      jump\t// in\n    tag_179:\n    tag_178:\n      swap1\n      pop\n      0x20\n      mul\n      dup2\n      add\n      swap1\n      tag_180\n      swap2\n      swap1\n      tag_181\n      jump\t// in\n    tag_180:\n        /* \"Library/ProposalLibrary.sol\":1595:1614  self.cand[_cand[i]] */\n      mload(0x40)\n      tag_182\n      swap3\n      swap2\n      swap1\n      tag_183\n      jump\t// in\n    tag_182:\n      swap1\n      dup2\n      mstore\n      0x20\n      add\n      mload(0x40)\n      dup1\n      swap2\n      sub\n      swap1\n      keccak256\n      0x00\n        /* \"Library/ProposalLibrary.sol\":1595:1621  self.cand[_cand[i]] = true */\n      0x0100\n      exp\n      dup2\n      sload\n      dup2\n      0xff\n      mul\n      not\n      and\n      swap1\n      dup4\n      iszero\n      iszero\n      mul\n      or\n      swap1\n      sstore\n      pop\n        /* \"Library/ProposalLibrary.sol\":1682:1687  _cand */\n      dup4\n      dup4\n        /* \"Library/ProposalLibrary.sol\":1688:1689  i */\n      dup3\n        /* \"Library/ProposalLibrary.sol\":1682:1690  _cand[i] */\n      dup2\n      dup2\n      lt\n      tag_184\n      jumpi\n      tag_185\n      tag_100\n      jump\t// in\n    tag_185:\n    tag_184:\n      swap1\n      pop\n      0x20\n      mul\n      dup2\n      add\n      swap1\n      tag_186\n      swap2\n      swap1\n      tag_181\n      jump\t// in\n    tag_186:\n        /* \"Library/ProposalLibrary.sol\":1660:1664  self */\n      dup14\n        /* \"Library/ProposalLibrary.sol\":1660:1673  self.candHash */\n      0x08\n      add\n        /* \"Library/ProposalLibrary.sol\":1660:1678  self.candHash[i+1] */\n      0x00\n        /* \"Library/ProposalLibrary.sol\":1676:1677  1 */\n      0x01\n        /* \"Library/ProposalLibrary.sol\":1674:1675  i */\n      dup6\n        /* \"Library/ProposalLibrary.sol\":1674:1677  i+1 */\n      tag_187\n      swap2\n      swap1\n      tag_140\n      jump\t// in\n    tag_187:\n        /* \"Library/ProposalLibrary.sol\":1660:1678  self.candHash[i+1] */\n      dup2\n      mstore\n      0x20\n      add\n      swap1\n      dup2\n      mstore\n      0x20\n      add\n      0x00\n      keccak256\n        /* \"Library/ProposalLibrary.sol\":1660:1690  self.candHash[i+1] =  _cand[i] */\n      swap2\n      swap1\n      tag_188\n      swap3\n      swap2\n      swap1\n      tag_189\n      jump\t// in\n    tag_188:\n      pop\n        /* \"Library/ProposalLibrary.sol\":1552:1555  i++ */\n      dup1\n      dup1\n      tag_190\n      swap1\n      tag_89\n      jump\t// in\n    tag_190:\n      swap2\n      pop\n      pop\n        /* \"Library/ProposalLibrary.sol\":1521:1726  for(uint256 i=0;i<_cand.length;i++){\r... */\n      jump(tag_175)\n    tag_176:\n      pop\n        /* \"Library/ProposalLibrary.sol\":1764:1773  uint256 i */\n      0x00\n        /* \"Library/ProposalLibrary.sol\":1760:1902  for(uint256 i=0;i<_voters.length;i++){\r... */\n    tag_191:\n        /* \"Library/ProposalLibrary.sol\":1778:1785  _voters */\n      dup10\n        /* \"Library/ProposalLibrary.sol\":1778:1792  _voters.length */\n      mload\n        /* \"Library/ProposalLibrary.sol\":1776:1777  i */\n      dup2\n        /* \"Library/ProposalLibrary.sol\":1776:1792  i<_voters.length */\n      lt\n        /* \"Library/ProposalLibrary.sol\":1760:1902  for(uint256 i=0;i<_voters.length;i++){\r... */\n      iszero\n      tag_192\n      jumpi\n        /* \"Library/ProposalLibrary.sol\":1862:1866  true */\n      0x01\n        /* \"Library/ProposalLibrary.sol\":1836:1840  self */\n      dup13\n        /* \"Library/ProposalLibrary.sol\":1836:1847  self.voters */\n      0x06\n      add\n        /* \"Library/ProposalLibrary.sol\":1836:1859  self.voters[_voters[i]] */\n      0x00\n        /* \"Library/ProposalLibrary.sol\":1848:1855  _voters */\n      dup13\n        /* \"Library/ProposalLibrary.sol\":1856:1857  i */\n      dup5\n        /* \"Library/ProposalLibrary.sol\":1848:1858  _voters[i] */\n      dup2\n      mload\n      dup2\n      lt\n      tag_194\n      jumpi\n      tag_195\n      tag_100\n      jump\t// in\n    tag_195:\n    tag_194:\n      0x20\n      mul\n      0x20\n      add\n      add\n      mload\n        /* \"Library/ProposalLibrary.sol\":1836:1859  self.voters[_voters[i]] */\n      0xffffffffffffffffffffffffffffffffffffffff\n      and\n      0xffffffffffffffffffffffffffffffffffffffff\n      and\n      dup2\n      mstore\n      0x20\n      add\n      swap1\n      dup2\n      mstore\n      0x20\n      add\n      0x00\n      keccak256\n      0x00\n        /* \"Library/ProposalLibrary.sol\":1836:1866  self.voters[_voters[i]] = true */\n      0x0100\n      exp\n      dup2\n      sload\n      dup2\n      0xff\n      mul\n      not\n      and\n      swap1\n      dup4\n      iszero\n      iszero\n      mul\n      or\n      swap1\n      sstore\n      pop\n        /* \"Library/ProposalLibrary.sol\":1793:1796  i++ */\n      dup1\n      dup1\n      tag_196\n      swap1\n      tag_89\n      jump\t// in\n    tag_196:\n      swap2\n      pop\n      pop\n        /* \"Library/ProposalLibrary.sol\":1760:1902  for(uint256 i=0;i<_voters.length;i++){\r... */\n      jump(tag_191)\n    tag_192:\n      pop\n        /* \"Library/ProposalLibrary.sol\":1945:1949  true */\n      0x01\n        /* \"Library/ProposalLibrary.sol\":1938:1949  return true */\n      swap1\n      pop\n        /* \"Library/ProposalLibrary.sol\":806:1983  function createProposal(proposal storage self, uint8 _status, address[] memory _voters, address _creator,\r... */\n      swap11\n      swap10\n      pop\n      pop\n      pop\n      pop\n      pop\n      pop\n      pop\n      pop\n      pop\n      pop\n      jump\t// out\n        /* \"QvToken/QvToken.sol\":398:502  function mint(address to , uint amount) onlyOwner(_msgSender()) internal {\r... */\n    tag_101:\n        /* \"QvToken/QvToken.sol\":448:460  _msgSender() */\n      tag_197\n        /* \"QvToken/QvToken.sol\":448:458  _msgSender */\n      tag_115\n        /* \"QvToken/QvToken.sol\":448:460  _msgSender() */\n      jump\t// in\n    tag_197:\n        /* \"QvToken/QvToken.sol\":366:375  msgSender */\n      dup1\n        /* \"QvToken/QvToken.sol\":357:375  owner == msgSender */\n      0xffffffffffffffffffffffffffffffffffffffff\n      and\n        /* \"QvToken/QvToken.sol\":357:362  owner */\n      0x04\n      0x00\n      swap1\n      sload\n      swap1\n      0x0100\n      exp\n      swap1\n      div\n      0xffffffffffffffffffffffffffffffffffffffff\n      and\n        /* \"QvToken/QvToken.sol\":357:375  owner == msgSender */\n      0xffffffffffffffffffffffffffffffffffffffff\n      and\n      eq\n        /* \"QvToken/QvToken.sol\":349:376  require(owner == msgSender) */\n      tag_199\n      jumpi\n      0x00\n      dup1\n      revert\n    tag_199:\n        /* \"QvToken/QvToken.sol\":478:494  _mint(to,amount) */\n      tag_201\n        /* \"QvToken/QvToken.sol\":484:486  to */\n      dup4\n        /* \"QvToken/QvToken.sol\":487:493  amount */\n      dup4\n        /* \"QvToken/QvToken.sol\":478:483  _mint */\n      tag_202\n        /* \"QvToken/QvToken.sol\":478:494  _mint(to,amount) */\n      jump\t// in\n    tag_201:\n        /* \"QvToken/QvToken.sol\":398:502  function mint(address to , uint amount) onlyOwner(_msgSender()) internal {\r... */\n      pop\n      pop\n      pop\n      jump\t// out\n        /* \"Library/VoterLibrary.sol\":1090:1525  function createVoter(voter storage self, uint _proposalId, address _voterAddress, bool _hasVoted, uint _voteNum) internal returns(bool){\r... */\n    tag_107:\n        /* \"Library/VoterLibrary.sol\":1220:1224  bool */\n      0x00\n        /* \"Library/VoterLibrary.sol\":1278:1289  _proposalId */\n      dup5\n        /* \"Library/VoterLibrary.sol\":1260:1264  self */\n      dup7\n        /* \"Library/VoterLibrary.sol\":1260:1275  self.proposalId */\n      0x00\n      add\n        /* \"Library/VoterLibrary.sol\":1260:1289  self.proposalId = _proposalId */\n      dup2\n      swap1\n      sstore\n      pop\n        /* \"Library/VoterLibrary.sol\":1344:1357  _voterAddress */\n      dup4\n        /* \"Library/VoterLibrary.sol\":1324:1328  self */\n      dup7\n        /* \"Library/VoterLibrary.sol\":1324:1341  self.voterAddress */\n      0x01\n      add\n      0x00\n        /* \"Library/VoterLibrary.sol\":1324:1357  self.voterAddress = _voterAddress */\n      0x0100\n      exp\n      dup2\n      sload\n      dup2\n      0xffffffffffffffffffffffffffffffffffffffff\n      mul\n      not\n      and\n      swap1\n      dup4\n      0xffffffffffffffffffffffffffffffffffffffff\n      and\n      mul\n      or\n      swap1\n      sstore\n      pop\n        /* \"Library/VoterLibrary.sol\":1408:1417  _hasVoted */\n      dup3\n        /* \"Library/VoterLibrary.sol\":1392:1396  self */\n      dup7\n        /* \"Library/VoterLibrary.sol\":1392:1405  self.hasVoted */\n      0x01\n      add\n      0x14\n        /* \"Library/VoterLibrary.sol\":1392:1417  self.hasVoted = _hasVoted */\n      0x0100\n      exp\n      dup2\n      sload\n      dup2\n      0xff\n      mul\n      not\n      and\n      swap1\n      dup4\n      iszero\n      iszero\n      mul\n      or\n      swap1\n      sstore\n      pop\n        /* \"Library/VoterLibrary.sol\":1467:1475  _voteNum */\n      dup2\n        /* \"Library/VoterLibrary.sol\":1452:1456  self */\n      dup7\n        /* \"Library/VoterLibrary.sol\":1452:1464  self.voteNum */\n      0x02\n      add\n        /* \"Library/VoterLibrary.sol\":1452:1475  self.voteNum = _voteNum */\n      dup2\n      swap1\n      sstore\n      pop\n        /* \"Library/VoterLibrary.sol\":1517:1521  true */\n      0x01\n        /* \"Library/VoterLibrary.sol\":1510:1521  return true */\n      swap1\n      pop\n        /* \"Library/VoterLibrary.sol\":1090:1525  function createVoter(voter storage self, uint _proposalId, address _voterAddress, bool _hasVoted, uint _voteNum) internal returns(bool){\r... */\n      swap6\n      swap5\n      pop\n      pop\n      pop\n      pop\n      pop\n      jump\t// out\n        /* \"QvToken/Context.sol\":656:754  function _msgSender() internal view virtual returns (address) {\r... */\n    tag_115:\n        /* \"QvToken/Context.sol\":709:716  address */\n      0x00\n        /* \"QvToken/Context.sol\":736:746  msg.sender */\n      caller\n        /* \"QvToken/Context.sol\":729:746  return msg.sender */\n      swap1\n      pop\n        /* \"QvToken/Context.sol\":656:754  function _msgSender() internal view virtual returns (address) {\r... */\n      swap1\n      jump\t// out\n        /* \"Library/UserProposalLibrary.sol\":573:794  function updateProposalList(UserProposal storage self, uint _proposalId) internal returns(bool){\r... */\n    tag_116:\n        /* \"Library/UserProposalLibrary.sol\":663:667  bool */\n      0x00\n        /* \"Library/UserProposalLibrary.sol\":679:683  self */\n      dup3\n        /* \"Library/UserProposalLibrary.sol\":679:697  self.proposalCount */\n      0x00\n      add\n      0x00\n        /* \"Library/UserProposalLibrary.sol\":679:699  self.proposalCount++ */\n      dup2\n      dup2\n      swap1\n      sload\n      swap1\n      0x0100\n      exp\n      swap1\n      div\n      0xffffffffffffffffffffffffffffffff\n      and\n      dup1\n      swap3\n      swap2\n      swap1\n      tag_206\n      swap1\n      tag_207\n      jump\t// in\n    tag_206:\n      swap2\n      swap1\n      0x0100\n      exp\n      dup2\n      sload\n      dup2\n      0xffffffffffffffffffffffffffffffff\n      mul\n      not\n      and\n      swap1\n      dup4\n      0xffffffffffffffffffffffffffffffff\n      and\n      mul\n      or\n      swap1\n      sstore\n      pop\n      pop\n        /* \"Library/UserProposalLibrary.sol\":753:764  _proposalId */\n      dup2\n        /* \"Library/UserProposalLibrary.sol\":710:714  self */\n      dup4\n        /* \"Library/UserProposalLibrary.sol\":710:730  self.proposalCreated */\n      0x01\n      add\n        /* \"Library/UserProposalLibrary.sol\":710:750  self.proposalCreated[self.proposalCount] */\n      0x00\n        /* \"Library/UserProposalLibrary.sol\":731:735  self */\n      dup6\n        /* \"Library/UserProposalLibrary.sol\":731:749  self.proposalCount */\n      0x00\n      add\n      0x00\n      swap1\n      sload\n      swap1\n      0x0100\n      exp\n      swap1\n      div\n      0xffffffffffffffffffffffffffffffff\n      and\n        /* \"Library/UserProposalLibrary.sol\":710:750  self.proposalCreated[self.proposalCount] */\n      0xffffffffffffffffffffffffffffffff\n      and\n      0xffffffffffffffffffffffffffffffff\n      and\n      dup2\n      mstore\n      0x20\n      add\n      swap1\n      dup2\n      mstore\n      0x20\n      add\n      0x00\n      keccak256\n        /* \"Library/UserProposalLibrary.sol\":710:764  self.proposalCreated[self.proposalCount] = _proposalId */\n      dup2\n      swap1\n      sstore\n      pop\n        /* \"Library/UserProposalLibrary.sol\":782:786  true */\n      0x01\n        /* \"Library/UserProposalLibrary.sol\":775:786  return true */\n      swap1\n      pop\n        /* \"Library/UserProposalLibrary.sol\":573:794  function updateProposalList(UserProposal storage self, uint _proposalId) internal returns(bool){\r... */\n      swap3\n      swap2\n      pop\n      pop\n      jump\t// out\n        /* \"Library/ProposalLibrary.sol\":2018:3370  function responseProposal(proposal storage self, address _voter, string[] memory _hash, uint[] memory v) internal returns(bool){\r... */\n    tag_146:\n        /* \"Library/ProposalLibrary.sol\":2140:2144  bool */\n      0x00\n        /* \"Library/ProposalLibrary.sol\":2179:2180  2 */\n      0x02\n        /* \"Library/ProposalLibrary.sol\":2164:2168  self */\n      dup6\n        /* \"Library/ProposalLibrary.sol\":2164:2175  self.status */\n      0x00\n      add\n      0x14\n      swap1\n      sload\n      swap1\n      0x0100\n      exp\n      swap1\n      div\n      0xff\n      and\n        /* \"Library/ProposalLibrary.sol\":2164:2180  self.status == 2 */\n      0xff\n      and\n      eq\n        /* \"Library/ProposalLibrary.sol\":2156:2203  require(self.status == 2, \"Proposal: inactive\") */\n      tag_209\n      jumpi\n      mload(0x40)\n      0x08c379a000000000000000000000000000000000000000000000000000000000\n      dup2\n      mstore\n      0x04\n      add\n      tag_210\n      swap1\n      tag_211\n      jump\t// in\n    tag_210:\n      mload(0x40)\n      dup1\n      swap2\n      sub\n      swap1\n      revert\n    tag_209:\n        /* \"Library/ProposalLibrary.sol\":2235:2239  self */\n      dup5\n        /* \"Library/ProposalLibrary.sol\":2235:2254  self.expirationTime */\n      0x03\n      add\n      sload\n        /* \"Library/ProposalLibrary.sol\":2217:2232  block.timestamp */\n      timestamp\n        /* \"Library/ProposalLibrary.sol\":2217:2254  block.timestamp > self.expirationTime */\n      gt\n        /* \"Library/ProposalLibrary.sol\":2214:3069  if(block.timestamp > self.expirationTime){\r... */\n      iszero\n      tag_212\n      jumpi\n        /* \"Library/ProposalLibrary.sol\":2324:2325  2 */\n      0x02\n        /* \"Library/ProposalLibrary.sol\":2310:2314  self */\n      dup6\n        /* \"Library/ProposalLibrary.sol\":2310:2321  self.status */\n      0x00\n      add\n      0x14\n        /* \"Library/ProposalLibrary.sol\":2310:2325  self.status = 2 */\n      0x0100\n      exp\n      dup2\n      sload\n      dup2\n      0xff\n      mul\n      not\n      and\n      swap1\n      dup4\n      0xff\n      and\n      mul\n      or\n      swap1\n      sstore\n      pop\n        /* \"Library/ProposalLibrary.sol\":2340:2357  uint largestCount */\n      0x00\n        /* \"Library/ProposalLibrary.sol\":2360:2364  self */\n      dup6\n        /* \"Library/ProposalLibrary.sol\":2360:2370  self.votes */\n      0x0a\n      add\n        /* \"Library/ProposalLibrary.sol\":2371:2375  self */\n      dup7\n        /* \"Library/ProposalLibrary.sol\":2371:2384  self.candHash */\n      0x08\n      add\n        /* \"Library/ProposalLibrary.sol\":2371:2387  self.candHash[1] */\n      0x00\n        /* \"Library/ProposalLibrary.sol\":2385:2386  1 */\n      0x01\n        /* \"Library/ProposalLibrary.sol\":2371:2387  self.candHash[1] */\n      dup2\n      mstore\n      0x20\n      add\n      swap1\n      dup2\n      mstore\n      0x20\n      add\n      0x00\n      keccak256\n        /* \"Library/ProposalLibrary.sol\":2360:2388  self.votes[self.candHash[1]] */\n      mload(0x40)\n      tag_213\n      swap2\n      swap1\n      tag_214\n      jump\t// in\n    tag_213:\n      swap1\n      dup2\n      mstore\n      0x20\n      add\n      mload(0x40)\n      dup1\n      swap2\n      sub\n      swap1\n      keccak256\n      sload\n        /* \"Library/ProposalLibrary.sol\":2340:2388  uint largestCount = self.votes[self.candHash[1]] */\n      swap1\n      pop\n        /* \"Library/ProposalLibrary.sol\":2403:2419  uint winnerCount */\n      0x00\n        /* \"Library/ProposalLibrary.sol\":2422:2423  1 */\n      0x01\n        /* \"Library/ProposalLibrary.sol\":2403:2423  uint winnerCount = 1 */\n      swap1\n      pop\n        /* \"Library/ProposalLibrary.sol\":2455:2459  self */\n      dup7\n        /* \"Library/ProposalLibrary.sol\":2455:2468  self.candHash */\n      0x08\n      add\n        /* \"Library/ProposalLibrary.sol\":2455:2471  self.candHash[1] */\n      0x00\n        /* \"Library/ProposalLibrary.sol\":2469:2470  1 */\n      0x01\n        /* \"Library/ProposalLibrary.sol\":2455:2471  self.candHash[1] */\n      dup2\n      mstore\n      0x20\n      add\n      swap1\n      dup2\n      mstore\n      0x20\n      add\n      0x00\n      keccak256\n        /* \"Library/ProposalLibrary.sol\":2438:2442  self */\n      dup8\n        /* \"Library/ProposalLibrary.sol\":2438:2449  self.result */\n      0x09\n      add\n        /* \"Library/ProposalLibrary.sol\":2438:2452  self.result[1] */\n      0x00\n        /* \"Library/ProposalLibrary.sol\":2450:2451  1 */\n      0x01\n        /* \"Library/ProposalLibrary.sol\":2438:2452  self.result[1] */\n      dup2\n      mstore\n      0x20\n      add\n      swap1\n      dup2\n      mstore\n      0x20\n      add\n      0x00\n      keccak256\n        /* \"Library/ProposalLibrary.sol\":2438:2471  self.result[1] = self.candHash[1] */\n      swap1\n      dup1\n      sload\n      tag_215\n      swap1\n      tag_65\n      jump\t// in\n    tag_215:\n      tag_216\n      swap3\n      swap2\n      swap1\n      tag_217\n      jump\t// in\n    tag_216:\n      pop\n        /* \"Library/ProposalLibrary.sol\":2553:2561  uint16 i */\n      0x00\n        /* \"Library/ProposalLibrary.sol\":2564:2565  2 */\n      0x02\n        /* \"Library/ProposalLibrary.sol\":2553:2565  uint16 i = 2 */\n      swap1\n      pop\n        /* \"Library/ProposalLibrary.sol\":2549:3031  for(uint16 i = 2; i <= self.numOfOptions; i++){\r... */\n    tag_218:\n        /* \"Library/ProposalLibrary.sol\":2572:2576  self */\n      dup8\n        /* \"Library/ProposalLibrary.sol\":2572:2589  self.numOfOptions */\n      0x04\n      add\n      0x00\n      swap1\n      sload\n      swap1\n      0x0100\n      exp\n      swap1\n      div\n      0xffff\n      and\n        /* \"Library/ProposalLibrary.sol\":2567:2589  i <= self.numOfOptions */\n      0xffff\n      and\n        /* \"Library/ProposalLibrary.sol\":2567:2568  i */\n      dup2\n        /* \"Library/ProposalLibrary.sol\":2567:2589  i <= self.numOfOptions */\n      0xffff\n      and\n      gt\n        /* \"Library/ProposalLibrary.sol\":2549:3031  for(uint16 i = 2; i <= self.numOfOptions; i++){\r... */\n      tag_219\n      jumpi\n        /* \"Library/ProposalLibrary.sol\":2648:2660  largestCount */\n      dup3\n        /* \"Library/ProposalLibrary.sol\":2617:2621  self */\n      dup9\n        /* \"Library/ProposalLibrary.sol\":2617:2627  self.votes */\n      0x0a\n      add\n        /* \"Library/ProposalLibrary.sol\":2628:2632  self */\n      dup10\n        /* \"Library/ProposalLibrary.sol\":2628:2641  self.candHash */\n      0x08\n      add\n        /* \"Library/ProposalLibrary.sol\":2628:2644  self.candHash[i] */\n      0x00\n        /* \"Library/ProposalLibrary.sol\":2642:2643  i */\n      dup5\n        /* \"Library/ProposalLibrary.sol\":2628:2644  self.candHash[i] */\n      0xffff\n      and\n      dup2\n      mstore\n      0x20\n      add\n      swap1\n      dup2\n      mstore\n      0x20\n      add\n      0x00\n      keccak256\n        /* \"Library/ProposalLibrary.sol\":2617:2645  self.votes[self.candHash[i]] */\n      mload(0x40)\n      tag_221\n      swap2\n      swap1\n      tag_214\n      jump\t// in\n    tag_221:\n      swap1\n      dup2\n      mstore\n      0x20\n      add\n      mload(0x40)\n      dup1\n      swap2\n      sub\n      swap1\n      keccak256\n      sload\n        /* \"Library/ProposalLibrary.sol\":2617:2660  self.votes[self.candHash[i]] > largestCount */\n      gt\n        /* \"Library/ProposalLibrary.sol\":2614:3016  if(self.votes[self.candHash[i]] > largestCount){\r... */\n      iszero\n      tag_222\n      jumpi\n        /* \"Library/ProposalLibrary.sol\":2699:2703  self */\n      dup8\n        /* \"Library/ProposalLibrary.sol\":2699:2709  self.votes */\n      0x0a\n      add\n        /* \"Library/ProposalLibrary.sol\":2710:2714  self */\n      dup9\n        /* \"Library/ProposalLibrary.sol\":2710:2723  self.candHash */\n      0x08\n      add\n        /* \"Library/ProposalLibrary.sol\":2710:2726  self.candHash[i] */\n      0x00\n        /* \"Library/ProposalLibrary.sol\":2724:2725  i */\n      dup4\n        /* \"Library/ProposalLibrary.sol\":2710:2726  self.candHash[i] */\n      0xffff\n      and\n      dup2\n      mstore\n      0x20\n      add\n      swap1\n      dup2\n      mstore\n      0x20\n      add\n      0x00\n      keccak256\n        /* \"Library/ProposalLibrary.sol\":2699:2727  self.votes[self.candHash[i]] */\n      mload(0x40)\n      tag_223\n      swap2\n      swap1\n      tag_214\n      jump\t// in\n    tag_223:\n      swap1\n      dup2\n      mstore\n      0x20\n      add\n      mload(0x40)\n      dup1\n      swap2\n      sub\n      swap1\n      keccak256\n      sload\n        /* \"Library/ProposalLibrary.sol\":2684:2727  largestCount = self.votes[self.candHash[i]] */\n      swap3\n      pop\n        /* \"Library/ProposalLibrary.sol\":2764:2765  1 */\n      0x01\n        /* \"Library/ProposalLibrary.sol\":2750:2765  winnerCount = 1 */\n      swap2\n      pop\n        /* \"Library/ProposalLibrary.sol\":2805:2809  self */\n      dup8\n        /* \"Library/ProposalLibrary.sol\":2805:2818  self.candHash */\n      0x08\n      add\n        /* \"Library/ProposalLibrary.sol\":2805:2821  self.candHash[i] */\n      0x00\n        /* \"Library/ProposalLibrary.sol\":2819:2820  i */\n      dup3\n        /* \"Library/ProposalLibrary.sol\":2805:2821  self.candHash[i] */\n      0xffff\n      and\n      dup2\n      mstore\n      0x20\n      add\n      swap1\n      dup2\n      mstore\n      0x20\n      add\n      0x00\n      keccak256\n        /* \"Library/ProposalLibrary.sol\":2788:2792  self */\n      dup9\n        /* \"Library/ProposalLibrary.sol\":2788:2799  self.result */\n      0x09\n      add\n        /* \"Library/ProposalLibrary.sol\":2788:2802  self.result[1] */\n      0x00\n        /* \"Library/ProposalLibrary.sol\":2800:2801  1 */\n      0x01\n        /* \"Library/ProposalLibrary.sol\":2788:2802  self.result[1] */\n      dup2\n      mstore\n      0x20\n      add\n      swap1\n      dup2\n      mstore\n      0x20\n      add\n      0x00\n      keccak256\n        /* \"Library/ProposalLibrary.sol\":2788:2821  self.result[1] = self.candHash[i] */\n      swap1\n      dup1\n      sload\n      tag_224\n      swap1\n      tag_65\n      jump\t// in\n    tag_224:\n      tag_225\n      swap3\n      swap2\n      swap1\n      tag_217\n      jump\t// in\n    tag_225:\n      pop\n        /* \"Library/ProposalLibrary.sol\":2614:3016  if(self.votes[self.candHash[i]] > largestCount){\r... */\n      jump(tag_226)\n    tag_222:\n        /* \"Library/ProposalLibrary.sol\":2881:2893  largestCount */\n      dup3\n        /* \"Library/ProposalLibrary.sol\":2849:2853  self */\n      dup9\n        /* \"Library/ProposalLibrary.sol\":2849:2859  self.votes */\n      0x0a\n      add\n        /* \"Library/ProposalLibrary.sol\":2860:2864  self */\n      dup10\n        /* \"Library/ProposalLibrary.sol\":2860:2873  self.candHash */\n      0x08\n      add\n        /* \"Library/ProposalLibrary.sol\":2860:2876  self.candHash[i] */\n      0x00\n        /* \"Library/ProposalLibrary.sol\":2874:2875  i */\n      dup5\n        /* \"Library/ProposalLibrary.sol\":2860:2876  self.candHash[i] */\n      0xffff\n      and\n      dup2\n      mstore\n      0x20\n      add\n      swap1\n      dup2\n      mstore\n      0x20\n      add\n      0x00\n      keccak256\n        /* \"Library/ProposalLibrary.sol\":2849:2877  self.votes[self.candHash[i]] */\n      mload(0x40)\n      tag_227\n      swap2\n      swap1\n      tag_214\n      jump\t// in\n    tag_227:\n      swap1\n      dup2\n      mstore\n      0x20\n      add\n      mload(0x40)\n      dup1\n      swap2\n      sub\n      swap1\n      keccak256\n      sload\n        /* \"Library/ProposalLibrary.sol\":2849:2893  self.votes[self.candHash[i]] == largestCount */\n      eq\n        /* \"Library/ProposalLibrary.sol\":2846:3016  if(self.votes[self.candHash[i]] == largestCount){\r... */\n      iszero\n      tag_228\n      jumpi\n        /* \"Library/ProposalLibrary.sol\":2917:2930  winnerCount++ */\n      dup2\n      dup1\n      tag_229\n      swap1\n      tag_89\n      jump\t// in\n    tag_229:\n      swap3\n      pop\n      pop\n        /* \"Library/ProposalLibrary.sol\":2980:2984  self */\n      dup8\n        /* \"Library/ProposalLibrary.sol\":2980:2993  self.candHash */\n      0x08\n      add\n        /* \"Library/ProposalLibrary.sol\":2980:2996  self.candHash[i] */\n      0x00\n        /* \"Library/ProposalLibrary.sol\":2994:2995  i */\n      dup3\n        /* \"Library/ProposalLibrary.sol\":2980:2996  self.candHash[i] */\n      0xffff\n      and\n      dup2\n      mstore\n      0x20\n      add\n      swap1\n      dup2\n      mstore\n      0x20\n      add\n      0x00\n      keccak256\n        /* \"Library/ProposalLibrary.sol\":2953:2957  self */\n      dup9\n        /* \"Library/ProposalLibrary.sol\":2953:2964  self.result */\n      0x09\n      add\n        /* \"Library/ProposalLibrary.sol\":2953:2977  self.result[winnerCount] */\n      0x00\n        /* \"Library/ProposalLibrary.sol\":2965:2976  winnerCount */\n      dup5\n        /* \"Library/ProposalLibrary.sol\":2953:2977  self.result[winnerCount] */\n      dup2\n      mstore\n      0x20\n      add\n      swap1\n      dup2\n      mstore\n      0x20\n      add\n      0x00\n      keccak256\n        /* \"Library/ProposalLibrary.sol\":2953:2996  self.result[winnerCount] = self.candHash[i] */\n      swap1\n      dup1\n      sload\n      tag_230\n      swap1\n      tag_65\n      jump\t// in\n    tag_230:\n      tag_231\n      swap3\n      swap2\n      swap1\n      tag_217\n      jump\t// in\n    tag_231:\n      pop\n        /* \"Library/ProposalLibrary.sol\":2846:3016  if(self.votes[self.candHash[i]] == largestCount){\r... */\n    tag_228:\n        /* \"Library/ProposalLibrary.sol\":2614:3016  if(self.votes[self.candHash[i]] > largestCount){\r... */\n    tag_226:\n        /* \"Library/ProposalLibrary.sol\":2591:2594  i++ */\n      dup1\n      dup1\n      tag_232\n      swap1\n      tag_233\n      jump\t// in\n    tag_232:\n      swap2\n      pop\n      pop\n        /* \"Library/ProposalLibrary.sol\":2549:3031  for(uint16 i = 2; i <= self.numOfOptions; i++){\r... */\n      jump(tag_218)\n    tag_219:\n      pop\n        /* \"Library/ProposalLibrary.sol\":3052:3057  false */\n      0x00\n        /* \"Library/ProposalLibrary.sol\":3045:3057  return false */\n      swap3\n      pop\n      pop\n      pop\n      jump(tag_208)\n        /* \"Library/ProposalLibrary.sol\":2214:3069  if(block.timestamp > self.expirationTime){\r... */\n    tag_212:\n        /* \"Library/ProposalLibrary.sol\":3112:3116  self */\n      dup5\n        /* \"Library/ProposalLibrary.sol\":3112:3123  self.voters */\n      0x06\n      add\n        /* \"Library/ProposalLibrary.sol\":3112:3131  self.voters[_voter] */\n      0x00\n        /* \"Library/ProposalLibrary.sol\":3124:3130  _voter */\n      dup6\n        /* \"Library/ProposalLibrary.sol\":3112:3131  self.voters[_voter] */\n      0xffffffffffffffffffffffffffffffffffffffff\n      and\n      0xffffffffffffffffffffffffffffffffffffffff\n      and\n      dup2\n      mstore\n      0x20\n      add\n      swap1\n      dup2\n      mstore\n      0x20\n      add\n      0x00\n      keccak256\n      0x00\n      swap1\n      sload\n      swap1\n      0x0100\n      exp\n      swap1\n      div\n      0xff\n      and\n        /* \"Library/ProposalLibrary.sol\":3104:3171  require(self.voters[_voter], \"Not a valid voter for this proposal\") */\n      tag_234\n      jumpi\n      mload(0x40)\n      0x08c379a000000000000000000000000000000000000000000000000000000000\n      dup2\n      mstore\n      0x04\n      add\n      tag_235\n      swap1\n      tag_236\n      jump\t// in\n    tag_235:\n      mload(0x40)\n      dup1\n      swap2\n      sub\n      swap1\n      revert\n    tag_234:\n        /* \"Library/ProposalLibrary.sol\":3188:3196  uint16 i */\n      0x00\n        /* \"Library/ProposalLibrary.sol\":3184:3341  for(uint16 i=0;i<self.numOfOptions;i++){\r... */\n    tag_237:\n        /* \"Library/ProposalLibrary.sol\":3201:3205  self */\n      dup6\n        /* \"Library/ProposalLibrary.sol\":3201:3218  self.numOfOptions */\n      0x04\n      add\n      0x00\n      swap1\n      sload\n      swap1\n      0x0100\n      exp\n      swap1\n      div\n      0xffff\n      and\n        /* \"Library/ProposalLibrary.sol\":3199:3218  i<self.numOfOptions */\n      0xffff\n      and\n        /* \"Library/ProposalLibrary.sol\":3199:3200  i */\n      dup2\n        /* \"Library/ProposalLibrary.sol\":3199:3218  i<self.numOfOptions */\n      0xffff\n      and\n      lt\n        /* \"Library/ProposalLibrary.sol\":3184:3341  for(uint16 i=0;i<self.numOfOptions;i++){\r... */\n      iszero\n      tag_238\n      jumpi\n        /* \"Library/ProposalLibrary.sol\":3242:3246  self */\n      dup6\n        /* \"Library/ProposalLibrary.sol\":3242:3251  self.cand */\n      0x07\n      add\n        /* \"Library/ProposalLibrary.sol\":3252:3257  _hash */\n      dup5\n        /* \"Library/ProposalLibrary.sol\":3258:3259  i */\n      dup3\n        /* \"Library/ProposalLibrary.sol\":3252:3260  _hash[i] */\n      0xffff\n      and\n      dup2\n      mload\n      dup2\n      lt\n      tag_240\n      jumpi\n      tag_241\n      tag_100\n      jump\t// in\n    tag_241:\n    tag_240:\n      0x20\n      mul\n      0x20\n      add\n      add\n      mload\n        /* \"Library/ProposalLibrary.sol\":3242:3261  self.cand[_hash[i]] */\n      mload(0x40)\n      tag_242\n      swap2\n      swap1\n      tag_243\n      jump\t// in\n    tag_242:\n      swap1\n      dup2\n      mstore\n      0x20\n      add\n      mload(0x40)\n      dup1\n      swap2\n      sub\n      swap1\n      keccak256\n      0x00\n      swap1\n      sload\n      swap1\n      0x0100\n      exp\n      swap1\n      div\n      0xff\n      and\n        /* \"Library/ProposalLibrary.sol\":3234:3293  require(self.cand[_hash[i]], \"Proposal: invalid candidate\") */\n      tag_244\n      jumpi\n      mload(0x40)\n      0x08c379a000000000000000000000000000000000000000000000000000000000\n      dup2\n      mstore\n      0x04\n      add\n      tag_245\n      swap1\n      tag_246\n      jump\t// in\n    tag_245:\n      mload(0x40)\n      dup1\n      swap2\n      sub\n      swap1\n      revert\n    tag_244:\n        /* \"Library/ProposalLibrary.sol\":3325:3326  v */\n      dup3\n        /* \"Library/ProposalLibrary.sol\":3327:3328  i */\n      dup2\n        /* \"Library/ProposalLibrary.sol\":3325:3329  v[i] */\n      0xffff\n      and\n      dup2\n      mload\n      dup2\n      lt\n      tag_247\n      jumpi\n      tag_248\n      tag_100\n      jump\t// in\n    tag_248:\n    tag_247:\n      0x20\n      mul\n      0x20\n      add\n      add\n      mload\n        /* \"Library/ProposalLibrary.sol\":3304:3308  self */\n      dup7\n        /* \"Library/ProposalLibrary.sol\":3304:3314  self.votes */\n      0x0a\n      add\n        /* \"Library/ProposalLibrary.sol\":3315:3320  _hash */\n      dup6\n        /* \"Library/ProposalLibrary.sol\":3321:3322  i */\n      dup4\n        /* \"Library/ProposalLibrary.sol\":3315:3323  _hash[i] */\n      0xffff\n      and\n      dup2\n      mload\n      dup2\n      lt\n      tag_249\n      jumpi\n      tag_250\n      tag_100\n      jump\t// in\n    tag_250:\n    tag_249:\n      0x20\n      mul\n      0x20\n      add\n      add\n      mload\n        /* \"Library/ProposalLibrary.sol\":3304:3324  self.votes[_hash[i]] */\n      mload(0x40)\n      tag_251\n      swap2\n      swap1\n      tag_243\n      jump\t// in\n    tag_251:\n      swap1\n      dup2\n      mstore\n      0x20\n      add\n      mload(0x40)\n      dup1\n      swap2\n      sub\n      swap1\n      keccak256\n        /* \"Library/ProposalLibrary.sol\":3304:3329  self.votes[_hash[i]]=v[i] */\n      dup2\n      swap1\n      sstore\n      pop\n        /* \"Library/ProposalLibrary.sol\":3219:3222  i++ */\n      dup1\n      dup1\n      tag_252\n      swap1\n      tag_233\n      jump\t// in\n    tag_252:\n      swap2\n      pop\n      pop\n        /* \"Library/ProposalLibrary.sol\":3184:3341  for(uint16 i=0;i<self.numOfOptions;i++){\r... */\n      jump(tag_237)\n    tag_238:\n      pop\n        /* \"Library/ProposalLibrary.sol\":3358:3362  true */\n      0x01\n        /* \"Library/ProposalLibrary.sol\":3351:3362  return true */\n      swap1\n      pop\n        /* \"Library/ProposalLibrary.sol\":2018:3370  function responseProposal(proposal storage self, address _voter, string[] memory _hash, uint[] memory v) internal returns(bool){\r... */\n    tag_208:\n      swap5\n      swap4\n      pop\n      pop\n      pop\n      pop\n      jump\t// out\n        /* \"Library/UserProposalLibrary.sol\":802:1377  function updateResponseList(UserProposal storage self, uint _proposalId, string[] memory _hash) internal returns(bool){\r... */\n    tag_149:\n        /* \"Library/UserProposalLibrary.sol\":915:919  bool */\n      0x00\n        /* \"Library/UserProposalLibrary.sol\":931:935  self */\n      dup4\n        /* \"Library/UserProposalLibrary.sol\":931:949  self.responseCount */\n      0x00\n      add\n      0x10\n        /* \"Library/UserProposalLibrary.sol\":931:951  self.responseCount++ */\n      dup2\n      dup2\n      swap1\n      sload\n      swap1\n      0x0100\n      exp\n      swap1\n      div\n      0xffffffffffffffffffffffffffffffff\n      and\n      dup1\n      swap3\n      swap2\n      swap1\n      tag_254\n      swap1\n      tag_207\n      jump\t// in\n    tag_254:\n      swap2\n      swap1\n      0x0100\n      exp\n      dup2\n      sload\n      dup2\n      0xffffffffffffffffffffffffffffffff\n      mul\n      not\n      and\n      swap1\n      dup4\n      0xffffffffffffffffffffffffffffffff\n      and\n      mul\n      or\n      swap1\n      sstore\n      pop\n      pop\n        /* \"Library/UserProposalLibrary.sol\":1009:1020  _proposalId */\n      dup3\n        /* \"Library/UserProposalLibrary.sol\":964:968  self */\n      dup5\n        /* \"Library/UserProposalLibrary.sol\":964:986  self.proposalResponsed */\n      0x02\n      add\n        /* \"Library/UserProposalLibrary.sol\":964:1006  self.proposalResponsed[self.responseCount] */\n      0x00\n        /* \"Library/UserProposalLibrary.sol\":987:991  self */\n      dup7\n        /* \"Library/UserProposalLibrary.sol\":987:1005  self.responseCount */\n      0x00\n      add\n      0x10\n      swap1\n      sload\n      swap1\n      0x0100\n      exp\n      swap1\n      div\n      0xffffffffffffffffffffffffffffffff\n      and\n        /* \"Library/UserProposalLibrary.sol\":964:1006  self.proposalResponsed[self.responseCount] */\n      0xffffffffffffffffffffffffffffffff\n      and\n      0xffffffffffffffffffffffffffffffff\n      and\n      dup2\n      mstore\n      0x20\n      add\n      swap1\n      dup2\n      mstore\n      0x20\n      add\n      0x00\n      keccak256\n        /* \"Library/UserProposalLibrary.sol\":964:1020  self.proposalResponsed[self.responseCount] = _proposalId */\n      dup2\n      swap1\n      sstore\n      pop\n        /* \"Library/UserProposalLibrary.sol\":1190:1198  uint16 i */\n      0x00\n        /* \"Library/UserProposalLibrary.sol\":1186:1295  for(uint16 i=0;i<_hash.length;i++){\r... */\n    tag_255:\n        /* \"Library/UserProposalLibrary.sol\":1203:1208  _hash */\n      dup3\n        /* \"Library/UserProposalLibrary.sol\":1203:1215  _hash.length */\n      mload\n        /* \"Library/UserProposalLibrary.sol\":1201:1202  i */\n      dup2\n        /* \"Library/UserProposalLibrary.sol\":1201:1215  i<_hash.length */\n      0xffff\n      and\n      lt\n        /* \"Library/UserProposalLibrary.sol\":1186:1295  for(uint16 i=0;i<_hash.length;i++){\r... */\n      iszero\n      tag_256\n      jumpi\n        /* \"Library/UserProposalLibrary.sol\":1275:1280  _hash */\n      dup3\n        /* \"Library/UserProposalLibrary.sol\":1281:1282  i */\n      dup2\n        /* \"Library/UserProposalLibrary.sol\":1275:1283  _hash[i] */\n      0xffff\n      and\n      dup2\n      mload\n      dup2\n      lt\n      tag_258\n      jumpi\n      tag_259\n      tag_100\n      jump\t// in\n    tag_259:\n    tag_258:\n      0x20\n      mul\n      0x20\n      add\n      add\n      mload\n        /* \"Library/UserProposalLibrary.sol\":1235:1239  self */\n      dup6\n        /* \"Library/UserProposalLibrary.sol\":1235:1254  self.proposalAnswer */\n      0x03\n      add\n        /* \"Library/UserProposalLibrary.sol\":1235:1267  self.proposalAnswer[_proposalId] */\n      0x00\n        /* \"Library/UserProposalLibrary.sol\":1255:1266  _proposalId */\n      dup7\n        /* \"Library/UserProposalLibrary.sol\":1235:1267  self.proposalAnswer[_proposalId] */\n      dup2\n      mstore\n      0x20\n      add\n      swap1\n      dup2\n      mstore\n      0x20\n      add\n      0x00\n      keccak256\n        /* \"Library/UserProposalLibrary.sol\":1235:1272  self.proposalAnswer[_proposalId][i+1] */\n      0x00\n        /* \"Library/UserProposalLibrary.sol\":1270:1271  1 */\n      0x01\n        /* \"Library/UserProposalLibrary.sol\":1268:1269  i */\n      dup5\n        /* \"Library/UserProposalLibrary.sol\":1268:1271  i+1 */\n      tag_260\n      swap2\n      swap1\n      tag_261\n      jump\t// in\n    tag_260:\n        /* \"Library/UserProposalLibrary.sol\":1235:1272  self.proposalAnswer[_proposalId][i+1] */\n      0xffff\n      and\n      dup2\n      mstore\n      0x20\n      add\n      swap1\n      dup2\n      mstore\n      0x20\n      add\n      0x00\n      keccak256\n        /* \"Library/UserProposalLibrary.sol\":1235:1283  self.proposalAnswer[_proposalId][i+1] = _hash[i] */\n      swap1\n      dup1\n      mload\n      swap1\n      0x20\n      add\n      swap1\n      tag_262\n      swap3\n      swap2\n      swap1\n      tag_174\n      jump\t// in\n    tag_262:\n      pop\n        /* \"Library/UserProposalLibrary.sol\":1216:1219  i++ */\n      dup1\n      dup1\n      tag_263\n      swap1\n      tag_233\n      jump\t// in\n    tag_263:\n      swap2\n      pop\n      pop\n        /* \"Library/UserProposalLibrary.sol\":1186:1295  for(uint16 i=0;i<_hash.length;i++){\r... */\n      jump(tag_255)\n    tag_256:\n      pop\n        /* \"Library/UserProposalLibrary.sol\":1343:1347  true */\n      0x01\n        /* \"Library/UserProposalLibrary.sol\":1305:1309  self */\n      dup5\n        /* \"Library/UserProposalLibrary.sol\":1305:1327  self.responsedProposal */\n      0x04\n      add\n        /* \"Library/UserProposalLibrary.sol\":1305:1340  self.responsedProposal[_proposalId] */\n      0x00\n        /* \"Library/UserProposalLibrary.sol\":1328:1339  _proposalId */\n      dup6\n        /* \"Library/UserProposalLibrary.sol\":1305:1340  self.responsedProposal[_proposalId] */\n      dup2\n      mstore\n      0x20\n      add\n      swap1\n      dup2\n      mstore\n      0x20\n      add\n      0x00\n      keccak256\n      0x00\n        /* \"Library/UserProposalLibrary.sol\":1305:1347  self.responsedProposal[_proposalId] = true */\n      0x0100\n      exp\n      dup2\n      sload\n      dup2\n      0xff\n      mul\n      not\n      and\n      swap1\n      dup4\n      iszero\n      iszero\n      mul\n      or\n      swap1\n      sstore\n      pop\n        /* \"Library/UserProposalLibrary.sol\":1365:1369  true */\n      0x01\n        /* \"Library/UserProposalLibrary.sol\":1358:1369  return true */\n      swap1\n      pop\n        /* \"Library/UserProposalLibrary.sol\":802:1377  function updateResponseList(UserProposal storage self, uint _proposalId, string[] memory _hash) internal returns(bool){\r... */\n      swap4\n      swap3\n      pop\n      pop\n      pop\n      jump\t// out\n        /* \"Library/VoterLibrary.sol\":832:1063  function updateVoteNum(voter storage self) internal returns(bool){\r... */\n    tag_151:\n        /* \"Library/VoterLibrary.sol\":892:896  bool */\n      0x00\n        /* \"Library/VoterLibrary.sol\":931:932  0 */\n      dup1\n        /* \"Library/VoterLibrary.sol\":914:918  self */\n      dup3\n        /* \"Library/VoterLibrary.sol\":914:929  self.proposalId */\n      0x00\n      add\n      sload\n        /* \"Library/VoterLibrary.sol\":914:932  self.proposalId!=0 */\n      eq\n      iszero\n        /* \"Library/VoterLibrary.sol\":906:965  require(self.proposalId!=0,\"Invalid voter for proposalId!\") */\n      tag_265\n      jumpi\n      mload(0x40)\n      0x08c379a000000000000000000000000000000000000000000000000000000000\n      dup2\n      mstore\n      0x04\n      add\n      tag_266\n      swap1\n      tag_267\n      jump\t// in\n    tag_266:\n      mload(0x40)\n      dup1\n      swap2\n      sub\n      swap1\n      revert\n    tag_265:\n        /* \"Library/VoterLibrary.sol\":983:987  self */\n      dup2\n        /* \"Library/VoterLibrary.sol\":983:996  self.hasVoted */\n      0x01\n      add\n      0x14\n      swap1\n      sload\n      swap1\n      0x0100\n      exp\n      swap1\n      div\n      0xff\n      and\n        /* \"Library/VoterLibrary.sol\":982:996  !self.hasVoted */\n      iszero\n        /* \"Library/VoterLibrary.sol\":974:1010  require(!self.hasVoted, \"not voted\") */\n      tag_268\n      jumpi\n      mload(0x40)\n      0x08c379a000000000000000000000000000000000000000000000000000000000\n      dup2\n      mstore\n      0x04\n      add\n      tag_269\n      swap1\n      tag_270\n      jump\t// in\n    tag_269:\n      mload(0x40)\n      dup1\n      swap2\n      sub\n      swap1\n      revert\n    tag_268:\n        /* \"Library/VoterLibrary.sol\":1034:1035  0 */\n      0x00\n        /* \"Library/VoterLibrary.sol\":1019:1023  self */\n      dup3\n        /* \"Library/VoterLibrary.sol\":1019:1031  self.voteNum */\n      0x02\n      add\n        /* \"Library/VoterLibrary.sol\":1019:1035  self.voteNum = 0 */\n      dup2\n      swap1\n      sstore\n      pop\n        /* \"Library/VoterLibrary.sol\":1051:1055  true */\n      0x01\n        /* \"Library/VoterLibrary.sol\":1044:1055  return true */\n      swap1\n      pop\n        /* \"Library/VoterLibrary.sol\":832:1063  function updateVoteNum(voter storage self) internal returns(bool){\r... */\n      swap2\n      swap1\n      pop\n      jump\t// out\n        /* \"QvToken/QvToken.sol\":510:613  function burn(address to,uint amount) onlyOwner(_msgSender()) internal {\r... */\n    tag_153:\n        /* \"QvToken/QvToken.sol\":558:570  _msgSender() */\n      tag_271\n        /* \"QvToken/QvToken.sol\":558:568  _msgSender */\n      tag_115\n        /* \"QvToken/QvToken.sol\":558:570  _msgSender() */\n      jump\t// in\n    tag_271:\n        /* \"QvToken/QvToken.sol\":366:375  msgSender */\n      dup1\n        /* \"QvToken/QvToken.sol\":357:375  owner == msgSender */\n      0xffffffffffffffffffffffffffffffffffffffff\n      and\n        /* \"QvToken/QvToken.sol\":357:362  owner */\n      0x04\n      0x00\n      swap1\n      sload\n      swap1\n      0x0100\n      exp\n      swap1\n      div\n      0xffffffffffffffffffffffffffffffffffffffff\n      and\n        /* \"QvToken/QvToken.sol\":357:375  owner == msgSender */\n      0xffffffffffffffffffffffffffffffffffffffff\n      and\n      eq\n        /* \"QvToken/QvToken.sol\":349:376  require(owner == msgSender) */\n      tag_273\n      jumpi\n      0x00\n      dup1\n      revert\n    tag_273:\n        /* \"QvToken/QvToken.sol\":588:605  _burn(to, amount) */\n      tag_275\n        /* \"QvToken/QvToken.sol\":594:596  to */\n      dup4\n        /* \"QvToken/QvToken.sol\":598:604  amount */\n      dup4\n        /* \"QvToken/QvToken.sol\":588:593  _burn */\n      tag_276\n        /* \"QvToken/QvToken.sol\":588:605  _burn(to, amount) */\n      jump\t// in\n    tag_275:\n        /* \"QvToken/QvToken.sol\":510:613  function burn(address to,uint amount) onlyOwner(_msgSender()) internal {\r... */\n      pop\n      pop\n      pop\n      jump\t// out\n        /* \"QvToken/ERC20.sol\":3630:4033  function _mint(address account, uint256 amount) internal virtual {\r... */\n    tag_202:\n        /* \"QvToken/ERC20.sol\":3733:3734  0 */\n      0x00\n        /* \"QvToken/ERC20.sol\":3714:3735  account != address(0) */\n      0xffffffffffffffffffffffffffffffffffffffff\n      and\n        /* \"QvToken/ERC20.sol\":3714:3721  account */\n      dup3\n        /* \"QvToken/ERC20.sol\":3714:3735  account != address(0) */\n      0xffffffffffffffffffffffffffffffffffffffff\n      and\n      eq\n      iszero\n        /* \"QvToken/ERC20.sol\":3706:3771  require(account != address(0), \"ERC20: mint to the zero address\") */\n      tag_278\n      jumpi\n      mload(0x40)\n      0x08c379a000000000000000000000000000000000000000000000000000000000\n      dup2\n      mstore\n      0x04\n      add\n      tag_279\n      swap1\n      tag_280\n      jump\t// in\n    tag_279:\n      mload(0x40)\n      dup1\n      swap2\n      sub\n      swap1\n      revert\n    tag_278:\n        /* \"QvToken/ERC20.sol\":3865:3871  amount */\n      dup1\n        /* \"QvToken/ERC20.sol\":3849:3861  _totalSupply */\n      0x01\n      0x00\n        /* \"QvToken/ERC20.sol\":3849:3871  _totalSupply += amount */\n      dup3\n      dup3\n      sload\n      tag_281\n      swap2\n      swap1\n      tag_140\n      jump\t// in\n    tag_281:\n      swap3\n      pop\n      pop\n      dup2\n      swap1\n      sstore\n      pop\n        /* \"QvToken/ERC20.sol\":3904:3910  amount */\n      dup1\n        /* \"QvToken/ERC20.sol\":3882:3891  _balances */\n      0x00\n        /* \"QvToken/ERC20.sol\":3882:3900  _balances[account] */\n      dup1\n        /* \"QvToken/ERC20.sol\":3892:3899  account */\n      dup5\n        /* \"QvToken/ERC20.sol\":3882:3900  _balances[account] */\n      0xffffffffffffffffffffffffffffffffffffffff\n      and\n      0xffffffffffffffffffffffffffffffffffffffff\n      and\n      dup2\n      mstore\n      0x20\n      add\n      swap1\n      dup2\n      mstore\n      0x20\n      add\n      0x00\n      keccak256\n      0x00\n        /* \"QvToken/ERC20.sol\":3882:3910  _balances[account] += amount */\n      dup3\n      dup3\n      sload\n      tag_282\n      swap2\n      swap1\n      tag_140\n      jump\t// in\n    tag_282:\n      swap3\n      pop\n      pop\n      dup2\n      swap1\n      sstore\n      pop\n        /* \"QvToken/ERC20.sol\":3926:3961  mintAndburn(\"mint\",account, amount) */\n      0xabf5327be9f5825c40d58bda541dd07f09b62df3376bbd5ecdbaa8bd82a9d492\n        /* \"QvToken/ERC20.sol\":3945:3952  account */\n      dup3\n        /* \"QvToken/ERC20.sol\":3954:3960  amount */\n      dup3\n        /* \"QvToken/ERC20.sol\":3926:3961  mintAndburn(\"mint\",account, amount) */\n      mload(0x40)\n      tag_283\n      swap3\n      swap2\n      swap1\n      tag_111\n      jump\t// in\n    tag_283:\n      mload(0x40)\n      dup1\n      swap2\n      sub\n      swap1\n      log1\n        /* \"QvToken/ERC20.sol\":3630:4033  function _mint(address account, uint256 amount) internal virtual {\r... */\n      pop\n      pop\n      jump\t// out\n        /* \"QvToken/ERC20.sol\":4045:4640  function _burn(address account, uint256 amount) internal virtual {\r... */\n    tag_276:\n        /* \"QvToken/ERC20.sol\":4148:4149  0 */\n      0x00\n        /* \"QvToken/ERC20.sol\":4129:4150  account != address(0) */\n      0xffffffffffffffffffffffffffffffffffffffff\n      and\n        /* \"QvToken/ERC20.sol\":4129:4136  account */\n      dup3\n        /* \"QvToken/ERC20.sol\":4129:4150  account != address(0) */\n      0xffffffffffffffffffffffffffffffffffffffff\n      and\n      eq\n      iszero\n        /* \"QvToken/ERC20.sol\":4121:4188  require(account != address(0), \"ERC20: burn from the zero address\") */\n      tag_285\n      jumpi\n      mload(0x40)\n      0x08c379a000000000000000000000000000000000000000000000000000000000\n      dup2\n      mstore\n      0x04\n      add\n      tag_286\n      swap1\n      tag_287\n      jump\t// in\n    tag_286:\n      mload(0x40)\n      dup1\n      swap2\n      sub\n      swap1\n      revert\n    tag_285:\n        /* \"QvToken/ERC20.sol\":4266:4288  uint256 accountBalance */\n      0x00\n        /* \"QvToken/ERC20.sol\":4291:4300  _balances */\n      dup1\n        /* \"QvToken/ERC20.sol\":4291:4309  _balances[account] */\n      0x00\n        /* \"QvToken/ERC20.sol\":4301:4308  account */\n      dup5\n        /* \"QvToken/ERC20.sol\":4291:4309  _balances[account] */\n      0xffffffffffffffffffffffffffffffffffffffff\n      and\n      0xffffffffffffffffffffffffffffffffffffffff\n      and\n      dup2\n      mstore\n      0x20\n      add\n      swap1\n      dup2\n      mstore\n      0x20\n      add\n      0x00\n      keccak256\n      sload\n        /* \"QvToken/ERC20.sol\":4266:4309  uint256 accountBalance = _balances[account] */\n      swap1\n      pop\n        /* \"QvToken/ERC20.sol\":4346:4352  amount */\n      dup2\n        /* \"QvToken/ERC20.sol\":4328:4342  accountBalance */\n      dup2\n        /* \"QvToken/ERC20.sol\":4328:4352  accountBalance >= amount */\n      lt\n      iszero\n        /* \"QvToken/ERC20.sol\":4320:4391  require(accountBalance >= amount, \"ERC20: burn amount exceeds balance\") */\n      tag_288\n      jumpi\n      mload(0x40)\n      0x08c379a000000000000000000000000000000000000000000000000000000000\n      dup2\n      mstore\n      0x04\n      add\n      tag_289\n      swap1\n      tag_290\n      jump\t// in\n    tag_289:\n      mload(0x40)\n      dup1\n      swap2\n      sub\n      swap1\n      revert\n    tag_288:\n        /* \"QvToken/ERC20.sol\":4465:4471  amount */\n      dup2\n        /* \"QvToken/ERC20.sol\":4448:4462  accountBalance */\n      dup2\n        /* \"QvToken/ERC20.sol\":4448:4471  accountBalance - amount */\n      sub\n        /* \"QvToken/ERC20.sol\":4427:4436  _balances */\n      0x00\n        /* \"QvToken/ERC20.sol\":4427:4445  _balances[account] */\n      dup1\n        /* \"QvToken/ERC20.sol\":4437:4444  account */\n      dup6\n        /* \"QvToken/ERC20.sol\":4427:4445  _balances[account] */\n      0xffffffffffffffffffffffffffffffffffffffff\n      and\n      0xffffffffffffffffffffffffffffffffffffffff\n      and\n      dup2\n      mstore\n      0x20\n      add\n      swap1\n      dup2\n      mstore\n      0x20\n      add\n      0x00\n      keccak256\n        /* \"QvToken/ERC20.sol\":4427:4471  _balances[account] = accountBalance - amount */\n      dup2\n      swap1\n      sstore\n      pop\n        /* \"QvToken/ERC20.sol\":4509:4515  amount */\n      dup2\n        /* \"QvToken/ERC20.sol\":4493:4505  _totalSupply */\n      0x01\n      0x00\n        /* \"QvToken/ERC20.sol\":4493:4515  _totalSupply -= amount */\n      dup3\n      dup3\n      sload\n      tag_291\n      swap2\n      swap1\n      tag_292\n      jump\t// in\n    tag_291:\n      swap3\n      pop\n      pop\n      dup2\n      swap1\n      sstore\n      pop\n        /* \"QvToken/ERC20.sol\":4533:4568  mintAndburn(\"burn\",account, amount) */\n      0xabf5327be9f5825c40d58bda541dd07f09b62df3376bbd5ecdbaa8bd82a9d492\n        /* \"QvToken/ERC20.sol\":4552:4559  account */\n      dup4\n        /* \"QvToken/ERC20.sol\":4561:4567  amount */\n      dup4\n        /* \"QvToken/ERC20.sol\":4533:4568  mintAndburn(\"burn\",account, amount) */\n      mload(0x40)\n      tag_293\n      swap3\n      swap2\n      swap1\n      tag_155\n      jump\t// in\n    tag_293:\n      mload(0x40)\n      dup1\n      swap2\n      sub\n      swap1\n      log1\n        /* \"QvToken/ERC20.sol\":4110:4640  {\r... */\n      pop\n        /* \"QvToken/ERC20.sol\":4045:4640  function _burn(address account, uint256 amount) internal virtual {\r... */\n      pop\n      pop\n      jump\t// out\n    tag_174:\n      dup3\n      dup1\n      sload\n      tag_294\n      swap1\n      tag_65\n      jump\t// in\n    tag_294:\n      swap1\n      0x00\n      mstore\n      keccak256(0x00, 0x20)\n      swap1\n      0x1f\n      add\n      0x20\n      swap1\n      div\n      dup2\n      add\n      swap3\n      dup3\n      tag_296\n      jumpi\n      0x00\n      dup6\n      sstore\n      jump(tag_295)\n    tag_296:\n      dup3\n      0x1f\n      lt\n      tag_297\n      jumpi\n      dup1\n      mload\n      not(0xff)\n      and\n      dup4\n      dup1\n      add\n      or\n      dup6\n      sstore\n      jump(tag_295)\n    tag_297:\n      dup3\n      dup1\n      add\n      0x01\n      add\n      dup6\n      sstore\n      dup3\n      iszero\n      tag_295\n      jumpi\n      swap2\n      dup3\n      add\n    tag_298:\n      dup3\n      dup2\n      gt\n      iszero\n      tag_299\n      jumpi\n      dup3\n      mload\n      dup3\n      sstore\n      swap2\n      0x20\n      add\n      swap2\n      swap1\n      0x01\n      add\n      swap1\n      jump(tag_298)\n    tag_299:\n    tag_295:\n      pop\n      swap1\n      pop\n      tag_300\n      swap2\n      swap1\n      tag_301\n      jump\t// in\n    tag_300:\n      pop\n      swap1\n      jump\t// out\n    tag_189:\n      dup3\n      dup1\n      sload\n      tag_302\n      swap1\n      tag_65\n      jump\t// in\n    tag_302:\n      swap1\n      0x00\n      mstore\n      keccak256(0x00, 0x20)\n      swap1\n      0x1f\n      add\n      0x20\n      swap1\n      div\n      dup2\n      add\n      swap3\n      dup3\n      tag_304\n      jumpi\n      0x00\n      dup6\n      sstore\n      jump(tag_303)\n    tag_304:\n      dup3\n      0x1f\n      lt\n      tag_305\n      jumpi\n      dup1\n      calldataload\n      not(0xff)\n      and\n      dup4\n      dup1\n      add\n      or\n      dup6\n      sstore\n      jump(tag_303)\n    tag_305:\n      dup3\n      dup1\n      add\n      0x01\n      add\n      dup6\n      sstore\n      dup3\n      iszero\n      tag_303\n      jumpi\n      swap2\n      dup3\n      add\n    tag_306:\n      dup3\n      dup2\n      gt\n      iszero\n      tag_307\n      jumpi\n      dup3\n      calldataload\n      dup3\n      sstore\n      swap2\n      0x20\n      add\n      swap2\n      swap1\n      0x01\n      add\n      swap1\n      jump(tag_306)\n    tag_307:\n    tag_303:\n      pop\n      swap1\n      pop\n      tag_308\n      swap2\n      swap1\n      tag_301\n      jump\t// in\n    tag_308:\n      pop\n      swap1\n      jump\t// out\n    tag_217:\n      dup3\n      dup1\n      sload\n      tag_309\n      swap1\n      tag_65\n      jump\t// in\n    tag_309:\n      swap1\n      0x00\n      mstore\n      keccak256(0x00, 0x20)\n      swap1\n      0x1f\n      add\n      0x20\n      swap1\n      div\n      dup2\n      add\n      swap3\n      dup3\n      tag_311\n      jumpi\n      0x00\n      dup6\n      sstore\n      jump(tag_310)\n    tag_311:\n      dup3\n      0x1f\n      lt\n      tag_312\n      jumpi\n      dup1\n      sload\n      dup6\n      sstore\n      jump(tag_310)\n    tag_312:\n      dup3\n      dup1\n      add\n      0x01\n      add\n      dup6\n      sstore\n      dup3\n      iszero\n      tag_310\n      jumpi\n      0x00\n      mstore\n      keccak256(0x00, 0x20)\n      swap2\n      0x1f\n      add\n      0x20\n      swap1\n      div\n      dup3\n      add\n    tag_313:\n      dup3\n      dup2\n      gt\n      iszero\n      tag_314\n      jumpi\n      dup3\n      sload\n      dup3\n      sstore\n      swap2\n      0x01\n      add\n      swap2\n      swap1\n      0x01\n      add\n      swap1\n      jump(tag_313)\n    tag_314:\n    tag_310:\n      pop\n      swap1\n      pop\n      tag_315\n      swap2\n      swap1\n      tag_301\n      jump\t// in\n    tag_315:\n      pop\n      swap1\n      jump\t// out\n    tag_301:\n    tag_316:\n      dup1\n      dup3\n      gt\n      iszero\n      tag_317\n      jumpi\n      0x00\n      dup2\n      0x00\n      swap1\n      sstore\n      pop\n      0x01\n      add\n      jump(tag_316)\n    tag_317:\n      pop\n      swap1\n      jump\t// out\n        /* \"#utility.yul\":24:746   */\n    tag_319:\n        /* \"#utility.yul\":120:125   */\n      0x00\n        /* \"#utility.yul\":145:226   */\n      tag_321\n        /* \"#utility.yul\":161:225   */\n      tag_322\n        /* \"#utility.yul\":218:224   */\n      dup5\n        /* \"#utility.yul\":161:225   */\n      tag_323\n      jump\t// in\n    tag_322:\n        /* \"#utility.yul\":145:226   */\n      tag_324\n      jump\t// in\n    tag_321:\n        /* \"#utility.yul\":136:226   */\n      swap1\n      pop\n        /* \"#utility.yul\":246:251   */\n      dup1\n        /* \"#utility.yul\":275:281   */\n      dup4\n        /* \"#utility.yul\":268:273   */\n      dup3\n        /* \"#utility.yul\":261:282   */\n      mstore\n        /* \"#utility.yul\":309:313   */\n      0x20\n        /* \"#utility.yul\":302:307   */\n      dup3\n        /* \"#utility.yul\":298:314   */\n      add\n        /* \"#utility.yul\":291:314   */\n      swap1\n      pop\n        /* \"#utility.yul\":335:341   */\n      dup3\n        /* \"#utility.yul\":385:388   */\n      dup6\n        /* \"#utility.yul\":377:381   */\n      0x20\n        /* \"#utility.yul\":369:375   */\n      dup7\n        /* \"#utility.yul\":365:382   */\n      mul\n        /* \"#utility.yul\":360:363   */\n      dup3\n        /* \"#utility.yul\":356:383   */\n      add\n        /* \"#utility.yul\":353:389   */\n      gt\n        /* \"#utility.yul\":350:493   */\n      iszero\n      tag_325\n      jumpi\n        /* \"#utility.yul\":404:483   */\n      tag_326\n      tag_327\n      jump\t// in\n    tag_326:\n        /* \"#utility.yul\":350:493   */\n    tag_325:\n        /* \"#utility.yul\":517:518   */\n      0x00\n        /* \"#utility.yul\":502:740   */\n    tag_328:\n        /* \"#utility.yul\":527:533   */\n      dup6\n        /* \"#utility.yul\":524:525   */\n      dup2\n        /* \"#utility.yul\":521:534   */\n      lt\n        /* \"#utility.yul\":502:740   */\n      iszero\n      tag_330\n      jumpi\n        /* \"#utility.yul\":595:598   */\n      dup2\n        /* \"#utility.yul\":624:661   */\n      tag_331\n        /* \"#utility.yul\":657:660   */\n      dup9\n        /* \"#utility.yul\":645:655   */\n      dup3\n        /* \"#utility.yul\":624:661   */\n      tag_332\n      jump\t// in\n    tag_331:\n        /* \"#utility.yul\":619:622   */\n      dup5\n        /* \"#utility.yul\":612:662   */\n      mstore\n        /* \"#utility.yul\":691:695   */\n      0x20\n        /* \"#utility.yul\":686:689   */\n      dup5\n        /* \"#utility.yul\":682:696   */\n      add\n        /* \"#utility.yul\":675:696   */\n      swap4\n      pop\n        /* \"#utility.yul\":725:729   */\n      0x20\n        /* \"#utility.yul\":720:723   */\n      dup4\n        /* \"#utility.yul\":716:730   */\n      add\n        /* \"#utility.yul\":709:730   */\n      swap3\n      pop\n        /* \"#utility.yul\":562:740   */\n      pop\n        /* \"#utility.yul\":549:550   */\n      0x01\n        /* \"#utility.yul\":546:547   */\n      dup2\n        /* \"#utility.yul\":542:551   */\n      add\n        /* \"#utility.yul\":537:551   */\n      swap1\n      pop\n        /* \"#utility.yul\":502:740   */\n      jump(tag_328)\n    tag_330:\n        /* \"#utility.yul\":506:520   */\n      pop\n        /* \"#utility.yul\":126:746   */\n      pop\n      pop\n        /* \"#utility.yul\":24:746   */\n      swap4\n      swap3\n      pop\n      pop\n      pop\n      jump\t// out\n        /* \"#utility.yul\":768:1725   */\n    tag_333:\n        /* \"#utility.yul\":874:879   */\n      0x00\n        /* \"#utility.yul\":899:990   */\n      tag_335\n        /* \"#utility.yul\":915:989   */\n      tag_336\n        /* \"#utility.yul\":982:988   */\n      dup5\n        /* \"#utility.yul\":915:989   */\n      tag_337\n      jump\t// in\n    tag_336:\n        /* \"#utility.yul\":899:990   */\n      tag_324\n      jump\t// in\n    tag_335:\n        /* \"#utility.yul\":890:990   */\n      swap1\n      pop\n        /* \"#utility.yul\":1010:1015   */\n      dup1\n        /* \"#utility.yul\":1039:1045   */\n      dup4\n        /* \"#utility.yul\":1032:1037   */\n      dup3\n        /* \"#utility.yul\":1025:1046   */\n      mstore\n        /* \"#utility.yul\":1073:1077   */\n      0x20\n        /* \"#utility.yul\":1066:1071   */\n      dup3\n        /* \"#utility.yul\":1062:1078   */\n      add\n        /* \"#utility.yul\":1055:1078   */\n      swap1\n      pop\n        /* \"#utility.yul\":1099:1105   */\n      dup3\n        /* \"#utility.yul\":1149:1152   */\n      dup6\n        /* \"#utility.yul\":1141:1145   */\n      0x20\n        /* \"#utility.yul\":1133:1139   */\n      dup7\n        /* \"#utility.yul\":1129:1146   */\n      mul\n        /* \"#utility.yul\":1124:1127   */\n      dup3\n        /* \"#utility.yul\":1120:1147   */\n      add\n        /* \"#utility.yul\":1117:1153   */\n      gt\n        /* \"#utility.yul\":1114:1257   */\n      iszero\n      tag_338\n      jumpi\n        /* \"#utility.yul\":1168:1247   */\n      tag_339\n      tag_327\n      jump\t// in\n    tag_339:\n        /* \"#utility.yul\":1114:1257   */\n    tag_338:\n        /* \"#utility.yul\":1281:1282   */\n      0x00\n        /* \"#utility.yul\":1266:1719   */\n    tag_340:\n        /* \"#utility.yul\":1291:1297   */\n      dup6\n        /* \"#utility.yul\":1288:1289   */\n      dup2\n        /* \"#utility.yul\":1285:1298   */\n      lt\n        /* \"#utility.yul\":1266:1719   */\n      iszero\n      tag_342\n      jumpi\n        /* \"#utility.yul\":1373:1376   */\n      dup2\n        /* \"#utility.yul\":1360:1377   */\n      calldataload\n        /* \"#utility.yul\":1409:1427   */\n      0xffffffffffffffff\n        /* \"#utility.yul\":1396:1407   */\n      dup2\n        /* \"#utility.yul\":1393:1428   */\n      gt\n        /* \"#utility.yul\":1390:1512   */\n      iszero\n      tag_343\n      jumpi\n        /* \"#utility.yul\":1431:1510   */\n      tag_344\n      tag_345\n      jump\t// in\n    tag_344:\n        /* \"#utility.yul\":1390:1512   */\n    tag_343:\n        /* \"#utility.yul\":1555:1566   */\n      dup1\n        /* \"#utility.yul\":1547:1553   */\n      dup7\n        /* \"#utility.yul\":1543:1567   */\n      add\n        /* \"#utility.yul\":1593:1640   */\n      tag_346\n        /* \"#utility.yul\":1636:1639   */\n      dup10\n        /* \"#utility.yul\":1624:1634   */\n      dup3\n        /* \"#utility.yul\":1593:1640   */\n      tag_347\n      jump\t// in\n    tag_346:\n        /* \"#utility.yul\":1588:1591   */\n      dup6\n        /* \"#utility.yul\":1581:1641   */\n      mstore\n        /* \"#utility.yul\":1670:1674   */\n      0x20\n        /* \"#utility.yul\":1665:1668   */\n      dup6\n        /* \"#utility.yul\":1661:1675   */\n      add\n        /* \"#utility.yul\":1654:1675   */\n      swap5\n      pop\n        /* \"#utility.yul\":1704:1708   */\n      0x20\n        /* \"#utility.yul\":1699:1702   */\n      dup5\n        /* \"#utility.yul\":1695:1709   */\n      add\n        /* \"#utility.yul\":1688:1709   */\n      swap4\n      pop\n        /* \"#utility.yul\":1326:1719   */\n      pop\n      pop\n        /* \"#utility.yul\":1313:1314   */\n      0x01\n        /* \"#utility.yul\":1310:1311   */\n      dup2\n        /* \"#utility.yul\":1306:1315   */\n      add\n        /* \"#utility.yul\":1301:1315   */\n      swap1\n      pop\n        /* \"#utility.yul\":1266:1719   */\n      jump(tag_340)\n    tag_342:\n        /* \"#utility.yul\":1270:1284   */\n      pop\n        /* \"#utility.yul\":880:1725   */\n      pop\n      pop\n        /* \"#utility.yul\":768:1725   */\n      swap4\n      swap3\n      pop\n      pop\n      pop\n      jump\t// out\n        /* \"#utility.yul\":1748:2470   */\n    tag_348:\n        /* \"#utility.yul\":1844:1849   */\n      0x00\n        /* \"#utility.yul\":1869:1950   */\n      tag_350\n        /* \"#utility.yul\":1885:1949   */\n      tag_351\n        /* \"#utility.yul\":1942:1948   */\n      dup5\n        /* \"#utility.yul\":1885:1949   */\n      tag_352\n      jump\t// in\n    tag_351:\n        /* \"#utility.yul\":1869:1950   */\n      tag_324\n      jump\t// in\n    tag_350:\n        /* \"#utility.yul\":1860:1950   */\n      swap1\n      pop\n        /* \"#utility.yul\":1970:1975   */\n      dup1\n        /* \"#utility.yul\":1999:2005   */\n      dup4\n        /* \"#utility.yul\":1992:1997   */\n      dup3\n        /* \"#utility.yul\":1985:2006   */\n      mstore\n        /* \"#utility.yul\":2033:2037   */\n      0x20\n        /* \"#utility.yul\":2026:2031   */\n      dup3\n        /* \"#utility.yul\":2022:2038   */\n      add\n        /* \"#utility.yul\":2015:2038   */\n      swap1\n      pop\n        /* \"#utility.yul\":2059:2065   */\n      dup3\n        /* \"#utility.yul\":2109:2112   */\n      dup6\n        /* \"#utility.yul\":2101:2105   */\n      0x20\n        /* \"#utility.yul\":2093:2099   */\n      dup7\n        /* \"#utility.yul\":2089:2106   */\n      mul\n        /* \"#utility.yul\":2084:2087   */\n      dup3\n        /* \"#utility.yul\":2080:2107   */\n      add\n        /* \"#utility.yul\":2077:2113   */\n      gt\n        /* \"#utility.yul\":2074:2217   */\n      iszero\n      tag_353\n      jumpi\n        /* \"#utility.yul\":2128:2207   */\n      tag_354\n      tag_327\n      jump\t// in\n    tag_354:\n        /* \"#utility.yul\":2074:2217   */\n    tag_353:\n        /* \"#utility.yul\":2241:2242   */\n      0x00\n        /* \"#utility.yul\":2226:2464   */\n    tag_355:\n        /* \"#utility.yul\":2251:2257   */\n      dup6\n        /* \"#utility.yul\":2248:2249   */\n      dup2\n        /* \"#utility.yul\":2245:2258   */\n      lt\n        /* \"#utility.yul\":2226:2464   */\n      iszero\n      tag_357\n      jumpi\n        /* \"#utility.yul\":2319:2322   */\n      dup2\n        /* \"#utility.yul\":2348:2385   */\n      tag_358\n        /* \"#utility.yul\":2381:2384   */\n      dup9\n        /* \"#utility.yul\":2369:2379   */\n      dup3\n        /* \"#utility.yul\":2348:2385   */\n      tag_359\n      jump\t// in\n    tag_358:\n        /* \"#utility.yul\":2343:2346   */\n      dup5\n        /* \"#utility.yul\":2336:2386   */\n      mstore\n        /* \"#utility.yul\":2415:2419   */\n      0x20\n        /* \"#utility.yul\":2410:2413   */\n      dup5\n        /* \"#utility.yul\":2406:2420   */\n      add\n        /* \"#utility.yul\":2399:2420   */\n      swap4\n      pop\n        /* \"#utility.yul\":2449:2453   */\n      0x20\n        /* \"#utility.yul\":2444:2447   */\n      dup4\n        /* \"#utility.yul\":2440:2454   */\n      add\n        /* \"#utility.yul\":2433:2454   */\n      swap3\n      pop\n        /* \"#utility.yul\":2286:2464   */\n      pop\n        /* \"#utility.yul\":2273:2274   */\n      0x01\n        /* \"#utility.yul\":2270:2271   */\n      dup2\n        /* \"#utility.yul\":2266:2275   */\n      add\n        /* \"#utility.yul\":2261:2275   */\n      swap1\n      pop\n        /* \"#utility.yul\":2226:2464   */\n      jump(tag_355)\n    tag_357:\n        /* \"#utility.yul\":2230:2244   */\n      pop\n        /* \"#utility.yul\":1850:2470   */\n      pop\n      pop\n        /* \"#utility.yul\":1748:2470   */\n      swap4\n      swap3\n      pop\n      pop\n      pop\n      jump\t// out\n        /* \"#utility.yul\":2476:2888   */\n    tag_360:\n        /* \"#utility.yul\":2554:2559   */\n      0x00\n        /* \"#utility.yul\":2579:2645   */\n      tag_362\n        /* \"#utility.yul\":2595:2644   */\n      tag_363\n        /* \"#utility.yul\":2637:2643   */\n      dup5\n        /* \"#utility.yul\":2595:2644   */\n      tag_364\n      jump\t// in\n    tag_363:\n        /* \"#utility.yul\":2579:2645   */\n      tag_324\n      jump\t// in\n    tag_362:\n        /* \"#utility.yul\":2570:2645   */\n      swap1\n      pop\n        /* \"#utility.yul\":2668:2674   */\n      dup3\n        /* \"#utility.yul\":2661:2666   */\n      dup2\n        /* \"#utility.yul\":2654:2675   */\n      mstore\n        /* \"#utility.yul\":2706:2710   */\n      0x20\n        /* \"#utility.yul\":2699:2704   */\n      dup2\n        /* \"#utility.yul\":2695:2711   */\n      add\n        /* \"#utility.yul\":2744:2747   */\n      dup5\n        /* \"#utility.yul\":2735:2741   */\n      dup5\n        /* \"#utility.yul\":2730:2733   */\n      dup5\n        /* \"#utility.yul\":2726:2742   */\n      add\n        /* \"#utility.yul\":2723:2748   */\n      gt\n        /* \"#utility.yul\":2720:2832   */\n      iszero\n      tag_365\n      jumpi\n        /* \"#utility.yul\":2751:2830   */\n      tag_366\n      tag_367\n      jump\t// in\n    tag_366:\n        /* \"#utility.yul\":2720:2832   */\n    tag_365:\n        /* \"#utility.yul\":2841:2882   */\n      tag_368\n        /* \"#utility.yul\":2875:2881   */\n      dup5\n        /* \"#utility.yul\":2870:2873   */\n      dup3\n        /* \"#utility.yul\":2865:2868   */\n      dup6\n        /* \"#utility.yul\":2841:2882   */\n      tag_369\n      jump\t// in\n    tag_368:\n        /* \"#utility.yul\":2560:2888   */\n      pop\n        /* \"#utility.yul\":2476:2888   */\n      swap4\n      swap3\n      pop\n      pop\n      pop\n      jump\t// out\n        /* \"#utility.yul\":2894:3033   */\n    tag_332:\n        /* \"#utility.yul\":2940:2945   */\n      0x00\n        /* \"#utility.yul\":2978:2984   */\n      dup2\n        /* \"#utility.yul\":2965:2985   */\n      calldataload\n        /* \"#utility.yul\":2956:2985   */\n      swap1\n      pop\n        /* \"#utility.yul\":2994:3027   */\n      tag_371\n        /* \"#utility.yul\":3021:3026   */\n      dup2\n        /* \"#utility.yul\":2994:3027   */\n      tag_372\n      jump\t// in\n    tag_371:\n        /* \"#utility.yul\":2894:3033   */\n      swap3\n      swap2\n      pop\n      pop\n      jump\t// out\n        /* \"#utility.yul\":3056:3426   */\n    tag_373:\n        /* \"#utility.yul\":3127:3132   */\n      0x00\n        /* \"#utility.yul\":3176:3179   */\n      dup3\n        /* \"#utility.yul\":3169:3173   */\n      0x1f\n        /* \"#utility.yul\":3161:3167   */\n      dup4\n        /* \"#utility.yul\":3157:3174   */\n      add\n        /* \"#utility.yul\":3153:3180   */\n      slt\n        /* \"#utility.yul\":3143:3265   */\n      tag_375\n      jumpi\n        /* \"#utility.yul\":3184:3263   */\n      tag_376\n      tag_345\n      jump\t// in\n    tag_376:\n        /* \"#utility.yul\":3143:3265   */\n    tag_375:\n        /* \"#utility.yul\":3301:3307   */\n      dup2\n        /* \"#utility.yul\":3288:3308   */\n      calldataload\n        /* \"#utility.yul\":3326:3420   */\n      tag_377\n        /* \"#utility.yul\":3416:3419   */\n      dup5\n        /* \"#utility.yul\":3408:3414   */\n      dup3\n        /* \"#utility.yul\":3401:3405   */\n      0x20\n        /* \"#utility.yul\":3393:3399   */\n      dup7\n        /* \"#utility.yul\":3389:3406   */\n      add\n        /* \"#utility.yul\":3326:3420   */\n      tag_319\n      jump\t// in\n    tag_377:\n        /* \"#utility.yul\":3317:3420   */\n      swap2\n      pop\n        /* \"#utility.yul\":3133:3426   */\n      pop\n        /* \"#utility.yul\":3056:3426   */\n      swap3\n      swap2\n      pop\n      pop\n      jump\t// out\n        /* \"#utility.yul\":3448:4028   */\n    tag_378:\n        /* \"#utility.yul\":3533:3541   */\n      0x00\n        /* \"#utility.yul\":3543:3549   */\n      dup1\n        /* \"#utility.yul\":3593:3596   */\n      dup4\n        /* \"#utility.yul\":3586:3590   */\n      0x1f\n        /* \"#utility.yul\":3578:3584   */\n      dup5\n        /* \"#utility.yul\":3574:3591   */\n      add\n        /* \"#utility.yul\":3570:3597   */\n      slt\n        /* \"#utility.yul\":3560:3682   */\n      tag_380\n      jumpi\n        /* \"#utility.yul\":3601:3680   */\n      tag_381\n      tag_345\n      jump\t// in\n    tag_381:\n        /* \"#utility.yul\":3560:3682   */\n    tag_380:\n        /* \"#utility.yul\":3714:3720   */\n      dup3\n        /* \"#utility.yul\":3701:3721   */\n      calldataload\n        /* \"#utility.yul\":3691:3721   */\n      swap1\n      pop\n        /* \"#utility.yul\":3744:3762   */\n      0xffffffffffffffff\n        /* \"#utility.yul\":3736:3742   */\n      dup2\n        /* \"#utility.yul\":3733:3763   */\n      gt\n        /* \"#utility.yul\":3730:3847   */\n      iszero\n      tag_382\n      jumpi\n        /* \"#utility.yul\":3766:3845   */\n      tag_383\n      tag_384\n      jump\t// in\n    tag_383:\n        /* \"#utility.yul\":3730:3847   */\n    tag_382:\n        /* \"#utility.yul\":3880:3884   */\n      0x20\n        /* \"#utility.yul\":3872:3878   */\n      dup4\n        /* \"#utility.yul\":3868:3885   */\n      add\n        /* \"#utility.yul\":3856:3885   */\n      swap2\n      pop\n        /* \"#utility.yul\":3934:3937   */\n      dup4\n        /* \"#utility.yul\":3926:3930   */\n      0x20\n        /* \"#utility.yul\":3918:3924   */\n      dup3\n        /* \"#utility.yul\":3914:3931   */\n      mul\n        /* \"#utility.yul\":3904:3912   */\n      dup4\n        /* \"#utility.yul\":3900:3932   */\n      add\n        /* \"#utility.yul\":3897:3938   */\n      gt\n        /* \"#utility.yul\":3894:4022   */\n      iszero\n      tag_385\n      jumpi\n        /* \"#utility.yul\":3941:4020   */\n      tag_386\n      tag_327\n      jump\t// in\n    tag_386:\n        /* \"#utility.yul\":3894:4022   */\n    tag_385:\n        /* \"#utility.yul\":3448:4028   */\n      swap3\n      pop\n      swap3\n      swap1\n      pop\n      jump\t// out\n        /* \"#utility.yul\":4050:4440   */\n    tag_387:\n        /* \"#utility.yul\":4131:4136   */\n      0x00\n        /* \"#utility.yul\":4180:4183   */\n      dup3\n        /* \"#utility.yul\":4173:4177   */\n      0x1f\n        /* \"#utility.yul\":4165:4171   */\n      dup4\n        /* \"#utility.yul\":4161:4178   */\n      add\n        /* \"#utility.yul\":4157:4184   */\n      slt\n        /* \"#utility.yul\":4147:4269   */\n      tag_389\n      jumpi\n        /* \"#utility.yul\":4188:4267   */\n      tag_390\n      tag_345\n      jump\t// in\n    tag_390:\n        /* \"#utility.yul\":4147:4269   */\n    tag_389:\n        /* \"#utility.yul\":4305:4311   */\n      dup2\n        /* \"#utility.yul\":4292:4312   */\n      calldataload\n        /* \"#utility.yul\":4330:4434   */\n      tag_391\n        /* \"#utility.yul\":4430:4433   */\n      dup5\n        /* \"#utility.yul\":4422:4428   */\n      dup3\n        /* \"#utility.yul\":4415:4419   */\n      0x20\n        /* \"#utility.yul\":4407:4413   */\n      dup7\n        /* \"#utility.yul\":4403:4420   */\n      add\n        /* \"#utility.yul\":4330:4434   */\n      tag_333\n      jump\t// in\n    tag_391:\n        /* \"#utility.yul\":4321:4434   */\n      swap2\n      pop\n        /* \"#utility.yul\":4137:4440   */\n      pop\n        /* \"#utility.yul\":4050:4440   */\n      swap3\n      swap2\n      pop\n      pop\n      jump\t// out\n        /* \"#utility.yul\":4463:4833   */\n    tag_392:\n        /* \"#utility.yul\":4534:4539   */\n      0x00\n        /* \"#utility.yul\":4583:4586   */\n      dup3\n        /* \"#utility.yul\":4576:4580   */\n      0x1f\n        /* \"#utility.yul\":4568:4574   */\n      dup4\n        /* \"#utility.yul\":4564:4581   */\n      add\n        /* \"#utility.yul\":4560:4587   */\n      slt\n        /* \"#utility.yul\":4550:4672   */\n      tag_394\n      jumpi\n        /* \"#utility.yul\":4591:4670   */\n      tag_395\n      tag_345\n      jump\t// in\n    tag_395:\n        /* \"#utility.yul\":4550:4672   */\n    tag_394:\n        /* \"#utility.yul\":4708:4714   */\n      dup2\n        /* \"#utility.yul\":4695:4715   */\n      calldataload\n        /* \"#utility.yul\":4733:4827   */\n      tag_396\n        /* \"#utility.yul\":4823:4826   */\n      dup5\n        /* \"#utility.yul\":4815:4821   */\n      dup3\n        /* \"#utility.yul\":4808:4812   */\n      0x20\n        /* \"#utility.yul\":4800:4806   */\n      dup7\n        /* \"#utility.yul\":4796:4813   */\n      add\n        /* \"#utility.yul\":4733:4827   */\n      tag_348\n      jump\t// in\n    tag_396:\n        /* \"#utility.yul\":4724:4827   */\n      swap2\n      pop\n        /* \"#utility.yul\":4540:4833   */\n      pop\n        /* \"#utility.yul\":4463:4833   */\n      swap3\n      swap2\n      pop\n      pop\n      jump\t// out\n        /* \"#utility.yul\":4853:5193   */\n    tag_347:\n        /* \"#utility.yul\":4909:4914   */\n      0x00\n        /* \"#utility.yul\":4958:4961   */\n      dup3\n        /* \"#utility.yul\":4951:4955   */\n      0x1f\n        /* \"#utility.yul\":4943:4949   */\n      dup4\n        /* \"#utility.yul\":4939:4956   */\n      add\n        /* \"#utility.yul\":4935:4962   */\n      slt\n        /* \"#utility.yul\":4925:5047   */\n      tag_398\n      jumpi\n        /* \"#utility.yul\":4966:5045   */\n      tag_399\n      tag_345\n      jump\t// in\n    tag_399:\n        /* \"#utility.yul\":4925:5047   */\n    tag_398:\n        /* \"#utility.yul\":5083:5089   */\n      dup2\n        /* \"#utility.yul\":5070:5090   */\n      calldataload\n        /* \"#utility.yul\":5108:5187   */\n      tag_400\n        /* \"#utility.yul\":5183:5186   */\n      dup5\n        /* \"#utility.yul\":5175:5181   */\n      dup3\n        /* \"#utility.yul\":5168:5172   */\n      0x20\n        /* \"#utility.yul\":5160:5166   */\n      dup7\n        /* \"#utility.yul\":5156:5173   */\n      add\n        /* \"#utility.yul\":5108:5187   */\n      tag_360\n      jump\t// in\n    tag_400:\n        /* \"#utility.yul\":5099:5187   */\n      swap2\n      pop\n        /* \"#utility.yul\":4915:5193   */\n      pop\n        /* \"#utility.yul\":4853:5193   */\n      swap3\n      swap2\n      pop\n      pop\n      jump\t// out\n        /* \"#utility.yul\":5199:5338   */\n    tag_359:\n        /* \"#utility.yul\":5245:5250   */\n      0x00\n        /* \"#utility.yul\":5283:5289   */\n      dup2\n        /* \"#utility.yul\":5270:5290   */\n      calldataload\n        /* \"#utility.yul\":5261:5290   */\n      swap1\n      pop\n        /* \"#utility.yul\":5299:5332   */\n      tag_402\n        /* \"#utility.yul\":5326:5331   */\n      dup2\n        /* \"#utility.yul\":5299:5332   */\n      tag_403\n      jump\t// in\n    tag_402:\n        /* \"#utility.yul\":5199:5338   */\n      swap3\n      swap2\n      pop\n      pop\n      jump\t// out\n        /* \"#utility.yul\":5344:5479   */\n    tag_404:\n        /* \"#utility.yul\":5388:5393   */\n      0x00\n        /* \"#utility.yul\":5426:5432   */\n      dup2\n        /* \"#utility.yul\":5413:5433   */\n      calldataload\n        /* \"#utility.yul\":5404:5433   */\n      swap1\n      pop\n        /* \"#utility.yul\":5442:5473   */\n      tag_406\n        /* \"#utility.yul\":5467:5472   */\n      dup2\n        /* \"#utility.yul\":5442:5473   */\n      tag_407\n      jump\t// in\n    tag_406:\n        /* \"#utility.yul\":5344:5479   */\n      swap3\n      swap2\n      pop\n      pop\n      jump\t// out\n        /* \"#utility.yul\":5485:5814   */\n    tag_43:\n        /* \"#utility.yul\":5544:5550   */\n      0x00\n        /* \"#utility.yul\":5593:5595   */\n      0x20\n        /* \"#utility.yul\":5581:5590   */\n      dup3\n        /* \"#utility.yul\":5572:5579   */\n      dup5\n        /* \"#utility.yul\":5568:5591   */\n      sub\n        /* \"#utility.yul\":5564:5596   */\n      slt\n        /* \"#utility.yul\":5561:5680   */\n      iszero\n      tag_409\n      jumpi\n        /* \"#utility.yul\":5599:5678   */\n      tag_410\n      tag_411\n      jump\t// in\n    tag_410:\n        /* \"#utility.yul\":5561:5680   */\n    tag_409:\n        /* \"#utility.yul\":5719:5720   */\n      0x00\n        /* \"#utility.yul\":5744:5797   */\n      tag_412\n        /* \"#utility.yul\":5789:5796   */\n      dup5\n        /* \"#utility.yul\":5780:5786   */\n      dup3\n        /* \"#utility.yul\":5769:5778   */\n      dup6\n        /* \"#utility.yul\":5765:5787   */\n      add\n        /* \"#utility.yul\":5744:5797   */\n      tag_332\n      jump\t// in\n    tag_412:\n        /* \"#utility.yul\":5734:5797   */\n      swap2\n      pop\n        /* \"#utility.yul\":5690:5807   */\n      pop\n        /* \"#utility.yul\":5485:5814   */\n      swap3\n      swap2\n      pop\n      pop\n      jump\t// out\n        /* \"#utility.yul\":5820:6294   */\n    tag_55:\n        /* \"#utility.yul\":5888:5894   */\n      0x00\n        /* \"#utility.yul\":5896:5902   */\n      dup1\n        /* \"#utility.yul\":5945:5947   */\n      0x40\n        /* \"#utility.yul\":5933:5942   */\n      dup4\n        /* \"#utility.yul\":5924:5931   */\n      dup6\n        /* \"#utility.yul\":5920:5943   */\n      sub\n        /* \"#utility.yul\":5916:5948   */\n      slt\n        /* \"#utility.yul\":5913:6032   */\n      iszero\n      tag_414\n      jumpi\n        /* \"#utility.yul\":5951:6030   */\n      tag_415\n      tag_411\n      jump\t// in\n    tag_415:\n        /* \"#utility.yul\":5913:6032   */\n    tag_414:\n        /* \"#utility.yul\":6071:6072   */\n      0x00\n        /* \"#utility.yul\":6096:6149   */\n      tag_416\n        /* \"#utility.yul\":6141:6148   */\n      dup6\n        /* \"#utility.yul\":6132:6138   */\n      dup3\n        /* \"#utility.yul\":6121:6130   */\n      dup7\n        /* \"#utility.yul\":6117:6139   */\n      add\n        /* \"#utility.yul\":6096:6149   */\n      tag_332\n      jump\t// in\n    tag_416:\n        /* \"#utility.yul\":6086:6149   */\n      swap3\n      pop\n        /* \"#utility.yul\":6042:6159   */\n      pop\n        /* \"#utility.yul\":6198:6200   */\n      0x20\n        /* \"#utility.yul\":6224:6277   */\n      tag_417\n        /* \"#utility.yul\":6269:6276   */\n      dup6\n        /* \"#utility.yul\":6260:6266   */\n      dup3\n        /* \"#utility.yul\":6249:6258   */\n      dup7\n        /* \"#utility.yul\":6245:6267   */\n      add\n        /* \"#utility.yul\":6224:6277   */\n      tag_359\n      jump\t// in\n    tag_417:\n        /* \"#utility.yul\":6214:6277   */\n      swap2\n      pop\n        /* \"#utility.yul\":6169:6287   */\n      pop\n        /* \"#utility.yul\":5820:6294   */\n      swap3\n      pop\n      swap3\n      swap1\n      pop\n      jump\t// out\n        /* \"#utility.yul\":6300:6629   */\n    tag_17:\n        /* \"#utility.yul\":6359:6365   */\n      0x00\n        /* \"#utility.yul\":6408:6410   */\n      0x20\n        /* \"#utility.yul\":6396:6405   */\n      dup3\n        /* \"#utility.yul\":6387:6394   */\n      dup5\n        /* \"#utility.yul\":6383:6406   */\n      sub\n        /* \"#utility.yul\":6379:6411   */\n      slt\n        /* \"#utility.yul\":6376:6495   */\n      iszero\n      tag_419\n      jumpi\n        /* \"#utility.yul\":6414:6493   */\n      tag_420\n      tag_411\n      jump\t// in\n    tag_420:\n        /* \"#utility.yul\":6376:6495   */\n    tag_419:\n        /* \"#utility.yul\":6534:6535   */\n      0x00\n        /* \"#utility.yul\":6559:6612   */\n      tag_421\n        /* \"#utility.yul\":6604:6611   */\n      dup5\n        /* \"#utility.yul\":6595:6601   */\n      dup3\n        /* \"#utility.yul\":6584:6593   */\n      dup6\n        /* \"#utility.yul\":6580:6602   */\n      add\n        /* \"#utility.yul\":6559:6612   */\n      tag_359\n      jump\t// in\n    tag_421:\n        /* \"#utility.yul\":6549:6612   */\n      swap2\n      pop\n        /* \"#utility.yul\":6505:6622   */\n      pop\n        /* \"#utility.yul\":6300:6629   */\n      swap3\n      swap2\n      pop\n      pop\n      jump\t// out\n        /* \"#utility.yul\":6635:7840   */\n    tag_39:\n        /* \"#utility.yul\":6781:6787   */\n      0x00\n        /* \"#utility.yul\":6789:6795   */\n      dup1\n        /* \"#utility.yul\":6797:6803   */\n      0x00\n        /* \"#utility.yul\":6805:6811   */\n      dup1\n        /* \"#utility.yul\":6854:6857   */\n      0x80\n        /* \"#utility.yul\":6842:6851   */\n      dup6\n        /* \"#utility.yul\":6833:6840   */\n      dup8\n        /* \"#utility.yul\":6829:6852   */\n      sub\n        /* \"#utility.yul\":6825:6858   */\n      slt\n        /* \"#utility.yul\":6822:6942   */\n      iszero\n      tag_423\n      jumpi\n        /* \"#utility.yul\":6861:6940   */\n      tag_424\n      tag_411\n      jump\t// in\n    tag_424:\n        /* \"#utility.yul\":6822:6942   */\n    tag_423:\n        /* \"#utility.yul\":6981:6982   */\n      0x00\n        /* \"#utility.yul\":7006:7059   */\n      tag_425\n        /* \"#utility.yul\":7051:7058   */\n      dup8\n        /* \"#utility.yul\":7042:7048   */\n      dup3\n        /* \"#utility.yul\":7031:7040   */\n      dup9\n        /* \"#utility.yul\":7027:7049   */\n      add\n        /* \"#utility.yul\":7006:7059   */\n      tag_359\n      jump\t// in\n    tag_425:\n        /* \"#utility.yul\":6996:7059   */\n      swap5\n      pop\n        /* \"#utility.yul\":6952:7069   */\n      pop\n        /* \"#utility.yul\":7108:7110   */\n      0x20\n        /* \"#utility.yul\":7134:7187   */\n      tag_426\n        /* \"#utility.yul\":7179:7186   */\n      dup8\n        /* \"#utility.yul\":7170:7176   */\n      dup3\n        /* \"#utility.yul\":7159:7168   */\n      dup9\n        /* \"#utility.yul\":7155:7177   */\n      add\n        /* \"#utility.yul\":7134:7187   */\n      tag_332\n      jump\t// in\n    tag_426:\n        /* \"#utility.yul\":7124:7187   */\n      swap4\n      pop\n        /* \"#utility.yul\":7079:7197   */\n      pop\n        /* \"#utility.yul\":7264:7266   */\n      0x40\n        /* \"#utility.yul\":7253:7262   */\n      dup6\n        /* \"#utility.yul\":7249:7267   */\n      add\n        /* \"#utility.yul\":7236:7268   */\n      calldataload\n        /* \"#utility.yul\":7295:7313   */\n      0xffffffffffffffff\n        /* \"#utility.yul\":7287:7293   */\n      dup2\n        /* \"#utility.yul\":7284:7314   */\n      gt\n        /* \"#utility.yul\":7281:7398   */\n      iszero\n      tag_427\n      jumpi\n        /* \"#utility.yul\":7317:7396   */\n      tag_428\n      tag_429\n      jump\t// in\n    tag_428:\n        /* \"#utility.yul\":7281:7398   */\n    tag_427:\n        /* \"#utility.yul\":7422:7510   */\n      tag_430\n        /* \"#utility.yul\":7502:7509   */\n      dup8\n        /* \"#utility.yul\":7493:7499   */\n      dup3\n        /* \"#utility.yul\":7482:7491   */\n      dup9\n        /* \"#utility.yul\":7478:7500   */\n      add\n        /* \"#utility.yul\":7422:7510   */\n      tag_387\n      jump\t// in\n    tag_430:\n        /* \"#utility.yul\":7412:7510   */\n      swap3\n      pop\n        /* \"#utility.yul\":7207:7520   */\n      pop\n        /* \"#utility.yul\":7587:7589   */\n      0x60\n        /* \"#utility.yul\":7576:7585   */\n      dup6\n        /* \"#utility.yul\":7572:7590   */\n      add\n        /* \"#utility.yul\":7559:7591   */\n      calldataload\n        /* \"#utility.yul\":7618:7636   */\n      0xffffffffffffffff\n        /* \"#utility.yul\":7610:7616   */\n      dup2\n        /* \"#utility.yul\":7607:7637   */\n      gt\n        /* \"#utility.yul\":7604:7721   */\n      iszero\n      tag_431\n      jumpi\n        /* \"#utility.yul\":7640:7719   */\n      tag_432\n      tag_429\n      jump\t// in\n    tag_432:\n        /* \"#utility.yul\":7604:7721   */\n    tag_431:\n        /* \"#utility.yul\":7745:7823   */\n      tag_433\n        /* \"#utility.yul\":7815:7822   */\n      dup8\n        /* \"#utility.yul\":7806:7812   */\n      dup3\n        /* \"#utility.yul\":7795:7804   */\n      dup9\n        /* \"#utility.yul\":7791:7813   */\n      add\n        /* \"#utility.yul\":7745:7823   */\n      tag_392\n      jump\t// in\n    tag_433:\n        /* \"#utility.yul\":7735:7823   */\n      swap2\n      pop\n        /* \"#utility.yul\":7530:7833   */\n      pop\n        /* \"#utility.yul\":6635:7840   */\n      swap3\n      swap6\n      swap2\n      swap5\n      pop\n      swap3\n      pop\n      jump\t// out\n        /* \"#utility.yul\":7846:9835   */\n    tag_35:\n        /* \"#utility.yul\":8040:8046   */\n      0x00\n        /* \"#utility.yul\":8048:8054   */\n      dup1\n        /* \"#utility.yul\":8056:8062   */\n      0x00\n        /* \"#utility.yul\":8064:8070   */\n      dup1\n        /* \"#utility.yul\":8072:8078   */\n      0x00\n        /* \"#utility.yul\":8080:8086   */\n      dup1\n        /* \"#utility.yul\":8088:8094   */\n      0x00\n        /* \"#utility.yul\":8096:8102   */\n      dup1\n        /* \"#utility.yul\":8104:8110   */\n      0x00\n        /* \"#utility.yul\":8153:8156   */\n      0x0100\n        /* \"#utility.yul\":8141:8150   */\n      dup11\n        /* \"#utility.yul\":8132:8139   */\n      dup13\n        /* \"#utility.yul\":8128:8151   */\n      sub\n        /* \"#utility.yul\":8124:8157   */\n      slt\n        /* \"#utility.yul\":8121:8241   */\n      iszero\n      tag_435\n      jumpi\n        /* \"#utility.yul\":8160:8239   */\n      tag_436\n      tag_411\n      jump\t// in\n    tag_436:\n        /* \"#utility.yul\":8121:8241   */\n    tag_435:\n        /* \"#utility.yul\":8280:8281   */\n      0x00\n        /* \"#utility.yul\":8305:8356   */\n      tag_437\n        /* \"#utility.yul\":8348:8355   */\n      dup13\n        /* \"#utility.yul\":8339:8345   */\n      dup3\n        /* \"#utility.yul\":8328:8337   */\n      dup14\n        /* \"#utility.yul\":8324:8346   */\n      add\n        /* \"#utility.yul\":8305:8356   */\n      tag_404\n      jump\t// in\n    tag_437:\n        /* \"#utility.yul\":8295:8356   */\n      swap10\n      pop\n        /* \"#utility.yul\":8251:8366   */\n      pop\n        /* \"#utility.yul\":8433:8435   */\n      0x20\n        /* \"#utility.yul\":8422:8431   */\n      dup11\n        /* \"#utility.yul\":8418:8436   */\n      add\n        /* \"#utility.yul\":8405:8437   */\n      calldataload\n        /* \"#utility.yul\":8464:8482   */\n      0xffffffffffffffff\n        /* \"#utility.yul\":8456:8462   */\n      dup2\n        /* \"#utility.yul\":8453:8483   */\n      gt\n        /* \"#utility.yul\":8450:8567   */\n      iszero\n      tag_438\n      jumpi\n        /* \"#utility.yul\":8486:8565   */\n      tag_439\n      tag_429\n      jump\t// in\n    tag_439:\n        /* \"#utility.yul\":8450:8567   */\n    tag_438:\n        /* \"#utility.yul\":8591:8669   */\n      tag_440\n        /* \"#utility.yul\":8661:8668   */\n      dup13\n        /* \"#utility.yul\":8652:8658   */\n      dup3\n        /* \"#utility.yul\":8641:8650   */\n      dup14\n        /* \"#utility.yul\":8637:8659   */\n      add\n        /* \"#utility.yul\":8591:8669   */\n      tag_373\n      jump\t// in\n    tag_440:\n        /* \"#utility.yul\":8581:8669   */\n      swap9\n      pop\n        /* \"#utility.yul\":8376:8679   */\n      pop\n        /* \"#utility.yul\":8718:8720   */\n      0x40\n        /* \"#utility.yul\":8744:8797   */\n      tag_441\n        /* \"#utility.yul\":8789:8796   */\n      dup13\n        /* \"#utility.yul\":8780:8786   */\n      dup3\n        /* \"#utility.yul\":8769:8778   */\n      dup14\n        /* \"#utility.yul\":8765:8787   */\n      add\n        /* \"#utility.yul\":8744:8797   */\n      tag_332\n      jump\t// in\n    tag_441:\n        /* \"#utility.yul\":8734:8797   */\n      swap8\n      pop\n        /* \"#utility.yul\":8689:8807   */\n      pop\n        /* \"#utility.yul\":8846:8848   */\n      0x60\n        /* \"#utility.yul\":8872:8925   */\n      tag_442\n        /* \"#utility.yul\":8917:8924   */\n      dup13\n        /* \"#utility.yul\":8908:8914   */\n      dup3\n        /* \"#utility.yul\":8897:8906   */\n      dup14\n        /* \"#utility.yul\":8893:8915   */\n      add\n        /* \"#utility.yul\":8872:8925   */\n      tag_359\n      jump\t// in\n    tag_442:\n        /* \"#utility.yul\":8862:8925   */\n      swap7\n      pop\n        /* \"#utility.yul\":8817:8935   */\n      pop\n        /* \"#utility.yul\":8974:8977   */\n      0x80\n        /* \"#utility.yul\":9001:9054   */\n      tag_443\n        /* \"#utility.yul\":9046:9053   */\n      dup13\n        /* \"#utility.yul\":9037:9043   */\n      dup3\n        /* \"#utility.yul\":9026:9035   */\n      dup14\n        /* \"#utility.yul\":9022:9044   */\n      add\n        /* \"#utility.yul\":9001:9054   */\n      tag_359\n      jump\t// in\n    tag_443:\n        /* \"#utility.yul\":8991:9054   */\n      swap6\n      pop\n        /* \"#utility.yul\":8945:9064   */\n      pop\n        /* \"#utility.yul\":9131:9134   */\n      0xa0\n        /* \"#utility.yul\":9120:9129   */\n      dup11\n        /* \"#utility.yul\":9116:9135   */\n      add\n        /* \"#utility.yul\":9103:9136   */\n      calldataload\n        /* \"#utility.yul\":9163:9181   */\n      0xffffffffffffffff\n        /* \"#utility.yul\":9155:9161   */\n      dup2\n        /* \"#utility.yul\":9152:9182   */\n      gt\n        /* \"#utility.yul\":9149:9266   */\n      iszero\n      tag_444\n      jumpi\n        /* \"#utility.yul\":9185:9264   */\n      tag_445\n      tag_429\n      jump\t// in\n    tag_445:\n        /* \"#utility.yul\":9149:9266   */\n    tag_444:\n        /* \"#utility.yul\":9290:9353   */\n      tag_446\n        /* \"#utility.yul\":9345:9352   */\n      dup13\n        /* \"#utility.yul\":9336:9342   */\n      dup3\n        /* \"#utility.yul\":9325:9334   */\n      dup14\n        /* \"#utility.yul\":9321:9343   */\n      add\n        /* \"#utility.yul\":9290:9353   */\n      tag_347\n      jump\t// in\n    tag_446:\n        /* \"#utility.yul\":9280:9353   */\n      swap5\n      pop\n        /* \"#utility.yul\":9074:9363   */\n      pop\n        /* \"#utility.yul\":9430:9433   */\n      0xc0\n        /* \"#utility.yul\":9419:9428   */\n      dup11\n        /* \"#utility.yul\":9415:9434   */\n      add\n        /* \"#utility.yul\":9402:9435   */\n      calldataload\n        /* \"#utility.yul\":9462:9480   */\n      0xffffffffffffffff\n        /* \"#utility.yul\":9454:9460   */\n      dup2\n        /* \"#utility.yul\":9451:9481   */\n      gt\n        /* \"#utility.yul\":9448:9565   */\n      iszero\n      tag_447\n      jumpi\n        /* \"#utility.yul\":9484:9563   */\n      tag_448\n      tag_429\n      jump\t// in\n    tag_448:\n        /* \"#utility.yul\":9448:9565   */\n    tag_447:\n        /* \"#utility.yul\":9597:9689   */\n      tag_449\n        /* \"#utility.yul\":9681:9688   */\n      dup13\n        /* \"#utility.yul\":9672:9678   */\n      dup3\n        /* \"#utility.yul\":9661:9670   */\n      dup14\n        /* \"#utility.yul\":9657:9679   */\n      add\n        /* \"#utility.yul\":9597:9689   */\n      tag_378\n      jump\t// in\n    tag_449:\n        /* \"#utility.yul\":9579:9689   */\n      swap4\n      pop\n      swap4\n      pop\n        /* \"#utility.yul\":9373:9699   */\n      pop\n        /* \"#utility.yul\":9738:9741   */\n      0xe0\n        /* \"#utility.yul\":9765:9818   */\n      tag_450\n        /* \"#utility.yul\":9810:9817   */\n      dup13\n        /* \"#utility.yul\":9801:9807   */\n      dup3\n        /* \"#utility.yul\":9790:9799   */\n      dup14\n        /* \"#utility.yul\":9786:9808   */\n      add\n        /* \"#utility.yul\":9765:9818   */\n      tag_359\n      jump\t// in\n    tag_450:\n        /* \"#utility.yul\":9755:9818   */\n      swap2\n      pop\n        /* \"#utility.yul\":9709:9828   */\n      pop\n        /* \"#utility.yul\":7846:9835   */\n      swap3\n      swap6\n      swap9\n      pop\n      swap3\n      swap6\n      swap9\n      pop\n      swap3\n      swap6\n      swap9\n      jump\t// out\n        /* \"#utility.yul\":9841:10020   */\n    tag_451:\n        /* \"#utility.yul\":9910:9920   */\n      0x00\n        /* \"#utility.yul\":9931:9977   */\n      tag_453\n        /* \"#utility.yul\":9973:9976   */\n      dup4\n        /* \"#utility.yul\":9965:9971   */\n      dup4\n        /* \"#utility.yul\":9931:9977   */\n      tag_454\n      jump\t// in\n    tag_453:\n        /* \"#utility.yul\":10009:10013   */\n      0x20\n        /* \"#utility.yul\":10004:10007   */\n      dup4\n        /* \"#utility.yul\":10000:10014   */\n      add\n        /* \"#utility.yul\":9986:10014   */\n      swap1\n      pop\n        /* \"#utility.yul\":9841:10020   */\n      swap3\n      swap2\n      pop\n      pop\n      jump\t// out\n        /* \"#utility.yul\":10026:10242   */\n    tag_455:\n        /* \"#utility.yul\":10125:10135   */\n      0x00\n        /* \"#utility.yul\":10160:10236   */\n      tag_457\n        /* \"#utility.yul\":10232:10235   */\n      dup5\n        /* \"#utility.yul\":10224:10230   */\n      dup5\n        /* \"#utility.yul\":10216:10222   */\n      dup5\n        /* \"#utility.yul\":10160:10236   */\n      tag_458\n      jump\t// in\n    tag_457:\n        /* \"#utility.yul\":10146:10236   */\n      swap1\n      pop\n        /* \"#utility.yul\":10026:10242   */\n      swap4\n      swap3\n      pop\n      pop\n      pop\n      jump\t// out\n        /* \"#utility.yul\":10248:10356   */\n    tag_454:\n        /* \"#utility.yul\":10325:10349   */\n      tag_460\n        /* \"#utility.yul\":10343:10348   */\n      dup2\n        /* \"#utility.yul\":10325:10349   */\n      tag_461\n      jump\t// in\n    tag_460:\n        /* \"#utility.yul\":10320:10323   */\n      dup3\n        /* \"#utility.yul\":10313:10350   */\n      mstore\n        /* \"#utility.yul\":10248:10356   */\n      pop\n      pop\n      jump\t// out\n        /* \"#utility.yul\":10362:10480   */\n    tag_462:\n        /* \"#utility.yul\":10449:10473   */\n      tag_464\n        /* \"#utility.yul\":10467:10472   */\n      dup2\n        /* \"#utility.yul\":10449:10473   */\n      tag_461\n      jump\t// in\n    tag_464:\n        /* \"#utility.yul\":10444:10447   */\n      dup3\n        /* \"#utility.yul\":10437:10474   */\n      mstore\n        /* \"#utility.yul\":10362:10480   */\n      pop\n      pop\n      jump\t// out\n        /* \"#utility.yul\":10516:11248   */\n    tag_465:\n        /* \"#utility.yul\":10635:10638   */\n      0x00\n        /* \"#utility.yul\":10664:10718   */\n      tag_467\n        /* \"#utility.yul\":10712:10717   */\n      dup3\n        /* \"#utility.yul\":10664:10718   */\n      tag_468\n      jump\t// in\n    tag_467:\n        /* \"#utility.yul\":10734:10820   */\n      tag_469\n        /* \"#utility.yul\":10813:10819   */\n      dup2\n        /* \"#utility.yul\":10808:10811   */\n      dup6\n        /* \"#utility.yul\":10734:10820   */\n      tag_470\n      jump\t// in\n    tag_469:\n        /* \"#utility.yul\":10727:10820   */\n      swap4\n      pop\n        /* \"#utility.yul\":10844:10900   */\n      tag_471\n        /* \"#utility.yul\":10894:10899   */\n      dup4\n        /* \"#utility.yul\":10844:10900   */\n      tag_472\n      jump\t// in\n    tag_471:\n        /* \"#utility.yul\":10923:10930   */\n      dup1\n        /* \"#utility.yul\":10954:10955   */\n      0x00\n        /* \"#utility.yul\":10939:11223   */\n    tag_473:\n        /* \"#utility.yul\":10964:10970   */\n      dup4\n        /* \"#utility.yul\":10961:10962   */\n      dup2\n        /* \"#utility.yul\":10958:10971   */\n      lt\n        /* \"#utility.yul\":10939:11223   */\n      iszero\n      tag_475\n      jumpi\n        /* \"#utility.yul\":11040:11046   */\n      dup2\n        /* \"#utility.yul\":11034:11047   */\n      mload\n        /* \"#utility.yul\":11067:11130   */\n      tag_476\n        /* \"#utility.yul\":11126:11129   */\n      dup9\n        /* \"#utility.yul\":11111:11124   */\n      dup3\n        /* \"#utility.yul\":11067:11130   */\n      tag_451\n      jump\t// in\n    tag_476:\n        /* \"#utility.yul\":11060:11130   */\n      swap8\n      pop\n        /* \"#utility.yul\":11153:11213   */\n      tag_477\n        /* \"#utility.yul\":11206:11212   */\n      dup4\n        /* \"#utility.yul\":11153:11213   */\n      tag_478\n      jump\t// in\n    tag_477:\n        /* \"#utility.yul\":11143:11213   */\n      swap3\n      pop\n        /* \"#utility.yul\":10999:11223   */\n      pop\n        /* \"#utility.yul\":10986:10987   */\n      0x01\n        /* \"#utility.yul\":10983:10984   */\n      dup2\n        /* \"#utility.yul\":10979:10988   */\n      add\n        /* \"#utility.yul\":10974:10988   */\n      swap1\n      pop\n        /* \"#utility.yul\":10939:11223   */\n      jump(tag_473)\n    tag_475:\n        /* \"#utility.yul\":10943:10957   */\n      pop\n        /* \"#utility.yul\":11239:11242   */\n      dup6\n        /* \"#utility.yul\":11232:11242   */\n      swap4\n      pop\n        /* \"#utility.yul\":10640:11248   */\n      pop\n      pop\n      pop\n        /* \"#utility.yul\":10516:11248   */\n      swap3\n      swap2\n      pop\n      pop\n      jump\t// out\n        /* \"#utility.yul\":11282:12280   */\n    tag_479:\n        /* \"#utility.yul\":11433:11436   */\n      0x00\n        /* \"#utility.yul\":11456:11552   */\n      tag_481\n        /* \"#utility.yul\":11545:11551   */\n      dup4\n        /* \"#utility.yul\":11540:11543   */\n      dup6\n        /* \"#utility.yul\":11456:11552   */\n      tag_482\n      jump\t// in\n    tag_481:\n        /* \"#utility.yul\":11449:11552   */\n      swap4\n      pop\n        /* \"#utility.yul\":11578:11581   */\n      dup4\n        /* \"#utility.yul\":11623:11627   */\n      0x20\n        /* \"#utility.yul\":11615:11621   */\n      dup5\n        /* \"#utility.yul\":11611:11628   */\n      mul\n        /* \"#utility.yul\":11606:11609   */\n      dup6\n        /* \"#utility.yul\":11602:11629   */\n      add\n        /* \"#utility.yul\":11653:11723   */\n      tag_483\n        /* \"#utility.yul\":11717:11722   */\n      dup5\n        /* \"#utility.yul\":11653:11723   */\n      tag_484\n      jump\t// in\n    tag_483:\n        /* \"#utility.yul\":11746:11753   */\n      dup1\n        /* \"#utility.yul\":11777:11778   */\n      0x00\n        /* \"#utility.yul\":11762:12235   */\n    tag_485:\n        /* \"#utility.yul\":11787:11793   */\n      dup8\n        /* \"#utility.yul\":11784:11785   */\n      dup2\n        /* \"#utility.yul\":11781:11794   */\n      lt\n        /* \"#utility.yul\":11762:12235   */\n      iszero\n      tag_487\n      jumpi\n        /* \"#utility.yul\":11858:11867   */\n      dup5\n        /* \"#utility.yul\":11852:11856   */\n      dup5\n        /* \"#utility.yul\":11848:11868   */\n      sub\n        /* \"#utility.yul\":11843:11846   */\n      dup10\n        /* \"#utility.yul\":11836:11869   */\n      mstore\n        /* \"#utility.yul\":11918:11972   */\n      tag_488\n        /* \"#utility.yul\":11965:11971   */\n      dup3\n        /* \"#utility.yul\":11956:11963   */\n      dup5\n        /* \"#utility.yul\":11918:11972   */\n      tag_489\n      jump\t// in\n    tag_488:\n        /* \"#utility.yul\":11993:12094   */\n      tag_490\n        /* \"#utility.yul\":12089:12093   */\n      dup7\n        /* \"#utility.yul\":12074:12087   */\n      dup3\n        /* \"#utility.yul\":12059:12072   */\n      dup5\n        /* \"#utility.yul\":11993:12094   */\n      tag_455\n      jump\t// in\n    tag_490:\n        /* \"#utility.yul\":11985:12094   */\n      swap6\n      pop\n        /* \"#utility.yul\":12117:12191   */\n      tag_491\n        /* \"#utility.yul\":12184:12190   */\n      dup5\n        /* \"#utility.yul\":12117:12191   */\n      tag_492\n      jump\t// in\n    tag_491:\n        /* \"#utility.yul\":12107:12191   */\n      swap4\n      pop\n        /* \"#utility.yul\":12220:12224   */\n      0x20\n        /* \"#utility.yul\":12215:12218   */\n      dup12\n        /* \"#utility.yul\":12211:12225   */\n      add\n        /* \"#utility.yul\":12204:12225   */\n      swap11\n      pop\n        /* \"#utility.yul\":11822:12235   */\n      pop\n      pop\n        /* \"#utility.yul\":11809:11810   */\n      0x01\n        /* \"#utility.yul\":11806:11807   */\n      dup2\n        /* \"#utility.yul\":11802:11811   */\n      add\n        /* \"#utility.yul\":11797:11811   */\n      swap1\n      pop\n        /* \"#utility.yul\":11762:12235   */\n      jump(tag_485)\n    tag_487:\n        /* \"#utility.yul\":11766:11780   */\n      pop\n        /* \"#utility.yul\":12251:12255   */\n      dup3\n        /* \"#utility.yul\":12244:12255   */\n      swap8\n      pop\n        /* \"#utility.yul\":12271:12274   */\n      dup8\n        /* \"#utility.yul\":12264:12274   */\n      swap5\n      pop\n        /* \"#utility.yul\":11438:12280   */\n      pop\n      pop\n      pop\n      pop\n        /* \"#utility.yul\":11282:12280   */\n      swap4\n      swap3\n      pop\n      pop\n      pop\n      jump\t// out\n        /* \"#utility.yul\":12286:12395   */\n    tag_493:\n        /* \"#utility.yul\":12367:12388   */\n      tag_495\n        /* \"#utility.yul\":12382:12387   */\n      dup2\n        /* \"#utility.yul\":12367:12388   */\n      tag_496\n      jump\t// in\n    tag_495:\n        /* \"#utility.yul\":12362:12365   */\n      dup3\n        /* \"#utility.yul\":12355:12389   */\n      mstore\n        /* \"#utility.yul\":12286:12395   */\n      pop\n      pop\n      jump\t// out\n        /* \"#utility.yul\":12425:12709   */\n    tag_458:\n        /* \"#utility.yul\":12513:12516   */\n      0x00\n        /* \"#utility.yul\":12534:12595   */\n      tag_498\n        /* \"#utility.yul\":12588:12594   */\n      dup4\n        /* \"#utility.yul\":12583:12586   */\n      dup6\n        /* \"#utility.yul\":12534:12595   */\n      tag_499\n      jump\t// in\n    tag_498:\n        /* \"#utility.yul\":12527:12595   */\n      swap4\n      pop\n        /* \"#utility.yul\":12605:12648   */\n      tag_500\n        /* \"#utility.yul\":12641:12647   */\n      dup4\n        /* \"#utility.yul\":12636:12639   */\n      dup6\n        /* \"#utility.yul\":12629:12634   */\n      dup5\n        /* \"#utility.yul\":12605:12648   */\n      tag_369\n      jump\t// in\n    tag_500:\n        /* \"#utility.yul\":12673:12702   */\n      tag_501\n        /* \"#utility.yul\":12695:12701   */\n      dup4\n        /* \"#utility.yul\":12673:12702   */\n      tag_502\n      jump\t// in\n    tag_501:\n        /* \"#utility.yul\":12668:12671   */\n      dup5\n        /* \"#utility.yul\":12664:12703   */\n      add\n        /* \"#utility.yul\":12657:12703   */\n      swap1\n      pop\n        /* \"#utility.yul\":12425:12709   */\n      swap4\n      swap3\n      pop\n      pop\n      pop\n      jump\t// out\n        /* \"#utility.yul\":12739:13056   */\n    tag_503:\n        /* \"#utility.yul\":12855:12858   */\n      0x00\n        /* \"#utility.yul\":12876:12965   */\n      tag_505\n        /* \"#utility.yul\":12958:12964   */\n      dup4\n        /* \"#utility.yul\":12953:12956   */\n      dup6\n        /* \"#utility.yul\":12876:12965   */\n      tag_506\n      jump\t// in\n    tag_505:\n        /* \"#utility.yul\":12869:12965   */\n      swap4\n      pop\n        /* \"#utility.yul\":12975:13018   */\n      tag_507\n        /* \"#utility.yul\":13011:13017   */\n      dup4\n        /* \"#utility.yul\":13006:13009   */\n      dup6\n        /* \"#utility.yul\":12999:13004   */\n      dup5\n        /* \"#utility.yul\":12975:13018   */\n      tag_369\n      jump\t// in\n    tag_507:\n        /* \"#utility.yul\":13043:13049   */\n      dup3\n        /* \"#utility.yul\":13038:13041   */\n      dup5\n        /* \"#utility.yul\":13034:13050   */\n      add\n        /* \"#utility.yul\":13027:13050   */\n      swap1\n      pop\n        /* \"#utility.yul\":12739:13056   */\n      swap4\n      swap3\n      pop\n      pop\n      pop\n      jump\t// out\n        /* \"#utility.yul\":13062:13426   */\n    tag_508:\n        /* \"#utility.yul\":13150:13153   */\n      0x00\n        /* \"#utility.yul\":13178:13217   */\n      tag_510\n        /* \"#utility.yul\":13211:13216   */\n      dup3\n        /* \"#utility.yul\":13178:13217   */\n      tag_511\n      jump\t// in\n    tag_510:\n        /* \"#utility.yul\":13233:13304   */\n      tag_512\n        /* \"#utility.yul\":13297:13303   */\n      dup2\n        /* \"#utility.yul\":13292:13295   */\n      dup6\n        /* \"#utility.yul\":13233:13304   */\n      tag_513\n      jump\t// in\n    tag_512:\n        /* \"#utility.yul\":13226:13304   */\n      swap4\n      pop\n        /* \"#utility.yul\":13313:13365   */\n      tag_514\n        /* \"#utility.yul\":13358:13364   */\n      dup2\n        /* \"#utility.yul\":13353:13356   */\n      dup6\n        /* \"#utility.yul\":13346:13350   */\n      0x20\n        /* \"#utility.yul\":13339:13344   */\n      dup7\n        /* \"#utility.yul\":13335:13351   */\n      add\n        /* \"#utility.yul\":13313:13365   */\n      tag_515\n      jump\t// in\n    tag_514:\n        /* \"#utility.yul\":13390:13419   */\n      tag_516\n        /* \"#utility.yul\":13412:13418   */\n      dup2\n        /* \"#utility.yul\":13390:13419   */\n      tag_502\n      jump\t// in\n    tag_516:\n        /* \"#utility.yul\":13385:13388   */\n      dup5\n        /* \"#utility.yul\":13381:13420   */\n      add\n        /* \"#utility.yul\":13374:13420   */\n      swap2\n      pop\n        /* \"#utility.yul\":13154:13426   */\n      pop\n        /* \"#utility.yul\":13062:13426   */\n      swap3\n      swap2\n      pop\n      pop\n      jump\t// out\n        /* \"#utility.yul\":13432:13809   */\n    tag_517:\n        /* \"#utility.yul\":13538:13541   */\n      0x00\n        /* \"#utility.yul\":13566:13605   */\n      tag_519\n        /* \"#utility.yul\":13599:13604   */\n      dup3\n        /* \"#utility.yul\":13566:13605   */\n      tag_511\n      jump\t// in\n    tag_519:\n        /* \"#utility.yul\":13621:13710   */\n      tag_520\n        /* \"#utility.yul\":13703:13709   */\n      dup2\n        /* \"#utility.yul\":13698:13701   */\n      dup6\n        /* \"#utility.yul\":13621:13710   */\n      tag_506\n      jump\t// in\n    tag_520:\n        /* \"#utility.yul\":13614:13710   */\n      swap4\n      pop\n        /* \"#utility.yul\":13719:13771   */\n      tag_521\n        /* \"#utility.yul\":13764:13770   */\n      dup2\n        /* \"#utility.yul\":13759:13762   */\n      dup6\n        /* \"#utility.yul\":13752:13756   */\n      0x20\n        /* \"#utility.yul\":13745:13750   */\n      dup7\n        /* \"#utility.yul\":13741:13757   */\n      add\n        /* \"#utility.yul\":13719:13771   */\n      tag_515\n      jump\t// in\n    tag_521:\n        /* \"#utility.yul\":13796:13802   */\n      dup1\n        /* \"#utility.yul\":13791:13794   */\n      dup5\n        /* \"#utility.yul\":13787:13803   */\n      add\n        /* \"#utility.yul\":13780:13803   */\n      swap2\n      pop\n        /* \"#utility.yul\":13542:13809   */\n      pop\n        /* \"#utility.yul\":13432:13809   */\n      swap3\n      swap2\n      pop\n      pop\n      jump\t// out\n        /* \"#utility.yul\":13839:14684   */\n    tag_522:\n        /* \"#utility.yul\":13942:13945   */\n      0x00\n        /* \"#utility.yul\":13979:13984   */\n      dup2\n        /* \"#utility.yul\":13973:13985   */\n      sload\n        /* \"#utility.yul\":14008:14044   */\n      tag_524\n        /* \"#utility.yul\":14034:14043   */\n      dup2\n        /* \"#utility.yul\":14008:14044   */\n      tag_65\n      jump\t// in\n    tag_524:\n        /* \"#utility.yul\":14060:14149   */\n      tag_525\n        /* \"#utility.yul\":14142:14148   */\n      dup2\n        /* \"#utility.yul\":14137:14140   */\n      dup7\n        /* \"#utility.yul\":14060:14149   */\n      tag_506\n      jump\t// in\n    tag_525:\n        /* \"#utility.yul\":14053:14149   */\n      swap5\n      pop\n        /* \"#utility.yul\":14180:14181   */\n      0x01\n        /* \"#utility.yul\":14169:14178   */\n      dup3\n        /* \"#utility.yul\":14165:14182   */\n      and\n        /* \"#utility.yul\":14196:14197   */\n      0x00\n        /* \"#utility.yul\":14191:14328   */\n      dup2\n      eq\n      tag_527\n      jumpi\n        /* \"#utility.yul\":14342:14343   */\n      0x01\n        /* \"#utility.yul\":14337:14678   */\n      dup2\n      eq\n      tag_528\n      jumpi\n        /* \"#utility.yul\":14158:14678   */\n      jump(tag_526)\n        /* \"#utility.yul\":14191:14328   */\n    tag_527:\n        /* \"#utility.yul\":14275:14279   */\n      0xff\n        /* \"#utility.yul\":14271:14280   */\n      not\n        /* \"#utility.yul\":14260:14269   */\n      dup4\n        /* \"#utility.yul\":14256:14281   */\n      and\n        /* \"#utility.yul\":14251:14254   */\n      dup7\n        /* \"#utility.yul\":14244:14282   */\n      mstore\n        /* \"#utility.yul\":14311:14317   */\n      dup2\n        /* \"#utility.yul\":14306:14309   */\n      dup7\n        /* \"#utility.yul\":14302:14318   */\n      add\n        /* \"#utility.yul\":14295:14318   */\n      swap4\n      pop\n        /* \"#utility.yul\":14191:14328   */\n      jump(tag_526)\n        /* \"#utility.yul\":14337:14678   */\n    tag_528:\n        /* \"#utility.yul\":14404:14442   */\n      tag_529\n        /* \"#utility.yul\":14436:14441   */\n      dup6\n        /* \"#utility.yul\":14404:14442   */\n      tag_530\n      jump\t// in\n    tag_529:\n        /* \"#utility.yul\":14464:14465   */\n      0x00\n        /* \"#utility.yul\":14478:14632   */\n    tag_531:\n        /* \"#utility.yul\":14492:14498   */\n      dup4\n        /* \"#utility.yul\":14489:14490   */\n      dup2\n        /* \"#utility.yul\":14486:14499   */\n      lt\n        /* \"#utility.yul\":14478:14632   */\n      iszero\n      tag_533\n      jumpi\n        /* \"#utility.yul\":14566:14573   */\n      dup2\n        /* \"#utility.yul\":14560:14574   */\n      sload\n        /* \"#utility.yul\":14556:14557   */\n      dup2\n        /* \"#utility.yul\":14551:14554   */\n      dup10\n        /* \"#utility.yul\":14547:14558   */\n      add\n        /* \"#utility.yul\":14540:14575   */\n      mstore\n        /* \"#utility.yul\":14616:14617   */\n      0x01\n        /* \"#utility.yul\":14607:14614   */\n      dup3\n        /* \"#utility.yul\":14603:14618   */\n      add\n        /* \"#utility.yul\":14592:14618   */\n      swap2\n      pop\n        /* \"#utility.yul\":14514:14518   */\n      0x20\n        /* \"#utility.yul\":14511:14512   */\n      dup2\n        /* \"#utility.yul\":14507:14519   */\n      add\n        /* \"#utility.yul\":14502:14519   */\n      swap1\n      pop\n        /* \"#utility.yul\":14478:14632   */\n      jump(tag_531)\n    tag_533:\n        /* \"#utility.yul\":14661:14667   */\n      dup4\n        /* \"#utility.yul\":14656:14659   */\n      dup9\n        /* \"#utility.yul\":14652:14668   */\n      add\n        /* \"#utility.yul\":14645:14668   */\n      swap6\n      pop\n        /* \"#utility.yul\":14344:14678   */\n      pop\n      pop\n        /* \"#utility.yul\":14158:14678   */\n    tag_526:\n      pop\n        /* \"#utility.yul\":13946:14684   */\n      pop\n      pop\n        /* \"#utility.yul\":13839:14684   */\n      swap3\n      swap2\n      pop\n      pop\n      jump\t// out\n        /* \"#utility.yul\":14690:15056   */\n    tag_534:\n        /* \"#utility.yul\":14832:14835   */\n      0x00\n        /* \"#utility.yul\":14853:14920   */\n      tag_536\n        /* \"#utility.yul\":14917:14919   */\n      0x12\n        /* \"#utility.yul\":14912:14915   */\n      dup4\n        /* \"#utility.yul\":14853:14920   */\n      tag_513\n      jump\t// in\n    tag_536:\n        /* \"#utility.yul\":14846:14920   */\n      swap2\n      pop\n        /* \"#utility.yul\":14929:15022   */\n      tag_537\n        /* \"#utility.yul\":15018:15021   */\n      dup3\n        /* \"#utility.yul\":14929:15022   */\n      tag_538\n      jump\t// in\n    tag_537:\n        /* \"#utility.yul\":15047:15049   */\n      0x20\n        /* \"#utility.yul\":15042:15045   */\n      dup3\n        /* \"#utility.yul\":15038:15050   */\n      add\n        /* \"#utility.yul\":15031:15050   */\n      swap1\n      pop\n        /* \"#utility.yul\":14690:15056   */\n      swap2\n      swap1\n      pop\n      jump\t// out\n        /* \"#utility.yul\":15062:15428   */\n    tag_539:\n        /* \"#utility.yul\":15204:15207   */\n      0x00\n        /* \"#utility.yul\":15225:15292   */\n      tag_541\n        /* \"#utility.yul\":15289:15291   */\n      0x2c\n        /* \"#utility.yul\":15284:15287   */\n      dup4\n        /* \"#utility.yul\":15225:15292   */\n      tag_513\n      jump\t// in\n    tag_541:\n        /* \"#utility.yul\":15218:15292   */\n      swap2\n      pop\n        /* \"#utility.yul\":15301:15394   */\n      tag_542\n        /* \"#utility.yul\":15390:15393   */\n      dup3\n        /* \"#utility.yul\":15301:15394   */\n      tag_543\n      jump\t// in\n    tag_542:\n        /* \"#utility.yul\":15419:15421   */\n      0x40\n        /* \"#utility.yul\":15414:15417   */\n      dup3\n        /* \"#utility.yul\":15410:15422   */\n      add\n        /* \"#utility.yul\":15403:15422   */\n      swap1\n      pop\n        /* \"#utility.yul\":15062:15428   */\n      swap2\n      swap1\n      pop\n      jump\t// out\n        /* \"#utility.yul\":15434:15800   */\n    tag_544:\n        /* \"#utility.yul\":15576:15579   */\n      0x00\n        /* \"#utility.yul\":15597:15664   */\n      tag_546\n        /* \"#utility.yul\":15661:15663   */\n      0x22\n        /* \"#utility.yul\":15656:15659   */\n      dup4\n        /* \"#utility.yul\":15597:15664   */\n      tag_513\n      jump\t// in\n    tag_546:\n        /* \"#utility.yul\":15590:15664   */\n      swap2\n      pop\n        /* \"#utility.yul\":15673:15766   */\n      tag_547\n        /* \"#utility.yul\":15762:15765   */\n      dup3\n        /* \"#utility.yul\":15673:15766   */\n      tag_548\n      jump\t// in\n    tag_547:\n        /* \"#utility.yul\":15791:15793   */\n      0x40\n        /* \"#utility.yul\":15786:15789   */\n      dup3\n        /* \"#utility.yul\":15782:15794   */\n      add\n        /* \"#utility.yul\":15775:15794   */\n      swap1\n      pop\n        /* \"#utility.yul\":15434:15800   */\n      swap2\n      swap1\n      pop\n      jump\t// out\n        /* \"#utility.yul\":15806:16172   */\n    tag_549:\n        /* \"#utility.yul\":15948:15951   */\n      0x00\n        /* \"#utility.yul\":15969:16036   */\n      tag_551\n        /* \"#utility.yul\":16033:16035   */\n      0x0d\n        /* \"#utility.yul\":16028:16031   */\n      dup4\n        /* \"#utility.yul\":15969:16036   */\n      tag_513\n      jump\t// in\n    tag_551:\n        /* \"#utility.yul\":15962:16036   */\n      swap2\n      pop\n        /* \"#utility.yul\":16045:16138   */\n      tag_552\n        /* \"#utility.yul\":16134:16137   */\n      dup3\n        /* \"#utility.yul\":16045:16138   */\n      tag_553\n      jump\t// in\n    tag_552:\n        /* \"#utility.yul\":16163:16165   */\n      0x20\n        /* \"#utility.yul\":16158:16161   */\n      dup3\n        /* \"#utility.yul\":16154:16166   */\n      add\n        /* \"#utility.yul\":16147:16166   */\n      swap1\n      pop\n        /* \"#utility.yul\":15806:16172   */\n      swap2\n      swap1\n      pop\n      jump\t// out\n        /* \"#utility.yul\":16178:16544   */\n    tag_554:\n        /* \"#utility.yul\":16320:16323   */\n      0x00\n        /* \"#utility.yul\":16341:16408   */\n      tag_556\n        /* \"#utility.yul\":16405:16407   */\n      0x1b\n        /* \"#utility.yul\":16400:16403   */\n      dup4\n        /* \"#utility.yul\":16341:16408   */\n      tag_513\n      jump\t// in\n    tag_556:\n        /* \"#utility.yul\":16334:16408   */\n      swap2\n      pop\n        /* \"#utility.yul\":16417:16510   */\n      tag_557\n        /* \"#utility.yul\":16506:16509   */\n      dup3\n        /* \"#utility.yul\":16417:16510   */\n      tag_558\n      jump\t// in\n    tag_557:\n        /* \"#utility.yul\":16535:16537   */\n      0x20\n        /* \"#utility.yul\":16530:16533   */\n      dup3\n        /* \"#utility.yul\":16526:16538   */\n      add\n        /* \"#utility.yul\":16519:16538   */\n      swap1\n      pop\n        /* \"#utility.yul\":16178:16544   */\n      swap2\n      swap1\n      pop\n      jump\t// out\n        /* \"#utility.yul\":16550:16916   */\n    tag_559:\n        /* \"#utility.yul\":16692:16695   */\n      0x00\n        /* \"#utility.yul\":16713:16780   */\n      tag_561\n        /* \"#utility.yul\":16777:16779   */\n      0x14\n        /* \"#utility.yul\":16772:16775   */\n      dup4\n        /* \"#utility.yul\":16713:16780   */\n      tag_513\n      jump\t// in\n    tag_561:\n        /* \"#utility.yul\":16706:16780   */\n      swap2\n      pop\n        /* \"#utility.yul\":16789:16882   */\n      tag_562\n        /* \"#utility.yul\":16878:16881   */\n      dup3\n        /* \"#utility.yul\":16789:16882   */\n      tag_563\n      jump\t// in\n    tag_562:\n        /* \"#utility.yul\":16907:16909   */\n      0x20\n        /* \"#utility.yul\":16902:16905   */\n      dup3\n        /* \"#utility.yul\":16898:16910   */\n      add\n        /* \"#utility.yul\":16891:16910   */\n      swap1\n      pop\n        /* \"#utility.yul\":16550:16916   */\n      swap2\n      swap1\n      pop\n      jump\t// out\n        /* \"#utility.yul\":16922:17288   */\n    tag_564:\n        /* \"#utility.yul\":17064:17067   */\n      0x00\n        /* \"#utility.yul\":17085:17152   */\n      tag_566\n        /* \"#utility.yul\":17149:17151   */\n      0x23\n        /* \"#utility.yul\":17144:17147   */\n      dup4\n        /* \"#utility.yul\":17085:17152   */\n      tag_513\n      jump\t// in\n    tag_566:\n        /* \"#utility.yul\":17078:17152   */\n      swap2\n      pop\n        /* \"#utility.yul\":17161:17254   */\n      tag_567\n        /* \"#utility.yul\":17250:17253   */\n      dup3\n        /* \"#utility.yul\":17161:17254   */\n      tag_568\n      jump\t// in\n    tag_567:\n        /* \"#utility.yul\":17279:17281   */\n      0x40\n        /* \"#utility.yul\":17274:17277   */\n      dup3\n        /* \"#utility.yul\":17270:17282   */\n      add\n        /* \"#utility.yul\":17263:17282   */\n      swap1\n      pop\n        /* \"#utility.yul\":16922:17288   */\n      swap2\n      swap1\n      pop\n      jump\t// out\n        /* \"#utility.yul\":17294:17660   */\n    tag_569:\n        /* \"#utility.yul\":17436:17439   */\n      0x00\n        /* \"#utility.yul\":17457:17524   */\n      tag_571\n        /* \"#utility.yul\":17521:17523   */\n      0x14\n        /* \"#utility.yul\":17516:17519   */\n      dup4\n        /* \"#utility.yul\":17457:17524   */\n      tag_513\n      jump\t// in\n    tag_571:\n        /* \"#utility.yul\":17450:17524   */\n      swap2\n      pop\n        /* \"#utility.yul\":17533:17626   */\n      tag_572\n        /* \"#utility.yul\":17622:17625   */\n      dup3\n        /* \"#utility.yul\":17533:17626   */\n      tag_573\n      jump\t// in\n    tag_572:\n        /* \"#utility.yul\":17651:17653   */\n      0x20\n        /* \"#utility.yul\":17646:17649   */\n      dup3\n        /* \"#utility.yul\":17642:17654   */\n      add\n        /* \"#utility.yul\":17635:17654   */\n      swap1\n      pop\n        /* \"#utility.yul\":17294:17660   */\n      swap2\n      swap1\n      pop\n      jump\t// out\n        /* \"#utility.yul\":17666:18032   */\n    tag_574:\n        /* \"#utility.yul\":17808:17811   */\n      0x00\n        /* \"#utility.yul\":17829:17896   */\n      tag_576\n        /* \"#utility.yul\":17893:17895   */\n      0x23\n        /* \"#utility.yul\":17888:17891   */\n      dup4\n        /* \"#utility.yul\":17829:17896   */\n      tag_513\n      jump\t// in\n    tag_576:\n        /* \"#utility.yul\":17822:17896   */\n      swap2\n      pop\n        /* \"#utility.yul\":17905:17998   */\n      tag_577\n        /* \"#utility.yul\":17994:17997   */\n      dup3\n        /* \"#utility.yul\":17905:17998   */\n      tag_578\n      jump\t// in\n    tag_577:\n        /* \"#utility.yul\":18023:18025   */\n      0x40\n        /* \"#utility.yul\":18018:18021   */\n      dup3\n        /* \"#utility.yul\":18014:18026   */\n      add\n        /* \"#utility.yul\":18007:18026   */\n      swap1\n      pop\n        /* \"#utility.yul\":17666:18032   */\n      swap2\n      swap1\n      pop\n      jump\t// out\n        /* \"#utility.yul\":18038:18404   */\n    tag_579:\n        /* \"#utility.yul\":18180:18183   */\n      0x00\n        /* \"#utility.yul\":18201:18268   */\n      tag_581\n        /* \"#utility.yul\":18265:18267   */\n      0x12\n        /* \"#utility.yul\":18260:18263   */\n      dup4\n        /* \"#utility.yul\":18201:18268   */\n      tag_513\n      jump\t// in\n    tag_581:\n        /* \"#utility.yul\":18194:18268   */\n      swap2\n      pop\n        /* \"#utility.yul\":18277:18370   */\n      tag_582\n        /* \"#utility.yul\":18366:18369   */\n      dup3\n        /* \"#utility.yul\":18277:18370   */\n      tag_583\n      jump\t// in\n    tag_582:\n        /* \"#utility.yul\":18395:18397   */\n      0x20\n        /* \"#utility.yul\":18390:18393   */\n      dup3\n        /* \"#utility.yul\":18386:18398   */\n      add\n        /* \"#utility.yul\":18379:18398   */\n      swap1\n      pop\n        /* \"#utility.yul\":18038:18404   */\n      swap2\n      swap1\n      pop\n      jump\t// out\n        /* \"#utility.yul\":18410:18776   */\n    tag_584:\n        /* \"#utility.yul\":18552:18555   */\n      0x00\n        /* \"#utility.yul\":18573:18640   */\n      tag_586\n        /* \"#utility.yul\":18637:18639   */\n      0x23\n        /* \"#utility.yul\":18632:18635   */\n      dup4\n        /* \"#utility.yul\":18573:18640   */\n      tag_513\n      jump\t// in\n    tag_586:\n        /* \"#utility.yul\":18566:18640   */\n      swap2\n      pop\n        /* \"#utility.yul\":18649:18742   */\n      tag_587\n        /* \"#utility.yul\":18738:18741   */\n      dup3\n        /* \"#utility.yul\":18649:18742   */\n      tag_588\n      jump\t// in\n    tag_587:\n        /* \"#utility.yul\":18767:18769   */\n      0x40\n        /* \"#utility.yul\":18762:18765   */\n      dup3\n        /* \"#utility.yul\":18758:18770   */\n      add\n        /* \"#utility.yul\":18751:18770   */\n      swap1\n      pop\n        /* \"#utility.yul\":18410:18776   */\n      swap2\n      swap1\n      pop\n      jump\t// out\n        /* \"#utility.yul\":18782:19148   */\n    tag_589:\n        /* \"#utility.yul\":18924:18927   */\n      0x00\n        /* \"#utility.yul\":18945:19012   */\n      tag_591\n        /* \"#utility.yul\":19009:19011   */\n      0x2a\n        /* \"#utility.yul\":19004:19007   */\n      dup4\n        /* \"#utility.yul\":18945:19012   */\n      tag_513\n      jump\t// in\n    tag_591:\n        /* \"#utility.yul\":18938:19012   */\n      swap2\n      pop\n        /* \"#utility.yul\":19021:19114   */\n      tag_592\n        /* \"#utility.yul\":19110:19113   */\n      dup3\n        /* \"#utility.yul\":19021:19114   */\n      tag_593\n      jump\t// in\n    tag_592:\n        /* \"#utility.yul\":19139:19141   */\n      0x40\n        /* \"#utility.yul\":19134:19137   */\n      dup3\n        /* \"#utility.yul\":19130:19142   */\n      add\n        /* \"#utility.yul\":19123:19142   */\n      swap1\n      pop\n        /* \"#utility.yul\":18782:19148   */\n      swap2\n      swap1\n      pop\n      jump\t// out\n        /* \"#utility.yul\":19154:19520   */\n    tag_594:\n        /* \"#utility.yul\":19296:19299   */\n      0x00\n        /* \"#utility.yul\":19317:19384   */\n      tag_596\n        /* \"#utility.yul\":19381:19383   */\n      0x21\n        /* \"#utility.yul\":19376:19379   */\n      dup4\n        /* \"#utility.yul\":19317:19384   */\n      tag_513\n      jump\t// in\n    tag_596:\n        /* \"#utility.yul\":19310:19384   */\n      swap2\n      pop\n        /* \"#utility.yul\":19393:19486   */\n      tag_597\n        /* \"#utility.yul\":19482:19485   */\n      dup3\n        /* \"#utility.yul\":19393:19486   */\n      tag_598\n      jump\t// in\n    tag_597:\n        /* \"#utility.yul\":19511:19513   */\n      0x40\n        /* \"#utility.yul\":19506:19509   */\n      dup3\n        /* \"#utility.yul\":19502:19514   */\n      add\n        /* \"#utility.yul\":19495:19514   */\n      swap1\n      pop\n        /* \"#utility.yul\":19154:19520   */\n      swap2\n      swap1\n      pop\n      jump\t// out\n        /* \"#utility.yul\":19526:19892   */\n    tag_599:\n        /* \"#utility.yul\":19668:19671   */\n      0x00\n        /* \"#utility.yul\":19689:19756   */\n      tag_601\n        /* \"#utility.yul\":19753:19755   */\n      0x24\n        /* \"#utility.yul\":19748:19751   */\n      dup4\n        /* \"#utility.yul\":19689:19756   */\n      tag_513\n      jump\t// in\n    tag_601:\n        /* \"#utility.yul\":19682:19756   */\n      swap2\n      pop\n        /* \"#utility.yul\":19765:19858   */\n      tag_602\n        /* \"#utility.yul\":19854:19857   */\n      dup3\n        /* \"#utility.yul\":19765:19858   */\n      tag_603\n      jump\t// in\n    tag_602:\n        /* \"#utility.yul\":19883:19885   */\n      0x40\n        /* \"#utility.yul\":19878:19881   */\n      dup3\n        /* \"#utility.yul\":19874:19886   */\n      add\n        /* \"#utility.yul\":19867:19886   */\n      swap1\n      pop\n        /* \"#utility.yul\":19526:19892   */\n      swap2\n      swap1\n      pop\n      jump\t// out\n        /* \"#utility.yul\":19898:20263   */\n    tag_604:\n        /* \"#utility.yul\":20040:20043   */\n      0x00\n        /* \"#utility.yul\":20061:20127   */\n      tag_606\n        /* \"#utility.yul\":20125:20126   */\n      0x04\n        /* \"#utility.yul\":20120:20123   */\n      dup4\n        /* \"#utility.yul\":20061:20127   */\n      tag_513\n      jump\t// in\n    tag_606:\n        /* \"#utility.yul\":20054:20127   */\n      swap2\n      pop\n        /* \"#utility.yul\":20136:20229   */\n      tag_607\n        /* \"#utility.yul\":20225:20228   */\n      dup3\n        /* \"#utility.yul\":20136:20229   */\n      tag_608\n      jump\t// in\n    tag_607:\n        /* \"#utility.yul\":20254:20256   */\n      0x20\n        /* \"#utility.yul\":20249:20252   */\n      dup3\n        /* \"#utility.yul\":20245:20257   */\n      add\n        /* \"#utility.yul\":20238:20257   */\n      swap1\n      pop\n        /* \"#utility.yul\":19898:20263   */\n      swap2\n      swap1\n      pop\n      jump\t// out\n        /* \"#utility.yul\":20269:20635   */\n    tag_609:\n        /* \"#utility.yul\":20411:20414   */\n      0x00\n        /* \"#utility.yul\":20432:20499   */\n      tag_611\n        /* \"#utility.yul\":20496:20498   */\n      0x1d\n        /* \"#utility.yul\":20491:20494   */\n      dup4\n        /* \"#utility.yul\":20432:20499   */\n      tag_513\n      jump\t// in\n    tag_611:\n        /* \"#utility.yul\":20425:20499   */\n      swap2\n      pop\n        /* \"#utility.yul\":20508:20601   */\n      tag_612\n        /* \"#utility.yul\":20597:20600   */\n      dup3\n        /* \"#utility.yul\":20508:20601   */\n      tag_613\n      jump\t// in\n    tag_612:\n        /* \"#utility.yul\":20626:20628   */\n      0x20\n        /* \"#utility.yul\":20621:20624   */\n      dup3\n        /* \"#utility.yul\":20617:20629   */\n      add\n        /* \"#utility.yul\":20610:20629   */\n      swap1\n      pop\n        /* \"#utility.yul\":20269:20635   */\n      swap2\n      swap1\n      pop\n      jump\t// out\n        /* \"#utility.yul\":20641:21006   */\n    tag_614:\n        /* \"#utility.yul\":20783:20786   */\n      0x00\n        /* \"#utility.yul\":20804:20870   */\n      tag_616\n        /* \"#utility.yul\":20868:20869   */\n      0x04\n        /* \"#utility.yul\":20863:20866   */\n      dup4\n        /* \"#utility.yul\":20804:20870   */\n      tag_513\n      jump\t// in\n    tag_616:\n        /* \"#utility.yul\":20797:20870   */\n      swap2\n      pop\n        /* \"#utility.yul\":20879:20972   */\n      tag_617\n        /* \"#utility.yul\":20968:20971   */\n      dup3\n        /* \"#utility.yul\":20879:20972   */\n      tag_618\n      jump\t// in\n    tag_617:\n        /* \"#utility.yul\":20997:20999   */\n      0x20\n        /* \"#utility.yul\":20992:20995   */\n      dup3\n        /* \"#utility.yul\":20988:21000   */\n      add\n        /* \"#utility.yul\":20981:21000   */\n      swap1\n      pop\n        /* \"#utility.yul\":20641:21006   */\n      swap2\n      swap1\n      pop\n      jump\t// out\n        /* \"#utility.yul\":21012:21377   */\n    tag_619:\n        /* \"#utility.yul\":21154:21157   */\n      0x00\n        /* \"#utility.yul\":21175:21241   */\n      tag_621\n        /* \"#utility.yul\":21239:21240   */\n      0x09\n        /* \"#utility.yul\":21234:21237   */\n      dup4\n        /* \"#utility.yul\":21175:21241   */\n      tag_513\n      jump\t// in\n    tag_621:\n        /* \"#utility.yul\":21168:21241   */\n      swap2\n      pop\n        /* \"#utility.yul\":21250:21343   */\n      tag_622\n        /* \"#utility.yul\":21339:21342   */\n      dup3\n        /* \"#utility.yul\":21250:21343   */\n      tag_623\n      jump\t// in\n    tag_622:\n        /* \"#utility.yul\":21368:21370   */\n      0x20\n        /* \"#utility.yul\":21363:21366   */\n      dup3\n        /* \"#utility.yul\":21359:21371   */\n      add\n        /* \"#utility.yul\":21352:21371   */\n      swap1\n      pop\n        /* \"#utility.yul\":21012:21377   */\n      swap2\n      swap1\n      pop\n      jump\t// out\n        /* \"#utility.yul\":21383:21749   */\n    tag_624:\n        /* \"#utility.yul\":21525:21528   */\n      0x00\n        /* \"#utility.yul\":21546:21613   */\n      tag_626\n        /* \"#utility.yul\":21610:21612   */\n      0x1f\n        /* \"#utility.yul\":21605:21608   */\n      dup4\n        /* \"#utility.yul\":21546:21613   */\n      tag_513\n      jump\t// in\n    tag_626:\n        /* \"#utility.yul\":21539:21613   */\n      swap2\n      pop\n        /* \"#utility.yul\":21622:21715   */\n      tag_627\n        /* \"#utility.yul\":21711:21714   */\n      dup3\n        /* \"#utility.yul\":21622:21715   */\n      tag_628\n      jump\t// in\n    tag_627:\n        /* \"#utility.yul\":21740:21742   */\n      0x20\n        /* \"#utility.yul\":21735:21738   */\n      dup3\n        /* \"#utility.yul\":21731:21743   */\n      add\n        /* \"#utility.yul\":21724:21743   */\n      swap1\n      pop\n        /* \"#utility.yul\":21383:21749   */\n      swap2\n      swap1\n      pop\n      jump\t// out\n        /* \"#utility.yul\":21755:21873   */\n    tag_629:\n        /* \"#utility.yul\":21842:21866   */\n      tag_631\n        /* \"#utility.yul\":21860:21865   */\n      dup2\n        /* \"#utility.yul\":21842:21866   */\n      tag_632\n      jump\t// in\n    tag_631:\n        /* \"#utility.yul\":21837:21840   */\n      dup3\n        /* \"#utility.yul\":21830:21867   */\n      mstore\n        /* \"#utility.yul\":21755:21873   */\n      pop\n      pop\n      jump\t// out\n        /* \"#utility.yul\":21879:21994   */\n    tag_633:\n        /* \"#utility.yul\":21964:21987   */\n      tag_635\n        /* \"#utility.yul\":21981:21986   */\n      dup2\n        /* \"#utility.yul\":21964:21987   */\n      tag_636\n      jump\t// in\n    tag_635:\n        /* \"#utility.yul\":21959:21962   */\n      dup3\n        /* \"#utility.yul\":21952:21988   */\n      mstore\n        /* \"#utility.yul\":21879:21994   */\n      pop\n      pop\n      jump\t// out\n        /* \"#utility.yul\":22000:22118   */\n    tag_637:\n        /* \"#utility.yul\":22087:22111   */\n      tag_639\n        /* \"#utility.yul\":22105:22110   */\n      dup2\n        /* \"#utility.yul\":22087:22111   */\n      tag_640\n      jump\t// in\n    tag_639:\n        /* \"#utility.yul\":22082:22085   */\n      dup3\n        /* \"#utility.yul\":22075:22112   */\n      mstore\n        /* \"#utility.yul\":22000:22118   */\n      pop\n      pop\n      jump\t// out\n        /* \"#utility.yul\":22124:22236   */\n    tag_641:\n        /* \"#utility.yul\":22207:22229   */\n      tag_643\n        /* \"#utility.yul\":22223:22228   */\n      dup2\n        /* \"#utility.yul\":22207:22229   */\n      tag_644\n      jump\t// in\n    tag_643:\n        /* \"#utility.yul\":22202:22205   */\n      dup3\n        /* \"#utility.yul\":22195:22230   */\n      mstore\n        /* \"#utility.yul\":22124:22236   */\n      pop\n      pop\n      jump\t// out\n        /* \"#utility.yul\":22242:22537   */\n    tag_183:\n        /* \"#utility.yul\":22384:22387   */\n      0x00\n        /* \"#utility.yul\":22406:22511   */\n      tag_646\n        /* \"#utility.yul\":22507:22510   */\n      dup3\n        /* \"#utility.yul\":22498:22504   */\n      dup5\n        /* \"#utility.yul\":22490:22496   */\n      dup7\n        /* \"#utility.yul\":22406:22511   */\n      tag_503\n      jump\t// in\n    tag_646:\n        /* \"#utility.yul\":22399:22511   */\n      swap2\n      pop\n        /* \"#utility.yul\":22528:22531   */\n      dup2\n        /* \"#utility.yul\":22521:22531   */\n      swap1\n      pop\n        /* \"#utility.yul\":22242:22537   */\n      swap4\n      swap3\n      pop\n      pop\n      pop\n      jump\t// out\n        /* \"#utility.yul\":22543:22818   */\n    tag_243:\n        /* \"#utility.yul\":22675:22678   */\n      0x00\n        /* \"#utility.yul\":22697:22792   */\n      tag_648\n        /* \"#utility.yul\":22788:22791   */\n      dup3\n        /* \"#utility.yul\":22779:22785   */\n      dup5\n        /* \"#utility.yul\":22697:22792   */\n      tag_517\n      jump\t// in\n    tag_648:\n        /* \"#utility.yul\":22690:22792   */\n      swap2\n      pop\n        /* \"#utility.yul\":22809:22812   */\n      dup2\n        /* \"#utility.yul\":22802:22812   */\n      swap1\n      pop\n        /* \"#utility.yul\":22543:22818   */\n      swap3\n      swap2\n      pop\n      pop\n      jump\t// out\n        /* \"#utility.yul\":22824:23093   */\n    tag_214:\n        /* \"#utility.yul\":22953:22956   */\n      0x00\n        /* \"#utility.yul\":22975:23067   */\n      tag_650\n        /* \"#utility.yul\":23063:23066   */\n      dup3\n        /* \"#utility.yul\":23054:23060   */\n      dup5\n        /* \"#utility.yul\":22975:23067   */\n      tag_522\n      jump\t// in\n    tag_650:\n        /* \"#utility.yul\":22968:23067   */\n      swap2\n      pop\n        /* \"#utility.yul\":23084:23087   */\n      dup2\n        /* \"#utility.yul\":23077:23087   */\n      swap1\n      pop\n        /* \"#utility.yul\":22824:23093   */\n      swap3\n      swap2\n      pop\n      pop\n      jump\t// out\n        /* \"#utility.yul\":23099:24064   */\n    tag_20:\n        /* \"#utility.yul\":23374:23378   */\n      0x00\n        /* \"#utility.yul\":23412:23415   */\n      0xe0\n        /* \"#utility.yul\":23401:23410   */\n      dup3\n        /* \"#utility.yul\":23397:23416   */\n      add\n        /* \"#utility.yul\":23389:23416   */\n      swap1\n      pop\n        /* \"#utility.yul\":23426:23497   */\n      tag_652\n        /* \"#utility.yul\":23494:23495   */\n      0x00\n        /* \"#utility.yul\":23483:23492   */\n      dup4\n        /* \"#utility.yul\":23479:23496   */\n      add\n        /* \"#utility.yul\":23470:23476   */\n      dup11\n        /* \"#utility.yul\":23426:23497   */\n      tag_462\n      jump\t// in\n    tag_652:\n        /* \"#utility.yul\":23507:23575   */\n      tag_653\n        /* \"#utility.yul\":23571:23573   */\n      0x20\n        /* \"#utility.yul\":23560:23569   */\n      dup4\n        /* \"#utility.yul\":23556:23574   */\n      add\n        /* \"#utility.yul\":23547:23553   */\n      dup10\n        /* \"#utility.yul\":23507:23575   */\n      tag_641\n      jump\t// in\n    tag_653:\n        /* \"#utility.yul\":23622:23631   */\n      dup2\n        /* \"#utility.yul\":23616:23620   */\n      dup2\n        /* \"#utility.yul\":23612:23632   */\n      sub\n        /* \"#utility.yul\":23607:23609   */\n      0x40\n        /* \"#utility.yul\":23596:23605   */\n      dup4\n        /* \"#utility.yul\":23592:23610   */\n      add\n        /* \"#utility.yul\":23585:23633   */\n      mstore\n        /* \"#utility.yul\":23650:23728   */\n      tag_654\n        /* \"#utility.yul\":23723:23727   */\n      dup2\n        /* \"#utility.yul\":23714:23720   */\n      dup9\n        /* \"#utility.yul\":23650:23728   */\n      tag_508\n      jump\t// in\n    tag_654:\n        /* \"#utility.yul\":23642:23728   */\n      swap1\n      pop\n        /* \"#utility.yul\":23738:23810   */\n      tag_655\n        /* \"#utility.yul\":23806:23808   */\n      0x60\n        /* \"#utility.yul\":23795:23804   */\n      dup4\n        /* \"#utility.yul\":23791:23809   */\n      add\n        /* \"#utility.yul\":23782:23788   */\n      dup8\n        /* \"#utility.yul\":23738:23810   */\n      tag_637\n      jump\t// in\n    tag_655:\n        /* \"#utility.yul\":23820:23893   */\n      tag_656\n        /* \"#utility.yul\":23888:23891   */\n      0x80\n        /* \"#utility.yul\":23877:23886   */\n      dup4\n        /* \"#utility.yul\":23873:23892   */\n      add\n        /* \"#utility.yul\":23864:23870   */\n      dup7\n        /* \"#utility.yul\":23820:23893   */\n      tag_637\n      jump\t// in\n    tag_656:\n        /* \"#utility.yul\":23903:23974   */\n      tag_657\n        /* \"#utility.yul\":23969:23972   */\n      0xa0\n        /* \"#utility.yul\":23958:23967   */\n      dup4\n        /* \"#utility.yul\":23954:23973   */\n      add\n        /* \"#utility.yul\":23945:23951   */\n      dup6\n        /* \"#utility.yul\":23903:23974   */\n      tag_633\n      jump\t// in\n    tag_657:\n        /* \"#utility.yul\":23984:24057   */\n      tag_658\n        /* \"#utility.yul\":24052:24055   */\n      0xc0\n        /* \"#utility.yul\":24041:24050   */\n      dup4\n        /* \"#utility.yul\":24037:24056   */\n      add\n        /* \"#utility.yul\":24028:24034   */\n      dup5\n        /* \"#utility.yul\":23984:24057   */\n      tag_637\n      jump\t// in\n    tag_658:\n        /* \"#utility.yul\":23099:24064   */\n      swap9\n      swap8\n      pop\n      pop\n      pop\n      pop\n      pop\n      pop\n      pop\n      pop\n      jump\t// out\n        /* \"#utility.yul\":24070:24383   */\n    tag_24:\n        /* \"#utility.yul\":24183:24187   */\n      0x00\n        /* \"#utility.yul\":24221:24223   */\n      0x20\n        /* \"#utility.yul\":24210:24219   */\n      dup3\n        /* \"#utility.yul\":24206:24224   */\n      add\n        /* \"#utility.yul\":24198:24224   */\n      swap1\n      pop\n        /* \"#utility.yul\":24270:24279   */\n      dup2\n        /* \"#utility.yul\":24264:24268   */\n      dup2\n        /* \"#utility.yul\":24260:24280   */\n      sub\n        /* \"#utility.yul\":24256:24257   */\n      0x00\n        /* \"#utility.yul\":24245:24254   */\n      dup4\n        /* \"#utility.yul\":24241:24258   */\n      add\n        /* \"#utility.yul\":24234:24281   */\n      mstore\n        /* \"#utility.yul\":24298:24376   */\n      tag_660\n        /* \"#utility.yul\":24371:24375   */\n      dup2\n        /* \"#utility.yul\":24362:24368   */\n      dup5\n        /* \"#utility.yul\":24298:24376   */\n      tag_508\n      jump\t// in\n    tag_660:\n        /* \"#utility.yul\":24290:24376   */\n      swap1\n      pop\n        /* \"#utility.yul\":24070:24383   */\n      swap3\n      swap2\n      pop\n      pop\n      jump\t// out\n        /* \"#utility.yul\":24389:24808   */\n    tag_211:\n        /* \"#utility.yul\":24555:24559   */\n      0x00\n        /* \"#utility.yul\":24593:24595   */\n      0x20\n        /* \"#utility.yul\":24582:24591   */\n      dup3\n        /* \"#utility.yul\":24578:24596   */\n      add\n        /* \"#utility.yul\":24570:24596   */\n      swap1\n      pop\n        /* \"#utility.yul\":24642:24651   */\n      dup2\n        /* \"#utility.yul\":24636:24640   */\n      dup2\n        /* \"#utility.yul\":24632:24652   */\n      sub\n        /* \"#utility.yul\":24628:24629   */\n      0x00\n        /* \"#utility.yul\":24617:24626   */\n      dup4\n        /* \"#utility.yul\":24613:24630   */\n      add\n        /* \"#utility.yul\":24606:24653   */\n      mstore\n        /* \"#utility.yul\":24670:24801   */\n      tag_662\n        /* \"#utility.yul\":24796:24800   */\n      dup2\n        /* \"#utility.yul\":24670:24801   */\n      tag_534\n      jump\t// in\n    tag_662:\n        /* \"#utility.yul\":24662:24801   */\n      swap1\n      pop\n        /* \"#utility.yul\":24389:24808   */\n      swap2\n      swap1\n      pop\n      jump\t// out\n        /* \"#utility.yul\":24814:25233   */\n    tag_84:\n        /* \"#utility.yul\":24980:24984   */\n      0x00\n        /* \"#utility.yul\":25018:25020   */\n      0x20\n        /* \"#utility.yul\":25007:25016   */\n      dup3\n        /* \"#utility.yul\":25003:25021   */\n      add\n        /* \"#utility.yul\":24995:25021   */\n      swap1\n      pop\n        /* \"#utility.yul\":25067:25076   */\n      dup2\n        /* \"#utility.yul\":25061:25065   */\n      dup2\n        /* \"#utility.yul\":25057:25077   */\n      sub\n        /* \"#utility.yul\":25053:25054   */\n      0x00\n        /* \"#utility.yul\":25042:25051   */\n      dup4\n        /* \"#utility.yul\":25038:25055   */\n      add\n        /* \"#utility.yul\":25031:25078   */\n      mstore\n        /* \"#utility.yul\":25095:25226   */\n      tag_664\n        /* \"#utility.yul\":25221:25225   */\n      dup2\n        /* \"#utility.yul\":25095:25226   */\n      tag_539\n      jump\t// in\n    tag_664:\n        /* \"#utility.yul\":25087:25226   */\n      swap1\n      pop\n        /* \"#utility.yul\":24814:25233   */\n      swap2\n      swap1\n      pop\n      jump\t// out\n        /* \"#utility.yul\":25239:25658   */\n    tag_290:\n        /* \"#utility.yul\":25405:25409   */\n      0x00\n        /* \"#utility.yul\":25443:25445   */\n      0x20\n        /* \"#utility.yul\":25432:25441   */\n      dup3\n        /* \"#utility.yul\":25428:25446   */\n      add\n        /* \"#utility.yul\":25420:25446   */\n      swap1\n      pop\n        /* \"#utility.yul\":25492:25501   */\n      dup2\n        /* \"#utility.yul\":25486:25490   */\n      dup2\n        /* \"#utility.yul\":25482:25502   */\n      sub\n        /* \"#utility.yul\":25478:25479   */\n      0x00\n        /* \"#utility.yul\":25467:25476   */\n      dup4\n        /* \"#utility.yul\":25463:25480   */\n      add\n        /* \"#utility.yul\":25456:25503   */\n      mstore\n        /* \"#utility.yul\":25520:25651   */\n      tag_666\n        /* \"#utility.yul\":25646:25650   */\n      dup2\n        /* \"#utility.yul\":25520:25651   */\n      tag_544\n      jump\t// in\n    tag_666:\n        /* \"#utility.yul\":25512:25651   */\n      swap1\n      pop\n        /* \"#utility.yul\":25239:25658   */\n      swap2\n      swap1\n      pop\n      jump\t// out\n        /* \"#utility.yul\":25664:26083   */\n    tag_126:\n        /* \"#utility.yul\":25830:25834   */\n      0x00\n        /* \"#utility.yul\":25868:25870   */\n      0x20\n        /* \"#utility.yul\":25857:25866   */\n      dup3\n        /* \"#utility.yul\":25853:25871   */\n      add\n        /* \"#utility.yul\":25845:25871   */\n      swap1\n      pop\n        /* \"#utility.yul\":25917:25926   */\n      dup2\n        /* \"#utility.yul\":25911:25915   */\n      dup2\n        /* \"#utility.yul\":25907:25927   */\n      sub\n        /* \"#utility.yul\":25903:25904   */\n      0x00\n        /* \"#utility.yul\":25892:25901   */\n      dup4\n        /* \"#utility.yul\":25888:25905   */\n      add\n        /* \"#utility.yul\":25881:25928   */\n      mstore\n        /* \"#utility.yul\":25945:26076   */\n      tag_668\n        /* \"#utility.yul\":26071:26075   */\n      dup2\n        /* \"#utility.yul\":25945:26076   */\n      tag_549\n      jump\t// in\n    tag_668:\n        /* \"#utility.yul\":25937:26076   */\n      swap1\n      pop\n        /* \"#utility.yul\":25664:26083   */\n      swap2\n      swap1\n      pop\n      jump\t// out\n        /* \"#utility.yul\":26089:26508   */\n    tag_246:\n        /* \"#utility.yul\":26255:26259   */\n      0x00\n        /* \"#utility.yul\":26293:26295   */\n      0x20\n        /* \"#utility.yul\":26282:26291   */\n      dup3\n        /* \"#utility.yul\":26278:26296   */\n      add\n        /* \"#utility.yul\":26270:26296   */\n      swap1\n      pop\n        /* \"#utility.yul\":26342:26351   */\n      dup2\n        /* \"#utility.yul\":26336:26340   */\n      dup2\n        /* \"#utility.yul\":26332:26352   */\n      sub\n        /* \"#utility.yul\":26328:26329   */\n      0x00\n        /* \"#utility.yul\":26317:26326   */\n      dup4\n        /* \"#utility.yul\":26313:26330   */\n      add\n        /* \"#utility.yul\":26306:26353   */\n      mstore\n        /* \"#utility.yul\":26370:26501   */\n      tag_670\n        /* \"#utility.yul\":26496:26500   */\n      dup2\n        /* \"#utility.yul\":26370:26501   */\n      tag_554\n      jump\t// in\n    tag_670:\n        /* \"#utility.yul\":26362:26501   */\n      swap1\n      pop\n        /* \"#utility.yul\":26089:26508   */\n      swap2\n      swap1\n      pop\n      jump\t// out\n        /* \"#utility.yul\":26514:26933   */\n    tag_166:\n        /* \"#utility.yul\":26680:26684   */\n      0x00\n        /* \"#utility.yul\":26718:26720   */\n      0x20\n        /* \"#utility.yul\":26707:26716   */\n      dup3\n        /* \"#utility.yul\":26703:26721   */\n      add\n        /* \"#utility.yul\":26695:26721   */\n      swap1\n      pop\n        /* \"#utility.yul\":26767:26776   */\n      dup2\n        /* \"#utility.yul\":26761:26765   */\n      dup2\n        /* \"#utility.yul\":26757:26777   */\n      sub\n        /* \"#utility.yul\":26753:26754   */\n      0x00\n        /* \"#utility.yul\":26742:26751   */\n      dup4\n        /* \"#utility.yul\":26738:26755   */\n      add\n        /* \"#utility.yul\":26731:26778   */\n      mstore\n        /* \"#utility.yul\":26795:26926   */\n      tag_672\n        /* \"#utility.yul\":26921:26925   */\n      dup2\n        /* \"#utility.yul\":26795:26926   */\n      tag_559\n      jump\t// in\n    tag_672:\n        /* \"#utility.yul\":26787:26926   */\n      swap1\n      pop\n        /* \"#utility.yul\":26514:26933   */\n      swap2\n      swap1\n      pop\n      jump\t// out\n        /* \"#utility.yul\":26939:27358   */\n    tag_123:\n        /* \"#utility.yul\":27105:27109   */\n      0x00\n        /* \"#utility.yul\":27143:27145   */\n      0x20\n        /* \"#utility.yul\":27132:27141   */\n      dup3\n        /* \"#utility.yul\":27128:27146   */\n      add\n        /* \"#utility.yul\":27120:27146   */\n      swap1\n      pop\n        /* \"#utility.yul\":27192:27201   */\n      dup2\n        /* \"#utility.yul\":27186:27190   */\n      dup2\n        /* \"#utility.yul\":27182:27202   */\n      sub\n        /* \"#utility.yul\":27178:27179   */\n      0x00\n        /* \"#utility.yul\":27167:27176   */\n      dup4\n        /* \"#utility.yul\":27163:27180   */\n      add\n        /* \"#utility.yul\":27156:27203   */\n      mstore\n        /* \"#utility.yul\":27220:27351   */\n      tag_674\n        /* \"#utility.yul\":27346:27350   */\n      dup2\n        /* \"#utility.yul\":27220:27351   */\n      tag_564\n      jump\t// in\n    tag_674:\n        /* \"#utility.yul\":27212:27351   */\n      swap1\n      pop\n        /* \"#utility.yul\":26939:27358   */\n      swap2\n      swap1\n      pop\n      jump\t// out\n        /* \"#utility.yul\":27364:27783   */\n    tag_81:\n        /* \"#utility.yul\":27530:27534   */\n      0x00\n        /* \"#utility.yul\":27568:27570   */\n      0x20\n        /* \"#utility.yul\":27557:27566   */\n      dup3\n        /* \"#utility.yul\":27553:27571   */\n      add\n        /* \"#utility.yul\":27545:27571   */\n      swap1\n      pop\n        /* \"#utility.yul\":27617:27626   */\n      dup2\n        /* \"#utility.yul\":27611:27615   */\n      dup2\n        /* \"#utility.yul\":27607:27627   */\n      sub\n        /* \"#utility.yul\":27603:27604   */\n      0x00\n        /* \"#utility.yul\":27592:27601   */\n      dup4\n        /* \"#utility.yul\":27588:27605   */\n      add\n        /* \"#utility.yul\":27581:27628   */\n      mstore\n        /* \"#utility.yul\":27645:27776   */\n      tag_676\n        /* \"#utility.yul\":27771:27775   */\n      dup2\n        /* \"#utility.yul\":27645:27776   */\n      tag_569\n      jump\t// in\n    tag_676:\n        /* \"#utility.yul\":27637:27776   */\n      swap1\n      pop\n        /* \"#utility.yul\":27364:27783   */\n      swap2\n      swap1\n      pop\n      jump\t// out\n        /* \"#utility.yul\":27789:28208   */\n    tag_236:\n        /* \"#utility.yul\":27955:27959   */\n      0x00\n        /* \"#utility.yul\":27993:27995   */\n      0x20\n        /* \"#utility.yul\":27982:27991   */\n      dup3\n        /* \"#utility.yul\":27978:27996   */\n      add\n        /* \"#utility.yul\":27970:27996   */\n      swap1\n      pop\n        /* \"#utility.yul\":28042:28051   */\n      dup2\n        /* \"#utility.yul\":28036:28040   */\n      dup2\n        /* \"#utility.yul\":28032:28052   */\n      sub\n        /* \"#utility.yul\":28028:28029   */\n      0x00\n        /* \"#utility.yul\":28017:28026   */\n      dup4\n        /* \"#utility.yul\":28013:28030   */\n      add\n        /* \"#utility.yul\":28006:28053   */\n      mstore\n        /* \"#utility.yul\":28070:28201   */\n      tag_678\n        /* \"#utility.yul\":28196:28200   */\n      dup2\n        /* \"#utility.yul\":28070:28201   */\n      tag_574\n      jump\t// in\n    tag_678:\n        /* \"#utility.yul\":28062:28201   */\n      swap1\n      pop\n        /* \"#utility.yul\":27789:28208   */\n      swap2\n      swap1\n      pop\n      jump\t// out\n        /* \"#utility.yul\":28214:28633   */\n    tag_120:\n        /* \"#utility.yul\":28380:28384   */\n      0x00\n        /* \"#utility.yul\":28418:28420   */\n      0x20\n        /* \"#utility.yul\":28407:28416   */\n      dup3\n        /* \"#utility.yul\":28403:28421   */\n      add\n        /* \"#utility.yul\":28395:28421   */\n      swap1\n      pop\n        /* \"#utility.yul\":28467:28476   */\n      dup2\n        /* \"#utility.yul\":28461:28465   */\n      dup2\n        /* \"#utility.yul\":28457:28477   */\n      sub\n        /* \"#utility.yul\":28453:28454   */\n      0x00\n        /* \"#utility.yul\":28442:28451   */\n      dup4\n        /* \"#utility.yul\":28438:28455   */\n      add\n        /* \"#utility.yul\":28431:28478   */\n      mstore\n        /* \"#utility.yul\":28495:28626   */\n      tag_680\n        /* \"#utility.yul\":28621:28625   */\n      dup2\n        /* \"#utility.yul\":28495:28626   */\n      tag_579\n      jump\t// in\n    tag_680:\n        /* \"#utility.yul\":28487:28626   */\n      swap1\n      pop\n        /* \"#utility.yul\":28214:28633   */\n      swap2\n      swap1\n      pop\n      jump\t// out\n        /* \"#utility.yul\":28639:29058   */\n    tag_144:\n        /* \"#utility.yul\":28805:28809   */\n      0x00\n        /* \"#utility.yul\":28843:28845   */\n      0x20\n        /* \"#utility.yul\":28832:28841   */\n      dup3\n        /* \"#utility.yul\":28828:28846   */\n      add\n        /* \"#utility.yul\":28820:28846   */\n      swap1\n      pop\n        /* \"#utility.yul\":28892:28901   */\n      dup2\n        /* \"#utility.yul\":28886:28890   */\n      dup2\n        /* \"#utility.yul\":28882:28902   */\n      sub\n        /* \"#utility.yul\":28878:28879   */\n      0x00\n        /* \"#utility.yul\":28867:28876   */\n      dup4\n        /* \"#utility.yul\":28863:28880   */\n      add\n        /* \"#utility.yul\":28856:28903   */\n      mstore\n        /* \"#utility.yul\":28920:29051   */\n      tag_682\n        /* \"#utility.yul\":29046:29050   */\n      dup2\n        /* \"#utility.yul\":28920:29051   */\n      tag_584\n      jump\t// in\n    tag_682:\n        /* \"#utility.yul\":28912:29051   */\n      swap1\n      pop\n        /* \"#utility.yul\":28639:29058   */\n      swap2\n      swap1\n      pop\n      jump\t// out\n        /* \"#utility.yul\":29064:29483   */\n    tag_87:\n        /* \"#utility.yul\":29230:29234   */\n      0x00\n        /* \"#utility.yul\":29268:29270   */\n      0x20\n        /* \"#utility.yul\":29257:29266   */\n      dup3\n        /* \"#utility.yul\":29253:29271   */\n      add\n        /* \"#utility.yul\":29245:29271   */\n      swap1\n      pop\n        /* \"#utility.yul\":29317:29326   */\n      dup2\n        /* \"#utility.yul\":29311:29315   */\n      dup2\n        /* \"#utility.yul\":29307:29327   */\n      sub\n        /* \"#utility.yul\":29303:29304   */\n      0x00\n        /* \"#utility.yul\":29292:29301   */\n      dup4\n        /* \"#utility.yul\":29288:29305   */\n      add\n        /* \"#utility.yul\":29281:29328   */\n      mstore\n        /* \"#utility.yul\":29345:29476   */\n      tag_684\n        /* \"#utility.yul\":29471:29475   */\n      dup2\n        /* \"#utility.yul\":29345:29476   */\n      tag_589\n      jump\t// in\n    tag_684:\n        /* \"#utility.yul\":29337:29476   */\n      swap1\n      pop\n        /* \"#utility.yul\":29064:29483   */\n      swap2\n      swap1\n      pop\n      jump\t// out\n        /* \"#utility.yul\":29489:29908   */\n    tag_287:\n        /* \"#utility.yul\":29655:29659   */\n      0x00\n        /* \"#utility.yul\":29693:29695   */\n      0x20\n        /* \"#utility.yul\":29682:29691   */\n      dup3\n        /* \"#utility.yul\":29678:29696   */\n      add\n        /* \"#utility.yul\":29670:29696   */\n      swap1\n      pop\n        /* \"#utility.yul\":29742:29751   */\n      dup2\n        /* \"#utility.yul\":29736:29740   */\n      dup2\n        /* \"#utility.yul\":29732:29752   */\n      sub\n        /* \"#utility.yul\":29728:29729   */\n      0x00\n        /* \"#utility.yul\":29717:29726   */\n      dup4\n        /* \"#utility.yul\":29713:29730   */\n      add\n        /* \"#utility.yul\":29706:29753   */\n      mstore\n        /* \"#utility.yul\":29770:29901   */\n      tag_686\n        /* \"#utility.yul\":29896:29900   */\n      dup2\n        /* \"#utility.yul\":29770:29901   */\n      tag_594\n      jump\t// in\n    tag_686:\n        /* \"#utility.yul\":29762:29901   */\n      swap1\n      pop\n        /* \"#utility.yul\":29489:29908   */\n      swap2\n      swap1\n      pop\n      jump\t// out\n        /* \"#utility.yul\":29914:30333   */\n    tag_129:\n        /* \"#utility.yul\":30080:30084   */\n      0x00\n        /* \"#utility.yul\":30118:30120   */\n      0x20\n        /* \"#utility.yul\":30107:30116   */\n      dup3\n        /* \"#utility.yul\":30103:30121   */\n      add\n        /* \"#utility.yul\":30095:30121   */\n      swap1\n      pop\n        /* \"#utility.yul\":30167:30176   */\n      dup2\n        /* \"#utility.yul\":30161:30165   */\n      dup2\n        /* \"#utility.yul\":30157:30177   */\n      sub\n        /* \"#utility.yul\":30153:30154   */\n      0x00\n        /* \"#utility.yul\":30142:30151   */\n      dup4\n        /* \"#utility.yul\":30138:30155   */\n      add\n        /* \"#utility.yul\":30131:30178   */\n      mstore\n        /* \"#utility.yul\":30195:30326   */\n      tag_688\n        /* \"#utility.yul\":30321:30325   */\n      dup2\n        /* \"#utility.yul\":30195:30326   */\n      tag_599\n      jump\t// in\n    tag_688:\n        /* \"#utility.yul\":30187:30326   */\n      swap1\n      pop\n        /* \"#utility.yul\":29914:30333   */\n      swap2\n      swap1\n      pop\n      jump\t// out\n        /* \"#utility.yul\":30339:30978   */\n    tag_111:\n        /* \"#utility.yul\":30561:30565   */\n      0x00\n        /* \"#utility.yul\":30599:30601   */\n      0x60\n        /* \"#utility.yul\":30588:30597   */\n      dup3\n        /* \"#utility.yul\":30584:30602   */\n      add\n        /* \"#utility.yul\":30576:30602   */\n      swap1\n      pop\n        /* \"#utility.yul\":30648:30657   */\n      dup2\n        /* \"#utility.yul\":30642:30646   */\n      dup2\n        /* \"#utility.yul\":30638:30658   */\n      sub\n        /* \"#utility.yul\":30634:30635   */\n      0x00\n        /* \"#utility.yul\":30623:30632   */\n      dup4\n        /* \"#utility.yul\":30619:30636   */\n      add\n        /* \"#utility.yul\":30612:30659   */\n      mstore\n        /* \"#utility.yul\":30676:30807   */\n      tag_690\n        /* \"#utility.yul\":30802:30806   */\n      dup2\n        /* \"#utility.yul\":30676:30807   */\n      tag_604\n      jump\t// in\n    tag_690:\n        /* \"#utility.yul\":30668:30807   */\n      swap1\n      pop\n        /* \"#utility.yul\":30817:30889   */\n      tag_691\n        /* \"#utility.yul\":30885:30887   */\n      0x20\n        /* \"#utility.yul\":30874:30883   */\n      dup4\n        /* \"#utility.yul\":30870:30888   */\n      add\n        /* \"#utility.yul\":30861:30867   */\n      dup6\n        /* \"#utility.yul\":30817:30889   */\n      tag_462\n      jump\t// in\n    tag_691:\n        /* \"#utility.yul\":30899:30971   */\n      tag_692\n        /* \"#utility.yul\":30967:30969   */\n      0x40\n        /* \"#utility.yul\":30956:30965   */\n      dup4\n        /* \"#utility.yul\":30952:30970   */\n      add\n        /* \"#utility.yul\":30943:30949   */\n      dup5\n        /* \"#utility.yul\":30899:30971   */\n      tag_637\n      jump\t// in\n    tag_692:\n        /* \"#utility.yul\":30339:30978   */\n      swap4\n      swap3\n      pop\n      pop\n      pop\n      jump\t// out\n        /* \"#utility.yul\":30984:31403   */\n    tag_267:\n        /* \"#utility.yul\":31150:31154   */\n      0x00\n        /* \"#utility.yul\":31188:31190   */\n      0x20\n        /* \"#utility.yul\":31177:31186   */\n      dup3\n        /* \"#utility.yul\":31173:31191   */\n      add\n        /* \"#utility.yul\":31165:31191   */\n      swap1\n      pop\n        /* \"#utility.yul\":31237:31246   */\n      dup2\n        /* \"#utility.yul\":31231:31235   */\n      dup2\n        /* \"#utility.yul\":31227:31247   */\n      sub\n        /* \"#utility.yul\":31223:31224   */\n      0x00\n        /* \"#utility.yul\":31212:31221   */\n      dup4\n        /* \"#utility.yul\":31208:31225   */\n      add\n        /* \"#utility.yul\":31201:31248   */\n      mstore\n        /* \"#utility.yul\":31265:31396   */\n      tag_694\n        /* \"#utility.yul\":31391:31395   */\n      dup2\n        /* \"#utility.yul\":31265:31396   */\n      tag_609\n      jump\t// in\n    tag_694:\n        /* \"#utility.yul\":31257:31396   */\n      swap1\n      pop\n        /* \"#utility.yul\":30984:31403   */\n      swap2\n      swap1\n      pop\n      jump\t// out\n        /* \"#utility.yul\":31409:32048   */\n    tag_155:\n        /* \"#utility.yul\":31631:31635   */\n      0x00\n        /* \"#utility.yul\":31669:31671   */\n      0x60\n        /* \"#utility.yul\":31658:31667   */\n      dup3\n        /* \"#utility.yul\":31654:31672   */\n      add\n        /* \"#utility.yul\":31646:31672   */\n      swap1\n      pop\n        /* \"#utility.yul\":31718:31727   */\n      dup2\n        /* \"#utility.yul\":31712:31716   */\n      dup2\n        /* \"#utility.yul\":31708:31728   */\n      sub\n        /* \"#utility.yul\":31704:31705   */\n      0x00\n        /* \"#utility.yul\":31693:31702   */\n      dup4\n        /* \"#utility.yul\":31689:31706   */\n      add\n        /* \"#utility.yul\":31682:31729   */\n      mstore\n        /* \"#utility.yul\":31746:31877   */\n      tag_696\n        /* \"#utility.yul\":31872:31876   */\n      dup2\n        /* \"#utility.yul\":31746:31877   */\n      tag_614\n      jump\t// in\n    tag_696:\n        /* \"#utility.yul\":31738:31877   */\n      swap1\n      pop\n        /* \"#utility.yul\":31887:31959   */\n      tag_697\n        /* \"#utility.yul\":31955:31957   */\n      0x20\n        /* \"#utility.yul\":31944:31953   */\n      dup4\n        /* \"#utility.yul\":31940:31958   */\n      add\n        /* \"#utility.yul\":31931:31937   */\n      dup6\n        /* \"#utility.yul\":31887:31959   */\n      tag_462\n      jump\t// in\n    tag_697:\n        /* \"#utility.yul\":31969:32041   */\n      tag_698\n        /* \"#utility.yul\":32037:32039   */\n      0x40\n        /* \"#utility.yul\":32026:32035   */\n      dup4\n        /* \"#utility.yul\":32022:32040   */\n      add\n        /* \"#utility.yul\":32013:32019   */\n      dup5\n        /* \"#utility.yul\":31969:32041   */\n      tag_637\n      jump\t// in\n    tag_698:\n        /* \"#utility.yul\":31409:32048   */\n      swap4\n      swap3\n      pop\n      pop\n      pop\n      jump\t// out\n        /* \"#utility.yul\":32054:32473   */\n    tag_270:\n        /* \"#utility.yul\":32220:32224   */\n      0x00\n        /* \"#utility.yul\":32258:32260   */\n      0x20\n        /* \"#utility.yul\":32247:32256   */\n      dup3\n        /* \"#utility.yul\":32243:32261   */\n      add\n        /* \"#utility.yul\":32235:32261   */\n      swap1\n      pop\n        /* \"#utility.yul\":32307:32316   */\n      dup2\n        /* \"#utility.yul\":32301:32305   */\n      dup2\n        /* \"#utility.yul\":32297:32317   */\n      sub\n        /* \"#utility.yul\":32293:32294   */\n      0x00\n        /* \"#utility.yul\":32282:32291   */\n      dup4\n        /* \"#utility.yul\":32278:32295   */\n      add\n        /* \"#utility.yul\":32271:32318   */\n      mstore\n        /* \"#utility.yul\":32335:32466   */\n      tag_700\n        /* \"#utility.yul\":32461:32465   */\n      dup2\n        /* \"#utility.yul\":32335:32466   */\n      tag_619\n      jump\t// in\n    tag_700:\n        /* \"#utility.yul\":32327:32466   */\n      swap1\n      pop\n        /* \"#utility.yul\":32054:32473   */\n      swap2\n      swap1\n      pop\n      jump\t// out\n        /* \"#utility.yul\":32479:32898   */\n    tag_280:\n        /* \"#utility.yul\":32645:32649   */\n      0x00\n        /* \"#utility.yul\":32683:32685   */\n      0x20\n        /* \"#utility.yul\":32672:32681   */\n      dup3\n        /* \"#utility.yul\":32668:32686   */\n      add\n        /* \"#utility.yul\":32660:32686   */\n      swap1\n      pop\n        /* \"#utility.yul\":32732:32741   */\n      dup2\n        /* \"#utility.yul\":32726:32730   */\n      dup2\n        /* \"#utility.yul\":32722:32742   */\n      sub\n        /* \"#utility.yul\":32718:32719   */\n      0x00\n        /* \"#utility.yul\":32707:32716   */\n      dup4\n        /* \"#utility.yul\":32703:32720   */\n      add\n        /* \"#utility.yul\":32696:32743   */\n      mstore\n        /* \"#utility.yul\":32760:32891   */\n      tag_702\n        /* \"#utility.yul\":32886:32890   */\n      dup2\n        /* \"#utility.yul\":32760:32891   */\n      tag_624\n      jump\t// in\n    tag_702:\n        /* \"#utility.yul\":32752:32891   */\n      swap1\n      pop\n        /* \"#utility.yul\":32479:32898   */\n      swap2\n      swap1\n      pop\n      jump\t// out\n        /* \"#utility.yul\":32904:33236   */\n    tag_63:\n        /* \"#utility.yul\":33025:33029   */\n      0x00\n        /* \"#utility.yul\":33063:33065   */\n      0x40\n        /* \"#utility.yul\":33052:33061   */\n      dup3\n        /* \"#utility.yul\":33048:33066   */\n      add\n        /* \"#utility.yul\":33040:33066   */\n      swap1\n      pop\n        /* \"#utility.yul\":33076:33147   */\n      tag_704\n        /* \"#utility.yul\":33144:33145   */\n      0x00\n        /* \"#utility.yul\":33133:33142   */\n      dup4\n        /* \"#utility.yul\":33129:33146   */\n      add\n        /* \"#utility.yul\":33120:33126   */\n      dup6\n        /* \"#utility.yul\":33076:33147   */\n      tag_629\n      jump\t// in\n    tag_704:\n        /* \"#utility.yul\":33157:33229   */\n      tag_705\n        /* \"#utility.yul\":33225:33227   */\n      0x20\n        /* \"#utility.yul\":33214:33223   */\n      dup4\n        /* \"#utility.yul\":33210:33228   */\n      add\n        /* \"#utility.yul\":33201:33207   */\n      dup5\n        /* \"#utility.yul\":33157:33229   */\n      tag_629\n      jump\t// in\n    tag_705:\n        /* \"#utility.yul\":32904:33236   */\n      swap4\n      swap3\n      pop\n      pop\n      pop\n      jump\t// out\n        /* \"#utility.yul\":33242:33464   */\n    tag_28:\n        /* \"#utility.yul\":33335:33339   */\n      0x00\n        /* \"#utility.yul\":33373:33375   */\n      0x20\n        /* \"#utility.yul\":33362:33371   */\n      dup3\n        /* \"#utility.yul\":33358:33376   */\n      add\n        /* \"#utility.yul\":33350:33376   */\n      swap1\n      pop\n        /* \"#utility.yul\":33386:33457   */\n      tag_707\n        /* \"#utility.yul\":33454:33455   */\n      0x00\n        /* \"#utility.yul\":33443:33452   */\n      dup4\n        /* \"#utility.yul\":33439:33456   */\n      add\n        /* \"#utility.yul\":33430:33436   */\n      dup5\n        /* \"#utility.yul\":33386:33457   */\n      tag_637\n      jump\t// in\n    tag_707:\n        /* \"#utility.yul\":33242:33464   */\n      swap3\n      swap2\n      pop\n      pop\n      jump\t// out\n        /* \"#utility.yul\":33470:34011   */\n    tag_58:\n        /* \"#utility.yul\":33641:33645   */\n      0x00\n        /* \"#utility.yul\":33679:33682   */\n      0x80\n        /* \"#utility.yul\":33668:33677   */\n      dup3\n        /* \"#utility.yul\":33664:33683   */\n      add\n        /* \"#utility.yul\":33656:33683   */\n      swap1\n      pop\n        /* \"#utility.yul\":33693:33764   */\n      tag_709\n        /* \"#utility.yul\":33761:33762   */\n      0x00\n        /* \"#utility.yul\":33750:33759   */\n      dup4\n        /* \"#utility.yul\":33746:33763   */\n      add\n        /* \"#utility.yul\":33737:33743   */\n      dup8\n        /* \"#utility.yul\":33693:33764   */\n      tag_637\n      jump\t// in\n    tag_709:\n        /* \"#utility.yul\":33774:33846   */\n      tag_710\n        /* \"#utility.yul\":33842:33844   */\n      0x20\n        /* \"#utility.yul\":33831:33840   */\n      dup4\n        /* \"#utility.yul\":33827:33845   */\n      add\n        /* \"#utility.yul\":33818:33824   */\n      dup7\n        /* \"#utility.yul\":33774:33846   */\n      tag_462\n      jump\t// in\n    tag_710:\n        /* \"#utility.yul\":33856:33922   */\n      tag_711\n        /* \"#utility.yul\":33918:33920   */\n      0x40\n        /* \"#utility.yul\":33907:33916   */\n      dup4\n        /* \"#utility.yul\":33903:33921   */\n      add\n        /* \"#utility.yul\":33894:33900   */\n      dup6\n        /* \"#utility.yul\":33856:33922   */\n      tag_493\n      jump\t// in\n    tag_711:\n        /* \"#utility.yul\":33932:34004   */\n      tag_712\n        /* \"#utility.yul\":34000:34002   */\n      0x60\n        /* \"#utility.yul\":33989:33998   */\n      dup4\n        /* \"#utility.yul\":33985:34003   */\n      add\n        /* \"#utility.yul\":33976:33982   */\n      dup5\n        /* \"#utility.yul\":33932:34004   */\n      tag_637\n      jump\t// in\n    tag_712:\n        /* \"#utility.yul\":33470:34011   */\n      swap6\n      swap5\n      pop\n      pop\n      pop\n      pop\n      pop\n      jump\t// out\n        /* \"#utility.yul\":34017:35360   */\n    tag_93:\n        /* \"#utility.yul\":34430:34434   */\n      0x00\n        /* \"#utility.yul\":34468:34471   */\n      0xe0\n        /* \"#utility.yul\":34457:34466   */\n      dup3\n        /* \"#utility.yul\":34453:34472   */\n      add\n        /* \"#utility.yul\":34445:34472   */\n      swap1\n      pop\n        /* \"#utility.yul\":34482:34553   */\n      tag_714\n        /* \"#utility.yul\":34550:34551   */\n      0x00\n        /* \"#utility.yul\":34539:34548   */\n      dup4\n        /* \"#utility.yul\":34535:34552   */\n      add\n        /* \"#utility.yul\":34526:34532   */\n      dup12\n        /* \"#utility.yul\":34482:34553   */\n      tag_637\n      jump\t// in\n    tag_714:\n        /* \"#utility.yul\":34600:34609   */\n      dup2\n        /* \"#utility.yul\":34594:34598   */\n      dup2\n        /* \"#utility.yul\":34590:34610   */\n      sub\n        /* \"#utility.yul\":34585:34587   */\n      0x20\n        /* \"#utility.yul\":34574:34583   */\n      dup4\n        /* \"#utility.yul\":34570:34588   */\n      add\n        /* \"#utility.yul\":34563:34611   */\n      mstore\n        /* \"#utility.yul\":34628:34736   */\n      tag_715\n        /* \"#utility.yul\":34731:34735   */\n      dup2\n        /* \"#utility.yul\":34722:34728   */\n      dup11\n        /* \"#utility.yul\":34628:34736   */\n      tag_465\n      jump\t// in\n    tag_715:\n        /* \"#utility.yul\":34620:34736   */\n      swap1\n      pop\n        /* \"#utility.yul\":34746:34818   */\n      tag_716\n        /* \"#utility.yul\":34814:34816   */\n      0x40\n        /* \"#utility.yul\":34803:34812   */\n      dup4\n        /* \"#utility.yul\":34799:34817   */\n      add\n        /* \"#utility.yul\":34790:34796   */\n      dup10\n        /* \"#utility.yul\":34746:34818   */\n      tag_462\n      jump\t// in\n    tag_716:\n        /* \"#utility.yul\":34828:34900   */\n      tag_717\n        /* \"#utility.yul\":34896:34898   */\n      0x60\n        /* \"#utility.yul\":34885:34894   */\n      dup4\n        /* \"#utility.yul\":34881:34899   */\n      add\n        /* \"#utility.yul\":34872:34878   */\n      dup9\n        /* \"#utility.yul\":34828:34900   */\n      tag_637\n      jump\t// in\n    tag_717:\n        /* \"#utility.yul\":34910:34983   */\n      tag_718\n        /* \"#utility.yul\":34978:34981   */\n      0x80\n        /* \"#utility.yul\":34967:34976   */\n      dup4\n        /* \"#utility.yul\":34963:34982   */\n      add\n        /* \"#utility.yul\":34954:34960   */\n      dup8\n        /* \"#utility.yul\":34910:34983   */\n      tag_637\n      jump\t// in\n    tag_718:\n        /* \"#utility.yul\":35031:35040   */\n      dup2\n        /* \"#utility.yul\":35025:35029   */\n      dup2\n        /* \"#utility.yul\":35021:35041   */\n      sub\n        /* \"#utility.yul\":35015:35018   */\n      0xa0\n        /* \"#utility.yul\":35004:35013   */\n      dup4\n        /* \"#utility.yul\":35000:35019   */\n      add\n        /* \"#utility.yul\":34993:35042   */\n      mstore\n        /* \"#utility.yul\":35059:35137   */\n      tag_719\n        /* \"#utility.yul\":35132:35136   */\n      dup2\n        /* \"#utility.yul\":35123:35129   */\n      dup7\n        /* \"#utility.yul\":35059:35137   */\n      tag_508\n      jump\t// in\n    tag_719:\n        /* \"#utility.yul\":35051:35137   */\n      swap1\n      pop\n        /* \"#utility.yul\":35185:35194   */\n      dup2\n        /* \"#utility.yul\":35179:35183   */\n      dup2\n        /* \"#utility.yul\":35175:35195   */\n      sub\n        /* \"#utility.yul\":35169:35172   */\n      0xc0\n        /* \"#utility.yul\":35158:35167   */\n      dup4\n        /* \"#utility.yul\":35154:35173   */\n      add\n        /* \"#utility.yul\":35147:35196   */\n      mstore\n        /* \"#utility.yul\":35213:35353   */\n      tag_720\n        /* \"#utility.yul\":35348:35352   */\n      dup2\n        /* \"#utility.yul\":35339:35345   */\n      dup5\n        /* \"#utility.yul\":35331:35337   */\n      dup7\n        /* \"#utility.yul\":35213:35353   */\n      tag_479\n      jump\t// in\n    tag_720:\n        /* \"#utility.yul\":35205:35353   */\n      swap1\n      pop\n        /* \"#utility.yul\":34017:35360   */\n      swap10\n      swap9\n      pop\n      pop\n      pop\n      pop\n      pop\n      pop\n      pop\n      pop\n      pop\n      jump\t// out\n        /* \"#utility.yul\":35366:35580   */\n    tag_32:\n        /* \"#utility.yul\":35455:35459   */\n      0x00\n        /* \"#utility.yul\":35493:35495   */\n      0x20\n        /* \"#utility.yul\":35482:35491   */\n      dup3\n        /* \"#utility.yul\":35478:35496   */\n      add\n        /* \"#utility.yul\":35470:35496   */\n      swap1\n      pop\n        /* \"#utility.yul\":35506:35573   */\n      tag_722\n        /* \"#utility.yul\":35570:35571   */\n      0x00\n        /* \"#utility.yul\":35559:35568   */\n      dup4\n        /* \"#utility.yul\":35555:35572   */\n      add\n        /* \"#utility.yul\":35546:35552   */\n      dup5\n        /* \"#utility.yul\":35506:35573   */\n      tag_641\n      jump\t// in\n    tag_722:\n        /* \"#utility.yul\":35366:35580   */\n      swap3\n      swap2\n      pop\n      pop\n      jump\t// out\n        /* \"#utility.yul\":35586:36311   */\n    tag_181:\n        /* \"#utility.yul\":35664:35668   */\n      0x00\n        /* \"#utility.yul\":35670:35676   */\n      dup1\n        /* \"#utility.yul\":35726:35737   */\n      dup4\n        /* \"#utility.yul\":35713:35738   */\n      calldataload\n        /* \"#utility.yul\":35826:35827   */\n      0x01\n        /* \"#utility.yul\":35820:35824   */\n      0x20\n        /* \"#utility.yul\":35816:35828   */\n      sub\n        /* \"#utility.yul\":35805:35813   */\n      dup5\n        /* \"#utility.yul\":35789:35803   */\n      calldatasize\n        /* \"#utility.yul\":35785:35814   */\n      sub\n        /* \"#utility.yul\":35781:35829   */\n      sub\n        /* \"#utility.yul\":35761:35779   */\n      dup2\n        /* \"#utility.yul\":35757:35830   */\n      slt\n        /* \"#utility.yul\":35747:35915   */\n      tag_724\n      jumpi\n        /* \"#utility.yul\":35834:35913   */\n      tag_725\n      tag_726\n      jump\t// in\n    tag_725:\n        /* \"#utility.yul\":35747:35915   */\n    tag_724:\n        /* \"#utility.yul\":35946:35964   */\n      dup1\n        /* \"#utility.yul\":35936:35944   */\n      dup5\n        /* \"#utility.yul\":35932:35965   */\n      add\n        /* \"#utility.yul\":35924:35965   */\n      swap3\n      pop\n        /* \"#utility.yul\":35998:36002   */\n      dup3\n        /* \"#utility.yul\":35985:36003   */\n      calldataload\n        /* \"#utility.yul\":35975:36003   */\n      swap2\n      pop\n        /* \"#utility.yul\":36026:36044   */\n      0xffffffffffffffff\n        /* \"#utility.yul\":36018:36024   */\n      dup3\n        /* \"#utility.yul\":36015:36045   */\n      gt\n        /* \"#utility.yul\":36012:36129   */\n      iszero\n      tag_727\n      jumpi\n        /* \"#utility.yul\":36048:36127   */\n      tag_728\n      tag_729\n      jump\t// in\n    tag_728:\n        /* \"#utility.yul\":36012:36129   */\n    tag_727:\n        /* \"#utility.yul\":36156:36158   */\n      0x20\n        /* \"#utility.yul\":36150:36154   */\n      dup4\n        /* \"#utility.yul\":36146:36159   */\n      add\n        /* \"#utility.yul\":36138:36159   */\n      swap3\n      pop\n        /* \"#utility.yul\":36213:36217   */\n      0x01\n        /* \"#utility.yul\":36205:36211   */\n      dup3\n        /* \"#utility.yul\":36201:36218   */\n      mul\n        /* \"#utility.yul\":36185:36199   */\n      calldatasize\n        /* \"#utility.yul\":36181:36219   */\n      sub\n        /* \"#utility.yul\":36175:36179   */\n      dup4\n        /* \"#utility.yul\":36171:36220   */\n      sgt\n        /* \"#utility.yul\":36168:36304   */\n      iszero\n      tag_730\n      jumpi\n        /* \"#utility.yul\":36223:36302   */\n      tag_731\n      tag_732\n      jump\t// in\n    tag_731:\n        /* \"#utility.yul\":36168:36304   */\n    tag_730:\n        /* \"#utility.yul\":35677:36311   */\n      pop\n        /* \"#utility.yul\":35586:36311   */\n      swap3\n      pop\n      swap3\n      swap1\n      pop\n      jump\t// out\n        /* \"#utility.yul\":36317:36446   */\n    tag_324:\n        /* \"#utility.yul\":36351:36357   */\n      0x00\n        /* \"#utility.yul\":36378:36398   */\n      tag_734\n      tag_735\n      jump\t// in\n    tag_734:\n        /* \"#utility.yul\":36368:36398   */\n      swap1\n      pop\n        /* \"#utility.yul\":36407:36440   */\n      tag_736\n        /* \"#utility.yul\":36435:36439   */\n      dup3\n        /* \"#utility.yul\":36427:36433   */\n      dup3\n        /* \"#utility.yul\":36407:36440   */\n      tag_737\n      jump\t// in\n    tag_736:\n        /* \"#utility.yul\":36317:36446   */\n      swap2\n      swap1\n      pop\n      jump\t// out\n        /* \"#utility.yul\":36452:36527   */\n    tag_735:\n        /* \"#utility.yul\":36485:36491   */\n      0x00\n        /* \"#utility.yul\":36518:36520   */\n      0x40\n        /* \"#utility.yul\":36512:36521   */\n      mload\n        /* \"#utility.yul\":36502:36521   */\n      swap1\n      pop\n        /* \"#utility.yul\":36452:36527   */\n      swap1\n      jump\t// out\n        /* \"#utility.yul\":36533:36844   */\n    tag_323:\n        /* \"#utility.yul\":36610:36614   */\n      0x00\n        /* \"#utility.yul\":36700:36718   */\n      0xffffffffffffffff\n        /* \"#utility.yul\":36692:36698   */\n      dup3\n        /* \"#utility.yul\":36689:36719   */\n      gt\n        /* \"#utility.yul\":36686:36742   */\n      iszero\n      tag_740\n      jumpi\n        /* \"#utility.yul\":36722:36740   */\n      tag_741\n      tag_742\n      jump\t// in\n    tag_741:\n        /* \"#utility.yul\":36686:36742   */\n    tag_740:\n        /* \"#utility.yul\":36772:36776   */\n      0x20\n        /* \"#utility.yul\":36764:36770   */\n      dup3\n        /* \"#utility.yul\":36760:36777   */\n      mul\n        /* \"#utility.yul\":36752:36777   */\n      swap1\n      pop\n        /* \"#utility.yul\":36832:36836   */\n      0x20\n        /* \"#utility.yul\":36826:36830   */\n      dup2\n        /* \"#utility.yul\":36822:36837   */\n      add\n        /* \"#utility.yul\":36814:36837   */\n      swap1\n      pop\n        /* \"#utility.yul\":36533:36844   */\n      swap2\n      swap1\n      pop\n      jump\t// out\n        /* \"#utility.yul\":36850:37171   */\n    tag_337:\n        /* \"#utility.yul\":36937:36941   */\n      0x00\n        /* \"#utility.yul\":37027:37045   */\n      0xffffffffffffffff\n        /* \"#utility.yul\":37019:37025   */\n      dup3\n        /* \"#utility.yul\":37016:37046   */\n      gt\n        /* \"#utility.yul\":37013:37069   */\n      iszero\n      tag_744\n      jumpi\n        /* \"#utility.yul\":37049:37067   */\n      tag_745\n      tag_742\n      jump\t// in\n    tag_745:\n        /* \"#utility.yul\":37013:37069   */\n    tag_744:\n        /* \"#utility.yul\":37099:37103   */\n      0x20\n        /* \"#utility.yul\":37091:37097   */\n      dup3\n        /* \"#utility.yul\":37087:37104   */\n      mul\n        /* \"#utility.yul\":37079:37104   */\n      swap1\n      pop\n        /* \"#utility.yul\":37159:37163   */\n      0x20\n        /* \"#utility.yul\":37153:37157   */\n      dup2\n        /* \"#utility.yul\":37149:37164   */\n      add\n        /* \"#utility.yul\":37141:37164   */\n      swap1\n      pop\n        /* \"#utility.yul\":36850:37171   */\n      swap2\n      swap1\n      pop\n      jump\t// out\n        /* \"#utility.yul\":37177:37488   */\n    tag_352:\n        /* \"#utility.yul\":37254:37258   */\n      0x00\n        /* \"#utility.yul\":37344:37362   */\n      0xffffffffffffffff\n        /* \"#utility.yul\":37336:37342   */\n      dup3\n        /* \"#utility.yul\":37333:37363   */\n      gt\n        /* \"#utility.yul\":37330:37386   */\n      iszero\n      tag_747\n      jumpi\n        /* \"#utility.yul\":37366:37384   */\n      tag_748\n      tag_742\n      jump\t// in\n    tag_748:\n        /* \"#utility.yul\":37330:37386   */\n    tag_747:\n        /* \"#utility.yul\":37416:37420   */\n      0x20\n        /* \"#utility.yul\":37408:37414   */\n      dup3\n        /* \"#utility.yul\":37404:37421   */\n      mul\n        /* \"#utility.yul\":37396:37421   */\n      swap1\n      pop\n        /* \"#utility.yul\":37476:37480   */\n      0x20\n        /* \"#utility.yul\":37470:37474   */\n      dup2\n        /* \"#utility.yul\":37466:37481   */\n      add\n        /* \"#utility.yul\":37458:37481   */\n      swap1\n      pop\n        /* \"#utility.yul\":37177:37488   */\n      swap2\n      swap1\n      pop\n      jump\t// out\n        /* \"#utility.yul\":37494:37802   */\n    tag_364:\n        /* \"#utility.yul\":37556:37560   */\n      0x00\n        /* \"#utility.yul\":37646:37664   */\n      0xffffffffffffffff\n        /* \"#utility.yul\":37638:37644   */\n      dup3\n        /* \"#utility.yul\":37635:37665   */\n      gt\n        /* \"#utility.yul\":37632:37688   */\n      iszero\n      tag_750\n      jumpi\n        /* \"#utility.yul\":37668:37686   */\n      tag_751\n      tag_742\n      jump\t// in\n    tag_751:\n        /* \"#utility.yul\":37632:37688   */\n    tag_750:\n        /* \"#utility.yul\":37706:37735   */\n      tag_752\n        /* \"#utility.yul\":37728:37734   */\n      dup3\n        /* \"#utility.yul\":37706:37735   */\n      tag_502\n      jump\t// in\n    tag_752:\n        /* \"#utility.yul\":37698:37735   */\n      swap1\n      pop\n        /* \"#utility.yul\":37790:37794   */\n      0x20\n        /* \"#utility.yul\":37784:37788   */\n      dup2\n        /* \"#utility.yul\":37780:37795   */\n      add\n        /* \"#utility.yul\":37772:37795   */\n      swap1\n      pop\n        /* \"#utility.yul\":37494:37802   */\n      swap2\n      swap1\n      pop\n      jump\t// out\n        /* \"#utility.yul\":37808:37940   */\n    tag_472:\n        /* \"#utility.yul\":37875:37879   */\n      0x00\n        /* \"#utility.yul\":37898:37901   */\n      dup2\n        /* \"#utility.yul\":37890:37901   */\n      swap1\n      pop\n        /* \"#utility.yul\":37928:37932   */\n      0x20\n        /* \"#utility.yul\":37923:37926   */\n      dup3\n        /* \"#utility.yul\":37919:37933   */\n      add\n        /* \"#utility.yul\":37911:37933   */\n      swap1\n      pop\n        /* \"#utility.yul\":37808:37940   */\n      swap2\n      swap1\n      pop\n      jump\t// out\n        /* \"#utility.yul\":37946:38060   */\n    tag_484:\n        /* \"#utility.yul\":38027:38031   */\n      0x00\n        /* \"#utility.yul\":38050:38053   */\n      dup2\n        /* \"#utility.yul\":38042:38053   */\n      swap1\n      pop\n        /* \"#utility.yul\":37946:38060   */\n      swap2\n      swap1\n      pop\n      jump\t// out\n        /* \"#utility.yul\":38066:38207   */\n    tag_530:\n        /* \"#utility.yul\":38115:38119   */\n      0x00\n        /* \"#utility.yul\":38138:38141   */\n      dup2\n        /* \"#utility.yul\":38130:38141   */\n      swap1\n      pop\n        /* \"#utility.yul\":38161:38164   */\n      dup2\n        /* \"#utility.yul\":38158:38159   */\n      0x00\n        /* \"#utility.yul\":38151:38165   */\n      mstore\n        /* \"#utility.yul\":38195:38199   */\n      0x20\n        /* \"#utility.yul\":38192:38193   */\n      0x00\n        /* \"#utility.yul\":38182:38200   */\n      keccak256\n        /* \"#utility.yul\":38174:38200   */\n      swap1\n      pop\n        /* \"#utility.yul\":38066:38207   */\n      swap2\n      swap1\n      pop\n      jump\t// out\n        /* \"#utility.yul\":38213:38327   */\n    tag_468:\n        /* \"#utility.yul\":38280:38286   */\n      0x00\n        /* \"#utility.yul\":38314:38319   */\n      dup2\n        /* \"#utility.yul\":38308:38320   */\n      mload\n        /* \"#utility.yul\":38298:38320   */\n      swap1\n      pop\n        /* \"#utility.yul\":38213:38327   */\n      swap2\n      swap1\n      pop\n      jump\t// out\n        /* \"#utility.yul\":38333:38432   */\n    tag_511:\n        /* \"#utility.yul\":38385:38391   */\n      0x00\n        /* \"#utility.yul\":38419:38424   */\n      dup2\n        /* \"#utility.yul\":38413:38425   */\n      mload\n        /* \"#utility.yul\":38403:38425   */\n      swap1\n      pop\n        /* \"#utility.yul\":38333:38432   */\n      swap2\n      swap1\n      pop\n      jump\t// out\n        /* \"#utility.yul\":38438:38551   */\n    tag_478:\n        /* \"#utility.yul\":38508:38512   */\n      0x00\n        /* \"#utility.yul\":38540:38544   */\n      0x20\n        /* \"#utility.yul\":38535:38538   */\n      dup3\n        /* \"#utility.yul\":38531:38545   */\n      add\n        /* \"#utility.yul\":38523:38545   */\n      swap1\n      pop\n        /* \"#utility.yul\":38438:38551   */\n      swap2\n      swap1\n      pop\n      jump\t// out\n        /* \"#utility.yul\":38557:38684   */\n    tag_492:\n        /* \"#utility.yul\":38641:38645   */\n      0x00\n        /* \"#utility.yul\":38673:38677   */\n      0x20\n        /* \"#utility.yul\":38668:38671   */\n      dup3\n        /* \"#utility.yul\":38664:38678   */\n      add\n        /* \"#utility.yul\":38656:38678   */\n      swap1\n      pop\n        /* \"#utility.yul\":38557:38684   */\n      swap2\n      swap1\n      pop\n      jump\t// out\n        /* \"#utility.yul\":38690:38874   */\n    tag_470:\n        /* \"#utility.yul\":38789:38800   */\n      0x00\n        /* \"#utility.yul\":38823:38829   */\n      dup3\n        /* \"#utility.yul\":38818:38821   */\n      dup3\n        /* \"#utility.yul\":38811:38830   */\n      mstore\n        /* \"#utility.yul\":38863:38867   */\n      0x20\n        /* \"#utility.yul\":38858:38861   */\n      dup3\n        /* \"#utility.yul\":38854:38868   */\n      add\n        /* \"#utility.yul\":38839:38868   */\n      swap1\n      pop\n        /* \"#utility.yul\":38690:38874   */\n      swap3\n      swap2\n      pop\n      pop\n      jump\t// out\n        /* \"#utility.yul\":38880:39074   */\n    tag_482:\n        /* \"#utility.yul\":38989:39000   */\n      0x00\n        /* \"#utility.yul\":39023:39029   */\n      dup3\n        /* \"#utility.yul\":39018:39021   */\n      dup3\n        /* \"#utility.yul\":39011:39030   */\n      mstore\n        /* \"#utility.yul\":39063:39067   */\n      0x20\n        /* \"#utility.yul\":39058:39061   */\n      dup3\n        /* \"#utility.yul\":39054:39068   */\n      add\n        /* \"#utility.yul\":39039:39068   */\n      swap1\n      pop\n        /* \"#utility.yul\":38880:39074   */\n      swap3\n      swap2\n      pop\n      pop\n      jump\t// out\n        /* \"#utility.yul\":39080:39239   */\n    tag_499:\n        /* \"#utility.yul\":39154:39165   */\n      0x00\n        /* \"#utility.yul\":39188:39194   */\n      dup3\n        /* \"#utility.yul\":39183:39186   */\n      dup3\n        /* \"#utility.yul\":39176:39195   */\n      mstore\n        /* \"#utility.yul\":39228:39232   */\n      0x20\n        /* \"#utility.yul\":39223:39226   */\n      dup3\n        /* \"#utility.yul\":39219:39233   */\n      add\n        /* \"#utility.yul\":39204:39233   */\n      swap1\n      pop\n        /* \"#utility.yul\":39080:39239   */\n      swap3\n      swap2\n      pop\n      pop\n      jump\t// out\n        /* \"#utility.yul\":39245:39414   */\n    tag_513:\n        /* \"#utility.yul\":39329:39340   */\n      0x00\n        /* \"#utility.yul\":39363:39369   */\n      dup3\n        /* \"#utility.yul\":39358:39361   */\n      dup3\n        /* \"#utility.yul\":39351:39370   */\n      mstore\n        /* \"#utility.yul\":39403:39407   */\n      0x20\n        /* \"#utility.yul\":39398:39401   */\n      dup3\n        /* \"#utility.yul\":39394:39408   */\n      add\n        /* \"#utility.yul\":39379:39408   */\n      swap1\n      pop\n        /* \"#utility.yul\":39245:39414   */\n      swap3\n      swap2\n      pop\n      pop\n      jump\t// out\n        /* \"#utility.yul\":39420:39568   */\n    tag_506:\n        /* \"#utility.yul\":39522:39533   */\n      0x00\n        /* \"#utility.yul\":39559:39562   */\n      dup2\n        /* \"#utility.yul\":39544:39562   */\n      swap1\n      pop\n        /* \"#utility.yul\":39420:39568   */\n      swap3\n      swap2\n      pop\n      pop\n      jump\t// out\n        /* \"#utility.yul\":39574:40289   */\n    tag_489:\n        /* \"#utility.yul\":39639:39644   */\n      0x00\n        /* \"#utility.yul\":39646:39652   */\n      dup1\n        /* \"#utility.yul\":39702:39705   */\n      dup4\n        /* \"#utility.yul\":39689:39706   */\n      calldataload\n        /* \"#utility.yul\":39794:39795   */\n      0x01\n        /* \"#utility.yul\":39788:39792   */\n      0x20\n        /* \"#utility.yul\":39784:39796   */\n      sub\n        /* \"#utility.yul\":39773:39781   */\n      dup5\n        /* \"#utility.yul\":39757:39771   */\n      calldatasize\n        /* \"#utility.yul\":39753:39782   */\n      sub\n        /* \"#utility.yul\":39749:39797   */\n      sub\n        /* \"#utility.yul\":39729:39747   */\n      dup2\n        /* \"#utility.yul\":39725:39798   */\n      slt\n        /* \"#utility.yul\":39715:39883   */\n      tag_766\n      jumpi\n        /* \"#utility.yul\":39802:39881   */\n      tag_767\n      tag_768\n      jump\t// in\n    tag_767:\n        /* \"#utility.yul\":39715:39883   */\n    tag_766:\n        /* \"#utility.yul\":39925:39933   */\n      dup4\n        /* \"#utility.yul\":39905:39923   */\n      dup2\n        /* \"#utility.yul\":39901:39934   */\n      add\n        /* \"#utility.yul\":39892:39934   */\n      swap3\n      pop\n        /* \"#utility.yul\":39967:39972   */\n      dup3\n        /* \"#utility.yul\":39954:39973   */\n      calldataload\n        /* \"#utility.yul\":39944:39973   */\n      swap2\n      pop\n        /* \"#utility.yul\":40002:40006   */\n      0x20\n        /* \"#utility.yul\":39995:40000   */\n      dup4\n        /* \"#utility.yul\":39991:40007   */\n      add\n        /* \"#utility.yul\":39982:40007   */\n      swap3\n      pop\n        /* \"#utility.yul\":40030:40048   */\n      0xffffffffffffffff\n        /* \"#utility.yul\":40022:40028   */\n      dup3\n        /* \"#utility.yul\":40019:40049   */\n      gt\n        /* \"#utility.yul\":40016:40133   */\n      iszero\n      tag_769\n      jumpi\n        /* \"#utility.yul\":40052:40131   */\n      tag_770\n      tag_771\n      jump\t// in\n    tag_770:\n        /* \"#utility.yul\":40016:40133   */\n    tag_769:\n        /* \"#utility.yul\":40191:40195   */\n      0x01\n        /* \"#utility.yul\":40183:40189   */\n      dup3\n        /* \"#utility.yul\":40179:40196   */\n      mul\n        /* \"#utility.yul\":40163:40177   */\n      calldatasize\n        /* \"#utility.yul\":40159:40197   */\n      sub\n        /* \"#utility.yul\":40149:40157   */\n      dup5\n        /* \"#utility.yul\":40145:40198   */\n      sgt\n        /* \"#utility.yul\":40142:40282   */\n      iszero\n      tag_772\n      jumpi\n        /* \"#utility.yul\":40201:40280   */\n      tag_773\n      tag_774\n      jump\t// in\n    tag_773:\n        /* \"#utility.yul\":40142:40282   */\n    tag_772:\n        /* \"#utility.yul\":39653:40289   */\n      pop\n        /* \"#utility.yul\":39574:40289   */\n      swap3\n      pop\n      swap3\n      swap1\n      pop\n      jump\t// out\n        /* \"#utility.yul\":40295:40537   */\n    tag_261:\n        /* \"#utility.yul\":40334:40337   */\n      0x00\n        /* \"#utility.yul\":40353:40372   */\n      tag_776\n        /* \"#utility.yul\":40370:40371   */\n      dup3\n        /* \"#utility.yul\":40353:40372   */\n      tag_636\n      jump\t// in\n    tag_776:\n        /* \"#utility.yul\":40348:40372   */\n      swap2\n      pop\n        /* \"#utility.yul\":40386:40405   */\n      tag_777\n        /* \"#utility.yul\":40403:40404   */\n      dup4\n        /* \"#utility.yul\":40386:40405   */\n      tag_636\n      jump\t// in\n    tag_777:\n        /* \"#utility.yul\":40381:40405   */\n      swap3\n      pop\n        /* \"#utility.yul\":40479:40480   */\n      dup3\n        /* \"#utility.yul\":40471:40477   */\n      0xffff\n        /* \"#utility.yul\":40467:40481   */\n      sub\n        /* \"#utility.yul\":40464:40465   */\n      dup3\n        /* \"#utility.yul\":40461:40482   */\n      gt\n        /* \"#utility.yul\":40458:40505   */\n      iszero\n      tag_778\n      jumpi\n        /* \"#utility.yul\":40485:40503   */\n      tag_779\n      tag_780\n      jump\t// in\n    tag_779:\n        /* \"#utility.yul\":40458:40505   */\n    tag_778:\n        /* \"#utility.yul\":40529:40530   */\n      dup3\n        /* \"#utility.yul\":40526:40527   */\n      dup3\n        /* \"#utility.yul\":40522:40531   */\n      add\n        /* \"#utility.yul\":40515:40531   */\n      swap1\n      pop\n        /* \"#utility.yul\":40295:40537   */\n      swap3\n      swap2\n      pop\n      pop\n      jump\t// out\n        /* \"#utility.yul\":40543:40848   */\n    tag_140:\n        /* \"#utility.yul\":40583:40586   */\n      0x00\n        /* \"#utility.yul\":40602:40622   */\n      tag_782\n        /* \"#utility.yul\":40620:40621   */\n      dup3\n        /* \"#utility.yul\":40602:40622   */\n      tag_640\n      jump\t// in\n    tag_782:\n        /* \"#utility.yul\":40597:40622   */\n      swap2\n      pop\n        /* \"#utility.yul\":40636:40656   */\n      tag_783\n        /* \"#utility.yul\":40654:40655   */\n      dup4\n        /* \"#utility.yul\":40636:40656   */\n      tag_640\n      jump\t// in\n    tag_783:\n        /* \"#utility.yul\":40631:40656   */\n      swap3\n      pop\n        /* \"#utility.yul\":40790:40791   */\n      dup3\n        /* \"#utility.yul\":40722:40788   */\n      0xffffffffffffffffffffffffffffffffffffffffffffffffffffffffffffffff\n        /* \"#utility.yul\":40718:40792   */\n      sub\n        /* \"#utility.yul\":40715:40716   */\n      dup3\n        /* \"#utility.yul\":40712:40793   */\n      gt\n        /* \"#utility.yul\":40709:40816   */\n      iszero\n      tag_784\n      jumpi\n        /* \"#utility.yul\":40796:40814   */\n      tag_785\n      tag_780\n      jump\t// in\n    tag_785:\n        /* \"#utility.yul\":40709:40816   */\n    tag_784:\n        /* \"#utility.yul\":40840:40841   */\n      dup3\n        /* \"#utility.yul\":40837:40838   */\n      dup3\n        /* \"#utility.yul\":40833:40842   */\n      add\n        /* \"#utility.yul\":40826:40842   */\n      swap1\n      pop\n        /* \"#utility.yul\":40543:40848   */\n      swap3\n      swap2\n      pop\n      pop\n      jump\t// out\n        /* \"#utility.yul\":40854:41202   */\n    tag_138:\n        /* \"#utility.yul\":40894:40901   */\n      0x00\n        /* \"#utility.yul\":40917:40937   */\n      tag_787\n        /* \"#utility.yul\":40935:40936   */\n      dup3\n        /* \"#utility.yul\":40917:40937   */\n      tag_640\n      jump\t// in\n    tag_787:\n        /* \"#utility.yul\":40912:40937   */\n      swap2\n      pop\n        /* \"#utility.yul\":40951:40971   */\n      tag_788\n        /* \"#utility.yul\":40969:40970   */\n      dup4\n        /* \"#utility.yul\":40951:40971   */\n      tag_640\n      jump\t// in\n    tag_788:\n        /* \"#utility.yul\":40946:40971   */\n      swap3\n      pop\n        /* \"#utility.yul\":41139:41140   */\n      dup2\n        /* \"#utility.yul\":41071:41137   */\n      0xffffffffffffffffffffffffffffffffffffffffffffffffffffffffffffffff\n        /* \"#utility.yul\":41067:41141   */\n      div\n        /* \"#utility.yul\":41064:41065   */\n      dup4\n        /* \"#utility.yul\":41061:41142   */\n      gt\n        /* \"#utility.yul\":41056:41057   */\n      dup3\n        /* \"#utility.yul\":41049:41058   */\n      iszero\n        /* \"#utility.yul\":41042:41059   */\n      iszero\n        /* \"#utility.yul\":41038:41143   */\n      and\n        /* \"#utility.yul\":41035:41166   */\n      iszero\n      tag_789\n      jumpi\n        /* \"#utility.yul\":41146:41164   */\n      tag_790\n      tag_780\n      jump\t// in\n    tag_790:\n        /* \"#utility.yul\":41035:41166   */\n    tag_789:\n        /* \"#utility.yul\":41194:41195   */\n      dup3\n        /* \"#utility.yul\":41191:41192   */\n      dup3\n        /* \"#utility.yul\":41187:41196   */\n      mul\n        /* \"#utility.yul\":41176:41196   */\n      swap1\n      pop\n        /* \"#utility.yul\":40854:41202   */\n      swap3\n      swap2\n      pop\n      pop\n      jump\t// out\n        /* \"#utility.yul\":41208:41399   */\n    tag_292:\n        /* \"#utility.yul\":41248:41252   */\n      0x00\n        /* \"#utility.yul\":41268:41288   */\n      tag_792\n        /* \"#utility.yul\":41286:41287   */\n      dup3\n        /* \"#utility.yul\":41268:41288   */\n      tag_640\n      jump\t// in\n    tag_792:\n        /* \"#utility.yul\":41263:41288   */\n      swap2\n      pop\n        /* \"#utility.yul\":41302:41322   */\n      tag_793\n        /* \"#utility.yul\":41320:41321   */\n      dup4\n        /* \"#utility.yul\":41302:41322   */\n      tag_640\n      jump\t// in\n    tag_793:\n        /* \"#utility.yul\":41297:41322   */\n      swap3\n      pop\n        /* \"#utility.yul\":41341:41342   */\n      dup3\n        /* \"#utility.yul\":41338:41339   */\n      dup3\n        /* \"#utility.yul\":41335:41343   */\n      lt\n        /* \"#utility.yul\":41332:41366   */\n      iszero\n      tag_794\n      jumpi\n        /* \"#utility.yul\":41346:41364   */\n      tag_795\n      tag_780\n      jump\t// in\n    tag_795:\n        /* \"#utility.yul\":41332:41366   */\n    tag_794:\n        /* \"#utility.yul\":41391:41392   */\n      dup3\n        /* \"#utility.yul\":41388:41389   */\n      dup3\n        /* \"#utility.yul\":41384:41393   */\n      sub\n        /* \"#utility.yul\":41376:41393   */\n      swap1\n      pop\n        /* \"#utility.yul\":41208:41399   */\n      swap3\n      swap2\n      pop\n      pop\n      jump\t// out\n        /* \"#utility.yul\":41405:41501   */\n    tag_461:\n        /* \"#utility.yul\":41442:41449   */\n      0x00\n        /* \"#utility.yul\":41471:41495   */\n      tag_797\n        /* \"#utility.yul\":41489:41494   */\n      dup3\n        /* \"#utility.yul\":41471:41495   */\n      tag_798\n      jump\t// in\n    tag_797:\n        /* \"#utility.yul\":41460:41495   */\n      swap1\n      pop\n        /* \"#utility.yul\":41405:41501   */\n      swap2\n      swap1\n      pop\n      jump\t// out\n        /* \"#utility.yul\":41507:41597   */\n    tag_496:\n        /* \"#utility.yul\":41541:41548   */\n      0x00\n        /* \"#utility.yul\":41584:41589   */\n      dup2\n        /* \"#utility.yul\":41577:41590   */\n      iszero\n        /* \"#utility.yul\":41570:41591   */\n      iszero\n        /* \"#utility.yul\":41559:41591   */\n      swap1\n      pop\n        /* \"#utility.yul\":41507:41597   */\n      swap2\n      swap1\n      pop\n      jump\t// out\n        /* \"#utility.yul\":41603:41721   */\n    tag_632:\n        /* \"#utility.yul\":41640:41647   */\n      0x00\n        /* \"#utility.yul\":41680:41714   */\n      0xffffffffffffffffffffffffffffffff\n        /* \"#utility.yul\":41673:41678   */\n      dup3\n        /* \"#utility.yul\":41669:41715   */\n      and\n        /* \"#utility.yul\":41658:41715   */\n      swap1\n      pop\n        /* \"#utility.yul\":41603:41721   */\n      swap2\n      swap1\n      pop\n      jump\t// out\n        /* \"#utility.yul\":41727:41816   */\n    tag_636:\n        /* \"#utility.yul\":41763:41770   */\n      0x00\n        /* \"#utility.yul\":41803:41809   */\n      0xffff\n        /* \"#utility.yul\":41796:41801   */\n      dup3\n        /* \"#utility.yul\":41792:41810   */\n      and\n        /* \"#utility.yul\":41781:41810   */\n      swap1\n      pop\n        /* \"#utility.yul\":41727:41816   */\n      swap2\n      swap1\n      pop\n      jump\t// out\n        /* \"#utility.yul\":41822:41948   */\n    tag_798:\n        /* \"#utility.yul\":41859:41866   */\n      0x00\n        /* \"#utility.yul\":41899:41941   */\n      0xffffffffffffffffffffffffffffffffffffffff\n        /* \"#utility.yul\":41892:41897   */\n      dup3\n        /* \"#utility.yul\":41888:41942   */\n      and\n        /* \"#utility.yul\":41877:41942   */\n      swap1\n      pop\n        /* \"#utility.yul\":41822:41948   */\n      swap2\n      swap1\n      pop\n      jump\t// out\n        /* \"#utility.yul\":41954:42031   */\n    tag_640:\n        /* \"#utility.yul\":41991:41998   */\n      0x00\n        /* \"#utility.yul\":42020:42025   */\n      dup2\n        /* \"#utility.yul\":42009:42025   */\n      swap1\n      pop\n        /* \"#utility.yul\":41954:42031   */\n      swap2\n      swap1\n      pop\n      jump\t// out\n        /* \"#utility.yul\":42037:42123   */\n    tag_644:\n        /* \"#utility.yul\":42072:42079   */\n      0x00\n        /* \"#utility.yul\":42112:42116   */\n      0xff\n        /* \"#utility.yul\":42105:42110   */\n      dup3\n        /* \"#utility.yul\":42101:42117   */\n      and\n        /* \"#utility.yul\":42090:42117   */\n      swap1\n      pop\n        /* \"#utility.yul\":42037:42123   */\n      swap2\n      swap1\n      pop\n      jump\t// out\n        /* \"#utility.yul\":42129:42283   */\n    tag_369:\n        /* \"#utility.yul\":42213:42219   */\n      dup3\n        /* \"#utility.yul\":42208:42211   */\n      dup2\n        /* \"#utility.yul\":42203:42206   */\n      dup4\n        /* \"#utility.yul\":42190:42220   */\n      calldatacopy\n        /* \"#utility.yul\":42275:42276   */\n      0x00\n        /* \"#utility.yul\":42266:42272   */\n      dup4\n        /* \"#utility.yul\":42261:42264   */\n      dup4\n        /* \"#utility.yul\":42257:42273   */\n      add\n        /* \"#utility.yul\":42250:42277   */\n      mstore\n        /* \"#utility.yul\":42129:42283   */\n      pop\n      pop\n      pop\n      jump\t// out\n        /* \"#utility.yul\":42289:42596   */\n    tag_515:\n        /* \"#utility.yul\":42357:42358   */\n      0x00\n        /* \"#utility.yul\":42367:42480   */\n    tag_807:\n        /* \"#utility.yul\":42381:42387   */\n      dup4\n        /* \"#utility.yul\":42378:42379   */\n      dup2\n        /* \"#utility.yul\":42375:42388   */\n      lt\n        /* \"#utility.yul\":42367:42480   */\n      iszero\n      tag_809\n      jumpi\n        /* \"#utility.yul\":42466:42467   */\n      dup1\n        /* \"#utility.yul\":42461:42464   */\n      dup3\n        /* \"#utility.yul\":42457:42468   */\n      add\n        /* \"#utility.yul\":42451:42469   */\n      mload\n        /* \"#utility.yul\":42447:42448   */\n      dup2\n        /* \"#utility.yul\":42442:42445   */\n      dup5\n        /* \"#utility.yul\":42438:42449   */\n      add\n        /* \"#utility.yul\":42431:42470   */\n      mstore\n        /* \"#utility.yul\":42403:42405   */\n      0x20\n        /* \"#utility.yul\":42400:42401   */\n      dup2\n        /* \"#utility.yul\":42396:42406   */\n      add\n        /* \"#utility.yul\":42391:42406   */\n      swap1\n      pop\n        /* \"#utility.yul\":42367:42480   */\n      jump(tag_807)\n    tag_809:\n        /* \"#utility.yul\":42498:42504   */\n      dup4\n        /* \"#utility.yul\":42495:42496   */\n      dup2\n        /* \"#utility.yul\":42492:42505   */\n      gt\n        /* \"#utility.yul\":42489:42590   */\n      iszero\n      tag_810\n      jumpi\n        /* \"#utility.yul\":42578:42579   */\n      0x00\n        /* \"#utility.yul\":42569:42575   */\n      dup5\n        /* \"#utility.yul\":42564:42567   */\n      dup5\n        /* \"#utility.yul\":42560:42576   */\n      add\n        /* \"#utility.yul\":42553:42580   */\n      mstore\n        /* \"#utility.yul\":42489:42590   */\n    tag_810:\n        /* \"#utility.yul\":42338:42596   */\n      pop\n        /* \"#utility.yul\":42289:42596   */\n      pop\n      pop\n      pop\n      jump\t// out\n        /* \"#utility.yul\":42602:42922   */\n    tag_65:\n        /* \"#utility.yul\":42646:42652   */\n      0x00\n        /* \"#utility.yul\":42683:42684   */\n      0x02\n        /* \"#utility.yul\":42677:42681   */\n      dup3\n        /* \"#utility.yul\":42673:42685   */\n      div\n        /* \"#utility.yul\":42663:42685   */\n      swap1\n      pop\n        /* \"#utility.yul\":42730:42731   */\n      0x01\n        /* \"#utility.yul\":42724:42728   */\n      dup3\n        /* \"#utility.yul\":42720:42732   */\n      and\n        /* \"#utility.yul\":42751:42769   */\n      dup1\n        /* \"#utility.yul\":42741:42822   */\n      tag_812\n      jumpi\n        /* \"#utility.yul\":42807:42811   */\n      0x7f\n        /* \"#utility.yul\":42799:42805   */\n      dup3\n        /* \"#utility.yul\":42795:42812   */\n      and\n        /* \"#utility.yul\":42785:42812   */\n      swap2\n      pop\n        /* \"#utility.yul\":42741:42822   */\n    tag_812:\n        /* \"#utility.yul\":42869:42871   */\n      0x20\n        /* \"#utility.yul\":42861:42867   */\n      dup3\n        /* \"#utility.yul\":42858:42872   */\n      lt\n        /* \"#utility.yul\":42838:42856   */\n      dup2\n        /* \"#utility.yul\":42835:42873   */\n      eq\n        /* \"#utility.yul\":42832:42916   */\n      iszero\n      tag_813\n      jumpi\n        /* \"#utility.yul\":42888:42906   */\n      tag_814\n      tag_815\n      jump\t// in\n    tag_814:\n        /* \"#utility.yul\":42832:42916   */\n    tag_813:\n        /* \"#utility.yul\":42653:42922   */\n      pop\n        /* \"#utility.yul\":42602:42922   */\n      swap2\n      swap1\n      pop\n      jump\t// out\n        /* \"#utility.yul\":42928:43209   */\n    tag_737:\n        /* \"#utility.yul\":43011:43038   */\n      tag_817\n        /* \"#utility.yul\":43033:43037   */\n      dup3\n        /* \"#utility.yul\":43011:43038   */\n      tag_502\n      jump\t// in\n    tag_817:\n        /* \"#utility.yul\":43003:43009   */\n      dup2\n        /* \"#utility.yul\":42999:43039   */\n      add\n        /* \"#utility.yul\":43141:43147   */\n      dup2\n        /* \"#utility.yul\":43129:43139   */\n      dup2\n        /* \"#utility.yul\":43126:43148   */\n      lt\n        /* \"#utility.yul\":43105:43123   */\n      0xffffffffffffffff\n        /* \"#utility.yul\":43093:43103   */\n      dup3\n        /* \"#utility.yul\":43090:43124   */\n      gt\n        /* \"#utility.yul\":43087:43149   */\n      or\n        /* \"#utility.yul\":43084:43172   */\n      iszero\n      tag_818\n      jumpi\n        /* \"#utility.yul\":43152:43170   */\n      tag_819\n      tag_742\n      jump\t// in\n    tag_819:\n        /* \"#utility.yul\":43084:43172   */\n    tag_818:\n        /* \"#utility.yul\":43192:43202   */\n      dup1\n        /* \"#utility.yul\":43188:43190   */\n      0x40\n        /* \"#utility.yul\":43181:43203   */\n      mstore\n        /* \"#utility.yul\":42971:43209   */\n      pop\n        /* \"#utility.yul\":42928:43209   */\n      pop\n      pop\n      jump\t// out\n        /* \"#utility.yul\":43215:43416   */\n    tag_207:\n        /* \"#utility.yul\":43254:43257   */\n      0x00\n        /* \"#utility.yul\":43277:43301   */\n      tag_821\n        /* \"#utility.yul\":43295:43300   */\n      dup3\n        /* \"#utility.yul\":43277:43301   */\n      tag_632\n      jump\t// in\n    tag_821:\n        /* \"#utility.yul\":43268:43301   */\n      swap2\n      pop\n        /* \"#utility.yul\":43323:43357   */\n      0xffffffffffffffffffffffffffffffff\n        /* \"#utility.yul\":43316:43321   */\n      dup3\n        /* \"#utility.yul\":43313:43358   */\n      eq\n        /* \"#utility.yul\":43310:43381   */\n      iszero\n      tag_822\n      jumpi\n        /* \"#utility.yul\":43361:43379   */\n      tag_823\n      tag_780\n      jump\t// in\n    tag_823:\n        /* \"#utility.yul\":43310:43381   */\n    tag_822:\n        /* \"#utility.yul\":43408:43409   */\n      0x01\n        /* \"#utility.yul\":43401:43406   */\n      dup3\n        /* \"#utility.yul\":43397:43410   */\n      add\n        /* \"#utility.yul\":43390:43410   */\n      swap1\n      pop\n        /* \"#utility.yul\":43215:43416   */\n      swap2\n      swap1\n      pop\n      jump\t// out\n        /* \"#utility.yul\":43422:43593   */\n    tag_233:\n        /* \"#utility.yul\":43460:43463   */\n      0x00\n        /* \"#utility.yul\":43483:43506   */\n      tag_825\n        /* \"#utility.yul\":43500:43505   */\n      dup3\n        /* \"#utility.yul\":43483:43506   */\n      tag_636\n      jump\t// in\n    tag_825:\n        /* \"#utility.yul\":43474:43506   */\n      swap2\n      pop\n        /* \"#utility.yul\":43528:43534   */\n      0xffff\n        /* \"#utility.yul\":43521:43526   */\n      dup3\n        /* \"#utility.yul\":43518:43535   */\n      eq\n        /* \"#utility.yul\":43515:43558   */\n      iszero\n      tag_826\n      jumpi\n        /* \"#utility.yul\":43538:43556   */\n      tag_827\n      tag_780\n      jump\t// in\n    tag_827:\n        /* \"#utility.yul\":43515:43558   */\n    tag_826:\n        /* \"#utility.yul\":43585:43586   */\n      0x01\n        /* \"#utility.yul\":43578:43583   */\n      dup3\n        /* \"#utility.yul\":43574:43587   */\n      add\n        /* \"#utility.yul\":43567:43587   */\n      swap1\n      pop\n        /* \"#utility.yul\":43422:43593   */\n      swap2\n      swap1\n      pop\n      jump\t// out\n        /* \"#utility.yul\":43599:43832   */\n    tag_89:\n        /* \"#utility.yul\":43638:43641   */\n      0x00\n        /* \"#utility.yul\":43661:43685   */\n      tag_829\n        /* \"#utility.yul\":43679:43684   */\n      dup3\n        /* \"#utility.yul\":43661:43685   */\n      tag_640\n      jump\t// in\n    tag_829:\n        /* \"#utility.yul\":43652:43685   */\n      swap2\n      pop\n        /* \"#utility.yul\":43707:43773   */\n      0xffffffffffffffffffffffffffffffffffffffffffffffffffffffffffffffff\n        /* \"#utility.yul\":43700:43705   */\n      dup3\n        /* \"#utility.yul\":43697:43774   */\n      eq\n        /* \"#utility.yul\":43694:43797   */\n      iszero\n      tag_830\n      jumpi\n        /* \"#utility.yul\":43777:43795   */\n      tag_831\n      tag_780\n      jump\t// in\n    tag_831:\n        /* \"#utility.yul\":43694:43797   */\n    tag_830:\n        /* \"#utility.yul\":43824:43825   */\n      0x01\n        /* \"#utility.yul\":43817:43822   */\n      dup3\n        /* \"#utility.yul\":43813:43826   */\n      add\n        /* \"#utility.yul\":43806:43826   */\n      swap1\n      pop\n        /* \"#utility.yul\":43599:43832   */\n      swap2\n      swap1\n      pop\n      jump\t// out\n        /* \"#utility.yul\":43838:44018   */\n    tag_780:\n        /* \"#utility.yul\":43886:43963   */\n      0x4e487b7100000000000000000000000000000000000000000000000000000000\n        /* \"#utility.yul\":43883:43884   */\n      0x00\n        /* \"#utility.yul\":43876:43964   */\n      mstore\n        /* \"#utility.yul\":43983:43987   */\n      0x11\n        /* \"#utility.yul\":43980:43981   */\n      0x04\n        /* \"#utility.yul\":43973:43988   */\n      mstore\n        /* \"#utility.yul\":44007:44011   */\n      0x24\n        /* \"#utility.yul\":44004:44005   */\n      0x00\n        /* \"#utility.yul\":43997:44012   */\n      revert\n        /* \"#utility.yul\":44024:44204   */\n    tag_815:\n        /* \"#utility.yul\":44072:44149   */\n      0x4e487b7100000000000000000000000000000000000000000000000000000000\n        /* \"#utility.yul\":44069:44070   */\n      0x00\n        /* \"#utility.yul\":44062:44150   */\n      mstore\n        /* \"#utility.yul\":44169:44173   */\n      0x22\n        /* \"#utility.yul\":44166:44167   */\n      0x04\n        /* \"#utility.yul\":44159:44174   */\n      mstore\n        /* \"#utility.yul\":44193:44197   */\n      0x24\n        /* \"#utility.yul\":44190:44191   */\n      0x00\n        /* \"#utility.yul\":44183:44198   */\n      revert\n        /* \"#utility.yul\":44210:44390   */\n    tag_100:\n        /* \"#utility.yul\":44258:44335   */\n      0x4e487b7100000000000000000000000000000000000000000000000000000000\n        /* \"#utility.yul\":44255:44256   */\n      0x00\n        /* \"#utility.yul\":44248:44336   */\n      mstore\n        /* \"#utility.yul\":44355:44359   */\n      0x32\n        /* \"#utility.yul\":44352:44353   */\n      0x04\n        /* \"#utility.yul\":44345:44360   */\n      mstore\n        /* \"#utility.yul\":44379:44383   */\n      0x24\n        /* \"#utility.yul\":44376:44377   */\n      0x00\n        /* \"#utility.yul\":44369:44384   */\n      revert\n        /* \"#utility.yul\":44396:44576   */\n    tag_742:\n        /* \"#utility.yul\":44444:44521   */\n      0x4e487b7100000000000000000000000000000000000000000000000000000000\n        /* \"#utility.yul\":44441:44442   */\n      0x00\n        /* \"#utility.yul\":44434:44522   */\n      mstore\n        /* \"#utility.yul\":44541:44545   */\n      0x41\n        /* \"#utility.yul\":44538:44539   */\n      0x04\n        /* \"#utility.yul\":44531:44546   */\n      mstore\n        /* \"#utility.yul\":44565:44569   */\n      0x24\n        /* \"#utility.yul\":44562:44563   */\n      0x00\n        /* \"#utility.yul\":44555:44570   */\n      revert\n        /* \"#utility.yul\":44582:44699   */\n    tag_771:\n        /* \"#utility.yul\":44691:44692   */\n      0x00\n        /* \"#utility.yul\":44688:44689   */\n      dup1\n        /* \"#utility.yul\":44681:44693   */\n      revert\n        /* \"#utility.yul\":44705:44822   */\n    tag_384:\n        /* \"#utility.yul\":44814:44815   */\n      0x00\n        /* \"#utility.yul\":44811:44812   */\n      dup1\n        /* \"#utility.yul\":44804:44816   */\n      revert\n        /* \"#utility.yul\":44828:44945   */\n    tag_345:\n        /* \"#utility.yul\":44937:44938   */\n      0x00\n        /* \"#utility.yul\":44934:44935   */\n      dup1\n        /* \"#utility.yul\":44927:44939   */\n      revert\n        /* \"#utility.yul\":44951:45068   */\n    tag_729:\n        /* \"#utility.yul\":45060:45061   */\n      0x00\n        /* \"#utility.yul\":45057:45058   */\n      dup1\n        /* \"#utility.yul\":45050:45062   */\n      revert\n        /* \"#utility.yul\":45074:45191   */\n    tag_726:\n        /* \"#utility.yul\":45183:45184   */\n      0x00\n        /* \"#utility.yul\":45180:45181   */\n      dup1\n        /* \"#utility.yul\":45173:45185   */\n      revert\n        /* \"#utility.yul\":45197:45314   */\n    tag_774:\n        /* \"#utility.yul\":45306:45307   */\n      0x00\n        /* \"#utility.yul\":45303:45304   */\n      dup1\n        /* \"#utility.yul\":45296:45308   */\n      revert\n        /* \"#utility.yul\":45320:45437   */\n    tag_327:\n        /* \"#utility.yul\":45429:45430   */\n      0x00\n        /* \"#utility.yul\":45426:45427   */\n      dup1\n        /* \"#utility.yul\":45419:45431   */\n      revert\n        /* \"#utility.yul\":45443:45560   */\n    tag_732:\n        /* \"#utility.yul\":45552:45553   */\n      0x00\n        /* \"#utility.yul\":45549:45550   */\n      dup1\n        /* \"#utility.yul\":45542:45554   */\n      revert\n        /* \"#utility.yul\":45566:45683   */\n    tag_367:\n        /* \"#utility.yul\":45675:45676   */\n      0x00\n        /* \"#utility.yul\":45672:45673   */\n      dup1\n        /* \"#utility.yul\":45665:45677   */\n      revert\n        /* \"#utility.yul\":45689:45806   */\n    tag_429:\n        /* \"#utility.yul\":45798:45799   */\n      0x00\n        /* \"#utility.yul\":45795:45796   */\n      dup1\n        /* \"#utility.yul\":45788:45800   */\n      revert\n        /* \"#utility.yul\":45812:45929   */\n    tag_768:\n        /* \"#utility.yul\":45921:45922   */\n      0x00\n        /* \"#utility.yul\":45918:45919   */\n      dup1\n        /* \"#utility.yul\":45911:45923   */\n      revert\n        /* \"#utility.yul\":45935:46052   */\n    tag_411:\n        /* \"#utility.yul\":46044:46045   */\n      0x00\n        /* \"#utility.yul\":46041:46042   */\n      dup1\n        /* \"#utility.yul\":46034:46046   */\n      revert\n        /* \"#utility.yul\":46058:46160   */\n    tag_502:\n        /* \"#utility.yul\":46099:46105   */\n      0x00\n        /* \"#utility.yul\":46150:46152   */\n      0x1f\n        /* \"#utility.yul\":46146:46153   */\n      not\n        /* \"#utility.yul\":46141:46143   */\n      0x1f\n        /* \"#utility.yul\":46134:46139   */\n      dup4\n        /* \"#utility.yul\":46130:46144   */\n      add\n        /* \"#utility.yul\":46126:46154   */\n      and\n        /* \"#utility.yul\":46116:46154   */\n      swap1\n      pop\n        /* \"#utility.yul\":46058:46160   */\n      swap2\n      swap1\n      pop\n      jump\t// out\n        /* \"#utility.yul\":46166:46334   */\n    tag_538:\n        /* \"#utility.yul\":46306:46326   */\n      0x50726f706f73616c3a20696e6163746976650000000000000000000000000000\n        /* \"#utility.yul\":46302:46303   */\n      0x00\n        /* \"#utility.yul\":46294:46300   */\n      dup3\n        /* \"#utility.yul\":46290:46304   */\n      add\n        /* \"#utility.yul\":46283:46327   */\n      mstore\n        /* \"#utility.yul\":46166:46334   */\n      pop\n      jump\t// out\n        /* \"#utility.yul\":46340:46571   */\n    tag_543:\n        /* \"#utility.yul\":46480:46514   */\n      0x456e642074696d652073686f756c642062652067726561746572207468616e20\n        /* \"#utility.yul\":46476:46477   */\n      0x00\n        /* \"#utility.yul\":46468:46474   */\n      dup3\n        /* \"#utility.yul\":46464:46478   */\n      add\n        /* \"#utility.yul\":46457:46515   */\n      mstore\n        /* \"#utility.yul\":46549:46563   */\n      0x63757272656e742074696d650000000000000000000000000000000000000000\n        /* \"#utility.yul\":46544:46546   */\n      0x20\n        /* \"#utility.yul\":46536:46542   */\n      dup3\n        /* \"#utility.yul\":46532:46547   */\n      add\n        /* \"#utility.yul\":46525:46564   */\n      mstore\n        /* \"#utility.yul\":46340:46571   */\n      pop\n      jump\t// out\n        /* \"#utility.yul\":46577:46798   */\n    tag_548:\n        /* \"#utility.yul\":46717:46751   */\n      0x45524332303a206275726e20616d6f756e7420657863656564732062616c616e\n        /* \"#utility.yul\":46713:46714   */\n      0x00\n        /* \"#utility.yul\":46705:46711   */\n      dup3\n        /* \"#utility.yul\":46701:46715   */\n      add\n        /* \"#utility.yul\":46694:46752   */\n      mstore\n        /* \"#utility.yul\":46786:46790   */\n      0x6365000000000000000000000000000000000000000000000000000000000000\n        /* \"#utility.yul\":46781:46783   */\n      0x20\n        /* \"#utility.yul\":46773:46779   */\n      dup3\n        /* \"#utility.yul\":46769:46784   */\n      add\n        /* \"#utility.yul\":46762:46791   */\n      mstore\n        /* \"#utility.yul\":46577:46798   */\n      pop\n      jump\t// out\n        /* \"#utility.yul\":46804:46967   */\n    tag_553:\n        /* \"#utility.yul\":46944:46959   */\n      0x616c726561647920766f74656400000000000000000000000000000000000000\n        /* \"#utility.yul\":46940:46941   */\n      0x00\n        /* \"#utility.yul\":46932:46938   */\n      dup3\n        /* \"#utility.yul\":46928:46942   */\n      add\n        /* \"#utility.yul\":46921:46960   */\n      mstore\n        /* \"#utility.yul\":46804:46967   */\n      pop\n      jump\t// out\n        /* \"#utility.yul\":46973:47150   */\n    tag_558:\n        /* \"#utility.yul\":47113:47142   */\n      0x50726f706f73616c3a20696e76616c69642063616e6469646174650000000000\n        /* \"#utility.yul\":47109:47110   */\n      0x00\n        /* \"#utility.yul\":47101:47107   */\n      dup3\n        /* \"#utility.yul\":47097:47111   */\n      add\n        /* \"#utility.yul\":47090:47143   */\n      mstore\n        /* \"#utility.yul\":46973:47150   */\n      pop\n      jump\t// out\n        /* \"#utility.yul\":47156:47326   */\n    tag_563:\n        /* \"#utility.yul\":47296:47318   */\n      0x6e6f7420612076616c69642070726f706f73616c000000000000000000000000\n        /* \"#utility.yul\":47292:47293   */\n      0x00\n        /* \"#utility.yul\":47284:47290   */\n      dup3\n        /* \"#utility.yul\":47280:47294   */\n      add\n        /* \"#utility.yul\":47273:47319   */\n      mstore\n        /* \"#utility.yul\":47156:47326   */\n      pop\n      jump\t// out\n        /* \"#utility.yul\":47332:47554   */\n    tag_568:\n        /* \"#utility.yul\":47472:47506   */\n      0x6e6f7420612076616c696420766f74657220666f7220746869732070726f706f\n        /* \"#utility.yul\":47468:47469   */\n      0x00\n        /* \"#utility.yul\":47460:47466   */\n      dup3\n        /* \"#utility.yul\":47456:47470   */\n      add\n        /* \"#utility.yul\":47449:47507   */\n      mstore\n        /* \"#utility.yul\":47541:47546   */\n      0x73616c0000000000000000000000000000000000000000000000000000000000\n        /* \"#utility.yul\":47536:47538   */\n      0x20\n        /* \"#utility.yul\":47528:47534   */\n      dup3\n        /* \"#utility.yul\":47524:47539   */\n      add\n        /* \"#utility.yul\":47517:47547   */\n      mstore\n        /* \"#utility.yul\":47332:47554   */\n      pop\n      jump\t// out\n        /* \"#utility.yul\":47560:47730   */\n    tag_573:\n        /* \"#utility.yul\":47700:47722   */\n      0x70726f706f73616c206e6f742073746172746564000000000000000000000000\n        /* \"#utility.yul\":47696:47697   */\n      0x00\n        /* \"#utility.yul\":47688:47694   */\n      dup3\n        /* \"#utility.yul\":47684:47698   */\n      add\n        /* \"#utility.yul\":47677:47723   */\n      mstore\n        /* \"#utility.yul\":47560:47730   */\n      pop\n      jump\t// out\n        /* \"#utility.yul\":47736:47958   */\n    tag_578:\n        /* \"#utility.yul\":47876:47910   */\n      0x4e6f7420612076616c696420766f74657220666f7220746869732070726f706f\n        /* \"#utility.yul\":47872:47873   */\n      0x00\n        /* \"#utility.yul\":47864:47870   */\n      dup3\n        /* \"#utility.yul\":47860:47874   */\n      add\n        /* \"#utility.yul\":47853:47911   */\n      mstore\n        /* \"#utility.yul\":47945:47950   */\n      0x73616c0000000000000000000000000000000000000000000000000000000000\n        /* \"#utility.yul\":47940:47942   */\n      0x20\n        /* \"#utility.yul\":47932:47938   */\n      dup3\n        /* \"#utility.yul\":47928:47943   */\n      add\n        /* \"#utility.yul\":47921:47951   */\n      mstore\n        /* \"#utility.yul\":47736:47958   */\n      pop\n      jump\t// out\n        /* \"#utility.yul\":47964:48132   */\n    tag_583:\n        /* \"#utility.yul\":48104:48124   */\n      0x696e76616c69642070726f706f73616c49640000000000000000000000000000\n        /* \"#utility.yul\":48100:48101   */\n      0x00\n        /* \"#utility.yul\":48092:48098   */\n      dup3\n        /* \"#utility.yul\":48088:48102   */\n      add\n        /* \"#utility.yul\":48081:48125   */\n      mstore\n        /* \"#utility.yul\":47964:48132   */\n      pop\n      jump\t// out\n        /* \"#utility.yul\":48138:48360   */\n    tag_588:\n        /* \"#utility.yul\":48278:48312   */\n      0x6e6f742073756666696369656e742062616c616e636520746f20636173742076\n        /* \"#utility.yul\":48274:48275   */\n      0x00\n        /* \"#utility.yul\":48266:48272   */\n      dup3\n        /* \"#utility.yul\":48262:48276   */\n      add\n        /* \"#utility.yul\":48255:48313   */\n      mstore\n        /* \"#utility.yul\":48347:48352   */\n      0x6f74650000000000000000000000000000000000000000000000000000000000\n        /* \"#utility.yul\":48342:48344   */\n      0x20\n        /* \"#utility.yul\":48334:48340   */\n      dup3\n        /* \"#utility.yul\":48330:48345   */\n      add\n        /* \"#utility.yul\":48323:48353   */\n      mstore\n        /* \"#utility.yul\":48138:48360   */\n      pop\n      jump\t// out\n        /* \"#utility.yul\":48366:48595   */\n    tag_593:\n        /* \"#utility.yul\":48506:48540   */\n      0x456e642074696d652073686f756c642062652067726561746572207468616e20\n        /* \"#utility.yul\":48502:48503   */\n      0x00\n        /* \"#utility.yul\":48494:48500   */\n      dup3\n        /* \"#utility.yul\":48490:48504   */\n      add\n        /* \"#utility.yul\":48483:48541   */\n      mstore\n        /* \"#utility.yul\":48575:48587   */\n      0x73746172742074696d6500000000000000000000000000000000000000000000\n        /* \"#utility.yul\":48570:48572   */\n      0x20\n        /* \"#utility.yul\":48562:48568   */\n      dup3\n        /* \"#utility.yul\":48558:48573   */\n      add\n        /* \"#utility.yul\":48551:48588   */\n      mstore\n        /* \"#utility.yul\":48366:48595   */\n      pop\n      jump\t// out\n        /* \"#utility.yul\":48601:48821   */\n    tag_598:\n        /* \"#utility.yul\":48741:48775   */\n      0x45524332303a206275726e2066726f6d20746865207a65726f20616464726573\n        /* \"#utility.yul\":48737:48738   */\n      0x00\n        /* \"#utility.yul\":48729:48735   */\n      dup3\n        /* \"#utility.yul\":48725:48739   */\n      add\n        /* \"#utility.yul\":48718:48776   */\n      mstore\n        /* \"#utility.yul\":48810:48813   */\n      0x7300000000000000000000000000000000000000000000000000000000000000\n        /* \"#utility.yul\":48805:48807   */\n      0x20\n        /* \"#utility.yul\":48797:48803   */\n      dup3\n        /* \"#utility.yul\":48793:48808   */\n      add\n        /* \"#utility.yul\":48786:48814   */\n      mstore\n        /* \"#utility.yul\":48601:48821   */\n      pop\n      jump\t// out\n        /* \"#utility.yul\":48827:49050   */\n    tag_603:\n        /* \"#utility.yul\":48967:49001   */\n      0x6e6f7420612076616c6964206c656e677468206f66206861736820726573706f\n        /* \"#utility.yul\":48963:48964   */\n      0x00\n        /* \"#utility.yul\":48955:48961   */\n      dup3\n        /* \"#utility.yul\":48951:48965   */\n      add\n        /* \"#utility.yul\":48944:49002   */\n      mstore\n        /* \"#utility.yul\":49036:49042   */\n      0x6e73652100000000000000000000000000000000000000000000000000000000\n        /* \"#utility.yul\":49031:49033   */\n      0x20\n        /* \"#utility.yul\":49023:49029   */\n      dup3\n        /* \"#utility.yul\":49019:49034   */\n      add\n        /* \"#utility.yul\":49012:49043   */\n      mstore\n        /* \"#utility.yul\":48827:49050   */\n      pop\n      jump\t// out\n        /* \"#utility.yul\":49056:49210   */\n    tag_608:\n        /* \"#utility.yul\":49196:49202   */\n      0x6d696e7400000000000000000000000000000000000000000000000000000000\n        /* \"#utility.yul\":49192:49193   */\n      0x00\n        /* \"#utility.yul\":49184:49190   */\n      dup3\n        /* \"#utility.yul\":49180:49194   */\n      add\n        /* \"#utility.yul\":49173:49203   */\n      mstore\n        /* \"#utility.yul\":49056:49210   */\n      pop\n      jump\t// out\n        /* \"#utility.yul\":49216:49395   */\n    tag_613:\n        /* \"#utility.yul\":49356:49387   */\n      0x496e76616c696420766f74657220666f722070726f706f73616c496421000000\n        /* \"#utility.yul\":49352:49353   */\n      0x00\n        /* \"#utility.yul\":49344:49350   */\n      dup3\n        /* \"#utility.yul\":49340:49354   */\n      add\n        /* \"#utility.yul\":49333:49388   */\n      mstore\n        /* \"#utility.yul\":49216:49395   */\n      pop\n      jump\t// out\n        /* \"#utility.yul\":49401:49555   */\n    tag_618:\n        /* \"#utility.yul\":49541:49547   */\n      0x6275726e00000000000000000000000000000000000000000000000000000000\n        /* \"#utility.yul\":49537:49538   */\n      0x00\n        /* \"#utility.yul\":49529:49535   */\n      dup3\n        /* \"#utility.yul\":49525:49539   */\n      add\n        /* \"#utility.yul\":49518:49548   */\n      mstore\n        /* \"#utility.yul\":49401:49555   */\n      pop\n      jump\t// out\n        /* \"#utility.yul\":49561:49720   */\n    tag_623:\n        /* \"#utility.yul\":49701:49712   */\n      0x6e6f7420766f7465640000000000000000000000000000000000000000000000\n        /* \"#utility.yul\":49697:49698   */\n      0x00\n        /* \"#utility.yul\":49689:49695   */\n      dup3\n        /* \"#utility.yul\":49685:49699   */\n      add\n        /* \"#utility.yul\":49678:49713   */\n      mstore\n        /* \"#utility.yul\":49561:49720   */\n      pop\n      jump\t// out\n        /* \"#utility.yul\":49726:49907   */\n    tag_628:\n        /* \"#utility.yul\":49866:49899   */\n      0x45524332303a206d696e7420746f20746865207a65726f206164647265737300\n        /* \"#utility.yul\":49862:49863   */\n      0x00\n        /* \"#utility.yul\":49854:49860   */\n      dup3\n        /* \"#utility.yul\":49850:49864   */\n      add\n        /* \"#utility.yul\":49843:49900   */\n      mstore\n        /* \"#utility.yul\":49726:49907   */\n      pop\n      jump\t// out\n        /* \"#utility.yul\":49913:50035   */\n    tag_372:\n        /* \"#utility.yul\":49986:50010   */\n      tag_869\n        /* \"#utility.yul\":50004:50009   */\n      dup2\n        /* \"#utility.yul\":49986:50010   */\n      tag_461\n      jump\t// in\n    tag_869:\n        /* \"#utility.yul\":49979:49984   */\n      dup2\n        /* \"#utility.yul\":49976:50011   */\n      eq\n        /* \"#utility.yul\":49966:50029   */\n      tag_870\n      jumpi\n        /* \"#utility.yul\":50025:50026   */\n      0x00\n        /* \"#utility.yul\":50022:50023   */\n      dup1\n        /* \"#utility.yul\":50015:50027   */\n      revert\n        /* \"#utility.yul\":49966:50029   */\n    tag_870:\n        /* \"#utility.yul\":49913:50035   */\n      pop\n      jump\t// out\n        /* \"#utility.yul\":50041:50163   */\n    tag_403:\n        /* \"#utility.yul\":50114:50138   */\n      tag_872\n        /* \"#utility.yul\":50132:50137   */\n      dup2\n        /* \"#utility.yul\":50114:50138   */\n      tag_640\n      jump\t// in\n    tag_872:\n        /* \"#utility.yul\":50107:50112   */\n      dup2\n        /* \"#utility.yul\":50104:50139   */\n      eq\n        /* \"#utility.yul\":50094:50157   */\n      tag_873\n      jumpi\n        /* \"#utility.yul\":50153:50154   */\n      0x00\n        /* \"#utility.yul\":50150:50151   */\n      dup1\n        /* \"#utility.yul\":50143:50155   */\n      revert\n        /* \"#utility.yul\":50094:50157   */\n    tag_873:\n        /* \"#utility.yul\":50041:50163   */\n      pop\n      jump\t// out\n        /* \"#utility.yul\":50169:50287   */\n    tag_407:\n        /* \"#utility.yul\":50240:50262   */\n      tag_875\n        /* \"#utility.yul\":50256:50261   */\n      dup2\n        /* \"#utility.yul\":50240:50262   */\n      tag_644\n      jump\t// in\n    tag_875:\n        /* \"#utility.yul\":50233:50238   */\n      dup2\n        /* \"#utility.yul\":50230:50263   */\n      eq\n        /* \"#utility.yul\":50220:50281   */\n      tag_876\n      jumpi\n        /* \"#utility.yul\":50277:50278   */\n      0x00\n        /* \"#utility.yul\":50274:50275   */\n      dup1\n        /* \"#utility.yul\":50267:50279   */\n      revert\n        /* \"#utility.yul\":50220:50281   */\n    tag_876:\n        /* \"#utility.yul\":50169:50287   */\n      pop\n      jump\t// out\n\n    auxdata: 0xa2646970667358221220852ce527419447852e094310648390cba15834def419d94ef871ccc4499611e664736f6c63430008070033\n}\n",
				"bytecode": {
					"linkReferences": {},
					"object": "60806040523480156200001157600080fd5b506040518060400160405280600c81526020017f51566f74696e67546f6b656e00000000000000000000000000000000000000008152506040518060400160405280600281526020017f5176000000000000000000000000000000000000000000000000000000000000815250816002908051906020019062000096929190620000f9565b508060039080519060200190620000af929190620000f9565b50505033600460006101000a81548173ffffffffffffffffffffffffffffffffffffffff021916908373ffffffffffffffffffffffffffffffffffffffff1602179055506200020e565b8280546200010790620001a9565b90600052602060002090601f0160209004810192826200012b576000855562000177565b82601f106200014657805160ff191683800117855562000177565b8280016001018555821562000177579182015b828111156200017657825182559160200191906001019062000159565b5b5090506200018691906200018a565b5090565b5b80821115620001a55760008160009055506001016200018b565b5090565b60006002820490506001821680620001c257607f821691505b60208210811415620001d957620001d8620001df565b5b50919050565b7f4e487b7100000000000000000000000000000000000000000000000000000000600052602260045260246000fd5b613847806200021e6000396000f3fe608060405234801561001057600080fd5b50600436106100a95760003560e01c80635c230eee116100715780635c230eee1461015a57806370a082311461017657806395d89b41146101a65780639d671564146101c4578063ab9c70d4146101f4578063e745d68e14610227576100a9565b8063013cf08b146100ae57806306fdde03146100e457806318160ddd14610102578063313ce567146101205780634de77e481461013e575b600080fd5b6100c860048036038101906100c39190612193565b610258565b6040516100db97969594939291906128f3565b60405180910390f35b6100ec61035d565b6040516100f99190612969565b60405180910390f35b61010a6103ef565b6040516101179190612c4c565b60405180910390f35b6101286103f9565b6040516101359190612d32565b60405180910390f35b6101586004803603810190610153919061225f565b610402565b005b610174600480360381019061016f91906121c0565b61072c565b005b610190600480360381019061018b9190612126565b610bf5565b60405161019d9190612c4c565b60405180910390f35b6101ae610c3d565b6040516101bb9190612969565b60405180910390f35b6101de60048036038101906101d99190612193565b610ccf565b6040516101eb9190612969565b60405180910390f35b61020e60048036038101906102099190612153565b610de9565b60405161021e9493929190612c67565b60405180910390f35b610241600480360381019061023c9190612126565b610e53565b60405161024f929190612c23565b60405180910390f35b60076020528060005260406000206000915090508060000160009054906101000a900473ffffffffffffffffffffffffffffffffffffffff16908060000160149054906101000a900460ff16908060010180546102b490613178565b80601f01602080910402602001604051908101604052809291908181526020018280546102e090613178565b801561032d5780601f106103025761010080835404028352916020019161032d565b820191906000526020600020905b81548152906001019060200180831161031057829003601f168201915b5050505050908060020154908060030154908060040160009054906101000a900461ffff16908060050154905087565b60606002805461036c90613178565b80601f016020809104026020016040519081016040528092919081815260200182805461039890613178565b80156103e55780601f106103ba576101008083540402835291602001916103e5565b820191906000526020600020905b8154815290600101906020018083116103c857829003601f168201915b5050505050905090565b6000600154905090565b60006012905090565b854210610444576040517f08c379a000000000000000000000000000000000000000000000000000000000815260040161043b90612a6b565b60405180910390fd5b844210610486576040517f08c379a000000000000000000000000000000000000000000000000000000000815260040161047d906129ab565b60405180910390fd5b8486106104c8576040517f08c379a00000000000000000000000000000000000000000000000000000000081526004016104bf90612aeb565b60405180910390fd5b600560008154809291906104db9061323f565b9190505550610517898989898989878a8a600760006005548152602001908152602001600020610eaf909998979695949392919063ffffffff16565b507f239a8a71a7d1cb0d134f6cc072ad6390e36a88c8e78dff69013ee79528441e8060055489898989898989604051610557989796959493929190612cac565b60405180910390a1600160096000600554815260200190815260200160002060006101000a81548160ff02191690831515021790555060005b88518110156106c5576105bd8982815181106105af576105ae6132e6565b5b6020026020010151836110e1565b61065e6005548a83815181106105d6576105d56132e6565b5b6020026020010151600085600860008f88815181106105f8576105f76132e6565b5b602002602001015173ffffffffffffffffffffffffffffffffffffffff1673ffffffffffffffffffffffffffffffffffffffff1681526020019081526020016000206000600554815260200190815260200160002061115290949392919063ffffffff16565b507fabf5327be9f5825c40d58bda541dd07f09b62df3376bbd5ecdbaa8bd82a9d492898281518110610693576106926132e6565b5b6020026020010151836040516106aa929190612b4b565b60405180910390a180806106bd9061323f565b915050610590565b50610720600554600660006106d86111d2565b73ffffffffffffffffffffffffffffffffffffffff1673ffffffffffffffffffffffffffffffffffffffff1681526020019081526020016000206111da90919063ffffffff16565b50505050505050505050565b6009600085815260200190815260200160002060009054906101000a900460ff1661078c576040517f08c379a000000000000000000000000000000000000000000000000000000000815260040161078390612aab565b60405180910390fd5b83600860008573ffffffffffffffffffffffffffffffffffffffff1673ffffffffffffffffffffffffffffffffffffffff16815260200190815260200160002060008681526020019081526020016000206000015414610821576040517f08c379a000000000000000000000000000000000000000000000000000000000815260040161081890612a4b565b60405180910390fd5b600860008473ffffffffffffffffffffffffffffffffffffffff1673ffffffffffffffffffffffffffffffffffffffff168152602001908152602001600020600085815260200190815260200160002060010160149054906101000a900460ff16156108c2576040517f08c379a00000000000000000000000000000000000000000000000000000000081526004016108b9906129eb565b60405180910390fd5b81516007600086815260200190815260200160002060040160009054906101000a900461ffff1661ffff161461092d576040517f08c379a000000000000000000000000000000000000000000000000000000000815260040161092490612b2b565b60405180910390fd5b6000805b825181101561099a5782818151811061094d5761094c6132e6565b5b6020026020010151838281518110610968576109676132e6565b5b602002602001015161097a9190613029565b826109859190612fd3565b915080806109929061323f565b915050610931565b5080600860008673ffffffffffffffffffffffffffffffffffffffff1673ffffffffffffffffffffffffffffffffffffffff1681526020019081526020016000206000878152602001908152602001600020600201541015610a31576040517f08c379a0000000000000000000000000000000000000000000000000000000008152600401610a2890612acb565b60405180910390fd5b610a5a848484600760008a81526020019081526020016000206112ab909392919063ffffffff16565b50610ab5858460066000610a6c6111d2565b73ffffffffffffffffffffffffffffffffffffffff1673ffffffffffffffffffffffffffffffffffffffff16815260200190815260200160002061171a9092919063ffffffff16565b50610b0e600860008673ffffffffffffffffffffffffffffffffffffffff1673ffffffffffffffffffffffffffffffffffffffff16815260200190815260200160002060008781526020019081526020016000206118a7565b506001600860008673ffffffffffffffffffffffffffffffffffffffff1673ffffffffffffffffffffffffffffffffffffffff168152602001908152602001600020600087815260200190815260200160002060010160146101000a81548160ff021916908315150217905550610b9d8460076000600554815260200190815260200160002060050154611955565b7fabf5327be9f5825c40d58bda541dd07f09b62df3376bbd5ecdbaa8bd82a9d4928460076000600554815260200190815260200160002060050154604051610be6929190612ba7565b60405180910390a15050505050565b60008060008373ffffffffffffffffffffffffffffffffffffffff1673ffffffffffffffffffffffffffffffffffffffff168152602001908152602001600020549050919050565b606060038054610c4c90613178565b80601f0160208091040260200160405190810160405280929190818152602001828054610c7890613178565b8015610cc55780601f10610c9a57610100808354040283529160200191610cc5565b820191906000526020600020905b815481529060010190602001808311610ca857829003601f168201915b5050505050905090565b60606009600083815260200190815260200160002060009054906101000a900460ff16610d31576040517f08c379a0000000000000000000000000000000000000000000000000000000008152600401610d2890612a2b565b60405180910390fd5b600760008381526020019081526020016000206009016000600181526020019081526020016000208054610d6490613178565b80601f0160208091040260200160405190810160405280929190818152602001828054610d9090613178565b8015610ddd5780601f10610db257610100808354040283529160200191610ddd565b820191906000526020600020905b815481529060010190602001808311610dc057829003601f168201915b50505050509050919050565b6008602052816000526040600020602052806000526040600020600091509150508060000154908060010160009054906101000a900473ffffffffffffffffffffffffffffffffffffffff16908060010160149054906101000a900460ff16908060020154905084565b60066020528060005260406000206000915090508060000160009054906101000a90046fffffffffffffffffffffffffffffffff16908060000160109054906101000a90046fffffffffffffffffffffffffffffffff16905082565b6000878b60000160006101000a81548173ffffffffffffffffffffffffffffffffffffffff021916908373ffffffffffffffffffffffffffffffffffffffff160217905550898b60000160146101000a81548160ff021916908360ff160217905550848b6001019080519060200190610f29929190611c73565b50868b60020181905550858b60030181905550828290508b60040160006101000a81548161ffff021916908361ffff160217905550838b6005018190555060005b8383905081101561103a5760018c600701858584818110610f8e57610f8d6132e6565b5b9050602002810190610fa09190612d4d565b604051610fae9291906128ac565b908152602001604051809103902060006101000a81548160ff021916908315150217905550838382818110610fe657610fe56132e6565b5b9050602002810190610ff89190612d4d565b8d600801600060018561100b9190612fd3565b81526020019081526020016000209190611026929190611cf9565b5080806110329061323f565b915050610f6a565b5060005b89518110156110ce5760018c60060160008c8481518110611062576110616132e6565b5b602002602001015173ffffffffffffffffffffffffffffffffffffffff1673ffffffffffffffffffffffffffffffffffffffff16815260200190815260200160002060006101000a81548160ff02191690831515021790555080806110c69061323f565b91505061103e565b50600190509a9950505050505050505050565b6110e96111d2565b8073ffffffffffffffffffffffffffffffffffffffff16600460009054906101000a900473ffffffffffffffffffffffffffffffffffffffff1673ffffffffffffffffffffffffffffffffffffffff161461114357600080fd5b61114d83836119c6565b505050565b6000848660000181905550838660010160006101000a81548173ffffffffffffffffffffffffffffffffffffffff021916908373ffffffffffffffffffffffffffffffffffffffff160217905550828660010160146101000a81548160ff0219169083151502179055508186600201819055506001905095945050505050565b600033905090565b600082600001600081819054906101000a90046fffffffffffffffffffffffffffffffff168092919061120c906131db565b91906101000a8154816fffffffffffffffffffffffffffffffff02191690836fffffffffffffffffffffffffffffffff16021790555050818360010160008560000160009054906101000a90046fffffffffffffffffffffffffffffffff166fffffffffffffffffffffffffffffffff166fffffffffffffffffffffffffffffffff168152602001908152602001600020819055506001905092915050565b600060028560000160149054906101000a900460ff1660ff1614611304576040517f08c379a00000000000000000000000000000000000000000000000000000000081526004016112fb9061298b565b60405180910390fd5b846003015442111561155a5760028560000160146101000a81548160ff021916908360ff160217905550600085600a018660080160006001815260200190815260200160002060405161135791906128dc565b908152602001604051809103902054905060006001905086600801600060018152602001908152602001600020876009016000600181526020019081526020016000209080546113a690613178565b6113b1929190611d7f565b506000600290505b8760040160009054906101000a900461ffff1661ffff168161ffff161161154e578288600a018960080160008461ffff16815260200190815260200160002060405161140591906128dc565b90815260200160405180910390205411156114a55787600a018860080160008361ffff16815260200190815260200160002060405161144491906128dc565b9081526020016040518091039020549250600191508760080160008261ffff1681526020019081526020016000208860090160006001815260200190815260200160002090805461149490613178565b61149f929190611d7f565b5061153b565b8288600a018960080160008461ffff1681526020019081526020016000206040516114d091906128dc565b908152602001604051809103902054141561153a5781806114f09061323f565b9250508760080160008261ffff16815260200190815260200160002088600901600084815260200190815260200160002090805461152d90613178565b611538929190611d7f565b505b5b808061154690613214565b9150506113b9565b50600092505050611712565b8460060160008573ffffffffffffffffffffffffffffffffffffffff1673ffffffffffffffffffffffffffffffffffffffff16815260200190815260200160002060009054906101000a900460ff166115e8576040517f08c379a00000000000000000000000000000000000000000000000000000000081526004016115df90612a8b565b60405180910390fd5b60005b8560040160009054906101000a900461ffff1661ffff168161ffff16101561170c5785600701848261ffff1681518110611628576116276132e6565b5b602002602001015160405161163d91906128c5565b908152602001604051809103902060009054906101000a900460ff16611698576040517f08c379a000000000000000000000000000000000000000000000000000000000815260040161168f90612a0b565b60405180910390fd5b828161ffff16815181106116af576116ae6132e6565b5b602002602001015186600a01858361ffff16815181106116d2576116d16132e6565b5b60200260200101516040516116e791906128c5565b908152602001604051809103902081905550808061170490613214565b9150506115eb565b50600190505b949350505050565b600083600001601081819054906101000a90046fffffffffffffffffffffffffffffffff168092919061174c906131db565b91906101000a8154816fffffffffffffffffffffffffffffffff02191690836fffffffffffffffffffffffffffffffff16021790555050828460020160008660000160109054906101000a90046fffffffffffffffffffffffffffffffff166fffffffffffffffffffffffffffffffff166fffffffffffffffffffffffffffffffff1681526020019081526020016000208190555060005b82518161ffff16101561186d57828161ffff1681518110611808576118076132e6565b5b602002602001015185600301600086815260200190815260200160002060006001846118349190612f9b565b61ffff1681526020019081526020016000209080519060200190611859929190611c73565b50808061186590613214565b9150506117e4565b50600184600401600085815260200190815260200160002060006101000a81548160ff021916908315150217905550600190509392505050565b600080826000015414156118f0576040517f08c379a00000000000000000000000000000000000000000000000000000000081526004016118e790612b87565b60405180910390fd5b8160010160149054906101000a900460ff1615611942576040517f08c379a000000000000000000000000000000000000000000000000000000000815260040161193990612be3565b60405180910390fd5b6000826002018190555060019050919050565b61195d6111d2565b8073ffffffffffffffffffffffffffffffffffffffff16600460009054906101000a900473ffffffffffffffffffffffffffffffffffffffff1673ffffffffffffffffffffffffffffffffffffffff16146119b757600080fd5b6119c18383611ae1565b505050565b600073ffffffffffffffffffffffffffffffffffffffff168273ffffffffffffffffffffffffffffffffffffffff161415611a36576040517f08c379a0000000000000000000000000000000000000000000000000000000008152600401611a2d90612c03565b60405180910390fd5b8060016000828254611a489190612fd3565b92505081905550806000808473ffffffffffffffffffffffffffffffffffffffff1673ffffffffffffffffffffffffffffffffffffffff1681526020019081526020016000206000828254611a9d9190612fd3565b925050819055507fabf5327be9f5825c40d58bda541dd07f09b62df3376bbd5ecdbaa8bd82a9d4928282604051611ad5929190612b4b565b60405180910390a15050565b600073ffffffffffffffffffffffffffffffffffffffff168273ffffffffffffffffffffffffffffffffffffffff161415611b51576040517f08c379a0000000000000000000000000000000000000000000000000000000008152600401611b4890612b0b565b60405180910390fd5b60008060008473ffffffffffffffffffffffffffffffffffffffff1673ffffffffffffffffffffffffffffffffffffffff16815260200190815260200160002054905081811015611bd7576040517f08c379a0000000000000000000000000000000000000000000000000000000008152600401611bce906129cb565b60405180910390fd5b8181036000808573ffffffffffffffffffffffffffffffffffffffff1673ffffffffffffffffffffffffffffffffffffffff168152602001908152602001600020819055508160016000828254611c2e9190613083565b925050819055507fabf5327be9f5825c40d58bda541dd07f09b62df3376bbd5ecdbaa8bd82a9d4928383604051611c66929190612ba7565b60405180910390a1505050565b828054611c7f90613178565b90600052602060002090601f016020900481019282611ca15760008555611ce8565b82601f10611cba57805160ff1916838001178555611ce8565b82800160010185558215611ce8579182015b82811115611ce7578251825591602001919060010190611ccc565b5b509050611cf59190611e0c565b5090565b828054611d0590613178565b90600052602060002090601f016020900481019282611d275760008555611d6e565b82601f10611d4057803560ff1916838001178555611d6e565b82800160010185558215611d6e579182015b82811115611d6d578235825591602001919060010190611d52565b5b509050611d7b9190611e0c565b5090565b828054611d8b90613178565b90600052602060002090601f016020900481019282611dad5760008555611dfb565b82601f10611dbe5780548555611dfb565b82800160010185558215611dfb57600052602060002091601f016020900482015b82811115611dfa578254825591600101919060010190611ddf565b5b509050611e089190611e0c565b5090565b5b80821115611e25576000816000905550600101611e0d565b5090565b6000611e3c611e3784612dd5565b612db0565b90508083825260208201905082856020860282011115611e5f57611e5e613362565b5b60005b85811015611e8f5781611e758882611fd9565b845260208401935060208301925050600181019050611e62565b5050509392505050565b6000611eac611ea784612e01565b612db0565b90508083825260208201905082856020860282011115611ecf57611ece613362565b5b60005b85811015611f1d57813567ffffffffffffffff811115611ef557611ef461334e565b5b808601611f0289826120ce565b85526020850194506020840193505050600181019050611ed2565b5050509392505050565b6000611f3a611f3584612e2d565b612db0565b90508083825260208201905082856020860282011115611f5d57611f5c613362565b5b60005b85811015611f8d5781611f7388826120fc565b845260208401935060208301925050600181019050611f60565b5050509392505050565b6000611faa611fa584612e59565b612db0565b905082815260208101848484011115611fc657611fc561336c565b5b611fd1848285613136565b509392505050565b600081359050611fe8816137cc565b92915050565b600082601f8301126120035761200261334e565b5b8135612013848260208601611e29565b91505092915050565b60008083601f8401126120325761203161334e565b5b8235905067ffffffffffffffff81111561204f5761204e613349565b5b60208301915083602082028301111561206b5761206a613362565b5b9250929050565b600082601f8301126120875761208661334e565b5b8135612097848260208601611e99565b91505092915050565b600082601f8301126120b5576120b461334e565b5b81356120c5848260208601611f27565b91505092915050565b600082601f8301126120e3576120e261334e565b5b81356120f3848260208601611f97565b91505092915050565b60008135905061210b816137e3565b92915050565b600081359050612120816137fa565b92915050565b60006020828403121561213c5761213b61337b565b5b600061214a84828501611fd9565b91505092915050565b6000806040838503121561216a5761216961337b565b5b600061217885828601611fd9565b9250506020612189858286016120fc565b9150509250929050565b6000602082840312156121a9576121a861337b565b5b60006121b7848285016120fc565b91505092915050565b600080600080608085870312156121da576121d961337b565b5b60006121e8878288016120fc565b94505060206121f987828801611fd9565b935050604085013567ffffffffffffffff81111561221a57612219613371565b5b61222687828801612072565b925050606085013567ffffffffffffffff81111561224757612246613371565b5b612253878288016120a0565b91505092959194509250565b60008060008060008060008060006101008a8c0312156122825761228161337b565b5b60006122908c828d01612111565b99505060208a013567ffffffffffffffff8111156122b1576122b0613371565b5b6122bd8c828d01611fee565b98505060406122ce8c828d01611fd9565b97505060606122df8c828d016120fc565b96505060806122f08c828d016120fc565b95505060a08a013567ffffffffffffffff81111561231157612310613371565b5b61231d8c828d016120ce565b94505060c08a013567ffffffffffffffff81111561233e5761233d613371565b5b61234a8c828d0161201c565b935093505060e061235d8c828d016120fc565b9150509295985092959850929598565b6000612379838361239b565b60208301905092915050565b600061239284848461249c565b90509392505050565b6123a4816130b7565b82525050565b6123b3816130b7565b82525050565b60006123c482612eb9565b6123ce8185612ee9565b93506123d983612e8a565b8060005b8381101561240a5781516123f1888261236d565b97506123fc83612ecf565b9250506001810190506123dd565b5085935050505092915050565b60006124238385612efa565b93508360208402850161243584612e9a565b8060005b8781101561247b5784840389526124508284612f38565b61245b868284612385565b955061246684612edc565b935060208b019a505050600181019050612439565b50829750879450505050509392505050565b612496816130c9565b82525050565b60006124a88385612f0b565b93506124b5838584613136565b6124be83613380565b840190509392505050565b60006124d58385612f2d565b93506124e2838584613136565b82840190509392505050565b60006124f982612ec4565b6125038185612f1c565b9350612513818560208601613145565b61251c81613380565b840191505092915050565b600061253282612ec4565b61253c8185612f2d565b935061254c818560208601613145565b80840191505092915050565b6000815461256581613178565b61256f8186612f2d565b9450600182166000811461258a576001811461259b576125ce565b60ff198316865281860193506125ce565b6125a485612ea4565b60005b838110156125c6578154818901526001820191506020810190506125a7565b838801955050505b50505092915050565b60006125e4601283612f1c565b91506125ef82613391565b602082019050919050565b6000612607602c83612f1c565b9150612612826133ba565b604082019050919050565b600061262a602283612f1c565b915061263582613409565b604082019050919050565b600061264d600d83612f1c565b915061265882613458565b602082019050919050565b6000612670601b83612f1c565b915061267b82613481565b602082019050919050565b6000612693601483612f1c565b915061269e826134aa565b602082019050919050565b60006126b6602383612f1c565b91506126c1826134d3565b604082019050919050565b60006126d9601483612f1c565b91506126e482613522565b602082019050919050565b60006126fc602383612f1c565b91506127078261354b565b604082019050919050565b600061271f601283612f1c565b915061272a8261359a565b602082019050919050565b6000612742602383612f1c565b915061274d826135c3565b604082019050919050565b6000612765602a83612f1c565b915061277082613612565b604082019050919050565b6000612788602183612f1c565b915061279382613661565b604082019050919050565b60006127ab602483612f1c565b91506127b6826136b0565b604082019050919050565b60006127ce600483612f1c565b91506127d9826136ff565b602082019050919050565b60006127f1601d83612f1c565b91506127fc82613728565b602082019050919050565b6000612814600483612f1c565b915061281f82613751565b602082019050919050565b6000612837600983612f1c565b91506128428261377a565b602082019050919050565b600061285a601f83612f1c565b9150612865826137a3565b602082019050919050565b612879816130d5565b82525050565b612888816130f1565b82525050565b6128978161311f565b82525050565b6128a681613129565b82525050565b60006128b98284866124c9565b91508190509392505050565b60006128d18284612527565b915081905092915050565b60006128e88284612558565b915081905092915050565b600060e082019050612908600083018a6123aa565b612915602083018961289d565b818103604083015261292781886124ee565b9050612936606083018761288e565b612943608083018661288e565b61295060a083018561287f565b61295d60c083018461288e565b98975050505050505050565b6000602082019050818103600083015261298381846124ee565b905092915050565b600060208201905081810360008301526129a4816125d7565b9050919050565b600060208201905081810360008301526129c4816125fa565b9050919050565b600060208201905081810360008301526129e48161261d565b9050919050565b60006020820190508181036000830152612a0481612640565b9050919050565b60006020820190508181036000830152612a2481612663565b9050919050565b60006020820190508181036000830152612a4481612686565b9050919050565b60006020820190508181036000830152612a64816126a9565b9050919050565b60006020820190508181036000830152612a84816126cc565b9050919050565b60006020820190508181036000830152612aa4816126ef565b9050919050565b60006020820190508181036000830152612ac481612712565b9050919050565b60006020820190508181036000830152612ae481612735565b9050919050565b60006020820190508181036000830152612b0481612758565b9050919050565b60006020820190508181036000830152612b248161277b565b9050919050565b60006020820190508181036000830152612b448161279e565b9050919050565b60006060820190508181036000830152612b64816127c1565b9050612b7360208301856123aa565b612b80604083018461288e565b9392505050565b60006020820190508181036000830152612ba0816127e4565b9050919050565b60006060820190508181036000830152612bc081612807565b9050612bcf60208301856123aa565b612bdc604083018461288e565b9392505050565b60006020820190508181036000830152612bfc8161282a565b9050919050565b60006020820190508181036000830152612c1c8161284d565b9050919050565b6000604082019050612c386000830185612870565b612c456020830184612870565b9392505050565b6000602082019050612c61600083018461288e565b92915050565b6000608082019050612c7c600083018761288e565b612c8960208301866123aa565b612c96604083018561248d565b612ca3606083018461288e565b95945050505050565b600060e082019050612cc1600083018b61288e565b8181036020830152612cd3818a6123b9565b9050612ce260408301896123aa565b612cef606083018861288e565b612cfc608083018761288e565b81810360a0830152612d0e81866124ee565b905081810360c0830152612d23818486612417565b90509998505050505050505050565b6000602082019050612d47600083018461289d565b92915050565b60008083356001602003843603038112612d6a57612d69613358565b5b80840192508235915067ffffffffffffffff821115612d8c57612d8b613353565b5b602083019250600182023603831315612da857612da7613367565b5b509250929050565b6000612dba612dcb565b9050612dc682826131aa565b919050565b6000604051905090565b600067ffffffffffffffff821115612df057612def613315565b5b602082029050602081019050919050565b600067ffffffffffffffff821115612e1c57612e1b613315565b5b602082029050602081019050919050565b600067ffffffffffffffff821115612e4857612e47613315565b5b602082029050602081019050919050565b600067ffffffffffffffff821115612e7457612e73613315565b5b612e7d82613380565b9050602081019050919050565b6000819050602082019050919050565b6000819050919050565b60008190508160005260206000209050919050565b600081519050919050565b600081519050919050565b6000602082019050919050565b6000602082019050919050565b600082825260208201905092915050565b600082825260208201905092915050565b600082825260208201905092915050565b600082825260208201905092915050565b600081905092915050565b60008083356001602003843603038112612f5557612f54613376565b5b83810192508235915060208301925067ffffffffffffffff821115612f7d57612f7c613344565b5b600182023603841315612f9357612f9261335d565b5b509250929050565b6000612fa6826130f1565b9150612fb1836130f1565b92508261ffff03821115612fc857612fc7613288565b5b828201905092915050565b6000612fde8261311f565b9150612fe98361311f565b9250827fffffffffffffffffffffffffffffffffffffffffffffffffffffffffffffffff0382111561301e5761301d613288565b5b828201905092915050565b60006130348261311f565b915061303f8361311f565b9250817fffffffffffffffffffffffffffffffffffffffffffffffffffffffffffffffff048311821515161561307857613077613288565b5b828202905092915050565b600061308e8261311f565b91506130998361311f565b9250828210156130ac576130ab613288565b5b828203905092915050565b60006130c2826130ff565b9050919050565b60008115159050919050565b60006fffffffffffffffffffffffffffffffff82169050919050565b600061ffff82169050919050565b600073ffffffffffffffffffffffffffffffffffffffff82169050919050565b6000819050919050565b600060ff82169050919050565b82818337600083830152505050565b60005b83811015613163578082015181840152602081019050613148565b83811115613172576000848401525b50505050565b6000600282049050600182168061319057607f821691505b602082108114156131a4576131a36132b7565b5b50919050565b6131b382613380565b810181811067ffffffffffffffff821117156131d2576131d1613315565b5b80604052505050565b60006131e6826130d5565b91506fffffffffffffffffffffffffffffffff82141561320957613208613288565b5b600182019050919050565b600061321f826130f1565b915061ffff82141561323457613233613288565b5b600182019050919050565b600061324a8261311f565b91507fffffffffffffffffffffffffffffffffffffffffffffffffffffffffffffffff82141561327d5761327c613288565b5b600182019050919050565b7f4e487b7100000000000000000000000000000000000000000000000000000000600052601160045260246000fd5b7f4e487b7100000000000000000000000000000000000000000000000000000000600052602260045260246000fd5b7f4e487b7100000000000000000000000000000000000000000000000000000000600052603260045260246000fd5b7f4e487b7100000000000000000000000000000000000000000000000000000000600052604160045260246000fd5b600080fd5b600080fd5b600080fd5b600080fd5b600080fd5b600080fd5b600080fd5b600080fd5b600080fd5b600080fd5b600080fd5b600080fd5b6000601f19601f8301169050919050565b7f50726f706f73616c3a20696e6163746976650000000000000000000000000000600082015250565b7f456e642074696d652073686f756c642062652067726561746572207468616e2060008201527f63757272656e742074696d650000000000000000000000000000000000000000602082015250565b7f45524332303a206275726e20616d6f756e7420657863656564732062616c616e60008201527f6365000000000000000000000000000000000000000000000000000000000000602082015250565b7f616c726561647920766f74656400000000000000000000000000000000000000600082015250565b7f50726f706f73616c3a20696e76616c69642063616e6469646174650000000000600082015250565b7f6e6f7420612076616c69642070726f706f73616c000000000000000000000000600082015250565b7f6e6f7420612076616c696420766f74657220666f7220746869732070726f706f60008201527f73616c0000000000000000000000000000000000000000000000000000000000602082015250565b7f70726f706f73616c206e6f742073746172746564000000000000000000000000600082015250565b7f4e6f7420612076616c696420766f74657220666f7220746869732070726f706f60008201527f73616c0000000000000000000000000000000000000000000000000000000000602082015250565b7f696e76616c69642070726f706f73616c49640000000000000000000000000000600082015250565b7f6e6f742073756666696369656e742062616c616e636520746f2063617374207660008201527f6f74650000000000000000000000000000000000000000000000000000000000602082015250565b7f456e642074696d652073686f756c642062652067726561746572207468616e2060008201527f73746172742074696d6500000000000000000000000000000000000000000000602082015250565b7f45524332303a206275726e2066726f6d20746865207a65726f2061646472657360008201527f7300000000000000000000000000000000000000000000000000000000000000602082015250565b7f6e6f7420612076616c6964206c656e677468206f66206861736820726573706f60008201527f6e73652100000000000000000000000000000000000000000000000000000000602082015250565b7f6d696e7400000000000000000000000000000000000000000000000000000000600082015250565b7f496e76616c696420766f74657220666f722070726f706f73616c496421000000600082015250565b7f6275726e00000000000000000000000000000000000000000000000000000000600082015250565b7f6e6f7420766f7465640000000000000000000000000000000000000000000000600082015250565b7f45524332303a206d696e7420746f20746865207a65726f206164647265737300600082015250565b6137d5816130b7565b81146137e057600080fd5b50565b6137ec8161311f565b81146137f757600080fd5b50565b61380381613129565b811461380e57600080fd5b5056fea2646970667358221220852ce527419447852e094310648390cba15834def419d94ef871ccc4499611e664736f6c63430008070033",
					"opcodes": "PUSH1 0x80 PUSH1 0x40 MSTORE CALLVALUE DUP1 ISZERO PUSH3 0x11 JUMPI PUSH1 0x0 DUP1 REVERT JUMPDEST POP PUSH1 0x40 MLOAD DUP1 PUSH1 0x40 ADD PUSH1 0x40 MSTORE DUP1 PUSH1 0xC DUP2 MSTORE PUSH1 0x20 ADD PUSH32 0x51566F74696E67546F6B656E0000000000000000000000000000000000000000 DUP2 MSTORE POP PUSH1 0x40 MLOAD DUP1 PUSH1 0x40 ADD PUSH1 0x40 MSTORE DUP1 PUSH1 0x2 DUP2 MSTORE PUSH1 0x20 ADD PUSH32 0x5176000000000000000000000000000000000000000000000000000000000000 DUP2 MSTORE POP DUP2 PUSH1 0x2 SWAP1 DUP1 MLOAD SWAP1 PUSH1 0x20 ADD SWAP1 PUSH3 0x96 SWAP3 SWAP2 SWAP1 PUSH3 0xF9 JUMP JUMPDEST POP DUP1 PUSH1 0x3 SWAP1 DUP1 MLOAD SWAP1 PUSH1 0x20 ADD SWAP1 PUSH3 0xAF SWAP3 SWAP2 SWAP1 PUSH3 0xF9 JUMP JUMPDEST POP POP POP CALLER PUSH1 0x4 PUSH1 0x0 PUSH2 0x100 EXP DUP2 SLOAD DUP2 PUSH20 0xFFFFFFFFFFFFFFFFFFFFFFFFFFFFFFFFFFFFFFFF MUL NOT AND SWAP1 DUP4 PUSH20 0xFFFFFFFFFFFFFFFFFFFFFFFFFFFFFFFFFFFFFFFF AND MUL OR SWAP1 SSTORE POP PUSH3 0x20E JUMP JUMPDEST DUP3 DUP1 SLOAD PUSH3 0x107 SWAP1 PUSH3 0x1A9 JUMP JUMPDEST SWAP1 PUSH1 0x0 MSTORE PUSH1 0x20 PUSH1 0x0 KECCAK256 SWAP1 PUSH1 0x1F ADD PUSH1 0x20 SWAP1 DIV DUP2 ADD SWAP3 DUP3 PUSH3 0x12B JUMPI PUSH1 0x0 DUP6 SSTORE PUSH3 0x177 JUMP JUMPDEST DUP3 PUSH1 0x1F LT PUSH3 0x146 JUMPI DUP1 MLOAD PUSH1 0xFF NOT AND DUP4 DUP1 ADD OR DUP6 SSTORE PUSH3 0x177 JUMP JUMPDEST DUP3 DUP1 ADD PUSH1 0x1 ADD DUP6 SSTORE DUP3 ISZERO PUSH3 0x177 JUMPI SWAP2 DUP3 ADD JUMPDEST DUP3 DUP2 GT ISZERO PUSH3 0x176 JUMPI DUP3 MLOAD DUP3 SSTORE SWAP2 PUSH1 0x20 ADD SWAP2 SWAP1 PUSH1 0x1 ADD SWAP1 PUSH3 0x159 JUMP JUMPDEST JUMPDEST POP SWAP1 POP PUSH3 0x186 SWAP2 SWAP1 PUSH3 0x18A JUMP JUMPDEST POP SWAP1 JUMP JUMPDEST JUMPDEST DUP1 DUP3 GT ISZERO PUSH3 0x1A5 JUMPI PUSH1 0x0 DUP2 PUSH1 0x0 SWAP1 SSTORE POP PUSH1 0x1 ADD PUSH3 0x18B JUMP JUMPDEST POP SWAP1 JUMP JUMPDEST PUSH1 0x0 PUSH1 0x2 DUP3 DIV SWAP1 POP PUSH1 0x1 DUP3 AND DUP1 PUSH3 0x1C2 JUMPI PUSH1 0x7F DUP3 AND SWAP2 POP JUMPDEST PUSH1 0x20 DUP3 LT DUP2 EQ ISZERO PUSH3 0x1D9 JUMPI PUSH3 0x1D8 PUSH3 0x1DF JUMP JUMPDEST JUMPDEST POP SWAP2 SWAP1 POP JUMP JUMPDEST PUSH32 0x4E487B7100000000000000000000000000000000000000000000000000000000 PUSH1 0x0 MSTORE PUSH1 0x22 PUSH1 0x4 MSTORE PUSH1 0x24 PUSH1 0x0 REVERT JUMPDEST PUSH2 0x3847 DUP1 PUSH3 0x21E PUSH1 0x0 CODECOPY PUSH1 0x0 RETURN INVALID PUSH1 0x80 PUSH1 0x40 MSTORE CALLVALUE DUP1 ISZERO PUSH2 0x10 JUMPI PUSH1 0x0 DUP1 REVERT JUMPDEST POP PUSH1 0x4 CALLDATASIZE LT PUSH2 0xA9 JUMPI PUSH1 0x0 CALLDATALOAD PUSH1 0xE0 SHR DUP1 PUSH4 0x5C230EEE GT PUSH2 0x71 JUMPI DUP1 PUSH4 0x5C230EEE EQ PUSH2 0x15A JUMPI DUP1 PUSH4 0x70A08231 EQ PUSH2 0x176 JUMPI DUP1 PUSH4 0x95D89B41 EQ PUSH2 0x1A6 JUMPI DUP1 PUSH4 0x9D671564 EQ PUSH2 0x1C4 JUMPI DUP1 PUSH4 0xAB9C70D4 EQ PUSH2 0x1F4 JUMPI DUP1 PUSH4 0xE745D68E EQ PUSH2 0x227 JUMPI PUSH2 0xA9 JUMP JUMPDEST DUP1 PUSH4 0x13CF08B EQ PUSH2 0xAE JUMPI DUP1 PUSH4 0x6FDDE03 EQ PUSH2 0xE4 JUMPI DUP1 PUSH4 0x18160DDD EQ PUSH2 0x102 JUMPI DUP1 PUSH4 0x313CE567 EQ PUSH2 0x120 JUMPI DUP1 PUSH4 0x4DE77E48 EQ PUSH2 0x13E JUMPI JUMPDEST PUSH1 0x0 DUP1 REVERT JUMPDEST PUSH2 0xC8 PUSH1 0x4 DUP1 CALLDATASIZE SUB DUP2 ADD SWAP1 PUSH2 0xC3 SWAP2 SWAP1 PUSH2 0x2193 JUMP JUMPDEST PUSH2 0x258 JUMP JUMPDEST PUSH1 0x40 MLOAD PUSH2 0xDB SWAP8 SWAP7 SWAP6 SWAP5 SWAP4 SWAP3 SWAP2 SWAP1 PUSH2 0x28F3 JUMP JUMPDEST PUSH1 0x40 MLOAD DUP1 SWAP2 SUB SWAP1 RETURN JUMPDEST PUSH2 0xEC PUSH2 0x35D JUMP JUMPDEST PUSH1 0x40 MLOAD PUSH2 0xF9 SWAP2 SWAP1 PUSH2 0x2969 JUMP JUMPDEST PUSH1 0x40 MLOAD DUP1 SWAP2 SUB SWAP1 RETURN JUMPDEST PUSH2 0x10A PUSH2 0x3EF JUMP JUMPDEST PUSH1 0x40 MLOAD PUSH2 0x117 SWAP2 SWAP1 PUSH2 0x2C4C JUMP JUMPDEST PUSH1 0x40 MLOAD DUP1 SWAP2 SUB SWAP1 RETURN JUMPDEST PUSH2 0x128 PUSH2 0x3F9 JUMP JUMPDEST PUSH1 0x40 MLOAD PUSH2 0x135 SWAP2 SWAP1 PUSH2 0x2D32 JUMP JUMPDEST PUSH1 0x40 MLOAD DUP1 SWAP2 SUB SWAP1 RETURN JUMPDEST PUSH2 0x158 PUSH1 0x4 DUP1 CALLDATASIZE SUB DUP2 ADD SWAP1 PUSH2 0x153 SWAP2 SWAP1 PUSH2 0x225F JUMP JUMPDEST PUSH2 0x402 JUMP JUMPDEST STOP JUMPDEST PUSH2 0x174 PUSH1 0x4 DUP1 CALLDATASIZE SUB DUP2 ADD SWAP1 PUSH2 0x16F SWAP2 SWAP1 PUSH2 0x21C0 JUMP JUMPDEST PUSH2 0x72C JUMP JUMPDEST STOP JUMPDEST PUSH2 0x190 PUSH1 0x4 DUP1 CALLDATASIZE SUB DUP2 ADD SWAP1 PUSH2 0x18B SWAP2 SWAP1 PUSH2 0x2126 JUMP JUMPDEST PUSH2 0xBF5 JUMP JUMPDEST PUSH1 0x40 MLOAD PUSH2 0x19D SWAP2 SWAP1 PUSH2 0x2C4C JUMP JUMPDEST PUSH1 0x40 MLOAD DUP1 SWAP2 SUB SWAP1 RETURN JUMPDEST PUSH2 0x1AE PUSH2 0xC3D JUMP JUMPDEST PUSH1 0x40 MLOAD PUSH2 0x1BB SWAP2 SWAP1 PUSH2 0x2969 JUMP JUMPDEST PUSH1 0x40 MLOAD DUP1 SWAP2 SUB SWAP1 RETURN JUMPDEST PUSH2 0x1DE PUSH1 0x4 DUP1 CALLDATASIZE SUB DUP2 ADD SWAP1 PUSH2 0x1D9 SWAP2 SWAP1 PUSH2 0x2193 JUMP JUMPDEST PUSH2 0xCCF JUMP JUMPDEST PUSH1 0x40 MLOAD PUSH2 0x1EB SWAP2 SWAP1 PUSH2 0x2969 JUMP JUMPDEST PUSH1 0x40 MLOAD DUP1 SWAP2 SUB SWAP1 RETURN JUMPDEST PUSH2 0x20E PUSH1 0x4 DUP1 CALLDATASIZE SUB DUP2 ADD SWAP1 PUSH2 0x209 SWAP2 SWAP1 PUSH2 0x2153 JUMP JUMPDEST PUSH2 0xDE9 JUMP JUMPDEST PUSH1 0x40 MLOAD PUSH2 0x21E SWAP5 SWAP4 SWAP3 SWAP2 SWAP1 PUSH2 0x2C67 JUMP JUMPDEST PUSH1 0x40 MLOAD DUP1 SWAP2 SUB SWAP1 RETURN JUMPDEST PUSH2 0x241 PUSH1 0x4 DUP1 CALLDATASIZE SUB DUP2 ADD SWAP1 PUSH2 0x23C SWAP2 SWAP1 PUSH2 0x2126 JUMP JUMPDEST PUSH2 0xE53 JUMP JUMPDEST PUSH1 0x40 MLOAD PUSH2 0x24F SWAP3 SWAP2 SWAP1 PUSH2 0x2C23 JUMP JUMPDEST PUSH1 0x40 MLOAD DUP1 SWAP2 SUB SWAP1 RETURN JUMPDEST PUSH1 0x7 PUSH1 0x20 MSTORE DUP1 PUSH1 0x0 MSTORE PUSH1 0x40 PUSH1 0x0 KECCAK256 PUSH1 0x0 SWAP2 POP SWAP1 POP DUP1 PUSH1 0x0 ADD PUSH1 0x0 SWAP1 SLOAD SWAP1 PUSH2 0x100 EXP SWAP1 DIV PUSH20 0xFFFFFFFFFFFFFFFFFFFFFFFFFFFFFFFFFFFFFFFF AND SWAP1 DUP1 PUSH1 0x0 ADD PUSH1 0x14 SWAP1 SLOAD SWAP1 PUSH2 0x100 EXP SWAP1 DIV PUSH1 0xFF AND SWAP1 DUP1 PUSH1 0x1 ADD DUP1 SLOAD PUSH2 0x2B4 SWAP1 PUSH2 0x3178 JUMP JUMPDEST DUP1 PUSH1 0x1F ADD PUSH1 0x20 DUP1 SWAP2 DIV MUL PUSH1 0x20 ADD PUSH1 0x40 MLOAD SWAP1 DUP2 ADD PUSH1 0x40 MSTORE DUP1 SWAP3 SWAP2 SWAP1 DUP2 DUP2 MSTORE PUSH1 0x20 ADD DUP3 DUP1 SLOAD PUSH2 0x2E0 SWAP1 PUSH2 0x3178 JUMP JUMPDEST DUP1 ISZERO PUSH2 0x32D JUMPI DUP1 PUSH1 0x1F LT PUSH2 0x302 JUMPI PUSH2 0x100 DUP1 DUP4 SLOAD DIV MUL DUP4 MSTORE SWAP2 PUSH1 0x20 ADD SWAP2 PUSH2 0x32D JUMP JUMPDEST DUP3 ADD SWAP2 SWAP1 PUSH1 0x0 MSTORE PUSH1 0x20 PUSH1 0x0 KECCAK256 SWAP1 JUMPDEST DUP2 SLOAD DUP2 MSTORE SWAP1 PUSH1 0x1 ADD SWAP1 PUSH1 0x20 ADD DUP1 DUP4 GT PUSH2 0x310 JUMPI DUP3 SWAP1 SUB PUSH1 0x1F AND DUP3 ADD SWAP2 JUMPDEST POP POP POP POP POP SWAP1 DUP1 PUSH1 0x2 ADD SLOAD SWAP1 DUP1 PUSH1 0x3 ADD SLOAD SWAP1 DUP1 PUSH1 0x4 ADD PUSH1 0x0 SWAP1 SLOAD SWAP1 PUSH2 0x100 EXP SWAP1 DIV PUSH2 0xFFFF AND SWAP1 DUP1 PUSH1 0x5 ADD SLOAD SWAP1 POP DUP8 JUMP JUMPDEST PUSH1 0x60 PUSH1 0x2 DUP1 SLOAD PUSH2 0x36C SWAP1 PUSH2 0x3178 JUMP JUMPDEST DUP1 PUSH1 0x1F ADD PUSH1 0x20 DUP1 SWAP2 DIV MUL PUSH1 0x20 ADD PUSH1 0x40 MLOAD SWAP1 DUP2 ADD PUSH1 0x40 MSTORE DUP1 SWAP3 SWAP2 SWAP1 DUP2 DUP2 MSTORE PUSH1 0x20 ADD DUP3 DUP1 SLOAD PUSH2 0x398 SWAP1 PUSH2 0x3178 JUMP JUMPDEST DUP1 ISZERO PUSH2 0x3E5 JUMPI DUP1 PUSH1 0x1F LT PUSH2 0x3BA JUMPI PUSH2 0x100 DUP1 DUP4 SLOAD DIV MUL DUP4 MSTORE SWAP2 PUSH1 0x20 ADD SWAP2 PUSH2 0x3E5 JUMP JUMPDEST DUP3 ADD SWAP2 SWAP1 PUSH1 0x0 MSTORE PUSH1 0x20 PUSH1 0x0 KECCAK256 SWAP1 JUMPDEST DUP2 SLOAD DUP2 MSTORE SWAP1 PUSH1 0x1 ADD SWAP1 PUSH1 0x20 ADD DUP1 DUP4 GT PUSH2 0x3C8 JUMPI DUP3 SWAP1 SUB PUSH1 0x1F AND DUP3 ADD SWAP2 JUMPDEST POP POP POP POP POP SWAP1 POP SWAP1 JUMP JUMPDEST PUSH1 0x0 PUSH1 0x1 SLOAD SWAP1 POP SWAP1 JUMP JUMPDEST PUSH1 0x0 PUSH1 0x12 SWAP1 POP SWAP1 JUMP JUMPDEST DUP6 TIMESTAMP LT PUSH2 0x444 JUMPI PUSH1 0x40 MLOAD PUSH32 0x8C379A000000000000000000000000000000000000000000000000000000000 DUP2 MSTORE PUSH1 0x4 ADD PUSH2 0x43B SWAP1 PUSH2 0x2A6B JUMP JUMPDEST PUSH1 0x40 MLOAD DUP1 SWAP2 SUB SWAP1 REVERT JUMPDEST DUP5 TIMESTAMP LT PUSH2 0x486 JUMPI PUSH1 0x40 MLOAD PUSH32 0x8C379A000000000000000000000000000000000000000000000000000000000 DUP2 MSTORE PUSH1 0x4 ADD PUSH2 0x47D SWAP1 PUSH2 0x29AB JUMP JUMPDEST PUSH1 0x40 MLOAD DUP1 SWAP2 SUB SWAP1 REVERT JUMPDEST DUP5 DUP7 LT PUSH2 0x4C8 JUMPI PUSH1 0x40 MLOAD PUSH32 0x8C379A000000000000000000000000000000000000000000000000000000000 DUP2 MSTORE PUSH1 0x4 ADD PUSH2 0x4BF SWAP1 PUSH2 0x2AEB JUMP JUMPDEST PUSH1 0x40 MLOAD DUP1 SWAP2 SUB SWAP1 REVERT JUMPDEST PUSH1 0x5 PUSH1 0x0 DUP2 SLOAD DUP1 SWAP3 SWAP2 SWAP1 PUSH2 0x4DB SWAP1 PUSH2 0x323F JUMP JUMPDEST SWAP2 SWAP1 POP SSTORE POP PUSH2 0x517 DUP10 DUP10 DUP10 DUP10 DUP10 DUP10 DUP8 DUP11 DUP11 PUSH1 0x7 PUSH1 0x0 PUSH1 0x5 SLOAD DUP2 MSTORE PUSH1 0x20 ADD SWAP1 DUP2 MSTORE PUSH1 0x20 ADD PUSH1 0x0 KECCAK256 PUSH2 0xEAF SWAP1 SWAP10 SWAP9 SWAP8 SWAP7 SWAP6 SWAP5 SWAP4 SWAP3 SWAP2 SWAP1 PUSH4 0xFFFFFFFF AND JUMP JUMPDEST POP PUSH32 0x239A8A71A7D1CB0D134F6CC072AD6390E36A88C8E78DFF69013EE79528441E80 PUSH1 0x5 SLOAD DUP10 DUP10 DUP10 DUP10 DUP10 DUP10 DUP10 PUSH1 0x40 MLOAD PUSH2 0x557 SWAP9 SWAP8 SWAP7 SWAP6 SWAP5 SWAP4 SWAP3 SWAP2 SWAP1 PUSH2 0x2CAC JUMP JUMPDEST PUSH1 0x40 MLOAD DUP1 SWAP2 SUB SWAP1 LOG1 PUSH1 0x1 PUSH1 0x9 PUSH1 0x0 PUSH1 0x5 SLOAD DUP2 MSTORE PUSH1 0x20 ADD SWAP1 DUP2 MSTORE PUSH1 0x20 ADD PUSH1 0x0 KECCAK256 PUSH1 0x0 PUSH2 0x100 EXP DUP2 SLOAD DUP2 PUSH1 0xFF MUL NOT AND SWAP1 DUP4 ISZERO ISZERO MUL OR SWAP1 SSTORE POP PUSH1 0x0 JUMPDEST DUP9 MLOAD DUP2 LT ISZERO PUSH2 0x6C5 JUMPI PUSH2 0x5BD DUP10 DUP3 DUP2 MLOAD DUP2 LT PUSH2 0x5AF JUMPI PUSH2 0x5AE PUSH2 0x32E6 JUMP JUMPDEST JUMPDEST PUSH1 0x20 MUL PUSH1 0x20 ADD ADD MLOAD DUP4 PUSH2 0x10E1 JUMP JUMPDEST PUSH2 0x65E PUSH1 0x5 SLOAD DUP11 DUP4 DUP2 MLOAD DUP2 LT PUSH2 0x5D6 JUMPI PUSH2 0x5D5 PUSH2 0x32E6 JUMP JUMPDEST JUMPDEST PUSH1 0x20 MUL PUSH1 0x20 ADD ADD MLOAD PUSH1 0x0 DUP6 PUSH1 0x8 PUSH1 0x0 DUP16 DUP9 DUP2 MLOAD DUP2 LT PUSH2 0x5F8 JUMPI PUSH2 0x5F7 PUSH2 0x32E6 JUMP JUMPDEST JUMPDEST PUSH1 0x20 MUL PUSH1 0x20 ADD ADD MLOAD PUSH20 0xFFFFFFFFFFFFFFFFFFFFFFFFFFFFFFFFFFFFFFFF AND PUSH20 0xFFFFFFFFFFFFFFFFFFFFFFFFFFFFFFFFFFFFFFFF AND DUP2 MSTORE PUSH1 0x20 ADD SWAP1 DUP2 MSTORE PUSH1 0x20 ADD PUSH1 0x0 KECCAK256 PUSH1 0x0 PUSH1 0x5 SLOAD DUP2 MSTORE PUSH1 0x20 ADD SWAP1 DUP2 MSTORE PUSH1 0x20 ADD PUSH1 0x0 KECCAK256 PUSH2 0x1152 SWAP1 SWAP5 SWAP4 SWAP3 SWAP2 SWAP1 PUSH4 0xFFFFFFFF AND JUMP JUMPDEST POP PUSH32 0xABF5327BE9F5825C40D58BDA541DD07F09B62DF3376BBD5ECDBAA8BD82A9D492 DUP10 DUP3 DUP2 MLOAD DUP2 LT PUSH2 0x693 JUMPI PUSH2 0x692 PUSH2 0x32E6 JUMP JUMPDEST JUMPDEST PUSH1 0x20 MUL PUSH1 0x20 ADD ADD MLOAD DUP4 PUSH1 0x40 MLOAD PUSH2 0x6AA SWAP3 SWAP2 SWAP1 PUSH2 0x2B4B JUMP JUMPDEST PUSH1 0x40 MLOAD DUP1 SWAP2 SUB SWAP1 LOG1 DUP1 DUP1 PUSH2 0x6BD SWAP1 PUSH2 0x323F JUMP JUMPDEST SWAP2 POP POP PUSH2 0x590 JUMP JUMPDEST POP PUSH2 0x720 PUSH1 0x5 SLOAD PUSH1 0x6 PUSH1 0x0 PUSH2 0x6D8 PUSH2 0x11D2 JUMP JUMPDEST PUSH20 0xFFFFFFFFFFFFFFFFFFFFFFFFFFFFFFFFFFFFFFFF AND PUSH20 0xFFFFFFFFFFFFFFFFFFFFFFFFFFFFFFFFFFFFFFFF AND DUP2 MSTORE PUSH1 0x20 ADD SWAP1 DUP2 MSTORE PUSH1 0x20 ADD PUSH1 0x0 KECCAK256 PUSH2 0x11DA SWAP1 SWAP2 SWAP1 PUSH4 0xFFFFFFFF AND JUMP JUMPDEST POP POP POP POP POP POP POP POP POP POP JUMP JUMPDEST PUSH1 0x9 PUSH1 0x0 DUP6 DUP2 MSTORE PUSH1 0x20 ADD SWAP1 DUP2 MSTORE PUSH1 0x20 ADD PUSH1 0x0 KECCAK256 PUSH1 0x0 SWAP1 SLOAD SWAP1 PUSH2 0x100 EXP SWAP1 DIV PUSH1 0xFF AND PUSH2 0x78C JUMPI PUSH1 0x40 MLOAD PUSH32 0x8C379A000000000000000000000000000000000000000000000000000000000 DUP2 MSTORE PUSH1 0x4 ADD PUSH2 0x783 SWAP1 PUSH2 0x2AAB JUMP JUMPDEST PUSH1 0x40 MLOAD DUP1 SWAP2 SUB SWAP1 REVERT JUMPDEST DUP4 PUSH1 0x8 PUSH1 0x0 DUP6 PUSH20 0xFFFFFFFFFFFFFFFFFFFFFFFFFFFFFFFFFFFFFFFF AND PUSH20 0xFFFFFFFFFFFFFFFFFFFFFFFFFFFFFFFFFFFFFFFF AND DUP2 MSTORE PUSH1 0x20 ADD SWAP1 DUP2 MSTORE PUSH1 0x20 ADD PUSH1 0x0 KECCAK256 PUSH1 0x0 DUP7 DUP2 MSTORE PUSH1 0x20 ADD SWAP1 DUP2 MSTORE PUSH1 0x20 ADD PUSH1 0x0 KECCAK256 PUSH1 0x0 ADD SLOAD EQ PUSH2 0x821 JUMPI PUSH1 0x40 MLOAD PUSH32 0x8C379A000000000000000000000000000000000000000000000000000000000 DUP2 MSTORE PUSH1 0x4 ADD PUSH2 0x818 SWAP1 PUSH2 0x2A4B JUMP JUMPDEST PUSH1 0x40 MLOAD DUP1 SWAP2 SUB SWAP1 REVERT JUMPDEST PUSH1 0x8 PUSH1 0x0 DUP5 PUSH20 0xFFFFFFFFFFFFFFFFFFFFFFFFFFFFFFFFFFFFFFFF AND PUSH20 0xFFFFFFFFFFFFFFFFFFFFFFFFFFFFFFFFFFFFFFFF AND DUP2 MSTORE PUSH1 0x20 ADD SWAP1 DUP2 MSTORE PUSH1 0x20 ADD PUSH1 0x0 KECCAK256 PUSH1 0x0 DUP6 DUP2 MSTORE PUSH1 0x20 ADD SWAP1 DUP2 MSTORE PUSH1 0x20 ADD PUSH1 0x0 KECCAK256 PUSH1 0x1 ADD PUSH1 0x14 SWAP1 SLOAD SWAP1 PUSH2 0x100 EXP SWAP1 DIV PUSH1 0xFF AND ISZERO PUSH2 0x8C2 JUMPI PUSH1 0x40 MLOAD PUSH32 0x8C379A000000000000000000000000000000000000000000000000000000000 DUP2 MSTORE PUSH1 0x4 ADD PUSH2 0x8B9 SWAP1 PUSH2 0x29EB JUMP JUMPDEST PUSH1 0x40 MLOAD DUP1 SWAP2 SUB SWAP1 REVERT JUMPDEST DUP2 MLOAD PUSH1 0x7 PUSH1 0x0 DUP7 DUP2 MSTORE PUSH1 0x20 ADD SWAP1 DUP2 MSTORE PUSH1 0x20 ADD PUSH1 0x0 KECCAK256 PUSH1 0x4 ADD PUSH1 0x0 SWAP1 SLOAD SWAP1 PUSH2 0x100 EXP SWAP1 DIV PUSH2 0xFFFF AND PUSH2 0xFFFF AND EQ PUSH2 0x92D JUMPI PUSH1 0x40 MLOAD PUSH32 0x8C379A000000000000000000000000000000000000000000000000000000000 DUP2 MSTORE PUSH1 0x4 ADD PUSH2 0x924 SWAP1 PUSH2 0x2B2B JUMP JUMPDEST PUSH1 0x40 MLOAD DUP1 SWAP2 SUB SWAP1 REVERT JUMPDEST PUSH1 0x0 DUP1 JUMPDEST DUP3 MLOAD DUP2 LT ISZERO PUSH2 0x99A JUMPI DUP3 DUP2 DUP2 MLOAD DUP2 LT PUSH2 0x94D JUMPI PUSH2 0x94C PUSH2 0x32E6 JUMP JUMPDEST JUMPDEST PUSH1 0x20 MUL PUSH1 0x20 ADD ADD MLOAD DUP4 DUP3 DUP2 MLOAD DUP2 LT PUSH2 0x968 JUMPI PUSH2 0x967 PUSH2 0x32E6 JUMP JUMPDEST JUMPDEST PUSH1 0x20 MUL PUSH1 0x20 ADD ADD MLOAD PUSH2 0x97A SWAP2 SWAP1 PUSH2 0x3029 JUMP JUMPDEST DUP3 PUSH2 0x985 SWAP2 SWAP1 PUSH2 0x2FD3 JUMP JUMPDEST SWAP2 POP DUP1 DUP1 PUSH2 0x992 SWAP1 PUSH2 0x323F JUMP JUMPDEST SWAP2 POP POP PUSH2 0x931 JUMP JUMPDEST POP DUP1 PUSH1 0x8 PUSH1 0x0 DUP7 PUSH20 0xFFFFFFFFFFFFFFFFFFFFFFFFFFFFFFFFFFFFFFFF AND PUSH20 0xFFFFFFFFFFFFFFFFFFFFFFFFFFFFFFFFFFFFFFFF AND DUP2 MSTORE PUSH1 0x20 ADD SWAP1 DUP2 MSTORE PUSH1 0x20 ADD PUSH1 0x0 KECCAK256 PUSH1 0x0 DUP8 DUP2 MSTORE PUSH1 0x20 ADD SWAP1 DUP2 MSTORE PUSH1 0x20 ADD PUSH1 0x0 KECCAK256 PUSH1 0x2 ADD SLOAD LT ISZERO PUSH2 0xA31 JUMPI PUSH1 0x40 MLOAD PUSH32 0x8C379A000000000000000000000000000000000000000000000000000000000 DUP2 MSTORE PUSH1 0x4 ADD PUSH2 0xA28 SWAP1 PUSH2 0x2ACB JUMP JUMPDEST PUSH1 0x40 MLOAD DUP1 SWAP2 SUB SWAP1 REVERT JUMPDEST PUSH2 0xA5A DUP5 DUP5 DUP5 PUSH1 0x7 PUSH1 0x0 DUP11 DUP2 MSTORE PUSH1 0x20 ADD SWAP1 DUP2 MSTORE PUSH1 0x20 ADD PUSH1 0x0 KECCAK256 PUSH2 0x12AB SWAP1 SWAP4 SWAP3 SWAP2 SWAP1 PUSH4 0xFFFFFFFF AND JUMP JUMPDEST POP PUSH2 0xAB5 DUP6 DUP5 PUSH1 0x6 PUSH1 0x0 PUSH2 0xA6C PUSH2 0x11D2 JUMP JUMPDEST PUSH20 0xFFFFFFFFFFFFFFFFFFFFFFFFFFFFFFFFFFFFFFFF AND PUSH20 0xFFFFFFFFFFFFFFFFFFFFFFFFFFFFFFFFFFFFFFFF AND DUP2 MSTORE PUSH1 0x20 ADD SWAP1 DUP2 MSTORE PUSH1 0x20 ADD PUSH1 0x0 KECCAK256 PUSH2 0x171A SWAP1 SWAP3 SWAP2 SWAP1 PUSH4 0xFFFFFFFF AND JUMP JUMPDEST POP PUSH2 0xB0E PUSH1 0x8 PUSH1 0x0 DUP7 PUSH20 0xFFFFFFFFFFFFFFFFFFFFFFFFFFFFFFFFFFFFFFFF AND PUSH20 0xFFFFFFFFFFFFFFFFFFFFFFFFFFFFFFFFFFFFFFFF AND DUP2 MSTORE PUSH1 0x20 ADD SWAP1 DUP2 MSTORE PUSH1 0x20 ADD PUSH1 0x0 KECCAK256 PUSH1 0x0 DUP8 DUP2 MSTORE PUSH1 0x20 ADD SWAP1 DUP2 MSTORE PUSH1 0x20 ADD PUSH1 0x0 KECCAK256 PUSH2 0x18A7 JUMP JUMPDEST POP PUSH1 0x1 PUSH1 0x8 PUSH1 0x0 DUP7 PUSH20 0xFFFFFFFFFFFFFFFFFFFFFFFFFFFFFFFFFFFFFFFF AND PUSH20 0xFFFFFFFFFFFFFFFFFFFFFFFFFFFFFFFFFFFFFFFF AND DUP2 MSTORE PUSH1 0x20 ADD SWAP1 DUP2 MSTORE PUSH1 0x20 ADD PUSH1 0x0 KECCAK256 PUSH1 0x0 DUP8 DUP2 MSTORE PUSH1 0x20 ADD SWAP1 DUP2 MSTORE PUSH1 0x20 ADD PUSH1 0x0 KECCAK256 PUSH1 0x1 ADD PUSH1 0x14 PUSH2 0x100 EXP DUP2 SLOAD DUP2 PUSH1 0xFF MUL NOT AND SWAP1 DUP4 ISZERO ISZERO MUL OR SWAP1 SSTORE POP PUSH2 0xB9D DUP5 PUSH1 0x7 PUSH1 0x0 PUSH1 0x5 SLOAD DUP2 MSTORE PUSH1 0x20 ADD SWAP1 DUP2 MSTORE PUSH1 0x20 ADD PUSH1 0x0 KECCAK256 PUSH1 0x5 ADD SLOAD PUSH2 0x1955 JUMP JUMPDEST PUSH32 0xABF5327BE9F5825C40D58BDA541DD07F09B62DF3376BBD5ECDBAA8BD82A9D492 DUP5 PUSH1 0x7 PUSH1 0x0 PUSH1 0x5 SLOAD DUP2 MSTORE PUSH1 0x20 ADD SWAP1 DUP2 MSTORE PUSH1 0x20 ADD PUSH1 0x0 KECCAK256 PUSH1 0x5 ADD SLOAD PUSH1 0x40 MLOAD PUSH2 0xBE6 SWAP3 SWAP2 SWAP1 PUSH2 0x2BA7 JUMP JUMPDEST PUSH1 0x40 MLOAD DUP1 SWAP2 SUB SWAP1 LOG1 POP POP POP POP POP JUMP JUMPDEST PUSH1 0x0 DUP1 PUSH1 0x0 DUP4 PUSH20 0xFFFFFFFFFFFFFFFFFFFFFFFFFFFFFFFFFFFFFFFF AND PUSH20 0xFFFFFFFFFFFFFFFFFFFFFFFFFFFFFFFFFFFFFFFF AND DUP2 MSTORE PUSH1 0x20 ADD SWAP1 DUP2 MSTORE PUSH1 0x20 ADD PUSH1 0x0 KECCAK256 SLOAD SWAP1 POP SWAP2 SWAP1 POP JUMP JUMPDEST PUSH1 0x60 PUSH1 0x3 DUP1 SLOAD PUSH2 0xC4C SWAP1 PUSH2 0x3178 JUMP JUMPDEST DUP1 PUSH1 0x1F ADD PUSH1 0x20 DUP1 SWAP2 DIV MUL PUSH1 0x20 ADD PUSH1 0x40 MLOAD SWAP1 DUP2 ADD PUSH1 0x40 MSTORE DUP1 SWAP3 SWAP2 SWAP1 DUP2 DUP2 MSTORE PUSH1 0x20 ADD DUP3 DUP1 SLOAD PUSH2 0xC78 SWAP1 PUSH2 0x3178 JUMP JUMPDEST DUP1 ISZERO PUSH2 0xCC5 JUMPI DUP1 PUSH1 0x1F LT PUSH2 0xC9A JUMPI PUSH2 0x100 DUP1 DUP4 SLOAD DIV MUL DUP4 MSTORE SWAP2 PUSH1 0x20 ADD SWAP2 PUSH2 0xCC5 JUMP JUMPDEST DUP3 ADD SWAP2 SWAP1 PUSH1 0x0 MSTORE PUSH1 0x20 PUSH1 0x0 KECCAK256 SWAP1 JUMPDEST DUP2 SLOAD DUP2 MSTORE SWAP1 PUSH1 0x1 ADD SWAP1 PUSH1 0x20 ADD DUP1 DUP4 GT PUSH2 0xCA8 JUMPI DUP3 SWAP1 SUB PUSH1 0x1F AND DUP3 ADD SWAP2 JUMPDEST POP POP POP POP POP SWAP1 POP SWAP1 JUMP JUMPDEST PUSH1 0x60 PUSH1 0x9 PUSH1 0x0 DUP4 DUP2 MSTORE PUSH1 0x20 ADD SWAP1 DUP2 MSTORE PUSH1 0x20 ADD PUSH1 0x0 KECCAK256 PUSH1 0x0 SWAP1 SLOAD SWAP1 PUSH2 0x100 EXP SWAP1 DIV PUSH1 0xFF AND PUSH2 0xD31 JUMPI PUSH1 0x40 MLOAD PUSH32 0x8C379A000000000000000000000000000000000000000000000000000000000 DUP2 MSTORE PUSH1 0x4 ADD PUSH2 0xD28 SWAP1 PUSH2 0x2A2B JUMP JUMPDEST PUSH1 0x40 MLOAD DUP1 SWAP2 SUB SWAP1 REVERT JUMPDEST PUSH1 0x7 PUSH1 0x0 DUP4 DUP2 MSTORE PUSH1 0x20 ADD SWAP1 DUP2 MSTORE PUSH1 0x20 ADD PUSH1 0x0 KECCAK256 PUSH1 0x9 ADD PUSH1 0x0 PUSH1 0x1 DUP2 MSTORE PUSH1 0x20 ADD SWAP1 DUP2 MSTORE PUSH1 0x20 ADD PUSH1 0x0 KECCAK256 DUP1 SLOAD PUSH2 0xD64 SWAP1 PUSH2 0x3178 JUMP JUMPDEST DUP1 PUSH1 0x1F ADD PUSH1 0x20 DUP1 SWAP2 DIV MUL PUSH1 0x20 ADD PUSH1 0x40 MLOAD SWAP1 DUP2 ADD PUSH1 0x40 MSTORE DUP1 SWAP3 SWAP2 SWAP1 DUP2 DUP2 MSTORE PUSH1 0x20 ADD DUP3 DUP1 SLOAD PUSH2 0xD90 SWAP1 PUSH2 0x3178 JUMP JUMPDEST DUP1 ISZERO PUSH2 0xDDD JUMPI DUP1 PUSH1 0x1F LT PUSH2 0xDB2 JUMPI PUSH2 0x100 DUP1 DUP4 SLOAD DIV MUL DUP4 MSTORE SWAP2 PUSH1 0x20 ADD SWAP2 PUSH2 0xDDD JUMP JUMPDEST DUP3 ADD SWAP2 SWAP1 PUSH1 0x0 MSTORE PUSH1 0x20 PUSH1 0x0 KECCAK256 SWAP1 JUMPDEST DUP2 SLOAD DUP2 MSTORE SWAP1 PUSH1 0x1 ADD SWAP1 PUSH1 0x20 ADD DUP1 DUP4 GT PUSH2 0xDC0 JUMPI DUP3 SWAP1 SUB PUSH1 0x1F AND DUP3 ADD SWAP2 JUMPDEST POP POP POP POP POP SWAP1 POP SWAP2 SWAP1 POP JUMP JUMPDEST PUSH1 0x8 PUSH1 0x20 MSTORE DUP2 PUSH1 0x0 MSTORE PUSH1 0x40 PUSH1 0x0 KECCAK256 PUSH1 0x20 MSTORE DUP1 PUSH1 0x0 MSTORE PUSH1 0x40 PUSH1 0x0 KECCAK256 PUSH1 0x0 SWAP2 POP SWAP2 POP POP DUP1 PUSH1 0x0 ADD SLOAD SWAP1 DUP1 PUSH1 0x1 ADD PUSH1 0x0 SWAP1 SLOAD SWAP1 PUSH2 0x100 EXP SWAP1 DIV PUSH20 0xFFFFFFFFFFFFFFFFFFFFFFFFFFFFFFFFFFFFFFFF AND SWAP1 DUP1 PUSH1 0x1 ADD PUSH1 0x14 SWAP1 SLOAD SWAP1 PUSH2 0x100 EXP SWAP1 DIV PUSH1 0xFF AND SWAP1 DUP1 PUSH1 0x2 ADD SLOAD SWAP1 POP DUP5 JUMP JUMPDEST PUSH1 0x6 PUSH1 0x20 MSTORE DUP1 PUSH1 0x0 MSTORE PUSH1 0x40 PUSH1 0x0 KECCAK256 PUSH1 0x0 SWAP2 POP SWAP1 POP DUP1 PUSH1 0x0 ADD PUSH1 0x0 SWAP1 SLOAD SWAP1 PUSH2 0x100 EXP SWAP1 DIV PUSH16 0xFFFFFFFFFFFFFFFFFFFFFFFFFFFFFFFF AND SWAP1 DUP1 PUSH1 0x0 ADD PUSH1 0x10 SWAP1 SLOAD SWAP1 PUSH2 0x100 EXP SWAP1 DIV PUSH16 0xFFFFFFFFFFFFFFFFFFFFFFFFFFFFFFFF AND SWAP1 POP DUP3 JUMP JUMPDEST PUSH1 0x0 DUP8 DUP12 PUSH1 0x0 ADD PUSH1 0x0 PUSH2 0x100 EXP DUP2 SLOAD DUP2 PUSH20 0xFFFFFFFFFFFFFFFFFFFFFFFFFFFFFFFFFFFFFFFF MUL NOT AND SWAP1 DUP4 PUSH20 0xFFFFFFFFFFFFFFFFFFFFFFFFFFFFFFFFFFFFFFFF AND MUL OR SWAP1 SSTORE POP DUP10 DUP12 PUSH1 0x0 ADD PUSH1 0x14 PUSH2 0x100 EXP DUP2 SLOAD DUP2 PUSH1 0xFF MUL NOT AND SWAP1 DUP4 PUSH1 0xFF AND MUL OR SWAP1 SSTORE POP DUP5 DUP12 PUSH1 0x1 ADD SWAP1 DUP1 MLOAD SWAP1 PUSH1 0x20 ADD SWAP1 PUSH2 0xF29 SWAP3 SWAP2 SWAP1 PUSH2 0x1C73 JUMP JUMPDEST POP DUP7 DUP12 PUSH1 0x2 ADD DUP2 SWAP1 SSTORE POP DUP6 DUP12 PUSH1 0x3 ADD DUP2 SWAP1 SSTORE POP DUP3 DUP3 SWAP1 POP DUP12 PUSH1 0x4 ADD PUSH1 0x0 PUSH2 0x100 EXP DUP2 SLOAD DUP2 PUSH2 0xFFFF MUL NOT AND SWAP1 DUP4 PUSH2 0xFFFF AND MUL OR SWAP1 SSTORE POP DUP4 DUP12 PUSH1 0x5 ADD DUP2 SWAP1 SSTORE POP PUSH1 0x0 JUMPDEST DUP4 DUP4 SWAP1 POP DUP2 LT ISZERO PUSH2 0x103A JUMPI PUSH1 0x1 DUP13 PUSH1 0x7 ADD DUP6 DUP6 DUP5 DUP2 DUP2 LT PUSH2 0xF8E JUMPI PUSH2 0xF8D PUSH2 0x32E6 JUMP JUMPDEST JUMPDEST SWAP1 POP PUSH1 0x20 MUL DUP2 ADD SWAP1 PUSH2 0xFA0 SWAP2 SWAP1 PUSH2 0x2D4D JUMP JUMPDEST PUSH1 0x40 MLOAD PUSH2 0xFAE SWAP3 SWAP2 SWAP1 PUSH2 0x28AC JUMP JUMPDEST SWAP1 DUP2 MSTORE PUSH1 0x20 ADD PUSH1 0x40 MLOAD DUP1 SWAP2 SUB SWAP1 KECCAK256 PUSH1 0x0 PUSH2 0x100 EXP DUP2 SLOAD DUP2 PUSH1 0xFF MUL NOT AND SWAP1 DUP4 ISZERO ISZERO MUL OR SWAP1 SSTORE POP DUP4 DUP4 DUP3 DUP2 DUP2 LT PUSH2 0xFE6 JUMPI PUSH2 0xFE5 PUSH2 0x32E6 JUMP JUMPDEST JUMPDEST SWAP1 POP PUSH1 0x20 MUL DUP2 ADD SWAP1 PUSH2 0xFF8 SWAP2 SWAP1 PUSH2 0x2D4D JUMP JUMPDEST DUP14 PUSH1 0x8 ADD PUSH1 0x0 PUSH1 0x1 DUP6 PUSH2 0x100B SWAP2 SWAP1 PUSH2 0x2FD3 JUMP JUMPDEST DUP2 MSTORE PUSH1 0x20 ADD SWAP1 DUP2 MSTORE PUSH1 0x20 ADD PUSH1 0x0 KECCAK256 SWAP2 SWAP1 PUSH2 0x1026 SWAP3 SWAP2 SWAP1 PUSH2 0x1CF9 JUMP JUMPDEST POP DUP1 DUP1 PUSH2 0x1032 SWAP1 PUSH2 0x323F JUMP JUMPDEST SWAP2 POP POP PUSH2 0xF6A JUMP JUMPDEST POP PUSH1 0x0 JUMPDEST DUP10 MLOAD DUP2 LT ISZERO PUSH2 0x10CE JUMPI PUSH1 0x1 DUP13 PUSH1 0x6 ADD PUSH1 0x0 DUP13 DUP5 DUP2 MLOAD DUP2 LT PUSH2 0x1062 JUMPI PUSH2 0x1061 PUSH2 0x32E6 JUMP JUMPDEST JUMPDEST PUSH1 0x20 MUL PUSH1 0x20 ADD ADD MLOAD PUSH20 0xFFFFFFFFFFFFFFFFFFFFFFFFFFFFFFFFFFFFFFFF AND PUSH20 0xFFFFFFFFFFFFFFFFFFFFFFFFFFFFFFFFFFFFFFFF AND DUP2 MSTORE PUSH1 0x20 ADD SWAP1 DUP2 MSTORE PUSH1 0x20 ADD PUSH1 0x0 KECCAK256 PUSH1 0x0 PUSH2 0x100 EXP DUP2 SLOAD DUP2 PUSH1 0xFF MUL NOT AND SWAP1 DUP4 ISZERO ISZERO MUL OR SWAP1 SSTORE POP DUP1 DUP1 PUSH2 0x10C6 SWAP1 PUSH2 0x323F JUMP JUMPDEST SWAP2 POP POP PUSH2 0x103E JUMP JUMPDEST POP PUSH1 0x1 SWAP1 POP SWAP11 SWAP10 POP POP POP POP POP POP POP POP POP POP JUMP JUMPDEST PUSH2 0x10E9 PUSH2 0x11D2 JUMP JUMPDEST DUP1 PUSH20 0xFFFFFFFFFFFFFFFFFFFFFFFFFFFFFFFFFFFFFFFF AND PUSH1 0x4 PUSH1 0x0 SWAP1 SLOAD SWAP1 PUSH2 0x100 EXP SWAP1 DIV PUSH20 0xFFFFFFFFFFFFFFFFFFFFFFFFFFFFFFFFFFFFFFFF AND PUSH20 0xFFFFFFFFFFFFFFFFFFFFFFFFFFFFFFFFFFFFFFFF AND EQ PUSH2 0x1143 JUMPI PUSH1 0x0 DUP1 REVERT JUMPDEST PUSH2 0x114D DUP4 DUP4 PUSH2 0x19C6 JUMP JUMPDEST POP POP POP JUMP JUMPDEST PUSH1 0x0 DUP5 DUP7 PUSH1 0x0 ADD DUP2 SWAP1 SSTORE POP DUP4 DUP7 PUSH1 0x1 ADD PUSH1 0x0 PUSH2 0x100 EXP DUP2 SLOAD DUP2 PUSH20 0xFFFFFFFFFFFFFFFFFFFFFFFFFFFFFFFFFFFFFFFF MUL NOT AND SWAP1 DUP4 PUSH20 0xFFFFFFFFFFFFFFFFFFFFFFFFFFFFFFFFFFFFFFFF AND MUL OR SWAP1 SSTORE POP DUP3 DUP7 PUSH1 0x1 ADD PUSH1 0x14 PUSH2 0x100 EXP DUP2 SLOAD DUP2 PUSH1 0xFF MUL NOT AND SWAP1 DUP4 ISZERO ISZERO MUL OR SWAP1 SSTORE POP DUP2 DUP7 PUSH1 0x2 ADD DUP2 SWAP1 SSTORE POP PUSH1 0x1 SWAP1 POP SWAP6 SWAP5 POP POP POP POP POP JUMP JUMPDEST PUSH1 0x0 CALLER SWAP1 POP SWAP1 JUMP JUMPDEST PUSH1 0x0 DUP3 PUSH1 0x0 ADD PUSH1 0x0 DUP2 DUP2 SWAP1 SLOAD SWAP1 PUSH2 0x100 EXP SWAP1 DIV PUSH16 0xFFFFFFFFFFFFFFFFFFFFFFFFFFFFFFFF AND DUP1 SWAP3 SWAP2 SWAP1 PUSH2 0x120C SWAP1 PUSH2 0x31DB JUMP JUMPDEST SWAP2 SWAP1 PUSH2 0x100 EXP DUP2 SLOAD DUP2 PUSH16 0xFFFFFFFFFFFFFFFFFFFFFFFFFFFFFFFF MUL NOT AND SWAP1 DUP4 PUSH16 0xFFFFFFFFFFFFFFFFFFFFFFFFFFFFFFFF AND MUL OR SWAP1 SSTORE POP POP DUP2 DUP4 PUSH1 0x1 ADD PUSH1 0x0 DUP6 PUSH1 0x0 ADD PUSH1 0x0 SWAP1 SLOAD SWAP1 PUSH2 0x100 EXP SWAP1 DIV PUSH16 0xFFFFFFFFFFFFFFFFFFFFFFFFFFFFFFFF AND PUSH16 0xFFFFFFFFFFFFFFFFFFFFFFFFFFFFFFFF AND PUSH16 0xFFFFFFFFFFFFFFFFFFFFFFFFFFFFFFFF AND DUP2 MSTORE PUSH1 0x20 ADD SWAP1 DUP2 MSTORE PUSH1 0x20 ADD PUSH1 0x0 KECCAK256 DUP2 SWAP1 SSTORE POP PUSH1 0x1 SWAP1 POP SWAP3 SWAP2 POP POP JUMP JUMPDEST PUSH1 0x0 PUSH1 0x2 DUP6 PUSH1 0x0 ADD PUSH1 0x14 SWAP1 SLOAD SWAP1 PUSH2 0x100 EXP SWAP1 DIV PUSH1 0xFF AND PUSH1 0xFF AND EQ PUSH2 0x1304 JUMPI PUSH1 0x40 MLOAD PUSH32 0x8C379A000000000000000000000000000000000000000000000000000000000 DUP2 MSTORE PUSH1 0x4 ADD PUSH2 0x12FB SWAP1 PUSH2 0x298B JUMP JUMPDEST PUSH1 0x40 MLOAD DUP1 SWAP2 SUB SWAP1 REVERT JUMPDEST DUP5 PUSH1 0x3 ADD SLOAD TIMESTAMP GT ISZERO PUSH2 0x155A JUMPI PUSH1 0x2 DUP6 PUSH1 0x0 ADD PUSH1 0x14 PUSH2 0x100 EXP DUP2 SLOAD DUP2 PUSH1 0xFF MUL NOT AND SWAP1 DUP4 PUSH1 0xFF AND MUL OR SWAP1 SSTORE POP PUSH1 0x0 DUP6 PUSH1 0xA ADD DUP7 PUSH1 0x8 ADD PUSH1 0x0 PUSH1 0x1 DUP2 MSTORE PUSH1 0x20 ADD SWAP1 DUP2 MSTORE PUSH1 0x20 ADD PUSH1 0x0 KECCAK256 PUSH1 0x40 MLOAD PUSH2 0x1357 SWAP2 SWAP1 PUSH2 0x28DC JUMP JUMPDEST SWAP1 DUP2 MSTORE PUSH1 0x20 ADD PUSH1 0x40 MLOAD DUP1 SWAP2 SUB SWAP1 KECCAK256 SLOAD SWAP1 POP PUSH1 0x0 PUSH1 0x1 SWAP1 POP DUP7 PUSH1 0x8 ADD PUSH1 0x0 PUSH1 0x1 DUP2 MSTORE PUSH1 0x20 ADD SWAP1 DUP2 MSTORE PUSH1 0x20 ADD PUSH1 0x0 KECCAK256 DUP8 PUSH1 0x9 ADD PUSH1 0x0 PUSH1 0x1 DUP2 MSTORE PUSH1 0x20 ADD SWAP1 DUP2 MSTORE PUSH1 0x20 ADD PUSH1 0x0 KECCAK256 SWAP1 DUP1 SLOAD PUSH2 0x13A6 SWAP1 PUSH2 0x3178 JUMP JUMPDEST PUSH2 0x13B1 SWAP3 SWAP2 SWAP1 PUSH2 0x1D7F JUMP JUMPDEST POP PUSH1 0x0 PUSH1 0x2 SWAP1 POP JUMPDEST DUP8 PUSH1 0x4 ADD PUSH1 0x0 SWAP1 SLOAD SWAP1 PUSH2 0x100 EXP SWAP1 DIV PUSH2 0xFFFF AND PUSH2 0xFFFF AND DUP2 PUSH2 0xFFFF AND GT PUSH2 0x154E JUMPI DUP3 DUP9 PUSH1 0xA ADD DUP10 PUSH1 0x8 ADD PUSH1 0x0 DUP5 PUSH2 0xFFFF AND DUP2 MSTORE PUSH1 0x20 ADD SWAP1 DUP2 MSTORE PUSH1 0x20 ADD PUSH1 0x0 KECCAK256 PUSH1 0x40 MLOAD PUSH2 0x1405 SWAP2 SWAP1 PUSH2 0x28DC JUMP JUMPDEST SWAP1 DUP2 MSTORE PUSH1 0x20 ADD PUSH1 0x40 MLOAD DUP1 SWAP2 SUB SWAP1 KECCAK256 SLOAD GT ISZERO PUSH2 0x14A5 JUMPI DUP8 PUSH1 0xA ADD DUP9 PUSH1 0x8 ADD PUSH1 0x0 DUP4 PUSH2 0xFFFF AND DUP2 MSTORE PUSH1 0x20 ADD SWAP1 DUP2 MSTORE PUSH1 0x20 ADD PUSH1 0x0 KECCAK256 PUSH1 0x40 MLOAD PUSH2 0x1444 SWAP2 SWAP1 PUSH2 0x28DC JUMP JUMPDEST SWAP1 DUP2 MSTORE PUSH1 0x20 ADD PUSH1 0x40 MLOAD DUP1 SWAP2 SUB SWAP1 KECCAK256 SLOAD SWAP3 POP PUSH1 0x1 SWAP2 POP DUP8 PUSH1 0x8 ADD PUSH1 0x0 DUP3 PUSH2 0xFFFF AND DUP2 MSTORE PUSH1 0x20 ADD SWAP1 DUP2 MSTORE PUSH1 0x20 ADD PUSH1 0x0 KECCAK256 DUP9 PUSH1 0x9 ADD PUSH1 0x0 PUSH1 0x1 DUP2 MSTORE PUSH1 0x20 ADD SWAP1 DUP2 MSTORE PUSH1 0x20 ADD PUSH1 0x0 KECCAK256 SWAP1 DUP1 SLOAD PUSH2 0x1494 SWAP1 PUSH2 0x3178 JUMP JUMPDEST PUSH2 0x149F SWAP3 SWAP2 SWAP1 PUSH2 0x1D7F JUMP JUMPDEST POP PUSH2 0x153B JUMP JUMPDEST DUP3 DUP9 PUSH1 0xA ADD DUP10 PUSH1 0x8 ADD PUSH1 0x0 DUP5 PUSH2 0xFFFF AND DUP2 MSTORE PUSH1 0x20 ADD SWAP1 DUP2 MSTORE PUSH1 0x20 ADD PUSH1 0x0 KECCAK256 PUSH1 0x40 MLOAD PUSH2 0x14D0 SWAP2 SWAP1 PUSH2 0x28DC JUMP JUMPDEST SWAP1 DUP2 MSTORE PUSH1 0x20 ADD PUSH1 0x40 MLOAD DUP1 SWAP2 SUB SWAP1 KECCAK256 SLOAD EQ ISZERO PUSH2 0x153A JUMPI DUP2 DUP1 PUSH2 0x14F0 SWAP1 PUSH2 0x323F JUMP JUMPDEST SWAP3 POP POP DUP8 PUSH1 0x8 ADD PUSH1 0x0 DUP3 PUSH2 0xFFFF AND DUP2 MSTORE PUSH1 0x20 ADD SWAP1 DUP2 MSTORE PUSH1 0x20 ADD PUSH1 0x0 KECCAK256 DUP9 PUSH1 0x9 ADD PUSH1 0x0 DUP5 DUP2 MSTORE PUSH1 0x20 ADD SWAP1 DUP2 MSTORE PUSH1 0x20 ADD PUSH1 0x0 KECCAK256 SWAP1 DUP1 SLOAD PUSH2 0x152D SWAP1 PUSH2 0x3178 JUMP JUMPDEST PUSH2 0x1538 SWAP3 SWAP2 SWAP1 PUSH2 0x1D7F JUMP JUMPDEST POP JUMPDEST JUMPDEST DUP1 DUP1 PUSH2 0x1546 SWAP1 PUSH2 0x3214 JUMP JUMPDEST SWAP2 POP POP PUSH2 0x13B9 JUMP JUMPDEST POP PUSH1 0x0 SWAP3 POP POP POP PUSH2 0x1712 JUMP JUMPDEST DUP5 PUSH1 0x6 ADD PUSH1 0x0 DUP6 PUSH20 0xFFFFFFFFFFFFFFFFFFFFFFFFFFFFFFFFFFFFFFFF AND PUSH20 0xFFFFFFFFFFFFFFFFFFFFFFFFFFFFFFFFFFFFFFFF AND DUP2 MSTORE PUSH1 0x20 ADD SWAP1 DUP2 MSTORE PUSH1 0x20 ADD PUSH1 0x0 KECCAK256 PUSH1 0x0 SWAP1 SLOAD SWAP1 PUSH2 0x100 EXP SWAP1 DIV PUSH1 0xFF AND PUSH2 0x15E8 JUMPI PUSH1 0x40 MLOAD PUSH32 0x8C379A000000000000000000000000000000000000000000000000000000000 DUP2 MSTORE PUSH1 0x4 ADD PUSH2 0x15DF SWAP1 PUSH2 0x2A8B JUMP JUMPDEST PUSH1 0x40 MLOAD DUP1 SWAP2 SUB SWAP1 REVERT JUMPDEST PUSH1 0x0 JUMPDEST DUP6 PUSH1 0x4 ADD PUSH1 0x0 SWAP1 SLOAD SWAP1 PUSH2 0x100 EXP SWAP1 DIV PUSH2 0xFFFF AND PUSH2 0xFFFF AND DUP2 PUSH2 0xFFFF AND LT ISZERO PUSH2 0x170C JUMPI DUP6 PUSH1 0x7 ADD DUP5 DUP3 PUSH2 0xFFFF AND DUP2 MLOAD DUP2 LT PUSH2 0x1628 JUMPI PUSH2 0x1627 PUSH2 0x32E6 JUMP JUMPDEST JUMPDEST PUSH1 0x20 MUL PUSH1 0x20 ADD ADD MLOAD PUSH1 0x40 MLOAD PUSH2 0x163D SWAP2 SWAP1 PUSH2 0x28C5 JUMP JUMPDEST SWAP1 DUP2 MSTORE PUSH1 0x20 ADD PUSH1 0x40 MLOAD DUP1 SWAP2 SUB SWAP1 KECCAK256 PUSH1 0x0 SWAP1 SLOAD SWAP1 PUSH2 0x100 EXP SWAP1 DIV PUSH1 0xFF AND PUSH2 0x1698 JUMPI PUSH1 0x40 MLOAD PUSH32 0x8C379A000000000000000000000000000000000000000000000000000000000 DUP2 MSTORE PUSH1 0x4 ADD PUSH2 0x168F SWAP1 PUSH2 0x2A0B JUMP JUMPDEST PUSH1 0x40 MLOAD DUP1 SWAP2 SUB SWAP1 REVERT JUMPDEST DUP3 DUP2 PUSH2 0xFFFF AND DUP2 MLOAD DUP2 LT PUSH2 0x16AF JUMPI PUSH2 0x16AE PUSH2 0x32E6 JUMP JUMPDEST JUMPDEST PUSH1 0x20 MUL PUSH1 0x20 ADD ADD MLOAD DUP7 PUSH1 0xA ADD DUP6 DUP4 PUSH2 0xFFFF AND DUP2 MLOAD DUP2 LT PUSH2 0x16D2 JUMPI PUSH2 0x16D1 PUSH2 0x32E6 JUMP JUMPDEST JUMPDEST PUSH1 0x20 MUL PUSH1 0x20 ADD ADD MLOAD PUSH1 0x40 MLOAD PUSH2 0x16E7 SWAP2 SWAP1 PUSH2 0x28C5 JUMP JUMPDEST SWAP1 DUP2 MSTORE PUSH1 0x20 ADD PUSH1 0x40 MLOAD DUP1 SWAP2 SUB SWAP1 KECCAK256 DUP2 SWAP1 SSTORE POP DUP1 DUP1 PUSH2 0x1704 SWAP1 PUSH2 0x3214 JUMP JUMPDEST SWAP2 POP POP PUSH2 0x15EB JUMP JUMPDEST POP PUSH1 0x1 SWAP1 POP JUMPDEST SWAP5 SWAP4 POP POP POP POP JUMP JUMPDEST PUSH1 0x0 DUP4 PUSH1 0x0 ADD PUSH1 0x10 DUP2 DUP2 SWAP1 SLOAD SWAP1 PUSH2 0x100 EXP SWAP1 DIV PUSH16 0xFFFFFFFFFFFFFFFFFFFFFFFFFFFFFFFF AND DUP1 SWAP3 SWAP2 SWAP1 PUSH2 0x174C SWAP1 PUSH2 0x31DB JUMP JUMPDEST SWAP2 SWAP1 PUSH2 0x100 EXP DUP2 SLOAD DUP2 PUSH16 0xFFFFFFFFFFFFFFFFFFFFFFFFFFFFFFFF MUL NOT AND SWAP1 DUP4 PUSH16 0xFFFFFFFFFFFFFFFFFFFFFFFFFFFFFFFF AND MUL OR SWAP1 SSTORE POP POP DUP3 DUP5 PUSH1 0x2 ADD PUSH1 0x0 DUP7 PUSH1 0x0 ADD PUSH1 0x10 SWAP1 SLOAD SWAP1 PUSH2 0x100 EXP SWAP1 DIV PUSH16 0xFFFFFFFFFFFFFFFFFFFFFFFFFFFFFFFF AND PUSH16 0xFFFFFFFFFFFFFFFFFFFFFFFFFFFFFFFF AND PUSH16 0xFFFFFFFFFFFFFFFFFFFFFFFFFFFFFFFF AND DUP2 MSTORE PUSH1 0x20 ADD SWAP1 DUP2 MSTORE PUSH1 0x20 ADD PUSH1 0x0 KECCAK256 DUP2 SWAP1 SSTORE POP PUSH1 0x0 JUMPDEST DUP3 MLOAD DUP2 PUSH2 0xFFFF AND LT ISZERO PUSH2 0x186D JUMPI DUP3 DUP2 PUSH2 0xFFFF AND DUP2 MLOAD DUP2 LT PUSH2 0x1808 JUMPI PUSH2 0x1807 PUSH2 0x32E6 JUMP JUMPDEST JUMPDEST PUSH1 0x20 MUL PUSH1 0x20 ADD ADD MLOAD DUP6 PUSH1 0x3 ADD PUSH1 0x0 DUP7 DUP2 MSTORE PUSH1 0x20 ADD SWAP1 DUP2 MSTORE PUSH1 0x20 ADD PUSH1 0x0 KECCAK256 PUSH1 0x0 PUSH1 0x1 DUP5 PUSH2 0x1834 SWAP2 SWAP1 PUSH2 0x2F9B JUMP JUMPDEST PUSH2 0xFFFF AND DUP2 MSTORE PUSH1 0x20 ADD SWAP1 DUP2 MSTORE PUSH1 0x20 ADD PUSH1 0x0 KECCAK256 SWAP1 DUP1 MLOAD SWAP1 PUSH1 0x20 ADD SWAP1 PUSH2 0x1859 SWAP3 SWAP2 SWAP1 PUSH2 0x1C73 JUMP JUMPDEST POP DUP1 DUP1 PUSH2 0x1865 SWAP1 PUSH2 0x3214 JUMP JUMPDEST SWAP2 POP POP PUSH2 0x17E4 JUMP JUMPDEST POP PUSH1 0x1 DUP5 PUSH1 0x4 ADD PUSH1 0x0 DUP6 DUP2 MSTORE PUSH1 0x20 ADD SWAP1 DUP2 MSTORE PUSH1 0x20 ADD PUSH1 0x0 KECCAK256 PUSH1 0x0 PUSH2 0x100 EXP DUP2 SLOAD DUP2 PUSH1 0xFF MUL NOT AND SWAP1 DUP4 ISZERO ISZERO MUL OR SWAP1 SSTORE POP PUSH1 0x1 SWAP1 POP SWAP4 SWAP3 POP POP POP JUMP JUMPDEST PUSH1 0x0 DUP1 DUP3 PUSH1 0x0 ADD SLOAD EQ ISZERO PUSH2 0x18F0 JUMPI PUSH1 0x40 MLOAD PUSH32 0x8C379A000000000000000000000000000000000000000000000000000000000 DUP2 MSTORE PUSH1 0x4 ADD PUSH2 0x18E7 SWAP1 PUSH2 0x2B87 JUMP JUMPDEST PUSH1 0x40 MLOAD DUP1 SWAP2 SUB SWAP1 REVERT JUMPDEST DUP2 PUSH1 0x1 ADD PUSH1 0x14 SWAP1 SLOAD SWAP1 PUSH2 0x100 EXP SWAP1 DIV PUSH1 0xFF AND ISZERO PUSH2 0x1942 JUMPI PUSH1 0x40 MLOAD PUSH32 0x8C379A000000000000000000000000000000000000000000000000000000000 DUP2 MSTORE PUSH1 0x4 ADD PUSH2 0x1939 SWAP1 PUSH2 0x2BE3 JUMP JUMPDEST PUSH1 0x40 MLOAD DUP1 SWAP2 SUB SWAP1 REVERT JUMPDEST PUSH1 0x0 DUP3 PUSH1 0x2 ADD DUP2 SWAP1 SSTORE POP PUSH1 0x1 SWAP1 POP SWAP2 SWAP1 POP JUMP JUMPDEST PUSH2 0x195D PUSH2 0x11D2 JUMP JUMPDEST DUP1 PUSH20 0xFFFFFFFFFFFFFFFFFFFFFFFFFFFFFFFFFFFFFFFF AND PUSH1 0x4 PUSH1 0x0 SWAP1 SLOAD SWAP1 PUSH2 0x100 EXP SWAP1 DIV PUSH20 0xFFFFFFFFFFFFFFFFFFFFFFFFFFFFFFFFFFFFFFFF AND PUSH20 0xFFFFFFFFFFFFFFFFFFFFFFFFFFFFFFFFFFFFFFFF AND EQ PUSH2 0x19B7 JUMPI PUSH1 0x0 DUP1 REVERT JUMPDEST PUSH2 0x19C1 DUP4 DUP4 PUSH2 0x1AE1 JUMP JUMPDEST POP POP POP JUMP JUMPDEST PUSH1 0x0 PUSH20 0xFFFFFFFFFFFFFFFFFFFFFFFFFFFFFFFFFFFFFFFF AND DUP3 PUSH20 0xFFFFFFFFFFFFFFFFFFFFFFFFFFFFFFFFFFFFFFFF AND EQ ISZERO PUSH2 0x1A36 JUMPI PUSH1 0x40 MLOAD PUSH32 0x8C379A000000000000000000000000000000000000000000000000000000000 DUP2 MSTORE PUSH1 0x4 ADD PUSH2 0x1A2D SWAP1 PUSH2 0x2C03 JUMP JUMPDEST PUSH1 0x40 MLOAD DUP1 SWAP2 SUB SWAP1 REVERT JUMPDEST DUP1 PUSH1 0x1 PUSH1 0x0 DUP3 DUP3 SLOAD PUSH2 0x1A48 SWAP2 SWAP1 PUSH2 0x2FD3 JUMP JUMPDEST SWAP3 POP POP DUP2 SWAP1 SSTORE POP DUP1 PUSH1 0x0 DUP1 DUP5 PUSH20 0xFFFFFFFFFFFFFFFFFFFFFFFFFFFFFFFFFFFFFFFF AND PUSH20 0xFFFFFFFFFFFFFFFFFFFFFFFFFFFFFFFFFFFFFFFF AND DUP2 MSTORE PUSH1 0x20 ADD SWAP1 DUP2 MSTORE PUSH1 0x20 ADD PUSH1 0x0 KECCAK256 PUSH1 0x0 DUP3 DUP3 SLOAD PUSH2 0x1A9D SWAP2 SWAP1 PUSH2 0x2FD3 JUMP JUMPDEST SWAP3 POP POP DUP2 SWAP1 SSTORE POP PUSH32 0xABF5327BE9F5825C40D58BDA541DD07F09B62DF3376BBD5ECDBAA8BD82A9D492 DUP3 DUP3 PUSH1 0x40 MLOAD PUSH2 0x1AD5 SWAP3 SWAP2 SWAP1 PUSH2 0x2B4B JUMP JUMPDEST PUSH1 0x40 MLOAD DUP1 SWAP2 SUB SWAP1 LOG1 POP POP JUMP JUMPDEST PUSH1 0x0 PUSH20 0xFFFFFFFFFFFFFFFFFFFFFFFFFFFFFFFFFFFFFFFF AND DUP3 PUSH20 0xFFFFFFFFFFFFFFFFFFFFFFFFFFFFFFFFFFFFFFFF AND EQ ISZERO PUSH2 0x1B51 JUMPI PUSH1 0x40 MLOAD PUSH32 0x8C379A000000000000000000000000000000000000000000000000000000000 DUP2 MSTORE PUSH1 0x4 ADD PUSH2 0x1B48 SWAP1 PUSH2 0x2B0B JUMP JUMPDEST PUSH1 0x40 MLOAD DUP1 SWAP2 SUB SWAP1 REVERT JUMPDEST PUSH1 0x0 DUP1 PUSH1 0x0 DUP5 PUSH20 0xFFFFFFFFFFFFFFFFFFFFFFFFFFFFFFFFFFFFFFFF AND PUSH20 0xFFFFFFFFFFFFFFFFFFFFFFFFFFFFFFFFFFFFFFFF AND DUP2 MSTORE PUSH1 0x20 ADD SWAP1 DUP2 MSTORE PUSH1 0x20 ADD PUSH1 0x0 KECCAK256 SLOAD SWAP1 POP DUP2 DUP2 LT ISZERO PUSH2 0x1BD7 JUMPI PUSH1 0x40 MLOAD PUSH32 0x8C379A000000000000000000000000000000000000000000000000000000000 DUP2 MSTORE PUSH1 0x4 ADD PUSH2 0x1BCE SWAP1 PUSH2 0x29CB JUMP JUMPDEST PUSH1 0x40 MLOAD DUP1 SWAP2 SUB SWAP1 REVERT JUMPDEST DUP2 DUP2 SUB PUSH1 0x0 DUP1 DUP6 PUSH20 0xFFFFFFFFFFFFFFFFFFFFFFFFFFFFFFFFFFFFFFFF AND PUSH20 0xFFFFFFFFFFFFFFFFFFFFFFFFFFFFFFFFFFFFFFFF AND DUP2 MSTORE PUSH1 0x20 ADD SWAP1 DUP2 MSTORE PUSH1 0x20 ADD PUSH1 0x0 KECCAK256 DUP2 SWAP1 SSTORE POP DUP2 PUSH1 0x1 PUSH1 0x0 DUP3 DUP3 SLOAD PUSH2 0x1C2E SWAP2 SWAP1 PUSH2 0x3083 JUMP JUMPDEST SWAP3 POP POP DUP2 SWAP1 SSTORE POP PUSH32 0xABF5327BE9F5825C40D58BDA541DD07F09B62DF3376BBD5ECDBAA8BD82A9D492 DUP4 DUP4 PUSH1 0x40 MLOAD PUSH2 0x1C66 SWAP3 SWAP2 SWAP1 PUSH2 0x2BA7 JUMP JUMPDEST PUSH1 0x40 MLOAD DUP1 SWAP2 SUB SWAP1 LOG1 POP POP POP JUMP JUMPDEST DUP3 DUP1 SLOAD PUSH2 0x1C7F SWAP1 PUSH2 0x3178 JUMP JUMPDEST SWAP1 PUSH1 0x0 MSTORE PUSH1 0x20 PUSH1 0x0 KECCAK256 SWAP1 PUSH1 0x1F ADD PUSH1 0x20 SWAP1 DIV DUP2 ADD SWAP3 DUP3 PUSH2 0x1CA1 JUMPI PUSH1 0x0 DUP6 SSTORE PUSH2 0x1CE8 JUMP JUMPDEST DUP3 PUSH1 0x1F LT PUSH2 0x1CBA JUMPI DUP1 MLOAD PUSH1 0xFF NOT AND DUP4 DUP1 ADD OR DUP6 SSTORE PUSH2 0x1CE8 JUMP JUMPDEST DUP3 DUP1 ADD PUSH1 0x1 ADD DUP6 SSTORE DUP3 ISZERO PUSH2 0x1CE8 JUMPI SWAP2 DUP3 ADD JUMPDEST DUP3 DUP2 GT ISZERO PUSH2 0x1CE7 JUMPI DUP3 MLOAD DUP3 SSTORE SWAP2 PUSH1 0x20 ADD SWAP2 SWAP1 PUSH1 0x1 ADD SWAP1 PUSH2 0x1CCC JUMP JUMPDEST JUMPDEST POP SWAP1 POP PUSH2 0x1CF5 SWAP2 SWAP1 PUSH2 0x1E0C JUMP JUMPDEST POP SWAP1 JUMP JUMPDEST DUP3 DUP1 SLOAD PUSH2 0x1D05 SWAP1 PUSH2 0x3178 JUMP JUMPDEST SWAP1 PUSH1 0x0 MSTORE PUSH1 0x20 PUSH1 0x0 KECCAK256 SWAP1 PUSH1 0x1F ADD PUSH1 0x20 SWAP1 DIV DUP2 ADD SWAP3 DUP3 PUSH2 0x1D27 JUMPI PUSH1 0x0 DUP6 SSTORE PUSH2 0x1D6E JUMP JUMPDEST DUP3 PUSH1 0x1F LT PUSH2 0x1D40 JUMPI DUP1 CALLDATALOAD PUSH1 0xFF NOT AND DUP4 DUP1 ADD OR DUP6 SSTORE PUSH2 0x1D6E JUMP JUMPDEST DUP3 DUP1 ADD PUSH1 0x1 ADD DUP6 SSTORE DUP3 ISZERO PUSH2 0x1D6E JUMPI SWAP2 DUP3 ADD JUMPDEST DUP3 DUP2 GT ISZERO PUSH2 0x1D6D JUMPI DUP3 CALLDATALOAD DUP3 SSTORE SWAP2 PUSH1 0x20 ADD SWAP2 SWAP1 PUSH1 0x1 ADD SWAP1 PUSH2 0x1D52 JUMP JUMPDEST JUMPDEST POP SWAP1 POP PUSH2 0x1D7B SWAP2 SWAP1 PUSH2 0x1E0C JUMP JUMPDEST POP SWAP1 JUMP JUMPDEST DUP3 DUP1 SLOAD PUSH2 0x1D8B SWAP1 PUSH2 0x3178 JUMP JUMPDEST SWAP1 PUSH1 0x0 MSTORE PUSH1 0x20 PUSH1 0x0 KECCAK256 SWAP1 PUSH1 0x1F ADD PUSH1 0x20 SWAP1 DIV DUP2 ADD SWAP3 DUP3 PUSH2 0x1DAD JUMPI PUSH1 0x0 DUP6 SSTORE PUSH2 0x1DFB JUMP JUMPDEST DUP3 PUSH1 0x1F LT PUSH2 0x1DBE JUMPI DUP1 SLOAD DUP6 SSTORE PUSH2 0x1DFB JUMP JUMPDEST DUP3 DUP1 ADD PUSH1 0x1 ADD DUP6 SSTORE DUP3 ISZERO PUSH2 0x1DFB JUMPI PUSH1 0x0 MSTORE PUSH1 0x20 PUSH1 0x0 KECCAK256 SWAP2 PUSH1 0x1F ADD PUSH1 0x20 SWAP1 DIV DUP3 ADD JUMPDEST DUP3 DUP2 GT ISZERO PUSH2 0x1DFA JUMPI DUP3 SLOAD DUP3 SSTORE SWAP2 PUSH1 0x1 ADD SWAP2 SWAP1 PUSH1 0x1 ADD SWAP1 PUSH2 0x1DDF JUMP JUMPDEST JUMPDEST POP SWAP1 POP PUSH2 0x1E08 SWAP2 SWAP1 PUSH2 0x1E0C JUMP JUMPDEST POP SWAP1 JUMP JUMPDEST JUMPDEST DUP1 DUP3 GT ISZERO PUSH2 0x1E25 JUMPI PUSH1 0x0 DUP2 PUSH1 0x0 SWAP1 SSTORE POP PUSH1 0x1 ADD PUSH2 0x1E0D JUMP JUMPDEST POP SWAP1 JUMP JUMPDEST PUSH1 0x0 PUSH2 0x1E3C PUSH2 0x1E37 DUP5 PUSH2 0x2DD5 JUMP JUMPDEST PUSH2 0x2DB0 JUMP JUMPDEST SWAP1 POP DUP1 DUP4 DUP3 MSTORE PUSH1 0x20 DUP3 ADD SWAP1 POP DUP3 DUP6 PUSH1 0x20 DUP7 MUL DUP3 ADD GT ISZERO PUSH2 0x1E5F JUMPI PUSH2 0x1E5E PUSH2 0x3362 JUMP JUMPDEST JUMPDEST PUSH1 0x0 JUMPDEST DUP6 DUP2 LT ISZERO PUSH2 0x1E8F JUMPI DUP2 PUSH2 0x1E75 DUP9 DUP3 PUSH2 0x1FD9 JUMP JUMPDEST DUP5 MSTORE PUSH1 0x20 DUP5 ADD SWAP4 POP PUSH1 0x20 DUP4 ADD SWAP3 POP POP PUSH1 0x1 DUP2 ADD SWAP1 POP PUSH2 0x1E62 JUMP JUMPDEST POP POP POP SWAP4 SWAP3 POP POP POP JUMP JUMPDEST PUSH1 0x0 PUSH2 0x1EAC PUSH2 0x1EA7 DUP5 PUSH2 0x2E01 JUMP JUMPDEST PUSH2 0x2DB0 JUMP JUMPDEST SWAP1 POP DUP1 DUP4 DUP3 MSTORE PUSH1 0x20 DUP3 ADD SWAP1 POP DUP3 DUP6 PUSH1 0x20 DUP7 MUL DUP3 ADD GT ISZERO PUSH2 0x1ECF JUMPI PUSH2 0x1ECE PUSH2 0x3362 JUMP JUMPDEST JUMPDEST PUSH1 0x0 JUMPDEST DUP6 DUP2 LT ISZERO PUSH2 0x1F1D JUMPI DUP2 CALLDATALOAD PUSH8 0xFFFFFFFFFFFFFFFF DUP2 GT ISZERO PUSH2 0x1EF5 JUMPI PUSH2 0x1EF4 PUSH2 0x334E JUMP JUMPDEST JUMPDEST DUP1 DUP7 ADD PUSH2 0x1F02 DUP10 DUP3 PUSH2 0x20CE JUMP JUMPDEST DUP6 MSTORE PUSH1 0x20 DUP6 ADD SWAP5 POP PUSH1 0x20 DUP5 ADD SWAP4 POP POP POP PUSH1 0x1 DUP2 ADD SWAP1 POP PUSH2 0x1ED2 JUMP JUMPDEST POP POP POP SWAP4 SWAP3 POP POP POP JUMP JUMPDEST PUSH1 0x0 PUSH2 0x1F3A PUSH2 0x1F35 DUP5 PUSH2 0x2E2D JUMP JUMPDEST PUSH2 0x2DB0 JUMP JUMPDEST SWAP1 POP DUP1 DUP4 DUP3 MSTORE PUSH1 0x20 DUP3 ADD SWAP1 POP DUP3 DUP6 PUSH1 0x20 DUP7 MUL DUP3 ADD GT ISZERO PUSH2 0x1F5D JUMPI PUSH2 0x1F5C PUSH2 0x3362 JUMP JUMPDEST JUMPDEST PUSH1 0x0 JUMPDEST DUP6 DUP2 LT ISZERO PUSH2 0x1F8D JUMPI DUP2 PUSH2 0x1F73 DUP9 DUP3 PUSH2 0x20FC JUMP JUMPDEST DUP5 MSTORE PUSH1 0x20 DUP5 ADD SWAP4 POP PUSH1 0x20 DUP4 ADD SWAP3 POP POP PUSH1 0x1 DUP2 ADD SWAP1 POP PUSH2 0x1F60 JUMP JUMPDEST POP POP POP SWAP4 SWAP3 POP POP POP JUMP JUMPDEST PUSH1 0x0 PUSH2 0x1FAA PUSH2 0x1FA5 DUP5 PUSH2 0x2E59 JUMP JUMPDEST PUSH2 0x2DB0 JUMP JUMPDEST SWAP1 POP DUP3 DUP2 MSTORE PUSH1 0x20 DUP2 ADD DUP5 DUP5 DUP5 ADD GT ISZERO PUSH2 0x1FC6 JUMPI PUSH2 0x1FC5 PUSH2 0x336C JUMP JUMPDEST JUMPDEST PUSH2 0x1FD1 DUP5 DUP3 DUP6 PUSH2 0x3136 JUMP JUMPDEST POP SWAP4 SWAP3 POP POP POP JUMP JUMPDEST PUSH1 0x0 DUP2 CALLDATALOAD SWAP1 POP PUSH2 0x1FE8 DUP2 PUSH2 0x37CC JUMP JUMPDEST SWAP3 SWAP2 POP POP JUMP JUMPDEST PUSH1 0x0 DUP3 PUSH1 0x1F DUP4 ADD SLT PUSH2 0x2003 JUMPI PUSH2 0x2002 PUSH2 0x334E JUMP JUMPDEST JUMPDEST DUP2 CALLDATALOAD PUSH2 0x2013 DUP5 DUP3 PUSH1 0x20 DUP7 ADD PUSH2 0x1E29 JUMP JUMPDEST SWAP2 POP POP SWAP3 SWAP2 POP POP JUMP JUMPDEST PUSH1 0x0 DUP1 DUP4 PUSH1 0x1F DUP5 ADD SLT PUSH2 0x2032 JUMPI PUSH2 0x2031 PUSH2 0x334E JUMP JUMPDEST JUMPDEST DUP3 CALLDATALOAD SWAP1 POP PUSH8 0xFFFFFFFFFFFFFFFF DUP2 GT ISZERO PUSH2 0x204F JUMPI PUSH2 0x204E PUSH2 0x3349 JUMP JUMPDEST JUMPDEST PUSH1 0x20 DUP4 ADD SWAP2 POP DUP4 PUSH1 0x20 DUP3 MUL DUP4 ADD GT ISZERO PUSH2 0x206B JUMPI PUSH2 0x206A PUSH2 0x3362 JUMP JUMPDEST JUMPDEST SWAP3 POP SWAP3 SWAP1 POP JUMP JUMPDEST PUSH1 0x0 DUP3 PUSH1 0x1F DUP4 ADD SLT PUSH2 0x2087 JUMPI PUSH2 0x2086 PUSH2 0x334E JUMP JUMPDEST JUMPDEST DUP2 CALLDATALOAD PUSH2 0x2097 DUP5 DUP3 PUSH1 0x20 DUP7 ADD PUSH2 0x1E99 JUMP JUMPDEST SWAP2 POP POP SWAP3 SWAP2 POP POP JUMP JUMPDEST PUSH1 0x0 DUP3 PUSH1 0x1F DUP4 ADD SLT PUSH2 0x20B5 JUMPI PUSH2 0x20B4 PUSH2 0x334E JUMP JUMPDEST JUMPDEST DUP2 CALLDATALOAD PUSH2 0x20C5 DUP5 DUP3 PUSH1 0x20 DUP7 ADD PUSH2 0x1F27 JUMP JUMPDEST SWAP2 POP POP SWAP3 SWAP2 POP POP JUMP JUMPDEST PUSH1 0x0 DUP3 PUSH1 0x1F DUP4 ADD SLT PUSH2 0x20E3 JUMPI PUSH2 0x20E2 PUSH2 0x334E JUMP JUMPDEST JUMPDEST DUP2 CALLDATALOAD PUSH2 0x20F3 DUP5 DUP3 PUSH1 0x20 DUP7 ADD PUSH2 0x1F97 JUMP JUMPDEST SWAP2 POP POP SWAP3 SWAP2 POP POP JUMP JUMPDEST PUSH1 0x0 DUP2 CALLDATALOAD SWAP1 POP PUSH2 0x210B DUP2 PUSH2 0x37E3 JUMP JUMPDEST SWAP3 SWAP2 POP POP JUMP JUMPDEST PUSH1 0x0 DUP2 CALLDATALOAD SWAP1 POP PUSH2 0x2120 DUP2 PUSH2 0x37FA JUMP JUMPDEST SWAP3 SWAP2 POP POP JUMP JUMPDEST PUSH1 0x0 PUSH1 0x20 DUP3 DUP5 SUB SLT ISZERO PUSH2 0x213C JUMPI PUSH2 0x213B PUSH2 0x337B JUMP JUMPDEST JUMPDEST PUSH1 0x0 PUSH2 0x214A DUP5 DUP3 DUP6 ADD PUSH2 0x1FD9 JUMP JUMPDEST SWAP2 POP POP SWAP3 SWAP2 POP POP JUMP JUMPDEST PUSH1 0x0 DUP1 PUSH1 0x40 DUP4 DUP6 SUB SLT ISZERO PUSH2 0x216A JUMPI PUSH2 0x2169 PUSH2 0x337B JUMP JUMPDEST JUMPDEST PUSH1 0x0 PUSH2 0x2178 DUP6 DUP3 DUP7 ADD PUSH2 0x1FD9 JUMP JUMPDEST SWAP3 POP POP PUSH1 0x20 PUSH2 0x2189 DUP6 DUP3 DUP7 ADD PUSH2 0x20FC JUMP JUMPDEST SWAP2 POP POP SWAP3 POP SWAP3 SWAP1 POP JUMP JUMPDEST PUSH1 0x0 PUSH1 0x20 DUP3 DUP5 SUB SLT ISZERO PUSH2 0x21A9 JUMPI PUSH2 0x21A8 PUSH2 0x337B JUMP JUMPDEST JUMPDEST PUSH1 0x0 PUSH2 0x21B7 DUP5 DUP3 DUP6 ADD PUSH2 0x20FC JUMP JUMPDEST SWAP2 POP POP SWAP3 SWAP2 POP POP JUMP JUMPDEST PUSH1 0x0 DUP1 PUSH1 0x0 DUP1 PUSH1 0x80 DUP6 DUP8 SUB SLT ISZERO PUSH2 0x21DA JUMPI PUSH2 0x21D9 PUSH2 0x337B JUMP JUMPDEST JUMPDEST PUSH1 0x0 PUSH2 0x21E8 DUP8 DUP3 DUP9 ADD PUSH2 0x20FC JUMP JUMPDEST SWAP5 POP POP PUSH1 0x20 PUSH2 0x21F9 DUP8 DUP3 DUP9 ADD PUSH2 0x1FD9 JUMP JUMPDEST SWAP4 POP POP PUSH1 0x40 DUP6 ADD CALLDATALOAD PUSH8 0xFFFFFFFFFFFFFFFF DUP2 GT ISZERO PUSH2 0x221A JUMPI PUSH2 0x2219 PUSH2 0x3371 JUMP JUMPDEST JUMPDEST PUSH2 0x2226 DUP8 DUP3 DUP9 ADD PUSH2 0x2072 JUMP JUMPDEST SWAP3 POP POP PUSH1 0x60 DUP6 ADD CALLDATALOAD PUSH8 0xFFFFFFFFFFFFFFFF DUP2 GT ISZERO PUSH2 0x2247 JUMPI PUSH2 0x2246 PUSH2 0x3371 JUMP JUMPDEST JUMPDEST PUSH2 0x2253 DUP8 DUP3 DUP9 ADD PUSH2 0x20A0 JUMP JUMPDEST SWAP2 POP POP SWAP3 SWAP6 SWAP2 SWAP5 POP SWAP3 POP JUMP JUMPDEST PUSH1 0x0 DUP1 PUSH1 0x0 DUP1 PUSH1 0x0 DUP1 PUSH1 0x0 DUP1 PUSH1 0x0 PUSH2 0x100 DUP11 DUP13 SUB SLT ISZERO PUSH2 0x2282 JUMPI PUSH2 0x2281 PUSH2 0x337B JUMP JUMPDEST JUMPDEST PUSH1 0x0 PUSH2 0x2290 DUP13 DUP3 DUP14 ADD PUSH2 0x2111 JUMP JUMPDEST SWAP10 POP POP PUSH1 0x20 DUP11 ADD CALLDATALOAD PUSH8 0xFFFFFFFFFFFFFFFF DUP2 GT ISZERO PUSH2 0x22B1 JUMPI PUSH2 0x22B0 PUSH2 0x3371 JUMP JUMPDEST JUMPDEST PUSH2 0x22BD DUP13 DUP3 DUP14 ADD PUSH2 0x1FEE JUMP JUMPDEST SWAP9 POP POP PUSH1 0x40 PUSH2 0x22CE DUP13 DUP3 DUP14 ADD PUSH2 0x1FD9 JUMP JUMPDEST SWAP8 POP POP PUSH1 0x60 PUSH2 0x22DF DUP13 DUP3 DUP14 ADD PUSH2 0x20FC JUMP JUMPDEST SWAP7 POP POP PUSH1 0x80 PUSH2 0x22F0 DUP13 DUP3 DUP14 ADD PUSH2 0x20FC JUMP JUMPDEST SWAP6 POP POP PUSH1 0xA0 DUP11 ADD CALLDATALOAD PUSH8 0xFFFFFFFFFFFFFFFF DUP2 GT ISZERO PUSH2 0x2311 JUMPI PUSH2 0x2310 PUSH2 0x3371 JUMP JUMPDEST JUMPDEST PUSH2 0x231D DUP13 DUP3 DUP14 ADD PUSH2 0x20CE JUMP JUMPDEST SWAP5 POP POP PUSH1 0xC0 DUP11 ADD CALLDATALOAD PUSH8 0xFFFFFFFFFFFFFFFF DUP2 GT ISZERO PUSH2 0x233E JUMPI PUSH2 0x233D PUSH2 0x3371 JUMP JUMPDEST JUMPDEST PUSH2 0x234A DUP13 DUP3 DUP14 ADD PUSH2 0x201C JUMP JUMPDEST SWAP4 POP SWAP4 POP POP PUSH1 0xE0 PUSH2 0x235D DUP13 DUP3 DUP14 ADD PUSH2 0x20FC JUMP JUMPDEST SWAP2 POP POP SWAP3 SWAP6 SWAP9 POP SWAP3 SWAP6 SWAP9 POP SWAP3 SWAP6 SWAP9 JUMP JUMPDEST PUSH1 0x0 PUSH2 0x2379 DUP4 DUP4 PUSH2 0x239B JUMP JUMPDEST PUSH1 0x20 DUP4 ADD SWAP1 POP SWAP3 SWAP2 POP POP JUMP JUMPDEST PUSH1 0x0 PUSH2 0x2392 DUP5 DUP5 DUP5 PUSH2 0x249C JUMP JUMPDEST SWAP1 POP SWAP4 SWAP3 POP POP POP JUMP JUMPDEST PUSH2 0x23A4 DUP2 PUSH2 0x30B7 JUMP JUMPDEST DUP3 MSTORE POP POP JUMP JUMPDEST PUSH2 0x23B3 DUP2 PUSH2 0x30B7 JUMP JUMPDEST DUP3 MSTORE POP POP JUMP JUMPDEST PUSH1 0x0 PUSH2 0x23C4 DUP3 PUSH2 0x2EB9 JUMP JUMPDEST PUSH2 0x23CE DUP2 DUP6 PUSH2 0x2EE9 JUMP JUMPDEST SWAP4 POP PUSH2 0x23D9 DUP4 PUSH2 0x2E8A JUMP JUMPDEST DUP1 PUSH1 0x0 JUMPDEST DUP4 DUP2 LT ISZERO PUSH2 0x240A JUMPI DUP2 MLOAD PUSH2 0x23F1 DUP9 DUP3 PUSH2 0x236D JUMP JUMPDEST SWAP8 POP PUSH2 0x23FC DUP4 PUSH2 0x2ECF JUMP JUMPDEST SWAP3 POP POP PUSH1 0x1 DUP2 ADD SWAP1 POP PUSH2 0x23DD JUMP JUMPDEST POP DUP6 SWAP4 POP POP POP POP SWAP3 SWAP2 POP POP JUMP JUMPDEST PUSH1 0x0 PUSH2 0x2423 DUP4 DUP6 PUSH2 0x2EFA JUMP JUMPDEST SWAP4 POP DUP4 PUSH1 0x20 DUP5 MUL DUP6 ADD PUSH2 0x2435 DUP5 PUSH2 0x2E9A JUMP JUMPDEST DUP1 PUSH1 0x0 JUMPDEST DUP8 DUP2 LT ISZERO PUSH2 0x247B JUMPI DUP5 DUP5 SUB DUP10 MSTORE PUSH2 0x2450 DUP3 DUP5 PUSH2 0x2F38 JUMP JUMPDEST PUSH2 0x245B DUP7 DUP3 DUP5 PUSH2 0x2385 JUMP JUMPDEST SWAP6 POP PUSH2 0x2466 DUP5 PUSH2 0x2EDC JUMP JUMPDEST SWAP4 POP PUSH1 0x20 DUP12 ADD SWAP11 POP POP POP PUSH1 0x1 DUP2 ADD SWAP1 POP PUSH2 0x2439 JUMP JUMPDEST POP DUP3 SWAP8 POP DUP8 SWAP5 POP POP POP POP POP SWAP4 SWAP3 POP POP POP JUMP JUMPDEST PUSH2 0x2496 DUP2 PUSH2 0x30C9 JUMP JUMPDEST DUP3 MSTORE POP POP JUMP JUMPDEST PUSH1 0x0 PUSH2 0x24A8 DUP4 DUP6 PUSH2 0x2F0B JUMP JUMPDEST SWAP4 POP PUSH2 0x24B5 DUP4 DUP6 DUP5 PUSH2 0x3136 JUMP JUMPDEST PUSH2 0x24BE DUP4 PUSH2 0x3380 JUMP JUMPDEST DUP5 ADD SWAP1 POP SWAP4 SWAP3 POP POP POP JUMP JUMPDEST PUSH1 0x0 PUSH2 0x24D5 DUP4 DUP6 PUSH2 0x2F2D JUMP JUMPDEST SWAP4 POP PUSH2 0x24E2 DUP4 DUP6 DUP5 PUSH2 0x3136 JUMP JUMPDEST DUP3 DUP5 ADD SWAP1 POP SWAP4 SWAP3 POP POP POP JUMP JUMPDEST PUSH1 0x0 PUSH2 0x24F9 DUP3 PUSH2 0x2EC4 JUMP JUMPDEST PUSH2 0x2503 DUP2 DUP6 PUSH2 0x2F1C JUMP JUMPDEST SWAP4 POP PUSH2 0x2513 DUP2 DUP6 PUSH1 0x20 DUP7 ADD PUSH2 0x3145 JUMP JUMPDEST PUSH2 0x251C DUP2 PUSH2 0x3380 JUMP JUMPDEST DUP5 ADD SWAP2 POP POP SWAP3 SWAP2 POP POP JUMP JUMPDEST PUSH1 0x0 PUSH2 0x2532 DUP3 PUSH2 0x2EC4 JUMP JUMPDEST PUSH2 0x253C DUP2 DUP6 PUSH2 0x2F2D JUMP JUMPDEST SWAP4 POP PUSH2 0x254C DUP2 DUP6 PUSH1 0x20 DUP7 ADD PUSH2 0x3145 JUMP JUMPDEST DUP1 DUP5 ADD SWAP2 POP POP SWAP3 SWAP2 POP POP JUMP JUMPDEST PUSH1 0x0 DUP2 SLOAD PUSH2 0x2565 DUP2 PUSH2 0x3178 JUMP JUMPDEST PUSH2 0x256F DUP2 DUP7 PUSH2 0x2F2D JUMP JUMPDEST SWAP5 POP PUSH1 0x1 DUP3 AND PUSH1 0x0 DUP2 EQ PUSH2 0x258A JUMPI PUSH1 0x1 DUP2 EQ PUSH2 0x259B JUMPI PUSH2 0x25CE JUMP JUMPDEST PUSH1 0xFF NOT DUP4 AND DUP7 MSTORE DUP2 DUP7 ADD SWAP4 POP PUSH2 0x25CE JUMP JUMPDEST PUSH2 0x25A4 DUP6 PUSH2 0x2EA4 JUMP JUMPDEST PUSH1 0x0 JUMPDEST DUP4 DUP2 LT ISZERO PUSH2 0x25C6 JUMPI DUP2 SLOAD DUP2 DUP10 ADD MSTORE PUSH1 0x1 DUP3 ADD SWAP2 POP PUSH1 0x20 DUP2 ADD SWAP1 POP PUSH2 0x25A7 JUMP JUMPDEST DUP4 DUP9 ADD SWAP6 POP POP POP JUMPDEST POP POP POP SWAP3 SWAP2 POP POP JUMP JUMPDEST PUSH1 0x0 PUSH2 0x25E4 PUSH1 0x12 DUP4 PUSH2 0x2F1C JUMP JUMPDEST SWAP2 POP PUSH2 0x25EF DUP3 PUSH2 0x3391 JUMP JUMPDEST PUSH1 0x20 DUP3 ADD SWAP1 POP SWAP2 SWAP1 POP JUMP JUMPDEST PUSH1 0x0 PUSH2 0x2607 PUSH1 0x2C DUP4 PUSH2 0x2F1C JUMP JUMPDEST SWAP2 POP PUSH2 0x2612 DUP3 PUSH2 0x33BA JUMP JUMPDEST PUSH1 0x40 DUP3 ADD SWAP1 POP SWAP2 SWAP1 POP JUMP JUMPDEST PUSH1 0x0 PUSH2 0x262A PUSH1 0x22 DUP4 PUSH2 0x2F1C JUMP JUMPDEST SWAP2 POP PUSH2 0x2635 DUP3 PUSH2 0x3409 JUMP JUMPDEST PUSH1 0x40 DUP3 ADD SWAP1 POP SWAP2 SWAP1 POP JUMP JUMPDEST PUSH1 0x0 PUSH2 0x264D PUSH1 0xD DUP4 PUSH2 0x2F1C JUMP JUMPDEST SWAP2 POP PUSH2 0x2658 DUP3 PUSH2 0x3458 JUMP JUMPDEST PUSH1 0x20 DUP3 ADD SWAP1 POP SWAP2 SWAP1 POP JUMP JUMPDEST PUSH1 0x0 PUSH2 0x2670 PUSH1 0x1B DUP4 PUSH2 0x2F1C JUMP JUMPDEST SWAP2 POP PUSH2 0x267B DUP3 PUSH2 0x3481 JUMP JUMPDEST PUSH1 0x20 DUP3 ADD SWAP1 POP SWAP2 SWAP1 POP JUMP JUMPDEST PUSH1 0x0 PUSH2 0x2693 PUSH1 0x14 DUP4 PUSH2 0x2F1C JUMP JUMPDEST SWAP2 POP PUSH2 0x269E DUP3 PUSH2 0x34AA JUMP JUMPDEST PUSH1 0x20 DUP3 ADD SWAP1 POP SWAP2 SWAP1 POP JUMP JUMPDEST PUSH1 0x0 PUSH2 0x26B6 PUSH1 0x23 DUP4 PUSH2 0x2F1C JUMP JUMPDEST SWAP2 POP PUSH2 0x26C1 DUP3 PUSH2 0x34D3 JUMP JUMPDEST PUSH1 0x40 DUP3 ADD SWAP1 POP SWAP2 SWAP1 POP JUMP JUMPDEST PUSH1 0x0 PUSH2 0x26D9 PUSH1 0x14 DUP4 PUSH2 0x2F1C JUMP JUMPDEST SWAP2 POP PUSH2 0x26E4 DUP3 PUSH2 0x3522 JUMP JUMPDEST PUSH1 0x20 DUP3 ADD SWAP1 POP SWAP2 SWAP1 POP JUMP JUMPDEST PUSH1 0x0 PUSH2 0x26FC PUSH1 0x23 DUP4 PUSH2 0x2F1C JUMP JUMPDEST SWAP2 POP PUSH2 0x2707 DUP3 PUSH2 0x354B JUMP JUMPDEST PUSH1 0x40 DUP3 ADD SWAP1 POP SWAP2 SWAP1 POP JUMP JUMPDEST PUSH1 0x0 PUSH2 0x271F PUSH1 0x12 DUP4 PUSH2 0x2F1C JUMP JUMPDEST SWAP2 POP PUSH2 0x272A DUP3 PUSH2 0x359A JUMP JUMPDEST PUSH1 0x20 DUP3 ADD SWAP1 POP SWAP2 SWAP1 POP JUMP JUMPDEST PUSH1 0x0 PUSH2 0x2742 PUSH1 0x23 DUP4 PUSH2 0x2F1C JUMP JUMPDEST SWAP2 POP PUSH2 0x274D DUP3 PUSH2 0x35C3 JUMP JUMPDEST PUSH1 0x40 DUP3 ADD SWAP1 POP SWAP2 SWAP1 POP JUMP JUMPDEST PUSH1 0x0 PUSH2 0x2765 PUSH1 0x2A DUP4 PUSH2 0x2F1C JUMP JUMPDEST SWAP2 POP PUSH2 0x2770 DUP3 PUSH2 0x3612 JUMP JUMPDEST PUSH1 0x40 DUP3 ADD SWAP1 POP SWAP2 SWAP1 POP JUMP JUMPDEST PUSH1 0x0 PUSH2 0x2788 PUSH1 0x21 DUP4 PUSH2 0x2F1C JUMP JUMPDEST SWAP2 POP PUSH2 0x2793 DUP3 PUSH2 0x3661 JUMP JUMPDEST PUSH1 0x40 DUP3 ADD SWAP1 POP SWAP2 SWAP1 POP JUMP JUMPDEST PUSH1 0x0 PUSH2 0x27AB PUSH1 0x24 DUP4 PUSH2 0x2F1C JUMP JUMPDEST SWAP2 POP PUSH2 0x27B6 DUP3 PUSH2 0x36B0 JUMP JUMPDEST PUSH1 0x40 DUP3 ADD SWAP1 POP SWAP2 SWAP1 POP JUMP JUMPDEST PUSH1 0x0 PUSH2 0x27CE PUSH1 0x4 DUP4 PUSH2 0x2F1C JUMP JUMPDEST SWAP2 POP PUSH2 0x27D9 DUP3 PUSH2 0x36FF JUMP JUMPDEST PUSH1 0x20 DUP3 ADD SWAP1 POP SWAP2 SWAP1 POP JUMP JUMPDEST PUSH1 0x0 PUSH2 0x27F1 PUSH1 0x1D DUP4 PUSH2 0x2F1C JUMP JUMPDEST SWAP2 POP PUSH2 0x27FC DUP3 PUSH2 0x3728 JUMP JUMPDEST PUSH1 0x20 DUP3 ADD SWAP1 POP SWAP2 SWAP1 POP JUMP JUMPDEST PUSH1 0x0 PUSH2 0x2814 PUSH1 0x4 DUP4 PUSH2 0x2F1C JUMP JUMPDEST SWAP2 POP PUSH2 0x281F DUP3 PUSH2 0x3751 JUMP JUMPDEST PUSH1 0x20 DUP3 ADD SWAP1 POP SWAP2 SWAP1 POP JUMP JUMPDEST PUSH1 0x0 PUSH2 0x2837 PUSH1 0x9 DUP4 PUSH2 0x2F1C JUMP JUMPDEST SWAP2 POP PUSH2 0x2842 DUP3 PUSH2 0x377A JUMP JUMPDEST PUSH1 0x20 DUP3 ADD SWAP1 POP SWAP2 SWAP1 POP JUMP JUMPDEST PUSH1 0x0 PUSH2 0x285A PUSH1 0x1F DUP4 PUSH2 0x2F1C JUMP JUMPDEST SWAP2 POP PUSH2 0x2865 DUP3 PUSH2 0x37A3 JUMP JUMPDEST PUSH1 0x20 DUP3 ADD SWAP1 POP SWAP2 SWAP1 POP JUMP JUMPDEST PUSH2 0x2879 DUP2 PUSH2 0x30D5 JUMP JUMPDEST DUP3 MSTORE POP POP JUMP JUMPDEST PUSH2 0x2888 DUP2 PUSH2 0x30F1 JUMP JUMPDEST DUP3 MSTORE POP POP JUMP JUMPDEST PUSH2 0x2897 DUP2 PUSH2 0x311F JUMP JUMPDEST DUP3 MSTORE POP POP JUMP JUMPDEST PUSH2 0x28A6 DUP2 PUSH2 0x3129 JUMP JUMPDEST DUP3 MSTORE POP POP JUMP JUMPDEST PUSH1 0x0 PUSH2 0x28B9 DUP3 DUP5 DUP7 PUSH2 0x24C9 JUMP JUMPDEST SWAP2 POP DUP2 SWAP1 POP SWAP4 SWAP3 POP POP POP JUMP JUMPDEST PUSH1 0x0 PUSH2 0x28D1 DUP3 DUP5 PUSH2 0x2527 JUMP JUMPDEST SWAP2 POP DUP2 SWAP1 POP SWAP3 SWAP2 POP POP JUMP JUMPDEST PUSH1 0x0 PUSH2 0x28E8 DUP3 DUP5 PUSH2 0x2558 JUMP JUMPDEST SWAP2 POP DUP2 SWAP1 POP SWAP3 SWAP2 POP POP JUMP JUMPDEST PUSH1 0x0 PUSH1 0xE0 DUP3 ADD SWAP1 POP PUSH2 0x2908 PUSH1 0x0 DUP4 ADD DUP11 PUSH2 0x23AA JUMP JUMPDEST PUSH2 0x2915 PUSH1 0x20 DUP4 ADD DUP10 PUSH2 0x289D JUMP JUMPDEST DUP2 DUP2 SUB PUSH1 0x40 DUP4 ADD MSTORE PUSH2 0x2927 DUP2 DUP9 PUSH2 0x24EE JUMP JUMPDEST SWAP1 POP PUSH2 0x2936 PUSH1 0x60 DUP4 ADD DUP8 PUSH2 0x288E JUMP JUMPDEST PUSH2 0x2943 PUSH1 0x80 DUP4 ADD DUP7 PUSH2 0x288E JUMP JUMPDEST PUSH2 0x2950 PUSH1 0xA0 DUP4 ADD DUP6 PUSH2 0x287F JUMP JUMPDEST PUSH2 0x295D PUSH1 0xC0 DUP4 ADD DUP5 PUSH2 0x288E JUMP JUMPDEST SWAP9 SWAP8 POP POP POP POP POP POP POP POP JUMP JUMPDEST PUSH1 0x0 PUSH1 0x20 DUP3 ADD SWAP1 POP DUP2 DUP2 SUB PUSH1 0x0 DUP4 ADD MSTORE PUSH2 0x2983 DUP2 DUP5 PUSH2 0x24EE JUMP JUMPDEST SWAP1 POP SWAP3 SWAP2 POP POP JUMP JUMPDEST PUSH1 0x0 PUSH1 0x20 DUP3 ADD SWAP1 POP DUP2 DUP2 SUB PUSH1 0x0 DUP4 ADD MSTORE PUSH2 0x29A4 DUP2 PUSH2 0x25D7 JUMP JUMPDEST SWAP1 POP SWAP2 SWAP1 POP JUMP JUMPDEST PUSH1 0x0 PUSH1 0x20 DUP3 ADD SWAP1 POP DUP2 DUP2 SUB PUSH1 0x0 DUP4 ADD MSTORE PUSH2 0x29C4 DUP2 PUSH2 0x25FA JUMP JUMPDEST SWAP1 POP SWAP2 SWAP1 POP JUMP JUMPDEST PUSH1 0x0 PUSH1 0x20 DUP3 ADD SWAP1 POP DUP2 DUP2 SUB PUSH1 0x0 DUP4 ADD MSTORE PUSH2 0x29E4 DUP2 PUSH2 0x261D JUMP JUMPDEST SWAP1 POP SWAP2 SWAP1 POP JUMP JUMPDEST PUSH1 0x0 PUSH1 0x20 DUP3 ADD SWAP1 POP DUP2 DUP2 SUB PUSH1 0x0 DUP4 ADD MSTORE PUSH2 0x2A04 DUP2 PUSH2 0x2640 JUMP JUMPDEST SWAP1 POP SWAP2 SWAP1 POP JUMP JUMPDEST PUSH1 0x0 PUSH1 0x20 DUP3 ADD SWAP1 POP DUP2 DUP2 SUB PUSH1 0x0 DUP4 ADD MSTORE PUSH2 0x2A24 DUP2 PUSH2 0x2663 JUMP JUMPDEST SWAP1 POP SWAP2 SWAP1 POP JUMP JUMPDEST PUSH1 0x0 PUSH1 0x20 DUP3 ADD SWAP1 POP DUP2 DUP2 SUB PUSH1 0x0 DUP4 ADD MSTORE PUSH2 0x2A44 DUP2 PUSH2 0x2686 JUMP JUMPDEST SWAP1 POP SWAP2 SWAP1 POP JUMP JUMPDEST PUSH1 0x0 PUSH1 0x20 DUP3 ADD SWAP1 POP DUP2 DUP2 SUB PUSH1 0x0 DUP4 ADD MSTORE PUSH2 0x2A64 DUP2 PUSH2 0x26A9 JUMP JUMPDEST SWAP1 POP SWAP2 SWAP1 POP JUMP JUMPDEST PUSH1 0x0 PUSH1 0x20 DUP3 ADD SWAP1 POP DUP2 DUP2 SUB PUSH1 0x0 DUP4 ADD MSTORE PUSH2 0x2A84 DUP2 PUSH2 0x26CC JUMP JUMPDEST SWAP1 POP SWAP2 SWAP1 POP JUMP JUMPDEST PUSH1 0x0 PUSH1 0x20 DUP3 ADD SWAP1 POP DUP2 DUP2 SUB PUSH1 0x0 DUP4 ADD MSTORE PUSH2 0x2AA4 DUP2 PUSH2 0x26EF JUMP JUMPDEST SWAP1 POP SWAP2 SWAP1 POP JUMP JUMPDEST PUSH1 0x0 PUSH1 0x20 DUP3 ADD SWAP1 POP DUP2 DUP2 SUB PUSH1 0x0 DUP4 ADD MSTORE PUSH2 0x2AC4 DUP2 PUSH2 0x2712 JUMP JUMPDEST SWAP1 POP SWAP2 SWAP1 POP JUMP JUMPDEST PUSH1 0x0 PUSH1 0x20 DUP3 ADD SWAP1 POP DUP2 DUP2 SUB PUSH1 0x0 DUP4 ADD MSTORE PUSH2 0x2AE4 DUP2 PUSH2 0x2735 JUMP JUMPDEST SWAP1 POP SWAP2 SWAP1 POP JUMP JUMPDEST PUSH1 0x0 PUSH1 0x20 DUP3 ADD SWAP1 POP DUP2 DUP2 SUB PUSH1 0x0 DUP4 ADD MSTORE PUSH2 0x2B04 DUP2 PUSH2 0x2758 JUMP JUMPDEST SWAP1 POP SWAP2 SWAP1 POP JUMP JUMPDEST PUSH1 0x0 PUSH1 0x20 DUP3 ADD SWAP1 POP DUP2 DUP2 SUB PUSH1 0x0 DUP4 ADD MSTORE PUSH2 0x2B24 DUP2 PUSH2 0x277B JUMP JUMPDEST SWAP1 POP SWAP2 SWAP1 POP JUMP JUMPDEST PUSH1 0x0 PUSH1 0x20 DUP3 ADD SWAP1 POP DUP2 DUP2 SUB PUSH1 0x0 DUP4 ADD MSTORE PUSH2 0x2B44 DUP2 PUSH2 0x279E JUMP JUMPDEST SWAP1 POP SWAP2 SWAP1 POP JUMP JUMPDEST PUSH1 0x0 PUSH1 0x60 DUP3 ADD SWAP1 POP DUP2 DUP2 SUB PUSH1 0x0 DUP4 ADD MSTORE PUSH2 0x2B64 DUP2 PUSH2 0x27C1 JUMP JUMPDEST SWAP1 POP PUSH2 0x2B73 PUSH1 0x20 DUP4 ADD DUP6 PUSH2 0x23AA JUMP JUMPDEST PUSH2 0x2B80 PUSH1 0x40 DUP4 ADD DUP5 PUSH2 0x288E JUMP JUMPDEST SWAP4 SWAP3 POP POP POP JUMP JUMPDEST PUSH1 0x0 PUSH1 0x20 DUP3 ADD SWAP1 POP DUP2 DUP2 SUB PUSH1 0x0 DUP4 ADD MSTORE PUSH2 0x2BA0 DUP2 PUSH2 0x27E4 JUMP JUMPDEST SWAP1 POP SWAP2 SWAP1 POP JUMP JUMPDEST PUSH1 0x0 PUSH1 0x60 DUP3 ADD SWAP1 POP DUP2 DUP2 SUB PUSH1 0x0 DUP4 ADD MSTORE PUSH2 0x2BC0 DUP2 PUSH2 0x2807 JUMP JUMPDEST SWAP1 POP PUSH2 0x2BCF PUSH1 0x20 DUP4 ADD DUP6 PUSH2 0x23AA JUMP JUMPDEST PUSH2 0x2BDC PUSH1 0x40 DUP4 ADD DUP5 PUSH2 0x288E JUMP JUMPDEST SWAP4 SWAP3 POP POP POP JUMP JUMPDEST PUSH1 0x0 PUSH1 0x20 DUP3 ADD SWAP1 POP DUP2 DUP2 SUB PUSH1 0x0 DUP4 ADD MSTORE PUSH2 0x2BFC DUP2 PUSH2 0x282A JUMP JUMPDEST SWAP1 POP SWAP2 SWAP1 POP JUMP JUMPDEST PUSH1 0x0 PUSH1 0x20 DUP3 ADD SWAP1 POP DUP2 DUP2 SUB PUSH1 0x0 DUP4 ADD MSTORE PUSH2 0x2C1C DUP2 PUSH2 0x284D JUMP JUMPDEST SWAP1 POP SWAP2 SWAP1 POP JUMP JUMPDEST PUSH1 0x0 PUSH1 0x40 DUP3 ADD SWAP1 POP PUSH2 0x2C38 PUSH1 0x0 DUP4 ADD DUP6 PUSH2 0x2870 JUMP JUMPDEST PUSH2 0x2C45 PUSH1 0x20 DUP4 ADD DUP5 PUSH2 0x2870 JUMP JUMPDEST SWAP4 SWAP3 POP POP POP JUMP JUMPDEST PUSH1 0x0 PUSH1 0x20 DUP3 ADD SWAP1 POP PUSH2 0x2C61 PUSH1 0x0 DUP4 ADD DUP5 PUSH2 0x288E JUMP JUMPDEST SWAP3 SWAP2 POP POP JUMP JUMPDEST PUSH1 0x0 PUSH1 0x80 DUP3 ADD SWAP1 POP PUSH2 0x2C7C PUSH1 0x0 DUP4 ADD DUP8 PUSH2 0x288E JUMP JUMPDEST PUSH2 0x2C89 PUSH1 0x20 DUP4 ADD DUP7 PUSH2 0x23AA JUMP JUMPDEST PUSH2 0x2C96 PUSH1 0x40 DUP4 ADD DUP6 PUSH2 0x248D JUMP JUMPDEST PUSH2 0x2CA3 PUSH1 0x60 DUP4 ADD DUP5 PUSH2 0x288E JUMP JUMPDEST SWAP6 SWAP5 POP POP POP POP POP JUMP JUMPDEST PUSH1 0x0 PUSH1 0xE0 DUP3 ADD SWAP1 POP PUSH2 0x2CC1 PUSH1 0x0 DUP4 ADD DUP12 PUSH2 0x288E JUMP JUMPDEST DUP2 DUP2 SUB PUSH1 0x20 DUP4 ADD MSTORE PUSH2 0x2CD3 DUP2 DUP11 PUSH2 0x23B9 JUMP JUMPDEST SWAP1 POP PUSH2 0x2CE2 PUSH1 0x40 DUP4 ADD DUP10 PUSH2 0x23AA JUMP JUMPDEST PUSH2 0x2CEF PUSH1 0x60 DUP4 ADD DUP9 PUSH2 0x288E JUMP JUMPDEST PUSH2 0x2CFC PUSH1 0x80 DUP4 ADD DUP8 PUSH2 0x288E JUMP JUMPDEST DUP2 DUP2 SUB PUSH1 0xA0 DUP4 ADD MSTORE PUSH2 0x2D0E DUP2 DUP7 PUSH2 0x24EE JUMP JUMPDEST SWAP1 POP DUP2 DUP2 SUB PUSH1 0xC0 DUP4 ADD MSTORE PUSH2 0x2D23 DUP2 DUP5 DUP7 PUSH2 0x2417 JUMP JUMPDEST SWAP1 POP SWAP10 SWAP9 POP POP POP POP POP POP POP POP POP JUMP JUMPDEST PUSH1 0x0 PUSH1 0x20 DUP3 ADD SWAP1 POP PUSH2 0x2D47 PUSH1 0x0 DUP4 ADD DUP5 PUSH2 0x289D JUMP JUMPDEST SWAP3 SWAP2 POP POP JUMP JUMPDEST PUSH1 0x0 DUP1 DUP4 CALLDATALOAD PUSH1 0x1 PUSH1 0x20 SUB DUP5 CALLDATASIZE SUB SUB DUP2 SLT PUSH2 0x2D6A JUMPI PUSH2 0x2D69 PUSH2 0x3358 JUMP JUMPDEST JUMPDEST DUP1 DUP5 ADD SWAP3 POP DUP3 CALLDATALOAD SWAP2 POP PUSH8 0xFFFFFFFFFFFFFFFF DUP3 GT ISZERO PUSH2 0x2D8C JUMPI PUSH2 0x2D8B PUSH2 0x3353 JUMP JUMPDEST JUMPDEST PUSH1 0x20 DUP4 ADD SWAP3 POP PUSH1 0x1 DUP3 MUL CALLDATASIZE SUB DUP4 SGT ISZERO PUSH2 0x2DA8 JUMPI PUSH2 0x2DA7 PUSH2 0x3367 JUMP JUMPDEST JUMPDEST POP SWAP3 POP SWAP3 SWAP1 POP JUMP JUMPDEST PUSH1 0x0 PUSH2 0x2DBA PUSH2 0x2DCB JUMP JUMPDEST SWAP1 POP PUSH2 0x2DC6 DUP3 DUP3 PUSH2 0x31AA JUMP JUMPDEST SWAP2 SWAP1 POP JUMP JUMPDEST PUSH1 0x0 PUSH1 0x40 MLOAD SWAP1 POP SWAP1 JUMP JUMPDEST PUSH1 0x0 PUSH8 0xFFFFFFFFFFFFFFFF DUP3 GT ISZERO PUSH2 0x2DF0 JUMPI PUSH2 0x2DEF PUSH2 0x3315 JUMP JUMPDEST JUMPDEST PUSH1 0x20 DUP3 MUL SWAP1 POP PUSH1 0x20 DUP2 ADD SWAP1 POP SWAP2 SWAP1 POP JUMP JUMPDEST PUSH1 0x0 PUSH8 0xFFFFFFFFFFFFFFFF DUP3 GT ISZERO PUSH2 0x2E1C JUMPI PUSH2 0x2E1B PUSH2 0x3315 JUMP JUMPDEST JUMPDEST PUSH1 0x20 DUP3 MUL SWAP1 POP PUSH1 0x20 DUP2 ADD SWAP1 POP SWAP2 SWAP1 POP JUMP JUMPDEST PUSH1 0x0 PUSH8 0xFFFFFFFFFFFFFFFF DUP3 GT ISZERO PUSH2 0x2E48 JUMPI PUSH2 0x2E47 PUSH2 0x3315 JUMP JUMPDEST JUMPDEST PUSH1 0x20 DUP3 MUL SWAP1 POP PUSH1 0x20 DUP2 ADD SWAP1 POP SWAP2 SWAP1 POP JUMP JUMPDEST PUSH1 0x0 PUSH8 0xFFFFFFFFFFFFFFFF DUP3 GT ISZERO PUSH2 0x2E74 JUMPI PUSH2 0x2E73 PUSH2 0x3315 JUMP JUMPDEST JUMPDEST PUSH2 0x2E7D DUP3 PUSH2 0x3380 JUMP JUMPDEST SWAP1 POP PUSH1 0x20 DUP2 ADD SWAP1 POP SWAP2 SWAP1 POP JUMP JUMPDEST PUSH1 0x0 DUP2 SWAP1 POP PUSH1 0x20 DUP3 ADD SWAP1 POP SWAP2 SWAP1 POP JUMP JUMPDEST PUSH1 0x0 DUP2 SWAP1 POP SWAP2 SWAP1 POP JUMP JUMPDEST PUSH1 0x0 DUP2 SWAP1 POP DUP2 PUSH1 0x0 MSTORE PUSH1 0x20 PUSH1 0x0 KECCAK256 SWAP1 POP SWAP2 SWAP1 POP JUMP JUMPDEST PUSH1 0x0 DUP2 MLOAD SWAP1 POP SWAP2 SWAP1 POP JUMP JUMPDEST PUSH1 0x0 DUP2 MLOAD SWAP1 POP SWAP2 SWAP1 POP JUMP JUMPDEST PUSH1 0x0 PUSH1 0x20 DUP3 ADD SWAP1 POP SWAP2 SWAP1 POP JUMP JUMPDEST PUSH1 0x0 PUSH1 0x20 DUP3 ADD SWAP1 POP SWAP2 SWAP1 POP JUMP JUMPDEST PUSH1 0x0 DUP3 DUP3 MSTORE PUSH1 0x20 DUP3 ADD SWAP1 POP SWAP3 SWAP2 POP POP JUMP JUMPDEST PUSH1 0x0 DUP3 DUP3 MSTORE PUSH1 0x20 DUP3 ADD SWAP1 POP SWAP3 SWAP2 POP POP JUMP JUMPDEST PUSH1 0x0 DUP3 DUP3 MSTORE PUSH1 0x20 DUP3 ADD SWAP1 POP SWAP3 SWAP2 POP POP JUMP JUMPDEST PUSH1 0x0 DUP3 DUP3 MSTORE PUSH1 0x20 DUP3 ADD SWAP1 POP SWAP3 SWAP2 POP POP JUMP JUMPDEST PUSH1 0x0 DUP2 SWAP1 POP SWAP3 SWAP2 POP POP JUMP JUMPDEST PUSH1 0x0 DUP1 DUP4 CALLDATALOAD PUSH1 0x1 PUSH1 0x20 SUB DUP5 CALLDATASIZE SUB SUB DUP2 SLT PUSH2 0x2F55 JUMPI PUSH2 0x2F54 PUSH2 0x3376 JUMP JUMPDEST JUMPDEST DUP4 DUP2 ADD SWAP3 POP DUP3 CALLDATALOAD SWAP2 POP PUSH1 0x20 DUP4 ADD SWAP3 POP PUSH8 0xFFFFFFFFFFFFFFFF DUP3 GT ISZERO PUSH2 0x2F7D JUMPI PUSH2 0x2F7C PUSH2 0x3344 JUMP JUMPDEST JUMPDEST PUSH1 0x1 DUP3 MUL CALLDATASIZE SUB DUP5 SGT ISZERO PUSH2 0x2F93 JUMPI PUSH2 0x2F92 PUSH2 0x335D JUMP JUMPDEST JUMPDEST POP SWAP3 POP SWAP3 SWAP1 POP JUMP JUMPDEST PUSH1 0x0 PUSH2 0x2FA6 DUP3 PUSH2 0x30F1 JUMP JUMPDEST SWAP2 POP PUSH2 0x2FB1 DUP4 PUSH2 0x30F1 JUMP JUMPDEST SWAP3 POP DUP3 PUSH2 0xFFFF SUB DUP3 GT ISZERO PUSH2 0x2FC8 JUMPI PUSH2 0x2FC7 PUSH2 0x3288 JUMP JUMPDEST JUMPDEST DUP3 DUP3 ADD SWAP1 POP SWAP3 SWAP2 POP POP JUMP JUMPDEST PUSH1 0x0 PUSH2 0x2FDE DUP3 PUSH2 0x311F JUMP JUMPDEST SWAP2 POP PUSH2 0x2FE9 DUP4 PUSH2 0x311F JUMP JUMPDEST SWAP3 POP DUP3 PUSH32 0xFFFFFFFFFFFFFFFFFFFFFFFFFFFFFFFFFFFFFFFFFFFFFFFFFFFFFFFFFFFFFFFF SUB DUP3 GT ISZERO PUSH2 0x301E JUMPI PUSH2 0x301D PUSH2 0x3288 JUMP JUMPDEST JUMPDEST DUP3 DUP3 ADD SWAP1 POP SWAP3 SWAP2 POP POP JUMP JUMPDEST PUSH1 0x0 PUSH2 0x3034 DUP3 PUSH2 0x311F JUMP JUMPDEST SWAP2 POP PUSH2 0x303F DUP4 PUSH2 0x311F JUMP JUMPDEST SWAP3 POP DUP2 PUSH32 0xFFFFFFFFFFFFFFFFFFFFFFFFFFFFFFFFFFFFFFFFFFFFFFFFFFFFFFFFFFFFFFFF DIV DUP4 GT DUP3 ISZERO ISZERO AND ISZERO PUSH2 0x3078 JUMPI PUSH2 0x3077 PUSH2 0x3288 JUMP JUMPDEST JUMPDEST DUP3 DUP3 MUL SWAP1 POP SWAP3 SWAP2 POP POP JUMP JUMPDEST PUSH1 0x0 PUSH2 0x308E DUP3 PUSH2 0x311F JUMP JUMPDEST SWAP2 POP PUSH2 0x3099 DUP4 PUSH2 0x311F JUMP JUMPDEST SWAP3 POP DUP3 DUP3 LT ISZERO PUSH2 0x30AC JUMPI PUSH2 0x30AB PUSH2 0x3288 JUMP JUMPDEST JUMPDEST DUP3 DUP3 SUB SWAP1 POP SWAP3 SWAP2 POP POP JUMP JUMPDEST PUSH1 0x0 PUSH2 0x30C2 DUP3 PUSH2 0x30FF JUMP JUMPDEST SWAP1 POP SWAP2 SWAP1 POP JUMP JUMPDEST PUSH1 0x0 DUP2 ISZERO ISZERO SWAP1 POP SWAP2 SWAP1 POP JUMP JUMPDEST PUSH1 0x0 PUSH16 0xFFFFFFFFFFFFFFFFFFFFFFFFFFFFFFFF DUP3 AND SWAP1 POP SWAP2 SWAP1 POP JUMP JUMPDEST PUSH1 0x0 PUSH2 0xFFFF DUP3 AND SWAP1 POP SWAP2 SWAP1 POP JUMP JUMPDEST PUSH1 0x0 PUSH20 0xFFFFFFFFFFFFFFFFFFFFFFFFFFFFFFFFFFFFFFFF DUP3 AND SWAP1 POP SWAP2 SWAP1 POP JUMP JUMPDEST PUSH1 0x0 DUP2 SWAP1 POP SWAP2 SWAP1 POP JUMP JUMPDEST PUSH1 0x0 PUSH1 0xFF DUP3 AND SWAP1 POP SWAP2 SWAP1 POP JUMP JUMPDEST DUP3 DUP2 DUP4 CALLDATACOPY PUSH1 0x0 DUP4 DUP4 ADD MSTORE POP POP POP JUMP JUMPDEST PUSH1 0x0 JUMPDEST DUP4 DUP2 LT ISZERO PUSH2 0x3163 JUMPI DUP1 DUP3 ADD MLOAD DUP2 DUP5 ADD MSTORE PUSH1 0x20 DUP2 ADD SWAP1 POP PUSH2 0x3148 JUMP JUMPDEST DUP4 DUP2 GT ISZERO PUSH2 0x3172 JUMPI PUSH1 0x0 DUP5 DUP5 ADD MSTORE JUMPDEST POP POP POP POP JUMP JUMPDEST PUSH1 0x0 PUSH1 0x2 DUP3 DIV SWAP1 POP PUSH1 0x1 DUP3 AND DUP1 PUSH2 0x3190 JUMPI PUSH1 0x7F DUP3 AND SWAP2 POP JUMPDEST PUSH1 0x20 DUP3 LT DUP2 EQ ISZERO PUSH2 0x31A4 JUMPI PUSH2 0x31A3 PUSH2 0x32B7 JUMP JUMPDEST JUMPDEST POP SWAP2 SWAP1 POP JUMP JUMPDEST PUSH2 0x31B3 DUP3 PUSH2 0x3380 JUMP JUMPDEST DUP2 ADD DUP2 DUP2 LT PUSH8 0xFFFFFFFFFFFFFFFF DUP3 GT OR ISZERO PUSH2 0x31D2 JUMPI PUSH2 0x31D1 PUSH2 0x3315 JUMP JUMPDEST JUMPDEST DUP1 PUSH1 0x40 MSTORE POP POP POP JUMP JUMPDEST PUSH1 0x0 PUSH2 0x31E6 DUP3 PUSH2 0x30D5 JUMP JUMPDEST SWAP2 POP PUSH16 0xFFFFFFFFFFFFFFFFFFFFFFFFFFFFFFFF DUP3 EQ ISZERO PUSH2 0x3209 JUMPI PUSH2 0x3208 PUSH2 0x3288 JUMP JUMPDEST JUMPDEST PUSH1 0x1 DUP3 ADD SWAP1 POP SWAP2 SWAP1 POP JUMP JUMPDEST PUSH1 0x0 PUSH2 0x321F DUP3 PUSH2 0x30F1 JUMP JUMPDEST SWAP2 POP PUSH2 0xFFFF DUP3 EQ ISZERO PUSH2 0x3234 JUMPI PUSH2 0x3233 PUSH2 0x3288 JUMP JUMPDEST JUMPDEST PUSH1 0x1 DUP3 ADD SWAP1 POP SWAP2 SWAP1 POP JUMP JUMPDEST PUSH1 0x0 PUSH2 0x324A DUP3 PUSH2 0x311F JUMP JUMPDEST SWAP2 POP PUSH32 0xFFFFFFFFFFFFFFFFFFFFFFFFFFFFFFFFFFFFFFFFFFFFFFFFFFFFFFFFFFFFFFFF DUP3 EQ ISZERO PUSH2 0x327D JUMPI PUSH2 0x327C PUSH2 0x3288 JUMP JUMPDEST JUMPDEST PUSH1 0x1 DUP3 ADD SWAP1 POP SWAP2 SWAP1 POP JUMP JUMPDEST PUSH32 0x4E487B7100000000000000000000000000000000000000000000000000000000 PUSH1 0x0 MSTORE PUSH1 0x11 PUSH1 0x4 MSTORE PUSH1 0x24 PUSH1 0x0 REVERT JUMPDEST PUSH32 0x4E487B7100000000000000000000000000000000000000000000000000000000 PUSH1 0x0 MSTORE PUSH1 0x22 PUSH1 0x4 MSTORE PUSH1 0x24 PUSH1 0x0 REVERT JUMPDEST PUSH32 0x4E487B7100000000000000000000000000000000000000000000000000000000 PUSH1 0x0 MSTORE PUSH1 0x32 PUSH1 0x4 MSTORE PUSH1 0x24 PUSH1 0x0 REVERT JUMPDEST PUSH32 0x4E487B7100000000000000000000000000000000000000000000000000000000 PUSH1 0x0 MSTORE PUSH1 0x41 PUSH1 0x4 MSTORE PUSH1 0x24 PUSH1 0x0 REVERT JUMPDEST PUSH1 0x0 DUP1 REVERT JUMPDEST PUSH1 0x0 DUP1 REVERT JUMPDEST PUSH1 0x0 DUP1 REVERT JUMPDEST PUSH1 0x0 DUP1 REVERT JUMPDEST PUSH1 0x0 DUP1 REVERT JUMPDEST PUSH1 0x0 DUP1 REVERT JUMPDEST PUSH1 0x0 DUP1 REVERT JUMPDEST PUSH1 0x0 DUP1 REVERT JUMPDEST PUSH1 0x0 DUP1 REVERT JUMPDEST PUSH1 0x0 DUP1 REVERT JUMPDEST PUSH1 0x0 DUP1 REVERT JUMPDEST PUSH1 0x0 DUP1 REVERT JUMPDEST PUSH1 0x0 PUSH1 0x1F NOT PUSH1 0x1F DUP4 ADD AND SWAP1 POP SWAP2 SWAP1 POP JUMP JUMPDEST PUSH32 0x50726F706F73616C3A20696E6163746976650000000000000000000000000000 PUSH1 0x0 DUP3 ADD MSTORE POP JUMP JUMPDEST PUSH32 0x456E642074696D652073686F756C642062652067726561746572207468616E20 PUSH1 0x0 DUP3 ADD MSTORE PUSH32 0x63757272656E742074696D650000000000000000000000000000000000000000 PUSH1 0x20 DUP3 ADD MSTORE POP JUMP JUMPDEST PUSH32 0x45524332303A206275726E20616D6F756E7420657863656564732062616C616E PUSH1 0x0 DUP3 ADD MSTORE PUSH32 0x6365000000000000000000000000000000000000000000000000000000000000 PUSH1 0x20 DUP3 ADD MSTORE POP JUMP JUMPDEST PUSH32 0x616C726561647920766F74656400000000000000000000000000000000000000 PUSH1 0x0 DUP3 ADD MSTORE POP JUMP JUMPDEST PUSH32 0x50726F706F73616C3A20696E76616C69642063616E6469646174650000000000 PUSH1 0x0 DUP3 ADD MSTORE POP JUMP JUMPDEST PUSH32 0x6E6F7420612076616C69642070726F706F73616C000000000000000000000000 PUSH1 0x0 DUP3 ADD MSTORE POP JUMP JUMPDEST PUSH32 0x6E6F7420612076616C696420766F74657220666F7220746869732070726F706F PUSH1 0x0 DUP3 ADD MSTORE PUSH32 0x73616C0000000000000000000000000000000000000000000000000000000000 PUSH1 0x20 DUP3 ADD MSTORE POP JUMP JUMPDEST PUSH32 0x70726F706F73616C206E6F742073746172746564000000000000000000000000 PUSH1 0x0 DUP3 ADD MSTORE POP JUMP JUMPDEST PUSH32 0x4E6F7420612076616C696420766F74657220666F7220746869732070726F706F PUSH1 0x0 DUP3 ADD MSTORE PUSH32 0x73616C0000000000000000000000000000000000000000000000000000000000 PUSH1 0x20 DUP3 ADD MSTORE POP JUMP JUMPDEST PUSH32 0x696E76616C69642070726F706F73616C49640000000000000000000000000000 PUSH1 0x0 DUP3 ADD MSTORE POP JUMP JUMPDEST PUSH32 0x6E6F742073756666696369656E742062616C616E636520746F20636173742076 PUSH1 0x0 DUP3 ADD MSTORE PUSH32 0x6F74650000000000000000000000000000000000000000000000000000000000 PUSH1 0x20 DUP3 ADD MSTORE POP JUMP JUMPDEST PUSH32 0x456E642074696D652073686F756C642062652067726561746572207468616E20 PUSH1 0x0 DUP3 ADD MSTORE PUSH32 0x73746172742074696D6500000000000000000000000000000000000000000000 PUSH1 0x20 DUP3 ADD MSTORE POP JUMP JUMPDEST PUSH32 0x45524332303A206275726E2066726F6D20746865207A65726F20616464726573 PUSH1 0x0 DUP3 ADD MSTORE PUSH32 0x7300000000000000000000000000000000000000000000000000000000000000 PUSH1 0x20 DUP3 ADD MSTORE POP JUMP JUMPDEST PUSH32 0x6E6F7420612076616C6964206C656E677468206F66206861736820726573706F PUSH1 0x0 DUP3 ADD MSTORE PUSH32 0x6E73652100000000000000000000000000000000000000000000000000000000 PUSH1 0x20 DUP3 ADD MSTORE POP JUMP JUMPDEST PUSH32 0x6D696E7400000000000000000000000000000000000000000000000000000000 PUSH1 0x0 DUP3 ADD MSTORE POP JUMP JUMPDEST PUSH32 0x496E76616C696420766F74657220666F722070726F706F73616C496421000000 PUSH1 0x0 DUP3 ADD MSTORE POP JUMP JUMPDEST PUSH32 0x6275726E00000000000000000000000000000000000000000000000000000000 PUSH1 0x0 DUP3 ADD MSTORE POP JUMP JUMPDEST PUSH32 0x6E6F7420766F7465640000000000000000000000000000000000000000000000 PUSH1 0x0 DUP3 ADD MSTORE POP JUMP JUMPDEST PUSH32 0x45524332303A206D696E7420746F20746865207A65726F206164647265737300 PUSH1 0x0 DUP3 ADD MSTORE POP JUMP JUMPDEST PUSH2 0x37D5 DUP2 PUSH2 0x30B7 JUMP JUMPDEST DUP2 EQ PUSH2 0x37E0 JUMPI PUSH1 0x0 DUP1 REVERT JUMPDEST POP JUMP JUMPDEST PUSH2 0x37EC DUP2 PUSH2 0x311F JUMP JUMPDEST DUP2 EQ PUSH2 0x37F7 JUMPI PUSH1 0x0 DUP1 REVERT JUMPDEST POP JUMP JUMPDEST PUSH2 0x3803 DUP2 PUSH2 0x3129 JUMP JUMPDEST DUP2 EQ PUSH2 0x380E JUMPI PUSH1 0x0 DUP1 REVERT JUMPDEST POP JUMP INVALID LOG2 PUSH5 0x6970667358 0x22 SLT KECCAK256 DUP6 0x2C 0xE5 0x27 COINBASE SWAP5 SELFBALANCE DUP6 0x2E MULMOD NUMBER LT PUSH5 0x8390CBA158 CALLVALUE 0xDE DELEGATECALL NOT 0xD9 0x4E 0xF8 PUSH18 0xCCC4499611E664736F6C6343000807003300 "
				},
				"gasEstimates": {
					"creation": {
						"codeDepositCost": "2881400",
						"executionCost": "infinite",
						"totalCost": "infinite"
					},
					"external": {
						"allVoters(address,uint256)": "infinite",
						"balanceOf(address)": "2863",
						"createProposal(uint8,address[],address,uint256,uint256,string,string[],uint256)": "infinite",
						"decimals()": "410",
						"name()": "infinite",
						"proposals(uint256)": "infinite",
						"responseProposal(uint256,address,string[],uint256[])": "infinite",
						"resultOfProposal(uint256)": "infinite",
						"symbol()": "infinite",
						"totalSupply()": "2482",
						"userProposal(address)": "infinite"
					}
				},
				"methodIdentifiers": {
					"allVoters(address,uint256)": "ab9c70d4",
					"balanceOf(address)": "70a08231",
					"createProposal(uint8,address[],address,uint256,uint256,string,string[],uint256)": "4de77e48",
					"decimals()": "313ce567",
					"name()": "06fdde03",
					"proposals(uint256)": "013cf08b",
					"responseProposal(uint256,address,string[],uint256[])": "5c230eee",
					"resultOfProposal(uint256)": "9d671564",
					"symbol()": "95d89b41",
					"totalSupply()": "18160ddd",
					"userProposal(address)": "e745d68e"
				}
			},
			"storageLayout": {
				"storage": [
					{
						"astId": 627,
						"contract": "Qvoting.sol:Qvoting",
						"label": "_balances",
						"offset": 0,
						"slot": "0",
						"type": "t_mapping(t_address,t_uint256)"
					},
					{
						"astId": 629,
						"contract": "Qvoting.sol:Qvoting",
						"label": "_totalSupply",
						"offset": 0,
						"slot": "1",
						"type": "t_uint256"
					},
					{
						"astId": 631,
						"contract": "Qvoting.sol:Qvoting",
						"label": "_name",
						"offset": 0,
						"slot": "2",
						"type": "t_string_storage"
					},
					{
						"astId": 633,
						"contract": "Qvoting.sol:Qvoting",
						"label": "_symbol",
						"offset": 0,
						"slot": "3",
						"type": "t_string_storage"
					},
					{
						"astId": 847,
						"contract": "Qvoting.sol:Qvoting",
						"label": "owner",
						"offset": 0,
						"slot": "4",
						"type": "t_address"
					},
					{
						"astId": 936,
						"contract": "Qvoting.sol:Qvoting",
						"label": "proposalId",
						"offset": 0,
						"slot": "5",
						"type": "t_uint256"
					},
					{
						"astId": 941,
						"contract": "Qvoting.sol:Qvoting",
						"label": "userProposal",
						"offset": 0,
						"slot": "6",
						"type": "t_mapping(t_address,t_struct(UserProposal)409_storage)"
					},
					{
						"astId": 946,
						"contract": "Qvoting.sol:Qvoting",
						"label": "proposals",
						"offset": 0,
						"slot": "7",
						"type": "t_mapping(t_uint256,t_struct(proposal)66_storage)"
					},
					{
						"astId": 953,
						"contract": "Qvoting.sol:Qvoting",
						"label": "allVoters",
						"offset": 0,
						"slot": "8",
						"type": "t_mapping(t_address,t_mapping(t_uint256,t_struct(voter)513_storage))"
					},
					{
						"astId": 957,
						"contract": "Qvoting.sol:Qvoting",
						"label": "validProposals",
						"offset": 0,
						"slot": "9",
						"type": "t_mapping(t_uint256,t_bool)"
					}
				],
				"types": {
					"t_address": {
						"encoding": "inplace",
						"label": "address",
						"numberOfBytes": "20"
					},
					"t_bool": {
						"encoding": "inplace",
						"label": "bool",
						"numberOfBytes": "1"
					},
					"t_mapping(t_address,t_bool)": {
						"encoding": "mapping",
						"key": "t_address",
						"label": "mapping(address => bool)",
						"numberOfBytes": "32",
						"value": "t_bool"
					},
					"t_mapping(t_address,t_mapping(t_uint256,t_struct(voter)513_storage))": {
						"encoding": "mapping",
						"key": "t_address",
						"label": "mapping(address => mapping(uint256 => struct voterLibrary.voter))",
						"numberOfBytes": "32",
						"value": "t_mapping(t_uint256,t_struct(voter)513_storage)"
					},
					"t_mapping(t_address,t_struct(UserProposal)409_storage)": {
						"encoding": "mapping",
						"key": "t_address",
						"label": "mapping(address => struct UserProposalLibrary.UserProposal)",
						"numberOfBytes": "32",
						"value": "t_struct(UserProposal)409_storage"
					},
					"t_mapping(t_address,t_uint256)": {
						"encoding": "mapping",
						"key": "t_address",
						"label": "mapping(address => uint256)",
						"numberOfBytes": "32",
						"value": "t_uint256"
					},
					"t_mapping(t_string_memory_ptr,t_bool)": {
						"encoding": "mapping",
						"key": "t_string_memory_ptr",
						"label": "mapping(string => bool)",
						"numberOfBytes": "32",
						"value": "t_bool"
					},
					"t_mapping(t_string_memory_ptr,t_uint256)": {
						"encoding": "mapping",
						"key": "t_string_memory_ptr",
						"label": "mapping(string => uint256)",
						"numberOfBytes": "32",
						"value": "t_uint256"
					},
					"t_mapping(t_uint128,t_uint256)": {
						"encoding": "mapping",
						"key": "t_uint128",
						"label": "mapping(uint128 => uint256)",
						"numberOfBytes": "32",
						"value": "t_uint256"
					},
					"t_mapping(t_uint256,t_bool)": {
						"encoding": "mapping",
						"key": "t_uint256",
						"label": "mapping(uint256 => bool)",
						"numberOfBytes": "32",
						"value": "t_bool"
					},
					"t_mapping(t_uint256,t_mapping(t_uint256,t_string_storage))": {
						"encoding": "mapping",
						"key": "t_uint256",
						"label": "mapping(uint256 => mapping(uint256 => string))",
						"numberOfBytes": "32",
						"value": "t_mapping(t_uint256,t_string_storage)"
					},
					"t_mapping(t_uint256,t_string_storage)": {
						"encoding": "mapping",
						"key": "t_uint256",
						"label": "mapping(uint256 => string)",
						"numberOfBytes": "32",
						"value": "t_string_storage"
					},
					"t_mapping(t_uint256,t_struct(proposal)66_storage)": {
						"encoding": "mapping",
						"key": "t_uint256",
						"label": "mapping(uint256 => struct proposalLibrary.proposal)",
						"numberOfBytes": "32",
						"value": "t_struct(proposal)66_storage"
					},
					"t_mapping(t_uint256,t_struct(voter)513_storage)": {
						"encoding": "mapping",
						"key": "t_uint256",
						"label": "mapping(uint256 => struct voterLibrary.voter)",
						"numberOfBytes": "32",
						"value": "t_struct(voter)513_storage"
					},
					"t_string_memory_ptr": {
						"encoding": "bytes",
						"label": "string",
						"numberOfBytes": "32"
					},
					"t_string_storage": {
						"encoding": "bytes",
						"label": "string",
						"numberOfBytes": "32"
					},
					"t_struct(UserProposal)409_storage": {
						"encoding": "inplace",
						"label": "struct UserProposalLibrary.UserProposal",
						"members": [
							{
								"astId": 388,
								"contract": "Qvoting.sol:Qvoting",
								"label": "proposalCount",
								"offset": 0,
								"slot": "0",
								"type": "t_uint128"
							},
							{
								"astId": 390,
								"contract": "Qvoting.sol:Qvoting",
								"label": "responseCount",
								"offset": 16,
								"slot": "0",
								"type": "t_uint128"
							},
							{
								"astId": 394,
								"contract": "Qvoting.sol:Qvoting",
								"label": "proposalCreated",
								"offset": 0,
								"slot": "1",
								"type": "t_mapping(t_uint128,t_uint256)"
							},
							{
								"astId": 398,
								"contract": "Qvoting.sol:Qvoting",
								"label": "proposalResponsed",
								"offset": 0,
								"slot": "2",
								"type": "t_mapping(t_uint128,t_uint256)"
							},
							{
								"astId": 404,
								"contract": "Qvoting.sol:Qvoting",
								"label": "proposalAnswer",
								"offset": 0,
								"slot": "3",
								"type": "t_mapping(t_uint256,t_mapping(t_uint256,t_string_storage))"
							},
							{
								"astId": 408,
								"contract": "Qvoting.sol:Qvoting",
								"label": "responsedProposal",
								"offset": 0,
								"slot": "4",
								"type": "t_mapping(t_uint256,t_bool)"
							}
						],
						"numberOfBytes": "160"
					},
					"t_struct(proposal)66_storage": {
						"encoding": "inplace",
						"label": "struct proposalLibrary.proposal",
						"members": [
							{
								"astId": 33,
								"contract": "Qvoting.sol:Qvoting",
								"label": "creator",
								"offset": 0,
								"slot": "0",
								"type": "t_address"
							},
							{
								"astId": 35,
								"contract": "Qvoting.sol:Qvoting",
								"label": "status",
								"offset": 20,
								"slot": "0",
								"type": "t_uint8"
							},
							{
								"astId": 37,
								"contract": "Qvoting.sol:Qvoting",
								"label": "disc",
								"offset": 0,
								"slot": "1",
								"type": "t_string_storage"
							},
							{
								"astId": 39,
								"contract": "Qvoting.sol:Qvoting",
								"label": "startTime",
								"offset": 0,
								"slot": "2",
								"type": "t_uint256"
							},
							{
								"astId": 41,
								"contract": "Qvoting.sol:Qvoting",
								"label": "expirationTime",
								"offset": 0,
								"slot": "3",
								"type": "t_uint256"
							},
							{
								"astId": 43,
								"contract": "Qvoting.sol:Qvoting",
								"label": "numOfOptions",
								"offset": 0,
								"slot": "4",
								"type": "t_uint16"
							},
							{
								"astId": 45,
								"contract": "Qvoting.sol:Qvoting",
								"label": "voteRight",
								"offset": 0,
								"slot": "5",
								"type": "t_uint256"
							},
							{
								"astId": 49,
								"contract": "Qvoting.sol:Qvoting",
								"label": "voters",
								"offset": 0,
								"slot": "6",
								"type": "t_mapping(t_address,t_bool)"
							},
							{
								"astId": 53,
								"contract": "Qvoting.sol:Qvoting",
								"label": "cand",
								"offset": 0,
								"slot": "7",
								"type": "t_mapping(t_string_memory_ptr,t_bool)"
							},
							{
								"astId": 57,
								"contract": "Qvoting.sol:Qvoting",
								"label": "candHash",
								"offset": 0,
								"slot": "8",
								"type": "t_mapping(t_uint256,t_string_storage)"
							},
							{
								"astId": 61,
								"contract": "Qvoting.sol:Qvoting",
								"label": "result",
								"offset": 0,
								"slot": "9",
								"type": "t_mapping(t_uint256,t_string_storage)"
							},
							{
								"astId": 65,
								"contract": "Qvoting.sol:Qvoting",
								"label": "votes",
								"offset": 0,
								"slot": "10",
								"type": "t_mapping(t_string_memory_ptr,t_uint256)"
							}
						],
						"numberOfBytes": "352"
					},
					"t_struct(voter)513_storage": {
						"encoding": "inplace",
						"label": "struct voterLibrary.voter",
						"members": [
							{
								"astId": 506,
								"contract": "Qvoting.sol:Qvoting",
								"label": "proposalId",
								"offset": 0,
								"slot": "0",
								"type": "t_uint256"
							},
							{
								"astId": 508,
								"contract": "Qvoting.sol:Qvoting",
								"label": "voterAddress",
								"offset": 0,
								"slot": "1",
								"type": "t_address"
							},
							{
								"astId": 510,
								"contract": "Qvoting.sol:Qvoting",
								"label": "hasVoted",
								"offset": 20,
								"slot": "1",
								"type": "t_bool"
							},
							{
								"astId": 512,
								"contract": "Qvoting.sol:Qvoting",
								"label": "voteNum",
								"offset": 0,
								"slot": "2",
								"type": "t_uint256"
							}
						],
						"numberOfBytes": "96"
					},
					"t_uint128": {
						"encoding": "inplace",
						"label": "uint128",
						"numberOfBytes": "16"
					},
					"t_uint16": {
						"encoding": "inplace",
						"label": "uint16",
						"numberOfBytes": "2"
					},
					"t_uint256": {
						"encoding": "inplace",
						"label": "uint256",
						"numberOfBytes": "32"
					},
					"t_uint8": {
						"encoding": "inplace",
						"label": "uint8",
						"numberOfBytes": "1"
					}
				}
			},
			"userdoc": {
				"kind": "user",
				"methods": {},
				"version": 1
			}
		}
	}
}