{
	"lastQv.sol": {
		"Voting": {
			"abi": [
				{
					"inputs": [],
					"stateMutability": "nonpayable",
					"type": "constructor"
				},
				{
					"anonymous": false,
					"inputs": [
						{
							"indexed": true,
							"internalType": "address",
							"name": "previousOwner",
							"type": "address"
						},
						{
							"indexed": true,
							"internalType": "address",
							"name": "newOwner",
							"type": "address"
						}
					],
					"name": "OwnershipTransferred",
					"type": "event"
				},
				{
					"anonymous": false,
					"inputs": [
						{
							"indexed": false,
							"internalType": "address",
							"name": "creator",
							"type": "address"
						},
						{
							"indexed": false,
							"internalType": "string",
							"name": "description",
							"type": "string"
						},
						{
							"indexed": false,
							"internalType": "string[]",
							"name": "_options",
							"type": "string[]"
						},
						{
							"indexed": false,
							"internalType": "uint256",
							"name": "votingTimeInHours",
							"type": "uint256"
						}
					],
					"name": "ProposalCreated",
					"type": "event"
				},
				{
					"anonymous": false,
					"inputs": [
						{
							"indexed": true,
							"internalType": "bytes32",
							"name": "role",
							"type": "bytes32"
						},
						{
							"indexed": true,
							"internalType": "bytes32",
							"name": "previousAdminRole",
							"type": "bytes32"
						},
						{
							"indexed": true,
							"internalType": "bytes32",
							"name": "newAdminRole",
							"type": "bytes32"
						}
					],
					"name": "RoleAdminChanged",
					"type": "event"
				},
				{
					"anonymous": false,
					"inputs": [
						{
							"indexed": true,
							"internalType": "bytes32",
							"name": "role",
							"type": "bytes32"
						},
						{
							"indexed": true,
							"internalType": "address",
							"name": "account",
							"type": "address"
						},
						{
							"indexed": true,
							"internalType": "address",
							"name": "sender",
							"type": "address"
						}
					],
					"name": "RoleGranted",
					"type": "event"
				},
				{
					"anonymous": false,
					"inputs": [
						{
							"indexed": true,
							"internalType": "bytes32",
							"name": "role",
							"type": "bytes32"
						},
						{
							"indexed": true,
							"internalType": "address",
							"name": "account",
							"type": "address"
						},
						{
							"indexed": true,
							"internalType": "address",
							"name": "sender",
							"type": "address"
						}
					],
					"name": "RoleRevoked",
					"type": "event"
				},
				{
					"anonymous": false,
					"inputs": [
						{
							"indexed": false,
							"internalType": "address",
							"name": "voter",
							"type": "address"
						},
						{
							"indexed": false,
							"internalType": "uint256",
							"name": "ProposalID",
							"type": "uint256"
						},
						{
							"indexed": false,
							"internalType": "uint256[]",
							"name": "_tokens",
							"type": "uint256[]"
						}
					],
					"name": "VoteCasted",
					"type": "event"
				},
				{
					"inputs": [],
					"name": "DEFAULT_ADMIN_ROLE",
					"outputs": [
						{
							"internalType": "bytes32",
							"name": "",
							"type": "bytes32"
						}
					],
					"stateMutability": "view",
					"type": "function"
				},
				{
					"inputs": [],
					"name": "ProposalCount",
					"outputs": [
						{
							"internalType": "uint256",
							"name": "",
							"type": "uint256"
						}
					],
					"stateMutability": "view",
					"type": "function"
				},
				{
					"inputs": [
						{
							"internalType": "uint256",
							"name": "",
							"type": "uint256"
						}
					],
					"name": "Proposals",
					"outputs": [
						{
							"internalType": "address",
							"name": "creator",
							"type": "address"
						},
						{
							"internalType": "enum Voting.ProposalStatus",
							"name": "status",
							"type": "uint8"
						},
						{
							"internalType": "string",
							"name": "description",
							"type": "string"
						},
						{
							"internalType": "uint256",
							"name": "expirationTime",
							"type": "uint256"
						},
						{
							"internalType": "uint256",
							"name": "numOfOptions",
							"type": "uint256"
						}
					],
					"stateMutability": "view",
					"type": "function"
				},
				{
					"inputs": [
						{
							"internalType": "address",
							"name": "account",
							"type": "address"
						}
					],
					"name": "balanceOf",
					"outputs": [
						{
							"internalType": "uint256",
							"name": "",
							"type": "uint256"
						}
					],
					"stateMutability": "view",
					"type": "function"
				},
				{
					"inputs": [
						{
							"internalType": "uint256",
							"name": "_ProposalID",
							"type": "uint256"
						},
						{
							"internalType": "uint256[]",
							"name": "_tokens",
							"type": "uint256[]"
						}
					],
					"name": "castVote",
					"outputs": [],
					"stateMutability": "nonpayable",
					"type": "function"
				},
				{
					"inputs": [],
					"name": "checkAdmin",
					"outputs": [
						{
							"internalType": "bool",
							"name": "",
							"type": "bool"
						}
					],
					"stateMutability": "view",
					"type": "function"
				},
				{
					"inputs": [
						{
							"internalType": "uint256",
							"name": "_ProposalID",
							"type": "uint256"
						}
					],
					"name": "countVotes",
					"outputs": [
						{
							"internalType": "uint256",
							"name": "",
							"type": "uint256"
						},
						{
							"internalType": "uint256",
							"name": "",
							"type": "uint256"
						},
						{
							"internalType": "string",
							"name": "",
							"type": "string"
						}
					],
					"stateMutability": "view",
					"type": "function"
				},
				{
					"inputs": [
						{
							"internalType": "string",
							"name": "_description",
							"type": "string"
						},
						{
							"internalType": "string[]",
							"name": "_options",
							"type": "string[]"
						},
						{
							"internalType": "uint256",
							"name": "_voteExpirationTime",
							"type": "uint256"
						}
					],
					"name": "createProposal",
					"outputs": [
						{
							"internalType": "uint256",
							"name": "",
							"type": "uint256"
						}
					],
					"stateMutability": "nonpayable",
					"type": "function"
				},
				{
					"inputs": [
						{
							"internalType": "uint256",
							"name": "_ProposalID",
							"type": "uint256"
						}
					],
					"name": "getDetails",
					"outputs": [
						{
							"internalType": "string",
							"name": "",
							"type": "string"
						},
						{
							"internalType": "string[]",
							"name": "",
							"type": "string[]"
						},
						{
							"internalType": "uint256",
							"name": "",
							"type": "uint256"
						},
						{
							"internalType": "enum Voting.ProposalStatus",
							"name": "",
							"type": "uint8"
						}
					],
					"stateMutability": "view",
					"type": "function"
				},
				{
					"inputs": [],
					"name": "getProposalCount",
					"outputs": [
						{
							"internalType": "uint256",
							"name": "",
							"type": "uint256"
						}
					],
					"stateMutability": "view",
					"type": "function"
				},
				{
					"inputs": [
						{
							"internalType": "uint256",
							"name": "_ProposalID",
							"type": "uint256"
						}
					],
					"name": "getProposalExpirationTime",
					"outputs": [
						{
							"internalType": "uint256",
							"name": "",
							"type": "uint256"
						}
					],
					"stateMutability": "view",
					"type": "function"
				},
				{
					"inputs": [
						{
							"internalType": "uint256",
							"name": "_ProposalID",
							"type": "uint256"
						}
					],
					"name": "getProposalStatus",
					"outputs": [
						{
							"internalType": "enum Voting.ProposalStatus",
							"name": "",
							"type": "uint8"
						}
					],
					"stateMutability": "view",
					"type": "function"
				},
				{
					"inputs": [
						{
							"internalType": "bytes32",
							"name": "role",
							"type": "bytes32"
						}
					],
					"name": "getRoleAdmin",
					"outputs": [
						{
							"internalType": "bytes32",
							"name": "",
							"type": "bytes32"
						}
					],
					"stateMutability": "view",
					"type": "function"
				},
				{
					"inputs": [
						{
							"internalType": "uint256",
							"name": "_ProposalID",
							"type": "uint256"
						},
						{
							"internalType": "uint256",
							"name": "optionNum",
							"type": "uint256"
						}
					],
					"name": "getWeight",
					"outputs": [
						{
							"internalType": "uint256",
							"name": "",
							"type": "uint256"
						}
					],
					"stateMutability": "view",
					"type": "function"
				},
				{
					"inputs": [
						{
							"internalType": "bytes32",
							"name": "role",
							"type": "bytes32"
						},
						{
							"internalType": "address",
							"name": "account",
							"type": "address"
						}
					],
					"name": "grantRole",
					"outputs": [],
					"stateMutability": "nonpayable",
					"type": "function"
				},
				{
					"inputs": [
						{
							"internalType": "bytes32",
							"name": "role",
							"type": "bytes32"
						},
						{
							"internalType": "address",
							"name": "account",
							"type": "address"
						}
					],
					"name": "hasRole",
					"outputs": [
						{
							"internalType": "bool",
							"name": "",
							"type": "bool"
						}
					],
					"stateMutability": "view",
					"type": "function"
				},
				{
					"inputs": [
						{
							"internalType": "address",
							"name": "account",
							"type": "address"
						},
						{
							"internalType": "uint256",
							"name": "amount",
							"type": "uint256"
						}
					],
					"name": "mint",
					"outputs": [],
					"stateMutability": "nonpayable",
					"type": "function"
				},
				{
					"inputs": [],
					"name": "name",
					"outputs": [
						{
							"internalType": "string",
							"name": "",
							"type": "string"
						}
					],
					"stateMutability": "view",
					"type": "function"
				},
				{
					"inputs": [],
					"name": "owner",
					"outputs": [
						{
							"internalType": "address",
							"name": "",
							"type": "address"
						}
					],
					"stateMutability": "view",
					"type": "function"
				},
				{
					"inputs": [],
					"name": "renounceOwnership",
					"outputs": [],
					"stateMutability": "nonpayable",
					"type": "function"
				},
				{
					"inputs": [
						{
							"internalType": "bytes32",
							"name": "role",
							"type": "bytes32"
						},
						{
							"internalType": "address",
							"name": "account",
							"type": "address"
						}
					],
					"name": "renounceRole",
					"outputs": [],
					"stateMutability": "nonpayable",
					"type": "function"
				},
				{
					"inputs": [
						{
							"internalType": "bytes32",
							"name": "role",
							"type": "bytes32"
						},
						{
							"internalType": "address",
							"name": "account",
							"type": "address"
						}
					],
					"name": "revokeRole",
					"outputs": [],
					"stateMutability": "nonpayable",
					"type": "function"
				},
				{
					"inputs": [
						{
							"internalType": "uint256",
							"name": "_ProposalID",
							"type": "uint256"
						}
					],
					"name": "setProposalToEnded",
					"outputs": [],
					"stateMutability": "nonpayable",
					"type": "function"
				},
				{
					"inputs": [
						{
							"internalType": "uint256",
							"name": "_ProposalID",
							"type": "uint256"
						}
					],
					"name": "setProposalToTally",
					"outputs": [],
					"stateMutability": "nonpayable",
					"type": "function"
				},
				{
					"inputs": [
						{
							"internalType": "bytes4",
							"name": "interfaceId",
							"type": "bytes4"
						}
					],
					"name": "supportsInterface",
					"outputs": [
						{
							"internalType": "bool",
							"name": "",
							"type": "bool"
						}
					],
					"stateMutability": "view",
					"type": "function"
				},
				{
					"inputs": [],
					"name": "symbol",
					"outputs": [
						{
							"internalType": "string",
							"name": "",
							"type": "string"
						}
					],
					"stateMutability": "view",
					"type": "function"
				},
				{
					"inputs": [
						{
							"internalType": "address",
							"name": "newOwner",
							"type": "address"
						}
					],
					"name": "transferOwnership",
					"outputs": [],
					"stateMutability": "nonpayable",
					"type": "function"
				},
				{
					"inputs": [
						{
							"internalType": "uint256",
							"name": "_ProposalID",
							"type": "uint256"
						},
						{
							"internalType": "address",
							"name": "_user",
							"type": "address"
						}
					],
					"name": "userHasVoted",
					"outputs": [
						{
							"internalType": "bool",
							"name": "",
							"type": "bool"
						}
					],
					"stateMutability": "view",
					"type": "function"
				}
			],
			"devdoc": {
				"kind": "dev",
				"methods": {
					"balanceOf(address)": {
						"details": "returns the balance of an account"
					},
					"countVotes(uint256)": {
						"details": "to get winner of poll.",
						"params": {
							"_ProposalID": "the proposal id returns index of options, total weight of option and name of option"
						}
					},
					"getRoleAdmin(bytes32)": {
						"details": "Returns the admin role that controls `role`. See {grantRole} and {revokeRole}. To change a role's admin, use {_setRoleAdmin}."
					},
					"grantRole(bytes32,address)": {
						"details": "Grants `role` to `account`. If `account` had not been already granted `role`, emits a {RoleGranted} event. Requirements: - the caller must have ``role``'s admin role. May emit a {RoleGranted} event."
					},
					"hasRole(bytes32,address)": {
						"details": "Returns `true` if `account` has been granted `role`."
					},
					"mint(address,uint256)": {
						"details": "minting more tokens for an account"
					},
					"owner()": {
						"details": "Returns the address of the current owner."
					},
					"renounceOwnership()": {
						"details": "Leaves the contract without owner. It will not be possible to call `onlyOwner` functions anymore. Can only be called by the current owner. NOTE: Renouncing ownership will leave the contract without an owner, thereby removing any functionality that is only available to the owner."
					},
					"renounceRole(bytes32,address)": {
						"details": "Revokes `role` from the calling account. Roles are often managed via {grantRole} and {revokeRole}: this function's purpose is to provide a mechanism for accounts to lose their privileges if they are compromised (such as when a trusted device is misplaced). If the calling account had been revoked `role`, emits a {RoleRevoked} event. Requirements: - the caller must be `account`. May emit a {RoleRevoked} event."
					},
					"revokeRole(bytes32,address)": {
						"details": "Revokes `role` from `account`. If `account` had been granted `role`, emits a {RoleRevoked} event. Requirements: - the caller must have ``role``'s admin role. May emit a {RoleRevoked} event."
					},
					"supportsInterface(bytes4)": {
						"details": "See {IERC165-supportsInterface}."
					},
					"transferOwnership(address)": {
						"details": "Transfers ownership of the contract to a new account (`newOwner`). Can only be called by the current owner."
					}
				},
				"version": 1
			},
			"evm": {
				"assembly": "    /* \"lastQv.sol\":235:8384  contract Voting is Ownable, AccessControl {\r... */\n  mstore(0x40, 0x80)\n    /* \"lastQv.sol\":1365:1472  constructor() public {\r... */\n  callvalue\n  dup1\n  iszero\n  tag_1\n  jumpi\n  0x00\n  dup1\n  revert\ntag_1:\n  pop\n    /* \"@openzeppelin/contracts/access/Ownable.sol\":936:968  _transferOwnership(_msgSender()) */\n  tag_5\n    /* \"@openzeppelin/contracts/access/Ownable.sol\":955:967  _msgSender() */\n  tag_6\n    /* \"@openzeppelin/contracts/access/Ownable.sol\":955:965  _msgSender */\n  shl(0x20, tag_7)\n    /* \"@openzeppelin/contracts/access/Ownable.sol\":955:967  _msgSender() */\n  0x20\n  shr\n  jump\t// in\ntag_6:\n    /* \"@openzeppelin/contracts/access/Ownable.sol\":936:954  _transferOwnership */\n  shl(0x20, tag_8)\n    /* \"@openzeppelin/contracts/access/Ownable.sol\":936:968  _transferOwnership(_msgSender()) */\n  0x20\n  shr\n  jump\t// in\ntag_5:\n    /* \"lastQv.sol\":1397:1409  symbol = \"V\" */\n  mload(0x40)\n  dup1\n  0x40\n  add\n  0x40\n  mstore\n  dup1\n  0x01\n  dup2\n  mstore\n  0x20\n  add\n  0x5600000000000000000000000000000000000000000000000000000000000000\n  dup2\n  mstore\n  pop\n    /* \"lastQv.sol\":1397:1403  symbol */\n  0x03\n    /* \"lastQv.sol\":1397:1409  symbol = \"V\" */\n  swap1\n  dup1\n  mload\n  swap1\n  0x20\n  add\n  swap1\n  tag_10\n  swap3\n  swap2\n  swap1\n  tag_11\n  jump\t// in\ntag_10:\n  pop\n    /* \"lastQv.sol\":1420:1435  name = \"Voting\" */\n  mload(0x40)\n  dup1\n  0x40\n  add\n  0x40\n  mstore\n  dup1\n  0x06\n  dup2\n  mstore\n  0x20\n  add\n  0x566f74696e670000000000000000000000000000000000000000000000000000\n  dup2\n  mstore\n  pop\n    /* \"lastQv.sol\":1420:1424  name */\n  0x04\n    /* \"lastQv.sol\":1420:1435  name = \"Voting\" */\n  swap1\n  dup1\n  mload\n  swap1\n  0x20\n  add\n  swap1\n  tag_12\n  swap3\n  swap2\n  swap1\n  tag_11\n  jump\t// in\ntag_12:\n  pop\n    /* \"lastQv.sol\":1454:1464  msg.sender */\n  caller\n    /* \"lastQv.sol\":1446:1451  Owner */\n  0x08\n  0x00\n    /* \"lastQv.sol\":1446:1464  Owner = msg.sender */\n  0x0100\n  exp\n  dup2\n  sload\n  dup2\n  0xffffffffffffffffffffffffffffffffffffffff\n  mul\n  not\n  and\n  swap1\n  dup4\n  0xffffffffffffffffffffffffffffffffffffffff\n  and\n  mul\n  or\n  swap1\n  sstore\n  pop\n    /* \"lastQv.sol\":235:8384  contract Voting is Ownable, AccessControl {\r... */\n  jump(tag_13)\n    /* \"@openzeppelin/contracts/utils/Context.sol\":640:736  function _msgSender() internal view virtual returns (address) {... */\ntag_7:\n    /* \"@openzeppelin/contracts/utils/Context.sol\":693:700  address */\n  0x00\n    /* \"@openzeppelin/contracts/utils/Context.sol\":719:729  msg.sender */\n  caller\n    /* \"@openzeppelin/contracts/utils/Context.sol\":712:729  return msg.sender */\n  swap1\n  pop\n    /* \"@openzeppelin/contracts/utils/Context.sol\":640:736  function _msgSender() internal view virtual returns (address) {... */\n  swap1\n  jump\t// out\n    /* \"@openzeppelin/contracts/access/Ownable.sol\":2433:2620  function _transferOwnership(address newOwner) internal virtual {... */\ntag_8:\n    /* \"@openzeppelin/contracts/access/Ownable.sol\":2506:2522  address oldOwner */\n  0x00\n    /* \"@openzeppelin/contracts/access/Ownable.sol\":2525:2531  _owner */\n  dup1\n  0x00\n  swap1\n  sload\n  swap1\n  0x0100\n  exp\n  swap1\n  div\n  0xffffffffffffffffffffffffffffffffffffffff\n  and\n    /* \"@openzeppelin/contracts/access/Ownable.sol\":2506:2531  address oldOwner = _owner */\n  swap1\n  pop\n    /* \"@openzeppelin/contracts/access/Ownable.sol\":2550:2558  newOwner */\n  dup2\n    /* \"@openzeppelin/contracts/access/Ownable.sol\":2541:2547  _owner */\n  0x00\n  dup1\n    /* \"@openzeppelin/contracts/access/Ownable.sol\":2541:2558  _owner = newOwner */\n  0x0100\n  exp\n  dup2\n  sload\n  dup2\n  0xffffffffffffffffffffffffffffffffffffffff\n  mul\n  not\n  and\n  swap1\n  dup4\n  0xffffffffffffffffffffffffffffffffffffffff\n  and\n  mul\n  or\n  swap1\n  sstore\n  pop\n    /* \"@openzeppelin/contracts/access/Ownable.sol\":2604:2612  newOwner */\n  dup2\n    /* \"@openzeppelin/contracts/access/Ownable.sol\":2573:2613  OwnershipTransferred(oldOwner, newOwner) */\n  0xffffffffffffffffffffffffffffffffffffffff\n  and\n    /* \"@openzeppelin/contracts/access/Ownable.sol\":2594:2602  oldOwner */\n  dup2\n    /* \"@openzeppelin/contracts/access/Ownable.sol\":2573:2613  OwnershipTransferred(oldOwner, newOwner) */\n  0xffffffffffffffffffffffffffffffffffffffff\n  and\n  0x8be0079c531659141344cd1fd0a4f28419497f9722a3daafe3b4186f6b6457e0\n  mload(0x40)\n  mload(0x40)\n  dup1\n  swap2\n  sub\n  swap1\n  log3\n    /* \"@openzeppelin/contracts/access/Ownable.sol\":2496:2620  {... */\n  pop\n    /* \"@openzeppelin/contracts/access/Ownable.sol\":2433:2620  function _transferOwnership(address newOwner) internal virtual {... */\n  pop\n  jump\t// out\n    /* \"lastQv.sol\":235:8384  contract Voting is Ownable, AccessControl {\r... */\ntag_11:\n  dup3\n  dup1\n  sload\n  tag_16\n  swap1\n  tag_17\n  jump\t// in\ntag_16:\n  swap1\n  0x00\n  mstore\n  keccak256(0x00, 0x20)\n  swap1\n  0x1f\n  add\n  0x20\n  swap1\n  div\n  dup2\n  add\n  swap3\n  dup3\n  tag_19\n  jumpi\n  0x00\n  dup6\n  sstore\n  jump(tag_18)\ntag_19:\n  dup3\n  0x1f\n  lt\n  tag_20\n  jumpi\n  dup1\n  mload\n  not(0xff)\n  and\n  dup4\n  dup1\n  add\n  or\n  dup6\n  sstore\n  jump(tag_18)\ntag_20:\n  dup3\n  dup1\n  add\n  0x01\n  add\n  dup6\n  sstore\n  dup3\n  iszero\n  tag_18\n  jumpi\n  swap2\n  dup3\n  add\ntag_21:\n  dup3\n  dup2\n  gt\n  iszero\n  tag_22\n  jumpi\n  dup3\n  mload\n  dup3\n  sstore\n  swap2\n  0x20\n  add\n  swap2\n  swap1\n  0x01\n  add\n  swap1\n  jump(tag_21)\ntag_22:\ntag_18:\n  pop\n  swap1\n  pop\n  tag_23\n  swap2\n  swap1\n  tag_24\n  jump\t// in\ntag_23:\n  pop\n  swap1\n  jump\t// out\ntag_24:\ntag_25:\n  dup1\n  dup3\n  gt\n  iszero\n  tag_26\n  jumpi\n  0x00\n  dup2\n  0x00\n  swap1\n  sstore\n  pop\n  0x01\n  add\n  jump(tag_25)\ntag_26:\n  pop\n  swap1\n  jump\t// out\n    /* \"#utility.yul\":7:327   */\ntag_17:\n    /* \"#utility.yul\":51:57   */\n  0x00\n    /* \"#utility.yul\":88:89   */\n  0x02\n    /* \"#utility.yul\":82:86   */\n  dup3\n    /* \"#utility.yul\":78:90   */\n  div\n    /* \"#utility.yul\":68:90   */\n  swap1\n  pop\n    /* \"#utility.yul\":135:136   */\n  0x01\n    /* \"#utility.yul\":129:133   */\n  dup3\n    /* \"#utility.yul\":125:137   */\n  and\n    /* \"#utility.yul\":156:174   */\n  dup1\n    /* \"#utility.yul\":146:227   */\n  tag_29\n  jumpi\n    /* \"#utility.yul\":212:216   */\n  0x7f\n    /* \"#utility.yul\":204:210   */\n  dup3\n    /* \"#utility.yul\":200:217   */\n  and\n    /* \"#utility.yul\":190:217   */\n  swap2\n  pop\n    /* \"#utility.yul\":146:227   */\ntag_29:\n    /* \"#utility.yul\":274:276   */\n  0x20\n    /* \"#utility.yul\":266:272   */\n  dup3\n    /* \"#utility.yul\":263:277   */\n  lt\n    /* \"#utility.yul\":243:261   */\n  dup2\n    /* \"#utility.yul\":240:278   */\n  eq\n    /* \"#utility.yul\":237:321   */\n  iszero\n  tag_30\n  jumpi\n    /* \"#utility.yul\":293:311   */\n  tag_31\n  tag_32\n  jump\t// in\ntag_31:\n    /* \"#utility.yul\":237:321   */\ntag_30:\n    /* \"#utility.yul\":58:327   */\n  pop\n    /* \"#utility.yul\":7:327   */\n  swap2\n  swap1\n  pop\n  jump\t// out\n    /* \"#utility.yul\":333:513   */\ntag_32:\n    /* \"#utility.yul\":381:458   */\n  0x4e487b7100000000000000000000000000000000000000000000000000000000\n    /* \"#utility.yul\":378:379   */\n  0x00\n    /* \"#utility.yul\":371:459   */\n  mstore\n    /* \"#utility.yul\":478:482   */\n  0x22\n    /* \"#utility.yul\":475:476   */\n  0x04\n    /* \"#utility.yul\":468:483   */\n  mstore\n    /* \"#utility.yul\":502:506   */\n  0x24\n    /* \"#utility.yul\":499:500   */\n  0x00\n    /* \"#utility.yul\":492:507   */\n  revert\n    /* \"lastQv.sol\":235:8384  contract Voting is Ownable, AccessControl {\r... */\ntag_13:\n  dataSize(sub_0)\n  dup1\n  dataOffset(sub_0)\n  0x00\n  codecopy\n  0x00\n  return\nstop\n\nsub_0: assembly {\n        /* \"lastQv.sol\":235:8384  contract Voting is Ownable, AccessControl {\r... */\n      mstore(0x40, 0x80)\n      callvalue\n      dup1\n      iszero\n      tag_1\n      jumpi\n      0x00\n      dup1\n      revert\n    tag_1:\n      pop\n      jumpi(tag_2, lt(calldatasize, 0x04))\n      shr(0xe0, calldataload(0x00))\n      dup1\n      0x5fc48d7e\n      gt\n      tag_31\n      jumpi\n      dup1\n      0xab150226\n      gt\n      tag_32\n      jumpi\n      dup1\n      0xc08cc02d\n      gt\n      tag_33\n      jumpi\n      dup1\n      0xc08cc02d\n      eq\n      tag_27\n      jumpi\n      dup1\n      0xd1dbe7d8\n      eq\n      tag_28\n      jumpi\n      dup1\n      0xd547741f\n      eq\n      tag_29\n      jumpi\n      dup1\n      0xf2fde38b\n      eq\n      tag_30\n      jumpi\n      jump(tag_2)\n    tag_33:\n      dup1\n      0xab150226\n      eq\n      tag_24\n      jumpi\n      dup1\n      0xb93a89f7\n      eq\n      tag_25\n      jumpi\n      dup1\n      0xbe747c1c\n      eq\n      tag_26\n      jumpi\n      jump(tag_2)\n    tag_32:\n      dup1\n      0x8da5cb5b\n      gt\n      tag_34\n      jumpi\n      dup1\n      0x8da5cb5b\n      eq\n      tag_20\n      jumpi\n      dup1\n      0x91d14854\n      eq\n      tag_21\n      jumpi\n      dup1\n      0x95d89b41\n      eq\n      tag_22\n      jumpi\n      dup1\n      0xa217fddf\n      eq\n      tag_23\n      jumpi\n      jump(tag_2)\n    tag_34:\n      dup1\n      0x5fc48d7e\n      eq\n      tag_17\n      jumpi\n      dup1\n      0x70a08231\n      eq\n      tag_18\n      jumpi\n      dup1\n      0x715018a6\n      eq\n      tag_19\n      jumpi\n      jump(tag_2)\n    tag_31:\n      dup1\n      0x2fa48e9e\n      gt\n      tag_35\n      jumpi\n      dup1\n      0x401853b7\n      gt\n      tag_36\n      jumpi\n      dup1\n      0x401853b7\n      eq\n      tag_13\n      jumpi\n      dup1\n      0x40c10f19\n      eq\n      tag_14\n      jumpi\n      dup1\n      0x4c3bd9d6\n      eq\n      tag_15\n      jumpi\n      dup1\n      0x4d5f9eba\n      eq\n      tag_16\n      jumpi\n      jump(tag_2)\n    tag_36:\n      dup1\n      0x2fa48e9e\n      eq\n      tag_10\n      jumpi\n      dup1\n      0x36568abe\n      eq\n      tag_11\n      jumpi\n      dup1\n      0x3989ae34\n      eq\n      tag_12\n      jumpi\n      jump(tag_2)\n    tag_35:\n      dup1\n      0x1840f0ca\n      gt\n      tag_37\n      jumpi\n      dup1\n      0x1840f0ca\n      eq\n      tag_6\n      jumpi\n      dup1\n      0x248a9ca3\n      eq\n      tag_7\n      jumpi\n      dup1\n      0x2d5e9d29\n      eq\n      tag_8\n      jumpi\n      dup1\n      0x2f2ff15d\n      eq\n      tag_9\n      jumpi\n      jump(tag_2)\n    tag_37:\n      dup1\n      0x01ffc9a7\n      eq\n      tag_3\n      jumpi\n      dup1\n      0x06fdde03\n      eq\n      tag_4\n      jumpi\n      dup1\n      0x0f39ee72\n      eq\n      tag_5\n      jumpi\n    tag_2:\n      0x00\n      dup1\n      revert\n        /* \"@openzeppelin/contracts/access/AccessControl.sol\":2606:2808  function supportsInterface(bytes4 interfaceId) public view virtual override returns (bool) {... */\n    tag_3:\n      tag_38\n      0x04\n      dup1\n      calldatasize\n      sub\n      dup2\n      add\n      swap1\n      tag_39\n      swap2\n      swap1\n      tag_40\n      jump\t// in\n    tag_39:\n      tag_41\n      jump\t// in\n    tag_38:\n      mload(0x40)\n      tag_42\n      swap2\n      swap1\n      tag_43\n      jump\t// in\n    tag_42:\n      mload(0x40)\n      dup1\n      swap2\n      sub\n      swap1\n      return\n        /* \"lastQv.sol\":379:397  string public name */\n    tag_4:\n      tag_44\n      tag_45\n      jump\t// in\n    tag_44:\n      mload(0x40)\n      tag_46\n      swap2\n      swap1\n      tag_47\n      jump\t// in\n    tag_46:\n      mload(0x40)\n      dup1\n      swap2\n      sub\n      swap1\n      return\n        /* \"lastQv.sol\":6283:6483  function getWeight(uint256 _ProposalID, uint256 optionNum)\r... */\n    tag_5:\n      tag_48\n      0x04\n      dup1\n      calldatasize\n      sub\n      dup2\n      add\n      swap1\n      tag_49\n      swap2\n      swap1\n      tag_50\n      jump\t// in\n    tag_49:\n      tag_51\n      jump\t// in\n    tag_48:\n      mload(0x40)\n      tag_52\n      swap2\n      swap1\n      tag_53\n      jump\t// in\n    tag_52:\n      mload(0x40)\n      dup1\n      swap2\n      sub\n      swap1\n      return\n        /* \"lastQv.sol\":5607:6275  function countVotes(uint256 _ProposalID)\r... */\n    tag_6:\n      tag_54\n      0x04\n      dup1\n      calldatasize\n      sub\n      dup2\n      add\n      swap1\n      tag_55\n      swap2\n      swap1\n      tag_56\n      jump\t// in\n    tag_55:\n      tag_57\n      jump\t// in\n    tag_54:\n      mload(0x40)\n      tag_58\n      swap4\n      swap3\n      swap2\n      swap1\n      tag_59\n      jump\t// in\n    tag_58:\n      mload(0x40)\n      dup1\n      swap2\n      sub\n      swap1\n      return\n        /* \"@openzeppelin/contracts/access/AccessControl.sol\":4391:4520  function getRoleAdmin(bytes32 role) public view virtual override returns (bytes32) {... */\n    tag_7:\n      tag_60\n      0x04\n      dup1\n      calldatasize\n      sub\n      dup2\n      add\n      swap1\n      tag_61\n      swap2\n      swap1\n      tag_62\n      jump\t// in\n    tag_61:\n      tag_63\n      jump\t// in\n    tag_60:\n      mload(0x40)\n      tag_64\n      swap2\n      swap1\n      tag_65\n      jump\t// in\n    tag_64:\n      mload(0x40)\n      dup1\n      swap2\n      sub\n      swap1\n      return\n        /* \"lastQv.sol\":2855:3343  function setProposalToTally(uint256 _ProposalID)\r... */\n    tag_8:\n      tag_66\n      0x04\n      dup1\n      calldatasize\n      sub\n      dup2\n      add\n      swap1\n      tag_67\n      swap2\n      swap1\n      tag_56\n      jump\t// in\n    tag_67:\n      tag_68\n      jump\t// in\n    tag_66:\n      stop\n        /* \"@openzeppelin/contracts/access/AccessControl.sol\":4816:4961  function grantRole(bytes32 role, address account) public virtual override onlyRole(getRoleAdmin(role)) {... */\n    tag_9:\n      tag_69\n      0x04\n      dup1\n      calldatasize\n      sub\n      dup2\n      add\n      swap1\n      tag_70\n      swap2\n      swap1\n      tag_71\n      jump\t// in\n    tag_70:\n      tag_72\n      jump\t// in\n    tag_69:\n      stop\n        /* \"lastQv.sol\":6491:7655  function castVote(uint256 _ProposalID, uint256[] memory _tokens)\r... */\n    tag_10:\n      tag_73\n      0x04\n      dup1\n      calldatasize\n      sub\n      dup2\n      add\n      swap1\n      tag_74\n      swap2\n      swap1\n      tag_75\n      jump\t// in\n    tag_74:\n      tag_76\n      jump\t// in\n    tag_73:\n      stop\n        /* \"@openzeppelin/contracts/access/AccessControl.sol\":5925:6139  function renounceRole(bytes32 role, address account) public virtual override {... */\n    tag_11:\n      tag_77\n      0x04\n      dup1\n      calldatasize\n      sub\n      dup2\n      add\n      swap1\n      tag_78\n      swap2\n      swap1\n      tag_71\n      jump\t// in\n    tag_78:\n      tag_79\n      jump\t// in\n    tag_77:\n      stop\n        /* \"lastQv.sol\":1641:2742  function createProposal(\r... */\n    tag_12:\n      tag_80\n      0x04\n      dup1\n      calldatasize\n      sub\n      dup2\n      add\n      swap1\n      tag_81\n      swap2\n      swap1\n      tag_82\n      jump\t// in\n    tag_81:\n      tag_83\n      jump\t// in\n    tag_80:\n      mload(0x40)\n      tag_84\n      swap2\n      swap1\n      tag_53\n      jump\t// in\n    tag_84:\n      mload(0x40)\n      dup1\n      swap2\n      sub\n      swap1\n      return\n        /* \"lastQv.sol\":4551:4759  function getProposalStatus(uint256 _ProposalID)\r... */\n    tag_13:\n      tag_85\n      0x04\n      dup1\n      calldatasize\n      sub\n      dup2\n      add\n      swap1\n      tag_86\n      swap2\n      swap1\n      tag_56\n      jump\t// in\n    tag_86:\n      tag_87\n      jump\t// in\n    tag_85:\n      mload(0x40)\n      tag_88\n      swap2\n      swap1\n      tag_89\n      jump\t// in\n    tag_88:\n      mload(0x40)\n      dup1\n      swap2\n      sub\n      swap1\n      return\n        /* \"lastQv.sol\":7944:8198  function mint(address account, uint256 amount) public onlyOwner {\r... */\n    tag_14:\n      tag_90\n      0x04\n      dup1\n      calldatasize\n      sub\n      dup2\n      add\n      swap1\n      tag_91\n      swap2\n      swap1\n      tag_92\n      jump\t// in\n    tag_91:\n      tag_93\n      jump\t// in\n    tag_90:\n      stop\n        /* \"lastQv.sol\":4057:4543  function setProposalToEnded(uint256 _ProposalID)\r... */\n    tag_15:\n      tag_94\n      0x04\n      dup1\n      calldatasize\n      sub\n      dup2\n      add\n      swap1\n      tag_95\n      swap2\n      swap1\n      tag_56\n      jump\t// in\n    tag_95:\n      tag_96\n      jump\t// in\n    tag_94:\n      stop\n        /* \"lastQv.sol\":4767:4984  function getProposalExpirationTime(uint256 _ProposalID)\r... */\n    tag_16:\n      tag_97\n      0x04\n      dup1\n      calldatasize\n      sub\n      dup2\n      add\n      swap1\n      tag_98\n      swap2\n      swap1\n      tag_56\n      jump\t// in\n    tag_98:\n      tag_99\n      jump\t// in\n    tag_97:\n      mload(0x40)\n      tag_100\n      swap2\n      swap1\n      tag_53\n      jump\t// in\n    tag_100:\n      mload(0x40)\n      dup1\n      swap2\n      sub\n      swap1\n      return\n        /* \"lastQv.sol\":5195:5424  function userHasVoted(uint256 _ProposalID, address _user)\r... */\n    tag_17:\n      tag_101\n      0x04\n      dup1\n      calldatasize\n      sub\n      dup2\n      add\n      swap1\n      tag_102\n      swap2\n      swap1\n      tag_103\n      jump\t// in\n    tag_102:\n      tag_104\n      jump\t// in\n    tag_101:\n      mload(0x40)\n      tag_105\n      swap2\n      swap1\n      tag_43\n      jump\t// in\n    tag_105:\n      mload(0x40)\n      dup1\n      swap2\n      sub\n      swap1\n      return\n        /* \"lastQv.sol\":8271:8381  function balanceOf(address account) public view returns (uint256) {\r... */\n    tag_18:\n      tag_106\n      0x04\n      dup1\n      calldatasize\n      sub\n      dup2\n      add\n      swap1\n      tag_107\n      swap2\n      swap1\n      tag_108\n      jump\t// in\n    tag_107:\n      tag_109\n      jump\t// in\n    tag_106:\n      mload(0x40)\n      tag_110\n      swap2\n      swap1\n      tag_53\n      jump\t// in\n    tag_110:\n      mload(0x40)\n      dup1\n      swap2\n      sub\n      swap1\n      return\n        /* \"@openzeppelin/contracts/access/Ownable.sol\":1831:1932  function renounceOwnership() public virtual onlyOwner {... */\n    tag_19:\n      tag_111\n      tag_112\n      jump\t// in\n    tag_111:\n      stop\n        /* \"@openzeppelin/contracts/access/Ownable.sol\":1201:1286  function owner() public view virtual returns (address) {... */\n    tag_20:\n      tag_113\n      tag_114\n      jump\t// in\n    tag_113:\n      mload(0x40)\n      tag_115\n      swap2\n      swap1\n      tag_116\n      jump\t// in\n    tag_115:\n      mload(0x40)\n      dup1\n      swap2\n      sub\n      swap1\n      return\n        /* \"@openzeppelin/contracts/access/AccessControl.sol\":2895:3040  function hasRole(bytes32 role, address account) public view virtual override returns (bool) {... */\n    tag_21:\n      tag_117\n      0x04\n      dup1\n      calldatasize\n      sub\n      dup2\n      add\n      swap1\n      tag_118\n      swap2\n      swap1\n      tag_71\n      jump\t// in\n    tag_118:\n      tag_119\n      jump\t// in\n    tag_117:\n      mload(0x40)\n      tag_120\n      swap2\n      swap1\n      tag_43\n      jump\t// in\n    tag_120:\n      mload(0x40)\n      dup1\n      swap2\n      sub\n      swap1\n      return\n        /* \"lastQv.sol\":352:372  string public symbol */\n    tag_22:\n      tag_121\n      tag_122\n      jump\t// in\n    tag_121:\n      mload(0x40)\n      tag_123\n      swap2\n      swap1\n      tag_47\n      jump\t// in\n    tag_123:\n      mload(0x40)\n      dup1\n      swap2\n      sub\n      swap1\n      return\n        /* \"@openzeppelin/contracts/access/AccessControl.sol\":2027:2076  bytes32 public constant DEFAULT_ADMIN_ROLE = 0x00 */\n    tag_23:\n      tag_124\n      tag_125\n      jump\t// in\n    tag_124:\n      mload(0x40)\n      tag_126\n      swap2\n      swap1\n      tag_65\n      jump\t// in\n    tag_126:\n      mload(0x40)\n      dup1\n      swap2\n      sub\n      swap1\n      return\n        /* \"lastQv.sol\":1480:1633  function checkAdmin() public view returns (bool) {\r... */\n    tag_24:\n      tag_127\n      tag_128\n      jump\t// in\n    tag_127:\n      mload(0x40)\n      tag_129\n      swap2\n      swap1\n      tag_43\n      jump\t// in\n    tag_129:\n      mload(0x40)\n      dup1\n      swap2\n      sub\n      swap1\n      return\n        /* \"lastQv.sol\":3351:4049  function getDetails(uint256 _ProposalID)\r... */\n    tag_25:\n      tag_130\n      0x04\n      dup1\n      calldatasize\n      sub\n      dup2\n      add\n      swap1\n      tag_131\n      swap2\n      swap1\n      tag_56\n      jump\t// in\n    tag_131:\n      tag_132\n      jump\t// in\n    tag_130:\n      mload(0x40)\n      tag_133\n      swap5\n      swap4\n      swap3\n      swap2\n      swap1\n      tag_134\n      jump\t// in\n    tag_133:\n      mload(0x40)\n      dup1\n      swap2\n      sub\n      swap1\n      return\n        /* \"lastQv.sol\":456:484  uint256 public ProposalCount */\n    tag_26:\n      tag_135\n      tag_136\n      jump\t// in\n    tag_135:\n      mload(0x40)\n      tag_137\n      swap2\n      swap1\n      tag_53\n      jump\t// in\n    tag_137:\n      mload(0x40)\n      dup1\n      swap2\n      sub\n      swap1\n      return\n        /* \"lastQv.sol\":2750:2847  function getProposalCount() public view returns (uint256) {\r... */\n    tag_27:\n      tag_138\n      tag_139\n      jump\t// in\n    tag_138:\n      mload(0x40)\n      tag_140\n      swap2\n      swap1\n      tag_53\n      jump\t// in\n    tag_140:\n      mload(0x40)\n      dup1\n      swap2\n      sub\n      swap1\n      return\n        /* \"lastQv.sol\":1281:1326  mapping(uint256 => Proposal) public Proposals */\n    tag_28:\n      tag_141\n      0x04\n      dup1\n      calldatasize\n      sub\n      dup2\n      add\n      swap1\n      tag_142\n      swap2\n      swap1\n      tag_56\n      jump\t// in\n    tag_142:\n      tag_143\n      jump\t// in\n    tag_141:\n      mload(0x40)\n      tag_144\n      swap6\n      swap5\n      swap4\n      swap3\n      swap2\n      swap1\n      tag_145\n      jump\t// in\n    tag_144:\n      mload(0x40)\n      dup1\n      swap2\n      sub\n      swap1\n      return\n        /* \"@openzeppelin/contracts/access/AccessControl.sol\":5241:5388  function revokeRole(bytes32 role, address account) public virtual override onlyRole(getRoleAdmin(role)) {... */\n    tag_29:\n      tag_146\n      0x04\n      dup1\n      calldatasize\n      sub\n      dup2\n      add\n      swap1\n      tag_147\n      swap2\n      swap1\n      tag_71\n      jump\t// in\n    tag_147:\n      tag_148\n      jump\t// in\n    tag_146:\n      stop\n        /* \"@openzeppelin/contracts/access/Ownable.sol\":2081:2279  function transferOwnership(address newOwner) public virtual onlyOwner {... */\n    tag_30:\n      tag_149\n      0x04\n      dup1\n      calldatasize\n      sub\n      dup2\n      add\n      swap1\n      tag_150\n      swap2\n      swap1\n      tag_108\n      jump\t// in\n    tag_150:\n      tag_151\n      jump\t// in\n    tag_149:\n      stop\n        /* \"@openzeppelin/contracts/access/AccessControl.sol\":2606:2808  function supportsInterface(bytes4 interfaceId) public view virtual override returns (bool) {... */\n    tag_41:\n        /* \"@openzeppelin/contracts/access/AccessControl.sol\":2691:2695  bool */\n      0x00\n        /* \"@openzeppelin/contracts/access/AccessControl.sol\":2729:2761  type(IAccessControl).interfaceId */\n      0x7965db0b00000000000000000000000000000000000000000000000000000000\n        /* \"@openzeppelin/contracts/access/AccessControl.sol\":2714:2761  interfaceId == type(IAccessControl).interfaceId */\n      not(0xffffffffffffffffffffffffffffffffffffffffffffffffffffffff)\n      and\n        /* \"@openzeppelin/contracts/access/AccessControl.sol\":2714:2725  interfaceId */\n      dup3\n        /* \"@openzeppelin/contracts/access/AccessControl.sol\":2714:2761  interfaceId == type(IAccessControl).interfaceId */\n      not(0xffffffffffffffffffffffffffffffffffffffffffffffffffffffff)\n      and\n      eq\n        /* \"@openzeppelin/contracts/access/AccessControl.sol\":2714:2801  interfaceId == type(IAccessControl).interfaceId || super.supportsInterface(interfaceId) */\n      dup1\n      tag_153\n      jumpi\n      pop\n        /* \"@openzeppelin/contracts/access/AccessControl.sol\":2765:2801  super.supportsInterface(interfaceId) */\n      tag_154\n        /* \"@openzeppelin/contracts/access/AccessControl.sol\":2789:2800  interfaceId */\n      dup3\n        /* \"@openzeppelin/contracts/access/AccessControl.sol\":2765:2788  super.supportsInterface */\n      tag_155\n        /* \"@openzeppelin/contracts/access/AccessControl.sol\":2765:2801  super.supportsInterface(interfaceId) */\n      jump\t// in\n    tag_154:\n        /* \"@openzeppelin/contracts/access/AccessControl.sol\":2714:2801  interfaceId == type(IAccessControl).interfaceId || super.supportsInterface(interfaceId) */\n    tag_153:\n        /* \"@openzeppelin/contracts/access/AccessControl.sol\":2707:2801  return interfaceId == type(IAccessControl).interfaceId || super.supportsInterface(interfaceId) */\n      swap1\n      pop\n        /* \"@openzeppelin/contracts/access/AccessControl.sol\":2606:2808  function supportsInterface(bytes4 interfaceId) public view virtual override returns (bool) {... */\n      swap2\n      swap1\n      pop\n      jump\t// out\n        /* \"lastQv.sol\":379:397  string public name */\n    tag_45:\n      0x04\n      dup1\n      sload\n      tag_156\n      swap1\n      tag_157\n      jump\t// in\n    tag_156:\n      dup1\n      0x1f\n      add\n      0x20\n      dup1\n      swap2\n      div\n      mul\n      0x20\n      add\n      mload(0x40)\n      swap1\n      dup2\n      add\n      0x40\n      mstore\n      dup1\n      swap3\n      swap2\n      swap1\n      dup2\n      dup2\n      mstore\n      0x20\n      add\n      dup3\n      dup1\n      sload\n      tag_158\n      swap1\n      tag_157\n      jump\t// in\n    tag_158:\n      dup1\n      iszero\n      tag_159\n      jumpi\n      dup1\n      0x1f\n      lt\n      tag_160\n      jumpi\n      0x0100\n      dup1\n      dup4\n      sload\n      div\n      mul\n      dup4\n      mstore\n      swap2\n      0x20\n      add\n      swap2\n      jump(tag_159)\n    tag_160:\n      dup3\n      add\n      swap2\n      swap1\n      0x00\n      mstore\n      keccak256(0x00, 0x20)\n      swap1\n    tag_161:\n      dup2\n      sload\n      dup2\n      mstore\n      swap1\n      0x01\n      add\n      swap1\n      0x20\n      add\n      dup1\n      dup4\n      gt\n      tag_161\n      jumpi\n      dup3\n      swap1\n      sub\n      0x1f\n      and\n      dup3\n      add\n      swap2\n    tag_159:\n      pop\n      pop\n      pop\n      pop\n      pop\n      dup2\n      jump\t// out\n        /* \"lastQv.sol\":6283:6483  function getWeight(uint256 _ProposalID, uint256 optionNum)\r... */\n    tag_51:\n        /* \"lastQv.sol\":6390:6397  uint256 */\n      0x00\n        /* \"lastQv.sol\":6422:6431  Proposals */\n      0x07\n        /* \"lastQv.sol\":6422:6444  Proposals[_ProposalID] */\n      0x00\n        /* \"lastQv.sol\":6432:6443  _ProposalID */\n      dup5\n        /* \"lastQv.sol\":6422:6444  Proposals[_ProposalID] */\n      dup2\n      mstore\n      0x20\n      add\n      swap1\n      dup2\n      mstore\n      0x20\n      add\n      0x00\n      keccak256\n        /* \"lastQv.sol\":6422:6452  Proposals[_ProposalID].options */\n      0x06\n      add\n        /* \"lastQv.sol\":6422:6463  Proposals[_ProposalID].options[optionNum] */\n      0x00\n        /* \"lastQv.sol\":6453:6462  optionNum */\n      dup4\n        /* \"lastQv.sol\":6422:6463  Proposals[_ProposalID].options[optionNum] */\n      dup2\n      mstore\n      0x20\n      add\n      swap1\n      dup2\n      mstore\n      0x20\n      add\n      0x00\n      keccak256\n        /* \"lastQv.sol\":6422:6475  Proposals[_ProposalID].options[optionNum].totalWeight */\n      0x01\n      add\n      sload\n        /* \"lastQv.sol\":6415:6475  return Proposals[_ProposalID].options[optionNum].totalWeight */\n      swap1\n      pop\n        /* \"lastQv.sol\":6283:6483  function getWeight(uint256 _ProposalID, uint256 optionNum)\r... */\n      swap3\n      swap2\n      pop\n      pop\n      jump\t// out\n        /* \"lastQv.sol\":5607:6275  function countVotes(uint256 _ProposalID)\r... */\n    tag_57:\n        /* \"lastQv.sol\":5710:5717  uint256 */\n      0x00\n        /* \"lastQv.sol\":5732:5739  uint256 */\n      dup1\n        /* \"lastQv.sol\":5754:5767  string memory */\n      0x60\n        /* \"lastQv.sol\":5795:5806  uint256 len */\n      0x00\n        /* \"lastQv.sol\":5809:5818  Proposals */\n      0x07\n        /* \"lastQv.sol\":5809:5831  Proposals[_ProposalID] */\n      0x00\n        /* \"lastQv.sol\":5819:5830  _ProposalID */\n      dup7\n        /* \"lastQv.sol\":5809:5831  Proposals[_ProposalID] */\n      dup2\n      mstore\n      0x20\n      add\n      swap1\n      dup2\n      mstore\n      0x20\n      add\n      0x00\n      keccak256\n        /* \"lastQv.sol\":5809:5844  Proposals[_ProposalID].numOfOptions */\n      0x04\n      add\n      sload\n        /* \"lastQv.sol\":5795:5844  uint256 len = Proposals[_ProposalID].numOfOptions */\n      swap1\n      pop\n        /* \"lastQv.sol\":5855:5872  uint256 maxWeight */\n      0x00\n        /* \"lastQv.sol\":5883:5896  uint256 index */\n      dup1\n        /* \"lastQv.sol\":5912:5921  uint256 i */\n      0x00\n        /* \"lastQv.sol\":5924:5925  1 */\n      0x01\n        /* \"lastQv.sol\":5912:5925  uint256 i = 1 */\n      swap1\n      pop\n        /* \"lastQv.sol\":5907:6152  for (uint256 i = 1; i <= len; i++) {\r... */\n    tag_164:\n        /* \"lastQv.sol\":5932:5935  len */\n      dup4\n        /* \"lastQv.sol\":5927:5928  i */\n      dup2\n        /* \"lastQv.sol\":5927:5935  i <= len */\n      gt\n        /* \"lastQv.sol\":5907:6152  for (uint256 i = 1; i <= len; i++) {\r... */\n      tag_165\n      jumpi\n        /* \"lastQv.sol\":6010:6019  maxWeight */\n      dup3\n        /* \"lastQv.sol\":5961:5970  Proposals */\n      0x07\n        /* \"lastQv.sol\":5961:5983  Proposals[_ProposalID] */\n      0x00\n        /* \"lastQv.sol\":5971:5982  _ProposalID */\n      dup11\n        /* \"lastQv.sol\":5961:5983  Proposals[_ProposalID] */\n      dup2\n      mstore\n      0x20\n      add\n      swap1\n      dup2\n      mstore\n      0x20\n      add\n      0x00\n      keccak256\n        /* \"lastQv.sol\":5961:5991  Proposals[_ProposalID].options */\n      0x06\n      add\n        /* \"lastQv.sol\":5961:5994  Proposals[_ProposalID].options[i] */\n      0x00\n        /* \"lastQv.sol\":5992:5993  i */\n      dup4\n        /* \"lastQv.sol\":5961:5994  Proposals[_ProposalID].options[i] */\n      dup2\n      mstore\n      0x20\n      add\n      swap1\n      dup2\n      mstore\n      0x20\n      add\n      0x00\n      keccak256\n        /* \"lastQv.sol\":5961:6006  Proposals[_ProposalID].options[i].totalWeight */\n      0x01\n      add\n      sload\n        /* \"lastQv.sol\":5961:6019  Proposals[_ProposalID].options[i].totalWeight >= maxWeight */\n      lt\n        /* \"lastQv.sol\":5957:6141  if (Proposals[_ProposalID].options[i].totalWeight >= maxWeight) {\r... */\n      tag_167\n      jumpi\n        /* \"lastQv.sol\":6052:6061  Proposals */\n      0x07\n        /* \"lastQv.sol\":6052:6074  Proposals[_ProposalID] */\n      0x00\n        /* \"lastQv.sol\":6062:6073  _ProposalID */\n      dup10\n        /* \"lastQv.sol\":6052:6074  Proposals[_ProposalID] */\n      dup2\n      mstore\n      0x20\n      add\n      swap1\n      dup2\n      mstore\n      0x20\n      add\n      0x00\n      keccak256\n        /* \"lastQv.sol\":6052:6082  Proposals[_ProposalID].options */\n      0x06\n      add\n        /* \"lastQv.sol\":6052:6085  Proposals[_ProposalID].options[i] */\n      0x00\n        /* \"lastQv.sol\":6083:6084  i */\n      dup3\n        /* \"lastQv.sol\":6052:6085  Proposals[_ProposalID].options[i] */\n      dup2\n      mstore\n      0x20\n      add\n      swap1\n      dup2\n      mstore\n      0x20\n      add\n      0x00\n      keccak256\n        /* \"lastQv.sol\":6052:6097  Proposals[_ProposalID].options[i].totalWeight */\n      0x01\n      add\n      sload\n        /* \"lastQv.sol\":6040:6097  maxWeight = Proposals[_ProposalID].options[i].totalWeight */\n      swap3\n      pop\n        /* \"lastQv.sol\":6124:6125  i */\n      dup1\n        /* \"lastQv.sol\":6116:6125  index = i */\n      swap2\n      pop\n        /* \"lastQv.sol\":5957:6141  if (Proposals[_ProposalID].options[i].totalWeight >= maxWeight) {\r... */\n    tag_167:\n        /* \"lastQv.sol\":5937:5940  i++ */\n      dup1\n      dup1\n      tag_168\n      swap1\n      tag_169\n      jump\t// in\n    tag_168:\n      swap2\n      pop\n      pop\n        /* \"lastQv.sol\":5907:6152  for (uint256 i = 1; i <= len; i++) {\r... */\n      jump(tag_164)\n    tag_165:\n      pop\n        /* \"lastQv.sol\":6162:6177  string memory n */\n      0x00\n        /* \"lastQv.sol\":6180:6189  Proposals */\n      0x07\n        /* \"lastQv.sol\":6180:6202  Proposals[_ProposalID] */\n      0x00\n        /* \"lastQv.sol\":6190:6201  _ProposalID */\n      dup10\n        /* \"lastQv.sol\":6180:6202  Proposals[_ProposalID] */\n      dup2\n      mstore\n      0x20\n      add\n      swap1\n      dup2\n      mstore\n      0x20\n      add\n      0x00\n      keccak256\n        /* \"lastQv.sol\":6180:6210  Proposals[_ProposalID].options */\n      0x06\n      add\n        /* \"lastQv.sol\":6180:6217  Proposals[_ProposalID].options[index] */\n      0x00\n        /* \"lastQv.sol\":6211:6216  index */\n      dup4\n        /* \"lastQv.sol\":6180:6217  Proposals[_ProposalID].options[index] */\n      dup2\n      mstore\n      0x20\n      add\n      swap1\n      dup2\n      mstore\n      0x20\n      add\n      0x00\n      keccak256\n        /* \"lastQv.sol\":6180:6228  Proposals[_ProposalID].options[index].optionName */\n      0x00\n      add\n        /* \"lastQv.sol\":6162:6228  string memory n = Proposals[_ProposalID].options[index].optionName */\n      dup1\n      sload\n      tag_170\n      swap1\n      tag_157\n      jump\t// in\n    tag_170:\n      dup1\n      0x1f\n      add\n      0x20\n      dup1\n      swap2\n      div\n      mul\n      0x20\n      add\n      mload(0x40)\n      swap1\n      dup2\n      add\n      0x40\n      mstore\n      dup1\n      swap3\n      swap2\n      swap1\n      dup2\n      dup2\n      mstore\n      0x20\n      add\n      dup3\n      dup1\n      sload\n      tag_171\n      swap1\n      tag_157\n      jump\t// in\n    tag_171:\n      dup1\n      iszero\n      tag_172\n      jumpi\n      dup1\n      0x1f\n      lt\n      tag_173\n      jumpi\n      0x0100\n      dup1\n      dup4\n      sload\n      div\n      mul\n      dup4\n      mstore\n      swap2\n      0x20\n      add\n      swap2\n      jump(tag_172)\n    tag_173:\n      dup3\n      add\n      swap2\n      swap1\n      0x00\n      mstore\n      keccak256(0x00, 0x20)\n      swap1\n    tag_174:\n      dup2\n      sload\n      dup2\n      mstore\n      swap1\n      0x01\n      add\n      swap1\n      0x20\n      add\n      dup1\n      dup4\n      gt\n      tag_174\n      jumpi\n      dup3\n      swap1\n      sub\n      0x1f\n      and\n      dup3\n      add\n      swap2\n    tag_172:\n      pop\n      pop\n      pop\n      pop\n      pop\n      swap1\n      pop\n        /* \"lastQv.sol\":6247:6252  index */\n      dup2\n        /* \"lastQv.sol\":6254:6263  maxWeight */\n      dup4\n        /* \"lastQv.sol\":6265:6266  n */\n      dup3\n        /* \"lastQv.sol\":6239:6267  return (index, maxWeight, n) */\n      swap7\n      pop\n      swap7\n      pop\n      swap7\n      pop\n      pop\n      pop\n      pop\n      pop\n        /* \"lastQv.sol\":5607:6275  function countVotes(uint256 _ProposalID)\r... */\n      swap2\n      swap4\n      swap1\n      swap3\n      pop\n      jump\t// out\n        /* \"@openzeppelin/contracts/access/AccessControl.sol\":4391:4520  function getRoleAdmin(bytes32 role) public view virtual override returns (bytes32) {... */\n    tag_63:\n        /* \"@openzeppelin/contracts/access/AccessControl.sol\":4465:4472  bytes32 */\n      0x00\n        /* \"@openzeppelin/contracts/access/AccessControl.sol\":4491:4497  _roles */\n      0x01\n        /* \"@openzeppelin/contracts/access/AccessControl.sol\":4491:4503  _roles[role] */\n      0x00\n        /* \"@openzeppelin/contracts/access/AccessControl.sol\":4498:4502  role */\n      dup4\n        /* \"@openzeppelin/contracts/access/AccessControl.sol\":4491:4503  _roles[role] */\n      dup2\n      mstore\n      0x20\n      add\n      swap1\n      dup2\n      mstore\n      0x20\n      add\n      0x00\n      keccak256\n        /* \"@openzeppelin/contracts/access/AccessControl.sol\":4491:4513  _roles[role].adminRole */\n      0x01\n      add\n      sload\n        /* \"@openzeppelin/contracts/access/AccessControl.sol\":4484:4513  return _roles[role].adminRole */\n      swap1\n      pop\n        /* \"@openzeppelin/contracts/access/AccessControl.sol\":4391:4520  function getRoleAdmin(bytes32 role) public view virtual override returns (bytes32) {... */\n      swap2\n      swap1\n      pop\n      jump\t// out\n        /* \"lastQv.sol\":2855:3343  function setProposalToTally(uint256 _ProposalID)\r... */\n    tag_68:\n        /* \"lastQv.sol\":2945:2956  _ProposalID */\n      dup1\n        /* \"lastQv.sol\":5083:5084  0 */\n      0x00\n        /* \"lastQv.sol\":5069:5080  _ProposalID */\n      dup2\n        /* \"lastQv.sol\":5069:5084  _ProposalID > 0 */\n      gt\n        /* \"lastQv.sol\":5069:5116  _ProposalID > 0 && _ProposalID <= ProposalCount */\n      dup1\n      iszero\n      tag_177\n      jumpi\n      pop\n        /* \"lastQv.sol\":5103:5116  ProposalCount */\n      sload(0x06)\n        /* \"lastQv.sol\":5088:5099  _ProposalID */\n      dup2\n        /* \"lastQv.sol\":5088:5116  _ProposalID <= ProposalCount */\n      gt\n      iszero\n        /* \"lastQv.sol\":5069:5116  _ProposalID > 0 && _ProposalID <= ProposalCount */\n    tag_177:\n        /* \"lastQv.sol\":5047:5167  require(\r... */\n      tag_178\n      jumpi\n      mload(0x40)\n      0x08c379a000000000000000000000000000000000000000000000000000000000\n      dup2\n      mstore\n      0x04\n      add\n      tag_179\n      swap1\n      tag_180\n      jump\t// in\n    tag_179:\n      mload(0x40)\n      dup1\n      swap2\n      sub\n      swap1\n      revert\n    tag_178:\n        /* \"@openzeppelin/contracts/access/Ownable.sol\":1094:1107  _checkOwner() */\n      tag_182\n        /* \"@openzeppelin/contracts/access/Ownable.sol\":1094:1105  _checkOwner */\n      tag_183\n        /* \"@openzeppelin/contracts/access/Ownable.sol\":1094:1107  _checkOwner() */\n      jump\t// in\n    tag_182:\n        /* \"lastQv.sol\":3048:3074  ProposalStatus.IN_PROGRESS */\n      0x00\n        /* \"lastQv.sol\":3015:3074  Proposals[_ProposalID].status == ProposalStatus.IN_PROGRESS */\n      0x02\n      dup2\n      gt\n      iszero\n      tag_185\n      jumpi\n      tag_186\n      tag_187\n      jump\t// in\n    tag_186:\n    tag_185:\n        /* \"lastQv.sol\":3015:3024  Proposals */\n      0x07\n        /* \"lastQv.sol\":3015:3037  Proposals[_ProposalID] */\n      0x00\n        /* \"lastQv.sol\":3025:3036  _ProposalID */\n      dup5\n        /* \"lastQv.sol\":3015:3037  Proposals[_ProposalID] */\n      dup2\n      mstore\n      0x20\n      add\n      swap1\n      dup2\n      mstore\n      0x20\n      add\n      0x00\n      keccak256\n        /* \"lastQv.sol\":3015:3044  Proposals[_ProposalID].status */\n      0x00\n      add\n      0x14\n      swap1\n      sload\n      swap1\n      0x0100\n      exp\n      swap1\n      div\n      0xff\n      and\n        /* \"lastQv.sol\":3015:3074  Proposals[_ProposalID].status == ProposalStatus.IN_PROGRESS */\n      0x02\n      dup2\n      gt\n      iszero\n      tag_188\n      jumpi\n      tag_189\n      tag_187\n      jump\t// in\n    tag_189:\n    tag_188:\n      eq\n        /* \"lastQv.sol\":2993:3125  require(\r... */\n      tag_190\n      jumpi\n      mload(0x40)\n      0x08c379a000000000000000000000000000000000000000000000000000000000\n      dup2\n      mstore\n      0x04\n      add\n      tag_191\n      swap1\n      tag_192\n      jump\t// in\n    tag_191:\n      mload(0x40)\n      dup1\n      swap2\n      sub\n      swap1\n      revert\n    tag_190:\n        /* \"lastQv.sol\":3177:3215  getProposalExpirationTime(_ProposalID) */\n      tag_193\n        /* \"lastQv.sol\":3203:3214  _ProposalID */\n      dup3\n        /* \"lastQv.sol\":3177:3202  getProposalExpirationTime */\n      tag_99\n        /* \"lastQv.sol\":3177:3215  getProposalExpirationTime(_ProposalID) */\n      jump\t// in\n    tag_193:\n        /* \"lastQv.sol\":3158:3173  block.timestamp */\n      timestamp\n        /* \"lastQv.sol\":3158:3215  block.timestamp >= getProposalExpirationTime(_ProposalID) */\n      lt\n      iszero\n        /* \"lastQv.sol\":3136:3272  require(\r... */\n      tag_194\n      jumpi\n      mload(0x40)\n      0x08c379a000000000000000000000000000000000000000000000000000000000\n      dup2\n      mstore\n      0x04\n      add\n      tag_195\n      swap1\n      tag_196\n      jump\t// in\n    tag_195:\n      mload(0x40)\n      dup1\n      swap2\n      sub\n      swap1\n      revert\n    tag_194:\n        /* \"lastQv.sol\":3315:3335  ProposalStatus.TALLY */\n      0x01\n        /* \"lastQv.sol\":3283:3292  Proposals */\n      0x07\n        /* \"lastQv.sol\":3283:3305  Proposals[_ProposalID] */\n      0x00\n        /* \"lastQv.sol\":3293:3304  _ProposalID */\n      dup5\n        /* \"lastQv.sol\":3283:3305  Proposals[_ProposalID] */\n      dup2\n      mstore\n      0x20\n      add\n      swap1\n      dup2\n      mstore\n      0x20\n      add\n      0x00\n      keccak256\n        /* \"lastQv.sol\":3283:3312  Proposals[_ProposalID].status */\n      0x00\n      add\n      0x14\n        /* \"lastQv.sol\":3283:3335  Proposals[_ProposalID].status = ProposalStatus.TALLY */\n      0x0100\n      exp\n      dup2\n      sload\n      dup2\n      0xff\n      mul\n      not\n      and\n      swap1\n      dup4\n      0x02\n      dup2\n      gt\n      iszero\n      tag_197\n      jumpi\n      tag_198\n      tag_187\n      jump\t// in\n    tag_198:\n    tag_197:\n      mul\n      or\n      swap1\n      sstore\n      pop\n        /* \"lastQv.sol\":2855:3343  function setProposalToTally(uint256 _ProposalID)\r... */\n      pop\n      pop\n      jump\t// out\n        /* \"@openzeppelin/contracts/access/AccessControl.sol\":4816:4961  function grantRole(bytes32 role, address account) public virtual override onlyRole(getRoleAdmin(role)) {... */\n    tag_72:\n        /* \"@openzeppelin/contracts/access/AccessControl.sol\":4899:4917  getRoleAdmin(role) */\n      tag_199\n        /* \"@openzeppelin/contracts/access/AccessControl.sol\":4912:4916  role */\n      dup3\n        /* \"@openzeppelin/contracts/access/AccessControl.sol\":4899:4911  getRoleAdmin */\n      tag_63\n        /* \"@openzeppelin/contracts/access/AccessControl.sol\":4899:4917  getRoleAdmin(role) */\n      jump\t// in\n    tag_199:\n        /* \"@openzeppelin/contracts/access/AccessControl.sol\":2505:2521  _checkRole(role) */\n      tag_201\n        /* \"@openzeppelin/contracts/access/AccessControl.sol\":2516:2520  role */\n      dup2\n        /* \"@openzeppelin/contracts/access/AccessControl.sol\":2505:2515  _checkRole */\n      tag_202\n        /* \"@openzeppelin/contracts/access/AccessControl.sol\":2505:2521  _checkRole(role) */\n      jump\t// in\n    tag_201:\n        /* \"@openzeppelin/contracts/access/AccessControl.sol\":4929:4954  _grantRole(role, account) */\n      tag_204\n        /* \"@openzeppelin/contracts/access/AccessControl.sol\":4940:4944  role */\n      dup4\n        /* \"@openzeppelin/contracts/access/AccessControl.sol\":4946:4953  account */\n      dup4\n        /* \"@openzeppelin/contracts/access/AccessControl.sol\":4929:4939  _grantRole */\n      tag_205\n        /* \"@openzeppelin/contracts/access/AccessControl.sol\":4929:4954  _grantRole(role, account) */\n      jump\t// in\n    tag_204:\n        /* \"@openzeppelin/contracts/access/AccessControl.sol\":4816:4961  function grantRole(bytes32 role, address account) public virtual override onlyRole(getRoleAdmin(role)) {... */\n      pop\n      pop\n      pop\n      jump\t// out\n        /* \"lastQv.sol\":6491:7655  function castVote(uint256 _ProposalID, uint256[] memory _tokens)\r... */\n    tag_76:\n        /* \"lastQv.sol\":6597:6608  _ProposalID */\n      dup2\n        /* \"lastQv.sol\":5083:5084  0 */\n      0x00\n        /* \"lastQv.sol\":5069:5080  _ProposalID */\n      dup2\n        /* \"lastQv.sol\":5069:5084  _ProposalID > 0 */\n      gt\n        /* \"lastQv.sol\":5069:5116  _ProposalID > 0 && _ProposalID <= ProposalCount */\n      dup1\n      iszero\n      tag_207\n      jumpi\n      pop\n        /* \"lastQv.sol\":5103:5116  ProposalCount */\n      sload(0x06)\n        /* \"lastQv.sol\":5088:5099  _ProposalID */\n      dup2\n        /* \"lastQv.sol\":5088:5116  _ProposalID <= ProposalCount */\n      gt\n      iszero\n        /* \"lastQv.sol\":5069:5116  _ProposalID > 0 && _ProposalID <= ProposalCount */\n    tag_207:\n        /* \"lastQv.sol\":5047:5167  require(\r... */\n      tag_208\n      jumpi\n      mload(0x40)\n      0x08c379a000000000000000000000000000000000000000000000000000000000\n      dup2\n      mstore\n      0x04\n      add\n      tag_209\n      swap1\n      tag_180\n      jump\t// in\n    tag_209:\n      mload(0x40)\n      dup1\n      swap2\n      sub\n      swap1\n      revert\n    tag_208:\n        /* \"lastQv.sol\":6682:6708  ProposalStatus.IN_PROGRESS */\n      0x00\n        /* \"lastQv.sol\":6648:6708  getProposalStatus(_ProposalID) == ProposalStatus.IN_PROGRESS */\n      0x02\n      dup2\n      gt\n      iszero\n      tag_211\n      jumpi\n      tag_212\n      tag_187\n      jump\t// in\n    tag_212:\n    tag_211:\n        /* \"lastQv.sol\":6648:6678  getProposalStatus(_ProposalID) */\n      tag_213\n        /* \"lastQv.sol\":6666:6677  _ProposalID */\n      dup5\n        /* \"lastQv.sol\":6648:6665  getProposalStatus */\n      tag_87\n        /* \"lastQv.sol\":6648:6678  getProposalStatus(_ProposalID) */\n      jump\t// in\n    tag_213:\n        /* \"lastQv.sol\":6648:6708  getProposalStatus(_ProposalID) == ProposalStatus.IN_PROGRESS */\n      0x02\n      dup2\n      gt\n      iszero\n      tag_214\n      jumpi\n      tag_215\n      tag_187\n      jump\t// in\n    tag_215:\n    tag_214:\n      eq\n        /* \"lastQv.sol\":6626:6757  require(\r... */\n      tag_216\n      jumpi\n      mload(0x40)\n      0x08c379a000000000000000000000000000000000000000000000000000000000\n      dup2\n      mstore\n      0x04\n      add\n      tag_217\n      swap1\n      tag_218\n      jump\t// in\n    tag_217:\n      mload(0x40)\n      dup1\n      swap2\n      sub\n      swap1\n      revert\n    tag_216:\n        /* \"lastQv.sol\":6791:6828  userHasVoted(_ProposalID, msg.sender) */\n      tag_219\n        /* \"lastQv.sol\":6804:6815  _ProposalID */\n      dup4\n        /* \"lastQv.sol\":6817:6827  msg.sender */\n      caller\n        /* \"lastQv.sol\":6791:6803  userHasVoted */\n      tag_104\n        /* \"lastQv.sol\":6791:6828  userHasVoted(_ProposalID, msg.sender) */\n      jump\t// in\n    tag_219:\n        /* \"lastQv.sol\":6790:6828  !userHasVoted(_ProposalID, msg.sender) */\n      iszero\n        /* \"lastQv.sol\":6768:6891  require(\r... */\n      tag_220\n      jumpi\n      mload(0x40)\n      0x08c379a000000000000000000000000000000000000000000000000000000000\n      dup2\n      mstore\n      0x04\n      add\n      tag_221\n      swap1\n      tag_222\n      jump\t// in\n    tag_221:\n      mload(0x40)\n      dup1\n      swap2\n      sub\n      swap1\n      revert\n    tag_220:\n        /* \"lastQv.sol\":6965:6980  block.timestamp */\n      timestamp\n        /* \"lastQv.sol\":6924:6962  getProposalExpirationTime(_ProposalID) */\n      tag_223\n        /* \"lastQv.sol\":6950:6961  _ProposalID */\n      dup5\n        /* \"lastQv.sol\":6924:6949  getProposalExpirationTime */\n      tag_99\n        /* \"lastQv.sol\":6924:6962  getProposalExpirationTime(_ProposalID) */\n      jump\t// in\n    tag_223:\n        /* \"lastQv.sol\":6924:6980  getProposalExpirationTime(_ProposalID) > block.timestamp */\n      gt\n        /* \"lastQv.sol\":6902:7050  require(\r... */\n      tag_224\n      jumpi\n      mload(0x40)\n      0x08c379a000000000000000000000000000000000000000000000000000000000\n      dup2\n      mstore\n      0x04\n      add\n      tag_225\n      swap1\n      tag_226\n      jump\t// in\n    tag_225:\n      mload(0x40)\n      dup1\n      swap2\n      sub\n      swap1\n      revert\n    tag_224:\n        /* \"lastQv.sol\":7061:7089  Proposal storage curproposal */\n      0x00\n        /* \"lastQv.sol\":7092:7101  Proposals */\n      0x07\n        /* \"lastQv.sol\":7092:7114  Proposals[_ProposalID] */\n      0x00\n        /* \"lastQv.sol\":7102:7113  _ProposalID */\n      dup6\n        /* \"lastQv.sol\":7092:7114  Proposals[_ProposalID] */\n      dup2\n      mstore\n      0x20\n      add\n      swap1\n      dup2\n      mstore\n      0x20\n      add\n      0x00\n      keccak256\n        /* \"lastQv.sol\":7061:7114  Proposal storage curproposal = Proposals[_ProposalID] */\n      swap1\n      pop\n        /* \"lastQv.sol\":7125:7138  uint256 total */\n      0x00\n        /* \"lastQv.sol\":7158:7167  uint256 i */\n      dup1\n        /* \"lastQv.sol\":7170:7171  1 */\n      0x01\n        /* \"lastQv.sol\":7158:7171  uint256 i = 1 */\n      swap1\n      pop\n        /* \"lastQv.sol\":7153:7342  for (uint256 i = 1; i <= _tokens.length; i++) {\r... */\n    tag_227:\n        /* \"lastQv.sol\":7178:7185  _tokens */\n      dup5\n        /* \"lastQv.sol\":7178:7192  _tokens.length */\n      mload\n        /* \"lastQv.sol\":7173:7174  i */\n      dup2\n        /* \"lastQv.sol\":7173:7192  i <= _tokens.length */\n      gt\n        /* \"lastQv.sol\":7153:7342  for (uint256 i = 1; i <= _tokens.length; i++) {\r... */\n      tag_228\n      jumpi\n        /* \"lastQv.sol\":7252:7259  _tokens */\n      dup5\n        /* \"lastQv.sol\":7264:7265  1 */\n      0x01\n        /* \"lastQv.sol\":7260:7261  i */\n      dup3\n        /* \"lastQv.sol\":7260:7265  i - 1 */\n      tag_230\n      swap2\n      swap1\n      tag_231\n      jump\t// in\n    tag_230:\n        /* \"lastQv.sol\":7252:7266  _tokens[i - 1] */\n      dup2\n      mload\n      dup2\n      lt\n      tag_232\n      jumpi\n      tag_233\n      tag_234\n      jump\t// in\n    tag_233:\n    tag_232:\n      0x20\n      mul\n      0x20\n      add\n      add\n      mload\n        /* \"lastQv.sol\":7214:7225  curproposal */\n      dup4\n        /* \"lastQv.sol\":7214:7233  curproposal.options */\n      0x06\n      add\n        /* \"lastQv.sol\":7214:7236  curproposal.options[i] */\n      0x00\n        /* \"lastQv.sol\":7234:7235  i */\n      dup4\n        /* \"lastQv.sol\":7214:7236  curproposal.options[i] */\n      dup2\n      mstore\n      0x20\n      add\n      swap1\n      dup2\n      mstore\n      0x20\n      add\n      0x00\n      keccak256\n        /* \"lastQv.sol\":7214:7248  curproposal.options[i].totalWeight */\n      0x01\n      add\n      0x00\n        /* \"lastQv.sol\":7214:7266  curproposal.options[i].totalWeight += _tokens[i - 1] */\n      dup3\n      dup3\n      sload\n      tag_235\n      swap2\n      swap1\n      tag_236\n      jump\t// in\n    tag_235:\n      swap3\n      pop\n      pop\n      dup2\n      swap1\n      sstore\n      pop\n        /* \"lastQv.sol\":7315:7322  _tokens */\n      dup5\n        /* \"lastQv.sol\":7327:7328  1 */\n      0x01\n        /* \"lastQv.sol\":7323:7324  i */\n      dup3\n        /* \"lastQv.sol\":7323:7328  i - 1 */\n      tag_237\n      swap2\n      swap1\n      tag_231\n      jump\t// in\n    tag_237:\n        /* \"lastQv.sol\":7315:7329  _tokens[i - 1] */\n      dup2\n      mload\n      dup2\n      lt\n      tag_238\n      jumpi\n      tag_239\n      tag_234\n      jump\t// in\n    tag_239:\n    tag_238:\n      0x20\n      mul\n      0x20\n      add\n      add\n      mload\n        /* \"lastQv.sol\":7298:7305  _tokens */\n      dup6\n        /* \"lastQv.sol\":7310:7311  1 */\n      0x01\n        /* \"lastQv.sol\":7306:7307  i */\n      dup4\n        /* \"lastQv.sol\":7306:7311  i - 1 */\n      tag_240\n      swap2\n      swap1\n      tag_231\n      jump\t// in\n    tag_240:\n        /* \"lastQv.sol\":7298:7312  _tokens[i - 1] */\n      dup2\n      mload\n      dup2\n      lt\n      tag_241\n      jumpi\n      tag_242\n      tag_234\n      jump\t// in\n    tag_242:\n    tag_241:\n      0x20\n      mul\n      0x20\n      add\n      add\n      mload\n        /* \"lastQv.sol\":7298:7329  _tokens[i - 1] * _tokens[i - 1] */\n      tag_243\n      swap2\n      swap1\n      tag_244\n      jump\t// in\n    tag_243:\n        /* \"lastQv.sol\":7289:7294  total */\n      dup3\n        /* \"lastQv.sol\":7289:7330  total + (_tokens[i - 1] * _tokens[i - 1]) */\n      tag_245\n      swap2\n      swap1\n      tag_236\n      jump\t// in\n    tag_245:\n        /* \"lastQv.sol\":7281:7330  total = total + (_tokens[i - 1] * _tokens[i - 1]) */\n      swap2\n      pop\n        /* \"lastQv.sol\":7194:7197  i++ */\n      dup1\n      dup1\n      tag_246\n      swap1\n      tag_169\n      jump\t// in\n    tag_246:\n      swap2\n      pop\n      pop\n        /* \"lastQv.sol\":7153:7342  for (uint256 i = 1; i <= _tokens.length; i++) {\r... */\n      jump(tag_227)\n    tag_228:\n      pop\n        /* \"lastQv.sol\":7378:7410  _balances[msg.sender].sub(total) */\n      tag_247\n        /* \"lastQv.sol\":7404:7409  total */\n      dup2\n        /* \"lastQv.sol\":7378:7387  _balances */\n      0x05\n        /* \"lastQv.sol\":7378:7399  _balances[msg.sender] */\n      0x00\n        /* \"lastQv.sol\":7388:7398  msg.sender */\n      caller\n        /* \"lastQv.sol\":7378:7399  _balances[msg.sender] */\n      0xffffffffffffffffffffffffffffffffffffffff\n      and\n      0xffffffffffffffffffffffffffffffffffffffff\n      and\n      dup2\n      mstore\n      0x20\n      add\n      swap1\n      dup2\n      mstore\n      0x20\n      add\n      0x00\n      keccak256\n      sload\n        /* \"lastQv.sol\":7378:7403  _balances[msg.sender].sub */\n      tag_248\n      swap1\n        /* \"lastQv.sol\":7378:7410  _balances[msg.sender].sub(total) */\n      swap2\n      swap1\n      0xffffffff\n      and\n      jump\t// in\n    tag_247:\n        /* \"lastQv.sol\":7354:7363  _balances */\n      0x05\n        /* \"lastQv.sol\":7354:7375  _balances[msg.sender] */\n      0x00\n        /* \"lastQv.sol\":7364:7374  msg.sender */\n      caller\n        /* \"lastQv.sol\":7354:7375  _balances[msg.sender] */\n      0xffffffffffffffffffffffffffffffffffffffff\n      and\n      0xffffffffffffffffffffffffffffffffffffffff\n      and\n      dup2\n      mstore\n      0x20\n      add\n      swap1\n      dup2\n      mstore\n      0x20\n      add\n      0x00\n      keccak256\n        /* \"lastQv.sol\":7354:7410  _balances[msg.sender] = _balances[msg.sender].sub(total) */\n      dup2\n      swap1\n      sstore\n      pop\n        /* \"lastQv.sol\":7459:7537  Voter({\r... */\n      mload(0x40)\n      dup1\n      0x40\n      add\n      0x40\n      mstore\n      dup1\n        /* \"lastQv.sol\":7490:7494  true */\n      0x01\n        /* \"lastQv.sol\":7459:7537  Voter({\r... */\n      iszero\n      iszero\n      dup2\n      mstore\n      0x20\n      add\n        /* \"lastQv.sol\":7518:7525  _tokens */\n      dup6\n        /* \"lastQv.sol\":7459:7537  Voter({\r... */\n      dup2\n      mstore\n      pop\n        /* \"lastQv.sol\":7423:7434  curproposal */\n      dup3\n        /* \"lastQv.sol\":7423:7444  curproposal.voterInfo */\n      0x05\n      add\n        /* \"lastQv.sol\":7423:7456  curproposal.voterInfo[msg.sender] */\n      0x00\n        /* \"lastQv.sol\":7445:7455  msg.sender */\n      caller\n        /* \"lastQv.sol\":7423:7456  curproposal.voterInfo[msg.sender] */\n      0xffffffffffffffffffffffffffffffffffffffff\n      and\n      0xffffffffffffffffffffffffffffffffffffffff\n      and\n      dup2\n      mstore\n      0x20\n      add\n      swap1\n      dup2\n      mstore\n      0x20\n      add\n      0x00\n      keccak256\n        /* \"lastQv.sol\":7423:7537  curproposal.voterInfo[msg.sender] = Voter({\r... */\n      0x00\n      dup3\n      add\n      mload\n      dup2\n      0x00\n      add\n      exp(0x0100, 0x00)\n      dup2\n      sload\n      dup2\n      0xff\n      mul\n      not\n      and\n      swap1\n      dup4\n      iszero\n      iszero\n      mul\n      or\n      swap1\n      sstore\n      pop\n      0x20\n      dup3\n      add\n      mload\n      dup2\n      0x01\n      add\n      swap1\n      dup1\n      mload\n      swap1\n      0x20\n      add\n      swap1\n      tag_249\n      swap3\n      swap2\n      swap1\n      tag_250\n      jump\t// in\n    tag_249:\n      pop\n      swap1\n      pop\n      pop\n        /* \"lastQv.sol\":7550:7561  curproposal */\n      dup2\n        /* \"lastQv.sol\":7550:7568  curproposal.voters */\n      0x02\n      add\n        /* \"lastQv.sol\":7574:7584  msg.sender */\n      caller\n        /* \"lastQv.sol\":7550:7585  curproposal.voters.push(msg.sender) */\n      swap1\n      dup1\n      0x01\n      dup2\n      sload\n      add\n      dup1\n      dup3\n      sstore\n      dup1\n      swap2\n      pop\n      pop\n      0x01\n      swap1\n      sub\n      swap1\n      0x00\n      mstore\n      keccak256(0x00, 0x20)\n      add\n      0x00\n      swap1\n      swap2\n      swap1\n      swap2\n      swap1\n      swap2\n      0x0100\n      exp\n      dup2\n      sload\n      dup2\n      0xffffffffffffffffffffffffffffffffffffffff\n      mul\n      not\n      and\n      swap1\n      dup4\n      0xffffffffffffffffffffffffffffffffffffffff\n      and\n      mul\n      or\n      swap1\n      sstore\n      pop\n        /* \"lastQv.sol\":7603:7647  VoteCasted(msg.sender, _ProposalID, _tokens) */\n      0x73ab51df610edc81f5551eeb367d093666ac5ba1f45288102ff95f0db861724a\n        /* \"lastQv.sol\":7614:7624  msg.sender */\n      caller\n        /* \"lastQv.sol\":7626:7637  _ProposalID */\n      dup7\n        /* \"lastQv.sol\":7639:7646  _tokens */\n      dup7\n        /* \"lastQv.sol\":7603:7647  VoteCasted(msg.sender, _ProposalID, _tokens) */\n      mload(0x40)\n      tag_252\n      swap4\n      swap3\n      swap2\n      swap1\n      tag_253\n      jump\t// in\n    tag_252:\n      mload(0x40)\n      dup1\n      swap2\n      sub\n      swap1\n      log1\n        /* \"lastQv.sol\":6615:7655  {\r... */\n      pop\n      pop\n        /* \"lastQv.sol\":6491:7655  function castVote(uint256 _ProposalID, uint256[] memory _tokens)\r... */\n      pop\n      pop\n      pop\n      jump\t// out\n        /* \"@openzeppelin/contracts/access/AccessControl.sol\":5925:6139  function renounceRole(bytes32 role, address account) public virtual override {... */\n    tag_79:\n        /* \"@openzeppelin/contracts/access/AccessControl.sol\":6031:6043  _msgSender() */\n      tag_255\n        /* \"@openzeppelin/contracts/access/AccessControl.sol\":6031:6041  _msgSender */\n      tag_256\n        /* \"@openzeppelin/contracts/access/AccessControl.sol\":6031:6043  _msgSender() */\n      jump\t// in\n    tag_255:\n        /* \"@openzeppelin/contracts/access/AccessControl.sol\":6020:6043  account == _msgSender() */\n      0xffffffffffffffffffffffffffffffffffffffff\n      and\n        /* \"@openzeppelin/contracts/access/AccessControl.sol\":6020:6027  account */\n      dup2\n        /* \"@openzeppelin/contracts/access/AccessControl.sol\":6020:6043  account == _msgSender() */\n      0xffffffffffffffffffffffffffffffffffffffff\n      and\n      eq\n        /* \"@openzeppelin/contracts/access/AccessControl.sol\":6012:6095  require(account == _msgSender(), \"AccessControl: can only renounce roles for self\") */\n      tag_257\n      jumpi\n      mload(0x40)\n      0x08c379a000000000000000000000000000000000000000000000000000000000\n      dup2\n      mstore\n      0x04\n      add\n      tag_258\n      swap1\n      tag_259\n      jump\t// in\n    tag_258:\n      mload(0x40)\n      dup1\n      swap2\n      sub\n      swap1\n      revert\n    tag_257:\n        /* \"@openzeppelin/contracts/access/AccessControl.sol\":6106:6132  _revokeRole(role, account) */\n      tag_260\n        /* \"@openzeppelin/contracts/access/AccessControl.sol\":6118:6122  role */\n      dup3\n        /* \"@openzeppelin/contracts/access/AccessControl.sol\":6124:6131  account */\n      dup3\n        /* \"@openzeppelin/contracts/access/AccessControl.sol\":6106:6117  _revokeRole */\n      tag_261\n        /* \"@openzeppelin/contracts/access/AccessControl.sol\":6106:6132  _revokeRole(role, account) */\n      jump\t// in\n    tag_260:\n        /* \"@openzeppelin/contracts/access/AccessControl.sol\":5925:6139  function renounceRole(bytes32 role, address account) public virtual override {... */\n      pop\n      pop\n      jump\t// out\n        /* \"lastQv.sol\":1641:2742  function createProposal(\r... */\n    tag_83:\n        /* \"lastQv.sol\":1814:1821  uint256 */\n      0x00\n        /* \"@openzeppelin/contracts/access/Ownable.sol\":1094:1107  _checkOwner() */\n      tag_263\n        /* \"@openzeppelin/contracts/access/Ownable.sol\":1094:1105  _checkOwner */\n      tag_183\n        /* \"@openzeppelin/contracts/access/Ownable.sol\":1094:1107  _checkOwner() */\n      jump\t// in\n    tag_263:\n        /* \"lastQv.sol\":1864:1865  0 */\n      0x00\n        /* \"lastQv.sol\":1842:1861  _voteExpirationTime */\n      dup3\n        /* \"lastQv.sol\":1842:1865  _voteExpirationTime > 0 */\n      gt\n        /* \"lastQv.sol\":1834:1899  require(_voteExpirationTime > 0, \"The voting period cannot be 0\") */\n      tag_265\n      jumpi\n      mload(0x40)\n      0x08c379a000000000000000000000000000000000000000000000000000000000\n      dup2\n      mstore\n      0x04\n      add\n      tag_266\n      swap1\n      tag_267\n      jump\t// in\n    tag_266:\n      mload(0x40)\n      dup1\n      swap2\n      sub\n      swap1\n      revert\n    tag_265:\n        /* \"lastQv.sol\":1910:1923  ProposalCount */\n      0x06\n      0x00\n        /* \"lastQv.sol\":1910:1925  ProposalCount++ */\n      dup2\n      sload\n      dup1\n      swap3\n      swap2\n      swap1\n      tag_268\n      swap1\n      tag_169\n      jump\t// in\n    tag_268:\n      swap2\n      swap1\n      pop\n      sstore\n      pop\n        /* \"lastQv.sol\":1936:1964  Proposal storage curProposal */\n      0x00\n        /* \"lastQv.sol\":1967:1976  Proposals */\n      0x07\n        /* \"lastQv.sol\":1967:1991  Proposals[ProposalCount] */\n      0x00\n        /* \"lastQv.sol\":1977:1990  ProposalCount */\n      sload(0x06)\n        /* \"lastQv.sol\":1967:1991  Proposals[ProposalCount] */\n      dup2\n      mstore\n      0x20\n      add\n      swap1\n      dup2\n      mstore\n      0x20\n      add\n      0x00\n      keccak256\n        /* \"lastQv.sol\":1936:1991  Proposal storage curProposal = Proposals[ProposalCount] */\n      swap1\n      pop\n        /* \"lastQv.sol\":2024:2034  msg.sender */\n      caller\n        /* \"lastQv.sol\":2002:2013  curProposal */\n      dup2\n        /* \"lastQv.sol\":2002:2021  curProposal.creator */\n      0x00\n      add\n      0x00\n        /* \"lastQv.sol\":2002:2034  curProposal.creator = msg.sender */\n      0x0100\n      exp\n      dup2\n      sload\n      dup2\n      0xffffffffffffffffffffffffffffffffffffffff\n      mul\n      not\n      and\n      swap1\n      dup4\n      0xffffffffffffffffffffffffffffffffffffffff\n      and\n      mul\n      or\n      swap1\n      sstore\n      pop\n        /* \"lastQv.sol\":2066:2092  ProposalStatus.IN_PROGRESS */\n      0x00\n        /* \"lastQv.sol\":2045:2056  curProposal */\n      dup2\n        /* \"lastQv.sol\":2045:2063  curProposal.status */\n      0x00\n      add\n      0x14\n        /* \"lastQv.sol\":2045:2092  curProposal.status = ProposalStatus.IN_PROGRESS */\n      0x0100\n      exp\n      dup2\n      sload\n      dup2\n      0xff\n      mul\n      not\n      and\n      swap1\n      dup4\n      0x02\n      dup2\n      gt\n      iszero\n      tag_269\n      jumpi\n      tag_270\n      tag_187\n      jump\t// in\n    tag_270:\n    tag_269:\n      mul\n      or\n      swap1\n      sstore\n      pop\n        /* \"lastQv.sol\":2229:2238  1 seconds */\n      0x01\n        /* \"lastQv.sol\":2194:2213  _voteExpirationTime */\n      dup4\n        /* \"lastQv.sol\":2176:2178  60 */\n      0x3c\n        /* \"lastQv.sol\":2176:2213  60 *\r... */\n      tag_271\n      swap2\n      swap1\n      tag_244\n      jump\t// in\n    tag_271:\n        /* \"lastQv.sol\":2176:2238  60 *\r... */\n      tag_272\n      swap2\n      swap1\n      tag_244\n      jump\t// in\n    tag_272:\n        /* \"lastQv.sol\":2145:2160  block.timestamp */\n      timestamp\n        /* \"lastQv.sol\":2145:2238  block.timestamp +\r... */\n      tag_273\n      swap2\n      swap1\n      tag_236\n      jump\t// in\n    tag_273:\n        /* \"lastQv.sol\":2103:2114  curProposal */\n      dup2\n        /* \"lastQv.sol\":2103:2129  curProposal.expirationTime */\n      0x03\n      add\n        /* \"lastQv.sol\":2103:2238  curProposal.expirationTime =\r... */\n      dup2\n      swap1\n      sstore\n      pop\n        /* \"lastQv.sol\":2275:2287  _description */\n      dup7\n      dup7\n        /* \"lastQv.sol\":2249:2260  curProposal */\n      dup3\n        /* \"lastQv.sol\":2249:2272  curProposal.description */\n      0x01\n      add\n        /* \"lastQv.sol\":2249:2287  curProposal.description = _description */\n      swap2\n      swap1\n      tag_274\n      swap3\n      swap2\n      swap1\n      tag_275\n      jump\t// in\n    tag_274:\n      pop\n        /* \"lastQv.sol\":2325:2333  _options */\n      dup5\n      dup5\n        /* \"lastQv.sol\":2325:2340  _options.length */\n      swap1\n      pop\n        /* \"lastQv.sol\":2298:2309  curProposal */\n      dup2\n        /* \"lastQv.sol\":2298:2322  curProposal.numOfOptions */\n      0x04\n      add\n        /* \"lastQv.sol\":2298:2340  curProposal.numOfOptions = _options.length */\n      dup2\n      swap1\n      sstore\n      pop\n        /* \"lastQv.sol\":2356:2365  uint256 i */\n      0x00\n        /* \"lastQv.sol\":2351:2551  for (uint256 i = 0; i < _options.length; i++) {\r... */\n    tag_276:\n        /* \"lastQv.sol\":2375:2383  _options */\n      dup6\n      dup6\n        /* \"lastQv.sol\":2375:2390  _options.length */\n      swap1\n      pop\n        /* \"lastQv.sol\":2371:2372  i */\n      dup2\n        /* \"lastQv.sol\":2371:2390  i < _options.length */\n      lt\n        /* \"lastQv.sol\":2351:2551  for (uint256 i = 0; i < _options.length; i++) {\r... */\n      iszero\n      tag_277\n      jumpi\n        /* \"lastQv.sol\":2441:2539  option({\r... */\n      mload(0x40)\n      dup1\n      0x40\n      add\n      0x40\n      mstore\n      dup1\n        /* \"lastQv.sol\":2479:2487  _options */\n      dup8\n      dup8\n        /* \"lastQv.sol\":2488:2489  i */\n      dup5\n        /* \"lastQv.sol\":2479:2490  _options[i] */\n      dup2\n      dup2\n      lt\n      tag_279\n      jumpi\n      tag_280\n      tag_234\n      jump\t// in\n    tag_280:\n    tag_279:\n      swap1\n      pop\n      0x20\n      mul\n      dup2\n      add\n      swap1\n      tag_281\n      swap2\n      swap1\n      tag_282\n      jump\t// in\n    tag_281:\n        /* \"lastQv.sol\":2441:2539  option({\r... */\n      dup1\n      dup1\n      0x1f\n      add\n      0x20\n      dup1\n      swap2\n      div\n      mul\n      0x20\n      add\n      mload(0x40)\n      swap1\n      dup2\n      add\n      0x40\n      mstore\n      dup1\n      swap4\n      swap3\n      swap2\n      swap1\n      dup2\n      dup2\n      mstore\n      0x20\n      add\n      dup4\n      dup4\n      dup1\n      dup3\n      dup5\n      calldatacopy\n      0x00\n      dup2\n      dup5\n      add\n      mstore\n      not(0x1f)\n      0x1f\n      dup3\n      add\n      and\n      swap1\n      pop\n      dup1\n      dup4\n      add\n      swap3\n      pop\n      pop\n      pop\n      pop\n      pop\n      pop\n      pop\n      dup2\n      mstore\n      0x20\n      add\n        /* \"lastQv.sol\":2522:2523  0 */\n      0x00\n        /* \"lastQv.sol\":2441:2539  option({\r... */\n      dup2\n      mstore\n      pop\n        /* \"lastQv.sol\":2412:2423  curProposal */\n      dup3\n        /* \"lastQv.sol\":2412:2431  curProposal.options */\n      0x06\n      add\n        /* \"lastQv.sol\":2412:2438  curProposal.options[i + 1] */\n      0x00\n        /* \"lastQv.sol\":2436:2437  1 */\n      0x01\n        /* \"lastQv.sol\":2432:2433  i */\n      dup5\n        /* \"lastQv.sol\":2432:2437  i + 1 */\n      tag_283\n      swap2\n      swap1\n      tag_236\n      jump\t// in\n    tag_283:\n        /* \"lastQv.sol\":2412:2438  curProposal.options[i + 1] */\n      dup2\n      mstore\n      0x20\n      add\n      swap1\n      dup2\n      mstore\n      0x20\n      add\n      0x00\n      keccak256\n        /* \"lastQv.sol\":2412:2539  curProposal.options[i + 1] = option({\r... */\n      0x00\n      dup3\n      add\n      mload\n      dup2\n      0x00\n      add\n      swap1\n      dup1\n      mload\n      swap1\n      0x20\n      add\n      swap1\n      tag_284\n      swap3\n      swap2\n      swap1\n      tag_285\n      jump\t// in\n    tag_284:\n      pop\n      0x20\n      dup3\n      add\n      mload\n      dup2\n      0x01\n      add\n      sstore\n      swap1\n      pop\n      pop\n        /* \"lastQv.sol\":2392:2395  i++ */\n      dup1\n      dup1\n      tag_286\n      swap1\n      tag_169\n      jump\t// in\n    tag_286:\n      swap2\n      pop\n      pop\n        /* \"lastQv.sol\":2351:2551  for (uint256 i = 0; i < _options.length; i++) {\r... */\n      jump(tag_276)\n    tag_277:\n      pop\n        /* \"lastQv.sol\":2568:2703  ProposalCreated(\r... */\n      0x812b79dc980087562a07c042555f014502c51aac180824c0546a12989f726b59\n        /* \"lastQv.sol\":2598:2608  msg.sender */\n      caller\n        /* \"lastQv.sol\":2623:2635  _description */\n      dup9\n      dup9\n        /* \"lastQv.sol\":2650:2658  _options */\n      dup9\n      dup9\n        /* \"lastQv.sol\":2673:2692  _voteExpirationTime */\n      dup9\n        /* \"lastQv.sol\":2568:2703  ProposalCreated(\r... */\n      mload(0x40)\n      tag_287\n      swap7\n      swap6\n      swap5\n      swap4\n      swap3\n      swap2\n      swap1\n      tag_288\n      jump\t// in\n    tag_287:\n      mload(0x40)\n      dup1\n      swap2\n      sub\n      swap1\n      log1\n        /* \"lastQv.sol\":2721:2734  ProposalCount */\n      sload(0x06)\n        /* \"lastQv.sol\":2714:2734  return ProposalCount */\n      swap2\n      pop\n      pop\n        /* \"lastQv.sol\":1641:2742  function createProposal(\r... */\n      swap6\n      swap5\n      pop\n      pop\n      pop\n      pop\n      pop\n      jump\t// out\n        /* \"lastQv.sol\":4551:4759  function getProposalStatus(uint256 _ProposalID)\r... */\n    tag_87:\n        /* \"lastQv.sol\":4683:4697  ProposalStatus */\n      0x00\n        /* \"lastQv.sol\":4652:4663  _ProposalID */\n      dup2\n        /* \"lastQv.sol\":5083:5084  0 */\n      0x00\n        /* \"lastQv.sol\":5069:5080  _ProposalID */\n      dup2\n        /* \"lastQv.sol\":5069:5084  _ProposalID > 0 */\n      gt\n        /* \"lastQv.sol\":5069:5116  _ProposalID > 0 && _ProposalID <= ProposalCount */\n      dup1\n      iszero\n      tag_290\n      jumpi\n      pop\n        /* \"lastQv.sol\":5103:5116  ProposalCount */\n      sload(0x06)\n        /* \"lastQv.sol\":5088:5099  _ProposalID */\n      dup2\n        /* \"lastQv.sol\":5088:5116  _ProposalID <= ProposalCount */\n      gt\n      iszero\n        /* \"lastQv.sol\":5069:5116  _ProposalID > 0 && _ProposalID <= ProposalCount */\n    tag_290:\n        /* \"lastQv.sol\":5047:5167  require(\r... */\n      tag_291\n      jumpi\n      mload(0x40)\n      0x08c379a000000000000000000000000000000000000000000000000000000000\n      dup2\n      mstore\n      0x04\n      add\n      tag_292\n      swap1\n      tag_180\n      jump\t// in\n    tag_292:\n      mload(0x40)\n      dup1\n      swap2\n      sub\n      swap1\n      revert\n    tag_291:\n        /* \"lastQv.sol\":4722:4731  Proposals */\n      0x07\n        /* \"lastQv.sol\":4722:4744  Proposals[_ProposalID] */\n      0x00\n        /* \"lastQv.sol\":4732:4743  _ProposalID */\n      dup5\n        /* \"lastQv.sol\":4722:4744  Proposals[_ProposalID] */\n      dup2\n      mstore\n      0x20\n      add\n      swap1\n      dup2\n      mstore\n      0x20\n      add\n      0x00\n      keccak256\n        /* \"lastQv.sol\":4722:4751  Proposals[_ProposalID].status */\n      0x00\n      add\n      0x14\n      swap1\n      sload\n      swap1\n      0x0100\n      exp\n      swap1\n      div\n      0xff\n      and\n        /* \"lastQv.sol\":4715:4751  return Proposals[_ProposalID].status */\n      swap2\n      pop\n        /* \"lastQv.sol\":4551:4759  function getProposalStatus(uint256 _ProposalID)\r... */\n      pop\n      swap2\n      swap1\n      pop\n      jump\t// out\n        /* \"lastQv.sol\":7944:8198  function mint(address account, uint256 amount) public onlyOwner {\r... */\n    tag_93:\n        /* \"@openzeppelin/contracts/access/Ownable.sol\":1094:1107  _checkOwner() */\n      tag_295\n        /* \"@openzeppelin/contracts/access/Ownable.sol\":1094:1105  _checkOwner */\n      tag_183\n        /* \"@openzeppelin/contracts/access/Ownable.sol\":1094:1107  _checkOwner() */\n      jump\t// in\n    tag_295:\n        /* \"lastQv.sol\":8046:8047  0 */\n      0x00\n        /* \"lastQv.sol\":8027:8048  account != address(0) */\n      0xffffffffffffffffffffffffffffffffffffffff\n      and\n        /* \"lastQv.sol\":8027:8034  account */\n      dup3\n        /* \"lastQv.sol\":8027:8048  account != address(0) */\n      0xffffffffffffffffffffffffffffffffffffffff\n      and\n      eq\n      iszero\n        /* \"lastQv.sol\":8019:8078  require(account != address(0), \" mint to the zero address\") */\n      tag_297\n      jumpi\n      mload(0x40)\n      0x08c379a000000000000000000000000000000000000000000000000000000000\n      dup2\n      mstore\n      0x04\n      add\n      tag_298\n      swap1\n      tag_299\n      jump\t// in\n    tag_298:\n      mload(0x40)\n      dup1\n      swap2\n      sub\n      swap1\n      revert\n    tag_297:\n        /* \"lastQv.sol\":8104:8128  _totalSupply.add(amount) */\n      tag_300\n        /* \"lastQv.sol\":8121:8127  amount */\n      dup2\n        /* \"lastQv.sol\":8104:8116  _totalSupply */\n      sload(0x02)\n        /* \"lastQv.sol\":8104:8120  _totalSupply.add */\n      tag_301\n      swap1\n        /* \"lastQv.sol\":8104:8128  _totalSupply.add(amount) */\n      swap2\n      swap1\n      0xffffffff\n      and\n      jump\t// in\n    tag_300:\n        /* \"lastQv.sol\":8089:8101  _totalSupply */\n      0x02\n        /* \"lastQv.sol\":8089:8128  _totalSupply = _totalSupply.add(amount) */\n      dup2\n      swap1\n      sstore\n      pop\n        /* \"lastQv.sol\":8160:8190  _balances[account].add(amount) */\n      tag_302\n        /* \"lastQv.sol\":8183:8189  amount */\n      dup2\n        /* \"lastQv.sol\":8160:8169  _balances */\n      0x05\n        /* \"lastQv.sol\":8160:8178  _balances[account] */\n      0x00\n        /* \"lastQv.sol\":8170:8177  account */\n      dup6\n        /* \"lastQv.sol\":8160:8178  _balances[account] */\n      0xffffffffffffffffffffffffffffffffffffffff\n      and\n      0xffffffffffffffffffffffffffffffffffffffff\n      and\n      dup2\n      mstore\n      0x20\n      add\n      swap1\n      dup2\n      mstore\n      0x20\n      add\n      0x00\n      keccak256\n      sload\n        /* \"lastQv.sol\":8160:8182  _balances[account].add */\n      tag_301\n      swap1\n        /* \"lastQv.sol\":8160:8190  _balances[account].add(amount) */\n      swap2\n      swap1\n      0xffffffff\n      and\n      jump\t// in\n    tag_302:\n        /* \"lastQv.sol\":8139:8148  _balances */\n      0x05\n        /* \"lastQv.sol\":8139:8157  _balances[account] */\n      0x00\n        /* \"lastQv.sol\":8149:8156  account */\n      dup5\n        /* \"lastQv.sol\":8139:8157  _balances[account] */\n      0xffffffffffffffffffffffffffffffffffffffff\n      and\n      0xffffffffffffffffffffffffffffffffffffffff\n      and\n      dup2\n      mstore\n      0x20\n      add\n      swap1\n      dup2\n      mstore\n      0x20\n      add\n      0x00\n      keccak256\n        /* \"lastQv.sol\":8139:8190  _balances[account] = _balances[account].add(amount) */\n      dup2\n      swap1\n      sstore\n      pop\n        /* \"lastQv.sol\":7944:8198  function mint(address account, uint256 amount) public onlyOwner {\r... */\n      pop\n      pop\n      jump\t// out\n        /* \"lastQv.sol\":4057:4543  function setProposalToEnded(uint256 _ProposalID)\r... */\n    tag_96:\n        /* \"lastQv.sol\":4147:4158  _ProposalID */\n      dup1\n        /* \"lastQv.sol\":5083:5084  0 */\n      0x00\n        /* \"lastQv.sol\":5069:5080  _ProposalID */\n      dup2\n        /* \"lastQv.sol\":5069:5084  _ProposalID > 0 */\n      gt\n        /* \"lastQv.sol\":5069:5116  _ProposalID > 0 && _ProposalID <= ProposalCount */\n      dup1\n      iszero\n      tag_304\n      jumpi\n      pop\n        /* \"lastQv.sol\":5103:5116  ProposalCount */\n      sload(0x06)\n        /* \"lastQv.sol\":5088:5099  _ProposalID */\n      dup2\n        /* \"lastQv.sol\":5088:5116  _ProposalID <= ProposalCount */\n      gt\n      iszero\n        /* \"lastQv.sol\":5069:5116  _ProposalID > 0 && _ProposalID <= ProposalCount */\n    tag_304:\n        /* \"lastQv.sol\":5047:5167  require(\r... */\n      tag_305\n      jumpi\n      mload(0x40)\n      0x08c379a000000000000000000000000000000000000000000000000000000000\n      dup2\n      mstore\n      0x04\n      add\n      tag_306\n      swap1\n      tag_180\n      jump\t// in\n    tag_306:\n      mload(0x40)\n      dup1\n      swap2\n      sub\n      swap1\n      revert\n    tag_305:\n        /* \"@openzeppelin/contracts/access/Ownable.sol\":1094:1107  _checkOwner() */\n      tag_308\n        /* \"@openzeppelin/contracts/access/Ownable.sol\":1094:1105  _checkOwner */\n      tag_183\n        /* \"@openzeppelin/contracts/access/Ownable.sol\":1094:1107  _checkOwner() */\n      jump\t// in\n    tag_308:\n        /* \"lastQv.sol\":4250:4270  ProposalStatus.TALLY */\n      0x01\n        /* \"lastQv.sol\":4217:4270  Proposals[_ProposalID].status == ProposalStatus.TALLY */\n      0x02\n      dup2\n      gt\n      iszero\n      tag_310\n      jumpi\n      tag_311\n      tag_187\n      jump\t// in\n    tag_311:\n    tag_310:\n        /* \"lastQv.sol\":4217:4226  Proposals */\n      0x07\n        /* \"lastQv.sol\":4217:4239  Proposals[_ProposalID] */\n      0x00\n        /* \"lastQv.sol\":4227:4238  _ProposalID */\n      dup5\n        /* \"lastQv.sol\":4217:4239  Proposals[_ProposalID] */\n      dup2\n      mstore\n      0x20\n      add\n      swap1\n      dup2\n      mstore\n      0x20\n      add\n      0x00\n      keccak256\n        /* \"lastQv.sol\":4217:4246  Proposals[_ProposalID].status */\n      0x00\n      add\n      0x14\n      swap1\n      sload\n      swap1\n      0x0100\n      exp\n      swap1\n      div\n      0xff\n      and\n        /* \"lastQv.sol\":4217:4270  Proposals[_ProposalID].status == ProposalStatus.TALLY */\n      0x02\n      dup2\n      gt\n      iszero\n      tag_312\n      jumpi\n      tag_313\n      tag_187\n      jump\t// in\n    tag_313:\n    tag_312:\n      eq\n        /* \"lastQv.sol\":4195:4325  require(\r... */\n      tag_314\n      jumpi\n      mload(0x40)\n      0x08c379a000000000000000000000000000000000000000000000000000000000\n      dup2\n      mstore\n      0x04\n      add\n      tag_315\n      swap1\n      tag_316\n      jump\t// in\n    tag_315:\n      mload(0x40)\n      dup1\n      swap2\n      sub\n      swap1\n      revert\n    tag_314:\n        /* \"lastQv.sol\":4377:4415  getProposalExpirationTime(_ProposalID) */\n      tag_317\n        /* \"lastQv.sol\":4403:4414  _ProposalID */\n      dup3\n        /* \"lastQv.sol\":4377:4402  getProposalExpirationTime */\n      tag_99\n        /* \"lastQv.sol\":4377:4415  getProposalExpirationTime(_ProposalID) */\n      jump\t// in\n    tag_317:\n        /* \"lastQv.sol\":4358:4373  block.timestamp */\n      timestamp\n        /* \"lastQv.sol\":4358:4415  block.timestamp >= getProposalExpirationTime(_ProposalID) */\n      lt\n      iszero\n        /* \"lastQv.sol\":4336:4472  require(\r... */\n      tag_318\n      jumpi\n      mload(0x40)\n      0x08c379a000000000000000000000000000000000000000000000000000000000\n      dup2\n      mstore\n      0x04\n      add\n      tag_319\n      swap1\n      tag_196\n      jump\t// in\n    tag_319:\n      mload(0x40)\n      dup1\n      swap2\n      sub\n      swap1\n      revert\n    tag_318:\n        /* \"lastQv.sol\":4515:4535  ProposalStatus.ENDED */\n      0x02\n        /* \"lastQv.sol\":4483:4492  Proposals */\n      0x07\n        /* \"lastQv.sol\":4483:4505  Proposals[_ProposalID] */\n      0x00\n        /* \"lastQv.sol\":4493:4504  _ProposalID */\n      dup5\n        /* \"lastQv.sol\":4483:4505  Proposals[_ProposalID] */\n      dup2\n      mstore\n      0x20\n      add\n      swap1\n      dup2\n      mstore\n      0x20\n      add\n      0x00\n      keccak256\n        /* \"lastQv.sol\":4483:4512  Proposals[_ProposalID].status */\n      0x00\n      add\n      0x14\n        /* \"lastQv.sol\":4483:4535  Proposals[_ProposalID].status = ProposalStatus.ENDED */\n      0x0100\n      exp\n      dup2\n      sload\n      dup2\n      0xff\n      mul\n      not\n      and\n      swap1\n      dup4\n      0x02\n      dup2\n      gt\n      iszero\n      tag_320\n      jumpi\n      tag_321\n      tag_187\n      jump\t// in\n    tag_321:\n    tag_320:\n      mul\n      or\n      swap1\n      sstore\n      pop\n        /* \"lastQv.sol\":4057:4543  function setProposalToEnded(uint256 _ProposalID)\r... */\n      pop\n      pop\n      jump\t// out\n        /* \"lastQv.sol\":4767:4984  function getProposalExpirationTime(uint256 _ProposalID)\r... */\n    tag_99:\n        /* \"lastQv.sol\":4907:4914  uint256 */\n      0x00\n        /* \"lastQv.sol\":4876:4887  _ProposalID */\n      dup2\n        /* \"lastQv.sol\":5083:5084  0 */\n      0x00\n        /* \"lastQv.sol\":5069:5080  _ProposalID */\n      dup2\n        /* \"lastQv.sol\":5069:5084  _ProposalID > 0 */\n      gt\n        /* \"lastQv.sol\":5069:5116  _ProposalID > 0 && _ProposalID <= ProposalCount */\n      dup1\n      iszero\n      tag_323\n      jumpi\n      pop\n        /* \"lastQv.sol\":5103:5116  ProposalCount */\n      sload(0x06)\n        /* \"lastQv.sol\":5088:5099  _ProposalID */\n      dup2\n        /* \"lastQv.sol\":5088:5116  _ProposalID <= ProposalCount */\n      gt\n      iszero\n        /* \"lastQv.sol\":5069:5116  _ProposalID > 0 && _ProposalID <= ProposalCount */\n    tag_323:\n        /* \"lastQv.sol\":5047:5167  require(\r... */\n      tag_324\n      jumpi\n      mload(0x40)\n      0x08c379a000000000000000000000000000000000000000000000000000000000\n      dup2\n      mstore\n      0x04\n      add\n      tag_325\n      swap1\n      tag_180\n      jump\t// in\n    tag_325:\n      mload(0x40)\n      dup1\n      swap2\n      sub\n      swap1\n      revert\n    tag_324:\n        /* \"lastQv.sol\":4939:4948  Proposals */\n      0x07\n        /* \"lastQv.sol\":4939:4961  Proposals[_ProposalID] */\n      0x00\n        /* \"lastQv.sol\":4949:4960  _ProposalID */\n      dup5\n        /* \"lastQv.sol\":4939:4961  Proposals[_ProposalID] */\n      dup2\n      mstore\n      0x20\n      add\n      swap1\n      dup2\n      mstore\n      0x20\n      add\n      0x00\n      keccak256\n        /* \"lastQv.sol\":4939:4976  Proposals[_ProposalID].expirationTime */\n      0x03\n      add\n      sload\n        /* \"lastQv.sol\":4932:4976  return Proposals[_ProposalID].expirationTime */\n      swap2\n      pop\n        /* \"lastQv.sol\":4767:4984  function getProposalExpirationTime(uint256 _ProposalID)\r... */\n      pop\n      swap2\n      swap1\n      pop\n      jump\t// out\n        /* \"lastQv.sol\":5195:5424  function userHasVoted(uint256 _ProposalID, address _user)\r... */\n    tag_104:\n        /* \"lastQv.sol\":5337:5341  bool */\n      0x00\n        /* \"lastQv.sol\":5306:5317  _ProposalID */\n      dup3\n        /* \"lastQv.sol\":5083:5084  0 */\n      0x00\n        /* \"lastQv.sol\":5069:5080  _ProposalID */\n      dup2\n        /* \"lastQv.sol\":5069:5084  _ProposalID > 0 */\n      gt\n        /* \"lastQv.sol\":5069:5116  _ProposalID > 0 && _ProposalID <= ProposalCount */\n      dup1\n      iszero\n      tag_328\n      jumpi\n      pop\n        /* \"lastQv.sol\":5103:5116  ProposalCount */\n      sload(0x06)\n        /* \"lastQv.sol\":5088:5099  _ProposalID */\n      dup2\n        /* \"lastQv.sol\":5088:5116  _ProposalID <= ProposalCount */\n      gt\n      iszero\n        /* \"lastQv.sol\":5069:5116  _ProposalID > 0 && _ProposalID <= ProposalCount */\n    tag_328:\n        /* \"lastQv.sol\":5047:5167  require(\r... */\n      tag_329\n      jumpi\n      mload(0x40)\n      0x08c379a000000000000000000000000000000000000000000000000000000000\n      dup2\n      mstore\n      0x04\n      add\n      tag_330\n      swap1\n      tag_180\n      jump\t// in\n    tag_330:\n      mload(0x40)\n      dup1\n      swap2\n      sub\n      swap1\n      revert\n    tag_329:\n        /* \"lastQv.sol\":5367:5376  Proposals */\n      0x07\n        /* \"lastQv.sol\":5367:5389  Proposals[_ProposalID] */\n      0x00\n        /* \"lastQv.sol\":5377:5388  _ProposalID */\n      dup6\n        /* \"lastQv.sol\":5367:5389  Proposals[_ProposalID] */\n      dup2\n      mstore\n      0x20\n      add\n      swap1\n      dup2\n      mstore\n      0x20\n      add\n      0x00\n      keccak256\n        /* \"lastQv.sol\":5367:5399  Proposals[_ProposalID].voterInfo */\n      0x05\n      add\n        /* \"lastQv.sol\":5367:5406  Proposals[_ProposalID].voterInfo[_user] */\n      0x00\n        /* \"lastQv.sol\":5400:5405  _user */\n      dup5\n        /* \"lastQv.sol\":5367:5406  Proposals[_ProposalID].voterInfo[_user] */\n      0xffffffffffffffffffffffffffffffffffffffff\n      and\n      0xffffffffffffffffffffffffffffffffffffffff\n      and\n      dup2\n      mstore\n      0x20\n      add\n      swap1\n      dup2\n      mstore\n      0x20\n      add\n      0x00\n      keccak256\n        /* \"lastQv.sol\":5367:5415  Proposals[_ProposalID].voterInfo[_user].hasVoted */\n      0x00\n      add\n      0x00\n      swap1\n      sload\n      swap1\n      0x0100\n      exp\n      swap1\n      div\n      0xff\n      and\n        /* \"lastQv.sol\":5359:5416  return (Proposals[_ProposalID].voterInfo[_user].hasVoted) */\n      swap2\n      pop\n        /* \"lastQv.sol\":5195:5424  function userHasVoted(uint256 _ProposalID, address _user)\r... */\n      pop\n      swap3\n      swap2\n      pop\n      pop\n      jump\t// out\n        /* \"lastQv.sol\":8271:8381  function balanceOf(address account) public view returns (uint256) {\r... */\n    tag_109:\n        /* \"lastQv.sol\":8328:8335  uint256 */\n      0x00\n        /* \"lastQv.sol\":8355:8364  _balances */\n      0x05\n        /* \"lastQv.sol\":8355:8373  _balances[account] */\n      0x00\n        /* \"lastQv.sol\":8365:8372  account */\n      dup4\n        /* \"lastQv.sol\":8355:8373  _balances[account] */\n      0xffffffffffffffffffffffffffffffffffffffff\n      and\n      0xffffffffffffffffffffffffffffffffffffffff\n      and\n      dup2\n      mstore\n      0x20\n      add\n      swap1\n      dup2\n      mstore\n      0x20\n      add\n      0x00\n      keccak256\n      sload\n        /* \"lastQv.sol\":8348:8373  return _balances[account] */\n      swap1\n      pop\n        /* \"lastQv.sol\":8271:8381  function balanceOf(address account) public view returns (uint256) {\r... */\n      swap2\n      swap1\n      pop\n      jump\t// out\n        /* \"@openzeppelin/contracts/access/Ownable.sol\":1831:1932  function renounceOwnership() public virtual onlyOwner {... */\n    tag_112:\n        /* \"@openzeppelin/contracts/access/Ownable.sol\":1094:1107  _checkOwner() */\n      tag_334\n        /* \"@openzeppelin/contracts/access/Ownable.sol\":1094:1105  _checkOwner */\n      tag_183\n        /* \"@openzeppelin/contracts/access/Ownable.sol\":1094:1107  _checkOwner() */\n      jump\t// in\n    tag_334:\n        /* \"@openzeppelin/contracts/access/Ownable.sol\":1895:1925  _transferOwnership(address(0)) */\n      tag_336\n        /* \"@openzeppelin/contracts/access/Ownable.sol\":1922:1923  0 */\n      0x00\n        /* \"@openzeppelin/contracts/access/Ownable.sol\":1895:1913  _transferOwnership */\n      tag_337\n        /* \"@openzeppelin/contracts/access/Ownable.sol\":1895:1925  _transferOwnership(address(0)) */\n      jump\t// in\n    tag_336:\n        /* \"@openzeppelin/contracts/access/Ownable.sol\":1831:1932  function renounceOwnership() public virtual onlyOwner {... */\n      jump\t// out\n        /* \"@openzeppelin/contracts/access/Ownable.sol\":1201:1286  function owner() public view virtual returns (address) {... */\n    tag_114:\n        /* \"@openzeppelin/contracts/access/Ownable.sol\":1247:1254  address */\n      0x00\n        /* \"@openzeppelin/contracts/access/Ownable.sol\":1273:1279  _owner */\n      dup1\n      0x00\n      swap1\n      sload\n      swap1\n      0x0100\n      exp\n      swap1\n      div\n      0xffffffffffffffffffffffffffffffffffffffff\n      and\n        /* \"@openzeppelin/contracts/access/Ownable.sol\":1266:1279  return _owner */\n      swap1\n      pop\n        /* \"@openzeppelin/contracts/access/Ownable.sol\":1201:1286  function owner() public view virtual returns (address) {... */\n      swap1\n      jump\t// out\n        /* \"@openzeppelin/contracts/access/AccessControl.sol\":2895:3040  function hasRole(bytes32 role, address account) public view virtual override returns (bool) {... */\n    tag_119:\n        /* \"@openzeppelin/contracts/access/AccessControl.sol\":2981:2985  bool */\n      0x00\n        /* \"@openzeppelin/contracts/access/AccessControl.sol\":3004:3010  _roles */\n      0x01\n        /* \"@openzeppelin/contracts/access/AccessControl.sol\":3004:3016  _roles[role] */\n      0x00\n        /* \"@openzeppelin/contracts/access/AccessControl.sol\":3011:3015  role */\n      dup5\n        /* \"@openzeppelin/contracts/access/AccessControl.sol\":3004:3016  _roles[role] */\n      dup2\n      mstore\n      0x20\n      add\n      swap1\n      dup2\n      mstore\n      0x20\n      add\n      0x00\n      keccak256\n        /* \"@openzeppelin/contracts/access/AccessControl.sol\":3004:3024  _roles[role].members */\n      0x00\n      add\n        /* \"@openzeppelin/contracts/access/AccessControl.sol\":3004:3033  _roles[role].members[account] */\n      0x00\n        /* \"@openzeppelin/contracts/access/AccessControl.sol\":3025:3032  account */\n      dup4\n        /* \"@openzeppelin/contracts/access/AccessControl.sol\":3004:3033  _roles[role].members[account] */\n      0xffffffffffffffffffffffffffffffffffffffff\n      and\n      0xffffffffffffffffffffffffffffffffffffffff\n      and\n      dup2\n      mstore\n      0x20\n      add\n      swap1\n      dup2\n      mstore\n      0x20\n      add\n      0x00\n      keccak256\n      0x00\n      swap1\n      sload\n      swap1\n      0x0100\n      exp\n      swap1\n      div\n      0xff\n      and\n        /* \"@openzeppelin/contracts/access/AccessControl.sol\":2997:3033  return _roles[role].members[account] */\n      swap1\n      pop\n        /* \"@openzeppelin/contracts/access/AccessControl.sol\":2895:3040  function hasRole(bytes32 role, address account) public view virtual override returns (bool) {... */\n      swap3\n      swap2\n      pop\n      pop\n      jump\t// out\n        /* \"lastQv.sol\":352:372  string public symbol */\n    tag_122:\n      0x03\n      dup1\n      sload\n      tag_340\n      swap1\n      tag_157\n      jump\t// in\n    tag_340:\n      dup1\n      0x1f\n      add\n      0x20\n      dup1\n      swap2\n      div\n      mul\n      0x20\n      add\n      mload(0x40)\n      swap1\n      dup2\n      add\n      0x40\n      mstore\n      dup1\n      swap3\n      swap2\n      swap1\n      dup2\n      dup2\n      mstore\n      0x20\n      add\n      dup3\n      dup1\n      sload\n      tag_341\n      swap1\n      tag_157\n      jump\t// in\n    tag_341:\n      dup1\n      iszero\n      tag_342\n      jumpi\n      dup1\n      0x1f\n      lt\n      tag_343\n      jumpi\n      0x0100\n      dup1\n      dup4\n      sload\n      div\n      mul\n      dup4\n      mstore\n      swap2\n      0x20\n      add\n      swap2\n      jump(tag_342)\n    tag_343:\n      dup3\n      add\n      swap2\n      swap1\n      0x00\n      mstore\n      keccak256(0x00, 0x20)\n      swap1\n    tag_344:\n      dup2\n      sload\n      dup2\n      mstore\n      swap1\n      0x01\n      add\n      swap1\n      0x20\n      add\n      dup1\n      dup4\n      gt\n      tag_344\n      jumpi\n      dup3\n      swap1\n      sub\n      0x1f\n      and\n      dup3\n      add\n      swap2\n    tag_342:\n      pop\n      pop\n      pop\n      pop\n      pop\n      dup2\n      jump\t// out\n        /* \"@openzeppelin/contracts/access/AccessControl.sol\":2027:2076  bytes32 public constant DEFAULT_ADMIN_ROLE = 0x00 */\n    tag_125:\n        /* \"@openzeppelin/contracts/access/AccessControl.sol\":2072:2076  0x00 */\n      0x00\n        /* \"@openzeppelin/contracts/access/AccessControl.sol\":2027:2076  bytes32 public constant DEFAULT_ADMIN_ROLE = 0x00 */\n      dup1\n      shl\n      dup2\n      jump\t// out\n        /* \"lastQv.sol\":1480:1633  function checkAdmin() public view returns (bool) {\r... */\n    tag_128:\n        /* \"lastQv.sol\":1523:1527  bool */\n      0x00\n        /* \"lastQv.sol\":1558:1563  Owner */\n      0x08\n      0x00\n      swap1\n      sload\n      swap1\n      0x0100\n      exp\n      swap1\n      div\n      0xffffffffffffffffffffffffffffffffffffffff\n      and\n        /* \"lastQv.sol\":1544:1563  msg.sender == Owner */\n      0xffffffffffffffffffffffffffffffffffffffff\n      and\n        /* \"lastQv.sol\":1544:1554  msg.sender */\n      caller\n        /* \"lastQv.sol\":1544:1563  msg.sender == Owner */\n      0xffffffffffffffffffffffffffffffffffffffff\n      and\n      eq\n        /* \"lastQv.sol\":1540:1603  if (msg.sender == Owner) {\r... */\n      iszero\n      tag_346\n      jumpi\n        /* \"lastQv.sol\":1587:1591  true */\n      0x01\n        /* \"lastQv.sol\":1580:1591  return true */\n      swap1\n      pop\n      jump(tag_345)\n        /* \"lastQv.sol\":1540:1603  if (msg.sender == Owner) {\r... */\n    tag_346:\n        /* \"lastQv.sol\":1620:1625  false */\n      0x00\n        /* \"lastQv.sol\":1613:1625  return false */\n      swap1\n      pop\n        /* \"lastQv.sol\":1480:1633  function checkAdmin() public view returns (bool) {\r... */\n    tag_345:\n      swap1\n      jump\t// out\n        /* \"lastQv.sol\":3351:4049  function getDetails(uint256 _ProposalID)\r... */\n    tag_132:\n        /* \"lastQv.sol\":3456:3469  string memory */\n      0x60\n        /* \"lastQv.sol\":3484:3499  string[] memory */\n      dup1\n        /* \"lastQv.sol\":3514:3521  uint256 */\n      0x00\n        /* \"lastQv.sol\":3536:3550  ProposalStatus */\n      dup1\n        /* \"lastQv.sol\":3578:3602  string[] memory _options */\n      0x00\n        /* \"lastQv.sol\":3632:3641  Proposals */\n      0x07\n        /* \"lastQv.sol\":3632:3654  Proposals[_ProposalID] */\n      0x00\n        /* \"lastQv.sol\":3642:3653  _ProposalID */\n      dup8\n        /* \"lastQv.sol\":3632:3654  Proposals[_ProposalID] */\n      dup2\n      mstore\n      0x20\n      add\n      swap1\n      dup2\n      mstore\n      0x20\n      add\n      0x00\n      keccak256\n        /* \"lastQv.sol\":3632:3667  Proposals[_ProposalID].numOfOptions */\n      0x04\n      add\n      sload\n        /* \"lastQv.sol\":3605:3678  new string[](\r... */\n      0xffffffffffffffff\n      dup2\n      gt\n      iszero\n      tag_348\n      jumpi\n      tag_349\n      tag_350\n      jump\t// in\n    tag_349:\n    tag_348:\n      mload(0x40)\n      swap1\n      dup1\n      dup3\n      mstore\n      dup1\n      0x20\n      mul\n      0x20\n      add\n      dup3\n      add\n      0x40\n      mstore\n      dup1\n      iszero\n      tag_351\n      jumpi\n      dup2\n      0x20\n      add\n    tag_352:\n      0x60\n      dup2\n      mstore\n      0x20\n      add\n      swap1\n      0x01\n      swap1\n      sub\n      swap1\n      dup2\n      tag_352\n      jumpi\n      swap1\n      pop\n    tag_351:\n      pop\n        /* \"lastQv.sol\":3578:3678  string[] memory _options = new string[](\r... */\n      swap1\n      pop\n        /* \"lastQv.sol\":3694:3703  uint256 i */\n      0x00\n        /* \"lastQv.sol\":3706:3707  1 */\n      0x01\n        /* \"lastQv.sol\":3694:3707  uint256 i = 1 */\n      swap1\n      pop\n        /* \"lastQv.sol\":3689:3845  for (uint256 i = 1; i <= Proposals[_ProposalID].numOfOptions; i++) {\r... */\n    tag_353:\n        /* \"lastQv.sol\":3714:3723  Proposals */\n      0x07\n        /* \"lastQv.sol\":3714:3736  Proposals[_ProposalID] */\n      0x00\n        /* \"lastQv.sol\":3724:3735  _ProposalID */\n      dup9\n        /* \"lastQv.sol\":3714:3736  Proposals[_ProposalID] */\n      dup2\n      mstore\n      0x20\n      add\n      swap1\n      dup2\n      mstore\n      0x20\n      add\n      0x00\n      keccak256\n        /* \"lastQv.sol\":3714:3749  Proposals[_ProposalID].numOfOptions */\n      0x04\n      add\n      sload\n        /* \"lastQv.sol\":3709:3710  i */\n      dup2\n        /* \"lastQv.sol\":3709:3749  i <= Proposals[_ProposalID].numOfOptions */\n      gt\n        /* \"lastQv.sol\":3689:3845  for (uint256 i = 1; i <= Proposals[_ProposalID].numOfOptions; i++) {\r... */\n      tag_354\n      jumpi\n        /* \"lastQv.sol\":3789:3798  Proposals */\n      0x07\n        /* \"lastQv.sol\":3789:3811  Proposals[_ProposalID] */\n      0x00\n        /* \"lastQv.sol\":3799:3810  _ProposalID */\n      dup9\n        /* \"lastQv.sol\":3789:3811  Proposals[_ProposalID] */\n      dup2\n      mstore\n      0x20\n      add\n      swap1\n      dup2\n      mstore\n      0x20\n      add\n      0x00\n      keccak256\n        /* \"lastQv.sol\":3789:3819  Proposals[_ProposalID].options */\n      0x06\n      add\n        /* \"lastQv.sol\":3789:3822  Proposals[_ProposalID].options[i] */\n      0x00\n        /* \"lastQv.sol\":3820:3821  i */\n      dup3\n        /* \"lastQv.sol\":3789:3822  Proposals[_ProposalID].options[i] */\n      dup2\n      mstore\n      0x20\n      add\n      swap1\n      dup2\n      mstore\n      0x20\n      add\n      0x00\n      keccak256\n        /* \"lastQv.sol\":3789:3833  Proposals[_ProposalID].options[i].optionName */\n      0x00\n      add\n        /* \"lastQv.sol\":3771:3833  _options[i - 1] = Proposals[_ProposalID].options[i].optionName */\n      dup1\n      sload\n      tag_356\n      swap1\n      tag_157\n      jump\t// in\n    tag_356:\n      dup1\n      0x1f\n      add\n      0x20\n      dup1\n      swap2\n      div\n      mul\n      0x20\n      add\n      mload(0x40)\n      swap1\n      dup2\n      add\n      0x40\n      mstore\n      dup1\n      swap3\n      swap2\n      swap1\n      dup2\n      dup2\n      mstore\n      0x20\n      add\n      dup3\n      dup1\n      sload\n      tag_357\n      swap1\n      tag_157\n      jump\t// in\n    tag_357:\n      dup1\n      iszero\n      tag_358\n      jumpi\n      dup1\n      0x1f\n      lt\n      tag_359\n      jumpi\n      0x0100\n      dup1\n      dup4\n      sload\n      div\n      mul\n      dup4\n      mstore\n      swap2\n      0x20\n      add\n      swap2\n      jump(tag_358)\n    tag_359:\n      dup3\n      add\n      swap2\n      swap1\n      0x00\n      mstore\n      keccak256(0x00, 0x20)\n      swap1\n    tag_360:\n      dup2\n      sload\n      dup2\n      mstore\n      swap1\n      0x01\n      add\n      swap1\n      0x20\n      add\n      dup1\n      dup4\n      gt\n      tag_360\n      jumpi\n      dup3\n      swap1\n      sub\n      0x1f\n      and\n      dup3\n      add\n      swap2\n    tag_358:\n      pop\n      pop\n      pop\n      pop\n      pop\n        /* \"lastQv.sol\":3771:3779  _options */\n      dup3\n        /* \"lastQv.sol\":3784:3785  1 */\n      0x01\n        /* \"lastQv.sol\":3780:3781  i */\n      dup4\n        /* \"lastQv.sol\":3780:3785  i - 1 */\n      tag_361\n      swap2\n      swap1\n      tag_231\n      jump\t// in\n    tag_361:\n        /* \"lastQv.sol\":3771:3786  _options[i - 1] */\n      dup2\n      mload\n      dup2\n      lt\n      tag_362\n      jumpi\n      tag_363\n      tag_234\n      jump\t// in\n    tag_363:\n    tag_362:\n      0x20\n      mul\n      0x20\n      add\n      add\n        /* \"lastQv.sol\":3771:3833  _options[i - 1] = Proposals[_ProposalID].options[i].optionName */\n      dup2\n      swap1\n      mstore\n      pop\n        /* \"lastQv.sol\":3751:3754  i++ */\n      dup1\n      dup1\n      tag_364\n      swap1\n      tag_169\n      jump\t// in\n    tag_364:\n      swap2\n      pop\n      pop\n        /* \"lastQv.sol\":3689:3845  for (uint256 i = 1; i <= Proposals[_ProposalID].numOfOptions; i++) {\r... */\n      jump(tag_353)\n    tag_354:\n      pop\n        /* \"lastQv.sol\":3877:3886  Proposals */\n      0x07\n        /* \"lastQv.sol\":3877:3899  Proposals[_ProposalID] */\n      0x00\n        /* \"lastQv.sol\":3887:3898  _ProposalID */\n      dup8\n        /* \"lastQv.sol\":3877:3899  Proposals[_ProposalID] */\n      dup2\n      mstore\n      0x20\n      add\n      swap1\n      dup2\n      mstore\n      0x20\n      add\n      0x00\n      keccak256\n        /* \"lastQv.sol\":3877:3911  Proposals[_ProposalID].description */\n      0x01\n      add\n        /* \"lastQv.sol\":3926:3934  _options */\n      dup2\n        /* \"lastQv.sol\":3949:3958  Proposals */\n      0x07\n        /* \"lastQv.sol\":3949:3971  Proposals[_ProposalID] */\n      0x00\n        /* \"lastQv.sol\":3959:3970  _ProposalID */\n      dup10\n        /* \"lastQv.sol\":3949:3971  Proposals[_ProposalID] */\n      dup2\n      mstore\n      0x20\n      add\n      swap1\n      dup2\n      mstore\n      0x20\n      add\n      0x00\n      keccak256\n        /* \"lastQv.sol\":3949:3986  Proposals[_ProposalID].expirationTime */\n      0x03\n      add\n      sload\n        /* \"lastQv.sol\":4001:4010  Proposals */\n      0x07\n        /* \"lastQv.sol\":4001:4023  Proposals[_ProposalID] */\n      0x00\n        /* \"lastQv.sol\":4011:4022  _ProposalID */\n      dup11\n        /* \"lastQv.sol\":4001:4023  Proposals[_ProposalID] */\n      dup2\n      mstore\n      0x20\n      add\n      swap1\n      dup2\n      mstore\n      0x20\n      add\n      0x00\n      keccak256\n        /* \"lastQv.sol\":4001:4030  Proposals[_ProposalID].status */\n      0x00\n      add\n      0x14\n      swap1\n      sload\n      swap1\n      0x0100\n      exp\n      swap1\n      div\n      0xff\n      and\n        /* \"lastQv.sol\":3855:4041  return (\r... */\n      dup4\n      dup1\n      sload\n      tag_365\n      swap1\n      tag_157\n      jump\t// in\n    tag_365:\n      dup1\n      0x1f\n      add\n      0x20\n      dup1\n      swap2\n      div\n      mul\n      0x20\n      add\n      mload(0x40)\n      swap1\n      dup2\n      add\n      0x40\n      mstore\n      dup1\n      swap3\n      swap2\n      swap1\n      dup2\n      dup2\n      mstore\n      0x20\n      add\n      dup3\n      dup1\n      sload\n      tag_366\n      swap1\n      tag_157\n      jump\t// in\n    tag_366:\n      dup1\n      iszero\n      tag_367\n      jumpi\n      dup1\n      0x1f\n      lt\n      tag_368\n      jumpi\n      0x0100\n      dup1\n      dup4\n      sload\n      div\n      mul\n      dup4\n      mstore\n      swap2\n      0x20\n      add\n      swap2\n      jump(tag_367)\n    tag_368:\n      dup3\n      add\n      swap2\n      swap1\n      0x00\n      mstore\n      keccak256(0x00, 0x20)\n      swap1\n    tag_369:\n      dup2\n      sload\n      dup2\n      mstore\n      swap1\n      0x01\n      add\n      swap1\n      0x20\n      add\n      dup1\n      dup4\n      gt\n      tag_369\n      jumpi\n      dup3\n      swap1\n      sub\n      0x1f\n      and\n      dup3\n      add\n      swap2\n    tag_367:\n      pop\n      pop\n      pop\n      pop\n      pop\n      swap4\n      pop\n      swap5\n      pop\n      swap5\n      pop\n      swap5\n      pop\n      swap5\n      pop\n      pop\n        /* \"lastQv.sol\":3351:4049  function getDetails(uint256 _ProposalID)\r... */\n      swap2\n      swap4\n      pop\n      swap2\n      swap4\n      jump\t// out\n        /* \"lastQv.sol\":456:484  uint256 public ProposalCount */\n    tag_136:\n      sload(0x06)\n      dup2\n      jump\t// out\n        /* \"lastQv.sol\":2750:2847  function getProposalCount() public view returns (uint256) {\r... */\n    tag_139:\n        /* \"lastQv.sol\":2799:2806  uint256 */\n      0x00\n        /* \"lastQv.sol\":2826:2839  ProposalCount */\n      sload(0x06)\n        /* \"lastQv.sol\":2819:2839  return ProposalCount */\n      swap1\n      pop\n        /* \"lastQv.sol\":2750:2847  function getProposalCount() public view returns (uint256) {\r... */\n      swap1\n      jump\t// out\n        /* \"lastQv.sol\":1281:1326  mapping(uint256 => Proposal) public Proposals */\n    tag_143:\n      mstore(0x20, 0x07)\n      dup1\n      0x00\n      mstore\n      keccak256(0x00, 0x40)\n      0x00\n      swap2\n      pop\n      swap1\n      pop\n      dup1\n      0x00\n      add\n      0x00\n      swap1\n      sload\n      swap1\n      0x0100\n      exp\n      swap1\n      div\n      0xffffffffffffffffffffffffffffffffffffffff\n      and\n      swap1\n      dup1\n      0x00\n      add\n      0x14\n      swap1\n      sload\n      swap1\n      0x0100\n      exp\n      swap1\n      div\n      0xff\n      and\n      swap1\n      dup1\n      0x01\n      add\n      dup1\n      sload\n      tag_371\n      swap1\n      tag_157\n      jump\t// in\n    tag_371:\n      dup1\n      0x1f\n      add\n      0x20\n      dup1\n      swap2\n      div\n      mul\n      0x20\n      add\n      mload(0x40)\n      swap1\n      dup2\n      add\n      0x40\n      mstore\n      dup1\n      swap3\n      swap2\n      swap1\n      dup2\n      dup2\n      mstore\n      0x20\n      add\n      dup3\n      dup1\n      sload\n      tag_372\n      swap1\n      tag_157\n      jump\t// in\n    tag_372:\n      dup1\n      iszero\n      tag_373\n      jumpi\n      dup1\n      0x1f\n      lt\n      tag_374\n      jumpi\n      0x0100\n      dup1\n      dup4\n      sload\n      div\n      mul\n      dup4\n      mstore\n      swap2\n      0x20\n      add\n      swap2\n      jump(tag_373)\n    tag_374:\n      dup3\n      add\n      swap2\n      swap1\n      0x00\n      mstore\n      keccak256(0x00, 0x20)\n      swap1\n    tag_375:\n      dup2\n      sload\n      dup2\n      mstore\n      swap1\n      0x01\n      add\n      swap1\n      0x20\n      add\n      dup1\n      dup4\n      gt\n      tag_375\n      jumpi\n      dup3\n      swap1\n      sub\n      0x1f\n      and\n      dup3\n      add\n      swap2\n    tag_373:\n      pop\n      pop\n      pop\n      pop\n      pop\n      swap1\n      dup1\n      0x03\n      add\n      sload\n      swap1\n      dup1\n      0x04\n      add\n      sload\n      swap1\n      pop\n      dup6\n      jump\t// out\n        /* \"@openzeppelin/contracts/access/AccessControl.sol\":5241:5388  function revokeRole(bytes32 role, address account) public virtual override onlyRole(getRoleAdmin(role)) {... */\n    tag_148:\n        /* \"@openzeppelin/contracts/access/AccessControl.sol\":5325:5343  getRoleAdmin(role) */\n      tag_376\n        /* \"@openzeppelin/contracts/access/AccessControl.sol\":5338:5342  role */\n      dup3\n        /* \"@openzeppelin/contracts/access/AccessControl.sol\":5325:5337  getRoleAdmin */\n      tag_63\n        /* \"@openzeppelin/contracts/access/AccessControl.sol\":5325:5343  getRoleAdmin(role) */\n      jump\t// in\n    tag_376:\n        /* \"@openzeppelin/contracts/access/AccessControl.sol\":2505:2521  _checkRole(role) */\n      tag_378\n        /* \"@openzeppelin/contracts/access/AccessControl.sol\":2516:2520  role */\n      dup2\n        /* \"@openzeppelin/contracts/access/AccessControl.sol\":2505:2515  _checkRole */\n      tag_202\n        /* \"@openzeppelin/contracts/access/AccessControl.sol\":2505:2521  _checkRole(role) */\n      jump\t// in\n    tag_378:\n        /* \"@openzeppelin/contracts/access/AccessControl.sol\":5355:5381  _revokeRole(role, account) */\n      tag_380\n        /* \"@openzeppelin/contracts/access/AccessControl.sol\":5367:5371  role */\n      dup4\n        /* \"@openzeppelin/contracts/access/AccessControl.sol\":5373:5380  account */\n      dup4\n        /* \"@openzeppelin/contracts/access/AccessControl.sol\":5355:5366  _revokeRole */\n      tag_261\n        /* \"@openzeppelin/contracts/access/AccessControl.sol\":5355:5381  _revokeRole(role, account) */\n      jump\t// in\n    tag_380:\n        /* \"@openzeppelin/contracts/access/AccessControl.sol\":5241:5388  function revokeRole(bytes32 role, address account) public virtual override onlyRole(getRoleAdmin(role)) {... */\n      pop\n      pop\n      pop\n      jump\t// out\n        /* \"@openzeppelin/contracts/access/Ownable.sol\":2081:2279  function transferOwnership(address newOwner) public virtual onlyOwner {... */\n    tag_151:\n        /* \"@openzeppelin/contracts/access/Ownable.sol\":1094:1107  _checkOwner() */\n      tag_382\n        /* \"@openzeppelin/contracts/access/Ownable.sol\":1094:1105  _checkOwner */\n      tag_183\n        /* \"@openzeppelin/contracts/access/Ownable.sol\":1094:1107  _checkOwner() */\n      jump\t// in\n    tag_382:\n        /* \"@openzeppelin/contracts/access/Ownable.sol\":2189:2190  0 */\n      0x00\n        /* \"@openzeppelin/contracts/access/Ownable.sol\":2169:2191  newOwner != address(0) */\n      0xffffffffffffffffffffffffffffffffffffffff\n      and\n        /* \"@openzeppelin/contracts/access/Ownable.sol\":2169:2177  newOwner */\n      dup2\n        /* \"@openzeppelin/contracts/access/Ownable.sol\":2169:2191  newOwner != address(0) */\n      0xffffffffffffffffffffffffffffffffffffffff\n      and\n      eq\n      iszero\n        /* \"@openzeppelin/contracts/access/Ownable.sol\":2161:2234  require(newOwner != address(0), \"Ownable: new owner is the zero address\") */\n      tag_384\n      jumpi\n      mload(0x40)\n      0x08c379a000000000000000000000000000000000000000000000000000000000\n      dup2\n      mstore\n      0x04\n      add\n      tag_385\n      swap1\n      tag_386\n      jump\t// in\n    tag_385:\n      mload(0x40)\n      dup1\n      swap2\n      sub\n      swap1\n      revert\n    tag_384:\n        /* \"@openzeppelin/contracts/access/Ownable.sol\":2244:2272  _transferOwnership(newOwner) */\n      tag_387\n        /* \"@openzeppelin/contracts/access/Ownable.sol\":2263:2271  newOwner */\n      dup2\n        /* \"@openzeppelin/contracts/access/Ownable.sol\":2244:2262  _transferOwnership */\n      tag_337\n        /* \"@openzeppelin/contracts/access/Ownable.sol\":2244:2272  _transferOwnership(newOwner) */\n      jump\t// in\n    tag_387:\n        /* \"@openzeppelin/contracts/access/Ownable.sol\":2081:2279  function transferOwnership(address newOwner) public virtual onlyOwner {... */\n      pop\n      jump\t// out\n        /* \"@openzeppelin/contracts/utils/introspection/ERC165.sol\":829:984  function supportsInterface(bytes4 interfaceId) public view virtual override returns (bool) {... */\n    tag_155:\n        /* \"@openzeppelin/contracts/utils/introspection/ERC165.sol\":914:918  bool */\n      0x00\n        /* \"@openzeppelin/contracts/utils/introspection/ERC165.sol\":952:977  type(IERC165).interfaceId */\n      0x01ffc9a700000000000000000000000000000000000000000000000000000000\n        /* \"@openzeppelin/contracts/utils/introspection/ERC165.sol\":937:977  interfaceId == type(IERC165).interfaceId */\n      not(0xffffffffffffffffffffffffffffffffffffffffffffffffffffffff)\n      and\n        /* \"@openzeppelin/contracts/utils/introspection/ERC165.sol\":937:948  interfaceId */\n      dup3\n        /* \"@openzeppelin/contracts/utils/introspection/ERC165.sol\":937:977  interfaceId == type(IERC165).interfaceId */\n      not(0xffffffffffffffffffffffffffffffffffffffffffffffffffffffff)\n      and\n      eq\n        /* \"@openzeppelin/contracts/utils/introspection/ERC165.sol\":930:977  return interfaceId == type(IERC165).interfaceId */\n      swap1\n      pop\n        /* \"@openzeppelin/contracts/utils/introspection/ERC165.sol\":829:984  function supportsInterface(bytes4 interfaceId) public view virtual override returns (bool) {... */\n      swap2\n      swap1\n      pop\n      jump\t// out\n        /* \"@openzeppelin/contracts/access/Ownable.sol\":1359:1489  function _checkOwner() internal view virtual {... */\n    tag_183:\n        /* \"@openzeppelin/contracts/access/Ownable.sol\":1433:1445  _msgSender() */\n      tag_390\n        /* \"@openzeppelin/contracts/access/Ownable.sol\":1433:1443  _msgSender */\n      tag_256\n        /* \"@openzeppelin/contracts/access/Ownable.sol\":1433:1445  _msgSender() */\n      jump\t// in\n    tag_390:\n        /* \"@openzeppelin/contracts/access/Ownable.sol\":1422:1445  owner() == _msgSender() */\n      0xffffffffffffffffffffffffffffffffffffffff\n      and\n        /* \"@openzeppelin/contracts/access/Ownable.sol\":1422:1429  owner() */\n      tag_391\n        /* \"@openzeppelin/contracts/access/Ownable.sol\":1422:1427  owner */\n      tag_114\n        /* \"@openzeppelin/contracts/access/Ownable.sol\":1422:1429  owner() */\n      jump\t// in\n    tag_391:\n        /* \"@openzeppelin/contracts/access/Ownable.sol\":1422:1445  owner() == _msgSender() */\n      0xffffffffffffffffffffffffffffffffffffffff\n      and\n      eq\n        /* \"@openzeppelin/contracts/access/Ownable.sol\":1414:1482  require(owner() == _msgSender(), \"Ownable: caller is not the owner\") */\n      tag_392\n      jumpi\n      mload(0x40)\n      0x08c379a000000000000000000000000000000000000000000000000000000000\n      dup2\n      mstore\n      0x04\n      add\n      tag_393\n      swap1\n      tag_394\n      jump\t// in\n    tag_393:\n      mload(0x40)\n      dup1\n      swap2\n      sub\n      swap1\n      revert\n    tag_392:\n        /* \"@openzeppelin/contracts/access/Ownable.sol\":1359:1489  function _checkOwner() internal view virtual {... */\n      jump\t// out\n        /* \"@openzeppelin/contracts/access/AccessControl.sol\":3334:3437  function _checkRole(bytes32 role) internal view virtual {... */\n    tag_202:\n        /* \"@openzeppelin/contracts/access/AccessControl.sol\":3400:3430  _checkRole(role, _msgSender()) */\n      tag_396\n        /* \"@openzeppelin/contracts/access/AccessControl.sol\":3411:3415  role */\n      dup2\n        /* \"@openzeppelin/contracts/access/AccessControl.sol\":3417:3429  _msgSender() */\n      tag_397\n        /* \"@openzeppelin/contracts/access/AccessControl.sol\":3417:3427  _msgSender */\n      tag_256\n        /* \"@openzeppelin/contracts/access/AccessControl.sol\":3417:3429  _msgSender() */\n      jump\t// in\n    tag_397:\n        /* \"@openzeppelin/contracts/access/AccessControl.sol\":3400:3410  _checkRole */\n      tag_398\n        /* \"@openzeppelin/contracts/access/AccessControl.sol\":3400:3430  _checkRole(role, _msgSender()) */\n      jump\t// in\n    tag_396:\n        /* \"@openzeppelin/contracts/access/AccessControl.sol\":3334:3437  function _checkRole(bytes32 role) internal view virtual {... */\n      pop\n      jump\t// out\n        /* \"@openzeppelin/contracts/access/AccessControl.sol\":7474:7707  function _grantRole(bytes32 role, address account) internal virtual {... */\n    tag_205:\n        /* \"@openzeppelin/contracts/access/AccessControl.sol\":7557:7579  hasRole(role, account) */\n      tag_400\n        /* \"@openzeppelin/contracts/access/AccessControl.sol\":7565:7569  role */\n      dup3\n        /* \"@openzeppelin/contracts/access/AccessControl.sol\":7571:7578  account */\n      dup3\n        /* \"@openzeppelin/contracts/access/AccessControl.sol\":7557:7564  hasRole */\n      tag_119\n        /* \"@openzeppelin/contracts/access/AccessControl.sol\":7557:7579  hasRole(role, account) */\n      jump\t// in\n    tag_400:\n        /* \"@openzeppelin/contracts/access/AccessControl.sol\":7552:7701  if (!hasRole(role, account)) {... */\n      tag_401\n      jumpi\n        /* \"@openzeppelin/contracts/access/AccessControl.sol\":7627:7631  true */\n      0x01\n        /* \"@openzeppelin/contracts/access/AccessControl.sol\":7595:7601  _roles */\n      dup1\n        /* \"@openzeppelin/contracts/access/AccessControl.sol\":7595:7607  _roles[role] */\n      0x00\n        /* \"@openzeppelin/contracts/access/AccessControl.sol\":7602:7606  role */\n      dup5\n        /* \"@openzeppelin/contracts/access/AccessControl.sol\":7595:7607  _roles[role] */\n      dup2\n      mstore\n      0x20\n      add\n      swap1\n      dup2\n      mstore\n      0x20\n      add\n      0x00\n      keccak256\n        /* \"@openzeppelin/contracts/access/AccessControl.sol\":7595:7615  _roles[role].members */\n      0x00\n      add\n        /* \"@openzeppelin/contracts/access/AccessControl.sol\":7595:7624  _roles[role].members[account] */\n      0x00\n        /* \"@openzeppelin/contracts/access/AccessControl.sol\":7616:7623  account */\n      dup4\n        /* \"@openzeppelin/contracts/access/AccessControl.sol\":7595:7624  _roles[role].members[account] */\n      0xffffffffffffffffffffffffffffffffffffffff\n      and\n      0xffffffffffffffffffffffffffffffffffffffff\n      and\n      dup2\n      mstore\n      0x20\n      add\n      swap1\n      dup2\n      mstore\n      0x20\n      add\n      0x00\n      keccak256\n      0x00\n        /* \"@openzeppelin/contracts/access/AccessControl.sol\":7595:7631  _roles[role].members[account] = true */\n      0x0100\n      exp\n      dup2\n      sload\n      dup2\n      0xff\n      mul\n      not\n      and\n      swap1\n      dup4\n      iszero\n      iszero\n      mul\n      or\n      swap1\n      sstore\n      pop\n        /* \"@openzeppelin/contracts/access/AccessControl.sol\":7677:7689  _msgSender() */\n      tag_402\n        /* \"@openzeppelin/contracts/access/AccessControl.sol\":7677:7687  _msgSender */\n      tag_256\n        /* \"@openzeppelin/contracts/access/AccessControl.sol\":7677:7689  _msgSender() */\n      jump\t// in\n    tag_402:\n        /* \"@openzeppelin/contracts/access/AccessControl.sol\":7650:7690  RoleGranted(role, account, _msgSender()) */\n      0xffffffffffffffffffffffffffffffffffffffff\n      and\n        /* \"@openzeppelin/contracts/access/AccessControl.sol\":7668:7675  account */\n      dup2\n        /* \"@openzeppelin/contracts/access/AccessControl.sol\":7650:7690  RoleGranted(role, account, _msgSender()) */\n      0xffffffffffffffffffffffffffffffffffffffff\n      and\n        /* \"@openzeppelin/contracts/access/AccessControl.sol\":7662:7666  role */\n      dup4\n        /* \"@openzeppelin/contracts/access/AccessControl.sol\":7650:7690  RoleGranted(role, account, _msgSender()) */\n      0x2f8788117e7eff1d82e926ec794901d17c78024a50270940304540a733656f0d\n      mload(0x40)\n      mload(0x40)\n      dup1\n      swap2\n      sub\n      swap1\n      log4\n        /* \"@openzeppelin/contracts/access/AccessControl.sol\":7552:7701  if (!hasRole(role, account)) {... */\n    tag_401:\n        /* \"@openzeppelin/contracts/access/AccessControl.sol\":7474:7707  function _grantRole(bytes32 role, address account) internal virtual {... */\n      pop\n      pop\n      jump\t// out\n        /* \"@openzeppelin/contracts/utils/math/SafeMath.sol\":3122:3218  function sub(uint256 a, uint256 b) internal pure returns (uint256) {... */\n    tag_248:\n        /* \"@openzeppelin/contracts/utils/math/SafeMath.sol\":3180:3187  uint256 */\n      0x00\n        /* \"@openzeppelin/contracts/utils/math/SafeMath.sol\":3210:3211  b */\n      dup2\n        /* \"@openzeppelin/contracts/utils/math/SafeMath.sol\":3206:3207  a */\n      dup4\n        /* \"@openzeppelin/contracts/utils/math/SafeMath.sol\":3206:3211  a - b */\n      tag_404\n      swap2\n      swap1\n      tag_231\n      jump\t// in\n    tag_404:\n        /* \"@openzeppelin/contracts/utils/math/SafeMath.sol\":3199:3211  return a - b */\n      swap1\n      pop\n        /* \"@openzeppelin/contracts/utils/math/SafeMath.sol\":3122:3218  function sub(uint256 a, uint256 b) internal pure returns (uint256) {... */\n      swap3\n      swap2\n      pop\n      pop\n      jump\t// out\n        /* \"@openzeppelin/contracts/utils/Context.sol\":640:736  function _msgSender() internal view virtual returns (address) {... */\n    tag_256:\n        /* \"@openzeppelin/contracts/utils/Context.sol\":693:700  address */\n      0x00\n        /* \"@openzeppelin/contracts/utils/Context.sol\":719:729  msg.sender */\n      caller\n        /* \"@openzeppelin/contracts/utils/Context.sol\":712:729  return msg.sender */\n      swap1\n      pop\n        /* \"@openzeppelin/contracts/utils/Context.sol\":640:736  function _msgSender() internal view virtual returns (address) {... */\n      swap1\n      jump\t// out\n        /* \"@openzeppelin/contracts/access/AccessControl.sol\":7878:8112  function _revokeRole(bytes32 role, address account) internal virtual {... */\n    tag_261:\n        /* \"@openzeppelin/contracts/access/AccessControl.sol\":7961:7983  hasRole(role, account) */\n      tag_407\n        /* \"@openzeppelin/contracts/access/AccessControl.sol\":7969:7973  role */\n      dup3\n        /* \"@openzeppelin/contracts/access/AccessControl.sol\":7975:7982  account */\n      dup3\n        /* \"@openzeppelin/contracts/access/AccessControl.sol\":7961:7968  hasRole */\n      tag_119\n        /* \"@openzeppelin/contracts/access/AccessControl.sol\":7961:7983  hasRole(role, account) */\n      jump\t// in\n    tag_407:\n        /* \"@openzeppelin/contracts/access/AccessControl.sol\":7957:8106  if (hasRole(role, account)) {... */\n      iszero\n      tag_408\n      jumpi\n        /* \"@openzeppelin/contracts/access/AccessControl.sol\":8031:8036  false */\n      0x00\n        /* \"@openzeppelin/contracts/access/AccessControl.sol\":7999:8005  _roles */\n      0x01\n        /* \"@openzeppelin/contracts/access/AccessControl.sol\":7999:8011  _roles[role] */\n      0x00\n        /* \"@openzeppelin/contracts/access/AccessControl.sol\":8006:8010  role */\n      dup5\n        /* \"@openzeppelin/contracts/access/AccessControl.sol\":7999:8011  _roles[role] */\n      dup2\n      mstore\n      0x20\n      add\n      swap1\n      dup2\n      mstore\n      0x20\n      add\n      0x00\n      keccak256\n        /* \"@openzeppelin/contracts/access/AccessControl.sol\":7999:8019  _roles[role].members */\n      0x00\n      add\n        /* \"@openzeppelin/contracts/access/AccessControl.sol\":7999:8028  _roles[role].members[account] */\n      0x00\n        /* \"@openzeppelin/contracts/access/AccessControl.sol\":8020:8027  account */\n      dup4\n        /* \"@openzeppelin/contracts/access/AccessControl.sol\":7999:8028  _roles[role].members[account] */\n      0xffffffffffffffffffffffffffffffffffffffff\n      and\n      0xffffffffffffffffffffffffffffffffffffffff\n      and\n      dup2\n      mstore\n      0x20\n      add\n      swap1\n      dup2\n      mstore\n      0x20\n      add\n      0x00\n      keccak256\n      0x00\n        /* \"@openzeppelin/contracts/access/AccessControl.sol\":7999:8036  _roles[role].members[account] = false */\n      0x0100\n      exp\n      dup2\n      sload\n      dup2\n      0xff\n      mul\n      not\n      and\n      swap1\n      dup4\n      iszero\n      iszero\n      mul\n      or\n      swap1\n      sstore\n      pop\n        /* \"@openzeppelin/contracts/access/AccessControl.sol\":8082:8094  _msgSender() */\n      tag_409\n        /* \"@openzeppelin/contracts/access/AccessControl.sol\":8082:8092  _msgSender */\n      tag_256\n        /* \"@openzeppelin/contracts/access/AccessControl.sol\":8082:8094  _msgSender() */\n      jump\t// in\n    tag_409:\n        /* \"@openzeppelin/contracts/access/AccessControl.sol\":8055:8095  RoleRevoked(role, account, _msgSender()) */\n      0xffffffffffffffffffffffffffffffffffffffff\n      and\n        /* \"@openzeppelin/contracts/access/AccessControl.sol\":8073:8080  account */\n      dup2\n        /* \"@openzeppelin/contracts/access/AccessControl.sol\":8055:8095  RoleRevoked(role, account, _msgSender()) */\n      0xffffffffffffffffffffffffffffffffffffffff\n      and\n        /* \"@openzeppelin/contracts/access/AccessControl.sol\":8067:8071  role */\n      dup4\n        /* \"@openzeppelin/contracts/access/AccessControl.sol\":8055:8095  RoleRevoked(role, account, _msgSender()) */\n      0xf6391f5c32d9c69d2a47ea670b442974b53935d1edc7fd64eb21e047a839171b\n      mload(0x40)\n      mload(0x40)\n      dup1\n      swap2\n      sub\n      swap1\n      log4\n        /* \"@openzeppelin/contracts/access/AccessControl.sol\":7957:8106  if (hasRole(role, account)) {... */\n    tag_408:\n        /* \"@openzeppelin/contracts/access/AccessControl.sol\":7878:8112  function _revokeRole(bytes32 role, address account) internal virtual {... */\n      pop\n      pop\n      jump\t// out\n        /* \"@openzeppelin/contracts/utils/math/SafeMath.sol\":2755:2851  function add(uint256 a, uint256 b) internal pure returns (uint256) {... */\n    tag_301:\n        /* \"@openzeppelin/contracts/utils/math/SafeMath.sol\":2813:2820  uint256 */\n      0x00\n        /* \"@openzeppelin/contracts/utils/math/SafeMath.sol\":2843:2844  b */\n      dup2\n        /* \"@openzeppelin/contracts/utils/math/SafeMath.sol\":2839:2840  a */\n      dup4\n        /* \"@openzeppelin/contracts/utils/math/SafeMath.sol\":2839:2844  a + b */\n      tag_411\n      swap2\n      swap1\n      tag_236\n      jump\t// in\n    tag_411:\n        /* \"@openzeppelin/contracts/utils/math/SafeMath.sol\":2832:2844  return a + b */\n      swap1\n      pop\n        /* \"@openzeppelin/contracts/utils/math/SafeMath.sol\":2755:2851  function add(uint256 a, uint256 b) internal pure returns (uint256) {... */\n      swap3\n      swap2\n      pop\n      pop\n      jump\t// out\n        /* \"@openzeppelin/contracts/access/Ownable.sol\":2433:2620  function _transferOwnership(address newOwner) internal virtual {... */\n    tag_337:\n        /* \"@openzeppelin/contracts/access/Ownable.sol\":2506:2522  address oldOwner */\n      0x00\n        /* \"@openzeppelin/contracts/access/Ownable.sol\":2525:2531  _owner */\n      dup1\n      0x00\n      swap1\n      sload\n      swap1\n      0x0100\n      exp\n      swap1\n      div\n      0xffffffffffffffffffffffffffffffffffffffff\n      and\n        /* \"@openzeppelin/contracts/access/Ownable.sol\":2506:2531  address oldOwner = _owner */\n      swap1\n      pop\n        /* \"@openzeppelin/contracts/access/Ownable.sol\":2550:2558  newOwner */\n      dup2\n        /* \"@openzeppelin/contracts/access/Ownable.sol\":2541:2547  _owner */\n      0x00\n      dup1\n        /* \"@openzeppelin/contracts/access/Ownable.sol\":2541:2558  _owner = newOwner */\n      0x0100\n      exp\n      dup2\n      sload\n      dup2\n      0xffffffffffffffffffffffffffffffffffffffff\n      mul\n      not\n      and\n      swap1\n      dup4\n      0xffffffffffffffffffffffffffffffffffffffff\n      and\n      mul\n      or\n      swap1\n      sstore\n      pop\n        /* \"@openzeppelin/contracts/access/Ownable.sol\":2604:2612  newOwner */\n      dup2\n        /* \"@openzeppelin/contracts/access/Ownable.sol\":2573:2613  OwnershipTransferred(oldOwner, newOwner) */\n      0xffffffffffffffffffffffffffffffffffffffff\n      and\n        /* \"@openzeppelin/contracts/access/Ownable.sol\":2594:2602  oldOwner */\n      dup2\n        /* \"@openzeppelin/contracts/access/Ownable.sol\":2573:2613  OwnershipTransferred(oldOwner, newOwner) */\n      0xffffffffffffffffffffffffffffffffffffffff\n      and\n      0x8be0079c531659141344cd1fd0a4f28419497f9722a3daafe3b4186f6b6457e0\n      mload(0x40)\n      mload(0x40)\n      dup1\n      swap2\n      sub\n      swap1\n      log3\n        /* \"@openzeppelin/contracts/access/Ownable.sol\":2496:2620  {... */\n      pop\n        /* \"@openzeppelin/contracts/access/Ownable.sol\":2433:2620  function _transferOwnership(address newOwner) internal virtual {... */\n      pop\n      jump\t// out\n        /* \"@openzeppelin/contracts/access/AccessControl.sol\":3718:4210  function _checkRole(bytes32 role, address account) internal view virtual {... */\n    tag_398:\n        /* \"@openzeppelin/contracts/access/AccessControl.sol\":3806:3828  hasRole(role, account) */\n      tag_414\n        /* \"@openzeppelin/contracts/access/AccessControl.sol\":3814:3818  role */\n      dup3\n        /* \"@openzeppelin/contracts/access/AccessControl.sol\":3820:3827  account */\n      dup3\n        /* \"@openzeppelin/contracts/access/AccessControl.sol\":3806:3813  hasRole */\n      tag_119\n        /* \"@openzeppelin/contracts/access/AccessControl.sol\":3806:3828  hasRole(role, account) */\n      jump\t// in\n    tag_414:\n        /* \"@openzeppelin/contracts/access/AccessControl.sol\":3801:4204  if (!hasRole(role, account)) {... */\n      tag_415\n      jumpi\n        /* \"@openzeppelin/contracts/access/AccessControl.sol\":3989:4030  Strings.toHexString(uint160(account), 20) */\n      tag_416\n        /* \"@openzeppelin/contracts/access/AccessControl.sol\":4017:4024  account */\n      dup2\n        /* \"@openzeppelin/contracts/access/AccessControl.sol\":3989:4030  Strings.toHexString(uint160(account), 20) */\n      0xffffffffffffffffffffffffffffffffffffffff\n      and\n        /* \"@openzeppelin/contracts/access/AccessControl.sol\":4027:4029  20 */\n      0x14\n        /* \"@openzeppelin/contracts/access/AccessControl.sol\":3989:4008  Strings.toHexString */\n      tag_417\n        /* \"@openzeppelin/contracts/access/AccessControl.sol\":3989:4030  Strings.toHexString(uint160(account), 20) */\n      jump\t// in\n    tag_416:\n        /* \"@openzeppelin/contracts/access/AccessControl.sol\":4101:4139  Strings.toHexString(uint256(role), 32) */\n      tag_418\n        /* \"@openzeppelin/contracts/access/AccessControl.sol\":4129:4133  role */\n      dup4\n        /* \"@openzeppelin/contracts/access/AccessControl.sol\":4121:4134  uint256(role) */\n      0x00\n      shr\n        /* \"@openzeppelin/contracts/access/AccessControl.sol\":4136:4138  32 */\n      0x20\n        /* \"@openzeppelin/contracts/access/AccessControl.sol\":4101:4120  Strings.toHexString */\n      tag_417\n        /* \"@openzeppelin/contracts/access/AccessControl.sol\":4101:4139  Strings.toHexString(uint256(role), 32) */\n      jump\t// in\n    tag_418:\n        /* \"@openzeppelin/contracts/access/AccessControl.sol\":3896:4161  abi.encodePacked(... */\n      add(0x20, mload(0x40))\n      tag_419\n      swap3\n      swap2\n      swap1\n      tag_420\n      jump\t// in\n    tag_419:\n      mload(0x40)\n      0x20\n      dup2\n      dup4\n      sub\n      sub\n      dup2\n      mstore\n      swap1\n      0x40\n      mstore\n        /* \"@openzeppelin/contracts/access/AccessControl.sol\":3844:4193  revert(... */\n      mload(0x40)\n      0x08c379a000000000000000000000000000000000000000000000000000000000\n      dup2\n      mstore\n      0x04\n      add\n      tag_421\n      swap2\n      swap1\n      tag_47\n      jump\t// in\n    tag_421:\n      mload(0x40)\n      dup1\n      swap2\n      sub\n      swap1\n      revert\n        /* \"@openzeppelin/contracts/access/AccessControl.sol\":3801:4204  if (!hasRole(role, account)) {... */\n    tag_415:\n        /* \"@openzeppelin/contracts/access/AccessControl.sol\":3718:4210  function _checkRole(bytes32 role, address account) internal view virtual {... */\n      pop\n      pop\n      jump\t// out\n        /* \"@openzeppelin/contracts/utils/Strings.sol\":1652:2093  function toHexString(uint256 value, uint256 length) internal pure returns (string memory) {... */\n    tag_417:\n        /* \"@openzeppelin/contracts/utils/Strings.sol\":1727:1740  string memory */\n      0x60\n        /* \"@openzeppelin/contracts/utils/Strings.sol\":1752:1771  bytes memory buffer */\n      0x00\n        /* \"@openzeppelin/contracts/utils/Strings.sol\":1797:1798  2 */\n      0x02\n        /* \"@openzeppelin/contracts/utils/Strings.sol\":1788:1794  length */\n      dup4\n        /* \"@openzeppelin/contracts/utils/Strings.sol\":1784:1785  2 */\n      0x02\n        /* \"@openzeppelin/contracts/utils/Strings.sol\":1784:1794  2 * length */\n      tag_423\n      swap2\n      swap1\n      tag_244\n      jump\t// in\n    tag_423:\n        /* \"@openzeppelin/contracts/utils/Strings.sol\":1784:1798  2 * length + 2 */\n      tag_424\n      swap2\n      swap1\n      tag_236\n      jump\t// in\n    tag_424:\n        /* \"@openzeppelin/contracts/utils/Strings.sol\":1774:1799  new bytes(2 * length + 2) */\n      0xffffffffffffffff\n      dup2\n      gt\n      iszero\n      tag_425\n      jumpi\n      tag_426\n      tag_350\n      jump\t// in\n    tag_426:\n    tag_425:\n      mload(0x40)\n      swap1\n      dup1\n      dup3\n      mstore\n      dup1\n      0x1f\n      add\n      not(0x1f)\n      and\n      0x20\n      add\n      dup3\n      add\n      0x40\n      mstore\n      dup1\n      iszero\n      tag_427\n      jumpi\n      dup2\n      0x20\n      add\n      0x01\n      dup3\n      mul\n      dup1\n      calldatasize\n      dup4\n      calldatacopy\n      dup1\n      dup3\n      add\n      swap2\n      pop\n      pop\n      swap1\n      pop\n    tag_427:\n      pop\n        /* \"@openzeppelin/contracts/utils/Strings.sol\":1752:1799  bytes memory buffer = new bytes(2 * length + 2) */\n      swap1\n      pop\n        /* \"@openzeppelin/contracts/utils/Strings.sol\":1809:1824  buffer[0] = \"0\" */\n      0x3000000000000000000000000000000000000000000000000000000000000000\n        /* \"@openzeppelin/contracts/utils/Strings.sol\":1809:1815  buffer */\n      dup2\n        /* \"@openzeppelin/contracts/utils/Strings.sol\":1816:1817  0 */\n      0x00\n        /* \"@openzeppelin/contracts/utils/Strings.sol\":1809:1818  buffer[0] */\n      dup2\n      mload\n      dup2\n      lt\n      tag_428\n      jumpi\n      tag_429\n      tag_234\n      jump\t// in\n    tag_429:\n    tag_428:\n      0x20\n      add\n      add\n        /* \"@openzeppelin/contracts/utils/Strings.sol\":1809:1824  buffer[0] = \"0\" */\n      swap1\n      not(0xffffffffffffffffffffffffffffffffffffffffffffffffffffffffffffff)\n      and\n      swap1\n      dup2\n      0x00\n      byte\n      swap1\n      mstore8\n      pop\n        /* \"@openzeppelin/contracts/utils/Strings.sol\":1834:1849  buffer[1] = \"x\" */\n      0x7800000000000000000000000000000000000000000000000000000000000000\n        /* \"@openzeppelin/contracts/utils/Strings.sol\":1834:1840  buffer */\n      dup2\n        /* \"@openzeppelin/contracts/utils/Strings.sol\":1841:1842  1 */\n      0x01\n        /* \"@openzeppelin/contracts/utils/Strings.sol\":1834:1843  buffer[1] */\n      dup2\n      mload\n      dup2\n      lt\n      tag_430\n      jumpi\n      tag_431\n      tag_234\n      jump\t// in\n    tag_431:\n    tag_430:\n      0x20\n      add\n      add\n        /* \"@openzeppelin/contracts/utils/Strings.sol\":1834:1849  buffer[1] = \"x\" */\n      swap1\n      not(0xffffffffffffffffffffffffffffffffffffffffffffffffffffffffffffff)\n      and\n      swap1\n      dup2\n      0x00\n      byte\n      swap1\n      mstore8\n      pop\n        /* \"@openzeppelin/contracts/utils/Strings.sol\":1864:1873  uint256 i */\n      0x00\n        /* \"@openzeppelin/contracts/utils/Strings.sol\":1889:1890  1 */\n      0x01\n        /* \"@openzeppelin/contracts/utils/Strings.sol\":1880:1886  length */\n      dup5\n        /* \"@openzeppelin/contracts/utils/Strings.sol\":1876:1877  2 */\n      0x02\n        /* \"@openzeppelin/contracts/utils/Strings.sol\":1876:1886  2 * length */\n      tag_435\n      swap2\n      swap1\n      tag_244\n      jump\t// in\n    tag_435:\n        /* \"@openzeppelin/contracts/utils/Strings.sol\":1876:1890  2 * length + 1 */\n      tag_436\n      swap2\n      swap1\n      tag_236\n      jump\t// in\n    tag_436:\n        /* \"@openzeppelin/contracts/utils/Strings.sol\":1864:1890  uint256 i = 2 * length + 1 */\n      swap1\n      pop\n        /* \"@openzeppelin/contracts/utils/Strings.sol\":1859:1991  for (uint256 i = 2 * length + 1; i > 1; --i) {... */\n    tag_432:\n        /* \"@openzeppelin/contracts/utils/Strings.sol\":1896:1897  1 */\n      0x01\n        /* \"@openzeppelin/contracts/utils/Strings.sol\":1892:1893  i */\n      dup2\n        /* \"@openzeppelin/contracts/utils/Strings.sol\":1892:1897  i > 1 */\n      gt\n        /* \"@openzeppelin/contracts/utils/Strings.sol\":1859:1991  for (uint256 i = 2 * length + 1; i > 1; --i) {... */\n      iszero\n      tag_433\n      jumpi\n        /* \"@openzeppelin/contracts/utils/Strings.sol\":1930:1942  _HEX_SYMBOLS */\n      0x3031323334353637383961626364656600000000000000000000000000000000\n        /* \"@openzeppelin/contracts/utils/Strings.sol\":1951:1954  0xf */\n      0x0f\n        /* \"@openzeppelin/contracts/utils/Strings.sol\":1943:1948  value */\n      dup7\n        /* \"@openzeppelin/contracts/utils/Strings.sol\":1943:1954  value & 0xf */\n      and\n        /* \"@openzeppelin/contracts/utils/Strings.sol\":1930:1955  _HEX_SYMBOLS[value & 0xf] */\n      0x10\n      dup2\n      lt\n      tag_437\n      jumpi\n      tag_438\n      tag_234\n      jump\t// in\n    tag_438:\n    tag_437:\n      byte\n      0xf8\n      shl\n        /* \"@openzeppelin/contracts/utils/Strings.sol\":1918:1924  buffer */\n      dup3\n        /* \"@openzeppelin/contracts/utils/Strings.sol\":1925:1926  i */\n      dup3\n        /* \"@openzeppelin/contracts/utils/Strings.sol\":1918:1927  buffer[i] */\n      dup2\n      mload\n      dup2\n      lt\n      tag_439\n      jumpi\n      tag_440\n      tag_234\n      jump\t// in\n    tag_440:\n    tag_439:\n      0x20\n      add\n      add\n        /* \"@openzeppelin/contracts/utils/Strings.sol\":1918:1955  buffer[i] = _HEX_SYMBOLS[value & 0xf] */\n      swap1\n      not(0xffffffffffffffffffffffffffffffffffffffffffffffffffffffffffffff)\n      and\n      swap1\n      dup2\n      0x00\n      byte\n      swap1\n      mstore8\n      pop\n        /* \"@openzeppelin/contracts/utils/Strings.sol\":1979:1980  4 */\n      0x04\n        /* \"@openzeppelin/contracts/utils/Strings.sol\":1969:1980  value >>= 4 */\n      dup6\n      swap1\n      shr\n      swap5\n      pop\n        /* \"@openzeppelin/contracts/utils/Strings.sol\":1899:1902  --i */\n      dup1\n      tag_441\n      swap1\n      tag_442\n      jump\t// in\n    tag_441:\n      swap1\n      pop\n        /* \"@openzeppelin/contracts/utils/Strings.sol\":1859:1991  for (uint256 i = 2 * length + 1; i > 1; --i) {... */\n      jump(tag_432)\n    tag_433:\n      pop\n        /* \"@openzeppelin/contracts/utils/Strings.sol\":2017:2018  0 */\n      0x00\n        /* \"@openzeppelin/contracts/utils/Strings.sol\":2008:2013  value */\n      dup5\n        /* \"@openzeppelin/contracts/utils/Strings.sol\":2008:2018  value == 0 */\n      eq\n        /* \"@openzeppelin/contracts/utils/Strings.sol\":2000:2055  require(value == 0, \"Strings: hex length insufficient\") */\n      tag_443\n      jumpi\n      mload(0x40)\n      0x08c379a000000000000000000000000000000000000000000000000000000000\n      dup2\n      mstore\n      0x04\n      add\n      tag_444\n      swap1\n      tag_445\n      jump\t// in\n    tag_444:\n      mload(0x40)\n      dup1\n      swap2\n      sub\n      swap1\n      revert\n    tag_443:\n        /* \"@openzeppelin/contracts/utils/Strings.sol\":2079:2085  buffer */\n      dup1\n        /* \"@openzeppelin/contracts/utils/Strings.sol\":2065:2086  return string(buffer) */\n      swap2\n      pop\n      pop\n        /* \"@openzeppelin/contracts/utils/Strings.sol\":1652:2093  function toHexString(uint256 value, uint256 length) internal pure returns (string memory) {... */\n      swap3\n      swap2\n      pop\n      pop\n      jump\t// out\n    tag_250:\n      dup3\n      dup1\n      sload\n      dup3\n      dup3\n      sstore\n      swap1\n      0x00\n      mstore\n      keccak256(0x00, 0x20)\n      swap1\n      dup2\n      add\n      swap3\n      dup3\n      iszero\n      tag_446\n      jumpi\n      swap2\n      0x20\n      mul\n      dup3\n      add\n    tag_447:\n      dup3\n      dup2\n      gt\n      iszero\n      tag_448\n      jumpi\n      dup3\n      mload\n      dup3\n      sstore\n      swap2\n      0x20\n      add\n      swap2\n      swap1\n      0x01\n      add\n      swap1\n      jump(tag_447)\n    tag_448:\n    tag_446:\n      pop\n      swap1\n      pop\n      tag_449\n      swap2\n      swap1\n      tag_450\n      jump\t// in\n    tag_449:\n      pop\n      swap1\n      jump\t// out\n    tag_275:\n      dup3\n      dup1\n      sload\n      tag_451\n      swap1\n      tag_157\n      jump\t// in\n    tag_451:\n      swap1\n      0x00\n      mstore\n      keccak256(0x00, 0x20)\n      swap1\n      0x1f\n      add\n      0x20\n      swap1\n      div\n      dup2\n      add\n      swap3\n      dup3\n      tag_453\n      jumpi\n      0x00\n      dup6\n      sstore\n      jump(tag_452)\n    tag_453:\n      dup3\n      0x1f\n      lt\n      tag_454\n      jumpi\n      dup1\n      calldataload\n      not(0xff)\n      and\n      dup4\n      dup1\n      add\n      or\n      dup6\n      sstore\n      jump(tag_452)\n    tag_454:\n      dup3\n      dup1\n      add\n      0x01\n      add\n      dup6\n      sstore\n      dup3\n      iszero\n      tag_452\n      jumpi\n      swap2\n      dup3\n      add\n    tag_455:\n      dup3\n      dup2\n      gt\n      iszero\n      tag_456\n      jumpi\n      dup3\n      calldataload\n      dup3\n      sstore\n      swap2\n      0x20\n      add\n      swap2\n      swap1\n      0x01\n      add\n      swap1\n      jump(tag_455)\n    tag_456:\n    tag_452:\n      pop\n      swap1\n      pop\n      tag_457\n      swap2\n      swap1\n      tag_450\n      jump\t// in\n    tag_457:\n      pop\n      swap1\n      jump\t// out\n    tag_285:\n      dup3\n      dup1\n      sload\n      tag_458\n      swap1\n      tag_157\n      jump\t// in\n    tag_458:\n      swap1\n      0x00\n      mstore\n      keccak256(0x00, 0x20)\n      swap1\n      0x1f\n      add\n      0x20\n      swap1\n      div\n      dup2\n      add\n      swap3\n      dup3\n      tag_460\n      jumpi\n      0x00\n      dup6\n      sstore\n      jump(tag_459)\n    tag_460:\n      dup3\n      0x1f\n      lt\n      tag_461\n      jumpi\n      dup1\n      mload\n      not(0xff)\n      and\n      dup4\n      dup1\n      add\n      or\n      dup6\n      sstore\n      jump(tag_459)\n    tag_461:\n      dup3\n      dup1\n      add\n      0x01\n      add\n      dup6\n      sstore\n      dup3\n      iszero\n      tag_459\n      jumpi\n      swap2\n      dup3\n      add\n    tag_462:\n      dup3\n      dup2\n      gt\n      iszero\n      tag_463\n      jumpi\n      dup3\n      mload\n      dup3\n      sstore\n      swap2\n      0x20\n      add\n      swap2\n      swap1\n      0x01\n      add\n      swap1\n      jump(tag_462)\n    tag_463:\n    tag_459:\n      pop\n      swap1\n      pop\n      tag_464\n      swap2\n      swap1\n      tag_450\n      jump\t// in\n    tag_464:\n      pop\n      swap1\n      jump\t// out\n    tag_450:\n    tag_465:\n      dup1\n      dup3\n      gt\n      iszero\n      tag_466\n      jumpi\n      0x00\n      dup2\n      0x00\n      swap1\n      sstore\n      pop\n      0x01\n      add\n      jump(tag_465)\n    tag_466:\n      pop\n      swap1\n      jump\t// out\n        /* \"#utility.yul\":24:746   */\n    tag_468:\n        /* \"#utility.yul\":120:125   */\n      0x00\n        /* \"#utility.yul\":145:226   */\n      tag_470\n        /* \"#utility.yul\":161:225   */\n      tag_471\n        /* \"#utility.yul\":218:224   */\n      dup5\n        /* \"#utility.yul\":161:225   */\n      tag_472\n      jump\t// in\n    tag_471:\n        /* \"#utility.yul\":145:226   */\n      tag_473\n      jump\t// in\n    tag_470:\n        /* \"#utility.yul\":136:226   */\n      swap1\n      pop\n        /* \"#utility.yul\":246:251   */\n      dup1\n        /* \"#utility.yul\":275:281   */\n      dup4\n        /* \"#utility.yul\":268:273   */\n      dup3\n        /* \"#utility.yul\":261:282   */\n      mstore\n        /* \"#utility.yul\":309:313   */\n      0x20\n        /* \"#utility.yul\":302:307   */\n      dup3\n        /* \"#utility.yul\":298:314   */\n      add\n        /* \"#utility.yul\":291:314   */\n      swap1\n      pop\n        /* \"#utility.yul\":335:341   */\n      dup3\n        /* \"#utility.yul\":385:388   */\n      dup6\n        /* \"#utility.yul\":377:381   */\n      0x20\n        /* \"#utility.yul\":369:375   */\n      dup7\n        /* \"#utility.yul\":365:382   */\n      mul\n        /* \"#utility.yul\":360:363   */\n      dup3\n        /* \"#utility.yul\":356:383   */\n      add\n        /* \"#utility.yul\":353:389   */\n      gt\n        /* \"#utility.yul\":350:493   */\n      iszero\n      tag_474\n      jumpi\n        /* \"#utility.yul\":404:483   */\n      tag_475\n      tag_476\n      jump\t// in\n    tag_475:\n        /* \"#utility.yul\":350:493   */\n    tag_474:\n        /* \"#utility.yul\":517:518   */\n      0x00\n        /* \"#utility.yul\":502:740   */\n    tag_477:\n        /* \"#utility.yul\":527:533   */\n      dup6\n        /* \"#utility.yul\":524:525   */\n      dup2\n        /* \"#utility.yul\":521:534   */\n      lt\n        /* \"#utility.yul\":502:740   */\n      iszero\n      tag_479\n      jumpi\n        /* \"#utility.yul\":595:598   */\n      dup2\n        /* \"#utility.yul\":624:661   */\n      tag_480\n        /* \"#utility.yul\":657:660   */\n      dup9\n        /* \"#utility.yul\":645:655   */\n      dup3\n        /* \"#utility.yul\":624:661   */\n      tag_481\n      jump\t// in\n    tag_480:\n        /* \"#utility.yul\":619:622   */\n      dup5\n        /* \"#utility.yul\":612:662   */\n      mstore\n        /* \"#utility.yul\":691:695   */\n      0x20\n        /* \"#utility.yul\":686:689   */\n      dup5\n        /* \"#utility.yul\":682:696   */\n      add\n        /* \"#utility.yul\":675:696   */\n      swap4\n      pop\n        /* \"#utility.yul\":725:729   */\n      0x20\n        /* \"#utility.yul\":720:723   */\n      dup4\n        /* \"#utility.yul\":716:730   */\n      add\n        /* \"#utility.yul\":709:730   */\n      swap3\n      pop\n        /* \"#utility.yul\":562:740   */\n      pop\n        /* \"#utility.yul\":549:550   */\n      0x01\n        /* \"#utility.yul\":546:547   */\n      dup2\n        /* \"#utility.yul\":542:551   */\n      add\n        /* \"#utility.yul\":537:551   */\n      swap1\n      pop\n        /* \"#utility.yul\":502:740   */\n      jump(tag_477)\n    tag_479:\n        /* \"#utility.yul\":506:520   */\n      pop\n        /* \"#utility.yul\":126:746   */\n      pop\n      pop\n        /* \"#utility.yul\":24:746   */\n      swap4\n      swap3\n      pop\n      pop\n      pop\n      jump\t// out\n        /* \"#utility.yul\":752:891   */\n    tag_482:\n        /* \"#utility.yul\":798:803   */\n      0x00\n        /* \"#utility.yul\":836:842   */\n      dup2\n        /* \"#utility.yul\":823:843   */\n      calldataload\n        /* \"#utility.yul\":814:843   */\n      swap1\n      pop\n        /* \"#utility.yul\":852:885   */\n      tag_484\n        /* \"#utility.yul\":879:884   */\n      dup2\n        /* \"#utility.yul\":852:885   */\n      tag_485\n      jump\t// in\n    tag_484:\n        /* \"#utility.yul\":752:891   */\n      swap3\n      swap2\n      pop\n      pop\n      jump\t// out\n        /* \"#utility.yul\":913:1493   */\n    tag_486:\n        /* \"#utility.yul\":998:1006   */\n      0x00\n        /* \"#utility.yul\":1008:1014   */\n      dup1\n        /* \"#utility.yul\":1058:1061   */\n      dup4\n        /* \"#utility.yul\":1051:1055   */\n      0x1f\n        /* \"#utility.yul\":1043:1049   */\n      dup5\n        /* \"#utility.yul\":1039:1056   */\n      add\n        /* \"#utility.yul\":1035:1062   */\n      slt\n        /* \"#utility.yul\":1025:1147   */\n      tag_488\n      jumpi\n        /* \"#utility.yul\":1066:1145   */\n      tag_489\n      tag_490\n      jump\t// in\n    tag_489:\n        /* \"#utility.yul\":1025:1147   */\n    tag_488:\n        /* \"#utility.yul\":1179:1185   */\n      dup3\n        /* \"#utility.yul\":1166:1186   */\n      calldataload\n        /* \"#utility.yul\":1156:1186   */\n      swap1\n      pop\n        /* \"#utility.yul\":1209:1227   */\n      0xffffffffffffffff\n        /* \"#utility.yul\":1201:1207   */\n      dup2\n        /* \"#utility.yul\":1198:1228   */\n      gt\n        /* \"#utility.yul\":1195:1312   */\n      iszero\n      tag_491\n      jumpi\n        /* \"#utility.yul\":1231:1310   */\n      tag_492\n      tag_493\n      jump\t// in\n    tag_492:\n        /* \"#utility.yul\":1195:1312   */\n    tag_491:\n        /* \"#utility.yul\":1345:1349   */\n      0x20\n        /* \"#utility.yul\":1337:1343   */\n      dup4\n        /* \"#utility.yul\":1333:1350   */\n      add\n        /* \"#utility.yul\":1321:1350   */\n      swap2\n      pop\n        /* \"#utility.yul\":1399:1402   */\n      dup4\n        /* \"#utility.yul\":1391:1395   */\n      0x20\n        /* \"#utility.yul\":1383:1389   */\n      dup3\n        /* \"#utility.yul\":1379:1396   */\n      mul\n        /* \"#utility.yul\":1369:1377   */\n      dup4\n        /* \"#utility.yul\":1365:1397   */\n      add\n        /* \"#utility.yul\":1362:1403   */\n      gt\n        /* \"#utility.yul\":1359:1487   */\n      iszero\n      tag_494\n      jumpi\n        /* \"#utility.yul\":1406:1485   */\n      tag_495\n      tag_476\n      jump\t// in\n    tag_495:\n        /* \"#utility.yul\":1359:1487   */\n    tag_494:\n        /* \"#utility.yul\":913:1493   */\n      swap3\n      pop\n      swap3\n      swap1\n      pop\n      jump\t// out\n        /* \"#utility.yul\":1516:1886   */\n    tag_496:\n        /* \"#utility.yul\":1587:1592   */\n      0x00\n        /* \"#utility.yul\":1636:1639   */\n      dup3\n        /* \"#utility.yul\":1629:1633   */\n      0x1f\n        /* \"#utility.yul\":1621:1627   */\n      dup4\n        /* \"#utility.yul\":1617:1634   */\n      add\n        /* \"#utility.yul\":1613:1640   */\n      slt\n        /* \"#utility.yul\":1603:1725   */\n      tag_498\n      jumpi\n        /* \"#utility.yul\":1644:1723   */\n      tag_499\n      tag_490\n      jump\t// in\n    tag_499:\n        /* \"#utility.yul\":1603:1725   */\n    tag_498:\n        /* \"#utility.yul\":1761:1767   */\n      dup2\n        /* \"#utility.yul\":1748:1768   */\n      calldataload\n        /* \"#utility.yul\":1786:1880   */\n      tag_500\n        /* \"#utility.yul\":1876:1879   */\n      dup5\n        /* \"#utility.yul\":1868:1874   */\n      dup3\n        /* \"#utility.yul\":1861:1865   */\n      0x20\n        /* \"#utility.yul\":1853:1859   */\n      dup7\n        /* \"#utility.yul\":1849:1866   */\n      add\n        /* \"#utility.yul\":1786:1880   */\n      tag_468\n      jump\t// in\n    tag_500:\n        /* \"#utility.yul\":1777:1880   */\n      swap2\n      pop\n        /* \"#utility.yul\":1593:1886   */\n      pop\n        /* \"#utility.yul\":1516:1886   */\n      swap3\n      swap2\n      pop\n      pop\n      jump\t// out\n        /* \"#utility.yul\":1892:2031   */\n    tag_501:\n        /* \"#utility.yul\":1938:1943   */\n      0x00\n        /* \"#utility.yul\":1976:1982   */\n      dup2\n        /* \"#utility.yul\":1963:1983   */\n      calldataload\n        /* \"#utility.yul\":1954:1983   */\n      swap1\n      pop\n        /* \"#utility.yul\":1992:2025   */\n      tag_503\n        /* \"#utility.yul\":2019:2024   */\n      dup2\n        /* \"#utility.yul\":1992:2025   */\n      tag_504\n      jump\t// in\n    tag_503:\n        /* \"#utility.yul\":1892:2031   */\n      swap3\n      swap2\n      pop\n      pop\n      jump\t// out\n        /* \"#utility.yul\":2037:2174   */\n    tag_505:\n        /* \"#utility.yul\":2082:2087   */\n      0x00\n        /* \"#utility.yul\":2120:2126   */\n      dup2\n        /* \"#utility.yul\":2107:2127   */\n      calldataload\n        /* \"#utility.yul\":2098:2127   */\n      swap1\n      pop\n        /* \"#utility.yul\":2136:2168   */\n      tag_507\n        /* \"#utility.yul\":2162:2167   */\n      dup2\n        /* \"#utility.yul\":2136:2168   */\n      tag_508\n      jump\t// in\n    tag_507:\n        /* \"#utility.yul\":2037:2174   */\n      swap3\n      swap2\n      pop\n      pop\n      jump\t// out\n        /* \"#utility.yul\":2194:2747   */\n    tag_509:\n        /* \"#utility.yul\":2252:2260   */\n      0x00\n        /* \"#utility.yul\":2262:2268   */\n      dup1\n        /* \"#utility.yul\":2312:2315   */\n      dup4\n        /* \"#utility.yul\":2305:2309   */\n      0x1f\n        /* \"#utility.yul\":2297:2303   */\n      dup5\n        /* \"#utility.yul\":2293:2310   */\n      add\n        /* \"#utility.yul\":2289:2316   */\n      slt\n        /* \"#utility.yul\":2279:2401   */\n      tag_511\n      jumpi\n        /* \"#utility.yul\":2320:2399   */\n      tag_512\n      tag_490\n      jump\t// in\n    tag_512:\n        /* \"#utility.yul\":2279:2401   */\n    tag_511:\n        /* \"#utility.yul\":2433:2439   */\n      dup3\n        /* \"#utility.yul\":2420:2440   */\n      calldataload\n        /* \"#utility.yul\":2410:2440   */\n      swap1\n      pop\n        /* \"#utility.yul\":2463:2481   */\n      0xffffffffffffffff\n        /* \"#utility.yul\":2455:2461   */\n      dup2\n        /* \"#utility.yul\":2452:2482   */\n      gt\n        /* \"#utility.yul\":2449:2566   */\n      iszero\n      tag_513\n      jumpi\n        /* \"#utility.yul\":2485:2564   */\n      tag_514\n      tag_493\n      jump\t// in\n    tag_514:\n        /* \"#utility.yul\":2449:2566   */\n    tag_513:\n        /* \"#utility.yul\":2599:2603   */\n      0x20\n        /* \"#utility.yul\":2591:2597   */\n      dup4\n        /* \"#utility.yul\":2587:2604   */\n      add\n        /* \"#utility.yul\":2575:2604   */\n      swap2\n      pop\n        /* \"#utility.yul\":2653:2656   */\n      dup4\n        /* \"#utility.yul\":2645:2649   */\n      0x01\n        /* \"#utility.yul\":2637:2643   */\n      dup3\n        /* \"#utility.yul\":2633:2650   */\n      mul\n        /* \"#utility.yul\":2623:2631   */\n      dup4\n        /* \"#utility.yul\":2619:2651   */\n      add\n        /* \"#utility.yul\":2616:2657   */\n      gt\n        /* \"#utility.yul\":2613:2741   */\n      iszero\n      tag_515\n      jumpi\n        /* \"#utility.yul\":2660:2739   */\n      tag_516\n      tag_476\n      jump\t// in\n    tag_516:\n        /* \"#utility.yul\":2613:2741   */\n    tag_515:\n        /* \"#utility.yul\":2194:2747   */\n      swap3\n      pop\n      swap3\n      swap1\n      pop\n      jump\t// out\n        /* \"#utility.yul\":2753:2892   */\n    tag_481:\n        /* \"#utility.yul\":2799:2804   */\n      0x00\n        /* \"#utility.yul\":2837:2843   */\n      dup2\n        /* \"#utility.yul\":2824:2844   */\n      calldataload\n        /* \"#utility.yul\":2815:2844   */\n      swap1\n      pop\n        /* \"#utility.yul\":2853:2886   */\n      tag_518\n        /* \"#utility.yul\":2880:2885   */\n      dup2\n        /* \"#utility.yul\":2853:2886   */\n      tag_519\n      jump\t// in\n    tag_518:\n        /* \"#utility.yul\":2753:2892   */\n      swap3\n      swap2\n      pop\n      pop\n      jump\t// out\n        /* \"#utility.yul\":2898:3227   */\n    tag_108:\n        /* \"#utility.yul\":2957:2963   */\n      0x00\n        /* \"#utility.yul\":3006:3008   */\n      0x20\n        /* \"#utility.yul\":2994:3003   */\n      dup3\n        /* \"#utility.yul\":2985:2992   */\n      dup5\n        /* \"#utility.yul\":2981:3004   */\n      sub\n        /* \"#utility.yul\":2977:3009   */\n      slt\n        /* \"#utility.yul\":2974:3093   */\n      iszero\n      tag_521\n      jumpi\n        /* \"#utility.yul\":3012:3091   */\n      tag_522\n      tag_523\n      jump\t// in\n    tag_522:\n        /* \"#utility.yul\":2974:3093   */\n    tag_521:\n        /* \"#utility.yul\":3132:3133   */\n      0x00\n        /* \"#utility.yul\":3157:3210   */\n      tag_524\n        /* \"#utility.yul\":3202:3209   */\n      dup5\n        /* \"#utility.yul\":3193:3199   */\n      dup3\n        /* \"#utility.yul\":3182:3191   */\n      dup6\n        /* \"#utility.yul\":3178:3200   */\n      add\n        /* \"#utility.yul\":3157:3210   */\n      tag_482\n      jump\t// in\n    tag_524:\n        /* \"#utility.yul\":3147:3210   */\n      swap2\n      pop\n        /* \"#utility.yul\":3103:3220   */\n      pop\n        /* \"#utility.yul\":2898:3227   */\n      swap3\n      swap2\n      pop\n      pop\n      jump\t// out\n        /* \"#utility.yul\":3233:3707   */\n    tag_92:\n        /* \"#utility.yul\":3301:3307   */\n      0x00\n        /* \"#utility.yul\":3309:3315   */\n      dup1\n        /* \"#utility.yul\":3358:3360   */\n      0x40\n        /* \"#utility.yul\":3346:3355   */\n      dup4\n        /* \"#utility.yul\":3337:3344   */\n      dup6\n        /* \"#utility.yul\":3333:3356   */\n      sub\n        /* \"#utility.yul\":3329:3361   */\n      slt\n        /* \"#utility.yul\":3326:3445   */\n      iszero\n      tag_526\n      jumpi\n        /* \"#utility.yul\":3364:3443   */\n      tag_527\n      tag_523\n      jump\t// in\n    tag_527:\n        /* \"#utility.yul\":3326:3445   */\n    tag_526:\n        /* \"#utility.yul\":3484:3485   */\n      0x00\n        /* \"#utility.yul\":3509:3562   */\n      tag_528\n        /* \"#utility.yul\":3554:3561   */\n      dup6\n        /* \"#utility.yul\":3545:3551   */\n      dup3\n        /* \"#utility.yul\":3534:3543   */\n      dup7\n        /* \"#utility.yul\":3530:3552   */\n      add\n        /* \"#utility.yul\":3509:3562   */\n      tag_482\n      jump\t// in\n    tag_528:\n        /* \"#utility.yul\":3499:3562   */\n      swap3\n      pop\n        /* \"#utility.yul\":3455:3572   */\n      pop\n        /* \"#utility.yul\":3611:3613   */\n      0x20\n        /* \"#utility.yul\":3637:3690   */\n      tag_529\n        /* \"#utility.yul\":3682:3689   */\n      dup6\n        /* \"#utility.yul\":3673:3679   */\n      dup3\n        /* \"#utility.yul\":3662:3671   */\n      dup7\n        /* \"#utility.yul\":3658:3680   */\n      add\n        /* \"#utility.yul\":3637:3690   */\n      tag_481\n      jump\t// in\n    tag_529:\n        /* \"#utility.yul\":3627:3690   */\n      swap2\n      pop\n        /* \"#utility.yul\":3582:3700   */\n      pop\n        /* \"#utility.yul\":3233:3707   */\n      swap3\n      pop\n      swap3\n      swap1\n      pop\n      jump\t// out\n        /* \"#utility.yul\":3713:4042   */\n    tag_62:\n        /* \"#utility.yul\":3772:3778   */\n      0x00\n        /* \"#utility.yul\":3821:3823   */\n      0x20\n        /* \"#utility.yul\":3809:3818   */\n      dup3\n        /* \"#utility.yul\":3800:3807   */\n      dup5\n        /* \"#utility.yul\":3796:3819   */\n      sub\n        /* \"#utility.yul\":3792:3824   */\n      slt\n        /* \"#utility.yul\":3789:3908   */\n      iszero\n      tag_531\n      jumpi\n        /* \"#utility.yul\":3827:3906   */\n      tag_532\n      tag_523\n      jump\t// in\n    tag_532:\n        /* \"#utility.yul\":3789:3908   */\n    tag_531:\n        /* \"#utility.yul\":3947:3948   */\n      0x00\n        /* \"#utility.yul\":3972:4025   */\n      tag_533\n        /* \"#utility.yul\":4017:4024   */\n      dup5\n        /* \"#utility.yul\":4008:4014   */\n      dup3\n        /* \"#utility.yul\":3997:4006   */\n      dup6\n        /* \"#utility.yul\":3993:4015   */\n      add\n        /* \"#utility.yul\":3972:4025   */\n      tag_501\n      jump\t// in\n    tag_533:\n        /* \"#utility.yul\":3962:4025   */\n      swap2\n      pop\n        /* \"#utility.yul\":3918:4035   */\n      pop\n        /* \"#utility.yul\":3713:4042   */\n      swap3\n      swap2\n      pop\n      pop\n      jump\t// out\n        /* \"#utility.yul\":4048:4522   */\n    tag_71:\n        /* \"#utility.yul\":4116:4122   */\n      0x00\n        /* \"#utility.yul\":4124:4130   */\n      dup1\n        /* \"#utility.yul\":4173:4175   */\n      0x40\n        /* \"#utility.yul\":4161:4170   */\n      dup4\n        /* \"#utility.yul\":4152:4159   */\n      dup6\n        /* \"#utility.yul\":4148:4171   */\n      sub\n        /* \"#utility.yul\":4144:4176   */\n      slt\n        /* \"#utility.yul\":4141:4260   */\n      iszero\n      tag_535\n      jumpi\n        /* \"#utility.yul\":4179:4258   */\n      tag_536\n      tag_523\n      jump\t// in\n    tag_536:\n        /* \"#utility.yul\":4141:4260   */\n    tag_535:\n        /* \"#utility.yul\":4299:4300   */\n      0x00\n        /* \"#utility.yul\":4324:4377   */\n      tag_537\n        /* \"#utility.yul\":4369:4376   */\n      dup6\n        /* \"#utility.yul\":4360:4366   */\n      dup3\n        /* \"#utility.yul\":4349:4358   */\n      dup7\n        /* \"#utility.yul\":4345:4367   */\n      add\n        /* \"#utility.yul\":4324:4377   */\n      tag_501\n      jump\t// in\n    tag_537:\n        /* \"#utility.yul\":4314:4377   */\n      swap3\n      pop\n        /* \"#utility.yul\":4270:4387   */\n      pop\n        /* \"#utility.yul\":4426:4428   */\n      0x20\n        /* \"#utility.yul\":4452:4505   */\n      tag_538\n        /* \"#utility.yul\":4497:4504   */\n      dup6\n        /* \"#utility.yul\":4488:4494   */\n      dup3\n        /* \"#utility.yul\":4477:4486   */\n      dup7\n        /* \"#utility.yul\":4473:4495   */\n      add\n        /* \"#utility.yul\":4452:4505   */\n      tag_482\n      jump\t// in\n    tag_538:\n        /* \"#utility.yul\":4442:4505   */\n      swap2\n      pop\n        /* \"#utility.yul\":4397:4515   */\n      pop\n        /* \"#utility.yul\":4048:4522   */\n      swap3\n      pop\n      swap3\n      swap1\n      pop\n      jump\t// out\n        /* \"#utility.yul\":4528:4855   */\n    tag_40:\n        /* \"#utility.yul\":4586:4592   */\n      0x00\n        /* \"#utility.yul\":4635:4637   */\n      0x20\n        /* \"#utility.yul\":4623:4632   */\n      dup3\n        /* \"#utility.yul\":4614:4621   */\n      dup5\n        /* \"#utility.yul\":4610:4633   */\n      sub\n        /* \"#utility.yul\":4606:4638   */\n      slt\n        /* \"#utility.yul\":4603:4722   */\n      iszero\n      tag_540\n      jumpi\n        /* \"#utility.yul\":4641:4720   */\n      tag_541\n      tag_523\n      jump\t// in\n    tag_541:\n        /* \"#utility.yul\":4603:4722   */\n    tag_540:\n        /* \"#utility.yul\":4761:4762   */\n      0x00\n        /* \"#utility.yul\":4786:4838   */\n      tag_542\n        /* \"#utility.yul\":4830:4837   */\n      dup5\n        /* \"#utility.yul\":4821:4827   */\n      dup3\n        /* \"#utility.yul\":4810:4819   */\n      dup6\n        /* \"#utility.yul\":4806:4828   */\n      add\n        /* \"#utility.yul\":4786:4838   */\n      tag_505\n      jump\t// in\n    tag_542:\n        /* \"#utility.yul\":4776:4838   */\n      swap2\n      pop\n        /* \"#utility.yul\":4732:4848   */\n      pop\n        /* \"#utility.yul\":4528:4855   */\n      swap3\n      swap2\n      pop\n      pop\n      jump\t// out\n        /* \"#utility.yul\":4861:5934   */\n    tag_82:\n        /* \"#utility.yul\":4989:4995   */\n      0x00\n        /* \"#utility.yul\":4997:5003   */\n      dup1\n        /* \"#utility.yul\":5005:5011   */\n      0x00\n        /* \"#utility.yul\":5013:5019   */\n      dup1\n        /* \"#utility.yul\":5021:5027   */\n      0x00\n        /* \"#utility.yul\":5070:5072   */\n      0x60\n        /* \"#utility.yul\":5058:5067   */\n      dup7\n        /* \"#utility.yul\":5049:5056   */\n      dup9\n        /* \"#utility.yul\":5045:5068   */\n      sub\n        /* \"#utility.yul\":5041:5073   */\n      slt\n        /* \"#utility.yul\":5038:5157   */\n      iszero\n      tag_544\n      jumpi\n        /* \"#utility.yul\":5076:5155   */\n      tag_545\n      tag_523\n      jump\t// in\n    tag_545:\n        /* \"#utility.yul\":5038:5157   */\n    tag_544:\n        /* \"#utility.yul\":5224:5225   */\n      0x00\n        /* \"#utility.yul\":5213:5222   */\n      dup7\n        /* \"#utility.yul\":5209:5226   */\n      add\n        /* \"#utility.yul\":5196:5227   */\n      calldataload\n        /* \"#utility.yul\":5254:5272   */\n      0xffffffffffffffff\n        /* \"#utility.yul\":5246:5252   */\n      dup2\n        /* \"#utility.yul\":5243:5273   */\n      gt\n        /* \"#utility.yul\":5240:5357   */\n      iszero\n      tag_546\n      jumpi\n        /* \"#utility.yul\":5276:5355   */\n      tag_547\n      tag_548\n      jump\t// in\n    tag_547:\n        /* \"#utility.yul\":5240:5357   */\n    tag_546:\n        /* \"#utility.yul\":5389:5454   */\n      tag_549\n        /* \"#utility.yul\":5446:5453   */\n      dup9\n        /* \"#utility.yul\":5437:5443   */\n      dup3\n        /* \"#utility.yul\":5426:5435   */\n      dup10\n        /* \"#utility.yul\":5422:5444   */\n      add\n        /* \"#utility.yul\":5389:5454   */\n      tag_509\n      jump\t// in\n    tag_549:\n        /* \"#utility.yul\":5371:5454   */\n      swap6\n      pop\n      swap6\n      pop\n        /* \"#utility.yul\":5167:5464   */\n      pop\n        /* \"#utility.yul\":5531:5533   */\n      0x20\n        /* \"#utility.yul\":5520:5529   */\n      dup7\n        /* \"#utility.yul\":5516:5534   */\n      add\n        /* \"#utility.yul\":5503:5535   */\n      calldataload\n        /* \"#utility.yul\":5562:5580   */\n      0xffffffffffffffff\n        /* \"#utility.yul\":5554:5560   */\n      dup2\n        /* \"#utility.yul\":5551:5581   */\n      gt\n        /* \"#utility.yul\":5548:5665   */\n      iszero\n      tag_550\n      jumpi\n        /* \"#utility.yul\":5584:5663   */\n      tag_551\n      tag_548\n      jump\t// in\n    tag_551:\n        /* \"#utility.yul\":5548:5665   */\n    tag_550:\n        /* \"#utility.yul\":5697:5789   */\n      tag_552\n        /* \"#utility.yul\":5781:5788   */\n      dup9\n        /* \"#utility.yul\":5772:5778   */\n      dup3\n        /* \"#utility.yul\":5761:5770   */\n      dup10\n        /* \"#utility.yul\":5757:5779   */\n      add\n        /* \"#utility.yul\":5697:5789   */\n      tag_486\n      jump\t// in\n    tag_552:\n        /* \"#utility.yul\":5679:5789   */\n      swap4\n      pop\n      swap4\n      pop\n        /* \"#utility.yul\":5474:5799   */\n      pop\n        /* \"#utility.yul\":5838:5840   */\n      0x40\n        /* \"#utility.yul\":5864:5917   */\n      tag_553\n        /* \"#utility.yul\":5909:5916   */\n      dup9\n        /* \"#utility.yul\":5900:5906   */\n      dup3\n        /* \"#utility.yul\":5889:5898   */\n      dup10\n        /* \"#utility.yul\":5885:5907   */\n      add\n        /* \"#utility.yul\":5864:5917   */\n      tag_481\n      jump\t// in\n    tag_553:\n        /* \"#utility.yul\":5854:5917   */\n      swap2\n      pop\n        /* \"#utility.yul\":5809:5927   */\n      pop\n        /* \"#utility.yul\":4861:5934   */\n      swap3\n      swap6\n      pop\n      swap3\n      swap6\n      swap1\n      swap4\n      pop\n      jump\t// out\n        /* \"#utility.yul\":5940:6269   */\n    tag_56:\n        /* \"#utility.yul\":5999:6005   */\n      0x00\n        /* \"#utility.yul\":6048:6050   */\n      0x20\n        /* \"#utility.yul\":6036:6045   */\n      dup3\n        /* \"#utility.yul\":6027:6034   */\n      dup5\n        /* \"#utility.yul\":6023:6046   */\n      sub\n        /* \"#utility.yul\":6019:6051   */\n      slt\n        /* \"#utility.yul\":6016:6135   */\n      iszero\n      tag_555\n      jumpi\n        /* \"#utility.yul\":6054:6133   */\n      tag_556\n      tag_523\n      jump\t// in\n    tag_556:\n        /* \"#utility.yul\":6016:6135   */\n    tag_555:\n        /* \"#utility.yul\":6174:6175   */\n      0x00\n        /* \"#utility.yul\":6199:6252   */\n      tag_557\n        /* \"#utility.yul\":6244:6251   */\n      dup5\n        /* \"#utility.yul\":6235:6241   */\n      dup3\n        /* \"#utility.yul\":6224:6233   */\n      dup6\n        /* \"#utility.yul\":6220:6242   */\n      add\n        /* \"#utility.yul\":6199:6252   */\n      tag_481\n      jump\t// in\n    tag_557:\n        /* \"#utility.yul\":6189:6252   */\n      swap2\n      pop\n        /* \"#utility.yul\":6145:6262   */\n      pop\n        /* \"#utility.yul\":5940:6269   */\n      swap3\n      swap2\n      pop\n      pop\n      jump\t// out\n        /* \"#utility.yul\":6275:6749   */\n    tag_103:\n        /* \"#utility.yul\":6343:6349   */\n      0x00\n        /* \"#utility.yul\":6351:6357   */\n      dup1\n        /* \"#utility.yul\":6400:6402   */\n      0x40\n        /* \"#utility.yul\":6388:6397   */\n      dup4\n        /* \"#utility.yul\":6379:6386   */\n      dup6\n        /* \"#utility.yul\":6375:6398   */\n      sub\n        /* \"#utility.yul\":6371:6403   */\n      slt\n        /* \"#utility.yul\":6368:6487   */\n      iszero\n      tag_559\n      jumpi\n        /* \"#utility.yul\":6406:6485   */\n      tag_560\n      tag_523\n      jump\t// in\n    tag_560:\n        /* \"#utility.yul\":6368:6487   */\n    tag_559:\n        /* \"#utility.yul\":6526:6527   */\n      0x00\n        /* \"#utility.yul\":6551:6604   */\n      tag_561\n        /* \"#utility.yul\":6596:6603   */\n      dup6\n        /* \"#utility.yul\":6587:6593   */\n      dup3\n        /* \"#utility.yul\":6576:6585   */\n      dup7\n        /* \"#utility.yul\":6572:6594   */\n      add\n        /* \"#utility.yul\":6551:6604   */\n      tag_481\n      jump\t// in\n    tag_561:\n        /* \"#utility.yul\":6541:6604   */\n      swap3\n      pop\n        /* \"#utility.yul\":6497:6614   */\n      pop\n        /* \"#utility.yul\":6653:6655   */\n      0x20\n        /* \"#utility.yul\":6679:6732   */\n      tag_562\n        /* \"#utility.yul\":6724:6731   */\n      dup6\n        /* \"#utility.yul\":6715:6721   */\n      dup3\n        /* \"#utility.yul\":6704:6713   */\n      dup7\n        /* \"#utility.yul\":6700:6722   */\n      add\n        /* \"#utility.yul\":6679:6732   */\n      tag_482\n      jump\t// in\n    tag_562:\n        /* \"#utility.yul\":6669:6732   */\n      swap2\n      pop\n        /* \"#utility.yul\":6624:6742   */\n      pop\n        /* \"#utility.yul\":6275:6749   */\n      swap3\n      pop\n      swap3\n      swap1\n      pop\n      jump\t// out\n        /* \"#utility.yul\":6755:7439   */\n    tag_75:\n        /* \"#utility.yul\":6848:6854   */\n      0x00\n        /* \"#utility.yul\":6856:6862   */\n      dup1\n        /* \"#utility.yul\":6905:6907   */\n      0x40\n        /* \"#utility.yul\":6893:6902   */\n      dup4\n        /* \"#utility.yul\":6884:6891   */\n      dup6\n        /* \"#utility.yul\":6880:6903   */\n      sub\n        /* \"#utility.yul\":6876:6908   */\n      slt\n        /* \"#utility.yul\":6873:6992   */\n      iszero\n      tag_564\n      jumpi\n        /* \"#utility.yul\":6911:6990   */\n      tag_565\n      tag_523\n      jump\t// in\n    tag_565:\n        /* \"#utility.yul\":6873:6992   */\n    tag_564:\n        /* \"#utility.yul\":7031:7032   */\n      0x00\n        /* \"#utility.yul\":7056:7109   */\n      tag_566\n        /* \"#utility.yul\":7101:7108   */\n      dup6\n        /* \"#utility.yul\":7092:7098   */\n      dup3\n        /* \"#utility.yul\":7081:7090   */\n      dup7\n        /* \"#utility.yul\":7077:7099   */\n      add\n        /* \"#utility.yul\":7056:7109   */\n      tag_481\n      jump\t// in\n    tag_566:\n        /* \"#utility.yul\":7046:7109   */\n      swap3\n      pop\n        /* \"#utility.yul\":7002:7119   */\n      pop\n        /* \"#utility.yul\":7186:7188   */\n      0x20\n        /* \"#utility.yul\":7175:7184   */\n      dup4\n        /* \"#utility.yul\":7171:7189   */\n      add\n        /* \"#utility.yul\":7158:7190   */\n      calldataload\n        /* \"#utility.yul\":7217:7235   */\n      0xffffffffffffffff\n        /* \"#utility.yul\":7209:7215   */\n      dup2\n        /* \"#utility.yul\":7206:7236   */\n      gt\n        /* \"#utility.yul\":7203:7320   */\n      iszero\n      tag_567\n      jumpi\n        /* \"#utility.yul\":7239:7318   */\n      tag_568\n      tag_548\n      jump\t// in\n    tag_568:\n        /* \"#utility.yul\":7203:7320   */\n    tag_567:\n        /* \"#utility.yul\":7344:7422   */\n      tag_569\n        /* \"#utility.yul\":7414:7421   */\n      dup6\n        /* \"#utility.yul\":7405:7411   */\n      dup3\n        /* \"#utility.yul\":7394:7403   */\n      dup7\n        /* \"#utility.yul\":7390:7412   */\n      add\n        /* \"#utility.yul\":7344:7422   */\n      tag_496\n      jump\t// in\n    tag_569:\n        /* \"#utility.yul\":7334:7422   */\n      swap2\n      pop\n        /* \"#utility.yul\":7129:7432   */\n      pop\n        /* \"#utility.yul\":6755:7439   */\n      swap3\n      pop\n      swap3\n      swap1\n      pop\n      jump\t// out\n        /* \"#utility.yul\":7445:7919   */\n    tag_50:\n        /* \"#utility.yul\":7513:7519   */\n      0x00\n        /* \"#utility.yul\":7521:7527   */\n      dup1\n        /* \"#utility.yul\":7570:7572   */\n      0x40\n        /* \"#utility.yul\":7558:7567   */\n      dup4\n        /* \"#utility.yul\":7549:7556   */\n      dup6\n        /* \"#utility.yul\":7545:7568   */\n      sub\n        /* \"#utility.yul\":7541:7573   */\n      slt\n        /* \"#utility.yul\":7538:7657   */\n      iszero\n      tag_571\n      jumpi\n        /* \"#utility.yul\":7576:7655   */\n      tag_572\n      tag_523\n      jump\t// in\n    tag_572:\n        /* \"#utility.yul\":7538:7657   */\n    tag_571:\n        /* \"#utility.yul\":7696:7697   */\n      0x00\n        /* \"#utility.yul\":7721:7774   */\n      tag_573\n        /* \"#utility.yul\":7766:7773   */\n      dup6\n        /* \"#utility.yul\":7757:7763   */\n      dup3\n        /* \"#utility.yul\":7746:7755   */\n      dup7\n        /* \"#utility.yul\":7742:7764   */\n      add\n        /* \"#utility.yul\":7721:7774   */\n      tag_481\n      jump\t// in\n    tag_573:\n        /* \"#utility.yul\":7711:7774   */\n      swap3\n      pop\n        /* \"#utility.yul\":7667:7784   */\n      pop\n        /* \"#utility.yul\":7823:7825   */\n      0x20\n        /* \"#utility.yul\":7849:7902   */\n      tag_574\n        /* \"#utility.yul\":7894:7901   */\n      dup6\n        /* \"#utility.yul\":7885:7891   */\n      dup3\n        /* \"#utility.yul\":7874:7883   */\n      dup7\n        /* \"#utility.yul\":7870:7892   */\n      add\n        /* \"#utility.yul\":7849:7902   */\n      tag_481\n      jump\t// in\n    tag_574:\n        /* \"#utility.yul\":7839:7902   */\n      swap2\n      pop\n        /* \"#utility.yul\":7794:7912   */\n      pop\n        /* \"#utility.yul\":7445:7919   */\n      swap3\n      pop\n      swap3\n      swap1\n      pop\n      jump\t// out\n        /* \"#utility.yul\":7925:8141   */\n    tag_575:\n        /* \"#utility.yul\":8024:8034   */\n      0x00\n        /* \"#utility.yul\":8059:8135   */\n      tag_577\n        /* \"#utility.yul\":8131:8134   */\n      dup5\n        /* \"#utility.yul\":8123:8129   */\n      dup5\n        /* \"#utility.yul\":8115:8121   */\n      dup5\n        /* \"#utility.yul\":8059:8135   */\n      tag_578\n      jump\t// in\n    tag_577:\n        /* \"#utility.yul\":8045:8135   */\n      swap1\n      pop\n        /* \"#utility.yul\":7925:8141   */\n      swap4\n      swap3\n      pop\n      pop\n      pop\n      jump\t// out\n        /* \"#utility.yul\":8147:8343   */\n    tag_579:\n        /* \"#utility.yul\":8236:8246   */\n      0x00\n        /* \"#utility.yul\":8271:8337   */\n      tag_581\n        /* \"#utility.yul\":8333:8336   */\n      dup4\n        /* \"#utility.yul\":8325:8331   */\n      dup4\n        /* \"#utility.yul\":8271:8337   */\n      tag_582\n      jump\t// in\n    tag_581:\n        /* \"#utility.yul\":8257:8337   */\n      swap1\n      pop\n        /* \"#utility.yul\":8147:8343   */\n      swap3\n      swap2\n      pop\n      pop\n      jump\t// out\n        /* \"#utility.yul\":8349:8528   */\n    tag_583:\n        /* \"#utility.yul\":8418:8428   */\n      0x00\n        /* \"#utility.yul\":8439:8485   */\n      tag_585\n        /* \"#utility.yul\":8481:8484   */\n      dup4\n        /* \"#utility.yul\":8473:8479   */\n      dup4\n        /* \"#utility.yul\":8439:8485   */\n      tag_586\n      jump\t// in\n    tag_585:\n        /* \"#utility.yul\":8517:8521   */\n      0x20\n        /* \"#utility.yul\":8512:8515   */\n      dup4\n        /* \"#utility.yul\":8508:8522   */\n      add\n        /* \"#utility.yul\":8494:8522   */\n      swap1\n      pop\n        /* \"#utility.yul\":8349:8528   */\n      swap3\n      swap2\n      pop\n      pop\n      jump\t// out\n        /* \"#utility.yul\":8534:8652   */\n    tag_587:\n        /* \"#utility.yul\":8621:8645   */\n      tag_589\n        /* \"#utility.yul\":8639:8644   */\n      dup2\n        /* \"#utility.yul\":8621:8645   */\n      tag_590\n      jump\t// in\n    tag_589:\n        /* \"#utility.yul\":8616:8619   */\n      dup3\n        /* \"#utility.yul\":8609:8646   */\n      mstore\n        /* \"#utility.yul\":8534:8652   */\n      pop\n      pop\n      jump\t// out\n        /* \"#utility.yul\":8686:9684   */\n    tag_591:\n        /* \"#utility.yul\":8837:8840   */\n      0x00\n        /* \"#utility.yul\":8860:8956   */\n      tag_593\n        /* \"#utility.yul\":8949:8955   */\n      dup4\n        /* \"#utility.yul\":8944:8947   */\n      dup6\n        /* \"#utility.yul\":8860:8956   */\n      tag_594\n      jump\t// in\n    tag_593:\n        /* \"#utility.yul\":8853:8956   */\n      swap4\n      pop\n        /* \"#utility.yul\":8982:8985   */\n      dup4\n        /* \"#utility.yul\":9027:9031   */\n      0x20\n        /* \"#utility.yul\":9019:9025   */\n      dup5\n        /* \"#utility.yul\":9015:9032   */\n      mul\n        /* \"#utility.yul\":9010:9013   */\n      dup6\n        /* \"#utility.yul\":9006:9033   */\n      add\n        /* \"#utility.yul\":9057:9127   */\n      tag_595\n        /* \"#utility.yul\":9121:9126   */\n      dup5\n        /* \"#utility.yul\":9057:9127   */\n      tag_596\n      jump\t// in\n    tag_595:\n        /* \"#utility.yul\":9150:9157   */\n      dup1\n        /* \"#utility.yul\":9181:9182   */\n      0x00\n        /* \"#utility.yul\":9166:9639   */\n    tag_597:\n        /* \"#utility.yul\":9191:9197   */\n      dup8\n        /* \"#utility.yul\":9188:9189   */\n      dup2\n        /* \"#utility.yul\":9185:9198   */\n      lt\n        /* \"#utility.yul\":9166:9639   */\n      iszero\n      tag_599\n      jumpi\n        /* \"#utility.yul\":9262:9271   */\n      dup5\n        /* \"#utility.yul\":9256:9260   */\n      dup5\n        /* \"#utility.yul\":9252:9272   */\n      sub\n        /* \"#utility.yul\":9247:9250   */\n      dup10\n        /* \"#utility.yul\":9240:9273   */\n      mstore\n        /* \"#utility.yul\":9322:9376   */\n      tag_600\n        /* \"#utility.yul\":9369:9375   */\n      dup3\n        /* \"#utility.yul\":9360:9367   */\n      dup5\n        /* \"#utility.yul\":9322:9376   */\n      tag_601\n      jump\t// in\n    tag_600:\n        /* \"#utility.yul\":9397:9498   */\n      tag_602\n        /* \"#utility.yul\":9493:9497   */\n      dup7\n        /* \"#utility.yul\":9478:9491   */\n      dup3\n        /* \"#utility.yul\":9463:9476   */\n      dup5\n        /* \"#utility.yul\":9397:9498   */\n      tag_575\n      jump\t// in\n    tag_602:\n        /* \"#utility.yul\":9389:9498   */\n      swap6\n      pop\n        /* \"#utility.yul\":9521:9595   */\n      tag_603\n        /* \"#utility.yul\":9588:9594   */\n      dup5\n        /* \"#utility.yul\":9521:9595   */\n      tag_604\n      jump\t// in\n    tag_603:\n        /* \"#utility.yul\":9511:9595   */\n      swap4\n      pop\n        /* \"#utility.yul\":9624:9628   */\n      0x20\n        /* \"#utility.yul\":9619:9622   */\n      dup12\n        /* \"#utility.yul\":9615:9629   */\n      add\n        /* \"#utility.yul\":9608:9629   */\n      swap11\n      pop\n        /* \"#utility.yul\":9226:9639   */\n      pop\n      pop\n        /* \"#utility.yul\":9213:9214   */\n      0x01\n        /* \"#utility.yul\":9210:9211   */\n      dup2\n        /* \"#utility.yul\":9206:9215   */\n      add\n        /* \"#utility.yul\":9201:9215   */\n      swap1\n      pop\n        /* \"#utility.yul\":9166:9639   */\n      jump(tag_597)\n    tag_599:\n        /* \"#utility.yul\":9170:9184   */\n      pop\n        /* \"#utility.yul\":9655:9659   */\n      dup3\n        /* \"#utility.yul\":9648:9659   */\n      swap8\n      pop\n        /* \"#utility.yul\":9675:9678   */\n      dup8\n        /* \"#utility.yul\":9668:9678   */\n      swap5\n      pop\n        /* \"#utility.yul\":8842:9684   */\n      pop\n      pop\n      pop\n      pop\n        /* \"#utility.yul\":8686:9684   */\n      swap4\n      swap3\n      pop\n      pop\n      pop\n      jump\t// out\n        /* \"#utility.yul\":9718:10709   */\n    tag_605:\n        /* \"#utility.yul\":9857:9860   */\n      0x00\n        /* \"#utility.yul\":9886:9950   */\n      tag_607\n        /* \"#utility.yul\":9944:9949   */\n      dup3\n        /* \"#utility.yul\":9886:9950   */\n      tag_608\n      jump\t// in\n    tag_607:\n        /* \"#utility.yul\":9966:10062   */\n      tag_609\n        /* \"#utility.yul\":10055:10061   */\n      dup2\n        /* \"#utility.yul\":10050:10053   */\n      dup6\n        /* \"#utility.yul\":9966:10062   */\n      tag_594\n      jump\t// in\n    tag_609:\n        /* \"#utility.yul\":9959:10062   */\n      swap4\n      pop\n        /* \"#utility.yul\":10088:10091   */\n      dup4\n        /* \"#utility.yul\":10133:10137   */\n      0x20\n        /* \"#utility.yul\":10125:10131   */\n      dup3\n        /* \"#utility.yul\":10121:10138   */\n      mul\n        /* \"#utility.yul\":10116:10119   */\n      dup6\n        /* \"#utility.yul\":10112:10139   */\n      add\n        /* \"#utility.yul\":10163:10229   */\n      tag_610\n        /* \"#utility.yul\":10223:10228   */\n      dup6\n        /* \"#utility.yul\":10163:10229   */\n      tag_611\n      jump\t// in\n    tag_610:\n        /* \"#utility.yul\":10252:10259   */\n      dup1\n        /* \"#utility.yul\":10283:10284   */\n      0x00\n        /* \"#utility.yul\":10268:10664   */\n    tag_612:\n        /* \"#utility.yul\":10293:10299   */\n      dup6\n        /* \"#utility.yul\":10290:10291   */\n      dup2\n        /* \"#utility.yul\":10287:10300   */\n      lt\n        /* \"#utility.yul\":10268:10664   */\n      iszero\n      tag_614\n      jumpi\n        /* \"#utility.yul\":10364:10373   */\n      dup5\n        /* \"#utility.yul\":10358:10362   */\n      dup5\n        /* \"#utility.yul\":10354:10374   */\n      sub\n        /* \"#utility.yul\":10349:10352   */\n      dup10\n        /* \"#utility.yul\":10342:10375   */\n      mstore\n        /* \"#utility.yul\":10415:10421   */\n      dup2\n        /* \"#utility.yul\":10409:10422   */\n      mload\n        /* \"#utility.yul\":10443:10527   */\n      tag_615\n        /* \"#utility.yul\":10522:10526   */\n      dup6\n        /* \"#utility.yul\":10507:10520   */\n      dup3\n        /* \"#utility.yul\":10443:10527   */\n      tag_579\n      jump\t// in\n    tag_615:\n        /* \"#utility.yul\":10435:10527   */\n      swap5\n      pop\n        /* \"#utility.yul\":10550:10620   */\n      tag_616\n        /* \"#utility.yul\":10613:10619   */\n      dup4\n        /* \"#utility.yul\":10550:10620   */\n      tag_617\n      jump\t// in\n    tag_616:\n        /* \"#utility.yul\":10540:10620   */\n      swap3\n      pop\n        /* \"#utility.yul\":10649:10653   */\n      0x20\n        /* \"#utility.yul\":10644:10647   */\n      dup11\n        /* \"#utility.yul\":10640:10654   */\n      add\n        /* \"#utility.yul\":10633:10654   */\n      swap10\n      pop\n        /* \"#utility.yul\":10328:10664   */\n      pop\n        /* \"#utility.yul\":10315:10316   */\n      0x01\n        /* \"#utility.yul\":10312:10313   */\n      dup2\n        /* \"#utility.yul\":10308:10317   */\n      add\n        /* \"#utility.yul\":10303:10317   */\n      swap1\n      pop\n        /* \"#utility.yul\":10268:10664   */\n      jump(tag_612)\n    tag_614:\n        /* \"#utility.yul\":10272:10286   */\n      pop\n        /* \"#utility.yul\":10680:10684   */\n      dup3\n        /* \"#utility.yul\":10673:10684   */\n      swap8\n      pop\n        /* \"#utility.yul\":10700:10703   */\n      dup8\n        /* \"#utility.yul\":10693:10703   */\n      swap6\n      pop\n        /* \"#utility.yul\":9862:10709   */\n      pop\n      pop\n      pop\n      pop\n      pop\n        /* \"#utility.yul\":9718:10709   */\n      swap3\n      swap2\n      pop\n      pop\n      jump\t// out\n        /* \"#utility.yul\":10745:11477   */\n    tag_618:\n        /* \"#utility.yul\":10864:10867   */\n      0x00\n        /* \"#utility.yul\":10893:10947   */\n      tag_620\n        /* \"#utility.yul\":10941:10946   */\n      dup3\n        /* \"#utility.yul\":10893:10947   */\n      tag_621\n      jump\t// in\n    tag_620:\n        /* \"#utility.yul\":10963:11049   */\n      tag_622\n        /* \"#utility.yul\":11042:11048   */\n      dup2\n        /* \"#utility.yul\":11037:11040   */\n      dup6\n        /* \"#utility.yul\":10963:11049   */\n      tag_623\n      jump\t// in\n    tag_622:\n        /* \"#utility.yul\":10956:11049   */\n      swap4\n      pop\n        /* \"#utility.yul\":11073:11129   */\n      tag_624\n        /* \"#utility.yul\":11123:11128   */\n      dup4\n        /* \"#utility.yul\":11073:11129   */\n      tag_625\n      jump\t// in\n    tag_624:\n        /* \"#utility.yul\":11152:11159   */\n      dup1\n        /* \"#utility.yul\":11183:11184   */\n      0x00\n        /* \"#utility.yul\":11168:11452   */\n    tag_626:\n        /* \"#utility.yul\":11193:11199   */\n      dup4\n        /* \"#utility.yul\":11190:11191   */\n      dup2\n        /* \"#utility.yul\":11187:11200   */\n      lt\n        /* \"#utility.yul\":11168:11452   */\n      iszero\n      tag_628\n      jumpi\n        /* \"#utility.yul\":11269:11275   */\n      dup2\n        /* \"#utility.yul\":11263:11276   */\n      mload\n        /* \"#utility.yul\":11296:11359   */\n      tag_629\n        /* \"#utility.yul\":11355:11358   */\n      dup9\n        /* \"#utility.yul\":11340:11353   */\n      dup3\n        /* \"#utility.yul\":11296:11359   */\n      tag_583\n      jump\t// in\n    tag_629:\n        /* \"#utility.yul\":11289:11359   */\n      swap8\n      pop\n        /* \"#utility.yul\":11382:11442   */\n      tag_630\n        /* \"#utility.yul\":11435:11441   */\n      dup4\n        /* \"#utility.yul\":11382:11442   */\n      tag_631\n      jump\t// in\n    tag_630:\n        /* \"#utility.yul\":11372:11442   */\n      swap3\n      pop\n        /* \"#utility.yul\":11228:11452   */\n      pop\n        /* \"#utility.yul\":11215:11216   */\n      0x01\n        /* \"#utility.yul\":11212:11213   */\n      dup2\n        /* \"#utility.yul\":11208:11217   */\n      add\n        /* \"#utility.yul\":11203:11217   */\n      swap1\n      pop\n        /* \"#utility.yul\":11168:11452   */\n      jump(tag_626)\n    tag_628:\n        /* \"#utility.yul\":11172:11186   */\n      pop\n        /* \"#utility.yul\":11468:11471   */\n      dup6\n        /* \"#utility.yul\":11461:11471   */\n      swap4\n      pop\n        /* \"#utility.yul\":10869:11477   */\n      pop\n      pop\n      pop\n        /* \"#utility.yul\":10745:11477   */\n      swap3\n      swap2\n      pop\n      pop\n      jump\t// out\n        /* \"#utility.yul\":11483:11592   */\n    tag_632:\n        /* \"#utility.yul\":11564:11585   */\n      tag_634\n        /* \"#utility.yul\":11579:11584   */\n      dup2\n        /* \"#utility.yul\":11564:11585   */\n      tag_635\n      jump\t// in\n    tag_634:\n        /* \"#utility.yul\":11559:11562   */\n      dup3\n        /* \"#utility.yul\":11552:11586   */\n      mstore\n        /* \"#utility.yul\":11483:11592   */\n      pop\n      pop\n      jump\t// out\n        /* \"#utility.yul\":11598:11716   */\n    tag_636:\n        /* \"#utility.yul\":11685:11709   */\n      tag_638\n        /* \"#utility.yul\":11703:11708   */\n      dup2\n        /* \"#utility.yul\":11685:11709   */\n      tag_639\n      jump\t// in\n    tag_638:\n        /* \"#utility.yul\":11680:11683   */\n      dup3\n        /* \"#utility.yul\":11673:11710   */\n      mstore\n        /* \"#utility.yul\":11598:11716   */\n      pop\n      pop\n      jump\t// out\n        /* \"#utility.yul\":11722:11887   */\n    tag_640:\n        /* \"#utility.yul\":11826:11880   */\n      tag_642\n        /* \"#utility.yul\":11874:11879   */\n      dup2\n        /* \"#utility.yul\":11826:11880   */\n      tag_643\n      jump\t// in\n    tag_642:\n        /* \"#utility.yul\":11821:11824   */\n      dup3\n        /* \"#utility.yul\":11814:11881   */\n      mstore\n        /* \"#utility.yul\":11722:11887   */\n      pop\n      pop\n      jump\t// out\n        /* \"#utility.yul\":11917:12201   */\n    tag_578:\n        /* \"#utility.yul\":12005:12008   */\n      0x00\n        /* \"#utility.yul\":12026:12087   */\n      tag_645\n        /* \"#utility.yul\":12080:12086   */\n      dup4\n        /* \"#utility.yul\":12075:12078   */\n      dup6\n        /* \"#utility.yul\":12026:12087   */\n      tag_646\n      jump\t// in\n    tag_645:\n        /* \"#utility.yul\":12019:12087   */\n      swap4\n      pop\n        /* \"#utility.yul\":12097:12140   */\n      tag_647\n        /* \"#utility.yul\":12133:12139   */\n      dup4\n        /* \"#utility.yul\":12128:12131   */\n      dup6\n        /* \"#utility.yul\":12121:12126   */\n      dup5\n        /* \"#utility.yul\":12097:12140   */\n      tag_648\n      jump\t// in\n    tag_647:\n        /* \"#utility.yul\":12165:12194   */\n      tag_649\n        /* \"#utility.yul\":12187:12193   */\n      dup4\n        /* \"#utility.yul\":12165:12194   */\n      tag_650\n      jump\t// in\n    tag_649:\n        /* \"#utility.yul\":12160:12163   */\n      dup5\n        /* \"#utility.yul\":12156:12195   */\n      add\n        /* \"#utility.yul\":12149:12195   */\n      swap1\n      pop\n        /* \"#utility.yul\":11917:12201   */\n      swap4\n      swap3\n      pop\n      pop\n      pop\n      jump\t// out\n        /* \"#utility.yul\":12231:12535   */\n    tag_651:\n        /* \"#utility.yul\":12329:12332   */\n      0x00\n        /* \"#utility.yul\":12350:12421   */\n      tag_653\n        /* \"#utility.yul\":12414:12420   */\n      dup4\n        /* \"#utility.yul\":12409:12412   */\n      dup6\n        /* \"#utility.yul\":12350:12421   */\n      tag_654\n      jump\t// in\n    tag_653:\n        /* \"#utility.yul\":12343:12421   */\n      swap4\n      pop\n        /* \"#utility.yul\":12431:12474   */\n      tag_655\n        /* \"#utility.yul\":12467:12473   */\n      dup4\n        /* \"#utility.yul\":12462:12465   */\n      dup6\n        /* \"#utility.yul\":12455:12460   */\n      dup5\n        /* \"#utility.yul\":12431:12474   */\n      tag_648\n      jump\t// in\n    tag_655:\n        /* \"#utility.yul\":12499:12528   */\n      tag_656\n        /* \"#utility.yul\":12521:12527   */\n      dup4\n        /* \"#utility.yul\":12499:12528   */\n      tag_650\n      jump\t// in\n    tag_656:\n        /* \"#utility.yul\":12494:12497   */\n      dup5\n        /* \"#utility.yul\":12490:12529   */\n      add\n        /* \"#utility.yul\":12483:12529   */\n      swap1\n      pop\n        /* \"#utility.yul\":12231:12535   */\n      swap4\n      swap3\n      pop\n      pop\n      pop\n      jump\t// out\n        /* \"#utility.yul\":12541:12885   */\n    tag_582:\n        /* \"#utility.yul\":12619:12622   */\n      0x00\n        /* \"#utility.yul\":12647:12686   */\n      tag_658\n        /* \"#utility.yul\":12680:12685   */\n      dup3\n        /* \"#utility.yul\":12647:12686   */\n      tag_659\n      jump\t// in\n    tag_658:\n        /* \"#utility.yul\":12702:12763   */\n      tag_660\n        /* \"#utility.yul\":12756:12762   */\n      dup2\n        /* \"#utility.yul\":12751:12754   */\n      dup6\n        /* \"#utility.yul\":12702:12763   */\n      tag_646\n      jump\t// in\n    tag_660:\n        /* \"#utility.yul\":12695:12763   */\n      swap4\n      pop\n        /* \"#utility.yul\":12772:12824   */\n      tag_661\n        /* \"#utility.yul\":12817:12823   */\n      dup2\n        /* \"#utility.yul\":12812:12815   */\n      dup6\n        /* \"#utility.yul\":12805:12809   */\n      0x20\n        /* \"#utility.yul\":12798:12803   */\n      dup7\n        /* \"#utility.yul\":12794:12810   */\n      add\n        /* \"#utility.yul\":12772:12824   */\n      tag_662\n      jump\t// in\n    tag_661:\n        /* \"#utility.yul\":12849:12878   */\n      tag_663\n        /* \"#utility.yul\":12871:12877   */\n      dup2\n        /* \"#utility.yul\":12849:12878   */\n      tag_650\n      jump\t// in\n    tag_663:\n        /* \"#utility.yul\":12844:12847   */\n      dup5\n        /* \"#utility.yul\":12840:12879   */\n      add\n        /* \"#utility.yul\":12833:12879   */\n      swap2\n      pop\n        /* \"#utility.yul\":12623:12885   */\n      pop\n        /* \"#utility.yul\":12541:12885   */\n      swap3\n      swap2\n      pop\n      pop\n      jump\t// out\n        /* \"#utility.yul\":12891:13255   */\n    tag_664:\n        /* \"#utility.yul\":12979:12982   */\n      0x00\n        /* \"#utility.yul\":13007:13046   */\n      tag_666\n        /* \"#utility.yul\":13040:13045   */\n      dup3\n        /* \"#utility.yul\":13007:13046   */\n      tag_659\n      jump\t// in\n    tag_666:\n        /* \"#utility.yul\":13062:13133   */\n      tag_667\n        /* \"#utility.yul\":13126:13132   */\n      dup2\n        /* \"#utility.yul\":13121:13124   */\n      dup6\n        /* \"#utility.yul\":13062:13133   */\n      tag_654\n      jump\t// in\n    tag_667:\n        /* \"#utility.yul\":13055:13133   */\n      swap4\n      pop\n        /* \"#utility.yul\":13142:13194   */\n      tag_668\n        /* \"#utility.yul\":13187:13193   */\n      dup2\n        /* \"#utility.yul\":13182:13185   */\n      dup6\n        /* \"#utility.yul\":13175:13179   */\n      0x20\n        /* \"#utility.yul\":13168:13173   */\n      dup7\n        /* \"#utility.yul\":13164:13180   */\n      add\n        /* \"#utility.yul\":13142:13194   */\n      tag_662\n      jump\t// in\n    tag_668:\n        /* \"#utility.yul\":13219:13248   */\n      tag_669\n        /* \"#utility.yul\":13241:13247   */\n      dup2\n        /* \"#utility.yul\":13219:13248   */\n      tag_650\n      jump\t// in\n    tag_669:\n        /* \"#utility.yul\":13214:13217   */\n      dup5\n        /* \"#utility.yul\":13210:13249   */\n      add\n        /* \"#utility.yul\":13203:13249   */\n      swap2\n      pop\n        /* \"#utility.yul\":12983:13255   */\n      pop\n        /* \"#utility.yul\":12891:13255   */\n      swap3\n      swap2\n      pop\n      pop\n      jump\t// out\n        /* \"#utility.yul\":13261:13638   */\n    tag_670:\n        /* \"#utility.yul\":13367:13370   */\n      0x00\n        /* \"#utility.yul\":13395:13434   */\n      tag_672\n        /* \"#utility.yul\":13428:13433   */\n      dup3\n        /* \"#utility.yul\":13395:13434   */\n      tag_659\n      jump\t// in\n    tag_672:\n        /* \"#utility.yul\":13450:13539   */\n      tag_673\n        /* \"#utility.yul\":13532:13538   */\n      dup2\n        /* \"#utility.yul\":13527:13530   */\n      dup6\n        /* \"#utility.yul\":13450:13539   */\n      tag_674\n      jump\t// in\n    tag_673:\n        /* \"#utility.yul\":13443:13539   */\n      swap4\n      pop\n        /* \"#utility.yul\":13548:13600   */\n      tag_675\n        /* \"#utility.yul\":13593:13599   */\n      dup2\n        /* \"#utility.yul\":13588:13591   */\n      dup6\n        /* \"#utility.yul\":13581:13585   */\n      0x20\n        /* \"#utility.yul\":13574:13579   */\n      dup7\n        /* \"#utility.yul\":13570:13586   */\n      add\n        /* \"#utility.yul\":13548:13600   */\n      tag_662\n      jump\t// in\n    tag_675:\n        /* \"#utility.yul\":13625:13631   */\n      dup1\n        /* \"#utility.yul\":13620:13623   */\n      dup5\n        /* \"#utility.yul\":13616:13632   */\n      add\n        /* \"#utility.yul\":13609:13632   */\n      swap2\n      pop\n        /* \"#utility.yul\":13371:13638   */\n      pop\n        /* \"#utility.yul\":13261:13638   */\n      swap3\n      swap2\n      pop\n      pop\n      jump\t// out\n        /* \"#utility.yul\":13644:14010   */\n    tag_676:\n        /* \"#utility.yul\":13786:13789   */\n      0x00\n        /* \"#utility.yul\":13807:13874   */\n      tag_678\n        /* \"#utility.yul\":13871:13873   */\n      0x20\n        /* \"#utility.yul\":13866:13869   */\n      dup4\n        /* \"#utility.yul\":13807:13874   */\n      tag_654\n      jump\t// in\n    tag_678:\n        /* \"#utility.yul\":13800:13874   */\n      swap2\n      pop\n        /* \"#utility.yul\":13883:13976   */\n      tag_679\n        /* \"#utility.yul\":13972:13975   */\n      dup3\n        /* \"#utility.yul\":13883:13976   */\n      tag_680\n      jump\t// in\n    tag_679:\n        /* \"#utility.yul\":14001:14003   */\n      0x20\n        /* \"#utility.yul\":13996:13999   */\n      dup3\n        /* \"#utility.yul\":13992:14004   */\n      add\n        /* \"#utility.yul\":13985:14004   */\n      swap1\n      pop\n        /* \"#utility.yul\":13644:14010   */\n      swap2\n      swap1\n      pop\n      jump\t// out\n        /* \"#utility.yul\":14016:14382   */\n    tag_681:\n        /* \"#utility.yul\":14158:14161   */\n      0x00\n        /* \"#utility.yul\":14179:14246   */\n      tag_683\n        /* \"#utility.yul\":14243:14245   */\n      0x26\n        /* \"#utility.yul\":14238:14241   */\n      dup4\n        /* \"#utility.yul\":14179:14246   */\n      tag_654\n      jump\t// in\n    tag_683:\n        /* \"#utility.yul\":14172:14246   */\n      swap2\n      pop\n        /* \"#utility.yul\":14255:14348   */\n      tag_684\n        /* \"#utility.yul\":14344:14347   */\n      dup3\n        /* \"#utility.yul\":14255:14348   */\n      tag_685\n      jump\t// in\n    tag_684:\n        /* \"#utility.yul\":14373:14375   */\n      0x40\n        /* \"#utility.yul\":14368:14371   */\n      dup3\n        /* \"#utility.yul\":14364:14376   */\n      add\n        /* \"#utility.yul\":14357:14376   */\n      swap1\n      pop\n        /* \"#utility.yul\":14016:14382   */\n      swap2\n      swap1\n      pop\n      jump\t// out\n        /* \"#utility.yul\":14388:14754   */\n    tag_686:\n        /* \"#utility.yul\":14530:14533   */\n      0x00\n        /* \"#utility.yul\":14551:14618   */\n      tag_688\n        /* \"#utility.yul\":14615:14617   */\n      0x1b\n        /* \"#utility.yul\":14610:14613   */\n      dup4\n        /* \"#utility.yul\":14551:14618   */\n      tag_654\n      jump\t// in\n    tag_688:\n        /* \"#utility.yul\":14544:14618   */\n      swap2\n      pop\n        /* \"#utility.yul\":14627:14720   */\n      tag_689\n        /* \"#utility.yul\":14716:14719   */\n      dup3\n        /* \"#utility.yul\":14627:14720   */\n      tag_690\n      jump\t// in\n    tag_689:\n        /* \"#utility.yul\":14745:14747   */\n      0x20\n        /* \"#utility.yul\":14740:14743   */\n      dup3\n        /* \"#utility.yul\":14736:14748   */\n      add\n        /* \"#utility.yul\":14729:14748   */\n      swap1\n      pop\n        /* \"#utility.yul\":14388:14754   */\n      swap2\n      swap1\n      pop\n      jump\t// out\n        /* \"#utility.yul\":14760:15126   */\n    tag_691:\n        /* \"#utility.yul\":14902:14905   */\n      0x00\n        /* \"#utility.yul\":14923:14990   */\n      tag_693\n        /* \"#utility.yul\":14987:14989   */\n      0x17\n        /* \"#utility.yul\":14982:14985   */\n      dup4\n        /* \"#utility.yul\":14923:14990   */\n      tag_654\n      jump\t// in\n    tag_693:\n        /* \"#utility.yul\":14916:14990   */\n      swap2\n      pop\n        /* \"#utility.yul\":14999:15092   */\n      tag_694\n        /* \"#utility.yul\":15088:15091   */\n      dup3\n        /* \"#utility.yul\":14999:15092   */\n      tag_695\n      jump\t// in\n    tag_694:\n        /* \"#utility.yul\":15117:15119   */\n      0x20\n        /* \"#utility.yul\":15112:15115   */\n      dup3\n        /* \"#utility.yul\":15108:15120   */\n      add\n        /* \"#utility.yul\":15101:15120   */\n      swap1\n      pop\n        /* \"#utility.yul\":14760:15126   */\n      swap2\n      swap1\n      pop\n      jump\t// out\n        /* \"#utility.yul\":15132:15498   */\n    tag_696:\n        /* \"#utility.yul\":15274:15277   */\n      0x00\n        /* \"#utility.yul\":15295:15362   */\n      tag_698\n        /* \"#utility.yul\":15359:15361   */\n      0x1d\n        /* \"#utility.yul\":15354:15357   */\n      dup4\n        /* \"#utility.yul\":15295:15362   */\n      tag_654\n      jump\t// in\n    tag_698:\n        /* \"#utility.yul\":15288:15362   */\n      swap2\n      pop\n        /* \"#utility.yul\":15371:15464   */\n      tag_699\n        /* \"#utility.yul\":15460:15463   */\n      dup3\n        /* \"#utility.yul\":15371:15464   */\n      tag_700\n      jump\t// in\n    tag_699:\n        /* \"#utility.yul\":15489:15491   */\n      0x20\n        /* \"#utility.yul\":15484:15487   */\n      dup3\n        /* \"#utility.yul\":15480:15492   */\n      add\n        /* \"#utility.yul\":15473:15492   */\n      swap1\n      pop\n        /* \"#utility.yul\":15132:15498   */\n      swap2\n      swap1\n      pop\n      jump\t// out\n        /* \"#utility.yul\":15504:15870   */\n    tag_701:\n        /* \"#utility.yul\":15646:15649   */\n      0x00\n        /* \"#utility.yul\":15667:15734   */\n      tag_703\n        /* \"#utility.yul\":15731:15733   */\n      0x19\n        /* \"#utility.yul\":15726:15729   */\n      dup4\n        /* \"#utility.yul\":15667:15734   */\n      tag_654\n      jump\t// in\n    tag_703:\n        /* \"#utility.yul\":15660:15734   */\n      swap2\n      pop\n        /* \"#utility.yul\":15743:15836   */\n      tag_704\n        /* \"#utility.yul\":15832:15835   */\n      dup3\n        /* \"#utility.yul\":15743:15836   */\n      tag_705\n      jump\t// in\n    tag_704:\n        /* \"#utility.yul\":15861:15863   */\n      0x20\n        /* \"#utility.yul\":15856:15859   */\n      dup3\n        /* \"#utility.yul\":15852:15864   */\n      add\n        /* \"#utility.yul\":15845:15864   */\n      swap1\n      pop\n        /* \"#utility.yul\":15504:15870   */\n      swap2\n      swap1\n      pop\n      jump\t// out\n        /* \"#utility.yul\":15876:16242   */\n    tag_706:\n        /* \"#utility.yul\":16018:16021   */\n      0x00\n        /* \"#utility.yul\":16039:16106   */\n      tag_708\n        /* \"#utility.yul\":16103:16105   */\n      0x20\n        /* \"#utility.yul\":16098:16101   */\n      dup4\n        /* \"#utility.yul\":16039:16106   */\n      tag_654\n      jump\t// in\n    tag_708:\n        /* \"#utility.yul\":16032:16106   */\n      swap2\n      pop\n        /* \"#utility.yul\":16115:16208   */\n      tag_709\n        /* \"#utility.yul\":16204:16207   */\n      dup3\n        /* \"#utility.yul\":16115:16208   */\n      tag_710\n      jump\t// in\n    tag_709:\n        /* \"#utility.yul\":16233:16235   */\n      0x20\n        /* \"#utility.yul\":16228:16231   */\n      dup3\n        /* \"#utility.yul\":16224:16236   */\n      add\n        /* \"#utility.yul\":16217:16236   */\n      swap1\n      pop\n        /* \"#utility.yul\":15876:16242   */\n      swap2\n      swap1\n      pop\n      jump\t// out\n        /* \"#utility.yul\":16248:16614   */\n    tag_711:\n        /* \"#utility.yul\":16390:16393   */\n      0x00\n        /* \"#utility.yul\":16411:16478   */\n      tag_713\n        /* \"#utility.yul\":16475:16477   */\n      0x1d\n        /* \"#utility.yul\":16470:16473   */\n      dup4\n        /* \"#utility.yul\":16411:16478   */\n      tag_654\n      jump\t// in\n    tag_713:\n        /* \"#utility.yul\":16404:16478   */\n      swap2\n      pop\n        /* \"#utility.yul\":16487:16580   */\n      tag_714\n        /* \"#utility.yul\":16576:16579   */\n      dup3\n        /* \"#utility.yul\":16487:16580   */\n      tag_715\n      jump\t// in\n    tag_714:\n        /* \"#utility.yul\":16605:16607   */\n      0x20\n        /* \"#utility.yul\":16600:16603   */\n      dup3\n        /* \"#utility.yul\":16596:16608   */\n      add\n        /* \"#utility.yul\":16589:16608   */\n      swap1\n      pop\n        /* \"#utility.yul\":16248:16614   */\n      swap2\n      swap1\n      pop\n      jump\t// out\n        /* \"#utility.yul\":16620:16986   */\n    tag_716:\n        /* \"#utility.yul\":16762:16765   */\n      0x00\n        /* \"#utility.yul\":16783:16850   */\n      tag_718\n        /* \"#utility.yul\":16847:16849   */\n      0x2a\n        /* \"#utility.yul\":16842:16845   */\n      dup4\n        /* \"#utility.yul\":16783:16850   */\n      tag_654\n      jump\t// in\n    tag_718:\n        /* \"#utility.yul\":16776:16850   */\n      swap2\n      pop\n        /* \"#utility.yul\":16859:16952   */\n      tag_719\n        /* \"#utility.yul\":16948:16951   */\n      dup3\n        /* \"#utility.yul\":16859:16952   */\n      tag_720\n      jump\t// in\n    tag_719:\n        /* \"#utility.yul\":16977:16979   */\n      0x40\n        /* \"#utility.yul\":16972:16975   */\n      dup3\n        /* \"#utility.yul\":16968:16980   */\n      add\n        /* \"#utility.yul\":16961:16980   */\n      swap1\n      pop\n        /* \"#utility.yul\":16620:16986   */\n      swap2\n      swap1\n      pop\n      jump\t// out\n        /* \"#utility.yul\":16992:17358   */\n    tag_721:\n        /* \"#utility.yul\":17134:17137   */\n      0x00\n        /* \"#utility.yul\":17155:17222   */\n      tag_723\n        /* \"#utility.yul\":17219:17221   */\n      0x15\n        /* \"#utility.yul\":17214:17217   */\n      dup4\n        /* \"#utility.yul\":17155:17222   */\n      tag_654\n      jump\t// in\n    tag_723:\n        /* \"#utility.yul\":17148:17222   */\n      swap2\n      pop\n        /* \"#utility.yul\":17231:17324   */\n      tag_724\n        /* \"#utility.yul\":17320:17323   */\n      dup3\n        /* \"#utility.yul\":17231:17324   */\n      tag_725\n      jump\t// in\n    tag_724:\n        /* \"#utility.yul\":17349:17351   */\n      0x20\n        /* \"#utility.yul\":17344:17347   */\n      dup3\n        /* \"#utility.yul\":17340:17352   */\n      add\n        /* \"#utility.yul\":17333:17352   */\n      swap1\n      pop\n        /* \"#utility.yul\":16992:17358   */\n      swap2\n      swap1\n      pop\n      jump\t// out\n        /* \"#utility.yul\":17364:17730   */\n    tag_726:\n        /* \"#utility.yul\":17506:17509   */\n      0x00\n        /* \"#utility.yul\":17527:17594   */\n      tag_728\n        /* \"#utility.yul\":17591:17593   */\n      0x17\n        /* \"#utility.yul\":17586:17589   */\n      dup4\n        /* \"#utility.yul\":17527:17594   */\n      tag_654\n      jump\t// in\n    tag_728:\n        /* \"#utility.yul\":17520:17594   */\n      swap2\n      pop\n        /* \"#utility.yul\":17603:17696   */\n      tag_729\n        /* \"#utility.yul\":17692:17695   */\n      dup3\n        /* \"#utility.yul\":17603:17696   */\n      tag_730\n      jump\t// in\n    tag_729:\n        /* \"#utility.yul\":17721:17723   */\n      0x20\n        /* \"#utility.yul\":17716:17719   */\n      dup3\n        /* \"#utility.yul\":17712:17724   */\n      add\n        /* \"#utility.yul\":17705:17724   */\n      swap1\n      pop\n        /* \"#utility.yul\":17364:17730   */\n      swap2\n      swap1\n      pop\n      jump\t// out\n        /* \"#utility.yul\":17736:18138   */\n    tag_731:\n        /* \"#utility.yul\":17896:17899   */\n      0x00\n        /* \"#utility.yul\":17917:18002   */\n      tag_733\n        /* \"#utility.yul\":17999:18001   */\n      0x17\n        /* \"#utility.yul\":17994:17997   */\n      dup4\n        /* \"#utility.yul\":17917:18002   */\n      tag_674\n      jump\t// in\n    tag_733:\n        /* \"#utility.yul\":17910:18002   */\n      swap2\n      pop\n        /* \"#utility.yul\":18011:18104   */\n      tag_734\n        /* \"#utility.yul\":18100:18103   */\n      dup3\n        /* \"#utility.yul\":18011:18104   */\n      tag_735\n      jump\t// in\n    tag_734:\n        /* \"#utility.yul\":18129:18131   */\n      0x17\n        /* \"#utility.yul\":18124:18127   */\n      dup3\n        /* \"#utility.yul\":18120:18132   */\n      add\n        /* \"#utility.yul\":18113:18132   */\n      swap1\n      pop\n        /* \"#utility.yul\":17736:18138   */\n      swap2\n      swap1\n      pop\n      jump\t// out\n        /* \"#utility.yul\":18144:18510   */\n    tag_736:\n        /* \"#utility.yul\":18286:18289   */\n      0x00\n        /* \"#utility.yul\":18307:18374   */\n      tag_738\n        /* \"#utility.yul\":18371:18373   */\n      0x23\n        /* \"#utility.yul\":18366:18369   */\n      dup4\n        /* \"#utility.yul\":18307:18374   */\n      tag_654\n      jump\t// in\n    tag_738:\n        /* \"#utility.yul\":18300:18374   */\n      swap2\n      pop\n        /* \"#utility.yul\":18383:18476   */\n      tag_739\n        /* \"#utility.yul\":18472:18475   */\n      dup3\n        /* \"#utility.yul\":18383:18476   */\n      tag_740\n      jump\t// in\n    tag_739:\n        /* \"#utility.yul\":18501:18503   */\n      0x40\n        /* \"#utility.yul\":18496:18499   */\n      dup3\n        /* \"#utility.yul\":18492:18504   */\n      add\n        /* \"#utility.yul\":18485:18504   */\n      swap1\n      pop\n        /* \"#utility.yul\":18144:18510   */\n      swap2\n      swap1\n      pop\n      jump\t// out\n        /* \"#utility.yul\":18516:18918   */\n    tag_741:\n        /* \"#utility.yul\":18676:18679   */\n      0x00\n        /* \"#utility.yul\":18697:18782   */\n      tag_743\n        /* \"#utility.yul\":18779:18781   */\n      0x11\n        /* \"#utility.yul\":18774:18777   */\n      dup4\n        /* \"#utility.yul\":18697:18782   */\n      tag_674\n      jump\t// in\n    tag_743:\n        /* \"#utility.yul\":18690:18782   */\n      swap2\n      pop\n        /* \"#utility.yul\":18791:18884   */\n      tag_744\n        /* \"#utility.yul\":18880:18883   */\n      dup3\n        /* \"#utility.yul\":18791:18884   */\n      tag_745\n      jump\t// in\n    tag_744:\n        /* \"#utility.yul\":18909:18911   */\n      0x11\n        /* \"#utility.yul\":18904:18907   */\n      dup3\n        /* \"#utility.yul\":18900:18912   */\n      add\n        /* \"#utility.yul\":18893:18912   */\n      swap1\n      pop\n        /* \"#utility.yul\":18516:18918   */\n      swap2\n      swap1\n      pop\n      jump\t// out\n        /* \"#utility.yul\":18924:19290   */\n    tag_746:\n        /* \"#utility.yul\":19066:19069   */\n      0x00\n        /* \"#utility.yul\":19087:19154   */\n      tag_748\n        /* \"#utility.yul\":19151:19153   */\n      0x2f\n        /* \"#utility.yul\":19146:19149   */\n      dup4\n        /* \"#utility.yul\":19087:19154   */\n      tag_654\n      jump\t// in\n    tag_748:\n        /* \"#utility.yul\":19080:19154   */\n      swap2\n      pop\n        /* \"#utility.yul\":19163:19256   */\n      tag_749\n        /* \"#utility.yul\":19252:19255   */\n      dup3\n        /* \"#utility.yul\":19163:19256   */\n      tag_750\n      jump\t// in\n    tag_749:\n        /* \"#utility.yul\":19281:19283   */\n      0x40\n        /* \"#utility.yul\":19276:19279   */\n      dup3\n        /* \"#utility.yul\":19272:19284   */\n      add\n        /* \"#utility.yul\":19265:19284   */\n      swap1\n      pop\n        /* \"#utility.yul\":18924:19290   */\n      swap2\n      swap1\n      pop\n      jump\t// out\n        /* \"#utility.yul\":19296:19404   */\n    tag_586:\n        /* \"#utility.yul\":19373:19397   */\n      tag_752\n        /* \"#utility.yul\":19391:19396   */\n      dup2\n        /* \"#utility.yul\":19373:19397   */\n      tag_753\n      jump\t// in\n    tag_752:\n        /* \"#utility.yul\":19368:19371   */\n      dup3\n        /* \"#utility.yul\":19361:19398   */\n      mstore\n        /* \"#utility.yul\":19296:19404   */\n      pop\n      pop\n      jump\t// out\n        /* \"#utility.yul\":19410:19528   */\n    tag_754:\n        /* \"#utility.yul\":19497:19521   */\n      tag_756\n        /* \"#utility.yul\":19515:19520   */\n      dup2\n        /* \"#utility.yul\":19497:19521   */\n      tag_753\n      jump\t// in\n    tag_756:\n        /* \"#utility.yul\":19492:19495   */\n      dup3\n        /* \"#utility.yul\":19485:19522   */\n      mstore\n        /* \"#utility.yul\":19410:19528   */\n      pop\n      pop\n      jump\t// out\n        /* \"#utility.yul\":19534:20501   */\n    tag_420:\n        /* \"#utility.yul\":19916:19919   */\n      0x00\n        /* \"#utility.yul\":19938:20086   */\n      tag_758\n        /* \"#utility.yul\":20082:20085   */\n      dup3\n        /* \"#utility.yul\":19938:20086   */\n      tag_731\n      jump\t// in\n    tag_758:\n        /* \"#utility.yul\":19931:20086   */\n      swap2\n      pop\n        /* \"#utility.yul\":20103:20198   */\n      tag_759\n        /* \"#utility.yul\":20194:20197   */\n      dup3\n        /* \"#utility.yul\":20185:20191   */\n      dup6\n        /* \"#utility.yul\":20103:20198   */\n      tag_670\n      jump\t// in\n    tag_759:\n        /* \"#utility.yul\":20096:20198   */\n      swap2\n      pop\n        /* \"#utility.yul\":20215:20363   */\n      tag_760\n        /* \"#utility.yul\":20359:20362   */\n      dup3\n        /* \"#utility.yul\":20215:20363   */\n      tag_741\n      jump\t// in\n    tag_760:\n        /* \"#utility.yul\":20208:20363   */\n      swap2\n      pop\n        /* \"#utility.yul\":20380:20475   */\n      tag_761\n        /* \"#utility.yul\":20471:20474   */\n      dup3\n        /* \"#utility.yul\":20462:20468   */\n      dup5\n        /* \"#utility.yul\":20380:20475   */\n      tag_670\n      jump\t// in\n    tag_761:\n        /* \"#utility.yul\":20373:20475   */\n      swap2\n      pop\n        /* \"#utility.yul\":20492:20495   */\n      dup2\n        /* \"#utility.yul\":20485:20495   */\n      swap1\n      pop\n        /* \"#utility.yul\":19534:20501   */\n      swap4\n      swap3\n      pop\n      pop\n      pop\n      jump\t// out\n        /* \"#utility.yul\":20507:20729   */\n    tag_116:\n        /* \"#utility.yul\":20600:20604   */\n      0x00\n        /* \"#utility.yul\":20638:20640   */\n      0x20\n        /* \"#utility.yul\":20627:20636   */\n      dup3\n        /* \"#utility.yul\":20623:20641   */\n      add\n        /* \"#utility.yul\":20615:20641   */\n      swap1\n      pop\n        /* \"#utility.yul\":20651:20722   */\n      tag_763\n        /* \"#utility.yul\":20719:20720   */\n      0x00\n        /* \"#utility.yul\":20708:20717   */\n      dup4\n        /* \"#utility.yul\":20704:20721   */\n      add\n        /* \"#utility.yul\":20695:20701   */\n      dup5\n        /* \"#utility.yul\":20651:20722   */\n      tag_587\n      jump\t// in\n    tag_763:\n        /* \"#utility.yul\":20507:20729   */\n      swap3\n      swap2\n      pop\n      pop\n      jump\t// out\n        /* \"#utility.yul\":20735:21524   */\n    tag_145:\n        /* \"#utility.yul\":20977:20981   */\n      0x00\n        /* \"#utility.yul\":21015:21018   */\n      0xa0\n        /* \"#utility.yul\":21004:21013   */\n      dup3\n        /* \"#utility.yul\":21000:21019   */\n      add\n        /* \"#utility.yul\":20992:21019   */\n      swap1\n      pop\n        /* \"#utility.yul\":21029:21100   */\n      tag_765\n        /* \"#utility.yul\":21097:21098   */\n      0x00\n        /* \"#utility.yul\":21086:21095   */\n      dup4\n        /* \"#utility.yul\":21082:21099   */\n      add\n        /* \"#utility.yul\":21073:21079   */\n      dup9\n        /* \"#utility.yul\":21029:21100   */\n      tag_587\n      jump\t// in\n    tag_765:\n        /* \"#utility.yul\":21110:21199   */\n      tag_766\n        /* \"#utility.yul\":21195:21197   */\n      0x20\n        /* \"#utility.yul\":21184:21193   */\n      dup4\n        /* \"#utility.yul\":21180:21198   */\n      add\n        /* \"#utility.yul\":21171:21177   */\n      dup8\n        /* \"#utility.yul\":21110:21199   */\n      tag_640\n      jump\t// in\n    tag_766:\n        /* \"#utility.yul\":21246:21255   */\n      dup2\n        /* \"#utility.yul\":21240:21244   */\n      dup2\n        /* \"#utility.yul\":21236:21256   */\n      sub\n        /* \"#utility.yul\":21231:21233   */\n      0x40\n        /* \"#utility.yul\":21220:21229   */\n      dup4\n        /* \"#utility.yul\":21216:21234   */\n      add\n        /* \"#utility.yul\":21209:21257   */\n      mstore\n        /* \"#utility.yul\":21274:21352   */\n      tag_767\n        /* \"#utility.yul\":21347:21351   */\n      dup2\n        /* \"#utility.yul\":21338:21344   */\n      dup7\n        /* \"#utility.yul\":21274:21352   */\n      tag_664\n      jump\t// in\n    tag_767:\n        /* \"#utility.yul\":21266:21352   */\n      swap1\n      pop\n        /* \"#utility.yul\":21362:21434   */\n      tag_768\n        /* \"#utility.yul\":21430:21432   */\n      0x60\n        /* \"#utility.yul\":21419:21428   */\n      dup4\n        /* \"#utility.yul\":21415:21433   */\n      add\n        /* \"#utility.yul\":21406:21412   */\n      dup6\n        /* \"#utility.yul\":21362:21434   */\n      tag_754\n      jump\t// in\n    tag_768:\n        /* \"#utility.yul\":21444:21517   */\n      tag_769\n        /* \"#utility.yul\":21512:21515   */\n      0x80\n        /* \"#utility.yul\":21501:21510   */\n      dup4\n        /* \"#utility.yul\":21497:21516   */\n      add\n        /* \"#utility.yul\":21488:21494   */\n      dup5\n        /* \"#utility.yul\":21444:21517   */\n      tag_754\n      jump\t// in\n    tag_769:\n        /* \"#utility.yul\":20735:21524   */\n      swap7\n      swap6\n      pop\n      pop\n      pop\n      pop\n      pop\n      pop\n      jump\t// out\n        /* \"#utility.yul\":21530:22409   */\n    tag_288:\n        /* \"#utility.yul\":21819:21823   */\n      0x00\n        /* \"#utility.yul\":21857:21860   */\n      0x80\n        /* \"#utility.yul\":21846:21855   */\n      dup3\n        /* \"#utility.yul\":21842:21861   */\n      add\n        /* \"#utility.yul\":21834:21861   */\n      swap1\n      pop\n        /* \"#utility.yul\":21871:21942   */\n      tag_771\n        /* \"#utility.yul\":21939:21940   */\n      0x00\n        /* \"#utility.yul\":21928:21937   */\n      dup4\n        /* \"#utility.yul\":21924:21941   */\n      add\n        /* \"#utility.yul\":21915:21921   */\n      dup10\n        /* \"#utility.yul\":21871:21942   */\n      tag_587\n      jump\t// in\n    tag_771:\n        /* \"#utility.yul\":21989:21998   */\n      dup2\n        /* \"#utility.yul\":21983:21987   */\n      dup2\n        /* \"#utility.yul\":21979:21999   */\n      sub\n        /* \"#utility.yul\":21974:21976   */\n      0x20\n        /* \"#utility.yul\":21963:21972   */\n      dup4\n        /* \"#utility.yul\":21959:21977   */\n      add\n        /* \"#utility.yul\":21952:22000   */\n      mstore\n        /* \"#utility.yul\":22017:22105   */\n      tag_772\n        /* \"#utility.yul\":22100:22104   */\n      dup2\n        /* \"#utility.yul\":22091:22097   */\n      dup8\n        /* \"#utility.yul\":22083:22089   */\n      dup10\n        /* \"#utility.yul\":22017:22105   */\n      tag_651\n      jump\t// in\n    tag_772:\n        /* \"#utility.yul\":22009:22105   */\n      swap1\n      pop\n        /* \"#utility.yul\":22152:22161   */\n      dup2\n        /* \"#utility.yul\":22146:22150   */\n      dup2\n        /* \"#utility.yul\":22142:22162   */\n      sub\n        /* \"#utility.yul\":22137:22139   */\n      0x40\n        /* \"#utility.yul\":22126:22135   */\n      dup4\n        /* \"#utility.yul\":22122:22140   */\n      add\n        /* \"#utility.yul\":22115:22163   */\n      mstore\n        /* \"#utility.yul\":22180:22320   */\n      tag_773\n        /* \"#utility.yul\":22315:22319   */\n      dup2\n        /* \"#utility.yul\":22306:22312   */\n      dup6\n        /* \"#utility.yul\":22298:22304   */\n      dup8\n        /* \"#utility.yul\":22180:22320   */\n      tag_591\n      jump\t// in\n    tag_773:\n        /* \"#utility.yul\":22172:22320   */\n      swap1\n      pop\n        /* \"#utility.yul\":22330:22402   */\n      tag_774\n        /* \"#utility.yul\":22398:22400   */\n      0x60\n        /* \"#utility.yul\":22387:22396   */\n      dup4\n        /* \"#utility.yul\":22383:22401   */\n      add\n        /* \"#utility.yul\":22374:22380   */\n      dup5\n        /* \"#utility.yul\":22330:22402   */\n      tag_754\n      jump\t// in\n    tag_774:\n        /* \"#utility.yul\":21530:22409   */\n      swap8\n      swap7\n      pop\n      pop\n      pop\n      pop\n      pop\n      pop\n      pop\n      jump\t// out\n        /* \"#utility.yul\":22415:23008   */\n    tag_253:\n        /* \"#utility.yul\":22614:22618   */\n      0x00\n        /* \"#utility.yul\":22652:22654   */\n      0x60\n        /* \"#utility.yul\":22641:22650   */\n      dup3\n        /* \"#utility.yul\":22637:22655   */\n      add\n        /* \"#utility.yul\":22629:22655   */\n      swap1\n      pop\n        /* \"#utility.yul\":22665:22736   */\n      tag_776\n        /* \"#utility.yul\":22733:22734   */\n      0x00\n        /* \"#utility.yul\":22722:22731   */\n      dup4\n        /* \"#utility.yul\":22718:22735   */\n      add\n        /* \"#utility.yul\":22709:22715   */\n      dup7\n        /* \"#utility.yul\":22665:22736   */\n      tag_587\n      jump\t// in\n    tag_776:\n        /* \"#utility.yul\":22746:22818   */\n      tag_777\n        /* \"#utility.yul\":22814:22816   */\n      0x20\n        /* \"#utility.yul\":22803:22812   */\n      dup4\n        /* \"#utility.yul\":22799:22817   */\n      add\n        /* \"#utility.yul\":22790:22796   */\n      dup6\n        /* \"#utility.yul\":22746:22818   */\n      tag_754\n      jump\t// in\n    tag_777:\n        /* \"#utility.yul\":22865:22874   */\n      dup2\n        /* \"#utility.yul\":22859:22863   */\n      dup2\n        /* \"#utility.yul\":22855:22875   */\n      sub\n        /* \"#utility.yul\":22850:22852   */\n      0x40\n        /* \"#utility.yul\":22839:22848   */\n      dup4\n        /* \"#utility.yul\":22835:22853   */\n      add\n        /* \"#utility.yul\":22828:22876   */\n      mstore\n        /* \"#utility.yul\":22893:23001   */\n      tag_778\n        /* \"#utility.yul\":22996:23000   */\n      dup2\n        /* \"#utility.yul\":22987:22993   */\n      dup5\n        /* \"#utility.yul\":22893:23001   */\n      tag_618\n      jump\t// in\n    tag_778:\n        /* \"#utility.yul\":22885:23001   */\n      swap1\n      pop\n        /* \"#utility.yul\":22415:23008   */\n      swap5\n      swap4\n      pop\n      pop\n      pop\n      pop\n      jump\t// out\n        /* \"#utility.yul\":23014:23224   */\n    tag_43:\n        /* \"#utility.yul\":23101:23105   */\n      0x00\n        /* \"#utility.yul\":23139:23141   */\n      0x20\n        /* \"#utility.yul\":23128:23137   */\n      dup3\n        /* \"#utility.yul\":23124:23142   */\n      add\n        /* \"#utility.yul\":23116:23142   */\n      swap1\n      pop\n        /* \"#utility.yul\":23152:23217   */\n      tag_780\n        /* \"#utility.yul\":23214:23215   */\n      0x00\n        /* \"#utility.yul\":23203:23212   */\n      dup4\n        /* \"#utility.yul\":23199:23216   */\n      add\n        /* \"#utility.yul\":23190:23196   */\n      dup5\n        /* \"#utility.yul\":23152:23217   */\n      tag_632\n      jump\t// in\n    tag_780:\n        /* \"#utility.yul\":23014:23224   */\n      swap3\n      swap2\n      pop\n      pop\n      jump\t// out\n        /* \"#utility.yul\":23230:23452   */\n    tag_65:\n        /* \"#utility.yul\":23323:23327   */\n      0x00\n        /* \"#utility.yul\":23361:23363   */\n      0x20\n        /* \"#utility.yul\":23350:23359   */\n      dup3\n        /* \"#utility.yul\":23346:23364   */\n      add\n        /* \"#utility.yul\":23338:23364   */\n      swap1\n      pop\n        /* \"#utility.yul\":23374:23445   */\n      tag_782\n        /* \"#utility.yul\":23442:23443   */\n      0x00\n        /* \"#utility.yul\":23431:23440   */\n      dup4\n        /* \"#utility.yul\":23427:23444   */\n      add\n        /* \"#utility.yul\":23418:23424   */\n      dup5\n        /* \"#utility.yul\":23374:23445   */\n      tag_636\n      jump\t// in\n    tag_782:\n        /* \"#utility.yul\":23230:23452   */\n      swap3\n      swap2\n      pop\n      pop\n      jump\t// out\n        /* \"#utility.yul\":23458:23714   */\n    tag_89:\n        /* \"#utility.yul\":23568:23572   */\n      0x00\n        /* \"#utility.yul\":23606:23608   */\n      0x20\n        /* \"#utility.yul\":23595:23604   */\n      dup3\n        /* \"#utility.yul\":23591:23609   */\n      add\n        /* \"#utility.yul\":23583:23609   */\n      swap1\n      pop\n        /* \"#utility.yul\":23619:23707   */\n      tag_784\n        /* \"#utility.yul\":23704:23705   */\n      0x00\n        /* \"#utility.yul\":23693:23702   */\n      dup4\n        /* \"#utility.yul\":23689:23706   */\n      add\n        /* \"#utility.yul\":23680:23686   */\n      dup5\n        /* \"#utility.yul\":23619:23707   */\n      tag_640\n      jump\t// in\n    tag_784:\n        /* \"#utility.yul\":23458:23714   */\n      swap3\n      swap2\n      pop\n      pop\n      jump\t// out\n        /* \"#utility.yul\":23720:24033   */\n    tag_47:\n        /* \"#utility.yul\":23833:23837   */\n      0x00\n        /* \"#utility.yul\":23871:23873   */\n      0x20\n        /* \"#utility.yul\":23860:23869   */\n      dup3\n        /* \"#utility.yul\":23856:23874   */\n      add\n        /* \"#utility.yul\":23848:23874   */\n      swap1\n      pop\n        /* \"#utility.yul\":23920:23929   */\n      dup2\n        /* \"#utility.yul\":23914:23918   */\n      dup2\n        /* \"#utility.yul\":23910:23930   */\n      sub\n        /* \"#utility.yul\":23906:23907   */\n      0x00\n        /* \"#utility.yul\":23895:23904   */\n      dup4\n        /* \"#utility.yul\":23891:23908   */\n      add\n        /* \"#utility.yul\":23884:23931   */\n      mstore\n        /* \"#utility.yul\":23948:24026   */\n      tag_786\n        /* \"#utility.yul\":24021:24025   */\n      dup2\n        /* \"#utility.yul\":24012:24018   */\n      dup5\n        /* \"#utility.yul\":23948:24026   */\n      tag_664\n      jump\t// in\n    tag_786:\n        /* \"#utility.yul\":23940:24026   */\n      swap1\n      pop\n        /* \"#utility.yul\":23720:24033   */\n      swap3\n      swap2\n      pop\n      pop\n      jump\t// out\n        /* \"#utility.yul\":24039:24908   */\n    tag_134:\n        /* \"#utility.yul\":24323:24327   */\n      0x00\n        /* \"#utility.yul\":24361:24364   */\n      0x80\n        /* \"#utility.yul\":24350:24359   */\n      dup3\n        /* \"#utility.yul\":24346:24365   */\n      add\n        /* \"#utility.yul\":24338:24365   */\n      swap1\n      pop\n        /* \"#utility.yul\":24411:24420   */\n      dup2\n        /* \"#utility.yul\":24405:24409   */\n      dup2\n        /* \"#utility.yul\":24401:24421   */\n      sub\n        /* \"#utility.yul\":24397:24398   */\n      0x00\n        /* \"#utility.yul\":24386:24395   */\n      dup4\n        /* \"#utility.yul\":24382:24399   */\n      add\n        /* \"#utility.yul\":24375:24422   */\n      mstore\n        /* \"#utility.yul\":24439:24517   */\n      tag_788\n        /* \"#utility.yul\":24512:24516   */\n      dup2\n        /* \"#utility.yul\":24503:24509   */\n      dup8\n        /* \"#utility.yul\":24439:24517   */\n      tag_664\n      jump\t// in\n    tag_788:\n        /* \"#utility.yul\":24431:24517   */\n      swap1\n      pop\n        /* \"#utility.yul\":24564:24573   */\n      dup2\n        /* \"#utility.yul\":24558:24562   */\n      dup2\n        /* \"#utility.yul\":24554:24574   */\n      sub\n        /* \"#utility.yul\":24549:24551   */\n      0x20\n        /* \"#utility.yul\":24538:24547   */\n      dup4\n        /* \"#utility.yul\":24534:24552   */\n      add\n        /* \"#utility.yul\":24527:24575   */\n      mstore\n        /* \"#utility.yul\":24592:24720   */\n      tag_789\n        /* \"#utility.yul\":24715:24719   */\n      dup2\n        /* \"#utility.yul\":24706:24712   */\n      dup7\n        /* \"#utility.yul\":24592:24720   */\n      tag_605\n      jump\t// in\n    tag_789:\n        /* \"#utility.yul\":24584:24720   */\n      swap1\n      pop\n        /* \"#utility.yul\":24730:24802   */\n      tag_790\n        /* \"#utility.yul\":24798:24800   */\n      0x40\n        /* \"#utility.yul\":24787:24796   */\n      dup4\n        /* \"#utility.yul\":24783:24801   */\n      add\n        /* \"#utility.yul\":24774:24780   */\n      dup6\n        /* \"#utility.yul\":24730:24802   */\n      tag_754\n      jump\t// in\n    tag_790:\n        /* \"#utility.yul\":24812:24901   */\n      tag_791\n        /* \"#utility.yul\":24897:24899   */\n      0x60\n        /* \"#utility.yul\":24886:24895   */\n      dup4\n        /* \"#utility.yul\":24882:24900   */\n      add\n        /* \"#utility.yul\":24873:24879   */\n      dup5\n        /* \"#utility.yul\":24812:24901   */\n      tag_640\n      jump\t// in\n    tag_791:\n        /* \"#utility.yul\":24039:24908   */\n      swap6\n      swap5\n      pop\n      pop\n      pop\n      pop\n      pop\n      jump\t// out\n        /* \"#utility.yul\":24914:25333   */\n    tag_445:\n        /* \"#utility.yul\":25080:25084   */\n      0x00\n        /* \"#utility.yul\":25118:25120   */\n      0x20\n        /* \"#utility.yul\":25107:25116   */\n      dup3\n        /* \"#utility.yul\":25103:25121   */\n      add\n        /* \"#utility.yul\":25095:25121   */\n      swap1\n      pop\n        /* \"#utility.yul\":25167:25176   */\n      dup2\n        /* \"#utility.yul\":25161:25165   */\n      dup2\n        /* \"#utility.yul\":25157:25177   */\n      sub\n        /* \"#utility.yul\":25153:25154   */\n      0x00\n        /* \"#utility.yul\":25142:25151   */\n      dup4\n        /* \"#utility.yul\":25138:25155   */\n      add\n        /* \"#utility.yul\":25131:25178   */\n      mstore\n        /* \"#utility.yul\":25195:25326   */\n      tag_793\n        /* \"#utility.yul\":25321:25325   */\n      dup2\n        /* \"#utility.yul\":25195:25326   */\n      tag_676\n      jump\t// in\n    tag_793:\n        /* \"#utility.yul\":25187:25326   */\n      swap1\n      pop\n        /* \"#utility.yul\":24914:25333   */\n      swap2\n      swap1\n      pop\n      jump\t// out\n        /* \"#utility.yul\":25339:25758   */\n    tag_386:\n        /* \"#utility.yul\":25505:25509   */\n      0x00\n        /* \"#utility.yul\":25543:25545   */\n      0x20\n        /* \"#utility.yul\":25532:25541   */\n      dup3\n        /* \"#utility.yul\":25528:25546   */\n      add\n        /* \"#utility.yul\":25520:25546   */\n      swap1\n      pop\n        /* \"#utility.yul\":25592:25601   */\n      dup2\n        /* \"#utility.yul\":25586:25590   */\n      dup2\n        /* \"#utility.yul\":25582:25602   */\n      sub\n        /* \"#utility.yul\":25578:25579   */\n      0x00\n        /* \"#utility.yul\":25567:25576   */\n      dup4\n        /* \"#utility.yul\":25563:25580   */\n      add\n        /* \"#utility.yul\":25556:25603   */\n      mstore\n        /* \"#utility.yul\":25620:25751   */\n      tag_795\n        /* \"#utility.yul\":25746:25750   */\n      dup2\n        /* \"#utility.yul\":25620:25751   */\n      tag_681\n      jump\t// in\n    tag_795:\n        /* \"#utility.yul\":25612:25751   */\n      swap1\n      pop\n        /* \"#utility.yul\":25339:25758   */\n      swap2\n      swap1\n      pop\n      jump\t// out\n        /* \"#utility.yul\":25764:26183   */\n    tag_316:\n        /* \"#utility.yul\":25930:25934   */\n      0x00\n        /* \"#utility.yul\":25968:25970   */\n      0x20\n        /* \"#utility.yul\":25957:25966   */\n      dup3\n        /* \"#utility.yul\":25953:25971   */\n      add\n        /* \"#utility.yul\":25945:25971   */\n      swap1\n      pop\n        /* \"#utility.yul\":26017:26026   */\n      dup2\n        /* \"#utility.yul\":26011:26015   */\n      dup2\n        /* \"#utility.yul\":26007:26027   */\n      sub\n        /* \"#utility.yul\":26003:26004   */\n      0x00\n        /* \"#utility.yul\":25992:26001   */\n      dup4\n        /* \"#utility.yul\":25988:26005   */\n      add\n        /* \"#utility.yul\":25981:26028   */\n      mstore\n        /* \"#utility.yul\":26045:26176   */\n      tag_797\n        /* \"#utility.yul\":26171:26175   */\n      dup2\n        /* \"#utility.yul\":26045:26176   */\n      tag_686\n      jump\t// in\n    tag_797:\n        /* \"#utility.yul\":26037:26176   */\n      swap1\n      pop\n        /* \"#utility.yul\":25764:26183   */\n      swap2\n      swap1\n      pop\n      jump\t// out\n        /* \"#utility.yul\":26189:26608   */\n    tag_180:\n        /* \"#utility.yul\":26355:26359   */\n      0x00\n        /* \"#utility.yul\":26393:26395   */\n      0x20\n        /* \"#utility.yul\":26382:26391   */\n      dup3\n        /* \"#utility.yul\":26378:26396   */\n      add\n        /* \"#utility.yul\":26370:26396   */\n      swap1\n      pop\n        /* \"#utility.yul\":26442:26451   */\n      dup2\n        /* \"#utility.yul\":26436:26440   */\n      dup2\n        /* \"#utility.yul\":26432:26452   */\n      sub\n        /* \"#utility.yul\":26428:26429   */\n      0x00\n        /* \"#utility.yul\":26417:26426   */\n      dup4\n        /* \"#utility.yul\":26413:26430   */\n      add\n        /* \"#utility.yul\":26406:26453   */\n      mstore\n        /* \"#utility.yul\":26470:26601   */\n      tag_799\n        /* \"#utility.yul\":26596:26600   */\n      dup2\n        /* \"#utility.yul\":26470:26601   */\n      tag_691\n      jump\t// in\n    tag_799:\n        /* \"#utility.yul\":26462:26601   */\n      swap1\n      pop\n        /* \"#utility.yul\":26189:26608   */\n      swap2\n      swap1\n      pop\n      jump\t// out\n        /* \"#utility.yul\":26614:27033   */\n    tag_267:\n        /* \"#utility.yul\":26780:26784   */\n      0x00\n        /* \"#utility.yul\":26818:26820   */\n      0x20\n        /* \"#utility.yul\":26807:26816   */\n      dup3\n        /* \"#utility.yul\":26803:26821   */\n      add\n        /* \"#utility.yul\":26795:26821   */\n      swap1\n      pop\n        /* \"#utility.yul\":26867:26876   */\n      dup2\n        /* \"#utility.yul\":26861:26865   */\n      dup2\n        /* \"#utility.yul\":26857:26877   */\n      sub\n        /* \"#utility.yul\":26853:26854   */\n      0x00\n        /* \"#utility.yul\":26842:26851   */\n      dup4\n        /* \"#utility.yul\":26838:26855   */\n      add\n        /* \"#utility.yul\":26831:26878   */\n      mstore\n        /* \"#utility.yul\":26895:27026   */\n      tag_801\n        /* \"#utility.yul\":27021:27025   */\n      dup2\n        /* \"#utility.yul\":26895:27026   */\n      tag_696\n      jump\t// in\n    tag_801:\n        /* \"#utility.yul\":26887:27026   */\n      swap1\n      pop\n        /* \"#utility.yul\":26614:27033   */\n      swap2\n      swap1\n      pop\n      jump\t// out\n        /* \"#utility.yul\":27039:27458   */\n    tag_299:\n        /* \"#utility.yul\":27205:27209   */\n      0x00\n        /* \"#utility.yul\":27243:27245   */\n      0x20\n        /* \"#utility.yul\":27232:27241   */\n      dup3\n        /* \"#utility.yul\":27228:27246   */\n      add\n        /* \"#utility.yul\":27220:27246   */\n      swap1\n      pop\n        /* \"#utility.yul\":27292:27301   */\n      dup2\n        /* \"#utility.yul\":27286:27290   */\n      dup2\n        /* \"#utility.yul\":27282:27302   */\n      sub\n        /* \"#utility.yul\":27278:27279   */\n      0x00\n        /* \"#utility.yul\":27267:27276   */\n      dup4\n        /* \"#utility.yul\":27263:27280   */\n      add\n        /* \"#utility.yul\":27256:27303   */\n      mstore\n        /* \"#utility.yul\":27320:27451   */\n      tag_803\n        /* \"#utility.yul\":27446:27450   */\n      dup2\n        /* \"#utility.yul\":27320:27451   */\n      tag_701\n      jump\t// in\n    tag_803:\n        /* \"#utility.yul\":27312:27451   */\n      swap1\n      pop\n        /* \"#utility.yul\":27039:27458   */\n      swap2\n      swap1\n      pop\n      jump\t// out\n        /* \"#utility.yul\":27464:27883   */\n    tag_394:\n        /* \"#utility.yul\":27630:27634   */\n      0x00\n        /* \"#utility.yul\":27668:27670   */\n      0x20\n        /* \"#utility.yul\":27657:27666   */\n      dup3\n        /* \"#utility.yul\":27653:27671   */\n      add\n        /* \"#utility.yul\":27645:27671   */\n      swap1\n      pop\n        /* \"#utility.yul\":27717:27726   */\n      dup2\n        /* \"#utility.yul\":27711:27715   */\n      dup2\n        /* \"#utility.yul\":27707:27727   */\n      sub\n        /* \"#utility.yul\":27703:27704   */\n      0x00\n        /* \"#utility.yul\":27692:27701   */\n      dup4\n        /* \"#utility.yul\":27688:27705   */\n      add\n        /* \"#utility.yul\":27681:27728   */\n      mstore\n        /* \"#utility.yul\":27745:27876   */\n      tag_805\n        /* \"#utility.yul\":27871:27875   */\n      dup2\n        /* \"#utility.yul\":27745:27876   */\n      tag_706\n      jump\t// in\n    tag_805:\n        /* \"#utility.yul\":27737:27876   */\n      swap1\n      pop\n        /* \"#utility.yul\":27464:27883   */\n      swap2\n      swap1\n      pop\n      jump\t// out\n        /* \"#utility.yul\":27889:28308   */\n    tag_196:\n        /* \"#utility.yul\":28055:28059   */\n      0x00\n        /* \"#utility.yul\":28093:28095   */\n      0x20\n        /* \"#utility.yul\":28082:28091   */\n      dup3\n        /* \"#utility.yul\":28078:28096   */\n      add\n        /* \"#utility.yul\":28070:28096   */\n      swap1\n      pop\n        /* \"#utility.yul\":28142:28151   */\n      dup2\n        /* \"#utility.yul\":28136:28140   */\n      dup2\n        /* \"#utility.yul\":28132:28152   */\n      sub\n        /* \"#utility.yul\":28128:28129   */\n      0x00\n        /* \"#utility.yul\":28117:28126   */\n      dup4\n        /* \"#utility.yul\":28113:28130   */\n      add\n        /* \"#utility.yul\":28106:28153   */\n      mstore\n        /* \"#utility.yul\":28170:28301   */\n      tag_807\n        /* \"#utility.yul\":28296:28300   */\n      dup2\n        /* \"#utility.yul\":28170:28301   */\n      tag_711\n      jump\t// in\n    tag_807:\n        /* \"#utility.yul\":28162:28301   */\n      swap1\n      pop\n        /* \"#utility.yul\":27889:28308   */\n      swap2\n      swap1\n      pop\n      jump\t// out\n        /* \"#utility.yul\":28314:28733   */\n    tag_226:\n        /* \"#utility.yul\":28480:28484   */\n      0x00\n        /* \"#utility.yul\":28518:28520   */\n      0x20\n        /* \"#utility.yul\":28507:28516   */\n      dup3\n        /* \"#utility.yul\":28503:28521   */\n      add\n        /* \"#utility.yul\":28495:28521   */\n      swap1\n      pop\n        /* \"#utility.yul\":28567:28576   */\n      dup2\n        /* \"#utility.yul\":28561:28565   */\n      dup2\n        /* \"#utility.yul\":28557:28577   */\n      sub\n        /* \"#utility.yul\":28553:28554   */\n      0x00\n        /* \"#utility.yul\":28542:28551   */\n      dup4\n        /* \"#utility.yul\":28538:28555   */\n      add\n        /* \"#utility.yul\":28531:28578   */\n      mstore\n        /* \"#utility.yul\":28595:28726   */\n      tag_809\n        /* \"#utility.yul\":28721:28725   */\n      dup2\n        /* \"#utility.yul\":28595:28726   */\n      tag_716\n      jump\t// in\n    tag_809:\n        /* \"#utility.yul\":28587:28726   */\n      swap1\n      pop\n        /* \"#utility.yul\":28314:28733   */\n      swap2\n      swap1\n      pop\n      jump\t// out\n        /* \"#utility.yul\":28739:29158   */\n    tag_218:\n        /* \"#utility.yul\":28905:28909   */\n      0x00\n        /* \"#utility.yul\":28943:28945   */\n      0x20\n        /* \"#utility.yul\":28932:28941   */\n      dup3\n        /* \"#utility.yul\":28928:28946   */\n      add\n        /* \"#utility.yul\":28920:28946   */\n      swap1\n      pop\n        /* \"#utility.yul\":28992:29001   */\n      dup2\n        /* \"#utility.yul\":28986:28990   */\n      dup2\n        /* \"#utility.yul\":28982:29002   */\n      sub\n        /* \"#utility.yul\":28978:28979   */\n      0x00\n        /* \"#utility.yul\":28967:28976   */\n      dup4\n        /* \"#utility.yul\":28963:28980   */\n      add\n        /* \"#utility.yul\":28956:29003   */\n      mstore\n        /* \"#utility.yul\":29020:29151   */\n      tag_811\n        /* \"#utility.yul\":29146:29150   */\n      dup2\n        /* \"#utility.yul\":29020:29151   */\n      tag_721\n      jump\t// in\n    tag_811:\n        /* \"#utility.yul\":29012:29151   */\n      swap1\n      pop\n        /* \"#utility.yul\":28739:29158   */\n      swap2\n      swap1\n      pop\n      jump\t// out\n        /* \"#utility.yul\":29164:29583   */\n    tag_192:\n        /* \"#utility.yul\":29330:29334   */\n      0x00\n        /* \"#utility.yul\":29368:29370   */\n      0x20\n        /* \"#utility.yul\":29357:29366   */\n      dup3\n        /* \"#utility.yul\":29353:29371   */\n      add\n        /* \"#utility.yul\":29345:29371   */\n      swap1\n      pop\n        /* \"#utility.yul\":29417:29426   */\n      dup2\n        /* \"#utility.yul\":29411:29415   */\n      dup2\n        /* \"#utility.yul\":29407:29427   */\n      sub\n        /* \"#utility.yul\":29403:29404   */\n      0x00\n        /* \"#utility.yul\":29392:29401   */\n      dup4\n        /* \"#utility.yul\":29388:29405   */\n      add\n        /* \"#utility.yul\":29381:29428   */\n      mstore\n        /* \"#utility.yul\":29445:29576   */\n      tag_813\n        /* \"#utility.yul\":29571:29575   */\n      dup2\n        /* \"#utility.yul\":29445:29576   */\n      tag_726\n      jump\t// in\n    tag_813:\n        /* \"#utility.yul\":29437:29576   */\n      swap1\n      pop\n        /* \"#utility.yul\":29164:29583   */\n      swap2\n      swap1\n      pop\n      jump\t// out\n        /* \"#utility.yul\":29589:30008   */\n    tag_222:\n        /* \"#utility.yul\":29755:29759   */\n      0x00\n        /* \"#utility.yul\":29793:29795   */\n      0x20\n        /* \"#utility.yul\":29782:29791   */\n      dup3\n        /* \"#utility.yul\":29778:29796   */\n      add\n        /* \"#utility.yul\":29770:29796   */\n      swap1\n      pop\n        /* \"#utility.yul\":29842:29851   */\n      dup2\n        /* \"#utility.yul\":29836:29840   */\n      dup2\n        /* \"#utility.yul\":29832:29852   */\n      sub\n        /* \"#utility.yul\":29828:29829   */\n      0x00\n        /* \"#utility.yul\":29817:29826   */\n      dup4\n        /* \"#utility.yul\":29813:29830   */\n      add\n        /* \"#utility.yul\":29806:29853   */\n      mstore\n        /* \"#utility.yul\":29870:30001   */\n      tag_815\n        /* \"#utility.yul\":29996:30000   */\n      dup2\n        /* \"#utility.yul\":29870:30001   */\n      tag_736\n      jump\t// in\n    tag_815:\n        /* \"#utility.yul\":29862:30001   */\n      swap1\n      pop\n        /* \"#utility.yul\":29589:30008   */\n      swap2\n      swap1\n      pop\n      jump\t// out\n        /* \"#utility.yul\":30014:30433   */\n    tag_259:\n        /* \"#utility.yul\":30180:30184   */\n      0x00\n        /* \"#utility.yul\":30218:30220   */\n      0x20\n        /* \"#utility.yul\":30207:30216   */\n      dup3\n        /* \"#utility.yul\":30203:30221   */\n      add\n        /* \"#utility.yul\":30195:30221   */\n      swap1\n      pop\n        /* \"#utility.yul\":30267:30276   */\n      dup2\n        /* \"#utility.yul\":30261:30265   */\n      dup2\n        /* \"#utility.yul\":30257:30277   */\n      sub\n        /* \"#utility.yul\":30253:30254   */\n      0x00\n        /* \"#utility.yul\":30242:30251   */\n      dup4\n        /* \"#utility.yul\":30238:30255   */\n      add\n        /* \"#utility.yul\":30231:30278   */\n      mstore\n        /* \"#utility.yul\":30295:30426   */\n      tag_817\n        /* \"#utility.yul\":30421:30425   */\n      dup2\n        /* \"#utility.yul\":30295:30426   */\n      tag_746\n      jump\t// in\n    tag_817:\n        /* \"#utility.yul\":30287:30426   */\n      swap1\n      pop\n        /* \"#utility.yul\":30014:30433   */\n      swap2\n      swap1\n      pop\n      jump\t// out\n        /* \"#utility.yul\":30439:30661   */\n    tag_53:\n        /* \"#utility.yul\":30532:30536   */\n      0x00\n        /* \"#utility.yul\":30570:30572   */\n      0x20\n        /* \"#utility.yul\":30559:30568   */\n      dup3\n        /* \"#utility.yul\":30555:30573   */\n      add\n        /* \"#utility.yul\":30547:30573   */\n      swap1\n      pop\n        /* \"#utility.yul\":30583:30654   */\n      tag_819\n        /* \"#utility.yul\":30651:30652   */\n      0x00\n        /* \"#utility.yul\":30640:30649   */\n      dup4\n        /* \"#utility.yul\":30636:30653   */\n      add\n        /* \"#utility.yul\":30627:30633   */\n      dup5\n        /* \"#utility.yul\":30583:30654   */\n      tag_754\n      jump\t// in\n    tag_819:\n        /* \"#utility.yul\":30439:30661   */\n      swap3\n      swap2\n      pop\n      pop\n      jump\t// out\n        /* \"#utility.yul\":30667:31200   */\n    tag_59:\n        /* \"#utility.yul\":30836:30840   */\n      0x00\n        /* \"#utility.yul\":30874:30876   */\n      0x60\n        /* \"#utility.yul\":30863:30872   */\n      dup3\n        /* \"#utility.yul\":30859:30877   */\n      add\n        /* \"#utility.yul\":30851:30877   */\n      swap1\n      pop\n        /* \"#utility.yul\":30887:30958   */\n      tag_821\n        /* \"#utility.yul\":30955:30956   */\n      0x00\n        /* \"#utility.yul\":30944:30953   */\n      dup4\n        /* \"#utility.yul\":30940:30957   */\n      add\n        /* \"#utility.yul\":30931:30937   */\n      dup7\n        /* \"#utility.yul\":30887:30958   */\n      tag_754\n      jump\t// in\n    tag_821:\n        /* \"#utility.yul\":30968:31040   */\n      tag_822\n        /* \"#utility.yul\":31036:31038   */\n      0x20\n        /* \"#utility.yul\":31025:31034   */\n      dup4\n        /* \"#utility.yul\":31021:31039   */\n      add\n        /* \"#utility.yul\":31012:31018   */\n      dup6\n        /* \"#utility.yul\":30968:31040   */\n      tag_754\n      jump\t// in\n    tag_822:\n        /* \"#utility.yul\":31087:31096   */\n      dup2\n        /* \"#utility.yul\":31081:31085   */\n      dup2\n        /* \"#utility.yul\":31077:31097   */\n      sub\n        /* \"#utility.yul\":31072:31074   */\n      0x40\n        /* \"#utility.yul\":31061:31070   */\n      dup4\n        /* \"#utility.yul\":31057:31075   */\n      add\n        /* \"#utility.yul\":31050:31098   */\n      mstore\n        /* \"#utility.yul\":31115:31193   */\n      tag_823\n        /* \"#utility.yul\":31188:31192   */\n      dup2\n        /* \"#utility.yul\":31179:31185   */\n      dup5\n        /* \"#utility.yul\":31115:31193   */\n      tag_664\n      jump\t// in\n    tag_823:\n        /* \"#utility.yul\":31107:31193   */\n      swap1\n      pop\n        /* \"#utility.yul\":30667:31200   */\n      swap5\n      swap4\n      pop\n      pop\n      pop\n      pop\n      jump\t// out\n        /* \"#utility.yul\":31206:31931   */\n    tag_282:\n        /* \"#utility.yul\":31284:31288   */\n      0x00\n        /* \"#utility.yul\":31290:31296   */\n      dup1\n        /* \"#utility.yul\":31346:31357   */\n      dup4\n        /* \"#utility.yul\":31333:31358   */\n      calldataload\n        /* \"#utility.yul\":31446:31447   */\n      0x01\n        /* \"#utility.yul\":31440:31444   */\n      0x20\n        /* \"#utility.yul\":31436:31448   */\n      sub\n        /* \"#utility.yul\":31425:31433   */\n      dup5\n        /* \"#utility.yul\":31409:31423   */\n      calldatasize\n        /* \"#utility.yul\":31405:31434   */\n      sub\n        /* \"#utility.yul\":31401:31449   */\n      sub\n        /* \"#utility.yul\":31381:31399   */\n      dup2\n        /* \"#utility.yul\":31377:31450   */\n      slt\n        /* \"#utility.yul\":31367:31535   */\n      tag_825\n      jumpi\n        /* \"#utility.yul\":31454:31533   */\n      tag_826\n      tag_827\n      jump\t// in\n    tag_826:\n        /* \"#utility.yul\":31367:31535   */\n    tag_825:\n        /* \"#utility.yul\":31566:31584   */\n      dup1\n        /* \"#utility.yul\":31556:31564   */\n      dup5\n        /* \"#utility.yul\":31552:31585   */\n      add\n        /* \"#utility.yul\":31544:31585   */\n      swap3\n      pop\n        /* \"#utility.yul\":31618:31622   */\n      dup3\n        /* \"#utility.yul\":31605:31623   */\n      calldataload\n        /* \"#utility.yul\":31595:31623   */\n      swap2\n      pop\n        /* \"#utility.yul\":31646:31664   */\n      0xffffffffffffffff\n        /* \"#utility.yul\":31638:31644   */\n      dup3\n        /* \"#utility.yul\":31635:31665   */\n      gt\n        /* \"#utility.yul\":31632:31749   */\n      iszero\n      tag_828\n      jumpi\n        /* \"#utility.yul\":31668:31747   */\n      tag_829\n      tag_830\n      jump\t// in\n    tag_829:\n        /* \"#utility.yul\":31632:31749   */\n    tag_828:\n        /* \"#utility.yul\":31776:31778   */\n      0x20\n        /* \"#utility.yul\":31770:31774   */\n      dup4\n        /* \"#utility.yul\":31766:31779   */\n      add\n        /* \"#utility.yul\":31758:31779   */\n      swap3\n      pop\n        /* \"#utility.yul\":31833:31837   */\n      0x01\n        /* \"#utility.yul\":31825:31831   */\n      dup3\n        /* \"#utility.yul\":31821:31838   */\n      mul\n        /* \"#utility.yul\":31805:31819   */\n      calldatasize\n        /* \"#utility.yul\":31801:31839   */\n      sub\n        /* \"#utility.yul\":31795:31799   */\n      dup4\n        /* \"#utility.yul\":31791:31840   */\n      sgt\n        /* \"#utility.yul\":31788:31924   */\n      iszero\n      tag_831\n      jumpi\n        /* \"#utility.yul\":31843:31922   */\n      tag_832\n      tag_833\n      jump\t// in\n    tag_832:\n        /* \"#utility.yul\":31788:31924   */\n    tag_831:\n        /* \"#utility.yul\":31297:31931   */\n      pop\n        /* \"#utility.yul\":31206:31931   */\n      swap3\n      pop\n      swap3\n      swap1\n      pop\n      jump\t// out\n        /* \"#utility.yul\":31937:32066   */\n    tag_473:\n        /* \"#utility.yul\":31971:31977   */\n      0x00\n        /* \"#utility.yul\":31998:32018   */\n      tag_835\n      tag_836\n      jump\t// in\n    tag_835:\n        /* \"#utility.yul\":31988:32018   */\n      swap1\n      pop\n        /* \"#utility.yul\":32027:32060   */\n      tag_837\n        /* \"#utility.yul\":32055:32059   */\n      dup3\n        /* \"#utility.yul\":32047:32053   */\n      dup3\n        /* \"#utility.yul\":32027:32060   */\n      tag_838\n      jump\t// in\n    tag_837:\n        /* \"#utility.yul\":31937:32066   */\n      swap2\n      swap1\n      pop\n      jump\t// out\n        /* \"#utility.yul\":32072:32147   */\n    tag_836:\n        /* \"#utility.yul\":32105:32111   */\n      0x00\n        /* \"#utility.yul\":32138:32140   */\n      0x40\n        /* \"#utility.yul\":32132:32141   */\n      mload\n        /* \"#utility.yul\":32122:32141   */\n      swap1\n      pop\n        /* \"#utility.yul\":32072:32147   */\n      swap1\n      jump\t// out\n        /* \"#utility.yul\":32153:32464   */\n    tag_472:\n        /* \"#utility.yul\":32230:32234   */\n      0x00\n        /* \"#utility.yul\":32320:32338   */\n      0xffffffffffffffff\n        /* \"#utility.yul\":32312:32318   */\n      dup3\n        /* \"#utility.yul\":32309:32339   */\n      gt\n        /* \"#utility.yul\":32306:32362   */\n      iszero\n      tag_841\n      jumpi\n        /* \"#utility.yul\":32342:32360   */\n      tag_842\n      tag_350\n      jump\t// in\n    tag_842:\n        /* \"#utility.yul\":32306:32362   */\n    tag_841:\n        /* \"#utility.yul\":32392:32396   */\n      0x20\n        /* \"#utility.yul\":32384:32390   */\n      dup3\n        /* \"#utility.yul\":32380:32397   */\n      mul\n        /* \"#utility.yul\":32372:32397   */\n      swap1\n      pop\n        /* \"#utility.yul\":32452:32456   */\n      0x20\n        /* \"#utility.yul\":32446:32450   */\n      dup2\n        /* \"#utility.yul\":32442:32457   */\n      add\n        /* \"#utility.yul\":32434:32457   */\n      swap1\n      pop\n        /* \"#utility.yul\":32153:32464   */\n      swap2\n      swap1\n      pop\n      jump\t// out\n        /* \"#utility.yul\":32470:32584   */\n    tag_596:\n        /* \"#utility.yul\":32551:32555   */\n      0x00\n        /* \"#utility.yul\":32574:32577   */\n      dup2\n        /* \"#utility.yul\":32566:32577   */\n      swap1\n      pop\n        /* \"#utility.yul\":32470:32584   */\n      swap2\n      swap1\n      pop\n      jump\t// out\n        /* \"#utility.yul\":32590:32732   */\n    tag_611:\n        /* \"#utility.yul\":32667:32671   */\n      0x00\n        /* \"#utility.yul\":32690:32693   */\n      dup2\n        /* \"#utility.yul\":32682:32693   */\n      swap1\n      pop\n        /* \"#utility.yul\":32720:32724   */\n      0x20\n        /* \"#utility.yul\":32715:32718   */\n      dup3\n        /* \"#utility.yul\":32711:32725   */\n      add\n        /* \"#utility.yul\":32703:32725   */\n      swap1\n      pop\n        /* \"#utility.yul\":32590:32732   */\n      swap2\n      swap1\n      pop\n      jump\t// out\n        /* \"#utility.yul\":32738:32870   */\n    tag_625:\n        /* \"#utility.yul\":32805:32809   */\n      0x00\n        /* \"#utility.yul\":32828:32831   */\n      dup2\n        /* \"#utility.yul\":32820:32831   */\n      swap1\n      pop\n        /* \"#utility.yul\":32858:32862   */\n      0x20\n        /* \"#utility.yul\":32853:32856   */\n      dup3\n        /* \"#utility.yul\":32849:32863   */\n      add\n        /* \"#utility.yul\":32841:32863   */\n      swap1\n      pop\n        /* \"#utility.yul\":32738:32870   */\n      swap2\n      swap1\n      pop\n      jump\t// out\n        /* \"#utility.yul\":32876:33000   */\n    tag_608:\n        /* \"#utility.yul\":32953:32959   */\n      0x00\n        /* \"#utility.yul\":32987:32992   */\n      dup2\n        /* \"#utility.yul\":32981:32993   */\n      mload\n        /* \"#utility.yul\":32971:32993   */\n      swap1\n      pop\n        /* \"#utility.yul\":32876:33000   */\n      swap2\n      swap1\n      pop\n      jump\t// out\n        /* \"#utility.yul\":33006:33120   */\n    tag_621:\n        /* \"#utility.yul\":33073:33079   */\n      0x00\n        /* \"#utility.yul\":33107:33112   */\n      dup2\n        /* \"#utility.yul\":33101:33113   */\n      mload\n        /* \"#utility.yul\":33091:33113   */\n      swap1\n      pop\n        /* \"#utility.yul\":33006:33120   */\n      swap2\n      swap1\n      pop\n      jump\t// out\n        /* \"#utility.yul\":33126:33225   */\n    tag_659:\n        /* \"#utility.yul\":33178:33184   */\n      0x00\n        /* \"#utility.yul\":33212:33217   */\n      dup2\n        /* \"#utility.yul\":33206:33218   */\n      mload\n        /* \"#utility.yul\":33196:33218   */\n      swap1\n      pop\n        /* \"#utility.yul\":33126:33225   */\n      swap2\n      swap1\n      pop\n      jump\t// out\n        /* \"#utility.yul\":33231:33358   */\n    tag_604:\n        /* \"#utility.yul\":33315:33319   */\n      0x00\n        /* \"#utility.yul\":33347:33351   */\n      0x20\n        /* \"#utility.yul\":33342:33345   */\n      dup3\n        /* \"#utility.yul\":33338:33352   */\n      add\n        /* \"#utility.yul\":33330:33352   */\n      swap1\n      pop\n        /* \"#utility.yul\":33231:33358   */\n      swap2\n      swap1\n      pop\n      jump\t// out\n        /* \"#utility.yul\":33364:33487   */\n    tag_617:\n        /* \"#utility.yul\":33444:33448   */\n      0x00\n        /* \"#utility.yul\":33476:33480   */\n      0x20\n        /* \"#utility.yul\":33471:33474   */\n      dup3\n        /* \"#utility.yul\":33467:33481   */\n      add\n        /* \"#utility.yul\":33459:33481   */\n      swap1\n      pop\n        /* \"#utility.yul\":33364:33487   */\n      swap2\n      swap1\n      pop\n      jump\t// out\n        /* \"#utility.yul\":33493:33606   */\n    tag_631:\n        /* \"#utility.yul\":33563:33567   */\n      0x00\n        /* \"#utility.yul\":33595:33599   */\n      0x20\n        /* \"#utility.yul\":33590:33593   */\n      dup3\n        /* \"#utility.yul\":33586:33600   */\n      add\n        /* \"#utility.yul\":33578:33600   */\n      swap1\n      pop\n        /* \"#utility.yul\":33493:33606   */\n      swap2\n      swap1\n      pop\n      jump\t// out\n        /* \"#utility.yul\":33612:33806   */\n    tag_594:\n        /* \"#utility.yul\":33721:33732   */\n      0x00\n        /* \"#utility.yul\":33755:33761   */\n      dup3\n        /* \"#utility.yul\":33750:33753   */\n      dup3\n        /* \"#utility.yul\":33743:33762   */\n      mstore\n        /* \"#utility.yul\":33795:33799   */\n      0x20\n        /* \"#utility.yul\":33790:33793   */\n      dup3\n        /* \"#utility.yul\":33786:33800   */\n      add\n        /* \"#utility.yul\":33771:33800   */\n      swap1\n      pop\n        /* \"#utility.yul\":33612:33806   */\n      swap3\n      swap2\n      pop\n      pop\n      jump\t// out\n        /* \"#utility.yul\":33812:33996   */\n    tag_623:\n        /* \"#utility.yul\":33911:33922   */\n      0x00\n        /* \"#utility.yul\":33945:33951   */\n      dup3\n        /* \"#utility.yul\":33940:33943   */\n      dup3\n        /* \"#utility.yul\":33933:33952   */\n      mstore\n        /* \"#utility.yul\":33985:33989   */\n      0x20\n        /* \"#utility.yul\":33980:33983   */\n      dup3\n        /* \"#utility.yul\":33976:33990   */\n      add\n        /* \"#utility.yul\":33961:33990   */\n      swap1\n      pop\n        /* \"#utility.yul\":33812:33996   */\n      swap3\n      swap2\n      pop\n      pop\n      jump\t// out\n        /* \"#utility.yul\":34002:34161   */\n    tag_646:\n        /* \"#utility.yul\":34076:34087   */\n      0x00\n        /* \"#utility.yul\":34110:34116   */\n      dup3\n        /* \"#utility.yul\":34105:34108   */\n      dup3\n        /* \"#utility.yul\":34098:34117   */\n      mstore\n        /* \"#utility.yul\":34150:34154   */\n      0x20\n        /* \"#utility.yul\":34145:34148   */\n      dup3\n        /* \"#utility.yul\":34141:34155   */\n      add\n        /* \"#utility.yul\":34126:34155   */\n      swap1\n      pop\n        /* \"#utility.yul\":34002:34161   */\n      swap3\n      swap2\n      pop\n      pop\n      jump\t// out\n        /* \"#utility.yul\":34167:34336   */\n    tag_654:\n        /* \"#utility.yul\":34251:34262   */\n      0x00\n        /* \"#utility.yul\":34285:34291   */\n      dup3\n        /* \"#utility.yul\":34280:34283   */\n      dup3\n        /* \"#utility.yul\":34273:34292   */\n      mstore\n        /* \"#utility.yul\":34325:34329   */\n      0x20\n        /* \"#utility.yul\":34320:34323   */\n      dup3\n        /* \"#utility.yul\":34316:34330   */\n      add\n        /* \"#utility.yul\":34301:34330   */\n      swap1\n      pop\n        /* \"#utility.yul\":34167:34336   */\n      swap3\n      swap2\n      pop\n      pop\n      jump\t// out\n        /* \"#utility.yul\":34342:34490   */\n    tag_674:\n        /* \"#utility.yul\":34444:34455   */\n      0x00\n        /* \"#utility.yul\":34481:34484   */\n      dup2\n        /* \"#utility.yul\":34466:34484   */\n      swap1\n      pop\n        /* \"#utility.yul\":34342:34490   */\n      swap3\n      swap2\n      pop\n      pop\n      jump\t// out\n        /* \"#utility.yul\":34496:35211   */\n    tag_601:\n        /* \"#utility.yul\":34561:34566   */\n      0x00\n        /* \"#utility.yul\":34568:34574   */\n      dup1\n        /* \"#utility.yul\":34624:34627   */\n      dup4\n        /* \"#utility.yul\":34611:34628   */\n      calldataload\n        /* \"#utility.yul\":34716:34717   */\n      0x01\n        /* \"#utility.yul\":34710:34714   */\n      0x20\n        /* \"#utility.yul\":34706:34718   */\n      sub\n        /* \"#utility.yul\":34695:34703   */\n      dup5\n        /* \"#utility.yul\":34679:34693   */\n      calldatasize\n        /* \"#utility.yul\":34675:34704   */\n      sub\n        /* \"#utility.yul\":34671:34719   */\n      sub\n        /* \"#utility.yul\":34651:34669   */\n      dup2\n        /* \"#utility.yul\":34647:34720   */\n      slt\n        /* \"#utility.yul\":34637:34805   */\n      tag_858\n      jumpi\n        /* \"#utility.yul\":34724:34803   */\n      tag_859\n      tag_860\n      jump\t// in\n    tag_859:\n        /* \"#utility.yul\":34637:34805   */\n    tag_858:\n        /* \"#utility.yul\":34847:34855   */\n      dup4\n        /* \"#utility.yul\":34827:34845   */\n      dup2\n        /* \"#utility.yul\":34823:34856   */\n      add\n        /* \"#utility.yul\":34814:34856   */\n      swap3\n      pop\n        /* \"#utility.yul\":34889:34894   */\n      dup3\n        /* \"#utility.yul\":34876:34895   */\n      calldataload\n        /* \"#utility.yul\":34866:34895   */\n      swap2\n      pop\n        /* \"#utility.yul\":34924:34928   */\n      0x20\n        /* \"#utility.yul\":34917:34922   */\n      dup4\n        /* \"#utility.yul\":34913:34929   */\n      add\n        /* \"#utility.yul\":34904:34929   */\n      swap3\n      pop\n        /* \"#utility.yul\":34952:34970   */\n      0xffffffffffffffff\n        /* \"#utility.yul\":34944:34950   */\n      dup3\n        /* \"#utility.yul\":34941:34971   */\n      gt\n        /* \"#utility.yul\":34938:35055   */\n      iszero\n      tag_861\n      jumpi\n        /* \"#utility.yul\":34974:35053   */\n      tag_862\n      tag_863\n      jump\t// in\n    tag_862:\n        /* \"#utility.yul\":34938:35055   */\n    tag_861:\n        /* \"#utility.yul\":35113:35117   */\n      0x01\n        /* \"#utility.yul\":35105:35111   */\n      dup3\n        /* \"#utility.yul\":35101:35118   */\n      mul\n        /* \"#utility.yul\":35085:35099   */\n      calldatasize\n        /* \"#utility.yul\":35081:35119   */\n      sub\n        /* \"#utility.yul\":35071:35079   */\n      dup5\n        /* \"#utility.yul\":35067:35120   */\n      sgt\n        /* \"#utility.yul\":35064:35204   */\n      iszero\n      tag_864\n      jumpi\n        /* \"#utility.yul\":35123:35202   */\n      tag_865\n      tag_866\n      jump\t// in\n    tag_865:\n        /* \"#utility.yul\":35064:35204   */\n    tag_864:\n        /* \"#utility.yul\":34575:35211   */\n      pop\n        /* \"#utility.yul\":34496:35211   */\n      swap3\n      pop\n      swap3\n      swap1\n      pop\n      jump\t// out\n        /* \"#utility.yul\":35217:35522   */\n    tag_236:\n        /* \"#utility.yul\":35257:35260   */\n      0x00\n        /* \"#utility.yul\":35276:35296   */\n      tag_868\n        /* \"#utility.yul\":35294:35295   */\n      dup3\n        /* \"#utility.yul\":35276:35296   */\n      tag_753\n      jump\t// in\n    tag_868:\n        /* \"#utility.yul\":35271:35296   */\n      swap2\n      pop\n        /* \"#utility.yul\":35310:35330   */\n      tag_869\n        /* \"#utility.yul\":35328:35329   */\n      dup4\n        /* \"#utility.yul\":35310:35330   */\n      tag_753\n      jump\t// in\n    tag_869:\n        /* \"#utility.yul\":35305:35330   */\n      swap3\n      pop\n        /* \"#utility.yul\":35464:35465   */\n      dup3\n        /* \"#utility.yul\":35396:35462   */\n      0xffffffffffffffffffffffffffffffffffffffffffffffffffffffffffffffff\n        /* \"#utility.yul\":35392:35466   */\n      sub\n        /* \"#utility.yul\":35389:35390   */\n      dup3\n        /* \"#utility.yul\":35386:35467   */\n      gt\n        /* \"#utility.yul\":35383:35490   */\n      iszero\n      tag_870\n      jumpi\n        /* \"#utility.yul\":35470:35488   */\n      tag_871\n      tag_872\n      jump\t// in\n    tag_871:\n        /* \"#utility.yul\":35383:35490   */\n    tag_870:\n        /* \"#utility.yul\":35514:35515   */\n      dup3\n        /* \"#utility.yul\":35511:35512   */\n      dup3\n        /* \"#utility.yul\":35507:35516   */\n      add\n        /* \"#utility.yul\":35500:35516   */\n      swap1\n      pop\n        /* \"#utility.yul\":35217:35522   */\n      swap3\n      swap2\n      pop\n      pop\n      jump\t// out\n        /* \"#utility.yul\":35528:35876   */\n    tag_244:\n        /* \"#utility.yul\":35568:35575   */\n      0x00\n        /* \"#utility.yul\":35591:35611   */\n      tag_874\n        /* \"#utility.yul\":35609:35610   */\n      dup3\n        /* \"#utility.yul\":35591:35611   */\n      tag_753\n      jump\t// in\n    tag_874:\n        /* \"#utility.yul\":35586:35611   */\n      swap2\n      pop\n        /* \"#utility.yul\":35625:35645   */\n      tag_875\n        /* \"#utility.yul\":35643:35644   */\n      dup4\n        /* \"#utility.yul\":35625:35645   */\n      tag_753\n      jump\t// in\n    tag_875:\n        /* \"#utility.yul\":35620:35645   */\n      swap3\n      pop\n        /* \"#utility.yul\":35813:35814   */\n      dup2\n        /* \"#utility.yul\":35745:35811   */\n      0xffffffffffffffffffffffffffffffffffffffffffffffffffffffffffffffff\n        /* \"#utility.yul\":35741:35815   */\n      div\n        /* \"#utility.yul\":35738:35739   */\n      dup4\n        /* \"#utility.yul\":35735:35816   */\n      gt\n        /* \"#utility.yul\":35730:35731   */\n      dup3\n        /* \"#utility.yul\":35723:35732   */\n      iszero\n        /* \"#utility.yul\":35716:35733   */\n      iszero\n        /* \"#utility.yul\":35712:35817   */\n      and\n        /* \"#utility.yul\":35709:35840   */\n      iszero\n      tag_876\n      jumpi\n        /* \"#utility.yul\":35820:35838   */\n      tag_877\n      tag_872\n      jump\t// in\n    tag_877:\n        /* \"#utility.yul\":35709:35840   */\n    tag_876:\n        /* \"#utility.yul\":35868:35869   */\n      dup3\n        /* \"#utility.yul\":35865:35866   */\n      dup3\n        /* \"#utility.yul\":35861:35870   */\n      mul\n        /* \"#utility.yul\":35850:35870   */\n      swap1\n      pop\n        /* \"#utility.yul\":35528:35876   */\n      swap3\n      swap2\n      pop\n      pop\n      jump\t// out\n        /* \"#utility.yul\":35882:36073   */\n    tag_231:\n        /* \"#utility.yul\":35922:35926   */\n      0x00\n        /* \"#utility.yul\":35942:35962   */\n      tag_879\n        /* \"#utility.yul\":35960:35961   */\n      dup3\n        /* \"#utility.yul\":35942:35962   */\n      tag_753\n      jump\t// in\n    tag_879:\n        /* \"#utility.yul\":35937:35962   */\n      swap2\n      pop\n        /* \"#utility.yul\":35976:35996   */\n      tag_880\n        /* \"#utility.yul\":35994:35995   */\n      dup4\n        /* \"#utility.yul\":35976:35996   */\n      tag_753\n      jump\t// in\n    tag_880:\n        /* \"#utility.yul\":35971:35996   */\n      swap3\n      pop\n        /* \"#utility.yul\":36015:36016   */\n      dup3\n        /* \"#utility.yul\":36012:36013   */\n      dup3\n        /* \"#utility.yul\":36009:36017   */\n      lt\n        /* \"#utility.yul\":36006:36040   */\n      iszero\n      tag_881\n      jumpi\n        /* \"#utility.yul\":36020:36038   */\n      tag_882\n      tag_872\n      jump\t// in\n    tag_882:\n        /* \"#utility.yul\":36006:36040   */\n    tag_881:\n        /* \"#utility.yul\":36065:36066   */\n      dup3\n        /* \"#utility.yul\":36062:36063   */\n      dup3\n        /* \"#utility.yul\":36058:36067   */\n      sub\n        /* \"#utility.yul\":36050:36067   */\n      swap1\n      pop\n        /* \"#utility.yul\":35882:36073   */\n      swap3\n      swap2\n      pop\n      pop\n      jump\t// out\n        /* \"#utility.yul\":36079:36175   */\n    tag_590:\n        /* \"#utility.yul\":36116:36123   */\n      0x00\n        /* \"#utility.yul\":36145:36169   */\n      tag_884\n        /* \"#utility.yul\":36163:36168   */\n      dup3\n        /* \"#utility.yul\":36145:36169   */\n      tag_885\n      jump\t// in\n    tag_884:\n        /* \"#utility.yul\":36134:36169   */\n      swap1\n      pop\n        /* \"#utility.yul\":36079:36175   */\n      swap2\n      swap1\n      pop\n      jump\t// out\n        /* \"#utility.yul\":36181:36271   */\n    tag_635:\n        /* \"#utility.yul\":36215:36222   */\n      0x00\n        /* \"#utility.yul\":36258:36263   */\n      dup2\n        /* \"#utility.yul\":36251:36264   */\n      iszero\n        /* \"#utility.yul\":36244:36265   */\n      iszero\n        /* \"#utility.yul\":36233:36265   */\n      swap1\n      pop\n        /* \"#utility.yul\":36181:36271   */\n      swap2\n      swap1\n      pop\n      jump\t// out\n        /* \"#utility.yul\":36277:36354   */\n    tag_639:\n        /* \"#utility.yul\":36314:36321   */\n      0x00\n        /* \"#utility.yul\":36343:36348   */\n      dup2\n        /* \"#utility.yul\":36332:36348   */\n      swap1\n      pop\n        /* \"#utility.yul\":36277:36354   */\n      swap2\n      swap1\n      pop\n      jump\t// out\n        /* \"#utility.yul\":36360:36509   */\n    tag_888:\n        /* \"#utility.yul\":36396:36403   */\n      0x00\n        /* \"#utility.yul\":36436:36502   */\n      0xffffffff00000000000000000000000000000000000000000000000000000000\n        /* \"#utility.yul\":36429:36434   */\n      dup3\n        /* \"#utility.yul\":36425:36503   */\n      and\n        /* \"#utility.yul\":36414:36503   */\n      swap1\n      pop\n        /* \"#utility.yul\":36360:36509   */\n      swap2\n      swap1\n      pop\n      jump\t// out\n        /* \"#utility.yul\":36515:36664   */\n    tag_890:\n        /* \"#utility.yul\":36571:36578   */\n      0x00\n        /* \"#utility.yul\":36600:36605   */\n      dup2\n        /* \"#utility.yul\":36589:36605   */\n      swap1\n      pop\n        /* \"#utility.yul\":36606:36658   */\n      tag_892\n        /* \"#utility.yul\":36652:36657   */\n      dup3\n        /* \"#utility.yul\":36606:36658   */\n      tag_893\n      jump\t// in\n    tag_892:\n        /* \"#utility.yul\":36515:36664   */\n      swap2\n      swap1\n      pop\n      jump\t// out\n        /* \"#utility.yul\":36670:36796   */\n    tag_885:\n        /* \"#utility.yul\":36707:36714   */\n      0x00\n        /* \"#utility.yul\":36747:36789   */\n      0xffffffffffffffffffffffffffffffffffffffff\n        /* \"#utility.yul\":36740:36745   */\n      dup3\n        /* \"#utility.yul\":36736:36790   */\n      and\n        /* \"#utility.yul\":36725:36790   */\n      swap1\n      pop\n        /* \"#utility.yul\":36670:36796   */\n      swap2\n      swap1\n      pop\n      jump\t// out\n        /* \"#utility.yul\":36802:36879   */\n    tag_753:\n        /* \"#utility.yul\":36839:36846   */\n      0x00\n        /* \"#utility.yul\":36868:36873   */\n      dup2\n        /* \"#utility.yul\":36857:36873   */\n      swap1\n      pop\n        /* \"#utility.yul\":36802:36879   */\n      swap2\n      swap1\n      pop\n      jump\t// out\n        /* \"#utility.yul\":36885:37034   */\n    tag_643:\n        /* \"#utility.yul\":36952:36961   */\n      0x00\n        /* \"#utility.yul\":36985:37028   */\n      tag_897\n        /* \"#utility.yul\":37022:37027   */\n      dup3\n        /* \"#utility.yul\":36985:37028   */\n      tag_890\n      jump\t// in\n    tag_897:\n        /* \"#utility.yul\":36972:37028   */\n      swap1\n      pop\n        /* \"#utility.yul\":36885:37034   */\n      swap2\n      swap1\n      pop\n      jump\t// out\n        /* \"#utility.yul\":37040:37194   */\n    tag_648:\n        /* \"#utility.yul\":37124:37130   */\n      dup3\n        /* \"#utility.yul\":37119:37122   */\n      dup2\n        /* \"#utility.yul\":37114:37117   */\n      dup4\n        /* \"#utility.yul\":37101:37131   */\n      calldatacopy\n        /* \"#utility.yul\":37186:37187   */\n      0x00\n        /* \"#utility.yul\":37177:37183   */\n      dup4\n        /* \"#utility.yul\":37172:37175   */\n      dup4\n        /* \"#utility.yul\":37168:37184   */\n      add\n        /* \"#utility.yul\":37161:37188   */\n      mstore\n        /* \"#utility.yul\":37040:37194   */\n      pop\n      pop\n      pop\n      jump\t// out\n        /* \"#utility.yul\":37200:37507   */\n    tag_662:\n        /* \"#utility.yul\":37268:37269   */\n      0x00\n        /* \"#utility.yul\":37278:37391   */\n    tag_900:\n        /* \"#utility.yul\":37292:37298   */\n      dup4\n        /* \"#utility.yul\":37289:37290   */\n      dup2\n        /* \"#utility.yul\":37286:37299   */\n      lt\n        /* \"#utility.yul\":37278:37391   */\n      iszero\n      tag_902\n      jumpi\n        /* \"#utility.yul\":37377:37378   */\n      dup1\n        /* \"#utility.yul\":37372:37375   */\n      dup3\n        /* \"#utility.yul\":37368:37379   */\n      add\n        /* \"#utility.yul\":37362:37380   */\n      mload\n        /* \"#utility.yul\":37358:37359   */\n      dup2\n        /* \"#utility.yul\":37353:37356   */\n      dup5\n        /* \"#utility.yul\":37349:37360   */\n      add\n        /* \"#utility.yul\":37342:37381   */\n      mstore\n        /* \"#utility.yul\":37314:37316   */\n      0x20\n        /* \"#utility.yul\":37311:37312   */\n      dup2\n        /* \"#utility.yul\":37307:37317   */\n      add\n        /* \"#utility.yul\":37302:37317   */\n      swap1\n      pop\n        /* \"#utility.yul\":37278:37391   */\n      jump(tag_900)\n    tag_902:\n        /* \"#utility.yul\":37409:37415   */\n      dup4\n        /* \"#utility.yul\":37406:37407   */\n      dup2\n        /* \"#utility.yul\":37403:37416   */\n      gt\n        /* \"#utility.yul\":37400:37501   */\n      iszero\n      tag_903\n      jumpi\n        /* \"#utility.yul\":37489:37490   */\n      0x00\n        /* \"#utility.yul\":37480:37486   */\n      dup5\n        /* \"#utility.yul\":37475:37478   */\n      dup5\n        /* \"#utility.yul\":37471:37487   */\n      add\n        /* \"#utility.yul\":37464:37491   */\n      mstore\n        /* \"#utility.yul\":37400:37501   */\n    tag_903:\n        /* \"#utility.yul\":37249:37507   */\n      pop\n        /* \"#utility.yul\":37200:37507   */\n      pop\n      pop\n      pop\n      jump\t// out\n        /* \"#utility.yul\":37513:37684   */\n    tag_442:\n        /* \"#utility.yul\":37552:37555   */\n      0x00\n        /* \"#utility.yul\":37575:37599   */\n      tag_905\n        /* \"#utility.yul\":37593:37598   */\n      dup3\n        /* \"#utility.yul\":37575:37599   */\n      tag_753\n      jump\t// in\n    tag_905:\n        /* \"#utility.yul\":37566:37599   */\n      swap2\n      pop\n        /* \"#utility.yul\":37621:37625   */\n      0x00\n        /* \"#utility.yul\":37614:37619   */\n      dup3\n        /* \"#utility.yul\":37611:37626   */\n      eq\n        /* \"#utility.yul\":37608:37649   */\n      iszero\n      tag_906\n      jumpi\n        /* \"#utility.yul\":37629:37647   */\n      tag_907\n      tag_872\n      jump\t// in\n    tag_907:\n        /* \"#utility.yul\":37608:37649   */\n    tag_906:\n        /* \"#utility.yul\":37676:37677   */\n      0x01\n        /* \"#utility.yul\":37669:37674   */\n      dup3\n        /* \"#utility.yul\":37665:37678   */\n      sub\n        /* \"#utility.yul\":37658:37678   */\n      swap1\n      pop\n        /* \"#utility.yul\":37513:37684   */\n      swap2\n      swap1\n      pop\n      jump\t// out\n        /* \"#utility.yul\":37690:38010   */\n    tag_157:\n        /* \"#utility.yul\":37734:37740   */\n      0x00\n        /* \"#utility.yul\":37771:37772   */\n      0x02\n        /* \"#utility.yul\":37765:37769   */\n      dup3\n        /* \"#utility.yul\":37761:37773   */\n      div\n        /* \"#utility.yul\":37751:37773   */\n      swap1\n      pop\n        /* \"#utility.yul\":37818:37819   */\n      0x01\n        /* \"#utility.yul\":37812:37816   */\n      dup3\n        /* \"#utility.yul\":37808:37820   */\n      and\n        /* \"#utility.yul\":37839:37857   */\n      dup1\n        /* \"#utility.yul\":37829:37910   */\n      tag_909\n      jumpi\n        /* \"#utility.yul\":37895:37899   */\n      0x7f\n        /* \"#utility.yul\":37887:37893   */\n      dup3\n        /* \"#utility.yul\":37883:37900   */\n      and\n        /* \"#utility.yul\":37873:37900   */\n      swap2\n      pop\n        /* \"#utility.yul\":37829:37910   */\n    tag_909:\n        /* \"#utility.yul\":37957:37959   */\n      0x20\n        /* \"#utility.yul\":37949:37955   */\n      dup3\n        /* \"#utility.yul\":37946:37960   */\n      lt\n        /* \"#utility.yul\":37926:37944   */\n      dup2\n        /* \"#utility.yul\":37923:37961   */\n      eq\n        /* \"#utility.yul\":37920:38004   */\n      iszero\n      tag_910\n      jumpi\n        /* \"#utility.yul\":37976:37994   */\n      tag_911\n      tag_912\n      jump\t// in\n    tag_911:\n        /* \"#utility.yul\":37920:38004   */\n    tag_910:\n        /* \"#utility.yul\":37741:38010   */\n      pop\n        /* \"#utility.yul\":37690:38010   */\n      swap2\n      swap1\n      pop\n      jump\t// out\n        /* \"#utility.yul\":38016:38297   */\n    tag_838:\n        /* \"#utility.yul\":38099:38126   */\n      tag_914\n        /* \"#utility.yul\":38121:38125   */\n      dup3\n        /* \"#utility.yul\":38099:38126   */\n      tag_650\n      jump\t// in\n    tag_914:\n        /* \"#utility.yul\":38091:38097   */\n      dup2\n        /* \"#utility.yul\":38087:38127   */\n      add\n        /* \"#utility.yul\":38229:38235   */\n      dup2\n        /* \"#utility.yul\":38217:38227   */\n      dup2\n        /* \"#utility.yul\":38214:38236   */\n      lt\n        /* \"#utility.yul\":38193:38211   */\n      0xffffffffffffffff\n        /* \"#utility.yul\":38181:38191   */\n      dup3\n        /* \"#utility.yul\":38178:38212   */\n      gt\n        /* \"#utility.yul\":38175:38237   */\n      or\n        /* \"#utility.yul\":38172:38260   */\n      iszero\n      tag_915\n      jumpi\n        /* \"#utility.yul\":38240:38258   */\n      tag_916\n      tag_350\n      jump\t// in\n    tag_916:\n        /* \"#utility.yul\":38172:38260   */\n    tag_915:\n        /* \"#utility.yul\":38280:38290   */\n      dup1\n        /* \"#utility.yul\":38276:38278   */\n      0x40\n        /* \"#utility.yul\":38269:38291   */\n      mstore\n        /* \"#utility.yul\":38059:38297   */\n      pop\n        /* \"#utility.yul\":38016:38297   */\n      pop\n      pop\n      jump\t// out\n        /* \"#utility.yul\":38303:38536   */\n    tag_169:\n        /* \"#utility.yul\":38342:38345   */\n      0x00\n        /* \"#utility.yul\":38365:38389   */\n      tag_918\n        /* \"#utility.yul\":38383:38388   */\n      dup3\n        /* \"#utility.yul\":38365:38389   */\n      tag_753\n      jump\t// in\n    tag_918:\n        /* \"#utility.yul\":38356:38389   */\n      swap2\n      pop\n        /* \"#utility.yul\":38411:38477   */\n      0xffffffffffffffffffffffffffffffffffffffffffffffffffffffffffffffff\n        /* \"#utility.yul\":38404:38409   */\n      dup3\n        /* \"#utility.yul\":38401:38478   */\n      eq\n        /* \"#utility.yul\":38398:38501   */\n      iszero\n      tag_919\n      jumpi\n        /* \"#utility.yul\":38481:38499   */\n      tag_920\n      tag_872\n      jump\t// in\n    tag_920:\n        /* \"#utility.yul\":38398:38501   */\n    tag_919:\n        /* \"#utility.yul\":38528:38529   */\n      0x01\n        /* \"#utility.yul\":38521:38526   */\n      dup3\n        /* \"#utility.yul\":38517:38530   */\n      add\n        /* \"#utility.yul\":38510:38530   */\n      swap1\n      pop\n        /* \"#utility.yul\":38303:38536   */\n      swap2\n      swap1\n      pop\n      jump\t// out\n        /* \"#utility.yul\":38542:38722   */\n    tag_872:\n        /* \"#utility.yul\":38590:38667   */\n      0x4e487b7100000000000000000000000000000000000000000000000000000000\n        /* \"#utility.yul\":38587:38588   */\n      0x00\n        /* \"#utility.yul\":38580:38668   */\n      mstore\n        /* \"#utility.yul\":38687:38691   */\n      0x11\n        /* \"#utility.yul\":38684:38685   */\n      0x04\n        /* \"#utility.yul\":38677:38692   */\n      mstore\n        /* \"#utility.yul\":38711:38715   */\n      0x24\n        /* \"#utility.yul\":38708:38709   */\n      0x00\n        /* \"#utility.yul\":38701:38716   */\n      revert\n        /* \"#utility.yul\":38728:38908   */\n    tag_187:\n        /* \"#utility.yul\":38776:38853   */\n      0x4e487b7100000000000000000000000000000000000000000000000000000000\n        /* \"#utility.yul\":38773:38774   */\n      0x00\n        /* \"#utility.yul\":38766:38854   */\n      mstore\n        /* \"#utility.yul\":38873:38877   */\n      0x21\n        /* \"#utility.yul\":38870:38871   */\n      0x04\n        /* \"#utility.yul\":38863:38878   */\n      mstore\n        /* \"#utility.yul\":38897:38901   */\n      0x24\n        /* \"#utility.yul\":38894:38895   */\n      0x00\n        /* \"#utility.yul\":38887:38902   */\n      revert\n        /* \"#utility.yul\":38914:39094   */\n    tag_912:\n        /* \"#utility.yul\":38962:39039   */\n      0x4e487b7100000000000000000000000000000000000000000000000000000000\n        /* \"#utility.yul\":38959:38960   */\n      0x00\n        /* \"#utility.yul\":38952:39040   */\n      mstore\n        /* \"#utility.yul\":39059:39063   */\n      0x22\n        /* \"#utility.yul\":39056:39057   */\n      0x04\n        /* \"#utility.yul\":39049:39064   */\n      mstore\n        /* \"#utility.yul\":39083:39087   */\n      0x24\n        /* \"#utility.yul\":39080:39081   */\n      0x00\n        /* \"#utility.yul\":39073:39088   */\n      revert\n        /* \"#utility.yul\":39100:39280   */\n    tag_234:\n        /* \"#utility.yul\":39148:39225   */\n      0x4e487b7100000000000000000000000000000000000000000000000000000000\n        /* \"#utility.yul\":39145:39146   */\n      0x00\n        /* \"#utility.yul\":39138:39226   */\n      mstore\n        /* \"#utility.yul\":39245:39249   */\n      0x32\n        /* \"#utility.yul\":39242:39243   */\n      0x04\n        /* \"#utility.yul\":39235:39250   */\n      mstore\n        /* \"#utility.yul\":39269:39273   */\n      0x24\n        /* \"#utility.yul\":39266:39267   */\n      0x00\n        /* \"#utility.yul\":39259:39274   */\n      revert\n        /* \"#utility.yul\":39286:39466   */\n    tag_350:\n        /* \"#utility.yul\":39334:39411   */\n      0x4e487b7100000000000000000000000000000000000000000000000000000000\n        /* \"#utility.yul\":39331:39332   */\n      0x00\n        /* \"#utility.yul\":39324:39412   */\n      mstore\n        /* \"#utility.yul\":39431:39435   */\n      0x41\n        /* \"#utility.yul\":39428:39429   */\n      0x04\n        /* \"#utility.yul\":39421:39436   */\n      mstore\n        /* \"#utility.yul\":39455:39459   */\n      0x24\n        /* \"#utility.yul\":39452:39453   */\n      0x00\n        /* \"#utility.yul\":39445:39460   */\n      revert\n        /* \"#utility.yul\":39472:39589   */\n    tag_863:\n        /* \"#utility.yul\":39581:39582   */\n      0x00\n        /* \"#utility.yul\":39578:39579   */\n      dup1\n        /* \"#utility.yul\":39571:39583   */\n      revert\n        /* \"#utility.yul\":39595:39712   */\n    tag_493:\n        /* \"#utility.yul\":39704:39705   */\n      0x00\n        /* \"#utility.yul\":39701:39702   */\n      dup1\n        /* \"#utility.yul\":39694:39706   */\n      revert\n        /* \"#utility.yul\":39718:39835   */\n    tag_490:\n        /* \"#utility.yul\":39827:39828   */\n      0x00\n        /* \"#utility.yul\":39824:39825   */\n      dup1\n        /* \"#utility.yul\":39817:39829   */\n      revert\n        /* \"#utility.yul\":39841:39958   */\n    tag_830:\n        /* \"#utility.yul\":39950:39951   */\n      0x00\n        /* \"#utility.yul\":39947:39948   */\n      dup1\n        /* \"#utility.yul\":39940:39952   */\n      revert\n        /* \"#utility.yul\":39964:40081   */\n    tag_827:\n        /* \"#utility.yul\":40073:40074   */\n      0x00\n        /* \"#utility.yul\":40070:40071   */\n      dup1\n        /* \"#utility.yul\":40063:40075   */\n      revert\n        /* \"#utility.yul\":40087:40204   */\n    tag_866:\n        /* \"#utility.yul\":40196:40197   */\n      0x00\n        /* \"#utility.yul\":40193:40194   */\n      dup1\n        /* \"#utility.yul\":40186:40198   */\n      revert\n        /* \"#utility.yul\":40210:40327   */\n    tag_476:\n        /* \"#utility.yul\":40319:40320   */\n      0x00\n        /* \"#utility.yul\":40316:40317   */\n      dup1\n        /* \"#utility.yul\":40309:40321   */\n      revert\n        /* \"#utility.yul\":40333:40450   */\n    tag_833:\n        /* \"#utility.yul\":40442:40443   */\n      0x00\n        /* \"#utility.yul\":40439:40440   */\n      dup1\n        /* \"#utility.yul\":40432:40444   */\n      revert\n        /* \"#utility.yul\":40456:40573   */\n    tag_548:\n        /* \"#utility.yul\":40565:40566   */\n      0x00\n        /* \"#utility.yul\":40562:40563   */\n      dup1\n        /* \"#utility.yul\":40555:40567   */\n      revert\n        /* \"#utility.yul\":40579:40696   */\n    tag_860:\n        /* \"#utility.yul\":40688:40689   */\n      0x00\n        /* \"#utility.yul\":40685:40686   */\n      dup1\n        /* \"#utility.yul\":40678:40690   */\n      revert\n        /* \"#utility.yul\":40702:40819   */\n    tag_523:\n        /* \"#utility.yul\":40811:40812   */\n      0x00\n        /* \"#utility.yul\":40808:40809   */\n      dup1\n        /* \"#utility.yul\":40801:40813   */\n      revert\n        /* \"#utility.yul\":40825:40927   */\n    tag_650:\n        /* \"#utility.yul\":40866:40872   */\n      0x00\n        /* \"#utility.yul\":40917:40919   */\n      0x1f\n        /* \"#utility.yul\":40913:40920   */\n      not\n        /* \"#utility.yul\":40908:40910   */\n      0x1f\n        /* \"#utility.yul\":40901:40906   */\n      dup4\n        /* \"#utility.yul\":40897:40911   */\n      add\n        /* \"#utility.yul\":40893:40921   */\n      and\n        /* \"#utility.yul\":40883:40921   */\n      swap1\n      pop\n        /* \"#utility.yul\":40825:40927   */\n      swap2\n      swap1\n      pop\n      jump\t// out\n        /* \"#utility.yul\":40933:41115   */\n    tag_680:\n        /* \"#utility.yul\":41073:41107   */\n      0x537472696e67733a20686578206c656e67746820696e73756666696369656e74\n        /* \"#utility.yul\":41069:41070   */\n      0x00\n        /* \"#utility.yul\":41061:41067   */\n      dup3\n        /* \"#utility.yul\":41057:41071   */\n      add\n        /* \"#utility.yul\":41050:41108   */\n      mstore\n        /* \"#utility.yul\":40933:41115   */\n      pop\n      jump\t// out\n        /* \"#utility.yul\":41121:41346   */\n    tag_685:\n        /* \"#utility.yul\":41261:41295   */\n      0x4f776e61626c653a206e6577206f776e657220697320746865207a65726f2061\n        /* \"#utility.yul\":41257:41258   */\n      0x00\n        /* \"#utility.yul\":41249:41255   */\n      dup3\n        /* \"#utility.yul\":41245:41259   */\n      add\n        /* \"#utility.yul\":41238:41296   */\n      mstore\n        /* \"#utility.yul\":41330:41338   */\n      0x6464726573730000000000000000000000000000000000000000000000000000\n        /* \"#utility.yul\":41325:41327   */\n      0x20\n        /* \"#utility.yul\":41317:41323   */\n      dup3\n        /* \"#utility.yul\":41313:41328   */\n      add\n        /* \"#utility.yul\":41306:41339   */\n      mstore\n        /* \"#utility.yul\":41121:41346   */\n      pop\n      jump\t// out\n        /* \"#utility.yul\":41352:41529   */\n    tag_690:\n        /* \"#utility.yul\":41492:41521   */\n      0x50726f706f73616c2073686f756c6420626520696e2074616c6c790000000000\n        /* \"#utility.yul\":41488:41489   */\n      0x00\n        /* \"#utility.yul\":41480:41486   */\n      dup3\n        /* \"#utility.yul\":41476:41490   */\n      add\n        /* \"#utility.yul\":41469:41522   */\n      mstore\n        /* \"#utility.yul\":41352:41529   */\n      pop\n      jump\t// out\n        /* \"#utility.yul\":41535:41708   */\n    tag_695:\n        /* \"#utility.yul\":41675:41700   */\n      0x4e6f7420612076616c69642050726f706f73616c204964000000000000000000\n        /* \"#utility.yul\":41671:41672   */\n      0x00\n        /* \"#utility.yul\":41663:41669   */\n      dup3\n        /* \"#utility.yul\":41659:41673   */\n      add\n        /* \"#utility.yul\":41652:41701   */\n      mstore\n        /* \"#utility.yul\":41535:41708   */\n      pop\n      jump\t// out\n        /* \"#utility.yul\":41714:41893   */\n    tag_700:\n        /* \"#utility.yul\":41854:41885   */\n      0x54686520766f74696e6720706572696f642063616e6e6f742062652030000000\n        /* \"#utility.yul\":41850:41851   */\n      0x00\n        /* \"#utility.yul\":41842:41848   */\n      dup3\n        /* \"#utility.yul\":41838:41852   */\n      add\n        /* \"#utility.yul\":41831:41886   */\n      mstore\n        /* \"#utility.yul\":41714:41893   */\n      pop\n      jump\t// out\n        /* \"#utility.yul\":41899:42074   */\n    tag_705:\n        /* \"#utility.yul\":42039:42066   */\n      0x206d696e7420746f20746865207a65726f206164647265737300000000000000\n        /* \"#utility.yul\":42035:42036   */\n      0x00\n        /* \"#utility.yul\":42027:42033   */\n      dup3\n        /* \"#utility.yul\":42023:42037   */\n      add\n        /* \"#utility.yul\":42016:42067   */\n      mstore\n        /* \"#utility.yul\":41899:42074   */\n      pop\n      jump\t// out\n        /* \"#utility.yul\":42080:42262   */\n    tag_710:\n        /* \"#utility.yul\":42220:42254   */\n      0x4f776e61626c653a2063616c6c6572206973206e6f7420746865206f776e6572\n        /* \"#utility.yul\":42216:42217   */\n      0x00\n        /* \"#utility.yul\":42208:42214   */\n      dup3\n        /* \"#utility.yul\":42204:42218   */\n      add\n        /* \"#utility.yul\":42197:42255   */\n      mstore\n        /* \"#utility.yul\":42080:42262   */\n      pop\n      jump\t// out\n        /* \"#utility.yul\":42268:42447   */\n    tag_715:\n        /* \"#utility.yul\":42408:42439   */\n      0x766f74696e6720706572696f6420686173206e6f742065787069726564000000\n        /* \"#utility.yul\":42404:42405   */\n      0x00\n        /* \"#utility.yul\":42396:42402   */\n      dup3\n        /* \"#utility.yul\":42392:42406   */\n      add\n        /* \"#utility.yul\":42385:42440   */\n      mstore\n        /* \"#utility.yul\":42268:42447   */\n      pop\n      jump\t// out\n        /* \"#utility.yul\":42453:42682   */\n    tag_720:\n        /* \"#utility.yul\":42593:42627   */\n      0x666f7220746869732070726f706f73616c2c2074686520766f74696e67207469\n        /* \"#utility.yul\":42589:42590   */\n      0x00\n        /* \"#utility.yul\":42581:42587   */\n      dup3\n        /* \"#utility.yul\":42577:42591   */\n      add\n        /* \"#utility.yul\":42570:42628   */\n      mstore\n        /* \"#utility.yul\":42662:42674   */\n      0x6d65206578706972656400000000000000000000000000000000000000000000\n        /* \"#utility.yul\":42657:42659   */\n      0x20\n        /* \"#utility.yul\":42649:42655   */\n      dup3\n        /* \"#utility.yul\":42645:42660   */\n      add\n        /* \"#utility.yul\":42638:42675   */\n      mstore\n        /* \"#utility.yul\":42453:42682   */\n      pop\n      jump\t// out\n        /* \"#utility.yul\":42688:42859   */\n    tag_725:\n        /* \"#utility.yul\":42828:42851   */\n      0x70726f706f73616c2068617320657870697265642e0000000000000000000000\n        /* \"#utility.yul\":42824:42825   */\n      0x00\n        /* \"#utility.yul\":42816:42822   */\n      dup3\n        /* \"#utility.yul\":42812:42826   */\n      add\n        /* \"#utility.yul\":42805:42852   */\n      mstore\n        /* \"#utility.yul\":42688:42859   */\n      pop\n      jump\t// out\n        /* \"#utility.yul\":42865:43038   */\n    tag_730:\n        /* \"#utility.yul\":43005:43030   */\n      0x566f7465206973206e6f7420696e2070726f6772657373000000000000000000\n        /* \"#utility.yul\":43001:43002   */\n      0x00\n        /* \"#utility.yul\":42993:42999   */\n      dup3\n        /* \"#utility.yul\":42989:43003   */\n      add\n        /* \"#utility.yul\":42982:43031   */\n      mstore\n        /* \"#utility.yul\":42865:43038   */\n      pop\n      jump\t// out\n        /* \"#utility.yul\":43044:43217   */\n    tag_735:\n        /* \"#utility.yul\":43184:43209   */\n      0x416363657373436f6e74726f6c3a206163636f756e7420000000000000000000\n        /* \"#utility.yul\":43180:43181   */\n      0x00\n        /* \"#utility.yul\":43172:43178   */\n      dup3\n        /* \"#utility.yul\":43168:43182   */\n      add\n        /* \"#utility.yul\":43161:43210   */\n      mstore\n        /* \"#utility.yul\":43044:43217   */\n      pop\n      jump\t// out\n        /* \"#utility.yul\":43223:43445   */\n    tag_740:\n        /* \"#utility.yul\":43363:43397   */\n      0x7573657220616c726561647920766f746564206f6e20746869732070726f706f\n        /* \"#utility.yul\":43359:43360   */\n      0x00\n        /* \"#utility.yul\":43351:43357   */\n      dup3\n        /* \"#utility.yul\":43347:43361   */\n      add\n        /* \"#utility.yul\":43340:43398   */\n      mstore\n        /* \"#utility.yul\":43432:43437   */\n      0x73616c0000000000000000000000000000000000000000000000000000000000\n        /* \"#utility.yul\":43427:43429   */\n      0x20\n        /* \"#utility.yul\":43419:43425   */\n      dup3\n        /* \"#utility.yul\":43415:43430   */\n      add\n        /* \"#utility.yul\":43408:43438   */\n      mstore\n        /* \"#utility.yul\":43223:43445   */\n      pop\n      jump\t// out\n        /* \"#utility.yul\":43451:43618   */\n    tag_745:\n        /* \"#utility.yul\":43591:43610   */\n      0x206973206d697373696e6720726f6c6520000000000000000000000000000000\n        /* \"#utility.yul\":43587:43588   */\n      0x00\n        /* \"#utility.yul\":43579:43585   */\n      dup3\n        /* \"#utility.yul\":43575:43589   */\n      add\n        /* \"#utility.yul\":43568:43611   */\n      mstore\n        /* \"#utility.yul\":43451:43618   */\n      pop\n      jump\t// out\n        /* \"#utility.yul\":43624:43858   */\n    tag_750:\n        /* \"#utility.yul\":43764:43798   */\n      0x416363657373436f6e74726f6c3a2063616e206f6e6c792072656e6f756e6365\n        /* \"#utility.yul\":43760:43761   */\n      0x00\n        /* \"#utility.yul\":43752:43758   */\n      dup3\n        /* \"#utility.yul\":43748:43762   */\n      add\n        /* \"#utility.yul\":43741:43799   */\n      mstore\n        /* \"#utility.yul\":43833:43850   */\n      0x20726f6c657320666f722073656c660000000000000000000000000000000000\n        /* \"#utility.yul\":43828:43830   */\n      0x20\n        /* \"#utility.yul\":43820:43826   */\n      dup3\n        /* \"#utility.yul\":43816:43831   */\n      add\n        /* \"#utility.yul\":43809:43851   */\n      mstore\n        /* \"#utility.yul\":43624:43858   */\n      pop\n      jump\t// out\n        /* \"#utility.yul\":43864:43988   */\n    tag_893:\n        /* \"#utility.yul\":43956:43957   */\n      0x03\n        /* \"#utility.yul\":43949:43954   */\n      dup2\n        /* \"#utility.yul\":43946:43958   */\n      lt\n        /* \"#utility.yul\":43936:43982   */\n      tag_954\n      jumpi\n        /* \"#utility.yul\":43962:43980   */\n      tag_955\n      tag_187\n      jump\t// in\n    tag_955:\n        /* \"#utility.yul\":43936:43982   */\n    tag_954:\n        /* \"#utility.yul\":43864:43988   */\n      pop\n      jump\t// out\n        /* \"#utility.yul\":43994:44116   */\n    tag_485:\n        /* \"#utility.yul\":44067:44091   */\n      tag_957\n        /* \"#utility.yul\":44085:44090   */\n      dup2\n        /* \"#utility.yul\":44067:44091   */\n      tag_590\n      jump\t// in\n    tag_957:\n        /* \"#utility.yul\":44060:44065   */\n      dup2\n        /* \"#utility.yul\":44057:44092   */\n      eq\n        /* \"#utility.yul\":44047:44110   */\n      tag_958\n      jumpi\n        /* \"#utility.yul\":44106:44107   */\n      0x00\n        /* \"#utility.yul\":44103:44104   */\n      dup1\n        /* \"#utility.yul\":44096:44108   */\n      revert\n        /* \"#utility.yul\":44047:44110   */\n    tag_958:\n        /* \"#utility.yul\":43994:44116   */\n      pop\n      jump\t// out\n        /* \"#utility.yul\":44122:44244   */\n    tag_504:\n        /* \"#utility.yul\":44195:44219   */\n      tag_960\n        /* \"#utility.yul\":44213:44218   */\n      dup2\n        /* \"#utility.yul\":44195:44219   */\n      tag_639\n      jump\t// in\n    tag_960:\n        /* \"#utility.yul\":44188:44193   */\n      dup2\n        /* \"#utility.yul\":44185:44220   */\n      eq\n        /* \"#utility.yul\":44175:44238   */\n      tag_961\n      jumpi\n        /* \"#utility.yul\":44234:44235   */\n      0x00\n        /* \"#utility.yul\":44231:44232   */\n      dup1\n        /* \"#utility.yul\":44224:44236   */\n      revert\n        /* \"#utility.yul\":44175:44238   */\n    tag_961:\n        /* \"#utility.yul\":44122:44244   */\n      pop\n      jump\t// out\n        /* \"#utility.yul\":44250:44370   */\n    tag_508:\n        /* \"#utility.yul\":44322:44345   */\n      tag_963\n        /* \"#utility.yul\":44339:44344   */\n      dup2\n        /* \"#utility.yul\":44322:44345   */\n      tag_888\n      jump\t// in\n    tag_963:\n        /* \"#utility.yul\":44315:44320   */\n      dup2\n        /* \"#utility.yul\":44312:44346   */\n      eq\n        /* \"#utility.yul\":44302:44364   */\n      tag_964\n      jumpi\n        /* \"#utility.yul\":44360:44361   */\n      0x00\n        /* \"#utility.yul\":44357:44358   */\n      dup1\n        /* \"#utility.yul\":44350:44362   */\n      revert\n        /* \"#utility.yul\":44302:44364   */\n    tag_964:\n        /* \"#utility.yul\":44250:44370   */\n      pop\n      jump\t// out\n        /* \"#utility.yul\":44376:44498   */\n    tag_519:\n        /* \"#utility.yul\":44449:44473   */\n      tag_966\n        /* \"#utility.yul\":44467:44472   */\n      dup2\n        /* \"#utility.yul\":44449:44473   */\n      tag_753\n      jump\t// in\n    tag_966:\n        /* \"#utility.yul\":44442:44447   */\n      dup2\n        /* \"#utility.yul\":44439:44474   */\n      eq\n        /* \"#utility.yul\":44429:44492   */\n      tag_967\n      jumpi\n        /* \"#utility.yul\":44488:44489   */\n      0x00\n        /* \"#utility.yul\":44485:44486   */\n      dup1\n        /* \"#utility.yul\":44478:44490   */\n      revert\n        /* \"#utility.yul\":44429:44492   */\n    tag_967:\n        /* \"#utility.yul\":44376:44498   */\n      pop\n      jump\t// out\n\n    auxdata: 0xa2646970667358221220c3ff09484d262ef13168ac9c61f23e50b55a931c2c1f6e5401ea9f657a01503364736f6c63430008070033\n}\n",
				"bytecode": {
					"linkReferences": {},
					"object": "60806040523480156200001157600080fd5b5062000032620000266200011560201b60201c565b6200011d60201b60201c565b6040518060400160405280600181526020017f5600000000000000000000000000000000000000000000000000000000000000815250600390805190602001906200007f929190620001e1565b506040518060400160405280600681526020017f566f74696e67000000000000000000000000000000000000000000000000000081525060049080519060200190620000cd929190620001e1565b5033600860006101000a81548173ffffffffffffffffffffffffffffffffffffffff021916908373ffffffffffffffffffffffffffffffffffffffff160217905550620002f6565b600033905090565b60008060009054906101000a900473ffffffffffffffffffffffffffffffffffffffff169050816000806101000a81548173ffffffffffffffffffffffffffffffffffffffff021916908373ffffffffffffffffffffffffffffffffffffffff1602179055508173ffffffffffffffffffffffffffffffffffffffff168173ffffffffffffffffffffffffffffffffffffffff167f8be0079c531659141344cd1fd0a4f28419497f9722a3daafe3b4186f6b6457e060405160405180910390a35050565b828054620001ef9062000291565b90600052602060002090601f0160209004810192826200021357600085556200025f565b82601f106200022e57805160ff19168380011785556200025f565b828001600101855582156200025f579182015b828111156200025e57825182559160200191906001019062000241565b5b5090506200026e919062000272565b5090565b5b808211156200028d57600081600090555060010162000273565b5090565b60006002820490506001821680620002aa57607f821691505b60208210811415620002c157620002c0620002c7565b5b50919050565b7f4e487b7100000000000000000000000000000000000000000000000000000000600052602260045260246000fd5b613a2180620003066000396000f3fe608060405234801561001057600080fd5b50600436106101c45760003560e01c80635fc48d7e116100f9578063ab15022611610097578063c08cc02d11610071578063c08cc02d14610544578063d1dbe7d814610562578063d547741f14610596578063f2fde38b146105b2576101c4565b8063ab150226146104d5578063b93a89f7146104f3578063be747c1c14610526576101c4565b80638da5cb5b116100d35780638da5cb5b1461044b57806391d148541461046957806395d89b4114610499578063a217fddf146104b7576101c4565b80635fc48d7e146103e157806370a0823114610411578063715018a614610441576101c4565b80632fa48e9e11610166578063401853b711610140578063401853b71461034957806340c10f19146103795780634c3bd9d6146103955780634d5f9eba146103b1576101c4565b80632fa48e9e146102e157806336568abe146102fd5780633989ae3414610319576101c4565b80631840f0ca116101a25780631840f0ca14610247578063248a9ca3146102795780632d5e9d29146102a95780632f2ff15d146102c5576101c4565b806301ffc9a7146101c957806306fdde03146101f95780630f39ee7214610217575b600080fd5b6101e360048036038101906101de9190612615565b6105ce565b6040516101f09190612e13565b60405180910390f35b610201610648565b60405161020e9190612e64565b60405180910390f35b610231600480360381019061022c91906127a0565b6106d6565b60405161023e9190613079565b60405180910390f35b610261600480360381019061025c91906126d7565b61070b565b60405161027093929190613094565b60405180910390f35b610293600480360381019061028e91906125a8565b61087d565b6040516102a09190612e2e565b60405180910390f35b6102c360048036038101906102be91906126d7565b61089d565b005b6102df60048036038101906102da91906125d5565b610a0f565b005b6102fb60048036038101906102f69190612744565b610a30565b005b610317600480360381019061031291906125d5565b610e4f565b005b610333600480360381019061032e9190612642565b610ed2565b6040516103409190613079565b60405180910390f35b610363600480360381019061035e91906126d7565b611146565b6040516103709190612e49565b60405180910390f35b610393600480360381019061038e9190612568565b6111c6565b005b6103af60048036038101906103aa91906126d7565b6112f2565b005b6103cb60048036038101906103c691906126d7565b611464565b6040516103d89190613079565b60405180910390f35b6103fb60048036038101906103f69190612704565b6114d7565b6040516104089190612e13565b60405180910390f35b61042b6004803603810190610426919061253b565b611598565b6040516104389190613079565b60405180910390f35b6104496115e1565b005b6104536115f5565b6040516104609190612d09565b60405180910390f35b610483600480360381019061047e91906125d5565b61161e565b6040516104909190612e13565b60405180910390f35b6104a1611689565b6040516104ae9190612e64565b60405180910390f35b6104bf611717565b6040516104cc9190612e2e565b60405180910390f35b6104dd61171e565b6040516104ea9190612e13565b60405180910390f35b61050d600480360381019061050891906126d7565b611787565b60405161051d9493929190612e86565b60405180910390f35b61052e6119f8565b60405161053b9190613079565b60405180910390f35b61054c6119fe565b6040516105599190613079565b60405180910390f35b61057c600480360381019061057791906126d7565b611a08565b60405161058d959493929190612d24565b60405180910390f35b6105b060048036038101906105ab91906125d5565b611af3565b005b6105cc60048036038101906105c7919061253b565b611b14565b005b60007f7965db0b000000000000000000000000000000000000000000000000000000007bffffffffffffffffffffffffffffffffffffffffffffffffffffffff1916827bffffffffffffffffffffffffffffffffffffffffffffffffffffffff19161480610641575061064082611b98565b5b9050919050565b600480546106559061349d565b80601f01602080910402602001604051908101604052809291908181526020018280546106819061349d565b80156106ce5780601f106106a3576101008083540402835291602001916106ce565b820191906000526020600020905b8154815290600101906020018083116106b157829003601f168201915b505050505081565b600060076000848152602001908152602001600020600601600083815260200190815260200160002060010154905092915050565b60008060606000600760008681526020019081526020016000206004015490506000806000600190505b8381116107b15782600760008a81526020019081526020016000206006016000838152602001908152602001600020600101541061079e576007600089815260200190815260200160002060060160008281526020019081526020016000206001015492508091505b80806107a990613500565b915050610735565b50600060076000898152602001908152602001600020600601600083815260200190815260200160002060000180546107e99061349d565b80601f01602080910402602001604051908101604052809291908181526020018280546108159061349d565b80156108625780601f1061083757610100808354040283529160200191610862565b820191906000526020600020905b81548152906001019060200180831161084557829003601f168201915b50505050509050818382965096509650505050509193909250565b600060016000838152602001908152602001600020600101549050919050565b806000811180156108b057506006548111155b6108ef576040517f08c379a00000000000000000000000000000000000000000000000000000000081526004016108e690612f39565b60405180910390fd5b6108f7611c02565b6000600281111561090b5761090a613578565b5b6007600084815260200190815260200160002060000160149054906101000a900460ff16600281111561094157610940613578565b5b14610981576040517f08c379a000000000000000000000000000000000000000000000000000000000815260040161097890613019565b60405180910390fd5b61098a82611464565b4210156109cc576040517f08c379a00000000000000000000000000000000000000000000000000000000081526004016109c390612fb9565b60405180910390fd5b60016007600084815260200190815260200160002060000160146101000a81548160ff02191690836002811115610a0657610a05613578565b5b02179055505050565b610a188261087d565b610a2181611c80565b610a2b8383611c94565b505050565b81600081118015610a4357506006548111155b610a82576040517f08c379a0000000000000000000000000000000000000000000000000000000008152600401610a7990612f39565b60405180910390fd5b60006002811115610a9657610a95613578565b5b610a9f84611146565b6002811115610ab157610ab0613578565b5b14610af1576040517f08c379a0000000000000000000000000000000000000000000000000000000008152600401610ae890612ff9565b60405180910390fd5b610afb83336114d7565b15610b3b576040517f08c379a0000000000000000000000000000000000000000000000000000000008152600401610b3290613039565b60405180910390fd5b42610b4584611464565b11610b85576040517f08c379a0000000000000000000000000000000000000000000000000000000008152600401610b7c90612fd9565b60405180910390fd5b6000600760008581526020019081526020016000209050600080600190505b84518111610c795784600182610bba919061335a565b81518110610bcb57610bca6135d6565b5b60200260200101518360060160008381526020019081526020016000206001016000828254610bfa91906132aa565b9250508190555084600182610c0f919061335a565b81518110610c2057610c1f6135d6565b5b602002602001015185600183610c36919061335a565b81518110610c4757610c466135d6565b5b6020026020010151610c599190613300565b82610c6491906132aa565b91508080610c7190613500565b915050610ba4565b50610ccc81600560003373ffffffffffffffffffffffffffffffffffffffff1673ffffffffffffffffffffffffffffffffffffffff16815260200190815260200160002054611d7490919063ffffffff16565b600560003373ffffffffffffffffffffffffffffffffffffffff1673ffffffffffffffffffffffffffffffffffffffff168152602001908152602001600020819055506040518060400160405280600115158152602001858152508260050160003373ffffffffffffffffffffffffffffffffffffffff1673ffffffffffffffffffffffffffffffffffffffff16815260200190815260200160002060008201518160000160006101000a81548160ff0219169083151502179055506020820151816001019080519060200190610da4929190612227565b5090505081600201339080600181540180825580915050600190039060005260206000200160009091909190916101000a81548173ffffffffffffffffffffffffffffffffffffffff021916908373ffffffffffffffffffffffffffffffffffffffff1602179055507f73ab51df610edc81f5551eeb367d093666ac5ba1f45288102ff95f0db861724a338686604051610e4093929190612dd5565b60405180910390a15050505050565b610e57611d8a565b73ffffffffffffffffffffffffffffffffffffffff168173ffffffffffffffffffffffffffffffffffffffff1614610ec4576040517f08c379a0000000000000000000000000000000000000000000000000000000008152600401610ebb90613059565b60405180910390fd5b610ece8282611d92565b5050565b6000610edc611c02565b60008211610f1f576040517f08c379a0000000000000000000000000000000000000000000000000000000008152600401610f1690612f59565b60405180910390fd5b60066000815480929190610f3290613500565b919050555060006007600060065481526020019081526020016000209050338160000160006101000a81548173ffffffffffffffffffffffffffffffffffffffff021916908373ffffffffffffffffffffffffffffffffffffffff16021790555060008160000160146101000a81548160ff02191690836002811115610fbb57610fba613578565b5b0217905550600183603c610fcf9190613300565b610fd99190613300565b42610fe491906132aa565b81600301819055508686826001019190610fff929190612274565b5084849050816004018190555060005b858590508110156110f5576040518060400160405280878784818110611038576110376135d6565b5b905060200281019061104a91906130d2565b8080601f016020809104026020016040519081016040528093929190818152602001838380828437600081840152601f19601f82011690508083019250505050505050815260200160008152508260060160006001846110aa91906132aa565b815260200190815260200160002060008201518160000190805190602001906110d49291906122fa565b506020820151816001015590505080806110ed90613500565b91505061100f565b507f812b79dc980087562a07c042555f014502c51aac180824c0546a12989f726b5933888888888860405161112f96959493929190612d7e565b60405180910390a160065491505095945050505050565b60008160008111801561115b57506006548111155b61119a576040517f08c379a000000000000000000000000000000000000000000000000000000000815260040161119190612f39565b60405180910390fd5b6007600084815260200190815260200160002060000160149054906101000a900460ff16915050919050565b6111ce611c02565b600073ffffffffffffffffffffffffffffffffffffffff168273ffffffffffffffffffffffffffffffffffffffff16141561123e576040517f08c379a000000000000000000000000000000000000000000000000000000000815260040161123590612f79565b60405180910390fd5b61125381600254611e7490919063ffffffff16565b6002819055506112ab81600560008573ffffffffffffffffffffffffffffffffffffffff1673ffffffffffffffffffffffffffffffffffffffff16815260200190815260200160002054611e7490919063ffffffff16565b600560008473ffffffffffffffffffffffffffffffffffffffff1673ffffffffffffffffffffffffffffffffffffffff168152602001908152602001600020819055505050565b8060008111801561130557506006548111155b611344576040517f08c379a000000000000000000000000000000000000000000000000000000000815260040161133b90612f39565b60405180910390fd5b61134c611c02565b600160028111156113605761135f613578565b5b6007600084815260200190815260200160002060000160149054906101000a900460ff16600281111561139657611395613578565b5b146113d6576040517f08c379a00000000000000000000000000000000000000000000000000000000081526004016113cd90612f19565b60405180910390fd5b6113df82611464565b421015611421576040517f08c379a000000000000000000000000000000000000000000000000000000000815260040161141890612fb9565b60405180910390fd5b60026007600084815260200190815260200160002060000160146101000a81548160ff0219169083600281111561145b5761145a613578565b5b02179055505050565b60008160008111801561147957506006548111155b6114b8576040517f08c379a00000000000000000000000000000000000000000000000000000000081526004016114af90612f39565b60405180910390fd5b6007600084815260200190815260200160002060030154915050919050565b6000826000811180156114ec57506006548111155b61152b576040517f08c379a000000000000000000000000000000000000000000000000000000000815260040161152290612f39565b60405180910390fd5b6007600085815260200190815260200160002060050160008473ffffffffffffffffffffffffffffffffffffffff1673ffffffffffffffffffffffffffffffffffffffff16815260200190815260200160002060000160009054906101000a900460ff1691505092915050565b6000600560008373ffffffffffffffffffffffffffffffffffffffff1673ffffffffffffffffffffffffffffffffffffffff168152602001908152602001600020549050919050565b6115e9611c02565b6115f36000611e8a565b565b60008060009054906101000a900473ffffffffffffffffffffffffffffffffffffffff16905090565b60006001600084815260200190815260200160002060000160008373ffffffffffffffffffffffffffffffffffffffff1673ffffffffffffffffffffffffffffffffffffffff16815260200190815260200160002060009054906101000a900460ff16905092915050565b600380546116969061349d565b80601f01602080910402602001604051908101604052809291908181526020018280546116c29061349d565b801561170f5780601f106116e45761010080835404028352916020019161170f565b820191906000526020600020905b8154815290600101906020018083116116f257829003601f168201915b505050505081565b6000801b81565b6000600860009054906101000a900473ffffffffffffffffffffffffffffffffffffffff1673ffffffffffffffffffffffffffffffffffffffff163373ffffffffffffffffffffffffffffffffffffffff16141561177f5760019050611784565b600090505b90565b6060806000806000600760008781526020019081526020016000206004015467ffffffffffffffff8111156117bf576117be613605565b5b6040519080825280602002602001820160405280156117f257816020015b60608152602001906001900390816117dd5790505b5090506000600190505b6007600088815260200190815260200160002060040154811161190957600760008881526020019081526020016000206006016000828152602001908152602001600020600001805461184e9061349d565b80601f016020809104026020016040519081016040528092919081815260200182805461187a9061349d565b80156118c75780601f1061189c576101008083540402835291602001916118c7565b820191906000526020600020905b8154815290600101906020018083116118aa57829003601f168201915b5050505050826001836118da919061335a565b815181106118eb576118ea6135d6565b5b6020026020010181905250808061190190613500565b9150506117fc565b5060076000878152602001908152602001600020600101816007600089815260200190815260200160002060030154600760008a815260200190815260200160002060000160149054906101000a900460ff168380546119689061349d565b80601f01602080910402602001604051908101604052809291908181526020018280546119949061349d565b80156119e15780601f106119b6576101008083540402835291602001916119e1565b820191906000526020600020905b8154815290600101906020018083116119c457829003601f168201915b505050505093509450945094509450509193509193565b60065481565b6000600654905090565b60076020528060005260406000206000915090508060000160009054906101000a900473ffffffffffffffffffffffffffffffffffffffff16908060000160149054906101000a900460ff1690806001018054611a649061349d565b80601f0160208091040260200160405190810160405280929190818152602001828054611a909061349d565b8015611add5780601f10611ab257610100808354040283529160200191611add565b820191906000526020600020905b815481529060010190602001808311611ac057829003601f168201915b5050505050908060030154908060040154905085565b611afc8261087d565b611b0581611c80565b611b0f8383611d92565b505050565b611b1c611c02565b600073ffffffffffffffffffffffffffffffffffffffff168173ffffffffffffffffffffffffffffffffffffffff161415611b8c576040517f08c379a0000000000000000000000000000000000000000000000000000000008152600401611b8390612ef9565b60405180910390fd5b611b9581611e8a565b50565b60007f01ffc9a7000000000000000000000000000000000000000000000000000000007bffffffffffffffffffffffffffffffffffffffffffffffffffffffff1916827bffffffffffffffffffffffffffffffffffffffffffffffffffffffff1916149050919050565b611c0a611d8a565b73ffffffffffffffffffffffffffffffffffffffff16611c286115f5565b73ffffffffffffffffffffffffffffffffffffffff1614611c7e576040517f08c379a0000000000000000000000000000000000000000000000000000000008152600401611c7590612f99565b60405180910390fd5b565b611c9181611c8c611d8a565b611f4e565b50565b611c9e828261161e565b611d7057600180600084815260200190815260200160002060000160008373ffffffffffffffffffffffffffffffffffffffff1673ffffffffffffffffffffffffffffffffffffffff16815260200190815260200160002060006101000a81548160ff021916908315150217905550611d15611d8a565b73ffffffffffffffffffffffffffffffffffffffff168173ffffffffffffffffffffffffffffffffffffffff16837f2f8788117e7eff1d82e926ec794901d17c78024a50270940304540a733656f0d60405160405180910390a45b5050565b60008183611d82919061335a565b905092915050565b600033905090565b611d9c828261161e565b15611e705760006001600084815260200190815260200160002060000160008373ffffffffffffffffffffffffffffffffffffffff1673ffffffffffffffffffffffffffffffffffffffff16815260200190815260200160002060006101000a81548160ff021916908315150217905550611e15611d8a565b73ffffffffffffffffffffffffffffffffffffffff168173ffffffffffffffffffffffffffffffffffffffff16837ff6391f5c32d9c69d2a47ea670b442974b53935d1edc7fd64eb21e047a839171b60405160405180910390a45b5050565b60008183611e8291906132aa565b905092915050565b60008060009054906101000a900473ffffffffffffffffffffffffffffffffffffffff169050816000806101000a81548173ffffffffffffffffffffffffffffffffffffffff021916908373ffffffffffffffffffffffffffffffffffffffff1602179055508173ffffffffffffffffffffffffffffffffffffffff168173ffffffffffffffffffffffffffffffffffffffff167f8be0079c531659141344cd1fd0a4f28419497f9722a3daafe3b4186f6b6457e060405160405180910390a35050565b611f58828261161e565b611fe757611f7d8173ffffffffffffffffffffffffffffffffffffffff166014611feb565b611f8b8360001c6020611feb565b604051602001611f9c929190612ccf565b6040516020818303038152906040526040517f08c379a0000000000000000000000000000000000000000000000000000000008152600401611fde9190612e64565b60405180910390fd5b5050565b606060006002836002611ffe9190613300565b61200891906132aa565b67ffffffffffffffff81111561202157612020613605565b5b6040519080825280601f01601f1916602001820160405280156120535781602001600182028036833780820191505090505b5090507f30000000000000000000000000000000000000000000000000000000000000008160008151811061208b5761208a6135d6565b5b60200101907effffffffffffffffffffffffffffffffffffffffffffffffffffffffffffff1916908160001a9053507f7800000000000000000000000000000000000000000000000000000000000000816001815181106120ef576120ee6135d6565b5b60200101907effffffffffffffffffffffffffffffffffffffffffffffffffffffffffffff1916908160001a9053506000600184600261212f9190613300565b61213991906132aa565b90505b60018111156121d9577f3031323334353637383961626364656600000000000000000000000000000000600f86166010811061217b5761217a6135d6565b5b1a60f81b828281518110612192576121916135d6565b5b60200101907effffffffffffffffffffffffffffffffffffffffffffffffffffffffffffff1916908160001a905350600485901c9450806121d290613473565b905061213c565b506000841461221d576040517f08c379a000000000000000000000000000000000000000000000000000000000815260040161221490612ed9565b60405180910390fd5b8091505092915050565b828054828255906000526020600020908101928215612263579160200282015b82811115612262578251825591602001919060010190612247565b5b5090506122709190612380565b5090565b8280546122809061349d565b90600052602060002090601f0160209004810192826122a257600085556122e9565b82601f106122bb57803560ff19168380011785556122e9565b828001600101855582156122e9579182015b828111156122e85782358255916020019190600101906122cd565b5b5090506122f69190612380565b5090565b8280546123069061349d565b90600052602060002090601f016020900481019282612328576000855561236f565b82601f1061234157805160ff191683800117855561236f565b8280016001018555821561236f579182015b8281111561236e578251825591602001919060010190612353565b5b50905061237c9190612380565b5090565b5b80821115612399576000816000905550600101612381565b5090565b60006123b06123ab8461315a565b613135565b905080838252602082019050828560208602820111156123d3576123d2613652565b5b60005b8581101561240357816123e98882612526565b8452602084019350602083019250506001810190506123d6565b5050509392505050565b60008135905061241c8161398f565b92915050565b60008083601f8401126124385761243761363e565b5b8235905067ffffffffffffffff81111561245557612454613639565b5b60208301915083602082028301111561247157612470613652565b5b9250929050565b600082601f83011261248d5761248c61363e565b5b813561249d84826020860161239d565b91505092915050565b6000813590506124b5816139a6565b92915050565b6000813590506124ca816139bd565b92915050565b60008083601f8401126124e6576124e561363e565b5b8235905067ffffffffffffffff81111561250357612502613639565b5b60208301915083600182028301111561251f5761251e613652565b5b9250929050565b600081359050612535816139d4565b92915050565b60006020828403121561255157612550613666565b5b600061255f8482850161240d565b91505092915050565b6000806040838503121561257f5761257e613666565b5b600061258d8582860161240d565b925050602061259e85828601612526565b9150509250929050565b6000602082840312156125be576125bd613666565b5b60006125cc848285016124a6565b91505092915050565b600080604083850312156125ec576125eb613666565b5b60006125fa858286016124a6565b925050602061260b8582860161240d565b9150509250929050565b60006020828403121561262b5761262a613666565b5b6000612639848285016124bb565b91505092915050565b60008060008060006060868803121561265e5761265d613666565b5b600086013567ffffffffffffffff81111561267c5761267b61365c565b5b612688888289016124d0565b9550955050602086013567ffffffffffffffff8111156126ab576126aa61365c565b5b6126b788828901612422565b935093505060406126ca88828901612526565b9150509295509295909350565b6000602082840312156126ed576126ec613666565b5b60006126fb84828501612526565b91505092915050565b6000806040838503121561271b5761271a613666565b5b600061272985828601612526565b925050602061273a8582860161240d565b9150509250929050565b6000806040838503121561275b5761275a613666565b5b600061276985828601612526565b925050602083013567ffffffffffffffff81111561278a5761278961365c565b5b61279685828601612478565b9150509250929050565b600080604083850312156127b7576127b6613666565b5b60006127c585828601612526565b92505060206127d685828601612526565b9150509250929050565b60006127ed8484846129a7565b90509392505050565b60006128028383612a01565b905092915050565b60006128168383612cb1565b60208301905092915050565b61282b8161338e565b82525050565b600061283d83856131f8565b93508360208402850161284f84613186565b8060005b8781101561289557848403895261286a8284613247565b6128758682846127e0565b9550612880846131d1565b935060208b019a505050600181019050612853565b50829750879450505050509392505050565b60006128b2826131b0565b6128bc81856131f8565b9350836020820285016128ce85613190565b8060005b8581101561290a57848403895281516128eb85826127f6565b94506128f6836131de565b925060208a019950506001810190506128d2565b50829750879550505050505092915050565b6000612927826131bb565b6129318185613209565b935061293c836131a0565b8060005b8381101561296d578151612954888261280a565b975061295f836131eb565b925050600181019050612940565b5085935050505092915050565b612983816133a0565b82525050565b612992816133ac565b82525050565b6129a18161341f565b82525050565b60006129b3838561321a565b93506129c0838584613431565b6129c98361366b565b840190509392505050565b60006129e0838561322b565b93506129ed838584613431565b6129f68361366b565b840190509392505050565b6000612a0c826131c6565b612a16818561321a565b9350612a26818560208601613440565b612a2f8161366b565b840191505092915050565b6000612a45826131c6565b612a4f818561322b565b9350612a5f818560208601613440565b612a688161366b565b840191505092915050565b6000612a7e826131c6565b612a88818561323c565b9350612a98818560208601613440565b80840191505092915050565b6000612ab160208361322b565b9150612abc8261367c565b602082019050919050565b6000612ad460268361322b565b9150612adf826136a5565b604082019050919050565b6000612af7601b8361322b565b9150612b02826136f4565b602082019050919050565b6000612b1a60178361322b565b9150612b258261371d565b602082019050919050565b6000612b3d601d8361322b565b9150612b4882613746565b602082019050919050565b6000612b6060198361322b565b9150612b6b8261376f565b602082019050919050565b6000612b8360208361322b565b9150612b8e82613798565b602082019050919050565b6000612ba6601d8361322b565b9150612bb1826137c1565b602082019050919050565b6000612bc9602a8361322b565b9150612bd4826137ea565b604082019050919050565b6000612bec60158361322b565b9150612bf782613839565b602082019050919050565b6000612c0f60178361322b565b9150612c1a82613862565b602082019050919050565b6000612c3260178361323c565b9150612c3d8261388b565b601782019050919050565b6000612c5560238361322b565b9150612c60826138b4565b604082019050919050565b6000612c7860118361323c565b9150612c8382613903565b601182019050919050565b6000612c9b602f8361322b565b9150612ca68261392c565b604082019050919050565b612cba81613415565b82525050565b612cc981613415565b82525050565b6000612cda82612c25565b9150612ce68285612a73565b9150612cf182612c6b565b9150612cfd8284612a73565b91508190509392505050565b6000602082019050612d1e6000830184612822565b92915050565b600060a082019050612d396000830188612822565b612d466020830187612998565b8181036040830152612d588186612a3a565b9050612d676060830185612cc0565b612d746080830184612cc0565b9695505050505050565b6000608082019050612d936000830189612822565b8181036020830152612da68187896129d4565b90508181036040830152612dbb818587612831565b9050612dca6060830184612cc0565b979650505050505050565b6000606082019050612dea6000830186612822565b612df76020830185612cc0565b8181036040830152612e09818461291c565b9050949350505050565b6000602082019050612e28600083018461297a565b92915050565b6000602082019050612e436000830184612989565b92915050565b6000602082019050612e5e6000830184612998565b92915050565b60006020820190508181036000830152612e7e8184612a3a565b905092915050565b60006080820190508181036000830152612ea08187612a3a565b90508181036020830152612eb481866128a7565b9050612ec36040830185612cc0565b612ed06060830184612998565b95945050505050565b60006020820190508181036000830152612ef281612aa4565b9050919050565b60006020820190508181036000830152612f1281612ac7565b9050919050565b60006020820190508181036000830152612f3281612aea565b9050919050565b60006020820190508181036000830152612f5281612b0d565b9050919050565b60006020820190508181036000830152612f7281612b30565b9050919050565b60006020820190508181036000830152612f9281612b53565b9050919050565b60006020820190508181036000830152612fb281612b76565b9050919050565b60006020820190508181036000830152612fd281612b99565b9050919050565b60006020820190508181036000830152612ff281612bbc565b9050919050565b6000602082019050818103600083015261301281612bdf565b9050919050565b6000602082019050818103600083015261303281612c02565b9050919050565b6000602082019050818103600083015261305281612c48565b9050919050565b6000602082019050818103600083015261307281612c8e565b9050919050565b600060208201905061308e6000830184612cc0565b92915050565b60006060820190506130a96000830186612cc0565b6130b66020830185612cc0565b81810360408301526130c88184612a3a565b9050949350505050565b600080833560016020038436030381126130ef576130ee613648565b5b80840192508235915067ffffffffffffffff82111561311157613110613643565b5b60208301925060018202360383131561312d5761312c613657565b5b509250929050565b600061313f613150565b905061314b82826134cf565b919050565b6000604051905090565b600067ffffffffffffffff82111561317557613174613605565b5b602082029050602081019050919050565b6000819050919050565b6000819050602082019050919050565b6000819050602082019050919050565b600081519050919050565b600081519050919050565b600081519050919050565b6000602082019050919050565b6000602082019050919050565b6000602082019050919050565b600082825260208201905092915050565b600082825260208201905092915050565b600082825260208201905092915050565b600082825260208201905092915050565b600081905092915050565b6000808335600160200384360303811261326457613263613661565b5b83810192508235915060208301925067ffffffffffffffff82111561328c5761328b613634565b5b6001820236038413156132a2576132a161364d565b5b509250929050565b60006132b582613415565b91506132c083613415565b9250827fffffffffffffffffffffffffffffffffffffffffffffffffffffffffffffffff038211156132f5576132f4613549565b5b828201905092915050565b600061330b82613415565b915061331683613415565b9250817fffffffffffffffffffffffffffffffffffffffffffffffffffffffffffffffff048311821515161561334f5761334e613549565b5b828202905092915050565b600061336582613415565b915061337083613415565b92508282101561338357613382613549565b5b828203905092915050565b6000613399826133f5565b9050919050565b60008115159050919050565b6000819050919050565b60007fffffffff0000000000000000000000000000000000000000000000000000000082169050919050565b60008190506133f08261397b565b919050565b600073ffffffffffffffffffffffffffffffffffffffff82169050919050565b6000819050919050565b600061342a826133e2565b9050919050565b82818337600083830152505050565b60005b8381101561345e578082015181840152602081019050613443565b8381111561346d576000848401525b50505050565b600061347e82613415565b9150600082141561349257613491613549565b5b600182039050919050565b600060028204905060018216806134b557607f821691505b602082108114156134c9576134c86135a7565b5b50919050565b6134d88261366b565b810181811067ffffffffffffffff821117156134f7576134f6613605565b5b80604052505050565b600061350b82613415565b91507fffffffffffffffffffffffffffffffffffffffffffffffffffffffffffffffff82141561353e5761353d613549565b5b600182019050919050565b7f4e487b7100000000000000000000000000000000000000000000000000000000600052601160045260246000fd5b7f4e487b7100000000000000000000000000000000000000000000000000000000600052602160045260246000fd5b7f4e487b7100000000000000000000000000000000000000000000000000000000600052602260045260246000fd5b7f4e487b7100000000000000000000000000000000000000000000000000000000600052603260045260246000fd5b7f4e487b7100000000000000000000000000000000000000000000000000000000600052604160045260246000fd5b600080fd5b600080fd5b600080fd5b600080fd5b600080fd5b600080fd5b600080fd5b600080fd5b600080fd5b600080fd5b600080fd5b6000601f19601f8301169050919050565b7f537472696e67733a20686578206c656e67746820696e73756666696369656e74600082015250565b7f4f776e61626c653a206e6577206f776e657220697320746865207a65726f206160008201527f6464726573730000000000000000000000000000000000000000000000000000602082015250565b7f50726f706f73616c2073686f756c6420626520696e2074616c6c790000000000600082015250565b7f4e6f7420612076616c69642050726f706f73616c204964000000000000000000600082015250565b7f54686520766f74696e6720706572696f642063616e6e6f742062652030000000600082015250565b7f206d696e7420746f20746865207a65726f206164647265737300000000000000600082015250565b7f4f776e61626c653a2063616c6c6572206973206e6f7420746865206f776e6572600082015250565b7f766f74696e6720706572696f6420686173206e6f742065787069726564000000600082015250565b7f666f7220746869732070726f706f73616c2c2074686520766f74696e6720746960008201527f6d65206578706972656400000000000000000000000000000000000000000000602082015250565b7f70726f706f73616c2068617320657870697265642e0000000000000000000000600082015250565b7f566f7465206973206e6f7420696e2070726f6772657373000000000000000000600082015250565b7f416363657373436f6e74726f6c3a206163636f756e7420000000000000000000600082015250565b7f7573657220616c726561647920766f746564206f6e20746869732070726f706f60008201527f73616c0000000000000000000000000000000000000000000000000000000000602082015250565b7f206973206d697373696e6720726f6c6520000000000000000000000000000000600082015250565b7f416363657373436f6e74726f6c3a2063616e206f6e6c792072656e6f756e636560008201527f20726f6c657320666f722073656c660000000000000000000000000000000000602082015250565b6003811061398c5761398b613578565b5b50565b6139988161338e565b81146139a357600080fd5b50565b6139af816133ac565b81146139ba57600080fd5b50565b6139c6816133b6565b81146139d157600080fd5b50565b6139dd81613415565b81146139e857600080fd5b5056fea2646970667358221220c3ff09484d262ef13168ac9c61f23e50b55a931c2c1f6e5401ea9f657a01503364736f6c63430008070033",
					"opcodes": "PUSH1 0x80 PUSH1 0x40 MSTORE CALLVALUE DUP1 ISZERO PUSH3 0x11 JUMPI PUSH1 0x0 DUP1 REVERT JUMPDEST POP PUSH3 0x32 PUSH3 0x26 PUSH3 0x115 PUSH1 0x20 SHL PUSH1 0x20 SHR JUMP JUMPDEST PUSH3 0x11D PUSH1 0x20 SHL PUSH1 0x20 SHR JUMP JUMPDEST PUSH1 0x40 MLOAD DUP1 PUSH1 0x40 ADD PUSH1 0x40 MSTORE DUP1 PUSH1 0x1 DUP2 MSTORE PUSH1 0x20 ADD PUSH32 0x5600000000000000000000000000000000000000000000000000000000000000 DUP2 MSTORE POP PUSH1 0x3 SWAP1 DUP1 MLOAD SWAP1 PUSH1 0x20 ADD SWAP1 PUSH3 0x7F SWAP3 SWAP2 SWAP1 PUSH3 0x1E1 JUMP JUMPDEST POP PUSH1 0x40 MLOAD DUP1 PUSH1 0x40 ADD PUSH1 0x40 MSTORE DUP1 PUSH1 0x6 DUP2 MSTORE PUSH1 0x20 ADD PUSH32 0x566F74696E670000000000000000000000000000000000000000000000000000 DUP2 MSTORE POP PUSH1 0x4 SWAP1 DUP1 MLOAD SWAP1 PUSH1 0x20 ADD SWAP1 PUSH3 0xCD SWAP3 SWAP2 SWAP1 PUSH3 0x1E1 JUMP JUMPDEST POP CALLER PUSH1 0x8 PUSH1 0x0 PUSH2 0x100 EXP DUP2 SLOAD DUP2 PUSH20 0xFFFFFFFFFFFFFFFFFFFFFFFFFFFFFFFFFFFFFFFF MUL NOT AND SWAP1 DUP4 PUSH20 0xFFFFFFFFFFFFFFFFFFFFFFFFFFFFFFFFFFFFFFFF AND MUL OR SWAP1 SSTORE POP PUSH3 0x2F6 JUMP JUMPDEST PUSH1 0x0 CALLER SWAP1 POP SWAP1 JUMP JUMPDEST PUSH1 0x0 DUP1 PUSH1 0x0 SWAP1 SLOAD SWAP1 PUSH2 0x100 EXP SWAP1 DIV PUSH20 0xFFFFFFFFFFFFFFFFFFFFFFFFFFFFFFFFFFFFFFFF AND SWAP1 POP DUP2 PUSH1 0x0 DUP1 PUSH2 0x100 EXP DUP2 SLOAD DUP2 PUSH20 0xFFFFFFFFFFFFFFFFFFFFFFFFFFFFFFFFFFFFFFFF MUL NOT AND SWAP1 DUP4 PUSH20 0xFFFFFFFFFFFFFFFFFFFFFFFFFFFFFFFFFFFFFFFF AND MUL OR SWAP1 SSTORE POP DUP2 PUSH20 0xFFFFFFFFFFFFFFFFFFFFFFFFFFFFFFFFFFFFFFFF AND DUP2 PUSH20 0xFFFFFFFFFFFFFFFFFFFFFFFFFFFFFFFFFFFFFFFF AND PUSH32 0x8BE0079C531659141344CD1FD0A4F28419497F9722A3DAAFE3B4186F6B6457E0 PUSH1 0x40 MLOAD PUSH1 0x40 MLOAD DUP1 SWAP2 SUB SWAP1 LOG3 POP POP JUMP JUMPDEST DUP3 DUP1 SLOAD PUSH3 0x1EF SWAP1 PUSH3 0x291 JUMP JUMPDEST SWAP1 PUSH1 0x0 MSTORE PUSH1 0x20 PUSH1 0x0 KECCAK256 SWAP1 PUSH1 0x1F ADD PUSH1 0x20 SWAP1 DIV DUP2 ADD SWAP3 DUP3 PUSH3 0x213 JUMPI PUSH1 0x0 DUP6 SSTORE PUSH3 0x25F JUMP JUMPDEST DUP3 PUSH1 0x1F LT PUSH3 0x22E JUMPI DUP1 MLOAD PUSH1 0xFF NOT AND DUP4 DUP1 ADD OR DUP6 SSTORE PUSH3 0x25F JUMP JUMPDEST DUP3 DUP1 ADD PUSH1 0x1 ADD DUP6 SSTORE DUP3 ISZERO PUSH3 0x25F JUMPI SWAP2 DUP3 ADD JUMPDEST DUP3 DUP2 GT ISZERO PUSH3 0x25E JUMPI DUP3 MLOAD DUP3 SSTORE SWAP2 PUSH1 0x20 ADD SWAP2 SWAP1 PUSH1 0x1 ADD SWAP1 PUSH3 0x241 JUMP JUMPDEST JUMPDEST POP SWAP1 POP PUSH3 0x26E SWAP2 SWAP1 PUSH3 0x272 JUMP JUMPDEST POP SWAP1 JUMP JUMPDEST JUMPDEST DUP1 DUP3 GT ISZERO PUSH3 0x28D JUMPI PUSH1 0x0 DUP2 PUSH1 0x0 SWAP1 SSTORE POP PUSH1 0x1 ADD PUSH3 0x273 JUMP JUMPDEST POP SWAP1 JUMP JUMPDEST PUSH1 0x0 PUSH1 0x2 DUP3 DIV SWAP1 POP PUSH1 0x1 DUP3 AND DUP1 PUSH3 0x2AA JUMPI PUSH1 0x7F DUP3 AND SWAP2 POP JUMPDEST PUSH1 0x20 DUP3 LT DUP2 EQ ISZERO PUSH3 0x2C1 JUMPI PUSH3 0x2C0 PUSH3 0x2C7 JUMP JUMPDEST JUMPDEST POP SWAP2 SWAP1 POP JUMP JUMPDEST PUSH32 0x4E487B7100000000000000000000000000000000000000000000000000000000 PUSH1 0x0 MSTORE PUSH1 0x22 PUSH1 0x4 MSTORE PUSH1 0x24 PUSH1 0x0 REVERT JUMPDEST PUSH2 0x3A21 DUP1 PUSH3 0x306 PUSH1 0x0 CODECOPY PUSH1 0x0 RETURN INVALID PUSH1 0x80 PUSH1 0x40 MSTORE CALLVALUE DUP1 ISZERO PUSH2 0x10 JUMPI PUSH1 0x0 DUP1 REVERT JUMPDEST POP PUSH1 0x4 CALLDATASIZE LT PUSH2 0x1C4 JUMPI PUSH1 0x0 CALLDATALOAD PUSH1 0xE0 SHR DUP1 PUSH4 0x5FC48D7E GT PUSH2 0xF9 JUMPI DUP1 PUSH4 0xAB150226 GT PUSH2 0x97 JUMPI DUP1 PUSH4 0xC08CC02D GT PUSH2 0x71 JUMPI DUP1 PUSH4 0xC08CC02D EQ PUSH2 0x544 JUMPI DUP1 PUSH4 0xD1DBE7D8 EQ PUSH2 0x562 JUMPI DUP1 PUSH4 0xD547741F EQ PUSH2 0x596 JUMPI DUP1 PUSH4 0xF2FDE38B EQ PUSH2 0x5B2 JUMPI PUSH2 0x1C4 JUMP JUMPDEST DUP1 PUSH4 0xAB150226 EQ PUSH2 0x4D5 JUMPI DUP1 PUSH4 0xB93A89F7 EQ PUSH2 0x4F3 JUMPI DUP1 PUSH4 0xBE747C1C EQ PUSH2 0x526 JUMPI PUSH2 0x1C4 JUMP JUMPDEST DUP1 PUSH4 0x8DA5CB5B GT PUSH2 0xD3 JUMPI DUP1 PUSH4 0x8DA5CB5B EQ PUSH2 0x44B JUMPI DUP1 PUSH4 0x91D14854 EQ PUSH2 0x469 JUMPI DUP1 PUSH4 0x95D89B41 EQ PUSH2 0x499 JUMPI DUP1 PUSH4 0xA217FDDF EQ PUSH2 0x4B7 JUMPI PUSH2 0x1C4 JUMP JUMPDEST DUP1 PUSH4 0x5FC48D7E EQ PUSH2 0x3E1 JUMPI DUP1 PUSH4 0x70A08231 EQ PUSH2 0x411 JUMPI DUP1 PUSH4 0x715018A6 EQ PUSH2 0x441 JUMPI PUSH2 0x1C4 JUMP JUMPDEST DUP1 PUSH4 0x2FA48E9E GT PUSH2 0x166 JUMPI DUP1 PUSH4 0x401853B7 GT PUSH2 0x140 JUMPI DUP1 PUSH4 0x401853B7 EQ PUSH2 0x349 JUMPI DUP1 PUSH4 0x40C10F19 EQ PUSH2 0x379 JUMPI DUP1 PUSH4 0x4C3BD9D6 EQ PUSH2 0x395 JUMPI DUP1 PUSH4 0x4D5F9EBA EQ PUSH2 0x3B1 JUMPI PUSH2 0x1C4 JUMP JUMPDEST DUP1 PUSH4 0x2FA48E9E EQ PUSH2 0x2E1 JUMPI DUP1 PUSH4 0x36568ABE EQ PUSH2 0x2FD JUMPI DUP1 PUSH4 0x3989AE34 EQ PUSH2 0x319 JUMPI PUSH2 0x1C4 JUMP JUMPDEST DUP1 PUSH4 0x1840F0CA GT PUSH2 0x1A2 JUMPI DUP1 PUSH4 0x1840F0CA EQ PUSH2 0x247 JUMPI DUP1 PUSH4 0x248A9CA3 EQ PUSH2 0x279 JUMPI DUP1 PUSH4 0x2D5E9D29 EQ PUSH2 0x2A9 JUMPI DUP1 PUSH4 0x2F2FF15D EQ PUSH2 0x2C5 JUMPI PUSH2 0x1C4 JUMP JUMPDEST DUP1 PUSH4 0x1FFC9A7 EQ PUSH2 0x1C9 JUMPI DUP1 PUSH4 0x6FDDE03 EQ PUSH2 0x1F9 JUMPI DUP1 PUSH4 0xF39EE72 EQ PUSH2 0x217 JUMPI JUMPDEST PUSH1 0x0 DUP1 REVERT JUMPDEST PUSH2 0x1E3 PUSH1 0x4 DUP1 CALLDATASIZE SUB DUP2 ADD SWAP1 PUSH2 0x1DE SWAP2 SWAP1 PUSH2 0x2615 JUMP JUMPDEST PUSH2 0x5CE JUMP JUMPDEST PUSH1 0x40 MLOAD PUSH2 0x1F0 SWAP2 SWAP1 PUSH2 0x2E13 JUMP JUMPDEST PUSH1 0x40 MLOAD DUP1 SWAP2 SUB SWAP1 RETURN JUMPDEST PUSH2 0x201 PUSH2 0x648 JUMP JUMPDEST PUSH1 0x40 MLOAD PUSH2 0x20E SWAP2 SWAP1 PUSH2 0x2E64 JUMP JUMPDEST PUSH1 0x40 MLOAD DUP1 SWAP2 SUB SWAP1 RETURN JUMPDEST PUSH2 0x231 PUSH1 0x4 DUP1 CALLDATASIZE SUB DUP2 ADD SWAP1 PUSH2 0x22C SWAP2 SWAP1 PUSH2 0x27A0 JUMP JUMPDEST PUSH2 0x6D6 JUMP JUMPDEST PUSH1 0x40 MLOAD PUSH2 0x23E SWAP2 SWAP1 PUSH2 0x3079 JUMP JUMPDEST PUSH1 0x40 MLOAD DUP1 SWAP2 SUB SWAP1 RETURN JUMPDEST PUSH2 0x261 PUSH1 0x4 DUP1 CALLDATASIZE SUB DUP2 ADD SWAP1 PUSH2 0x25C SWAP2 SWAP1 PUSH2 0x26D7 JUMP JUMPDEST PUSH2 0x70B JUMP JUMPDEST PUSH1 0x40 MLOAD PUSH2 0x270 SWAP4 SWAP3 SWAP2 SWAP1 PUSH2 0x3094 JUMP JUMPDEST PUSH1 0x40 MLOAD DUP1 SWAP2 SUB SWAP1 RETURN JUMPDEST PUSH2 0x293 PUSH1 0x4 DUP1 CALLDATASIZE SUB DUP2 ADD SWAP1 PUSH2 0x28E SWAP2 SWAP1 PUSH2 0x25A8 JUMP JUMPDEST PUSH2 0x87D JUMP JUMPDEST PUSH1 0x40 MLOAD PUSH2 0x2A0 SWAP2 SWAP1 PUSH2 0x2E2E JUMP JUMPDEST PUSH1 0x40 MLOAD DUP1 SWAP2 SUB SWAP1 RETURN JUMPDEST PUSH2 0x2C3 PUSH1 0x4 DUP1 CALLDATASIZE SUB DUP2 ADD SWAP1 PUSH2 0x2BE SWAP2 SWAP1 PUSH2 0x26D7 JUMP JUMPDEST PUSH2 0x89D JUMP JUMPDEST STOP JUMPDEST PUSH2 0x2DF PUSH1 0x4 DUP1 CALLDATASIZE SUB DUP2 ADD SWAP1 PUSH2 0x2DA SWAP2 SWAP1 PUSH2 0x25D5 JUMP JUMPDEST PUSH2 0xA0F JUMP JUMPDEST STOP JUMPDEST PUSH2 0x2FB PUSH1 0x4 DUP1 CALLDATASIZE SUB DUP2 ADD SWAP1 PUSH2 0x2F6 SWAP2 SWAP1 PUSH2 0x2744 JUMP JUMPDEST PUSH2 0xA30 JUMP JUMPDEST STOP JUMPDEST PUSH2 0x317 PUSH1 0x4 DUP1 CALLDATASIZE SUB DUP2 ADD SWAP1 PUSH2 0x312 SWAP2 SWAP1 PUSH2 0x25D5 JUMP JUMPDEST PUSH2 0xE4F JUMP JUMPDEST STOP JUMPDEST PUSH2 0x333 PUSH1 0x4 DUP1 CALLDATASIZE SUB DUP2 ADD SWAP1 PUSH2 0x32E SWAP2 SWAP1 PUSH2 0x2642 JUMP JUMPDEST PUSH2 0xED2 JUMP JUMPDEST PUSH1 0x40 MLOAD PUSH2 0x340 SWAP2 SWAP1 PUSH2 0x3079 JUMP JUMPDEST PUSH1 0x40 MLOAD DUP1 SWAP2 SUB SWAP1 RETURN JUMPDEST PUSH2 0x363 PUSH1 0x4 DUP1 CALLDATASIZE SUB DUP2 ADD SWAP1 PUSH2 0x35E SWAP2 SWAP1 PUSH2 0x26D7 JUMP JUMPDEST PUSH2 0x1146 JUMP JUMPDEST PUSH1 0x40 MLOAD PUSH2 0x370 SWAP2 SWAP1 PUSH2 0x2E49 JUMP JUMPDEST PUSH1 0x40 MLOAD DUP1 SWAP2 SUB SWAP1 RETURN JUMPDEST PUSH2 0x393 PUSH1 0x4 DUP1 CALLDATASIZE SUB DUP2 ADD SWAP1 PUSH2 0x38E SWAP2 SWAP1 PUSH2 0x2568 JUMP JUMPDEST PUSH2 0x11C6 JUMP JUMPDEST STOP JUMPDEST PUSH2 0x3AF PUSH1 0x4 DUP1 CALLDATASIZE SUB DUP2 ADD SWAP1 PUSH2 0x3AA SWAP2 SWAP1 PUSH2 0x26D7 JUMP JUMPDEST PUSH2 0x12F2 JUMP JUMPDEST STOP JUMPDEST PUSH2 0x3CB PUSH1 0x4 DUP1 CALLDATASIZE SUB DUP2 ADD SWAP1 PUSH2 0x3C6 SWAP2 SWAP1 PUSH2 0x26D7 JUMP JUMPDEST PUSH2 0x1464 JUMP JUMPDEST PUSH1 0x40 MLOAD PUSH2 0x3D8 SWAP2 SWAP1 PUSH2 0x3079 JUMP JUMPDEST PUSH1 0x40 MLOAD DUP1 SWAP2 SUB SWAP1 RETURN JUMPDEST PUSH2 0x3FB PUSH1 0x4 DUP1 CALLDATASIZE SUB DUP2 ADD SWAP1 PUSH2 0x3F6 SWAP2 SWAP1 PUSH2 0x2704 JUMP JUMPDEST PUSH2 0x14D7 JUMP JUMPDEST PUSH1 0x40 MLOAD PUSH2 0x408 SWAP2 SWAP1 PUSH2 0x2E13 JUMP JUMPDEST PUSH1 0x40 MLOAD DUP1 SWAP2 SUB SWAP1 RETURN JUMPDEST PUSH2 0x42B PUSH1 0x4 DUP1 CALLDATASIZE SUB DUP2 ADD SWAP1 PUSH2 0x426 SWAP2 SWAP1 PUSH2 0x253B JUMP JUMPDEST PUSH2 0x1598 JUMP JUMPDEST PUSH1 0x40 MLOAD PUSH2 0x438 SWAP2 SWAP1 PUSH2 0x3079 JUMP JUMPDEST PUSH1 0x40 MLOAD DUP1 SWAP2 SUB SWAP1 RETURN JUMPDEST PUSH2 0x449 PUSH2 0x15E1 JUMP JUMPDEST STOP JUMPDEST PUSH2 0x453 PUSH2 0x15F5 JUMP JUMPDEST PUSH1 0x40 MLOAD PUSH2 0x460 SWAP2 SWAP1 PUSH2 0x2D09 JUMP JUMPDEST PUSH1 0x40 MLOAD DUP1 SWAP2 SUB SWAP1 RETURN JUMPDEST PUSH2 0x483 PUSH1 0x4 DUP1 CALLDATASIZE SUB DUP2 ADD SWAP1 PUSH2 0x47E SWAP2 SWAP1 PUSH2 0x25D5 JUMP JUMPDEST PUSH2 0x161E JUMP JUMPDEST PUSH1 0x40 MLOAD PUSH2 0x490 SWAP2 SWAP1 PUSH2 0x2E13 JUMP JUMPDEST PUSH1 0x40 MLOAD DUP1 SWAP2 SUB SWAP1 RETURN JUMPDEST PUSH2 0x4A1 PUSH2 0x1689 JUMP JUMPDEST PUSH1 0x40 MLOAD PUSH2 0x4AE SWAP2 SWAP1 PUSH2 0x2E64 JUMP JUMPDEST PUSH1 0x40 MLOAD DUP1 SWAP2 SUB SWAP1 RETURN JUMPDEST PUSH2 0x4BF PUSH2 0x1717 JUMP JUMPDEST PUSH1 0x40 MLOAD PUSH2 0x4CC SWAP2 SWAP1 PUSH2 0x2E2E JUMP JUMPDEST PUSH1 0x40 MLOAD DUP1 SWAP2 SUB SWAP1 RETURN JUMPDEST PUSH2 0x4DD PUSH2 0x171E JUMP JUMPDEST PUSH1 0x40 MLOAD PUSH2 0x4EA SWAP2 SWAP1 PUSH2 0x2E13 JUMP JUMPDEST PUSH1 0x40 MLOAD DUP1 SWAP2 SUB SWAP1 RETURN JUMPDEST PUSH2 0x50D PUSH1 0x4 DUP1 CALLDATASIZE SUB DUP2 ADD SWAP1 PUSH2 0x508 SWAP2 SWAP1 PUSH2 0x26D7 JUMP JUMPDEST PUSH2 0x1787 JUMP JUMPDEST PUSH1 0x40 MLOAD PUSH2 0x51D SWAP5 SWAP4 SWAP3 SWAP2 SWAP1 PUSH2 0x2E86 JUMP JUMPDEST PUSH1 0x40 MLOAD DUP1 SWAP2 SUB SWAP1 RETURN JUMPDEST PUSH2 0x52E PUSH2 0x19F8 JUMP JUMPDEST PUSH1 0x40 MLOAD PUSH2 0x53B SWAP2 SWAP1 PUSH2 0x3079 JUMP JUMPDEST PUSH1 0x40 MLOAD DUP1 SWAP2 SUB SWAP1 RETURN JUMPDEST PUSH2 0x54C PUSH2 0x19FE JUMP JUMPDEST PUSH1 0x40 MLOAD PUSH2 0x559 SWAP2 SWAP1 PUSH2 0x3079 JUMP JUMPDEST PUSH1 0x40 MLOAD DUP1 SWAP2 SUB SWAP1 RETURN JUMPDEST PUSH2 0x57C PUSH1 0x4 DUP1 CALLDATASIZE SUB DUP2 ADD SWAP1 PUSH2 0x577 SWAP2 SWAP1 PUSH2 0x26D7 JUMP JUMPDEST PUSH2 0x1A08 JUMP JUMPDEST PUSH1 0x40 MLOAD PUSH2 0x58D SWAP6 SWAP5 SWAP4 SWAP3 SWAP2 SWAP1 PUSH2 0x2D24 JUMP JUMPDEST PUSH1 0x40 MLOAD DUP1 SWAP2 SUB SWAP1 RETURN JUMPDEST PUSH2 0x5B0 PUSH1 0x4 DUP1 CALLDATASIZE SUB DUP2 ADD SWAP1 PUSH2 0x5AB SWAP2 SWAP1 PUSH2 0x25D5 JUMP JUMPDEST PUSH2 0x1AF3 JUMP JUMPDEST STOP JUMPDEST PUSH2 0x5CC PUSH1 0x4 DUP1 CALLDATASIZE SUB DUP2 ADD SWAP1 PUSH2 0x5C7 SWAP2 SWAP1 PUSH2 0x253B JUMP JUMPDEST PUSH2 0x1B14 JUMP JUMPDEST STOP JUMPDEST PUSH1 0x0 PUSH32 0x7965DB0B00000000000000000000000000000000000000000000000000000000 PUSH28 0xFFFFFFFFFFFFFFFFFFFFFFFFFFFFFFFFFFFFFFFFFFFFFFFFFFFFFFFF NOT AND DUP3 PUSH28 0xFFFFFFFFFFFFFFFFFFFFFFFFFFFFFFFFFFFFFFFFFFFFFFFFFFFFFFFF NOT AND EQ DUP1 PUSH2 0x641 JUMPI POP PUSH2 0x640 DUP3 PUSH2 0x1B98 JUMP JUMPDEST JUMPDEST SWAP1 POP SWAP2 SWAP1 POP JUMP JUMPDEST PUSH1 0x4 DUP1 SLOAD PUSH2 0x655 SWAP1 PUSH2 0x349D JUMP JUMPDEST DUP1 PUSH1 0x1F ADD PUSH1 0x20 DUP1 SWAP2 DIV MUL PUSH1 0x20 ADD PUSH1 0x40 MLOAD SWAP1 DUP2 ADD PUSH1 0x40 MSTORE DUP1 SWAP3 SWAP2 SWAP1 DUP2 DUP2 MSTORE PUSH1 0x20 ADD DUP3 DUP1 SLOAD PUSH2 0x681 SWAP1 PUSH2 0x349D JUMP JUMPDEST DUP1 ISZERO PUSH2 0x6CE JUMPI DUP1 PUSH1 0x1F LT PUSH2 0x6A3 JUMPI PUSH2 0x100 DUP1 DUP4 SLOAD DIV MUL DUP4 MSTORE SWAP2 PUSH1 0x20 ADD SWAP2 PUSH2 0x6CE JUMP JUMPDEST DUP3 ADD SWAP2 SWAP1 PUSH1 0x0 MSTORE PUSH1 0x20 PUSH1 0x0 KECCAK256 SWAP1 JUMPDEST DUP2 SLOAD DUP2 MSTORE SWAP1 PUSH1 0x1 ADD SWAP1 PUSH1 0x20 ADD DUP1 DUP4 GT PUSH2 0x6B1 JUMPI DUP3 SWAP1 SUB PUSH1 0x1F AND DUP3 ADD SWAP2 JUMPDEST POP POP POP POP POP DUP2 JUMP JUMPDEST PUSH1 0x0 PUSH1 0x7 PUSH1 0x0 DUP5 DUP2 MSTORE PUSH1 0x20 ADD SWAP1 DUP2 MSTORE PUSH1 0x20 ADD PUSH1 0x0 KECCAK256 PUSH1 0x6 ADD PUSH1 0x0 DUP4 DUP2 MSTORE PUSH1 0x20 ADD SWAP1 DUP2 MSTORE PUSH1 0x20 ADD PUSH1 0x0 KECCAK256 PUSH1 0x1 ADD SLOAD SWAP1 POP SWAP3 SWAP2 POP POP JUMP JUMPDEST PUSH1 0x0 DUP1 PUSH1 0x60 PUSH1 0x0 PUSH1 0x7 PUSH1 0x0 DUP7 DUP2 MSTORE PUSH1 0x20 ADD SWAP1 DUP2 MSTORE PUSH1 0x20 ADD PUSH1 0x0 KECCAK256 PUSH1 0x4 ADD SLOAD SWAP1 POP PUSH1 0x0 DUP1 PUSH1 0x0 PUSH1 0x1 SWAP1 POP JUMPDEST DUP4 DUP2 GT PUSH2 0x7B1 JUMPI DUP3 PUSH1 0x7 PUSH1 0x0 DUP11 DUP2 MSTORE PUSH1 0x20 ADD SWAP1 DUP2 MSTORE PUSH1 0x20 ADD PUSH1 0x0 KECCAK256 PUSH1 0x6 ADD PUSH1 0x0 DUP4 DUP2 MSTORE PUSH1 0x20 ADD SWAP1 DUP2 MSTORE PUSH1 0x20 ADD PUSH1 0x0 KECCAK256 PUSH1 0x1 ADD SLOAD LT PUSH2 0x79E JUMPI PUSH1 0x7 PUSH1 0x0 DUP10 DUP2 MSTORE PUSH1 0x20 ADD SWAP1 DUP2 MSTORE PUSH1 0x20 ADD PUSH1 0x0 KECCAK256 PUSH1 0x6 ADD PUSH1 0x0 DUP3 DUP2 MSTORE PUSH1 0x20 ADD SWAP1 DUP2 MSTORE PUSH1 0x20 ADD PUSH1 0x0 KECCAK256 PUSH1 0x1 ADD SLOAD SWAP3 POP DUP1 SWAP2 POP JUMPDEST DUP1 DUP1 PUSH2 0x7A9 SWAP1 PUSH2 0x3500 JUMP JUMPDEST SWAP2 POP POP PUSH2 0x735 JUMP JUMPDEST POP PUSH1 0x0 PUSH1 0x7 PUSH1 0x0 DUP10 DUP2 MSTORE PUSH1 0x20 ADD SWAP1 DUP2 MSTORE PUSH1 0x20 ADD PUSH1 0x0 KECCAK256 PUSH1 0x6 ADD PUSH1 0x0 DUP4 DUP2 MSTORE PUSH1 0x20 ADD SWAP1 DUP2 MSTORE PUSH1 0x20 ADD PUSH1 0x0 KECCAK256 PUSH1 0x0 ADD DUP1 SLOAD PUSH2 0x7E9 SWAP1 PUSH2 0x349D JUMP JUMPDEST DUP1 PUSH1 0x1F ADD PUSH1 0x20 DUP1 SWAP2 DIV MUL PUSH1 0x20 ADD PUSH1 0x40 MLOAD SWAP1 DUP2 ADD PUSH1 0x40 MSTORE DUP1 SWAP3 SWAP2 SWAP1 DUP2 DUP2 MSTORE PUSH1 0x20 ADD DUP3 DUP1 SLOAD PUSH2 0x815 SWAP1 PUSH2 0x349D JUMP JUMPDEST DUP1 ISZERO PUSH2 0x862 JUMPI DUP1 PUSH1 0x1F LT PUSH2 0x837 JUMPI PUSH2 0x100 DUP1 DUP4 SLOAD DIV MUL DUP4 MSTORE SWAP2 PUSH1 0x20 ADD SWAP2 PUSH2 0x862 JUMP JUMPDEST DUP3 ADD SWAP2 SWAP1 PUSH1 0x0 MSTORE PUSH1 0x20 PUSH1 0x0 KECCAK256 SWAP1 JUMPDEST DUP2 SLOAD DUP2 MSTORE SWAP1 PUSH1 0x1 ADD SWAP1 PUSH1 0x20 ADD DUP1 DUP4 GT PUSH2 0x845 JUMPI DUP3 SWAP1 SUB PUSH1 0x1F AND DUP3 ADD SWAP2 JUMPDEST POP POP POP POP POP SWAP1 POP DUP2 DUP4 DUP3 SWAP7 POP SWAP7 POP SWAP7 POP POP POP POP POP SWAP2 SWAP4 SWAP1 SWAP3 POP JUMP JUMPDEST PUSH1 0x0 PUSH1 0x1 PUSH1 0x0 DUP4 DUP2 MSTORE PUSH1 0x20 ADD SWAP1 DUP2 MSTORE PUSH1 0x20 ADD PUSH1 0x0 KECCAK256 PUSH1 0x1 ADD SLOAD SWAP1 POP SWAP2 SWAP1 POP JUMP JUMPDEST DUP1 PUSH1 0x0 DUP2 GT DUP1 ISZERO PUSH2 0x8B0 JUMPI POP PUSH1 0x6 SLOAD DUP2 GT ISZERO JUMPDEST PUSH2 0x8EF JUMPI PUSH1 0x40 MLOAD PUSH32 0x8C379A000000000000000000000000000000000000000000000000000000000 DUP2 MSTORE PUSH1 0x4 ADD PUSH2 0x8E6 SWAP1 PUSH2 0x2F39 JUMP JUMPDEST PUSH1 0x40 MLOAD DUP1 SWAP2 SUB SWAP1 REVERT JUMPDEST PUSH2 0x8F7 PUSH2 0x1C02 JUMP JUMPDEST PUSH1 0x0 PUSH1 0x2 DUP2 GT ISZERO PUSH2 0x90B JUMPI PUSH2 0x90A PUSH2 0x3578 JUMP JUMPDEST JUMPDEST PUSH1 0x7 PUSH1 0x0 DUP5 DUP2 MSTORE PUSH1 0x20 ADD SWAP1 DUP2 MSTORE PUSH1 0x20 ADD PUSH1 0x0 KECCAK256 PUSH1 0x0 ADD PUSH1 0x14 SWAP1 SLOAD SWAP1 PUSH2 0x100 EXP SWAP1 DIV PUSH1 0xFF AND PUSH1 0x2 DUP2 GT ISZERO PUSH2 0x941 JUMPI PUSH2 0x940 PUSH2 0x3578 JUMP JUMPDEST JUMPDEST EQ PUSH2 0x981 JUMPI PUSH1 0x40 MLOAD PUSH32 0x8C379A000000000000000000000000000000000000000000000000000000000 DUP2 MSTORE PUSH1 0x4 ADD PUSH2 0x978 SWAP1 PUSH2 0x3019 JUMP JUMPDEST PUSH1 0x40 MLOAD DUP1 SWAP2 SUB SWAP1 REVERT JUMPDEST PUSH2 0x98A DUP3 PUSH2 0x1464 JUMP JUMPDEST TIMESTAMP LT ISZERO PUSH2 0x9CC JUMPI PUSH1 0x40 MLOAD PUSH32 0x8C379A000000000000000000000000000000000000000000000000000000000 DUP2 MSTORE PUSH1 0x4 ADD PUSH2 0x9C3 SWAP1 PUSH2 0x2FB9 JUMP JUMPDEST PUSH1 0x40 MLOAD DUP1 SWAP2 SUB SWAP1 REVERT JUMPDEST PUSH1 0x1 PUSH1 0x7 PUSH1 0x0 DUP5 DUP2 MSTORE PUSH1 0x20 ADD SWAP1 DUP2 MSTORE PUSH1 0x20 ADD PUSH1 0x0 KECCAK256 PUSH1 0x0 ADD PUSH1 0x14 PUSH2 0x100 EXP DUP2 SLOAD DUP2 PUSH1 0xFF MUL NOT AND SWAP1 DUP4 PUSH1 0x2 DUP2 GT ISZERO PUSH2 0xA06 JUMPI PUSH2 0xA05 PUSH2 0x3578 JUMP JUMPDEST JUMPDEST MUL OR SWAP1 SSTORE POP POP POP JUMP JUMPDEST PUSH2 0xA18 DUP3 PUSH2 0x87D JUMP JUMPDEST PUSH2 0xA21 DUP2 PUSH2 0x1C80 JUMP JUMPDEST PUSH2 0xA2B DUP4 DUP4 PUSH2 0x1C94 JUMP JUMPDEST POP POP POP JUMP JUMPDEST DUP2 PUSH1 0x0 DUP2 GT DUP1 ISZERO PUSH2 0xA43 JUMPI POP PUSH1 0x6 SLOAD DUP2 GT ISZERO JUMPDEST PUSH2 0xA82 JUMPI PUSH1 0x40 MLOAD PUSH32 0x8C379A000000000000000000000000000000000000000000000000000000000 DUP2 MSTORE PUSH1 0x4 ADD PUSH2 0xA79 SWAP1 PUSH2 0x2F39 JUMP JUMPDEST PUSH1 0x40 MLOAD DUP1 SWAP2 SUB SWAP1 REVERT JUMPDEST PUSH1 0x0 PUSH1 0x2 DUP2 GT ISZERO PUSH2 0xA96 JUMPI PUSH2 0xA95 PUSH2 0x3578 JUMP JUMPDEST JUMPDEST PUSH2 0xA9F DUP5 PUSH2 0x1146 JUMP JUMPDEST PUSH1 0x2 DUP2 GT ISZERO PUSH2 0xAB1 JUMPI PUSH2 0xAB0 PUSH2 0x3578 JUMP JUMPDEST JUMPDEST EQ PUSH2 0xAF1 JUMPI PUSH1 0x40 MLOAD PUSH32 0x8C379A000000000000000000000000000000000000000000000000000000000 DUP2 MSTORE PUSH1 0x4 ADD PUSH2 0xAE8 SWAP1 PUSH2 0x2FF9 JUMP JUMPDEST PUSH1 0x40 MLOAD DUP1 SWAP2 SUB SWAP1 REVERT JUMPDEST PUSH2 0xAFB DUP4 CALLER PUSH2 0x14D7 JUMP JUMPDEST ISZERO PUSH2 0xB3B JUMPI PUSH1 0x40 MLOAD PUSH32 0x8C379A000000000000000000000000000000000000000000000000000000000 DUP2 MSTORE PUSH1 0x4 ADD PUSH2 0xB32 SWAP1 PUSH2 0x3039 JUMP JUMPDEST PUSH1 0x40 MLOAD DUP1 SWAP2 SUB SWAP1 REVERT JUMPDEST TIMESTAMP PUSH2 0xB45 DUP5 PUSH2 0x1464 JUMP JUMPDEST GT PUSH2 0xB85 JUMPI PUSH1 0x40 MLOAD PUSH32 0x8C379A000000000000000000000000000000000000000000000000000000000 DUP2 MSTORE PUSH1 0x4 ADD PUSH2 0xB7C SWAP1 PUSH2 0x2FD9 JUMP JUMPDEST PUSH1 0x40 MLOAD DUP1 SWAP2 SUB SWAP1 REVERT JUMPDEST PUSH1 0x0 PUSH1 0x7 PUSH1 0x0 DUP6 DUP2 MSTORE PUSH1 0x20 ADD SWAP1 DUP2 MSTORE PUSH1 0x20 ADD PUSH1 0x0 KECCAK256 SWAP1 POP PUSH1 0x0 DUP1 PUSH1 0x1 SWAP1 POP JUMPDEST DUP5 MLOAD DUP2 GT PUSH2 0xC79 JUMPI DUP5 PUSH1 0x1 DUP3 PUSH2 0xBBA SWAP2 SWAP1 PUSH2 0x335A JUMP JUMPDEST DUP2 MLOAD DUP2 LT PUSH2 0xBCB JUMPI PUSH2 0xBCA PUSH2 0x35D6 JUMP JUMPDEST JUMPDEST PUSH1 0x20 MUL PUSH1 0x20 ADD ADD MLOAD DUP4 PUSH1 0x6 ADD PUSH1 0x0 DUP4 DUP2 MSTORE PUSH1 0x20 ADD SWAP1 DUP2 MSTORE PUSH1 0x20 ADD PUSH1 0x0 KECCAK256 PUSH1 0x1 ADD PUSH1 0x0 DUP3 DUP3 SLOAD PUSH2 0xBFA SWAP2 SWAP1 PUSH2 0x32AA JUMP JUMPDEST SWAP3 POP POP DUP2 SWAP1 SSTORE POP DUP5 PUSH1 0x1 DUP3 PUSH2 0xC0F SWAP2 SWAP1 PUSH2 0x335A JUMP JUMPDEST DUP2 MLOAD DUP2 LT PUSH2 0xC20 JUMPI PUSH2 0xC1F PUSH2 0x35D6 JUMP JUMPDEST JUMPDEST PUSH1 0x20 MUL PUSH1 0x20 ADD ADD MLOAD DUP6 PUSH1 0x1 DUP4 PUSH2 0xC36 SWAP2 SWAP1 PUSH2 0x335A JUMP JUMPDEST DUP2 MLOAD DUP2 LT PUSH2 0xC47 JUMPI PUSH2 0xC46 PUSH2 0x35D6 JUMP JUMPDEST JUMPDEST PUSH1 0x20 MUL PUSH1 0x20 ADD ADD MLOAD PUSH2 0xC59 SWAP2 SWAP1 PUSH2 0x3300 JUMP JUMPDEST DUP3 PUSH2 0xC64 SWAP2 SWAP1 PUSH2 0x32AA JUMP JUMPDEST SWAP2 POP DUP1 DUP1 PUSH2 0xC71 SWAP1 PUSH2 0x3500 JUMP JUMPDEST SWAP2 POP POP PUSH2 0xBA4 JUMP JUMPDEST POP PUSH2 0xCCC DUP2 PUSH1 0x5 PUSH1 0x0 CALLER PUSH20 0xFFFFFFFFFFFFFFFFFFFFFFFFFFFFFFFFFFFFFFFF AND PUSH20 0xFFFFFFFFFFFFFFFFFFFFFFFFFFFFFFFFFFFFFFFF AND DUP2 MSTORE PUSH1 0x20 ADD SWAP1 DUP2 MSTORE PUSH1 0x20 ADD PUSH1 0x0 KECCAK256 SLOAD PUSH2 0x1D74 SWAP1 SWAP2 SWAP1 PUSH4 0xFFFFFFFF AND JUMP JUMPDEST PUSH1 0x5 PUSH1 0x0 CALLER PUSH20 0xFFFFFFFFFFFFFFFFFFFFFFFFFFFFFFFFFFFFFFFF AND PUSH20 0xFFFFFFFFFFFFFFFFFFFFFFFFFFFFFFFFFFFFFFFF AND DUP2 MSTORE PUSH1 0x20 ADD SWAP1 DUP2 MSTORE PUSH1 0x20 ADD PUSH1 0x0 KECCAK256 DUP2 SWAP1 SSTORE POP PUSH1 0x40 MLOAD DUP1 PUSH1 0x40 ADD PUSH1 0x40 MSTORE DUP1 PUSH1 0x1 ISZERO ISZERO DUP2 MSTORE PUSH1 0x20 ADD DUP6 DUP2 MSTORE POP DUP3 PUSH1 0x5 ADD PUSH1 0x0 CALLER PUSH20 0xFFFFFFFFFFFFFFFFFFFFFFFFFFFFFFFFFFFFFFFF AND PUSH20 0xFFFFFFFFFFFFFFFFFFFFFFFFFFFFFFFFFFFFFFFF AND DUP2 MSTORE PUSH1 0x20 ADD SWAP1 DUP2 MSTORE PUSH1 0x20 ADD PUSH1 0x0 KECCAK256 PUSH1 0x0 DUP3 ADD MLOAD DUP2 PUSH1 0x0 ADD PUSH1 0x0 PUSH2 0x100 EXP DUP2 SLOAD DUP2 PUSH1 0xFF MUL NOT AND SWAP1 DUP4 ISZERO ISZERO MUL OR SWAP1 SSTORE POP PUSH1 0x20 DUP3 ADD MLOAD DUP2 PUSH1 0x1 ADD SWAP1 DUP1 MLOAD SWAP1 PUSH1 0x20 ADD SWAP1 PUSH2 0xDA4 SWAP3 SWAP2 SWAP1 PUSH2 0x2227 JUMP JUMPDEST POP SWAP1 POP POP DUP2 PUSH1 0x2 ADD CALLER SWAP1 DUP1 PUSH1 0x1 DUP2 SLOAD ADD DUP1 DUP3 SSTORE DUP1 SWAP2 POP POP PUSH1 0x1 SWAP1 SUB SWAP1 PUSH1 0x0 MSTORE PUSH1 0x20 PUSH1 0x0 KECCAK256 ADD PUSH1 0x0 SWAP1 SWAP2 SWAP1 SWAP2 SWAP1 SWAP2 PUSH2 0x100 EXP DUP2 SLOAD DUP2 PUSH20 0xFFFFFFFFFFFFFFFFFFFFFFFFFFFFFFFFFFFFFFFF MUL NOT AND SWAP1 DUP4 PUSH20 0xFFFFFFFFFFFFFFFFFFFFFFFFFFFFFFFFFFFFFFFF AND MUL OR SWAP1 SSTORE POP PUSH32 0x73AB51DF610EDC81F5551EEB367D093666AC5BA1F45288102FF95F0DB861724A CALLER DUP7 DUP7 PUSH1 0x40 MLOAD PUSH2 0xE40 SWAP4 SWAP3 SWAP2 SWAP1 PUSH2 0x2DD5 JUMP JUMPDEST PUSH1 0x40 MLOAD DUP1 SWAP2 SUB SWAP1 LOG1 POP POP POP POP POP JUMP JUMPDEST PUSH2 0xE57 PUSH2 0x1D8A JUMP JUMPDEST PUSH20 0xFFFFFFFFFFFFFFFFFFFFFFFFFFFFFFFFFFFFFFFF AND DUP2 PUSH20 0xFFFFFFFFFFFFFFFFFFFFFFFFFFFFFFFFFFFFFFFF AND EQ PUSH2 0xEC4 JUMPI PUSH1 0x40 MLOAD PUSH32 0x8C379A000000000000000000000000000000000000000000000000000000000 DUP2 MSTORE PUSH1 0x4 ADD PUSH2 0xEBB SWAP1 PUSH2 0x3059 JUMP JUMPDEST PUSH1 0x40 MLOAD DUP1 SWAP2 SUB SWAP1 REVERT JUMPDEST PUSH2 0xECE DUP3 DUP3 PUSH2 0x1D92 JUMP JUMPDEST POP POP JUMP JUMPDEST PUSH1 0x0 PUSH2 0xEDC PUSH2 0x1C02 JUMP JUMPDEST PUSH1 0x0 DUP3 GT PUSH2 0xF1F JUMPI PUSH1 0x40 MLOAD PUSH32 0x8C379A000000000000000000000000000000000000000000000000000000000 DUP2 MSTORE PUSH1 0x4 ADD PUSH2 0xF16 SWAP1 PUSH2 0x2F59 JUMP JUMPDEST PUSH1 0x40 MLOAD DUP1 SWAP2 SUB SWAP1 REVERT JUMPDEST PUSH1 0x6 PUSH1 0x0 DUP2 SLOAD DUP1 SWAP3 SWAP2 SWAP1 PUSH2 0xF32 SWAP1 PUSH2 0x3500 JUMP JUMPDEST SWAP2 SWAP1 POP SSTORE POP PUSH1 0x0 PUSH1 0x7 PUSH1 0x0 PUSH1 0x6 SLOAD DUP2 MSTORE PUSH1 0x20 ADD SWAP1 DUP2 MSTORE PUSH1 0x20 ADD PUSH1 0x0 KECCAK256 SWAP1 POP CALLER DUP2 PUSH1 0x0 ADD PUSH1 0x0 PUSH2 0x100 EXP DUP2 SLOAD DUP2 PUSH20 0xFFFFFFFFFFFFFFFFFFFFFFFFFFFFFFFFFFFFFFFF MUL NOT AND SWAP1 DUP4 PUSH20 0xFFFFFFFFFFFFFFFFFFFFFFFFFFFFFFFFFFFFFFFF AND MUL OR SWAP1 SSTORE POP PUSH1 0x0 DUP2 PUSH1 0x0 ADD PUSH1 0x14 PUSH2 0x100 EXP DUP2 SLOAD DUP2 PUSH1 0xFF MUL NOT AND SWAP1 DUP4 PUSH1 0x2 DUP2 GT ISZERO PUSH2 0xFBB JUMPI PUSH2 0xFBA PUSH2 0x3578 JUMP JUMPDEST JUMPDEST MUL OR SWAP1 SSTORE POP PUSH1 0x1 DUP4 PUSH1 0x3C PUSH2 0xFCF SWAP2 SWAP1 PUSH2 0x3300 JUMP JUMPDEST PUSH2 0xFD9 SWAP2 SWAP1 PUSH2 0x3300 JUMP JUMPDEST TIMESTAMP PUSH2 0xFE4 SWAP2 SWAP1 PUSH2 0x32AA JUMP JUMPDEST DUP2 PUSH1 0x3 ADD DUP2 SWAP1 SSTORE POP DUP7 DUP7 DUP3 PUSH1 0x1 ADD SWAP2 SWAP1 PUSH2 0xFFF SWAP3 SWAP2 SWAP1 PUSH2 0x2274 JUMP JUMPDEST POP DUP5 DUP5 SWAP1 POP DUP2 PUSH1 0x4 ADD DUP2 SWAP1 SSTORE POP PUSH1 0x0 JUMPDEST DUP6 DUP6 SWAP1 POP DUP2 LT ISZERO PUSH2 0x10F5 JUMPI PUSH1 0x40 MLOAD DUP1 PUSH1 0x40 ADD PUSH1 0x40 MSTORE DUP1 DUP8 DUP8 DUP5 DUP2 DUP2 LT PUSH2 0x1038 JUMPI PUSH2 0x1037 PUSH2 0x35D6 JUMP JUMPDEST JUMPDEST SWAP1 POP PUSH1 0x20 MUL DUP2 ADD SWAP1 PUSH2 0x104A SWAP2 SWAP1 PUSH2 0x30D2 JUMP JUMPDEST DUP1 DUP1 PUSH1 0x1F ADD PUSH1 0x20 DUP1 SWAP2 DIV MUL PUSH1 0x20 ADD PUSH1 0x40 MLOAD SWAP1 DUP2 ADD PUSH1 0x40 MSTORE DUP1 SWAP4 SWAP3 SWAP2 SWAP1 DUP2 DUP2 MSTORE PUSH1 0x20 ADD DUP4 DUP4 DUP1 DUP3 DUP5 CALLDATACOPY PUSH1 0x0 DUP2 DUP5 ADD MSTORE PUSH1 0x1F NOT PUSH1 0x1F DUP3 ADD AND SWAP1 POP DUP1 DUP4 ADD SWAP3 POP POP POP POP POP POP POP DUP2 MSTORE PUSH1 0x20 ADD PUSH1 0x0 DUP2 MSTORE POP DUP3 PUSH1 0x6 ADD PUSH1 0x0 PUSH1 0x1 DUP5 PUSH2 0x10AA SWAP2 SWAP1 PUSH2 0x32AA JUMP JUMPDEST DUP2 MSTORE PUSH1 0x20 ADD SWAP1 DUP2 MSTORE PUSH1 0x20 ADD PUSH1 0x0 KECCAK256 PUSH1 0x0 DUP3 ADD MLOAD DUP2 PUSH1 0x0 ADD SWAP1 DUP1 MLOAD SWAP1 PUSH1 0x20 ADD SWAP1 PUSH2 0x10D4 SWAP3 SWAP2 SWAP1 PUSH2 0x22FA JUMP JUMPDEST POP PUSH1 0x20 DUP3 ADD MLOAD DUP2 PUSH1 0x1 ADD SSTORE SWAP1 POP POP DUP1 DUP1 PUSH2 0x10ED SWAP1 PUSH2 0x3500 JUMP JUMPDEST SWAP2 POP POP PUSH2 0x100F JUMP JUMPDEST POP PUSH32 0x812B79DC980087562A07C042555F014502C51AAC180824C0546A12989F726B59 CALLER DUP9 DUP9 DUP9 DUP9 DUP9 PUSH1 0x40 MLOAD PUSH2 0x112F SWAP7 SWAP6 SWAP5 SWAP4 SWAP3 SWAP2 SWAP1 PUSH2 0x2D7E JUMP JUMPDEST PUSH1 0x40 MLOAD DUP1 SWAP2 SUB SWAP1 LOG1 PUSH1 0x6 SLOAD SWAP2 POP POP SWAP6 SWAP5 POP POP POP POP POP JUMP JUMPDEST PUSH1 0x0 DUP2 PUSH1 0x0 DUP2 GT DUP1 ISZERO PUSH2 0x115B JUMPI POP PUSH1 0x6 SLOAD DUP2 GT ISZERO JUMPDEST PUSH2 0x119A JUMPI PUSH1 0x40 MLOAD PUSH32 0x8C379A000000000000000000000000000000000000000000000000000000000 DUP2 MSTORE PUSH1 0x4 ADD PUSH2 0x1191 SWAP1 PUSH2 0x2F39 JUMP JUMPDEST PUSH1 0x40 MLOAD DUP1 SWAP2 SUB SWAP1 REVERT JUMPDEST PUSH1 0x7 PUSH1 0x0 DUP5 DUP2 MSTORE PUSH1 0x20 ADD SWAP1 DUP2 MSTORE PUSH1 0x20 ADD PUSH1 0x0 KECCAK256 PUSH1 0x0 ADD PUSH1 0x14 SWAP1 SLOAD SWAP1 PUSH2 0x100 EXP SWAP1 DIV PUSH1 0xFF AND SWAP2 POP POP SWAP2 SWAP1 POP JUMP JUMPDEST PUSH2 0x11CE PUSH2 0x1C02 JUMP JUMPDEST PUSH1 0x0 PUSH20 0xFFFFFFFFFFFFFFFFFFFFFFFFFFFFFFFFFFFFFFFF AND DUP3 PUSH20 0xFFFFFFFFFFFFFFFFFFFFFFFFFFFFFFFFFFFFFFFF AND EQ ISZERO PUSH2 0x123E JUMPI PUSH1 0x40 MLOAD PUSH32 0x8C379A000000000000000000000000000000000000000000000000000000000 DUP2 MSTORE PUSH1 0x4 ADD PUSH2 0x1235 SWAP1 PUSH2 0x2F79 JUMP JUMPDEST PUSH1 0x40 MLOAD DUP1 SWAP2 SUB SWAP1 REVERT JUMPDEST PUSH2 0x1253 DUP2 PUSH1 0x2 SLOAD PUSH2 0x1E74 SWAP1 SWAP2 SWAP1 PUSH4 0xFFFFFFFF AND JUMP JUMPDEST PUSH1 0x2 DUP2 SWAP1 SSTORE POP PUSH2 0x12AB DUP2 PUSH1 0x5 PUSH1 0x0 DUP6 PUSH20 0xFFFFFFFFFFFFFFFFFFFFFFFFFFFFFFFFFFFFFFFF AND PUSH20 0xFFFFFFFFFFFFFFFFFFFFFFFFFFFFFFFFFFFFFFFF AND DUP2 MSTORE PUSH1 0x20 ADD SWAP1 DUP2 MSTORE PUSH1 0x20 ADD PUSH1 0x0 KECCAK256 SLOAD PUSH2 0x1E74 SWAP1 SWAP2 SWAP1 PUSH4 0xFFFFFFFF AND JUMP JUMPDEST PUSH1 0x5 PUSH1 0x0 DUP5 PUSH20 0xFFFFFFFFFFFFFFFFFFFFFFFFFFFFFFFFFFFFFFFF AND PUSH20 0xFFFFFFFFFFFFFFFFFFFFFFFFFFFFFFFFFFFFFFFF AND DUP2 MSTORE PUSH1 0x20 ADD SWAP1 DUP2 MSTORE PUSH1 0x20 ADD PUSH1 0x0 KECCAK256 DUP2 SWAP1 SSTORE POP POP POP JUMP JUMPDEST DUP1 PUSH1 0x0 DUP2 GT DUP1 ISZERO PUSH2 0x1305 JUMPI POP PUSH1 0x6 SLOAD DUP2 GT ISZERO JUMPDEST PUSH2 0x1344 JUMPI PUSH1 0x40 MLOAD PUSH32 0x8C379A000000000000000000000000000000000000000000000000000000000 DUP2 MSTORE PUSH1 0x4 ADD PUSH2 0x133B SWAP1 PUSH2 0x2F39 JUMP JUMPDEST PUSH1 0x40 MLOAD DUP1 SWAP2 SUB SWAP1 REVERT JUMPDEST PUSH2 0x134C PUSH2 0x1C02 JUMP JUMPDEST PUSH1 0x1 PUSH1 0x2 DUP2 GT ISZERO PUSH2 0x1360 JUMPI PUSH2 0x135F PUSH2 0x3578 JUMP JUMPDEST JUMPDEST PUSH1 0x7 PUSH1 0x0 DUP5 DUP2 MSTORE PUSH1 0x20 ADD SWAP1 DUP2 MSTORE PUSH1 0x20 ADD PUSH1 0x0 KECCAK256 PUSH1 0x0 ADD PUSH1 0x14 SWAP1 SLOAD SWAP1 PUSH2 0x100 EXP SWAP1 DIV PUSH1 0xFF AND PUSH1 0x2 DUP2 GT ISZERO PUSH2 0x1396 JUMPI PUSH2 0x1395 PUSH2 0x3578 JUMP JUMPDEST JUMPDEST EQ PUSH2 0x13D6 JUMPI PUSH1 0x40 MLOAD PUSH32 0x8C379A000000000000000000000000000000000000000000000000000000000 DUP2 MSTORE PUSH1 0x4 ADD PUSH2 0x13CD SWAP1 PUSH2 0x2F19 JUMP JUMPDEST PUSH1 0x40 MLOAD DUP1 SWAP2 SUB SWAP1 REVERT JUMPDEST PUSH2 0x13DF DUP3 PUSH2 0x1464 JUMP JUMPDEST TIMESTAMP LT ISZERO PUSH2 0x1421 JUMPI PUSH1 0x40 MLOAD PUSH32 0x8C379A000000000000000000000000000000000000000000000000000000000 DUP2 MSTORE PUSH1 0x4 ADD PUSH2 0x1418 SWAP1 PUSH2 0x2FB9 JUMP JUMPDEST PUSH1 0x40 MLOAD DUP1 SWAP2 SUB SWAP1 REVERT JUMPDEST PUSH1 0x2 PUSH1 0x7 PUSH1 0x0 DUP5 DUP2 MSTORE PUSH1 0x20 ADD SWAP1 DUP2 MSTORE PUSH1 0x20 ADD PUSH1 0x0 KECCAK256 PUSH1 0x0 ADD PUSH1 0x14 PUSH2 0x100 EXP DUP2 SLOAD DUP2 PUSH1 0xFF MUL NOT AND SWAP1 DUP4 PUSH1 0x2 DUP2 GT ISZERO PUSH2 0x145B JUMPI PUSH2 0x145A PUSH2 0x3578 JUMP JUMPDEST JUMPDEST MUL OR SWAP1 SSTORE POP POP POP JUMP JUMPDEST PUSH1 0x0 DUP2 PUSH1 0x0 DUP2 GT DUP1 ISZERO PUSH2 0x1479 JUMPI POP PUSH1 0x6 SLOAD DUP2 GT ISZERO JUMPDEST PUSH2 0x14B8 JUMPI PUSH1 0x40 MLOAD PUSH32 0x8C379A000000000000000000000000000000000000000000000000000000000 DUP2 MSTORE PUSH1 0x4 ADD PUSH2 0x14AF SWAP1 PUSH2 0x2F39 JUMP JUMPDEST PUSH1 0x40 MLOAD DUP1 SWAP2 SUB SWAP1 REVERT JUMPDEST PUSH1 0x7 PUSH1 0x0 DUP5 DUP2 MSTORE PUSH1 0x20 ADD SWAP1 DUP2 MSTORE PUSH1 0x20 ADD PUSH1 0x0 KECCAK256 PUSH1 0x3 ADD SLOAD SWAP2 POP POP SWAP2 SWAP1 POP JUMP JUMPDEST PUSH1 0x0 DUP3 PUSH1 0x0 DUP2 GT DUP1 ISZERO PUSH2 0x14EC JUMPI POP PUSH1 0x6 SLOAD DUP2 GT ISZERO JUMPDEST PUSH2 0x152B JUMPI PUSH1 0x40 MLOAD PUSH32 0x8C379A000000000000000000000000000000000000000000000000000000000 DUP2 MSTORE PUSH1 0x4 ADD PUSH2 0x1522 SWAP1 PUSH2 0x2F39 JUMP JUMPDEST PUSH1 0x40 MLOAD DUP1 SWAP2 SUB SWAP1 REVERT JUMPDEST PUSH1 0x7 PUSH1 0x0 DUP6 DUP2 MSTORE PUSH1 0x20 ADD SWAP1 DUP2 MSTORE PUSH1 0x20 ADD PUSH1 0x0 KECCAK256 PUSH1 0x5 ADD PUSH1 0x0 DUP5 PUSH20 0xFFFFFFFFFFFFFFFFFFFFFFFFFFFFFFFFFFFFFFFF AND PUSH20 0xFFFFFFFFFFFFFFFFFFFFFFFFFFFFFFFFFFFFFFFF AND DUP2 MSTORE PUSH1 0x20 ADD SWAP1 DUP2 MSTORE PUSH1 0x20 ADD PUSH1 0x0 KECCAK256 PUSH1 0x0 ADD PUSH1 0x0 SWAP1 SLOAD SWAP1 PUSH2 0x100 EXP SWAP1 DIV PUSH1 0xFF AND SWAP2 POP POP SWAP3 SWAP2 POP POP JUMP JUMPDEST PUSH1 0x0 PUSH1 0x5 PUSH1 0x0 DUP4 PUSH20 0xFFFFFFFFFFFFFFFFFFFFFFFFFFFFFFFFFFFFFFFF AND PUSH20 0xFFFFFFFFFFFFFFFFFFFFFFFFFFFFFFFFFFFFFFFF AND DUP2 MSTORE PUSH1 0x20 ADD SWAP1 DUP2 MSTORE PUSH1 0x20 ADD PUSH1 0x0 KECCAK256 SLOAD SWAP1 POP SWAP2 SWAP1 POP JUMP JUMPDEST PUSH2 0x15E9 PUSH2 0x1C02 JUMP JUMPDEST PUSH2 0x15F3 PUSH1 0x0 PUSH2 0x1E8A JUMP JUMPDEST JUMP JUMPDEST PUSH1 0x0 DUP1 PUSH1 0x0 SWAP1 SLOAD SWAP1 PUSH2 0x100 EXP SWAP1 DIV PUSH20 0xFFFFFFFFFFFFFFFFFFFFFFFFFFFFFFFFFFFFFFFF AND SWAP1 POP SWAP1 JUMP JUMPDEST PUSH1 0x0 PUSH1 0x1 PUSH1 0x0 DUP5 DUP2 MSTORE PUSH1 0x20 ADD SWAP1 DUP2 MSTORE PUSH1 0x20 ADD PUSH1 0x0 KECCAK256 PUSH1 0x0 ADD PUSH1 0x0 DUP4 PUSH20 0xFFFFFFFFFFFFFFFFFFFFFFFFFFFFFFFFFFFFFFFF AND PUSH20 0xFFFFFFFFFFFFFFFFFFFFFFFFFFFFFFFFFFFFFFFF AND DUP2 MSTORE PUSH1 0x20 ADD SWAP1 DUP2 MSTORE PUSH1 0x20 ADD PUSH1 0x0 KECCAK256 PUSH1 0x0 SWAP1 SLOAD SWAP1 PUSH2 0x100 EXP SWAP1 DIV PUSH1 0xFF AND SWAP1 POP SWAP3 SWAP2 POP POP JUMP JUMPDEST PUSH1 0x3 DUP1 SLOAD PUSH2 0x1696 SWAP1 PUSH2 0x349D JUMP JUMPDEST DUP1 PUSH1 0x1F ADD PUSH1 0x20 DUP1 SWAP2 DIV MUL PUSH1 0x20 ADD PUSH1 0x40 MLOAD SWAP1 DUP2 ADD PUSH1 0x40 MSTORE DUP1 SWAP3 SWAP2 SWAP1 DUP2 DUP2 MSTORE PUSH1 0x20 ADD DUP3 DUP1 SLOAD PUSH2 0x16C2 SWAP1 PUSH2 0x349D JUMP JUMPDEST DUP1 ISZERO PUSH2 0x170F JUMPI DUP1 PUSH1 0x1F LT PUSH2 0x16E4 JUMPI PUSH2 0x100 DUP1 DUP4 SLOAD DIV MUL DUP4 MSTORE SWAP2 PUSH1 0x20 ADD SWAP2 PUSH2 0x170F JUMP JUMPDEST DUP3 ADD SWAP2 SWAP1 PUSH1 0x0 MSTORE PUSH1 0x20 PUSH1 0x0 KECCAK256 SWAP1 JUMPDEST DUP2 SLOAD DUP2 MSTORE SWAP1 PUSH1 0x1 ADD SWAP1 PUSH1 0x20 ADD DUP1 DUP4 GT PUSH2 0x16F2 JUMPI DUP3 SWAP1 SUB PUSH1 0x1F AND DUP3 ADD SWAP2 JUMPDEST POP POP POP POP POP DUP2 JUMP JUMPDEST PUSH1 0x0 DUP1 SHL DUP2 JUMP JUMPDEST PUSH1 0x0 PUSH1 0x8 PUSH1 0x0 SWAP1 SLOAD SWAP1 PUSH2 0x100 EXP SWAP1 DIV PUSH20 0xFFFFFFFFFFFFFFFFFFFFFFFFFFFFFFFFFFFFFFFF AND PUSH20 0xFFFFFFFFFFFFFFFFFFFFFFFFFFFFFFFFFFFFFFFF AND CALLER PUSH20 0xFFFFFFFFFFFFFFFFFFFFFFFFFFFFFFFFFFFFFFFF AND EQ ISZERO PUSH2 0x177F JUMPI PUSH1 0x1 SWAP1 POP PUSH2 0x1784 JUMP JUMPDEST PUSH1 0x0 SWAP1 POP JUMPDEST SWAP1 JUMP JUMPDEST PUSH1 0x60 DUP1 PUSH1 0x0 DUP1 PUSH1 0x0 PUSH1 0x7 PUSH1 0x0 DUP8 DUP2 MSTORE PUSH1 0x20 ADD SWAP1 DUP2 MSTORE PUSH1 0x20 ADD PUSH1 0x0 KECCAK256 PUSH1 0x4 ADD SLOAD PUSH8 0xFFFFFFFFFFFFFFFF DUP2 GT ISZERO PUSH2 0x17BF JUMPI PUSH2 0x17BE PUSH2 0x3605 JUMP JUMPDEST JUMPDEST PUSH1 0x40 MLOAD SWAP1 DUP1 DUP3 MSTORE DUP1 PUSH1 0x20 MUL PUSH1 0x20 ADD DUP3 ADD PUSH1 0x40 MSTORE DUP1 ISZERO PUSH2 0x17F2 JUMPI DUP2 PUSH1 0x20 ADD JUMPDEST PUSH1 0x60 DUP2 MSTORE PUSH1 0x20 ADD SWAP1 PUSH1 0x1 SWAP1 SUB SWAP1 DUP2 PUSH2 0x17DD JUMPI SWAP1 POP JUMPDEST POP SWAP1 POP PUSH1 0x0 PUSH1 0x1 SWAP1 POP JUMPDEST PUSH1 0x7 PUSH1 0x0 DUP9 DUP2 MSTORE PUSH1 0x20 ADD SWAP1 DUP2 MSTORE PUSH1 0x20 ADD PUSH1 0x0 KECCAK256 PUSH1 0x4 ADD SLOAD DUP2 GT PUSH2 0x1909 JUMPI PUSH1 0x7 PUSH1 0x0 DUP9 DUP2 MSTORE PUSH1 0x20 ADD SWAP1 DUP2 MSTORE PUSH1 0x20 ADD PUSH1 0x0 KECCAK256 PUSH1 0x6 ADD PUSH1 0x0 DUP3 DUP2 MSTORE PUSH1 0x20 ADD SWAP1 DUP2 MSTORE PUSH1 0x20 ADD PUSH1 0x0 KECCAK256 PUSH1 0x0 ADD DUP1 SLOAD PUSH2 0x184E SWAP1 PUSH2 0x349D JUMP JUMPDEST DUP1 PUSH1 0x1F ADD PUSH1 0x20 DUP1 SWAP2 DIV MUL PUSH1 0x20 ADD PUSH1 0x40 MLOAD SWAP1 DUP2 ADD PUSH1 0x40 MSTORE DUP1 SWAP3 SWAP2 SWAP1 DUP2 DUP2 MSTORE PUSH1 0x20 ADD DUP3 DUP1 SLOAD PUSH2 0x187A SWAP1 PUSH2 0x349D JUMP JUMPDEST DUP1 ISZERO PUSH2 0x18C7 JUMPI DUP1 PUSH1 0x1F LT PUSH2 0x189C JUMPI PUSH2 0x100 DUP1 DUP4 SLOAD DIV MUL DUP4 MSTORE SWAP2 PUSH1 0x20 ADD SWAP2 PUSH2 0x18C7 JUMP JUMPDEST DUP3 ADD SWAP2 SWAP1 PUSH1 0x0 MSTORE PUSH1 0x20 PUSH1 0x0 KECCAK256 SWAP1 JUMPDEST DUP2 SLOAD DUP2 MSTORE SWAP1 PUSH1 0x1 ADD SWAP1 PUSH1 0x20 ADD DUP1 DUP4 GT PUSH2 0x18AA JUMPI DUP3 SWAP1 SUB PUSH1 0x1F AND DUP3 ADD SWAP2 JUMPDEST POP POP POP POP POP DUP3 PUSH1 0x1 DUP4 PUSH2 0x18DA SWAP2 SWAP1 PUSH2 0x335A JUMP JUMPDEST DUP2 MLOAD DUP2 LT PUSH2 0x18EB JUMPI PUSH2 0x18EA PUSH2 0x35D6 JUMP JUMPDEST JUMPDEST PUSH1 0x20 MUL PUSH1 0x20 ADD ADD DUP2 SWAP1 MSTORE POP DUP1 DUP1 PUSH2 0x1901 SWAP1 PUSH2 0x3500 JUMP JUMPDEST SWAP2 POP POP PUSH2 0x17FC JUMP JUMPDEST POP PUSH1 0x7 PUSH1 0x0 DUP8 DUP2 MSTORE PUSH1 0x20 ADD SWAP1 DUP2 MSTORE PUSH1 0x20 ADD PUSH1 0x0 KECCAK256 PUSH1 0x1 ADD DUP2 PUSH1 0x7 PUSH1 0x0 DUP10 DUP2 MSTORE PUSH1 0x20 ADD SWAP1 DUP2 MSTORE PUSH1 0x20 ADD PUSH1 0x0 KECCAK256 PUSH1 0x3 ADD SLOAD PUSH1 0x7 PUSH1 0x0 DUP11 DUP2 MSTORE PUSH1 0x20 ADD SWAP1 DUP2 MSTORE PUSH1 0x20 ADD PUSH1 0x0 KECCAK256 PUSH1 0x0 ADD PUSH1 0x14 SWAP1 SLOAD SWAP1 PUSH2 0x100 EXP SWAP1 DIV PUSH1 0xFF AND DUP4 DUP1 SLOAD PUSH2 0x1968 SWAP1 PUSH2 0x349D JUMP JUMPDEST DUP1 PUSH1 0x1F ADD PUSH1 0x20 DUP1 SWAP2 DIV MUL PUSH1 0x20 ADD PUSH1 0x40 MLOAD SWAP1 DUP2 ADD PUSH1 0x40 MSTORE DUP1 SWAP3 SWAP2 SWAP1 DUP2 DUP2 MSTORE PUSH1 0x20 ADD DUP3 DUP1 SLOAD PUSH2 0x1994 SWAP1 PUSH2 0x349D JUMP JUMPDEST DUP1 ISZERO PUSH2 0x19E1 JUMPI DUP1 PUSH1 0x1F LT PUSH2 0x19B6 JUMPI PUSH2 0x100 DUP1 DUP4 SLOAD DIV MUL DUP4 MSTORE SWAP2 PUSH1 0x20 ADD SWAP2 PUSH2 0x19E1 JUMP JUMPDEST DUP3 ADD SWAP2 SWAP1 PUSH1 0x0 MSTORE PUSH1 0x20 PUSH1 0x0 KECCAK256 SWAP1 JUMPDEST DUP2 SLOAD DUP2 MSTORE SWAP1 PUSH1 0x1 ADD SWAP1 PUSH1 0x20 ADD DUP1 DUP4 GT PUSH2 0x19C4 JUMPI DUP3 SWAP1 SUB PUSH1 0x1F AND DUP3 ADD SWAP2 JUMPDEST POP POP POP POP POP SWAP4 POP SWAP5 POP SWAP5 POP SWAP5 POP SWAP5 POP POP SWAP2 SWAP4 POP SWAP2 SWAP4 JUMP JUMPDEST PUSH1 0x6 SLOAD DUP2 JUMP JUMPDEST PUSH1 0x0 PUSH1 0x6 SLOAD SWAP1 POP SWAP1 JUMP JUMPDEST PUSH1 0x7 PUSH1 0x20 MSTORE DUP1 PUSH1 0x0 MSTORE PUSH1 0x40 PUSH1 0x0 KECCAK256 PUSH1 0x0 SWAP2 POP SWAP1 POP DUP1 PUSH1 0x0 ADD PUSH1 0x0 SWAP1 SLOAD SWAP1 PUSH2 0x100 EXP SWAP1 DIV PUSH20 0xFFFFFFFFFFFFFFFFFFFFFFFFFFFFFFFFFFFFFFFF AND SWAP1 DUP1 PUSH1 0x0 ADD PUSH1 0x14 SWAP1 SLOAD SWAP1 PUSH2 0x100 EXP SWAP1 DIV PUSH1 0xFF AND SWAP1 DUP1 PUSH1 0x1 ADD DUP1 SLOAD PUSH2 0x1A64 SWAP1 PUSH2 0x349D JUMP JUMPDEST DUP1 PUSH1 0x1F ADD PUSH1 0x20 DUP1 SWAP2 DIV MUL PUSH1 0x20 ADD PUSH1 0x40 MLOAD SWAP1 DUP2 ADD PUSH1 0x40 MSTORE DUP1 SWAP3 SWAP2 SWAP1 DUP2 DUP2 MSTORE PUSH1 0x20 ADD DUP3 DUP1 SLOAD PUSH2 0x1A90 SWAP1 PUSH2 0x349D JUMP JUMPDEST DUP1 ISZERO PUSH2 0x1ADD JUMPI DUP1 PUSH1 0x1F LT PUSH2 0x1AB2 JUMPI PUSH2 0x100 DUP1 DUP4 SLOAD DIV MUL DUP4 MSTORE SWAP2 PUSH1 0x20 ADD SWAP2 PUSH2 0x1ADD JUMP JUMPDEST DUP3 ADD SWAP2 SWAP1 PUSH1 0x0 MSTORE PUSH1 0x20 PUSH1 0x0 KECCAK256 SWAP1 JUMPDEST DUP2 SLOAD DUP2 MSTORE SWAP1 PUSH1 0x1 ADD SWAP1 PUSH1 0x20 ADD DUP1 DUP4 GT PUSH2 0x1AC0 JUMPI DUP3 SWAP1 SUB PUSH1 0x1F AND DUP3 ADD SWAP2 JUMPDEST POP POP POP POP POP SWAP1 DUP1 PUSH1 0x3 ADD SLOAD SWAP1 DUP1 PUSH1 0x4 ADD SLOAD SWAP1 POP DUP6 JUMP JUMPDEST PUSH2 0x1AFC DUP3 PUSH2 0x87D JUMP JUMPDEST PUSH2 0x1B05 DUP2 PUSH2 0x1C80 JUMP JUMPDEST PUSH2 0x1B0F DUP4 DUP4 PUSH2 0x1D92 JUMP JUMPDEST POP POP POP JUMP JUMPDEST PUSH2 0x1B1C PUSH2 0x1C02 JUMP JUMPDEST PUSH1 0x0 PUSH20 0xFFFFFFFFFFFFFFFFFFFFFFFFFFFFFFFFFFFFFFFF AND DUP2 PUSH20 0xFFFFFFFFFFFFFFFFFFFFFFFFFFFFFFFFFFFFFFFF AND EQ ISZERO PUSH2 0x1B8C JUMPI PUSH1 0x40 MLOAD PUSH32 0x8C379A000000000000000000000000000000000000000000000000000000000 DUP2 MSTORE PUSH1 0x4 ADD PUSH2 0x1B83 SWAP1 PUSH2 0x2EF9 JUMP JUMPDEST PUSH1 0x40 MLOAD DUP1 SWAP2 SUB SWAP1 REVERT JUMPDEST PUSH2 0x1B95 DUP2 PUSH2 0x1E8A JUMP JUMPDEST POP JUMP JUMPDEST PUSH1 0x0 PUSH32 0x1FFC9A700000000000000000000000000000000000000000000000000000000 PUSH28 0xFFFFFFFFFFFFFFFFFFFFFFFFFFFFFFFFFFFFFFFFFFFFFFFFFFFFFFFF NOT AND DUP3 PUSH28 0xFFFFFFFFFFFFFFFFFFFFFFFFFFFFFFFFFFFFFFFFFFFFFFFFFFFFFFFF NOT AND EQ SWAP1 POP SWAP2 SWAP1 POP JUMP JUMPDEST PUSH2 0x1C0A PUSH2 0x1D8A JUMP JUMPDEST PUSH20 0xFFFFFFFFFFFFFFFFFFFFFFFFFFFFFFFFFFFFFFFF AND PUSH2 0x1C28 PUSH2 0x15F5 JUMP JUMPDEST PUSH20 0xFFFFFFFFFFFFFFFFFFFFFFFFFFFFFFFFFFFFFFFF AND EQ PUSH2 0x1C7E JUMPI PUSH1 0x40 MLOAD PUSH32 0x8C379A000000000000000000000000000000000000000000000000000000000 DUP2 MSTORE PUSH1 0x4 ADD PUSH2 0x1C75 SWAP1 PUSH2 0x2F99 JUMP JUMPDEST PUSH1 0x40 MLOAD DUP1 SWAP2 SUB SWAP1 REVERT JUMPDEST JUMP JUMPDEST PUSH2 0x1C91 DUP2 PUSH2 0x1C8C PUSH2 0x1D8A JUMP JUMPDEST PUSH2 0x1F4E JUMP JUMPDEST POP JUMP JUMPDEST PUSH2 0x1C9E DUP3 DUP3 PUSH2 0x161E JUMP JUMPDEST PUSH2 0x1D70 JUMPI PUSH1 0x1 DUP1 PUSH1 0x0 DUP5 DUP2 MSTORE PUSH1 0x20 ADD SWAP1 DUP2 MSTORE PUSH1 0x20 ADD PUSH1 0x0 KECCAK256 PUSH1 0x0 ADD PUSH1 0x0 DUP4 PUSH20 0xFFFFFFFFFFFFFFFFFFFFFFFFFFFFFFFFFFFFFFFF AND PUSH20 0xFFFFFFFFFFFFFFFFFFFFFFFFFFFFFFFFFFFFFFFF AND DUP2 MSTORE PUSH1 0x20 ADD SWAP1 DUP2 MSTORE PUSH1 0x20 ADD PUSH1 0x0 KECCAK256 PUSH1 0x0 PUSH2 0x100 EXP DUP2 SLOAD DUP2 PUSH1 0xFF MUL NOT AND SWAP1 DUP4 ISZERO ISZERO MUL OR SWAP1 SSTORE POP PUSH2 0x1D15 PUSH2 0x1D8A JUMP JUMPDEST PUSH20 0xFFFFFFFFFFFFFFFFFFFFFFFFFFFFFFFFFFFFFFFF AND DUP2 PUSH20 0xFFFFFFFFFFFFFFFFFFFFFFFFFFFFFFFFFFFFFFFF AND DUP4 PUSH32 0x2F8788117E7EFF1D82E926EC794901D17C78024A50270940304540A733656F0D PUSH1 0x40 MLOAD PUSH1 0x40 MLOAD DUP1 SWAP2 SUB SWAP1 LOG4 JUMPDEST POP POP JUMP JUMPDEST PUSH1 0x0 DUP2 DUP4 PUSH2 0x1D82 SWAP2 SWAP1 PUSH2 0x335A JUMP JUMPDEST SWAP1 POP SWAP3 SWAP2 POP POP JUMP JUMPDEST PUSH1 0x0 CALLER SWAP1 POP SWAP1 JUMP JUMPDEST PUSH2 0x1D9C DUP3 DUP3 PUSH2 0x161E JUMP JUMPDEST ISZERO PUSH2 0x1E70 JUMPI PUSH1 0x0 PUSH1 0x1 PUSH1 0x0 DUP5 DUP2 MSTORE PUSH1 0x20 ADD SWAP1 DUP2 MSTORE PUSH1 0x20 ADD PUSH1 0x0 KECCAK256 PUSH1 0x0 ADD PUSH1 0x0 DUP4 PUSH20 0xFFFFFFFFFFFFFFFFFFFFFFFFFFFFFFFFFFFFFFFF AND PUSH20 0xFFFFFFFFFFFFFFFFFFFFFFFFFFFFFFFFFFFFFFFF AND DUP2 MSTORE PUSH1 0x20 ADD SWAP1 DUP2 MSTORE PUSH1 0x20 ADD PUSH1 0x0 KECCAK256 PUSH1 0x0 PUSH2 0x100 EXP DUP2 SLOAD DUP2 PUSH1 0xFF MUL NOT AND SWAP1 DUP4 ISZERO ISZERO MUL OR SWAP1 SSTORE POP PUSH2 0x1E15 PUSH2 0x1D8A JUMP JUMPDEST PUSH20 0xFFFFFFFFFFFFFFFFFFFFFFFFFFFFFFFFFFFFFFFF AND DUP2 PUSH20 0xFFFFFFFFFFFFFFFFFFFFFFFFFFFFFFFFFFFFFFFF AND DUP4 PUSH32 0xF6391F5C32D9C69D2A47EA670B442974B53935D1EDC7FD64EB21E047A839171B PUSH1 0x40 MLOAD PUSH1 0x40 MLOAD DUP1 SWAP2 SUB SWAP1 LOG4 JUMPDEST POP POP JUMP JUMPDEST PUSH1 0x0 DUP2 DUP4 PUSH2 0x1E82 SWAP2 SWAP1 PUSH2 0x32AA JUMP JUMPDEST SWAP1 POP SWAP3 SWAP2 POP POP JUMP JUMPDEST PUSH1 0x0 DUP1 PUSH1 0x0 SWAP1 SLOAD SWAP1 PUSH2 0x100 EXP SWAP1 DIV PUSH20 0xFFFFFFFFFFFFFFFFFFFFFFFFFFFFFFFFFFFFFFFF AND SWAP1 POP DUP2 PUSH1 0x0 DUP1 PUSH2 0x100 EXP DUP2 SLOAD DUP2 PUSH20 0xFFFFFFFFFFFFFFFFFFFFFFFFFFFFFFFFFFFFFFFF MUL NOT AND SWAP1 DUP4 PUSH20 0xFFFFFFFFFFFFFFFFFFFFFFFFFFFFFFFFFFFFFFFF AND MUL OR SWAP1 SSTORE POP DUP2 PUSH20 0xFFFFFFFFFFFFFFFFFFFFFFFFFFFFFFFFFFFFFFFF AND DUP2 PUSH20 0xFFFFFFFFFFFFFFFFFFFFFFFFFFFFFFFFFFFFFFFF AND PUSH32 0x8BE0079C531659141344CD1FD0A4F28419497F9722A3DAAFE3B4186F6B6457E0 PUSH1 0x40 MLOAD PUSH1 0x40 MLOAD DUP1 SWAP2 SUB SWAP1 LOG3 POP POP JUMP JUMPDEST PUSH2 0x1F58 DUP3 DUP3 PUSH2 0x161E JUMP JUMPDEST PUSH2 0x1FE7 JUMPI PUSH2 0x1F7D DUP2 PUSH20 0xFFFFFFFFFFFFFFFFFFFFFFFFFFFFFFFFFFFFFFFF AND PUSH1 0x14 PUSH2 0x1FEB JUMP JUMPDEST PUSH2 0x1F8B DUP4 PUSH1 0x0 SHR PUSH1 0x20 PUSH2 0x1FEB JUMP JUMPDEST PUSH1 0x40 MLOAD PUSH1 0x20 ADD PUSH2 0x1F9C SWAP3 SWAP2 SWAP1 PUSH2 0x2CCF JUMP JUMPDEST PUSH1 0x40 MLOAD PUSH1 0x20 DUP2 DUP4 SUB SUB DUP2 MSTORE SWAP1 PUSH1 0x40 MSTORE PUSH1 0x40 MLOAD PUSH32 0x8C379A000000000000000000000000000000000000000000000000000000000 DUP2 MSTORE PUSH1 0x4 ADD PUSH2 0x1FDE SWAP2 SWAP1 PUSH2 0x2E64 JUMP JUMPDEST PUSH1 0x40 MLOAD DUP1 SWAP2 SUB SWAP1 REVERT JUMPDEST POP POP JUMP JUMPDEST PUSH1 0x60 PUSH1 0x0 PUSH1 0x2 DUP4 PUSH1 0x2 PUSH2 0x1FFE SWAP2 SWAP1 PUSH2 0x3300 JUMP JUMPDEST PUSH2 0x2008 SWAP2 SWAP1 PUSH2 0x32AA JUMP JUMPDEST PUSH8 0xFFFFFFFFFFFFFFFF DUP2 GT ISZERO PUSH2 0x2021 JUMPI PUSH2 0x2020 PUSH2 0x3605 JUMP JUMPDEST JUMPDEST PUSH1 0x40 MLOAD SWAP1 DUP1 DUP3 MSTORE DUP1 PUSH1 0x1F ADD PUSH1 0x1F NOT AND PUSH1 0x20 ADD DUP3 ADD PUSH1 0x40 MSTORE DUP1 ISZERO PUSH2 0x2053 JUMPI DUP2 PUSH1 0x20 ADD PUSH1 0x1 DUP3 MUL DUP1 CALLDATASIZE DUP4 CALLDATACOPY DUP1 DUP3 ADD SWAP2 POP POP SWAP1 POP JUMPDEST POP SWAP1 POP PUSH32 0x3000000000000000000000000000000000000000000000000000000000000000 DUP2 PUSH1 0x0 DUP2 MLOAD DUP2 LT PUSH2 0x208B JUMPI PUSH2 0x208A PUSH2 0x35D6 JUMP JUMPDEST JUMPDEST PUSH1 0x20 ADD ADD SWAP1 PUSH31 0xFFFFFFFFFFFFFFFFFFFFFFFFFFFFFFFFFFFFFFFFFFFFFFFFFFFFFFFFFFFFFF NOT AND SWAP1 DUP2 PUSH1 0x0 BYTE SWAP1 MSTORE8 POP PUSH32 0x7800000000000000000000000000000000000000000000000000000000000000 DUP2 PUSH1 0x1 DUP2 MLOAD DUP2 LT PUSH2 0x20EF JUMPI PUSH2 0x20EE PUSH2 0x35D6 JUMP JUMPDEST JUMPDEST PUSH1 0x20 ADD ADD SWAP1 PUSH31 0xFFFFFFFFFFFFFFFFFFFFFFFFFFFFFFFFFFFFFFFFFFFFFFFFFFFFFFFFFFFFFF NOT AND SWAP1 DUP2 PUSH1 0x0 BYTE SWAP1 MSTORE8 POP PUSH1 0x0 PUSH1 0x1 DUP5 PUSH1 0x2 PUSH2 0x212F SWAP2 SWAP1 PUSH2 0x3300 JUMP JUMPDEST PUSH2 0x2139 SWAP2 SWAP1 PUSH2 0x32AA JUMP JUMPDEST SWAP1 POP JUMPDEST PUSH1 0x1 DUP2 GT ISZERO PUSH2 0x21D9 JUMPI PUSH32 0x3031323334353637383961626364656600000000000000000000000000000000 PUSH1 0xF DUP7 AND PUSH1 0x10 DUP2 LT PUSH2 0x217B JUMPI PUSH2 0x217A PUSH2 0x35D6 JUMP JUMPDEST JUMPDEST BYTE PUSH1 0xF8 SHL DUP3 DUP3 DUP2 MLOAD DUP2 LT PUSH2 0x2192 JUMPI PUSH2 0x2191 PUSH2 0x35D6 JUMP JUMPDEST JUMPDEST PUSH1 0x20 ADD ADD SWAP1 PUSH31 0xFFFFFFFFFFFFFFFFFFFFFFFFFFFFFFFFFFFFFFFFFFFFFFFFFFFFFFFFFFFFFF NOT AND SWAP1 DUP2 PUSH1 0x0 BYTE SWAP1 MSTORE8 POP PUSH1 0x4 DUP6 SWAP1 SHR SWAP5 POP DUP1 PUSH2 0x21D2 SWAP1 PUSH2 0x3473 JUMP JUMPDEST SWAP1 POP PUSH2 0x213C JUMP JUMPDEST POP PUSH1 0x0 DUP5 EQ PUSH2 0x221D JUMPI PUSH1 0x40 MLOAD PUSH32 0x8C379A000000000000000000000000000000000000000000000000000000000 DUP2 MSTORE PUSH1 0x4 ADD PUSH2 0x2214 SWAP1 PUSH2 0x2ED9 JUMP JUMPDEST PUSH1 0x40 MLOAD DUP1 SWAP2 SUB SWAP1 REVERT JUMPDEST DUP1 SWAP2 POP POP SWAP3 SWAP2 POP POP JUMP JUMPDEST DUP3 DUP1 SLOAD DUP3 DUP3 SSTORE SWAP1 PUSH1 0x0 MSTORE PUSH1 0x20 PUSH1 0x0 KECCAK256 SWAP1 DUP2 ADD SWAP3 DUP3 ISZERO PUSH2 0x2263 JUMPI SWAP2 PUSH1 0x20 MUL DUP3 ADD JUMPDEST DUP3 DUP2 GT ISZERO PUSH2 0x2262 JUMPI DUP3 MLOAD DUP3 SSTORE SWAP2 PUSH1 0x20 ADD SWAP2 SWAP1 PUSH1 0x1 ADD SWAP1 PUSH2 0x2247 JUMP JUMPDEST JUMPDEST POP SWAP1 POP PUSH2 0x2270 SWAP2 SWAP1 PUSH2 0x2380 JUMP JUMPDEST POP SWAP1 JUMP JUMPDEST DUP3 DUP1 SLOAD PUSH2 0x2280 SWAP1 PUSH2 0x349D JUMP JUMPDEST SWAP1 PUSH1 0x0 MSTORE PUSH1 0x20 PUSH1 0x0 KECCAK256 SWAP1 PUSH1 0x1F ADD PUSH1 0x20 SWAP1 DIV DUP2 ADD SWAP3 DUP3 PUSH2 0x22A2 JUMPI PUSH1 0x0 DUP6 SSTORE PUSH2 0x22E9 JUMP JUMPDEST DUP3 PUSH1 0x1F LT PUSH2 0x22BB JUMPI DUP1 CALLDATALOAD PUSH1 0xFF NOT AND DUP4 DUP1 ADD OR DUP6 SSTORE PUSH2 0x22E9 JUMP JUMPDEST DUP3 DUP1 ADD PUSH1 0x1 ADD DUP6 SSTORE DUP3 ISZERO PUSH2 0x22E9 JUMPI SWAP2 DUP3 ADD JUMPDEST DUP3 DUP2 GT ISZERO PUSH2 0x22E8 JUMPI DUP3 CALLDATALOAD DUP3 SSTORE SWAP2 PUSH1 0x20 ADD SWAP2 SWAP1 PUSH1 0x1 ADD SWAP1 PUSH2 0x22CD JUMP JUMPDEST JUMPDEST POP SWAP1 POP PUSH2 0x22F6 SWAP2 SWAP1 PUSH2 0x2380 JUMP JUMPDEST POP SWAP1 JUMP JUMPDEST DUP3 DUP1 SLOAD PUSH2 0x2306 SWAP1 PUSH2 0x349D JUMP JUMPDEST SWAP1 PUSH1 0x0 MSTORE PUSH1 0x20 PUSH1 0x0 KECCAK256 SWAP1 PUSH1 0x1F ADD PUSH1 0x20 SWAP1 DIV DUP2 ADD SWAP3 DUP3 PUSH2 0x2328 JUMPI PUSH1 0x0 DUP6 SSTORE PUSH2 0x236F JUMP JUMPDEST DUP3 PUSH1 0x1F LT PUSH2 0x2341 JUMPI DUP1 MLOAD PUSH1 0xFF NOT AND DUP4 DUP1 ADD OR DUP6 SSTORE PUSH2 0x236F JUMP JUMPDEST DUP3 DUP1 ADD PUSH1 0x1 ADD DUP6 SSTORE DUP3 ISZERO PUSH2 0x236F JUMPI SWAP2 DUP3 ADD JUMPDEST DUP3 DUP2 GT ISZERO PUSH2 0x236E JUMPI DUP3 MLOAD DUP3 SSTORE SWAP2 PUSH1 0x20 ADD SWAP2 SWAP1 PUSH1 0x1 ADD SWAP1 PUSH2 0x2353 JUMP JUMPDEST JUMPDEST POP SWAP1 POP PUSH2 0x237C SWAP2 SWAP1 PUSH2 0x2380 JUMP JUMPDEST POP SWAP1 JUMP JUMPDEST JUMPDEST DUP1 DUP3 GT ISZERO PUSH2 0x2399 JUMPI PUSH1 0x0 DUP2 PUSH1 0x0 SWAP1 SSTORE POP PUSH1 0x1 ADD PUSH2 0x2381 JUMP JUMPDEST POP SWAP1 JUMP JUMPDEST PUSH1 0x0 PUSH2 0x23B0 PUSH2 0x23AB DUP5 PUSH2 0x315A JUMP JUMPDEST PUSH2 0x3135 JUMP JUMPDEST SWAP1 POP DUP1 DUP4 DUP3 MSTORE PUSH1 0x20 DUP3 ADD SWAP1 POP DUP3 DUP6 PUSH1 0x20 DUP7 MUL DUP3 ADD GT ISZERO PUSH2 0x23D3 JUMPI PUSH2 0x23D2 PUSH2 0x3652 JUMP JUMPDEST JUMPDEST PUSH1 0x0 JUMPDEST DUP6 DUP2 LT ISZERO PUSH2 0x2403 JUMPI DUP2 PUSH2 0x23E9 DUP9 DUP3 PUSH2 0x2526 JUMP JUMPDEST DUP5 MSTORE PUSH1 0x20 DUP5 ADD SWAP4 POP PUSH1 0x20 DUP4 ADD SWAP3 POP POP PUSH1 0x1 DUP2 ADD SWAP1 POP PUSH2 0x23D6 JUMP JUMPDEST POP POP POP SWAP4 SWAP3 POP POP POP JUMP JUMPDEST PUSH1 0x0 DUP2 CALLDATALOAD SWAP1 POP PUSH2 0x241C DUP2 PUSH2 0x398F JUMP JUMPDEST SWAP3 SWAP2 POP POP JUMP JUMPDEST PUSH1 0x0 DUP1 DUP4 PUSH1 0x1F DUP5 ADD SLT PUSH2 0x2438 JUMPI PUSH2 0x2437 PUSH2 0x363E JUMP JUMPDEST JUMPDEST DUP3 CALLDATALOAD SWAP1 POP PUSH8 0xFFFFFFFFFFFFFFFF DUP2 GT ISZERO PUSH2 0x2455 JUMPI PUSH2 0x2454 PUSH2 0x3639 JUMP JUMPDEST JUMPDEST PUSH1 0x20 DUP4 ADD SWAP2 POP DUP4 PUSH1 0x20 DUP3 MUL DUP4 ADD GT ISZERO PUSH2 0x2471 JUMPI PUSH2 0x2470 PUSH2 0x3652 JUMP JUMPDEST JUMPDEST SWAP3 POP SWAP3 SWAP1 POP JUMP JUMPDEST PUSH1 0x0 DUP3 PUSH1 0x1F DUP4 ADD SLT PUSH2 0x248D JUMPI PUSH2 0x248C PUSH2 0x363E JUMP JUMPDEST JUMPDEST DUP2 CALLDATALOAD PUSH2 0x249D DUP5 DUP3 PUSH1 0x20 DUP7 ADD PUSH2 0x239D JUMP JUMPDEST SWAP2 POP POP SWAP3 SWAP2 POP POP JUMP JUMPDEST PUSH1 0x0 DUP2 CALLDATALOAD SWAP1 POP PUSH2 0x24B5 DUP2 PUSH2 0x39A6 JUMP JUMPDEST SWAP3 SWAP2 POP POP JUMP JUMPDEST PUSH1 0x0 DUP2 CALLDATALOAD SWAP1 POP PUSH2 0x24CA DUP2 PUSH2 0x39BD JUMP JUMPDEST SWAP3 SWAP2 POP POP JUMP JUMPDEST PUSH1 0x0 DUP1 DUP4 PUSH1 0x1F DUP5 ADD SLT PUSH2 0x24E6 JUMPI PUSH2 0x24E5 PUSH2 0x363E JUMP JUMPDEST JUMPDEST DUP3 CALLDATALOAD SWAP1 POP PUSH8 0xFFFFFFFFFFFFFFFF DUP2 GT ISZERO PUSH2 0x2503 JUMPI PUSH2 0x2502 PUSH2 0x3639 JUMP JUMPDEST JUMPDEST PUSH1 0x20 DUP4 ADD SWAP2 POP DUP4 PUSH1 0x1 DUP3 MUL DUP4 ADD GT ISZERO PUSH2 0x251F JUMPI PUSH2 0x251E PUSH2 0x3652 JUMP JUMPDEST JUMPDEST SWAP3 POP SWAP3 SWAP1 POP JUMP JUMPDEST PUSH1 0x0 DUP2 CALLDATALOAD SWAP1 POP PUSH2 0x2535 DUP2 PUSH2 0x39D4 JUMP JUMPDEST SWAP3 SWAP2 POP POP JUMP JUMPDEST PUSH1 0x0 PUSH1 0x20 DUP3 DUP5 SUB SLT ISZERO PUSH2 0x2551 JUMPI PUSH2 0x2550 PUSH2 0x3666 JUMP JUMPDEST JUMPDEST PUSH1 0x0 PUSH2 0x255F DUP5 DUP3 DUP6 ADD PUSH2 0x240D JUMP JUMPDEST SWAP2 POP POP SWAP3 SWAP2 POP POP JUMP JUMPDEST PUSH1 0x0 DUP1 PUSH1 0x40 DUP4 DUP6 SUB SLT ISZERO PUSH2 0x257F JUMPI PUSH2 0x257E PUSH2 0x3666 JUMP JUMPDEST JUMPDEST PUSH1 0x0 PUSH2 0x258D DUP6 DUP3 DUP7 ADD PUSH2 0x240D JUMP JUMPDEST SWAP3 POP POP PUSH1 0x20 PUSH2 0x259E DUP6 DUP3 DUP7 ADD PUSH2 0x2526 JUMP JUMPDEST SWAP2 POP POP SWAP3 POP SWAP3 SWAP1 POP JUMP JUMPDEST PUSH1 0x0 PUSH1 0x20 DUP3 DUP5 SUB SLT ISZERO PUSH2 0x25BE JUMPI PUSH2 0x25BD PUSH2 0x3666 JUMP JUMPDEST JUMPDEST PUSH1 0x0 PUSH2 0x25CC DUP5 DUP3 DUP6 ADD PUSH2 0x24A6 JUMP JUMPDEST SWAP2 POP POP SWAP3 SWAP2 POP POP JUMP JUMPDEST PUSH1 0x0 DUP1 PUSH1 0x40 DUP4 DUP6 SUB SLT ISZERO PUSH2 0x25EC JUMPI PUSH2 0x25EB PUSH2 0x3666 JUMP JUMPDEST JUMPDEST PUSH1 0x0 PUSH2 0x25FA DUP6 DUP3 DUP7 ADD PUSH2 0x24A6 JUMP JUMPDEST SWAP3 POP POP PUSH1 0x20 PUSH2 0x260B DUP6 DUP3 DUP7 ADD PUSH2 0x240D JUMP JUMPDEST SWAP2 POP POP SWAP3 POP SWAP3 SWAP1 POP JUMP JUMPDEST PUSH1 0x0 PUSH1 0x20 DUP3 DUP5 SUB SLT ISZERO PUSH2 0x262B JUMPI PUSH2 0x262A PUSH2 0x3666 JUMP JUMPDEST JUMPDEST PUSH1 0x0 PUSH2 0x2639 DUP5 DUP3 DUP6 ADD PUSH2 0x24BB JUMP JUMPDEST SWAP2 POP POP SWAP3 SWAP2 POP POP JUMP JUMPDEST PUSH1 0x0 DUP1 PUSH1 0x0 DUP1 PUSH1 0x0 PUSH1 0x60 DUP7 DUP9 SUB SLT ISZERO PUSH2 0x265E JUMPI PUSH2 0x265D PUSH2 0x3666 JUMP JUMPDEST JUMPDEST PUSH1 0x0 DUP7 ADD CALLDATALOAD PUSH8 0xFFFFFFFFFFFFFFFF DUP2 GT ISZERO PUSH2 0x267C JUMPI PUSH2 0x267B PUSH2 0x365C JUMP JUMPDEST JUMPDEST PUSH2 0x2688 DUP9 DUP3 DUP10 ADD PUSH2 0x24D0 JUMP JUMPDEST SWAP6 POP SWAP6 POP POP PUSH1 0x20 DUP7 ADD CALLDATALOAD PUSH8 0xFFFFFFFFFFFFFFFF DUP2 GT ISZERO PUSH2 0x26AB JUMPI PUSH2 0x26AA PUSH2 0x365C JUMP JUMPDEST JUMPDEST PUSH2 0x26B7 DUP9 DUP3 DUP10 ADD PUSH2 0x2422 JUMP JUMPDEST SWAP4 POP SWAP4 POP POP PUSH1 0x40 PUSH2 0x26CA DUP9 DUP3 DUP10 ADD PUSH2 0x2526 JUMP JUMPDEST SWAP2 POP POP SWAP3 SWAP6 POP SWAP3 SWAP6 SWAP1 SWAP4 POP JUMP JUMPDEST PUSH1 0x0 PUSH1 0x20 DUP3 DUP5 SUB SLT ISZERO PUSH2 0x26ED JUMPI PUSH2 0x26EC PUSH2 0x3666 JUMP JUMPDEST JUMPDEST PUSH1 0x0 PUSH2 0x26FB DUP5 DUP3 DUP6 ADD PUSH2 0x2526 JUMP JUMPDEST SWAP2 POP POP SWAP3 SWAP2 POP POP JUMP JUMPDEST PUSH1 0x0 DUP1 PUSH1 0x40 DUP4 DUP6 SUB SLT ISZERO PUSH2 0x271B JUMPI PUSH2 0x271A PUSH2 0x3666 JUMP JUMPDEST JUMPDEST PUSH1 0x0 PUSH2 0x2729 DUP6 DUP3 DUP7 ADD PUSH2 0x2526 JUMP JUMPDEST SWAP3 POP POP PUSH1 0x20 PUSH2 0x273A DUP6 DUP3 DUP7 ADD PUSH2 0x240D JUMP JUMPDEST SWAP2 POP POP SWAP3 POP SWAP3 SWAP1 POP JUMP JUMPDEST PUSH1 0x0 DUP1 PUSH1 0x40 DUP4 DUP6 SUB SLT ISZERO PUSH2 0x275B JUMPI PUSH2 0x275A PUSH2 0x3666 JUMP JUMPDEST JUMPDEST PUSH1 0x0 PUSH2 0x2769 DUP6 DUP3 DUP7 ADD PUSH2 0x2526 JUMP JUMPDEST SWAP3 POP POP PUSH1 0x20 DUP4 ADD CALLDATALOAD PUSH8 0xFFFFFFFFFFFFFFFF DUP2 GT ISZERO PUSH2 0x278A JUMPI PUSH2 0x2789 PUSH2 0x365C JUMP JUMPDEST JUMPDEST PUSH2 0x2796 DUP6 DUP3 DUP7 ADD PUSH2 0x2478 JUMP JUMPDEST SWAP2 POP POP SWAP3 POP SWAP3 SWAP1 POP JUMP JUMPDEST PUSH1 0x0 DUP1 PUSH1 0x40 DUP4 DUP6 SUB SLT ISZERO PUSH2 0x27B7 JUMPI PUSH2 0x27B6 PUSH2 0x3666 JUMP JUMPDEST JUMPDEST PUSH1 0x0 PUSH2 0x27C5 DUP6 DUP3 DUP7 ADD PUSH2 0x2526 JUMP JUMPDEST SWAP3 POP POP PUSH1 0x20 PUSH2 0x27D6 DUP6 DUP3 DUP7 ADD PUSH2 0x2526 JUMP JUMPDEST SWAP2 POP POP SWAP3 POP SWAP3 SWAP1 POP JUMP JUMPDEST PUSH1 0x0 PUSH2 0x27ED DUP5 DUP5 DUP5 PUSH2 0x29A7 JUMP JUMPDEST SWAP1 POP SWAP4 SWAP3 POP POP POP JUMP JUMPDEST PUSH1 0x0 PUSH2 0x2802 DUP4 DUP4 PUSH2 0x2A01 JUMP JUMPDEST SWAP1 POP SWAP3 SWAP2 POP POP JUMP JUMPDEST PUSH1 0x0 PUSH2 0x2816 DUP4 DUP4 PUSH2 0x2CB1 JUMP JUMPDEST PUSH1 0x20 DUP4 ADD SWAP1 POP SWAP3 SWAP2 POP POP JUMP JUMPDEST PUSH2 0x282B DUP2 PUSH2 0x338E JUMP JUMPDEST DUP3 MSTORE POP POP JUMP JUMPDEST PUSH1 0x0 PUSH2 0x283D DUP4 DUP6 PUSH2 0x31F8 JUMP JUMPDEST SWAP4 POP DUP4 PUSH1 0x20 DUP5 MUL DUP6 ADD PUSH2 0x284F DUP5 PUSH2 0x3186 JUMP JUMPDEST DUP1 PUSH1 0x0 JUMPDEST DUP8 DUP2 LT ISZERO PUSH2 0x2895 JUMPI DUP5 DUP5 SUB DUP10 MSTORE PUSH2 0x286A DUP3 DUP5 PUSH2 0x3247 JUMP JUMPDEST PUSH2 0x2875 DUP7 DUP3 DUP5 PUSH2 0x27E0 JUMP JUMPDEST SWAP6 POP PUSH2 0x2880 DUP5 PUSH2 0x31D1 JUMP JUMPDEST SWAP4 POP PUSH1 0x20 DUP12 ADD SWAP11 POP POP POP PUSH1 0x1 DUP2 ADD SWAP1 POP PUSH2 0x2853 JUMP JUMPDEST POP DUP3 SWAP8 POP DUP8 SWAP5 POP POP POP POP POP SWAP4 SWAP3 POP POP POP JUMP JUMPDEST PUSH1 0x0 PUSH2 0x28B2 DUP3 PUSH2 0x31B0 JUMP JUMPDEST PUSH2 0x28BC DUP2 DUP6 PUSH2 0x31F8 JUMP JUMPDEST SWAP4 POP DUP4 PUSH1 0x20 DUP3 MUL DUP6 ADD PUSH2 0x28CE DUP6 PUSH2 0x3190 JUMP JUMPDEST DUP1 PUSH1 0x0 JUMPDEST DUP6 DUP2 LT ISZERO PUSH2 0x290A JUMPI DUP5 DUP5 SUB DUP10 MSTORE DUP2 MLOAD PUSH2 0x28EB DUP6 DUP3 PUSH2 0x27F6 JUMP JUMPDEST SWAP5 POP PUSH2 0x28F6 DUP4 PUSH2 0x31DE JUMP JUMPDEST SWAP3 POP PUSH1 0x20 DUP11 ADD SWAP10 POP POP PUSH1 0x1 DUP2 ADD SWAP1 POP PUSH2 0x28D2 JUMP JUMPDEST POP DUP3 SWAP8 POP DUP8 SWAP6 POP POP POP POP POP POP SWAP3 SWAP2 POP POP JUMP JUMPDEST PUSH1 0x0 PUSH2 0x2927 DUP3 PUSH2 0x31BB JUMP JUMPDEST PUSH2 0x2931 DUP2 DUP6 PUSH2 0x3209 JUMP JUMPDEST SWAP4 POP PUSH2 0x293C DUP4 PUSH2 0x31A0 JUMP JUMPDEST DUP1 PUSH1 0x0 JUMPDEST DUP4 DUP2 LT ISZERO PUSH2 0x296D JUMPI DUP2 MLOAD PUSH2 0x2954 DUP9 DUP3 PUSH2 0x280A JUMP JUMPDEST SWAP8 POP PUSH2 0x295F DUP4 PUSH2 0x31EB JUMP JUMPDEST SWAP3 POP POP PUSH1 0x1 DUP2 ADD SWAP1 POP PUSH2 0x2940 JUMP JUMPDEST POP DUP6 SWAP4 POP POP POP POP SWAP3 SWAP2 POP POP JUMP JUMPDEST PUSH2 0x2983 DUP2 PUSH2 0x33A0 JUMP JUMPDEST DUP3 MSTORE POP POP JUMP JUMPDEST PUSH2 0x2992 DUP2 PUSH2 0x33AC JUMP JUMPDEST DUP3 MSTORE POP POP JUMP JUMPDEST PUSH2 0x29A1 DUP2 PUSH2 0x341F JUMP JUMPDEST DUP3 MSTORE POP POP JUMP JUMPDEST PUSH1 0x0 PUSH2 0x29B3 DUP4 DUP6 PUSH2 0x321A JUMP JUMPDEST SWAP4 POP PUSH2 0x29C0 DUP4 DUP6 DUP5 PUSH2 0x3431 JUMP JUMPDEST PUSH2 0x29C9 DUP4 PUSH2 0x366B JUMP JUMPDEST DUP5 ADD SWAP1 POP SWAP4 SWAP3 POP POP POP JUMP JUMPDEST PUSH1 0x0 PUSH2 0x29E0 DUP4 DUP6 PUSH2 0x322B JUMP JUMPDEST SWAP4 POP PUSH2 0x29ED DUP4 DUP6 DUP5 PUSH2 0x3431 JUMP JUMPDEST PUSH2 0x29F6 DUP4 PUSH2 0x366B JUMP JUMPDEST DUP5 ADD SWAP1 POP SWAP4 SWAP3 POP POP POP JUMP JUMPDEST PUSH1 0x0 PUSH2 0x2A0C DUP3 PUSH2 0x31C6 JUMP JUMPDEST PUSH2 0x2A16 DUP2 DUP6 PUSH2 0x321A JUMP JUMPDEST SWAP4 POP PUSH2 0x2A26 DUP2 DUP6 PUSH1 0x20 DUP7 ADD PUSH2 0x3440 JUMP JUMPDEST PUSH2 0x2A2F DUP2 PUSH2 0x366B JUMP JUMPDEST DUP5 ADD SWAP2 POP POP SWAP3 SWAP2 POP POP JUMP JUMPDEST PUSH1 0x0 PUSH2 0x2A45 DUP3 PUSH2 0x31C6 JUMP JUMPDEST PUSH2 0x2A4F DUP2 DUP6 PUSH2 0x322B JUMP JUMPDEST SWAP4 POP PUSH2 0x2A5F DUP2 DUP6 PUSH1 0x20 DUP7 ADD PUSH2 0x3440 JUMP JUMPDEST PUSH2 0x2A68 DUP2 PUSH2 0x366B JUMP JUMPDEST DUP5 ADD SWAP2 POP POP SWAP3 SWAP2 POP POP JUMP JUMPDEST PUSH1 0x0 PUSH2 0x2A7E DUP3 PUSH2 0x31C6 JUMP JUMPDEST PUSH2 0x2A88 DUP2 DUP6 PUSH2 0x323C JUMP JUMPDEST SWAP4 POP PUSH2 0x2A98 DUP2 DUP6 PUSH1 0x20 DUP7 ADD PUSH2 0x3440 JUMP JUMPDEST DUP1 DUP5 ADD SWAP2 POP POP SWAP3 SWAP2 POP POP JUMP JUMPDEST PUSH1 0x0 PUSH2 0x2AB1 PUSH1 0x20 DUP4 PUSH2 0x322B JUMP JUMPDEST SWAP2 POP PUSH2 0x2ABC DUP3 PUSH2 0x367C JUMP JUMPDEST PUSH1 0x20 DUP3 ADD SWAP1 POP SWAP2 SWAP1 POP JUMP JUMPDEST PUSH1 0x0 PUSH2 0x2AD4 PUSH1 0x26 DUP4 PUSH2 0x322B JUMP JUMPDEST SWAP2 POP PUSH2 0x2ADF DUP3 PUSH2 0x36A5 JUMP JUMPDEST PUSH1 0x40 DUP3 ADD SWAP1 POP SWAP2 SWAP1 POP JUMP JUMPDEST PUSH1 0x0 PUSH2 0x2AF7 PUSH1 0x1B DUP4 PUSH2 0x322B JUMP JUMPDEST SWAP2 POP PUSH2 0x2B02 DUP3 PUSH2 0x36F4 JUMP JUMPDEST PUSH1 0x20 DUP3 ADD SWAP1 POP SWAP2 SWAP1 POP JUMP JUMPDEST PUSH1 0x0 PUSH2 0x2B1A PUSH1 0x17 DUP4 PUSH2 0x322B JUMP JUMPDEST SWAP2 POP PUSH2 0x2B25 DUP3 PUSH2 0x371D JUMP JUMPDEST PUSH1 0x20 DUP3 ADD SWAP1 POP SWAP2 SWAP1 POP JUMP JUMPDEST PUSH1 0x0 PUSH2 0x2B3D PUSH1 0x1D DUP4 PUSH2 0x322B JUMP JUMPDEST SWAP2 POP PUSH2 0x2B48 DUP3 PUSH2 0x3746 JUMP JUMPDEST PUSH1 0x20 DUP3 ADD SWAP1 POP SWAP2 SWAP1 POP JUMP JUMPDEST PUSH1 0x0 PUSH2 0x2B60 PUSH1 0x19 DUP4 PUSH2 0x322B JUMP JUMPDEST SWAP2 POP PUSH2 0x2B6B DUP3 PUSH2 0x376F JUMP JUMPDEST PUSH1 0x20 DUP3 ADD SWAP1 POP SWAP2 SWAP1 POP JUMP JUMPDEST PUSH1 0x0 PUSH2 0x2B83 PUSH1 0x20 DUP4 PUSH2 0x322B JUMP JUMPDEST SWAP2 POP PUSH2 0x2B8E DUP3 PUSH2 0x3798 JUMP JUMPDEST PUSH1 0x20 DUP3 ADD SWAP1 POP SWAP2 SWAP1 POP JUMP JUMPDEST PUSH1 0x0 PUSH2 0x2BA6 PUSH1 0x1D DUP4 PUSH2 0x322B JUMP JUMPDEST SWAP2 POP PUSH2 0x2BB1 DUP3 PUSH2 0x37C1 JUMP JUMPDEST PUSH1 0x20 DUP3 ADD SWAP1 POP SWAP2 SWAP1 POP JUMP JUMPDEST PUSH1 0x0 PUSH2 0x2BC9 PUSH1 0x2A DUP4 PUSH2 0x322B JUMP JUMPDEST SWAP2 POP PUSH2 0x2BD4 DUP3 PUSH2 0x37EA JUMP JUMPDEST PUSH1 0x40 DUP3 ADD SWAP1 POP SWAP2 SWAP1 POP JUMP JUMPDEST PUSH1 0x0 PUSH2 0x2BEC PUSH1 0x15 DUP4 PUSH2 0x322B JUMP JUMPDEST SWAP2 POP PUSH2 0x2BF7 DUP3 PUSH2 0x3839 JUMP JUMPDEST PUSH1 0x20 DUP3 ADD SWAP1 POP SWAP2 SWAP1 POP JUMP JUMPDEST PUSH1 0x0 PUSH2 0x2C0F PUSH1 0x17 DUP4 PUSH2 0x322B JUMP JUMPDEST SWAP2 POP PUSH2 0x2C1A DUP3 PUSH2 0x3862 JUMP JUMPDEST PUSH1 0x20 DUP3 ADD SWAP1 POP SWAP2 SWAP1 POP JUMP JUMPDEST PUSH1 0x0 PUSH2 0x2C32 PUSH1 0x17 DUP4 PUSH2 0x323C JUMP JUMPDEST SWAP2 POP PUSH2 0x2C3D DUP3 PUSH2 0x388B JUMP JUMPDEST PUSH1 0x17 DUP3 ADD SWAP1 POP SWAP2 SWAP1 POP JUMP JUMPDEST PUSH1 0x0 PUSH2 0x2C55 PUSH1 0x23 DUP4 PUSH2 0x322B JUMP JUMPDEST SWAP2 POP PUSH2 0x2C60 DUP3 PUSH2 0x38B4 JUMP JUMPDEST PUSH1 0x40 DUP3 ADD SWAP1 POP SWAP2 SWAP1 POP JUMP JUMPDEST PUSH1 0x0 PUSH2 0x2C78 PUSH1 0x11 DUP4 PUSH2 0x323C JUMP JUMPDEST SWAP2 POP PUSH2 0x2C83 DUP3 PUSH2 0x3903 JUMP JUMPDEST PUSH1 0x11 DUP3 ADD SWAP1 POP SWAP2 SWAP1 POP JUMP JUMPDEST PUSH1 0x0 PUSH2 0x2C9B PUSH1 0x2F DUP4 PUSH2 0x322B JUMP JUMPDEST SWAP2 POP PUSH2 0x2CA6 DUP3 PUSH2 0x392C JUMP JUMPDEST PUSH1 0x40 DUP3 ADD SWAP1 POP SWAP2 SWAP1 POP JUMP JUMPDEST PUSH2 0x2CBA DUP2 PUSH2 0x3415 JUMP JUMPDEST DUP3 MSTORE POP POP JUMP JUMPDEST PUSH2 0x2CC9 DUP2 PUSH2 0x3415 JUMP JUMPDEST DUP3 MSTORE POP POP JUMP JUMPDEST PUSH1 0x0 PUSH2 0x2CDA DUP3 PUSH2 0x2C25 JUMP JUMPDEST SWAP2 POP PUSH2 0x2CE6 DUP3 DUP6 PUSH2 0x2A73 JUMP JUMPDEST SWAP2 POP PUSH2 0x2CF1 DUP3 PUSH2 0x2C6B JUMP JUMPDEST SWAP2 POP PUSH2 0x2CFD DUP3 DUP5 PUSH2 0x2A73 JUMP JUMPDEST SWAP2 POP DUP2 SWAP1 POP SWAP4 SWAP3 POP POP POP JUMP JUMPDEST PUSH1 0x0 PUSH1 0x20 DUP3 ADD SWAP1 POP PUSH2 0x2D1E PUSH1 0x0 DUP4 ADD DUP5 PUSH2 0x2822 JUMP JUMPDEST SWAP3 SWAP2 POP POP JUMP JUMPDEST PUSH1 0x0 PUSH1 0xA0 DUP3 ADD SWAP1 POP PUSH2 0x2D39 PUSH1 0x0 DUP4 ADD DUP9 PUSH2 0x2822 JUMP JUMPDEST PUSH2 0x2D46 PUSH1 0x20 DUP4 ADD DUP8 PUSH2 0x2998 JUMP JUMPDEST DUP2 DUP2 SUB PUSH1 0x40 DUP4 ADD MSTORE PUSH2 0x2D58 DUP2 DUP7 PUSH2 0x2A3A JUMP JUMPDEST SWAP1 POP PUSH2 0x2D67 PUSH1 0x60 DUP4 ADD DUP6 PUSH2 0x2CC0 JUMP JUMPDEST PUSH2 0x2D74 PUSH1 0x80 DUP4 ADD DUP5 PUSH2 0x2CC0 JUMP JUMPDEST SWAP7 SWAP6 POP POP POP POP POP POP JUMP JUMPDEST PUSH1 0x0 PUSH1 0x80 DUP3 ADD SWAP1 POP PUSH2 0x2D93 PUSH1 0x0 DUP4 ADD DUP10 PUSH2 0x2822 JUMP JUMPDEST DUP2 DUP2 SUB PUSH1 0x20 DUP4 ADD MSTORE PUSH2 0x2DA6 DUP2 DUP8 DUP10 PUSH2 0x29D4 JUMP JUMPDEST SWAP1 POP DUP2 DUP2 SUB PUSH1 0x40 DUP4 ADD MSTORE PUSH2 0x2DBB DUP2 DUP6 DUP8 PUSH2 0x2831 JUMP JUMPDEST SWAP1 POP PUSH2 0x2DCA PUSH1 0x60 DUP4 ADD DUP5 PUSH2 0x2CC0 JUMP JUMPDEST SWAP8 SWAP7 POP POP POP POP POP POP POP JUMP JUMPDEST PUSH1 0x0 PUSH1 0x60 DUP3 ADD SWAP1 POP PUSH2 0x2DEA PUSH1 0x0 DUP4 ADD DUP7 PUSH2 0x2822 JUMP JUMPDEST PUSH2 0x2DF7 PUSH1 0x20 DUP4 ADD DUP6 PUSH2 0x2CC0 JUMP JUMPDEST DUP2 DUP2 SUB PUSH1 0x40 DUP4 ADD MSTORE PUSH2 0x2E09 DUP2 DUP5 PUSH2 0x291C JUMP JUMPDEST SWAP1 POP SWAP5 SWAP4 POP POP POP POP JUMP JUMPDEST PUSH1 0x0 PUSH1 0x20 DUP3 ADD SWAP1 POP PUSH2 0x2E28 PUSH1 0x0 DUP4 ADD DUP5 PUSH2 0x297A JUMP JUMPDEST SWAP3 SWAP2 POP POP JUMP JUMPDEST PUSH1 0x0 PUSH1 0x20 DUP3 ADD SWAP1 POP PUSH2 0x2E43 PUSH1 0x0 DUP4 ADD DUP5 PUSH2 0x2989 JUMP JUMPDEST SWAP3 SWAP2 POP POP JUMP JUMPDEST PUSH1 0x0 PUSH1 0x20 DUP3 ADD SWAP1 POP PUSH2 0x2E5E PUSH1 0x0 DUP4 ADD DUP5 PUSH2 0x2998 JUMP JUMPDEST SWAP3 SWAP2 POP POP JUMP JUMPDEST PUSH1 0x0 PUSH1 0x20 DUP3 ADD SWAP1 POP DUP2 DUP2 SUB PUSH1 0x0 DUP4 ADD MSTORE PUSH2 0x2E7E DUP2 DUP5 PUSH2 0x2A3A JUMP JUMPDEST SWAP1 POP SWAP3 SWAP2 POP POP JUMP JUMPDEST PUSH1 0x0 PUSH1 0x80 DUP3 ADD SWAP1 POP DUP2 DUP2 SUB PUSH1 0x0 DUP4 ADD MSTORE PUSH2 0x2EA0 DUP2 DUP8 PUSH2 0x2A3A JUMP JUMPDEST SWAP1 POP DUP2 DUP2 SUB PUSH1 0x20 DUP4 ADD MSTORE PUSH2 0x2EB4 DUP2 DUP7 PUSH2 0x28A7 JUMP JUMPDEST SWAP1 POP PUSH2 0x2EC3 PUSH1 0x40 DUP4 ADD DUP6 PUSH2 0x2CC0 JUMP JUMPDEST PUSH2 0x2ED0 PUSH1 0x60 DUP4 ADD DUP5 PUSH2 0x2998 JUMP JUMPDEST SWAP6 SWAP5 POP POP POP POP POP JUMP JUMPDEST PUSH1 0x0 PUSH1 0x20 DUP3 ADD SWAP1 POP DUP2 DUP2 SUB PUSH1 0x0 DUP4 ADD MSTORE PUSH2 0x2EF2 DUP2 PUSH2 0x2AA4 JUMP JUMPDEST SWAP1 POP SWAP2 SWAP1 POP JUMP JUMPDEST PUSH1 0x0 PUSH1 0x20 DUP3 ADD SWAP1 POP DUP2 DUP2 SUB PUSH1 0x0 DUP4 ADD MSTORE PUSH2 0x2F12 DUP2 PUSH2 0x2AC7 JUMP JUMPDEST SWAP1 POP SWAP2 SWAP1 POP JUMP JUMPDEST PUSH1 0x0 PUSH1 0x20 DUP3 ADD SWAP1 POP DUP2 DUP2 SUB PUSH1 0x0 DUP4 ADD MSTORE PUSH2 0x2F32 DUP2 PUSH2 0x2AEA JUMP JUMPDEST SWAP1 POP SWAP2 SWAP1 POP JUMP JUMPDEST PUSH1 0x0 PUSH1 0x20 DUP3 ADD SWAP1 POP DUP2 DUP2 SUB PUSH1 0x0 DUP4 ADD MSTORE PUSH2 0x2F52 DUP2 PUSH2 0x2B0D JUMP JUMPDEST SWAP1 POP SWAP2 SWAP1 POP JUMP JUMPDEST PUSH1 0x0 PUSH1 0x20 DUP3 ADD SWAP1 POP DUP2 DUP2 SUB PUSH1 0x0 DUP4 ADD MSTORE PUSH2 0x2F72 DUP2 PUSH2 0x2B30 JUMP JUMPDEST SWAP1 POP SWAP2 SWAP1 POP JUMP JUMPDEST PUSH1 0x0 PUSH1 0x20 DUP3 ADD SWAP1 POP DUP2 DUP2 SUB PUSH1 0x0 DUP4 ADD MSTORE PUSH2 0x2F92 DUP2 PUSH2 0x2B53 JUMP JUMPDEST SWAP1 POP SWAP2 SWAP1 POP JUMP JUMPDEST PUSH1 0x0 PUSH1 0x20 DUP3 ADD SWAP1 POP DUP2 DUP2 SUB PUSH1 0x0 DUP4 ADD MSTORE PUSH2 0x2FB2 DUP2 PUSH2 0x2B76 JUMP JUMPDEST SWAP1 POP SWAP2 SWAP1 POP JUMP JUMPDEST PUSH1 0x0 PUSH1 0x20 DUP3 ADD SWAP1 POP DUP2 DUP2 SUB PUSH1 0x0 DUP4 ADD MSTORE PUSH2 0x2FD2 DUP2 PUSH2 0x2B99 JUMP JUMPDEST SWAP1 POP SWAP2 SWAP1 POP JUMP JUMPDEST PUSH1 0x0 PUSH1 0x20 DUP3 ADD SWAP1 POP DUP2 DUP2 SUB PUSH1 0x0 DUP4 ADD MSTORE PUSH2 0x2FF2 DUP2 PUSH2 0x2BBC JUMP JUMPDEST SWAP1 POP SWAP2 SWAP1 POP JUMP JUMPDEST PUSH1 0x0 PUSH1 0x20 DUP3 ADD SWAP1 POP DUP2 DUP2 SUB PUSH1 0x0 DUP4 ADD MSTORE PUSH2 0x3012 DUP2 PUSH2 0x2BDF JUMP JUMPDEST SWAP1 POP SWAP2 SWAP1 POP JUMP JUMPDEST PUSH1 0x0 PUSH1 0x20 DUP3 ADD SWAP1 POP DUP2 DUP2 SUB PUSH1 0x0 DUP4 ADD MSTORE PUSH2 0x3032 DUP2 PUSH2 0x2C02 JUMP JUMPDEST SWAP1 POP SWAP2 SWAP1 POP JUMP JUMPDEST PUSH1 0x0 PUSH1 0x20 DUP3 ADD SWAP1 POP DUP2 DUP2 SUB PUSH1 0x0 DUP4 ADD MSTORE PUSH2 0x3052 DUP2 PUSH2 0x2C48 JUMP JUMPDEST SWAP1 POP SWAP2 SWAP1 POP JUMP JUMPDEST PUSH1 0x0 PUSH1 0x20 DUP3 ADD SWAP1 POP DUP2 DUP2 SUB PUSH1 0x0 DUP4 ADD MSTORE PUSH2 0x3072 DUP2 PUSH2 0x2C8E JUMP JUMPDEST SWAP1 POP SWAP2 SWAP1 POP JUMP JUMPDEST PUSH1 0x0 PUSH1 0x20 DUP3 ADD SWAP1 POP PUSH2 0x308E PUSH1 0x0 DUP4 ADD DUP5 PUSH2 0x2CC0 JUMP JUMPDEST SWAP3 SWAP2 POP POP JUMP JUMPDEST PUSH1 0x0 PUSH1 0x60 DUP3 ADD SWAP1 POP PUSH2 0x30A9 PUSH1 0x0 DUP4 ADD DUP7 PUSH2 0x2CC0 JUMP JUMPDEST PUSH2 0x30B6 PUSH1 0x20 DUP4 ADD DUP6 PUSH2 0x2CC0 JUMP JUMPDEST DUP2 DUP2 SUB PUSH1 0x40 DUP4 ADD MSTORE PUSH2 0x30C8 DUP2 DUP5 PUSH2 0x2A3A JUMP JUMPDEST SWAP1 POP SWAP5 SWAP4 POP POP POP POP JUMP JUMPDEST PUSH1 0x0 DUP1 DUP4 CALLDATALOAD PUSH1 0x1 PUSH1 0x20 SUB DUP5 CALLDATASIZE SUB SUB DUP2 SLT PUSH2 0x30EF JUMPI PUSH2 0x30EE PUSH2 0x3648 JUMP JUMPDEST JUMPDEST DUP1 DUP5 ADD SWAP3 POP DUP3 CALLDATALOAD SWAP2 POP PUSH8 0xFFFFFFFFFFFFFFFF DUP3 GT ISZERO PUSH2 0x3111 JUMPI PUSH2 0x3110 PUSH2 0x3643 JUMP JUMPDEST JUMPDEST PUSH1 0x20 DUP4 ADD SWAP3 POP PUSH1 0x1 DUP3 MUL CALLDATASIZE SUB DUP4 SGT ISZERO PUSH2 0x312D JUMPI PUSH2 0x312C PUSH2 0x3657 JUMP JUMPDEST JUMPDEST POP SWAP3 POP SWAP3 SWAP1 POP JUMP JUMPDEST PUSH1 0x0 PUSH2 0x313F PUSH2 0x3150 JUMP JUMPDEST SWAP1 POP PUSH2 0x314B DUP3 DUP3 PUSH2 0x34CF JUMP JUMPDEST SWAP2 SWAP1 POP JUMP JUMPDEST PUSH1 0x0 PUSH1 0x40 MLOAD SWAP1 POP SWAP1 JUMP JUMPDEST PUSH1 0x0 PUSH8 0xFFFFFFFFFFFFFFFF DUP3 GT ISZERO PUSH2 0x3175 JUMPI PUSH2 0x3174 PUSH2 0x3605 JUMP JUMPDEST JUMPDEST PUSH1 0x20 DUP3 MUL SWAP1 POP PUSH1 0x20 DUP2 ADD SWAP1 POP SWAP2 SWAP1 POP JUMP JUMPDEST PUSH1 0x0 DUP2 SWAP1 POP SWAP2 SWAP1 POP JUMP JUMPDEST PUSH1 0x0 DUP2 SWAP1 POP PUSH1 0x20 DUP3 ADD SWAP1 POP SWAP2 SWAP1 POP JUMP JUMPDEST PUSH1 0x0 DUP2 SWAP1 POP PUSH1 0x20 DUP3 ADD SWAP1 POP SWAP2 SWAP1 POP JUMP JUMPDEST PUSH1 0x0 DUP2 MLOAD SWAP1 POP SWAP2 SWAP1 POP JUMP JUMPDEST PUSH1 0x0 DUP2 MLOAD SWAP1 POP SWAP2 SWAP1 POP JUMP JUMPDEST PUSH1 0x0 DUP2 MLOAD SWAP1 POP SWAP2 SWAP1 POP JUMP JUMPDEST PUSH1 0x0 PUSH1 0x20 DUP3 ADD SWAP1 POP SWAP2 SWAP1 POP JUMP JUMPDEST PUSH1 0x0 PUSH1 0x20 DUP3 ADD SWAP1 POP SWAP2 SWAP1 POP JUMP JUMPDEST PUSH1 0x0 PUSH1 0x20 DUP3 ADD SWAP1 POP SWAP2 SWAP1 POP JUMP JUMPDEST PUSH1 0x0 DUP3 DUP3 MSTORE PUSH1 0x20 DUP3 ADD SWAP1 POP SWAP3 SWAP2 POP POP JUMP JUMPDEST PUSH1 0x0 DUP3 DUP3 MSTORE PUSH1 0x20 DUP3 ADD SWAP1 POP SWAP3 SWAP2 POP POP JUMP JUMPDEST PUSH1 0x0 DUP3 DUP3 MSTORE PUSH1 0x20 DUP3 ADD SWAP1 POP SWAP3 SWAP2 POP POP JUMP JUMPDEST PUSH1 0x0 DUP3 DUP3 MSTORE PUSH1 0x20 DUP3 ADD SWAP1 POP SWAP3 SWAP2 POP POP JUMP JUMPDEST PUSH1 0x0 DUP2 SWAP1 POP SWAP3 SWAP2 POP POP JUMP JUMPDEST PUSH1 0x0 DUP1 DUP4 CALLDATALOAD PUSH1 0x1 PUSH1 0x20 SUB DUP5 CALLDATASIZE SUB SUB DUP2 SLT PUSH2 0x3264 JUMPI PUSH2 0x3263 PUSH2 0x3661 JUMP JUMPDEST JUMPDEST DUP4 DUP2 ADD SWAP3 POP DUP3 CALLDATALOAD SWAP2 POP PUSH1 0x20 DUP4 ADD SWAP3 POP PUSH8 0xFFFFFFFFFFFFFFFF DUP3 GT ISZERO PUSH2 0x328C JUMPI PUSH2 0x328B PUSH2 0x3634 JUMP JUMPDEST JUMPDEST PUSH1 0x1 DUP3 MUL CALLDATASIZE SUB DUP5 SGT ISZERO PUSH2 0x32A2 JUMPI PUSH2 0x32A1 PUSH2 0x364D JUMP JUMPDEST JUMPDEST POP SWAP3 POP SWAP3 SWAP1 POP JUMP JUMPDEST PUSH1 0x0 PUSH2 0x32B5 DUP3 PUSH2 0x3415 JUMP JUMPDEST SWAP2 POP PUSH2 0x32C0 DUP4 PUSH2 0x3415 JUMP JUMPDEST SWAP3 POP DUP3 PUSH32 0xFFFFFFFFFFFFFFFFFFFFFFFFFFFFFFFFFFFFFFFFFFFFFFFFFFFFFFFFFFFFFFFF SUB DUP3 GT ISZERO PUSH2 0x32F5 JUMPI PUSH2 0x32F4 PUSH2 0x3549 JUMP JUMPDEST JUMPDEST DUP3 DUP3 ADD SWAP1 POP SWAP3 SWAP2 POP POP JUMP JUMPDEST PUSH1 0x0 PUSH2 0x330B DUP3 PUSH2 0x3415 JUMP JUMPDEST SWAP2 POP PUSH2 0x3316 DUP4 PUSH2 0x3415 JUMP JUMPDEST SWAP3 POP DUP2 PUSH32 0xFFFFFFFFFFFFFFFFFFFFFFFFFFFFFFFFFFFFFFFFFFFFFFFFFFFFFFFFFFFFFFFF DIV DUP4 GT DUP3 ISZERO ISZERO AND ISZERO PUSH2 0x334F JUMPI PUSH2 0x334E PUSH2 0x3549 JUMP JUMPDEST JUMPDEST DUP3 DUP3 MUL SWAP1 POP SWAP3 SWAP2 POP POP JUMP JUMPDEST PUSH1 0x0 PUSH2 0x3365 DUP3 PUSH2 0x3415 JUMP JUMPDEST SWAP2 POP PUSH2 0x3370 DUP4 PUSH2 0x3415 JUMP JUMPDEST SWAP3 POP DUP3 DUP3 LT ISZERO PUSH2 0x3383 JUMPI PUSH2 0x3382 PUSH2 0x3549 JUMP JUMPDEST JUMPDEST DUP3 DUP3 SUB SWAP1 POP SWAP3 SWAP2 POP POP JUMP JUMPDEST PUSH1 0x0 PUSH2 0x3399 DUP3 PUSH2 0x33F5 JUMP JUMPDEST SWAP1 POP SWAP2 SWAP1 POP JUMP JUMPDEST PUSH1 0x0 DUP2 ISZERO ISZERO SWAP1 POP SWAP2 SWAP1 POP JUMP JUMPDEST PUSH1 0x0 DUP2 SWAP1 POP SWAP2 SWAP1 POP JUMP JUMPDEST PUSH1 0x0 PUSH32 0xFFFFFFFF00000000000000000000000000000000000000000000000000000000 DUP3 AND SWAP1 POP SWAP2 SWAP1 POP JUMP JUMPDEST PUSH1 0x0 DUP2 SWAP1 POP PUSH2 0x33F0 DUP3 PUSH2 0x397B JUMP JUMPDEST SWAP2 SWAP1 POP JUMP JUMPDEST PUSH1 0x0 PUSH20 0xFFFFFFFFFFFFFFFFFFFFFFFFFFFFFFFFFFFFFFFF DUP3 AND SWAP1 POP SWAP2 SWAP1 POP JUMP JUMPDEST PUSH1 0x0 DUP2 SWAP1 POP SWAP2 SWAP1 POP JUMP JUMPDEST PUSH1 0x0 PUSH2 0x342A DUP3 PUSH2 0x33E2 JUMP JUMPDEST SWAP1 POP SWAP2 SWAP1 POP JUMP JUMPDEST DUP3 DUP2 DUP4 CALLDATACOPY PUSH1 0x0 DUP4 DUP4 ADD MSTORE POP POP POP JUMP JUMPDEST PUSH1 0x0 JUMPDEST DUP4 DUP2 LT ISZERO PUSH2 0x345E JUMPI DUP1 DUP3 ADD MLOAD DUP2 DUP5 ADD MSTORE PUSH1 0x20 DUP2 ADD SWAP1 POP PUSH2 0x3443 JUMP JUMPDEST DUP4 DUP2 GT ISZERO PUSH2 0x346D JUMPI PUSH1 0x0 DUP5 DUP5 ADD MSTORE JUMPDEST POP POP POP POP JUMP JUMPDEST PUSH1 0x0 PUSH2 0x347E DUP3 PUSH2 0x3415 JUMP JUMPDEST SWAP2 POP PUSH1 0x0 DUP3 EQ ISZERO PUSH2 0x3492 JUMPI PUSH2 0x3491 PUSH2 0x3549 JUMP JUMPDEST JUMPDEST PUSH1 0x1 DUP3 SUB SWAP1 POP SWAP2 SWAP1 POP JUMP JUMPDEST PUSH1 0x0 PUSH1 0x2 DUP3 DIV SWAP1 POP PUSH1 0x1 DUP3 AND DUP1 PUSH2 0x34B5 JUMPI PUSH1 0x7F DUP3 AND SWAP2 POP JUMPDEST PUSH1 0x20 DUP3 LT DUP2 EQ ISZERO PUSH2 0x34C9 JUMPI PUSH2 0x34C8 PUSH2 0x35A7 JUMP JUMPDEST JUMPDEST POP SWAP2 SWAP1 POP JUMP JUMPDEST PUSH2 0x34D8 DUP3 PUSH2 0x366B JUMP JUMPDEST DUP2 ADD DUP2 DUP2 LT PUSH8 0xFFFFFFFFFFFFFFFF DUP3 GT OR ISZERO PUSH2 0x34F7 JUMPI PUSH2 0x34F6 PUSH2 0x3605 JUMP JUMPDEST JUMPDEST DUP1 PUSH1 0x40 MSTORE POP POP POP JUMP JUMPDEST PUSH1 0x0 PUSH2 0x350B DUP3 PUSH2 0x3415 JUMP JUMPDEST SWAP2 POP PUSH32 0xFFFFFFFFFFFFFFFFFFFFFFFFFFFFFFFFFFFFFFFFFFFFFFFFFFFFFFFFFFFFFFFF DUP3 EQ ISZERO PUSH2 0x353E JUMPI PUSH2 0x353D PUSH2 0x3549 JUMP JUMPDEST JUMPDEST PUSH1 0x1 DUP3 ADD SWAP1 POP SWAP2 SWAP1 POP JUMP JUMPDEST PUSH32 0x4E487B7100000000000000000000000000000000000000000000000000000000 PUSH1 0x0 MSTORE PUSH1 0x11 PUSH1 0x4 MSTORE PUSH1 0x24 PUSH1 0x0 REVERT JUMPDEST PUSH32 0x4E487B7100000000000000000000000000000000000000000000000000000000 PUSH1 0x0 MSTORE PUSH1 0x21 PUSH1 0x4 MSTORE PUSH1 0x24 PUSH1 0x0 REVERT JUMPDEST PUSH32 0x4E487B7100000000000000000000000000000000000000000000000000000000 PUSH1 0x0 MSTORE PUSH1 0x22 PUSH1 0x4 MSTORE PUSH1 0x24 PUSH1 0x0 REVERT JUMPDEST PUSH32 0x4E487B7100000000000000000000000000000000000000000000000000000000 PUSH1 0x0 MSTORE PUSH1 0x32 PUSH1 0x4 MSTORE PUSH1 0x24 PUSH1 0x0 REVERT JUMPDEST PUSH32 0x4E487B7100000000000000000000000000000000000000000000000000000000 PUSH1 0x0 MSTORE PUSH1 0x41 PUSH1 0x4 MSTORE PUSH1 0x24 PUSH1 0x0 REVERT JUMPDEST PUSH1 0x0 DUP1 REVERT JUMPDEST PUSH1 0x0 DUP1 REVERT JUMPDEST PUSH1 0x0 DUP1 REVERT JUMPDEST PUSH1 0x0 DUP1 REVERT JUMPDEST PUSH1 0x0 DUP1 REVERT JUMPDEST PUSH1 0x0 DUP1 REVERT JUMPDEST PUSH1 0x0 DUP1 REVERT JUMPDEST PUSH1 0x0 DUP1 REVERT JUMPDEST PUSH1 0x0 DUP1 REVERT JUMPDEST PUSH1 0x0 DUP1 REVERT JUMPDEST PUSH1 0x0 DUP1 REVERT JUMPDEST PUSH1 0x0 PUSH1 0x1F NOT PUSH1 0x1F DUP4 ADD AND SWAP1 POP SWAP2 SWAP1 POP JUMP JUMPDEST PUSH32 0x537472696E67733A20686578206C656E67746820696E73756666696369656E74 PUSH1 0x0 DUP3 ADD MSTORE POP JUMP JUMPDEST PUSH32 0x4F776E61626C653A206E6577206F776E657220697320746865207A65726F2061 PUSH1 0x0 DUP3 ADD MSTORE PUSH32 0x6464726573730000000000000000000000000000000000000000000000000000 PUSH1 0x20 DUP3 ADD MSTORE POP JUMP JUMPDEST PUSH32 0x50726F706F73616C2073686F756C6420626520696E2074616C6C790000000000 PUSH1 0x0 DUP3 ADD MSTORE POP JUMP JUMPDEST PUSH32 0x4E6F7420612076616C69642050726F706F73616C204964000000000000000000 PUSH1 0x0 DUP3 ADD MSTORE POP JUMP JUMPDEST PUSH32 0x54686520766F74696E6720706572696F642063616E6E6F742062652030000000 PUSH1 0x0 DUP3 ADD MSTORE POP JUMP JUMPDEST PUSH32 0x206D696E7420746F20746865207A65726F206164647265737300000000000000 PUSH1 0x0 DUP3 ADD MSTORE POP JUMP JUMPDEST PUSH32 0x4F776E61626C653A2063616C6C6572206973206E6F7420746865206F776E6572 PUSH1 0x0 DUP3 ADD MSTORE POP JUMP JUMPDEST PUSH32 0x766F74696E6720706572696F6420686173206E6F742065787069726564000000 PUSH1 0x0 DUP3 ADD MSTORE POP JUMP JUMPDEST PUSH32 0x666F7220746869732070726F706F73616C2C2074686520766F74696E67207469 PUSH1 0x0 DUP3 ADD MSTORE PUSH32 0x6D65206578706972656400000000000000000000000000000000000000000000 PUSH1 0x20 DUP3 ADD MSTORE POP JUMP JUMPDEST PUSH32 0x70726F706F73616C2068617320657870697265642E0000000000000000000000 PUSH1 0x0 DUP3 ADD MSTORE POP JUMP JUMPDEST PUSH32 0x566F7465206973206E6F7420696E2070726F6772657373000000000000000000 PUSH1 0x0 DUP3 ADD MSTORE POP JUMP JUMPDEST PUSH32 0x416363657373436F6E74726F6C3A206163636F756E7420000000000000000000 PUSH1 0x0 DUP3 ADD MSTORE POP JUMP JUMPDEST PUSH32 0x7573657220616C726561647920766F746564206F6E20746869732070726F706F PUSH1 0x0 DUP3 ADD MSTORE PUSH32 0x73616C0000000000000000000000000000000000000000000000000000000000 PUSH1 0x20 DUP3 ADD MSTORE POP JUMP JUMPDEST PUSH32 0x206973206D697373696E6720726F6C6520000000000000000000000000000000 PUSH1 0x0 DUP3 ADD MSTORE POP JUMP JUMPDEST PUSH32 0x416363657373436F6E74726F6C3A2063616E206F6E6C792072656E6F756E6365 PUSH1 0x0 DUP3 ADD MSTORE PUSH32 0x20726F6C657320666F722073656C660000000000000000000000000000000000 PUSH1 0x20 DUP3 ADD MSTORE POP JUMP JUMPDEST PUSH1 0x3 DUP2 LT PUSH2 0x398C JUMPI PUSH2 0x398B PUSH2 0x3578 JUMP JUMPDEST JUMPDEST POP JUMP JUMPDEST PUSH2 0x3998 DUP2 PUSH2 0x338E JUMP JUMPDEST DUP2 EQ PUSH2 0x39A3 JUMPI PUSH1 0x0 DUP1 REVERT JUMPDEST POP JUMP JUMPDEST PUSH2 0x39AF DUP2 PUSH2 0x33AC JUMP JUMPDEST DUP2 EQ PUSH2 0x39BA JUMPI PUSH1 0x0 DUP1 REVERT JUMPDEST POP JUMP JUMPDEST PUSH2 0x39C6 DUP2 PUSH2 0x33B6 JUMP JUMPDEST DUP2 EQ PUSH2 0x39D1 JUMPI PUSH1 0x0 DUP1 REVERT JUMPDEST POP JUMP JUMPDEST PUSH2 0x39DD DUP2 PUSH2 0x3415 JUMP JUMPDEST DUP2 EQ PUSH2 0x39E8 JUMPI PUSH1 0x0 DUP1 REVERT JUMPDEST POP JUMP INVALID LOG2 PUSH5 0x6970667358 0x22 SLT KECCAK256 0xC3 SELFDESTRUCT MULMOD BASEFEE 0x4D 0x26 0x2E CALL BALANCE PUSH9 0xAC9C61F23E50B55A93 SHR 0x2C 0x1F PUSH15 0x5401EA9F657A01503364736F6C6343 STOP ADDMOD SMOD STOP CALLER "
				},
				"gasEstimates": {
					"creation": {
						"codeDepositCost": "2976200",
						"executionCost": "infinite",
						"totalCost": "infinite"
					},
					"external": {
						"DEFAULT_ADMIN_ROLE()": "446",
						"ProposalCount()": "2518",
						"Proposals(uint256)": "infinite",
						"balanceOf(address)": "2909",
						"castVote(uint256,uint256[])": "infinite",
						"checkAdmin()": "2572",
						"countVotes(uint256)": "infinite",
						"createProposal(string,string[],uint256)": "infinite",
						"getDetails(uint256)": "infinite",
						"getProposalCount()": "2481",
						"getProposalExpirationTime(uint256)": "infinite",
						"getProposalStatus(uint256)": "5174",
						"getRoleAdmin(bytes32)": "infinite",
						"getWeight(uint256,uint256)": "infinite",
						"grantRole(bytes32,address)": "infinite",
						"hasRole(bytes32,address)": "3207",
						"mint(address,uint256)": "infinite",
						"name()": "infinite",
						"owner()": "2567",
						"renounceOwnership()": "30488",
						"renounceRole(bytes32,address)": "infinite",
						"revokeRole(bytes32,address)": "infinite",
						"setProposalToEnded(uint256)": "36101",
						"setProposalToTally(uint256)": "36102",
						"supportsInterface(bytes4)": "774",
						"symbol()": "infinite",
						"transferOwnership(address)": "30857",
						"userHasVoted(uint256,address)": "5354"
					},
					"internal": {
						"sqrt(uint256)": "infinite"
					}
				},
				"methodIdentifiers": {
					"DEFAULT_ADMIN_ROLE()": "a217fddf",
					"ProposalCount()": "be747c1c",
					"Proposals(uint256)": "d1dbe7d8",
					"balanceOf(address)": "70a08231",
					"castVote(uint256,uint256[])": "2fa48e9e",
					"checkAdmin()": "ab150226",
					"countVotes(uint256)": "1840f0ca",
					"createProposal(string,string[],uint256)": "3989ae34",
					"getDetails(uint256)": "b93a89f7",
					"getProposalCount()": "c08cc02d",
					"getProposalExpirationTime(uint256)": "4d5f9eba",
					"getProposalStatus(uint256)": "401853b7",
					"getRoleAdmin(bytes32)": "248a9ca3",
					"getWeight(uint256,uint256)": "0f39ee72",
					"grantRole(bytes32,address)": "2f2ff15d",
					"hasRole(bytes32,address)": "91d14854",
					"mint(address,uint256)": "40c10f19",
					"name()": "06fdde03",
					"owner()": "8da5cb5b",
					"renounceOwnership()": "715018a6",
					"renounceRole(bytes32,address)": "36568abe",
					"revokeRole(bytes32,address)": "d547741f",
					"setProposalToEnded(uint256)": "4c3bd9d6",
					"setProposalToTally(uint256)": "2d5e9d29",
					"supportsInterface(bytes4)": "01ffc9a7",
					"symbol()": "95d89b41",
					"transferOwnership(address)": "f2fde38b",
					"userHasVoted(uint256,address)": "5fc48d7e"
				}
			},
			"storageLayout": {
				"storage": [
					{
						"astId": 400,
						"contract": "lastQv.sol:Voting",
						"label": "_owner",
						"offset": 0,
						"slot": "0",
						"type": "t_address"
					},
					{
						"astId": 24,
						"contract": "lastQv.sol:Voting",
						"label": "_roles",
						"offset": 0,
						"slot": "1",
						"type": "t_mapping(t_bytes32,t_struct(RoleData)19_storage)"
					},
					{
						"astId": 1115,
						"contract": "lastQv.sol:Voting",
						"label": "_totalSupply",
						"offset": 0,
						"slot": "2",
						"type": "t_uint256"
					},
					{
						"astId": 1117,
						"contract": "lastQv.sol:Voting",
						"label": "symbol",
						"offset": 0,
						"slot": "3",
						"type": "t_string_storage"
					},
					{
						"astId": 1119,
						"contract": "lastQv.sol:Voting",
						"label": "name",
						"offset": 0,
						"slot": "4",
						"type": "t_string_storage"
					},
					{
						"astId": 1123,
						"contract": "lastQv.sol:Voting",
						"label": "_balances",
						"offset": 0,
						"slot": "5",
						"type": "t_mapping(t_address,t_uint256)"
					},
					{
						"astId": 1125,
						"contract": "lastQv.sol:Voting",
						"label": "ProposalCount",
						"offset": 0,
						"slot": "6",
						"type": "t_uint256"
					},
					{
						"astId": 1190,
						"contract": "lastQv.sol:Voting",
						"label": "Proposals",
						"offset": 0,
						"slot": "7",
						"type": "t_mapping(t_uint256,t_struct(Proposal)1170_storage)"
					},
					{
						"astId": 1192,
						"contract": "lastQv.sol:Voting",
						"label": "Owner",
						"offset": 0,
						"slot": "8",
						"type": "t_address"
					}
				],
				"types": {
					"t_address": {
						"encoding": "inplace",
						"label": "address",
						"numberOfBytes": "20"
					},
					"t_array(t_address)dyn_storage": {
						"base": "t_address",
						"encoding": "dynamic_array",
						"label": "address[]",
						"numberOfBytes": "32"
					},
					"t_array(t_uint256)dyn_storage": {
						"base": "t_uint256",
						"encoding": "dynamic_array",
						"label": "uint256[]",
						"numberOfBytes": "32"
					},
					"t_bool": {
						"encoding": "inplace",
						"label": "bool",
						"numberOfBytes": "1"
					},
					"t_bytes32": {
						"encoding": "inplace",
						"label": "bytes32",
						"numberOfBytes": "32"
					},
					"t_enum(ProposalStatus)1174": {
						"encoding": "inplace",
						"label": "enum Voting.ProposalStatus",
						"numberOfBytes": "1"
					},
					"t_mapping(t_address,t_bool)": {
						"encoding": "mapping",
						"key": "t_address",
						"label": "mapping(address => bool)",
						"numberOfBytes": "32",
						"value": "t_bool"
					},
					"t_mapping(t_address,t_struct(Voter)1180_storage)": {
						"encoding": "mapping",
						"key": "t_address",
						"label": "mapping(address => struct Voting.Voter)",
						"numberOfBytes": "32",
						"value": "t_struct(Voter)1180_storage"
					},
					"t_mapping(t_address,t_uint256)": {
						"encoding": "mapping",
						"key": "t_address",
						"label": "mapping(address => uint256)",
						"numberOfBytes": "32",
						"value": "t_uint256"
					},
					"t_mapping(t_bytes32,t_struct(RoleData)19_storage)": {
						"encoding": "mapping",
						"key": "t_bytes32",
						"label": "mapping(bytes32 => struct AccessControl.RoleData)",
						"numberOfBytes": "32",
						"value": "t_struct(RoleData)19_storage"
					},
					"t_mapping(t_uint256,t_struct(Proposal)1170_storage)": {
						"encoding": "mapping",
						"key": "t_uint256",
						"label": "mapping(uint256 => struct Voting.Proposal)",
						"numberOfBytes": "32",
						"value": "t_struct(Proposal)1170_storage"
					},
					"t_mapping(t_uint256,t_struct(option)1185_storage)": {
						"encoding": "mapping",
						"key": "t_uint256",
						"label": "mapping(uint256 => struct Voting.option)",
						"numberOfBytes": "32",
						"value": "t_struct(option)1185_storage"
					},
					"t_string_storage": {
						"encoding": "bytes",
						"label": "string",
						"numberOfBytes": "32"
					},
					"t_struct(Proposal)1170_storage": {
						"encoding": "inplace",
						"label": "struct Voting.Proposal",
						"members": [
							{
								"astId": 1147,
								"contract": "lastQv.sol:Voting",
								"label": "creator",
								"offset": 0,
								"slot": "0",
								"type": "t_address"
							},
							{
								"astId": 1150,
								"contract": "lastQv.sol:Voting",
								"label": "status",
								"offset": 20,
								"slot": "0",
								"type": "t_enum(ProposalStatus)1174"
							},
							{
								"astId": 1152,
								"contract": "lastQv.sol:Voting",
								"label": "description",
								"offset": 0,
								"slot": "1",
								"type": "t_string_storage"
							},
							{
								"astId": 1155,
								"contract": "lastQv.sol:Voting",
								"label": "voters",
								"offset": 0,
								"slot": "2",
								"type": "t_array(t_address)dyn_storage"
							},
							{
								"astId": 1157,
								"contract": "lastQv.sol:Voting",
								"label": "expirationTime",
								"offset": 0,
								"slot": "3",
								"type": "t_uint256"
							},
							{
								"astId": 1159,
								"contract": "lastQv.sol:Voting",
								"label": "numOfOptions",
								"offset": 0,
								"slot": "4",
								"type": "t_uint256"
							},
							{
								"astId": 1164,
								"contract": "lastQv.sol:Voting",
								"label": "voterInfo",
								"offset": 0,
								"slot": "5",
								"type": "t_mapping(t_address,t_struct(Voter)1180_storage)"
							},
							{
								"astId": 1169,
								"contract": "lastQv.sol:Voting",
								"label": "options",
								"offset": 0,
								"slot": "6",
								"type": "t_mapping(t_uint256,t_struct(option)1185_storage)"
							}
						],
						"numberOfBytes": "224"
					},
					"t_struct(RoleData)19_storage": {
						"encoding": "inplace",
						"label": "struct AccessControl.RoleData",
						"members": [
							{
								"astId": 16,
								"contract": "lastQv.sol:Voting",
								"label": "members",
								"offset": 0,
								"slot": "0",
								"type": "t_mapping(t_address,t_bool)"
							},
							{
								"astId": 18,
								"contract": "lastQv.sol:Voting",
								"label": "adminRole",
								"offset": 0,
								"slot": "1",
								"type": "t_bytes32"
							}
						],
						"numberOfBytes": "64"
					},
					"t_struct(Voter)1180_storage": {
						"encoding": "inplace",
						"label": "struct Voting.Voter",
						"members": [
							{
								"astId": 1176,
								"contract": "lastQv.sol:Voting",
								"label": "hasVoted",
								"offset": 0,
								"slot": "0",
								"type": "t_bool"
							},
							{
								"astId": 1179,
								"contract": "lastQv.sol:Voting",
								"label": "_tokens",
								"offset": 0,
								"slot": "1",
								"type": "t_array(t_uint256)dyn_storage"
							}
						],
						"numberOfBytes": "64"
					},
					"t_struct(option)1185_storage": {
						"encoding": "inplace",
						"label": "struct Voting.option",
						"members": [
							{
								"astId": 1182,
								"contract": "lastQv.sol:Voting",
								"label": "optionName",
								"offset": 0,
								"slot": "0",
								"type": "t_string_storage"
							},
							{
								"astId": 1184,
								"contract": "lastQv.sol:Voting",
								"label": "totalWeight",
								"offset": 0,
								"slot": "1",
								"type": "t_uint256"
							}
						],
						"numberOfBytes": "64"
					},
					"t_uint256": {
						"encoding": "inplace",
						"label": "uint256",
						"numberOfBytes": "32"
					}
				}
			},
			"userdoc": {
				"kind": "user",
				"methods": {},
				"version": 1
			}
		}
	}
}