{
	"Qvoting.sol": {
		"Qvoting": {
			"abi": [
				{
					"anonymous": false,
					"inputs": [
						{
							"indexed": false,
							"internalType": "uint256",
							"name": "proposalId",
							"type": "uint256"
						},
						{
							"indexed": false,
							"internalType": "address[]",
							"name": "voters",
							"type": "address[]"
						},
						{
							"indexed": false,
							"internalType": "address",
							"name": "creator",
							"type": "address"
						},
						{
							"indexed": false,
							"internalType": "uint256",
							"name": "startTime",
							"type": "uint256"
						},
						{
							"indexed": false,
							"internalType": "uint256",
							"name": "expirationTime",
							"type": "uint256"
						},
						{
							"indexed": false,
							"internalType": "string",
							"name": "description",
							"type": "string"
						},
						{
							"indexed": false,
							"internalType": "string[]",
							"name": "_cand",
							"type": "string[]"
						}
					],
					"name": "ProposalCreated",
					"type": "event"
				},
				{
					"anonymous": false,
					"inputs": [
						{
							"indexed": false,
							"internalType": "address",
							"name": "voter",
							"type": "address"
						},
						{
							"indexed": false,
							"internalType": "uint256",
							"name": "ProposalID",
							"type": "uint256"
						},
						{
							"indexed": false,
							"internalType": "uint256[]",
							"name": "_tokens",
							"type": "uint256[]"
						}
					],
					"name": "VoteCasted",
					"type": "event"
				},
				{
					"anonymous": false,
					"inputs": [
						{
							"indexed": false,
							"internalType": "string",
							"name": "mintAndburn",
							"type": "string"
						},
						{
							"indexed": false,
							"internalType": "address",
							"name": "account",
							"type": "address"
						},
						{
							"indexed": false,
							"internalType": "uint256",
							"name": "amount",
							"type": "uint256"
						}
					],
					"name": "mintAndburn",
					"type": "event"
				},
				{
					"inputs": [
						{
							"internalType": "address",
							"name": "",
							"type": "address"
						},
						{
							"internalType": "uint256",
							"name": "",
							"type": "uint256"
						}
					],
					"name": "allVoters",
					"outputs": [
						{
							"internalType": "uint256",
							"name": "proposalId",
							"type": "uint256"
						},
						{
							"internalType": "address",
							"name": "voterAddress",
							"type": "address"
						},
						{
							"internalType": "bool",
							"name": "hasVoted",
							"type": "bool"
						},
						{
							"internalType": "uint256",
							"name": "voteNum",
							"type": "uint256"
						}
					],
					"stateMutability": "view",
					"type": "function"
				},
				{
					"inputs": [
						{
							"internalType": "address",
							"name": "account",
							"type": "address"
						}
					],
					"name": "balanceOf",
					"outputs": [
						{
							"internalType": "uint256",
							"name": "",
							"type": "uint256"
						}
					],
					"stateMutability": "view",
					"type": "function"
				},
				{
					"inputs": [
						{
							"internalType": "uint8",
							"name": "_status",
							"type": "uint8"
						},
						{
							"internalType": "address[]",
							"name": "_voters",
							"type": "address[]"
						},
						{
							"internalType": "address",
							"name": "_creator",
							"type": "address"
						},
						{
							"internalType": "uint256",
							"name": "_startTime",
							"type": "uint256"
						},
						{
							"internalType": "uint256",
							"name": "_expirationTime",
							"type": "uint256"
						},
						{
							"internalType": "string",
							"name": "_disc",
							"type": "string"
						},
						{
							"internalType": "string[]",
							"name": "_cand",
							"type": "string[]"
						},
						{
							"internalType": "uint256",
							"name": "_voteRight",
							"type": "uint256"
						}
					],
					"name": "createProposal",
					"outputs": [],
					"stateMutability": "nonpayable",
					"type": "function"
				},
				{
					"inputs": [],
					"name": "decimals",
					"outputs": [
						{
							"internalType": "uint8",
							"name": "",
							"type": "uint8"
						}
					],
					"stateMutability": "view",
					"type": "function"
				},
				{
					"inputs": [
						{
							"internalType": "uint256",
							"name": "_proposalId",
							"type": "uint256"
						},
						{
							"internalType": "address[]",
							"name": "_voters",
							"type": "address[]"
						},
						{
							"internalType": "uint256",
							"name": "_voteRight",
							"type": "uint256"
						}
					],
					"name": "mintOwner",
					"outputs": [
						{
							"internalType": "bool",
							"name": "",
							"type": "bool"
						}
					],
					"stateMutability": "nonpayable",
					"type": "function"
				},
				{
					"inputs": [],
					"name": "name",
					"outputs": [
						{
							"internalType": "string",
							"name": "",
							"type": "string"
						}
					],
					"stateMutability": "view",
					"type": "function"
				},
				{
					"inputs": [
						{
							"internalType": "uint256",
							"name": "",
							"type": "uint256"
						}
					],
					"name": "proposals",
					"outputs": [
						{
							"internalType": "address",
							"name": "creator",
							"type": "address"
						},
						{
							"internalType": "uint8",
							"name": "status",
							"type": "uint8"
						},
						{
							"internalType": "string",
							"name": "disc",
							"type": "string"
						},
						{
							"internalType": "uint256",
							"name": "startTime",
							"type": "uint256"
						},
						{
							"internalType": "uint256",
							"name": "expirationTime",
							"type": "uint256"
						},
						{
							"internalType": "uint16",
							"name": "numOfOptions",
							"type": "uint16"
						},
						{
							"internalType": "uint256",
							"name": "voteRight",
							"type": "uint256"
						}
					],
					"stateMutability": "view",
					"type": "function"
				},
				{
					"inputs": [
						{
							"internalType": "uint256",
							"name": "_proposalId",
							"type": "uint256"
						},
						{
							"internalType": "address",
							"name": "_voter",
							"type": "address"
						},
						{
							"internalType": "string[]",
							"name": "_hash",
							"type": "string[]"
						},
						{
							"internalType": "uint256[]",
							"name": "v",
							"type": "uint256[]"
						}
					],
					"name": "responseProposal",
					"outputs": [],
					"stateMutability": "nonpayable",
					"type": "function"
				},
				{
					"inputs": [
						{
							"internalType": "uint256",
							"name": "_proposalId",
							"type": "uint256"
						}
					],
					"name": "resultOfProposal",
					"outputs": [
						{
							"internalType": "uint256",
							"name": "",
							"type": "uint256"
						},
						{
							"internalType": "string",
							"name": "",
							"type": "string"
						}
					],
					"stateMutability": "view",
					"type": "function"
				},
				{
					"inputs": [],
					"name": "symbol",
					"outputs": [
						{
							"internalType": "string",
							"name": "",
							"type": "string"
						}
					],
					"stateMutability": "view",
					"type": "function"
				},
				{
					"inputs": [],
					"name": "totalSupply",
					"outputs": [
						{
							"internalType": "uint256",
							"name": "",
							"type": "uint256"
						}
					],
					"stateMutability": "view",
					"type": "function"
				},
				{
					"inputs": [
						{
							"internalType": "address",
							"name": "",
							"type": "address"
						}
					],
					"name": "userProposal",
					"outputs": [
						{
							"internalType": "uint128",
							"name": "proposalCount",
							"type": "uint128"
						},
						{
							"internalType": "uint128",
							"name": "responseCount",
							"type": "uint128"
						}
					],
					"stateMutability": "view",
					"type": "function"
				}
			],
			"devdoc": {
				"kind": "dev",
				"methods": {
					"balanceOf(address)": {
						"details": "See {IERC20-balanceOf}."
					},
					"decimals()": {
						"details": "Returns the number of decimals used to get its user representation. For example, if `decimals` equals `2`, a balance of `505` tokens should be displayed to a user as `5.05` (`505 / 10 ** 2`). Tokens usually opt for a value of 18, imitating the relationship between Ether and Wei. This is the value {ERC20} uses, unless this function is overridden; NOTE: This information is only used for _display_ purposes: it in no way affects any of the arithmetic of the contract, including {IERC20-balanceOf} and {IERC20-transfer}."
					},
					"name()": {
						"details": "Returns the name of the token."
					},
					"symbol()": {
						"details": "Returns the symbol of the token, usually a shorter version of the name."
					},
					"totalSupply()": {
						"details": "See {IERC20-totalSupply}."
					}
				},
				"version": 1
			},
			"evm": {
				"assembly": "    /* \"Qvoting.sol\":481:5371  contract Qvoting is proposalEvents, QVtoken{\r... */\n  mstore(0x40, 0x80)\n  callvalue\n  dup1\n  iszero\n  tag_1\n  jumpi\n  0x00\n  dup1\n  revert\ntag_1:\n  pop\n    /* \"QvToken/ERC20.sol\":2016:2132  constructor(string memory name_, string memory symbol_) {\r... */\n  mload(0x40)\n  dup1\n  0x40\n  add\n  0x40\n  mstore\n  dup1\n  0x0c\n  dup2\n  mstore\n  0x20\n  add\n  0x51566f74696e67546f6b656e0000000000000000000000000000000000000000\n  dup2\n  mstore\n  pop\n  mload(0x40)\n  dup1\n  0x40\n  add\n  0x40\n  mstore\n  dup1\n  0x02\n  dup2\n  mstore\n  0x20\n  add\n  0x5176000000000000000000000000000000000000000000000000000000000000\n  dup2\n  mstore\n  pop\n    /* \"QvToken/ERC20.sol\":2091:2096  name_ */\n  dup2\n    /* \"QvToken/ERC20.sol\":2083:2088  _name */\n  0x02\n    /* \"QvToken/ERC20.sol\":2083:2096  _name = name_ */\n  swap1\n  dup1\n  mload\n  swap1\n  0x20\n  add\n  swap1\n  tag_5\n  swap3\n  swap2\n  swap1\n  tag_6\n  jump\t// in\ntag_5:\n  pop\n    /* \"QvToken/ERC20.sol\":2117:2124  symbol_ */\n  dup1\n    /* \"QvToken/ERC20.sol\":2107:2114  _symbol */\n  0x03\n    /* \"QvToken/ERC20.sol\":2107:2124  _symbol = symbol_ */\n  swap1\n  dup1\n  mload\n  swap1\n  0x20\n  add\n  swap1\n  tag_7\n  swap3\n  swap2\n  swap1\n  tag_6\n  jump\t// in\ntag_7:\n  pop\n    /* \"QvToken/ERC20.sol\":2016:2132  constructor(string memory name_, string memory symbol_) {\r... */\n  pop\n  pop\n    /* \"QvToken/QvToken.sol\":280:290  msg.sender */\n  caller\n    /* \"QvToken/QvToken.sol\":272:277  owner */\n  0x04\n  0x00\n    /* \"QvToken/QvToken.sol\":272:290  owner = msg.sender */\n  0x0100\n  exp\n  dup2\n  sload\n  dup2\n  0xffffffffffffffffffffffffffffffffffffffff\n  mul\n  not\n  and\n  swap1\n  dup4\n  0xffffffffffffffffffffffffffffffffffffffff\n  and\n  mul\n  or\n  swap1\n  sstore\n  pop\n    /* \"Qvoting.sol\":481:5371  contract Qvoting is proposalEvents, QVtoken{\r... */\n  jump(tag_9)\ntag_6:\n  dup3\n  dup1\n  sload\n  tag_10\n  swap1\n  tag_11\n  jump\t// in\ntag_10:\n  swap1\n  0x00\n  mstore\n  keccak256(0x00, 0x20)\n  swap1\n  0x1f\n  add\n  0x20\n  swap1\n  div\n  dup2\n  add\n  swap3\n  dup3\n  tag_13\n  jumpi\n  0x00\n  dup6\n  sstore\n  jump(tag_12)\ntag_13:\n  dup3\n  0x1f\n  lt\n  tag_14\n  jumpi\n  dup1\n  mload\n  not(0xff)\n  and\n  dup4\n  dup1\n  add\n  or\n  dup6\n  sstore\n  jump(tag_12)\ntag_14:\n  dup3\n  dup1\n  add\n  0x01\n  add\n  dup6\n  sstore\n  dup3\n  iszero\n  tag_12\n  jumpi\n  swap2\n  dup3\n  add\ntag_15:\n  dup3\n  dup2\n  gt\n  iszero\n  tag_16\n  jumpi\n  dup3\n  mload\n  dup3\n  sstore\n  swap2\n  0x20\n  add\n  swap2\n  swap1\n  0x01\n  add\n  swap1\n  jump(tag_15)\ntag_16:\ntag_12:\n  pop\n  swap1\n  pop\n  tag_17\n  swap2\n  swap1\n  tag_18\n  jump\t// in\ntag_17:\n  pop\n  swap1\n  jump\t// out\ntag_18:\ntag_19:\n  dup1\n  dup3\n  gt\n  iszero\n  tag_20\n  jumpi\n  0x00\n  dup2\n  0x00\n  swap1\n  sstore\n  pop\n  0x01\n  add\n  jump(tag_19)\ntag_20:\n  pop\n  swap1\n  jump\t// out\n    /* \"#utility.yul\":7:327   */\ntag_11:\n    /* \"#utility.yul\":51:57   */\n  0x00\n    /* \"#utility.yul\":88:89   */\n  0x02\n    /* \"#utility.yul\":82:86   */\n  dup3\n    /* \"#utility.yul\":78:90   */\n  div\n    /* \"#utility.yul\":68:90   */\n  swap1\n  pop\n    /* \"#utility.yul\":135:136   */\n  0x01\n    /* \"#utility.yul\":129:133   */\n  dup3\n    /* \"#utility.yul\":125:137   */\n  and\n    /* \"#utility.yul\":156:174   */\n  dup1\n    /* \"#utility.yul\":146:227   */\n  tag_23\n  jumpi\n    /* \"#utility.yul\":212:216   */\n  0x7f\n    /* \"#utility.yul\":204:210   */\n  dup3\n    /* \"#utility.yul\":200:217   */\n  and\n    /* \"#utility.yul\":190:217   */\n  swap2\n  pop\n    /* \"#utility.yul\":146:227   */\ntag_23:\n    /* \"#utility.yul\":274:276   */\n  0x20\n    /* \"#utility.yul\":266:272   */\n  dup3\n    /* \"#utility.yul\":263:277   */\n  lt\n    /* \"#utility.yul\":243:261   */\n  dup2\n    /* \"#utility.yul\":240:278   */\n  eq\n    /* \"#utility.yul\":237:321   */\n  iszero\n  tag_24\n  jumpi\n    /* \"#utility.yul\":293:311   */\n  tag_25\n  tag_26\n  jump\t// in\ntag_25:\n    /* \"#utility.yul\":237:321   */\ntag_24:\n    /* \"#utility.yul\":58:327   */\n  pop\n    /* \"#utility.yul\":7:327   */\n  swap2\n  swap1\n  pop\n  jump\t// out\n    /* \"#utility.yul\":333:513   */\ntag_26:\n    /* \"#utility.yul\":381:458   */\n  0x4e487b7100000000000000000000000000000000000000000000000000000000\n    /* \"#utility.yul\":378:379   */\n  0x00\n    /* \"#utility.yul\":371:459   */\n  mstore\n    /* \"#utility.yul\":478:482   */\n  0x22\n    /* \"#utility.yul\":475:476   */\n  0x04\n    /* \"#utility.yul\":468:483   */\n  mstore\n    /* \"#utility.yul\":502:506   */\n  0x24\n    /* \"#utility.yul\":499:500   */\n  0x00\n    /* \"#utility.yul\":492:507   */\n  revert\n    /* \"Qvoting.sol\":481:5371  contract Qvoting is proposalEvents, QVtoken{\r... */\ntag_9:\n  dataSize(sub_0)\n  dup1\n  dataOffset(sub_0)\n  0x00\n  codecopy\n  0x00\n  return\nstop\n\nsub_0: assembly {\n        /* \"Qvoting.sol\":481:5371  contract Qvoting is proposalEvents, QVtoken{\r... */\n      mstore(0x40, 0x80)\n      callvalue\n      dup1\n      iszero\n      tag_1\n      jumpi\n      0x00\n      dup1\n      revert\n    tag_1:\n      pop\n      jumpi(tag_2, lt(calldatasize, 0x04))\n      shr(0xe0, calldataload(0x00))\n      dup1\n      0x70a08231\n      gt\n      tag_15\n      jumpi\n      dup1\n      0x70a08231\n      eq\n      tag_9\n      jumpi\n      dup1\n      0x93d336aa\n      eq\n      tag_10\n      jumpi\n      dup1\n      0x95d89b41\n      eq\n      tag_11\n      jumpi\n      dup1\n      0x9d671564\n      eq\n      tag_12\n      jumpi\n      dup1\n      0xab9c70d4\n      eq\n      tag_13\n      jumpi\n      dup1\n      0xe745d68e\n      eq\n      tag_14\n      jumpi\n      jump(tag_2)\n    tag_15:\n      dup1\n      0x013cf08b\n      eq\n      tag_3\n      jumpi\n      dup1\n      0x06fdde03\n      eq\n      tag_4\n      jumpi\n      dup1\n      0x18160ddd\n      eq\n      tag_5\n      jumpi\n      dup1\n      0x313ce567\n      eq\n      tag_6\n      jumpi\n      dup1\n      0x4de77e48\n      eq\n      tag_7\n      jumpi\n      dup1\n      0x5c230eee\n      eq\n      tag_8\n      jumpi\n    tag_2:\n      0x00\n      dup1\n      revert\n        /* \"Qvoting.sol\":1304:1362  mapping(uint => proposalLibrary.proposal) public proposals */\n    tag_3:\n      tag_16\n      0x04\n      dup1\n      calldatasize\n      sub\n      dup2\n      add\n      swap1\n      tag_17\n      swap2\n      swap1\n      tag_18\n      jump\t// in\n    tag_17:\n      tag_19\n      jump\t// in\n    tag_16:\n      mload(0x40)\n      tag_20\n      swap8\n      swap7\n      swap6\n      swap5\n      swap4\n      swap3\n      swap2\n      swap1\n      tag_21\n      jump\t// in\n    tag_20:\n      mload(0x40)\n      dup1\n      swap2\n      sub\n      swap1\n      return\n        /* \"QvToken/ERC20.sol\":2202:2302  function name() public view virtual override returns (string memory) {\r... */\n    tag_4:\n      tag_22\n      tag_23\n      jump\t// in\n    tag_22:\n      mload(0x40)\n      tag_24\n      swap2\n      swap1\n      tag_25\n      jump\t// in\n    tag_24:\n      mload(0x40)\n      dup1\n      swap2\n      sub\n      swap1\n      return\n        /* \"QvToken/ERC20.sol\":3322:3430  function totalSupply() public view virtual override returns (uint256) {\r... */\n    tag_5:\n      tag_26\n      tag_27\n      jump\t// in\n    tag_26:\n      mload(0x40)\n      tag_28\n      swap2\n      swap1\n      tag_29\n      jump\t// in\n    tag_28:\n      mload(0x40)\n      dup1\n      swap2\n      sub\n      swap1\n      return\n        /* \"QvToken/ERC20.sol\":3164:3257  function decimals() public view virtual override returns (uint8) {\r... */\n    tag_6:\n      tag_30\n      tag_31\n      jump\t// in\n    tag_30:\n      mload(0x40)\n      tag_32\n      swap2\n      swap1\n      tag_33\n      jump\t// in\n    tag_32:\n      mload(0x40)\n      dup1\n      swap2\n      sub\n      swap1\n      return\n        /* \"Qvoting.sol\":1965:3262  function createProposal(uint8 _status, address[] memory _voters, address _creator,\r... */\n    tag_7:\n      tag_34\n      0x04\n      dup1\n      calldatasize\n      sub\n      dup2\n      add\n      swap1\n      tag_35\n      swap2\n      swap1\n      tag_36\n      jump\t// in\n    tag_35:\n      tag_37\n      jump\t// in\n    tag_34:\n      stop\n        /* \"Qvoting.sol\":3270:4519  function responseProposal(uint _proposalId, address _voter, string[] memory _hash, uint[] memory v) external {\r... */\n    tag_8:\n      tag_38\n      0x04\n      dup1\n      calldatasize\n      sub\n      dup2\n      add\n      swap1\n      tag_39\n      swap2\n      swap1\n      tag_40\n      jump\t// in\n    tag_39:\n      tag_41\n      jump\t// in\n    tag_38:\n      stop\n        /* \"QvToken/ERC20.sol\":3493:3620  function balanceOf(address account) public view virtual override returns (uint256) {\r... */\n    tag_9:\n      tag_42\n      0x04\n      dup1\n      calldatasize\n      sub\n      dup2\n      add\n      swap1\n      tag_43\n      swap2\n      swap1\n      tag_44\n      jump\t// in\n    tag_43:\n      tag_45\n      jump\t// in\n    tag_42:\n      mload(0x40)\n      tag_46\n      swap2\n      swap1\n      tag_29\n      jump\t// in\n    tag_46:\n      mload(0x40)\n      dup1\n      swap2\n      sub\n      swap1\n      return\n        /* \"Qvoting.sol\":4971:5366  function mintOwner(uint _proposalId, address[] memory _voters, uint _voteRight) external returns(bool)\r... */\n    tag_10:\n      tag_47\n      0x04\n      dup1\n      calldatasize\n      sub\n      dup2\n      add\n      swap1\n      tag_48\n      swap2\n      swap1\n      tag_49\n      jump\t// in\n    tag_48:\n      tag_50\n      jump\t// in\n    tag_47:\n      mload(0x40)\n      tag_51\n      swap2\n      swap1\n      tag_52\n      jump\t// in\n    tag_51:\n      mload(0x40)\n      dup1\n      swap2\n      sub\n      swap1\n      return\n        /* \"QvToken/ERC20.sol\":2421:2525  function symbol() public view virtual override returns (string memory) {\r... */\n    tag_11:\n      tag_53\n      tag_54\n      jump\t// in\n    tag_53:\n      mload(0x40)\n      tag_55\n      swap2\n      swap1\n      tag_25\n      jump\t// in\n    tag_55:\n      mload(0x40)\n      dup1\n      swap2\n      sub\n      swap1\n      return\n        /* \"Qvoting.sol\":4611:4965  function resultOfProposal(uint _proposalId) public view returns(uint, string memory){\r... */\n    tag_12:\n      tag_56\n      0x04\n      dup1\n      calldatasize\n      sub\n      dup2\n      add\n      swap1\n      tag_57\n      swap2\n      swap1\n      tag_18\n      jump\t// in\n    tag_57:\n      tag_58\n      jump\t// in\n    tag_56:\n      mload(0x40)\n      tag_59\n      swap3\n      swap2\n      swap1\n      tag_60\n      jump\t// in\n    tag_59:\n      mload(0x40)\n      dup1\n      swap2\n      sub\n      swap1\n      return\n        /* \"Qvoting.sol\":1400:1472  mapping(address => mapping(uint => voterLibrary.voter)) public allVoters */\n    tag_13:\n      tag_61\n      0x04\n      dup1\n      calldatasize\n      sub\n      dup2\n      add\n      swap1\n      tag_62\n      swap2\n      swap1\n      tag_63\n      jump\t// in\n    tag_62:\n      tag_64\n      jump\t// in\n    tag_61:\n      mload(0x40)\n      tag_65\n      swap5\n      swap4\n      swap3\n      swap2\n      swap1\n      tag_66\n      jump\t// in\n    tag_65:\n      mload(0x40)\n      dup1\n      swap2\n      sub\n      swap1\n      return\n        /* \"Qvoting.sol\":1201:1273  mapping(address => UserProposalLibrary.UserProposal) public userProposal */\n    tag_14:\n      tag_67\n      0x04\n      dup1\n      calldatasize\n      sub\n      dup2\n      add\n      swap1\n      tag_68\n      swap2\n      swap1\n      tag_44\n      jump\t// in\n    tag_68:\n      tag_69\n      jump\t// in\n    tag_67:\n      mload(0x40)\n      tag_70\n      swap3\n      swap2\n      swap1\n      tag_71\n      jump\t// in\n    tag_70:\n      mload(0x40)\n      dup1\n      swap2\n      sub\n      swap1\n      return\n        /* \"Qvoting.sol\":1304:1362  mapping(uint => proposalLibrary.proposal) public proposals */\n    tag_19:\n      mstore(0x20, 0x07)\n      dup1\n      0x00\n      mstore\n      keccak256(0x00, 0x40)\n      0x00\n      swap2\n      pop\n      swap1\n      pop\n      dup1\n      0x00\n      add\n      0x00\n      swap1\n      sload\n      swap1\n      0x0100\n      exp\n      swap1\n      div\n      0xffffffffffffffffffffffffffffffffffffffff\n      and\n      swap1\n      dup1\n      0x00\n      add\n      0x14\n      swap1\n      sload\n      swap1\n      0x0100\n      exp\n      swap1\n      div\n      0xff\n      and\n      swap1\n      dup1\n      0x01\n      add\n      dup1\n      sload\n      tag_72\n      swap1\n      tag_73\n      jump\t// in\n    tag_72:\n      dup1\n      0x1f\n      add\n      0x20\n      dup1\n      swap2\n      div\n      mul\n      0x20\n      add\n      mload(0x40)\n      swap1\n      dup2\n      add\n      0x40\n      mstore\n      dup1\n      swap3\n      swap2\n      swap1\n      dup2\n      dup2\n      mstore\n      0x20\n      add\n      dup3\n      dup1\n      sload\n      tag_74\n      swap1\n      tag_73\n      jump\t// in\n    tag_74:\n      dup1\n      iszero\n      tag_75\n      jumpi\n      dup1\n      0x1f\n      lt\n      tag_76\n      jumpi\n      0x0100\n      dup1\n      dup4\n      sload\n      div\n      mul\n      dup4\n      mstore\n      swap2\n      0x20\n      add\n      swap2\n      jump(tag_75)\n    tag_76:\n      dup3\n      add\n      swap2\n      swap1\n      0x00\n      mstore\n      keccak256(0x00, 0x20)\n      swap1\n    tag_77:\n      dup2\n      sload\n      dup2\n      mstore\n      swap1\n      0x01\n      add\n      swap1\n      0x20\n      add\n      dup1\n      dup4\n      gt\n      tag_77\n      jumpi\n      dup3\n      swap1\n      sub\n      0x1f\n      and\n      dup3\n      add\n      swap2\n    tag_75:\n      pop\n      pop\n      pop\n      pop\n      pop\n      swap1\n      dup1\n      0x02\n      add\n      sload\n      swap1\n      dup1\n      0x03\n      add\n      sload\n      swap1\n      dup1\n      0x04\n      add\n      0x00\n      swap1\n      sload\n      swap1\n      0x0100\n      exp\n      swap1\n      div\n      0xffff\n      and\n      swap1\n      dup1\n      0x05\n      add\n      sload\n      swap1\n      pop\n      dup8\n      jump\t// out\n        /* \"QvToken/ERC20.sol\":2202:2302  function name() public view virtual override returns (string memory) {\r... */\n    tag_23:\n        /* \"QvToken/ERC20.sol\":2256:2269  string memory */\n      0x60\n        /* \"QvToken/ERC20.sol\":2289:2294  _name */\n      0x02\n        /* \"QvToken/ERC20.sol\":2282:2294  return _name */\n      dup1\n      sload\n      tag_79\n      swap1\n      tag_73\n      jump\t// in\n    tag_79:\n      dup1\n      0x1f\n      add\n      0x20\n      dup1\n      swap2\n      div\n      mul\n      0x20\n      add\n      mload(0x40)\n      swap1\n      dup2\n      add\n      0x40\n      mstore\n      dup1\n      swap3\n      swap2\n      swap1\n      dup2\n      dup2\n      mstore\n      0x20\n      add\n      dup3\n      dup1\n      sload\n      tag_80\n      swap1\n      tag_73\n      jump\t// in\n    tag_80:\n      dup1\n      iszero\n      tag_81\n      jumpi\n      dup1\n      0x1f\n      lt\n      tag_82\n      jumpi\n      0x0100\n      dup1\n      dup4\n      sload\n      div\n      mul\n      dup4\n      mstore\n      swap2\n      0x20\n      add\n      swap2\n      jump(tag_81)\n    tag_82:\n      dup3\n      add\n      swap2\n      swap1\n      0x00\n      mstore\n      keccak256(0x00, 0x20)\n      swap1\n    tag_83:\n      dup2\n      sload\n      dup2\n      mstore\n      swap1\n      0x01\n      add\n      swap1\n      0x20\n      add\n      dup1\n      dup4\n      gt\n      tag_83\n      jumpi\n      dup3\n      swap1\n      sub\n      0x1f\n      and\n      dup3\n      add\n      swap2\n    tag_81:\n      pop\n      pop\n      pop\n      pop\n      pop\n      swap1\n      pop\n        /* \"QvToken/ERC20.sol\":2202:2302  function name() public view virtual override returns (string memory) {\r... */\n      swap1\n      jump\t// out\n        /* \"QvToken/ERC20.sol\":3322:3430  function totalSupply() public view virtual override returns (uint256) {\r... */\n    tag_27:\n        /* \"QvToken/ERC20.sol\":3383:3390  uint256 */\n      0x00\n        /* \"QvToken/ERC20.sol\":3410:3422  _totalSupply */\n      sload(0x01)\n        /* \"QvToken/ERC20.sol\":3403:3422  return _totalSupply */\n      swap1\n      pop\n        /* \"QvToken/ERC20.sol\":3322:3430  function totalSupply() public view virtual override returns (uint256) {\r... */\n      swap1\n      jump\t// out\n        /* \"QvToken/ERC20.sol\":3164:3257  function decimals() public view virtual override returns (uint8) {\r... */\n    tag_31:\n        /* \"QvToken/ERC20.sol\":3222:3227  uint8 */\n      0x00\n        /* \"QvToken/ERC20.sol\":3247:3249  18 */\n      0x12\n        /* \"QvToken/ERC20.sol\":3240:3249  return 18 */\n      swap1\n      pop\n        /* \"QvToken/ERC20.sol\":3164:3257  function decimals() public view virtual override returns (uint8) {\r... */\n      swap1\n      jump\t// out\n        /* \"Qvoting.sol\":1965:3262  function createProposal(uint8 _status, address[] memory _voters, address _creator,\r... */\n    tag_37:\n        /* \"Qvoting.sol\":2339:2349  _startTime */\n      dup6\n        /* \"Qvoting.sol\":2321:2336  block.timestamp */\n      timestamp\n        /* \"Qvoting.sol\":2321:2349  block.timestamp < _startTime */\n      lt\n        /* \"Qvoting.sol\":2313:2373  require(block.timestamp < _startTime,\"proposal not started\") */\n      tag_87\n      jumpi\n      mload(0x40)\n      0x08c379a000000000000000000000000000000000000000000000000000000000\n      dup2\n      mstore\n      0x04\n      add\n      tag_88\n      swap1\n      tag_89\n      jump\t// in\n    tag_88:\n      mload(0x40)\n      dup1\n      swap2\n      sub\n      swap1\n      revert\n    tag_87:\n        /* \"Qvoting.sol\":2410:2425  _expirationTime */\n      dup5\n        /* \"Qvoting.sol\":2392:2407  block.timestamp */\n      timestamp\n        /* \"Qvoting.sol\":2392:2425  block.timestamp < _expirationTime */\n      lt\n        /* \"Qvoting.sol\":2384:2473  require(block.timestamp < _expirationTime,\"End time should be greater than current time\") */\n      tag_90\n      jumpi\n      mload(0x40)\n      0x08c379a000000000000000000000000000000000000000000000000000000000\n      dup2\n      mstore\n      0x04\n      add\n      tag_91\n      swap1\n      tag_92\n      jump\t// in\n    tag_91:\n      mload(0x40)\n      dup1\n      swap2\n      sub\n      swap1\n      revert\n    tag_90:\n        /* \"Qvoting.sol\":2505:2520  _expirationTime */\n      dup5\n        /* \"Qvoting.sol\":2492:2502  _startTime */\n      dup7\n        /* \"Qvoting.sol\":2492:2520  _startTime < _expirationTime */\n      lt\n        /* \"Qvoting.sol\":2484:2566  require(_startTime < _expirationTime,\"End time should be greater than start time\") */\n      tag_93\n      jumpi\n      mload(0x40)\n      0x08c379a000000000000000000000000000000000000000000000000000000000\n      dup2\n      mstore\n      0x04\n      add\n      tag_94\n      swap1\n      tag_95\n      jump\t// in\n    tag_94:\n      mload(0x40)\n      dup1\n      swap2\n      sub\n      swap1\n      revert\n    tag_93:\n        /* \"Qvoting.sol\":2579:2589  proposalId */\n      0x05\n      0x00\n        /* \"Qvoting.sol\":2579:2591  proposalId++ */\n      dup2\n      sload\n      dup1\n      swap3\n      swap2\n      swap1\n      tag_96\n      swap1\n      tag_97\n      jump\t// in\n    tag_96:\n      swap2\n      swap1\n      pop\n      sstore\n      pop\n        /* \"Qvoting.sol\":2602:2714  proposals[proposalId].createProposal(_status,_voters,_creator,_startTime,_expirationTime,_disc,_voteRight,_cand) */\n      tag_98\n        /* \"Qvoting.sol\":2639:2646  _status */\n      dup10\n        /* \"Qvoting.sol\":2647:2654  _voters */\n      dup10\n        /* \"Qvoting.sol\":2655:2663  _creator */\n      dup10\n        /* \"Qvoting.sol\":2664:2674  _startTime */\n      dup10\n        /* \"Qvoting.sol\":2675:2690  _expirationTime */\n      dup10\n        /* \"Qvoting.sol\":2691:2696  _disc */\n      dup10\n        /* \"Qvoting.sol\":2697:2707  _voteRight */\n      dup8\n        /* \"Qvoting.sol\":2708:2713  _cand */\n      dup11\n      dup11\n        /* \"Qvoting.sol\":2602:2611  proposals */\n      0x07\n        /* \"Qvoting.sol\":2602:2623  proposals[proposalId] */\n      0x00\n        /* \"Qvoting.sol\":2612:2622  proposalId */\n      sload(0x05)\n        /* \"Qvoting.sol\":2602:2623  proposals[proposalId] */\n      dup2\n      mstore\n      0x20\n      add\n      swap1\n      dup2\n      mstore\n      0x20\n      add\n      0x00\n      keccak256\n        /* \"Qvoting.sol\":2602:2638  proposals[proposalId].createProposal */\n      tag_99\n      swap1\n        /* \"Qvoting.sol\":2602:2714  proposals[proposalId].createProposal(_status,_voters,_creator,_startTime,_expirationTime,_disc,_voteRight,_cand) */\n      swap10\n      swap9\n      swap8\n      swap7\n      swap6\n      swap5\n      swap4\n      swap3\n      swap2\n      swap1\n      0xffffffff\n      and\n      jump\t// in\n    tag_98:\n      pop\n        /* \"Qvoting.sol\":2730:2814  ProposalCreated(proposalId, _voters,_creator,_startTime,_expirationTime,_disc,_cand) */\n      0x239a8a71a7d1cb0d134f6cc072ad6390e36a88c8e78dff69013ee79528441e80\n        /* \"Qvoting.sol\":2746:2756  proposalId */\n      sload(0x05)\n        /* \"Qvoting.sol\":2758:2765  _voters */\n      dup10\n        /* \"Qvoting.sol\":2766:2774  _creator */\n      dup10\n        /* \"Qvoting.sol\":2775:2785  _startTime */\n      dup10\n        /* \"Qvoting.sol\":2786:2801  _expirationTime */\n      dup10\n        /* \"Qvoting.sol\":2802:2807  _disc */\n      dup10\n        /* \"Qvoting.sol\":2808:2813  _cand */\n      dup10\n      dup10\n        /* \"Qvoting.sol\":2730:2814  ProposalCreated(proposalId, _voters,_creator,_startTime,_expirationTime,_disc,_cand) */\n      mload(0x40)\n      tag_100\n      swap9\n      swap8\n      swap7\n      swap6\n      swap5\n      swap4\n      swap3\n      swap2\n      swap1\n      tag_101\n      jump\t// in\n    tag_100:\n      mload(0x40)\n      dup1\n      swap2\n      sub\n      swap1\n      log1\n        /* \"Qvoting.sol\":2854:2858  true */\n      0x01\n        /* \"Qvoting.sol\":2825:2839  validProposals */\n      0x09\n        /* \"Qvoting.sol\":2825:2851  validProposals[proposalId] */\n      0x00\n        /* \"Qvoting.sol\":2840:2850  proposalId */\n      sload(0x05)\n        /* \"Qvoting.sol\":2825:2851  validProposals[proposalId] */\n      dup2\n      mstore\n      0x20\n      add\n      swap1\n      dup2\n      mstore\n      0x20\n      add\n      0x00\n      keccak256\n      0x00\n        /* \"Qvoting.sol\":2825:2858  validProposals[proposalId] = true */\n      0x0100\n      exp\n      dup2\n      sload\n      dup2\n      0xff\n      mul\n      not\n      and\n      swap1\n      dup4\n      iszero\n      iszero\n      mul\n      or\n      swap1\n      sstore\n      pop\n        /* \"Qvoting.sol\":2930:2939  uint256 i */\n      0x00\n        /* \"Qvoting.sol\":2926:3185  for(uint256 i=0;i<_voters.length;i++){\r... */\n    tag_102:\n        /* \"Qvoting.sol\":2944:2951  _voters */\n      dup9\n        /* \"Qvoting.sol\":2944:2958  _voters.length */\n      mload\n        /* \"Qvoting.sol\":2942:2943  i */\n      dup2\n        /* \"Qvoting.sol\":2942:2958  i<_voters.length */\n      lt\n        /* \"Qvoting.sol\":2926:3185  for(uint256 i=0;i<_voters.length;i++){\r... */\n      iszero\n      tag_103\n      jumpi\n        /* \"Qvoting.sol\":2978:3005  mint(_voters[i],_voteRight) */\n      tag_105\n        /* \"Qvoting.sol\":2983:2990  _voters */\n      dup10\n        /* \"Qvoting.sol\":2991:2992  i */\n      dup3\n        /* \"Qvoting.sol\":2983:2993  _voters[i] */\n      dup2\n      mload\n      dup2\n      lt\n      tag_106\n      jumpi\n      tag_107\n      tag_108\n      jump\t// in\n    tag_107:\n    tag_106:\n      0x20\n      mul\n      0x20\n      add\n      add\n      mload\n        /* \"Qvoting.sol\":2994:3004  _voteRight */\n      dup4\n        /* \"Qvoting.sol\":2978:2982  mint */\n      tag_109\n        /* \"Qvoting.sol\":2978:3005  mint(_voters[i],_voteRight) */\n      jump\t// in\n    tag_105:\n        /* \"Qvoting.sol\":3020:3108  allVoters[_voters[i]][proposalId].createVoter(proposalId, _voters[i], false, _voteRight) */\n      tag_110\n        /* \"Qvoting.sol\":3066:3076  proposalId */\n      sload(0x05)\n        /* \"Qvoting.sol\":3078:3085  _voters */\n      dup11\n        /* \"Qvoting.sol\":3086:3087  i */\n      dup4\n        /* \"Qvoting.sol\":3078:3088  _voters[i] */\n      dup2\n      mload\n      dup2\n      lt\n      tag_111\n      jumpi\n      tag_112\n      tag_108\n      jump\t// in\n    tag_112:\n    tag_111:\n      0x20\n      mul\n      0x20\n      add\n      add\n      mload\n        /* \"Qvoting.sol\":3090:3095  false */\n      0x00\n        /* \"Qvoting.sol\":3097:3107  _voteRight */\n      dup6\n        /* \"Qvoting.sol\":3020:3029  allVoters */\n      0x08\n        /* \"Qvoting.sol\":3020:3041  allVoters[_voters[i]] */\n      0x00\n        /* \"Qvoting.sol\":3030:3037  _voters */\n      dup16\n        /* \"Qvoting.sol\":3038:3039  i */\n      dup9\n        /* \"Qvoting.sol\":3030:3040  _voters[i] */\n      dup2\n      mload\n      dup2\n      lt\n      tag_113\n      jumpi\n      tag_114\n      tag_108\n      jump\t// in\n    tag_114:\n    tag_113:\n      0x20\n      mul\n      0x20\n      add\n      add\n      mload\n        /* \"Qvoting.sol\":3020:3041  allVoters[_voters[i]] */\n      0xffffffffffffffffffffffffffffffffffffffff\n      and\n      0xffffffffffffffffffffffffffffffffffffffff\n      and\n      dup2\n      mstore\n      0x20\n      add\n      swap1\n      dup2\n      mstore\n      0x20\n      add\n      0x00\n      keccak256\n        /* \"Qvoting.sol\":3020:3053  allVoters[_voters[i]][proposalId] */\n      0x00\n        /* \"Qvoting.sol\":3042:3052  proposalId */\n      sload(0x05)\n        /* \"Qvoting.sol\":3020:3053  allVoters[_voters[i]][proposalId] */\n      dup2\n      mstore\n      0x20\n      add\n      swap1\n      dup2\n      mstore\n      0x20\n      add\n      0x00\n      keccak256\n        /* \"Qvoting.sol\":3020:3065  allVoters[_voters[i]][proposalId].createVoter */\n      tag_115\n      swap1\n        /* \"Qvoting.sol\":3020:3108  allVoters[_voters[i]][proposalId].createVoter(proposalId, _voters[i], false, _voteRight) */\n      swap5\n      swap4\n      swap3\n      swap2\n      swap1\n      0xffffffff\n      and\n      jump\t// in\n    tag_110:\n      pop\n        /* \"Qvoting.sol\":3128:3169  mintAndburn(\"mint\",_voters[i],_voteRight) */\n      0xabf5327be9f5825c40d58bda541dd07f09b62df3376bbd5ecdbaa8bd82a9d492\n        /* \"Qvoting.sol\":3147:3154  _voters */\n      dup10\n        /* \"Qvoting.sol\":3155:3156  i */\n      dup3\n        /* \"Qvoting.sol\":3147:3157  _voters[i] */\n      dup2\n      mload\n      dup2\n      lt\n      tag_116\n      jumpi\n      tag_117\n      tag_108\n      jump\t// in\n    tag_117:\n    tag_116:\n      0x20\n      mul\n      0x20\n      add\n      add\n      mload\n        /* \"Qvoting.sol\":3158:3168  _voteRight */\n      dup4\n        /* \"Qvoting.sol\":3128:3169  mintAndburn(\"mint\",_voters[i],_voteRight) */\n      mload(0x40)\n      tag_118\n      swap3\n      swap2\n      swap1\n      tag_119\n      jump\t// in\n    tag_118:\n      mload(0x40)\n      dup1\n      swap2\n      sub\n      swap1\n      log1\n        /* \"Qvoting.sol\":2959:2962  i++ */\n      dup1\n      dup1\n      tag_120\n      swap1\n      tag_97\n      jump\t// in\n    tag_120:\n      swap2\n      pop\n      pop\n        /* \"Qvoting.sol\":2926:3185  for(uint256 i=0;i<_voters.length;i++){\r... */\n      jump(tag_102)\n    tag_103:\n      pop\n        /* \"Qvoting.sol\":3197:3254  userProposal[_msgSender()].updateProposalList(proposalId) */\n      tag_121\n        /* \"Qvoting.sol\":3243:3253  proposalId */\n      sload(0x05)\n        /* \"Qvoting.sol\":3197:3209  userProposal */\n      0x06\n        /* \"Qvoting.sol\":3197:3223  userProposal[_msgSender()] */\n      0x00\n        /* \"Qvoting.sol\":3210:3222  _msgSender() */\n      tag_122\n        /* \"Qvoting.sol\":3210:3220  _msgSender */\n      tag_123\n        /* \"Qvoting.sol\":3210:3222  _msgSender() */\n      jump\t// in\n    tag_122:\n        /* \"Qvoting.sol\":3197:3223  userProposal[_msgSender()] */\n      0xffffffffffffffffffffffffffffffffffffffff\n      and\n      0xffffffffffffffffffffffffffffffffffffffff\n      and\n      dup2\n      mstore\n      0x20\n      add\n      swap1\n      dup2\n      mstore\n      0x20\n      add\n      0x00\n      keccak256\n        /* \"Qvoting.sol\":3197:3242  userProposal[_msgSender()].updateProposalList */\n      tag_124\n      swap1\n        /* \"Qvoting.sol\":3197:3254  userProposal[_msgSender()].updateProposalList(proposalId) */\n      swap2\n      swap1\n      0xffffffff\n      and\n      jump\t// in\n    tag_121:\n      pop\n        /* \"Qvoting.sol\":1965:3262  function createProposal(uint8 _status, address[] memory _voters, address _creator,\r... */\n      pop\n      pop\n      pop\n      pop\n      pop\n      pop\n      pop\n      pop\n      pop\n      jump\t// out\n        /* \"Qvoting.sol\":3270:4519  function responseProposal(uint _proposalId, address _voter, string[] memory _hash, uint[] memory v) external {\r... */\n    tag_41:\n        /* \"Qvoting.sol\":3493:3507  validProposals */\n      0x09\n        /* \"Qvoting.sol\":3493:3520  validProposals[_proposalId] */\n      0x00\n        /* \"Qvoting.sol\":3508:3519  _proposalId */\n      dup6\n        /* \"Qvoting.sol\":3493:3520  validProposals[_proposalId] */\n      dup2\n      mstore\n      0x20\n      add\n      swap1\n      dup2\n      mstore\n      0x20\n      add\n      0x00\n      keccak256\n      0x00\n      swap1\n      sload\n      swap1\n      0x0100\n      exp\n      swap1\n      div\n      0xff\n      and\n        /* \"Qvoting.sol\":3485:3542  require(validProposals[_proposalId],\"invalid proposalId\") */\n      tag_126\n      jumpi\n      mload(0x40)\n      0x08c379a000000000000000000000000000000000000000000000000000000000\n      dup2\n      mstore\n      0x04\n      add\n      tag_127\n      swap1\n      tag_128\n      jump\t// in\n    tag_127:\n      mload(0x40)\n      dup1\n      swap2\n      sub\n      swap1\n      revert\n    tag_126:\n        /* \"Qvoting.sol\":3606:3617  _proposalId */\n      dup4\n        /* \"Qvoting.sol\":3561:3570  allVoters */\n      0x08\n        /* \"Qvoting.sol\":3561:3578  allVoters[_voter] */\n      0x00\n        /* \"Qvoting.sol\":3571:3577  _voter */\n      dup6\n        /* \"Qvoting.sol\":3561:3578  allVoters[_voter] */\n      0xffffffffffffffffffffffffffffffffffffffff\n      and\n      0xffffffffffffffffffffffffffffffffffffffff\n      and\n      dup2\n      mstore\n      0x20\n      add\n      swap1\n      dup2\n      mstore\n      0x20\n      add\n      0x00\n      keccak256\n        /* \"Qvoting.sol\":3561:3591  allVoters[_voter][_proposalId] */\n      0x00\n        /* \"Qvoting.sol\":3579:3590  _proposalId */\n      dup7\n        /* \"Qvoting.sol\":3561:3591  allVoters[_voter][_proposalId] */\n      dup2\n      mstore\n      0x20\n      add\n      swap1\n      dup2\n      mstore\n      0x20\n      add\n      0x00\n      keccak256\n        /* \"Qvoting.sol\":3561:3602  allVoters[_voter][_proposalId].proposalId */\n      0x00\n      add\n      sload\n        /* \"Qvoting.sol\":3561:3617  allVoters[_voter][_proposalId].proposalId == _proposalId */\n      eq\n        /* \"Qvoting.sol\":3553:3657  require(allVoters[_voter][_proposalId].proposalId == _proposalId, \"not a valid voter for this proposal\") */\n      tag_129\n      jumpi\n      mload(0x40)\n      0x08c379a000000000000000000000000000000000000000000000000000000000\n      dup2\n      mstore\n      0x04\n      add\n      tag_130\n      swap1\n      tag_131\n      jump\t// in\n    tag_130:\n      mload(0x40)\n      dup1\n      swap2\n      sub\n      swap1\n      revert\n    tag_129:\n        /* \"Qvoting.sol\":3738:3747  allVoters */\n      0x08\n        /* \"Qvoting.sol\":3738:3755  allVoters[_voter] */\n      0x00\n        /* \"Qvoting.sol\":3748:3754  _voter */\n      dup5\n        /* \"Qvoting.sol\":3738:3755  allVoters[_voter] */\n      0xffffffffffffffffffffffffffffffffffffffff\n      and\n      0xffffffffffffffffffffffffffffffffffffffff\n      and\n      dup2\n      mstore\n      0x20\n      add\n      swap1\n      dup2\n      mstore\n      0x20\n      add\n      0x00\n      keccak256\n        /* \"Qvoting.sol\":3738:3768  allVoters[_voter][_proposalId] */\n      0x00\n        /* \"Qvoting.sol\":3756:3767  _proposalId */\n      dup6\n        /* \"Qvoting.sol\":3738:3768  allVoters[_voter][_proposalId] */\n      dup2\n      mstore\n      0x20\n      add\n      swap1\n      dup2\n      mstore\n      0x20\n      add\n      0x00\n      keccak256\n        /* \"Qvoting.sol\":3738:3777  allVoters[_voter][_proposalId].hasVoted */\n      0x01\n      add\n      0x14\n      swap1\n      sload\n      swap1\n      0x0100\n      exp\n      swap1\n      div\n      0xff\n      and\n        /* \"Qvoting.sol\":3737:3777  !allVoters[_voter][_proposalId].hasVoted */\n      iszero\n        /* \"Qvoting.sol\":3729:3795  require(!allVoters[_voter][_proposalId].hasVoted, \"already voted\") */\n      tag_132\n      jumpi\n      mload(0x40)\n      0x08c379a000000000000000000000000000000000000000000000000000000000\n      dup2\n      mstore\n      0x04\n      add\n      tag_133\n      swap1\n      tag_134\n      jump\t// in\n    tag_133:\n      mload(0x40)\n      dup1\n      swap2\n      sub\n      swap1\n      revert\n    tag_132:\n        /* \"Qvoting.sol\":3852:3857  _hash */\n      dup2\n        /* \"Qvoting.sol\":3852:3864  _hash.length */\n      mload\n        /* \"Qvoting.sol\":3814:3823  proposals */\n      0x07\n        /* \"Qvoting.sol\":3814:3836  proposals[_proposalId] */\n      0x00\n        /* \"Qvoting.sol\":3824:3835  _proposalId */\n      dup7\n        /* \"Qvoting.sol\":3814:3836  proposals[_proposalId] */\n      dup2\n      mstore\n      0x20\n      add\n      swap1\n      dup2\n      mstore\n      0x20\n      add\n      0x00\n      keccak256\n        /* \"Qvoting.sol\":3814:3849  proposals[_proposalId].numOfOptions */\n      0x04\n      add\n      0x00\n      swap1\n      sload\n      swap1\n      0x0100\n      exp\n      swap1\n      div\n      0xffff\n      and\n        /* \"Qvoting.sol\":3814:3864  proposals[_proposalId].numOfOptions ==_hash.length */\n      0xffff\n      and\n      eq\n        /* \"Qvoting.sol\":3806:3905  require(proposals[_proposalId].numOfOptions ==_hash.length, \"not a valid length of hash response!\") */\n      tag_135\n      jumpi\n      mload(0x40)\n      0x08c379a000000000000000000000000000000000000000000000000000000000\n      dup2\n      mstore\n      0x04\n      add\n      tag_136\n      swap1\n      tag_137\n      jump\t// in\n    tag_136:\n      mload(0x40)\n      dup1\n      swap2\n      sub\n      swap1\n      revert\n    tag_135:\n        /* \"Qvoting.sol\":3916:3924  uint sum */\n      0x00\n        /* \"Qvoting.sol\":3941:3947  uint i */\n      dup1\n        /* \"Qvoting.sol\":3937:4006  for(uint i=0;i<v.length;i++){\r... */\n    tag_138:\n        /* \"Qvoting.sol\":3952:3953  v */\n      dup3\n        /* \"Qvoting.sol\":3952:3960  v.length */\n      mload\n        /* \"Qvoting.sol\":3950:3951  i */\n      dup2\n        /* \"Qvoting.sol\":3950:3960  i<v.length */\n      lt\n        /* \"Qvoting.sol\":3937:4006  for(uint i=0;i<v.length;i++){\r... */\n      iszero\n      tag_139\n      jumpi\n        /* \"Qvoting.sol\":3990:3991  v */\n      dup3\n        /* \"Qvoting.sol\":3992:3993  i */\n      dup2\n        /* \"Qvoting.sol\":3990:3994  v[i] */\n      dup2\n      mload\n      dup2\n      lt\n      tag_141\n      jumpi\n      tag_142\n      tag_108\n      jump\t// in\n    tag_142:\n    tag_141:\n      0x20\n      mul\n      0x20\n      add\n      add\n      mload\n        /* \"Qvoting.sol\":3985:3986  v */\n      dup4\n        /* \"Qvoting.sol\":3987:3988  i */\n      dup3\n        /* \"Qvoting.sol\":3985:3989  v[i] */\n      dup2\n      mload\n      dup2\n      lt\n      tag_143\n      jumpi\n      tag_144\n      tag_108\n      jump\t// in\n    tag_144:\n    tag_143:\n      0x20\n      mul\n      0x20\n      add\n      add\n      mload\n        /* \"Qvoting.sol\":3985:3994  v[i]*v[i] */\n      tag_145\n      swap2\n      swap1\n      tag_146\n      jump\t// in\n    tag_145:\n        /* \"Qvoting.sol\":3980:3994  sum+=v[i]*v[i] */\n      dup3\n      tag_147\n      swap2\n      swap1\n      tag_148\n      jump\t// in\n    tag_147:\n      swap2\n      pop\n        /* \"Qvoting.sol\":3961:3964  i++ */\n      dup1\n      dup1\n      tag_149\n      swap1\n      tag_97\n      jump\t// in\n    tag_149:\n      swap2\n      pop\n      pop\n        /* \"Qvoting.sol\":3937:4006  for(uint i=0;i<v.length;i++){\r... */\n      jump(tag_138)\n    tag_139:\n      pop\n        /* \"Qvoting.sol\":4066:4069  sum */\n      dup1\n        /* \"Qvoting.sol\":4024:4033  allVoters */\n      0x08\n        /* \"Qvoting.sol\":4024:4041  allVoters[_voter] */\n      0x00\n        /* \"Qvoting.sol\":4034:4040  _voter */\n      dup7\n        /* \"Qvoting.sol\":4024:4041  allVoters[_voter] */\n      0xffffffffffffffffffffffffffffffffffffffff\n      and\n      0xffffffffffffffffffffffffffffffffffffffff\n      and\n      dup2\n      mstore\n      0x20\n      add\n      swap1\n      dup2\n      mstore\n      0x20\n      add\n      0x00\n      keccak256\n        /* \"Qvoting.sol\":4024:4054  allVoters[_voter][_proposalId] */\n      0x00\n        /* \"Qvoting.sol\":4042:4053  _proposalId */\n      dup8\n        /* \"Qvoting.sol\":4024:4054  allVoters[_voter][_proposalId] */\n      dup2\n      mstore\n      0x20\n      add\n      swap1\n      dup2\n      mstore\n      0x20\n      add\n      0x00\n      keccak256\n        /* \"Qvoting.sol\":4024:4062  allVoters[_voter][_proposalId].voteNum */\n      0x02\n      add\n      sload\n        /* \"Qvoting.sol\":4024:4069  allVoters[_voter][_proposalId].voteNum >= sum */\n      lt\n      iszero\n        /* \"Qvoting.sol\":4016:4109  require(allVoters[_voter][_proposalId].voteNum >= sum, \"not sufficient balance to cast vote\") */\n      tag_150\n      jumpi\n      mload(0x40)\n      0x08c379a000000000000000000000000000000000000000000000000000000000\n      dup2\n      mstore\n      0x04\n      add\n      tag_151\n      swap1\n      tag_152\n      jump\t// in\n    tag_151:\n      mload(0x40)\n      dup1\n      swap2\n      sub\n      swap1\n      revert\n    tag_150:\n        /* \"Qvoting.sol\":4122:4178  proposals[_proposalId].responseProposal(_voter,_hash, v) */\n      tag_153\n        /* \"Qvoting.sol\":4162:4168  _voter */\n      dup5\n        /* \"Qvoting.sol\":4169:4174  _hash */\n      dup5\n        /* \"Qvoting.sol\":4176:4177  v */\n      dup5\n        /* \"Qvoting.sol\":4122:4131  proposals */\n      0x07\n        /* \"Qvoting.sol\":4122:4144  proposals[_proposalId] */\n      0x00\n        /* \"Qvoting.sol\":4132:4143  _proposalId */\n      dup11\n        /* \"Qvoting.sol\":4122:4144  proposals[_proposalId] */\n      dup2\n      mstore\n      0x20\n      add\n      swap1\n      dup2\n      mstore\n      0x20\n      add\n      0x00\n      keccak256\n        /* \"Qvoting.sol\":4122:4161  proposals[_proposalId].responseProposal */\n      tag_154\n      swap1\n        /* \"Qvoting.sol\":4122:4178  proposals[_proposalId].responseProposal(_voter,_hash, v) */\n      swap4\n      swap3\n      swap2\n      swap1\n      0xffffffff\n      and\n      jump\t// in\n    tag_153:\n      pop\n        /* \"Qvoting.sol\":4189:4254  userProposal[_msgSender()].updateResponseList(_proposalId, _hash) */\n      tag_155\n        /* \"Qvoting.sol\":4235:4246  _proposalId */\n      dup6\n        /* \"Qvoting.sol\":4248:4253  _hash */\n      dup5\n        /* \"Qvoting.sol\":4189:4201  userProposal */\n      0x06\n        /* \"Qvoting.sol\":4189:4215  userProposal[_msgSender()] */\n      0x00\n        /* \"Qvoting.sol\":4202:4214  _msgSender() */\n      tag_156\n        /* \"Qvoting.sol\":4202:4212  _msgSender */\n      tag_123\n        /* \"Qvoting.sol\":4202:4214  _msgSender() */\n      jump\t// in\n    tag_156:\n        /* \"Qvoting.sol\":4189:4215  userProposal[_msgSender()] */\n      0xffffffffffffffffffffffffffffffffffffffff\n      and\n      0xffffffffffffffffffffffffffffffffffffffff\n      and\n      dup2\n      mstore\n      0x20\n      add\n      swap1\n      dup2\n      mstore\n      0x20\n      add\n      0x00\n      keccak256\n        /* \"Qvoting.sol\":4189:4234  userProposal[_msgSender()].updateResponseList */\n      tag_157\n      swap1\n        /* \"Qvoting.sol\":4189:4254  userProposal[_msgSender()].updateResponseList(_proposalId, _hash) */\n      swap3\n      swap2\n      swap1\n      0xffffffff\n      and\n      jump\t// in\n    tag_155:\n      pop\n        /* \"Qvoting.sol\":4267:4313  allVoters[_voter][_proposalId].updateVoteNum() */\n      tag_158\n        /* \"Qvoting.sol\":4267:4276  allVoters */\n      0x08\n        /* \"Qvoting.sol\":4267:4284  allVoters[_voter] */\n      0x00\n        /* \"Qvoting.sol\":4277:4283  _voter */\n      dup7\n        /* \"Qvoting.sol\":4267:4284  allVoters[_voter] */\n      0xffffffffffffffffffffffffffffffffffffffff\n      and\n      0xffffffffffffffffffffffffffffffffffffffff\n      and\n      dup2\n      mstore\n      0x20\n      add\n      swap1\n      dup2\n      mstore\n      0x20\n      add\n      0x00\n      keccak256\n        /* \"Qvoting.sol\":4267:4297  allVoters[_voter][_proposalId] */\n      0x00\n        /* \"Qvoting.sol\":4285:4296  _proposalId */\n      dup8\n        /* \"Qvoting.sol\":4267:4297  allVoters[_voter][_proposalId] */\n      dup2\n      mstore\n      0x20\n      add\n      swap1\n      dup2\n      mstore\n      0x20\n      add\n      0x00\n      keccak256\n        /* \"Qvoting.sol\":4267:4311  allVoters[_voter][_proposalId].updateVoteNum */\n      tag_159\n        /* \"Qvoting.sol\":4267:4313  allVoters[_voter][_proposalId].updateVoteNum() */\n      jump\t// in\n    tag_158:\n      pop\n        /* \"Qvoting.sol\":4366:4370  true */\n      0x01\n        /* \"Qvoting.sol\":4324:4333  allVoters */\n      0x08\n        /* \"Qvoting.sol\":4324:4341  allVoters[_voter] */\n      0x00\n        /* \"Qvoting.sol\":4334:4340  _voter */\n      dup7\n        /* \"Qvoting.sol\":4324:4341  allVoters[_voter] */\n      0xffffffffffffffffffffffffffffffffffffffff\n      and\n      0xffffffffffffffffffffffffffffffffffffffff\n      and\n      dup2\n      mstore\n      0x20\n      add\n      swap1\n      dup2\n      mstore\n      0x20\n      add\n      0x00\n      keccak256\n        /* \"Qvoting.sol\":4324:4354  allVoters[_voter][_proposalId] */\n      0x00\n        /* \"Qvoting.sol\":4342:4353  _proposalId */\n      dup8\n        /* \"Qvoting.sol\":4324:4354  allVoters[_voter][_proposalId] */\n      dup2\n      mstore\n      0x20\n      add\n      swap1\n      dup2\n      mstore\n      0x20\n      add\n      0x00\n      keccak256\n        /* \"Qvoting.sol\":4324:4363  allVoters[_voter][_proposalId].hasVoted */\n      0x01\n      add\n      0x14\n        /* \"Qvoting.sol\":4324:4370  allVoters[_voter][_proposalId].hasVoted = true */\n      0x0100\n      exp\n      dup2\n      sload\n      dup2\n      0xff\n      mul\n      not\n      and\n      swap1\n      dup4\n      iszero\n      iszero\n      mul\n      or\n      swap1\n      sstore\n      pop\n        /* \"Qvoting.sol\":4381:4425  burn(_voter,proposals[proposalId].voteRight) */\n      tag_160\n        /* \"Qvoting.sol\":4386:4392  _voter */\n      dup5\n        /* \"Qvoting.sol\":4393:4402  proposals */\n      0x07\n        /* \"Qvoting.sol\":4393:4414  proposals[proposalId] */\n      0x00\n        /* \"Qvoting.sol\":4403:4413  proposalId */\n      sload(0x05)\n        /* \"Qvoting.sol\":4393:4414  proposals[proposalId] */\n      dup2\n      mstore\n      0x20\n      add\n      swap1\n      dup2\n      mstore\n      0x20\n      add\n      0x00\n      keccak256\n        /* \"Qvoting.sol\":4393:4424  proposals[proposalId].voteRight */\n      0x05\n      add\n      sload\n        /* \"Qvoting.sol\":4381:4385  burn */\n      tag_161\n        /* \"Qvoting.sol\":4381:4425  burn(_voter,proposals[proposalId].voteRight) */\n      jump\t// in\n    tag_160:\n        /* \"Qvoting.sol\":4441:4501  mintAndburn(\"burn\", _voter, proposals[proposalId].voteRight) */\n      0xabf5327be9f5825c40d58bda541dd07f09b62df3376bbd5ecdbaa8bd82a9d492\n        /* \"Qvoting.sol\":4461:4467  _voter */\n      dup5\n        /* \"Qvoting.sol\":4469:4478  proposals */\n      0x07\n        /* \"Qvoting.sol\":4469:4490  proposals[proposalId] */\n      0x00\n        /* \"Qvoting.sol\":4479:4489  proposalId */\n      sload(0x05)\n        /* \"Qvoting.sol\":4469:4490  proposals[proposalId] */\n      dup2\n      mstore\n      0x20\n      add\n      swap1\n      dup2\n      mstore\n      0x20\n      add\n      0x00\n      keccak256\n        /* \"Qvoting.sol\":4469:4500  proposals[proposalId].voteRight */\n      0x05\n      add\n      sload\n        /* \"Qvoting.sol\":4441:4501  mintAndburn(\"burn\", _voter, proposals[proposalId].voteRight) */\n      mload(0x40)\n      tag_162\n      swap3\n      swap2\n      swap1\n      tag_163\n      jump\t// in\n    tag_162:\n      mload(0x40)\n      dup1\n      swap2\n      sub\n      swap1\n      log1\n        /* \"Qvoting.sol\":3379:4519  {\r... */\n      pop\n        /* \"Qvoting.sol\":3270:4519  function responseProposal(uint _proposalId, address _voter, string[] memory _hash, uint[] memory v) external {\r... */\n      pop\n      pop\n      pop\n      pop\n      jump\t// out\n        /* \"QvToken/ERC20.sol\":3493:3620  function balanceOf(address account) public view virtual override returns (uint256) {\r... */\n    tag_45:\n        /* \"QvToken/ERC20.sol\":3567:3574  uint256 */\n      0x00\n        /* \"QvToken/ERC20.sol\":3594:3603  _balances */\n      dup1\n        /* \"QvToken/ERC20.sol\":3594:3612  _balances[account] */\n      0x00\n        /* \"QvToken/ERC20.sol\":3604:3611  account */\n      dup4\n        /* \"QvToken/ERC20.sol\":3594:3612  _balances[account] */\n      0xffffffffffffffffffffffffffffffffffffffff\n      and\n      0xffffffffffffffffffffffffffffffffffffffff\n      and\n      dup2\n      mstore\n      0x20\n      add\n      swap1\n      dup2\n      mstore\n      0x20\n      add\n      0x00\n      keccak256\n      sload\n        /* \"QvToken/ERC20.sol\":3587:3612  return _balances[account] */\n      swap1\n      pop\n        /* \"QvToken/ERC20.sol\":3493:3620  function balanceOf(address account) public view virtual override returns (uint256) {\r... */\n      swap2\n      swap1\n      pop\n      jump\t// out\n        /* \"Qvoting.sol\":4971:5366  function mintOwner(uint _proposalId, address[] memory _voters, uint _voteRight) external returns(bool)\r... */\n    tag_50:\n        /* \"Qvoting.sol\":5068:5072  bool */\n      0x00\n        /* \"Qvoting.sol\":5104:5113  uint256 i */\n      dup1\n        /* \"Qvoting.sol\":5114:5115  0 */\n      0x00\n        /* \"Qvoting.sol\":5104:5115  uint256 i=0 */\n      swap1\n      pop\n        /* \"Qvoting.sol\":5100:5359  for(uint256 i=0;i<_voters.length;i++){\r... */\n    tag_166:\n        /* \"Qvoting.sol\":5118:5125  _voters */\n      dup4\n        /* \"Qvoting.sol\":5118:5132  _voters.length */\n      mload\n        /* \"Qvoting.sol\":5116:5117  i */\n      dup2\n        /* \"Qvoting.sol\":5116:5132  i<_voters.length */\n      lt\n        /* \"Qvoting.sol\":5100:5359  for(uint256 i=0;i<_voters.length;i++){\r... */\n      iszero\n      tag_167\n      jumpi\n        /* \"Qvoting.sol\":5152:5179  mint(_voters[i],_voteRight) */\n      tag_169\n        /* \"Qvoting.sol\":5157:5164  _voters */\n      dup5\n        /* \"Qvoting.sol\":5165:5166  i */\n      dup3\n        /* \"Qvoting.sol\":5157:5167  _voters[i] */\n      dup2\n      mload\n      dup2\n      lt\n      tag_170\n      jumpi\n      tag_171\n      tag_108\n      jump\t// in\n    tag_171:\n    tag_170:\n      0x20\n      mul\n      0x20\n      add\n      add\n      mload\n        /* \"Qvoting.sol\":5168:5178  _voteRight */\n      dup5\n        /* \"Qvoting.sol\":5152:5156  mint */\n      tag_109\n        /* \"Qvoting.sol\":5152:5179  mint(_voters[i],_voteRight) */\n      jump\t// in\n    tag_169:\n        /* \"Qvoting.sol\":5194:5282  allVoters[_voters[i]][proposalId].createVoter(proposalId, _voters[i], false, _voteRight) */\n      tag_172\n        /* \"Qvoting.sol\":5240:5250  proposalId */\n      sload(0x05)\n        /* \"Qvoting.sol\":5252:5259  _voters */\n      dup6\n        /* \"Qvoting.sol\":5260:5261  i */\n      dup4\n        /* \"Qvoting.sol\":5252:5262  _voters[i] */\n      dup2\n      mload\n      dup2\n      lt\n      tag_173\n      jumpi\n      tag_174\n      tag_108\n      jump\t// in\n    tag_174:\n    tag_173:\n      0x20\n      mul\n      0x20\n      add\n      add\n      mload\n        /* \"Qvoting.sol\":5264:5269  false */\n      0x00\n        /* \"Qvoting.sol\":5271:5281  _voteRight */\n      dup7\n        /* \"Qvoting.sol\":5194:5203  allVoters */\n      0x08\n        /* \"Qvoting.sol\":5194:5215  allVoters[_voters[i]] */\n      0x00\n        /* \"Qvoting.sol\":5204:5211  _voters */\n      dup11\n        /* \"Qvoting.sol\":5212:5213  i */\n      dup9\n        /* \"Qvoting.sol\":5204:5214  _voters[i] */\n      dup2\n      mload\n      dup2\n      lt\n      tag_175\n      jumpi\n      tag_176\n      tag_108\n      jump\t// in\n    tag_176:\n    tag_175:\n      0x20\n      mul\n      0x20\n      add\n      add\n      mload\n        /* \"Qvoting.sol\":5194:5215  allVoters[_voters[i]] */\n      0xffffffffffffffffffffffffffffffffffffffff\n      and\n      0xffffffffffffffffffffffffffffffffffffffff\n      and\n      dup2\n      mstore\n      0x20\n      add\n      swap1\n      dup2\n      mstore\n      0x20\n      add\n      0x00\n      keccak256\n        /* \"Qvoting.sol\":5194:5227  allVoters[_voters[i]][proposalId] */\n      0x00\n        /* \"Qvoting.sol\":5216:5226  proposalId */\n      sload(0x05)\n        /* \"Qvoting.sol\":5194:5227  allVoters[_voters[i]][proposalId] */\n      dup2\n      mstore\n      0x20\n      add\n      swap1\n      dup2\n      mstore\n      0x20\n      add\n      0x00\n      keccak256\n        /* \"Qvoting.sol\":5194:5239  allVoters[_voters[i]][proposalId].createVoter */\n      tag_115\n      swap1\n        /* \"Qvoting.sol\":5194:5282  allVoters[_voters[i]][proposalId].createVoter(proposalId, _voters[i], false, _voteRight) */\n      swap5\n      swap4\n      swap3\n      swap2\n      swap1\n      0xffffffff\n      and\n      jump\t// in\n    tag_172:\n      pop\n        /* \"Qvoting.sol\":5302:5343  mintAndburn(\"mint\",_voters[i],_voteRight) */\n      0xabf5327be9f5825c40d58bda541dd07f09b62df3376bbd5ecdbaa8bd82a9d492\n        /* \"Qvoting.sol\":5321:5328  _voters */\n      dup5\n        /* \"Qvoting.sol\":5329:5330  i */\n      dup3\n        /* \"Qvoting.sol\":5321:5331  _voters[i] */\n      dup2\n      mload\n      dup2\n      lt\n      tag_177\n      jumpi\n      tag_178\n      tag_108\n      jump\t// in\n    tag_178:\n    tag_177:\n      0x20\n      mul\n      0x20\n      add\n      add\n      mload\n        /* \"Qvoting.sol\":5332:5342  _voteRight */\n      dup5\n        /* \"Qvoting.sol\":5302:5343  mintAndburn(\"mint\",_voters[i],_voteRight) */\n      mload(0x40)\n      tag_179\n      swap3\n      swap2\n      swap1\n      tag_119\n      jump\t// in\n    tag_179:\n      mload(0x40)\n      dup1\n      swap2\n      sub\n      swap1\n      log1\n        /* \"Qvoting.sol\":5133:5136  i++ */\n      dup1\n      dup1\n      tag_180\n      swap1\n      tag_97\n      jump\t// in\n    tag_180:\n      swap2\n      pop\n      pop\n        /* \"Qvoting.sol\":5100:5359  for(uint256 i=0;i<_voters.length;i++){\r... */\n      jump(tag_166)\n    tag_167:\n      pop\n        /* \"Qvoting.sol\":4971:5366  function mintOwner(uint _proposalId, address[] memory _voters, uint _voteRight) external returns(bool)\r... */\n      swap4\n      swap3\n      pop\n      pop\n      pop\n      jump\t// out\n        /* \"QvToken/ERC20.sol\":2421:2525  function symbol() public view virtual override returns (string memory) {\r... */\n    tag_54:\n        /* \"QvToken/ERC20.sol\":2477:2490  string memory */\n      0x60\n        /* \"QvToken/ERC20.sol\":2510:2517  _symbol */\n      0x03\n        /* \"QvToken/ERC20.sol\":2503:2517  return _symbol */\n      dup1\n      sload\n      tag_182\n      swap1\n      tag_73\n      jump\t// in\n    tag_182:\n      dup1\n      0x1f\n      add\n      0x20\n      dup1\n      swap2\n      div\n      mul\n      0x20\n      add\n      mload(0x40)\n      swap1\n      dup2\n      add\n      0x40\n      mstore\n      dup1\n      swap3\n      swap2\n      swap1\n      dup2\n      dup2\n      mstore\n      0x20\n      add\n      dup3\n      dup1\n      sload\n      tag_183\n      swap1\n      tag_73\n      jump\t// in\n    tag_183:\n      dup1\n      iszero\n      tag_184\n      jumpi\n      dup1\n      0x1f\n      lt\n      tag_185\n      jumpi\n      0x0100\n      dup1\n      dup4\n      sload\n      div\n      mul\n      dup4\n      mstore\n      swap2\n      0x20\n      add\n      swap2\n      jump(tag_184)\n    tag_185:\n      dup3\n      add\n      swap2\n      swap1\n      0x00\n      mstore\n      keccak256(0x00, 0x20)\n      swap1\n    tag_186:\n      dup2\n      sload\n      dup2\n      mstore\n      swap1\n      0x01\n      add\n      swap1\n      0x20\n      add\n      dup1\n      dup4\n      gt\n      tag_186\n      jumpi\n      dup3\n      swap1\n      sub\n      0x1f\n      and\n      dup3\n      add\n      swap2\n    tag_184:\n      pop\n      pop\n      pop\n      pop\n      pop\n      swap1\n      pop\n        /* \"QvToken/ERC20.sol\":2421:2525  function symbol() public view virtual override returns (string memory) {\r... */\n      swap1\n      jump\t// out\n        /* \"Qvoting.sol\":4611:4965  function resultOfProposal(uint _proposalId) public view returns(uint, string memory){\r... */\n    tag_58:\n        /* \"Qvoting.sol\":4675:4679  uint */\n      0x00\n        /* \"Qvoting.sol\":4681:4694  string memory */\n      0x60\n        /* \"Qvoting.sol\":4714:4728  validProposals */\n      0x09\n        /* \"Qvoting.sol\":4714:4741  validProposals[_proposalId] */\n      0x00\n        /* \"Qvoting.sol\":4729:4740  _proposalId */\n      dup5\n        /* \"Qvoting.sol\":4714:4741  validProposals[_proposalId] */\n      dup2\n      mstore\n      0x20\n      add\n      swap1\n      dup2\n      mstore\n      0x20\n      add\n      0x00\n      keccak256\n      0x00\n      swap1\n      sload\n      swap1\n      0x0100\n      exp\n      swap1\n      div\n      0xff\n      and\n        /* \"Qvoting.sol\":4706:4765  require(validProposals[_proposalId],\"not a valid proposal\") */\n      tag_188\n      jumpi\n      mload(0x40)\n      0x08c379a000000000000000000000000000000000000000000000000000000000\n      dup2\n      mstore\n      0x04\n      add\n      tag_189\n      swap1\n      tag_190\n      jump\t// in\n    tag_189:\n      mload(0x40)\n      dup1\n      swap2\n      sub\n      swap1\n      revert\n    tag_188:\n        /* \"Qvoting.sol\":4859:4868  proposals */\n      0x07\n        /* \"Qvoting.sol\":4859:4881  proposals[_proposalId] */\n      0x00\n        /* \"Qvoting.sol\":4869:4880  _proposalId */\n      dup5\n        /* \"Qvoting.sol\":4859:4881  proposals[_proposalId] */\n      dup2\n      mstore\n      0x20\n      add\n      swap1\n      dup2\n      mstore\n      0x20\n      add\n      0x00\n      keccak256\n        /* \"Qvoting.sol\":4859:4887  proposals[_proposalId].votes */\n      0x0a\n      add\n        /* \"Qvoting.sol\":4888:4897  proposals */\n      0x07\n        /* \"Qvoting.sol\":4888:4910  proposals[_proposalId] */\n      0x00\n        /* \"Qvoting.sol\":4898:4909  _proposalId */\n      dup6\n        /* \"Qvoting.sol\":4888:4910  proposals[_proposalId] */\n      dup2\n      mstore\n      0x20\n      add\n      swap1\n      dup2\n      mstore\n      0x20\n      add\n      0x00\n      keccak256\n        /* \"Qvoting.sol\":4888:4917  proposals[_proposalId].result */\n      0x09\n      add\n        /* \"Qvoting.sol\":4888:4920  proposals[_proposalId].result[1] */\n      0x00\n        /* \"Qvoting.sol\":4918:4919  1 */\n      0x01\n        /* \"Qvoting.sol\":4888:4920  proposals[_proposalId].result[1] */\n      dup2\n      mstore\n      0x20\n      add\n      swap1\n      dup2\n      mstore\n      0x20\n      add\n      0x00\n      keccak256\n        /* \"Qvoting.sol\":4859:4921  proposals[_proposalId].votes[proposals[_proposalId].result[1]] */\n      mload(0x40)\n      tag_191\n      swap2\n      swap1\n      tag_192\n      jump\t// in\n    tag_191:\n      swap1\n      dup2\n      mstore\n      0x20\n      add\n      mload(0x40)\n      dup1\n      swap2\n      sub\n      swap1\n      keccak256\n      sload\n        /* \"Qvoting.sol\":4922:4931  proposals */\n      0x07\n        /* \"Qvoting.sol\":4922:4944  proposals[_proposalId] */\n      0x00\n        /* \"Qvoting.sol\":4932:4943  _proposalId */\n      dup6\n        /* \"Qvoting.sol\":4922:4944  proposals[_proposalId] */\n      dup2\n      mstore\n      0x20\n      add\n      swap1\n      dup2\n      mstore\n      0x20\n      add\n      0x00\n      keccak256\n        /* \"Qvoting.sol\":4922:4951  proposals[_proposalId].result */\n      0x09\n      add\n        /* \"Qvoting.sol\":4922:4954  proposals[_proposalId].result[1] */\n      0x00\n        /* \"Qvoting.sol\":4952:4953  1 */\n      0x01\n        /* \"Qvoting.sol\":4922:4954  proposals[_proposalId].result[1] */\n      dup2\n      mstore\n      0x20\n      add\n      swap1\n      dup2\n      mstore\n      0x20\n      add\n      0x00\n      keccak256\n        /* \"Qvoting.sol\":4851:4955  return (proposals[_proposalId].votes[proposals[_proposalId].result[1]],proposals[_proposalId].result[1]) */\n      dup1\n      dup1\n      sload\n      tag_193\n      swap1\n      tag_73\n      jump\t// in\n    tag_193:\n      dup1\n      0x1f\n      add\n      0x20\n      dup1\n      swap2\n      div\n      mul\n      0x20\n      add\n      mload(0x40)\n      swap1\n      dup2\n      add\n      0x40\n      mstore\n      dup1\n      swap3\n      swap2\n      swap1\n      dup2\n      dup2\n      mstore\n      0x20\n      add\n      dup3\n      dup1\n      sload\n      tag_194\n      swap1\n      tag_73\n      jump\t// in\n    tag_194:\n      dup1\n      iszero\n      tag_195\n      jumpi\n      dup1\n      0x1f\n      lt\n      tag_196\n      jumpi\n      0x0100\n      dup1\n      dup4\n      sload\n      div\n      mul\n      dup4\n      mstore\n      swap2\n      0x20\n      add\n      swap2\n      jump(tag_195)\n    tag_196:\n      dup3\n      add\n      swap2\n      swap1\n      0x00\n      mstore\n      keccak256(0x00, 0x20)\n      swap1\n    tag_197:\n      dup2\n      sload\n      dup2\n      mstore\n      swap1\n      0x01\n      add\n      swap1\n      0x20\n      add\n      dup1\n      dup4\n      gt\n      tag_197\n      jumpi\n      dup3\n      swap1\n      sub\n      0x1f\n      and\n      dup3\n      add\n      swap2\n    tag_195:\n      pop\n      pop\n      pop\n      pop\n      pop\n      swap1\n      pop\n      swap2\n      pop\n      swap2\n      pop\n        /* \"Qvoting.sol\":4611:4965  function resultOfProposal(uint _proposalId) public view returns(uint, string memory){\r... */\n      swap2\n      pop\n      swap2\n      jump\t// out\n        /* \"Qvoting.sol\":1400:1472  mapping(address => mapping(uint => voterLibrary.voter)) public allVoters */\n    tag_64:\n      mstore(0x20, 0x08)\n      dup2\n      0x00\n      mstore\n      mstore(0x20, keccak256(0x00, 0x40))\n      dup1\n      0x00\n      mstore\n      keccak256(0x00, 0x40)\n      0x00\n      swap2\n      pop\n      swap2\n      pop\n      pop\n      dup1\n      0x00\n      add\n      sload\n      swap1\n      dup1\n      0x01\n      add\n      0x00\n      swap1\n      sload\n      swap1\n      0x0100\n      exp\n      swap1\n      div\n      0xffffffffffffffffffffffffffffffffffffffff\n      and\n      swap1\n      dup1\n      0x01\n      add\n      0x14\n      swap1\n      sload\n      swap1\n      0x0100\n      exp\n      swap1\n      div\n      0xff\n      and\n      swap1\n      dup1\n      0x02\n      add\n      sload\n      swap1\n      pop\n      dup5\n      jump\t// out\n        /* \"Qvoting.sol\":1201:1273  mapping(address => UserProposalLibrary.UserProposal) public userProposal */\n    tag_69:\n      mstore(0x20, 0x06)\n      dup1\n      0x00\n      mstore\n      keccak256(0x00, 0x40)\n      0x00\n      swap2\n      pop\n      swap1\n      pop\n      dup1\n      0x00\n      add\n      0x00\n      swap1\n      sload\n      swap1\n      0x0100\n      exp\n      swap1\n      div\n      0xffffffffffffffffffffffffffffffff\n      and\n      swap1\n      dup1\n      0x00\n      add\n      0x10\n      swap1\n      sload\n      swap1\n      0x0100\n      exp\n      swap1\n      div\n      0xffffffffffffffffffffffffffffffff\n      and\n      swap1\n      pop\n      dup3\n      jump\t// out\n        /* \"Library/ProposalLibrary.sol\":806:1983  function createProposal(proposal storage self, uint8 _status, address[] memory _voters, address _creator,\r... */\n    tag_99:\n        /* \"Library/ProposalLibrary.sol\":1044:1048  bool */\n      0x00\n        /* \"Library/ProposalLibrary.sol\":1099:1107  _creator */\n      dup8\n        /* \"Library/ProposalLibrary.sol\":1084:1088  self */\n      dup12\n        /* \"Library/ProposalLibrary.sol\":1084:1096  self.creator */\n      0x00\n      add\n      0x00\n        /* \"Library/ProposalLibrary.sol\":1084:1107  self.creator = _creator */\n      0x0100\n      exp\n      dup2\n      sload\n      dup2\n      0xffffffffffffffffffffffffffffffffffffffff\n      mul\n      not\n      and\n      swap1\n      dup4\n      0xffffffffffffffffffffffffffffffffffffffff\n      and\n      mul\n      or\n      swap1\n      sstore\n      pop\n        /* \"Library/ProposalLibrary.sol\":1156:1163  _status */\n      dup10\n        /* \"Library/ProposalLibrary.sol\":1142:1146  self */\n      dup12\n        /* \"Library/ProposalLibrary.sol\":1142:1153  self.status */\n      0x00\n      add\n      0x14\n        /* \"Library/ProposalLibrary.sol\":1142:1163  self.status = _status */\n      0x0100\n      exp\n      dup2\n      sload\n      dup2\n      0xff\n      mul\n      not\n      and\n      swap1\n      dup4\n      0xff\n      and\n      mul\n      or\n      swap1\n      sstore\n      pop\n        /* \"Library/ProposalLibrary.sol\":1210:1215  _disc */\n      dup5\n        /* \"Library/ProposalLibrary.sol\":1198:1202  self */\n      dup12\n        /* \"Library/ProposalLibrary.sol\":1198:1207  self.disc */\n      0x01\n      add\n        /* \"Library/ProposalLibrary.sol\":1198:1215  self.disc = _disc */\n      swap1\n      dup1\n      mload\n      swap1\n      0x20\n      add\n      swap1\n      tag_199\n      swap3\n      swap2\n      swap1\n      tag_200\n      jump\t// in\n    tag_199:\n      pop\n        /* \"Library/ProposalLibrary.sol\":1267:1277  _startTime */\n      dup7\n        /* \"Library/ProposalLibrary.sol\":1250:1254  self */\n      dup12\n        /* \"Library/ProposalLibrary.sol\":1250:1264  self.startTime */\n      0x02\n      add\n        /* \"Library/ProposalLibrary.sol\":1250:1277  self.startTime = _startTime */\n      dup2\n      swap1\n      sstore\n      pop\n        /* \"Library/ProposalLibrary.sol\":1334:1349  _expirationTime */\n      dup6\n        /* \"Library/ProposalLibrary.sol\":1312:1316  self */\n      dup12\n        /* \"Library/ProposalLibrary.sol\":1312:1331  self.expirationTime */\n      0x03\n      add\n        /* \"Library/ProposalLibrary.sol\":1312:1349  self.expirationTime = _expirationTime */\n      dup2\n      swap1\n      sstore\n      pop\n        /* \"Library/ProposalLibrary.sol\":1411:1416  _cand */\n      dup3\n      dup3\n        /* \"Library/ProposalLibrary.sol\":1411:1423  _cand.length */\n      swap1\n      pop\n        /* \"Library/ProposalLibrary.sol\":1384:1388  self */\n      dup12\n        /* \"Library/ProposalLibrary.sol\":1384:1401  self.numOfOptions */\n      0x04\n      add\n      0x00\n        /* \"Library/ProposalLibrary.sol\":1384:1424  self.numOfOptions = uint16(_cand.length) */\n      0x0100\n      exp\n      dup2\n      sload\n      dup2\n      0xffff\n      mul\n      not\n      and\n      swap1\n      dup4\n      0xffff\n      and\n      mul\n      or\n      swap1\n      sstore\n      pop\n        /* \"Library/ProposalLibrary.sol\":1476:1486  _voteRight */\n      dup4\n        /* \"Library/ProposalLibrary.sol\":1459:1463  self */\n      dup12\n        /* \"Library/ProposalLibrary.sol\":1459:1473  self.voteRight */\n      0x05\n      add\n        /* \"Library/ProposalLibrary.sol\":1459:1486  self.voteRight = _voteRight */\n      dup2\n      swap1\n      sstore\n      pop\n        /* \"Library/ProposalLibrary.sol\":1525:1534  uint256 i */\n      0x00\n        /* \"Library/ProposalLibrary.sol\":1521:1726  for(uint256 i=0;i<_cand.length;i++){\r... */\n    tag_201:\n        /* \"Library/ProposalLibrary.sol\":1539:1544  _cand */\n      dup4\n      dup4\n        /* \"Library/ProposalLibrary.sol\":1539:1551  _cand.length */\n      swap1\n      pop\n        /* \"Library/ProposalLibrary.sol\":1537:1538  i */\n      dup2\n        /* \"Library/ProposalLibrary.sol\":1537:1551  i<_cand.length */\n      lt\n        /* \"Library/ProposalLibrary.sol\":1521:1726  for(uint256 i=0;i<_cand.length;i++){\r... */\n      iszero\n      tag_202\n      jumpi\n        /* \"Library/ProposalLibrary.sol\":1617:1621  true */\n      0x01\n        /* \"Library/ProposalLibrary.sol\":1595:1599  self */\n      dup13\n        /* \"Library/ProposalLibrary.sol\":1595:1604  self.cand */\n      0x07\n      add\n        /* \"Library/ProposalLibrary.sol\":1605:1610  _cand */\n      dup6\n      dup6\n        /* \"Library/ProposalLibrary.sol\":1611:1612  i */\n      dup5\n        /* \"Library/ProposalLibrary.sol\":1605:1613  _cand[i] */\n      dup2\n      dup2\n      lt\n      tag_204\n      jumpi\n      tag_205\n      tag_108\n      jump\t// in\n    tag_205:\n    tag_204:\n      swap1\n      pop\n      0x20\n      mul\n      dup2\n      add\n      swap1\n      tag_206\n      swap2\n      swap1\n      tag_207\n      jump\t// in\n    tag_206:\n        /* \"Library/ProposalLibrary.sol\":1595:1614  self.cand[_cand[i]] */\n      mload(0x40)\n      tag_208\n      swap3\n      swap2\n      swap1\n      tag_209\n      jump\t// in\n    tag_208:\n      swap1\n      dup2\n      mstore\n      0x20\n      add\n      mload(0x40)\n      dup1\n      swap2\n      sub\n      swap1\n      keccak256\n      0x00\n        /* \"Library/ProposalLibrary.sol\":1595:1621  self.cand[_cand[i]] = true */\n      0x0100\n      exp\n      dup2\n      sload\n      dup2\n      0xff\n      mul\n      not\n      and\n      swap1\n      dup4\n      iszero\n      iszero\n      mul\n      or\n      swap1\n      sstore\n      pop\n        /* \"Library/ProposalLibrary.sol\":1682:1687  _cand */\n      dup4\n      dup4\n        /* \"Library/ProposalLibrary.sol\":1688:1689  i */\n      dup3\n        /* \"Library/ProposalLibrary.sol\":1682:1690  _cand[i] */\n      dup2\n      dup2\n      lt\n      tag_210\n      jumpi\n      tag_211\n      tag_108\n      jump\t// in\n    tag_211:\n    tag_210:\n      swap1\n      pop\n      0x20\n      mul\n      dup2\n      add\n      swap1\n      tag_212\n      swap2\n      swap1\n      tag_207\n      jump\t// in\n    tag_212:\n        /* \"Library/ProposalLibrary.sol\":1660:1664  self */\n      dup14\n        /* \"Library/ProposalLibrary.sol\":1660:1673  self.candHash */\n      0x08\n      add\n        /* \"Library/ProposalLibrary.sol\":1660:1678  self.candHash[i+1] */\n      0x00\n        /* \"Library/ProposalLibrary.sol\":1676:1677  1 */\n      0x01\n        /* \"Library/ProposalLibrary.sol\":1674:1675  i */\n      dup6\n        /* \"Library/ProposalLibrary.sol\":1674:1677  i+1 */\n      tag_213\n      swap2\n      swap1\n      tag_148\n      jump\t// in\n    tag_213:\n        /* \"Library/ProposalLibrary.sol\":1660:1678  self.candHash[i+1] */\n      dup2\n      mstore\n      0x20\n      add\n      swap1\n      dup2\n      mstore\n      0x20\n      add\n      0x00\n      keccak256\n        /* \"Library/ProposalLibrary.sol\":1660:1690  self.candHash[i+1] =  _cand[i] */\n      swap2\n      swap1\n      tag_214\n      swap3\n      swap2\n      swap1\n      tag_215\n      jump\t// in\n    tag_214:\n      pop\n        /* \"Library/ProposalLibrary.sol\":1552:1555  i++ */\n      dup1\n      dup1\n      tag_216\n      swap1\n      tag_97\n      jump\t// in\n    tag_216:\n      swap2\n      pop\n      pop\n        /* \"Library/ProposalLibrary.sol\":1521:1726  for(uint256 i=0;i<_cand.length;i++){\r... */\n      jump(tag_201)\n    tag_202:\n      pop\n        /* \"Library/ProposalLibrary.sol\":1764:1773  uint256 i */\n      0x00\n        /* \"Library/ProposalLibrary.sol\":1760:1902  for(uint256 i=0;i<_voters.length;i++){\r... */\n    tag_217:\n        /* \"Library/ProposalLibrary.sol\":1778:1785  _voters */\n      dup10\n        /* \"Library/ProposalLibrary.sol\":1778:1792  _voters.length */\n      mload\n        /* \"Library/ProposalLibrary.sol\":1776:1777  i */\n      dup2\n        /* \"Library/ProposalLibrary.sol\":1776:1792  i<_voters.length */\n      lt\n        /* \"Library/ProposalLibrary.sol\":1760:1902  for(uint256 i=0;i<_voters.length;i++){\r... */\n      iszero\n      tag_218\n      jumpi\n        /* \"Library/ProposalLibrary.sol\":1862:1866  true */\n      0x01\n        /* \"Library/ProposalLibrary.sol\":1836:1840  self */\n      dup13\n        /* \"Library/ProposalLibrary.sol\":1836:1847  self.voters */\n      0x06\n      add\n        /* \"Library/ProposalLibrary.sol\":1836:1859  self.voters[_voters[i]] */\n      0x00\n        /* \"Library/ProposalLibrary.sol\":1848:1855  _voters */\n      dup13\n        /* \"Library/ProposalLibrary.sol\":1856:1857  i */\n      dup5\n        /* \"Library/ProposalLibrary.sol\":1848:1858  _voters[i] */\n      dup2\n      mload\n      dup2\n      lt\n      tag_220\n      jumpi\n      tag_221\n      tag_108\n      jump\t// in\n    tag_221:\n    tag_220:\n      0x20\n      mul\n      0x20\n      add\n      add\n      mload\n        /* \"Library/ProposalLibrary.sol\":1836:1859  self.voters[_voters[i]] */\n      0xffffffffffffffffffffffffffffffffffffffff\n      and\n      0xffffffffffffffffffffffffffffffffffffffff\n      and\n      dup2\n      mstore\n      0x20\n      add\n      swap1\n      dup2\n      mstore\n      0x20\n      add\n      0x00\n      keccak256\n      0x00\n        /* \"Library/ProposalLibrary.sol\":1836:1866  self.voters[_voters[i]] = true */\n      0x0100\n      exp\n      dup2\n      sload\n      dup2\n      0xff\n      mul\n      not\n      and\n      swap1\n      dup4\n      iszero\n      iszero\n      mul\n      or\n      swap1\n      sstore\n      pop\n        /* \"Library/ProposalLibrary.sol\":1793:1796  i++ */\n      dup1\n      dup1\n      tag_222\n      swap1\n      tag_97\n      jump\t// in\n    tag_222:\n      swap2\n      pop\n      pop\n        /* \"Library/ProposalLibrary.sol\":1760:1902  for(uint256 i=0;i<_voters.length;i++){\r... */\n      jump(tag_217)\n    tag_218:\n      pop\n        /* \"Library/ProposalLibrary.sol\":1945:1949  true */\n      0x01\n        /* \"Library/ProposalLibrary.sol\":1938:1949  return true */\n      swap1\n      pop\n        /* \"Library/ProposalLibrary.sol\":806:1983  function createProposal(proposal storage self, uint8 _status, address[] memory _voters, address _creator,\r... */\n      swap11\n      swap10\n      pop\n      pop\n      pop\n      pop\n      pop\n      pop\n      pop\n      pop\n      pop\n      pop\n      jump\t// out\n        /* \"QvToken/QvToken.sol\":398:502  function mint(address to , uint amount) onlyOwner(_msgSender()) internal {\r... */\n    tag_109:\n        /* \"QvToken/QvToken.sol\":448:460  _msgSender() */\n      tag_223\n        /* \"QvToken/QvToken.sol\":448:458  _msgSender */\n      tag_123\n        /* \"QvToken/QvToken.sol\":448:460  _msgSender() */\n      jump\t// in\n    tag_223:\n        /* \"QvToken/QvToken.sol\":366:375  msgSender */\n      dup1\n        /* \"QvToken/QvToken.sol\":357:375  owner == msgSender */\n      0xffffffffffffffffffffffffffffffffffffffff\n      and\n        /* \"QvToken/QvToken.sol\":357:362  owner */\n      0x04\n      0x00\n      swap1\n      sload\n      swap1\n      0x0100\n      exp\n      swap1\n      div\n      0xffffffffffffffffffffffffffffffffffffffff\n      and\n        /* \"QvToken/QvToken.sol\":357:375  owner == msgSender */\n      0xffffffffffffffffffffffffffffffffffffffff\n      and\n      eq\n        /* \"QvToken/QvToken.sol\":349:376  require(owner == msgSender) */\n      tag_225\n      jumpi\n      0x00\n      dup1\n      revert\n    tag_225:\n        /* \"QvToken/QvToken.sol\":478:494  _mint(to,amount) */\n      tag_227\n        /* \"QvToken/QvToken.sol\":484:486  to */\n      dup4\n        /* \"QvToken/QvToken.sol\":487:493  amount */\n      dup4\n        /* \"QvToken/QvToken.sol\":478:483  _mint */\n      tag_228\n        /* \"QvToken/QvToken.sol\":478:494  _mint(to,amount) */\n      jump\t// in\n    tag_227:\n        /* \"QvToken/QvToken.sol\":398:502  function mint(address to , uint amount) onlyOwner(_msgSender()) internal {\r... */\n      pop\n      pop\n      pop\n      jump\t// out\n        /* \"Library/VoterLibrary.sol\":1090:1525  function createVoter(voter storage self, uint _proposalId, address _voterAddress, bool _hasVoted, uint _voteNum) internal returns(bool){\r... */\n    tag_115:\n        /* \"Library/VoterLibrary.sol\":1220:1224  bool */\n      0x00\n        /* \"Library/VoterLibrary.sol\":1278:1289  _proposalId */\n      dup5\n        /* \"Library/VoterLibrary.sol\":1260:1264  self */\n      dup7\n        /* \"Library/VoterLibrary.sol\":1260:1275  self.proposalId */\n      0x00\n      add\n        /* \"Library/VoterLibrary.sol\":1260:1289  self.proposalId = _proposalId */\n      dup2\n      swap1\n      sstore\n      pop\n        /* \"Library/VoterLibrary.sol\":1344:1357  _voterAddress */\n      dup4\n        /* \"Library/VoterLibrary.sol\":1324:1328  self */\n      dup7\n        /* \"Library/VoterLibrary.sol\":1324:1341  self.voterAddress */\n      0x01\n      add\n      0x00\n        /* \"Library/VoterLibrary.sol\":1324:1357  self.voterAddress = _voterAddress */\n      0x0100\n      exp\n      dup2\n      sload\n      dup2\n      0xffffffffffffffffffffffffffffffffffffffff\n      mul\n      not\n      and\n      swap1\n      dup4\n      0xffffffffffffffffffffffffffffffffffffffff\n      and\n      mul\n      or\n      swap1\n      sstore\n      pop\n        /* \"Library/VoterLibrary.sol\":1408:1417  _hasVoted */\n      dup3\n        /* \"Library/VoterLibrary.sol\":1392:1396  self */\n      dup7\n        /* \"Library/VoterLibrary.sol\":1392:1405  self.hasVoted */\n      0x01\n      add\n      0x14\n        /* \"Library/VoterLibrary.sol\":1392:1417  self.hasVoted = _hasVoted */\n      0x0100\n      exp\n      dup2\n      sload\n      dup2\n      0xff\n      mul\n      not\n      and\n      swap1\n      dup4\n      iszero\n      iszero\n      mul\n      or\n      swap1\n      sstore\n      pop\n        /* \"Library/VoterLibrary.sol\":1467:1475  _voteNum */\n      dup2\n        /* \"Library/VoterLibrary.sol\":1452:1456  self */\n      dup7\n        /* \"Library/VoterLibrary.sol\":1452:1464  self.voteNum */\n      0x02\n      add\n        /* \"Library/VoterLibrary.sol\":1452:1475  self.voteNum = _voteNum */\n      dup2\n      swap1\n      sstore\n      pop\n        /* \"Library/VoterLibrary.sol\":1517:1521  true */\n      0x01\n        /* \"Library/VoterLibrary.sol\":1510:1521  return true */\n      swap1\n      pop\n        /* \"Library/VoterLibrary.sol\":1090:1525  function createVoter(voter storage self, uint _proposalId, address _voterAddress, bool _hasVoted, uint _voteNum) internal returns(bool){\r... */\n      swap6\n      swap5\n      pop\n      pop\n      pop\n      pop\n      pop\n      jump\t// out\n        /* \"QvToken/Context.sol\":656:754  function _msgSender() internal view virtual returns (address) {\r... */\n    tag_123:\n        /* \"QvToken/Context.sol\":709:716  address */\n      0x00\n        /* \"QvToken/Context.sol\":736:746  msg.sender */\n      caller\n        /* \"QvToken/Context.sol\":729:746  return msg.sender */\n      swap1\n      pop\n        /* \"QvToken/Context.sol\":656:754  function _msgSender() internal view virtual returns (address) {\r... */\n      swap1\n      jump\t// out\n        /* \"Library/UserProposalLibrary.sol\":573:794  function updateProposalList(UserProposal storage self, uint _proposalId) internal returns(bool){\r... */\n    tag_124:\n        /* \"Library/UserProposalLibrary.sol\":663:667  bool */\n      0x00\n        /* \"Library/UserProposalLibrary.sol\":679:683  self */\n      dup3\n        /* \"Library/UserProposalLibrary.sol\":679:697  self.proposalCount */\n      0x00\n      add\n      0x00\n        /* \"Library/UserProposalLibrary.sol\":679:699  self.proposalCount++ */\n      dup2\n      dup2\n      swap1\n      sload\n      swap1\n      0x0100\n      exp\n      swap1\n      div\n      0xffffffffffffffffffffffffffffffff\n      and\n      dup1\n      swap3\n      swap2\n      swap1\n      tag_232\n      swap1\n      tag_233\n      jump\t// in\n    tag_232:\n      swap2\n      swap1\n      0x0100\n      exp\n      dup2\n      sload\n      dup2\n      0xffffffffffffffffffffffffffffffff\n      mul\n      not\n      and\n      swap1\n      dup4\n      0xffffffffffffffffffffffffffffffff\n      and\n      mul\n      or\n      swap1\n      sstore\n      pop\n      pop\n        /* \"Library/UserProposalLibrary.sol\":753:764  _proposalId */\n      dup2\n        /* \"Library/UserProposalLibrary.sol\":710:714  self */\n      dup4\n        /* \"Library/UserProposalLibrary.sol\":710:730  self.proposalCreated */\n      0x01\n      add\n        /* \"Library/UserProposalLibrary.sol\":710:750  self.proposalCreated[self.proposalCount] */\n      0x00\n        /* \"Library/UserProposalLibrary.sol\":731:735  self */\n      dup6\n        /* \"Library/UserProposalLibrary.sol\":731:749  self.proposalCount */\n      0x00\n      add\n      0x00\n      swap1\n      sload\n      swap1\n      0x0100\n      exp\n      swap1\n      div\n      0xffffffffffffffffffffffffffffffff\n      and\n        /* \"Library/UserProposalLibrary.sol\":710:750  self.proposalCreated[self.proposalCount] */\n      0xffffffffffffffffffffffffffffffff\n      and\n      0xffffffffffffffffffffffffffffffff\n      and\n      dup2\n      mstore\n      0x20\n      add\n      swap1\n      dup2\n      mstore\n      0x20\n      add\n      0x00\n      keccak256\n        /* \"Library/UserProposalLibrary.sol\":710:764  self.proposalCreated[self.proposalCount] = _proposalId */\n      dup2\n      swap1\n      sstore\n      pop\n        /* \"Library/UserProposalLibrary.sol\":782:786  true */\n      0x01\n        /* \"Library/UserProposalLibrary.sol\":775:786  return true */\n      swap1\n      pop\n        /* \"Library/UserProposalLibrary.sol\":573:794  function updateProposalList(UserProposal storage self, uint _proposalId) internal returns(bool){\r... */\n      swap3\n      swap2\n      pop\n      pop\n      jump\t// out\n        /* \"Library/ProposalLibrary.sol\":2018:3370  function responseProposal(proposal storage self, address _voter, string[] memory _hash, uint[] memory v) internal returns(bool){\r... */\n    tag_154:\n        /* \"Library/ProposalLibrary.sol\":2140:2144  bool */\n      0x00\n        /* \"Library/ProposalLibrary.sol\":2179:2180  2 */\n      0x02\n        /* \"Library/ProposalLibrary.sol\":2164:2168  self */\n      dup6\n        /* \"Library/ProposalLibrary.sol\":2164:2175  self.status */\n      0x00\n      add\n      0x14\n      swap1\n      sload\n      swap1\n      0x0100\n      exp\n      swap1\n      div\n      0xff\n      and\n        /* \"Library/ProposalLibrary.sol\":2164:2180  self.status == 2 */\n      0xff\n      and\n      eq\n        /* \"Library/ProposalLibrary.sol\":2156:2203  require(self.status == 2, \"Proposal: inactive\") */\n      tag_235\n      jumpi\n      mload(0x40)\n      0x08c379a000000000000000000000000000000000000000000000000000000000\n      dup2\n      mstore\n      0x04\n      add\n      tag_236\n      swap1\n      tag_237\n      jump\t// in\n    tag_236:\n      mload(0x40)\n      dup1\n      swap2\n      sub\n      swap1\n      revert\n    tag_235:\n        /* \"Library/ProposalLibrary.sol\":2235:2239  self */\n      dup5\n        /* \"Library/ProposalLibrary.sol\":2235:2254  self.expirationTime */\n      0x03\n      add\n      sload\n        /* \"Library/ProposalLibrary.sol\":2217:2232  block.timestamp */\n      timestamp\n        /* \"Library/ProposalLibrary.sol\":2217:2254  block.timestamp > self.expirationTime */\n      gt\n        /* \"Library/ProposalLibrary.sol\":2214:3069  if(block.timestamp > self.expirationTime){\r... */\n      iszero\n      tag_238\n      jumpi\n        /* \"Library/ProposalLibrary.sol\":2324:2325  2 */\n      0x02\n        /* \"Library/ProposalLibrary.sol\":2310:2314  self */\n      dup6\n        /* \"Library/ProposalLibrary.sol\":2310:2321  self.status */\n      0x00\n      add\n      0x14\n        /* \"Library/ProposalLibrary.sol\":2310:2325  self.status = 2 */\n      0x0100\n      exp\n      dup2\n      sload\n      dup2\n      0xff\n      mul\n      not\n      and\n      swap1\n      dup4\n      0xff\n      and\n      mul\n      or\n      swap1\n      sstore\n      pop\n        /* \"Library/ProposalLibrary.sol\":2340:2357  uint largestCount */\n      0x00\n        /* \"Library/ProposalLibrary.sol\":2360:2364  self */\n      dup6\n        /* \"Library/ProposalLibrary.sol\":2360:2370  self.votes */\n      0x0a\n      add\n        /* \"Library/ProposalLibrary.sol\":2371:2375  self */\n      dup7\n        /* \"Library/ProposalLibrary.sol\":2371:2384  self.candHash */\n      0x08\n      add\n        /* \"Library/ProposalLibrary.sol\":2371:2387  self.candHash[1] */\n      0x00\n        /* \"Library/ProposalLibrary.sol\":2385:2386  1 */\n      0x01\n        /* \"Library/ProposalLibrary.sol\":2371:2387  self.candHash[1] */\n      dup2\n      mstore\n      0x20\n      add\n      swap1\n      dup2\n      mstore\n      0x20\n      add\n      0x00\n      keccak256\n        /* \"Library/ProposalLibrary.sol\":2360:2388  self.votes[self.candHash[1]] */\n      mload(0x40)\n      tag_239\n      swap2\n      swap1\n      tag_192\n      jump\t// in\n    tag_239:\n      swap1\n      dup2\n      mstore\n      0x20\n      add\n      mload(0x40)\n      dup1\n      swap2\n      sub\n      swap1\n      keccak256\n      sload\n        /* \"Library/ProposalLibrary.sol\":2340:2388  uint largestCount = self.votes[self.candHash[1]] */\n      swap1\n      pop\n        /* \"Library/ProposalLibrary.sol\":2403:2419  uint winnerCount */\n      0x00\n        /* \"Library/ProposalLibrary.sol\":2422:2423  1 */\n      0x01\n        /* \"Library/ProposalLibrary.sol\":2403:2423  uint winnerCount = 1 */\n      swap1\n      pop\n        /* \"Library/ProposalLibrary.sol\":2455:2459  self */\n      dup7\n        /* \"Library/ProposalLibrary.sol\":2455:2468  self.candHash */\n      0x08\n      add\n        /* \"Library/ProposalLibrary.sol\":2455:2471  self.candHash[1] */\n      0x00\n        /* \"Library/ProposalLibrary.sol\":2469:2470  1 */\n      0x01\n        /* \"Library/ProposalLibrary.sol\":2455:2471  self.candHash[1] */\n      dup2\n      mstore\n      0x20\n      add\n      swap1\n      dup2\n      mstore\n      0x20\n      add\n      0x00\n      keccak256\n        /* \"Library/ProposalLibrary.sol\":2438:2442  self */\n      dup8\n        /* \"Library/ProposalLibrary.sol\":2438:2449  self.result */\n      0x09\n      add\n        /* \"Library/ProposalLibrary.sol\":2438:2452  self.result[1] */\n      0x00\n        /* \"Library/ProposalLibrary.sol\":2450:2451  1 */\n      0x01\n        /* \"Library/ProposalLibrary.sol\":2438:2452  self.result[1] */\n      dup2\n      mstore\n      0x20\n      add\n      swap1\n      dup2\n      mstore\n      0x20\n      add\n      0x00\n      keccak256\n        /* \"Library/ProposalLibrary.sol\":2438:2471  self.result[1] = self.candHash[1] */\n      swap1\n      dup1\n      sload\n      tag_240\n      swap1\n      tag_73\n      jump\t// in\n    tag_240:\n      tag_241\n      swap3\n      swap2\n      swap1\n      tag_242\n      jump\t// in\n    tag_241:\n      pop\n        /* \"Library/ProposalLibrary.sol\":2553:2561  uint16 i */\n      0x00\n        /* \"Library/ProposalLibrary.sol\":2564:2565  2 */\n      0x02\n        /* \"Library/ProposalLibrary.sol\":2553:2565  uint16 i = 2 */\n      swap1\n      pop\n        /* \"Library/ProposalLibrary.sol\":2549:3031  for(uint16 i = 2; i <= self.numOfOptions; i++){\r... */\n    tag_243:\n        /* \"Library/ProposalLibrary.sol\":2572:2576  self */\n      dup8\n        /* \"Library/ProposalLibrary.sol\":2572:2589  self.numOfOptions */\n      0x04\n      add\n      0x00\n      swap1\n      sload\n      swap1\n      0x0100\n      exp\n      swap1\n      div\n      0xffff\n      and\n        /* \"Library/ProposalLibrary.sol\":2567:2589  i <= self.numOfOptions */\n      0xffff\n      and\n        /* \"Library/ProposalLibrary.sol\":2567:2568  i */\n      dup2\n        /* \"Library/ProposalLibrary.sol\":2567:2589  i <= self.numOfOptions */\n      0xffff\n      and\n      gt\n        /* \"Library/ProposalLibrary.sol\":2549:3031  for(uint16 i = 2; i <= self.numOfOptions; i++){\r... */\n      tag_244\n      jumpi\n        /* \"Library/ProposalLibrary.sol\":2648:2660  largestCount */\n      dup3\n        /* \"Library/ProposalLibrary.sol\":2617:2621  self */\n      dup9\n        /* \"Library/ProposalLibrary.sol\":2617:2627  self.votes */\n      0x0a\n      add\n        /* \"Library/ProposalLibrary.sol\":2628:2632  self */\n      dup10\n        /* \"Library/ProposalLibrary.sol\":2628:2641  self.candHash */\n      0x08\n      add\n        /* \"Library/ProposalLibrary.sol\":2628:2644  self.candHash[i] */\n      0x00\n        /* \"Library/ProposalLibrary.sol\":2642:2643  i */\n      dup5\n        /* \"Library/ProposalLibrary.sol\":2628:2644  self.candHash[i] */\n      0xffff\n      and\n      dup2\n      mstore\n      0x20\n      add\n      swap1\n      dup2\n      mstore\n      0x20\n      add\n      0x00\n      keccak256\n        /* \"Library/ProposalLibrary.sol\":2617:2645  self.votes[self.candHash[i]] */\n      mload(0x40)\n      tag_246\n      swap2\n      swap1\n      tag_192\n      jump\t// in\n    tag_246:\n      swap1\n      dup2\n      mstore\n      0x20\n      add\n      mload(0x40)\n      dup1\n      swap2\n      sub\n      swap1\n      keccak256\n      sload\n        /* \"Library/ProposalLibrary.sol\":2617:2660  self.votes[self.candHash[i]] > largestCount */\n      gt\n        /* \"Library/ProposalLibrary.sol\":2614:3016  if(self.votes[self.candHash[i]] > largestCount){\r... */\n      iszero\n      tag_247\n      jumpi\n        /* \"Library/ProposalLibrary.sol\":2699:2703  self */\n      dup8\n        /* \"Library/ProposalLibrary.sol\":2699:2709  self.votes */\n      0x0a\n      add\n        /* \"Library/ProposalLibrary.sol\":2710:2714  self */\n      dup9\n        /* \"Library/ProposalLibrary.sol\":2710:2723  self.candHash */\n      0x08\n      add\n        /* \"Library/ProposalLibrary.sol\":2710:2726  self.candHash[i] */\n      0x00\n        /* \"Library/ProposalLibrary.sol\":2724:2725  i */\n      dup4\n        /* \"Library/ProposalLibrary.sol\":2710:2726  self.candHash[i] */\n      0xffff\n      and\n      dup2\n      mstore\n      0x20\n      add\n      swap1\n      dup2\n      mstore\n      0x20\n      add\n      0x00\n      keccak256\n        /* \"Library/ProposalLibrary.sol\":2699:2727  self.votes[self.candHash[i]] */\n      mload(0x40)\n      tag_248\n      swap2\n      swap1\n      tag_192\n      jump\t// in\n    tag_248:\n      swap1\n      dup2\n      mstore\n      0x20\n      add\n      mload(0x40)\n      dup1\n      swap2\n      sub\n      swap1\n      keccak256\n      sload\n        /* \"Library/ProposalLibrary.sol\":2684:2727  largestCount = self.votes[self.candHash[i]] */\n      swap3\n      pop\n        /* \"Library/ProposalLibrary.sol\":2764:2765  1 */\n      0x01\n        /* \"Library/ProposalLibrary.sol\":2750:2765  winnerCount = 1 */\n      swap2\n      pop\n        /* \"Library/ProposalLibrary.sol\":2805:2809  self */\n      dup8\n        /* \"Library/ProposalLibrary.sol\":2805:2818  self.candHash */\n      0x08\n      add\n        /* \"Library/ProposalLibrary.sol\":2805:2821  self.candHash[i] */\n      0x00\n        /* \"Library/ProposalLibrary.sol\":2819:2820  i */\n      dup3\n        /* \"Library/ProposalLibrary.sol\":2805:2821  self.candHash[i] */\n      0xffff\n      and\n      dup2\n      mstore\n      0x20\n      add\n      swap1\n      dup2\n      mstore\n      0x20\n      add\n      0x00\n      keccak256\n        /* \"Library/ProposalLibrary.sol\":2788:2792  self */\n      dup9\n        /* \"Library/ProposalLibrary.sol\":2788:2799  self.result */\n      0x09\n      add\n        /* \"Library/ProposalLibrary.sol\":2788:2802  self.result[1] */\n      0x00\n        /* \"Library/ProposalLibrary.sol\":2800:2801  1 */\n      0x01\n        /* \"Library/ProposalLibrary.sol\":2788:2802  self.result[1] */\n      dup2\n      mstore\n      0x20\n      add\n      swap1\n      dup2\n      mstore\n      0x20\n      add\n      0x00\n      keccak256\n        /* \"Library/ProposalLibrary.sol\":2788:2821  self.result[1] = self.candHash[i] */\n      swap1\n      dup1\n      sload\n      tag_249\n      swap1\n      tag_73\n      jump\t// in\n    tag_249:\n      tag_250\n      swap3\n      swap2\n      swap1\n      tag_242\n      jump\t// in\n    tag_250:\n      pop\n        /* \"Library/ProposalLibrary.sol\":2614:3016  if(self.votes[self.candHash[i]] > largestCount){\r... */\n      jump(tag_251)\n    tag_247:\n        /* \"Library/ProposalLibrary.sol\":2881:2893  largestCount */\n      dup3\n        /* \"Library/ProposalLibrary.sol\":2849:2853  self */\n      dup9\n        /* \"Library/ProposalLibrary.sol\":2849:2859  self.votes */\n      0x0a\n      add\n        /* \"Library/ProposalLibrary.sol\":2860:2864  self */\n      dup10\n        /* \"Library/ProposalLibrary.sol\":2860:2873  self.candHash */\n      0x08\n      add\n        /* \"Library/ProposalLibrary.sol\":2860:2876  self.candHash[i] */\n      0x00\n        /* \"Library/ProposalLibrary.sol\":2874:2875  i */\n      dup5\n        /* \"Library/ProposalLibrary.sol\":2860:2876  self.candHash[i] */\n      0xffff\n      and\n      dup2\n      mstore\n      0x20\n      add\n      swap1\n      dup2\n      mstore\n      0x20\n      add\n      0x00\n      keccak256\n        /* \"Library/ProposalLibrary.sol\":2849:2877  self.votes[self.candHash[i]] */\n      mload(0x40)\n      tag_252\n      swap2\n      swap1\n      tag_192\n      jump\t// in\n    tag_252:\n      swap1\n      dup2\n      mstore\n      0x20\n      add\n      mload(0x40)\n      dup1\n      swap2\n      sub\n      swap1\n      keccak256\n      sload\n        /* \"Library/ProposalLibrary.sol\":2849:2893  self.votes[self.candHash[i]] == largestCount */\n      eq\n        /* \"Library/ProposalLibrary.sol\":2846:3016  if(self.votes[self.candHash[i]] == largestCount){\r... */\n      iszero\n      tag_253\n      jumpi\n        /* \"Library/ProposalLibrary.sol\":2917:2930  winnerCount++ */\n      dup2\n      dup1\n      tag_254\n      swap1\n      tag_97\n      jump\t// in\n    tag_254:\n      swap3\n      pop\n      pop\n        /* \"Library/ProposalLibrary.sol\":2980:2984  self */\n      dup8\n        /* \"Library/ProposalLibrary.sol\":2980:2993  self.candHash */\n      0x08\n      add\n        /* \"Library/ProposalLibrary.sol\":2980:2996  self.candHash[i] */\n      0x00\n        /* \"Library/ProposalLibrary.sol\":2994:2995  i */\n      dup3\n        /* \"Library/ProposalLibrary.sol\":2980:2996  self.candHash[i] */\n      0xffff\n      and\n      dup2\n      mstore\n      0x20\n      add\n      swap1\n      dup2\n      mstore\n      0x20\n      add\n      0x00\n      keccak256\n        /* \"Library/ProposalLibrary.sol\":2953:2957  self */\n      dup9\n        /* \"Library/ProposalLibrary.sol\":2953:2964  self.result */\n      0x09\n      add\n        /* \"Library/ProposalLibrary.sol\":2953:2977  self.result[winnerCount] */\n      0x00\n        /* \"Library/ProposalLibrary.sol\":2965:2976  winnerCount */\n      dup5\n        /* \"Library/ProposalLibrary.sol\":2953:2977  self.result[winnerCount] */\n      dup2\n      mstore\n      0x20\n      add\n      swap1\n      dup2\n      mstore\n      0x20\n      add\n      0x00\n      keccak256\n        /* \"Library/ProposalLibrary.sol\":2953:2996  self.result[winnerCount] = self.candHash[i] */\n      swap1\n      dup1\n      sload\n      tag_255\n      swap1\n      tag_73\n      jump\t// in\n    tag_255:\n      tag_256\n      swap3\n      swap2\n      swap1\n      tag_242\n      jump\t// in\n    tag_256:\n      pop\n        /* \"Library/ProposalLibrary.sol\":2846:3016  if(self.votes[self.candHash[i]] == largestCount){\r... */\n    tag_253:\n        /* \"Library/ProposalLibrary.sol\":2614:3016  if(self.votes[self.candHash[i]] > largestCount){\r... */\n    tag_251:\n        /* \"Library/ProposalLibrary.sol\":2591:2594  i++ */\n      dup1\n      dup1\n      tag_257\n      swap1\n      tag_258\n      jump\t// in\n    tag_257:\n      swap2\n      pop\n      pop\n        /* \"Library/ProposalLibrary.sol\":2549:3031  for(uint16 i = 2; i <= self.numOfOptions; i++){\r... */\n      jump(tag_243)\n    tag_244:\n      pop\n        /* \"Library/ProposalLibrary.sol\":3052:3057  false */\n      0x00\n        /* \"Library/ProposalLibrary.sol\":3045:3057  return false */\n      swap3\n      pop\n      pop\n      pop\n      jump(tag_234)\n        /* \"Library/ProposalLibrary.sol\":2214:3069  if(block.timestamp > self.expirationTime){\r... */\n    tag_238:\n        /* \"Library/ProposalLibrary.sol\":3112:3116  self */\n      dup5\n        /* \"Library/ProposalLibrary.sol\":3112:3123  self.voters */\n      0x06\n      add\n        /* \"Library/ProposalLibrary.sol\":3112:3131  self.voters[_voter] */\n      0x00\n        /* \"Library/ProposalLibrary.sol\":3124:3130  _voter */\n      dup6\n        /* \"Library/ProposalLibrary.sol\":3112:3131  self.voters[_voter] */\n      0xffffffffffffffffffffffffffffffffffffffff\n      and\n      0xffffffffffffffffffffffffffffffffffffffff\n      and\n      dup2\n      mstore\n      0x20\n      add\n      swap1\n      dup2\n      mstore\n      0x20\n      add\n      0x00\n      keccak256\n      0x00\n      swap1\n      sload\n      swap1\n      0x0100\n      exp\n      swap1\n      div\n      0xff\n      and\n        /* \"Library/ProposalLibrary.sol\":3104:3171  require(self.voters[_voter], \"Not a valid voter for this proposal\") */\n      tag_259\n      jumpi\n      mload(0x40)\n      0x08c379a000000000000000000000000000000000000000000000000000000000\n      dup2\n      mstore\n      0x04\n      add\n      tag_260\n      swap1\n      tag_261\n      jump\t// in\n    tag_260:\n      mload(0x40)\n      dup1\n      swap2\n      sub\n      swap1\n      revert\n    tag_259:\n        /* \"Library/ProposalLibrary.sol\":3188:3196  uint16 i */\n      0x00\n        /* \"Library/ProposalLibrary.sol\":3184:3341  for(uint16 i=0;i<self.numOfOptions;i++){\r... */\n    tag_262:\n        /* \"Library/ProposalLibrary.sol\":3201:3205  self */\n      dup6\n        /* \"Library/ProposalLibrary.sol\":3201:3218  self.numOfOptions */\n      0x04\n      add\n      0x00\n      swap1\n      sload\n      swap1\n      0x0100\n      exp\n      swap1\n      div\n      0xffff\n      and\n        /* \"Library/ProposalLibrary.sol\":3199:3218  i<self.numOfOptions */\n      0xffff\n      and\n        /* \"Library/ProposalLibrary.sol\":3199:3200  i */\n      dup2\n        /* \"Library/ProposalLibrary.sol\":3199:3218  i<self.numOfOptions */\n      0xffff\n      and\n      lt\n        /* \"Library/ProposalLibrary.sol\":3184:3341  for(uint16 i=0;i<self.numOfOptions;i++){\r... */\n      iszero\n      tag_263\n      jumpi\n        /* \"Library/ProposalLibrary.sol\":3242:3246  self */\n      dup6\n        /* \"Library/ProposalLibrary.sol\":3242:3251  self.cand */\n      0x07\n      add\n        /* \"Library/ProposalLibrary.sol\":3252:3257  _hash */\n      dup5\n        /* \"Library/ProposalLibrary.sol\":3258:3259  i */\n      dup3\n        /* \"Library/ProposalLibrary.sol\":3252:3260  _hash[i] */\n      0xffff\n      and\n      dup2\n      mload\n      dup2\n      lt\n      tag_265\n      jumpi\n      tag_266\n      tag_108\n      jump\t// in\n    tag_266:\n    tag_265:\n      0x20\n      mul\n      0x20\n      add\n      add\n      mload\n        /* \"Library/ProposalLibrary.sol\":3242:3261  self.cand[_hash[i]] */\n      mload(0x40)\n      tag_267\n      swap2\n      swap1\n      tag_268\n      jump\t// in\n    tag_267:\n      swap1\n      dup2\n      mstore\n      0x20\n      add\n      mload(0x40)\n      dup1\n      swap2\n      sub\n      swap1\n      keccak256\n      0x00\n      swap1\n      sload\n      swap1\n      0x0100\n      exp\n      swap1\n      div\n      0xff\n      and\n        /* \"Library/ProposalLibrary.sol\":3234:3293  require(self.cand[_hash[i]], \"Proposal: invalid candidate\") */\n      tag_269\n      jumpi\n      mload(0x40)\n      0x08c379a000000000000000000000000000000000000000000000000000000000\n      dup2\n      mstore\n      0x04\n      add\n      tag_270\n      swap1\n      tag_271\n      jump\t// in\n    tag_270:\n      mload(0x40)\n      dup1\n      swap2\n      sub\n      swap1\n      revert\n    tag_269:\n        /* \"Library/ProposalLibrary.sol\":3325:3326  v */\n      dup3\n        /* \"Library/ProposalLibrary.sol\":3327:3328  i */\n      dup2\n        /* \"Library/ProposalLibrary.sol\":3325:3329  v[i] */\n      0xffff\n      and\n      dup2\n      mload\n      dup2\n      lt\n      tag_272\n      jumpi\n      tag_273\n      tag_108\n      jump\t// in\n    tag_273:\n    tag_272:\n      0x20\n      mul\n      0x20\n      add\n      add\n      mload\n        /* \"Library/ProposalLibrary.sol\":3304:3308  self */\n      dup7\n        /* \"Library/ProposalLibrary.sol\":3304:3314  self.votes */\n      0x0a\n      add\n        /* \"Library/ProposalLibrary.sol\":3315:3320  _hash */\n      dup6\n        /* \"Library/ProposalLibrary.sol\":3321:3322  i */\n      dup4\n        /* \"Library/ProposalLibrary.sol\":3315:3323  _hash[i] */\n      0xffff\n      and\n      dup2\n      mload\n      dup2\n      lt\n      tag_274\n      jumpi\n      tag_275\n      tag_108\n      jump\t// in\n    tag_275:\n    tag_274:\n      0x20\n      mul\n      0x20\n      add\n      add\n      mload\n        /* \"Library/ProposalLibrary.sol\":3304:3324  self.votes[_hash[i]] */\n      mload(0x40)\n      tag_276\n      swap2\n      swap1\n      tag_268\n      jump\t// in\n    tag_276:\n      swap1\n      dup2\n      mstore\n      0x20\n      add\n      mload(0x40)\n      dup1\n      swap2\n      sub\n      swap1\n      keccak256\n        /* \"Library/ProposalLibrary.sol\":3304:3329  self.votes[_hash[i]]=v[i] */\n      dup2\n      swap1\n      sstore\n      pop\n        /* \"Library/ProposalLibrary.sol\":3219:3222  i++ */\n      dup1\n      dup1\n      tag_277\n      swap1\n      tag_258\n      jump\t// in\n    tag_277:\n      swap2\n      pop\n      pop\n        /* \"Library/ProposalLibrary.sol\":3184:3341  for(uint16 i=0;i<self.numOfOptions;i++){\r... */\n      jump(tag_262)\n    tag_263:\n      pop\n        /* \"Library/ProposalLibrary.sol\":3358:3362  true */\n      0x01\n        /* \"Library/ProposalLibrary.sol\":3351:3362  return true */\n      swap1\n      pop\n        /* \"Library/ProposalLibrary.sol\":2018:3370  function responseProposal(proposal storage self, address _voter, string[] memory _hash, uint[] memory v) internal returns(bool){\r... */\n    tag_234:\n      swap5\n      swap4\n      pop\n      pop\n      pop\n      pop\n      jump\t// out\n        /* \"Library/UserProposalLibrary.sol\":802:1377  function updateResponseList(UserProposal storage self, uint _proposalId, string[] memory _hash) internal returns(bool){\r... */\n    tag_157:\n        /* \"Library/UserProposalLibrary.sol\":915:919  bool */\n      0x00\n        /* \"Library/UserProposalLibrary.sol\":931:935  self */\n      dup4\n        /* \"Library/UserProposalLibrary.sol\":931:949  self.responseCount */\n      0x00\n      add\n      0x10\n        /* \"Library/UserProposalLibrary.sol\":931:951  self.responseCount++ */\n      dup2\n      dup2\n      swap1\n      sload\n      swap1\n      0x0100\n      exp\n      swap1\n      div\n      0xffffffffffffffffffffffffffffffff\n      and\n      dup1\n      swap3\n      swap2\n      swap1\n      tag_279\n      swap1\n      tag_233\n      jump\t// in\n    tag_279:\n      swap2\n      swap1\n      0x0100\n      exp\n      dup2\n      sload\n      dup2\n      0xffffffffffffffffffffffffffffffff\n      mul\n      not\n      and\n      swap1\n      dup4\n      0xffffffffffffffffffffffffffffffff\n      and\n      mul\n      or\n      swap1\n      sstore\n      pop\n      pop\n        /* \"Library/UserProposalLibrary.sol\":1009:1020  _proposalId */\n      dup3\n        /* \"Library/UserProposalLibrary.sol\":964:968  self */\n      dup5\n        /* \"Library/UserProposalLibrary.sol\":964:986  self.proposalResponsed */\n      0x02\n      add\n        /* \"Library/UserProposalLibrary.sol\":964:1006  self.proposalResponsed[self.responseCount] */\n      0x00\n        /* \"Library/UserProposalLibrary.sol\":987:991  self */\n      dup7\n        /* \"Library/UserProposalLibrary.sol\":987:1005  self.responseCount */\n      0x00\n      add\n      0x10\n      swap1\n      sload\n      swap1\n      0x0100\n      exp\n      swap1\n      div\n      0xffffffffffffffffffffffffffffffff\n      and\n        /* \"Library/UserProposalLibrary.sol\":964:1006  self.proposalResponsed[self.responseCount] */\n      0xffffffffffffffffffffffffffffffff\n      and\n      0xffffffffffffffffffffffffffffffff\n      and\n      dup2\n      mstore\n      0x20\n      add\n      swap1\n      dup2\n      mstore\n      0x20\n      add\n      0x00\n      keccak256\n        /* \"Library/UserProposalLibrary.sol\":964:1020  self.proposalResponsed[self.responseCount] = _proposalId */\n      dup2\n      swap1\n      sstore\n      pop\n        /* \"Library/UserProposalLibrary.sol\":1190:1198  uint16 i */\n      0x00\n        /* \"Library/UserProposalLibrary.sol\":1186:1295  for(uint16 i=0;i<_hash.length;i++){\r... */\n    tag_280:\n        /* \"Library/UserProposalLibrary.sol\":1203:1208  _hash */\n      dup3\n        /* \"Library/UserProposalLibrary.sol\":1203:1215  _hash.length */\n      mload\n        /* \"Library/UserProposalLibrary.sol\":1201:1202  i */\n      dup2\n        /* \"Library/UserProposalLibrary.sol\":1201:1215  i<_hash.length */\n      0xffff\n      and\n      lt\n        /* \"Library/UserProposalLibrary.sol\":1186:1295  for(uint16 i=0;i<_hash.length;i++){\r... */\n      iszero\n      tag_281\n      jumpi\n        /* \"Library/UserProposalLibrary.sol\":1275:1280  _hash */\n      dup3\n        /* \"Library/UserProposalLibrary.sol\":1281:1282  i */\n      dup2\n        /* \"Library/UserProposalLibrary.sol\":1275:1283  _hash[i] */\n      0xffff\n      and\n      dup2\n      mload\n      dup2\n      lt\n      tag_283\n      jumpi\n      tag_284\n      tag_108\n      jump\t// in\n    tag_284:\n    tag_283:\n      0x20\n      mul\n      0x20\n      add\n      add\n      mload\n        /* \"Library/UserProposalLibrary.sol\":1235:1239  self */\n      dup6\n        /* \"Library/UserProposalLibrary.sol\":1235:1254  self.proposalAnswer */\n      0x03\n      add\n        /* \"Library/UserProposalLibrary.sol\":1235:1267  self.proposalAnswer[_proposalId] */\n      0x00\n        /* \"Library/UserProposalLibrary.sol\":1255:1266  _proposalId */\n      dup7\n        /* \"Library/UserProposalLibrary.sol\":1235:1267  self.proposalAnswer[_proposalId] */\n      dup2\n      mstore\n      0x20\n      add\n      swap1\n      dup2\n      mstore\n      0x20\n      add\n      0x00\n      keccak256\n        /* \"Library/UserProposalLibrary.sol\":1235:1272  self.proposalAnswer[_proposalId][i+1] */\n      0x00\n        /* \"Library/UserProposalLibrary.sol\":1270:1271  1 */\n      0x01\n        /* \"Library/UserProposalLibrary.sol\":1268:1269  i */\n      dup5\n        /* \"Library/UserProposalLibrary.sol\":1268:1271  i+1 */\n      tag_285\n      swap2\n      swap1\n      tag_286\n      jump\t// in\n    tag_285:\n        /* \"Library/UserProposalLibrary.sol\":1235:1272  self.proposalAnswer[_proposalId][i+1] */\n      0xffff\n      and\n      dup2\n      mstore\n      0x20\n      add\n      swap1\n      dup2\n      mstore\n      0x20\n      add\n      0x00\n      keccak256\n        /* \"Library/UserProposalLibrary.sol\":1235:1283  self.proposalAnswer[_proposalId][i+1] = _hash[i] */\n      swap1\n      dup1\n      mload\n      swap1\n      0x20\n      add\n      swap1\n      tag_287\n      swap3\n      swap2\n      swap1\n      tag_200\n      jump\t// in\n    tag_287:\n      pop\n        /* \"Library/UserProposalLibrary.sol\":1216:1219  i++ */\n      dup1\n      dup1\n      tag_288\n      swap1\n      tag_258\n      jump\t// in\n    tag_288:\n      swap2\n      pop\n      pop\n        /* \"Library/UserProposalLibrary.sol\":1186:1295  for(uint16 i=0;i<_hash.length;i++){\r... */\n      jump(tag_280)\n    tag_281:\n      pop\n        /* \"Library/UserProposalLibrary.sol\":1343:1347  true */\n      0x01\n        /* \"Library/UserProposalLibrary.sol\":1305:1309  self */\n      dup5\n        /* \"Library/UserProposalLibrary.sol\":1305:1327  self.responsedProposal */\n      0x04\n      add\n        /* \"Library/UserProposalLibrary.sol\":1305:1340  self.responsedProposal[_proposalId] */\n      0x00\n        /* \"Library/UserProposalLibrary.sol\":1328:1339  _proposalId */\n      dup6\n        /* \"Library/UserProposalLibrary.sol\":1305:1340  self.responsedProposal[_proposalId] */\n      dup2\n      mstore\n      0x20\n      add\n      swap1\n      dup2\n      mstore\n      0x20\n      add\n      0x00\n      keccak256\n      0x00\n        /* \"Library/UserProposalLibrary.sol\":1305:1347  self.responsedProposal[_proposalId] = true */\n      0x0100\n      exp\n      dup2\n      sload\n      dup2\n      0xff\n      mul\n      not\n      and\n      swap1\n      dup4\n      iszero\n      iszero\n      mul\n      or\n      swap1\n      sstore\n      pop\n        /* \"Library/UserProposalLibrary.sol\":1365:1369  true */\n      0x01\n        /* \"Library/UserProposalLibrary.sol\":1358:1369  return true */\n      swap1\n      pop\n        /* \"Library/UserProposalLibrary.sol\":802:1377  function updateResponseList(UserProposal storage self, uint _proposalId, string[] memory _hash) internal returns(bool){\r... */\n      swap4\n      swap3\n      pop\n      pop\n      pop\n      jump\t// out\n        /* \"Library/VoterLibrary.sol\":832:1063  function updateVoteNum(voter storage self) internal returns(bool){\r... */\n    tag_159:\n        /* \"Library/VoterLibrary.sol\":892:896  bool */\n      0x00\n        /* \"Library/VoterLibrary.sol\":931:932  0 */\n      dup1\n        /* \"Library/VoterLibrary.sol\":914:918  self */\n      dup3\n        /* \"Library/VoterLibrary.sol\":914:929  self.proposalId */\n      0x00\n      add\n      sload\n        /* \"Library/VoterLibrary.sol\":914:932  self.proposalId!=0 */\n      eq\n      iszero\n        /* \"Library/VoterLibrary.sol\":906:965  require(self.proposalId!=0,\"Invalid voter for proposalId!\") */\n      tag_290\n      jumpi\n      mload(0x40)\n      0x08c379a000000000000000000000000000000000000000000000000000000000\n      dup2\n      mstore\n      0x04\n      add\n      tag_291\n      swap1\n      tag_292\n      jump\t// in\n    tag_291:\n      mload(0x40)\n      dup1\n      swap2\n      sub\n      swap1\n      revert\n    tag_290:\n        /* \"Library/VoterLibrary.sol\":983:987  self */\n      dup2\n        /* \"Library/VoterLibrary.sol\":983:996  self.hasVoted */\n      0x01\n      add\n      0x14\n      swap1\n      sload\n      swap1\n      0x0100\n      exp\n      swap1\n      div\n      0xff\n      and\n        /* \"Library/VoterLibrary.sol\":982:996  !self.hasVoted */\n      iszero\n        /* \"Library/VoterLibrary.sol\":974:1010  require(!self.hasVoted, \"not voted\") */\n      tag_293\n      jumpi\n      mload(0x40)\n      0x08c379a000000000000000000000000000000000000000000000000000000000\n      dup2\n      mstore\n      0x04\n      add\n      tag_294\n      swap1\n      tag_295\n      jump\t// in\n    tag_294:\n      mload(0x40)\n      dup1\n      swap2\n      sub\n      swap1\n      revert\n    tag_293:\n        /* \"Library/VoterLibrary.sol\":1034:1035  0 */\n      0x00\n        /* \"Library/VoterLibrary.sol\":1019:1023  self */\n      dup3\n        /* \"Library/VoterLibrary.sol\":1019:1031  self.voteNum */\n      0x02\n      add\n        /* \"Library/VoterLibrary.sol\":1019:1035  self.voteNum = 0 */\n      dup2\n      swap1\n      sstore\n      pop\n        /* \"Library/VoterLibrary.sol\":1051:1055  true */\n      0x01\n        /* \"Library/VoterLibrary.sol\":1044:1055  return true */\n      swap1\n      pop\n        /* \"Library/VoterLibrary.sol\":832:1063  function updateVoteNum(voter storage self) internal returns(bool){\r... */\n      swap2\n      swap1\n      pop\n      jump\t// out\n        /* \"QvToken/QvToken.sol\":510:613  function burn(address to,uint amount) onlyOwner(_msgSender()) internal {\r... */\n    tag_161:\n        /* \"QvToken/QvToken.sol\":558:570  _msgSender() */\n      tag_296\n        /* \"QvToken/QvToken.sol\":558:568  _msgSender */\n      tag_123\n        /* \"QvToken/QvToken.sol\":558:570  _msgSender() */\n      jump\t// in\n    tag_296:\n        /* \"QvToken/QvToken.sol\":366:375  msgSender */\n      dup1\n        /* \"QvToken/QvToken.sol\":357:375  owner == msgSender */\n      0xffffffffffffffffffffffffffffffffffffffff\n      and\n        /* \"QvToken/QvToken.sol\":357:362  owner */\n      0x04\n      0x00\n      swap1\n      sload\n      swap1\n      0x0100\n      exp\n      swap1\n      div\n      0xffffffffffffffffffffffffffffffffffffffff\n      and\n        /* \"QvToken/QvToken.sol\":357:375  owner == msgSender */\n      0xffffffffffffffffffffffffffffffffffffffff\n      and\n      eq\n        /* \"QvToken/QvToken.sol\":349:376  require(owner == msgSender) */\n      tag_298\n      jumpi\n      0x00\n      dup1\n      revert\n    tag_298:\n        /* \"QvToken/QvToken.sol\":588:605  _burn(to, amount) */\n      tag_300\n        /* \"QvToken/QvToken.sol\":594:596  to */\n      dup4\n        /* \"QvToken/QvToken.sol\":598:604  amount */\n      dup4\n        /* \"QvToken/QvToken.sol\":588:593  _burn */\n      tag_301\n        /* \"QvToken/QvToken.sol\":588:605  _burn(to, amount) */\n      jump\t// in\n    tag_300:\n        /* \"QvToken/QvToken.sol\":510:613  function burn(address to,uint amount) onlyOwner(_msgSender()) internal {\r... */\n      pop\n      pop\n      pop\n      jump\t// out\n        /* \"QvToken/ERC20.sol\":3630:4033  function _mint(address account, uint256 amount) internal virtual {\r... */\n    tag_228:\n        /* \"QvToken/ERC20.sol\":3733:3734  0 */\n      0x00\n        /* \"QvToken/ERC20.sol\":3714:3735  account != address(0) */\n      0xffffffffffffffffffffffffffffffffffffffff\n      and\n        /* \"QvToken/ERC20.sol\":3714:3721  account */\n      dup3\n        /* \"QvToken/ERC20.sol\":3714:3735  account != address(0) */\n      0xffffffffffffffffffffffffffffffffffffffff\n      and\n      eq\n      iszero\n        /* \"QvToken/ERC20.sol\":3706:3771  require(account != address(0), \"ERC20: mint to the zero address\") */\n      tag_303\n      jumpi\n      mload(0x40)\n      0x08c379a000000000000000000000000000000000000000000000000000000000\n      dup2\n      mstore\n      0x04\n      add\n      tag_304\n      swap1\n      tag_305\n      jump\t// in\n    tag_304:\n      mload(0x40)\n      dup1\n      swap2\n      sub\n      swap1\n      revert\n    tag_303:\n        /* \"QvToken/ERC20.sol\":3865:3871  amount */\n      dup1\n        /* \"QvToken/ERC20.sol\":3849:3861  _totalSupply */\n      0x01\n      0x00\n        /* \"QvToken/ERC20.sol\":3849:3871  _totalSupply += amount */\n      dup3\n      dup3\n      sload\n      tag_306\n      swap2\n      swap1\n      tag_148\n      jump\t// in\n    tag_306:\n      swap3\n      pop\n      pop\n      dup2\n      swap1\n      sstore\n      pop\n        /* \"QvToken/ERC20.sol\":3904:3910  amount */\n      dup1\n        /* \"QvToken/ERC20.sol\":3882:3891  _balances */\n      0x00\n        /* \"QvToken/ERC20.sol\":3882:3900  _balances[account] */\n      dup1\n        /* \"QvToken/ERC20.sol\":3892:3899  account */\n      dup5\n        /* \"QvToken/ERC20.sol\":3882:3900  _balances[account] */\n      0xffffffffffffffffffffffffffffffffffffffff\n      and\n      0xffffffffffffffffffffffffffffffffffffffff\n      and\n      dup2\n      mstore\n      0x20\n      add\n      swap1\n      dup2\n      mstore\n      0x20\n      add\n      0x00\n      keccak256\n      0x00\n        /* \"QvToken/ERC20.sol\":3882:3910  _balances[account] += amount */\n      dup3\n      dup3\n      sload\n      tag_307\n      swap2\n      swap1\n      tag_148\n      jump\t// in\n    tag_307:\n      swap3\n      pop\n      pop\n      dup2\n      swap1\n      sstore\n      pop\n        /* \"QvToken/ERC20.sol\":3926:3961  mintAndburn(\"mint\",account, amount) */\n      0xabf5327be9f5825c40d58bda541dd07f09b62df3376bbd5ecdbaa8bd82a9d492\n        /* \"QvToken/ERC20.sol\":3945:3952  account */\n      dup3\n        /* \"QvToken/ERC20.sol\":3954:3960  amount */\n      dup3\n        /* \"QvToken/ERC20.sol\":3926:3961  mintAndburn(\"mint\",account, amount) */\n      mload(0x40)\n      tag_308\n      swap3\n      swap2\n      swap1\n      tag_119\n      jump\t// in\n    tag_308:\n      mload(0x40)\n      dup1\n      swap2\n      sub\n      swap1\n      log1\n        /* \"QvToken/ERC20.sol\":3630:4033  function _mint(address account, uint256 amount) internal virtual {\r... */\n      pop\n      pop\n      jump\t// out\n        /* \"QvToken/ERC20.sol\":4045:4640  function _burn(address account, uint256 amount) internal virtual {\r... */\n    tag_301:\n        /* \"QvToken/ERC20.sol\":4148:4149  0 */\n      0x00\n        /* \"QvToken/ERC20.sol\":4129:4150  account != address(0) */\n      0xffffffffffffffffffffffffffffffffffffffff\n      and\n        /* \"QvToken/ERC20.sol\":4129:4136  account */\n      dup3\n        /* \"QvToken/ERC20.sol\":4129:4150  account != address(0) */\n      0xffffffffffffffffffffffffffffffffffffffff\n      and\n      eq\n      iszero\n        /* \"QvToken/ERC20.sol\":4121:4188  require(account != address(0), \"ERC20: burn from the zero address\") */\n      tag_310\n      jumpi\n      mload(0x40)\n      0x08c379a000000000000000000000000000000000000000000000000000000000\n      dup2\n      mstore\n      0x04\n      add\n      tag_311\n      swap1\n      tag_312\n      jump\t// in\n    tag_311:\n      mload(0x40)\n      dup1\n      swap2\n      sub\n      swap1\n      revert\n    tag_310:\n        /* \"QvToken/ERC20.sol\":4266:4288  uint256 accountBalance */\n      0x00\n        /* \"QvToken/ERC20.sol\":4291:4300  _balances */\n      dup1\n        /* \"QvToken/ERC20.sol\":4291:4309  _balances[account] */\n      0x00\n        /* \"QvToken/ERC20.sol\":4301:4308  account */\n      dup5\n        /* \"QvToken/ERC20.sol\":4291:4309  _balances[account] */\n      0xffffffffffffffffffffffffffffffffffffffff\n      and\n      0xffffffffffffffffffffffffffffffffffffffff\n      and\n      dup2\n      mstore\n      0x20\n      add\n      swap1\n      dup2\n      mstore\n      0x20\n      add\n      0x00\n      keccak256\n      sload\n        /* \"QvToken/ERC20.sol\":4266:4309  uint256 accountBalance = _balances[account] */\n      swap1\n      pop\n        /* \"QvToken/ERC20.sol\":4346:4352  amount */\n      dup2\n        /* \"QvToken/ERC20.sol\":4328:4342  accountBalance */\n      dup2\n        /* \"QvToken/ERC20.sol\":4328:4352  accountBalance >= amount */\n      lt\n      iszero\n        /* \"QvToken/ERC20.sol\":4320:4391  require(accountBalance >= amount, \"ERC20: burn amount exceeds balance\") */\n      tag_313\n      jumpi\n      mload(0x40)\n      0x08c379a000000000000000000000000000000000000000000000000000000000\n      dup2\n      mstore\n      0x04\n      add\n      tag_314\n      swap1\n      tag_315\n      jump\t// in\n    tag_314:\n      mload(0x40)\n      dup1\n      swap2\n      sub\n      swap1\n      revert\n    tag_313:\n        /* \"QvToken/ERC20.sol\":4465:4471  amount */\n      dup2\n        /* \"QvToken/ERC20.sol\":4448:4462  accountBalance */\n      dup2\n        /* \"QvToken/ERC20.sol\":4448:4471  accountBalance - amount */\n      sub\n        /* \"QvToken/ERC20.sol\":4427:4436  _balances */\n      0x00\n        /* \"QvToken/ERC20.sol\":4427:4445  _balances[account] */\n      dup1\n        /* \"QvToken/ERC20.sol\":4437:4444  account */\n      dup6\n        /* \"QvToken/ERC20.sol\":4427:4445  _balances[account] */\n      0xffffffffffffffffffffffffffffffffffffffff\n      and\n      0xffffffffffffffffffffffffffffffffffffffff\n      and\n      dup2\n      mstore\n      0x20\n      add\n      swap1\n      dup2\n      mstore\n      0x20\n      add\n      0x00\n      keccak256\n        /* \"QvToken/ERC20.sol\":4427:4471  _balances[account] = accountBalance - amount */\n      dup2\n      swap1\n      sstore\n      pop\n        /* \"QvToken/ERC20.sol\":4509:4515  amount */\n      dup2\n        /* \"QvToken/ERC20.sol\":4493:4505  _totalSupply */\n      0x01\n      0x00\n        /* \"QvToken/ERC20.sol\":4493:4515  _totalSupply -= amount */\n      dup3\n      dup3\n      sload\n      tag_316\n      swap2\n      swap1\n      tag_317\n      jump\t// in\n    tag_316:\n      swap3\n      pop\n      pop\n      dup2\n      swap1\n      sstore\n      pop\n        /* \"QvToken/ERC20.sol\":4533:4568  mintAndburn(\"burn\",account, amount) */\n      0xabf5327be9f5825c40d58bda541dd07f09b62df3376bbd5ecdbaa8bd82a9d492\n        /* \"QvToken/ERC20.sol\":4552:4559  account */\n      dup4\n        /* \"QvToken/ERC20.sol\":4561:4567  amount */\n      dup4\n        /* \"QvToken/ERC20.sol\":4533:4568  mintAndburn(\"burn\",account, amount) */\n      mload(0x40)\n      tag_318\n      swap3\n      swap2\n      swap1\n      tag_163\n      jump\t// in\n    tag_318:\n      mload(0x40)\n      dup1\n      swap2\n      sub\n      swap1\n      log1\n        /* \"QvToken/ERC20.sol\":4110:4640  {\r... */\n      pop\n        /* \"QvToken/ERC20.sol\":4045:4640  function _burn(address account, uint256 amount) internal virtual {\r... */\n      pop\n      pop\n      jump\t// out\n    tag_200:\n      dup3\n      dup1\n      sload\n      tag_319\n      swap1\n      tag_73\n      jump\t// in\n    tag_319:\n      swap1\n      0x00\n      mstore\n      keccak256(0x00, 0x20)\n      swap1\n      0x1f\n      add\n      0x20\n      swap1\n      div\n      dup2\n      add\n      swap3\n      dup3\n      tag_321\n      jumpi\n      0x00\n      dup6\n      sstore\n      jump(tag_320)\n    tag_321:\n      dup3\n      0x1f\n      lt\n      tag_322\n      jumpi\n      dup1\n      mload\n      not(0xff)\n      and\n      dup4\n      dup1\n      add\n      or\n      dup6\n      sstore\n      jump(tag_320)\n    tag_322:\n      dup3\n      dup1\n      add\n      0x01\n      add\n      dup6\n      sstore\n      dup3\n      iszero\n      tag_320\n      jumpi\n      swap2\n      dup3\n      add\n    tag_323:\n      dup3\n      dup2\n      gt\n      iszero\n      tag_324\n      jumpi\n      dup3\n      mload\n      dup3\n      sstore\n      swap2\n      0x20\n      add\n      swap2\n      swap1\n      0x01\n      add\n      swap1\n      jump(tag_323)\n    tag_324:\n    tag_320:\n      pop\n      swap1\n      pop\n      tag_325\n      swap2\n      swap1\n      tag_326\n      jump\t// in\n    tag_325:\n      pop\n      swap1\n      jump\t// out\n    tag_215:\n      dup3\n      dup1\n      sload\n      tag_327\n      swap1\n      tag_73\n      jump\t// in\n    tag_327:\n      swap1\n      0x00\n      mstore\n      keccak256(0x00, 0x20)\n      swap1\n      0x1f\n      add\n      0x20\n      swap1\n      div\n      dup2\n      add\n      swap3\n      dup3\n      tag_329\n      jumpi\n      0x00\n      dup6\n      sstore\n      jump(tag_328)\n    tag_329:\n      dup3\n      0x1f\n      lt\n      tag_330\n      jumpi\n      dup1\n      calldataload\n      not(0xff)\n      and\n      dup4\n      dup1\n      add\n      or\n      dup6\n      sstore\n      jump(tag_328)\n    tag_330:\n      dup3\n      dup1\n      add\n      0x01\n      add\n      dup6\n      sstore\n      dup3\n      iszero\n      tag_328\n      jumpi\n      swap2\n      dup3\n      add\n    tag_331:\n      dup3\n      dup2\n      gt\n      iszero\n      tag_332\n      jumpi\n      dup3\n      calldataload\n      dup3\n      sstore\n      swap2\n      0x20\n      add\n      swap2\n      swap1\n      0x01\n      add\n      swap1\n      jump(tag_331)\n    tag_332:\n    tag_328:\n      pop\n      swap1\n      pop\n      tag_333\n      swap2\n      swap1\n      tag_326\n      jump\t// in\n    tag_333:\n      pop\n      swap1\n      jump\t// out\n    tag_242:\n      dup3\n      dup1\n      sload\n      tag_334\n      swap1\n      tag_73\n      jump\t// in\n    tag_334:\n      swap1\n      0x00\n      mstore\n      keccak256(0x00, 0x20)\n      swap1\n      0x1f\n      add\n      0x20\n      swap1\n      div\n      dup2\n      add\n      swap3\n      dup3\n      tag_336\n      jumpi\n      0x00\n      dup6\n      sstore\n      jump(tag_335)\n    tag_336:\n      dup3\n      0x1f\n      lt\n      tag_337\n      jumpi\n      dup1\n      sload\n      dup6\n      sstore\n      jump(tag_335)\n    tag_337:\n      dup3\n      dup1\n      add\n      0x01\n      add\n      dup6\n      sstore\n      dup3\n      iszero\n      tag_335\n      jumpi\n      0x00\n      mstore\n      keccak256(0x00, 0x20)\n      swap2\n      0x1f\n      add\n      0x20\n      swap1\n      div\n      dup3\n      add\n    tag_338:\n      dup3\n      dup2\n      gt\n      iszero\n      tag_339\n      jumpi\n      dup3\n      sload\n      dup3\n      sstore\n      swap2\n      0x01\n      add\n      swap2\n      swap1\n      0x01\n      add\n      swap1\n      jump(tag_338)\n    tag_339:\n    tag_335:\n      pop\n      swap1\n      pop\n      tag_340\n      swap2\n      swap1\n      tag_326\n      jump\t// in\n    tag_340:\n      pop\n      swap1\n      jump\t// out\n    tag_326:\n    tag_341:\n      dup1\n      dup3\n      gt\n      iszero\n      tag_342\n      jumpi\n      0x00\n      dup2\n      0x00\n      swap1\n      sstore\n      pop\n      0x01\n      add\n      jump(tag_341)\n    tag_342:\n      pop\n      swap1\n      jump\t// out\n        /* \"#utility.yul\":24:746   */\n    tag_344:\n        /* \"#utility.yul\":120:125   */\n      0x00\n        /* \"#utility.yul\":145:226   */\n      tag_346\n        /* \"#utility.yul\":161:225   */\n      tag_347\n        /* \"#utility.yul\":218:224   */\n      dup5\n        /* \"#utility.yul\":161:225   */\n      tag_348\n      jump\t// in\n    tag_347:\n        /* \"#utility.yul\":145:226   */\n      tag_349\n      jump\t// in\n    tag_346:\n        /* \"#utility.yul\":136:226   */\n      swap1\n      pop\n        /* \"#utility.yul\":246:251   */\n      dup1\n        /* \"#utility.yul\":275:281   */\n      dup4\n        /* \"#utility.yul\":268:273   */\n      dup3\n        /* \"#utility.yul\":261:282   */\n      mstore\n        /* \"#utility.yul\":309:313   */\n      0x20\n        /* \"#utility.yul\":302:307   */\n      dup3\n        /* \"#utility.yul\":298:314   */\n      add\n        /* \"#utility.yul\":291:314   */\n      swap1\n      pop\n        /* \"#utility.yul\":335:341   */\n      dup3\n        /* \"#utility.yul\":385:388   */\n      dup6\n        /* \"#utility.yul\":377:381   */\n      0x20\n        /* \"#utility.yul\":369:375   */\n      dup7\n        /* \"#utility.yul\":365:382   */\n      mul\n        /* \"#utility.yul\":360:363   */\n      dup3\n        /* \"#utility.yul\":356:383   */\n      add\n        /* \"#utility.yul\":353:389   */\n      gt\n        /* \"#utility.yul\":350:493   */\n      iszero\n      tag_350\n      jumpi\n        /* \"#utility.yul\":404:483   */\n      tag_351\n      tag_352\n      jump\t// in\n    tag_351:\n        /* \"#utility.yul\":350:493   */\n    tag_350:\n        /* \"#utility.yul\":517:518   */\n      0x00\n        /* \"#utility.yul\":502:740   */\n    tag_353:\n        /* \"#utility.yul\":527:533   */\n      dup6\n        /* \"#utility.yul\":524:525   */\n      dup2\n        /* \"#utility.yul\":521:534   */\n      lt\n        /* \"#utility.yul\":502:740   */\n      iszero\n      tag_355\n      jumpi\n        /* \"#utility.yul\":595:598   */\n      dup2\n        /* \"#utility.yul\":624:661   */\n      tag_356\n        /* \"#utility.yul\":657:660   */\n      dup9\n        /* \"#utility.yul\":645:655   */\n      dup3\n        /* \"#utility.yul\":624:661   */\n      tag_357\n      jump\t// in\n    tag_356:\n        /* \"#utility.yul\":619:622   */\n      dup5\n        /* \"#utility.yul\":612:662   */\n      mstore\n        /* \"#utility.yul\":691:695   */\n      0x20\n        /* \"#utility.yul\":686:689   */\n      dup5\n        /* \"#utility.yul\":682:696   */\n      add\n        /* \"#utility.yul\":675:696   */\n      swap4\n      pop\n        /* \"#utility.yul\":725:729   */\n      0x20\n        /* \"#utility.yul\":720:723   */\n      dup4\n        /* \"#utility.yul\":716:730   */\n      add\n        /* \"#utility.yul\":709:730   */\n      swap3\n      pop\n        /* \"#utility.yul\":562:740   */\n      pop\n        /* \"#utility.yul\":549:550   */\n      0x01\n        /* \"#utility.yul\":546:547   */\n      dup2\n        /* \"#utility.yul\":542:551   */\n      add\n        /* \"#utility.yul\":537:551   */\n      swap1\n      pop\n        /* \"#utility.yul\":502:740   */\n      jump(tag_353)\n    tag_355:\n        /* \"#utility.yul\":506:520   */\n      pop\n        /* \"#utility.yul\":126:746   */\n      pop\n      pop\n        /* \"#utility.yul\":24:746   */\n      swap4\n      swap3\n      pop\n      pop\n      pop\n      jump\t// out\n        /* \"#utility.yul\":768:1725   */\n    tag_358:\n        /* \"#utility.yul\":874:879   */\n      0x00\n        /* \"#utility.yul\":899:990   */\n      tag_360\n        /* \"#utility.yul\":915:989   */\n      tag_361\n        /* \"#utility.yul\":982:988   */\n      dup5\n        /* \"#utility.yul\":915:989   */\n      tag_362\n      jump\t// in\n    tag_361:\n        /* \"#utility.yul\":899:990   */\n      tag_349\n      jump\t// in\n    tag_360:\n        /* \"#utility.yul\":890:990   */\n      swap1\n      pop\n        /* \"#utility.yul\":1010:1015   */\n      dup1\n        /* \"#utility.yul\":1039:1045   */\n      dup4\n        /* \"#utility.yul\":1032:1037   */\n      dup3\n        /* \"#utility.yul\":1025:1046   */\n      mstore\n        /* \"#utility.yul\":1073:1077   */\n      0x20\n        /* \"#utility.yul\":1066:1071   */\n      dup3\n        /* \"#utility.yul\":1062:1078   */\n      add\n        /* \"#utility.yul\":1055:1078   */\n      swap1\n      pop\n        /* \"#utility.yul\":1099:1105   */\n      dup3\n        /* \"#utility.yul\":1149:1152   */\n      dup6\n        /* \"#utility.yul\":1141:1145   */\n      0x20\n        /* \"#utility.yul\":1133:1139   */\n      dup7\n        /* \"#utility.yul\":1129:1146   */\n      mul\n        /* \"#utility.yul\":1124:1127   */\n      dup3\n        /* \"#utility.yul\":1120:1147   */\n      add\n        /* \"#utility.yul\":1117:1153   */\n      gt\n        /* \"#utility.yul\":1114:1257   */\n      iszero\n      tag_363\n      jumpi\n        /* \"#utility.yul\":1168:1247   */\n      tag_364\n      tag_352\n      jump\t// in\n    tag_364:\n        /* \"#utility.yul\":1114:1257   */\n    tag_363:\n        /* \"#utility.yul\":1281:1282   */\n      0x00\n        /* \"#utility.yul\":1266:1719   */\n    tag_365:\n        /* \"#utility.yul\":1291:1297   */\n      dup6\n        /* \"#utility.yul\":1288:1289   */\n      dup2\n        /* \"#utility.yul\":1285:1298   */\n      lt\n        /* \"#utility.yul\":1266:1719   */\n      iszero\n      tag_367\n      jumpi\n        /* \"#utility.yul\":1373:1376   */\n      dup2\n        /* \"#utility.yul\":1360:1377   */\n      calldataload\n        /* \"#utility.yul\":1409:1427   */\n      0xffffffffffffffff\n        /* \"#utility.yul\":1396:1407   */\n      dup2\n        /* \"#utility.yul\":1393:1428   */\n      gt\n        /* \"#utility.yul\":1390:1512   */\n      iszero\n      tag_368\n      jumpi\n        /* \"#utility.yul\":1431:1510   */\n      tag_369\n      tag_370\n      jump\t// in\n    tag_369:\n        /* \"#utility.yul\":1390:1512   */\n    tag_368:\n        /* \"#utility.yul\":1555:1566   */\n      dup1\n        /* \"#utility.yul\":1547:1553   */\n      dup7\n        /* \"#utility.yul\":1543:1567   */\n      add\n        /* \"#utility.yul\":1593:1640   */\n      tag_371\n        /* \"#utility.yul\":1636:1639   */\n      dup10\n        /* \"#utility.yul\":1624:1634   */\n      dup3\n        /* \"#utility.yul\":1593:1640   */\n      tag_372\n      jump\t// in\n    tag_371:\n        /* \"#utility.yul\":1588:1591   */\n      dup6\n        /* \"#utility.yul\":1581:1641   */\n      mstore\n        /* \"#utility.yul\":1670:1674   */\n      0x20\n        /* \"#utility.yul\":1665:1668   */\n      dup6\n        /* \"#utility.yul\":1661:1675   */\n      add\n        /* \"#utility.yul\":1654:1675   */\n      swap5\n      pop\n        /* \"#utility.yul\":1704:1708   */\n      0x20\n        /* \"#utility.yul\":1699:1702   */\n      dup5\n        /* \"#utility.yul\":1695:1709   */\n      add\n        /* \"#utility.yul\":1688:1709   */\n      swap4\n      pop\n        /* \"#utility.yul\":1326:1719   */\n      pop\n      pop\n        /* \"#utility.yul\":1313:1314   */\n      0x01\n        /* \"#utility.yul\":1310:1311   */\n      dup2\n        /* \"#utility.yul\":1306:1315   */\n      add\n        /* \"#utility.yul\":1301:1315   */\n      swap1\n      pop\n        /* \"#utility.yul\":1266:1719   */\n      jump(tag_365)\n    tag_367:\n        /* \"#utility.yul\":1270:1284   */\n      pop\n        /* \"#utility.yul\":880:1725   */\n      pop\n      pop\n        /* \"#utility.yul\":768:1725   */\n      swap4\n      swap3\n      pop\n      pop\n      pop\n      jump\t// out\n        /* \"#utility.yul\":1748:2470   */\n    tag_373:\n        /* \"#utility.yul\":1844:1849   */\n      0x00\n        /* \"#utility.yul\":1869:1950   */\n      tag_375\n        /* \"#utility.yul\":1885:1949   */\n      tag_376\n        /* \"#utility.yul\":1942:1948   */\n      dup5\n        /* \"#utility.yul\":1885:1949   */\n      tag_377\n      jump\t// in\n    tag_376:\n        /* \"#utility.yul\":1869:1950   */\n      tag_349\n      jump\t// in\n    tag_375:\n        /* \"#utility.yul\":1860:1950   */\n      swap1\n      pop\n        /* \"#utility.yul\":1970:1975   */\n      dup1\n        /* \"#utility.yul\":1999:2005   */\n      dup4\n        /* \"#utility.yul\":1992:1997   */\n      dup3\n        /* \"#utility.yul\":1985:2006   */\n      mstore\n        /* \"#utility.yul\":2033:2037   */\n      0x20\n        /* \"#utility.yul\":2026:2031   */\n      dup3\n        /* \"#utility.yul\":2022:2038   */\n      add\n        /* \"#utility.yul\":2015:2038   */\n      swap1\n      pop\n        /* \"#utility.yul\":2059:2065   */\n      dup3\n        /* \"#utility.yul\":2109:2112   */\n      dup6\n        /* \"#utility.yul\":2101:2105   */\n      0x20\n        /* \"#utility.yul\":2093:2099   */\n      dup7\n        /* \"#utility.yul\":2089:2106   */\n      mul\n        /* \"#utility.yul\":2084:2087   */\n      dup3\n        /* \"#utility.yul\":2080:2107   */\n      add\n        /* \"#utility.yul\":2077:2113   */\n      gt\n        /* \"#utility.yul\":2074:2217   */\n      iszero\n      tag_378\n      jumpi\n        /* \"#utility.yul\":2128:2207   */\n      tag_379\n      tag_352\n      jump\t// in\n    tag_379:\n        /* \"#utility.yul\":2074:2217   */\n    tag_378:\n        /* \"#utility.yul\":2241:2242   */\n      0x00\n        /* \"#utility.yul\":2226:2464   */\n    tag_380:\n        /* \"#utility.yul\":2251:2257   */\n      dup6\n        /* \"#utility.yul\":2248:2249   */\n      dup2\n        /* \"#utility.yul\":2245:2258   */\n      lt\n        /* \"#utility.yul\":2226:2464   */\n      iszero\n      tag_382\n      jumpi\n        /* \"#utility.yul\":2319:2322   */\n      dup2\n        /* \"#utility.yul\":2348:2385   */\n      tag_383\n        /* \"#utility.yul\":2381:2384   */\n      dup9\n        /* \"#utility.yul\":2369:2379   */\n      dup3\n        /* \"#utility.yul\":2348:2385   */\n      tag_384\n      jump\t// in\n    tag_383:\n        /* \"#utility.yul\":2343:2346   */\n      dup5\n        /* \"#utility.yul\":2336:2386   */\n      mstore\n        /* \"#utility.yul\":2415:2419   */\n      0x20\n        /* \"#utility.yul\":2410:2413   */\n      dup5\n        /* \"#utility.yul\":2406:2420   */\n      add\n        /* \"#utility.yul\":2399:2420   */\n      swap4\n      pop\n        /* \"#utility.yul\":2449:2453   */\n      0x20\n        /* \"#utility.yul\":2444:2447   */\n      dup4\n        /* \"#utility.yul\":2440:2454   */\n      add\n        /* \"#utility.yul\":2433:2454   */\n      swap3\n      pop\n        /* \"#utility.yul\":2286:2464   */\n      pop\n        /* \"#utility.yul\":2273:2274   */\n      0x01\n        /* \"#utility.yul\":2270:2271   */\n      dup2\n        /* \"#utility.yul\":2266:2275   */\n      add\n        /* \"#utility.yul\":2261:2275   */\n      swap1\n      pop\n        /* \"#utility.yul\":2226:2464   */\n      jump(tag_380)\n    tag_382:\n        /* \"#utility.yul\":2230:2244   */\n      pop\n        /* \"#utility.yul\":1850:2470   */\n      pop\n      pop\n        /* \"#utility.yul\":1748:2470   */\n      swap4\n      swap3\n      pop\n      pop\n      pop\n      jump\t// out\n        /* \"#utility.yul\":2476:2888   */\n    tag_385:\n        /* \"#utility.yul\":2554:2559   */\n      0x00\n        /* \"#utility.yul\":2579:2645   */\n      tag_387\n        /* \"#utility.yul\":2595:2644   */\n      tag_388\n        /* \"#utility.yul\":2637:2643   */\n      dup5\n        /* \"#utility.yul\":2595:2644   */\n      tag_389\n      jump\t// in\n    tag_388:\n        /* \"#utility.yul\":2579:2645   */\n      tag_349\n      jump\t// in\n    tag_387:\n        /* \"#utility.yul\":2570:2645   */\n      swap1\n      pop\n        /* \"#utility.yul\":2668:2674   */\n      dup3\n        /* \"#utility.yul\":2661:2666   */\n      dup2\n        /* \"#utility.yul\":2654:2675   */\n      mstore\n        /* \"#utility.yul\":2706:2710   */\n      0x20\n        /* \"#utility.yul\":2699:2704   */\n      dup2\n        /* \"#utility.yul\":2695:2711   */\n      add\n        /* \"#utility.yul\":2744:2747   */\n      dup5\n        /* \"#utility.yul\":2735:2741   */\n      dup5\n        /* \"#utility.yul\":2730:2733   */\n      dup5\n        /* \"#utility.yul\":2726:2742   */\n      add\n        /* \"#utility.yul\":2723:2748   */\n      gt\n        /* \"#utility.yul\":2720:2832   */\n      iszero\n      tag_390\n      jumpi\n        /* \"#utility.yul\":2751:2830   */\n      tag_391\n      tag_392\n      jump\t// in\n    tag_391:\n        /* \"#utility.yul\":2720:2832   */\n    tag_390:\n        /* \"#utility.yul\":2841:2882   */\n      tag_393\n        /* \"#utility.yul\":2875:2881   */\n      dup5\n        /* \"#utility.yul\":2870:2873   */\n      dup3\n        /* \"#utility.yul\":2865:2868   */\n      dup6\n        /* \"#utility.yul\":2841:2882   */\n      tag_394\n      jump\t// in\n    tag_393:\n        /* \"#utility.yul\":2560:2888   */\n      pop\n        /* \"#utility.yul\":2476:2888   */\n      swap4\n      swap3\n      pop\n      pop\n      pop\n      jump\t// out\n        /* \"#utility.yul\":2894:3033   */\n    tag_357:\n        /* \"#utility.yul\":2940:2945   */\n      0x00\n        /* \"#utility.yul\":2978:2984   */\n      dup2\n        /* \"#utility.yul\":2965:2985   */\n      calldataload\n        /* \"#utility.yul\":2956:2985   */\n      swap1\n      pop\n        /* \"#utility.yul\":2994:3027   */\n      tag_396\n        /* \"#utility.yul\":3021:3026   */\n      dup2\n        /* \"#utility.yul\":2994:3027   */\n      tag_397\n      jump\t// in\n    tag_396:\n        /* \"#utility.yul\":2894:3033   */\n      swap3\n      swap2\n      pop\n      pop\n      jump\t// out\n        /* \"#utility.yul\":3056:3426   */\n    tag_398:\n        /* \"#utility.yul\":3127:3132   */\n      0x00\n        /* \"#utility.yul\":3176:3179   */\n      dup3\n        /* \"#utility.yul\":3169:3173   */\n      0x1f\n        /* \"#utility.yul\":3161:3167   */\n      dup4\n        /* \"#utility.yul\":3157:3174   */\n      add\n        /* \"#utility.yul\":3153:3180   */\n      slt\n        /* \"#utility.yul\":3143:3265   */\n      tag_400\n      jumpi\n        /* \"#utility.yul\":3184:3263   */\n      tag_401\n      tag_370\n      jump\t// in\n    tag_401:\n        /* \"#utility.yul\":3143:3265   */\n    tag_400:\n        /* \"#utility.yul\":3301:3307   */\n      dup2\n        /* \"#utility.yul\":3288:3308   */\n      calldataload\n        /* \"#utility.yul\":3326:3420   */\n      tag_402\n        /* \"#utility.yul\":3416:3419   */\n      dup5\n        /* \"#utility.yul\":3408:3414   */\n      dup3\n        /* \"#utility.yul\":3401:3405   */\n      0x20\n        /* \"#utility.yul\":3393:3399   */\n      dup7\n        /* \"#utility.yul\":3389:3406   */\n      add\n        /* \"#utility.yul\":3326:3420   */\n      tag_344\n      jump\t// in\n    tag_402:\n        /* \"#utility.yul\":3317:3420   */\n      swap2\n      pop\n        /* \"#utility.yul\":3133:3426   */\n      pop\n        /* \"#utility.yul\":3056:3426   */\n      swap3\n      swap2\n      pop\n      pop\n      jump\t// out\n        /* \"#utility.yul\":3448:4028   */\n    tag_403:\n        /* \"#utility.yul\":3533:3541   */\n      0x00\n        /* \"#utility.yul\":3543:3549   */\n      dup1\n        /* \"#utility.yul\":3593:3596   */\n      dup4\n        /* \"#utility.yul\":3586:3590   */\n      0x1f\n        /* \"#utility.yul\":3578:3584   */\n      dup5\n        /* \"#utility.yul\":3574:3591   */\n      add\n        /* \"#utility.yul\":3570:3597   */\n      slt\n        /* \"#utility.yul\":3560:3682   */\n      tag_405\n      jumpi\n        /* \"#utility.yul\":3601:3680   */\n      tag_406\n      tag_370\n      jump\t// in\n    tag_406:\n        /* \"#utility.yul\":3560:3682   */\n    tag_405:\n        /* \"#utility.yul\":3714:3720   */\n      dup3\n        /* \"#utility.yul\":3701:3721   */\n      calldataload\n        /* \"#utility.yul\":3691:3721   */\n      swap1\n      pop\n        /* \"#utility.yul\":3744:3762   */\n      0xffffffffffffffff\n        /* \"#utility.yul\":3736:3742   */\n      dup2\n        /* \"#utility.yul\":3733:3763   */\n      gt\n        /* \"#utility.yul\":3730:3847   */\n      iszero\n      tag_407\n      jumpi\n        /* \"#utility.yul\":3766:3845   */\n      tag_408\n      tag_409\n      jump\t// in\n    tag_408:\n        /* \"#utility.yul\":3730:3847   */\n    tag_407:\n        /* \"#utility.yul\":3880:3884   */\n      0x20\n        /* \"#utility.yul\":3872:3878   */\n      dup4\n        /* \"#utility.yul\":3868:3885   */\n      add\n        /* \"#utility.yul\":3856:3885   */\n      swap2\n      pop\n        /* \"#utility.yul\":3934:3937   */\n      dup4\n        /* \"#utility.yul\":3926:3930   */\n      0x20\n        /* \"#utility.yul\":3918:3924   */\n      dup3\n        /* \"#utility.yul\":3914:3931   */\n      mul\n        /* \"#utility.yul\":3904:3912   */\n      dup4\n        /* \"#utility.yul\":3900:3932   */\n      add\n        /* \"#utility.yul\":3897:3938   */\n      gt\n        /* \"#utility.yul\":3894:4022   */\n      iszero\n      tag_410\n      jumpi\n        /* \"#utility.yul\":3941:4020   */\n      tag_411\n      tag_352\n      jump\t// in\n    tag_411:\n        /* \"#utility.yul\":3894:4022   */\n    tag_410:\n        /* \"#utility.yul\":3448:4028   */\n      swap3\n      pop\n      swap3\n      swap1\n      pop\n      jump\t// out\n        /* \"#utility.yul\":4050:4440   */\n    tag_412:\n        /* \"#utility.yul\":4131:4136   */\n      0x00\n        /* \"#utility.yul\":4180:4183   */\n      dup3\n        /* \"#utility.yul\":4173:4177   */\n      0x1f\n        /* \"#utility.yul\":4165:4171   */\n      dup4\n        /* \"#utility.yul\":4161:4178   */\n      add\n        /* \"#utility.yul\":4157:4184   */\n      slt\n        /* \"#utility.yul\":4147:4269   */\n      tag_414\n      jumpi\n        /* \"#utility.yul\":4188:4267   */\n      tag_415\n      tag_370\n      jump\t// in\n    tag_415:\n        /* \"#utility.yul\":4147:4269   */\n    tag_414:\n        /* \"#utility.yul\":4305:4311   */\n      dup2\n        /* \"#utility.yul\":4292:4312   */\n      calldataload\n        /* \"#utility.yul\":4330:4434   */\n      tag_416\n        /* \"#utility.yul\":4430:4433   */\n      dup5\n        /* \"#utility.yul\":4422:4428   */\n      dup3\n        /* \"#utility.yul\":4415:4419   */\n      0x20\n        /* \"#utility.yul\":4407:4413   */\n      dup7\n        /* \"#utility.yul\":4403:4420   */\n      add\n        /* \"#utility.yul\":4330:4434   */\n      tag_358\n      jump\t// in\n    tag_416:\n        /* \"#utility.yul\":4321:4434   */\n      swap2\n      pop\n        /* \"#utility.yul\":4137:4440   */\n      pop\n        /* \"#utility.yul\":4050:4440   */\n      swap3\n      swap2\n      pop\n      pop\n      jump\t// out\n        /* \"#utility.yul\":4463:4833   */\n    tag_417:\n        /* \"#utility.yul\":4534:4539   */\n      0x00\n        /* \"#utility.yul\":4583:4586   */\n      dup3\n        /* \"#utility.yul\":4576:4580   */\n      0x1f\n        /* \"#utility.yul\":4568:4574   */\n      dup4\n        /* \"#utility.yul\":4564:4581   */\n      add\n        /* \"#utility.yul\":4560:4587   */\n      slt\n        /* \"#utility.yul\":4550:4672   */\n      tag_419\n      jumpi\n        /* \"#utility.yul\":4591:4670   */\n      tag_420\n      tag_370\n      jump\t// in\n    tag_420:\n        /* \"#utility.yul\":4550:4672   */\n    tag_419:\n        /* \"#utility.yul\":4708:4714   */\n      dup2\n        /* \"#utility.yul\":4695:4715   */\n      calldataload\n        /* \"#utility.yul\":4733:4827   */\n      tag_421\n        /* \"#utility.yul\":4823:4826   */\n      dup5\n        /* \"#utility.yul\":4815:4821   */\n      dup3\n        /* \"#utility.yul\":4808:4812   */\n      0x20\n        /* \"#utility.yul\":4800:4806   */\n      dup7\n        /* \"#utility.yul\":4796:4813   */\n      add\n        /* \"#utility.yul\":4733:4827   */\n      tag_373\n      jump\t// in\n    tag_421:\n        /* \"#utility.yul\":4724:4827   */\n      swap2\n      pop\n        /* \"#utility.yul\":4540:4833   */\n      pop\n        /* \"#utility.yul\":4463:4833   */\n      swap3\n      swap2\n      pop\n      pop\n      jump\t// out\n        /* \"#utility.yul\":4853:5193   */\n    tag_372:\n        /* \"#utility.yul\":4909:4914   */\n      0x00\n        /* \"#utility.yul\":4958:4961   */\n      dup3\n        /* \"#utility.yul\":4951:4955   */\n      0x1f\n        /* \"#utility.yul\":4943:4949   */\n      dup4\n        /* \"#utility.yul\":4939:4956   */\n      add\n        /* \"#utility.yul\":4935:4962   */\n      slt\n        /* \"#utility.yul\":4925:5047   */\n      tag_423\n      jumpi\n        /* \"#utility.yul\":4966:5045   */\n      tag_424\n      tag_370\n      jump\t// in\n    tag_424:\n        /* \"#utility.yul\":4925:5047   */\n    tag_423:\n        /* \"#utility.yul\":5083:5089   */\n      dup2\n        /* \"#utility.yul\":5070:5090   */\n      calldataload\n        /* \"#utility.yul\":5108:5187   */\n      tag_425\n        /* \"#utility.yul\":5183:5186   */\n      dup5\n        /* \"#utility.yul\":5175:5181   */\n      dup3\n        /* \"#utility.yul\":5168:5172   */\n      0x20\n        /* \"#utility.yul\":5160:5166   */\n      dup7\n        /* \"#utility.yul\":5156:5173   */\n      add\n        /* \"#utility.yul\":5108:5187   */\n      tag_385\n      jump\t// in\n    tag_425:\n        /* \"#utility.yul\":5099:5187   */\n      swap2\n      pop\n        /* \"#utility.yul\":4915:5193   */\n      pop\n        /* \"#utility.yul\":4853:5193   */\n      swap3\n      swap2\n      pop\n      pop\n      jump\t// out\n        /* \"#utility.yul\":5199:5338   */\n    tag_384:\n        /* \"#utility.yul\":5245:5250   */\n      0x00\n        /* \"#utility.yul\":5283:5289   */\n      dup2\n        /* \"#utility.yul\":5270:5290   */\n      calldataload\n        /* \"#utility.yul\":5261:5290   */\n      swap1\n      pop\n        /* \"#utility.yul\":5299:5332   */\n      tag_427\n        /* \"#utility.yul\":5326:5331   */\n      dup2\n        /* \"#utility.yul\":5299:5332   */\n      tag_428\n      jump\t// in\n    tag_427:\n        /* \"#utility.yul\":5199:5338   */\n      swap3\n      swap2\n      pop\n      pop\n      jump\t// out\n        /* \"#utility.yul\":5344:5479   */\n    tag_429:\n        /* \"#utility.yul\":5388:5393   */\n      0x00\n        /* \"#utility.yul\":5426:5432   */\n      dup2\n        /* \"#utility.yul\":5413:5433   */\n      calldataload\n        /* \"#utility.yul\":5404:5433   */\n      swap1\n      pop\n        /* \"#utility.yul\":5442:5473   */\n      tag_431\n        /* \"#utility.yul\":5467:5472   */\n      dup2\n        /* \"#utility.yul\":5442:5473   */\n      tag_432\n      jump\t// in\n    tag_431:\n        /* \"#utility.yul\":5344:5479   */\n      swap3\n      swap2\n      pop\n      pop\n      jump\t// out\n        /* \"#utility.yul\":5485:5814   */\n    tag_44:\n        /* \"#utility.yul\":5544:5550   */\n      0x00\n        /* \"#utility.yul\":5593:5595   */\n      0x20\n        /* \"#utility.yul\":5581:5590   */\n      dup3\n        /* \"#utility.yul\":5572:5579   */\n      dup5\n        /* \"#utility.yul\":5568:5591   */\n      sub\n        /* \"#utility.yul\":5564:5596   */\n      slt\n        /* \"#utility.yul\":5561:5680   */\n      iszero\n      tag_434\n      jumpi\n        /* \"#utility.yul\":5599:5678   */\n      tag_435\n      tag_436\n      jump\t// in\n    tag_435:\n        /* \"#utility.yul\":5561:5680   */\n    tag_434:\n        /* \"#utility.yul\":5719:5720   */\n      0x00\n        /* \"#utility.yul\":5744:5797   */\n      tag_437\n        /* \"#utility.yul\":5789:5796   */\n      dup5\n        /* \"#utility.yul\":5780:5786   */\n      dup3\n        /* \"#utility.yul\":5769:5778   */\n      dup6\n        /* \"#utility.yul\":5765:5787   */\n      add\n        /* \"#utility.yul\":5744:5797   */\n      tag_357\n      jump\t// in\n    tag_437:\n        /* \"#utility.yul\":5734:5797   */\n      swap2\n      pop\n        /* \"#utility.yul\":5690:5807   */\n      pop\n        /* \"#utility.yul\":5485:5814   */\n      swap3\n      swap2\n      pop\n      pop\n      jump\t// out\n        /* \"#utility.yul\":5820:6294   */\n    tag_63:\n        /* \"#utility.yul\":5888:5894   */\n      0x00\n        /* \"#utility.yul\":5896:5902   */\n      dup1\n        /* \"#utility.yul\":5945:5947   */\n      0x40\n        /* \"#utility.yul\":5933:5942   */\n      dup4\n        /* \"#utility.yul\":5924:5931   */\n      dup6\n        /* \"#utility.yul\":5920:5943   */\n      sub\n        /* \"#utility.yul\":5916:5948   */\n      slt\n        /* \"#utility.yul\":5913:6032   */\n      iszero\n      tag_439\n      jumpi\n        /* \"#utility.yul\":5951:6030   */\n      tag_440\n      tag_436\n      jump\t// in\n    tag_440:\n        /* \"#utility.yul\":5913:6032   */\n    tag_439:\n        /* \"#utility.yul\":6071:6072   */\n      0x00\n        /* \"#utility.yul\":6096:6149   */\n      tag_441\n        /* \"#utility.yul\":6141:6148   */\n      dup6\n        /* \"#utility.yul\":6132:6138   */\n      dup3\n        /* \"#utility.yul\":6121:6130   */\n      dup7\n        /* \"#utility.yul\":6117:6139   */\n      add\n        /* \"#utility.yul\":6096:6149   */\n      tag_357\n      jump\t// in\n    tag_441:\n        /* \"#utility.yul\":6086:6149   */\n      swap3\n      pop\n        /* \"#utility.yul\":6042:6159   */\n      pop\n        /* \"#utility.yul\":6198:6200   */\n      0x20\n        /* \"#utility.yul\":6224:6277   */\n      tag_442\n        /* \"#utility.yul\":6269:6276   */\n      dup6\n        /* \"#utility.yul\":6260:6266   */\n      dup3\n        /* \"#utility.yul\":6249:6258   */\n      dup7\n        /* \"#utility.yul\":6245:6267   */\n      add\n        /* \"#utility.yul\":6224:6277   */\n      tag_384\n      jump\t// in\n    tag_442:\n        /* \"#utility.yul\":6214:6277   */\n      swap2\n      pop\n        /* \"#utility.yul\":6169:6287   */\n      pop\n        /* \"#utility.yul\":5820:6294   */\n      swap3\n      pop\n      swap3\n      swap1\n      pop\n      jump\t// out\n        /* \"#utility.yul\":6300:6629   */\n    tag_18:\n        /* \"#utility.yul\":6359:6365   */\n      0x00\n        /* \"#utility.yul\":6408:6410   */\n      0x20\n        /* \"#utility.yul\":6396:6405   */\n      dup3\n        /* \"#utility.yul\":6387:6394   */\n      dup5\n        /* \"#utility.yul\":6383:6406   */\n      sub\n        /* \"#utility.yul\":6379:6411   */\n      slt\n        /* \"#utility.yul\":6376:6495   */\n      iszero\n      tag_444\n      jumpi\n        /* \"#utility.yul\":6414:6493   */\n      tag_445\n      tag_436\n      jump\t// in\n    tag_445:\n        /* \"#utility.yul\":6376:6495   */\n    tag_444:\n        /* \"#utility.yul\":6534:6535   */\n      0x00\n        /* \"#utility.yul\":6559:6612   */\n      tag_446\n        /* \"#utility.yul\":6604:6611   */\n      dup5\n        /* \"#utility.yul\":6595:6601   */\n      dup3\n        /* \"#utility.yul\":6584:6593   */\n      dup6\n        /* \"#utility.yul\":6580:6602   */\n      add\n        /* \"#utility.yul\":6559:6612   */\n      tag_384\n      jump\t// in\n    tag_446:\n        /* \"#utility.yul\":6549:6612   */\n      swap2\n      pop\n        /* \"#utility.yul\":6505:6622   */\n      pop\n        /* \"#utility.yul\":6300:6629   */\n      swap3\n      swap2\n      pop\n      pop\n      jump\t// out\n        /* \"#utility.yul\":6635:7840   */\n    tag_40:\n        /* \"#utility.yul\":6781:6787   */\n      0x00\n        /* \"#utility.yul\":6789:6795   */\n      dup1\n        /* \"#utility.yul\":6797:6803   */\n      0x00\n        /* \"#utility.yul\":6805:6811   */\n      dup1\n        /* \"#utility.yul\":6854:6857   */\n      0x80\n        /* \"#utility.yul\":6842:6851   */\n      dup6\n        /* \"#utility.yul\":6833:6840   */\n      dup8\n        /* \"#utility.yul\":6829:6852   */\n      sub\n        /* \"#utility.yul\":6825:6858   */\n      slt\n        /* \"#utility.yul\":6822:6942   */\n      iszero\n      tag_448\n      jumpi\n        /* \"#utility.yul\":6861:6940   */\n      tag_449\n      tag_436\n      jump\t// in\n    tag_449:\n        /* \"#utility.yul\":6822:6942   */\n    tag_448:\n        /* \"#utility.yul\":6981:6982   */\n      0x00\n        /* \"#utility.yul\":7006:7059   */\n      tag_450\n        /* \"#utility.yul\":7051:7058   */\n      dup8\n        /* \"#utility.yul\":7042:7048   */\n      dup3\n        /* \"#utility.yul\":7031:7040   */\n      dup9\n        /* \"#utility.yul\":7027:7049   */\n      add\n        /* \"#utility.yul\":7006:7059   */\n      tag_384\n      jump\t// in\n    tag_450:\n        /* \"#utility.yul\":6996:7059   */\n      swap5\n      pop\n        /* \"#utility.yul\":6952:7069   */\n      pop\n        /* \"#utility.yul\":7108:7110   */\n      0x20\n        /* \"#utility.yul\":7134:7187   */\n      tag_451\n        /* \"#utility.yul\":7179:7186   */\n      dup8\n        /* \"#utility.yul\":7170:7176   */\n      dup3\n        /* \"#utility.yul\":7159:7168   */\n      dup9\n        /* \"#utility.yul\":7155:7177   */\n      add\n        /* \"#utility.yul\":7134:7187   */\n      tag_357\n      jump\t// in\n    tag_451:\n        /* \"#utility.yul\":7124:7187   */\n      swap4\n      pop\n        /* \"#utility.yul\":7079:7197   */\n      pop\n        /* \"#utility.yul\":7264:7266   */\n      0x40\n        /* \"#utility.yul\":7253:7262   */\n      dup6\n        /* \"#utility.yul\":7249:7267   */\n      add\n        /* \"#utility.yul\":7236:7268   */\n      calldataload\n        /* \"#utility.yul\":7295:7313   */\n      0xffffffffffffffff\n        /* \"#utility.yul\":7287:7293   */\n      dup2\n        /* \"#utility.yul\":7284:7314   */\n      gt\n        /* \"#utility.yul\":7281:7398   */\n      iszero\n      tag_452\n      jumpi\n        /* \"#utility.yul\":7317:7396   */\n      tag_453\n      tag_454\n      jump\t// in\n    tag_453:\n        /* \"#utility.yul\":7281:7398   */\n    tag_452:\n        /* \"#utility.yul\":7422:7510   */\n      tag_455\n        /* \"#utility.yul\":7502:7509   */\n      dup8\n        /* \"#utility.yul\":7493:7499   */\n      dup3\n        /* \"#utility.yul\":7482:7491   */\n      dup9\n        /* \"#utility.yul\":7478:7500   */\n      add\n        /* \"#utility.yul\":7422:7510   */\n      tag_412\n      jump\t// in\n    tag_455:\n        /* \"#utility.yul\":7412:7510   */\n      swap3\n      pop\n        /* \"#utility.yul\":7207:7520   */\n      pop\n        /* \"#utility.yul\":7587:7589   */\n      0x60\n        /* \"#utility.yul\":7576:7585   */\n      dup6\n        /* \"#utility.yul\":7572:7590   */\n      add\n        /* \"#utility.yul\":7559:7591   */\n      calldataload\n        /* \"#utility.yul\":7618:7636   */\n      0xffffffffffffffff\n        /* \"#utility.yul\":7610:7616   */\n      dup2\n        /* \"#utility.yul\":7607:7637   */\n      gt\n        /* \"#utility.yul\":7604:7721   */\n      iszero\n      tag_456\n      jumpi\n        /* \"#utility.yul\":7640:7719   */\n      tag_457\n      tag_454\n      jump\t// in\n    tag_457:\n        /* \"#utility.yul\":7604:7721   */\n    tag_456:\n        /* \"#utility.yul\":7745:7823   */\n      tag_458\n        /* \"#utility.yul\":7815:7822   */\n      dup8\n        /* \"#utility.yul\":7806:7812   */\n      dup3\n        /* \"#utility.yul\":7795:7804   */\n      dup9\n        /* \"#utility.yul\":7791:7813   */\n      add\n        /* \"#utility.yul\":7745:7823   */\n      tag_417\n      jump\t// in\n    tag_458:\n        /* \"#utility.yul\":7735:7823   */\n      swap2\n      pop\n        /* \"#utility.yul\":7530:7833   */\n      pop\n        /* \"#utility.yul\":6635:7840   */\n      swap3\n      swap6\n      swap2\n      swap5\n      pop\n      swap3\n      pop\n      jump\t// out\n        /* \"#utility.yul\":7846:8675   */\n    tag_49:\n        /* \"#utility.yul\":7948:7954   */\n      0x00\n        /* \"#utility.yul\":7956:7962   */\n      dup1\n        /* \"#utility.yul\":7964:7970   */\n      0x00\n        /* \"#utility.yul\":8013:8015   */\n      0x60\n        /* \"#utility.yul\":8001:8010   */\n      dup5\n        /* \"#utility.yul\":7992:7999   */\n      dup7\n        /* \"#utility.yul\":7988:8011   */\n      sub\n        /* \"#utility.yul\":7984:8016   */\n      slt\n        /* \"#utility.yul\":7981:8100   */\n      iszero\n      tag_460\n      jumpi\n        /* \"#utility.yul\":8019:8098   */\n      tag_461\n      tag_436\n      jump\t// in\n    tag_461:\n        /* \"#utility.yul\":7981:8100   */\n    tag_460:\n        /* \"#utility.yul\":8139:8140   */\n      0x00\n        /* \"#utility.yul\":8164:8217   */\n      tag_462\n        /* \"#utility.yul\":8209:8216   */\n      dup7\n        /* \"#utility.yul\":8200:8206   */\n      dup3\n        /* \"#utility.yul\":8189:8198   */\n      dup8\n        /* \"#utility.yul\":8185:8207   */\n      add\n        /* \"#utility.yul\":8164:8217   */\n      tag_384\n      jump\t// in\n    tag_462:\n        /* \"#utility.yul\":8154:8217   */\n      swap4\n      pop\n        /* \"#utility.yul\":8110:8227   */\n      pop\n        /* \"#utility.yul\":8294:8296   */\n      0x20\n        /* \"#utility.yul\":8283:8292   */\n      dup5\n        /* \"#utility.yul\":8279:8297   */\n      add\n        /* \"#utility.yul\":8266:8298   */\n      calldataload\n        /* \"#utility.yul\":8325:8343   */\n      0xffffffffffffffff\n        /* \"#utility.yul\":8317:8323   */\n      dup2\n        /* \"#utility.yul\":8314:8344   */\n      gt\n        /* \"#utility.yul\":8311:8428   */\n      iszero\n      tag_463\n      jumpi\n        /* \"#utility.yul\":8347:8426   */\n      tag_464\n      tag_454\n      jump\t// in\n    tag_464:\n        /* \"#utility.yul\":8311:8428   */\n    tag_463:\n        /* \"#utility.yul\":8452:8530   */\n      tag_465\n        /* \"#utility.yul\":8522:8529   */\n      dup7\n        /* \"#utility.yul\":8513:8519   */\n      dup3\n        /* \"#utility.yul\":8502:8511   */\n      dup8\n        /* \"#utility.yul\":8498:8520   */\n      add\n        /* \"#utility.yul\":8452:8530   */\n      tag_398\n      jump\t// in\n    tag_465:\n        /* \"#utility.yul\":8442:8530   */\n      swap3\n      pop\n        /* \"#utility.yul\":8237:8540   */\n      pop\n        /* \"#utility.yul\":8579:8581   */\n      0x40\n        /* \"#utility.yul\":8605:8658   */\n      tag_466\n        /* \"#utility.yul\":8650:8657   */\n      dup7\n        /* \"#utility.yul\":8641:8647   */\n      dup3\n        /* \"#utility.yul\":8630:8639   */\n      dup8\n        /* \"#utility.yul\":8626:8648   */\n      add\n        /* \"#utility.yul\":8605:8658   */\n      tag_384\n      jump\t// in\n    tag_466:\n        /* \"#utility.yul\":8595:8658   */\n      swap2\n      pop\n        /* \"#utility.yul\":8550:8668   */\n      pop\n        /* \"#utility.yul\":7846:8675   */\n      swap3\n      pop\n      swap3\n      pop\n      swap3\n      jump\t// out\n        /* \"#utility.yul\":8681:10670   */\n    tag_36:\n        /* \"#utility.yul\":8875:8881   */\n      0x00\n        /* \"#utility.yul\":8883:8889   */\n      dup1\n        /* \"#utility.yul\":8891:8897   */\n      0x00\n        /* \"#utility.yul\":8899:8905   */\n      dup1\n        /* \"#utility.yul\":8907:8913   */\n      0x00\n        /* \"#utility.yul\":8915:8921   */\n      dup1\n        /* \"#utility.yul\":8923:8929   */\n      0x00\n        /* \"#utility.yul\":8931:8937   */\n      dup1\n        /* \"#utility.yul\":8939:8945   */\n      0x00\n        /* \"#utility.yul\":8988:8991   */\n      0x0100\n        /* \"#utility.yul\":8976:8985   */\n      dup11\n        /* \"#utility.yul\":8967:8974   */\n      dup13\n        /* \"#utility.yul\":8963:8986   */\n      sub\n        /* \"#utility.yul\":8959:8992   */\n      slt\n        /* \"#utility.yul\":8956:9076   */\n      iszero\n      tag_468\n      jumpi\n        /* \"#utility.yul\":8995:9074   */\n      tag_469\n      tag_436\n      jump\t// in\n    tag_469:\n        /* \"#utility.yul\":8956:9076   */\n    tag_468:\n        /* \"#utility.yul\":9115:9116   */\n      0x00\n        /* \"#utility.yul\":9140:9191   */\n      tag_470\n        /* \"#utility.yul\":9183:9190   */\n      dup13\n        /* \"#utility.yul\":9174:9180   */\n      dup3\n        /* \"#utility.yul\":9163:9172   */\n      dup14\n        /* \"#utility.yul\":9159:9181   */\n      add\n        /* \"#utility.yul\":9140:9191   */\n      tag_429\n      jump\t// in\n    tag_470:\n        /* \"#utility.yul\":9130:9191   */\n      swap10\n      pop\n        /* \"#utility.yul\":9086:9201   */\n      pop\n        /* \"#utility.yul\":9268:9270   */\n      0x20\n        /* \"#utility.yul\":9257:9266   */\n      dup11\n        /* \"#utility.yul\":9253:9271   */\n      add\n        /* \"#utility.yul\":9240:9272   */\n      calldataload\n        /* \"#utility.yul\":9299:9317   */\n      0xffffffffffffffff\n        /* \"#utility.yul\":9291:9297   */\n      dup2\n        /* \"#utility.yul\":9288:9318   */\n      gt\n        /* \"#utility.yul\":9285:9402   */\n      iszero\n      tag_471\n      jumpi\n        /* \"#utility.yul\":9321:9400   */\n      tag_472\n      tag_454\n      jump\t// in\n    tag_472:\n        /* \"#utility.yul\":9285:9402   */\n    tag_471:\n        /* \"#utility.yul\":9426:9504   */\n      tag_473\n        /* \"#utility.yul\":9496:9503   */\n      dup13\n        /* \"#utility.yul\":9487:9493   */\n      dup3\n        /* \"#utility.yul\":9476:9485   */\n      dup14\n        /* \"#utility.yul\":9472:9494   */\n      add\n        /* \"#utility.yul\":9426:9504   */\n      tag_398\n      jump\t// in\n    tag_473:\n        /* \"#utility.yul\":9416:9504   */\n      swap9\n      pop\n        /* \"#utility.yul\":9211:9514   */\n      pop\n        /* \"#utility.yul\":9553:9555   */\n      0x40\n        /* \"#utility.yul\":9579:9632   */\n      tag_474\n        /* \"#utility.yul\":9624:9631   */\n      dup13\n        /* \"#utility.yul\":9615:9621   */\n      dup3\n        /* \"#utility.yul\":9604:9613   */\n      dup14\n        /* \"#utility.yul\":9600:9622   */\n      add\n        /* \"#utility.yul\":9579:9632   */\n      tag_357\n      jump\t// in\n    tag_474:\n        /* \"#utility.yul\":9569:9632   */\n      swap8\n      pop\n        /* \"#utility.yul\":9524:9642   */\n      pop\n        /* \"#utility.yul\":9681:9683   */\n      0x60\n        /* \"#utility.yul\":9707:9760   */\n      tag_475\n        /* \"#utility.yul\":9752:9759   */\n      dup13\n        /* \"#utility.yul\":9743:9749   */\n      dup3\n        /* \"#utility.yul\":9732:9741   */\n      dup14\n        /* \"#utility.yul\":9728:9750   */\n      add\n        /* \"#utility.yul\":9707:9760   */\n      tag_384\n      jump\t// in\n    tag_475:\n        /* \"#utility.yul\":9697:9760   */\n      swap7\n      pop\n        /* \"#utility.yul\":9652:9770   */\n      pop\n        /* \"#utility.yul\":9809:9812   */\n      0x80\n        /* \"#utility.yul\":9836:9889   */\n      tag_476\n        /* \"#utility.yul\":9881:9888   */\n      dup13\n        /* \"#utility.yul\":9872:9878   */\n      dup3\n        /* \"#utility.yul\":9861:9870   */\n      dup14\n        /* \"#utility.yul\":9857:9879   */\n      add\n        /* \"#utility.yul\":9836:9889   */\n      tag_384\n      jump\t// in\n    tag_476:\n        /* \"#utility.yul\":9826:9889   */\n      swap6\n      pop\n        /* \"#utility.yul\":9780:9899   */\n      pop\n        /* \"#utility.yul\":9966:9969   */\n      0xa0\n        /* \"#utility.yul\":9955:9964   */\n      dup11\n        /* \"#utility.yul\":9951:9970   */\n      add\n        /* \"#utility.yul\":9938:9971   */\n      calldataload\n        /* \"#utility.yul\":9998:10016   */\n      0xffffffffffffffff\n        /* \"#utility.yul\":9990:9996   */\n      dup2\n        /* \"#utility.yul\":9987:10017   */\n      gt\n        /* \"#utility.yul\":9984:10101   */\n      iszero\n      tag_477\n      jumpi\n        /* \"#utility.yul\":10020:10099   */\n      tag_478\n      tag_454\n      jump\t// in\n    tag_478:\n        /* \"#utility.yul\":9984:10101   */\n    tag_477:\n        /* \"#utility.yul\":10125:10188   */\n      tag_479\n        /* \"#utility.yul\":10180:10187   */\n      dup13\n        /* \"#utility.yul\":10171:10177   */\n      dup3\n        /* \"#utility.yul\":10160:10169   */\n      dup14\n        /* \"#utility.yul\":10156:10178   */\n      add\n        /* \"#utility.yul\":10125:10188   */\n      tag_372\n      jump\t// in\n    tag_479:\n        /* \"#utility.yul\":10115:10188   */\n      swap5\n      pop\n        /* \"#utility.yul\":9909:10198   */\n      pop\n        /* \"#utility.yul\":10265:10268   */\n      0xc0\n        /* \"#utility.yul\":10254:10263   */\n      dup11\n        /* \"#utility.yul\":10250:10269   */\n      add\n        /* \"#utility.yul\":10237:10270   */\n      calldataload\n        /* \"#utility.yul\":10297:10315   */\n      0xffffffffffffffff\n        /* \"#utility.yul\":10289:10295   */\n      dup2\n        /* \"#utility.yul\":10286:10316   */\n      gt\n        /* \"#utility.yul\":10283:10400   */\n      iszero\n      tag_480\n      jumpi\n        /* \"#utility.yul\":10319:10398   */\n      tag_481\n      tag_454\n      jump\t// in\n    tag_481:\n        /* \"#utility.yul\":10283:10400   */\n    tag_480:\n        /* \"#utility.yul\":10432:10524   */\n      tag_482\n        /* \"#utility.yul\":10516:10523   */\n      dup13\n        /* \"#utility.yul\":10507:10513   */\n      dup3\n        /* \"#utility.yul\":10496:10505   */\n      dup14\n        /* \"#utility.yul\":10492:10514   */\n      add\n        /* \"#utility.yul\":10432:10524   */\n      tag_403\n      jump\t// in\n    tag_482:\n        /* \"#utility.yul\":10414:10524   */\n      swap4\n      pop\n      swap4\n      pop\n        /* \"#utility.yul\":10208:10534   */\n      pop\n        /* \"#utility.yul\":10573:10576   */\n      0xe0\n        /* \"#utility.yul\":10600:10653   */\n      tag_483\n        /* \"#utility.yul\":10645:10652   */\n      dup13\n        /* \"#utility.yul\":10636:10642   */\n      dup3\n        /* \"#utility.yul\":10625:10634   */\n      dup14\n        /* \"#utility.yul\":10621:10643   */\n      add\n        /* \"#utility.yul\":10600:10653   */\n      tag_384\n      jump\t// in\n    tag_483:\n        /* \"#utility.yul\":10590:10653   */\n      swap2\n      pop\n        /* \"#utility.yul\":10544:10663   */\n      pop\n        /* \"#utility.yul\":8681:10670   */\n      swap3\n      swap6\n      swap9\n      pop\n      swap3\n      swap6\n      swap9\n      pop\n      swap3\n      swap6\n      swap9\n      jump\t// out\n        /* \"#utility.yul\":10676:10855   */\n    tag_484:\n        /* \"#utility.yul\":10745:10755   */\n      0x00\n        /* \"#utility.yul\":10766:10812   */\n      tag_486\n        /* \"#utility.yul\":10808:10811   */\n      dup4\n        /* \"#utility.yul\":10800:10806   */\n      dup4\n        /* \"#utility.yul\":10766:10812   */\n      tag_487\n      jump\t// in\n    tag_486:\n        /* \"#utility.yul\":10844:10848   */\n      0x20\n        /* \"#utility.yul\":10839:10842   */\n      dup4\n        /* \"#utility.yul\":10835:10849   */\n      add\n        /* \"#utility.yul\":10821:10849   */\n      swap1\n      pop\n        /* \"#utility.yul\":10676:10855   */\n      swap3\n      swap2\n      pop\n      pop\n      jump\t// out\n        /* \"#utility.yul\":10861:11077   */\n    tag_488:\n        /* \"#utility.yul\":10960:10970   */\n      0x00\n        /* \"#utility.yul\":10995:11071   */\n      tag_490\n        /* \"#utility.yul\":11067:11070   */\n      dup5\n        /* \"#utility.yul\":11059:11065   */\n      dup5\n        /* \"#utility.yul\":11051:11057   */\n      dup5\n        /* \"#utility.yul\":10995:11071   */\n      tag_491\n      jump\t// in\n    tag_490:\n        /* \"#utility.yul\":10981:11071   */\n      swap1\n      pop\n        /* \"#utility.yul\":10861:11077   */\n      swap4\n      swap3\n      pop\n      pop\n      pop\n      jump\t// out\n        /* \"#utility.yul\":11083:11191   */\n    tag_487:\n        /* \"#utility.yul\":11160:11184   */\n      tag_493\n        /* \"#utility.yul\":11178:11183   */\n      dup2\n        /* \"#utility.yul\":11160:11184   */\n      tag_494\n      jump\t// in\n    tag_493:\n        /* \"#utility.yul\":11155:11158   */\n      dup3\n        /* \"#utility.yul\":11148:11185   */\n      mstore\n        /* \"#utility.yul\":11083:11191   */\n      pop\n      pop\n      jump\t// out\n        /* \"#utility.yul\":11197:11315   */\n    tag_495:\n        /* \"#utility.yul\":11284:11308   */\n      tag_497\n        /* \"#utility.yul\":11302:11307   */\n      dup2\n        /* \"#utility.yul\":11284:11308   */\n      tag_494\n      jump\t// in\n    tag_497:\n        /* \"#utility.yul\":11279:11282   */\n      dup3\n        /* \"#utility.yul\":11272:11309   */\n      mstore\n        /* \"#utility.yul\":11197:11315   */\n      pop\n      pop\n      jump\t// out\n        /* \"#utility.yul\":11351:12083   */\n    tag_498:\n        /* \"#utility.yul\":11470:11473   */\n      0x00\n        /* \"#utility.yul\":11499:11553   */\n      tag_500\n        /* \"#utility.yul\":11547:11552   */\n      dup3\n        /* \"#utility.yul\":11499:11553   */\n      tag_501\n      jump\t// in\n    tag_500:\n        /* \"#utility.yul\":11569:11655   */\n      tag_502\n        /* \"#utility.yul\":11648:11654   */\n      dup2\n        /* \"#utility.yul\":11643:11646   */\n      dup6\n        /* \"#utility.yul\":11569:11655   */\n      tag_503\n      jump\t// in\n    tag_502:\n        /* \"#utility.yul\":11562:11655   */\n      swap4\n      pop\n        /* \"#utility.yul\":11679:11735   */\n      tag_504\n        /* \"#utility.yul\":11729:11734   */\n      dup4\n        /* \"#utility.yul\":11679:11735   */\n      tag_505\n      jump\t// in\n    tag_504:\n        /* \"#utility.yul\":11758:11765   */\n      dup1\n        /* \"#utility.yul\":11789:11790   */\n      0x00\n        /* \"#utility.yul\":11774:12058   */\n    tag_506:\n        /* \"#utility.yul\":11799:11805   */\n      dup4\n        /* \"#utility.yul\":11796:11797   */\n      dup2\n        /* \"#utility.yul\":11793:11806   */\n      lt\n        /* \"#utility.yul\":11774:12058   */\n      iszero\n      tag_508\n      jumpi\n        /* \"#utility.yul\":11875:11881   */\n      dup2\n        /* \"#utility.yul\":11869:11882   */\n      mload\n        /* \"#utility.yul\":11902:11965   */\n      tag_509\n        /* \"#utility.yul\":11961:11964   */\n      dup9\n        /* \"#utility.yul\":11946:11959   */\n      dup3\n        /* \"#utility.yul\":11902:11965   */\n      tag_484\n      jump\t// in\n    tag_509:\n        /* \"#utility.yul\":11895:11965   */\n      swap8\n      pop\n        /* \"#utility.yul\":11988:12048   */\n      tag_510\n        /* \"#utility.yul\":12041:12047   */\n      dup4\n        /* \"#utility.yul\":11988:12048   */\n      tag_511\n      jump\t// in\n    tag_510:\n        /* \"#utility.yul\":11978:12048   */\n      swap3\n      pop\n        /* \"#utility.yul\":11834:12058   */\n      pop\n        /* \"#utility.yul\":11821:11822   */\n      0x01\n        /* \"#utility.yul\":11818:11819   */\n      dup2\n        /* \"#utility.yul\":11814:11823   */\n      add\n        /* \"#utility.yul\":11809:11823   */\n      swap1\n      pop\n        /* \"#utility.yul\":11774:12058   */\n      jump(tag_506)\n    tag_508:\n        /* \"#utility.yul\":11778:11792   */\n      pop\n        /* \"#utility.yul\":12074:12077   */\n      dup6\n        /* \"#utility.yul\":12067:12077   */\n      swap4\n      pop\n        /* \"#utility.yul\":11475:12083   */\n      pop\n      pop\n      pop\n        /* \"#utility.yul\":11351:12083   */\n      swap3\n      swap2\n      pop\n      pop\n      jump\t// out\n        /* \"#utility.yul\":12117:13115   */\n    tag_512:\n        /* \"#utility.yul\":12268:12271   */\n      0x00\n        /* \"#utility.yul\":12291:12387   */\n      tag_514\n        /* \"#utility.yul\":12380:12386   */\n      dup4\n        /* \"#utility.yul\":12375:12378   */\n      dup6\n        /* \"#utility.yul\":12291:12387   */\n      tag_515\n      jump\t// in\n    tag_514:\n        /* \"#utility.yul\":12284:12387   */\n      swap4\n      pop\n        /* \"#utility.yul\":12413:12416   */\n      dup4\n        /* \"#utility.yul\":12458:12462   */\n      0x20\n        /* \"#utility.yul\":12450:12456   */\n      dup5\n        /* \"#utility.yul\":12446:12463   */\n      mul\n        /* \"#utility.yul\":12441:12444   */\n      dup6\n        /* \"#utility.yul\":12437:12464   */\n      add\n        /* \"#utility.yul\":12488:12558   */\n      tag_516\n        /* \"#utility.yul\":12552:12557   */\n      dup5\n        /* \"#utility.yul\":12488:12558   */\n      tag_517\n      jump\t// in\n    tag_516:\n        /* \"#utility.yul\":12581:12588   */\n      dup1\n        /* \"#utility.yul\":12612:12613   */\n      0x00\n        /* \"#utility.yul\":12597:13070   */\n    tag_518:\n        /* \"#utility.yul\":12622:12628   */\n      dup8\n        /* \"#utility.yul\":12619:12620   */\n      dup2\n        /* \"#utility.yul\":12616:12629   */\n      lt\n        /* \"#utility.yul\":12597:13070   */\n      iszero\n      tag_520\n      jumpi\n        /* \"#utility.yul\":12693:12702   */\n      dup5\n        /* \"#utility.yul\":12687:12691   */\n      dup5\n        /* \"#utility.yul\":12683:12703   */\n      sub\n        /* \"#utility.yul\":12678:12681   */\n      dup10\n        /* \"#utility.yul\":12671:12704   */\n      mstore\n        /* \"#utility.yul\":12753:12807   */\n      tag_521\n        /* \"#utility.yul\":12800:12806   */\n      dup3\n        /* \"#utility.yul\":12791:12798   */\n      dup5\n        /* \"#utility.yul\":12753:12807   */\n      tag_522\n      jump\t// in\n    tag_521:\n        /* \"#utility.yul\":12828:12929   */\n      tag_523\n        /* \"#utility.yul\":12924:12928   */\n      dup7\n        /* \"#utility.yul\":12909:12922   */\n      dup3\n        /* \"#utility.yul\":12894:12907   */\n      dup5\n        /* \"#utility.yul\":12828:12929   */\n      tag_488\n      jump\t// in\n    tag_523:\n        /* \"#utility.yul\":12820:12929   */\n      swap6\n      pop\n        /* \"#utility.yul\":12952:13026   */\n      tag_524\n        /* \"#utility.yul\":13019:13025   */\n      dup5\n        /* \"#utility.yul\":12952:13026   */\n      tag_525\n      jump\t// in\n    tag_524:\n        /* \"#utility.yul\":12942:13026   */\n      swap4\n      pop\n        /* \"#utility.yul\":13055:13059   */\n      0x20\n        /* \"#utility.yul\":13050:13053   */\n      dup12\n        /* \"#utility.yul\":13046:13060   */\n      add\n        /* \"#utility.yul\":13039:13060   */\n      swap11\n      pop\n        /* \"#utility.yul\":12657:13070   */\n      pop\n      pop\n        /* \"#utility.yul\":12644:12645   */\n      0x01\n        /* \"#utility.yul\":12641:12642   */\n      dup2\n        /* \"#utility.yul\":12637:12646   */\n      add\n        /* \"#utility.yul\":12632:12646   */\n      swap1\n      pop\n        /* \"#utility.yul\":12597:13070   */\n      jump(tag_518)\n    tag_520:\n        /* \"#utility.yul\":12601:12615   */\n      pop\n        /* \"#utility.yul\":13086:13090   */\n      dup3\n        /* \"#utility.yul\":13079:13090   */\n      swap8\n      pop\n        /* \"#utility.yul\":13106:13109   */\n      dup8\n        /* \"#utility.yul\":13099:13109   */\n      swap5\n      pop\n        /* \"#utility.yul\":12273:13115   */\n      pop\n      pop\n      pop\n      pop\n        /* \"#utility.yul\":12117:13115   */\n      swap4\n      swap3\n      pop\n      pop\n      pop\n      jump\t// out\n        /* \"#utility.yul\":13121:13230   */\n    tag_526:\n        /* \"#utility.yul\":13202:13223   */\n      tag_528\n        /* \"#utility.yul\":13217:13222   */\n      dup2\n        /* \"#utility.yul\":13202:13223   */\n      tag_529\n      jump\t// in\n    tag_528:\n        /* \"#utility.yul\":13197:13200   */\n      dup3\n        /* \"#utility.yul\":13190:13224   */\n      mstore\n        /* \"#utility.yul\":13121:13230   */\n      pop\n      pop\n      jump\t// out\n        /* \"#utility.yul\":13260:13544   */\n    tag_491:\n        /* \"#utility.yul\":13348:13351   */\n      0x00\n        /* \"#utility.yul\":13369:13430   */\n      tag_531\n        /* \"#utility.yul\":13423:13429   */\n      dup4\n        /* \"#utility.yul\":13418:13421   */\n      dup6\n        /* \"#utility.yul\":13369:13430   */\n      tag_532\n      jump\t// in\n    tag_531:\n        /* \"#utility.yul\":13362:13430   */\n      swap4\n      pop\n        /* \"#utility.yul\":13440:13483   */\n      tag_533\n        /* \"#utility.yul\":13476:13482   */\n      dup4\n        /* \"#utility.yul\":13471:13474   */\n      dup6\n        /* \"#utility.yul\":13464:13469   */\n      dup5\n        /* \"#utility.yul\":13440:13483   */\n      tag_394\n      jump\t// in\n    tag_533:\n        /* \"#utility.yul\":13508:13537   */\n      tag_534\n        /* \"#utility.yul\":13530:13536   */\n      dup4\n        /* \"#utility.yul\":13508:13537   */\n      tag_535\n      jump\t// in\n    tag_534:\n        /* \"#utility.yul\":13503:13506   */\n      dup5\n        /* \"#utility.yul\":13499:13538   */\n      add\n        /* \"#utility.yul\":13492:13538   */\n      swap1\n      pop\n        /* \"#utility.yul\":13260:13544   */\n      swap4\n      swap3\n      pop\n      pop\n      pop\n      jump\t// out\n        /* \"#utility.yul\":13574:13891   */\n    tag_536:\n        /* \"#utility.yul\":13690:13693   */\n      0x00\n        /* \"#utility.yul\":13711:13800   */\n      tag_538\n        /* \"#utility.yul\":13793:13799   */\n      dup4\n        /* \"#utility.yul\":13788:13791   */\n      dup6\n        /* \"#utility.yul\":13711:13800   */\n      tag_539\n      jump\t// in\n    tag_538:\n        /* \"#utility.yul\":13704:13800   */\n      swap4\n      pop\n        /* \"#utility.yul\":13810:13853   */\n      tag_540\n        /* \"#utility.yul\":13846:13852   */\n      dup4\n        /* \"#utility.yul\":13841:13844   */\n      dup6\n        /* \"#utility.yul\":13834:13839   */\n      dup5\n        /* \"#utility.yul\":13810:13853   */\n      tag_394\n      jump\t// in\n    tag_540:\n        /* \"#utility.yul\":13878:13884   */\n      dup3\n        /* \"#utility.yul\":13873:13876   */\n      dup5\n        /* \"#utility.yul\":13869:13885   */\n      add\n        /* \"#utility.yul\":13862:13885   */\n      swap1\n      pop\n        /* \"#utility.yul\":13574:13891   */\n      swap4\n      swap3\n      pop\n      pop\n      pop\n      jump\t// out\n        /* \"#utility.yul\":13897:14261   */\n    tag_541:\n        /* \"#utility.yul\":13985:13988   */\n      0x00\n        /* \"#utility.yul\":14013:14052   */\n      tag_543\n        /* \"#utility.yul\":14046:14051   */\n      dup3\n        /* \"#utility.yul\":14013:14052   */\n      tag_544\n      jump\t// in\n    tag_543:\n        /* \"#utility.yul\":14068:14139   */\n      tag_545\n        /* \"#utility.yul\":14132:14138   */\n      dup2\n        /* \"#utility.yul\":14127:14130   */\n      dup6\n        /* \"#utility.yul\":14068:14139   */\n      tag_546\n      jump\t// in\n    tag_545:\n        /* \"#utility.yul\":14061:14139   */\n      swap4\n      pop\n        /* \"#utility.yul\":14148:14200   */\n      tag_547\n        /* \"#utility.yul\":14193:14199   */\n      dup2\n        /* \"#utility.yul\":14188:14191   */\n      dup6\n        /* \"#utility.yul\":14181:14185   */\n      0x20\n        /* \"#utility.yul\":14174:14179   */\n      dup7\n        /* \"#utility.yul\":14170:14186   */\n      add\n        /* \"#utility.yul\":14148:14200   */\n      tag_548\n      jump\t// in\n    tag_547:\n        /* \"#utility.yul\":14225:14254   */\n      tag_549\n        /* \"#utility.yul\":14247:14253   */\n      dup2\n        /* \"#utility.yul\":14225:14254   */\n      tag_535\n      jump\t// in\n    tag_549:\n        /* \"#utility.yul\":14220:14223   */\n      dup5\n        /* \"#utility.yul\":14216:14255   */\n      add\n        /* \"#utility.yul\":14209:14255   */\n      swap2\n      pop\n        /* \"#utility.yul\":13989:14261   */\n      pop\n        /* \"#utility.yul\":13897:14261   */\n      swap3\n      swap2\n      pop\n      pop\n      jump\t// out\n        /* \"#utility.yul\":14267:14644   */\n    tag_550:\n        /* \"#utility.yul\":14373:14376   */\n      0x00\n        /* \"#utility.yul\":14401:14440   */\n      tag_552\n        /* \"#utility.yul\":14434:14439   */\n      dup3\n        /* \"#utility.yul\":14401:14440   */\n      tag_544\n      jump\t// in\n    tag_552:\n        /* \"#utility.yul\":14456:14545   */\n      tag_553\n        /* \"#utility.yul\":14538:14544   */\n      dup2\n        /* \"#utility.yul\":14533:14536   */\n      dup6\n        /* \"#utility.yul\":14456:14545   */\n      tag_539\n      jump\t// in\n    tag_553:\n        /* \"#utility.yul\":14449:14545   */\n      swap4\n      pop\n        /* \"#utility.yul\":14554:14606   */\n      tag_554\n        /* \"#utility.yul\":14599:14605   */\n      dup2\n        /* \"#utility.yul\":14594:14597   */\n      dup6\n        /* \"#utility.yul\":14587:14591   */\n      0x20\n        /* \"#utility.yul\":14580:14585   */\n      dup7\n        /* \"#utility.yul\":14576:14592   */\n      add\n        /* \"#utility.yul\":14554:14606   */\n      tag_548\n      jump\t// in\n    tag_554:\n        /* \"#utility.yul\":14631:14637   */\n      dup1\n        /* \"#utility.yul\":14626:14629   */\n      dup5\n        /* \"#utility.yul\":14622:14638   */\n      add\n        /* \"#utility.yul\":14615:14638   */\n      swap2\n      pop\n        /* \"#utility.yul\":14377:14644   */\n      pop\n        /* \"#utility.yul\":14267:14644   */\n      swap3\n      swap2\n      pop\n      pop\n      jump\t// out\n        /* \"#utility.yul\":14674:15519   */\n    tag_555:\n        /* \"#utility.yul\":14777:14780   */\n      0x00\n        /* \"#utility.yul\":14814:14819   */\n      dup2\n        /* \"#utility.yul\":14808:14820   */\n      sload\n        /* \"#utility.yul\":14843:14879   */\n      tag_557\n        /* \"#utility.yul\":14869:14878   */\n      dup2\n        /* \"#utility.yul\":14843:14879   */\n      tag_73\n      jump\t// in\n    tag_557:\n        /* \"#utility.yul\":14895:14984   */\n      tag_558\n        /* \"#utility.yul\":14977:14983   */\n      dup2\n        /* \"#utility.yul\":14972:14975   */\n      dup7\n        /* \"#utility.yul\":14895:14984   */\n      tag_539\n      jump\t// in\n    tag_558:\n        /* \"#utility.yul\":14888:14984   */\n      swap5\n      pop\n        /* \"#utility.yul\":15015:15016   */\n      0x01\n        /* \"#utility.yul\":15004:15013   */\n      dup3\n        /* \"#utility.yul\":15000:15017   */\n      and\n        /* \"#utility.yul\":15031:15032   */\n      0x00\n        /* \"#utility.yul\":15026:15163   */\n      dup2\n      eq\n      tag_560\n      jumpi\n        /* \"#utility.yul\":15177:15178   */\n      0x01\n        /* \"#utility.yul\":15172:15513   */\n      dup2\n      eq\n      tag_561\n      jumpi\n        /* \"#utility.yul\":14993:15513   */\n      jump(tag_559)\n        /* \"#utility.yul\":15026:15163   */\n    tag_560:\n        /* \"#utility.yul\":15110:15114   */\n      0xff\n        /* \"#utility.yul\":15106:15115   */\n      not\n        /* \"#utility.yul\":15095:15104   */\n      dup4\n        /* \"#utility.yul\":15091:15116   */\n      and\n        /* \"#utility.yul\":15086:15089   */\n      dup7\n        /* \"#utility.yul\":15079:15117   */\n      mstore\n        /* \"#utility.yul\":15146:15152   */\n      dup2\n        /* \"#utility.yul\":15141:15144   */\n      dup7\n        /* \"#utility.yul\":15137:15153   */\n      add\n        /* \"#utility.yul\":15130:15153   */\n      swap4\n      pop\n        /* \"#utility.yul\":15026:15163   */\n      jump(tag_559)\n        /* \"#utility.yul\":15172:15513   */\n    tag_561:\n        /* \"#utility.yul\":15239:15277   */\n      tag_562\n        /* \"#utility.yul\":15271:15276   */\n      dup6\n        /* \"#utility.yul\":15239:15277   */\n      tag_563\n      jump\t// in\n    tag_562:\n        /* \"#utility.yul\":15299:15300   */\n      0x00\n        /* \"#utility.yul\":15313:15467   */\n    tag_564:\n        /* \"#utility.yul\":15327:15333   */\n      dup4\n        /* \"#utility.yul\":15324:15325   */\n      dup2\n        /* \"#utility.yul\":15321:15334   */\n      lt\n        /* \"#utility.yul\":15313:15467   */\n      iszero\n      tag_566\n      jumpi\n        /* \"#utility.yul\":15401:15408   */\n      dup2\n        /* \"#utility.yul\":15395:15409   */\n      sload\n        /* \"#utility.yul\":15391:15392   */\n      dup2\n        /* \"#utility.yul\":15386:15389   */\n      dup10\n        /* \"#utility.yul\":15382:15393   */\n      add\n        /* \"#utility.yul\":15375:15410   */\n      mstore\n        /* \"#utility.yul\":15451:15452   */\n      0x01\n        /* \"#utility.yul\":15442:15449   */\n      dup3\n        /* \"#utility.yul\":15438:15453   */\n      add\n        /* \"#utility.yul\":15427:15453   */\n      swap2\n      pop\n        /* \"#utility.yul\":15349:15353   */\n      0x20\n        /* \"#utility.yul\":15346:15347   */\n      dup2\n        /* \"#utility.yul\":15342:15354   */\n      add\n        /* \"#utility.yul\":15337:15354   */\n      swap1\n      pop\n        /* \"#utility.yul\":15313:15467   */\n      jump(tag_564)\n    tag_566:\n        /* \"#utility.yul\":15496:15502   */\n      dup4\n        /* \"#utility.yul\":15491:15494   */\n      dup9\n        /* \"#utility.yul\":15487:15503   */\n      add\n        /* \"#utility.yul\":15480:15503   */\n      swap6\n      pop\n        /* \"#utility.yul\":15179:15513   */\n      pop\n      pop\n        /* \"#utility.yul\":14993:15513   */\n    tag_559:\n      pop\n        /* \"#utility.yul\":14781:15519   */\n      pop\n      pop\n        /* \"#utility.yul\":14674:15519   */\n      swap3\n      swap2\n      pop\n      pop\n      jump\t// out\n        /* \"#utility.yul\":15525:15891   */\n    tag_567:\n        /* \"#utility.yul\":15667:15670   */\n      0x00\n        /* \"#utility.yul\":15688:15755   */\n      tag_569\n        /* \"#utility.yul\":15752:15754   */\n      0x12\n        /* \"#utility.yul\":15747:15750   */\n      dup4\n        /* \"#utility.yul\":15688:15755   */\n      tag_546\n      jump\t// in\n    tag_569:\n        /* \"#utility.yul\":15681:15755   */\n      swap2\n      pop\n        /* \"#utility.yul\":15764:15857   */\n      tag_570\n        /* \"#utility.yul\":15853:15856   */\n      dup3\n        /* \"#utility.yul\":15764:15857   */\n      tag_571\n      jump\t// in\n    tag_570:\n        /* \"#utility.yul\":15882:15884   */\n      0x20\n        /* \"#utility.yul\":15877:15880   */\n      dup3\n        /* \"#utility.yul\":15873:15885   */\n      add\n        /* \"#utility.yul\":15866:15885   */\n      swap1\n      pop\n        /* \"#utility.yul\":15525:15891   */\n      swap2\n      swap1\n      pop\n      jump\t// out\n        /* \"#utility.yul\":15897:16263   */\n    tag_572:\n        /* \"#utility.yul\":16039:16042   */\n      0x00\n        /* \"#utility.yul\":16060:16127   */\n      tag_574\n        /* \"#utility.yul\":16124:16126   */\n      0x2c\n        /* \"#utility.yul\":16119:16122   */\n      dup4\n        /* \"#utility.yul\":16060:16127   */\n      tag_546\n      jump\t// in\n    tag_574:\n        /* \"#utility.yul\":16053:16127   */\n      swap2\n      pop\n        /* \"#utility.yul\":16136:16229   */\n      tag_575\n        /* \"#utility.yul\":16225:16228   */\n      dup3\n        /* \"#utility.yul\":16136:16229   */\n      tag_576\n      jump\t// in\n    tag_575:\n        /* \"#utility.yul\":16254:16256   */\n      0x40\n        /* \"#utility.yul\":16249:16252   */\n      dup3\n        /* \"#utility.yul\":16245:16257   */\n      add\n        /* \"#utility.yul\":16238:16257   */\n      swap1\n      pop\n        /* \"#utility.yul\":15897:16263   */\n      swap2\n      swap1\n      pop\n      jump\t// out\n        /* \"#utility.yul\":16269:16635   */\n    tag_577:\n        /* \"#utility.yul\":16411:16414   */\n      0x00\n        /* \"#utility.yul\":16432:16499   */\n      tag_579\n        /* \"#utility.yul\":16496:16498   */\n      0x22\n        /* \"#utility.yul\":16491:16494   */\n      dup4\n        /* \"#utility.yul\":16432:16499   */\n      tag_546\n      jump\t// in\n    tag_579:\n        /* \"#utility.yul\":16425:16499   */\n      swap2\n      pop\n        /* \"#utility.yul\":16508:16601   */\n      tag_580\n        /* \"#utility.yul\":16597:16600   */\n      dup3\n        /* \"#utility.yul\":16508:16601   */\n      tag_581\n      jump\t// in\n    tag_580:\n        /* \"#utility.yul\":16626:16628   */\n      0x40\n        /* \"#utility.yul\":16621:16624   */\n      dup3\n        /* \"#utility.yul\":16617:16629   */\n      add\n        /* \"#utility.yul\":16610:16629   */\n      swap1\n      pop\n        /* \"#utility.yul\":16269:16635   */\n      swap2\n      swap1\n      pop\n      jump\t// out\n        /* \"#utility.yul\":16641:17007   */\n    tag_582:\n        /* \"#utility.yul\":16783:16786   */\n      0x00\n        /* \"#utility.yul\":16804:16871   */\n      tag_584\n        /* \"#utility.yul\":16868:16870   */\n      0x0d\n        /* \"#utility.yul\":16863:16866   */\n      dup4\n        /* \"#utility.yul\":16804:16871   */\n      tag_546\n      jump\t// in\n    tag_584:\n        /* \"#utility.yul\":16797:16871   */\n      swap2\n      pop\n        /* \"#utility.yul\":16880:16973   */\n      tag_585\n        /* \"#utility.yul\":16969:16972   */\n      dup3\n        /* \"#utility.yul\":16880:16973   */\n      tag_586\n      jump\t// in\n    tag_585:\n        /* \"#utility.yul\":16998:17000   */\n      0x20\n        /* \"#utility.yul\":16993:16996   */\n      dup3\n        /* \"#utility.yul\":16989:17001   */\n      add\n        /* \"#utility.yul\":16982:17001   */\n      swap1\n      pop\n        /* \"#utility.yul\":16641:17007   */\n      swap2\n      swap1\n      pop\n      jump\t// out\n        /* \"#utility.yul\":17013:17379   */\n    tag_587:\n        /* \"#utility.yul\":17155:17158   */\n      0x00\n        /* \"#utility.yul\":17176:17243   */\n      tag_589\n        /* \"#utility.yul\":17240:17242   */\n      0x1b\n        /* \"#utility.yul\":17235:17238   */\n      dup4\n        /* \"#utility.yul\":17176:17243   */\n      tag_546\n      jump\t// in\n    tag_589:\n        /* \"#utility.yul\":17169:17243   */\n      swap2\n      pop\n        /* \"#utility.yul\":17252:17345   */\n      tag_590\n        /* \"#utility.yul\":17341:17344   */\n      dup3\n        /* \"#utility.yul\":17252:17345   */\n      tag_591\n      jump\t// in\n    tag_590:\n        /* \"#utility.yul\":17370:17372   */\n      0x20\n        /* \"#utility.yul\":17365:17368   */\n      dup3\n        /* \"#utility.yul\":17361:17373   */\n      add\n        /* \"#utility.yul\":17354:17373   */\n      swap1\n      pop\n        /* \"#utility.yul\":17013:17379   */\n      swap2\n      swap1\n      pop\n      jump\t// out\n        /* \"#utility.yul\":17385:17751   */\n    tag_592:\n        /* \"#utility.yul\":17527:17530   */\n      0x00\n        /* \"#utility.yul\":17548:17615   */\n      tag_594\n        /* \"#utility.yul\":17612:17614   */\n      0x14\n        /* \"#utility.yul\":17607:17610   */\n      dup4\n        /* \"#utility.yul\":17548:17615   */\n      tag_546\n      jump\t// in\n    tag_594:\n        /* \"#utility.yul\":17541:17615   */\n      swap2\n      pop\n        /* \"#utility.yul\":17624:17717   */\n      tag_595\n        /* \"#utility.yul\":17713:17716   */\n      dup3\n        /* \"#utility.yul\":17624:17717   */\n      tag_596\n      jump\t// in\n    tag_595:\n        /* \"#utility.yul\":17742:17744   */\n      0x20\n        /* \"#utility.yul\":17737:17740   */\n      dup3\n        /* \"#utility.yul\":17733:17745   */\n      add\n        /* \"#utility.yul\":17726:17745   */\n      swap1\n      pop\n        /* \"#utility.yul\":17385:17751   */\n      swap2\n      swap1\n      pop\n      jump\t// out\n        /* \"#utility.yul\":17757:18123   */\n    tag_597:\n        /* \"#utility.yul\":17899:17902   */\n      0x00\n        /* \"#utility.yul\":17920:17987   */\n      tag_599\n        /* \"#utility.yul\":17984:17986   */\n      0x23\n        /* \"#utility.yul\":17979:17982   */\n      dup4\n        /* \"#utility.yul\":17920:17987   */\n      tag_546\n      jump\t// in\n    tag_599:\n        /* \"#utility.yul\":17913:17987   */\n      swap2\n      pop\n        /* \"#utility.yul\":17996:18089   */\n      tag_600\n        /* \"#utility.yul\":18085:18088   */\n      dup3\n        /* \"#utility.yul\":17996:18089   */\n      tag_601\n      jump\t// in\n    tag_600:\n        /* \"#utility.yul\":18114:18116   */\n      0x40\n        /* \"#utility.yul\":18109:18112   */\n      dup3\n        /* \"#utility.yul\":18105:18117   */\n      add\n        /* \"#utility.yul\":18098:18117   */\n      swap1\n      pop\n        /* \"#utility.yul\":17757:18123   */\n      swap2\n      swap1\n      pop\n      jump\t// out\n        /* \"#utility.yul\":18129:18495   */\n    tag_602:\n        /* \"#utility.yul\":18271:18274   */\n      0x00\n        /* \"#utility.yul\":18292:18359   */\n      tag_604\n        /* \"#utility.yul\":18356:18358   */\n      0x14\n        /* \"#utility.yul\":18351:18354   */\n      dup4\n        /* \"#utility.yul\":18292:18359   */\n      tag_546\n      jump\t// in\n    tag_604:\n        /* \"#utility.yul\":18285:18359   */\n      swap2\n      pop\n        /* \"#utility.yul\":18368:18461   */\n      tag_605\n        /* \"#utility.yul\":18457:18460   */\n      dup3\n        /* \"#utility.yul\":18368:18461   */\n      tag_606\n      jump\t// in\n    tag_605:\n        /* \"#utility.yul\":18486:18488   */\n      0x20\n        /* \"#utility.yul\":18481:18484   */\n      dup3\n        /* \"#utility.yul\":18477:18489   */\n      add\n        /* \"#utility.yul\":18470:18489   */\n      swap1\n      pop\n        /* \"#utility.yul\":18129:18495   */\n      swap2\n      swap1\n      pop\n      jump\t// out\n        /* \"#utility.yul\":18501:18867   */\n    tag_607:\n        /* \"#utility.yul\":18643:18646   */\n      0x00\n        /* \"#utility.yul\":18664:18731   */\n      tag_609\n        /* \"#utility.yul\":18728:18730   */\n      0x23\n        /* \"#utility.yul\":18723:18726   */\n      dup4\n        /* \"#utility.yul\":18664:18731   */\n      tag_546\n      jump\t// in\n    tag_609:\n        /* \"#utility.yul\":18657:18731   */\n      swap2\n      pop\n        /* \"#utility.yul\":18740:18833   */\n      tag_610\n        /* \"#utility.yul\":18829:18832   */\n      dup3\n        /* \"#utility.yul\":18740:18833   */\n      tag_611\n      jump\t// in\n    tag_610:\n        /* \"#utility.yul\":18858:18860   */\n      0x40\n        /* \"#utility.yul\":18853:18856   */\n      dup3\n        /* \"#utility.yul\":18849:18861   */\n      add\n        /* \"#utility.yul\":18842:18861   */\n      swap1\n      pop\n        /* \"#utility.yul\":18501:18867   */\n      swap2\n      swap1\n      pop\n      jump\t// out\n        /* \"#utility.yul\":18873:19239   */\n    tag_612:\n        /* \"#utility.yul\":19015:19018   */\n      0x00\n        /* \"#utility.yul\":19036:19103   */\n      tag_614\n        /* \"#utility.yul\":19100:19102   */\n      0x12\n        /* \"#utility.yul\":19095:19098   */\n      dup4\n        /* \"#utility.yul\":19036:19103   */\n      tag_546\n      jump\t// in\n    tag_614:\n        /* \"#utility.yul\":19029:19103   */\n      swap2\n      pop\n        /* \"#utility.yul\":19112:19205   */\n      tag_615\n        /* \"#utility.yul\":19201:19204   */\n      dup3\n        /* \"#utility.yul\":19112:19205   */\n      tag_616\n      jump\t// in\n    tag_615:\n        /* \"#utility.yul\":19230:19232   */\n      0x20\n        /* \"#utility.yul\":19225:19228   */\n      dup3\n        /* \"#utility.yul\":19221:19233   */\n      add\n        /* \"#utility.yul\":19214:19233   */\n      swap1\n      pop\n        /* \"#utility.yul\":18873:19239   */\n      swap2\n      swap1\n      pop\n      jump\t// out\n        /* \"#utility.yul\":19245:19611   */\n    tag_617:\n        /* \"#utility.yul\":19387:19390   */\n      0x00\n        /* \"#utility.yul\":19408:19475   */\n      tag_619\n        /* \"#utility.yul\":19472:19474   */\n      0x23\n        /* \"#utility.yul\":19467:19470   */\n      dup4\n        /* \"#utility.yul\":19408:19475   */\n      tag_546\n      jump\t// in\n    tag_619:\n        /* \"#utility.yul\":19401:19475   */\n      swap2\n      pop\n        /* \"#utility.yul\":19484:19577   */\n      tag_620\n        /* \"#utility.yul\":19573:19576   */\n      dup3\n        /* \"#utility.yul\":19484:19577   */\n      tag_621\n      jump\t// in\n    tag_620:\n        /* \"#utility.yul\":19602:19604   */\n      0x40\n        /* \"#utility.yul\":19597:19600   */\n      dup3\n        /* \"#utility.yul\":19593:19605   */\n      add\n        /* \"#utility.yul\":19586:19605   */\n      swap1\n      pop\n        /* \"#utility.yul\":19245:19611   */\n      swap2\n      swap1\n      pop\n      jump\t// out\n        /* \"#utility.yul\":19617:19983   */\n    tag_622:\n        /* \"#utility.yul\":19759:19762   */\n      0x00\n        /* \"#utility.yul\":19780:19847   */\n      tag_624\n        /* \"#utility.yul\":19844:19846   */\n      0x2a\n        /* \"#utility.yul\":19839:19842   */\n      dup4\n        /* \"#utility.yul\":19780:19847   */\n      tag_546\n      jump\t// in\n    tag_624:\n        /* \"#utility.yul\":19773:19847   */\n      swap2\n      pop\n        /* \"#utility.yul\":19856:19949   */\n      tag_625\n        /* \"#utility.yul\":19945:19948   */\n      dup3\n        /* \"#utility.yul\":19856:19949   */\n      tag_626\n      jump\t// in\n    tag_625:\n        /* \"#utility.yul\":19974:19976   */\n      0x40\n        /* \"#utility.yul\":19969:19972   */\n      dup3\n        /* \"#utility.yul\":19965:19977   */\n      add\n        /* \"#utility.yul\":19958:19977   */\n      swap1\n      pop\n        /* \"#utility.yul\":19617:19983   */\n      swap2\n      swap1\n      pop\n      jump\t// out\n        /* \"#utility.yul\":19989:20355   */\n    tag_627:\n        /* \"#utility.yul\":20131:20134   */\n      0x00\n        /* \"#utility.yul\":20152:20219   */\n      tag_629\n        /* \"#utility.yul\":20216:20218   */\n      0x21\n        /* \"#utility.yul\":20211:20214   */\n      dup4\n        /* \"#utility.yul\":20152:20219   */\n      tag_546\n      jump\t// in\n    tag_629:\n        /* \"#utility.yul\":20145:20219   */\n      swap2\n      pop\n        /* \"#utility.yul\":20228:20321   */\n      tag_630\n        /* \"#utility.yul\":20317:20320   */\n      dup3\n        /* \"#utility.yul\":20228:20321   */\n      tag_631\n      jump\t// in\n    tag_630:\n        /* \"#utility.yul\":20346:20348   */\n      0x40\n        /* \"#utility.yul\":20341:20344   */\n      dup3\n        /* \"#utility.yul\":20337:20349   */\n      add\n        /* \"#utility.yul\":20330:20349   */\n      swap1\n      pop\n        /* \"#utility.yul\":19989:20355   */\n      swap2\n      swap1\n      pop\n      jump\t// out\n        /* \"#utility.yul\":20361:20727   */\n    tag_632:\n        /* \"#utility.yul\":20503:20506   */\n      0x00\n        /* \"#utility.yul\":20524:20591   */\n      tag_634\n        /* \"#utility.yul\":20588:20590   */\n      0x24\n        /* \"#utility.yul\":20583:20586   */\n      dup4\n        /* \"#utility.yul\":20524:20591   */\n      tag_546\n      jump\t// in\n    tag_634:\n        /* \"#utility.yul\":20517:20591   */\n      swap2\n      pop\n        /* \"#utility.yul\":20600:20693   */\n      tag_635\n        /* \"#utility.yul\":20689:20692   */\n      dup3\n        /* \"#utility.yul\":20600:20693   */\n      tag_636\n      jump\t// in\n    tag_635:\n        /* \"#utility.yul\":20718:20720   */\n      0x40\n        /* \"#utility.yul\":20713:20716   */\n      dup3\n        /* \"#utility.yul\":20709:20721   */\n      add\n        /* \"#utility.yul\":20702:20721   */\n      swap1\n      pop\n        /* \"#utility.yul\":20361:20727   */\n      swap2\n      swap1\n      pop\n      jump\t// out\n        /* \"#utility.yul\":20733:21098   */\n    tag_637:\n        /* \"#utility.yul\":20875:20878   */\n      0x00\n        /* \"#utility.yul\":20896:20962   */\n      tag_639\n        /* \"#utility.yul\":20960:20961   */\n      0x04\n        /* \"#utility.yul\":20955:20958   */\n      dup4\n        /* \"#utility.yul\":20896:20962   */\n      tag_546\n      jump\t// in\n    tag_639:\n        /* \"#utility.yul\":20889:20962   */\n      swap2\n      pop\n        /* \"#utility.yul\":20971:21064   */\n      tag_640\n        /* \"#utility.yul\":21060:21063   */\n      dup3\n        /* \"#utility.yul\":20971:21064   */\n      tag_641\n      jump\t// in\n    tag_640:\n        /* \"#utility.yul\":21089:21091   */\n      0x20\n        /* \"#utility.yul\":21084:21087   */\n      dup3\n        /* \"#utility.yul\":21080:21092   */\n      add\n        /* \"#utility.yul\":21073:21092   */\n      swap1\n      pop\n        /* \"#utility.yul\":20733:21098   */\n      swap2\n      swap1\n      pop\n      jump\t// out\n        /* \"#utility.yul\":21104:21470   */\n    tag_642:\n        /* \"#utility.yul\":21246:21249   */\n      0x00\n        /* \"#utility.yul\":21267:21334   */\n      tag_644\n        /* \"#utility.yul\":21331:21333   */\n      0x1d\n        /* \"#utility.yul\":21326:21329   */\n      dup4\n        /* \"#utility.yul\":21267:21334   */\n      tag_546\n      jump\t// in\n    tag_644:\n        /* \"#utility.yul\":21260:21334   */\n      swap2\n      pop\n        /* \"#utility.yul\":21343:21436   */\n      tag_645\n        /* \"#utility.yul\":21432:21435   */\n      dup3\n        /* \"#utility.yul\":21343:21436   */\n      tag_646\n      jump\t// in\n    tag_645:\n        /* \"#utility.yul\":21461:21463   */\n      0x20\n        /* \"#utility.yul\":21456:21459   */\n      dup3\n        /* \"#utility.yul\":21452:21464   */\n      add\n        /* \"#utility.yul\":21445:21464   */\n      swap1\n      pop\n        /* \"#utility.yul\":21104:21470   */\n      swap2\n      swap1\n      pop\n      jump\t// out\n        /* \"#utility.yul\":21476:21841   */\n    tag_647:\n        /* \"#utility.yul\":21618:21621   */\n      0x00\n        /* \"#utility.yul\":21639:21705   */\n      tag_649\n        /* \"#utility.yul\":21703:21704   */\n      0x04\n        /* \"#utility.yul\":21698:21701   */\n      dup4\n        /* \"#utility.yul\":21639:21705   */\n      tag_546\n      jump\t// in\n    tag_649:\n        /* \"#utility.yul\":21632:21705   */\n      swap2\n      pop\n        /* \"#utility.yul\":21714:21807   */\n      tag_650\n        /* \"#utility.yul\":21803:21806   */\n      dup3\n        /* \"#utility.yul\":21714:21807   */\n      tag_651\n      jump\t// in\n    tag_650:\n        /* \"#utility.yul\":21832:21834   */\n      0x20\n        /* \"#utility.yul\":21827:21830   */\n      dup3\n        /* \"#utility.yul\":21823:21835   */\n      add\n        /* \"#utility.yul\":21816:21835   */\n      swap1\n      pop\n        /* \"#utility.yul\":21476:21841   */\n      swap2\n      swap1\n      pop\n      jump\t// out\n        /* \"#utility.yul\":21847:22212   */\n    tag_652:\n        /* \"#utility.yul\":21989:21992   */\n      0x00\n        /* \"#utility.yul\":22010:22076   */\n      tag_654\n        /* \"#utility.yul\":22074:22075   */\n      0x09\n        /* \"#utility.yul\":22069:22072   */\n      dup4\n        /* \"#utility.yul\":22010:22076   */\n      tag_546\n      jump\t// in\n    tag_654:\n        /* \"#utility.yul\":22003:22076   */\n      swap2\n      pop\n        /* \"#utility.yul\":22085:22178   */\n      tag_655\n        /* \"#utility.yul\":22174:22177   */\n      dup3\n        /* \"#utility.yul\":22085:22178   */\n      tag_656\n      jump\t// in\n    tag_655:\n        /* \"#utility.yul\":22203:22205   */\n      0x20\n        /* \"#utility.yul\":22198:22201   */\n      dup3\n        /* \"#utility.yul\":22194:22206   */\n      add\n        /* \"#utility.yul\":22187:22206   */\n      swap1\n      pop\n        /* \"#utility.yul\":21847:22212   */\n      swap2\n      swap1\n      pop\n      jump\t// out\n        /* \"#utility.yul\":22218:22584   */\n    tag_657:\n        /* \"#utility.yul\":22360:22363   */\n      0x00\n        /* \"#utility.yul\":22381:22448   */\n      tag_659\n        /* \"#utility.yul\":22445:22447   */\n      0x1f\n        /* \"#utility.yul\":22440:22443   */\n      dup4\n        /* \"#utility.yul\":22381:22448   */\n      tag_546\n      jump\t// in\n    tag_659:\n        /* \"#utility.yul\":22374:22448   */\n      swap2\n      pop\n        /* \"#utility.yul\":22457:22550   */\n      tag_660\n        /* \"#utility.yul\":22546:22549   */\n      dup3\n        /* \"#utility.yul\":22457:22550   */\n      tag_661\n      jump\t// in\n    tag_660:\n        /* \"#utility.yul\":22575:22577   */\n      0x20\n        /* \"#utility.yul\":22570:22573   */\n      dup3\n        /* \"#utility.yul\":22566:22578   */\n      add\n        /* \"#utility.yul\":22559:22578   */\n      swap1\n      pop\n        /* \"#utility.yul\":22218:22584   */\n      swap2\n      swap1\n      pop\n      jump\t// out\n        /* \"#utility.yul\":22590:22708   */\n    tag_662:\n        /* \"#utility.yul\":22677:22701   */\n      tag_664\n        /* \"#utility.yul\":22695:22700   */\n      dup2\n        /* \"#utility.yul\":22677:22701   */\n      tag_665\n      jump\t// in\n    tag_664:\n        /* \"#utility.yul\":22672:22675   */\n      dup3\n        /* \"#utility.yul\":22665:22702   */\n      mstore\n        /* \"#utility.yul\":22590:22708   */\n      pop\n      pop\n      jump\t// out\n        /* \"#utility.yul\":22714:22829   */\n    tag_666:\n        /* \"#utility.yul\":22799:22822   */\n      tag_668\n        /* \"#utility.yul\":22816:22821   */\n      dup2\n        /* \"#utility.yul\":22799:22822   */\n      tag_669\n      jump\t// in\n    tag_668:\n        /* \"#utility.yul\":22794:22797   */\n      dup3\n        /* \"#utility.yul\":22787:22823   */\n      mstore\n        /* \"#utility.yul\":22714:22829   */\n      pop\n      pop\n      jump\t// out\n        /* \"#utility.yul\":22835:22953   */\n    tag_670:\n        /* \"#utility.yul\":22922:22946   */\n      tag_672\n        /* \"#utility.yul\":22940:22945   */\n      dup2\n        /* \"#utility.yul\":22922:22946   */\n      tag_673\n      jump\t// in\n    tag_672:\n        /* \"#utility.yul\":22917:22920   */\n      dup3\n        /* \"#utility.yul\":22910:22947   */\n      mstore\n        /* \"#utility.yul\":22835:22953   */\n      pop\n      pop\n      jump\t// out\n        /* \"#utility.yul\":22959:23071   */\n    tag_674:\n        /* \"#utility.yul\":23042:23064   */\n      tag_676\n        /* \"#utility.yul\":23058:23063   */\n      dup2\n        /* \"#utility.yul\":23042:23064   */\n      tag_677\n      jump\t// in\n    tag_676:\n        /* \"#utility.yul\":23037:23040   */\n      dup3\n        /* \"#utility.yul\":23030:23065   */\n      mstore\n        /* \"#utility.yul\":22959:23071   */\n      pop\n      pop\n      jump\t// out\n        /* \"#utility.yul\":23077:23372   */\n    tag_209:\n        /* \"#utility.yul\":23219:23222   */\n      0x00\n        /* \"#utility.yul\":23241:23346   */\n      tag_679\n        /* \"#utility.yul\":23342:23345   */\n      dup3\n        /* \"#utility.yul\":23333:23339   */\n      dup5\n        /* \"#utility.yul\":23325:23331   */\n      dup7\n        /* \"#utility.yul\":23241:23346   */\n      tag_536\n      jump\t// in\n    tag_679:\n        /* \"#utility.yul\":23234:23346   */\n      swap2\n      pop\n        /* \"#utility.yul\":23363:23366   */\n      dup2\n        /* \"#utility.yul\":23356:23366   */\n      swap1\n      pop\n        /* \"#utility.yul\":23077:23372   */\n      swap4\n      swap3\n      pop\n      pop\n      pop\n      jump\t// out\n        /* \"#utility.yul\":23378:23653   */\n    tag_268:\n        /* \"#utility.yul\":23510:23513   */\n      0x00\n        /* \"#utility.yul\":23532:23627   */\n      tag_681\n        /* \"#utility.yul\":23623:23626   */\n      dup3\n        /* \"#utility.yul\":23614:23620   */\n      dup5\n        /* \"#utility.yul\":23532:23627   */\n      tag_550\n      jump\t// in\n    tag_681:\n        /* \"#utility.yul\":23525:23627   */\n      swap2\n      pop\n        /* \"#utility.yul\":23644:23647   */\n      dup2\n        /* \"#utility.yul\":23637:23647   */\n      swap1\n      pop\n        /* \"#utility.yul\":23378:23653   */\n      swap3\n      swap2\n      pop\n      pop\n      jump\t// out\n        /* \"#utility.yul\":23659:23928   */\n    tag_192:\n        /* \"#utility.yul\":23788:23791   */\n      0x00\n        /* \"#utility.yul\":23810:23902   */\n      tag_683\n        /* \"#utility.yul\":23898:23901   */\n      dup3\n        /* \"#utility.yul\":23889:23895   */\n      dup5\n        /* \"#utility.yul\":23810:23902   */\n      tag_555\n      jump\t// in\n    tag_683:\n        /* \"#utility.yul\":23803:23902   */\n      swap2\n      pop\n        /* \"#utility.yul\":23919:23922   */\n      dup2\n        /* \"#utility.yul\":23912:23922   */\n      swap1\n      pop\n        /* \"#utility.yul\":23659:23928   */\n      swap3\n      swap2\n      pop\n      pop\n      jump\t// out\n        /* \"#utility.yul\":23934:24899   */\n    tag_21:\n        /* \"#utility.yul\":24209:24213   */\n      0x00\n        /* \"#utility.yul\":24247:24250   */\n      0xe0\n        /* \"#utility.yul\":24236:24245   */\n      dup3\n        /* \"#utility.yul\":24232:24251   */\n      add\n        /* \"#utility.yul\":24224:24251   */\n      swap1\n      pop\n        /* \"#utility.yul\":24261:24332   */\n      tag_685\n        /* \"#utility.yul\":24329:24330   */\n      0x00\n        /* \"#utility.yul\":24318:24327   */\n      dup4\n        /* \"#utility.yul\":24314:24331   */\n      add\n        /* \"#utility.yul\":24305:24311   */\n      dup11\n        /* \"#utility.yul\":24261:24332   */\n      tag_495\n      jump\t// in\n    tag_685:\n        /* \"#utility.yul\":24342:24410   */\n      tag_686\n        /* \"#utility.yul\":24406:24408   */\n      0x20\n        /* \"#utility.yul\":24395:24404   */\n      dup4\n        /* \"#utility.yul\":24391:24409   */\n      add\n        /* \"#utility.yul\":24382:24388   */\n      dup10\n        /* \"#utility.yul\":24342:24410   */\n      tag_674\n      jump\t// in\n    tag_686:\n        /* \"#utility.yul\":24457:24466   */\n      dup2\n        /* \"#utility.yul\":24451:24455   */\n      dup2\n        /* \"#utility.yul\":24447:24467   */\n      sub\n        /* \"#utility.yul\":24442:24444   */\n      0x40\n        /* \"#utility.yul\":24431:24440   */\n      dup4\n        /* \"#utility.yul\":24427:24445   */\n      add\n        /* \"#utility.yul\":24420:24468   */\n      mstore\n        /* \"#utility.yul\":24485:24563   */\n      tag_687\n        /* \"#utility.yul\":24558:24562   */\n      dup2\n        /* \"#utility.yul\":24549:24555   */\n      dup9\n        /* \"#utility.yul\":24485:24563   */\n      tag_541\n      jump\t// in\n    tag_687:\n        /* \"#utility.yul\":24477:24563   */\n      swap1\n      pop\n        /* \"#utility.yul\":24573:24645   */\n      tag_688\n        /* \"#utility.yul\":24641:24643   */\n      0x60\n        /* \"#utility.yul\":24630:24639   */\n      dup4\n        /* \"#utility.yul\":24626:24644   */\n      add\n        /* \"#utility.yul\":24617:24623   */\n      dup8\n        /* \"#utility.yul\":24573:24645   */\n      tag_670\n      jump\t// in\n    tag_688:\n        /* \"#utility.yul\":24655:24728   */\n      tag_689\n        /* \"#utility.yul\":24723:24726   */\n      0x80\n        /* \"#utility.yul\":24712:24721   */\n      dup4\n        /* \"#utility.yul\":24708:24727   */\n      add\n        /* \"#utility.yul\":24699:24705   */\n      dup7\n        /* \"#utility.yul\":24655:24728   */\n      tag_670\n      jump\t// in\n    tag_689:\n        /* \"#utility.yul\":24738:24809   */\n      tag_690\n        /* \"#utility.yul\":24804:24807   */\n      0xa0\n        /* \"#utility.yul\":24793:24802   */\n      dup4\n        /* \"#utility.yul\":24789:24808   */\n      add\n        /* \"#utility.yul\":24780:24786   */\n      dup6\n        /* \"#utility.yul\":24738:24809   */\n      tag_666\n      jump\t// in\n    tag_690:\n        /* \"#utility.yul\":24819:24892   */\n      tag_691\n        /* \"#utility.yul\":24887:24890   */\n      0xc0\n        /* \"#utility.yul\":24876:24885   */\n      dup4\n        /* \"#utility.yul\":24872:24891   */\n      add\n        /* \"#utility.yul\":24863:24869   */\n      dup5\n        /* \"#utility.yul\":24819:24892   */\n      tag_670\n      jump\t// in\n    tag_691:\n        /* \"#utility.yul\":23934:24899   */\n      swap9\n      swap8\n      pop\n      pop\n      pop\n      pop\n      pop\n      pop\n      pop\n      pop\n      jump\t// out\n        /* \"#utility.yul\":24905:25115   */\n    tag_52:\n        /* \"#utility.yul\":24992:24996   */\n      0x00\n        /* \"#utility.yul\":25030:25032   */\n      0x20\n        /* \"#utility.yul\":25019:25028   */\n      dup3\n        /* \"#utility.yul\":25015:25033   */\n      add\n        /* \"#utility.yul\":25007:25033   */\n      swap1\n      pop\n        /* \"#utility.yul\":25043:25108   */\n      tag_693\n        /* \"#utility.yul\":25105:25106   */\n      0x00\n        /* \"#utility.yul\":25094:25103   */\n      dup4\n        /* \"#utility.yul\":25090:25107   */\n      add\n        /* \"#utility.yul\":25081:25087   */\n      dup5\n        /* \"#utility.yul\":25043:25108   */\n      tag_526\n      jump\t// in\n    tag_693:\n        /* \"#utility.yul\":24905:25115   */\n      swap3\n      swap2\n      pop\n      pop\n      jump\t// out\n        /* \"#utility.yul\":25121:25434   */\n    tag_25:\n        /* \"#utility.yul\":25234:25238   */\n      0x00\n        /* \"#utility.yul\":25272:25274   */\n      0x20\n        /* \"#utility.yul\":25261:25270   */\n      dup3\n        /* \"#utility.yul\":25257:25275   */\n      add\n        /* \"#utility.yul\":25249:25275   */\n      swap1\n      pop\n        /* \"#utility.yul\":25321:25330   */\n      dup2\n        /* \"#utility.yul\":25315:25319   */\n      dup2\n        /* \"#utility.yul\":25311:25331   */\n      sub\n        /* \"#utility.yul\":25307:25308   */\n      0x00\n        /* \"#utility.yul\":25296:25305   */\n      dup4\n        /* \"#utility.yul\":25292:25309   */\n      add\n        /* \"#utility.yul\":25285:25332   */\n      mstore\n        /* \"#utility.yul\":25349:25427   */\n      tag_695\n        /* \"#utility.yul\":25422:25426   */\n      dup2\n        /* \"#utility.yul\":25413:25419   */\n      dup5\n        /* \"#utility.yul\":25349:25427   */\n      tag_541\n      jump\t// in\n    tag_695:\n        /* \"#utility.yul\":25341:25427   */\n      swap1\n      pop\n        /* \"#utility.yul\":25121:25434   */\n      swap3\n      swap2\n      pop\n      pop\n      jump\t// out\n        /* \"#utility.yul\":25440:25859   */\n    tag_237:\n        /* \"#utility.yul\":25606:25610   */\n      0x00\n        /* \"#utility.yul\":25644:25646   */\n      0x20\n        /* \"#utility.yul\":25633:25642   */\n      dup3\n        /* \"#utility.yul\":25629:25647   */\n      add\n        /* \"#utility.yul\":25621:25647   */\n      swap1\n      pop\n        /* \"#utility.yul\":25693:25702   */\n      dup2\n        /* \"#utility.yul\":25687:25691   */\n      dup2\n        /* \"#utility.yul\":25683:25703   */\n      sub\n        /* \"#utility.yul\":25679:25680   */\n      0x00\n        /* \"#utility.yul\":25668:25677   */\n      dup4\n        /* \"#utility.yul\":25664:25681   */\n      add\n        /* \"#utility.yul\":25657:25704   */\n      mstore\n        /* \"#utility.yul\":25721:25852   */\n      tag_697\n        /* \"#utility.yul\":25847:25851   */\n      dup2\n        /* \"#utility.yul\":25721:25852   */\n      tag_567\n      jump\t// in\n    tag_697:\n        /* \"#utility.yul\":25713:25852   */\n      swap1\n      pop\n        /* \"#utility.yul\":25440:25859   */\n      swap2\n      swap1\n      pop\n      jump\t// out\n        /* \"#utility.yul\":25865:26284   */\n    tag_92:\n        /* \"#utility.yul\":26031:26035   */\n      0x00\n        /* \"#utility.yul\":26069:26071   */\n      0x20\n        /* \"#utility.yul\":26058:26067   */\n      dup3\n        /* \"#utility.yul\":26054:26072   */\n      add\n        /* \"#utility.yul\":26046:26072   */\n      swap1\n      pop\n        /* \"#utility.yul\":26118:26127   */\n      dup2\n        /* \"#utility.yul\":26112:26116   */\n      dup2\n        /* \"#utility.yul\":26108:26128   */\n      sub\n        /* \"#utility.yul\":26104:26105   */\n      0x00\n        /* \"#utility.yul\":26093:26102   */\n      dup4\n        /* \"#utility.yul\":26089:26106   */\n      add\n        /* \"#utility.yul\":26082:26129   */\n      mstore\n        /* \"#utility.yul\":26146:26277   */\n      tag_699\n        /* \"#utility.yul\":26272:26276   */\n      dup2\n        /* \"#utility.yul\":26146:26277   */\n      tag_572\n      jump\t// in\n    tag_699:\n        /* \"#utility.yul\":26138:26277   */\n      swap1\n      pop\n        /* \"#utility.yul\":25865:26284   */\n      swap2\n      swap1\n      pop\n      jump\t// out\n        /* \"#utility.yul\":26290:26709   */\n    tag_315:\n        /* \"#utility.yul\":26456:26460   */\n      0x00\n        /* \"#utility.yul\":26494:26496   */\n      0x20\n        /* \"#utility.yul\":26483:26492   */\n      dup3\n        /* \"#utility.yul\":26479:26497   */\n      add\n        /* \"#utility.yul\":26471:26497   */\n      swap1\n      pop\n        /* \"#utility.yul\":26543:26552   */\n      dup2\n        /* \"#utility.yul\":26537:26541   */\n      dup2\n        /* \"#utility.yul\":26533:26553   */\n      sub\n        /* \"#utility.yul\":26529:26530   */\n      0x00\n        /* \"#utility.yul\":26518:26527   */\n      dup4\n        /* \"#utility.yul\":26514:26531   */\n      add\n        /* \"#utility.yul\":26507:26554   */\n      mstore\n        /* \"#utility.yul\":26571:26702   */\n      tag_701\n        /* \"#utility.yul\":26697:26701   */\n      dup2\n        /* \"#utility.yul\":26571:26702   */\n      tag_577\n      jump\t// in\n    tag_701:\n        /* \"#utility.yul\":26563:26702   */\n      swap1\n      pop\n        /* \"#utility.yul\":26290:26709   */\n      swap2\n      swap1\n      pop\n      jump\t// out\n        /* \"#utility.yul\":26715:27134   */\n    tag_134:\n        /* \"#utility.yul\":26881:26885   */\n      0x00\n        /* \"#utility.yul\":26919:26921   */\n      0x20\n        /* \"#utility.yul\":26908:26917   */\n      dup3\n        /* \"#utility.yul\":26904:26922   */\n      add\n        /* \"#utility.yul\":26896:26922   */\n      swap1\n      pop\n        /* \"#utility.yul\":26968:26977   */\n      dup2\n        /* \"#utility.yul\":26962:26966   */\n      dup2\n        /* \"#utility.yul\":26958:26978   */\n      sub\n        /* \"#utility.yul\":26954:26955   */\n      0x00\n        /* \"#utility.yul\":26943:26952   */\n      dup4\n        /* \"#utility.yul\":26939:26956   */\n      add\n        /* \"#utility.yul\":26932:26979   */\n      mstore\n        /* \"#utility.yul\":26996:27127   */\n      tag_703\n        /* \"#utility.yul\":27122:27126   */\n      dup2\n        /* \"#utility.yul\":26996:27127   */\n      tag_582\n      jump\t// in\n    tag_703:\n        /* \"#utility.yul\":26988:27127   */\n      swap1\n      pop\n        /* \"#utility.yul\":26715:27134   */\n      swap2\n      swap1\n      pop\n      jump\t// out\n        /* \"#utility.yul\":27140:27559   */\n    tag_271:\n        /* \"#utility.yul\":27306:27310   */\n      0x00\n        /* \"#utility.yul\":27344:27346   */\n      0x20\n        /* \"#utility.yul\":27333:27342   */\n      dup3\n        /* \"#utility.yul\":27329:27347   */\n      add\n        /* \"#utility.yul\":27321:27347   */\n      swap1\n      pop\n        /* \"#utility.yul\":27393:27402   */\n      dup2\n        /* \"#utility.yul\":27387:27391   */\n      dup2\n        /* \"#utility.yul\":27383:27403   */\n      sub\n        /* \"#utility.yul\":27379:27380   */\n      0x00\n        /* \"#utility.yul\":27368:27377   */\n      dup4\n        /* \"#utility.yul\":27364:27381   */\n      add\n        /* \"#utility.yul\":27357:27404   */\n      mstore\n        /* \"#utility.yul\":27421:27552   */\n      tag_705\n        /* \"#utility.yul\":27547:27551   */\n      dup2\n        /* \"#utility.yul\":27421:27552   */\n      tag_587\n      jump\t// in\n    tag_705:\n        /* \"#utility.yul\":27413:27552   */\n      swap1\n      pop\n        /* \"#utility.yul\":27140:27559   */\n      swap2\n      swap1\n      pop\n      jump\t// out\n        /* \"#utility.yul\":27565:27984   */\n    tag_190:\n        /* \"#utility.yul\":27731:27735   */\n      0x00\n        /* \"#utility.yul\":27769:27771   */\n      0x20\n        /* \"#utility.yul\":27758:27767   */\n      dup3\n        /* \"#utility.yul\":27754:27772   */\n      add\n        /* \"#utility.yul\":27746:27772   */\n      swap1\n      pop\n        /* \"#utility.yul\":27818:27827   */\n      dup2\n        /* \"#utility.yul\":27812:27816   */\n      dup2\n        /* \"#utility.yul\":27808:27828   */\n      sub\n        /* \"#utility.yul\":27804:27805   */\n      0x00\n        /* \"#utility.yul\":27793:27802   */\n      dup4\n        /* \"#utility.yul\":27789:27806   */\n      add\n        /* \"#utility.yul\":27782:27829   */\n      mstore\n        /* \"#utility.yul\":27846:27977   */\n      tag_707\n        /* \"#utility.yul\":27972:27976   */\n      dup2\n        /* \"#utility.yul\":27846:27977   */\n      tag_592\n      jump\t// in\n    tag_707:\n        /* \"#utility.yul\":27838:27977   */\n      swap1\n      pop\n        /* \"#utility.yul\":27565:27984   */\n      swap2\n      swap1\n      pop\n      jump\t// out\n        /* \"#utility.yul\":27990:28409   */\n    tag_131:\n        /* \"#utility.yul\":28156:28160   */\n      0x00\n        /* \"#utility.yul\":28194:28196   */\n      0x20\n        /* \"#utility.yul\":28183:28192   */\n      dup3\n        /* \"#utility.yul\":28179:28197   */\n      add\n        /* \"#utility.yul\":28171:28197   */\n      swap1\n      pop\n        /* \"#utility.yul\":28243:28252   */\n      dup2\n        /* \"#utility.yul\":28237:28241   */\n      dup2\n        /* \"#utility.yul\":28233:28253   */\n      sub\n        /* \"#utility.yul\":28229:28230   */\n      0x00\n        /* \"#utility.yul\":28218:28227   */\n      dup4\n        /* \"#utility.yul\":28214:28231   */\n      add\n        /* \"#utility.yul\":28207:28254   */\n      mstore\n        /* \"#utility.yul\":28271:28402   */\n      tag_709\n        /* \"#utility.yul\":28397:28401   */\n      dup2\n        /* \"#utility.yul\":28271:28402   */\n      tag_597\n      jump\t// in\n    tag_709:\n        /* \"#utility.yul\":28263:28402   */\n      swap1\n      pop\n        /* \"#utility.yul\":27990:28409   */\n      swap2\n      swap1\n      pop\n      jump\t// out\n        /* \"#utility.yul\":28415:28834   */\n    tag_89:\n        /* \"#utility.yul\":28581:28585   */\n      0x00\n        /* \"#utility.yul\":28619:28621   */\n      0x20\n        /* \"#utility.yul\":28608:28617   */\n      dup3\n        /* \"#utility.yul\":28604:28622   */\n      add\n        /* \"#utility.yul\":28596:28622   */\n      swap1\n      pop\n        /* \"#utility.yul\":28668:28677   */\n      dup2\n        /* \"#utility.yul\":28662:28666   */\n      dup2\n        /* \"#utility.yul\":28658:28678   */\n      sub\n        /* \"#utility.yul\":28654:28655   */\n      0x00\n        /* \"#utility.yul\":28643:28652   */\n      dup4\n        /* \"#utility.yul\":28639:28656   */\n      add\n        /* \"#utility.yul\":28632:28679   */\n      mstore\n        /* \"#utility.yul\":28696:28827   */\n      tag_711\n        /* \"#utility.yul\":28822:28826   */\n      dup2\n        /* \"#utility.yul\":28696:28827   */\n      tag_602\n      jump\t// in\n    tag_711:\n        /* \"#utility.yul\":28688:28827   */\n      swap1\n      pop\n        /* \"#utility.yul\":28415:28834   */\n      swap2\n      swap1\n      pop\n      jump\t// out\n        /* \"#utility.yul\":28840:29259   */\n    tag_261:\n        /* \"#utility.yul\":29006:29010   */\n      0x00\n        /* \"#utility.yul\":29044:29046   */\n      0x20\n        /* \"#utility.yul\":29033:29042   */\n      dup3\n        /* \"#utility.yul\":29029:29047   */\n      add\n        /* \"#utility.yul\":29021:29047   */\n      swap1\n      pop\n        /* \"#utility.yul\":29093:29102   */\n      dup2\n        /* \"#utility.yul\":29087:29091   */\n      dup2\n        /* \"#utility.yul\":29083:29103   */\n      sub\n        /* \"#utility.yul\":29079:29080   */\n      0x00\n        /* \"#utility.yul\":29068:29077   */\n      dup4\n        /* \"#utility.yul\":29064:29081   */\n      add\n        /* \"#utility.yul\":29057:29104   */\n      mstore\n        /* \"#utility.yul\":29121:29252   */\n      tag_713\n        /* \"#utility.yul\":29247:29251   */\n      dup2\n        /* \"#utility.yul\":29121:29252   */\n      tag_607\n      jump\t// in\n    tag_713:\n        /* \"#utility.yul\":29113:29252   */\n      swap1\n      pop\n        /* \"#utility.yul\":28840:29259   */\n      swap2\n      swap1\n      pop\n      jump\t// out\n        /* \"#utility.yul\":29265:29684   */\n    tag_128:\n        /* \"#utility.yul\":29431:29435   */\n      0x00\n        /* \"#utility.yul\":29469:29471   */\n      0x20\n        /* \"#utility.yul\":29458:29467   */\n      dup3\n        /* \"#utility.yul\":29454:29472   */\n      add\n        /* \"#utility.yul\":29446:29472   */\n      swap1\n      pop\n        /* \"#utility.yul\":29518:29527   */\n      dup2\n        /* \"#utility.yul\":29512:29516   */\n      dup2\n        /* \"#utility.yul\":29508:29528   */\n      sub\n        /* \"#utility.yul\":29504:29505   */\n      0x00\n        /* \"#utility.yul\":29493:29502   */\n      dup4\n        /* \"#utility.yul\":29489:29506   */\n      add\n        /* \"#utility.yul\":29482:29529   */\n      mstore\n        /* \"#utility.yul\":29546:29677   */\n      tag_715\n        /* \"#utility.yul\":29672:29676   */\n      dup2\n        /* \"#utility.yul\":29546:29677   */\n      tag_612\n      jump\t// in\n    tag_715:\n        /* \"#utility.yul\":29538:29677   */\n      swap1\n      pop\n        /* \"#utility.yul\":29265:29684   */\n      swap2\n      swap1\n      pop\n      jump\t// out\n        /* \"#utility.yul\":29690:30109   */\n    tag_152:\n        /* \"#utility.yul\":29856:29860   */\n      0x00\n        /* \"#utility.yul\":29894:29896   */\n      0x20\n        /* \"#utility.yul\":29883:29892   */\n      dup3\n        /* \"#utility.yul\":29879:29897   */\n      add\n        /* \"#utility.yul\":29871:29897   */\n      swap1\n      pop\n        /* \"#utility.yul\":29943:29952   */\n      dup2\n        /* \"#utility.yul\":29937:29941   */\n      dup2\n        /* \"#utility.yul\":29933:29953   */\n      sub\n        /* \"#utility.yul\":29929:29930   */\n      0x00\n        /* \"#utility.yul\":29918:29927   */\n      dup4\n        /* \"#utility.yul\":29914:29931   */\n      add\n        /* \"#utility.yul\":29907:29954   */\n      mstore\n        /* \"#utility.yul\":29971:30102   */\n      tag_717\n        /* \"#utility.yul\":30097:30101   */\n      dup2\n        /* \"#utility.yul\":29971:30102   */\n      tag_617\n      jump\t// in\n    tag_717:\n        /* \"#utility.yul\":29963:30102   */\n      swap1\n      pop\n        /* \"#utility.yul\":29690:30109   */\n      swap2\n      swap1\n      pop\n      jump\t// out\n        /* \"#utility.yul\":30115:30534   */\n    tag_95:\n        /* \"#utility.yul\":30281:30285   */\n      0x00\n        /* \"#utility.yul\":30319:30321   */\n      0x20\n        /* \"#utility.yul\":30308:30317   */\n      dup3\n        /* \"#utility.yul\":30304:30322   */\n      add\n        /* \"#utility.yul\":30296:30322   */\n      swap1\n      pop\n        /* \"#utility.yul\":30368:30377   */\n      dup2\n        /* \"#utility.yul\":30362:30366   */\n      dup2\n        /* \"#utility.yul\":30358:30378   */\n      sub\n        /* \"#utility.yul\":30354:30355   */\n      0x00\n        /* \"#utility.yul\":30343:30352   */\n      dup4\n        /* \"#utility.yul\":30339:30356   */\n      add\n        /* \"#utility.yul\":30332:30379   */\n      mstore\n        /* \"#utility.yul\":30396:30527   */\n      tag_719\n        /* \"#utility.yul\":30522:30526   */\n      dup2\n        /* \"#utility.yul\":30396:30527   */\n      tag_622\n      jump\t// in\n    tag_719:\n        /* \"#utility.yul\":30388:30527   */\n      swap1\n      pop\n        /* \"#utility.yul\":30115:30534   */\n      swap2\n      swap1\n      pop\n      jump\t// out\n        /* \"#utility.yul\":30540:30959   */\n    tag_312:\n        /* \"#utility.yul\":30706:30710   */\n      0x00\n        /* \"#utility.yul\":30744:30746   */\n      0x20\n        /* \"#utility.yul\":30733:30742   */\n      dup3\n        /* \"#utility.yul\":30729:30747   */\n      add\n        /* \"#utility.yul\":30721:30747   */\n      swap1\n      pop\n        /* \"#utility.yul\":30793:30802   */\n      dup2\n        /* \"#utility.yul\":30787:30791   */\n      dup2\n        /* \"#utility.yul\":30783:30803   */\n      sub\n        /* \"#utility.yul\":30779:30780   */\n      0x00\n        /* \"#utility.yul\":30768:30777   */\n      dup4\n        /* \"#utility.yul\":30764:30781   */\n      add\n        /* \"#utility.yul\":30757:30804   */\n      mstore\n        /* \"#utility.yul\":30821:30952   */\n      tag_721\n        /* \"#utility.yul\":30947:30951   */\n      dup2\n        /* \"#utility.yul\":30821:30952   */\n      tag_627\n      jump\t// in\n    tag_721:\n        /* \"#utility.yul\":30813:30952   */\n      swap1\n      pop\n        /* \"#utility.yul\":30540:30959   */\n      swap2\n      swap1\n      pop\n      jump\t// out\n        /* \"#utility.yul\":30965:31384   */\n    tag_137:\n        /* \"#utility.yul\":31131:31135   */\n      0x00\n        /* \"#utility.yul\":31169:31171   */\n      0x20\n        /* \"#utility.yul\":31158:31167   */\n      dup3\n        /* \"#utility.yul\":31154:31172   */\n      add\n        /* \"#utility.yul\":31146:31172   */\n      swap1\n      pop\n        /* \"#utility.yul\":31218:31227   */\n      dup2\n        /* \"#utility.yul\":31212:31216   */\n      dup2\n        /* \"#utility.yul\":31208:31228   */\n      sub\n        /* \"#utility.yul\":31204:31205   */\n      0x00\n        /* \"#utility.yul\":31193:31202   */\n      dup4\n        /* \"#utility.yul\":31189:31206   */\n      add\n        /* \"#utility.yul\":31182:31229   */\n      mstore\n        /* \"#utility.yul\":31246:31377   */\n      tag_723\n        /* \"#utility.yul\":31372:31376   */\n      dup2\n        /* \"#utility.yul\":31246:31377   */\n      tag_632\n      jump\t// in\n    tag_723:\n        /* \"#utility.yul\":31238:31377   */\n      swap1\n      pop\n        /* \"#utility.yul\":30965:31384   */\n      swap2\n      swap1\n      pop\n      jump\t// out\n        /* \"#utility.yul\":31390:32029   */\n    tag_119:\n        /* \"#utility.yul\":31612:31616   */\n      0x00\n        /* \"#utility.yul\":31650:31652   */\n      0x60\n        /* \"#utility.yul\":31639:31648   */\n      dup3\n        /* \"#utility.yul\":31635:31653   */\n      add\n        /* \"#utility.yul\":31627:31653   */\n      swap1\n      pop\n        /* \"#utility.yul\":31699:31708   */\n      dup2\n        /* \"#utility.yul\":31693:31697   */\n      dup2\n        /* \"#utility.yul\":31689:31709   */\n      sub\n        /* \"#utility.yul\":31685:31686   */\n      0x00\n        /* \"#utility.yul\":31674:31683   */\n      dup4\n        /* \"#utility.yul\":31670:31687   */\n      add\n        /* \"#utility.yul\":31663:31710   */\n      mstore\n        /* \"#utility.yul\":31727:31858   */\n      tag_725\n        /* \"#utility.yul\":31853:31857   */\n      dup2\n        /* \"#utility.yul\":31727:31858   */\n      tag_637\n      jump\t// in\n    tag_725:\n        /* \"#utility.yul\":31719:31858   */\n      swap1\n      pop\n        /* \"#utility.yul\":31868:31940   */\n      tag_726\n        /* \"#utility.yul\":31936:31938   */\n      0x20\n        /* \"#utility.yul\":31925:31934   */\n      dup4\n        /* \"#utility.yul\":31921:31939   */\n      add\n        /* \"#utility.yul\":31912:31918   */\n      dup6\n        /* \"#utility.yul\":31868:31940   */\n      tag_495\n      jump\t// in\n    tag_726:\n        /* \"#utility.yul\":31950:32022   */\n      tag_727\n        /* \"#utility.yul\":32018:32020   */\n      0x40\n        /* \"#utility.yul\":32007:32016   */\n      dup4\n        /* \"#utility.yul\":32003:32021   */\n      add\n        /* \"#utility.yul\":31994:32000   */\n      dup5\n        /* \"#utility.yul\":31950:32022   */\n      tag_670\n      jump\t// in\n    tag_727:\n        /* \"#utility.yul\":31390:32029   */\n      swap4\n      swap3\n      pop\n      pop\n      pop\n      jump\t// out\n        /* \"#utility.yul\":32035:32454   */\n    tag_292:\n        /* \"#utility.yul\":32201:32205   */\n      0x00\n        /* \"#utility.yul\":32239:32241   */\n      0x20\n        /* \"#utility.yul\":32228:32237   */\n      dup3\n        /* \"#utility.yul\":32224:32242   */\n      add\n        /* \"#utility.yul\":32216:32242   */\n      swap1\n      pop\n        /* \"#utility.yul\":32288:32297   */\n      dup2\n        /* \"#utility.yul\":32282:32286   */\n      dup2\n        /* \"#utility.yul\":32278:32298   */\n      sub\n        /* \"#utility.yul\":32274:32275   */\n      0x00\n        /* \"#utility.yul\":32263:32272   */\n      dup4\n        /* \"#utility.yul\":32259:32276   */\n      add\n        /* \"#utility.yul\":32252:32299   */\n      mstore\n        /* \"#utility.yul\":32316:32447   */\n      tag_729\n        /* \"#utility.yul\":32442:32446   */\n      dup2\n        /* \"#utility.yul\":32316:32447   */\n      tag_642\n      jump\t// in\n    tag_729:\n        /* \"#utility.yul\":32308:32447   */\n      swap1\n      pop\n        /* \"#utility.yul\":32035:32454   */\n      swap2\n      swap1\n      pop\n      jump\t// out\n        /* \"#utility.yul\":32460:33099   */\n    tag_163:\n        /* \"#utility.yul\":32682:32686   */\n      0x00\n        /* \"#utility.yul\":32720:32722   */\n      0x60\n        /* \"#utility.yul\":32709:32718   */\n      dup3\n        /* \"#utility.yul\":32705:32723   */\n      add\n        /* \"#utility.yul\":32697:32723   */\n      swap1\n      pop\n        /* \"#utility.yul\":32769:32778   */\n      dup2\n        /* \"#utility.yul\":32763:32767   */\n      dup2\n        /* \"#utility.yul\":32759:32779   */\n      sub\n        /* \"#utility.yul\":32755:32756   */\n      0x00\n        /* \"#utility.yul\":32744:32753   */\n      dup4\n        /* \"#utility.yul\":32740:32757   */\n      add\n        /* \"#utility.yul\":32733:32780   */\n      mstore\n        /* \"#utility.yul\":32797:32928   */\n      tag_731\n        /* \"#utility.yul\":32923:32927   */\n      dup2\n        /* \"#utility.yul\":32797:32928   */\n      tag_647\n      jump\t// in\n    tag_731:\n        /* \"#utility.yul\":32789:32928   */\n      swap1\n      pop\n        /* \"#utility.yul\":32938:33010   */\n      tag_732\n        /* \"#utility.yul\":33006:33008   */\n      0x20\n        /* \"#utility.yul\":32995:33004   */\n      dup4\n        /* \"#utility.yul\":32991:33009   */\n      add\n        /* \"#utility.yul\":32982:32988   */\n      dup6\n        /* \"#utility.yul\":32938:33010   */\n      tag_495\n      jump\t// in\n    tag_732:\n        /* \"#utility.yul\":33020:33092   */\n      tag_733\n        /* \"#utility.yul\":33088:33090   */\n      0x40\n        /* \"#utility.yul\":33077:33086   */\n      dup4\n        /* \"#utility.yul\":33073:33091   */\n      add\n        /* \"#utility.yul\":33064:33070   */\n      dup5\n        /* \"#utility.yul\":33020:33092   */\n      tag_670\n      jump\t// in\n    tag_733:\n        /* \"#utility.yul\":32460:33099   */\n      swap4\n      swap3\n      pop\n      pop\n      pop\n      jump\t// out\n        /* \"#utility.yul\":33105:33524   */\n    tag_295:\n        /* \"#utility.yul\":33271:33275   */\n      0x00\n        /* \"#utility.yul\":33309:33311   */\n      0x20\n        /* \"#utility.yul\":33298:33307   */\n      dup3\n        /* \"#utility.yul\":33294:33312   */\n      add\n        /* \"#utility.yul\":33286:33312   */\n      swap1\n      pop\n        /* \"#utility.yul\":33358:33367   */\n      dup2\n        /* \"#utility.yul\":33352:33356   */\n      dup2\n        /* \"#utility.yul\":33348:33368   */\n      sub\n        /* \"#utility.yul\":33344:33345   */\n      0x00\n        /* \"#utility.yul\":33333:33342   */\n      dup4\n        /* \"#utility.yul\":33329:33346   */\n      add\n        /* \"#utility.yul\":33322:33369   */\n      mstore\n        /* \"#utility.yul\":33386:33517   */\n      tag_735\n        /* \"#utility.yul\":33512:33516   */\n      dup2\n        /* \"#utility.yul\":33386:33517   */\n      tag_652\n      jump\t// in\n    tag_735:\n        /* \"#utility.yul\":33378:33517   */\n      swap1\n      pop\n        /* \"#utility.yul\":33105:33524   */\n      swap2\n      swap1\n      pop\n      jump\t// out\n        /* \"#utility.yul\":33530:33949   */\n    tag_305:\n        /* \"#utility.yul\":33696:33700   */\n      0x00\n        /* \"#utility.yul\":33734:33736   */\n      0x20\n        /* \"#utility.yul\":33723:33732   */\n      dup3\n        /* \"#utility.yul\":33719:33737   */\n      add\n        /* \"#utility.yul\":33711:33737   */\n      swap1\n      pop\n        /* \"#utility.yul\":33783:33792   */\n      dup2\n        /* \"#utility.yul\":33777:33781   */\n      dup2\n        /* \"#utility.yul\":33773:33793   */\n      sub\n        /* \"#utility.yul\":33769:33770   */\n      0x00\n        /* \"#utility.yul\":33758:33767   */\n      dup4\n        /* \"#utility.yul\":33754:33771   */\n      add\n        /* \"#utility.yul\":33747:33794   */\n      mstore\n        /* \"#utility.yul\":33811:33942   */\n      tag_737\n        /* \"#utility.yul\":33937:33941   */\n      dup2\n        /* \"#utility.yul\":33811:33942   */\n      tag_657\n      jump\t// in\n    tag_737:\n        /* \"#utility.yul\":33803:33942   */\n      swap1\n      pop\n        /* \"#utility.yul\":33530:33949   */\n      swap2\n      swap1\n      pop\n      jump\t// out\n        /* \"#utility.yul\":33955:34287   */\n    tag_71:\n        /* \"#utility.yul\":34076:34080   */\n      0x00\n        /* \"#utility.yul\":34114:34116   */\n      0x40\n        /* \"#utility.yul\":34103:34112   */\n      dup3\n        /* \"#utility.yul\":34099:34117   */\n      add\n        /* \"#utility.yul\":34091:34117   */\n      swap1\n      pop\n        /* \"#utility.yul\":34127:34198   */\n      tag_739\n        /* \"#utility.yul\":34195:34196   */\n      0x00\n        /* \"#utility.yul\":34184:34193   */\n      dup4\n        /* \"#utility.yul\":34180:34197   */\n      add\n        /* \"#utility.yul\":34171:34177   */\n      dup6\n        /* \"#utility.yul\":34127:34198   */\n      tag_662\n      jump\t// in\n    tag_739:\n        /* \"#utility.yul\":34208:34280   */\n      tag_740\n        /* \"#utility.yul\":34276:34278   */\n      0x20\n        /* \"#utility.yul\":34265:34274   */\n      dup4\n        /* \"#utility.yul\":34261:34279   */\n      add\n        /* \"#utility.yul\":34252:34258   */\n      dup5\n        /* \"#utility.yul\":34208:34280   */\n      tag_662\n      jump\t// in\n    tag_740:\n        /* \"#utility.yul\":33955:34287   */\n      swap4\n      swap3\n      pop\n      pop\n      pop\n      jump\t// out\n        /* \"#utility.yul\":34293:34515   */\n    tag_29:\n        /* \"#utility.yul\":34386:34390   */\n      0x00\n        /* \"#utility.yul\":34424:34426   */\n      0x20\n        /* \"#utility.yul\":34413:34422   */\n      dup3\n        /* \"#utility.yul\":34409:34427   */\n      add\n        /* \"#utility.yul\":34401:34427   */\n      swap1\n      pop\n        /* \"#utility.yul\":34437:34508   */\n      tag_742\n        /* \"#utility.yul\":34505:34506   */\n      0x00\n        /* \"#utility.yul\":34494:34503   */\n      dup4\n        /* \"#utility.yul\":34490:34507   */\n      add\n        /* \"#utility.yul\":34481:34487   */\n      dup5\n        /* \"#utility.yul\":34437:34508   */\n      tag_670\n      jump\t// in\n    tag_742:\n        /* \"#utility.yul\":34293:34515   */\n      swap3\n      swap2\n      pop\n      pop\n      jump\t// out\n        /* \"#utility.yul\":34521:35062   */\n    tag_66:\n        /* \"#utility.yul\":34692:34696   */\n      0x00\n        /* \"#utility.yul\":34730:34733   */\n      0x80\n        /* \"#utility.yul\":34719:34728   */\n      dup3\n        /* \"#utility.yul\":34715:34734   */\n      add\n        /* \"#utility.yul\":34707:34734   */\n      swap1\n      pop\n        /* \"#utility.yul\":34744:34815   */\n      tag_744\n        /* \"#utility.yul\":34812:34813   */\n      0x00\n        /* \"#utility.yul\":34801:34810   */\n      dup4\n        /* \"#utility.yul\":34797:34814   */\n      add\n        /* \"#utility.yul\":34788:34794   */\n      dup8\n        /* \"#utility.yul\":34744:34815   */\n      tag_670\n      jump\t// in\n    tag_744:\n        /* \"#utility.yul\":34825:34897   */\n      tag_745\n        /* \"#utility.yul\":34893:34895   */\n      0x20\n        /* \"#utility.yul\":34882:34891   */\n      dup4\n        /* \"#utility.yul\":34878:34896   */\n      add\n        /* \"#utility.yul\":34869:34875   */\n      dup7\n        /* \"#utility.yul\":34825:34897   */\n      tag_495\n      jump\t// in\n    tag_745:\n        /* \"#utility.yul\":34907:34973   */\n      tag_746\n        /* \"#utility.yul\":34969:34971   */\n      0x40\n        /* \"#utility.yul\":34958:34967   */\n      dup4\n        /* \"#utility.yul\":34954:34972   */\n      add\n        /* \"#utility.yul\":34945:34951   */\n      dup6\n        /* \"#utility.yul\":34907:34973   */\n      tag_526\n      jump\t// in\n    tag_746:\n        /* \"#utility.yul\":34983:35055   */\n      tag_747\n        /* \"#utility.yul\":35051:35053   */\n      0x60\n        /* \"#utility.yul\":35040:35049   */\n      dup4\n        /* \"#utility.yul\":35036:35054   */\n      add\n        /* \"#utility.yul\":35027:35033   */\n      dup5\n        /* \"#utility.yul\":34983:35055   */\n      tag_670\n      jump\t// in\n    tag_747:\n        /* \"#utility.yul\":34521:35062   */\n      swap6\n      swap5\n      pop\n      pop\n      pop\n      pop\n      pop\n      jump\t// out\n        /* \"#utility.yul\":35068:36411   */\n    tag_101:\n        /* \"#utility.yul\":35481:35485   */\n      0x00\n        /* \"#utility.yul\":35519:35522   */\n      0xe0\n        /* \"#utility.yul\":35508:35517   */\n      dup3\n        /* \"#utility.yul\":35504:35523   */\n      add\n        /* \"#utility.yul\":35496:35523   */\n      swap1\n      pop\n        /* \"#utility.yul\":35533:35604   */\n      tag_749\n        /* \"#utility.yul\":35601:35602   */\n      0x00\n        /* \"#utility.yul\":35590:35599   */\n      dup4\n        /* \"#utility.yul\":35586:35603   */\n      add\n        /* \"#utility.yul\":35577:35583   */\n      dup12\n        /* \"#utility.yul\":35533:35604   */\n      tag_670\n      jump\t// in\n    tag_749:\n        /* \"#utility.yul\":35651:35660   */\n      dup2\n        /* \"#utility.yul\":35645:35649   */\n      dup2\n        /* \"#utility.yul\":35641:35661   */\n      sub\n        /* \"#utility.yul\":35636:35638   */\n      0x20\n        /* \"#utility.yul\":35625:35634   */\n      dup4\n        /* \"#utility.yul\":35621:35639   */\n      add\n        /* \"#utility.yul\":35614:35662   */\n      mstore\n        /* \"#utility.yul\":35679:35787   */\n      tag_750\n        /* \"#utility.yul\":35782:35786   */\n      dup2\n        /* \"#utility.yul\":35773:35779   */\n      dup11\n        /* \"#utility.yul\":35679:35787   */\n      tag_498\n      jump\t// in\n    tag_750:\n        /* \"#utility.yul\":35671:35787   */\n      swap1\n      pop\n        /* \"#utility.yul\":35797:35869   */\n      tag_751\n        /* \"#utility.yul\":35865:35867   */\n      0x40\n        /* \"#utility.yul\":35854:35863   */\n      dup4\n        /* \"#utility.yul\":35850:35868   */\n      add\n        /* \"#utility.yul\":35841:35847   */\n      dup10\n        /* \"#utility.yul\":35797:35869   */\n      tag_495\n      jump\t// in\n    tag_751:\n        /* \"#utility.yul\":35879:35951   */\n      tag_752\n        /* \"#utility.yul\":35947:35949   */\n      0x60\n        /* \"#utility.yul\":35936:35945   */\n      dup4\n        /* \"#utility.yul\":35932:35950   */\n      add\n        /* \"#utility.yul\":35923:35929   */\n      dup9\n        /* \"#utility.yul\":35879:35951   */\n      tag_670\n      jump\t// in\n    tag_752:\n        /* \"#utility.yul\":35961:36034   */\n      tag_753\n        /* \"#utility.yul\":36029:36032   */\n      0x80\n        /* \"#utility.yul\":36018:36027   */\n      dup4\n        /* \"#utility.yul\":36014:36033   */\n      add\n        /* \"#utility.yul\":36005:36011   */\n      dup8\n        /* \"#utility.yul\":35961:36034   */\n      tag_670\n      jump\t// in\n    tag_753:\n        /* \"#utility.yul\":36082:36091   */\n      dup2\n        /* \"#utility.yul\":36076:36080   */\n      dup2\n        /* \"#utility.yul\":36072:36092   */\n      sub\n        /* \"#utility.yul\":36066:36069   */\n      0xa0\n        /* \"#utility.yul\":36055:36064   */\n      dup4\n        /* \"#utility.yul\":36051:36070   */\n      add\n        /* \"#utility.yul\":36044:36093   */\n      mstore\n        /* \"#utility.yul\":36110:36188   */\n      tag_754\n        /* \"#utility.yul\":36183:36187   */\n      dup2\n        /* \"#utility.yul\":36174:36180   */\n      dup7\n        /* \"#utility.yul\":36110:36188   */\n      tag_541\n      jump\t// in\n    tag_754:\n        /* \"#utility.yul\":36102:36188   */\n      swap1\n      pop\n        /* \"#utility.yul\":36236:36245   */\n      dup2\n        /* \"#utility.yul\":36230:36234   */\n      dup2\n        /* \"#utility.yul\":36226:36246   */\n      sub\n        /* \"#utility.yul\":36220:36223   */\n      0xc0\n        /* \"#utility.yul\":36209:36218   */\n      dup4\n        /* \"#utility.yul\":36205:36224   */\n      add\n        /* \"#utility.yul\":36198:36247   */\n      mstore\n        /* \"#utility.yul\":36264:36404   */\n      tag_755\n        /* \"#utility.yul\":36399:36403   */\n      dup2\n        /* \"#utility.yul\":36390:36396   */\n      dup5\n        /* \"#utility.yul\":36382:36388   */\n      dup7\n        /* \"#utility.yul\":36264:36404   */\n      tag_512\n      jump\t// in\n    tag_755:\n        /* \"#utility.yul\":36256:36404   */\n      swap1\n      pop\n        /* \"#utility.yul\":35068:36411   */\n      swap10\n      swap9\n      pop\n      pop\n      pop\n      pop\n      pop\n      pop\n      pop\n      pop\n      pop\n      jump\t// out\n        /* \"#utility.yul\":36417:36840   */\n    tag_60:\n        /* \"#utility.yul\":36558:36562   */\n      0x00\n        /* \"#utility.yul\":36596:36598   */\n      0x40\n        /* \"#utility.yul\":36585:36594   */\n      dup3\n        /* \"#utility.yul\":36581:36599   */\n      add\n        /* \"#utility.yul\":36573:36599   */\n      swap1\n      pop\n        /* \"#utility.yul\":36609:36680   */\n      tag_757\n        /* \"#utility.yul\":36677:36678   */\n      0x00\n        /* \"#utility.yul\":36666:36675   */\n      dup4\n        /* \"#utility.yul\":36662:36679   */\n      add\n        /* \"#utility.yul\":36653:36659   */\n      dup6\n        /* \"#utility.yul\":36609:36680   */\n      tag_670\n      jump\t// in\n    tag_757:\n        /* \"#utility.yul\":36727:36736   */\n      dup2\n        /* \"#utility.yul\":36721:36725   */\n      dup2\n        /* \"#utility.yul\":36717:36737   */\n      sub\n        /* \"#utility.yul\":36712:36714   */\n      0x20\n        /* \"#utility.yul\":36701:36710   */\n      dup4\n        /* \"#utility.yul\":36697:36715   */\n      add\n        /* \"#utility.yul\":36690:36738   */\n      mstore\n        /* \"#utility.yul\":36755:36833   */\n      tag_758\n        /* \"#utility.yul\":36828:36832   */\n      dup2\n        /* \"#utility.yul\":36819:36825   */\n      dup5\n        /* \"#utility.yul\":36755:36833   */\n      tag_541\n      jump\t// in\n    tag_758:\n        /* \"#utility.yul\":36747:36833   */\n      swap1\n      pop\n        /* \"#utility.yul\":36417:36840   */\n      swap4\n      swap3\n      pop\n      pop\n      pop\n      jump\t// out\n        /* \"#utility.yul\":36846:37060   */\n    tag_33:\n        /* \"#utility.yul\":36935:36939   */\n      0x00\n        /* \"#utility.yul\":36973:36975   */\n      0x20\n        /* \"#utility.yul\":36962:36971   */\n      dup3\n        /* \"#utility.yul\":36958:36976   */\n      add\n        /* \"#utility.yul\":36950:36976   */\n      swap1\n      pop\n        /* \"#utility.yul\":36986:37053   */\n      tag_760\n        /* \"#utility.yul\":37050:37051   */\n      0x00\n        /* \"#utility.yul\":37039:37048   */\n      dup4\n        /* \"#utility.yul\":37035:37052   */\n      add\n        /* \"#utility.yul\":37026:37032   */\n      dup5\n        /* \"#utility.yul\":36986:37053   */\n      tag_674\n      jump\t// in\n    tag_760:\n        /* \"#utility.yul\":36846:37060   */\n      swap3\n      swap2\n      pop\n      pop\n      jump\t// out\n        /* \"#utility.yul\":37066:37791   */\n    tag_207:\n        /* \"#utility.yul\":37144:37148   */\n      0x00\n        /* \"#utility.yul\":37150:37156   */\n      dup1\n        /* \"#utility.yul\":37206:37217   */\n      dup4\n        /* \"#utility.yul\":37193:37218   */\n      calldataload\n        /* \"#utility.yul\":37306:37307   */\n      0x01\n        /* \"#utility.yul\":37300:37304   */\n      0x20\n        /* \"#utility.yul\":37296:37308   */\n      sub\n        /* \"#utility.yul\":37285:37293   */\n      dup5\n        /* \"#utility.yul\":37269:37283   */\n      calldatasize\n        /* \"#utility.yul\":37265:37294   */\n      sub\n        /* \"#utility.yul\":37261:37309   */\n      sub\n        /* \"#utility.yul\":37241:37259   */\n      dup2\n        /* \"#utility.yul\":37237:37310   */\n      slt\n        /* \"#utility.yul\":37227:37395   */\n      tag_762\n      jumpi\n        /* \"#utility.yul\":37314:37393   */\n      tag_763\n      tag_764\n      jump\t// in\n    tag_763:\n        /* \"#utility.yul\":37227:37395   */\n    tag_762:\n        /* \"#utility.yul\":37426:37444   */\n      dup1\n        /* \"#utility.yul\":37416:37424   */\n      dup5\n        /* \"#utility.yul\":37412:37445   */\n      add\n        /* \"#utility.yul\":37404:37445   */\n      swap3\n      pop\n        /* \"#utility.yul\":37478:37482   */\n      dup3\n        /* \"#utility.yul\":37465:37483   */\n      calldataload\n        /* \"#utility.yul\":37455:37483   */\n      swap2\n      pop\n        /* \"#utility.yul\":37506:37524   */\n      0xffffffffffffffff\n        /* \"#utility.yul\":37498:37504   */\n      dup3\n        /* \"#utility.yul\":37495:37525   */\n      gt\n        /* \"#utility.yul\":37492:37609   */\n      iszero\n      tag_765\n      jumpi\n        /* \"#utility.yul\":37528:37607   */\n      tag_766\n      tag_767\n      jump\t// in\n    tag_766:\n        /* \"#utility.yul\":37492:37609   */\n    tag_765:\n        /* \"#utility.yul\":37636:37638   */\n      0x20\n        /* \"#utility.yul\":37630:37634   */\n      dup4\n        /* \"#utility.yul\":37626:37639   */\n      add\n        /* \"#utility.yul\":37618:37639   */\n      swap3\n      pop\n        /* \"#utility.yul\":37693:37697   */\n      0x01\n        /* \"#utility.yul\":37685:37691   */\n      dup3\n        /* \"#utility.yul\":37681:37698   */\n      mul\n        /* \"#utility.yul\":37665:37679   */\n      calldatasize\n        /* \"#utility.yul\":37661:37699   */\n      sub\n        /* \"#utility.yul\":37655:37659   */\n      dup4\n        /* \"#utility.yul\":37651:37700   */\n      sgt\n        /* \"#utility.yul\":37648:37784   */\n      iszero\n      tag_768\n      jumpi\n        /* \"#utility.yul\":37703:37782   */\n      tag_769\n      tag_770\n      jump\t// in\n    tag_769:\n        /* \"#utility.yul\":37648:37784   */\n    tag_768:\n        /* \"#utility.yul\":37157:37791   */\n      pop\n        /* \"#utility.yul\":37066:37791   */\n      swap3\n      pop\n      swap3\n      swap1\n      pop\n      jump\t// out\n        /* \"#utility.yul\":37797:37926   */\n    tag_349:\n        /* \"#utility.yul\":37831:37837   */\n      0x00\n        /* \"#utility.yul\":37858:37878   */\n      tag_772\n      tag_773\n      jump\t// in\n    tag_772:\n        /* \"#utility.yul\":37848:37878   */\n      swap1\n      pop\n        /* \"#utility.yul\":37887:37920   */\n      tag_774\n        /* \"#utility.yul\":37915:37919   */\n      dup3\n        /* \"#utility.yul\":37907:37913   */\n      dup3\n        /* \"#utility.yul\":37887:37920   */\n      tag_775\n      jump\t// in\n    tag_774:\n        /* \"#utility.yul\":37797:37926   */\n      swap2\n      swap1\n      pop\n      jump\t// out\n        /* \"#utility.yul\":37932:38007   */\n    tag_773:\n        /* \"#utility.yul\":37965:37971   */\n      0x00\n        /* \"#utility.yul\":37998:38000   */\n      0x40\n        /* \"#utility.yul\":37992:38001   */\n      mload\n        /* \"#utility.yul\":37982:38001   */\n      swap1\n      pop\n        /* \"#utility.yul\":37932:38007   */\n      swap1\n      jump\t// out\n        /* \"#utility.yul\":38013:38324   */\n    tag_348:\n        /* \"#utility.yul\":38090:38094   */\n      0x00\n        /* \"#utility.yul\":38180:38198   */\n      0xffffffffffffffff\n        /* \"#utility.yul\":38172:38178   */\n      dup3\n        /* \"#utility.yul\":38169:38199   */\n      gt\n        /* \"#utility.yul\":38166:38222   */\n      iszero\n      tag_778\n      jumpi\n        /* \"#utility.yul\":38202:38220   */\n      tag_779\n      tag_780\n      jump\t// in\n    tag_779:\n        /* \"#utility.yul\":38166:38222   */\n    tag_778:\n        /* \"#utility.yul\":38252:38256   */\n      0x20\n        /* \"#utility.yul\":38244:38250   */\n      dup3\n        /* \"#utility.yul\":38240:38257   */\n      mul\n        /* \"#utility.yul\":38232:38257   */\n      swap1\n      pop\n        /* \"#utility.yul\":38312:38316   */\n      0x20\n        /* \"#utility.yul\":38306:38310   */\n      dup2\n        /* \"#utility.yul\":38302:38317   */\n      add\n        /* \"#utility.yul\":38294:38317   */\n      swap1\n      pop\n        /* \"#utility.yul\":38013:38324   */\n      swap2\n      swap1\n      pop\n      jump\t// out\n        /* \"#utility.yul\":38330:38651   */\n    tag_362:\n        /* \"#utility.yul\":38417:38421   */\n      0x00\n        /* \"#utility.yul\":38507:38525   */\n      0xffffffffffffffff\n        /* \"#utility.yul\":38499:38505   */\n      dup3\n        /* \"#utility.yul\":38496:38526   */\n      gt\n        /* \"#utility.yul\":38493:38549   */\n      iszero\n      tag_782\n      jumpi\n        /* \"#utility.yul\":38529:38547   */\n      tag_783\n      tag_780\n      jump\t// in\n    tag_783:\n        /* \"#utility.yul\":38493:38549   */\n    tag_782:\n        /* \"#utility.yul\":38579:38583   */\n      0x20\n        /* \"#utility.yul\":38571:38577   */\n      dup3\n        /* \"#utility.yul\":38567:38584   */\n      mul\n        /* \"#utility.yul\":38559:38584   */\n      swap1\n      pop\n        /* \"#utility.yul\":38639:38643   */\n      0x20\n        /* \"#utility.yul\":38633:38637   */\n      dup2\n        /* \"#utility.yul\":38629:38644   */\n      add\n        /* \"#utility.yul\":38621:38644   */\n      swap1\n      pop\n        /* \"#utility.yul\":38330:38651   */\n      swap2\n      swap1\n      pop\n      jump\t// out\n        /* \"#utility.yul\":38657:38968   */\n    tag_377:\n        /* \"#utility.yul\":38734:38738   */\n      0x00\n        /* \"#utility.yul\":38824:38842   */\n      0xffffffffffffffff\n        /* \"#utility.yul\":38816:38822   */\n      dup3\n        /* \"#utility.yul\":38813:38843   */\n      gt\n        /* \"#utility.yul\":38810:38866   */\n      iszero\n      tag_785\n      jumpi\n        /* \"#utility.yul\":38846:38864   */\n      tag_786\n      tag_780\n      jump\t// in\n    tag_786:\n        /* \"#utility.yul\":38810:38866   */\n    tag_785:\n        /* \"#utility.yul\":38896:38900   */\n      0x20\n        /* \"#utility.yul\":38888:38894   */\n      dup3\n        /* \"#utility.yul\":38884:38901   */\n      mul\n        /* \"#utility.yul\":38876:38901   */\n      swap1\n      pop\n        /* \"#utility.yul\":38956:38960   */\n      0x20\n        /* \"#utility.yul\":38950:38954   */\n      dup2\n        /* \"#utility.yul\":38946:38961   */\n      add\n        /* \"#utility.yul\":38938:38961   */\n      swap1\n      pop\n        /* \"#utility.yul\":38657:38968   */\n      swap2\n      swap1\n      pop\n      jump\t// out\n        /* \"#utility.yul\":38974:39282   */\n    tag_389:\n        /* \"#utility.yul\":39036:39040   */\n      0x00\n        /* \"#utility.yul\":39126:39144   */\n      0xffffffffffffffff\n        /* \"#utility.yul\":39118:39124   */\n      dup3\n        /* \"#utility.yul\":39115:39145   */\n      gt\n        /* \"#utility.yul\":39112:39168   */\n      iszero\n      tag_788\n      jumpi\n        /* \"#utility.yul\":39148:39166   */\n      tag_789\n      tag_780\n      jump\t// in\n    tag_789:\n        /* \"#utility.yul\":39112:39168   */\n    tag_788:\n        /* \"#utility.yul\":39186:39215   */\n      tag_790\n        /* \"#utility.yul\":39208:39214   */\n      dup3\n        /* \"#utility.yul\":39186:39215   */\n      tag_535\n      jump\t// in\n    tag_790:\n        /* \"#utility.yul\":39178:39215   */\n      swap1\n      pop\n        /* \"#utility.yul\":39270:39274   */\n      0x20\n        /* \"#utility.yul\":39264:39268   */\n      dup2\n        /* \"#utility.yul\":39260:39275   */\n      add\n        /* \"#utility.yul\":39252:39275   */\n      swap1\n      pop\n        /* \"#utility.yul\":38974:39282   */\n      swap2\n      swap1\n      pop\n      jump\t// out\n        /* \"#utility.yul\":39288:39420   */\n    tag_505:\n        /* \"#utility.yul\":39355:39359   */\n      0x00\n        /* \"#utility.yul\":39378:39381   */\n      dup2\n        /* \"#utility.yul\":39370:39381   */\n      swap1\n      pop\n        /* \"#utility.yul\":39408:39412   */\n      0x20\n        /* \"#utility.yul\":39403:39406   */\n      dup3\n        /* \"#utility.yul\":39399:39413   */\n      add\n        /* \"#utility.yul\":39391:39413   */\n      swap1\n      pop\n        /* \"#utility.yul\":39288:39420   */\n      swap2\n      swap1\n      pop\n      jump\t// out\n        /* \"#utility.yul\":39426:39540   */\n    tag_517:\n        /* \"#utility.yul\":39507:39511   */\n      0x00\n        /* \"#utility.yul\":39530:39533   */\n      dup2\n        /* \"#utility.yul\":39522:39533   */\n      swap1\n      pop\n        /* \"#utility.yul\":39426:39540   */\n      swap2\n      swap1\n      pop\n      jump\t// out\n        /* \"#utility.yul\":39546:39687   */\n    tag_563:\n        /* \"#utility.yul\":39595:39599   */\n      0x00\n        /* \"#utility.yul\":39618:39621   */\n      dup2\n        /* \"#utility.yul\":39610:39621   */\n      swap1\n      pop\n        /* \"#utility.yul\":39641:39644   */\n      dup2\n        /* \"#utility.yul\":39638:39639   */\n      0x00\n        /* \"#utility.yul\":39631:39645   */\n      mstore\n        /* \"#utility.yul\":39675:39679   */\n      0x20\n        /* \"#utility.yul\":39672:39673   */\n      0x00\n        /* \"#utility.yul\":39662:39680   */\n      keccak256\n        /* \"#utility.yul\":39654:39680   */\n      swap1\n      pop\n        /* \"#utility.yul\":39546:39687   */\n      swap2\n      swap1\n      pop\n      jump\t// out\n        /* \"#utility.yul\":39693:39807   */\n    tag_501:\n        /* \"#utility.yul\":39760:39766   */\n      0x00\n        /* \"#utility.yul\":39794:39799   */\n      dup2\n        /* \"#utility.yul\":39788:39800   */\n      mload\n        /* \"#utility.yul\":39778:39800   */\n      swap1\n      pop\n        /* \"#utility.yul\":39693:39807   */\n      swap2\n      swap1\n      pop\n      jump\t// out\n        /* \"#utility.yul\":39813:39912   */\n    tag_544:\n        /* \"#utility.yul\":39865:39871   */\n      0x00\n        /* \"#utility.yul\":39899:39904   */\n      dup2\n        /* \"#utility.yul\":39893:39905   */\n      mload\n        /* \"#utility.yul\":39883:39905   */\n      swap1\n      pop\n        /* \"#utility.yul\":39813:39912   */\n      swap2\n      swap1\n      pop\n      jump\t// out\n        /* \"#utility.yul\":39918:40031   */\n    tag_511:\n        /* \"#utility.yul\":39988:39992   */\n      0x00\n        /* \"#utility.yul\":40020:40024   */\n      0x20\n        /* \"#utility.yul\":40015:40018   */\n      dup3\n        /* \"#utility.yul\":40011:40025   */\n      add\n        /* \"#utility.yul\":40003:40025   */\n      swap1\n      pop\n        /* \"#utility.yul\":39918:40031   */\n      swap2\n      swap1\n      pop\n      jump\t// out\n        /* \"#utility.yul\":40037:40164   */\n    tag_525:\n        /* \"#utility.yul\":40121:40125   */\n      0x00\n        /* \"#utility.yul\":40153:40157   */\n      0x20\n        /* \"#utility.yul\":40148:40151   */\n      dup3\n        /* \"#utility.yul\":40144:40158   */\n      add\n        /* \"#utility.yul\":40136:40158   */\n      swap1\n      pop\n        /* \"#utility.yul\":40037:40164   */\n      swap2\n      swap1\n      pop\n      jump\t// out\n        /* \"#utility.yul\":40170:40354   */\n    tag_503:\n        /* \"#utility.yul\":40269:40280   */\n      0x00\n        /* \"#utility.yul\":40303:40309   */\n      dup3\n        /* \"#utility.yul\":40298:40301   */\n      dup3\n        /* \"#utility.yul\":40291:40310   */\n      mstore\n        /* \"#utility.yul\":40343:40347   */\n      0x20\n        /* \"#utility.yul\":40338:40341   */\n      dup3\n        /* \"#utility.yul\":40334:40348   */\n      add\n        /* \"#utility.yul\":40319:40348   */\n      swap1\n      pop\n        /* \"#utility.yul\":40170:40354   */\n      swap3\n      swap2\n      pop\n      pop\n      jump\t// out\n        /* \"#utility.yul\":40360:40554   */\n    tag_515:\n        /* \"#utility.yul\":40469:40480   */\n      0x00\n        /* \"#utility.yul\":40503:40509   */\n      dup3\n        /* \"#utility.yul\":40498:40501   */\n      dup3\n        /* \"#utility.yul\":40491:40510   */\n      mstore\n        /* \"#utility.yul\":40543:40547   */\n      0x20\n        /* \"#utility.yul\":40538:40541   */\n      dup3\n        /* \"#utility.yul\":40534:40548   */\n      add\n        /* \"#utility.yul\":40519:40548   */\n      swap1\n      pop\n        /* \"#utility.yul\":40360:40554   */\n      swap3\n      swap2\n      pop\n      pop\n      jump\t// out\n        /* \"#utility.yul\":40560:40719   */\n    tag_532:\n        /* \"#utility.yul\":40634:40645   */\n      0x00\n        /* \"#utility.yul\":40668:40674   */\n      dup3\n        /* \"#utility.yul\":40663:40666   */\n      dup3\n        /* \"#utility.yul\":40656:40675   */\n      mstore\n        /* \"#utility.yul\":40708:40712   */\n      0x20\n        /* \"#utility.yul\":40703:40706   */\n      dup3\n        /* \"#utility.yul\":40699:40713   */\n      add\n        /* \"#utility.yul\":40684:40713   */\n      swap1\n      pop\n        /* \"#utility.yul\":40560:40719   */\n      swap3\n      swap2\n      pop\n      pop\n      jump\t// out\n        /* \"#utility.yul\":40725:40894   */\n    tag_546:\n        /* \"#utility.yul\":40809:40820   */\n      0x00\n        /* \"#utility.yul\":40843:40849   */\n      dup3\n        /* \"#utility.yul\":40838:40841   */\n      dup3\n        /* \"#utility.yul\":40831:40850   */\n      mstore\n        /* \"#utility.yul\":40883:40887   */\n      0x20\n        /* \"#utility.yul\":40878:40881   */\n      dup3\n        /* \"#utility.yul\":40874:40888   */\n      add\n        /* \"#utility.yul\":40859:40888   */\n      swap1\n      pop\n        /* \"#utility.yul\":40725:40894   */\n      swap3\n      swap2\n      pop\n      pop\n      jump\t// out\n        /* \"#utility.yul\":40900:41048   */\n    tag_539:\n        /* \"#utility.yul\":41002:41013   */\n      0x00\n        /* \"#utility.yul\":41039:41042   */\n      dup2\n        /* \"#utility.yul\":41024:41042   */\n      swap1\n      pop\n        /* \"#utility.yul\":40900:41048   */\n      swap3\n      swap2\n      pop\n      pop\n      jump\t// out\n        /* \"#utility.yul\":41054:41769   */\n    tag_522:\n        /* \"#utility.yul\":41119:41124   */\n      0x00\n        /* \"#utility.yul\":41126:41132   */\n      dup1\n        /* \"#utility.yul\":41182:41185   */\n      dup4\n        /* \"#utility.yul\":41169:41186   */\n      calldataload\n        /* \"#utility.yul\":41274:41275   */\n      0x01\n        /* \"#utility.yul\":41268:41272   */\n      0x20\n        /* \"#utility.yul\":41264:41276   */\n      sub\n        /* \"#utility.yul\":41253:41261   */\n      dup5\n        /* \"#utility.yul\":41237:41251   */\n      calldatasize\n        /* \"#utility.yul\":41233:41262   */\n      sub\n        /* \"#utility.yul\":41229:41277   */\n      sub\n        /* \"#utility.yul\":41209:41227   */\n      dup2\n        /* \"#utility.yul\":41205:41278   */\n      slt\n        /* \"#utility.yul\":41195:41363   */\n      tag_804\n      jumpi\n        /* \"#utility.yul\":41282:41361   */\n      tag_805\n      tag_806\n      jump\t// in\n    tag_805:\n        /* \"#utility.yul\":41195:41363   */\n    tag_804:\n        /* \"#utility.yul\":41405:41413   */\n      dup4\n        /* \"#utility.yul\":41385:41403   */\n      dup2\n        /* \"#utility.yul\":41381:41414   */\n      add\n        /* \"#utility.yul\":41372:41414   */\n      swap3\n      pop\n        /* \"#utility.yul\":41447:41452   */\n      dup3\n        /* \"#utility.yul\":41434:41453   */\n      calldataload\n        /* \"#utility.yul\":41424:41453   */\n      swap2\n      pop\n        /* \"#utility.yul\":41482:41486   */\n      0x20\n        /* \"#utility.yul\":41475:41480   */\n      dup4\n        /* \"#utility.yul\":41471:41487   */\n      add\n        /* \"#utility.yul\":41462:41487   */\n      swap3\n      pop\n        /* \"#utility.yul\":41510:41528   */\n      0xffffffffffffffff\n        /* \"#utility.yul\":41502:41508   */\n      dup3\n        /* \"#utility.yul\":41499:41529   */\n      gt\n        /* \"#utility.yul\":41496:41613   */\n      iszero\n      tag_807\n      jumpi\n        /* \"#utility.yul\":41532:41611   */\n      tag_808\n      tag_809\n      jump\t// in\n    tag_808:\n        /* \"#utility.yul\":41496:41613   */\n    tag_807:\n        /* \"#utility.yul\":41671:41675   */\n      0x01\n        /* \"#utility.yul\":41663:41669   */\n      dup3\n        /* \"#utility.yul\":41659:41676   */\n      mul\n        /* \"#utility.yul\":41643:41657   */\n      calldatasize\n        /* \"#utility.yul\":41639:41677   */\n      sub\n        /* \"#utility.yul\":41629:41637   */\n      dup5\n        /* \"#utility.yul\":41625:41678   */\n      sgt\n        /* \"#utility.yul\":41622:41762   */\n      iszero\n      tag_810\n      jumpi\n        /* \"#utility.yul\":41681:41760   */\n      tag_811\n      tag_812\n      jump\t// in\n    tag_811:\n        /* \"#utility.yul\":41622:41762   */\n    tag_810:\n        /* \"#utility.yul\":41133:41769   */\n      pop\n        /* \"#utility.yul\":41054:41769   */\n      swap3\n      pop\n      swap3\n      swap1\n      pop\n      jump\t// out\n        /* \"#utility.yul\":41775:42017   */\n    tag_286:\n        /* \"#utility.yul\":41814:41817   */\n      0x00\n        /* \"#utility.yul\":41833:41852   */\n      tag_814\n        /* \"#utility.yul\":41850:41851   */\n      dup3\n        /* \"#utility.yul\":41833:41852   */\n      tag_669\n      jump\t// in\n    tag_814:\n        /* \"#utility.yul\":41828:41852   */\n      swap2\n      pop\n        /* \"#utility.yul\":41866:41885   */\n      tag_815\n        /* \"#utility.yul\":41883:41884   */\n      dup4\n        /* \"#utility.yul\":41866:41885   */\n      tag_669\n      jump\t// in\n    tag_815:\n        /* \"#utility.yul\":41861:41885   */\n      swap3\n      pop\n        /* \"#utility.yul\":41959:41960   */\n      dup3\n        /* \"#utility.yul\":41951:41957   */\n      0xffff\n        /* \"#utility.yul\":41947:41961   */\n      sub\n        /* \"#utility.yul\":41944:41945   */\n      dup3\n        /* \"#utility.yul\":41941:41962   */\n      gt\n        /* \"#utility.yul\":41938:41985   */\n      iszero\n      tag_816\n      jumpi\n        /* \"#utility.yul\":41965:41983   */\n      tag_817\n      tag_818\n      jump\t// in\n    tag_817:\n        /* \"#utility.yul\":41938:41985   */\n    tag_816:\n        /* \"#utility.yul\":42009:42010   */\n      dup3\n        /* \"#utility.yul\":42006:42007   */\n      dup3\n        /* \"#utility.yul\":42002:42011   */\n      add\n        /* \"#utility.yul\":41995:42011   */\n      swap1\n      pop\n        /* \"#utility.yul\":41775:42017   */\n      swap3\n      swap2\n      pop\n      pop\n      jump\t// out\n        /* \"#utility.yul\":42023:42328   */\n    tag_148:\n        /* \"#utility.yul\":42063:42066   */\n      0x00\n        /* \"#utility.yul\":42082:42102   */\n      tag_820\n        /* \"#utility.yul\":42100:42101   */\n      dup3\n        /* \"#utility.yul\":42082:42102   */\n      tag_673\n      jump\t// in\n    tag_820:\n        /* \"#utility.yul\":42077:42102   */\n      swap2\n      pop\n        /* \"#utility.yul\":42116:42136   */\n      tag_821\n        /* \"#utility.yul\":42134:42135   */\n      dup4\n        /* \"#utility.yul\":42116:42136   */\n      tag_673\n      jump\t// in\n    tag_821:\n        /* \"#utility.yul\":42111:42136   */\n      swap3\n      pop\n        /* \"#utility.yul\":42270:42271   */\n      dup3\n        /* \"#utility.yul\":42202:42268   */\n      0xffffffffffffffffffffffffffffffffffffffffffffffffffffffffffffffff\n        /* \"#utility.yul\":42198:42272   */\n      sub\n        /* \"#utility.yul\":42195:42196   */\n      dup3\n        /* \"#utility.yul\":42192:42273   */\n      gt\n        /* \"#utility.yul\":42189:42296   */\n      iszero\n      tag_822\n      jumpi\n        /* \"#utility.yul\":42276:42294   */\n      tag_823\n      tag_818\n      jump\t// in\n    tag_823:\n        /* \"#utility.yul\":42189:42296   */\n    tag_822:\n        /* \"#utility.yul\":42320:42321   */\n      dup3\n        /* \"#utility.yul\":42317:42318   */\n      dup3\n        /* \"#utility.yul\":42313:42322   */\n      add\n        /* \"#utility.yul\":42306:42322   */\n      swap1\n      pop\n        /* \"#utility.yul\":42023:42328   */\n      swap3\n      swap2\n      pop\n      pop\n      jump\t// out\n        /* \"#utility.yul\":42334:42682   */\n    tag_146:\n        /* \"#utility.yul\":42374:42381   */\n      0x00\n        /* \"#utility.yul\":42397:42417   */\n      tag_825\n        /* \"#utility.yul\":42415:42416   */\n      dup3\n        /* \"#utility.yul\":42397:42417   */\n      tag_673\n      jump\t// in\n    tag_825:\n        /* \"#utility.yul\":42392:42417   */\n      swap2\n      pop\n        /* \"#utility.yul\":42431:42451   */\n      tag_826\n        /* \"#utility.yul\":42449:42450   */\n      dup4\n        /* \"#utility.yul\":42431:42451   */\n      tag_673\n      jump\t// in\n    tag_826:\n        /* \"#utility.yul\":42426:42451   */\n      swap3\n      pop\n        /* \"#utility.yul\":42619:42620   */\n      dup2\n        /* \"#utility.yul\":42551:42617   */\n      0xffffffffffffffffffffffffffffffffffffffffffffffffffffffffffffffff\n        /* \"#utility.yul\":42547:42621   */\n      div\n        /* \"#utility.yul\":42544:42545   */\n      dup4\n        /* \"#utility.yul\":42541:42622   */\n      gt\n        /* \"#utility.yul\":42536:42537   */\n      dup3\n        /* \"#utility.yul\":42529:42538   */\n      iszero\n        /* \"#utility.yul\":42522:42539   */\n      iszero\n        /* \"#utility.yul\":42518:42623   */\n      and\n        /* \"#utility.yul\":42515:42646   */\n      iszero\n      tag_827\n      jumpi\n        /* \"#utility.yul\":42626:42644   */\n      tag_828\n      tag_818\n      jump\t// in\n    tag_828:\n        /* \"#utility.yul\":42515:42646   */\n    tag_827:\n        /* \"#utility.yul\":42674:42675   */\n      dup3\n        /* \"#utility.yul\":42671:42672   */\n      dup3\n        /* \"#utility.yul\":42667:42676   */\n      mul\n        /* \"#utility.yul\":42656:42676   */\n      swap1\n      pop\n        /* \"#utility.yul\":42334:42682   */\n      swap3\n      swap2\n      pop\n      pop\n      jump\t// out\n        /* \"#utility.yul\":42688:42879   */\n    tag_317:\n        /* \"#utility.yul\":42728:42732   */\n      0x00\n        /* \"#utility.yul\":42748:42768   */\n      tag_830\n        /* \"#utility.yul\":42766:42767   */\n      dup3\n        /* \"#utility.yul\":42748:42768   */\n      tag_673\n      jump\t// in\n    tag_830:\n        /* \"#utility.yul\":42743:42768   */\n      swap2\n      pop\n        /* \"#utility.yul\":42782:42802   */\n      tag_831\n        /* \"#utility.yul\":42800:42801   */\n      dup4\n        /* \"#utility.yul\":42782:42802   */\n      tag_673\n      jump\t// in\n    tag_831:\n        /* \"#utility.yul\":42777:42802   */\n      swap3\n      pop\n        /* \"#utility.yul\":42821:42822   */\n      dup3\n        /* \"#utility.yul\":42818:42819   */\n      dup3\n        /* \"#utility.yul\":42815:42823   */\n      lt\n        /* \"#utility.yul\":42812:42846   */\n      iszero\n      tag_832\n      jumpi\n        /* \"#utility.yul\":42826:42844   */\n      tag_833\n      tag_818\n      jump\t// in\n    tag_833:\n        /* \"#utility.yul\":42812:42846   */\n    tag_832:\n        /* \"#utility.yul\":42871:42872   */\n      dup3\n        /* \"#utility.yul\":42868:42869   */\n      dup3\n        /* \"#utility.yul\":42864:42873   */\n      sub\n        /* \"#utility.yul\":42856:42873   */\n      swap1\n      pop\n        /* \"#utility.yul\":42688:42879   */\n      swap3\n      swap2\n      pop\n      pop\n      jump\t// out\n        /* \"#utility.yul\":42885:42981   */\n    tag_494:\n        /* \"#utility.yul\":42922:42929   */\n      0x00\n        /* \"#utility.yul\":42951:42975   */\n      tag_835\n        /* \"#utility.yul\":42969:42974   */\n      dup3\n        /* \"#utility.yul\":42951:42975   */\n      tag_836\n      jump\t// in\n    tag_835:\n        /* \"#utility.yul\":42940:42975   */\n      swap1\n      pop\n        /* \"#utility.yul\":42885:42981   */\n      swap2\n      swap1\n      pop\n      jump\t// out\n        /* \"#utility.yul\":42987:43077   */\n    tag_529:\n        /* \"#utility.yul\":43021:43028   */\n      0x00\n        /* \"#utility.yul\":43064:43069   */\n      dup2\n        /* \"#utility.yul\":43057:43070   */\n      iszero\n        /* \"#utility.yul\":43050:43071   */\n      iszero\n        /* \"#utility.yul\":43039:43071   */\n      swap1\n      pop\n        /* \"#utility.yul\":42987:43077   */\n      swap2\n      swap1\n      pop\n      jump\t// out\n        /* \"#utility.yul\":43083:43201   */\n    tag_665:\n        /* \"#utility.yul\":43120:43127   */\n      0x00\n        /* \"#utility.yul\":43160:43194   */\n      0xffffffffffffffffffffffffffffffff\n        /* \"#utility.yul\":43153:43158   */\n      dup3\n        /* \"#utility.yul\":43149:43195   */\n      and\n        /* \"#utility.yul\":43138:43195   */\n      swap1\n      pop\n        /* \"#utility.yul\":43083:43201   */\n      swap2\n      swap1\n      pop\n      jump\t// out\n        /* \"#utility.yul\":43207:43296   */\n    tag_669:\n        /* \"#utility.yul\":43243:43250   */\n      0x00\n        /* \"#utility.yul\":43283:43289   */\n      0xffff\n        /* \"#utility.yul\":43276:43281   */\n      dup3\n        /* \"#utility.yul\":43272:43290   */\n      and\n        /* \"#utility.yul\":43261:43290   */\n      swap1\n      pop\n        /* \"#utility.yul\":43207:43296   */\n      swap2\n      swap1\n      pop\n      jump\t// out\n        /* \"#utility.yul\":43302:43428   */\n    tag_836:\n        /* \"#utility.yul\":43339:43346   */\n      0x00\n        /* \"#utility.yul\":43379:43421   */\n      0xffffffffffffffffffffffffffffffffffffffff\n        /* \"#utility.yul\":43372:43377   */\n      dup3\n        /* \"#utility.yul\":43368:43422   */\n      and\n        /* \"#utility.yul\":43357:43422   */\n      swap1\n      pop\n        /* \"#utility.yul\":43302:43428   */\n      swap2\n      swap1\n      pop\n      jump\t// out\n        /* \"#utility.yul\":43434:43511   */\n    tag_673:\n        /* \"#utility.yul\":43471:43478   */\n      0x00\n        /* \"#utility.yul\":43500:43505   */\n      dup2\n        /* \"#utility.yul\":43489:43505   */\n      swap1\n      pop\n        /* \"#utility.yul\":43434:43511   */\n      swap2\n      swap1\n      pop\n      jump\t// out\n        /* \"#utility.yul\":43517:43603   */\n    tag_677:\n        /* \"#utility.yul\":43552:43559   */\n      0x00\n        /* \"#utility.yul\":43592:43596   */\n      0xff\n        /* \"#utility.yul\":43585:43590   */\n      dup3\n        /* \"#utility.yul\":43581:43597   */\n      and\n        /* \"#utility.yul\":43570:43597   */\n      swap1\n      pop\n        /* \"#utility.yul\":43517:43603   */\n      swap2\n      swap1\n      pop\n      jump\t// out\n        /* \"#utility.yul\":43609:43763   */\n    tag_394:\n        /* \"#utility.yul\":43693:43699   */\n      dup3\n        /* \"#utility.yul\":43688:43691   */\n      dup2\n        /* \"#utility.yul\":43683:43686   */\n      dup4\n        /* \"#utility.yul\":43670:43700   */\n      calldatacopy\n        /* \"#utility.yul\":43755:43756   */\n      0x00\n        /* \"#utility.yul\":43746:43752   */\n      dup4\n        /* \"#utility.yul\":43741:43744   */\n      dup4\n        /* \"#utility.yul\":43737:43753   */\n      add\n        /* \"#utility.yul\":43730:43757   */\n      mstore\n        /* \"#utility.yul\":43609:43763   */\n      pop\n      pop\n      pop\n      jump\t// out\n        /* \"#utility.yul\":43769:44076   */\n    tag_548:\n        /* \"#utility.yul\":43837:43838   */\n      0x00\n        /* \"#utility.yul\":43847:43960   */\n    tag_845:\n        /* \"#utility.yul\":43861:43867   */\n      dup4\n        /* \"#utility.yul\":43858:43859   */\n      dup2\n        /* \"#utility.yul\":43855:43868   */\n      lt\n        /* \"#utility.yul\":43847:43960   */\n      iszero\n      tag_847\n      jumpi\n        /* \"#utility.yul\":43946:43947   */\n      dup1\n        /* \"#utility.yul\":43941:43944   */\n      dup3\n        /* \"#utility.yul\":43937:43948   */\n      add\n        /* \"#utility.yul\":43931:43949   */\n      mload\n        /* \"#utility.yul\":43927:43928   */\n      dup2\n        /* \"#utility.yul\":43922:43925   */\n      dup5\n        /* \"#utility.yul\":43918:43929   */\n      add\n        /* \"#utility.yul\":43911:43950   */\n      mstore\n        /* \"#utility.yul\":43883:43885   */\n      0x20\n        /* \"#utility.yul\":43880:43881   */\n      dup2\n        /* \"#utility.yul\":43876:43886   */\n      add\n        /* \"#utility.yul\":43871:43886   */\n      swap1\n      pop\n        /* \"#utility.yul\":43847:43960   */\n      jump(tag_845)\n    tag_847:\n        /* \"#utility.yul\":43978:43984   */\n      dup4\n        /* \"#utility.yul\":43975:43976   */\n      dup2\n        /* \"#utility.yul\":43972:43985   */\n      gt\n        /* \"#utility.yul\":43969:44070   */\n      iszero\n      tag_848\n      jumpi\n        /* \"#utility.yul\":44058:44059   */\n      0x00\n        /* \"#utility.yul\":44049:44055   */\n      dup5\n        /* \"#utility.yul\":44044:44047   */\n      dup5\n        /* \"#utility.yul\":44040:44056   */\n      add\n        /* \"#utility.yul\":44033:44060   */\n      mstore\n        /* \"#utility.yul\":43969:44070   */\n    tag_848:\n        /* \"#utility.yul\":43818:44076   */\n      pop\n        /* \"#utility.yul\":43769:44076   */\n      pop\n      pop\n      pop\n      jump\t// out\n        /* \"#utility.yul\":44082:44402   */\n    tag_73:\n        /* \"#utility.yul\":44126:44132   */\n      0x00\n        /* \"#utility.yul\":44163:44164   */\n      0x02\n        /* \"#utility.yul\":44157:44161   */\n      dup3\n        /* \"#utility.yul\":44153:44165   */\n      div\n        /* \"#utility.yul\":44143:44165   */\n      swap1\n      pop\n        /* \"#utility.yul\":44210:44211   */\n      0x01\n        /* \"#utility.yul\":44204:44208   */\n      dup3\n        /* \"#utility.yul\":44200:44212   */\n      and\n        /* \"#utility.yul\":44231:44249   */\n      dup1\n        /* \"#utility.yul\":44221:44302   */\n      tag_850\n      jumpi\n        /* \"#utility.yul\":44287:44291   */\n      0x7f\n        /* \"#utility.yul\":44279:44285   */\n      dup3\n        /* \"#utility.yul\":44275:44292   */\n      and\n        /* \"#utility.yul\":44265:44292   */\n      swap2\n      pop\n        /* \"#utility.yul\":44221:44302   */\n    tag_850:\n        /* \"#utility.yul\":44349:44351   */\n      0x20\n        /* \"#utility.yul\":44341:44347   */\n      dup3\n        /* \"#utility.yul\":44338:44352   */\n      lt\n        /* \"#utility.yul\":44318:44336   */\n      dup2\n        /* \"#utility.yul\":44315:44353   */\n      eq\n        /* \"#utility.yul\":44312:44396   */\n      iszero\n      tag_851\n      jumpi\n        /* \"#utility.yul\":44368:44386   */\n      tag_852\n      tag_853\n      jump\t// in\n    tag_852:\n        /* \"#utility.yul\":44312:44396   */\n    tag_851:\n        /* \"#utility.yul\":44133:44402   */\n      pop\n        /* \"#utility.yul\":44082:44402   */\n      swap2\n      swap1\n      pop\n      jump\t// out\n        /* \"#utility.yul\":44408:44689   */\n    tag_775:\n        /* \"#utility.yul\":44491:44518   */\n      tag_855\n        /* \"#utility.yul\":44513:44517   */\n      dup3\n        /* \"#utility.yul\":44491:44518   */\n      tag_535\n      jump\t// in\n    tag_855:\n        /* \"#utility.yul\":44483:44489   */\n      dup2\n        /* \"#utility.yul\":44479:44519   */\n      add\n        /* \"#utility.yul\":44621:44627   */\n      dup2\n        /* \"#utility.yul\":44609:44619   */\n      dup2\n        /* \"#utility.yul\":44606:44628   */\n      lt\n        /* \"#utility.yul\":44585:44603   */\n      0xffffffffffffffff\n        /* \"#utility.yul\":44573:44583   */\n      dup3\n        /* \"#utility.yul\":44570:44604   */\n      gt\n        /* \"#utility.yul\":44567:44629   */\n      or\n        /* \"#utility.yul\":44564:44652   */\n      iszero\n      tag_856\n      jumpi\n        /* \"#utility.yul\":44632:44650   */\n      tag_857\n      tag_780\n      jump\t// in\n    tag_857:\n        /* \"#utility.yul\":44564:44652   */\n    tag_856:\n        /* \"#utility.yul\":44672:44682   */\n      dup1\n        /* \"#utility.yul\":44668:44670   */\n      0x40\n        /* \"#utility.yul\":44661:44683   */\n      mstore\n        /* \"#utility.yul\":44451:44689   */\n      pop\n        /* \"#utility.yul\":44408:44689   */\n      pop\n      pop\n      jump\t// out\n        /* \"#utility.yul\":44695:44896   */\n    tag_233:\n        /* \"#utility.yul\":44734:44737   */\n      0x00\n        /* \"#utility.yul\":44757:44781   */\n      tag_859\n        /* \"#utility.yul\":44775:44780   */\n      dup3\n        /* \"#utility.yul\":44757:44781   */\n      tag_665\n      jump\t// in\n    tag_859:\n        /* \"#utility.yul\":44748:44781   */\n      swap2\n      pop\n        /* \"#utility.yul\":44803:44837   */\n      0xffffffffffffffffffffffffffffffff\n        /* \"#utility.yul\":44796:44801   */\n      dup3\n        /* \"#utility.yul\":44793:44838   */\n      eq\n        /* \"#utility.yul\":44790:44861   */\n      iszero\n      tag_860\n      jumpi\n        /* \"#utility.yul\":44841:44859   */\n      tag_861\n      tag_818\n      jump\t// in\n    tag_861:\n        /* \"#utility.yul\":44790:44861   */\n    tag_860:\n        /* \"#utility.yul\":44888:44889   */\n      0x01\n        /* \"#utility.yul\":44881:44886   */\n      dup3\n        /* \"#utility.yul\":44877:44890   */\n      add\n        /* \"#utility.yul\":44870:44890   */\n      swap1\n      pop\n        /* \"#utility.yul\":44695:44896   */\n      swap2\n      swap1\n      pop\n      jump\t// out\n        /* \"#utility.yul\":44902:45073   */\n    tag_258:\n        /* \"#utility.yul\":44940:44943   */\n      0x00\n        /* \"#utility.yul\":44963:44986   */\n      tag_863\n        /* \"#utility.yul\":44980:44985   */\n      dup3\n        /* \"#utility.yul\":44963:44986   */\n      tag_669\n      jump\t// in\n    tag_863:\n        /* \"#utility.yul\":44954:44986   */\n      swap2\n      pop\n        /* \"#utility.yul\":45008:45014   */\n      0xffff\n        /* \"#utility.yul\":45001:45006   */\n      dup3\n        /* \"#utility.yul\":44998:45015   */\n      eq\n        /* \"#utility.yul\":44995:45038   */\n      iszero\n      tag_864\n      jumpi\n        /* \"#utility.yul\":45018:45036   */\n      tag_865\n      tag_818\n      jump\t// in\n    tag_865:\n        /* \"#utility.yul\":44995:45038   */\n    tag_864:\n        /* \"#utility.yul\":45065:45066   */\n      0x01\n        /* \"#utility.yul\":45058:45063   */\n      dup3\n        /* \"#utility.yul\":45054:45067   */\n      add\n        /* \"#utility.yul\":45047:45067   */\n      swap1\n      pop\n        /* \"#utility.yul\":44902:45073   */\n      swap2\n      swap1\n      pop\n      jump\t// out\n        /* \"#utility.yul\":45079:45312   */\n    tag_97:\n        /* \"#utility.yul\":45118:45121   */\n      0x00\n        /* \"#utility.yul\":45141:45165   */\n      tag_867\n        /* \"#utility.yul\":45159:45164   */\n      dup3\n        /* \"#utility.yul\":45141:45165   */\n      tag_673\n      jump\t// in\n    tag_867:\n        /* \"#utility.yul\":45132:45165   */\n      swap2\n      pop\n        /* \"#utility.yul\":45187:45253   */\n      0xffffffffffffffffffffffffffffffffffffffffffffffffffffffffffffffff\n        /* \"#utility.yul\":45180:45185   */\n      dup3\n        /* \"#utility.yul\":45177:45254   */\n      eq\n        /* \"#utility.yul\":45174:45277   */\n      iszero\n      tag_868\n      jumpi\n        /* \"#utility.yul\":45257:45275   */\n      tag_869\n      tag_818\n      jump\t// in\n    tag_869:\n        /* \"#utility.yul\":45174:45277   */\n    tag_868:\n        /* \"#utility.yul\":45304:45305   */\n      0x01\n        /* \"#utility.yul\":45297:45302   */\n      dup3\n        /* \"#utility.yul\":45293:45306   */\n      add\n        /* \"#utility.yul\":45286:45306   */\n      swap1\n      pop\n        /* \"#utility.yul\":45079:45312   */\n      swap2\n      swap1\n      pop\n      jump\t// out\n        /* \"#utility.yul\":45318:45498   */\n    tag_818:\n        /* \"#utility.yul\":45366:45443   */\n      0x4e487b7100000000000000000000000000000000000000000000000000000000\n        /* \"#utility.yul\":45363:45364   */\n      0x00\n        /* \"#utility.yul\":45356:45444   */\n      mstore\n        /* \"#utility.yul\":45463:45467   */\n      0x11\n        /* \"#utility.yul\":45460:45461   */\n      0x04\n        /* \"#utility.yul\":45453:45468   */\n      mstore\n        /* \"#utility.yul\":45487:45491   */\n      0x24\n        /* \"#utility.yul\":45484:45485   */\n      0x00\n        /* \"#utility.yul\":45477:45492   */\n      revert\n        /* \"#utility.yul\":45504:45684   */\n    tag_853:\n        /* \"#utility.yul\":45552:45629   */\n      0x4e487b7100000000000000000000000000000000000000000000000000000000\n        /* \"#utility.yul\":45549:45550   */\n      0x00\n        /* \"#utility.yul\":45542:45630   */\n      mstore\n        /* \"#utility.yul\":45649:45653   */\n      0x22\n        /* \"#utility.yul\":45646:45647   */\n      0x04\n        /* \"#utility.yul\":45639:45654   */\n      mstore\n        /* \"#utility.yul\":45673:45677   */\n      0x24\n        /* \"#utility.yul\":45670:45671   */\n      0x00\n        /* \"#utility.yul\":45663:45678   */\n      revert\n        /* \"#utility.yul\":45690:45870   */\n    tag_108:\n        /* \"#utility.yul\":45738:45815   */\n      0x4e487b7100000000000000000000000000000000000000000000000000000000\n        /* \"#utility.yul\":45735:45736   */\n      0x00\n        /* \"#utility.yul\":45728:45816   */\n      mstore\n        /* \"#utility.yul\":45835:45839   */\n      0x32\n        /* \"#utility.yul\":45832:45833   */\n      0x04\n        /* \"#utility.yul\":45825:45840   */\n      mstore\n        /* \"#utility.yul\":45859:45863   */\n      0x24\n        /* \"#utility.yul\":45856:45857   */\n      0x00\n        /* \"#utility.yul\":45849:45864   */\n      revert\n        /* \"#utility.yul\":45876:46056   */\n    tag_780:\n        /* \"#utility.yul\":45924:46001   */\n      0x4e487b7100000000000000000000000000000000000000000000000000000000\n        /* \"#utility.yul\":45921:45922   */\n      0x00\n        /* \"#utility.yul\":45914:46002   */\n      mstore\n        /* \"#utility.yul\":46021:46025   */\n      0x41\n        /* \"#utility.yul\":46018:46019   */\n      0x04\n        /* \"#utility.yul\":46011:46026   */\n      mstore\n        /* \"#utility.yul\":46045:46049   */\n      0x24\n        /* \"#utility.yul\":46042:46043   */\n      0x00\n        /* \"#utility.yul\":46035:46050   */\n      revert\n        /* \"#utility.yul\":46062:46179   */\n    tag_809:\n        /* \"#utility.yul\":46171:46172   */\n      0x00\n        /* \"#utility.yul\":46168:46169   */\n      dup1\n        /* \"#utility.yul\":46161:46173   */\n      revert\n        /* \"#utility.yul\":46185:46302   */\n    tag_409:\n        /* \"#utility.yul\":46294:46295   */\n      0x00\n        /* \"#utility.yul\":46291:46292   */\n      dup1\n        /* \"#utility.yul\":46284:46296   */\n      revert\n        /* \"#utility.yul\":46308:46425   */\n    tag_370:\n        /* \"#utility.yul\":46417:46418   */\n      0x00\n        /* \"#utility.yul\":46414:46415   */\n      dup1\n        /* \"#utility.yul\":46407:46419   */\n      revert\n        /* \"#utility.yul\":46431:46548   */\n    tag_767:\n        /* \"#utility.yul\":46540:46541   */\n      0x00\n        /* \"#utility.yul\":46537:46538   */\n      dup1\n        /* \"#utility.yul\":46530:46542   */\n      revert\n        /* \"#utility.yul\":46554:46671   */\n    tag_764:\n        /* \"#utility.yul\":46663:46664   */\n      0x00\n        /* \"#utility.yul\":46660:46661   */\n      dup1\n        /* \"#utility.yul\":46653:46665   */\n      revert\n        /* \"#utility.yul\":46677:46794   */\n    tag_812:\n        /* \"#utility.yul\":46786:46787   */\n      0x00\n        /* \"#utility.yul\":46783:46784   */\n      dup1\n        /* \"#utility.yul\":46776:46788   */\n      revert\n        /* \"#utility.yul\":46800:46917   */\n    tag_352:\n        /* \"#utility.yul\":46909:46910   */\n      0x00\n        /* \"#utility.yul\":46906:46907   */\n      dup1\n        /* \"#utility.yul\":46899:46911   */\n      revert\n        /* \"#utility.yul\":46923:47040   */\n    tag_770:\n        /* \"#utility.yul\":47032:47033   */\n      0x00\n        /* \"#utility.yul\":47029:47030   */\n      dup1\n        /* \"#utility.yul\":47022:47034   */\n      revert\n        /* \"#utility.yul\":47046:47163   */\n    tag_392:\n        /* \"#utility.yul\":47155:47156   */\n      0x00\n        /* \"#utility.yul\":47152:47153   */\n      dup1\n        /* \"#utility.yul\":47145:47157   */\n      revert\n        /* \"#utility.yul\":47169:47286   */\n    tag_454:\n        /* \"#utility.yul\":47278:47279   */\n      0x00\n        /* \"#utility.yul\":47275:47276   */\n      dup1\n        /* \"#utility.yul\":47268:47280   */\n      revert\n        /* \"#utility.yul\":47292:47409   */\n    tag_806:\n        /* \"#utility.yul\":47401:47402   */\n      0x00\n        /* \"#utility.yul\":47398:47399   */\n      dup1\n        /* \"#utility.yul\":47391:47403   */\n      revert\n        /* \"#utility.yul\":47415:47532   */\n    tag_436:\n        /* \"#utility.yul\":47524:47525   */\n      0x00\n        /* \"#utility.yul\":47521:47522   */\n      dup1\n        /* \"#utility.yul\":47514:47526   */\n      revert\n        /* \"#utility.yul\":47538:47640   */\n    tag_535:\n        /* \"#utility.yul\":47579:47585   */\n      0x00\n        /* \"#utility.yul\":47630:47632   */\n      0x1f\n        /* \"#utility.yul\":47626:47633   */\n      not\n        /* \"#utility.yul\":47621:47623   */\n      0x1f\n        /* \"#utility.yul\":47614:47619   */\n      dup4\n        /* \"#utility.yul\":47610:47624   */\n      add\n        /* \"#utility.yul\":47606:47634   */\n      and\n        /* \"#utility.yul\":47596:47634   */\n      swap1\n      pop\n        /* \"#utility.yul\":47538:47640   */\n      swap2\n      swap1\n      pop\n      jump\t// out\n        /* \"#utility.yul\":47646:47814   */\n    tag_571:\n        /* \"#utility.yul\":47786:47806   */\n      0x50726f706f73616c3a20696e6163746976650000000000000000000000000000\n        /* \"#utility.yul\":47782:47783   */\n      0x00\n        /* \"#utility.yul\":47774:47780   */\n      dup3\n        /* \"#utility.yul\":47770:47784   */\n      add\n        /* \"#utility.yul\":47763:47807   */\n      mstore\n        /* \"#utility.yul\":47646:47814   */\n      pop\n      jump\t// out\n        /* \"#utility.yul\":47820:48051   */\n    tag_576:\n        /* \"#utility.yul\":47960:47994   */\n      0x456e642074696d652073686f756c642062652067726561746572207468616e20\n        /* \"#utility.yul\":47956:47957   */\n      0x00\n        /* \"#utility.yul\":47948:47954   */\n      dup3\n        /* \"#utility.yul\":47944:47958   */\n      add\n        /* \"#utility.yul\":47937:47995   */\n      mstore\n        /* \"#utility.yul\":48029:48043   */\n      0x63757272656e742074696d650000000000000000000000000000000000000000\n        /* \"#utility.yul\":48024:48026   */\n      0x20\n        /* \"#utility.yul\":48016:48022   */\n      dup3\n        /* \"#utility.yul\":48012:48027   */\n      add\n        /* \"#utility.yul\":48005:48044   */\n      mstore\n        /* \"#utility.yul\":47820:48051   */\n      pop\n      jump\t// out\n        /* \"#utility.yul\":48057:48278   */\n    tag_581:\n        /* \"#utility.yul\":48197:48231   */\n      0x45524332303a206275726e20616d6f756e7420657863656564732062616c616e\n        /* \"#utility.yul\":48193:48194   */\n      0x00\n        /* \"#utility.yul\":48185:48191   */\n      dup3\n        /* \"#utility.yul\":48181:48195   */\n      add\n        /* \"#utility.yul\":48174:48232   */\n      mstore\n        /* \"#utility.yul\":48266:48270   */\n      0x6365000000000000000000000000000000000000000000000000000000000000\n        /* \"#utility.yul\":48261:48263   */\n      0x20\n        /* \"#utility.yul\":48253:48259   */\n      dup3\n        /* \"#utility.yul\":48249:48264   */\n      add\n        /* \"#utility.yul\":48242:48271   */\n      mstore\n        /* \"#utility.yul\":48057:48278   */\n      pop\n      jump\t// out\n        /* \"#utility.yul\":48284:48447   */\n    tag_586:\n        /* \"#utility.yul\":48424:48439   */\n      0x616c726561647920766f74656400000000000000000000000000000000000000\n        /* \"#utility.yul\":48420:48421   */\n      0x00\n        /* \"#utility.yul\":48412:48418   */\n      dup3\n        /* \"#utility.yul\":48408:48422   */\n      add\n        /* \"#utility.yul\":48401:48440   */\n      mstore\n        /* \"#utility.yul\":48284:48447   */\n      pop\n      jump\t// out\n        /* \"#utility.yul\":48453:48630   */\n    tag_591:\n        /* \"#utility.yul\":48593:48622   */\n      0x50726f706f73616c3a20696e76616c69642063616e6469646174650000000000\n        /* \"#utility.yul\":48589:48590   */\n      0x00\n        /* \"#utility.yul\":48581:48587   */\n      dup3\n        /* \"#utility.yul\":48577:48591   */\n      add\n        /* \"#utility.yul\":48570:48623   */\n      mstore\n        /* \"#utility.yul\":48453:48630   */\n      pop\n      jump\t// out\n        /* \"#utility.yul\":48636:48806   */\n    tag_596:\n        /* \"#utility.yul\":48776:48798   */\n      0x6e6f7420612076616c69642070726f706f73616c000000000000000000000000\n        /* \"#utility.yul\":48772:48773   */\n      0x00\n        /* \"#utility.yul\":48764:48770   */\n      dup3\n        /* \"#utility.yul\":48760:48774   */\n      add\n        /* \"#utility.yul\":48753:48799   */\n      mstore\n        /* \"#utility.yul\":48636:48806   */\n      pop\n      jump\t// out\n        /* \"#utility.yul\":48812:49034   */\n    tag_601:\n        /* \"#utility.yul\":48952:48986   */\n      0x6e6f7420612076616c696420766f74657220666f7220746869732070726f706f\n        /* \"#utility.yul\":48948:48949   */\n      0x00\n        /* \"#utility.yul\":48940:48946   */\n      dup3\n        /* \"#utility.yul\":48936:48950   */\n      add\n        /* \"#utility.yul\":48929:48987   */\n      mstore\n        /* \"#utility.yul\":49021:49026   */\n      0x73616c0000000000000000000000000000000000000000000000000000000000\n        /* \"#utility.yul\":49016:49018   */\n      0x20\n        /* \"#utility.yul\":49008:49014   */\n      dup3\n        /* \"#utility.yul\":49004:49019   */\n      add\n        /* \"#utility.yul\":48997:49027   */\n      mstore\n        /* \"#utility.yul\":48812:49034   */\n      pop\n      jump\t// out\n        /* \"#utility.yul\":49040:49210   */\n    tag_606:\n        /* \"#utility.yul\":49180:49202   */\n      0x70726f706f73616c206e6f742073746172746564000000000000000000000000\n        /* \"#utility.yul\":49176:49177   */\n      0x00\n        /* \"#utility.yul\":49168:49174   */\n      dup3\n        /* \"#utility.yul\":49164:49178   */\n      add\n        /* \"#utility.yul\":49157:49203   */\n      mstore\n        /* \"#utility.yul\":49040:49210   */\n      pop\n      jump\t// out\n        /* \"#utility.yul\":49216:49438   */\n    tag_611:\n        /* \"#utility.yul\":49356:49390   */\n      0x4e6f7420612076616c696420766f74657220666f7220746869732070726f706f\n        /* \"#utility.yul\":49352:49353   */\n      0x00\n        /* \"#utility.yul\":49344:49350   */\n      dup3\n        /* \"#utility.yul\":49340:49354   */\n      add\n        /* \"#utility.yul\":49333:49391   */\n      mstore\n        /* \"#utility.yul\":49425:49430   */\n      0x73616c0000000000000000000000000000000000000000000000000000000000\n        /* \"#utility.yul\":49420:49422   */\n      0x20\n        /* \"#utility.yul\":49412:49418   */\n      dup3\n        /* \"#utility.yul\":49408:49423   */\n      add\n        /* \"#utility.yul\":49401:49431   */\n      mstore\n        /* \"#utility.yul\":49216:49438   */\n      pop\n      jump\t// out\n        /* \"#utility.yul\":49444:49612   */\n    tag_616:\n        /* \"#utility.yul\":49584:49604   */\n      0x696e76616c69642070726f706f73616c49640000000000000000000000000000\n        /* \"#utility.yul\":49580:49581   */\n      0x00\n        /* \"#utility.yul\":49572:49578   */\n      dup3\n        /* \"#utility.yul\":49568:49582   */\n      add\n        /* \"#utility.yul\":49561:49605   */\n      mstore\n        /* \"#utility.yul\":49444:49612   */\n      pop\n      jump\t// out\n        /* \"#utility.yul\":49618:49840   */\n    tag_621:\n        /* \"#utility.yul\":49758:49792   */\n      0x6e6f742073756666696369656e742062616c616e636520746f20636173742076\n        /* \"#utility.yul\":49754:49755   */\n      0x00\n        /* \"#utility.yul\":49746:49752   */\n      dup3\n        /* \"#utility.yul\":49742:49756   */\n      add\n        /* \"#utility.yul\":49735:49793   */\n      mstore\n        /* \"#utility.yul\":49827:49832   */\n      0x6f74650000000000000000000000000000000000000000000000000000000000\n        /* \"#utility.yul\":49822:49824   */\n      0x20\n        /* \"#utility.yul\":49814:49820   */\n      dup3\n        /* \"#utility.yul\":49810:49825   */\n      add\n        /* \"#utility.yul\":49803:49833   */\n      mstore\n        /* \"#utility.yul\":49618:49840   */\n      pop\n      jump\t// out\n        /* \"#utility.yul\":49846:50075   */\n    tag_626:\n        /* \"#utility.yul\":49986:50020   */\n      0x456e642074696d652073686f756c642062652067726561746572207468616e20\n        /* \"#utility.yul\":49982:49983   */\n      0x00\n        /* \"#utility.yul\":49974:49980   */\n      dup3\n        /* \"#utility.yul\":49970:49984   */\n      add\n        /* \"#utility.yul\":49963:50021   */\n      mstore\n        /* \"#utility.yul\":50055:50067   */\n      0x73746172742074696d6500000000000000000000000000000000000000000000\n        /* \"#utility.yul\":50050:50052   */\n      0x20\n        /* \"#utility.yul\":50042:50048   */\n      dup3\n        /* \"#utility.yul\":50038:50053   */\n      add\n        /* \"#utility.yul\":50031:50068   */\n      mstore\n        /* \"#utility.yul\":49846:50075   */\n      pop\n      jump\t// out\n        /* \"#utility.yul\":50081:50301   */\n    tag_631:\n        /* \"#utility.yul\":50221:50255   */\n      0x45524332303a206275726e2066726f6d20746865207a65726f20616464726573\n        /* \"#utility.yul\":50217:50218   */\n      0x00\n        /* \"#utility.yul\":50209:50215   */\n      dup3\n        /* \"#utility.yul\":50205:50219   */\n      add\n        /* \"#utility.yul\":50198:50256   */\n      mstore\n        /* \"#utility.yul\":50290:50293   */\n      0x7300000000000000000000000000000000000000000000000000000000000000\n        /* \"#utility.yul\":50285:50287   */\n      0x20\n        /* \"#utility.yul\":50277:50283   */\n      dup3\n        /* \"#utility.yul\":50273:50288   */\n      add\n        /* \"#utility.yul\":50266:50294   */\n      mstore\n        /* \"#utility.yul\":50081:50301   */\n      pop\n      jump\t// out\n        /* \"#utility.yul\":50307:50530   */\n    tag_636:\n        /* \"#utility.yul\":50447:50481   */\n      0x6e6f7420612076616c6964206c656e677468206f66206861736820726573706f\n        /* \"#utility.yul\":50443:50444   */\n      0x00\n        /* \"#utility.yul\":50435:50441   */\n      dup3\n        /* \"#utility.yul\":50431:50445   */\n      add\n        /* \"#utility.yul\":50424:50482   */\n      mstore\n        /* \"#utility.yul\":50516:50522   */\n      0x6e73652100000000000000000000000000000000000000000000000000000000\n        /* \"#utility.yul\":50511:50513   */\n      0x20\n        /* \"#utility.yul\":50503:50509   */\n      dup3\n        /* \"#utility.yul\":50499:50514   */\n      add\n        /* \"#utility.yul\":50492:50523   */\n      mstore\n        /* \"#utility.yul\":50307:50530   */\n      pop\n      jump\t// out\n        /* \"#utility.yul\":50536:50690   */\n    tag_641:\n        /* \"#utility.yul\":50676:50682   */\n      0x6d696e7400000000000000000000000000000000000000000000000000000000\n        /* \"#utility.yul\":50672:50673   */\n      0x00\n        /* \"#utility.yul\":50664:50670   */\n      dup3\n        /* \"#utility.yul\":50660:50674   */\n      add\n        /* \"#utility.yul\":50653:50683   */\n      mstore\n        /* \"#utility.yul\":50536:50690   */\n      pop\n      jump\t// out\n        /* \"#utility.yul\":50696:50875   */\n    tag_646:\n        /* \"#utility.yul\":50836:50867   */\n      0x496e76616c696420766f74657220666f722070726f706f73616c496421000000\n        /* \"#utility.yul\":50832:50833   */\n      0x00\n        /* \"#utility.yul\":50824:50830   */\n      dup3\n        /* \"#utility.yul\":50820:50834   */\n      add\n        /* \"#utility.yul\":50813:50868   */\n      mstore\n        /* \"#utility.yul\":50696:50875   */\n      pop\n      jump\t// out\n        /* \"#utility.yul\":50881:51035   */\n    tag_651:\n        /* \"#utility.yul\":51021:51027   */\n      0x6275726e00000000000000000000000000000000000000000000000000000000\n        /* \"#utility.yul\":51017:51018   */\n      0x00\n        /* \"#utility.yul\":51009:51015   */\n      dup3\n        /* \"#utility.yul\":51005:51019   */\n      add\n        /* \"#utility.yul\":50998:51028   */\n      mstore\n        /* \"#utility.yul\":50881:51035   */\n      pop\n      jump\t// out\n        /* \"#utility.yul\":51041:51200   */\n    tag_656:\n        /* \"#utility.yul\":51181:51192   */\n      0x6e6f7420766f7465640000000000000000000000000000000000000000000000\n        /* \"#utility.yul\":51177:51178   */\n      0x00\n        /* \"#utility.yul\":51169:51175   */\n      dup3\n        /* \"#utility.yul\":51165:51179   */\n      add\n        /* \"#utility.yul\":51158:51193   */\n      mstore\n        /* \"#utility.yul\":51041:51200   */\n      pop\n      jump\t// out\n        /* \"#utility.yul\":51206:51387   */\n    tag_661:\n        /* \"#utility.yul\":51346:51379   */\n      0x45524332303a206d696e7420746f20746865207a65726f206164647265737300\n        /* \"#utility.yul\":51342:51343   */\n      0x00\n        /* \"#utility.yul\":51334:51340   */\n      dup3\n        /* \"#utility.yul\":51330:51344   */\n      add\n        /* \"#utility.yul\":51323:51380   */\n      mstore\n        /* \"#utility.yul\":51206:51387   */\n      pop\n      jump\t// out\n        /* \"#utility.yul\":51393:51515   */\n    tag_397:\n        /* \"#utility.yul\":51466:51490   */\n      tag_907\n        /* \"#utility.yul\":51484:51489   */\n      dup2\n        /* \"#utility.yul\":51466:51490   */\n      tag_494\n      jump\t// in\n    tag_907:\n        /* \"#utility.yul\":51459:51464   */\n      dup2\n        /* \"#utility.yul\":51456:51491   */\n      eq\n        /* \"#utility.yul\":51446:51509   */\n      tag_908\n      jumpi\n        /* \"#utility.yul\":51505:51506   */\n      0x00\n        /* \"#utility.yul\":51502:51503   */\n      dup1\n        /* \"#utility.yul\":51495:51507   */\n      revert\n        /* \"#utility.yul\":51446:51509   */\n    tag_908:\n        /* \"#utility.yul\":51393:51515   */\n      pop\n      jump\t// out\n        /* \"#utility.yul\":51521:51643   */\n    tag_428:\n        /* \"#utility.yul\":51594:51618   */\n      tag_910\n        /* \"#utility.yul\":51612:51617   */\n      dup2\n        /* \"#utility.yul\":51594:51618   */\n      tag_673\n      jump\t// in\n    tag_910:\n        /* \"#utility.yul\":51587:51592   */\n      dup2\n        /* \"#utility.yul\":51584:51619   */\n      eq\n        /* \"#utility.yul\":51574:51637   */\n      tag_911\n      jumpi\n        /* \"#utility.yul\":51633:51634   */\n      0x00\n        /* \"#utility.yul\":51630:51631   */\n      dup1\n        /* \"#utility.yul\":51623:51635   */\n      revert\n        /* \"#utility.yul\":51574:51637   */\n    tag_911:\n        /* \"#utility.yul\":51521:51643   */\n      pop\n      jump\t// out\n        /* \"#utility.yul\":51649:51767   */\n    tag_432:\n        /* \"#utility.yul\":51720:51742   */\n      tag_913\n        /* \"#utility.yul\":51736:51741   */\n      dup2\n        /* \"#utility.yul\":51720:51742   */\n      tag_677\n      jump\t// in\n    tag_913:\n        /* \"#utility.yul\":51713:51718   */\n      dup2\n        /* \"#utility.yul\":51710:51743   */\n      eq\n        /* \"#utility.yul\":51700:51761   */\n      tag_914\n      jumpi\n        /* \"#utility.yul\":51757:51758   */\n      0x00\n        /* \"#utility.yul\":51754:51755   */\n      dup1\n        /* \"#utility.yul\":51747:51759   */\n      revert\n        /* \"#utility.yul\":51700:51761   */\n    tag_914:\n        /* \"#utility.yul\":51649:51767   */\n      pop\n      jump\t// out\n\n    auxdata: 0xa2646970667358221220fc7ac168f57b0e3c8e383a8c86d4c6f767c8dfd62aafc20e98f770f4eea8ec5e64736f6c63430008070033\n}\n",
				"bytecode": {
					"linkReferences": {},
					"object": "60806040523480156200001157600080fd5b506040518060400160405280600c81526020017f51566f74696e67546f6b656e00000000000000000000000000000000000000008152506040518060400160405280600281526020017f5176000000000000000000000000000000000000000000000000000000000000815250816002908051906020019062000096929190620000f9565b508060039080519060200190620000af929190620000f9565b50505033600460006101000a81548173ffffffffffffffffffffffffffffffffffffffff021916908373ffffffffffffffffffffffffffffffffffffffff1602179055506200020e565b8280546200010790620001a9565b90600052602060002090601f0160209004810192826200012b576000855562000177565b82601f106200014657805160ff191683800117855562000177565b8280016001018555821562000177579182015b828111156200017657825182559160200191906001019062000159565b5b5090506200018691906200018a565b5090565b5b80821115620001a55760008160009055506001016200018b565b5090565b60006002820490506001821680620001c257607f821691505b60208210811415620001d957620001d8620001df565b5b50919050565b7f4e487b7100000000000000000000000000000000000000000000000000000000600052602260045260246000fd5b613ae3806200021e6000396000f3fe608060405234801561001057600080fd5b50600436106100b45760003560e01c806370a082311161007157806370a082311461018157806393d336aa146101b157806395d89b41146101e15780639d671564146101ff578063ab9c70d414610230578063e745d68e14610263576100b4565b8063013cf08b146100b957806306fdde03146100ef57806318160ddd1461010d578063313ce5671461012b5780634de77e48146101495780635c230eee14610165575b600080fd5b6100d360048036038101906100ce9190612375565b610294565b6040516100e69796959493929190612b44565b60405180910390f35b6100f7610399565b6040516101049190612bd5565b60405180910390f35b61011561042b565b6040516101229190612eb8565b60405180910390f35b610133610435565b6040516101409190612fce565b60405180910390f35b610163600480360381019061015e91906124b0565b61043e565b005b61017f600480360381019061017a91906123a2565b610768565b005b61019b60048036038101906101969190612308565b610c31565b6040516101a89190612eb8565b60405180910390f35b6101cb60048036038101906101c69190612441565b610c79565b6040516101d89190612bba565b60405180910390f35b6101e9610dbe565b6040516101f69190612bd5565b60405180910390f35b61021960048036038101906102149190612375565b610e50565b604051610227929190612f9e565b60405180910390f35b61024a60048036038101906102459190612335565b610fcb565b60405161025a9493929190612ed3565b60405180910390f35b61027d60048036038101906102789190612308565b611035565b60405161028b929190612e8f565b60405180910390f35b60076020528060005260406000206000915090508060000160009054906101000a900473ffffffffffffffffffffffffffffffffffffffff16908060000160149054906101000a900460ff16908060010180546102f090613414565b80601f016020809104026020016040519081016040528092919081815260200182805461031c90613414565b80156103695780601f1061033e57610100808354040283529160200191610369565b820191906000526020600020905b81548152906001019060200180831161034c57829003601f168201915b5050505050908060020154908060030154908060040160009054906101000a900461ffff16908060050154905087565b6060600280546103a890613414565b80601f01602080910402602001604051908101604052809291908181526020018280546103d490613414565b80156104215780601f106103f657610100808354040283529160200191610421565b820191906000526020600020905b81548152906001019060200180831161040457829003601f168201915b5050505050905090565b6000600154905090565b60006012905090565b854210610480576040517f08c379a000000000000000000000000000000000000000000000000000000000815260040161047790612cd7565b60405180910390fd5b8442106104c2576040517f08c379a00000000000000000000000000000000000000000000000000000000081526004016104b990612c17565b60405180910390fd5b848610610504576040517f08c379a00000000000000000000000000000000000000000000000000000000081526004016104fb90612d57565b60405180910390fd5b60056000815480929190610517906134db565b9190505550610553898989898989878a8a600760006005548152602001908152602001600020611091909998979695949392919063ffffffff16565b507f239a8a71a7d1cb0d134f6cc072ad6390e36a88c8e78dff69013ee79528441e8060055489898989898989604051610593989796959493929190612f18565b60405180910390a1600160096000600554815260200190815260200160002060006101000a81548160ff02191690831515021790555060005b8851811015610701576105f98982815181106105eb576105ea613582565b5b6020026020010151836112c3565b61069a6005548a838151811061061257610611613582565b5b6020026020010151600085600860008f888151811061063457610633613582565b5b602002602001015173ffffffffffffffffffffffffffffffffffffffff1673ffffffffffffffffffffffffffffffffffffffff1681526020019081526020016000206000600554815260200190815260200160002061133490949392919063ffffffff16565b507fabf5327be9f5825c40d58bda541dd07f09b62df3376bbd5ecdbaa8bd82a9d4928982815181106106cf576106ce613582565b5b6020026020010151836040516106e6929190612db7565b60405180910390a180806106f9906134db565b9150506105cc565b5061075c600554600660006107146113b4565b73ffffffffffffffffffffffffffffffffffffffff1673ffffffffffffffffffffffffffffffffffffffff1681526020019081526020016000206113bc90919063ffffffff16565b50505050505050505050565b6009600085815260200190815260200160002060009054906101000a900460ff166107c8576040517f08c379a00000000000000000000000000000000000000000000000000000000081526004016107bf90612d17565b60405180910390fd5b83600860008573ffffffffffffffffffffffffffffffffffffffff1673ffffffffffffffffffffffffffffffffffffffff1681526020019081526020016000206000868152602001908152602001600020600001541461085d576040517f08c379a000000000000000000000000000000000000000000000000000000000815260040161085490612cb7565b60405180910390fd5b600860008473ffffffffffffffffffffffffffffffffffffffff1673ffffffffffffffffffffffffffffffffffffffff168152602001908152602001600020600085815260200190815260200160002060010160149054906101000a900460ff16156108fe576040517f08c379a00000000000000000000000000000000000000000000000000000000081526004016108f590612c57565b60405180910390fd5b81516007600086815260200190815260200160002060040160009054906101000a900461ffff1661ffff1614610969576040517f08c379a000000000000000000000000000000000000000000000000000000000815260040161096090612d97565b60405180910390fd5b6000805b82518110156109d65782818151811061098957610988613582565b5b60200260200101518382815181106109a4576109a3613582565b5b60200260200101516109b691906132c5565b826109c1919061326f565b915080806109ce906134db565b91505061096d565b5080600860008673ffffffffffffffffffffffffffffffffffffffff1673ffffffffffffffffffffffffffffffffffffffff1681526020019081526020016000206000878152602001908152602001600020600201541015610a6d576040517f08c379a0000000000000000000000000000000000000000000000000000000008152600401610a6490612d37565b60405180910390fd5b610a96848484600760008a815260200190815260200160002061148d909392919063ffffffff16565b50610af1858460066000610aa86113b4565b73ffffffffffffffffffffffffffffffffffffffff1673ffffffffffffffffffffffffffffffffffffffff1681526020019081526020016000206118fc9092919063ffffffff16565b50610b4a600860008673ffffffffffffffffffffffffffffffffffffffff1673ffffffffffffffffffffffffffffffffffffffff1681526020019081526020016000206000878152602001908152602001600020611a89565b506001600860008673ffffffffffffffffffffffffffffffffffffffff1673ffffffffffffffffffffffffffffffffffffffff168152602001908152602001600020600087815260200190815260200160002060010160146101000a81548160ff021916908315150217905550610bd98460076000600554815260200190815260200160002060050154611b37565b7fabf5327be9f5825c40d58bda541dd07f09b62df3376bbd5ecdbaa8bd82a9d4928460076000600554815260200190815260200160002060050154604051610c22929190612e13565b60405180910390a15050505050565b60008060008373ffffffffffffffffffffffffffffffffffffffff1673ffffffffffffffffffffffffffffffffffffffff168152602001908152602001600020549050919050565b600080600090505b8351811015610db657610cae848281518110610ca057610c9f613582565b5b6020026020010151846112c3565b610d4f600554858381518110610cc757610cc6613582565b5b6020026020010151600086600860008a8881518110610ce957610ce8613582565b5b602002602001015173ffffffffffffffffffffffffffffffffffffffff1673ffffffffffffffffffffffffffffffffffffffff1681526020019081526020016000206000600554815260200190815260200160002061133490949392919063ffffffff16565b507fabf5327be9f5825c40d58bda541dd07f09b62df3376bbd5ecdbaa8bd82a9d492848281518110610d8457610d83613582565b5b602002602001015184604051610d9b929190612db7565b60405180910390a18080610dae906134db565b915050610c81565b509392505050565b606060038054610dcd90613414565b80601f0160208091040260200160405190810160405280929190818152602001828054610df990613414565b8015610e465780601f10610e1b57610100808354040283529160200191610e46565b820191906000526020600020905b815481529060010190602001808311610e2957829003601f168201915b5050505050905090565b600060606009600084815260200190815260200160002060009054906101000a900460ff16610eb4576040517f08c379a0000000000000000000000000000000000000000000000000000000008152600401610eab90612c97565b60405180910390fd5b60076000848152602001908152602001600020600a0160076000858152602001908152602001600020600901600060018152602001908152602001600020604051610eff9190612b2d565b90815260200160405180910390205460076000858152602001908152602001600020600901600060018152602001908152602001600020808054610f4290613414565b80601f0160208091040260200160405190810160405280929190818152602001828054610f6e90613414565b8015610fbb5780601f10610f9057610100808354040283529160200191610fbb565b820191906000526020600020905b815481529060010190602001808311610f9e57829003601f168201915b5050505050905091509150915091565b6008602052816000526040600020602052806000526040600020600091509150508060000154908060010160009054906101000a900473ffffffffffffffffffffffffffffffffffffffff16908060010160149054906101000a900460ff16908060020154905084565b60066020528060005260406000206000915090508060000160009054906101000a90046fffffffffffffffffffffffffffffffff16908060000160109054906101000a90046fffffffffffffffffffffffffffffffff16905082565b6000878b60000160006101000a81548173ffffffffffffffffffffffffffffffffffffffff021916908373ffffffffffffffffffffffffffffffffffffffff160217905550898b60000160146101000a81548160ff021916908360ff160217905550848b600101908051906020019061110b929190611e55565b50868b60020181905550858b60030181905550828290508b60040160006101000a81548161ffff021916908361ffff160217905550838b6005018190555060005b8383905081101561121c5760018c6007018585848181106111705761116f613582565b5b90506020028101906111829190612fe9565b604051611190929190612afd565b908152602001604051809103902060006101000a81548160ff0219169083151502179055508383828181106111c8576111c7613582565b5b90506020028101906111da9190612fe9565b8d60080160006001856111ed919061326f565b81526020019081526020016000209190611208929190611edb565b508080611214906134db565b91505061114c565b5060005b89518110156112b05760018c60060160008c848151811061124457611243613582565b5b602002602001015173ffffffffffffffffffffffffffffffffffffffff1673ffffffffffffffffffffffffffffffffffffffff16815260200190815260200160002060006101000a81548160ff02191690831515021790555080806112a8906134db565b915050611220565b50600190509a9950505050505050505050565b6112cb6113b4565b8073ffffffffffffffffffffffffffffffffffffffff16600460009054906101000a900473ffffffffffffffffffffffffffffffffffffffff1673ffffffffffffffffffffffffffffffffffffffff161461132557600080fd5b61132f8383611ba8565b505050565b6000848660000181905550838660010160006101000a81548173ffffffffffffffffffffffffffffffffffffffff021916908373ffffffffffffffffffffffffffffffffffffffff160217905550828660010160146101000a81548160ff0219169083151502179055508186600201819055506001905095945050505050565b600033905090565b600082600001600081819054906101000a90046fffffffffffffffffffffffffffffffff16809291906113ee90613477565b91906101000a8154816fffffffffffffffffffffffffffffffff02191690836fffffffffffffffffffffffffffffffff16021790555050818360010160008560000160009054906101000a90046fffffffffffffffffffffffffffffffff166fffffffffffffffffffffffffffffffff166fffffffffffffffffffffffffffffffff168152602001908152602001600020819055506001905092915050565b600060028560000160149054906101000a900460ff1660ff16146114e6576040517f08c379a00000000000000000000000000000000000000000000000000000000081526004016114dd90612bf7565b60405180910390fd5b846003015442111561173c5760028560000160146101000a81548160ff021916908360ff160217905550600085600a01866008016000600181526020019081526020016000206040516115399190612b2d565b9081526020016040518091039020549050600060019050866008016000600181526020019081526020016000208760090160006001815260200190815260200160002090805461158890613414565b611593929190611f61565b506000600290505b8760040160009054906101000a900461ffff1661ffff168161ffff1611611730578288600a018960080160008461ffff1681526020019081526020016000206040516115e79190612b2d565b90815260200160405180910390205411156116875787600a018860080160008361ffff1681526020019081526020016000206040516116269190612b2d565b9081526020016040518091039020549250600191508760080160008261ffff1681526020019081526020016000208860090160006001815260200190815260200160002090805461167690613414565b611681929190611f61565b5061171d565b8288600a018960080160008461ffff1681526020019081526020016000206040516116b29190612b2d565b908152602001604051809103902054141561171c5781806116d2906134db565b9250508760080160008261ffff16815260200190815260200160002088600901600084815260200190815260200160002090805461170f90613414565b61171a929190611f61565b505b5b8080611728906134b0565b91505061159b565b506000925050506118f4565b8460060160008573ffffffffffffffffffffffffffffffffffffffff1673ffffffffffffffffffffffffffffffffffffffff16815260200190815260200160002060009054906101000a900460ff166117ca576040517f08c379a00000000000000000000000000000000000000000000000000000000081526004016117c190612cf7565b60405180910390fd5b60005b8560040160009054906101000a900461ffff1661ffff168161ffff1610156118ee5785600701848261ffff168151811061180a57611809613582565b5b602002602001015160405161181f9190612b16565b908152602001604051809103902060009054906101000a900460ff1661187a576040517f08c379a000000000000000000000000000000000000000000000000000000000815260040161187190612c77565b60405180910390fd5b828161ffff168151811061189157611890613582565b5b602002602001015186600a01858361ffff16815181106118b4576118b3613582565b5b60200260200101516040516118c99190612b16565b90815260200160405180910390208190555080806118e6906134b0565b9150506117cd565b50600190505b949350505050565b600083600001601081819054906101000a90046fffffffffffffffffffffffffffffffff168092919061192e90613477565b91906101000a8154816fffffffffffffffffffffffffffffffff02191690836fffffffffffffffffffffffffffffffff16021790555050828460020160008660000160109054906101000a90046fffffffffffffffffffffffffffffffff166fffffffffffffffffffffffffffffffff166fffffffffffffffffffffffffffffffff1681526020019081526020016000208190555060005b82518161ffff161015611a4f57828161ffff16815181106119ea576119e9613582565b5b60200260200101518560030160008681526020019081526020016000206000600184611a169190613237565b61ffff1681526020019081526020016000209080519060200190611a3b929190611e55565b508080611a47906134b0565b9150506119c6565b50600184600401600085815260200190815260200160002060006101000a81548160ff021916908315150217905550600190509392505050565b60008082600001541415611ad2576040517f08c379a0000000000000000000000000000000000000000000000000000000008152600401611ac990612df3565b60405180910390fd5b8160010160149054906101000a900460ff1615611b24576040517f08c379a0000000000000000000000000000000000000000000000000000000008152600401611b1b90612e4f565b60405180910390fd5b6000826002018190555060019050919050565b611b3f6113b4565b8073ffffffffffffffffffffffffffffffffffffffff16600460009054906101000a900473ffffffffffffffffffffffffffffffffffffffff1673ffffffffffffffffffffffffffffffffffffffff1614611b9957600080fd5b611ba38383611cc3565b505050565b600073ffffffffffffffffffffffffffffffffffffffff168273ffffffffffffffffffffffffffffffffffffffff161415611c18576040517f08c379a0000000000000000000000000000000000000000000000000000000008152600401611c0f90612e6f565b60405180910390fd5b8060016000828254611c2a919061326f565b92505081905550806000808473ffffffffffffffffffffffffffffffffffffffff1673ffffffffffffffffffffffffffffffffffffffff1681526020019081526020016000206000828254611c7f919061326f565b925050819055507fabf5327be9f5825c40d58bda541dd07f09b62df3376bbd5ecdbaa8bd82a9d4928282604051611cb7929190612db7565b60405180910390a15050565b600073ffffffffffffffffffffffffffffffffffffffff168273ffffffffffffffffffffffffffffffffffffffff161415611d33576040517f08c379a0000000000000000000000000000000000000000000000000000000008152600401611d2a90612d77565b60405180910390fd5b60008060008473ffffffffffffffffffffffffffffffffffffffff1673ffffffffffffffffffffffffffffffffffffffff16815260200190815260200160002054905081811015611db9576040517f08c379a0000000000000000000000000000000000000000000000000000000008152600401611db090612c37565b60405180910390fd5b8181036000808573ffffffffffffffffffffffffffffffffffffffff1673ffffffffffffffffffffffffffffffffffffffff168152602001908152602001600020819055508160016000828254611e10919061331f565b925050819055507fabf5327be9f5825c40d58bda541dd07f09b62df3376bbd5ecdbaa8bd82a9d4928383604051611e48929190612e13565b60405180910390a1505050565b828054611e6190613414565b90600052602060002090601f016020900481019282611e835760008555611eca565b82601f10611e9c57805160ff1916838001178555611eca565b82800160010185558215611eca579182015b82811115611ec9578251825591602001919060010190611eae565b5b509050611ed79190611fee565b5090565b828054611ee790613414565b90600052602060002090601f016020900481019282611f095760008555611f50565b82601f10611f2257803560ff1916838001178555611f50565b82800160010185558215611f50579182015b82811115611f4f578235825591602001919060010190611f34565b5b509050611f5d9190611fee565b5090565b828054611f6d90613414565b90600052602060002090601f016020900481019282611f8f5760008555611fdd565b82601f10611fa05780548555611fdd565b82800160010185558215611fdd57600052602060002091601f016020900482015b82811115611fdc578254825591600101919060010190611fc1565b5b509050611fea9190611fee565b5090565b5b80821115612007576000816000905550600101611fef565b5090565b600061201e61201984613071565b61304c565b90508083825260208201905082856020860282011115612041576120406135fe565b5b60005b85811015612071578161205788826121bb565b845260208401935060208301925050600181019050612044565b5050509392505050565b600061208e6120898461309d565b61304c565b905080838252602082019050828560208602820111156120b1576120b06135fe565b5b60005b858110156120ff57813567ffffffffffffffff8111156120d7576120d66135ea565b5b8086016120e489826122b0565b855260208501945060208401935050506001810190506120b4565b5050509392505050565b600061211c612117846130c9565b61304c565b9050808382526020820190508285602086028201111561213f5761213e6135fe565b5b60005b8581101561216f578161215588826122de565b845260208401935060208301925050600181019050612142565b5050509392505050565b600061218c612187846130f5565b61304c565b9050828152602081018484840111156121a8576121a7613608565b5b6121b38482856133d2565b509392505050565b6000813590506121ca81613a68565b92915050565b600082601f8301126121e5576121e46135ea565b5b81356121f584826020860161200b565b91505092915050565b60008083601f840112612214576122136135ea565b5b8235905067ffffffffffffffff811115612231576122306135e5565b5b60208301915083602082028301111561224d5761224c6135fe565b5b9250929050565b600082601f830112612269576122686135ea565b5b813561227984826020860161207b565b91505092915050565b600082601f830112612297576122966135ea565b5b81356122a7848260208601612109565b91505092915050565b600082601f8301126122c5576122c46135ea565b5b81356122d5848260208601612179565b91505092915050565b6000813590506122ed81613a7f565b92915050565b60008135905061230281613a96565b92915050565b60006020828403121561231e5761231d613617565b5b600061232c848285016121bb565b91505092915050565b6000806040838503121561234c5761234b613617565b5b600061235a858286016121bb565b925050602061236b858286016122de565b9150509250929050565b60006020828403121561238b5761238a613617565b5b6000612399848285016122de565b91505092915050565b600080600080608085870312156123bc576123bb613617565b5b60006123ca878288016122de565b94505060206123db878288016121bb565b935050604085013567ffffffffffffffff8111156123fc576123fb61360d565b5b61240887828801612254565b925050606085013567ffffffffffffffff8111156124295761242861360d565b5b61243587828801612282565b91505092959194509250565b60008060006060848603121561245a57612459613617565b5b6000612468868287016122de565b935050602084013567ffffffffffffffff8111156124895761248861360d565b5b612495868287016121d0565b92505060406124a6868287016122de565b9150509250925092565b60008060008060008060008060006101008a8c0312156124d3576124d2613617565b5b60006124e18c828d016122f3565b99505060208a013567ffffffffffffffff8111156125025761250161360d565b5b61250e8c828d016121d0565b985050604061251f8c828d016121bb565b97505060606125308c828d016122de565b96505060806125418c828d016122de565b95505060a08a013567ffffffffffffffff8111156125625761256161360d565b5b61256e8c828d016122b0565b94505060c08a013567ffffffffffffffff81111561258f5761258e61360d565b5b61259b8c828d016121fe565b935093505060e06125ae8c828d016122de565b9150509295985092959850929598565b60006125ca83836125ec565b60208301905092915050565b60006125e38484846126ed565b90509392505050565b6125f581613353565b82525050565b61260481613353565b82525050565b600061261582613155565b61261f8185613185565b935061262a83613126565b8060005b8381101561265b57815161264288826125be565b975061264d8361316b565b92505060018101905061262e565b5085935050505092915050565b60006126748385613196565b93508360208402850161268684613136565b8060005b878110156126cc5784840389526126a182846131d4565b6126ac8682846125d6565b95506126b784613178565b935060208b019a50505060018101905061268a565b50829750879450505050509392505050565b6126e781613365565b82525050565b60006126f983856131a7565b93506127068385846133d2565b61270f8361361c565b840190509392505050565b600061272683856131c9565b93506127338385846133d2565b82840190509392505050565b600061274a82613160565b61275481856131b8565b93506127648185602086016133e1565b61276d8161361c565b840191505092915050565b600061278382613160565b61278d81856131c9565b935061279d8185602086016133e1565b80840191505092915050565b600081546127b681613414565b6127c081866131c9565b945060018216600081146127db57600181146127ec5761281f565b60ff1983168652818601935061281f565b6127f585613140565b60005b83811015612817578154818901526001820191506020810190506127f8565b838801955050505b50505092915050565b60006128356012836131b8565b91506128408261362d565b602082019050919050565b6000612858602c836131b8565b915061286382613656565b604082019050919050565b600061287b6022836131b8565b9150612886826136a5565b604082019050919050565b600061289e600d836131b8565b91506128a9826136f4565b602082019050919050565b60006128c1601b836131b8565b91506128cc8261371d565b602082019050919050565b60006128e46014836131b8565b91506128ef82613746565b602082019050919050565b60006129076023836131b8565b91506129128261376f565b604082019050919050565b600061292a6014836131b8565b9150612935826137be565b602082019050919050565b600061294d6023836131b8565b9150612958826137e7565b604082019050919050565b60006129706012836131b8565b915061297b82613836565b602082019050919050565b60006129936023836131b8565b915061299e8261385f565b604082019050919050565b60006129b6602a836131b8565b91506129c1826138ae565b604082019050919050565b60006129d96021836131b8565b91506129e4826138fd565b604082019050919050565b60006129fc6024836131b8565b9150612a078261394c565b604082019050919050565b6000612a1f6004836131b8565b9150612a2a8261399b565b602082019050919050565b6000612a42601d836131b8565b9150612a4d826139c4565b602082019050919050565b6000612a656004836131b8565b9150612a70826139ed565b602082019050919050565b6000612a886009836131b8565b9150612a9382613a16565b602082019050919050565b6000612aab601f836131b8565b9150612ab682613a3f565b602082019050919050565b612aca81613371565b82525050565b612ad98161338d565b82525050565b612ae8816133bb565b82525050565b612af7816133c5565b82525050565b6000612b0a82848661271a565b91508190509392505050565b6000612b228284612778565b915081905092915050565b6000612b3982846127a9565b915081905092915050565b600060e082019050612b59600083018a6125fb565b612b666020830189612aee565b8181036040830152612b78818861273f565b9050612b876060830187612adf565b612b946080830186612adf565b612ba160a0830185612ad0565b612bae60c0830184612adf565b98975050505050505050565b6000602082019050612bcf60008301846126de565b92915050565b60006020820190508181036000830152612bef818461273f565b905092915050565b60006020820190508181036000830152612c1081612828565b9050919050565b60006020820190508181036000830152612c308161284b565b9050919050565b60006020820190508181036000830152612c508161286e565b9050919050565b60006020820190508181036000830152612c7081612891565b9050919050565b60006020820190508181036000830152612c90816128b4565b9050919050565b60006020820190508181036000830152612cb0816128d7565b9050919050565b60006020820190508181036000830152612cd0816128fa565b9050919050565b60006020820190508181036000830152612cf08161291d565b9050919050565b60006020820190508181036000830152612d1081612940565b9050919050565b60006020820190508181036000830152612d3081612963565b9050919050565b60006020820190508181036000830152612d5081612986565b9050919050565b60006020820190508181036000830152612d70816129a9565b9050919050565b60006020820190508181036000830152612d90816129cc565b9050919050565b60006020820190508181036000830152612db0816129ef565b9050919050565b60006060820190508181036000830152612dd081612a12565b9050612ddf60208301856125fb565b612dec6040830184612adf565b9392505050565b60006020820190508181036000830152612e0c81612a35565b9050919050565b60006060820190508181036000830152612e2c81612a58565b9050612e3b60208301856125fb565b612e486040830184612adf565b9392505050565b60006020820190508181036000830152612e6881612a7b565b9050919050565b60006020820190508181036000830152612e8881612a9e565b9050919050565b6000604082019050612ea46000830185612ac1565b612eb16020830184612ac1565b9392505050565b6000602082019050612ecd6000830184612adf565b92915050565b6000608082019050612ee86000830187612adf565b612ef560208301866125fb565b612f0260408301856126de565b612f0f6060830184612adf565b95945050505050565b600060e082019050612f2d600083018b612adf565b8181036020830152612f3f818a61260a565b9050612f4e60408301896125fb565b612f5b6060830188612adf565b612f686080830187612adf565b81810360a0830152612f7a818661273f565b905081810360c0830152612f8f818486612668565b90509998505050505050505050565b6000604082019050612fb36000830185612adf565b8181036020830152612fc5818461273f565b90509392505050565b6000602082019050612fe36000830184612aee565b92915050565b60008083356001602003843603038112613006576130056135f4565b5b80840192508235915067ffffffffffffffff821115613028576130276135ef565b5b60208301925060018202360383131561304457613043613603565b5b509250929050565b6000613056613067565b90506130628282613446565b919050565b6000604051905090565b600067ffffffffffffffff82111561308c5761308b6135b1565b5b602082029050602081019050919050565b600067ffffffffffffffff8211156130b8576130b76135b1565b5b602082029050602081019050919050565b600067ffffffffffffffff8211156130e4576130e36135b1565b5b602082029050602081019050919050565b600067ffffffffffffffff8211156131105761310f6135b1565b5b6131198261361c565b9050602081019050919050565b6000819050602082019050919050565b6000819050919050565b60008190508160005260206000209050919050565b600081519050919050565b600081519050919050565b6000602082019050919050565b6000602082019050919050565b600082825260208201905092915050565b600082825260208201905092915050565b600082825260208201905092915050565b600082825260208201905092915050565b600081905092915050565b600080833560016020038436030381126131f1576131f0613612565b5b83810192508235915060208301925067ffffffffffffffff821115613219576132186135e0565b5b60018202360384131561322f5761322e6135f9565b5b509250929050565b60006132428261338d565b915061324d8361338d565b92508261ffff0382111561326457613263613524565b5b828201905092915050565b600061327a826133bb565b9150613285836133bb565b9250827fffffffffffffffffffffffffffffffffffffffffffffffffffffffffffffffff038211156132ba576132b9613524565b5b828201905092915050565b60006132d0826133bb565b91506132db836133bb565b9250817fffffffffffffffffffffffffffffffffffffffffffffffffffffffffffffffff048311821515161561331457613313613524565b5b828202905092915050565b600061332a826133bb565b9150613335836133bb565b92508282101561334857613347613524565b5b828203905092915050565b600061335e8261339b565b9050919050565b60008115159050919050565b60006fffffffffffffffffffffffffffffffff82169050919050565b600061ffff82169050919050565b600073ffffffffffffffffffffffffffffffffffffffff82169050919050565b6000819050919050565b600060ff82169050919050565b82818337600083830152505050565b60005b838110156133ff5780820151818401526020810190506133e4565b8381111561340e576000848401525b50505050565b6000600282049050600182168061342c57607f821691505b602082108114156134405761343f613553565b5b50919050565b61344f8261361c565b810181811067ffffffffffffffff8211171561346e5761346d6135b1565b5b80604052505050565b600061348282613371565b91506fffffffffffffffffffffffffffffffff8214156134a5576134a4613524565b5b600182019050919050565b60006134bb8261338d565b915061ffff8214156134d0576134cf613524565b5b600182019050919050565b60006134e6826133bb565b91507fffffffffffffffffffffffffffffffffffffffffffffffffffffffffffffffff82141561351957613518613524565b5b600182019050919050565b7f4e487b7100000000000000000000000000000000000000000000000000000000600052601160045260246000fd5b7f4e487b7100000000000000000000000000000000000000000000000000000000600052602260045260246000fd5b7f4e487b7100000000000000000000000000000000000000000000000000000000600052603260045260246000fd5b7f4e487b7100000000000000000000000000000000000000000000000000000000600052604160045260246000fd5b600080fd5b600080fd5b600080fd5b600080fd5b600080fd5b600080fd5b600080fd5b600080fd5b600080fd5b600080fd5b600080fd5b600080fd5b6000601f19601f8301169050919050565b7f50726f706f73616c3a20696e6163746976650000000000000000000000000000600082015250565b7f456e642074696d652073686f756c642062652067726561746572207468616e2060008201527f63757272656e742074696d650000000000000000000000000000000000000000602082015250565b7f45524332303a206275726e20616d6f756e7420657863656564732062616c616e60008201527f6365000000000000000000000000000000000000000000000000000000000000602082015250565b7f616c726561647920766f74656400000000000000000000000000000000000000600082015250565b7f50726f706f73616c3a20696e76616c69642063616e6469646174650000000000600082015250565b7f6e6f7420612076616c69642070726f706f73616c000000000000000000000000600082015250565b7f6e6f7420612076616c696420766f74657220666f7220746869732070726f706f60008201527f73616c0000000000000000000000000000000000000000000000000000000000602082015250565b7f70726f706f73616c206e6f742073746172746564000000000000000000000000600082015250565b7f4e6f7420612076616c696420766f74657220666f7220746869732070726f706f60008201527f73616c0000000000000000000000000000000000000000000000000000000000602082015250565b7f696e76616c69642070726f706f73616c49640000000000000000000000000000600082015250565b7f6e6f742073756666696369656e742062616c616e636520746f2063617374207660008201527f6f74650000000000000000000000000000000000000000000000000000000000602082015250565b7f456e642074696d652073686f756c642062652067726561746572207468616e2060008201527f73746172742074696d6500000000000000000000000000000000000000000000602082015250565b7f45524332303a206275726e2066726f6d20746865207a65726f2061646472657360008201527f7300000000000000000000000000000000000000000000000000000000000000602082015250565b7f6e6f7420612076616c6964206c656e677468206f66206861736820726573706f60008201527f6e73652100000000000000000000000000000000000000000000000000000000602082015250565b7f6d696e7400000000000000000000000000000000000000000000000000000000600082015250565b7f496e76616c696420766f74657220666f722070726f706f73616c496421000000600082015250565b7f6275726e00000000000000000000000000000000000000000000000000000000600082015250565b7f6e6f7420766f7465640000000000000000000000000000000000000000000000600082015250565b7f45524332303a206d696e7420746f20746865207a65726f206164647265737300600082015250565b613a7181613353565b8114613a7c57600080fd5b50565b613a88816133bb565b8114613a9357600080fd5b50565b613a9f816133c5565b8114613aaa57600080fd5b5056fea2646970667358221220fc7ac168f57b0e3c8e383a8c86d4c6f767c8dfd62aafc20e98f770f4eea8ec5e64736f6c63430008070033",
					"opcodes": "PUSH1 0x80 PUSH1 0x40 MSTORE CALLVALUE DUP1 ISZERO PUSH3 0x11 JUMPI PUSH1 0x0 DUP1 REVERT JUMPDEST POP PUSH1 0x40 MLOAD DUP1 PUSH1 0x40 ADD PUSH1 0x40 MSTORE DUP1 PUSH1 0xC DUP2 MSTORE PUSH1 0x20 ADD PUSH32 0x51566F74696E67546F6B656E0000000000000000000000000000000000000000 DUP2 MSTORE POP PUSH1 0x40 MLOAD DUP1 PUSH1 0x40 ADD PUSH1 0x40 MSTORE DUP1 PUSH1 0x2 DUP2 MSTORE PUSH1 0x20 ADD PUSH32 0x5176000000000000000000000000000000000000000000000000000000000000 DUP2 MSTORE POP DUP2 PUSH1 0x2 SWAP1 DUP1 MLOAD SWAP1 PUSH1 0x20 ADD SWAP1 PUSH3 0x96 SWAP3 SWAP2 SWAP1 PUSH3 0xF9 JUMP JUMPDEST POP DUP1 PUSH1 0x3 SWAP1 DUP1 MLOAD SWAP1 PUSH1 0x20 ADD SWAP1 PUSH3 0xAF SWAP3 SWAP2 SWAP1 PUSH3 0xF9 JUMP JUMPDEST POP POP POP CALLER PUSH1 0x4 PUSH1 0x0 PUSH2 0x100 EXP DUP2 SLOAD DUP2 PUSH20 0xFFFFFFFFFFFFFFFFFFFFFFFFFFFFFFFFFFFFFFFF MUL NOT AND SWAP1 DUP4 PUSH20 0xFFFFFFFFFFFFFFFFFFFFFFFFFFFFFFFFFFFFFFFF AND MUL OR SWAP1 SSTORE POP PUSH3 0x20E JUMP JUMPDEST DUP3 DUP1 SLOAD PUSH3 0x107 SWAP1 PUSH3 0x1A9 JUMP JUMPDEST SWAP1 PUSH1 0x0 MSTORE PUSH1 0x20 PUSH1 0x0 KECCAK256 SWAP1 PUSH1 0x1F ADD PUSH1 0x20 SWAP1 DIV DUP2 ADD SWAP3 DUP3 PUSH3 0x12B JUMPI PUSH1 0x0 DUP6 SSTORE PUSH3 0x177 JUMP JUMPDEST DUP3 PUSH1 0x1F LT PUSH3 0x146 JUMPI DUP1 MLOAD PUSH1 0xFF NOT AND DUP4 DUP1 ADD OR DUP6 SSTORE PUSH3 0x177 JUMP JUMPDEST DUP3 DUP1 ADD PUSH1 0x1 ADD DUP6 SSTORE DUP3 ISZERO PUSH3 0x177 JUMPI SWAP2 DUP3 ADD JUMPDEST DUP3 DUP2 GT ISZERO PUSH3 0x176 JUMPI DUP3 MLOAD DUP3 SSTORE SWAP2 PUSH1 0x20 ADD SWAP2 SWAP1 PUSH1 0x1 ADD SWAP1 PUSH3 0x159 JUMP JUMPDEST JUMPDEST POP SWAP1 POP PUSH3 0x186 SWAP2 SWAP1 PUSH3 0x18A JUMP JUMPDEST POP SWAP1 JUMP JUMPDEST JUMPDEST DUP1 DUP3 GT ISZERO PUSH3 0x1A5 JUMPI PUSH1 0x0 DUP2 PUSH1 0x0 SWAP1 SSTORE POP PUSH1 0x1 ADD PUSH3 0x18B JUMP JUMPDEST POP SWAP1 JUMP JUMPDEST PUSH1 0x0 PUSH1 0x2 DUP3 DIV SWAP1 POP PUSH1 0x1 DUP3 AND DUP1 PUSH3 0x1C2 JUMPI PUSH1 0x7F DUP3 AND SWAP2 POP JUMPDEST PUSH1 0x20 DUP3 LT DUP2 EQ ISZERO PUSH3 0x1D9 JUMPI PUSH3 0x1D8 PUSH3 0x1DF JUMP JUMPDEST JUMPDEST POP SWAP2 SWAP1 POP JUMP JUMPDEST PUSH32 0x4E487B7100000000000000000000000000000000000000000000000000000000 PUSH1 0x0 MSTORE PUSH1 0x22 PUSH1 0x4 MSTORE PUSH1 0x24 PUSH1 0x0 REVERT JUMPDEST PUSH2 0x3AE3 DUP1 PUSH3 0x21E PUSH1 0x0 CODECOPY PUSH1 0x0 RETURN INVALID PUSH1 0x80 PUSH1 0x40 MSTORE CALLVALUE DUP1 ISZERO PUSH2 0x10 JUMPI PUSH1 0x0 DUP1 REVERT JUMPDEST POP PUSH1 0x4 CALLDATASIZE LT PUSH2 0xB4 JUMPI PUSH1 0x0 CALLDATALOAD PUSH1 0xE0 SHR DUP1 PUSH4 0x70A08231 GT PUSH2 0x71 JUMPI DUP1 PUSH4 0x70A08231 EQ PUSH2 0x181 JUMPI DUP1 PUSH4 0x93D336AA EQ PUSH2 0x1B1 JUMPI DUP1 PUSH4 0x95D89B41 EQ PUSH2 0x1E1 JUMPI DUP1 PUSH4 0x9D671564 EQ PUSH2 0x1FF JUMPI DUP1 PUSH4 0xAB9C70D4 EQ PUSH2 0x230 JUMPI DUP1 PUSH4 0xE745D68E EQ PUSH2 0x263 JUMPI PUSH2 0xB4 JUMP JUMPDEST DUP1 PUSH4 0x13CF08B EQ PUSH2 0xB9 JUMPI DUP1 PUSH4 0x6FDDE03 EQ PUSH2 0xEF JUMPI DUP1 PUSH4 0x18160DDD EQ PUSH2 0x10D JUMPI DUP1 PUSH4 0x313CE567 EQ PUSH2 0x12B JUMPI DUP1 PUSH4 0x4DE77E48 EQ PUSH2 0x149 JUMPI DUP1 PUSH4 0x5C230EEE EQ PUSH2 0x165 JUMPI JUMPDEST PUSH1 0x0 DUP1 REVERT JUMPDEST PUSH2 0xD3 PUSH1 0x4 DUP1 CALLDATASIZE SUB DUP2 ADD SWAP1 PUSH2 0xCE SWAP2 SWAP1 PUSH2 0x2375 JUMP JUMPDEST PUSH2 0x294 JUMP JUMPDEST PUSH1 0x40 MLOAD PUSH2 0xE6 SWAP8 SWAP7 SWAP6 SWAP5 SWAP4 SWAP3 SWAP2 SWAP1 PUSH2 0x2B44 JUMP JUMPDEST PUSH1 0x40 MLOAD DUP1 SWAP2 SUB SWAP1 RETURN JUMPDEST PUSH2 0xF7 PUSH2 0x399 JUMP JUMPDEST PUSH1 0x40 MLOAD PUSH2 0x104 SWAP2 SWAP1 PUSH2 0x2BD5 JUMP JUMPDEST PUSH1 0x40 MLOAD DUP1 SWAP2 SUB SWAP1 RETURN JUMPDEST PUSH2 0x115 PUSH2 0x42B JUMP JUMPDEST PUSH1 0x40 MLOAD PUSH2 0x122 SWAP2 SWAP1 PUSH2 0x2EB8 JUMP JUMPDEST PUSH1 0x40 MLOAD DUP1 SWAP2 SUB SWAP1 RETURN JUMPDEST PUSH2 0x133 PUSH2 0x435 JUMP JUMPDEST PUSH1 0x40 MLOAD PUSH2 0x140 SWAP2 SWAP1 PUSH2 0x2FCE JUMP JUMPDEST PUSH1 0x40 MLOAD DUP1 SWAP2 SUB SWAP1 RETURN JUMPDEST PUSH2 0x163 PUSH1 0x4 DUP1 CALLDATASIZE SUB DUP2 ADD SWAP1 PUSH2 0x15E SWAP2 SWAP1 PUSH2 0x24B0 JUMP JUMPDEST PUSH2 0x43E JUMP JUMPDEST STOP JUMPDEST PUSH2 0x17F PUSH1 0x4 DUP1 CALLDATASIZE SUB DUP2 ADD SWAP1 PUSH2 0x17A SWAP2 SWAP1 PUSH2 0x23A2 JUMP JUMPDEST PUSH2 0x768 JUMP JUMPDEST STOP JUMPDEST PUSH2 0x19B PUSH1 0x4 DUP1 CALLDATASIZE SUB DUP2 ADD SWAP1 PUSH2 0x196 SWAP2 SWAP1 PUSH2 0x2308 JUMP JUMPDEST PUSH2 0xC31 JUMP JUMPDEST PUSH1 0x40 MLOAD PUSH2 0x1A8 SWAP2 SWAP1 PUSH2 0x2EB8 JUMP JUMPDEST PUSH1 0x40 MLOAD DUP1 SWAP2 SUB SWAP1 RETURN JUMPDEST PUSH2 0x1CB PUSH1 0x4 DUP1 CALLDATASIZE SUB DUP2 ADD SWAP1 PUSH2 0x1C6 SWAP2 SWAP1 PUSH2 0x2441 JUMP JUMPDEST PUSH2 0xC79 JUMP JUMPDEST PUSH1 0x40 MLOAD PUSH2 0x1D8 SWAP2 SWAP1 PUSH2 0x2BBA JUMP JUMPDEST PUSH1 0x40 MLOAD DUP1 SWAP2 SUB SWAP1 RETURN JUMPDEST PUSH2 0x1E9 PUSH2 0xDBE JUMP JUMPDEST PUSH1 0x40 MLOAD PUSH2 0x1F6 SWAP2 SWAP1 PUSH2 0x2BD5 JUMP JUMPDEST PUSH1 0x40 MLOAD DUP1 SWAP2 SUB SWAP1 RETURN JUMPDEST PUSH2 0x219 PUSH1 0x4 DUP1 CALLDATASIZE SUB DUP2 ADD SWAP1 PUSH2 0x214 SWAP2 SWAP1 PUSH2 0x2375 JUMP JUMPDEST PUSH2 0xE50 JUMP JUMPDEST PUSH1 0x40 MLOAD PUSH2 0x227 SWAP3 SWAP2 SWAP1 PUSH2 0x2F9E JUMP JUMPDEST PUSH1 0x40 MLOAD DUP1 SWAP2 SUB SWAP1 RETURN JUMPDEST PUSH2 0x24A PUSH1 0x4 DUP1 CALLDATASIZE SUB DUP2 ADD SWAP1 PUSH2 0x245 SWAP2 SWAP1 PUSH2 0x2335 JUMP JUMPDEST PUSH2 0xFCB JUMP JUMPDEST PUSH1 0x40 MLOAD PUSH2 0x25A SWAP5 SWAP4 SWAP3 SWAP2 SWAP1 PUSH2 0x2ED3 JUMP JUMPDEST PUSH1 0x40 MLOAD DUP1 SWAP2 SUB SWAP1 RETURN JUMPDEST PUSH2 0x27D PUSH1 0x4 DUP1 CALLDATASIZE SUB DUP2 ADD SWAP1 PUSH2 0x278 SWAP2 SWAP1 PUSH2 0x2308 JUMP JUMPDEST PUSH2 0x1035 JUMP JUMPDEST PUSH1 0x40 MLOAD PUSH2 0x28B SWAP3 SWAP2 SWAP1 PUSH2 0x2E8F JUMP JUMPDEST PUSH1 0x40 MLOAD DUP1 SWAP2 SUB SWAP1 RETURN JUMPDEST PUSH1 0x7 PUSH1 0x20 MSTORE DUP1 PUSH1 0x0 MSTORE PUSH1 0x40 PUSH1 0x0 KECCAK256 PUSH1 0x0 SWAP2 POP SWAP1 POP DUP1 PUSH1 0x0 ADD PUSH1 0x0 SWAP1 SLOAD SWAP1 PUSH2 0x100 EXP SWAP1 DIV PUSH20 0xFFFFFFFFFFFFFFFFFFFFFFFFFFFFFFFFFFFFFFFF AND SWAP1 DUP1 PUSH1 0x0 ADD PUSH1 0x14 SWAP1 SLOAD SWAP1 PUSH2 0x100 EXP SWAP1 DIV PUSH1 0xFF AND SWAP1 DUP1 PUSH1 0x1 ADD DUP1 SLOAD PUSH2 0x2F0 SWAP1 PUSH2 0x3414 JUMP JUMPDEST DUP1 PUSH1 0x1F ADD PUSH1 0x20 DUP1 SWAP2 DIV MUL PUSH1 0x20 ADD PUSH1 0x40 MLOAD SWAP1 DUP2 ADD PUSH1 0x40 MSTORE DUP1 SWAP3 SWAP2 SWAP1 DUP2 DUP2 MSTORE PUSH1 0x20 ADD DUP3 DUP1 SLOAD PUSH2 0x31C SWAP1 PUSH2 0x3414 JUMP JUMPDEST DUP1 ISZERO PUSH2 0x369 JUMPI DUP1 PUSH1 0x1F LT PUSH2 0x33E JUMPI PUSH2 0x100 DUP1 DUP4 SLOAD DIV MUL DUP4 MSTORE SWAP2 PUSH1 0x20 ADD SWAP2 PUSH2 0x369 JUMP JUMPDEST DUP3 ADD SWAP2 SWAP1 PUSH1 0x0 MSTORE PUSH1 0x20 PUSH1 0x0 KECCAK256 SWAP1 JUMPDEST DUP2 SLOAD DUP2 MSTORE SWAP1 PUSH1 0x1 ADD SWAP1 PUSH1 0x20 ADD DUP1 DUP4 GT PUSH2 0x34C JUMPI DUP3 SWAP1 SUB PUSH1 0x1F AND DUP3 ADD SWAP2 JUMPDEST POP POP POP POP POP SWAP1 DUP1 PUSH1 0x2 ADD SLOAD SWAP1 DUP1 PUSH1 0x3 ADD SLOAD SWAP1 DUP1 PUSH1 0x4 ADD PUSH1 0x0 SWAP1 SLOAD SWAP1 PUSH2 0x100 EXP SWAP1 DIV PUSH2 0xFFFF AND SWAP1 DUP1 PUSH1 0x5 ADD SLOAD SWAP1 POP DUP8 JUMP JUMPDEST PUSH1 0x60 PUSH1 0x2 DUP1 SLOAD PUSH2 0x3A8 SWAP1 PUSH2 0x3414 JUMP JUMPDEST DUP1 PUSH1 0x1F ADD PUSH1 0x20 DUP1 SWAP2 DIV MUL PUSH1 0x20 ADD PUSH1 0x40 MLOAD SWAP1 DUP2 ADD PUSH1 0x40 MSTORE DUP1 SWAP3 SWAP2 SWAP1 DUP2 DUP2 MSTORE PUSH1 0x20 ADD DUP3 DUP1 SLOAD PUSH2 0x3D4 SWAP1 PUSH2 0x3414 JUMP JUMPDEST DUP1 ISZERO PUSH2 0x421 JUMPI DUP1 PUSH1 0x1F LT PUSH2 0x3F6 JUMPI PUSH2 0x100 DUP1 DUP4 SLOAD DIV MUL DUP4 MSTORE SWAP2 PUSH1 0x20 ADD SWAP2 PUSH2 0x421 JUMP JUMPDEST DUP3 ADD SWAP2 SWAP1 PUSH1 0x0 MSTORE PUSH1 0x20 PUSH1 0x0 KECCAK256 SWAP1 JUMPDEST DUP2 SLOAD DUP2 MSTORE SWAP1 PUSH1 0x1 ADD SWAP1 PUSH1 0x20 ADD DUP1 DUP4 GT PUSH2 0x404 JUMPI DUP3 SWAP1 SUB PUSH1 0x1F AND DUP3 ADD SWAP2 JUMPDEST POP POP POP POP POP SWAP1 POP SWAP1 JUMP JUMPDEST PUSH1 0x0 PUSH1 0x1 SLOAD SWAP1 POP SWAP1 JUMP JUMPDEST PUSH1 0x0 PUSH1 0x12 SWAP1 POP SWAP1 JUMP JUMPDEST DUP6 TIMESTAMP LT PUSH2 0x480 JUMPI PUSH1 0x40 MLOAD PUSH32 0x8C379A000000000000000000000000000000000000000000000000000000000 DUP2 MSTORE PUSH1 0x4 ADD PUSH2 0x477 SWAP1 PUSH2 0x2CD7 JUMP JUMPDEST PUSH1 0x40 MLOAD DUP1 SWAP2 SUB SWAP1 REVERT JUMPDEST DUP5 TIMESTAMP LT PUSH2 0x4C2 JUMPI PUSH1 0x40 MLOAD PUSH32 0x8C379A000000000000000000000000000000000000000000000000000000000 DUP2 MSTORE PUSH1 0x4 ADD PUSH2 0x4B9 SWAP1 PUSH2 0x2C17 JUMP JUMPDEST PUSH1 0x40 MLOAD DUP1 SWAP2 SUB SWAP1 REVERT JUMPDEST DUP5 DUP7 LT PUSH2 0x504 JUMPI PUSH1 0x40 MLOAD PUSH32 0x8C379A000000000000000000000000000000000000000000000000000000000 DUP2 MSTORE PUSH1 0x4 ADD PUSH2 0x4FB SWAP1 PUSH2 0x2D57 JUMP JUMPDEST PUSH1 0x40 MLOAD DUP1 SWAP2 SUB SWAP1 REVERT JUMPDEST PUSH1 0x5 PUSH1 0x0 DUP2 SLOAD DUP1 SWAP3 SWAP2 SWAP1 PUSH2 0x517 SWAP1 PUSH2 0x34DB JUMP JUMPDEST SWAP2 SWAP1 POP SSTORE POP PUSH2 0x553 DUP10 DUP10 DUP10 DUP10 DUP10 DUP10 DUP8 DUP11 DUP11 PUSH1 0x7 PUSH1 0x0 PUSH1 0x5 SLOAD DUP2 MSTORE PUSH1 0x20 ADD SWAP1 DUP2 MSTORE PUSH1 0x20 ADD PUSH1 0x0 KECCAK256 PUSH2 0x1091 SWAP1 SWAP10 SWAP9 SWAP8 SWAP7 SWAP6 SWAP5 SWAP4 SWAP3 SWAP2 SWAP1 PUSH4 0xFFFFFFFF AND JUMP JUMPDEST POP PUSH32 0x239A8A71A7D1CB0D134F6CC072AD6390E36A88C8E78DFF69013EE79528441E80 PUSH1 0x5 SLOAD DUP10 DUP10 DUP10 DUP10 DUP10 DUP10 DUP10 PUSH1 0x40 MLOAD PUSH2 0x593 SWAP9 SWAP8 SWAP7 SWAP6 SWAP5 SWAP4 SWAP3 SWAP2 SWAP1 PUSH2 0x2F18 JUMP JUMPDEST PUSH1 0x40 MLOAD DUP1 SWAP2 SUB SWAP1 LOG1 PUSH1 0x1 PUSH1 0x9 PUSH1 0x0 PUSH1 0x5 SLOAD DUP2 MSTORE PUSH1 0x20 ADD SWAP1 DUP2 MSTORE PUSH1 0x20 ADD PUSH1 0x0 KECCAK256 PUSH1 0x0 PUSH2 0x100 EXP DUP2 SLOAD DUP2 PUSH1 0xFF MUL NOT AND SWAP1 DUP4 ISZERO ISZERO MUL OR SWAP1 SSTORE POP PUSH1 0x0 JUMPDEST DUP9 MLOAD DUP2 LT ISZERO PUSH2 0x701 JUMPI PUSH2 0x5F9 DUP10 DUP3 DUP2 MLOAD DUP2 LT PUSH2 0x5EB JUMPI PUSH2 0x5EA PUSH2 0x3582 JUMP JUMPDEST JUMPDEST PUSH1 0x20 MUL PUSH1 0x20 ADD ADD MLOAD DUP4 PUSH2 0x12C3 JUMP JUMPDEST PUSH2 0x69A PUSH1 0x5 SLOAD DUP11 DUP4 DUP2 MLOAD DUP2 LT PUSH2 0x612 JUMPI PUSH2 0x611 PUSH2 0x3582 JUMP JUMPDEST JUMPDEST PUSH1 0x20 MUL PUSH1 0x20 ADD ADD MLOAD PUSH1 0x0 DUP6 PUSH1 0x8 PUSH1 0x0 DUP16 DUP9 DUP2 MLOAD DUP2 LT PUSH2 0x634 JUMPI PUSH2 0x633 PUSH2 0x3582 JUMP JUMPDEST JUMPDEST PUSH1 0x20 MUL PUSH1 0x20 ADD ADD MLOAD PUSH20 0xFFFFFFFFFFFFFFFFFFFFFFFFFFFFFFFFFFFFFFFF AND PUSH20 0xFFFFFFFFFFFFFFFFFFFFFFFFFFFFFFFFFFFFFFFF AND DUP2 MSTORE PUSH1 0x20 ADD SWAP1 DUP2 MSTORE PUSH1 0x20 ADD PUSH1 0x0 KECCAK256 PUSH1 0x0 PUSH1 0x5 SLOAD DUP2 MSTORE PUSH1 0x20 ADD SWAP1 DUP2 MSTORE PUSH1 0x20 ADD PUSH1 0x0 KECCAK256 PUSH2 0x1334 SWAP1 SWAP5 SWAP4 SWAP3 SWAP2 SWAP1 PUSH4 0xFFFFFFFF AND JUMP JUMPDEST POP PUSH32 0xABF5327BE9F5825C40D58BDA541DD07F09B62DF3376BBD5ECDBAA8BD82A9D492 DUP10 DUP3 DUP2 MLOAD DUP2 LT PUSH2 0x6CF JUMPI PUSH2 0x6CE PUSH2 0x3582 JUMP JUMPDEST JUMPDEST PUSH1 0x20 MUL PUSH1 0x20 ADD ADD MLOAD DUP4 PUSH1 0x40 MLOAD PUSH2 0x6E6 SWAP3 SWAP2 SWAP1 PUSH2 0x2DB7 JUMP JUMPDEST PUSH1 0x40 MLOAD DUP1 SWAP2 SUB SWAP1 LOG1 DUP1 DUP1 PUSH2 0x6F9 SWAP1 PUSH2 0x34DB JUMP JUMPDEST SWAP2 POP POP PUSH2 0x5CC JUMP JUMPDEST POP PUSH2 0x75C PUSH1 0x5 SLOAD PUSH1 0x6 PUSH1 0x0 PUSH2 0x714 PUSH2 0x13B4 JUMP JUMPDEST PUSH20 0xFFFFFFFFFFFFFFFFFFFFFFFFFFFFFFFFFFFFFFFF AND PUSH20 0xFFFFFFFFFFFFFFFFFFFFFFFFFFFFFFFFFFFFFFFF AND DUP2 MSTORE PUSH1 0x20 ADD SWAP1 DUP2 MSTORE PUSH1 0x20 ADD PUSH1 0x0 KECCAK256 PUSH2 0x13BC SWAP1 SWAP2 SWAP1 PUSH4 0xFFFFFFFF AND JUMP JUMPDEST POP POP POP POP POP POP POP POP POP POP JUMP JUMPDEST PUSH1 0x9 PUSH1 0x0 DUP6 DUP2 MSTORE PUSH1 0x20 ADD SWAP1 DUP2 MSTORE PUSH1 0x20 ADD PUSH1 0x0 KECCAK256 PUSH1 0x0 SWAP1 SLOAD SWAP1 PUSH2 0x100 EXP SWAP1 DIV PUSH1 0xFF AND PUSH2 0x7C8 JUMPI PUSH1 0x40 MLOAD PUSH32 0x8C379A000000000000000000000000000000000000000000000000000000000 DUP2 MSTORE PUSH1 0x4 ADD PUSH2 0x7BF SWAP1 PUSH2 0x2D17 JUMP JUMPDEST PUSH1 0x40 MLOAD DUP1 SWAP2 SUB SWAP1 REVERT JUMPDEST DUP4 PUSH1 0x8 PUSH1 0x0 DUP6 PUSH20 0xFFFFFFFFFFFFFFFFFFFFFFFFFFFFFFFFFFFFFFFF AND PUSH20 0xFFFFFFFFFFFFFFFFFFFFFFFFFFFFFFFFFFFFFFFF AND DUP2 MSTORE PUSH1 0x20 ADD SWAP1 DUP2 MSTORE PUSH1 0x20 ADD PUSH1 0x0 KECCAK256 PUSH1 0x0 DUP7 DUP2 MSTORE PUSH1 0x20 ADD SWAP1 DUP2 MSTORE PUSH1 0x20 ADD PUSH1 0x0 KECCAK256 PUSH1 0x0 ADD SLOAD EQ PUSH2 0x85D JUMPI PUSH1 0x40 MLOAD PUSH32 0x8C379A000000000000000000000000000000000000000000000000000000000 DUP2 MSTORE PUSH1 0x4 ADD PUSH2 0x854 SWAP1 PUSH2 0x2CB7 JUMP JUMPDEST PUSH1 0x40 MLOAD DUP1 SWAP2 SUB SWAP1 REVERT JUMPDEST PUSH1 0x8 PUSH1 0x0 DUP5 PUSH20 0xFFFFFFFFFFFFFFFFFFFFFFFFFFFFFFFFFFFFFFFF AND PUSH20 0xFFFFFFFFFFFFFFFFFFFFFFFFFFFFFFFFFFFFFFFF AND DUP2 MSTORE PUSH1 0x20 ADD SWAP1 DUP2 MSTORE PUSH1 0x20 ADD PUSH1 0x0 KECCAK256 PUSH1 0x0 DUP6 DUP2 MSTORE PUSH1 0x20 ADD SWAP1 DUP2 MSTORE PUSH1 0x20 ADD PUSH1 0x0 KECCAK256 PUSH1 0x1 ADD PUSH1 0x14 SWAP1 SLOAD SWAP1 PUSH2 0x100 EXP SWAP1 DIV PUSH1 0xFF AND ISZERO PUSH2 0x8FE JUMPI PUSH1 0x40 MLOAD PUSH32 0x8C379A000000000000000000000000000000000000000000000000000000000 DUP2 MSTORE PUSH1 0x4 ADD PUSH2 0x8F5 SWAP1 PUSH2 0x2C57 JUMP JUMPDEST PUSH1 0x40 MLOAD DUP1 SWAP2 SUB SWAP1 REVERT JUMPDEST DUP2 MLOAD PUSH1 0x7 PUSH1 0x0 DUP7 DUP2 MSTORE PUSH1 0x20 ADD SWAP1 DUP2 MSTORE PUSH1 0x20 ADD PUSH1 0x0 KECCAK256 PUSH1 0x4 ADD PUSH1 0x0 SWAP1 SLOAD SWAP1 PUSH2 0x100 EXP SWAP1 DIV PUSH2 0xFFFF AND PUSH2 0xFFFF AND EQ PUSH2 0x969 JUMPI PUSH1 0x40 MLOAD PUSH32 0x8C379A000000000000000000000000000000000000000000000000000000000 DUP2 MSTORE PUSH1 0x4 ADD PUSH2 0x960 SWAP1 PUSH2 0x2D97 JUMP JUMPDEST PUSH1 0x40 MLOAD DUP1 SWAP2 SUB SWAP1 REVERT JUMPDEST PUSH1 0x0 DUP1 JUMPDEST DUP3 MLOAD DUP2 LT ISZERO PUSH2 0x9D6 JUMPI DUP3 DUP2 DUP2 MLOAD DUP2 LT PUSH2 0x989 JUMPI PUSH2 0x988 PUSH2 0x3582 JUMP JUMPDEST JUMPDEST PUSH1 0x20 MUL PUSH1 0x20 ADD ADD MLOAD DUP4 DUP3 DUP2 MLOAD DUP2 LT PUSH2 0x9A4 JUMPI PUSH2 0x9A3 PUSH2 0x3582 JUMP JUMPDEST JUMPDEST PUSH1 0x20 MUL PUSH1 0x20 ADD ADD MLOAD PUSH2 0x9B6 SWAP2 SWAP1 PUSH2 0x32C5 JUMP JUMPDEST DUP3 PUSH2 0x9C1 SWAP2 SWAP1 PUSH2 0x326F JUMP JUMPDEST SWAP2 POP DUP1 DUP1 PUSH2 0x9CE SWAP1 PUSH2 0x34DB JUMP JUMPDEST SWAP2 POP POP PUSH2 0x96D JUMP JUMPDEST POP DUP1 PUSH1 0x8 PUSH1 0x0 DUP7 PUSH20 0xFFFFFFFFFFFFFFFFFFFFFFFFFFFFFFFFFFFFFFFF AND PUSH20 0xFFFFFFFFFFFFFFFFFFFFFFFFFFFFFFFFFFFFFFFF AND DUP2 MSTORE PUSH1 0x20 ADD SWAP1 DUP2 MSTORE PUSH1 0x20 ADD PUSH1 0x0 KECCAK256 PUSH1 0x0 DUP8 DUP2 MSTORE PUSH1 0x20 ADD SWAP1 DUP2 MSTORE PUSH1 0x20 ADD PUSH1 0x0 KECCAK256 PUSH1 0x2 ADD SLOAD LT ISZERO PUSH2 0xA6D JUMPI PUSH1 0x40 MLOAD PUSH32 0x8C379A000000000000000000000000000000000000000000000000000000000 DUP2 MSTORE PUSH1 0x4 ADD PUSH2 0xA64 SWAP1 PUSH2 0x2D37 JUMP JUMPDEST PUSH1 0x40 MLOAD DUP1 SWAP2 SUB SWAP1 REVERT JUMPDEST PUSH2 0xA96 DUP5 DUP5 DUP5 PUSH1 0x7 PUSH1 0x0 DUP11 DUP2 MSTORE PUSH1 0x20 ADD SWAP1 DUP2 MSTORE PUSH1 0x20 ADD PUSH1 0x0 KECCAK256 PUSH2 0x148D SWAP1 SWAP4 SWAP3 SWAP2 SWAP1 PUSH4 0xFFFFFFFF AND JUMP JUMPDEST POP PUSH2 0xAF1 DUP6 DUP5 PUSH1 0x6 PUSH1 0x0 PUSH2 0xAA8 PUSH2 0x13B4 JUMP JUMPDEST PUSH20 0xFFFFFFFFFFFFFFFFFFFFFFFFFFFFFFFFFFFFFFFF AND PUSH20 0xFFFFFFFFFFFFFFFFFFFFFFFFFFFFFFFFFFFFFFFF AND DUP2 MSTORE PUSH1 0x20 ADD SWAP1 DUP2 MSTORE PUSH1 0x20 ADD PUSH1 0x0 KECCAK256 PUSH2 0x18FC SWAP1 SWAP3 SWAP2 SWAP1 PUSH4 0xFFFFFFFF AND JUMP JUMPDEST POP PUSH2 0xB4A PUSH1 0x8 PUSH1 0x0 DUP7 PUSH20 0xFFFFFFFFFFFFFFFFFFFFFFFFFFFFFFFFFFFFFFFF AND PUSH20 0xFFFFFFFFFFFFFFFFFFFFFFFFFFFFFFFFFFFFFFFF AND DUP2 MSTORE PUSH1 0x20 ADD SWAP1 DUP2 MSTORE PUSH1 0x20 ADD PUSH1 0x0 KECCAK256 PUSH1 0x0 DUP8 DUP2 MSTORE PUSH1 0x20 ADD SWAP1 DUP2 MSTORE PUSH1 0x20 ADD PUSH1 0x0 KECCAK256 PUSH2 0x1A89 JUMP JUMPDEST POP PUSH1 0x1 PUSH1 0x8 PUSH1 0x0 DUP7 PUSH20 0xFFFFFFFFFFFFFFFFFFFFFFFFFFFFFFFFFFFFFFFF AND PUSH20 0xFFFFFFFFFFFFFFFFFFFFFFFFFFFFFFFFFFFFFFFF AND DUP2 MSTORE PUSH1 0x20 ADD SWAP1 DUP2 MSTORE PUSH1 0x20 ADD PUSH1 0x0 KECCAK256 PUSH1 0x0 DUP8 DUP2 MSTORE PUSH1 0x20 ADD SWAP1 DUP2 MSTORE PUSH1 0x20 ADD PUSH1 0x0 KECCAK256 PUSH1 0x1 ADD PUSH1 0x14 PUSH2 0x100 EXP DUP2 SLOAD DUP2 PUSH1 0xFF MUL NOT AND SWAP1 DUP4 ISZERO ISZERO MUL OR SWAP1 SSTORE POP PUSH2 0xBD9 DUP5 PUSH1 0x7 PUSH1 0x0 PUSH1 0x5 SLOAD DUP2 MSTORE PUSH1 0x20 ADD SWAP1 DUP2 MSTORE PUSH1 0x20 ADD PUSH1 0x0 KECCAK256 PUSH1 0x5 ADD SLOAD PUSH2 0x1B37 JUMP JUMPDEST PUSH32 0xABF5327BE9F5825C40D58BDA541DD07F09B62DF3376BBD5ECDBAA8BD82A9D492 DUP5 PUSH1 0x7 PUSH1 0x0 PUSH1 0x5 SLOAD DUP2 MSTORE PUSH1 0x20 ADD SWAP1 DUP2 MSTORE PUSH1 0x20 ADD PUSH1 0x0 KECCAK256 PUSH1 0x5 ADD SLOAD PUSH1 0x40 MLOAD PUSH2 0xC22 SWAP3 SWAP2 SWAP1 PUSH2 0x2E13 JUMP JUMPDEST PUSH1 0x40 MLOAD DUP1 SWAP2 SUB SWAP1 LOG1 POP POP POP POP POP JUMP JUMPDEST PUSH1 0x0 DUP1 PUSH1 0x0 DUP4 PUSH20 0xFFFFFFFFFFFFFFFFFFFFFFFFFFFFFFFFFFFFFFFF AND PUSH20 0xFFFFFFFFFFFFFFFFFFFFFFFFFFFFFFFFFFFFFFFF AND DUP2 MSTORE PUSH1 0x20 ADD SWAP1 DUP2 MSTORE PUSH1 0x20 ADD PUSH1 0x0 KECCAK256 SLOAD SWAP1 POP SWAP2 SWAP1 POP JUMP JUMPDEST PUSH1 0x0 DUP1 PUSH1 0x0 SWAP1 POP JUMPDEST DUP4 MLOAD DUP2 LT ISZERO PUSH2 0xDB6 JUMPI PUSH2 0xCAE DUP5 DUP3 DUP2 MLOAD DUP2 LT PUSH2 0xCA0 JUMPI PUSH2 0xC9F PUSH2 0x3582 JUMP JUMPDEST JUMPDEST PUSH1 0x20 MUL PUSH1 0x20 ADD ADD MLOAD DUP5 PUSH2 0x12C3 JUMP JUMPDEST PUSH2 0xD4F PUSH1 0x5 SLOAD DUP6 DUP4 DUP2 MLOAD DUP2 LT PUSH2 0xCC7 JUMPI PUSH2 0xCC6 PUSH2 0x3582 JUMP JUMPDEST JUMPDEST PUSH1 0x20 MUL PUSH1 0x20 ADD ADD MLOAD PUSH1 0x0 DUP7 PUSH1 0x8 PUSH1 0x0 DUP11 DUP9 DUP2 MLOAD DUP2 LT PUSH2 0xCE9 JUMPI PUSH2 0xCE8 PUSH2 0x3582 JUMP JUMPDEST JUMPDEST PUSH1 0x20 MUL PUSH1 0x20 ADD ADD MLOAD PUSH20 0xFFFFFFFFFFFFFFFFFFFFFFFFFFFFFFFFFFFFFFFF AND PUSH20 0xFFFFFFFFFFFFFFFFFFFFFFFFFFFFFFFFFFFFFFFF AND DUP2 MSTORE PUSH1 0x20 ADD SWAP1 DUP2 MSTORE PUSH1 0x20 ADD PUSH1 0x0 KECCAK256 PUSH1 0x0 PUSH1 0x5 SLOAD DUP2 MSTORE PUSH1 0x20 ADD SWAP1 DUP2 MSTORE PUSH1 0x20 ADD PUSH1 0x0 KECCAK256 PUSH2 0x1334 SWAP1 SWAP5 SWAP4 SWAP3 SWAP2 SWAP1 PUSH4 0xFFFFFFFF AND JUMP JUMPDEST POP PUSH32 0xABF5327BE9F5825C40D58BDA541DD07F09B62DF3376BBD5ECDBAA8BD82A9D492 DUP5 DUP3 DUP2 MLOAD DUP2 LT PUSH2 0xD84 JUMPI PUSH2 0xD83 PUSH2 0x3582 JUMP JUMPDEST JUMPDEST PUSH1 0x20 MUL PUSH1 0x20 ADD ADD MLOAD DUP5 PUSH1 0x40 MLOAD PUSH2 0xD9B SWAP3 SWAP2 SWAP1 PUSH2 0x2DB7 JUMP JUMPDEST PUSH1 0x40 MLOAD DUP1 SWAP2 SUB SWAP1 LOG1 DUP1 DUP1 PUSH2 0xDAE SWAP1 PUSH2 0x34DB JUMP JUMPDEST SWAP2 POP POP PUSH2 0xC81 JUMP JUMPDEST POP SWAP4 SWAP3 POP POP POP JUMP JUMPDEST PUSH1 0x60 PUSH1 0x3 DUP1 SLOAD PUSH2 0xDCD SWAP1 PUSH2 0x3414 JUMP JUMPDEST DUP1 PUSH1 0x1F ADD PUSH1 0x20 DUP1 SWAP2 DIV MUL PUSH1 0x20 ADD PUSH1 0x40 MLOAD SWAP1 DUP2 ADD PUSH1 0x40 MSTORE DUP1 SWAP3 SWAP2 SWAP1 DUP2 DUP2 MSTORE PUSH1 0x20 ADD DUP3 DUP1 SLOAD PUSH2 0xDF9 SWAP1 PUSH2 0x3414 JUMP JUMPDEST DUP1 ISZERO PUSH2 0xE46 JUMPI DUP1 PUSH1 0x1F LT PUSH2 0xE1B JUMPI PUSH2 0x100 DUP1 DUP4 SLOAD DIV MUL DUP4 MSTORE SWAP2 PUSH1 0x20 ADD SWAP2 PUSH2 0xE46 JUMP JUMPDEST DUP3 ADD SWAP2 SWAP1 PUSH1 0x0 MSTORE PUSH1 0x20 PUSH1 0x0 KECCAK256 SWAP1 JUMPDEST DUP2 SLOAD DUP2 MSTORE SWAP1 PUSH1 0x1 ADD SWAP1 PUSH1 0x20 ADD DUP1 DUP4 GT PUSH2 0xE29 JUMPI DUP3 SWAP1 SUB PUSH1 0x1F AND DUP3 ADD SWAP2 JUMPDEST POP POP POP POP POP SWAP1 POP SWAP1 JUMP JUMPDEST PUSH1 0x0 PUSH1 0x60 PUSH1 0x9 PUSH1 0x0 DUP5 DUP2 MSTORE PUSH1 0x20 ADD SWAP1 DUP2 MSTORE PUSH1 0x20 ADD PUSH1 0x0 KECCAK256 PUSH1 0x0 SWAP1 SLOAD SWAP1 PUSH2 0x100 EXP SWAP1 DIV PUSH1 0xFF AND PUSH2 0xEB4 JUMPI PUSH1 0x40 MLOAD PUSH32 0x8C379A000000000000000000000000000000000000000000000000000000000 DUP2 MSTORE PUSH1 0x4 ADD PUSH2 0xEAB SWAP1 PUSH2 0x2C97 JUMP JUMPDEST PUSH1 0x40 MLOAD DUP1 SWAP2 SUB SWAP1 REVERT JUMPDEST PUSH1 0x7 PUSH1 0x0 DUP5 DUP2 MSTORE PUSH1 0x20 ADD SWAP1 DUP2 MSTORE PUSH1 0x20 ADD PUSH1 0x0 KECCAK256 PUSH1 0xA ADD PUSH1 0x7 PUSH1 0x0 DUP6 DUP2 MSTORE PUSH1 0x20 ADD SWAP1 DUP2 MSTORE PUSH1 0x20 ADD PUSH1 0x0 KECCAK256 PUSH1 0x9 ADD PUSH1 0x0 PUSH1 0x1 DUP2 MSTORE PUSH1 0x20 ADD SWAP1 DUP2 MSTORE PUSH1 0x20 ADD PUSH1 0x0 KECCAK256 PUSH1 0x40 MLOAD PUSH2 0xEFF SWAP2 SWAP1 PUSH2 0x2B2D JUMP JUMPDEST SWAP1 DUP2 MSTORE PUSH1 0x20 ADD PUSH1 0x40 MLOAD DUP1 SWAP2 SUB SWAP1 KECCAK256 SLOAD PUSH1 0x7 PUSH1 0x0 DUP6 DUP2 MSTORE PUSH1 0x20 ADD SWAP1 DUP2 MSTORE PUSH1 0x20 ADD PUSH1 0x0 KECCAK256 PUSH1 0x9 ADD PUSH1 0x0 PUSH1 0x1 DUP2 MSTORE PUSH1 0x20 ADD SWAP1 DUP2 MSTORE PUSH1 0x20 ADD PUSH1 0x0 KECCAK256 DUP1 DUP1 SLOAD PUSH2 0xF42 SWAP1 PUSH2 0x3414 JUMP JUMPDEST DUP1 PUSH1 0x1F ADD PUSH1 0x20 DUP1 SWAP2 DIV MUL PUSH1 0x20 ADD PUSH1 0x40 MLOAD SWAP1 DUP2 ADD PUSH1 0x40 MSTORE DUP1 SWAP3 SWAP2 SWAP1 DUP2 DUP2 MSTORE PUSH1 0x20 ADD DUP3 DUP1 SLOAD PUSH2 0xF6E SWAP1 PUSH2 0x3414 JUMP JUMPDEST DUP1 ISZERO PUSH2 0xFBB JUMPI DUP1 PUSH1 0x1F LT PUSH2 0xF90 JUMPI PUSH2 0x100 DUP1 DUP4 SLOAD DIV MUL DUP4 MSTORE SWAP2 PUSH1 0x20 ADD SWAP2 PUSH2 0xFBB JUMP JUMPDEST DUP3 ADD SWAP2 SWAP1 PUSH1 0x0 MSTORE PUSH1 0x20 PUSH1 0x0 KECCAK256 SWAP1 JUMPDEST DUP2 SLOAD DUP2 MSTORE SWAP1 PUSH1 0x1 ADD SWAP1 PUSH1 0x20 ADD DUP1 DUP4 GT PUSH2 0xF9E JUMPI DUP3 SWAP1 SUB PUSH1 0x1F AND DUP3 ADD SWAP2 JUMPDEST POP POP POP POP POP SWAP1 POP SWAP2 POP SWAP2 POP SWAP2 POP SWAP2 JUMP JUMPDEST PUSH1 0x8 PUSH1 0x20 MSTORE DUP2 PUSH1 0x0 MSTORE PUSH1 0x40 PUSH1 0x0 KECCAK256 PUSH1 0x20 MSTORE DUP1 PUSH1 0x0 MSTORE PUSH1 0x40 PUSH1 0x0 KECCAK256 PUSH1 0x0 SWAP2 POP SWAP2 POP POP DUP1 PUSH1 0x0 ADD SLOAD SWAP1 DUP1 PUSH1 0x1 ADD PUSH1 0x0 SWAP1 SLOAD SWAP1 PUSH2 0x100 EXP SWAP1 DIV PUSH20 0xFFFFFFFFFFFFFFFFFFFFFFFFFFFFFFFFFFFFFFFF AND SWAP1 DUP1 PUSH1 0x1 ADD PUSH1 0x14 SWAP1 SLOAD SWAP1 PUSH2 0x100 EXP SWAP1 DIV PUSH1 0xFF AND SWAP1 DUP1 PUSH1 0x2 ADD SLOAD SWAP1 POP DUP5 JUMP JUMPDEST PUSH1 0x6 PUSH1 0x20 MSTORE DUP1 PUSH1 0x0 MSTORE PUSH1 0x40 PUSH1 0x0 KECCAK256 PUSH1 0x0 SWAP2 POP SWAP1 POP DUP1 PUSH1 0x0 ADD PUSH1 0x0 SWAP1 SLOAD SWAP1 PUSH2 0x100 EXP SWAP1 DIV PUSH16 0xFFFFFFFFFFFFFFFFFFFFFFFFFFFFFFFF AND SWAP1 DUP1 PUSH1 0x0 ADD PUSH1 0x10 SWAP1 SLOAD SWAP1 PUSH2 0x100 EXP SWAP1 DIV PUSH16 0xFFFFFFFFFFFFFFFFFFFFFFFFFFFFFFFF AND SWAP1 POP DUP3 JUMP JUMPDEST PUSH1 0x0 DUP8 DUP12 PUSH1 0x0 ADD PUSH1 0x0 PUSH2 0x100 EXP DUP2 SLOAD DUP2 PUSH20 0xFFFFFFFFFFFFFFFFFFFFFFFFFFFFFFFFFFFFFFFF MUL NOT AND SWAP1 DUP4 PUSH20 0xFFFFFFFFFFFFFFFFFFFFFFFFFFFFFFFFFFFFFFFF AND MUL OR SWAP1 SSTORE POP DUP10 DUP12 PUSH1 0x0 ADD PUSH1 0x14 PUSH2 0x100 EXP DUP2 SLOAD DUP2 PUSH1 0xFF MUL NOT AND SWAP1 DUP4 PUSH1 0xFF AND MUL OR SWAP1 SSTORE POP DUP5 DUP12 PUSH1 0x1 ADD SWAP1 DUP1 MLOAD SWAP1 PUSH1 0x20 ADD SWAP1 PUSH2 0x110B SWAP3 SWAP2 SWAP1 PUSH2 0x1E55 JUMP JUMPDEST POP DUP7 DUP12 PUSH1 0x2 ADD DUP2 SWAP1 SSTORE POP DUP6 DUP12 PUSH1 0x3 ADD DUP2 SWAP1 SSTORE POP DUP3 DUP3 SWAP1 POP DUP12 PUSH1 0x4 ADD PUSH1 0x0 PUSH2 0x100 EXP DUP2 SLOAD DUP2 PUSH2 0xFFFF MUL NOT AND SWAP1 DUP4 PUSH2 0xFFFF AND MUL OR SWAP1 SSTORE POP DUP4 DUP12 PUSH1 0x5 ADD DUP2 SWAP1 SSTORE POP PUSH1 0x0 JUMPDEST DUP4 DUP4 SWAP1 POP DUP2 LT ISZERO PUSH2 0x121C JUMPI PUSH1 0x1 DUP13 PUSH1 0x7 ADD DUP6 DUP6 DUP5 DUP2 DUP2 LT PUSH2 0x1170 JUMPI PUSH2 0x116F PUSH2 0x3582 JUMP JUMPDEST JUMPDEST SWAP1 POP PUSH1 0x20 MUL DUP2 ADD SWAP1 PUSH2 0x1182 SWAP2 SWAP1 PUSH2 0x2FE9 JUMP JUMPDEST PUSH1 0x40 MLOAD PUSH2 0x1190 SWAP3 SWAP2 SWAP1 PUSH2 0x2AFD JUMP JUMPDEST SWAP1 DUP2 MSTORE PUSH1 0x20 ADD PUSH1 0x40 MLOAD DUP1 SWAP2 SUB SWAP1 KECCAK256 PUSH1 0x0 PUSH2 0x100 EXP DUP2 SLOAD DUP2 PUSH1 0xFF MUL NOT AND SWAP1 DUP4 ISZERO ISZERO MUL OR SWAP1 SSTORE POP DUP4 DUP4 DUP3 DUP2 DUP2 LT PUSH2 0x11C8 JUMPI PUSH2 0x11C7 PUSH2 0x3582 JUMP JUMPDEST JUMPDEST SWAP1 POP PUSH1 0x20 MUL DUP2 ADD SWAP1 PUSH2 0x11DA SWAP2 SWAP1 PUSH2 0x2FE9 JUMP JUMPDEST DUP14 PUSH1 0x8 ADD PUSH1 0x0 PUSH1 0x1 DUP6 PUSH2 0x11ED SWAP2 SWAP1 PUSH2 0x326F JUMP JUMPDEST DUP2 MSTORE PUSH1 0x20 ADD SWAP1 DUP2 MSTORE PUSH1 0x20 ADD PUSH1 0x0 KECCAK256 SWAP2 SWAP1 PUSH2 0x1208 SWAP3 SWAP2 SWAP1 PUSH2 0x1EDB JUMP JUMPDEST POP DUP1 DUP1 PUSH2 0x1214 SWAP1 PUSH2 0x34DB JUMP JUMPDEST SWAP2 POP POP PUSH2 0x114C JUMP JUMPDEST POP PUSH1 0x0 JUMPDEST DUP10 MLOAD DUP2 LT ISZERO PUSH2 0x12B0 JUMPI PUSH1 0x1 DUP13 PUSH1 0x6 ADD PUSH1 0x0 DUP13 DUP5 DUP2 MLOAD DUP2 LT PUSH2 0x1244 JUMPI PUSH2 0x1243 PUSH2 0x3582 JUMP JUMPDEST JUMPDEST PUSH1 0x20 MUL PUSH1 0x20 ADD ADD MLOAD PUSH20 0xFFFFFFFFFFFFFFFFFFFFFFFFFFFFFFFFFFFFFFFF AND PUSH20 0xFFFFFFFFFFFFFFFFFFFFFFFFFFFFFFFFFFFFFFFF AND DUP2 MSTORE PUSH1 0x20 ADD SWAP1 DUP2 MSTORE PUSH1 0x20 ADD PUSH1 0x0 KECCAK256 PUSH1 0x0 PUSH2 0x100 EXP DUP2 SLOAD DUP2 PUSH1 0xFF MUL NOT AND SWAP1 DUP4 ISZERO ISZERO MUL OR SWAP1 SSTORE POP DUP1 DUP1 PUSH2 0x12A8 SWAP1 PUSH2 0x34DB JUMP JUMPDEST SWAP2 POP POP PUSH2 0x1220 JUMP JUMPDEST POP PUSH1 0x1 SWAP1 POP SWAP11 SWAP10 POP POP POP POP POP POP POP POP POP POP JUMP JUMPDEST PUSH2 0x12CB PUSH2 0x13B4 JUMP JUMPDEST DUP1 PUSH20 0xFFFFFFFFFFFFFFFFFFFFFFFFFFFFFFFFFFFFFFFF AND PUSH1 0x4 PUSH1 0x0 SWAP1 SLOAD SWAP1 PUSH2 0x100 EXP SWAP1 DIV PUSH20 0xFFFFFFFFFFFFFFFFFFFFFFFFFFFFFFFFFFFFFFFF AND PUSH20 0xFFFFFFFFFFFFFFFFFFFFFFFFFFFFFFFFFFFFFFFF AND EQ PUSH2 0x1325 JUMPI PUSH1 0x0 DUP1 REVERT JUMPDEST PUSH2 0x132F DUP4 DUP4 PUSH2 0x1BA8 JUMP JUMPDEST POP POP POP JUMP JUMPDEST PUSH1 0x0 DUP5 DUP7 PUSH1 0x0 ADD DUP2 SWAP1 SSTORE POP DUP4 DUP7 PUSH1 0x1 ADD PUSH1 0x0 PUSH2 0x100 EXP DUP2 SLOAD DUP2 PUSH20 0xFFFFFFFFFFFFFFFFFFFFFFFFFFFFFFFFFFFFFFFF MUL NOT AND SWAP1 DUP4 PUSH20 0xFFFFFFFFFFFFFFFFFFFFFFFFFFFFFFFFFFFFFFFF AND MUL OR SWAP1 SSTORE POP DUP3 DUP7 PUSH1 0x1 ADD PUSH1 0x14 PUSH2 0x100 EXP DUP2 SLOAD DUP2 PUSH1 0xFF MUL NOT AND SWAP1 DUP4 ISZERO ISZERO MUL OR SWAP1 SSTORE POP DUP2 DUP7 PUSH1 0x2 ADD DUP2 SWAP1 SSTORE POP PUSH1 0x1 SWAP1 POP SWAP6 SWAP5 POP POP POP POP POP JUMP JUMPDEST PUSH1 0x0 CALLER SWAP1 POP SWAP1 JUMP JUMPDEST PUSH1 0x0 DUP3 PUSH1 0x0 ADD PUSH1 0x0 DUP2 DUP2 SWAP1 SLOAD SWAP1 PUSH2 0x100 EXP SWAP1 DIV PUSH16 0xFFFFFFFFFFFFFFFFFFFFFFFFFFFFFFFF AND DUP1 SWAP3 SWAP2 SWAP1 PUSH2 0x13EE SWAP1 PUSH2 0x3477 JUMP JUMPDEST SWAP2 SWAP1 PUSH2 0x100 EXP DUP2 SLOAD DUP2 PUSH16 0xFFFFFFFFFFFFFFFFFFFFFFFFFFFFFFFF MUL NOT AND SWAP1 DUP4 PUSH16 0xFFFFFFFFFFFFFFFFFFFFFFFFFFFFFFFF AND MUL OR SWAP1 SSTORE POP POP DUP2 DUP4 PUSH1 0x1 ADD PUSH1 0x0 DUP6 PUSH1 0x0 ADD PUSH1 0x0 SWAP1 SLOAD SWAP1 PUSH2 0x100 EXP SWAP1 DIV PUSH16 0xFFFFFFFFFFFFFFFFFFFFFFFFFFFFFFFF AND PUSH16 0xFFFFFFFFFFFFFFFFFFFFFFFFFFFFFFFF AND PUSH16 0xFFFFFFFFFFFFFFFFFFFFFFFFFFFFFFFF AND DUP2 MSTORE PUSH1 0x20 ADD SWAP1 DUP2 MSTORE PUSH1 0x20 ADD PUSH1 0x0 KECCAK256 DUP2 SWAP1 SSTORE POP PUSH1 0x1 SWAP1 POP SWAP3 SWAP2 POP POP JUMP JUMPDEST PUSH1 0x0 PUSH1 0x2 DUP6 PUSH1 0x0 ADD PUSH1 0x14 SWAP1 SLOAD SWAP1 PUSH2 0x100 EXP SWAP1 DIV PUSH1 0xFF AND PUSH1 0xFF AND EQ PUSH2 0x14E6 JUMPI PUSH1 0x40 MLOAD PUSH32 0x8C379A000000000000000000000000000000000000000000000000000000000 DUP2 MSTORE PUSH1 0x4 ADD PUSH2 0x14DD SWAP1 PUSH2 0x2BF7 JUMP JUMPDEST PUSH1 0x40 MLOAD DUP1 SWAP2 SUB SWAP1 REVERT JUMPDEST DUP5 PUSH1 0x3 ADD SLOAD TIMESTAMP GT ISZERO PUSH2 0x173C JUMPI PUSH1 0x2 DUP6 PUSH1 0x0 ADD PUSH1 0x14 PUSH2 0x100 EXP DUP2 SLOAD DUP2 PUSH1 0xFF MUL NOT AND SWAP1 DUP4 PUSH1 0xFF AND MUL OR SWAP1 SSTORE POP PUSH1 0x0 DUP6 PUSH1 0xA ADD DUP7 PUSH1 0x8 ADD PUSH1 0x0 PUSH1 0x1 DUP2 MSTORE PUSH1 0x20 ADD SWAP1 DUP2 MSTORE PUSH1 0x20 ADD PUSH1 0x0 KECCAK256 PUSH1 0x40 MLOAD PUSH2 0x1539 SWAP2 SWAP1 PUSH2 0x2B2D JUMP JUMPDEST SWAP1 DUP2 MSTORE PUSH1 0x20 ADD PUSH1 0x40 MLOAD DUP1 SWAP2 SUB SWAP1 KECCAK256 SLOAD SWAP1 POP PUSH1 0x0 PUSH1 0x1 SWAP1 POP DUP7 PUSH1 0x8 ADD PUSH1 0x0 PUSH1 0x1 DUP2 MSTORE PUSH1 0x20 ADD SWAP1 DUP2 MSTORE PUSH1 0x20 ADD PUSH1 0x0 KECCAK256 DUP8 PUSH1 0x9 ADD PUSH1 0x0 PUSH1 0x1 DUP2 MSTORE PUSH1 0x20 ADD SWAP1 DUP2 MSTORE PUSH1 0x20 ADD PUSH1 0x0 KECCAK256 SWAP1 DUP1 SLOAD PUSH2 0x1588 SWAP1 PUSH2 0x3414 JUMP JUMPDEST PUSH2 0x1593 SWAP3 SWAP2 SWAP1 PUSH2 0x1F61 JUMP JUMPDEST POP PUSH1 0x0 PUSH1 0x2 SWAP1 POP JUMPDEST DUP8 PUSH1 0x4 ADD PUSH1 0x0 SWAP1 SLOAD SWAP1 PUSH2 0x100 EXP SWAP1 DIV PUSH2 0xFFFF AND PUSH2 0xFFFF AND DUP2 PUSH2 0xFFFF AND GT PUSH2 0x1730 JUMPI DUP3 DUP9 PUSH1 0xA ADD DUP10 PUSH1 0x8 ADD PUSH1 0x0 DUP5 PUSH2 0xFFFF AND DUP2 MSTORE PUSH1 0x20 ADD SWAP1 DUP2 MSTORE PUSH1 0x20 ADD PUSH1 0x0 KECCAK256 PUSH1 0x40 MLOAD PUSH2 0x15E7 SWAP2 SWAP1 PUSH2 0x2B2D JUMP JUMPDEST SWAP1 DUP2 MSTORE PUSH1 0x20 ADD PUSH1 0x40 MLOAD DUP1 SWAP2 SUB SWAP1 KECCAK256 SLOAD GT ISZERO PUSH2 0x1687 JUMPI DUP8 PUSH1 0xA ADD DUP9 PUSH1 0x8 ADD PUSH1 0x0 DUP4 PUSH2 0xFFFF AND DUP2 MSTORE PUSH1 0x20 ADD SWAP1 DUP2 MSTORE PUSH1 0x20 ADD PUSH1 0x0 KECCAK256 PUSH1 0x40 MLOAD PUSH2 0x1626 SWAP2 SWAP1 PUSH2 0x2B2D JUMP JUMPDEST SWAP1 DUP2 MSTORE PUSH1 0x20 ADD PUSH1 0x40 MLOAD DUP1 SWAP2 SUB SWAP1 KECCAK256 SLOAD SWAP3 POP PUSH1 0x1 SWAP2 POP DUP8 PUSH1 0x8 ADD PUSH1 0x0 DUP3 PUSH2 0xFFFF AND DUP2 MSTORE PUSH1 0x20 ADD SWAP1 DUP2 MSTORE PUSH1 0x20 ADD PUSH1 0x0 KECCAK256 DUP9 PUSH1 0x9 ADD PUSH1 0x0 PUSH1 0x1 DUP2 MSTORE PUSH1 0x20 ADD SWAP1 DUP2 MSTORE PUSH1 0x20 ADD PUSH1 0x0 KECCAK256 SWAP1 DUP1 SLOAD PUSH2 0x1676 SWAP1 PUSH2 0x3414 JUMP JUMPDEST PUSH2 0x1681 SWAP3 SWAP2 SWAP1 PUSH2 0x1F61 JUMP JUMPDEST POP PUSH2 0x171D JUMP JUMPDEST DUP3 DUP9 PUSH1 0xA ADD DUP10 PUSH1 0x8 ADD PUSH1 0x0 DUP5 PUSH2 0xFFFF AND DUP2 MSTORE PUSH1 0x20 ADD SWAP1 DUP2 MSTORE PUSH1 0x20 ADD PUSH1 0x0 KECCAK256 PUSH1 0x40 MLOAD PUSH2 0x16B2 SWAP2 SWAP1 PUSH2 0x2B2D JUMP JUMPDEST SWAP1 DUP2 MSTORE PUSH1 0x20 ADD PUSH1 0x40 MLOAD DUP1 SWAP2 SUB SWAP1 KECCAK256 SLOAD EQ ISZERO PUSH2 0x171C JUMPI DUP2 DUP1 PUSH2 0x16D2 SWAP1 PUSH2 0x34DB JUMP JUMPDEST SWAP3 POP POP DUP8 PUSH1 0x8 ADD PUSH1 0x0 DUP3 PUSH2 0xFFFF AND DUP2 MSTORE PUSH1 0x20 ADD SWAP1 DUP2 MSTORE PUSH1 0x20 ADD PUSH1 0x0 KECCAK256 DUP9 PUSH1 0x9 ADD PUSH1 0x0 DUP5 DUP2 MSTORE PUSH1 0x20 ADD SWAP1 DUP2 MSTORE PUSH1 0x20 ADD PUSH1 0x0 KECCAK256 SWAP1 DUP1 SLOAD PUSH2 0x170F SWAP1 PUSH2 0x3414 JUMP JUMPDEST PUSH2 0x171A SWAP3 SWAP2 SWAP1 PUSH2 0x1F61 JUMP JUMPDEST POP JUMPDEST JUMPDEST DUP1 DUP1 PUSH2 0x1728 SWAP1 PUSH2 0x34B0 JUMP JUMPDEST SWAP2 POP POP PUSH2 0x159B JUMP JUMPDEST POP PUSH1 0x0 SWAP3 POP POP POP PUSH2 0x18F4 JUMP JUMPDEST DUP5 PUSH1 0x6 ADD PUSH1 0x0 DUP6 PUSH20 0xFFFFFFFFFFFFFFFFFFFFFFFFFFFFFFFFFFFFFFFF AND PUSH20 0xFFFFFFFFFFFFFFFFFFFFFFFFFFFFFFFFFFFFFFFF AND DUP2 MSTORE PUSH1 0x20 ADD SWAP1 DUP2 MSTORE PUSH1 0x20 ADD PUSH1 0x0 KECCAK256 PUSH1 0x0 SWAP1 SLOAD SWAP1 PUSH2 0x100 EXP SWAP1 DIV PUSH1 0xFF AND PUSH2 0x17CA JUMPI PUSH1 0x40 MLOAD PUSH32 0x8C379A000000000000000000000000000000000000000000000000000000000 DUP2 MSTORE PUSH1 0x4 ADD PUSH2 0x17C1 SWAP1 PUSH2 0x2CF7 JUMP JUMPDEST PUSH1 0x40 MLOAD DUP1 SWAP2 SUB SWAP1 REVERT JUMPDEST PUSH1 0x0 JUMPDEST DUP6 PUSH1 0x4 ADD PUSH1 0x0 SWAP1 SLOAD SWAP1 PUSH2 0x100 EXP SWAP1 DIV PUSH2 0xFFFF AND PUSH2 0xFFFF AND DUP2 PUSH2 0xFFFF AND LT ISZERO PUSH2 0x18EE JUMPI DUP6 PUSH1 0x7 ADD DUP5 DUP3 PUSH2 0xFFFF AND DUP2 MLOAD DUP2 LT PUSH2 0x180A JUMPI PUSH2 0x1809 PUSH2 0x3582 JUMP JUMPDEST JUMPDEST PUSH1 0x20 MUL PUSH1 0x20 ADD ADD MLOAD PUSH1 0x40 MLOAD PUSH2 0x181F SWAP2 SWAP1 PUSH2 0x2B16 JUMP JUMPDEST SWAP1 DUP2 MSTORE PUSH1 0x20 ADD PUSH1 0x40 MLOAD DUP1 SWAP2 SUB SWAP1 KECCAK256 PUSH1 0x0 SWAP1 SLOAD SWAP1 PUSH2 0x100 EXP SWAP1 DIV PUSH1 0xFF AND PUSH2 0x187A JUMPI PUSH1 0x40 MLOAD PUSH32 0x8C379A000000000000000000000000000000000000000000000000000000000 DUP2 MSTORE PUSH1 0x4 ADD PUSH2 0x1871 SWAP1 PUSH2 0x2C77 JUMP JUMPDEST PUSH1 0x40 MLOAD DUP1 SWAP2 SUB SWAP1 REVERT JUMPDEST DUP3 DUP2 PUSH2 0xFFFF AND DUP2 MLOAD DUP2 LT PUSH2 0x1891 JUMPI PUSH2 0x1890 PUSH2 0x3582 JUMP JUMPDEST JUMPDEST PUSH1 0x20 MUL PUSH1 0x20 ADD ADD MLOAD DUP7 PUSH1 0xA ADD DUP6 DUP4 PUSH2 0xFFFF AND DUP2 MLOAD DUP2 LT PUSH2 0x18B4 JUMPI PUSH2 0x18B3 PUSH2 0x3582 JUMP JUMPDEST JUMPDEST PUSH1 0x20 MUL PUSH1 0x20 ADD ADD MLOAD PUSH1 0x40 MLOAD PUSH2 0x18C9 SWAP2 SWAP1 PUSH2 0x2B16 JUMP JUMPDEST SWAP1 DUP2 MSTORE PUSH1 0x20 ADD PUSH1 0x40 MLOAD DUP1 SWAP2 SUB SWAP1 KECCAK256 DUP2 SWAP1 SSTORE POP DUP1 DUP1 PUSH2 0x18E6 SWAP1 PUSH2 0x34B0 JUMP JUMPDEST SWAP2 POP POP PUSH2 0x17CD JUMP JUMPDEST POP PUSH1 0x1 SWAP1 POP JUMPDEST SWAP5 SWAP4 POP POP POP POP JUMP JUMPDEST PUSH1 0x0 DUP4 PUSH1 0x0 ADD PUSH1 0x10 DUP2 DUP2 SWAP1 SLOAD SWAP1 PUSH2 0x100 EXP SWAP1 DIV PUSH16 0xFFFFFFFFFFFFFFFFFFFFFFFFFFFFFFFF AND DUP1 SWAP3 SWAP2 SWAP1 PUSH2 0x192E SWAP1 PUSH2 0x3477 JUMP JUMPDEST SWAP2 SWAP1 PUSH2 0x100 EXP DUP2 SLOAD DUP2 PUSH16 0xFFFFFFFFFFFFFFFFFFFFFFFFFFFFFFFF MUL NOT AND SWAP1 DUP4 PUSH16 0xFFFFFFFFFFFFFFFFFFFFFFFFFFFFFFFF AND MUL OR SWAP1 SSTORE POP POP DUP3 DUP5 PUSH1 0x2 ADD PUSH1 0x0 DUP7 PUSH1 0x0 ADD PUSH1 0x10 SWAP1 SLOAD SWAP1 PUSH2 0x100 EXP SWAP1 DIV PUSH16 0xFFFFFFFFFFFFFFFFFFFFFFFFFFFFFFFF AND PUSH16 0xFFFFFFFFFFFFFFFFFFFFFFFFFFFFFFFF AND PUSH16 0xFFFFFFFFFFFFFFFFFFFFFFFFFFFFFFFF AND DUP2 MSTORE PUSH1 0x20 ADD SWAP1 DUP2 MSTORE PUSH1 0x20 ADD PUSH1 0x0 KECCAK256 DUP2 SWAP1 SSTORE POP PUSH1 0x0 JUMPDEST DUP3 MLOAD DUP2 PUSH2 0xFFFF AND LT ISZERO PUSH2 0x1A4F JUMPI DUP3 DUP2 PUSH2 0xFFFF AND DUP2 MLOAD DUP2 LT PUSH2 0x19EA JUMPI PUSH2 0x19E9 PUSH2 0x3582 JUMP JUMPDEST JUMPDEST PUSH1 0x20 MUL PUSH1 0x20 ADD ADD MLOAD DUP6 PUSH1 0x3 ADD PUSH1 0x0 DUP7 DUP2 MSTORE PUSH1 0x20 ADD SWAP1 DUP2 MSTORE PUSH1 0x20 ADD PUSH1 0x0 KECCAK256 PUSH1 0x0 PUSH1 0x1 DUP5 PUSH2 0x1A16 SWAP2 SWAP1 PUSH2 0x3237 JUMP JUMPDEST PUSH2 0xFFFF AND DUP2 MSTORE PUSH1 0x20 ADD SWAP1 DUP2 MSTORE PUSH1 0x20 ADD PUSH1 0x0 KECCAK256 SWAP1 DUP1 MLOAD SWAP1 PUSH1 0x20 ADD SWAP1 PUSH2 0x1A3B SWAP3 SWAP2 SWAP1 PUSH2 0x1E55 JUMP JUMPDEST POP DUP1 DUP1 PUSH2 0x1A47 SWAP1 PUSH2 0x34B0 JUMP JUMPDEST SWAP2 POP POP PUSH2 0x19C6 JUMP JUMPDEST POP PUSH1 0x1 DUP5 PUSH1 0x4 ADD PUSH1 0x0 DUP6 DUP2 MSTORE PUSH1 0x20 ADD SWAP1 DUP2 MSTORE PUSH1 0x20 ADD PUSH1 0x0 KECCAK256 PUSH1 0x0 PUSH2 0x100 EXP DUP2 SLOAD DUP2 PUSH1 0xFF MUL NOT AND SWAP1 DUP4 ISZERO ISZERO MUL OR SWAP1 SSTORE POP PUSH1 0x1 SWAP1 POP SWAP4 SWAP3 POP POP POP JUMP JUMPDEST PUSH1 0x0 DUP1 DUP3 PUSH1 0x0 ADD SLOAD EQ ISZERO PUSH2 0x1AD2 JUMPI PUSH1 0x40 MLOAD PUSH32 0x8C379A000000000000000000000000000000000000000000000000000000000 DUP2 MSTORE PUSH1 0x4 ADD PUSH2 0x1AC9 SWAP1 PUSH2 0x2DF3 JUMP JUMPDEST PUSH1 0x40 MLOAD DUP1 SWAP2 SUB SWAP1 REVERT JUMPDEST DUP2 PUSH1 0x1 ADD PUSH1 0x14 SWAP1 SLOAD SWAP1 PUSH2 0x100 EXP SWAP1 DIV PUSH1 0xFF AND ISZERO PUSH2 0x1B24 JUMPI PUSH1 0x40 MLOAD PUSH32 0x8C379A000000000000000000000000000000000000000000000000000000000 DUP2 MSTORE PUSH1 0x4 ADD PUSH2 0x1B1B SWAP1 PUSH2 0x2E4F JUMP JUMPDEST PUSH1 0x40 MLOAD DUP1 SWAP2 SUB SWAP1 REVERT JUMPDEST PUSH1 0x0 DUP3 PUSH1 0x2 ADD DUP2 SWAP1 SSTORE POP PUSH1 0x1 SWAP1 POP SWAP2 SWAP1 POP JUMP JUMPDEST PUSH2 0x1B3F PUSH2 0x13B4 JUMP JUMPDEST DUP1 PUSH20 0xFFFFFFFFFFFFFFFFFFFFFFFFFFFFFFFFFFFFFFFF AND PUSH1 0x4 PUSH1 0x0 SWAP1 SLOAD SWAP1 PUSH2 0x100 EXP SWAP1 DIV PUSH20 0xFFFFFFFFFFFFFFFFFFFFFFFFFFFFFFFFFFFFFFFF AND PUSH20 0xFFFFFFFFFFFFFFFFFFFFFFFFFFFFFFFFFFFFFFFF AND EQ PUSH2 0x1B99 JUMPI PUSH1 0x0 DUP1 REVERT JUMPDEST PUSH2 0x1BA3 DUP4 DUP4 PUSH2 0x1CC3 JUMP JUMPDEST POP POP POP JUMP JUMPDEST PUSH1 0x0 PUSH20 0xFFFFFFFFFFFFFFFFFFFFFFFFFFFFFFFFFFFFFFFF AND DUP3 PUSH20 0xFFFFFFFFFFFFFFFFFFFFFFFFFFFFFFFFFFFFFFFF AND EQ ISZERO PUSH2 0x1C18 JUMPI PUSH1 0x40 MLOAD PUSH32 0x8C379A000000000000000000000000000000000000000000000000000000000 DUP2 MSTORE PUSH1 0x4 ADD PUSH2 0x1C0F SWAP1 PUSH2 0x2E6F JUMP JUMPDEST PUSH1 0x40 MLOAD DUP1 SWAP2 SUB SWAP1 REVERT JUMPDEST DUP1 PUSH1 0x1 PUSH1 0x0 DUP3 DUP3 SLOAD PUSH2 0x1C2A SWAP2 SWAP1 PUSH2 0x326F JUMP JUMPDEST SWAP3 POP POP DUP2 SWAP1 SSTORE POP DUP1 PUSH1 0x0 DUP1 DUP5 PUSH20 0xFFFFFFFFFFFFFFFFFFFFFFFFFFFFFFFFFFFFFFFF AND PUSH20 0xFFFFFFFFFFFFFFFFFFFFFFFFFFFFFFFFFFFFFFFF AND DUP2 MSTORE PUSH1 0x20 ADD SWAP1 DUP2 MSTORE PUSH1 0x20 ADD PUSH1 0x0 KECCAK256 PUSH1 0x0 DUP3 DUP3 SLOAD PUSH2 0x1C7F SWAP2 SWAP1 PUSH2 0x326F JUMP JUMPDEST SWAP3 POP POP DUP2 SWAP1 SSTORE POP PUSH32 0xABF5327BE9F5825C40D58BDA541DD07F09B62DF3376BBD5ECDBAA8BD82A9D492 DUP3 DUP3 PUSH1 0x40 MLOAD PUSH2 0x1CB7 SWAP3 SWAP2 SWAP1 PUSH2 0x2DB7 JUMP JUMPDEST PUSH1 0x40 MLOAD DUP1 SWAP2 SUB SWAP1 LOG1 POP POP JUMP JUMPDEST PUSH1 0x0 PUSH20 0xFFFFFFFFFFFFFFFFFFFFFFFFFFFFFFFFFFFFFFFF AND DUP3 PUSH20 0xFFFFFFFFFFFFFFFFFFFFFFFFFFFFFFFFFFFFFFFF AND EQ ISZERO PUSH2 0x1D33 JUMPI PUSH1 0x40 MLOAD PUSH32 0x8C379A000000000000000000000000000000000000000000000000000000000 DUP2 MSTORE PUSH1 0x4 ADD PUSH2 0x1D2A SWAP1 PUSH2 0x2D77 JUMP JUMPDEST PUSH1 0x40 MLOAD DUP1 SWAP2 SUB SWAP1 REVERT JUMPDEST PUSH1 0x0 DUP1 PUSH1 0x0 DUP5 PUSH20 0xFFFFFFFFFFFFFFFFFFFFFFFFFFFFFFFFFFFFFFFF AND PUSH20 0xFFFFFFFFFFFFFFFFFFFFFFFFFFFFFFFFFFFFFFFF AND DUP2 MSTORE PUSH1 0x20 ADD SWAP1 DUP2 MSTORE PUSH1 0x20 ADD PUSH1 0x0 KECCAK256 SLOAD SWAP1 POP DUP2 DUP2 LT ISZERO PUSH2 0x1DB9 JUMPI PUSH1 0x40 MLOAD PUSH32 0x8C379A000000000000000000000000000000000000000000000000000000000 DUP2 MSTORE PUSH1 0x4 ADD PUSH2 0x1DB0 SWAP1 PUSH2 0x2C37 JUMP JUMPDEST PUSH1 0x40 MLOAD DUP1 SWAP2 SUB SWAP1 REVERT JUMPDEST DUP2 DUP2 SUB PUSH1 0x0 DUP1 DUP6 PUSH20 0xFFFFFFFFFFFFFFFFFFFFFFFFFFFFFFFFFFFFFFFF AND PUSH20 0xFFFFFFFFFFFFFFFFFFFFFFFFFFFFFFFFFFFFFFFF AND DUP2 MSTORE PUSH1 0x20 ADD SWAP1 DUP2 MSTORE PUSH1 0x20 ADD PUSH1 0x0 KECCAK256 DUP2 SWAP1 SSTORE POP DUP2 PUSH1 0x1 PUSH1 0x0 DUP3 DUP3 SLOAD PUSH2 0x1E10 SWAP2 SWAP1 PUSH2 0x331F JUMP JUMPDEST SWAP3 POP POP DUP2 SWAP1 SSTORE POP PUSH32 0xABF5327BE9F5825C40D58BDA541DD07F09B62DF3376BBD5ECDBAA8BD82A9D492 DUP4 DUP4 PUSH1 0x40 MLOAD PUSH2 0x1E48 SWAP3 SWAP2 SWAP1 PUSH2 0x2E13 JUMP JUMPDEST PUSH1 0x40 MLOAD DUP1 SWAP2 SUB SWAP1 LOG1 POP POP POP JUMP JUMPDEST DUP3 DUP1 SLOAD PUSH2 0x1E61 SWAP1 PUSH2 0x3414 JUMP JUMPDEST SWAP1 PUSH1 0x0 MSTORE PUSH1 0x20 PUSH1 0x0 KECCAK256 SWAP1 PUSH1 0x1F ADD PUSH1 0x20 SWAP1 DIV DUP2 ADD SWAP3 DUP3 PUSH2 0x1E83 JUMPI PUSH1 0x0 DUP6 SSTORE PUSH2 0x1ECA JUMP JUMPDEST DUP3 PUSH1 0x1F LT PUSH2 0x1E9C JUMPI DUP1 MLOAD PUSH1 0xFF NOT AND DUP4 DUP1 ADD OR DUP6 SSTORE PUSH2 0x1ECA JUMP JUMPDEST DUP3 DUP1 ADD PUSH1 0x1 ADD DUP6 SSTORE DUP3 ISZERO PUSH2 0x1ECA JUMPI SWAP2 DUP3 ADD JUMPDEST DUP3 DUP2 GT ISZERO PUSH2 0x1EC9 JUMPI DUP3 MLOAD DUP3 SSTORE SWAP2 PUSH1 0x20 ADD SWAP2 SWAP1 PUSH1 0x1 ADD SWAP1 PUSH2 0x1EAE JUMP JUMPDEST JUMPDEST POP SWAP1 POP PUSH2 0x1ED7 SWAP2 SWAP1 PUSH2 0x1FEE JUMP JUMPDEST POP SWAP1 JUMP JUMPDEST DUP3 DUP1 SLOAD PUSH2 0x1EE7 SWAP1 PUSH2 0x3414 JUMP JUMPDEST SWAP1 PUSH1 0x0 MSTORE PUSH1 0x20 PUSH1 0x0 KECCAK256 SWAP1 PUSH1 0x1F ADD PUSH1 0x20 SWAP1 DIV DUP2 ADD SWAP3 DUP3 PUSH2 0x1F09 JUMPI PUSH1 0x0 DUP6 SSTORE PUSH2 0x1F50 JUMP JUMPDEST DUP3 PUSH1 0x1F LT PUSH2 0x1F22 JUMPI DUP1 CALLDATALOAD PUSH1 0xFF NOT AND DUP4 DUP1 ADD OR DUP6 SSTORE PUSH2 0x1F50 JUMP JUMPDEST DUP3 DUP1 ADD PUSH1 0x1 ADD DUP6 SSTORE DUP3 ISZERO PUSH2 0x1F50 JUMPI SWAP2 DUP3 ADD JUMPDEST DUP3 DUP2 GT ISZERO PUSH2 0x1F4F JUMPI DUP3 CALLDATALOAD DUP3 SSTORE SWAP2 PUSH1 0x20 ADD SWAP2 SWAP1 PUSH1 0x1 ADD SWAP1 PUSH2 0x1F34 JUMP JUMPDEST JUMPDEST POP SWAP1 POP PUSH2 0x1F5D SWAP2 SWAP1 PUSH2 0x1FEE JUMP JUMPDEST POP SWAP1 JUMP JUMPDEST DUP3 DUP1 SLOAD PUSH2 0x1F6D SWAP1 PUSH2 0x3414 JUMP JUMPDEST SWAP1 PUSH1 0x0 MSTORE PUSH1 0x20 PUSH1 0x0 KECCAK256 SWAP1 PUSH1 0x1F ADD PUSH1 0x20 SWAP1 DIV DUP2 ADD SWAP3 DUP3 PUSH2 0x1F8F JUMPI PUSH1 0x0 DUP6 SSTORE PUSH2 0x1FDD JUMP JUMPDEST DUP3 PUSH1 0x1F LT PUSH2 0x1FA0 JUMPI DUP1 SLOAD DUP6 SSTORE PUSH2 0x1FDD JUMP JUMPDEST DUP3 DUP1 ADD PUSH1 0x1 ADD DUP6 SSTORE DUP3 ISZERO PUSH2 0x1FDD JUMPI PUSH1 0x0 MSTORE PUSH1 0x20 PUSH1 0x0 KECCAK256 SWAP2 PUSH1 0x1F ADD PUSH1 0x20 SWAP1 DIV DUP3 ADD JUMPDEST DUP3 DUP2 GT ISZERO PUSH2 0x1FDC JUMPI DUP3 SLOAD DUP3 SSTORE SWAP2 PUSH1 0x1 ADD SWAP2 SWAP1 PUSH1 0x1 ADD SWAP1 PUSH2 0x1FC1 JUMP JUMPDEST JUMPDEST POP SWAP1 POP PUSH2 0x1FEA SWAP2 SWAP1 PUSH2 0x1FEE JUMP JUMPDEST POP SWAP1 JUMP JUMPDEST JUMPDEST DUP1 DUP3 GT ISZERO PUSH2 0x2007 JUMPI PUSH1 0x0 DUP2 PUSH1 0x0 SWAP1 SSTORE POP PUSH1 0x1 ADD PUSH2 0x1FEF JUMP JUMPDEST POP SWAP1 JUMP JUMPDEST PUSH1 0x0 PUSH2 0x201E PUSH2 0x2019 DUP5 PUSH2 0x3071 JUMP JUMPDEST PUSH2 0x304C JUMP JUMPDEST SWAP1 POP DUP1 DUP4 DUP3 MSTORE PUSH1 0x20 DUP3 ADD SWAP1 POP DUP3 DUP6 PUSH1 0x20 DUP7 MUL DUP3 ADD GT ISZERO PUSH2 0x2041 JUMPI PUSH2 0x2040 PUSH2 0x35FE JUMP JUMPDEST JUMPDEST PUSH1 0x0 JUMPDEST DUP6 DUP2 LT ISZERO PUSH2 0x2071 JUMPI DUP2 PUSH2 0x2057 DUP9 DUP3 PUSH2 0x21BB JUMP JUMPDEST DUP5 MSTORE PUSH1 0x20 DUP5 ADD SWAP4 POP PUSH1 0x20 DUP4 ADD SWAP3 POP POP PUSH1 0x1 DUP2 ADD SWAP1 POP PUSH2 0x2044 JUMP JUMPDEST POP POP POP SWAP4 SWAP3 POP POP POP JUMP JUMPDEST PUSH1 0x0 PUSH2 0x208E PUSH2 0x2089 DUP5 PUSH2 0x309D JUMP JUMPDEST PUSH2 0x304C JUMP JUMPDEST SWAP1 POP DUP1 DUP4 DUP3 MSTORE PUSH1 0x20 DUP3 ADD SWAP1 POP DUP3 DUP6 PUSH1 0x20 DUP7 MUL DUP3 ADD GT ISZERO PUSH2 0x20B1 JUMPI PUSH2 0x20B0 PUSH2 0x35FE JUMP JUMPDEST JUMPDEST PUSH1 0x0 JUMPDEST DUP6 DUP2 LT ISZERO PUSH2 0x20FF JUMPI DUP2 CALLDATALOAD PUSH8 0xFFFFFFFFFFFFFFFF DUP2 GT ISZERO PUSH2 0x20D7 JUMPI PUSH2 0x20D6 PUSH2 0x35EA JUMP JUMPDEST JUMPDEST DUP1 DUP7 ADD PUSH2 0x20E4 DUP10 DUP3 PUSH2 0x22B0 JUMP JUMPDEST DUP6 MSTORE PUSH1 0x20 DUP6 ADD SWAP5 POP PUSH1 0x20 DUP5 ADD SWAP4 POP POP POP PUSH1 0x1 DUP2 ADD SWAP1 POP PUSH2 0x20B4 JUMP JUMPDEST POP POP POP SWAP4 SWAP3 POP POP POP JUMP JUMPDEST PUSH1 0x0 PUSH2 0x211C PUSH2 0x2117 DUP5 PUSH2 0x30C9 JUMP JUMPDEST PUSH2 0x304C JUMP JUMPDEST SWAP1 POP DUP1 DUP4 DUP3 MSTORE PUSH1 0x20 DUP3 ADD SWAP1 POP DUP3 DUP6 PUSH1 0x20 DUP7 MUL DUP3 ADD GT ISZERO PUSH2 0x213F JUMPI PUSH2 0x213E PUSH2 0x35FE JUMP JUMPDEST JUMPDEST PUSH1 0x0 JUMPDEST DUP6 DUP2 LT ISZERO PUSH2 0x216F JUMPI DUP2 PUSH2 0x2155 DUP9 DUP3 PUSH2 0x22DE JUMP JUMPDEST DUP5 MSTORE PUSH1 0x20 DUP5 ADD SWAP4 POP PUSH1 0x20 DUP4 ADD SWAP3 POP POP PUSH1 0x1 DUP2 ADD SWAP1 POP PUSH2 0x2142 JUMP JUMPDEST POP POP POP SWAP4 SWAP3 POP POP POP JUMP JUMPDEST PUSH1 0x0 PUSH2 0x218C PUSH2 0x2187 DUP5 PUSH2 0x30F5 JUMP JUMPDEST PUSH2 0x304C JUMP JUMPDEST SWAP1 POP DUP3 DUP2 MSTORE PUSH1 0x20 DUP2 ADD DUP5 DUP5 DUP5 ADD GT ISZERO PUSH2 0x21A8 JUMPI PUSH2 0x21A7 PUSH2 0x3608 JUMP JUMPDEST JUMPDEST PUSH2 0x21B3 DUP5 DUP3 DUP6 PUSH2 0x33D2 JUMP JUMPDEST POP SWAP4 SWAP3 POP POP POP JUMP JUMPDEST PUSH1 0x0 DUP2 CALLDATALOAD SWAP1 POP PUSH2 0x21CA DUP2 PUSH2 0x3A68 JUMP JUMPDEST SWAP3 SWAP2 POP POP JUMP JUMPDEST PUSH1 0x0 DUP3 PUSH1 0x1F DUP4 ADD SLT PUSH2 0x21E5 JUMPI PUSH2 0x21E4 PUSH2 0x35EA JUMP JUMPDEST JUMPDEST DUP2 CALLDATALOAD PUSH2 0x21F5 DUP5 DUP3 PUSH1 0x20 DUP7 ADD PUSH2 0x200B JUMP JUMPDEST SWAP2 POP POP SWAP3 SWAP2 POP POP JUMP JUMPDEST PUSH1 0x0 DUP1 DUP4 PUSH1 0x1F DUP5 ADD SLT PUSH2 0x2214 JUMPI PUSH2 0x2213 PUSH2 0x35EA JUMP JUMPDEST JUMPDEST DUP3 CALLDATALOAD SWAP1 POP PUSH8 0xFFFFFFFFFFFFFFFF DUP2 GT ISZERO PUSH2 0x2231 JUMPI PUSH2 0x2230 PUSH2 0x35E5 JUMP JUMPDEST JUMPDEST PUSH1 0x20 DUP4 ADD SWAP2 POP DUP4 PUSH1 0x20 DUP3 MUL DUP4 ADD GT ISZERO PUSH2 0x224D JUMPI PUSH2 0x224C PUSH2 0x35FE JUMP JUMPDEST JUMPDEST SWAP3 POP SWAP3 SWAP1 POP JUMP JUMPDEST PUSH1 0x0 DUP3 PUSH1 0x1F DUP4 ADD SLT PUSH2 0x2269 JUMPI PUSH2 0x2268 PUSH2 0x35EA JUMP JUMPDEST JUMPDEST DUP2 CALLDATALOAD PUSH2 0x2279 DUP5 DUP3 PUSH1 0x20 DUP7 ADD PUSH2 0x207B JUMP JUMPDEST SWAP2 POP POP SWAP3 SWAP2 POP POP JUMP JUMPDEST PUSH1 0x0 DUP3 PUSH1 0x1F DUP4 ADD SLT PUSH2 0x2297 JUMPI PUSH2 0x2296 PUSH2 0x35EA JUMP JUMPDEST JUMPDEST DUP2 CALLDATALOAD PUSH2 0x22A7 DUP5 DUP3 PUSH1 0x20 DUP7 ADD PUSH2 0x2109 JUMP JUMPDEST SWAP2 POP POP SWAP3 SWAP2 POP POP JUMP JUMPDEST PUSH1 0x0 DUP3 PUSH1 0x1F DUP4 ADD SLT PUSH2 0x22C5 JUMPI PUSH2 0x22C4 PUSH2 0x35EA JUMP JUMPDEST JUMPDEST DUP2 CALLDATALOAD PUSH2 0x22D5 DUP5 DUP3 PUSH1 0x20 DUP7 ADD PUSH2 0x2179 JUMP JUMPDEST SWAP2 POP POP SWAP3 SWAP2 POP POP JUMP JUMPDEST PUSH1 0x0 DUP2 CALLDATALOAD SWAP1 POP PUSH2 0x22ED DUP2 PUSH2 0x3A7F JUMP JUMPDEST SWAP3 SWAP2 POP POP JUMP JUMPDEST PUSH1 0x0 DUP2 CALLDATALOAD SWAP1 POP PUSH2 0x2302 DUP2 PUSH2 0x3A96 JUMP JUMPDEST SWAP3 SWAP2 POP POP JUMP JUMPDEST PUSH1 0x0 PUSH1 0x20 DUP3 DUP5 SUB SLT ISZERO PUSH2 0x231E JUMPI PUSH2 0x231D PUSH2 0x3617 JUMP JUMPDEST JUMPDEST PUSH1 0x0 PUSH2 0x232C DUP5 DUP3 DUP6 ADD PUSH2 0x21BB JUMP JUMPDEST SWAP2 POP POP SWAP3 SWAP2 POP POP JUMP JUMPDEST PUSH1 0x0 DUP1 PUSH1 0x40 DUP4 DUP6 SUB SLT ISZERO PUSH2 0x234C JUMPI PUSH2 0x234B PUSH2 0x3617 JUMP JUMPDEST JUMPDEST PUSH1 0x0 PUSH2 0x235A DUP6 DUP3 DUP7 ADD PUSH2 0x21BB JUMP JUMPDEST SWAP3 POP POP PUSH1 0x20 PUSH2 0x236B DUP6 DUP3 DUP7 ADD PUSH2 0x22DE JUMP JUMPDEST SWAP2 POP POP SWAP3 POP SWAP3 SWAP1 POP JUMP JUMPDEST PUSH1 0x0 PUSH1 0x20 DUP3 DUP5 SUB SLT ISZERO PUSH2 0x238B JUMPI PUSH2 0x238A PUSH2 0x3617 JUMP JUMPDEST JUMPDEST PUSH1 0x0 PUSH2 0x2399 DUP5 DUP3 DUP6 ADD PUSH2 0x22DE JUMP JUMPDEST SWAP2 POP POP SWAP3 SWAP2 POP POP JUMP JUMPDEST PUSH1 0x0 DUP1 PUSH1 0x0 DUP1 PUSH1 0x80 DUP6 DUP8 SUB SLT ISZERO PUSH2 0x23BC JUMPI PUSH2 0x23BB PUSH2 0x3617 JUMP JUMPDEST JUMPDEST PUSH1 0x0 PUSH2 0x23CA DUP8 DUP3 DUP9 ADD PUSH2 0x22DE JUMP JUMPDEST SWAP5 POP POP PUSH1 0x20 PUSH2 0x23DB DUP8 DUP3 DUP9 ADD PUSH2 0x21BB JUMP JUMPDEST SWAP4 POP POP PUSH1 0x40 DUP6 ADD CALLDATALOAD PUSH8 0xFFFFFFFFFFFFFFFF DUP2 GT ISZERO PUSH2 0x23FC JUMPI PUSH2 0x23FB PUSH2 0x360D JUMP JUMPDEST JUMPDEST PUSH2 0x2408 DUP8 DUP3 DUP9 ADD PUSH2 0x2254 JUMP JUMPDEST SWAP3 POP POP PUSH1 0x60 DUP6 ADD CALLDATALOAD PUSH8 0xFFFFFFFFFFFFFFFF DUP2 GT ISZERO PUSH2 0x2429 JUMPI PUSH2 0x2428 PUSH2 0x360D JUMP JUMPDEST JUMPDEST PUSH2 0x2435 DUP8 DUP3 DUP9 ADD PUSH2 0x2282 JUMP JUMPDEST SWAP2 POP POP SWAP3 SWAP6 SWAP2 SWAP5 POP SWAP3 POP JUMP JUMPDEST PUSH1 0x0 DUP1 PUSH1 0x0 PUSH1 0x60 DUP5 DUP7 SUB SLT ISZERO PUSH2 0x245A JUMPI PUSH2 0x2459 PUSH2 0x3617 JUMP JUMPDEST JUMPDEST PUSH1 0x0 PUSH2 0x2468 DUP7 DUP3 DUP8 ADD PUSH2 0x22DE JUMP JUMPDEST SWAP4 POP POP PUSH1 0x20 DUP5 ADD CALLDATALOAD PUSH8 0xFFFFFFFFFFFFFFFF DUP2 GT ISZERO PUSH2 0x2489 JUMPI PUSH2 0x2488 PUSH2 0x360D JUMP JUMPDEST JUMPDEST PUSH2 0x2495 DUP7 DUP3 DUP8 ADD PUSH2 0x21D0 JUMP JUMPDEST SWAP3 POP POP PUSH1 0x40 PUSH2 0x24A6 DUP7 DUP3 DUP8 ADD PUSH2 0x22DE JUMP JUMPDEST SWAP2 POP POP SWAP3 POP SWAP3 POP SWAP3 JUMP JUMPDEST PUSH1 0x0 DUP1 PUSH1 0x0 DUP1 PUSH1 0x0 DUP1 PUSH1 0x0 DUP1 PUSH1 0x0 PUSH2 0x100 DUP11 DUP13 SUB SLT ISZERO PUSH2 0x24D3 JUMPI PUSH2 0x24D2 PUSH2 0x3617 JUMP JUMPDEST JUMPDEST PUSH1 0x0 PUSH2 0x24E1 DUP13 DUP3 DUP14 ADD PUSH2 0x22F3 JUMP JUMPDEST SWAP10 POP POP PUSH1 0x20 DUP11 ADD CALLDATALOAD PUSH8 0xFFFFFFFFFFFFFFFF DUP2 GT ISZERO PUSH2 0x2502 JUMPI PUSH2 0x2501 PUSH2 0x360D JUMP JUMPDEST JUMPDEST PUSH2 0x250E DUP13 DUP3 DUP14 ADD PUSH2 0x21D0 JUMP JUMPDEST SWAP9 POP POP PUSH1 0x40 PUSH2 0x251F DUP13 DUP3 DUP14 ADD PUSH2 0x21BB JUMP JUMPDEST SWAP8 POP POP PUSH1 0x60 PUSH2 0x2530 DUP13 DUP3 DUP14 ADD PUSH2 0x22DE JUMP JUMPDEST SWAP7 POP POP PUSH1 0x80 PUSH2 0x2541 DUP13 DUP3 DUP14 ADD PUSH2 0x22DE JUMP JUMPDEST SWAP6 POP POP PUSH1 0xA0 DUP11 ADD CALLDATALOAD PUSH8 0xFFFFFFFFFFFFFFFF DUP2 GT ISZERO PUSH2 0x2562 JUMPI PUSH2 0x2561 PUSH2 0x360D JUMP JUMPDEST JUMPDEST PUSH2 0x256E DUP13 DUP3 DUP14 ADD PUSH2 0x22B0 JUMP JUMPDEST SWAP5 POP POP PUSH1 0xC0 DUP11 ADD CALLDATALOAD PUSH8 0xFFFFFFFFFFFFFFFF DUP2 GT ISZERO PUSH2 0x258F JUMPI PUSH2 0x258E PUSH2 0x360D JUMP JUMPDEST JUMPDEST PUSH2 0x259B DUP13 DUP3 DUP14 ADD PUSH2 0x21FE JUMP JUMPDEST SWAP4 POP SWAP4 POP POP PUSH1 0xE0 PUSH2 0x25AE DUP13 DUP3 DUP14 ADD PUSH2 0x22DE JUMP JUMPDEST SWAP2 POP POP SWAP3 SWAP6 SWAP9 POP SWAP3 SWAP6 SWAP9 POP SWAP3 SWAP6 SWAP9 JUMP JUMPDEST PUSH1 0x0 PUSH2 0x25CA DUP4 DUP4 PUSH2 0x25EC JUMP JUMPDEST PUSH1 0x20 DUP4 ADD SWAP1 POP SWAP3 SWAP2 POP POP JUMP JUMPDEST PUSH1 0x0 PUSH2 0x25E3 DUP5 DUP5 DUP5 PUSH2 0x26ED JUMP JUMPDEST SWAP1 POP SWAP4 SWAP3 POP POP POP JUMP JUMPDEST PUSH2 0x25F5 DUP2 PUSH2 0x3353 JUMP JUMPDEST DUP3 MSTORE POP POP JUMP JUMPDEST PUSH2 0x2604 DUP2 PUSH2 0x3353 JUMP JUMPDEST DUP3 MSTORE POP POP JUMP JUMPDEST PUSH1 0x0 PUSH2 0x2615 DUP3 PUSH2 0x3155 JUMP JUMPDEST PUSH2 0x261F DUP2 DUP6 PUSH2 0x3185 JUMP JUMPDEST SWAP4 POP PUSH2 0x262A DUP4 PUSH2 0x3126 JUMP JUMPDEST DUP1 PUSH1 0x0 JUMPDEST DUP4 DUP2 LT ISZERO PUSH2 0x265B JUMPI DUP2 MLOAD PUSH2 0x2642 DUP9 DUP3 PUSH2 0x25BE JUMP JUMPDEST SWAP8 POP PUSH2 0x264D DUP4 PUSH2 0x316B JUMP JUMPDEST SWAP3 POP POP PUSH1 0x1 DUP2 ADD SWAP1 POP PUSH2 0x262E JUMP JUMPDEST POP DUP6 SWAP4 POP POP POP POP SWAP3 SWAP2 POP POP JUMP JUMPDEST PUSH1 0x0 PUSH2 0x2674 DUP4 DUP6 PUSH2 0x3196 JUMP JUMPDEST SWAP4 POP DUP4 PUSH1 0x20 DUP5 MUL DUP6 ADD PUSH2 0x2686 DUP5 PUSH2 0x3136 JUMP JUMPDEST DUP1 PUSH1 0x0 JUMPDEST DUP8 DUP2 LT ISZERO PUSH2 0x26CC JUMPI DUP5 DUP5 SUB DUP10 MSTORE PUSH2 0x26A1 DUP3 DUP5 PUSH2 0x31D4 JUMP JUMPDEST PUSH2 0x26AC DUP7 DUP3 DUP5 PUSH2 0x25D6 JUMP JUMPDEST SWAP6 POP PUSH2 0x26B7 DUP5 PUSH2 0x3178 JUMP JUMPDEST SWAP4 POP PUSH1 0x20 DUP12 ADD SWAP11 POP POP POP PUSH1 0x1 DUP2 ADD SWAP1 POP PUSH2 0x268A JUMP JUMPDEST POP DUP3 SWAP8 POP DUP8 SWAP5 POP POP POP POP POP SWAP4 SWAP3 POP POP POP JUMP JUMPDEST PUSH2 0x26E7 DUP2 PUSH2 0x3365 JUMP JUMPDEST DUP3 MSTORE POP POP JUMP JUMPDEST PUSH1 0x0 PUSH2 0x26F9 DUP4 DUP6 PUSH2 0x31A7 JUMP JUMPDEST SWAP4 POP PUSH2 0x2706 DUP4 DUP6 DUP5 PUSH2 0x33D2 JUMP JUMPDEST PUSH2 0x270F DUP4 PUSH2 0x361C JUMP JUMPDEST DUP5 ADD SWAP1 POP SWAP4 SWAP3 POP POP POP JUMP JUMPDEST PUSH1 0x0 PUSH2 0x2726 DUP4 DUP6 PUSH2 0x31C9 JUMP JUMPDEST SWAP4 POP PUSH2 0x2733 DUP4 DUP6 DUP5 PUSH2 0x33D2 JUMP JUMPDEST DUP3 DUP5 ADD SWAP1 POP SWAP4 SWAP3 POP POP POP JUMP JUMPDEST PUSH1 0x0 PUSH2 0x274A DUP3 PUSH2 0x3160 JUMP JUMPDEST PUSH2 0x2754 DUP2 DUP6 PUSH2 0x31B8 JUMP JUMPDEST SWAP4 POP PUSH2 0x2764 DUP2 DUP6 PUSH1 0x20 DUP7 ADD PUSH2 0x33E1 JUMP JUMPDEST PUSH2 0x276D DUP2 PUSH2 0x361C JUMP JUMPDEST DUP5 ADD SWAP2 POP POP SWAP3 SWAP2 POP POP JUMP JUMPDEST PUSH1 0x0 PUSH2 0x2783 DUP3 PUSH2 0x3160 JUMP JUMPDEST PUSH2 0x278D DUP2 DUP6 PUSH2 0x31C9 JUMP JUMPDEST SWAP4 POP PUSH2 0x279D DUP2 DUP6 PUSH1 0x20 DUP7 ADD PUSH2 0x33E1 JUMP JUMPDEST DUP1 DUP5 ADD SWAP2 POP POP SWAP3 SWAP2 POP POP JUMP JUMPDEST PUSH1 0x0 DUP2 SLOAD PUSH2 0x27B6 DUP2 PUSH2 0x3414 JUMP JUMPDEST PUSH2 0x27C0 DUP2 DUP7 PUSH2 0x31C9 JUMP JUMPDEST SWAP5 POP PUSH1 0x1 DUP3 AND PUSH1 0x0 DUP2 EQ PUSH2 0x27DB JUMPI PUSH1 0x1 DUP2 EQ PUSH2 0x27EC JUMPI PUSH2 0x281F JUMP JUMPDEST PUSH1 0xFF NOT DUP4 AND DUP7 MSTORE DUP2 DUP7 ADD SWAP4 POP PUSH2 0x281F JUMP JUMPDEST PUSH2 0x27F5 DUP6 PUSH2 0x3140 JUMP JUMPDEST PUSH1 0x0 JUMPDEST DUP4 DUP2 LT ISZERO PUSH2 0x2817 JUMPI DUP2 SLOAD DUP2 DUP10 ADD MSTORE PUSH1 0x1 DUP3 ADD SWAP2 POP PUSH1 0x20 DUP2 ADD SWAP1 POP PUSH2 0x27F8 JUMP JUMPDEST DUP4 DUP9 ADD SWAP6 POP POP POP JUMPDEST POP POP POP SWAP3 SWAP2 POP POP JUMP JUMPDEST PUSH1 0x0 PUSH2 0x2835 PUSH1 0x12 DUP4 PUSH2 0x31B8 JUMP JUMPDEST SWAP2 POP PUSH2 0x2840 DUP3 PUSH2 0x362D JUMP JUMPDEST PUSH1 0x20 DUP3 ADD SWAP1 POP SWAP2 SWAP1 POP JUMP JUMPDEST PUSH1 0x0 PUSH2 0x2858 PUSH1 0x2C DUP4 PUSH2 0x31B8 JUMP JUMPDEST SWAP2 POP PUSH2 0x2863 DUP3 PUSH2 0x3656 JUMP JUMPDEST PUSH1 0x40 DUP3 ADD SWAP1 POP SWAP2 SWAP1 POP JUMP JUMPDEST PUSH1 0x0 PUSH2 0x287B PUSH1 0x22 DUP4 PUSH2 0x31B8 JUMP JUMPDEST SWAP2 POP PUSH2 0x2886 DUP3 PUSH2 0x36A5 JUMP JUMPDEST PUSH1 0x40 DUP3 ADD SWAP1 POP SWAP2 SWAP1 POP JUMP JUMPDEST PUSH1 0x0 PUSH2 0x289E PUSH1 0xD DUP4 PUSH2 0x31B8 JUMP JUMPDEST SWAP2 POP PUSH2 0x28A9 DUP3 PUSH2 0x36F4 JUMP JUMPDEST PUSH1 0x20 DUP3 ADD SWAP1 POP SWAP2 SWAP1 POP JUMP JUMPDEST PUSH1 0x0 PUSH2 0x28C1 PUSH1 0x1B DUP4 PUSH2 0x31B8 JUMP JUMPDEST SWAP2 POP PUSH2 0x28CC DUP3 PUSH2 0x371D JUMP JUMPDEST PUSH1 0x20 DUP3 ADD SWAP1 POP SWAP2 SWAP1 POP JUMP JUMPDEST PUSH1 0x0 PUSH2 0x28E4 PUSH1 0x14 DUP4 PUSH2 0x31B8 JUMP JUMPDEST SWAP2 POP PUSH2 0x28EF DUP3 PUSH2 0x3746 JUMP JUMPDEST PUSH1 0x20 DUP3 ADD SWAP1 POP SWAP2 SWAP1 POP JUMP JUMPDEST PUSH1 0x0 PUSH2 0x2907 PUSH1 0x23 DUP4 PUSH2 0x31B8 JUMP JUMPDEST SWAP2 POP PUSH2 0x2912 DUP3 PUSH2 0x376F JUMP JUMPDEST PUSH1 0x40 DUP3 ADD SWAP1 POP SWAP2 SWAP1 POP JUMP JUMPDEST PUSH1 0x0 PUSH2 0x292A PUSH1 0x14 DUP4 PUSH2 0x31B8 JUMP JUMPDEST SWAP2 POP PUSH2 0x2935 DUP3 PUSH2 0x37BE JUMP JUMPDEST PUSH1 0x20 DUP3 ADD SWAP1 POP SWAP2 SWAP1 POP JUMP JUMPDEST PUSH1 0x0 PUSH2 0x294D PUSH1 0x23 DUP4 PUSH2 0x31B8 JUMP JUMPDEST SWAP2 POP PUSH2 0x2958 DUP3 PUSH2 0x37E7 JUMP JUMPDEST PUSH1 0x40 DUP3 ADD SWAP1 POP SWAP2 SWAP1 POP JUMP JUMPDEST PUSH1 0x0 PUSH2 0x2970 PUSH1 0x12 DUP4 PUSH2 0x31B8 JUMP JUMPDEST SWAP2 POP PUSH2 0x297B DUP3 PUSH2 0x3836 JUMP JUMPDEST PUSH1 0x20 DUP3 ADD SWAP1 POP SWAP2 SWAP1 POP JUMP JUMPDEST PUSH1 0x0 PUSH2 0x2993 PUSH1 0x23 DUP4 PUSH2 0x31B8 JUMP JUMPDEST SWAP2 POP PUSH2 0x299E DUP3 PUSH2 0x385F JUMP JUMPDEST PUSH1 0x40 DUP3 ADD SWAP1 POP SWAP2 SWAP1 POP JUMP JUMPDEST PUSH1 0x0 PUSH2 0x29B6 PUSH1 0x2A DUP4 PUSH2 0x31B8 JUMP JUMPDEST SWAP2 POP PUSH2 0x29C1 DUP3 PUSH2 0x38AE JUMP JUMPDEST PUSH1 0x40 DUP3 ADD SWAP1 POP SWAP2 SWAP1 POP JUMP JUMPDEST PUSH1 0x0 PUSH2 0x29D9 PUSH1 0x21 DUP4 PUSH2 0x31B8 JUMP JUMPDEST SWAP2 POP PUSH2 0x29E4 DUP3 PUSH2 0x38FD JUMP JUMPDEST PUSH1 0x40 DUP3 ADD SWAP1 POP SWAP2 SWAP1 POP JUMP JUMPDEST PUSH1 0x0 PUSH2 0x29FC PUSH1 0x24 DUP4 PUSH2 0x31B8 JUMP JUMPDEST SWAP2 POP PUSH2 0x2A07 DUP3 PUSH2 0x394C JUMP JUMPDEST PUSH1 0x40 DUP3 ADD SWAP1 POP SWAP2 SWAP1 POP JUMP JUMPDEST PUSH1 0x0 PUSH2 0x2A1F PUSH1 0x4 DUP4 PUSH2 0x31B8 JUMP JUMPDEST SWAP2 POP PUSH2 0x2A2A DUP3 PUSH2 0x399B JUMP JUMPDEST PUSH1 0x20 DUP3 ADD SWAP1 POP SWAP2 SWAP1 POP JUMP JUMPDEST PUSH1 0x0 PUSH2 0x2A42 PUSH1 0x1D DUP4 PUSH2 0x31B8 JUMP JUMPDEST SWAP2 POP PUSH2 0x2A4D DUP3 PUSH2 0x39C4 JUMP JUMPDEST PUSH1 0x20 DUP3 ADD SWAP1 POP SWAP2 SWAP1 POP JUMP JUMPDEST PUSH1 0x0 PUSH2 0x2A65 PUSH1 0x4 DUP4 PUSH2 0x31B8 JUMP JUMPDEST SWAP2 POP PUSH2 0x2A70 DUP3 PUSH2 0x39ED JUMP JUMPDEST PUSH1 0x20 DUP3 ADD SWAP1 POP SWAP2 SWAP1 POP JUMP JUMPDEST PUSH1 0x0 PUSH2 0x2A88 PUSH1 0x9 DUP4 PUSH2 0x31B8 JUMP JUMPDEST SWAP2 POP PUSH2 0x2A93 DUP3 PUSH2 0x3A16 JUMP JUMPDEST PUSH1 0x20 DUP3 ADD SWAP1 POP SWAP2 SWAP1 POP JUMP JUMPDEST PUSH1 0x0 PUSH2 0x2AAB PUSH1 0x1F DUP4 PUSH2 0x31B8 JUMP JUMPDEST SWAP2 POP PUSH2 0x2AB6 DUP3 PUSH2 0x3A3F JUMP JUMPDEST PUSH1 0x20 DUP3 ADD SWAP1 POP SWAP2 SWAP1 POP JUMP JUMPDEST PUSH2 0x2ACA DUP2 PUSH2 0x3371 JUMP JUMPDEST DUP3 MSTORE POP POP JUMP JUMPDEST PUSH2 0x2AD9 DUP2 PUSH2 0x338D JUMP JUMPDEST DUP3 MSTORE POP POP JUMP JUMPDEST PUSH2 0x2AE8 DUP2 PUSH2 0x33BB JUMP JUMPDEST DUP3 MSTORE POP POP JUMP JUMPDEST PUSH2 0x2AF7 DUP2 PUSH2 0x33C5 JUMP JUMPDEST DUP3 MSTORE POP POP JUMP JUMPDEST PUSH1 0x0 PUSH2 0x2B0A DUP3 DUP5 DUP7 PUSH2 0x271A JUMP JUMPDEST SWAP2 POP DUP2 SWAP1 POP SWAP4 SWAP3 POP POP POP JUMP JUMPDEST PUSH1 0x0 PUSH2 0x2B22 DUP3 DUP5 PUSH2 0x2778 JUMP JUMPDEST SWAP2 POP DUP2 SWAP1 POP SWAP3 SWAP2 POP POP JUMP JUMPDEST PUSH1 0x0 PUSH2 0x2B39 DUP3 DUP5 PUSH2 0x27A9 JUMP JUMPDEST SWAP2 POP DUP2 SWAP1 POP SWAP3 SWAP2 POP POP JUMP JUMPDEST PUSH1 0x0 PUSH1 0xE0 DUP3 ADD SWAP1 POP PUSH2 0x2B59 PUSH1 0x0 DUP4 ADD DUP11 PUSH2 0x25FB JUMP JUMPDEST PUSH2 0x2B66 PUSH1 0x20 DUP4 ADD DUP10 PUSH2 0x2AEE JUMP JUMPDEST DUP2 DUP2 SUB PUSH1 0x40 DUP4 ADD MSTORE PUSH2 0x2B78 DUP2 DUP9 PUSH2 0x273F JUMP JUMPDEST SWAP1 POP PUSH2 0x2B87 PUSH1 0x60 DUP4 ADD DUP8 PUSH2 0x2ADF JUMP JUMPDEST PUSH2 0x2B94 PUSH1 0x80 DUP4 ADD DUP7 PUSH2 0x2ADF JUMP JUMPDEST PUSH2 0x2BA1 PUSH1 0xA0 DUP4 ADD DUP6 PUSH2 0x2AD0 JUMP JUMPDEST PUSH2 0x2BAE PUSH1 0xC0 DUP4 ADD DUP5 PUSH2 0x2ADF JUMP JUMPDEST SWAP9 SWAP8 POP POP POP POP POP POP POP POP JUMP JUMPDEST PUSH1 0x0 PUSH1 0x20 DUP3 ADD SWAP1 POP PUSH2 0x2BCF PUSH1 0x0 DUP4 ADD DUP5 PUSH2 0x26DE JUMP JUMPDEST SWAP3 SWAP2 POP POP JUMP JUMPDEST PUSH1 0x0 PUSH1 0x20 DUP3 ADD SWAP1 POP DUP2 DUP2 SUB PUSH1 0x0 DUP4 ADD MSTORE PUSH2 0x2BEF DUP2 DUP5 PUSH2 0x273F JUMP JUMPDEST SWAP1 POP SWAP3 SWAP2 POP POP JUMP JUMPDEST PUSH1 0x0 PUSH1 0x20 DUP3 ADD SWAP1 POP DUP2 DUP2 SUB PUSH1 0x0 DUP4 ADD MSTORE PUSH2 0x2C10 DUP2 PUSH2 0x2828 JUMP JUMPDEST SWAP1 POP SWAP2 SWAP1 POP JUMP JUMPDEST PUSH1 0x0 PUSH1 0x20 DUP3 ADD SWAP1 POP DUP2 DUP2 SUB PUSH1 0x0 DUP4 ADD MSTORE PUSH2 0x2C30 DUP2 PUSH2 0x284B JUMP JUMPDEST SWAP1 POP SWAP2 SWAP1 POP JUMP JUMPDEST PUSH1 0x0 PUSH1 0x20 DUP3 ADD SWAP1 POP DUP2 DUP2 SUB PUSH1 0x0 DUP4 ADD MSTORE PUSH2 0x2C50 DUP2 PUSH2 0x286E JUMP JUMPDEST SWAP1 POP SWAP2 SWAP1 POP JUMP JUMPDEST PUSH1 0x0 PUSH1 0x20 DUP3 ADD SWAP1 POP DUP2 DUP2 SUB PUSH1 0x0 DUP4 ADD MSTORE PUSH2 0x2C70 DUP2 PUSH2 0x2891 JUMP JUMPDEST SWAP1 POP SWAP2 SWAP1 POP JUMP JUMPDEST PUSH1 0x0 PUSH1 0x20 DUP3 ADD SWAP1 POP DUP2 DUP2 SUB PUSH1 0x0 DUP4 ADD MSTORE PUSH2 0x2C90 DUP2 PUSH2 0x28B4 JUMP JUMPDEST SWAP1 POP SWAP2 SWAP1 POP JUMP JUMPDEST PUSH1 0x0 PUSH1 0x20 DUP3 ADD SWAP1 POP DUP2 DUP2 SUB PUSH1 0x0 DUP4 ADD MSTORE PUSH2 0x2CB0 DUP2 PUSH2 0x28D7 JUMP JUMPDEST SWAP1 POP SWAP2 SWAP1 POP JUMP JUMPDEST PUSH1 0x0 PUSH1 0x20 DUP3 ADD SWAP1 POP DUP2 DUP2 SUB PUSH1 0x0 DUP4 ADD MSTORE PUSH2 0x2CD0 DUP2 PUSH2 0x28FA JUMP JUMPDEST SWAP1 POP SWAP2 SWAP1 POP JUMP JUMPDEST PUSH1 0x0 PUSH1 0x20 DUP3 ADD SWAP1 POP DUP2 DUP2 SUB PUSH1 0x0 DUP4 ADD MSTORE PUSH2 0x2CF0 DUP2 PUSH2 0x291D JUMP JUMPDEST SWAP1 POP SWAP2 SWAP1 POP JUMP JUMPDEST PUSH1 0x0 PUSH1 0x20 DUP3 ADD SWAP1 POP DUP2 DUP2 SUB PUSH1 0x0 DUP4 ADD MSTORE PUSH2 0x2D10 DUP2 PUSH2 0x2940 JUMP JUMPDEST SWAP1 POP SWAP2 SWAP1 POP JUMP JUMPDEST PUSH1 0x0 PUSH1 0x20 DUP3 ADD SWAP1 POP DUP2 DUP2 SUB PUSH1 0x0 DUP4 ADD MSTORE PUSH2 0x2D30 DUP2 PUSH2 0x2963 JUMP JUMPDEST SWAP1 POP SWAP2 SWAP1 POP JUMP JUMPDEST PUSH1 0x0 PUSH1 0x20 DUP3 ADD SWAP1 POP DUP2 DUP2 SUB PUSH1 0x0 DUP4 ADD MSTORE PUSH2 0x2D50 DUP2 PUSH2 0x2986 JUMP JUMPDEST SWAP1 POP SWAP2 SWAP1 POP JUMP JUMPDEST PUSH1 0x0 PUSH1 0x20 DUP3 ADD SWAP1 POP DUP2 DUP2 SUB PUSH1 0x0 DUP4 ADD MSTORE PUSH2 0x2D70 DUP2 PUSH2 0x29A9 JUMP JUMPDEST SWAP1 POP SWAP2 SWAP1 POP JUMP JUMPDEST PUSH1 0x0 PUSH1 0x20 DUP3 ADD SWAP1 POP DUP2 DUP2 SUB PUSH1 0x0 DUP4 ADD MSTORE PUSH2 0x2D90 DUP2 PUSH2 0x29CC JUMP JUMPDEST SWAP1 POP SWAP2 SWAP1 POP JUMP JUMPDEST PUSH1 0x0 PUSH1 0x20 DUP3 ADD SWAP1 POP DUP2 DUP2 SUB PUSH1 0x0 DUP4 ADD MSTORE PUSH2 0x2DB0 DUP2 PUSH2 0x29EF JUMP JUMPDEST SWAP1 POP SWAP2 SWAP1 POP JUMP JUMPDEST PUSH1 0x0 PUSH1 0x60 DUP3 ADD SWAP1 POP DUP2 DUP2 SUB PUSH1 0x0 DUP4 ADD MSTORE PUSH2 0x2DD0 DUP2 PUSH2 0x2A12 JUMP JUMPDEST SWAP1 POP PUSH2 0x2DDF PUSH1 0x20 DUP4 ADD DUP6 PUSH2 0x25FB JUMP JUMPDEST PUSH2 0x2DEC PUSH1 0x40 DUP4 ADD DUP5 PUSH2 0x2ADF JUMP JUMPDEST SWAP4 SWAP3 POP POP POP JUMP JUMPDEST PUSH1 0x0 PUSH1 0x20 DUP3 ADD SWAP1 POP DUP2 DUP2 SUB PUSH1 0x0 DUP4 ADD MSTORE PUSH2 0x2E0C DUP2 PUSH2 0x2A35 JUMP JUMPDEST SWAP1 POP SWAP2 SWAP1 POP JUMP JUMPDEST PUSH1 0x0 PUSH1 0x60 DUP3 ADD SWAP1 POP DUP2 DUP2 SUB PUSH1 0x0 DUP4 ADD MSTORE PUSH2 0x2E2C DUP2 PUSH2 0x2A58 JUMP JUMPDEST SWAP1 POP PUSH2 0x2E3B PUSH1 0x20 DUP4 ADD DUP6 PUSH2 0x25FB JUMP JUMPDEST PUSH2 0x2E48 PUSH1 0x40 DUP4 ADD DUP5 PUSH2 0x2ADF JUMP JUMPDEST SWAP4 SWAP3 POP POP POP JUMP JUMPDEST PUSH1 0x0 PUSH1 0x20 DUP3 ADD SWAP1 POP DUP2 DUP2 SUB PUSH1 0x0 DUP4 ADD MSTORE PUSH2 0x2E68 DUP2 PUSH2 0x2A7B JUMP JUMPDEST SWAP1 POP SWAP2 SWAP1 POP JUMP JUMPDEST PUSH1 0x0 PUSH1 0x20 DUP3 ADD SWAP1 POP DUP2 DUP2 SUB PUSH1 0x0 DUP4 ADD MSTORE PUSH2 0x2E88 DUP2 PUSH2 0x2A9E JUMP JUMPDEST SWAP1 POP SWAP2 SWAP1 POP JUMP JUMPDEST PUSH1 0x0 PUSH1 0x40 DUP3 ADD SWAP1 POP PUSH2 0x2EA4 PUSH1 0x0 DUP4 ADD DUP6 PUSH2 0x2AC1 JUMP JUMPDEST PUSH2 0x2EB1 PUSH1 0x20 DUP4 ADD DUP5 PUSH2 0x2AC1 JUMP JUMPDEST SWAP4 SWAP3 POP POP POP JUMP JUMPDEST PUSH1 0x0 PUSH1 0x20 DUP3 ADD SWAP1 POP PUSH2 0x2ECD PUSH1 0x0 DUP4 ADD DUP5 PUSH2 0x2ADF JUMP JUMPDEST SWAP3 SWAP2 POP POP JUMP JUMPDEST PUSH1 0x0 PUSH1 0x80 DUP3 ADD SWAP1 POP PUSH2 0x2EE8 PUSH1 0x0 DUP4 ADD DUP8 PUSH2 0x2ADF JUMP JUMPDEST PUSH2 0x2EF5 PUSH1 0x20 DUP4 ADD DUP7 PUSH2 0x25FB JUMP JUMPDEST PUSH2 0x2F02 PUSH1 0x40 DUP4 ADD DUP6 PUSH2 0x26DE JUMP JUMPDEST PUSH2 0x2F0F PUSH1 0x60 DUP4 ADD DUP5 PUSH2 0x2ADF JUMP JUMPDEST SWAP6 SWAP5 POP POP POP POP POP JUMP JUMPDEST PUSH1 0x0 PUSH1 0xE0 DUP3 ADD SWAP1 POP PUSH2 0x2F2D PUSH1 0x0 DUP4 ADD DUP12 PUSH2 0x2ADF JUMP JUMPDEST DUP2 DUP2 SUB PUSH1 0x20 DUP4 ADD MSTORE PUSH2 0x2F3F DUP2 DUP11 PUSH2 0x260A JUMP JUMPDEST SWAP1 POP PUSH2 0x2F4E PUSH1 0x40 DUP4 ADD DUP10 PUSH2 0x25FB JUMP JUMPDEST PUSH2 0x2F5B PUSH1 0x60 DUP4 ADD DUP9 PUSH2 0x2ADF JUMP JUMPDEST PUSH2 0x2F68 PUSH1 0x80 DUP4 ADD DUP8 PUSH2 0x2ADF JUMP JUMPDEST DUP2 DUP2 SUB PUSH1 0xA0 DUP4 ADD MSTORE PUSH2 0x2F7A DUP2 DUP7 PUSH2 0x273F JUMP JUMPDEST SWAP1 POP DUP2 DUP2 SUB PUSH1 0xC0 DUP4 ADD MSTORE PUSH2 0x2F8F DUP2 DUP5 DUP7 PUSH2 0x2668 JUMP JUMPDEST SWAP1 POP SWAP10 SWAP9 POP POP POP POP POP POP POP POP POP JUMP JUMPDEST PUSH1 0x0 PUSH1 0x40 DUP3 ADD SWAP1 POP PUSH2 0x2FB3 PUSH1 0x0 DUP4 ADD DUP6 PUSH2 0x2ADF JUMP JUMPDEST DUP2 DUP2 SUB PUSH1 0x20 DUP4 ADD MSTORE PUSH2 0x2FC5 DUP2 DUP5 PUSH2 0x273F JUMP JUMPDEST SWAP1 POP SWAP4 SWAP3 POP POP POP JUMP JUMPDEST PUSH1 0x0 PUSH1 0x20 DUP3 ADD SWAP1 POP PUSH2 0x2FE3 PUSH1 0x0 DUP4 ADD DUP5 PUSH2 0x2AEE JUMP JUMPDEST SWAP3 SWAP2 POP POP JUMP JUMPDEST PUSH1 0x0 DUP1 DUP4 CALLDATALOAD PUSH1 0x1 PUSH1 0x20 SUB DUP5 CALLDATASIZE SUB SUB DUP2 SLT PUSH2 0x3006 JUMPI PUSH2 0x3005 PUSH2 0x35F4 JUMP JUMPDEST JUMPDEST DUP1 DUP5 ADD SWAP3 POP DUP3 CALLDATALOAD SWAP2 POP PUSH8 0xFFFFFFFFFFFFFFFF DUP3 GT ISZERO PUSH2 0x3028 JUMPI PUSH2 0x3027 PUSH2 0x35EF JUMP JUMPDEST JUMPDEST PUSH1 0x20 DUP4 ADD SWAP3 POP PUSH1 0x1 DUP3 MUL CALLDATASIZE SUB DUP4 SGT ISZERO PUSH2 0x3044 JUMPI PUSH2 0x3043 PUSH2 0x3603 JUMP JUMPDEST JUMPDEST POP SWAP3 POP SWAP3 SWAP1 POP JUMP JUMPDEST PUSH1 0x0 PUSH2 0x3056 PUSH2 0x3067 JUMP JUMPDEST SWAP1 POP PUSH2 0x3062 DUP3 DUP3 PUSH2 0x3446 JUMP JUMPDEST SWAP2 SWAP1 POP JUMP JUMPDEST PUSH1 0x0 PUSH1 0x40 MLOAD SWAP1 POP SWAP1 JUMP JUMPDEST PUSH1 0x0 PUSH8 0xFFFFFFFFFFFFFFFF DUP3 GT ISZERO PUSH2 0x308C JUMPI PUSH2 0x308B PUSH2 0x35B1 JUMP JUMPDEST JUMPDEST PUSH1 0x20 DUP3 MUL SWAP1 POP PUSH1 0x20 DUP2 ADD SWAP1 POP SWAP2 SWAP1 POP JUMP JUMPDEST PUSH1 0x0 PUSH8 0xFFFFFFFFFFFFFFFF DUP3 GT ISZERO PUSH2 0x30B8 JUMPI PUSH2 0x30B7 PUSH2 0x35B1 JUMP JUMPDEST JUMPDEST PUSH1 0x20 DUP3 MUL SWAP1 POP PUSH1 0x20 DUP2 ADD SWAP1 POP SWAP2 SWAP1 POP JUMP JUMPDEST PUSH1 0x0 PUSH8 0xFFFFFFFFFFFFFFFF DUP3 GT ISZERO PUSH2 0x30E4 JUMPI PUSH2 0x30E3 PUSH2 0x35B1 JUMP JUMPDEST JUMPDEST PUSH1 0x20 DUP3 MUL SWAP1 POP PUSH1 0x20 DUP2 ADD SWAP1 POP SWAP2 SWAP1 POP JUMP JUMPDEST PUSH1 0x0 PUSH8 0xFFFFFFFFFFFFFFFF DUP3 GT ISZERO PUSH2 0x3110 JUMPI PUSH2 0x310F PUSH2 0x35B1 JUMP JUMPDEST JUMPDEST PUSH2 0x3119 DUP3 PUSH2 0x361C JUMP JUMPDEST SWAP1 POP PUSH1 0x20 DUP2 ADD SWAP1 POP SWAP2 SWAP1 POP JUMP JUMPDEST PUSH1 0x0 DUP2 SWAP1 POP PUSH1 0x20 DUP3 ADD SWAP1 POP SWAP2 SWAP1 POP JUMP JUMPDEST PUSH1 0x0 DUP2 SWAP1 POP SWAP2 SWAP1 POP JUMP JUMPDEST PUSH1 0x0 DUP2 SWAP1 POP DUP2 PUSH1 0x0 MSTORE PUSH1 0x20 PUSH1 0x0 KECCAK256 SWAP1 POP SWAP2 SWAP1 POP JUMP JUMPDEST PUSH1 0x0 DUP2 MLOAD SWAP1 POP SWAP2 SWAP1 POP JUMP JUMPDEST PUSH1 0x0 DUP2 MLOAD SWAP1 POP SWAP2 SWAP1 POP JUMP JUMPDEST PUSH1 0x0 PUSH1 0x20 DUP3 ADD SWAP1 POP SWAP2 SWAP1 POP JUMP JUMPDEST PUSH1 0x0 PUSH1 0x20 DUP3 ADD SWAP1 POP SWAP2 SWAP1 POP JUMP JUMPDEST PUSH1 0x0 DUP3 DUP3 MSTORE PUSH1 0x20 DUP3 ADD SWAP1 POP SWAP3 SWAP2 POP POP JUMP JUMPDEST PUSH1 0x0 DUP3 DUP3 MSTORE PUSH1 0x20 DUP3 ADD SWAP1 POP SWAP3 SWAP2 POP POP JUMP JUMPDEST PUSH1 0x0 DUP3 DUP3 MSTORE PUSH1 0x20 DUP3 ADD SWAP1 POP SWAP3 SWAP2 POP POP JUMP JUMPDEST PUSH1 0x0 DUP3 DUP3 MSTORE PUSH1 0x20 DUP3 ADD SWAP1 POP SWAP3 SWAP2 POP POP JUMP JUMPDEST PUSH1 0x0 DUP2 SWAP1 POP SWAP3 SWAP2 POP POP JUMP JUMPDEST PUSH1 0x0 DUP1 DUP4 CALLDATALOAD PUSH1 0x1 PUSH1 0x20 SUB DUP5 CALLDATASIZE SUB SUB DUP2 SLT PUSH2 0x31F1 JUMPI PUSH2 0x31F0 PUSH2 0x3612 JUMP JUMPDEST JUMPDEST DUP4 DUP2 ADD SWAP3 POP DUP3 CALLDATALOAD SWAP2 POP PUSH1 0x20 DUP4 ADD SWAP3 POP PUSH8 0xFFFFFFFFFFFFFFFF DUP3 GT ISZERO PUSH2 0x3219 JUMPI PUSH2 0x3218 PUSH2 0x35E0 JUMP JUMPDEST JUMPDEST PUSH1 0x1 DUP3 MUL CALLDATASIZE SUB DUP5 SGT ISZERO PUSH2 0x322F JUMPI PUSH2 0x322E PUSH2 0x35F9 JUMP JUMPDEST JUMPDEST POP SWAP3 POP SWAP3 SWAP1 POP JUMP JUMPDEST PUSH1 0x0 PUSH2 0x3242 DUP3 PUSH2 0x338D JUMP JUMPDEST SWAP2 POP PUSH2 0x324D DUP4 PUSH2 0x338D JUMP JUMPDEST SWAP3 POP DUP3 PUSH2 0xFFFF SUB DUP3 GT ISZERO PUSH2 0x3264 JUMPI PUSH2 0x3263 PUSH2 0x3524 JUMP JUMPDEST JUMPDEST DUP3 DUP3 ADD SWAP1 POP SWAP3 SWAP2 POP POP JUMP JUMPDEST PUSH1 0x0 PUSH2 0x327A DUP3 PUSH2 0x33BB JUMP JUMPDEST SWAP2 POP PUSH2 0x3285 DUP4 PUSH2 0x33BB JUMP JUMPDEST SWAP3 POP DUP3 PUSH32 0xFFFFFFFFFFFFFFFFFFFFFFFFFFFFFFFFFFFFFFFFFFFFFFFFFFFFFFFFFFFFFFFF SUB DUP3 GT ISZERO PUSH2 0x32BA JUMPI PUSH2 0x32B9 PUSH2 0x3524 JUMP JUMPDEST JUMPDEST DUP3 DUP3 ADD SWAP1 POP SWAP3 SWAP2 POP POP JUMP JUMPDEST PUSH1 0x0 PUSH2 0x32D0 DUP3 PUSH2 0x33BB JUMP JUMPDEST SWAP2 POP PUSH2 0x32DB DUP4 PUSH2 0x33BB JUMP JUMPDEST SWAP3 POP DUP2 PUSH32 0xFFFFFFFFFFFFFFFFFFFFFFFFFFFFFFFFFFFFFFFFFFFFFFFFFFFFFFFFFFFFFFFF DIV DUP4 GT DUP3 ISZERO ISZERO AND ISZERO PUSH2 0x3314 JUMPI PUSH2 0x3313 PUSH2 0x3524 JUMP JUMPDEST JUMPDEST DUP3 DUP3 MUL SWAP1 POP SWAP3 SWAP2 POP POP JUMP JUMPDEST PUSH1 0x0 PUSH2 0x332A DUP3 PUSH2 0x33BB JUMP JUMPDEST SWAP2 POP PUSH2 0x3335 DUP4 PUSH2 0x33BB JUMP JUMPDEST SWAP3 POP DUP3 DUP3 LT ISZERO PUSH2 0x3348 JUMPI PUSH2 0x3347 PUSH2 0x3524 JUMP JUMPDEST JUMPDEST DUP3 DUP3 SUB SWAP1 POP SWAP3 SWAP2 POP POP JUMP JUMPDEST PUSH1 0x0 PUSH2 0x335E DUP3 PUSH2 0x339B JUMP JUMPDEST SWAP1 POP SWAP2 SWAP1 POP JUMP JUMPDEST PUSH1 0x0 DUP2 ISZERO ISZERO SWAP1 POP SWAP2 SWAP1 POP JUMP JUMPDEST PUSH1 0x0 PUSH16 0xFFFFFFFFFFFFFFFFFFFFFFFFFFFFFFFF DUP3 AND SWAP1 POP SWAP2 SWAP1 POP JUMP JUMPDEST PUSH1 0x0 PUSH2 0xFFFF DUP3 AND SWAP1 POP SWAP2 SWAP1 POP JUMP JUMPDEST PUSH1 0x0 PUSH20 0xFFFFFFFFFFFFFFFFFFFFFFFFFFFFFFFFFFFFFFFF DUP3 AND SWAP1 POP SWAP2 SWAP1 POP JUMP JUMPDEST PUSH1 0x0 DUP2 SWAP1 POP SWAP2 SWAP1 POP JUMP JUMPDEST PUSH1 0x0 PUSH1 0xFF DUP3 AND SWAP1 POP SWAP2 SWAP1 POP JUMP JUMPDEST DUP3 DUP2 DUP4 CALLDATACOPY PUSH1 0x0 DUP4 DUP4 ADD MSTORE POP POP POP JUMP JUMPDEST PUSH1 0x0 JUMPDEST DUP4 DUP2 LT ISZERO PUSH2 0x33FF JUMPI DUP1 DUP3 ADD MLOAD DUP2 DUP5 ADD MSTORE PUSH1 0x20 DUP2 ADD SWAP1 POP PUSH2 0x33E4 JUMP JUMPDEST DUP4 DUP2 GT ISZERO PUSH2 0x340E JUMPI PUSH1 0x0 DUP5 DUP5 ADD MSTORE JUMPDEST POP POP POP POP JUMP JUMPDEST PUSH1 0x0 PUSH1 0x2 DUP3 DIV SWAP1 POP PUSH1 0x1 DUP3 AND DUP1 PUSH2 0x342C JUMPI PUSH1 0x7F DUP3 AND SWAP2 POP JUMPDEST PUSH1 0x20 DUP3 LT DUP2 EQ ISZERO PUSH2 0x3440 JUMPI PUSH2 0x343F PUSH2 0x3553 JUMP JUMPDEST JUMPDEST POP SWAP2 SWAP1 POP JUMP JUMPDEST PUSH2 0x344F DUP3 PUSH2 0x361C JUMP JUMPDEST DUP2 ADD DUP2 DUP2 LT PUSH8 0xFFFFFFFFFFFFFFFF DUP3 GT OR ISZERO PUSH2 0x346E JUMPI PUSH2 0x346D PUSH2 0x35B1 JUMP JUMPDEST JUMPDEST DUP1 PUSH1 0x40 MSTORE POP POP POP JUMP JUMPDEST PUSH1 0x0 PUSH2 0x3482 DUP3 PUSH2 0x3371 JUMP JUMPDEST SWAP2 POP PUSH16 0xFFFFFFFFFFFFFFFFFFFFFFFFFFFFFFFF DUP3 EQ ISZERO PUSH2 0x34A5 JUMPI PUSH2 0x34A4 PUSH2 0x3524 JUMP JUMPDEST JUMPDEST PUSH1 0x1 DUP3 ADD SWAP1 POP SWAP2 SWAP1 POP JUMP JUMPDEST PUSH1 0x0 PUSH2 0x34BB DUP3 PUSH2 0x338D JUMP JUMPDEST SWAP2 POP PUSH2 0xFFFF DUP3 EQ ISZERO PUSH2 0x34D0 JUMPI PUSH2 0x34CF PUSH2 0x3524 JUMP JUMPDEST JUMPDEST PUSH1 0x1 DUP3 ADD SWAP1 POP SWAP2 SWAP1 POP JUMP JUMPDEST PUSH1 0x0 PUSH2 0x34E6 DUP3 PUSH2 0x33BB JUMP JUMPDEST SWAP2 POP PUSH32 0xFFFFFFFFFFFFFFFFFFFFFFFFFFFFFFFFFFFFFFFFFFFFFFFFFFFFFFFFFFFFFFFF DUP3 EQ ISZERO PUSH2 0x3519 JUMPI PUSH2 0x3518 PUSH2 0x3524 JUMP JUMPDEST JUMPDEST PUSH1 0x1 DUP3 ADD SWAP1 POP SWAP2 SWAP1 POP JUMP JUMPDEST PUSH32 0x4E487B7100000000000000000000000000000000000000000000000000000000 PUSH1 0x0 MSTORE PUSH1 0x11 PUSH1 0x4 MSTORE PUSH1 0x24 PUSH1 0x0 REVERT JUMPDEST PUSH32 0x4E487B7100000000000000000000000000000000000000000000000000000000 PUSH1 0x0 MSTORE PUSH1 0x22 PUSH1 0x4 MSTORE PUSH1 0x24 PUSH1 0x0 REVERT JUMPDEST PUSH32 0x4E487B7100000000000000000000000000000000000000000000000000000000 PUSH1 0x0 MSTORE PUSH1 0x32 PUSH1 0x4 MSTORE PUSH1 0x24 PUSH1 0x0 REVERT JUMPDEST PUSH32 0x4E487B7100000000000000000000000000000000000000000000000000000000 PUSH1 0x0 MSTORE PUSH1 0x41 PUSH1 0x4 MSTORE PUSH1 0x24 PUSH1 0x0 REVERT JUMPDEST PUSH1 0x0 DUP1 REVERT JUMPDEST PUSH1 0x0 DUP1 REVERT JUMPDEST PUSH1 0x0 DUP1 REVERT JUMPDEST PUSH1 0x0 DUP1 REVERT JUMPDEST PUSH1 0x0 DUP1 REVERT JUMPDEST PUSH1 0x0 DUP1 REVERT JUMPDEST PUSH1 0x0 DUP1 REVERT JUMPDEST PUSH1 0x0 DUP1 REVERT JUMPDEST PUSH1 0x0 DUP1 REVERT JUMPDEST PUSH1 0x0 DUP1 REVERT JUMPDEST PUSH1 0x0 DUP1 REVERT JUMPDEST PUSH1 0x0 DUP1 REVERT JUMPDEST PUSH1 0x0 PUSH1 0x1F NOT PUSH1 0x1F DUP4 ADD AND SWAP1 POP SWAP2 SWAP1 POP JUMP JUMPDEST PUSH32 0x50726F706F73616C3A20696E6163746976650000000000000000000000000000 PUSH1 0x0 DUP3 ADD MSTORE POP JUMP JUMPDEST PUSH32 0x456E642074696D652073686F756C642062652067726561746572207468616E20 PUSH1 0x0 DUP3 ADD MSTORE PUSH32 0x63757272656E742074696D650000000000000000000000000000000000000000 PUSH1 0x20 DUP3 ADD MSTORE POP JUMP JUMPDEST PUSH32 0x45524332303A206275726E20616D6F756E7420657863656564732062616C616E PUSH1 0x0 DUP3 ADD MSTORE PUSH32 0x6365000000000000000000000000000000000000000000000000000000000000 PUSH1 0x20 DUP3 ADD MSTORE POP JUMP JUMPDEST PUSH32 0x616C726561647920766F74656400000000000000000000000000000000000000 PUSH1 0x0 DUP3 ADD MSTORE POP JUMP JUMPDEST PUSH32 0x50726F706F73616C3A20696E76616C69642063616E6469646174650000000000 PUSH1 0x0 DUP3 ADD MSTORE POP JUMP JUMPDEST PUSH32 0x6E6F7420612076616C69642070726F706F73616C000000000000000000000000 PUSH1 0x0 DUP3 ADD MSTORE POP JUMP JUMPDEST PUSH32 0x6E6F7420612076616C696420766F74657220666F7220746869732070726F706F PUSH1 0x0 DUP3 ADD MSTORE PUSH32 0x73616C0000000000000000000000000000000000000000000000000000000000 PUSH1 0x20 DUP3 ADD MSTORE POP JUMP JUMPDEST PUSH32 0x70726F706F73616C206E6F742073746172746564000000000000000000000000 PUSH1 0x0 DUP3 ADD MSTORE POP JUMP JUMPDEST PUSH32 0x4E6F7420612076616C696420766F74657220666F7220746869732070726F706F PUSH1 0x0 DUP3 ADD MSTORE PUSH32 0x73616C0000000000000000000000000000000000000000000000000000000000 PUSH1 0x20 DUP3 ADD MSTORE POP JUMP JUMPDEST PUSH32 0x696E76616C69642070726F706F73616C49640000000000000000000000000000 PUSH1 0x0 DUP3 ADD MSTORE POP JUMP JUMPDEST PUSH32 0x6E6F742073756666696369656E742062616C616E636520746F20636173742076 PUSH1 0x0 DUP3 ADD MSTORE PUSH32 0x6F74650000000000000000000000000000000000000000000000000000000000 PUSH1 0x20 DUP3 ADD MSTORE POP JUMP JUMPDEST PUSH32 0x456E642074696D652073686F756C642062652067726561746572207468616E20 PUSH1 0x0 DUP3 ADD MSTORE PUSH32 0x73746172742074696D6500000000000000000000000000000000000000000000 PUSH1 0x20 DUP3 ADD MSTORE POP JUMP JUMPDEST PUSH32 0x45524332303A206275726E2066726F6D20746865207A65726F20616464726573 PUSH1 0x0 DUP3 ADD MSTORE PUSH32 0x7300000000000000000000000000000000000000000000000000000000000000 PUSH1 0x20 DUP3 ADD MSTORE POP JUMP JUMPDEST PUSH32 0x6E6F7420612076616C6964206C656E677468206F66206861736820726573706F PUSH1 0x0 DUP3 ADD MSTORE PUSH32 0x6E73652100000000000000000000000000000000000000000000000000000000 PUSH1 0x20 DUP3 ADD MSTORE POP JUMP JUMPDEST PUSH32 0x6D696E7400000000000000000000000000000000000000000000000000000000 PUSH1 0x0 DUP3 ADD MSTORE POP JUMP JUMPDEST PUSH32 0x496E76616C696420766F74657220666F722070726F706F73616C496421000000 PUSH1 0x0 DUP3 ADD MSTORE POP JUMP JUMPDEST PUSH32 0x6275726E00000000000000000000000000000000000000000000000000000000 PUSH1 0x0 DUP3 ADD MSTORE POP JUMP JUMPDEST PUSH32 0x6E6F7420766F7465640000000000000000000000000000000000000000000000 PUSH1 0x0 DUP3 ADD MSTORE POP JUMP JUMPDEST PUSH32 0x45524332303A206D696E7420746F20746865207A65726F206164647265737300 PUSH1 0x0 DUP3 ADD MSTORE POP JUMP JUMPDEST PUSH2 0x3A71 DUP2 PUSH2 0x3353 JUMP JUMPDEST DUP2 EQ PUSH2 0x3A7C JUMPI PUSH1 0x0 DUP1 REVERT JUMPDEST POP JUMP JUMPDEST PUSH2 0x3A88 DUP2 PUSH2 0x33BB JUMP JUMPDEST DUP2 EQ PUSH2 0x3A93 JUMPI PUSH1 0x0 DUP1 REVERT JUMPDEST POP JUMP JUMPDEST PUSH2 0x3A9F DUP2 PUSH2 0x33C5 JUMP JUMPDEST DUP2 EQ PUSH2 0x3AAA JUMPI PUSH1 0x0 DUP1 REVERT JUMPDEST POP JUMP INVALID LOG2 PUSH5 0x6970667358 0x22 SLT KECCAK256 0xFC PUSH27 0xC168F57B0E3C8E383A8C86D4C6F767C8DFD62AAFC20E98F770F4EE 0xA8 0xEC 0x5E PUSH5 0x736F6C6343 STOP ADDMOD SMOD STOP CALLER "
				},
				"gasEstimates": {
					"creation": {
						"codeDepositCost": "3015000",
						"executionCost": "infinite",
						"totalCost": "infinite"
					},
					"external": {
						"allVoters(address,uint256)": "infinite",
						"balanceOf(address)": "2841",
						"createProposal(uint8,address[],address,uint256,uint256,string,string[],uint256)": "infinite",
						"decimals()": "410",
						"mintOwner(uint256,address[],uint256)": "infinite",
						"name()": "infinite",
						"proposals(uint256)": "infinite",
						"responseProposal(uint256,address,string[],uint256[])": "infinite",
						"resultOfProposal(uint256)": "infinite",
						"symbol()": "infinite",
						"totalSupply()": "2482",
						"userProposal(address)": "infinite"
					}
				},
				"methodIdentifiers": {
					"allVoters(address,uint256)": "ab9c70d4",
					"balanceOf(address)": "70a08231",
					"createProposal(uint8,address[],address,uint256,uint256,string,string[],uint256)": "4de77e48",
					"decimals()": "313ce567",
					"mintOwner(uint256,address[],uint256)": "93d336aa",
					"name()": "06fdde03",
					"proposals(uint256)": "013cf08b",
					"responseProposal(uint256,address,string[],uint256[])": "5c230eee",
					"resultOfProposal(uint256)": "9d671564",
					"symbol()": "95d89b41",
					"totalSupply()": "18160ddd",
					"userProposal(address)": "e745d68e"
				}
			},
			"storageLayout": {
				"storage": [
					{
						"astId": 627,
						"contract": "Qvoting.sol:Qvoting",
						"label": "_balances",
						"offset": 0,
						"slot": "0",
						"type": "t_mapping(t_address,t_uint256)"
					},
					{
						"astId": 629,
						"contract": "Qvoting.sol:Qvoting",
						"label": "_totalSupply",
						"offset": 0,
						"slot": "1",
						"type": "t_uint256"
					},
					{
						"astId": 631,
						"contract": "Qvoting.sol:Qvoting",
						"label": "_name",
						"offset": 0,
						"slot": "2",
						"type": "t_string_storage"
					},
					{
						"astId": 633,
						"contract": "Qvoting.sol:Qvoting",
						"label": "_symbol",
						"offset": 0,
						"slot": "3",
						"type": "t_string_storage"
					},
					{
						"astId": 847,
						"contract": "Qvoting.sol:Qvoting",
						"label": "owner",
						"offset": 0,
						"slot": "4",
						"type": "t_address"
					},
					{
						"astId": 936,
						"contract": "Qvoting.sol:Qvoting",
						"label": "proposalId",
						"offset": 0,
						"slot": "5",
						"type": "t_uint256"
					},
					{
						"astId": 941,
						"contract": "Qvoting.sol:Qvoting",
						"label": "userProposal",
						"offset": 0,
						"slot": "6",
						"type": "t_mapping(t_address,t_struct(UserProposal)409_storage)"
					},
					{
						"astId": 946,
						"contract": "Qvoting.sol:Qvoting",
						"label": "proposals",
						"offset": 0,
						"slot": "7",
						"type": "t_mapping(t_uint256,t_struct(proposal)66_storage)"
					},
					{
						"astId": 953,
						"contract": "Qvoting.sol:Qvoting",
						"label": "allVoters",
						"offset": 0,
						"slot": "8",
						"type": "t_mapping(t_address,t_mapping(t_uint256,t_struct(voter)513_storage))"
					},
					{
						"astId": 957,
						"contract": "Qvoting.sol:Qvoting",
						"label": "validProposals",
						"offset": 0,
						"slot": "9",
						"type": "t_mapping(t_uint256,t_bool)"
					}
				],
				"types": {
					"t_address": {
						"encoding": "inplace",
						"label": "address",
						"numberOfBytes": "20"
					},
					"t_bool": {
						"encoding": "inplace",
						"label": "bool",
						"numberOfBytes": "1"
					},
					"t_mapping(t_address,t_bool)": {
						"encoding": "mapping",
						"key": "t_address",
						"label": "mapping(address => bool)",
						"numberOfBytes": "32",
						"value": "t_bool"
					},
					"t_mapping(t_address,t_mapping(t_uint256,t_struct(voter)513_storage))": {
						"encoding": "mapping",
						"key": "t_address",
						"label": "mapping(address => mapping(uint256 => struct voterLibrary.voter))",
						"numberOfBytes": "32",
						"value": "t_mapping(t_uint256,t_struct(voter)513_storage)"
					},
					"t_mapping(t_address,t_struct(UserProposal)409_storage)": {
						"encoding": "mapping",
						"key": "t_address",
						"label": "mapping(address => struct UserProposalLibrary.UserProposal)",
						"numberOfBytes": "32",
						"value": "t_struct(UserProposal)409_storage"
					},
					"t_mapping(t_address,t_uint256)": {
						"encoding": "mapping",
						"key": "t_address",
						"label": "mapping(address => uint256)",
						"numberOfBytes": "32",
						"value": "t_uint256"
					},
					"t_mapping(t_string_memory_ptr,t_bool)": {
						"encoding": "mapping",
						"key": "t_string_memory_ptr",
						"label": "mapping(string => bool)",
						"numberOfBytes": "32",
						"value": "t_bool"
					},
					"t_mapping(t_string_memory_ptr,t_uint256)": {
						"encoding": "mapping",
						"key": "t_string_memory_ptr",
						"label": "mapping(string => uint256)",
						"numberOfBytes": "32",
						"value": "t_uint256"
					},
					"t_mapping(t_uint128,t_uint256)": {
						"encoding": "mapping",
						"key": "t_uint128",
						"label": "mapping(uint128 => uint256)",
						"numberOfBytes": "32",
						"value": "t_uint256"
					},
					"t_mapping(t_uint256,t_bool)": {
						"encoding": "mapping",
						"key": "t_uint256",
						"label": "mapping(uint256 => bool)",
						"numberOfBytes": "32",
						"value": "t_bool"
					},
					"t_mapping(t_uint256,t_mapping(t_uint256,t_string_storage))": {
						"encoding": "mapping",
						"key": "t_uint256",
						"label": "mapping(uint256 => mapping(uint256 => string))",
						"numberOfBytes": "32",
						"value": "t_mapping(t_uint256,t_string_storage)"
					},
					"t_mapping(t_uint256,t_string_storage)": {
						"encoding": "mapping",
						"key": "t_uint256",
						"label": "mapping(uint256 => string)",
						"numberOfBytes": "32",
						"value": "t_string_storage"
					},
					"t_mapping(t_uint256,t_struct(proposal)66_storage)": {
						"encoding": "mapping",
						"key": "t_uint256",
						"label": "mapping(uint256 => struct proposalLibrary.proposal)",
						"numberOfBytes": "32",
						"value": "t_struct(proposal)66_storage"
					},
					"t_mapping(t_uint256,t_struct(voter)513_storage)": {
						"encoding": "mapping",
						"key": "t_uint256",
						"label": "mapping(uint256 => struct voterLibrary.voter)",
						"numberOfBytes": "32",
						"value": "t_struct(voter)513_storage"
					},
					"t_string_memory_ptr": {
						"encoding": "bytes",
						"label": "string",
						"numberOfBytes": "32"
					},
					"t_string_storage": {
						"encoding": "bytes",
						"label": "string",
						"numberOfBytes": "32"
					},
					"t_struct(UserProposal)409_storage": {
						"encoding": "inplace",
						"label": "struct UserProposalLibrary.UserProposal",
						"members": [
							{
								"astId": 388,
								"contract": "Qvoting.sol:Qvoting",
								"label": "proposalCount",
								"offset": 0,
								"slot": "0",
								"type": "t_uint128"
							},
							{
								"astId": 390,
								"contract": "Qvoting.sol:Qvoting",
								"label": "responseCount",
								"offset": 16,
								"slot": "0",
								"type": "t_uint128"
							},
							{
								"astId": 394,
								"contract": "Qvoting.sol:Qvoting",
								"label": "proposalCreated",
								"offset": 0,
								"slot": "1",
								"type": "t_mapping(t_uint128,t_uint256)"
							},
							{
								"astId": 398,
								"contract": "Qvoting.sol:Qvoting",
								"label": "proposalResponsed",
								"offset": 0,
								"slot": "2",
								"type": "t_mapping(t_uint128,t_uint256)"
							},
							{
								"astId": 404,
								"contract": "Qvoting.sol:Qvoting",
								"label": "proposalAnswer",
								"offset": 0,
								"slot": "3",
								"type": "t_mapping(t_uint256,t_mapping(t_uint256,t_string_storage))"
							},
							{
								"astId": 408,
								"contract": "Qvoting.sol:Qvoting",
								"label": "responsedProposal",
								"offset": 0,
								"slot": "4",
								"type": "t_mapping(t_uint256,t_bool)"
							}
						],
						"numberOfBytes": "160"
					},
					"t_struct(proposal)66_storage": {
						"encoding": "inplace",
						"label": "struct proposalLibrary.proposal",
						"members": [
							{
								"astId": 33,
								"contract": "Qvoting.sol:Qvoting",
								"label": "creator",
								"offset": 0,
								"slot": "0",
								"type": "t_address"
							},
							{
								"astId": 35,
								"contract": "Qvoting.sol:Qvoting",
								"label": "status",
								"offset": 20,
								"slot": "0",
								"type": "t_uint8"
							},
							{
								"astId": 37,
								"contract": "Qvoting.sol:Qvoting",
								"label": "disc",
								"offset": 0,
								"slot": "1",
								"type": "t_string_storage"
							},
							{
								"astId": 39,
								"contract": "Qvoting.sol:Qvoting",
								"label": "startTime",
								"offset": 0,
								"slot": "2",
								"type": "t_uint256"
							},
							{
								"astId": 41,
								"contract": "Qvoting.sol:Qvoting",
								"label": "expirationTime",
								"offset": 0,
								"slot": "3",
								"type": "t_uint256"
							},
							{
								"astId": 43,
								"contract": "Qvoting.sol:Qvoting",
								"label": "numOfOptions",
								"offset": 0,
								"slot": "4",
								"type": "t_uint16"
							},
							{
								"astId": 45,
								"contract": "Qvoting.sol:Qvoting",
								"label": "voteRight",
								"offset": 0,
								"slot": "5",
								"type": "t_uint256"
							},
							{
								"astId": 49,
								"contract": "Qvoting.sol:Qvoting",
								"label": "voters",
								"offset": 0,
								"slot": "6",
								"type": "t_mapping(t_address,t_bool)"
							},
							{
								"astId": 53,
								"contract": "Qvoting.sol:Qvoting",
								"label": "cand",
								"offset": 0,
								"slot": "7",
								"type": "t_mapping(t_string_memory_ptr,t_bool)"
							},
							{
								"astId": 57,
								"contract": "Qvoting.sol:Qvoting",
								"label": "candHash",
								"offset": 0,
								"slot": "8",
								"type": "t_mapping(t_uint256,t_string_storage)"
							},
							{
								"astId": 61,
								"contract": "Qvoting.sol:Qvoting",
								"label": "result",
								"offset": 0,
								"slot": "9",
								"type": "t_mapping(t_uint256,t_string_storage)"
							},
							{
								"astId": 65,
								"contract": "Qvoting.sol:Qvoting",
								"label": "votes",
								"offset": 0,
								"slot": "10",
								"type": "t_mapping(t_string_memory_ptr,t_uint256)"
							}
						],
						"numberOfBytes": "352"
					},
					"t_struct(voter)513_storage": {
						"encoding": "inplace",
						"label": "struct voterLibrary.voter",
						"members": [
							{
								"astId": 506,
								"contract": "Qvoting.sol:Qvoting",
								"label": "proposalId",
								"offset": 0,
								"slot": "0",
								"type": "t_uint256"
							},
							{
								"astId": 508,
								"contract": "Qvoting.sol:Qvoting",
								"label": "voterAddress",
								"offset": 0,
								"slot": "1",
								"type": "t_address"
							},
							{
								"astId": 510,
								"contract": "Qvoting.sol:Qvoting",
								"label": "hasVoted",
								"offset": 20,
								"slot": "1",
								"type": "t_bool"
							},
							{
								"astId": 512,
								"contract": "Qvoting.sol:Qvoting",
								"label": "voteNum",
								"offset": 0,
								"slot": "2",
								"type": "t_uint256"
							}
						],
						"numberOfBytes": "96"
					},
					"t_uint128": {
						"encoding": "inplace",
						"label": "uint128",
						"numberOfBytes": "16"
					},
					"t_uint16": {
						"encoding": "inplace",
						"label": "uint16",
						"numberOfBytes": "2"
					},
					"t_uint256": {
						"encoding": "inplace",
						"label": "uint256",
						"numberOfBytes": "32"
					},
					"t_uint8": {
						"encoding": "inplace",
						"label": "uint8",
						"numberOfBytes": "1"
					}
				}
			},
			"userdoc": {
				"kind": "user",
				"methods": {},
				"version": 1
			}
		}
	}
}