{
	"Qvoting.sol": {
		"Qvoting": {
			"abi": [
				{
					"anonymous": false,
					"inputs": [
						{
							"indexed": false,
							"internalType": "uint256",
							"name": "proposalId",
							"type": "uint256"
						},
						{
							"indexed": false,
							"internalType": "address[]",
							"name": "voters",
							"type": "address[]"
						},
						{
							"indexed": false,
							"internalType": "address",
							"name": "creator",
							"type": "address"
						},
						{
							"indexed": false,
							"internalType": "uint256",
							"name": "startTime",
							"type": "uint256"
						},
						{
							"indexed": false,
							"internalType": "uint256",
							"name": "expirationTime",
							"type": "uint256"
						},
						{
							"indexed": false,
							"internalType": "string",
							"name": "description",
							"type": "string"
						},
						{
							"indexed": false,
							"internalType": "string[]",
							"name": "_cand",
							"type": "string[]"
						}
					],
					"name": "ProposalCreated",
					"type": "event"
				},
				{
					"anonymous": false,
					"inputs": [
						{
							"indexed": false,
							"internalType": "address",
							"name": "voter",
							"type": "address"
						},
						{
							"indexed": false,
							"internalType": "uint256",
							"name": "ProposalID",
							"type": "uint256"
						},
						{
							"indexed": false,
							"internalType": "uint256[]",
							"name": "_tokens",
							"type": "uint256[]"
						}
					],
					"name": "VoteCasted",
					"type": "event"
				},
				{
					"anonymous": false,
					"inputs": [
						{
							"indexed": false,
							"internalType": "string",
							"name": "mintAndburn",
							"type": "string"
						},
						{
							"indexed": false,
							"internalType": "address",
							"name": "account",
							"type": "address"
						},
						{
							"indexed": false,
							"internalType": "uint256",
							"name": "amount",
							"type": "uint256"
						}
					],
					"name": "mintAndburn",
					"type": "event"
				},
				{
					"inputs": [
						{
							"internalType": "address",
							"name": "",
							"type": "address"
						},
						{
							"internalType": "uint256",
							"name": "",
							"type": "uint256"
						}
					],
					"name": "allVoters",
					"outputs": [
						{
							"internalType": "uint256",
							"name": "proposalId",
							"type": "uint256"
						},
						{
							"internalType": "address",
							"name": "voterAddress",
							"type": "address"
						},
						{
							"internalType": "bool",
							"name": "hasVoted",
							"type": "bool"
						},
						{
							"internalType": "uint256",
							"name": "voteNum",
							"type": "uint256"
						}
					],
					"stateMutability": "view",
					"type": "function"
				},
				{
					"inputs": [
						{
							"internalType": "address",
							"name": "account",
							"type": "address"
						}
					],
					"name": "balanceOf",
					"outputs": [
						{
							"internalType": "uint256",
							"name": "",
							"type": "uint256"
						}
					],
					"stateMutability": "view",
					"type": "function"
				},
				{
					"inputs": [
						{
							"internalType": "uint256",
							"name": "_proposalId",
							"type": "uint256"
						},
						{
							"internalType": "address[]",
							"name": "_voters",
							"type": "address[]"
						}
					],
					"name": "burnOwner",
					"outputs": [
						{
							"internalType": "bool",
							"name": "",
							"type": "bool"
						}
					],
					"stateMutability": "nonpayable",
					"type": "function"
				},
				{
					"inputs": [
						{
							"internalType": "uint8",
							"name": "_status",
							"type": "uint8"
						},
						{
							"internalType": "address[]",
							"name": "_voters",
							"type": "address[]"
						},
						{
							"internalType": "address",
							"name": "_creator",
							"type": "address"
						},
						{
							"internalType": "uint256",
							"name": "_startTime",
							"type": "uint256"
						},
						{
							"internalType": "uint256",
							"name": "_expirationTime",
							"type": "uint256"
						},
						{
							"internalType": "string",
							"name": "_disc",
							"type": "string"
						},
						{
							"internalType": "string[]",
							"name": "_cand",
							"type": "string[]"
						},
						{
							"internalType": "uint256",
							"name": "_voteRight",
							"type": "uint256"
						}
					],
					"name": "createProposal",
					"outputs": [],
					"stateMutability": "nonpayable",
					"type": "function"
				},
				{
					"inputs": [],
					"name": "decimals",
					"outputs": [
						{
							"internalType": "uint8",
							"name": "",
							"type": "uint8"
						}
					],
					"stateMutability": "view",
					"type": "function"
				},
				{
					"inputs": [],
					"name": "name",
					"outputs": [
						{
							"internalType": "string",
							"name": "",
							"type": "string"
						}
					],
					"stateMutability": "view",
					"type": "function"
				},
				{
					"inputs": [
						{
							"internalType": "uint256",
							"name": "",
							"type": "uint256"
						}
					],
					"name": "proposals",
					"outputs": [
						{
							"internalType": "address",
							"name": "creator",
							"type": "address"
						},
						{
							"internalType": "uint8",
							"name": "status",
							"type": "uint8"
						},
						{
							"internalType": "string",
							"name": "disc",
							"type": "string"
						},
						{
							"internalType": "uint256",
							"name": "startTime",
							"type": "uint256"
						},
						{
							"internalType": "uint256",
							"name": "expirationTime",
							"type": "uint256"
						},
						{
							"internalType": "uint16",
							"name": "numOfOptions",
							"type": "uint16"
						},
						{
							"internalType": "uint256",
							"name": "voteRight",
							"type": "uint256"
						}
					],
					"stateMutability": "view",
					"type": "function"
				},
				{
					"inputs": [
						{
							"internalType": "uint256",
							"name": "_proposalId",
							"type": "uint256"
						},
						{
							"internalType": "address",
							"name": "_voter",
							"type": "address"
						},
						{
							"internalType": "string[]",
							"name": "_hash",
							"type": "string[]"
						},
						{
							"internalType": "uint256[]",
							"name": "v",
							"type": "uint256[]"
						}
					],
					"name": "responseProposal",
					"outputs": [],
					"stateMutability": "nonpayable",
					"type": "function"
				},
				{
					"inputs": [
						{
							"internalType": "uint256",
							"name": "_proposalId",
							"type": "uint256"
						}
					],
					"name": "resultOfProposal",
					"outputs": [
						{
							"internalType": "uint256",
							"name": "",
							"type": "uint256"
						},
						{
							"internalType": "string",
							"name": "",
							"type": "string"
						}
					],
					"stateMutability": "view",
					"type": "function"
				},
				{
					"inputs": [],
					"name": "symbol",
					"outputs": [
						{
							"internalType": "string",
							"name": "",
							"type": "string"
						}
					],
					"stateMutability": "view",
					"type": "function"
				},
				{
					"inputs": [],
					"name": "totalSupply",
					"outputs": [
						{
							"internalType": "uint256",
							"name": "",
							"type": "uint256"
						}
					],
					"stateMutability": "view",
					"type": "function"
				},
				{
					"inputs": [
						{
							"internalType": "address",
							"name": "",
							"type": "address"
						}
					],
					"name": "userProposal",
					"outputs": [
						{
							"internalType": "uint128",
							"name": "proposalCount",
							"type": "uint128"
						},
						{
							"internalType": "uint128",
							"name": "responseCount",
							"type": "uint128"
						}
					],
					"stateMutability": "view",
					"type": "function"
				}
			],
			"devdoc": {
				"kind": "dev",
				"methods": {
					"balanceOf(address)": {
						"details": "See {IERC20-balanceOf}."
					},
					"decimals()": {
						"details": "Returns the number of decimals used to get its user representation. For example, if `decimals` equals `2`, a balance of `505` tokens should be displayed to a user as `5.05` (`505 / 10 ** 2`). Tokens usually opt for a value of 18, imitating the relationship between Ether and Wei. This is the value {ERC20} uses, unless this function is overridden; NOTE: This information is only used for _display_ purposes: it in no way affects any of the arithmetic of the contract, including {IERC20-balanceOf} and {IERC20-transfer}."
					},
					"name()": {
						"details": "Returns the name of the token."
					},
					"symbol()": {
						"details": "Returns the symbol of the token, usually a shorter version of the name."
					},
					"totalSupply()": {
						"details": "See {IERC20-totalSupply}."
					}
				},
				"version": 1
			},
			"evm": {
				"assembly": "    /* \"Qvoting.sol\":481:6282  contract Qvoting is proposalEvents, QVtoken{\r... */\n  mstore(0x40, 0x80)\n  callvalue\n  dup1\n  iszero\n  tag_1\n  jumpi\n  0x00\n  dup1\n  revert\ntag_1:\n  pop\n    /* \"QvToken/ERC20.sol\":2016:2132  constructor(string memory name_, string memory symbol_) {\r... */\n  mload(0x40)\n  dup1\n  0x40\n  add\n  0x40\n  mstore\n  dup1\n  0x0c\n  dup2\n  mstore\n  0x20\n  add\n  0x51566f74696e67546f6b656e0000000000000000000000000000000000000000\n  dup2\n  mstore\n  pop\n  mload(0x40)\n  dup1\n  0x40\n  add\n  0x40\n  mstore\n  dup1\n  0x02\n  dup2\n  mstore\n  0x20\n  add\n  0x5176000000000000000000000000000000000000000000000000000000000000\n  dup2\n  mstore\n  pop\n    /* \"QvToken/ERC20.sol\":2091:2096  name_ */\n  dup2\n    /* \"QvToken/ERC20.sol\":2083:2088  _name */\n  0x02\n    /* \"QvToken/ERC20.sol\":2083:2096  _name = name_ */\n  swap1\n  dup1\n  mload\n  swap1\n  0x20\n  add\n  swap1\n  tag_5\n  swap3\n  swap2\n  swap1\n  tag_6\n  jump\t// in\ntag_5:\n  pop\n    /* \"QvToken/ERC20.sol\":2117:2124  symbol_ */\n  dup1\n    /* \"QvToken/ERC20.sol\":2107:2114  _symbol */\n  0x03\n    /* \"QvToken/ERC20.sol\":2107:2124  _symbol = symbol_ */\n  swap1\n  dup1\n  mload\n  swap1\n  0x20\n  add\n  swap1\n  tag_7\n  swap3\n  swap2\n  swap1\n  tag_6\n  jump\t// in\ntag_7:\n  pop\n    /* \"QvToken/ERC20.sol\":2016:2132  constructor(string memory name_, string memory symbol_) {\r... */\n  pop\n  pop\n    /* \"QvToken/QvToken.sol\":280:290  msg.sender */\n  caller\n    /* \"QvToken/QvToken.sol\":272:277  owner */\n  0x04\n  0x00\n    /* \"QvToken/QvToken.sol\":272:290  owner = msg.sender */\n  0x0100\n  exp\n  dup2\n  sload\n  dup2\n  0xffffffffffffffffffffffffffffffffffffffff\n  mul\n  not\n  and\n  swap1\n  dup4\n  0xffffffffffffffffffffffffffffffffffffffff\n  and\n  mul\n  or\n  swap1\n  sstore\n  pop\n    /* \"Qvoting.sol\":481:6282  contract Qvoting is proposalEvents, QVtoken{\r... */\n  jump(tag_9)\ntag_6:\n  dup3\n  dup1\n  sload\n  tag_10\n  swap1\n  tag_11\n  jump\t// in\ntag_10:\n  swap1\n  0x00\n  mstore\n  keccak256(0x00, 0x20)\n  swap1\n  0x1f\n  add\n  0x20\n  swap1\n  div\n  dup2\n  add\n  swap3\n  dup3\n  tag_13\n  jumpi\n  0x00\n  dup6\n  sstore\n  jump(tag_12)\ntag_13:\n  dup3\n  0x1f\n  lt\n  tag_14\n  jumpi\n  dup1\n  mload\n  not(0xff)\n  and\n  dup4\n  dup1\n  add\n  or\n  dup6\n  sstore\n  jump(tag_12)\ntag_14:\n  dup3\n  dup1\n  add\n  0x01\n  add\n  dup6\n  sstore\n  dup3\n  iszero\n  tag_12\n  jumpi\n  swap2\n  dup3\n  add\ntag_15:\n  dup3\n  dup2\n  gt\n  iszero\n  tag_16\n  jumpi\n  dup3\n  mload\n  dup3\n  sstore\n  swap2\n  0x20\n  add\n  swap2\n  swap1\n  0x01\n  add\n  swap1\n  jump(tag_15)\ntag_16:\ntag_12:\n  pop\n  swap1\n  pop\n  tag_17\n  swap2\n  swap1\n  tag_18\n  jump\t// in\ntag_17:\n  pop\n  swap1\n  jump\t// out\ntag_18:\ntag_19:\n  dup1\n  dup3\n  gt\n  iszero\n  tag_20\n  jumpi\n  0x00\n  dup2\n  0x00\n  swap1\n  sstore\n  pop\n  0x01\n  add\n  jump(tag_19)\ntag_20:\n  pop\n  swap1\n  jump\t// out\n    /* \"#utility.yul\":7:327   */\ntag_11:\n    /* \"#utility.yul\":51:57   */\n  0x00\n    /* \"#utility.yul\":88:89   */\n  0x02\n    /* \"#utility.yul\":82:86   */\n  dup3\n    /* \"#utility.yul\":78:90   */\n  div\n    /* \"#utility.yul\":68:90   */\n  swap1\n  pop\n    /* \"#utility.yul\":135:136   */\n  0x01\n    /* \"#utility.yul\":129:133   */\n  dup3\n    /* \"#utility.yul\":125:137   */\n  and\n    /* \"#utility.yul\":156:174   */\n  dup1\n    /* \"#utility.yul\":146:227   */\n  tag_23\n  jumpi\n    /* \"#utility.yul\":212:216   */\n  0x7f\n    /* \"#utility.yul\":204:210   */\n  dup3\n    /* \"#utility.yul\":200:217   */\n  and\n    /* \"#utility.yul\":190:217   */\n  swap2\n  pop\n    /* \"#utility.yul\":146:227   */\ntag_23:\n    /* \"#utility.yul\":274:276   */\n  0x20\n    /* \"#utility.yul\":266:272   */\n  dup3\n    /* \"#utility.yul\":263:277   */\n  lt\n    /* \"#utility.yul\":243:261   */\n  dup2\n    /* \"#utility.yul\":240:278   */\n  eq\n    /* \"#utility.yul\":237:321   */\n  iszero\n  tag_24\n  jumpi\n    /* \"#utility.yul\":293:311   */\n  tag_25\n  tag_26\n  jump\t// in\ntag_25:\n    /* \"#utility.yul\":237:321   */\ntag_24:\n    /* \"#utility.yul\":58:327   */\n  pop\n    /* \"#utility.yul\":7:327   */\n  swap2\n  swap1\n  pop\n  jump\t// out\n    /* \"#utility.yul\":333:513   */\ntag_26:\n    /* \"#utility.yul\":381:458   */\n  0x4e487b7100000000000000000000000000000000000000000000000000000000\n    /* \"#utility.yul\":378:379   */\n  0x00\n    /* \"#utility.yul\":371:459   */\n  mstore\n    /* \"#utility.yul\":478:482   */\n  0x22\n    /* \"#utility.yul\":475:476   */\n  0x04\n    /* \"#utility.yul\":468:483   */\n  mstore\n    /* \"#utility.yul\":502:506   */\n  0x24\n    /* \"#utility.yul\":499:500   */\n  0x00\n    /* \"#utility.yul\":492:507   */\n  revert\n    /* \"Qvoting.sol\":481:6282  contract Qvoting is proposalEvents, QVtoken{\r... */\ntag_9:\n  dataSize(sub_0)\n  dup1\n  dataOffset(sub_0)\n  0x00\n  codecopy\n  0x00\n  return\nstop\n\nsub_0: assembly {\n        /* \"Qvoting.sol\":481:6282  contract Qvoting is proposalEvents, QVtoken{\r... */\n      mstore(0x40, 0x80)\n      callvalue\n      dup1\n      iszero\n      tag_1\n      jumpi\n      0x00\n      dup1\n      revert\n    tag_1:\n      pop\n      jumpi(tag_2, lt(calldatasize, 0x04))\n      shr(0xe0, calldataload(0x00))\n      dup1\n      0x5c230eee\n      gt\n      tag_15\n      jumpi\n      dup1\n      0x5c230eee\n      eq\n      tag_9\n      jumpi\n      dup1\n      0x70a08231\n      eq\n      tag_10\n      jumpi\n      dup1\n      0x95d89b41\n      eq\n      tag_11\n      jumpi\n      dup1\n      0x9d671564\n      eq\n      tag_12\n      jumpi\n      dup1\n      0xab9c70d4\n      eq\n      tag_13\n      jumpi\n      dup1\n      0xe745d68e\n      eq\n      tag_14\n      jumpi\n      jump(tag_2)\n    tag_15:\n      dup1\n      0x013cf08b\n      eq\n      tag_3\n      jumpi\n      dup1\n      0x03af665c\n      eq\n      tag_4\n      jumpi\n      dup1\n      0x06fdde03\n      eq\n      tag_5\n      jumpi\n      dup1\n      0x18160ddd\n      eq\n      tag_6\n      jumpi\n      dup1\n      0x313ce567\n      eq\n      tag_7\n      jumpi\n      dup1\n      0x4de77e48\n      eq\n      tag_8\n      jumpi\n    tag_2:\n      0x00\n      dup1\n      revert\n        /* \"Qvoting.sol\":1304:1362  mapping(uint => proposalLibrary.proposal) public proposals */\n    tag_3:\n      tag_16\n      0x04\n      dup1\n      calldatasize\n      sub\n      dup2\n      add\n      swap1\n      tag_17\n      swap2\n      swap1\n      tag_18\n      jump\t// in\n    tag_17:\n      tag_19\n      jump\t// in\n    tag_16:\n      mload(0x40)\n      tag_20\n      swap8\n      swap7\n      swap6\n      swap5\n      swap4\n      swap3\n      swap2\n      swap1\n      tag_21\n      jump\t// in\n    tag_20:\n      mload(0x40)\n      dup1\n      swap2\n      sub\n      swap1\n      return\n        /* \"Qvoting.sol\":6064:6275  function burnOwner(uint _proposalId, address[] memory _voters) external returns(bool){\r... */\n    tag_4:\n      tag_22\n      0x04\n      dup1\n      calldatasize\n      sub\n      dup2\n      add\n      swap1\n      tag_23\n      swap2\n      swap1\n      tag_24\n      jump\t// in\n    tag_23:\n      tag_25\n      jump\t// in\n    tag_22:\n      mload(0x40)\n      tag_26\n      swap2\n      swap1\n      tag_27\n      jump\t// in\n    tag_26:\n      mload(0x40)\n      dup1\n      swap2\n      sub\n      swap1\n      return\n        /* \"QvToken/ERC20.sol\":2202:2302  function name() public view virtual override returns (string memory) {\r... */\n    tag_5:\n      tag_28\n      tag_29\n      jump\t// in\n    tag_28:\n      mload(0x40)\n      tag_30\n      swap2\n      swap1\n      tag_31\n      jump\t// in\n    tag_30:\n      mload(0x40)\n      dup1\n      swap2\n      sub\n      swap1\n      return\n        /* \"QvToken/ERC20.sol\":3322:3430  function totalSupply() public view virtual override returns (uint256) {\r... */\n    tag_6:\n      tag_32\n      tag_33\n      jump\t// in\n    tag_32:\n      mload(0x40)\n      tag_34\n      swap2\n      swap1\n      tag_35\n      jump\t// in\n    tag_34:\n      mload(0x40)\n      dup1\n      swap2\n      sub\n      swap1\n      return\n        /* \"QvToken/ERC20.sol\":3164:3257  function decimals() public view virtual override returns (uint8) {\r... */\n    tag_7:\n      tag_36\n      tag_37\n      jump\t// in\n    tag_36:\n      mload(0x40)\n      tag_38\n      swap2\n      swap1\n      tag_39\n      jump\t// in\n    tag_38:\n      mload(0x40)\n      dup1\n      swap2\n      sub\n      swap1\n      return\n        /* \"Qvoting.sol\":1965:3262  function createProposal(uint8 _status, address[] memory _voters, address _creator,\r... */\n    tag_8:\n      tag_40\n      0x04\n      dup1\n      calldatasize\n      sub\n      dup2\n      add\n      swap1\n      tag_41\n      swap2\n      swap1\n      tag_42\n      jump\t// in\n    tag_41:\n      tag_43\n      jump\t// in\n    tag_40:\n      stop\n        /* \"Qvoting.sol\":3270:4519  function responseProposal(uint _proposalId, address _voter, string[] memory _hash, uint[] memory v) external {\r... */\n    tag_9:\n      tag_44\n      0x04\n      dup1\n      calldatasize\n      sub\n      dup2\n      add\n      swap1\n      tag_45\n      swap2\n      swap1\n      tag_46\n      jump\t// in\n    tag_45:\n      tag_47\n      jump\t// in\n    tag_44:\n      stop\n        /* \"QvToken/ERC20.sol\":3493:3620  function balanceOf(address account) public view virtual override returns (uint256) {\r... */\n    tag_10:\n      tag_48\n      0x04\n      dup1\n      calldatasize\n      sub\n      dup2\n      add\n      swap1\n      tag_49\n      swap2\n      swap1\n      tag_50\n      jump\t// in\n    tag_49:\n      tag_51\n      jump\t// in\n    tag_48:\n      mload(0x40)\n      tag_52\n      swap2\n      swap1\n      tag_35\n      jump\t// in\n    tag_52:\n      mload(0x40)\n      dup1\n      swap2\n      sub\n      swap1\n      return\n        /* \"QvToken/ERC20.sol\":2421:2525  function symbol() public view virtual override returns (string memory) {\r... */\n    tag_11:\n      tag_53\n      tag_54\n      jump\t// in\n    tag_53:\n      mload(0x40)\n      tag_55\n      swap2\n      swap1\n      tag_31\n      jump\t// in\n    tag_55:\n      mload(0x40)\n      dup1\n      swap2\n      sub\n      swap1\n      return\n        /* \"Qvoting.sol\":4611:4965  function resultOfProposal(uint _proposalId) public view returns(uint, string memory){\r... */\n    tag_12:\n      tag_56\n      0x04\n      dup1\n      calldatasize\n      sub\n      dup2\n      add\n      swap1\n      tag_57\n      swap2\n      swap1\n      tag_18\n      jump\t// in\n    tag_57:\n      tag_58\n      jump\t// in\n    tag_56:\n      mload(0x40)\n      tag_59\n      swap3\n      swap2\n      swap1\n      tag_60\n      jump\t// in\n    tag_59:\n      mload(0x40)\n      dup1\n      swap2\n      sub\n      swap1\n      return\n        /* \"Qvoting.sol\":1400:1472  mapping(address => mapping(uint => voterLibrary.voter)) public allVoters */\n    tag_13:\n      tag_61\n      0x04\n      dup1\n      calldatasize\n      sub\n      dup2\n      add\n      swap1\n      tag_62\n      swap2\n      swap1\n      tag_63\n      jump\t// in\n    tag_62:\n      tag_64\n      jump\t// in\n    tag_61:\n      mload(0x40)\n      tag_65\n      swap5\n      swap4\n      swap3\n      swap2\n      swap1\n      tag_66\n      jump\t// in\n    tag_65:\n      mload(0x40)\n      dup1\n      swap2\n      sub\n      swap1\n      return\n        /* \"Qvoting.sol\":1201:1273  mapping(address => UserProposalLibrary.UserProposal) public userProposal */\n    tag_14:\n      tag_67\n      0x04\n      dup1\n      calldatasize\n      sub\n      dup2\n      add\n      swap1\n      tag_68\n      swap2\n      swap1\n      tag_50\n      jump\t// in\n    tag_68:\n      tag_69\n      jump\t// in\n    tag_67:\n      mload(0x40)\n      tag_70\n      swap3\n      swap2\n      swap1\n      tag_71\n      jump\t// in\n    tag_70:\n      mload(0x40)\n      dup1\n      swap2\n      sub\n      swap1\n      return\n        /* \"Qvoting.sol\":1304:1362  mapping(uint => proposalLibrary.proposal) public proposals */\n    tag_19:\n      mstore(0x20, 0x07)\n      dup1\n      0x00\n      mstore\n      keccak256(0x00, 0x40)\n      0x00\n      swap2\n      pop\n      swap1\n      pop\n      dup1\n      0x00\n      add\n      0x00\n      swap1\n      sload\n      swap1\n      0x0100\n      exp\n      swap1\n      div\n      0xffffffffffffffffffffffffffffffffffffffff\n      and\n      swap1\n      dup1\n      0x00\n      add\n      0x14\n      swap1\n      sload\n      swap1\n      0x0100\n      exp\n      swap1\n      div\n      0xff\n      and\n      swap1\n      dup1\n      0x01\n      add\n      dup1\n      sload\n      tag_72\n      swap1\n      tag_73\n      jump\t// in\n    tag_72:\n      dup1\n      0x1f\n      add\n      0x20\n      dup1\n      swap2\n      div\n      mul\n      0x20\n      add\n      mload(0x40)\n      swap1\n      dup2\n      add\n      0x40\n      mstore\n      dup1\n      swap3\n      swap2\n      swap1\n      dup2\n      dup2\n      mstore\n      0x20\n      add\n      dup3\n      dup1\n      sload\n      tag_74\n      swap1\n      tag_73\n      jump\t// in\n    tag_74:\n      dup1\n      iszero\n      tag_75\n      jumpi\n      dup1\n      0x1f\n      lt\n      tag_76\n      jumpi\n      0x0100\n      dup1\n      dup4\n      sload\n      div\n      mul\n      dup4\n      mstore\n      swap2\n      0x20\n      add\n      swap2\n      jump(tag_75)\n    tag_76:\n      dup3\n      add\n      swap2\n      swap1\n      0x00\n      mstore\n      keccak256(0x00, 0x20)\n      swap1\n    tag_77:\n      dup2\n      sload\n      dup2\n      mstore\n      swap1\n      0x01\n      add\n      swap1\n      0x20\n      add\n      dup1\n      dup4\n      gt\n      tag_77\n      jumpi\n      dup3\n      swap1\n      sub\n      0x1f\n      and\n      dup3\n      add\n      swap2\n    tag_75:\n      pop\n      pop\n      pop\n      pop\n      pop\n      swap1\n      dup1\n      0x02\n      add\n      sload\n      swap1\n      dup1\n      0x03\n      add\n      sload\n      swap1\n      dup1\n      0x04\n      add\n      0x00\n      swap1\n      sload\n      swap1\n      0x0100\n      exp\n      swap1\n      div\n      0xffff\n      and\n      swap1\n      dup1\n      0x05\n      add\n      sload\n      swap1\n      pop\n      dup8\n      jump\t// out\n        /* \"Qvoting.sol\":6064:6275  function burnOwner(uint _proposalId, address[] memory _voters) external returns(bool){\r... */\n    tag_25:\n        /* \"Qvoting.sol\":6144:6148  bool */\n      0x00\n        /* \"Qvoting.sol\":6186:6195  proposals */\n      0x07\n        /* \"Qvoting.sol\":6186:6208  proposals[_proposalId] */\n      0x00\n        /* \"Qvoting.sol\":6196:6207  _proposalId */\n      dup5\n        /* \"Qvoting.sol\":6186:6208  proposals[_proposalId] */\n      dup2\n      mstore\n      0x20\n      add\n      swap1\n      dup2\n      mstore\n      0x20\n      add\n      0x00\n      keccak256\n        /* \"Qvoting.sol\":6186:6223  proposals[_proposalId].expirationTime */\n      0x03\n      add\n      sload\n        /* \"Qvoting.sol\":6168:6183  block.timestamp */\n      timestamp\n        /* \"Qvoting.sol\":6168:6223  block.timestamp > proposals[_proposalId].expirationTime */\n      gt\n        /* \"Qvoting.sol\":6160:6257  require(block.timestamp > proposals[_proposalId].expirationTime, \"proposal is not completed yet\") */\n      tag_79\n      jumpi\n      mload(0x40)\n      0x08c379a000000000000000000000000000000000000000000000000000000000\n      dup2\n      mstore\n      0x04\n      add\n      tag_80\n      swap1\n      tag_81\n      jump\t// in\n    tag_80:\n      mload(0x40)\n      dup1\n      swap2\n      sub\n      swap1\n      revert\n    tag_79:\n        /* \"Qvoting.sol\":6064:6275  function burnOwner(uint _proposalId, address[] memory _voters) external returns(bool){\r... */\n      swap3\n      swap2\n      pop\n      pop\n      jump\t// out\n        /* \"QvToken/ERC20.sol\":2202:2302  function name() public view virtual override returns (string memory) {\r... */\n    tag_29:\n        /* \"QvToken/ERC20.sol\":2256:2269  string memory */\n      0x60\n        /* \"QvToken/ERC20.sol\":2289:2294  _name */\n      0x02\n        /* \"QvToken/ERC20.sol\":2282:2294  return _name */\n      dup1\n      sload\n      tag_83\n      swap1\n      tag_73\n      jump\t// in\n    tag_83:\n      dup1\n      0x1f\n      add\n      0x20\n      dup1\n      swap2\n      div\n      mul\n      0x20\n      add\n      mload(0x40)\n      swap1\n      dup2\n      add\n      0x40\n      mstore\n      dup1\n      swap3\n      swap2\n      swap1\n      dup2\n      dup2\n      mstore\n      0x20\n      add\n      dup3\n      dup1\n      sload\n      tag_84\n      swap1\n      tag_73\n      jump\t// in\n    tag_84:\n      dup1\n      iszero\n      tag_85\n      jumpi\n      dup1\n      0x1f\n      lt\n      tag_86\n      jumpi\n      0x0100\n      dup1\n      dup4\n      sload\n      div\n      mul\n      dup4\n      mstore\n      swap2\n      0x20\n      add\n      swap2\n      jump(tag_85)\n    tag_86:\n      dup3\n      add\n      swap2\n      swap1\n      0x00\n      mstore\n      keccak256(0x00, 0x20)\n      swap1\n    tag_87:\n      dup2\n      sload\n      dup2\n      mstore\n      swap1\n      0x01\n      add\n      swap1\n      0x20\n      add\n      dup1\n      dup4\n      gt\n      tag_87\n      jumpi\n      dup3\n      swap1\n      sub\n      0x1f\n      and\n      dup3\n      add\n      swap2\n    tag_85:\n      pop\n      pop\n      pop\n      pop\n      pop\n      swap1\n      pop\n        /* \"QvToken/ERC20.sol\":2202:2302  function name() public view virtual override returns (string memory) {\r... */\n      swap1\n      jump\t// out\n        /* \"QvToken/ERC20.sol\":3322:3430  function totalSupply() public view virtual override returns (uint256) {\r... */\n    tag_33:\n        /* \"QvToken/ERC20.sol\":3383:3390  uint256 */\n      0x00\n        /* \"QvToken/ERC20.sol\":3410:3422  _totalSupply */\n      sload(0x01)\n        /* \"QvToken/ERC20.sol\":3403:3422  return _totalSupply */\n      swap1\n      pop\n        /* \"QvToken/ERC20.sol\":3322:3430  function totalSupply() public view virtual override returns (uint256) {\r... */\n      swap1\n      jump\t// out\n        /* \"QvToken/ERC20.sol\":3164:3257  function decimals() public view virtual override returns (uint8) {\r... */\n    tag_37:\n        /* \"QvToken/ERC20.sol\":3222:3227  uint8 */\n      0x00\n        /* \"QvToken/ERC20.sol\":3247:3249  18 */\n      0x12\n        /* \"QvToken/ERC20.sol\":3240:3249  return 18 */\n      swap1\n      pop\n        /* \"QvToken/ERC20.sol\":3164:3257  function decimals() public view virtual override returns (uint8) {\r... */\n      swap1\n      jump\t// out\n        /* \"Qvoting.sol\":1965:3262  function createProposal(uint8 _status, address[] memory _voters, address _creator,\r... */\n    tag_43:\n        /* \"Qvoting.sol\":2339:2349  _startTime */\n      dup6\n        /* \"Qvoting.sol\":2321:2336  block.timestamp */\n      timestamp\n        /* \"Qvoting.sol\":2321:2349  block.timestamp < _startTime */\n      lt\n        /* \"Qvoting.sol\":2313:2373  require(block.timestamp < _startTime,\"proposal not started\") */\n      tag_91\n      jumpi\n      mload(0x40)\n      0x08c379a000000000000000000000000000000000000000000000000000000000\n      dup2\n      mstore\n      0x04\n      add\n      tag_92\n      swap1\n      tag_93\n      jump\t// in\n    tag_92:\n      mload(0x40)\n      dup1\n      swap2\n      sub\n      swap1\n      revert\n    tag_91:\n        /* \"Qvoting.sol\":2410:2425  _expirationTime */\n      dup5\n        /* \"Qvoting.sol\":2392:2407  block.timestamp */\n      timestamp\n        /* \"Qvoting.sol\":2392:2425  block.timestamp < _expirationTime */\n      lt\n        /* \"Qvoting.sol\":2384:2473  require(block.timestamp < _expirationTime,\"End time should be greater than current time\") */\n      tag_94\n      jumpi\n      mload(0x40)\n      0x08c379a000000000000000000000000000000000000000000000000000000000\n      dup2\n      mstore\n      0x04\n      add\n      tag_95\n      swap1\n      tag_96\n      jump\t// in\n    tag_95:\n      mload(0x40)\n      dup1\n      swap2\n      sub\n      swap1\n      revert\n    tag_94:\n        /* \"Qvoting.sol\":2505:2520  _expirationTime */\n      dup5\n        /* \"Qvoting.sol\":2492:2502  _startTime */\n      dup7\n        /* \"Qvoting.sol\":2492:2520  _startTime < _expirationTime */\n      lt\n        /* \"Qvoting.sol\":2484:2566  require(_startTime < _expirationTime,\"End time should be greater than start time\") */\n      tag_97\n      jumpi\n      mload(0x40)\n      0x08c379a000000000000000000000000000000000000000000000000000000000\n      dup2\n      mstore\n      0x04\n      add\n      tag_98\n      swap1\n      tag_99\n      jump\t// in\n    tag_98:\n      mload(0x40)\n      dup1\n      swap2\n      sub\n      swap1\n      revert\n    tag_97:\n        /* \"Qvoting.sol\":2579:2589  proposalId */\n      0x05\n      0x00\n        /* \"Qvoting.sol\":2579:2591  proposalId++ */\n      dup2\n      sload\n      dup1\n      swap3\n      swap2\n      swap1\n      tag_100\n      swap1\n      tag_101\n      jump\t// in\n    tag_100:\n      swap2\n      swap1\n      pop\n      sstore\n      pop\n        /* \"Qvoting.sol\":2602:2714  proposals[proposalId].createProposal(_status,_voters,_creator,_startTime,_expirationTime,_disc,_voteRight,_cand) */\n      tag_102\n        /* \"Qvoting.sol\":2639:2646  _status */\n      dup10\n        /* \"Qvoting.sol\":2647:2654  _voters */\n      dup10\n        /* \"Qvoting.sol\":2655:2663  _creator */\n      dup10\n        /* \"Qvoting.sol\":2664:2674  _startTime */\n      dup10\n        /* \"Qvoting.sol\":2675:2690  _expirationTime */\n      dup10\n        /* \"Qvoting.sol\":2691:2696  _disc */\n      dup10\n        /* \"Qvoting.sol\":2697:2707  _voteRight */\n      dup8\n        /* \"Qvoting.sol\":2708:2713  _cand */\n      dup11\n      dup11\n        /* \"Qvoting.sol\":2602:2611  proposals */\n      0x07\n        /* \"Qvoting.sol\":2602:2623  proposals[proposalId] */\n      0x00\n        /* \"Qvoting.sol\":2612:2622  proposalId */\n      sload(0x05)\n        /* \"Qvoting.sol\":2602:2623  proposals[proposalId] */\n      dup2\n      mstore\n      0x20\n      add\n      swap1\n      dup2\n      mstore\n      0x20\n      add\n      0x00\n      keccak256\n        /* \"Qvoting.sol\":2602:2638  proposals[proposalId].createProposal */\n      tag_103\n      swap1\n        /* \"Qvoting.sol\":2602:2714  proposals[proposalId].createProposal(_status,_voters,_creator,_startTime,_expirationTime,_disc,_voteRight,_cand) */\n      swap10\n      swap9\n      swap8\n      swap7\n      swap6\n      swap5\n      swap4\n      swap3\n      swap2\n      swap1\n      0xffffffff\n      and\n      jump\t// in\n    tag_102:\n      pop\n        /* \"Qvoting.sol\":2730:2814  ProposalCreated(proposalId, _voters,_creator,_startTime,_expirationTime,_disc,_cand) */\n      0x239a8a71a7d1cb0d134f6cc072ad6390e36a88c8e78dff69013ee79528441e80\n        /* \"Qvoting.sol\":2746:2756  proposalId */\n      sload(0x05)\n        /* \"Qvoting.sol\":2758:2765  _voters */\n      dup10\n        /* \"Qvoting.sol\":2766:2774  _creator */\n      dup10\n        /* \"Qvoting.sol\":2775:2785  _startTime */\n      dup10\n        /* \"Qvoting.sol\":2786:2801  _expirationTime */\n      dup10\n        /* \"Qvoting.sol\":2802:2807  _disc */\n      dup10\n        /* \"Qvoting.sol\":2808:2813  _cand */\n      dup10\n      dup10\n        /* \"Qvoting.sol\":2730:2814  ProposalCreated(proposalId, _voters,_creator,_startTime,_expirationTime,_disc,_cand) */\n      mload(0x40)\n      tag_104\n      swap9\n      swap8\n      swap7\n      swap6\n      swap5\n      swap4\n      swap3\n      swap2\n      swap1\n      tag_105\n      jump\t// in\n    tag_104:\n      mload(0x40)\n      dup1\n      swap2\n      sub\n      swap1\n      log1\n        /* \"Qvoting.sol\":2854:2858  true */\n      0x01\n        /* \"Qvoting.sol\":2825:2839  validProposals */\n      0x09\n        /* \"Qvoting.sol\":2825:2851  validProposals[proposalId] */\n      0x00\n        /* \"Qvoting.sol\":2840:2850  proposalId */\n      sload(0x05)\n        /* \"Qvoting.sol\":2825:2851  validProposals[proposalId] */\n      dup2\n      mstore\n      0x20\n      add\n      swap1\n      dup2\n      mstore\n      0x20\n      add\n      0x00\n      keccak256\n      0x00\n        /* \"Qvoting.sol\":2825:2858  validProposals[proposalId] = true */\n      0x0100\n      exp\n      dup2\n      sload\n      dup2\n      0xff\n      mul\n      not\n      and\n      swap1\n      dup4\n      iszero\n      iszero\n      mul\n      or\n      swap1\n      sstore\n      pop\n        /* \"Qvoting.sol\":2930:2939  uint256 i */\n      0x00\n        /* \"Qvoting.sol\":2926:3185  for(uint256 i=0;i<_voters.length;i++){\r... */\n    tag_106:\n        /* \"Qvoting.sol\":2944:2951  _voters */\n      dup9\n        /* \"Qvoting.sol\":2944:2958  _voters.length */\n      mload\n        /* \"Qvoting.sol\":2942:2943  i */\n      dup2\n        /* \"Qvoting.sol\":2942:2958  i<_voters.length */\n      lt\n        /* \"Qvoting.sol\":2926:3185  for(uint256 i=0;i<_voters.length;i++){\r... */\n      iszero\n      tag_107\n      jumpi\n        /* \"Qvoting.sol\":2978:3005  mint(_voters[i],_voteRight) */\n      tag_109\n        /* \"Qvoting.sol\":2983:2990  _voters */\n      dup10\n        /* \"Qvoting.sol\":2991:2992  i */\n      dup3\n        /* \"Qvoting.sol\":2983:2993  _voters[i] */\n      dup2\n      mload\n      dup2\n      lt\n      tag_110\n      jumpi\n      tag_111\n      tag_112\n      jump\t// in\n    tag_111:\n    tag_110:\n      0x20\n      mul\n      0x20\n      add\n      add\n      mload\n        /* \"Qvoting.sol\":2994:3004  _voteRight */\n      dup4\n        /* \"Qvoting.sol\":2978:2982  mint */\n      tag_113\n        /* \"Qvoting.sol\":2978:3005  mint(_voters[i],_voteRight) */\n      jump\t// in\n    tag_109:\n        /* \"Qvoting.sol\":3020:3108  allVoters[_voters[i]][proposalId].createVoter(proposalId, _voters[i], false, _voteRight) */\n      tag_114\n        /* \"Qvoting.sol\":3066:3076  proposalId */\n      sload(0x05)\n        /* \"Qvoting.sol\":3078:3085  _voters */\n      dup11\n        /* \"Qvoting.sol\":3086:3087  i */\n      dup4\n        /* \"Qvoting.sol\":3078:3088  _voters[i] */\n      dup2\n      mload\n      dup2\n      lt\n      tag_115\n      jumpi\n      tag_116\n      tag_112\n      jump\t// in\n    tag_116:\n    tag_115:\n      0x20\n      mul\n      0x20\n      add\n      add\n      mload\n        /* \"Qvoting.sol\":3090:3095  false */\n      0x00\n        /* \"Qvoting.sol\":3097:3107  _voteRight */\n      dup6\n        /* \"Qvoting.sol\":3020:3029  allVoters */\n      0x08\n        /* \"Qvoting.sol\":3020:3041  allVoters[_voters[i]] */\n      0x00\n        /* \"Qvoting.sol\":3030:3037  _voters */\n      dup16\n        /* \"Qvoting.sol\":3038:3039  i */\n      dup9\n        /* \"Qvoting.sol\":3030:3040  _voters[i] */\n      dup2\n      mload\n      dup2\n      lt\n      tag_117\n      jumpi\n      tag_118\n      tag_112\n      jump\t// in\n    tag_118:\n    tag_117:\n      0x20\n      mul\n      0x20\n      add\n      add\n      mload\n        /* \"Qvoting.sol\":3020:3041  allVoters[_voters[i]] */\n      0xffffffffffffffffffffffffffffffffffffffff\n      and\n      0xffffffffffffffffffffffffffffffffffffffff\n      and\n      dup2\n      mstore\n      0x20\n      add\n      swap1\n      dup2\n      mstore\n      0x20\n      add\n      0x00\n      keccak256\n        /* \"Qvoting.sol\":3020:3053  allVoters[_voters[i]][proposalId] */\n      0x00\n        /* \"Qvoting.sol\":3042:3052  proposalId */\n      sload(0x05)\n        /* \"Qvoting.sol\":3020:3053  allVoters[_voters[i]][proposalId] */\n      dup2\n      mstore\n      0x20\n      add\n      swap1\n      dup2\n      mstore\n      0x20\n      add\n      0x00\n      keccak256\n        /* \"Qvoting.sol\":3020:3065  allVoters[_voters[i]][proposalId].createVoter */\n      tag_119\n      swap1\n        /* \"Qvoting.sol\":3020:3108  allVoters[_voters[i]][proposalId].createVoter(proposalId, _voters[i], false, _voteRight) */\n      swap5\n      swap4\n      swap3\n      swap2\n      swap1\n      0xffffffff\n      and\n      jump\t// in\n    tag_114:\n      pop\n        /* \"Qvoting.sol\":3128:3169  mintAndburn(\"mint\",_voters[i],_voteRight) */\n      0xabf5327be9f5825c40d58bda541dd07f09b62df3376bbd5ecdbaa8bd82a9d492\n        /* \"Qvoting.sol\":3147:3154  _voters */\n      dup10\n        /* \"Qvoting.sol\":3155:3156  i */\n      dup3\n        /* \"Qvoting.sol\":3147:3157  _voters[i] */\n      dup2\n      mload\n      dup2\n      lt\n      tag_120\n      jumpi\n      tag_121\n      tag_112\n      jump\t// in\n    tag_121:\n    tag_120:\n      0x20\n      mul\n      0x20\n      add\n      add\n      mload\n        /* \"Qvoting.sol\":3158:3168  _voteRight */\n      dup4\n        /* \"Qvoting.sol\":3128:3169  mintAndburn(\"mint\",_voters[i],_voteRight) */\n      mload(0x40)\n      tag_122\n      swap3\n      swap2\n      swap1\n      tag_123\n      jump\t// in\n    tag_122:\n      mload(0x40)\n      dup1\n      swap2\n      sub\n      swap1\n      log1\n        /* \"Qvoting.sol\":2959:2962  i++ */\n      dup1\n      dup1\n      tag_124\n      swap1\n      tag_101\n      jump\t// in\n    tag_124:\n      swap2\n      pop\n      pop\n        /* \"Qvoting.sol\":2926:3185  for(uint256 i=0;i<_voters.length;i++){\r... */\n      jump(tag_106)\n    tag_107:\n      pop\n        /* \"Qvoting.sol\":3197:3254  userProposal[_msgSender()].updateProposalList(proposalId) */\n      tag_125\n        /* \"Qvoting.sol\":3243:3253  proposalId */\n      sload(0x05)\n        /* \"Qvoting.sol\":3197:3209  userProposal */\n      0x06\n        /* \"Qvoting.sol\":3197:3223  userProposal[_msgSender()] */\n      0x00\n        /* \"Qvoting.sol\":3210:3222  _msgSender() */\n      tag_126\n        /* \"Qvoting.sol\":3210:3220  _msgSender */\n      tag_127\n        /* \"Qvoting.sol\":3210:3222  _msgSender() */\n      jump\t// in\n    tag_126:\n        /* \"Qvoting.sol\":3197:3223  userProposal[_msgSender()] */\n      0xffffffffffffffffffffffffffffffffffffffff\n      and\n      0xffffffffffffffffffffffffffffffffffffffff\n      and\n      dup2\n      mstore\n      0x20\n      add\n      swap1\n      dup2\n      mstore\n      0x20\n      add\n      0x00\n      keccak256\n        /* \"Qvoting.sol\":3197:3242  userProposal[_msgSender()].updateProposalList */\n      tag_128\n      swap1\n        /* \"Qvoting.sol\":3197:3254  userProposal[_msgSender()].updateProposalList(proposalId) */\n      swap2\n      swap1\n      0xffffffff\n      and\n      jump\t// in\n    tag_125:\n      pop\n        /* \"Qvoting.sol\":1965:3262  function createProposal(uint8 _status, address[] memory _voters, address _creator,\r... */\n      pop\n      pop\n      pop\n      pop\n      pop\n      pop\n      pop\n      pop\n      pop\n      jump\t// out\n        /* \"Qvoting.sol\":3270:4519  function responseProposal(uint _proposalId, address _voter, string[] memory _hash, uint[] memory v) external {\r... */\n    tag_47:\n        /* \"Qvoting.sol\":3493:3507  validProposals */\n      0x09\n        /* \"Qvoting.sol\":3493:3520  validProposals[_proposalId] */\n      0x00\n        /* \"Qvoting.sol\":3508:3519  _proposalId */\n      dup6\n        /* \"Qvoting.sol\":3493:3520  validProposals[_proposalId] */\n      dup2\n      mstore\n      0x20\n      add\n      swap1\n      dup2\n      mstore\n      0x20\n      add\n      0x00\n      keccak256\n      0x00\n      swap1\n      sload\n      swap1\n      0x0100\n      exp\n      swap1\n      div\n      0xff\n      and\n        /* \"Qvoting.sol\":3485:3542  require(validProposals[_proposalId],\"invalid proposalId\") */\n      tag_130\n      jumpi\n      mload(0x40)\n      0x08c379a000000000000000000000000000000000000000000000000000000000\n      dup2\n      mstore\n      0x04\n      add\n      tag_131\n      swap1\n      tag_132\n      jump\t// in\n    tag_131:\n      mload(0x40)\n      dup1\n      swap2\n      sub\n      swap1\n      revert\n    tag_130:\n        /* \"Qvoting.sol\":3606:3617  _proposalId */\n      dup4\n        /* \"Qvoting.sol\":3561:3570  allVoters */\n      0x08\n        /* \"Qvoting.sol\":3561:3578  allVoters[_voter] */\n      0x00\n        /* \"Qvoting.sol\":3571:3577  _voter */\n      dup6\n        /* \"Qvoting.sol\":3561:3578  allVoters[_voter] */\n      0xffffffffffffffffffffffffffffffffffffffff\n      and\n      0xffffffffffffffffffffffffffffffffffffffff\n      and\n      dup2\n      mstore\n      0x20\n      add\n      swap1\n      dup2\n      mstore\n      0x20\n      add\n      0x00\n      keccak256\n        /* \"Qvoting.sol\":3561:3591  allVoters[_voter][_proposalId] */\n      0x00\n        /* \"Qvoting.sol\":3579:3590  _proposalId */\n      dup7\n        /* \"Qvoting.sol\":3561:3591  allVoters[_voter][_proposalId] */\n      dup2\n      mstore\n      0x20\n      add\n      swap1\n      dup2\n      mstore\n      0x20\n      add\n      0x00\n      keccak256\n        /* \"Qvoting.sol\":3561:3602  allVoters[_voter][_proposalId].proposalId */\n      0x00\n      add\n      sload\n        /* \"Qvoting.sol\":3561:3617  allVoters[_voter][_proposalId].proposalId == _proposalId */\n      eq\n        /* \"Qvoting.sol\":3553:3657  require(allVoters[_voter][_proposalId].proposalId == _proposalId, \"not a valid voter for this proposal\") */\n      tag_133\n      jumpi\n      mload(0x40)\n      0x08c379a000000000000000000000000000000000000000000000000000000000\n      dup2\n      mstore\n      0x04\n      add\n      tag_134\n      swap1\n      tag_135\n      jump\t// in\n    tag_134:\n      mload(0x40)\n      dup1\n      swap2\n      sub\n      swap1\n      revert\n    tag_133:\n        /* \"Qvoting.sol\":3738:3747  allVoters */\n      0x08\n        /* \"Qvoting.sol\":3738:3755  allVoters[_voter] */\n      0x00\n        /* \"Qvoting.sol\":3748:3754  _voter */\n      dup5\n        /* \"Qvoting.sol\":3738:3755  allVoters[_voter] */\n      0xffffffffffffffffffffffffffffffffffffffff\n      and\n      0xffffffffffffffffffffffffffffffffffffffff\n      and\n      dup2\n      mstore\n      0x20\n      add\n      swap1\n      dup2\n      mstore\n      0x20\n      add\n      0x00\n      keccak256\n        /* \"Qvoting.sol\":3738:3768  allVoters[_voter][_proposalId] */\n      0x00\n        /* \"Qvoting.sol\":3756:3767  _proposalId */\n      dup6\n        /* \"Qvoting.sol\":3738:3768  allVoters[_voter][_proposalId] */\n      dup2\n      mstore\n      0x20\n      add\n      swap1\n      dup2\n      mstore\n      0x20\n      add\n      0x00\n      keccak256\n        /* \"Qvoting.sol\":3738:3777  allVoters[_voter][_proposalId].hasVoted */\n      0x01\n      add\n      0x14\n      swap1\n      sload\n      swap1\n      0x0100\n      exp\n      swap1\n      div\n      0xff\n      and\n        /* \"Qvoting.sol\":3737:3777  !allVoters[_voter][_proposalId].hasVoted */\n      iszero\n        /* \"Qvoting.sol\":3729:3795  require(!allVoters[_voter][_proposalId].hasVoted, \"already voted\") */\n      tag_136\n      jumpi\n      mload(0x40)\n      0x08c379a000000000000000000000000000000000000000000000000000000000\n      dup2\n      mstore\n      0x04\n      add\n      tag_137\n      swap1\n      tag_138\n      jump\t// in\n    tag_137:\n      mload(0x40)\n      dup1\n      swap2\n      sub\n      swap1\n      revert\n    tag_136:\n        /* \"Qvoting.sol\":3852:3857  _hash */\n      dup2\n        /* \"Qvoting.sol\":3852:3864  _hash.length */\n      mload\n        /* \"Qvoting.sol\":3814:3823  proposals */\n      0x07\n        /* \"Qvoting.sol\":3814:3836  proposals[_proposalId] */\n      0x00\n        /* \"Qvoting.sol\":3824:3835  _proposalId */\n      dup7\n        /* \"Qvoting.sol\":3814:3836  proposals[_proposalId] */\n      dup2\n      mstore\n      0x20\n      add\n      swap1\n      dup2\n      mstore\n      0x20\n      add\n      0x00\n      keccak256\n        /* \"Qvoting.sol\":3814:3849  proposals[_proposalId].numOfOptions */\n      0x04\n      add\n      0x00\n      swap1\n      sload\n      swap1\n      0x0100\n      exp\n      swap1\n      div\n      0xffff\n      and\n        /* \"Qvoting.sol\":3814:3864  proposals[_proposalId].numOfOptions ==_hash.length */\n      0xffff\n      and\n      eq\n        /* \"Qvoting.sol\":3806:3905  require(proposals[_proposalId].numOfOptions ==_hash.length, \"not a valid length of hash response!\") */\n      tag_139\n      jumpi\n      mload(0x40)\n      0x08c379a000000000000000000000000000000000000000000000000000000000\n      dup2\n      mstore\n      0x04\n      add\n      tag_140\n      swap1\n      tag_141\n      jump\t// in\n    tag_140:\n      mload(0x40)\n      dup1\n      swap2\n      sub\n      swap1\n      revert\n    tag_139:\n        /* \"Qvoting.sol\":3916:3924  uint sum */\n      0x00\n        /* \"Qvoting.sol\":3941:3947  uint i */\n      dup1\n        /* \"Qvoting.sol\":3937:4006  for(uint i=0;i<v.length;i++){\r... */\n    tag_142:\n        /* \"Qvoting.sol\":3952:3953  v */\n      dup3\n        /* \"Qvoting.sol\":3952:3960  v.length */\n      mload\n        /* \"Qvoting.sol\":3950:3951  i */\n      dup2\n        /* \"Qvoting.sol\":3950:3960  i<v.length */\n      lt\n        /* \"Qvoting.sol\":3937:4006  for(uint i=0;i<v.length;i++){\r... */\n      iszero\n      tag_143\n      jumpi\n        /* \"Qvoting.sol\":3990:3991  v */\n      dup3\n        /* \"Qvoting.sol\":3992:3993  i */\n      dup2\n        /* \"Qvoting.sol\":3990:3994  v[i] */\n      dup2\n      mload\n      dup2\n      lt\n      tag_145\n      jumpi\n      tag_146\n      tag_112\n      jump\t// in\n    tag_146:\n    tag_145:\n      0x20\n      mul\n      0x20\n      add\n      add\n      mload\n        /* \"Qvoting.sol\":3985:3986  v */\n      dup4\n        /* \"Qvoting.sol\":3987:3988  i */\n      dup3\n        /* \"Qvoting.sol\":3985:3989  v[i] */\n      dup2\n      mload\n      dup2\n      lt\n      tag_147\n      jumpi\n      tag_148\n      tag_112\n      jump\t// in\n    tag_148:\n    tag_147:\n      0x20\n      mul\n      0x20\n      add\n      add\n      mload\n        /* \"Qvoting.sol\":3985:3994  v[i]*v[i] */\n      tag_149\n      swap2\n      swap1\n      tag_150\n      jump\t// in\n    tag_149:\n        /* \"Qvoting.sol\":3980:3994  sum+=v[i]*v[i] */\n      dup3\n      tag_151\n      swap2\n      swap1\n      tag_152\n      jump\t// in\n    tag_151:\n      swap2\n      pop\n        /* \"Qvoting.sol\":3961:3964  i++ */\n      dup1\n      dup1\n      tag_153\n      swap1\n      tag_101\n      jump\t// in\n    tag_153:\n      swap2\n      pop\n      pop\n        /* \"Qvoting.sol\":3937:4006  for(uint i=0;i<v.length;i++){\r... */\n      jump(tag_142)\n    tag_143:\n      pop\n        /* \"Qvoting.sol\":4066:4069  sum */\n      dup1\n        /* \"Qvoting.sol\":4024:4033  allVoters */\n      0x08\n        /* \"Qvoting.sol\":4024:4041  allVoters[_voter] */\n      0x00\n        /* \"Qvoting.sol\":4034:4040  _voter */\n      dup7\n        /* \"Qvoting.sol\":4024:4041  allVoters[_voter] */\n      0xffffffffffffffffffffffffffffffffffffffff\n      and\n      0xffffffffffffffffffffffffffffffffffffffff\n      and\n      dup2\n      mstore\n      0x20\n      add\n      swap1\n      dup2\n      mstore\n      0x20\n      add\n      0x00\n      keccak256\n        /* \"Qvoting.sol\":4024:4054  allVoters[_voter][_proposalId] */\n      0x00\n        /* \"Qvoting.sol\":4042:4053  _proposalId */\n      dup8\n        /* \"Qvoting.sol\":4024:4054  allVoters[_voter][_proposalId] */\n      dup2\n      mstore\n      0x20\n      add\n      swap1\n      dup2\n      mstore\n      0x20\n      add\n      0x00\n      keccak256\n        /* \"Qvoting.sol\":4024:4062  allVoters[_voter][_proposalId].voteNum */\n      0x02\n      add\n      sload\n        /* \"Qvoting.sol\":4024:4069  allVoters[_voter][_proposalId].voteNum >= sum */\n      lt\n      iszero\n        /* \"Qvoting.sol\":4016:4109  require(allVoters[_voter][_proposalId].voteNum >= sum, \"not sufficient balance to cast vote\") */\n      tag_154\n      jumpi\n      mload(0x40)\n      0x08c379a000000000000000000000000000000000000000000000000000000000\n      dup2\n      mstore\n      0x04\n      add\n      tag_155\n      swap1\n      tag_156\n      jump\t// in\n    tag_155:\n      mload(0x40)\n      dup1\n      swap2\n      sub\n      swap1\n      revert\n    tag_154:\n        /* \"Qvoting.sol\":4122:4178  proposals[_proposalId].responseProposal(_voter,_hash, v) */\n      tag_157\n        /* \"Qvoting.sol\":4162:4168  _voter */\n      dup5\n        /* \"Qvoting.sol\":4169:4174  _hash */\n      dup5\n        /* \"Qvoting.sol\":4176:4177  v */\n      dup5\n        /* \"Qvoting.sol\":4122:4131  proposals */\n      0x07\n        /* \"Qvoting.sol\":4122:4144  proposals[_proposalId] */\n      0x00\n        /* \"Qvoting.sol\":4132:4143  _proposalId */\n      dup11\n        /* \"Qvoting.sol\":4122:4144  proposals[_proposalId] */\n      dup2\n      mstore\n      0x20\n      add\n      swap1\n      dup2\n      mstore\n      0x20\n      add\n      0x00\n      keccak256\n        /* \"Qvoting.sol\":4122:4161  proposals[_proposalId].responseProposal */\n      tag_158\n      swap1\n        /* \"Qvoting.sol\":4122:4178  proposals[_proposalId].responseProposal(_voter,_hash, v) */\n      swap4\n      swap3\n      swap2\n      swap1\n      0xffffffff\n      and\n      jump\t// in\n    tag_157:\n      pop\n        /* \"Qvoting.sol\":4189:4254  userProposal[_msgSender()].updateResponseList(_proposalId, _hash) */\n      tag_159\n        /* \"Qvoting.sol\":4235:4246  _proposalId */\n      dup6\n        /* \"Qvoting.sol\":4248:4253  _hash */\n      dup5\n        /* \"Qvoting.sol\":4189:4201  userProposal */\n      0x06\n        /* \"Qvoting.sol\":4189:4215  userProposal[_msgSender()] */\n      0x00\n        /* \"Qvoting.sol\":4202:4214  _msgSender() */\n      tag_160\n        /* \"Qvoting.sol\":4202:4212  _msgSender */\n      tag_127\n        /* \"Qvoting.sol\":4202:4214  _msgSender() */\n      jump\t// in\n    tag_160:\n        /* \"Qvoting.sol\":4189:4215  userProposal[_msgSender()] */\n      0xffffffffffffffffffffffffffffffffffffffff\n      and\n      0xffffffffffffffffffffffffffffffffffffffff\n      and\n      dup2\n      mstore\n      0x20\n      add\n      swap1\n      dup2\n      mstore\n      0x20\n      add\n      0x00\n      keccak256\n        /* \"Qvoting.sol\":4189:4234  userProposal[_msgSender()].updateResponseList */\n      tag_161\n      swap1\n        /* \"Qvoting.sol\":4189:4254  userProposal[_msgSender()].updateResponseList(_proposalId, _hash) */\n      swap3\n      swap2\n      swap1\n      0xffffffff\n      and\n      jump\t// in\n    tag_159:\n      pop\n        /* \"Qvoting.sol\":4267:4313  allVoters[_voter][_proposalId].updateVoteNum() */\n      tag_162\n        /* \"Qvoting.sol\":4267:4276  allVoters */\n      0x08\n        /* \"Qvoting.sol\":4267:4284  allVoters[_voter] */\n      0x00\n        /* \"Qvoting.sol\":4277:4283  _voter */\n      dup7\n        /* \"Qvoting.sol\":4267:4284  allVoters[_voter] */\n      0xffffffffffffffffffffffffffffffffffffffff\n      and\n      0xffffffffffffffffffffffffffffffffffffffff\n      and\n      dup2\n      mstore\n      0x20\n      add\n      swap1\n      dup2\n      mstore\n      0x20\n      add\n      0x00\n      keccak256\n        /* \"Qvoting.sol\":4267:4297  allVoters[_voter][_proposalId] */\n      0x00\n        /* \"Qvoting.sol\":4285:4296  _proposalId */\n      dup8\n        /* \"Qvoting.sol\":4267:4297  allVoters[_voter][_proposalId] */\n      dup2\n      mstore\n      0x20\n      add\n      swap1\n      dup2\n      mstore\n      0x20\n      add\n      0x00\n      keccak256\n        /* \"Qvoting.sol\":4267:4311  allVoters[_voter][_proposalId].updateVoteNum */\n      tag_163\n        /* \"Qvoting.sol\":4267:4313  allVoters[_voter][_proposalId].updateVoteNum() */\n      jump\t// in\n    tag_162:\n      pop\n        /* \"Qvoting.sol\":4366:4370  true */\n      0x01\n        /* \"Qvoting.sol\":4324:4333  allVoters */\n      0x08\n        /* \"Qvoting.sol\":4324:4341  allVoters[_voter] */\n      0x00\n        /* \"Qvoting.sol\":4334:4340  _voter */\n      dup7\n        /* \"Qvoting.sol\":4324:4341  allVoters[_voter] */\n      0xffffffffffffffffffffffffffffffffffffffff\n      and\n      0xffffffffffffffffffffffffffffffffffffffff\n      and\n      dup2\n      mstore\n      0x20\n      add\n      swap1\n      dup2\n      mstore\n      0x20\n      add\n      0x00\n      keccak256\n        /* \"Qvoting.sol\":4324:4354  allVoters[_voter][_proposalId] */\n      0x00\n        /* \"Qvoting.sol\":4342:4353  _proposalId */\n      dup8\n        /* \"Qvoting.sol\":4324:4354  allVoters[_voter][_proposalId] */\n      dup2\n      mstore\n      0x20\n      add\n      swap1\n      dup2\n      mstore\n      0x20\n      add\n      0x00\n      keccak256\n        /* \"Qvoting.sol\":4324:4363  allVoters[_voter][_proposalId].hasVoted */\n      0x01\n      add\n      0x14\n        /* \"Qvoting.sol\":4324:4370  allVoters[_voter][_proposalId].hasVoted = true */\n      0x0100\n      exp\n      dup2\n      sload\n      dup2\n      0xff\n      mul\n      not\n      and\n      swap1\n      dup4\n      iszero\n      iszero\n      mul\n      or\n      swap1\n      sstore\n      pop\n        /* \"Qvoting.sol\":4381:4425  burn(_voter,proposals[proposalId].voteRight) */\n      tag_164\n        /* \"Qvoting.sol\":4386:4392  _voter */\n      dup5\n        /* \"Qvoting.sol\":4393:4402  proposals */\n      0x07\n        /* \"Qvoting.sol\":4393:4414  proposals[proposalId] */\n      0x00\n        /* \"Qvoting.sol\":4403:4413  proposalId */\n      sload(0x05)\n        /* \"Qvoting.sol\":4393:4414  proposals[proposalId] */\n      dup2\n      mstore\n      0x20\n      add\n      swap1\n      dup2\n      mstore\n      0x20\n      add\n      0x00\n      keccak256\n        /* \"Qvoting.sol\":4393:4424  proposals[proposalId].voteRight */\n      0x05\n      add\n      sload\n        /* \"Qvoting.sol\":4381:4385  burn */\n      tag_165\n        /* \"Qvoting.sol\":4381:4425  burn(_voter,proposals[proposalId].voteRight) */\n      jump\t// in\n    tag_164:\n        /* \"Qvoting.sol\":4441:4501  mintAndburn(\"burn\", _voter, proposals[proposalId].voteRight) */\n      0xabf5327be9f5825c40d58bda541dd07f09b62df3376bbd5ecdbaa8bd82a9d492\n        /* \"Qvoting.sol\":4461:4467  _voter */\n      dup5\n        /* \"Qvoting.sol\":4469:4478  proposals */\n      0x07\n        /* \"Qvoting.sol\":4469:4490  proposals[proposalId] */\n      0x00\n        /* \"Qvoting.sol\":4479:4489  proposalId */\n      sload(0x05)\n        /* \"Qvoting.sol\":4469:4490  proposals[proposalId] */\n      dup2\n      mstore\n      0x20\n      add\n      swap1\n      dup2\n      mstore\n      0x20\n      add\n      0x00\n      keccak256\n        /* \"Qvoting.sol\":4469:4500  proposals[proposalId].voteRight */\n      0x05\n      add\n      sload\n        /* \"Qvoting.sol\":4441:4501  mintAndburn(\"burn\", _voter, proposals[proposalId].voteRight) */\n      mload(0x40)\n      tag_166\n      swap3\n      swap2\n      swap1\n      tag_167\n      jump\t// in\n    tag_166:\n      mload(0x40)\n      dup1\n      swap2\n      sub\n      swap1\n      log1\n        /* \"Qvoting.sol\":3379:4519  {\r... */\n      pop\n        /* \"Qvoting.sol\":3270:4519  function responseProposal(uint _proposalId, address _voter, string[] memory _hash, uint[] memory v) external {\r... */\n      pop\n      pop\n      pop\n      pop\n      jump\t// out\n        /* \"QvToken/ERC20.sol\":3493:3620  function balanceOf(address account) public view virtual override returns (uint256) {\r... */\n    tag_51:\n        /* \"QvToken/ERC20.sol\":3567:3574  uint256 */\n      0x00\n        /* \"QvToken/ERC20.sol\":3594:3603  _balances */\n      dup1\n        /* \"QvToken/ERC20.sol\":3594:3612  _balances[account] */\n      0x00\n        /* \"QvToken/ERC20.sol\":3604:3611  account */\n      dup4\n        /* \"QvToken/ERC20.sol\":3594:3612  _balances[account] */\n      0xffffffffffffffffffffffffffffffffffffffff\n      and\n      0xffffffffffffffffffffffffffffffffffffffff\n      and\n      dup2\n      mstore\n      0x20\n      add\n      swap1\n      dup2\n      mstore\n      0x20\n      add\n      0x00\n      keccak256\n      sload\n        /* \"QvToken/ERC20.sol\":3587:3612  return _balances[account] */\n      swap1\n      pop\n        /* \"QvToken/ERC20.sol\":3493:3620  function balanceOf(address account) public view virtual override returns (uint256) {\r... */\n      swap2\n      swap1\n      pop\n      jump\t// out\n        /* \"QvToken/ERC20.sol\":2421:2525  function symbol() public view virtual override returns (string memory) {\r... */\n    tag_54:\n        /* \"QvToken/ERC20.sol\":2477:2490  string memory */\n      0x60\n        /* \"QvToken/ERC20.sol\":2510:2517  _symbol */\n      0x03\n        /* \"QvToken/ERC20.sol\":2503:2517  return _symbol */\n      dup1\n      sload\n      tag_170\n      swap1\n      tag_73\n      jump\t// in\n    tag_170:\n      dup1\n      0x1f\n      add\n      0x20\n      dup1\n      swap2\n      div\n      mul\n      0x20\n      add\n      mload(0x40)\n      swap1\n      dup2\n      add\n      0x40\n      mstore\n      dup1\n      swap3\n      swap2\n      swap1\n      dup2\n      dup2\n      mstore\n      0x20\n      add\n      dup3\n      dup1\n      sload\n      tag_171\n      swap1\n      tag_73\n      jump\t// in\n    tag_171:\n      dup1\n      iszero\n      tag_172\n      jumpi\n      dup1\n      0x1f\n      lt\n      tag_173\n      jumpi\n      0x0100\n      dup1\n      dup4\n      sload\n      div\n      mul\n      dup4\n      mstore\n      swap2\n      0x20\n      add\n      swap2\n      jump(tag_172)\n    tag_173:\n      dup3\n      add\n      swap2\n      swap1\n      0x00\n      mstore\n      keccak256(0x00, 0x20)\n      swap1\n    tag_174:\n      dup2\n      sload\n      dup2\n      mstore\n      swap1\n      0x01\n      add\n      swap1\n      0x20\n      add\n      dup1\n      dup4\n      gt\n      tag_174\n      jumpi\n      dup3\n      swap1\n      sub\n      0x1f\n      and\n      dup3\n      add\n      swap2\n    tag_172:\n      pop\n      pop\n      pop\n      pop\n      pop\n      swap1\n      pop\n        /* \"QvToken/ERC20.sol\":2421:2525  function symbol() public view virtual override returns (string memory) {\r... */\n      swap1\n      jump\t// out\n        /* \"Qvoting.sol\":4611:4965  function resultOfProposal(uint _proposalId) public view returns(uint, string memory){\r... */\n    tag_58:\n        /* \"Qvoting.sol\":4675:4679  uint */\n      0x00\n        /* \"Qvoting.sol\":4681:4694  string memory */\n      0x60\n        /* \"Qvoting.sol\":4714:4728  validProposals */\n      0x09\n        /* \"Qvoting.sol\":4714:4741  validProposals[_proposalId] */\n      0x00\n        /* \"Qvoting.sol\":4729:4740  _proposalId */\n      dup5\n        /* \"Qvoting.sol\":4714:4741  validProposals[_proposalId] */\n      dup2\n      mstore\n      0x20\n      add\n      swap1\n      dup2\n      mstore\n      0x20\n      add\n      0x00\n      keccak256\n      0x00\n      swap1\n      sload\n      swap1\n      0x0100\n      exp\n      swap1\n      div\n      0xff\n      and\n        /* \"Qvoting.sol\":4706:4765  require(validProposals[_proposalId],\"not a valid proposal\") */\n      tag_176\n      jumpi\n      mload(0x40)\n      0x08c379a000000000000000000000000000000000000000000000000000000000\n      dup2\n      mstore\n      0x04\n      add\n      tag_177\n      swap1\n      tag_178\n      jump\t// in\n    tag_177:\n      mload(0x40)\n      dup1\n      swap2\n      sub\n      swap1\n      revert\n    tag_176:\n        /* \"Qvoting.sol\":4859:4868  proposals */\n      0x07\n        /* \"Qvoting.sol\":4859:4881  proposals[_proposalId] */\n      0x00\n        /* \"Qvoting.sol\":4869:4880  _proposalId */\n      dup5\n        /* \"Qvoting.sol\":4859:4881  proposals[_proposalId] */\n      dup2\n      mstore\n      0x20\n      add\n      swap1\n      dup2\n      mstore\n      0x20\n      add\n      0x00\n      keccak256\n        /* \"Qvoting.sol\":4859:4887  proposals[_proposalId].votes */\n      0x0a\n      add\n        /* \"Qvoting.sol\":4888:4897  proposals */\n      0x07\n        /* \"Qvoting.sol\":4888:4910  proposals[_proposalId] */\n      0x00\n        /* \"Qvoting.sol\":4898:4909  _proposalId */\n      dup6\n        /* \"Qvoting.sol\":4888:4910  proposals[_proposalId] */\n      dup2\n      mstore\n      0x20\n      add\n      swap1\n      dup2\n      mstore\n      0x20\n      add\n      0x00\n      keccak256\n        /* \"Qvoting.sol\":4888:4917  proposals[_proposalId].result */\n      0x09\n      add\n        /* \"Qvoting.sol\":4888:4920  proposals[_proposalId].result[1] */\n      0x00\n        /* \"Qvoting.sol\":4918:4919  1 */\n      0x01\n        /* \"Qvoting.sol\":4888:4920  proposals[_proposalId].result[1] */\n      dup2\n      mstore\n      0x20\n      add\n      swap1\n      dup2\n      mstore\n      0x20\n      add\n      0x00\n      keccak256\n        /* \"Qvoting.sol\":4859:4921  proposals[_proposalId].votes[proposals[_proposalId].result[1]] */\n      mload(0x40)\n      tag_179\n      swap2\n      swap1\n      tag_180\n      jump\t// in\n    tag_179:\n      swap1\n      dup2\n      mstore\n      0x20\n      add\n      mload(0x40)\n      dup1\n      swap2\n      sub\n      swap1\n      keccak256\n      sload\n        /* \"Qvoting.sol\":4922:4931  proposals */\n      0x07\n        /* \"Qvoting.sol\":4922:4944  proposals[_proposalId] */\n      0x00\n        /* \"Qvoting.sol\":4932:4943  _proposalId */\n      dup6\n        /* \"Qvoting.sol\":4922:4944  proposals[_proposalId] */\n      dup2\n      mstore\n      0x20\n      add\n      swap1\n      dup2\n      mstore\n      0x20\n      add\n      0x00\n      keccak256\n        /* \"Qvoting.sol\":4922:4951  proposals[_proposalId].result */\n      0x09\n      add\n        /* \"Qvoting.sol\":4922:4954  proposals[_proposalId].result[1] */\n      0x00\n        /* \"Qvoting.sol\":4952:4953  1 */\n      0x01\n        /* \"Qvoting.sol\":4922:4954  proposals[_proposalId].result[1] */\n      dup2\n      mstore\n      0x20\n      add\n      swap1\n      dup2\n      mstore\n      0x20\n      add\n      0x00\n      keccak256\n        /* \"Qvoting.sol\":4851:4955  return (proposals[_proposalId].votes[proposals[_proposalId].result[1]],proposals[_proposalId].result[1]) */\n      dup1\n      dup1\n      sload\n      tag_181\n      swap1\n      tag_73\n      jump\t// in\n    tag_181:\n      dup1\n      0x1f\n      add\n      0x20\n      dup1\n      swap2\n      div\n      mul\n      0x20\n      add\n      mload(0x40)\n      swap1\n      dup2\n      add\n      0x40\n      mstore\n      dup1\n      swap3\n      swap2\n      swap1\n      dup2\n      dup2\n      mstore\n      0x20\n      add\n      dup3\n      dup1\n      sload\n      tag_182\n      swap1\n      tag_73\n      jump\t// in\n    tag_182:\n      dup1\n      iszero\n      tag_183\n      jumpi\n      dup1\n      0x1f\n      lt\n      tag_184\n      jumpi\n      0x0100\n      dup1\n      dup4\n      sload\n      div\n      mul\n      dup4\n      mstore\n      swap2\n      0x20\n      add\n      swap2\n      jump(tag_183)\n    tag_184:\n      dup3\n      add\n      swap2\n      swap1\n      0x00\n      mstore\n      keccak256(0x00, 0x20)\n      swap1\n    tag_185:\n      dup2\n      sload\n      dup2\n      mstore\n      swap1\n      0x01\n      add\n      swap1\n      0x20\n      add\n      dup1\n      dup4\n      gt\n      tag_185\n      jumpi\n      dup3\n      swap1\n      sub\n      0x1f\n      and\n      dup3\n      add\n      swap2\n    tag_183:\n      pop\n      pop\n      pop\n      pop\n      pop\n      swap1\n      pop\n      swap2\n      pop\n      swap2\n      pop\n        /* \"Qvoting.sol\":4611:4965  function resultOfProposal(uint _proposalId) public view returns(uint, string memory){\r... */\n      swap2\n      pop\n      swap2\n      jump\t// out\n        /* \"Qvoting.sol\":1400:1472  mapping(address => mapping(uint => voterLibrary.voter)) public allVoters */\n    tag_64:\n      mstore(0x20, 0x08)\n      dup2\n      0x00\n      mstore\n      mstore(0x20, keccak256(0x00, 0x40))\n      dup1\n      0x00\n      mstore\n      keccak256(0x00, 0x40)\n      0x00\n      swap2\n      pop\n      swap2\n      pop\n      pop\n      dup1\n      0x00\n      add\n      sload\n      swap1\n      dup1\n      0x01\n      add\n      0x00\n      swap1\n      sload\n      swap1\n      0x0100\n      exp\n      swap1\n      div\n      0xffffffffffffffffffffffffffffffffffffffff\n      and\n      swap1\n      dup1\n      0x01\n      add\n      0x14\n      swap1\n      sload\n      swap1\n      0x0100\n      exp\n      swap1\n      div\n      0xff\n      and\n      swap1\n      dup1\n      0x02\n      add\n      sload\n      swap1\n      pop\n      dup5\n      jump\t// out\n        /* \"Qvoting.sol\":1201:1273  mapping(address => UserProposalLibrary.UserProposal) public userProposal */\n    tag_69:\n      mstore(0x20, 0x06)\n      dup1\n      0x00\n      mstore\n      keccak256(0x00, 0x40)\n      0x00\n      swap2\n      pop\n      swap1\n      pop\n      dup1\n      0x00\n      add\n      0x00\n      swap1\n      sload\n      swap1\n      0x0100\n      exp\n      swap1\n      div\n      0xffffffffffffffffffffffffffffffff\n      and\n      swap1\n      dup1\n      0x00\n      add\n      0x10\n      swap1\n      sload\n      swap1\n      0x0100\n      exp\n      swap1\n      div\n      0xffffffffffffffffffffffffffffffff\n      and\n      swap1\n      pop\n      dup3\n      jump\t// out\n        /* \"Library/ProposalLibrary.sol\":806:1983  function createProposal(proposal storage self, uint8 _status, address[] memory _voters, address _creator,\r... */\n    tag_103:\n        /* \"Library/ProposalLibrary.sol\":1044:1048  bool */\n      0x00\n        /* \"Library/ProposalLibrary.sol\":1099:1107  _creator */\n      dup8\n        /* \"Library/ProposalLibrary.sol\":1084:1088  self */\n      dup12\n        /* \"Library/ProposalLibrary.sol\":1084:1096  self.creator */\n      0x00\n      add\n      0x00\n        /* \"Library/ProposalLibrary.sol\":1084:1107  self.creator = _creator */\n      0x0100\n      exp\n      dup2\n      sload\n      dup2\n      0xffffffffffffffffffffffffffffffffffffffff\n      mul\n      not\n      and\n      swap1\n      dup4\n      0xffffffffffffffffffffffffffffffffffffffff\n      and\n      mul\n      or\n      swap1\n      sstore\n      pop\n        /* \"Library/ProposalLibrary.sol\":1156:1163  _status */\n      dup10\n        /* \"Library/ProposalLibrary.sol\":1142:1146  self */\n      dup12\n        /* \"Library/ProposalLibrary.sol\":1142:1153  self.status */\n      0x00\n      add\n      0x14\n        /* \"Library/ProposalLibrary.sol\":1142:1163  self.status = _status */\n      0x0100\n      exp\n      dup2\n      sload\n      dup2\n      0xff\n      mul\n      not\n      and\n      swap1\n      dup4\n      0xff\n      and\n      mul\n      or\n      swap1\n      sstore\n      pop\n        /* \"Library/ProposalLibrary.sol\":1210:1215  _disc */\n      dup5\n        /* \"Library/ProposalLibrary.sol\":1198:1202  self */\n      dup12\n        /* \"Library/ProposalLibrary.sol\":1198:1207  self.disc */\n      0x01\n      add\n        /* \"Library/ProposalLibrary.sol\":1198:1215  self.disc = _disc */\n      swap1\n      dup1\n      mload\n      swap1\n      0x20\n      add\n      swap1\n      tag_187\n      swap3\n      swap2\n      swap1\n      tag_188\n      jump\t// in\n    tag_187:\n      pop\n        /* \"Library/ProposalLibrary.sol\":1267:1277  _startTime */\n      dup7\n        /* \"Library/ProposalLibrary.sol\":1250:1254  self */\n      dup12\n        /* \"Library/ProposalLibrary.sol\":1250:1264  self.startTime */\n      0x02\n      add\n        /* \"Library/ProposalLibrary.sol\":1250:1277  self.startTime = _startTime */\n      dup2\n      swap1\n      sstore\n      pop\n        /* \"Library/ProposalLibrary.sol\":1334:1349  _expirationTime */\n      dup6\n        /* \"Library/ProposalLibrary.sol\":1312:1316  self */\n      dup12\n        /* \"Library/ProposalLibrary.sol\":1312:1331  self.expirationTime */\n      0x03\n      add\n        /* \"Library/ProposalLibrary.sol\":1312:1349  self.expirationTime = _expirationTime */\n      dup2\n      swap1\n      sstore\n      pop\n        /* \"Library/ProposalLibrary.sol\":1411:1416  _cand */\n      dup3\n      dup3\n        /* \"Library/ProposalLibrary.sol\":1411:1423  _cand.length */\n      swap1\n      pop\n        /* \"Library/ProposalLibrary.sol\":1384:1388  self */\n      dup12\n        /* \"Library/ProposalLibrary.sol\":1384:1401  self.numOfOptions */\n      0x04\n      add\n      0x00\n        /* \"Library/ProposalLibrary.sol\":1384:1424  self.numOfOptions = uint16(_cand.length) */\n      0x0100\n      exp\n      dup2\n      sload\n      dup2\n      0xffff\n      mul\n      not\n      and\n      swap1\n      dup4\n      0xffff\n      and\n      mul\n      or\n      swap1\n      sstore\n      pop\n        /* \"Library/ProposalLibrary.sol\":1476:1486  _voteRight */\n      dup4\n        /* \"Library/ProposalLibrary.sol\":1459:1463  self */\n      dup12\n        /* \"Library/ProposalLibrary.sol\":1459:1473  self.voteRight */\n      0x05\n      add\n        /* \"Library/ProposalLibrary.sol\":1459:1486  self.voteRight = _voteRight */\n      dup2\n      swap1\n      sstore\n      pop\n        /* \"Library/ProposalLibrary.sol\":1525:1534  uint256 i */\n      0x00\n        /* \"Library/ProposalLibrary.sol\":1521:1726  for(uint256 i=0;i<_cand.length;i++){\r... */\n    tag_189:\n        /* \"Library/ProposalLibrary.sol\":1539:1544  _cand */\n      dup4\n      dup4\n        /* \"Library/ProposalLibrary.sol\":1539:1551  _cand.length */\n      swap1\n      pop\n        /* \"Library/ProposalLibrary.sol\":1537:1538  i */\n      dup2\n        /* \"Library/ProposalLibrary.sol\":1537:1551  i<_cand.length */\n      lt\n        /* \"Library/ProposalLibrary.sol\":1521:1726  for(uint256 i=0;i<_cand.length;i++){\r... */\n      iszero\n      tag_190\n      jumpi\n        /* \"Library/ProposalLibrary.sol\":1617:1621  true */\n      0x01\n        /* \"Library/ProposalLibrary.sol\":1595:1599  self */\n      dup13\n        /* \"Library/ProposalLibrary.sol\":1595:1604  self.cand */\n      0x07\n      add\n        /* \"Library/ProposalLibrary.sol\":1605:1610  _cand */\n      dup6\n      dup6\n        /* \"Library/ProposalLibrary.sol\":1611:1612  i */\n      dup5\n        /* \"Library/ProposalLibrary.sol\":1605:1613  _cand[i] */\n      dup2\n      dup2\n      lt\n      tag_192\n      jumpi\n      tag_193\n      tag_112\n      jump\t// in\n    tag_193:\n    tag_192:\n      swap1\n      pop\n      0x20\n      mul\n      dup2\n      add\n      swap1\n      tag_194\n      swap2\n      swap1\n      tag_195\n      jump\t// in\n    tag_194:\n        /* \"Library/ProposalLibrary.sol\":1595:1614  self.cand[_cand[i]] */\n      mload(0x40)\n      tag_196\n      swap3\n      swap2\n      swap1\n      tag_197\n      jump\t// in\n    tag_196:\n      swap1\n      dup2\n      mstore\n      0x20\n      add\n      mload(0x40)\n      dup1\n      swap2\n      sub\n      swap1\n      keccak256\n      0x00\n        /* \"Library/ProposalLibrary.sol\":1595:1621  self.cand[_cand[i]] = true */\n      0x0100\n      exp\n      dup2\n      sload\n      dup2\n      0xff\n      mul\n      not\n      and\n      swap1\n      dup4\n      iszero\n      iszero\n      mul\n      or\n      swap1\n      sstore\n      pop\n        /* \"Library/ProposalLibrary.sol\":1682:1687  _cand */\n      dup4\n      dup4\n        /* \"Library/ProposalLibrary.sol\":1688:1689  i */\n      dup3\n        /* \"Library/ProposalLibrary.sol\":1682:1690  _cand[i] */\n      dup2\n      dup2\n      lt\n      tag_198\n      jumpi\n      tag_199\n      tag_112\n      jump\t// in\n    tag_199:\n    tag_198:\n      swap1\n      pop\n      0x20\n      mul\n      dup2\n      add\n      swap1\n      tag_200\n      swap2\n      swap1\n      tag_195\n      jump\t// in\n    tag_200:\n        /* \"Library/ProposalLibrary.sol\":1660:1664  self */\n      dup14\n        /* \"Library/ProposalLibrary.sol\":1660:1673  self.candHash */\n      0x08\n      add\n        /* \"Library/ProposalLibrary.sol\":1660:1678  self.candHash[i+1] */\n      0x00\n        /* \"Library/ProposalLibrary.sol\":1676:1677  1 */\n      0x01\n        /* \"Library/ProposalLibrary.sol\":1674:1675  i */\n      dup6\n        /* \"Library/ProposalLibrary.sol\":1674:1677  i+1 */\n      tag_201\n      swap2\n      swap1\n      tag_152\n      jump\t// in\n    tag_201:\n        /* \"Library/ProposalLibrary.sol\":1660:1678  self.candHash[i+1] */\n      dup2\n      mstore\n      0x20\n      add\n      swap1\n      dup2\n      mstore\n      0x20\n      add\n      0x00\n      keccak256\n        /* \"Library/ProposalLibrary.sol\":1660:1690  self.candHash[i+1] =  _cand[i] */\n      swap2\n      swap1\n      tag_202\n      swap3\n      swap2\n      swap1\n      tag_203\n      jump\t// in\n    tag_202:\n      pop\n        /* \"Library/ProposalLibrary.sol\":1552:1555  i++ */\n      dup1\n      dup1\n      tag_204\n      swap1\n      tag_101\n      jump\t// in\n    tag_204:\n      swap2\n      pop\n      pop\n        /* \"Library/ProposalLibrary.sol\":1521:1726  for(uint256 i=0;i<_cand.length;i++){\r... */\n      jump(tag_189)\n    tag_190:\n      pop\n        /* \"Library/ProposalLibrary.sol\":1764:1773  uint256 i */\n      0x00\n        /* \"Library/ProposalLibrary.sol\":1760:1902  for(uint256 i=0;i<_voters.length;i++){\r... */\n    tag_205:\n        /* \"Library/ProposalLibrary.sol\":1778:1785  _voters */\n      dup10\n        /* \"Library/ProposalLibrary.sol\":1778:1792  _voters.length */\n      mload\n        /* \"Library/ProposalLibrary.sol\":1776:1777  i */\n      dup2\n        /* \"Library/ProposalLibrary.sol\":1776:1792  i<_voters.length */\n      lt\n        /* \"Library/ProposalLibrary.sol\":1760:1902  for(uint256 i=0;i<_voters.length;i++){\r... */\n      iszero\n      tag_206\n      jumpi\n        /* \"Library/ProposalLibrary.sol\":1862:1866  true */\n      0x01\n        /* \"Library/ProposalLibrary.sol\":1836:1840  self */\n      dup13\n        /* \"Library/ProposalLibrary.sol\":1836:1847  self.voters */\n      0x06\n      add\n        /* \"Library/ProposalLibrary.sol\":1836:1859  self.voters[_voters[i]] */\n      0x00\n        /* \"Library/ProposalLibrary.sol\":1848:1855  _voters */\n      dup13\n        /* \"Library/ProposalLibrary.sol\":1856:1857  i */\n      dup5\n        /* \"Library/ProposalLibrary.sol\":1848:1858  _voters[i] */\n      dup2\n      mload\n      dup2\n      lt\n      tag_208\n      jumpi\n      tag_209\n      tag_112\n      jump\t// in\n    tag_209:\n    tag_208:\n      0x20\n      mul\n      0x20\n      add\n      add\n      mload\n        /* \"Library/ProposalLibrary.sol\":1836:1859  self.voters[_voters[i]] */\n      0xffffffffffffffffffffffffffffffffffffffff\n      and\n      0xffffffffffffffffffffffffffffffffffffffff\n      and\n      dup2\n      mstore\n      0x20\n      add\n      swap1\n      dup2\n      mstore\n      0x20\n      add\n      0x00\n      keccak256\n      0x00\n        /* \"Library/ProposalLibrary.sol\":1836:1866  self.voters[_voters[i]] = true */\n      0x0100\n      exp\n      dup2\n      sload\n      dup2\n      0xff\n      mul\n      not\n      and\n      swap1\n      dup4\n      iszero\n      iszero\n      mul\n      or\n      swap1\n      sstore\n      pop\n        /* \"Library/ProposalLibrary.sol\":1793:1796  i++ */\n      dup1\n      dup1\n      tag_210\n      swap1\n      tag_101\n      jump\t// in\n    tag_210:\n      swap2\n      pop\n      pop\n        /* \"Library/ProposalLibrary.sol\":1760:1902  for(uint256 i=0;i<_voters.length;i++){\r... */\n      jump(tag_205)\n    tag_206:\n      pop\n        /* \"Library/ProposalLibrary.sol\":1945:1949  true */\n      0x01\n        /* \"Library/ProposalLibrary.sol\":1938:1949  return true */\n      swap1\n      pop\n        /* \"Library/ProposalLibrary.sol\":806:1983  function createProposal(proposal storage self, uint8 _status, address[] memory _voters, address _creator,\r... */\n      swap11\n      swap10\n      pop\n      pop\n      pop\n      pop\n      pop\n      pop\n      pop\n      pop\n      pop\n      pop\n      jump\t// out\n        /* \"QvToken/QvToken.sol\":398:502  function mint(address to , uint amount) onlyOwner(_msgSender()) internal {\r... */\n    tag_113:\n        /* \"QvToken/QvToken.sol\":448:460  _msgSender() */\n      tag_211\n        /* \"QvToken/QvToken.sol\":448:458  _msgSender */\n      tag_127\n        /* \"QvToken/QvToken.sol\":448:460  _msgSender() */\n      jump\t// in\n    tag_211:\n        /* \"QvToken/QvToken.sol\":366:375  msgSender */\n      dup1\n        /* \"QvToken/QvToken.sol\":357:375  owner == msgSender */\n      0xffffffffffffffffffffffffffffffffffffffff\n      and\n        /* \"QvToken/QvToken.sol\":357:362  owner */\n      0x04\n      0x00\n      swap1\n      sload\n      swap1\n      0x0100\n      exp\n      swap1\n      div\n      0xffffffffffffffffffffffffffffffffffffffff\n      and\n        /* \"QvToken/QvToken.sol\":357:375  owner == msgSender */\n      0xffffffffffffffffffffffffffffffffffffffff\n      and\n      eq\n        /* \"QvToken/QvToken.sol\":349:376  require(owner == msgSender) */\n      tag_213\n      jumpi\n      0x00\n      dup1\n      revert\n    tag_213:\n        /* \"QvToken/QvToken.sol\":478:494  _mint(to,amount) */\n      tag_215\n        /* \"QvToken/QvToken.sol\":484:486  to */\n      dup4\n        /* \"QvToken/QvToken.sol\":487:493  amount */\n      dup4\n        /* \"QvToken/QvToken.sol\":478:483  _mint */\n      tag_216\n        /* \"QvToken/QvToken.sol\":478:494  _mint(to,amount) */\n      jump\t// in\n    tag_215:\n        /* \"QvToken/QvToken.sol\":398:502  function mint(address to , uint amount) onlyOwner(_msgSender()) internal {\r... */\n      pop\n      pop\n      pop\n      jump\t// out\n        /* \"Library/VoterLibrary.sol\":1090:1525  function createVoter(voter storage self, uint _proposalId, address _voterAddress, bool _hasVoted, uint _voteNum) internal returns(bool){\r... */\n    tag_119:\n        /* \"Library/VoterLibrary.sol\":1220:1224  bool */\n      0x00\n        /* \"Library/VoterLibrary.sol\":1278:1289  _proposalId */\n      dup5\n        /* \"Library/VoterLibrary.sol\":1260:1264  self */\n      dup7\n        /* \"Library/VoterLibrary.sol\":1260:1275  self.proposalId */\n      0x00\n      add\n        /* \"Library/VoterLibrary.sol\":1260:1289  self.proposalId = _proposalId */\n      dup2\n      swap1\n      sstore\n      pop\n        /* \"Library/VoterLibrary.sol\":1344:1357  _voterAddress */\n      dup4\n        /* \"Library/VoterLibrary.sol\":1324:1328  self */\n      dup7\n        /* \"Library/VoterLibrary.sol\":1324:1341  self.voterAddress */\n      0x01\n      add\n      0x00\n        /* \"Library/VoterLibrary.sol\":1324:1357  self.voterAddress = _voterAddress */\n      0x0100\n      exp\n      dup2\n      sload\n      dup2\n      0xffffffffffffffffffffffffffffffffffffffff\n      mul\n      not\n      and\n      swap1\n      dup4\n      0xffffffffffffffffffffffffffffffffffffffff\n      and\n      mul\n      or\n      swap1\n      sstore\n      pop\n        /* \"Library/VoterLibrary.sol\":1408:1417  _hasVoted */\n      dup3\n        /* \"Library/VoterLibrary.sol\":1392:1396  self */\n      dup7\n        /* \"Library/VoterLibrary.sol\":1392:1405  self.hasVoted */\n      0x01\n      add\n      0x14\n        /* \"Library/VoterLibrary.sol\":1392:1417  self.hasVoted = _hasVoted */\n      0x0100\n      exp\n      dup2\n      sload\n      dup2\n      0xff\n      mul\n      not\n      and\n      swap1\n      dup4\n      iszero\n      iszero\n      mul\n      or\n      swap1\n      sstore\n      pop\n        /* \"Library/VoterLibrary.sol\":1467:1475  _voteNum */\n      dup2\n        /* \"Library/VoterLibrary.sol\":1452:1456  self */\n      dup7\n        /* \"Library/VoterLibrary.sol\":1452:1464  self.voteNum */\n      0x02\n      add\n        /* \"Library/VoterLibrary.sol\":1452:1475  self.voteNum = _voteNum */\n      dup2\n      swap1\n      sstore\n      pop\n        /* \"Library/VoterLibrary.sol\":1517:1521  true */\n      0x01\n        /* \"Library/VoterLibrary.sol\":1510:1521  return true */\n      swap1\n      pop\n        /* \"Library/VoterLibrary.sol\":1090:1525  function createVoter(voter storage self, uint _proposalId, address _voterAddress, bool _hasVoted, uint _voteNum) internal returns(bool){\r... */\n      swap6\n      swap5\n      pop\n      pop\n      pop\n      pop\n      pop\n      jump\t// out\n        /* \"QvToken/Context.sol\":656:754  function _msgSender() internal view virtual returns (address) {\r... */\n    tag_127:\n        /* \"QvToken/Context.sol\":709:716  address */\n      0x00\n        /* \"QvToken/Context.sol\":736:746  msg.sender */\n      caller\n        /* \"QvToken/Context.sol\":729:746  return msg.sender */\n      swap1\n      pop\n        /* \"QvToken/Context.sol\":656:754  function _msgSender() internal view virtual returns (address) {\r... */\n      swap1\n      jump\t// out\n        /* \"Library/UserProposalLibrary.sol\":573:794  function updateProposalList(UserProposal storage self, uint _proposalId) internal returns(bool){\r... */\n    tag_128:\n        /* \"Library/UserProposalLibrary.sol\":663:667  bool */\n      0x00\n        /* \"Library/UserProposalLibrary.sol\":679:683  self */\n      dup3\n        /* \"Library/UserProposalLibrary.sol\":679:697  self.proposalCount */\n      0x00\n      add\n      0x00\n        /* \"Library/UserProposalLibrary.sol\":679:699  self.proposalCount++ */\n      dup2\n      dup2\n      swap1\n      sload\n      swap1\n      0x0100\n      exp\n      swap1\n      div\n      0xffffffffffffffffffffffffffffffff\n      and\n      dup1\n      swap3\n      swap2\n      swap1\n      tag_220\n      swap1\n      tag_221\n      jump\t// in\n    tag_220:\n      swap2\n      swap1\n      0x0100\n      exp\n      dup2\n      sload\n      dup2\n      0xffffffffffffffffffffffffffffffff\n      mul\n      not\n      and\n      swap1\n      dup4\n      0xffffffffffffffffffffffffffffffff\n      and\n      mul\n      or\n      swap1\n      sstore\n      pop\n      pop\n        /* \"Library/UserProposalLibrary.sol\":753:764  _proposalId */\n      dup2\n        /* \"Library/UserProposalLibrary.sol\":710:714  self */\n      dup4\n        /* \"Library/UserProposalLibrary.sol\":710:730  self.proposalCreated */\n      0x01\n      add\n        /* \"Library/UserProposalLibrary.sol\":710:750  self.proposalCreated[self.proposalCount] */\n      0x00\n        /* \"Library/UserProposalLibrary.sol\":731:735  self */\n      dup6\n        /* \"Library/UserProposalLibrary.sol\":731:749  self.proposalCount */\n      0x00\n      add\n      0x00\n      swap1\n      sload\n      swap1\n      0x0100\n      exp\n      swap1\n      div\n      0xffffffffffffffffffffffffffffffff\n      and\n        /* \"Library/UserProposalLibrary.sol\":710:750  self.proposalCreated[self.proposalCount] */\n      0xffffffffffffffffffffffffffffffff\n      and\n      0xffffffffffffffffffffffffffffffff\n      and\n      dup2\n      mstore\n      0x20\n      add\n      swap1\n      dup2\n      mstore\n      0x20\n      add\n      0x00\n      keccak256\n        /* \"Library/UserProposalLibrary.sol\":710:764  self.proposalCreated[self.proposalCount] = _proposalId */\n      dup2\n      swap1\n      sstore\n      pop\n        /* \"Library/UserProposalLibrary.sol\":782:786  true */\n      0x01\n        /* \"Library/UserProposalLibrary.sol\":775:786  return true */\n      swap1\n      pop\n        /* \"Library/UserProposalLibrary.sol\":573:794  function updateProposalList(UserProposal storage self, uint _proposalId) internal returns(bool){\r... */\n      swap3\n      swap2\n      pop\n      pop\n      jump\t// out\n        /* \"Library/ProposalLibrary.sol\":2018:3446  function responseProposal(proposal storage self, address _voter, string[] memory _hash, uint[] memory v) internal returns(bool){\r... */\n    tag_158:\n        /* \"Library/ProposalLibrary.sol\":2140:2144  bool */\n      0x00\n        /* \"Library/ProposalLibrary.sol\":2179:2180  2 */\n      0x02\n        /* \"Library/ProposalLibrary.sol\":2164:2168  self */\n      dup6\n        /* \"Library/ProposalLibrary.sol\":2164:2175  self.status */\n      0x00\n      add\n      0x14\n      swap1\n      sload\n      swap1\n      0x0100\n      exp\n      swap1\n      div\n      0xff\n      and\n        /* \"Library/ProposalLibrary.sol\":2164:2180  self.status == 2 */\n      0xff\n      and\n      eq\n        /* \"Library/ProposalLibrary.sol\":2156:2203  require(self.status == 2, \"Proposal: inactive\") */\n      tag_223\n      jumpi\n      mload(0x40)\n      0x08c379a000000000000000000000000000000000000000000000000000000000\n      dup2\n      mstore\n      0x04\n      add\n      tag_224\n      swap1\n      tag_225\n      jump\t// in\n    tag_224:\n      mload(0x40)\n      dup1\n      swap2\n      sub\n      swap1\n      revert\n    tag_223:\n        /* \"Library/ProposalLibrary.sol\":2241:2245  self */\n      dup5\n        /* \"Library/ProposalLibrary.sol\":2241:2255  self.startTime */\n      0x02\n      add\n      sload\n        /* \"Library/ProposalLibrary.sol\":2222:2237  block.timestamp */\n      timestamp\n        /* \"Library/ProposalLibrary.sol\":2222:2255  block.timestamp >= self.startTime */\n      lt\n      iszero\n        /* \"Library/ProposalLibrary.sol\":2214:2284  require(block.timestamp >= self.startTime, \"proposal not started yet\") */\n      tag_226\n      jumpi\n      mload(0x40)\n      0x08c379a000000000000000000000000000000000000000000000000000000000\n      dup2\n      mstore\n      0x04\n      add\n      tag_227\n      swap1\n      tag_228\n      jump\t// in\n    tag_227:\n      mload(0x40)\n      dup1\n      swap2\n      sub\n      swap1\n      revert\n    tag_226:\n        /* \"Library/ProposalLibrary.sol\":2313:2317  self */\n      dup5\n        /* \"Library/ProposalLibrary.sol\":2313:2332  self.expirationTime */\n      0x03\n      add\n      sload\n        /* \"Library/ProposalLibrary.sol\":2295:2310  block.timestamp */\n      timestamp\n        /* \"Library/ProposalLibrary.sol\":2295:2332  block.timestamp > self.expirationTime */\n      gt\n        /* \"Library/ProposalLibrary.sol\":2292:3147  if(block.timestamp > self.expirationTime){\r... */\n      iszero\n      tag_229\n      jumpi\n        /* \"Library/ProposalLibrary.sol\":2402:2403  2 */\n      0x02\n        /* \"Library/ProposalLibrary.sol\":2388:2392  self */\n      dup6\n        /* \"Library/ProposalLibrary.sol\":2388:2399  self.status */\n      0x00\n      add\n      0x14\n        /* \"Library/ProposalLibrary.sol\":2388:2403  self.status = 2 */\n      0x0100\n      exp\n      dup2\n      sload\n      dup2\n      0xff\n      mul\n      not\n      and\n      swap1\n      dup4\n      0xff\n      and\n      mul\n      or\n      swap1\n      sstore\n      pop\n        /* \"Library/ProposalLibrary.sol\":2418:2435  uint largestCount */\n      0x00\n        /* \"Library/ProposalLibrary.sol\":2438:2442  self */\n      dup6\n        /* \"Library/ProposalLibrary.sol\":2438:2448  self.votes */\n      0x0a\n      add\n        /* \"Library/ProposalLibrary.sol\":2449:2453  self */\n      dup7\n        /* \"Library/ProposalLibrary.sol\":2449:2462  self.candHash */\n      0x08\n      add\n        /* \"Library/ProposalLibrary.sol\":2449:2465  self.candHash[1] */\n      0x00\n        /* \"Library/ProposalLibrary.sol\":2463:2464  1 */\n      0x01\n        /* \"Library/ProposalLibrary.sol\":2449:2465  self.candHash[1] */\n      dup2\n      mstore\n      0x20\n      add\n      swap1\n      dup2\n      mstore\n      0x20\n      add\n      0x00\n      keccak256\n        /* \"Library/ProposalLibrary.sol\":2438:2466  self.votes[self.candHash[1]] */\n      mload(0x40)\n      tag_230\n      swap2\n      swap1\n      tag_180\n      jump\t// in\n    tag_230:\n      swap1\n      dup2\n      mstore\n      0x20\n      add\n      mload(0x40)\n      dup1\n      swap2\n      sub\n      swap1\n      keccak256\n      sload\n        /* \"Library/ProposalLibrary.sol\":2418:2466  uint largestCount = self.votes[self.candHash[1]] */\n      swap1\n      pop\n        /* \"Library/ProposalLibrary.sol\":2481:2497  uint winnerCount */\n      0x00\n        /* \"Library/ProposalLibrary.sol\":2500:2501  1 */\n      0x01\n        /* \"Library/ProposalLibrary.sol\":2481:2501  uint winnerCount = 1 */\n      swap1\n      pop\n        /* \"Library/ProposalLibrary.sol\":2533:2537  self */\n      dup7\n        /* \"Library/ProposalLibrary.sol\":2533:2546  self.candHash */\n      0x08\n      add\n        /* \"Library/ProposalLibrary.sol\":2533:2549  self.candHash[1] */\n      0x00\n        /* \"Library/ProposalLibrary.sol\":2547:2548  1 */\n      0x01\n        /* \"Library/ProposalLibrary.sol\":2533:2549  self.candHash[1] */\n      dup2\n      mstore\n      0x20\n      add\n      swap1\n      dup2\n      mstore\n      0x20\n      add\n      0x00\n      keccak256\n        /* \"Library/ProposalLibrary.sol\":2516:2520  self */\n      dup8\n        /* \"Library/ProposalLibrary.sol\":2516:2527  self.result */\n      0x09\n      add\n        /* \"Library/ProposalLibrary.sol\":2516:2530  self.result[1] */\n      0x00\n        /* \"Library/ProposalLibrary.sol\":2528:2529  1 */\n      0x01\n        /* \"Library/ProposalLibrary.sol\":2516:2530  self.result[1] */\n      dup2\n      mstore\n      0x20\n      add\n      swap1\n      dup2\n      mstore\n      0x20\n      add\n      0x00\n      keccak256\n        /* \"Library/ProposalLibrary.sol\":2516:2549  self.result[1] = self.candHash[1] */\n      swap1\n      dup1\n      sload\n      tag_231\n      swap1\n      tag_73\n      jump\t// in\n    tag_231:\n      tag_232\n      swap3\n      swap2\n      swap1\n      tag_233\n      jump\t// in\n    tag_232:\n      pop\n        /* \"Library/ProposalLibrary.sol\":2631:2639  uint16 i */\n      0x00\n        /* \"Library/ProposalLibrary.sol\":2642:2643  2 */\n      0x02\n        /* \"Library/ProposalLibrary.sol\":2631:2643  uint16 i = 2 */\n      swap1\n      pop\n        /* \"Library/ProposalLibrary.sol\":2627:3109  for(uint16 i = 2; i <= self.numOfOptions; i++){\r... */\n    tag_234:\n        /* \"Library/ProposalLibrary.sol\":2650:2654  self */\n      dup8\n        /* \"Library/ProposalLibrary.sol\":2650:2667  self.numOfOptions */\n      0x04\n      add\n      0x00\n      swap1\n      sload\n      swap1\n      0x0100\n      exp\n      swap1\n      div\n      0xffff\n      and\n        /* \"Library/ProposalLibrary.sol\":2645:2667  i <= self.numOfOptions */\n      0xffff\n      and\n        /* \"Library/ProposalLibrary.sol\":2645:2646  i */\n      dup2\n        /* \"Library/ProposalLibrary.sol\":2645:2667  i <= self.numOfOptions */\n      0xffff\n      and\n      gt\n        /* \"Library/ProposalLibrary.sol\":2627:3109  for(uint16 i = 2; i <= self.numOfOptions; i++){\r... */\n      tag_235\n      jumpi\n        /* \"Library/ProposalLibrary.sol\":2726:2738  largestCount */\n      dup3\n        /* \"Library/ProposalLibrary.sol\":2695:2699  self */\n      dup9\n        /* \"Library/ProposalLibrary.sol\":2695:2705  self.votes */\n      0x0a\n      add\n        /* \"Library/ProposalLibrary.sol\":2706:2710  self */\n      dup10\n        /* \"Library/ProposalLibrary.sol\":2706:2719  self.candHash */\n      0x08\n      add\n        /* \"Library/ProposalLibrary.sol\":2706:2722  self.candHash[i] */\n      0x00\n        /* \"Library/ProposalLibrary.sol\":2720:2721  i */\n      dup5\n        /* \"Library/ProposalLibrary.sol\":2706:2722  self.candHash[i] */\n      0xffff\n      and\n      dup2\n      mstore\n      0x20\n      add\n      swap1\n      dup2\n      mstore\n      0x20\n      add\n      0x00\n      keccak256\n        /* \"Library/ProposalLibrary.sol\":2695:2723  self.votes[self.candHash[i]] */\n      mload(0x40)\n      tag_237\n      swap2\n      swap1\n      tag_180\n      jump\t// in\n    tag_237:\n      swap1\n      dup2\n      mstore\n      0x20\n      add\n      mload(0x40)\n      dup1\n      swap2\n      sub\n      swap1\n      keccak256\n      sload\n        /* \"Library/ProposalLibrary.sol\":2695:2738  self.votes[self.candHash[i]] > largestCount */\n      gt\n        /* \"Library/ProposalLibrary.sol\":2692:3094  if(self.votes[self.candHash[i]] > largestCount){\r... */\n      iszero\n      tag_238\n      jumpi\n        /* \"Library/ProposalLibrary.sol\":2777:2781  self */\n      dup8\n        /* \"Library/ProposalLibrary.sol\":2777:2787  self.votes */\n      0x0a\n      add\n        /* \"Library/ProposalLibrary.sol\":2788:2792  self */\n      dup9\n        /* \"Library/ProposalLibrary.sol\":2788:2801  self.candHash */\n      0x08\n      add\n        /* \"Library/ProposalLibrary.sol\":2788:2804  self.candHash[i] */\n      0x00\n        /* \"Library/ProposalLibrary.sol\":2802:2803  i */\n      dup4\n        /* \"Library/ProposalLibrary.sol\":2788:2804  self.candHash[i] */\n      0xffff\n      and\n      dup2\n      mstore\n      0x20\n      add\n      swap1\n      dup2\n      mstore\n      0x20\n      add\n      0x00\n      keccak256\n        /* \"Library/ProposalLibrary.sol\":2777:2805  self.votes[self.candHash[i]] */\n      mload(0x40)\n      tag_239\n      swap2\n      swap1\n      tag_180\n      jump\t// in\n    tag_239:\n      swap1\n      dup2\n      mstore\n      0x20\n      add\n      mload(0x40)\n      dup1\n      swap2\n      sub\n      swap1\n      keccak256\n      sload\n        /* \"Library/ProposalLibrary.sol\":2762:2805  largestCount = self.votes[self.candHash[i]] */\n      swap3\n      pop\n        /* \"Library/ProposalLibrary.sol\":2842:2843  1 */\n      0x01\n        /* \"Library/ProposalLibrary.sol\":2828:2843  winnerCount = 1 */\n      swap2\n      pop\n        /* \"Library/ProposalLibrary.sol\":2883:2887  self */\n      dup8\n        /* \"Library/ProposalLibrary.sol\":2883:2896  self.candHash */\n      0x08\n      add\n        /* \"Library/ProposalLibrary.sol\":2883:2899  self.candHash[i] */\n      0x00\n        /* \"Library/ProposalLibrary.sol\":2897:2898  i */\n      dup3\n        /* \"Library/ProposalLibrary.sol\":2883:2899  self.candHash[i] */\n      0xffff\n      and\n      dup2\n      mstore\n      0x20\n      add\n      swap1\n      dup2\n      mstore\n      0x20\n      add\n      0x00\n      keccak256\n        /* \"Library/ProposalLibrary.sol\":2866:2870  self */\n      dup9\n        /* \"Library/ProposalLibrary.sol\":2866:2877  self.result */\n      0x09\n      add\n        /* \"Library/ProposalLibrary.sol\":2866:2880  self.result[1] */\n      0x00\n        /* \"Library/ProposalLibrary.sol\":2878:2879  1 */\n      0x01\n        /* \"Library/ProposalLibrary.sol\":2866:2880  self.result[1] */\n      dup2\n      mstore\n      0x20\n      add\n      swap1\n      dup2\n      mstore\n      0x20\n      add\n      0x00\n      keccak256\n        /* \"Library/ProposalLibrary.sol\":2866:2899  self.result[1] = self.candHash[i] */\n      swap1\n      dup1\n      sload\n      tag_240\n      swap1\n      tag_73\n      jump\t// in\n    tag_240:\n      tag_241\n      swap3\n      swap2\n      swap1\n      tag_233\n      jump\t// in\n    tag_241:\n      pop\n        /* \"Library/ProposalLibrary.sol\":2692:3094  if(self.votes[self.candHash[i]] > largestCount){\r... */\n      jump(tag_242)\n    tag_238:\n        /* \"Library/ProposalLibrary.sol\":2959:2971  largestCount */\n      dup3\n        /* \"Library/ProposalLibrary.sol\":2927:2931  self */\n      dup9\n        /* \"Library/ProposalLibrary.sol\":2927:2937  self.votes */\n      0x0a\n      add\n        /* \"Library/ProposalLibrary.sol\":2938:2942  self */\n      dup10\n        /* \"Library/ProposalLibrary.sol\":2938:2951  self.candHash */\n      0x08\n      add\n        /* \"Library/ProposalLibrary.sol\":2938:2954  self.candHash[i] */\n      0x00\n        /* \"Library/ProposalLibrary.sol\":2952:2953  i */\n      dup5\n        /* \"Library/ProposalLibrary.sol\":2938:2954  self.candHash[i] */\n      0xffff\n      and\n      dup2\n      mstore\n      0x20\n      add\n      swap1\n      dup2\n      mstore\n      0x20\n      add\n      0x00\n      keccak256\n        /* \"Library/ProposalLibrary.sol\":2927:2955  self.votes[self.candHash[i]] */\n      mload(0x40)\n      tag_243\n      swap2\n      swap1\n      tag_180\n      jump\t// in\n    tag_243:\n      swap1\n      dup2\n      mstore\n      0x20\n      add\n      mload(0x40)\n      dup1\n      swap2\n      sub\n      swap1\n      keccak256\n      sload\n        /* \"Library/ProposalLibrary.sol\":2927:2971  self.votes[self.candHash[i]] == largestCount */\n      eq\n        /* \"Library/ProposalLibrary.sol\":2924:3094  if(self.votes[self.candHash[i]] == largestCount){\r... */\n      iszero\n      tag_244\n      jumpi\n        /* \"Library/ProposalLibrary.sol\":2995:3008  winnerCount++ */\n      dup2\n      dup1\n      tag_245\n      swap1\n      tag_101\n      jump\t// in\n    tag_245:\n      swap3\n      pop\n      pop\n        /* \"Library/ProposalLibrary.sol\":3058:3062  self */\n      dup8\n        /* \"Library/ProposalLibrary.sol\":3058:3071  self.candHash */\n      0x08\n      add\n        /* \"Library/ProposalLibrary.sol\":3058:3074  self.candHash[i] */\n      0x00\n        /* \"Library/ProposalLibrary.sol\":3072:3073  i */\n      dup3\n        /* \"Library/ProposalLibrary.sol\":3058:3074  self.candHash[i] */\n      0xffff\n      and\n      dup2\n      mstore\n      0x20\n      add\n      swap1\n      dup2\n      mstore\n      0x20\n      add\n      0x00\n      keccak256\n        /* \"Library/ProposalLibrary.sol\":3031:3035  self */\n      dup9\n        /* \"Library/ProposalLibrary.sol\":3031:3042  self.result */\n      0x09\n      add\n        /* \"Library/ProposalLibrary.sol\":3031:3055  self.result[winnerCount] */\n      0x00\n        /* \"Library/ProposalLibrary.sol\":3043:3054  winnerCount */\n      dup5\n        /* \"Library/ProposalLibrary.sol\":3031:3055  self.result[winnerCount] */\n      dup2\n      mstore\n      0x20\n      add\n      swap1\n      dup2\n      mstore\n      0x20\n      add\n      0x00\n      keccak256\n        /* \"Library/ProposalLibrary.sol\":3031:3074  self.result[winnerCount] = self.candHash[i] */\n      swap1\n      dup1\n      sload\n      tag_246\n      swap1\n      tag_73\n      jump\t// in\n    tag_246:\n      tag_247\n      swap3\n      swap2\n      swap1\n      tag_233\n      jump\t// in\n    tag_247:\n      pop\n        /* \"Library/ProposalLibrary.sol\":2924:3094  if(self.votes[self.candHash[i]] == largestCount){\r... */\n    tag_244:\n        /* \"Library/ProposalLibrary.sol\":2692:3094  if(self.votes[self.candHash[i]] > largestCount){\r... */\n    tag_242:\n        /* \"Library/ProposalLibrary.sol\":2669:2672  i++ */\n      dup1\n      dup1\n      tag_248\n      swap1\n      tag_249\n      jump\t// in\n    tag_248:\n      swap2\n      pop\n      pop\n        /* \"Library/ProposalLibrary.sol\":2627:3109  for(uint16 i = 2; i <= self.numOfOptions; i++){\r... */\n      jump(tag_234)\n    tag_235:\n      pop\n        /* \"Library/ProposalLibrary.sol\":3130:3135  false */\n      0x00\n        /* \"Library/ProposalLibrary.sol\":3123:3135  return false */\n      swap3\n      pop\n      pop\n      pop\n      jump(tag_222)\n        /* \"Library/ProposalLibrary.sol\":2292:3147  if(block.timestamp > self.expirationTime){\r... */\n    tag_229:\n        /* \"Library/ProposalLibrary.sol\":3190:3194  self */\n      dup5\n        /* \"Library/ProposalLibrary.sol\":3190:3201  self.voters */\n      0x06\n      add\n        /* \"Library/ProposalLibrary.sol\":3190:3209  self.voters[_voter] */\n      0x00\n        /* \"Library/ProposalLibrary.sol\":3202:3208  _voter */\n      dup6\n        /* \"Library/ProposalLibrary.sol\":3190:3209  self.voters[_voter] */\n      0xffffffffffffffffffffffffffffffffffffffff\n      and\n      0xffffffffffffffffffffffffffffffffffffffff\n      and\n      dup2\n      mstore\n      0x20\n      add\n      swap1\n      dup2\n      mstore\n      0x20\n      add\n      0x00\n      keccak256\n      0x00\n      swap1\n      sload\n      swap1\n      0x0100\n      exp\n      swap1\n      div\n      0xff\n      and\n        /* \"Library/ProposalLibrary.sol\":3182:3249  require(self.voters[_voter], \"Not a valid voter for this proposal\") */\n      tag_250\n      jumpi\n      mload(0x40)\n      0x08c379a000000000000000000000000000000000000000000000000000000000\n      dup2\n      mstore\n      0x04\n      add\n      tag_251\n      swap1\n      tag_252\n      jump\t// in\n    tag_251:\n      mload(0x40)\n      dup1\n      swap2\n      sub\n      swap1\n      revert\n    tag_250:\n        /* \"Library/ProposalLibrary.sol\":3264:3272  uint16 i */\n      0x00\n        /* \"Library/ProposalLibrary.sol\":3260:3417  for(uint16 i=0;i<self.numOfOptions;i++){\r... */\n    tag_253:\n        /* \"Library/ProposalLibrary.sol\":3277:3281  self */\n      dup6\n        /* \"Library/ProposalLibrary.sol\":3277:3294  self.numOfOptions */\n      0x04\n      add\n      0x00\n      swap1\n      sload\n      swap1\n      0x0100\n      exp\n      swap1\n      div\n      0xffff\n      and\n        /* \"Library/ProposalLibrary.sol\":3275:3294  i<self.numOfOptions */\n      0xffff\n      and\n        /* \"Library/ProposalLibrary.sol\":3275:3276  i */\n      dup2\n        /* \"Library/ProposalLibrary.sol\":3275:3294  i<self.numOfOptions */\n      0xffff\n      and\n      lt\n        /* \"Library/ProposalLibrary.sol\":3260:3417  for(uint16 i=0;i<self.numOfOptions;i++){\r... */\n      iszero\n      tag_254\n      jumpi\n        /* \"Library/ProposalLibrary.sol\":3318:3322  self */\n      dup6\n        /* \"Library/ProposalLibrary.sol\":3318:3327  self.cand */\n      0x07\n      add\n        /* \"Library/ProposalLibrary.sol\":3328:3333  _hash */\n      dup5\n        /* \"Library/ProposalLibrary.sol\":3334:3335  i */\n      dup3\n        /* \"Library/ProposalLibrary.sol\":3328:3336  _hash[i] */\n      0xffff\n      and\n      dup2\n      mload\n      dup2\n      lt\n      tag_256\n      jumpi\n      tag_257\n      tag_112\n      jump\t// in\n    tag_257:\n    tag_256:\n      0x20\n      mul\n      0x20\n      add\n      add\n      mload\n        /* \"Library/ProposalLibrary.sol\":3318:3337  self.cand[_hash[i]] */\n      mload(0x40)\n      tag_258\n      swap2\n      swap1\n      tag_259\n      jump\t// in\n    tag_258:\n      swap1\n      dup2\n      mstore\n      0x20\n      add\n      mload(0x40)\n      dup1\n      swap2\n      sub\n      swap1\n      keccak256\n      0x00\n      swap1\n      sload\n      swap1\n      0x0100\n      exp\n      swap1\n      div\n      0xff\n      and\n        /* \"Library/ProposalLibrary.sol\":3310:3369  require(self.cand[_hash[i]], \"Proposal: invalid candidate\") */\n      tag_260\n      jumpi\n      mload(0x40)\n      0x08c379a000000000000000000000000000000000000000000000000000000000\n      dup2\n      mstore\n      0x04\n      add\n      tag_261\n      swap1\n      tag_262\n      jump\t// in\n    tag_261:\n      mload(0x40)\n      dup1\n      swap2\n      sub\n      swap1\n      revert\n    tag_260:\n        /* \"Library/ProposalLibrary.sol\":3401:3402  v */\n      dup3\n        /* \"Library/ProposalLibrary.sol\":3403:3404  i */\n      dup2\n        /* \"Library/ProposalLibrary.sol\":3401:3405  v[i] */\n      0xffff\n      and\n      dup2\n      mload\n      dup2\n      lt\n      tag_263\n      jumpi\n      tag_264\n      tag_112\n      jump\t// in\n    tag_264:\n    tag_263:\n      0x20\n      mul\n      0x20\n      add\n      add\n      mload\n        /* \"Library/ProposalLibrary.sol\":3380:3384  self */\n      dup7\n        /* \"Library/ProposalLibrary.sol\":3380:3390  self.votes */\n      0x0a\n      add\n        /* \"Library/ProposalLibrary.sol\":3391:3396  _hash */\n      dup6\n        /* \"Library/ProposalLibrary.sol\":3397:3398  i */\n      dup4\n        /* \"Library/ProposalLibrary.sol\":3391:3399  _hash[i] */\n      0xffff\n      and\n      dup2\n      mload\n      dup2\n      lt\n      tag_265\n      jumpi\n      tag_266\n      tag_112\n      jump\t// in\n    tag_266:\n    tag_265:\n      0x20\n      mul\n      0x20\n      add\n      add\n      mload\n        /* \"Library/ProposalLibrary.sol\":3380:3400  self.votes[_hash[i]] */\n      mload(0x40)\n      tag_267\n      swap2\n      swap1\n      tag_259\n      jump\t// in\n    tag_267:\n      swap1\n      dup2\n      mstore\n      0x20\n      add\n      mload(0x40)\n      dup1\n      swap2\n      sub\n      swap1\n      keccak256\n        /* \"Library/ProposalLibrary.sol\":3380:3405  self.votes[_hash[i]]=v[i] */\n      dup2\n      swap1\n      sstore\n      pop\n        /* \"Library/ProposalLibrary.sol\":3295:3298  i++ */\n      dup1\n      dup1\n      tag_268\n      swap1\n      tag_249\n      jump\t// in\n    tag_268:\n      swap2\n      pop\n      pop\n        /* \"Library/ProposalLibrary.sol\":3260:3417  for(uint16 i=0;i<self.numOfOptions;i++){\r... */\n      jump(tag_253)\n    tag_254:\n      pop\n        /* \"Library/ProposalLibrary.sol\":3434:3438  true */\n      0x01\n        /* \"Library/ProposalLibrary.sol\":3427:3438  return true */\n      swap1\n      pop\n        /* \"Library/ProposalLibrary.sol\":2018:3446  function responseProposal(proposal storage self, address _voter, string[] memory _hash, uint[] memory v) internal returns(bool){\r... */\n    tag_222:\n      swap5\n      swap4\n      pop\n      pop\n      pop\n      pop\n      jump\t// out\n        /* \"Library/UserProposalLibrary.sol\":802:1377  function updateResponseList(UserProposal storage self, uint _proposalId, string[] memory _hash) internal returns(bool){\r... */\n    tag_161:\n        /* \"Library/UserProposalLibrary.sol\":915:919  bool */\n      0x00\n        /* \"Library/UserProposalLibrary.sol\":931:935  self */\n      dup4\n        /* \"Library/UserProposalLibrary.sol\":931:949  self.responseCount */\n      0x00\n      add\n      0x10\n        /* \"Library/UserProposalLibrary.sol\":931:951  self.responseCount++ */\n      dup2\n      dup2\n      swap1\n      sload\n      swap1\n      0x0100\n      exp\n      swap1\n      div\n      0xffffffffffffffffffffffffffffffff\n      and\n      dup1\n      swap3\n      swap2\n      swap1\n      tag_270\n      swap1\n      tag_221\n      jump\t// in\n    tag_270:\n      swap2\n      swap1\n      0x0100\n      exp\n      dup2\n      sload\n      dup2\n      0xffffffffffffffffffffffffffffffff\n      mul\n      not\n      and\n      swap1\n      dup4\n      0xffffffffffffffffffffffffffffffff\n      and\n      mul\n      or\n      swap1\n      sstore\n      pop\n      pop\n        /* \"Library/UserProposalLibrary.sol\":1009:1020  _proposalId */\n      dup3\n        /* \"Library/UserProposalLibrary.sol\":964:968  self */\n      dup5\n        /* \"Library/UserProposalLibrary.sol\":964:986  self.proposalResponsed */\n      0x02\n      add\n        /* \"Library/UserProposalLibrary.sol\":964:1006  self.proposalResponsed[self.responseCount] */\n      0x00\n        /* \"Library/UserProposalLibrary.sol\":987:991  self */\n      dup7\n        /* \"Library/UserProposalLibrary.sol\":987:1005  self.responseCount */\n      0x00\n      add\n      0x10\n      swap1\n      sload\n      swap1\n      0x0100\n      exp\n      swap1\n      div\n      0xffffffffffffffffffffffffffffffff\n      and\n        /* \"Library/UserProposalLibrary.sol\":964:1006  self.proposalResponsed[self.responseCount] */\n      0xffffffffffffffffffffffffffffffff\n      and\n      0xffffffffffffffffffffffffffffffff\n      and\n      dup2\n      mstore\n      0x20\n      add\n      swap1\n      dup2\n      mstore\n      0x20\n      add\n      0x00\n      keccak256\n        /* \"Library/UserProposalLibrary.sol\":964:1020  self.proposalResponsed[self.responseCount] = _proposalId */\n      dup2\n      swap1\n      sstore\n      pop\n        /* \"Library/UserProposalLibrary.sol\":1190:1198  uint16 i */\n      0x00\n        /* \"Library/UserProposalLibrary.sol\":1186:1295  for(uint16 i=0;i<_hash.length;i++){\r... */\n    tag_271:\n        /* \"Library/UserProposalLibrary.sol\":1203:1208  _hash */\n      dup3\n        /* \"Library/UserProposalLibrary.sol\":1203:1215  _hash.length */\n      mload\n        /* \"Library/UserProposalLibrary.sol\":1201:1202  i */\n      dup2\n        /* \"Library/UserProposalLibrary.sol\":1201:1215  i<_hash.length */\n      0xffff\n      and\n      lt\n        /* \"Library/UserProposalLibrary.sol\":1186:1295  for(uint16 i=0;i<_hash.length;i++){\r... */\n      iszero\n      tag_272\n      jumpi\n        /* \"Library/UserProposalLibrary.sol\":1275:1280  _hash */\n      dup3\n        /* \"Library/UserProposalLibrary.sol\":1281:1282  i */\n      dup2\n        /* \"Library/UserProposalLibrary.sol\":1275:1283  _hash[i] */\n      0xffff\n      and\n      dup2\n      mload\n      dup2\n      lt\n      tag_274\n      jumpi\n      tag_275\n      tag_112\n      jump\t// in\n    tag_275:\n    tag_274:\n      0x20\n      mul\n      0x20\n      add\n      add\n      mload\n        /* \"Library/UserProposalLibrary.sol\":1235:1239  self */\n      dup6\n        /* \"Library/UserProposalLibrary.sol\":1235:1254  self.proposalAnswer */\n      0x03\n      add\n        /* \"Library/UserProposalLibrary.sol\":1235:1267  self.proposalAnswer[_proposalId] */\n      0x00\n        /* \"Library/UserProposalLibrary.sol\":1255:1266  _proposalId */\n      dup7\n        /* \"Library/UserProposalLibrary.sol\":1235:1267  self.proposalAnswer[_proposalId] */\n      dup2\n      mstore\n      0x20\n      add\n      swap1\n      dup2\n      mstore\n      0x20\n      add\n      0x00\n      keccak256\n        /* \"Library/UserProposalLibrary.sol\":1235:1272  self.proposalAnswer[_proposalId][i+1] */\n      0x00\n        /* \"Library/UserProposalLibrary.sol\":1270:1271  1 */\n      0x01\n        /* \"Library/UserProposalLibrary.sol\":1268:1269  i */\n      dup5\n        /* \"Library/UserProposalLibrary.sol\":1268:1271  i+1 */\n      tag_276\n      swap2\n      swap1\n      tag_277\n      jump\t// in\n    tag_276:\n        /* \"Library/UserProposalLibrary.sol\":1235:1272  self.proposalAnswer[_proposalId][i+1] */\n      0xffff\n      and\n      dup2\n      mstore\n      0x20\n      add\n      swap1\n      dup2\n      mstore\n      0x20\n      add\n      0x00\n      keccak256\n        /* \"Library/UserProposalLibrary.sol\":1235:1283  self.proposalAnswer[_proposalId][i+1] = _hash[i] */\n      swap1\n      dup1\n      mload\n      swap1\n      0x20\n      add\n      swap1\n      tag_278\n      swap3\n      swap2\n      swap1\n      tag_188\n      jump\t// in\n    tag_278:\n      pop\n        /* \"Library/UserProposalLibrary.sol\":1216:1219  i++ */\n      dup1\n      dup1\n      tag_279\n      swap1\n      tag_249\n      jump\t// in\n    tag_279:\n      swap2\n      pop\n      pop\n        /* \"Library/UserProposalLibrary.sol\":1186:1295  for(uint16 i=0;i<_hash.length;i++){\r... */\n      jump(tag_271)\n    tag_272:\n      pop\n        /* \"Library/UserProposalLibrary.sol\":1343:1347  true */\n      0x01\n        /* \"Library/UserProposalLibrary.sol\":1305:1309  self */\n      dup5\n        /* \"Library/UserProposalLibrary.sol\":1305:1327  self.responsedProposal */\n      0x04\n      add\n        /* \"Library/UserProposalLibrary.sol\":1305:1340  self.responsedProposal[_proposalId] */\n      0x00\n        /* \"Library/UserProposalLibrary.sol\":1328:1339  _proposalId */\n      dup6\n        /* \"Library/UserProposalLibrary.sol\":1305:1340  self.responsedProposal[_proposalId] */\n      dup2\n      mstore\n      0x20\n      add\n      swap1\n      dup2\n      mstore\n      0x20\n      add\n      0x00\n      keccak256\n      0x00\n        /* \"Library/UserProposalLibrary.sol\":1305:1347  self.responsedProposal[_proposalId] = true */\n      0x0100\n      exp\n      dup2\n      sload\n      dup2\n      0xff\n      mul\n      not\n      and\n      swap1\n      dup4\n      iszero\n      iszero\n      mul\n      or\n      swap1\n      sstore\n      pop\n        /* \"Library/UserProposalLibrary.sol\":1365:1369  true */\n      0x01\n        /* \"Library/UserProposalLibrary.sol\":1358:1369  return true */\n      swap1\n      pop\n        /* \"Library/UserProposalLibrary.sol\":802:1377  function updateResponseList(UserProposal storage self, uint _proposalId, string[] memory _hash) internal returns(bool){\r... */\n      swap4\n      swap3\n      pop\n      pop\n      pop\n      jump\t// out\n        /* \"Library/VoterLibrary.sol\":832:1063  function updateVoteNum(voter storage self) internal returns(bool){\r... */\n    tag_163:\n        /* \"Library/VoterLibrary.sol\":892:896  bool */\n      0x00\n        /* \"Library/VoterLibrary.sol\":931:932  0 */\n      dup1\n        /* \"Library/VoterLibrary.sol\":914:918  self */\n      dup3\n        /* \"Library/VoterLibrary.sol\":914:929  self.proposalId */\n      0x00\n      add\n      sload\n        /* \"Library/VoterLibrary.sol\":914:932  self.proposalId!=0 */\n      eq\n      iszero\n        /* \"Library/VoterLibrary.sol\":906:965  require(self.proposalId!=0,\"Invalid voter for proposalId!\") */\n      tag_281\n      jumpi\n      mload(0x40)\n      0x08c379a000000000000000000000000000000000000000000000000000000000\n      dup2\n      mstore\n      0x04\n      add\n      tag_282\n      swap1\n      tag_283\n      jump\t// in\n    tag_282:\n      mload(0x40)\n      dup1\n      swap2\n      sub\n      swap1\n      revert\n    tag_281:\n        /* \"Library/VoterLibrary.sol\":983:987  self */\n      dup2\n        /* \"Library/VoterLibrary.sol\":983:996  self.hasVoted */\n      0x01\n      add\n      0x14\n      swap1\n      sload\n      swap1\n      0x0100\n      exp\n      swap1\n      div\n      0xff\n      and\n        /* \"Library/VoterLibrary.sol\":982:996  !self.hasVoted */\n      iszero\n        /* \"Library/VoterLibrary.sol\":974:1010  require(!self.hasVoted, \"not voted\") */\n      tag_284\n      jumpi\n      mload(0x40)\n      0x08c379a000000000000000000000000000000000000000000000000000000000\n      dup2\n      mstore\n      0x04\n      add\n      tag_285\n      swap1\n      tag_286\n      jump\t// in\n    tag_285:\n      mload(0x40)\n      dup1\n      swap2\n      sub\n      swap1\n      revert\n    tag_284:\n        /* \"Library/VoterLibrary.sol\":1034:1035  0 */\n      0x00\n        /* \"Library/VoterLibrary.sol\":1019:1023  self */\n      dup3\n        /* \"Library/VoterLibrary.sol\":1019:1031  self.voteNum */\n      0x02\n      add\n        /* \"Library/VoterLibrary.sol\":1019:1035  self.voteNum = 0 */\n      dup2\n      swap1\n      sstore\n      pop\n        /* \"Library/VoterLibrary.sol\":1051:1055  true */\n      0x01\n        /* \"Library/VoterLibrary.sol\":1044:1055  return true */\n      swap1\n      pop\n        /* \"Library/VoterLibrary.sol\":832:1063  function updateVoteNum(voter storage self) internal returns(bool){\r... */\n      swap2\n      swap1\n      pop\n      jump\t// out\n        /* \"QvToken/QvToken.sol\":510:613  function burn(address to,uint amount) onlyOwner(_msgSender()) internal {\r... */\n    tag_165:\n        /* \"QvToken/QvToken.sol\":558:570  _msgSender() */\n      tag_287\n        /* \"QvToken/QvToken.sol\":558:568  _msgSender */\n      tag_127\n        /* \"QvToken/QvToken.sol\":558:570  _msgSender() */\n      jump\t// in\n    tag_287:\n        /* \"QvToken/QvToken.sol\":366:375  msgSender */\n      dup1\n        /* \"QvToken/QvToken.sol\":357:375  owner == msgSender */\n      0xffffffffffffffffffffffffffffffffffffffff\n      and\n        /* \"QvToken/QvToken.sol\":357:362  owner */\n      0x04\n      0x00\n      swap1\n      sload\n      swap1\n      0x0100\n      exp\n      swap1\n      div\n      0xffffffffffffffffffffffffffffffffffffffff\n      and\n        /* \"QvToken/QvToken.sol\":357:375  owner == msgSender */\n      0xffffffffffffffffffffffffffffffffffffffff\n      and\n      eq\n        /* \"QvToken/QvToken.sol\":349:376  require(owner == msgSender) */\n      tag_289\n      jumpi\n      0x00\n      dup1\n      revert\n    tag_289:\n        /* \"QvToken/QvToken.sol\":588:605  _burn(to, amount) */\n      tag_291\n        /* \"QvToken/QvToken.sol\":594:596  to */\n      dup4\n        /* \"QvToken/QvToken.sol\":598:604  amount */\n      dup4\n        /* \"QvToken/QvToken.sol\":588:593  _burn */\n      tag_292\n        /* \"QvToken/QvToken.sol\":588:605  _burn(to, amount) */\n      jump\t// in\n    tag_291:\n        /* \"QvToken/QvToken.sol\":510:613  function burn(address to,uint amount) onlyOwner(_msgSender()) internal {\r... */\n      pop\n      pop\n      pop\n      jump\t// out\n        /* \"QvToken/ERC20.sol\":3630:4033  function _mint(address account, uint256 amount) internal virtual {\r... */\n    tag_216:\n        /* \"QvToken/ERC20.sol\":3733:3734  0 */\n      0x00\n        /* \"QvToken/ERC20.sol\":3714:3735  account != address(0) */\n      0xffffffffffffffffffffffffffffffffffffffff\n      and\n        /* \"QvToken/ERC20.sol\":3714:3721  account */\n      dup3\n        /* \"QvToken/ERC20.sol\":3714:3735  account != address(0) */\n      0xffffffffffffffffffffffffffffffffffffffff\n      and\n      eq\n      iszero\n        /* \"QvToken/ERC20.sol\":3706:3771  require(account != address(0), \"ERC20: mint to the zero address\") */\n      tag_294\n      jumpi\n      mload(0x40)\n      0x08c379a000000000000000000000000000000000000000000000000000000000\n      dup2\n      mstore\n      0x04\n      add\n      tag_295\n      swap1\n      tag_296\n      jump\t// in\n    tag_295:\n      mload(0x40)\n      dup1\n      swap2\n      sub\n      swap1\n      revert\n    tag_294:\n        /* \"QvToken/ERC20.sol\":3865:3871  amount */\n      dup1\n        /* \"QvToken/ERC20.sol\":3849:3861  _totalSupply */\n      0x01\n      0x00\n        /* \"QvToken/ERC20.sol\":3849:3871  _totalSupply += amount */\n      dup3\n      dup3\n      sload\n      tag_297\n      swap2\n      swap1\n      tag_152\n      jump\t// in\n    tag_297:\n      swap3\n      pop\n      pop\n      dup2\n      swap1\n      sstore\n      pop\n        /* \"QvToken/ERC20.sol\":3904:3910  amount */\n      dup1\n        /* \"QvToken/ERC20.sol\":3882:3891  _balances */\n      0x00\n        /* \"QvToken/ERC20.sol\":3882:3900  _balances[account] */\n      dup1\n        /* \"QvToken/ERC20.sol\":3892:3899  account */\n      dup5\n        /* \"QvToken/ERC20.sol\":3882:3900  _balances[account] */\n      0xffffffffffffffffffffffffffffffffffffffff\n      and\n      0xffffffffffffffffffffffffffffffffffffffff\n      and\n      dup2\n      mstore\n      0x20\n      add\n      swap1\n      dup2\n      mstore\n      0x20\n      add\n      0x00\n      keccak256\n      0x00\n        /* \"QvToken/ERC20.sol\":3882:3910  _balances[account] += amount */\n      dup3\n      dup3\n      sload\n      tag_298\n      swap2\n      swap1\n      tag_152\n      jump\t// in\n    tag_298:\n      swap3\n      pop\n      pop\n      dup2\n      swap1\n      sstore\n      pop\n        /* \"QvToken/ERC20.sol\":3926:3961  mintAndburn(\"mint\",account, amount) */\n      0xabf5327be9f5825c40d58bda541dd07f09b62df3376bbd5ecdbaa8bd82a9d492\n        /* \"QvToken/ERC20.sol\":3945:3952  account */\n      dup3\n        /* \"QvToken/ERC20.sol\":3954:3960  amount */\n      dup3\n        /* \"QvToken/ERC20.sol\":3926:3961  mintAndburn(\"mint\",account, amount) */\n      mload(0x40)\n      tag_299\n      swap3\n      swap2\n      swap1\n      tag_123\n      jump\t// in\n    tag_299:\n      mload(0x40)\n      dup1\n      swap2\n      sub\n      swap1\n      log1\n        /* \"QvToken/ERC20.sol\":3630:4033  function _mint(address account, uint256 amount) internal virtual {\r... */\n      pop\n      pop\n      jump\t// out\n        /* \"QvToken/ERC20.sol\":4045:4640  function _burn(address account, uint256 amount) internal virtual {\r... */\n    tag_292:\n        /* \"QvToken/ERC20.sol\":4148:4149  0 */\n      0x00\n        /* \"QvToken/ERC20.sol\":4129:4150  account != address(0) */\n      0xffffffffffffffffffffffffffffffffffffffff\n      and\n        /* \"QvToken/ERC20.sol\":4129:4136  account */\n      dup3\n        /* \"QvToken/ERC20.sol\":4129:4150  account != address(0) */\n      0xffffffffffffffffffffffffffffffffffffffff\n      and\n      eq\n      iszero\n        /* \"QvToken/ERC20.sol\":4121:4188  require(account != address(0), \"ERC20: burn from the zero address\") */\n      tag_301\n      jumpi\n      mload(0x40)\n      0x08c379a000000000000000000000000000000000000000000000000000000000\n      dup2\n      mstore\n      0x04\n      add\n      tag_302\n      swap1\n      tag_303\n      jump\t// in\n    tag_302:\n      mload(0x40)\n      dup1\n      swap2\n      sub\n      swap1\n      revert\n    tag_301:\n        /* \"QvToken/ERC20.sol\":4266:4288  uint256 accountBalance */\n      0x00\n        /* \"QvToken/ERC20.sol\":4291:4300  _balances */\n      dup1\n        /* \"QvToken/ERC20.sol\":4291:4309  _balances[account] */\n      0x00\n        /* \"QvToken/ERC20.sol\":4301:4308  account */\n      dup5\n        /* \"QvToken/ERC20.sol\":4291:4309  _balances[account] */\n      0xffffffffffffffffffffffffffffffffffffffff\n      and\n      0xffffffffffffffffffffffffffffffffffffffff\n      and\n      dup2\n      mstore\n      0x20\n      add\n      swap1\n      dup2\n      mstore\n      0x20\n      add\n      0x00\n      keccak256\n      sload\n        /* \"QvToken/ERC20.sol\":4266:4309  uint256 accountBalance = _balances[account] */\n      swap1\n      pop\n        /* \"QvToken/ERC20.sol\":4346:4352  amount */\n      dup2\n        /* \"QvToken/ERC20.sol\":4328:4342  accountBalance */\n      dup2\n        /* \"QvToken/ERC20.sol\":4328:4352  accountBalance >= amount */\n      lt\n      iszero\n        /* \"QvToken/ERC20.sol\":4320:4391  require(accountBalance >= amount, \"ERC20: burn amount exceeds balance\") */\n      tag_304\n      jumpi\n      mload(0x40)\n      0x08c379a000000000000000000000000000000000000000000000000000000000\n      dup2\n      mstore\n      0x04\n      add\n      tag_305\n      swap1\n      tag_306\n      jump\t// in\n    tag_305:\n      mload(0x40)\n      dup1\n      swap2\n      sub\n      swap1\n      revert\n    tag_304:\n        /* \"QvToken/ERC20.sol\":4465:4471  amount */\n      dup2\n        /* \"QvToken/ERC20.sol\":4448:4462  accountBalance */\n      dup2\n        /* \"QvToken/ERC20.sol\":4448:4471  accountBalance - amount */\n      sub\n        /* \"QvToken/ERC20.sol\":4427:4436  _balances */\n      0x00\n        /* \"QvToken/ERC20.sol\":4427:4445  _balances[account] */\n      dup1\n        /* \"QvToken/ERC20.sol\":4437:4444  account */\n      dup6\n        /* \"QvToken/ERC20.sol\":4427:4445  _balances[account] */\n      0xffffffffffffffffffffffffffffffffffffffff\n      and\n      0xffffffffffffffffffffffffffffffffffffffff\n      and\n      dup2\n      mstore\n      0x20\n      add\n      swap1\n      dup2\n      mstore\n      0x20\n      add\n      0x00\n      keccak256\n        /* \"QvToken/ERC20.sol\":4427:4471  _balances[account] = accountBalance - amount */\n      dup2\n      swap1\n      sstore\n      pop\n        /* \"QvToken/ERC20.sol\":4509:4515  amount */\n      dup2\n        /* \"QvToken/ERC20.sol\":4493:4505  _totalSupply */\n      0x01\n      0x00\n        /* \"QvToken/ERC20.sol\":4493:4515  _totalSupply -= amount */\n      dup3\n      dup3\n      sload\n      tag_307\n      swap2\n      swap1\n      tag_308\n      jump\t// in\n    tag_307:\n      swap3\n      pop\n      pop\n      dup2\n      swap1\n      sstore\n      pop\n        /* \"QvToken/ERC20.sol\":4533:4568  mintAndburn(\"burn\",account, amount) */\n      0xabf5327be9f5825c40d58bda541dd07f09b62df3376bbd5ecdbaa8bd82a9d492\n        /* \"QvToken/ERC20.sol\":4552:4559  account */\n      dup4\n        /* \"QvToken/ERC20.sol\":4561:4567  amount */\n      dup4\n        /* \"QvToken/ERC20.sol\":4533:4568  mintAndburn(\"burn\",account, amount) */\n      mload(0x40)\n      tag_309\n      swap3\n      swap2\n      swap1\n      tag_167\n      jump\t// in\n    tag_309:\n      mload(0x40)\n      dup1\n      swap2\n      sub\n      swap1\n      log1\n        /* \"QvToken/ERC20.sol\":4110:4640  {\r... */\n      pop\n        /* \"QvToken/ERC20.sol\":4045:4640  function _burn(address account, uint256 amount) internal virtual {\r... */\n      pop\n      pop\n      jump\t// out\n    tag_188:\n      dup3\n      dup1\n      sload\n      tag_310\n      swap1\n      tag_73\n      jump\t// in\n    tag_310:\n      swap1\n      0x00\n      mstore\n      keccak256(0x00, 0x20)\n      swap1\n      0x1f\n      add\n      0x20\n      swap1\n      div\n      dup2\n      add\n      swap3\n      dup3\n      tag_312\n      jumpi\n      0x00\n      dup6\n      sstore\n      jump(tag_311)\n    tag_312:\n      dup3\n      0x1f\n      lt\n      tag_313\n      jumpi\n      dup1\n      mload\n      not(0xff)\n      and\n      dup4\n      dup1\n      add\n      or\n      dup6\n      sstore\n      jump(tag_311)\n    tag_313:\n      dup3\n      dup1\n      add\n      0x01\n      add\n      dup6\n      sstore\n      dup3\n      iszero\n      tag_311\n      jumpi\n      swap2\n      dup3\n      add\n    tag_314:\n      dup3\n      dup2\n      gt\n      iszero\n      tag_315\n      jumpi\n      dup3\n      mload\n      dup3\n      sstore\n      swap2\n      0x20\n      add\n      swap2\n      swap1\n      0x01\n      add\n      swap1\n      jump(tag_314)\n    tag_315:\n    tag_311:\n      pop\n      swap1\n      pop\n      tag_316\n      swap2\n      swap1\n      tag_317\n      jump\t// in\n    tag_316:\n      pop\n      swap1\n      jump\t// out\n    tag_203:\n      dup3\n      dup1\n      sload\n      tag_318\n      swap1\n      tag_73\n      jump\t// in\n    tag_318:\n      swap1\n      0x00\n      mstore\n      keccak256(0x00, 0x20)\n      swap1\n      0x1f\n      add\n      0x20\n      swap1\n      div\n      dup2\n      add\n      swap3\n      dup3\n      tag_320\n      jumpi\n      0x00\n      dup6\n      sstore\n      jump(tag_319)\n    tag_320:\n      dup3\n      0x1f\n      lt\n      tag_321\n      jumpi\n      dup1\n      calldataload\n      not(0xff)\n      and\n      dup4\n      dup1\n      add\n      or\n      dup6\n      sstore\n      jump(tag_319)\n    tag_321:\n      dup3\n      dup1\n      add\n      0x01\n      add\n      dup6\n      sstore\n      dup3\n      iszero\n      tag_319\n      jumpi\n      swap2\n      dup3\n      add\n    tag_322:\n      dup3\n      dup2\n      gt\n      iszero\n      tag_323\n      jumpi\n      dup3\n      calldataload\n      dup3\n      sstore\n      swap2\n      0x20\n      add\n      swap2\n      swap1\n      0x01\n      add\n      swap1\n      jump(tag_322)\n    tag_323:\n    tag_319:\n      pop\n      swap1\n      pop\n      tag_324\n      swap2\n      swap1\n      tag_317\n      jump\t// in\n    tag_324:\n      pop\n      swap1\n      jump\t// out\n    tag_233:\n      dup3\n      dup1\n      sload\n      tag_325\n      swap1\n      tag_73\n      jump\t// in\n    tag_325:\n      swap1\n      0x00\n      mstore\n      keccak256(0x00, 0x20)\n      swap1\n      0x1f\n      add\n      0x20\n      swap1\n      div\n      dup2\n      add\n      swap3\n      dup3\n      tag_327\n      jumpi\n      0x00\n      dup6\n      sstore\n      jump(tag_326)\n    tag_327:\n      dup3\n      0x1f\n      lt\n      tag_328\n      jumpi\n      dup1\n      sload\n      dup6\n      sstore\n      jump(tag_326)\n    tag_328:\n      dup3\n      dup1\n      add\n      0x01\n      add\n      dup6\n      sstore\n      dup3\n      iszero\n      tag_326\n      jumpi\n      0x00\n      mstore\n      keccak256(0x00, 0x20)\n      swap2\n      0x1f\n      add\n      0x20\n      swap1\n      div\n      dup3\n      add\n    tag_329:\n      dup3\n      dup2\n      gt\n      iszero\n      tag_330\n      jumpi\n      dup3\n      sload\n      dup3\n      sstore\n      swap2\n      0x01\n      add\n      swap2\n      swap1\n      0x01\n      add\n      swap1\n      jump(tag_329)\n    tag_330:\n    tag_326:\n      pop\n      swap1\n      pop\n      tag_331\n      swap2\n      swap1\n      tag_317\n      jump\t// in\n    tag_331:\n      pop\n      swap1\n      jump\t// out\n    tag_317:\n    tag_332:\n      dup1\n      dup3\n      gt\n      iszero\n      tag_333\n      jumpi\n      0x00\n      dup2\n      0x00\n      swap1\n      sstore\n      pop\n      0x01\n      add\n      jump(tag_332)\n    tag_333:\n      pop\n      swap1\n      jump\t// out\n        /* \"#utility.yul\":24:746   */\n    tag_335:\n        /* \"#utility.yul\":120:125   */\n      0x00\n        /* \"#utility.yul\":145:226   */\n      tag_337\n        /* \"#utility.yul\":161:225   */\n      tag_338\n        /* \"#utility.yul\":218:224   */\n      dup5\n        /* \"#utility.yul\":161:225   */\n      tag_339\n      jump\t// in\n    tag_338:\n        /* \"#utility.yul\":145:226   */\n      tag_340\n      jump\t// in\n    tag_337:\n        /* \"#utility.yul\":136:226   */\n      swap1\n      pop\n        /* \"#utility.yul\":246:251   */\n      dup1\n        /* \"#utility.yul\":275:281   */\n      dup4\n        /* \"#utility.yul\":268:273   */\n      dup3\n        /* \"#utility.yul\":261:282   */\n      mstore\n        /* \"#utility.yul\":309:313   */\n      0x20\n        /* \"#utility.yul\":302:307   */\n      dup3\n        /* \"#utility.yul\":298:314   */\n      add\n        /* \"#utility.yul\":291:314   */\n      swap1\n      pop\n        /* \"#utility.yul\":335:341   */\n      dup3\n        /* \"#utility.yul\":385:388   */\n      dup6\n        /* \"#utility.yul\":377:381   */\n      0x20\n        /* \"#utility.yul\":369:375   */\n      dup7\n        /* \"#utility.yul\":365:382   */\n      mul\n        /* \"#utility.yul\":360:363   */\n      dup3\n        /* \"#utility.yul\":356:383   */\n      add\n        /* \"#utility.yul\":353:389   */\n      gt\n        /* \"#utility.yul\":350:493   */\n      iszero\n      tag_341\n      jumpi\n        /* \"#utility.yul\":404:483   */\n      tag_342\n      tag_343\n      jump\t// in\n    tag_342:\n        /* \"#utility.yul\":350:493   */\n    tag_341:\n        /* \"#utility.yul\":517:518   */\n      0x00\n        /* \"#utility.yul\":502:740   */\n    tag_344:\n        /* \"#utility.yul\":527:533   */\n      dup6\n        /* \"#utility.yul\":524:525   */\n      dup2\n        /* \"#utility.yul\":521:534   */\n      lt\n        /* \"#utility.yul\":502:740   */\n      iszero\n      tag_346\n      jumpi\n        /* \"#utility.yul\":595:598   */\n      dup2\n        /* \"#utility.yul\":624:661   */\n      tag_347\n        /* \"#utility.yul\":657:660   */\n      dup9\n        /* \"#utility.yul\":645:655   */\n      dup3\n        /* \"#utility.yul\":624:661   */\n      tag_348\n      jump\t// in\n    tag_347:\n        /* \"#utility.yul\":619:622   */\n      dup5\n        /* \"#utility.yul\":612:662   */\n      mstore\n        /* \"#utility.yul\":691:695   */\n      0x20\n        /* \"#utility.yul\":686:689   */\n      dup5\n        /* \"#utility.yul\":682:696   */\n      add\n        /* \"#utility.yul\":675:696   */\n      swap4\n      pop\n        /* \"#utility.yul\":725:729   */\n      0x20\n        /* \"#utility.yul\":720:723   */\n      dup4\n        /* \"#utility.yul\":716:730   */\n      add\n        /* \"#utility.yul\":709:730   */\n      swap3\n      pop\n        /* \"#utility.yul\":562:740   */\n      pop\n        /* \"#utility.yul\":549:550   */\n      0x01\n        /* \"#utility.yul\":546:547   */\n      dup2\n        /* \"#utility.yul\":542:551   */\n      add\n        /* \"#utility.yul\":537:551   */\n      swap1\n      pop\n        /* \"#utility.yul\":502:740   */\n      jump(tag_344)\n    tag_346:\n        /* \"#utility.yul\":506:520   */\n      pop\n        /* \"#utility.yul\":126:746   */\n      pop\n      pop\n        /* \"#utility.yul\":24:746   */\n      swap4\n      swap3\n      pop\n      pop\n      pop\n      jump\t// out\n        /* \"#utility.yul\":768:1725   */\n    tag_349:\n        /* \"#utility.yul\":874:879   */\n      0x00\n        /* \"#utility.yul\":899:990   */\n      tag_351\n        /* \"#utility.yul\":915:989   */\n      tag_352\n        /* \"#utility.yul\":982:988   */\n      dup5\n        /* \"#utility.yul\":915:989   */\n      tag_353\n      jump\t// in\n    tag_352:\n        /* \"#utility.yul\":899:990   */\n      tag_340\n      jump\t// in\n    tag_351:\n        /* \"#utility.yul\":890:990   */\n      swap1\n      pop\n        /* \"#utility.yul\":1010:1015   */\n      dup1\n        /* \"#utility.yul\":1039:1045   */\n      dup4\n        /* \"#utility.yul\":1032:1037   */\n      dup3\n        /* \"#utility.yul\":1025:1046   */\n      mstore\n        /* \"#utility.yul\":1073:1077   */\n      0x20\n        /* \"#utility.yul\":1066:1071   */\n      dup3\n        /* \"#utility.yul\":1062:1078   */\n      add\n        /* \"#utility.yul\":1055:1078   */\n      swap1\n      pop\n        /* \"#utility.yul\":1099:1105   */\n      dup3\n        /* \"#utility.yul\":1149:1152   */\n      dup6\n        /* \"#utility.yul\":1141:1145   */\n      0x20\n        /* \"#utility.yul\":1133:1139   */\n      dup7\n        /* \"#utility.yul\":1129:1146   */\n      mul\n        /* \"#utility.yul\":1124:1127   */\n      dup3\n        /* \"#utility.yul\":1120:1147   */\n      add\n        /* \"#utility.yul\":1117:1153   */\n      gt\n        /* \"#utility.yul\":1114:1257   */\n      iszero\n      tag_354\n      jumpi\n        /* \"#utility.yul\":1168:1247   */\n      tag_355\n      tag_343\n      jump\t// in\n    tag_355:\n        /* \"#utility.yul\":1114:1257   */\n    tag_354:\n        /* \"#utility.yul\":1281:1282   */\n      0x00\n        /* \"#utility.yul\":1266:1719   */\n    tag_356:\n        /* \"#utility.yul\":1291:1297   */\n      dup6\n        /* \"#utility.yul\":1288:1289   */\n      dup2\n        /* \"#utility.yul\":1285:1298   */\n      lt\n        /* \"#utility.yul\":1266:1719   */\n      iszero\n      tag_358\n      jumpi\n        /* \"#utility.yul\":1373:1376   */\n      dup2\n        /* \"#utility.yul\":1360:1377   */\n      calldataload\n        /* \"#utility.yul\":1409:1427   */\n      0xffffffffffffffff\n        /* \"#utility.yul\":1396:1407   */\n      dup2\n        /* \"#utility.yul\":1393:1428   */\n      gt\n        /* \"#utility.yul\":1390:1512   */\n      iszero\n      tag_359\n      jumpi\n        /* \"#utility.yul\":1431:1510   */\n      tag_360\n      tag_361\n      jump\t// in\n    tag_360:\n        /* \"#utility.yul\":1390:1512   */\n    tag_359:\n        /* \"#utility.yul\":1555:1566   */\n      dup1\n        /* \"#utility.yul\":1547:1553   */\n      dup7\n        /* \"#utility.yul\":1543:1567   */\n      add\n        /* \"#utility.yul\":1593:1640   */\n      tag_362\n        /* \"#utility.yul\":1636:1639   */\n      dup10\n        /* \"#utility.yul\":1624:1634   */\n      dup3\n        /* \"#utility.yul\":1593:1640   */\n      tag_363\n      jump\t// in\n    tag_362:\n        /* \"#utility.yul\":1588:1591   */\n      dup6\n        /* \"#utility.yul\":1581:1641   */\n      mstore\n        /* \"#utility.yul\":1670:1674   */\n      0x20\n        /* \"#utility.yul\":1665:1668   */\n      dup6\n        /* \"#utility.yul\":1661:1675   */\n      add\n        /* \"#utility.yul\":1654:1675   */\n      swap5\n      pop\n        /* \"#utility.yul\":1704:1708   */\n      0x20\n        /* \"#utility.yul\":1699:1702   */\n      dup5\n        /* \"#utility.yul\":1695:1709   */\n      add\n        /* \"#utility.yul\":1688:1709   */\n      swap4\n      pop\n        /* \"#utility.yul\":1326:1719   */\n      pop\n      pop\n        /* \"#utility.yul\":1313:1314   */\n      0x01\n        /* \"#utility.yul\":1310:1311   */\n      dup2\n        /* \"#utility.yul\":1306:1315   */\n      add\n        /* \"#utility.yul\":1301:1315   */\n      swap1\n      pop\n        /* \"#utility.yul\":1266:1719   */\n      jump(tag_356)\n    tag_358:\n        /* \"#utility.yul\":1270:1284   */\n      pop\n        /* \"#utility.yul\":880:1725   */\n      pop\n      pop\n        /* \"#utility.yul\":768:1725   */\n      swap4\n      swap3\n      pop\n      pop\n      pop\n      jump\t// out\n        /* \"#utility.yul\":1748:2470   */\n    tag_364:\n        /* \"#utility.yul\":1844:1849   */\n      0x00\n        /* \"#utility.yul\":1869:1950   */\n      tag_366\n        /* \"#utility.yul\":1885:1949   */\n      tag_367\n        /* \"#utility.yul\":1942:1948   */\n      dup5\n        /* \"#utility.yul\":1885:1949   */\n      tag_368\n      jump\t// in\n    tag_367:\n        /* \"#utility.yul\":1869:1950   */\n      tag_340\n      jump\t// in\n    tag_366:\n        /* \"#utility.yul\":1860:1950   */\n      swap1\n      pop\n        /* \"#utility.yul\":1970:1975   */\n      dup1\n        /* \"#utility.yul\":1999:2005   */\n      dup4\n        /* \"#utility.yul\":1992:1997   */\n      dup3\n        /* \"#utility.yul\":1985:2006   */\n      mstore\n        /* \"#utility.yul\":2033:2037   */\n      0x20\n        /* \"#utility.yul\":2026:2031   */\n      dup3\n        /* \"#utility.yul\":2022:2038   */\n      add\n        /* \"#utility.yul\":2015:2038   */\n      swap1\n      pop\n        /* \"#utility.yul\":2059:2065   */\n      dup3\n        /* \"#utility.yul\":2109:2112   */\n      dup6\n        /* \"#utility.yul\":2101:2105   */\n      0x20\n        /* \"#utility.yul\":2093:2099   */\n      dup7\n        /* \"#utility.yul\":2089:2106   */\n      mul\n        /* \"#utility.yul\":2084:2087   */\n      dup3\n        /* \"#utility.yul\":2080:2107   */\n      add\n        /* \"#utility.yul\":2077:2113   */\n      gt\n        /* \"#utility.yul\":2074:2217   */\n      iszero\n      tag_369\n      jumpi\n        /* \"#utility.yul\":2128:2207   */\n      tag_370\n      tag_343\n      jump\t// in\n    tag_370:\n        /* \"#utility.yul\":2074:2217   */\n    tag_369:\n        /* \"#utility.yul\":2241:2242   */\n      0x00\n        /* \"#utility.yul\":2226:2464   */\n    tag_371:\n        /* \"#utility.yul\":2251:2257   */\n      dup6\n        /* \"#utility.yul\":2248:2249   */\n      dup2\n        /* \"#utility.yul\":2245:2258   */\n      lt\n        /* \"#utility.yul\":2226:2464   */\n      iszero\n      tag_373\n      jumpi\n        /* \"#utility.yul\":2319:2322   */\n      dup2\n        /* \"#utility.yul\":2348:2385   */\n      tag_374\n        /* \"#utility.yul\":2381:2384   */\n      dup9\n        /* \"#utility.yul\":2369:2379   */\n      dup3\n        /* \"#utility.yul\":2348:2385   */\n      tag_375\n      jump\t// in\n    tag_374:\n        /* \"#utility.yul\":2343:2346   */\n      dup5\n        /* \"#utility.yul\":2336:2386   */\n      mstore\n        /* \"#utility.yul\":2415:2419   */\n      0x20\n        /* \"#utility.yul\":2410:2413   */\n      dup5\n        /* \"#utility.yul\":2406:2420   */\n      add\n        /* \"#utility.yul\":2399:2420   */\n      swap4\n      pop\n        /* \"#utility.yul\":2449:2453   */\n      0x20\n        /* \"#utility.yul\":2444:2447   */\n      dup4\n        /* \"#utility.yul\":2440:2454   */\n      add\n        /* \"#utility.yul\":2433:2454   */\n      swap3\n      pop\n        /* \"#utility.yul\":2286:2464   */\n      pop\n        /* \"#utility.yul\":2273:2274   */\n      0x01\n        /* \"#utility.yul\":2270:2271   */\n      dup2\n        /* \"#utility.yul\":2266:2275   */\n      add\n        /* \"#utility.yul\":2261:2275   */\n      swap1\n      pop\n        /* \"#utility.yul\":2226:2464   */\n      jump(tag_371)\n    tag_373:\n        /* \"#utility.yul\":2230:2244   */\n      pop\n        /* \"#utility.yul\":1850:2470   */\n      pop\n      pop\n        /* \"#utility.yul\":1748:2470   */\n      swap4\n      swap3\n      pop\n      pop\n      pop\n      jump\t// out\n        /* \"#utility.yul\":2476:2888   */\n    tag_376:\n        /* \"#utility.yul\":2554:2559   */\n      0x00\n        /* \"#utility.yul\":2579:2645   */\n      tag_378\n        /* \"#utility.yul\":2595:2644   */\n      tag_379\n        /* \"#utility.yul\":2637:2643   */\n      dup5\n        /* \"#utility.yul\":2595:2644   */\n      tag_380\n      jump\t// in\n    tag_379:\n        /* \"#utility.yul\":2579:2645   */\n      tag_340\n      jump\t// in\n    tag_378:\n        /* \"#utility.yul\":2570:2645   */\n      swap1\n      pop\n        /* \"#utility.yul\":2668:2674   */\n      dup3\n        /* \"#utility.yul\":2661:2666   */\n      dup2\n        /* \"#utility.yul\":2654:2675   */\n      mstore\n        /* \"#utility.yul\":2706:2710   */\n      0x20\n        /* \"#utility.yul\":2699:2704   */\n      dup2\n        /* \"#utility.yul\":2695:2711   */\n      add\n        /* \"#utility.yul\":2744:2747   */\n      dup5\n        /* \"#utility.yul\":2735:2741   */\n      dup5\n        /* \"#utility.yul\":2730:2733   */\n      dup5\n        /* \"#utility.yul\":2726:2742   */\n      add\n        /* \"#utility.yul\":2723:2748   */\n      gt\n        /* \"#utility.yul\":2720:2832   */\n      iszero\n      tag_381\n      jumpi\n        /* \"#utility.yul\":2751:2830   */\n      tag_382\n      tag_383\n      jump\t// in\n    tag_382:\n        /* \"#utility.yul\":2720:2832   */\n    tag_381:\n        /* \"#utility.yul\":2841:2882   */\n      tag_384\n        /* \"#utility.yul\":2875:2881   */\n      dup5\n        /* \"#utility.yul\":2870:2873   */\n      dup3\n        /* \"#utility.yul\":2865:2868   */\n      dup6\n        /* \"#utility.yul\":2841:2882   */\n      tag_385\n      jump\t// in\n    tag_384:\n        /* \"#utility.yul\":2560:2888   */\n      pop\n        /* \"#utility.yul\":2476:2888   */\n      swap4\n      swap3\n      pop\n      pop\n      pop\n      jump\t// out\n        /* \"#utility.yul\":2894:3033   */\n    tag_348:\n        /* \"#utility.yul\":2940:2945   */\n      0x00\n        /* \"#utility.yul\":2978:2984   */\n      dup2\n        /* \"#utility.yul\":2965:2985   */\n      calldataload\n        /* \"#utility.yul\":2956:2985   */\n      swap1\n      pop\n        /* \"#utility.yul\":2994:3027   */\n      tag_387\n        /* \"#utility.yul\":3021:3026   */\n      dup2\n        /* \"#utility.yul\":2994:3027   */\n      tag_388\n      jump\t// in\n    tag_387:\n        /* \"#utility.yul\":2894:3033   */\n      swap3\n      swap2\n      pop\n      pop\n      jump\t// out\n        /* \"#utility.yul\":3056:3426   */\n    tag_389:\n        /* \"#utility.yul\":3127:3132   */\n      0x00\n        /* \"#utility.yul\":3176:3179   */\n      dup3\n        /* \"#utility.yul\":3169:3173   */\n      0x1f\n        /* \"#utility.yul\":3161:3167   */\n      dup4\n        /* \"#utility.yul\":3157:3174   */\n      add\n        /* \"#utility.yul\":3153:3180   */\n      slt\n        /* \"#utility.yul\":3143:3265   */\n      tag_391\n      jumpi\n        /* \"#utility.yul\":3184:3263   */\n      tag_392\n      tag_361\n      jump\t// in\n    tag_392:\n        /* \"#utility.yul\":3143:3265   */\n    tag_391:\n        /* \"#utility.yul\":3301:3307   */\n      dup2\n        /* \"#utility.yul\":3288:3308   */\n      calldataload\n        /* \"#utility.yul\":3326:3420   */\n      tag_393\n        /* \"#utility.yul\":3416:3419   */\n      dup5\n        /* \"#utility.yul\":3408:3414   */\n      dup3\n        /* \"#utility.yul\":3401:3405   */\n      0x20\n        /* \"#utility.yul\":3393:3399   */\n      dup7\n        /* \"#utility.yul\":3389:3406   */\n      add\n        /* \"#utility.yul\":3326:3420   */\n      tag_335\n      jump\t// in\n    tag_393:\n        /* \"#utility.yul\":3317:3420   */\n      swap2\n      pop\n        /* \"#utility.yul\":3133:3426   */\n      pop\n        /* \"#utility.yul\":3056:3426   */\n      swap3\n      swap2\n      pop\n      pop\n      jump\t// out\n        /* \"#utility.yul\":3448:4028   */\n    tag_394:\n        /* \"#utility.yul\":3533:3541   */\n      0x00\n        /* \"#utility.yul\":3543:3549   */\n      dup1\n        /* \"#utility.yul\":3593:3596   */\n      dup4\n        /* \"#utility.yul\":3586:3590   */\n      0x1f\n        /* \"#utility.yul\":3578:3584   */\n      dup5\n        /* \"#utility.yul\":3574:3591   */\n      add\n        /* \"#utility.yul\":3570:3597   */\n      slt\n        /* \"#utility.yul\":3560:3682   */\n      tag_396\n      jumpi\n        /* \"#utility.yul\":3601:3680   */\n      tag_397\n      tag_361\n      jump\t// in\n    tag_397:\n        /* \"#utility.yul\":3560:3682   */\n    tag_396:\n        /* \"#utility.yul\":3714:3720   */\n      dup3\n        /* \"#utility.yul\":3701:3721   */\n      calldataload\n        /* \"#utility.yul\":3691:3721   */\n      swap1\n      pop\n        /* \"#utility.yul\":3744:3762   */\n      0xffffffffffffffff\n        /* \"#utility.yul\":3736:3742   */\n      dup2\n        /* \"#utility.yul\":3733:3763   */\n      gt\n        /* \"#utility.yul\":3730:3847   */\n      iszero\n      tag_398\n      jumpi\n        /* \"#utility.yul\":3766:3845   */\n      tag_399\n      tag_400\n      jump\t// in\n    tag_399:\n        /* \"#utility.yul\":3730:3847   */\n    tag_398:\n        /* \"#utility.yul\":3880:3884   */\n      0x20\n        /* \"#utility.yul\":3872:3878   */\n      dup4\n        /* \"#utility.yul\":3868:3885   */\n      add\n        /* \"#utility.yul\":3856:3885   */\n      swap2\n      pop\n        /* \"#utility.yul\":3934:3937   */\n      dup4\n        /* \"#utility.yul\":3926:3930   */\n      0x20\n        /* \"#utility.yul\":3918:3924   */\n      dup3\n        /* \"#utility.yul\":3914:3931   */\n      mul\n        /* \"#utility.yul\":3904:3912   */\n      dup4\n        /* \"#utility.yul\":3900:3932   */\n      add\n        /* \"#utility.yul\":3897:3938   */\n      gt\n        /* \"#utility.yul\":3894:4022   */\n      iszero\n      tag_401\n      jumpi\n        /* \"#utility.yul\":3941:4020   */\n      tag_402\n      tag_343\n      jump\t// in\n    tag_402:\n        /* \"#utility.yul\":3894:4022   */\n    tag_401:\n        /* \"#utility.yul\":3448:4028   */\n      swap3\n      pop\n      swap3\n      swap1\n      pop\n      jump\t// out\n        /* \"#utility.yul\":4050:4440   */\n    tag_403:\n        /* \"#utility.yul\":4131:4136   */\n      0x00\n        /* \"#utility.yul\":4180:4183   */\n      dup3\n        /* \"#utility.yul\":4173:4177   */\n      0x1f\n        /* \"#utility.yul\":4165:4171   */\n      dup4\n        /* \"#utility.yul\":4161:4178   */\n      add\n        /* \"#utility.yul\":4157:4184   */\n      slt\n        /* \"#utility.yul\":4147:4269   */\n      tag_405\n      jumpi\n        /* \"#utility.yul\":4188:4267   */\n      tag_406\n      tag_361\n      jump\t// in\n    tag_406:\n        /* \"#utility.yul\":4147:4269   */\n    tag_405:\n        /* \"#utility.yul\":4305:4311   */\n      dup2\n        /* \"#utility.yul\":4292:4312   */\n      calldataload\n        /* \"#utility.yul\":4330:4434   */\n      tag_407\n        /* \"#utility.yul\":4430:4433   */\n      dup5\n        /* \"#utility.yul\":4422:4428   */\n      dup3\n        /* \"#utility.yul\":4415:4419   */\n      0x20\n        /* \"#utility.yul\":4407:4413   */\n      dup7\n        /* \"#utility.yul\":4403:4420   */\n      add\n        /* \"#utility.yul\":4330:4434   */\n      tag_349\n      jump\t// in\n    tag_407:\n        /* \"#utility.yul\":4321:4434   */\n      swap2\n      pop\n        /* \"#utility.yul\":4137:4440   */\n      pop\n        /* \"#utility.yul\":4050:4440   */\n      swap3\n      swap2\n      pop\n      pop\n      jump\t// out\n        /* \"#utility.yul\":4463:4833   */\n    tag_408:\n        /* \"#utility.yul\":4534:4539   */\n      0x00\n        /* \"#utility.yul\":4583:4586   */\n      dup3\n        /* \"#utility.yul\":4576:4580   */\n      0x1f\n        /* \"#utility.yul\":4568:4574   */\n      dup4\n        /* \"#utility.yul\":4564:4581   */\n      add\n        /* \"#utility.yul\":4560:4587   */\n      slt\n        /* \"#utility.yul\":4550:4672   */\n      tag_410\n      jumpi\n        /* \"#utility.yul\":4591:4670   */\n      tag_411\n      tag_361\n      jump\t// in\n    tag_411:\n        /* \"#utility.yul\":4550:4672   */\n    tag_410:\n        /* \"#utility.yul\":4708:4714   */\n      dup2\n        /* \"#utility.yul\":4695:4715   */\n      calldataload\n        /* \"#utility.yul\":4733:4827   */\n      tag_412\n        /* \"#utility.yul\":4823:4826   */\n      dup5\n        /* \"#utility.yul\":4815:4821   */\n      dup3\n        /* \"#utility.yul\":4808:4812   */\n      0x20\n        /* \"#utility.yul\":4800:4806   */\n      dup7\n        /* \"#utility.yul\":4796:4813   */\n      add\n        /* \"#utility.yul\":4733:4827   */\n      tag_364\n      jump\t// in\n    tag_412:\n        /* \"#utility.yul\":4724:4827   */\n      swap2\n      pop\n        /* \"#utility.yul\":4540:4833   */\n      pop\n        /* \"#utility.yul\":4463:4833   */\n      swap3\n      swap2\n      pop\n      pop\n      jump\t// out\n        /* \"#utility.yul\":4853:5193   */\n    tag_363:\n        /* \"#utility.yul\":4909:4914   */\n      0x00\n        /* \"#utility.yul\":4958:4961   */\n      dup3\n        /* \"#utility.yul\":4951:4955   */\n      0x1f\n        /* \"#utility.yul\":4943:4949   */\n      dup4\n        /* \"#utility.yul\":4939:4956   */\n      add\n        /* \"#utility.yul\":4935:4962   */\n      slt\n        /* \"#utility.yul\":4925:5047   */\n      tag_414\n      jumpi\n        /* \"#utility.yul\":4966:5045   */\n      tag_415\n      tag_361\n      jump\t// in\n    tag_415:\n        /* \"#utility.yul\":4925:5047   */\n    tag_414:\n        /* \"#utility.yul\":5083:5089   */\n      dup2\n        /* \"#utility.yul\":5070:5090   */\n      calldataload\n        /* \"#utility.yul\":5108:5187   */\n      tag_416\n        /* \"#utility.yul\":5183:5186   */\n      dup5\n        /* \"#utility.yul\":5175:5181   */\n      dup3\n        /* \"#utility.yul\":5168:5172   */\n      0x20\n        /* \"#utility.yul\":5160:5166   */\n      dup7\n        /* \"#utility.yul\":5156:5173   */\n      add\n        /* \"#utility.yul\":5108:5187   */\n      tag_376\n      jump\t// in\n    tag_416:\n        /* \"#utility.yul\":5099:5187   */\n      swap2\n      pop\n        /* \"#utility.yul\":4915:5193   */\n      pop\n        /* \"#utility.yul\":4853:5193   */\n      swap3\n      swap2\n      pop\n      pop\n      jump\t// out\n        /* \"#utility.yul\":5199:5338   */\n    tag_375:\n        /* \"#utility.yul\":5245:5250   */\n      0x00\n        /* \"#utility.yul\":5283:5289   */\n      dup2\n        /* \"#utility.yul\":5270:5290   */\n      calldataload\n        /* \"#utility.yul\":5261:5290   */\n      swap1\n      pop\n        /* \"#utility.yul\":5299:5332   */\n      tag_418\n        /* \"#utility.yul\":5326:5331   */\n      dup2\n        /* \"#utility.yul\":5299:5332   */\n      tag_419\n      jump\t// in\n    tag_418:\n        /* \"#utility.yul\":5199:5338   */\n      swap3\n      swap2\n      pop\n      pop\n      jump\t// out\n        /* \"#utility.yul\":5344:5479   */\n    tag_420:\n        /* \"#utility.yul\":5388:5393   */\n      0x00\n        /* \"#utility.yul\":5426:5432   */\n      dup2\n        /* \"#utility.yul\":5413:5433   */\n      calldataload\n        /* \"#utility.yul\":5404:5433   */\n      swap1\n      pop\n        /* \"#utility.yul\":5442:5473   */\n      tag_422\n        /* \"#utility.yul\":5467:5472   */\n      dup2\n        /* \"#utility.yul\":5442:5473   */\n      tag_423\n      jump\t// in\n    tag_422:\n        /* \"#utility.yul\":5344:5479   */\n      swap3\n      swap2\n      pop\n      pop\n      jump\t// out\n        /* \"#utility.yul\":5485:5814   */\n    tag_50:\n        /* \"#utility.yul\":5544:5550   */\n      0x00\n        /* \"#utility.yul\":5593:5595   */\n      0x20\n        /* \"#utility.yul\":5581:5590   */\n      dup3\n        /* \"#utility.yul\":5572:5579   */\n      dup5\n        /* \"#utility.yul\":5568:5591   */\n      sub\n        /* \"#utility.yul\":5564:5596   */\n      slt\n        /* \"#utility.yul\":5561:5680   */\n      iszero\n      tag_425\n      jumpi\n        /* \"#utility.yul\":5599:5678   */\n      tag_426\n      tag_427\n      jump\t// in\n    tag_426:\n        /* \"#utility.yul\":5561:5680   */\n    tag_425:\n        /* \"#utility.yul\":5719:5720   */\n      0x00\n        /* \"#utility.yul\":5744:5797   */\n      tag_428\n        /* \"#utility.yul\":5789:5796   */\n      dup5\n        /* \"#utility.yul\":5780:5786   */\n      dup3\n        /* \"#utility.yul\":5769:5778   */\n      dup6\n        /* \"#utility.yul\":5765:5787   */\n      add\n        /* \"#utility.yul\":5744:5797   */\n      tag_348\n      jump\t// in\n    tag_428:\n        /* \"#utility.yul\":5734:5797   */\n      swap2\n      pop\n        /* \"#utility.yul\":5690:5807   */\n      pop\n        /* \"#utility.yul\":5485:5814   */\n      swap3\n      swap2\n      pop\n      pop\n      jump\t// out\n        /* \"#utility.yul\":5820:6294   */\n    tag_63:\n        /* \"#utility.yul\":5888:5894   */\n      0x00\n        /* \"#utility.yul\":5896:5902   */\n      dup1\n        /* \"#utility.yul\":5945:5947   */\n      0x40\n        /* \"#utility.yul\":5933:5942   */\n      dup4\n        /* \"#utility.yul\":5924:5931   */\n      dup6\n        /* \"#utility.yul\":5920:5943   */\n      sub\n        /* \"#utility.yul\":5916:5948   */\n      slt\n        /* \"#utility.yul\":5913:6032   */\n      iszero\n      tag_430\n      jumpi\n        /* \"#utility.yul\":5951:6030   */\n      tag_431\n      tag_427\n      jump\t// in\n    tag_431:\n        /* \"#utility.yul\":5913:6032   */\n    tag_430:\n        /* \"#utility.yul\":6071:6072   */\n      0x00\n        /* \"#utility.yul\":6096:6149   */\n      tag_432\n        /* \"#utility.yul\":6141:6148   */\n      dup6\n        /* \"#utility.yul\":6132:6138   */\n      dup3\n        /* \"#utility.yul\":6121:6130   */\n      dup7\n        /* \"#utility.yul\":6117:6139   */\n      add\n        /* \"#utility.yul\":6096:6149   */\n      tag_348\n      jump\t// in\n    tag_432:\n        /* \"#utility.yul\":6086:6149   */\n      swap3\n      pop\n        /* \"#utility.yul\":6042:6159   */\n      pop\n        /* \"#utility.yul\":6198:6200   */\n      0x20\n        /* \"#utility.yul\":6224:6277   */\n      tag_433\n        /* \"#utility.yul\":6269:6276   */\n      dup6\n        /* \"#utility.yul\":6260:6266   */\n      dup3\n        /* \"#utility.yul\":6249:6258   */\n      dup7\n        /* \"#utility.yul\":6245:6267   */\n      add\n        /* \"#utility.yul\":6224:6277   */\n      tag_375\n      jump\t// in\n    tag_433:\n        /* \"#utility.yul\":6214:6277   */\n      swap2\n      pop\n        /* \"#utility.yul\":6169:6287   */\n      pop\n        /* \"#utility.yul\":5820:6294   */\n      swap3\n      pop\n      swap3\n      swap1\n      pop\n      jump\t// out\n        /* \"#utility.yul\":6300:6629   */\n    tag_18:\n        /* \"#utility.yul\":6359:6365   */\n      0x00\n        /* \"#utility.yul\":6408:6410   */\n      0x20\n        /* \"#utility.yul\":6396:6405   */\n      dup3\n        /* \"#utility.yul\":6387:6394   */\n      dup5\n        /* \"#utility.yul\":6383:6406   */\n      sub\n        /* \"#utility.yul\":6379:6411   */\n      slt\n        /* \"#utility.yul\":6376:6495   */\n      iszero\n      tag_435\n      jumpi\n        /* \"#utility.yul\":6414:6493   */\n      tag_436\n      tag_427\n      jump\t// in\n    tag_436:\n        /* \"#utility.yul\":6376:6495   */\n    tag_435:\n        /* \"#utility.yul\":6534:6535   */\n      0x00\n        /* \"#utility.yul\":6559:6612   */\n      tag_437\n        /* \"#utility.yul\":6604:6611   */\n      dup5\n        /* \"#utility.yul\":6595:6601   */\n      dup3\n        /* \"#utility.yul\":6584:6593   */\n      dup6\n        /* \"#utility.yul\":6580:6602   */\n      add\n        /* \"#utility.yul\":6559:6612   */\n      tag_375\n      jump\t// in\n    tag_437:\n        /* \"#utility.yul\":6549:6612   */\n      swap2\n      pop\n        /* \"#utility.yul\":6505:6622   */\n      pop\n        /* \"#utility.yul\":6300:6629   */\n      swap3\n      swap2\n      pop\n      pop\n      jump\t// out\n        /* \"#utility.yul\":6635:7840   */\n    tag_46:\n        /* \"#utility.yul\":6781:6787   */\n      0x00\n        /* \"#utility.yul\":6789:6795   */\n      dup1\n        /* \"#utility.yul\":6797:6803   */\n      0x00\n        /* \"#utility.yul\":6805:6811   */\n      dup1\n        /* \"#utility.yul\":6854:6857   */\n      0x80\n        /* \"#utility.yul\":6842:6851   */\n      dup6\n        /* \"#utility.yul\":6833:6840   */\n      dup8\n        /* \"#utility.yul\":6829:6852   */\n      sub\n        /* \"#utility.yul\":6825:6858   */\n      slt\n        /* \"#utility.yul\":6822:6942   */\n      iszero\n      tag_439\n      jumpi\n        /* \"#utility.yul\":6861:6940   */\n      tag_440\n      tag_427\n      jump\t// in\n    tag_440:\n        /* \"#utility.yul\":6822:6942   */\n    tag_439:\n        /* \"#utility.yul\":6981:6982   */\n      0x00\n        /* \"#utility.yul\":7006:7059   */\n      tag_441\n        /* \"#utility.yul\":7051:7058   */\n      dup8\n        /* \"#utility.yul\":7042:7048   */\n      dup3\n        /* \"#utility.yul\":7031:7040   */\n      dup9\n        /* \"#utility.yul\":7027:7049   */\n      add\n        /* \"#utility.yul\":7006:7059   */\n      tag_375\n      jump\t// in\n    tag_441:\n        /* \"#utility.yul\":6996:7059   */\n      swap5\n      pop\n        /* \"#utility.yul\":6952:7069   */\n      pop\n        /* \"#utility.yul\":7108:7110   */\n      0x20\n        /* \"#utility.yul\":7134:7187   */\n      tag_442\n        /* \"#utility.yul\":7179:7186   */\n      dup8\n        /* \"#utility.yul\":7170:7176   */\n      dup3\n        /* \"#utility.yul\":7159:7168   */\n      dup9\n        /* \"#utility.yul\":7155:7177   */\n      add\n        /* \"#utility.yul\":7134:7187   */\n      tag_348\n      jump\t// in\n    tag_442:\n        /* \"#utility.yul\":7124:7187   */\n      swap4\n      pop\n        /* \"#utility.yul\":7079:7197   */\n      pop\n        /* \"#utility.yul\":7264:7266   */\n      0x40\n        /* \"#utility.yul\":7253:7262   */\n      dup6\n        /* \"#utility.yul\":7249:7267   */\n      add\n        /* \"#utility.yul\":7236:7268   */\n      calldataload\n        /* \"#utility.yul\":7295:7313   */\n      0xffffffffffffffff\n        /* \"#utility.yul\":7287:7293   */\n      dup2\n        /* \"#utility.yul\":7284:7314   */\n      gt\n        /* \"#utility.yul\":7281:7398   */\n      iszero\n      tag_443\n      jumpi\n        /* \"#utility.yul\":7317:7396   */\n      tag_444\n      tag_445\n      jump\t// in\n    tag_444:\n        /* \"#utility.yul\":7281:7398   */\n    tag_443:\n        /* \"#utility.yul\":7422:7510   */\n      tag_446\n        /* \"#utility.yul\":7502:7509   */\n      dup8\n        /* \"#utility.yul\":7493:7499   */\n      dup3\n        /* \"#utility.yul\":7482:7491   */\n      dup9\n        /* \"#utility.yul\":7478:7500   */\n      add\n        /* \"#utility.yul\":7422:7510   */\n      tag_403\n      jump\t// in\n    tag_446:\n        /* \"#utility.yul\":7412:7510   */\n      swap3\n      pop\n        /* \"#utility.yul\":7207:7520   */\n      pop\n        /* \"#utility.yul\":7587:7589   */\n      0x60\n        /* \"#utility.yul\":7576:7585   */\n      dup6\n        /* \"#utility.yul\":7572:7590   */\n      add\n        /* \"#utility.yul\":7559:7591   */\n      calldataload\n        /* \"#utility.yul\":7618:7636   */\n      0xffffffffffffffff\n        /* \"#utility.yul\":7610:7616   */\n      dup2\n        /* \"#utility.yul\":7607:7637   */\n      gt\n        /* \"#utility.yul\":7604:7721   */\n      iszero\n      tag_447\n      jumpi\n        /* \"#utility.yul\":7640:7719   */\n      tag_448\n      tag_445\n      jump\t// in\n    tag_448:\n        /* \"#utility.yul\":7604:7721   */\n    tag_447:\n        /* \"#utility.yul\":7745:7823   */\n      tag_449\n        /* \"#utility.yul\":7815:7822   */\n      dup8\n        /* \"#utility.yul\":7806:7812   */\n      dup3\n        /* \"#utility.yul\":7795:7804   */\n      dup9\n        /* \"#utility.yul\":7791:7813   */\n      add\n        /* \"#utility.yul\":7745:7823   */\n      tag_408\n      jump\t// in\n    tag_449:\n        /* \"#utility.yul\":7735:7823   */\n      swap2\n      pop\n        /* \"#utility.yul\":7530:7833   */\n      pop\n        /* \"#utility.yul\":6635:7840   */\n      swap3\n      swap6\n      swap2\n      swap5\n      pop\n      swap3\n      pop\n      jump\t// out\n        /* \"#utility.yul\":7846:8530   */\n    tag_24:\n        /* \"#utility.yul\":7939:7945   */\n      0x00\n        /* \"#utility.yul\":7947:7953   */\n      dup1\n        /* \"#utility.yul\":7996:7998   */\n      0x40\n        /* \"#utility.yul\":7984:7993   */\n      dup4\n        /* \"#utility.yul\":7975:7982   */\n      dup6\n        /* \"#utility.yul\":7971:7994   */\n      sub\n        /* \"#utility.yul\":7967:7999   */\n      slt\n        /* \"#utility.yul\":7964:8083   */\n      iszero\n      tag_451\n      jumpi\n        /* \"#utility.yul\":8002:8081   */\n      tag_452\n      tag_427\n      jump\t// in\n    tag_452:\n        /* \"#utility.yul\":7964:8083   */\n    tag_451:\n        /* \"#utility.yul\":8122:8123   */\n      0x00\n        /* \"#utility.yul\":8147:8200   */\n      tag_453\n        /* \"#utility.yul\":8192:8199   */\n      dup6\n        /* \"#utility.yul\":8183:8189   */\n      dup3\n        /* \"#utility.yul\":8172:8181   */\n      dup7\n        /* \"#utility.yul\":8168:8190   */\n      add\n        /* \"#utility.yul\":8147:8200   */\n      tag_375\n      jump\t// in\n    tag_453:\n        /* \"#utility.yul\":8137:8200   */\n      swap3\n      pop\n        /* \"#utility.yul\":8093:8210   */\n      pop\n        /* \"#utility.yul\":8277:8279   */\n      0x20\n        /* \"#utility.yul\":8266:8275   */\n      dup4\n        /* \"#utility.yul\":8262:8280   */\n      add\n        /* \"#utility.yul\":8249:8281   */\n      calldataload\n        /* \"#utility.yul\":8308:8326   */\n      0xffffffffffffffff\n        /* \"#utility.yul\":8300:8306   */\n      dup2\n        /* \"#utility.yul\":8297:8327   */\n      gt\n        /* \"#utility.yul\":8294:8411   */\n      iszero\n      tag_454\n      jumpi\n        /* \"#utility.yul\":8330:8409   */\n      tag_455\n      tag_445\n      jump\t// in\n    tag_455:\n        /* \"#utility.yul\":8294:8411   */\n    tag_454:\n        /* \"#utility.yul\":8435:8513   */\n      tag_456\n        /* \"#utility.yul\":8505:8512   */\n      dup6\n        /* \"#utility.yul\":8496:8502   */\n      dup3\n        /* \"#utility.yul\":8485:8494   */\n      dup7\n        /* \"#utility.yul\":8481:8503   */\n      add\n        /* \"#utility.yul\":8435:8513   */\n      tag_389\n      jump\t// in\n    tag_456:\n        /* \"#utility.yul\":8425:8513   */\n      swap2\n      pop\n        /* \"#utility.yul\":8220:8523   */\n      pop\n        /* \"#utility.yul\":7846:8530   */\n      swap3\n      pop\n      swap3\n      swap1\n      pop\n      jump\t// out\n        /* \"#utility.yul\":8536:10525   */\n    tag_42:\n        /* \"#utility.yul\":8730:8736   */\n      0x00\n        /* \"#utility.yul\":8738:8744   */\n      dup1\n        /* \"#utility.yul\":8746:8752   */\n      0x00\n        /* \"#utility.yul\":8754:8760   */\n      dup1\n        /* \"#utility.yul\":8762:8768   */\n      0x00\n        /* \"#utility.yul\":8770:8776   */\n      dup1\n        /* \"#utility.yul\":8778:8784   */\n      0x00\n        /* \"#utility.yul\":8786:8792   */\n      dup1\n        /* \"#utility.yul\":8794:8800   */\n      0x00\n        /* \"#utility.yul\":8843:8846   */\n      0x0100\n        /* \"#utility.yul\":8831:8840   */\n      dup11\n        /* \"#utility.yul\":8822:8829   */\n      dup13\n        /* \"#utility.yul\":8818:8841   */\n      sub\n        /* \"#utility.yul\":8814:8847   */\n      slt\n        /* \"#utility.yul\":8811:8931   */\n      iszero\n      tag_458\n      jumpi\n        /* \"#utility.yul\":8850:8929   */\n      tag_459\n      tag_427\n      jump\t// in\n    tag_459:\n        /* \"#utility.yul\":8811:8931   */\n    tag_458:\n        /* \"#utility.yul\":8970:8971   */\n      0x00\n        /* \"#utility.yul\":8995:9046   */\n      tag_460\n        /* \"#utility.yul\":9038:9045   */\n      dup13\n        /* \"#utility.yul\":9029:9035   */\n      dup3\n        /* \"#utility.yul\":9018:9027   */\n      dup14\n        /* \"#utility.yul\":9014:9036   */\n      add\n        /* \"#utility.yul\":8995:9046   */\n      tag_420\n      jump\t// in\n    tag_460:\n        /* \"#utility.yul\":8985:9046   */\n      swap10\n      pop\n        /* \"#utility.yul\":8941:9056   */\n      pop\n        /* \"#utility.yul\":9123:9125   */\n      0x20\n        /* \"#utility.yul\":9112:9121   */\n      dup11\n        /* \"#utility.yul\":9108:9126   */\n      add\n        /* \"#utility.yul\":9095:9127   */\n      calldataload\n        /* \"#utility.yul\":9154:9172   */\n      0xffffffffffffffff\n        /* \"#utility.yul\":9146:9152   */\n      dup2\n        /* \"#utility.yul\":9143:9173   */\n      gt\n        /* \"#utility.yul\":9140:9257   */\n      iszero\n      tag_461\n      jumpi\n        /* \"#utility.yul\":9176:9255   */\n      tag_462\n      tag_445\n      jump\t// in\n    tag_462:\n        /* \"#utility.yul\":9140:9257   */\n    tag_461:\n        /* \"#utility.yul\":9281:9359   */\n      tag_463\n        /* \"#utility.yul\":9351:9358   */\n      dup13\n        /* \"#utility.yul\":9342:9348   */\n      dup3\n        /* \"#utility.yul\":9331:9340   */\n      dup14\n        /* \"#utility.yul\":9327:9349   */\n      add\n        /* \"#utility.yul\":9281:9359   */\n      tag_389\n      jump\t// in\n    tag_463:\n        /* \"#utility.yul\":9271:9359   */\n      swap9\n      pop\n        /* \"#utility.yul\":9066:9369   */\n      pop\n        /* \"#utility.yul\":9408:9410   */\n      0x40\n        /* \"#utility.yul\":9434:9487   */\n      tag_464\n        /* \"#utility.yul\":9479:9486   */\n      dup13\n        /* \"#utility.yul\":9470:9476   */\n      dup3\n        /* \"#utility.yul\":9459:9468   */\n      dup14\n        /* \"#utility.yul\":9455:9477   */\n      add\n        /* \"#utility.yul\":9434:9487   */\n      tag_348\n      jump\t// in\n    tag_464:\n        /* \"#utility.yul\":9424:9487   */\n      swap8\n      pop\n        /* \"#utility.yul\":9379:9497   */\n      pop\n        /* \"#utility.yul\":9536:9538   */\n      0x60\n        /* \"#utility.yul\":9562:9615   */\n      tag_465\n        /* \"#utility.yul\":9607:9614   */\n      dup13\n        /* \"#utility.yul\":9598:9604   */\n      dup3\n        /* \"#utility.yul\":9587:9596   */\n      dup14\n        /* \"#utility.yul\":9583:9605   */\n      add\n        /* \"#utility.yul\":9562:9615   */\n      tag_375\n      jump\t// in\n    tag_465:\n        /* \"#utility.yul\":9552:9615   */\n      swap7\n      pop\n        /* \"#utility.yul\":9507:9625   */\n      pop\n        /* \"#utility.yul\":9664:9667   */\n      0x80\n        /* \"#utility.yul\":9691:9744   */\n      tag_466\n        /* \"#utility.yul\":9736:9743   */\n      dup13\n        /* \"#utility.yul\":9727:9733   */\n      dup3\n        /* \"#utility.yul\":9716:9725   */\n      dup14\n        /* \"#utility.yul\":9712:9734   */\n      add\n        /* \"#utility.yul\":9691:9744   */\n      tag_375\n      jump\t// in\n    tag_466:\n        /* \"#utility.yul\":9681:9744   */\n      swap6\n      pop\n        /* \"#utility.yul\":9635:9754   */\n      pop\n        /* \"#utility.yul\":9821:9824   */\n      0xa0\n        /* \"#utility.yul\":9810:9819   */\n      dup11\n        /* \"#utility.yul\":9806:9825   */\n      add\n        /* \"#utility.yul\":9793:9826   */\n      calldataload\n        /* \"#utility.yul\":9853:9871   */\n      0xffffffffffffffff\n        /* \"#utility.yul\":9845:9851   */\n      dup2\n        /* \"#utility.yul\":9842:9872   */\n      gt\n        /* \"#utility.yul\":9839:9956   */\n      iszero\n      tag_467\n      jumpi\n        /* \"#utility.yul\":9875:9954   */\n      tag_468\n      tag_445\n      jump\t// in\n    tag_468:\n        /* \"#utility.yul\":9839:9956   */\n    tag_467:\n        /* \"#utility.yul\":9980:10043   */\n      tag_469\n        /* \"#utility.yul\":10035:10042   */\n      dup13\n        /* \"#utility.yul\":10026:10032   */\n      dup3\n        /* \"#utility.yul\":10015:10024   */\n      dup14\n        /* \"#utility.yul\":10011:10033   */\n      add\n        /* \"#utility.yul\":9980:10043   */\n      tag_363\n      jump\t// in\n    tag_469:\n        /* \"#utility.yul\":9970:10043   */\n      swap5\n      pop\n        /* \"#utility.yul\":9764:10053   */\n      pop\n        /* \"#utility.yul\":10120:10123   */\n      0xc0\n        /* \"#utility.yul\":10109:10118   */\n      dup11\n        /* \"#utility.yul\":10105:10124   */\n      add\n        /* \"#utility.yul\":10092:10125   */\n      calldataload\n        /* \"#utility.yul\":10152:10170   */\n      0xffffffffffffffff\n        /* \"#utility.yul\":10144:10150   */\n      dup2\n        /* \"#utility.yul\":10141:10171   */\n      gt\n        /* \"#utility.yul\":10138:10255   */\n      iszero\n      tag_470\n      jumpi\n        /* \"#utility.yul\":10174:10253   */\n      tag_471\n      tag_445\n      jump\t// in\n    tag_471:\n        /* \"#utility.yul\":10138:10255   */\n    tag_470:\n        /* \"#utility.yul\":10287:10379   */\n      tag_472\n        /* \"#utility.yul\":10371:10378   */\n      dup13\n        /* \"#utility.yul\":10362:10368   */\n      dup3\n        /* \"#utility.yul\":10351:10360   */\n      dup14\n        /* \"#utility.yul\":10347:10369   */\n      add\n        /* \"#utility.yul\":10287:10379   */\n      tag_394\n      jump\t// in\n    tag_472:\n        /* \"#utility.yul\":10269:10379   */\n      swap4\n      pop\n      swap4\n      pop\n        /* \"#utility.yul\":10063:10389   */\n      pop\n        /* \"#utility.yul\":10428:10431   */\n      0xe0\n        /* \"#utility.yul\":10455:10508   */\n      tag_473\n        /* \"#utility.yul\":10500:10507   */\n      dup13\n        /* \"#utility.yul\":10491:10497   */\n      dup3\n        /* \"#utility.yul\":10480:10489   */\n      dup14\n        /* \"#utility.yul\":10476:10498   */\n      add\n        /* \"#utility.yul\":10455:10508   */\n      tag_375\n      jump\t// in\n    tag_473:\n        /* \"#utility.yul\":10445:10508   */\n      swap2\n      pop\n        /* \"#utility.yul\":10399:10518   */\n      pop\n        /* \"#utility.yul\":8536:10525   */\n      swap3\n      swap6\n      swap9\n      pop\n      swap3\n      swap6\n      swap9\n      pop\n      swap3\n      swap6\n      swap9\n      jump\t// out\n        /* \"#utility.yul\":10531:10710   */\n    tag_474:\n        /* \"#utility.yul\":10600:10610   */\n      0x00\n        /* \"#utility.yul\":10621:10667   */\n      tag_476\n        /* \"#utility.yul\":10663:10666   */\n      dup4\n        /* \"#utility.yul\":10655:10661   */\n      dup4\n        /* \"#utility.yul\":10621:10667   */\n      tag_477\n      jump\t// in\n    tag_476:\n        /* \"#utility.yul\":10699:10703   */\n      0x20\n        /* \"#utility.yul\":10694:10697   */\n      dup4\n        /* \"#utility.yul\":10690:10704   */\n      add\n        /* \"#utility.yul\":10676:10704   */\n      swap1\n      pop\n        /* \"#utility.yul\":10531:10710   */\n      swap3\n      swap2\n      pop\n      pop\n      jump\t// out\n        /* \"#utility.yul\":10716:10932   */\n    tag_478:\n        /* \"#utility.yul\":10815:10825   */\n      0x00\n        /* \"#utility.yul\":10850:10926   */\n      tag_480\n        /* \"#utility.yul\":10922:10925   */\n      dup5\n        /* \"#utility.yul\":10914:10920   */\n      dup5\n        /* \"#utility.yul\":10906:10912   */\n      dup5\n        /* \"#utility.yul\":10850:10926   */\n      tag_481\n      jump\t// in\n    tag_480:\n        /* \"#utility.yul\":10836:10926   */\n      swap1\n      pop\n        /* \"#utility.yul\":10716:10932   */\n      swap4\n      swap3\n      pop\n      pop\n      pop\n      jump\t// out\n        /* \"#utility.yul\":10938:11046   */\n    tag_477:\n        /* \"#utility.yul\":11015:11039   */\n      tag_483\n        /* \"#utility.yul\":11033:11038   */\n      dup2\n        /* \"#utility.yul\":11015:11039   */\n      tag_484\n      jump\t// in\n    tag_483:\n        /* \"#utility.yul\":11010:11013   */\n      dup3\n        /* \"#utility.yul\":11003:11040   */\n      mstore\n        /* \"#utility.yul\":10938:11046   */\n      pop\n      pop\n      jump\t// out\n        /* \"#utility.yul\":11052:11170   */\n    tag_485:\n        /* \"#utility.yul\":11139:11163   */\n      tag_487\n        /* \"#utility.yul\":11157:11162   */\n      dup2\n        /* \"#utility.yul\":11139:11163   */\n      tag_484\n      jump\t// in\n    tag_487:\n        /* \"#utility.yul\":11134:11137   */\n      dup3\n        /* \"#utility.yul\":11127:11164   */\n      mstore\n        /* \"#utility.yul\":11052:11170   */\n      pop\n      pop\n      jump\t// out\n        /* \"#utility.yul\":11206:11938   */\n    tag_488:\n        /* \"#utility.yul\":11325:11328   */\n      0x00\n        /* \"#utility.yul\":11354:11408   */\n      tag_490\n        /* \"#utility.yul\":11402:11407   */\n      dup3\n        /* \"#utility.yul\":11354:11408   */\n      tag_491\n      jump\t// in\n    tag_490:\n        /* \"#utility.yul\":11424:11510   */\n      tag_492\n        /* \"#utility.yul\":11503:11509   */\n      dup2\n        /* \"#utility.yul\":11498:11501   */\n      dup6\n        /* \"#utility.yul\":11424:11510   */\n      tag_493\n      jump\t// in\n    tag_492:\n        /* \"#utility.yul\":11417:11510   */\n      swap4\n      pop\n        /* \"#utility.yul\":11534:11590   */\n      tag_494\n        /* \"#utility.yul\":11584:11589   */\n      dup4\n        /* \"#utility.yul\":11534:11590   */\n      tag_495\n      jump\t// in\n    tag_494:\n        /* \"#utility.yul\":11613:11620   */\n      dup1\n        /* \"#utility.yul\":11644:11645   */\n      0x00\n        /* \"#utility.yul\":11629:11913   */\n    tag_496:\n        /* \"#utility.yul\":11654:11660   */\n      dup4\n        /* \"#utility.yul\":11651:11652   */\n      dup2\n        /* \"#utility.yul\":11648:11661   */\n      lt\n        /* \"#utility.yul\":11629:11913   */\n      iszero\n      tag_498\n      jumpi\n        /* \"#utility.yul\":11730:11736   */\n      dup2\n        /* \"#utility.yul\":11724:11737   */\n      mload\n        /* \"#utility.yul\":11757:11820   */\n      tag_499\n        /* \"#utility.yul\":11816:11819   */\n      dup9\n        /* \"#utility.yul\":11801:11814   */\n      dup3\n        /* \"#utility.yul\":11757:11820   */\n      tag_474\n      jump\t// in\n    tag_499:\n        /* \"#utility.yul\":11750:11820   */\n      swap8\n      pop\n        /* \"#utility.yul\":11843:11903   */\n      tag_500\n        /* \"#utility.yul\":11896:11902   */\n      dup4\n        /* \"#utility.yul\":11843:11903   */\n      tag_501\n      jump\t// in\n    tag_500:\n        /* \"#utility.yul\":11833:11903   */\n      swap3\n      pop\n        /* \"#utility.yul\":11689:11913   */\n      pop\n        /* \"#utility.yul\":11676:11677   */\n      0x01\n        /* \"#utility.yul\":11673:11674   */\n      dup2\n        /* \"#utility.yul\":11669:11678   */\n      add\n        /* \"#utility.yul\":11664:11678   */\n      swap1\n      pop\n        /* \"#utility.yul\":11629:11913   */\n      jump(tag_496)\n    tag_498:\n        /* \"#utility.yul\":11633:11647   */\n      pop\n        /* \"#utility.yul\":11929:11932   */\n      dup6\n        /* \"#utility.yul\":11922:11932   */\n      swap4\n      pop\n        /* \"#utility.yul\":11330:11938   */\n      pop\n      pop\n      pop\n        /* \"#utility.yul\":11206:11938   */\n      swap3\n      swap2\n      pop\n      pop\n      jump\t// out\n        /* \"#utility.yul\":11972:12970   */\n    tag_502:\n        /* \"#utility.yul\":12123:12126   */\n      0x00\n        /* \"#utility.yul\":12146:12242   */\n      tag_504\n        /* \"#utility.yul\":12235:12241   */\n      dup4\n        /* \"#utility.yul\":12230:12233   */\n      dup6\n        /* \"#utility.yul\":12146:12242   */\n      tag_505\n      jump\t// in\n    tag_504:\n        /* \"#utility.yul\":12139:12242   */\n      swap4\n      pop\n        /* \"#utility.yul\":12268:12271   */\n      dup4\n        /* \"#utility.yul\":12313:12317   */\n      0x20\n        /* \"#utility.yul\":12305:12311   */\n      dup5\n        /* \"#utility.yul\":12301:12318   */\n      mul\n        /* \"#utility.yul\":12296:12299   */\n      dup6\n        /* \"#utility.yul\":12292:12319   */\n      add\n        /* \"#utility.yul\":12343:12413   */\n      tag_506\n        /* \"#utility.yul\":12407:12412   */\n      dup5\n        /* \"#utility.yul\":12343:12413   */\n      tag_507\n      jump\t// in\n    tag_506:\n        /* \"#utility.yul\":12436:12443   */\n      dup1\n        /* \"#utility.yul\":12467:12468   */\n      0x00\n        /* \"#utility.yul\":12452:12925   */\n    tag_508:\n        /* \"#utility.yul\":12477:12483   */\n      dup8\n        /* \"#utility.yul\":12474:12475   */\n      dup2\n        /* \"#utility.yul\":12471:12484   */\n      lt\n        /* \"#utility.yul\":12452:12925   */\n      iszero\n      tag_510\n      jumpi\n        /* \"#utility.yul\":12548:12557   */\n      dup5\n        /* \"#utility.yul\":12542:12546   */\n      dup5\n        /* \"#utility.yul\":12538:12558   */\n      sub\n        /* \"#utility.yul\":12533:12536   */\n      dup10\n        /* \"#utility.yul\":12526:12559   */\n      mstore\n        /* \"#utility.yul\":12608:12662   */\n      tag_511\n        /* \"#utility.yul\":12655:12661   */\n      dup3\n        /* \"#utility.yul\":12646:12653   */\n      dup5\n        /* \"#utility.yul\":12608:12662   */\n      tag_512\n      jump\t// in\n    tag_511:\n        /* \"#utility.yul\":12683:12784   */\n      tag_513\n        /* \"#utility.yul\":12779:12783   */\n      dup7\n        /* \"#utility.yul\":12764:12777   */\n      dup3\n        /* \"#utility.yul\":12749:12762   */\n      dup5\n        /* \"#utility.yul\":12683:12784   */\n      tag_478\n      jump\t// in\n    tag_513:\n        /* \"#utility.yul\":12675:12784   */\n      swap6\n      pop\n        /* \"#utility.yul\":12807:12881   */\n      tag_514\n        /* \"#utility.yul\":12874:12880   */\n      dup5\n        /* \"#utility.yul\":12807:12881   */\n      tag_515\n      jump\t// in\n    tag_514:\n        /* \"#utility.yul\":12797:12881   */\n      swap4\n      pop\n        /* \"#utility.yul\":12910:12914   */\n      0x20\n        /* \"#utility.yul\":12905:12908   */\n      dup12\n        /* \"#utility.yul\":12901:12915   */\n      add\n        /* \"#utility.yul\":12894:12915   */\n      swap11\n      pop\n        /* \"#utility.yul\":12512:12925   */\n      pop\n      pop\n        /* \"#utility.yul\":12499:12500   */\n      0x01\n        /* \"#utility.yul\":12496:12497   */\n      dup2\n        /* \"#utility.yul\":12492:12501   */\n      add\n        /* \"#utility.yul\":12487:12501   */\n      swap1\n      pop\n        /* \"#utility.yul\":12452:12925   */\n      jump(tag_508)\n    tag_510:\n        /* \"#utility.yul\":12456:12470   */\n      pop\n        /* \"#utility.yul\":12941:12945   */\n      dup3\n        /* \"#utility.yul\":12934:12945   */\n      swap8\n      pop\n        /* \"#utility.yul\":12961:12964   */\n      dup8\n        /* \"#utility.yul\":12954:12964   */\n      swap5\n      pop\n        /* \"#utility.yul\":12128:12970   */\n      pop\n      pop\n      pop\n      pop\n        /* \"#utility.yul\":11972:12970   */\n      swap4\n      swap3\n      pop\n      pop\n      pop\n      jump\t// out\n        /* \"#utility.yul\":12976:13085   */\n    tag_516:\n        /* \"#utility.yul\":13057:13078   */\n      tag_518\n        /* \"#utility.yul\":13072:13077   */\n      dup2\n        /* \"#utility.yul\":13057:13078   */\n      tag_519\n      jump\t// in\n    tag_518:\n        /* \"#utility.yul\":13052:13055   */\n      dup3\n        /* \"#utility.yul\":13045:13079   */\n      mstore\n        /* \"#utility.yul\":12976:13085   */\n      pop\n      pop\n      jump\t// out\n        /* \"#utility.yul\":13115:13399   */\n    tag_481:\n        /* \"#utility.yul\":13203:13206   */\n      0x00\n        /* \"#utility.yul\":13224:13285   */\n      tag_521\n        /* \"#utility.yul\":13278:13284   */\n      dup4\n        /* \"#utility.yul\":13273:13276   */\n      dup6\n        /* \"#utility.yul\":13224:13285   */\n      tag_522\n      jump\t// in\n    tag_521:\n        /* \"#utility.yul\":13217:13285   */\n      swap4\n      pop\n        /* \"#utility.yul\":13295:13338   */\n      tag_523\n        /* \"#utility.yul\":13331:13337   */\n      dup4\n        /* \"#utility.yul\":13326:13329   */\n      dup6\n        /* \"#utility.yul\":13319:13324   */\n      dup5\n        /* \"#utility.yul\":13295:13338   */\n      tag_385\n      jump\t// in\n    tag_523:\n        /* \"#utility.yul\":13363:13392   */\n      tag_524\n        /* \"#utility.yul\":13385:13391   */\n      dup4\n        /* \"#utility.yul\":13363:13392   */\n      tag_525\n      jump\t// in\n    tag_524:\n        /* \"#utility.yul\":13358:13361   */\n      dup5\n        /* \"#utility.yul\":13354:13393   */\n      add\n        /* \"#utility.yul\":13347:13393   */\n      swap1\n      pop\n        /* \"#utility.yul\":13115:13399   */\n      swap4\n      swap3\n      pop\n      pop\n      pop\n      jump\t// out\n        /* \"#utility.yul\":13429:13746   */\n    tag_526:\n        /* \"#utility.yul\":13545:13548   */\n      0x00\n        /* \"#utility.yul\":13566:13655   */\n      tag_528\n        /* \"#utility.yul\":13648:13654   */\n      dup4\n        /* \"#utility.yul\":13643:13646   */\n      dup6\n        /* \"#utility.yul\":13566:13655   */\n      tag_529\n      jump\t// in\n    tag_528:\n        /* \"#utility.yul\":13559:13655   */\n      swap4\n      pop\n        /* \"#utility.yul\":13665:13708   */\n      tag_530\n        /* \"#utility.yul\":13701:13707   */\n      dup4\n        /* \"#utility.yul\":13696:13699   */\n      dup6\n        /* \"#utility.yul\":13689:13694   */\n      dup5\n        /* \"#utility.yul\":13665:13708   */\n      tag_385\n      jump\t// in\n    tag_530:\n        /* \"#utility.yul\":13733:13739   */\n      dup3\n        /* \"#utility.yul\":13728:13731   */\n      dup5\n        /* \"#utility.yul\":13724:13740   */\n      add\n        /* \"#utility.yul\":13717:13740   */\n      swap1\n      pop\n        /* \"#utility.yul\":13429:13746   */\n      swap4\n      swap3\n      pop\n      pop\n      pop\n      jump\t// out\n        /* \"#utility.yul\":13752:14116   */\n    tag_531:\n        /* \"#utility.yul\":13840:13843   */\n      0x00\n        /* \"#utility.yul\":13868:13907   */\n      tag_533\n        /* \"#utility.yul\":13901:13906   */\n      dup3\n        /* \"#utility.yul\":13868:13907   */\n      tag_534\n      jump\t// in\n    tag_533:\n        /* \"#utility.yul\":13923:13994   */\n      tag_535\n        /* \"#utility.yul\":13987:13993   */\n      dup2\n        /* \"#utility.yul\":13982:13985   */\n      dup6\n        /* \"#utility.yul\":13923:13994   */\n      tag_536\n      jump\t// in\n    tag_535:\n        /* \"#utility.yul\":13916:13994   */\n      swap4\n      pop\n        /* \"#utility.yul\":14003:14055   */\n      tag_537\n        /* \"#utility.yul\":14048:14054   */\n      dup2\n        /* \"#utility.yul\":14043:14046   */\n      dup6\n        /* \"#utility.yul\":14036:14040   */\n      0x20\n        /* \"#utility.yul\":14029:14034   */\n      dup7\n        /* \"#utility.yul\":14025:14041   */\n      add\n        /* \"#utility.yul\":14003:14055   */\n      tag_538\n      jump\t// in\n    tag_537:\n        /* \"#utility.yul\":14080:14109   */\n      tag_539\n        /* \"#utility.yul\":14102:14108   */\n      dup2\n        /* \"#utility.yul\":14080:14109   */\n      tag_525\n      jump\t// in\n    tag_539:\n        /* \"#utility.yul\":14075:14078   */\n      dup5\n        /* \"#utility.yul\":14071:14110   */\n      add\n        /* \"#utility.yul\":14064:14110   */\n      swap2\n      pop\n        /* \"#utility.yul\":13844:14116   */\n      pop\n        /* \"#utility.yul\":13752:14116   */\n      swap3\n      swap2\n      pop\n      pop\n      jump\t// out\n        /* \"#utility.yul\":14122:14499   */\n    tag_540:\n        /* \"#utility.yul\":14228:14231   */\n      0x00\n        /* \"#utility.yul\":14256:14295   */\n      tag_542\n        /* \"#utility.yul\":14289:14294   */\n      dup3\n        /* \"#utility.yul\":14256:14295   */\n      tag_534\n      jump\t// in\n    tag_542:\n        /* \"#utility.yul\":14311:14400   */\n      tag_543\n        /* \"#utility.yul\":14393:14399   */\n      dup2\n        /* \"#utility.yul\":14388:14391   */\n      dup6\n        /* \"#utility.yul\":14311:14400   */\n      tag_529\n      jump\t// in\n    tag_543:\n        /* \"#utility.yul\":14304:14400   */\n      swap4\n      pop\n        /* \"#utility.yul\":14409:14461   */\n      tag_544\n        /* \"#utility.yul\":14454:14460   */\n      dup2\n        /* \"#utility.yul\":14449:14452   */\n      dup6\n        /* \"#utility.yul\":14442:14446   */\n      0x20\n        /* \"#utility.yul\":14435:14440   */\n      dup7\n        /* \"#utility.yul\":14431:14447   */\n      add\n        /* \"#utility.yul\":14409:14461   */\n      tag_538\n      jump\t// in\n    tag_544:\n        /* \"#utility.yul\":14486:14492   */\n      dup1\n        /* \"#utility.yul\":14481:14484   */\n      dup5\n        /* \"#utility.yul\":14477:14493   */\n      add\n        /* \"#utility.yul\":14470:14493   */\n      swap2\n      pop\n        /* \"#utility.yul\":14232:14499   */\n      pop\n        /* \"#utility.yul\":14122:14499   */\n      swap3\n      swap2\n      pop\n      pop\n      jump\t// out\n        /* \"#utility.yul\":14529:15374   */\n    tag_545:\n        /* \"#utility.yul\":14632:14635   */\n      0x00\n        /* \"#utility.yul\":14669:14674   */\n      dup2\n        /* \"#utility.yul\":14663:14675   */\n      sload\n        /* \"#utility.yul\":14698:14734   */\n      tag_547\n        /* \"#utility.yul\":14724:14733   */\n      dup2\n        /* \"#utility.yul\":14698:14734   */\n      tag_73\n      jump\t// in\n    tag_547:\n        /* \"#utility.yul\":14750:14839   */\n      tag_548\n        /* \"#utility.yul\":14832:14838   */\n      dup2\n        /* \"#utility.yul\":14827:14830   */\n      dup7\n        /* \"#utility.yul\":14750:14839   */\n      tag_529\n      jump\t// in\n    tag_548:\n        /* \"#utility.yul\":14743:14839   */\n      swap5\n      pop\n        /* \"#utility.yul\":14870:14871   */\n      0x01\n        /* \"#utility.yul\":14859:14868   */\n      dup3\n        /* \"#utility.yul\":14855:14872   */\n      and\n        /* \"#utility.yul\":14886:14887   */\n      0x00\n        /* \"#utility.yul\":14881:15018   */\n      dup2\n      eq\n      tag_550\n      jumpi\n        /* \"#utility.yul\":15032:15033   */\n      0x01\n        /* \"#utility.yul\":15027:15368   */\n      dup2\n      eq\n      tag_551\n      jumpi\n        /* \"#utility.yul\":14848:15368   */\n      jump(tag_549)\n        /* \"#utility.yul\":14881:15018   */\n    tag_550:\n        /* \"#utility.yul\":14965:14969   */\n      0xff\n        /* \"#utility.yul\":14961:14970   */\n      not\n        /* \"#utility.yul\":14950:14959   */\n      dup4\n        /* \"#utility.yul\":14946:14971   */\n      and\n        /* \"#utility.yul\":14941:14944   */\n      dup7\n        /* \"#utility.yul\":14934:14972   */\n      mstore\n        /* \"#utility.yul\":15001:15007   */\n      dup2\n        /* \"#utility.yul\":14996:14999   */\n      dup7\n        /* \"#utility.yul\":14992:15008   */\n      add\n        /* \"#utility.yul\":14985:15008   */\n      swap4\n      pop\n        /* \"#utility.yul\":14881:15018   */\n      jump(tag_549)\n        /* \"#utility.yul\":15027:15368   */\n    tag_551:\n        /* \"#utility.yul\":15094:15132   */\n      tag_552\n        /* \"#utility.yul\":15126:15131   */\n      dup6\n        /* \"#utility.yul\":15094:15132   */\n      tag_553\n      jump\t// in\n    tag_552:\n        /* \"#utility.yul\":15154:15155   */\n      0x00\n        /* \"#utility.yul\":15168:15322   */\n    tag_554:\n        /* \"#utility.yul\":15182:15188   */\n      dup4\n        /* \"#utility.yul\":15179:15180   */\n      dup2\n        /* \"#utility.yul\":15176:15189   */\n      lt\n        /* \"#utility.yul\":15168:15322   */\n      iszero\n      tag_556\n      jumpi\n        /* \"#utility.yul\":15256:15263   */\n      dup2\n        /* \"#utility.yul\":15250:15264   */\n      sload\n        /* \"#utility.yul\":15246:15247   */\n      dup2\n        /* \"#utility.yul\":15241:15244   */\n      dup10\n        /* \"#utility.yul\":15237:15248   */\n      add\n        /* \"#utility.yul\":15230:15265   */\n      mstore\n        /* \"#utility.yul\":15306:15307   */\n      0x01\n        /* \"#utility.yul\":15297:15304   */\n      dup3\n        /* \"#utility.yul\":15293:15308   */\n      add\n        /* \"#utility.yul\":15282:15308   */\n      swap2\n      pop\n        /* \"#utility.yul\":15204:15208   */\n      0x20\n        /* \"#utility.yul\":15201:15202   */\n      dup2\n        /* \"#utility.yul\":15197:15209   */\n      add\n        /* \"#utility.yul\":15192:15209   */\n      swap1\n      pop\n        /* \"#utility.yul\":15168:15322   */\n      jump(tag_554)\n    tag_556:\n        /* \"#utility.yul\":15351:15357   */\n      dup4\n        /* \"#utility.yul\":15346:15349   */\n      dup9\n        /* \"#utility.yul\":15342:15358   */\n      add\n        /* \"#utility.yul\":15335:15358   */\n      swap6\n      pop\n        /* \"#utility.yul\":15034:15368   */\n      pop\n      pop\n        /* \"#utility.yul\":14848:15368   */\n    tag_549:\n      pop\n        /* \"#utility.yul\":14636:15374   */\n      pop\n      pop\n        /* \"#utility.yul\":14529:15374   */\n      swap3\n      swap2\n      pop\n      pop\n      jump\t// out\n        /* \"#utility.yul\":15380:15746   */\n    tag_557:\n        /* \"#utility.yul\":15522:15525   */\n      0x00\n        /* \"#utility.yul\":15543:15610   */\n      tag_559\n        /* \"#utility.yul\":15607:15609   */\n      0x12\n        /* \"#utility.yul\":15602:15605   */\n      dup4\n        /* \"#utility.yul\":15543:15610   */\n      tag_536\n      jump\t// in\n    tag_559:\n        /* \"#utility.yul\":15536:15610   */\n      swap2\n      pop\n        /* \"#utility.yul\":15619:15712   */\n      tag_560\n        /* \"#utility.yul\":15708:15711   */\n      dup3\n        /* \"#utility.yul\":15619:15712   */\n      tag_561\n      jump\t// in\n    tag_560:\n        /* \"#utility.yul\":15737:15739   */\n      0x20\n        /* \"#utility.yul\":15732:15735   */\n      dup3\n        /* \"#utility.yul\":15728:15740   */\n      add\n        /* \"#utility.yul\":15721:15740   */\n      swap1\n      pop\n        /* \"#utility.yul\":15380:15746   */\n      swap2\n      swap1\n      pop\n      jump\t// out\n        /* \"#utility.yul\":15752:16118   */\n    tag_562:\n        /* \"#utility.yul\":15894:15897   */\n      0x00\n        /* \"#utility.yul\":15915:15982   */\n      tag_564\n        /* \"#utility.yul\":15979:15981   */\n      0x2c\n        /* \"#utility.yul\":15974:15977   */\n      dup4\n        /* \"#utility.yul\":15915:15982   */\n      tag_536\n      jump\t// in\n    tag_564:\n        /* \"#utility.yul\":15908:15982   */\n      swap2\n      pop\n        /* \"#utility.yul\":15991:16084   */\n      tag_565\n        /* \"#utility.yul\":16080:16083   */\n      dup3\n        /* \"#utility.yul\":15991:16084   */\n      tag_566\n      jump\t// in\n    tag_565:\n        /* \"#utility.yul\":16109:16111   */\n      0x40\n        /* \"#utility.yul\":16104:16107   */\n      dup3\n        /* \"#utility.yul\":16100:16112   */\n      add\n        /* \"#utility.yul\":16093:16112   */\n      swap1\n      pop\n        /* \"#utility.yul\":15752:16118   */\n      swap2\n      swap1\n      pop\n      jump\t// out\n        /* \"#utility.yul\":16124:16490   */\n    tag_567:\n        /* \"#utility.yul\":16266:16269   */\n      0x00\n        /* \"#utility.yul\":16287:16354   */\n      tag_569\n        /* \"#utility.yul\":16351:16353   */\n      0x22\n        /* \"#utility.yul\":16346:16349   */\n      dup4\n        /* \"#utility.yul\":16287:16354   */\n      tag_536\n      jump\t// in\n    tag_569:\n        /* \"#utility.yul\":16280:16354   */\n      swap2\n      pop\n        /* \"#utility.yul\":16363:16456   */\n      tag_570\n        /* \"#utility.yul\":16452:16455   */\n      dup3\n        /* \"#utility.yul\":16363:16456   */\n      tag_571\n      jump\t// in\n    tag_570:\n        /* \"#utility.yul\":16481:16483   */\n      0x40\n        /* \"#utility.yul\":16476:16479   */\n      dup3\n        /* \"#utility.yul\":16472:16484   */\n      add\n        /* \"#utility.yul\":16465:16484   */\n      swap1\n      pop\n        /* \"#utility.yul\":16124:16490   */\n      swap2\n      swap1\n      pop\n      jump\t// out\n        /* \"#utility.yul\":16496:16862   */\n    tag_572:\n        /* \"#utility.yul\":16638:16641   */\n      0x00\n        /* \"#utility.yul\":16659:16726   */\n      tag_574\n        /* \"#utility.yul\":16723:16725   */\n      0x1d\n        /* \"#utility.yul\":16718:16721   */\n      dup4\n        /* \"#utility.yul\":16659:16726   */\n      tag_536\n      jump\t// in\n    tag_574:\n        /* \"#utility.yul\":16652:16726   */\n      swap2\n      pop\n        /* \"#utility.yul\":16735:16828   */\n      tag_575\n        /* \"#utility.yul\":16824:16827   */\n      dup3\n        /* \"#utility.yul\":16735:16828   */\n      tag_576\n      jump\t// in\n    tag_575:\n        /* \"#utility.yul\":16853:16855   */\n      0x20\n        /* \"#utility.yul\":16848:16851   */\n      dup3\n        /* \"#utility.yul\":16844:16856   */\n      add\n        /* \"#utility.yul\":16837:16856   */\n      swap1\n      pop\n        /* \"#utility.yul\":16496:16862   */\n      swap2\n      swap1\n      pop\n      jump\t// out\n        /* \"#utility.yul\":16868:17234   */\n    tag_577:\n        /* \"#utility.yul\":17010:17013   */\n      0x00\n        /* \"#utility.yul\":17031:17098   */\n      tag_579\n        /* \"#utility.yul\":17095:17097   */\n      0x0d\n        /* \"#utility.yul\":17090:17093   */\n      dup4\n        /* \"#utility.yul\":17031:17098   */\n      tag_536\n      jump\t// in\n    tag_579:\n        /* \"#utility.yul\":17024:17098   */\n      swap2\n      pop\n        /* \"#utility.yul\":17107:17200   */\n      tag_580\n        /* \"#utility.yul\":17196:17199   */\n      dup3\n        /* \"#utility.yul\":17107:17200   */\n      tag_581\n      jump\t// in\n    tag_580:\n        /* \"#utility.yul\":17225:17227   */\n      0x20\n        /* \"#utility.yul\":17220:17223   */\n      dup3\n        /* \"#utility.yul\":17216:17228   */\n      add\n        /* \"#utility.yul\":17209:17228   */\n      swap1\n      pop\n        /* \"#utility.yul\":16868:17234   */\n      swap2\n      swap1\n      pop\n      jump\t// out\n        /* \"#utility.yul\":17240:17606   */\n    tag_582:\n        /* \"#utility.yul\":17382:17385   */\n      0x00\n        /* \"#utility.yul\":17403:17470   */\n      tag_584\n        /* \"#utility.yul\":17467:17469   */\n      0x1b\n        /* \"#utility.yul\":17462:17465   */\n      dup4\n        /* \"#utility.yul\":17403:17470   */\n      tag_536\n      jump\t// in\n    tag_584:\n        /* \"#utility.yul\":17396:17470   */\n      swap2\n      pop\n        /* \"#utility.yul\":17479:17572   */\n      tag_585\n        /* \"#utility.yul\":17568:17571   */\n      dup3\n        /* \"#utility.yul\":17479:17572   */\n      tag_586\n      jump\t// in\n    tag_585:\n        /* \"#utility.yul\":17597:17599   */\n      0x20\n        /* \"#utility.yul\":17592:17595   */\n      dup3\n        /* \"#utility.yul\":17588:17600   */\n      add\n        /* \"#utility.yul\":17581:17600   */\n      swap1\n      pop\n        /* \"#utility.yul\":17240:17606   */\n      swap2\n      swap1\n      pop\n      jump\t// out\n        /* \"#utility.yul\":17612:17978   */\n    tag_587:\n        /* \"#utility.yul\":17754:17757   */\n      0x00\n        /* \"#utility.yul\":17775:17842   */\n      tag_589\n        /* \"#utility.yul\":17839:17841   */\n      0x14\n        /* \"#utility.yul\":17834:17837   */\n      dup4\n        /* \"#utility.yul\":17775:17842   */\n      tag_536\n      jump\t// in\n    tag_589:\n        /* \"#utility.yul\":17768:17842   */\n      swap2\n      pop\n        /* \"#utility.yul\":17851:17944   */\n      tag_590\n        /* \"#utility.yul\":17940:17943   */\n      dup3\n        /* \"#utility.yul\":17851:17944   */\n      tag_591\n      jump\t// in\n    tag_590:\n        /* \"#utility.yul\":17969:17971   */\n      0x20\n        /* \"#utility.yul\":17964:17967   */\n      dup3\n        /* \"#utility.yul\":17960:17972   */\n      add\n        /* \"#utility.yul\":17953:17972   */\n      swap1\n      pop\n        /* \"#utility.yul\":17612:17978   */\n      swap2\n      swap1\n      pop\n      jump\t// out\n        /* \"#utility.yul\":17984:18350   */\n    tag_592:\n        /* \"#utility.yul\":18126:18129   */\n      0x00\n        /* \"#utility.yul\":18147:18214   */\n      tag_594\n        /* \"#utility.yul\":18211:18213   */\n      0x23\n        /* \"#utility.yul\":18206:18209   */\n      dup4\n        /* \"#utility.yul\":18147:18214   */\n      tag_536\n      jump\t// in\n    tag_594:\n        /* \"#utility.yul\":18140:18214   */\n      swap2\n      pop\n        /* \"#utility.yul\":18223:18316   */\n      tag_595\n        /* \"#utility.yul\":18312:18315   */\n      dup3\n        /* \"#utility.yul\":18223:18316   */\n      tag_596\n      jump\t// in\n    tag_595:\n        /* \"#utility.yul\":18341:18343   */\n      0x40\n        /* \"#utility.yul\":18336:18339   */\n      dup3\n        /* \"#utility.yul\":18332:18344   */\n      add\n        /* \"#utility.yul\":18325:18344   */\n      swap1\n      pop\n        /* \"#utility.yul\":17984:18350   */\n      swap2\n      swap1\n      pop\n      jump\t// out\n        /* \"#utility.yul\":18356:18722   */\n    tag_597:\n        /* \"#utility.yul\":18498:18501   */\n      0x00\n        /* \"#utility.yul\":18519:18586   */\n      tag_599\n        /* \"#utility.yul\":18583:18585   */\n      0x18\n        /* \"#utility.yul\":18578:18581   */\n      dup4\n        /* \"#utility.yul\":18519:18586   */\n      tag_536\n      jump\t// in\n    tag_599:\n        /* \"#utility.yul\":18512:18586   */\n      swap2\n      pop\n        /* \"#utility.yul\":18595:18688   */\n      tag_600\n        /* \"#utility.yul\":18684:18687   */\n      dup3\n        /* \"#utility.yul\":18595:18688   */\n      tag_601\n      jump\t// in\n    tag_600:\n        /* \"#utility.yul\":18713:18715   */\n      0x20\n        /* \"#utility.yul\":18708:18711   */\n      dup3\n        /* \"#utility.yul\":18704:18716   */\n      add\n        /* \"#utility.yul\":18697:18716   */\n      swap1\n      pop\n        /* \"#utility.yul\":18356:18722   */\n      swap2\n      swap1\n      pop\n      jump\t// out\n        /* \"#utility.yul\":18728:19094   */\n    tag_602:\n        /* \"#utility.yul\":18870:18873   */\n      0x00\n        /* \"#utility.yul\":18891:18958   */\n      tag_604\n        /* \"#utility.yul\":18955:18957   */\n      0x14\n        /* \"#utility.yul\":18950:18953   */\n      dup4\n        /* \"#utility.yul\":18891:18958   */\n      tag_536\n      jump\t// in\n    tag_604:\n        /* \"#utility.yul\":18884:18958   */\n      swap2\n      pop\n        /* \"#utility.yul\":18967:19060   */\n      tag_605\n        /* \"#utility.yul\":19056:19059   */\n      dup3\n        /* \"#utility.yul\":18967:19060   */\n      tag_606\n      jump\t// in\n    tag_605:\n        /* \"#utility.yul\":19085:19087   */\n      0x20\n        /* \"#utility.yul\":19080:19083   */\n      dup3\n        /* \"#utility.yul\":19076:19088   */\n      add\n        /* \"#utility.yul\":19069:19088   */\n      swap1\n      pop\n        /* \"#utility.yul\":18728:19094   */\n      swap2\n      swap1\n      pop\n      jump\t// out\n        /* \"#utility.yul\":19100:19466   */\n    tag_607:\n        /* \"#utility.yul\":19242:19245   */\n      0x00\n        /* \"#utility.yul\":19263:19330   */\n      tag_609\n        /* \"#utility.yul\":19327:19329   */\n      0x23\n        /* \"#utility.yul\":19322:19325   */\n      dup4\n        /* \"#utility.yul\":19263:19330   */\n      tag_536\n      jump\t// in\n    tag_609:\n        /* \"#utility.yul\":19256:19330   */\n      swap2\n      pop\n        /* \"#utility.yul\":19339:19432   */\n      tag_610\n        /* \"#utility.yul\":19428:19431   */\n      dup3\n        /* \"#utility.yul\":19339:19432   */\n      tag_611\n      jump\t// in\n    tag_610:\n        /* \"#utility.yul\":19457:19459   */\n      0x40\n        /* \"#utility.yul\":19452:19455   */\n      dup3\n        /* \"#utility.yul\":19448:19460   */\n      add\n        /* \"#utility.yul\":19441:19460   */\n      swap1\n      pop\n        /* \"#utility.yul\":19100:19466   */\n      swap2\n      swap1\n      pop\n      jump\t// out\n        /* \"#utility.yul\":19472:19838   */\n    tag_612:\n        /* \"#utility.yul\":19614:19617   */\n      0x00\n        /* \"#utility.yul\":19635:19702   */\n      tag_614\n        /* \"#utility.yul\":19699:19701   */\n      0x12\n        /* \"#utility.yul\":19694:19697   */\n      dup4\n        /* \"#utility.yul\":19635:19702   */\n      tag_536\n      jump\t// in\n    tag_614:\n        /* \"#utility.yul\":19628:19702   */\n      swap2\n      pop\n        /* \"#utility.yul\":19711:19804   */\n      tag_615\n        /* \"#utility.yul\":19800:19803   */\n      dup3\n        /* \"#utility.yul\":19711:19804   */\n      tag_616\n      jump\t// in\n    tag_615:\n        /* \"#utility.yul\":19829:19831   */\n      0x20\n        /* \"#utility.yul\":19824:19827   */\n      dup3\n        /* \"#utility.yul\":19820:19832   */\n      add\n        /* \"#utility.yul\":19813:19832   */\n      swap1\n      pop\n        /* \"#utility.yul\":19472:19838   */\n      swap2\n      swap1\n      pop\n      jump\t// out\n        /* \"#utility.yul\":19844:20210   */\n    tag_617:\n        /* \"#utility.yul\":19986:19989   */\n      0x00\n        /* \"#utility.yul\":20007:20074   */\n      tag_619\n        /* \"#utility.yul\":20071:20073   */\n      0x23\n        /* \"#utility.yul\":20066:20069   */\n      dup4\n        /* \"#utility.yul\":20007:20074   */\n      tag_536\n      jump\t// in\n    tag_619:\n        /* \"#utility.yul\":20000:20074   */\n      swap2\n      pop\n        /* \"#utility.yul\":20083:20176   */\n      tag_620\n        /* \"#utility.yul\":20172:20175   */\n      dup3\n        /* \"#utility.yul\":20083:20176   */\n      tag_621\n      jump\t// in\n    tag_620:\n        /* \"#utility.yul\":20201:20203   */\n      0x40\n        /* \"#utility.yul\":20196:20199   */\n      dup3\n        /* \"#utility.yul\":20192:20204   */\n      add\n        /* \"#utility.yul\":20185:20204   */\n      swap1\n      pop\n        /* \"#utility.yul\":19844:20210   */\n      swap2\n      swap1\n      pop\n      jump\t// out\n        /* \"#utility.yul\":20216:20582   */\n    tag_622:\n        /* \"#utility.yul\":20358:20361   */\n      0x00\n        /* \"#utility.yul\":20379:20446   */\n      tag_624\n        /* \"#utility.yul\":20443:20445   */\n      0x2a\n        /* \"#utility.yul\":20438:20441   */\n      dup4\n        /* \"#utility.yul\":20379:20446   */\n      tag_536\n      jump\t// in\n    tag_624:\n        /* \"#utility.yul\":20372:20446   */\n      swap2\n      pop\n        /* \"#utility.yul\":20455:20548   */\n      tag_625\n        /* \"#utility.yul\":20544:20547   */\n      dup3\n        /* \"#utility.yul\":20455:20548   */\n      tag_626\n      jump\t// in\n    tag_625:\n        /* \"#utility.yul\":20573:20575   */\n      0x40\n        /* \"#utility.yul\":20568:20571   */\n      dup3\n        /* \"#utility.yul\":20564:20576   */\n      add\n        /* \"#utility.yul\":20557:20576   */\n      swap1\n      pop\n        /* \"#utility.yul\":20216:20582   */\n      swap2\n      swap1\n      pop\n      jump\t// out\n        /* \"#utility.yul\":20588:20954   */\n    tag_627:\n        /* \"#utility.yul\":20730:20733   */\n      0x00\n        /* \"#utility.yul\":20751:20818   */\n      tag_629\n        /* \"#utility.yul\":20815:20817   */\n      0x21\n        /* \"#utility.yul\":20810:20813   */\n      dup4\n        /* \"#utility.yul\":20751:20818   */\n      tag_536\n      jump\t// in\n    tag_629:\n        /* \"#utility.yul\":20744:20818   */\n      swap2\n      pop\n        /* \"#utility.yul\":20827:20920   */\n      tag_630\n        /* \"#utility.yul\":20916:20919   */\n      dup3\n        /* \"#utility.yul\":20827:20920   */\n      tag_631\n      jump\t// in\n    tag_630:\n        /* \"#utility.yul\":20945:20947   */\n      0x40\n        /* \"#utility.yul\":20940:20943   */\n      dup3\n        /* \"#utility.yul\":20936:20948   */\n      add\n        /* \"#utility.yul\":20929:20948   */\n      swap1\n      pop\n        /* \"#utility.yul\":20588:20954   */\n      swap2\n      swap1\n      pop\n      jump\t// out\n        /* \"#utility.yul\":20960:21326   */\n    tag_632:\n        /* \"#utility.yul\":21102:21105   */\n      0x00\n        /* \"#utility.yul\":21123:21190   */\n      tag_634\n        /* \"#utility.yul\":21187:21189   */\n      0x24\n        /* \"#utility.yul\":21182:21185   */\n      dup4\n        /* \"#utility.yul\":21123:21190   */\n      tag_536\n      jump\t// in\n    tag_634:\n        /* \"#utility.yul\":21116:21190   */\n      swap2\n      pop\n        /* \"#utility.yul\":21199:21292   */\n      tag_635\n        /* \"#utility.yul\":21288:21291   */\n      dup3\n        /* \"#utility.yul\":21199:21292   */\n      tag_636\n      jump\t// in\n    tag_635:\n        /* \"#utility.yul\":21317:21319   */\n      0x40\n        /* \"#utility.yul\":21312:21315   */\n      dup3\n        /* \"#utility.yul\":21308:21320   */\n      add\n        /* \"#utility.yul\":21301:21320   */\n      swap1\n      pop\n        /* \"#utility.yul\":20960:21326   */\n      swap2\n      swap1\n      pop\n      jump\t// out\n        /* \"#utility.yul\":21332:21697   */\n    tag_637:\n        /* \"#utility.yul\":21474:21477   */\n      0x00\n        /* \"#utility.yul\":21495:21561   */\n      tag_639\n        /* \"#utility.yul\":21559:21560   */\n      0x04\n        /* \"#utility.yul\":21554:21557   */\n      dup4\n        /* \"#utility.yul\":21495:21561   */\n      tag_536\n      jump\t// in\n    tag_639:\n        /* \"#utility.yul\":21488:21561   */\n      swap2\n      pop\n        /* \"#utility.yul\":21570:21663   */\n      tag_640\n        /* \"#utility.yul\":21659:21662   */\n      dup3\n        /* \"#utility.yul\":21570:21663   */\n      tag_641\n      jump\t// in\n    tag_640:\n        /* \"#utility.yul\":21688:21690   */\n      0x20\n        /* \"#utility.yul\":21683:21686   */\n      dup3\n        /* \"#utility.yul\":21679:21691   */\n      add\n        /* \"#utility.yul\":21672:21691   */\n      swap1\n      pop\n        /* \"#utility.yul\":21332:21697   */\n      swap2\n      swap1\n      pop\n      jump\t// out\n        /* \"#utility.yul\":21703:22069   */\n    tag_642:\n        /* \"#utility.yul\":21845:21848   */\n      0x00\n        /* \"#utility.yul\":21866:21933   */\n      tag_644\n        /* \"#utility.yul\":21930:21932   */\n      0x1d\n        /* \"#utility.yul\":21925:21928   */\n      dup4\n        /* \"#utility.yul\":21866:21933   */\n      tag_536\n      jump\t// in\n    tag_644:\n        /* \"#utility.yul\":21859:21933   */\n      swap2\n      pop\n        /* \"#utility.yul\":21942:22035   */\n      tag_645\n        /* \"#utility.yul\":22031:22034   */\n      dup3\n        /* \"#utility.yul\":21942:22035   */\n      tag_646\n      jump\t// in\n    tag_645:\n        /* \"#utility.yul\":22060:22062   */\n      0x20\n        /* \"#utility.yul\":22055:22058   */\n      dup3\n        /* \"#utility.yul\":22051:22063   */\n      add\n        /* \"#utility.yul\":22044:22063   */\n      swap1\n      pop\n        /* \"#utility.yul\":21703:22069   */\n      swap2\n      swap1\n      pop\n      jump\t// out\n        /* \"#utility.yul\":22075:22440   */\n    tag_647:\n        /* \"#utility.yul\":22217:22220   */\n      0x00\n        /* \"#utility.yul\":22238:22304   */\n      tag_649\n        /* \"#utility.yul\":22302:22303   */\n      0x04\n        /* \"#utility.yul\":22297:22300   */\n      dup4\n        /* \"#utility.yul\":22238:22304   */\n      tag_536\n      jump\t// in\n    tag_649:\n        /* \"#utility.yul\":22231:22304   */\n      swap2\n      pop\n        /* \"#utility.yul\":22313:22406   */\n      tag_650\n        /* \"#utility.yul\":22402:22405   */\n      dup3\n        /* \"#utility.yul\":22313:22406   */\n      tag_651\n      jump\t// in\n    tag_650:\n        /* \"#utility.yul\":22431:22433   */\n      0x20\n        /* \"#utility.yul\":22426:22429   */\n      dup3\n        /* \"#utility.yul\":22422:22434   */\n      add\n        /* \"#utility.yul\":22415:22434   */\n      swap1\n      pop\n        /* \"#utility.yul\":22075:22440   */\n      swap2\n      swap1\n      pop\n      jump\t// out\n        /* \"#utility.yul\":22446:22811   */\n    tag_652:\n        /* \"#utility.yul\":22588:22591   */\n      0x00\n        /* \"#utility.yul\":22609:22675   */\n      tag_654\n        /* \"#utility.yul\":22673:22674   */\n      0x09\n        /* \"#utility.yul\":22668:22671   */\n      dup4\n        /* \"#utility.yul\":22609:22675   */\n      tag_536\n      jump\t// in\n    tag_654:\n        /* \"#utility.yul\":22602:22675   */\n      swap2\n      pop\n        /* \"#utility.yul\":22684:22777   */\n      tag_655\n        /* \"#utility.yul\":22773:22776   */\n      dup3\n        /* \"#utility.yul\":22684:22777   */\n      tag_656\n      jump\t// in\n    tag_655:\n        /* \"#utility.yul\":22802:22804   */\n      0x20\n        /* \"#utility.yul\":22797:22800   */\n      dup3\n        /* \"#utility.yul\":22793:22805   */\n      add\n        /* \"#utility.yul\":22786:22805   */\n      swap1\n      pop\n        /* \"#utility.yul\":22446:22811   */\n      swap2\n      swap1\n      pop\n      jump\t// out\n        /* \"#utility.yul\":22817:23183   */\n    tag_657:\n        /* \"#utility.yul\":22959:22962   */\n      0x00\n        /* \"#utility.yul\":22980:23047   */\n      tag_659\n        /* \"#utility.yul\":23044:23046   */\n      0x1f\n        /* \"#utility.yul\":23039:23042   */\n      dup4\n        /* \"#utility.yul\":22980:23047   */\n      tag_536\n      jump\t// in\n    tag_659:\n        /* \"#utility.yul\":22973:23047   */\n      swap2\n      pop\n        /* \"#utility.yul\":23056:23149   */\n      tag_660\n        /* \"#utility.yul\":23145:23148   */\n      dup3\n        /* \"#utility.yul\":23056:23149   */\n      tag_661\n      jump\t// in\n    tag_660:\n        /* \"#utility.yul\":23174:23176   */\n      0x20\n        /* \"#utility.yul\":23169:23172   */\n      dup3\n        /* \"#utility.yul\":23165:23177   */\n      add\n        /* \"#utility.yul\":23158:23177   */\n      swap1\n      pop\n        /* \"#utility.yul\":22817:23183   */\n      swap2\n      swap1\n      pop\n      jump\t// out\n        /* \"#utility.yul\":23189:23307   */\n    tag_662:\n        /* \"#utility.yul\":23276:23300   */\n      tag_664\n        /* \"#utility.yul\":23294:23299   */\n      dup2\n        /* \"#utility.yul\":23276:23300   */\n      tag_665\n      jump\t// in\n    tag_664:\n        /* \"#utility.yul\":23271:23274   */\n      dup3\n        /* \"#utility.yul\":23264:23301   */\n      mstore\n        /* \"#utility.yul\":23189:23307   */\n      pop\n      pop\n      jump\t// out\n        /* \"#utility.yul\":23313:23428   */\n    tag_666:\n        /* \"#utility.yul\":23398:23421   */\n      tag_668\n        /* \"#utility.yul\":23415:23420   */\n      dup2\n        /* \"#utility.yul\":23398:23421   */\n      tag_669\n      jump\t// in\n    tag_668:\n        /* \"#utility.yul\":23393:23396   */\n      dup3\n        /* \"#utility.yul\":23386:23422   */\n      mstore\n        /* \"#utility.yul\":23313:23428   */\n      pop\n      pop\n      jump\t// out\n        /* \"#utility.yul\":23434:23552   */\n    tag_670:\n        /* \"#utility.yul\":23521:23545   */\n      tag_672\n        /* \"#utility.yul\":23539:23544   */\n      dup2\n        /* \"#utility.yul\":23521:23545   */\n      tag_673\n      jump\t// in\n    tag_672:\n        /* \"#utility.yul\":23516:23519   */\n      dup3\n        /* \"#utility.yul\":23509:23546   */\n      mstore\n        /* \"#utility.yul\":23434:23552   */\n      pop\n      pop\n      jump\t// out\n        /* \"#utility.yul\":23558:23670   */\n    tag_674:\n        /* \"#utility.yul\":23641:23663   */\n      tag_676\n        /* \"#utility.yul\":23657:23662   */\n      dup2\n        /* \"#utility.yul\":23641:23663   */\n      tag_677\n      jump\t// in\n    tag_676:\n        /* \"#utility.yul\":23636:23639   */\n      dup3\n        /* \"#utility.yul\":23629:23664   */\n      mstore\n        /* \"#utility.yul\":23558:23670   */\n      pop\n      pop\n      jump\t// out\n        /* \"#utility.yul\":23676:23971   */\n    tag_197:\n        /* \"#utility.yul\":23818:23821   */\n      0x00\n        /* \"#utility.yul\":23840:23945   */\n      tag_679\n        /* \"#utility.yul\":23941:23944   */\n      dup3\n        /* \"#utility.yul\":23932:23938   */\n      dup5\n        /* \"#utility.yul\":23924:23930   */\n      dup7\n        /* \"#utility.yul\":23840:23945   */\n      tag_526\n      jump\t// in\n    tag_679:\n        /* \"#utility.yul\":23833:23945   */\n      swap2\n      pop\n        /* \"#utility.yul\":23962:23965   */\n      dup2\n        /* \"#utility.yul\":23955:23965   */\n      swap1\n      pop\n        /* \"#utility.yul\":23676:23971   */\n      swap4\n      swap3\n      pop\n      pop\n      pop\n      jump\t// out\n        /* \"#utility.yul\":23977:24252   */\n    tag_259:\n        /* \"#utility.yul\":24109:24112   */\n      0x00\n        /* \"#utility.yul\":24131:24226   */\n      tag_681\n        /* \"#utility.yul\":24222:24225   */\n      dup3\n        /* \"#utility.yul\":24213:24219   */\n      dup5\n        /* \"#utility.yul\":24131:24226   */\n      tag_540\n      jump\t// in\n    tag_681:\n        /* \"#utility.yul\":24124:24226   */\n      swap2\n      pop\n        /* \"#utility.yul\":24243:24246   */\n      dup2\n        /* \"#utility.yul\":24236:24246   */\n      swap1\n      pop\n        /* \"#utility.yul\":23977:24252   */\n      swap3\n      swap2\n      pop\n      pop\n      jump\t// out\n        /* \"#utility.yul\":24258:24527   */\n    tag_180:\n        /* \"#utility.yul\":24387:24390   */\n      0x00\n        /* \"#utility.yul\":24409:24501   */\n      tag_683\n        /* \"#utility.yul\":24497:24500   */\n      dup3\n        /* \"#utility.yul\":24488:24494   */\n      dup5\n        /* \"#utility.yul\":24409:24501   */\n      tag_545\n      jump\t// in\n    tag_683:\n        /* \"#utility.yul\":24402:24501   */\n      swap2\n      pop\n        /* \"#utility.yul\":24518:24521   */\n      dup2\n        /* \"#utility.yul\":24511:24521   */\n      swap1\n      pop\n        /* \"#utility.yul\":24258:24527   */\n      swap3\n      swap2\n      pop\n      pop\n      jump\t// out\n        /* \"#utility.yul\":24533:25498   */\n    tag_21:\n        /* \"#utility.yul\":24808:24812   */\n      0x00\n        /* \"#utility.yul\":24846:24849   */\n      0xe0\n        /* \"#utility.yul\":24835:24844   */\n      dup3\n        /* \"#utility.yul\":24831:24850   */\n      add\n        /* \"#utility.yul\":24823:24850   */\n      swap1\n      pop\n        /* \"#utility.yul\":24860:24931   */\n      tag_685\n        /* \"#utility.yul\":24928:24929   */\n      0x00\n        /* \"#utility.yul\":24917:24926   */\n      dup4\n        /* \"#utility.yul\":24913:24930   */\n      add\n        /* \"#utility.yul\":24904:24910   */\n      dup11\n        /* \"#utility.yul\":24860:24931   */\n      tag_485\n      jump\t// in\n    tag_685:\n        /* \"#utility.yul\":24941:25009   */\n      tag_686\n        /* \"#utility.yul\":25005:25007   */\n      0x20\n        /* \"#utility.yul\":24994:25003   */\n      dup4\n        /* \"#utility.yul\":24990:25008   */\n      add\n        /* \"#utility.yul\":24981:24987   */\n      dup10\n        /* \"#utility.yul\":24941:25009   */\n      tag_674\n      jump\t// in\n    tag_686:\n        /* \"#utility.yul\":25056:25065   */\n      dup2\n        /* \"#utility.yul\":25050:25054   */\n      dup2\n        /* \"#utility.yul\":25046:25066   */\n      sub\n        /* \"#utility.yul\":25041:25043   */\n      0x40\n        /* \"#utility.yul\":25030:25039   */\n      dup4\n        /* \"#utility.yul\":25026:25044   */\n      add\n        /* \"#utility.yul\":25019:25067   */\n      mstore\n        /* \"#utility.yul\":25084:25162   */\n      tag_687\n        /* \"#utility.yul\":25157:25161   */\n      dup2\n        /* \"#utility.yul\":25148:25154   */\n      dup9\n        /* \"#utility.yul\":25084:25162   */\n      tag_531\n      jump\t// in\n    tag_687:\n        /* \"#utility.yul\":25076:25162   */\n      swap1\n      pop\n        /* \"#utility.yul\":25172:25244   */\n      tag_688\n        /* \"#utility.yul\":25240:25242   */\n      0x60\n        /* \"#utility.yul\":25229:25238   */\n      dup4\n        /* \"#utility.yul\":25225:25243   */\n      add\n        /* \"#utility.yul\":25216:25222   */\n      dup8\n        /* \"#utility.yul\":25172:25244   */\n      tag_670\n      jump\t// in\n    tag_688:\n        /* \"#utility.yul\":25254:25327   */\n      tag_689\n        /* \"#utility.yul\":25322:25325   */\n      0x80\n        /* \"#utility.yul\":25311:25320   */\n      dup4\n        /* \"#utility.yul\":25307:25326   */\n      add\n        /* \"#utility.yul\":25298:25304   */\n      dup7\n        /* \"#utility.yul\":25254:25327   */\n      tag_670\n      jump\t// in\n    tag_689:\n        /* \"#utility.yul\":25337:25408   */\n      tag_690\n        /* \"#utility.yul\":25403:25406   */\n      0xa0\n        /* \"#utility.yul\":25392:25401   */\n      dup4\n        /* \"#utility.yul\":25388:25407   */\n      add\n        /* \"#utility.yul\":25379:25385   */\n      dup6\n        /* \"#utility.yul\":25337:25408   */\n      tag_666\n      jump\t// in\n    tag_690:\n        /* \"#utility.yul\":25418:25491   */\n      tag_691\n        /* \"#utility.yul\":25486:25489   */\n      0xc0\n        /* \"#utility.yul\":25475:25484   */\n      dup4\n        /* \"#utility.yul\":25471:25490   */\n      add\n        /* \"#utility.yul\":25462:25468   */\n      dup5\n        /* \"#utility.yul\":25418:25491   */\n      tag_670\n      jump\t// in\n    tag_691:\n        /* \"#utility.yul\":24533:25498   */\n      swap9\n      swap8\n      pop\n      pop\n      pop\n      pop\n      pop\n      pop\n      pop\n      pop\n      jump\t// out\n        /* \"#utility.yul\":25504:25714   */\n    tag_27:\n        /* \"#utility.yul\":25591:25595   */\n      0x00\n        /* \"#utility.yul\":25629:25631   */\n      0x20\n        /* \"#utility.yul\":25618:25627   */\n      dup3\n        /* \"#utility.yul\":25614:25632   */\n      add\n        /* \"#utility.yul\":25606:25632   */\n      swap1\n      pop\n        /* \"#utility.yul\":25642:25707   */\n      tag_693\n        /* \"#utility.yul\":25704:25705   */\n      0x00\n        /* \"#utility.yul\":25693:25702   */\n      dup4\n        /* \"#utility.yul\":25689:25706   */\n      add\n        /* \"#utility.yul\":25680:25686   */\n      dup5\n        /* \"#utility.yul\":25642:25707   */\n      tag_516\n      jump\t// in\n    tag_693:\n        /* \"#utility.yul\":25504:25714   */\n      swap3\n      swap2\n      pop\n      pop\n      jump\t// out\n        /* \"#utility.yul\":25720:26033   */\n    tag_31:\n        /* \"#utility.yul\":25833:25837   */\n      0x00\n        /* \"#utility.yul\":25871:25873   */\n      0x20\n        /* \"#utility.yul\":25860:25869   */\n      dup3\n        /* \"#utility.yul\":25856:25874   */\n      add\n        /* \"#utility.yul\":25848:25874   */\n      swap1\n      pop\n        /* \"#utility.yul\":25920:25929   */\n      dup2\n        /* \"#utility.yul\":25914:25918   */\n      dup2\n        /* \"#utility.yul\":25910:25930   */\n      sub\n        /* \"#utility.yul\":25906:25907   */\n      0x00\n        /* \"#utility.yul\":25895:25904   */\n      dup4\n        /* \"#utility.yul\":25891:25908   */\n      add\n        /* \"#utility.yul\":25884:25931   */\n      mstore\n        /* \"#utility.yul\":25948:26026   */\n      tag_695\n        /* \"#utility.yul\":26021:26025   */\n      dup2\n        /* \"#utility.yul\":26012:26018   */\n      dup5\n        /* \"#utility.yul\":25948:26026   */\n      tag_531\n      jump\t// in\n    tag_695:\n        /* \"#utility.yul\":25940:26026   */\n      swap1\n      pop\n        /* \"#utility.yul\":25720:26033   */\n      swap3\n      swap2\n      pop\n      pop\n      jump\t// out\n        /* \"#utility.yul\":26039:26458   */\n    tag_225:\n        /* \"#utility.yul\":26205:26209   */\n      0x00\n        /* \"#utility.yul\":26243:26245   */\n      0x20\n        /* \"#utility.yul\":26232:26241   */\n      dup3\n        /* \"#utility.yul\":26228:26246   */\n      add\n        /* \"#utility.yul\":26220:26246   */\n      swap1\n      pop\n        /* \"#utility.yul\":26292:26301   */\n      dup2\n        /* \"#utility.yul\":26286:26290   */\n      dup2\n        /* \"#utility.yul\":26282:26302   */\n      sub\n        /* \"#utility.yul\":26278:26279   */\n      0x00\n        /* \"#utility.yul\":26267:26276   */\n      dup4\n        /* \"#utility.yul\":26263:26280   */\n      add\n        /* \"#utility.yul\":26256:26303   */\n      mstore\n        /* \"#utility.yul\":26320:26451   */\n      tag_697\n        /* \"#utility.yul\":26446:26450   */\n      dup2\n        /* \"#utility.yul\":26320:26451   */\n      tag_557\n      jump\t// in\n    tag_697:\n        /* \"#utility.yul\":26312:26451   */\n      swap1\n      pop\n        /* \"#utility.yul\":26039:26458   */\n      swap2\n      swap1\n      pop\n      jump\t// out\n        /* \"#utility.yul\":26464:26883   */\n    tag_96:\n        /* \"#utility.yul\":26630:26634   */\n      0x00\n        /* \"#utility.yul\":26668:26670   */\n      0x20\n        /* \"#utility.yul\":26657:26666   */\n      dup3\n        /* \"#utility.yul\":26653:26671   */\n      add\n        /* \"#utility.yul\":26645:26671   */\n      swap1\n      pop\n        /* \"#utility.yul\":26717:26726   */\n      dup2\n        /* \"#utility.yul\":26711:26715   */\n      dup2\n        /* \"#utility.yul\":26707:26727   */\n      sub\n        /* \"#utility.yul\":26703:26704   */\n      0x00\n        /* \"#utility.yul\":26692:26701   */\n      dup4\n        /* \"#utility.yul\":26688:26705   */\n      add\n        /* \"#utility.yul\":26681:26728   */\n      mstore\n        /* \"#utility.yul\":26745:26876   */\n      tag_699\n        /* \"#utility.yul\":26871:26875   */\n      dup2\n        /* \"#utility.yul\":26745:26876   */\n      tag_562\n      jump\t// in\n    tag_699:\n        /* \"#utility.yul\":26737:26876   */\n      swap1\n      pop\n        /* \"#utility.yul\":26464:26883   */\n      swap2\n      swap1\n      pop\n      jump\t// out\n        /* \"#utility.yul\":26889:27308   */\n    tag_306:\n        /* \"#utility.yul\":27055:27059   */\n      0x00\n        /* \"#utility.yul\":27093:27095   */\n      0x20\n        /* \"#utility.yul\":27082:27091   */\n      dup3\n        /* \"#utility.yul\":27078:27096   */\n      add\n        /* \"#utility.yul\":27070:27096   */\n      swap1\n      pop\n        /* \"#utility.yul\":27142:27151   */\n      dup2\n        /* \"#utility.yul\":27136:27140   */\n      dup2\n        /* \"#utility.yul\":27132:27152   */\n      sub\n        /* \"#utility.yul\":27128:27129   */\n      0x00\n        /* \"#utility.yul\":27117:27126   */\n      dup4\n        /* \"#utility.yul\":27113:27130   */\n      add\n        /* \"#utility.yul\":27106:27153   */\n      mstore\n        /* \"#utility.yul\":27170:27301   */\n      tag_701\n        /* \"#utility.yul\":27296:27300   */\n      dup2\n        /* \"#utility.yul\":27170:27301   */\n      tag_567\n      jump\t// in\n    tag_701:\n        /* \"#utility.yul\":27162:27301   */\n      swap1\n      pop\n        /* \"#utility.yul\":26889:27308   */\n      swap2\n      swap1\n      pop\n      jump\t// out\n        /* \"#utility.yul\":27314:27733   */\n    tag_81:\n        /* \"#utility.yul\":27480:27484   */\n      0x00\n        /* \"#utility.yul\":27518:27520   */\n      0x20\n        /* \"#utility.yul\":27507:27516   */\n      dup3\n        /* \"#utility.yul\":27503:27521   */\n      add\n        /* \"#utility.yul\":27495:27521   */\n      swap1\n      pop\n        /* \"#utility.yul\":27567:27576   */\n      dup2\n        /* \"#utility.yul\":27561:27565   */\n      dup2\n        /* \"#utility.yul\":27557:27577   */\n      sub\n        /* \"#utility.yul\":27553:27554   */\n      0x00\n        /* \"#utility.yul\":27542:27551   */\n      dup4\n        /* \"#utility.yul\":27538:27555   */\n      add\n        /* \"#utility.yul\":27531:27578   */\n      mstore\n        /* \"#utility.yul\":27595:27726   */\n      tag_703\n        /* \"#utility.yul\":27721:27725   */\n      dup2\n        /* \"#utility.yul\":27595:27726   */\n      tag_572\n      jump\t// in\n    tag_703:\n        /* \"#utility.yul\":27587:27726   */\n      swap1\n      pop\n        /* \"#utility.yul\":27314:27733   */\n      swap2\n      swap1\n      pop\n      jump\t// out\n        /* \"#utility.yul\":27739:28158   */\n    tag_138:\n        /* \"#utility.yul\":27905:27909   */\n      0x00\n        /* \"#utility.yul\":27943:27945   */\n      0x20\n        /* \"#utility.yul\":27932:27941   */\n      dup3\n        /* \"#utility.yul\":27928:27946   */\n      add\n        /* \"#utility.yul\":27920:27946   */\n      swap1\n      pop\n        /* \"#utility.yul\":27992:28001   */\n      dup2\n        /* \"#utility.yul\":27986:27990   */\n      dup2\n        /* \"#utility.yul\":27982:28002   */\n      sub\n        /* \"#utility.yul\":27978:27979   */\n      0x00\n        /* \"#utility.yul\":27967:27976   */\n      dup4\n        /* \"#utility.yul\":27963:27980   */\n      add\n        /* \"#utility.yul\":27956:28003   */\n      mstore\n        /* \"#utility.yul\":28020:28151   */\n      tag_705\n        /* \"#utility.yul\":28146:28150   */\n      dup2\n        /* \"#utility.yul\":28020:28151   */\n      tag_577\n      jump\t// in\n    tag_705:\n        /* \"#utility.yul\":28012:28151   */\n      swap1\n      pop\n        /* \"#utility.yul\":27739:28158   */\n      swap2\n      swap1\n      pop\n      jump\t// out\n        /* \"#utility.yul\":28164:28583   */\n    tag_262:\n        /* \"#utility.yul\":28330:28334   */\n      0x00\n        /* \"#utility.yul\":28368:28370   */\n      0x20\n        /* \"#utility.yul\":28357:28366   */\n      dup3\n        /* \"#utility.yul\":28353:28371   */\n      add\n        /* \"#utility.yul\":28345:28371   */\n      swap1\n      pop\n        /* \"#utility.yul\":28417:28426   */\n      dup2\n        /* \"#utility.yul\":28411:28415   */\n      dup2\n        /* \"#utility.yul\":28407:28427   */\n      sub\n        /* \"#utility.yul\":28403:28404   */\n      0x00\n        /* \"#utility.yul\":28392:28401   */\n      dup4\n        /* \"#utility.yul\":28388:28405   */\n      add\n        /* \"#utility.yul\":28381:28428   */\n      mstore\n        /* \"#utility.yul\":28445:28576   */\n      tag_707\n        /* \"#utility.yul\":28571:28575   */\n      dup2\n        /* \"#utility.yul\":28445:28576   */\n      tag_582\n      jump\t// in\n    tag_707:\n        /* \"#utility.yul\":28437:28576   */\n      swap1\n      pop\n        /* \"#utility.yul\":28164:28583   */\n      swap2\n      swap1\n      pop\n      jump\t// out\n        /* \"#utility.yul\":28589:29008   */\n    tag_178:\n        /* \"#utility.yul\":28755:28759   */\n      0x00\n        /* \"#utility.yul\":28793:28795   */\n      0x20\n        /* \"#utility.yul\":28782:28791   */\n      dup3\n        /* \"#utility.yul\":28778:28796   */\n      add\n        /* \"#utility.yul\":28770:28796   */\n      swap1\n      pop\n        /* \"#utility.yul\":28842:28851   */\n      dup2\n        /* \"#utility.yul\":28836:28840   */\n      dup2\n        /* \"#utility.yul\":28832:28852   */\n      sub\n        /* \"#utility.yul\":28828:28829   */\n      0x00\n        /* \"#utility.yul\":28817:28826   */\n      dup4\n        /* \"#utility.yul\":28813:28830   */\n      add\n        /* \"#utility.yul\":28806:28853   */\n      mstore\n        /* \"#utility.yul\":28870:29001   */\n      tag_709\n        /* \"#utility.yul\":28996:29000   */\n      dup2\n        /* \"#utility.yul\":28870:29001   */\n      tag_587\n      jump\t// in\n    tag_709:\n        /* \"#utility.yul\":28862:29001   */\n      swap1\n      pop\n        /* \"#utility.yul\":28589:29008   */\n      swap2\n      swap1\n      pop\n      jump\t// out\n        /* \"#utility.yul\":29014:29433   */\n    tag_135:\n        /* \"#utility.yul\":29180:29184   */\n      0x00\n        /* \"#utility.yul\":29218:29220   */\n      0x20\n        /* \"#utility.yul\":29207:29216   */\n      dup3\n        /* \"#utility.yul\":29203:29221   */\n      add\n        /* \"#utility.yul\":29195:29221   */\n      swap1\n      pop\n        /* \"#utility.yul\":29267:29276   */\n      dup2\n        /* \"#utility.yul\":29261:29265   */\n      dup2\n        /* \"#utility.yul\":29257:29277   */\n      sub\n        /* \"#utility.yul\":29253:29254   */\n      0x00\n        /* \"#utility.yul\":29242:29251   */\n      dup4\n        /* \"#utility.yul\":29238:29255   */\n      add\n        /* \"#utility.yul\":29231:29278   */\n      mstore\n        /* \"#utility.yul\":29295:29426   */\n      tag_711\n        /* \"#utility.yul\":29421:29425   */\n      dup2\n        /* \"#utility.yul\":29295:29426   */\n      tag_592\n      jump\t// in\n    tag_711:\n        /* \"#utility.yul\":29287:29426   */\n      swap1\n      pop\n        /* \"#utility.yul\":29014:29433   */\n      swap2\n      swap1\n      pop\n      jump\t// out\n        /* \"#utility.yul\":29439:29858   */\n    tag_228:\n        /* \"#utility.yul\":29605:29609   */\n      0x00\n        /* \"#utility.yul\":29643:29645   */\n      0x20\n        /* \"#utility.yul\":29632:29641   */\n      dup3\n        /* \"#utility.yul\":29628:29646   */\n      add\n        /* \"#utility.yul\":29620:29646   */\n      swap1\n      pop\n        /* \"#utility.yul\":29692:29701   */\n      dup2\n        /* \"#utility.yul\":29686:29690   */\n      dup2\n        /* \"#utility.yul\":29682:29702   */\n      sub\n        /* \"#utility.yul\":29678:29679   */\n      0x00\n        /* \"#utility.yul\":29667:29676   */\n      dup4\n        /* \"#utility.yul\":29663:29680   */\n      add\n        /* \"#utility.yul\":29656:29703   */\n      mstore\n        /* \"#utility.yul\":29720:29851   */\n      tag_713\n        /* \"#utility.yul\":29846:29850   */\n      dup2\n        /* \"#utility.yul\":29720:29851   */\n      tag_597\n      jump\t// in\n    tag_713:\n        /* \"#utility.yul\":29712:29851   */\n      swap1\n      pop\n        /* \"#utility.yul\":29439:29858   */\n      swap2\n      swap1\n      pop\n      jump\t// out\n        /* \"#utility.yul\":29864:30283   */\n    tag_93:\n        /* \"#utility.yul\":30030:30034   */\n      0x00\n        /* \"#utility.yul\":30068:30070   */\n      0x20\n        /* \"#utility.yul\":30057:30066   */\n      dup3\n        /* \"#utility.yul\":30053:30071   */\n      add\n        /* \"#utility.yul\":30045:30071   */\n      swap1\n      pop\n        /* \"#utility.yul\":30117:30126   */\n      dup2\n        /* \"#utility.yul\":30111:30115   */\n      dup2\n        /* \"#utility.yul\":30107:30127   */\n      sub\n        /* \"#utility.yul\":30103:30104   */\n      0x00\n        /* \"#utility.yul\":30092:30101   */\n      dup4\n        /* \"#utility.yul\":30088:30105   */\n      add\n        /* \"#utility.yul\":30081:30128   */\n      mstore\n        /* \"#utility.yul\":30145:30276   */\n      tag_715\n        /* \"#utility.yul\":30271:30275   */\n      dup2\n        /* \"#utility.yul\":30145:30276   */\n      tag_602\n      jump\t// in\n    tag_715:\n        /* \"#utility.yul\":30137:30276   */\n      swap1\n      pop\n        /* \"#utility.yul\":29864:30283   */\n      swap2\n      swap1\n      pop\n      jump\t// out\n        /* \"#utility.yul\":30289:30708   */\n    tag_252:\n        /* \"#utility.yul\":30455:30459   */\n      0x00\n        /* \"#utility.yul\":30493:30495   */\n      0x20\n        /* \"#utility.yul\":30482:30491   */\n      dup3\n        /* \"#utility.yul\":30478:30496   */\n      add\n        /* \"#utility.yul\":30470:30496   */\n      swap1\n      pop\n        /* \"#utility.yul\":30542:30551   */\n      dup2\n        /* \"#utility.yul\":30536:30540   */\n      dup2\n        /* \"#utility.yul\":30532:30552   */\n      sub\n        /* \"#utility.yul\":30528:30529   */\n      0x00\n        /* \"#utility.yul\":30517:30526   */\n      dup4\n        /* \"#utility.yul\":30513:30530   */\n      add\n        /* \"#utility.yul\":30506:30553   */\n      mstore\n        /* \"#utility.yul\":30570:30701   */\n      tag_717\n        /* \"#utility.yul\":30696:30700   */\n      dup2\n        /* \"#utility.yul\":30570:30701   */\n      tag_607\n      jump\t// in\n    tag_717:\n        /* \"#utility.yul\":30562:30701   */\n      swap1\n      pop\n        /* \"#utility.yul\":30289:30708   */\n      swap2\n      swap1\n      pop\n      jump\t// out\n        /* \"#utility.yul\":30714:31133   */\n    tag_132:\n        /* \"#utility.yul\":30880:30884   */\n      0x00\n        /* \"#utility.yul\":30918:30920   */\n      0x20\n        /* \"#utility.yul\":30907:30916   */\n      dup3\n        /* \"#utility.yul\":30903:30921   */\n      add\n        /* \"#utility.yul\":30895:30921   */\n      swap1\n      pop\n        /* \"#utility.yul\":30967:30976   */\n      dup2\n        /* \"#utility.yul\":30961:30965   */\n      dup2\n        /* \"#utility.yul\":30957:30977   */\n      sub\n        /* \"#utility.yul\":30953:30954   */\n      0x00\n        /* \"#utility.yul\":30942:30951   */\n      dup4\n        /* \"#utility.yul\":30938:30955   */\n      add\n        /* \"#utility.yul\":30931:30978   */\n      mstore\n        /* \"#utility.yul\":30995:31126   */\n      tag_719\n        /* \"#utility.yul\":31121:31125   */\n      dup2\n        /* \"#utility.yul\":30995:31126   */\n      tag_612\n      jump\t// in\n    tag_719:\n        /* \"#utility.yul\":30987:31126   */\n      swap1\n      pop\n        /* \"#utility.yul\":30714:31133   */\n      swap2\n      swap1\n      pop\n      jump\t// out\n        /* \"#utility.yul\":31139:31558   */\n    tag_156:\n        /* \"#utility.yul\":31305:31309   */\n      0x00\n        /* \"#utility.yul\":31343:31345   */\n      0x20\n        /* \"#utility.yul\":31332:31341   */\n      dup3\n        /* \"#utility.yul\":31328:31346   */\n      add\n        /* \"#utility.yul\":31320:31346   */\n      swap1\n      pop\n        /* \"#utility.yul\":31392:31401   */\n      dup2\n        /* \"#utility.yul\":31386:31390   */\n      dup2\n        /* \"#utility.yul\":31382:31402   */\n      sub\n        /* \"#utility.yul\":31378:31379   */\n      0x00\n        /* \"#utility.yul\":31367:31376   */\n      dup4\n        /* \"#utility.yul\":31363:31380   */\n      add\n        /* \"#utility.yul\":31356:31403   */\n      mstore\n        /* \"#utility.yul\":31420:31551   */\n      tag_721\n        /* \"#utility.yul\":31546:31550   */\n      dup2\n        /* \"#utility.yul\":31420:31551   */\n      tag_617\n      jump\t// in\n    tag_721:\n        /* \"#utility.yul\":31412:31551   */\n      swap1\n      pop\n        /* \"#utility.yul\":31139:31558   */\n      swap2\n      swap1\n      pop\n      jump\t// out\n        /* \"#utility.yul\":31564:31983   */\n    tag_99:\n        /* \"#utility.yul\":31730:31734   */\n      0x00\n        /* \"#utility.yul\":31768:31770   */\n      0x20\n        /* \"#utility.yul\":31757:31766   */\n      dup3\n        /* \"#utility.yul\":31753:31771   */\n      add\n        /* \"#utility.yul\":31745:31771   */\n      swap1\n      pop\n        /* \"#utility.yul\":31817:31826   */\n      dup2\n        /* \"#utility.yul\":31811:31815   */\n      dup2\n        /* \"#utility.yul\":31807:31827   */\n      sub\n        /* \"#utility.yul\":31803:31804   */\n      0x00\n        /* \"#utility.yul\":31792:31801   */\n      dup4\n        /* \"#utility.yul\":31788:31805   */\n      add\n        /* \"#utility.yul\":31781:31828   */\n      mstore\n        /* \"#utility.yul\":31845:31976   */\n      tag_723\n        /* \"#utility.yul\":31971:31975   */\n      dup2\n        /* \"#utility.yul\":31845:31976   */\n      tag_622\n      jump\t// in\n    tag_723:\n        /* \"#utility.yul\":31837:31976   */\n      swap1\n      pop\n        /* \"#utility.yul\":31564:31983   */\n      swap2\n      swap1\n      pop\n      jump\t// out\n        /* \"#utility.yul\":31989:32408   */\n    tag_303:\n        /* \"#utility.yul\":32155:32159   */\n      0x00\n        /* \"#utility.yul\":32193:32195   */\n      0x20\n        /* \"#utility.yul\":32182:32191   */\n      dup3\n        /* \"#utility.yul\":32178:32196   */\n      add\n        /* \"#utility.yul\":32170:32196   */\n      swap1\n      pop\n        /* \"#utility.yul\":32242:32251   */\n      dup2\n        /* \"#utility.yul\":32236:32240   */\n      dup2\n        /* \"#utility.yul\":32232:32252   */\n      sub\n        /* \"#utility.yul\":32228:32229   */\n      0x00\n        /* \"#utility.yul\":32217:32226   */\n      dup4\n        /* \"#utility.yul\":32213:32230   */\n      add\n        /* \"#utility.yul\":32206:32253   */\n      mstore\n        /* \"#utility.yul\":32270:32401   */\n      tag_725\n        /* \"#utility.yul\":32396:32400   */\n      dup2\n        /* \"#utility.yul\":32270:32401   */\n      tag_627\n      jump\t// in\n    tag_725:\n        /* \"#utility.yul\":32262:32401   */\n      swap1\n      pop\n        /* \"#utility.yul\":31989:32408   */\n      swap2\n      swap1\n      pop\n      jump\t// out\n        /* \"#utility.yul\":32414:32833   */\n    tag_141:\n        /* \"#utility.yul\":32580:32584   */\n      0x00\n        /* \"#utility.yul\":32618:32620   */\n      0x20\n        /* \"#utility.yul\":32607:32616   */\n      dup3\n        /* \"#utility.yul\":32603:32621   */\n      add\n        /* \"#utility.yul\":32595:32621   */\n      swap1\n      pop\n        /* \"#utility.yul\":32667:32676   */\n      dup2\n        /* \"#utility.yul\":32661:32665   */\n      dup2\n        /* \"#utility.yul\":32657:32677   */\n      sub\n        /* \"#utility.yul\":32653:32654   */\n      0x00\n        /* \"#utility.yul\":32642:32651   */\n      dup4\n        /* \"#utility.yul\":32638:32655   */\n      add\n        /* \"#utility.yul\":32631:32678   */\n      mstore\n        /* \"#utility.yul\":32695:32826   */\n      tag_727\n        /* \"#utility.yul\":32821:32825   */\n      dup2\n        /* \"#utility.yul\":32695:32826   */\n      tag_632\n      jump\t// in\n    tag_727:\n        /* \"#utility.yul\":32687:32826   */\n      swap1\n      pop\n        /* \"#utility.yul\":32414:32833   */\n      swap2\n      swap1\n      pop\n      jump\t// out\n        /* \"#utility.yul\":32839:33478   */\n    tag_123:\n        /* \"#utility.yul\":33061:33065   */\n      0x00\n        /* \"#utility.yul\":33099:33101   */\n      0x60\n        /* \"#utility.yul\":33088:33097   */\n      dup3\n        /* \"#utility.yul\":33084:33102   */\n      add\n        /* \"#utility.yul\":33076:33102   */\n      swap1\n      pop\n        /* \"#utility.yul\":33148:33157   */\n      dup2\n        /* \"#utility.yul\":33142:33146   */\n      dup2\n        /* \"#utility.yul\":33138:33158   */\n      sub\n        /* \"#utility.yul\":33134:33135   */\n      0x00\n        /* \"#utility.yul\":33123:33132   */\n      dup4\n        /* \"#utility.yul\":33119:33136   */\n      add\n        /* \"#utility.yul\":33112:33159   */\n      mstore\n        /* \"#utility.yul\":33176:33307   */\n      tag_729\n        /* \"#utility.yul\":33302:33306   */\n      dup2\n        /* \"#utility.yul\":33176:33307   */\n      tag_637\n      jump\t// in\n    tag_729:\n        /* \"#utility.yul\":33168:33307   */\n      swap1\n      pop\n        /* \"#utility.yul\":33317:33389   */\n      tag_730\n        /* \"#utility.yul\":33385:33387   */\n      0x20\n        /* \"#utility.yul\":33374:33383   */\n      dup4\n        /* \"#utility.yul\":33370:33388   */\n      add\n        /* \"#utility.yul\":33361:33367   */\n      dup6\n        /* \"#utility.yul\":33317:33389   */\n      tag_485\n      jump\t// in\n    tag_730:\n        /* \"#utility.yul\":33399:33471   */\n      tag_731\n        /* \"#utility.yul\":33467:33469   */\n      0x40\n        /* \"#utility.yul\":33456:33465   */\n      dup4\n        /* \"#utility.yul\":33452:33470   */\n      add\n        /* \"#utility.yul\":33443:33449   */\n      dup5\n        /* \"#utility.yul\":33399:33471   */\n      tag_670\n      jump\t// in\n    tag_731:\n        /* \"#utility.yul\":32839:33478   */\n      swap4\n      swap3\n      pop\n      pop\n      pop\n      jump\t// out\n        /* \"#utility.yul\":33484:33903   */\n    tag_283:\n        /* \"#utility.yul\":33650:33654   */\n      0x00\n        /* \"#utility.yul\":33688:33690   */\n      0x20\n        /* \"#utility.yul\":33677:33686   */\n      dup3\n        /* \"#utility.yul\":33673:33691   */\n      add\n        /* \"#utility.yul\":33665:33691   */\n      swap1\n      pop\n        /* \"#utility.yul\":33737:33746   */\n      dup2\n        /* \"#utility.yul\":33731:33735   */\n      dup2\n        /* \"#utility.yul\":33727:33747   */\n      sub\n        /* \"#utility.yul\":33723:33724   */\n      0x00\n        /* \"#utility.yul\":33712:33721   */\n      dup4\n        /* \"#utility.yul\":33708:33725   */\n      add\n        /* \"#utility.yul\":33701:33748   */\n      mstore\n        /* \"#utility.yul\":33765:33896   */\n      tag_733\n        /* \"#utility.yul\":33891:33895   */\n      dup2\n        /* \"#utility.yul\":33765:33896   */\n      tag_642\n      jump\t// in\n    tag_733:\n        /* \"#utility.yul\":33757:33896   */\n      swap1\n      pop\n        /* \"#utility.yul\":33484:33903   */\n      swap2\n      swap1\n      pop\n      jump\t// out\n        /* \"#utility.yul\":33909:34548   */\n    tag_167:\n        /* \"#utility.yul\":34131:34135   */\n      0x00\n        /* \"#utility.yul\":34169:34171   */\n      0x60\n        /* \"#utility.yul\":34158:34167   */\n      dup3\n        /* \"#utility.yul\":34154:34172   */\n      add\n        /* \"#utility.yul\":34146:34172   */\n      swap1\n      pop\n        /* \"#utility.yul\":34218:34227   */\n      dup2\n        /* \"#utility.yul\":34212:34216   */\n      dup2\n        /* \"#utility.yul\":34208:34228   */\n      sub\n        /* \"#utility.yul\":34204:34205   */\n      0x00\n        /* \"#utility.yul\":34193:34202   */\n      dup4\n        /* \"#utility.yul\":34189:34206   */\n      add\n        /* \"#utility.yul\":34182:34229   */\n      mstore\n        /* \"#utility.yul\":34246:34377   */\n      tag_735\n        /* \"#utility.yul\":34372:34376   */\n      dup2\n        /* \"#utility.yul\":34246:34377   */\n      tag_647\n      jump\t// in\n    tag_735:\n        /* \"#utility.yul\":34238:34377   */\n      swap1\n      pop\n        /* \"#utility.yul\":34387:34459   */\n      tag_736\n        /* \"#utility.yul\":34455:34457   */\n      0x20\n        /* \"#utility.yul\":34444:34453   */\n      dup4\n        /* \"#utility.yul\":34440:34458   */\n      add\n        /* \"#utility.yul\":34431:34437   */\n      dup6\n        /* \"#utility.yul\":34387:34459   */\n      tag_485\n      jump\t// in\n    tag_736:\n        /* \"#utility.yul\":34469:34541   */\n      tag_737\n        /* \"#utility.yul\":34537:34539   */\n      0x40\n        /* \"#utility.yul\":34526:34535   */\n      dup4\n        /* \"#utility.yul\":34522:34540   */\n      add\n        /* \"#utility.yul\":34513:34519   */\n      dup5\n        /* \"#utility.yul\":34469:34541   */\n      tag_670\n      jump\t// in\n    tag_737:\n        /* \"#utility.yul\":33909:34548   */\n      swap4\n      swap3\n      pop\n      pop\n      pop\n      jump\t// out\n        /* \"#utility.yul\":34554:34973   */\n    tag_286:\n        /* \"#utility.yul\":34720:34724   */\n      0x00\n        /* \"#utility.yul\":34758:34760   */\n      0x20\n        /* \"#utility.yul\":34747:34756   */\n      dup3\n        /* \"#utility.yul\":34743:34761   */\n      add\n        /* \"#utility.yul\":34735:34761   */\n      swap1\n      pop\n        /* \"#utility.yul\":34807:34816   */\n      dup2\n        /* \"#utility.yul\":34801:34805   */\n      dup2\n        /* \"#utility.yul\":34797:34817   */\n      sub\n        /* \"#utility.yul\":34793:34794   */\n      0x00\n        /* \"#utility.yul\":34782:34791   */\n      dup4\n        /* \"#utility.yul\":34778:34795   */\n      add\n        /* \"#utility.yul\":34771:34818   */\n      mstore\n        /* \"#utility.yul\":34835:34966   */\n      tag_739\n        /* \"#utility.yul\":34961:34965   */\n      dup2\n        /* \"#utility.yul\":34835:34966   */\n      tag_652\n      jump\t// in\n    tag_739:\n        /* \"#utility.yul\":34827:34966   */\n      swap1\n      pop\n        /* \"#utility.yul\":34554:34973   */\n      swap2\n      swap1\n      pop\n      jump\t// out\n        /* \"#utility.yul\":34979:35398   */\n    tag_296:\n        /* \"#utility.yul\":35145:35149   */\n      0x00\n        /* \"#utility.yul\":35183:35185   */\n      0x20\n        /* \"#utility.yul\":35172:35181   */\n      dup3\n        /* \"#utility.yul\":35168:35186   */\n      add\n        /* \"#utility.yul\":35160:35186   */\n      swap1\n      pop\n        /* \"#utility.yul\":35232:35241   */\n      dup2\n        /* \"#utility.yul\":35226:35230   */\n      dup2\n        /* \"#utility.yul\":35222:35242   */\n      sub\n        /* \"#utility.yul\":35218:35219   */\n      0x00\n        /* \"#utility.yul\":35207:35216   */\n      dup4\n        /* \"#utility.yul\":35203:35220   */\n      add\n        /* \"#utility.yul\":35196:35243   */\n      mstore\n        /* \"#utility.yul\":35260:35391   */\n      tag_741\n        /* \"#utility.yul\":35386:35390   */\n      dup2\n        /* \"#utility.yul\":35260:35391   */\n      tag_657\n      jump\t// in\n    tag_741:\n        /* \"#utility.yul\":35252:35391   */\n      swap1\n      pop\n        /* \"#utility.yul\":34979:35398   */\n      swap2\n      swap1\n      pop\n      jump\t// out\n        /* \"#utility.yul\":35404:35736   */\n    tag_71:\n        /* \"#utility.yul\":35525:35529   */\n      0x00\n        /* \"#utility.yul\":35563:35565   */\n      0x40\n        /* \"#utility.yul\":35552:35561   */\n      dup3\n        /* \"#utility.yul\":35548:35566   */\n      add\n        /* \"#utility.yul\":35540:35566   */\n      swap1\n      pop\n        /* \"#utility.yul\":35576:35647   */\n      tag_743\n        /* \"#utility.yul\":35644:35645   */\n      0x00\n        /* \"#utility.yul\":35633:35642   */\n      dup4\n        /* \"#utility.yul\":35629:35646   */\n      add\n        /* \"#utility.yul\":35620:35626   */\n      dup6\n        /* \"#utility.yul\":35576:35647   */\n      tag_662\n      jump\t// in\n    tag_743:\n        /* \"#utility.yul\":35657:35729   */\n      tag_744\n        /* \"#utility.yul\":35725:35727   */\n      0x20\n        /* \"#utility.yul\":35714:35723   */\n      dup4\n        /* \"#utility.yul\":35710:35728   */\n      add\n        /* \"#utility.yul\":35701:35707   */\n      dup5\n        /* \"#utility.yul\":35657:35729   */\n      tag_662\n      jump\t// in\n    tag_744:\n        /* \"#utility.yul\":35404:35736   */\n      swap4\n      swap3\n      pop\n      pop\n      pop\n      jump\t// out\n        /* \"#utility.yul\":35742:35964   */\n    tag_35:\n        /* \"#utility.yul\":35835:35839   */\n      0x00\n        /* \"#utility.yul\":35873:35875   */\n      0x20\n        /* \"#utility.yul\":35862:35871   */\n      dup3\n        /* \"#utility.yul\":35858:35876   */\n      add\n        /* \"#utility.yul\":35850:35876   */\n      swap1\n      pop\n        /* \"#utility.yul\":35886:35957   */\n      tag_746\n        /* \"#utility.yul\":35954:35955   */\n      0x00\n        /* \"#utility.yul\":35943:35952   */\n      dup4\n        /* \"#utility.yul\":35939:35956   */\n      add\n        /* \"#utility.yul\":35930:35936   */\n      dup5\n        /* \"#utility.yul\":35886:35957   */\n      tag_670\n      jump\t// in\n    tag_746:\n        /* \"#utility.yul\":35742:35964   */\n      swap3\n      swap2\n      pop\n      pop\n      jump\t// out\n        /* \"#utility.yul\":35970:36511   */\n    tag_66:\n        /* \"#utility.yul\":36141:36145   */\n      0x00\n        /* \"#utility.yul\":36179:36182   */\n      0x80\n        /* \"#utility.yul\":36168:36177   */\n      dup3\n        /* \"#utility.yul\":36164:36183   */\n      add\n        /* \"#utility.yul\":36156:36183   */\n      swap1\n      pop\n        /* \"#utility.yul\":36193:36264   */\n      tag_748\n        /* \"#utility.yul\":36261:36262   */\n      0x00\n        /* \"#utility.yul\":36250:36259   */\n      dup4\n        /* \"#utility.yul\":36246:36263   */\n      add\n        /* \"#utility.yul\":36237:36243   */\n      dup8\n        /* \"#utility.yul\":36193:36264   */\n      tag_670\n      jump\t// in\n    tag_748:\n        /* \"#utility.yul\":36274:36346   */\n      tag_749\n        /* \"#utility.yul\":36342:36344   */\n      0x20\n        /* \"#utility.yul\":36331:36340   */\n      dup4\n        /* \"#utility.yul\":36327:36345   */\n      add\n        /* \"#utility.yul\":36318:36324   */\n      dup7\n        /* \"#utility.yul\":36274:36346   */\n      tag_485\n      jump\t// in\n    tag_749:\n        /* \"#utility.yul\":36356:36422   */\n      tag_750\n        /* \"#utility.yul\":36418:36420   */\n      0x40\n        /* \"#utility.yul\":36407:36416   */\n      dup4\n        /* \"#utility.yul\":36403:36421   */\n      add\n        /* \"#utility.yul\":36394:36400   */\n      dup6\n        /* \"#utility.yul\":36356:36422   */\n      tag_516\n      jump\t// in\n    tag_750:\n        /* \"#utility.yul\":36432:36504   */\n      tag_751\n        /* \"#utility.yul\":36500:36502   */\n      0x60\n        /* \"#utility.yul\":36489:36498   */\n      dup4\n        /* \"#utility.yul\":36485:36503   */\n      add\n        /* \"#utility.yul\":36476:36482   */\n      dup5\n        /* \"#utility.yul\":36432:36504   */\n      tag_670\n      jump\t// in\n    tag_751:\n        /* \"#utility.yul\":35970:36511   */\n      swap6\n      swap5\n      pop\n      pop\n      pop\n      pop\n      pop\n      jump\t// out\n        /* \"#utility.yul\":36517:37860   */\n    tag_105:\n        /* \"#utility.yul\":36930:36934   */\n      0x00\n        /* \"#utility.yul\":36968:36971   */\n      0xe0\n        /* \"#utility.yul\":36957:36966   */\n      dup3\n        /* \"#utility.yul\":36953:36972   */\n      add\n        /* \"#utility.yul\":36945:36972   */\n      swap1\n      pop\n        /* \"#utility.yul\":36982:37053   */\n      tag_753\n        /* \"#utility.yul\":37050:37051   */\n      0x00\n        /* \"#utility.yul\":37039:37048   */\n      dup4\n        /* \"#utility.yul\":37035:37052   */\n      add\n        /* \"#utility.yul\":37026:37032   */\n      dup12\n        /* \"#utility.yul\":36982:37053   */\n      tag_670\n      jump\t// in\n    tag_753:\n        /* \"#utility.yul\":37100:37109   */\n      dup2\n        /* \"#utility.yul\":37094:37098   */\n      dup2\n        /* \"#utility.yul\":37090:37110   */\n      sub\n        /* \"#utility.yul\":37085:37087   */\n      0x20\n        /* \"#utility.yul\":37074:37083   */\n      dup4\n        /* \"#utility.yul\":37070:37088   */\n      add\n        /* \"#utility.yul\":37063:37111   */\n      mstore\n        /* \"#utility.yul\":37128:37236   */\n      tag_754\n        /* \"#utility.yul\":37231:37235   */\n      dup2\n        /* \"#utility.yul\":37222:37228   */\n      dup11\n        /* \"#utility.yul\":37128:37236   */\n      tag_488\n      jump\t// in\n    tag_754:\n        /* \"#utility.yul\":37120:37236   */\n      swap1\n      pop\n        /* \"#utility.yul\":37246:37318   */\n      tag_755\n        /* \"#utility.yul\":37314:37316   */\n      0x40\n        /* \"#utility.yul\":37303:37312   */\n      dup4\n        /* \"#utility.yul\":37299:37317   */\n      add\n        /* \"#utility.yul\":37290:37296   */\n      dup10\n        /* \"#utility.yul\":37246:37318   */\n      tag_485\n      jump\t// in\n    tag_755:\n        /* \"#utility.yul\":37328:37400   */\n      tag_756\n        /* \"#utility.yul\":37396:37398   */\n      0x60\n        /* \"#utility.yul\":37385:37394   */\n      dup4\n        /* \"#utility.yul\":37381:37399   */\n      add\n        /* \"#utility.yul\":37372:37378   */\n      dup9\n        /* \"#utility.yul\":37328:37400   */\n      tag_670\n      jump\t// in\n    tag_756:\n        /* \"#utility.yul\":37410:37483   */\n      tag_757\n        /* \"#utility.yul\":37478:37481   */\n      0x80\n        /* \"#utility.yul\":37467:37476   */\n      dup4\n        /* \"#utility.yul\":37463:37482   */\n      add\n        /* \"#utility.yul\":37454:37460   */\n      dup8\n        /* \"#utility.yul\":37410:37483   */\n      tag_670\n      jump\t// in\n    tag_757:\n        /* \"#utility.yul\":37531:37540   */\n      dup2\n        /* \"#utility.yul\":37525:37529   */\n      dup2\n        /* \"#utility.yul\":37521:37541   */\n      sub\n        /* \"#utility.yul\":37515:37518   */\n      0xa0\n        /* \"#utility.yul\":37504:37513   */\n      dup4\n        /* \"#utility.yul\":37500:37519   */\n      add\n        /* \"#utility.yul\":37493:37542   */\n      mstore\n        /* \"#utility.yul\":37559:37637   */\n      tag_758\n        /* \"#utility.yul\":37632:37636   */\n      dup2\n        /* \"#utility.yul\":37623:37629   */\n      dup7\n        /* \"#utility.yul\":37559:37637   */\n      tag_531\n      jump\t// in\n    tag_758:\n        /* \"#utility.yul\":37551:37637   */\n      swap1\n      pop\n        /* \"#utility.yul\":37685:37694   */\n      dup2\n        /* \"#utility.yul\":37679:37683   */\n      dup2\n        /* \"#utility.yul\":37675:37695   */\n      sub\n        /* \"#utility.yul\":37669:37672   */\n      0xc0\n        /* \"#utility.yul\":37658:37667   */\n      dup4\n        /* \"#utility.yul\":37654:37673   */\n      add\n        /* \"#utility.yul\":37647:37696   */\n      mstore\n        /* \"#utility.yul\":37713:37853   */\n      tag_759\n        /* \"#utility.yul\":37848:37852   */\n      dup2\n        /* \"#utility.yul\":37839:37845   */\n      dup5\n        /* \"#utility.yul\":37831:37837   */\n      dup7\n        /* \"#utility.yul\":37713:37853   */\n      tag_502\n      jump\t// in\n    tag_759:\n        /* \"#utility.yul\":37705:37853   */\n      swap1\n      pop\n        /* \"#utility.yul\":36517:37860   */\n      swap10\n      swap9\n      pop\n      pop\n      pop\n      pop\n      pop\n      pop\n      pop\n      pop\n      pop\n      jump\t// out\n        /* \"#utility.yul\":37866:38289   */\n    tag_60:\n        /* \"#utility.yul\":38007:38011   */\n      0x00\n        /* \"#utility.yul\":38045:38047   */\n      0x40\n        /* \"#utility.yul\":38034:38043   */\n      dup3\n        /* \"#utility.yul\":38030:38048   */\n      add\n        /* \"#utility.yul\":38022:38048   */\n      swap1\n      pop\n        /* \"#utility.yul\":38058:38129   */\n      tag_761\n        /* \"#utility.yul\":38126:38127   */\n      0x00\n        /* \"#utility.yul\":38115:38124   */\n      dup4\n        /* \"#utility.yul\":38111:38128   */\n      add\n        /* \"#utility.yul\":38102:38108   */\n      dup6\n        /* \"#utility.yul\":38058:38129   */\n      tag_670\n      jump\t// in\n    tag_761:\n        /* \"#utility.yul\":38176:38185   */\n      dup2\n        /* \"#utility.yul\":38170:38174   */\n      dup2\n        /* \"#utility.yul\":38166:38186   */\n      sub\n        /* \"#utility.yul\":38161:38163   */\n      0x20\n        /* \"#utility.yul\":38150:38159   */\n      dup4\n        /* \"#utility.yul\":38146:38164   */\n      add\n        /* \"#utility.yul\":38139:38187   */\n      mstore\n        /* \"#utility.yul\":38204:38282   */\n      tag_762\n        /* \"#utility.yul\":38277:38281   */\n      dup2\n        /* \"#utility.yul\":38268:38274   */\n      dup5\n        /* \"#utility.yul\":38204:38282   */\n      tag_531\n      jump\t// in\n    tag_762:\n        /* \"#utility.yul\":38196:38282   */\n      swap1\n      pop\n        /* \"#utility.yul\":37866:38289   */\n      swap4\n      swap3\n      pop\n      pop\n      pop\n      jump\t// out\n        /* \"#utility.yul\":38295:38509   */\n    tag_39:\n        /* \"#utility.yul\":38384:38388   */\n      0x00\n        /* \"#utility.yul\":38422:38424   */\n      0x20\n        /* \"#utility.yul\":38411:38420   */\n      dup3\n        /* \"#utility.yul\":38407:38425   */\n      add\n        /* \"#utility.yul\":38399:38425   */\n      swap1\n      pop\n        /* \"#utility.yul\":38435:38502   */\n      tag_764\n        /* \"#utility.yul\":38499:38500   */\n      0x00\n        /* \"#utility.yul\":38488:38497   */\n      dup4\n        /* \"#utility.yul\":38484:38501   */\n      add\n        /* \"#utility.yul\":38475:38481   */\n      dup5\n        /* \"#utility.yul\":38435:38502   */\n      tag_674\n      jump\t// in\n    tag_764:\n        /* \"#utility.yul\":38295:38509   */\n      swap3\n      swap2\n      pop\n      pop\n      jump\t// out\n        /* \"#utility.yul\":38515:39240   */\n    tag_195:\n        /* \"#utility.yul\":38593:38597   */\n      0x00\n        /* \"#utility.yul\":38599:38605   */\n      dup1\n        /* \"#utility.yul\":38655:38666   */\n      dup4\n        /* \"#utility.yul\":38642:38667   */\n      calldataload\n        /* \"#utility.yul\":38755:38756   */\n      0x01\n        /* \"#utility.yul\":38749:38753   */\n      0x20\n        /* \"#utility.yul\":38745:38757   */\n      sub\n        /* \"#utility.yul\":38734:38742   */\n      dup5\n        /* \"#utility.yul\":38718:38732   */\n      calldatasize\n        /* \"#utility.yul\":38714:38743   */\n      sub\n        /* \"#utility.yul\":38710:38758   */\n      sub\n        /* \"#utility.yul\":38690:38708   */\n      dup2\n        /* \"#utility.yul\":38686:38759   */\n      slt\n        /* \"#utility.yul\":38676:38844   */\n      tag_766\n      jumpi\n        /* \"#utility.yul\":38763:38842   */\n      tag_767\n      tag_768\n      jump\t// in\n    tag_767:\n        /* \"#utility.yul\":38676:38844   */\n    tag_766:\n        /* \"#utility.yul\":38875:38893   */\n      dup1\n        /* \"#utility.yul\":38865:38873   */\n      dup5\n        /* \"#utility.yul\":38861:38894   */\n      add\n        /* \"#utility.yul\":38853:38894   */\n      swap3\n      pop\n        /* \"#utility.yul\":38927:38931   */\n      dup3\n        /* \"#utility.yul\":38914:38932   */\n      calldataload\n        /* \"#utility.yul\":38904:38932   */\n      swap2\n      pop\n        /* \"#utility.yul\":38955:38973   */\n      0xffffffffffffffff\n        /* \"#utility.yul\":38947:38953   */\n      dup3\n        /* \"#utility.yul\":38944:38974   */\n      gt\n        /* \"#utility.yul\":38941:39058   */\n      iszero\n      tag_769\n      jumpi\n        /* \"#utility.yul\":38977:39056   */\n      tag_770\n      tag_771\n      jump\t// in\n    tag_770:\n        /* \"#utility.yul\":38941:39058   */\n    tag_769:\n        /* \"#utility.yul\":39085:39087   */\n      0x20\n        /* \"#utility.yul\":39079:39083   */\n      dup4\n        /* \"#utility.yul\":39075:39088   */\n      add\n        /* \"#utility.yul\":39067:39088   */\n      swap3\n      pop\n        /* \"#utility.yul\":39142:39146   */\n      0x01\n        /* \"#utility.yul\":39134:39140   */\n      dup3\n        /* \"#utility.yul\":39130:39147   */\n      mul\n        /* \"#utility.yul\":39114:39128   */\n      calldatasize\n        /* \"#utility.yul\":39110:39148   */\n      sub\n        /* \"#utility.yul\":39104:39108   */\n      dup4\n        /* \"#utility.yul\":39100:39149   */\n      sgt\n        /* \"#utility.yul\":39097:39233   */\n      iszero\n      tag_772\n      jumpi\n        /* \"#utility.yul\":39152:39231   */\n      tag_773\n      tag_774\n      jump\t// in\n    tag_773:\n        /* \"#utility.yul\":39097:39233   */\n    tag_772:\n        /* \"#utility.yul\":38606:39240   */\n      pop\n        /* \"#utility.yul\":38515:39240   */\n      swap3\n      pop\n      swap3\n      swap1\n      pop\n      jump\t// out\n        /* \"#utility.yul\":39246:39375   */\n    tag_340:\n        /* \"#utility.yul\":39280:39286   */\n      0x00\n        /* \"#utility.yul\":39307:39327   */\n      tag_776\n      tag_777\n      jump\t// in\n    tag_776:\n        /* \"#utility.yul\":39297:39327   */\n      swap1\n      pop\n        /* \"#utility.yul\":39336:39369   */\n      tag_778\n        /* \"#utility.yul\":39364:39368   */\n      dup3\n        /* \"#utility.yul\":39356:39362   */\n      dup3\n        /* \"#utility.yul\":39336:39369   */\n      tag_779\n      jump\t// in\n    tag_778:\n        /* \"#utility.yul\":39246:39375   */\n      swap2\n      swap1\n      pop\n      jump\t// out\n        /* \"#utility.yul\":39381:39456   */\n    tag_777:\n        /* \"#utility.yul\":39414:39420   */\n      0x00\n        /* \"#utility.yul\":39447:39449   */\n      0x40\n        /* \"#utility.yul\":39441:39450   */\n      mload\n        /* \"#utility.yul\":39431:39450   */\n      swap1\n      pop\n        /* \"#utility.yul\":39381:39456   */\n      swap1\n      jump\t// out\n        /* \"#utility.yul\":39462:39773   */\n    tag_339:\n        /* \"#utility.yul\":39539:39543   */\n      0x00\n        /* \"#utility.yul\":39629:39647   */\n      0xffffffffffffffff\n        /* \"#utility.yul\":39621:39627   */\n      dup3\n        /* \"#utility.yul\":39618:39648   */\n      gt\n        /* \"#utility.yul\":39615:39671   */\n      iszero\n      tag_782\n      jumpi\n        /* \"#utility.yul\":39651:39669   */\n      tag_783\n      tag_784\n      jump\t// in\n    tag_783:\n        /* \"#utility.yul\":39615:39671   */\n    tag_782:\n        /* \"#utility.yul\":39701:39705   */\n      0x20\n        /* \"#utility.yul\":39693:39699   */\n      dup3\n        /* \"#utility.yul\":39689:39706   */\n      mul\n        /* \"#utility.yul\":39681:39706   */\n      swap1\n      pop\n        /* \"#utility.yul\":39761:39765   */\n      0x20\n        /* \"#utility.yul\":39755:39759   */\n      dup2\n        /* \"#utility.yul\":39751:39766   */\n      add\n        /* \"#utility.yul\":39743:39766   */\n      swap1\n      pop\n        /* \"#utility.yul\":39462:39773   */\n      swap2\n      swap1\n      pop\n      jump\t// out\n        /* \"#utility.yul\":39779:40100   */\n    tag_353:\n        /* \"#utility.yul\":39866:39870   */\n      0x00\n        /* \"#utility.yul\":39956:39974   */\n      0xffffffffffffffff\n        /* \"#utility.yul\":39948:39954   */\n      dup3\n        /* \"#utility.yul\":39945:39975   */\n      gt\n        /* \"#utility.yul\":39942:39998   */\n      iszero\n      tag_786\n      jumpi\n        /* \"#utility.yul\":39978:39996   */\n      tag_787\n      tag_784\n      jump\t// in\n    tag_787:\n        /* \"#utility.yul\":39942:39998   */\n    tag_786:\n        /* \"#utility.yul\":40028:40032   */\n      0x20\n        /* \"#utility.yul\":40020:40026   */\n      dup3\n        /* \"#utility.yul\":40016:40033   */\n      mul\n        /* \"#utility.yul\":40008:40033   */\n      swap1\n      pop\n        /* \"#utility.yul\":40088:40092   */\n      0x20\n        /* \"#utility.yul\":40082:40086   */\n      dup2\n        /* \"#utility.yul\":40078:40093   */\n      add\n        /* \"#utility.yul\":40070:40093   */\n      swap1\n      pop\n        /* \"#utility.yul\":39779:40100   */\n      swap2\n      swap1\n      pop\n      jump\t// out\n        /* \"#utility.yul\":40106:40417   */\n    tag_368:\n        /* \"#utility.yul\":40183:40187   */\n      0x00\n        /* \"#utility.yul\":40273:40291   */\n      0xffffffffffffffff\n        /* \"#utility.yul\":40265:40271   */\n      dup3\n        /* \"#utility.yul\":40262:40292   */\n      gt\n        /* \"#utility.yul\":40259:40315   */\n      iszero\n      tag_789\n      jumpi\n        /* \"#utility.yul\":40295:40313   */\n      tag_790\n      tag_784\n      jump\t// in\n    tag_790:\n        /* \"#utility.yul\":40259:40315   */\n    tag_789:\n        /* \"#utility.yul\":40345:40349   */\n      0x20\n        /* \"#utility.yul\":40337:40343   */\n      dup3\n        /* \"#utility.yul\":40333:40350   */\n      mul\n        /* \"#utility.yul\":40325:40350   */\n      swap1\n      pop\n        /* \"#utility.yul\":40405:40409   */\n      0x20\n        /* \"#utility.yul\":40399:40403   */\n      dup2\n        /* \"#utility.yul\":40395:40410   */\n      add\n        /* \"#utility.yul\":40387:40410   */\n      swap1\n      pop\n        /* \"#utility.yul\":40106:40417   */\n      swap2\n      swap1\n      pop\n      jump\t// out\n        /* \"#utility.yul\":40423:40731   */\n    tag_380:\n        /* \"#utility.yul\":40485:40489   */\n      0x00\n        /* \"#utility.yul\":40575:40593   */\n      0xffffffffffffffff\n        /* \"#utility.yul\":40567:40573   */\n      dup3\n        /* \"#utility.yul\":40564:40594   */\n      gt\n        /* \"#utility.yul\":40561:40617   */\n      iszero\n      tag_792\n      jumpi\n        /* \"#utility.yul\":40597:40615   */\n      tag_793\n      tag_784\n      jump\t// in\n    tag_793:\n        /* \"#utility.yul\":40561:40617   */\n    tag_792:\n        /* \"#utility.yul\":40635:40664   */\n      tag_794\n        /* \"#utility.yul\":40657:40663   */\n      dup3\n        /* \"#utility.yul\":40635:40664   */\n      tag_525\n      jump\t// in\n    tag_794:\n        /* \"#utility.yul\":40627:40664   */\n      swap1\n      pop\n        /* \"#utility.yul\":40719:40723   */\n      0x20\n        /* \"#utility.yul\":40713:40717   */\n      dup2\n        /* \"#utility.yul\":40709:40724   */\n      add\n        /* \"#utility.yul\":40701:40724   */\n      swap1\n      pop\n        /* \"#utility.yul\":40423:40731   */\n      swap2\n      swap1\n      pop\n      jump\t// out\n        /* \"#utility.yul\":40737:40869   */\n    tag_495:\n        /* \"#utility.yul\":40804:40808   */\n      0x00\n        /* \"#utility.yul\":40827:40830   */\n      dup2\n        /* \"#utility.yul\":40819:40830   */\n      swap1\n      pop\n        /* \"#utility.yul\":40857:40861   */\n      0x20\n        /* \"#utility.yul\":40852:40855   */\n      dup3\n        /* \"#utility.yul\":40848:40862   */\n      add\n        /* \"#utility.yul\":40840:40862   */\n      swap1\n      pop\n        /* \"#utility.yul\":40737:40869   */\n      swap2\n      swap1\n      pop\n      jump\t// out\n        /* \"#utility.yul\":40875:40989   */\n    tag_507:\n        /* \"#utility.yul\":40956:40960   */\n      0x00\n        /* \"#utility.yul\":40979:40982   */\n      dup2\n        /* \"#utility.yul\":40971:40982   */\n      swap1\n      pop\n        /* \"#utility.yul\":40875:40989   */\n      swap2\n      swap1\n      pop\n      jump\t// out\n        /* \"#utility.yul\":40995:41136   */\n    tag_553:\n        /* \"#utility.yul\":41044:41048   */\n      0x00\n        /* \"#utility.yul\":41067:41070   */\n      dup2\n        /* \"#utility.yul\":41059:41070   */\n      swap1\n      pop\n        /* \"#utility.yul\":41090:41093   */\n      dup2\n        /* \"#utility.yul\":41087:41088   */\n      0x00\n        /* \"#utility.yul\":41080:41094   */\n      mstore\n        /* \"#utility.yul\":41124:41128   */\n      0x20\n        /* \"#utility.yul\":41121:41122   */\n      0x00\n        /* \"#utility.yul\":41111:41129   */\n      keccak256\n        /* \"#utility.yul\":41103:41129   */\n      swap1\n      pop\n        /* \"#utility.yul\":40995:41136   */\n      swap2\n      swap1\n      pop\n      jump\t// out\n        /* \"#utility.yul\":41142:41256   */\n    tag_491:\n        /* \"#utility.yul\":41209:41215   */\n      0x00\n        /* \"#utility.yul\":41243:41248   */\n      dup2\n        /* \"#utility.yul\":41237:41249   */\n      mload\n        /* \"#utility.yul\":41227:41249   */\n      swap1\n      pop\n        /* \"#utility.yul\":41142:41256   */\n      swap2\n      swap1\n      pop\n      jump\t// out\n        /* \"#utility.yul\":41262:41361   */\n    tag_534:\n        /* \"#utility.yul\":41314:41320   */\n      0x00\n        /* \"#utility.yul\":41348:41353   */\n      dup2\n        /* \"#utility.yul\":41342:41354   */\n      mload\n        /* \"#utility.yul\":41332:41354   */\n      swap1\n      pop\n        /* \"#utility.yul\":41262:41361   */\n      swap2\n      swap1\n      pop\n      jump\t// out\n        /* \"#utility.yul\":41367:41480   */\n    tag_501:\n        /* \"#utility.yul\":41437:41441   */\n      0x00\n        /* \"#utility.yul\":41469:41473   */\n      0x20\n        /* \"#utility.yul\":41464:41467   */\n      dup3\n        /* \"#utility.yul\":41460:41474   */\n      add\n        /* \"#utility.yul\":41452:41474   */\n      swap1\n      pop\n        /* \"#utility.yul\":41367:41480   */\n      swap2\n      swap1\n      pop\n      jump\t// out\n        /* \"#utility.yul\":41486:41613   */\n    tag_515:\n        /* \"#utility.yul\":41570:41574   */\n      0x00\n        /* \"#utility.yul\":41602:41606   */\n      0x20\n        /* \"#utility.yul\":41597:41600   */\n      dup3\n        /* \"#utility.yul\":41593:41607   */\n      add\n        /* \"#utility.yul\":41585:41607   */\n      swap1\n      pop\n        /* \"#utility.yul\":41486:41613   */\n      swap2\n      swap1\n      pop\n      jump\t// out\n        /* \"#utility.yul\":41619:41803   */\n    tag_493:\n        /* \"#utility.yul\":41718:41729   */\n      0x00\n        /* \"#utility.yul\":41752:41758   */\n      dup3\n        /* \"#utility.yul\":41747:41750   */\n      dup3\n        /* \"#utility.yul\":41740:41759   */\n      mstore\n        /* \"#utility.yul\":41792:41796   */\n      0x20\n        /* \"#utility.yul\":41787:41790   */\n      dup3\n        /* \"#utility.yul\":41783:41797   */\n      add\n        /* \"#utility.yul\":41768:41797   */\n      swap1\n      pop\n        /* \"#utility.yul\":41619:41803   */\n      swap3\n      swap2\n      pop\n      pop\n      jump\t// out\n        /* \"#utility.yul\":41809:42003   */\n    tag_505:\n        /* \"#utility.yul\":41918:41929   */\n      0x00\n        /* \"#utility.yul\":41952:41958   */\n      dup3\n        /* \"#utility.yul\":41947:41950   */\n      dup3\n        /* \"#utility.yul\":41940:41959   */\n      mstore\n        /* \"#utility.yul\":41992:41996   */\n      0x20\n        /* \"#utility.yul\":41987:41990   */\n      dup3\n        /* \"#utility.yul\":41983:41997   */\n      add\n        /* \"#utility.yul\":41968:41997   */\n      swap1\n      pop\n        /* \"#utility.yul\":41809:42003   */\n      swap3\n      swap2\n      pop\n      pop\n      jump\t// out\n        /* \"#utility.yul\":42009:42168   */\n    tag_522:\n        /* \"#utility.yul\":42083:42094   */\n      0x00\n        /* \"#utility.yul\":42117:42123   */\n      dup3\n        /* \"#utility.yul\":42112:42115   */\n      dup3\n        /* \"#utility.yul\":42105:42124   */\n      mstore\n        /* \"#utility.yul\":42157:42161   */\n      0x20\n        /* \"#utility.yul\":42152:42155   */\n      dup3\n        /* \"#utility.yul\":42148:42162   */\n      add\n        /* \"#utility.yul\":42133:42162   */\n      swap1\n      pop\n        /* \"#utility.yul\":42009:42168   */\n      swap3\n      swap2\n      pop\n      pop\n      jump\t// out\n        /* \"#utility.yul\":42174:42343   */\n    tag_536:\n        /* \"#utility.yul\":42258:42269   */\n      0x00\n        /* \"#utility.yul\":42292:42298   */\n      dup3\n        /* \"#utility.yul\":42287:42290   */\n      dup3\n        /* \"#utility.yul\":42280:42299   */\n      mstore\n        /* \"#utility.yul\":42332:42336   */\n      0x20\n        /* \"#utility.yul\":42327:42330   */\n      dup3\n        /* \"#utility.yul\":42323:42337   */\n      add\n        /* \"#utility.yul\":42308:42337   */\n      swap1\n      pop\n        /* \"#utility.yul\":42174:42343   */\n      swap3\n      swap2\n      pop\n      pop\n      jump\t// out\n        /* \"#utility.yul\":42349:42497   */\n    tag_529:\n        /* \"#utility.yul\":42451:42462   */\n      0x00\n        /* \"#utility.yul\":42488:42491   */\n      dup2\n        /* \"#utility.yul\":42473:42491   */\n      swap1\n      pop\n        /* \"#utility.yul\":42349:42497   */\n      swap3\n      swap2\n      pop\n      pop\n      jump\t// out\n        /* \"#utility.yul\":42503:43218   */\n    tag_512:\n        /* \"#utility.yul\":42568:42573   */\n      0x00\n        /* \"#utility.yul\":42575:42581   */\n      dup1\n        /* \"#utility.yul\":42631:42634   */\n      dup4\n        /* \"#utility.yul\":42618:42635   */\n      calldataload\n        /* \"#utility.yul\":42723:42724   */\n      0x01\n        /* \"#utility.yul\":42717:42721   */\n      0x20\n        /* \"#utility.yul\":42713:42725   */\n      sub\n        /* \"#utility.yul\":42702:42710   */\n      dup5\n        /* \"#utility.yul\":42686:42700   */\n      calldatasize\n        /* \"#utility.yul\":42682:42711   */\n      sub\n        /* \"#utility.yul\":42678:42726   */\n      sub\n        /* \"#utility.yul\":42658:42676   */\n      dup2\n        /* \"#utility.yul\":42654:42727   */\n      slt\n        /* \"#utility.yul\":42644:42812   */\n      tag_808\n      jumpi\n        /* \"#utility.yul\":42731:42810   */\n      tag_809\n      tag_810\n      jump\t// in\n    tag_809:\n        /* \"#utility.yul\":42644:42812   */\n    tag_808:\n        /* \"#utility.yul\":42854:42862   */\n      dup4\n        /* \"#utility.yul\":42834:42852   */\n      dup2\n        /* \"#utility.yul\":42830:42863   */\n      add\n        /* \"#utility.yul\":42821:42863   */\n      swap3\n      pop\n        /* \"#utility.yul\":42896:42901   */\n      dup3\n        /* \"#utility.yul\":42883:42902   */\n      calldataload\n        /* \"#utility.yul\":42873:42902   */\n      swap2\n      pop\n        /* \"#utility.yul\":42931:42935   */\n      0x20\n        /* \"#utility.yul\":42924:42929   */\n      dup4\n        /* \"#utility.yul\":42920:42936   */\n      add\n        /* \"#utility.yul\":42911:42936   */\n      swap3\n      pop\n        /* \"#utility.yul\":42959:42977   */\n      0xffffffffffffffff\n        /* \"#utility.yul\":42951:42957   */\n      dup3\n        /* \"#utility.yul\":42948:42978   */\n      gt\n        /* \"#utility.yul\":42945:43062   */\n      iszero\n      tag_811\n      jumpi\n        /* \"#utility.yul\":42981:43060   */\n      tag_812\n      tag_813\n      jump\t// in\n    tag_812:\n        /* \"#utility.yul\":42945:43062   */\n    tag_811:\n        /* \"#utility.yul\":43120:43124   */\n      0x01\n        /* \"#utility.yul\":43112:43118   */\n      dup3\n        /* \"#utility.yul\":43108:43125   */\n      mul\n        /* \"#utility.yul\":43092:43106   */\n      calldatasize\n        /* \"#utility.yul\":43088:43126   */\n      sub\n        /* \"#utility.yul\":43078:43086   */\n      dup5\n        /* \"#utility.yul\":43074:43127   */\n      sgt\n        /* \"#utility.yul\":43071:43211   */\n      iszero\n      tag_814\n      jumpi\n        /* \"#utility.yul\":43130:43209   */\n      tag_815\n      tag_816\n      jump\t// in\n    tag_815:\n        /* \"#utility.yul\":43071:43211   */\n    tag_814:\n        /* \"#utility.yul\":42582:43218   */\n      pop\n        /* \"#utility.yul\":42503:43218   */\n      swap3\n      pop\n      swap3\n      swap1\n      pop\n      jump\t// out\n        /* \"#utility.yul\":43224:43466   */\n    tag_277:\n        /* \"#utility.yul\":43263:43266   */\n      0x00\n        /* \"#utility.yul\":43282:43301   */\n      tag_818\n        /* \"#utility.yul\":43299:43300   */\n      dup3\n        /* \"#utility.yul\":43282:43301   */\n      tag_669\n      jump\t// in\n    tag_818:\n        /* \"#utility.yul\":43277:43301   */\n      swap2\n      pop\n        /* \"#utility.yul\":43315:43334   */\n      tag_819\n        /* \"#utility.yul\":43332:43333   */\n      dup4\n        /* \"#utility.yul\":43315:43334   */\n      tag_669\n      jump\t// in\n    tag_819:\n        /* \"#utility.yul\":43310:43334   */\n      swap3\n      pop\n        /* \"#utility.yul\":43408:43409   */\n      dup3\n        /* \"#utility.yul\":43400:43406   */\n      0xffff\n        /* \"#utility.yul\":43396:43410   */\n      sub\n        /* \"#utility.yul\":43393:43394   */\n      dup3\n        /* \"#utility.yul\":43390:43411   */\n      gt\n        /* \"#utility.yul\":43387:43434   */\n      iszero\n      tag_820\n      jumpi\n        /* \"#utility.yul\":43414:43432   */\n      tag_821\n      tag_822\n      jump\t// in\n    tag_821:\n        /* \"#utility.yul\":43387:43434   */\n    tag_820:\n        /* \"#utility.yul\":43458:43459   */\n      dup3\n        /* \"#utility.yul\":43455:43456   */\n      dup3\n        /* \"#utility.yul\":43451:43460   */\n      add\n        /* \"#utility.yul\":43444:43460   */\n      swap1\n      pop\n        /* \"#utility.yul\":43224:43466   */\n      swap3\n      swap2\n      pop\n      pop\n      jump\t// out\n        /* \"#utility.yul\":43472:43777   */\n    tag_152:\n        /* \"#utility.yul\":43512:43515   */\n      0x00\n        /* \"#utility.yul\":43531:43551   */\n      tag_824\n        /* \"#utility.yul\":43549:43550   */\n      dup3\n        /* \"#utility.yul\":43531:43551   */\n      tag_673\n      jump\t// in\n    tag_824:\n        /* \"#utility.yul\":43526:43551   */\n      swap2\n      pop\n        /* \"#utility.yul\":43565:43585   */\n      tag_825\n        /* \"#utility.yul\":43583:43584   */\n      dup4\n        /* \"#utility.yul\":43565:43585   */\n      tag_673\n      jump\t// in\n    tag_825:\n        /* \"#utility.yul\":43560:43585   */\n      swap3\n      pop\n        /* \"#utility.yul\":43719:43720   */\n      dup3\n        /* \"#utility.yul\":43651:43717   */\n      0xffffffffffffffffffffffffffffffffffffffffffffffffffffffffffffffff\n        /* \"#utility.yul\":43647:43721   */\n      sub\n        /* \"#utility.yul\":43644:43645   */\n      dup3\n        /* \"#utility.yul\":43641:43722   */\n      gt\n        /* \"#utility.yul\":43638:43745   */\n      iszero\n      tag_826\n      jumpi\n        /* \"#utility.yul\":43725:43743   */\n      tag_827\n      tag_822\n      jump\t// in\n    tag_827:\n        /* \"#utility.yul\":43638:43745   */\n    tag_826:\n        /* \"#utility.yul\":43769:43770   */\n      dup3\n        /* \"#utility.yul\":43766:43767   */\n      dup3\n        /* \"#utility.yul\":43762:43771   */\n      add\n        /* \"#utility.yul\":43755:43771   */\n      swap1\n      pop\n        /* \"#utility.yul\":43472:43777   */\n      swap3\n      swap2\n      pop\n      pop\n      jump\t// out\n        /* \"#utility.yul\":43783:44131   */\n    tag_150:\n        /* \"#utility.yul\":43823:43830   */\n      0x00\n        /* \"#utility.yul\":43846:43866   */\n      tag_829\n        /* \"#utility.yul\":43864:43865   */\n      dup3\n        /* \"#utility.yul\":43846:43866   */\n      tag_673\n      jump\t// in\n    tag_829:\n        /* \"#utility.yul\":43841:43866   */\n      swap2\n      pop\n        /* \"#utility.yul\":43880:43900   */\n      tag_830\n        /* \"#utility.yul\":43898:43899   */\n      dup4\n        /* \"#utility.yul\":43880:43900   */\n      tag_673\n      jump\t// in\n    tag_830:\n        /* \"#utility.yul\":43875:43900   */\n      swap3\n      pop\n        /* \"#utility.yul\":44068:44069   */\n      dup2\n        /* \"#utility.yul\":44000:44066   */\n      0xffffffffffffffffffffffffffffffffffffffffffffffffffffffffffffffff\n        /* \"#utility.yul\":43996:44070   */\n      div\n        /* \"#utility.yul\":43993:43994   */\n      dup4\n        /* \"#utility.yul\":43990:44071   */\n      gt\n        /* \"#utility.yul\":43985:43986   */\n      dup3\n        /* \"#utility.yul\":43978:43987   */\n      iszero\n        /* \"#utility.yul\":43971:43988   */\n      iszero\n        /* \"#utility.yul\":43967:44072   */\n      and\n        /* \"#utility.yul\":43964:44095   */\n      iszero\n      tag_831\n      jumpi\n        /* \"#utility.yul\":44075:44093   */\n      tag_832\n      tag_822\n      jump\t// in\n    tag_832:\n        /* \"#utility.yul\":43964:44095   */\n    tag_831:\n        /* \"#utility.yul\":44123:44124   */\n      dup3\n        /* \"#utility.yul\":44120:44121   */\n      dup3\n        /* \"#utility.yul\":44116:44125   */\n      mul\n        /* \"#utility.yul\":44105:44125   */\n      swap1\n      pop\n        /* \"#utility.yul\":43783:44131   */\n      swap3\n      swap2\n      pop\n      pop\n      jump\t// out\n        /* \"#utility.yul\":44137:44328   */\n    tag_308:\n        /* \"#utility.yul\":44177:44181   */\n      0x00\n        /* \"#utility.yul\":44197:44217   */\n      tag_834\n        /* \"#utility.yul\":44215:44216   */\n      dup3\n        /* \"#utility.yul\":44197:44217   */\n      tag_673\n      jump\t// in\n    tag_834:\n        /* \"#utility.yul\":44192:44217   */\n      swap2\n      pop\n        /* \"#utility.yul\":44231:44251   */\n      tag_835\n        /* \"#utility.yul\":44249:44250   */\n      dup4\n        /* \"#utility.yul\":44231:44251   */\n      tag_673\n      jump\t// in\n    tag_835:\n        /* \"#utility.yul\":44226:44251   */\n      swap3\n      pop\n        /* \"#utility.yul\":44270:44271   */\n      dup3\n        /* \"#utility.yul\":44267:44268   */\n      dup3\n        /* \"#utility.yul\":44264:44272   */\n      lt\n        /* \"#utility.yul\":44261:44295   */\n      iszero\n      tag_836\n      jumpi\n        /* \"#utility.yul\":44275:44293   */\n      tag_837\n      tag_822\n      jump\t// in\n    tag_837:\n        /* \"#utility.yul\":44261:44295   */\n    tag_836:\n        /* \"#utility.yul\":44320:44321   */\n      dup3\n        /* \"#utility.yul\":44317:44318   */\n      dup3\n        /* \"#utility.yul\":44313:44322   */\n      sub\n        /* \"#utility.yul\":44305:44322   */\n      swap1\n      pop\n        /* \"#utility.yul\":44137:44328   */\n      swap3\n      swap2\n      pop\n      pop\n      jump\t// out\n        /* \"#utility.yul\":44334:44430   */\n    tag_484:\n        /* \"#utility.yul\":44371:44378   */\n      0x00\n        /* \"#utility.yul\":44400:44424   */\n      tag_839\n        /* \"#utility.yul\":44418:44423   */\n      dup3\n        /* \"#utility.yul\":44400:44424   */\n      tag_840\n      jump\t// in\n    tag_839:\n        /* \"#utility.yul\":44389:44424   */\n      swap1\n      pop\n        /* \"#utility.yul\":44334:44430   */\n      swap2\n      swap1\n      pop\n      jump\t// out\n        /* \"#utility.yul\":44436:44526   */\n    tag_519:\n        /* \"#utility.yul\":44470:44477   */\n      0x00\n        /* \"#utility.yul\":44513:44518   */\n      dup2\n        /* \"#utility.yul\":44506:44519   */\n      iszero\n        /* \"#utility.yul\":44499:44520   */\n      iszero\n        /* \"#utility.yul\":44488:44520   */\n      swap1\n      pop\n        /* \"#utility.yul\":44436:44526   */\n      swap2\n      swap1\n      pop\n      jump\t// out\n        /* \"#utility.yul\":44532:44650   */\n    tag_665:\n        /* \"#utility.yul\":44569:44576   */\n      0x00\n        /* \"#utility.yul\":44609:44643   */\n      0xffffffffffffffffffffffffffffffff\n        /* \"#utility.yul\":44602:44607   */\n      dup3\n        /* \"#utility.yul\":44598:44644   */\n      and\n        /* \"#utility.yul\":44587:44644   */\n      swap1\n      pop\n        /* \"#utility.yul\":44532:44650   */\n      swap2\n      swap1\n      pop\n      jump\t// out\n        /* \"#utility.yul\":44656:44745   */\n    tag_669:\n        /* \"#utility.yul\":44692:44699   */\n      0x00\n        /* \"#utility.yul\":44732:44738   */\n      0xffff\n        /* \"#utility.yul\":44725:44730   */\n      dup3\n        /* \"#utility.yul\":44721:44739   */\n      and\n        /* \"#utility.yul\":44710:44739   */\n      swap1\n      pop\n        /* \"#utility.yul\":44656:44745   */\n      swap2\n      swap1\n      pop\n      jump\t// out\n        /* \"#utility.yul\":44751:44877   */\n    tag_840:\n        /* \"#utility.yul\":44788:44795   */\n      0x00\n        /* \"#utility.yul\":44828:44870   */\n      0xffffffffffffffffffffffffffffffffffffffff\n        /* \"#utility.yul\":44821:44826   */\n      dup3\n        /* \"#utility.yul\":44817:44871   */\n      and\n        /* \"#utility.yul\":44806:44871   */\n      swap1\n      pop\n        /* \"#utility.yul\":44751:44877   */\n      swap2\n      swap1\n      pop\n      jump\t// out\n        /* \"#utility.yul\":44883:44960   */\n    tag_673:\n        /* \"#utility.yul\":44920:44927   */\n      0x00\n        /* \"#utility.yul\":44949:44954   */\n      dup2\n        /* \"#utility.yul\":44938:44954   */\n      swap1\n      pop\n        /* \"#utility.yul\":44883:44960   */\n      swap2\n      swap1\n      pop\n      jump\t// out\n        /* \"#utility.yul\":44966:45052   */\n    tag_677:\n        /* \"#utility.yul\":45001:45008   */\n      0x00\n        /* \"#utility.yul\":45041:45045   */\n      0xff\n        /* \"#utility.yul\":45034:45039   */\n      dup3\n        /* \"#utility.yul\":45030:45046   */\n      and\n        /* \"#utility.yul\":45019:45046   */\n      swap1\n      pop\n        /* \"#utility.yul\":44966:45052   */\n      swap2\n      swap1\n      pop\n      jump\t// out\n        /* \"#utility.yul\":45058:45212   */\n    tag_385:\n        /* \"#utility.yul\":45142:45148   */\n      dup3\n        /* \"#utility.yul\":45137:45140   */\n      dup2\n        /* \"#utility.yul\":45132:45135   */\n      dup4\n        /* \"#utility.yul\":45119:45149   */\n      calldatacopy\n        /* \"#utility.yul\":45204:45205   */\n      0x00\n        /* \"#utility.yul\":45195:45201   */\n      dup4\n        /* \"#utility.yul\":45190:45193   */\n      dup4\n        /* \"#utility.yul\":45186:45202   */\n      add\n        /* \"#utility.yul\":45179:45206   */\n      mstore\n        /* \"#utility.yul\":45058:45212   */\n      pop\n      pop\n      pop\n      jump\t// out\n        /* \"#utility.yul\":45218:45525   */\n    tag_538:\n        /* \"#utility.yul\":45286:45287   */\n      0x00\n        /* \"#utility.yul\":45296:45409   */\n    tag_849:\n        /* \"#utility.yul\":45310:45316   */\n      dup4\n        /* \"#utility.yul\":45307:45308   */\n      dup2\n        /* \"#utility.yul\":45304:45317   */\n      lt\n        /* \"#utility.yul\":45296:45409   */\n      iszero\n      tag_851\n      jumpi\n        /* \"#utility.yul\":45395:45396   */\n      dup1\n        /* \"#utility.yul\":45390:45393   */\n      dup3\n        /* \"#utility.yul\":45386:45397   */\n      add\n        /* \"#utility.yul\":45380:45398   */\n      mload\n        /* \"#utility.yul\":45376:45377   */\n      dup2\n        /* \"#utility.yul\":45371:45374   */\n      dup5\n        /* \"#utility.yul\":45367:45378   */\n      add\n        /* \"#utility.yul\":45360:45399   */\n      mstore\n        /* \"#utility.yul\":45332:45334   */\n      0x20\n        /* \"#utility.yul\":45329:45330   */\n      dup2\n        /* \"#utility.yul\":45325:45335   */\n      add\n        /* \"#utility.yul\":45320:45335   */\n      swap1\n      pop\n        /* \"#utility.yul\":45296:45409   */\n      jump(tag_849)\n    tag_851:\n        /* \"#utility.yul\":45427:45433   */\n      dup4\n        /* \"#utility.yul\":45424:45425   */\n      dup2\n        /* \"#utility.yul\":45421:45434   */\n      gt\n        /* \"#utility.yul\":45418:45519   */\n      iszero\n      tag_852\n      jumpi\n        /* \"#utility.yul\":45507:45508   */\n      0x00\n        /* \"#utility.yul\":45498:45504   */\n      dup5\n        /* \"#utility.yul\":45493:45496   */\n      dup5\n        /* \"#utility.yul\":45489:45505   */\n      add\n        /* \"#utility.yul\":45482:45509   */\n      mstore\n        /* \"#utility.yul\":45418:45519   */\n    tag_852:\n        /* \"#utility.yul\":45267:45525   */\n      pop\n        /* \"#utility.yul\":45218:45525   */\n      pop\n      pop\n      pop\n      jump\t// out\n        /* \"#utility.yul\":45531:45851   */\n    tag_73:\n        /* \"#utility.yul\":45575:45581   */\n      0x00\n        /* \"#utility.yul\":45612:45613   */\n      0x02\n        /* \"#utility.yul\":45606:45610   */\n      dup3\n        /* \"#utility.yul\":45602:45614   */\n      div\n        /* \"#utility.yul\":45592:45614   */\n      swap1\n      pop\n        /* \"#utility.yul\":45659:45660   */\n      0x01\n        /* \"#utility.yul\":45653:45657   */\n      dup3\n        /* \"#utility.yul\":45649:45661   */\n      and\n        /* \"#utility.yul\":45680:45698   */\n      dup1\n        /* \"#utility.yul\":45670:45751   */\n      tag_854\n      jumpi\n        /* \"#utility.yul\":45736:45740   */\n      0x7f\n        /* \"#utility.yul\":45728:45734   */\n      dup3\n        /* \"#utility.yul\":45724:45741   */\n      and\n        /* \"#utility.yul\":45714:45741   */\n      swap2\n      pop\n        /* \"#utility.yul\":45670:45751   */\n    tag_854:\n        /* \"#utility.yul\":45798:45800   */\n      0x20\n        /* \"#utility.yul\":45790:45796   */\n      dup3\n        /* \"#utility.yul\":45787:45801   */\n      lt\n        /* \"#utility.yul\":45767:45785   */\n      dup2\n        /* \"#utility.yul\":45764:45802   */\n      eq\n        /* \"#utility.yul\":45761:45845   */\n      iszero\n      tag_855\n      jumpi\n        /* \"#utility.yul\":45817:45835   */\n      tag_856\n      tag_857\n      jump\t// in\n    tag_856:\n        /* \"#utility.yul\":45761:45845   */\n    tag_855:\n        /* \"#utility.yul\":45582:45851   */\n      pop\n        /* \"#utility.yul\":45531:45851   */\n      swap2\n      swap1\n      pop\n      jump\t// out\n        /* \"#utility.yul\":45857:46138   */\n    tag_779:\n        /* \"#utility.yul\":45940:45967   */\n      tag_859\n        /* \"#utility.yul\":45962:45966   */\n      dup3\n        /* \"#utility.yul\":45940:45967   */\n      tag_525\n      jump\t// in\n    tag_859:\n        /* \"#utility.yul\":45932:45938   */\n      dup2\n        /* \"#utility.yul\":45928:45968   */\n      add\n        /* \"#utility.yul\":46070:46076   */\n      dup2\n        /* \"#utility.yul\":46058:46068   */\n      dup2\n        /* \"#utility.yul\":46055:46077   */\n      lt\n        /* \"#utility.yul\":46034:46052   */\n      0xffffffffffffffff\n        /* \"#utility.yul\":46022:46032   */\n      dup3\n        /* \"#utility.yul\":46019:46053   */\n      gt\n        /* \"#utility.yul\":46016:46078   */\n      or\n        /* \"#utility.yul\":46013:46101   */\n      iszero\n      tag_860\n      jumpi\n        /* \"#utility.yul\":46081:46099   */\n      tag_861\n      tag_784\n      jump\t// in\n    tag_861:\n        /* \"#utility.yul\":46013:46101   */\n    tag_860:\n        /* \"#utility.yul\":46121:46131   */\n      dup1\n        /* \"#utility.yul\":46117:46119   */\n      0x40\n        /* \"#utility.yul\":46110:46132   */\n      mstore\n        /* \"#utility.yul\":45900:46138   */\n      pop\n        /* \"#utility.yul\":45857:46138   */\n      pop\n      pop\n      jump\t// out\n        /* \"#utility.yul\":46144:46345   */\n    tag_221:\n        /* \"#utility.yul\":46183:46186   */\n      0x00\n        /* \"#utility.yul\":46206:46230   */\n      tag_863\n        /* \"#utility.yul\":46224:46229   */\n      dup3\n        /* \"#utility.yul\":46206:46230   */\n      tag_665\n      jump\t// in\n    tag_863:\n        /* \"#utility.yul\":46197:46230   */\n      swap2\n      pop\n        /* \"#utility.yul\":46252:46286   */\n      0xffffffffffffffffffffffffffffffff\n        /* \"#utility.yul\":46245:46250   */\n      dup3\n        /* \"#utility.yul\":46242:46287   */\n      eq\n        /* \"#utility.yul\":46239:46310   */\n      iszero\n      tag_864\n      jumpi\n        /* \"#utility.yul\":46290:46308   */\n      tag_865\n      tag_822\n      jump\t// in\n    tag_865:\n        /* \"#utility.yul\":46239:46310   */\n    tag_864:\n        /* \"#utility.yul\":46337:46338   */\n      0x01\n        /* \"#utility.yul\":46330:46335   */\n      dup3\n        /* \"#utility.yul\":46326:46339   */\n      add\n        /* \"#utility.yul\":46319:46339   */\n      swap1\n      pop\n        /* \"#utility.yul\":46144:46345   */\n      swap2\n      swap1\n      pop\n      jump\t// out\n        /* \"#utility.yul\":46351:46522   */\n    tag_249:\n        /* \"#utility.yul\":46389:46392   */\n      0x00\n        /* \"#utility.yul\":46412:46435   */\n      tag_867\n        /* \"#utility.yul\":46429:46434   */\n      dup3\n        /* \"#utility.yul\":46412:46435   */\n      tag_669\n      jump\t// in\n    tag_867:\n        /* \"#utility.yul\":46403:46435   */\n      swap2\n      pop\n        /* \"#utility.yul\":46457:46463   */\n      0xffff\n        /* \"#utility.yul\":46450:46455   */\n      dup3\n        /* \"#utility.yul\":46447:46464   */\n      eq\n        /* \"#utility.yul\":46444:46487   */\n      iszero\n      tag_868\n      jumpi\n        /* \"#utility.yul\":46467:46485   */\n      tag_869\n      tag_822\n      jump\t// in\n    tag_869:\n        /* \"#utility.yul\":46444:46487   */\n    tag_868:\n        /* \"#utility.yul\":46514:46515   */\n      0x01\n        /* \"#utility.yul\":46507:46512   */\n      dup3\n        /* \"#utility.yul\":46503:46516   */\n      add\n        /* \"#utility.yul\":46496:46516   */\n      swap1\n      pop\n        /* \"#utility.yul\":46351:46522   */\n      swap2\n      swap1\n      pop\n      jump\t// out\n        /* \"#utility.yul\":46528:46761   */\n    tag_101:\n        /* \"#utility.yul\":46567:46570   */\n      0x00\n        /* \"#utility.yul\":46590:46614   */\n      tag_871\n        /* \"#utility.yul\":46608:46613   */\n      dup3\n        /* \"#utility.yul\":46590:46614   */\n      tag_673\n      jump\t// in\n    tag_871:\n        /* \"#utility.yul\":46581:46614   */\n      swap2\n      pop\n        /* \"#utility.yul\":46636:46702   */\n      0xffffffffffffffffffffffffffffffffffffffffffffffffffffffffffffffff\n        /* \"#utility.yul\":46629:46634   */\n      dup3\n        /* \"#utility.yul\":46626:46703   */\n      eq\n        /* \"#utility.yul\":46623:46726   */\n      iszero\n      tag_872\n      jumpi\n        /* \"#utility.yul\":46706:46724   */\n      tag_873\n      tag_822\n      jump\t// in\n    tag_873:\n        /* \"#utility.yul\":46623:46726   */\n    tag_872:\n        /* \"#utility.yul\":46753:46754   */\n      0x01\n        /* \"#utility.yul\":46746:46751   */\n      dup3\n        /* \"#utility.yul\":46742:46755   */\n      add\n        /* \"#utility.yul\":46735:46755   */\n      swap1\n      pop\n        /* \"#utility.yul\":46528:46761   */\n      swap2\n      swap1\n      pop\n      jump\t// out\n        /* \"#utility.yul\":46767:46947   */\n    tag_822:\n        /* \"#utility.yul\":46815:46892   */\n      0x4e487b7100000000000000000000000000000000000000000000000000000000\n        /* \"#utility.yul\":46812:46813   */\n      0x00\n        /* \"#utility.yul\":46805:46893   */\n      mstore\n        /* \"#utility.yul\":46912:46916   */\n      0x11\n        /* \"#utility.yul\":46909:46910   */\n      0x04\n        /* \"#utility.yul\":46902:46917   */\n      mstore\n        /* \"#utility.yul\":46936:46940   */\n      0x24\n        /* \"#utility.yul\":46933:46934   */\n      0x00\n        /* \"#utility.yul\":46926:46941   */\n      revert\n        /* \"#utility.yul\":46953:47133   */\n    tag_857:\n        /* \"#utility.yul\":47001:47078   */\n      0x4e487b7100000000000000000000000000000000000000000000000000000000\n        /* \"#utility.yul\":46998:46999   */\n      0x00\n        /* \"#utility.yul\":46991:47079   */\n      mstore\n        /* \"#utility.yul\":47098:47102   */\n      0x22\n        /* \"#utility.yul\":47095:47096   */\n      0x04\n        /* \"#utility.yul\":47088:47103   */\n      mstore\n        /* \"#utility.yul\":47122:47126   */\n      0x24\n        /* \"#utility.yul\":47119:47120   */\n      0x00\n        /* \"#utility.yul\":47112:47127   */\n      revert\n        /* \"#utility.yul\":47139:47319   */\n    tag_112:\n        /* \"#utility.yul\":47187:47264   */\n      0x4e487b7100000000000000000000000000000000000000000000000000000000\n        /* \"#utility.yul\":47184:47185   */\n      0x00\n        /* \"#utility.yul\":47177:47265   */\n      mstore\n        /* \"#utility.yul\":47284:47288   */\n      0x32\n        /* \"#utility.yul\":47281:47282   */\n      0x04\n        /* \"#utility.yul\":47274:47289   */\n      mstore\n        /* \"#utility.yul\":47308:47312   */\n      0x24\n        /* \"#utility.yul\":47305:47306   */\n      0x00\n        /* \"#utility.yul\":47298:47313   */\n      revert\n        /* \"#utility.yul\":47325:47505   */\n    tag_784:\n        /* \"#utility.yul\":47373:47450   */\n      0x4e487b7100000000000000000000000000000000000000000000000000000000\n        /* \"#utility.yul\":47370:47371   */\n      0x00\n        /* \"#utility.yul\":47363:47451   */\n      mstore\n        /* \"#utility.yul\":47470:47474   */\n      0x41\n        /* \"#utility.yul\":47467:47468   */\n      0x04\n        /* \"#utility.yul\":47460:47475   */\n      mstore\n        /* \"#utility.yul\":47494:47498   */\n      0x24\n        /* \"#utility.yul\":47491:47492   */\n      0x00\n        /* \"#utility.yul\":47484:47499   */\n      revert\n        /* \"#utility.yul\":47511:47628   */\n    tag_813:\n        /* \"#utility.yul\":47620:47621   */\n      0x00\n        /* \"#utility.yul\":47617:47618   */\n      dup1\n        /* \"#utility.yul\":47610:47622   */\n      revert\n        /* \"#utility.yul\":47634:47751   */\n    tag_400:\n        /* \"#utility.yul\":47743:47744   */\n      0x00\n        /* \"#utility.yul\":47740:47741   */\n      dup1\n        /* \"#utility.yul\":47733:47745   */\n      revert\n        /* \"#utility.yul\":47757:47874   */\n    tag_361:\n        /* \"#utility.yul\":47866:47867   */\n      0x00\n        /* \"#utility.yul\":47863:47864   */\n      dup1\n        /* \"#utility.yul\":47856:47868   */\n      revert\n        /* \"#utility.yul\":47880:47997   */\n    tag_771:\n        /* \"#utility.yul\":47989:47990   */\n      0x00\n        /* \"#utility.yul\":47986:47987   */\n      dup1\n        /* \"#utility.yul\":47979:47991   */\n      revert\n        /* \"#utility.yul\":48003:48120   */\n    tag_768:\n        /* \"#utility.yul\":48112:48113   */\n      0x00\n        /* \"#utility.yul\":48109:48110   */\n      dup1\n        /* \"#utility.yul\":48102:48114   */\n      revert\n        /* \"#utility.yul\":48126:48243   */\n    tag_816:\n        /* \"#utility.yul\":48235:48236   */\n      0x00\n        /* \"#utility.yul\":48232:48233   */\n      dup1\n        /* \"#utility.yul\":48225:48237   */\n      revert\n        /* \"#utility.yul\":48249:48366   */\n    tag_343:\n        /* \"#utility.yul\":48358:48359   */\n      0x00\n        /* \"#utility.yul\":48355:48356   */\n      dup1\n        /* \"#utility.yul\":48348:48360   */\n      revert\n        /* \"#utility.yul\":48372:48489   */\n    tag_774:\n        /* \"#utility.yul\":48481:48482   */\n      0x00\n        /* \"#utility.yul\":48478:48479   */\n      dup1\n        /* \"#utility.yul\":48471:48483   */\n      revert\n        /* \"#utility.yul\":48495:48612   */\n    tag_383:\n        /* \"#utility.yul\":48604:48605   */\n      0x00\n        /* \"#utility.yul\":48601:48602   */\n      dup1\n        /* \"#utility.yul\":48594:48606   */\n      revert\n        /* \"#utility.yul\":48618:48735   */\n    tag_445:\n        /* \"#utility.yul\":48727:48728   */\n      0x00\n        /* \"#utility.yul\":48724:48725   */\n      dup1\n        /* \"#utility.yul\":48717:48729   */\n      revert\n        /* \"#utility.yul\":48741:48858   */\n    tag_810:\n        /* \"#utility.yul\":48850:48851   */\n      0x00\n        /* \"#utility.yul\":48847:48848   */\n      dup1\n        /* \"#utility.yul\":48840:48852   */\n      revert\n        /* \"#utility.yul\":48864:48981   */\n    tag_427:\n        /* \"#utility.yul\":48973:48974   */\n      0x00\n        /* \"#utility.yul\":48970:48971   */\n      dup1\n        /* \"#utility.yul\":48963:48975   */\n      revert\n        /* \"#utility.yul\":48987:49089   */\n    tag_525:\n        /* \"#utility.yul\":49028:49034   */\n      0x00\n        /* \"#utility.yul\":49079:49081   */\n      0x1f\n        /* \"#utility.yul\":49075:49082   */\n      not\n        /* \"#utility.yul\":49070:49072   */\n      0x1f\n        /* \"#utility.yul\":49063:49068   */\n      dup4\n        /* \"#utility.yul\":49059:49073   */\n      add\n        /* \"#utility.yul\":49055:49083   */\n      and\n        /* \"#utility.yul\":49045:49083   */\n      swap1\n      pop\n        /* \"#utility.yul\":48987:49089   */\n      swap2\n      swap1\n      pop\n      jump\t// out\n        /* \"#utility.yul\":49095:49263   */\n    tag_561:\n        /* \"#utility.yul\":49235:49255   */\n      0x50726f706f73616c3a20696e6163746976650000000000000000000000000000\n        /* \"#utility.yul\":49231:49232   */\n      0x00\n        /* \"#utility.yul\":49223:49229   */\n      dup3\n        /* \"#utility.yul\":49219:49233   */\n      add\n        /* \"#utility.yul\":49212:49256   */\n      mstore\n        /* \"#utility.yul\":49095:49263   */\n      pop\n      jump\t// out\n        /* \"#utility.yul\":49269:49500   */\n    tag_566:\n        /* \"#utility.yul\":49409:49443   */\n      0x456e642074696d652073686f756c642062652067726561746572207468616e20\n        /* \"#utility.yul\":49405:49406   */\n      0x00\n        /* \"#utility.yul\":49397:49403   */\n      dup3\n        /* \"#utility.yul\":49393:49407   */\n      add\n        /* \"#utility.yul\":49386:49444   */\n      mstore\n        /* \"#utility.yul\":49478:49492   */\n      0x63757272656e742074696d650000000000000000000000000000000000000000\n        /* \"#utility.yul\":49473:49475   */\n      0x20\n        /* \"#utility.yul\":49465:49471   */\n      dup3\n        /* \"#utility.yul\":49461:49476   */\n      add\n        /* \"#utility.yul\":49454:49493   */\n      mstore\n        /* \"#utility.yul\":49269:49500   */\n      pop\n      jump\t// out\n        /* \"#utility.yul\":49506:49727   */\n    tag_571:\n        /* \"#utility.yul\":49646:49680   */\n      0x45524332303a206275726e20616d6f756e7420657863656564732062616c616e\n        /* \"#utility.yul\":49642:49643   */\n      0x00\n        /* \"#utility.yul\":49634:49640   */\n      dup3\n        /* \"#utility.yul\":49630:49644   */\n      add\n        /* \"#utility.yul\":49623:49681   */\n      mstore\n        /* \"#utility.yul\":49715:49719   */\n      0x6365000000000000000000000000000000000000000000000000000000000000\n        /* \"#utility.yul\":49710:49712   */\n      0x20\n        /* \"#utility.yul\":49702:49708   */\n      dup3\n        /* \"#utility.yul\":49698:49713   */\n      add\n        /* \"#utility.yul\":49691:49720   */\n      mstore\n        /* \"#utility.yul\":49506:49727   */\n      pop\n      jump\t// out\n        /* \"#utility.yul\":49733:49912   */\n    tag_576:\n        /* \"#utility.yul\":49873:49904   */\n      0x70726f706f73616c206973206e6f7420636f6d706c6574656420796574000000\n        /* \"#utility.yul\":49869:49870   */\n      0x00\n        /* \"#utility.yul\":49861:49867   */\n      dup3\n        /* \"#utility.yul\":49857:49871   */\n      add\n        /* \"#utility.yul\":49850:49905   */\n      mstore\n        /* \"#utility.yul\":49733:49912   */\n      pop\n      jump\t// out\n        /* \"#utility.yul\":49918:50081   */\n    tag_581:\n        /* \"#utility.yul\":50058:50073   */\n      0x616c726561647920766f74656400000000000000000000000000000000000000\n        /* \"#utility.yul\":50054:50055   */\n      0x00\n        /* \"#utility.yul\":50046:50052   */\n      dup3\n        /* \"#utility.yul\":50042:50056   */\n      add\n        /* \"#utility.yul\":50035:50074   */\n      mstore\n        /* \"#utility.yul\":49918:50081   */\n      pop\n      jump\t// out\n        /* \"#utility.yul\":50087:50264   */\n    tag_586:\n        /* \"#utility.yul\":50227:50256   */\n      0x50726f706f73616c3a20696e76616c69642063616e6469646174650000000000\n        /* \"#utility.yul\":50223:50224   */\n      0x00\n        /* \"#utility.yul\":50215:50221   */\n      dup3\n        /* \"#utility.yul\":50211:50225   */\n      add\n        /* \"#utility.yul\":50204:50257   */\n      mstore\n        /* \"#utility.yul\":50087:50264   */\n      pop\n      jump\t// out\n        /* \"#utility.yul\":50270:50440   */\n    tag_591:\n        /* \"#utility.yul\":50410:50432   */\n      0x6e6f7420612076616c69642070726f706f73616c000000000000000000000000\n        /* \"#utility.yul\":50406:50407   */\n      0x00\n        /* \"#utility.yul\":50398:50404   */\n      dup3\n        /* \"#utility.yul\":50394:50408   */\n      add\n        /* \"#utility.yul\":50387:50433   */\n      mstore\n        /* \"#utility.yul\":50270:50440   */\n      pop\n      jump\t// out\n        /* \"#utility.yul\":50446:50668   */\n    tag_596:\n        /* \"#utility.yul\":50586:50620   */\n      0x6e6f7420612076616c696420766f74657220666f7220746869732070726f706f\n        /* \"#utility.yul\":50582:50583   */\n      0x00\n        /* \"#utility.yul\":50574:50580   */\n      dup3\n        /* \"#utility.yul\":50570:50584   */\n      add\n        /* \"#utility.yul\":50563:50621   */\n      mstore\n        /* \"#utility.yul\":50655:50660   */\n      0x73616c0000000000000000000000000000000000000000000000000000000000\n        /* \"#utility.yul\":50650:50652   */\n      0x20\n        /* \"#utility.yul\":50642:50648   */\n      dup3\n        /* \"#utility.yul\":50638:50653   */\n      add\n        /* \"#utility.yul\":50631:50661   */\n      mstore\n        /* \"#utility.yul\":50446:50668   */\n      pop\n      jump\t// out\n        /* \"#utility.yul\":50674:50848   */\n    tag_601:\n        /* \"#utility.yul\":50814:50840   */\n      0x70726f706f73616c206e6f742073746172746564207965740000000000000000\n        /* \"#utility.yul\":50810:50811   */\n      0x00\n        /* \"#utility.yul\":50802:50808   */\n      dup3\n        /* \"#utility.yul\":50798:50812   */\n      add\n        /* \"#utility.yul\":50791:50841   */\n      mstore\n        /* \"#utility.yul\":50674:50848   */\n      pop\n      jump\t// out\n        /* \"#utility.yul\":50854:51024   */\n    tag_606:\n        /* \"#utility.yul\":50994:51016   */\n      0x70726f706f73616c206e6f742073746172746564000000000000000000000000\n        /* \"#utility.yul\":50990:50991   */\n      0x00\n        /* \"#utility.yul\":50982:50988   */\n      dup3\n        /* \"#utility.yul\":50978:50992   */\n      add\n        /* \"#utility.yul\":50971:51017   */\n      mstore\n        /* \"#utility.yul\":50854:51024   */\n      pop\n      jump\t// out\n        /* \"#utility.yul\":51030:51252   */\n    tag_611:\n        /* \"#utility.yul\":51170:51204   */\n      0x4e6f7420612076616c696420766f74657220666f7220746869732070726f706f\n        /* \"#utility.yul\":51166:51167   */\n      0x00\n        /* \"#utility.yul\":51158:51164   */\n      dup3\n        /* \"#utility.yul\":51154:51168   */\n      add\n        /* \"#utility.yul\":51147:51205   */\n      mstore\n        /* \"#utility.yul\":51239:51244   */\n      0x73616c0000000000000000000000000000000000000000000000000000000000\n        /* \"#utility.yul\":51234:51236   */\n      0x20\n        /* \"#utility.yul\":51226:51232   */\n      dup3\n        /* \"#utility.yul\":51222:51237   */\n      add\n        /* \"#utility.yul\":51215:51245   */\n      mstore\n        /* \"#utility.yul\":51030:51252   */\n      pop\n      jump\t// out\n        /* \"#utility.yul\":51258:51426   */\n    tag_616:\n        /* \"#utility.yul\":51398:51418   */\n      0x696e76616c69642070726f706f73616c49640000000000000000000000000000\n        /* \"#utility.yul\":51394:51395   */\n      0x00\n        /* \"#utility.yul\":51386:51392   */\n      dup3\n        /* \"#utility.yul\":51382:51396   */\n      add\n        /* \"#utility.yul\":51375:51419   */\n      mstore\n        /* \"#utility.yul\":51258:51426   */\n      pop\n      jump\t// out\n        /* \"#utility.yul\":51432:51654   */\n    tag_621:\n        /* \"#utility.yul\":51572:51606   */\n      0x6e6f742073756666696369656e742062616c616e636520746f20636173742076\n        /* \"#utility.yul\":51568:51569   */\n      0x00\n        /* \"#utility.yul\":51560:51566   */\n      dup3\n        /* \"#utility.yul\":51556:51570   */\n      add\n        /* \"#utility.yul\":51549:51607   */\n      mstore\n        /* \"#utility.yul\":51641:51646   */\n      0x6f74650000000000000000000000000000000000000000000000000000000000\n        /* \"#utility.yul\":51636:51638   */\n      0x20\n        /* \"#utility.yul\":51628:51634   */\n      dup3\n        /* \"#utility.yul\":51624:51639   */\n      add\n        /* \"#utility.yul\":51617:51647   */\n      mstore\n        /* \"#utility.yul\":51432:51654   */\n      pop\n      jump\t// out\n        /* \"#utility.yul\":51660:51889   */\n    tag_626:\n        /* \"#utility.yul\":51800:51834   */\n      0x456e642074696d652073686f756c642062652067726561746572207468616e20\n        /* \"#utility.yul\":51796:51797   */\n      0x00\n        /* \"#utility.yul\":51788:51794   */\n      dup3\n        /* \"#utility.yul\":51784:51798   */\n      add\n        /* \"#utility.yul\":51777:51835   */\n      mstore\n        /* \"#utility.yul\":51869:51881   */\n      0x73746172742074696d6500000000000000000000000000000000000000000000\n        /* \"#utility.yul\":51864:51866   */\n      0x20\n        /* \"#utility.yul\":51856:51862   */\n      dup3\n        /* \"#utility.yul\":51852:51867   */\n      add\n        /* \"#utility.yul\":51845:51882   */\n      mstore\n        /* \"#utility.yul\":51660:51889   */\n      pop\n      jump\t// out\n        /* \"#utility.yul\":51895:52115   */\n    tag_631:\n        /* \"#utility.yul\":52035:52069   */\n      0x45524332303a206275726e2066726f6d20746865207a65726f20616464726573\n        /* \"#utility.yul\":52031:52032   */\n      0x00\n        /* \"#utility.yul\":52023:52029   */\n      dup3\n        /* \"#utility.yul\":52019:52033   */\n      add\n        /* \"#utility.yul\":52012:52070   */\n      mstore\n        /* \"#utility.yul\":52104:52107   */\n      0x7300000000000000000000000000000000000000000000000000000000000000\n        /* \"#utility.yul\":52099:52101   */\n      0x20\n        /* \"#utility.yul\":52091:52097   */\n      dup3\n        /* \"#utility.yul\":52087:52102   */\n      add\n        /* \"#utility.yul\":52080:52108   */\n      mstore\n        /* \"#utility.yul\":51895:52115   */\n      pop\n      jump\t// out\n        /* \"#utility.yul\":52121:52344   */\n    tag_636:\n        /* \"#utility.yul\":52261:52295   */\n      0x6e6f7420612076616c6964206c656e677468206f66206861736820726573706f\n        /* \"#utility.yul\":52257:52258   */\n      0x00\n        /* \"#utility.yul\":52249:52255   */\n      dup3\n        /* \"#utility.yul\":52245:52259   */\n      add\n        /* \"#utility.yul\":52238:52296   */\n      mstore\n        /* \"#utility.yul\":52330:52336   */\n      0x6e73652100000000000000000000000000000000000000000000000000000000\n        /* \"#utility.yul\":52325:52327   */\n      0x20\n        /* \"#utility.yul\":52317:52323   */\n      dup3\n        /* \"#utility.yul\":52313:52328   */\n      add\n        /* \"#utility.yul\":52306:52337   */\n      mstore\n        /* \"#utility.yul\":52121:52344   */\n      pop\n      jump\t// out\n        /* \"#utility.yul\":52350:52504   */\n    tag_641:\n        /* \"#utility.yul\":52490:52496   */\n      0x6d696e7400000000000000000000000000000000000000000000000000000000\n        /* \"#utility.yul\":52486:52487   */\n      0x00\n        /* \"#utility.yul\":52478:52484   */\n      dup3\n        /* \"#utility.yul\":52474:52488   */\n      add\n        /* \"#utility.yul\":52467:52497   */\n      mstore\n        /* \"#utility.yul\":52350:52504   */\n      pop\n      jump\t// out\n        /* \"#utility.yul\":52510:52689   */\n    tag_646:\n        /* \"#utility.yul\":52650:52681   */\n      0x496e76616c696420766f74657220666f722070726f706f73616c496421000000\n        /* \"#utility.yul\":52646:52647   */\n      0x00\n        /* \"#utility.yul\":52638:52644   */\n      dup3\n        /* \"#utility.yul\":52634:52648   */\n      add\n        /* \"#utility.yul\":52627:52682   */\n      mstore\n        /* \"#utility.yul\":52510:52689   */\n      pop\n      jump\t// out\n        /* \"#utility.yul\":52695:52849   */\n    tag_651:\n        /* \"#utility.yul\":52835:52841   */\n      0x6275726e00000000000000000000000000000000000000000000000000000000\n        /* \"#utility.yul\":52831:52832   */\n      0x00\n        /* \"#utility.yul\":52823:52829   */\n      dup3\n        /* \"#utility.yul\":52819:52833   */\n      add\n        /* \"#utility.yul\":52812:52842   */\n      mstore\n        /* \"#utility.yul\":52695:52849   */\n      pop\n      jump\t// out\n        /* \"#utility.yul\":52855:53014   */\n    tag_656:\n        /* \"#utility.yul\":52995:53006   */\n      0x6e6f7420766f7465640000000000000000000000000000000000000000000000\n        /* \"#utility.yul\":52991:52992   */\n      0x00\n        /* \"#utility.yul\":52983:52989   */\n      dup3\n        /* \"#utility.yul\":52979:52993   */\n      add\n        /* \"#utility.yul\":52972:53007   */\n      mstore\n        /* \"#utility.yul\":52855:53014   */\n      pop\n      jump\t// out\n        /* \"#utility.yul\":53020:53201   */\n    tag_661:\n        /* \"#utility.yul\":53160:53193   */\n      0x45524332303a206d696e7420746f20746865207a65726f206164647265737300\n        /* \"#utility.yul\":53156:53157   */\n      0x00\n        /* \"#utility.yul\":53148:53154   */\n      dup3\n        /* \"#utility.yul\":53144:53158   */\n      add\n        /* \"#utility.yul\":53137:53194   */\n      mstore\n        /* \"#utility.yul\":53020:53201   */\n      pop\n      jump\t// out\n        /* \"#utility.yul\":53207:53329   */\n    tag_388:\n        /* \"#utility.yul\":53280:53304   */\n      tag_913\n        /* \"#utility.yul\":53298:53303   */\n      dup2\n        /* \"#utility.yul\":53280:53304   */\n      tag_484\n      jump\t// in\n    tag_913:\n        /* \"#utility.yul\":53273:53278   */\n      dup2\n        /* \"#utility.yul\":53270:53305   */\n      eq\n        /* \"#utility.yul\":53260:53323   */\n      tag_914\n      jumpi\n        /* \"#utility.yul\":53319:53320   */\n      0x00\n        /* \"#utility.yul\":53316:53317   */\n      dup1\n        /* \"#utility.yul\":53309:53321   */\n      revert\n        /* \"#utility.yul\":53260:53323   */\n    tag_914:\n        /* \"#utility.yul\":53207:53329   */\n      pop\n      jump\t// out\n        /* \"#utility.yul\":53335:53457   */\n    tag_419:\n        /* \"#utility.yul\":53408:53432   */\n      tag_916\n        /* \"#utility.yul\":53426:53431   */\n      dup2\n        /* \"#utility.yul\":53408:53432   */\n      tag_673\n      jump\t// in\n    tag_916:\n        /* \"#utility.yul\":53401:53406   */\n      dup2\n        /* \"#utility.yul\":53398:53433   */\n      eq\n        /* \"#utility.yul\":53388:53451   */\n      tag_917\n      jumpi\n        /* \"#utility.yul\":53447:53448   */\n      0x00\n        /* \"#utility.yul\":53444:53445   */\n      dup1\n        /* \"#utility.yul\":53437:53449   */\n      revert\n        /* \"#utility.yul\":53388:53451   */\n    tag_917:\n        /* \"#utility.yul\":53335:53457   */\n      pop\n      jump\t// out\n        /* \"#utility.yul\":53463:53581   */\n    tag_423:\n        /* \"#utility.yul\":53534:53556   */\n      tag_919\n        /* \"#utility.yul\":53550:53555   */\n      dup2\n        /* \"#utility.yul\":53534:53556   */\n      tag_677\n      jump\t// in\n    tag_919:\n        /* \"#utility.yul\":53527:53532   */\n      dup2\n        /* \"#utility.yul\":53524:53557   */\n      eq\n        /* \"#utility.yul\":53514:53575   */\n      tag_920\n      jumpi\n        /* \"#utility.yul\":53571:53572   */\n      0x00\n        /* \"#utility.yul\":53568:53569   */\n      dup1\n        /* \"#utility.yul\":53561:53573   */\n      revert\n        /* \"#utility.yul\":53514:53575   */\n    tag_920:\n        /* \"#utility.yul\":53463:53581   */\n      pop\n      jump\t// out\n\n    auxdata: 0xa2646970667358221220226d3a39912eedaf2895b819f6008afaf5ce39bc59193ea48ac71f60ef2e4d4964736f6c63430008070033\n}\n",
				"bytecode": {
					"linkReferences": {},
					"object": "60806040523480156200001157600080fd5b506040518060400160405280600c81526020017f51566f74696e67546f6b656e00000000000000000000000000000000000000008152506040518060400160405280600281526020017f5176000000000000000000000000000000000000000000000000000000000000815250816002908051906020019062000096929190620000f9565b508060039080519060200190620000af929190620000f9565b50505033600460006101000a81548173ffffffffffffffffffffffffffffffffffffffff021916908373ffffffffffffffffffffffffffffffffffffffff1602179055506200020e565b8280546200010790620001a9565b90600052602060002090601f0160209004810192826200012b576000855562000177565b82601f106200014657805160ff191683800117855562000177565b8280016001018555821562000177579182015b828111156200017657825182559160200191906001019062000159565b5b5090506200018691906200018a565b5090565b5b80821115620001a55760008160009055506001016200018b565b5090565b60006002820490506001821680620001c257607f821691505b60208210811415620001d957620001d8620001df565b5b50919050565b7f4e487b7100000000000000000000000000000000000000000000000000000000600052602260045260246000fd5b613b0a806200021e6000396000f3fe608060405234801561001057600080fd5b50600436106100b45760003560e01c80635c230eee116100715780635c230eee1461019557806370a08231146101b157806395d89b41146101e15780639d671564146101ff578063ab9c70d414610230578063e745d68e14610263576100b4565b8063013cf08b146100b957806303af665c146100ef57806306fdde031461011f57806318160ddd1461013d578063313ce5671461015b5780634de77e4814610179575b600080fd5b6100d360048036038101906100ce91906122d7565b610294565b6040516100e69796959493929190612ad9565b60405180910390f35b610109600480360381019061010491906123a3565b610399565b6040516101169190612b4f565b60405180910390f35b6101276103f9565b6040516101349190612b6a565b60405180910390f35b61014561048b565b6040516101529190612e8d565b60405180910390f35b610163610495565b6040516101709190612fa3565b60405180910390f35b610193600480360381019061018e91906123ff565b61049e565b005b6101af60048036038101906101aa9190612304565b6107c8565b005b6101cb60048036038101906101c6919061226a565b610c91565b6040516101d89190612e8d565b60405180910390f35b6101e9610cd9565b6040516101f69190612b6a565b60405180910390f35b610219600480360381019061021491906122d7565b610d6b565b604051610227929190612f73565b60405180910390f35b61024a60048036038101906102459190612297565b610ee6565b60405161025a9493929190612ea8565b60405180910390f35b61027d6004803603810190610278919061226a565b610f50565b60405161028b929190612e64565b60405180910390f35b60076020528060005260406000206000915090508060000160009054906101000a900473ffffffffffffffffffffffffffffffffffffffff16908060000160149054906101000a900460ff16908060010180546102f0906133e9565b80601f016020809104026020016040519081016040528092919081815260200182805461031c906133e9565b80156103695780601f1061033e57610100808354040283529160200191610369565b820191906000526020600020905b81548152906001019060200180831161034c57829003601f168201915b5050505050908060020154908060030154908060040160009054906101000a900461ffff16908060050154905087565b6000600760008481526020019081526020016000206003015442116103f3576040517f08c379a00000000000000000000000000000000000000000000000000000000081526004016103ea90612bec565b60405180910390fd5b92915050565b606060028054610408906133e9565b80601f0160208091040260200160405190810160405280929190818152602001828054610434906133e9565b80156104815780601f1061045657610100808354040283529160200191610481565b820191906000526020600020905b81548152906001019060200180831161046457829003601f168201915b5050505050905090565b6000600154905090565b60006012905090565b8542106104e0576040517f08c379a00000000000000000000000000000000000000000000000000000000081526004016104d790612cac565b60405180910390fd5b844210610522576040517f08c379a000000000000000000000000000000000000000000000000000000000815260040161051990612bac565b60405180910390fd5b848610610564576040517f08c379a000000000000000000000000000000000000000000000000000000000815260040161055b90612d2c565b60405180910390fd5b60056000815480929190610577906134b0565b91905055506105b3898989898989878a8a600760006005548152602001908152602001600020610fac909998979695949392919063ffffffff16565b507f239a8a71a7d1cb0d134f6cc072ad6390e36a88c8e78dff69013ee79528441e80600554898989898989896040516105f3989796959493929190612eed565b60405180910390a1600160096000600554815260200190815260200160002060006101000a81548160ff02191690831515021790555060005b88518110156107615761065989828151811061064b5761064a613557565b5b6020026020010151836111de565b6106fa6005548a838151811061067257610671613557565b5b6020026020010151600085600860008f888151811061069457610693613557565b5b602002602001015173ffffffffffffffffffffffffffffffffffffffff1673ffffffffffffffffffffffffffffffffffffffff1681526020019081526020016000206000600554815260200190815260200160002061124f90949392919063ffffffff16565b507fabf5327be9f5825c40d58bda541dd07f09b62df3376bbd5ecdbaa8bd82a9d49289828151811061072f5761072e613557565b5b602002602001015183604051610746929190612d8c565b60405180910390a18080610759906134b0565b91505061062c565b506107bc600554600660006107746112cf565b73ffffffffffffffffffffffffffffffffffffffff1673ffffffffffffffffffffffffffffffffffffffff1681526020019081526020016000206112d790919063ffffffff16565b50505050505050505050565b6009600085815260200190815260200160002060009054906101000a900460ff16610828576040517f08c379a000000000000000000000000000000000000000000000000000000000815260040161081f90612cec565b60405180910390fd5b83600860008573ffffffffffffffffffffffffffffffffffffffff1673ffffffffffffffffffffffffffffffffffffffff168152602001908152602001600020600086815260200190815260200160002060000154146108bd576040517f08c379a00000000000000000000000000000000000000000000000000000000081526004016108b490612c6c565b60405180910390fd5b600860008473ffffffffffffffffffffffffffffffffffffffff1673ffffffffffffffffffffffffffffffffffffffff168152602001908152602001600020600085815260200190815260200160002060010160149054906101000a900460ff161561095e576040517f08c379a000000000000000000000000000000000000000000000000000000000815260040161095590612c0c565b60405180910390fd5b81516007600086815260200190815260200160002060040160009054906101000a900461ffff1661ffff16146109c9576040517f08c379a00000000000000000000000000000000000000000000000000000000081526004016109c090612d6c565b60405180910390fd5b6000805b8251811015610a36578281815181106109e9576109e8613557565b5b6020026020010151838281518110610a0457610a03613557565b5b6020026020010151610a16919061329a565b82610a219190613244565b91508080610a2e906134b0565b9150506109cd565b5080600860008673ffffffffffffffffffffffffffffffffffffffff1673ffffffffffffffffffffffffffffffffffffffff1681526020019081526020016000206000878152602001908152602001600020600201541015610acd576040517f08c379a0000000000000000000000000000000000000000000000000000000008152600401610ac490612d0c565b60405180910390fd5b610af6848484600760008a81526020019081526020016000206113a8909392919063ffffffff16565b50610b51858460066000610b086112cf565b73ffffffffffffffffffffffffffffffffffffffff1673ffffffffffffffffffffffffffffffffffffffff16815260200190815260200160002061185e9092919063ffffffff16565b50610baa600860008673ffffffffffffffffffffffffffffffffffffffff1673ffffffffffffffffffffffffffffffffffffffff16815260200190815260200160002060008781526020019081526020016000206119eb565b506001600860008673ffffffffffffffffffffffffffffffffffffffff1673ffffffffffffffffffffffffffffffffffffffff168152602001908152602001600020600087815260200190815260200160002060010160146101000a81548160ff021916908315150217905550610c398460076000600554815260200190815260200160002060050154611a99565b7fabf5327be9f5825c40d58bda541dd07f09b62df3376bbd5ecdbaa8bd82a9d4928460076000600554815260200190815260200160002060050154604051610c82929190612de8565b60405180910390a15050505050565b60008060008373ffffffffffffffffffffffffffffffffffffffff1673ffffffffffffffffffffffffffffffffffffffff168152602001908152602001600020549050919050565b606060038054610ce8906133e9565b80601f0160208091040260200160405190810160405280929190818152602001828054610d14906133e9565b8015610d615780601f10610d3657610100808354040283529160200191610d61565b820191906000526020600020905b815481529060010190602001808311610d4457829003601f168201915b5050505050905090565b600060606009600084815260200190815260200160002060009054906101000a900460ff16610dcf576040517f08c379a0000000000000000000000000000000000000000000000000000000008152600401610dc690612c4c565b60405180910390fd5b60076000848152602001908152602001600020600a0160076000858152602001908152602001600020600901600060018152602001908152602001600020604051610e1a9190612ac2565b90815260200160405180910390205460076000858152602001908152602001600020600901600060018152602001908152602001600020808054610e5d906133e9565b80601f0160208091040260200160405190810160405280929190818152602001828054610e89906133e9565b8015610ed65780601f10610eab57610100808354040283529160200191610ed6565b820191906000526020600020905b815481529060010190602001808311610eb957829003601f168201915b5050505050905091509150915091565b6008602052816000526040600020602052806000526040600020600091509150508060000154908060010160009054906101000a900473ffffffffffffffffffffffffffffffffffffffff16908060010160149054906101000a900460ff16908060020154905084565b60066020528060005260406000206000915090508060000160009054906101000a90046fffffffffffffffffffffffffffffffff16908060000160109054906101000a90046fffffffffffffffffffffffffffffffff16905082565b6000878b60000160006101000a81548173ffffffffffffffffffffffffffffffffffffffff021916908373ffffffffffffffffffffffffffffffffffffffff160217905550898b60000160146101000a81548160ff021916908360ff160217905550848b6001019080519060200190611026929190611db7565b50868b60020181905550858b60030181905550828290508b60040160006101000a81548161ffff021916908361ffff160217905550838b6005018190555060005b838390508110156111375760018c60070185858481811061108b5761108a613557565b5b905060200281019061109d9190612fbe565b6040516110ab929190612a92565b908152602001604051809103902060006101000a81548160ff0219169083151502179055508383828181106110e3576110e2613557565b5b90506020028101906110f59190612fbe565b8d60080160006001856111089190613244565b81526020019081526020016000209190611123929190611e3d565b50808061112f906134b0565b915050611067565b5060005b89518110156111cb5760018c60060160008c848151811061115f5761115e613557565b5b602002602001015173ffffffffffffffffffffffffffffffffffffffff1673ffffffffffffffffffffffffffffffffffffffff16815260200190815260200160002060006101000a81548160ff02191690831515021790555080806111c3906134b0565b91505061113b565b50600190509a9950505050505050505050565b6111e66112cf565b8073ffffffffffffffffffffffffffffffffffffffff16600460009054906101000a900473ffffffffffffffffffffffffffffffffffffffff1673ffffffffffffffffffffffffffffffffffffffff161461124057600080fd5b61124a8383611b0a565b505050565b6000848660000181905550838660010160006101000a81548173ffffffffffffffffffffffffffffffffffffffff021916908373ffffffffffffffffffffffffffffffffffffffff160217905550828660010160146101000a81548160ff0219169083151502179055508186600201819055506001905095945050505050565b600033905090565b600082600001600081819054906101000a90046fffffffffffffffffffffffffffffffff16809291906113099061344c565b91906101000a8154816fffffffffffffffffffffffffffffffff02191690836fffffffffffffffffffffffffffffffff16021790555050818360010160008560000160009054906101000a90046fffffffffffffffffffffffffffffffff166fffffffffffffffffffffffffffffffff166fffffffffffffffffffffffffffffffff168152602001908152602001600020819055506001905092915050565b600060028560000160149054906101000a900460ff1660ff1614611401576040517f08c379a00000000000000000000000000000000000000000000000000000000081526004016113f890612b8c565b60405180910390fd5b8460020154421015611448576040517f08c379a000000000000000000000000000000000000000000000000000000000815260040161143f90612c8c565b60405180910390fd5b846003015442111561169e5760028560000160146101000a81548160ff021916908360ff160217905550600085600a018660080160006001815260200190815260200160002060405161149b9190612ac2565b908152602001604051809103902054905060006001905086600801600060018152602001908152602001600020876009016000600181526020019081526020016000209080546114ea906133e9565b6114f5929190611ec3565b506000600290505b8760040160009054906101000a900461ffff1661ffff168161ffff1611611692578288600a018960080160008461ffff1681526020019081526020016000206040516115499190612ac2565b90815260200160405180910390205411156115e95787600a018860080160008361ffff1681526020019081526020016000206040516115889190612ac2565b9081526020016040518091039020549250600191508760080160008261ffff168152602001908152602001600020886009016000600181526020019081526020016000209080546115d8906133e9565b6115e3929190611ec3565b5061167f565b8288600a018960080160008461ffff1681526020019081526020016000206040516116149190612ac2565b908152602001604051809103902054141561167e578180611634906134b0565b9250508760080160008261ffff168152602001908152602001600020886009016000848152602001908152602001600020908054611671906133e9565b61167c929190611ec3565b505b5b808061168a90613485565b9150506114fd565b50600092505050611856565b8460060160008573ffffffffffffffffffffffffffffffffffffffff1673ffffffffffffffffffffffffffffffffffffffff16815260200190815260200160002060009054906101000a900460ff1661172c576040517f08c379a000000000000000000000000000000000000000000000000000000000815260040161172390612ccc565b60405180910390fd5b60005b8560040160009054906101000a900461ffff1661ffff168161ffff1610156118505785600701848261ffff168151811061176c5761176b613557565b5b60200260200101516040516117819190612aab565b908152602001604051809103902060009054906101000a900460ff166117dc576040517f08c379a00000000000000000000000000000000000000000000000000000000081526004016117d390612c2c565b60405180910390fd5b828161ffff16815181106117f3576117f2613557565b5b602002602001015186600a01858361ffff168151811061181657611815613557565b5b602002602001015160405161182b9190612aab565b908152602001604051809103902081905550808061184890613485565b91505061172f565b50600190505b949350505050565b600083600001601081819054906101000a90046fffffffffffffffffffffffffffffffff16809291906118909061344c565b91906101000a8154816fffffffffffffffffffffffffffffffff02191690836fffffffffffffffffffffffffffffffff16021790555050828460020160008660000160109054906101000a90046fffffffffffffffffffffffffffffffff166fffffffffffffffffffffffffffffffff166fffffffffffffffffffffffffffffffff1681526020019081526020016000208190555060005b82518161ffff1610156119b157828161ffff168151811061194c5761194b613557565b5b60200260200101518560030160008681526020019081526020016000206000600184611978919061320c565b61ffff168152602001908152602001600020908051906020019061199d929190611db7565b5080806119a990613485565b915050611928565b50600184600401600085815260200190815260200160002060006101000a81548160ff021916908315150217905550600190509392505050565b60008082600001541415611a34576040517f08c379a0000000000000000000000000000000000000000000000000000000008152600401611a2b90612dc8565b60405180910390fd5b8160010160149054906101000a900460ff1615611a86576040517f08c379a0000000000000000000000000000000000000000000000000000000008152600401611a7d90612e24565b60405180910390fd5b6000826002018190555060019050919050565b611aa16112cf565b8073ffffffffffffffffffffffffffffffffffffffff16600460009054906101000a900473ffffffffffffffffffffffffffffffffffffffff1673ffffffffffffffffffffffffffffffffffffffff1614611afb57600080fd5b611b058383611c25565b505050565b600073ffffffffffffffffffffffffffffffffffffffff168273ffffffffffffffffffffffffffffffffffffffff161415611b7a576040517f08c379a0000000000000000000000000000000000000000000000000000000008152600401611b7190612e44565b60405180910390fd5b8060016000828254611b8c9190613244565b92505081905550806000808473ffffffffffffffffffffffffffffffffffffffff1673ffffffffffffffffffffffffffffffffffffffff1681526020019081526020016000206000828254611be19190613244565b925050819055507fabf5327be9f5825c40d58bda541dd07f09b62df3376bbd5ecdbaa8bd82a9d4928282604051611c19929190612d8c565b60405180910390a15050565b600073ffffffffffffffffffffffffffffffffffffffff168273ffffffffffffffffffffffffffffffffffffffff161415611c95576040517f08c379a0000000000000000000000000000000000000000000000000000000008152600401611c8c90612d4c565b60405180910390fd5b60008060008473ffffffffffffffffffffffffffffffffffffffff1673ffffffffffffffffffffffffffffffffffffffff16815260200190815260200160002054905081811015611d1b576040517f08c379a0000000000000000000000000000000000000000000000000000000008152600401611d1290612bcc565b60405180910390fd5b8181036000808573ffffffffffffffffffffffffffffffffffffffff1673ffffffffffffffffffffffffffffffffffffffff168152602001908152602001600020819055508160016000828254611d7291906132f4565b925050819055507fabf5327be9f5825c40d58bda541dd07f09b62df3376bbd5ecdbaa8bd82a9d4928383604051611daa929190612de8565b60405180910390a1505050565b828054611dc3906133e9565b90600052602060002090601f016020900481019282611de55760008555611e2c565b82601f10611dfe57805160ff1916838001178555611e2c565b82800160010185558215611e2c579182015b82811115611e2b578251825591602001919060010190611e10565b5b509050611e399190611f50565b5090565b828054611e49906133e9565b90600052602060002090601f016020900481019282611e6b5760008555611eb2565b82601f10611e8457803560ff1916838001178555611eb2565b82800160010185558215611eb2579182015b82811115611eb1578235825591602001919060010190611e96565b5b509050611ebf9190611f50565b5090565b828054611ecf906133e9565b90600052602060002090601f016020900481019282611ef15760008555611f3f565b82601f10611f025780548555611f3f565b82800160010185558215611f3f57600052602060002091601f016020900482015b82811115611f3e578254825591600101919060010190611f23565b5b509050611f4c9190611f50565b5090565b5b80821115611f69576000816000905550600101611f51565b5090565b6000611f80611f7b84613046565b613021565b90508083825260208201905082856020860282011115611fa357611fa26135d3565b5b60005b85811015611fd35781611fb9888261211d565b845260208401935060208301925050600181019050611fa6565b5050509392505050565b6000611ff0611feb84613072565b613021565b90508083825260208201905082856020860282011115612013576120126135d3565b5b60005b8581101561206157813567ffffffffffffffff811115612039576120386135bf565b5b8086016120468982612212565b85526020850194506020840193505050600181019050612016565b5050509392505050565b600061207e6120798461309e565b613021565b905080838252602082019050828560208602820111156120a1576120a06135d3565b5b60005b858110156120d157816120b78882612240565b8452602084019350602083019250506001810190506120a4565b5050509392505050565b60006120ee6120e9846130ca565b613021565b90508281526020810184848401111561210a576121096135dd565b5b6121158482856133a7565b509392505050565b60008135905061212c81613a8f565b92915050565b600082601f830112612147576121466135bf565b5b8135612157848260208601611f6d565b91505092915050565b60008083601f840112612176576121756135bf565b5b8235905067ffffffffffffffff811115612193576121926135ba565b5b6020830191508360208202830111156121af576121ae6135d3565b5b9250929050565b600082601f8301126121cb576121ca6135bf565b5b81356121db848260208601611fdd565b91505092915050565b600082601f8301126121f9576121f86135bf565b5b813561220984826020860161206b565b91505092915050565b600082601f830112612227576122266135bf565b5b81356122378482602086016120db565b91505092915050565b60008135905061224f81613aa6565b92915050565b60008135905061226481613abd565b92915050565b6000602082840312156122805761227f6135ec565b5b600061228e8482850161211d565b91505092915050565b600080604083850312156122ae576122ad6135ec565b5b60006122bc8582860161211d565b92505060206122cd85828601612240565b9150509250929050565b6000602082840312156122ed576122ec6135ec565b5b60006122fb84828501612240565b91505092915050565b6000806000806080858703121561231e5761231d6135ec565b5b600061232c87828801612240565b945050602061233d8782880161211d565b935050604085013567ffffffffffffffff81111561235e5761235d6135e2565b5b61236a878288016121b6565b925050606085013567ffffffffffffffff81111561238b5761238a6135e2565b5b612397878288016121e4565b91505092959194509250565b600080604083850312156123ba576123b96135ec565b5b60006123c885828601612240565b925050602083013567ffffffffffffffff8111156123e9576123e86135e2565b5b6123f585828601612132565b9150509250929050565b60008060008060008060008060006101008a8c031215612422576124216135ec565b5b60006124308c828d01612255565b99505060208a013567ffffffffffffffff811115612451576124506135e2565b5b61245d8c828d01612132565b985050604061246e8c828d0161211d565b975050606061247f8c828d01612240565b96505060806124908c828d01612240565b95505060a08a013567ffffffffffffffff8111156124b1576124b06135e2565b5b6124bd8c828d01612212565b94505060c08a013567ffffffffffffffff8111156124de576124dd6135e2565b5b6124ea8c828d01612160565b935093505060e06124fd8c828d01612240565b9150509295985092959850929598565b6000612519838361253b565b60208301905092915050565b600061253284848461263c565b90509392505050565b61254481613328565b82525050565b61255381613328565b82525050565b60006125648261312a565b61256e818561315a565b9350612579836130fb565b8060005b838110156125aa578151612591888261250d565b975061259c83613140565b92505060018101905061257d565b5085935050505092915050565b60006125c3838561316b565b9350836020840285016125d58461310b565b8060005b8781101561261b5784840389526125f082846131a9565b6125fb868284612525565b95506126068461314d565b935060208b019a5050506001810190506125d9565b50829750879450505050509392505050565b6126368161333a565b82525050565b6000612648838561317c565b93506126558385846133a7565b61265e836135f1565b840190509392505050565b6000612675838561319e565b93506126828385846133a7565b82840190509392505050565b600061269982613135565b6126a3818561318d565b93506126b38185602086016133b6565b6126bc816135f1565b840191505092915050565b60006126d282613135565b6126dc818561319e565b93506126ec8185602086016133b6565b80840191505092915050565b60008154612705816133e9565b61270f818661319e565b9450600182166000811461272a576001811461273b5761276e565b60ff1983168652818601935061276e565b61274485613115565b60005b8381101561276657815481890152600182019150602081019050612747565b838801955050505b50505092915050565b600061278460128361318d565b915061278f82613602565b602082019050919050565b60006127a7602c8361318d565b91506127b28261362b565b604082019050919050565b60006127ca60228361318d565b91506127d58261367a565b604082019050919050565b60006127ed601d8361318d565b91506127f8826136c9565b602082019050919050565b6000612810600d8361318d565b915061281b826136f2565b602082019050919050565b6000612833601b8361318d565b915061283e8261371b565b602082019050919050565b600061285660148361318d565b915061286182613744565b602082019050919050565b600061287960238361318d565b91506128848261376d565b604082019050919050565b600061289c60188361318d565b91506128a7826137bc565b602082019050919050565b60006128bf60148361318d565b91506128ca826137e5565b602082019050919050565b60006128e260238361318d565b91506128ed8261380e565b604082019050919050565b600061290560128361318d565b91506129108261385d565b602082019050919050565b600061292860238361318d565b915061293382613886565b604082019050919050565b600061294b602a8361318d565b9150612956826138d5565b604082019050919050565b600061296e60218361318d565b915061297982613924565b604082019050919050565b600061299160248361318d565b915061299c82613973565b604082019050919050565b60006129b460048361318d565b91506129bf826139c2565b602082019050919050565b60006129d7601d8361318d565b91506129e2826139eb565b602082019050919050565b60006129fa60048361318d565b9150612a0582613a14565b602082019050919050565b6000612a1d60098361318d565b9150612a2882613a3d565b602082019050919050565b6000612a40601f8361318d565b9150612a4b82613a66565b602082019050919050565b612a5f81613346565b82525050565b612a6e81613362565b82525050565b612a7d81613390565b82525050565b612a8c8161339a565b82525050565b6000612a9f828486612669565b91508190509392505050565b6000612ab782846126c7565b915081905092915050565b6000612ace82846126f8565b915081905092915050565b600060e082019050612aee600083018a61254a565b612afb6020830189612a83565b8181036040830152612b0d818861268e565b9050612b1c6060830187612a74565b612b296080830186612a74565b612b3660a0830185612a65565b612b4360c0830184612a74565b98975050505050505050565b6000602082019050612b64600083018461262d565b92915050565b60006020820190508181036000830152612b84818461268e565b905092915050565b60006020820190508181036000830152612ba581612777565b9050919050565b60006020820190508181036000830152612bc58161279a565b9050919050565b60006020820190508181036000830152612be5816127bd565b9050919050565b60006020820190508181036000830152612c05816127e0565b9050919050565b60006020820190508181036000830152612c2581612803565b9050919050565b60006020820190508181036000830152612c4581612826565b9050919050565b60006020820190508181036000830152612c6581612849565b9050919050565b60006020820190508181036000830152612c858161286c565b9050919050565b60006020820190508181036000830152612ca58161288f565b9050919050565b60006020820190508181036000830152612cc5816128b2565b9050919050565b60006020820190508181036000830152612ce5816128d5565b9050919050565b60006020820190508181036000830152612d05816128f8565b9050919050565b60006020820190508181036000830152612d258161291b565b9050919050565b60006020820190508181036000830152612d458161293e565b9050919050565b60006020820190508181036000830152612d6581612961565b9050919050565b60006020820190508181036000830152612d8581612984565b9050919050565b60006060820190508181036000830152612da5816129a7565b9050612db4602083018561254a565b612dc16040830184612a74565b9392505050565b60006020820190508181036000830152612de1816129ca565b9050919050565b60006060820190508181036000830152612e01816129ed565b9050612e10602083018561254a565b612e1d6040830184612a74565b9392505050565b60006020820190508181036000830152612e3d81612a10565b9050919050565b60006020820190508181036000830152612e5d81612a33565b9050919050565b6000604082019050612e796000830185612a56565b612e866020830184612a56565b9392505050565b6000602082019050612ea26000830184612a74565b92915050565b6000608082019050612ebd6000830187612a74565b612eca602083018661254a565b612ed7604083018561262d565b612ee46060830184612a74565b95945050505050565b600060e082019050612f02600083018b612a74565b8181036020830152612f14818a612559565b9050612f23604083018961254a565b612f306060830188612a74565b612f3d6080830187612a74565b81810360a0830152612f4f818661268e565b905081810360c0830152612f648184866125b7565b90509998505050505050505050565b6000604082019050612f886000830185612a74565b8181036020830152612f9a818461268e565b90509392505050565b6000602082019050612fb86000830184612a83565b92915050565b60008083356001602003843603038112612fdb57612fda6135c9565b5b80840192508235915067ffffffffffffffff821115612ffd57612ffc6135c4565b5b602083019250600182023603831315613019576130186135d8565b5b509250929050565b600061302b61303c565b9050613037828261341b565b919050565b6000604051905090565b600067ffffffffffffffff82111561306157613060613586565b5b602082029050602081019050919050565b600067ffffffffffffffff82111561308d5761308c613586565b5b602082029050602081019050919050565b600067ffffffffffffffff8211156130b9576130b8613586565b5b602082029050602081019050919050565b600067ffffffffffffffff8211156130e5576130e4613586565b5b6130ee826135f1565b9050602081019050919050565b6000819050602082019050919050565b6000819050919050565b60008190508160005260206000209050919050565b600081519050919050565b600081519050919050565b6000602082019050919050565b6000602082019050919050565b600082825260208201905092915050565b600082825260208201905092915050565b600082825260208201905092915050565b600082825260208201905092915050565b600081905092915050565b600080833560016020038436030381126131c6576131c56135e7565b5b83810192508235915060208301925067ffffffffffffffff8211156131ee576131ed6135b5565b5b600182023603841315613204576132036135ce565b5b509250929050565b600061321782613362565b915061322283613362565b92508261ffff03821115613239576132386134f9565b5b828201905092915050565b600061324f82613390565b915061325a83613390565b9250827fffffffffffffffffffffffffffffffffffffffffffffffffffffffffffffffff0382111561328f5761328e6134f9565b5b828201905092915050565b60006132a582613390565b91506132b083613390565b9250817fffffffffffffffffffffffffffffffffffffffffffffffffffffffffffffffff04831182151516156132e9576132e86134f9565b5b828202905092915050565b60006132ff82613390565b915061330a83613390565b92508282101561331d5761331c6134f9565b5b828203905092915050565b600061333382613370565b9050919050565b60008115159050919050565b60006fffffffffffffffffffffffffffffffff82169050919050565b600061ffff82169050919050565b600073ffffffffffffffffffffffffffffffffffffffff82169050919050565b6000819050919050565b600060ff82169050919050565b82818337600083830152505050565b60005b838110156133d45780820151818401526020810190506133b9565b838111156133e3576000848401525b50505050565b6000600282049050600182168061340157607f821691505b6020821081141561341557613414613528565b5b50919050565b613424826135f1565b810181811067ffffffffffffffff8211171561344357613442613586565b5b80604052505050565b600061345782613346565b91506fffffffffffffffffffffffffffffffff82141561347a576134796134f9565b5b600182019050919050565b600061349082613362565b915061ffff8214156134a5576134a46134f9565b5b600182019050919050565b60006134bb82613390565b91507fffffffffffffffffffffffffffffffffffffffffffffffffffffffffffffffff8214156134ee576134ed6134f9565b5b600182019050919050565b7f4e487b7100000000000000000000000000000000000000000000000000000000600052601160045260246000fd5b7f4e487b7100000000000000000000000000000000000000000000000000000000600052602260045260246000fd5b7f4e487b7100000000000000000000000000000000000000000000000000000000600052603260045260246000fd5b7f4e487b7100000000000000000000000000000000000000000000000000000000600052604160045260246000fd5b600080fd5b600080fd5b600080fd5b600080fd5b600080fd5b600080fd5b600080fd5b600080fd5b600080fd5b600080fd5b600080fd5b600080fd5b6000601f19601f8301169050919050565b7f50726f706f73616c3a20696e6163746976650000000000000000000000000000600082015250565b7f456e642074696d652073686f756c642062652067726561746572207468616e2060008201527f63757272656e742074696d650000000000000000000000000000000000000000602082015250565b7f45524332303a206275726e20616d6f756e7420657863656564732062616c616e60008201527f6365000000000000000000000000000000000000000000000000000000000000602082015250565b7f70726f706f73616c206973206e6f7420636f6d706c6574656420796574000000600082015250565b7f616c726561647920766f74656400000000000000000000000000000000000000600082015250565b7f50726f706f73616c3a20696e76616c69642063616e6469646174650000000000600082015250565b7f6e6f7420612076616c69642070726f706f73616c000000000000000000000000600082015250565b7f6e6f7420612076616c696420766f74657220666f7220746869732070726f706f60008201527f73616c0000000000000000000000000000000000000000000000000000000000602082015250565b7f70726f706f73616c206e6f742073746172746564207965740000000000000000600082015250565b7f70726f706f73616c206e6f742073746172746564000000000000000000000000600082015250565b7f4e6f7420612076616c696420766f74657220666f7220746869732070726f706f60008201527f73616c0000000000000000000000000000000000000000000000000000000000602082015250565b7f696e76616c69642070726f706f73616c49640000000000000000000000000000600082015250565b7f6e6f742073756666696369656e742062616c616e636520746f2063617374207660008201527f6f74650000000000000000000000000000000000000000000000000000000000602082015250565b7f456e642074696d652073686f756c642062652067726561746572207468616e2060008201527f73746172742074696d6500000000000000000000000000000000000000000000602082015250565b7f45524332303a206275726e2066726f6d20746865207a65726f2061646472657360008201527f7300000000000000000000000000000000000000000000000000000000000000602082015250565b7f6e6f7420612076616c6964206c656e677468206f66206861736820726573706f60008201527f6e73652100000000000000000000000000000000000000000000000000000000602082015250565b7f6d696e7400000000000000000000000000000000000000000000000000000000600082015250565b7f496e76616c696420766f74657220666f722070726f706f73616c496421000000600082015250565b7f6275726e00000000000000000000000000000000000000000000000000000000600082015250565b7f6e6f7420766f7465640000000000000000000000000000000000000000000000600082015250565b7f45524332303a206d696e7420746f20746865207a65726f206164647265737300600082015250565b613a9881613328565b8114613aa357600080fd5b50565b613aaf81613390565b8114613aba57600080fd5b50565b613ac68161339a565b8114613ad157600080fd5b5056fea2646970667358221220226d3a39912eedaf2895b819f6008afaf5ce39bc59193ea48ac71f60ef2e4d4964736f6c63430008070033",
					"opcodes": "PUSH1 0x80 PUSH1 0x40 MSTORE CALLVALUE DUP1 ISZERO PUSH3 0x11 JUMPI PUSH1 0x0 DUP1 REVERT JUMPDEST POP PUSH1 0x40 MLOAD DUP1 PUSH1 0x40 ADD PUSH1 0x40 MSTORE DUP1 PUSH1 0xC DUP2 MSTORE PUSH1 0x20 ADD PUSH32 0x51566F74696E67546F6B656E0000000000000000000000000000000000000000 DUP2 MSTORE POP PUSH1 0x40 MLOAD DUP1 PUSH1 0x40 ADD PUSH1 0x40 MSTORE DUP1 PUSH1 0x2 DUP2 MSTORE PUSH1 0x20 ADD PUSH32 0x5176000000000000000000000000000000000000000000000000000000000000 DUP2 MSTORE POP DUP2 PUSH1 0x2 SWAP1 DUP1 MLOAD SWAP1 PUSH1 0x20 ADD SWAP1 PUSH3 0x96 SWAP3 SWAP2 SWAP1 PUSH3 0xF9 JUMP JUMPDEST POP DUP1 PUSH1 0x3 SWAP1 DUP1 MLOAD SWAP1 PUSH1 0x20 ADD SWAP1 PUSH3 0xAF SWAP3 SWAP2 SWAP1 PUSH3 0xF9 JUMP JUMPDEST POP POP POP CALLER PUSH1 0x4 PUSH1 0x0 PUSH2 0x100 EXP DUP2 SLOAD DUP2 PUSH20 0xFFFFFFFFFFFFFFFFFFFFFFFFFFFFFFFFFFFFFFFF MUL NOT AND SWAP1 DUP4 PUSH20 0xFFFFFFFFFFFFFFFFFFFFFFFFFFFFFFFFFFFFFFFF AND MUL OR SWAP1 SSTORE POP PUSH3 0x20E JUMP JUMPDEST DUP3 DUP1 SLOAD PUSH3 0x107 SWAP1 PUSH3 0x1A9 JUMP JUMPDEST SWAP1 PUSH1 0x0 MSTORE PUSH1 0x20 PUSH1 0x0 KECCAK256 SWAP1 PUSH1 0x1F ADD PUSH1 0x20 SWAP1 DIV DUP2 ADD SWAP3 DUP3 PUSH3 0x12B JUMPI PUSH1 0x0 DUP6 SSTORE PUSH3 0x177 JUMP JUMPDEST DUP3 PUSH1 0x1F LT PUSH3 0x146 JUMPI DUP1 MLOAD PUSH1 0xFF NOT AND DUP4 DUP1 ADD OR DUP6 SSTORE PUSH3 0x177 JUMP JUMPDEST DUP3 DUP1 ADD PUSH1 0x1 ADD DUP6 SSTORE DUP3 ISZERO PUSH3 0x177 JUMPI SWAP2 DUP3 ADD JUMPDEST DUP3 DUP2 GT ISZERO PUSH3 0x176 JUMPI DUP3 MLOAD DUP3 SSTORE SWAP2 PUSH1 0x20 ADD SWAP2 SWAP1 PUSH1 0x1 ADD SWAP1 PUSH3 0x159 JUMP JUMPDEST JUMPDEST POP SWAP1 POP PUSH3 0x186 SWAP2 SWAP1 PUSH3 0x18A JUMP JUMPDEST POP SWAP1 JUMP JUMPDEST JUMPDEST DUP1 DUP3 GT ISZERO PUSH3 0x1A5 JUMPI PUSH1 0x0 DUP2 PUSH1 0x0 SWAP1 SSTORE POP PUSH1 0x1 ADD PUSH3 0x18B JUMP JUMPDEST POP SWAP1 JUMP JUMPDEST PUSH1 0x0 PUSH1 0x2 DUP3 DIV SWAP1 POP PUSH1 0x1 DUP3 AND DUP1 PUSH3 0x1C2 JUMPI PUSH1 0x7F DUP3 AND SWAP2 POP JUMPDEST PUSH1 0x20 DUP3 LT DUP2 EQ ISZERO PUSH3 0x1D9 JUMPI PUSH3 0x1D8 PUSH3 0x1DF JUMP JUMPDEST JUMPDEST POP SWAP2 SWAP1 POP JUMP JUMPDEST PUSH32 0x4E487B7100000000000000000000000000000000000000000000000000000000 PUSH1 0x0 MSTORE PUSH1 0x22 PUSH1 0x4 MSTORE PUSH1 0x24 PUSH1 0x0 REVERT JUMPDEST PUSH2 0x3B0A DUP1 PUSH3 0x21E PUSH1 0x0 CODECOPY PUSH1 0x0 RETURN INVALID PUSH1 0x80 PUSH1 0x40 MSTORE CALLVALUE DUP1 ISZERO PUSH2 0x10 JUMPI PUSH1 0x0 DUP1 REVERT JUMPDEST POP PUSH1 0x4 CALLDATASIZE LT PUSH2 0xB4 JUMPI PUSH1 0x0 CALLDATALOAD PUSH1 0xE0 SHR DUP1 PUSH4 0x5C230EEE GT PUSH2 0x71 JUMPI DUP1 PUSH4 0x5C230EEE EQ PUSH2 0x195 JUMPI DUP1 PUSH4 0x70A08231 EQ PUSH2 0x1B1 JUMPI DUP1 PUSH4 0x95D89B41 EQ PUSH2 0x1E1 JUMPI DUP1 PUSH4 0x9D671564 EQ PUSH2 0x1FF JUMPI DUP1 PUSH4 0xAB9C70D4 EQ PUSH2 0x230 JUMPI DUP1 PUSH4 0xE745D68E EQ PUSH2 0x263 JUMPI PUSH2 0xB4 JUMP JUMPDEST DUP1 PUSH4 0x13CF08B EQ PUSH2 0xB9 JUMPI DUP1 PUSH4 0x3AF665C EQ PUSH2 0xEF JUMPI DUP1 PUSH4 0x6FDDE03 EQ PUSH2 0x11F JUMPI DUP1 PUSH4 0x18160DDD EQ PUSH2 0x13D JUMPI DUP1 PUSH4 0x313CE567 EQ PUSH2 0x15B JUMPI DUP1 PUSH4 0x4DE77E48 EQ PUSH2 0x179 JUMPI JUMPDEST PUSH1 0x0 DUP1 REVERT JUMPDEST PUSH2 0xD3 PUSH1 0x4 DUP1 CALLDATASIZE SUB DUP2 ADD SWAP1 PUSH2 0xCE SWAP2 SWAP1 PUSH2 0x22D7 JUMP JUMPDEST PUSH2 0x294 JUMP JUMPDEST PUSH1 0x40 MLOAD PUSH2 0xE6 SWAP8 SWAP7 SWAP6 SWAP5 SWAP4 SWAP3 SWAP2 SWAP1 PUSH2 0x2AD9 JUMP JUMPDEST PUSH1 0x40 MLOAD DUP1 SWAP2 SUB SWAP1 RETURN JUMPDEST PUSH2 0x109 PUSH1 0x4 DUP1 CALLDATASIZE SUB DUP2 ADD SWAP1 PUSH2 0x104 SWAP2 SWAP1 PUSH2 0x23A3 JUMP JUMPDEST PUSH2 0x399 JUMP JUMPDEST PUSH1 0x40 MLOAD PUSH2 0x116 SWAP2 SWAP1 PUSH2 0x2B4F JUMP JUMPDEST PUSH1 0x40 MLOAD DUP1 SWAP2 SUB SWAP1 RETURN JUMPDEST PUSH2 0x127 PUSH2 0x3F9 JUMP JUMPDEST PUSH1 0x40 MLOAD PUSH2 0x134 SWAP2 SWAP1 PUSH2 0x2B6A JUMP JUMPDEST PUSH1 0x40 MLOAD DUP1 SWAP2 SUB SWAP1 RETURN JUMPDEST PUSH2 0x145 PUSH2 0x48B JUMP JUMPDEST PUSH1 0x40 MLOAD PUSH2 0x152 SWAP2 SWAP1 PUSH2 0x2E8D JUMP JUMPDEST PUSH1 0x40 MLOAD DUP1 SWAP2 SUB SWAP1 RETURN JUMPDEST PUSH2 0x163 PUSH2 0x495 JUMP JUMPDEST PUSH1 0x40 MLOAD PUSH2 0x170 SWAP2 SWAP1 PUSH2 0x2FA3 JUMP JUMPDEST PUSH1 0x40 MLOAD DUP1 SWAP2 SUB SWAP1 RETURN JUMPDEST PUSH2 0x193 PUSH1 0x4 DUP1 CALLDATASIZE SUB DUP2 ADD SWAP1 PUSH2 0x18E SWAP2 SWAP1 PUSH2 0x23FF JUMP JUMPDEST PUSH2 0x49E JUMP JUMPDEST STOP JUMPDEST PUSH2 0x1AF PUSH1 0x4 DUP1 CALLDATASIZE SUB DUP2 ADD SWAP1 PUSH2 0x1AA SWAP2 SWAP1 PUSH2 0x2304 JUMP JUMPDEST PUSH2 0x7C8 JUMP JUMPDEST STOP JUMPDEST PUSH2 0x1CB PUSH1 0x4 DUP1 CALLDATASIZE SUB DUP2 ADD SWAP1 PUSH2 0x1C6 SWAP2 SWAP1 PUSH2 0x226A JUMP JUMPDEST PUSH2 0xC91 JUMP JUMPDEST PUSH1 0x40 MLOAD PUSH2 0x1D8 SWAP2 SWAP1 PUSH2 0x2E8D JUMP JUMPDEST PUSH1 0x40 MLOAD DUP1 SWAP2 SUB SWAP1 RETURN JUMPDEST PUSH2 0x1E9 PUSH2 0xCD9 JUMP JUMPDEST PUSH1 0x40 MLOAD PUSH2 0x1F6 SWAP2 SWAP1 PUSH2 0x2B6A JUMP JUMPDEST PUSH1 0x40 MLOAD DUP1 SWAP2 SUB SWAP1 RETURN JUMPDEST PUSH2 0x219 PUSH1 0x4 DUP1 CALLDATASIZE SUB DUP2 ADD SWAP1 PUSH2 0x214 SWAP2 SWAP1 PUSH2 0x22D7 JUMP JUMPDEST PUSH2 0xD6B JUMP JUMPDEST PUSH1 0x40 MLOAD PUSH2 0x227 SWAP3 SWAP2 SWAP1 PUSH2 0x2F73 JUMP JUMPDEST PUSH1 0x40 MLOAD DUP1 SWAP2 SUB SWAP1 RETURN JUMPDEST PUSH2 0x24A PUSH1 0x4 DUP1 CALLDATASIZE SUB DUP2 ADD SWAP1 PUSH2 0x245 SWAP2 SWAP1 PUSH2 0x2297 JUMP JUMPDEST PUSH2 0xEE6 JUMP JUMPDEST PUSH1 0x40 MLOAD PUSH2 0x25A SWAP5 SWAP4 SWAP3 SWAP2 SWAP1 PUSH2 0x2EA8 JUMP JUMPDEST PUSH1 0x40 MLOAD DUP1 SWAP2 SUB SWAP1 RETURN JUMPDEST PUSH2 0x27D PUSH1 0x4 DUP1 CALLDATASIZE SUB DUP2 ADD SWAP1 PUSH2 0x278 SWAP2 SWAP1 PUSH2 0x226A JUMP JUMPDEST PUSH2 0xF50 JUMP JUMPDEST PUSH1 0x40 MLOAD PUSH2 0x28B SWAP3 SWAP2 SWAP1 PUSH2 0x2E64 JUMP JUMPDEST PUSH1 0x40 MLOAD DUP1 SWAP2 SUB SWAP1 RETURN JUMPDEST PUSH1 0x7 PUSH1 0x20 MSTORE DUP1 PUSH1 0x0 MSTORE PUSH1 0x40 PUSH1 0x0 KECCAK256 PUSH1 0x0 SWAP2 POP SWAP1 POP DUP1 PUSH1 0x0 ADD PUSH1 0x0 SWAP1 SLOAD SWAP1 PUSH2 0x100 EXP SWAP1 DIV PUSH20 0xFFFFFFFFFFFFFFFFFFFFFFFFFFFFFFFFFFFFFFFF AND SWAP1 DUP1 PUSH1 0x0 ADD PUSH1 0x14 SWAP1 SLOAD SWAP1 PUSH2 0x100 EXP SWAP1 DIV PUSH1 0xFF AND SWAP1 DUP1 PUSH1 0x1 ADD DUP1 SLOAD PUSH2 0x2F0 SWAP1 PUSH2 0x33E9 JUMP JUMPDEST DUP1 PUSH1 0x1F ADD PUSH1 0x20 DUP1 SWAP2 DIV MUL PUSH1 0x20 ADD PUSH1 0x40 MLOAD SWAP1 DUP2 ADD PUSH1 0x40 MSTORE DUP1 SWAP3 SWAP2 SWAP1 DUP2 DUP2 MSTORE PUSH1 0x20 ADD DUP3 DUP1 SLOAD PUSH2 0x31C SWAP1 PUSH2 0x33E9 JUMP JUMPDEST DUP1 ISZERO PUSH2 0x369 JUMPI DUP1 PUSH1 0x1F LT PUSH2 0x33E JUMPI PUSH2 0x100 DUP1 DUP4 SLOAD DIV MUL DUP4 MSTORE SWAP2 PUSH1 0x20 ADD SWAP2 PUSH2 0x369 JUMP JUMPDEST DUP3 ADD SWAP2 SWAP1 PUSH1 0x0 MSTORE PUSH1 0x20 PUSH1 0x0 KECCAK256 SWAP1 JUMPDEST DUP2 SLOAD DUP2 MSTORE SWAP1 PUSH1 0x1 ADD SWAP1 PUSH1 0x20 ADD DUP1 DUP4 GT PUSH2 0x34C JUMPI DUP3 SWAP1 SUB PUSH1 0x1F AND DUP3 ADD SWAP2 JUMPDEST POP POP POP POP POP SWAP1 DUP1 PUSH1 0x2 ADD SLOAD SWAP1 DUP1 PUSH1 0x3 ADD SLOAD SWAP1 DUP1 PUSH1 0x4 ADD PUSH1 0x0 SWAP1 SLOAD SWAP1 PUSH2 0x100 EXP SWAP1 DIV PUSH2 0xFFFF AND SWAP1 DUP1 PUSH1 0x5 ADD SLOAD SWAP1 POP DUP8 JUMP JUMPDEST PUSH1 0x0 PUSH1 0x7 PUSH1 0x0 DUP5 DUP2 MSTORE PUSH1 0x20 ADD SWAP1 DUP2 MSTORE PUSH1 0x20 ADD PUSH1 0x0 KECCAK256 PUSH1 0x3 ADD SLOAD TIMESTAMP GT PUSH2 0x3F3 JUMPI PUSH1 0x40 MLOAD PUSH32 0x8C379A000000000000000000000000000000000000000000000000000000000 DUP2 MSTORE PUSH1 0x4 ADD PUSH2 0x3EA SWAP1 PUSH2 0x2BEC JUMP JUMPDEST PUSH1 0x40 MLOAD DUP1 SWAP2 SUB SWAP1 REVERT JUMPDEST SWAP3 SWAP2 POP POP JUMP JUMPDEST PUSH1 0x60 PUSH1 0x2 DUP1 SLOAD PUSH2 0x408 SWAP1 PUSH2 0x33E9 JUMP JUMPDEST DUP1 PUSH1 0x1F ADD PUSH1 0x20 DUP1 SWAP2 DIV MUL PUSH1 0x20 ADD PUSH1 0x40 MLOAD SWAP1 DUP2 ADD PUSH1 0x40 MSTORE DUP1 SWAP3 SWAP2 SWAP1 DUP2 DUP2 MSTORE PUSH1 0x20 ADD DUP3 DUP1 SLOAD PUSH2 0x434 SWAP1 PUSH2 0x33E9 JUMP JUMPDEST DUP1 ISZERO PUSH2 0x481 JUMPI DUP1 PUSH1 0x1F LT PUSH2 0x456 JUMPI PUSH2 0x100 DUP1 DUP4 SLOAD DIV MUL DUP4 MSTORE SWAP2 PUSH1 0x20 ADD SWAP2 PUSH2 0x481 JUMP JUMPDEST DUP3 ADD SWAP2 SWAP1 PUSH1 0x0 MSTORE PUSH1 0x20 PUSH1 0x0 KECCAK256 SWAP1 JUMPDEST DUP2 SLOAD DUP2 MSTORE SWAP1 PUSH1 0x1 ADD SWAP1 PUSH1 0x20 ADD DUP1 DUP4 GT PUSH2 0x464 JUMPI DUP3 SWAP1 SUB PUSH1 0x1F AND DUP3 ADD SWAP2 JUMPDEST POP POP POP POP POP SWAP1 POP SWAP1 JUMP JUMPDEST PUSH1 0x0 PUSH1 0x1 SLOAD SWAP1 POP SWAP1 JUMP JUMPDEST PUSH1 0x0 PUSH1 0x12 SWAP1 POP SWAP1 JUMP JUMPDEST DUP6 TIMESTAMP LT PUSH2 0x4E0 JUMPI PUSH1 0x40 MLOAD PUSH32 0x8C379A000000000000000000000000000000000000000000000000000000000 DUP2 MSTORE PUSH1 0x4 ADD PUSH2 0x4D7 SWAP1 PUSH2 0x2CAC JUMP JUMPDEST PUSH1 0x40 MLOAD DUP1 SWAP2 SUB SWAP1 REVERT JUMPDEST DUP5 TIMESTAMP LT PUSH2 0x522 JUMPI PUSH1 0x40 MLOAD PUSH32 0x8C379A000000000000000000000000000000000000000000000000000000000 DUP2 MSTORE PUSH1 0x4 ADD PUSH2 0x519 SWAP1 PUSH2 0x2BAC JUMP JUMPDEST PUSH1 0x40 MLOAD DUP1 SWAP2 SUB SWAP1 REVERT JUMPDEST DUP5 DUP7 LT PUSH2 0x564 JUMPI PUSH1 0x40 MLOAD PUSH32 0x8C379A000000000000000000000000000000000000000000000000000000000 DUP2 MSTORE PUSH1 0x4 ADD PUSH2 0x55B SWAP1 PUSH2 0x2D2C JUMP JUMPDEST PUSH1 0x40 MLOAD DUP1 SWAP2 SUB SWAP1 REVERT JUMPDEST PUSH1 0x5 PUSH1 0x0 DUP2 SLOAD DUP1 SWAP3 SWAP2 SWAP1 PUSH2 0x577 SWAP1 PUSH2 0x34B0 JUMP JUMPDEST SWAP2 SWAP1 POP SSTORE POP PUSH2 0x5B3 DUP10 DUP10 DUP10 DUP10 DUP10 DUP10 DUP8 DUP11 DUP11 PUSH1 0x7 PUSH1 0x0 PUSH1 0x5 SLOAD DUP2 MSTORE PUSH1 0x20 ADD SWAP1 DUP2 MSTORE PUSH1 0x20 ADD PUSH1 0x0 KECCAK256 PUSH2 0xFAC SWAP1 SWAP10 SWAP9 SWAP8 SWAP7 SWAP6 SWAP5 SWAP4 SWAP3 SWAP2 SWAP1 PUSH4 0xFFFFFFFF AND JUMP JUMPDEST POP PUSH32 0x239A8A71A7D1CB0D134F6CC072AD6390E36A88C8E78DFF69013EE79528441E80 PUSH1 0x5 SLOAD DUP10 DUP10 DUP10 DUP10 DUP10 DUP10 DUP10 PUSH1 0x40 MLOAD PUSH2 0x5F3 SWAP9 SWAP8 SWAP7 SWAP6 SWAP5 SWAP4 SWAP3 SWAP2 SWAP1 PUSH2 0x2EED JUMP JUMPDEST PUSH1 0x40 MLOAD DUP1 SWAP2 SUB SWAP1 LOG1 PUSH1 0x1 PUSH1 0x9 PUSH1 0x0 PUSH1 0x5 SLOAD DUP2 MSTORE PUSH1 0x20 ADD SWAP1 DUP2 MSTORE PUSH1 0x20 ADD PUSH1 0x0 KECCAK256 PUSH1 0x0 PUSH2 0x100 EXP DUP2 SLOAD DUP2 PUSH1 0xFF MUL NOT AND SWAP1 DUP4 ISZERO ISZERO MUL OR SWAP1 SSTORE POP PUSH1 0x0 JUMPDEST DUP9 MLOAD DUP2 LT ISZERO PUSH2 0x761 JUMPI PUSH2 0x659 DUP10 DUP3 DUP2 MLOAD DUP2 LT PUSH2 0x64B JUMPI PUSH2 0x64A PUSH2 0x3557 JUMP JUMPDEST JUMPDEST PUSH1 0x20 MUL PUSH1 0x20 ADD ADD MLOAD DUP4 PUSH2 0x11DE JUMP JUMPDEST PUSH2 0x6FA PUSH1 0x5 SLOAD DUP11 DUP4 DUP2 MLOAD DUP2 LT PUSH2 0x672 JUMPI PUSH2 0x671 PUSH2 0x3557 JUMP JUMPDEST JUMPDEST PUSH1 0x20 MUL PUSH1 0x20 ADD ADD MLOAD PUSH1 0x0 DUP6 PUSH1 0x8 PUSH1 0x0 DUP16 DUP9 DUP2 MLOAD DUP2 LT PUSH2 0x694 JUMPI PUSH2 0x693 PUSH2 0x3557 JUMP JUMPDEST JUMPDEST PUSH1 0x20 MUL PUSH1 0x20 ADD ADD MLOAD PUSH20 0xFFFFFFFFFFFFFFFFFFFFFFFFFFFFFFFFFFFFFFFF AND PUSH20 0xFFFFFFFFFFFFFFFFFFFFFFFFFFFFFFFFFFFFFFFF AND DUP2 MSTORE PUSH1 0x20 ADD SWAP1 DUP2 MSTORE PUSH1 0x20 ADD PUSH1 0x0 KECCAK256 PUSH1 0x0 PUSH1 0x5 SLOAD DUP2 MSTORE PUSH1 0x20 ADD SWAP1 DUP2 MSTORE PUSH1 0x20 ADD PUSH1 0x0 KECCAK256 PUSH2 0x124F SWAP1 SWAP5 SWAP4 SWAP3 SWAP2 SWAP1 PUSH4 0xFFFFFFFF AND JUMP JUMPDEST POP PUSH32 0xABF5327BE9F5825C40D58BDA541DD07F09B62DF3376BBD5ECDBAA8BD82A9D492 DUP10 DUP3 DUP2 MLOAD DUP2 LT PUSH2 0x72F JUMPI PUSH2 0x72E PUSH2 0x3557 JUMP JUMPDEST JUMPDEST PUSH1 0x20 MUL PUSH1 0x20 ADD ADD MLOAD DUP4 PUSH1 0x40 MLOAD PUSH2 0x746 SWAP3 SWAP2 SWAP1 PUSH2 0x2D8C JUMP JUMPDEST PUSH1 0x40 MLOAD DUP1 SWAP2 SUB SWAP1 LOG1 DUP1 DUP1 PUSH2 0x759 SWAP1 PUSH2 0x34B0 JUMP JUMPDEST SWAP2 POP POP PUSH2 0x62C JUMP JUMPDEST POP PUSH2 0x7BC PUSH1 0x5 SLOAD PUSH1 0x6 PUSH1 0x0 PUSH2 0x774 PUSH2 0x12CF JUMP JUMPDEST PUSH20 0xFFFFFFFFFFFFFFFFFFFFFFFFFFFFFFFFFFFFFFFF AND PUSH20 0xFFFFFFFFFFFFFFFFFFFFFFFFFFFFFFFFFFFFFFFF AND DUP2 MSTORE PUSH1 0x20 ADD SWAP1 DUP2 MSTORE PUSH1 0x20 ADD PUSH1 0x0 KECCAK256 PUSH2 0x12D7 SWAP1 SWAP2 SWAP1 PUSH4 0xFFFFFFFF AND JUMP JUMPDEST POP POP POP POP POP POP POP POP POP POP JUMP JUMPDEST PUSH1 0x9 PUSH1 0x0 DUP6 DUP2 MSTORE PUSH1 0x20 ADD SWAP1 DUP2 MSTORE PUSH1 0x20 ADD PUSH1 0x0 KECCAK256 PUSH1 0x0 SWAP1 SLOAD SWAP1 PUSH2 0x100 EXP SWAP1 DIV PUSH1 0xFF AND PUSH2 0x828 JUMPI PUSH1 0x40 MLOAD PUSH32 0x8C379A000000000000000000000000000000000000000000000000000000000 DUP2 MSTORE PUSH1 0x4 ADD PUSH2 0x81F SWAP1 PUSH2 0x2CEC JUMP JUMPDEST PUSH1 0x40 MLOAD DUP1 SWAP2 SUB SWAP1 REVERT JUMPDEST DUP4 PUSH1 0x8 PUSH1 0x0 DUP6 PUSH20 0xFFFFFFFFFFFFFFFFFFFFFFFFFFFFFFFFFFFFFFFF AND PUSH20 0xFFFFFFFFFFFFFFFFFFFFFFFFFFFFFFFFFFFFFFFF AND DUP2 MSTORE PUSH1 0x20 ADD SWAP1 DUP2 MSTORE PUSH1 0x20 ADD PUSH1 0x0 KECCAK256 PUSH1 0x0 DUP7 DUP2 MSTORE PUSH1 0x20 ADD SWAP1 DUP2 MSTORE PUSH1 0x20 ADD PUSH1 0x0 KECCAK256 PUSH1 0x0 ADD SLOAD EQ PUSH2 0x8BD JUMPI PUSH1 0x40 MLOAD PUSH32 0x8C379A000000000000000000000000000000000000000000000000000000000 DUP2 MSTORE PUSH1 0x4 ADD PUSH2 0x8B4 SWAP1 PUSH2 0x2C6C JUMP JUMPDEST PUSH1 0x40 MLOAD DUP1 SWAP2 SUB SWAP1 REVERT JUMPDEST PUSH1 0x8 PUSH1 0x0 DUP5 PUSH20 0xFFFFFFFFFFFFFFFFFFFFFFFFFFFFFFFFFFFFFFFF AND PUSH20 0xFFFFFFFFFFFFFFFFFFFFFFFFFFFFFFFFFFFFFFFF AND DUP2 MSTORE PUSH1 0x20 ADD SWAP1 DUP2 MSTORE PUSH1 0x20 ADD PUSH1 0x0 KECCAK256 PUSH1 0x0 DUP6 DUP2 MSTORE PUSH1 0x20 ADD SWAP1 DUP2 MSTORE PUSH1 0x20 ADD PUSH1 0x0 KECCAK256 PUSH1 0x1 ADD PUSH1 0x14 SWAP1 SLOAD SWAP1 PUSH2 0x100 EXP SWAP1 DIV PUSH1 0xFF AND ISZERO PUSH2 0x95E JUMPI PUSH1 0x40 MLOAD PUSH32 0x8C379A000000000000000000000000000000000000000000000000000000000 DUP2 MSTORE PUSH1 0x4 ADD PUSH2 0x955 SWAP1 PUSH2 0x2C0C JUMP JUMPDEST PUSH1 0x40 MLOAD DUP1 SWAP2 SUB SWAP1 REVERT JUMPDEST DUP2 MLOAD PUSH1 0x7 PUSH1 0x0 DUP7 DUP2 MSTORE PUSH1 0x20 ADD SWAP1 DUP2 MSTORE PUSH1 0x20 ADD PUSH1 0x0 KECCAK256 PUSH1 0x4 ADD PUSH1 0x0 SWAP1 SLOAD SWAP1 PUSH2 0x100 EXP SWAP1 DIV PUSH2 0xFFFF AND PUSH2 0xFFFF AND EQ PUSH2 0x9C9 JUMPI PUSH1 0x40 MLOAD PUSH32 0x8C379A000000000000000000000000000000000000000000000000000000000 DUP2 MSTORE PUSH1 0x4 ADD PUSH2 0x9C0 SWAP1 PUSH2 0x2D6C JUMP JUMPDEST PUSH1 0x40 MLOAD DUP1 SWAP2 SUB SWAP1 REVERT JUMPDEST PUSH1 0x0 DUP1 JUMPDEST DUP3 MLOAD DUP2 LT ISZERO PUSH2 0xA36 JUMPI DUP3 DUP2 DUP2 MLOAD DUP2 LT PUSH2 0x9E9 JUMPI PUSH2 0x9E8 PUSH2 0x3557 JUMP JUMPDEST JUMPDEST PUSH1 0x20 MUL PUSH1 0x20 ADD ADD MLOAD DUP4 DUP3 DUP2 MLOAD DUP2 LT PUSH2 0xA04 JUMPI PUSH2 0xA03 PUSH2 0x3557 JUMP JUMPDEST JUMPDEST PUSH1 0x20 MUL PUSH1 0x20 ADD ADD MLOAD PUSH2 0xA16 SWAP2 SWAP1 PUSH2 0x329A JUMP JUMPDEST DUP3 PUSH2 0xA21 SWAP2 SWAP1 PUSH2 0x3244 JUMP JUMPDEST SWAP2 POP DUP1 DUP1 PUSH2 0xA2E SWAP1 PUSH2 0x34B0 JUMP JUMPDEST SWAP2 POP POP PUSH2 0x9CD JUMP JUMPDEST POP DUP1 PUSH1 0x8 PUSH1 0x0 DUP7 PUSH20 0xFFFFFFFFFFFFFFFFFFFFFFFFFFFFFFFFFFFFFFFF AND PUSH20 0xFFFFFFFFFFFFFFFFFFFFFFFFFFFFFFFFFFFFFFFF AND DUP2 MSTORE PUSH1 0x20 ADD SWAP1 DUP2 MSTORE PUSH1 0x20 ADD PUSH1 0x0 KECCAK256 PUSH1 0x0 DUP8 DUP2 MSTORE PUSH1 0x20 ADD SWAP1 DUP2 MSTORE PUSH1 0x20 ADD PUSH1 0x0 KECCAK256 PUSH1 0x2 ADD SLOAD LT ISZERO PUSH2 0xACD JUMPI PUSH1 0x40 MLOAD PUSH32 0x8C379A000000000000000000000000000000000000000000000000000000000 DUP2 MSTORE PUSH1 0x4 ADD PUSH2 0xAC4 SWAP1 PUSH2 0x2D0C JUMP JUMPDEST PUSH1 0x40 MLOAD DUP1 SWAP2 SUB SWAP1 REVERT JUMPDEST PUSH2 0xAF6 DUP5 DUP5 DUP5 PUSH1 0x7 PUSH1 0x0 DUP11 DUP2 MSTORE PUSH1 0x20 ADD SWAP1 DUP2 MSTORE PUSH1 0x20 ADD PUSH1 0x0 KECCAK256 PUSH2 0x13A8 SWAP1 SWAP4 SWAP3 SWAP2 SWAP1 PUSH4 0xFFFFFFFF AND JUMP JUMPDEST POP PUSH2 0xB51 DUP6 DUP5 PUSH1 0x6 PUSH1 0x0 PUSH2 0xB08 PUSH2 0x12CF JUMP JUMPDEST PUSH20 0xFFFFFFFFFFFFFFFFFFFFFFFFFFFFFFFFFFFFFFFF AND PUSH20 0xFFFFFFFFFFFFFFFFFFFFFFFFFFFFFFFFFFFFFFFF AND DUP2 MSTORE PUSH1 0x20 ADD SWAP1 DUP2 MSTORE PUSH1 0x20 ADD PUSH1 0x0 KECCAK256 PUSH2 0x185E SWAP1 SWAP3 SWAP2 SWAP1 PUSH4 0xFFFFFFFF AND JUMP JUMPDEST POP PUSH2 0xBAA PUSH1 0x8 PUSH1 0x0 DUP7 PUSH20 0xFFFFFFFFFFFFFFFFFFFFFFFFFFFFFFFFFFFFFFFF AND PUSH20 0xFFFFFFFFFFFFFFFFFFFFFFFFFFFFFFFFFFFFFFFF AND DUP2 MSTORE PUSH1 0x20 ADD SWAP1 DUP2 MSTORE PUSH1 0x20 ADD PUSH1 0x0 KECCAK256 PUSH1 0x0 DUP8 DUP2 MSTORE PUSH1 0x20 ADD SWAP1 DUP2 MSTORE PUSH1 0x20 ADD PUSH1 0x0 KECCAK256 PUSH2 0x19EB JUMP JUMPDEST POP PUSH1 0x1 PUSH1 0x8 PUSH1 0x0 DUP7 PUSH20 0xFFFFFFFFFFFFFFFFFFFFFFFFFFFFFFFFFFFFFFFF AND PUSH20 0xFFFFFFFFFFFFFFFFFFFFFFFFFFFFFFFFFFFFFFFF AND DUP2 MSTORE PUSH1 0x20 ADD SWAP1 DUP2 MSTORE PUSH1 0x20 ADD PUSH1 0x0 KECCAK256 PUSH1 0x0 DUP8 DUP2 MSTORE PUSH1 0x20 ADD SWAP1 DUP2 MSTORE PUSH1 0x20 ADD PUSH1 0x0 KECCAK256 PUSH1 0x1 ADD PUSH1 0x14 PUSH2 0x100 EXP DUP2 SLOAD DUP2 PUSH1 0xFF MUL NOT AND SWAP1 DUP4 ISZERO ISZERO MUL OR SWAP1 SSTORE POP PUSH2 0xC39 DUP5 PUSH1 0x7 PUSH1 0x0 PUSH1 0x5 SLOAD DUP2 MSTORE PUSH1 0x20 ADD SWAP1 DUP2 MSTORE PUSH1 0x20 ADD PUSH1 0x0 KECCAK256 PUSH1 0x5 ADD SLOAD PUSH2 0x1A99 JUMP JUMPDEST PUSH32 0xABF5327BE9F5825C40D58BDA541DD07F09B62DF3376BBD5ECDBAA8BD82A9D492 DUP5 PUSH1 0x7 PUSH1 0x0 PUSH1 0x5 SLOAD DUP2 MSTORE PUSH1 0x20 ADD SWAP1 DUP2 MSTORE PUSH1 0x20 ADD PUSH1 0x0 KECCAK256 PUSH1 0x5 ADD SLOAD PUSH1 0x40 MLOAD PUSH2 0xC82 SWAP3 SWAP2 SWAP1 PUSH2 0x2DE8 JUMP JUMPDEST PUSH1 0x40 MLOAD DUP1 SWAP2 SUB SWAP1 LOG1 POP POP POP POP POP JUMP JUMPDEST PUSH1 0x0 DUP1 PUSH1 0x0 DUP4 PUSH20 0xFFFFFFFFFFFFFFFFFFFFFFFFFFFFFFFFFFFFFFFF AND PUSH20 0xFFFFFFFFFFFFFFFFFFFFFFFFFFFFFFFFFFFFFFFF AND DUP2 MSTORE PUSH1 0x20 ADD SWAP1 DUP2 MSTORE PUSH1 0x20 ADD PUSH1 0x0 KECCAK256 SLOAD SWAP1 POP SWAP2 SWAP1 POP JUMP JUMPDEST PUSH1 0x60 PUSH1 0x3 DUP1 SLOAD PUSH2 0xCE8 SWAP1 PUSH2 0x33E9 JUMP JUMPDEST DUP1 PUSH1 0x1F ADD PUSH1 0x20 DUP1 SWAP2 DIV MUL PUSH1 0x20 ADD PUSH1 0x40 MLOAD SWAP1 DUP2 ADD PUSH1 0x40 MSTORE DUP1 SWAP3 SWAP2 SWAP1 DUP2 DUP2 MSTORE PUSH1 0x20 ADD DUP3 DUP1 SLOAD PUSH2 0xD14 SWAP1 PUSH2 0x33E9 JUMP JUMPDEST DUP1 ISZERO PUSH2 0xD61 JUMPI DUP1 PUSH1 0x1F LT PUSH2 0xD36 JUMPI PUSH2 0x100 DUP1 DUP4 SLOAD DIV MUL DUP4 MSTORE SWAP2 PUSH1 0x20 ADD SWAP2 PUSH2 0xD61 JUMP JUMPDEST DUP3 ADD SWAP2 SWAP1 PUSH1 0x0 MSTORE PUSH1 0x20 PUSH1 0x0 KECCAK256 SWAP1 JUMPDEST DUP2 SLOAD DUP2 MSTORE SWAP1 PUSH1 0x1 ADD SWAP1 PUSH1 0x20 ADD DUP1 DUP4 GT PUSH2 0xD44 JUMPI DUP3 SWAP1 SUB PUSH1 0x1F AND DUP3 ADD SWAP2 JUMPDEST POP POP POP POP POP SWAP1 POP SWAP1 JUMP JUMPDEST PUSH1 0x0 PUSH1 0x60 PUSH1 0x9 PUSH1 0x0 DUP5 DUP2 MSTORE PUSH1 0x20 ADD SWAP1 DUP2 MSTORE PUSH1 0x20 ADD PUSH1 0x0 KECCAK256 PUSH1 0x0 SWAP1 SLOAD SWAP1 PUSH2 0x100 EXP SWAP1 DIV PUSH1 0xFF AND PUSH2 0xDCF JUMPI PUSH1 0x40 MLOAD PUSH32 0x8C379A000000000000000000000000000000000000000000000000000000000 DUP2 MSTORE PUSH1 0x4 ADD PUSH2 0xDC6 SWAP1 PUSH2 0x2C4C JUMP JUMPDEST PUSH1 0x40 MLOAD DUP1 SWAP2 SUB SWAP1 REVERT JUMPDEST PUSH1 0x7 PUSH1 0x0 DUP5 DUP2 MSTORE PUSH1 0x20 ADD SWAP1 DUP2 MSTORE PUSH1 0x20 ADD PUSH1 0x0 KECCAK256 PUSH1 0xA ADD PUSH1 0x7 PUSH1 0x0 DUP6 DUP2 MSTORE PUSH1 0x20 ADD SWAP1 DUP2 MSTORE PUSH1 0x20 ADD PUSH1 0x0 KECCAK256 PUSH1 0x9 ADD PUSH1 0x0 PUSH1 0x1 DUP2 MSTORE PUSH1 0x20 ADD SWAP1 DUP2 MSTORE PUSH1 0x20 ADD PUSH1 0x0 KECCAK256 PUSH1 0x40 MLOAD PUSH2 0xE1A SWAP2 SWAP1 PUSH2 0x2AC2 JUMP JUMPDEST SWAP1 DUP2 MSTORE PUSH1 0x20 ADD PUSH1 0x40 MLOAD DUP1 SWAP2 SUB SWAP1 KECCAK256 SLOAD PUSH1 0x7 PUSH1 0x0 DUP6 DUP2 MSTORE PUSH1 0x20 ADD SWAP1 DUP2 MSTORE PUSH1 0x20 ADD PUSH1 0x0 KECCAK256 PUSH1 0x9 ADD PUSH1 0x0 PUSH1 0x1 DUP2 MSTORE PUSH1 0x20 ADD SWAP1 DUP2 MSTORE PUSH1 0x20 ADD PUSH1 0x0 KECCAK256 DUP1 DUP1 SLOAD PUSH2 0xE5D SWAP1 PUSH2 0x33E9 JUMP JUMPDEST DUP1 PUSH1 0x1F ADD PUSH1 0x20 DUP1 SWAP2 DIV MUL PUSH1 0x20 ADD PUSH1 0x40 MLOAD SWAP1 DUP2 ADD PUSH1 0x40 MSTORE DUP1 SWAP3 SWAP2 SWAP1 DUP2 DUP2 MSTORE PUSH1 0x20 ADD DUP3 DUP1 SLOAD PUSH2 0xE89 SWAP1 PUSH2 0x33E9 JUMP JUMPDEST DUP1 ISZERO PUSH2 0xED6 JUMPI DUP1 PUSH1 0x1F LT PUSH2 0xEAB JUMPI PUSH2 0x100 DUP1 DUP4 SLOAD DIV MUL DUP4 MSTORE SWAP2 PUSH1 0x20 ADD SWAP2 PUSH2 0xED6 JUMP JUMPDEST DUP3 ADD SWAP2 SWAP1 PUSH1 0x0 MSTORE PUSH1 0x20 PUSH1 0x0 KECCAK256 SWAP1 JUMPDEST DUP2 SLOAD DUP2 MSTORE SWAP1 PUSH1 0x1 ADD SWAP1 PUSH1 0x20 ADD DUP1 DUP4 GT PUSH2 0xEB9 JUMPI DUP3 SWAP1 SUB PUSH1 0x1F AND DUP3 ADD SWAP2 JUMPDEST POP POP POP POP POP SWAP1 POP SWAP2 POP SWAP2 POP SWAP2 POP SWAP2 JUMP JUMPDEST PUSH1 0x8 PUSH1 0x20 MSTORE DUP2 PUSH1 0x0 MSTORE PUSH1 0x40 PUSH1 0x0 KECCAK256 PUSH1 0x20 MSTORE DUP1 PUSH1 0x0 MSTORE PUSH1 0x40 PUSH1 0x0 KECCAK256 PUSH1 0x0 SWAP2 POP SWAP2 POP POP DUP1 PUSH1 0x0 ADD SLOAD SWAP1 DUP1 PUSH1 0x1 ADD PUSH1 0x0 SWAP1 SLOAD SWAP1 PUSH2 0x100 EXP SWAP1 DIV PUSH20 0xFFFFFFFFFFFFFFFFFFFFFFFFFFFFFFFFFFFFFFFF AND SWAP1 DUP1 PUSH1 0x1 ADD PUSH1 0x14 SWAP1 SLOAD SWAP1 PUSH2 0x100 EXP SWAP1 DIV PUSH1 0xFF AND SWAP1 DUP1 PUSH1 0x2 ADD SLOAD SWAP1 POP DUP5 JUMP JUMPDEST PUSH1 0x6 PUSH1 0x20 MSTORE DUP1 PUSH1 0x0 MSTORE PUSH1 0x40 PUSH1 0x0 KECCAK256 PUSH1 0x0 SWAP2 POP SWAP1 POP DUP1 PUSH1 0x0 ADD PUSH1 0x0 SWAP1 SLOAD SWAP1 PUSH2 0x100 EXP SWAP1 DIV PUSH16 0xFFFFFFFFFFFFFFFFFFFFFFFFFFFFFFFF AND SWAP1 DUP1 PUSH1 0x0 ADD PUSH1 0x10 SWAP1 SLOAD SWAP1 PUSH2 0x100 EXP SWAP1 DIV PUSH16 0xFFFFFFFFFFFFFFFFFFFFFFFFFFFFFFFF AND SWAP1 POP DUP3 JUMP JUMPDEST PUSH1 0x0 DUP8 DUP12 PUSH1 0x0 ADD PUSH1 0x0 PUSH2 0x100 EXP DUP2 SLOAD DUP2 PUSH20 0xFFFFFFFFFFFFFFFFFFFFFFFFFFFFFFFFFFFFFFFF MUL NOT AND SWAP1 DUP4 PUSH20 0xFFFFFFFFFFFFFFFFFFFFFFFFFFFFFFFFFFFFFFFF AND MUL OR SWAP1 SSTORE POP DUP10 DUP12 PUSH1 0x0 ADD PUSH1 0x14 PUSH2 0x100 EXP DUP2 SLOAD DUP2 PUSH1 0xFF MUL NOT AND SWAP1 DUP4 PUSH1 0xFF AND MUL OR SWAP1 SSTORE POP DUP5 DUP12 PUSH1 0x1 ADD SWAP1 DUP1 MLOAD SWAP1 PUSH1 0x20 ADD SWAP1 PUSH2 0x1026 SWAP3 SWAP2 SWAP1 PUSH2 0x1DB7 JUMP JUMPDEST POP DUP7 DUP12 PUSH1 0x2 ADD DUP2 SWAP1 SSTORE POP DUP6 DUP12 PUSH1 0x3 ADD DUP2 SWAP1 SSTORE POP DUP3 DUP3 SWAP1 POP DUP12 PUSH1 0x4 ADD PUSH1 0x0 PUSH2 0x100 EXP DUP2 SLOAD DUP2 PUSH2 0xFFFF MUL NOT AND SWAP1 DUP4 PUSH2 0xFFFF AND MUL OR SWAP1 SSTORE POP DUP4 DUP12 PUSH1 0x5 ADD DUP2 SWAP1 SSTORE POP PUSH1 0x0 JUMPDEST DUP4 DUP4 SWAP1 POP DUP2 LT ISZERO PUSH2 0x1137 JUMPI PUSH1 0x1 DUP13 PUSH1 0x7 ADD DUP6 DUP6 DUP5 DUP2 DUP2 LT PUSH2 0x108B JUMPI PUSH2 0x108A PUSH2 0x3557 JUMP JUMPDEST JUMPDEST SWAP1 POP PUSH1 0x20 MUL DUP2 ADD SWAP1 PUSH2 0x109D SWAP2 SWAP1 PUSH2 0x2FBE JUMP JUMPDEST PUSH1 0x40 MLOAD PUSH2 0x10AB SWAP3 SWAP2 SWAP1 PUSH2 0x2A92 JUMP JUMPDEST SWAP1 DUP2 MSTORE PUSH1 0x20 ADD PUSH1 0x40 MLOAD DUP1 SWAP2 SUB SWAP1 KECCAK256 PUSH1 0x0 PUSH2 0x100 EXP DUP2 SLOAD DUP2 PUSH1 0xFF MUL NOT AND SWAP1 DUP4 ISZERO ISZERO MUL OR SWAP1 SSTORE POP DUP4 DUP4 DUP3 DUP2 DUP2 LT PUSH2 0x10E3 JUMPI PUSH2 0x10E2 PUSH2 0x3557 JUMP JUMPDEST JUMPDEST SWAP1 POP PUSH1 0x20 MUL DUP2 ADD SWAP1 PUSH2 0x10F5 SWAP2 SWAP1 PUSH2 0x2FBE JUMP JUMPDEST DUP14 PUSH1 0x8 ADD PUSH1 0x0 PUSH1 0x1 DUP6 PUSH2 0x1108 SWAP2 SWAP1 PUSH2 0x3244 JUMP JUMPDEST DUP2 MSTORE PUSH1 0x20 ADD SWAP1 DUP2 MSTORE PUSH1 0x20 ADD PUSH1 0x0 KECCAK256 SWAP2 SWAP1 PUSH2 0x1123 SWAP3 SWAP2 SWAP1 PUSH2 0x1E3D JUMP JUMPDEST POP DUP1 DUP1 PUSH2 0x112F SWAP1 PUSH2 0x34B0 JUMP JUMPDEST SWAP2 POP POP PUSH2 0x1067 JUMP JUMPDEST POP PUSH1 0x0 JUMPDEST DUP10 MLOAD DUP2 LT ISZERO PUSH2 0x11CB JUMPI PUSH1 0x1 DUP13 PUSH1 0x6 ADD PUSH1 0x0 DUP13 DUP5 DUP2 MLOAD DUP2 LT PUSH2 0x115F JUMPI PUSH2 0x115E PUSH2 0x3557 JUMP JUMPDEST JUMPDEST PUSH1 0x20 MUL PUSH1 0x20 ADD ADD MLOAD PUSH20 0xFFFFFFFFFFFFFFFFFFFFFFFFFFFFFFFFFFFFFFFF AND PUSH20 0xFFFFFFFFFFFFFFFFFFFFFFFFFFFFFFFFFFFFFFFF AND DUP2 MSTORE PUSH1 0x20 ADD SWAP1 DUP2 MSTORE PUSH1 0x20 ADD PUSH1 0x0 KECCAK256 PUSH1 0x0 PUSH2 0x100 EXP DUP2 SLOAD DUP2 PUSH1 0xFF MUL NOT AND SWAP1 DUP4 ISZERO ISZERO MUL OR SWAP1 SSTORE POP DUP1 DUP1 PUSH2 0x11C3 SWAP1 PUSH2 0x34B0 JUMP JUMPDEST SWAP2 POP POP PUSH2 0x113B JUMP JUMPDEST POP PUSH1 0x1 SWAP1 POP SWAP11 SWAP10 POP POP POP POP POP POP POP POP POP POP JUMP JUMPDEST PUSH2 0x11E6 PUSH2 0x12CF JUMP JUMPDEST DUP1 PUSH20 0xFFFFFFFFFFFFFFFFFFFFFFFFFFFFFFFFFFFFFFFF AND PUSH1 0x4 PUSH1 0x0 SWAP1 SLOAD SWAP1 PUSH2 0x100 EXP SWAP1 DIV PUSH20 0xFFFFFFFFFFFFFFFFFFFFFFFFFFFFFFFFFFFFFFFF AND PUSH20 0xFFFFFFFFFFFFFFFFFFFFFFFFFFFFFFFFFFFFFFFF AND EQ PUSH2 0x1240 JUMPI PUSH1 0x0 DUP1 REVERT JUMPDEST PUSH2 0x124A DUP4 DUP4 PUSH2 0x1B0A JUMP JUMPDEST POP POP POP JUMP JUMPDEST PUSH1 0x0 DUP5 DUP7 PUSH1 0x0 ADD DUP2 SWAP1 SSTORE POP DUP4 DUP7 PUSH1 0x1 ADD PUSH1 0x0 PUSH2 0x100 EXP DUP2 SLOAD DUP2 PUSH20 0xFFFFFFFFFFFFFFFFFFFFFFFFFFFFFFFFFFFFFFFF MUL NOT AND SWAP1 DUP4 PUSH20 0xFFFFFFFFFFFFFFFFFFFFFFFFFFFFFFFFFFFFFFFF AND MUL OR SWAP1 SSTORE POP DUP3 DUP7 PUSH1 0x1 ADD PUSH1 0x14 PUSH2 0x100 EXP DUP2 SLOAD DUP2 PUSH1 0xFF MUL NOT AND SWAP1 DUP4 ISZERO ISZERO MUL OR SWAP1 SSTORE POP DUP2 DUP7 PUSH1 0x2 ADD DUP2 SWAP1 SSTORE POP PUSH1 0x1 SWAP1 POP SWAP6 SWAP5 POP POP POP POP POP JUMP JUMPDEST PUSH1 0x0 CALLER SWAP1 POP SWAP1 JUMP JUMPDEST PUSH1 0x0 DUP3 PUSH1 0x0 ADD PUSH1 0x0 DUP2 DUP2 SWAP1 SLOAD SWAP1 PUSH2 0x100 EXP SWAP1 DIV PUSH16 0xFFFFFFFFFFFFFFFFFFFFFFFFFFFFFFFF AND DUP1 SWAP3 SWAP2 SWAP1 PUSH2 0x1309 SWAP1 PUSH2 0x344C JUMP JUMPDEST SWAP2 SWAP1 PUSH2 0x100 EXP DUP2 SLOAD DUP2 PUSH16 0xFFFFFFFFFFFFFFFFFFFFFFFFFFFFFFFF MUL NOT AND SWAP1 DUP4 PUSH16 0xFFFFFFFFFFFFFFFFFFFFFFFFFFFFFFFF AND MUL OR SWAP1 SSTORE POP POP DUP2 DUP4 PUSH1 0x1 ADD PUSH1 0x0 DUP6 PUSH1 0x0 ADD PUSH1 0x0 SWAP1 SLOAD SWAP1 PUSH2 0x100 EXP SWAP1 DIV PUSH16 0xFFFFFFFFFFFFFFFFFFFFFFFFFFFFFFFF AND PUSH16 0xFFFFFFFFFFFFFFFFFFFFFFFFFFFFFFFF AND PUSH16 0xFFFFFFFFFFFFFFFFFFFFFFFFFFFFFFFF AND DUP2 MSTORE PUSH1 0x20 ADD SWAP1 DUP2 MSTORE PUSH1 0x20 ADD PUSH1 0x0 KECCAK256 DUP2 SWAP1 SSTORE POP PUSH1 0x1 SWAP1 POP SWAP3 SWAP2 POP POP JUMP JUMPDEST PUSH1 0x0 PUSH1 0x2 DUP6 PUSH1 0x0 ADD PUSH1 0x14 SWAP1 SLOAD SWAP1 PUSH2 0x100 EXP SWAP1 DIV PUSH1 0xFF AND PUSH1 0xFF AND EQ PUSH2 0x1401 JUMPI PUSH1 0x40 MLOAD PUSH32 0x8C379A000000000000000000000000000000000000000000000000000000000 DUP2 MSTORE PUSH1 0x4 ADD PUSH2 0x13F8 SWAP1 PUSH2 0x2B8C JUMP JUMPDEST PUSH1 0x40 MLOAD DUP1 SWAP2 SUB SWAP1 REVERT JUMPDEST DUP5 PUSH1 0x2 ADD SLOAD TIMESTAMP LT ISZERO PUSH2 0x1448 JUMPI PUSH1 0x40 MLOAD PUSH32 0x8C379A000000000000000000000000000000000000000000000000000000000 DUP2 MSTORE PUSH1 0x4 ADD PUSH2 0x143F SWAP1 PUSH2 0x2C8C JUMP JUMPDEST PUSH1 0x40 MLOAD DUP1 SWAP2 SUB SWAP1 REVERT JUMPDEST DUP5 PUSH1 0x3 ADD SLOAD TIMESTAMP GT ISZERO PUSH2 0x169E JUMPI PUSH1 0x2 DUP6 PUSH1 0x0 ADD PUSH1 0x14 PUSH2 0x100 EXP DUP2 SLOAD DUP2 PUSH1 0xFF MUL NOT AND SWAP1 DUP4 PUSH1 0xFF AND MUL OR SWAP1 SSTORE POP PUSH1 0x0 DUP6 PUSH1 0xA ADD DUP7 PUSH1 0x8 ADD PUSH1 0x0 PUSH1 0x1 DUP2 MSTORE PUSH1 0x20 ADD SWAP1 DUP2 MSTORE PUSH1 0x20 ADD PUSH1 0x0 KECCAK256 PUSH1 0x40 MLOAD PUSH2 0x149B SWAP2 SWAP1 PUSH2 0x2AC2 JUMP JUMPDEST SWAP1 DUP2 MSTORE PUSH1 0x20 ADD PUSH1 0x40 MLOAD DUP1 SWAP2 SUB SWAP1 KECCAK256 SLOAD SWAP1 POP PUSH1 0x0 PUSH1 0x1 SWAP1 POP DUP7 PUSH1 0x8 ADD PUSH1 0x0 PUSH1 0x1 DUP2 MSTORE PUSH1 0x20 ADD SWAP1 DUP2 MSTORE PUSH1 0x20 ADD PUSH1 0x0 KECCAK256 DUP8 PUSH1 0x9 ADD PUSH1 0x0 PUSH1 0x1 DUP2 MSTORE PUSH1 0x20 ADD SWAP1 DUP2 MSTORE PUSH1 0x20 ADD PUSH1 0x0 KECCAK256 SWAP1 DUP1 SLOAD PUSH2 0x14EA SWAP1 PUSH2 0x33E9 JUMP JUMPDEST PUSH2 0x14F5 SWAP3 SWAP2 SWAP1 PUSH2 0x1EC3 JUMP JUMPDEST POP PUSH1 0x0 PUSH1 0x2 SWAP1 POP JUMPDEST DUP8 PUSH1 0x4 ADD PUSH1 0x0 SWAP1 SLOAD SWAP1 PUSH2 0x100 EXP SWAP1 DIV PUSH2 0xFFFF AND PUSH2 0xFFFF AND DUP2 PUSH2 0xFFFF AND GT PUSH2 0x1692 JUMPI DUP3 DUP9 PUSH1 0xA ADD DUP10 PUSH1 0x8 ADD PUSH1 0x0 DUP5 PUSH2 0xFFFF AND DUP2 MSTORE PUSH1 0x20 ADD SWAP1 DUP2 MSTORE PUSH1 0x20 ADD PUSH1 0x0 KECCAK256 PUSH1 0x40 MLOAD PUSH2 0x1549 SWAP2 SWAP1 PUSH2 0x2AC2 JUMP JUMPDEST SWAP1 DUP2 MSTORE PUSH1 0x20 ADD PUSH1 0x40 MLOAD DUP1 SWAP2 SUB SWAP1 KECCAK256 SLOAD GT ISZERO PUSH2 0x15E9 JUMPI DUP8 PUSH1 0xA ADD DUP9 PUSH1 0x8 ADD PUSH1 0x0 DUP4 PUSH2 0xFFFF AND DUP2 MSTORE PUSH1 0x20 ADD SWAP1 DUP2 MSTORE PUSH1 0x20 ADD PUSH1 0x0 KECCAK256 PUSH1 0x40 MLOAD PUSH2 0x1588 SWAP2 SWAP1 PUSH2 0x2AC2 JUMP JUMPDEST SWAP1 DUP2 MSTORE PUSH1 0x20 ADD PUSH1 0x40 MLOAD DUP1 SWAP2 SUB SWAP1 KECCAK256 SLOAD SWAP3 POP PUSH1 0x1 SWAP2 POP DUP8 PUSH1 0x8 ADD PUSH1 0x0 DUP3 PUSH2 0xFFFF AND DUP2 MSTORE PUSH1 0x20 ADD SWAP1 DUP2 MSTORE PUSH1 0x20 ADD PUSH1 0x0 KECCAK256 DUP9 PUSH1 0x9 ADD PUSH1 0x0 PUSH1 0x1 DUP2 MSTORE PUSH1 0x20 ADD SWAP1 DUP2 MSTORE PUSH1 0x20 ADD PUSH1 0x0 KECCAK256 SWAP1 DUP1 SLOAD PUSH2 0x15D8 SWAP1 PUSH2 0x33E9 JUMP JUMPDEST PUSH2 0x15E3 SWAP3 SWAP2 SWAP1 PUSH2 0x1EC3 JUMP JUMPDEST POP PUSH2 0x167F JUMP JUMPDEST DUP3 DUP9 PUSH1 0xA ADD DUP10 PUSH1 0x8 ADD PUSH1 0x0 DUP5 PUSH2 0xFFFF AND DUP2 MSTORE PUSH1 0x20 ADD SWAP1 DUP2 MSTORE PUSH1 0x20 ADD PUSH1 0x0 KECCAK256 PUSH1 0x40 MLOAD PUSH2 0x1614 SWAP2 SWAP1 PUSH2 0x2AC2 JUMP JUMPDEST SWAP1 DUP2 MSTORE PUSH1 0x20 ADD PUSH1 0x40 MLOAD DUP1 SWAP2 SUB SWAP1 KECCAK256 SLOAD EQ ISZERO PUSH2 0x167E JUMPI DUP2 DUP1 PUSH2 0x1634 SWAP1 PUSH2 0x34B0 JUMP JUMPDEST SWAP3 POP POP DUP8 PUSH1 0x8 ADD PUSH1 0x0 DUP3 PUSH2 0xFFFF AND DUP2 MSTORE PUSH1 0x20 ADD SWAP1 DUP2 MSTORE PUSH1 0x20 ADD PUSH1 0x0 KECCAK256 DUP9 PUSH1 0x9 ADD PUSH1 0x0 DUP5 DUP2 MSTORE PUSH1 0x20 ADD SWAP1 DUP2 MSTORE PUSH1 0x20 ADD PUSH1 0x0 KECCAK256 SWAP1 DUP1 SLOAD PUSH2 0x1671 SWAP1 PUSH2 0x33E9 JUMP JUMPDEST PUSH2 0x167C SWAP3 SWAP2 SWAP1 PUSH2 0x1EC3 JUMP JUMPDEST POP JUMPDEST JUMPDEST DUP1 DUP1 PUSH2 0x168A SWAP1 PUSH2 0x3485 JUMP JUMPDEST SWAP2 POP POP PUSH2 0x14FD JUMP JUMPDEST POP PUSH1 0x0 SWAP3 POP POP POP PUSH2 0x1856 JUMP JUMPDEST DUP5 PUSH1 0x6 ADD PUSH1 0x0 DUP6 PUSH20 0xFFFFFFFFFFFFFFFFFFFFFFFFFFFFFFFFFFFFFFFF AND PUSH20 0xFFFFFFFFFFFFFFFFFFFFFFFFFFFFFFFFFFFFFFFF AND DUP2 MSTORE PUSH1 0x20 ADD SWAP1 DUP2 MSTORE PUSH1 0x20 ADD PUSH1 0x0 KECCAK256 PUSH1 0x0 SWAP1 SLOAD SWAP1 PUSH2 0x100 EXP SWAP1 DIV PUSH1 0xFF AND PUSH2 0x172C JUMPI PUSH1 0x40 MLOAD PUSH32 0x8C379A000000000000000000000000000000000000000000000000000000000 DUP2 MSTORE PUSH1 0x4 ADD PUSH2 0x1723 SWAP1 PUSH2 0x2CCC JUMP JUMPDEST PUSH1 0x40 MLOAD DUP1 SWAP2 SUB SWAP1 REVERT JUMPDEST PUSH1 0x0 JUMPDEST DUP6 PUSH1 0x4 ADD PUSH1 0x0 SWAP1 SLOAD SWAP1 PUSH2 0x100 EXP SWAP1 DIV PUSH2 0xFFFF AND PUSH2 0xFFFF AND DUP2 PUSH2 0xFFFF AND LT ISZERO PUSH2 0x1850 JUMPI DUP6 PUSH1 0x7 ADD DUP5 DUP3 PUSH2 0xFFFF AND DUP2 MLOAD DUP2 LT PUSH2 0x176C JUMPI PUSH2 0x176B PUSH2 0x3557 JUMP JUMPDEST JUMPDEST PUSH1 0x20 MUL PUSH1 0x20 ADD ADD MLOAD PUSH1 0x40 MLOAD PUSH2 0x1781 SWAP2 SWAP1 PUSH2 0x2AAB JUMP JUMPDEST SWAP1 DUP2 MSTORE PUSH1 0x20 ADD PUSH1 0x40 MLOAD DUP1 SWAP2 SUB SWAP1 KECCAK256 PUSH1 0x0 SWAP1 SLOAD SWAP1 PUSH2 0x100 EXP SWAP1 DIV PUSH1 0xFF AND PUSH2 0x17DC JUMPI PUSH1 0x40 MLOAD PUSH32 0x8C379A000000000000000000000000000000000000000000000000000000000 DUP2 MSTORE PUSH1 0x4 ADD PUSH2 0x17D3 SWAP1 PUSH2 0x2C2C JUMP JUMPDEST PUSH1 0x40 MLOAD DUP1 SWAP2 SUB SWAP1 REVERT JUMPDEST DUP3 DUP2 PUSH2 0xFFFF AND DUP2 MLOAD DUP2 LT PUSH2 0x17F3 JUMPI PUSH2 0x17F2 PUSH2 0x3557 JUMP JUMPDEST JUMPDEST PUSH1 0x20 MUL PUSH1 0x20 ADD ADD MLOAD DUP7 PUSH1 0xA ADD DUP6 DUP4 PUSH2 0xFFFF AND DUP2 MLOAD DUP2 LT PUSH2 0x1816 JUMPI PUSH2 0x1815 PUSH2 0x3557 JUMP JUMPDEST JUMPDEST PUSH1 0x20 MUL PUSH1 0x20 ADD ADD MLOAD PUSH1 0x40 MLOAD PUSH2 0x182B SWAP2 SWAP1 PUSH2 0x2AAB JUMP JUMPDEST SWAP1 DUP2 MSTORE PUSH1 0x20 ADD PUSH1 0x40 MLOAD DUP1 SWAP2 SUB SWAP1 KECCAK256 DUP2 SWAP1 SSTORE POP DUP1 DUP1 PUSH2 0x1848 SWAP1 PUSH2 0x3485 JUMP JUMPDEST SWAP2 POP POP PUSH2 0x172F JUMP JUMPDEST POP PUSH1 0x1 SWAP1 POP JUMPDEST SWAP5 SWAP4 POP POP POP POP JUMP JUMPDEST PUSH1 0x0 DUP4 PUSH1 0x0 ADD PUSH1 0x10 DUP2 DUP2 SWAP1 SLOAD SWAP1 PUSH2 0x100 EXP SWAP1 DIV PUSH16 0xFFFFFFFFFFFFFFFFFFFFFFFFFFFFFFFF AND DUP1 SWAP3 SWAP2 SWAP1 PUSH2 0x1890 SWAP1 PUSH2 0x344C JUMP JUMPDEST SWAP2 SWAP1 PUSH2 0x100 EXP DUP2 SLOAD DUP2 PUSH16 0xFFFFFFFFFFFFFFFFFFFFFFFFFFFFFFFF MUL NOT AND SWAP1 DUP4 PUSH16 0xFFFFFFFFFFFFFFFFFFFFFFFFFFFFFFFF AND MUL OR SWAP1 SSTORE POP POP DUP3 DUP5 PUSH1 0x2 ADD PUSH1 0x0 DUP7 PUSH1 0x0 ADD PUSH1 0x10 SWAP1 SLOAD SWAP1 PUSH2 0x100 EXP SWAP1 DIV PUSH16 0xFFFFFFFFFFFFFFFFFFFFFFFFFFFFFFFF AND PUSH16 0xFFFFFFFFFFFFFFFFFFFFFFFFFFFFFFFF AND PUSH16 0xFFFFFFFFFFFFFFFFFFFFFFFFFFFFFFFF AND DUP2 MSTORE PUSH1 0x20 ADD SWAP1 DUP2 MSTORE PUSH1 0x20 ADD PUSH1 0x0 KECCAK256 DUP2 SWAP1 SSTORE POP PUSH1 0x0 JUMPDEST DUP3 MLOAD DUP2 PUSH2 0xFFFF AND LT ISZERO PUSH2 0x19B1 JUMPI DUP3 DUP2 PUSH2 0xFFFF AND DUP2 MLOAD DUP2 LT PUSH2 0x194C JUMPI PUSH2 0x194B PUSH2 0x3557 JUMP JUMPDEST JUMPDEST PUSH1 0x20 MUL PUSH1 0x20 ADD ADD MLOAD DUP6 PUSH1 0x3 ADD PUSH1 0x0 DUP7 DUP2 MSTORE PUSH1 0x20 ADD SWAP1 DUP2 MSTORE PUSH1 0x20 ADD PUSH1 0x0 KECCAK256 PUSH1 0x0 PUSH1 0x1 DUP5 PUSH2 0x1978 SWAP2 SWAP1 PUSH2 0x320C JUMP JUMPDEST PUSH2 0xFFFF AND DUP2 MSTORE PUSH1 0x20 ADD SWAP1 DUP2 MSTORE PUSH1 0x20 ADD PUSH1 0x0 KECCAK256 SWAP1 DUP1 MLOAD SWAP1 PUSH1 0x20 ADD SWAP1 PUSH2 0x199D SWAP3 SWAP2 SWAP1 PUSH2 0x1DB7 JUMP JUMPDEST POP DUP1 DUP1 PUSH2 0x19A9 SWAP1 PUSH2 0x3485 JUMP JUMPDEST SWAP2 POP POP PUSH2 0x1928 JUMP JUMPDEST POP PUSH1 0x1 DUP5 PUSH1 0x4 ADD PUSH1 0x0 DUP6 DUP2 MSTORE PUSH1 0x20 ADD SWAP1 DUP2 MSTORE PUSH1 0x20 ADD PUSH1 0x0 KECCAK256 PUSH1 0x0 PUSH2 0x100 EXP DUP2 SLOAD DUP2 PUSH1 0xFF MUL NOT AND SWAP1 DUP4 ISZERO ISZERO MUL OR SWAP1 SSTORE POP PUSH1 0x1 SWAP1 POP SWAP4 SWAP3 POP POP POP JUMP JUMPDEST PUSH1 0x0 DUP1 DUP3 PUSH1 0x0 ADD SLOAD EQ ISZERO PUSH2 0x1A34 JUMPI PUSH1 0x40 MLOAD PUSH32 0x8C379A000000000000000000000000000000000000000000000000000000000 DUP2 MSTORE PUSH1 0x4 ADD PUSH2 0x1A2B SWAP1 PUSH2 0x2DC8 JUMP JUMPDEST PUSH1 0x40 MLOAD DUP1 SWAP2 SUB SWAP1 REVERT JUMPDEST DUP2 PUSH1 0x1 ADD PUSH1 0x14 SWAP1 SLOAD SWAP1 PUSH2 0x100 EXP SWAP1 DIV PUSH1 0xFF AND ISZERO PUSH2 0x1A86 JUMPI PUSH1 0x40 MLOAD PUSH32 0x8C379A000000000000000000000000000000000000000000000000000000000 DUP2 MSTORE PUSH1 0x4 ADD PUSH2 0x1A7D SWAP1 PUSH2 0x2E24 JUMP JUMPDEST PUSH1 0x40 MLOAD DUP1 SWAP2 SUB SWAP1 REVERT JUMPDEST PUSH1 0x0 DUP3 PUSH1 0x2 ADD DUP2 SWAP1 SSTORE POP PUSH1 0x1 SWAP1 POP SWAP2 SWAP1 POP JUMP JUMPDEST PUSH2 0x1AA1 PUSH2 0x12CF JUMP JUMPDEST DUP1 PUSH20 0xFFFFFFFFFFFFFFFFFFFFFFFFFFFFFFFFFFFFFFFF AND PUSH1 0x4 PUSH1 0x0 SWAP1 SLOAD SWAP1 PUSH2 0x100 EXP SWAP1 DIV PUSH20 0xFFFFFFFFFFFFFFFFFFFFFFFFFFFFFFFFFFFFFFFF AND PUSH20 0xFFFFFFFFFFFFFFFFFFFFFFFFFFFFFFFFFFFFFFFF AND EQ PUSH2 0x1AFB JUMPI PUSH1 0x0 DUP1 REVERT JUMPDEST PUSH2 0x1B05 DUP4 DUP4 PUSH2 0x1C25 JUMP JUMPDEST POP POP POP JUMP JUMPDEST PUSH1 0x0 PUSH20 0xFFFFFFFFFFFFFFFFFFFFFFFFFFFFFFFFFFFFFFFF AND DUP3 PUSH20 0xFFFFFFFFFFFFFFFFFFFFFFFFFFFFFFFFFFFFFFFF AND EQ ISZERO PUSH2 0x1B7A JUMPI PUSH1 0x40 MLOAD PUSH32 0x8C379A000000000000000000000000000000000000000000000000000000000 DUP2 MSTORE PUSH1 0x4 ADD PUSH2 0x1B71 SWAP1 PUSH2 0x2E44 JUMP JUMPDEST PUSH1 0x40 MLOAD DUP1 SWAP2 SUB SWAP1 REVERT JUMPDEST DUP1 PUSH1 0x1 PUSH1 0x0 DUP3 DUP3 SLOAD PUSH2 0x1B8C SWAP2 SWAP1 PUSH2 0x3244 JUMP JUMPDEST SWAP3 POP POP DUP2 SWAP1 SSTORE POP DUP1 PUSH1 0x0 DUP1 DUP5 PUSH20 0xFFFFFFFFFFFFFFFFFFFFFFFFFFFFFFFFFFFFFFFF AND PUSH20 0xFFFFFFFFFFFFFFFFFFFFFFFFFFFFFFFFFFFFFFFF AND DUP2 MSTORE PUSH1 0x20 ADD SWAP1 DUP2 MSTORE PUSH1 0x20 ADD PUSH1 0x0 KECCAK256 PUSH1 0x0 DUP3 DUP3 SLOAD PUSH2 0x1BE1 SWAP2 SWAP1 PUSH2 0x3244 JUMP JUMPDEST SWAP3 POP POP DUP2 SWAP1 SSTORE POP PUSH32 0xABF5327BE9F5825C40D58BDA541DD07F09B62DF3376BBD5ECDBAA8BD82A9D492 DUP3 DUP3 PUSH1 0x40 MLOAD PUSH2 0x1C19 SWAP3 SWAP2 SWAP1 PUSH2 0x2D8C JUMP JUMPDEST PUSH1 0x40 MLOAD DUP1 SWAP2 SUB SWAP1 LOG1 POP POP JUMP JUMPDEST PUSH1 0x0 PUSH20 0xFFFFFFFFFFFFFFFFFFFFFFFFFFFFFFFFFFFFFFFF AND DUP3 PUSH20 0xFFFFFFFFFFFFFFFFFFFFFFFFFFFFFFFFFFFFFFFF AND EQ ISZERO PUSH2 0x1C95 JUMPI PUSH1 0x40 MLOAD PUSH32 0x8C379A000000000000000000000000000000000000000000000000000000000 DUP2 MSTORE PUSH1 0x4 ADD PUSH2 0x1C8C SWAP1 PUSH2 0x2D4C JUMP JUMPDEST PUSH1 0x40 MLOAD DUP1 SWAP2 SUB SWAP1 REVERT JUMPDEST PUSH1 0x0 DUP1 PUSH1 0x0 DUP5 PUSH20 0xFFFFFFFFFFFFFFFFFFFFFFFFFFFFFFFFFFFFFFFF AND PUSH20 0xFFFFFFFFFFFFFFFFFFFFFFFFFFFFFFFFFFFFFFFF AND DUP2 MSTORE PUSH1 0x20 ADD SWAP1 DUP2 MSTORE PUSH1 0x20 ADD PUSH1 0x0 KECCAK256 SLOAD SWAP1 POP DUP2 DUP2 LT ISZERO PUSH2 0x1D1B JUMPI PUSH1 0x40 MLOAD PUSH32 0x8C379A000000000000000000000000000000000000000000000000000000000 DUP2 MSTORE PUSH1 0x4 ADD PUSH2 0x1D12 SWAP1 PUSH2 0x2BCC JUMP JUMPDEST PUSH1 0x40 MLOAD DUP1 SWAP2 SUB SWAP1 REVERT JUMPDEST DUP2 DUP2 SUB PUSH1 0x0 DUP1 DUP6 PUSH20 0xFFFFFFFFFFFFFFFFFFFFFFFFFFFFFFFFFFFFFFFF AND PUSH20 0xFFFFFFFFFFFFFFFFFFFFFFFFFFFFFFFFFFFFFFFF AND DUP2 MSTORE PUSH1 0x20 ADD SWAP1 DUP2 MSTORE PUSH1 0x20 ADD PUSH1 0x0 KECCAK256 DUP2 SWAP1 SSTORE POP DUP2 PUSH1 0x1 PUSH1 0x0 DUP3 DUP3 SLOAD PUSH2 0x1D72 SWAP2 SWAP1 PUSH2 0x32F4 JUMP JUMPDEST SWAP3 POP POP DUP2 SWAP1 SSTORE POP PUSH32 0xABF5327BE9F5825C40D58BDA541DD07F09B62DF3376BBD5ECDBAA8BD82A9D492 DUP4 DUP4 PUSH1 0x40 MLOAD PUSH2 0x1DAA SWAP3 SWAP2 SWAP1 PUSH2 0x2DE8 JUMP JUMPDEST PUSH1 0x40 MLOAD DUP1 SWAP2 SUB SWAP1 LOG1 POP POP POP JUMP JUMPDEST DUP3 DUP1 SLOAD PUSH2 0x1DC3 SWAP1 PUSH2 0x33E9 JUMP JUMPDEST SWAP1 PUSH1 0x0 MSTORE PUSH1 0x20 PUSH1 0x0 KECCAK256 SWAP1 PUSH1 0x1F ADD PUSH1 0x20 SWAP1 DIV DUP2 ADD SWAP3 DUP3 PUSH2 0x1DE5 JUMPI PUSH1 0x0 DUP6 SSTORE PUSH2 0x1E2C JUMP JUMPDEST DUP3 PUSH1 0x1F LT PUSH2 0x1DFE JUMPI DUP1 MLOAD PUSH1 0xFF NOT AND DUP4 DUP1 ADD OR DUP6 SSTORE PUSH2 0x1E2C JUMP JUMPDEST DUP3 DUP1 ADD PUSH1 0x1 ADD DUP6 SSTORE DUP3 ISZERO PUSH2 0x1E2C JUMPI SWAP2 DUP3 ADD JUMPDEST DUP3 DUP2 GT ISZERO PUSH2 0x1E2B JUMPI DUP3 MLOAD DUP3 SSTORE SWAP2 PUSH1 0x20 ADD SWAP2 SWAP1 PUSH1 0x1 ADD SWAP1 PUSH2 0x1E10 JUMP JUMPDEST JUMPDEST POP SWAP1 POP PUSH2 0x1E39 SWAP2 SWAP1 PUSH2 0x1F50 JUMP JUMPDEST POP SWAP1 JUMP JUMPDEST DUP3 DUP1 SLOAD PUSH2 0x1E49 SWAP1 PUSH2 0x33E9 JUMP JUMPDEST SWAP1 PUSH1 0x0 MSTORE PUSH1 0x20 PUSH1 0x0 KECCAK256 SWAP1 PUSH1 0x1F ADD PUSH1 0x20 SWAP1 DIV DUP2 ADD SWAP3 DUP3 PUSH2 0x1E6B JUMPI PUSH1 0x0 DUP6 SSTORE PUSH2 0x1EB2 JUMP JUMPDEST DUP3 PUSH1 0x1F LT PUSH2 0x1E84 JUMPI DUP1 CALLDATALOAD PUSH1 0xFF NOT AND DUP4 DUP1 ADD OR DUP6 SSTORE PUSH2 0x1EB2 JUMP JUMPDEST DUP3 DUP1 ADD PUSH1 0x1 ADD DUP6 SSTORE DUP3 ISZERO PUSH2 0x1EB2 JUMPI SWAP2 DUP3 ADD JUMPDEST DUP3 DUP2 GT ISZERO PUSH2 0x1EB1 JUMPI DUP3 CALLDATALOAD DUP3 SSTORE SWAP2 PUSH1 0x20 ADD SWAP2 SWAP1 PUSH1 0x1 ADD SWAP1 PUSH2 0x1E96 JUMP JUMPDEST JUMPDEST POP SWAP1 POP PUSH2 0x1EBF SWAP2 SWAP1 PUSH2 0x1F50 JUMP JUMPDEST POP SWAP1 JUMP JUMPDEST DUP3 DUP1 SLOAD PUSH2 0x1ECF SWAP1 PUSH2 0x33E9 JUMP JUMPDEST SWAP1 PUSH1 0x0 MSTORE PUSH1 0x20 PUSH1 0x0 KECCAK256 SWAP1 PUSH1 0x1F ADD PUSH1 0x20 SWAP1 DIV DUP2 ADD SWAP3 DUP3 PUSH2 0x1EF1 JUMPI PUSH1 0x0 DUP6 SSTORE PUSH2 0x1F3F JUMP JUMPDEST DUP3 PUSH1 0x1F LT PUSH2 0x1F02 JUMPI DUP1 SLOAD DUP6 SSTORE PUSH2 0x1F3F JUMP JUMPDEST DUP3 DUP1 ADD PUSH1 0x1 ADD DUP6 SSTORE DUP3 ISZERO PUSH2 0x1F3F JUMPI PUSH1 0x0 MSTORE PUSH1 0x20 PUSH1 0x0 KECCAK256 SWAP2 PUSH1 0x1F ADD PUSH1 0x20 SWAP1 DIV DUP3 ADD JUMPDEST DUP3 DUP2 GT ISZERO PUSH2 0x1F3E JUMPI DUP3 SLOAD DUP3 SSTORE SWAP2 PUSH1 0x1 ADD SWAP2 SWAP1 PUSH1 0x1 ADD SWAP1 PUSH2 0x1F23 JUMP JUMPDEST JUMPDEST POP SWAP1 POP PUSH2 0x1F4C SWAP2 SWAP1 PUSH2 0x1F50 JUMP JUMPDEST POP SWAP1 JUMP JUMPDEST JUMPDEST DUP1 DUP3 GT ISZERO PUSH2 0x1F69 JUMPI PUSH1 0x0 DUP2 PUSH1 0x0 SWAP1 SSTORE POP PUSH1 0x1 ADD PUSH2 0x1F51 JUMP JUMPDEST POP SWAP1 JUMP JUMPDEST PUSH1 0x0 PUSH2 0x1F80 PUSH2 0x1F7B DUP5 PUSH2 0x3046 JUMP JUMPDEST PUSH2 0x3021 JUMP JUMPDEST SWAP1 POP DUP1 DUP4 DUP3 MSTORE PUSH1 0x20 DUP3 ADD SWAP1 POP DUP3 DUP6 PUSH1 0x20 DUP7 MUL DUP3 ADD GT ISZERO PUSH2 0x1FA3 JUMPI PUSH2 0x1FA2 PUSH2 0x35D3 JUMP JUMPDEST JUMPDEST PUSH1 0x0 JUMPDEST DUP6 DUP2 LT ISZERO PUSH2 0x1FD3 JUMPI DUP2 PUSH2 0x1FB9 DUP9 DUP3 PUSH2 0x211D JUMP JUMPDEST DUP5 MSTORE PUSH1 0x20 DUP5 ADD SWAP4 POP PUSH1 0x20 DUP4 ADD SWAP3 POP POP PUSH1 0x1 DUP2 ADD SWAP1 POP PUSH2 0x1FA6 JUMP JUMPDEST POP POP POP SWAP4 SWAP3 POP POP POP JUMP JUMPDEST PUSH1 0x0 PUSH2 0x1FF0 PUSH2 0x1FEB DUP5 PUSH2 0x3072 JUMP JUMPDEST PUSH2 0x3021 JUMP JUMPDEST SWAP1 POP DUP1 DUP4 DUP3 MSTORE PUSH1 0x20 DUP3 ADD SWAP1 POP DUP3 DUP6 PUSH1 0x20 DUP7 MUL DUP3 ADD GT ISZERO PUSH2 0x2013 JUMPI PUSH2 0x2012 PUSH2 0x35D3 JUMP JUMPDEST JUMPDEST PUSH1 0x0 JUMPDEST DUP6 DUP2 LT ISZERO PUSH2 0x2061 JUMPI DUP2 CALLDATALOAD PUSH8 0xFFFFFFFFFFFFFFFF DUP2 GT ISZERO PUSH2 0x2039 JUMPI PUSH2 0x2038 PUSH2 0x35BF JUMP JUMPDEST JUMPDEST DUP1 DUP7 ADD PUSH2 0x2046 DUP10 DUP3 PUSH2 0x2212 JUMP JUMPDEST DUP6 MSTORE PUSH1 0x20 DUP6 ADD SWAP5 POP PUSH1 0x20 DUP5 ADD SWAP4 POP POP POP PUSH1 0x1 DUP2 ADD SWAP1 POP PUSH2 0x2016 JUMP JUMPDEST POP POP POP SWAP4 SWAP3 POP POP POP JUMP JUMPDEST PUSH1 0x0 PUSH2 0x207E PUSH2 0x2079 DUP5 PUSH2 0x309E JUMP JUMPDEST PUSH2 0x3021 JUMP JUMPDEST SWAP1 POP DUP1 DUP4 DUP3 MSTORE PUSH1 0x20 DUP3 ADD SWAP1 POP DUP3 DUP6 PUSH1 0x20 DUP7 MUL DUP3 ADD GT ISZERO PUSH2 0x20A1 JUMPI PUSH2 0x20A0 PUSH2 0x35D3 JUMP JUMPDEST JUMPDEST PUSH1 0x0 JUMPDEST DUP6 DUP2 LT ISZERO PUSH2 0x20D1 JUMPI DUP2 PUSH2 0x20B7 DUP9 DUP3 PUSH2 0x2240 JUMP JUMPDEST DUP5 MSTORE PUSH1 0x20 DUP5 ADD SWAP4 POP PUSH1 0x20 DUP4 ADD SWAP3 POP POP PUSH1 0x1 DUP2 ADD SWAP1 POP PUSH2 0x20A4 JUMP JUMPDEST POP POP POP SWAP4 SWAP3 POP POP POP JUMP JUMPDEST PUSH1 0x0 PUSH2 0x20EE PUSH2 0x20E9 DUP5 PUSH2 0x30CA JUMP JUMPDEST PUSH2 0x3021 JUMP JUMPDEST SWAP1 POP DUP3 DUP2 MSTORE PUSH1 0x20 DUP2 ADD DUP5 DUP5 DUP5 ADD GT ISZERO PUSH2 0x210A JUMPI PUSH2 0x2109 PUSH2 0x35DD JUMP JUMPDEST JUMPDEST PUSH2 0x2115 DUP5 DUP3 DUP6 PUSH2 0x33A7 JUMP JUMPDEST POP SWAP4 SWAP3 POP POP POP JUMP JUMPDEST PUSH1 0x0 DUP2 CALLDATALOAD SWAP1 POP PUSH2 0x212C DUP2 PUSH2 0x3A8F JUMP JUMPDEST SWAP3 SWAP2 POP POP JUMP JUMPDEST PUSH1 0x0 DUP3 PUSH1 0x1F DUP4 ADD SLT PUSH2 0x2147 JUMPI PUSH2 0x2146 PUSH2 0x35BF JUMP JUMPDEST JUMPDEST DUP2 CALLDATALOAD PUSH2 0x2157 DUP5 DUP3 PUSH1 0x20 DUP7 ADD PUSH2 0x1F6D JUMP JUMPDEST SWAP2 POP POP SWAP3 SWAP2 POP POP JUMP JUMPDEST PUSH1 0x0 DUP1 DUP4 PUSH1 0x1F DUP5 ADD SLT PUSH2 0x2176 JUMPI PUSH2 0x2175 PUSH2 0x35BF JUMP JUMPDEST JUMPDEST DUP3 CALLDATALOAD SWAP1 POP PUSH8 0xFFFFFFFFFFFFFFFF DUP2 GT ISZERO PUSH2 0x2193 JUMPI PUSH2 0x2192 PUSH2 0x35BA JUMP JUMPDEST JUMPDEST PUSH1 0x20 DUP4 ADD SWAP2 POP DUP4 PUSH1 0x20 DUP3 MUL DUP4 ADD GT ISZERO PUSH2 0x21AF JUMPI PUSH2 0x21AE PUSH2 0x35D3 JUMP JUMPDEST JUMPDEST SWAP3 POP SWAP3 SWAP1 POP JUMP JUMPDEST PUSH1 0x0 DUP3 PUSH1 0x1F DUP4 ADD SLT PUSH2 0x21CB JUMPI PUSH2 0x21CA PUSH2 0x35BF JUMP JUMPDEST JUMPDEST DUP2 CALLDATALOAD PUSH2 0x21DB DUP5 DUP3 PUSH1 0x20 DUP7 ADD PUSH2 0x1FDD JUMP JUMPDEST SWAP2 POP POP SWAP3 SWAP2 POP POP JUMP JUMPDEST PUSH1 0x0 DUP3 PUSH1 0x1F DUP4 ADD SLT PUSH2 0x21F9 JUMPI PUSH2 0x21F8 PUSH2 0x35BF JUMP JUMPDEST JUMPDEST DUP2 CALLDATALOAD PUSH2 0x2209 DUP5 DUP3 PUSH1 0x20 DUP7 ADD PUSH2 0x206B JUMP JUMPDEST SWAP2 POP POP SWAP3 SWAP2 POP POP JUMP JUMPDEST PUSH1 0x0 DUP3 PUSH1 0x1F DUP4 ADD SLT PUSH2 0x2227 JUMPI PUSH2 0x2226 PUSH2 0x35BF JUMP JUMPDEST JUMPDEST DUP2 CALLDATALOAD PUSH2 0x2237 DUP5 DUP3 PUSH1 0x20 DUP7 ADD PUSH2 0x20DB JUMP JUMPDEST SWAP2 POP POP SWAP3 SWAP2 POP POP JUMP JUMPDEST PUSH1 0x0 DUP2 CALLDATALOAD SWAP1 POP PUSH2 0x224F DUP2 PUSH2 0x3AA6 JUMP JUMPDEST SWAP3 SWAP2 POP POP JUMP JUMPDEST PUSH1 0x0 DUP2 CALLDATALOAD SWAP1 POP PUSH2 0x2264 DUP2 PUSH2 0x3ABD JUMP JUMPDEST SWAP3 SWAP2 POP POP JUMP JUMPDEST PUSH1 0x0 PUSH1 0x20 DUP3 DUP5 SUB SLT ISZERO PUSH2 0x2280 JUMPI PUSH2 0x227F PUSH2 0x35EC JUMP JUMPDEST JUMPDEST PUSH1 0x0 PUSH2 0x228E DUP5 DUP3 DUP6 ADD PUSH2 0x211D JUMP JUMPDEST SWAP2 POP POP SWAP3 SWAP2 POP POP JUMP JUMPDEST PUSH1 0x0 DUP1 PUSH1 0x40 DUP4 DUP6 SUB SLT ISZERO PUSH2 0x22AE JUMPI PUSH2 0x22AD PUSH2 0x35EC JUMP JUMPDEST JUMPDEST PUSH1 0x0 PUSH2 0x22BC DUP6 DUP3 DUP7 ADD PUSH2 0x211D JUMP JUMPDEST SWAP3 POP POP PUSH1 0x20 PUSH2 0x22CD DUP6 DUP3 DUP7 ADD PUSH2 0x2240 JUMP JUMPDEST SWAP2 POP POP SWAP3 POP SWAP3 SWAP1 POP JUMP JUMPDEST PUSH1 0x0 PUSH1 0x20 DUP3 DUP5 SUB SLT ISZERO PUSH2 0x22ED JUMPI PUSH2 0x22EC PUSH2 0x35EC JUMP JUMPDEST JUMPDEST PUSH1 0x0 PUSH2 0x22FB DUP5 DUP3 DUP6 ADD PUSH2 0x2240 JUMP JUMPDEST SWAP2 POP POP SWAP3 SWAP2 POP POP JUMP JUMPDEST PUSH1 0x0 DUP1 PUSH1 0x0 DUP1 PUSH1 0x80 DUP6 DUP8 SUB SLT ISZERO PUSH2 0x231E JUMPI PUSH2 0x231D PUSH2 0x35EC JUMP JUMPDEST JUMPDEST PUSH1 0x0 PUSH2 0x232C DUP8 DUP3 DUP9 ADD PUSH2 0x2240 JUMP JUMPDEST SWAP5 POP POP PUSH1 0x20 PUSH2 0x233D DUP8 DUP3 DUP9 ADD PUSH2 0x211D JUMP JUMPDEST SWAP4 POP POP PUSH1 0x40 DUP6 ADD CALLDATALOAD PUSH8 0xFFFFFFFFFFFFFFFF DUP2 GT ISZERO PUSH2 0x235E JUMPI PUSH2 0x235D PUSH2 0x35E2 JUMP JUMPDEST JUMPDEST PUSH2 0x236A DUP8 DUP3 DUP9 ADD PUSH2 0x21B6 JUMP JUMPDEST SWAP3 POP POP PUSH1 0x60 DUP6 ADD CALLDATALOAD PUSH8 0xFFFFFFFFFFFFFFFF DUP2 GT ISZERO PUSH2 0x238B JUMPI PUSH2 0x238A PUSH2 0x35E2 JUMP JUMPDEST JUMPDEST PUSH2 0x2397 DUP8 DUP3 DUP9 ADD PUSH2 0x21E4 JUMP JUMPDEST SWAP2 POP POP SWAP3 SWAP6 SWAP2 SWAP5 POP SWAP3 POP JUMP JUMPDEST PUSH1 0x0 DUP1 PUSH1 0x40 DUP4 DUP6 SUB SLT ISZERO PUSH2 0x23BA JUMPI PUSH2 0x23B9 PUSH2 0x35EC JUMP JUMPDEST JUMPDEST PUSH1 0x0 PUSH2 0x23C8 DUP6 DUP3 DUP7 ADD PUSH2 0x2240 JUMP JUMPDEST SWAP3 POP POP PUSH1 0x20 DUP4 ADD CALLDATALOAD PUSH8 0xFFFFFFFFFFFFFFFF DUP2 GT ISZERO PUSH2 0x23E9 JUMPI PUSH2 0x23E8 PUSH2 0x35E2 JUMP JUMPDEST JUMPDEST PUSH2 0x23F5 DUP6 DUP3 DUP7 ADD PUSH2 0x2132 JUMP JUMPDEST SWAP2 POP POP SWAP3 POP SWAP3 SWAP1 POP JUMP JUMPDEST PUSH1 0x0 DUP1 PUSH1 0x0 DUP1 PUSH1 0x0 DUP1 PUSH1 0x0 DUP1 PUSH1 0x0 PUSH2 0x100 DUP11 DUP13 SUB SLT ISZERO PUSH2 0x2422 JUMPI PUSH2 0x2421 PUSH2 0x35EC JUMP JUMPDEST JUMPDEST PUSH1 0x0 PUSH2 0x2430 DUP13 DUP3 DUP14 ADD PUSH2 0x2255 JUMP JUMPDEST SWAP10 POP POP PUSH1 0x20 DUP11 ADD CALLDATALOAD PUSH8 0xFFFFFFFFFFFFFFFF DUP2 GT ISZERO PUSH2 0x2451 JUMPI PUSH2 0x2450 PUSH2 0x35E2 JUMP JUMPDEST JUMPDEST PUSH2 0x245D DUP13 DUP3 DUP14 ADD PUSH2 0x2132 JUMP JUMPDEST SWAP9 POP POP PUSH1 0x40 PUSH2 0x246E DUP13 DUP3 DUP14 ADD PUSH2 0x211D JUMP JUMPDEST SWAP8 POP POP PUSH1 0x60 PUSH2 0x247F DUP13 DUP3 DUP14 ADD PUSH2 0x2240 JUMP JUMPDEST SWAP7 POP POP PUSH1 0x80 PUSH2 0x2490 DUP13 DUP3 DUP14 ADD PUSH2 0x2240 JUMP JUMPDEST SWAP6 POP POP PUSH1 0xA0 DUP11 ADD CALLDATALOAD PUSH8 0xFFFFFFFFFFFFFFFF DUP2 GT ISZERO PUSH2 0x24B1 JUMPI PUSH2 0x24B0 PUSH2 0x35E2 JUMP JUMPDEST JUMPDEST PUSH2 0x24BD DUP13 DUP3 DUP14 ADD PUSH2 0x2212 JUMP JUMPDEST SWAP5 POP POP PUSH1 0xC0 DUP11 ADD CALLDATALOAD PUSH8 0xFFFFFFFFFFFFFFFF DUP2 GT ISZERO PUSH2 0x24DE JUMPI PUSH2 0x24DD PUSH2 0x35E2 JUMP JUMPDEST JUMPDEST PUSH2 0x24EA DUP13 DUP3 DUP14 ADD PUSH2 0x2160 JUMP JUMPDEST SWAP4 POP SWAP4 POP POP PUSH1 0xE0 PUSH2 0x24FD DUP13 DUP3 DUP14 ADD PUSH2 0x2240 JUMP JUMPDEST SWAP2 POP POP SWAP3 SWAP6 SWAP9 POP SWAP3 SWAP6 SWAP9 POP SWAP3 SWAP6 SWAP9 JUMP JUMPDEST PUSH1 0x0 PUSH2 0x2519 DUP4 DUP4 PUSH2 0x253B JUMP JUMPDEST PUSH1 0x20 DUP4 ADD SWAP1 POP SWAP3 SWAP2 POP POP JUMP JUMPDEST PUSH1 0x0 PUSH2 0x2532 DUP5 DUP5 DUP5 PUSH2 0x263C JUMP JUMPDEST SWAP1 POP SWAP4 SWAP3 POP POP POP JUMP JUMPDEST PUSH2 0x2544 DUP2 PUSH2 0x3328 JUMP JUMPDEST DUP3 MSTORE POP POP JUMP JUMPDEST PUSH2 0x2553 DUP2 PUSH2 0x3328 JUMP JUMPDEST DUP3 MSTORE POP POP JUMP JUMPDEST PUSH1 0x0 PUSH2 0x2564 DUP3 PUSH2 0x312A JUMP JUMPDEST PUSH2 0x256E DUP2 DUP6 PUSH2 0x315A JUMP JUMPDEST SWAP4 POP PUSH2 0x2579 DUP4 PUSH2 0x30FB JUMP JUMPDEST DUP1 PUSH1 0x0 JUMPDEST DUP4 DUP2 LT ISZERO PUSH2 0x25AA JUMPI DUP2 MLOAD PUSH2 0x2591 DUP9 DUP3 PUSH2 0x250D JUMP JUMPDEST SWAP8 POP PUSH2 0x259C DUP4 PUSH2 0x3140 JUMP JUMPDEST SWAP3 POP POP PUSH1 0x1 DUP2 ADD SWAP1 POP PUSH2 0x257D JUMP JUMPDEST POP DUP6 SWAP4 POP POP POP POP SWAP3 SWAP2 POP POP JUMP JUMPDEST PUSH1 0x0 PUSH2 0x25C3 DUP4 DUP6 PUSH2 0x316B JUMP JUMPDEST SWAP4 POP DUP4 PUSH1 0x20 DUP5 MUL DUP6 ADD PUSH2 0x25D5 DUP5 PUSH2 0x310B JUMP JUMPDEST DUP1 PUSH1 0x0 JUMPDEST DUP8 DUP2 LT ISZERO PUSH2 0x261B JUMPI DUP5 DUP5 SUB DUP10 MSTORE PUSH2 0x25F0 DUP3 DUP5 PUSH2 0x31A9 JUMP JUMPDEST PUSH2 0x25FB DUP7 DUP3 DUP5 PUSH2 0x2525 JUMP JUMPDEST SWAP6 POP PUSH2 0x2606 DUP5 PUSH2 0x314D JUMP JUMPDEST SWAP4 POP PUSH1 0x20 DUP12 ADD SWAP11 POP POP POP PUSH1 0x1 DUP2 ADD SWAP1 POP PUSH2 0x25D9 JUMP JUMPDEST POP DUP3 SWAP8 POP DUP8 SWAP5 POP POP POP POP POP SWAP4 SWAP3 POP POP POP JUMP JUMPDEST PUSH2 0x2636 DUP2 PUSH2 0x333A JUMP JUMPDEST DUP3 MSTORE POP POP JUMP JUMPDEST PUSH1 0x0 PUSH2 0x2648 DUP4 DUP6 PUSH2 0x317C JUMP JUMPDEST SWAP4 POP PUSH2 0x2655 DUP4 DUP6 DUP5 PUSH2 0x33A7 JUMP JUMPDEST PUSH2 0x265E DUP4 PUSH2 0x35F1 JUMP JUMPDEST DUP5 ADD SWAP1 POP SWAP4 SWAP3 POP POP POP JUMP JUMPDEST PUSH1 0x0 PUSH2 0x2675 DUP4 DUP6 PUSH2 0x319E JUMP JUMPDEST SWAP4 POP PUSH2 0x2682 DUP4 DUP6 DUP5 PUSH2 0x33A7 JUMP JUMPDEST DUP3 DUP5 ADD SWAP1 POP SWAP4 SWAP3 POP POP POP JUMP JUMPDEST PUSH1 0x0 PUSH2 0x2699 DUP3 PUSH2 0x3135 JUMP JUMPDEST PUSH2 0x26A3 DUP2 DUP6 PUSH2 0x318D JUMP JUMPDEST SWAP4 POP PUSH2 0x26B3 DUP2 DUP6 PUSH1 0x20 DUP7 ADD PUSH2 0x33B6 JUMP JUMPDEST PUSH2 0x26BC DUP2 PUSH2 0x35F1 JUMP JUMPDEST DUP5 ADD SWAP2 POP POP SWAP3 SWAP2 POP POP JUMP JUMPDEST PUSH1 0x0 PUSH2 0x26D2 DUP3 PUSH2 0x3135 JUMP JUMPDEST PUSH2 0x26DC DUP2 DUP6 PUSH2 0x319E JUMP JUMPDEST SWAP4 POP PUSH2 0x26EC DUP2 DUP6 PUSH1 0x20 DUP7 ADD PUSH2 0x33B6 JUMP JUMPDEST DUP1 DUP5 ADD SWAP2 POP POP SWAP3 SWAP2 POP POP JUMP JUMPDEST PUSH1 0x0 DUP2 SLOAD PUSH2 0x2705 DUP2 PUSH2 0x33E9 JUMP JUMPDEST PUSH2 0x270F DUP2 DUP7 PUSH2 0x319E JUMP JUMPDEST SWAP5 POP PUSH1 0x1 DUP3 AND PUSH1 0x0 DUP2 EQ PUSH2 0x272A JUMPI PUSH1 0x1 DUP2 EQ PUSH2 0x273B JUMPI PUSH2 0x276E JUMP JUMPDEST PUSH1 0xFF NOT DUP4 AND DUP7 MSTORE DUP2 DUP7 ADD SWAP4 POP PUSH2 0x276E JUMP JUMPDEST PUSH2 0x2744 DUP6 PUSH2 0x3115 JUMP JUMPDEST PUSH1 0x0 JUMPDEST DUP4 DUP2 LT ISZERO PUSH2 0x2766 JUMPI DUP2 SLOAD DUP2 DUP10 ADD MSTORE PUSH1 0x1 DUP3 ADD SWAP2 POP PUSH1 0x20 DUP2 ADD SWAP1 POP PUSH2 0x2747 JUMP JUMPDEST DUP4 DUP9 ADD SWAP6 POP POP POP JUMPDEST POP POP POP SWAP3 SWAP2 POP POP JUMP JUMPDEST PUSH1 0x0 PUSH2 0x2784 PUSH1 0x12 DUP4 PUSH2 0x318D JUMP JUMPDEST SWAP2 POP PUSH2 0x278F DUP3 PUSH2 0x3602 JUMP JUMPDEST PUSH1 0x20 DUP3 ADD SWAP1 POP SWAP2 SWAP1 POP JUMP JUMPDEST PUSH1 0x0 PUSH2 0x27A7 PUSH1 0x2C DUP4 PUSH2 0x318D JUMP JUMPDEST SWAP2 POP PUSH2 0x27B2 DUP3 PUSH2 0x362B JUMP JUMPDEST PUSH1 0x40 DUP3 ADD SWAP1 POP SWAP2 SWAP1 POP JUMP JUMPDEST PUSH1 0x0 PUSH2 0x27CA PUSH1 0x22 DUP4 PUSH2 0x318D JUMP JUMPDEST SWAP2 POP PUSH2 0x27D5 DUP3 PUSH2 0x367A JUMP JUMPDEST PUSH1 0x40 DUP3 ADD SWAP1 POP SWAP2 SWAP1 POP JUMP JUMPDEST PUSH1 0x0 PUSH2 0x27ED PUSH1 0x1D DUP4 PUSH2 0x318D JUMP JUMPDEST SWAP2 POP PUSH2 0x27F8 DUP3 PUSH2 0x36C9 JUMP JUMPDEST PUSH1 0x20 DUP3 ADD SWAP1 POP SWAP2 SWAP1 POP JUMP JUMPDEST PUSH1 0x0 PUSH2 0x2810 PUSH1 0xD DUP4 PUSH2 0x318D JUMP JUMPDEST SWAP2 POP PUSH2 0x281B DUP3 PUSH2 0x36F2 JUMP JUMPDEST PUSH1 0x20 DUP3 ADD SWAP1 POP SWAP2 SWAP1 POP JUMP JUMPDEST PUSH1 0x0 PUSH2 0x2833 PUSH1 0x1B DUP4 PUSH2 0x318D JUMP JUMPDEST SWAP2 POP PUSH2 0x283E DUP3 PUSH2 0x371B JUMP JUMPDEST PUSH1 0x20 DUP3 ADD SWAP1 POP SWAP2 SWAP1 POP JUMP JUMPDEST PUSH1 0x0 PUSH2 0x2856 PUSH1 0x14 DUP4 PUSH2 0x318D JUMP JUMPDEST SWAP2 POP PUSH2 0x2861 DUP3 PUSH2 0x3744 JUMP JUMPDEST PUSH1 0x20 DUP3 ADD SWAP1 POP SWAP2 SWAP1 POP JUMP JUMPDEST PUSH1 0x0 PUSH2 0x2879 PUSH1 0x23 DUP4 PUSH2 0x318D JUMP JUMPDEST SWAP2 POP PUSH2 0x2884 DUP3 PUSH2 0x376D JUMP JUMPDEST PUSH1 0x40 DUP3 ADD SWAP1 POP SWAP2 SWAP1 POP JUMP JUMPDEST PUSH1 0x0 PUSH2 0x289C PUSH1 0x18 DUP4 PUSH2 0x318D JUMP JUMPDEST SWAP2 POP PUSH2 0x28A7 DUP3 PUSH2 0x37BC JUMP JUMPDEST PUSH1 0x20 DUP3 ADD SWAP1 POP SWAP2 SWAP1 POP JUMP JUMPDEST PUSH1 0x0 PUSH2 0x28BF PUSH1 0x14 DUP4 PUSH2 0x318D JUMP JUMPDEST SWAP2 POP PUSH2 0x28CA DUP3 PUSH2 0x37E5 JUMP JUMPDEST PUSH1 0x20 DUP3 ADD SWAP1 POP SWAP2 SWAP1 POP JUMP JUMPDEST PUSH1 0x0 PUSH2 0x28E2 PUSH1 0x23 DUP4 PUSH2 0x318D JUMP JUMPDEST SWAP2 POP PUSH2 0x28ED DUP3 PUSH2 0x380E JUMP JUMPDEST PUSH1 0x40 DUP3 ADD SWAP1 POP SWAP2 SWAP1 POP JUMP JUMPDEST PUSH1 0x0 PUSH2 0x2905 PUSH1 0x12 DUP4 PUSH2 0x318D JUMP JUMPDEST SWAP2 POP PUSH2 0x2910 DUP3 PUSH2 0x385D JUMP JUMPDEST PUSH1 0x20 DUP3 ADD SWAP1 POP SWAP2 SWAP1 POP JUMP JUMPDEST PUSH1 0x0 PUSH2 0x2928 PUSH1 0x23 DUP4 PUSH2 0x318D JUMP JUMPDEST SWAP2 POP PUSH2 0x2933 DUP3 PUSH2 0x3886 JUMP JUMPDEST PUSH1 0x40 DUP3 ADD SWAP1 POP SWAP2 SWAP1 POP JUMP JUMPDEST PUSH1 0x0 PUSH2 0x294B PUSH1 0x2A DUP4 PUSH2 0x318D JUMP JUMPDEST SWAP2 POP PUSH2 0x2956 DUP3 PUSH2 0x38D5 JUMP JUMPDEST PUSH1 0x40 DUP3 ADD SWAP1 POP SWAP2 SWAP1 POP JUMP JUMPDEST PUSH1 0x0 PUSH2 0x296E PUSH1 0x21 DUP4 PUSH2 0x318D JUMP JUMPDEST SWAP2 POP PUSH2 0x2979 DUP3 PUSH2 0x3924 JUMP JUMPDEST PUSH1 0x40 DUP3 ADD SWAP1 POP SWAP2 SWAP1 POP JUMP JUMPDEST PUSH1 0x0 PUSH2 0x2991 PUSH1 0x24 DUP4 PUSH2 0x318D JUMP JUMPDEST SWAP2 POP PUSH2 0x299C DUP3 PUSH2 0x3973 JUMP JUMPDEST PUSH1 0x40 DUP3 ADD SWAP1 POP SWAP2 SWAP1 POP JUMP JUMPDEST PUSH1 0x0 PUSH2 0x29B4 PUSH1 0x4 DUP4 PUSH2 0x318D JUMP JUMPDEST SWAP2 POP PUSH2 0x29BF DUP3 PUSH2 0x39C2 JUMP JUMPDEST PUSH1 0x20 DUP3 ADD SWAP1 POP SWAP2 SWAP1 POP JUMP JUMPDEST PUSH1 0x0 PUSH2 0x29D7 PUSH1 0x1D DUP4 PUSH2 0x318D JUMP JUMPDEST SWAP2 POP PUSH2 0x29E2 DUP3 PUSH2 0x39EB JUMP JUMPDEST PUSH1 0x20 DUP3 ADD SWAP1 POP SWAP2 SWAP1 POP JUMP JUMPDEST PUSH1 0x0 PUSH2 0x29FA PUSH1 0x4 DUP4 PUSH2 0x318D JUMP JUMPDEST SWAP2 POP PUSH2 0x2A05 DUP3 PUSH2 0x3A14 JUMP JUMPDEST PUSH1 0x20 DUP3 ADD SWAP1 POP SWAP2 SWAP1 POP JUMP JUMPDEST PUSH1 0x0 PUSH2 0x2A1D PUSH1 0x9 DUP4 PUSH2 0x318D JUMP JUMPDEST SWAP2 POP PUSH2 0x2A28 DUP3 PUSH2 0x3A3D JUMP JUMPDEST PUSH1 0x20 DUP3 ADD SWAP1 POP SWAP2 SWAP1 POP JUMP JUMPDEST PUSH1 0x0 PUSH2 0x2A40 PUSH1 0x1F DUP4 PUSH2 0x318D JUMP JUMPDEST SWAP2 POP PUSH2 0x2A4B DUP3 PUSH2 0x3A66 JUMP JUMPDEST PUSH1 0x20 DUP3 ADD SWAP1 POP SWAP2 SWAP1 POP JUMP JUMPDEST PUSH2 0x2A5F DUP2 PUSH2 0x3346 JUMP JUMPDEST DUP3 MSTORE POP POP JUMP JUMPDEST PUSH2 0x2A6E DUP2 PUSH2 0x3362 JUMP JUMPDEST DUP3 MSTORE POP POP JUMP JUMPDEST PUSH2 0x2A7D DUP2 PUSH2 0x3390 JUMP JUMPDEST DUP3 MSTORE POP POP JUMP JUMPDEST PUSH2 0x2A8C DUP2 PUSH2 0x339A JUMP JUMPDEST DUP3 MSTORE POP POP JUMP JUMPDEST PUSH1 0x0 PUSH2 0x2A9F DUP3 DUP5 DUP7 PUSH2 0x2669 JUMP JUMPDEST SWAP2 POP DUP2 SWAP1 POP SWAP4 SWAP3 POP POP POP JUMP JUMPDEST PUSH1 0x0 PUSH2 0x2AB7 DUP3 DUP5 PUSH2 0x26C7 JUMP JUMPDEST SWAP2 POP DUP2 SWAP1 POP SWAP3 SWAP2 POP POP JUMP JUMPDEST PUSH1 0x0 PUSH2 0x2ACE DUP3 DUP5 PUSH2 0x26F8 JUMP JUMPDEST SWAP2 POP DUP2 SWAP1 POP SWAP3 SWAP2 POP POP JUMP JUMPDEST PUSH1 0x0 PUSH1 0xE0 DUP3 ADD SWAP1 POP PUSH2 0x2AEE PUSH1 0x0 DUP4 ADD DUP11 PUSH2 0x254A JUMP JUMPDEST PUSH2 0x2AFB PUSH1 0x20 DUP4 ADD DUP10 PUSH2 0x2A83 JUMP JUMPDEST DUP2 DUP2 SUB PUSH1 0x40 DUP4 ADD MSTORE PUSH2 0x2B0D DUP2 DUP9 PUSH2 0x268E JUMP JUMPDEST SWAP1 POP PUSH2 0x2B1C PUSH1 0x60 DUP4 ADD DUP8 PUSH2 0x2A74 JUMP JUMPDEST PUSH2 0x2B29 PUSH1 0x80 DUP4 ADD DUP7 PUSH2 0x2A74 JUMP JUMPDEST PUSH2 0x2B36 PUSH1 0xA0 DUP4 ADD DUP6 PUSH2 0x2A65 JUMP JUMPDEST PUSH2 0x2B43 PUSH1 0xC0 DUP4 ADD DUP5 PUSH2 0x2A74 JUMP JUMPDEST SWAP9 SWAP8 POP POP POP POP POP POP POP POP JUMP JUMPDEST PUSH1 0x0 PUSH1 0x20 DUP3 ADD SWAP1 POP PUSH2 0x2B64 PUSH1 0x0 DUP4 ADD DUP5 PUSH2 0x262D JUMP JUMPDEST SWAP3 SWAP2 POP POP JUMP JUMPDEST PUSH1 0x0 PUSH1 0x20 DUP3 ADD SWAP1 POP DUP2 DUP2 SUB PUSH1 0x0 DUP4 ADD MSTORE PUSH2 0x2B84 DUP2 DUP5 PUSH2 0x268E JUMP JUMPDEST SWAP1 POP SWAP3 SWAP2 POP POP JUMP JUMPDEST PUSH1 0x0 PUSH1 0x20 DUP3 ADD SWAP1 POP DUP2 DUP2 SUB PUSH1 0x0 DUP4 ADD MSTORE PUSH2 0x2BA5 DUP2 PUSH2 0x2777 JUMP JUMPDEST SWAP1 POP SWAP2 SWAP1 POP JUMP JUMPDEST PUSH1 0x0 PUSH1 0x20 DUP3 ADD SWAP1 POP DUP2 DUP2 SUB PUSH1 0x0 DUP4 ADD MSTORE PUSH2 0x2BC5 DUP2 PUSH2 0x279A JUMP JUMPDEST SWAP1 POP SWAP2 SWAP1 POP JUMP JUMPDEST PUSH1 0x0 PUSH1 0x20 DUP3 ADD SWAP1 POP DUP2 DUP2 SUB PUSH1 0x0 DUP4 ADD MSTORE PUSH2 0x2BE5 DUP2 PUSH2 0x27BD JUMP JUMPDEST SWAP1 POP SWAP2 SWAP1 POP JUMP JUMPDEST PUSH1 0x0 PUSH1 0x20 DUP3 ADD SWAP1 POP DUP2 DUP2 SUB PUSH1 0x0 DUP4 ADD MSTORE PUSH2 0x2C05 DUP2 PUSH2 0x27E0 JUMP JUMPDEST SWAP1 POP SWAP2 SWAP1 POP JUMP JUMPDEST PUSH1 0x0 PUSH1 0x20 DUP3 ADD SWAP1 POP DUP2 DUP2 SUB PUSH1 0x0 DUP4 ADD MSTORE PUSH2 0x2C25 DUP2 PUSH2 0x2803 JUMP JUMPDEST SWAP1 POP SWAP2 SWAP1 POP JUMP JUMPDEST PUSH1 0x0 PUSH1 0x20 DUP3 ADD SWAP1 POP DUP2 DUP2 SUB PUSH1 0x0 DUP4 ADD MSTORE PUSH2 0x2C45 DUP2 PUSH2 0x2826 JUMP JUMPDEST SWAP1 POP SWAP2 SWAP1 POP JUMP JUMPDEST PUSH1 0x0 PUSH1 0x20 DUP3 ADD SWAP1 POP DUP2 DUP2 SUB PUSH1 0x0 DUP4 ADD MSTORE PUSH2 0x2C65 DUP2 PUSH2 0x2849 JUMP JUMPDEST SWAP1 POP SWAP2 SWAP1 POP JUMP JUMPDEST PUSH1 0x0 PUSH1 0x20 DUP3 ADD SWAP1 POP DUP2 DUP2 SUB PUSH1 0x0 DUP4 ADD MSTORE PUSH2 0x2C85 DUP2 PUSH2 0x286C JUMP JUMPDEST SWAP1 POP SWAP2 SWAP1 POP JUMP JUMPDEST PUSH1 0x0 PUSH1 0x20 DUP3 ADD SWAP1 POP DUP2 DUP2 SUB PUSH1 0x0 DUP4 ADD MSTORE PUSH2 0x2CA5 DUP2 PUSH2 0x288F JUMP JUMPDEST SWAP1 POP SWAP2 SWAP1 POP JUMP JUMPDEST PUSH1 0x0 PUSH1 0x20 DUP3 ADD SWAP1 POP DUP2 DUP2 SUB PUSH1 0x0 DUP4 ADD MSTORE PUSH2 0x2CC5 DUP2 PUSH2 0x28B2 JUMP JUMPDEST SWAP1 POP SWAP2 SWAP1 POP JUMP JUMPDEST PUSH1 0x0 PUSH1 0x20 DUP3 ADD SWAP1 POP DUP2 DUP2 SUB PUSH1 0x0 DUP4 ADD MSTORE PUSH2 0x2CE5 DUP2 PUSH2 0x28D5 JUMP JUMPDEST SWAP1 POP SWAP2 SWAP1 POP JUMP JUMPDEST PUSH1 0x0 PUSH1 0x20 DUP3 ADD SWAP1 POP DUP2 DUP2 SUB PUSH1 0x0 DUP4 ADD MSTORE PUSH2 0x2D05 DUP2 PUSH2 0x28F8 JUMP JUMPDEST SWAP1 POP SWAP2 SWAP1 POP JUMP JUMPDEST PUSH1 0x0 PUSH1 0x20 DUP3 ADD SWAP1 POP DUP2 DUP2 SUB PUSH1 0x0 DUP4 ADD MSTORE PUSH2 0x2D25 DUP2 PUSH2 0x291B JUMP JUMPDEST SWAP1 POP SWAP2 SWAP1 POP JUMP JUMPDEST PUSH1 0x0 PUSH1 0x20 DUP3 ADD SWAP1 POP DUP2 DUP2 SUB PUSH1 0x0 DUP4 ADD MSTORE PUSH2 0x2D45 DUP2 PUSH2 0x293E JUMP JUMPDEST SWAP1 POP SWAP2 SWAP1 POP JUMP JUMPDEST PUSH1 0x0 PUSH1 0x20 DUP3 ADD SWAP1 POP DUP2 DUP2 SUB PUSH1 0x0 DUP4 ADD MSTORE PUSH2 0x2D65 DUP2 PUSH2 0x2961 JUMP JUMPDEST SWAP1 POP SWAP2 SWAP1 POP JUMP JUMPDEST PUSH1 0x0 PUSH1 0x20 DUP3 ADD SWAP1 POP DUP2 DUP2 SUB PUSH1 0x0 DUP4 ADD MSTORE PUSH2 0x2D85 DUP2 PUSH2 0x2984 JUMP JUMPDEST SWAP1 POP SWAP2 SWAP1 POP JUMP JUMPDEST PUSH1 0x0 PUSH1 0x60 DUP3 ADD SWAP1 POP DUP2 DUP2 SUB PUSH1 0x0 DUP4 ADD MSTORE PUSH2 0x2DA5 DUP2 PUSH2 0x29A7 JUMP JUMPDEST SWAP1 POP PUSH2 0x2DB4 PUSH1 0x20 DUP4 ADD DUP6 PUSH2 0x254A JUMP JUMPDEST PUSH2 0x2DC1 PUSH1 0x40 DUP4 ADD DUP5 PUSH2 0x2A74 JUMP JUMPDEST SWAP4 SWAP3 POP POP POP JUMP JUMPDEST PUSH1 0x0 PUSH1 0x20 DUP3 ADD SWAP1 POP DUP2 DUP2 SUB PUSH1 0x0 DUP4 ADD MSTORE PUSH2 0x2DE1 DUP2 PUSH2 0x29CA JUMP JUMPDEST SWAP1 POP SWAP2 SWAP1 POP JUMP JUMPDEST PUSH1 0x0 PUSH1 0x60 DUP3 ADD SWAP1 POP DUP2 DUP2 SUB PUSH1 0x0 DUP4 ADD MSTORE PUSH2 0x2E01 DUP2 PUSH2 0x29ED JUMP JUMPDEST SWAP1 POP PUSH2 0x2E10 PUSH1 0x20 DUP4 ADD DUP6 PUSH2 0x254A JUMP JUMPDEST PUSH2 0x2E1D PUSH1 0x40 DUP4 ADD DUP5 PUSH2 0x2A74 JUMP JUMPDEST SWAP4 SWAP3 POP POP POP JUMP JUMPDEST PUSH1 0x0 PUSH1 0x20 DUP3 ADD SWAP1 POP DUP2 DUP2 SUB PUSH1 0x0 DUP4 ADD MSTORE PUSH2 0x2E3D DUP2 PUSH2 0x2A10 JUMP JUMPDEST SWAP1 POP SWAP2 SWAP1 POP JUMP JUMPDEST PUSH1 0x0 PUSH1 0x20 DUP3 ADD SWAP1 POP DUP2 DUP2 SUB PUSH1 0x0 DUP4 ADD MSTORE PUSH2 0x2E5D DUP2 PUSH2 0x2A33 JUMP JUMPDEST SWAP1 POP SWAP2 SWAP1 POP JUMP JUMPDEST PUSH1 0x0 PUSH1 0x40 DUP3 ADD SWAP1 POP PUSH2 0x2E79 PUSH1 0x0 DUP4 ADD DUP6 PUSH2 0x2A56 JUMP JUMPDEST PUSH2 0x2E86 PUSH1 0x20 DUP4 ADD DUP5 PUSH2 0x2A56 JUMP JUMPDEST SWAP4 SWAP3 POP POP POP JUMP JUMPDEST PUSH1 0x0 PUSH1 0x20 DUP3 ADD SWAP1 POP PUSH2 0x2EA2 PUSH1 0x0 DUP4 ADD DUP5 PUSH2 0x2A74 JUMP JUMPDEST SWAP3 SWAP2 POP POP JUMP JUMPDEST PUSH1 0x0 PUSH1 0x80 DUP3 ADD SWAP1 POP PUSH2 0x2EBD PUSH1 0x0 DUP4 ADD DUP8 PUSH2 0x2A74 JUMP JUMPDEST PUSH2 0x2ECA PUSH1 0x20 DUP4 ADD DUP7 PUSH2 0x254A JUMP JUMPDEST PUSH2 0x2ED7 PUSH1 0x40 DUP4 ADD DUP6 PUSH2 0x262D JUMP JUMPDEST PUSH2 0x2EE4 PUSH1 0x60 DUP4 ADD DUP5 PUSH2 0x2A74 JUMP JUMPDEST SWAP6 SWAP5 POP POP POP POP POP JUMP JUMPDEST PUSH1 0x0 PUSH1 0xE0 DUP3 ADD SWAP1 POP PUSH2 0x2F02 PUSH1 0x0 DUP4 ADD DUP12 PUSH2 0x2A74 JUMP JUMPDEST DUP2 DUP2 SUB PUSH1 0x20 DUP4 ADD MSTORE PUSH2 0x2F14 DUP2 DUP11 PUSH2 0x2559 JUMP JUMPDEST SWAP1 POP PUSH2 0x2F23 PUSH1 0x40 DUP4 ADD DUP10 PUSH2 0x254A JUMP JUMPDEST PUSH2 0x2F30 PUSH1 0x60 DUP4 ADD DUP9 PUSH2 0x2A74 JUMP JUMPDEST PUSH2 0x2F3D PUSH1 0x80 DUP4 ADD DUP8 PUSH2 0x2A74 JUMP JUMPDEST DUP2 DUP2 SUB PUSH1 0xA0 DUP4 ADD MSTORE PUSH2 0x2F4F DUP2 DUP7 PUSH2 0x268E JUMP JUMPDEST SWAP1 POP DUP2 DUP2 SUB PUSH1 0xC0 DUP4 ADD MSTORE PUSH2 0x2F64 DUP2 DUP5 DUP7 PUSH2 0x25B7 JUMP JUMPDEST SWAP1 POP SWAP10 SWAP9 POP POP POP POP POP POP POP POP POP JUMP JUMPDEST PUSH1 0x0 PUSH1 0x40 DUP3 ADD SWAP1 POP PUSH2 0x2F88 PUSH1 0x0 DUP4 ADD DUP6 PUSH2 0x2A74 JUMP JUMPDEST DUP2 DUP2 SUB PUSH1 0x20 DUP4 ADD MSTORE PUSH2 0x2F9A DUP2 DUP5 PUSH2 0x268E JUMP JUMPDEST SWAP1 POP SWAP4 SWAP3 POP POP POP JUMP JUMPDEST PUSH1 0x0 PUSH1 0x20 DUP3 ADD SWAP1 POP PUSH2 0x2FB8 PUSH1 0x0 DUP4 ADD DUP5 PUSH2 0x2A83 JUMP JUMPDEST SWAP3 SWAP2 POP POP JUMP JUMPDEST PUSH1 0x0 DUP1 DUP4 CALLDATALOAD PUSH1 0x1 PUSH1 0x20 SUB DUP5 CALLDATASIZE SUB SUB DUP2 SLT PUSH2 0x2FDB JUMPI PUSH2 0x2FDA PUSH2 0x35C9 JUMP JUMPDEST JUMPDEST DUP1 DUP5 ADD SWAP3 POP DUP3 CALLDATALOAD SWAP2 POP PUSH8 0xFFFFFFFFFFFFFFFF DUP3 GT ISZERO PUSH2 0x2FFD JUMPI PUSH2 0x2FFC PUSH2 0x35C4 JUMP JUMPDEST JUMPDEST PUSH1 0x20 DUP4 ADD SWAP3 POP PUSH1 0x1 DUP3 MUL CALLDATASIZE SUB DUP4 SGT ISZERO PUSH2 0x3019 JUMPI PUSH2 0x3018 PUSH2 0x35D8 JUMP JUMPDEST JUMPDEST POP SWAP3 POP SWAP3 SWAP1 POP JUMP JUMPDEST PUSH1 0x0 PUSH2 0x302B PUSH2 0x303C JUMP JUMPDEST SWAP1 POP PUSH2 0x3037 DUP3 DUP3 PUSH2 0x341B JUMP JUMPDEST SWAP2 SWAP1 POP JUMP JUMPDEST PUSH1 0x0 PUSH1 0x40 MLOAD SWAP1 POP SWAP1 JUMP JUMPDEST PUSH1 0x0 PUSH8 0xFFFFFFFFFFFFFFFF DUP3 GT ISZERO PUSH2 0x3061 JUMPI PUSH2 0x3060 PUSH2 0x3586 JUMP JUMPDEST JUMPDEST PUSH1 0x20 DUP3 MUL SWAP1 POP PUSH1 0x20 DUP2 ADD SWAP1 POP SWAP2 SWAP1 POP JUMP JUMPDEST PUSH1 0x0 PUSH8 0xFFFFFFFFFFFFFFFF DUP3 GT ISZERO PUSH2 0x308D JUMPI PUSH2 0x308C PUSH2 0x3586 JUMP JUMPDEST JUMPDEST PUSH1 0x20 DUP3 MUL SWAP1 POP PUSH1 0x20 DUP2 ADD SWAP1 POP SWAP2 SWAP1 POP JUMP JUMPDEST PUSH1 0x0 PUSH8 0xFFFFFFFFFFFFFFFF DUP3 GT ISZERO PUSH2 0x30B9 JUMPI PUSH2 0x30B8 PUSH2 0x3586 JUMP JUMPDEST JUMPDEST PUSH1 0x20 DUP3 MUL SWAP1 POP PUSH1 0x20 DUP2 ADD SWAP1 POP SWAP2 SWAP1 POP JUMP JUMPDEST PUSH1 0x0 PUSH8 0xFFFFFFFFFFFFFFFF DUP3 GT ISZERO PUSH2 0x30E5 JUMPI PUSH2 0x30E4 PUSH2 0x3586 JUMP JUMPDEST JUMPDEST PUSH2 0x30EE DUP3 PUSH2 0x35F1 JUMP JUMPDEST SWAP1 POP PUSH1 0x20 DUP2 ADD SWAP1 POP SWAP2 SWAP1 POP JUMP JUMPDEST PUSH1 0x0 DUP2 SWAP1 POP PUSH1 0x20 DUP3 ADD SWAP1 POP SWAP2 SWAP1 POP JUMP JUMPDEST PUSH1 0x0 DUP2 SWAP1 POP SWAP2 SWAP1 POP JUMP JUMPDEST PUSH1 0x0 DUP2 SWAP1 POP DUP2 PUSH1 0x0 MSTORE PUSH1 0x20 PUSH1 0x0 KECCAK256 SWAP1 POP SWAP2 SWAP1 POP JUMP JUMPDEST PUSH1 0x0 DUP2 MLOAD SWAP1 POP SWAP2 SWAP1 POP JUMP JUMPDEST PUSH1 0x0 DUP2 MLOAD SWAP1 POP SWAP2 SWAP1 POP JUMP JUMPDEST PUSH1 0x0 PUSH1 0x20 DUP3 ADD SWAP1 POP SWAP2 SWAP1 POP JUMP JUMPDEST PUSH1 0x0 PUSH1 0x20 DUP3 ADD SWAP1 POP SWAP2 SWAP1 POP JUMP JUMPDEST PUSH1 0x0 DUP3 DUP3 MSTORE PUSH1 0x20 DUP3 ADD SWAP1 POP SWAP3 SWAP2 POP POP JUMP JUMPDEST PUSH1 0x0 DUP3 DUP3 MSTORE PUSH1 0x20 DUP3 ADD SWAP1 POP SWAP3 SWAP2 POP POP JUMP JUMPDEST PUSH1 0x0 DUP3 DUP3 MSTORE PUSH1 0x20 DUP3 ADD SWAP1 POP SWAP3 SWAP2 POP POP JUMP JUMPDEST PUSH1 0x0 DUP3 DUP3 MSTORE PUSH1 0x20 DUP3 ADD SWAP1 POP SWAP3 SWAP2 POP POP JUMP JUMPDEST PUSH1 0x0 DUP2 SWAP1 POP SWAP3 SWAP2 POP POP JUMP JUMPDEST PUSH1 0x0 DUP1 DUP4 CALLDATALOAD PUSH1 0x1 PUSH1 0x20 SUB DUP5 CALLDATASIZE SUB SUB DUP2 SLT PUSH2 0x31C6 JUMPI PUSH2 0x31C5 PUSH2 0x35E7 JUMP JUMPDEST JUMPDEST DUP4 DUP2 ADD SWAP3 POP DUP3 CALLDATALOAD SWAP2 POP PUSH1 0x20 DUP4 ADD SWAP3 POP PUSH8 0xFFFFFFFFFFFFFFFF DUP3 GT ISZERO PUSH2 0x31EE JUMPI PUSH2 0x31ED PUSH2 0x35B5 JUMP JUMPDEST JUMPDEST PUSH1 0x1 DUP3 MUL CALLDATASIZE SUB DUP5 SGT ISZERO PUSH2 0x3204 JUMPI PUSH2 0x3203 PUSH2 0x35CE JUMP JUMPDEST JUMPDEST POP SWAP3 POP SWAP3 SWAP1 POP JUMP JUMPDEST PUSH1 0x0 PUSH2 0x3217 DUP3 PUSH2 0x3362 JUMP JUMPDEST SWAP2 POP PUSH2 0x3222 DUP4 PUSH2 0x3362 JUMP JUMPDEST SWAP3 POP DUP3 PUSH2 0xFFFF SUB DUP3 GT ISZERO PUSH2 0x3239 JUMPI PUSH2 0x3238 PUSH2 0x34F9 JUMP JUMPDEST JUMPDEST DUP3 DUP3 ADD SWAP1 POP SWAP3 SWAP2 POP POP JUMP JUMPDEST PUSH1 0x0 PUSH2 0x324F DUP3 PUSH2 0x3390 JUMP JUMPDEST SWAP2 POP PUSH2 0x325A DUP4 PUSH2 0x3390 JUMP JUMPDEST SWAP3 POP DUP3 PUSH32 0xFFFFFFFFFFFFFFFFFFFFFFFFFFFFFFFFFFFFFFFFFFFFFFFFFFFFFFFFFFFFFFFF SUB DUP3 GT ISZERO PUSH2 0x328F JUMPI PUSH2 0x328E PUSH2 0x34F9 JUMP JUMPDEST JUMPDEST DUP3 DUP3 ADD SWAP1 POP SWAP3 SWAP2 POP POP JUMP JUMPDEST PUSH1 0x0 PUSH2 0x32A5 DUP3 PUSH2 0x3390 JUMP JUMPDEST SWAP2 POP PUSH2 0x32B0 DUP4 PUSH2 0x3390 JUMP JUMPDEST SWAP3 POP DUP2 PUSH32 0xFFFFFFFFFFFFFFFFFFFFFFFFFFFFFFFFFFFFFFFFFFFFFFFFFFFFFFFFFFFFFFFF DIV DUP4 GT DUP3 ISZERO ISZERO AND ISZERO PUSH2 0x32E9 JUMPI PUSH2 0x32E8 PUSH2 0x34F9 JUMP JUMPDEST JUMPDEST DUP3 DUP3 MUL SWAP1 POP SWAP3 SWAP2 POP POP JUMP JUMPDEST PUSH1 0x0 PUSH2 0x32FF DUP3 PUSH2 0x3390 JUMP JUMPDEST SWAP2 POP PUSH2 0x330A DUP4 PUSH2 0x3390 JUMP JUMPDEST SWAP3 POP DUP3 DUP3 LT ISZERO PUSH2 0x331D JUMPI PUSH2 0x331C PUSH2 0x34F9 JUMP JUMPDEST JUMPDEST DUP3 DUP3 SUB SWAP1 POP SWAP3 SWAP2 POP POP JUMP JUMPDEST PUSH1 0x0 PUSH2 0x3333 DUP3 PUSH2 0x3370 JUMP JUMPDEST SWAP1 POP SWAP2 SWAP1 POP JUMP JUMPDEST PUSH1 0x0 DUP2 ISZERO ISZERO SWAP1 POP SWAP2 SWAP1 POP JUMP JUMPDEST PUSH1 0x0 PUSH16 0xFFFFFFFFFFFFFFFFFFFFFFFFFFFFFFFF DUP3 AND SWAP1 POP SWAP2 SWAP1 POP JUMP JUMPDEST PUSH1 0x0 PUSH2 0xFFFF DUP3 AND SWAP1 POP SWAP2 SWAP1 POP JUMP JUMPDEST PUSH1 0x0 PUSH20 0xFFFFFFFFFFFFFFFFFFFFFFFFFFFFFFFFFFFFFFFF DUP3 AND SWAP1 POP SWAP2 SWAP1 POP JUMP JUMPDEST PUSH1 0x0 DUP2 SWAP1 POP SWAP2 SWAP1 POP JUMP JUMPDEST PUSH1 0x0 PUSH1 0xFF DUP3 AND SWAP1 POP SWAP2 SWAP1 POP JUMP JUMPDEST DUP3 DUP2 DUP4 CALLDATACOPY PUSH1 0x0 DUP4 DUP4 ADD MSTORE POP POP POP JUMP JUMPDEST PUSH1 0x0 JUMPDEST DUP4 DUP2 LT ISZERO PUSH2 0x33D4 JUMPI DUP1 DUP3 ADD MLOAD DUP2 DUP5 ADD MSTORE PUSH1 0x20 DUP2 ADD SWAP1 POP PUSH2 0x33B9 JUMP JUMPDEST DUP4 DUP2 GT ISZERO PUSH2 0x33E3 JUMPI PUSH1 0x0 DUP5 DUP5 ADD MSTORE JUMPDEST POP POP POP POP JUMP JUMPDEST PUSH1 0x0 PUSH1 0x2 DUP3 DIV SWAP1 POP PUSH1 0x1 DUP3 AND DUP1 PUSH2 0x3401 JUMPI PUSH1 0x7F DUP3 AND SWAP2 POP JUMPDEST PUSH1 0x20 DUP3 LT DUP2 EQ ISZERO PUSH2 0x3415 JUMPI PUSH2 0x3414 PUSH2 0x3528 JUMP JUMPDEST JUMPDEST POP SWAP2 SWAP1 POP JUMP JUMPDEST PUSH2 0x3424 DUP3 PUSH2 0x35F1 JUMP JUMPDEST DUP2 ADD DUP2 DUP2 LT PUSH8 0xFFFFFFFFFFFFFFFF DUP3 GT OR ISZERO PUSH2 0x3443 JUMPI PUSH2 0x3442 PUSH2 0x3586 JUMP JUMPDEST JUMPDEST DUP1 PUSH1 0x40 MSTORE POP POP POP JUMP JUMPDEST PUSH1 0x0 PUSH2 0x3457 DUP3 PUSH2 0x3346 JUMP JUMPDEST SWAP2 POP PUSH16 0xFFFFFFFFFFFFFFFFFFFFFFFFFFFFFFFF DUP3 EQ ISZERO PUSH2 0x347A JUMPI PUSH2 0x3479 PUSH2 0x34F9 JUMP JUMPDEST JUMPDEST PUSH1 0x1 DUP3 ADD SWAP1 POP SWAP2 SWAP1 POP JUMP JUMPDEST PUSH1 0x0 PUSH2 0x3490 DUP3 PUSH2 0x3362 JUMP JUMPDEST SWAP2 POP PUSH2 0xFFFF DUP3 EQ ISZERO PUSH2 0x34A5 JUMPI PUSH2 0x34A4 PUSH2 0x34F9 JUMP JUMPDEST JUMPDEST PUSH1 0x1 DUP3 ADD SWAP1 POP SWAP2 SWAP1 POP JUMP JUMPDEST PUSH1 0x0 PUSH2 0x34BB DUP3 PUSH2 0x3390 JUMP JUMPDEST SWAP2 POP PUSH32 0xFFFFFFFFFFFFFFFFFFFFFFFFFFFFFFFFFFFFFFFFFFFFFFFFFFFFFFFFFFFFFFFF DUP3 EQ ISZERO PUSH2 0x34EE JUMPI PUSH2 0x34ED PUSH2 0x34F9 JUMP JUMPDEST JUMPDEST PUSH1 0x1 DUP3 ADD SWAP1 POP SWAP2 SWAP1 POP JUMP JUMPDEST PUSH32 0x4E487B7100000000000000000000000000000000000000000000000000000000 PUSH1 0x0 MSTORE PUSH1 0x11 PUSH1 0x4 MSTORE PUSH1 0x24 PUSH1 0x0 REVERT JUMPDEST PUSH32 0x4E487B7100000000000000000000000000000000000000000000000000000000 PUSH1 0x0 MSTORE PUSH1 0x22 PUSH1 0x4 MSTORE PUSH1 0x24 PUSH1 0x0 REVERT JUMPDEST PUSH32 0x4E487B7100000000000000000000000000000000000000000000000000000000 PUSH1 0x0 MSTORE PUSH1 0x32 PUSH1 0x4 MSTORE PUSH1 0x24 PUSH1 0x0 REVERT JUMPDEST PUSH32 0x4E487B7100000000000000000000000000000000000000000000000000000000 PUSH1 0x0 MSTORE PUSH1 0x41 PUSH1 0x4 MSTORE PUSH1 0x24 PUSH1 0x0 REVERT JUMPDEST PUSH1 0x0 DUP1 REVERT JUMPDEST PUSH1 0x0 DUP1 REVERT JUMPDEST PUSH1 0x0 DUP1 REVERT JUMPDEST PUSH1 0x0 DUP1 REVERT JUMPDEST PUSH1 0x0 DUP1 REVERT JUMPDEST PUSH1 0x0 DUP1 REVERT JUMPDEST PUSH1 0x0 DUP1 REVERT JUMPDEST PUSH1 0x0 DUP1 REVERT JUMPDEST PUSH1 0x0 DUP1 REVERT JUMPDEST PUSH1 0x0 DUP1 REVERT JUMPDEST PUSH1 0x0 DUP1 REVERT JUMPDEST PUSH1 0x0 DUP1 REVERT JUMPDEST PUSH1 0x0 PUSH1 0x1F NOT PUSH1 0x1F DUP4 ADD AND SWAP1 POP SWAP2 SWAP1 POP JUMP JUMPDEST PUSH32 0x50726F706F73616C3A20696E6163746976650000000000000000000000000000 PUSH1 0x0 DUP3 ADD MSTORE POP JUMP JUMPDEST PUSH32 0x456E642074696D652073686F756C642062652067726561746572207468616E20 PUSH1 0x0 DUP3 ADD MSTORE PUSH32 0x63757272656E742074696D650000000000000000000000000000000000000000 PUSH1 0x20 DUP3 ADD MSTORE POP JUMP JUMPDEST PUSH32 0x45524332303A206275726E20616D6F756E7420657863656564732062616C616E PUSH1 0x0 DUP3 ADD MSTORE PUSH32 0x6365000000000000000000000000000000000000000000000000000000000000 PUSH1 0x20 DUP3 ADD MSTORE POP JUMP JUMPDEST PUSH32 0x70726F706F73616C206973206E6F7420636F6D706C6574656420796574000000 PUSH1 0x0 DUP3 ADD MSTORE POP JUMP JUMPDEST PUSH32 0x616C726561647920766F74656400000000000000000000000000000000000000 PUSH1 0x0 DUP3 ADD MSTORE POP JUMP JUMPDEST PUSH32 0x50726F706F73616C3A20696E76616C69642063616E6469646174650000000000 PUSH1 0x0 DUP3 ADD MSTORE POP JUMP JUMPDEST PUSH32 0x6E6F7420612076616C69642070726F706F73616C000000000000000000000000 PUSH1 0x0 DUP3 ADD MSTORE POP JUMP JUMPDEST PUSH32 0x6E6F7420612076616C696420766F74657220666F7220746869732070726F706F PUSH1 0x0 DUP3 ADD MSTORE PUSH32 0x73616C0000000000000000000000000000000000000000000000000000000000 PUSH1 0x20 DUP3 ADD MSTORE POP JUMP JUMPDEST PUSH32 0x70726F706F73616C206E6F742073746172746564207965740000000000000000 PUSH1 0x0 DUP3 ADD MSTORE POP JUMP JUMPDEST PUSH32 0x70726F706F73616C206E6F742073746172746564000000000000000000000000 PUSH1 0x0 DUP3 ADD MSTORE POP JUMP JUMPDEST PUSH32 0x4E6F7420612076616C696420766F74657220666F7220746869732070726F706F PUSH1 0x0 DUP3 ADD MSTORE PUSH32 0x73616C0000000000000000000000000000000000000000000000000000000000 PUSH1 0x20 DUP3 ADD MSTORE POP JUMP JUMPDEST PUSH32 0x696E76616C69642070726F706F73616C49640000000000000000000000000000 PUSH1 0x0 DUP3 ADD MSTORE POP JUMP JUMPDEST PUSH32 0x6E6F742073756666696369656E742062616C616E636520746F20636173742076 PUSH1 0x0 DUP3 ADD MSTORE PUSH32 0x6F74650000000000000000000000000000000000000000000000000000000000 PUSH1 0x20 DUP3 ADD MSTORE POP JUMP JUMPDEST PUSH32 0x456E642074696D652073686F756C642062652067726561746572207468616E20 PUSH1 0x0 DUP3 ADD MSTORE PUSH32 0x73746172742074696D6500000000000000000000000000000000000000000000 PUSH1 0x20 DUP3 ADD MSTORE POP JUMP JUMPDEST PUSH32 0x45524332303A206275726E2066726F6D20746865207A65726F20616464726573 PUSH1 0x0 DUP3 ADD MSTORE PUSH32 0x7300000000000000000000000000000000000000000000000000000000000000 PUSH1 0x20 DUP3 ADD MSTORE POP JUMP JUMPDEST PUSH32 0x6E6F7420612076616C6964206C656E677468206F66206861736820726573706F PUSH1 0x0 DUP3 ADD MSTORE PUSH32 0x6E73652100000000000000000000000000000000000000000000000000000000 PUSH1 0x20 DUP3 ADD MSTORE POP JUMP JUMPDEST PUSH32 0x6D696E7400000000000000000000000000000000000000000000000000000000 PUSH1 0x0 DUP3 ADD MSTORE POP JUMP JUMPDEST PUSH32 0x496E76616C696420766F74657220666F722070726F706F73616C496421000000 PUSH1 0x0 DUP3 ADD MSTORE POP JUMP JUMPDEST PUSH32 0x6275726E00000000000000000000000000000000000000000000000000000000 PUSH1 0x0 DUP3 ADD MSTORE POP JUMP JUMPDEST PUSH32 0x6E6F7420766F7465640000000000000000000000000000000000000000000000 PUSH1 0x0 DUP3 ADD MSTORE POP JUMP JUMPDEST PUSH32 0x45524332303A206D696E7420746F20746865207A65726F206164647265737300 PUSH1 0x0 DUP3 ADD MSTORE POP JUMP JUMPDEST PUSH2 0x3A98 DUP2 PUSH2 0x3328 JUMP JUMPDEST DUP2 EQ PUSH2 0x3AA3 JUMPI PUSH1 0x0 DUP1 REVERT JUMPDEST POP JUMP JUMPDEST PUSH2 0x3AAF DUP2 PUSH2 0x3390 JUMP JUMPDEST DUP2 EQ PUSH2 0x3ABA JUMPI PUSH1 0x0 DUP1 REVERT JUMPDEST POP JUMP JUMPDEST PUSH2 0x3AC6 DUP2 PUSH2 0x339A JUMP JUMPDEST DUP2 EQ PUSH2 0x3AD1 JUMPI PUSH1 0x0 DUP1 REVERT JUMPDEST POP JUMP INVALID LOG2 PUSH5 0x6970667358 0x22 SLT KECCAK256 0x22 PUSH14 0x3A39912EEDAF2895B819F6008AFA CREATE2 0xCE CODECOPY 0xBC MSIZE NOT RETURNDATACOPY LOG4 DUP11 0xC7 0x1F PUSH1 0xEF 0x2E 0x4D 0x49 PUSH5 0x736F6C6343 STOP ADDMOD SMOD STOP CALLER "
				},
				"gasEstimates": {
					"creation": {
						"codeDepositCost": "3022800",
						"executionCost": "infinite",
						"totalCost": "infinite"
					},
					"external": {
						"allVoters(address,uint256)": "infinite",
						"balanceOf(address)": "2863",
						"burnOwner(uint256,address[])": "infinite",
						"createProposal(uint8,address[],address,uint256,uint256,string,string[],uint256)": "infinite",
						"decimals()": "432",
						"name()": "infinite",
						"proposals(uint256)": "infinite",
						"responseProposal(uint256,address,string[],uint256[])": "infinite",
						"resultOfProposal(uint256)": "infinite",
						"symbol()": "infinite",
						"totalSupply()": "2504",
						"userProposal(address)": "infinite"
					}
				},
				"methodIdentifiers": {
					"allVoters(address,uint256)": "ab9c70d4",
					"balanceOf(address)": "70a08231",
					"burnOwner(uint256,address[])": "03af665c",
					"createProposal(uint8,address[],address,uint256,uint256,string,string[],uint256)": "4de77e48",
					"decimals()": "313ce567",
					"name()": "06fdde03",
					"proposals(uint256)": "013cf08b",
					"responseProposal(uint256,address,string[],uint256[])": "5c230eee",
					"resultOfProposal(uint256)": "9d671564",
					"symbol()": "95d89b41",
					"totalSupply()": "18160ddd",
					"userProposal(address)": "e745d68e"
				}
			},
			"storageLayout": {
				"storage": [
					{
						"astId": 636,
						"contract": "Qvoting.sol:Qvoting",
						"label": "_balances",
						"offset": 0,
						"slot": "0",
						"type": "t_mapping(t_address,t_uint256)"
					},
					{
						"astId": 638,
						"contract": "Qvoting.sol:Qvoting",
						"label": "_totalSupply",
						"offset": 0,
						"slot": "1",
						"type": "t_uint256"
					},
					{
						"astId": 640,
						"contract": "Qvoting.sol:Qvoting",
						"label": "_name",
						"offset": 0,
						"slot": "2",
						"type": "t_string_storage"
					},
					{
						"astId": 642,
						"contract": "Qvoting.sol:Qvoting",
						"label": "_symbol",
						"offset": 0,
						"slot": "3",
						"type": "t_string_storage"
					},
					{
						"astId": 856,
						"contract": "Qvoting.sol:Qvoting",
						"label": "owner",
						"offset": 0,
						"slot": "4",
						"type": "t_address"
					},
					{
						"astId": 945,
						"contract": "Qvoting.sol:Qvoting",
						"label": "proposalId",
						"offset": 0,
						"slot": "5",
						"type": "t_uint256"
					},
					{
						"astId": 950,
						"contract": "Qvoting.sol:Qvoting",
						"label": "userProposal",
						"offset": 0,
						"slot": "6",
						"type": "t_mapping(t_address,t_struct(UserProposal)418_storage)"
					},
					{
						"astId": 955,
						"contract": "Qvoting.sol:Qvoting",
						"label": "proposals",
						"offset": 0,
						"slot": "7",
						"type": "t_mapping(t_uint256,t_struct(proposal)66_storage)"
					},
					{
						"astId": 962,
						"contract": "Qvoting.sol:Qvoting",
						"label": "allVoters",
						"offset": 0,
						"slot": "8",
						"type": "t_mapping(t_address,t_mapping(t_uint256,t_struct(voter)522_storage))"
					},
					{
						"astId": 966,
						"contract": "Qvoting.sol:Qvoting",
						"label": "validProposals",
						"offset": 0,
						"slot": "9",
						"type": "t_mapping(t_uint256,t_bool)"
					}
				],
				"types": {
					"t_address": {
						"encoding": "inplace",
						"label": "address",
						"numberOfBytes": "20"
					},
					"t_bool": {
						"encoding": "inplace",
						"label": "bool",
						"numberOfBytes": "1"
					},
					"t_mapping(t_address,t_bool)": {
						"encoding": "mapping",
						"key": "t_address",
						"label": "mapping(address => bool)",
						"numberOfBytes": "32",
						"value": "t_bool"
					},
					"t_mapping(t_address,t_mapping(t_uint256,t_struct(voter)522_storage))": {
						"encoding": "mapping",
						"key": "t_address",
						"label": "mapping(address => mapping(uint256 => struct voterLibrary.voter))",
						"numberOfBytes": "32",
						"value": "t_mapping(t_uint256,t_struct(voter)522_storage)"
					},
					"t_mapping(t_address,t_struct(UserProposal)418_storage)": {
						"encoding": "mapping",
						"key": "t_address",
						"label": "mapping(address => struct UserProposalLibrary.UserProposal)",
						"numberOfBytes": "32",
						"value": "t_struct(UserProposal)418_storage"
					},
					"t_mapping(t_address,t_uint256)": {
						"encoding": "mapping",
						"key": "t_address",
						"label": "mapping(address => uint256)",
						"numberOfBytes": "32",
						"value": "t_uint256"
					},
					"t_mapping(t_string_memory_ptr,t_bool)": {
						"encoding": "mapping",
						"key": "t_string_memory_ptr",
						"label": "mapping(string => bool)",
						"numberOfBytes": "32",
						"value": "t_bool"
					},
					"t_mapping(t_string_memory_ptr,t_uint256)": {
						"encoding": "mapping",
						"key": "t_string_memory_ptr",
						"label": "mapping(string => uint256)",
						"numberOfBytes": "32",
						"value": "t_uint256"
					},
					"t_mapping(t_uint128,t_uint256)": {
						"encoding": "mapping",
						"key": "t_uint128",
						"label": "mapping(uint128 => uint256)",
						"numberOfBytes": "32",
						"value": "t_uint256"
					},
					"t_mapping(t_uint256,t_bool)": {
						"encoding": "mapping",
						"key": "t_uint256",
						"label": "mapping(uint256 => bool)",
						"numberOfBytes": "32",
						"value": "t_bool"
					},
					"t_mapping(t_uint256,t_mapping(t_uint256,t_string_storage))": {
						"encoding": "mapping",
						"key": "t_uint256",
						"label": "mapping(uint256 => mapping(uint256 => string))",
						"numberOfBytes": "32",
						"value": "t_mapping(t_uint256,t_string_storage)"
					},
					"t_mapping(t_uint256,t_string_storage)": {
						"encoding": "mapping",
						"key": "t_uint256",
						"label": "mapping(uint256 => string)",
						"numberOfBytes": "32",
						"value": "t_string_storage"
					},
					"t_mapping(t_uint256,t_struct(proposal)66_storage)": {
						"encoding": "mapping",
						"key": "t_uint256",
						"label": "mapping(uint256 => struct proposalLibrary.proposal)",
						"numberOfBytes": "32",
						"value": "t_struct(proposal)66_storage"
					},
					"t_mapping(t_uint256,t_struct(voter)522_storage)": {
						"encoding": "mapping",
						"key": "t_uint256",
						"label": "mapping(uint256 => struct voterLibrary.voter)",
						"numberOfBytes": "32",
						"value": "t_struct(voter)522_storage"
					},
					"t_string_memory_ptr": {
						"encoding": "bytes",
						"label": "string",
						"numberOfBytes": "32"
					},
					"t_string_storage": {
						"encoding": "bytes",
						"label": "string",
						"numberOfBytes": "32"
					},
					"t_struct(UserProposal)418_storage": {
						"encoding": "inplace",
						"label": "struct UserProposalLibrary.UserProposal",
						"members": [
							{
								"astId": 397,
								"contract": "Qvoting.sol:Qvoting",
								"label": "proposalCount",
								"offset": 0,
								"slot": "0",
								"type": "t_uint128"
							},
							{
								"astId": 399,
								"contract": "Qvoting.sol:Qvoting",
								"label": "responseCount",
								"offset": 16,
								"slot": "0",
								"type": "t_uint128"
							},
							{
								"astId": 403,
								"contract": "Qvoting.sol:Qvoting",
								"label": "proposalCreated",
								"offset": 0,
								"slot": "1",
								"type": "t_mapping(t_uint128,t_uint256)"
							},
							{
								"astId": 407,
								"contract": "Qvoting.sol:Qvoting",
								"label": "proposalResponsed",
								"offset": 0,
								"slot": "2",
								"type": "t_mapping(t_uint128,t_uint256)"
							},
							{
								"astId": 413,
								"contract": "Qvoting.sol:Qvoting",
								"label": "proposalAnswer",
								"offset": 0,
								"slot": "3",
								"type": "t_mapping(t_uint256,t_mapping(t_uint256,t_string_storage))"
							},
							{
								"astId": 417,
								"contract": "Qvoting.sol:Qvoting",
								"label": "responsedProposal",
								"offset": 0,
								"slot": "4",
								"type": "t_mapping(t_uint256,t_bool)"
							}
						],
						"numberOfBytes": "160"
					},
					"t_struct(proposal)66_storage": {
						"encoding": "inplace",
						"label": "struct proposalLibrary.proposal",
						"members": [
							{
								"astId": 33,
								"contract": "Qvoting.sol:Qvoting",
								"label": "creator",
								"offset": 0,
								"slot": "0",
								"type": "t_address"
							},
							{
								"astId": 35,
								"contract": "Qvoting.sol:Qvoting",
								"label": "status",
								"offset": 20,
								"slot": "0",
								"type": "t_uint8"
							},
							{
								"astId": 37,
								"contract": "Qvoting.sol:Qvoting",
								"label": "disc",
								"offset": 0,
								"slot": "1",
								"type": "t_string_storage"
							},
							{
								"astId": 39,
								"contract": "Qvoting.sol:Qvoting",
								"label": "startTime",
								"offset": 0,
								"slot": "2",
								"type": "t_uint256"
							},
							{
								"astId": 41,
								"contract": "Qvoting.sol:Qvoting",
								"label": "expirationTime",
								"offset": 0,
								"slot": "3",
								"type": "t_uint256"
							},
							{
								"astId": 43,
								"contract": "Qvoting.sol:Qvoting",
								"label": "numOfOptions",
								"offset": 0,
								"slot": "4",
								"type": "t_uint16"
							},
							{
								"astId": 45,
								"contract": "Qvoting.sol:Qvoting",
								"label": "voteRight",
								"offset": 0,
								"slot": "5",
								"type": "t_uint256"
							},
							{
								"astId": 49,
								"contract": "Qvoting.sol:Qvoting",
								"label": "voters",
								"offset": 0,
								"slot": "6",
								"type": "t_mapping(t_address,t_bool)"
							},
							{
								"astId": 53,
								"contract": "Qvoting.sol:Qvoting",
								"label": "cand",
								"offset": 0,
								"slot": "7",
								"type": "t_mapping(t_string_memory_ptr,t_bool)"
							},
							{
								"astId": 57,
								"contract": "Qvoting.sol:Qvoting",
								"label": "candHash",
								"offset": 0,
								"slot": "8",
								"type": "t_mapping(t_uint256,t_string_storage)"
							},
							{
								"astId": 61,
								"contract": "Qvoting.sol:Qvoting",
								"label": "result",
								"offset": 0,
								"slot": "9",
								"type": "t_mapping(t_uint256,t_string_storage)"
							},
							{
								"astId": 65,
								"contract": "Qvoting.sol:Qvoting",
								"label": "votes",
								"offset": 0,
								"slot": "10",
								"type": "t_mapping(t_string_memory_ptr,t_uint256)"
							}
						],
						"numberOfBytes": "352"
					},
					"t_struct(voter)522_storage": {
						"encoding": "inplace",
						"label": "struct voterLibrary.voter",
						"members": [
							{
								"astId": 515,
								"contract": "Qvoting.sol:Qvoting",
								"label": "proposalId",
								"offset": 0,
								"slot": "0",
								"type": "t_uint256"
							},
							{
								"astId": 517,
								"contract": "Qvoting.sol:Qvoting",
								"label": "voterAddress",
								"offset": 0,
								"slot": "1",
								"type": "t_address"
							},
							{
								"astId": 519,
								"contract": "Qvoting.sol:Qvoting",
								"label": "hasVoted",
								"offset": 20,
								"slot": "1",
								"type": "t_bool"
							},
							{
								"astId": 521,
								"contract": "Qvoting.sol:Qvoting",
								"label": "voteNum",
								"offset": 0,
								"slot": "2",
								"type": "t_uint256"
							}
						],
						"numberOfBytes": "96"
					},
					"t_uint128": {
						"encoding": "inplace",
						"label": "uint128",
						"numberOfBytes": "16"
					},
					"t_uint16": {
						"encoding": "inplace",
						"label": "uint16",
						"numberOfBytes": "2"
					},
					"t_uint256": {
						"encoding": "inplace",
						"label": "uint256",
						"numberOfBytes": "32"
					},
					"t_uint8": {
						"encoding": "inplace",
						"label": "uint8",
						"numberOfBytes": "1"
					}
				}
			},
			"userdoc": {
				"kind": "user",
				"methods": {},
				"version": 1
			}
		}
	}
}