{
	"Qvoting.sol": {
		"Qvoting": {
			"abi": [
				{
					"anonymous": false,
					"inputs": [
						{
							"indexed": false,
							"internalType": "uint256",
							"name": "proposalId",
							"type": "uint256"
						},
						{
							"indexed": false,
							"internalType": "address[]",
							"name": "voters",
							"type": "address[]"
						},
						{
							"indexed": false,
							"internalType": "address",
							"name": "creator",
							"type": "address"
						},
						{
							"indexed": false,
							"internalType": "uint256",
							"name": "startTime",
							"type": "uint256"
						},
						{
							"indexed": false,
							"internalType": "uint256",
							"name": "expirationTime",
							"type": "uint256"
						},
						{
							"indexed": false,
							"internalType": "string",
							"name": "description",
							"type": "string"
						},
						{
							"indexed": false,
							"internalType": "string[]",
							"name": "_cand",
							"type": "string[]"
						}
					],
					"name": "ProposalCreated",
					"type": "event"
				},
				{
					"anonymous": false,
					"inputs": [
						{
							"indexed": false,
							"internalType": "address",
							"name": "voter",
							"type": "address"
						},
						{
							"indexed": false,
							"internalType": "uint256",
							"name": "ProposalID",
							"type": "uint256"
						},
						{
							"indexed": false,
							"internalType": "uint256[]",
							"name": "_tokens",
							"type": "uint256[]"
						}
					],
					"name": "VoteCasted",
					"type": "event"
				},
				{
					"anonymous": false,
					"inputs": [
						{
							"indexed": false,
							"internalType": "string",
							"name": "mintAndburn",
							"type": "string"
						},
						{
							"indexed": false,
							"internalType": "address",
							"name": "account",
							"type": "address"
						},
						{
							"indexed": false,
							"internalType": "uint256",
							"name": "amount",
							"type": "uint256"
						}
					],
					"name": "mintAndburn",
					"type": "event"
				},
				{
					"inputs": [
						{
							"internalType": "address",
							"name": "",
							"type": "address"
						}
					],
					"name": "allVoters",
					"outputs": [
						{
							"internalType": "uint256",
							"name": "proposalId",
							"type": "uint256"
						},
						{
							"internalType": "address",
							"name": "voterAddress",
							"type": "address"
						},
						{
							"internalType": "bool",
							"name": "hasVoted",
							"type": "bool"
						},
						{
							"internalType": "uint256",
							"name": "voteNum",
							"type": "uint256"
						}
					],
					"stateMutability": "view",
					"type": "function"
				},
				{
					"inputs": [
						{
							"internalType": "address",
							"name": "account",
							"type": "address"
						}
					],
					"name": "balanceOf",
					"outputs": [
						{
							"internalType": "uint256",
							"name": "",
							"type": "uint256"
						}
					],
					"stateMutability": "view",
					"type": "function"
				},
				{
					"inputs": [
						{
							"internalType": "uint8",
							"name": "_status",
							"type": "uint8"
						},
						{
							"internalType": "address[]",
							"name": "_voters",
							"type": "address[]"
						},
						{
							"internalType": "address",
							"name": "_creator",
							"type": "address"
						},
						{
							"internalType": "uint256",
							"name": "_startTime",
							"type": "uint256"
						},
						{
							"internalType": "uint256",
							"name": "_expirationTime",
							"type": "uint256"
						},
						{
							"internalType": "string",
							"name": "_disc",
							"type": "string"
						},
						{
							"internalType": "string[]",
							"name": "_cand",
							"type": "string[]"
						},
						{
							"internalType": "uint256",
							"name": "voteRight",
							"type": "uint256"
						}
					],
					"name": "createProposal",
					"outputs": [],
					"stateMutability": "nonpayable",
					"type": "function"
				},
				{
					"inputs": [],
					"name": "decimals",
					"outputs": [
						{
							"internalType": "uint8",
							"name": "",
							"type": "uint8"
						}
					],
					"stateMutability": "view",
					"type": "function"
				},
				{
					"inputs": [],
					"name": "name",
					"outputs": [
						{
							"internalType": "string",
							"name": "",
							"type": "string"
						}
					],
					"stateMutability": "view",
					"type": "function"
				},
				{
					"inputs": [
						{
							"internalType": "uint256",
							"name": "",
							"type": "uint256"
						}
					],
					"name": "proposals",
					"outputs": [
						{
							"internalType": "address",
							"name": "creator",
							"type": "address"
						},
						{
							"internalType": "uint8",
							"name": "status",
							"type": "uint8"
						},
						{
							"internalType": "string",
							"name": "disc",
							"type": "string"
						},
						{
							"internalType": "uint256",
							"name": "startTime",
							"type": "uint256"
						},
						{
							"internalType": "uint256",
							"name": "expirationTime",
							"type": "uint256"
						},
						{
							"internalType": "uint16",
							"name": "numOfOptions",
							"type": "uint16"
						}
					],
					"stateMutability": "view",
					"type": "function"
				},
				{
					"inputs": [
						{
							"internalType": "uint256",
							"name": "_proposalId",
							"type": "uint256"
						},
						{
							"internalType": "address",
							"name": "_voter",
							"type": "address"
						},
						{
							"internalType": "string",
							"name": "_hash",
							"type": "string"
						},
						{
							"internalType": "uint256",
							"name": "v",
							"type": "uint256"
						}
					],
					"name": "responsePoll",
					"outputs": [],
					"stateMutability": "nonpayable",
					"type": "function"
				},
				{
					"inputs": [],
					"name": "symbol",
					"outputs": [
						{
							"internalType": "string",
							"name": "",
							"type": "string"
						}
					],
					"stateMutability": "view",
					"type": "function"
				},
				{
					"inputs": [],
					"name": "totalSupply",
					"outputs": [
						{
							"internalType": "uint256",
							"name": "",
							"type": "uint256"
						}
					],
					"stateMutability": "view",
					"type": "function"
				},
				{
					"inputs": [
						{
							"internalType": "address",
							"name": "",
							"type": "address"
						}
					],
					"name": "userProposal",
					"outputs": [
						{
							"internalType": "uint128",
							"name": "proposalCount",
							"type": "uint128"
						},
						{
							"internalType": "uint128",
							"name": "responseCount",
							"type": "uint128"
						}
					],
					"stateMutability": "view",
					"type": "function"
				}
			],
			"devdoc": {
				"kind": "dev",
				"methods": {
					"balanceOf(address)": {
						"details": "See {IERC20-balanceOf}."
					},
					"decimals()": {
						"details": "Returns the number of decimals used to get its user representation. For example, if `decimals` equals `2`, a balance of `505` tokens should be displayed to a user as `5.05` (`505 / 10 ** 2`). Tokens usually opt for a value of 18, imitating the relationship between Ether and Wei. This is the value {ERC20} uses, unless this function is overridden; NOTE: This information is only used for _display_ purposes: it in no way affects any of the arithmetic of the contract, including {IERC20-balanceOf} and {IERC20-transfer}."
					},
					"name()": {
						"details": "Returns the name of the token."
					},
					"symbol()": {
						"details": "Returns the symbol of the token, usually a shorter version of the name."
					},
					"totalSupply()": {
						"details": "See {IERC20-totalSupply}."
					}
				},
				"version": 1
			},
			"evm": {
				"assembly": "    /* \"Qvoting.sol\":343:3815  contract Qvoting is proposalEvents, QVtoken{\r... */\n  mstore(0x40, 0x80)\n  callvalue\n  dup1\n  iszero\n  tag_1\n  jumpi\n  0x00\n  dup1\n  revert\ntag_1:\n  pop\n    /* \"QvToken/ERC20.sol\":2016:2132  constructor(string memory name_, string memory symbol_) {\r... */\n  mload(0x40)\n  dup1\n  0x40\n  add\n  0x40\n  mstore\n  dup1\n  0x0c\n  dup2\n  mstore\n  0x20\n  add\n  0x51566f74696e67546f6b656e0000000000000000000000000000000000000000\n  dup2\n  mstore\n  pop\n  mload(0x40)\n  dup1\n  0x40\n  add\n  0x40\n  mstore\n  dup1\n  0x02\n  dup2\n  mstore\n  0x20\n  add\n  0x5176000000000000000000000000000000000000000000000000000000000000\n  dup2\n  mstore\n  pop\n    /* \"QvToken/ERC20.sol\":2091:2096  name_ */\n  dup2\n    /* \"QvToken/ERC20.sol\":2083:2088  _name */\n  0x02\n    /* \"QvToken/ERC20.sol\":2083:2096  _name = name_ */\n  swap1\n  dup1\n  mload\n  swap1\n  0x20\n  add\n  swap1\n  tag_5\n  swap3\n  swap2\n  swap1\n  tag_6\n  jump\t// in\ntag_5:\n  pop\n    /* \"QvToken/ERC20.sol\":2117:2124  symbol_ */\n  dup1\n    /* \"QvToken/ERC20.sol\":2107:2114  _symbol */\n  0x03\n    /* \"QvToken/ERC20.sol\":2107:2124  _symbol = symbol_ */\n  swap1\n  dup1\n  mload\n  swap1\n  0x20\n  add\n  swap1\n  tag_7\n  swap3\n  swap2\n  swap1\n  tag_6\n  jump\t// in\ntag_7:\n  pop\n    /* \"QvToken/ERC20.sol\":2016:2132  constructor(string memory name_, string memory symbol_) {\r... */\n  pop\n  pop\n    /* \"QvToken/QvToken.sol\":280:290  msg.sender */\n  caller\n    /* \"QvToken/QvToken.sol\":272:277  owner */\n  0x04\n  0x00\n    /* \"QvToken/QvToken.sol\":272:290  owner = msg.sender */\n  0x0100\n  exp\n  dup2\n  sload\n  dup2\n  0xffffffffffffffffffffffffffffffffffffffff\n  mul\n  not\n  and\n  swap1\n  dup4\n  0xffffffffffffffffffffffffffffffffffffffff\n  and\n  mul\n  or\n  swap1\n  sstore\n  pop\n    /* \"Qvoting.sol\":343:3815  contract Qvoting is proposalEvents, QVtoken{\r... */\n  jump(tag_9)\ntag_6:\n  dup3\n  dup1\n  sload\n  tag_10\n  swap1\n  tag_11\n  jump\t// in\ntag_10:\n  swap1\n  0x00\n  mstore\n  keccak256(0x00, 0x20)\n  swap1\n  0x1f\n  add\n  0x20\n  swap1\n  div\n  dup2\n  add\n  swap3\n  dup3\n  tag_13\n  jumpi\n  0x00\n  dup6\n  sstore\n  jump(tag_12)\ntag_13:\n  dup3\n  0x1f\n  lt\n  tag_14\n  jumpi\n  dup1\n  mload\n  not(0xff)\n  and\n  dup4\n  dup1\n  add\n  or\n  dup6\n  sstore\n  jump(tag_12)\ntag_14:\n  dup3\n  dup1\n  add\n  0x01\n  add\n  dup6\n  sstore\n  dup3\n  iszero\n  tag_12\n  jumpi\n  swap2\n  dup3\n  add\ntag_15:\n  dup3\n  dup2\n  gt\n  iszero\n  tag_16\n  jumpi\n  dup3\n  mload\n  dup3\n  sstore\n  swap2\n  0x20\n  add\n  swap2\n  swap1\n  0x01\n  add\n  swap1\n  jump(tag_15)\ntag_16:\ntag_12:\n  pop\n  swap1\n  pop\n  tag_17\n  swap2\n  swap1\n  tag_18\n  jump\t// in\ntag_17:\n  pop\n  swap1\n  jump\t// out\ntag_18:\ntag_19:\n  dup1\n  dup3\n  gt\n  iszero\n  tag_20\n  jumpi\n  0x00\n  dup2\n  0x00\n  swap1\n  sstore\n  pop\n  0x01\n  add\n  jump(tag_19)\ntag_20:\n  pop\n  swap1\n  jump\t// out\n    /* \"#utility.yul\":7:327   */\ntag_11:\n    /* \"#utility.yul\":51:57   */\n  0x00\n    /* \"#utility.yul\":88:89   */\n  0x02\n    /* \"#utility.yul\":82:86   */\n  dup3\n    /* \"#utility.yul\":78:90   */\n  div\n    /* \"#utility.yul\":68:90   */\n  swap1\n  pop\n    /* \"#utility.yul\":135:136   */\n  0x01\n    /* \"#utility.yul\":129:133   */\n  dup3\n    /* \"#utility.yul\":125:137   */\n  and\n    /* \"#utility.yul\":156:174   */\n  dup1\n    /* \"#utility.yul\":146:227   */\n  tag_23\n  jumpi\n    /* \"#utility.yul\":212:216   */\n  0x7f\n    /* \"#utility.yul\":204:210   */\n  dup3\n    /* \"#utility.yul\":200:217   */\n  and\n    /* \"#utility.yul\":190:217   */\n  swap2\n  pop\n    /* \"#utility.yul\":146:227   */\ntag_23:\n    /* \"#utility.yul\":274:276   */\n  0x20\n    /* \"#utility.yul\":266:272   */\n  dup3\n    /* \"#utility.yul\":263:277   */\n  lt\n    /* \"#utility.yul\":243:261   */\n  dup2\n    /* \"#utility.yul\":240:278   */\n  eq\n    /* \"#utility.yul\":237:321   */\n  iszero\n  tag_24\n  jumpi\n    /* \"#utility.yul\":293:311   */\n  tag_25\n  tag_26\n  jump\t// in\ntag_25:\n    /* \"#utility.yul\":237:321   */\ntag_24:\n    /* \"#utility.yul\":58:327   */\n  pop\n    /* \"#utility.yul\":7:327   */\n  swap2\n  swap1\n  pop\n  jump\t// out\n    /* \"#utility.yul\":333:513   */\ntag_26:\n    /* \"#utility.yul\":381:458   */\n  0x4e487b7100000000000000000000000000000000000000000000000000000000\n    /* \"#utility.yul\":378:379   */\n  0x00\n    /* \"#utility.yul\":371:459   */\n  mstore\n    /* \"#utility.yul\":478:482   */\n  0x22\n    /* \"#utility.yul\":475:476   */\n  0x04\n    /* \"#utility.yul\":468:483   */\n  mstore\n    /* \"#utility.yul\":502:506   */\n  0x24\n    /* \"#utility.yul\":499:500   */\n  0x00\n    /* \"#utility.yul\":492:507   */\n  revert\n    /* \"Qvoting.sol\":343:3815  contract Qvoting is proposalEvents, QVtoken{\r... */\ntag_9:\n  dataSize(sub_0)\n  dup1\n  dataOffset(sub_0)\n  0x00\n  codecopy\n  0x00\n  return\nstop\n\nsub_0: assembly {\n        /* \"Qvoting.sol\":343:3815  contract Qvoting is proposalEvents, QVtoken{\r... */\n      mstore(0x40, 0x80)\n      callvalue\n      dup1\n      iszero\n      tag_1\n      jumpi\n      0x00\n      dup1\n      revert\n    tag_1:\n      pop\n      jumpi(tag_2, lt(calldatasize, 0x04))\n      shr(0xe0, calldataload(0x00))\n      dup1\n      0x70a08231\n      gt\n      tag_13\n      jumpi\n      dup1\n      0x70a08231\n      eq\n      tag_8\n      jumpi\n      dup1\n      0x95d89b41\n      eq\n      tag_9\n      jumpi\n      dup1\n      0xc3703048\n      eq\n      tag_10\n      jumpi\n      dup1\n      0xdb5e8038\n      eq\n      tag_11\n      jumpi\n      dup1\n      0xe745d68e\n      eq\n      tag_12\n      jumpi\n      jump(tag_2)\n    tag_13:\n      dup1\n      0x013cf08b\n      eq\n      tag_3\n      jumpi\n      dup1\n      0x06fdde03\n      eq\n      tag_4\n      jumpi\n      dup1\n      0x18160ddd\n      eq\n      tag_5\n      jumpi\n      dup1\n      0x313ce567\n      eq\n      tag_6\n      jumpi\n      dup1\n      0x4de77e48\n      eq\n      tag_7\n      jumpi\n    tag_2:\n      0x00\n      dup1\n      revert\n        /* \"Qvoting.sol\":1166:1224  mapping(uint => proposalLibrary.proposal) public proposals */\n    tag_3:\n      tag_14\n      0x04\n      dup1\n      calldatasize\n      sub\n      dup2\n      add\n      swap1\n      tag_15\n      swap2\n      swap1\n      tag_16\n      jump\t// in\n    tag_15:\n      tag_17\n      jump\t// in\n    tag_14:\n      mload(0x40)\n      tag_18\n      swap7\n      swap6\n      swap5\n      swap4\n      swap3\n      swap2\n      swap1\n      tag_19\n      jump\t// in\n    tag_18:\n      mload(0x40)\n      dup1\n      swap2\n      sub\n      swap1\n      return\n        /* \"QvToken/ERC20.sol\":2202:2302  function name() public view virtual override returns (string memory) {\r... */\n    tag_4:\n      tag_20\n      tag_21\n      jump\t// in\n    tag_20:\n      mload(0x40)\n      tag_22\n      swap2\n      swap1\n      tag_23\n      jump\t// in\n    tag_22:\n      mload(0x40)\n      dup1\n      swap2\n      sub\n      swap1\n      return\n        /* \"QvToken/ERC20.sol\":3322:3430  function totalSupply() public view virtual override returns (uint256) {\r... */\n    tag_5:\n      tag_24\n      tag_25\n      jump\t// in\n    tag_24:\n      mload(0x40)\n      tag_26\n      swap2\n      swap1\n      tag_27\n      jump\t// in\n    tag_26:\n      mload(0x40)\n      dup1\n      swap2\n      sub\n      swap1\n      return\n        /* \"QvToken/ERC20.sol\":3164:3257  function decimals() public view virtual override returns (uint8) {\r... */\n    tag_6:\n      tag_28\n      tag_29\n      jump\t// in\n    tag_28:\n      mload(0x40)\n      tag_30\n      swap2\n      swap1\n      tag_31\n      jump\t// in\n    tag_30:\n      mload(0x40)\n      dup1\n      swap2\n      sub\n      swap1\n      return\n        /* \"Qvoting.sol\":1810:3021  function createProposal(uint8 _status, address[] memory _voters, address _creator,\r... */\n    tag_7:\n      tag_32\n      0x04\n      dup1\n      calldatasize\n      sub\n      dup2\n      add\n      swap1\n      tag_33\n      swap2\n      swap1\n      tag_34\n      jump\t// in\n    tag_33:\n      tag_35\n      jump\t// in\n    tag_32:\n      stop\n        /* \"QvToken/ERC20.sol\":3493:3620  function balanceOf(address account) public view virtual override returns (uint256) {\r... */\n    tag_8:\n      tag_36\n      0x04\n      dup1\n      calldatasize\n      sub\n      dup2\n      add\n      swap1\n      tag_37\n      swap2\n      swap1\n      tag_38\n      jump\t// in\n    tag_37:\n      tag_39\n      jump\t// in\n    tag_36:\n      mload(0x40)\n      tag_40\n      swap2\n      swap1\n      tag_27\n      jump\t// in\n    tag_40:\n      mload(0x40)\n      dup1\n      swap2\n      sub\n      swap1\n      return\n        /* \"QvToken/ERC20.sol\":2421:2525  function symbol() public view virtual override returns (string memory) {\r... */\n    tag_9:\n      tag_41\n      tag_42\n      jump\t// in\n    tag_41:\n      mload(0x40)\n      tag_43\n      swap2\n      swap1\n      tag_23\n      jump\t// in\n    tag_43:\n      mload(0x40)\n      dup1\n      swap2\n      sub\n      swap1\n      return\n        /* \"Qvoting.sol\":1262:1317  mapping(address => voterLibrary.voter) public allVoters */\n    tag_10:\n      tag_44\n      0x04\n      dup1\n      calldatasize\n      sub\n      dup2\n      add\n      swap1\n      tag_45\n      swap2\n      swap1\n      tag_38\n      jump\t// in\n    tag_45:\n      tag_46\n      jump\t// in\n    tag_44:\n      mload(0x40)\n      tag_47\n      swap5\n      swap4\n      swap3\n      swap2\n      swap1\n      tag_48\n      jump\t// in\n    tag_47:\n      mload(0x40)\n      dup1\n      swap2\n      sub\n      swap1\n      return\n        /* \"Qvoting.sol\":3029:3812  function responsePoll(uint _proposalId,address _voter, string memory _hash, uint v) external {\r... */\n    tag_11:\n      tag_49\n      0x04\n      dup1\n      calldatasize\n      sub\n      dup2\n      add\n      swap1\n      tag_50\n      swap2\n      swap1\n      tag_51\n      jump\t// in\n    tag_50:\n      tag_52\n      jump\t// in\n    tag_49:\n      stop\n        /* \"Qvoting.sol\":1063:1135  mapping(address => UserProposalLibrary.UserProposal) public userProposal */\n    tag_12:\n      tag_53\n      0x04\n      dup1\n      calldatasize\n      sub\n      dup2\n      add\n      swap1\n      tag_54\n      swap2\n      swap1\n      tag_38\n      jump\t// in\n    tag_54:\n      tag_55\n      jump\t// in\n    tag_53:\n      mload(0x40)\n      tag_56\n      swap3\n      swap2\n      swap1\n      tag_57\n      jump\t// in\n    tag_56:\n      mload(0x40)\n      dup1\n      swap2\n      sub\n      swap1\n      return\n        /* \"Qvoting.sol\":1166:1224  mapping(uint => proposalLibrary.proposal) public proposals */\n    tag_17:\n      mstore(0x20, 0x07)\n      dup1\n      0x00\n      mstore\n      keccak256(0x00, 0x40)\n      0x00\n      swap2\n      pop\n      swap1\n      pop\n      dup1\n      0x00\n      add\n      0x00\n      swap1\n      sload\n      swap1\n      0x0100\n      exp\n      swap1\n      div\n      0xffffffffffffffffffffffffffffffffffffffff\n      and\n      swap1\n      dup1\n      0x00\n      add\n      0x14\n      swap1\n      sload\n      swap1\n      0x0100\n      exp\n      swap1\n      div\n      0xff\n      and\n      swap1\n      dup1\n      0x01\n      add\n      dup1\n      sload\n      tag_58\n      swap1\n      tag_59\n      jump\t// in\n    tag_58:\n      dup1\n      0x1f\n      add\n      0x20\n      dup1\n      swap2\n      div\n      mul\n      0x20\n      add\n      mload(0x40)\n      swap1\n      dup2\n      add\n      0x40\n      mstore\n      dup1\n      swap3\n      swap2\n      swap1\n      dup2\n      dup2\n      mstore\n      0x20\n      add\n      dup3\n      dup1\n      sload\n      tag_60\n      swap1\n      tag_59\n      jump\t// in\n    tag_60:\n      dup1\n      iszero\n      tag_61\n      jumpi\n      dup1\n      0x1f\n      lt\n      tag_62\n      jumpi\n      0x0100\n      dup1\n      dup4\n      sload\n      div\n      mul\n      dup4\n      mstore\n      swap2\n      0x20\n      add\n      swap2\n      jump(tag_61)\n    tag_62:\n      dup3\n      add\n      swap2\n      swap1\n      0x00\n      mstore\n      keccak256(0x00, 0x20)\n      swap1\n    tag_63:\n      dup2\n      sload\n      dup2\n      mstore\n      swap1\n      0x01\n      add\n      swap1\n      0x20\n      add\n      dup1\n      dup4\n      gt\n      tag_63\n      jumpi\n      dup3\n      swap1\n      sub\n      0x1f\n      and\n      dup3\n      add\n      swap2\n    tag_61:\n      pop\n      pop\n      pop\n      pop\n      pop\n      swap1\n      dup1\n      0x02\n      add\n      sload\n      swap1\n      dup1\n      0x03\n      add\n      sload\n      swap1\n      dup1\n      0x04\n      add\n      0x00\n      swap1\n      sload\n      swap1\n      0x0100\n      exp\n      swap1\n      div\n      0xffff\n      and\n      swap1\n      pop\n      dup7\n      jump\t// out\n        /* \"QvToken/ERC20.sol\":2202:2302  function name() public view virtual override returns (string memory) {\r... */\n    tag_21:\n        /* \"QvToken/ERC20.sol\":2256:2269  string memory */\n      0x60\n        /* \"QvToken/ERC20.sol\":2289:2294  _name */\n      0x02\n        /* \"QvToken/ERC20.sol\":2282:2294  return _name */\n      dup1\n      sload\n      tag_65\n      swap1\n      tag_59\n      jump\t// in\n    tag_65:\n      dup1\n      0x1f\n      add\n      0x20\n      dup1\n      swap2\n      div\n      mul\n      0x20\n      add\n      mload(0x40)\n      swap1\n      dup2\n      add\n      0x40\n      mstore\n      dup1\n      swap3\n      swap2\n      swap1\n      dup2\n      dup2\n      mstore\n      0x20\n      add\n      dup3\n      dup1\n      sload\n      tag_66\n      swap1\n      tag_59\n      jump\t// in\n    tag_66:\n      dup1\n      iszero\n      tag_67\n      jumpi\n      dup1\n      0x1f\n      lt\n      tag_68\n      jumpi\n      0x0100\n      dup1\n      dup4\n      sload\n      div\n      mul\n      dup4\n      mstore\n      swap2\n      0x20\n      add\n      swap2\n      jump(tag_67)\n    tag_68:\n      dup3\n      add\n      swap2\n      swap1\n      0x00\n      mstore\n      keccak256(0x00, 0x20)\n      swap1\n    tag_69:\n      dup2\n      sload\n      dup2\n      mstore\n      swap1\n      0x01\n      add\n      swap1\n      0x20\n      add\n      dup1\n      dup4\n      gt\n      tag_69\n      jumpi\n      dup3\n      swap1\n      sub\n      0x1f\n      and\n      dup3\n      add\n      swap2\n    tag_67:\n      pop\n      pop\n      pop\n      pop\n      pop\n      swap1\n      pop\n        /* \"QvToken/ERC20.sol\":2202:2302  function name() public view virtual override returns (string memory) {\r... */\n      swap1\n      jump\t// out\n        /* \"QvToken/ERC20.sol\":3322:3430  function totalSupply() public view virtual override returns (uint256) {\r... */\n    tag_25:\n        /* \"QvToken/ERC20.sol\":3383:3390  uint256 */\n      0x00\n        /* \"QvToken/ERC20.sol\":3410:3422  _totalSupply */\n      sload(0x01)\n        /* \"QvToken/ERC20.sol\":3403:3422  return _totalSupply */\n      swap1\n      pop\n        /* \"QvToken/ERC20.sol\":3322:3430  function totalSupply() public view virtual override returns (uint256) {\r... */\n      swap1\n      jump\t// out\n        /* \"QvToken/ERC20.sol\":3164:3257  function decimals() public view virtual override returns (uint8) {\r... */\n    tag_29:\n        /* \"QvToken/ERC20.sol\":3222:3227  uint8 */\n      0x00\n        /* \"QvToken/ERC20.sol\":3247:3249  18 */\n      0x12\n        /* \"QvToken/ERC20.sol\":3240:3249  return 18 */\n      swap1\n      pop\n        /* \"QvToken/ERC20.sol\":3164:3257  function decimals() public view virtual override returns (uint8) {\r... */\n      swap1\n      jump\t// out\n        /* \"Qvoting.sol\":1810:3021  function createProposal(uint8 _status, address[] memory _voters, address _creator,\r... */\n    tag_35:\n        /* \"Qvoting.sol\":2183:2193  _startTime */\n      dup6\n        /* \"Qvoting.sol\":2165:2180  block.timestamp */\n      timestamp\n        /* \"Qvoting.sol\":2165:2193  block.timestamp < _startTime */\n      lt\n        /* \"Qvoting.sol\":2157:2217  require(block.timestamp < _startTime,\"proposal not started\") */\n      tag_73\n      jumpi\n      mload(0x40)\n      0x08c379a000000000000000000000000000000000000000000000000000000000\n      dup2\n      mstore\n      0x04\n      add\n      tag_74\n      swap1\n      tag_75\n      jump\t// in\n    tag_74:\n      mload(0x40)\n      dup1\n      swap2\n      sub\n      swap1\n      revert\n    tag_73:\n        /* \"Qvoting.sol\":2254:2269  _expirationTime */\n      dup5\n        /* \"Qvoting.sol\":2236:2251  block.timestamp */\n      timestamp\n        /* \"Qvoting.sol\":2236:2269  block.timestamp < _expirationTime */\n      lt\n        /* \"Qvoting.sol\":2228:2317  require(block.timestamp < _expirationTime,\"End time should be greater than current time\") */\n      tag_76\n      jumpi\n      mload(0x40)\n      0x08c379a000000000000000000000000000000000000000000000000000000000\n      dup2\n      mstore\n      0x04\n      add\n      tag_77\n      swap1\n      tag_78\n      jump\t// in\n    tag_77:\n      mload(0x40)\n      dup1\n      swap2\n      sub\n      swap1\n      revert\n    tag_76:\n        /* \"Qvoting.sol\":2349:2364  _expirationTime */\n      dup5\n        /* \"Qvoting.sol\":2336:2346  _startTime */\n      dup7\n        /* \"Qvoting.sol\":2336:2364  _startTime < _expirationTime */\n      lt\n        /* \"Qvoting.sol\":2328:2410  require(_startTime < _expirationTime,\"End time should be greater than start time\") */\n      tag_79\n      jumpi\n      mload(0x40)\n      0x08c379a000000000000000000000000000000000000000000000000000000000\n      dup2\n      mstore\n      0x04\n      add\n      tag_80\n      swap1\n      tag_81\n      jump\t// in\n    tag_80:\n      mload(0x40)\n      dup1\n      swap2\n      sub\n      swap1\n      revert\n    tag_79:\n        /* \"Qvoting.sol\":2423:2433  proposalId */\n      0x05\n      0x00\n        /* \"Qvoting.sol\":2423:2435  proposalId++ */\n      dup2\n      sload\n      dup1\n      swap3\n      swap2\n      swap1\n      tag_82\n      swap1\n      tag_83\n      jump\t// in\n    tag_82:\n      swap2\n      swap1\n      pop\n      sstore\n      pop\n        /* \"Qvoting.sol\":2446:2547  proposals[proposalId].createProposal(_status,_voters,_creator,_startTime,_expirationTime,_disc,_cand) */\n      tag_84\n        /* \"Qvoting.sol\":2483:2490  _status */\n      dup10\n        /* \"Qvoting.sol\":2491:2498  _voters */\n      dup10\n        /* \"Qvoting.sol\":2499:2507  _creator */\n      dup10\n        /* \"Qvoting.sol\":2508:2518  _startTime */\n      dup10\n        /* \"Qvoting.sol\":2519:2534  _expirationTime */\n      dup10\n        /* \"Qvoting.sol\":2535:2540  _disc */\n      dup10\n        /* \"Qvoting.sol\":2541:2546  _cand */\n      dup10\n      dup10\n        /* \"Qvoting.sol\":2446:2455  proposals */\n      0x07\n        /* \"Qvoting.sol\":2446:2467  proposals[proposalId] */\n      0x00\n        /* \"Qvoting.sol\":2456:2466  proposalId */\n      sload(0x05)\n        /* \"Qvoting.sol\":2446:2467  proposals[proposalId] */\n      dup2\n      mstore\n      0x20\n      add\n      swap1\n      dup2\n      mstore\n      0x20\n      add\n      0x00\n      keccak256\n        /* \"Qvoting.sol\":2446:2482  proposals[proposalId].createProposal */\n      tag_85\n      swap1\n        /* \"Qvoting.sol\":2446:2547  proposals[proposalId].createProposal(_status,_voters,_creator,_startTime,_expirationTime,_disc,_cand) */\n      swap9\n      swap8\n      swap7\n      swap6\n      swap5\n      swap4\n      swap3\n      swap2\n      swap1\n      0xffffffff\n      and\n      jump\t// in\n    tag_84:\n      pop\n        /* \"Qvoting.sol\":2563:2647  ProposalCreated(proposalId, _voters,_creator,_startTime,_expirationTime,_disc,_cand) */\n      0x239a8a71a7d1cb0d134f6cc072ad6390e36a88c8e78dff69013ee79528441e80\n        /* \"Qvoting.sol\":2579:2589  proposalId */\n      sload(0x05)\n        /* \"Qvoting.sol\":2591:2598  _voters */\n      dup10\n        /* \"Qvoting.sol\":2599:2607  _creator */\n      dup10\n        /* \"Qvoting.sol\":2608:2618  _startTime */\n      dup10\n        /* \"Qvoting.sol\":2619:2634  _expirationTime */\n      dup10\n        /* \"Qvoting.sol\":2635:2640  _disc */\n      dup10\n        /* \"Qvoting.sol\":2641:2646  _cand */\n      dup10\n      dup10\n        /* \"Qvoting.sol\":2563:2647  ProposalCreated(proposalId, _voters,_creator,_startTime,_expirationTime,_disc,_cand) */\n      mload(0x40)\n      tag_86\n      swap9\n      swap8\n      swap7\n      swap6\n      swap5\n      swap4\n      swap3\n      swap2\n      swap1\n      tag_87\n      jump\t// in\n    tag_86:\n      mload(0x40)\n      dup1\n      swap2\n      sub\n      swap1\n      log1\n        /* \"Qvoting.sol\":2687:2691  true */\n      0x01\n        /* \"Qvoting.sol\":2658:2672  validProposals */\n      0x09\n        /* \"Qvoting.sol\":2658:2684  validProposals[proposalId] */\n      0x00\n        /* \"Qvoting.sol\":2673:2683  proposalId */\n      sload(0x05)\n        /* \"Qvoting.sol\":2658:2684  validProposals[proposalId] */\n      dup2\n      mstore\n      0x20\n      add\n      swap1\n      dup2\n      mstore\n      0x20\n      add\n      0x00\n      keccak256\n      0x00\n        /* \"Qvoting.sol\":2658:2691  validProposals[proposalId] = true */\n      0x0100\n      exp\n      dup2\n      sload\n      dup2\n      0xff\n      mul\n      not\n      and\n      swap1\n      dup4\n      iszero\n      iszero\n      mul\n      or\n      swap1\n      sstore\n      pop\n        /* \"Qvoting.sol\":2706:2715  uint256 i */\n      0x00\n        /* \"Qvoting.sol\":2702:2946  for(uint256 i=0;i<_voters.length;i++){\r... */\n    tag_88:\n        /* \"Qvoting.sol\":2720:2727  _voters */\n      dup9\n        /* \"Qvoting.sol\":2720:2734  _voters.length */\n      mload\n        /* \"Qvoting.sol\":2718:2719  i */\n      dup2\n        /* \"Qvoting.sol\":2718:2734  i<_voters.length */\n      lt\n        /* \"Qvoting.sol\":2702:2946  for(uint256 i=0;i<_voters.length;i++){\r... */\n      iszero\n      tag_89\n      jumpi\n        /* \"Qvoting.sol\":2754:2780  mint(_voters[i],voteRight) */\n      tag_91\n        /* \"Qvoting.sol\":2759:2766  _voters */\n      dup10\n        /* \"Qvoting.sol\":2767:2768  i */\n      dup3\n        /* \"Qvoting.sol\":2759:2769  _voters[i] */\n      dup2\n      mload\n      dup2\n      lt\n      tag_92\n      jumpi\n      tag_93\n      tag_94\n      jump\t// in\n    tag_93:\n    tag_92:\n      0x20\n      mul\n      0x20\n      add\n      add\n      mload\n        /* \"Qvoting.sol\":2770:2779  voteRight */\n      dup4\n        /* \"Qvoting.sol\":2754:2758  mint */\n      tag_95\n        /* \"Qvoting.sol\":2754:2780  mint(_voters[i],voteRight) */\n      jump\t// in\n    tag_91:\n        /* \"Qvoting.sol\":2795:2870  allVoters[_voters[i]].createVoter(proposalId, _voters[i], false, voteRight) */\n      tag_96\n        /* \"Qvoting.sol\":2829:2839  proposalId */\n      sload(0x05)\n        /* \"Qvoting.sol\":2841:2848  _voters */\n      dup11\n        /* \"Qvoting.sol\":2849:2850  i */\n      dup4\n        /* \"Qvoting.sol\":2841:2851  _voters[i] */\n      dup2\n      mload\n      dup2\n      lt\n      tag_97\n      jumpi\n      tag_98\n      tag_94\n      jump\t// in\n    tag_98:\n    tag_97:\n      0x20\n      mul\n      0x20\n      add\n      add\n      mload\n        /* \"Qvoting.sol\":2853:2858  false */\n      0x00\n        /* \"Qvoting.sol\":2860:2869  voteRight */\n      dup6\n        /* \"Qvoting.sol\":2795:2804  allVoters */\n      0x08\n        /* \"Qvoting.sol\":2795:2816  allVoters[_voters[i]] */\n      0x00\n        /* \"Qvoting.sol\":2805:2812  _voters */\n      dup16\n        /* \"Qvoting.sol\":2813:2814  i */\n      dup9\n        /* \"Qvoting.sol\":2805:2815  _voters[i] */\n      dup2\n      mload\n      dup2\n      lt\n      tag_99\n      jumpi\n      tag_100\n      tag_94\n      jump\t// in\n    tag_100:\n    tag_99:\n      0x20\n      mul\n      0x20\n      add\n      add\n      mload\n        /* \"Qvoting.sol\":2795:2816  allVoters[_voters[i]] */\n      0xffffffffffffffffffffffffffffffffffffffff\n      and\n      0xffffffffffffffffffffffffffffffffffffffff\n      and\n      dup2\n      mstore\n      0x20\n      add\n      swap1\n      dup2\n      mstore\n      0x20\n      add\n      0x00\n      keccak256\n        /* \"Qvoting.sol\":2795:2828  allVoters[_voters[i]].createVoter */\n      tag_101\n      swap1\n        /* \"Qvoting.sol\":2795:2870  allVoters[_voters[i]].createVoter(proposalId, _voters[i], false, voteRight) */\n      swap5\n      swap4\n      swap3\n      swap2\n      swap1\n      0xffffffff\n      and\n      jump\t// in\n    tag_96:\n      pop\n        /* \"Qvoting.sol\":2890:2930  mintAndburn(\"mint\",_voters[i],voteRight) */\n      0xabf5327be9f5825c40d58bda541dd07f09b62df3376bbd5ecdbaa8bd82a9d492\n        /* \"Qvoting.sol\":2909:2916  _voters */\n      dup10\n        /* \"Qvoting.sol\":2917:2918  i */\n      dup3\n        /* \"Qvoting.sol\":2909:2919  _voters[i] */\n      dup2\n      mload\n      dup2\n      lt\n      tag_102\n      jumpi\n      tag_103\n      tag_94\n      jump\t// in\n    tag_103:\n    tag_102:\n      0x20\n      mul\n      0x20\n      add\n      add\n      mload\n        /* \"Qvoting.sol\":2920:2929  voteRight */\n      dup4\n        /* \"Qvoting.sol\":2890:2930  mintAndburn(\"mint\",_voters[i],voteRight) */\n      mload(0x40)\n      tag_104\n      swap3\n      swap2\n      swap1\n      tag_105\n      jump\t// in\n    tag_104:\n      mload(0x40)\n      dup1\n      swap2\n      sub\n      swap1\n      log1\n        /* \"Qvoting.sol\":2735:2738  i++ */\n      dup1\n      dup1\n      tag_106\n      swap1\n      tag_83\n      jump\t// in\n    tag_106:\n      swap2\n      pop\n      pop\n        /* \"Qvoting.sol\":2702:2946  for(uint256 i=0;i<_voters.length;i++){\r... */\n      jump(tag_88)\n    tag_89:\n      pop\n        /* \"Qvoting.sol\":2956:3013  userProposal[_msgSender()].updateProposalList(proposalId) */\n      tag_107\n        /* \"Qvoting.sol\":3002:3012  proposalId */\n      sload(0x05)\n        /* \"Qvoting.sol\":2956:2968  userProposal */\n      0x06\n        /* \"Qvoting.sol\":2956:2982  userProposal[_msgSender()] */\n      0x00\n        /* \"Qvoting.sol\":2969:2981  _msgSender() */\n      tag_108\n        /* \"Qvoting.sol\":2969:2979  _msgSender */\n      tag_109\n        /* \"Qvoting.sol\":2969:2981  _msgSender() */\n      jump\t// in\n    tag_108:\n        /* \"Qvoting.sol\":2956:2982  userProposal[_msgSender()] */\n      0xffffffffffffffffffffffffffffffffffffffff\n      and\n      0xffffffffffffffffffffffffffffffffffffffff\n      and\n      dup2\n      mstore\n      0x20\n      add\n      swap1\n      dup2\n      mstore\n      0x20\n      add\n      0x00\n      keccak256\n        /* \"Qvoting.sol\":2956:3001  userProposal[_msgSender()].updateProposalList */\n      tag_110\n      swap1\n        /* \"Qvoting.sol\":2956:3013  userProposal[_msgSender()].updateProposalList(proposalId) */\n      swap2\n      swap1\n      0xffffffff\n      and\n      jump\t// in\n    tag_107:\n      pop\n        /* \"Qvoting.sol\":1810:3021  function createProposal(uint8 _status, address[] memory _voters, address _creator,\r... */\n      pop\n      pop\n      pop\n      pop\n      pop\n      pop\n      pop\n      pop\n      pop\n      jump\t// out\n        /* \"QvToken/ERC20.sol\":3493:3620  function balanceOf(address account) public view virtual override returns (uint256) {\r... */\n    tag_39:\n        /* \"QvToken/ERC20.sol\":3567:3574  uint256 */\n      0x00\n        /* \"QvToken/ERC20.sol\":3594:3603  _balances */\n      dup1\n        /* \"QvToken/ERC20.sol\":3594:3612  _balances[account] */\n      0x00\n        /* \"QvToken/ERC20.sol\":3604:3611  account */\n      dup4\n        /* \"QvToken/ERC20.sol\":3594:3612  _balances[account] */\n      0xffffffffffffffffffffffffffffffffffffffff\n      and\n      0xffffffffffffffffffffffffffffffffffffffff\n      and\n      dup2\n      mstore\n      0x20\n      add\n      swap1\n      dup2\n      mstore\n      0x20\n      add\n      0x00\n      keccak256\n      sload\n        /* \"QvToken/ERC20.sol\":3587:3612  return _balances[account] */\n      swap1\n      pop\n        /* \"QvToken/ERC20.sol\":3493:3620  function balanceOf(address account) public view virtual override returns (uint256) {\r... */\n      swap2\n      swap1\n      pop\n      jump\t// out\n        /* \"QvToken/ERC20.sol\":2421:2525  function symbol() public view virtual override returns (string memory) {\r... */\n    tag_42:\n        /* \"QvToken/ERC20.sol\":2477:2490  string memory */\n      0x60\n        /* \"QvToken/ERC20.sol\":2510:2517  _symbol */\n      0x03\n        /* \"QvToken/ERC20.sol\":2503:2517  return _symbol */\n      dup1\n      sload\n      tag_113\n      swap1\n      tag_59\n      jump\t// in\n    tag_113:\n      dup1\n      0x1f\n      add\n      0x20\n      dup1\n      swap2\n      div\n      mul\n      0x20\n      add\n      mload(0x40)\n      swap1\n      dup2\n      add\n      0x40\n      mstore\n      dup1\n      swap3\n      swap2\n      swap1\n      dup2\n      dup2\n      mstore\n      0x20\n      add\n      dup3\n      dup1\n      sload\n      tag_114\n      swap1\n      tag_59\n      jump\t// in\n    tag_114:\n      dup1\n      iszero\n      tag_115\n      jumpi\n      dup1\n      0x1f\n      lt\n      tag_116\n      jumpi\n      0x0100\n      dup1\n      dup4\n      sload\n      div\n      mul\n      dup4\n      mstore\n      swap2\n      0x20\n      add\n      swap2\n      jump(tag_115)\n    tag_116:\n      dup3\n      add\n      swap2\n      swap1\n      0x00\n      mstore\n      keccak256(0x00, 0x20)\n      swap1\n    tag_117:\n      dup2\n      sload\n      dup2\n      mstore\n      swap1\n      0x01\n      add\n      swap1\n      0x20\n      add\n      dup1\n      dup4\n      gt\n      tag_117\n      jumpi\n      dup3\n      swap1\n      sub\n      0x1f\n      and\n      dup3\n      add\n      swap2\n    tag_115:\n      pop\n      pop\n      pop\n      pop\n      pop\n      swap1\n      pop\n        /* \"QvToken/ERC20.sol\":2421:2525  function symbol() public view virtual override returns (string memory) {\r... */\n      swap1\n      jump\t// out\n        /* \"Qvoting.sol\":1262:1317  mapping(address => voterLibrary.voter) public allVoters */\n    tag_46:\n      mstore(0x20, 0x08)\n      dup1\n      0x00\n      mstore\n      keccak256(0x00, 0x40)\n      0x00\n      swap2\n      pop\n      swap1\n      pop\n      dup1\n      0x00\n      add\n      sload\n      swap1\n      dup1\n      0x01\n      add\n      0x00\n      swap1\n      sload\n      swap1\n      0x0100\n      exp\n      swap1\n      div\n      0xffffffffffffffffffffffffffffffffffffffff\n      and\n      swap1\n      dup1\n      0x01\n      add\n      0x14\n      swap1\n      sload\n      swap1\n      0x0100\n      exp\n      swap1\n      div\n      0xff\n      and\n      swap1\n      dup1\n      0x02\n      add\n      sload\n      swap1\n      pop\n      dup5\n      jump\t// out\n        /* \"Qvoting.sol\":3029:3812  function responsePoll(uint _proposalId,address _voter, string memory _hash, uint v) external {\r... */\n    tag_52:\n        /* \"Qvoting.sol\":3234:3248  validProposals */\n      0x09\n        /* \"Qvoting.sol\":3234:3261  validProposals[_proposalId] */\n      0x00\n        /* \"Qvoting.sol\":3249:3260  _proposalId */\n      dup6\n        /* \"Qvoting.sol\":3234:3261  validProposals[_proposalId] */\n      dup2\n      mstore\n      0x20\n      add\n      swap1\n      dup2\n      mstore\n      0x20\n      add\n      0x00\n      keccak256\n      0x00\n      swap1\n      sload\n      swap1\n      0x0100\n      exp\n      swap1\n      div\n      0xff\n      and\n        /* \"Qvoting.sol\":3226:3283  require(validProposals[_proposalId],\"invalid proposalId\") */\n      tag_119\n      jumpi\n      mload(0x40)\n      0x08c379a000000000000000000000000000000000000000000000000000000000\n      dup2\n      mstore\n      0x04\n      add\n      tag_120\n      swap1\n      tag_121\n      jump\t// in\n    tag_120:\n      mload(0x40)\n      dup1\n      swap2\n      sub\n      swap1\n      revert\n    tag_119:\n        /* \"Qvoting.sol\":3334:3345  _proposalId */\n      dup4\n        /* \"Qvoting.sol\":3302:3311  allVoters */\n      0x08\n        /* \"Qvoting.sol\":3302:3319  allVoters[_voter] */\n      0x00\n        /* \"Qvoting.sol\":3312:3318  _voter */\n      dup6\n        /* \"Qvoting.sol\":3302:3319  allVoters[_voter] */\n      0xffffffffffffffffffffffffffffffffffffffff\n      and\n      0xffffffffffffffffffffffffffffffffffffffff\n      and\n      dup2\n      mstore\n      0x20\n      add\n      swap1\n      dup2\n      mstore\n      0x20\n      add\n      0x00\n      keccak256\n        /* \"Qvoting.sol\":3302:3330  allVoters[_voter].proposalId */\n      0x00\n      add\n      sload\n        /* \"Qvoting.sol\":3302:3345  allVoters[_voter].proposalId == _proposalId */\n      eq\n        /* \"Qvoting.sol\":3294:3385  require(allVoters[_voter].proposalId == _proposalId, \"not a valid voter for this proposal\") */\n      tag_122\n      jumpi\n      mload(0x40)\n      0x08c379a000000000000000000000000000000000000000000000000000000000\n      dup2\n      mstore\n      0x04\n      add\n      tag_123\n      swap1\n      tag_124\n      jump\t// in\n    tag_123:\n      mload(0x40)\n      dup1\n      swap2\n      sub\n      swap1\n      revert\n    tag_122:\n        /* \"Qvoting.sol\":3405:3414  allVoters */\n      0x08\n        /* \"Qvoting.sol\":3405:3422  allVoters[_voter] */\n      0x00\n        /* \"Qvoting.sol\":3415:3421  _voter */\n      dup5\n        /* \"Qvoting.sol\":3405:3422  allVoters[_voter] */\n      0xffffffffffffffffffffffffffffffffffffffff\n      and\n      0xffffffffffffffffffffffffffffffffffffffff\n      and\n      dup2\n      mstore\n      0x20\n      add\n      swap1\n      dup2\n      mstore\n      0x20\n      add\n      0x00\n      keccak256\n        /* \"Qvoting.sol\":3405:3431  allVoters[_voter].hasVoted */\n      0x01\n      add\n      0x14\n      swap1\n      sload\n      swap1\n      0x0100\n      exp\n      swap1\n      div\n      0xff\n      and\n        /* \"Qvoting.sol\":3404:3431  !allVoters[_voter].hasVoted */\n      iszero\n        /* \"Qvoting.sol\":3396:3449  require(!allVoters[_voter].hasVoted, \"already voted\") */\n      tag_125\n      jumpi\n      mload(0x40)\n      0x08c379a000000000000000000000000000000000000000000000000000000000\n      dup2\n      mstore\n      0x04\n      add\n      tag_126\n      swap1\n      tag_127\n      jump\t// in\n    tag_126:\n      mload(0x40)\n      dup1\n      swap2\n      sub\n      swap1\n      revert\n    tag_125:\n        /* \"Qvoting.sol\":3497:3498  v */\n      dup1\n        /* \"Qvoting.sol\":3468:3477  allVoters */\n      0x08\n        /* \"Qvoting.sol\":3468:3485  allVoters[_voter] */\n      0x00\n        /* \"Qvoting.sol\":3478:3484  _voter */\n      dup6\n        /* \"Qvoting.sol\":3468:3485  allVoters[_voter] */\n      0xffffffffffffffffffffffffffffffffffffffff\n      and\n      0xffffffffffffffffffffffffffffffffffffffff\n      and\n      dup2\n      mstore\n      0x20\n      add\n      swap1\n      dup2\n      mstore\n      0x20\n      add\n      0x00\n      keccak256\n        /* \"Qvoting.sol\":3468:3493  allVoters[_voter].voteNum */\n      0x02\n      add\n      sload\n        /* \"Qvoting.sol\":3468:3498  allVoters[_voter].voteNum >= v */\n      lt\n      iszero\n        /* \"Qvoting.sol\":3460:3538  require(allVoters[_voter].voteNum >= v, \"not sufficient balance to cast vote\") */\n      tag_128\n      jumpi\n      mload(0x40)\n      0x08c379a000000000000000000000000000000000000000000000000000000000\n      dup2\n      mstore\n      0x04\n      add\n      tag_129\n      swap1\n      tag_130\n      jump\t// in\n    tag_129:\n      mload(0x40)\n      dup1\n      swap2\n      sub\n      swap1\n      revert\n    tag_128:\n        /* \"Qvoting.sol\":3551:3607  proposals[_proposalId].responseProposal(_voter,_hash, v) */\n      tag_131\n        /* \"Qvoting.sol\":3591:3597  _voter */\n      dup4\n        /* \"Qvoting.sol\":3598:3603  _hash */\n      dup4\n        /* \"Qvoting.sol\":3605:3606  v */\n      dup4\n        /* \"Qvoting.sol\":3551:3560  proposals */\n      0x07\n        /* \"Qvoting.sol\":3551:3573  proposals[_proposalId] */\n      0x00\n        /* \"Qvoting.sol\":3561:3572  _proposalId */\n      dup10\n        /* \"Qvoting.sol\":3551:3573  proposals[_proposalId] */\n      dup2\n      mstore\n      0x20\n      add\n      swap1\n      dup2\n      mstore\n      0x20\n      add\n      0x00\n      keccak256\n        /* \"Qvoting.sol\":3551:3590  proposals[_proposalId].responseProposal */\n      tag_132\n      swap1\n        /* \"Qvoting.sol\":3551:3607  proposals[_proposalId].responseProposal(_voter,_hash, v) */\n      swap4\n      swap3\n      swap2\n      swap1\n      0xffffffff\n      and\n      jump\t// in\n    tag_131:\n      pop\n        /* \"Qvoting.sol\":3620:3685  userProposal[_msgSender()].updateResponseList(_proposalId, _hash) */\n      tag_133\n        /* \"Qvoting.sol\":3666:3677  _proposalId */\n      dup5\n        /* \"Qvoting.sol\":3679:3684  _hash */\n      dup4\n        /* \"Qvoting.sol\":3620:3632  userProposal */\n      0x06\n        /* \"Qvoting.sol\":3620:3646  userProposal[_msgSender()] */\n      0x00\n        /* \"Qvoting.sol\":3633:3645  _msgSender() */\n      tag_134\n        /* \"Qvoting.sol\":3633:3643  _msgSender */\n      tag_109\n        /* \"Qvoting.sol\":3633:3645  _msgSender() */\n      jump\t// in\n    tag_134:\n        /* \"Qvoting.sol\":3620:3646  userProposal[_msgSender()] */\n      0xffffffffffffffffffffffffffffffffffffffff\n      and\n      0xffffffffffffffffffffffffffffffffffffffff\n      and\n      dup2\n      mstore\n      0x20\n      add\n      swap1\n      dup2\n      mstore\n      0x20\n      add\n      0x00\n      keccak256\n        /* \"Qvoting.sol\":3620:3665  userProposal[_msgSender()].updateResponseList */\n      tag_135\n      swap1\n        /* \"Qvoting.sol\":3620:3685  userProposal[_msgSender()].updateResponseList(_proposalId, _hash) */\n      swap3\n      swap2\n      swap1\n      0xffffffff\n      and\n      jump\t// in\n    tag_133:\n      pop\n        /* \"Qvoting.sol\":3698:3731  allVoters[_voter].updateVoteNum() */\n      tag_136\n        /* \"Qvoting.sol\":3698:3707  allVoters */\n      0x08\n        /* \"Qvoting.sol\":3698:3715  allVoters[_voter] */\n      0x00\n        /* \"Qvoting.sol\":3708:3714  _voter */\n      dup6\n        /* \"Qvoting.sol\":3698:3715  allVoters[_voter] */\n      0xffffffffffffffffffffffffffffffffffffffff\n      and\n      0xffffffffffffffffffffffffffffffffffffffff\n      and\n      dup2\n      mstore\n      0x20\n      add\n      swap1\n      dup2\n      mstore\n      0x20\n      add\n      0x00\n      keccak256\n        /* \"Qvoting.sol\":3698:3729  allVoters[_voter].updateVoteNum */\n      tag_137\n        /* \"Qvoting.sol\":3698:3731  allVoters[_voter].updateVoteNum() */\n      jump\t// in\n    tag_136:\n      pop\n        /* \"Qvoting.sol\":3744:3758  burn(_voter,v) */\n      tag_138\n        /* \"Qvoting.sol\":3749:3755  _voter */\n      dup4\n        /* \"Qvoting.sol\":3756:3757  v */\n      dup3\n        /* \"Qvoting.sol\":3744:3748  burn */\n      tag_139\n        /* \"Qvoting.sol\":3744:3758  burn(_voter,v) */\n      jump\t// in\n    tag_138:\n        /* \"Qvoting.sol\":3774:3804  mintAndburn(\"burn\", _voter, v) */\n      0xabf5327be9f5825c40d58bda541dd07f09b62df3376bbd5ecdbaa8bd82a9d492\n        /* \"Qvoting.sol\":3794:3800  _voter */\n      dup4\n        /* \"Qvoting.sol\":3802:3803  v */\n      dup3\n        /* \"Qvoting.sol\":3774:3804  mintAndburn(\"burn\", _voter, v) */\n      mload(0x40)\n      tag_140\n      swap3\n      swap2\n      swap1\n      tag_141\n      jump\t// in\n    tag_140:\n      mload(0x40)\n      dup1\n      swap2\n      sub\n      swap1\n      log1\n        /* \"Qvoting.sol\":3029:3812  function responsePoll(uint _proposalId,address _voter, string memory _hash, uint v) external {\r... */\n      pop\n      pop\n      pop\n      pop\n      jump\t// out\n        /* \"Qvoting.sol\":1063:1135  mapping(address => UserProposalLibrary.UserProposal) public userProposal */\n    tag_55:\n      mstore(0x20, 0x06)\n      dup1\n      0x00\n      mstore\n      keccak256(0x00, 0x40)\n      0x00\n      swap2\n      pop\n      swap1\n      pop\n      dup1\n      0x00\n      add\n      0x00\n      swap1\n      sload\n      swap1\n      0x0100\n      exp\n      swap1\n      div\n      0xffffffffffffffffffffffffffffffff\n      and\n      swap1\n      dup1\n      0x00\n      add\n      0x10\n      swap1\n      sload\n      swap1\n      0x0100\n      exp\n      swap1\n      div\n      0xffffffffffffffffffffffffffffffff\n      and\n      swap1\n      pop\n      dup3\n      jump\t// out\n        /* \"Library/ProposalLibrary.sol\":742:1840  function createProposal(proposal storage self, uint8 _status, address[] memory _voters, address _creator,\r... */\n    tag_85:\n        /* \"Library/ProposalLibrary.sol\":963:967  bool */\n      0x00\n        /* \"Library/ProposalLibrary.sol\":1018:1026  _creator */\n      dup7\n        /* \"Library/ProposalLibrary.sol\":1003:1007  self */\n      dup11\n        /* \"Library/ProposalLibrary.sol\":1003:1015  self.creator */\n      0x00\n      add\n      0x00\n        /* \"Library/ProposalLibrary.sol\":1003:1026  self.creator = _creator */\n      0x0100\n      exp\n      dup2\n      sload\n      dup2\n      0xffffffffffffffffffffffffffffffffffffffff\n      mul\n      not\n      and\n      swap1\n      dup4\n      0xffffffffffffffffffffffffffffffffffffffff\n      and\n      mul\n      or\n      swap1\n      sstore\n      pop\n        /* \"Library/ProposalLibrary.sol\":1075:1082  _status */\n      dup9\n        /* \"Library/ProposalLibrary.sol\":1061:1065  self */\n      dup11\n        /* \"Library/ProposalLibrary.sol\":1061:1072  self.status */\n      0x00\n      add\n      0x14\n        /* \"Library/ProposalLibrary.sol\":1061:1082  self.status = _status */\n      0x0100\n      exp\n      dup2\n      sload\n      dup2\n      0xff\n      mul\n      not\n      and\n      swap1\n      dup4\n      0xff\n      and\n      mul\n      or\n      swap1\n      sstore\n      pop\n        /* \"Library/ProposalLibrary.sol\":1129:1134  _disc */\n      dup4\n        /* \"Library/ProposalLibrary.sol\":1117:1121  self */\n      dup11\n        /* \"Library/ProposalLibrary.sol\":1117:1126  self.disc */\n      0x01\n      add\n        /* \"Library/ProposalLibrary.sol\":1117:1134  self.disc = _disc */\n      swap1\n      dup1\n      mload\n      swap1\n      0x20\n      add\n      swap1\n      tag_143\n      swap3\n      swap2\n      swap1\n      tag_144\n      jump\t// in\n    tag_143:\n      pop\n        /* \"Library/ProposalLibrary.sol\":1186:1196  _startTime */\n      dup6\n        /* \"Library/ProposalLibrary.sol\":1169:1173  self */\n      dup11\n        /* \"Library/ProposalLibrary.sol\":1169:1183  self.startTime */\n      0x02\n      add\n        /* \"Library/ProposalLibrary.sol\":1169:1196  self.startTime = _startTime */\n      dup2\n      swap1\n      sstore\n      pop\n        /* \"Library/ProposalLibrary.sol\":1253:1268  _expirationTime */\n      dup5\n        /* \"Library/ProposalLibrary.sol\":1231:1235  self */\n      dup11\n        /* \"Library/ProposalLibrary.sol\":1231:1250  self.expirationTime */\n      0x03\n      add\n        /* \"Library/ProposalLibrary.sol\":1231:1268  self.expirationTime = _expirationTime */\n      dup2\n      swap1\n      sstore\n      pop\n        /* \"Library/ProposalLibrary.sol\":1330:1335  _cand */\n      dup3\n      dup3\n        /* \"Library/ProposalLibrary.sol\":1330:1342  _cand.length */\n      swap1\n      pop\n        /* \"Library/ProposalLibrary.sol\":1303:1307  self */\n      dup11\n        /* \"Library/ProposalLibrary.sol\":1303:1320  self.numOfOptions */\n      0x04\n      add\n      0x00\n        /* \"Library/ProposalLibrary.sol\":1303:1343  self.numOfOptions = uint16(_cand.length) */\n      0x0100\n      exp\n      dup2\n      sload\n      dup2\n      0xffff\n      mul\n      not\n      and\n      swap1\n      dup4\n      0xffff\n      and\n      mul\n      or\n      swap1\n      sstore\n      pop\n        /* \"Library/ProposalLibrary.sol\":1382:1391  uint256 i */\n      0x00\n        /* \"Library/ProposalLibrary.sol\":1378:1583  for(uint256 i=0;i<_cand.length;i++){\r... */\n    tag_145:\n        /* \"Library/ProposalLibrary.sol\":1396:1401  _cand */\n      dup4\n      dup4\n        /* \"Library/ProposalLibrary.sol\":1396:1408  _cand.length */\n      swap1\n      pop\n        /* \"Library/ProposalLibrary.sol\":1394:1395  i */\n      dup2\n        /* \"Library/ProposalLibrary.sol\":1394:1408  i<_cand.length */\n      lt\n        /* \"Library/ProposalLibrary.sol\":1378:1583  for(uint256 i=0;i<_cand.length;i++){\r... */\n      iszero\n      tag_146\n      jumpi\n        /* \"Library/ProposalLibrary.sol\":1474:1478  true */\n      0x01\n        /* \"Library/ProposalLibrary.sol\":1452:1456  self */\n      dup12\n        /* \"Library/ProposalLibrary.sol\":1452:1461  self.cand */\n      0x06\n      add\n        /* \"Library/ProposalLibrary.sol\":1462:1467  _cand */\n      dup6\n      dup6\n        /* \"Library/ProposalLibrary.sol\":1468:1469  i */\n      dup5\n        /* \"Library/ProposalLibrary.sol\":1462:1470  _cand[i] */\n      dup2\n      dup2\n      lt\n      tag_148\n      jumpi\n      tag_149\n      tag_94\n      jump\t// in\n    tag_149:\n    tag_148:\n      swap1\n      pop\n      0x20\n      mul\n      dup2\n      add\n      swap1\n      tag_150\n      swap2\n      swap1\n      tag_151\n      jump\t// in\n    tag_150:\n        /* \"Library/ProposalLibrary.sol\":1452:1471  self.cand[_cand[i]] */\n      mload(0x40)\n      tag_152\n      swap3\n      swap2\n      swap1\n      tag_153\n      jump\t// in\n    tag_152:\n      swap1\n      dup2\n      mstore\n      0x20\n      add\n      mload(0x40)\n      dup1\n      swap2\n      sub\n      swap1\n      keccak256\n      0x00\n        /* \"Library/ProposalLibrary.sol\":1452:1478  self.cand[_cand[i]] = true */\n      0x0100\n      exp\n      dup2\n      sload\n      dup2\n      0xff\n      mul\n      not\n      and\n      swap1\n      dup4\n      iszero\n      iszero\n      mul\n      or\n      swap1\n      sstore\n      pop\n        /* \"Library/ProposalLibrary.sol\":1539:1544  _cand */\n      dup4\n      dup4\n        /* \"Library/ProposalLibrary.sol\":1545:1546  i */\n      dup3\n        /* \"Library/ProposalLibrary.sol\":1539:1547  _cand[i] */\n      dup2\n      dup2\n      lt\n      tag_154\n      jumpi\n      tag_155\n      tag_94\n      jump\t// in\n    tag_155:\n    tag_154:\n      swap1\n      pop\n      0x20\n      mul\n      dup2\n      add\n      swap1\n      tag_156\n      swap2\n      swap1\n      tag_151\n      jump\t// in\n    tag_156:\n        /* \"Library/ProposalLibrary.sol\":1517:1521  self */\n      dup13\n        /* \"Library/ProposalLibrary.sol\":1517:1530  self.candHash */\n      0x07\n      add\n        /* \"Library/ProposalLibrary.sol\":1517:1535  self.candHash[i+1] */\n      0x00\n        /* \"Library/ProposalLibrary.sol\":1533:1534  1 */\n      0x01\n        /* \"Library/ProposalLibrary.sol\":1531:1532  i */\n      dup6\n        /* \"Library/ProposalLibrary.sol\":1531:1534  i+1 */\n      tag_157\n      swap2\n      swap1\n      tag_158\n      jump\t// in\n    tag_157:\n        /* \"Library/ProposalLibrary.sol\":1517:1535  self.candHash[i+1] */\n      dup2\n      mstore\n      0x20\n      add\n      swap1\n      dup2\n      mstore\n      0x20\n      add\n      0x00\n      keccak256\n        /* \"Library/ProposalLibrary.sol\":1517:1547  self.candHash[i+1] =  _cand[i] */\n      swap2\n      swap1\n      tag_159\n      swap3\n      swap2\n      swap1\n      tag_160\n      jump\t// in\n    tag_159:\n      pop\n        /* \"Library/ProposalLibrary.sol\":1409:1412  i++ */\n      dup1\n      dup1\n      tag_161\n      swap1\n      tag_83\n      jump\t// in\n    tag_161:\n      swap2\n      pop\n      pop\n        /* \"Library/ProposalLibrary.sol\":1378:1583  for(uint256 i=0;i<_cand.length;i++){\r... */\n      jump(tag_145)\n    tag_146:\n      pop\n        /* \"Library/ProposalLibrary.sol\":1621:1630  uint256 i */\n      0x00\n        /* \"Library/ProposalLibrary.sol\":1617:1759  for(uint256 i=0;i<_voters.length;i++){\r... */\n    tag_162:\n        /* \"Library/ProposalLibrary.sol\":1635:1642  _voters */\n      dup9\n        /* \"Library/ProposalLibrary.sol\":1635:1649  _voters.length */\n      mload\n        /* \"Library/ProposalLibrary.sol\":1633:1634  i */\n      dup2\n        /* \"Library/ProposalLibrary.sol\":1633:1649  i<_voters.length */\n      lt\n        /* \"Library/ProposalLibrary.sol\":1617:1759  for(uint256 i=0;i<_voters.length;i++){\r... */\n      iszero\n      tag_163\n      jumpi\n        /* \"Library/ProposalLibrary.sol\":1719:1723  true */\n      0x01\n        /* \"Library/ProposalLibrary.sol\":1693:1697  self */\n      dup12\n        /* \"Library/ProposalLibrary.sol\":1693:1704  self.voters */\n      0x05\n      add\n        /* \"Library/ProposalLibrary.sol\":1693:1716  self.voters[_voters[i]] */\n      0x00\n        /* \"Library/ProposalLibrary.sol\":1705:1712  _voters */\n      dup12\n        /* \"Library/ProposalLibrary.sol\":1713:1714  i */\n      dup5\n        /* \"Library/ProposalLibrary.sol\":1705:1715  _voters[i] */\n      dup2\n      mload\n      dup2\n      lt\n      tag_165\n      jumpi\n      tag_166\n      tag_94\n      jump\t// in\n    tag_166:\n    tag_165:\n      0x20\n      mul\n      0x20\n      add\n      add\n      mload\n        /* \"Library/ProposalLibrary.sol\":1693:1716  self.voters[_voters[i]] */\n      0xffffffffffffffffffffffffffffffffffffffff\n      and\n      0xffffffffffffffffffffffffffffffffffffffff\n      and\n      dup2\n      mstore\n      0x20\n      add\n      swap1\n      dup2\n      mstore\n      0x20\n      add\n      0x00\n      keccak256\n      0x00\n        /* \"Library/ProposalLibrary.sol\":1693:1723  self.voters[_voters[i]] = true */\n      0x0100\n      exp\n      dup2\n      sload\n      dup2\n      0xff\n      mul\n      not\n      and\n      swap1\n      dup4\n      iszero\n      iszero\n      mul\n      or\n      swap1\n      sstore\n      pop\n        /* \"Library/ProposalLibrary.sol\":1650:1653  i++ */\n      dup1\n      dup1\n      tag_167\n      swap1\n      tag_83\n      jump\t// in\n    tag_167:\n      swap2\n      pop\n      pop\n        /* \"Library/ProposalLibrary.sol\":1617:1759  for(uint256 i=0;i<_voters.length;i++){\r... */\n      jump(tag_162)\n    tag_163:\n      pop\n        /* \"Library/ProposalLibrary.sol\":1802:1806  true */\n      0x01\n        /* \"Library/ProposalLibrary.sol\":1795:1806  return true */\n      swap1\n      pop\n        /* \"Library/ProposalLibrary.sol\":742:1840  function createProposal(proposal storage self, uint8 _status, address[] memory _voters, address _creator,\r... */\n      swap10\n      swap9\n      pop\n      pop\n      pop\n      pop\n      pop\n      pop\n      pop\n      pop\n      pop\n      jump\t// out\n        /* \"QvToken/QvToken.sol\":398:502  function mint(address to , uint amount) onlyOwner(_msgSender()) internal {\r... */\n    tag_95:\n        /* \"QvToken/QvToken.sol\":448:460  _msgSender() */\n      tag_168\n        /* \"QvToken/QvToken.sol\":448:458  _msgSender */\n      tag_109\n        /* \"QvToken/QvToken.sol\":448:460  _msgSender() */\n      jump\t// in\n    tag_168:\n        /* \"QvToken/QvToken.sol\":366:375  msgSender */\n      dup1\n        /* \"QvToken/QvToken.sol\":357:375  owner == msgSender */\n      0xffffffffffffffffffffffffffffffffffffffff\n      and\n        /* \"QvToken/QvToken.sol\":357:362  owner */\n      0x04\n      0x00\n      swap1\n      sload\n      swap1\n      0x0100\n      exp\n      swap1\n      div\n      0xffffffffffffffffffffffffffffffffffffffff\n      and\n        /* \"QvToken/QvToken.sol\":357:375  owner == msgSender */\n      0xffffffffffffffffffffffffffffffffffffffff\n      and\n      eq\n        /* \"QvToken/QvToken.sol\":349:376  require(owner == msgSender) */\n      tag_170\n      jumpi\n      0x00\n      dup1\n      revert\n    tag_170:\n        /* \"QvToken/QvToken.sol\":478:494  _mint(to,amount) */\n      tag_172\n        /* \"QvToken/QvToken.sol\":484:486  to */\n      dup4\n        /* \"QvToken/QvToken.sol\":487:493  amount */\n      dup4\n        /* \"QvToken/QvToken.sol\":478:483  _mint */\n      tag_173\n        /* \"QvToken/QvToken.sol\":478:494  _mint(to,amount) */\n      jump\t// in\n    tag_172:\n        /* \"QvToken/QvToken.sol\":398:502  function mint(address to , uint amount) onlyOwner(_msgSender()) internal {\r... */\n      pop\n      pop\n      pop\n      jump\t// out\n        /* \"Library/VoterLibrary.sol\":1088:1523  function createVoter(voter storage self, uint _proposalId, address _voterAddress, bool _hasVoted, uint _voteNum) internal returns(bool){\r... */\n    tag_101:\n        /* \"Library/VoterLibrary.sol\":1218:1222  bool */\n      0x00\n        /* \"Library/VoterLibrary.sol\":1276:1287  _proposalId */\n      dup5\n        /* \"Library/VoterLibrary.sol\":1258:1262  self */\n      dup7\n        /* \"Library/VoterLibrary.sol\":1258:1273  self.proposalId */\n      0x00\n      add\n        /* \"Library/VoterLibrary.sol\":1258:1287  self.proposalId = _proposalId */\n      dup2\n      swap1\n      sstore\n      pop\n        /* \"Library/VoterLibrary.sol\":1342:1355  _voterAddress */\n      dup4\n        /* \"Library/VoterLibrary.sol\":1322:1326  self */\n      dup7\n        /* \"Library/VoterLibrary.sol\":1322:1339  self.voterAddress */\n      0x01\n      add\n      0x00\n        /* \"Library/VoterLibrary.sol\":1322:1355  self.voterAddress = _voterAddress */\n      0x0100\n      exp\n      dup2\n      sload\n      dup2\n      0xffffffffffffffffffffffffffffffffffffffff\n      mul\n      not\n      and\n      swap1\n      dup4\n      0xffffffffffffffffffffffffffffffffffffffff\n      and\n      mul\n      or\n      swap1\n      sstore\n      pop\n        /* \"Library/VoterLibrary.sol\":1406:1415  _hasVoted */\n      dup3\n        /* \"Library/VoterLibrary.sol\":1390:1394  self */\n      dup7\n        /* \"Library/VoterLibrary.sol\":1390:1403  self.hasVoted */\n      0x01\n      add\n      0x14\n        /* \"Library/VoterLibrary.sol\":1390:1415  self.hasVoted = _hasVoted */\n      0x0100\n      exp\n      dup2\n      sload\n      dup2\n      0xff\n      mul\n      not\n      and\n      swap1\n      dup4\n      iszero\n      iszero\n      mul\n      or\n      swap1\n      sstore\n      pop\n        /* \"Library/VoterLibrary.sol\":1465:1473  _voteNum */\n      dup2\n        /* \"Library/VoterLibrary.sol\":1450:1454  self */\n      dup7\n        /* \"Library/VoterLibrary.sol\":1450:1462  self.voteNum */\n      0x02\n      add\n        /* \"Library/VoterLibrary.sol\":1450:1473  self.voteNum = _voteNum */\n      dup2\n      swap1\n      sstore\n      pop\n        /* \"Library/VoterLibrary.sol\":1515:1519  true */\n      0x01\n        /* \"Library/VoterLibrary.sol\":1508:1519  return true */\n      swap1\n      pop\n        /* \"Library/VoterLibrary.sol\":1088:1523  function createVoter(voter storage self, uint _proposalId, address _voterAddress, bool _hasVoted, uint _voteNum) internal returns(bool){\r... */\n      swap6\n      swap5\n      pop\n      pop\n      pop\n      pop\n      pop\n      jump\t// out\n        /* \"QvToken/Context.sol\":656:754  function _msgSender() internal view virtual returns (address) {\r... */\n    tag_109:\n        /* \"QvToken/Context.sol\":709:716  address */\n      0x00\n        /* \"QvToken/Context.sol\":736:746  msg.sender */\n      caller\n        /* \"QvToken/Context.sol\":729:746  return msg.sender */\n      swap1\n      pop\n        /* \"QvToken/Context.sol\":656:754  function _msgSender() internal view virtual returns (address) {\r... */\n      swap1\n      jump\t// out\n        /* \"Library/UserProposalLibrary.sol\":556:777  function updateProposalList(UserProposal storage self, uint _proposalId) internal returns(bool){\r... */\n    tag_110:\n        /* \"Library/UserProposalLibrary.sol\":646:650  bool */\n      0x00\n        /* \"Library/UserProposalLibrary.sol\":662:666  self */\n      dup3\n        /* \"Library/UserProposalLibrary.sol\":662:680  self.proposalCount */\n      0x00\n      add\n      0x00\n        /* \"Library/UserProposalLibrary.sol\":662:682  self.proposalCount++ */\n      dup2\n      dup2\n      swap1\n      sload\n      swap1\n      0x0100\n      exp\n      swap1\n      div\n      0xffffffffffffffffffffffffffffffff\n      and\n      dup1\n      swap3\n      swap2\n      swap1\n      tag_177\n      swap1\n      tag_178\n      jump\t// in\n    tag_177:\n      swap2\n      swap1\n      0x0100\n      exp\n      dup2\n      sload\n      dup2\n      0xffffffffffffffffffffffffffffffff\n      mul\n      not\n      and\n      swap1\n      dup4\n      0xffffffffffffffffffffffffffffffff\n      and\n      mul\n      or\n      swap1\n      sstore\n      pop\n      pop\n        /* \"Library/UserProposalLibrary.sol\":736:747  _proposalId */\n      dup2\n        /* \"Library/UserProposalLibrary.sol\":693:697  self */\n      dup4\n        /* \"Library/UserProposalLibrary.sol\":693:713  self.proposalCreated */\n      0x01\n      add\n        /* \"Library/UserProposalLibrary.sol\":693:733  self.proposalCreated[self.proposalCount] */\n      0x00\n        /* \"Library/UserProposalLibrary.sol\":714:718  self */\n      dup6\n        /* \"Library/UserProposalLibrary.sol\":714:732  self.proposalCount */\n      0x00\n      add\n      0x00\n      swap1\n      sload\n      swap1\n      0x0100\n      exp\n      swap1\n      div\n      0xffffffffffffffffffffffffffffffff\n      and\n        /* \"Library/UserProposalLibrary.sol\":693:733  self.proposalCreated[self.proposalCount] */\n      0xffffffffffffffffffffffffffffffff\n      and\n      0xffffffffffffffffffffffffffffffff\n      and\n      dup2\n      mstore\n      0x20\n      add\n      swap1\n      dup2\n      mstore\n      0x20\n      add\n      0x00\n      keccak256\n        /* \"Library/UserProposalLibrary.sol\":693:747  self.proposalCreated[self.proposalCount] = _proposalId */\n      dup2\n      swap1\n      sstore\n      pop\n        /* \"Library/UserProposalLibrary.sol\":765:769  true */\n      0x01\n        /* \"Library/UserProposalLibrary.sol\":758:769  return true */\n      swap1\n      pop\n        /* \"Library/UserProposalLibrary.sol\":556:777  function updateProposalList(UserProposal storage self, uint _proposalId) internal returns(bool){\r... */\n      swap3\n      swap2\n      pop\n      pop\n      jump\t// out\n        /* \"Library/ProposalLibrary.sol\":1869:3140  function responseProposal(proposal storage self, address _voter, string memory _hash, uint v) internal returns(bool){\r... */\n    tag_132:\n        /* \"Library/ProposalLibrary.sol\":1980:1984  bool */\n      0x00\n        /* \"Library/ProposalLibrary.sol\":2019:2020  1 */\n      0x01\n        /* \"Library/ProposalLibrary.sol\":2004:2008  self */\n      dup6\n        /* \"Library/ProposalLibrary.sol\":2004:2015  self.status */\n      0x00\n      add\n      0x14\n      swap1\n      sload\n      swap1\n      0x0100\n      exp\n      swap1\n      div\n      0xff\n      and\n        /* \"Library/ProposalLibrary.sol\":2004:2020  self.status == 1 */\n      0xff\n      and\n      eq\n        /* \"Library/ProposalLibrary.sol\":1996:2043  require(self.status == 1, \"Proposal: inactive\") */\n      tag_180\n      jumpi\n      mload(0x40)\n      0x08c379a000000000000000000000000000000000000000000000000000000000\n      dup2\n      mstore\n      0x04\n      add\n      tag_181\n      swap1\n      tag_182\n      jump\t// in\n    tag_181:\n      mload(0x40)\n      dup1\n      swap2\n      sub\n      swap1\n      revert\n    tag_180:\n        /* \"Library/ProposalLibrary.sol\":2075:2079  self */\n      dup5\n        /* \"Library/ProposalLibrary.sol\":2075:2094  self.expirationTime */\n      0x03\n      add\n      sload\n        /* \"Library/ProposalLibrary.sol\":2057:2072  block.timestamp */\n      timestamp\n        /* \"Library/ProposalLibrary.sol\":2057:2094  block.timestamp > self.expirationTime */\n      gt\n        /* \"Library/ProposalLibrary.sol\":2054:2911  if(block.timestamp > self.expirationTime){\r... */\n      iszero\n      tag_183\n      jumpi\n        /* \"Library/ProposalLibrary.sol\":2164:2165  2 */\n      0x02\n        /* \"Library/ProposalLibrary.sol\":2150:2154  self */\n      dup6\n        /* \"Library/ProposalLibrary.sol\":2150:2161  self.status */\n      0x00\n      add\n      0x14\n        /* \"Library/ProposalLibrary.sol\":2150:2165  self.status = 2 */\n      0x0100\n      exp\n      dup2\n      sload\n      dup2\n      0xff\n      mul\n      not\n      and\n      swap1\n      dup4\n      0xff\n      and\n      mul\n      or\n      swap1\n      sstore\n      pop\n        /* \"Library/ProposalLibrary.sol\":2180:2197  uint largestCount */\n      0x00\n        /* \"Library/ProposalLibrary.sol\":2200:2204  self */\n      dup6\n        /* \"Library/ProposalLibrary.sol\":2200:2210  self.votes */\n      0x09\n      add\n        /* \"Library/ProposalLibrary.sol\":2211:2215  self */\n      dup7\n        /* \"Library/ProposalLibrary.sol\":2211:2224  self.candHash */\n      0x07\n      add\n        /* \"Library/ProposalLibrary.sol\":2211:2227  self.candHash[1] */\n      0x00\n        /* \"Library/ProposalLibrary.sol\":2225:2226  1 */\n      0x01\n        /* \"Library/ProposalLibrary.sol\":2211:2227  self.candHash[1] */\n      dup2\n      mstore\n      0x20\n      add\n      swap1\n      dup2\n      mstore\n      0x20\n      add\n      0x00\n      keccak256\n        /* \"Library/ProposalLibrary.sol\":2200:2228  self.votes[self.candHash[1]] */\n      mload(0x40)\n      tag_184\n      swap2\n      swap1\n      tag_185\n      jump\t// in\n    tag_184:\n      swap1\n      dup2\n      mstore\n      0x20\n      add\n      mload(0x40)\n      dup1\n      swap2\n      sub\n      swap1\n      keccak256\n      sload\n        /* \"Library/ProposalLibrary.sol\":2180:2228  uint largestCount = self.votes[self.candHash[1]] */\n      swap1\n      pop\n        /* \"Library/ProposalLibrary.sol\":2243:2259  uint winnerCount */\n      0x00\n        /* \"Library/ProposalLibrary.sol\":2262:2263  1 */\n      0x01\n        /* \"Library/ProposalLibrary.sol\":2243:2263  uint winnerCount = 1 */\n      swap1\n      pop\n        /* \"Library/ProposalLibrary.sol\":2295:2299  self */\n      dup7\n        /* \"Library/ProposalLibrary.sol\":2295:2308  self.candHash */\n      0x07\n      add\n        /* \"Library/ProposalLibrary.sol\":2295:2311  self.candHash[1] */\n      0x00\n        /* \"Library/ProposalLibrary.sol\":2309:2310  1 */\n      0x01\n        /* \"Library/ProposalLibrary.sol\":2295:2311  self.candHash[1] */\n      dup2\n      mstore\n      0x20\n      add\n      swap1\n      dup2\n      mstore\n      0x20\n      add\n      0x00\n      keccak256\n        /* \"Library/ProposalLibrary.sol\":2278:2282  self */\n      dup8\n        /* \"Library/ProposalLibrary.sol\":2278:2289  self.result */\n      0x08\n      add\n        /* \"Library/ProposalLibrary.sol\":2278:2292  self.result[1] */\n      0x00\n        /* \"Library/ProposalLibrary.sol\":2290:2291  1 */\n      0x01\n        /* \"Library/ProposalLibrary.sol\":2278:2292  self.result[1] */\n      dup2\n      mstore\n      0x20\n      add\n      swap1\n      dup2\n      mstore\n      0x20\n      add\n      0x00\n      keccak256\n        /* \"Library/ProposalLibrary.sol\":2278:2311  self.result[1] = self.candHash[1] */\n      swap1\n      dup1\n      sload\n      tag_186\n      swap1\n      tag_59\n      jump\t// in\n    tag_186:\n      tag_187\n      swap3\n      swap2\n      swap1\n      tag_188\n      jump\t// in\n    tag_187:\n      pop\n        /* \"Library/ProposalLibrary.sol\":2393:2401  uint16 i */\n      0x00\n        /* \"Library/ProposalLibrary.sol\":2404:2405  2 */\n      0x02\n        /* \"Library/ProposalLibrary.sol\":2393:2405  uint16 i = 2 */\n      swap1\n      pop\n        /* \"Library/ProposalLibrary.sol\":2389:2873  for(uint16 i = 2; i <= self.numOfOptions; i++){\r... */\n    tag_189:\n        /* \"Library/ProposalLibrary.sol\":2412:2416  self */\n      dup8\n        /* \"Library/ProposalLibrary.sol\":2412:2429  self.numOfOptions */\n      0x04\n      add\n      0x00\n      swap1\n      sload\n      swap1\n      0x0100\n      exp\n      swap1\n      div\n      0xffff\n      and\n        /* \"Library/ProposalLibrary.sol\":2407:2429  i <= self.numOfOptions */\n      0xffff\n      and\n        /* \"Library/ProposalLibrary.sol\":2407:2408  i */\n      dup2\n        /* \"Library/ProposalLibrary.sol\":2407:2429  i <= self.numOfOptions */\n      0xffff\n      and\n      gt\n        /* \"Library/ProposalLibrary.sol\":2389:2873  for(uint16 i = 2; i <= self.numOfOptions; i++){\r... */\n      tag_190\n      jumpi\n        /* \"Library/ProposalLibrary.sol\":2488:2500  largestCount */\n      dup3\n        /* \"Library/ProposalLibrary.sol\":2457:2461  self */\n      dup9\n        /* \"Library/ProposalLibrary.sol\":2457:2467  self.votes */\n      0x09\n      add\n        /* \"Library/ProposalLibrary.sol\":2468:2472  self */\n      dup10\n        /* \"Library/ProposalLibrary.sol\":2468:2481  self.candHash */\n      0x07\n      add\n        /* \"Library/ProposalLibrary.sol\":2468:2484  self.candHash[i] */\n      0x00\n        /* \"Library/ProposalLibrary.sol\":2482:2483  i */\n      dup5\n        /* \"Library/ProposalLibrary.sol\":2468:2484  self.candHash[i] */\n      0xffff\n      and\n      dup2\n      mstore\n      0x20\n      add\n      swap1\n      dup2\n      mstore\n      0x20\n      add\n      0x00\n      keccak256\n        /* \"Library/ProposalLibrary.sol\":2457:2485  self.votes[self.candHash[i]] */\n      mload(0x40)\n      tag_192\n      swap2\n      swap1\n      tag_185\n      jump\t// in\n    tag_192:\n      swap1\n      dup2\n      mstore\n      0x20\n      add\n      mload(0x40)\n      dup1\n      swap2\n      sub\n      swap1\n      keccak256\n      sload\n        /* \"Library/ProposalLibrary.sol\":2457:2500  self.votes[self.candHash[i]] > largestCount */\n      gt\n        /* \"Library/ProposalLibrary.sol\":2454:2858  if(self.votes[self.candHash[i]] > largestCount){\r... */\n      iszero\n      tag_193\n      jumpi\n        /* \"Library/ProposalLibrary.sol\":2539:2543  self */\n      dup8\n        /* \"Library/ProposalLibrary.sol\":2539:2549  self.votes */\n      0x09\n      add\n        /* \"Library/ProposalLibrary.sol\":2550:2554  self */\n      dup9\n        /* \"Library/ProposalLibrary.sol\":2550:2563  self.candHash */\n      0x07\n      add\n        /* \"Library/ProposalLibrary.sol\":2550:2566  self.candHash[i] */\n      0x00\n        /* \"Library/ProposalLibrary.sol\":2564:2565  i */\n      dup4\n        /* \"Library/ProposalLibrary.sol\":2550:2566  self.candHash[i] */\n      0xffff\n      and\n      dup2\n      mstore\n      0x20\n      add\n      swap1\n      dup2\n      mstore\n      0x20\n      add\n      0x00\n      keccak256\n        /* \"Library/ProposalLibrary.sol\":2539:2567  self.votes[self.candHash[i]] */\n      mload(0x40)\n      tag_194\n      swap2\n      swap1\n      tag_185\n      jump\t// in\n    tag_194:\n      swap1\n      dup2\n      mstore\n      0x20\n      add\n      mload(0x40)\n      dup1\n      swap2\n      sub\n      swap1\n      keccak256\n      sload\n        /* \"Library/ProposalLibrary.sol\":2524:2567  largestCount = self.votes[self.candHash[i]] */\n      swap3\n      pop\n        /* \"Library/ProposalLibrary.sol\":2604:2605  1 */\n      0x01\n        /* \"Library/ProposalLibrary.sol\":2590:2605  winnerCount = 1 */\n      swap2\n      pop\n        /* \"Library/ProposalLibrary.sol\":2645:2649  self */\n      dup8\n        /* \"Library/ProposalLibrary.sol\":2645:2658  self.candHash */\n      0x07\n      add\n        /* \"Library/ProposalLibrary.sol\":2645:2661  self.candHash[i] */\n      0x00\n        /* \"Library/ProposalLibrary.sol\":2659:2660  i */\n      dup3\n        /* \"Library/ProposalLibrary.sol\":2645:2661  self.candHash[i] */\n      0xffff\n      and\n      dup2\n      mstore\n      0x20\n      add\n      swap1\n      dup2\n      mstore\n      0x20\n      add\n      0x00\n      keccak256\n        /* \"Library/ProposalLibrary.sol\":2628:2632  self */\n      dup9\n        /* \"Library/ProposalLibrary.sol\":2628:2639  self.result */\n      0x08\n      add\n        /* \"Library/ProposalLibrary.sol\":2628:2642  self.result[1] */\n      0x00\n        /* \"Library/ProposalLibrary.sol\":2640:2641  1 */\n      0x01\n        /* \"Library/ProposalLibrary.sol\":2628:2642  self.result[1] */\n      dup2\n      mstore\n      0x20\n      add\n      swap1\n      dup2\n      mstore\n      0x20\n      add\n      0x00\n      keccak256\n        /* \"Library/ProposalLibrary.sol\":2628:2661  self.result[1] = self.candHash[i] */\n      swap1\n      dup1\n      sload\n      tag_195\n      swap1\n      tag_59\n      jump\t// in\n    tag_195:\n      tag_196\n      swap3\n      swap2\n      swap1\n      tag_188\n      jump\t// in\n    tag_196:\n      pop\n        /* \"Library/ProposalLibrary.sol\":2454:2858  if(self.votes[self.candHash[i]] > largestCount){\r... */\n      jump(tag_197)\n    tag_193:\n        /* \"Library/ProposalLibrary.sol\":2721:2733  largestCount */\n      dup3\n        /* \"Library/ProposalLibrary.sol\":2689:2693  self */\n      dup9\n        /* \"Library/ProposalLibrary.sol\":2689:2699  self.votes */\n      0x09\n      add\n        /* \"Library/ProposalLibrary.sol\":2700:2704  self */\n      dup10\n        /* \"Library/ProposalLibrary.sol\":2700:2713  self.candHash */\n      0x07\n      add\n        /* \"Library/ProposalLibrary.sol\":2700:2716  self.candHash[i] */\n      0x00\n        /* \"Library/ProposalLibrary.sol\":2714:2715  i */\n      dup5\n        /* \"Library/ProposalLibrary.sol\":2700:2716  self.candHash[i] */\n      0xffff\n      and\n      dup2\n      mstore\n      0x20\n      add\n      swap1\n      dup2\n      mstore\n      0x20\n      add\n      0x00\n      keccak256\n        /* \"Library/ProposalLibrary.sol\":2689:2717  self.votes[self.candHash[i]] */\n      mload(0x40)\n      tag_198\n      swap2\n      swap1\n      tag_185\n      jump\t// in\n    tag_198:\n      swap1\n      dup2\n      mstore\n      0x20\n      add\n      mload(0x40)\n      dup1\n      swap2\n      sub\n      swap1\n      keccak256\n      sload\n        /* \"Library/ProposalLibrary.sol\":2689:2733  self.votes[self.candHash[i]] == largestCount */\n      eq\n        /* \"Library/ProposalLibrary.sol\":2686:2858  if(self.votes[self.candHash[i]] == largestCount){\r... */\n      iszero\n      tag_199\n      jumpi\n        /* \"Library/ProposalLibrary.sol\":2757:2771  winnerCount ++ */\n      dup2\n      dup1\n      tag_200\n      swap1\n      tag_83\n      jump\t// in\n    tag_200:\n      swap3\n      pop\n      pop\n        /* \"Library/ProposalLibrary.sol\":2822:2826  self */\n      dup8\n        /* \"Library/ProposalLibrary.sol\":2822:2835  self.candHash */\n      0x07\n      add\n        /* \"Library/ProposalLibrary.sol\":2822:2838  self.candHash[i] */\n      0x00\n        /* \"Library/ProposalLibrary.sol\":2836:2837  i */\n      dup3\n        /* \"Library/ProposalLibrary.sol\":2822:2838  self.candHash[i] */\n      0xffff\n      and\n      dup2\n      mstore\n      0x20\n      add\n      swap1\n      dup2\n      mstore\n      0x20\n      add\n      0x00\n      keccak256\n        /* \"Library/ProposalLibrary.sol\":2794:2798  self */\n      dup9\n        /* \"Library/ProposalLibrary.sol\":2794:2805  self.result */\n      0x08\n      add\n        /* \"Library/ProposalLibrary.sol\":2794:2819  self.result[ winnerCount] */\n      0x00\n        /* \"Library/ProposalLibrary.sol\":2807:2818  winnerCount */\n      dup5\n        /* \"Library/ProposalLibrary.sol\":2794:2819  self.result[ winnerCount] */\n      dup2\n      mstore\n      0x20\n      add\n      swap1\n      dup2\n      mstore\n      0x20\n      add\n      0x00\n      keccak256\n        /* \"Library/ProposalLibrary.sol\":2794:2838  self.result[ winnerCount] = self.candHash[i] */\n      swap1\n      dup1\n      sload\n      tag_201\n      swap1\n      tag_59\n      jump\t// in\n    tag_201:\n      tag_202\n      swap3\n      swap2\n      swap1\n      tag_188\n      jump\t// in\n    tag_202:\n      pop\n        /* \"Library/ProposalLibrary.sol\":2686:2858  if(self.votes[self.candHash[i]] == largestCount){\r... */\n    tag_199:\n        /* \"Library/ProposalLibrary.sol\":2454:2858  if(self.votes[self.candHash[i]] > largestCount){\r... */\n    tag_197:\n        /* \"Library/ProposalLibrary.sol\":2431:2434  i++ */\n      dup1\n      dup1\n      tag_203\n      swap1\n      tag_204\n      jump\t// in\n    tag_203:\n      swap2\n      pop\n      pop\n        /* \"Library/ProposalLibrary.sol\":2389:2873  for(uint16 i = 2; i <= self.numOfOptions; i++){\r... */\n      jump(tag_189)\n    tag_190:\n      pop\n        /* \"Library/ProposalLibrary.sol\":2894:2899  false */\n      0x00\n        /* \"Library/ProposalLibrary.sol\":2887:2899  return false */\n      swap3\n      pop\n      pop\n      pop\n      jump(tag_179)\n        /* \"Library/ProposalLibrary.sol\":2054:2911  if(block.timestamp > self.expirationTime){\r... */\n    tag_183:\n        /* \"Library/ProposalLibrary.sol\":2952:2956  self */\n      dup5\n        /* \"Library/ProposalLibrary.sol\":2952:2963  self.voters */\n      0x05\n      add\n        /* \"Library/ProposalLibrary.sol\":2952:2971  self.voters[_voter] */\n      0x00\n        /* \"Library/ProposalLibrary.sol\":2964:2970  _voter */\n      dup6\n        /* \"Library/ProposalLibrary.sol\":2952:2971  self.voters[_voter] */\n      0xffffffffffffffffffffffffffffffffffffffff\n      and\n      0xffffffffffffffffffffffffffffffffffffffff\n      and\n      dup2\n      mstore\n      0x20\n      add\n      swap1\n      dup2\n      mstore\n      0x20\n      add\n      0x00\n      keccak256\n      0x00\n      swap1\n      sload\n      swap1\n      0x0100\n      exp\n      swap1\n      div\n      0xff\n      and\n        /* \"Library/ProposalLibrary.sol\":2944:3011  require(self.voters[_voter], \"Not a valid voter for this proposal\") */\n      tag_205\n      jumpi\n      mload(0x40)\n      0x08c379a000000000000000000000000000000000000000000000000000000000\n      dup2\n      mstore\n      0x04\n      add\n      tag_206\n      swap1\n      tag_207\n      jump\t// in\n    tag_206:\n      mload(0x40)\n      dup1\n      swap2\n      sub\n      swap1\n      revert\n    tag_205:\n        /* \"Library/ProposalLibrary.sol\":3030:3034  self */\n      dup5\n        /* \"Library/ProposalLibrary.sol\":3030:3039  self.cand */\n      0x06\n      add\n        /* \"Library/ProposalLibrary.sol\":3040:3045  _hash */\n      dup4\n        /* \"Library/ProposalLibrary.sol\":3030:3046  self.cand[_hash] */\n      mload(0x40)\n      tag_208\n      swap2\n      swap1\n      tag_209\n      jump\t// in\n    tag_208:\n      swap1\n      dup2\n      mstore\n      0x20\n      add\n      mload(0x40)\n      dup1\n      swap2\n      sub\n      swap1\n      keccak256\n      0x00\n      swap1\n      sload\n      swap1\n      0x0100\n      exp\n      swap1\n      div\n      0xff\n      and\n        /* \"Library/ProposalLibrary.sol\":3022:3078  require(self.cand[_hash], \"Proposal: invalid candidate\") */\n      tag_210\n      jumpi\n      mload(0x40)\n      0x08c379a000000000000000000000000000000000000000000000000000000000\n      dup2\n      mstore\n      0x04\n      add\n      tag_211\n      swap1\n      tag_212\n      jump\t// in\n    tag_211:\n      mload(0x40)\n      dup1\n      swap2\n      sub\n      swap1\n      revert\n    tag_210:\n        /* \"Library/ProposalLibrary.sol\":3109:3110  v */\n      dup2\n        /* \"Library/ProposalLibrary.sol\":3089:3093  self */\n      dup6\n        /* \"Library/ProposalLibrary.sol\":3089:3099  self.votes */\n      0x09\n      add\n        /* \"Library/ProposalLibrary.sol\":3100:3105  _hash */\n      dup5\n        /* \"Library/ProposalLibrary.sol\":3089:3106  self.votes[_hash] */\n      mload(0x40)\n      tag_213\n      swap2\n      swap1\n      tag_209\n      jump\t// in\n    tag_213:\n      swap1\n      dup2\n      mstore\n      0x20\n      add\n      mload(0x40)\n      dup1\n      swap2\n      sub\n      swap1\n      keccak256\n      0x00\n        /* \"Library/ProposalLibrary.sol\":3089:3110  self.votes[_hash] +=v */\n      dup3\n      dup3\n      sload\n      tag_214\n      swap2\n      swap1\n      tag_158\n      jump\t// in\n    tag_214:\n      swap3\n      pop\n      pop\n      dup2\n      swap1\n      sstore\n      pop\n        /* \"Library/ProposalLibrary.sol\":3128:3132  true */\n      0x01\n        /* \"Library/ProposalLibrary.sol\":3121:3132  return true */\n      swap1\n      pop\n        /* \"Library/ProposalLibrary.sol\":1869:3140  function responseProposal(proposal storage self, address _voter, string memory _hash, uint v) internal returns(bool){\r... */\n    tag_179:\n      swap5\n      swap4\n      pop\n      pop\n      pop\n      pop\n      jump\t// out\n        /* \"Library/UserProposalLibrary.sol\":785:1135  function updateResponseList(UserProposal storage self, uint _proposalId, string memory _hash) internal returns(bool){\r... */\n    tag_135:\n        /* \"Library/UserProposalLibrary.sol\":896:900  bool */\n      0x00\n        /* \"Library/UserProposalLibrary.sol\":912:916  self */\n      dup4\n        /* \"Library/UserProposalLibrary.sol\":912:930  self.responseCount */\n      0x00\n      add\n      0x10\n        /* \"Library/UserProposalLibrary.sol\":912:932  self.responseCount++ */\n      dup2\n      dup2\n      swap1\n      sload\n      swap1\n      0x0100\n      exp\n      swap1\n      div\n      0xffffffffffffffffffffffffffffffff\n      and\n      dup1\n      swap3\n      swap2\n      swap1\n      tag_216\n      swap1\n      tag_178\n      jump\t// in\n    tag_216:\n      swap2\n      swap1\n      0x0100\n      exp\n      dup2\n      sload\n      dup2\n      0xffffffffffffffffffffffffffffffff\n      mul\n      not\n      and\n      swap1\n      dup4\n      0xffffffffffffffffffffffffffffffff\n      and\n      mul\n      or\n      swap1\n      sstore\n      pop\n      pop\n        /* \"Library/UserProposalLibrary.sol\":990:1001  _proposalId */\n      dup3\n        /* \"Library/UserProposalLibrary.sol\":945:949  self */\n      dup5\n        /* \"Library/UserProposalLibrary.sol\":945:967  self.proposalResponsed */\n      0x02\n      add\n        /* \"Library/UserProposalLibrary.sol\":945:987  self.proposalResponsed[self.responseCount] */\n      0x00\n        /* \"Library/UserProposalLibrary.sol\":968:972  self */\n      dup7\n        /* \"Library/UserProposalLibrary.sol\":968:986  self.responseCount */\n      0x00\n      add\n      0x10\n      swap1\n      sload\n      swap1\n      0x0100\n      exp\n      swap1\n      div\n      0xffffffffffffffffffffffffffffffff\n      and\n        /* \"Library/UserProposalLibrary.sol\":945:987  self.proposalResponsed[self.responseCount] */\n      0xffffffffffffffffffffffffffffffff\n      and\n      0xffffffffffffffffffffffffffffffff\n      and\n      dup2\n      mstore\n      0x20\n      add\n      swap1\n      dup2\n      mstore\n      0x20\n      add\n      0x00\n      keccak256\n        /* \"Library/UserProposalLibrary.sol\":945:1001  self.proposalResponsed[self.responseCount] = _proposalId */\n      dup2\n      swap1\n      sstore\n      pop\n        /* \"Library/UserProposalLibrary.sol\":1047:1052  _hash */\n      dup2\n        /* \"Library/UserProposalLibrary.sol\":1012:1016  self */\n      dup5\n        /* \"Library/UserProposalLibrary.sol\":1012:1031  self.proposalAnswer */\n      0x03\n      add\n        /* \"Library/UserProposalLibrary.sol\":1012:1044  self.proposalAnswer[_proposalId] */\n      0x00\n        /* \"Library/UserProposalLibrary.sol\":1032:1043  _proposalId */\n      dup6\n        /* \"Library/UserProposalLibrary.sol\":1012:1044  self.proposalAnswer[_proposalId] */\n      dup2\n      mstore\n      0x20\n      add\n      swap1\n      dup2\n      mstore\n      0x20\n      add\n      0x00\n      keccak256\n        /* \"Library/UserProposalLibrary.sol\":1012:1052  self.proposalAnswer[_proposalId] = _hash */\n      swap1\n      dup1\n      mload\n      swap1\n      0x20\n      add\n      swap1\n      tag_217\n      swap3\n      swap2\n      swap1\n      tag_144\n      jump\t// in\n    tag_217:\n      pop\n        /* \"Library/UserProposalLibrary.sol\":1101:1105  true */\n      0x01\n        /* \"Library/UserProposalLibrary.sol\":1063:1067  self */\n      dup5\n        /* \"Library/UserProposalLibrary.sol\":1063:1085  self.responsedProposal */\n      0x04\n      add\n        /* \"Library/UserProposalLibrary.sol\":1063:1098  self.responsedProposal[_proposalId] */\n      0x00\n        /* \"Library/UserProposalLibrary.sol\":1086:1097  _proposalId */\n      dup6\n        /* \"Library/UserProposalLibrary.sol\":1063:1098  self.responsedProposal[_proposalId] */\n      dup2\n      mstore\n      0x20\n      add\n      swap1\n      dup2\n      mstore\n      0x20\n      add\n      0x00\n      keccak256\n      0x00\n        /* \"Library/UserProposalLibrary.sol\":1063:1105  self.responsedProposal[_proposalId] = true */\n      0x0100\n      exp\n      dup2\n      sload\n      dup2\n      0xff\n      mul\n      not\n      and\n      swap1\n      dup4\n      iszero\n      iszero\n      mul\n      or\n      swap1\n      sstore\n      pop\n        /* \"Library/UserProposalLibrary.sol\":1123:1127  true */\n      0x01\n        /* \"Library/UserProposalLibrary.sol\":1116:1127  return true */\n      swap1\n      pop\n        /* \"Library/UserProposalLibrary.sol\":785:1135  function updateResponseList(UserProposal storage self, uint _proposalId, string memory _hash) internal returns(bool){\r... */\n      swap4\n      swap3\n      pop\n      pop\n      pop\n      jump\t// out\n        /* \"Library/VoterLibrary.sol\":831:1061  function updateVoteNum(voter storage self) internal returns(bool){\r... */\n    tag_137:\n        /* \"Library/VoterLibrary.sol\":891:895  bool */\n      0x00\n        /* \"Library/VoterLibrary.sol\":930:931  0 */\n      dup1\n        /* \"Library/VoterLibrary.sol\":913:917  self */\n      dup3\n        /* \"Library/VoterLibrary.sol\":913:928  self.proposalId */\n      0x00\n      add\n      sload\n        /* \"Library/VoterLibrary.sol\":913:931  self.proposalId!=0 */\n      eq\n      iszero\n        /* \"Library/VoterLibrary.sol\":905:964  require(self.proposalId!=0,\"Invalid voter for proposalId!\") */\n      tag_219\n      jumpi\n      mload(0x40)\n      0x08c379a000000000000000000000000000000000000000000000000000000000\n      dup2\n      mstore\n      0x04\n      add\n      tag_220\n      swap1\n      tag_221\n      jump\t// in\n    tag_220:\n      mload(0x40)\n      dup1\n      swap2\n      sub\n      swap1\n      revert\n    tag_219:\n        /* \"Library/VoterLibrary.sol\":981:985  self */\n      dup2\n        /* \"Library/VoterLibrary.sol\":981:994  self.hasVoted */\n      0x01\n      add\n      0x14\n      swap1\n      sload\n      swap1\n      0x0100\n      exp\n      swap1\n      div\n      0xff\n      and\n        /* \"Library/VoterLibrary.sol\":973:1008  require(self.hasVoted, \"not voted\") */\n      tag_222\n      jumpi\n      mload(0x40)\n      0x08c379a000000000000000000000000000000000000000000000000000000000\n      dup2\n      mstore\n      0x04\n      add\n      tag_223\n      swap1\n      tag_224\n      jump\t// in\n    tag_223:\n      mload(0x40)\n      dup1\n      swap2\n      sub\n      swap1\n      revert\n    tag_222:\n        /* \"Library/VoterLibrary.sol\":1032:1033  0 */\n      0x00\n        /* \"Library/VoterLibrary.sol\":1017:1021  self */\n      dup3\n        /* \"Library/VoterLibrary.sol\":1017:1029  self.voteNum */\n      0x02\n      add\n        /* \"Library/VoterLibrary.sol\":1017:1033  self.voteNum = 0 */\n      dup2\n      swap1\n      sstore\n      pop\n        /* \"Library/VoterLibrary.sol\":1049:1053  true */\n      0x01\n        /* \"Library/VoterLibrary.sol\":1042:1053  return true */\n      swap1\n      pop\n        /* \"Library/VoterLibrary.sol\":831:1061  function updateVoteNum(voter storage self) internal returns(bool){\r... */\n      swap2\n      swap1\n      pop\n      jump\t// out\n        /* \"QvToken/QvToken.sol\":510:613  function burn(address to,uint amount) onlyOwner(_msgSender()) internal {\r... */\n    tag_139:\n        /* \"QvToken/QvToken.sol\":558:570  _msgSender() */\n      tag_225\n        /* \"QvToken/QvToken.sol\":558:568  _msgSender */\n      tag_109\n        /* \"QvToken/QvToken.sol\":558:570  _msgSender() */\n      jump\t// in\n    tag_225:\n        /* \"QvToken/QvToken.sol\":366:375  msgSender */\n      dup1\n        /* \"QvToken/QvToken.sol\":357:375  owner == msgSender */\n      0xffffffffffffffffffffffffffffffffffffffff\n      and\n        /* \"QvToken/QvToken.sol\":357:362  owner */\n      0x04\n      0x00\n      swap1\n      sload\n      swap1\n      0x0100\n      exp\n      swap1\n      div\n      0xffffffffffffffffffffffffffffffffffffffff\n      and\n        /* \"QvToken/QvToken.sol\":357:375  owner == msgSender */\n      0xffffffffffffffffffffffffffffffffffffffff\n      and\n      eq\n        /* \"QvToken/QvToken.sol\":349:376  require(owner == msgSender) */\n      tag_227\n      jumpi\n      0x00\n      dup1\n      revert\n    tag_227:\n        /* \"QvToken/QvToken.sol\":588:605  _burn(to, amount) */\n      tag_229\n        /* \"QvToken/QvToken.sol\":594:596  to */\n      dup4\n        /* \"QvToken/QvToken.sol\":598:604  amount */\n      dup4\n        /* \"QvToken/QvToken.sol\":588:593  _burn */\n      tag_230\n        /* \"QvToken/QvToken.sol\":588:605  _burn(to, amount) */\n      jump\t// in\n    tag_229:\n        /* \"QvToken/QvToken.sol\":510:613  function burn(address to,uint amount) onlyOwner(_msgSender()) internal {\r... */\n      pop\n      pop\n      pop\n      jump\t// out\n        /* \"QvToken/ERC20.sol\":3630:4033  function _mint(address account, uint256 amount) internal virtual {\r... */\n    tag_173:\n        /* \"QvToken/ERC20.sol\":3733:3734  0 */\n      0x00\n        /* \"QvToken/ERC20.sol\":3714:3735  account != address(0) */\n      0xffffffffffffffffffffffffffffffffffffffff\n      and\n        /* \"QvToken/ERC20.sol\":3714:3721  account */\n      dup3\n        /* \"QvToken/ERC20.sol\":3714:3735  account != address(0) */\n      0xffffffffffffffffffffffffffffffffffffffff\n      and\n      eq\n      iszero\n        /* \"QvToken/ERC20.sol\":3706:3771  require(account != address(0), \"ERC20: mint to the zero address\") */\n      tag_232\n      jumpi\n      mload(0x40)\n      0x08c379a000000000000000000000000000000000000000000000000000000000\n      dup2\n      mstore\n      0x04\n      add\n      tag_233\n      swap1\n      tag_234\n      jump\t// in\n    tag_233:\n      mload(0x40)\n      dup1\n      swap2\n      sub\n      swap1\n      revert\n    tag_232:\n        /* \"QvToken/ERC20.sol\":3865:3871  amount */\n      dup1\n        /* \"QvToken/ERC20.sol\":3849:3861  _totalSupply */\n      0x01\n      0x00\n        /* \"QvToken/ERC20.sol\":3849:3871  _totalSupply += amount */\n      dup3\n      dup3\n      sload\n      tag_235\n      swap2\n      swap1\n      tag_158\n      jump\t// in\n    tag_235:\n      swap3\n      pop\n      pop\n      dup2\n      swap1\n      sstore\n      pop\n        /* \"QvToken/ERC20.sol\":3904:3910  amount */\n      dup1\n        /* \"QvToken/ERC20.sol\":3882:3891  _balances */\n      0x00\n        /* \"QvToken/ERC20.sol\":3882:3900  _balances[account] */\n      dup1\n        /* \"QvToken/ERC20.sol\":3892:3899  account */\n      dup5\n        /* \"QvToken/ERC20.sol\":3882:3900  _balances[account] */\n      0xffffffffffffffffffffffffffffffffffffffff\n      and\n      0xffffffffffffffffffffffffffffffffffffffff\n      and\n      dup2\n      mstore\n      0x20\n      add\n      swap1\n      dup2\n      mstore\n      0x20\n      add\n      0x00\n      keccak256\n      0x00\n        /* \"QvToken/ERC20.sol\":3882:3910  _balances[account] += amount */\n      dup3\n      dup3\n      sload\n      tag_236\n      swap2\n      swap1\n      tag_158\n      jump\t// in\n    tag_236:\n      swap3\n      pop\n      pop\n      dup2\n      swap1\n      sstore\n      pop\n        /* \"QvToken/ERC20.sol\":3926:3961  mintAndburn(\"mint\",account, amount) */\n      0xabf5327be9f5825c40d58bda541dd07f09b62df3376bbd5ecdbaa8bd82a9d492\n        /* \"QvToken/ERC20.sol\":3945:3952  account */\n      dup3\n        /* \"QvToken/ERC20.sol\":3954:3960  amount */\n      dup3\n        /* \"QvToken/ERC20.sol\":3926:3961  mintAndburn(\"mint\",account, amount) */\n      mload(0x40)\n      tag_237\n      swap3\n      swap2\n      swap1\n      tag_105\n      jump\t// in\n    tag_237:\n      mload(0x40)\n      dup1\n      swap2\n      sub\n      swap1\n      log1\n        /* \"QvToken/ERC20.sol\":3630:4033  function _mint(address account, uint256 amount) internal virtual {\r... */\n      pop\n      pop\n      jump\t// out\n        /* \"QvToken/ERC20.sol\":4045:4640  function _burn(address account, uint256 amount) internal virtual {\r... */\n    tag_230:\n        /* \"QvToken/ERC20.sol\":4148:4149  0 */\n      0x00\n        /* \"QvToken/ERC20.sol\":4129:4150  account != address(0) */\n      0xffffffffffffffffffffffffffffffffffffffff\n      and\n        /* \"QvToken/ERC20.sol\":4129:4136  account */\n      dup3\n        /* \"QvToken/ERC20.sol\":4129:4150  account != address(0) */\n      0xffffffffffffffffffffffffffffffffffffffff\n      and\n      eq\n      iszero\n        /* \"QvToken/ERC20.sol\":4121:4188  require(account != address(0), \"ERC20: burn from the zero address\") */\n      tag_239\n      jumpi\n      mload(0x40)\n      0x08c379a000000000000000000000000000000000000000000000000000000000\n      dup2\n      mstore\n      0x04\n      add\n      tag_240\n      swap1\n      tag_241\n      jump\t// in\n    tag_240:\n      mload(0x40)\n      dup1\n      swap2\n      sub\n      swap1\n      revert\n    tag_239:\n        /* \"QvToken/ERC20.sol\":4266:4288  uint256 accountBalance */\n      0x00\n        /* \"QvToken/ERC20.sol\":4291:4300  _balances */\n      dup1\n        /* \"QvToken/ERC20.sol\":4291:4309  _balances[account] */\n      0x00\n        /* \"QvToken/ERC20.sol\":4301:4308  account */\n      dup5\n        /* \"QvToken/ERC20.sol\":4291:4309  _balances[account] */\n      0xffffffffffffffffffffffffffffffffffffffff\n      and\n      0xffffffffffffffffffffffffffffffffffffffff\n      and\n      dup2\n      mstore\n      0x20\n      add\n      swap1\n      dup2\n      mstore\n      0x20\n      add\n      0x00\n      keccak256\n      sload\n        /* \"QvToken/ERC20.sol\":4266:4309  uint256 accountBalance = _balances[account] */\n      swap1\n      pop\n        /* \"QvToken/ERC20.sol\":4346:4352  amount */\n      dup2\n        /* \"QvToken/ERC20.sol\":4328:4342  accountBalance */\n      dup2\n        /* \"QvToken/ERC20.sol\":4328:4352  accountBalance >= amount */\n      lt\n      iszero\n        /* \"QvToken/ERC20.sol\":4320:4391  require(accountBalance >= amount, \"ERC20: burn amount exceeds balance\") */\n      tag_242\n      jumpi\n      mload(0x40)\n      0x08c379a000000000000000000000000000000000000000000000000000000000\n      dup2\n      mstore\n      0x04\n      add\n      tag_243\n      swap1\n      tag_244\n      jump\t// in\n    tag_243:\n      mload(0x40)\n      dup1\n      swap2\n      sub\n      swap1\n      revert\n    tag_242:\n        /* \"QvToken/ERC20.sol\":4465:4471  amount */\n      dup2\n        /* \"QvToken/ERC20.sol\":4448:4462  accountBalance */\n      dup2\n        /* \"QvToken/ERC20.sol\":4448:4471  accountBalance - amount */\n      sub\n        /* \"QvToken/ERC20.sol\":4427:4436  _balances */\n      0x00\n        /* \"QvToken/ERC20.sol\":4427:4445  _balances[account] */\n      dup1\n        /* \"QvToken/ERC20.sol\":4437:4444  account */\n      dup6\n        /* \"QvToken/ERC20.sol\":4427:4445  _balances[account] */\n      0xffffffffffffffffffffffffffffffffffffffff\n      and\n      0xffffffffffffffffffffffffffffffffffffffff\n      and\n      dup2\n      mstore\n      0x20\n      add\n      swap1\n      dup2\n      mstore\n      0x20\n      add\n      0x00\n      keccak256\n        /* \"QvToken/ERC20.sol\":4427:4471  _balances[account] = accountBalance - amount */\n      dup2\n      swap1\n      sstore\n      pop\n        /* \"QvToken/ERC20.sol\":4509:4515  amount */\n      dup2\n        /* \"QvToken/ERC20.sol\":4493:4505  _totalSupply */\n      0x01\n      0x00\n        /* \"QvToken/ERC20.sol\":4493:4515  _totalSupply -= amount */\n      dup3\n      dup3\n      sload\n      tag_245\n      swap2\n      swap1\n      tag_246\n      jump\t// in\n    tag_245:\n      swap3\n      pop\n      pop\n      dup2\n      swap1\n      sstore\n      pop\n        /* \"QvToken/ERC20.sol\":4533:4568  mintAndburn(\"burn\",account, amount) */\n      0xabf5327be9f5825c40d58bda541dd07f09b62df3376bbd5ecdbaa8bd82a9d492\n        /* \"QvToken/ERC20.sol\":4552:4559  account */\n      dup4\n        /* \"QvToken/ERC20.sol\":4561:4567  amount */\n      dup4\n        /* \"QvToken/ERC20.sol\":4533:4568  mintAndburn(\"burn\",account, amount) */\n      mload(0x40)\n      tag_247\n      swap3\n      swap2\n      swap1\n      tag_141\n      jump\t// in\n    tag_247:\n      mload(0x40)\n      dup1\n      swap2\n      sub\n      swap1\n      log1\n        /* \"QvToken/ERC20.sol\":4110:4640  {\r... */\n      pop\n        /* \"QvToken/ERC20.sol\":4045:4640  function _burn(address account, uint256 amount) internal virtual {\r... */\n      pop\n      pop\n      jump\t// out\n    tag_144:\n      dup3\n      dup1\n      sload\n      tag_248\n      swap1\n      tag_59\n      jump\t// in\n    tag_248:\n      swap1\n      0x00\n      mstore\n      keccak256(0x00, 0x20)\n      swap1\n      0x1f\n      add\n      0x20\n      swap1\n      div\n      dup2\n      add\n      swap3\n      dup3\n      tag_250\n      jumpi\n      0x00\n      dup6\n      sstore\n      jump(tag_249)\n    tag_250:\n      dup3\n      0x1f\n      lt\n      tag_251\n      jumpi\n      dup1\n      mload\n      not(0xff)\n      and\n      dup4\n      dup1\n      add\n      or\n      dup6\n      sstore\n      jump(tag_249)\n    tag_251:\n      dup3\n      dup1\n      add\n      0x01\n      add\n      dup6\n      sstore\n      dup3\n      iszero\n      tag_249\n      jumpi\n      swap2\n      dup3\n      add\n    tag_252:\n      dup3\n      dup2\n      gt\n      iszero\n      tag_253\n      jumpi\n      dup3\n      mload\n      dup3\n      sstore\n      swap2\n      0x20\n      add\n      swap2\n      swap1\n      0x01\n      add\n      swap1\n      jump(tag_252)\n    tag_253:\n    tag_249:\n      pop\n      swap1\n      pop\n      tag_254\n      swap2\n      swap1\n      tag_255\n      jump\t// in\n    tag_254:\n      pop\n      swap1\n      jump\t// out\n    tag_160:\n      dup3\n      dup1\n      sload\n      tag_256\n      swap1\n      tag_59\n      jump\t// in\n    tag_256:\n      swap1\n      0x00\n      mstore\n      keccak256(0x00, 0x20)\n      swap1\n      0x1f\n      add\n      0x20\n      swap1\n      div\n      dup2\n      add\n      swap3\n      dup3\n      tag_258\n      jumpi\n      0x00\n      dup6\n      sstore\n      jump(tag_257)\n    tag_258:\n      dup3\n      0x1f\n      lt\n      tag_259\n      jumpi\n      dup1\n      calldataload\n      not(0xff)\n      and\n      dup4\n      dup1\n      add\n      or\n      dup6\n      sstore\n      jump(tag_257)\n    tag_259:\n      dup3\n      dup1\n      add\n      0x01\n      add\n      dup6\n      sstore\n      dup3\n      iszero\n      tag_257\n      jumpi\n      swap2\n      dup3\n      add\n    tag_260:\n      dup3\n      dup2\n      gt\n      iszero\n      tag_261\n      jumpi\n      dup3\n      calldataload\n      dup3\n      sstore\n      swap2\n      0x20\n      add\n      swap2\n      swap1\n      0x01\n      add\n      swap1\n      jump(tag_260)\n    tag_261:\n    tag_257:\n      pop\n      swap1\n      pop\n      tag_262\n      swap2\n      swap1\n      tag_255\n      jump\t// in\n    tag_262:\n      pop\n      swap1\n      jump\t// out\n    tag_188:\n      dup3\n      dup1\n      sload\n      tag_263\n      swap1\n      tag_59\n      jump\t// in\n    tag_263:\n      swap1\n      0x00\n      mstore\n      keccak256(0x00, 0x20)\n      swap1\n      0x1f\n      add\n      0x20\n      swap1\n      div\n      dup2\n      add\n      swap3\n      dup3\n      tag_265\n      jumpi\n      0x00\n      dup6\n      sstore\n      jump(tag_264)\n    tag_265:\n      dup3\n      0x1f\n      lt\n      tag_266\n      jumpi\n      dup1\n      sload\n      dup6\n      sstore\n      jump(tag_264)\n    tag_266:\n      dup3\n      dup1\n      add\n      0x01\n      add\n      dup6\n      sstore\n      dup3\n      iszero\n      tag_264\n      jumpi\n      0x00\n      mstore\n      keccak256(0x00, 0x20)\n      swap2\n      0x1f\n      add\n      0x20\n      swap1\n      div\n      dup3\n      add\n    tag_267:\n      dup3\n      dup2\n      gt\n      iszero\n      tag_268\n      jumpi\n      dup3\n      sload\n      dup3\n      sstore\n      swap2\n      0x01\n      add\n      swap2\n      swap1\n      0x01\n      add\n      swap1\n      jump(tag_267)\n    tag_268:\n    tag_264:\n      pop\n      swap1\n      pop\n      tag_269\n      swap2\n      swap1\n      tag_255\n      jump\t// in\n    tag_269:\n      pop\n      swap1\n      jump\t// out\n    tag_255:\n    tag_270:\n      dup1\n      dup3\n      gt\n      iszero\n      tag_271\n      jumpi\n      0x00\n      dup2\n      0x00\n      swap1\n      sstore\n      pop\n      0x01\n      add\n      jump(tag_270)\n    tag_271:\n      pop\n      swap1\n      jump\t// out\n        /* \"#utility.yul\":24:746   */\n    tag_273:\n        /* \"#utility.yul\":120:125   */\n      0x00\n        /* \"#utility.yul\":145:226   */\n      tag_275\n        /* \"#utility.yul\":161:225   */\n      tag_276\n        /* \"#utility.yul\":218:224   */\n      dup5\n        /* \"#utility.yul\":161:225   */\n      tag_277\n      jump\t// in\n    tag_276:\n        /* \"#utility.yul\":145:226   */\n      tag_278\n      jump\t// in\n    tag_275:\n        /* \"#utility.yul\":136:226   */\n      swap1\n      pop\n        /* \"#utility.yul\":246:251   */\n      dup1\n        /* \"#utility.yul\":275:281   */\n      dup4\n        /* \"#utility.yul\":268:273   */\n      dup3\n        /* \"#utility.yul\":261:282   */\n      mstore\n        /* \"#utility.yul\":309:313   */\n      0x20\n        /* \"#utility.yul\":302:307   */\n      dup3\n        /* \"#utility.yul\":298:314   */\n      add\n        /* \"#utility.yul\":291:314   */\n      swap1\n      pop\n        /* \"#utility.yul\":335:341   */\n      dup3\n        /* \"#utility.yul\":385:388   */\n      dup6\n        /* \"#utility.yul\":377:381   */\n      0x20\n        /* \"#utility.yul\":369:375   */\n      dup7\n        /* \"#utility.yul\":365:382   */\n      mul\n        /* \"#utility.yul\":360:363   */\n      dup3\n        /* \"#utility.yul\":356:383   */\n      add\n        /* \"#utility.yul\":353:389   */\n      gt\n        /* \"#utility.yul\":350:493   */\n      iszero\n      tag_279\n      jumpi\n        /* \"#utility.yul\":404:483   */\n      tag_280\n      tag_281\n      jump\t// in\n    tag_280:\n        /* \"#utility.yul\":350:493   */\n    tag_279:\n        /* \"#utility.yul\":517:518   */\n      0x00\n        /* \"#utility.yul\":502:740   */\n    tag_282:\n        /* \"#utility.yul\":527:533   */\n      dup6\n        /* \"#utility.yul\":524:525   */\n      dup2\n        /* \"#utility.yul\":521:534   */\n      lt\n        /* \"#utility.yul\":502:740   */\n      iszero\n      tag_284\n      jumpi\n        /* \"#utility.yul\":595:598   */\n      dup2\n        /* \"#utility.yul\":624:661   */\n      tag_285\n        /* \"#utility.yul\":657:660   */\n      dup9\n        /* \"#utility.yul\":645:655   */\n      dup3\n        /* \"#utility.yul\":624:661   */\n      tag_286\n      jump\t// in\n    tag_285:\n        /* \"#utility.yul\":619:622   */\n      dup5\n        /* \"#utility.yul\":612:662   */\n      mstore\n        /* \"#utility.yul\":691:695   */\n      0x20\n        /* \"#utility.yul\":686:689   */\n      dup5\n        /* \"#utility.yul\":682:696   */\n      add\n        /* \"#utility.yul\":675:696   */\n      swap4\n      pop\n        /* \"#utility.yul\":725:729   */\n      0x20\n        /* \"#utility.yul\":720:723   */\n      dup4\n        /* \"#utility.yul\":716:730   */\n      add\n        /* \"#utility.yul\":709:730   */\n      swap3\n      pop\n        /* \"#utility.yul\":562:740   */\n      pop\n        /* \"#utility.yul\":549:550   */\n      0x01\n        /* \"#utility.yul\":546:547   */\n      dup2\n        /* \"#utility.yul\":542:551   */\n      add\n        /* \"#utility.yul\":537:551   */\n      swap1\n      pop\n        /* \"#utility.yul\":502:740   */\n      jump(tag_282)\n    tag_284:\n        /* \"#utility.yul\":506:520   */\n      pop\n        /* \"#utility.yul\":126:746   */\n      pop\n      pop\n        /* \"#utility.yul\":24:746   */\n      swap4\n      swap3\n      pop\n      pop\n      pop\n      jump\t// out\n        /* \"#utility.yul\":752:1164   */\n    tag_287:\n        /* \"#utility.yul\":830:835   */\n      0x00\n        /* \"#utility.yul\":855:921   */\n      tag_289\n        /* \"#utility.yul\":871:920   */\n      tag_290\n        /* \"#utility.yul\":913:919   */\n      dup5\n        /* \"#utility.yul\":871:920   */\n      tag_291\n      jump\t// in\n    tag_290:\n        /* \"#utility.yul\":855:921   */\n      tag_278\n      jump\t// in\n    tag_289:\n        /* \"#utility.yul\":846:921   */\n      swap1\n      pop\n        /* \"#utility.yul\":944:950   */\n      dup3\n        /* \"#utility.yul\":937:942   */\n      dup2\n        /* \"#utility.yul\":930:951   */\n      mstore\n        /* \"#utility.yul\":982:986   */\n      0x20\n        /* \"#utility.yul\":975:980   */\n      dup2\n        /* \"#utility.yul\":971:987   */\n      add\n        /* \"#utility.yul\":1020:1023   */\n      dup5\n        /* \"#utility.yul\":1011:1017   */\n      dup5\n        /* \"#utility.yul\":1006:1009   */\n      dup5\n        /* \"#utility.yul\":1002:1018   */\n      add\n        /* \"#utility.yul\":999:1024   */\n      gt\n        /* \"#utility.yul\":996:1108   */\n      iszero\n      tag_292\n      jumpi\n        /* \"#utility.yul\":1027:1106   */\n      tag_293\n      tag_294\n      jump\t// in\n    tag_293:\n        /* \"#utility.yul\":996:1108   */\n    tag_292:\n        /* \"#utility.yul\":1117:1158   */\n      tag_295\n        /* \"#utility.yul\":1151:1157   */\n      dup5\n        /* \"#utility.yul\":1146:1149   */\n      dup3\n        /* \"#utility.yul\":1141:1144   */\n      dup6\n        /* \"#utility.yul\":1117:1158   */\n      tag_296\n      jump\t// in\n    tag_295:\n        /* \"#utility.yul\":836:1164   */\n      pop\n        /* \"#utility.yul\":752:1164   */\n      swap4\n      swap3\n      pop\n      pop\n      pop\n      jump\t// out\n        /* \"#utility.yul\":1170:1309   */\n    tag_286:\n        /* \"#utility.yul\":1216:1221   */\n      0x00\n        /* \"#utility.yul\":1254:1260   */\n      dup2\n        /* \"#utility.yul\":1241:1261   */\n      calldataload\n        /* \"#utility.yul\":1232:1261   */\n      swap1\n      pop\n        /* \"#utility.yul\":1270:1303   */\n      tag_298\n        /* \"#utility.yul\":1297:1302   */\n      dup2\n        /* \"#utility.yul\":1270:1303   */\n      tag_299\n      jump\t// in\n    tag_298:\n        /* \"#utility.yul\":1170:1309   */\n      swap3\n      swap2\n      pop\n      pop\n      jump\t// out\n        /* \"#utility.yul\":1332:1702   */\n    tag_300:\n        /* \"#utility.yul\":1403:1408   */\n      0x00\n        /* \"#utility.yul\":1452:1455   */\n      dup3\n        /* \"#utility.yul\":1445:1449   */\n      0x1f\n        /* \"#utility.yul\":1437:1443   */\n      dup4\n        /* \"#utility.yul\":1433:1450   */\n      add\n        /* \"#utility.yul\":1429:1456   */\n      slt\n        /* \"#utility.yul\":1419:1541   */\n      tag_302\n      jumpi\n        /* \"#utility.yul\":1460:1539   */\n      tag_303\n      tag_304\n      jump\t// in\n    tag_303:\n        /* \"#utility.yul\":1419:1541   */\n    tag_302:\n        /* \"#utility.yul\":1577:1583   */\n      dup2\n        /* \"#utility.yul\":1564:1584   */\n      calldataload\n        /* \"#utility.yul\":1602:1696   */\n      tag_305\n        /* \"#utility.yul\":1692:1695   */\n      dup5\n        /* \"#utility.yul\":1684:1690   */\n      dup3\n        /* \"#utility.yul\":1677:1681   */\n      0x20\n        /* \"#utility.yul\":1669:1675   */\n      dup7\n        /* \"#utility.yul\":1665:1682   */\n      add\n        /* \"#utility.yul\":1602:1696   */\n      tag_273\n      jump\t// in\n    tag_305:\n        /* \"#utility.yul\":1593:1696   */\n      swap2\n      pop\n        /* \"#utility.yul\":1409:1702   */\n      pop\n        /* \"#utility.yul\":1332:1702   */\n      swap3\n      swap2\n      pop\n      pop\n      jump\t// out\n        /* \"#utility.yul\":1724:2304   */\n    tag_306:\n        /* \"#utility.yul\":1809:1817   */\n      0x00\n        /* \"#utility.yul\":1819:1825   */\n      dup1\n        /* \"#utility.yul\":1869:1872   */\n      dup4\n        /* \"#utility.yul\":1862:1866   */\n      0x1f\n        /* \"#utility.yul\":1854:1860   */\n      dup5\n        /* \"#utility.yul\":1850:1867   */\n      add\n        /* \"#utility.yul\":1846:1873   */\n      slt\n        /* \"#utility.yul\":1836:1958   */\n      tag_308\n      jumpi\n        /* \"#utility.yul\":1877:1956   */\n      tag_309\n      tag_304\n      jump\t// in\n    tag_309:\n        /* \"#utility.yul\":1836:1958   */\n    tag_308:\n        /* \"#utility.yul\":1990:1996   */\n      dup3\n        /* \"#utility.yul\":1977:1997   */\n      calldataload\n        /* \"#utility.yul\":1967:1997   */\n      swap1\n      pop\n        /* \"#utility.yul\":2020:2038   */\n      0xffffffffffffffff\n        /* \"#utility.yul\":2012:2018   */\n      dup2\n        /* \"#utility.yul\":2009:2039   */\n      gt\n        /* \"#utility.yul\":2006:2123   */\n      iszero\n      tag_310\n      jumpi\n        /* \"#utility.yul\":2042:2121   */\n      tag_311\n      tag_312\n      jump\t// in\n    tag_311:\n        /* \"#utility.yul\":2006:2123   */\n    tag_310:\n        /* \"#utility.yul\":2156:2160   */\n      0x20\n        /* \"#utility.yul\":2148:2154   */\n      dup4\n        /* \"#utility.yul\":2144:2161   */\n      add\n        /* \"#utility.yul\":2132:2161   */\n      swap2\n      pop\n        /* \"#utility.yul\":2210:2213   */\n      dup4\n        /* \"#utility.yul\":2202:2206   */\n      0x20\n        /* \"#utility.yul\":2194:2200   */\n      dup3\n        /* \"#utility.yul\":2190:2207   */\n      mul\n        /* \"#utility.yul\":2180:2188   */\n      dup4\n        /* \"#utility.yul\":2176:2208   */\n      add\n        /* \"#utility.yul\":2173:2214   */\n      gt\n        /* \"#utility.yul\":2170:2298   */\n      iszero\n      tag_313\n      jumpi\n        /* \"#utility.yul\":2217:2296   */\n      tag_314\n      tag_281\n      jump\t// in\n    tag_314:\n        /* \"#utility.yul\":2170:2298   */\n    tag_313:\n        /* \"#utility.yul\":1724:2304   */\n      swap3\n      pop\n      swap3\n      swap1\n      pop\n      jump\t// out\n        /* \"#utility.yul\":2324:2664   */\n    tag_315:\n        /* \"#utility.yul\":2380:2385   */\n      0x00\n        /* \"#utility.yul\":2429:2432   */\n      dup3\n        /* \"#utility.yul\":2422:2426   */\n      0x1f\n        /* \"#utility.yul\":2414:2420   */\n      dup4\n        /* \"#utility.yul\":2410:2427   */\n      add\n        /* \"#utility.yul\":2406:2433   */\n      slt\n        /* \"#utility.yul\":2396:2518   */\n      tag_317\n      jumpi\n        /* \"#utility.yul\":2437:2516   */\n      tag_318\n      tag_304\n      jump\t// in\n    tag_318:\n        /* \"#utility.yul\":2396:2518   */\n    tag_317:\n        /* \"#utility.yul\":2554:2560   */\n      dup2\n        /* \"#utility.yul\":2541:2561   */\n      calldataload\n        /* \"#utility.yul\":2579:2658   */\n      tag_319\n        /* \"#utility.yul\":2654:2657   */\n      dup5\n        /* \"#utility.yul\":2646:2652   */\n      dup3\n        /* \"#utility.yul\":2639:2643   */\n      0x20\n        /* \"#utility.yul\":2631:2637   */\n      dup7\n        /* \"#utility.yul\":2627:2644   */\n      add\n        /* \"#utility.yul\":2579:2658   */\n      tag_287\n      jump\t// in\n    tag_319:\n        /* \"#utility.yul\":2570:2658   */\n      swap2\n      pop\n        /* \"#utility.yul\":2386:2664   */\n      pop\n        /* \"#utility.yul\":2324:2664   */\n      swap3\n      swap2\n      pop\n      pop\n      jump\t// out\n        /* \"#utility.yul\":2670:2809   */\n    tag_320:\n        /* \"#utility.yul\":2716:2721   */\n      0x00\n        /* \"#utility.yul\":2754:2760   */\n      dup2\n        /* \"#utility.yul\":2741:2761   */\n      calldataload\n        /* \"#utility.yul\":2732:2761   */\n      swap1\n      pop\n        /* \"#utility.yul\":2770:2803   */\n      tag_322\n        /* \"#utility.yul\":2797:2802   */\n      dup2\n        /* \"#utility.yul\":2770:2803   */\n      tag_323\n      jump\t// in\n    tag_322:\n        /* \"#utility.yul\":2670:2809   */\n      swap3\n      swap2\n      pop\n      pop\n      jump\t// out\n        /* \"#utility.yul\":2815:2950   */\n    tag_324:\n        /* \"#utility.yul\":2859:2864   */\n      0x00\n        /* \"#utility.yul\":2897:2903   */\n      dup2\n        /* \"#utility.yul\":2884:2904   */\n      calldataload\n        /* \"#utility.yul\":2875:2904   */\n      swap1\n      pop\n        /* \"#utility.yul\":2913:2944   */\n      tag_326\n        /* \"#utility.yul\":2938:2943   */\n      dup2\n        /* \"#utility.yul\":2913:2944   */\n      tag_327\n      jump\t// in\n    tag_326:\n        /* \"#utility.yul\":2815:2950   */\n      swap3\n      swap2\n      pop\n      pop\n      jump\t// out\n        /* \"#utility.yul\":2956:3285   */\n    tag_38:\n        /* \"#utility.yul\":3015:3021   */\n      0x00\n        /* \"#utility.yul\":3064:3066   */\n      0x20\n        /* \"#utility.yul\":3052:3061   */\n      dup3\n        /* \"#utility.yul\":3043:3050   */\n      dup5\n        /* \"#utility.yul\":3039:3062   */\n      sub\n        /* \"#utility.yul\":3035:3067   */\n      slt\n        /* \"#utility.yul\":3032:3151   */\n      iszero\n      tag_329\n      jumpi\n        /* \"#utility.yul\":3070:3149   */\n      tag_330\n      tag_331\n      jump\t// in\n    tag_330:\n        /* \"#utility.yul\":3032:3151   */\n    tag_329:\n        /* \"#utility.yul\":3190:3191   */\n      0x00\n        /* \"#utility.yul\":3215:3268   */\n      tag_332\n        /* \"#utility.yul\":3260:3267   */\n      dup5\n        /* \"#utility.yul\":3251:3257   */\n      dup3\n        /* \"#utility.yul\":3240:3249   */\n      dup6\n        /* \"#utility.yul\":3236:3258   */\n      add\n        /* \"#utility.yul\":3215:3268   */\n      tag_286\n      jump\t// in\n    tag_332:\n        /* \"#utility.yul\":3205:3268   */\n      swap2\n      pop\n        /* \"#utility.yul\":3161:3278   */\n      pop\n        /* \"#utility.yul\":2956:3285   */\n      swap3\n      swap2\n      pop\n      pop\n      jump\t// out\n        /* \"#utility.yul\":3291:3620   */\n    tag_16:\n        /* \"#utility.yul\":3350:3356   */\n      0x00\n        /* \"#utility.yul\":3399:3401   */\n      0x20\n        /* \"#utility.yul\":3387:3396   */\n      dup3\n        /* \"#utility.yul\":3378:3385   */\n      dup5\n        /* \"#utility.yul\":3374:3397   */\n      sub\n        /* \"#utility.yul\":3370:3402   */\n      slt\n        /* \"#utility.yul\":3367:3486   */\n      iszero\n      tag_334\n      jumpi\n        /* \"#utility.yul\":3405:3484   */\n      tag_335\n      tag_331\n      jump\t// in\n    tag_335:\n        /* \"#utility.yul\":3367:3486   */\n    tag_334:\n        /* \"#utility.yul\":3525:3526   */\n      0x00\n        /* \"#utility.yul\":3550:3603   */\n      tag_336\n        /* \"#utility.yul\":3595:3602   */\n      dup5\n        /* \"#utility.yul\":3586:3592   */\n      dup3\n        /* \"#utility.yul\":3575:3584   */\n      dup6\n        /* \"#utility.yul\":3571:3593   */\n      add\n        /* \"#utility.yul\":3550:3603   */\n      tag_320\n      jump\t// in\n    tag_336:\n        /* \"#utility.yul\":3540:3603   */\n      swap2\n      pop\n        /* \"#utility.yul\":3496:3613   */\n      pop\n        /* \"#utility.yul\":3291:3620   */\n      swap3\n      swap2\n      pop\n      pop\n      jump\t// out\n        /* \"#utility.yul\":3626:4571   */\n    tag_51:\n        /* \"#utility.yul\":3722:3728   */\n      0x00\n        /* \"#utility.yul\":3730:3736   */\n      dup1\n        /* \"#utility.yul\":3738:3744   */\n      0x00\n        /* \"#utility.yul\":3746:3752   */\n      dup1\n        /* \"#utility.yul\":3795:3798   */\n      0x80\n        /* \"#utility.yul\":3783:3792   */\n      dup6\n        /* \"#utility.yul\":3774:3781   */\n      dup8\n        /* \"#utility.yul\":3770:3793   */\n      sub\n        /* \"#utility.yul\":3766:3799   */\n      slt\n        /* \"#utility.yul\":3763:3883   */\n      iszero\n      tag_338\n      jumpi\n        /* \"#utility.yul\":3802:3881   */\n      tag_339\n      tag_331\n      jump\t// in\n    tag_339:\n        /* \"#utility.yul\":3763:3883   */\n    tag_338:\n        /* \"#utility.yul\":3922:3923   */\n      0x00\n        /* \"#utility.yul\":3947:4000   */\n      tag_340\n        /* \"#utility.yul\":3992:3999   */\n      dup8\n        /* \"#utility.yul\":3983:3989   */\n      dup3\n        /* \"#utility.yul\":3972:3981   */\n      dup9\n        /* \"#utility.yul\":3968:3990   */\n      add\n        /* \"#utility.yul\":3947:4000   */\n      tag_320\n      jump\t// in\n    tag_340:\n        /* \"#utility.yul\":3937:4000   */\n      swap5\n      pop\n        /* \"#utility.yul\":3893:4010   */\n      pop\n        /* \"#utility.yul\":4049:4051   */\n      0x20\n        /* \"#utility.yul\":4075:4128   */\n      tag_341\n        /* \"#utility.yul\":4120:4127   */\n      dup8\n        /* \"#utility.yul\":4111:4117   */\n      dup3\n        /* \"#utility.yul\":4100:4109   */\n      dup9\n        /* \"#utility.yul\":4096:4118   */\n      add\n        /* \"#utility.yul\":4075:4128   */\n      tag_286\n      jump\t// in\n    tag_341:\n        /* \"#utility.yul\":4065:4128   */\n      swap4\n      pop\n        /* \"#utility.yul\":4020:4138   */\n      pop\n        /* \"#utility.yul\":4205:4207   */\n      0x40\n        /* \"#utility.yul\":4194:4203   */\n      dup6\n        /* \"#utility.yul\":4190:4208   */\n      add\n        /* \"#utility.yul\":4177:4209   */\n      calldataload\n        /* \"#utility.yul\":4236:4254   */\n      0xffffffffffffffff\n        /* \"#utility.yul\":4228:4234   */\n      dup2\n        /* \"#utility.yul\":4225:4255   */\n      gt\n        /* \"#utility.yul\":4222:4339   */\n      iszero\n      tag_342\n      jumpi\n        /* \"#utility.yul\":4258:4337   */\n      tag_343\n      tag_344\n      jump\t// in\n    tag_343:\n        /* \"#utility.yul\":4222:4339   */\n    tag_342:\n        /* \"#utility.yul\":4363:4426   */\n      tag_345\n        /* \"#utility.yul\":4418:4425   */\n      dup8\n        /* \"#utility.yul\":4409:4415   */\n      dup3\n        /* \"#utility.yul\":4398:4407   */\n      dup9\n        /* \"#utility.yul\":4394:4416   */\n      add\n        /* \"#utility.yul\":4363:4426   */\n      tag_315\n      jump\t// in\n    tag_345:\n        /* \"#utility.yul\":4353:4426   */\n      swap3\n      pop\n        /* \"#utility.yul\":4148:4436   */\n      pop\n        /* \"#utility.yul\":4475:4477   */\n      0x60\n        /* \"#utility.yul\":4501:4554   */\n      tag_346\n        /* \"#utility.yul\":4546:4553   */\n      dup8\n        /* \"#utility.yul\":4537:4543   */\n      dup3\n        /* \"#utility.yul\":4526:4535   */\n      dup9\n        /* \"#utility.yul\":4522:4544   */\n      add\n        /* \"#utility.yul\":4501:4554   */\n      tag_320\n      jump\t// in\n    tag_346:\n        /* \"#utility.yul\":4491:4554   */\n      swap2\n      pop\n        /* \"#utility.yul\":4446:4564   */\n      pop\n        /* \"#utility.yul\":3626:4571   */\n      swap3\n      swap6\n      swap2\n      swap5\n      pop\n      swap3\n      pop\n      jump\t// out\n        /* \"#utility.yul\":4577:6566   */\n    tag_34:\n        /* \"#utility.yul\":4771:4777   */\n      0x00\n        /* \"#utility.yul\":4779:4785   */\n      dup1\n        /* \"#utility.yul\":4787:4793   */\n      0x00\n        /* \"#utility.yul\":4795:4801   */\n      dup1\n        /* \"#utility.yul\":4803:4809   */\n      0x00\n        /* \"#utility.yul\":4811:4817   */\n      dup1\n        /* \"#utility.yul\":4819:4825   */\n      0x00\n        /* \"#utility.yul\":4827:4833   */\n      dup1\n        /* \"#utility.yul\":4835:4841   */\n      0x00\n        /* \"#utility.yul\":4884:4887   */\n      0x0100\n        /* \"#utility.yul\":4872:4881   */\n      dup11\n        /* \"#utility.yul\":4863:4870   */\n      dup13\n        /* \"#utility.yul\":4859:4882   */\n      sub\n        /* \"#utility.yul\":4855:4888   */\n      slt\n        /* \"#utility.yul\":4852:4972   */\n      iszero\n      tag_348\n      jumpi\n        /* \"#utility.yul\":4891:4970   */\n      tag_349\n      tag_331\n      jump\t// in\n    tag_349:\n        /* \"#utility.yul\":4852:4972   */\n    tag_348:\n        /* \"#utility.yul\":5011:5012   */\n      0x00\n        /* \"#utility.yul\":5036:5087   */\n      tag_350\n        /* \"#utility.yul\":5079:5086   */\n      dup13\n        /* \"#utility.yul\":5070:5076   */\n      dup3\n        /* \"#utility.yul\":5059:5068   */\n      dup14\n        /* \"#utility.yul\":5055:5077   */\n      add\n        /* \"#utility.yul\":5036:5087   */\n      tag_324\n      jump\t// in\n    tag_350:\n        /* \"#utility.yul\":5026:5087   */\n      swap10\n      pop\n        /* \"#utility.yul\":4982:5097   */\n      pop\n        /* \"#utility.yul\":5164:5166   */\n      0x20\n        /* \"#utility.yul\":5153:5162   */\n      dup11\n        /* \"#utility.yul\":5149:5167   */\n      add\n        /* \"#utility.yul\":5136:5168   */\n      calldataload\n        /* \"#utility.yul\":5195:5213   */\n      0xffffffffffffffff\n        /* \"#utility.yul\":5187:5193   */\n      dup2\n        /* \"#utility.yul\":5184:5214   */\n      gt\n        /* \"#utility.yul\":5181:5298   */\n      iszero\n      tag_351\n      jumpi\n        /* \"#utility.yul\":5217:5296   */\n      tag_352\n      tag_344\n      jump\t// in\n    tag_352:\n        /* \"#utility.yul\":5181:5298   */\n    tag_351:\n        /* \"#utility.yul\":5322:5400   */\n      tag_353\n        /* \"#utility.yul\":5392:5399   */\n      dup13\n        /* \"#utility.yul\":5383:5389   */\n      dup3\n        /* \"#utility.yul\":5372:5381   */\n      dup14\n        /* \"#utility.yul\":5368:5390   */\n      add\n        /* \"#utility.yul\":5322:5400   */\n      tag_300\n      jump\t// in\n    tag_353:\n        /* \"#utility.yul\":5312:5400   */\n      swap9\n      pop\n        /* \"#utility.yul\":5107:5410   */\n      pop\n        /* \"#utility.yul\":5449:5451   */\n      0x40\n        /* \"#utility.yul\":5475:5528   */\n      tag_354\n        /* \"#utility.yul\":5520:5527   */\n      dup13\n        /* \"#utility.yul\":5511:5517   */\n      dup3\n        /* \"#utility.yul\":5500:5509   */\n      dup14\n        /* \"#utility.yul\":5496:5518   */\n      add\n        /* \"#utility.yul\":5475:5528   */\n      tag_286\n      jump\t// in\n    tag_354:\n        /* \"#utility.yul\":5465:5528   */\n      swap8\n      pop\n        /* \"#utility.yul\":5420:5538   */\n      pop\n        /* \"#utility.yul\":5577:5579   */\n      0x60\n        /* \"#utility.yul\":5603:5656   */\n      tag_355\n        /* \"#utility.yul\":5648:5655   */\n      dup13\n        /* \"#utility.yul\":5639:5645   */\n      dup3\n        /* \"#utility.yul\":5628:5637   */\n      dup14\n        /* \"#utility.yul\":5624:5646   */\n      add\n        /* \"#utility.yul\":5603:5656   */\n      tag_320\n      jump\t// in\n    tag_355:\n        /* \"#utility.yul\":5593:5656   */\n      swap7\n      pop\n        /* \"#utility.yul\":5548:5666   */\n      pop\n        /* \"#utility.yul\":5705:5708   */\n      0x80\n        /* \"#utility.yul\":5732:5785   */\n      tag_356\n        /* \"#utility.yul\":5777:5784   */\n      dup13\n        /* \"#utility.yul\":5768:5774   */\n      dup3\n        /* \"#utility.yul\":5757:5766   */\n      dup14\n        /* \"#utility.yul\":5753:5775   */\n      add\n        /* \"#utility.yul\":5732:5785   */\n      tag_320\n      jump\t// in\n    tag_356:\n        /* \"#utility.yul\":5722:5785   */\n      swap6\n      pop\n        /* \"#utility.yul\":5676:5795   */\n      pop\n        /* \"#utility.yul\":5862:5865   */\n      0xa0\n        /* \"#utility.yul\":5851:5860   */\n      dup11\n        /* \"#utility.yul\":5847:5866   */\n      add\n        /* \"#utility.yul\":5834:5867   */\n      calldataload\n        /* \"#utility.yul\":5894:5912   */\n      0xffffffffffffffff\n        /* \"#utility.yul\":5886:5892   */\n      dup2\n        /* \"#utility.yul\":5883:5913   */\n      gt\n        /* \"#utility.yul\":5880:5997   */\n      iszero\n      tag_357\n      jumpi\n        /* \"#utility.yul\":5916:5995   */\n      tag_358\n      tag_344\n      jump\t// in\n    tag_358:\n        /* \"#utility.yul\":5880:5997   */\n    tag_357:\n        /* \"#utility.yul\":6021:6084   */\n      tag_359\n        /* \"#utility.yul\":6076:6083   */\n      dup13\n        /* \"#utility.yul\":6067:6073   */\n      dup3\n        /* \"#utility.yul\":6056:6065   */\n      dup14\n        /* \"#utility.yul\":6052:6074   */\n      add\n        /* \"#utility.yul\":6021:6084   */\n      tag_315\n      jump\t// in\n    tag_359:\n        /* \"#utility.yul\":6011:6084   */\n      swap5\n      pop\n        /* \"#utility.yul\":5805:6094   */\n      pop\n        /* \"#utility.yul\":6161:6164   */\n      0xc0\n        /* \"#utility.yul\":6150:6159   */\n      dup11\n        /* \"#utility.yul\":6146:6165   */\n      add\n        /* \"#utility.yul\":6133:6166   */\n      calldataload\n        /* \"#utility.yul\":6193:6211   */\n      0xffffffffffffffff\n        /* \"#utility.yul\":6185:6191   */\n      dup2\n        /* \"#utility.yul\":6182:6212   */\n      gt\n        /* \"#utility.yul\":6179:6296   */\n      iszero\n      tag_360\n      jumpi\n        /* \"#utility.yul\":6215:6294   */\n      tag_361\n      tag_344\n      jump\t// in\n    tag_361:\n        /* \"#utility.yul\":6179:6296   */\n    tag_360:\n        /* \"#utility.yul\":6328:6420   */\n      tag_362\n        /* \"#utility.yul\":6412:6419   */\n      dup13\n        /* \"#utility.yul\":6403:6409   */\n      dup3\n        /* \"#utility.yul\":6392:6401   */\n      dup14\n        /* \"#utility.yul\":6388:6410   */\n      add\n        /* \"#utility.yul\":6328:6420   */\n      tag_306\n      jump\t// in\n    tag_362:\n        /* \"#utility.yul\":6310:6420   */\n      swap4\n      pop\n      swap4\n      pop\n        /* \"#utility.yul\":6104:6430   */\n      pop\n        /* \"#utility.yul\":6469:6472   */\n      0xe0\n        /* \"#utility.yul\":6496:6549   */\n      tag_363\n        /* \"#utility.yul\":6541:6548   */\n      dup13\n        /* \"#utility.yul\":6532:6538   */\n      dup3\n        /* \"#utility.yul\":6521:6530   */\n      dup14\n        /* \"#utility.yul\":6517:6539   */\n      add\n        /* \"#utility.yul\":6496:6549   */\n      tag_320\n      jump\t// in\n    tag_363:\n        /* \"#utility.yul\":6486:6549   */\n      swap2\n      pop\n        /* \"#utility.yul\":6440:6559   */\n      pop\n        /* \"#utility.yul\":4577:6566   */\n      swap3\n      swap6\n      swap9\n      pop\n      swap3\n      swap6\n      swap9\n      pop\n      swap3\n      swap6\n      swap9\n      jump\t// out\n        /* \"#utility.yul\":6572:6751   */\n    tag_364:\n        /* \"#utility.yul\":6641:6651   */\n      0x00\n        /* \"#utility.yul\":6662:6708   */\n      tag_366\n        /* \"#utility.yul\":6704:6707   */\n      dup4\n        /* \"#utility.yul\":6696:6702   */\n      dup4\n        /* \"#utility.yul\":6662:6708   */\n      tag_367\n      jump\t// in\n    tag_366:\n        /* \"#utility.yul\":6740:6744   */\n      0x20\n        /* \"#utility.yul\":6735:6738   */\n      dup4\n        /* \"#utility.yul\":6731:6745   */\n      add\n        /* \"#utility.yul\":6717:6745   */\n      swap1\n      pop\n        /* \"#utility.yul\":6572:6751   */\n      swap3\n      swap2\n      pop\n      pop\n      jump\t// out\n        /* \"#utility.yul\":6757:6973   */\n    tag_368:\n        /* \"#utility.yul\":6856:6866   */\n      0x00\n        /* \"#utility.yul\":6891:6967   */\n      tag_370\n        /* \"#utility.yul\":6963:6966   */\n      dup5\n        /* \"#utility.yul\":6955:6961   */\n      dup5\n        /* \"#utility.yul\":6947:6953   */\n      dup5\n        /* \"#utility.yul\":6891:6967   */\n      tag_371\n      jump\t// in\n    tag_370:\n        /* \"#utility.yul\":6877:6967   */\n      swap1\n      pop\n        /* \"#utility.yul\":6757:6973   */\n      swap4\n      swap3\n      pop\n      pop\n      pop\n      jump\t// out\n        /* \"#utility.yul\":6979:7087   */\n    tag_367:\n        /* \"#utility.yul\":7056:7080   */\n      tag_373\n        /* \"#utility.yul\":7074:7079   */\n      dup2\n        /* \"#utility.yul\":7056:7080   */\n      tag_374\n      jump\t// in\n    tag_373:\n        /* \"#utility.yul\":7051:7054   */\n      dup3\n        /* \"#utility.yul\":7044:7081   */\n      mstore\n        /* \"#utility.yul\":6979:7087   */\n      pop\n      pop\n      jump\t// out\n        /* \"#utility.yul\":7093:7211   */\n    tag_375:\n        /* \"#utility.yul\":7180:7204   */\n      tag_377\n        /* \"#utility.yul\":7198:7203   */\n      dup2\n        /* \"#utility.yul\":7180:7204   */\n      tag_374\n      jump\t// in\n    tag_377:\n        /* \"#utility.yul\":7175:7178   */\n      dup3\n        /* \"#utility.yul\":7168:7205   */\n      mstore\n        /* \"#utility.yul\":7093:7211   */\n      pop\n      pop\n      jump\t// out\n        /* \"#utility.yul\":7247:7979   */\n    tag_378:\n        /* \"#utility.yul\":7366:7369   */\n      0x00\n        /* \"#utility.yul\":7395:7449   */\n      tag_380\n        /* \"#utility.yul\":7443:7448   */\n      dup3\n        /* \"#utility.yul\":7395:7449   */\n      tag_381\n      jump\t// in\n    tag_380:\n        /* \"#utility.yul\":7465:7551   */\n      tag_382\n        /* \"#utility.yul\":7544:7550   */\n      dup2\n        /* \"#utility.yul\":7539:7542   */\n      dup6\n        /* \"#utility.yul\":7465:7551   */\n      tag_383\n      jump\t// in\n    tag_382:\n        /* \"#utility.yul\":7458:7551   */\n      swap4\n      pop\n        /* \"#utility.yul\":7575:7631   */\n      tag_384\n        /* \"#utility.yul\":7625:7630   */\n      dup4\n        /* \"#utility.yul\":7575:7631   */\n      tag_385\n      jump\t// in\n    tag_384:\n        /* \"#utility.yul\":7654:7661   */\n      dup1\n        /* \"#utility.yul\":7685:7686   */\n      0x00\n        /* \"#utility.yul\":7670:7954   */\n    tag_386:\n        /* \"#utility.yul\":7695:7701   */\n      dup4\n        /* \"#utility.yul\":7692:7693   */\n      dup2\n        /* \"#utility.yul\":7689:7702   */\n      lt\n        /* \"#utility.yul\":7670:7954   */\n      iszero\n      tag_388\n      jumpi\n        /* \"#utility.yul\":7771:7777   */\n      dup2\n        /* \"#utility.yul\":7765:7778   */\n      mload\n        /* \"#utility.yul\":7798:7861   */\n      tag_389\n        /* \"#utility.yul\":7857:7860   */\n      dup9\n        /* \"#utility.yul\":7842:7855   */\n      dup3\n        /* \"#utility.yul\":7798:7861   */\n      tag_364\n      jump\t// in\n    tag_389:\n        /* \"#utility.yul\":7791:7861   */\n      swap8\n      pop\n        /* \"#utility.yul\":7884:7944   */\n      tag_390\n        /* \"#utility.yul\":7937:7943   */\n      dup4\n        /* \"#utility.yul\":7884:7944   */\n      tag_391\n      jump\t// in\n    tag_390:\n        /* \"#utility.yul\":7874:7944   */\n      swap3\n      pop\n        /* \"#utility.yul\":7730:7954   */\n      pop\n        /* \"#utility.yul\":7717:7718   */\n      0x01\n        /* \"#utility.yul\":7714:7715   */\n      dup2\n        /* \"#utility.yul\":7710:7719   */\n      add\n        /* \"#utility.yul\":7705:7719   */\n      swap1\n      pop\n        /* \"#utility.yul\":7670:7954   */\n      jump(tag_386)\n    tag_388:\n        /* \"#utility.yul\":7674:7688   */\n      pop\n        /* \"#utility.yul\":7970:7973   */\n      dup6\n        /* \"#utility.yul\":7963:7973   */\n      swap4\n      pop\n        /* \"#utility.yul\":7371:7979   */\n      pop\n      pop\n      pop\n        /* \"#utility.yul\":7247:7979   */\n      swap3\n      swap2\n      pop\n      pop\n      jump\t// out\n        /* \"#utility.yul\":8013:9011   */\n    tag_392:\n        /* \"#utility.yul\":8164:8167   */\n      0x00\n        /* \"#utility.yul\":8187:8283   */\n      tag_394\n        /* \"#utility.yul\":8276:8282   */\n      dup4\n        /* \"#utility.yul\":8271:8274   */\n      dup6\n        /* \"#utility.yul\":8187:8283   */\n      tag_395\n      jump\t// in\n    tag_394:\n        /* \"#utility.yul\":8180:8283   */\n      swap4\n      pop\n        /* \"#utility.yul\":8309:8312   */\n      dup4\n        /* \"#utility.yul\":8354:8358   */\n      0x20\n        /* \"#utility.yul\":8346:8352   */\n      dup5\n        /* \"#utility.yul\":8342:8359   */\n      mul\n        /* \"#utility.yul\":8337:8340   */\n      dup6\n        /* \"#utility.yul\":8333:8360   */\n      add\n        /* \"#utility.yul\":8384:8454   */\n      tag_396\n        /* \"#utility.yul\":8448:8453   */\n      dup5\n        /* \"#utility.yul\":8384:8454   */\n      tag_397\n      jump\t// in\n    tag_396:\n        /* \"#utility.yul\":8477:8484   */\n      dup1\n        /* \"#utility.yul\":8508:8509   */\n      0x00\n        /* \"#utility.yul\":8493:8966   */\n    tag_398:\n        /* \"#utility.yul\":8518:8524   */\n      dup8\n        /* \"#utility.yul\":8515:8516   */\n      dup2\n        /* \"#utility.yul\":8512:8525   */\n      lt\n        /* \"#utility.yul\":8493:8966   */\n      iszero\n      tag_400\n      jumpi\n        /* \"#utility.yul\":8589:8598   */\n      dup5\n        /* \"#utility.yul\":8583:8587   */\n      dup5\n        /* \"#utility.yul\":8579:8599   */\n      sub\n        /* \"#utility.yul\":8574:8577   */\n      dup10\n        /* \"#utility.yul\":8567:8600   */\n      mstore\n        /* \"#utility.yul\":8649:8703   */\n      tag_401\n        /* \"#utility.yul\":8696:8702   */\n      dup3\n        /* \"#utility.yul\":8687:8694   */\n      dup5\n        /* \"#utility.yul\":8649:8703   */\n      tag_402\n      jump\t// in\n    tag_401:\n        /* \"#utility.yul\":8724:8825   */\n      tag_403\n        /* \"#utility.yul\":8820:8824   */\n      dup7\n        /* \"#utility.yul\":8805:8818   */\n      dup3\n        /* \"#utility.yul\":8790:8803   */\n      dup5\n        /* \"#utility.yul\":8724:8825   */\n      tag_368\n      jump\t// in\n    tag_403:\n        /* \"#utility.yul\":8716:8825   */\n      swap6\n      pop\n        /* \"#utility.yul\":8848:8922   */\n      tag_404\n        /* \"#utility.yul\":8915:8921   */\n      dup5\n        /* \"#utility.yul\":8848:8922   */\n      tag_405\n      jump\t// in\n    tag_404:\n        /* \"#utility.yul\":8838:8922   */\n      swap4\n      pop\n        /* \"#utility.yul\":8951:8955   */\n      0x20\n        /* \"#utility.yul\":8946:8949   */\n      dup12\n        /* \"#utility.yul\":8942:8956   */\n      add\n        /* \"#utility.yul\":8935:8956   */\n      swap11\n      pop\n        /* \"#utility.yul\":8553:8966   */\n      pop\n      pop\n        /* \"#utility.yul\":8540:8541   */\n      0x01\n        /* \"#utility.yul\":8537:8538   */\n      dup2\n        /* \"#utility.yul\":8533:8542   */\n      add\n        /* \"#utility.yul\":8528:8542   */\n      swap1\n      pop\n        /* \"#utility.yul\":8493:8966   */\n      jump(tag_398)\n    tag_400:\n        /* \"#utility.yul\":8497:8511   */\n      pop\n        /* \"#utility.yul\":8982:8986   */\n      dup3\n        /* \"#utility.yul\":8975:8986   */\n      swap8\n      pop\n        /* \"#utility.yul\":9002:9005   */\n      dup8\n        /* \"#utility.yul\":8995:9005   */\n      swap5\n      pop\n        /* \"#utility.yul\":8169:9011   */\n      pop\n      pop\n      pop\n      pop\n        /* \"#utility.yul\":8013:9011   */\n      swap4\n      swap3\n      pop\n      pop\n      pop\n      jump\t// out\n        /* \"#utility.yul\":9017:9126   */\n    tag_406:\n        /* \"#utility.yul\":9098:9119   */\n      tag_408\n        /* \"#utility.yul\":9113:9118   */\n      dup2\n        /* \"#utility.yul\":9098:9119   */\n      tag_409\n      jump\t// in\n    tag_408:\n        /* \"#utility.yul\":9093:9096   */\n      dup3\n        /* \"#utility.yul\":9086:9120   */\n      mstore\n        /* \"#utility.yul\":9017:9126   */\n      pop\n      pop\n      jump\t// out\n        /* \"#utility.yul\":9156:9440   */\n    tag_371:\n        /* \"#utility.yul\":9244:9247   */\n      0x00\n        /* \"#utility.yul\":9265:9326   */\n      tag_411\n        /* \"#utility.yul\":9319:9325   */\n      dup4\n        /* \"#utility.yul\":9314:9317   */\n      dup6\n        /* \"#utility.yul\":9265:9326   */\n      tag_412\n      jump\t// in\n    tag_411:\n        /* \"#utility.yul\":9258:9326   */\n      swap4\n      pop\n        /* \"#utility.yul\":9336:9379   */\n      tag_413\n        /* \"#utility.yul\":9372:9378   */\n      dup4\n        /* \"#utility.yul\":9367:9370   */\n      dup6\n        /* \"#utility.yul\":9360:9365   */\n      dup5\n        /* \"#utility.yul\":9336:9379   */\n      tag_296\n      jump\t// in\n    tag_413:\n        /* \"#utility.yul\":9404:9433   */\n      tag_414\n        /* \"#utility.yul\":9426:9432   */\n      dup4\n        /* \"#utility.yul\":9404:9433   */\n      tag_415\n      jump\t// in\n    tag_414:\n        /* \"#utility.yul\":9399:9402   */\n      dup5\n        /* \"#utility.yul\":9395:9434   */\n      add\n        /* \"#utility.yul\":9388:9434   */\n      swap1\n      pop\n        /* \"#utility.yul\":9156:9440   */\n      swap4\n      swap3\n      pop\n      pop\n      pop\n      jump\t// out\n        /* \"#utility.yul\":9470:9787   */\n    tag_416:\n        /* \"#utility.yul\":9586:9589   */\n      0x00\n        /* \"#utility.yul\":9607:9696   */\n      tag_418\n        /* \"#utility.yul\":9689:9695   */\n      dup4\n        /* \"#utility.yul\":9684:9687   */\n      dup6\n        /* \"#utility.yul\":9607:9696   */\n      tag_419\n      jump\t// in\n    tag_418:\n        /* \"#utility.yul\":9600:9696   */\n      swap4\n      pop\n        /* \"#utility.yul\":9706:9749   */\n      tag_420\n        /* \"#utility.yul\":9742:9748   */\n      dup4\n        /* \"#utility.yul\":9737:9740   */\n      dup6\n        /* \"#utility.yul\":9730:9735   */\n      dup5\n        /* \"#utility.yul\":9706:9749   */\n      tag_296\n      jump\t// in\n    tag_420:\n        /* \"#utility.yul\":9774:9780   */\n      dup3\n        /* \"#utility.yul\":9769:9772   */\n      dup5\n        /* \"#utility.yul\":9765:9781   */\n      add\n        /* \"#utility.yul\":9758:9781   */\n      swap1\n      pop\n        /* \"#utility.yul\":9470:9787   */\n      swap4\n      swap3\n      pop\n      pop\n      pop\n      jump\t// out\n        /* \"#utility.yul\":9793:10157   */\n    tag_421:\n        /* \"#utility.yul\":9881:9884   */\n      0x00\n        /* \"#utility.yul\":9909:9948   */\n      tag_423\n        /* \"#utility.yul\":9942:9947   */\n      dup3\n        /* \"#utility.yul\":9909:9948   */\n      tag_424\n      jump\t// in\n    tag_423:\n        /* \"#utility.yul\":9964:10035   */\n      tag_425\n        /* \"#utility.yul\":10028:10034   */\n      dup2\n        /* \"#utility.yul\":10023:10026   */\n      dup6\n        /* \"#utility.yul\":9964:10035   */\n      tag_426\n      jump\t// in\n    tag_425:\n        /* \"#utility.yul\":9957:10035   */\n      swap4\n      pop\n        /* \"#utility.yul\":10044:10096   */\n      tag_427\n        /* \"#utility.yul\":10089:10095   */\n      dup2\n        /* \"#utility.yul\":10084:10087   */\n      dup6\n        /* \"#utility.yul\":10077:10081   */\n      0x20\n        /* \"#utility.yul\":10070:10075   */\n      dup7\n        /* \"#utility.yul\":10066:10082   */\n      add\n        /* \"#utility.yul\":10044:10096   */\n      tag_428\n      jump\t// in\n    tag_427:\n        /* \"#utility.yul\":10121:10150   */\n      tag_429\n        /* \"#utility.yul\":10143:10149   */\n      dup2\n        /* \"#utility.yul\":10121:10150   */\n      tag_415\n      jump\t// in\n    tag_429:\n        /* \"#utility.yul\":10116:10119   */\n      dup5\n        /* \"#utility.yul\":10112:10151   */\n      add\n        /* \"#utility.yul\":10105:10151   */\n      swap2\n      pop\n        /* \"#utility.yul\":9885:10157   */\n      pop\n        /* \"#utility.yul\":9793:10157   */\n      swap3\n      swap2\n      pop\n      pop\n      jump\t// out\n        /* \"#utility.yul\":10163:10540   */\n    tag_430:\n        /* \"#utility.yul\":10269:10272   */\n      0x00\n        /* \"#utility.yul\":10297:10336   */\n      tag_432\n        /* \"#utility.yul\":10330:10335   */\n      dup3\n        /* \"#utility.yul\":10297:10336   */\n      tag_424\n      jump\t// in\n    tag_432:\n        /* \"#utility.yul\":10352:10441   */\n      tag_433\n        /* \"#utility.yul\":10434:10440   */\n      dup2\n        /* \"#utility.yul\":10429:10432   */\n      dup6\n        /* \"#utility.yul\":10352:10441   */\n      tag_419\n      jump\t// in\n    tag_433:\n        /* \"#utility.yul\":10345:10441   */\n      swap4\n      pop\n        /* \"#utility.yul\":10450:10502   */\n      tag_434\n        /* \"#utility.yul\":10495:10501   */\n      dup2\n        /* \"#utility.yul\":10490:10493   */\n      dup6\n        /* \"#utility.yul\":10483:10487   */\n      0x20\n        /* \"#utility.yul\":10476:10481   */\n      dup7\n        /* \"#utility.yul\":10472:10488   */\n      add\n        /* \"#utility.yul\":10450:10502   */\n      tag_428\n      jump\t// in\n    tag_434:\n        /* \"#utility.yul\":10527:10533   */\n      dup1\n        /* \"#utility.yul\":10522:10525   */\n      dup5\n        /* \"#utility.yul\":10518:10534   */\n      add\n        /* \"#utility.yul\":10511:10534   */\n      swap2\n      pop\n        /* \"#utility.yul\":10273:10540   */\n      pop\n        /* \"#utility.yul\":10163:10540   */\n      swap3\n      swap2\n      pop\n      pop\n      jump\t// out\n        /* \"#utility.yul\":10570:11415   */\n    tag_435:\n        /* \"#utility.yul\":10673:10676   */\n      0x00\n        /* \"#utility.yul\":10710:10715   */\n      dup2\n        /* \"#utility.yul\":10704:10716   */\n      sload\n        /* \"#utility.yul\":10739:10775   */\n      tag_437\n        /* \"#utility.yul\":10765:10774   */\n      dup2\n        /* \"#utility.yul\":10739:10775   */\n      tag_59\n      jump\t// in\n    tag_437:\n        /* \"#utility.yul\":10791:10880   */\n      tag_438\n        /* \"#utility.yul\":10873:10879   */\n      dup2\n        /* \"#utility.yul\":10868:10871   */\n      dup7\n        /* \"#utility.yul\":10791:10880   */\n      tag_419\n      jump\t// in\n    tag_438:\n        /* \"#utility.yul\":10784:10880   */\n      swap5\n      pop\n        /* \"#utility.yul\":10911:10912   */\n      0x01\n        /* \"#utility.yul\":10900:10909   */\n      dup3\n        /* \"#utility.yul\":10896:10913   */\n      and\n        /* \"#utility.yul\":10927:10928   */\n      0x00\n        /* \"#utility.yul\":10922:11059   */\n      dup2\n      eq\n      tag_440\n      jumpi\n        /* \"#utility.yul\":11073:11074   */\n      0x01\n        /* \"#utility.yul\":11068:11409   */\n      dup2\n      eq\n      tag_441\n      jumpi\n        /* \"#utility.yul\":10889:11409   */\n      jump(tag_439)\n        /* \"#utility.yul\":10922:11059   */\n    tag_440:\n        /* \"#utility.yul\":11006:11010   */\n      0xff\n        /* \"#utility.yul\":11002:11011   */\n      not\n        /* \"#utility.yul\":10991:11000   */\n      dup4\n        /* \"#utility.yul\":10987:11012   */\n      and\n        /* \"#utility.yul\":10982:10985   */\n      dup7\n        /* \"#utility.yul\":10975:11013   */\n      mstore\n        /* \"#utility.yul\":11042:11048   */\n      dup2\n        /* \"#utility.yul\":11037:11040   */\n      dup7\n        /* \"#utility.yul\":11033:11049   */\n      add\n        /* \"#utility.yul\":11026:11049   */\n      swap4\n      pop\n        /* \"#utility.yul\":10922:11059   */\n      jump(tag_439)\n        /* \"#utility.yul\":11068:11409   */\n    tag_441:\n        /* \"#utility.yul\":11135:11173   */\n      tag_442\n        /* \"#utility.yul\":11167:11172   */\n      dup6\n        /* \"#utility.yul\":11135:11173   */\n      tag_443\n      jump\t// in\n    tag_442:\n        /* \"#utility.yul\":11195:11196   */\n      0x00\n        /* \"#utility.yul\":11209:11363   */\n    tag_444:\n        /* \"#utility.yul\":11223:11229   */\n      dup4\n        /* \"#utility.yul\":11220:11221   */\n      dup2\n        /* \"#utility.yul\":11217:11230   */\n      lt\n        /* \"#utility.yul\":11209:11363   */\n      iszero\n      tag_446\n      jumpi\n        /* \"#utility.yul\":11297:11304   */\n      dup2\n        /* \"#utility.yul\":11291:11305   */\n      sload\n        /* \"#utility.yul\":11287:11288   */\n      dup2\n        /* \"#utility.yul\":11282:11285   */\n      dup10\n        /* \"#utility.yul\":11278:11289   */\n      add\n        /* \"#utility.yul\":11271:11306   */\n      mstore\n        /* \"#utility.yul\":11347:11348   */\n      0x01\n        /* \"#utility.yul\":11338:11345   */\n      dup3\n        /* \"#utility.yul\":11334:11349   */\n      add\n        /* \"#utility.yul\":11323:11349   */\n      swap2\n      pop\n        /* \"#utility.yul\":11245:11249   */\n      0x20\n        /* \"#utility.yul\":11242:11243   */\n      dup2\n        /* \"#utility.yul\":11238:11250   */\n      add\n        /* \"#utility.yul\":11233:11250   */\n      swap1\n      pop\n        /* \"#utility.yul\":11209:11363   */\n      jump(tag_444)\n    tag_446:\n        /* \"#utility.yul\":11392:11398   */\n      dup4\n        /* \"#utility.yul\":11387:11390   */\n      dup9\n        /* \"#utility.yul\":11383:11399   */\n      add\n        /* \"#utility.yul\":11376:11399   */\n      swap6\n      pop\n        /* \"#utility.yul\":11075:11409   */\n      pop\n      pop\n        /* \"#utility.yul\":10889:11409   */\n    tag_439:\n      pop\n        /* \"#utility.yul\":10677:11415   */\n      pop\n      pop\n        /* \"#utility.yul\":10570:11415   */\n      swap3\n      swap2\n      pop\n      pop\n      jump\t// out\n        /* \"#utility.yul\":11421:11787   */\n    tag_447:\n        /* \"#utility.yul\":11563:11566   */\n      0x00\n        /* \"#utility.yul\":11584:11651   */\n      tag_449\n        /* \"#utility.yul\":11648:11650   */\n      0x12\n        /* \"#utility.yul\":11643:11646   */\n      dup4\n        /* \"#utility.yul\":11584:11651   */\n      tag_426\n      jump\t// in\n    tag_449:\n        /* \"#utility.yul\":11577:11651   */\n      swap2\n      pop\n        /* \"#utility.yul\":11660:11753   */\n      tag_450\n        /* \"#utility.yul\":11749:11752   */\n      dup3\n        /* \"#utility.yul\":11660:11753   */\n      tag_451\n      jump\t// in\n    tag_450:\n        /* \"#utility.yul\":11778:11780   */\n      0x20\n        /* \"#utility.yul\":11773:11776   */\n      dup3\n        /* \"#utility.yul\":11769:11781   */\n      add\n        /* \"#utility.yul\":11762:11781   */\n      swap1\n      pop\n        /* \"#utility.yul\":11421:11787   */\n      swap2\n      swap1\n      pop\n      jump\t// out\n        /* \"#utility.yul\":11793:12159   */\n    tag_452:\n        /* \"#utility.yul\":11935:11938   */\n      0x00\n        /* \"#utility.yul\":11956:12023   */\n      tag_454\n        /* \"#utility.yul\":12020:12022   */\n      0x2c\n        /* \"#utility.yul\":12015:12018   */\n      dup4\n        /* \"#utility.yul\":11956:12023   */\n      tag_426\n      jump\t// in\n    tag_454:\n        /* \"#utility.yul\":11949:12023   */\n      swap2\n      pop\n        /* \"#utility.yul\":12032:12125   */\n      tag_455\n        /* \"#utility.yul\":12121:12124   */\n      dup3\n        /* \"#utility.yul\":12032:12125   */\n      tag_456\n      jump\t// in\n    tag_455:\n        /* \"#utility.yul\":12150:12152   */\n      0x40\n        /* \"#utility.yul\":12145:12148   */\n      dup3\n        /* \"#utility.yul\":12141:12153   */\n      add\n        /* \"#utility.yul\":12134:12153   */\n      swap1\n      pop\n        /* \"#utility.yul\":11793:12159   */\n      swap2\n      swap1\n      pop\n      jump\t// out\n        /* \"#utility.yul\":12165:12531   */\n    tag_457:\n        /* \"#utility.yul\":12307:12310   */\n      0x00\n        /* \"#utility.yul\":12328:12395   */\n      tag_459\n        /* \"#utility.yul\":12392:12394   */\n      0x22\n        /* \"#utility.yul\":12387:12390   */\n      dup4\n        /* \"#utility.yul\":12328:12395   */\n      tag_426\n      jump\t// in\n    tag_459:\n        /* \"#utility.yul\":12321:12395   */\n      swap2\n      pop\n        /* \"#utility.yul\":12404:12497   */\n      tag_460\n        /* \"#utility.yul\":12493:12496   */\n      dup3\n        /* \"#utility.yul\":12404:12497   */\n      tag_461\n      jump\t// in\n    tag_460:\n        /* \"#utility.yul\":12522:12524   */\n      0x40\n        /* \"#utility.yul\":12517:12520   */\n      dup3\n        /* \"#utility.yul\":12513:12525   */\n      add\n        /* \"#utility.yul\":12506:12525   */\n      swap1\n      pop\n        /* \"#utility.yul\":12165:12531   */\n      swap2\n      swap1\n      pop\n      jump\t// out\n        /* \"#utility.yul\":12537:12903   */\n    tag_462:\n        /* \"#utility.yul\":12679:12682   */\n      0x00\n        /* \"#utility.yul\":12700:12767   */\n      tag_464\n        /* \"#utility.yul\":12764:12766   */\n      0x0d\n        /* \"#utility.yul\":12759:12762   */\n      dup4\n        /* \"#utility.yul\":12700:12767   */\n      tag_426\n      jump\t// in\n    tag_464:\n        /* \"#utility.yul\":12693:12767   */\n      swap2\n      pop\n        /* \"#utility.yul\":12776:12869   */\n      tag_465\n        /* \"#utility.yul\":12865:12868   */\n      dup3\n        /* \"#utility.yul\":12776:12869   */\n      tag_466\n      jump\t// in\n    tag_465:\n        /* \"#utility.yul\":12894:12896   */\n      0x20\n        /* \"#utility.yul\":12889:12892   */\n      dup3\n        /* \"#utility.yul\":12885:12897   */\n      add\n        /* \"#utility.yul\":12878:12897   */\n      swap1\n      pop\n        /* \"#utility.yul\":12537:12903   */\n      swap2\n      swap1\n      pop\n      jump\t// out\n        /* \"#utility.yul\":12909:13275   */\n    tag_467:\n        /* \"#utility.yul\":13051:13054   */\n      0x00\n        /* \"#utility.yul\":13072:13139   */\n      tag_469\n        /* \"#utility.yul\":13136:13138   */\n      0x1b\n        /* \"#utility.yul\":13131:13134   */\n      dup4\n        /* \"#utility.yul\":13072:13139   */\n      tag_426\n      jump\t// in\n    tag_469:\n        /* \"#utility.yul\":13065:13139   */\n      swap2\n      pop\n        /* \"#utility.yul\":13148:13241   */\n      tag_470\n        /* \"#utility.yul\":13237:13240   */\n      dup3\n        /* \"#utility.yul\":13148:13241   */\n      tag_471\n      jump\t// in\n    tag_470:\n        /* \"#utility.yul\":13266:13268   */\n      0x20\n        /* \"#utility.yul\":13261:13264   */\n      dup3\n        /* \"#utility.yul\":13257:13269   */\n      add\n        /* \"#utility.yul\":13250:13269   */\n      swap1\n      pop\n        /* \"#utility.yul\":12909:13275   */\n      swap2\n      swap1\n      pop\n      jump\t// out\n        /* \"#utility.yul\":13281:13647   */\n    tag_472:\n        /* \"#utility.yul\":13423:13426   */\n      0x00\n        /* \"#utility.yul\":13444:13511   */\n      tag_474\n        /* \"#utility.yul\":13508:13510   */\n      0x23\n        /* \"#utility.yul\":13503:13506   */\n      dup4\n        /* \"#utility.yul\":13444:13511   */\n      tag_426\n      jump\t// in\n    tag_474:\n        /* \"#utility.yul\":13437:13511   */\n      swap2\n      pop\n        /* \"#utility.yul\":13520:13613   */\n      tag_475\n        /* \"#utility.yul\":13609:13612   */\n      dup3\n        /* \"#utility.yul\":13520:13613   */\n      tag_476\n      jump\t// in\n    tag_475:\n        /* \"#utility.yul\":13638:13640   */\n      0x40\n        /* \"#utility.yul\":13633:13636   */\n      dup3\n        /* \"#utility.yul\":13629:13641   */\n      add\n        /* \"#utility.yul\":13622:13641   */\n      swap1\n      pop\n        /* \"#utility.yul\":13281:13647   */\n      swap2\n      swap1\n      pop\n      jump\t// out\n        /* \"#utility.yul\":13653:14019   */\n    tag_477:\n        /* \"#utility.yul\":13795:13798   */\n      0x00\n        /* \"#utility.yul\":13816:13883   */\n      tag_479\n        /* \"#utility.yul\":13880:13882   */\n      0x14\n        /* \"#utility.yul\":13875:13878   */\n      dup4\n        /* \"#utility.yul\":13816:13883   */\n      tag_426\n      jump\t// in\n    tag_479:\n        /* \"#utility.yul\":13809:13883   */\n      swap2\n      pop\n        /* \"#utility.yul\":13892:13985   */\n      tag_480\n        /* \"#utility.yul\":13981:13984   */\n      dup3\n        /* \"#utility.yul\":13892:13985   */\n      tag_481\n      jump\t// in\n    tag_480:\n        /* \"#utility.yul\":14010:14012   */\n      0x20\n        /* \"#utility.yul\":14005:14008   */\n      dup3\n        /* \"#utility.yul\":14001:14013   */\n      add\n        /* \"#utility.yul\":13994:14013   */\n      swap1\n      pop\n        /* \"#utility.yul\":13653:14019   */\n      swap2\n      swap1\n      pop\n      jump\t// out\n        /* \"#utility.yul\":14025:14391   */\n    tag_482:\n        /* \"#utility.yul\":14167:14170   */\n      0x00\n        /* \"#utility.yul\":14188:14255   */\n      tag_484\n        /* \"#utility.yul\":14252:14254   */\n      0x23\n        /* \"#utility.yul\":14247:14250   */\n      dup4\n        /* \"#utility.yul\":14188:14255   */\n      tag_426\n      jump\t// in\n    tag_484:\n        /* \"#utility.yul\":14181:14255   */\n      swap2\n      pop\n        /* \"#utility.yul\":14264:14357   */\n      tag_485\n        /* \"#utility.yul\":14353:14356   */\n      dup3\n        /* \"#utility.yul\":14264:14357   */\n      tag_486\n      jump\t// in\n    tag_485:\n        /* \"#utility.yul\":14382:14384   */\n      0x40\n        /* \"#utility.yul\":14377:14380   */\n      dup3\n        /* \"#utility.yul\":14373:14385   */\n      add\n        /* \"#utility.yul\":14366:14385   */\n      swap1\n      pop\n        /* \"#utility.yul\":14025:14391   */\n      swap2\n      swap1\n      pop\n      jump\t// out\n        /* \"#utility.yul\":14397:14763   */\n    tag_487:\n        /* \"#utility.yul\":14539:14542   */\n      0x00\n        /* \"#utility.yul\":14560:14627   */\n      tag_489\n        /* \"#utility.yul\":14624:14626   */\n      0x12\n        /* \"#utility.yul\":14619:14622   */\n      dup4\n        /* \"#utility.yul\":14560:14627   */\n      tag_426\n      jump\t// in\n    tag_489:\n        /* \"#utility.yul\":14553:14627   */\n      swap2\n      pop\n        /* \"#utility.yul\":14636:14729   */\n      tag_490\n        /* \"#utility.yul\":14725:14728   */\n      dup3\n        /* \"#utility.yul\":14636:14729   */\n      tag_491\n      jump\t// in\n    tag_490:\n        /* \"#utility.yul\":14754:14756   */\n      0x20\n        /* \"#utility.yul\":14749:14752   */\n      dup3\n        /* \"#utility.yul\":14745:14757   */\n      add\n        /* \"#utility.yul\":14738:14757   */\n      swap1\n      pop\n        /* \"#utility.yul\":14397:14763   */\n      swap2\n      swap1\n      pop\n      jump\t// out\n        /* \"#utility.yul\":14769:15135   */\n    tag_492:\n        /* \"#utility.yul\":14911:14914   */\n      0x00\n        /* \"#utility.yul\":14932:14999   */\n      tag_494\n        /* \"#utility.yul\":14996:14998   */\n      0x23\n        /* \"#utility.yul\":14991:14994   */\n      dup4\n        /* \"#utility.yul\":14932:14999   */\n      tag_426\n      jump\t// in\n    tag_494:\n        /* \"#utility.yul\":14925:14999   */\n      swap2\n      pop\n        /* \"#utility.yul\":15008:15101   */\n      tag_495\n        /* \"#utility.yul\":15097:15100   */\n      dup3\n        /* \"#utility.yul\":15008:15101   */\n      tag_496\n      jump\t// in\n    tag_495:\n        /* \"#utility.yul\":15126:15128   */\n      0x40\n        /* \"#utility.yul\":15121:15124   */\n      dup3\n        /* \"#utility.yul\":15117:15129   */\n      add\n        /* \"#utility.yul\":15110:15129   */\n      swap1\n      pop\n        /* \"#utility.yul\":14769:15135   */\n      swap2\n      swap1\n      pop\n      jump\t// out\n        /* \"#utility.yul\":15141:15507   */\n    tag_497:\n        /* \"#utility.yul\":15283:15286   */\n      0x00\n        /* \"#utility.yul\":15304:15371   */\n      tag_499\n        /* \"#utility.yul\":15368:15370   */\n      0x2a\n        /* \"#utility.yul\":15363:15366   */\n      dup4\n        /* \"#utility.yul\":15304:15371   */\n      tag_426\n      jump\t// in\n    tag_499:\n        /* \"#utility.yul\":15297:15371   */\n      swap2\n      pop\n        /* \"#utility.yul\":15380:15473   */\n      tag_500\n        /* \"#utility.yul\":15469:15472   */\n      dup3\n        /* \"#utility.yul\":15380:15473   */\n      tag_501\n      jump\t// in\n    tag_500:\n        /* \"#utility.yul\":15498:15500   */\n      0x40\n        /* \"#utility.yul\":15493:15496   */\n      dup3\n        /* \"#utility.yul\":15489:15501   */\n      add\n        /* \"#utility.yul\":15482:15501   */\n      swap1\n      pop\n        /* \"#utility.yul\":15141:15507   */\n      swap2\n      swap1\n      pop\n      jump\t// out\n        /* \"#utility.yul\":15513:15879   */\n    tag_502:\n        /* \"#utility.yul\":15655:15658   */\n      0x00\n        /* \"#utility.yul\":15676:15743   */\n      tag_504\n        /* \"#utility.yul\":15740:15742   */\n      0x21\n        /* \"#utility.yul\":15735:15738   */\n      dup4\n        /* \"#utility.yul\":15676:15743   */\n      tag_426\n      jump\t// in\n    tag_504:\n        /* \"#utility.yul\":15669:15743   */\n      swap2\n      pop\n        /* \"#utility.yul\":15752:15845   */\n      tag_505\n        /* \"#utility.yul\":15841:15844   */\n      dup3\n        /* \"#utility.yul\":15752:15845   */\n      tag_506\n      jump\t// in\n    tag_505:\n        /* \"#utility.yul\":15870:15872   */\n      0x40\n        /* \"#utility.yul\":15865:15868   */\n      dup3\n        /* \"#utility.yul\":15861:15873   */\n      add\n        /* \"#utility.yul\":15854:15873   */\n      swap1\n      pop\n        /* \"#utility.yul\":15513:15879   */\n      swap2\n      swap1\n      pop\n      jump\t// out\n        /* \"#utility.yul\":15885:16250   */\n    tag_507:\n        /* \"#utility.yul\":16027:16030   */\n      0x00\n        /* \"#utility.yul\":16048:16114   */\n      tag_509\n        /* \"#utility.yul\":16112:16113   */\n      0x04\n        /* \"#utility.yul\":16107:16110   */\n      dup4\n        /* \"#utility.yul\":16048:16114   */\n      tag_426\n      jump\t// in\n    tag_509:\n        /* \"#utility.yul\":16041:16114   */\n      swap2\n      pop\n        /* \"#utility.yul\":16123:16216   */\n      tag_510\n        /* \"#utility.yul\":16212:16215   */\n      dup3\n        /* \"#utility.yul\":16123:16216   */\n      tag_511\n      jump\t// in\n    tag_510:\n        /* \"#utility.yul\":16241:16243   */\n      0x20\n        /* \"#utility.yul\":16236:16239   */\n      dup3\n        /* \"#utility.yul\":16232:16244   */\n      add\n        /* \"#utility.yul\":16225:16244   */\n      swap1\n      pop\n        /* \"#utility.yul\":15885:16250   */\n      swap2\n      swap1\n      pop\n      jump\t// out\n        /* \"#utility.yul\":16256:16622   */\n    tag_512:\n        /* \"#utility.yul\":16398:16401   */\n      0x00\n        /* \"#utility.yul\":16419:16486   */\n      tag_514\n        /* \"#utility.yul\":16483:16485   */\n      0x1d\n        /* \"#utility.yul\":16478:16481   */\n      dup4\n        /* \"#utility.yul\":16419:16486   */\n      tag_426\n      jump\t// in\n    tag_514:\n        /* \"#utility.yul\":16412:16486   */\n      swap2\n      pop\n        /* \"#utility.yul\":16495:16588   */\n      tag_515\n        /* \"#utility.yul\":16584:16587   */\n      dup3\n        /* \"#utility.yul\":16495:16588   */\n      tag_516\n      jump\t// in\n    tag_515:\n        /* \"#utility.yul\":16613:16615   */\n      0x20\n        /* \"#utility.yul\":16608:16611   */\n      dup3\n        /* \"#utility.yul\":16604:16616   */\n      add\n        /* \"#utility.yul\":16597:16616   */\n      swap1\n      pop\n        /* \"#utility.yul\":16256:16622   */\n      swap2\n      swap1\n      pop\n      jump\t// out\n        /* \"#utility.yul\":16628:16993   */\n    tag_517:\n        /* \"#utility.yul\":16770:16773   */\n      0x00\n        /* \"#utility.yul\":16791:16857   */\n      tag_519\n        /* \"#utility.yul\":16855:16856   */\n      0x04\n        /* \"#utility.yul\":16850:16853   */\n      dup4\n        /* \"#utility.yul\":16791:16857   */\n      tag_426\n      jump\t// in\n    tag_519:\n        /* \"#utility.yul\":16784:16857   */\n      swap2\n      pop\n        /* \"#utility.yul\":16866:16959   */\n      tag_520\n        /* \"#utility.yul\":16955:16958   */\n      dup3\n        /* \"#utility.yul\":16866:16959   */\n      tag_521\n      jump\t// in\n    tag_520:\n        /* \"#utility.yul\":16984:16986   */\n      0x20\n        /* \"#utility.yul\":16979:16982   */\n      dup3\n        /* \"#utility.yul\":16975:16987   */\n      add\n        /* \"#utility.yul\":16968:16987   */\n      swap1\n      pop\n        /* \"#utility.yul\":16628:16993   */\n      swap2\n      swap1\n      pop\n      jump\t// out\n        /* \"#utility.yul\":16999:17364   */\n    tag_522:\n        /* \"#utility.yul\":17141:17144   */\n      0x00\n        /* \"#utility.yul\":17162:17228   */\n      tag_524\n        /* \"#utility.yul\":17226:17227   */\n      0x09\n        /* \"#utility.yul\":17221:17224   */\n      dup4\n        /* \"#utility.yul\":17162:17228   */\n      tag_426\n      jump\t// in\n    tag_524:\n        /* \"#utility.yul\":17155:17228   */\n      swap2\n      pop\n        /* \"#utility.yul\":17237:17330   */\n      tag_525\n        /* \"#utility.yul\":17326:17329   */\n      dup3\n        /* \"#utility.yul\":17237:17330   */\n      tag_526\n      jump\t// in\n    tag_525:\n        /* \"#utility.yul\":17355:17357   */\n      0x20\n        /* \"#utility.yul\":17350:17353   */\n      dup3\n        /* \"#utility.yul\":17346:17358   */\n      add\n        /* \"#utility.yul\":17339:17358   */\n      swap1\n      pop\n        /* \"#utility.yul\":16999:17364   */\n      swap2\n      swap1\n      pop\n      jump\t// out\n        /* \"#utility.yul\":17370:17736   */\n    tag_527:\n        /* \"#utility.yul\":17512:17515   */\n      0x00\n        /* \"#utility.yul\":17533:17600   */\n      tag_529\n        /* \"#utility.yul\":17597:17599   */\n      0x1f\n        /* \"#utility.yul\":17592:17595   */\n      dup4\n        /* \"#utility.yul\":17533:17600   */\n      tag_426\n      jump\t// in\n    tag_529:\n        /* \"#utility.yul\":17526:17600   */\n      swap2\n      pop\n        /* \"#utility.yul\":17609:17702   */\n      tag_530\n        /* \"#utility.yul\":17698:17701   */\n      dup3\n        /* \"#utility.yul\":17609:17702   */\n      tag_531\n      jump\t// in\n    tag_530:\n        /* \"#utility.yul\":17727:17729   */\n      0x20\n        /* \"#utility.yul\":17722:17725   */\n      dup3\n        /* \"#utility.yul\":17718:17730   */\n      add\n        /* \"#utility.yul\":17711:17730   */\n      swap1\n      pop\n        /* \"#utility.yul\":17370:17736   */\n      swap2\n      swap1\n      pop\n      jump\t// out\n        /* \"#utility.yul\":17742:17860   */\n    tag_532:\n        /* \"#utility.yul\":17829:17853   */\n      tag_534\n        /* \"#utility.yul\":17847:17852   */\n      dup2\n        /* \"#utility.yul\":17829:17853   */\n      tag_535\n      jump\t// in\n    tag_534:\n        /* \"#utility.yul\":17824:17827   */\n      dup3\n        /* \"#utility.yul\":17817:17854   */\n      mstore\n        /* \"#utility.yul\":17742:17860   */\n      pop\n      pop\n      jump\t// out\n        /* \"#utility.yul\":17866:17981   */\n    tag_536:\n        /* \"#utility.yul\":17951:17974   */\n      tag_538\n        /* \"#utility.yul\":17968:17973   */\n      dup2\n        /* \"#utility.yul\":17951:17974   */\n      tag_539\n      jump\t// in\n    tag_538:\n        /* \"#utility.yul\":17946:17949   */\n      dup3\n        /* \"#utility.yul\":17939:17975   */\n      mstore\n        /* \"#utility.yul\":17866:17981   */\n      pop\n      pop\n      jump\t// out\n        /* \"#utility.yul\":17987:18105   */\n    tag_540:\n        /* \"#utility.yul\":18074:18098   */\n      tag_542\n        /* \"#utility.yul\":18092:18097   */\n      dup2\n        /* \"#utility.yul\":18074:18098   */\n      tag_543\n      jump\t// in\n    tag_542:\n        /* \"#utility.yul\":18069:18072   */\n      dup3\n        /* \"#utility.yul\":18062:18099   */\n      mstore\n        /* \"#utility.yul\":17987:18105   */\n      pop\n      pop\n      jump\t// out\n        /* \"#utility.yul\":18111:18223   */\n    tag_544:\n        /* \"#utility.yul\":18194:18216   */\n      tag_546\n        /* \"#utility.yul\":18210:18215   */\n      dup2\n        /* \"#utility.yul\":18194:18216   */\n      tag_547\n      jump\t// in\n    tag_546:\n        /* \"#utility.yul\":18189:18192   */\n      dup3\n        /* \"#utility.yul\":18182:18217   */\n      mstore\n        /* \"#utility.yul\":18111:18223   */\n      pop\n      pop\n      jump\t// out\n        /* \"#utility.yul\":18229:18524   */\n    tag_153:\n        /* \"#utility.yul\":18371:18374   */\n      0x00\n        /* \"#utility.yul\":18393:18498   */\n      tag_549\n        /* \"#utility.yul\":18494:18497   */\n      dup3\n        /* \"#utility.yul\":18485:18491   */\n      dup5\n        /* \"#utility.yul\":18477:18483   */\n      dup7\n        /* \"#utility.yul\":18393:18498   */\n      tag_416\n      jump\t// in\n    tag_549:\n        /* \"#utility.yul\":18386:18498   */\n      swap2\n      pop\n        /* \"#utility.yul\":18515:18518   */\n      dup2\n        /* \"#utility.yul\":18508:18518   */\n      swap1\n      pop\n        /* \"#utility.yul\":18229:18524   */\n      swap4\n      swap3\n      pop\n      pop\n      pop\n      jump\t// out\n        /* \"#utility.yul\":18530:18805   */\n    tag_209:\n        /* \"#utility.yul\":18662:18665   */\n      0x00\n        /* \"#utility.yul\":18684:18779   */\n      tag_551\n        /* \"#utility.yul\":18775:18778   */\n      dup3\n        /* \"#utility.yul\":18766:18772   */\n      dup5\n        /* \"#utility.yul\":18684:18779   */\n      tag_430\n      jump\t// in\n    tag_551:\n        /* \"#utility.yul\":18677:18779   */\n      swap2\n      pop\n        /* \"#utility.yul\":18796:18799   */\n      dup2\n        /* \"#utility.yul\":18789:18799   */\n      swap1\n      pop\n        /* \"#utility.yul\":18530:18805   */\n      swap3\n      swap2\n      pop\n      pop\n      jump\t// out\n        /* \"#utility.yul\":18811:19080   */\n    tag_185:\n        /* \"#utility.yul\":18940:18943   */\n      0x00\n        /* \"#utility.yul\":18962:19054   */\n      tag_553\n        /* \"#utility.yul\":19050:19053   */\n      dup3\n        /* \"#utility.yul\":19041:19047   */\n      dup5\n        /* \"#utility.yul\":18962:19054   */\n      tag_435\n      jump\t// in\n    tag_553:\n        /* \"#utility.yul\":18955:19054   */\n      swap2\n      pop\n        /* \"#utility.yul\":19071:19074   */\n      dup2\n        /* \"#utility.yul\":19064:19074   */\n      swap1\n      pop\n        /* \"#utility.yul\":18811:19080   */\n      swap3\n      swap2\n      pop\n      pop\n      jump\t// out\n        /* \"#utility.yul\":19086:19940   */\n    tag_19:\n        /* \"#utility.yul\":19333:19337   */\n      0x00\n        /* \"#utility.yul\":19371:19374   */\n      0xc0\n        /* \"#utility.yul\":19360:19369   */\n      dup3\n        /* \"#utility.yul\":19356:19375   */\n      add\n        /* \"#utility.yul\":19348:19375   */\n      swap1\n      pop\n        /* \"#utility.yul\":19385:19456   */\n      tag_555\n        /* \"#utility.yul\":19453:19454   */\n      0x00\n        /* \"#utility.yul\":19442:19451   */\n      dup4\n        /* \"#utility.yul\":19438:19455   */\n      add\n        /* \"#utility.yul\":19429:19435   */\n      dup10\n        /* \"#utility.yul\":19385:19456   */\n      tag_375\n      jump\t// in\n    tag_555:\n        /* \"#utility.yul\":19466:19534   */\n      tag_556\n        /* \"#utility.yul\":19530:19532   */\n      0x20\n        /* \"#utility.yul\":19519:19528   */\n      dup4\n        /* \"#utility.yul\":19515:19533   */\n      add\n        /* \"#utility.yul\":19506:19512   */\n      dup9\n        /* \"#utility.yul\":19466:19534   */\n      tag_544\n      jump\t// in\n    tag_556:\n        /* \"#utility.yul\":19581:19590   */\n      dup2\n        /* \"#utility.yul\":19575:19579   */\n      dup2\n        /* \"#utility.yul\":19571:19591   */\n      sub\n        /* \"#utility.yul\":19566:19568   */\n      0x40\n        /* \"#utility.yul\":19555:19564   */\n      dup4\n        /* \"#utility.yul\":19551:19569   */\n      add\n        /* \"#utility.yul\":19544:19592   */\n      mstore\n        /* \"#utility.yul\":19609:19687   */\n      tag_557\n        /* \"#utility.yul\":19682:19686   */\n      dup2\n        /* \"#utility.yul\":19673:19679   */\n      dup8\n        /* \"#utility.yul\":19609:19687   */\n      tag_421\n      jump\t// in\n    tag_557:\n        /* \"#utility.yul\":19601:19687   */\n      swap1\n      pop\n        /* \"#utility.yul\":19697:19769   */\n      tag_558\n        /* \"#utility.yul\":19765:19767   */\n      0x60\n        /* \"#utility.yul\":19754:19763   */\n      dup4\n        /* \"#utility.yul\":19750:19768   */\n      add\n        /* \"#utility.yul\":19741:19747   */\n      dup7\n        /* \"#utility.yul\":19697:19769   */\n      tag_540\n      jump\t// in\n    tag_558:\n        /* \"#utility.yul\":19779:19852   */\n      tag_559\n        /* \"#utility.yul\":19847:19850   */\n      0x80\n        /* \"#utility.yul\":19836:19845   */\n      dup4\n        /* \"#utility.yul\":19832:19851   */\n      add\n        /* \"#utility.yul\":19823:19829   */\n      dup6\n        /* \"#utility.yul\":19779:19852   */\n      tag_540\n      jump\t// in\n    tag_559:\n        /* \"#utility.yul\":19862:19933   */\n      tag_560\n        /* \"#utility.yul\":19928:19931   */\n      0xa0\n        /* \"#utility.yul\":19917:19926   */\n      dup4\n        /* \"#utility.yul\":19913:19932   */\n      add\n        /* \"#utility.yul\":19904:19910   */\n      dup5\n        /* \"#utility.yul\":19862:19933   */\n      tag_536\n      jump\t// in\n    tag_560:\n        /* \"#utility.yul\":19086:19940   */\n      swap8\n      swap7\n      pop\n      pop\n      pop\n      pop\n      pop\n      pop\n      pop\n      jump\t// out\n        /* \"#utility.yul\":19946:20259   */\n    tag_23:\n        /* \"#utility.yul\":20059:20063   */\n      0x00\n        /* \"#utility.yul\":20097:20099   */\n      0x20\n        /* \"#utility.yul\":20086:20095   */\n      dup3\n        /* \"#utility.yul\":20082:20100   */\n      add\n        /* \"#utility.yul\":20074:20100   */\n      swap1\n      pop\n        /* \"#utility.yul\":20146:20155   */\n      dup2\n        /* \"#utility.yul\":20140:20144   */\n      dup2\n        /* \"#utility.yul\":20136:20156   */\n      sub\n        /* \"#utility.yul\":20132:20133   */\n      0x00\n        /* \"#utility.yul\":20121:20130   */\n      dup4\n        /* \"#utility.yul\":20117:20134   */\n      add\n        /* \"#utility.yul\":20110:20157   */\n      mstore\n        /* \"#utility.yul\":20174:20252   */\n      tag_562\n        /* \"#utility.yul\":20247:20251   */\n      dup2\n        /* \"#utility.yul\":20238:20244   */\n      dup5\n        /* \"#utility.yul\":20174:20252   */\n      tag_421\n      jump\t// in\n    tag_562:\n        /* \"#utility.yul\":20166:20252   */\n      swap1\n      pop\n        /* \"#utility.yul\":19946:20259   */\n      swap3\n      swap2\n      pop\n      pop\n      jump\t// out\n        /* \"#utility.yul\":20265:20684   */\n    tag_182:\n        /* \"#utility.yul\":20431:20435   */\n      0x00\n        /* \"#utility.yul\":20469:20471   */\n      0x20\n        /* \"#utility.yul\":20458:20467   */\n      dup3\n        /* \"#utility.yul\":20454:20472   */\n      add\n        /* \"#utility.yul\":20446:20472   */\n      swap1\n      pop\n        /* \"#utility.yul\":20518:20527   */\n      dup2\n        /* \"#utility.yul\":20512:20516   */\n      dup2\n        /* \"#utility.yul\":20508:20528   */\n      sub\n        /* \"#utility.yul\":20504:20505   */\n      0x00\n        /* \"#utility.yul\":20493:20502   */\n      dup4\n        /* \"#utility.yul\":20489:20506   */\n      add\n        /* \"#utility.yul\":20482:20529   */\n      mstore\n        /* \"#utility.yul\":20546:20677   */\n      tag_564\n        /* \"#utility.yul\":20672:20676   */\n      dup2\n        /* \"#utility.yul\":20546:20677   */\n      tag_447\n      jump\t// in\n    tag_564:\n        /* \"#utility.yul\":20538:20677   */\n      swap1\n      pop\n        /* \"#utility.yul\":20265:20684   */\n      swap2\n      swap1\n      pop\n      jump\t// out\n        /* \"#utility.yul\":20690:21109   */\n    tag_78:\n        /* \"#utility.yul\":20856:20860   */\n      0x00\n        /* \"#utility.yul\":20894:20896   */\n      0x20\n        /* \"#utility.yul\":20883:20892   */\n      dup3\n        /* \"#utility.yul\":20879:20897   */\n      add\n        /* \"#utility.yul\":20871:20897   */\n      swap1\n      pop\n        /* \"#utility.yul\":20943:20952   */\n      dup2\n        /* \"#utility.yul\":20937:20941   */\n      dup2\n        /* \"#utility.yul\":20933:20953   */\n      sub\n        /* \"#utility.yul\":20929:20930   */\n      0x00\n        /* \"#utility.yul\":20918:20927   */\n      dup4\n        /* \"#utility.yul\":20914:20931   */\n      add\n        /* \"#utility.yul\":20907:20954   */\n      mstore\n        /* \"#utility.yul\":20971:21102   */\n      tag_566\n        /* \"#utility.yul\":21097:21101   */\n      dup2\n        /* \"#utility.yul\":20971:21102   */\n      tag_452\n      jump\t// in\n    tag_566:\n        /* \"#utility.yul\":20963:21102   */\n      swap1\n      pop\n        /* \"#utility.yul\":20690:21109   */\n      swap2\n      swap1\n      pop\n      jump\t// out\n        /* \"#utility.yul\":21115:21534   */\n    tag_244:\n        /* \"#utility.yul\":21281:21285   */\n      0x00\n        /* \"#utility.yul\":21319:21321   */\n      0x20\n        /* \"#utility.yul\":21308:21317   */\n      dup3\n        /* \"#utility.yul\":21304:21322   */\n      add\n        /* \"#utility.yul\":21296:21322   */\n      swap1\n      pop\n        /* \"#utility.yul\":21368:21377   */\n      dup2\n        /* \"#utility.yul\":21362:21366   */\n      dup2\n        /* \"#utility.yul\":21358:21378   */\n      sub\n        /* \"#utility.yul\":21354:21355   */\n      0x00\n        /* \"#utility.yul\":21343:21352   */\n      dup4\n        /* \"#utility.yul\":21339:21356   */\n      add\n        /* \"#utility.yul\":21332:21379   */\n      mstore\n        /* \"#utility.yul\":21396:21527   */\n      tag_568\n        /* \"#utility.yul\":21522:21526   */\n      dup2\n        /* \"#utility.yul\":21396:21527   */\n      tag_457\n      jump\t// in\n    tag_568:\n        /* \"#utility.yul\":21388:21527   */\n      swap1\n      pop\n        /* \"#utility.yul\":21115:21534   */\n      swap2\n      swap1\n      pop\n      jump\t// out\n        /* \"#utility.yul\":21540:21959   */\n    tag_127:\n        /* \"#utility.yul\":21706:21710   */\n      0x00\n        /* \"#utility.yul\":21744:21746   */\n      0x20\n        /* \"#utility.yul\":21733:21742   */\n      dup3\n        /* \"#utility.yul\":21729:21747   */\n      add\n        /* \"#utility.yul\":21721:21747   */\n      swap1\n      pop\n        /* \"#utility.yul\":21793:21802   */\n      dup2\n        /* \"#utility.yul\":21787:21791   */\n      dup2\n        /* \"#utility.yul\":21783:21803   */\n      sub\n        /* \"#utility.yul\":21779:21780   */\n      0x00\n        /* \"#utility.yul\":21768:21777   */\n      dup4\n        /* \"#utility.yul\":21764:21781   */\n      add\n        /* \"#utility.yul\":21757:21804   */\n      mstore\n        /* \"#utility.yul\":21821:21952   */\n      tag_570\n        /* \"#utility.yul\":21947:21951   */\n      dup2\n        /* \"#utility.yul\":21821:21952   */\n      tag_462\n      jump\t// in\n    tag_570:\n        /* \"#utility.yul\":21813:21952   */\n      swap1\n      pop\n        /* \"#utility.yul\":21540:21959   */\n      swap2\n      swap1\n      pop\n      jump\t// out\n        /* \"#utility.yul\":21965:22384   */\n    tag_212:\n        /* \"#utility.yul\":22131:22135   */\n      0x00\n        /* \"#utility.yul\":22169:22171   */\n      0x20\n        /* \"#utility.yul\":22158:22167   */\n      dup3\n        /* \"#utility.yul\":22154:22172   */\n      add\n        /* \"#utility.yul\":22146:22172   */\n      swap1\n      pop\n        /* \"#utility.yul\":22218:22227   */\n      dup2\n        /* \"#utility.yul\":22212:22216   */\n      dup2\n        /* \"#utility.yul\":22208:22228   */\n      sub\n        /* \"#utility.yul\":22204:22205   */\n      0x00\n        /* \"#utility.yul\":22193:22202   */\n      dup4\n        /* \"#utility.yul\":22189:22206   */\n      add\n        /* \"#utility.yul\":22182:22229   */\n      mstore\n        /* \"#utility.yul\":22246:22377   */\n      tag_572\n        /* \"#utility.yul\":22372:22376   */\n      dup2\n        /* \"#utility.yul\":22246:22377   */\n      tag_467\n      jump\t// in\n    tag_572:\n        /* \"#utility.yul\":22238:22377   */\n      swap1\n      pop\n        /* \"#utility.yul\":21965:22384   */\n      swap2\n      swap1\n      pop\n      jump\t// out\n        /* \"#utility.yul\":22390:22809   */\n    tag_124:\n        /* \"#utility.yul\":22556:22560   */\n      0x00\n        /* \"#utility.yul\":22594:22596   */\n      0x20\n        /* \"#utility.yul\":22583:22592   */\n      dup3\n        /* \"#utility.yul\":22579:22597   */\n      add\n        /* \"#utility.yul\":22571:22597   */\n      swap1\n      pop\n        /* \"#utility.yul\":22643:22652   */\n      dup2\n        /* \"#utility.yul\":22637:22641   */\n      dup2\n        /* \"#utility.yul\":22633:22653   */\n      sub\n        /* \"#utility.yul\":22629:22630   */\n      0x00\n        /* \"#utility.yul\":22618:22627   */\n      dup4\n        /* \"#utility.yul\":22614:22631   */\n      add\n        /* \"#utility.yul\":22607:22654   */\n      mstore\n        /* \"#utility.yul\":22671:22802   */\n      tag_574\n        /* \"#utility.yul\":22797:22801   */\n      dup2\n        /* \"#utility.yul\":22671:22802   */\n      tag_472\n      jump\t// in\n    tag_574:\n        /* \"#utility.yul\":22663:22802   */\n      swap1\n      pop\n        /* \"#utility.yul\":22390:22809   */\n      swap2\n      swap1\n      pop\n      jump\t// out\n        /* \"#utility.yul\":22815:23234   */\n    tag_75:\n        /* \"#utility.yul\":22981:22985   */\n      0x00\n        /* \"#utility.yul\":23019:23021   */\n      0x20\n        /* \"#utility.yul\":23008:23017   */\n      dup3\n        /* \"#utility.yul\":23004:23022   */\n      add\n        /* \"#utility.yul\":22996:23022   */\n      swap1\n      pop\n        /* \"#utility.yul\":23068:23077   */\n      dup2\n        /* \"#utility.yul\":23062:23066   */\n      dup2\n        /* \"#utility.yul\":23058:23078   */\n      sub\n        /* \"#utility.yul\":23054:23055   */\n      0x00\n        /* \"#utility.yul\":23043:23052   */\n      dup4\n        /* \"#utility.yul\":23039:23056   */\n      add\n        /* \"#utility.yul\":23032:23079   */\n      mstore\n        /* \"#utility.yul\":23096:23227   */\n      tag_576\n        /* \"#utility.yul\":23222:23226   */\n      dup2\n        /* \"#utility.yul\":23096:23227   */\n      tag_477\n      jump\t// in\n    tag_576:\n        /* \"#utility.yul\":23088:23227   */\n      swap1\n      pop\n        /* \"#utility.yul\":22815:23234   */\n      swap2\n      swap1\n      pop\n      jump\t// out\n        /* \"#utility.yul\":23240:23659   */\n    tag_207:\n        /* \"#utility.yul\":23406:23410   */\n      0x00\n        /* \"#utility.yul\":23444:23446   */\n      0x20\n        /* \"#utility.yul\":23433:23442   */\n      dup3\n        /* \"#utility.yul\":23429:23447   */\n      add\n        /* \"#utility.yul\":23421:23447   */\n      swap1\n      pop\n        /* \"#utility.yul\":23493:23502   */\n      dup2\n        /* \"#utility.yul\":23487:23491   */\n      dup2\n        /* \"#utility.yul\":23483:23503   */\n      sub\n        /* \"#utility.yul\":23479:23480   */\n      0x00\n        /* \"#utility.yul\":23468:23477   */\n      dup4\n        /* \"#utility.yul\":23464:23481   */\n      add\n        /* \"#utility.yul\":23457:23504   */\n      mstore\n        /* \"#utility.yul\":23521:23652   */\n      tag_578\n        /* \"#utility.yul\":23647:23651   */\n      dup2\n        /* \"#utility.yul\":23521:23652   */\n      tag_482\n      jump\t// in\n    tag_578:\n        /* \"#utility.yul\":23513:23652   */\n      swap1\n      pop\n        /* \"#utility.yul\":23240:23659   */\n      swap2\n      swap1\n      pop\n      jump\t// out\n        /* \"#utility.yul\":23665:24084   */\n    tag_121:\n        /* \"#utility.yul\":23831:23835   */\n      0x00\n        /* \"#utility.yul\":23869:23871   */\n      0x20\n        /* \"#utility.yul\":23858:23867   */\n      dup3\n        /* \"#utility.yul\":23854:23872   */\n      add\n        /* \"#utility.yul\":23846:23872   */\n      swap1\n      pop\n        /* \"#utility.yul\":23918:23927   */\n      dup2\n        /* \"#utility.yul\":23912:23916   */\n      dup2\n        /* \"#utility.yul\":23908:23928   */\n      sub\n        /* \"#utility.yul\":23904:23905   */\n      0x00\n        /* \"#utility.yul\":23893:23902   */\n      dup4\n        /* \"#utility.yul\":23889:23906   */\n      add\n        /* \"#utility.yul\":23882:23929   */\n      mstore\n        /* \"#utility.yul\":23946:24077   */\n      tag_580\n        /* \"#utility.yul\":24072:24076   */\n      dup2\n        /* \"#utility.yul\":23946:24077   */\n      tag_487\n      jump\t// in\n    tag_580:\n        /* \"#utility.yul\":23938:24077   */\n      swap1\n      pop\n        /* \"#utility.yul\":23665:24084   */\n      swap2\n      swap1\n      pop\n      jump\t// out\n        /* \"#utility.yul\":24090:24509   */\n    tag_130:\n        /* \"#utility.yul\":24256:24260   */\n      0x00\n        /* \"#utility.yul\":24294:24296   */\n      0x20\n        /* \"#utility.yul\":24283:24292   */\n      dup3\n        /* \"#utility.yul\":24279:24297   */\n      add\n        /* \"#utility.yul\":24271:24297   */\n      swap1\n      pop\n        /* \"#utility.yul\":24343:24352   */\n      dup2\n        /* \"#utility.yul\":24337:24341   */\n      dup2\n        /* \"#utility.yul\":24333:24353   */\n      sub\n        /* \"#utility.yul\":24329:24330   */\n      0x00\n        /* \"#utility.yul\":24318:24327   */\n      dup4\n        /* \"#utility.yul\":24314:24331   */\n      add\n        /* \"#utility.yul\":24307:24354   */\n      mstore\n        /* \"#utility.yul\":24371:24502   */\n      tag_582\n        /* \"#utility.yul\":24497:24501   */\n      dup2\n        /* \"#utility.yul\":24371:24502   */\n      tag_492\n      jump\t// in\n    tag_582:\n        /* \"#utility.yul\":24363:24502   */\n      swap1\n      pop\n        /* \"#utility.yul\":24090:24509   */\n      swap2\n      swap1\n      pop\n      jump\t// out\n        /* \"#utility.yul\":24515:24934   */\n    tag_81:\n        /* \"#utility.yul\":24681:24685   */\n      0x00\n        /* \"#utility.yul\":24719:24721   */\n      0x20\n        /* \"#utility.yul\":24708:24717   */\n      dup3\n        /* \"#utility.yul\":24704:24722   */\n      add\n        /* \"#utility.yul\":24696:24722   */\n      swap1\n      pop\n        /* \"#utility.yul\":24768:24777   */\n      dup2\n        /* \"#utility.yul\":24762:24766   */\n      dup2\n        /* \"#utility.yul\":24758:24778   */\n      sub\n        /* \"#utility.yul\":24754:24755   */\n      0x00\n        /* \"#utility.yul\":24743:24752   */\n      dup4\n        /* \"#utility.yul\":24739:24756   */\n      add\n        /* \"#utility.yul\":24732:24779   */\n      mstore\n        /* \"#utility.yul\":24796:24927   */\n      tag_584\n        /* \"#utility.yul\":24922:24926   */\n      dup2\n        /* \"#utility.yul\":24796:24927   */\n      tag_497\n      jump\t// in\n    tag_584:\n        /* \"#utility.yul\":24788:24927   */\n      swap1\n      pop\n        /* \"#utility.yul\":24515:24934   */\n      swap2\n      swap1\n      pop\n      jump\t// out\n        /* \"#utility.yul\":24940:25359   */\n    tag_241:\n        /* \"#utility.yul\":25106:25110   */\n      0x00\n        /* \"#utility.yul\":25144:25146   */\n      0x20\n        /* \"#utility.yul\":25133:25142   */\n      dup3\n        /* \"#utility.yul\":25129:25147   */\n      add\n        /* \"#utility.yul\":25121:25147   */\n      swap1\n      pop\n        /* \"#utility.yul\":25193:25202   */\n      dup2\n        /* \"#utility.yul\":25187:25191   */\n      dup2\n        /* \"#utility.yul\":25183:25203   */\n      sub\n        /* \"#utility.yul\":25179:25180   */\n      0x00\n        /* \"#utility.yul\":25168:25177   */\n      dup4\n        /* \"#utility.yul\":25164:25181   */\n      add\n        /* \"#utility.yul\":25157:25204   */\n      mstore\n        /* \"#utility.yul\":25221:25352   */\n      tag_586\n        /* \"#utility.yul\":25347:25351   */\n      dup2\n        /* \"#utility.yul\":25221:25352   */\n      tag_502\n      jump\t// in\n    tag_586:\n        /* \"#utility.yul\":25213:25352   */\n      swap1\n      pop\n        /* \"#utility.yul\":24940:25359   */\n      swap2\n      swap1\n      pop\n      jump\t// out\n        /* \"#utility.yul\":25365:26004   */\n    tag_105:\n        /* \"#utility.yul\":25587:25591   */\n      0x00\n        /* \"#utility.yul\":25625:25627   */\n      0x60\n        /* \"#utility.yul\":25614:25623   */\n      dup3\n        /* \"#utility.yul\":25610:25628   */\n      add\n        /* \"#utility.yul\":25602:25628   */\n      swap1\n      pop\n        /* \"#utility.yul\":25674:25683   */\n      dup2\n        /* \"#utility.yul\":25668:25672   */\n      dup2\n        /* \"#utility.yul\":25664:25684   */\n      sub\n        /* \"#utility.yul\":25660:25661   */\n      0x00\n        /* \"#utility.yul\":25649:25658   */\n      dup4\n        /* \"#utility.yul\":25645:25662   */\n      add\n        /* \"#utility.yul\":25638:25685   */\n      mstore\n        /* \"#utility.yul\":25702:25833   */\n      tag_588\n        /* \"#utility.yul\":25828:25832   */\n      dup2\n        /* \"#utility.yul\":25702:25833   */\n      tag_507\n      jump\t// in\n    tag_588:\n        /* \"#utility.yul\":25694:25833   */\n      swap1\n      pop\n        /* \"#utility.yul\":25843:25915   */\n      tag_589\n        /* \"#utility.yul\":25911:25913   */\n      0x20\n        /* \"#utility.yul\":25900:25909   */\n      dup4\n        /* \"#utility.yul\":25896:25914   */\n      add\n        /* \"#utility.yul\":25887:25893   */\n      dup6\n        /* \"#utility.yul\":25843:25915   */\n      tag_375\n      jump\t// in\n    tag_589:\n        /* \"#utility.yul\":25925:25997   */\n      tag_590\n        /* \"#utility.yul\":25993:25995   */\n      0x40\n        /* \"#utility.yul\":25982:25991   */\n      dup4\n        /* \"#utility.yul\":25978:25996   */\n      add\n        /* \"#utility.yul\":25969:25975   */\n      dup5\n        /* \"#utility.yul\":25925:25997   */\n      tag_540\n      jump\t// in\n    tag_590:\n        /* \"#utility.yul\":25365:26004   */\n      swap4\n      swap3\n      pop\n      pop\n      pop\n      jump\t// out\n        /* \"#utility.yul\":26010:26429   */\n    tag_221:\n        /* \"#utility.yul\":26176:26180   */\n      0x00\n        /* \"#utility.yul\":26214:26216   */\n      0x20\n        /* \"#utility.yul\":26203:26212   */\n      dup3\n        /* \"#utility.yul\":26199:26217   */\n      add\n        /* \"#utility.yul\":26191:26217   */\n      swap1\n      pop\n        /* \"#utility.yul\":26263:26272   */\n      dup2\n        /* \"#utility.yul\":26257:26261   */\n      dup2\n        /* \"#utility.yul\":26253:26273   */\n      sub\n        /* \"#utility.yul\":26249:26250   */\n      0x00\n        /* \"#utility.yul\":26238:26247   */\n      dup4\n        /* \"#utility.yul\":26234:26251   */\n      add\n        /* \"#utility.yul\":26227:26274   */\n      mstore\n        /* \"#utility.yul\":26291:26422   */\n      tag_592\n        /* \"#utility.yul\":26417:26421   */\n      dup2\n        /* \"#utility.yul\":26291:26422   */\n      tag_512\n      jump\t// in\n    tag_592:\n        /* \"#utility.yul\":26283:26422   */\n      swap1\n      pop\n        /* \"#utility.yul\":26010:26429   */\n      swap2\n      swap1\n      pop\n      jump\t// out\n        /* \"#utility.yul\":26435:27074   */\n    tag_141:\n        /* \"#utility.yul\":26657:26661   */\n      0x00\n        /* \"#utility.yul\":26695:26697   */\n      0x60\n        /* \"#utility.yul\":26684:26693   */\n      dup3\n        /* \"#utility.yul\":26680:26698   */\n      add\n        /* \"#utility.yul\":26672:26698   */\n      swap1\n      pop\n        /* \"#utility.yul\":26744:26753   */\n      dup2\n        /* \"#utility.yul\":26738:26742   */\n      dup2\n        /* \"#utility.yul\":26734:26754   */\n      sub\n        /* \"#utility.yul\":26730:26731   */\n      0x00\n        /* \"#utility.yul\":26719:26728   */\n      dup4\n        /* \"#utility.yul\":26715:26732   */\n      add\n        /* \"#utility.yul\":26708:26755   */\n      mstore\n        /* \"#utility.yul\":26772:26903   */\n      tag_594\n        /* \"#utility.yul\":26898:26902   */\n      dup2\n        /* \"#utility.yul\":26772:26903   */\n      tag_517\n      jump\t// in\n    tag_594:\n        /* \"#utility.yul\":26764:26903   */\n      swap1\n      pop\n        /* \"#utility.yul\":26913:26985   */\n      tag_595\n        /* \"#utility.yul\":26981:26983   */\n      0x20\n        /* \"#utility.yul\":26970:26979   */\n      dup4\n        /* \"#utility.yul\":26966:26984   */\n      add\n        /* \"#utility.yul\":26957:26963   */\n      dup6\n        /* \"#utility.yul\":26913:26985   */\n      tag_375\n      jump\t// in\n    tag_595:\n        /* \"#utility.yul\":26995:27067   */\n      tag_596\n        /* \"#utility.yul\":27063:27065   */\n      0x40\n        /* \"#utility.yul\":27052:27061   */\n      dup4\n        /* \"#utility.yul\":27048:27066   */\n      add\n        /* \"#utility.yul\":27039:27045   */\n      dup5\n        /* \"#utility.yul\":26995:27067   */\n      tag_540\n      jump\t// in\n    tag_596:\n        /* \"#utility.yul\":26435:27074   */\n      swap4\n      swap3\n      pop\n      pop\n      pop\n      jump\t// out\n        /* \"#utility.yul\":27080:27499   */\n    tag_224:\n        /* \"#utility.yul\":27246:27250   */\n      0x00\n        /* \"#utility.yul\":27284:27286   */\n      0x20\n        /* \"#utility.yul\":27273:27282   */\n      dup3\n        /* \"#utility.yul\":27269:27287   */\n      add\n        /* \"#utility.yul\":27261:27287   */\n      swap1\n      pop\n        /* \"#utility.yul\":27333:27342   */\n      dup2\n        /* \"#utility.yul\":27327:27331   */\n      dup2\n        /* \"#utility.yul\":27323:27343   */\n      sub\n        /* \"#utility.yul\":27319:27320   */\n      0x00\n        /* \"#utility.yul\":27308:27317   */\n      dup4\n        /* \"#utility.yul\":27304:27321   */\n      add\n        /* \"#utility.yul\":27297:27344   */\n      mstore\n        /* \"#utility.yul\":27361:27492   */\n      tag_598\n        /* \"#utility.yul\":27487:27491   */\n      dup2\n        /* \"#utility.yul\":27361:27492   */\n      tag_522\n      jump\t// in\n    tag_598:\n        /* \"#utility.yul\":27353:27492   */\n      swap1\n      pop\n        /* \"#utility.yul\":27080:27499   */\n      swap2\n      swap1\n      pop\n      jump\t// out\n        /* \"#utility.yul\":27505:27924   */\n    tag_234:\n        /* \"#utility.yul\":27671:27675   */\n      0x00\n        /* \"#utility.yul\":27709:27711   */\n      0x20\n        /* \"#utility.yul\":27698:27707   */\n      dup3\n        /* \"#utility.yul\":27694:27712   */\n      add\n        /* \"#utility.yul\":27686:27712   */\n      swap1\n      pop\n        /* \"#utility.yul\":27758:27767   */\n      dup2\n        /* \"#utility.yul\":27752:27756   */\n      dup2\n        /* \"#utility.yul\":27748:27768   */\n      sub\n        /* \"#utility.yul\":27744:27745   */\n      0x00\n        /* \"#utility.yul\":27733:27742   */\n      dup4\n        /* \"#utility.yul\":27729:27746   */\n      add\n        /* \"#utility.yul\":27722:27769   */\n      mstore\n        /* \"#utility.yul\":27786:27917   */\n      tag_600\n        /* \"#utility.yul\":27912:27916   */\n      dup2\n        /* \"#utility.yul\":27786:27917   */\n      tag_527\n      jump\t// in\n    tag_600:\n        /* \"#utility.yul\":27778:27917   */\n      swap1\n      pop\n        /* \"#utility.yul\":27505:27924   */\n      swap2\n      swap1\n      pop\n      jump\t// out\n        /* \"#utility.yul\":27930:28262   */\n    tag_57:\n        /* \"#utility.yul\":28051:28055   */\n      0x00\n        /* \"#utility.yul\":28089:28091   */\n      0x40\n        /* \"#utility.yul\":28078:28087   */\n      dup3\n        /* \"#utility.yul\":28074:28092   */\n      add\n        /* \"#utility.yul\":28066:28092   */\n      swap1\n      pop\n        /* \"#utility.yul\":28102:28173   */\n      tag_602\n        /* \"#utility.yul\":28170:28171   */\n      0x00\n        /* \"#utility.yul\":28159:28168   */\n      dup4\n        /* \"#utility.yul\":28155:28172   */\n      add\n        /* \"#utility.yul\":28146:28152   */\n      dup6\n        /* \"#utility.yul\":28102:28173   */\n      tag_532\n      jump\t// in\n    tag_602:\n        /* \"#utility.yul\":28183:28255   */\n      tag_603\n        /* \"#utility.yul\":28251:28253   */\n      0x20\n        /* \"#utility.yul\":28240:28249   */\n      dup4\n        /* \"#utility.yul\":28236:28254   */\n      add\n        /* \"#utility.yul\":28227:28233   */\n      dup5\n        /* \"#utility.yul\":28183:28255   */\n      tag_532\n      jump\t// in\n    tag_603:\n        /* \"#utility.yul\":27930:28262   */\n      swap4\n      swap3\n      pop\n      pop\n      pop\n      jump\t// out\n        /* \"#utility.yul\":28268:28490   */\n    tag_27:\n        /* \"#utility.yul\":28361:28365   */\n      0x00\n        /* \"#utility.yul\":28399:28401   */\n      0x20\n        /* \"#utility.yul\":28388:28397   */\n      dup3\n        /* \"#utility.yul\":28384:28402   */\n      add\n        /* \"#utility.yul\":28376:28402   */\n      swap1\n      pop\n        /* \"#utility.yul\":28412:28483   */\n      tag_605\n        /* \"#utility.yul\":28480:28481   */\n      0x00\n        /* \"#utility.yul\":28469:28478   */\n      dup4\n        /* \"#utility.yul\":28465:28482   */\n      add\n        /* \"#utility.yul\":28456:28462   */\n      dup5\n        /* \"#utility.yul\":28412:28483   */\n      tag_540\n      jump\t// in\n    tag_605:\n        /* \"#utility.yul\":28268:28490   */\n      swap3\n      swap2\n      pop\n      pop\n      jump\t// out\n        /* \"#utility.yul\":28496:29037   */\n    tag_48:\n        /* \"#utility.yul\":28667:28671   */\n      0x00\n        /* \"#utility.yul\":28705:28708   */\n      0x80\n        /* \"#utility.yul\":28694:28703   */\n      dup3\n        /* \"#utility.yul\":28690:28709   */\n      add\n        /* \"#utility.yul\":28682:28709   */\n      swap1\n      pop\n        /* \"#utility.yul\":28719:28790   */\n      tag_607\n        /* \"#utility.yul\":28787:28788   */\n      0x00\n        /* \"#utility.yul\":28776:28785   */\n      dup4\n        /* \"#utility.yul\":28772:28789   */\n      add\n        /* \"#utility.yul\":28763:28769   */\n      dup8\n        /* \"#utility.yul\":28719:28790   */\n      tag_540\n      jump\t// in\n    tag_607:\n        /* \"#utility.yul\":28800:28872   */\n      tag_608\n        /* \"#utility.yul\":28868:28870   */\n      0x20\n        /* \"#utility.yul\":28857:28866   */\n      dup4\n        /* \"#utility.yul\":28853:28871   */\n      add\n        /* \"#utility.yul\":28844:28850   */\n      dup7\n        /* \"#utility.yul\":28800:28872   */\n      tag_375\n      jump\t// in\n    tag_608:\n        /* \"#utility.yul\":28882:28948   */\n      tag_609\n        /* \"#utility.yul\":28944:28946   */\n      0x40\n        /* \"#utility.yul\":28933:28942   */\n      dup4\n        /* \"#utility.yul\":28929:28947   */\n      add\n        /* \"#utility.yul\":28920:28926   */\n      dup6\n        /* \"#utility.yul\":28882:28948   */\n      tag_406\n      jump\t// in\n    tag_609:\n        /* \"#utility.yul\":28958:29030   */\n      tag_610\n        /* \"#utility.yul\":29026:29028   */\n      0x60\n        /* \"#utility.yul\":29015:29024   */\n      dup4\n        /* \"#utility.yul\":29011:29029   */\n      add\n        /* \"#utility.yul\":29002:29008   */\n      dup5\n        /* \"#utility.yul\":28958:29030   */\n      tag_540\n      jump\t// in\n    tag_610:\n        /* \"#utility.yul\":28496:29037   */\n      swap6\n      swap5\n      pop\n      pop\n      pop\n      pop\n      pop\n      jump\t// out\n        /* \"#utility.yul\":29043:30386   */\n    tag_87:\n        /* \"#utility.yul\":29456:29460   */\n      0x00\n        /* \"#utility.yul\":29494:29497   */\n      0xe0\n        /* \"#utility.yul\":29483:29492   */\n      dup3\n        /* \"#utility.yul\":29479:29498   */\n      add\n        /* \"#utility.yul\":29471:29498   */\n      swap1\n      pop\n        /* \"#utility.yul\":29508:29579   */\n      tag_612\n        /* \"#utility.yul\":29576:29577   */\n      0x00\n        /* \"#utility.yul\":29565:29574   */\n      dup4\n        /* \"#utility.yul\":29561:29578   */\n      add\n        /* \"#utility.yul\":29552:29558   */\n      dup12\n        /* \"#utility.yul\":29508:29579   */\n      tag_540\n      jump\t// in\n    tag_612:\n        /* \"#utility.yul\":29626:29635   */\n      dup2\n        /* \"#utility.yul\":29620:29624   */\n      dup2\n        /* \"#utility.yul\":29616:29636   */\n      sub\n        /* \"#utility.yul\":29611:29613   */\n      0x20\n        /* \"#utility.yul\":29600:29609   */\n      dup4\n        /* \"#utility.yul\":29596:29614   */\n      add\n        /* \"#utility.yul\":29589:29637   */\n      mstore\n        /* \"#utility.yul\":29654:29762   */\n      tag_613\n        /* \"#utility.yul\":29757:29761   */\n      dup2\n        /* \"#utility.yul\":29748:29754   */\n      dup11\n        /* \"#utility.yul\":29654:29762   */\n      tag_378\n      jump\t// in\n    tag_613:\n        /* \"#utility.yul\":29646:29762   */\n      swap1\n      pop\n        /* \"#utility.yul\":29772:29844   */\n      tag_614\n        /* \"#utility.yul\":29840:29842   */\n      0x40\n        /* \"#utility.yul\":29829:29838   */\n      dup4\n        /* \"#utility.yul\":29825:29843   */\n      add\n        /* \"#utility.yul\":29816:29822   */\n      dup10\n        /* \"#utility.yul\":29772:29844   */\n      tag_375\n      jump\t// in\n    tag_614:\n        /* \"#utility.yul\":29854:29926   */\n      tag_615\n        /* \"#utility.yul\":29922:29924   */\n      0x60\n        /* \"#utility.yul\":29911:29920   */\n      dup4\n        /* \"#utility.yul\":29907:29925   */\n      add\n        /* \"#utility.yul\":29898:29904   */\n      dup9\n        /* \"#utility.yul\":29854:29926   */\n      tag_540\n      jump\t// in\n    tag_615:\n        /* \"#utility.yul\":29936:30009   */\n      tag_616\n        /* \"#utility.yul\":30004:30007   */\n      0x80\n        /* \"#utility.yul\":29993:30002   */\n      dup4\n        /* \"#utility.yul\":29989:30008   */\n      add\n        /* \"#utility.yul\":29980:29986   */\n      dup8\n        /* \"#utility.yul\":29936:30009   */\n      tag_540\n      jump\t// in\n    tag_616:\n        /* \"#utility.yul\":30057:30066   */\n      dup2\n        /* \"#utility.yul\":30051:30055   */\n      dup2\n        /* \"#utility.yul\":30047:30067   */\n      sub\n        /* \"#utility.yul\":30041:30044   */\n      0xa0\n        /* \"#utility.yul\":30030:30039   */\n      dup4\n        /* \"#utility.yul\":30026:30045   */\n      add\n        /* \"#utility.yul\":30019:30068   */\n      mstore\n        /* \"#utility.yul\":30085:30163   */\n      tag_617\n        /* \"#utility.yul\":30158:30162   */\n      dup2\n        /* \"#utility.yul\":30149:30155   */\n      dup7\n        /* \"#utility.yul\":30085:30163   */\n      tag_421\n      jump\t// in\n    tag_617:\n        /* \"#utility.yul\":30077:30163   */\n      swap1\n      pop\n        /* \"#utility.yul\":30211:30220   */\n      dup2\n        /* \"#utility.yul\":30205:30209   */\n      dup2\n        /* \"#utility.yul\":30201:30221   */\n      sub\n        /* \"#utility.yul\":30195:30198   */\n      0xc0\n        /* \"#utility.yul\":30184:30193   */\n      dup4\n        /* \"#utility.yul\":30180:30199   */\n      add\n        /* \"#utility.yul\":30173:30222   */\n      mstore\n        /* \"#utility.yul\":30239:30379   */\n      tag_618\n        /* \"#utility.yul\":30374:30378   */\n      dup2\n        /* \"#utility.yul\":30365:30371   */\n      dup5\n        /* \"#utility.yul\":30357:30363   */\n      dup7\n        /* \"#utility.yul\":30239:30379   */\n      tag_392\n      jump\t// in\n    tag_618:\n        /* \"#utility.yul\":30231:30379   */\n      swap1\n      pop\n        /* \"#utility.yul\":29043:30386   */\n      swap10\n      swap9\n      pop\n      pop\n      pop\n      pop\n      pop\n      pop\n      pop\n      pop\n      pop\n      jump\t// out\n        /* \"#utility.yul\":30392:30606   */\n    tag_31:\n        /* \"#utility.yul\":30481:30485   */\n      0x00\n        /* \"#utility.yul\":30519:30521   */\n      0x20\n        /* \"#utility.yul\":30508:30517   */\n      dup3\n        /* \"#utility.yul\":30504:30522   */\n      add\n        /* \"#utility.yul\":30496:30522   */\n      swap1\n      pop\n        /* \"#utility.yul\":30532:30599   */\n      tag_620\n        /* \"#utility.yul\":30596:30597   */\n      0x00\n        /* \"#utility.yul\":30585:30594   */\n      dup4\n        /* \"#utility.yul\":30581:30598   */\n      add\n        /* \"#utility.yul\":30572:30578   */\n      dup5\n        /* \"#utility.yul\":30532:30599   */\n      tag_544\n      jump\t// in\n    tag_620:\n        /* \"#utility.yul\":30392:30606   */\n      swap3\n      swap2\n      pop\n      pop\n      jump\t// out\n        /* \"#utility.yul\":30612:31337   */\n    tag_151:\n        /* \"#utility.yul\":30690:30694   */\n      0x00\n        /* \"#utility.yul\":30696:30702   */\n      dup1\n        /* \"#utility.yul\":30752:30763   */\n      dup4\n        /* \"#utility.yul\":30739:30764   */\n      calldataload\n        /* \"#utility.yul\":30852:30853   */\n      0x01\n        /* \"#utility.yul\":30846:30850   */\n      0x20\n        /* \"#utility.yul\":30842:30854   */\n      sub\n        /* \"#utility.yul\":30831:30839   */\n      dup5\n        /* \"#utility.yul\":30815:30829   */\n      calldatasize\n        /* \"#utility.yul\":30811:30840   */\n      sub\n        /* \"#utility.yul\":30807:30855   */\n      sub\n        /* \"#utility.yul\":30787:30805   */\n      dup2\n        /* \"#utility.yul\":30783:30856   */\n      slt\n        /* \"#utility.yul\":30773:30941   */\n      tag_622\n      jumpi\n        /* \"#utility.yul\":30860:30939   */\n      tag_623\n      tag_624\n      jump\t// in\n    tag_623:\n        /* \"#utility.yul\":30773:30941   */\n    tag_622:\n        /* \"#utility.yul\":30972:30990   */\n      dup1\n        /* \"#utility.yul\":30962:30970   */\n      dup5\n        /* \"#utility.yul\":30958:30991   */\n      add\n        /* \"#utility.yul\":30950:30991   */\n      swap3\n      pop\n        /* \"#utility.yul\":31024:31028   */\n      dup3\n        /* \"#utility.yul\":31011:31029   */\n      calldataload\n        /* \"#utility.yul\":31001:31029   */\n      swap2\n      pop\n        /* \"#utility.yul\":31052:31070   */\n      0xffffffffffffffff\n        /* \"#utility.yul\":31044:31050   */\n      dup3\n        /* \"#utility.yul\":31041:31071   */\n      gt\n        /* \"#utility.yul\":31038:31155   */\n      iszero\n      tag_625\n      jumpi\n        /* \"#utility.yul\":31074:31153   */\n      tag_626\n      tag_627\n      jump\t// in\n    tag_626:\n        /* \"#utility.yul\":31038:31155   */\n    tag_625:\n        /* \"#utility.yul\":31182:31184   */\n      0x20\n        /* \"#utility.yul\":31176:31180   */\n      dup4\n        /* \"#utility.yul\":31172:31185   */\n      add\n        /* \"#utility.yul\":31164:31185   */\n      swap3\n      pop\n        /* \"#utility.yul\":31239:31243   */\n      0x01\n        /* \"#utility.yul\":31231:31237   */\n      dup3\n        /* \"#utility.yul\":31227:31244   */\n      mul\n        /* \"#utility.yul\":31211:31225   */\n      calldatasize\n        /* \"#utility.yul\":31207:31245   */\n      sub\n        /* \"#utility.yul\":31201:31205   */\n      dup4\n        /* \"#utility.yul\":31197:31246   */\n      sgt\n        /* \"#utility.yul\":31194:31330   */\n      iszero\n      tag_628\n      jumpi\n        /* \"#utility.yul\":31249:31328   */\n      tag_629\n      tag_630\n      jump\t// in\n    tag_629:\n        /* \"#utility.yul\":31194:31330   */\n    tag_628:\n        /* \"#utility.yul\":30703:31337   */\n      pop\n        /* \"#utility.yul\":30612:31337   */\n      swap3\n      pop\n      swap3\n      swap1\n      pop\n      jump\t// out\n        /* \"#utility.yul\":31343:31472   */\n    tag_278:\n        /* \"#utility.yul\":31377:31383   */\n      0x00\n        /* \"#utility.yul\":31404:31424   */\n      tag_632\n      tag_633\n      jump\t// in\n    tag_632:\n        /* \"#utility.yul\":31394:31424   */\n      swap1\n      pop\n        /* \"#utility.yul\":31433:31466   */\n      tag_634\n        /* \"#utility.yul\":31461:31465   */\n      dup3\n        /* \"#utility.yul\":31453:31459   */\n      dup3\n        /* \"#utility.yul\":31433:31466   */\n      tag_635\n      jump\t// in\n    tag_634:\n        /* \"#utility.yul\":31343:31472   */\n      swap2\n      swap1\n      pop\n      jump\t// out\n        /* \"#utility.yul\":31478:31553   */\n    tag_633:\n        /* \"#utility.yul\":31511:31517   */\n      0x00\n        /* \"#utility.yul\":31544:31546   */\n      0x40\n        /* \"#utility.yul\":31538:31547   */\n      mload\n        /* \"#utility.yul\":31528:31547   */\n      swap1\n      pop\n        /* \"#utility.yul\":31478:31553   */\n      swap1\n      jump\t// out\n        /* \"#utility.yul\":31559:31870   */\n    tag_277:\n        /* \"#utility.yul\":31636:31640   */\n      0x00\n        /* \"#utility.yul\":31726:31744   */\n      0xffffffffffffffff\n        /* \"#utility.yul\":31718:31724   */\n      dup3\n        /* \"#utility.yul\":31715:31745   */\n      gt\n        /* \"#utility.yul\":31712:31768   */\n      iszero\n      tag_638\n      jumpi\n        /* \"#utility.yul\":31748:31766   */\n      tag_639\n      tag_640\n      jump\t// in\n    tag_639:\n        /* \"#utility.yul\":31712:31768   */\n    tag_638:\n        /* \"#utility.yul\":31798:31802   */\n      0x20\n        /* \"#utility.yul\":31790:31796   */\n      dup3\n        /* \"#utility.yul\":31786:31803   */\n      mul\n        /* \"#utility.yul\":31778:31803   */\n      swap1\n      pop\n        /* \"#utility.yul\":31858:31862   */\n      0x20\n        /* \"#utility.yul\":31852:31856   */\n      dup2\n        /* \"#utility.yul\":31848:31863   */\n      add\n        /* \"#utility.yul\":31840:31863   */\n      swap1\n      pop\n        /* \"#utility.yul\":31559:31870   */\n      swap2\n      swap1\n      pop\n      jump\t// out\n        /* \"#utility.yul\":31876:32184   */\n    tag_291:\n        /* \"#utility.yul\":31938:31942   */\n      0x00\n        /* \"#utility.yul\":32028:32046   */\n      0xffffffffffffffff\n        /* \"#utility.yul\":32020:32026   */\n      dup3\n        /* \"#utility.yul\":32017:32047   */\n      gt\n        /* \"#utility.yul\":32014:32070   */\n      iszero\n      tag_642\n      jumpi\n        /* \"#utility.yul\":32050:32068   */\n      tag_643\n      tag_640\n      jump\t// in\n    tag_643:\n        /* \"#utility.yul\":32014:32070   */\n    tag_642:\n        /* \"#utility.yul\":32088:32117   */\n      tag_644\n        /* \"#utility.yul\":32110:32116   */\n      dup3\n        /* \"#utility.yul\":32088:32117   */\n      tag_415\n      jump\t// in\n    tag_644:\n        /* \"#utility.yul\":32080:32117   */\n      swap1\n      pop\n        /* \"#utility.yul\":32172:32176   */\n      0x20\n        /* \"#utility.yul\":32166:32170   */\n      dup2\n        /* \"#utility.yul\":32162:32177   */\n      add\n        /* \"#utility.yul\":32154:32177   */\n      swap1\n      pop\n        /* \"#utility.yul\":31876:32184   */\n      swap2\n      swap1\n      pop\n      jump\t// out\n        /* \"#utility.yul\":32190:32322   */\n    tag_385:\n        /* \"#utility.yul\":32257:32261   */\n      0x00\n        /* \"#utility.yul\":32280:32283   */\n      dup2\n        /* \"#utility.yul\":32272:32283   */\n      swap1\n      pop\n        /* \"#utility.yul\":32310:32314   */\n      0x20\n        /* \"#utility.yul\":32305:32308   */\n      dup3\n        /* \"#utility.yul\":32301:32315   */\n      add\n        /* \"#utility.yul\":32293:32315   */\n      swap1\n      pop\n        /* \"#utility.yul\":32190:32322   */\n      swap2\n      swap1\n      pop\n      jump\t// out\n        /* \"#utility.yul\":32328:32442   */\n    tag_397:\n        /* \"#utility.yul\":32409:32413   */\n      0x00\n        /* \"#utility.yul\":32432:32435   */\n      dup2\n        /* \"#utility.yul\":32424:32435   */\n      swap1\n      pop\n        /* \"#utility.yul\":32328:32442   */\n      swap2\n      swap1\n      pop\n      jump\t// out\n        /* \"#utility.yul\":32448:32589   */\n    tag_443:\n        /* \"#utility.yul\":32497:32501   */\n      0x00\n        /* \"#utility.yul\":32520:32523   */\n      dup2\n        /* \"#utility.yul\":32512:32523   */\n      swap1\n      pop\n        /* \"#utility.yul\":32543:32546   */\n      dup2\n        /* \"#utility.yul\":32540:32541   */\n      0x00\n        /* \"#utility.yul\":32533:32547   */\n      mstore\n        /* \"#utility.yul\":32577:32581   */\n      0x20\n        /* \"#utility.yul\":32574:32575   */\n      0x00\n        /* \"#utility.yul\":32564:32582   */\n      keccak256\n        /* \"#utility.yul\":32556:32582   */\n      swap1\n      pop\n        /* \"#utility.yul\":32448:32589   */\n      swap2\n      swap1\n      pop\n      jump\t// out\n        /* \"#utility.yul\":32595:32709   */\n    tag_381:\n        /* \"#utility.yul\":32662:32668   */\n      0x00\n        /* \"#utility.yul\":32696:32701   */\n      dup2\n        /* \"#utility.yul\":32690:32702   */\n      mload\n        /* \"#utility.yul\":32680:32702   */\n      swap1\n      pop\n        /* \"#utility.yul\":32595:32709   */\n      swap2\n      swap1\n      pop\n      jump\t// out\n        /* \"#utility.yul\":32715:32814   */\n    tag_424:\n        /* \"#utility.yul\":32767:32773   */\n      0x00\n        /* \"#utility.yul\":32801:32806   */\n      dup2\n        /* \"#utility.yul\":32795:32807   */\n      mload\n        /* \"#utility.yul\":32785:32807   */\n      swap1\n      pop\n        /* \"#utility.yul\":32715:32814   */\n      swap2\n      swap1\n      pop\n      jump\t// out\n        /* \"#utility.yul\":32820:32933   */\n    tag_391:\n        /* \"#utility.yul\":32890:32894   */\n      0x00\n        /* \"#utility.yul\":32922:32926   */\n      0x20\n        /* \"#utility.yul\":32917:32920   */\n      dup3\n        /* \"#utility.yul\":32913:32927   */\n      add\n        /* \"#utility.yul\":32905:32927   */\n      swap1\n      pop\n        /* \"#utility.yul\":32820:32933   */\n      swap2\n      swap1\n      pop\n      jump\t// out\n        /* \"#utility.yul\":32939:33066   */\n    tag_405:\n        /* \"#utility.yul\":33023:33027   */\n      0x00\n        /* \"#utility.yul\":33055:33059   */\n      0x20\n        /* \"#utility.yul\":33050:33053   */\n      dup3\n        /* \"#utility.yul\":33046:33060   */\n      add\n        /* \"#utility.yul\":33038:33060   */\n      swap1\n      pop\n        /* \"#utility.yul\":32939:33066   */\n      swap2\n      swap1\n      pop\n      jump\t// out\n        /* \"#utility.yul\":33072:33256   */\n    tag_383:\n        /* \"#utility.yul\":33171:33182   */\n      0x00\n        /* \"#utility.yul\":33205:33211   */\n      dup3\n        /* \"#utility.yul\":33200:33203   */\n      dup3\n        /* \"#utility.yul\":33193:33212   */\n      mstore\n        /* \"#utility.yul\":33245:33249   */\n      0x20\n        /* \"#utility.yul\":33240:33243   */\n      dup3\n        /* \"#utility.yul\":33236:33250   */\n      add\n        /* \"#utility.yul\":33221:33250   */\n      swap1\n      pop\n        /* \"#utility.yul\":33072:33256   */\n      swap3\n      swap2\n      pop\n      pop\n      jump\t// out\n        /* \"#utility.yul\":33262:33456   */\n    tag_395:\n        /* \"#utility.yul\":33371:33382   */\n      0x00\n        /* \"#utility.yul\":33405:33411   */\n      dup3\n        /* \"#utility.yul\":33400:33403   */\n      dup3\n        /* \"#utility.yul\":33393:33412   */\n      mstore\n        /* \"#utility.yul\":33445:33449   */\n      0x20\n        /* \"#utility.yul\":33440:33443   */\n      dup3\n        /* \"#utility.yul\":33436:33450   */\n      add\n        /* \"#utility.yul\":33421:33450   */\n      swap1\n      pop\n        /* \"#utility.yul\":33262:33456   */\n      swap3\n      swap2\n      pop\n      pop\n      jump\t// out\n        /* \"#utility.yul\":33462:33621   */\n    tag_412:\n        /* \"#utility.yul\":33536:33547   */\n      0x00\n        /* \"#utility.yul\":33570:33576   */\n      dup3\n        /* \"#utility.yul\":33565:33568   */\n      dup3\n        /* \"#utility.yul\":33558:33577   */\n      mstore\n        /* \"#utility.yul\":33610:33614   */\n      0x20\n        /* \"#utility.yul\":33605:33608   */\n      dup3\n        /* \"#utility.yul\":33601:33615   */\n      add\n        /* \"#utility.yul\":33586:33615   */\n      swap1\n      pop\n        /* \"#utility.yul\":33462:33621   */\n      swap3\n      swap2\n      pop\n      pop\n      jump\t// out\n        /* \"#utility.yul\":33627:33796   */\n    tag_426:\n        /* \"#utility.yul\":33711:33722   */\n      0x00\n        /* \"#utility.yul\":33745:33751   */\n      dup3\n        /* \"#utility.yul\":33740:33743   */\n      dup3\n        /* \"#utility.yul\":33733:33752   */\n      mstore\n        /* \"#utility.yul\":33785:33789   */\n      0x20\n        /* \"#utility.yul\":33780:33783   */\n      dup3\n        /* \"#utility.yul\":33776:33790   */\n      add\n        /* \"#utility.yul\":33761:33790   */\n      swap1\n      pop\n        /* \"#utility.yul\":33627:33796   */\n      swap3\n      swap2\n      pop\n      pop\n      jump\t// out\n        /* \"#utility.yul\":33802:33950   */\n    tag_419:\n        /* \"#utility.yul\":33904:33915   */\n      0x00\n        /* \"#utility.yul\":33941:33944   */\n      dup2\n        /* \"#utility.yul\":33926:33944   */\n      swap1\n      pop\n        /* \"#utility.yul\":33802:33950   */\n      swap3\n      swap2\n      pop\n      pop\n      jump\t// out\n        /* \"#utility.yul\":33956:34671   */\n    tag_402:\n        /* \"#utility.yul\":34021:34026   */\n      0x00\n        /* \"#utility.yul\":34028:34034   */\n      dup1\n        /* \"#utility.yul\":34084:34087   */\n      dup4\n        /* \"#utility.yul\":34071:34088   */\n      calldataload\n        /* \"#utility.yul\":34176:34177   */\n      0x01\n        /* \"#utility.yul\":34170:34174   */\n      0x20\n        /* \"#utility.yul\":34166:34178   */\n      sub\n        /* \"#utility.yul\":34155:34163   */\n      dup5\n        /* \"#utility.yul\":34139:34153   */\n      calldatasize\n        /* \"#utility.yul\":34135:34164   */\n      sub\n        /* \"#utility.yul\":34131:34179   */\n      sub\n        /* \"#utility.yul\":34111:34129   */\n      dup2\n        /* \"#utility.yul\":34107:34180   */\n      slt\n        /* \"#utility.yul\":34097:34265   */\n      tag_658\n      jumpi\n        /* \"#utility.yul\":34184:34263   */\n      tag_659\n      tag_660\n      jump\t// in\n    tag_659:\n        /* \"#utility.yul\":34097:34265   */\n    tag_658:\n        /* \"#utility.yul\":34307:34315   */\n      dup4\n        /* \"#utility.yul\":34287:34305   */\n      dup2\n        /* \"#utility.yul\":34283:34316   */\n      add\n        /* \"#utility.yul\":34274:34316   */\n      swap3\n      pop\n        /* \"#utility.yul\":34349:34354   */\n      dup3\n        /* \"#utility.yul\":34336:34355   */\n      calldataload\n        /* \"#utility.yul\":34326:34355   */\n      swap2\n      pop\n        /* \"#utility.yul\":34384:34388   */\n      0x20\n        /* \"#utility.yul\":34377:34382   */\n      dup4\n        /* \"#utility.yul\":34373:34389   */\n      add\n        /* \"#utility.yul\":34364:34389   */\n      swap3\n      pop\n        /* \"#utility.yul\":34412:34430   */\n      0xffffffffffffffff\n        /* \"#utility.yul\":34404:34410   */\n      dup3\n        /* \"#utility.yul\":34401:34431   */\n      gt\n        /* \"#utility.yul\":34398:34515   */\n      iszero\n      tag_661\n      jumpi\n        /* \"#utility.yul\":34434:34513   */\n      tag_662\n      tag_663\n      jump\t// in\n    tag_662:\n        /* \"#utility.yul\":34398:34515   */\n    tag_661:\n        /* \"#utility.yul\":34573:34577   */\n      0x01\n        /* \"#utility.yul\":34565:34571   */\n      dup3\n        /* \"#utility.yul\":34561:34578   */\n      mul\n        /* \"#utility.yul\":34545:34559   */\n      calldatasize\n        /* \"#utility.yul\":34541:34579   */\n      sub\n        /* \"#utility.yul\":34531:34539   */\n      dup5\n        /* \"#utility.yul\":34527:34580   */\n      sgt\n        /* \"#utility.yul\":34524:34664   */\n      iszero\n      tag_664\n      jumpi\n        /* \"#utility.yul\":34583:34662   */\n      tag_665\n      tag_666\n      jump\t// in\n    tag_665:\n        /* \"#utility.yul\":34524:34664   */\n    tag_664:\n        /* \"#utility.yul\":34035:34671   */\n      pop\n        /* \"#utility.yul\":33956:34671   */\n      swap3\n      pop\n      swap3\n      swap1\n      pop\n      jump\t// out\n        /* \"#utility.yul\":34677:34982   */\n    tag_158:\n        /* \"#utility.yul\":34717:34720   */\n      0x00\n        /* \"#utility.yul\":34736:34756   */\n      tag_668\n        /* \"#utility.yul\":34754:34755   */\n      dup3\n        /* \"#utility.yul\":34736:34756   */\n      tag_543\n      jump\t// in\n    tag_668:\n        /* \"#utility.yul\":34731:34756   */\n      swap2\n      pop\n        /* \"#utility.yul\":34770:34790   */\n      tag_669\n        /* \"#utility.yul\":34788:34789   */\n      dup4\n        /* \"#utility.yul\":34770:34790   */\n      tag_543\n      jump\t// in\n    tag_669:\n        /* \"#utility.yul\":34765:34790   */\n      swap3\n      pop\n        /* \"#utility.yul\":34924:34925   */\n      dup3\n        /* \"#utility.yul\":34856:34922   */\n      0xffffffffffffffffffffffffffffffffffffffffffffffffffffffffffffffff\n        /* \"#utility.yul\":34852:34926   */\n      sub\n        /* \"#utility.yul\":34849:34850   */\n      dup3\n        /* \"#utility.yul\":34846:34927   */\n      gt\n        /* \"#utility.yul\":34843:34950   */\n      iszero\n      tag_670\n      jumpi\n        /* \"#utility.yul\":34930:34948   */\n      tag_671\n      tag_672\n      jump\t// in\n    tag_671:\n        /* \"#utility.yul\":34843:34950   */\n    tag_670:\n        /* \"#utility.yul\":34974:34975   */\n      dup3\n        /* \"#utility.yul\":34971:34972   */\n      dup3\n        /* \"#utility.yul\":34967:34976   */\n      add\n        /* \"#utility.yul\":34960:34976   */\n      swap1\n      pop\n        /* \"#utility.yul\":34677:34982   */\n      swap3\n      swap2\n      pop\n      pop\n      jump\t// out\n        /* \"#utility.yul\":34988:35179   */\n    tag_246:\n        /* \"#utility.yul\":35028:35032   */\n      0x00\n        /* \"#utility.yul\":35048:35068   */\n      tag_674\n        /* \"#utility.yul\":35066:35067   */\n      dup3\n        /* \"#utility.yul\":35048:35068   */\n      tag_543\n      jump\t// in\n    tag_674:\n        /* \"#utility.yul\":35043:35068   */\n      swap2\n      pop\n        /* \"#utility.yul\":35082:35102   */\n      tag_675\n        /* \"#utility.yul\":35100:35101   */\n      dup4\n        /* \"#utility.yul\":35082:35102   */\n      tag_543\n      jump\t// in\n    tag_675:\n        /* \"#utility.yul\":35077:35102   */\n      swap3\n      pop\n        /* \"#utility.yul\":35121:35122   */\n      dup3\n        /* \"#utility.yul\":35118:35119   */\n      dup3\n        /* \"#utility.yul\":35115:35123   */\n      lt\n        /* \"#utility.yul\":35112:35146   */\n      iszero\n      tag_676\n      jumpi\n        /* \"#utility.yul\":35126:35144   */\n      tag_677\n      tag_672\n      jump\t// in\n    tag_677:\n        /* \"#utility.yul\":35112:35146   */\n    tag_676:\n        /* \"#utility.yul\":35171:35172   */\n      dup3\n        /* \"#utility.yul\":35168:35169   */\n      dup3\n        /* \"#utility.yul\":35164:35173   */\n      sub\n        /* \"#utility.yul\":35156:35173   */\n      swap1\n      pop\n        /* \"#utility.yul\":34988:35179   */\n      swap3\n      swap2\n      pop\n      pop\n      jump\t// out\n        /* \"#utility.yul\":35185:35281   */\n    tag_374:\n        /* \"#utility.yul\":35222:35229   */\n      0x00\n        /* \"#utility.yul\":35251:35275   */\n      tag_679\n        /* \"#utility.yul\":35269:35274   */\n      dup3\n        /* \"#utility.yul\":35251:35275   */\n      tag_680\n      jump\t// in\n    tag_679:\n        /* \"#utility.yul\":35240:35275   */\n      swap1\n      pop\n        /* \"#utility.yul\":35185:35281   */\n      swap2\n      swap1\n      pop\n      jump\t// out\n        /* \"#utility.yul\":35287:35377   */\n    tag_409:\n        /* \"#utility.yul\":35321:35328   */\n      0x00\n        /* \"#utility.yul\":35364:35369   */\n      dup2\n        /* \"#utility.yul\":35357:35370   */\n      iszero\n        /* \"#utility.yul\":35350:35371   */\n      iszero\n        /* \"#utility.yul\":35339:35371   */\n      swap1\n      pop\n        /* \"#utility.yul\":35287:35377   */\n      swap2\n      swap1\n      pop\n      jump\t// out\n        /* \"#utility.yul\":35383:35501   */\n    tag_535:\n        /* \"#utility.yul\":35420:35427   */\n      0x00\n        /* \"#utility.yul\":35460:35494   */\n      0xffffffffffffffffffffffffffffffff\n        /* \"#utility.yul\":35453:35458   */\n      dup3\n        /* \"#utility.yul\":35449:35495   */\n      and\n        /* \"#utility.yul\":35438:35495   */\n      swap1\n      pop\n        /* \"#utility.yul\":35383:35501   */\n      swap2\n      swap1\n      pop\n      jump\t// out\n        /* \"#utility.yul\":35507:35596   */\n    tag_539:\n        /* \"#utility.yul\":35543:35550   */\n      0x00\n        /* \"#utility.yul\":35583:35589   */\n      0xffff\n        /* \"#utility.yul\":35576:35581   */\n      dup3\n        /* \"#utility.yul\":35572:35590   */\n      and\n        /* \"#utility.yul\":35561:35590   */\n      swap1\n      pop\n        /* \"#utility.yul\":35507:35596   */\n      swap2\n      swap1\n      pop\n      jump\t// out\n        /* \"#utility.yul\":35602:35728   */\n    tag_680:\n        /* \"#utility.yul\":35639:35646   */\n      0x00\n        /* \"#utility.yul\":35679:35721   */\n      0xffffffffffffffffffffffffffffffffffffffff\n        /* \"#utility.yul\":35672:35677   */\n      dup3\n        /* \"#utility.yul\":35668:35722   */\n      and\n        /* \"#utility.yul\":35657:35722   */\n      swap1\n      pop\n        /* \"#utility.yul\":35602:35728   */\n      swap2\n      swap1\n      pop\n      jump\t// out\n        /* \"#utility.yul\":35734:35811   */\n    tag_543:\n        /* \"#utility.yul\":35771:35778   */\n      0x00\n        /* \"#utility.yul\":35800:35805   */\n      dup2\n        /* \"#utility.yul\":35789:35805   */\n      swap1\n      pop\n        /* \"#utility.yul\":35734:35811   */\n      swap2\n      swap1\n      pop\n      jump\t// out\n        /* \"#utility.yul\":35817:35903   */\n    tag_547:\n        /* \"#utility.yul\":35852:35859   */\n      0x00\n        /* \"#utility.yul\":35892:35896   */\n      0xff\n        /* \"#utility.yul\":35885:35890   */\n      dup3\n        /* \"#utility.yul\":35881:35897   */\n      and\n        /* \"#utility.yul\":35870:35897   */\n      swap1\n      pop\n        /* \"#utility.yul\":35817:35903   */\n      swap2\n      swap1\n      pop\n      jump\t// out\n        /* \"#utility.yul\":35909:36063   */\n    tag_296:\n        /* \"#utility.yul\":35993:35999   */\n      dup3\n        /* \"#utility.yul\":35988:35991   */\n      dup2\n        /* \"#utility.yul\":35983:35986   */\n      dup4\n        /* \"#utility.yul\":35970:36000   */\n      calldatacopy\n        /* \"#utility.yul\":36055:36056   */\n      0x00\n        /* \"#utility.yul\":36046:36052   */\n      dup4\n        /* \"#utility.yul\":36041:36044   */\n      dup4\n        /* \"#utility.yul\":36037:36053   */\n      add\n        /* \"#utility.yul\":36030:36057   */\n      mstore\n        /* \"#utility.yul\":35909:36063   */\n      pop\n      pop\n      pop\n      jump\t// out\n        /* \"#utility.yul\":36069:36376   */\n    tag_428:\n        /* \"#utility.yul\":36137:36138   */\n      0x00\n        /* \"#utility.yul\":36147:36260   */\n    tag_689:\n        /* \"#utility.yul\":36161:36167   */\n      dup4\n        /* \"#utility.yul\":36158:36159   */\n      dup2\n        /* \"#utility.yul\":36155:36168   */\n      lt\n        /* \"#utility.yul\":36147:36260   */\n      iszero\n      tag_691\n      jumpi\n        /* \"#utility.yul\":36246:36247   */\n      dup1\n        /* \"#utility.yul\":36241:36244   */\n      dup3\n        /* \"#utility.yul\":36237:36248   */\n      add\n        /* \"#utility.yul\":36231:36249   */\n      mload\n        /* \"#utility.yul\":36227:36228   */\n      dup2\n        /* \"#utility.yul\":36222:36225   */\n      dup5\n        /* \"#utility.yul\":36218:36229   */\n      add\n        /* \"#utility.yul\":36211:36250   */\n      mstore\n        /* \"#utility.yul\":36183:36185   */\n      0x20\n        /* \"#utility.yul\":36180:36181   */\n      dup2\n        /* \"#utility.yul\":36176:36186   */\n      add\n        /* \"#utility.yul\":36171:36186   */\n      swap1\n      pop\n        /* \"#utility.yul\":36147:36260   */\n      jump(tag_689)\n    tag_691:\n        /* \"#utility.yul\":36278:36284   */\n      dup4\n        /* \"#utility.yul\":36275:36276   */\n      dup2\n        /* \"#utility.yul\":36272:36285   */\n      gt\n        /* \"#utility.yul\":36269:36370   */\n      iszero\n      tag_692\n      jumpi\n        /* \"#utility.yul\":36358:36359   */\n      0x00\n        /* \"#utility.yul\":36349:36355   */\n      dup5\n        /* \"#utility.yul\":36344:36347   */\n      dup5\n        /* \"#utility.yul\":36340:36356   */\n      add\n        /* \"#utility.yul\":36333:36360   */\n      mstore\n        /* \"#utility.yul\":36269:36370   */\n    tag_692:\n        /* \"#utility.yul\":36118:36376   */\n      pop\n        /* \"#utility.yul\":36069:36376   */\n      pop\n      pop\n      pop\n      jump\t// out\n        /* \"#utility.yul\":36382:36702   */\n    tag_59:\n        /* \"#utility.yul\":36426:36432   */\n      0x00\n        /* \"#utility.yul\":36463:36464   */\n      0x02\n        /* \"#utility.yul\":36457:36461   */\n      dup3\n        /* \"#utility.yul\":36453:36465   */\n      div\n        /* \"#utility.yul\":36443:36465   */\n      swap1\n      pop\n        /* \"#utility.yul\":36510:36511   */\n      0x01\n        /* \"#utility.yul\":36504:36508   */\n      dup3\n        /* \"#utility.yul\":36500:36512   */\n      and\n        /* \"#utility.yul\":36531:36549   */\n      dup1\n        /* \"#utility.yul\":36521:36602   */\n      tag_694\n      jumpi\n        /* \"#utility.yul\":36587:36591   */\n      0x7f\n        /* \"#utility.yul\":36579:36585   */\n      dup3\n        /* \"#utility.yul\":36575:36592   */\n      and\n        /* \"#utility.yul\":36565:36592   */\n      swap2\n      pop\n        /* \"#utility.yul\":36521:36602   */\n    tag_694:\n        /* \"#utility.yul\":36649:36651   */\n      0x20\n        /* \"#utility.yul\":36641:36647   */\n      dup3\n        /* \"#utility.yul\":36638:36652   */\n      lt\n        /* \"#utility.yul\":36618:36636   */\n      dup2\n        /* \"#utility.yul\":36615:36653   */\n      eq\n        /* \"#utility.yul\":36612:36696   */\n      iszero\n      tag_695\n      jumpi\n        /* \"#utility.yul\":36668:36686   */\n      tag_696\n      tag_697\n      jump\t// in\n    tag_696:\n        /* \"#utility.yul\":36612:36696   */\n    tag_695:\n        /* \"#utility.yul\":36433:36702   */\n      pop\n        /* \"#utility.yul\":36382:36702   */\n      swap2\n      swap1\n      pop\n      jump\t// out\n        /* \"#utility.yul\":36708:36989   */\n    tag_635:\n        /* \"#utility.yul\":36791:36818   */\n      tag_699\n        /* \"#utility.yul\":36813:36817   */\n      dup3\n        /* \"#utility.yul\":36791:36818   */\n      tag_415\n      jump\t// in\n    tag_699:\n        /* \"#utility.yul\":36783:36789   */\n      dup2\n        /* \"#utility.yul\":36779:36819   */\n      add\n        /* \"#utility.yul\":36921:36927   */\n      dup2\n        /* \"#utility.yul\":36909:36919   */\n      dup2\n        /* \"#utility.yul\":36906:36928   */\n      lt\n        /* \"#utility.yul\":36885:36903   */\n      0xffffffffffffffff\n        /* \"#utility.yul\":36873:36883   */\n      dup3\n        /* \"#utility.yul\":36870:36904   */\n      gt\n        /* \"#utility.yul\":36867:36929   */\n      or\n        /* \"#utility.yul\":36864:36952   */\n      iszero\n      tag_700\n      jumpi\n        /* \"#utility.yul\":36932:36950   */\n      tag_701\n      tag_640\n      jump\t// in\n    tag_701:\n        /* \"#utility.yul\":36864:36952   */\n    tag_700:\n        /* \"#utility.yul\":36972:36982   */\n      dup1\n        /* \"#utility.yul\":36968:36970   */\n      0x40\n        /* \"#utility.yul\":36961:36983   */\n      mstore\n        /* \"#utility.yul\":36751:36989   */\n      pop\n        /* \"#utility.yul\":36708:36989   */\n      pop\n      pop\n      jump\t// out\n        /* \"#utility.yul\":36995:37196   */\n    tag_178:\n        /* \"#utility.yul\":37034:37037   */\n      0x00\n        /* \"#utility.yul\":37057:37081   */\n      tag_703\n        /* \"#utility.yul\":37075:37080   */\n      dup3\n        /* \"#utility.yul\":37057:37081   */\n      tag_535\n      jump\t// in\n    tag_703:\n        /* \"#utility.yul\":37048:37081   */\n      swap2\n      pop\n        /* \"#utility.yul\":37103:37137   */\n      0xffffffffffffffffffffffffffffffff\n        /* \"#utility.yul\":37096:37101   */\n      dup3\n        /* \"#utility.yul\":37093:37138   */\n      eq\n        /* \"#utility.yul\":37090:37161   */\n      iszero\n      tag_704\n      jumpi\n        /* \"#utility.yul\":37141:37159   */\n      tag_705\n      tag_672\n      jump\t// in\n    tag_705:\n        /* \"#utility.yul\":37090:37161   */\n    tag_704:\n        /* \"#utility.yul\":37188:37189   */\n      0x01\n        /* \"#utility.yul\":37181:37186   */\n      dup3\n        /* \"#utility.yul\":37177:37190   */\n      add\n        /* \"#utility.yul\":37170:37190   */\n      swap1\n      pop\n        /* \"#utility.yul\":36995:37196   */\n      swap2\n      swap1\n      pop\n      jump\t// out\n        /* \"#utility.yul\":37202:37373   */\n    tag_204:\n        /* \"#utility.yul\":37240:37243   */\n      0x00\n        /* \"#utility.yul\":37263:37286   */\n      tag_707\n        /* \"#utility.yul\":37280:37285   */\n      dup3\n        /* \"#utility.yul\":37263:37286   */\n      tag_539\n      jump\t// in\n    tag_707:\n        /* \"#utility.yul\":37254:37286   */\n      swap2\n      pop\n        /* \"#utility.yul\":37308:37314   */\n      0xffff\n        /* \"#utility.yul\":37301:37306   */\n      dup3\n        /* \"#utility.yul\":37298:37315   */\n      eq\n        /* \"#utility.yul\":37295:37338   */\n      iszero\n      tag_708\n      jumpi\n        /* \"#utility.yul\":37318:37336   */\n      tag_709\n      tag_672\n      jump\t// in\n    tag_709:\n        /* \"#utility.yul\":37295:37338   */\n    tag_708:\n        /* \"#utility.yul\":37365:37366   */\n      0x01\n        /* \"#utility.yul\":37358:37363   */\n      dup3\n        /* \"#utility.yul\":37354:37367   */\n      add\n        /* \"#utility.yul\":37347:37367   */\n      swap1\n      pop\n        /* \"#utility.yul\":37202:37373   */\n      swap2\n      swap1\n      pop\n      jump\t// out\n        /* \"#utility.yul\":37379:37612   */\n    tag_83:\n        /* \"#utility.yul\":37418:37421   */\n      0x00\n        /* \"#utility.yul\":37441:37465   */\n      tag_711\n        /* \"#utility.yul\":37459:37464   */\n      dup3\n        /* \"#utility.yul\":37441:37465   */\n      tag_543\n      jump\t// in\n    tag_711:\n        /* \"#utility.yul\":37432:37465   */\n      swap2\n      pop\n        /* \"#utility.yul\":37487:37553   */\n      0xffffffffffffffffffffffffffffffffffffffffffffffffffffffffffffffff\n        /* \"#utility.yul\":37480:37485   */\n      dup3\n        /* \"#utility.yul\":37477:37554   */\n      eq\n        /* \"#utility.yul\":37474:37577   */\n      iszero\n      tag_712\n      jumpi\n        /* \"#utility.yul\":37557:37575   */\n      tag_713\n      tag_672\n      jump\t// in\n    tag_713:\n        /* \"#utility.yul\":37474:37577   */\n    tag_712:\n        /* \"#utility.yul\":37604:37605   */\n      0x01\n        /* \"#utility.yul\":37597:37602   */\n      dup3\n        /* \"#utility.yul\":37593:37606   */\n      add\n        /* \"#utility.yul\":37586:37606   */\n      swap1\n      pop\n        /* \"#utility.yul\":37379:37612   */\n      swap2\n      swap1\n      pop\n      jump\t// out\n        /* \"#utility.yul\":37618:37798   */\n    tag_672:\n        /* \"#utility.yul\":37666:37743   */\n      0x4e487b7100000000000000000000000000000000000000000000000000000000\n        /* \"#utility.yul\":37663:37664   */\n      0x00\n        /* \"#utility.yul\":37656:37744   */\n      mstore\n        /* \"#utility.yul\":37763:37767   */\n      0x11\n        /* \"#utility.yul\":37760:37761   */\n      0x04\n        /* \"#utility.yul\":37753:37768   */\n      mstore\n        /* \"#utility.yul\":37787:37791   */\n      0x24\n        /* \"#utility.yul\":37784:37785   */\n      0x00\n        /* \"#utility.yul\":37777:37792   */\n      revert\n        /* \"#utility.yul\":37804:37984   */\n    tag_697:\n        /* \"#utility.yul\":37852:37929   */\n      0x4e487b7100000000000000000000000000000000000000000000000000000000\n        /* \"#utility.yul\":37849:37850   */\n      0x00\n        /* \"#utility.yul\":37842:37930   */\n      mstore\n        /* \"#utility.yul\":37949:37953   */\n      0x22\n        /* \"#utility.yul\":37946:37947   */\n      0x04\n        /* \"#utility.yul\":37939:37954   */\n      mstore\n        /* \"#utility.yul\":37973:37977   */\n      0x24\n        /* \"#utility.yul\":37970:37971   */\n      0x00\n        /* \"#utility.yul\":37963:37978   */\n      revert\n        /* \"#utility.yul\":37990:38170   */\n    tag_94:\n        /* \"#utility.yul\":38038:38115   */\n      0x4e487b7100000000000000000000000000000000000000000000000000000000\n        /* \"#utility.yul\":38035:38036   */\n      0x00\n        /* \"#utility.yul\":38028:38116   */\n      mstore\n        /* \"#utility.yul\":38135:38139   */\n      0x32\n        /* \"#utility.yul\":38132:38133   */\n      0x04\n        /* \"#utility.yul\":38125:38140   */\n      mstore\n        /* \"#utility.yul\":38159:38163   */\n      0x24\n        /* \"#utility.yul\":38156:38157   */\n      0x00\n        /* \"#utility.yul\":38149:38164   */\n      revert\n        /* \"#utility.yul\":38176:38356   */\n    tag_640:\n        /* \"#utility.yul\":38224:38301   */\n      0x4e487b7100000000000000000000000000000000000000000000000000000000\n        /* \"#utility.yul\":38221:38222   */\n      0x00\n        /* \"#utility.yul\":38214:38302   */\n      mstore\n        /* \"#utility.yul\":38321:38325   */\n      0x41\n        /* \"#utility.yul\":38318:38319   */\n      0x04\n        /* \"#utility.yul\":38311:38326   */\n      mstore\n        /* \"#utility.yul\":38345:38349   */\n      0x24\n        /* \"#utility.yul\":38342:38343   */\n      0x00\n        /* \"#utility.yul\":38335:38350   */\n      revert\n        /* \"#utility.yul\":38362:38479   */\n    tag_663:\n        /* \"#utility.yul\":38471:38472   */\n      0x00\n        /* \"#utility.yul\":38468:38469   */\n      dup1\n        /* \"#utility.yul\":38461:38473   */\n      revert\n        /* \"#utility.yul\":38485:38602   */\n    tag_312:\n        /* \"#utility.yul\":38594:38595   */\n      0x00\n        /* \"#utility.yul\":38591:38592   */\n      dup1\n        /* \"#utility.yul\":38584:38596   */\n      revert\n        /* \"#utility.yul\":38608:38725   */\n    tag_304:\n        /* \"#utility.yul\":38717:38718   */\n      0x00\n        /* \"#utility.yul\":38714:38715   */\n      dup1\n        /* \"#utility.yul\":38707:38719   */\n      revert\n        /* \"#utility.yul\":38731:38848   */\n    tag_627:\n        /* \"#utility.yul\":38840:38841   */\n      0x00\n        /* \"#utility.yul\":38837:38838   */\n      dup1\n        /* \"#utility.yul\":38830:38842   */\n      revert\n        /* \"#utility.yul\":38854:38971   */\n    tag_624:\n        /* \"#utility.yul\":38963:38964   */\n      0x00\n        /* \"#utility.yul\":38960:38961   */\n      dup1\n        /* \"#utility.yul\":38953:38965   */\n      revert\n        /* \"#utility.yul\":38977:39094   */\n    tag_666:\n        /* \"#utility.yul\":39086:39087   */\n      0x00\n        /* \"#utility.yul\":39083:39084   */\n      dup1\n        /* \"#utility.yul\":39076:39088   */\n      revert\n        /* \"#utility.yul\":39100:39217   */\n    tag_281:\n        /* \"#utility.yul\":39209:39210   */\n      0x00\n        /* \"#utility.yul\":39206:39207   */\n      dup1\n        /* \"#utility.yul\":39199:39211   */\n      revert\n        /* \"#utility.yul\":39223:39340   */\n    tag_630:\n        /* \"#utility.yul\":39332:39333   */\n      0x00\n        /* \"#utility.yul\":39329:39330   */\n      dup1\n        /* \"#utility.yul\":39322:39334   */\n      revert\n        /* \"#utility.yul\":39346:39463   */\n    tag_294:\n        /* \"#utility.yul\":39455:39456   */\n      0x00\n        /* \"#utility.yul\":39452:39453   */\n      dup1\n        /* \"#utility.yul\":39445:39457   */\n      revert\n        /* \"#utility.yul\":39469:39586   */\n    tag_344:\n        /* \"#utility.yul\":39578:39579   */\n      0x00\n        /* \"#utility.yul\":39575:39576   */\n      dup1\n        /* \"#utility.yul\":39568:39580   */\n      revert\n        /* \"#utility.yul\":39592:39709   */\n    tag_660:\n        /* \"#utility.yul\":39701:39702   */\n      0x00\n        /* \"#utility.yul\":39698:39699   */\n      dup1\n        /* \"#utility.yul\":39691:39703   */\n      revert\n        /* \"#utility.yul\":39715:39832   */\n    tag_331:\n        /* \"#utility.yul\":39824:39825   */\n      0x00\n        /* \"#utility.yul\":39821:39822   */\n      dup1\n        /* \"#utility.yul\":39814:39826   */\n      revert\n        /* \"#utility.yul\":39838:39940   */\n    tag_415:\n        /* \"#utility.yul\":39879:39885   */\n      0x00\n        /* \"#utility.yul\":39930:39932   */\n      0x1f\n        /* \"#utility.yul\":39926:39933   */\n      not\n        /* \"#utility.yul\":39921:39923   */\n      0x1f\n        /* \"#utility.yul\":39914:39919   */\n      dup4\n        /* \"#utility.yul\":39910:39924   */\n      add\n        /* \"#utility.yul\":39906:39934   */\n      and\n        /* \"#utility.yul\":39896:39934   */\n      swap1\n      pop\n        /* \"#utility.yul\":39838:39940   */\n      swap2\n      swap1\n      pop\n      jump\t// out\n        /* \"#utility.yul\":39946:40114   */\n    tag_451:\n        /* \"#utility.yul\":40086:40106   */\n      0x50726f706f73616c3a20696e6163746976650000000000000000000000000000\n        /* \"#utility.yul\":40082:40083   */\n      0x00\n        /* \"#utility.yul\":40074:40080   */\n      dup3\n        /* \"#utility.yul\":40070:40084   */\n      add\n        /* \"#utility.yul\":40063:40107   */\n      mstore\n        /* \"#utility.yul\":39946:40114   */\n      pop\n      jump\t// out\n        /* \"#utility.yul\":40120:40351   */\n    tag_456:\n        /* \"#utility.yul\":40260:40294   */\n      0x456e642074696d652073686f756c642062652067726561746572207468616e20\n        /* \"#utility.yul\":40256:40257   */\n      0x00\n        /* \"#utility.yul\":40248:40254   */\n      dup3\n        /* \"#utility.yul\":40244:40258   */\n      add\n        /* \"#utility.yul\":40237:40295   */\n      mstore\n        /* \"#utility.yul\":40329:40343   */\n      0x63757272656e742074696d650000000000000000000000000000000000000000\n        /* \"#utility.yul\":40324:40326   */\n      0x20\n        /* \"#utility.yul\":40316:40322   */\n      dup3\n        /* \"#utility.yul\":40312:40327   */\n      add\n        /* \"#utility.yul\":40305:40344   */\n      mstore\n        /* \"#utility.yul\":40120:40351   */\n      pop\n      jump\t// out\n        /* \"#utility.yul\":40357:40578   */\n    tag_461:\n        /* \"#utility.yul\":40497:40531   */\n      0x45524332303a206275726e20616d6f756e7420657863656564732062616c616e\n        /* \"#utility.yul\":40493:40494   */\n      0x00\n        /* \"#utility.yul\":40485:40491   */\n      dup3\n        /* \"#utility.yul\":40481:40495   */\n      add\n        /* \"#utility.yul\":40474:40532   */\n      mstore\n        /* \"#utility.yul\":40566:40570   */\n      0x6365000000000000000000000000000000000000000000000000000000000000\n        /* \"#utility.yul\":40561:40563   */\n      0x20\n        /* \"#utility.yul\":40553:40559   */\n      dup3\n        /* \"#utility.yul\":40549:40564   */\n      add\n        /* \"#utility.yul\":40542:40571   */\n      mstore\n        /* \"#utility.yul\":40357:40578   */\n      pop\n      jump\t// out\n        /* \"#utility.yul\":40584:40747   */\n    tag_466:\n        /* \"#utility.yul\":40724:40739   */\n      0x616c726561647920766f74656400000000000000000000000000000000000000\n        /* \"#utility.yul\":40720:40721   */\n      0x00\n        /* \"#utility.yul\":40712:40718   */\n      dup3\n        /* \"#utility.yul\":40708:40722   */\n      add\n        /* \"#utility.yul\":40701:40740   */\n      mstore\n        /* \"#utility.yul\":40584:40747   */\n      pop\n      jump\t// out\n        /* \"#utility.yul\":40753:40930   */\n    tag_471:\n        /* \"#utility.yul\":40893:40922   */\n      0x50726f706f73616c3a20696e76616c69642063616e6469646174650000000000\n        /* \"#utility.yul\":40889:40890   */\n      0x00\n        /* \"#utility.yul\":40881:40887   */\n      dup3\n        /* \"#utility.yul\":40877:40891   */\n      add\n        /* \"#utility.yul\":40870:40923   */\n      mstore\n        /* \"#utility.yul\":40753:40930   */\n      pop\n      jump\t// out\n        /* \"#utility.yul\":40936:41158   */\n    tag_476:\n        /* \"#utility.yul\":41076:41110   */\n      0x6e6f7420612076616c696420766f74657220666f7220746869732070726f706f\n        /* \"#utility.yul\":41072:41073   */\n      0x00\n        /* \"#utility.yul\":41064:41070   */\n      dup3\n        /* \"#utility.yul\":41060:41074   */\n      add\n        /* \"#utility.yul\":41053:41111   */\n      mstore\n        /* \"#utility.yul\":41145:41150   */\n      0x73616c0000000000000000000000000000000000000000000000000000000000\n        /* \"#utility.yul\":41140:41142   */\n      0x20\n        /* \"#utility.yul\":41132:41138   */\n      dup3\n        /* \"#utility.yul\":41128:41143   */\n      add\n        /* \"#utility.yul\":41121:41151   */\n      mstore\n        /* \"#utility.yul\":40936:41158   */\n      pop\n      jump\t// out\n        /* \"#utility.yul\":41164:41334   */\n    tag_481:\n        /* \"#utility.yul\":41304:41326   */\n      0x70726f706f73616c206e6f742073746172746564000000000000000000000000\n        /* \"#utility.yul\":41300:41301   */\n      0x00\n        /* \"#utility.yul\":41292:41298   */\n      dup3\n        /* \"#utility.yul\":41288:41302   */\n      add\n        /* \"#utility.yul\":41281:41327   */\n      mstore\n        /* \"#utility.yul\":41164:41334   */\n      pop\n      jump\t// out\n        /* \"#utility.yul\":41340:41562   */\n    tag_486:\n        /* \"#utility.yul\":41480:41514   */\n      0x4e6f7420612076616c696420766f74657220666f7220746869732070726f706f\n        /* \"#utility.yul\":41476:41477   */\n      0x00\n        /* \"#utility.yul\":41468:41474   */\n      dup3\n        /* \"#utility.yul\":41464:41478   */\n      add\n        /* \"#utility.yul\":41457:41515   */\n      mstore\n        /* \"#utility.yul\":41549:41554   */\n      0x73616c0000000000000000000000000000000000000000000000000000000000\n        /* \"#utility.yul\":41544:41546   */\n      0x20\n        /* \"#utility.yul\":41536:41542   */\n      dup3\n        /* \"#utility.yul\":41532:41547   */\n      add\n        /* \"#utility.yul\":41525:41555   */\n      mstore\n        /* \"#utility.yul\":41340:41562   */\n      pop\n      jump\t// out\n        /* \"#utility.yul\":41568:41736   */\n    tag_491:\n        /* \"#utility.yul\":41708:41728   */\n      0x696e76616c69642070726f706f73616c49640000000000000000000000000000\n        /* \"#utility.yul\":41704:41705   */\n      0x00\n        /* \"#utility.yul\":41696:41702   */\n      dup3\n        /* \"#utility.yul\":41692:41706   */\n      add\n        /* \"#utility.yul\":41685:41729   */\n      mstore\n        /* \"#utility.yul\":41568:41736   */\n      pop\n      jump\t// out\n        /* \"#utility.yul\":41742:41964   */\n    tag_496:\n        /* \"#utility.yul\":41882:41916   */\n      0x6e6f742073756666696369656e742062616c616e636520746f20636173742076\n        /* \"#utility.yul\":41878:41879   */\n      0x00\n        /* \"#utility.yul\":41870:41876   */\n      dup3\n        /* \"#utility.yul\":41866:41880   */\n      add\n        /* \"#utility.yul\":41859:41917   */\n      mstore\n        /* \"#utility.yul\":41951:41956   */\n      0x6f74650000000000000000000000000000000000000000000000000000000000\n        /* \"#utility.yul\":41946:41948   */\n      0x20\n        /* \"#utility.yul\":41938:41944   */\n      dup3\n        /* \"#utility.yul\":41934:41949   */\n      add\n        /* \"#utility.yul\":41927:41957   */\n      mstore\n        /* \"#utility.yul\":41742:41964   */\n      pop\n      jump\t// out\n        /* \"#utility.yul\":41970:42199   */\n    tag_501:\n        /* \"#utility.yul\":42110:42144   */\n      0x456e642074696d652073686f756c642062652067726561746572207468616e20\n        /* \"#utility.yul\":42106:42107   */\n      0x00\n        /* \"#utility.yul\":42098:42104   */\n      dup3\n        /* \"#utility.yul\":42094:42108   */\n      add\n        /* \"#utility.yul\":42087:42145   */\n      mstore\n        /* \"#utility.yul\":42179:42191   */\n      0x73746172742074696d6500000000000000000000000000000000000000000000\n        /* \"#utility.yul\":42174:42176   */\n      0x20\n        /* \"#utility.yul\":42166:42172   */\n      dup3\n        /* \"#utility.yul\":42162:42177   */\n      add\n        /* \"#utility.yul\":42155:42192   */\n      mstore\n        /* \"#utility.yul\":41970:42199   */\n      pop\n      jump\t// out\n        /* \"#utility.yul\":42205:42425   */\n    tag_506:\n        /* \"#utility.yul\":42345:42379   */\n      0x45524332303a206275726e2066726f6d20746865207a65726f20616464726573\n        /* \"#utility.yul\":42341:42342   */\n      0x00\n        /* \"#utility.yul\":42333:42339   */\n      dup3\n        /* \"#utility.yul\":42329:42343   */\n      add\n        /* \"#utility.yul\":42322:42380   */\n      mstore\n        /* \"#utility.yul\":42414:42417   */\n      0x7300000000000000000000000000000000000000000000000000000000000000\n        /* \"#utility.yul\":42409:42411   */\n      0x20\n        /* \"#utility.yul\":42401:42407   */\n      dup3\n        /* \"#utility.yul\":42397:42412   */\n      add\n        /* \"#utility.yul\":42390:42418   */\n      mstore\n        /* \"#utility.yul\":42205:42425   */\n      pop\n      jump\t// out\n        /* \"#utility.yul\":42431:42585   */\n    tag_511:\n        /* \"#utility.yul\":42571:42577   */\n      0x6d696e7400000000000000000000000000000000000000000000000000000000\n        /* \"#utility.yul\":42567:42568   */\n      0x00\n        /* \"#utility.yul\":42559:42565   */\n      dup3\n        /* \"#utility.yul\":42555:42569   */\n      add\n        /* \"#utility.yul\":42548:42578   */\n      mstore\n        /* \"#utility.yul\":42431:42585   */\n      pop\n      jump\t// out\n        /* \"#utility.yul\":42591:42770   */\n    tag_516:\n        /* \"#utility.yul\":42731:42762   */\n      0x496e76616c696420766f74657220666f722070726f706f73616c496421000000\n        /* \"#utility.yul\":42727:42728   */\n      0x00\n        /* \"#utility.yul\":42719:42725   */\n      dup3\n        /* \"#utility.yul\":42715:42729   */\n      add\n        /* \"#utility.yul\":42708:42763   */\n      mstore\n        /* \"#utility.yul\":42591:42770   */\n      pop\n      jump\t// out\n        /* \"#utility.yul\":42776:42930   */\n    tag_521:\n        /* \"#utility.yul\":42916:42922   */\n      0x6275726e00000000000000000000000000000000000000000000000000000000\n        /* \"#utility.yul\":42912:42913   */\n      0x00\n        /* \"#utility.yul\":42904:42910   */\n      dup3\n        /* \"#utility.yul\":42900:42914   */\n      add\n        /* \"#utility.yul\":42893:42923   */\n      mstore\n        /* \"#utility.yul\":42776:42930   */\n      pop\n      jump\t// out\n        /* \"#utility.yul\":42936:43095   */\n    tag_526:\n        /* \"#utility.yul\":43076:43087   */\n      0x6e6f7420766f7465640000000000000000000000000000000000000000000000\n        /* \"#utility.yul\":43072:43073   */\n      0x00\n        /* \"#utility.yul\":43064:43070   */\n      dup3\n        /* \"#utility.yul\":43060:43074   */\n      add\n        /* \"#utility.yul\":43053:43088   */\n      mstore\n        /* \"#utility.yul\":42936:43095   */\n      pop\n      jump\t// out\n        /* \"#utility.yul\":43101:43282   */\n    tag_531:\n        /* \"#utility.yul\":43241:43274   */\n      0x45524332303a206d696e7420746f20746865207a65726f206164647265737300\n        /* \"#utility.yul\":43237:43238   */\n      0x00\n        /* \"#utility.yul\":43229:43235   */\n      dup3\n        /* \"#utility.yul\":43225:43239   */\n      add\n        /* \"#utility.yul\":43218:43275   */\n      mstore\n        /* \"#utility.yul\":43101:43282   */\n      pop\n      jump\t// out\n        /* \"#utility.yul\":43288:43410   */\n    tag_299:\n        /* \"#utility.yul\":43361:43385   */\n      tag_749\n        /* \"#utility.yul\":43379:43384   */\n      dup2\n        /* \"#utility.yul\":43361:43385   */\n      tag_374\n      jump\t// in\n    tag_749:\n        /* \"#utility.yul\":43354:43359   */\n      dup2\n        /* \"#utility.yul\":43351:43386   */\n      eq\n        /* \"#utility.yul\":43341:43404   */\n      tag_750\n      jumpi\n        /* \"#utility.yul\":43400:43401   */\n      0x00\n        /* \"#utility.yul\":43397:43398   */\n      dup1\n        /* \"#utility.yul\":43390:43402   */\n      revert\n        /* \"#utility.yul\":43341:43404   */\n    tag_750:\n        /* \"#utility.yul\":43288:43410   */\n      pop\n      jump\t// out\n        /* \"#utility.yul\":43416:43538   */\n    tag_323:\n        /* \"#utility.yul\":43489:43513   */\n      tag_752\n        /* \"#utility.yul\":43507:43512   */\n      dup2\n        /* \"#utility.yul\":43489:43513   */\n      tag_543\n      jump\t// in\n    tag_752:\n        /* \"#utility.yul\":43482:43487   */\n      dup2\n        /* \"#utility.yul\":43479:43514   */\n      eq\n        /* \"#utility.yul\":43469:43532   */\n      tag_753\n      jumpi\n        /* \"#utility.yul\":43528:43529   */\n      0x00\n        /* \"#utility.yul\":43525:43526   */\n      dup1\n        /* \"#utility.yul\":43518:43530   */\n      revert\n        /* \"#utility.yul\":43469:43532   */\n    tag_753:\n        /* \"#utility.yul\":43416:43538   */\n      pop\n      jump\t// out\n        /* \"#utility.yul\":43544:43662   */\n    tag_327:\n        /* \"#utility.yul\":43615:43637   */\n      tag_755\n        /* \"#utility.yul\":43631:43636   */\n      dup2\n        /* \"#utility.yul\":43615:43637   */\n      tag_547\n      jump\t// in\n    tag_755:\n        /* \"#utility.yul\":43608:43613   */\n      dup2\n        /* \"#utility.yul\":43605:43638   */\n      eq\n        /* \"#utility.yul\":43595:43656   */\n      tag_756\n      jumpi\n        /* \"#utility.yul\":43652:43653   */\n      0x00\n        /* \"#utility.yul\":43649:43650   */\n      dup1\n        /* \"#utility.yul\":43642:43654   */\n      revert\n        /* \"#utility.yul\":43595:43656   */\n    tag_756:\n        /* \"#utility.yul\":43544:43662   */\n      pop\n      jump\t// out\n\n    auxdata: 0xa2646970667358221220fc3cf5867d50dbc0e1b61df0690f0d131dbc911fadaae50d1106fbd5f871ee5764736f6c63430008070033\n}\n",
				"bytecode": {
					"linkReferences": {},
					"object": "60806040523480156200001157600080fd5b506040518060400160405280600c81526020017f51566f74696e67546f6b656e00000000000000000000000000000000000000008152506040518060400160405280600281526020017f5176000000000000000000000000000000000000000000000000000000000000815250816002908051906020019062000096929190620000f9565b508060039080519060200190620000af929190620000f9565b50505033600460006101000a81548173ffffffffffffffffffffffffffffffffffffffff021916908373ffffffffffffffffffffffffffffffffffffffff1602179055506200020e565b8280546200010790620001a9565b90600052602060002090601f0160209004810192826200012b576000855562000177565b82601f106200014657805160ff191683800117855562000177565b8280016001018555821562000177579182015b828111156200017657825182559160200191906001019062000159565b5b5090506200018691906200018a565b5090565b5b80821115620001a55760008160009055506001016200018b565b5090565b60006002820490506001821680620001c257607f821691505b60208210811415620001d957620001d8620001df565b5b50919050565b7f4e487b7100000000000000000000000000000000000000000000000000000000600052602260045260246000fd5b613074806200021e6000396000f3fe608060405234801561001057600080fd5b506004361061009e5760003560e01c806370a082311161006657806370a082311461014e57806395d89b411461017e578063c37030481461019c578063db5e8038146101cf578063e745d68e146101eb5761009e565b8063013cf08b146100a357806306fdde03146100d857806318160ddd146100f6578063313ce567146101145780634de77e4814610132575b600080fd5b6100bd60048036038101906100b89190611bd2565b61021c565b6040516100cf969594939291906122d0565b60405180910390f35b6100e061031b565b6040516100ed9190612338565b60405180910390f35b6100fe6103ad565b60405161010b91906125db565b60405180910390f35b61011c6103b7565b60405161012991906126c1565b60405180910390f35b61014c60048036038101906101479190611c82565b6103c0565b005b61016860048036038101906101639190611ba5565b6106d5565b60405161017591906125db565b60405180910390f35b61018661071d565b6040516101939190612338565b60405180910390f35b6101b660048036038101906101b19190611ba5565b6107af565b6040516101c694939291906125f6565b60405180910390f35b6101e960048036038101906101e49190611bff565b61080c565b005b61020560048036038101906102009190611ba5565b610b1b565b6040516102139291906125b2565b60405180910390f35b60076020528060005260406000206000915090508060000160009054906101000a900473ffffffffffffffffffffffffffffffffffffffff16908060000160149054906101000a900460ff169080600101805461027890612a1d565b80601f01602080910402602001604051908101604052809291908181526020018280546102a490612a1d565b80156102f15780601f106102c6576101008083540402835291602001916102f1565b820191906000526020600020905b8154815290600101906020018083116102d457829003601f168201915b5050505050908060020154908060030154908060040160009054906101000a900461ffff16905086565b60606002805461032a90612a1d565b80601f016020809104026020016040519081016040528092919081815260200182805461035690612a1d565b80156103a35780601f10610378576101008083540402835291602001916103a3565b820191906000526020600020905b81548152906001019060200180831161038657829003601f168201915b5050505050905090565b6000600154905090565b60006012905090565b854210610402576040517f08c379a00000000000000000000000000000000000000000000000000000000081526004016103f99061241a565b60405180910390fd5b844210610444576040517f08c379a000000000000000000000000000000000000000000000000000000000815260040161043b9061237a565b60405180910390fd5b848610610486576040517f08c379a000000000000000000000000000000000000000000000000000000000815260040161047d9061249a565b60405180910390fd5b6005600081548092919061049990612ae4565b91905055506104d38989898989898989600760006005548152602001908152602001600020610b779098979695949392919063ffffffff16565b507f239a8a71a7d1cb0d134f6cc072ad6390e36a88c8e78dff69013ee79528441e806005548989898989898960405161051398979695949392919061263b565b60405180910390a1600160096000600554815260200190815260200160002060006101000a81548160ff02191690831515021790555060005b885181101561066e5761057989828151811061056b5761056a612b8b565b5b602002602001015183610d9f565b6106076005548a838151811061059257610591612b8b565b5b6020026020010151600085600860008f88815181106105b4576105b3612b8b565b5b602002602001015173ffffffffffffffffffffffffffffffffffffffff1673ffffffffffffffffffffffffffffffffffffffff168152602001908152602001600020610e1090949392919063ffffffff16565b507fabf5327be9f5825c40d58bda541dd07f09b62df3376bbd5ecdbaa8bd82a9d49289828151811061063c5761063b612b8b565b5b6020026020010151836040516106539291906124da565b60405180910390a1808061066690612ae4565b91505061054c565b506106c960055460066000610681610e90565b73ffffffffffffffffffffffffffffffffffffffff1673ffffffffffffffffffffffffffffffffffffffff168152602001908152602001600020610e9890919063ffffffff16565b50505050505050505050565b60008060008373ffffffffffffffffffffffffffffffffffffffff1673ffffffffffffffffffffffffffffffffffffffff168152602001908152602001600020549050919050565b60606003805461072c90612a1d565b80601f016020809104026020016040519081016040528092919081815260200182805461075890612a1d565b80156107a55780601f1061077a576101008083540402835291602001916107a5565b820191906000526020600020905b81548152906001019060200180831161078857829003601f168201915b5050505050905090565b60086020528060005260406000206000915090508060000154908060010160009054906101000a900473ffffffffffffffffffffffffffffffffffffffff16908060010160149054906101000a900460ff16908060020154905084565b6009600085815260200190815260200160002060009054906101000a900460ff1661086c576040517f08c379a00000000000000000000000000000000000000000000000000000000081526004016108639061245a565b60405180910390fd5b83600860008573ffffffffffffffffffffffffffffffffffffffff1673ffffffffffffffffffffffffffffffffffffffff16815260200190815260200160002060000154146108f0576040517f08c379a00000000000000000000000000000000000000000000000000000000081526004016108e7906123fa565b60405180910390fd5b600860008473ffffffffffffffffffffffffffffffffffffffff1673ffffffffffffffffffffffffffffffffffffffff16815260200190815260200160002060010160149054906101000a900460ff1615610980576040517f08c379a0000000000000000000000000000000000000000000000000000000008152600401610977906123ba565b60405180910390fd5b80600860008573ffffffffffffffffffffffffffffffffffffffff1673ffffffffffffffffffffffffffffffffffffffff168152602001908152602001600020600201541015610a05576040517f08c379a00000000000000000000000000000000000000000000000000000000081526004016109fc9061247a565b60405180910390fd5b610a2e83838360076000898152602001908152602001600020610f69909392919063ffffffff16565b50610a89848360066000610a40610e90565b73ffffffffffffffffffffffffffffffffffffffff1673ffffffffffffffffffffffffffffffffffffffff1681526020019081526020016000206113579092919063ffffffff16565b50610ad1600860008573ffffffffffffffffffffffffffffffffffffffff1673ffffffffffffffffffffffffffffffffffffffff168152602001908152602001600020611481565b50610adc838261152e565b7fabf5327be9f5825c40d58bda541dd07f09b62df3376bbd5ecdbaa8bd82a9d4928382604051610b0d929190612536565b60405180910390a150505050565b60066020528060005260406000206000915090508060000160009054906101000a90046fffffffffffffffffffffffffffffffff16908060000160109054906101000a90046fffffffffffffffffffffffffffffffff16905082565b6000868a60000160006101000a81548173ffffffffffffffffffffffffffffffffffffffff021916908373ffffffffffffffffffffffffffffffffffffffff160217905550888a60000160146101000a81548160ff021916908360ff160217905550838a6001019080519060200190610bf192919061184c565b50858a60020181905550848a60030181905550828290508a60040160006101000a81548161ffff021916908361ffff16021790555060005b83839050811015610cf95760018b600601858584818110610c4d57610c4c612b8b565b5b9050602002810190610c5f91906126dc565b604051610c6d929190612289565b908152602001604051809103902060006101000a81548160ff021916908315150217905550838382818110610ca557610ca4612b8b565b5b9050602002810190610cb791906126dc565b8c6007016000600185610cca91906128d2565b81526020019081526020016000209190610ce59291906118d2565b508080610cf190612ae4565b915050610c29565b5060005b8851811015610d8d5760018b60050160008b8481518110610d2157610d20612b8b565b5b602002602001015173ffffffffffffffffffffffffffffffffffffffff1673ffffffffffffffffffffffffffffffffffffffff16815260200190815260200160002060006101000a81548160ff0219169083151502179055508080610d8590612ae4565b915050610cfd565b50600190509998505050505050505050565b610da7610e90565b8073ffffffffffffffffffffffffffffffffffffffff16600460009054906101000a900473ffffffffffffffffffffffffffffffffffffffff1673ffffffffffffffffffffffffffffffffffffffff1614610e0157600080fd5b610e0b838361159f565b505050565b6000848660000181905550838660010160006101000a81548173ffffffffffffffffffffffffffffffffffffffff021916908373ffffffffffffffffffffffffffffffffffffffff160217905550828660010160146101000a81548160ff0219169083151502179055508186600201819055506001905095945050505050565b600033905090565b600082600001600081819054906101000a90046fffffffffffffffffffffffffffffffff1680929190610eca90612a80565b91906101000a8154816fffffffffffffffffffffffffffffffff02191690836fffffffffffffffffffffffffffffffff16021790555050818360010160008560000160009054906101000a90046fffffffffffffffffffffffffffffffff166fffffffffffffffffffffffffffffffff166fffffffffffffffffffffffffffffffff168152602001908152602001600020819055506001905092915050565b600060018560000160149054906101000a900460ff1660ff1614610fc2576040517f08c379a0000000000000000000000000000000000000000000000000000000008152600401610fb99061235a565b60405180910390fd5b84600301544211156112185760028560000160146101000a81548160ff021916908360ff1602179055506000856009018660070160006001815260200190815260200160002060405161101591906122b9565b9081526020016040518091039020549050600060019050866007016000600181526020019081526020016000208760080160006001815260200190815260200160002090805461106490612a1d565b61106f929190611958565b506000600290505b8760040160009054906101000a900461ffff1661ffff168161ffff161161120c5782886009018960070160008461ffff1681526020019081526020016000206040516110c391906122b9565b908152602001604051809103902054111561116357876009018860070160008361ffff16815260200190815260200160002060405161110291906122b9565b9081526020016040518091039020549250600191508760070160008261ffff1681526020019081526020016000208860080160006001815260200190815260200160002090805461115290612a1d565b61115d929190611958565b506111f9565b82886009018960070160008461ffff16815260200190815260200160002060405161118e91906122b9565b90815260200160405180910390205414156111f85781806111ae90612ae4565b9250508760070160008261ffff1681526020019081526020016000208860080160008481526020019081526020016000209080546111eb90612a1d565b6111f6929190611958565b505b5b808061120490612ab9565b915050611077565b5060009250505061134f565b8460050160008573ffffffffffffffffffffffffffffffffffffffff1673ffffffffffffffffffffffffffffffffffffffff16815260200190815260200160002060009054906101000a900460ff166112a6576040517f08c379a000000000000000000000000000000000000000000000000000000000815260040161129d9061243a565b60405180910390fd5b84600601836040516112b891906122a2565b908152602001604051809103902060009054906101000a900460ff16611313576040517f08c379a000000000000000000000000000000000000000000000000000000000815260040161130a906123da565b60405180910390fd5b81856009018460405161132691906122a2565b9081526020016040518091039020600082825461134391906128d2565b92505081905550600190505b949350505050565b600083600001601081819054906101000a90046fffffffffffffffffffffffffffffffff168092919061138990612a80565b91906101000a8154816fffffffffffffffffffffffffffffffff02191690836fffffffffffffffffffffffffffffffff16021790555050828460020160008660000160109054906101000a90046fffffffffffffffffffffffffffffffff166fffffffffffffffffffffffffffffffff166fffffffffffffffffffffffffffffffff1681526020019081526020016000208190555081846003016000858152602001908152602001600020908051906020019061144792919061184c565b50600184600401600085815260200190815260200160002060006101000a81548160ff021916908315150217905550600190509392505050565b600080826000015414156114ca576040517f08c379a00000000000000000000000000000000000000000000000000000000081526004016114c190612516565b60405180910390fd5b8160010160149054906101000a900460ff1661151b576040517f08c379a000000000000000000000000000000000000000000000000000000000815260040161151290612572565b60405180910390fd5b6000826002018190555060019050919050565b611536610e90565b8073ffffffffffffffffffffffffffffffffffffffff16600460009054906101000a900473ffffffffffffffffffffffffffffffffffffffff1673ffffffffffffffffffffffffffffffffffffffff161461159057600080fd5b61159a83836116ba565b505050565b600073ffffffffffffffffffffffffffffffffffffffff168273ffffffffffffffffffffffffffffffffffffffff16141561160f576040517f08c379a000000000000000000000000000000000000000000000000000000000815260040161160690612592565b60405180910390fd5b806001600082825461162191906128d2565b92505081905550806000808473ffffffffffffffffffffffffffffffffffffffff1673ffffffffffffffffffffffffffffffffffffffff168152602001908152602001600020600082825461167691906128d2565b925050819055507fabf5327be9f5825c40d58bda541dd07f09b62df3376bbd5ecdbaa8bd82a9d49282826040516116ae9291906124da565b60405180910390a15050565b600073ffffffffffffffffffffffffffffffffffffffff168273ffffffffffffffffffffffffffffffffffffffff16141561172a576040517f08c379a0000000000000000000000000000000000000000000000000000000008152600401611721906124ba565b60405180910390fd5b60008060008473ffffffffffffffffffffffffffffffffffffffff1673ffffffffffffffffffffffffffffffffffffffff168152602001908152602001600020549050818110156117b0576040517f08c379a00000000000000000000000000000000000000000000000000000000081526004016117a79061239a565b60405180910390fd5b8181036000808573ffffffffffffffffffffffffffffffffffffffff1673ffffffffffffffffffffffffffffffffffffffff1681526020019081526020016000208190555081600160008282546118079190612928565b925050819055507fabf5327be9f5825c40d58bda541dd07f09b62df3376bbd5ecdbaa8bd82a9d492838360405161183f929190612536565b60405180910390a1505050565b82805461185890612a1d565b90600052602060002090601f01602090048101928261187a57600085556118c1565b82601f1061189357805160ff19168380011785556118c1565b828001600101855582156118c1579182015b828111156118c05782518255916020019190600101906118a5565b5b5090506118ce91906119e5565b5090565b8280546118de90612a1d565b90600052602060002090601f0160209004810192826119005760008555611947565b82601f1061191957803560ff1916838001178555611947565b82800160010185558215611947579182015b8281111561194657823582559160200191906001019061192b565b5b50905061195491906119e5565b5090565b82805461196490612a1d565b90600052602060002090601f01602090048101928261198657600085556119d4565b82601f1061199757805485556119d4565b828001600101855582156119d457600052602060002091601f016020900482015b828111156119d35782548255916001019190600101906119b8565b5b5090506119e191906119e5565b5090565b5b808211156119fe5760008160009055506001016119e6565b5090565b6000611a15611a1084612764565b61273f565b90508083825260208201905082856020860282011115611a3857611a37612c07565b5b60005b85811015611a685781611a4e8882611ab4565b845260208401935060208301925050600181019050611a3b565b5050509392505050565b6000611a85611a8084612790565b61273f565b905082815260208101848484011115611aa157611aa0612c11565b5b611aac8482856129db565b509392505050565b600081359050611ac381612ff9565b92915050565b600082601f830112611ade57611add612bf3565b5b8135611aee848260208601611a02565b91505092915050565b60008083601f840112611b0d57611b0c612bf3565b5b8235905067ffffffffffffffff811115611b2a57611b29612bee565b5b602083019150836020820283011115611b4657611b45612c07565b5b9250929050565b600082601f830112611b6257611b61612bf3565b5b8135611b72848260208601611a72565b91505092915050565b600081359050611b8a81613010565b92915050565b600081359050611b9f81613027565b92915050565b600060208284031215611bbb57611bba612c20565b5b6000611bc984828501611ab4565b91505092915050565b600060208284031215611be857611be7612c20565b5b6000611bf684828501611b7b565b91505092915050565b60008060008060808587031215611c1957611c18612c20565b5b6000611c2787828801611b7b565b9450506020611c3887828801611ab4565b935050604085013567ffffffffffffffff811115611c5957611c58612c16565b5b611c6587828801611b4d565b9250506060611c7687828801611b7b565b91505092959194509250565b60008060008060008060008060006101008a8c031215611ca557611ca4612c20565b5b6000611cb38c828d01611b90565b99505060208a013567ffffffffffffffff811115611cd457611cd3612c16565b5b611ce08c828d01611ac9565b9850506040611cf18c828d01611ab4565b9750506060611d028c828d01611b7b565b9650506080611d138c828d01611b7b565b95505060a08a013567ffffffffffffffff811115611d3457611d33612c16565b5b611d408c828d01611b4d565b94505060c08a013567ffffffffffffffff811115611d6157611d60612c16565b5b611d6d8c828d01611af7565b935093505060e0611d808c828d01611b7b565b9150509295985092959850929598565b6000611d9c8383611dbe565b60208301905092915050565b6000611db5848484611ebf565b90509392505050565b611dc78161295c565b82525050565b611dd68161295c565b82525050565b6000611de7826127f0565b611df18185612820565b9350611dfc836127c1565b8060005b83811015611e2d578151611e148882611d90565b9750611e1f83612806565b925050600181019050611e00565b5085935050505092915050565b6000611e468385612831565b935083602084028501611e58846127d1565b8060005b87811015611e9e578484038952611e73828461286f565b611e7e868284611da8565b9550611e8984612813565b935060208b019a505050600181019050611e5c565b50829750879450505050509392505050565b611eb98161296e565b82525050565b6000611ecb8385612842565b9350611ed88385846129db565b611ee183612c25565b840190509392505050565b6000611ef88385612864565b9350611f058385846129db565b82840190509392505050565b6000611f1c826127fb565b611f268185612853565b9350611f368185602086016129ea565b611f3f81612c25565b840191505092915050565b6000611f55826127fb565b611f5f8185612864565b9350611f6f8185602086016129ea565b80840191505092915050565b60008154611f8881612a1d565b611f928186612864565b94506001821660008114611fad5760018114611fbe57611ff1565b60ff19831686528186019350611ff1565b611fc7856127db565b60005b83811015611fe957815481890152600182019150602081019050611fca565b838801955050505b50505092915050565b6000612007601283612853565b915061201282612c36565b602082019050919050565b600061202a602c83612853565b915061203582612c5f565b604082019050919050565b600061204d602283612853565b915061205882612cae565b604082019050919050565b6000612070600d83612853565b915061207b82612cfd565b602082019050919050565b6000612093601b83612853565b915061209e82612d26565b602082019050919050565b60006120b6602383612853565b91506120c182612d4f565b604082019050919050565b60006120d9601483612853565b91506120e482612d9e565b602082019050919050565b60006120fc602383612853565b915061210782612dc7565b604082019050919050565b600061211f601283612853565b915061212a82612e16565b602082019050919050565b6000612142602383612853565b915061214d82612e3f565b604082019050919050565b6000612165602a83612853565b915061217082612e8e565b604082019050919050565b6000612188602183612853565b915061219382612edd565b604082019050919050565b60006121ab600483612853565b91506121b682612f2c565b602082019050919050565b60006121ce601d83612853565b91506121d982612f55565b602082019050919050565b60006121f1600483612853565b91506121fc82612f7e565b602082019050919050565b6000612214600983612853565b915061221f82612fa7565b602082019050919050565b6000612237601f83612853565b915061224282612fd0565b602082019050919050565b6122568161297a565b82525050565b61226581612996565b82525050565b612274816129c4565b82525050565b612283816129ce565b82525050565b6000612296828486611eec565b91508190509392505050565b60006122ae8284611f4a565b915081905092915050565b60006122c58284611f7b565b915081905092915050565b600060c0820190506122e56000830189611dcd565b6122f2602083018861227a565b81810360408301526123048187611f11565b9050612313606083018661226b565b612320608083018561226b565b61232d60a083018461225c565b979650505050505050565b600060208201905081810360008301526123528184611f11565b905092915050565b6000602082019050818103600083015261237381611ffa565b9050919050565b600060208201905081810360008301526123938161201d565b9050919050565b600060208201905081810360008301526123b381612040565b9050919050565b600060208201905081810360008301526123d381612063565b9050919050565b600060208201905081810360008301526123f381612086565b9050919050565b60006020820190508181036000830152612413816120a9565b9050919050565b60006020820190508181036000830152612433816120cc565b9050919050565b60006020820190508181036000830152612453816120ef565b9050919050565b6000602082019050818103600083015261247381612112565b9050919050565b6000602082019050818103600083015261249381612135565b9050919050565b600060208201905081810360008301526124b381612158565b9050919050565b600060208201905081810360008301526124d38161217b565b9050919050565b600060608201905081810360008301526124f38161219e565b90506125026020830185611dcd565b61250f604083018461226b565b9392505050565b6000602082019050818103600083015261252f816121c1565b9050919050565b6000606082019050818103600083015261254f816121e4565b905061255e6020830185611dcd565b61256b604083018461226b565b9392505050565b6000602082019050818103600083015261258b81612207565b9050919050565b600060208201905081810360008301526125ab8161222a565b9050919050565b60006040820190506125c7600083018561224d565b6125d4602083018461224d565b9392505050565b60006020820190506125f0600083018461226b565b92915050565b600060808201905061260b600083018761226b565b6126186020830186611dcd565b6126256040830185611eb0565b612632606083018461226b565b95945050505050565b600060e082019050612650600083018b61226b565b8181036020830152612662818a611ddc565b90506126716040830189611dcd565b61267e606083018861226b565b61268b608083018761226b565b81810360a083015261269d8186611f11565b905081810360c08301526126b2818486611e3a565b90509998505050505050505050565b60006020820190506126d6600083018461227a565b92915050565b600080833560016020038436030381126126f9576126f8612bfd565b5b80840192508235915067ffffffffffffffff82111561271b5761271a612bf8565b5b60208301925060018202360383131561273757612736612c0c565b5b509250929050565b600061274961275a565b90506127558282612a4f565b919050565b6000604051905090565b600067ffffffffffffffff82111561277f5761277e612bba565b5b602082029050602081019050919050565b600067ffffffffffffffff8211156127ab576127aa612bba565b5b6127b482612c25565b9050602081019050919050565b6000819050602082019050919050565b6000819050919050565b60008190508160005260206000209050919050565b600081519050919050565b600081519050919050565b6000602082019050919050565b6000602082019050919050565b600082825260208201905092915050565b600082825260208201905092915050565b600082825260208201905092915050565b600082825260208201905092915050565b600081905092915050565b6000808335600160200384360303811261288c5761288b612c1b565b5b83810192508235915060208301925067ffffffffffffffff8211156128b4576128b3612be9565b5b6001820236038413156128ca576128c9612c02565b5b509250929050565b60006128dd826129c4565b91506128e8836129c4565b9250827fffffffffffffffffffffffffffffffffffffffffffffffffffffffffffffffff0382111561291d5761291c612b2d565b5b828201905092915050565b6000612933826129c4565b915061293e836129c4565b92508282101561295157612950612b2d565b5b828203905092915050565b6000612967826129a4565b9050919050565b60008115159050919050565b60006fffffffffffffffffffffffffffffffff82169050919050565b600061ffff82169050919050565b600073ffffffffffffffffffffffffffffffffffffffff82169050919050565b6000819050919050565b600060ff82169050919050565b82818337600083830152505050565b60005b83811015612a085780820151818401526020810190506129ed565b83811115612a17576000848401525b50505050565b60006002820490506001821680612a3557607f821691505b60208210811415612a4957612a48612b5c565b5b50919050565b612a5882612c25565b810181811067ffffffffffffffff82111715612a7757612a76612bba565b5b80604052505050565b6000612a8b8261297a565b91506fffffffffffffffffffffffffffffffff821415612aae57612aad612b2d565b5b600182019050919050565b6000612ac482612996565b915061ffff821415612ad957612ad8612b2d565b5b600182019050919050565b6000612aef826129c4565b91507fffffffffffffffffffffffffffffffffffffffffffffffffffffffffffffffff821415612b2257612b21612b2d565b5b600182019050919050565b7f4e487b7100000000000000000000000000000000000000000000000000000000600052601160045260246000fd5b7f4e487b7100000000000000000000000000000000000000000000000000000000600052602260045260246000fd5b7f4e487b7100000000000000000000000000000000000000000000000000000000600052603260045260246000fd5b7f4e487b7100000000000000000000000000000000000000000000000000000000600052604160045260246000fd5b600080fd5b600080fd5b600080fd5b600080fd5b600080fd5b600080fd5b600080fd5b600080fd5b600080fd5b600080fd5b600080fd5b600080fd5b6000601f19601f8301169050919050565b7f50726f706f73616c3a20696e6163746976650000000000000000000000000000600082015250565b7f456e642074696d652073686f756c642062652067726561746572207468616e2060008201527f63757272656e742074696d650000000000000000000000000000000000000000602082015250565b7f45524332303a206275726e20616d6f756e7420657863656564732062616c616e60008201527f6365000000000000000000000000000000000000000000000000000000000000602082015250565b7f616c726561647920766f74656400000000000000000000000000000000000000600082015250565b7f50726f706f73616c3a20696e76616c69642063616e6469646174650000000000600082015250565b7f6e6f7420612076616c696420766f74657220666f7220746869732070726f706f60008201527f73616c0000000000000000000000000000000000000000000000000000000000602082015250565b7f70726f706f73616c206e6f742073746172746564000000000000000000000000600082015250565b7f4e6f7420612076616c696420766f74657220666f7220746869732070726f706f60008201527f73616c0000000000000000000000000000000000000000000000000000000000602082015250565b7f696e76616c69642070726f706f73616c49640000000000000000000000000000600082015250565b7f6e6f742073756666696369656e742062616c616e636520746f2063617374207660008201527f6f74650000000000000000000000000000000000000000000000000000000000602082015250565b7f456e642074696d652073686f756c642062652067726561746572207468616e2060008201527f73746172742074696d6500000000000000000000000000000000000000000000602082015250565b7f45524332303a206275726e2066726f6d20746865207a65726f2061646472657360008201527f7300000000000000000000000000000000000000000000000000000000000000602082015250565b7f6d696e7400000000000000000000000000000000000000000000000000000000600082015250565b7f496e76616c696420766f74657220666f722070726f706f73616c496421000000600082015250565b7f6275726e00000000000000000000000000000000000000000000000000000000600082015250565b7f6e6f7420766f7465640000000000000000000000000000000000000000000000600082015250565b7f45524332303a206d696e7420746f20746865207a65726f206164647265737300600082015250565b6130028161295c565b811461300d57600080fd5b50565b613019816129c4565b811461302457600080fd5b50565b613030816129ce565b811461303b57600080fd5b5056fea2646970667358221220fc3cf5867d50dbc0e1b61df0690f0d131dbc911fadaae50d1106fbd5f871ee5764736f6c63430008070033",
					"opcodes": "PUSH1 0x80 PUSH1 0x40 MSTORE CALLVALUE DUP1 ISZERO PUSH3 0x11 JUMPI PUSH1 0x0 DUP1 REVERT JUMPDEST POP PUSH1 0x40 MLOAD DUP1 PUSH1 0x40 ADD PUSH1 0x40 MSTORE DUP1 PUSH1 0xC DUP2 MSTORE PUSH1 0x20 ADD PUSH32 0x51566F74696E67546F6B656E0000000000000000000000000000000000000000 DUP2 MSTORE POP PUSH1 0x40 MLOAD DUP1 PUSH1 0x40 ADD PUSH1 0x40 MSTORE DUP1 PUSH1 0x2 DUP2 MSTORE PUSH1 0x20 ADD PUSH32 0x5176000000000000000000000000000000000000000000000000000000000000 DUP2 MSTORE POP DUP2 PUSH1 0x2 SWAP1 DUP1 MLOAD SWAP1 PUSH1 0x20 ADD SWAP1 PUSH3 0x96 SWAP3 SWAP2 SWAP1 PUSH3 0xF9 JUMP JUMPDEST POP DUP1 PUSH1 0x3 SWAP1 DUP1 MLOAD SWAP1 PUSH1 0x20 ADD SWAP1 PUSH3 0xAF SWAP3 SWAP2 SWAP1 PUSH3 0xF9 JUMP JUMPDEST POP POP POP CALLER PUSH1 0x4 PUSH1 0x0 PUSH2 0x100 EXP DUP2 SLOAD DUP2 PUSH20 0xFFFFFFFFFFFFFFFFFFFFFFFFFFFFFFFFFFFFFFFF MUL NOT AND SWAP1 DUP4 PUSH20 0xFFFFFFFFFFFFFFFFFFFFFFFFFFFFFFFFFFFFFFFF AND MUL OR SWAP1 SSTORE POP PUSH3 0x20E JUMP JUMPDEST DUP3 DUP1 SLOAD PUSH3 0x107 SWAP1 PUSH3 0x1A9 JUMP JUMPDEST SWAP1 PUSH1 0x0 MSTORE PUSH1 0x20 PUSH1 0x0 KECCAK256 SWAP1 PUSH1 0x1F ADD PUSH1 0x20 SWAP1 DIV DUP2 ADD SWAP3 DUP3 PUSH3 0x12B JUMPI PUSH1 0x0 DUP6 SSTORE PUSH3 0x177 JUMP JUMPDEST DUP3 PUSH1 0x1F LT PUSH3 0x146 JUMPI DUP1 MLOAD PUSH1 0xFF NOT AND DUP4 DUP1 ADD OR DUP6 SSTORE PUSH3 0x177 JUMP JUMPDEST DUP3 DUP1 ADD PUSH1 0x1 ADD DUP6 SSTORE DUP3 ISZERO PUSH3 0x177 JUMPI SWAP2 DUP3 ADD JUMPDEST DUP3 DUP2 GT ISZERO PUSH3 0x176 JUMPI DUP3 MLOAD DUP3 SSTORE SWAP2 PUSH1 0x20 ADD SWAP2 SWAP1 PUSH1 0x1 ADD SWAP1 PUSH3 0x159 JUMP JUMPDEST JUMPDEST POP SWAP1 POP PUSH3 0x186 SWAP2 SWAP1 PUSH3 0x18A JUMP JUMPDEST POP SWAP1 JUMP JUMPDEST JUMPDEST DUP1 DUP3 GT ISZERO PUSH3 0x1A5 JUMPI PUSH1 0x0 DUP2 PUSH1 0x0 SWAP1 SSTORE POP PUSH1 0x1 ADD PUSH3 0x18B JUMP JUMPDEST POP SWAP1 JUMP JUMPDEST PUSH1 0x0 PUSH1 0x2 DUP3 DIV SWAP1 POP PUSH1 0x1 DUP3 AND DUP1 PUSH3 0x1C2 JUMPI PUSH1 0x7F DUP3 AND SWAP2 POP JUMPDEST PUSH1 0x20 DUP3 LT DUP2 EQ ISZERO PUSH3 0x1D9 JUMPI PUSH3 0x1D8 PUSH3 0x1DF JUMP JUMPDEST JUMPDEST POP SWAP2 SWAP1 POP JUMP JUMPDEST PUSH32 0x4E487B7100000000000000000000000000000000000000000000000000000000 PUSH1 0x0 MSTORE PUSH1 0x22 PUSH1 0x4 MSTORE PUSH1 0x24 PUSH1 0x0 REVERT JUMPDEST PUSH2 0x3074 DUP1 PUSH3 0x21E PUSH1 0x0 CODECOPY PUSH1 0x0 RETURN INVALID PUSH1 0x80 PUSH1 0x40 MSTORE CALLVALUE DUP1 ISZERO PUSH2 0x10 JUMPI PUSH1 0x0 DUP1 REVERT JUMPDEST POP PUSH1 0x4 CALLDATASIZE LT PUSH2 0x9E JUMPI PUSH1 0x0 CALLDATALOAD PUSH1 0xE0 SHR DUP1 PUSH4 0x70A08231 GT PUSH2 0x66 JUMPI DUP1 PUSH4 0x70A08231 EQ PUSH2 0x14E JUMPI DUP1 PUSH4 0x95D89B41 EQ PUSH2 0x17E JUMPI DUP1 PUSH4 0xC3703048 EQ PUSH2 0x19C JUMPI DUP1 PUSH4 0xDB5E8038 EQ PUSH2 0x1CF JUMPI DUP1 PUSH4 0xE745D68E EQ PUSH2 0x1EB JUMPI PUSH2 0x9E JUMP JUMPDEST DUP1 PUSH4 0x13CF08B EQ PUSH2 0xA3 JUMPI DUP1 PUSH4 0x6FDDE03 EQ PUSH2 0xD8 JUMPI DUP1 PUSH4 0x18160DDD EQ PUSH2 0xF6 JUMPI DUP1 PUSH4 0x313CE567 EQ PUSH2 0x114 JUMPI DUP1 PUSH4 0x4DE77E48 EQ PUSH2 0x132 JUMPI JUMPDEST PUSH1 0x0 DUP1 REVERT JUMPDEST PUSH2 0xBD PUSH1 0x4 DUP1 CALLDATASIZE SUB DUP2 ADD SWAP1 PUSH2 0xB8 SWAP2 SWAP1 PUSH2 0x1BD2 JUMP JUMPDEST PUSH2 0x21C JUMP JUMPDEST PUSH1 0x40 MLOAD PUSH2 0xCF SWAP7 SWAP6 SWAP5 SWAP4 SWAP3 SWAP2 SWAP1 PUSH2 0x22D0 JUMP JUMPDEST PUSH1 0x40 MLOAD DUP1 SWAP2 SUB SWAP1 RETURN JUMPDEST PUSH2 0xE0 PUSH2 0x31B JUMP JUMPDEST PUSH1 0x40 MLOAD PUSH2 0xED SWAP2 SWAP1 PUSH2 0x2338 JUMP JUMPDEST PUSH1 0x40 MLOAD DUP1 SWAP2 SUB SWAP1 RETURN JUMPDEST PUSH2 0xFE PUSH2 0x3AD JUMP JUMPDEST PUSH1 0x40 MLOAD PUSH2 0x10B SWAP2 SWAP1 PUSH2 0x25DB JUMP JUMPDEST PUSH1 0x40 MLOAD DUP1 SWAP2 SUB SWAP1 RETURN JUMPDEST PUSH2 0x11C PUSH2 0x3B7 JUMP JUMPDEST PUSH1 0x40 MLOAD PUSH2 0x129 SWAP2 SWAP1 PUSH2 0x26C1 JUMP JUMPDEST PUSH1 0x40 MLOAD DUP1 SWAP2 SUB SWAP1 RETURN JUMPDEST PUSH2 0x14C PUSH1 0x4 DUP1 CALLDATASIZE SUB DUP2 ADD SWAP1 PUSH2 0x147 SWAP2 SWAP1 PUSH2 0x1C82 JUMP JUMPDEST PUSH2 0x3C0 JUMP JUMPDEST STOP JUMPDEST PUSH2 0x168 PUSH1 0x4 DUP1 CALLDATASIZE SUB DUP2 ADD SWAP1 PUSH2 0x163 SWAP2 SWAP1 PUSH2 0x1BA5 JUMP JUMPDEST PUSH2 0x6D5 JUMP JUMPDEST PUSH1 0x40 MLOAD PUSH2 0x175 SWAP2 SWAP1 PUSH2 0x25DB JUMP JUMPDEST PUSH1 0x40 MLOAD DUP1 SWAP2 SUB SWAP1 RETURN JUMPDEST PUSH2 0x186 PUSH2 0x71D JUMP JUMPDEST PUSH1 0x40 MLOAD PUSH2 0x193 SWAP2 SWAP1 PUSH2 0x2338 JUMP JUMPDEST PUSH1 0x40 MLOAD DUP1 SWAP2 SUB SWAP1 RETURN JUMPDEST PUSH2 0x1B6 PUSH1 0x4 DUP1 CALLDATASIZE SUB DUP2 ADD SWAP1 PUSH2 0x1B1 SWAP2 SWAP1 PUSH2 0x1BA5 JUMP JUMPDEST PUSH2 0x7AF JUMP JUMPDEST PUSH1 0x40 MLOAD PUSH2 0x1C6 SWAP5 SWAP4 SWAP3 SWAP2 SWAP1 PUSH2 0x25F6 JUMP JUMPDEST PUSH1 0x40 MLOAD DUP1 SWAP2 SUB SWAP1 RETURN JUMPDEST PUSH2 0x1E9 PUSH1 0x4 DUP1 CALLDATASIZE SUB DUP2 ADD SWAP1 PUSH2 0x1E4 SWAP2 SWAP1 PUSH2 0x1BFF JUMP JUMPDEST PUSH2 0x80C JUMP JUMPDEST STOP JUMPDEST PUSH2 0x205 PUSH1 0x4 DUP1 CALLDATASIZE SUB DUP2 ADD SWAP1 PUSH2 0x200 SWAP2 SWAP1 PUSH2 0x1BA5 JUMP JUMPDEST PUSH2 0xB1B JUMP JUMPDEST PUSH1 0x40 MLOAD PUSH2 0x213 SWAP3 SWAP2 SWAP1 PUSH2 0x25B2 JUMP JUMPDEST PUSH1 0x40 MLOAD DUP1 SWAP2 SUB SWAP1 RETURN JUMPDEST PUSH1 0x7 PUSH1 0x20 MSTORE DUP1 PUSH1 0x0 MSTORE PUSH1 0x40 PUSH1 0x0 KECCAK256 PUSH1 0x0 SWAP2 POP SWAP1 POP DUP1 PUSH1 0x0 ADD PUSH1 0x0 SWAP1 SLOAD SWAP1 PUSH2 0x100 EXP SWAP1 DIV PUSH20 0xFFFFFFFFFFFFFFFFFFFFFFFFFFFFFFFFFFFFFFFF AND SWAP1 DUP1 PUSH1 0x0 ADD PUSH1 0x14 SWAP1 SLOAD SWAP1 PUSH2 0x100 EXP SWAP1 DIV PUSH1 0xFF AND SWAP1 DUP1 PUSH1 0x1 ADD DUP1 SLOAD PUSH2 0x278 SWAP1 PUSH2 0x2A1D JUMP JUMPDEST DUP1 PUSH1 0x1F ADD PUSH1 0x20 DUP1 SWAP2 DIV MUL PUSH1 0x20 ADD PUSH1 0x40 MLOAD SWAP1 DUP2 ADD PUSH1 0x40 MSTORE DUP1 SWAP3 SWAP2 SWAP1 DUP2 DUP2 MSTORE PUSH1 0x20 ADD DUP3 DUP1 SLOAD PUSH2 0x2A4 SWAP1 PUSH2 0x2A1D JUMP JUMPDEST DUP1 ISZERO PUSH2 0x2F1 JUMPI DUP1 PUSH1 0x1F LT PUSH2 0x2C6 JUMPI PUSH2 0x100 DUP1 DUP4 SLOAD DIV MUL DUP4 MSTORE SWAP2 PUSH1 0x20 ADD SWAP2 PUSH2 0x2F1 JUMP JUMPDEST DUP3 ADD SWAP2 SWAP1 PUSH1 0x0 MSTORE PUSH1 0x20 PUSH1 0x0 KECCAK256 SWAP1 JUMPDEST DUP2 SLOAD DUP2 MSTORE SWAP1 PUSH1 0x1 ADD SWAP1 PUSH1 0x20 ADD DUP1 DUP4 GT PUSH2 0x2D4 JUMPI DUP3 SWAP1 SUB PUSH1 0x1F AND DUP3 ADD SWAP2 JUMPDEST POP POP POP POP POP SWAP1 DUP1 PUSH1 0x2 ADD SLOAD SWAP1 DUP1 PUSH1 0x3 ADD SLOAD SWAP1 DUP1 PUSH1 0x4 ADD PUSH1 0x0 SWAP1 SLOAD SWAP1 PUSH2 0x100 EXP SWAP1 DIV PUSH2 0xFFFF AND SWAP1 POP DUP7 JUMP JUMPDEST PUSH1 0x60 PUSH1 0x2 DUP1 SLOAD PUSH2 0x32A SWAP1 PUSH2 0x2A1D JUMP JUMPDEST DUP1 PUSH1 0x1F ADD PUSH1 0x20 DUP1 SWAP2 DIV MUL PUSH1 0x20 ADD PUSH1 0x40 MLOAD SWAP1 DUP2 ADD PUSH1 0x40 MSTORE DUP1 SWAP3 SWAP2 SWAP1 DUP2 DUP2 MSTORE PUSH1 0x20 ADD DUP3 DUP1 SLOAD PUSH2 0x356 SWAP1 PUSH2 0x2A1D JUMP JUMPDEST DUP1 ISZERO PUSH2 0x3A3 JUMPI DUP1 PUSH1 0x1F LT PUSH2 0x378 JUMPI PUSH2 0x100 DUP1 DUP4 SLOAD DIV MUL DUP4 MSTORE SWAP2 PUSH1 0x20 ADD SWAP2 PUSH2 0x3A3 JUMP JUMPDEST DUP3 ADD SWAP2 SWAP1 PUSH1 0x0 MSTORE PUSH1 0x20 PUSH1 0x0 KECCAK256 SWAP1 JUMPDEST DUP2 SLOAD DUP2 MSTORE SWAP1 PUSH1 0x1 ADD SWAP1 PUSH1 0x20 ADD DUP1 DUP4 GT PUSH2 0x386 JUMPI DUP3 SWAP1 SUB PUSH1 0x1F AND DUP3 ADD SWAP2 JUMPDEST POP POP POP POP POP SWAP1 POP SWAP1 JUMP JUMPDEST PUSH1 0x0 PUSH1 0x1 SLOAD SWAP1 POP SWAP1 JUMP JUMPDEST PUSH1 0x0 PUSH1 0x12 SWAP1 POP SWAP1 JUMP JUMPDEST DUP6 TIMESTAMP LT PUSH2 0x402 JUMPI PUSH1 0x40 MLOAD PUSH32 0x8C379A000000000000000000000000000000000000000000000000000000000 DUP2 MSTORE PUSH1 0x4 ADD PUSH2 0x3F9 SWAP1 PUSH2 0x241A JUMP JUMPDEST PUSH1 0x40 MLOAD DUP1 SWAP2 SUB SWAP1 REVERT JUMPDEST DUP5 TIMESTAMP LT PUSH2 0x444 JUMPI PUSH1 0x40 MLOAD PUSH32 0x8C379A000000000000000000000000000000000000000000000000000000000 DUP2 MSTORE PUSH1 0x4 ADD PUSH2 0x43B SWAP1 PUSH2 0x237A JUMP JUMPDEST PUSH1 0x40 MLOAD DUP1 SWAP2 SUB SWAP1 REVERT JUMPDEST DUP5 DUP7 LT PUSH2 0x486 JUMPI PUSH1 0x40 MLOAD PUSH32 0x8C379A000000000000000000000000000000000000000000000000000000000 DUP2 MSTORE PUSH1 0x4 ADD PUSH2 0x47D SWAP1 PUSH2 0x249A JUMP JUMPDEST PUSH1 0x40 MLOAD DUP1 SWAP2 SUB SWAP1 REVERT JUMPDEST PUSH1 0x5 PUSH1 0x0 DUP2 SLOAD DUP1 SWAP3 SWAP2 SWAP1 PUSH2 0x499 SWAP1 PUSH2 0x2AE4 JUMP JUMPDEST SWAP2 SWAP1 POP SSTORE POP PUSH2 0x4D3 DUP10 DUP10 DUP10 DUP10 DUP10 DUP10 DUP10 DUP10 PUSH1 0x7 PUSH1 0x0 PUSH1 0x5 SLOAD DUP2 MSTORE PUSH1 0x20 ADD SWAP1 DUP2 MSTORE PUSH1 0x20 ADD PUSH1 0x0 KECCAK256 PUSH2 0xB77 SWAP1 SWAP9 SWAP8 SWAP7 SWAP6 SWAP5 SWAP4 SWAP3 SWAP2 SWAP1 PUSH4 0xFFFFFFFF AND JUMP JUMPDEST POP PUSH32 0x239A8A71A7D1CB0D134F6CC072AD6390E36A88C8E78DFF69013EE79528441E80 PUSH1 0x5 SLOAD DUP10 DUP10 DUP10 DUP10 DUP10 DUP10 DUP10 PUSH1 0x40 MLOAD PUSH2 0x513 SWAP9 SWAP8 SWAP7 SWAP6 SWAP5 SWAP4 SWAP3 SWAP2 SWAP1 PUSH2 0x263B JUMP JUMPDEST PUSH1 0x40 MLOAD DUP1 SWAP2 SUB SWAP1 LOG1 PUSH1 0x1 PUSH1 0x9 PUSH1 0x0 PUSH1 0x5 SLOAD DUP2 MSTORE PUSH1 0x20 ADD SWAP1 DUP2 MSTORE PUSH1 0x20 ADD PUSH1 0x0 KECCAK256 PUSH1 0x0 PUSH2 0x100 EXP DUP2 SLOAD DUP2 PUSH1 0xFF MUL NOT AND SWAP1 DUP4 ISZERO ISZERO MUL OR SWAP1 SSTORE POP PUSH1 0x0 JUMPDEST DUP9 MLOAD DUP2 LT ISZERO PUSH2 0x66E JUMPI PUSH2 0x579 DUP10 DUP3 DUP2 MLOAD DUP2 LT PUSH2 0x56B JUMPI PUSH2 0x56A PUSH2 0x2B8B JUMP JUMPDEST JUMPDEST PUSH1 0x20 MUL PUSH1 0x20 ADD ADD MLOAD DUP4 PUSH2 0xD9F JUMP JUMPDEST PUSH2 0x607 PUSH1 0x5 SLOAD DUP11 DUP4 DUP2 MLOAD DUP2 LT PUSH2 0x592 JUMPI PUSH2 0x591 PUSH2 0x2B8B JUMP JUMPDEST JUMPDEST PUSH1 0x20 MUL PUSH1 0x20 ADD ADD MLOAD PUSH1 0x0 DUP6 PUSH1 0x8 PUSH1 0x0 DUP16 DUP9 DUP2 MLOAD DUP2 LT PUSH2 0x5B4 JUMPI PUSH2 0x5B3 PUSH2 0x2B8B JUMP JUMPDEST JUMPDEST PUSH1 0x20 MUL PUSH1 0x20 ADD ADD MLOAD PUSH20 0xFFFFFFFFFFFFFFFFFFFFFFFFFFFFFFFFFFFFFFFF AND PUSH20 0xFFFFFFFFFFFFFFFFFFFFFFFFFFFFFFFFFFFFFFFF AND DUP2 MSTORE PUSH1 0x20 ADD SWAP1 DUP2 MSTORE PUSH1 0x20 ADD PUSH1 0x0 KECCAK256 PUSH2 0xE10 SWAP1 SWAP5 SWAP4 SWAP3 SWAP2 SWAP1 PUSH4 0xFFFFFFFF AND JUMP JUMPDEST POP PUSH32 0xABF5327BE9F5825C40D58BDA541DD07F09B62DF3376BBD5ECDBAA8BD82A9D492 DUP10 DUP3 DUP2 MLOAD DUP2 LT PUSH2 0x63C JUMPI PUSH2 0x63B PUSH2 0x2B8B JUMP JUMPDEST JUMPDEST PUSH1 0x20 MUL PUSH1 0x20 ADD ADD MLOAD DUP4 PUSH1 0x40 MLOAD PUSH2 0x653 SWAP3 SWAP2 SWAP1 PUSH2 0x24DA JUMP JUMPDEST PUSH1 0x40 MLOAD DUP1 SWAP2 SUB SWAP1 LOG1 DUP1 DUP1 PUSH2 0x666 SWAP1 PUSH2 0x2AE4 JUMP JUMPDEST SWAP2 POP POP PUSH2 0x54C JUMP JUMPDEST POP PUSH2 0x6C9 PUSH1 0x5 SLOAD PUSH1 0x6 PUSH1 0x0 PUSH2 0x681 PUSH2 0xE90 JUMP JUMPDEST PUSH20 0xFFFFFFFFFFFFFFFFFFFFFFFFFFFFFFFFFFFFFFFF AND PUSH20 0xFFFFFFFFFFFFFFFFFFFFFFFFFFFFFFFFFFFFFFFF AND DUP2 MSTORE PUSH1 0x20 ADD SWAP1 DUP2 MSTORE PUSH1 0x20 ADD PUSH1 0x0 KECCAK256 PUSH2 0xE98 SWAP1 SWAP2 SWAP1 PUSH4 0xFFFFFFFF AND JUMP JUMPDEST POP POP POP POP POP POP POP POP POP POP JUMP JUMPDEST PUSH1 0x0 DUP1 PUSH1 0x0 DUP4 PUSH20 0xFFFFFFFFFFFFFFFFFFFFFFFFFFFFFFFFFFFFFFFF AND PUSH20 0xFFFFFFFFFFFFFFFFFFFFFFFFFFFFFFFFFFFFFFFF AND DUP2 MSTORE PUSH1 0x20 ADD SWAP1 DUP2 MSTORE PUSH1 0x20 ADD PUSH1 0x0 KECCAK256 SLOAD SWAP1 POP SWAP2 SWAP1 POP JUMP JUMPDEST PUSH1 0x60 PUSH1 0x3 DUP1 SLOAD PUSH2 0x72C SWAP1 PUSH2 0x2A1D JUMP JUMPDEST DUP1 PUSH1 0x1F ADD PUSH1 0x20 DUP1 SWAP2 DIV MUL PUSH1 0x20 ADD PUSH1 0x40 MLOAD SWAP1 DUP2 ADD PUSH1 0x40 MSTORE DUP1 SWAP3 SWAP2 SWAP1 DUP2 DUP2 MSTORE PUSH1 0x20 ADD DUP3 DUP1 SLOAD PUSH2 0x758 SWAP1 PUSH2 0x2A1D JUMP JUMPDEST DUP1 ISZERO PUSH2 0x7A5 JUMPI DUP1 PUSH1 0x1F LT PUSH2 0x77A JUMPI PUSH2 0x100 DUP1 DUP4 SLOAD DIV MUL DUP4 MSTORE SWAP2 PUSH1 0x20 ADD SWAP2 PUSH2 0x7A5 JUMP JUMPDEST DUP3 ADD SWAP2 SWAP1 PUSH1 0x0 MSTORE PUSH1 0x20 PUSH1 0x0 KECCAK256 SWAP1 JUMPDEST DUP2 SLOAD DUP2 MSTORE SWAP1 PUSH1 0x1 ADD SWAP1 PUSH1 0x20 ADD DUP1 DUP4 GT PUSH2 0x788 JUMPI DUP3 SWAP1 SUB PUSH1 0x1F AND DUP3 ADD SWAP2 JUMPDEST POP POP POP POP POP SWAP1 POP SWAP1 JUMP JUMPDEST PUSH1 0x8 PUSH1 0x20 MSTORE DUP1 PUSH1 0x0 MSTORE PUSH1 0x40 PUSH1 0x0 KECCAK256 PUSH1 0x0 SWAP2 POP SWAP1 POP DUP1 PUSH1 0x0 ADD SLOAD SWAP1 DUP1 PUSH1 0x1 ADD PUSH1 0x0 SWAP1 SLOAD SWAP1 PUSH2 0x100 EXP SWAP1 DIV PUSH20 0xFFFFFFFFFFFFFFFFFFFFFFFFFFFFFFFFFFFFFFFF AND SWAP1 DUP1 PUSH1 0x1 ADD PUSH1 0x14 SWAP1 SLOAD SWAP1 PUSH2 0x100 EXP SWAP1 DIV PUSH1 0xFF AND SWAP1 DUP1 PUSH1 0x2 ADD SLOAD SWAP1 POP DUP5 JUMP JUMPDEST PUSH1 0x9 PUSH1 0x0 DUP6 DUP2 MSTORE PUSH1 0x20 ADD SWAP1 DUP2 MSTORE PUSH1 0x20 ADD PUSH1 0x0 KECCAK256 PUSH1 0x0 SWAP1 SLOAD SWAP1 PUSH2 0x100 EXP SWAP1 DIV PUSH1 0xFF AND PUSH2 0x86C JUMPI PUSH1 0x40 MLOAD PUSH32 0x8C379A000000000000000000000000000000000000000000000000000000000 DUP2 MSTORE PUSH1 0x4 ADD PUSH2 0x863 SWAP1 PUSH2 0x245A JUMP JUMPDEST PUSH1 0x40 MLOAD DUP1 SWAP2 SUB SWAP1 REVERT JUMPDEST DUP4 PUSH1 0x8 PUSH1 0x0 DUP6 PUSH20 0xFFFFFFFFFFFFFFFFFFFFFFFFFFFFFFFFFFFFFFFF AND PUSH20 0xFFFFFFFFFFFFFFFFFFFFFFFFFFFFFFFFFFFFFFFF AND DUP2 MSTORE PUSH1 0x20 ADD SWAP1 DUP2 MSTORE PUSH1 0x20 ADD PUSH1 0x0 KECCAK256 PUSH1 0x0 ADD SLOAD EQ PUSH2 0x8F0 JUMPI PUSH1 0x40 MLOAD PUSH32 0x8C379A000000000000000000000000000000000000000000000000000000000 DUP2 MSTORE PUSH1 0x4 ADD PUSH2 0x8E7 SWAP1 PUSH2 0x23FA JUMP JUMPDEST PUSH1 0x40 MLOAD DUP1 SWAP2 SUB SWAP1 REVERT JUMPDEST PUSH1 0x8 PUSH1 0x0 DUP5 PUSH20 0xFFFFFFFFFFFFFFFFFFFFFFFFFFFFFFFFFFFFFFFF AND PUSH20 0xFFFFFFFFFFFFFFFFFFFFFFFFFFFFFFFFFFFFFFFF AND DUP2 MSTORE PUSH1 0x20 ADD SWAP1 DUP2 MSTORE PUSH1 0x20 ADD PUSH1 0x0 KECCAK256 PUSH1 0x1 ADD PUSH1 0x14 SWAP1 SLOAD SWAP1 PUSH2 0x100 EXP SWAP1 DIV PUSH1 0xFF AND ISZERO PUSH2 0x980 JUMPI PUSH1 0x40 MLOAD PUSH32 0x8C379A000000000000000000000000000000000000000000000000000000000 DUP2 MSTORE PUSH1 0x4 ADD PUSH2 0x977 SWAP1 PUSH2 0x23BA JUMP JUMPDEST PUSH1 0x40 MLOAD DUP1 SWAP2 SUB SWAP1 REVERT JUMPDEST DUP1 PUSH1 0x8 PUSH1 0x0 DUP6 PUSH20 0xFFFFFFFFFFFFFFFFFFFFFFFFFFFFFFFFFFFFFFFF AND PUSH20 0xFFFFFFFFFFFFFFFFFFFFFFFFFFFFFFFFFFFFFFFF AND DUP2 MSTORE PUSH1 0x20 ADD SWAP1 DUP2 MSTORE PUSH1 0x20 ADD PUSH1 0x0 KECCAK256 PUSH1 0x2 ADD SLOAD LT ISZERO PUSH2 0xA05 JUMPI PUSH1 0x40 MLOAD PUSH32 0x8C379A000000000000000000000000000000000000000000000000000000000 DUP2 MSTORE PUSH1 0x4 ADD PUSH2 0x9FC SWAP1 PUSH2 0x247A JUMP JUMPDEST PUSH1 0x40 MLOAD DUP1 SWAP2 SUB SWAP1 REVERT JUMPDEST PUSH2 0xA2E DUP4 DUP4 DUP4 PUSH1 0x7 PUSH1 0x0 DUP10 DUP2 MSTORE PUSH1 0x20 ADD SWAP1 DUP2 MSTORE PUSH1 0x20 ADD PUSH1 0x0 KECCAK256 PUSH2 0xF69 SWAP1 SWAP4 SWAP3 SWAP2 SWAP1 PUSH4 0xFFFFFFFF AND JUMP JUMPDEST POP PUSH2 0xA89 DUP5 DUP4 PUSH1 0x6 PUSH1 0x0 PUSH2 0xA40 PUSH2 0xE90 JUMP JUMPDEST PUSH20 0xFFFFFFFFFFFFFFFFFFFFFFFFFFFFFFFFFFFFFFFF AND PUSH20 0xFFFFFFFFFFFFFFFFFFFFFFFFFFFFFFFFFFFFFFFF AND DUP2 MSTORE PUSH1 0x20 ADD SWAP1 DUP2 MSTORE PUSH1 0x20 ADD PUSH1 0x0 KECCAK256 PUSH2 0x1357 SWAP1 SWAP3 SWAP2 SWAP1 PUSH4 0xFFFFFFFF AND JUMP JUMPDEST POP PUSH2 0xAD1 PUSH1 0x8 PUSH1 0x0 DUP6 PUSH20 0xFFFFFFFFFFFFFFFFFFFFFFFFFFFFFFFFFFFFFFFF AND PUSH20 0xFFFFFFFFFFFFFFFFFFFFFFFFFFFFFFFFFFFFFFFF AND DUP2 MSTORE PUSH1 0x20 ADD SWAP1 DUP2 MSTORE PUSH1 0x20 ADD PUSH1 0x0 KECCAK256 PUSH2 0x1481 JUMP JUMPDEST POP PUSH2 0xADC DUP4 DUP3 PUSH2 0x152E JUMP JUMPDEST PUSH32 0xABF5327BE9F5825C40D58BDA541DD07F09B62DF3376BBD5ECDBAA8BD82A9D492 DUP4 DUP3 PUSH1 0x40 MLOAD PUSH2 0xB0D SWAP3 SWAP2 SWAP1 PUSH2 0x2536 JUMP JUMPDEST PUSH1 0x40 MLOAD DUP1 SWAP2 SUB SWAP1 LOG1 POP POP POP POP JUMP JUMPDEST PUSH1 0x6 PUSH1 0x20 MSTORE DUP1 PUSH1 0x0 MSTORE PUSH1 0x40 PUSH1 0x0 KECCAK256 PUSH1 0x0 SWAP2 POP SWAP1 POP DUP1 PUSH1 0x0 ADD PUSH1 0x0 SWAP1 SLOAD SWAP1 PUSH2 0x100 EXP SWAP1 DIV PUSH16 0xFFFFFFFFFFFFFFFFFFFFFFFFFFFFFFFF AND SWAP1 DUP1 PUSH1 0x0 ADD PUSH1 0x10 SWAP1 SLOAD SWAP1 PUSH2 0x100 EXP SWAP1 DIV PUSH16 0xFFFFFFFFFFFFFFFFFFFFFFFFFFFFFFFF AND SWAP1 POP DUP3 JUMP JUMPDEST PUSH1 0x0 DUP7 DUP11 PUSH1 0x0 ADD PUSH1 0x0 PUSH2 0x100 EXP DUP2 SLOAD DUP2 PUSH20 0xFFFFFFFFFFFFFFFFFFFFFFFFFFFFFFFFFFFFFFFF MUL NOT AND SWAP1 DUP4 PUSH20 0xFFFFFFFFFFFFFFFFFFFFFFFFFFFFFFFFFFFFFFFF AND MUL OR SWAP1 SSTORE POP DUP9 DUP11 PUSH1 0x0 ADD PUSH1 0x14 PUSH2 0x100 EXP DUP2 SLOAD DUP2 PUSH1 0xFF MUL NOT AND SWAP1 DUP4 PUSH1 0xFF AND MUL OR SWAP1 SSTORE POP DUP4 DUP11 PUSH1 0x1 ADD SWAP1 DUP1 MLOAD SWAP1 PUSH1 0x20 ADD SWAP1 PUSH2 0xBF1 SWAP3 SWAP2 SWAP1 PUSH2 0x184C JUMP JUMPDEST POP DUP6 DUP11 PUSH1 0x2 ADD DUP2 SWAP1 SSTORE POP DUP5 DUP11 PUSH1 0x3 ADD DUP2 SWAP1 SSTORE POP DUP3 DUP3 SWAP1 POP DUP11 PUSH1 0x4 ADD PUSH1 0x0 PUSH2 0x100 EXP DUP2 SLOAD DUP2 PUSH2 0xFFFF MUL NOT AND SWAP1 DUP4 PUSH2 0xFFFF AND MUL OR SWAP1 SSTORE POP PUSH1 0x0 JUMPDEST DUP4 DUP4 SWAP1 POP DUP2 LT ISZERO PUSH2 0xCF9 JUMPI PUSH1 0x1 DUP12 PUSH1 0x6 ADD DUP6 DUP6 DUP5 DUP2 DUP2 LT PUSH2 0xC4D JUMPI PUSH2 0xC4C PUSH2 0x2B8B JUMP JUMPDEST JUMPDEST SWAP1 POP PUSH1 0x20 MUL DUP2 ADD SWAP1 PUSH2 0xC5F SWAP2 SWAP1 PUSH2 0x26DC JUMP JUMPDEST PUSH1 0x40 MLOAD PUSH2 0xC6D SWAP3 SWAP2 SWAP1 PUSH2 0x2289 JUMP JUMPDEST SWAP1 DUP2 MSTORE PUSH1 0x20 ADD PUSH1 0x40 MLOAD DUP1 SWAP2 SUB SWAP1 KECCAK256 PUSH1 0x0 PUSH2 0x100 EXP DUP2 SLOAD DUP2 PUSH1 0xFF MUL NOT AND SWAP1 DUP4 ISZERO ISZERO MUL OR SWAP1 SSTORE POP DUP4 DUP4 DUP3 DUP2 DUP2 LT PUSH2 0xCA5 JUMPI PUSH2 0xCA4 PUSH2 0x2B8B JUMP JUMPDEST JUMPDEST SWAP1 POP PUSH1 0x20 MUL DUP2 ADD SWAP1 PUSH2 0xCB7 SWAP2 SWAP1 PUSH2 0x26DC JUMP JUMPDEST DUP13 PUSH1 0x7 ADD PUSH1 0x0 PUSH1 0x1 DUP6 PUSH2 0xCCA SWAP2 SWAP1 PUSH2 0x28D2 JUMP JUMPDEST DUP2 MSTORE PUSH1 0x20 ADD SWAP1 DUP2 MSTORE PUSH1 0x20 ADD PUSH1 0x0 KECCAK256 SWAP2 SWAP1 PUSH2 0xCE5 SWAP3 SWAP2 SWAP1 PUSH2 0x18D2 JUMP JUMPDEST POP DUP1 DUP1 PUSH2 0xCF1 SWAP1 PUSH2 0x2AE4 JUMP JUMPDEST SWAP2 POP POP PUSH2 0xC29 JUMP JUMPDEST POP PUSH1 0x0 JUMPDEST DUP9 MLOAD DUP2 LT ISZERO PUSH2 0xD8D JUMPI PUSH1 0x1 DUP12 PUSH1 0x5 ADD PUSH1 0x0 DUP12 DUP5 DUP2 MLOAD DUP2 LT PUSH2 0xD21 JUMPI PUSH2 0xD20 PUSH2 0x2B8B JUMP JUMPDEST JUMPDEST PUSH1 0x20 MUL PUSH1 0x20 ADD ADD MLOAD PUSH20 0xFFFFFFFFFFFFFFFFFFFFFFFFFFFFFFFFFFFFFFFF AND PUSH20 0xFFFFFFFFFFFFFFFFFFFFFFFFFFFFFFFFFFFFFFFF AND DUP2 MSTORE PUSH1 0x20 ADD SWAP1 DUP2 MSTORE PUSH1 0x20 ADD PUSH1 0x0 KECCAK256 PUSH1 0x0 PUSH2 0x100 EXP DUP2 SLOAD DUP2 PUSH1 0xFF MUL NOT AND SWAP1 DUP4 ISZERO ISZERO MUL OR SWAP1 SSTORE POP DUP1 DUP1 PUSH2 0xD85 SWAP1 PUSH2 0x2AE4 JUMP JUMPDEST SWAP2 POP POP PUSH2 0xCFD JUMP JUMPDEST POP PUSH1 0x1 SWAP1 POP SWAP10 SWAP9 POP POP POP POP POP POP POP POP POP JUMP JUMPDEST PUSH2 0xDA7 PUSH2 0xE90 JUMP JUMPDEST DUP1 PUSH20 0xFFFFFFFFFFFFFFFFFFFFFFFFFFFFFFFFFFFFFFFF AND PUSH1 0x4 PUSH1 0x0 SWAP1 SLOAD SWAP1 PUSH2 0x100 EXP SWAP1 DIV PUSH20 0xFFFFFFFFFFFFFFFFFFFFFFFFFFFFFFFFFFFFFFFF AND PUSH20 0xFFFFFFFFFFFFFFFFFFFFFFFFFFFFFFFFFFFFFFFF AND EQ PUSH2 0xE01 JUMPI PUSH1 0x0 DUP1 REVERT JUMPDEST PUSH2 0xE0B DUP4 DUP4 PUSH2 0x159F JUMP JUMPDEST POP POP POP JUMP JUMPDEST PUSH1 0x0 DUP5 DUP7 PUSH1 0x0 ADD DUP2 SWAP1 SSTORE POP DUP4 DUP7 PUSH1 0x1 ADD PUSH1 0x0 PUSH2 0x100 EXP DUP2 SLOAD DUP2 PUSH20 0xFFFFFFFFFFFFFFFFFFFFFFFFFFFFFFFFFFFFFFFF MUL NOT AND SWAP1 DUP4 PUSH20 0xFFFFFFFFFFFFFFFFFFFFFFFFFFFFFFFFFFFFFFFF AND MUL OR SWAP1 SSTORE POP DUP3 DUP7 PUSH1 0x1 ADD PUSH1 0x14 PUSH2 0x100 EXP DUP2 SLOAD DUP2 PUSH1 0xFF MUL NOT AND SWAP1 DUP4 ISZERO ISZERO MUL OR SWAP1 SSTORE POP DUP2 DUP7 PUSH1 0x2 ADD DUP2 SWAP1 SSTORE POP PUSH1 0x1 SWAP1 POP SWAP6 SWAP5 POP POP POP POP POP JUMP JUMPDEST PUSH1 0x0 CALLER SWAP1 POP SWAP1 JUMP JUMPDEST PUSH1 0x0 DUP3 PUSH1 0x0 ADD PUSH1 0x0 DUP2 DUP2 SWAP1 SLOAD SWAP1 PUSH2 0x100 EXP SWAP1 DIV PUSH16 0xFFFFFFFFFFFFFFFFFFFFFFFFFFFFFFFF AND DUP1 SWAP3 SWAP2 SWAP1 PUSH2 0xECA SWAP1 PUSH2 0x2A80 JUMP JUMPDEST SWAP2 SWAP1 PUSH2 0x100 EXP DUP2 SLOAD DUP2 PUSH16 0xFFFFFFFFFFFFFFFFFFFFFFFFFFFFFFFF MUL NOT AND SWAP1 DUP4 PUSH16 0xFFFFFFFFFFFFFFFFFFFFFFFFFFFFFFFF AND MUL OR SWAP1 SSTORE POP POP DUP2 DUP4 PUSH1 0x1 ADD PUSH1 0x0 DUP6 PUSH1 0x0 ADD PUSH1 0x0 SWAP1 SLOAD SWAP1 PUSH2 0x100 EXP SWAP1 DIV PUSH16 0xFFFFFFFFFFFFFFFFFFFFFFFFFFFFFFFF AND PUSH16 0xFFFFFFFFFFFFFFFFFFFFFFFFFFFFFFFF AND PUSH16 0xFFFFFFFFFFFFFFFFFFFFFFFFFFFFFFFF AND DUP2 MSTORE PUSH1 0x20 ADD SWAP1 DUP2 MSTORE PUSH1 0x20 ADD PUSH1 0x0 KECCAK256 DUP2 SWAP1 SSTORE POP PUSH1 0x1 SWAP1 POP SWAP3 SWAP2 POP POP JUMP JUMPDEST PUSH1 0x0 PUSH1 0x1 DUP6 PUSH1 0x0 ADD PUSH1 0x14 SWAP1 SLOAD SWAP1 PUSH2 0x100 EXP SWAP1 DIV PUSH1 0xFF AND PUSH1 0xFF AND EQ PUSH2 0xFC2 JUMPI PUSH1 0x40 MLOAD PUSH32 0x8C379A000000000000000000000000000000000000000000000000000000000 DUP2 MSTORE PUSH1 0x4 ADD PUSH2 0xFB9 SWAP1 PUSH2 0x235A JUMP JUMPDEST PUSH1 0x40 MLOAD DUP1 SWAP2 SUB SWAP1 REVERT JUMPDEST DUP5 PUSH1 0x3 ADD SLOAD TIMESTAMP GT ISZERO PUSH2 0x1218 JUMPI PUSH1 0x2 DUP6 PUSH1 0x0 ADD PUSH1 0x14 PUSH2 0x100 EXP DUP2 SLOAD DUP2 PUSH1 0xFF MUL NOT AND SWAP1 DUP4 PUSH1 0xFF AND MUL OR SWAP1 SSTORE POP PUSH1 0x0 DUP6 PUSH1 0x9 ADD DUP7 PUSH1 0x7 ADD PUSH1 0x0 PUSH1 0x1 DUP2 MSTORE PUSH1 0x20 ADD SWAP1 DUP2 MSTORE PUSH1 0x20 ADD PUSH1 0x0 KECCAK256 PUSH1 0x40 MLOAD PUSH2 0x1015 SWAP2 SWAP1 PUSH2 0x22B9 JUMP JUMPDEST SWAP1 DUP2 MSTORE PUSH1 0x20 ADD PUSH1 0x40 MLOAD DUP1 SWAP2 SUB SWAP1 KECCAK256 SLOAD SWAP1 POP PUSH1 0x0 PUSH1 0x1 SWAP1 POP DUP7 PUSH1 0x7 ADD PUSH1 0x0 PUSH1 0x1 DUP2 MSTORE PUSH1 0x20 ADD SWAP1 DUP2 MSTORE PUSH1 0x20 ADD PUSH1 0x0 KECCAK256 DUP8 PUSH1 0x8 ADD PUSH1 0x0 PUSH1 0x1 DUP2 MSTORE PUSH1 0x20 ADD SWAP1 DUP2 MSTORE PUSH1 0x20 ADD PUSH1 0x0 KECCAK256 SWAP1 DUP1 SLOAD PUSH2 0x1064 SWAP1 PUSH2 0x2A1D JUMP JUMPDEST PUSH2 0x106F SWAP3 SWAP2 SWAP1 PUSH2 0x1958 JUMP JUMPDEST POP PUSH1 0x0 PUSH1 0x2 SWAP1 POP JUMPDEST DUP8 PUSH1 0x4 ADD PUSH1 0x0 SWAP1 SLOAD SWAP1 PUSH2 0x100 EXP SWAP1 DIV PUSH2 0xFFFF AND PUSH2 0xFFFF AND DUP2 PUSH2 0xFFFF AND GT PUSH2 0x120C JUMPI DUP3 DUP9 PUSH1 0x9 ADD DUP10 PUSH1 0x7 ADD PUSH1 0x0 DUP5 PUSH2 0xFFFF AND DUP2 MSTORE PUSH1 0x20 ADD SWAP1 DUP2 MSTORE PUSH1 0x20 ADD PUSH1 0x0 KECCAK256 PUSH1 0x40 MLOAD PUSH2 0x10C3 SWAP2 SWAP1 PUSH2 0x22B9 JUMP JUMPDEST SWAP1 DUP2 MSTORE PUSH1 0x20 ADD PUSH1 0x40 MLOAD DUP1 SWAP2 SUB SWAP1 KECCAK256 SLOAD GT ISZERO PUSH2 0x1163 JUMPI DUP8 PUSH1 0x9 ADD DUP9 PUSH1 0x7 ADD PUSH1 0x0 DUP4 PUSH2 0xFFFF AND DUP2 MSTORE PUSH1 0x20 ADD SWAP1 DUP2 MSTORE PUSH1 0x20 ADD PUSH1 0x0 KECCAK256 PUSH1 0x40 MLOAD PUSH2 0x1102 SWAP2 SWAP1 PUSH2 0x22B9 JUMP JUMPDEST SWAP1 DUP2 MSTORE PUSH1 0x20 ADD PUSH1 0x40 MLOAD DUP1 SWAP2 SUB SWAP1 KECCAK256 SLOAD SWAP3 POP PUSH1 0x1 SWAP2 POP DUP8 PUSH1 0x7 ADD PUSH1 0x0 DUP3 PUSH2 0xFFFF AND DUP2 MSTORE PUSH1 0x20 ADD SWAP1 DUP2 MSTORE PUSH1 0x20 ADD PUSH1 0x0 KECCAK256 DUP9 PUSH1 0x8 ADD PUSH1 0x0 PUSH1 0x1 DUP2 MSTORE PUSH1 0x20 ADD SWAP1 DUP2 MSTORE PUSH1 0x20 ADD PUSH1 0x0 KECCAK256 SWAP1 DUP1 SLOAD PUSH2 0x1152 SWAP1 PUSH2 0x2A1D JUMP JUMPDEST PUSH2 0x115D SWAP3 SWAP2 SWAP1 PUSH2 0x1958 JUMP JUMPDEST POP PUSH2 0x11F9 JUMP JUMPDEST DUP3 DUP9 PUSH1 0x9 ADD DUP10 PUSH1 0x7 ADD PUSH1 0x0 DUP5 PUSH2 0xFFFF AND DUP2 MSTORE PUSH1 0x20 ADD SWAP1 DUP2 MSTORE PUSH1 0x20 ADD PUSH1 0x0 KECCAK256 PUSH1 0x40 MLOAD PUSH2 0x118E SWAP2 SWAP1 PUSH2 0x22B9 JUMP JUMPDEST SWAP1 DUP2 MSTORE PUSH1 0x20 ADD PUSH1 0x40 MLOAD DUP1 SWAP2 SUB SWAP1 KECCAK256 SLOAD EQ ISZERO PUSH2 0x11F8 JUMPI DUP2 DUP1 PUSH2 0x11AE SWAP1 PUSH2 0x2AE4 JUMP JUMPDEST SWAP3 POP POP DUP8 PUSH1 0x7 ADD PUSH1 0x0 DUP3 PUSH2 0xFFFF AND DUP2 MSTORE PUSH1 0x20 ADD SWAP1 DUP2 MSTORE PUSH1 0x20 ADD PUSH1 0x0 KECCAK256 DUP9 PUSH1 0x8 ADD PUSH1 0x0 DUP5 DUP2 MSTORE PUSH1 0x20 ADD SWAP1 DUP2 MSTORE PUSH1 0x20 ADD PUSH1 0x0 KECCAK256 SWAP1 DUP1 SLOAD PUSH2 0x11EB SWAP1 PUSH2 0x2A1D JUMP JUMPDEST PUSH2 0x11F6 SWAP3 SWAP2 SWAP1 PUSH2 0x1958 JUMP JUMPDEST POP JUMPDEST JUMPDEST DUP1 DUP1 PUSH2 0x1204 SWAP1 PUSH2 0x2AB9 JUMP JUMPDEST SWAP2 POP POP PUSH2 0x1077 JUMP JUMPDEST POP PUSH1 0x0 SWAP3 POP POP POP PUSH2 0x134F JUMP JUMPDEST DUP5 PUSH1 0x5 ADD PUSH1 0x0 DUP6 PUSH20 0xFFFFFFFFFFFFFFFFFFFFFFFFFFFFFFFFFFFFFFFF AND PUSH20 0xFFFFFFFFFFFFFFFFFFFFFFFFFFFFFFFFFFFFFFFF AND DUP2 MSTORE PUSH1 0x20 ADD SWAP1 DUP2 MSTORE PUSH1 0x20 ADD PUSH1 0x0 KECCAK256 PUSH1 0x0 SWAP1 SLOAD SWAP1 PUSH2 0x100 EXP SWAP1 DIV PUSH1 0xFF AND PUSH2 0x12A6 JUMPI PUSH1 0x40 MLOAD PUSH32 0x8C379A000000000000000000000000000000000000000000000000000000000 DUP2 MSTORE PUSH1 0x4 ADD PUSH2 0x129D SWAP1 PUSH2 0x243A JUMP JUMPDEST PUSH1 0x40 MLOAD DUP1 SWAP2 SUB SWAP1 REVERT JUMPDEST DUP5 PUSH1 0x6 ADD DUP4 PUSH1 0x40 MLOAD PUSH2 0x12B8 SWAP2 SWAP1 PUSH2 0x22A2 JUMP JUMPDEST SWAP1 DUP2 MSTORE PUSH1 0x20 ADD PUSH1 0x40 MLOAD DUP1 SWAP2 SUB SWAP1 KECCAK256 PUSH1 0x0 SWAP1 SLOAD SWAP1 PUSH2 0x100 EXP SWAP1 DIV PUSH1 0xFF AND PUSH2 0x1313 JUMPI PUSH1 0x40 MLOAD PUSH32 0x8C379A000000000000000000000000000000000000000000000000000000000 DUP2 MSTORE PUSH1 0x4 ADD PUSH2 0x130A SWAP1 PUSH2 0x23DA JUMP JUMPDEST PUSH1 0x40 MLOAD DUP1 SWAP2 SUB SWAP1 REVERT JUMPDEST DUP2 DUP6 PUSH1 0x9 ADD DUP5 PUSH1 0x40 MLOAD PUSH2 0x1326 SWAP2 SWAP1 PUSH2 0x22A2 JUMP JUMPDEST SWAP1 DUP2 MSTORE PUSH1 0x20 ADD PUSH1 0x40 MLOAD DUP1 SWAP2 SUB SWAP1 KECCAK256 PUSH1 0x0 DUP3 DUP3 SLOAD PUSH2 0x1343 SWAP2 SWAP1 PUSH2 0x28D2 JUMP JUMPDEST SWAP3 POP POP DUP2 SWAP1 SSTORE POP PUSH1 0x1 SWAP1 POP JUMPDEST SWAP5 SWAP4 POP POP POP POP JUMP JUMPDEST PUSH1 0x0 DUP4 PUSH1 0x0 ADD PUSH1 0x10 DUP2 DUP2 SWAP1 SLOAD SWAP1 PUSH2 0x100 EXP SWAP1 DIV PUSH16 0xFFFFFFFFFFFFFFFFFFFFFFFFFFFFFFFF AND DUP1 SWAP3 SWAP2 SWAP1 PUSH2 0x1389 SWAP1 PUSH2 0x2A80 JUMP JUMPDEST SWAP2 SWAP1 PUSH2 0x100 EXP DUP2 SLOAD DUP2 PUSH16 0xFFFFFFFFFFFFFFFFFFFFFFFFFFFFFFFF MUL NOT AND SWAP1 DUP4 PUSH16 0xFFFFFFFFFFFFFFFFFFFFFFFFFFFFFFFF AND MUL OR SWAP1 SSTORE POP POP DUP3 DUP5 PUSH1 0x2 ADD PUSH1 0x0 DUP7 PUSH1 0x0 ADD PUSH1 0x10 SWAP1 SLOAD SWAP1 PUSH2 0x100 EXP SWAP1 DIV PUSH16 0xFFFFFFFFFFFFFFFFFFFFFFFFFFFFFFFF AND PUSH16 0xFFFFFFFFFFFFFFFFFFFFFFFFFFFFFFFF AND PUSH16 0xFFFFFFFFFFFFFFFFFFFFFFFFFFFFFFFF AND DUP2 MSTORE PUSH1 0x20 ADD SWAP1 DUP2 MSTORE PUSH1 0x20 ADD PUSH1 0x0 KECCAK256 DUP2 SWAP1 SSTORE POP DUP2 DUP5 PUSH1 0x3 ADD PUSH1 0x0 DUP6 DUP2 MSTORE PUSH1 0x20 ADD SWAP1 DUP2 MSTORE PUSH1 0x20 ADD PUSH1 0x0 KECCAK256 SWAP1 DUP1 MLOAD SWAP1 PUSH1 0x20 ADD SWAP1 PUSH2 0x1447 SWAP3 SWAP2 SWAP1 PUSH2 0x184C JUMP JUMPDEST POP PUSH1 0x1 DUP5 PUSH1 0x4 ADD PUSH1 0x0 DUP6 DUP2 MSTORE PUSH1 0x20 ADD SWAP1 DUP2 MSTORE PUSH1 0x20 ADD PUSH1 0x0 KECCAK256 PUSH1 0x0 PUSH2 0x100 EXP DUP2 SLOAD DUP2 PUSH1 0xFF MUL NOT AND SWAP1 DUP4 ISZERO ISZERO MUL OR SWAP1 SSTORE POP PUSH1 0x1 SWAP1 POP SWAP4 SWAP3 POP POP POP JUMP JUMPDEST PUSH1 0x0 DUP1 DUP3 PUSH1 0x0 ADD SLOAD EQ ISZERO PUSH2 0x14CA JUMPI PUSH1 0x40 MLOAD PUSH32 0x8C379A000000000000000000000000000000000000000000000000000000000 DUP2 MSTORE PUSH1 0x4 ADD PUSH2 0x14C1 SWAP1 PUSH2 0x2516 JUMP JUMPDEST PUSH1 0x40 MLOAD DUP1 SWAP2 SUB SWAP1 REVERT JUMPDEST DUP2 PUSH1 0x1 ADD PUSH1 0x14 SWAP1 SLOAD SWAP1 PUSH2 0x100 EXP SWAP1 DIV PUSH1 0xFF AND PUSH2 0x151B JUMPI PUSH1 0x40 MLOAD PUSH32 0x8C379A000000000000000000000000000000000000000000000000000000000 DUP2 MSTORE PUSH1 0x4 ADD PUSH2 0x1512 SWAP1 PUSH2 0x2572 JUMP JUMPDEST PUSH1 0x40 MLOAD DUP1 SWAP2 SUB SWAP1 REVERT JUMPDEST PUSH1 0x0 DUP3 PUSH1 0x2 ADD DUP2 SWAP1 SSTORE POP PUSH1 0x1 SWAP1 POP SWAP2 SWAP1 POP JUMP JUMPDEST PUSH2 0x1536 PUSH2 0xE90 JUMP JUMPDEST DUP1 PUSH20 0xFFFFFFFFFFFFFFFFFFFFFFFFFFFFFFFFFFFFFFFF AND PUSH1 0x4 PUSH1 0x0 SWAP1 SLOAD SWAP1 PUSH2 0x100 EXP SWAP1 DIV PUSH20 0xFFFFFFFFFFFFFFFFFFFFFFFFFFFFFFFFFFFFFFFF AND PUSH20 0xFFFFFFFFFFFFFFFFFFFFFFFFFFFFFFFFFFFFFFFF AND EQ PUSH2 0x1590 JUMPI PUSH1 0x0 DUP1 REVERT JUMPDEST PUSH2 0x159A DUP4 DUP4 PUSH2 0x16BA JUMP JUMPDEST POP POP POP JUMP JUMPDEST PUSH1 0x0 PUSH20 0xFFFFFFFFFFFFFFFFFFFFFFFFFFFFFFFFFFFFFFFF AND DUP3 PUSH20 0xFFFFFFFFFFFFFFFFFFFFFFFFFFFFFFFFFFFFFFFF AND EQ ISZERO PUSH2 0x160F JUMPI PUSH1 0x40 MLOAD PUSH32 0x8C379A000000000000000000000000000000000000000000000000000000000 DUP2 MSTORE PUSH1 0x4 ADD PUSH2 0x1606 SWAP1 PUSH2 0x2592 JUMP JUMPDEST PUSH1 0x40 MLOAD DUP1 SWAP2 SUB SWAP1 REVERT JUMPDEST DUP1 PUSH1 0x1 PUSH1 0x0 DUP3 DUP3 SLOAD PUSH2 0x1621 SWAP2 SWAP1 PUSH2 0x28D2 JUMP JUMPDEST SWAP3 POP POP DUP2 SWAP1 SSTORE POP DUP1 PUSH1 0x0 DUP1 DUP5 PUSH20 0xFFFFFFFFFFFFFFFFFFFFFFFFFFFFFFFFFFFFFFFF AND PUSH20 0xFFFFFFFFFFFFFFFFFFFFFFFFFFFFFFFFFFFFFFFF AND DUP2 MSTORE PUSH1 0x20 ADD SWAP1 DUP2 MSTORE PUSH1 0x20 ADD PUSH1 0x0 KECCAK256 PUSH1 0x0 DUP3 DUP3 SLOAD PUSH2 0x1676 SWAP2 SWAP1 PUSH2 0x28D2 JUMP JUMPDEST SWAP3 POP POP DUP2 SWAP1 SSTORE POP PUSH32 0xABF5327BE9F5825C40D58BDA541DD07F09B62DF3376BBD5ECDBAA8BD82A9D492 DUP3 DUP3 PUSH1 0x40 MLOAD PUSH2 0x16AE SWAP3 SWAP2 SWAP1 PUSH2 0x24DA JUMP JUMPDEST PUSH1 0x40 MLOAD DUP1 SWAP2 SUB SWAP1 LOG1 POP POP JUMP JUMPDEST PUSH1 0x0 PUSH20 0xFFFFFFFFFFFFFFFFFFFFFFFFFFFFFFFFFFFFFFFF AND DUP3 PUSH20 0xFFFFFFFFFFFFFFFFFFFFFFFFFFFFFFFFFFFFFFFF AND EQ ISZERO PUSH2 0x172A JUMPI PUSH1 0x40 MLOAD PUSH32 0x8C379A000000000000000000000000000000000000000000000000000000000 DUP2 MSTORE PUSH1 0x4 ADD PUSH2 0x1721 SWAP1 PUSH2 0x24BA JUMP JUMPDEST PUSH1 0x40 MLOAD DUP1 SWAP2 SUB SWAP1 REVERT JUMPDEST PUSH1 0x0 DUP1 PUSH1 0x0 DUP5 PUSH20 0xFFFFFFFFFFFFFFFFFFFFFFFFFFFFFFFFFFFFFFFF AND PUSH20 0xFFFFFFFFFFFFFFFFFFFFFFFFFFFFFFFFFFFFFFFF AND DUP2 MSTORE PUSH1 0x20 ADD SWAP1 DUP2 MSTORE PUSH1 0x20 ADD PUSH1 0x0 KECCAK256 SLOAD SWAP1 POP DUP2 DUP2 LT ISZERO PUSH2 0x17B0 JUMPI PUSH1 0x40 MLOAD PUSH32 0x8C379A000000000000000000000000000000000000000000000000000000000 DUP2 MSTORE PUSH1 0x4 ADD PUSH2 0x17A7 SWAP1 PUSH2 0x239A JUMP JUMPDEST PUSH1 0x40 MLOAD DUP1 SWAP2 SUB SWAP1 REVERT JUMPDEST DUP2 DUP2 SUB PUSH1 0x0 DUP1 DUP6 PUSH20 0xFFFFFFFFFFFFFFFFFFFFFFFFFFFFFFFFFFFFFFFF AND PUSH20 0xFFFFFFFFFFFFFFFFFFFFFFFFFFFFFFFFFFFFFFFF AND DUP2 MSTORE PUSH1 0x20 ADD SWAP1 DUP2 MSTORE PUSH1 0x20 ADD PUSH1 0x0 KECCAK256 DUP2 SWAP1 SSTORE POP DUP2 PUSH1 0x1 PUSH1 0x0 DUP3 DUP3 SLOAD PUSH2 0x1807 SWAP2 SWAP1 PUSH2 0x2928 JUMP JUMPDEST SWAP3 POP POP DUP2 SWAP1 SSTORE POP PUSH32 0xABF5327BE9F5825C40D58BDA541DD07F09B62DF3376BBD5ECDBAA8BD82A9D492 DUP4 DUP4 PUSH1 0x40 MLOAD PUSH2 0x183F SWAP3 SWAP2 SWAP1 PUSH2 0x2536 JUMP JUMPDEST PUSH1 0x40 MLOAD DUP1 SWAP2 SUB SWAP1 LOG1 POP POP POP JUMP JUMPDEST DUP3 DUP1 SLOAD PUSH2 0x1858 SWAP1 PUSH2 0x2A1D JUMP JUMPDEST SWAP1 PUSH1 0x0 MSTORE PUSH1 0x20 PUSH1 0x0 KECCAK256 SWAP1 PUSH1 0x1F ADD PUSH1 0x20 SWAP1 DIV DUP2 ADD SWAP3 DUP3 PUSH2 0x187A JUMPI PUSH1 0x0 DUP6 SSTORE PUSH2 0x18C1 JUMP JUMPDEST DUP3 PUSH1 0x1F LT PUSH2 0x1893 JUMPI DUP1 MLOAD PUSH1 0xFF NOT AND DUP4 DUP1 ADD OR DUP6 SSTORE PUSH2 0x18C1 JUMP JUMPDEST DUP3 DUP1 ADD PUSH1 0x1 ADD DUP6 SSTORE DUP3 ISZERO PUSH2 0x18C1 JUMPI SWAP2 DUP3 ADD JUMPDEST DUP3 DUP2 GT ISZERO PUSH2 0x18C0 JUMPI DUP3 MLOAD DUP3 SSTORE SWAP2 PUSH1 0x20 ADD SWAP2 SWAP1 PUSH1 0x1 ADD SWAP1 PUSH2 0x18A5 JUMP JUMPDEST JUMPDEST POP SWAP1 POP PUSH2 0x18CE SWAP2 SWAP1 PUSH2 0x19E5 JUMP JUMPDEST POP SWAP1 JUMP JUMPDEST DUP3 DUP1 SLOAD PUSH2 0x18DE SWAP1 PUSH2 0x2A1D JUMP JUMPDEST SWAP1 PUSH1 0x0 MSTORE PUSH1 0x20 PUSH1 0x0 KECCAK256 SWAP1 PUSH1 0x1F ADD PUSH1 0x20 SWAP1 DIV DUP2 ADD SWAP3 DUP3 PUSH2 0x1900 JUMPI PUSH1 0x0 DUP6 SSTORE PUSH2 0x1947 JUMP JUMPDEST DUP3 PUSH1 0x1F LT PUSH2 0x1919 JUMPI DUP1 CALLDATALOAD PUSH1 0xFF NOT AND DUP4 DUP1 ADD OR DUP6 SSTORE PUSH2 0x1947 JUMP JUMPDEST DUP3 DUP1 ADD PUSH1 0x1 ADD DUP6 SSTORE DUP3 ISZERO PUSH2 0x1947 JUMPI SWAP2 DUP3 ADD JUMPDEST DUP3 DUP2 GT ISZERO PUSH2 0x1946 JUMPI DUP3 CALLDATALOAD DUP3 SSTORE SWAP2 PUSH1 0x20 ADD SWAP2 SWAP1 PUSH1 0x1 ADD SWAP1 PUSH2 0x192B JUMP JUMPDEST JUMPDEST POP SWAP1 POP PUSH2 0x1954 SWAP2 SWAP1 PUSH2 0x19E5 JUMP JUMPDEST POP SWAP1 JUMP JUMPDEST DUP3 DUP1 SLOAD PUSH2 0x1964 SWAP1 PUSH2 0x2A1D JUMP JUMPDEST SWAP1 PUSH1 0x0 MSTORE PUSH1 0x20 PUSH1 0x0 KECCAK256 SWAP1 PUSH1 0x1F ADD PUSH1 0x20 SWAP1 DIV DUP2 ADD SWAP3 DUP3 PUSH2 0x1986 JUMPI PUSH1 0x0 DUP6 SSTORE PUSH2 0x19D4 JUMP JUMPDEST DUP3 PUSH1 0x1F LT PUSH2 0x1997 JUMPI DUP1 SLOAD DUP6 SSTORE PUSH2 0x19D4 JUMP JUMPDEST DUP3 DUP1 ADD PUSH1 0x1 ADD DUP6 SSTORE DUP3 ISZERO PUSH2 0x19D4 JUMPI PUSH1 0x0 MSTORE PUSH1 0x20 PUSH1 0x0 KECCAK256 SWAP2 PUSH1 0x1F ADD PUSH1 0x20 SWAP1 DIV DUP3 ADD JUMPDEST DUP3 DUP2 GT ISZERO PUSH2 0x19D3 JUMPI DUP3 SLOAD DUP3 SSTORE SWAP2 PUSH1 0x1 ADD SWAP2 SWAP1 PUSH1 0x1 ADD SWAP1 PUSH2 0x19B8 JUMP JUMPDEST JUMPDEST POP SWAP1 POP PUSH2 0x19E1 SWAP2 SWAP1 PUSH2 0x19E5 JUMP JUMPDEST POP SWAP1 JUMP JUMPDEST JUMPDEST DUP1 DUP3 GT ISZERO PUSH2 0x19FE JUMPI PUSH1 0x0 DUP2 PUSH1 0x0 SWAP1 SSTORE POP PUSH1 0x1 ADD PUSH2 0x19E6 JUMP JUMPDEST POP SWAP1 JUMP JUMPDEST PUSH1 0x0 PUSH2 0x1A15 PUSH2 0x1A10 DUP5 PUSH2 0x2764 JUMP JUMPDEST PUSH2 0x273F JUMP JUMPDEST SWAP1 POP DUP1 DUP4 DUP3 MSTORE PUSH1 0x20 DUP3 ADD SWAP1 POP DUP3 DUP6 PUSH1 0x20 DUP7 MUL DUP3 ADD GT ISZERO PUSH2 0x1A38 JUMPI PUSH2 0x1A37 PUSH2 0x2C07 JUMP JUMPDEST JUMPDEST PUSH1 0x0 JUMPDEST DUP6 DUP2 LT ISZERO PUSH2 0x1A68 JUMPI DUP2 PUSH2 0x1A4E DUP9 DUP3 PUSH2 0x1AB4 JUMP JUMPDEST DUP5 MSTORE PUSH1 0x20 DUP5 ADD SWAP4 POP PUSH1 0x20 DUP4 ADD SWAP3 POP POP PUSH1 0x1 DUP2 ADD SWAP1 POP PUSH2 0x1A3B JUMP JUMPDEST POP POP POP SWAP4 SWAP3 POP POP POP JUMP JUMPDEST PUSH1 0x0 PUSH2 0x1A85 PUSH2 0x1A80 DUP5 PUSH2 0x2790 JUMP JUMPDEST PUSH2 0x273F JUMP JUMPDEST SWAP1 POP DUP3 DUP2 MSTORE PUSH1 0x20 DUP2 ADD DUP5 DUP5 DUP5 ADD GT ISZERO PUSH2 0x1AA1 JUMPI PUSH2 0x1AA0 PUSH2 0x2C11 JUMP JUMPDEST JUMPDEST PUSH2 0x1AAC DUP5 DUP3 DUP6 PUSH2 0x29DB JUMP JUMPDEST POP SWAP4 SWAP3 POP POP POP JUMP JUMPDEST PUSH1 0x0 DUP2 CALLDATALOAD SWAP1 POP PUSH2 0x1AC3 DUP2 PUSH2 0x2FF9 JUMP JUMPDEST SWAP3 SWAP2 POP POP JUMP JUMPDEST PUSH1 0x0 DUP3 PUSH1 0x1F DUP4 ADD SLT PUSH2 0x1ADE JUMPI PUSH2 0x1ADD PUSH2 0x2BF3 JUMP JUMPDEST JUMPDEST DUP2 CALLDATALOAD PUSH2 0x1AEE DUP5 DUP3 PUSH1 0x20 DUP7 ADD PUSH2 0x1A02 JUMP JUMPDEST SWAP2 POP POP SWAP3 SWAP2 POP POP JUMP JUMPDEST PUSH1 0x0 DUP1 DUP4 PUSH1 0x1F DUP5 ADD SLT PUSH2 0x1B0D JUMPI PUSH2 0x1B0C PUSH2 0x2BF3 JUMP JUMPDEST JUMPDEST DUP3 CALLDATALOAD SWAP1 POP PUSH8 0xFFFFFFFFFFFFFFFF DUP2 GT ISZERO PUSH2 0x1B2A JUMPI PUSH2 0x1B29 PUSH2 0x2BEE JUMP JUMPDEST JUMPDEST PUSH1 0x20 DUP4 ADD SWAP2 POP DUP4 PUSH1 0x20 DUP3 MUL DUP4 ADD GT ISZERO PUSH2 0x1B46 JUMPI PUSH2 0x1B45 PUSH2 0x2C07 JUMP JUMPDEST JUMPDEST SWAP3 POP SWAP3 SWAP1 POP JUMP JUMPDEST PUSH1 0x0 DUP3 PUSH1 0x1F DUP4 ADD SLT PUSH2 0x1B62 JUMPI PUSH2 0x1B61 PUSH2 0x2BF3 JUMP JUMPDEST JUMPDEST DUP2 CALLDATALOAD PUSH2 0x1B72 DUP5 DUP3 PUSH1 0x20 DUP7 ADD PUSH2 0x1A72 JUMP JUMPDEST SWAP2 POP POP SWAP3 SWAP2 POP POP JUMP JUMPDEST PUSH1 0x0 DUP2 CALLDATALOAD SWAP1 POP PUSH2 0x1B8A DUP2 PUSH2 0x3010 JUMP JUMPDEST SWAP3 SWAP2 POP POP JUMP JUMPDEST PUSH1 0x0 DUP2 CALLDATALOAD SWAP1 POP PUSH2 0x1B9F DUP2 PUSH2 0x3027 JUMP JUMPDEST SWAP3 SWAP2 POP POP JUMP JUMPDEST PUSH1 0x0 PUSH1 0x20 DUP3 DUP5 SUB SLT ISZERO PUSH2 0x1BBB JUMPI PUSH2 0x1BBA PUSH2 0x2C20 JUMP JUMPDEST JUMPDEST PUSH1 0x0 PUSH2 0x1BC9 DUP5 DUP3 DUP6 ADD PUSH2 0x1AB4 JUMP JUMPDEST SWAP2 POP POP SWAP3 SWAP2 POP POP JUMP JUMPDEST PUSH1 0x0 PUSH1 0x20 DUP3 DUP5 SUB SLT ISZERO PUSH2 0x1BE8 JUMPI PUSH2 0x1BE7 PUSH2 0x2C20 JUMP JUMPDEST JUMPDEST PUSH1 0x0 PUSH2 0x1BF6 DUP5 DUP3 DUP6 ADD PUSH2 0x1B7B JUMP JUMPDEST SWAP2 POP POP SWAP3 SWAP2 POP POP JUMP JUMPDEST PUSH1 0x0 DUP1 PUSH1 0x0 DUP1 PUSH1 0x80 DUP6 DUP8 SUB SLT ISZERO PUSH2 0x1C19 JUMPI PUSH2 0x1C18 PUSH2 0x2C20 JUMP JUMPDEST JUMPDEST PUSH1 0x0 PUSH2 0x1C27 DUP8 DUP3 DUP9 ADD PUSH2 0x1B7B JUMP JUMPDEST SWAP5 POP POP PUSH1 0x20 PUSH2 0x1C38 DUP8 DUP3 DUP9 ADD PUSH2 0x1AB4 JUMP JUMPDEST SWAP4 POP POP PUSH1 0x40 DUP6 ADD CALLDATALOAD PUSH8 0xFFFFFFFFFFFFFFFF DUP2 GT ISZERO PUSH2 0x1C59 JUMPI PUSH2 0x1C58 PUSH2 0x2C16 JUMP JUMPDEST JUMPDEST PUSH2 0x1C65 DUP8 DUP3 DUP9 ADD PUSH2 0x1B4D JUMP JUMPDEST SWAP3 POP POP PUSH1 0x60 PUSH2 0x1C76 DUP8 DUP3 DUP9 ADD PUSH2 0x1B7B JUMP JUMPDEST SWAP2 POP POP SWAP3 SWAP6 SWAP2 SWAP5 POP SWAP3 POP JUMP JUMPDEST PUSH1 0x0 DUP1 PUSH1 0x0 DUP1 PUSH1 0x0 DUP1 PUSH1 0x0 DUP1 PUSH1 0x0 PUSH2 0x100 DUP11 DUP13 SUB SLT ISZERO PUSH2 0x1CA5 JUMPI PUSH2 0x1CA4 PUSH2 0x2C20 JUMP JUMPDEST JUMPDEST PUSH1 0x0 PUSH2 0x1CB3 DUP13 DUP3 DUP14 ADD PUSH2 0x1B90 JUMP JUMPDEST SWAP10 POP POP PUSH1 0x20 DUP11 ADD CALLDATALOAD PUSH8 0xFFFFFFFFFFFFFFFF DUP2 GT ISZERO PUSH2 0x1CD4 JUMPI PUSH2 0x1CD3 PUSH2 0x2C16 JUMP JUMPDEST JUMPDEST PUSH2 0x1CE0 DUP13 DUP3 DUP14 ADD PUSH2 0x1AC9 JUMP JUMPDEST SWAP9 POP POP PUSH1 0x40 PUSH2 0x1CF1 DUP13 DUP3 DUP14 ADD PUSH2 0x1AB4 JUMP JUMPDEST SWAP8 POP POP PUSH1 0x60 PUSH2 0x1D02 DUP13 DUP3 DUP14 ADD PUSH2 0x1B7B JUMP JUMPDEST SWAP7 POP POP PUSH1 0x80 PUSH2 0x1D13 DUP13 DUP3 DUP14 ADD PUSH2 0x1B7B JUMP JUMPDEST SWAP6 POP POP PUSH1 0xA0 DUP11 ADD CALLDATALOAD PUSH8 0xFFFFFFFFFFFFFFFF DUP2 GT ISZERO PUSH2 0x1D34 JUMPI PUSH2 0x1D33 PUSH2 0x2C16 JUMP JUMPDEST JUMPDEST PUSH2 0x1D40 DUP13 DUP3 DUP14 ADD PUSH2 0x1B4D JUMP JUMPDEST SWAP5 POP POP PUSH1 0xC0 DUP11 ADD CALLDATALOAD PUSH8 0xFFFFFFFFFFFFFFFF DUP2 GT ISZERO PUSH2 0x1D61 JUMPI PUSH2 0x1D60 PUSH2 0x2C16 JUMP JUMPDEST JUMPDEST PUSH2 0x1D6D DUP13 DUP3 DUP14 ADD PUSH2 0x1AF7 JUMP JUMPDEST SWAP4 POP SWAP4 POP POP PUSH1 0xE0 PUSH2 0x1D80 DUP13 DUP3 DUP14 ADD PUSH2 0x1B7B JUMP JUMPDEST SWAP2 POP POP SWAP3 SWAP6 SWAP9 POP SWAP3 SWAP6 SWAP9 POP SWAP3 SWAP6 SWAP9 JUMP JUMPDEST PUSH1 0x0 PUSH2 0x1D9C DUP4 DUP4 PUSH2 0x1DBE JUMP JUMPDEST PUSH1 0x20 DUP4 ADD SWAP1 POP SWAP3 SWAP2 POP POP JUMP JUMPDEST PUSH1 0x0 PUSH2 0x1DB5 DUP5 DUP5 DUP5 PUSH2 0x1EBF JUMP JUMPDEST SWAP1 POP SWAP4 SWAP3 POP POP POP JUMP JUMPDEST PUSH2 0x1DC7 DUP2 PUSH2 0x295C JUMP JUMPDEST DUP3 MSTORE POP POP JUMP JUMPDEST PUSH2 0x1DD6 DUP2 PUSH2 0x295C JUMP JUMPDEST DUP3 MSTORE POP POP JUMP JUMPDEST PUSH1 0x0 PUSH2 0x1DE7 DUP3 PUSH2 0x27F0 JUMP JUMPDEST PUSH2 0x1DF1 DUP2 DUP6 PUSH2 0x2820 JUMP JUMPDEST SWAP4 POP PUSH2 0x1DFC DUP4 PUSH2 0x27C1 JUMP JUMPDEST DUP1 PUSH1 0x0 JUMPDEST DUP4 DUP2 LT ISZERO PUSH2 0x1E2D JUMPI DUP2 MLOAD PUSH2 0x1E14 DUP9 DUP3 PUSH2 0x1D90 JUMP JUMPDEST SWAP8 POP PUSH2 0x1E1F DUP4 PUSH2 0x2806 JUMP JUMPDEST SWAP3 POP POP PUSH1 0x1 DUP2 ADD SWAP1 POP PUSH2 0x1E00 JUMP JUMPDEST POP DUP6 SWAP4 POP POP POP POP SWAP3 SWAP2 POP POP JUMP JUMPDEST PUSH1 0x0 PUSH2 0x1E46 DUP4 DUP6 PUSH2 0x2831 JUMP JUMPDEST SWAP4 POP DUP4 PUSH1 0x20 DUP5 MUL DUP6 ADD PUSH2 0x1E58 DUP5 PUSH2 0x27D1 JUMP JUMPDEST DUP1 PUSH1 0x0 JUMPDEST DUP8 DUP2 LT ISZERO PUSH2 0x1E9E JUMPI DUP5 DUP5 SUB DUP10 MSTORE PUSH2 0x1E73 DUP3 DUP5 PUSH2 0x286F JUMP JUMPDEST PUSH2 0x1E7E DUP7 DUP3 DUP5 PUSH2 0x1DA8 JUMP JUMPDEST SWAP6 POP PUSH2 0x1E89 DUP5 PUSH2 0x2813 JUMP JUMPDEST SWAP4 POP PUSH1 0x20 DUP12 ADD SWAP11 POP POP POP PUSH1 0x1 DUP2 ADD SWAP1 POP PUSH2 0x1E5C JUMP JUMPDEST POP DUP3 SWAP8 POP DUP8 SWAP5 POP POP POP POP POP SWAP4 SWAP3 POP POP POP JUMP JUMPDEST PUSH2 0x1EB9 DUP2 PUSH2 0x296E JUMP JUMPDEST DUP3 MSTORE POP POP JUMP JUMPDEST PUSH1 0x0 PUSH2 0x1ECB DUP4 DUP6 PUSH2 0x2842 JUMP JUMPDEST SWAP4 POP PUSH2 0x1ED8 DUP4 DUP6 DUP5 PUSH2 0x29DB JUMP JUMPDEST PUSH2 0x1EE1 DUP4 PUSH2 0x2C25 JUMP JUMPDEST DUP5 ADD SWAP1 POP SWAP4 SWAP3 POP POP POP JUMP JUMPDEST PUSH1 0x0 PUSH2 0x1EF8 DUP4 DUP6 PUSH2 0x2864 JUMP JUMPDEST SWAP4 POP PUSH2 0x1F05 DUP4 DUP6 DUP5 PUSH2 0x29DB JUMP JUMPDEST DUP3 DUP5 ADD SWAP1 POP SWAP4 SWAP3 POP POP POP JUMP JUMPDEST PUSH1 0x0 PUSH2 0x1F1C DUP3 PUSH2 0x27FB JUMP JUMPDEST PUSH2 0x1F26 DUP2 DUP6 PUSH2 0x2853 JUMP JUMPDEST SWAP4 POP PUSH2 0x1F36 DUP2 DUP6 PUSH1 0x20 DUP7 ADD PUSH2 0x29EA JUMP JUMPDEST PUSH2 0x1F3F DUP2 PUSH2 0x2C25 JUMP JUMPDEST DUP5 ADD SWAP2 POP POP SWAP3 SWAP2 POP POP JUMP JUMPDEST PUSH1 0x0 PUSH2 0x1F55 DUP3 PUSH2 0x27FB JUMP JUMPDEST PUSH2 0x1F5F DUP2 DUP6 PUSH2 0x2864 JUMP JUMPDEST SWAP4 POP PUSH2 0x1F6F DUP2 DUP6 PUSH1 0x20 DUP7 ADD PUSH2 0x29EA JUMP JUMPDEST DUP1 DUP5 ADD SWAP2 POP POP SWAP3 SWAP2 POP POP JUMP JUMPDEST PUSH1 0x0 DUP2 SLOAD PUSH2 0x1F88 DUP2 PUSH2 0x2A1D JUMP JUMPDEST PUSH2 0x1F92 DUP2 DUP7 PUSH2 0x2864 JUMP JUMPDEST SWAP5 POP PUSH1 0x1 DUP3 AND PUSH1 0x0 DUP2 EQ PUSH2 0x1FAD JUMPI PUSH1 0x1 DUP2 EQ PUSH2 0x1FBE JUMPI PUSH2 0x1FF1 JUMP JUMPDEST PUSH1 0xFF NOT DUP4 AND DUP7 MSTORE DUP2 DUP7 ADD SWAP4 POP PUSH2 0x1FF1 JUMP JUMPDEST PUSH2 0x1FC7 DUP6 PUSH2 0x27DB JUMP JUMPDEST PUSH1 0x0 JUMPDEST DUP4 DUP2 LT ISZERO PUSH2 0x1FE9 JUMPI DUP2 SLOAD DUP2 DUP10 ADD MSTORE PUSH1 0x1 DUP3 ADD SWAP2 POP PUSH1 0x20 DUP2 ADD SWAP1 POP PUSH2 0x1FCA JUMP JUMPDEST DUP4 DUP9 ADD SWAP6 POP POP POP JUMPDEST POP POP POP SWAP3 SWAP2 POP POP JUMP JUMPDEST PUSH1 0x0 PUSH2 0x2007 PUSH1 0x12 DUP4 PUSH2 0x2853 JUMP JUMPDEST SWAP2 POP PUSH2 0x2012 DUP3 PUSH2 0x2C36 JUMP JUMPDEST PUSH1 0x20 DUP3 ADD SWAP1 POP SWAP2 SWAP1 POP JUMP JUMPDEST PUSH1 0x0 PUSH2 0x202A PUSH1 0x2C DUP4 PUSH2 0x2853 JUMP JUMPDEST SWAP2 POP PUSH2 0x2035 DUP3 PUSH2 0x2C5F JUMP JUMPDEST PUSH1 0x40 DUP3 ADD SWAP1 POP SWAP2 SWAP1 POP JUMP JUMPDEST PUSH1 0x0 PUSH2 0x204D PUSH1 0x22 DUP4 PUSH2 0x2853 JUMP JUMPDEST SWAP2 POP PUSH2 0x2058 DUP3 PUSH2 0x2CAE JUMP JUMPDEST PUSH1 0x40 DUP3 ADD SWAP1 POP SWAP2 SWAP1 POP JUMP JUMPDEST PUSH1 0x0 PUSH2 0x2070 PUSH1 0xD DUP4 PUSH2 0x2853 JUMP JUMPDEST SWAP2 POP PUSH2 0x207B DUP3 PUSH2 0x2CFD JUMP JUMPDEST PUSH1 0x20 DUP3 ADD SWAP1 POP SWAP2 SWAP1 POP JUMP JUMPDEST PUSH1 0x0 PUSH2 0x2093 PUSH1 0x1B DUP4 PUSH2 0x2853 JUMP JUMPDEST SWAP2 POP PUSH2 0x209E DUP3 PUSH2 0x2D26 JUMP JUMPDEST PUSH1 0x20 DUP3 ADD SWAP1 POP SWAP2 SWAP1 POP JUMP JUMPDEST PUSH1 0x0 PUSH2 0x20B6 PUSH1 0x23 DUP4 PUSH2 0x2853 JUMP JUMPDEST SWAP2 POP PUSH2 0x20C1 DUP3 PUSH2 0x2D4F JUMP JUMPDEST PUSH1 0x40 DUP3 ADD SWAP1 POP SWAP2 SWAP1 POP JUMP JUMPDEST PUSH1 0x0 PUSH2 0x20D9 PUSH1 0x14 DUP4 PUSH2 0x2853 JUMP JUMPDEST SWAP2 POP PUSH2 0x20E4 DUP3 PUSH2 0x2D9E JUMP JUMPDEST PUSH1 0x20 DUP3 ADD SWAP1 POP SWAP2 SWAP1 POP JUMP JUMPDEST PUSH1 0x0 PUSH2 0x20FC PUSH1 0x23 DUP4 PUSH2 0x2853 JUMP JUMPDEST SWAP2 POP PUSH2 0x2107 DUP3 PUSH2 0x2DC7 JUMP JUMPDEST PUSH1 0x40 DUP3 ADD SWAP1 POP SWAP2 SWAP1 POP JUMP JUMPDEST PUSH1 0x0 PUSH2 0x211F PUSH1 0x12 DUP4 PUSH2 0x2853 JUMP JUMPDEST SWAP2 POP PUSH2 0x212A DUP3 PUSH2 0x2E16 JUMP JUMPDEST PUSH1 0x20 DUP3 ADD SWAP1 POP SWAP2 SWAP1 POP JUMP JUMPDEST PUSH1 0x0 PUSH2 0x2142 PUSH1 0x23 DUP4 PUSH2 0x2853 JUMP JUMPDEST SWAP2 POP PUSH2 0x214D DUP3 PUSH2 0x2E3F JUMP JUMPDEST PUSH1 0x40 DUP3 ADD SWAP1 POP SWAP2 SWAP1 POP JUMP JUMPDEST PUSH1 0x0 PUSH2 0x2165 PUSH1 0x2A DUP4 PUSH2 0x2853 JUMP JUMPDEST SWAP2 POP PUSH2 0x2170 DUP3 PUSH2 0x2E8E JUMP JUMPDEST PUSH1 0x40 DUP3 ADD SWAP1 POP SWAP2 SWAP1 POP JUMP JUMPDEST PUSH1 0x0 PUSH2 0x2188 PUSH1 0x21 DUP4 PUSH2 0x2853 JUMP JUMPDEST SWAP2 POP PUSH2 0x2193 DUP3 PUSH2 0x2EDD JUMP JUMPDEST PUSH1 0x40 DUP3 ADD SWAP1 POP SWAP2 SWAP1 POP JUMP JUMPDEST PUSH1 0x0 PUSH2 0x21AB PUSH1 0x4 DUP4 PUSH2 0x2853 JUMP JUMPDEST SWAP2 POP PUSH2 0x21B6 DUP3 PUSH2 0x2F2C JUMP JUMPDEST PUSH1 0x20 DUP3 ADD SWAP1 POP SWAP2 SWAP1 POP JUMP JUMPDEST PUSH1 0x0 PUSH2 0x21CE PUSH1 0x1D DUP4 PUSH2 0x2853 JUMP JUMPDEST SWAP2 POP PUSH2 0x21D9 DUP3 PUSH2 0x2F55 JUMP JUMPDEST PUSH1 0x20 DUP3 ADD SWAP1 POP SWAP2 SWAP1 POP JUMP JUMPDEST PUSH1 0x0 PUSH2 0x21F1 PUSH1 0x4 DUP4 PUSH2 0x2853 JUMP JUMPDEST SWAP2 POP PUSH2 0x21FC DUP3 PUSH2 0x2F7E JUMP JUMPDEST PUSH1 0x20 DUP3 ADD SWAP1 POP SWAP2 SWAP1 POP JUMP JUMPDEST PUSH1 0x0 PUSH2 0x2214 PUSH1 0x9 DUP4 PUSH2 0x2853 JUMP JUMPDEST SWAP2 POP PUSH2 0x221F DUP3 PUSH2 0x2FA7 JUMP JUMPDEST PUSH1 0x20 DUP3 ADD SWAP1 POP SWAP2 SWAP1 POP JUMP JUMPDEST PUSH1 0x0 PUSH2 0x2237 PUSH1 0x1F DUP4 PUSH2 0x2853 JUMP JUMPDEST SWAP2 POP PUSH2 0x2242 DUP3 PUSH2 0x2FD0 JUMP JUMPDEST PUSH1 0x20 DUP3 ADD SWAP1 POP SWAP2 SWAP1 POP JUMP JUMPDEST PUSH2 0x2256 DUP2 PUSH2 0x297A JUMP JUMPDEST DUP3 MSTORE POP POP JUMP JUMPDEST PUSH2 0x2265 DUP2 PUSH2 0x2996 JUMP JUMPDEST DUP3 MSTORE POP POP JUMP JUMPDEST PUSH2 0x2274 DUP2 PUSH2 0x29C4 JUMP JUMPDEST DUP3 MSTORE POP POP JUMP JUMPDEST PUSH2 0x2283 DUP2 PUSH2 0x29CE JUMP JUMPDEST DUP3 MSTORE POP POP JUMP JUMPDEST PUSH1 0x0 PUSH2 0x2296 DUP3 DUP5 DUP7 PUSH2 0x1EEC JUMP JUMPDEST SWAP2 POP DUP2 SWAP1 POP SWAP4 SWAP3 POP POP POP JUMP JUMPDEST PUSH1 0x0 PUSH2 0x22AE DUP3 DUP5 PUSH2 0x1F4A JUMP JUMPDEST SWAP2 POP DUP2 SWAP1 POP SWAP3 SWAP2 POP POP JUMP JUMPDEST PUSH1 0x0 PUSH2 0x22C5 DUP3 DUP5 PUSH2 0x1F7B JUMP JUMPDEST SWAP2 POP DUP2 SWAP1 POP SWAP3 SWAP2 POP POP JUMP JUMPDEST PUSH1 0x0 PUSH1 0xC0 DUP3 ADD SWAP1 POP PUSH2 0x22E5 PUSH1 0x0 DUP4 ADD DUP10 PUSH2 0x1DCD JUMP JUMPDEST PUSH2 0x22F2 PUSH1 0x20 DUP4 ADD DUP9 PUSH2 0x227A JUMP JUMPDEST DUP2 DUP2 SUB PUSH1 0x40 DUP4 ADD MSTORE PUSH2 0x2304 DUP2 DUP8 PUSH2 0x1F11 JUMP JUMPDEST SWAP1 POP PUSH2 0x2313 PUSH1 0x60 DUP4 ADD DUP7 PUSH2 0x226B JUMP JUMPDEST PUSH2 0x2320 PUSH1 0x80 DUP4 ADD DUP6 PUSH2 0x226B JUMP JUMPDEST PUSH2 0x232D PUSH1 0xA0 DUP4 ADD DUP5 PUSH2 0x225C JUMP JUMPDEST SWAP8 SWAP7 POP POP POP POP POP POP POP JUMP JUMPDEST PUSH1 0x0 PUSH1 0x20 DUP3 ADD SWAP1 POP DUP2 DUP2 SUB PUSH1 0x0 DUP4 ADD MSTORE PUSH2 0x2352 DUP2 DUP5 PUSH2 0x1F11 JUMP JUMPDEST SWAP1 POP SWAP3 SWAP2 POP POP JUMP JUMPDEST PUSH1 0x0 PUSH1 0x20 DUP3 ADD SWAP1 POP DUP2 DUP2 SUB PUSH1 0x0 DUP4 ADD MSTORE PUSH2 0x2373 DUP2 PUSH2 0x1FFA JUMP JUMPDEST SWAP1 POP SWAP2 SWAP1 POP JUMP JUMPDEST PUSH1 0x0 PUSH1 0x20 DUP3 ADD SWAP1 POP DUP2 DUP2 SUB PUSH1 0x0 DUP4 ADD MSTORE PUSH2 0x2393 DUP2 PUSH2 0x201D JUMP JUMPDEST SWAP1 POP SWAP2 SWAP1 POP JUMP JUMPDEST PUSH1 0x0 PUSH1 0x20 DUP3 ADD SWAP1 POP DUP2 DUP2 SUB PUSH1 0x0 DUP4 ADD MSTORE PUSH2 0x23B3 DUP2 PUSH2 0x2040 JUMP JUMPDEST SWAP1 POP SWAP2 SWAP1 POP JUMP JUMPDEST PUSH1 0x0 PUSH1 0x20 DUP3 ADD SWAP1 POP DUP2 DUP2 SUB PUSH1 0x0 DUP4 ADD MSTORE PUSH2 0x23D3 DUP2 PUSH2 0x2063 JUMP JUMPDEST SWAP1 POP SWAP2 SWAP1 POP JUMP JUMPDEST PUSH1 0x0 PUSH1 0x20 DUP3 ADD SWAP1 POP DUP2 DUP2 SUB PUSH1 0x0 DUP4 ADD MSTORE PUSH2 0x23F3 DUP2 PUSH2 0x2086 JUMP JUMPDEST SWAP1 POP SWAP2 SWAP1 POP JUMP JUMPDEST PUSH1 0x0 PUSH1 0x20 DUP3 ADD SWAP1 POP DUP2 DUP2 SUB PUSH1 0x0 DUP4 ADD MSTORE PUSH2 0x2413 DUP2 PUSH2 0x20A9 JUMP JUMPDEST SWAP1 POP SWAP2 SWAP1 POP JUMP JUMPDEST PUSH1 0x0 PUSH1 0x20 DUP3 ADD SWAP1 POP DUP2 DUP2 SUB PUSH1 0x0 DUP4 ADD MSTORE PUSH2 0x2433 DUP2 PUSH2 0x20CC JUMP JUMPDEST SWAP1 POP SWAP2 SWAP1 POP JUMP JUMPDEST PUSH1 0x0 PUSH1 0x20 DUP3 ADD SWAP1 POP DUP2 DUP2 SUB PUSH1 0x0 DUP4 ADD MSTORE PUSH2 0x2453 DUP2 PUSH2 0x20EF JUMP JUMPDEST SWAP1 POP SWAP2 SWAP1 POP JUMP JUMPDEST PUSH1 0x0 PUSH1 0x20 DUP3 ADD SWAP1 POP DUP2 DUP2 SUB PUSH1 0x0 DUP4 ADD MSTORE PUSH2 0x2473 DUP2 PUSH2 0x2112 JUMP JUMPDEST SWAP1 POP SWAP2 SWAP1 POP JUMP JUMPDEST PUSH1 0x0 PUSH1 0x20 DUP3 ADD SWAP1 POP DUP2 DUP2 SUB PUSH1 0x0 DUP4 ADD MSTORE PUSH2 0x2493 DUP2 PUSH2 0x2135 JUMP JUMPDEST SWAP1 POP SWAP2 SWAP1 POP JUMP JUMPDEST PUSH1 0x0 PUSH1 0x20 DUP3 ADD SWAP1 POP DUP2 DUP2 SUB PUSH1 0x0 DUP4 ADD MSTORE PUSH2 0x24B3 DUP2 PUSH2 0x2158 JUMP JUMPDEST SWAP1 POP SWAP2 SWAP1 POP JUMP JUMPDEST PUSH1 0x0 PUSH1 0x20 DUP3 ADD SWAP1 POP DUP2 DUP2 SUB PUSH1 0x0 DUP4 ADD MSTORE PUSH2 0x24D3 DUP2 PUSH2 0x217B JUMP JUMPDEST SWAP1 POP SWAP2 SWAP1 POP JUMP JUMPDEST PUSH1 0x0 PUSH1 0x60 DUP3 ADD SWAP1 POP DUP2 DUP2 SUB PUSH1 0x0 DUP4 ADD MSTORE PUSH2 0x24F3 DUP2 PUSH2 0x219E JUMP JUMPDEST SWAP1 POP PUSH2 0x2502 PUSH1 0x20 DUP4 ADD DUP6 PUSH2 0x1DCD JUMP JUMPDEST PUSH2 0x250F PUSH1 0x40 DUP4 ADD DUP5 PUSH2 0x226B JUMP JUMPDEST SWAP4 SWAP3 POP POP POP JUMP JUMPDEST PUSH1 0x0 PUSH1 0x20 DUP3 ADD SWAP1 POP DUP2 DUP2 SUB PUSH1 0x0 DUP4 ADD MSTORE PUSH2 0x252F DUP2 PUSH2 0x21C1 JUMP JUMPDEST SWAP1 POP SWAP2 SWAP1 POP JUMP JUMPDEST PUSH1 0x0 PUSH1 0x60 DUP3 ADD SWAP1 POP DUP2 DUP2 SUB PUSH1 0x0 DUP4 ADD MSTORE PUSH2 0x254F DUP2 PUSH2 0x21E4 JUMP JUMPDEST SWAP1 POP PUSH2 0x255E PUSH1 0x20 DUP4 ADD DUP6 PUSH2 0x1DCD JUMP JUMPDEST PUSH2 0x256B PUSH1 0x40 DUP4 ADD DUP5 PUSH2 0x226B JUMP JUMPDEST SWAP4 SWAP3 POP POP POP JUMP JUMPDEST PUSH1 0x0 PUSH1 0x20 DUP3 ADD SWAP1 POP DUP2 DUP2 SUB PUSH1 0x0 DUP4 ADD MSTORE PUSH2 0x258B DUP2 PUSH2 0x2207 JUMP JUMPDEST SWAP1 POP SWAP2 SWAP1 POP JUMP JUMPDEST PUSH1 0x0 PUSH1 0x20 DUP3 ADD SWAP1 POP DUP2 DUP2 SUB PUSH1 0x0 DUP4 ADD MSTORE PUSH2 0x25AB DUP2 PUSH2 0x222A JUMP JUMPDEST SWAP1 POP SWAP2 SWAP1 POP JUMP JUMPDEST PUSH1 0x0 PUSH1 0x40 DUP3 ADD SWAP1 POP PUSH2 0x25C7 PUSH1 0x0 DUP4 ADD DUP6 PUSH2 0x224D JUMP JUMPDEST PUSH2 0x25D4 PUSH1 0x20 DUP4 ADD DUP5 PUSH2 0x224D JUMP JUMPDEST SWAP4 SWAP3 POP POP POP JUMP JUMPDEST PUSH1 0x0 PUSH1 0x20 DUP3 ADD SWAP1 POP PUSH2 0x25F0 PUSH1 0x0 DUP4 ADD DUP5 PUSH2 0x226B JUMP JUMPDEST SWAP3 SWAP2 POP POP JUMP JUMPDEST PUSH1 0x0 PUSH1 0x80 DUP3 ADD SWAP1 POP PUSH2 0x260B PUSH1 0x0 DUP4 ADD DUP8 PUSH2 0x226B JUMP JUMPDEST PUSH2 0x2618 PUSH1 0x20 DUP4 ADD DUP7 PUSH2 0x1DCD JUMP JUMPDEST PUSH2 0x2625 PUSH1 0x40 DUP4 ADD DUP6 PUSH2 0x1EB0 JUMP JUMPDEST PUSH2 0x2632 PUSH1 0x60 DUP4 ADD DUP5 PUSH2 0x226B JUMP JUMPDEST SWAP6 SWAP5 POP POP POP POP POP JUMP JUMPDEST PUSH1 0x0 PUSH1 0xE0 DUP3 ADD SWAP1 POP PUSH2 0x2650 PUSH1 0x0 DUP4 ADD DUP12 PUSH2 0x226B JUMP JUMPDEST DUP2 DUP2 SUB PUSH1 0x20 DUP4 ADD MSTORE PUSH2 0x2662 DUP2 DUP11 PUSH2 0x1DDC JUMP JUMPDEST SWAP1 POP PUSH2 0x2671 PUSH1 0x40 DUP4 ADD DUP10 PUSH2 0x1DCD JUMP JUMPDEST PUSH2 0x267E PUSH1 0x60 DUP4 ADD DUP9 PUSH2 0x226B JUMP JUMPDEST PUSH2 0x268B PUSH1 0x80 DUP4 ADD DUP8 PUSH2 0x226B JUMP JUMPDEST DUP2 DUP2 SUB PUSH1 0xA0 DUP4 ADD MSTORE PUSH2 0x269D DUP2 DUP7 PUSH2 0x1F11 JUMP JUMPDEST SWAP1 POP DUP2 DUP2 SUB PUSH1 0xC0 DUP4 ADD MSTORE PUSH2 0x26B2 DUP2 DUP5 DUP7 PUSH2 0x1E3A JUMP JUMPDEST SWAP1 POP SWAP10 SWAP9 POP POP POP POP POP POP POP POP POP JUMP JUMPDEST PUSH1 0x0 PUSH1 0x20 DUP3 ADD SWAP1 POP PUSH2 0x26D6 PUSH1 0x0 DUP4 ADD DUP5 PUSH2 0x227A JUMP JUMPDEST SWAP3 SWAP2 POP POP JUMP JUMPDEST PUSH1 0x0 DUP1 DUP4 CALLDATALOAD PUSH1 0x1 PUSH1 0x20 SUB DUP5 CALLDATASIZE SUB SUB DUP2 SLT PUSH2 0x26F9 JUMPI PUSH2 0x26F8 PUSH2 0x2BFD JUMP JUMPDEST JUMPDEST DUP1 DUP5 ADD SWAP3 POP DUP3 CALLDATALOAD SWAP2 POP PUSH8 0xFFFFFFFFFFFFFFFF DUP3 GT ISZERO PUSH2 0x271B JUMPI PUSH2 0x271A PUSH2 0x2BF8 JUMP JUMPDEST JUMPDEST PUSH1 0x20 DUP4 ADD SWAP3 POP PUSH1 0x1 DUP3 MUL CALLDATASIZE SUB DUP4 SGT ISZERO PUSH2 0x2737 JUMPI PUSH2 0x2736 PUSH2 0x2C0C JUMP JUMPDEST JUMPDEST POP SWAP3 POP SWAP3 SWAP1 POP JUMP JUMPDEST PUSH1 0x0 PUSH2 0x2749 PUSH2 0x275A JUMP JUMPDEST SWAP1 POP PUSH2 0x2755 DUP3 DUP3 PUSH2 0x2A4F JUMP JUMPDEST SWAP2 SWAP1 POP JUMP JUMPDEST PUSH1 0x0 PUSH1 0x40 MLOAD SWAP1 POP SWAP1 JUMP JUMPDEST PUSH1 0x0 PUSH8 0xFFFFFFFFFFFFFFFF DUP3 GT ISZERO PUSH2 0x277F JUMPI PUSH2 0x277E PUSH2 0x2BBA JUMP JUMPDEST JUMPDEST PUSH1 0x20 DUP3 MUL SWAP1 POP PUSH1 0x20 DUP2 ADD SWAP1 POP SWAP2 SWAP1 POP JUMP JUMPDEST PUSH1 0x0 PUSH8 0xFFFFFFFFFFFFFFFF DUP3 GT ISZERO PUSH2 0x27AB JUMPI PUSH2 0x27AA PUSH2 0x2BBA JUMP JUMPDEST JUMPDEST PUSH2 0x27B4 DUP3 PUSH2 0x2C25 JUMP JUMPDEST SWAP1 POP PUSH1 0x20 DUP2 ADD SWAP1 POP SWAP2 SWAP1 POP JUMP JUMPDEST PUSH1 0x0 DUP2 SWAP1 POP PUSH1 0x20 DUP3 ADD SWAP1 POP SWAP2 SWAP1 POP JUMP JUMPDEST PUSH1 0x0 DUP2 SWAP1 POP SWAP2 SWAP1 POP JUMP JUMPDEST PUSH1 0x0 DUP2 SWAP1 POP DUP2 PUSH1 0x0 MSTORE PUSH1 0x20 PUSH1 0x0 KECCAK256 SWAP1 POP SWAP2 SWAP1 POP JUMP JUMPDEST PUSH1 0x0 DUP2 MLOAD SWAP1 POP SWAP2 SWAP1 POP JUMP JUMPDEST PUSH1 0x0 DUP2 MLOAD SWAP1 POP SWAP2 SWAP1 POP JUMP JUMPDEST PUSH1 0x0 PUSH1 0x20 DUP3 ADD SWAP1 POP SWAP2 SWAP1 POP JUMP JUMPDEST PUSH1 0x0 PUSH1 0x20 DUP3 ADD SWAP1 POP SWAP2 SWAP1 POP JUMP JUMPDEST PUSH1 0x0 DUP3 DUP3 MSTORE PUSH1 0x20 DUP3 ADD SWAP1 POP SWAP3 SWAP2 POP POP JUMP JUMPDEST PUSH1 0x0 DUP3 DUP3 MSTORE PUSH1 0x20 DUP3 ADD SWAP1 POP SWAP3 SWAP2 POP POP JUMP JUMPDEST PUSH1 0x0 DUP3 DUP3 MSTORE PUSH1 0x20 DUP3 ADD SWAP1 POP SWAP3 SWAP2 POP POP JUMP JUMPDEST PUSH1 0x0 DUP3 DUP3 MSTORE PUSH1 0x20 DUP3 ADD SWAP1 POP SWAP3 SWAP2 POP POP JUMP JUMPDEST PUSH1 0x0 DUP2 SWAP1 POP SWAP3 SWAP2 POP POP JUMP JUMPDEST PUSH1 0x0 DUP1 DUP4 CALLDATALOAD PUSH1 0x1 PUSH1 0x20 SUB DUP5 CALLDATASIZE SUB SUB DUP2 SLT PUSH2 0x288C JUMPI PUSH2 0x288B PUSH2 0x2C1B JUMP JUMPDEST JUMPDEST DUP4 DUP2 ADD SWAP3 POP DUP3 CALLDATALOAD SWAP2 POP PUSH1 0x20 DUP4 ADD SWAP3 POP PUSH8 0xFFFFFFFFFFFFFFFF DUP3 GT ISZERO PUSH2 0x28B4 JUMPI PUSH2 0x28B3 PUSH2 0x2BE9 JUMP JUMPDEST JUMPDEST PUSH1 0x1 DUP3 MUL CALLDATASIZE SUB DUP5 SGT ISZERO PUSH2 0x28CA JUMPI PUSH2 0x28C9 PUSH2 0x2C02 JUMP JUMPDEST JUMPDEST POP SWAP3 POP SWAP3 SWAP1 POP JUMP JUMPDEST PUSH1 0x0 PUSH2 0x28DD DUP3 PUSH2 0x29C4 JUMP JUMPDEST SWAP2 POP PUSH2 0x28E8 DUP4 PUSH2 0x29C4 JUMP JUMPDEST SWAP3 POP DUP3 PUSH32 0xFFFFFFFFFFFFFFFFFFFFFFFFFFFFFFFFFFFFFFFFFFFFFFFFFFFFFFFFFFFFFFFF SUB DUP3 GT ISZERO PUSH2 0x291D JUMPI PUSH2 0x291C PUSH2 0x2B2D JUMP JUMPDEST JUMPDEST DUP3 DUP3 ADD SWAP1 POP SWAP3 SWAP2 POP POP JUMP JUMPDEST PUSH1 0x0 PUSH2 0x2933 DUP3 PUSH2 0x29C4 JUMP JUMPDEST SWAP2 POP PUSH2 0x293E DUP4 PUSH2 0x29C4 JUMP JUMPDEST SWAP3 POP DUP3 DUP3 LT ISZERO PUSH2 0x2951 JUMPI PUSH2 0x2950 PUSH2 0x2B2D JUMP JUMPDEST JUMPDEST DUP3 DUP3 SUB SWAP1 POP SWAP3 SWAP2 POP POP JUMP JUMPDEST PUSH1 0x0 PUSH2 0x2967 DUP3 PUSH2 0x29A4 JUMP JUMPDEST SWAP1 POP SWAP2 SWAP1 POP JUMP JUMPDEST PUSH1 0x0 DUP2 ISZERO ISZERO SWAP1 POP SWAP2 SWAP1 POP JUMP JUMPDEST PUSH1 0x0 PUSH16 0xFFFFFFFFFFFFFFFFFFFFFFFFFFFFFFFF DUP3 AND SWAP1 POP SWAP2 SWAP1 POP JUMP JUMPDEST PUSH1 0x0 PUSH2 0xFFFF DUP3 AND SWAP1 POP SWAP2 SWAP1 POP JUMP JUMPDEST PUSH1 0x0 PUSH20 0xFFFFFFFFFFFFFFFFFFFFFFFFFFFFFFFFFFFFFFFF DUP3 AND SWAP1 POP SWAP2 SWAP1 POP JUMP JUMPDEST PUSH1 0x0 DUP2 SWAP1 POP SWAP2 SWAP1 POP JUMP JUMPDEST PUSH1 0x0 PUSH1 0xFF DUP3 AND SWAP1 POP SWAP2 SWAP1 POP JUMP JUMPDEST DUP3 DUP2 DUP4 CALLDATACOPY PUSH1 0x0 DUP4 DUP4 ADD MSTORE POP POP POP JUMP JUMPDEST PUSH1 0x0 JUMPDEST DUP4 DUP2 LT ISZERO PUSH2 0x2A08 JUMPI DUP1 DUP3 ADD MLOAD DUP2 DUP5 ADD MSTORE PUSH1 0x20 DUP2 ADD SWAP1 POP PUSH2 0x29ED JUMP JUMPDEST DUP4 DUP2 GT ISZERO PUSH2 0x2A17 JUMPI PUSH1 0x0 DUP5 DUP5 ADD MSTORE JUMPDEST POP POP POP POP JUMP JUMPDEST PUSH1 0x0 PUSH1 0x2 DUP3 DIV SWAP1 POP PUSH1 0x1 DUP3 AND DUP1 PUSH2 0x2A35 JUMPI PUSH1 0x7F DUP3 AND SWAP2 POP JUMPDEST PUSH1 0x20 DUP3 LT DUP2 EQ ISZERO PUSH2 0x2A49 JUMPI PUSH2 0x2A48 PUSH2 0x2B5C JUMP JUMPDEST JUMPDEST POP SWAP2 SWAP1 POP JUMP JUMPDEST PUSH2 0x2A58 DUP3 PUSH2 0x2C25 JUMP JUMPDEST DUP2 ADD DUP2 DUP2 LT PUSH8 0xFFFFFFFFFFFFFFFF DUP3 GT OR ISZERO PUSH2 0x2A77 JUMPI PUSH2 0x2A76 PUSH2 0x2BBA JUMP JUMPDEST JUMPDEST DUP1 PUSH1 0x40 MSTORE POP POP POP JUMP JUMPDEST PUSH1 0x0 PUSH2 0x2A8B DUP3 PUSH2 0x297A JUMP JUMPDEST SWAP2 POP PUSH16 0xFFFFFFFFFFFFFFFFFFFFFFFFFFFFFFFF DUP3 EQ ISZERO PUSH2 0x2AAE JUMPI PUSH2 0x2AAD PUSH2 0x2B2D JUMP JUMPDEST JUMPDEST PUSH1 0x1 DUP3 ADD SWAP1 POP SWAP2 SWAP1 POP JUMP JUMPDEST PUSH1 0x0 PUSH2 0x2AC4 DUP3 PUSH2 0x2996 JUMP JUMPDEST SWAP2 POP PUSH2 0xFFFF DUP3 EQ ISZERO PUSH2 0x2AD9 JUMPI PUSH2 0x2AD8 PUSH2 0x2B2D JUMP JUMPDEST JUMPDEST PUSH1 0x1 DUP3 ADD SWAP1 POP SWAP2 SWAP1 POP JUMP JUMPDEST PUSH1 0x0 PUSH2 0x2AEF DUP3 PUSH2 0x29C4 JUMP JUMPDEST SWAP2 POP PUSH32 0xFFFFFFFFFFFFFFFFFFFFFFFFFFFFFFFFFFFFFFFFFFFFFFFFFFFFFFFFFFFFFFFF DUP3 EQ ISZERO PUSH2 0x2B22 JUMPI PUSH2 0x2B21 PUSH2 0x2B2D JUMP JUMPDEST JUMPDEST PUSH1 0x1 DUP3 ADD SWAP1 POP SWAP2 SWAP1 POP JUMP JUMPDEST PUSH32 0x4E487B7100000000000000000000000000000000000000000000000000000000 PUSH1 0x0 MSTORE PUSH1 0x11 PUSH1 0x4 MSTORE PUSH1 0x24 PUSH1 0x0 REVERT JUMPDEST PUSH32 0x4E487B7100000000000000000000000000000000000000000000000000000000 PUSH1 0x0 MSTORE PUSH1 0x22 PUSH1 0x4 MSTORE PUSH1 0x24 PUSH1 0x0 REVERT JUMPDEST PUSH32 0x4E487B7100000000000000000000000000000000000000000000000000000000 PUSH1 0x0 MSTORE PUSH1 0x32 PUSH1 0x4 MSTORE PUSH1 0x24 PUSH1 0x0 REVERT JUMPDEST PUSH32 0x4E487B7100000000000000000000000000000000000000000000000000000000 PUSH1 0x0 MSTORE PUSH1 0x41 PUSH1 0x4 MSTORE PUSH1 0x24 PUSH1 0x0 REVERT JUMPDEST PUSH1 0x0 DUP1 REVERT JUMPDEST PUSH1 0x0 DUP1 REVERT JUMPDEST PUSH1 0x0 DUP1 REVERT JUMPDEST PUSH1 0x0 DUP1 REVERT JUMPDEST PUSH1 0x0 DUP1 REVERT JUMPDEST PUSH1 0x0 DUP1 REVERT JUMPDEST PUSH1 0x0 DUP1 REVERT JUMPDEST PUSH1 0x0 DUP1 REVERT JUMPDEST PUSH1 0x0 DUP1 REVERT JUMPDEST PUSH1 0x0 DUP1 REVERT JUMPDEST PUSH1 0x0 DUP1 REVERT JUMPDEST PUSH1 0x0 DUP1 REVERT JUMPDEST PUSH1 0x0 PUSH1 0x1F NOT PUSH1 0x1F DUP4 ADD AND SWAP1 POP SWAP2 SWAP1 POP JUMP JUMPDEST PUSH32 0x50726F706F73616C3A20696E6163746976650000000000000000000000000000 PUSH1 0x0 DUP3 ADD MSTORE POP JUMP JUMPDEST PUSH32 0x456E642074696D652073686F756C642062652067726561746572207468616E20 PUSH1 0x0 DUP3 ADD MSTORE PUSH32 0x63757272656E742074696D650000000000000000000000000000000000000000 PUSH1 0x20 DUP3 ADD MSTORE POP JUMP JUMPDEST PUSH32 0x45524332303A206275726E20616D6F756E7420657863656564732062616C616E PUSH1 0x0 DUP3 ADD MSTORE PUSH32 0x6365000000000000000000000000000000000000000000000000000000000000 PUSH1 0x20 DUP3 ADD MSTORE POP JUMP JUMPDEST PUSH32 0x616C726561647920766F74656400000000000000000000000000000000000000 PUSH1 0x0 DUP3 ADD MSTORE POP JUMP JUMPDEST PUSH32 0x50726F706F73616C3A20696E76616C69642063616E6469646174650000000000 PUSH1 0x0 DUP3 ADD MSTORE POP JUMP JUMPDEST PUSH32 0x6E6F7420612076616C696420766F74657220666F7220746869732070726F706F PUSH1 0x0 DUP3 ADD MSTORE PUSH32 0x73616C0000000000000000000000000000000000000000000000000000000000 PUSH1 0x20 DUP3 ADD MSTORE POP JUMP JUMPDEST PUSH32 0x70726F706F73616C206E6F742073746172746564000000000000000000000000 PUSH1 0x0 DUP3 ADD MSTORE POP JUMP JUMPDEST PUSH32 0x4E6F7420612076616C696420766F74657220666F7220746869732070726F706F PUSH1 0x0 DUP3 ADD MSTORE PUSH32 0x73616C0000000000000000000000000000000000000000000000000000000000 PUSH1 0x20 DUP3 ADD MSTORE POP JUMP JUMPDEST PUSH32 0x696E76616C69642070726F706F73616C49640000000000000000000000000000 PUSH1 0x0 DUP3 ADD MSTORE POP JUMP JUMPDEST PUSH32 0x6E6F742073756666696369656E742062616C616E636520746F20636173742076 PUSH1 0x0 DUP3 ADD MSTORE PUSH32 0x6F74650000000000000000000000000000000000000000000000000000000000 PUSH1 0x20 DUP3 ADD MSTORE POP JUMP JUMPDEST PUSH32 0x456E642074696D652073686F756C642062652067726561746572207468616E20 PUSH1 0x0 DUP3 ADD MSTORE PUSH32 0x73746172742074696D6500000000000000000000000000000000000000000000 PUSH1 0x20 DUP3 ADD MSTORE POP JUMP JUMPDEST PUSH32 0x45524332303A206275726E2066726F6D20746865207A65726F20616464726573 PUSH1 0x0 DUP3 ADD MSTORE PUSH32 0x7300000000000000000000000000000000000000000000000000000000000000 PUSH1 0x20 DUP3 ADD MSTORE POP JUMP JUMPDEST PUSH32 0x6D696E7400000000000000000000000000000000000000000000000000000000 PUSH1 0x0 DUP3 ADD MSTORE POP JUMP JUMPDEST PUSH32 0x496E76616C696420766F74657220666F722070726F706F73616C496421000000 PUSH1 0x0 DUP3 ADD MSTORE POP JUMP JUMPDEST PUSH32 0x6275726E00000000000000000000000000000000000000000000000000000000 PUSH1 0x0 DUP3 ADD MSTORE POP JUMP JUMPDEST PUSH32 0x6E6F7420766F7465640000000000000000000000000000000000000000000000 PUSH1 0x0 DUP3 ADD MSTORE POP JUMP JUMPDEST PUSH32 0x45524332303A206D696E7420746F20746865207A65726F206164647265737300 PUSH1 0x0 DUP3 ADD MSTORE POP JUMP JUMPDEST PUSH2 0x3002 DUP2 PUSH2 0x295C JUMP JUMPDEST DUP2 EQ PUSH2 0x300D JUMPI PUSH1 0x0 DUP1 REVERT JUMPDEST POP JUMP JUMPDEST PUSH2 0x3019 DUP2 PUSH2 0x29C4 JUMP JUMPDEST DUP2 EQ PUSH2 0x3024 JUMPI PUSH1 0x0 DUP1 REVERT JUMPDEST POP JUMP JUMPDEST PUSH2 0x3030 DUP2 PUSH2 0x29CE JUMP JUMPDEST DUP2 EQ PUSH2 0x303B JUMPI PUSH1 0x0 DUP1 REVERT JUMPDEST POP JUMP INVALID LOG2 PUSH5 0x6970667358 0x22 SLT KECCAK256 0xFC EXTCODECOPY CREATE2 DUP7 PUSH30 0x50DBC0E1B61DF0690F0D131DBC911FADAAE50D1106FBD5F871EE5764736F PUSH13 0x63430008070033000000000000 "
				},
				"gasEstimates": {
					"creation": {
						"codeDepositCost": "2480800",
						"executionCost": "infinite",
						"totalCost": "infinite"
					},
					"external": {
						"allVoters(address)": "infinite",
						"balanceOf(address)": "2841",
						"createProposal(uint8,address[],address,uint256,uint256,string,string[],uint256)": "infinite",
						"decimals()": "410",
						"name()": "infinite",
						"proposals(uint256)": "infinite",
						"responsePoll(uint256,address,string,uint256)": "infinite",
						"symbol()": "infinite",
						"totalSupply()": "2482",
						"userProposal(address)": "infinite"
					}
				},
				"methodIdentifiers": {
					"allVoters(address)": "c3703048",
					"balanceOf(address)": "70a08231",
					"createProposal(uint8,address[],address,uint256,uint256,string,string[],uint256)": "4de77e48",
					"decimals()": "313ce567",
					"name()": "06fdde03",
					"proposals(uint256)": "013cf08b",
					"responsePoll(uint256,address,string,uint256)": "db5e8038",
					"symbol()": "95d89b41",
					"totalSupply()": "18160ddd",
					"userProposal(address)": "e745d68e"
				}
			},
			"storageLayout": {
				"storage": [
					{
						"astId": 573,
						"contract": "Qvoting.sol:Qvoting",
						"label": "_balances",
						"offset": 0,
						"slot": "0",
						"type": "t_mapping(t_address,t_uint256)"
					},
					{
						"astId": 575,
						"contract": "Qvoting.sol:Qvoting",
						"label": "_totalSupply",
						"offset": 0,
						"slot": "1",
						"type": "t_uint256"
					},
					{
						"astId": 577,
						"contract": "Qvoting.sol:Qvoting",
						"label": "_name",
						"offset": 0,
						"slot": "2",
						"type": "t_string_storage"
					},
					{
						"astId": 579,
						"contract": "Qvoting.sol:Qvoting",
						"label": "_symbol",
						"offset": 0,
						"slot": "3",
						"type": "t_string_storage"
					},
					{
						"astId": 793,
						"contract": "Qvoting.sol:Qvoting",
						"label": "owner",
						"offset": 0,
						"slot": "4",
						"type": "t_address"
					},
					{
						"astId": 878,
						"contract": "Qvoting.sol:Qvoting",
						"label": "proposalId",
						"offset": 0,
						"slot": "5",
						"type": "t_uint256"
					},
					{
						"astId": 883,
						"contract": "Qvoting.sol:Qvoting",
						"label": "userProposal",
						"offset": 0,
						"slot": "6",
						"type": "t_mapping(t_address,t_struct(UserProposal)376_storage)"
					},
					{
						"astId": 888,
						"contract": "Qvoting.sol:Qvoting",
						"label": "proposals",
						"offset": 0,
						"slot": "7",
						"type": "t_mapping(t_uint256,t_struct(proposal)64_storage)"
					},
					{
						"astId": 893,
						"contract": "Qvoting.sol:Qvoting",
						"label": "allVoters",
						"offset": 0,
						"slot": "8",
						"type": "t_mapping(t_address,t_struct(voter)460_storage)"
					},
					{
						"astId": 897,
						"contract": "Qvoting.sol:Qvoting",
						"label": "validProposals",
						"offset": 0,
						"slot": "9",
						"type": "t_mapping(t_uint256,t_bool)"
					}
				],
				"types": {
					"t_address": {
						"encoding": "inplace",
						"label": "address",
						"numberOfBytes": "20"
					},
					"t_bool": {
						"encoding": "inplace",
						"label": "bool",
						"numberOfBytes": "1"
					},
					"t_mapping(t_address,t_bool)": {
						"encoding": "mapping",
						"key": "t_address",
						"label": "mapping(address => bool)",
						"numberOfBytes": "32",
						"value": "t_bool"
					},
					"t_mapping(t_address,t_struct(UserProposal)376_storage)": {
						"encoding": "mapping",
						"key": "t_address",
						"label": "mapping(address => struct UserProposalLibrary.UserProposal)",
						"numberOfBytes": "32",
						"value": "t_struct(UserProposal)376_storage"
					},
					"t_mapping(t_address,t_struct(voter)460_storage)": {
						"encoding": "mapping",
						"key": "t_address",
						"label": "mapping(address => struct voterLibrary.voter)",
						"numberOfBytes": "32",
						"value": "t_struct(voter)460_storage"
					},
					"t_mapping(t_address,t_uint256)": {
						"encoding": "mapping",
						"key": "t_address",
						"label": "mapping(address => uint256)",
						"numberOfBytes": "32",
						"value": "t_uint256"
					},
					"t_mapping(t_string_memory_ptr,t_bool)": {
						"encoding": "mapping",
						"key": "t_string_memory_ptr",
						"label": "mapping(string => bool)",
						"numberOfBytes": "32",
						"value": "t_bool"
					},
					"t_mapping(t_string_memory_ptr,t_uint256)": {
						"encoding": "mapping",
						"key": "t_string_memory_ptr",
						"label": "mapping(string => uint256)",
						"numberOfBytes": "32",
						"value": "t_uint256"
					},
					"t_mapping(t_uint128,t_uint256)": {
						"encoding": "mapping",
						"key": "t_uint128",
						"label": "mapping(uint128 => uint256)",
						"numberOfBytes": "32",
						"value": "t_uint256"
					},
					"t_mapping(t_uint256,t_bool)": {
						"encoding": "mapping",
						"key": "t_uint256",
						"label": "mapping(uint256 => bool)",
						"numberOfBytes": "32",
						"value": "t_bool"
					},
					"t_mapping(t_uint256,t_string_storage)": {
						"encoding": "mapping",
						"key": "t_uint256",
						"label": "mapping(uint256 => string)",
						"numberOfBytes": "32",
						"value": "t_string_storage"
					},
					"t_mapping(t_uint256,t_struct(proposal)64_storage)": {
						"encoding": "mapping",
						"key": "t_uint256",
						"label": "mapping(uint256 => struct proposalLibrary.proposal)",
						"numberOfBytes": "32",
						"value": "t_struct(proposal)64_storage"
					},
					"t_string_memory_ptr": {
						"encoding": "bytes",
						"label": "string",
						"numberOfBytes": "32"
					},
					"t_string_storage": {
						"encoding": "bytes",
						"label": "string",
						"numberOfBytes": "32"
					},
					"t_struct(UserProposal)376_storage": {
						"encoding": "inplace",
						"label": "struct UserProposalLibrary.UserProposal",
						"members": [
							{
								"astId": 357,
								"contract": "Qvoting.sol:Qvoting",
								"label": "proposalCount",
								"offset": 0,
								"slot": "0",
								"type": "t_uint128"
							},
							{
								"astId": 359,
								"contract": "Qvoting.sol:Qvoting",
								"label": "responseCount",
								"offset": 16,
								"slot": "0",
								"type": "t_uint128"
							},
							{
								"astId": 363,
								"contract": "Qvoting.sol:Qvoting",
								"label": "proposalCreated",
								"offset": 0,
								"slot": "1",
								"type": "t_mapping(t_uint128,t_uint256)"
							},
							{
								"astId": 367,
								"contract": "Qvoting.sol:Qvoting",
								"label": "proposalResponsed",
								"offset": 0,
								"slot": "2",
								"type": "t_mapping(t_uint128,t_uint256)"
							},
							{
								"astId": 371,
								"contract": "Qvoting.sol:Qvoting",
								"label": "proposalAnswer",
								"offset": 0,
								"slot": "3",
								"type": "t_mapping(t_uint256,t_string_storage)"
							},
							{
								"astId": 375,
								"contract": "Qvoting.sol:Qvoting",
								"label": "responsedProposal",
								"offset": 0,
								"slot": "4",
								"type": "t_mapping(t_uint256,t_bool)"
							}
						],
						"numberOfBytes": "160"
					},
					"t_struct(proposal)64_storage": {
						"encoding": "inplace",
						"label": "struct proposalLibrary.proposal",
						"members": [
							{
								"astId": 33,
								"contract": "Qvoting.sol:Qvoting",
								"label": "creator",
								"offset": 0,
								"slot": "0",
								"type": "t_address"
							},
							{
								"astId": 35,
								"contract": "Qvoting.sol:Qvoting",
								"label": "status",
								"offset": 20,
								"slot": "0",
								"type": "t_uint8"
							},
							{
								"astId": 37,
								"contract": "Qvoting.sol:Qvoting",
								"label": "disc",
								"offset": 0,
								"slot": "1",
								"type": "t_string_storage"
							},
							{
								"astId": 39,
								"contract": "Qvoting.sol:Qvoting",
								"label": "startTime",
								"offset": 0,
								"slot": "2",
								"type": "t_uint256"
							},
							{
								"astId": 41,
								"contract": "Qvoting.sol:Qvoting",
								"label": "expirationTime",
								"offset": 0,
								"slot": "3",
								"type": "t_uint256"
							},
							{
								"astId": 43,
								"contract": "Qvoting.sol:Qvoting",
								"label": "numOfOptions",
								"offset": 0,
								"slot": "4",
								"type": "t_uint16"
							},
							{
								"astId": 47,
								"contract": "Qvoting.sol:Qvoting",
								"label": "voters",
								"offset": 0,
								"slot": "5",
								"type": "t_mapping(t_address,t_bool)"
							},
							{
								"astId": 51,
								"contract": "Qvoting.sol:Qvoting",
								"label": "cand",
								"offset": 0,
								"slot": "6",
								"type": "t_mapping(t_string_memory_ptr,t_bool)"
							},
							{
								"astId": 55,
								"contract": "Qvoting.sol:Qvoting",
								"label": "candHash",
								"offset": 0,
								"slot": "7",
								"type": "t_mapping(t_uint256,t_string_storage)"
							},
							{
								"astId": 59,
								"contract": "Qvoting.sol:Qvoting",
								"label": "result",
								"offset": 0,
								"slot": "8",
								"type": "t_mapping(t_uint256,t_string_storage)"
							},
							{
								"astId": 63,
								"contract": "Qvoting.sol:Qvoting",
								"label": "votes",
								"offset": 0,
								"slot": "9",
								"type": "t_mapping(t_string_memory_ptr,t_uint256)"
							}
						],
						"numberOfBytes": "320"
					},
					"t_struct(voter)460_storage": {
						"encoding": "inplace",
						"label": "struct voterLibrary.voter",
						"members": [
							{
								"astId": 453,
								"contract": "Qvoting.sol:Qvoting",
								"label": "proposalId",
								"offset": 0,
								"slot": "0",
								"type": "t_uint256"
							},
							{
								"astId": 455,
								"contract": "Qvoting.sol:Qvoting",
								"label": "voterAddress",
								"offset": 0,
								"slot": "1",
								"type": "t_address"
							},
							{
								"astId": 457,
								"contract": "Qvoting.sol:Qvoting",
								"label": "hasVoted",
								"offset": 20,
								"slot": "1",
								"type": "t_bool"
							},
							{
								"astId": 459,
								"contract": "Qvoting.sol:Qvoting",
								"label": "voteNum",
								"offset": 0,
								"slot": "2",
								"type": "t_uint256"
							}
						],
						"numberOfBytes": "96"
					},
					"t_uint128": {
						"encoding": "inplace",
						"label": "uint128",
						"numberOfBytes": "16"
					},
					"t_uint16": {
						"encoding": "inplace",
						"label": "uint16",
						"numberOfBytes": "2"
					},
					"t_uint256": {
						"encoding": "inplace",
						"label": "uint256",
						"numberOfBytes": "32"
					},
					"t_uint8": {
						"encoding": "inplace",
						"label": "uint8",
						"numberOfBytes": "1"
					}
				}
			},
			"userdoc": {
				"kind": "user",
				"methods": {},
				"version": 1
			}
		}
	}
}