{
	"data": {
		"bytecode": {
			"linkReferences": {},
			"object": "60806040523480156200001157600080fd5b506040518060400160405280600c81526020017f51566f74696e67546f6b656e00000000000000000000000000000000000000008152506040518060400160405280600281526020017f5176000000000000000000000000000000000000000000000000000000000000815250816002908051906020019062000096929190620000f9565b508060039080519060200190620000af929190620000f9565b50505033600460006101000a81548173ffffffffffffffffffffffffffffffffffffffff021916908373ffffffffffffffffffffffffffffffffffffffff1602179055506200020e565b8280546200010790620001a9565b90600052602060002090601f0160209004810192826200012b576000855562000177565b82601f106200014657805160ff191683800117855562000177565b8280016001018555821562000177579182015b828111156200017657825182559160200191906001019062000159565b5b5090506200018691906200018a565b5090565b5b80821115620001a55760008160009055506001016200018b565b5090565b60006002820490506001821680620001c257607f821691505b60208210811415620001d957620001d8620001df565b5b50919050565b7f4e487b7100000000000000000000000000000000000000000000000000000000600052602260045260246000fd5b6149f8806200021e6000396000f3fe608060405234801561001057600080fd5b50600436106101165760003560e01c80635c230eee116100a25780638cf49f1b116100715780638cf49f1b1461033457806395d89b41146103645780639d67156414610382578063ab9c70d4146103b3578063e745d68e146103e657610116565b80635c230eee146102885780636a232d1f146102a457806370a08231146102d457806371bfabca1461030457610116565b806318160ddd116100e957806318160ddd146101d0578063313ce567146101ee57806339647bbf1461020c5780634de77e481461023c578063537488ac1461025857610116565b8063013cf08b1461011b57806303af665c1461015257806306fdde031461018257806311de04bd146101a0575b600080fd5b61013560048036038101906101309190612eb2565b610417565b604051610149989796959493929190613881565b60405180910390f35b61016c60048036038101906101679190612fbe565b610522565b604051610179919061394a565b60405180910390f35b61018a61074d565b6040516101979190613965565b60405180910390f35b6101ba60048036038101906101b59190612eb2565b6107df565b6040516101c79190613928565b60405180910390f35b6101d8610978565b6040516101e59190613cc8565b60405180910390f35b6101f6610982565b6040516102039190613dde565b60405180910390f35b61022660048036038101906102219190612eb2565b61098b565b6040516102339190613906565b60405180910390f35b6102566004803603810190610251919061301a565b610b7f565b005b610272600480360381019061026d9190612eb2565b610ea9565b60405161027f9190613cc8565b60405180910390f35b6102a2600480360381019061029d9190612f1f565b610ec9565b005b6102be60048036038101906102b99190612edf565b61131f565b6040516102cb919061394a565b60405180910390f35b6102ee60048036038101906102e99190612e45565b6114cf565b6040516102fb9190613cc8565b60405180910390f35b61031e60048036038101906103199190612eb2565b611517565b60405161032b9190613965565b60405180910390f35b61034e60048036038101906103499190612eb2565b61164d565b60405161035b9190613906565b60405180910390f35b61036c61183e565b6040516103799190613965565b60405180910390f35b61039c60048036038101906103979190612eb2565b6118d0565b6040516103aa929190613dae565b60405180910390f35b6103cd60048036038101906103c89190612e72565b611a4b565b6040516103dd9493929190613ce3565b60405180910390f35b61040060048036038101906103fb9190612e45565b611ab5565b60405161040e929190613c9f565b60405180910390f35b60076020528060005260406000206000915090508060000160009054906101000a900473ffffffffffffffffffffffffffffffffffffffff16908060000160149054906101000a900460ff169080600101805461047390614285565b80601f016020809104026020016040519081016040528092919081815260200182805461049f90614285565b80156104ec5780601f106104c1576101008083540402835291602001916104ec565b820191906000526020600020905b8154815290600101906020018083116104cf57829003601f168201915b5050505050908060020154908060030154908060040160009054906101000a900461ffff16908060050154908060070154905088565b60006007600084815260200190815260200160002060030154421161057c576040517f08c379a0000000000000000000000000000000000000000000000000000000008152600401610573906139e7565b60405180910390fd5b60005b8251811015610742576008600084838151811061059f5761059e6143f3565b5b602002602001015173ffffffffffffffffffffffffffffffffffffffff1673ffffffffffffffffffffffffffffffffffffffff168152602001908152602001600020600085815260200190815260200160002060010160149054906101000a900460ff1615801561067c57508360086000858481518110610623576106226143f3565b5b602002602001015173ffffffffffffffffffffffffffffffffffffffff1673ffffffffffffffffffffffffffffffffffffffff168152602001908152602001600020600086815260200190815260200160002060000154145b15610729576106bb838281518110610697576106966143f3565b5b60200260200101516007600087815260200190815260200160002060050154611b11565b7fabf5327be9f5825c40d58bda541dd07f09b62df3376bbd5ecdbaa8bd82a9d4928382815181106106ef576106ee6143f3565b5b6020026020010151600760008781526020019081526020016000206005015460405161071c929190613c23565b60405180910390a161072e565b61072f565b5b808061073a9061434c565b91505061057f565b506001905092915050565b60606002805461075c90614285565b80601f016020809104026020016040519081016040528092919081815260200182805461078890614285565b80156107d55780601f106107aa576101008083540402835291602001916107d5565b820191906000526020600020905b8154815290600101906020018083116107b857829003601f168201915b5050505050905090565b60606009600083815260200190815260200160002060009054906101000a900460ff16610841576040517f08c379a000000000000000000000000000000000000000000000000000000000815260040161083890613a27565b60405180910390fd5b60006007600084815260200190815260200160002060040160009054906101000a900461ffff16905060008161ffff1667ffffffffffffffff81111561088a57610889614422565b5b6040519080825280602002602001820160405280156108b85781602001602082028036833780820191505090505b50905060005b8261ffff168161ffff16101561096d5760076000868152602001908152602001600020600b0160076000878152602001908152602001600020600901600060018461090991906140a8565b61ffff168152602001908152602001600020604051610928919061386a565b908152602001604051809103902054828261ffff168151811061094e5761094d6143f3565b5b602002602001018181525050808061096590614321565b9150506108be565b508092505050919050565b6000600154905090565b60006012905090565b60606009600083815260200190815260200160002060009054906101000a900460ff166109ed576040517f08c379a00000000000000000000000000000000000000000000000000000000081526004016109e490613a27565b60405180910390fd5b60006007600084815260200190815260200160002060040160009054906101000a900461ffff16905060008161ffff1667ffffffffffffffff811115610a3657610a35614422565b5b604051908082528060200260200182016040528015610a6957816020015b6060815260200190600190039081610a545790505b50905060005b8261ffff168161ffff161015610b7457600760008681526020019081526020016000206009016000600183610aa491906140a8565b61ffff1681526020019081526020016000208054610ac190614285565b80601f0160208091040260200160405190810160405280929190818152602001828054610aed90614285565b8015610b3a5780601f10610b0f57610100808354040283529160200191610b3a565b820191906000526020600020905b815481529060010190602001808311610b1d57829003601f168201915b5050505050828261ffff1681518110610b5657610b556143f3565b5b60200260200101819052508080610b6c90614321565b915050610a6f565b508092505050919050565b854210610bc1576040517f08c379a0000000000000000000000000000000000000000000000000000000008152600401610bb890613a87565b60405180910390fd5b844210610c03576040517f08c379a0000000000000000000000000000000000000000000000000000000008152600401610bfa906139a7565b60405180910390fd5b848610610c45576040517f08c379a0000000000000000000000000000000000000000000000000000000008152600401610c3c90613b47565b60405180910390fd5b60056000815480929190610c589061434c565b9190505550610c94898989898989878a8a600760006005548152602001908152602001600020611b82909998979695949392919063ffffffff16565b507f239a8a71a7d1cb0d134f6cc072ad6390e36a88c8e78dff69013ee79528441e8060055489898989898989604051610cd4989796959493929190613d28565b60405180910390a1600160096000600554815260200190815260200160002060006101000a81548160ff02191690831515021790555060005b8851811015610e4257610d3a898281518110610d2c57610d2b6143f3565b5b602002602001015183611dbe565b610ddb6005548a8381518110610d5357610d526143f3565b5b6020026020010151600085600860008f8881518110610d7557610d746143f3565b5b602002602001015173ffffffffffffffffffffffffffffffffffffffff1673ffffffffffffffffffffffffffffffffffffffff16815260200190815260200160002060006005548152602001908152602001600020611e2f90949392919063ffffffff16565b507fabf5327be9f5825c40d58bda541dd07f09b62df3376bbd5ecdbaa8bd82a9d492898281518110610e1057610e0f6143f3565b5b602002602001015183604051610e27929190613bc7565b60405180910390a18080610e3a9061434c565b915050610d0d565b50610e9d60055460066000610e55611eaf565b73ffffffffffffffffffffffffffffffffffffffff1673ffffffffffffffffffffffffffffffffffffffff168152602001908152602001600020611eb790919063ffffffff16565b50505050505050505050565b600060076000838152602001908152602001600020600701549050919050565b6009600085815260200190815260200160002060009054906101000a900460ff16610f29576040517f08c379a0000000000000000000000000000000000000000000000000000000008152600401610f2090613ac7565b60405180910390fd5b83600860008573ffffffffffffffffffffffffffffffffffffffff1673ffffffffffffffffffffffffffffffffffffffff16815260200190815260200160002060008681526020019081526020016000206000015414610fbe576040517f08c379a0000000000000000000000000000000000000000000000000000000008152600401610fb590613a47565b60405180910390fd5b600860008473ffffffffffffffffffffffffffffffffffffffff1673ffffffffffffffffffffffffffffffffffffffff168152602001908152602001600020600085815260200190815260200160002060010160149054906101000a900460ff161561105f576040517f08c379a000000000000000000000000000000000000000000000000000000000815260040161105690613a07565b60405180910390fd5b81516007600086815260200190815260200160002060040160009054906101000a900461ffff1661ffff16146110ca576040517f08c379a00000000000000000000000000000000000000000000000000000000081526004016110c190613b87565b60405180910390fd5b6000805b8251811015611137578281815181106110ea576110e96143f3565b5b6020026020010151838281518110611105576111046143f3565b5b60200260200101516111179190614136565b8261112291906140e0565b9150808061112f9061434c565b9150506110ce565b5080600860008673ffffffffffffffffffffffffffffffffffffffff1673ffffffffffffffffffffffffffffffffffffffff16815260200190815260200160002060008781526020019081526020016000206002015410156111ce576040517f08c379a00000000000000000000000000000000000000000000000000000000081526004016111c590613ae7565b60405180910390fd5b6111f7848484600760008a8152602001908152602001600020611f88909392919063ffffffff16565b50611252858460066000611209611eaf565b73ffffffffffffffffffffffffffffffffffffffff1673ffffffffffffffffffffffffffffffffffffffff16815260200190815260200160002061220f9092919063ffffffff16565b506112ab600860008673ffffffffffffffffffffffffffffffffffffffff1673ffffffffffffffffffffffffffffffffffffffff168152602001908152602001600020600087815260200190815260200160002061239c565b506001600860008673ffffffffffffffffffffffffffffffffffffffff1673ffffffffffffffffffffffffffffffffffffffff168152602001908152602001600020600087815260200190815260200160002060010160146101000a81548160ff0219169083151502179055505050505050565b6000600860008373ffffffffffffffffffffffffffffffffffffffff1673ffffffffffffffffffffffffffffffffffffffff168152602001908152602001600020600084815260200190815260200160002060010160149054906101000a900460ff166113c1576040517f08c379a00000000000000000000000000000000000000000000000000000000081526004016113b890613ba7565b60405180910390fd5b82600860008473ffffffffffffffffffffffffffffffffffffffff1673ffffffffffffffffffffffffffffffffffffffff16815260200190815260200160002060008581526020019081526020016000206000015414611456576040517f08c379a000000000000000000000000000000000000000000000000000000000815260040161144d90613a47565b60405180910390fd5b611476826007600086815260200190815260200160002060050154611b11565b7fabf5327be9f5825c40d58bda541dd07f09b62df3376bbd5ecdbaa8bd82a9d4928260076000868152602001908152602001600020600501546040516114bd929190613c23565b60405180910390a16001905092915050565b60008060008373ffffffffffffffffffffffffffffffffffffffff1673ffffffffffffffffffffffffffffffffffffffff168152602001908152602001600020549050919050565b60606009600083815260200190815260200160002060009054906101000a900460ff16611579576040517f08c379a000000000000000000000000000000000000000000000000000000000815260040161157090613a27565b60405180910390fd5b6115946007600084815260200190815260200160002061244a565b5060076000838152602001908152602001600020600a0160006001815260200190815260200160002080546115c890614285565b80601f01602080910402602001604051908101604052809291908181526020018280546115f490614285565b80156116415780601f1061161657610100808354040283529160200191611641565b820191906000526020600020905b81548152906001019060200180831161162457829003601f168201915b50505050509050919050565b60606009600083815260200190815260200160002060009054906101000a900460ff166116af576040517f08c379a00000000000000000000000000000000000000000000000000000000081526004016116a690613a27565b60405180910390fd5b6116ca6007600084815260200190815260200160002061244a565b5060006007600084815260200190815260200160002060070154905060008167ffffffffffffffff81111561170257611701614422565b5b60405190808252806020026020018201604052801561173557816020015b60608152602001906001900390816117205790505b5090506000600190505b8281116118335760076000868152602001908152602001600020600a016000828152602001908152602001600020805461177890614285565b80601f01602080910402602001604051908101604052809291908181526020018280546117a490614285565b80156117f15780601f106117c6576101008083540402835291602001916117f1565b820191906000526020600020905b8154815290600101906020018083116117d457829003601f168201915b5050505050826001836118049190614190565b81518110611815576118146143f3565b5b6020026020010181905250808061182b9061434c565b91505061173f565b508092505050919050565b60606003805461184d90614285565b80601f016020809104026020016040519081016040528092919081815260200182805461187990614285565b80156118c65780601f1061189b576101008083540402835291602001916118c6565b820191906000526020600020905b8154815290600101906020018083116118a957829003601f168201915b5050505050905090565b600060606009600084815260200190815260200160002060009054906101000a900460ff16611934576040517f08c379a000000000000000000000000000000000000000000000000000000000815260040161192b90613a27565b60405180910390fd5b60076000848152602001908152602001600020600b0160076000858152602001908152602001600020600a0160006001815260200190815260200160002060405161197f919061386a565b90815260200160405180910390205460076000858152602001908152602001600020600a016000600181526020019081526020016000208080546119c290614285565b80601f01602080910402602001604051908101604052809291908181526020018280546119ee90614285565b8015611a3b5780601f10611a1057610100808354040283529160200191611a3b565b820191906000526020600020905b815481529060010190602001808311611a1e57829003601f168201915b5050505050905091509150915091565b6008602052816000526040600020602052806000526040600020600091509150508060000154908060010160009054906101000a900473ffffffffffffffffffffffffffffffffffffffff16908060010160149054906101000a900460ff16908060020154905084565b60066020528060005260406000206000915090508060000160009054906101000a90046fffffffffffffffffffffffffffffffff16908060000160109054906101000a90046fffffffffffffffffffffffffffffffff16905082565b611b19611eaf565b8073ffffffffffffffffffffffffffffffffffffffff16600460009054906101000a900473ffffffffffffffffffffffffffffffffffffffff1673ffffffffffffffffffffffffffffffffffffffff1614611b7357600080fd5b611b7d83836126e5565b505050565b6000878b60000160006101000a81548173ffffffffffffffffffffffffffffffffffffffff021916908373ffffffffffffffffffffffffffffffffffffffff160217905550898b60000160146101000a81548160ff021916908360ff160217905550848b6001019080519060200190611bfc929190612992565b50868b60020181905550858b60030181905550828290508b60040160006101000a81548161ffff021916908361ffff160217905550838b6005018190555060005b83839050811015611d0d5760018c600801858584818110611c6157611c606143f3565b5b9050602002810190611c739190613df9565b604051611c8192919061383a565b908152602001604051809103902060006101000a81548160ff021916908315150217905550838382818110611cb957611cb86143f3565b5b9050602002810190611ccb9190613df9565b8d6009016000600185611cde91906140e0565b81526020019081526020016000209190611cf9929190612a18565b508080611d059061434c565b915050611c3d565b5060005b8951811015611da15760018c60060160008c8481518110611d3557611d346143f3565b5b602002602001015173ffffffffffffffffffffffffffffffffffffffff1673ffffffffffffffffffffffffffffffffffffffff16815260200190815260200160002060006101000a81548160ff0219169083151502179055508080611d999061434c565b915050611d11565b5060038b60070181905550600190509a9950505050505050505050565b611dc6611eaf565b8073ffffffffffffffffffffffffffffffffffffffff16600460009054906101000a900473ffffffffffffffffffffffffffffffffffffffff1673ffffffffffffffffffffffffffffffffffffffff1614611e2057600080fd5b611e2a8383612877565b505050565b6000848660000181905550838660010160006101000a81548173ffffffffffffffffffffffffffffffffffffffff021916908373ffffffffffffffffffffffffffffffffffffffff160217905550828660010160146101000a81548160ff0219169083151502179055508186600201819055506001905095945050505050565b600033905090565b600082600001600081819054906101000a90046fffffffffffffffffffffffffffffffff1680929190611ee9906142e8565b91906101000a8154816fffffffffffffffffffffffffffffffff02191690836fffffffffffffffffffffffffffffffff16021790555050818360010160008560000160009054906101000a90046fffffffffffffffffffffffffffffffff166fffffffffffffffffffffffffffffffff166fffffffffffffffffffffffffffffffff168152602001908152602001600020819055506001905092915050565b600060028560000160149054906101000a900460ff1660ff1614611fe1576040517f08c379a0000000000000000000000000000000000000000000000000000000008152600401611fd890613987565b60405180910390fd5b8460020154421015612028576040517f08c379a000000000000000000000000000000000000000000000000000000000815260040161201f90613a67565b60405180910390fd5b846003015442111561203d5760009050612207565b8460060160008573ffffffffffffffffffffffffffffffffffffffff1673ffffffffffffffffffffffffffffffffffffffff16815260200190815260200160002060009054906101000a900460ff166120cb576040517f08c379a00000000000000000000000000000000000000000000000000000000081526004016120c290613aa7565b60405180910390fd5b60005b8560040160009054906101000a900461ffff1661ffff168161ffff1610156122015785600801848261ffff168151811061210b5761210a6143f3565b5b60200260200101516040516121209190613853565b908152602001604051809103902060009054906101000a900460ff1661217b576040517f08c379a000000000000000000000000000000000000000000000000000000000815260040161217290613b27565b60405180910390fd5b828161ffff1681518110612192576121916143f3565b5b602002602001015186600b01858361ffff16815181106121b5576121b46143f3565b5b60200260200101516040516121ca9190613853565b908152602001604051809103902060008282546121e791906140e0565b9250508190555080806121f990614321565b9150506120ce565b50600190505b949350505050565b600083600001601081819054906101000a90046fffffffffffffffffffffffffffffffff1680929190612241906142e8565b91906101000a8154816fffffffffffffffffffffffffffffffff02191690836fffffffffffffffffffffffffffffffff16021790555050828460020160008660000160109054906101000a90046fffffffffffffffffffffffffffffffff166fffffffffffffffffffffffffffffffff166fffffffffffffffffffffffffffffffff1681526020019081526020016000208190555060005b82518161ffff16101561236257828161ffff16815181106122fd576122fc6143f3565b5b6020026020010151856003016000868152602001908152602001600020600060018461232991906140a8565b61ffff168152602001908152602001600020908051906020019061234e929190612992565b50808061235a90614321565b9150506122d9565b50600184600401600085815260200190815260200160002060006101000a81548160ff021916908315150217905550600190509392505050565b600080826000015414156123e5576040517f08c379a00000000000000000000000000000000000000000000000000000000081526004016123dc90613c03565b60405180910390fd5b8160010160149054906101000a900460ff1615612437576040517f08c379a000000000000000000000000000000000000000000000000000000000815260040161242e90613c5f565b60405180910390fd5b6000826002018190555060019050919050565b600081600301544211612492576040517f08c379a000000000000000000000000000000000000000000000000000000000815260040161248990613b07565b60405180910390fd5b60038260000160146101000a81548160ff021916908360ff160217905550600082600b01836009016000600181526020019081526020016000206040516124d9919061386a565b90815260200160405180910390205490506000600190508360090160006001815260200190815260200160002084600a0160006001815260200190815260200160002090805461252890614285565b612533929190612a9e565b506000600290505b8460040160009054906101000a900461ffff1661ffff168161ffff16116126d0578285600b018660090160008461ffff168152602001908152602001600020604051612587919061386a565b90815260200160405180910390205411156126275784600b018560090160008361ffff1681526020019081526020016000206040516125c6919061386a565b9081526020016040518091039020549250600191508460090160008261ffff16815260200190815260200160002085600a0160006001815260200190815260200160002090805461261690614285565b612621929190612a9e565b506126bd565b8285600b018660090160008461ffff168152602001908152602001600020604051612652919061386a565b90815260200160405180910390205414156126bc5781806126729061434c565b9250508460090160008261ffff16815260200190815260200160002085600a0160008481526020019081526020016000209080546126af90614285565b6126ba929190612a9e565b505b5b80806126c890614321565b91505061253b565b50808460070181905550600192505050919050565b600073ffffffffffffffffffffffffffffffffffffffff168273ffffffffffffffffffffffffffffffffffffffff161415612755576040517f08c379a000000000000000000000000000000000000000000000000000000000815260040161274c90613b67565b60405180910390fd5b60008060008473ffffffffffffffffffffffffffffffffffffffff1673ffffffffffffffffffffffffffffffffffffffff168152602001908152602001600020549050818110156127db576040517f08c379a00000000000000000000000000000000000000000000000000000000081526004016127d2906139c7565b60405180910390fd5b8181036000808573ffffffffffffffffffffffffffffffffffffffff1673ffffffffffffffffffffffffffffffffffffffff1681526020019081526020016000208190555081600160008282546128329190614190565b925050819055507fabf5327be9f5825c40d58bda541dd07f09b62df3376bbd5ecdbaa8bd82a9d492838360405161286a929190613c23565b60405180910390a1505050565b600073ffffffffffffffffffffffffffffffffffffffff168273ffffffffffffffffffffffffffffffffffffffff1614156128e7576040517f08c379a00000000000000000000000000000000000000000000000000000000081526004016128de90613c7f565b60405180910390fd5b80600160008282546128f991906140e0565b92505081905550806000808473ffffffffffffffffffffffffffffffffffffffff1673ffffffffffffffffffffffffffffffffffffffff168152602001908152602001600020600082825461294e91906140e0565b925050819055507fabf5327be9f5825c40d58bda541dd07f09b62df3376bbd5ecdbaa8bd82a9d4928282604051612986929190613bc7565b60405180910390a15050565b82805461299e90614285565b90600052602060002090601f0160209004810192826129c05760008555612a07565b82601f106129d957805160ff1916838001178555612a07565b82800160010185558215612a07579182015b82811115612a065782518255916020019190600101906129eb565b5b509050612a149190612b2b565b5090565b828054612a2490614285565b90600052602060002090601f016020900481019282612a465760008555612a8d565b82601f10612a5f57803560ff1916838001178555612a8d565b82800160010185558215612a8d579182015b82811115612a8c578235825591602001919060010190612a71565b5b509050612a9a9190612b2b565b5090565b828054612aaa90614285565b90600052602060002090601f016020900481019282612acc5760008555612b1a565b82601f10612add5780548555612b1a565b82800160010185558215612b1a57600052602060002091601f016020900482015b82811115612b19578254825591600101919060010190612afe565b5b509050612b279190612b2b565b5090565b5b80821115612b44576000816000905550600101612b2c565b5090565b6000612b5b612b5684613e81565b613e5c565b90508083825260208201905082856020860282011115612b7e57612b7d61446f565b5b60005b85811015612bae5781612b948882612cf8565b845260208401935060208301925050600181019050612b81565b5050509392505050565b6000612bcb612bc684613ead565b613e5c565b90508083825260208201905082856020860282011115612bee57612bed61446f565b5b60005b85811015612c3c57813567ffffffffffffffff811115612c1457612c1361445b565b5b808601612c218982612ded565b85526020850194506020840193505050600181019050612bf1565b5050509392505050565b6000612c59612c5484613ed9565b613e5c565b90508083825260208201905082856020860282011115612c7c57612c7b61446f565b5b60005b85811015612cac5781612c928882612e1b565b845260208401935060208301925050600181019050612c7f565b5050509392505050565b6000612cc9612cc484613f05565b613e5c565b905082815260208101848484011115612ce557612ce4614479565b5b612cf0848285614243565b509392505050565b600081359050612d078161497d565b92915050565b600082601f830112612d2257612d2161445b565b5b8135612d32848260208601612b48565b91505092915050565b60008083601f840112612d5157612d5061445b565b5b8235905067ffffffffffffffff811115612d6e57612d6d614456565b5b602083019150836020820283011115612d8a57612d8961446f565b5b9250929050565b600082601f830112612da657612da561445b565b5b8135612db6848260208601612bb8565b91505092915050565b600082601f830112612dd457612dd361445b565b5b8135612de4848260208601612c46565b91505092915050565b600082601f830112612e0257612e0161445b565b5b8135612e12848260208601612cb6565b91505092915050565b600081359050612e2a81614994565b92915050565b600081359050612e3f816149ab565b92915050565b600060208284031215612e5b57612e5a614488565b5b6000612e6984828501612cf8565b91505092915050565b60008060408385031215612e8957612e88614488565b5b6000612e9785828601612cf8565b9250506020612ea885828601612e1b565b9150509250929050565b600060208284031215612ec857612ec7614488565b5b6000612ed684828501612e1b565b91505092915050565b60008060408385031215612ef657612ef5614488565b5b6000612f0485828601612e1b565b9250506020612f1585828601612cf8565b9150509250929050565b60008060008060808587031215612f3957612f38614488565b5b6000612f4787828801612e1b565b9450506020612f5887828801612cf8565b935050604085013567ffffffffffffffff811115612f7957612f7861447e565b5b612f8587828801612d91565b925050606085013567ffffffffffffffff811115612fa657612fa561447e565b5b612fb287828801612dbf565b91505092959194509250565b60008060408385031215612fd557612fd4614488565b5b6000612fe385828601612e1b565b925050602083013567ffffffffffffffff8111156130045761300361447e565b5b61301085828601612d0d565b9150509250929050565b60008060008060008060008060006101008a8c03121561303d5761303c614488565b5b600061304b8c828d01612e30565b99505060208a013567ffffffffffffffff81111561306c5761306b61447e565b5b6130788c828d01612d0d565b98505060406130898c828d01612cf8565b975050606061309a8c828d01612e1b565b96505060806130ab8c828d01612e1b565b95505060a08a013567ffffffffffffffff8111156130cc576130cb61447e565b5b6130d88c828d01612ded565b94505060c08a013567ffffffffffffffff8111156130f9576130f861447e565b5b6131058c828d01612d3b565b935093505060e06131188c828d01612e1b565b9150509295985092959850929598565b60006131348383613182565b60208301905092915050565b600061314d848484613356565b90509392505050565b600061316283836133a8565b905092915050565b6000613176838361380d565b60208301905092915050565b61318b816141c4565b82525050565b61319a816141c4565b82525050565b60006131ab82613f85565b6131b58185613fe5565b93506131c083613f36565b8060005b838110156131f15781516131d88882613128565b97506131e383613fb1565b9250506001810190506131c4565b5085935050505092915050565b600061320a8385613ff6565b93508360208402850161321c84613f46565b8060005b878110156132625784840389526132378284614045565b613242868284613140565b955061324d84613fbe565b935060208b019a505050600181019050613220565b50829750879450505050509392505050565b600061327f82613f90565b6132898185613ff6565b93508360208202850161329b85613f50565b8060005b858110156132d757848403895281516132b88582613156565b94506132c383613fcb565b925060208a0199505060018101905061329f565b50829750879550505050505092915050565b60006132f482613f9b565b6132fe8185614007565b935061330983613f60565b8060005b8381101561333a578151613321888261316a565b975061332c83613fd8565b92505060018101905061330d565b5085935050505092915050565b613350816141d6565b82525050565b60006133628385614018565b935061336f838584614243565b6133788361448d565b840190509392505050565b600061338f838561403a565b935061339c838584614243565b82840190509392505050565b60006133b382613fa6565b6133bd8185614018565b93506133cd818560208601614252565b6133d68161448d565b840191505092915050565b60006133ec82613fa6565b6133f68185614029565b9350613406818560208601614252565b61340f8161448d565b840191505092915050565b600061342582613fa6565b61342f818561403a565b935061343f818560208601614252565b80840191505092915050565b6000815461345881614285565b613462818661403a565b9450600182166000811461347d576001811461348e576134c1565b60ff198316865281860193506134c1565b61349785613f70565b60005b838110156134b95781548189015260018201915060208101905061349a565b838801955050505b50505092915050565b60006134d7601283614029565b91506134e28261449e565b602082019050919050565b60006134fa602c83614029565b9150613505826144c7565b604082019050919050565b600061351d602283614029565b915061352882614516565b604082019050919050565b6000613540601d83614029565b915061354b82614565565b602082019050919050565b6000613563600d83614029565b915061356e8261458e565b602082019050919050565b6000613586601483614029565b9150613591826145b7565b602082019050919050565b60006135a9602383614029565b91506135b4826145e0565b604082019050919050565b60006135cc601883614029565b91506135d78261462f565b602082019050919050565b60006135ef601483614029565b91506135fa82614658565b602082019050919050565b6000613612602383614029565b915061361d82614681565b604082019050919050565b6000613635601283614029565b9150613640826146d0565b602082019050919050565b6000613658602383614029565b9150613663826146f9565b604082019050919050565b600061367b601a83614029565b915061368682614748565b602082019050919050565b600061369e601c83614029565b91506136a982614771565b602082019050919050565b60006136c1602a83614029565b91506136cc8261479a565b604082019050919050565b60006136e4602183614029565b91506136ef826147e9565b604082019050919050565b6000613707602483614029565b915061371282614838565b604082019050919050565b600061372a600d83614029565b915061373582614887565b602082019050919050565b600061374d600483614029565b9150613758826148b0565b602082019050919050565b6000613770601d83614029565b915061377b826148d9565b602082019050919050565b6000613793600483614029565b915061379e82614902565b602082019050919050565b60006137b6600983614029565b91506137c18261492b565b602082019050919050565b60006137d9601f83614029565b91506137e482614954565b602082019050919050565b6137f8816141e2565b82525050565b613807816141fe565b82525050565b6138168161422c565b82525050565b6138258161422c565b82525050565b61383481614236565b82525050565b6000613847828486613383565b91508190509392505050565b600061385f828461341a565b915081905092915050565b6000613876828461344b565b915081905092915050565b600061010082019050613897600083018b613191565b6138a4602083018a61382b565b81810360408301526138b681896133e1565b90506138c5606083018861381c565b6138d2608083018761381c565b6138df60a08301866137fe565b6138ec60c083018561381c565b6138f960e083018461381c565b9998505050505050505050565b600060208201905081810360008301526139208184613274565b905092915050565b6000602082019050818103600083015261394281846132e9565b905092915050565b600060208201905061395f6000830184613347565b92915050565b6000602082019050818103600083015261397f81846133e1565b905092915050565b600060208201905081810360008301526139a0816134ca565b9050919050565b600060208201905081810360008301526139c0816134ed565b9050919050565b600060208201905081810360008301526139e081613510565b9050919050565b60006020820190508181036000830152613a0081613533565b9050919050565b60006020820190508181036000830152613a2081613556565b9050919050565b60006020820190508181036000830152613a4081613579565b9050919050565b60006020820190508181036000830152613a608161359c565b9050919050565b60006020820190508181036000830152613a80816135bf565b9050919050565b60006020820190508181036000830152613aa0816135e2565b9050919050565b60006020820190508181036000830152613ac081613605565b9050919050565b60006020820190508181036000830152613ae081613628565b9050919050565b60006020820190508181036000830152613b008161364b565b9050919050565b60006020820190508181036000830152613b208161366e565b9050919050565b60006020820190508181036000830152613b4081613691565b9050919050565b60006020820190508181036000830152613b60816136b4565b9050919050565b60006020820190508181036000830152613b80816136d7565b9050919050565b60006020820190508181036000830152613ba0816136fa565b9050919050565b60006020820190508181036000830152613bc08161371d565b9050919050565b60006060820190508181036000830152613be081613740565b9050613bef6020830185613191565b613bfc604083018461381c565b9392505050565b60006020820190508181036000830152613c1c81613763565b9050919050565b60006060820190508181036000830152613c3c81613786565b9050613c4b6020830185613191565b613c58604083018461381c565b9392505050565b60006020820190508181036000830152613c78816137a9565b9050919050565b60006020820190508181036000830152613c98816137cc565b9050919050565b6000604082019050613cb460008301856137ef565b613cc160208301846137ef565b9392505050565b6000602082019050613cdd600083018461381c565b92915050565b6000608082019050613cf8600083018761381c565b613d056020830186613191565b613d126040830185613347565b613d1f606083018461381c565b95945050505050565b600060e082019050613d3d600083018b61381c565b8181036020830152613d4f818a6131a0565b9050613d5e6040830189613191565b613d6b606083018861381c565b613d78608083018761381c565b81810360a0830152613d8a81866133e1565b905081810360c0830152613d9f8184866131fe565b90509998505050505050505050565b6000604082019050613dc3600083018561381c565b8181036020830152613dd581846133e1565b90509392505050565b6000602082019050613df3600083018461382b565b92915050565b60008083356001602003843603038112613e1657613e15614465565b5b80840192508235915067ffffffffffffffff821115613e3857613e37614460565b5b602083019250600182023603831315613e5457613e53614474565b5b509250929050565b6000613e66613e77565b9050613e7282826142b7565b919050565b6000604051905090565b600067ffffffffffffffff821115613e9c57613e9b614422565b5b602082029050602081019050919050565b600067ffffffffffffffff821115613ec857613ec7614422565b5b602082029050602081019050919050565b600067ffffffffffffffff821115613ef457613ef3614422565b5b602082029050602081019050919050565b600067ffffffffffffffff821115613f2057613f1f614422565b5b613f298261448d565b9050602081019050919050565b6000819050602082019050919050565b6000819050919050565b6000819050602082019050919050565b6000819050602082019050919050565b60008190508160005260206000209050919050565b600081519050919050565b600081519050919050565b600081519050919050565b600081519050919050565b6000602082019050919050565b6000602082019050919050565b6000602082019050919050565b6000602082019050919050565b600082825260208201905092915050565b600082825260208201905092915050565b600082825260208201905092915050565b600082825260208201905092915050565b600082825260208201905092915050565b600081905092915050565b6000808335600160200384360303811261406257614061614483565b5b83810192508235915060208301925067ffffffffffffffff82111561408a57614089614451565b5b6001820236038413156140a05761409f61446a565b5b509250929050565b60006140b3826141fe565b91506140be836141fe565b92508261ffff038211156140d5576140d4614395565b5b828201905092915050565b60006140eb8261422c565b91506140f68361422c565b9250827fffffffffffffffffffffffffffffffffffffffffffffffffffffffffffffffff0382111561412b5761412a614395565b5b828201905092915050565b60006141418261422c565b915061414c8361422c565b9250817fffffffffffffffffffffffffffffffffffffffffffffffffffffffffffffffff048311821515161561418557614184614395565b5b828202905092915050565b600061419b8261422c565b91506141a68361422c565b9250828210156141b9576141b8614395565b5b828203905092915050565b60006141cf8261420c565b9050919050565b60008115159050919050565b60006fffffffffffffffffffffffffffffffff82169050919050565b600061ffff82169050919050565b600073ffffffffffffffffffffffffffffffffffffffff82169050919050565b6000819050919050565b600060ff82169050919050565b82818337600083830152505050565b60005b83811015614270578082015181840152602081019050614255565b8381111561427f576000848401525b50505050565b6000600282049050600182168061429d57607f821691505b602082108114156142b1576142b06143c4565b5b50919050565b6142c08261448d565b810181811067ffffffffffffffff821117156142df576142de614422565b5b80604052505050565b60006142f3826141e2565b91506fffffffffffffffffffffffffffffffff82141561431657614315614395565b5b600182019050919050565b600061432c826141fe565b915061ffff82141561434157614340614395565b5b600182019050919050565b60006143578261422c565b91507fffffffffffffffffffffffffffffffffffffffffffffffffffffffffffffffff82141561438a57614389614395565b5b600182019050919050565b7f4e487b7100000000000000000000000000000000000000000000000000000000600052601160045260246000fd5b7f4e487b7100000000000000000000000000000000000000000000000000000000600052602260045260246000fd5b7f4e487b7100000000000000000000000000000000000000000000000000000000600052603260045260246000fd5b7f4e487b7100000000000000000000000000000000000000000000000000000000600052604160045260246000fd5b600080fd5b600080fd5b600080fd5b600080fd5b600080fd5b600080fd5b600080fd5b600080fd5b600080fd5b600080fd5b600080fd5b600080fd5b6000601f19601f8301169050919050565b7f50726f706f73616c3a20696e6163746976650000000000000000000000000000600082015250565b7f456e642074696d652073686f756c642062652067726561746572207468616e2060008201527f63757272656e742074696d650000000000000000000000000000000000000000602082015250565b7f45524332303a206275726e20616d6f756e7420657863656564732062616c616e60008201527f6365000000000000000000000000000000000000000000000000000000000000602082015250565b7f70726f706f73616c206973206e6f7420636f6d706c6574656420796574000000600082015250565b7f616c726561647920766f74656400000000000000000000000000000000000000600082015250565b7f6e6f7420612076616c69642070726f706f73616c000000000000000000000000600082015250565b7f6e6f7420612076616c696420766f74657220666f7220746869732070726f706f60008201527f73616c0000000000000000000000000000000000000000000000000000000000602082015250565b7f70726f706f73616c206e6f742073746172746564207965740000000000000000600082015250565b7f70726f706f73616c206e6f742073746172746564000000000000000000000000600082015250565b7f4e6f7420612076616c696420766f74657220666f7220746869732070726f706f60008201527f73616c0000000000000000000000000000000000000000000000000000000000602082015250565b7f696e76616c69642070726f706f73616c49640000000000000000000000000000600082015250565b7f6e6f742073756666696369656e742062616c616e636520746f2063617374207660008201527f6f74650000000000000000000000000000000000000000000000000000000000602082015250565b7f50726f706f73616c206861736e277420656e6465642079657421000000000000600082015250565b7f50726f706f73616c3a20696e76616c6964206f7074696f6e4861736800000000600082015250565b7f456e642074696d652073686f756c642062652067726561746572207468616e2060008201527f73746172742074696d6500000000000000000000000000000000000000000000602082015250565b7f45524332303a206275726e2066726f6d20746865207a65726f2061646472657360008201527f7300000000000000000000000000000000000000000000000000000000000000602082015250565b7f6e6f7420612076616c6964206c656e677468206f66206861736820726573706f60008201527f6e73652100000000000000000000000000000000000000000000000000000000602082015250565b7f6e6f7420766f7465642079657400000000000000000000000000000000000000600082015250565b7f6d696e7400000000000000000000000000000000000000000000000000000000600082015250565b7f496e76616c696420766f74657220666f722070726f706f73616c496421000000600082015250565b7f6275726e00000000000000000000000000000000000000000000000000000000600082015250565b7f6e6f7420766f7465640000000000000000000000000000000000000000000000600082015250565b7f45524332303a206d696e7420746f20746865207a65726f206164647265737300600082015250565b614986816141c4565b811461499157600080fd5b50565b61499d8161422c565b81146149a857600080fd5b50565b6149b481614236565b81146149bf57600080fd5b5056fea26469706673582212200865bce078bd400c475327d7cadd3843491b65f55673d421922ce275a218157664736f6c63430008070033",
			"opcodes": "PUSH1 0x80 PUSH1 0x40 MSTORE CALLVALUE DUP1 ISZERO PUSH3 0x11 JUMPI PUSH1 0x0 DUP1 REVERT JUMPDEST POP PUSH1 0x40 MLOAD DUP1 PUSH1 0x40 ADD PUSH1 0x40 MSTORE DUP1 PUSH1 0xC DUP2 MSTORE PUSH1 0x20 ADD PUSH32 0x51566F74696E67546F6B656E0000000000000000000000000000000000000000 DUP2 MSTORE POP PUSH1 0x40 MLOAD DUP1 PUSH1 0x40 ADD PUSH1 0x40 MSTORE DUP1 PUSH1 0x2 DUP2 MSTORE PUSH1 0x20 ADD PUSH32 0x5176000000000000000000000000000000000000000000000000000000000000 DUP2 MSTORE POP DUP2 PUSH1 0x2 SWAP1 DUP1 MLOAD SWAP1 PUSH1 0x20 ADD SWAP1 PUSH3 0x96 SWAP3 SWAP2 SWAP1 PUSH3 0xF9 JUMP JUMPDEST POP DUP1 PUSH1 0x3 SWAP1 DUP1 MLOAD SWAP1 PUSH1 0x20 ADD SWAP1 PUSH3 0xAF SWAP3 SWAP2 SWAP1 PUSH3 0xF9 JUMP JUMPDEST POP POP POP CALLER PUSH1 0x4 PUSH1 0x0 PUSH2 0x100 EXP DUP2 SLOAD DUP2 PUSH20 0xFFFFFFFFFFFFFFFFFFFFFFFFFFFFFFFFFFFFFFFF MUL NOT AND SWAP1 DUP4 PUSH20 0xFFFFFFFFFFFFFFFFFFFFFFFFFFFFFFFFFFFFFFFF AND MUL OR SWAP1 SSTORE POP PUSH3 0x20E JUMP JUMPDEST DUP3 DUP1 SLOAD PUSH3 0x107 SWAP1 PUSH3 0x1A9 JUMP JUMPDEST SWAP1 PUSH1 0x0 MSTORE PUSH1 0x20 PUSH1 0x0 KECCAK256 SWAP1 PUSH1 0x1F ADD PUSH1 0x20 SWAP1 DIV DUP2 ADD SWAP3 DUP3 PUSH3 0x12B JUMPI PUSH1 0x0 DUP6 SSTORE PUSH3 0x177 JUMP JUMPDEST DUP3 PUSH1 0x1F LT PUSH3 0x146 JUMPI DUP1 MLOAD PUSH1 0xFF NOT AND DUP4 DUP1 ADD OR DUP6 SSTORE PUSH3 0x177 JUMP JUMPDEST DUP3 DUP1 ADD PUSH1 0x1 ADD DUP6 SSTORE DUP3 ISZERO PUSH3 0x177 JUMPI SWAP2 DUP3 ADD JUMPDEST DUP3 DUP2 GT ISZERO PUSH3 0x176 JUMPI DUP3 MLOAD DUP3 SSTORE SWAP2 PUSH1 0x20 ADD SWAP2 SWAP1 PUSH1 0x1 ADD SWAP1 PUSH3 0x159 JUMP JUMPDEST JUMPDEST POP SWAP1 POP PUSH3 0x186 SWAP2 SWAP1 PUSH3 0x18A JUMP JUMPDEST POP SWAP1 JUMP JUMPDEST JUMPDEST DUP1 DUP3 GT ISZERO PUSH3 0x1A5 JUMPI PUSH1 0x0 DUP2 PUSH1 0x0 SWAP1 SSTORE POP PUSH1 0x1 ADD PUSH3 0x18B JUMP JUMPDEST POP SWAP1 JUMP JUMPDEST PUSH1 0x0 PUSH1 0x2 DUP3 DIV SWAP1 POP PUSH1 0x1 DUP3 AND DUP1 PUSH3 0x1C2 JUMPI PUSH1 0x7F DUP3 AND SWAP2 POP JUMPDEST PUSH1 0x20 DUP3 LT DUP2 EQ ISZERO PUSH3 0x1D9 JUMPI PUSH3 0x1D8 PUSH3 0x1DF JUMP JUMPDEST JUMPDEST POP SWAP2 SWAP1 POP JUMP JUMPDEST PUSH32 0x4E487B7100000000000000000000000000000000000000000000000000000000 PUSH1 0x0 MSTORE PUSH1 0x22 PUSH1 0x4 MSTORE PUSH1 0x24 PUSH1 0x0 REVERT JUMPDEST PUSH2 0x49F8 DUP1 PUSH3 0x21E PUSH1 0x0 CODECOPY PUSH1 0x0 RETURN INVALID PUSH1 0x80 PUSH1 0x40 MSTORE CALLVALUE DUP1 ISZERO PUSH2 0x10 JUMPI PUSH1 0x0 DUP1 REVERT JUMPDEST POP PUSH1 0x4 CALLDATASIZE LT PUSH2 0x116 JUMPI PUSH1 0x0 CALLDATALOAD PUSH1 0xE0 SHR DUP1 PUSH4 0x5C230EEE GT PUSH2 0xA2 JUMPI DUP1 PUSH4 0x8CF49F1B GT PUSH2 0x71 JUMPI DUP1 PUSH4 0x8CF49F1B EQ PUSH2 0x334 JUMPI DUP1 PUSH4 0x95D89B41 EQ PUSH2 0x364 JUMPI DUP1 PUSH4 0x9D671564 EQ PUSH2 0x382 JUMPI DUP1 PUSH4 0xAB9C70D4 EQ PUSH2 0x3B3 JUMPI DUP1 PUSH4 0xE745D68E EQ PUSH2 0x3E6 JUMPI PUSH2 0x116 JUMP JUMPDEST DUP1 PUSH4 0x5C230EEE EQ PUSH2 0x288 JUMPI DUP1 PUSH4 0x6A232D1F EQ PUSH2 0x2A4 JUMPI DUP1 PUSH4 0x70A08231 EQ PUSH2 0x2D4 JUMPI DUP1 PUSH4 0x71BFABCA EQ PUSH2 0x304 JUMPI PUSH2 0x116 JUMP JUMPDEST DUP1 PUSH4 0x18160DDD GT PUSH2 0xE9 JUMPI DUP1 PUSH4 0x18160DDD EQ PUSH2 0x1D0 JUMPI DUP1 PUSH4 0x313CE567 EQ PUSH2 0x1EE JUMPI DUP1 PUSH4 0x39647BBF EQ PUSH2 0x20C JUMPI DUP1 PUSH4 0x4DE77E48 EQ PUSH2 0x23C JUMPI DUP1 PUSH4 0x537488AC EQ PUSH2 0x258 JUMPI PUSH2 0x116 JUMP JUMPDEST DUP1 PUSH4 0x13CF08B EQ PUSH2 0x11B JUMPI DUP1 PUSH4 0x3AF665C EQ PUSH2 0x152 JUMPI DUP1 PUSH4 0x6FDDE03 EQ PUSH2 0x182 JUMPI DUP1 PUSH4 0x11DE04BD EQ PUSH2 0x1A0 JUMPI JUMPDEST PUSH1 0x0 DUP1 REVERT JUMPDEST PUSH2 0x135 PUSH1 0x4 DUP1 CALLDATASIZE SUB DUP2 ADD SWAP1 PUSH2 0x130 SWAP2 SWAP1 PUSH2 0x2EB2 JUMP JUMPDEST PUSH2 0x417 JUMP JUMPDEST PUSH1 0x40 MLOAD PUSH2 0x149 SWAP9 SWAP8 SWAP7 SWAP6 SWAP5 SWAP4 SWAP3 SWAP2 SWAP1 PUSH2 0x3881 JUMP JUMPDEST PUSH1 0x40 MLOAD DUP1 SWAP2 SUB SWAP1 RETURN JUMPDEST PUSH2 0x16C PUSH1 0x4 DUP1 CALLDATASIZE SUB DUP2 ADD SWAP1 PUSH2 0x167 SWAP2 SWAP1 PUSH2 0x2FBE JUMP JUMPDEST PUSH2 0x522 JUMP JUMPDEST PUSH1 0x40 MLOAD PUSH2 0x179 SWAP2 SWAP1 PUSH2 0x394A JUMP JUMPDEST PUSH1 0x40 MLOAD DUP1 SWAP2 SUB SWAP1 RETURN JUMPDEST PUSH2 0x18A PUSH2 0x74D JUMP JUMPDEST PUSH1 0x40 MLOAD PUSH2 0x197 SWAP2 SWAP1 PUSH2 0x3965 JUMP JUMPDEST PUSH1 0x40 MLOAD DUP1 SWAP2 SUB SWAP1 RETURN JUMPDEST PUSH2 0x1BA PUSH1 0x4 DUP1 CALLDATASIZE SUB DUP2 ADD SWAP1 PUSH2 0x1B5 SWAP2 SWAP1 PUSH2 0x2EB2 JUMP JUMPDEST PUSH2 0x7DF JUMP JUMPDEST PUSH1 0x40 MLOAD PUSH2 0x1C7 SWAP2 SWAP1 PUSH2 0x3928 JUMP JUMPDEST PUSH1 0x40 MLOAD DUP1 SWAP2 SUB SWAP1 RETURN JUMPDEST PUSH2 0x1D8 PUSH2 0x978 JUMP JUMPDEST PUSH1 0x40 MLOAD PUSH2 0x1E5 SWAP2 SWAP1 PUSH2 0x3CC8 JUMP JUMPDEST PUSH1 0x40 MLOAD DUP1 SWAP2 SUB SWAP1 RETURN JUMPDEST PUSH2 0x1F6 PUSH2 0x982 JUMP JUMPDEST PUSH1 0x40 MLOAD PUSH2 0x203 SWAP2 SWAP1 PUSH2 0x3DDE JUMP JUMPDEST PUSH1 0x40 MLOAD DUP1 SWAP2 SUB SWAP1 RETURN JUMPDEST PUSH2 0x226 PUSH1 0x4 DUP1 CALLDATASIZE SUB DUP2 ADD SWAP1 PUSH2 0x221 SWAP2 SWAP1 PUSH2 0x2EB2 JUMP JUMPDEST PUSH2 0x98B JUMP JUMPDEST PUSH1 0x40 MLOAD PUSH2 0x233 SWAP2 SWAP1 PUSH2 0x3906 JUMP JUMPDEST PUSH1 0x40 MLOAD DUP1 SWAP2 SUB SWAP1 RETURN JUMPDEST PUSH2 0x256 PUSH1 0x4 DUP1 CALLDATASIZE SUB DUP2 ADD SWAP1 PUSH2 0x251 SWAP2 SWAP1 PUSH2 0x301A JUMP JUMPDEST PUSH2 0xB7F JUMP JUMPDEST STOP JUMPDEST PUSH2 0x272 PUSH1 0x4 DUP1 CALLDATASIZE SUB DUP2 ADD SWAP1 PUSH2 0x26D SWAP2 SWAP1 PUSH2 0x2EB2 JUMP JUMPDEST PUSH2 0xEA9 JUMP JUMPDEST PUSH1 0x40 MLOAD PUSH2 0x27F SWAP2 SWAP1 PUSH2 0x3CC8 JUMP JUMPDEST PUSH1 0x40 MLOAD DUP1 SWAP2 SUB SWAP1 RETURN JUMPDEST PUSH2 0x2A2 PUSH1 0x4 DUP1 CALLDATASIZE SUB DUP2 ADD SWAP1 PUSH2 0x29D SWAP2 SWAP1 PUSH2 0x2F1F JUMP JUMPDEST PUSH2 0xEC9 JUMP JUMPDEST STOP JUMPDEST PUSH2 0x2BE PUSH1 0x4 DUP1 CALLDATASIZE SUB DUP2 ADD SWAP1 PUSH2 0x2B9 SWAP2 SWAP1 PUSH2 0x2EDF JUMP JUMPDEST PUSH2 0x131F JUMP JUMPDEST PUSH1 0x40 MLOAD PUSH2 0x2CB SWAP2 SWAP1 PUSH2 0x394A JUMP JUMPDEST PUSH1 0x40 MLOAD DUP1 SWAP2 SUB SWAP1 RETURN JUMPDEST PUSH2 0x2EE PUSH1 0x4 DUP1 CALLDATASIZE SUB DUP2 ADD SWAP1 PUSH2 0x2E9 SWAP2 SWAP1 PUSH2 0x2E45 JUMP JUMPDEST PUSH2 0x14CF JUMP JUMPDEST PUSH1 0x40 MLOAD PUSH2 0x2FB SWAP2 SWAP1 PUSH2 0x3CC8 JUMP JUMPDEST PUSH1 0x40 MLOAD DUP1 SWAP2 SUB SWAP1 RETURN JUMPDEST PUSH2 0x31E PUSH1 0x4 DUP1 CALLDATASIZE SUB DUP2 ADD SWAP1 PUSH2 0x319 SWAP2 SWAP1 PUSH2 0x2EB2 JUMP JUMPDEST PUSH2 0x1517 JUMP JUMPDEST PUSH1 0x40 MLOAD PUSH2 0x32B SWAP2 SWAP1 PUSH2 0x3965 JUMP JUMPDEST PUSH1 0x40 MLOAD DUP1 SWAP2 SUB SWAP1 RETURN JUMPDEST PUSH2 0x34E PUSH1 0x4 DUP1 CALLDATASIZE SUB DUP2 ADD SWAP1 PUSH2 0x349 SWAP2 SWAP1 PUSH2 0x2EB2 JUMP JUMPDEST PUSH2 0x164D JUMP JUMPDEST PUSH1 0x40 MLOAD PUSH2 0x35B SWAP2 SWAP1 PUSH2 0x3906 JUMP JUMPDEST PUSH1 0x40 MLOAD DUP1 SWAP2 SUB SWAP1 RETURN JUMPDEST PUSH2 0x36C PUSH2 0x183E JUMP JUMPDEST PUSH1 0x40 MLOAD PUSH2 0x379 SWAP2 SWAP1 PUSH2 0x3965 JUMP JUMPDEST PUSH1 0x40 MLOAD DUP1 SWAP2 SUB SWAP1 RETURN JUMPDEST PUSH2 0x39C PUSH1 0x4 DUP1 CALLDATASIZE SUB DUP2 ADD SWAP1 PUSH2 0x397 SWAP2 SWAP1 PUSH2 0x2EB2 JUMP JUMPDEST PUSH2 0x18D0 JUMP JUMPDEST PUSH1 0x40 MLOAD PUSH2 0x3AA SWAP3 SWAP2 SWAP1 PUSH2 0x3DAE JUMP JUMPDEST PUSH1 0x40 MLOAD DUP1 SWAP2 SUB SWAP1 RETURN JUMPDEST PUSH2 0x3CD PUSH1 0x4 DUP1 CALLDATASIZE SUB DUP2 ADD SWAP1 PUSH2 0x3C8 SWAP2 SWAP1 PUSH2 0x2E72 JUMP JUMPDEST PUSH2 0x1A4B JUMP JUMPDEST PUSH1 0x40 MLOAD PUSH2 0x3DD SWAP5 SWAP4 SWAP3 SWAP2 SWAP1 PUSH2 0x3CE3 JUMP JUMPDEST PUSH1 0x40 MLOAD DUP1 SWAP2 SUB SWAP1 RETURN JUMPDEST PUSH2 0x400 PUSH1 0x4 DUP1 CALLDATASIZE SUB DUP2 ADD SWAP1 PUSH2 0x3FB SWAP2 SWAP1 PUSH2 0x2E45 JUMP JUMPDEST PUSH2 0x1AB5 JUMP JUMPDEST PUSH1 0x40 MLOAD PUSH2 0x40E SWAP3 SWAP2 SWAP1 PUSH2 0x3C9F JUMP JUMPDEST PUSH1 0x40 MLOAD DUP1 SWAP2 SUB SWAP1 RETURN JUMPDEST PUSH1 0x7 PUSH1 0x20 MSTORE DUP1 PUSH1 0x0 MSTORE PUSH1 0x40 PUSH1 0x0 KECCAK256 PUSH1 0x0 SWAP2 POP SWAP1 POP DUP1 PUSH1 0x0 ADD PUSH1 0x0 SWAP1 SLOAD SWAP1 PUSH2 0x100 EXP SWAP1 DIV PUSH20 0xFFFFFFFFFFFFFFFFFFFFFFFFFFFFFFFFFFFFFFFF AND SWAP1 DUP1 PUSH1 0x0 ADD PUSH1 0x14 SWAP1 SLOAD SWAP1 PUSH2 0x100 EXP SWAP1 DIV PUSH1 0xFF AND SWAP1 DUP1 PUSH1 0x1 ADD DUP1 SLOAD PUSH2 0x473 SWAP1 PUSH2 0x4285 JUMP JUMPDEST DUP1 PUSH1 0x1F ADD PUSH1 0x20 DUP1 SWAP2 DIV MUL PUSH1 0x20 ADD PUSH1 0x40 MLOAD SWAP1 DUP2 ADD PUSH1 0x40 MSTORE DUP1 SWAP3 SWAP2 SWAP1 DUP2 DUP2 MSTORE PUSH1 0x20 ADD DUP3 DUP1 SLOAD PUSH2 0x49F SWAP1 PUSH2 0x4285 JUMP JUMPDEST DUP1 ISZERO PUSH2 0x4EC JUMPI DUP1 PUSH1 0x1F LT PUSH2 0x4C1 JUMPI PUSH2 0x100 DUP1 DUP4 SLOAD DIV MUL DUP4 MSTORE SWAP2 PUSH1 0x20 ADD SWAP2 PUSH2 0x4EC JUMP JUMPDEST DUP3 ADD SWAP2 SWAP1 PUSH1 0x0 MSTORE PUSH1 0x20 PUSH1 0x0 KECCAK256 SWAP1 JUMPDEST DUP2 SLOAD DUP2 MSTORE SWAP1 PUSH1 0x1 ADD SWAP1 PUSH1 0x20 ADD DUP1 DUP4 GT PUSH2 0x4CF JUMPI DUP3 SWAP1 SUB PUSH1 0x1F AND DUP3 ADD SWAP2 JUMPDEST POP POP POP POP POP SWAP1 DUP1 PUSH1 0x2 ADD SLOAD SWAP1 DUP1 PUSH1 0x3 ADD SLOAD SWAP1 DUP1 PUSH1 0x4 ADD PUSH1 0x0 SWAP1 SLOAD SWAP1 PUSH2 0x100 EXP SWAP1 DIV PUSH2 0xFFFF AND SWAP1 DUP1 PUSH1 0x5 ADD SLOAD SWAP1 DUP1 PUSH1 0x7 ADD SLOAD SWAP1 POP DUP9 JUMP JUMPDEST PUSH1 0x0 PUSH1 0x7 PUSH1 0x0 DUP5 DUP2 MSTORE PUSH1 0x20 ADD SWAP1 DUP2 MSTORE PUSH1 0x20 ADD PUSH1 0x0 KECCAK256 PUSH1 0x3 ADD SLOAD TIMESTAMP GT PUSH2 0x57C JUMPI PUSH1 0x40 MLOAD PUSH32 0x8C379A000000000000000000000000000000000000000000000000000000000 DUP2 MSTORE PUSH1 0x4 ADD PUSH2 0x573 SWAP1 PUSH2 0x39E7 JUMP JUMPDEST PUSH1 0x40 MLOAD DUP1 SWAP2 SUB SWAP1 REVERT JUMPDEST PUSH1 0x0 JUMPDEST DUP3 MLOAD DUP2 LT ISZERO PUSH2 0x742 JUMPI PUSH1 0x8 PUSH1 0x0 DUP5 DUP4 DUP2 MLOAD DUP2 LT PUSH2 0x59F JUMPI PUSH2 0x59E PUSH2 0x43F3 JUMP JUMPDEST JUMPDEST PUSH1 0x20 MUL PUSH1 0x20 ADD ADD MLOAD PUSH20 0xFFFFFFFFFFFFFFFFFFFFFFFFFFFFFFFFFFFFFFFF AND PUSH20 0xFFFFFFFFFFFFFFFFFFFFFFFFFFFFFFFFFFFFFFFF AND DUP2 MSTORE PUSH1 0x20 ADD SWAP1 DUP2 MSTORE PUSH1 0x20 ADD PUSH1 0x0 KECCAK256 PUSH1 0x0 DUP6 DUP2 MSTORE PUSH1 0x20 ADD SWAP1 DUP2 MSTORE PUSH1 0x20 ADD PUSH1 0x0 KECCAK256 PUSH1 0x1 ADD PUSH1 0x14 SWAP1 SLOAD SWAP1 PUSH2 0x100 EXP SWAP1 DIV PUSH1 0xFF AND ISZERO DUP1 ISZERO PUSH2 0x67C JUMPI POP DUP4 PUSH1 0x8 PUSH1 0x0 DUP6 DUP5 DUP2 MLOAD DUP2 LT PUSH2 0x623 JUMPI PUSH2 0x622 PUSH2 0x43F3 JUMP JUMPDEST JUMPDEST PUSH1 0x20 MUL PUSH1 0x20 ADD ADD MLOAD PUSH20 0xFFFFFFFFFFFFFFFFFFFFFFFFFFFFFFFFFFFFFFFF AND PUSH20 0xFFFFFFFFFFFFFFFFFFFFFFFFFFFFFFFFFFFFFFFF AND DUP2 MSTORE PUSH1 0x20 ADD SWAP1 DUP2 MSTORE PUSH1 0x20 ADD PUSH1 0x0 KECCAK256 PUSH1 0x0 DUP7 DUP2 MSTORE PUSH1 0x20 ADD SWAP1 DUP2 MSTORE PUSH1 0x20 ADD PUSH1 0x0 KECCAK256 PUSH1 0x0 ADD SLOAD EQ JUMPDEST ISZERO PUSH2 0x729 JUMPI PUSH2 0x6BB DUP4 DUP3 DUP2 MLOAD DUP2 LT PUSH2 0x697 JUMPI PUSH2 0x696 PUSH2 0x43F3 JUMP JUMPDEST JUMPDEST PUSH1 0x20 MUL PUSH1 0x20 ADD ADD MLOAD PUSH1 0x7 PUSH1 0x0 DUP8 DUP2 MSTORE PUSH1 0x20 ADD SWAP1 DUP2 MSTORE PUSH1 0x20 ADD PUSH1 0x0 KECCAK256 PUSH1 0x5 ADD SLOAD PUSH2 0x1B11 JUMP JUMPDEST PUSH32 0xABF5327BE9F5825C40D58BDA541DD07F09B62DF3376BBD5ECDBAA8BD82A9D492 DUP4 DUP3 DUP2 MLOAD DUP2 LT PUSH2 0x6EF JUMPI PUSH2 0x6EE PUSH2 0x43F3 JUMP JUMPDEST JUMPDEST PUSH1 0x20 MUL PUSH1 0x20 ADD ADD MLOAD PUSH1 0x7 PUSH1 0x0 DUP8 DUP2 MSTORE PUSH1 0x20 ADD SWAP1 DUP2 MSTORE PUSH1 0x20 ADD PUSH1 0x0 KECCAK256 PUSH1 0x5 ADD SLOAD PUSH1 0x40 MLOAD PUSH2 0x71C SWAP3 SWAP2 SWAP1 PUSH2 0x3C23 JUMP JUMPDEST PUSH1 0x40 MLOAD DUP1 SWAP2 SUB SWAP1 LOG1 PUSH2 0x72E JUMP JUMPDEST PUSH2 0x72F JUMP JUMPDEST JUMPDEST DUP1 DUP1 PUSH2 0x73A SWAP1 PUSH2 0x434C JUMP JUMPDEST SWAP2 POP POP PUSH2 0x57F JUMP JUMPDEST POP PUSH1 0x1 SWAP1 POP SWAP3 SWAP2 POP POP JUMP JUMPDEST PUSH1 0x60 PUSH1 0x2 DUP1 SLOAD PUSH2 0x75C SWAP1 PUSH2 0x4285 JUMP JUMPDEST DUP1 PUSH1 0x1F ADD PUSH1 0x20 DUP1 SWAP2 DIV MUL PUSH1 0x20 ADD PUSH1 0x40 MLOAD SWAP1 DUP2 ADD PUSH1 0x40 MSTORE DUP1 SWAP3 SWAP2 SWAP1 DUP2 DUP2 MSTORE PUSH1 0x20 ADD DUP3 DUP1 SLOAD PUSH2 0x788 SWAP1 PUSH2 0x4285 JUMP JUMPDEST DUP1 ISZERO PUSH2 0x7D5 JUMPI DUP1 PUSH1 0x1F LT PUSH2 0x7AA JUMPI PUSH2 0x100 DUP1 DUP4 SLOAD DIV MUL DUP4 MSTORE SWAP2 PUSH1 0x20 ADD SWAP2 PUSH2 0x7D5 JUMP JUMPDEST DUP3 ADD SWAP2 SWAP1 PUSH1 0x0 MSTORE PUSH1 0x20 PUSH1 0x0 KECCAK256 SWAP1 JUMPDEST DUP2 SLOAD DUP2 MSTORE SWAP1 PUSH1 0x1 ADD SWAP1 PUSH1 0x20 ADD DUP1 DUP4 GT PUSH2 0x7B8 JUMPI DUP3 SWAP1 SUB PUSH1 0x1F AND DUP3 ADD SWAP2 JUMPDEST POP POP POP POP POP SWAP1 POP SWAP1 JUMP JUMPDEST PUSH1 0x60 PUSH1 0x9 PUSH1 0x0 DUP4 DUP2 MSTORE PUSH1 0x20 ADD SWAP1 DUP2 MSTORE PUSH1 0x20 ADD PUSH1 0x0 KECCAK256 PUSH1 0x0 SWAP1 SLOAD SWAP1 PUSH2 0x100 EXP SWAP1 DIV PUSH1 0xFF AND PUSH2 0x841 JUMPI PUSH1 0x40 MLOAD PUSH32 0x8C379A000000000000000000000000000000000000000000000000000000000 DUP2 MSTORE PUSH1 0x4 ADD PUSH2 0x838 SWAP1 PUSH2 0x3A27 JUMP JUMPDEST PUSH1 0x40 MLOAD DUP1 SWAP2 SUB SWAP1 REVERT JUMPDEST PUSH1 0x0 PUSH1 0x7 PUSH1 0x0 DUP5 DUP2 MSTORE PUSH1 0x20 ADD SWAP1 DUP2 MSTORE PUSH1 0x20 ADD PUSH1 0x0 KECCAK256 PUSH1 0x4 ADD PUSH1 0x0 SWAP1 SLOAD SWAP1 PUSH2 0x100 EXP SWAP1 DIV PUSH2 0xFFFF AND SWAP1 POP PUSH1 0x0 DUP2 PUSH2 0xFFFF AND PUSH8 0xFFFFFFFFFFFFFFFF DUP2 GT ISZERO PUSH2 0x88A JUMPI PUSH2 0x889 PUSH2 0x4422 JUMP JUMPDEST JUMPDEST PUSH1 0x40 MLOAD SWAP1 DUP1 DUP3 MSTORE DUP1 PUSH1 0x20 MUL PUSH1 0x20 ADD DUP3 ADD PUSH1 0x40 MSTORE DUP1 ISZERO PUSH2 0x8B8 JUMPI DUP2 PUSH1 0x20 ADD PUSH1 0x20 DUP3 MUL DUP1 CALLDATASIZE DUP4 CALLDATACOPY DUP1 DUP3 ADD SWAP2 POP POP SWAP1 POP JUMPDEST POP SWAP1 POP PUSH1 0x0 JUMPDEST DUP3 PUSH2 0xFFFF AND DUP2 PUSH2 0xFFFF AND LT ISZERO PUSH2 0x96D JUMPI PUSH1 0x7 PUSH1 0x0 DUP7 DUP2 MSTORE PUSH1 0x20 ADD SWAP1 DUP2 MSTORE PUSH1 0x20 ADD PUSH1 0x0 KECCAK256 PUSH1 0xB ADD PUSH1 0x7 PUSH1 0x0 DUP8 DUP2 MSTORE PUSH1 0x20 ADD SWAP1 DUP2 MSTORE PUSH1 0x20 ADD PUSH1 0x0 KECCAK256 PUSH1 0x9 ADD PUSH1 0x0 PUSH1 0x1 DUP5 PUSH2 0x909 SWAP2 SWAP1 PUSH2 0x40A8 JUMP JUMPDEST PUSH2 0xFFFF AND DUP2 MSTORE PUSH1 0x20 ADD SWAP1 DUP2 MSTORE PUSH1 0x20 ADD PUSH1 0x0 KECCAK256 PUSH1 0x40 MLOAD PUSH2 0x928 SWAP2 SWAP1 PUSH2 0x386A JUMP JUMPDEST SWAP1 DUP2 MSTORE PUSH1 0x20 ADD PUSH1 0x40 MLOAD DUP1 SWAP2 SUB SWAP1 KECCAK256 SLOAD DUP3 DUP3 PUSH2 0xFFFF AND DUP2 MLOAD DUP2 LT PUSH2 0x94E JUMPI PUSH2 0x94D PUSH2 0x43F3 JUMP JUMPDEST JUMPDEST PUSH1 0x20 MUL PUSH1 0x20 ADD ADD DUP2 DUP2 MSTORE POP POP DUP1 DUP1 PUSH2 0x965 SWAP1 PUSH2 0x4321 JUMP JUMPDEST SWAP2 POP POP PUSH2 0x8BE JUMP JUMPDEST POP DUP1 SWAP3 POP POP POP SWAP2 SWAP1 POP JUMP JUMPDEST PUSH1 0x0 PUSH1 0x1 SLOAD SWAP1 POP SWAP1 JUMP JUMPDEST PUSH1 0x0 PUSH1 0x12 SWAP1 POP SWAP1 JUMP JUMPDEST PUSH1 0x60 PUSH1 0x9 PUSH1 0x0 DUP4 DUP2 MSTORE PUSH1 0x20 ADD SWAP1 DUP2 MSTORE PUSH1 0x20 ADD PUSH1 0x0 KECCAK256 PUSH1 0x0 SWAP1 SLOAD SWAP1 PUSH2 0x100 EXP SWAP1 DIV PUSH1 0xFF AND PUSH2 0x9ED JUMPI PUSH1 0x40 MLOAD PUSH32 0x8C379A000000000000000000000000000000000000000000000000000000000 DUP2 MSTORE PUSH1 0x4 ADD PUSH2 0x9E4 SWAP1 PUSH2 0x3A27 JUMP JUMPDEST PUSH1 0x40 MLOAD DUP1 SWAP2 SUB SWAP1 REVERT JUMPDEST PUSH1 0x0 PUSH1 0x7 PUSH1 0x0 DUP5 DUP2 MSTORE PUSH1 0x20 ADD SWAP1 DUP2 MSTORE PUSH1 0x20 ADD PUSH1 0x0 KECCAK256 PUSH1 0x4 ADD PUSH1 0x0 SWAP1 SLOAD SWAP1 PUSH2 0x100 EXP SWAP1 DIV PUSH2 0xFFFF AND SWAP1 POP PUSH1 0x0 DUP2 PUSH2 0xFFFF AND PUSH8 0xFFFFFFFFFFFFFFFF DUP2 GT ISZERO PUSH2 0xA36 JUMPI PUSH2 0xA35 PUSH2 0x4422 JUMP JUMPDEST JUMPDEST PUSH1 0x40 MLOAD SWAP1 DUP1 DUP3 MSTORE DUP1 PUSH1 0x20 MUL PUSH1 0x20 ADD DUP3 ADD PUSH1 0x40 MSTORE DUP1 ISZERO PUSH2 0xA69 JUMPI DUP2 PUSH1 0x20 ADD JUMPDEST PUSH1 0x60 DUP2 MSTORE PUSH1 0x20 ADD SWAP1 PUSH1 0x1 SWAP1 SUB SWAP1 DUP2 PUSH2 0xA54 JUMPI SWAP1 POP JUMPDEST POP SWAP1 POP PUSH1 0x0 JUMPDEST DUP3 PUSH2 0xFFFF AND DUP2 PUSH2 0xFFFF AND LT ISZERO PUSH2 0xB74 JUMPI PUSH1 0x7 PUSH1 0x0 DUP7 DUP2 MSTORE PUSH1 0x20 ADD SWAP1 DUP2 MSTORE PUSH1 0x20 ADD PUSH1 0x0 KECCAK256 PUSH1 0x9 ADD PUSH1 0x0 PUSH1 0x1 DUP4 PUSH2 0xAA4 SWAP2 SWAP1 PUSH2 0x40A8 JUMP JUMPDEST PUSH2 0xFFFF AND DUP2 MSTORE PUSH1 0x20 ADD SWAP1 DUP2 MSTORE PUSH1 0x20 ADD PUSH1 0x0 KECCAK256 DUP1 SLOAD PUSH2 0xAC1 SWAP1 PUSH2 0x4285 JUMP JUMPDEST DUP1 PUSH1 0x1F ADD PUSH1 0x20 DUP1 SWAP2 DIV MUL PUSH1 0x20 ADD PUSH1 0x40 MLOAD SWAP1 DUP2 ADD PUSH1 0x40 MSTORE DUP1 SWAP3 SWAP2 SWAP1 DUP2 DUP2 MSTORE PUSH1 0x20 ADD DUP3 DUP1 SLOAD PUSH2 0xAED SWAP1 PUSH2 0x4285 JUMP JUMPDEST DUP1 ISZERO PUSH2 0xB3A JUMPI DUP1 PUSH1 0x1F LT PUSH2 0xB0F JUMPI PUSH2 0x100 DUP1 DUP4 SLOAD DIV MUL DUP4 MSTORE SWAP2 PUSH1 0x20 ADD SWAP2 PUSH2 0xB3A JUMP JUMPDEST DUP3 ADD SWAP2 SWAP1 PUSH1 0x0 MSTORE PUSH1 0x20 PUSH1 0x0 KECCAK256 SWAP1 JUMPDEST DUP2 SLOAD DUP2 MSTORE SWAP1 PUSH1 0x1 ADD SWAP1 PUSH1 0x20 ADD DUP1 DUP4 GT PUSH2 0xB1D JUMPI DUP3 SWAP1 SUB PUSH1 0x1F AND DUP3 ADD SWAP2 JUMPDEST POP POP POP POP POP DUP3 DUP3 PUSH2 0xFFFF AND DUP2 MLOAD DUP2 LT PUSH2 0xB56 JUMPI PUSH2 0xB55 PUSH2 0x43F3 JUMP JUMPDEST JUMPDEST PUSH1 0x20 MUL PUSH1 0x20 ADD ADD DUP2 SWAP1 MSTORE POP DUP1 DUP1 PUSH2 0xB6C SWAP1 PUSH2 0x4321 JUMP JUMPDEST SWAP2 POP POP PUSH2 0xA6F JUMP JUMPDEST POP DUP1 SWAP3 POP POP POP SWAP2 SWAP1 POP JUMP JUMPDEST DUP6 TIMESTAMP LT PUSH2 0xBC1 JUMPI PUSH1 0x40 MLOAD PUSH32 0x8C379A000000000000000000000000000000000000000000000000000000000 DUP2 MSTORE PUSH1 0x4 ADD PUSH2 0xBB8 SWAP1 PUSH2 0x3A87 JUMP JUMPDEST PUSH1 0x40 MLOAD DUP1 SWAP2 SUB SWAP1 REVERT JUMPDEST DUP5 TIMESTAMP LT PUSH2 0xC03 JUMPI PUSH1 0x40 MLOAD PUSH32 0x8C379A000000000000000000000000000000000000000000000000000000000 DUP2 MSTORE PUSH1 0x4 ADD PUSH2 0xBFA SWAP1 PUSH2 0x39A7 JUMP JUMPDEST PUSH1 0x40 MLOAD DUP1 SWAP2 SUB SWAP1 REVERT JUMPDEST DUP5 DUP7 LT PUSH2 0xC45 JUMPI PUSH1 0x40 MLOAD PUSH32 0x8C379A000000000000000000000000000000000000000000000000000000000 DUP2 MSTORE PUSH1 0x4 ADD PUSH2 0xC3C SWAP1 PUSH2 0x3B47 JUMP JUMPDEST PUSH1 0x40 MLOAD DUP1 SWAP2 SUB SWAP1 REVERT JUMPDEST PUSH1 0x5 PUSH1 0x0 DUP2 SLOAD DUP1 SWAP3 SWAP2 SWAP1 PUSH2 0xC58 SWAP1 PUSH2 0x434C JUMP JUMPDEST SWAP2 SWAP1 POP SSTORE POP PUSH2 0xC94 DUP10 DUP10 DUP10 DUP10 DUP10 DUP10 DUP8 DUP11 DUP11 PUSH1 0x7 PUSH1 0x0 PUSH1 0x5 SLOAD DUP2 MSTORE PUSH1 0x20 ADD SWAP1 DUP2 MSTORE PUSH1 0x20 ADD PUSH1 0x0 KECCAK256 PUSH2 0x1B82 SWAP1 SWAP10 SWAP9 SWAP8 SWAP7 SWAP6 SWAP5 SWAP4 SWAP3 SWAP2 SWAP1 PUSH4 0xFFFFFFFF AND JUMP JUMPDEST POP PUSH32 0x239A8A71A7D1CB0D134F6CC072AD6390E36A88C8E78DFF69013EE79528441E80 PUSH1 0x5 SLOAD DUP10 DUP10 DUP10 DUP10 DUP10 DUP10 DUP10 PUSH1 0x40 MLOAD PUSH2 0xCD4 SWAP9 SWAP8 SWAP7 SWAP6 SWAP5 SWAP4 SWAP3 SWAP2 SWAP1 PUSH2 0x3D28 JUMP JUMPDEST PUSH1 0x40 MLOAD DUP1 SWAP2 SUB SWAP1 LOG1 PUSH1 0x1 PUSH1 0x9 PUSH1 0x0 PUSH1 0x5 SLOAD DUP2 MSTORE PUSH1 0x20 ADD SWAP1 DUP2 MSTORE PUSH1 0x20 ADD PUSH1 0x0 KECCAK256 PUSH1 0x0 PUSH2 0x100 EXP DUP2 SLOAD DUP2 PUSH1 0xFF MUL NOT AND SWAP1 DUP4 ISZERO ISZERO MUL OR SWAP1 SSTORE POP PUSH1 0x0 JUMPDEST DUP9 MLOAD DUP2 LT ISZERO PUSH2 0xE42 JUMPI PUSH2 0xD3A DUP10 DUP3 DUP2 MLOAD DUP2 LT PUSH2 0xD2C JUMPI PUSH2 0xD2B PUSH2 0x43F3 JUMP JUMPDEST JUMPDEST PUSH1 0x20 MUL PUSH1 0x20 ADD ADD MLOAD DUP4 PUSH2 0x1DBE JUMP JUMPDEST PUSH2 0xDDB PUSH1 0x5 SLOAD DUP11 DUP4 DUP2 MLOAD DUP2 LT PUSH2 0xD53 JUMPI PUSH2 0xD52 PUSH2 0x43F3 JUMP JUMPDEST JUMPDEST PUSH1 0x20 MUL PUSH1 0x20 ADD ADD MLOAD PUSH1 0x0 DUP6 PUSH1 0x8 PUSH1 0x0 DUP16 DUP9 DUP2 MLOAD DUP2 LT PUSH2 0xD75 JUMPI PUSH2 0xD74 PUSH2 0x43F3 JUMP JUMPDEST JUMPDEST PUSH1 0x20 MUL PUSH1 0x20 ADD ADD MLOAD PUSH20 0xFFFFFFFFFFFFFFFFFFFFFFFFFFFFFFFFFFFFFFFF AND PUSH20 0xFFFFFFFFFFFFFFFFFFFFFFFFFFFFFFFFFFFFFFFF AND DUP2 MSTORE PUSH1 0x20 ADD SWAP1 DUP2 MSTORE PUSH1 0x20 ADD PUSH1 0x0 KECCAK256 PUSH1 0x0 PUSH1 0x5 SLOAD DUP2 MSTORE PUSH1 0x20 ADD SWAP1 DUP2 MSTORE PUSH1 0x20 ADD PUSH1 0x0 KECCAK256 PUSH2 0x1E2F SWAP1 SWAP5 SWAP4 SWAP3 SWAP2 SWAP1 PUSH4 0xFFFFFFFF AND JUMP JUMPDEST POP PUSH32 0xABF5327BE9F5825C40D58BDA541DD07F09B62DF3376BBD5ECDBAA8BD82A9D492 DUP10 DUP3 DUP2 MLOAD DUP2 LT PUSH2 0xE10 JUMPI PUSH2 0xE0F PUSH2 0x43F3 JUMP JUMPDEST JUMPDEST PUSH1 0x20 MUL PUSH1 0x20 ADD ADD MLOAD DUP4 PUSH1 0x40 MLOAD PUSH2 0xE27 SWAP3 SWAP2 SWAP1 PUSH2 0x3BC7 JUMP JUMPDEST PUSH1 0x40 MLOAD DUP1 SWAP2 SUB SWAP1 LOG1 DUP1 DUP1 PUSH2 0xE3A SWAP1 PUSH2 0x434C JUMP JUMPDEST SWAP2 POP POP PUSH2 0xD0D JUMP JUMPDEST POP PUSH2 0xE9D PUSH1 0x5 SLOAD PUSH1 0x6 PUSH1 0x0 PUSH2 0xE55 PUSH2 0x1EAF JUMP JUMPDEST PUSH20 0xFFFFFFFFFFFFFFFFFFFFFFFFFFFFFFFFFFFFFFFF AND PUSH20 0xFFFFFFFFFFFFFFFFFFFFFFFFFFFFFFFFFFFFFFFF AND DUP2 MSTORE PUSH1 0x20 ADD SWAP1 DUP2 MSTORE PUSH1 0x20 ADD PUSH1 0x0 KECCAK256 PUSH2 0x1EB7 SWAP1 SWAP2 SWAP1 PUSH4 0xFFFFFFFF AND JUMP JUMPDEST POP POP POP POP POP POP POP POP POP POP JUMP JUMPDEST PUSH1 0x0 PUSH1 0x7 PUSH1 0x0 DUP4 DUP2 MSTORE PUSH1 0x20 ADD SWAP1 DUP2 MSTORE PUSH1 0x20 ADD PUSH1 0x0 KECCAK256 PUSH1 0x7 ADD SLOAD SWAP1 POP SWAP2 SWAP1 POP JUMP JUMPDEST PUSH1 0x9 PUSH1 0x0 DUP6 DUP2 MSTORE PUSH1 0x20 ADD SWAP1 DUP2 MSTORE PUSH1 0x20 ADD PUSH1 0x0 KECCAK256 PUSH1 0x0 SWAP1 SLOAD SWAP1 PUSH2 0x100 EXP SWAP1 DIV PUSH1 0xFF AND PUSH2 0xF29 JUMPI PUSH1 0x40 MLOAD PUSH32 0x8C379A000000000000000000000000000000000000000000000000000000000 DUP2 MSTORE PUSH1 0x4 ADD PUSH2 0xF20 SWAP1 PUSH2 0x3AC7 JUMP JUMPDEST PUSH1 0x40 MLOAD DUP1 SWAP2 SUB SWAP1 REVERT JUMPDEST DUP4 PUSH1 0x8 PUSH1 0x0 DUP6 PUSH20 0xFFFFFFFFFFFFFFFFFFFFFFFFFFFFFFFFFFFFFFFF AND PUSH20 0xFFFFFFFFFFFFFFFFFFFFFFFFFFFFFFFFFFFFFFFF AND DUP2 MSTORE PUSH1 0x20 ADD SWAP1 DUP2 MSTORE PUSH1 0x20 ADD PUSH1 0x0 KECCAK256 PUSH1 0x0 DUP7 DUP2 MSTORE PUSH1 0x20 ADD SWAP1 DUP2 MSTORE PUSH1 0x20 ADD PUSH1 0x0 KECCAK256 PUSH1 0x0 ADD SLOAD EQ PUSH2 0xFBE JUMPI PUSH1 0x40 MLOAD PUSH32 0x8C379A000000000000000000000000000000000000000000000000000000000 DUP2 MSTORE PUSH1 0x4 ADD PUSH2 0xFB5 SWAP1 PUSH2 0x3A47 JUMP JUMPDEST PUSH1 0x40 MLOAD DUP1 SWAP2 SUB SWAP1 REVERT JUMPDEST PUSH1 0x8 PUSH1 0x0 DUP5 PUSH20 0xFFFFFFFFFFFFFFFFFFFFFFFFFFFFFFFFFFFFFFFF AND PUSH20 0xFFFFFFFFFFFFFFFFFFFFFFFFFFFFFFFFFFFFFFFF AND DUP2 MSTORE PUSH1 0x20 ADD SWAP1 DUP2 MSTORE PUSH1 0x20 ADD PUSH1 0x0 KECCAK256 PUSH1 0x0 DUP6 DUP2 MSTORE PUSH1 0x20 ADD SWAP1 DUP2 MSTORE PUSH1 0x20 ADD PUSH1 0x0 KECCAK256 PUSH1 0x1 ADD PUSH1 0x14 SWAP1 SLOAD SWAP1 PUSH2 0x100 EXP SWAP1 DIV PUSH1 0xFF AND ISZERO PUSH2 0x105F JUMPI PUSH1 0x40 MLOAD PUSH32 0x8C379A000000000000000000000000000000000000000000000000000000000 DUP2 MSTORE PUSH1 0x4 ADD PUSH2 0x1056 SWAP1 PUSH2 0x3A07 JUMP JUMPDEST PUSH1 0x40 MLOAD DUP1 SWAP2 SUB SWAP1 REVERT JUMPDEST DUP2 MLOAD PUSH1 0x7 PUSH1 0x0 DUP7 DUP2 MSTORE PUSH1 0x20 ADD SWAP1 DUP2 MSTORE PUSH1 0x20 ADD PUSH1 0x0 KECCAK256 PUSH1 0x4 ADD PUSH1 0x0 SWAP1 SLOAD SWAP1 PUSH2 0x100 EXP SWAP1 DIV PUSH2 0xFFFF AND PUSH2 0xFFFF AND EQ PUSH2 0x10CA JUMPI PUSH1 0x40 MLOAD PUSH32 0x8C379A000000000000000000000000000000000000000000000000000000000 DUP2 MSTORE PUSH1 0x4 ADD PUSH2 0x10C1 SWAP1 PUSH2 0x3B87 JUMP JUMPDEST PUSH1 0x40 MLOAD DUP1 SWAP2 SUB SWAP1 REVERT JUMPDEST PUSH1 0x0 DUP1 JUMPDEST DUP3 MLOAD DUP2 LT ISZERO PUSH2 0x1137 JUMPI DUP3 DUP2 DUP2 MLOAD DUP2 LT PUSH2 0x10EA JUMPI PUSH2 0x10E9 PUSH2 0x43F3 JUMP JUMPDEST JUMPDEST PUSH1 0x20 MUL PUSH1 0x20 ADD ADD MLOAD DUP4 DUP3 DUP2 MLOAD DUP2 LT PUSH2 0x1105 JUMPI PUSH2 0x1104 PUSH2 0x43F3 JUMP JUMPDEST JUMPDEST PUSH1 0x20 MUL PUSH1 0x20 ADD ADD MLOAD PUSH2 0x1117 SWAP2 SWAP1 PUSH2 0x4136 JUMP JUMPDEST DUP3 PUSH2 0x1122 SWAP2 SWAP1 PUSH2 0x40E0 JUMP JUMPDEST SWAP2 POP DUP1 DUP1 PUSH2 0x112F SWAP1 PUSH2 0x434C JUMP JUMPDEST SWAP2 POP POP PUSH2 0x10CE JUMP JUMPDEST POP DUP1 PUSH1 0x8 PUSH1 0x0 DUP7 PUSH20 0xFFFFFFFFFFFFFFFFFFFFFFFFFFFFFFFFFFFFFFFF AND PUSH20 0xFFFFFFFFFFFFFFFFFFFFFFFFFFFFFFFFFFFFFFFF AND DUP2 MSTORE PUSH1 0x20 ADD SWAP1 DUP2 MSTORE PUSH1 0x20 ADD PUSH1 0x0 KECCAK256 PUSH1 0x0 DUP8 DUP2 MSTORE PUSH1 0x20 ADD SWAP1 DUP2 MSTORE PUSH1 0x20 ADD PUSH1 0x0 KECCAK256 PUSH1 0x2 ADD SLOAD LT ISZERO PUSH2 0x11CE JUMPI PUSH1 0x40 MLOAD PUSH32 0x8C379A000000000000000000000000000000000000000000000000000000000 DUP2 MSTORE PUSH1 0x4 ADD PUSH2 0x11C5 SWAP1 PUSH2 0x3AE7 JUMP JUMPDEST PUSH1 0x40 MLOAD DUP1 SWAP2 SUB SWAP1 REVERT JUMPDEST PUSH2 0x11F7 DUP5 DUP5 DUP5 PUSH1 0x7 PUSH1 0x0 DUP11 DUP2 MSTORE PUSH1 0x20 ADD SWAP1 DUP2 MSTORE PUSH1 0x20 ADD PUSH1 0x0 KECCAK256 PUSH2 0x1F88 SWAP1 SWAP4 SWAP3 SWAP2 SWAP1 PUSH4 0xFFFFFFFF AND JUMP JUMPDEST POP PUSH2 0x1252 DUP6 DUP5 PUSH1 0x6 PUSH1 0x0 PUSH2 0x1209 PUSH2 0x1EAF JUMP JUMPDEST PUSH20 0xFFFFFFFFFFFFFFFFFFFFFFFFFFFFFFFFFFFFFFFF AND PUSH20 0xFFFFFFFFFFFFFFFFFFFFFFFFFFFFFFFFFFFFFFFF AND DUP2 MSTORE PUSH1 0x20 ADD SWAP1 DUP2 MSTORE PUSH1 0x20 ADD PUSH1 0x0 KECCAK256 PUSH2 0x220F SWAP1 SWAP3 SWAP2 SWAP1 PUSH4 0xFFFFFFFF AND JUMP JUMPDEST POP PUSH2 0x12AB PUSH1 0x8 PUSH1 0x0 DUP7 PUSH20 0xFFFFFFFFFFFFFFFFFFFFFFFFFFFFFFFFFFFFFFFF AND PUSH20 0xFFFFFFFFFFFFFFFFFFFFFFFFFFFFFFFFFFFFFFFF AND DUP2 MSTORE PUSH1 0x20 ADD SWAP1 DUP2 MSTORE PUSH1 0x20 ADD PUSH1 0x0 KECCAK256 PUSH1 0x0 DUP8 DUP2 MSTORE PUSH1 0x20 ADD SWAP1 DUP2 MSTORE PUSH1 0x20 ADD PUSH1 0x0 KECCAK256 PUSH2 0x239C JUMP JUMPDEST POP PUSH1 0x1 PUSH1 0x8 PUSH1 0x0 DUP7 PUSH20 0xFFFFFFFFFFFFFFFFFFFFFFFFFFFFFFFFFFFFFFFF AND PUSH20 0xFFFFFFFFFFFFFFFFFFFFFFFFFFFFFFFFFFFFFFFF AND DUP2 MSTORE PUSH1 0x20 ADD SWAP1 DUP2 MSTORE PUSH1 0x20 ADD PUSH1 0x0 KECCAK256 PUSH1 0x0 DUP8 DUP2 MSTORE PUSH1 0x20 ADD SWAP1 DUP2 MSTORE PUSH1 0x20 ADD PUSH1 0x0 KECCAK256 PUSH1 0x1 ADD PUSH1 0x14 PUSH2 0x100 EXP DUP2 SLOAD DUP2 PUSH1 0xFF MUL NOT AND SWAP1 DUP4 ISZERO ISZERO MUL OR SWAP1 SSTORE POP POP POP POP POP POP JUMP JUMPDEST PUSH1 0x0 PUSH1 0x8 PUSH1 0x0 DUP4 PUSH20 0xFFFFFFFFFFFFFFFFFFFFFFFFFFFFFFFFFFFFFFFF AND PUSH20 0xFFFFFFFFFFFFFFFFFFFFFFFFFFFFFFFFFFFFFFFF AND DUP2 MSTORE PUSH1 0x20 ADD SWAP1 DUP2 MSTORE PUSH1 0x20 ADD PUSH1 0x0 KECCAK256 PUSH1 0x0 DUP5 DUP2 MSTORE PUSH1 0x20 ADD SWAP1 DUP2 MSTORE PUSH1 0x20 ADD PUSH1 0x0 KECCAK256 PUSH1 0x1 ADD PUSH1 0x14 SWAP1 SLOAD SWAP1 PUSH2 0x100 EXP SWAP1 DIV PUSH1 0xFF AND PUSH2 0x13C1 JUMPI PUSH1 0x40 MLOAD PUSH32 0x8C379A000000000000000000000000000000000000000000000000000000000 DUP2 MSTORE PUSH1 0x4 ADD PUSH2 0x13B8 SWAP1 PUSH2 0x3BA7 JUMP JUMPDEST PUSH1 0x40 MLOAD DUP1 SWAP2 SUB SWAP1 REVERT JUMPDEST DUP3 PUSH1 0x8 PUSH1 0x0 DUP5 PUSH20 0xFFFFFFFFFFFFFFFFFFFFFFFFFFFFFFFFFFFFFFFF AND PUSH20 0xFFFFFFFFFFFFFFFFFFFFFFFFFFFFFFFFFFFFFFFF AND DUP2 MSTORE PUSH1 0x20 ADD SWAP1 DUP2 MSTORE PUSH1 0x20 ADD PUSH1 0x0 KECCAK256 PUSH1 0x0 DUP6 DUP2 MSTORE PUSH1 0x20 ADD SWAP1 DUP2 MSTORE PUSH1 0x20 ADD PUSH1 0x0 KECCAK256 PUSH1 0x0 ADD SLOAD EQ PUSH2 0x1456 JUMPI PUSH1 0x40 MLOAD PUSH32 0x8C379A000000000000000000000000000000000000000000000000000000000 DUP2 MSTORE PUSH1 0x4 ADD PUSH2 0x144D SWAP1 PUSH2 0x3A47 JUMP JUMPDEST PUSH1 0x40 MLOAD DUP1 SWAP2 SUB SWAP1 REVERT JUMPDEST PUSH2 0x1476 DUP3 PUSH1 0x7 PUSH1 0x0 DUP7 DUP2 MSTORE PUSH1 0x20 ADD SWAP1 DUP2 MSTORE PUSH1 0x20 ADD PUSH1 0x0 KECCAK256 PUSH1 0x5 ADD SLOAD PUSH2 0x1B11 JUMP JUMPDEST PUSH32 0xABF5327BE9F5825C40D58BDA541DD07F09B62DF3376BBD5ECDBAA8BD82A9D492 DUP3 PUSH1 0x7 PUSH1 0x0 DUP7 DUP2 MSTORE PUSH1 0x20 ADD SWAP1 DUP2 MSTORE PUSH1 0x20 ADD PUSH1 0x0 KECCAK256 PUSH1 0x5 ADD SLOAD PUSH1 0x40 MLOAD PUSH2 0x14BD SWAP3 SWAP2 SWAP1 PUSH2 0x3C23 JUMP JUMPDEST PUSH1 0x40 MLOAD DUP1 SWAP2 SUB SWAP1 LOG1 PUSH1 0x1 SWAP1 POP SWAP3 SWAP2 POP POP JUMP JUMPDEST PUSH1 0x0 DUP1 PUSH1 0x0 DUP4 PUSH20 0xFFFFFFFFFFFFFFFFFFFFFFFFFFFFFFFFFFFFFFFF AND PUSH20 0xFFFFFFFFFFFFFFFFFFFFFFFFFFFFFFFFFFFFFFFF AND DUP2 MSTORE PUSH1 0x20 ADD SWAP1 DUP2 MSTORE PUSH1 0x20 ADD PUSH1 0x0 KECCAK256 SLOAD SWAP1 POP SWAP2 SWAP1 POP JUMP JUMPDEST PUSH1 0x60 PUSH1 0x9 PUSH1 0x0 DUP4 DUP2 MSTORE PUSH1 0x20 ADD SWAP1 DUP2 MSTORE PUSH1 0x20 ADD PUSH1 0x0 KECCAK256 PUSH1 0x0 SWAP1 SLOAD SWAP1 PUSH2 0x100 EXP SWAP1 DIV PUSH1 0xFF AND PUSH2 0x1579 JUMPI PUSH1 0x40 MLOAD PUSH32 0x8C379A000000000000000000000000000000000000000000000000000000000 DUP2 MSTORE PUSH1 0x4 ADD PUSH2 0x1570 SWAP1 PUSH2 0x3A27 JUMP JUMPDEST PUSH1 0x40 MLOAD DUP1 SWAP2 SUB SWAP1 REVERT JUMPDEST PUSH2 0x1594 PUSH1 0x7 PUSH1 0x0 DUP5 DUP2 MSTORE PUSH1 0x20 ADD SWAP1 DUP2 MSTORE PUSH1 0x20 ADD PUSH1 0x0 KECCAK256 PUSH2 0x244A JUMP JUMPDEST POP PUSH1 0x7 PUSH1 0x0 DUP4 DUP2 MSTORE PUSH1 0x20 ADD SWAP1 DUP2 MSTORE PUSH1 0x20 ADD PUSH1 0x0 KECCAK256 PUSH1 0xA ADD PUSH1 0x0 PUSH1 0x1 DUP2 MSTORE PUSH1 0x20 ADD SWAP1 DUP2 MSTORE PUSH1 0x20 ADD PUSH1 0x0 KECCAK256 DUP1 SLOAD PUSH2 0x15C8 SWAP1 PUSH2 0x4285 JUMP JUMPDEST DUP1 PUSH1 0x1F ADD PUSH1 0x20 DUP1 SWAP2 DIV MUL PUSH1 0x20 ADD PUSH1 0x40 MLOAD SWAP1 DUP2 ADD PUSH1 0x40 MSTORE DUP1 SWAP3 SWAP2 SWAP1 DUP2 DUP2 MSTORE PUSH1 0x20 ADD DUP3 DUP1 SLOAD PUSH2 0x15F4 SWAP1 PUSH2 0x4285 JUMP JUMPDEST DUP1 ISZERO PUSH2 0x1641 JUMPI DUP1 PUSH1 0x1F LT PUSH2 0x1616 JUMPI PUSH2 0x100 DUP1 DUP4 SLOAD DIV MUL DUP4 MSTORE SWAP2 PUSH1 0x20 ADD SWAP2 PUSH2 0x1641 JUMP JUMPDEST DUP3 ADD SWAP2 SWAP1 PUSH1 0x0 MSTORE PUSH1 0x20 PUSH1 0x0 KECCAK256 SWAP1 JUMPDEST DUP2 SLOAD DUP2 MSTORE SWAP1 PUSH1 0x1 ADD SWAP1 PUSH1 0x20 ADD DUP1 DUP4 GT PUSH2 0x1624 JUMPI DUP3 SWAP1 SUB PUSH1 0x1F AND DUP3 ADD SWAP2 JUMPDEST POP POP POP POP POP SWAP1 POP SWAP2 SWAP1 POP JUMP JUMPDEST PUSH1 0x60 PUSH1 0x9 PUSH1 0x0 DUP4 DUP2 MSTORE PUSH1 0x20 ADD SWAP1 DUP2 MSTORE PUSH1 0x20 ADD PUSH1 0x0 KECCAK256 PUSH1 0x0 SWAP1 SLOAD SWAP1 PUSH2 0x100 EXP SWAP1 DIV PUSH1 0xFF AND PUSH2 0x16AF JUMPI PUSH1 0x40 MLOAD PUSH32 0x8C379A000000000000000000000000000000000000000000000000000000000 DUP2 MSTORE PUSH1 0x4 ADD PUSH2 0x16A6 SWAP1 PUSH2 0x3A27 JUMP JUMPDEST PUSH1 0x40 MLOAD DUP1 SWAP2 SUB SWAP1 REVERT JUMPDEST PUSH2 0x16CA PUSH1 0x7 PUSH1 0x0 DUP5 DUP2 MSTORE PUSH1 0x20 ADD SWAP1 DUP2 MSTORE PUSH1 0x20 ADD PUSH1 0x0 KECCAK256 PUSH2 0x244A JUMP JUMPDEST POP PUSH1 0x0 PUSH1 0x7 PUSH1 0x0 DUP5 DUP2 MSTORE PUSH1 0x20 ADD SWAP1 DUP2 MSTORE PUSH1 0x20 ADD PUSH1 0x0 KECCAK256 PUSH1 0x7 ADD SLOAD SWAP1 POP PUSH1 0x0 DUP2 PUSH8 0xFFFFFFFFFFFFFFFF DUP2 GT ISZERO PUSH2 0x1702 JUMPI PUSH2 0x1701 PUSH2 0x4422 JUMP JUMPDEST JUMPDEST PUSH1 0x40 MLOAD SWAP1 DUP1 DUP3 MSTORE DUP1 PUSH1 0x20 MUL PUSH1 0x20 ADD DUP3 ADD PUSH1 0x40 MSTORE DUP1 ISZERO PUSH2 0x1735 JUMPI DUP2 PUSH1 0x20 ADD JUMPDEST PUSH1 0x60 DUP2 MSTORE PUSH1 0x20 ADD SWAP1 PUSH1 0x1 SWAP1 SUB SWAP1 DUP2 PUSH2 0x1720 JUMPI SWAP1 POP JUMPDEST POP SWAP1 POP PUSH1 0x0 PUSH1 0x1 SWAP1 POP JUMPDEST DUP3 DUP2 GT PUSH2 0x1833 JUMPI PUSH1 0x7 PUSH1 0x0 DUP7 DUP2 MSTORE PUSH1 0x20 ADD SWAP1 DUP2 MSTORE PUSH1 0x20 ADD PUSH1 0x0 KECCAK256 PUSH1 0xA ADD PUSH1 0x0 DUP3 DUP2 MSTORE PUSH1 0x20 ADD SWAP1 DUP2 MSTORE PUSH1 0x20 ADD PUSH1 0x0 KECCAK256 DUP1 SLOAD PUSH2 0x1778 SWAP1 PUSH2 0x4285 JUMP JUMPDEST DUP1 PUSH1 0x1F ADD PUSH1 0x20 DUP1 SWAP2 DIV MUL PUSH1 0x20 ADD PUSH1 0x40 MLOAD SWAP1 DUP2 ADD PUSH1 0x40 MSTORE DUP1 SWAP3 SWAP2 SWAP1 DUP2 DUP2 MSTORE PUSH1 0x20 ADD DUP3 DUP1 SLOAD PUSH2 0x17A4 SWAP1 PUSH2 0x4285 JUMP JUMPDEST DUP1 ISZERO PUSH2 0x17F1 JUMPI DUP1 PUSH1 0x1F LT PUSH2 0x17C6 JUMPI PUSH2 0x100 DUP1 DUP4 SLOAD DIV MUL DUP4 MSTORE SWAP2 PUSH1 0x20 ADD SWAP2 PUSH2 0x17F1 JUMP JUMPDEST DUP3 ADD SWAP2 SWAP1 PUSH1 0x0 MSTORE PUSH1 0x20 PUSH1 0x0 KECCAK256 SWAP1 JUMPDEST DUP2 SLOAD DUP2 MSTORE SWAP1 PUSH1 0x1 ADD SWAP1 PUSH1 0x20 ADD DUP1 DUP4 GT PUSH2 0x17D4 JUMPI DUP3 SWAP1 SUB PUSH1 0x1F AND DUP3 ADD SWAP2 JUMPDEST POP POP POP POP POP DUP3 PUSH1 0x1 DUP4 PUSH2 0x1804 SWAP2 SWAP1 PUSH2 0x4190 JUMP JUMPDEST DUP2 MLOAD DUP2 LT PUSH2 0x1815 JUMPI PUSH2 0x1814 PUSH2 0x43F3 JUMP JUMPDEST JUMPDEST PUSH1 0x20 MUL PUSH1 0x20 ADD ADD DUP2 SWAP1 MSTORE POP DUP1 DUP1 PUSH2 0x182B SWAP1 PUSH2 0x434C JUMP JUMPDEST SWAP2 POP POP PUSH2 0x173F JUMP JUMPDEST POP DUP1 SWAP3 POP POP POP SWAP2 SWAP1 POP JUMP JUMPDEST PUSH1 0x60 PUSH1 0x3 DUP1 SLOAD PUSH2 0x184D SWAP1 PUSH2 0x4285 JUMP JUMPDEST DUP1 PUSH1 0x1F ADD PUSH1 0x20 DUP1 SWAP2 DIV MUL PUSH1 0x20 ADD PUSH1 0x40 MLOAD SWAP1 DUP2 ADD PUSH1 0x40 MSTORE DUP1 SWAP3 SWAP2 SWAP1 DUP2 DUP2 MSTORE PUSH1 0x20 ADD DUP3 DUP1 SLOAD PUSH2 0x1879 SWAP1 PUSH2 0x4285 JUMP JUMPDEST DUP1 ISZERO PUSH2 0x18C6 JUMPI DUP1 PUSH1 0x1F LT PUSH2 0x189B JUMPI PUSH2 0x100 DUP1 DUP4 SLOAD DIV MUL DUP4 MSTORE SWAP2 PUSH1 0x20 ADD SWAP2 PUSH2 0x18C6 JUMP JUMPDEST DUP3 ADD SWAP2 SWAP1 PUSH1 0x0 MSTORE PUSH1 0x20 PUSH1 0x0 KECCAK256 SWAP1 JUMPDEST DUP2 SLOAD DUP2 MSTORE SWAP1 PUSH1 0x1 ADD SWAP1 PUSH1 0x20 ADD DUP1 DUP4 GT PUSH2 0x18A9 JUMPI DUP3 SWAP1 SUB PUSH1 0x1F AND DUP3 ADD SWAP2 JUMPDEST POP POP POP POP POP SWAP1 POP SWAP1 JUMP JUMPDEST PUSH1 0x0 PUSH1 0x60 PUSH1 0x9 PUSH1 0x0 DUP5 DUP2 MSTORE PUSH1 0x20 ADD SWAP1 DUP2 MSTORE PUSH1 0x20 ADD PUSH1 0x0 KECCAK256 PUSH1 0x0 SWAP1 SLOAD SWAP1 PUSH2 0x100 EXP SWAP1 DIV PUSH1 0xFF AND PUSH2 0x1934 JUMPI PUSH1 0x40 MLOAD PUSH32 0x8C379A000000000000000000000000000000000000000000000000000000000 DUP2 MSTORE PUSH1 0x4 ADD PUSH2 0x192B SWAP1 PUSH2 0x3A27 JUMP JUMPDEST PUSH1 0x40 MLOAD DUP1 SWAP2 SUB SWAP1 REVERT JUMPDEST PUSH1 0x7 PUSH1 0x0 DUP5 DUP2 MSTORE PUSH1 0x20 ADD SWAP1 DUP2 MSTORE PUSH1 0x20 ADD PUSH1 0x0 KECCAK256 PUSH1 0xB ADD PUSH1 0x7 PUSH1 0x0 DUP6 DUP2 MSTORE PUSH1 0x20 ADD SWAP1 DUP2 MSTORE PUSH1 0x20 ADD PUSH1 0x0 KECCAK256 PUSH1 0xA ADD PUSH1 0x0 PUSH1 0x1 DUP2 MSTORE PUSH1 0x20 ADD SWAP1 DUP2 MSTORE PUSH1 0x20 ADD PUSH1 0x0 KECCAK256 PUSH1 0x40 MLOAD PUSH2 0x197F SWAP2 SWAP1 PUSH2 0x386A JUMP JUMPDEST SWAP1 DUP2 MSTORE PUSH1 0x20 ADD PUSH1 0x40 MLOAD DUP1 SWAP2 SUB SWAP1 KECCAK256 SLOAD PUSH1 0x7 PUSH1 0x0 DUP6 DUP2 MSTORE PUSH1 0x20 ADD SWAP1 DUP2 MSTORE PUSH1 0x20 ADD PUSH1 0x0 KECCAK256 PUSH1 0xA ADD PUSH1 0x0 PUSH1 0x1 DUP2 MSTORE PUSH1 0x20 ADD SWAP1 DUP2 MSTORE PUSH1 0x20 ADD PUSH1 0x0 KECCAK256 DUP1 DUP1 SLOAD PUSH2 0x19C2 SWAP1 PUSH2 0x4285 JUMP JUMPDEST DUP1 PUSH1 0x1F ADD PUSH1 0x20 DUP1 SWAP2 DIV MUL PUSH1 0x20 ADD PUSH1 0x40 MLOAD SWAP1 DUP2 ADD PUSH1 0x40 MSTORE DUP1 SWAP3 SWAP2 SWAP1 DUP2 DUP2 MSTORE PUSH1 0x20 ADD DUP3 DUP1 SLOAD PUSH2 0x19EE SWAP1 PUSH2 0x4285 JUMP JUMPDEST DUP1 ISZERO PUSH2 0x1A3B JUMPI DUP1 PUSH1 0x1F LT PUSH2 0x1A10 JUMPI PUSH2 0x100 DUP1 DUP4 SLOAD DIV MUL DUP4 MSTORE SWAP2 PUSH1 0x20 ADD SWAP2 PUSH2 0x1A3B JUMP JUMPDEST DUP3 ADD SWAP2 SWAP1 PUSH1 0x0 MSTORE PUSH1 0x20 PUSH1 0x0 KECCAK256 SWAP1 JUMPDEST DUP2 SLOAD DUP2 MSTORE SWAP1 PUSH1 0x1 ADD SWAP1 PUSH1 0x20 ADD DUP1 DUP4 GT PUSH2 0x1A1E JUMPI DUP3 SWAP1 SUB PUSH1 0x1F AND DUP3 ADD SWAP2 JUMPDEST POP POP POP POP POP SWAP1 POP SWAP2 POP SWAP2 POP SWAP2 POP SWAP2 JUMP JUMPDEST PUSH1 0x8 PUSH1 0x20 MSTORE DUP2 PUSH1 0x0 MSTORE PUSH1 0x40 PUSH1 0x0 KECCAK256 PUSH1 0x20 MSTORE DUP1 PUSH1 0x0 MSTORE PUSH1 0x40 PUSH1 0x0 KECCAK256 PUSH1 0x0 SWAP2 POP SWAP2 POP POP DUP1 PUSH1 0x0 ADD SLOAD SWAP1 DUP1 PUSH1 0x1 ADD PUSH1 0x0 SWAP1 SLOAD SWAP1 PUSH2 0x100 EXP SWAP1 DIV PUSH20 0xFFFFFFFFFFFFFFFFFFFFFFFFFFFFFFFFFFFFFFFF AND SWAP1 DUP1 PUSH1 0x1 ADD PUSH1 0x14 SWAP1 SLOAD SWAP1 PUSH2 0x100 EXP SWAP1 DIV PUSH1 0xFF AND SWAP1 DUP1 PUSH1 0x2 ADD SLOAD SWAP1 POP DUP5 JUMP JUMPDEST PUSH1 0x6 PUSH1 0x20 MSTORE DUP1 PUSH1 0x0 MSTORE PUSH1 0x40 PUSH1 0x0 KECCAK256 PUSH1 0x0 SWAP2 POP SWAP1 POP DUP1 PUSH1 0x0 ADD PUSH1 0x0 SWAP1 SLOAD SWAP1 PUSH2 0x100 EXP SWAP1 DIV PUSH16 0xFFFFFFFFFFFFFFFFFFFFFFFFFFFFFFFF AND SWAP1 DUP1 PUSH1 0x0 ADD PUSH1 0x10 SWAP1 SLOAD SWAP1 PUSH2 0x100 EXP SWAP1 DIV PUSH16 0xFFFFFFFFFFFFFFFFFFFFFFFFFFFFFFFF AND SWAP1 POP DUP3 JUMP JUMPDEST PUSH2 0x1B19 PUSH2 0x1EAF JUMP JUMPDEST DUP1 PUSH20 0xFFFFFFFFFFFFFFFFFFFFFFFFFFFFFFFFFFFFFFFF AND PUSH1 0x4 PUSH1 0x0 SWAP1 SLOAD SWAP1 PUSH2 0x100 EXP SWAP1 DIV PUSH20 0xFFFFFFFFFFFFFFFFFFFFFFFFFFFFFFFFFFFFFFFF AND PUSH20 0xFFFFFFFFFFFFFFFFFFFFFFFFFFFFFFFFFFFFFFFF AND EQ PUSH2 0x1B73 JUMPI PUSH1 0x0 DUP1 REVERT JUMPDEST PUSH2 0x1B7D DUP4 DUP4 PUSH2 0x26E5 JUMP JUMPDEST POP POP POP JUMP JUMPDEST PUSH1 0x0 DUP8 DUP12 PUSH1 0x0 ADD PUSH1 0x0 PUSH2 0x100 EXP DUP2 SLOAD DUP2 PUSH20 0xFFFFFFFFFFFFFFFFFFFFFFFFFFFFFFFFFFFFFFFF MUL NOT AND SWAP1 DUP4 PUSH20 0xFFFFFFFFFFFFFFFFFFFFFFFFFFFFFFFFFFFFFFFF AND MUL OR SWAP1 SSTORE POP DUP10 DUP12 PUSH1 0x0 ADD PUSH1 0x14 PUSH2 0x100 EXP DUP2 SLOAD DUP2 PUSH1 0xFF MUL NOT AND SWAP1 DUP4 PUSH1 0xFF AND MUL OR SWAP1 SSTORE POP DUP5 DUP12 PUSH1 0x1 ADD SWAP1 DUP1 MLOAD SWAP1 PUSH1 0x20 ADD SWAP1 PUSH2 0x1BFC SWAP3 SWAP2 SWAP1 PUSH2 0x2992 JUMP JUMPDEST POP DUP7 DUP12 PUSH1 0x2 ADD DUP2 SWAP1 SSTORE POP DUP6 DUP12 PUSH1 0x3 ADD DUP2 SWAP1 SSTORE POP DUP3 DUP3 SWAP1 POP DUP12 PUSH1 0x4 ADD PUSH1 0x0 PUSH2 0x100 EXP DUP2 SLOAD DUP2 PUSH2 0xFFFF MUL NOT AND SWAP1 DUP4 PUSH2 0xFFFF AND MUL OR SWAP1 SSTORE POP DUP4 DUP12 PUSH1 0x5 ADD DUP2 SWAP1 SSTORE POP PUSH1 0x0 JUMPDEST DUP4 DUP4 SWAP1 POP DUP2 LT ISZERO PUSH2 0x1D0D JUMPI PUSH1 0x1 DUP13 PUSH1 0x8 ADD DUP6 DUP6 DUP5 DUP2 DUP2 LT PUSH2 0x1C61 JUMPI PUSH2 0x1C60 PUSH2 0x43F3 JUMP JUMPDEST JUMPDEST SWAP1 POP PUSH1 0x20 MUL DUP2 ADD SWAP1 PUSH2 0x1C73 SWAP2 SWAP1 PUSH2 0x3DF9 JUMP JUMPDEST PUSH1 0x40 MLOAD PUSH2 0x1C81 SWAP3 SWAP2 SWAP1 PUSH2 0x383A JUMP JUMPDEST SWAP1 DUP2 MSTORE PUSH1 0x20 ADD PUSH1 0x40 MLOAD DUP1 SWAP2 SUB SWAP1 KECCAK256 PUSH1 0x0 PUSH2 0x100 EXP DUP2 SLOAD DUP2 PUSH1 0xFF MUL NOT AND SWAP1 DUP4 ISZERO ISZERO MUL OR SWAP1 SSTORE POP DUP4 DUP4 DUP3 DUP2 DUP2 LT PUSH2 0x1CB9 JUMPI PUSH2 0x1CB8 PUSH2 0x43F3 JUMP JUMPDEST JUMPDEST SWAP1 POP PUSH1 0x20 MUL DUP2 ADD SWAP1 PUSH2 0x1CCB SWAP2 SWAP1 PUSH2 0x3DF9 JUMP JUMPDEST DUP14 PUSH1 0x9 ADD PUSH1 0x0 PUSH1 0x1 DUP6 PUSH2 0x1CDE SWAP2 SWAP1 PUSH2 0x40E0 JUMP JUMPDEST DUP2 MSTORE PUSH1 0x20 ADD SWAP1 DUP2 MSTORE PUSH1 0x20 ADD PUSH1 0x0 KECCAK256 SWAP2 SWAP1 PUSH2 0x1CF9 SWAP3 SWAP2 SWAP1 PUSH2 0x2A18 JUMP JUMPDEST POP DUP1 DUP1 PUSH2 0x1D05 SWAP1 PUSH2 0x434C JUMP JUMPDEST SWAP2 POP POP PUSH2 0x1C3D JUMP JUMPDEST POP PUSH1 0x0 JUMPDEST DUP10 MLOAD DUP2 LT ISZERO PUSH2 0x1DA1 JUMPI PUSH1 0x1 DUP13 PUSH1 0x6 ADD PUSH1 0x0 DUP13 DUP5 DUP2 MLOAD DUP2 LT PUSH2 0x1D35 JUMPI PUSH2 0x1D34 PUSH2 0x43F3 JUMP JUMPDEST JUMPDEST PUSH1 0x20 MUL PUSH1 0x20 ADD ADD MLOAD PUSH20 0xFFFFFFFFFFFFFFFFFFFFFFFFFFFFFFFFFFFFFFFF AND PUSH20 0xFFFFFFFFFFFFFFFFFFFFFFFFFFFFFFFFFFFFFFFF AND DUP2 MSTORE PUSH1 0x20 ADD SWAP1 DUP2 MSTORE PUSH1 0x20 ADD PUSH1 0x0 KECCAK256 PUSH1 0x0 PUSH2 0x100 EXP DUP2 SLOAD DUP2 PUSH1 0xFF MUL NOT AND SWAP1 DUP4 ISZERO ISZERO MUL OR SWAP1 SSTORE POP DUP1 DUP1 PUSH2 0x1D99 SWAP1 PUSH2 0x434C JUMP JUMPDEST SWAP2 POP POP PUSH2 0x1D11 JUMP JUMPDEST POP PUSH1 0x3 DUP12 PUSH1 0x7 ADD DUP2 SWAP1 SSTORE POP PUSH1 0x1 SWAP1 POP SWAP11 SWAP10 POP POP POP POP POP POP POP POP POP POP JUMP JUMPDEST PUSH2 0x1DC6 PUSH2 0x1EAF JUMP JUMPDEST DUP1 PUSH20 0xFFFFFFFFFFFFFFFFFFFFFFFFFFFFFFFFFFFFFFFF AND PUSH1 0x4 PUSH1 0x0 SWAP1 SLOAD SWAP1 PUSH2 0x100 EXP SWAP1 DIV PUSH20 0xFFFFFFFFFFFFFFFFFFFFFFFFFFFFFFFFFFFFFFFF AND PUSH20 0xFFFFFFFFFFFFFFFFFFFFFFFFFFFFFFFFFFFFFFFF AND EQ PUSH2 0x1E20 JUMPI PUSH1 0x0 DUP1 REVERT JUMPDEST PUSH2 0x1E2A DUP4 DUP4 PUSH2 0x2877 JUMP JUMPDEST POP POP POP JUMP JUMPDEST PUSH1 0x0 DUP5 DUP7 PUSH1 0x0 ADD DUP2 SWAP1 SSTORE POP DUP4 DUP7 PUSH1 0x1 ADD PUSH1 0x0 PUSH2 0x100 EXP DUP2 SLOAD DUP2 PUSH20 0xFFFFFFFFFFFFFFFFFFFFFFFFFFFFFFFFFFFFFFFF MUL NOT AND SWAP1 DUP4 PUSH20 0xFFFFFFFFFFFFFFFFFFFFFFFFFFFFFFFFFFFFFFFF AND MUL OR SWAP1 SSTORE POP DUP3 DUP7 PUSH1 0x1 ADD PUSH1 0x14 PUSH2 0x100 EXP DUP2 SLOAD DUP2 PUSH1 0xFF MUL NOT AND SWAP1 DUP4 ISZERO ISZERO MUL OR SWAP1 SSTORE POP DUP2 DUP7 PUSH1 0x2 ADD DUP2 SWAP1 SSTORE POP PUSH1 0x1 SWAP1 POP SWAP6 SWAP5 POP POP POP POP POP JUMP JUMPDEST PUSH1 0x0 CALLER SWAP1 POP SWAP1 JUMP JUMPDEST PUSH1 0x0 DUP3 PUSH1 0x0 ADD PUSH1 0x0 DUP2 DUP2 SWAP1 SLOAD SWAP1 PUSH2 0x100 EXP SWAP1 DIV PUSH16 0xFFFFFFFFFFFFFFFFFFFFFFFFFFFFFFFF AND DUP1 SWAP3 SWAP2 SWAP1 PUSH2 0x1EE9 SWAP1 PUSH2 0x42E8 JUMP JUMPDEST SWAP2 SWAP1 PUSH2 0x100 EXP DUP2 SLOAD DUP2 PUSH16 0xFFFFFFFFFFFFFFFFFFFFFFFFFFFFFFFF MUL NOT AND SWAP1 DUP4 PUSH16 0xFFFFFFFFFFFFFFFFFFFFFFFFFFFFFFFF AND MUL OR SWAP1 SSTORE POP POP DUP2 DUP4 PUSH1 0x1 ADD PUSH1 0x0 DUP6 PUSH1 0x0 ADD PUSH1 0x0 SWAP1 SLOAD SWAP1 PUSH2 0x100 EXP SWAP1 DIV PUSH16 0xFFFFFFFFFFFFFFFFFFFFFFFFFFFFFFFF AND PUSH16 0xFFFFFFFFFFFFFFFFFFFFFFFFFFFFFFFF AND PUSH16 0xFFFFFFFFFFFFFFFFFFFFFFFFFFFFFFFF AND DUP2 MSTORE PUSH1 0x20 ADD SWAP1 DUP2 MSTORE PUSH1 0x20 ADD PUSH1 0x0 KECCAK256 DUP2 SWAP1 SSTORE POP PUSH1 0x1 SWAP1 POP SWAP3 SWAP2 POP POP JUMP JUMPDEST PUSH1 0x0 PUSH1 0x2 DUP6 PUSH1 0x0 ADD PUSH1 0x14 SWAP1 SLOAD SWAP1 PUSH2 0x100 EXP SWAP1 DIV PUSH1 0xFF AND PUSH1 0xFF AND EQ PUSH2 0x1FE1 JUMPI PUSH1 0x40 MLOAD PUSH32 0x8C379A000000000000000000000000000000000000000000000000000000000 DUP2 MSTORE PUSH1 0x4 ADD PUSH2 0x1FD8 SWAP1 PUSH2 0x3987 JUMP JUMPDEST PUSH1 0x40 MLOAD DUP1 SWAP2 SUB SWAP1 REVERT JUMPDEST DUP5 PUSH1 0x2 ADD SLOAD TIMESTAMP LT ISZERO PUSH2 0x2028 JUMPI PUSH1 0x40 MLOAD PUSH32 0x8C379A000000000000000000000000000000000000000000000000000000000 DUP2 MSTORE PUSH1 0x4 ADD PUSH2 0x201F SWAP1 PUSH2 0x3A67 JUMP JUMPDEST PUSH1 0x40 MLOAD DUP1 SWAP2 SUB SWAP1 REVERT JUMPDEST DUP5 PUSH1 0x3 ADD SLOAD TIMESTAMP GT ISZERO PUSH2 0x203D JUMPI PUSH1 0x0 SWAP1 POP PUSH2 0x2207 JUMP JUMPDEST DUP5 PUSH1 0x6 ADD PUSH1 0x0 DUP6 PUSH20 0xFFFFFFFFFFFFFFFFFFFFFFFFFFFFFFFFFFFFFFFF AND PUSH20 0xFFFFFFFFFFFFFFFFFFFFFFFFFFFFFFFFFFFFFFFF AND DUP2 MSTORE PUSH1 0x20 ADD SWAP1 DUP2 MSTORE PUSH1 0x20 ADD PUSH1 0x0 KECCAK256 PUSH1 0x0 SWAP1 SLOAD SWAP1 PUSH2 0x100 EXP SWAP1 DIV PUSH1 0xFF AND PUSH2 0x20CB JUMPI PUSH1 0x40 MLOAD PUSH32 0x8C379A000000000000000000000000000000000000000000000000000000000 DUP2 MSTORE PUSH1 0x4 ADD PUSH2 0x20C2 SWAP1 PUSH2 0x3AA7 JUMP JUMPDEST PUSH1 0x40 MLOAD DUP1 SWAP2 SUB SWAP1 REVERT JUMPDEST PUSH1 0x0 JUMPDEST DUP6 PUSH1 0x4 ADD PUSH1 0x0 SWAP1 SLOAD SWAP1 PUSH2 0x100 EXP SWAP1 DIV PUSH2 0xFFFF AND PUSH2 0xFFFF AND DUP2 PUSH2 0xFFFF AND LT ISZERO PUSH2 0x2201 JUMPI DUP6 PUSH1 0x8 ADD DUP5 DUP3 PUSH2 0xFFFF AND DUP2 MLOAD DUP2 LT PUSH2 0x210B JUMPI PUSH2 0x210A PUSH2 0x43F3 JUMP JUMPDEST JUMPDEST PUSH1 0x20 MUL PUSH1 0x20 ADD ADD MLOAD PUSH1 0x40 MLOAD PUSH2 0x2120 SWAP2 SWAP1 PUSH2 0x3853 JUMP JUMPDEST SWAP1 DUP2 MSTORE PUSH1 0x20 ADD PUSH1 0x40 MLOAD DUP1 SWAP2 SUB SWAP1 KECCAK256 PUSH1 0x0 SWAP1 SLOAD SWAP1 PUSH2 0x100 EXP SWAP1 DIV PUSH1 0xFF AND PUSH2 0x217B JUMPI PUSH1 0x40 MLOAD PUSH32 0x8C379A000000000000000000000000000000000000000000000000000000000 DUP2 MSTORE PUSH1 0x4 ADD PUSH2 0x2172 SWAP1 PUSH2 0x3B27 JUMP JUMPDEST PUSH1 0x40 MLOAD DUP1 SWAP2 SUB SWAP1 REVERT JUMPDEST DUP3 DUP2 PUSH2 0xFFFF AND DUP2 MLOAD DUP2 LT PUSH2 0x2192 JUMPI PUSH2 0x2191 PUSH2 0x43F3 JUMP JUMPDEST JUMPDEST PUSH1 0x20 MUL PUSH1 0x20 ADD ADD MLOAD DUP7 PUSH1 0xB ADD DUP6 DUP4 PUSH2 0xFFFF AND DUP2 MLOAD DUP2 LT PUSH2 0x21B5 JUMPI PUSH2 0x21B4 PUSH2 0x43F3 JUMP JUMPDEST JUMPDEST PUSH1 0x20 MUL PUSH1 0x20 ADD ADD MLOAD PUSH1 0x40 MLOAD PUSH2 0x21CA SWAP2 SWAP1 PUSH2 0x3853 JUMP JUMPDEST SWAP1 DUP2 MSTORE PUSH1 0x20 ADD PUSH1 0x40 MLOAD DUP1 SWAP2 SUB SWAP1 KECCAK256 PUSH1 0x0 DUP3 DUP3 SLOAD PUSH2 0x21E7 SWAP2 SWAP1 PUSH2 0x40E0 JUMP JUMPDEST SWAP3 POP POP DUP2 SWAP1 SSTORE POP DUP1 DUP1 PUSH2 0x21F9 SWAP1 PUSH2 0x4321 JUMP JUMPDEST SWAP2 POP POP PUSH2 0x20CE JUMP JUMPDEST POP PUSH1 0x1 SWAP1 POP JUMPDEST SWAP5 SWAP4 POP POP POP POP JUMP JUMPDEST PUSH1 0x0 DUP4 PUSH1 0x0 ADD PUSH1 0x10 DUP2 DUP2 SWAP1 SLOAD SWAP1 PUSH2 0x100 EXP SWAP1 DIV PUSH16 0xFFFFFFFFFFFFFFFFFFFFFFFFFFFFFFFF AND DUP1 SWAP3 SWAP2 SWAP1 PUSH2 0x2241 SWAP1 PUSH2 0x42E8 JUMP JUMPDEST SWAP2 SWAP1 PUSH2 0x100 EXP DUP2 SLOAD DUP2 PUSH16 0xFFFFFFFFFFFFFFFFFFFFFFFFFFFFFFFF MUL NOT AND SWAP1 DUP4 PUSH16 0xFFFFFFFFFFFFFFFFFFFFFFFFFFFFFFFF AND MUL OR SWAP1 SSTORE POP POP DUP3 DUP5 PUSH1 0x2 ADD PUSH1 0x0 DUP7 PUSH1 0x0 ADD PUSH1 0x10 SWAP1 SLOAD SWAP1 PUSH2 0x100 EXP SWAP1 DIV PUSH16 0xFFFFFFFFFFFFFFFFFFFFFFFFFFFFFFFF AND PUSH16 0xFFFFFFFFFFFFFFFFFFFFFFFFFFFFFFFF AND PUSH16 0xFFFFFFFFFFFFFFFFFFFFFFFFFFFFFFFF AND DUP2 MSTORE PUSH1 0x20 ADD SWAP1 DUP2 MSTORE PUSH1 0x20 ADD PUSH1 0x0 KECCAK256 DUP2 SWAP1 SSTORE POP PUSH1 0x0 JUMPDEST DUP3 MLOAD DUP2 PUSH2 0xFFFF AND LT ISZERO PUSH2 0x2362 JUMPI DUP3 DUP2 PUSH2 0xFFFF AND DUP2 MLOAD DUP2 LT PUSH2 0x22FD JUMPI PUSH2 0x22FC PUSH2 0x43F3 JUMP JUMPDEST JUMPDEST PUSH1 0x20 MUL PUSH1 0x20 ADD ADD MLOAD DUP6 PUSH1 0x3 ADD PUSH1 0x0 DUP7 DUP2 MSTORE PUSH1 0x20 ADD SWAP1 DUP2 MSTORE PUSH1 0x20 ADD PUSH1 0x0 KECCAK256 PUSH1 0x0 PUSH1 0x1 DUP5 PUSH2 0x2329 SWAP2 SWAP1 PUSH2 0x40A8 JUMP JUMPDEST PUSH2 0xFFFF AND DUP2 MSTORE PUSH1 0x20 ADD SWAP1 DUP2 MSTORE PUSH1 0x20 ADD PUSH1 0x0 KECCAK256 SWAP1 DUP1 MLOAD SWAP1 PUSH1 0x20 ADD SWAP1 PUSH2 0x234E SWAP3 SWAP2 SWAP1 PUSH2 0x2992 JUMP JUMPDEST POP DUP1 DUP1 PUSH2 0x235A SWAP1 PUSH2 0x4321 JUMP JUMPDEST SWAP2 POP POP PUSH2 0x22D9 JUMP JUMPDEST POP PUSH1 0x1 DUP5 PUSH1 0x4 ADD PUSH1 0x0 DUP6 DUP2 MSTORE PUSH1 0x20 ADD SWAP1 DUP2 MSTORE PUSH1 0x20 ADD PUSH1 0x0 KECCAK256 PUSH1 0x0 PUSH2 0x100 EXP DUP2 SLOAD DUP2 PUSH1 0xFF MUL NOT AND SWAP1 DUP4 ISZERO ISZERO MUL OR SWAP1 SSTORE POP PUSH1 0x1 SWAP1 POP SWAP4 SWAP3 POP POP POP JUMP JUMPDEST PUSH1 0x0 DUP1 DUP3 PUSH1 0x0 ADD SLOAD EQ ISZERO PUSH2 0x23E5 JUMPI PUSH1 0x40 MLOAD PUSH32 0x8C379A000000000000000000000000000000000000000000000000000000000 DUP2 MSTORE PUSH1 0x4 ADD PUSH2 0x23DC SWAP1 PUSH2 0x3C03 JUMP JUMPDEST PUSH1 0x40 MLOAD DUP1 SWAP2 SUB SWAP1 REVERT JUMPDEST DUP2 PUSH1 0x1 ADD PUSH1 0x14 SWAP1 SLOAD SWAP1 PUSH2 0x100 EXP SWAP1 DIV PUSH1 0xFF AND ISZERO PUSH2 0x2437 JUMPI PUSH1 0x40 MLOAD PUSH32 0x8C379A000000000000000000000000000000000000000000000000000000000 DUP2 MSTORE PUSH1 0x4 ADD PUSH2 0x242E SWAP1 PUSH2 0x3C5F JUMP JUMPDEST PUSH1 0x40 MLOAD DUP1 SWAP2 SUB SWAP1 REVERT JUMPDEST PUSH1 0x0 DUP3 PUSH1 0x2 ADD DUP2 SWAP1 SSTORE POP PUSH1 0x1 SWAP1 POP SWAP2 SWAP1 POP JUMP JUMPDEST PUSH1 0x0 DUP2 PUSH1 0x3 ADD SLOAD TIMESTAMP GT PUSH2 0x2492 JUMPI PUSH1 0x40 MLOAD PUSH32 0x8C379A000000000000000000000000000000000000000000000000000000000 DUP2 MSTORE PUSH1 0x4 ADD PUSH2 0x2489 SWAP1 PUSH2 0x3B07 JUMP JUMPDEST PUSH1 0x40 MLOAD DUP1 SWAP2 SUB SWAP1 REVERT JUMPDEST PUSH1 0x3 DUP3 PUSH1 0x0 ADD PUSH1 0x14 PUSH2 0x100 EXP DUP2 SLOAD DUP2 PUSH1 0xFF MUL NOT AND SWAP1 DUP4 PUSH1 0xFF AND MUL OR SWAP1 SSTORE POP PUSH1 0x0 DUP3 PUSH1 0xB ADD DUP4 PUSH1 0x9 ADD PUSH1 0x0 PUSH1 0x1 DUP2 MSTORE PUSH1 0x20 ADD SWAP1 DUP2 MSTORE PUSH1 0x20 ADD PUSH1 0x0 KECCAK256 PUSH1 0x40 MLOAD PUSH2 0x24D9 SWAP2 SWAP1 PUSH2 0x386A JUMP JUMPDEST SWAP1 DUP2 MSTORE PUSH1 0x20 ADD PUSH1 0x40 MLOAD DUP1 SWAP2 SUB SWAP1 KECCAK256 SLOAD SWAP1 POP PUSH1 0x0 PUSH1 0x1 SWAP1 POP DUP4 PUSH1 0x9 ADD PUSH1 0x0 PUSH1 0x1 DUP2 MSTORE PUSH1 0x20 ADD SWAP1 DUP2 MSTORE PUSH1 0x20 ADD PUSH1 0x0 KECCAK256 DUP5 PUSH1 0xA ADD PUSH1 0x0 PUSH1 0x1 DUP2 MSTORE PUSH1 0x20 ADD SWAP1 DUP2 MSTORE PUSH1 0x20 ADD PUSH1 0x0 KECCAK256 SWAP1 DUP1 SLOAD PUSH2 0x2528 SWAP1 PUSH2 0x4285 JUMP JUMPDEST PUSH2 0x2533 SWAP3 SWAP2 SWAP1 PUSH2 0x2A9E JUMP JUMPDEST POP PUSH1 0x0 PUSH1 0x2 SWAP1 POP JUMPDEST DUP5 PUSH1 0x4 ADD PUSH1 0x0 SWAP1 SLOAD SWAP1 PUSH2 0x100 EXP SWAP1 DIV PUSH2 0xFFFF AND PUSH2 0xFFFF AND DUP2 PUSH2 0xFFFF AND GT PUSH2 0x26D0 JUMPI DUP3 DUP6 PUSH1 0xB ADD DUP7 PUSH1 0x9 ADD PUSH1 0x0 DUP5 PUSH2 0xFFFF AND DUP2 MSTORE PUSH1 0x20 ADD SWAP1 DUP2 MSTORE PUSH1 0x20 ADD PUSH1 0x0 KECCAK256 PUSH1 0x40 MLOAD PUSH2 0x2587 SWAP2 SWAP1 PUSH2 0x386A JUMP JUMPDEST SWAP1 DUP2 MSTORE PUSH1 0x20 ADD PUSH1 0x40 MLOAD DUP1 SWAP2 SUB SWAP1 KECCAK256 SLOAD GT ISZERO PUSH2 0x2627 JUMPI DUP5 PUSH1 0xB ADD DUP6 PUSH1 0x9 ADD PUSH1 0x0 DUP4 PUSH2 0xFFFF AND DUP2 MSTORE PUSH1 0x20 ADD SWAP1 DUP2 MSTORE PUSH1 0x20 ADD PUSH1 0x0 KECCAK256 PUSH1 0x40 MLOAD PUSH2 0x25C6 SWAP2 SWAP1 PUSH2 0x386A JUMP JUMPDEST SWAP1 DUP2 MSTORE PUSH1 0x20 ADD PUSH1 0x40 MLOAD DUP1 SWAP2 SUB SWAP1 KECCAK256 SLOAD SWAP3 POP PUSH1 0x1 SWAP2 POP DUP5 PUSH1 0x9 ADD PUSH1 0x0 DUP3 PUSH2 0xFFFF AND DUP2 MSTORE PUSH1 0x20 ADD SWAP1 DUP2 MSTORE PUSH1 0x20 ADD PUSH1 0x0 KECCAK256 DUP6 PUSH1 0xA ADD PUSH1 0x0 PUSH1 0x1 DUP2 MSTORE PUSH1 0x20 ADD SWAP1 DUP2 MSTORE PUSH1 0x20 ADD PUSH1 0x0 KECCAK256 SWAP1 DUP1 SLOAD PUSH2 0x2616 SWAP1 PUSH2 0x4285 JUMP JUMPDEST PUSH2 0x2621 SWAP3 SWAP2 SWAP1 PUSH2 0x2A9E JUMP JUMPDEST POP PUSH2 0x26BD JUMP JUMPDEST DUP3 DUP6 PUSH1 0xB ADD DUP7 PUSH1 0x9 ADD PUSH1 0x0 DUP5 PUSH2 0xFFFF AND DUP2 MSTORE PUSH1 0x20 ADD SWAP1 DUP2 MSTORE PUSH1 0x20 ADD PUSH1 0x0 KECCAK256 PUSH1 0x40 MLOAD PUSH2 0x2652 SWAP2 SWAP1 PUSH2 0x386A JUMP JUMPDEST SWAP1 DUP2 MSTORE PUSH1 0x20 ADD PUSH1 0x40 MLOAD DUP1 SWAP2 SUB SWAP1 KECCAK256 SLOAD EQ ISZERO PUSH2 0x26BC JUMPI DUP2 DUP1 PUSH2 0x2672 SWAP1 PUSH2 0x434C JUMP JUMPDEST SWAP3 POP POP DUP5 PUSH1 0x9 ADD PUSH1 0x0 DUP3 PUSH2 0xFFFF AND DUP2 MSTORE PUSH1 0x20 ADD SWAP1 DUP2 MSTORE PUSH1 0x20 ADD PUSH1 0x0 KECCAK256 DUP6 PUSH1 0xA ADD PUSH1 0x0 DUP5 DUP2 MSTORE PUSH1 0x20 ADD SWAP1 DUP2 MSTORE PUSH1 0x20 ADD PUSH1 0x0 KECCAK256 SWAP1 DUP1 SLOAD PUSH2 0x26AF SWAP1 PUSH2 0x4285 JUMP JUMPDEST PUSH2 0x26BA SWAP3 SWAP2 SWAP1 PUSH2 0x2A9E JUMP JUMPDEST POP JUMPDEST JUMPDEST DUP1 DUP1 PUSH2 0x26C8 SWAP1 PUSH2 0x4321 JUMP JUMPDEST SWAP2 POP POP PUSH2 0x253B JUMP JUMPDEST POP DUP1 DUP5 PUSH1 0x7 ADD DUP2 SWAP1 SSTORE POP PUSH1 0x1 SWAP3 POP POP POP SWAP2 SWAP1 POP JUMP JUMPDEST PUSH1 0x0 PUSH20 0xFFFFFFFFFFFFFFFFFFFFFFFFFFFFFFFFFFFFFFFF AND DUP3 PUSH20 0xFFFFFFFFFFFFFFFFFFFFFFFFFFFFFFFFFFFFFFFF AND EQ ISZERO PUSH2 0x2755 JUMPI PUSH1 0x40 MLOAD PUSH32 0x8C379A000000000000000000000000000000000000000000000000000000000 DUP2 MSTORE PUSH1 0x4 ADD PUSH2 0x274C SWAP1 PUSH2 0x3B67 JUMP JUMPDEST PUSH1 0x40 MLOAD DUP1 SWAP2 SUB SWAP1 REVERT JUMPDEST PUSH1 0x0 DUP1 PUSH1 0x0 DUP5 PUSH20 0xFFFFFFFFFFFFFFFFFFFFFFFFFFFFFFFFFFFFFFFF AND PUSH20 0xFFFFFFFFFFFFFFFFFFFFFFFFFFFFFFFFFFFFFFFF AND DUP2 MSTORE PUSH1 0x20 ADD SWAP1 DUP2 MSTORE PUSH1 0x20 ADD PUSH1 0x0 KECCAK256 SLOAD SWAP1 POP DUP2 DUP2 LT ISZERO PUSH2 0x27DB JUMPI PUSH1 0x40 MLOAD PUSH32 0x8C379A000000000000000000000000000000000000000000000000000000000 DUP2 MSTORE PUSH1 0x4 ADD PUSH2 0x27D2 SWAP1 PUSH2 0x39C7 JUMP JUMPDEST PUSH1 0x40 MLOAD DUP1 SWAP2 SUB SWAP1 REVERT JUMPDEST DUP2 DUP2 SUB PUSH1 0x0 DUP1 DUP6 PUSH20 0xFFFFFFFFFFFFFFFFFFFFFFFFFFFFFFFFFFFFFFFF AND PUSH20 0xFFFFFFFFFFFFFFFFFFFFFFFFFFFFFFFFFFFFFFFF AND DUP2 MSTORE PUSH1 0x20 ADD SWAP1 DUP2 MSTORE PUSH1 0x20 ADD PUSH1 0x0 KECCAK256 DUP2 SWAP1 SSTORE POP DUP2 PUSH1 0x1 PUSH1 0x0 DUP3 DUP3 SLOAD PUSH2 0x2832 SWAP2 SWAP1 PUSH2 0x4190 JUMP JUMPDEST SWAP3 POP POP DUP2 SWAP1 SSTORE POP PUSH32 0xABF5327BE9F5825C40D58BDA541DD07F09B62DF3376BBD5ECDBAA8BD82A9D492 DUP4 DUP4 PUSH1 0x40 MLOAD PUSH2 0x286A SWAP3 SWAP2 SWAP1 PUSH2 0x3C23 JUMP JUMPDEST PUSH1 0x40 MLOAD DUP1 SWAP2 SUB SWAP1 LOG1 POP POP POP JUMP JUMPDEST PUSH1 0x0 PUSH20 0xFFFFFFFFFFFFFFFFFFFFFFFFFFFFFFFFFFFFFFFF AND DUP3 PUSH20 0xFFFFFFFFFFFFFFFFFFFFFFFFFFFFFFFFFFFFFFFF AND EQ ISZERO PUSH2 0x28E7 JUMPI PUSH1 0x40 MLOAD PUSH32 0x8C379A000000000000000000000000000000000000000000000000000000000 DUP2 MSTORE PUSH1 0x4 ADD PUSH2 0x28DE SWAP1 PUSH2 0x3C7F JUMP JUMPDEST PUSH1 0x40 MLOAD DUP1 SWAP2 SUB SWAP1 REVERT JUMPDEST DUP1 PUSH1 0x1 PUSH1 0x0 DUP3 DUP3 SLOAD PUSH2 0x28F9 SWAP2 SWAP1 PUSH2 0x40E0 JUMP JUMPDEST SWAP3 POP POP DUP2 SWAP1 SSTORE POP DUP1 PUSH1 0x0 DUP1 DUP5 PUSH20 0xFFFFFFFFFFFFFFFFFFFFFFFFFFFFFFFFFFFFFFFF AND PUSH20 0xFFFFFFFFFFFFFFFFFFFFFFFFFFFFFFFFFFFFFFFF AND DUP2 MSTORE PUSH1 0x20 ADD SWAP1 DUP2 MSTORE PUSH1 0x20 ADD PUSH1 0x0 KECCAK256 PUSH1 0x0 DUP3 DUP3 SLOAD PUSH2 0x294E SWAP2 SWAP1 PUSH2 0x40E0 JUMP JUMPDEST SWAP3 POP POP DUP2 SWAP1 SSTORE POP PUSH32 0xABF5327BE9F5825C40D58BDA541DD07F09B62DF3376BBD5ECDBAA8BD82A9D492 DUP3 DUP3 PUSH1 0x40 MLOAD PUSH2 0x2986 SWAP3 SWAP2 SWAP1 PUSH2 0x3BC7 JUMP JUMPDEST PUSH1 0x40 MLOAD DUP1 SWAP2 SUB SWAP1 LOG1 POP POP JUMP JUMPDEST DUP3 DUP1 SLOAD PUSH2 0x299E SWAP1 PUSH2 0x4285 JUMP JUMPDEST SWAP1 PUSH1 0x0 MSTORE PUSH1 0x20 PUSH1 0x0 KECCAK256 SWAP1 PUSH1 0x1F ADD PUSH1 0x20 SWAP1 DIV DUP2 ADD SWAP3 DUP3 PUSH2 0x29C0 JUMPI PUSH1 0x0 DUP6 SSTORE PUSH2 0x2A07 JUMP JUMPDEST DUP3 PUSH1 0x1F LT PUSH2 0x29D9 JUMPI DUP1 MLOAD PUSH1 0xFF NOT AND DUP4 DUP1 ADD OR DUP6 SSTORE PUSH2 0x2A07 JUMP JUMPDEST DUP3 DUP1 ADD PUSH1 0x1 ADD DUP6 SSTORE DUP3 ISZERO PUSH2 0x2A07 JUMPI SWAP2 DUP3 ADD JUMPDEST DUP3 DUP2 GT ISZERO PUSH2 0x2A06 JUMPI DUP3 MLOAD DUP3 SSTORE SWAP2 PUSH1 0x20 ADD SWAP2 SWAP1 PUSH1 0x1 ADD SWAP1 PUSH2 0x29EB JUMP JUMPDEST JUMPDEST POP SWAP1 POP PUSH2 0x2A14 SWAP2 SWAP1 PUSH2 0x2B2B JUMP JUMPDEST POP SWAP1 JUMP JUMPDEST DUP3 DUP1 SLOAD PUSH2 0x2A24 SWAP1 PUSH2 0x4285 JUMP JUMPDEST SWAP1 PUSH1 0x0 MSTORE PUSH1 0x20 PUSH1 0x0 KECCAK256 SWAP1 PUSH1 0x1F ADD PUSH1 0x20 SWAP1 DIV DUP2 ADD SWAP3 DUP3 PUSH2 0x2A46 JUMPI PUSH1 0x0 DUP6 SSTORE PUSH2 0x2A8D JUMP JUMPDEST DUP3 PUSH1 0x1F LT PUSH2 0x2A5F JUMPI DUP1 CALLDATALOAD PUSH1 0xFF NOT AND DUP4 DUP1 ADD OR DUP6 SSTORE PUSH2 0x2A8D JUMP JUMPDEST DUP3 DUP1 ADD PUSH1 0x1 ADD DUP6 SSTORE DUP3 ISZERO PUSH2 0x2A8D JUMPI SWAP2 DUP3 ADD JUMPDEST DUP3 DUP2 GT ISZERO PUSH2 0x2A8C JUMPI DUP3 CALLDATALOAD DUP3 SSTORE SWAP2 PUSH1 0x20 ADD SWAP2 SWAP1 PUSH1 0x1 ADD SWAP1 PUSH2 0x2A71 JUMP JUMPDEST JUMPDEST POP SWAP1 POP PUSH2 0x2A9A SWAP2 SWAP1 PUSH2 0x2B2B JUMP JUMPDEST POP SWAP1 JUMP JUMPDEST DUP3 DUP1 SLOAD PUSH2 0x2AAA SWAP1 PUSH2 0x4285 JUMP JUMPDEST SWAP1 PUSH1 0x0 MSTORE PUSH1 0x20 PUSH1 0x0 KECCAK256 SWAP1 PUSH1 0x1F ADD PUSH1 0x20 SWAP1 DIV DUP2 ADD SWAP3 DUP3 PUSH2 0x2ACC JUMPI PUSH1 0x0 DUP6 SSTORE PUSH2 0x2B1A JUMP JUMPDEST DUP3 PUSH1 0x1F LT PUSH2 0x2ADD JUMPI DUP1 SLOAD DUP6 SSTORE PUSH2 0x2B1A JUMP JUMPDEST DUP3 DUP1 ADD PUSH1 0x1 ADD DUP6 SSTORE DUP3 ISZERO PUSH2 0x2B1A JUMPI PUSH1 0x0 MSTORE PUSH1 0x20 PUSH1 0x0 KECCAK256 SWAP2 PUSH1 0x1F ADD PUSH1 0x20 SWAP1 DIV DUP3 ADD JUMPDEST DUP3 DUP2 GT ISZERO PUSH2 0x2B19 JUMPI DUP3 SLOAD DUP3 SSTORE SWAP2 PUSH1 0x1 ADD SWAP2 SWAP1 PUSH1 0x1 ADD SWAP1 PUSH2 0x2AFE JUMP JUMPDEST JUMPDEST POP SWAP1 POP PUSH2 0x2B27 SWAP2 SWAP1 PUSH2 0x2B2B JUMP JUMPDEST POP SWAP1 JUMP JUMPDEST JUMPDEST DUP1 DUP3 GT ISZERO PUSH2 0x2B44 JUMPI PUSH1 0x0 DUP2 PUSH1 0x0 SWAP1 SSTORE POP PUSH1 0x1 ADD PUSH2 0x2B2C JUMP JUMPDEST POP SWAP1 JUMP JUMPDEST PUSH1 0x0 PUSH2 0x2B5B PUSH2 0x2B56 DUP5 PUSH2 0x3E81 JUMP JUMPDEST PUSH2 0x3E5C JUMP JUMPDEST SWAP1 POP DUP1 DUP4 DUP3 MSTORE PUSH1 0x20 DUP3 ADD SWAP1 POP DUP3 DUP6 PUSH1 0x20 DUP7 MUL DUP3 ADD GT ISZERO PUSH2 0x2B7E JUMPI PUSH2 0x2B7D PUSH2 0x446F JUMP JUMPDEST JUMPDEST PUSH1 0x0 JUMPDEST DUP6 DUP2 LT ISZERO PUSH2 0x2BAE JUMPI DUP2 PUSH2 0x2B94 DUP9 DUP3 PUSH2 0x2CF8 JUMP JUMPDEST DUP5 MSTORE PUSH1 0x20 DUP5 ADD SWAP4 POP PUSH1 0x20 DUP4 ADD SWAP3 POP POP PUSH1 0x1 DUP2 ADD SWAP1 POP PUSH2 0x2B81 JUMP JUMPDEST POP POP POP SWAP4 SWAP3 POP POP POP JUMP JUMPDEST PUSH1 0x0 PUSH2 0x2BCB PUSH2 0x2BC6 DUP5 PUSH2 0x3EAD JUMP JUMPDEST PUSH2 0x3E5C JUMP JUMPDEST SWAP1 POP DUP1 DUP4 DUP3 MSTORE PUSH1 0x20 DUP3 ADD SWAP1 POP DUP3 DUP6 PUSH1 0x20 DUP7 MUL DUP3 ADD GT ISZERO PUSH2 0x2BEE JUMPI PUSH2 0x2BED PUSH2 0x446F JUMP JUMPDEST JUMPDEST PUSH1 0x0 JUMPDEST DUP6 DUP2 LT ISZERO PUSH2 0x2C3C JUMPI DUP2 CALLDATALOAD PUSH8 0xFFFFFFFFFFFFFFFF DUP2 GT ISZERO PUSH2 0x2C14 JUMPI PUSH2 0x2C13 PUSH2 0x445B JUMP JUMPDEST JUMPDEST DUP1 DUP7 ADD PUSH2 0x2C21 DUP10 DUP3 PUSH2 0x2DED JUMP JUMPDEST DUP6 MSTORE PUSH1 0x20 DUP6 ADD SWAP5 POP PUSH1 0x20 DUP5 ADD SWAP4 POP POP POP PUSH1 0x1 DUP2 ADD SWAP1 POP PUSH2 0x2BF1 JUMP JUMPDEST POP POP POP SWAP4 SWAP3 POP POP POP JUMP JUMPDEST PUSH1 0x0 PUSH2 0x2C59 PUSH2 0x2C54 DUP5 PUSH2 0x3ED9 JUMP JUMPDEST PUSH2 0x3E5C JUMP JUMPDEST SWAP1 POP DUP1 DUP4 DUP3 MSTORE PUSH1 0x20 DUP3 ADD SWAP1 POP DUP3 DUP6 PUSH1 0x20 DUP7 MUL DUP3 ADD GT ISZERO PUSH2 0x2C7C JUMPI PUSH2 0x2C7B PUSH2 0x446F JUMP JUMPDEST JUMPDEST PUSH1 0x0 JUMPDEST DUP6 DUP2 LT ISZERO PUSH2 0x2CAC JUMPI DUP2 PUSH2 0x2C92 DUP9 DUP3 PUSH2 0x2E1B JUMP JUMPDEST DUP5 MSTORE PUSH1 0x20 DUP5 ADD SWAP4 POP PUSH1 0x20 DUP4 ADD SWAP3 POP POP PUSH1 0x1 DUP2 ADD SWAP1 POP PUSH2 0x2C7F JUMP JUMPDEST POP POP POP SWAP4 SWAP3 POP POP POP JUMP JUMPDEST PUSH1 0x0 PUSH2 0x2CC9 PUSH2 0x2CC4 DUP5 PUSH2 0x3F05 JUMP JUMPDEST PUSH2 0x3E5C JUMP JUMPDEST SWAP1 POP DUP3 DUP2 MSTORE PUSH1 0x20 DUP2 ADD DUP5 DUP5 DUP5 ADD GT ISZERO PUSH2 0x2CE5 JUMPI PUSH2 0x2CE4 PUSH2 0x4479 JUMP JUMPDEST JUMPDEST PUSH2 0x2CF0 DUP5 DUP3 DUP6 PUSH2 0x4243 JUMP JUMPDEST POP SWAP4 SWAP3 POP POP POP JUMP JUMPDEST PUSH1 0x0 DUP2 CALLDATALOAD SWAP1 POP PUSH2 0x2D07 DUP2 PUSH2 0x497D JUMP JUMPDEST SWAP3 SWAP2 POP POP JUMP JUMPDEST PUSH1 0x0 DUP3 PUSH1 0x1F DUP4 ADD SLT PUSH2 0x2D22 JUMPI PUSH2 0x2D21 PUSH2 0x445B JUMP JUMPDEST JUMPDEST DUP2 CALLDATALOAD PUSH2 0x2D32 DUP5 DUP3 PUSH1 0x20 DUP7 ADD PUSH2 0x2B48 JUMP JUMPDEST SWAP2 POP POP SWAP3 SWAP2 POP POP JUMP JUMPDEST PUSH1 0x0 DUP1 DUP4 PUSH1 0x1F DUP5 ADD SLT PUSH2 0x2D51 JUMPI PUSH2 0x2D50 PUSH2 0x445B JUMP JUMPDEST JUMPDEST DUP3 CALLDATALOAD SWAP1 POP PUSH8 0xFFFFFFFFFFFFFFFF DUP2 GT ISZERO PUSH2 0x2D6E JUMPI PUSH2 0x2D6D PUSH2 0x4456 JUMP JUMPDEST JUMPDEST PUSH1 0x20 DUP4 ADD SWAP2 POP DUP4 PUSH1 0x20 DUP3 MUL DUP4 ADD GT ISZERO PUSH2 0x2D8A JUMPI PUSH2 0x2D89 PUSH2 0x446F JUMP JUMPDEST JUMPDEST SWAP3 POP SWAP3 SWAP1 POP JUMP JUMPDEST PUSH1 0x0 DUP3 PUSH1 0x1F DUP4 ADD SLT PUSH2 0x2DA6 JUMPI PUSH2 0x2DA5 PUSH2 0x445B JUMP JUMPDEST JUMPDEST DUP2 CALLDATALOAD PUSH2 0x2DB6 DUP5 DUP3 PUSH1 0x20 DUP7 ADD PUSH2 0x2BB8 JUMP JUMPDEST SWAP2 POP POP SWAP3 SWAP2 POP POP JUMP JUMPDEST PUSH1 0x0 DUP3 PUSH1 0x1F DUP4 ADD SLT PUSH2 0x2DD4 JUMPI PUSH2 0x2DD3 PUSH2 0x445B JUMP JUMPDEST JUMPDEST DUP2 CALLDATALOAD PUSH2 0x2DE4 DUP5 DUP3 PUSH1 0x20 DUP7 ADD PUSH2 0x2C46 JUMP JUMPDEST SWAP2 POP POP SWAP3 SWAP2 POP POP JUMP JUMPDEST PUSH1 0x0 DUP3 PUSH1 0x1F DUP4 ADD SLT PUSH2 0x2E02 JUMPI PUSH2 0x2E01 PUSH2 0x445B JUMP JUMPDEST JUMPDEST DUP2 CALLDATALOAD PUSH2 0x2E12 DUP5 DUP3 PUSH1 0x20 DUP7 ADD PUSH2 0x2CB6 JUMP JUMPDEST SWAP2 POP POP SWAP3 SWAP2 POP POP JUMP JUMPDEST PUSH1 0x0 DUP2 CALLDATALOAD SWAP1 POP PUSH2 0x2E2A DUP2 PUSH2 0x4994 JUMP JUMPDEST SWAP3 SWAP2 POP POP JUMP JUMPDEST PUSH1 0x0 DUP2 CALLDATALOAD SWAP1 POP PUSH2 0x2E3F DUP2 PUSH2 0x49AB JUMP JUMPDEST SWAP3 SWAP2 POP POP JUMP JUMPDEST PUSH1 0x0 PUSH1 0x20 DUP3 DUP5 SUB SLT ISZERO PUSH2 0x2E5B JUMPI PUSH2 0x2E5A PUSH2 0x4488 JUMP JUMPDEST JUMPDEST PUSH1 0x0 PUSH2 0x2E69 DUP5 DUP3 DUP6 ADD PUSH2 0x2CF8 JUMP JUMPDEST SWAP2 POP POP SWAP3 SWAP2 POP POP JUMP JUMPDEST PUSH1 0x0 DUP1 PUSH1 0x40 DUP4 DUP6 SUB SLT ISZERO PUSH2 0x2E89 JUMPI PUSH2 0x2E88 PUSH2 0x4488 JUMP JUMPDEST JUMPDEST PUSH1 0x0 PUSH2 0x2E97 DUP6 DUP3 DUP7 ADD PUSH2 0x2CF8 JUMP JUMPDEST SWAP3 POP POP PUSH1 0x20 PUSH2 0x2EA8 DUP6 DUP3 DUP7 ADD PUSH2 0x2E1B JUMP JUMPDEST SWAP2 POP POP SWAP3 POP SWAP3 SWAP1 POP JUMP JUMPDEST PUSH1 0x0 PUSH1 0x20 DUP3 DUP5 SUB SLT ISZERO PUSH2 0x2EC8 JUMPI PUSH2 0x2EC7 PUSH2 0x4488 JUMP JUMPDEST JUMPDEST PUSH1 0x0 PUSH2 0x2ED6 DUP5 DUP3 DUP6 ADD PUSH2 0x2E1B JUMP JUMPDEST SWAP2 POP POP SWAP3 SWAP2 POP POP JUMP JUMPDEST PUSH1 0x0 DUP1 PUSH1 0x40 DUP4 DUP6 SUB SLT ISZERO PUSH2 0x2EF6 JUMPI PUSH2 0x2EF5 PUSH2 0x4488 JUMP JUMPDEST JUMPDEST PUSH1 0x0 PUSH2 0x2F04 DUP6 DUP3 DUP7 ADD PUSH2 0x2E1B JUMP JUMPDEST SWAP3 POP POP PUSH1 0x20 PUSH2 0x2F15 DUP6 DUP3 DUP7 ADD PUSH2 0x2CF8 JUMP JUMPDEST SWAP2 POP POP SWAP3 POP SWAP3 SWAP1 POP JUMP JUMPDEST PUSH1 0x0 DUP1 PUSH1 0x0 DUP1 PUSH1 0x80 DUP6 DUP8 SUB SLT ISZERO PUSH2 0x2F39 JUMPI PUSH2 0x2F38 PUSH2 0x4488 JUMP JUMPDEST JUMPDEST PUSH1 0x0 PUSH2 0x2F47 DUP8 DUP3 DUP9 ADD PUSH2 0x2E1B JUMP JUMPDEST SWAP5 POP POP PUSH1 0x20 PUSH2 0x2F58 DUP8 DUP3 DUP9 ADD PUSH2 0x2CF8 JUMP JUMPDEST SWAP4 POP POP PUSH1 0x40 DUP6 ADD CALLDATALOAD PUSH8 0xFFFFFFFFFFFFFFFF DUP2 GT ISZERO PUSH2 0x2F79 JUMPI PUSH2 0x2F78 PUSH2 0x447E JUMP JUMPDEST JUMPDEST PUSH2 0x2F85 DUP8 DUP3 DUP9 ADD PUSH2 0x2D91 JUMP JUMPDEST SWAP3 POP POP PUSH1 0x60 DUP6 ADD CALLDATALOAD PUSH8 0xFFFFFFFFFFFFFFFF DUP2 GT ISZERO PUSH2 0x2FA6 JUMPI PUSH2 0x2FA5 PUSH2 0x447E JUMP JUMPDEST JUMPDEST PUSH2 0x2FB2 DUP8 DUP3 DUP9 ADD PUSH2 0x2DBF JUMP JUMPDEST SWAP2 POP POP SWAP3 SWAP6 SWAP2 SWAP5 POP SWAP3 POP JUMP JUMPDEST PUSH1 0x0 DUP1 PUSH1 0x40 DUP4 DUP6 SUB SLT ISZERO PUSH2 0x2FD5 JUMPI PUSH2 0x2FD4 PUSH2 0x4488 JUMP JUMPDEST JUMPDEST PUSH1 0x0 PUSH2 0x2FE3 DUP6 DUP3 DUP7 ADD PUSH2 0x2E1B JUMP JUMPDEST SWAP3 POP POP PUSH1 0x20 DUP4 ADD CALLDATALOAD PUSH8 0xFFFFFFFFFFFFFFFF DUP2 GT ISZERO PUSH2 0x3004 JUMPI PUSH2 0x3003 PUSH2 0x447E JUMP JUMPDEST JUMPDEST PUSH2 0x3010 DUP6 DUP3 DUP7 ADD PUSH2 0x2D0D JUMP JUMPDEST SWAP2 POP POP SWAP3 POP SWAP3 SWAP1 POP JUMP JUMPDEST PUSH1 0x0 DUP1 PUSH1 0x0 DUP1 PUSH1 0x0 DUP1 PUSH1 0x0 DUP1 PUSH1 0x0 PUSH2 0x100 DUP11 DUP13 SUB SLT ISZERO PUSH2 0x303D JUMPI PUSH2 0x303C PUSH2 0x4488 JUMP JUMPDEST JUMPDEST PUSH1 0x0 PUSH2 0x304B DUP13 DUP3 DUP14 ADD PUSH2 0x2E30 JUMP JUMPDEST SWAP10 POP POP PUSH1 0x20 DUP11 ADD CALLDATALOAD PUSH8 0xFFFFFFFFFFFFFFFF DUP2 GT ISZERO PUSH2 0x306C JUMPI PUSH2 0x306B PUSH2 0x447E JUMP JUMPDEST JUMPDEST PUSH2 0x3078 DUP13 DUP3 DUP14 ADD PUSH2 0x2D0D JUMP JUMPDEST SWAP9 POP POP PUSH1 0x40 PUSH2 0x3089 DUP13 DUP3 DUP14 ADD PUSH2 0x2CF8 JUMP JUMPDEST SWAP8 POP POP PUSH1 0x60 PUSH2 0x309A DUP13 DUP3 DUP14 ADD PUSH2 0x2E1B JUMP JUMPDEST SWAP7 POP POP PUSH1 0x80 PUSH2 0x30AB DUP13 DUP3 DUP14 ADD PUSH2 0x2E1B JUMP JUMPDEST SWAP6 POP POP PUSH1 0xA0 DUP11 ADD CALLDATALOAD PUSH8 0xFFFFFFFFFFFFFFFF DUP2 GT ISZERO PUSH2 0x30CC JUMPI PUSH2 0x30CB PUSH2 0x447E JUMP JUMPDEST JUMPDEST PUSH2 0x30D8 DUP13 DUP3 DUP14 ADD PUSH2 0x2DED JUMP JUMPDEST SWAP5 POP POP PUSH1 0xC0 DUP11 ADD CALLDATALOAD PUSH8 0xFFFFFFFFFFFFFFFF DUP2 GT ISZERO PUSH2 0x30F9 JUMPI PUSH2 0x30F8 PUSH2 0x447E JUMP JUMPDEST JUMPDEST PUSH2 0x3105 DUP13 DUP3 DUP14 ADD PUSH2 0x2D3B JUMP JUMPDEST SWAP4 POP SWAP4 POP POP PUSH1 0xE0 PUSH2 0x3118 DUP13 DUP3 DUP14 ADD PUSH2 0x2E1B JUMP JUMPDEST SWAP2 POP POP SWAP3 SWAP6 SWAP9 POP SWAP3 SWAP6 SWAP9 POP SWAP3 SWAP6 SWAP9 JUMP JUMPDEST PUSH1 0x0 PUSH2 0x3134 DUP4 DUP4 PUSH2 0x3182 JUMP JUMPDEST PUSH1 0x20 DUP4 ADD SWAP1 POP SWAP3 SWAP2 POP POP JUMP JUMPDEST PUSH1 0x0 PUSH2 0x314D DUP5 DUP5 DUP5 PUSH2 0x3356 JUMP JUMPDEST SWAP1 POP SWAP4 SWAP3 POP POP POP JUMP JUMPDEST PUSH1 0x0 PUSH2 0x3162 DUP4 DUP4 PUSH2 0x33A8 JUMP JUMPDEST SWAP1 POP SWAP3 SWAP2 POP POP JUMP JUMPDEST PUSH1 0x0 PUSH2 0x3176 DUP4 DUP4 PUSH2 0x380D JUMP JUMPDEST PUSH1 0x20 DUP4 ADD SWAP1 POP SWAP3 SWAP2 POP POP JUMP JUMPDEST PUSH2 0x318B DUP2 PUSH2 0x41C4 JUMP JUMPDEST DUP3 MSTORE POP POP JUMP JUMPDEST PUSH2 0x319A DUP2 PUSH2 0x41C4 JUMP JUMPDEST DUP3 MSTORE POP POP JUMP JUMPDEST PUSH1 0x0 PUSH2 0x31AB DUP3 PUSH2 0x3F85 JUMP JUMPDEST PUSH2 0x31B5 DUP2 DUP6 PUSH2 0x3FE5 JUMP JUMPDEST SWAP4 POP PUSH2 0x31C0 DUP4 PUSH2 0x3F36 JUMP JUMPDEST DUP1 PUSH1 0x0 JUMPDEST DUP4 DUP2 LT ISZERO PUSH2 0x31F1 JUMPI DUP2 MLOAD PUSH2 0x31D8 DUP9 DUP3 PUSH2 0x3128 JUMP JUMPDEST SWAP8 POP PUSH2 0x31E3 DUP4 PUSH2 0x3FB1 JUMP JUMPDEST SWAP3 POP POP PUSH1 0x1 DUP2 ADD SWAP1 POP PUSH2 0x31C4 JUMP JUMPDEST POP DUP6 SWAP4 POP POP POP POP SWAP3 SWAP2 POP POP JUMP JUMPDEST PUSH1 0x0 PUSH2 0x320A DUP4 DUP6 PUSH2 0x3FF6 JUMP JUMPDEST SWAP4 POP DUP4 PUSH1 0x20 DUP5 MUL DUP6 ADD PUSH2 0x321C DUP5 PUSH2 0x3F46 JUMP JUMPDEST DUP1 PUSH1 0x0 JUMPDEST DUP8 DUP2 LT ISZERO PUSH2 0x3262 JUMPI DUP5 DUP5 SUB DUP10 MSTORE PUSH2 0x3237 DUP3 DUP5 PUSH2 0x4045 JUMP JUMPDEST PUSH2 0x3242 DUP7 DUP3 DUP5 PUSH2 0x3140 JUMP JUMPDEST SWAP6 POP PUSH2 0x324D DUP5 PUSH2 0x3FBE JUMP JUMPDEST SWAP4 POP PUSH1 0x20 DUP12 ADD SWAP11 POP POP POP PUSH1 0x1 DUP2 ADD SWAP1 POP PUSH2 0x3220 JUMP JUMPDEST POP DUP3 SWAP8 POP DUP8 SWAP5 POP POP POP POP POP SWAP4 SWAP3 POP POP POP JUMP JUMPDEST PUSH1 0x0 PUSH2 0x327F DUP3 PUSH2 0x3F90 JUMP JUMPDEST PUSH2 0x3289 DUP2 DUP6 PUSH2 0x3FF6 JUMP JUMPDEST SWAP4 POP DUP4 PUSH1 0x20 DUP3 MUL DUP6 ADD PUSH2 0x329B DUP6 PUSH2 0x3F50 JUMP JUMPDEST DUP1 PUSH1 0x0 JUMPDEST DUP6 DUP2 LT ISZERO PUSH2 0x32D7 JUMPI DUP5 DUP5 SUB DUP10 MSTORE DUP2 MLOAD PUSH2 0x32B8 DUP6 DUP3 PUSH2 0x3156 JUMP JUMPDEST SWAP5 POP PUSH2 0x32C3 DUP4 PUSH2 0x3FCB JUMP JUMPDEST SWAP3 POP PUSH1 0x20 DUP11 ADD SWAP10 POP POP PUSH1 0x1 DUP2 ADD SWAP1 POP PUSH2 0x329F JUMP JUMPDEST POP DUP3 SWAP8 POP DUP8 SWAP6 POP POP POP POP POP POP SWAP3 SWAP2 POP POP JUMP JUMPDEST PUSH1 0x0 PUSH2 0x32F4 DUP3 PUSH2 0x3F9B JUMP JUMPDEST PUSH2 0x32FE DUP2 DUP6 PUSH2 0x4007 JUMP JUMPDEST SWAP4 POP PUSH2 0x3309 DUP4 PUSH2 0x3F60 JUMP JUMPDEST DUP1 PUSH1 0x0 JUMPDEST DUP4 DUP2 LT ISZERO PUSH2 0x333A JUMPI DUP2 MLOAD PUSH2 0x3321 DUP9 DUP3 PUSH2 0x316A JUMP JUMPDEST SWAP8 POP PUSH2 0x332C DUP4 PUSH2 0x3FD8 JUMP JUMPDEST SWAP3 POP POP PUSH1 0x1 DUP2 ADD SWAP1 POP PUSH2 0x330D JUMP JUMPDEST POP DUP6 SWAP4 POP POP POP POP SWAP3 SWAP2 POP POP JUMP JUMPDEST PUSH2 0x3350 DUP2 PUSH2 0x41D6 JUMP JUMPDEST DUP3 MSTORE POP POP JUMP JUMPDEST PUSH1 0x0 PUSH2 0x3362 DUP4 DUP6 PUSH2 0x4018 JUMP JUMPDEST SWAP4 POP PUSH2 0x336F DUP4 DUP6 DUP5 PUSH2 0x4243 JUMP JUMPDEST PUSH2 0x3378 DUP4 PUSH2 0x448D JUMP JUMPDEST DUP5 ADD SWAP1 POP SWAP4 SWAP3 POP POP POP JUMP JUMPDEST PUSH1 0x0 PUSH2 0x338F DUP4 DUP6 PUSH2 0x403A JUMP JUMPDEST SWAP4 POP PUSH2 0x339C DUP4 DUP6 DUP5 PUSH2 0x4243 JUMP JUMPDEST DUP3 DUP5 ADD SWAP1 POP SWAP4 SWAP3 POP POP POP JUMP JUMPDEST PUSH1 0x0 PUSH2 0x33B3 DUP3 PUSH2 0x3FA6 JUMP JUMPDEST PUSH2 0x33BD DUP2 DUP6 PUSH2 0x4018 JUMP JUMPDEST SWAP4 POP PUSH2 0x33CD DUP2 DUP6 PUSH1 0x20 DUP7 ADD PUSH2 0x4252 JUMP JUMPDEST PUSH2 0x33D6 DUP2 PUSH2 0x448D JUMP JUMPDEST DUP5 ADD SWAP2 POP POP SWAP3 SWAP2 POP POP JUMP JUMPDEST PUSH1 0x0 PUSH2 0x33EC DUP3 PUSH2 0x3FA6 JUMP JUMPDEST PUSH2 0x33F6 DUP2 DUP6 PUSH2 0x4029 JUMP JUMPDEST SWAP4 POP PUSH2 0x3406 DUP2 DUP6 PUSH1 0x20 DUP7 ADD PUSH2 0x4252 JUMP JUMPDEST PUSH2 0x340F DUP2 PUSH2 0x448D JUMP JUMPDEST DUP5 ADD SWAP2 POP POP SWAP3 SWAP2 POP POP JUMP JUMPDEST PUSH1 0x0 PUSH2 0x3425 DUP3 PUSH2 0x3FA6 JUMP JUMPDEST PUSH2 0x342F DUP2 DUP6 PUSH2 0x403A JUMP JUMPDEST SWAP4 POP PUSH2 0x343F DUP2 DUP6 PUSH1 0x20 DUP7 ADD PUSH2 0x4252 JUMP JUMPDEST DUP1 DUP5 ADD SWAP2 POP POP SWAP3 SWAP2 POP POP JUMP JUMPDEST PUSH1 0x0 DUP2 SLOAD PUSH2 0x3458 DUP2 PUSH2 0x4285 JUMP JUMPDEST PUSH2 0x3462 DUP2 DUP7 PUSH2 0x403A JUMP JUMPDEST SWAP5 POP PUSH1 0x1 DUP3 AND PUSH1 0x0 DUP2 EQ PUSH2 0x347D JUMPI PUSH1 0x1 DUP2 EQ PUSH2 0x348E JUMPI PUSH2 0x34C1 JUMP JUMPDEST PUSH1 0xFF NOT DUP4 AND DUP7 MSTORE DUP2 DUP7 ADD SWAP4 POP PUSH2 0x34C1 JUMP JUMPDEST PUSH2 0x3497 DUP6 PUSH2 0x3F70 JUMP JUMPDEST PUSH1 0x0 JUMPDEST DUP4 DUP2 LT ISZERO PUSH2 0x34B9 JUMPI DUP2 SLOAD DUP2 DUP10 ADD MSTORE PUSH1 0x1 DUP3 ADD SWAP2 POP PUSH1 0x20 DUP2 ADD SWAP1 POP PUSH2 0x349A JUMP JUMPDEST DUP4 DUP9 ADD SWAP6 POP POP POP JUMPDEST POP POP POP SWAP3 SWAP2 POP POP JUMP JUMPDEST PUSH1 0x0 PUSH2 0x34D7 PUSH1 0x12 DUP4 PUSH2 0x4029 JUMP JUMPDEST SWAP2 POP PUSH2 0x34E2 DUP3 PUSH2 0x449E JUMP JUMPDEST PUSH1 0x20 DUP3 ADD SWAP1 POP SWAP2 SWAP1 POP JUMP JUMPDEST PUSH1 0x0 PUSH2 0x34FA PUSH1 0x2C DUP4 PUSH2 0x4029 JUMP JUMPDEST SWAP2 POP PUSH2 0x3505 DUP3 PUSH2 0x44C7 JUMP JUMPDEST PUSH1 0x40 DUP3 ADD SWAP1 POP SWAP2 SWAP1 POP JUMP JUMPDEST PUSH1 0x0 PUSH2 0x351D PUSH1 0x22 DUP4 PUSH2 0x4029 JUMP JUMPDEST SWAP2 POP PUSH2 0x3528 DUP3 PUSH2 0x4516 JUMP JUMPDEST PUSH1 0x40 DUP3 ADD SWAP1 POP SWAP2 SWAP1 POP JUMP JUMPDEST PUSH1 0x0 PUSH2 0x3540 PUSH1 0x1D DUP4 PUSH2 0x4029 JUMP JUMPDEST SWAP2 POP PUSH2 0x354B DUP3 PUSH2 0x4565 JUMP JUMPDEST PUSH1 0x20 DUP3 ADD SWAP1 POP SWAP2 SWAP1 POP JUMP JUMPDEST PUSH1 0x0 PUSH2 0x3563 PUSH1 0xD DUP4 PUSH2 0x4029 JUMP JUMPDEST SWAP2 POP PUSH2 0x356E DUP3 PUSH2 0x458E JUMP JUMPDEST PUSH1 0x20 DUP3 ADD SWAP1 POP SWAP2 SWAP1 POP JUMP JUMPDEST PUSH1 0x0 PUSH2 0x3586 PUSH1 0x14 DUP4 PUSH2 0x4029 JUMP JUMPDEST SWAP2 POP PUSH2 0x3591 DUP3 PUSH2 0x45B7 JUMP JUMPDEST PUSH1 0x20 DUP3 ADD SWAP1 POP SWAP2 SWAP1 POP JUMP JUMPDEST PUSH1 0x0 PUSH2 0x35A9 PUSH1 0x23 DUP4 PUSH2 0x4029 JUMP JUMPDEST SWAP2 POP PUSH2 0x35B4 DUP3 PUSH2 0x45E0 JUMP JUMPDEST PUSH1 0x40 DUP3 ADD SWAP1 POP SWAP2 SWAP1 POP JUMP JUMPDEST PUSH1 0x0 PUSH2 0x35CC PUSH1 0x18 DUP4 PUSH2 0x4029 JUMP JUMPDEST SWAP2 POP PUSH2 0x35D7 DUP3 PUSH2 0x462F JUMP JUMPDEST PUSH1 0x20 DUP3 ADD SWAP1 POP SWAP2 SWAP1 POP JUMP JUMPDEST PUSH1 0x0 PUSH2 0x35EF PUSH1 0x14 DUP4 PUSH2 0x4029 JUMP JUMPDEST SWAP2 POP PUSH2 0x35FA DUP3 PUSH2 0x4658 JUMP JUMPDEST PUSH1 0x20 DUP3 ADD SWAP1 POP SWAP2 SWAP1 POP JUMP JUMPDEST PUSH1 0x0 PUSH2 0x3612 PUSH1 0x23 DUP4 PUSH2 0x4029 JUMP JUMPDEST SWAP2 POP PUSH2 0x361D DUP3 PUSH2 0x4681 JUMP JUMPDEST PUSH1 0x40 DUP3 ADD SWAP1 POP SWAP2 SWAP1 POP JUMP JUMPDEST PUSH1 0x0 PUSH2 0x3635 PUSH1 0x12 DUP4 PUSH2 0x4029 JUMP JUMPDEST SWAP2 POP PUSH2 0x3640 DUP3 PUSH2 0x46D0 JUMP JUMPDEST PUSH1 0x20 DUP3 ADD SWAP1 POP SWAP2 SWAP1 POP JUMP JUMPDEST PUSH1 0x0 PUSH2 0x3658 PUSH1 0x23 DUP4 PUSH2 0x4029 JUMP JUMPDEST SWAP2 POP PUSH2 0x3663 DUP3 PUSH2 0x46F9 JUMP JUMPDEST PUSH1 0x40 DUP3 ADD SWAP1 POP SWAP2 SWAP1 POP JUMP JUMPDEST PUSH1 0x0 PUSH2 0x367B PUSH1 0x1A DUP4 PUSH2 0x4029 JUMP JUMPDEST SWAP2 POP PUSH2 0x3686 DUP3 PUSH2 0x4748 JUMP JUMPDEST PUSH1 0x20 DUP3 ADD SWAP1 POP SWAP2 SWAP1 POP JUMP JUMPDEST PUSH1 0x0 PUSH2 0x369E PUSH1 0x1C DUP4 PUSH2 0x4029 JUMP JUMPDEST SWAP2 POP PUSH2 0x36A9 DUP3 PUSH2 0x4771 JUMP JUMPDEST PUSH1 0x20 DUP3 ADD SWAP1 POP SWAP2 SWAP1 POP JUMP JUMPDEST PUSH1 0x0 PUSH2 0x36C1 PUSH1 0x2A DUP4 PUSH2 0x4029 JUMP JUMPDEST SWAP2 POP PUSH2 0x36CC DUP3 PUSH2 0x479A JUMP JUMPDEST PUSH1 0x40 DUP3 ADD SWAP1 POP SWAP2 SWAP1 POP JUMP JUMPDEST PUSH1 0x0 PUSH2 0x36E4 PUSH1 0x21 DUP4 PUSH2 0x4029 JUMP JUMPDEST SWAP2 POP PUSH2 0x36EF DUP3 PUSH2 0x47E9 JUMP JUMPDEST PUSH1 0x40 DUP3 ADD SWAP1 POP SWAP2 SWAP1 POP JUMP JUMPDEST PUSH1 0x0 PUSH2 0x3707 PUSH1 0x24 DUP4 PUSH2 0x4029 JUMP JUMPDEST SWAP2 POP PUSH2 0x3712 DUP3 PUSH2 0x4838 JUMP JUMPDEST PUSH1 0x40 DUP3 ADD SWAP1 POP SWAP2 SWAP1 POP JUMP JUMPDEST PUSH1 0x0 PUSH2 0x372A PUSH1 0xD DUP4 PUSH2 0x4029 JUMP JUMPDEST SWAP2 POP PUSH2 0x3735 DUP3 PUSH2 0x4887 JUMP JUMPDEST PUSH1 0x20 DUP3 ADD SWAP1 POP SWAP2 SWAP1 POP JUMP JUMPDEST PUSH1 0x0 PUSH2 0x374D PUSH1 0x4 DUP4 PUSH2 0x4029 JUMP JUMPDEST SWAP2 POP PUSH2 0x3758 DUP3 PUSH2 0x48B0 JUMP JUMPDEST PUSH1 0x20 DUP3 ADD SWAP1 POP SWAP2 SWAP1 POP JUMP JUMPDEST PUSH1 0x0 PUSH2 0x3770 PUSH1 0x1D DUP4 PUSH2 0x4029 JUMP JUMPDEST SWAP2 POP PUSH2 0x377B DUP3 PUSH2 0x48D9 JUMP JUMPDEST PUSH1 0x20 DUP3 ADD SWAP1 POP SWAP2 SWAP1 POP JUMP JUMPDEST PUSH1 0x0 PUSH2 0x3793 PUSH1 0x4 DUP4 PUSH2 0x4029 JUMP JUMPDEST SWAP2 POP PUSH2 0x379E DUP3 PUSH2 0x4902 JUMP JUMPDEST PUSH1 0x20 DUP3 ADD SWAP1 POP SWAP2 SWAP1 POP JUMP JUMPDEST PUSH1 0x0 PUSH2 0x37B6 PUSH1 0x9 DUP4 PUSH2 0x4029 JUMP JUMPDEST SWAP2 POP PUSH2 0x37C1 DUP3 PUSH2 0x492B JUMP JUMPDEST PUSH1 0x20 DUP3 ADD SWAP1 POP SWAP2 SWAP1 POP JUMP JUMPDEST PUSH1 0x0 PUSH2 0x37D9 PUSH1 0x1F DUP4 PUSH2 0x4029 JUMP JUMPDEST SWAP2 POP PUSH2 0x37E4 DUP3 PUSH2 0x4954 JUMP JUMPDEST PUSH1 0x20 DUP3 ADD SWAP1 POP SWAP2 SWAP1 POP JUMP JUMPDEST PUSH2 0x37F8 DUP2 PUSH2 0x41E2 JUMP JUMPDEST DUP3 MSTORE POP POP JUMP JUMPDEST PUSH2 0x3807 DUP2 PUSH2 0x41FE JUMP JUMPDEST DUP3 MSTORE POP POP JUMP JUMPDEST PUSH2 0x3816 DUP2 PUSH2 0x422C JUMP JUMPDEST DUP3 MSTORE POP POP JUMP JUMPDEST PUSH2 0x3825 DUP2 PUSH2 0x422C JUMP JUMPDEST DUP3 MSTORE POP POP JUMP JUMPDEST PUSH2 0x3834 DUP2 PUSH2 0x4236 JUMP JUMPDEST DUP3 MSTORE POP POP JUMP JUMPDEST PUSH1 0x0 PUSH2 0x3847 DUP3 DUP5 DUP7 PUSH2 0x3383 JUMP JUMPDEST SWAP2 POP DUP2 SWAP1 POP SWAP4 SWAP3 POP POP POP JUMP JUMPDEST PUSH1 0x0 PUSH2 0x385F DUP3 DUP5 PUSH2 0x341A JUMP JUMPDEST SWAP2 POP DUP2 SWAP1 POP SWAP3 SWAP2 POP POP JUMP JUMPDEST PUSH1 0x0 PUSH2 0x3876 DUP3 DUP5 PUSH2 0x344B JUMP JUMPDEST SWAP2 POP DUP2 SWAP1 POP SWAP3 SWAP2 POP POP JUMP JUMPDEST PUSH1 0x0 PUSH2 0x100 DUP3 ADD SWAP1 POP PUSH2 0x3897 PUSH1 0x0 DUP4 ADD DUP12 PUSH2 0x3191 JUMP JUMPDEST PUSH2 0x38A4 PUSH1 0x20 DUP4 ADD DUP11 PUSH2 0x382B JUMP JUMPDEST DUP2 DUP2 SUB PUSH1 0x40 DUP4 ADD MSTORE PUSH2 0x38B6 DUP2 DUP10 PUSH2 0x33E1 JUMP JUMPDEST SWAP1 POP PUSH2 0x38C5 PUSH1 0x60 DUP4 ADD DUP9 PUSH2 0x381C JUMP JUMPDEST PUSH2 0x38D2 PUSH1 0x80 DUP4 ADD DUP8 PUSH2 0x381C JUMP JUMPDEST PUSH2 0x38DF PUSH1 0xA0 DUP4 ADD DUP7 PUSH2 0x37FE JUMP JUMPDEST PUSH2 0x38EC PUSH1 0xC0 DUP4 ADD DUP6 PUSH2 0x381C JUMP JUMPDEST PUSH2 0x38F9 PUSH1 0xE0 DUP4 ADD DUP5 PUSH2 0x381C JUMP JUMPDEST SWAP10 SWAP9 POP POP POP POP POP POP POP POP POP JUMP JUMPDEST PUSH1 0x0 PUSH1 0x20 DUP3 ADD SWAP1 POP DUP2 DUP2 SUB PUSH1 0x0 DUP4 ADD MSTORE PUSH2 0x3920 DUP2 DUP5 PUSH2 0x3274 JUMP JUMPDEST SWAP1 POP SWAP3 SWAP2 POP POP JUMP JUMPDEST PUSH1 0x0 PUSH1 0x20 DUP3 ADD SWAP1 POP DUP2 DUP2 SUB PUSH1 0x0 DUP4 ADD MSTORE PUSH2 0x3942 DUP2 DUP5 PUSH2 0x32E9 JUMP JUMPDEST SWAP1 POP SWAP3 SWAP2 POP POP JUMP JUMPDEST PUSH1 0x0 PUSH1 0x20 DUP3 ADD SWAP1 POP PUSH2 0x395F PUSH1 0x0 DUP4 ADD DUP5 PUSH2 0x3347 JUMP JUMPDEST SWAP3 SWAP2 POP POP JUMP JUMPDEST PUSH1 0x0 PUSH1 0x20 DUP3 ADD SWAP1 POP DUP2 DUP2 SUB PUSH1 0x0 DUP4 ADD MSTORE PUSH2 0x397F DUP2 DUP5 PUSH2 0x33E1 JUMP JUMPDEST SWAP1 POP SWAP3 SWAP2 POP POP JUMP JUMPDEST PUSH1 0x0 PUSH1 0x20 DUP3 ADD SWAP1 POP DUP2 DUP2 SUB PUSH1 0x0 DUP4 ADD MSTORE PUSH2 0x39A0 DUP2 PUSH2 0x34CA JUMP JUMPDEST SWAP1 POP SWAP2 SWAP1 POP JUMP JUMPDEST PUSH1 0x0 PUSH1 0x20 DUP3 ADD SWAP1 POP DUP2 DUP2 SUB PUSH1 0x0 DUP4 ADD MSTORE PUSH2 0x39C0 DUP2 PUSH2 0x34ED JUMP JUMPDEST SWAP1 POP SWAP2 SWAP1 POP JUMP JUMPDEST PUSH1 0x0 PUSH1 0x20 DUP3 ADD SWAP1 POP DUP2 DUP2 SUB PUSH1 0x0 DUP4 ADD MSTORE PUSH2 0x39E0 DUP2 PUSH2 0x3510 JUMP JUMPDEST SWAP1 POP SWAP2 SWAP1 POP JUMP JUMPDEST PUSH1 0x0 PUSH1 0x20 DUP3 ADD SWAP1 POP DUP2 DUP2 SUB PUSH1 0x0 DUP4 ADD MSTORE PUSH2 0x3A00 DUP2 PUSH2 0x3533 JUMP JUMPDEST SWAP1 POP SWAP2 SWAP1 POP JUMP JUMPDEST PUSH1 0x0 PUSH1 0x20 DUP3 ADD SWAP1 POP DUP2 DUP2 SUB PUSH1 0x0 DUP4 ADD MSTORE PUSH2 0x3A20 DUP2 PUSH2 0x3556 JUMP JUMPDEST SWAP1 POP SWAP2 SWAP1 POP JUMP JUMPDEST PUSH1 0x0 PUSH1 0x20 DUP3 ADD SWAP1 POP DUP2 DUP2 SUB PUSH1 0x0 DUP4 ADD MSTORE PUSH2 0x3A40 DUP2 PUSH2 0x3579 JUMP JUMPDEST SWAP1 POP SWAP2 SWAP1 POP JUMP JUMPDEST PUSH1 0x0 PUSH1 0x20 DUP3 ADD SWAP1 POP DUP2 DUP2 SUB PUSH1 0x0 DUP4 ADD MSTORE PUSH2 0x3A60 DUP2 PUSH2 0x359C JUMP JUMPDEST SWAP1 POP SWAP2 SWAP1 POP JUMP JUMPDEST PUSH1 0x0 PUSH1 0x20 DUP3 ADD SWAP1 POP DUP2 DUP2 SUB PUSH1 0x0 DUP4 ADD MSTORE PUSH2 0x3A80 DUP2 PUSH2 0x35BF JUMP JUMPDEST SWAP1 POP SWAP2 SWAP1 POP JUMP JUMPDEST PUSH1 0x0 PUSH1 0x20 DUP3 ADD SWAP1 POP DUP2 DUP2 SUB PUSH1 0x0 DUP4 ADD MSTORE PUSH2 0x3AA0 DUP2 PUSH2 0x35E2 JUMP JUMPDEST SWAP1 POP SWAP2 SWAP1 POP JUMP JUMPDEST PUSH1 0x0 PUSH1 0x20 DUP3 ADD SWAP1 POP DUP2 DUP2 SUB PUSH1 0x0 DUP4 ADD MSTORE PUSH2 0x3AC0 DUP2 PUSH2 0x3605 JUMP JUMPDEST SWAP1 POP SWAP2 SWAP1 POP JUMP JUMPDEST PUSH1 0x0 PUSH1 0x20 DUP3 ADD SWAP1 POP DUP2 DUP2 SUB PUSH1 0x0 DUP4 ADD MSTORE PUSH2 0x3AE0 DUP2 PUSH2 0x3628 JUMP JUMPDEST SWAP1 POP SWAP2 SWAP1 POP JUMP JUMPDEST PUSH1 0x0 PUSH1 0x20 DUP3 ADD SWAP1 POP DUP2 DUP2 SUB PUSH1 0x0 DUP4 ADD MSTORE PUSH2 0x3B00 DUP2 PUSH2 0x364B JUMP JUMPDEST SWAP1 POP SWAP2 SWAP1 POP JUMP JUMPDEST PUSH1 0x0 PUSH1 0x20 DUP3 ADD SWAP1 POP DUP2 DUP2 SUB PUSH1 0x0 DUP4 ADD MSTORE PUSH2 0x3B20 DUP2 PUSH2 0x366E JUMP JUMPDEST SWAP1 POP SWAP2 SWAP1 POP JUMP JUMPDEST PUSH1 0x0 PUSH1 0x20 DUP3 ADD SWAP1 POP DUP2 DUP2 SUB PUSH1 0x0 DUP4 ADD MSTORE PUSH2 0x3B40 DUP2 PUSH2 0x3691 JUMP JUMPDEST SWAP1 POP SWAP2 SWAP1 POP JUMP JUMPDEST PUSH1 0x0 PUSH1 0x20 DUP3 ADD SWAP1 POP DUP2 DUP2 SUB PUSH1 0x0 DUP4 ADD MSTORE PUSH2 0x3B60 DUP2 PUSH2 0x36B4 JUMP JUMPDEST SWAP1 POP SWAP2 SWAP1 POP JUMP JUMPDEST PUSH1 0x0 PUSH1 0x20 DUP3 ADD SWAP1 POP DUP2 DUP2 SUB PUSH1 0x0 DUP4 ADD MSTORE PUSH2 0x3B80 DUP2 PUSH2 0x36D7 JUMP JUMPDEST SWAP1 POP SWAP2 SWAP1 POP JUMP JUMPDEST PUSH1 0x0 PUSH1 0x20 DUP3 ADD SWAP1 POP DUP2 DUP2 SUB PUSH1 0x0 DUP4 ADD MSTORE PUSH2 0x3BA0 DUP2 PUSH2 0x36FA JUMP JUMPDEST SWAP1 POP SWAP2 SWAP1 POP JUMP JUMPDEST PUSH1 0x0 PUSH1 0x20 DUP3 ADD SWAP1 POP DUP2 DUP2 SUB PUSH1 0x0 DUP4 ADD MSTORE PUSH2 0x3BC0 DUP2 PUSH2 0x371D JUMP JUMPDEST SWAP1 POP SWAP2 SWAP1 POP JUMP JUMPDEST PUSH1 0x0 PUSH1 0x60 DUP3 ADD SWAP1 POP DUP2 DUP2 SUB PUSH1 0x0 DUP4 ADD MSTORE PUSH2 0x3BE0 DUP2 PUSH2 0x3740 JUMP JUMPDEST SWAP1 POP PUSH2 0x3BEF PUSH1 0x20 DUP4 ADD DUP6 PUSH2 0x3191 JUMP JUMPDEST PUSH2 0x3BFC PUSH1 0x40 DUP4 ADD DUP5 PUSH2 0x381C JUMP JUMPDEST SWAP4 SWAP3 POP POP POP JUMP JUMPDEST PUSH1 0x0 PUSH1 0x20 DUP3 ADD SWAP1 POP DUP2 DUP2 SUB PUSH1 0x0 DUP4 ADD MSTORE PUSH2 0x3C1C DUP2 PUSH2 0x3763 JUMP JUMPDEST SWAP1 POP SWAP2 SWAP1 POP JUMP JUMPDEST PUSH1 0x0 PUSH1 0x60 DUP3 ADD SWAP1 POP DUP2 DUP2 SUB PUSH1 0x0 DUP4 ADD MSTORE PUSH2 0x3C3C DUP2 PUSH2 0x3786 JUMP JUMPDEST SWAP1 POP PUSH2 0x3C4B PUSH1 0x20 DUP4 ADD DUP6 PUSH2 0x3191 JUMP JUMPDEST PUSH2 0x3C58 PUSH1 0x40 DUP4 ADD DUP5 PUSH2 0x381C JUMP JUMPDEST SWAP4 SWAP3 POP POP POP JUMP JUMPDEST PUSH1 0x0 PUSH1 0x20 DUP3 ADD SWAP1 POP DUP2 DUP2 SUB PUSH1 0x0 DUP4 ADD MSTORE PUSH2 0x3C78 DUP2 PUSH2 0x37A9 JUMP JUMPDEST SWAP1 POP SWAP2 SWAP1 POP JUMP JUMPDEST PUSH1 0x0 PUSH1 0x20 DUP3 ADD SWAP1 POP DUP2 DUP2 SUB PUSH1 0x0 DUP4 ADD MSTORE PUSH2 0x3C98 DUP2 PUSH2 0x37CC JUMP JUMPDEST SWAP1 POP SWAP2 SWAP1 POP JUMP JUMPDEST PUSH1 0x0 PUSH1 0x40 DUP3 ADD SWAP1 POP PUSH2 0x3CB4 PUSH1 0x0 DUP4 ADD DUP6 PUSH2 0x37EF JUMP JUMPDEST PUSH2 0x3CC1 PUSH1 0x20 DUP4 ADD DUP5 PUSH2 0x37EF JUMP JUMPDEST SWAP4 SWAP3 POP POP POP JUMP JUMPDEST PUSH1 0x0 PUSH1 0x20 DUP3 ADD SWAP1 POP PUSH2 0x3CDD PUSH1 0x0 DUP4 ADD DUP5 PUSH2 0x381C JUMP JUMPDEST SWAP3 SWAP2 POP POP JUMP JUMPDEST PUSH1 0x0 PUSH1 0x80 DUP3 ADD SWAP1 POP PUSH2 0x3CF8 PUSH1 0x0 DUP4 ADD DUP8 PUSH2 0x381C JUMP JUMPDEST PUSH2 0x3D05 PUSH1 0x20 DUP4 ADD DUP7 PUSH2 0x3191 JUMP JUMPDEST PUSH2 0x3D12 PUSH1 0x40 DUP4 ADD DUP6 PUSH2 0x3347 JUMP JUMPDEST PUSH2 0x3D1F PUSH1 0x60 DUP4 ADD DUP5 PUSH2 0x381C JUMP JUMPDEST SWAP6 SWAP5 POP POP POP POP POP JUMP JUMPDEST PUSH1 0x0 PUSH1 0xE0 DUP3 ADD SWAP1 POP PUSH2 0x3D3D PUSH1 0x0 DUP4 ADD DUP12 PUSH2 0x381C JUMP JUMPDEST DUP2 DUP2 SUB PUSH1 0x20 DUP4 ADD MSTORE PUSH2 0x3D4F DUP2 DUP11 PUSH2 0x31A0 JUMP JUMPDEST SWAP1 POP PUSH2 0x3D5E PUSH1 0x40 DUP4 ADD DUP10 PUSH2 0x3191 JUMP JUMPDEST PUSH2 0x3D6B PUSH1 0x60 DUP4 ADD DUP9 PUSH2 0x381C JUMP JUMPDEST PUSH2 0x3D78 PUSH1 0x80 DUP4 ADD DUP8 PUSH2 0x381C JUMP JUMPDEST DUP2 DUP2 SUB PUSH1 0xA0 DUP4 ADD MSTORE PUSH2 0x3D8A DUP2 DUP7 PUSH2 0x33E1 JUMP JUMPDEST SWAP1 POP DUP2 DUP2 SUB PUSH1 0xC0 DUP4 ADD MSTORE PUSH2 0x3D9F DUP2 DUP5 DUP7 PUSH2 0x31FE JUMP JUMPDEST SWAP1 POP SWAP10 SWAP9 POP POP POP POP POP POP POP POP POP JUMP JUMPDEST PUSH1 0x0 PUSH1 0x40 DUP3 ADD SWAP1 POP PUSH2 0x3DC3 PUSH1 0x0 DUP4 ADD DUP6 PUSH2 0x381C JUMP JUMPDEST DUP2 DUP2 SUB PUSH1 0x20 DUP4 ADD MSTORE PUSH2 0x3DD5 DUP2 DUP5 PUSH2 0x33E1 JUMP JUMPDEST SWAP1 POP SWAP4 SWAP3 POP POP POP JUMP JUMPDEST PUSH1 0x0 PUSH1 0x20 DUP3 ADD SWAP1 POP PUSH2 0x3DF3 PUSH1 0x0 DUP4 ADD DUP5 PUSH2 0x382B JUMP JUMPDEST SWAP3 SWAP2 POP POP JUMP JUMPDEST PUSH1 0x0 DUP1 DUP4 CALLDATALOAD PUSH1 0x1 PUSH1 0x20 SUB DUP5 CALLDATASIZE SUB SUB DUP2 SLT PUSH2 0x3E16 JUMPI PUSH2 0x3E15 PUSH2 0x4465 JUMP JUMPDEST JUMPDEST DUP1 DUP5 ADD SWAP3 POP DUP3 CALLDATALOAD SWAP2 POP PUSH8 0xFFFFFFFFFFFFFFFF DUP3 GT ISZERO PUSH2 0x3E38 JUMPI PUSH2 0x3E37 PUSH2 0x4460 JUMP JUMPDEST JUMPDEST PUSH1 0x20 DUP4 ADD SWAP3 POP PUSH1 0x1 DUP3 MUL CALLDATASIZE SUB DUP4 SGT ISZERO PUSH2 0x3E54 JUMPI PUSH2 0x3E53 PUSH2 0x4474 JUMP JUMPDEST JUMPDEST POP SWAP3 POP SWAP3 SWAP1 POP JUMP JUMPDEST PUSH1 0x0 PUSH2 0x3E66 PUSH2 0x3E77 JUMP JUMPDEST SWAP1 POP PUSH2 0x3E72 DUP3 DUP3 PUSH2 0x42B7 JUMP JUMPDEST SWAP2 SWAP1 POP JUMP JUMPDEST PUSH1 0x0 PUSH1 0x40 MLOAD SWAP1 POP SWAP1 JUMP JUMPDEST PUSH1 0x0 PUSH8 0xFFFFFFFFFFFFFFFF DUP3 GT ISZERO PUSH2 0x3E9C JUMPI PUSH2 0x3E9B PUSH2 0x4422 JUMP JUMPDEST JUMPDEST PUSH1 0x20 DUP3 MUL SWAP1 POP PUSH1 0x20 DUP2 ADD SWAP1 POP SWAP2 SWAP1 POP JUMP JUMPDEST PUSH1 0x0 PUSH8 0xFFFFFFFFFFFFFFFF DUP3 GT ISZERO PUSH2 0x3EC8 JUMPI PUSH2 0x3EC7 PUSH2 0x4422 JUMP JUMPDEST JUMPDEST PUSH1 0x20 DUP3 MUL SWAP1 POP PUSH1 0x20 DUP2 ADD SWAP1 POP SWAP2 SWAP1 POP JUMP JUMPDEST PUSH1 0x0 PUSH8 0xFFFFFFFFFFFFFFFF DUP3 GT ISZERO PUSH2 0x3EF4 JUMPI PUSH2 0x3EF3 PUSH2 0x4422 JUMP JUMPDEST JUMPDEST PUSH1 0x20 DUP3 MUL SWAP1 POP PUSH1 0x20 DUP2 ADD SWAP1 POP SWAP2 SWAP1 POP JUMP JUMPDEST PUSH1 0x0 PUSH8 0xFFFFFFFFFFFFFFFF DUP3 GT ISZERO PUSH2 0x3F20 JUMPI PUSH2 0x3F1F PUSH2 0x4422 JUMP JUMPDEST JUMPDEST PUSH2 0x3F29 DUP3 PUSH2 0x448D JUMP JUMPDEST SWAP1 POP PUSH1 0x20 DUP2 ADD SWAP1 POP SWAP2 SWAP1 POP JUMP JUMPDEST PUSH1 0x0 DUP2 SWAP1 POP PUSH1 0x20 DUP3 ADD SWAP1 POP SWAP2 SWAP1 POP JUMP JUMPDEST PUSH1 0x0 DUP2 SWAP1 POP SWAP2 SWAP1 POP JUMP JUMPDEST PUSH1 0x0 DUP2 SWAP1 POP PUSH1 0x20 DUP3 ADD SWAP1 POP SWAP2 SWAP1 POP JUMP JUMPDEST PUSH1 0x0 DUP2 SWAP1 POP PUSH1 0x20 DUP3 ADD SWAP1 POP SWAP2 SWAP1 POP JUMP JUMPDEST PUSH1 0x0 DUP2 SWAP1 POP DUP2 PUSH1 0x0 MSTORE PUSH1 0x20 PUSH1 0x0 KECCAK256 SWAP1 POP SWAP2 SWAP1 POP JUMP JUMPDEST PUSH1 0x0 DUP2 MLOAD SWAP1 POP SWAP2 SWAP1 POP JUMP JUMPDEST PUSH1 0x0 DUP2 MLOAD SWAP1 POP SWAP2 SWAP1 POP JUMP JUMPDEST PUSH1 0x0 DUP2 MLOAD SWAP1 POP SWAP2 SWAP1 POP JUMP JUMPDEST PUSH1 0x0 DUP2 MLOAD SWAP1 POP SWAP2 SWAP1 POP JUMP JUMPDEST PUSH1 0x0 PUSH1 0x20 DUP3 ADD SWAP1 POP SWAP2 SWAP1 POP JUMP JUMPDEST PUSH1 0x0 PUSH1 0x20 DUP3 ADD SWAP1 POP SWAP2 SWAP1 POP JUMP JUMPDEST PUSH1 0x0 PUSH1 0x20 DUP3 ADD SWAP1 POP SWAP2 SWAP1 POP JUMP JUMPDEST PUSH1 0x0 PUSH1 0x20 DUP3 ADD SWAP1 POP SWAP2 SWAP1 POP JUMP JUMPDEST PUSH1 0x0 DUP3 DUP3 MSTORE PUSH1 0x20 DUP3 ADD SWAP1 POP SWAP3 SWAP2 POP POP JUMP JUMPDEST PUSH1 0x0 DUP3 DUP3 MSTORE PUSH1 0x20 DUP3 ADD SWAP1 POP SWAP3 SWAP2 POP POP JUMP JUMPDEST PUSH1 0x0 DUP3 DUP3 MSTORE PUSH1 0x20 DUP3 ADD SWAP1 POP SWAP3 SWAP2 POP POP JUMP JUMPDEST PUSH1 0x0 DUP3 DUP3 MSTORE PUSH1 0x20 DUP3 ADD SWAP1 POP SWAP3 SWAP2 POP POP JUMP JUMPDEST PUSH1 0x0 DUP3 DUP3 MSTORE PUSH1 0x20 DUP3 ADD SWAP1 POP SWAP3 SWAP2 POP POP JUMP JUMPDEST PUSH1 0x0 DUP2 SWAP1 POP SWAP3 SWAP2 POP POP JUMP JUMPDEST PUSH1 0x0 DUP1 DUP4 CALLDATALOAD PUSH1 0x1 PUSH1 0x20 SUB DUP5 CALLDATASIZE SUB SUB DUP2 SLT PUSH2 0x4062 JUMPI PUSH2 0x4061 PUSH2 0x4483 JUMP JUMPDEST JUMPDEST DUP4 DUP2 ADD SWAP3 POP DUP3 CALLDATALOAD SWAP2 POP PUSH1 0x20 DUP4 ADD SWAP3 POP PUSH8 0xFFFFFFFFFFFFFFFF DUP3 GT ISZERO PUSH2 0x408A JUMPI PUSH2 0x4089 PUSH2 0x4451 JUMP JUMPDEST JUMPDEST PUSH1 0x1 DUP3 MUL CALLDATASIZE SUB DUP5 SGT ISZERO PUSH2 0x40A0 JUMPI PUSH2 0x409F PUSH2 0x446A JUMP JUMPDEST JUMPDEST POP SWAP3 POP SWAP3 SWAP1 POP JUMP JUMPDEST PUSH1 0x0 PUSH2 0x40B3 DUP3 PUSH2 0x41FE JUMP JUMPDEST SWAP2 POP PUSH2 0x40BE DUP4 PUSH2 0x41FE JUMP JUMPDEST SWAP3 POP DUP3 PUSH2 0xFFFF SUB DUP3 GT ISZERO PUSH2 0x40D5 JUMPI PUSH2 0x40D4 PUSH2 0x4395 JUMP JUMPDEST JUMPDEST DUP3 DUP3 ADD SWAP1 POP SWAP3 SWAP2 POP POP JUMP JUMPDEST PUSH1 0x0 PUSH2 0x40EB DUP3 PUSH2 0x422C JUMP JUMPDEST SWAP2 POP PUSH2 0x40F6 DUP4 PUSH2 0x422C JUMP JUMPDEST SWAP3 POP DUP3 PUSH32 0xFFFFFFFFFFFFFFFFFFFFFFFFFFFFFFFFFFFFFFFFFFFFFFFFFFFFFFFFFFFFFFFF SUB DUP3 GT ISZERO PUSH2 0x412B JUMPI PUSH2 0x412A PUSH2 0x4395 JUMP JUMPDEST JUMPDEST DUP3 DUP3 ADD SWAP1 POP SWAP3 SWAP2 POP POP JUMP JUMPDEST PUSH1 0x0 PUSH2 0x4141 DUP3 PUSH2 0x422C JUMP JUMPDEST SWAP2 POP PUSH2 0x414C DUP4 PUSH2 0x422C JUMP JUMPDEST SWAP3 POP DUP2 PUSH32 0xFFFFFFFFFFFFFFFFFFFFFFFFFFFFFFFFFFFFFFFFFFFFFFFFFFFFFFFFFFFFFFFF DIV DUP4 GT DUP3 ISZERO ISZERO AND ISZERO PUSH2 0x4185 JUMPI PUSH2 0x4184 PUSH2 0x4395 JUMP JUMPDEST JUMPDEST DUP3 DUP3 MUL SWAP1 POP SWAP3 SWAP2 POP POP JUMP JUMPDEST PUSH1 0x0 PUSH2 0x419B DUP3 PUSH2 0x422C JUMP JUMPDEST SWAP2 POP PUSH2 0x41A6 DUP4 PUSH2 0x422C JUMP JUMPDEST SWAP3 POP DUP3 DUP3 LT ISZERO PUSH2 0x41B9 JUMPI PUSH2 0x41B8 PUSH2 0x4395 JUMP JUMPDEST JUMPDEST DUP3 DUP3 SUB SWAP1 POP SWAP3 SWAP2 POP POP JUMP JUMPDEST PUSH1 0x0 PUSH2 0x41CF DUP3 PUSH2 0x420C JUMP JUMPDEST SWAP1 POP SWAP2 SWAP1 POP JUMP JUMPDEST PUSH1 0x0 DUP2 ISZERO ISZERO SWAP1 POP SWAP2 SWAP1 POP JUMP JUMPDEST PUSH1 0x0 PUSH16 0xFFFFFFFFFFFFFFFFFFFFFFFFFFFFFFFF DUP3 AND SWAP1 POP SWAP2 SWAP1 POP JUMP JUMPDEST PUSH1 0x0 PUSH2 0xFFFF DUP3 AND SWAP1 POP SWAP2 SWAP1 POP JUMP JUMPDEST PUSH1 0x0 PUSH20 0xFFFFFFFFFFFFFFFFFFFFFFFFFFFFFFFFFFFFFFFF DUP3 AND SWAP1 POP SWAP2 SWAP1 POP JUMP JUMPDEST PUSH1 0x0 DUP2 SWAP1 POP SWAP2 SWAP1 POP JUMP JUMPDEST PUSH1 0x0 PUSH1 0xFF DUP3 AND SWAP1 POP SWAP2 SWAP1 POP JUMP JUMPDEST DUP3 DUP2 DUP4 CALLDATACOPY PUSH1 0x0 DUP4 DUP4 ADD MSTORE POP POP POP JUMP JUMPDEST PUSH1 0x0 JUMPDEST DUP4 DUP2 LT ISZERO PUSH2 0x4270 JUMPI DUP1 DUP3 ADD MLOAD DUP2 DUP5 ADD MSTORE PUSH1 0x20 DUP2 ADD SWAP1 POP PUSH2 0x4255 JUMP JUMPDEST DUP4 DUP2 GT ISZERO PUSH2 0x427F JUMPI PUSH1 0x0 DUP5 DUP5 ADD MSTORE JUMPDEST POP POP POP POP JUMP JUMPDEST PUSH1 0x0 PUSH1 0x2 DUP3 DIV SWAP1 POP PUSH1 0x1 DUP3 AND DUP1 PUSH2 0x429D JUMPI PUSH1 0x7F DUP3 AND SWAP2 POP JUMPDEST PUSH1 0x20 DUP3 LT DUP2 EQ ISZERO PUSH2 0x42B1 JUMPI PUSH2 0x42B0 PUSH2 0x43C4 JUMP JUMPDEST JUMPDEST POP SWAP2 SWAP1 POP JUMP JUMPDEST PUSH2 0x42C0 DUP3 PUSH2 0x448D JUMP JUMPDEST DUP2 ADD DUP2 DUP2 LT PUSH8 0xFFFFFFFFFFFFFFFF DUP3 GT OR ISZERO PUSH2 0x42DF JUMPI PUSH2 0x42DE PUSH2 0x4422 JUMP JUMPDEST JUMPDEST DUP1 PUSH1 0x40 MSTORE POP POP POP JUMP JUMPDEST PUSH1 0x0 PUSH2 0x42F3 DUP3 PUSH2 0x41E2 JUMP JUMPDEST SWAP2 POP PUSH16 0xFFFFFFFFFFFFFFFFFFFFFFFFFFFFFFFF DUP3 EQ ISZERO PUSH2 0x4316 JUMPI PUSH2 0x4315 PUSH2 0x4395 JUMP JUMPDEST JUMPDEST PUSH1 0x1 DUP3 ADD SWAP1 POP SWAP2 SWAP1 POP JUMP JUMPDEST PUSH1 0x0 PUSH2 0x432C DUP3 PUSH2 0x41FE JUMP JUMPDEST SWAP2 POP PUSH2 0xFFFF DUP3 EQ ISZERO PUSH2 0x4341 JUMPI PUSH2 0x4340 PUSH2 0x4395 JUMP JUMPDEST JUMPDEST PUSH1 0x1 DUP3 ADD SWAP1 POP SWAP2 SWAP1 POP JUMP JUMPDEST PUSH1 0x0 PUSH2 0x4357 DUP3 PUSH2 0x422C JUMP JUMPDEST SWAP2 POP PUSH32 0xFFFFFFFFFFFFFFFFFFFFFFFFFFFFFFFFFFFFFFFFFFFFFFFFFFFFFFFFFFFFFFFF DUP3 EQ ISZERO PUSH2 0x438A JUMPI PUSH2 0x4389 PUSH2 0x4395 JUMP JUMPDEST JUMPDEST PUSH1 0x1 DUP3 ADD SWAP1 POP SWAP2 SWAP1 POP JUMP JUMPDEST PUSH32 0x4E487B7100000000000000000000000000000000000000000000000000000000 PUSH1 0x0 MSTORE PUSH1 0x11 PUSH1 0x4 MSTORE PUSH1 0x24 PUSH1 0x0 REVERT JUMPDEST PUSH32 0x4E487B7100000000000000000000000000000000000000000000000000000000 PUSH1 0x0 MSTORE PUSH1 0x22 PUSH1 0x4 MSTORE PUSH1 0x24 PUSH1 0x0 REVERT JUMPDEST PUSH32 0x4E487B7100000000000000000000000000000000000000000000000000000000 PUSH1 0x0 MSTORE PUSH1 0x32 PUSH1 0x4 MSTORE PUSH1 0x24 PUSH1 0x0 REVERT JUMPDEST PUSH32 0x4E487B7100000000000000000000000000000000000000000000000000000000 PUSH1 0x0 MSTORE PUSH1 0x41 PUSH1 0x4 MSTORE PUSH1 0x24 PUSH1 0x0 REVERT JUMPDEST PUSH1 0x0 DUP1 REVERT JUMPDEST PUSH1 0x0 DUP1 REVERT JUMPDEST PUSH1 0x0 DUP1 REVERT JUMPDEST PUSH1 0x0 DUP1 REVERT JUMPDEST PUSH1 0x0 DUP1 REVERT JUMPDEST PUSH1 0x0 DUP1 REVERT JUMPDEST PUSH1 0x0 DUP1 REVERT JUMPDEST PUSH1 0x0 DUP1 REVERT JUMPDEST PUSH1 0x0 DUP1 REVERT JUMPDEST PUSH1 0x0 DUP1 REVERT JUMPDEST PUSH1 0x0 DUP1 REVERT JUMPDEST PUSH1 0x0 DUP1 REVERT JUMPDEST PUSH1 0x0 PUSH1 0x1F NOT PUSH1 0x1F DUP4 ADD AND SWAP1 POP SWAP2 SWAP1 POP JUMP JUMPDEST PUSH32 0x50726F706F73616C3A20696E6163746976650000000000000000000000000000 PUSH1 0x0 DUP3 ADD MSTORE POP JUMP JUMPDEST PUSH32 0x456E642074696D652073686F756C642062652067726561746572207468616E20 PUSH1 0x0 DUP3 ADD MSTORE PUSH32 0x63757272656E742074696D650000000000000000000000000000000000000000 PUSH1 0x20 DUP3 ADD MSTORE POP JUMP JUMPDEST PUSH32 0x45524332303A206275726E20616D6F756E7420657863656564732062616C616E PUSH1 0x0 DUP3 ADD MSTORE PUSH32 0x6365000000000000000000000000000000000000000000000000000000000000 PUSH1 0x20 DUP3 ADD MSTORE POP JUMP JUMPDEST PUSH32 0x70726F706F73616C206973206E6F7420636F6D706C6574656420796574000000 PUSH1 0x0 DUP3 ADD MSTORE POP JUMP JUMPDEST PUSH32 0x616C726561647920766F74656400000000000000000000000000000000000000 PUSH1 0x0 DUP3 ADD MSTORE POP JUMP JUMPDEST PUSH32 0x6E6F7420612076616C69642070726F706F73616C000000000000000000000000 PUSH1 0x0 DUP3 ADD MSTORE POP JUMP JUMPDEST PUSH32 0x6E6F7420612076616C696420766F74657220666F7220746869732070726F706F PUSH1 0x0 DUP3 ADD MSTORE PUSH32 0x73616C0000000000000000000000000000000000000000000000000000000000 PUSH1 0x20 DUP3 ADD MSTORE POP JUMP JUMPDEST PUSH32 0x70726F706F73616C206E6F742073746172746564207965740000000000000000 PUSH1 0x0 DUP3 ADD MSTORE POP JUMP JUMPDEST PUSH32 0x70726F706F73616C206E6F742073746172746564000000000000000000000000 PUSH1 0x0 DUP3 ADD MSTORE POP JUMP JUMPDEST PUSH32 0x4E6F7420612076616C696420766F74657220666F7220746869732070726F706F PUSH1 0x0 DUP3 ADD MSTORE PUSH32 0x73616C0000000000000000000000000000000000000000000000000000000000 PUSH1 0x20 DUP3 ADD MSTORE POP JUMP JUMPDEST PUSH32 0x696E76616C69642070726F706F73616C49640000000000000000000000000000 PUSH1 0x0 DUP3 ADD MSTORE POP JUMP JUMPDEST PUSH32 0x6E6F742073756666696369656E742062616C616E636520746F20636173742076 PUSH1 0x0 DUP3 ADD MSTORE PUSH32 0x6F74650000000000000000000000000000000000000000000000000000000000 PUSH1 0x20 DUP3 ADD MSTORE POP JUMP JUMPDEST PUSH32 0x50726F706F73616C206861736E277420656E6465642079657421000000000000 PUSH1 0x0 DUP3 ADD MSTORE POP JUMP JUMPDEST PUSH32 0x50726F706F73616C3A20696E76616C6964206F7074696F6E4861736800000000 PUSH1 0x0 DUP3 ADD MSTORE POP JUMP JUMPDEST PUSH32 0x456E642074696D652073686F756C642062652067726561746572207468616E20 PUSH1 0x0 DUP3 ADD MSTORE PUSH32 0x73746172742074696D6500000000000000000000000000000000000000000000 PUSH1 0x20 DUP3 ADD MSTORE POP JUMP JUMPDEST PUSH32 0x45524332303A206275726E2066726F6D20746865207A65726F20616464726573 PUSH1 0x0 DUP3 ADD MSTORE PUSH32 0x7300000000000000000000000000000000000000000000000000000000000000 PUSH1 0x20 DUP3 ADD MSTORE POP JUMP JUMPDEST PUSH32 0x6E6F7420612076616C6964206C656E677468206F66206861736820726573706F PUSH1 0x0 DUP3 ADD MSTORE PUSH32 0x6E73652100000000000000000000000000000000000000000000000000000000 PUSH1 0x20 DUP3 ADD MSTORE POP JUMP JUMPDEST PUSH32 0x6E6F7420766F7465642079657400000000000000000000000000000000000000 PUSH1 0x0 DUP3 ADD MSTORE POP JUMP JUMPDEST PUSH32 0x6D696E7400000000000000000000000000000000000000000000000000000000 PUSH1 0x0 DUP3 ADD MSTORE POP JUMP JUMPDEST PUSH32 0x496E76616C696420766F74657220666F722070726F706F73616C496421000000 PUSH1 0x0 DUP3 ADD MSTORE POP JUMP JUMPDEST PUSH32 0x6275726E00000000000000000000000000000000000000000000000000000000 PUSH1 0x0 DUP3 ADD MSTORE POP JUMP JUMPDEST PUSH32 0x6E6F7420766F7465640000000000000000000000000000000000000000000000 PUSH1 0x0 DUP3 ADD MSTORE POP JUMP JUMPDEST PUSH32 0x45524332303A206D696E7420746F20746865207A65726F206164647265737300 PUSH1 0x0 DUP3 ADD MSTORE POP JUMP JUMPDEST PUSH2 0x4986 DUP2 PUSH2 0x41C4 JUMP JUMPDEST DUP2 EQ PUSH2 0x4991 JUMPI PUSH1 0x0 DUP1 REVERT JUMPDEST POP JUMP JUMPDEST PUSH2 0x499D DUP2 PUSH2 0x422C JUMP JUMPDEST DUP2 EQ PUSH2 0x49A8 JUMPI PUSH1 0x0 DUP1 REVERT JUMPDEST POP JUMP JUMPDEST PUSH2 0x49B4 DUP2 PUSH2 0x4236 JUMP JUMPDEST DUP2 EQ PUSH2 0x49BF JUMPI PUSH1 0x0 DUP1 REVERT JUMPDEST POP JUMP INVALID LOG2 PUSH5 0x6970667358 0x22 SLT KECCAK256 ADDMOD PUSH6 0xBCE078BD400C SELFBALANCE MSTORE8 0x27 0xD7 0xCA 0xDD CODESIZE NUMBER 0x49 SHL PUSH6 0xF55673D42192 0x2C 0xE2 PUSH22 0xA218157664736F6C6343000807003300000000000000 "
		},
		"gasEstimates": {
			"creation": {
				"codeDepositCost": "3787200",
				"executionCost": "infinite",
				"totalCost": "infinite"
			},
			"external": {
				"allVoters(address,uint256)": "infinite",
				"balanceOf(address)": "2908",
				"burnOwner(uint256,address)": "infinite",
				"burnOwner(uint256,address[])": "infinite",
				"createProposal(uint8,address[],address,uint256,uint256,string,string[],uint256)": "infinite",
				"decimals()": "388",
				"name()": "infinite",
				"optionById(uint256)": "infinite",
				"proposals(uint256)": "infinite",
				"responseProposal(uint256,address,string[],uint256[])": "infinite",
				"resultOf(uint256)": "infinite",
				"resultOfProposal(uint256)": "infinite",
				"resultOfProposalbyId(uint256)": "infinite",
				"symbol()": "infinite",
				"totalSupply()": "2460",
				"userProposal(address)": "infinite",
				"votesArrayById(uint256)": "infinite",
				"winCountLen(uint256)": "infinite"
			}
		},
		"methodIdentifiers": {
			"allVoters(address,uint256)": "ab9c70d4",
			"balanceOf(address)": "70a08231",
			"burnOwner(uint256,address)": "6a232d1f",
			"burnOwner(uint256,address[])": "03af665c",
			"createProposal(uint8,address[],address,uint256,uint256,string,string[],uint256)": "4de77e48",
			"decimals()": "313ce567",
			"name()": "06fdde03",
			"optionById(uint256)": "39647bbf",
			"proposals(uint256)": "013cf08b",
			"responseProposal(uint256,address,string[],uint256[])": "5c230eee",
			"resultOf(uint256)": "71bfabca",
			"resultOfProposal(uint256)": "9d671564",
			"resultOfProposalbyId(uint256)": "8cf49f1b",
			"symbol()": "95d89b41",
			"totalSupply()": "18160ddd",
			"userProposal(address)": "e745d68e",
			"votesArrayById(uint256)": "11de04bd",
			"winCountLen(uint256)": "537488ac"
		}
	},
	"abi": [
		{
			"anonymous": false,
			"inputs": [
				{
					"indexed": false,
					"internalType": "uint256",
					"name": "proposalId",
					"type": "uint256"
				},
				{
					"indexed": false,
					"internalType": "address[]",
					"name": "voters",
					"type": "address[]"
				},
				{
					"indexed": false,
					"internalType": "address",
					"name": "creator",
					"type": "address"
				},
				{
					"indexed": false,
					"internalType": "uint256",
					"name": "startTime",
					"type": "uint256"
				},
				{
					"indexed": false,
					"internalType": "uint256",
					"name": "expirationTime",
					"type": "uint256"
				},
				{
					"indexed": false,
					"internalType": "string",
					"name": "description",
					"type": "string"
				},
				{
					"indexed": false,
					"internalType": "string[]",
					"name": "_cand",
					"type": "string[]"
				}
			],
			"name": "ProposalCreated",
			"type": "event"
		},
		{
			"anonymous": false,
			"inputs": [
				{
					"indexed": false,
					"internalType": "address",
					"name": "voter",
					"type": "address"
				},
				{
					"indexed": false,
					"internalType": "uint256",
					"name": "ProposalID",
					"type": "uint256"
				},
				{
					"indexed": false,
					"internalType": "uint256[]",
					"name": "_tokens",
					"type": "uint256[]"
				}
			],
			"name": "VoteCasted",
			"type": "event"
		},
		{
			"anonymous": false,
			"inputs": [
				{
					"indexed": false,
					"internalType": "string",
					"name": "mintAndburn",
					"type": "string"
				},
				{
					"indexed": false,
					"internalType": "address",
					"name": "account",
					"type": "address"
				},
				{
					"indexed": false,
					"internalType": "uint256",
					"name": "amount",
					"type": "uint256"
				}
			],
			"name": "mintAndburn",
			"type": "event"
		},
		{
			"inputs": [
				{
					"internalType": "address",
					"name": "",
					"type": "address"
				},
				{
					"internalType": "uint256",
					"name": "",
					"type": "uint256"
				}
			],
			"name": "allVoters",
			"outputs": [
				{
					"internalType": "uint256",
					"name": "proposalId",
					"type": "uint256"
				},
				{
					"internalType": "address",
					"name": "voterAddress",
					"type": "address"
				},
				{
					"internalType": "bool",
					"name": "hasVoted",
					"type": "bool"
				},
				{
					"internalType": "uint256",
					"name": "voteNum",
					"type": "uint256"
				}
			],
			"stateMutability": "view",
			"type": "function"
		},
		{
			"inputs": [
				{
					"internalType": "address",
					"name": "account",
					"type": "address"
				}
			],
			"name": "balanceOf",
			"outputs": [
				{
					"internalType": "uint256",
					"name": "",
					"type": "uint256"
				}
			],
			"stateMutability": "view",
			"type": "function"
		},
		{
			"inputs": [
				{
					"internalType": "uint256",
					"name": "_proposalId",
					"type": "uint256"
				},
				{
					"internalType": "address[]",
					"name": "_voters",
					"type": "address[]"
				}
			],
			"name": "burnOwner",
			"outputs": [
				{
					"internalType": "bool",
					"name": "",
					"type": "bool"
				}
			],
			"stateMutability": "nonpayable",
			"type": "function"
		},
		{
			"inputs": [
				{
					"internalType": "uint256",
					"name": "_proposalId",
					"type": "uint256"
				},
				{
					"internalType": "address",
					"name": "_voter",
					"type": "address"
				}
			],
			"name": "burnOwner",
			"outputs": [
				{
					"internalType": "bool",
					"name": "",
					"type": "bool"
				}
			],
			"stateMutability": "nonpayable",
			"type": "function"
		},
		{
			"inputs": [
				{
					"internalType": "uint8",
					"name": "_status",
					"type": "uint8"
				},
				{
					"internalType": "address[]",
					"name": "_voters",
					"type": "address[]"
				},
				{
					"internalType": "address",
					"name": "_creator",
					"type": "address"
				},
				{
					"internalType": "uint256",
					"name": "_startTime",
					"type": "uint256"
				},
				{
					"internalType": "uint256",
					"name": "_expirationTime",
					"type": "uint256"
				},
				{
					"internalType": "string",
					"name": "_disc",
					"type": "string"
				},
				{
					"internalType": "string[]",
					"name": "_option",
					"type": "string[]"
				},
				{
					"internalType": "uint256",
					"name": "_voteRight",
					"type": "uint256"
				}
			],
			"name": "createProposal",
			"outputs": [],
			"stateMutability": "nonpayable",
			"type": "function"
		},
		{
			"inputs": [],
			"name": "decimals",
			"outputs": [
				{
					"internalType": "uint8",
					"name": "",
					"type": "uint8"
				}
			],
			"stateMutability": "view",
			"type": "function"
		},
		{
			"inputs": [],
			"name": "name",
			"outputs": [
				{
					"internalType": "string",
					"name": "",
					"type": "string"
				}
			],
			"stateMutability": "view",
			"type": "function"
		},
		{
			"inputs": [
				{
					"internalType": "uint256",
					"name": "_proposalId",
					"type": "uint256"
				}
			],
			"name": "optionById",
			"outputs": [
				{
					"internalType": "string[]",
					"name": "",
					"type": "string[]"
				}
			],
			"stateMutability": "view",
			"type": "function"
		},
		{
			"inputs": [
				{
					"internalType": "uint256",
					"name": "",
					"type": "uint256"
				}
			],
			"name": "proposals",
			"outputs": [
				{
					"internalType": "address",
					"name": "creator",
					"type": "address"
				},
				{
					"internalType": "uint8",
					"name": "status",
					"type": "uint8"
				},
				{
					"internalType": "string",
					"name": "disc",
					"type": "string"
				},
				{
					"internalType": "uint256",
					"name": "startTime",
					"type": "uint256"
				},
				{
					"internalType": "uint256",
					"name": "expirationTime",
					"type": "uint256"
				},
				{
					"internalType": "uint16",
					"name": "numOfOptions",
					"type": "uint16"
				},
				{
					"internalType": "uint256",
					"name": "voteRight",
					"type": "uint256"
				},
				{
					"internalType": "uint256",
					"name": "winnerCount",
					"type": "uint256"
				}
			],
			"stateMutability": "view",
			"type": "function"
		},
		{
			"inputs": [
				{
					"internalType": "uint256",
					"name": "_proposalId",
					"type": "uint256"
				},
				{
					"internalType": "address",
					"name": "_voter",
					"type": "address"
				},
				{
					"internalType": "string[]",
					"name": "_hash",
					"type": "string[]"
				},
				{
					"internalType": "uint256[]",
					"name": "v",
					"type": "uint256[]"
				}
			],
			"name": "responseProposal",
			"outputs": [],
			"stateMutability": "nonpayable",
			"type": "function"
		},
		{
			"inputs": [
				{
					"internalType": "uint256",
					"name": "_proposalId",
					"type": "uint256"
				}
			],
			"name": "resultOf",
			"outputs": [
				{
					"internalType": "string",
					"name": "",
					"type": "string"
				}
			],
			"stateMutability": "nonpayable",
			"type": "function"
		},
		{
			"inputs": [
				{
					"internalType": "uint256",
					"name": "_proposalId",
					"type": "uint256"
				}
			],
			"name": "resultOfProposal",
			"outputs": [
				{
					"internalType": "uint256",
					"name": "",
					"type": "uint256"
				},
				{
					"internalType": "string",
					"name": "",
					"type": "string"
				}
			],
			"stateMutability": "view",
			"type": "function"
		},
		{
			"inputs": [
				{
					"internalType": "uint256",
					"name": "_proposalId",
					"type": "uint256"
				}
			],
			"name": "resultOfProposalbyId",
			"outputs": [
				{
					"internalType": "string[]",
					"name": "",
					"type": "string[]"
				}
			],
			"stateMutability": "nonpayable",
			"type": "function"
		},
		{
			"inputs": [],
			"name": "symbol",
			"outputs": [
				{
					"internalType": "string",
					"name": "",
					"type": "string"
				}
			],
			"stateMutability": "view",
			"type": "function"
		},
		{
			"inputs": [],
			"name": "totalSupply",
			"outputs": [
				{
					"internalType": "uint256",
					"name": "",
					"type": "uint256"
				}
			],
			"stateMutability": "view",
			"type": "function"
		},
		{
			"inputs": [
				{
					"internalType": "address",
					"name": "",
					"type": "address"
				}
			],
			"name": "userProposal",
			"outputs": [
				{
					"internalType": "uint128",
					"name": "proposalCount",
					"type": "uint128"
				},
				{
					"internalType": "uint128",
					"name": "responseCount",
					"type": "uint128"
				}
			],
			"stateMutability": "view",
			"type": "function"
		},
		{
			"inputs": [
				{
					"internalType": "uint256",
					"name": "_proposalId",
					"type": "uint256"
				}
			],
			"name": "votesArrayById",
			"outputs": [
				{
					"internalType": "uint256[]",
					"name": "",
					"type": "uint256[]"
				}
			],
			"stateMutability": "view",
			"type": "function"
		},
		{
			"inputs": [
				{
					"internalType": "uint256",
					"name": "_proposalId",
					"type": "uint256"
				}
			],
			"name": "winCountLen",
			"outputs": [
				{
					"internalType": "uint256",
					"name": "",
					"type": "uint256"
				}
			],
			"stateMutability": "view",
			"type": "function"
		}
	]
}